{
	"Bid.sol": {
		"Auction": {
			"abi": [
				{
					"inputs": [],
					"stateMutability": "nonpayable",
					"type": "constructor"
				},
				{
					"anonymous": false,
					"inputs": [
						{
							"indexed": true,
							"internalType": "address",
							"name": "sender",
							"type": "address"
						},
						{
							"indexed": false,
							"internalType": "uint256",
							"name": "amount",
							"type": "uint256"
						}
					],
					"name": "Bid",
					"type": "event"
				},
				{
					"anonymous": false,
					"inputs": [
						{
							"indexed": false,
							"internalType": "address",
							"name": "highestBidder",
							"type": "address"
						},
						{
							"indexed": false,
							"internalType": "uint256",
							"name": "highestBid",
							"type": "uint256"
						}
					],
					"name": "End",
					"type": "event"
				},
				{
					"anonymous": false,
					"inputs": [
						{
							"indexed": false,
							"internalType": "uint256",
							"name": "endAt",
							"type": "uint256"
						}
					],
					"name": "Start",
					"type": "event"
				},
				{
					"anonymous": false,
					"inputs": [
						{
							"indexed": true,
							"internalType": "address",
							"name": "bidder",
							"type": "address"
						},
						{
							"indexed": false,
							"internalType": "uint256",
							"name": "amount",
							"type": "uint256"
						}
					],
					"name": "Withdraw",
					"type": "event"
				},
				{
					"inputs": [],
					"name": "bid",
					"outputs": [],
					"stateMutability": "payable",
					"type": "function"
				},
				{
					"inputs": [
						{
							"internalType": "address",
							"name": "",
							"type": "address"
						}
					],
					"name": "bids",
					"outputs": [
						{
							"internalType": "uint256",
							"name": "",
							"type": "uint256"
						}
					],
					"stateMutability": "view",
					"type": "function"
				},
				{
					"inputs": [],
					"name": "end",
					"outputs": [],
					"stateMutability": "nonpayable",
					"type": "function"
				},
				{
					"inputs": [],
					"name": "endAt",
					"outputs": [
						{
							"internalType": "uint256",
							"name": "",
							"type": "uint256"
						}
					],
					"stateMutability": "view",
					"type": "function"
				},
				{
					"inputs": [],
					"name": "ended",
					"outputs": [
						{
							"internalType": "bool",
							"name": "",
							"type": "bool"
						}
					],
					"stateMutability": "view",
					"type": "function"
				},
				{
					"inputs": [],
					"name": "highestBid",
					"outputs": [
						{
							"internalType": "uint256",
							"name": "",
							"type": "uint256"
						}
					],
					"stateMutability": "view",
					"type": "function"
				},
				{
					"inputs": [],
					"name": "highestBidder",
					"outputs": [
						{
							"internalType": "address",
							"name": "",
							"type": "address"
						}
					],
					"stateMutability": "view",
					"type": "function"
				},
				{
					"inputs": [],
					"name": "nft",
					"outputs": [
						{
							"internalType": "contract IERC721",
							"name": "",
							"type": "address"
						}
					],
					"stateMutability": "view",
					"type": "function"
				},
				{
					"inputs": [],
					"name": "nftId",
					"outputs": [
						{
							"internalType": "uint256",
							"name": "",
							"type": "uint256"
						}
					],
					"stateMutability": "view",
					"type": "function"
				},
				{
					"inputs": [],
					"name": "seller",
					"outputs": [
						{
							"internalType": "address payable",
							"name": "",
							"type": "address"
						}
					],
					"stateMutability": "view",
					"type": "function"
				},
				{
					"inputs": [
						{
							"internalType": "contract IERC721",
							"name": "_nft",
							"type": "address"
						},
						{
							"internalType": "uint256",
							"name": "_nftId",
							"type": "uint256"
						},
						{
							"internalType": "uint256",
							"name": "startingBid",
							"type": "uint256"
						},
						{
							"internalType": "uint256",
							"name": "dayAmount",
							"type": "uint256"
						}
					],
					"name": "start",
					"outputs": [],
					"stateMutability": "nonpayable",
					"type": "function"
				},
				{
					"inputs": [],
					"name": "started",
					"outputs": [
						{
							"internalType": "bool",
							"name": "",
							"type": "bool"
						}
					],
					"stateMutability": "view",
					"type": "function"
				},
				{
					"inputs": [],
					"name": "withdraw",
					"outputs": [],
					"stateMutability": "payable",
					"type": "function"
				}
			],
			"devdoc": {
				"kind": "dev",
				"methods": {},
				"version": 1
			},
			"evm": {
				"assembly": "    /* \"Bid.sol\":230:2563  contract Auction {\r... */\n  mstore(0x40, 0x80)\n    /* \"Bid.sol\":727:789  constructor () {\r... */\n  callvalue\n  dup1\n  iszero\n  tag_1\n  jumpi\n  0x00\n  dup1\n  revert\ntag_1:\n  pop\n    /* \"Bid.sol\":770:780  msg.sender */\n  caller\n    /* \"Bid.sol\":753:759  seller */\n  0x00\n  dup1\n    /* \"Bid.sol\":753:781  seller = payable(msg.sender) */\n  0x0100\n  exp\n  dup2\n  sload\n  dup2\n  0xffffffffffffffffffffffffffffffffffffffff\n  mul\n  not\n  and\n  swap1\n  dup4\n  0xffffffffffffffffffffffffffffffffffffffff\n  and\n  mul\n  or\n  swap1\n  sstore\n  pop\n    /* \"Bid.sol\":230:2563  contract Auction {\r... */\n  dataSize(sub_0)\n  dup1\n  dataOffset(sub_0)\n  0x00\n  codecopy\n  0x00\n  return\nstop\n\nsub_0: assembly {\n        /* \"Bid.sol\":230:2563  contract Auction {\r... */\n      mstore(0x40, 0x80)\n      jumpi(tag_1, lt(calldatasize, 0x04))\n      shr(0xe0, calldataload(0x00))\n      dup1\n      0x62ea82db\n      gt\n      tag_15\n      jumpi\n      dup1\n      0xb76a3b5a\n      gt\n      tag_16\n      jumpi\n      dup1\n      0xb76a3b5a\n      eq\n      tag_11\n      jumpi\n      dup1\n      0xc6bc5182\n      eq\n      tag_12\n      jumpi\n      dup1\n      0xd57bde79\n      eq\n      tag_13\n      jumpi\n      dup1\n      0xefbe1c1c\n      eq\n      tag_14\n      jumpi\n      jump(tag_1)\n    tag_16:\n      dup1\n      0x62ea82db\n      eq\n      tag_8\n      jumpi\n      dup1\n      0x7cc3ae8c\n      eq\n      tag_9\n      jumpi\n      dup1\n      0x91f90157\n      eq\n      tag_10\n      jumpi\n      jump(tag_1)\n    tag_15:\n      dup1\n      0x08551a53\n      eq\n      tag_2\n      jumpi\n      dup1\n      0x12fa6feb\n      eq\n      tag_3\n      jumpi\n      dup1\n      0x1998aeef\n      eq\n      tag_4\n      jumpi\n      dup1\n      0x1f2698ab\n      eq\n      tag_5\n      jumpi\n      dup1\n      0x3ccfd60b\n      eq\n      tag_6\n      jumpi\n      dup1\n      0x47ccca02\n      eq\n      tag_7\n      jumpi\n    tag_1:\n      0x00\n      dup1\n      revert\n        /* \"Bid.sol\":453:482  address payable public seller */\n    tag_2:\n      callvalue\n      dup1\n      iszero\n      tag_17\n      jumpi\n      0x00\n      dup1\n      revert\n    tag_17:\n      pop\n      tag_18\n      tag_19\n      jump\t// in\n    tag_18:\n      mload(0x40)\n      tag_20\n      swap2\n      swap1\n      tag_21\n      jump\t// in\n    tag_20:\n      mload(0x40)\n      dup1\n      swap2\n      sub\n      swap1\n      return\n        /* \"Bid.sol\":517:534  bool public ended */\n    tag_3:\n      callvalue\n      dup1\n      iszero\n      tag_22\n      jumpi\n      0x00\n      dup1\n      revert\n    tag_22:\n      pop\n      tag_23\n      tag_24\n      jump\t// in\n    tag_23:\n      mload(0x40)\n      tag_25\n      swap2\n      swap1\n      tag_26\n      jump\t// in\n    tag_25:\n      mload(0x40)\n      dup1\n      swap2\n      sub\n      swap1\n      return\n        /* \"Bid.sol\":1270:1673  function bid() external payable {\r... */\n    tag_4:\n      tag_27\n      tag_28\n      jump\t// in\n    tag_27:\n      stop\n        /* \"Bid.sol\":491:510  bool public started */\n    tag_5:\n      callvalue\n      dup1\n      iszero\n      tag_29\n      jumpi\n      0x00\n      dup1\n      revert\n    tag_29:\n      pop\n      tag_30\n      tag_31\n      jump\t// in\n    tag_30:\n      mload(0x40)\n      tag_32\n      swap2\n      swap1\n      tag_26\n      jump\t// in\n    tag_32:\n      mload(0x40)\n      dup1\n      swap2\n      sub\n      swap1\n      return\n        /* \"Bid.sol\":1681:1968  function withdraw() external payable {\r... */\n    tag_6:\n      tag_33\n      tag_34\n      jump\t// in\n    tag_33:\n      stop\n        /* \"Bid.sol\":567:585  IERC721 public nft */\n    tag_7:\n      callvalue\n      dup1\n      iszero\n      tag_35\n      jumpi\n      0x00\n      dup1\n      revert\n    tag_35:\n      pop\n      tag_36\n      tag_37\n      jump\t// in\n    tag_36:\n      mload(0x40)\n      tag_38\n      swap2\n      swap1\n      tag_39\n      jump\t// in\n    tag_38:\n      mload(0x40)\n      dup1\n      swap2\n      sub\n      swap1\n      return\n        /* \"Bid.sol\":682:718  mapping(address => uint) public bids */\n    tag_8:\n      callvalue\n      dup1\n      iszero\n      tag_40\n      jumpi\n      0x00\n      dup1\n      revert\n    tag_40:\n      pop\n      tag_41\n      0x04\n      dup1\n      calldatasize\n      sub\n      dup2\n      add\n      swap1\n      tag_42\n      swap2\n      swap1\n      tag_43\n      jump\t// in\n    tag_42:\n      tag_44\n      jump\t// in\n    tag_41:\n      mload(0x40)\n      tag_45\n      swap2\n      swap1\n      tag_46\n      jump\t// in\n    tag_45:\n      mload(0x40)\n      dup1\n      swap2\n      sub\n      swap1\n      return\n        /* \"Bid.sol\":541:558  uint public endAt */\n    tag_9:\n      callvalue\n      dup1\n      iszero\n      tag_47\n      jumpi\n      0x00\n      dup1\n      revert\n    tag_47:\n      pop\n      tag_48\n      tag_49\n      jump\t// in\n    tag_48:\n      mload(0x40)\n      tag_50\n      swap2\n      swap1\n      tag_46\n      jump\t// in\n    tag_50:\n      mload(0x40)\n      dup1\n      swap2\n      sub\n      swap1\n      return\n        /* \"Bid.sol\":647:675  address public highestBidder */\n    tag_10:\n      callvalue\n      dup1\n      iszero\n      tag_51\n      jumpi\n      0x00\n      dup1\n      revert\n    tag_51:\n      pop\n      tag_52\n      tag_53\n      jump\t// in\n    tag_52:\n      mload(0x40)\n      tag_54\n      swap2\n      swap1\n      tag_55\n      jump\t// in\n    tag_54:\n      mload(0x40)\n      dup1\n      swap2\n      sub\n      swap1\n      return\n        /* \"Bid.sol\":797:1262  function start(IERC721 _nft, uint _nftId, uint startingBid, uint256 dayAmount) external {\r... */\n    tag_11:\n      callvalue\n      dup1\n      iszero\n      tag_56\n      jumpi\n      0x00\n      dup1\n      revert\n    tag_56:\n      pop\n      tag_57\n      0x04\n      dup1\n      calldatasize\n      sub\n      dup2\n      add\n      swap1\n      tag_58\n      swap2\n      swap1\n      tag_59\n      jump\t// in\n    tag_58:\n      tag_60\n      jump\t// in\n    tag_57:\n      stop\n        /* \"Bid.sol\":592:609  uint public nftId */\n    tag_12:\n      callvalue\n      dup1\n      iszero\n      tag_61\n      jumpi\n      0x00\n      dup1\n      revert\n    tag_61:\n      pop\n      tag_62\n      tag_63\n      jump\t// in\n    tag_62:\n      mload(0x40)\n      tag_64\n      swap2\n      swap1\n      tag_46\n      jump\t// in\n    tag_64:\n      mload(0x40)\n      dup1\n      swap2\n      sub\n      swap1\n      return\n        /* \"Bid.sol\":618:640  uint public highestBid */\n    tag_13:\n      callvalue\n      dup1\n      iszero\n      tag_65\n      jumpi\n      0x00\n      dup1\n      revert\n    tag_65:\n      pop\n      tag_66\n      tag_67\n      jump\t// in\n    tag_66:\n      mload(0x40)\n      tag_68\n      swap2\n      swap1\n      tag_46\n      jump\t// in\n    tag_68:\n      mload(0x40)\n      dup1\n      swap2\n      sub\n      swap1\n      return\n        /* \"Bid.sol\":1976:2560  function end() external {\r... */\n    tag_14:\n      callvalue\n      dup1\n      iszero\n      tag_69\n      jumpi\n      0x00\n      dup1\n      revert\n    tag_69:\n      pop\n      tag_70\n      tag_71\n      jump\t// in\n    tag_70:\n      stop\n        /* \"Bid.sol\":453:482  address payable public seller */\n    tag_19:\n      0x00\n      dup1\n      sload\n      swap1\n      0x0100\n      exp\n      swap1\n      div\n      0xffffffffffffffffffffffffffffffffffffffff\n      and\n      dup2\n      jump\t// out\n        /* \"Bid.sol\":517:534  bool public ended */\n    tag_24:\n      0x00\n      0x15\n      swap1\n      sload\n      swap1\n      0x0100\n      exp\n      swap1\n      div\n      0xff\n      and\n      dup2\n      jump\t// out\n        /* \"Bid.sol\":1270:1673  function bid() external payable {\r... */\n    tag_28:\n        /* \"Bid.sol\":1321:1328  started */\n      0x00\n      0x14\n      swap1\n      sload\n      swap1\n      0x0100\n      exp\n      swap1\n      div\n      0xff\n      and\n        /* \"Bid.sol\":1313:1345  require(started, \"Not started.\") */\n      tag_73\n      jumpi\n      mload(0x40)\n      0x08c379a000000000000000000000000000000000000000000000000000000000\n      dup2\n      mstore\n      0x04\n      add\n      tag_74\n      swap1\n      tag_75\n      jump\t// in\n    tag_74:\n      mload(0x40)\n      dup1\n      swap2\n      sub\n      swap1\n      revert\n    tag_73:\n        /* \"Bid.sol\":1382:1387  endAt */\n      sload(0x01)\n        /* \"Bid.sol\":1364:1379  block.timestamp */\n      timestamp\n        /* \"Bid.sol\":1364:1387  block.timestamp < endAt */\n      lt\n        /* \"Bid.sol\":1356:1398  require(block.timestamp < endAt, \"Ended!\") */\n      tag_76\n      jumpi\n      mload(0x40)\n      0x08c379a000000000000000000000000000000000000000000000000000000000\n      dup2\n      mstore\n      0x04\n      add\n      tag_77\n      swap1\n      tag_78\n      jump\t// in\n    tag_77:\n      mload(0x40)\n      dup1\n      swap2\n      sub\n      swap1\n      revert\n    tag_76:\n        /* \"Bid.sol\":1429:1439  highestBid */\n      sload(0x04)\n        /* \"Bid.sol\":1417:1426  msg.value */\n      callvalue\n        /* \"Bid.sol\":1417:1439  msg.value > highestBid */\n      gt\n        /* \"Bid.sol\":1409:1440  require(msg.value > highestBid) */\n      tag_79\n      jumpi\n      0x00\n      dup1\n      revert\n    tag_79:\n        /* \"Bid.sol\":1482:1483  0 */\n      0x00\n        /* \"Bid.sol\":1457:1484  highestBidder != address(0) */\n      0xffffffffffffffffffffffffffffffffffffffff\n      and\n        /* \"Bid.sol\":1457:1470  highestBidder */\n      0x05\n      0x00\n      swap1\n      sload\n      swap1\n      0x0100\n      exp\n      swap1\n      div\n      0xffffffffffffffffffffffffffffffffffffffff\n      and\n        /* \"Bid.sol\":1457:1484  highestBidder != address(0) */\n      0xffffffffffffffffffffffffffffffffffffffff\n      and\n      eq\n        /* \"Bid.sol\":1453:1546  if (highestBidder != address(0)) {\r... */\n      tag_80\n      jumpi\n        /* \"Bid.sol\":1524:1534  highestBid */\n      sload(0x04)\n        /* \"Bid.sol\":1501:1505  bids */\n      0x06\n        /* \"Bid.sol\":1501:1520  bids[highestBidder] */\n      0x00\n        /* \"Bid.sol\":1506:1519  highestBidder */\n      0x05\n      0x00\n      swap1\n      sload\n      swap1\n      0x0100\n      exp\n      swap1\n      div\n      0xffffffffffffffffffffffffffffffffffffffff\n      and\n        /* \"Bid.sol\":1501:1520  bids[highestBidder] */\n      0xffffffffffffffffffffffffffffffffffffffff\n      and\n      0xffffffffffffffffffffffffffffffffffffffff\n      and\n      dup2\n      mstore\n      0x20\n      add\n      swap1\n      dup2\n      mstore\n      0x20\n      add\n      0x00\n      keccak256\n      0x00\n        /* \"Bid.sol\":1501:1534  bids[highestBidder] += highestBid */\n      dup3\n      dup3\n      sload\n      tag_81\n      swap2\n      swap1\n      tag_82\n      jump\t// in\n    tag_81:\n      swap3\n      pop\n      pop\n      dup2\n      swap1\n      sstore\n      pop\n        /* \"Bid.sol\":1453:1546  if (highestBidder != address(0)) {\r... */\n    tag_80:\n        /* \"Bid.sol\":1571:1580  msg.value */\n      callvalue\n        /* \"Bid.sol\":1558:1568  highestBid */\n      0x04\n        /* \"Bid.sol\":1558:1580  highestBid = msg.value */\n      dup2\n      swap1\n      sstore\n      pop\n        /* \"Bid.sol\":1607:1617  msg.sender */\n      caller\n        /* \"Bid.sol\":1591:1604  highestBidder */\n      0x05\n      0x00\n        /* \"Bid.sol\":1591:1617  highestBidder = msg.sender */\n      0x0100\n      exp\n      dup2\n      sload\n      dup2\n      0xffffffffffffffffffffffffffffffffffffffff\n      mul\n      not\n      and\n      swap1\n      dup4\n      0xffffffffffffffffffffffffffffffffffffffff\n      and\n      mul\n      or\n      swap1\n      sstore\n      pop\n        /* \"Bid.sol\":1639:1652  highestBidder */\n      0x05\n      0x00\n      swap1\n      sload\n      swap1\n      0x0100\n      exp\n      swap1\n      div\n      0xffffffffffffffffffffffffffffffffffffffff\n      and\n        /* \"Bid.sol\":1635:1665  Bid(highestBidder, highestBid) */\n      0xffffffffffffffffffffffffffffffffffffffff\n      and\n      0xe684a55f31b79eca403df938249029212a5925ec6be8012e099b45bc1019e5d2\n        /* \"Bid.sol\":1654:1664  highestBid */\n      sload(0x04)\n        /* \"Bid.sol\":1635:1665  Bid(highestBidder, highestBid) */\n      mload(0x40)\n      tag_83\n      swap2\n      swap1\n      tag_46\n      jump\t// in\n    tag_83:\n      mload(0x40)\n      dup1\n      swap2\n      sub\n      swap1\n      log2\n        /* \"Bid.sol\":1270:1673  function bid() external payable {\r... */\n      jump\t// out\n        /* \"Bid.sol\":491:510  bool public started */\n    tag_31:\n      0x00\n      0x14\n      swap1\n      sload\n      swap1\n      0x0100\n      exp\n      swap1\n      div\n      0xff\n      and\n      dup2\n      jump\t// out\n        /* \"Bid.sol\":1681:1968  function withdraw() external payable {\r... */\n    tag_34:\n        /* \"Bid.sol\":1729:1737  uint bal */\n      0x00\n        /* \"Bid.sol\":1740:1744  bids */\n      0x06\n        /* \"Bid.sol\":1740:1756  bids[msg.sender] */\n      0x00\n        /* \"Bid.sol\":1745:1755  msg.sender */\n      caller\n        /* \"Bid.sol\":1740:1756  bids[msg.sender] */\n      0xffffffffffffffffffffffffffffffffffffffff\n      and\n      0xffffffffffffffffffffffffffffffffffffffff\n      and\n      dup2\n      mstore\n      0x20\n      add\n      swap1\n      dup2\n      mstore\n      0x20\n      add\n      0x00\n      keccak256\n      sload\n        /* \"Bid.sol\":1729:1756  uint bal = bids[msg.sender] */\n      swap1\n      pop\n        /* \"Bid.sol\":1786:1787  0 */\n      0x00\n        /* \"Bid.sol\":1767:1771  bids */\n      0x06\n        /* \"Bid.sol\":1767:1783  bids[msg.sender] */\n      0x00\n        /* \"Bid.sol\":1772:1782  msg.sender */\n      caller\n        /* \"Bid.sol\":1767:1783  bids[msg.sender] */\n      0xffffffffffffffffffffffffffffffffffffffff\n      and\n      0xffffffffffffffffffffffffffffffffffffffff\n      and\n      dup2\n      mstore\n      0x20\n      add\n      swap1\n      dup2\n      mstore\n      0x20\n      add\n      0x00\n      keccak256\n        /* \"Bid.sol\":1767:1787  bids[msg.sender] = 0 */\n      dup2\n      swap1\n      sstore\n      pop\n        /* \"Bid.sol\":1799:1808  bool sent */\n      0x00\n        /* \"Bid.sol\":1810:1827  bytes memory data */\n      dup1\n        /* \"Bid.sol\":1839:1849  msg.sender */\n      caller\n        /* \"Bid.sol\":1831:1855  payable(msg.sender).call */\n      0xffffffffffffffffffffffffffffffffffffffff\n      and\n        /* \"Bid.sol\":1863:1866  bal */\n      dup4\n        /* \"Bid.sol\":1831:1871  payable(msg.sender).call{value: bal}(\"\") */\n      mload(0x40)\n      tag_85\n      swap1\n      tag_86\n      jump\t// in\n    tag_85:\n      0x00\n      mload(0x40)\n      dup1\n      dup4\n      sub\n      dup2\n      dup6\n      dup8\n      gas\n      call\n      swap3\n      pop\n      pop\n      pop\n      returndatasize\n      dup1\n      0x00\n      dup2\n      eq\n      tag_89\n      jumpi\n      mload(0x40)\n      swap2\n      pop\n      and(add(returndatasize, 0x3f), not(0x1f))\n      dup3\n      add\n      0x40\n      mstore\n      returndatasize\n      dup3\n      mstore\n      returndatasize\n      0x00\n      0x20\n      dup5\n      add\n      returndatacopy\n      jump(tag_88)\n    tag_89:\n      0x60\n      swap2\n      pop\n    tag_88:\n      pop\n        /* \"Bid.sol\":1798:1871  (bool sent, bytes memory data) = payable(msg.sender).call{value: bal}(\"\") */\n      swap2\n      pop\n      swap2\n      pop\n        /* \"Bid.sol\":1890:1894  sent */\n      dup2\n        /* \"Bid.sol\":1882:1917  require(sent, \"Could not withdraw\") */\n      tag_90\n      jumpi\n      mload(0x40)\n      0x08c379a000000000000000000000000000000000000000000000000000000000\n      dup2\n      mstore\n      0x04\n      add\n      tag_91\n      swap1\n      tag_92\n      jump\t// in\n    tag_91:\n      mload(0x40)\n      dup1\n      swap2\n      sub\n      swap1\n      revert\n    tag_90:\n        /* \"Bid.sol\":1944:1954  msg.sender */\n      caller\n        /* \"Bid.sol\":1935:1960  Withdraw(msg.sender, bal) */\n      0xffffffffffffffffffffffffffffffffffffffff\n      and\n      0x884edad9ce6fa2440d8a54cc123490eb96d2768479d49ff9c7366125a9424364\n        /* \"Bid.sol\":1956:1959  bal */\n      dup5\n        /* \"Bid.sol\":1935:1960  Withdraw(msg.sender, bal) */\n      mload(0x40)\n      tag_93\n      swap2\n      swap1\n      tag_46\n      jump\t// in\n    tag_93:\n      mload(0x40)\n      dup1\n      swap2\n      sub\n      swap1\n      log2\n        /* \"Bid.sol\":1718:1968  {\r... */\n      pop\n      pop\n      pop\n        /* \"Bid.sol\":1681:1968  function withdraw() external payable {\r... */\n      jump\t// out\n        /* \"Bid.sol\":567:585  IERC721 public nft */\n    tag_37:\n      0x02\n      0x00\n      swap1\n      sload\n      swap1\n      0x0100\n      exp\n      swap1\n      div\n      0xffffffffffffffffffffffffffffffffffffffff\n      and\n      dup2\n      jump\t// out\n        /* \"Bid.sol\":682:718  mapping(address => uint) public bids */\n    tag_44:\n      mstore(0x20, 0x06)\n      dup1\n      0x00\n      mstore\n      keccak256(0x00, 0x40)\n      0x00\n      swap2\n      pop\n      swap1\n      pop\n      sload\n      dup2\n      jump\t// out\n        /* \"Bid.sol\":541:558  uint public endAt */\n    tag_49:\n      sload(0x01)\n      dup2\n      jump\t// out\n        /* \"Bid.sol\":647:675  address public highestBidder */\n    tag_53:\n      0x05\n      0x00\n      swap1\n      sload\n      swap1\n      0x0100\n      exp\n      swap1\n      div\n      0xffffffffffffffffffffffffffffffffffffffff\n      and\n      dup2\n      jump\t// out\n        /* \"Bid.sol\":797:1262  function start(IERC721 _nft, uint _nftId, uint startingBid, uint256 dayAmount) external {\r... */\n    tag_60:\n        /* \"Bid.sol\":905:912  started */\n      0x00\n      0x14\n      swap1\n      sload\n      swap1\n      0x0100\n      exp\n      swap1\n      div\n      0xff\n      and\n        /* \"Bid.sol\":904:912  !started */\n      iszero\n        /* \"Bid.sol\":896:933  require(!started, \"Already started!\") */\n      tag_95\n      jumpi\n      mload(0x40)\n      0x08c379a000000000000000000000000000000000000000000000000000000000\n      dup2\n      mstore\n      0x04\n      add\n      tag_96\n      swap1\n      tag_97\n      jump\t// in\n    tag_96:\n      mload(0x40)\n      dup1\n      swap2\n      sub\n      swap1\n      revert\n    tag_95:\n        /* \"Bid.sol\":966:972  seller */\n      0x00\n      dup1\n      sload\n      swap1\n      0x0100\n      exp\n      swap1\n      div\n      0xffffffffffffffffffffffffffffffffffffffff\n      and\n        /* \"Bid.sol\":952:972  msg.sender == seller */\n      0xffffffffffffffffffffffffffffffffffffffff\n      and\n        /* \"Bid.sol\":952:962  msg.sender */\n      caller\n        /* \"Bid.sol\":952:972  msg.sender == seller */\n      0xffffffffffffffffffffffffffffffffffffffff\n      and\n      eq\n        /* \"Bid.sol\":944:1007  require(msg.sender == seller, \"You did not start the auction!\") */\n      tag_98\n      jumpi\n      mload(0x40)\n      0x08c379a000000000000000000000000000000000000000000000000000000000\n      dup2\n      mstore\n      0x04\n      add\n      tag_99\n      swap1\n      tag_100\n      jump\t// in\n    tag_99:\n      mload(0x40)\n      dup1\n      swap2\n      sub\n      swap1\n      revert\n    tag_98:\n        /* \"Bid.sol\":1031:1042  startingBid */\n      dup2\n        /* \"Bid.sol\":1018:1028  highestBid */\n      0x04\n        /* \"Bid.sol\":1018:1042  highestBid = startingBid */\n      dup2\n      swap1\n      sstore\n      pop\n        /* \"Bid.sol\":1061:1065  _nft */\n      dup4\n        /* \"Bid.sol\":1055:1058  nft */\n      0x02\n      0x00\n        /* \"Bid.sol\":1055:1065  nft = _nft */\n      0x0100\n      exp\n      dup2\n      sload\n      dup2\n      0xffffffffffffffffffffffffffffffffffffffff\n      mul\n      not\n      and\n      swap1\n      dup4\n      0xffffffffffffffffffffffffffffffffffffffff\n      and\n      mul\n      or\n      swap1\n      sstore\n      pop\n        /* \"Bid.sol\":1084:1090  _nftId */\n      dup3\n        /* \"Bid.sol\":1076:1081  nftId */\n      0x03\n        /* \"Bid.sol\":1076:1090  nftId = _nftId */\n      dup2\n      swap1\n      sstore\n      pop\n        /* \"Bid.sol\":1101:1104  nft */\n      0x02\n      0x00\n      swap1\n      sload\n      swap1\n      0x0100\n      exp\n      swap1\n      div\n      0xffffffffffffffffffffffffffffffffffffffff\n      and\n        /* \"Bid.sol\":1101:1117  nft.transferFrom */\n      0xffffffffffffffffffffffffffffffffffffffff\n      and\n      0x23b872dd\n        /* \"Bid.sol\":1118:1128  msg.sender */\n      caller\n        /* \"Bid.sol\":1138:1142  this */\n      address\n        /* \"Bid.sol\":1145:1150  nftId */\n      sload(0x03)\n        /* \"Bid.sol\":1101:1151  nft.transferFrom(msg.sender, address(this), nftId) */\n      mload(0x40)\n      dup5\n      0xffffffff\n      and\n      0xe0\n      shl\n      dup2\n      mstore\n      0x04\n      add\n      tag_101\n      swap4\n      swap3\n      swap2\n      swap1\n      tag_102\n      jump\t// in\n    tag_101:\n      0x00\n      mload(0x40)\n      dup1\n      dup4\n      sub\n      dup2\n      0x00\n      dup8\n      dup1\n      extcodesize\n      iszero\n      dup1\n      iszero\n      tag_103\n      jumpi\n      0x00\n      dup1\n      revert\n    tag_103:\n      pop\n      gas\n      call\n      iszero\n      dup1\n      iszero\n      tag_105\n      jumpi\n      returndatasize\n      0x00\n      dup1\n      returndatacopy\n      revert(0x00, returndatasize)\n    tag_105:\n      pop\n      pop\n      pop\n      pop\n        /* \"Bid.sol\":1174:1178  true */\n      0x01\n        /* \"Bid.sol\":1164:1171  started */\n      0x00\n      0x14\n        /* \"Bid.sol\":1164:1178  started = true */\n      0x0100\n      exp\n      dup2\n      sload\n      dup2\n      0xff\n      mul\n      not\n      and\n      swap1\n      dup4\n      iszero\n      iszero\n      mul\n      or\n      swap1\n      sstore\n      pop\n        /* \"Bid.sol\":1215:1224  dayAmount */\n      dup1\n        /* \"Bid.sol\":1197:1212  block.timestamp */\n      timestamp\n        /* \"Bid.sol\":1197:1224  block.timestamp + dayAmount */\n      tag_106\n      swap2\n      swap1\n      tag_82\n      jump\t// in\n    tag_106:\n        /* \"Bid.sol\":1189:1194  endAt */\n      0x01\n        /* \"Bid.sol\":1189:1224  endAt = block.timestamp + dayAmount */\n      dup2\n      swap1\n      sstore\n      pop\n        /* \"Bid.sol\":1242:1254  Start(endAt) */\n      0xf06a29c94c6f4edc1085072972d9441f7603e81c8535a308f214285d0653c850\n        /* \"Bid.sol\":1248:1253  endAt */\n      sload(0x01)\n        /* \"Bid.sol\":1242:1254  Start(endAt) */\n      mload(0x40)\n      tag_107\n      swap2\n      swap1\n      tag_46\n      jump\t// in\n    tag_107:\n      mload(0x40)\n      dup1\n      swap2\n      sub\n      swap1\n      log1\n        /* \"Bid.sol\":797:1262  function start(IERC721 _nft, uint _nftId, uint startingBid, uint256 dayAmount) external {\r... */\n      pop\n      pop\n      pop\n      pop\n      jump\t// out\n        /* \"Bid.sol\":592:609  uint public nftId */\n    tag_63:\n      sload(0x03)\n      dup2\n      jump\t// out\n        /* \"Bid.sol\":618:640  uint public highestBid */\n    tag_67:\n      sload(0x04)\n      dup2\n      jump\t// out\n        /* \"Bid.sol\":1976:2560  function end() external {\r... */\n    tag_71:\n        /* \"Bid.sol\":2019:2026  started */\n      0x00\n      0x14\n      swap1\n      sload\n      swap1\n      0x0100\n      exp\n      swap1\n      div\n      0xff\n      and\n        /* \"Bid.sol\":2011:2055  require(started, \"You need to start first!\") */\n      tag_109\n      jumpi\n      mload(0x40)\n      0x08c379a000000000000000000000000000000000000000000000000000000000\n      dup2\n      mstore\n      0x04\n      add\n      tag_110\n      swap1\n      tag_111\n      jump\t// in\n    tag_110:\n      mload(0x40)\n      dup1\n      swap2\n      sub\n      swap1\n      revert\n    tag_109:\n        /* \"Bid.sol\":2093:2098  endAt */\n      sload(0x01)\n        /* \"Bid.sol\":2074:2089  block.timestamp */\n      timestamp\n        /* \"Bid.sol\":2074:2098  block.timestamp >= endAt */\n      lt\n      iszero\n        /* \"Bid.sol\":2066:2128  require(block.timestamp >= endAt, \"Auction is still ongoing!\") */\n      tag_112\n      jumpi\n      mload(0x40)\n      0x08c379a000000000000000000000000000000000000000000000000000000000\n      dup2\n      mstore\n      0x04\n      add\n      tag_113\n      swap1\n      tag_114\n      jump\t// in\n    tag_113:\n      mload(0x40)\n      dup1\n      swap2\n      sub\n      swap1\n      revert\n    tag_112:\n        /* \"Bid.sol\":2148:2153  ended */\n      0x00\n      0x15\n      swap1\n      sload\n      swap1\n      0x0100\n      exp\n      swap1\n      div\n      0xff\n      and\n        /* \"Bid.sol\":2147:2153  !ended */\n      iszero\n        /* \"Bid.sol\":2139:2180  require(!ended, \"Auction already ended!\") */\n      tag_115\n      jumpi\n      mload(0x40)\n      0x08c379a000000000000000000000000000000000000000000000000000000000\n      dup2\n      mstore\n      0x04\n      add\n      tag_116\n      swap1\n      tag_117\n      jump\t// in\n    tag_116:\n      mload(0x40)\n      dup1\n      swap2\n      sub\n      swap1\n      revert\n    tag_115:\n        /* \"Bid.sol\":2222:2223  0 */\n      0x00\n        /* \"Bid.sol\":2197:2224  highestBidder != address(0) */\n      0xffffffffffffffffffffffffffffffffffffffff\n      and\n        /* \"Bid.sol\":2197:2210  highestBidder */\n      0x05\n      0x00\n      swap1\n      sload\n      swap1\n      0x0100\n      exp\n      swap1\n      div\n      0xffffffffffffffffffffffffffffffffffffffff\n      and\n        /* \"Bid.sol\":2197:2224  highestBidder != address(0) */\n      0xffffffffffffffffffffffffffffffffffffffff\n      and\n      eq\n        /* \"Bid.sol\":2193:2482  if (highestBidder != address(0)) {\r... */\n      tag_118\n      jumpi\n        /* \"Bid.sol\":2241:2244  nft */\n      0x02\n      0x00\n      swap1\n      sload\n      swap1\n      0x0100\n      exp\n      swap1\n      div\n      0xffffffffffffffffffffffffffffffffffffffff\n      and\n        /* \"Bid.sol\":2241:2253  nft.transfer */\n      0xffffffffffffffffffffffffffffffffffffffff\n      and\n      0xa9059cbb\n        /* \"Bid.sol\":2254:2267  highestBidder */\n      0x05\n      0x00\n      swap1\n      sload\n      swap1\n      0x0100\n      exp\n      swap1\n      div\n      0xffffffffffffffffffffffffffffffffffffffff\n      and\n        /* \"Bid.sol\":2269:2274  nftId */\n      sload(0x03)\n        /* \"Bid.sol\":2241:2275  nft.transfer(highestBidder, nftId) */\n      mload(0x40)\n      dup4\n      0xffffffff\n      and\n      0xe0\n      shl\n      dup2\n      mstore\n      0x04\n      add\n      tag_119\n      swap3\n      swap2\n      swap1\n      tag_120\n      jump\t// in\n    tag_119:\n      0x00\n      mload(0x40)\n      dup1\n      dup4\n      sub\n      dup2\n      0x00\n      dup8\n      dup1\n      extcodesize\n      iszero\n      dup1\n      iszero\n      tag_121\n      jumpi\n      0x00\n      dup1\n      revert\n    tag_121:\n      pop\n      gas\n      call\n      iszero\n      dup1\n      iszero\n      tag_123\n      jumpi\n      returndatasize\n      0x00\n      dup1\n      returndatacopy\n      revert(0x00, returndatasize)\n    tag_123:\n      pop\n      pop\n      pop\n      pop\n        /* \"Bid.sol\":2291:2300  bool sent */\n      0x00\n        /* \"Bid.sol\":2302:2319  bytes memory data */\n      dup1\n        /* \"Bid.sol\":2323:2329  seller */\n      0x00\n      dup1\n      sload\n      swap1\n      0x0100\n      exp\n      swap1\n      div\n      0xffffffffffffffffffffffffffffffffffffffff\n      and\n        /* \"Bid.sol\":2323:2334  seller.call */\n      0xffffffffffffffffffffffffffffffffffffffff\n      and\n        /* \"Bid.sol\":2342:2352  highestBid */\n      sload(0x04)\n        /* \"Bid.sol\":2323:2357  seller.call{value: highestBid}(\"\") */\n      mload(0x40)\n      tag_124\n      swap1\n      tag_86\n      jump\t// in\n    tag_124:\n      0x00\n      mload(0x40)\n      dup1\n      dup4\n      sub\n      dup2\n      dup6\n      dup8\n      gas\n      call\n      swap3\n      pop\n      pop\n      pop\n      returndatasize\n      dup1\n      0x00\n      dup2\n      eq\n      tag_127\n      jumpi\n      mload(0x40)\n      swap2\n      pop\n      and(add(returndatasize, 0x3f), not(0x1f))\n      dup3\n      add\n      0x40\n      mstore\n      returndatasize\n      dup3\n      mstore\n      returndatasize\n      0x00\n      0x20\n      dup5\n      add\n      returndatacopy\n      jump(tag_126)\n    tag_127:\n      0x60\n      swap2\n      pop\n    tag_126:\n      pop\n        /* \"Bid.sol\":2290:2357  (bool sent, bytes memory data) = seller.call{value: highestBid}(\"\") */\n      swap2\n      pop\n      swap2\n      pop\n        /* \"Bid.sol\":2380:2384  sent */\n      dup2\n        /* \"Bid.sol\":2372:2410  require(sent, \"Could not pay seller!\") */\n      tag_128\n      jumpi\n      mload(0x40)\n      0x08c379a000000000000000000000000000000000000000000000000000000000\n      dup2\n      mstore\n      0x04\n      add\n      tag_129\n      swap1\n      tag_130\n      jump\t// in\n    tag_129:\n      mload(0x40)\n      dup1\n      swap2\n      sub\n      swap1\n      revert\n    tag_128:\n        /* \"Bid.sol\":2226:2422  {\r... */\n      pop\n      pop\n        /* \"Bid.sol\":2193:2482  if (highestBidder != address(0)) {\r... */\n      jump(tag_131)\n    tag_118:\n        /* \"Bid.sol\":2443:2446  nft */\n      0x02\n      0x00\n      swap1\n      sload\n      swap1\n      0x0100\n      exp\n      swap1\n      div\n      0xffffffffffffffffffffffffffffffffffffffff\n      and\n        /* \"Bid.sol\":2443:2455  nft.transfer */\n      0xffffffffffffffffffffffffffffffffffffffff\n      and\n      0xa9059cbb\n        /* \"Bid.sol\":2456:2462  seller */\n      0x00\n      dup1\n      sload\n      swap1\n      0x0100\n      exp\n      swap1\n      div\n      0xffffffffffffffffffffffffffffffffffffffff\n      and\n        /* \"Bid.sol\":2464:2469  nftId */\n      sload(0x03)\n        /* \"Bid.sol\":2443:2470  nft.transfer(seller, nftId) */\n      mload(0x40)\n      dup4\n      0xffffffff\n      and\n      0xe0\n      shl\n      dup2\n      mstore\n      0x04\n      add\n      tag_132\n      swap3\n      swap2\n      swap1\n      tag_133\n      jump\t// in\n    tag_132:\n      0x00\n      mload(0x40)\n      dup1\n      dup4\n      sub\n      dup2\n      0x00\n      dup8\n      dup1\n      extcodesize\n      iszero\n      dup1\n      iszero\n      tag_134\n      jumpi\n      0x00\n      dup1\n      revert\n    tag_134:\n      pop\n      gas\n      call\n      iszero\n      dup1\n      iszero\n      tag_136\n      jumpi\n      returndatasize\n      0x00\n      dup1\n      returndatacopy\n      revert(0x00, returndatasize)\n    tag_136:\n      pop\n      pop\n      pop\n      pop\n        /* \"Bid.sol\":2193:2482  if (highestBidder != address(0)) {\r... */\n    tag_131:\n        /* \"Bid.sol\":2502:2506  true */\n      0x01\n        /* \"Bid.sol\":2494:2499  ended */\n      0x00\n      0x15\n        /* \"Bid.sol\":2494:2506  ended = true */\n      0x0100\n      exp\n      dup2\n      sload\n      dup2\n      0xff\n      mul\n      not\n      and\n      swap1\n      dup4\n      iszero\n      iszero\n      mul\n      or\n      swap1\n      sstore\n      pop\n        /* \"Bid.sol\":2522:2552  End(highestBidder, highestBid) */\n      0x7d7570b046e5ead3a4f3fbc9fa2445113625a1e79823776146316bafed6b8cc5\n        /* \"Bid.sol\":2526:2539  highestBidder */\n      0x05\n      0x00\n      swap1\n      sload\n      swap1\n      0x0100\n      exp\n      swap1\n      div\n      0xffffffffffffffffffffffffffffffffffffffff\n      and\n        /* \"Bid.sol\":2541:2551  highestBid */\n      sload(0x04)\n        /* \"Bid.sol\":2522:2552  End(highestBidder, highestBid) */\n      mload(0x40)\n      tag_137\n      swap3\n      swap2\n      swap1\n      tag_120\n      jump\t// in\n    tag_137:\n      mload(0x40)\n      dup1\n      swap2\n      sub\n      swap1\n      log1\n        /* \"Bid.sol\":1976:2560  function end() external {\r... */\n      jump\t// out\n        /* \"#utility.yul\":7:146   */\n    tag_139:\n        /* \"#utility.yul\":53:58   */\n      0x00\n        /* \"#utility.yul\":91:97   */\n      dup2\n        /* \"#utility.yul\":78:98   */\n      calldataload\n        /* \"#utility.yul\":69:98   */\n      swap1\n      pop\n        /* \"#utility.yul\":107:140   */\n      tag_141\n        /* \"#utility.yul\":134:139   */\n      dup2\n        /* \"#utility.yul\":107:140   */\n      tag_142\n      jump\t// in\n    tag_141:\n        /* \"#utility.yul\":7:146   */\n      swap3\n      swap2\n      pop\n      pop\n      jump\t// out\n        /* \"#utility.yul\":152:319   */\n    tag_143:\n        /* \"#utility.yul\":212:217   */\n      0x00\n        /* \"#utility.yul\":250:256   */\n      dup2\n        /* \"#utility.yul\":237:257   */\n      calldataload\n        /* \"#utility.yul\":228:257   */\n      swap1\n      pop\n        /* \"#utility.yul\":266:313   */\n      tag_145\n        /* \"#utility.yul\":307:312   */\n      dup2\n        /* \"#utility.yul\":266:313   */\n      tag_146\n      jump\t// in\n    tag_145:\n        /* \"#utility.yul\":152:319   */\n      swap3\n      swap2\n      pop\n      pop\n      jump\t// out\n        /* \"#utility.yul\":325:464   */\n    tag_147:\n        /* \"#utility.yul\":371:376   */\n      0x00\n        /* \"#utility.yul\":409:415   */\n      dup2\n        /* \"#utility.yul\":396:416   */\n      calldataload\n        /* \"#utility.yul\":387:416   */\n      swap1\n      pop\n        /* \"#utility.yul\":425:458   */\n      tag_149\n        /* \"#utility.yul\":452:457   */\n      dup2\n        /* \"#utility.yul\":425:458   */\n      tag_150\n      jump\t// in\n    tag_149:\n        /* \"#utility.yul\":325:464   */\n      swap3\n      swap2\n      pop\n      pop\n      jump\t// out\n        /* \"#utility.yul\":470:799   */\n    tag_43:\n        /* \"#utility.yul\":529:535   */\n      0x00\n        /* \"#utility.yul\":578:580   */\n      0x20\n        /* \"#utility.yul\":566:575   */\n      dup3\n        /* \"#utility.yul\":557:564   */\n      dup5\n        /* \"#utility.yul\":553:576   */\n      sub\n        /* \"#utility.yul\":549:581   */\n      slt\n        /* \"#utility.yul\":546:665   */\n      iszero\n      tag_152\n      jumpi\n        /* \"#utility.yul\":584:663   */\n      tag_153\n      tag_154\n      jump\t// in\n    tag_153:\n        /* \"#utility.yul\":546:665   */\n    tag_152:\n        /* \"#utility.yul\":704:705   */\n      0x00\n        /* \"#utility.yul\":729:782   */\n      tag_155\n        /* \"#utility.yul\":774:781   */\n      dup5\n        /* \"#utility.yul\":765:771   */\n      dup3\n        /* \"#utility.yul\":754:763   */\n      dup6\n        /* \"#utility.yul\":750:772   */\n      add\n        /* \"#utility.yul\":729:782   */\n      tag_139\n      jump\t// in\n    tag_155:\n        /* \"#utility.yul\":719:782   */\n      swap2\n      pop\n        /* \"#utility.yul\":675:792   */\n      pop\n        /* \"#utility.yul\":470:799   */\n      swap3\n      swap2\n      pop\n      pop\n      jump\t// out\n        /* \"#utility.yul\":805:1598   */\n    tag_59:\n        /* \"#utility.yul\":905:911   */\n      0x00\n        /* \"#utility.yul\":913:919   */\n      dup1\n        /* \"#utility.yul\":921:927   */\n      0x00\n        /* \"#utility.yul\":929:935   */\n      dup1\n        /* \"#utility.yul\":978:981   */\n      0x80\n        /* \"#utility.yul\":966:975   */\n      dup6\n        /* \"#utility.yul\":957:964   */\n      dup8\n        /* \"#utility.yul\":953:976   */\n      sub\n        /* \"#utility.yul\":949:982   */\n      slt\n        /* \"#utility.yul\":946:1066   */\n      iszero\n      tag_157\n      jumpi\n        /* \"#utility.yul\":985:1064   */\n      tag_158\n      tag_154\n      jump\t// in\n    tag_158:\n        /* \"#utility.yul\":946:1066   */\n    tag_157:\n        /* \"#utility.yul\":1105:1106   */\n      0x00\n        /* \"#utility.yul\":1130:1197   */\n      tag_159\n        /* \"#utility.yul\":1189:1196   */\n      dup8\n        /* \"#utility.yul\":1180:1186   */\n      dup3\n        /* \"#utility.yul\":1169:1178   */\n      dup9\n        /* \"#utility.yul\":1165:1187   */\n      add\n        /* \"#utility.yul\":1130:1197   */\n      tag_143\n      jump\t// in\n    tag_159:\n        /* \"#utility.yul\":1120:1197   */\n      swap5\n      pop\n        /* \"#utility.yul\":1076:1207   */\n      pop\n        /* \"#utility.yul\":1246:1248   */\n      0x20\n        /* \"#utility.yul\":1272:1325   */\n      tag_160\n        /* \"#utility.yul\":1317:1324   */\n      dup8\n        /* \"#utility.yul\":1308:1314   */\n      dup3\n        /* \"#utility.yul\":1297:1306   */\n      dup9\n        /* \"#utility.yul\":1293:1315   */\n      add\n        /* \"#utility.yul\":1272:1325   */\n      tag_147\n      jump\t// in\n    tag_160:\n        /* \"#utility.yul\":1262:1325   */\n      swap4\n      pop\n        /* \"#utility.yul\":1217:1335   */\n      pop\n        /* \"#utility.yul\":1374:1376   */\n      0x40\n        /* \"#utility.yul\":1400:1453   */\n      tag_161\n        /* \"#utility.yul\":1445:1452   */\n      dup8\n        /* \"#utility.yul\":1436:1442   */\n      dup3\n        /* \"#utility.yul\":1425:1434   */\n      dup9\n        /* \"#utility.yul\":1421:1443   */\n      add\n        /* \"#utility.yul\":1400:1453   */\n      tag_147\n      jump\t// in\n    tag_161:\n        /* \"#utility.yul\":1390:1453   */\n      swap3\n      pop\n        /* \"#utility.yul\":1345:1463   */\n      pop\n        /* \"#utility.yul\":1502:1504   */\n      0x60\n        /* \"#utility.yul\":1528:1581   */\n      tag_162\n        /* \"#utility.yul\":1573:1580   */\n      dup8\n        /* \"#utility.yul\":1564:1570   */\n      dup3\n        /* \"#utility.yul\":1553:1562   */\n      dup9\n        /* \"#utility.yul\":1549:1571   */\n      add\n        /* \"#utility.yul\":1528:1581   */\n      tag_147\n      jump\t// in\n    tag_162:\n        /* \"#utility.yul\":1518:1581   */\n      swap2\n      pop\n        /* \"#utility.yul\":1473:1591   */\n      pop\n        /* \"#utility.yul\":805:1598   */\n      swap3\n      swap6\n      swap2\n      swap5\n      pop\n      swap3\n      pop\n      jump\t// out\n        /* \"#utility.yul\":1604:1751   */\n    tag_163:\n        /* \"#utility.yul\":1699:1744   */\n      tag_165\n        /* \"#utility.yul\":1738:1743   */\n      dup2\n        /* \"#utility.yul\":1699:1744   */\n      tag_166\n      jump\t// in\n    tag_165:\n        /* \"#utility.yul\":1694:1697   */\n      dup3\n        /* \"#utility.yul\":1687:1745   */\n      mstore\n        /* \"#utility.yul\":1604:1751   */\n      pop\n      pop\n      jump\t// out\n        /* \"#utility.yul\":1757:1899   */\n    tag_167:\n        /* \"#utility.yul\":1860:1892   */\n      tag_169\n        /* \"#utility.yul\":1886:1891   */\n      dup2\n        /* \"#utility.yul\":1860:1892   */\n      tag_170\n      jump\t// in\n    tag_169:\n        /* \"#utility.yul\":1855:1858   */\n      dup3\n        /* \"#utility.yul\":1848:1893   */\n      mstore\n        /* \"#utility.yul\":1757:1899   */\n      pop\n      pop\n      jump\t// out\n        /* \"#utility.yul\":1905:2023   */\n    tag_171:\n        /* \"#utility.yul\":1992:2016   */\n      tag_173\n        /* \"#utility.yul\":2010:2015   */\n      dup2\n        /* \"#utility.yul\":1992:2016   */\n      tag_174\n      jump\t// in\n    tag_173:\n        /* \"#utility.yul\":1987:1990   */\n      dup3\n        /* \"#utility.yul\":1980:2017   */\n      mstore\n        /* \"#utility.yul\":1905:2023   */\n      pop\n      pop\n      jump\t// out\n        /* \"#utility.yul\":2029:2138   */\n    tag_175:\n        /* \"#utility.yul\":2110:2131   */\n      tag_177\n        /* \"#utility.yul\":2125:2130   */\n      dup2\n        /* \"#utility.yul\":2110:2131   */\n      tag_178\n      jump\t// in\n    tag_177:\n        /* \"#utility.yul\":2105:2108   */\n      dup3\n        /* \"#utility.yul\":2098:2132   */\n      mstore\n        /* \"#utility.yul\":2029:2138   */\n      pop\n      pop\n      jump\t// out\n        /* \"#utility.yul\":2144:2303   */\n    tag_179:\n        /* \"#utility.yul\":2245:2296   */\n      tag_181\n        /* \"#utility.yul\":2290:2295   */\n      dup2\n        /* \"#utility.yul\":2245:2296   */\n      tag_182\n      jump\t// in\n    tag_181:\n        /* \"#utility.yul\":2240:2243   */\n      dup3\n        /* \"#utility.yul\":2233:2297   */\n      mstore\n        /* \"#utility.yul\":2144:2303   */\n      pop\n      pop\n      jump\t// out\n        /* \"#utility.yul\":2309:2675   */\n    tag_183:\n        /* \"#utility.yul\":2451:2454   */\n      0x00\n        /* \"#utility.yul\":2472:2539   */\n      tag_185\n        /* \"#utility.yul\":2536:2538   */\n      0x19\n        /* \"#utility.yul\":2531:2534   */\n      dup4\n        /* \"#utility.yul\":2472:2539   */\n      tag_186\n      jump\t// in\n    tag_185:\n        /* \"#utility.yul\":2465:2539   */\n      swap2\n      pop\n        /* \"#utility.yul\":2548:2641   */\n      tag_187\n        /* \"#utility.yul\":2637:2640   */\n      dup3\n        /* \"#utility.yul\":2548:2641   */\n      tag_188\n      jump\t// in\n    tag_187:\n        /* \"#utility.yul\":2666:2668   */\n      0x20\n        /* \"#utility.yul\":2661:2664   */\n      dup3\n        /* \"#utility.yul\":2657:2669   */\n      add\n        /* \"#utility.yul\":2650:2669   */\n      swap1\n      pop\n        /* \"#utility.yul\":2309:2675   */\n      swap2\n      swap1\n      pop\n      jump\t// out\n        /* \"#utility.yul\":2681:3047   */\n    tag_189:\n        /* \"#utility.yul\":2823:2826   */\n      0x00\n        /* \"#utility.yul\":2844:2911   */\n      tag_191\n        /* \"#utility.yul\":2908:2910   */\n      0x10\n        /* \"#utility.yul\":2903:2906   */\n      dup4\n        /* \"#utility.yul\":2844:2911   */\n      tag_186\n      jump\t// in\n    tag_191:\n        /* \"#utility.yul\":2837:2911   */\n      swap2\n      pop\n        /* \"#utility.yul\":2920:3013   */\n      tag_192\n        /* \"#utility.yul\":3009:3012   */\n      dup3\n        /* \"#utility.yul\":2920:3013   */\n      tag_193\n      jump\t// in\n    tag_192:\n        /* \"#utility.yul\":3038:3040   */\n      0x20\n        /* \"#utility.yul\":3033:3036   */\n      dup3\n        /* \"#utility.yul\":3029:3041   */\n      add\n        /* \"#utility.yul\":3022:3041   */\n      swap1\n      pop\n        /* \"#utility.yul\":2681:3047   */\n      swap2\n      swap1\n      pop\n      jump\t// out\n        /* \"#utility.yul\":3053:3418   */\n    tag_194:\n        /* \"#utility.yul\":3195:3198   */\n      0x00\n        /* \"#utility.yul\":3216:3282   */\n      tag_196\n        /* \"#utility.yul\":3280:3281   */\n      0x06\n        /* \"#utility.yul\":3275:3278   */\n      dup4\n        /* \"#utility.yul\":3216:3282   */\n      tag_186\n      jump\t// in\n    tag_196:\n        /* \"#utility.yul\":3209:3282   */\n      swap2\n      pop\n        /* \"#utility.yul\":3291:3384   */\n      tag_197\n        /* \"#utility.yul\":3380:3383   */\n      dup3\n        /* \"#utility.yul\":3291:3384   */\n      tag_198\n      jump\t// in\n    tag_197:\n        /* \"#utility.yul\":3409:3411   */\n      0x20\n        /* \"#utility.yul\":3404:3407   */\n      dup3\n        /* \"#utility.yul\":3400:3412   */\n      add\n        /* \"#utility.yul\":3393:3412   */\n      swap1\n      pop\n        /* \"#utility.yul\":3053:3418   */\n      swap2\n      swap1\n      pop\n      jump\t// out\n        /* \"#utility.yul\":3424:3790   */\n    tag_199:\n        /* \"#utility.yul\":3566:3569   */\n      0x00\n        /* \"#utility.yul\":3587:3654   */\n      tag_201\n        /* \"#utility.yul\":3651:3653   */\n      0x1e\n        /* \"#utility.yul\":3646:3649   */\n      dup4\n        /* \"#utility.yul\":3587:3654   */\n      tag_186\n      jump\t// in\n    tag_201:\n        /* \"#utility.yul\":3580:3654   */\n      swap2\n      pop\n        /* \"#utility.yul\":3663:3756   */\n      tag_202\n        /* \"#utility.yul\":3752:3755   */\n      dup3\n        /* \"#utility.yul\":3663:3756   */\n      tag_203\n      jump\t// in\n    tag_202:\n        /* \"#utility.yul\":3781:3783   */\n      0x20\n        /* \"#utility.yul\":3776:3779   */\n      dup3\n        /* \"#utility.yul\":3772:3784   */\n      add\n        /* \"#utility.yul\":3765:3784   */\n      swap1\n      pop\n        /* \"#utility.yul\":3424:3790   */\n      swap2\n      swap1\n      pop\n      jump\t// out\n        /* \"#utility.yul\":3796:4162   */\n    tag_204:\n        /* \"#utility.yul\":3938:3941   */\n      0x00\n        /* \"#utility.yul\":3959:4026   */\n      tag_206\n        /* \"#utility.yul\":4023:4025   */\n      0x15\n        /* \"#utility.yul\":4018:4021   */\n      dup4\n        /* \"#utility.yul\":3959:4026   */\n      tag_186\n      jump\t// in\n    tag_206:\n        /* \"#utility.yul\":3952:4026   */\n      swap2\n      pop\n        /* \"#utility.yul\":4035:4128   */\n      tag_207\n        /* \"#utility.yul\":4124:4127   */\n      dup3\n        /* \"#utility.yul\":4035:4128   */\n      tag_208\n      jump\t// in\n    tag_207:\n        /* \"#utility.yul\":4153:4155   */\n      0x20\n        /* \"#utility.yul\":4148:4151   */\n      dup3\n        /* \"#utility.yul\":4144:4156   */\n      add\n        /* \"#utility.yul\":4137:4156   */\n      swap1\n      pop\n        /* \"#utility.yul\":3796:4162   */\n      swap2\n      swap1\n      pop\n      jump\t// out\n        /* \"#utility.yul\":4168:4534   */\n    tag_209:\n        /* \"#utility.yul\":4310:4313   */\n      0x00\n        /* \"#utility.yul\":4331:4398   */\n      tag_211\n        /* \"#utility.yul\":4395:4397   */\n      0x18\n        /* \"#utility.yul\":4390:4393   */\n      dup4\n        /* \"#utility.yul\":4331:4398   */\n      tag_186\n      jump\t// in\n    tag_211:\n        /* \"#utility.yul\":4324:4398   */\n      swap2\n      pop\n        /* \"#utility.yul\":4407:4500   */\n      tag_212\n        /* \"#utility.yul\":4496:4499   */\n      dup3\n        /* \"#utility.yul\":4407:4500   */\n      tag_213\n      jump\t// in\n    tag_212:\n        /* \"#utility.yul\":4525:4527   */\n      0x20\n        /* \"#utility.yul\":4520:4523   */\n      dup3\n        /* \"#utility.yul\":4516:4528   */\n      add\n        /* \"#utility.yul\":4509:4528   */\n      swap1\n      pop\n        /* \"#utility.yul\":4168:4534   */\n      swap2\n      swap1\n      pop\n      jump\t// out\n        /* \"#utility.yul\":4540:4906   */\n    tag_214:\n        /* \"#utility.yul\":4682:4685   */\n      0x00\n        /* \"#utility.yul\":4703:4770   */\n      tag_216\n        /* \"#utility.yul\":4767:4769   */\n      0x0c\n        /* \"#utility.yul\":4762:4765   */\n      dup4\n        /* \"#utility.yul\":4703:4770   */\n      tag_186\n      jump\t// in\n    tag_216:\n        /* \"#utility.yul\":4696:4770   */\n      swap2\n      pop\n        /* \"#utility.yul\":4779:4872   */\n      tag_217\n        /* \"#utility.yul\":4868:4871   */\n      dup3\n        /* \"#utility.yul\":4779:4872   */\n      tag_218\n      jump\t// in\n    tag_217:\n        /* \"#utility.yul\":4897:4899   */\n      0x20\n        /* \"#utility.yul\":4892:4895   */\n      dup3\n        /* \"#utility.yul\":4888:4900   */\n      add\n        /* \"#utility.yul\":4881:4900   */\n      swap1\n      pop\n        /* \"#utility.yul\":4540:4906   */\n      swap2\n      swap1\n      pop\n      jump\t// out\n        /* \"#utility.yul\":4912:5310   */\n    tag_219:\n        /* \"#utility.yul\":5071:5074   */\n      0x00\n        /* \"#utility.yul\":5092:5175   */\n      tag_221\n        /* \"#utility.yul\":5173:5174   */\n      0x00\n        /* \"#utility.yul\":5168:5171   */\n      dup4\n        /* \"#utility.yul\":5092:5175   */\n      tag_222\n      jump\t// in\n    tag_221:\n        /* \"#utility.yul\":5085:5175   */\n      swap2\n      pop\n        /* \"#utility.yul\":5184:5277   */\n      tag_223\n        /* \"#utility.yul\":5273:5276   */\n      dup3\n        /* \"#utility.yul\":5184:5277   */\n      tag_224\n      jump\t// in\n    tag_223:\n        /* \"#utility.yul\":5302:5303   */\n      0x00\n        /* \"#utility.yul\":5297:5300   */\n      dup3\n        /* \"#utility.yul\":5293:5304   */\n      add\n        /* \"#utility.yul\":5286:5304   */\n      swap1\n      pop\n        /* \"#utility.yul\":4912:5310   */\n      swap2\n      swap1\n      pop\n      jump\t// out\n        /* \"#utility.yul\":5316:5682   */\n    tag_225:\n        /* \"#utility.yul\":5458:5461   */\n      0x00\n        /* \"#utility.yul\":5479:5546   */\n      tag_227\n        /* \"#utility.yul\":5543:5545   */\n      0x16\n        /* \"#utility.yul\":5538:5541   */\n      dup4\n        /* \"#utility.yul\":5479:5546   */\n      tag_186\n      jump\t// in\n    tag_227:\n        /* \"#utility.yul\":5472:5546   */\n      swap2\n      pop\n        /* \"#utility.yul\":5555:5648   */\n      tag_228\n        /* \"#utility.yul\":5644:5647   */\n      dup3\n        /* \"#utility.yul\":5555:5648   */\n      tag_229\n      jump\t// in\n    tag_228:\n        /* \"#utility.yul\":5673:5675   */\n      0x20\n        /* \"#utility.yul\":5668:5671   */\n      dup3\n        /* \"#utility.yul\":5664:5676   */\n      add\n        /* \"#utility.yul\":5657:5676   */\n      swap1\n      pop\n        /* \"#utility.yul\":5316:5682   */\n      swap2\n      swap1\n      pop\n      jump\t// out\n        /* \"#utility.yul\":5688:6054   */\n    tag_230:\n        /* \"#utility.yul\":5830:5833   */\n      0x00\n        /* \"#utility.yul\":5851:5918   */\n      tag_232\n        /* \"#utility.yul\":5915:5917   */\n      0x12\n        /* \"#utility.yul\":5910:5913   */\n      dup4\n        /* \"#utility.yul\":5851:5918   */\n      tag_186\n      jump\t// in\n    tag_232:\n        /* \"#utility.yul\":5844:5918   */\n      swap2\n      pop\n        /* \"#utility.yul\":5927:6020   */\n      tag_233\n        /* \"#utility.yul\":6016:6019   */\n      dup3\n        /* \"#utility.yul\":5927:6020   */\n      tag_234\n      jump\t// in\n    tag_233:\n        /* \"#utility.yul\":6045:6047   */\n      0x20\n        /* \"#utility.yul\":6040:6043   */\n      dup3\n        /* \"#utility.yul\":6036:6048   */\n      add\n        /* \"#utility.yul\":6029:6048   */\n      swap1\n      pop\n        /* \"#utility.yul\":5688:6054   */\n      swap2\n      swap1\n      pop\n      jump\t// out\n        /* \"#utility.yul\":6060:6178   */\n    tag_235:\n        /* \"#utility.yul\":6147:6171   */\n      tag_237\n        /* \"#utility.yul\":6165:6170   */\n      dup2\n        /* \"#utility.yul\":6147:6171   */\n      tag_238\n      jump\t// in\n    tag_237:\n        /* \"#utility.yul\":6142:6145   */\n      dup3\n        /* \"#utility.yul\":6135:6172   */\n      mstore\n        /* \"#utility.yul\":6060:6178   */\n      pop\n      pop\n      jump\t// out\n        /* \"#utility.yul\":6184:6563   */\n    tag_86:\n        /* \"#utility.yul\":6368:6371   */\n      0x00\n        /* \"#utility.yul\":6390:6537   */\n      tag_240\n        /* \"#utility.yul\":6533:6536   */\n      dup3\n        /* \"#utility.yul\":6390:6537   */\n      tag_219\n      jump\t// in\n    tag_240:\n        /* \"#utility.yul\":6383:6537   */\n      swap2\n      pop\n        /* \"#utility.yul\":6554:6557   */\n      dup2\n        /* \"#utility.yul\":6547:6557   */\n      swap1\n      pop\n        /* \"#utility.yul\":6184:6563   */\n      swap2\n      swap1\n      pop\n      jump\t// out\n        /* \"#utility.yul\":6569:6791   */\n    tag_55:\n        /* \"#utility.yul\":6662:6666   */\n      0x00\n        /* \"#utility.yul\":6700:6702   */\n      0x20\n        /* \"#utility.yul\":6689:6698   */\n      dup3\n        /* \"#utility.yul\":6685:6703   */\n      add\n        /* \"#utility.yul\":6677:6703   */\n      swap1\n      pop\n        /* \"#utility.yul\":6713:6784   */\n      tag_242\n        /* \"#utility.yul\":6781:6782   */\n      0x00\n        /* \"#utility.yul\":6770:6779   */\n      dup4\n        /* \"#utility.yul\":6766:6783   */\n      add\n        /* \"#utility.yul\":6757:6763   */\n      dup5\n        /* \"#utility.yul\":6713:6784   */\n      tag_171\n      jump\t// in\n    tag_242:\n        /* \"#utility.yul\":6569:6791   */\n      swap3\n      swap2\n      pop\n      pop\n      jump\t// out\n        /* \"#utility.yul\":6797:7051   */\n    tag_21:\n        /* \"#utility.yul\":6906:6910   */\n      0x00\n        /* \"#utility.yul\":6944:6946   */\n      0x20\n        /* \"#utility.yul\":6933:6942   */\n      dup3\n        /* \"#utility.yul\":6929:6947   */\n      add\n        /* \"#utility.yul\":6921:6947   */\n      swap1\n      pop\n        /* \"#utility.yul\":6957:7044   */\n      tag_244\n        /* \"#utility.yul\":7041:7042   */\n      0x00\n        /* \"#utility.yul\":7030:7039   */\n      dup4\n        /* \"#utility.yul\":7026:7043   */\n      add\n        /* \"#utility.yul\":7017:7023   */\n      dup5\n        /* \"#utility.yul\":6957:7044   */\n      tag_167\n      jump\t// in\n    tag_244:\n        /* \"#utility.yul\":6797:7051   */\n      swap3\n      swap2\n      pop\n      pop\n      jump\t// out\n        /* \"#utility.yul\":7057:7405   */\n    tag_133:\n        /* \"#utility.yul\":7186:7190   */\n      0x00\n        /* \"#utility.yul\":7224:7226   */\n      0x40\n        /* \"#utility.yul\":7213:7222   */\n      dup3\n        /* \"#utility.yul\":7209:7227   */\n      add\n        /* \"#utility.yul\":7201:7227   */\n      swap1\n      pop\n        /* \"#utility.yul\":7237:7316   */\n      tag_246\n        /* \"#utility.yul\":7313:7314   */\n      0x00\n        /* \"#utility.yul\":7302:7311   */\n      dup4\n        /* \"#utility.yul\":7298:7315   */\n      add\n        /* \"#utility.yul\":7289:7295   */\n      dup6\n        /* \"#utility.yul\":7237:7316   */\n      tag_163\n      jump\t// in\n    tag_246:\n        /* \"#utility.yul\":7326:7398   */\n      tag_247\n        /* \"#utility.yul\":7394:7396   */\n      0x20\n        /* \"#utility.yul\":7383:7392   */\n      dup4\n        /* \"#utility.yul\":7379:7397   */\n      add\n        /* \"#utility.yul\":7370:7376   */\n      dup5\n        /* \"#utility.yul\":7326:7398   */\n      tag_235\n      jump\t// in\n    tag_247:\n        /* \"#utility.yul\":7057:7405   */\n      swap4\n      swap3\n      pop\n      pop\n      pop\n      jump\t// out\n        /* \"#utility.yul\":7411:7853   */\n    tag_102:\n        /* \"#utility.yul\":7560:7564   */\n      0x00\n        /* \"#utility.yul\":7598:7600   */\n      0x60\n        /* \"#utility.yul\":7587:7596   */\n      dup3\n        /* \"#utility.yul\":7583:7601   */\n      add\n        /* \"#utility.yul\":7575:7601   */\n      swap1\n      pop\n        /* \"#utility.yul\":7611:7682   */\n      tag_249\n        /* \"#utility.yul\":7679:7680   */\n      0x00\n        /* \"#utility.yul\":7668:7677   */\n      dup4\n        /* \"#utility.yul\":7664:7681   */\n      add\n        /* \"#utility.yul\":7655:7661   */\n      dup7\n        /* \"#utility.yul\":7611:7682   */\n      tag_171\n      jump\t// in\n    tag_249:\n        /* \"#utility.yul\":7692:7764   */\n      tag_250\n        /* \"#utility.yul\":7760:7762   */\n      0x20\n        /* \"#utility.yul\":7749:7758   */\n      dup4\n        /* \"#utility.yul\":7745:7763   */\n      add\n        /* \"#utility.yul\":7736:7742   */\n      dup6\n        /* \"#utility.yul\":7692:7764   */\n      tag_171\n      jump\t// in\n    tag_250:\n        /* \"#utility.yul\":7774:7846   */\n      tag_251\n        /* \"#utility.yul\":7842:7844   */\n      0x40\n        /* \"#utility.yul\":7831:7840   */\n      dup4\n        /* \"#utility.yul\":7827:7845   */\n      add\n        /* \"#utility.yul\":7818:7824   */\n      dup5\n        /* \"#utility.yul\":7774:7846   */\n      tag_235\n      jump\t// in\n    tag_251:\n        /* \"#utility.yul\":7411:7853   */\n      swap5\n      swap4\n      pop\n      pop\n      pop\n      pop\n      jump\t// out\n        /* \"#utility.yul\":7859:8191   */\n    tag_120:\n        /* \"#utility.yul\":7980:7984   */\n      0x00\n        /* \"#utility.yul\":8018:8020   */\n      0x40\n        /* \"#utility.yul\":8007:8016   */\n      dup3\n        /* \"#utility.yul\":8003:8021   */\n      add\n        /* \"#utility.yul\":7995:8021   */\n      swap1\n      pop\n        /* \"#utility.yul\":8031:8102   */\n      tag_253\n        /* \"#utility.yul\":8099:8100   */\n      0x00\n        /* \"#utility.yul\":8088:8097   */\n      dup4\n        /* \"#utility.yul\":8084:8101   */\n      add\n        /* \"#utility.yul\":8075:8081   */\n      dup6\n        /* \"#utility.yul\":8031:8102   */\n      tag_171\n      jump\t// in\n    tag_253:\n        /* \"#utility.yul\":8112:8184   */\n      tag_254\n        /* \"#utility.yul\":8180:8182   */\n      0x20\n        /* \"#utility.yul\":8169:8178   */\n      dup4\n        /* \"#utility.yul\":8165:8183   */\n      add\n        /* \"#utility.yul\":8156:8162   */\n      dup5\n        /* \"#utility.yul\":8112:8184   */\n      tag_235\n      jump\t// in\n    tag_254:\n        /* \"#utility.yul\":7859:8191   */\n      swap4\n      swap3\n      pop\n      pop\n      pop\n      jump\t// out\n        /* \"#utility.yul\":8197:8407   */\n    tag_26:\n        /* \"#utility.yul\":8284:8288   */\n      0x00\n        /* \"#utility.yul\":8322:8324   */\n      0x20\n        /* \"#utility.yul\":8311:8320   */\n      dup3\n        /* \"#utility.yul\":8307:8325   */\n      add\n        /* \"#utility.yul\":8299:8325   */\n      swap1\n      pop\n        /* \"#utility.yul\":8335:8400   */\n      tag_256\n        /* \"#utility.yul\":8397:8398   */\n      0x00\n        /* \"#utility.yul\":8386:8395   */\n      dup4\n        /* \"#utility.yul\":8382:8399   */\n      add\n        /* \"#utility.yul\":8373:8379   */\n      dup5\n        /* \"#utility.yul\":8335:8400   */\n      tag_175\n      jump\t// in\n    tag_256:\n        /* \"#utility.yul\":8197:8407   */\n      swap3\n      swap2\n      pop\n      pop\n      jump\t// out\n        /* \"#utility.yul\":8413:8663   */\n    tag_39:\n        /* \"#utility.yul\":8520:8524   */\n      0x00\n        /* \"#utility.yul\":8558:8560   */\n      0x20\n        /* \"#utility.yul\":8547:8556   */\n      dup3\n        /* \"#utility.yul\":8543:8561   */\n      add\n        /* \"#utility.yul\":8535:8561   */\n      swap1\n      pop\n        /* \"#utility.yul\":8571:8656   */\n      tag_258\n        /* \"#utility.yul\":8653:8654   */\n      0x00\n        /* \"#utility.yul\":8642:8651   */\n      dup4\n        /* \"#utility.yul\":8638:8655   */\n      add\n        /* \"#utility.yul\":8629:8635   */\n      dup5\n        /* \"#utility.yul\":8571:8656   */\n      tag_179\n      jump\t// in\n    tag_258:\n        /* \"#utility.yul\":8413:8663   */\n      swap3\n      swap2\n      pop\n      pop\n      jump\t// out\n        /* \"#utility.yul\":8669:9088   */\n    tag_114:\n        /* \"#utility.yul\":8835:8839   */\n      0x00\n        /* \"#utility.yul\":8873:8875   */\n      0x20\n        /* \"#utility.yul\":8862:8871   */\n      dup3\n        /* \"#utility.yul\":8858:8876   */\n      add\n        /* \"#utility.yul\":8850:8876   */\n      swap1\n      pop\n        /* \"#utility.yul\":8922:8931   */\n      dup2\n        /* \"#utility.yul\":8916:8920   */\n      dup2\n        /* \"#utility.yul\":8912:8932   */\n      sub\n        /* \"#utility.yul\":8908:8909   */\n      0x00\n        /* \"#utility.yul\":8897:8906   */\n      dup4\n        /* \"#utility.yul\":8893:8910   */\n      add\n        /* \"#utility.yul\":8886:8933   */\n      mstore\n        /* \"#utility.yul\":8950:9081   */\n      tag_260\n        /* \"#utility.yul\":9076:9080   */\n      dup2\n        /* \"#utility.yul\":8950:9081   */\n      tag_183\n      jump\t// in\n    tag_260:\n        /* \"#utility.yul\":8942:9081   */\n      swap1\n      pop\n        /* \"#utility.yul\":8669:9088   */\n      swap2\n      swap1\n      pop\n      jump\t// out\n        /* \"#utility.yul\":9094:9513   */\n    tag_97:\n        /* \"#utility.yul\":9260:9264   */\n      0x00\n        /* \"#utility.yul\":9298:9300   */\n      0x20\n        /* \"#utility.yul\":9287:9296   */\n      dup3\n        /* \"#utility.yul\":9283:9301   */\n      add\n        /* \"#utility.yul\":9275:9301   */\n      swap1\n      pop\n        /* \"#utility.yul\":9347:9356   */\n      dup2\n        /* \"#utility.yul\":9341:9345   */\n      dup2\n        /* \"#utility.yul\":9337:9357   */\n      sub\n        /* \"#utility.yul\":9333:9334   */\n      0x00\n        /* \"#utility.yul\":9322:9331   */\n      dup4\n        /* \"#utility.yul\":9318:9335   */\n      add\n        /* \"#utility.yul\":9311:9358   */\n      mstore\n        /* \"#utility.yul\":9375:9506   */\n      tag_262\n        /* \"#utility.yul\":9501:9505   */\n      dup2\n        /* \"#utility.yul\":9375:9506   */\n      tag_189\n      jump\t// in\n    tag_262:\n        /* \"#utility.yul\":9367:9506   */\n      swap1\n      pop\n        /* \"#utility.yul\":9094:9513   */\n      swap2\n      swap1\n      pop\n      jump\t// out\n        /* \"#utility.yul\":9519:9938   */\n    tag_78:\n        /* \"#utility.yul\":9685:9689   */\n      0x00\n        /* \"#utility.yul\":9723:9725   */\n      0x20\n        /* \"#utility.yul\":9712:9721   */\n      dup3\n        /* \"#utility.yul\":9708:9726   */\n      add\n        /* \"#utility.yul\":9700:9726   */\n      swap1\n      pop\n        /* \"#utility.yul\":9772:9781   */\n      dup2\n        /* \"#utility.yul\":9766:9770   */\n      dup2\n        /* \"#utility.yul\":9762:9782   */\n      sub\n        /* \"#utility.yul\":9758:9759   */\n      0x00\n        /* \"#utility.yul\":9747:9756   */\n      dup4\n        /* \"#utility.yul\":9743:9760   */\n      add\n        /* \"#utility.yul\":9736:9783   */\n      mstore\n        /* \"#utility.yul\":9800:9931   */\n      tag_264\n        /* \"#utility.yul\":9926:9930   */\n      dup2\n        /* \"#utility.yul\":9800:9931   */\n      tag_194\n      jump\t// in\n    tag_264:\n        /* \"#utility.yul\":9792:9931   */\n      swap1\n      pop\n        /* \"#utility.yul\":9519:9938   */\n      swap2\n      swap1\n      pop\n      jump\t// out\n        /* \"#utility.yul\":9944:10363   */\n    tag_100:\n        /* \"#utility.yul\":10110:10114   */\n      0x00\n        /* \"#utility.yul\":10148:10150   */\n      0x20\n        /* \"#utility.yul\":10137:10146   */\n      dup3\n        /* \"#utility.yul\":10133:10151   */\n      add\n        /* \"#utility.yul\":10125:10151   */\n      swap1\n      pop\n        /* \"#utility.yul\":10197:10206   */\n      dup2\n        /* \"#utility.yul\":10191:10195   */\n      dup2\n        /* \"#utility.yul\":10187:10207   */\n      sub\n        /* \"#utility.yul\":10183:10184   */\n      0x00\n        /* \"#utility.yul\":10172:10181   */\n      dup4\n        /* \"#utility.yul\":10168:10185   */\n      add\n        /* \"#utility.yul\":10161:10208   */\n      mstore\n        /* \"#utility.yul\":10225:10356   */\n      tag_266\n        /* \"#utility.yul\":10351:10355   */\n      dup2\n        /* \"#utility.yul\":10225:10356   */\n      tag_199\n      jump\t// in\n    tag_266:\n        /* \"#utility.yul\":10217:10356   */\n      swap1\n      pop\n        /* \"#utility.yul\":9944:10363   */\n      swap2\n      swap1\n      pop\n      jump\t// out\n        /* \"#utility.yul\":10369:10788   */\n    tag_130:\n        /* \"#utility.yul\":10535:10539   */\n      0x00\n        /* \"#utility.yul\":10573:10575   */\n      0x20\n        /* \"#utility.yul\":10562:10571   */\n      dup3\n        /* \"#utility.yul\":10558:10576   */\n      add\n        /* \"#utility.yul\":10550:10576   */\n      swap1\n      pop\n        /* \"#utility.yul\":10622:10631   */\n      dup2\n        /* \"#utility.yul\":10616:10620   */\n      dup2\n        /* \"#utility.yul\":10612:10632   */\n      sub\n        /* \"#utility.yul\":10608:10609   */\n      0x00\n        /* \"#utility.yul\":10597:10606   */\n      dup4\n        /* \"#utility.yul\":10593:10610   */\n      add\n        /* \"#utility.yul\":10586:10633   */\n      mstore\n        /* \"#utility.yul\":10650:10781   */\n      tag_268\n        /* \"#utility.yul\":10776:10780   */\n      dup2\n        /* \"#utility.yul\":10650:10781   */\n      tag_204\n      jump\t// in\n    tag_268:\n        /* \"#utility.yul\":10642:10781   */\n      swap1\n      pop\n        /* \"#utility.yul\":10369:10788   */\n      swap2\n      swap1\n      pop\n      jump\t// out\n        /* \"#utility.yul\":10794:11213   */\n    tag_111:\n        /* \"#utility.yul\":10960:10964   */\n      0x00\n        /* \"#utility.yul\":10998:11000   */\n      0x20\n        /* \"#utility.yul\":10987:10996   */\n      dup3\n        /* \"#utility.yul\":10983:11001   */\n      add\n        /* \"#utility.yul\":10975:11001   */\n      swap1\n      pop\n        /* \"#utility.yul\":11047:11056   */\n      dup2\n        /* \"#utility.yul\":11041:11045   */\n      dup2\n        /* \"#utility.yul\":11037:11057   */\n      sub\n        /* \"#utility.yul\":11033:11034   */\n      0x00\n        /* \"#utility.yul\":11022:11031   */\n      dup4\n        /* \"#utility.yul\":11018:11035   */\n      add\n        /* \"#utility.yul\":11011:11058   */\n      mstore\n        /* \"#utility.yul\":11075:11206   */\n      tag_270\n        /* \"#utility.yul\":11201:11205   */\n      dup2\n        /* \"#utility.yul\":11075:11206   */\n      tag_209\n      jump\t// in\n    tag_270:\n        /* \"#utility.yul\":11067:11206   */\n      swap1\n      pop\n        /* \"#utility.yul\":10794:11213   */\n      swap2\n      swap1\n      pop\n      jump\t// out\n        /* \"#utility.yul\":11219:11638   */\n    tag_75:\n        /* \"#utility.yul\":11385:11389   */\n      0x00\n        /* \"#utility.yul\":11423:11425   */\n      0x20\n        /* \"#utility.yul\":11412:11421   */\n      dup3\n        /* \"#utility.yul\":11408:11426   */\n      add\n        /* \"#utility.yul\":11400:11426   */\n      swap1\n      pop\n        /* \"#utility.yul\":11472:11481   */\n      dup2\n        /* \"#utility.yul\":11466:11470   */\n      dup2\n        /* \"#utility.yul\":11462:11482   */\n      sub\n        /* \"#utility.yul\":11458:11459   */\n      0x00\n        /* \"#utility.yul\":11447:11456   */\n      dup4\n        /* \"#utility.yul\":11443:11460   */\n      add\n        /* \"#utility.yul\":11436:11483   */\n      mstore\n        /* \"#utility.yul\":11500:11631   */\n      tag_272\n        /* \"#utility.yul\":11626:11630   */\n      dup2\n        /* \"#utility.yul\":11500:11631   */\n      tag_214\n      jump\t// in\n    tag_272:\n        /* \"#utility.yul\":11492:11631   */\n      swap1\n      pop\n        /* \"#utility.yul\":11219:11638   */\n      swap2\n      swap1\n      pop\n      jump\t// out\n        /* \"#utility.yul\":11644:12063   */\n    tag_117:\n        /* \"#utility.yul\":11810:11814   */\n      0x00\n        /* \"#utility.yul\":11848:11850   */\n      0x20\n        /* \"#utility.yul\":11837:11846   */\n      dup3\n        /* \"#utility.yul\":11833:11851   */\n      add\n        /* \"#utility.yul\":11825:11851   */\n      swap1\n      pop\n        /* \"#utility.yul\":11897:11906   */\n      dup2\n        /* \"#utility.yul\":11891:11895   */\n      dup2\n        /* \"#utility.yul\":11887:11907   */\n      sub\n        /* \"#utility.yul\":11883:11884   */\n      0x00\n        /* \"#utility.yul\":11872:11881   */\n      dup4\n        /* \"#utility.yul\":11868:11885   */\n      add\n        /* \"#utility.yul\":11861:11908   */\n      mstore\n        /* \"#utility.yul\":11925:12056   */\n      tag_274\n        /* \"#utility.yul\":12051:12055   */\n      dup2\n        /* \"#utility.yul\":11925:12056   */\n      tag_225\n      jump\t// in\n    tag_274:\n        /* \"#utility.yul\":11917:12056   */\n      swap1\n      pop\n        /* \"#utility.yul\":11644:12063   */\n      swap2\n      swap1\n      pop\n      jump\t// out\n        /* \"#utility.yul\":12069:12488   */\n    tag_92:\n        /* \"#utility.yul\":12235:12239   */\n      0x00\n        /* \"#utility.yul\":12273:12275   */\n      0x20\n        /* \"#utility.yul\":12262:12271   */\n      dup3\n        /* \"#utility.yul\":12258:12276   */\n      add\n        /* \"#utility.yul\":12250:12276   */\n      swap1\n      pop\n        /* \"#utility.yul\":12322:12331   */\n      dup2\n        /* \"#utility.yul\":12316:12320   */\n      dup2\n        /* \"#utility.yul\":12312:12332   */\n      sub\n        /* \"#utility.yul\":12308:12309   */\n      0x00\n        /* \"#utility.yul\":12297:12306   */\n      dup4\n        /* \"#utility.yul\":12293:12310   */\n      add\n        /* \"#utility.yul\":12286:12333   */\n      mstore\n        /* \"#utility.yul\":12350:12481   */\n      tag_276\n        /* \"#utility.yul\":12476:12480   */\n      dup2\n        /* \"#utility.yul\":12350:12481   */\n      tag_230\n      jump\t// in\n    tag_276:\n        /* \"#utility.yul\":12342:12481   */\n      swap1\n      pop\n        /* \"#utility.yul\":12069:12488   */\n      swap2\n      swap1\n      pop\n      jump\t// out\n        /* \"#utility.yul\":12494:12716   */\n    tag_46:\n        /* \"#utility.yul\":12587:12591   */\n      0x00\n        /* \"#utility.yul\":12625:12627   */\n      0x20\n        /* \"#utility.yul\":12614:12623   */\n      dup3\n        /* \"#utility.yul\":12610:12628   */\n      add\n        /* \"#utility.yul\":12602:12628   */\n      swap1\n      pop\n        /* \"#utility.yul\":12638:12709   */\n      tag_278\n        /* \"#utility.yul\":12706:12707   */\n      0x00\n        /* \"#utility.yul\":12695:12704   */\n      dup4\n        /* \"#utility.yul\":12691:12708   */\n      add\n        /* \"#utility.yul\":12682:12688   */\n      dup5\n        /* \"#utility.yul\":12638:12709   */\n      tag_235\n      jump\t// in\n    tag_278:\n        /* \"#utility.yul\":12494:12716   */\n      swap3\n      swap2\n      pop\n      pop\n      jump\t// out\n        /* \"#utility.yul\":12803:12950   */\n    tag_222:\n        /* \"#utility.yul\":12904:12915   */\n      0x00\n        /* \"#utility.yul\":12941:12944   */\n      dup2\n        /* \"#utility.yul\":12926:12944   */\n      swap1\n      pop\n        /* \"#utility.yul\":12803:12950   */\n      swap3\n      swap2\n      pop\n      pop\n      jump\t// out\n        /* \"#utility.yul\":12956:13125   */\n    tag_186:\n        /* \"#utility.yul\":13040:13051   */\n      0x00\n        /* \"#utility.yul\":13074:13080   */\n      dup3\n        /* \"#utility.yul\":13069:13072   */\n      dup3\n        /* \"#utility.yul\":13062:13081   */\n      mstore\n        /* \"#utility.yul\":13114:13118   */\n      0x20\n        /* \"#utility.yul\":13109:13112   */\n      dup3\n        /* \"#utility.yul\":13105:13119   */\n      add\n        /* \"#utility.yul\":13090:13119   */\n      swap1\n      pop\n        /* \"#utility.yul\":12956:13125   */\n      swap3\n      swap2\n      pop\n      pop\n      jump\t// out\n        /* \"#utility.yul\":13131:13436   */\n    tag_82:\n        /* \"#utility.yul\":13171:13174   */\n      0x00\n        /* \"#utility.yul\":13190:13210   */\n      tag_284\n        /* \"#utility.yul\":13208:13209   */\n      dup3\n        /* \"#utility.yul\":13190:13210   */\n      tag_238\n      jump\t// in\n    tag_284:\n        /* \"#utility.yul\":13185:13210   */\n      swap2\n      pop\n        /* \"#utility.yul\":13224:13244   */\n      tag_285\n        /* \"#utility.yul\":13242:13243   */\n      dup4\n        /* \"#utility.yul\":13224:13244   */\n      tag_238\n      jump\t// in\n    tag_285:\n        /* \"#utility.yul\":13219:13244   */\n      swap3\n      pop\n        /* \"#utility.yul\":13378:13379   */\n      dup3\n        /* \"#utility.yul\":13310:13376   */\n      0xffffffffffffffffffffffffffffffffffffffffffffffffffffffffffffffff\n        /* \"#utility.yul\":13306:13380   */\n      sub\n        /* \"#utility.yul\":13303:13304   */\n      dup3\n        /* \"#utility.yul\":13300:13381   */\n      gt\n        /* \"#utility.yul\":13297:13404   */\n      iszero\n      tag_286\n      jumpi\n        /* \"#utility.yul\":13384:13402   */\n      tag_287\n      tag_288\n      jump\t// in\n    tag_287:\n        /* \"#utility.yul\":13297:13404   */\n    tag_286:\n        /* \"#utility.yul\":13428:13429   */\n      dup3\n        /* \"#utility.yul\":13425:13426   */\n      dup3\n        /* \"#utility.yul\":13421:13430   */\n      add\n        /* \"#utility.yul\":13414:13430   */\n      swap1\n      pop\n        /* \"#utility.yul\":13131:13436   */\n      swap3\n      swap2\n      pop\n      pop\n      jump\t// out\n        /* \"#utility.yul\":13442:13538   */\n    tag_174:\n        /* \"#utility.yul\":13479:13486   */\n      0x00\n        /* \"#utility.yul\":13508:13532   */\n      tag_290\n        /* \"#utility.yul\":13526:13531   */\n      dup3\n        /* \"#utility.yul\":13508:13532   */\n      tag_291\n      jump\t// in\n    tag_290:\n        /* \"#utility.yul\":13497:13532   */\n      swap1\n      pop\n        /* \"#utility.yul\":13442:13538   */\n      swap2\n      swap1\n      pop\n      jump\t// out\n        /* \"#utility.yul\":13544:13648   */\n    tag_170:\n        /* \"#utility.yul\":13589:13596   */\n      0x00\n        /* \"#utility.yul\":13618:13642   */\n      tag_293\n        /* \"#utility.yul\":13636:13641   */\n      dup3\n        /* \"#utility.yul\":13618:13642   */\n      tag_291\n      jump\t// in\n    tag_293:\n        /* \"#utility.yul\":13607:13642   */\n      swap1\n      pop\n        /* \"#utility.yul\":13544:13648   */\n      swap2\n      swap1\n      pop\n      jump\t// out\n        /* \"#utility.yul\":13654:13744   */\n    tag_178:\n        /* \"#utility.yul\":13688:13695   */\n      0x00\n        /* \"#utility.yul\":13731:13736   */\n      dup2\n        /* \"#utility.yul\":13724:13737   */\n      iszero\n        /* \"#utility.yul\":13717:13738   */\n      iszero\n        /* \"#utility.yul\":13706:13738   */\n      swap1\n      pop\n        /* \"#utility.yul\":13654:13744   */\n      swap2\n      swap1\n      pop\n      jump\t// out\n        /* \"#utility.yul\":13750:13860   */\n    tag_295:\n        /* \"#utility.yul\":13801:13808   */\n      0x00\n        /* \"#utility.yul\":13830:13854   */\n      tag_297\n        /* \"#utility.yul\":13848:13853   */\n      dup3\n        /* \"#utility.yul\":13830:13854   */\n      tag_174\n      jump\t// in\n    tag_297:\n        /* \"#utility.yul\":13819:13854   */\n      swap1\n      pop\n        /* \"#utility.yul\":13750:13860   */\n      swap2\n      swap1\n      pop\n      jump\t// out\n        /* \"#utility.yul\":13866:13992   */\n    tag_291:\n        /* \"#utility.yul\":13903:13910   */\n      0x00\n        /* \"#utility.yul\":13943:13985   */\n      0xffffffffffffffffffffffffffffffffffffffff\n        /* \"#utility.yul\":13936:13941   */\n      dup3\n        /* \"#utility.yul\":13932:13986   */\n      and\n        /* \"#utility.yul\":13921:13986   */\n      swap1\n      pop\n        /* \"#utility.yul\":13866:13992   */\n      swap2\n      swap1\n      pop\n      jump\t// out\n        /* \"#utility.yul\":13998:14075   */\n    tag_238:\n        /* \"#utility.yul\":14035:14042   */\n      0x00\n        /* \"#utility.yul\":14064:14069   */\n      dup2\n        /* \"#utility.yul\":14053:14069   */\n      swap1\n      pop\n        /* \"#utility.yul\":13998:14075   */\n      swap2\n      swap1\n      pop\n      jump\t// out\n        /* \"#utility.yul\":14081:14215   */\n    tag_166:\n        /* \"#utility.yul\":14139:14148   */\n      0x00\n        /* \"#utility.yul\":14172:14209   */\n      tag_301\n        /* \"#utility.yul\":14203:14208   */\n      dup3\n        /* \"#utility.yul\":14172:14209   */\n      tag_302\n      jump\t// in\n    tag_301:\n        /* \"#utility.yul\":14159:14209   */\n      swap1\n      pop\n        /* \"#utility.yul\":14081:14215   */\n      swap2\n      swap1\n      pop\n      jump\t// out\n        /* \"#utility.yul\":14221:14361   */\n    tag_182:\n        /* \"#utility.yul\":14285:14294   */\n      0x00\n        /* \"#utility.yul\":14318:14355   */\n      tag_304\n        /* \"#utility.yul\":14349:14354   */\n      dup3\n        /* \"#utility.yul\":14318:14355   */\n      tag_302\n      jump\t// in\n    tag_304:\n        /* \"#utility.yul\":14305:14355   */\n      swap1\n      pop\n        /* \"#utility.yul\":14221:14361   */\n      swap2\n      swap1\n      pop\n      jump\t// out\n        /* \"#utility.yul\":14367:14493   */\n    tag_302:\n        /* \"#utility.yul\":14417:14426   */\n      0x00\n        /* \"#utility.yul\":14450:14487   */\n      tag_306\n        /* \"#utility.yul\":14481:14486   */\n      dup3\n        /* \"#utility.yul\":14450:14487   */\n      tag_307\n      jump\t// in\n    tag_306:\n        /* \"#utility.yul\":14437:14487   */\n      swap1\n      pop\n        /* \"#utility.yul\":14367:14493   */\n      swap2\n      swap1\n      pop\n      jump\t// out\n        /* \"#utility.yul\":14499:14612   */\n    tag_307:\n        /* \"#utility.yul\":14549:14558   */\n      0x00\n        /* \"#utility.yul\":14582:14606   */\n      tag_309\n        /* \"#utility.yul\":14600:14605   */\n      dup3\n        /* \"#utility.yul\":14582:14606   */\n      tag_291\n      jump\t// in\n    tag_309:\n        /* \"#utility.yul\":14569:14606   */\n      swap1\n      pop\n        /* \"#utility.yul\":14499:14612   */\n      swap2\n      swap1\n      pop\n      jump\t// out\n        /* \"#utility.yul\":14618:14798   */\n    tag_288:\n        /* \"#utility.yul\":14666:14743   */\n      0x4e487b7100000000000000000000000000000000000000000000000000000000\n        /* \"#utility.yul\":14663:14664   */\n      0x00\n        /* \"#utility.yul\":14656:14744   */\n      mstore\n        /* \"#utility.yul\":14763:14767   */\n      0x11\n        /* \"#utility.yul\":14760:14761   */\n      0x04\n        /* \"#utility.yul\":14753:14768   */\n      mstore\n        /* \"#utility.yul\":14787:14791   */\n      0x24\n        /* \"#utility.yul\":14784:14785   */\n      0x00\n        /* \"#utility.yul\":14777:14792   */\n      revert\n        /* \"#utility.yul\":14927:15044   */\n    tag_154:\n        /* \"#utility.yul\":15036:15037   */\n      0x00\n        /* \"#utility.yul\":15033:15034   */\n      dup1\n        /* \"#utility.yul\":15026:15038   */\n      revert\n        /* \"#utility.yul\":15050:15225   */\n    tag_188:\n        /* \"#utility.yul\":15190:15217   */\n      0x41756374696f6e206973207374696c6c206f6e676f696e672100000000000000\n        /* \"#utility.yul\":15186:15187   */\n      0x00\n        /* \"#utility.yul\":15178:15184   */\n      dup3\n        /* \"#utility.yul\":15174:15188   */\n      add\n        /* \"#utility.yul\":15167:15218   */\n      mstore\n        /* \"#utility.yul\":15050:15225   */\n      pop\n      jump\t// out\n        /* \"#utility.yul\":15231:15397   */\n    tag_193:\n        /* \"#utility.yul\":15371:15389   */\n      0x416c726561647920737461727465642100000000000000000000000000000000\n        /* \"#utility.yul\":15367:15368   */\n      0x00\n        /* \"#utility.yul\":15359:15365   */\n      dup3\n        /* \"#utility.yul\":15355:15369   */\n      add\n        /* \"#utility.yul\":15348:15390   */\n      mstore\n        /* \"#utility.yul\":15231:15397   */\n      pop\n      jump\t// out\n        /* \"#utility.yul\":15403:15559   */\n    tag_198:\n        /* \"#utility.yul\":15543:15551   */\n      0x456e646564210000000000000000000000000000000000000000000000000000\n        /* \"#utility.yul\":15539:15540   */\n      0x00\n        /* \"#utility.yul\":15531:15537   */\n      dup3\n        /* \"#utility.yul\":15527:15541   */\n      add\n        /* \"#utility.yul\":15520:15552   */\n      mstore\n        /* \"#utility.yul\":15403:15559   */\n      pop\n      jump\t// out\n        /* \"#utility.yul\":15565:15745   */\n    tag_203:\n        /* \"#utility.yul\":15705:15737   */\n      0x596f7520646964206e6f74207374617274207468652061756374696f6e210000\n        /* \"#utility.yul\":15701:15702   */\n      0x00\n        /* \"#utility.yul\":15693:15699   */\n      dup3\n        /* \"#utility.yul\":15689:15703   */\n      add\n        /* \"#utility.yul\":15682:15738   */\n      mstore\n        /* \"#utility.yul\":15565:15745   */\n      pop\n      jump\t// out\n        /* \"#utility.yul\":15751:15922   */\n    tag_208:\n        /* \"#utility.yul\":15891:15914   */\n      0x436f756c64206e6f74207061792073656c6c6572210000000000000000000000\n        /* \"#utility.yul\":15887:15888   */\n      0x00\n        /* \"#utility.yul\":15879:15885   */\n      dup3\n        /* \"#utility.yul\":15875:15889   */\n      add\n        /* \"#utility.yul\":15868:15915   */\n      mstore\n        /* \"#utility.yul\":15751:15922   */\n      pop\n      jump\t// out\n        /* \"#utility.yul\":15928:16102   */\n    tag_213:\n        /* \"#utility.yul\":16068:16094   */\n      0x596f75206e65656420746f207374617274206669727374210000000000000000\n        /* \"#utility.yul\":16064:16065   */\n      0x00\n        /* \"#utility.yul\":16056:16062   */\n      dup3\n        /* \"#utility.yul\":16052:16066   */\n      add\n        /* \"#utility.yul\":16045:16095   */\n      mstore\n        /* \"#utility.yul\":15928:16102   */\n      pop\n      jump\t// out\n        /* \"#utility.yul\":16108:16270   */\n    tag_218:\n        /* \"#utility.yul\":16248:16262   */\n      0x4e6f7420737461727465642e0000000000000000000000000000000000000000\n        /* \"#utility.yul\":16244:16245   */\n      0x00\n        /* \"#utility.yul\":16236:16242   */\n      dup3\n        /* \"#utility.yul\":16232:16246   */\n      add\n        /* \"#utility.yul\":16225:16263   */\n      mstore\n        /* \"#utility.yul\":16108:16270   */\n      pop\n      jump\t// out\n        /* \"#utility.yul\":16276:16390   */\n    tag_224:\n      pop\n      jump\t// out\n        /* \"#utility.yul\":16396:16568   */\n    tag_229:\n        /* \"#utility.yul\":16536:16560   */\n      0x41756374696f6e20616c726561647920656e6465642100000000000000000000\n        /* \"#utility.yul\":16532:16533   */\n      0x00\n        /* \"#utility.yul\":16524:16530   */\n      dup3\n        /* \"#utility.yul\":16520:16534   */\n      add\n        /* \"#utility.yul\":16513:16561   */\n      mstore\n        /* \"#utility.yul\":16396:16568   */\n      pop\n      jump\t// out\n        /* \"#utility.yul\":16574:16742   */\n    tag_234:\n        /* \"#utility.yul\":16714:16734   */\n      0x436f756c64206e6f742077697468647261770000000000000000000000000000\n        /* \"#utility.yul\":16710:16711   */\n      0x00\n        /* \"#utility.yul\":16702:16708   */\n      dup3\n        /* \"#utility.yul\":16698:16712   */\n      add\n        /* \"#utility.yul\":16691:16735   */\n      mstore\n        /* \"#utility.yul\":16574:16742   */\n      pop\n      jump\t// out\n        /* \"#utility.yul\":16748:16870   */\n    tag_142:\n        /* \"#utility.yul\":16821:16845   */\n      tag_325\n        /* \"#utility.yul\":16839:16844   */\n      dup2\n        /* \"#utility.yul\":16821:16845   */\n      tag_174\n      jump\t// in\n    tag_325:\n        /* \"#utility.yul\":16814:16819   */\n      dup2\n        /* \"#utility.yul\":16811:16846   */\n      eq\n        /* \"#utility.yul\":16801:16864   */\n      tag_326\n      jumpi\n        /* \"#utility.yul\":16860:16861   */\n      0x00\n        /* \"#utility.yul\":16857:16858   */\n      dup1\n        /* \"#utility.yul\":16850:16862   */\n      revert\n        /* \"#utility.yul\":16801:16864   */\n    tag_326:\n        /* \"#utility.yul\":16748:16870   */\n      pop\n      jump\t// out\n        /* \"#utility.yul\":16876:17026   */\n    tag_146:\n        /* \"#utility.yul\":16963:17001   */\n      tag_328\n        /* \"#utility.yul\":16995:17000   */\n      dup2\n        /* \"#utility.yul\":16963:17001   */\n      tag_295\n      jump\t// in\n    tag_328:\n        /* \"#utility.yul\":16956:16961   */\n      dup2\n        /* \"#utility.yul\":16953:17002   */\n      eq\n        /* \"#utility.yul\":16943:17020   */\n      tag_329\n      jumpi\n        /* \"#utility.yul\":17016:17017   */\n      0x00\n        /* \"#utility.yul\":17013:17014   */\n      dup1\n        /* \"#utility.yul\":17006:17018   */\n      revert\n        /* \"#utility.yul\":16943:17020   */\n    tag_329:\n        /* \"#utility.yul\":16876:17026   */\n      pop\n      jump\t// out\n        /* \"#utility.yul\":17032:17154   */\n    tag_150:\n        /* \"#utility.yul\":17105:17129   */\n      tag_331\n        /* \"#utility.yul\":17123:17128   */\n      dup2\n        /* \"#utility.yul\":17105:17129   */\n      tag_238\n      jump\t// in\n    tag_331:\n        /* \"#utility.yul\":17098:17103   */\n      dup2\n        /* \"#utility.yul\":17095:17130   */\n      eq\n        /* \"#utility.yul\":17085:17148   */\n      tag_332\n      jumpi\n        /* \"#utility.yul\":17144:17145   */\n      0x00\n        /* \"#utility.yul\":17141:17142   */\n      dup1\n        /* \"#utility.yul\":17134:17146   */\n      revert\n        /* \"#utility.yul\":17085:17148   */\n    tag_332:\n        /* \"#utility.yul\":17032:17154   */\n      pop\n      jump\t// out\n\n    auxdata: 0xa264697066735822122004faa943a90728672ad5705000f37711ed011fb7358704764b58cbe36b502cab64736f6c63430008070033\n}\n",
				"bytecode": {
					"linkReferences": {},
					"object": "608060405234801561001057600080fd5b50336000806101000a81548173ffffffffffffffffffffffffffffffffffffffff021916908373ffffffffffffffffffffffffffffffffffffffff16021790555061155d806100606000396000f3fe6080604052600436106100c25760003560e01c806362ea82db1161007f578063b76a3b5a11610059578063b76a3b5a1461021a578063c6bc518214610243578063d57bde791461026e578063efbe1c1c14610299576100c2565b806362ea82db146101875780637cc3ae8c146101c457806391f90157146101ef576100c2565b806308551a53146100c757806312fa6feb146100f25780631998aeef1461011d5780631f2698ab146101275780633ccfd60b1461015257806347ccca021461015c575b600080fd5b3480156100d357600080fd5b506100dc6102b0565b6040516100e99190610fff565b60405180910390f35b3480156100fe57600080fd5b506101076102d4565b60405161011491906110a3565b60405180910390f35b6101256102e7565b005b34801561013357600080fd5b5061013c610515565b60405161014991906110a3565b60405180910390f35b61015a610528565b005b34801561016857600080fd5b506101716106b2565b60405161017e91906110be565b60405180910390f35b34801561019357600080fd5b506101ae60048036038101906101a99190610d83565b6106d8565b6040516101bb91906111f9565b60405180910390f35b3480156101d057600080fd5b506101d96106f0565b6040516101e691906111f9565b60405180910390f35b3480156101fb57600080fd5b506102046106f6565b6040516102119190610fe4565b60405180910390f35b34801561022657600080fd5b50610241600480360381019061023c9190610db0565b61071c565b005b34801561024f57600080fd5b50610258610948565b60405161026591906111f9565b60405180910390f35b34801561027a57600080fd5b5061028361094e565b60405161029091906111f9565b60405180910390f35b3480156102a557600080fd5b506102ae610954565b005b60008054906101000a900473ffffffffffffffffffffffffffffffffffffffff1681565b600060159054906101000a900460ff1681565b600060149054906101000a900460ff16610336576040517f08c379a000000000000000000000000000000000000000000000000000000000815260040161032d90611199565b60405180910390fd5b600154421061037a576040517f08c379a000000000000000000000000000000000000000000000000000000000815260040161037190611119565b60405180910390fd5b600454341161038857600080fd5b600073ffffffffffffffffffffffffffffffffffffffff16600560009054906101000a900473ffffffffffffffffffffffffffffffffffffffff1673ffffffffffffffffffffffffffffffffffffffff16146104595760045460066000600560009054906101000a900473ffffffffffffffffffffffffffffffffffffffff1673ffffffffffffffffffffffffffffffffffffffff1673ffffffffffffffffffffffffffffffffffffffff16815260200190815260200160002060008282546104519190611230565b925050819055505b3460048190555033600560006101000a81548173ffffffffffffffffffffffffffffffffffffffff021916908373ffffffffffffffffffffffffffffffffffffffff160217905550600560009054906101000a900473ffffffffffffffffffffffffffffffffffffffff1673ffffffffffffffffffffffffffffffffffffffff167fe684a55f31b79eca403df938249029212a5925ec6be8012e099b45bc1019e5d260045460405161050b91906111f9565b60405180910390a2565b600060149054906101000a900460ff1681565b6000600660003373ffffffffffffffffffffffffffffffffffffffff1673ffffffffffffffffffffffffffffffffffffffff1681526020019081526020016000205490506000600660003373ffffffffffffffffffffffffffffffffffffffff1673ffffffffffffffffffffffffffffffffffffffff168152602001908152602001600020819055506000803373ffffffffffffffffffffffffffffffffffffffff16836040516105d890610fcf565b60006040518083038185875af1925050503d8060008114610615576040519150601f19603f3d011682016040523d82523d6000602084013e61061a565b606091505b50915091508161065f576040517f08c379a0000000000000000000000000000000000000000000000000000000008152600401610656906111d9565b60405180910390fd5b3373ffffffffffffffffffffffffffffffffffffffff167f884edad9ce6fa2440d8a54cc123490eb96d2768479d49ff9c7366125a9424364846040516106a591906111f9565b60405180910390a2505050565b600260009054906101000a900473ffffffffffffffffffffffffffffffffffffffff1681565b60066020528060005260406000206000915090505481565b60015481565b600560009054906101000a900473ffffffffffffffffffffffffffffffffffffffff1681565b600060149054906101000a900460ff161561076c576040517f08c379a0000000000000000000000000000000000000000000000000000000008152600401610763906110f9565b60405180910390fd5b60008054906101000a900473ffffffffffffffffffffffffffffffffffffffff1673ffffffffffffffffffffffffffffffffffffffff163373ffffffffffffffffffffffffffffffffffffffff16146107fa576040517f08c379a00000000000000000000000000000000000000000000000000000000081526004016107f190611139565b60405180910390fd5b8160048190555083600260006101000a81548173ffffffffffffffffffffffffffffffffffffffff021916908373ffffffffffffffffffffffffffffffffffffffff16021790555082600381905550600260009054906101000a900473ffffffffffffffffffffffffffffffffffffffff1673ffffffffffffffffffffffffffffffffffffffff166323b872dd33306003546040518463ffffffff1660e01b81526004016108aa93929190611043565b600060405180830381600087803b1580156108c457600080fd5b505af11580156108d8573d6000803e3d6000fd5b505050506001600060146101000a81548160ff02191690831515021790555080426109039190611230565b6001819055507ff06a29c94c6f4edc1085072972d9441f7603e81c8535a308f214285d0653c85060015460405161093a91906111f9565b60405180910390a150505050565b60035481565b60045481565b600060149054906101000a900460ff166109a3576040517f08c379a000000000000000000000000000000000000000000000000000000000815260040161099a90611179565b60405180910390fd5b6001544210156109e8576040517f08c379a00000000000000000000000000000000000000000000000000000000081526004016109df906110d9565b60405180910390fd5b600060159054906101000a900460ff1615610a38576040517f08c379a0000000000000000000000000000000000000000000000000000000008152600401610a2f906111b9565b60405180910390fd5b600073ffffffffffffffffffffffffffffffffffffffff16600560009054906101000a900473ffffffffffffffffffffffffffffffffffffffff1673ffffffffffffffffffffffffffffffffffffffff1614610c1857600260009054906101000a900473ffffffffffffffffffffffffffffffffffffffff1673ffffffffffffffffffffffffffffffffffffffff1663a9059cbb600560009054906101000a900473ffffffffffffffffffffffffffffffffffffffff166003546040518363ffffffff1660e01b8152600401610b0f92919061107a565b600060405180830381600087803b158015610b2957600080fd5b505af1158015610b3d573d6000803e3d6000fd5b5050505060008060008054906101000a900473ffffffffffffffffffffffffffffffffffffffff1673ffffffffffffffffffffffffffffffffffffffff16600454604051610b8a90610fcf565b60006040518083038185875af1925050503d8060008114610bc7576040519150601f19603f3d011682016040523d82523d6000602084013e610bcc565b606091505b509150915081610c11576040517f08c379a0000000000000000000000000000000000000000000000000000000008152600401610c0890611159565b60405180910390fd5b5050610cca565b600260009054906101000a900473ffffffffffffffffffffffffffffffffffffffff1673ffffffffffffffffffffffffffffffffffffffff1663a9059cbb60008054906101000a900473ffffffffffffffffffffffffffffffffffffffff166003546040518363ffffffff1660e01b8152600401610c9792919061101a565b600060405180830381600087803b158015610cb157600080fd5b505af1158015610cc5573d6000803e3d6000fd5b505050505b6001600060156101000a81548160ff0219169083151502179055507f7d7570b046e5ead3a4f3fbc9fa2445113625a1e79823776146316bafed6b8cc5600560009054906101000a900473ffffffffffffffffffffffffffffffffffffffff16600454604051610d3a92919061107a565b60405180910390a1565b600081359050610d53816114e2565b92915050565b600081359050610d68816114f9565b92915050565b600081359050610d7d81611510565b92915050565b600060208284031215610d9957610d98611369565b5b6000610da784828501610d44565b91505092915050565b60008060008060808587031215610dca57610dc9611369565b5b6000610dd887828801610d59565b9450506020610de987828801610d6e565b9350506040610dfa87828801610d6e565b9250506060610e0b87828801610d6e565b91505092959194509250565b610e20816112f2565b82525050565b610e2f81611298565b82525050565b610e3e81611286565b82525050565b610e4d816112aa565b82525050565b610e5c81611304565b82525050565b6000610e6f60198361121f565b9150610e7a8261136e565b602082019050919050565b6000610e9260108361121f565b9150610e9d82611397565b602082019050919050565b6000610eb560068361121f565b9150610ec0826113c0565b602082019050919050565b6000610ed8601e8361121f565b9150610ee3826113e9565b602082019050919050565b6000610efb60158361121f565b9150610f0682611412565b602082019050919050565b6000610f1e60188361121f565b9150610f298261143b565b602082019050919050565b6000610f41600c8361121f565b9150610f4c82611464565b602082019050919050565b6000610f64600083611214565b9150610f6f8261148d565b600082019050919050565b6000610f8760168361121f565b9150610f9282611490565b602082019050919050565b6000610faa60128361121f565b9150610fb5826114b9565b602082019050919050565b610fc9816112e8565b82525050565b6000610fda82610f57565b9150819050919050565b6000602082019050610ff96000830184610e35565b92915050565b60006020820190506110146000830184610e26565b92915050565b600060408201905061102f6000830185610e17565b61103c6020830184610fc0565b9392505050565b60006060820190506110586000830186610e35565b6110656020830185610e35565b6110726040830184610fc0565b949350505050565b600060408201905061108f6000830185610e35565b61109c6020830184610fc0565b9392505050565b60006020820190506110b86000830184610e44565b92915050565b60006020820190506110d36000830184610e53565b92915050565b600060208201905081810360008301526110f281610e62565b9050919050565b6000602082019050818103600083015261111281610e85565b9050919050565b6000602082019050818103600083015261113281610ea8565b9050919050565b6000602082019050818103600083015261115281610ecb565b9050919050565b6000602082019050818103600083015261117281610eee565b9050919050565b6000602082019050818103600083015261119281610f11565b9050919050565b600060208201905081810360008301526111b281610f34565b9050919050565b600060208201905081810360008301526111d281610f7a565b9050919050565b600060208201905081810360008301526111f281610f9d565b9050919050565b600060208201905061120e6000830184610fc0565b92915050565b600081905092915050565b600082825260208201905092915050565b600061123b826112e8565b9150611246836112e8565b9250827fffffffffffffffffffffffffffffffffffffffffffffffffffffffffffffffff0382111561127b5761127a61133a565b5b828201905092915050565b6000611291826112c8565b9050919050565b60006112a3826112c8565b9050919050565b60008115159050919050565b60006112c182611286565b9050919050565b600073ffffffffffffffffffffffffffffffffffffffff82169050919050565b6000819050919050565b60006112fd82611316565b9050919050565b600061130f82611316565b9050919050565b600061132182611328565b9050919050565b6000611333826112c8565b9050919050565b7f4e487b7100000000000000000000000000000000000000000000000000000000600052601160045260246000fd5b600080fd5b7f41756374696f6e206973207374696c6c206f6e676f696e672100000000000000600082015250565b7f416c726561647920737461727465642100000000000000000000000000000000600082015250565b7f456e646564210000000000000000000000000000000000000000000000000000600082015250565b7f596f7520646964206e6f74207374617274207468652061756374696f6e210000600082015250565b7f436f756c64206e6f74207061792073656c6c6572210000000000000000000000600082015250565b7f596f75206e65656420746f207374617274206669727374210000000000000000600082015250565b7f4e6f7420737461727465642e0000000000000000000000000000000000000000600082015250565b50565b7f41756374696f6e20616c726561647920656e6465642100000000000000000000600082015250565b7f436f756c64206e6f742077697468647261770000000000000000000000000000600082015250565b6114eb81611286565b81146114f657600080fd5b50565b611502816112b6565b811461150d57600080fd5b50565b611519816112e8565b811461152457600080fd5b5056fea264697066735822122004faa943a90728672ad5705000f37711ed011fb7358704764b58cbe36b502cab64736f6c63430008070033",
					"opcodes": "PUSH1 0x80 PUSH1 0x40 MSTORE CALLVALUE DUP1 ISZERO PUSH2 0x10 JUMPI PUSH1 0x0 DUP1 REVERT JUMPDEST POP CALLER PUSH1 0x0 DUP1 PUSH2 0x100 EXP DUP2 SLOAD DUP2 PUSH20 0xFFFFFFFFFFFFFFFFFFFFFFFFFFFFFFFFFFFFFFFF MUL NOT AND SWAP1 DUP4 PUSH20 0xFFFFFFFFFFFFFFFFFFFFFFFFFFFFFFFFFFFFFFFF AND MUL OR SWAP1 SSTORE POP PUSH2 0x155D DUP1 PUSH2 0x60 PUSH1 0x0 CODECOPY PUSH1 0x0 RETURN INVALID PUSH1 0x80 PUSH1 0x40 MSTORE PUSH1 0x4 CALLDATASIZE LT PUSH2 0xC2 JUMPI PUSH1 0x0 CALLDATALOAD PUSH1 0xE0 SHR DUP1 PUSH4 0x62EA82DB GT PUSH2 0x7F JUMPI DUP1 PUSH4 0xB76A3B5A GT PUSH2 0x59 JUMPI DUP1 PUSH4 0xB76A3B5A EQ PUSH2 0x21A JUMPI DUP1 PUSH4 0xC6BC5182 EQ PUSH2 0x243 JUMPI DUP1 PUSH4 0xD57BDE79 EQ PUSH2 0x26E JUMPI DUP1 PUSH4 0xEFBE1C1C EQ PUSH2 0x299 JUMPI PUSH2 0xC2 JUMP JUMPDEST DUP1 PUSH4 0x62EA82DB EQ PUSH2 0x187 JUMPI DUP1 PUSH4 0x7CC3AE8C EQ PUSH2 0x1C4 JUMPI DUP1 PUSH4 0x91F90157 EQ PUSH2 0x1EF JUMPI PUSH2 0xC2 JUMP JUMPDEST DUP1 PUSH4 0x8551A53 EQ PUSH2 0xC7 JUMPI DUP1 PUSH4 0x12FA6FEB EQ PUSH2 0xF2 JUMPI DUP1 PUSH4 0x1998AEEF EQ PUSH2 0x11D JUMPI DUP1 PUSH4 0x1F2698AB EQ PUSH2 0x127 JUMPI DUP1 PUSH4 0x3CCFD60B EQ PUSH2 0x152 JUMPI DUP1 PUSH4 0x47CCCA02 EQ PUSH2 0x15C JUMPI JUMPDEST PUSH1 0x0 DUP1 REVERT JUMPDEST CALLVALUE DUP1 ISZERO PUSH2 0xD3 JUMPI PUSH1 0x0 DUP1 REVERT JUMPDEST POP PUSH2 0xDC PUSH2 0x2B0 JUMP JUMPDEST PUSH1 0x40 MLOAD PUSH2 0xE9 SWAP2 SWAP1 PUSH2 0xFFF JUMP JUMPDEST PUSH1 0x40 MLOAD DUP1 SWAP2 SUB SWAP1 RETURN JUMPDEST CALLVALUE DUP1 ISZERO PUSH2 0xFE JUMPI PUSH1 0x0 DUP1 REVERT JUMPDEST POP PUSH2 0x107 PUSH2 0x2D4 JUMP JUMPDEST PUSH1 0x40 MLOAD PUSH2 0x114 SWAP2 SWAP1 PUSH2 0x10A3 JUMP JUMPDEST PUSH1 0x40 MLOAD DUP1 SWAP2 SUB SWAP1 RETURN JUMPDEST PUSH2 0x125 PUSH2 0x2E7 JUMP JUMPDEST STOP JUMPDEST CALLVALUE DUP1 ISZERO PUSH2 0x133 JUMPI PUSH1 0x0 DUP1 REVERT JUMPDEST POP PUSH2 0x13C PUSH2 0x515 JUMP JUMPDEST PUSH1 0x40 MLOAD PUSH2 0x149 SWAP2 SWAP1 PUSH2 0x10A3 JUMP JUMPDEST PUSH1 0x40 MLOAD DUP1 SWAP2 SUB SWAP1 RETURN JUMPDEST PUSH2 0x15A PUSH2 0x528 JUMP JUMPDEST STOP JUMPDEST CALLVALUE DUP1 ISZERO PUSH2 0x168 JUMPI PUSH1 0x0 DUP1 REVERT JUMPDEST POP PUSH2 0x171 PUSH2 0x6B2 JUMP JUMPDEST PUSH1 0x40 MLOAD PUSH2 0x17E SWAP2 SWAP1 PUSH2 0x10BE JUMP JUMPDEST PUSH1 0x40 MLOAD DUP1 SWAP2 SUB SWAP1 RETURN JUMPDEST CALLVALUE DUP1 ISZERO PUSH2 0x193 JUMPI PUSH1 0x0 DUP1 REVERT JUMPDEST POP PUSH2 0x1AE PUSH1 0x4 DUP1 CALLDATASIZE SUB DUP2 ADD SWAP1 PUSH2 0x1A9 SWAP2 SWAP1 PUSH2 0xD83 JUMP JUMPDEST PUSH2 0x6D8 JUMP JUMPDEST PUSH1 0x40 MLOAD PUSH2 0x1BB SWAP2 SWAP1 PUSH2 0x11F9 JUMP JUMPDEST PUSH1 0x40 MLOAD DUP1 SWAP2 SUB SWAP1 RETURN JUMPDEST CALLVALUE DUP1 ISZERO PUSH2 0x1D0 JUMPI PUSH1 0x0 DUP1 REVERT JUMPDEST POP PUSH2 0x1D9 PUSH2 0x6F0 JUMP JUMPDEST PUSH1 0x40 MLOAD PUSH2 0x1E6 SWAP2 SWAP1 PUSH2 0x11F9 JUMP JUMPDEST PUSH1 0x40 MLOAD DUP1 SWAP2 SUB SWAP1 RETURN JUMPDEST CALLVALUE DUP1 ISZERO PUSH2 0x1FB JUMPI PUSH1 0x0 DUP1 REVERT JUMPDEST POP PUSH2 0x204 PUSH2 0x6F6 JUMP JUMPDEST PUSH1 0x40 MLOAD PUSH2 0x211 SWAP2 SWAP1 PUSH2 0xFE4 JUMP JUMPDEST PUSH1 0x40 MLOAD DUP1 SWAP2 SUB SWAP1 RETURN JUMPDEST CALLVALUE DUP1 ISZERO PUSH2 0x226 JUMPI PUSH1 0x0 DUP1 REVERT JUMPDEST POP PUSH2 0x241 PUSH1 0x4 DUP1 CALLDATASIZE SUB DUP2 ADD SWAP1 PUSH2 0x23C SWAP2 SWAP1 PUSH2 0xDB0 JUMP JUMPDEST PUSH2 0x71C JUMP JUMPDEST STOP JUMPDEST CALLVALUE DUP1 ISZERO PUSH2 0x24F JUMPI PUSH1 0x0 DUP1 REVERT JUMPDEST POP PUSH2 0x258 PUSH2 0x948 JUMP JUMPDEST PUSH1 0x40 MLOAD PUSH2 0x265 SWAP2 SWAP1 PUSH2 0x11F9 JUMP JUMPDEST PUSH1 0x40 MLOAD DUP1 SWAP2 SUB SWAP1 RETURN JUMPDEST CALLVALUE DUP1 ISZERO PUSH2 0x27A JUMPI PUSH1 0x0 DUP1 REVERT JUMPDEST POP PUSH2 0x283 PUSH2 0x94E JUMP JUMPDEST PUSH1 0x40 MLOAD PUSH2 0x290 SWAP2 SWAP1 PUSH2 0x11F9 JUMP JUMPDEST PUSH1 0x40 MLOAD DUP1 SWAP2 SUB SWAP1 RETURN JUMPDEST CALLVALUE DUP1 ISZERO PUSH2 0x2A5 JUMPI PUSH1 0x0 DUP1 REVERT JUMPDEST POP PUSH2 0x2AE PUSH2 0x954 JUMP JUMPDEST STOP JUMPDEST PUSH1 0x0 DUP1 SLOAD SWAP1 PUSH2 0x100 EXP SWAP1 DIV PUSH20 0xFFFFFFFFFFFFFFFFFFFFFFFFFFFFFFFFFFFFFFFF AND DUP2 JUMP JUMPDEST PUSH1 0x0 PUSH1 0x15 SWAP1 SLOAD SWAP1 PUSH2 0x100 EXP SWAP1 DIV PUSH1 0xFF AND DUP2 JUMP JUMPDEST PUSH1 0x0 PUSH1 0x14 SWAP1 SLOAD SWAP1 PUSH2 0x100 EXP SWAP1 DIV PUSH1 0xFF AND PUSH2 0x336 JUMPI PUSH1 0x40 MLOAD PUSH32 0x8C379A000000000000000000000000000000000000000000000000000000000 DUP2 MSTORE PUSH1 0x4 ADD PUSH2 0x32D SWAP1 PUSH2 0x1199 JUMP JUMPDEST PUSH1 0x40 MLOAD DUP1 SWAP2 SUB SWAP1 REVERT JUMPDEST PUSH1 0x1 SLOAD TIMESTAMP LT PUSH2 0x37A JUMPI PUSH1 0x40 MLOAD PUSH32 0x8C379A000000000000000000000000000000000000000000000000000000000 DUP2 MSTORE PUSH1 0x4 ADD PUSH2 0x371 SWAP1 PUSH2 0x1119 JUMP JUMPDEST PUSH1 0x40 MLOAD DUP1 SWAP2 SUB SWAP1 REVERT JUMPDEST PUSH1 0x4 SLOAD CALLVALUE GT PUSH2 0x388 JUMPI PUSH1 0x0 DUP1 REVERT JUMPDEST PUSH1 0x0 PUSH20 0xFFFFFFFFFFFFFFFFFFFFFFFFFFFFFFFFFFFFFFFF AND PUSH1 0x5 PUSH1 0x0 SWAP1 SLOAD SWAP1 PUSH2 0x100 EXP SWAP1 DIV PUSH20 0xFFFFFFFFFFFFFFFFFFFFFFFFFFFFFFFFFFFFFFFF AND PUSH20 0xFFFFFFFFFFFFFFFFFFFFFFFFFFFFFFFFFFFFFFFF AND EQ PUSH2 0x459 JUMPI PUSH1 0x4 SLOAD PUSH1 0x6 PUSH1 0x0 PUSH1 0x5 PUSH1 0x0 SWAP1 SLOAD SWAP1 PUSH2 0x100 EXP SWAP1 DIV PUSH20 0xFFFFFFFFFFFFFFFFFFFFFFFFFFFFFFFFFFFFFFFF AND PUSH20 0xFFFFFFFFFFFFFFFFFFFFFFFFFFFFFFFFFFFFFFFF AND PUSH20 0xFFFFFFFFFFFFFFFFFFFFFFFFFFFFFFFFFFFFFFFF AND DUP2 MSTORE PUSH1 0x20 ADD SWAP1 DUP2 MSTORE PUSH1 0x20 ADD PUSH1 0x0 KECCAK256 PUSH1 0x0 DUP3 DUP3 SLOAD PUSH2 0x451 SWAP2 SWAP1 PUSH2 0x1230 JUMP JUMPDEST SWAP3 POP POP DUP2 SWAP1 SSTORE POP JUMPDEST CALLVALUE PUSH1 0x4 DUP2 SWAP1 SSTORE POP CALLER PUSH1 0x5 PUSH1 0x0 PUSH2 0x100 EXP DUP2 SLOAD DUP2 PUSH20 0xFFFFFFFFFFFFFFFFFFFFFFFFFFFFFFFFFFFFFFFF MUL NOT AND SWAP1 DUP4 PUSH20 0xFFFFFFFFFFFFFFFFFFFFFFFFFFFFFFFFFFFFFFFF AND MUL OR SWAP1 SSTORE POP PUSH1 0x5 PUSH1 0x0 SWAP1 SLOAD SWAP1 PUSH2 0x100 EXP SWAP1 DIV PUSH20 0xFFFFFFFFFFFFFFFFFFFFFFFFFFFFFFFFFFFFFFFF AND PUSH20 0xFFFFFFFFFFFFFFFFFFFFFFFFFFFFFFFFFFFFFFFF AND PUSH32 0xE684A55F31B79ECA403DF938249029212A5925EC6BE8012E099B45BC1019E5D2 PUSH1 0x4 SLOAD PUSH1 0x40 MLOAD PUSH2 0x50B SWAP2 SWAP1 PUSH2 0x11F9 JUMP JUMPDEST PUSH1 0x40 MLOAD DUP1 SWAP2 SUB SWAP1 LOG2 JUMP JUMPDEST PUSH1 0x0 PUSH1 0x14 SWAP1 SLOAD SWAP1 PUSH2 0x100 EXP SWAP1 DIV PUSH1 0xFF AND DUP2 JUMP JUMPDEST PUSH1 0x0 PUSH1 0x6 PUSH1 0x0 CALLER PUSH20 0xFFFFFFFFFFFFFFFFFFFFFFFFFFFFFFFFFFFFFFFF AND PUSH20 0xFFFFFFFFFFFFFFFFFFFFFFFFFFFFFFFFFFFFFFFF AND DUP2 MSTORE PUSH1 0x20 ADD SWAP1 DUP2 MSTORE PUSH1 0x20 ADD PUSH1 0x0 KECCAK256 SLOAD SWAP1 POP PUSH1 0x0 PUSH1 0x6 PUSH1 0x0 CALLER PUSH20 0xFFFFFFFFFFFFFFFFFFFFFFFFFFFFFFFFFFFFFFFF AND PUSH20 0xFFFFFFFFFFFFFFFFFFFFFFFFFFFFFFFFFFFFFFFF AND DUP2 MSTORE PUSH1 0x20 ADD SWAP1 DUP2 MSTORE PUSH1 0x20 ADD PUSH1 0x0 KECCAK256 DUP2 SWAP1 SSTORE POP PUSH1 0x0 DUP1 CALLER PUSH20 0xFFFFFFFFFFFFFFFFFFFFFFFFFFFFFFFFFFFFFFFF AND DUP4 PUSH1 0x40 MLOAD PUSH2 0x5D8 SWAP1 PUSH2 0xFCF JUMP JUMPDEST PUSH1 0x0 PUSH1 0x40 MLOAD DUP1 DUP4 SUB DUP2 DUP6 DUP8 GAS CALL SWAP3 POP POP POP RETURNDATASIZE DUP1 PUSH1 0x0 DUP2 EQ PUSH2 0x615 JUMPI PUSH1 0x40 MLOAD SWAP2 POP PUSH1 0x1F NOT PUSH1 0x3F RETURNDATASIZE ADD AND DUP3 ADD PUSH1 0x40 MSTORE RETURNDATASIZE DUP3 MSTORE RETURNDATASIZE PUSH1 0x0 PUSH1 0x20 DUP5 ADD RETURNDATACOPY PUSH2 0x61A JUMP JUMPDEST PUSH1 0x60 SWAP2 POP JUMPDEST POP SWAP2 POP SWAP2 POP DUP2 PUSH2 0x65F JUMPI PUSH1 0x40 MLOAD PUSH32 0x8C379A000000000000000000000000000000000000000000000000000000000 DUP2 MSTORE PUSH1 0x4 ADD PUSH2 0x656 SWAP1 PUSH2 0x11D9 JUMP JUMPDEST PUSH1 0x40 MLOAD DUP1 SWAP2 SUB SWAP1 REVERT JUMPDEST CALLER PUSH20 0xFFFFFFFFFFFFFFFFFFFFFFFFFFFFFFFFFFFFFFFF AND PUSH32 0x884EDAD9CE6FA2440D8A54CC123490EB96D2768479D49FF9C7366125A9424364 DUP5 PUSH1 0x40 MLOAD PUSH2 0x6A5 SWAP2 SWAP1 PUSH2 0x11F9 JUMP JUMPDEST PUSH1 0x40 MLOAD DUP1 SWAP2 SUB SWAP1 LOG2 POP POP POP JUMP JUMPDEST PUSH1 0x2 PUSH1 0x0 SWAP1 SLOAD SWAP1 PUSH2 0x100 EXP SWAP1 DIV PUSH20 0xFFFFFFFFFFFFFFFFFFFFFFFFFFFFFFFFFFFFFFFF AND DUP2 JUMP JUMPDEST PUSH1 0x6 PUSH1 0x20 MSTORE DUP1 PUSH1 0x0 MSTORE PUSH1 0x40 PUSH1 0x0 KECCAK256 PUSH1 0x0 SWAP2 POP SWAP1 POP SLOAD DUP2 JUMP JUMPDEST PUSH1 0x1 SLOAD DUP2 JUMP JUMPDEST PUSH1 0x5 PUSH1 0x0 SWAP1 SLOAD SWAP1 PUSH2 0x100 EXP SWAP1 DIV PUSH20 0xFFFFFFFFFFFFFFFFFFFFFFFFFFFFFFFFFFFFFFFF AND DUP2 JUMP JUMPDEST PUSH1 0x0 PUSH1 0x14 SWAP1 SLOAD SWAP1 PUSH2 0x100 EXP SWAP1 DIV PUSH1 0xFF AND ISZERO PUSH2 0x76C JUMPI PUSH1 0x40 MLOAD PUSH32 0x8C379A000000000000000000000000000000000000000000000000000000000 DUP2 MSTORE PUSH1 0x4 ADD PUSH2 0x763 SWAP1 PUSH2 0x10F9 JUMP JUMPDEST PUSH1 0x40 MLOAD DUP1 SWAP2 SUB SWAP1 REVERT JUMPDEST PUSH1 0x0 DUP1 SLOAD SWAP1 PUSH2 0x100 EXP SWAP1 DIV PUSH20 0xFFFFFFFFFFFFFFFFFFFFFFFFFFFFFFFFFFFFFFFF AND PUSH20 0xFFFFFFFFFFFFFFFFFFFFFFFFFFFFFFFFFFFFFFFF AND CALLER PUSH20 0xFFFFFFFFFFFFFFFFFFFFFFFFFFFFFFFFFFFFFFFF AND EQ PUSH2 0x7FA JUMPI PUSH1 0x40 MLOAD PUSH32 0x8C379A000000000000000000000000000000000000000000000000000000000 DUP2 MSTORE PUSH1 0x4 ADD PUSH2 0x7F1 SWAP1 PUSH2 0x1139 JUMP JUMPDEST PUSH1 0x40 MLOAD DUP1 SWAP2 SUB SWAP1 REVERT JUMPDEST DUP2 PUSH1 0x4 DUP2 SWAP1 SSTORE POP DUP4 PUSH1 0x2 PUSH1 0x0 PUSH2 0x100 EXP DUP2 SLOAD DUP2 PUSH20 0xFFFFFFFFFFFFFFFFFFFFFFFFFFFFFFFFFFFFFFFF MUL NOT AND SWAP1 DUP4 PUSH20 0xFFFFFFFFFFFFFFFFFFFFFFFFFFFFFFFFFFFFFFFF AND MUL OR SWAP1 SSTORE POP DUP3 PUSH1 0x3 DUP2 SWAP1 SSTORE POP PUSH1 0x2 PUSH1 0x0 SWAP1 SLOAD SWAP1 PUSH2 0x100 EXP SWAP1 DIV PUSH20 0xFFFFFFFFFFFFFFFFFFFFFFFFFFFFFFFFFFFFFFFF AND PUSH20 0xFFFFFFFFFFFFFFFFFFFFFFFFFFFFFFFFFFFFFFFF AND PUSH4 0x23B872DD CALLER ADDRESS PUSH1 0x3 SLOAD PUSH1 0x40 MLOAD DUP5 PUSH4 0xFFFFFFFF AND PUSH1 0xE0 SHL DUP2 MSTORE PUSH1 0x4 ADD PUSH2 0x8AA SWAP4 SWAP3 SWAP2 SWAP1 PUSH2 0x1043 JUMP JUMPDEST PUSH1 0x0 PUSH1 0x40 MLOAD DUP1 DUP4 SUB DUP2 PUSH1 0x0 DUP8 DUP1 EXTCODESIZE ISZERO DUP1 ISZERO PUSH2 0x8C4 JUMPI PUSH1 0x0 DUP1 REVERT JUMPDEST POP GAS CALL ISZERO DUP1 ISZERO PUSH2 0x8D8 JUMPI RETURNDATASIZE PUSH1 0x0 DUP1 RETURNDATACOPY RETURNDATASIZE PUSH1 0x0 REVERT JUMPDEST POP POP POP POP PUSH1 0x1 PUSH1 0x0 PUSH1 0x14 PUSH2 0x100 EXP DUP2 SLOAD DUP2 PUSH1 0xFF MUL NOT AND SWAP1 DUP4 ISZERO ISZERO MUL OR SWAP1 SSTORE POP DUP1 TIMESTAMP PUSH2 0x903 SWAP2 SWAP1 PUSH2 0x1230 JUMP JUMPDEST PUSH1 0x1 DUP2 SWAP1 SSTORE POP PUSH32 0xF06A29C94C6F4EDC1085072972D9441F7603E81C8535A308F214285D0653C850 PUSH1 0x1 SLOAD PUSH1 0x40 MLOAD PUSH2 0x93A SWAP2 SWAP1 PUSH2 0x11F9 JUMP JUMPDEST PUSH1 0x40 MLOAD DUP1 SWAP2 SUB SWAP1 LOG1 POP POP POP POP JUMP JUMPDEST PUSH1 0x3 SLOAD DUP2 JUMP JUMPDEST PUSH1 0x4 SLOAD DUP2 JUMP JUMPDEST PUSH1 0x0 PUSH1 0x14 SWAP1 SLOAD SWAP1 PUSH2 0x100 EXP SWAP1 DIV PUSH1 0xFF AND PUSH2 0x9A3 JUMPI PUSH1 0x40 MLOAD PUSH32 0x8C379A000000000000000000000000000000000000000000000000000000000 DUP2 MSTORE PUSH1 0x4 ADD PUSH2 0x99A SWAP1 PUSH2 0x1179 JUMP JUMPDEST PUSH1 0x40 MLOAD DUP1 SWAP2 SUB SWAP1 REVERT JUMPDEST PUSH1 0x1 SLOAD TIMESTAMP LT ISZERO PUSH2 0x9E8 JUMPI PUSH1 0x40 MLOAD PUSH32 0x8C379A000000000000000000000000000000000000000000000000000000000 DUP2 MSTORE PUSH1 0x4 ADD PUSH2 0x9DF SWAP1 PUSH2 0x10D9 JUMP JUMPDEST PUSH1 0x40 MLOAD DUP1 SWAP2 SUB SWAP1 REVERT JUMPDEST PUSH1 0x0 PUSH1 0x15 SWAP1 SLOAD SWAP1 PUSH2 0x100 EXP SWAP1 DIV PUSH1 0xFF AND ISZERO PUSH2 0xA38 JUMPI PUSH1 0x40 MLOAD PUSH32 0x8C379A000000000000000000000000000000000000000000000000000000000 DUP2 MSTORE PUSH1 0x4 ADD PUSH2 0xA2F SWAP1 PUSH2 0x11B9 JUMP JUMPDEST PUSH1 0x40 MLOAD DUP1 SWAP2 SUB SWAP1 REVERT JUMPDEST PUSH1 0x0 PUSH20 0xFFFFFFFFFFFFFFFFFFFFFFFFFFFFFFFFFFFFFFFF AND PUSH1 0x5 PUSH1 0x0 SWAP1 SLOAD SWAP1 PUSH2 0x100 EXP SWAP1 DIV PUSH20 0xFFFFFFFFFFFFFFFFFFFFFFFFFFFFFFFFFFFFFFFF AND PUSH20 0xFFFFFFFFFFFFFFFFFFFFFFFFFFFFFFFFFFFFFFFF AND EQ PUSH2 0xC18 JUMPI PUSH1 0x2 PUSH1 0x0 SWAP1 SLOAD SWAP1 PUSH2 0x100 EXP SWAP1 DIV PUSH20 0xFFFFFFFFFFFFFFFFFFFFFFFFFFFFFFFFFFFFFFFF AND PUSH20 0xFFFFFFFFFFFFFFFFFFFFFFFFFFFFFFFFFFFFFFFF AND PUSH4 0xA9059CBB PUSH1 0x5 PUSH1 0x0 SWAP1 SLOAD SWAP1 PUSH2 0x100 EXP SWAP1 DIV PUSH20 0xFFFFFFFFFFFFFFFFFFFFFFFFFFFFFFFFFFFFFFFF AND PUSH1 0x3 SLOAD PUSH1 0x40 MLOAD DUP4 PUSH4 0xFFFFFFFF AND PUSH1 0xE0 SHL DUP2 MSTORE PUSH1 0x4 ADD PUSH2 0xB0F SWAP3 SWAP2 SWAP1 PUSH2 0x107A JUMP JUMPDEST PUSH1 0x0 PUSH1 0x40 MLOAD DUP1 DUP4 SUB DUP2 PUSH1 0x0 DUP8 DUP1 EXTCODESIZE ISZERO DUP1 ISZERO PUSH2 0xB29 JUMPI PUSH1 0x0 DUP1 REVERT JUMPDEST POP GAS CALL ISZERO DUP1 ISZERO PUSH2 0xB3D JUMPI RETURNDATASIZE PUSH1 0x0 DUP1 RETURNDATACOPY RETURNDATASIZE PUSH1 0x0 REVERT JUMPDEST POP POP POP POP PUSH1 0x0 DUP1 PUSH1 0x0 DUP1 SLOAD SWAP1 PUSH2 0x100 EXP SWAP1 DIV PUSH20 0xFFFFFFFFFFFFFFFFFFFFFFFFFFFFFFFFFFFFFFFF AND PUSH20 0xFFFFFFFFFFFFFFFFFFFFFFFFFFFFFFFFFFFFFFFF AND PUSH1 0x4 SLOAD PUSH1 0x40 MLOAD PUSH2 0xB8A SWAP1 PUSH2 0xFCF JUMP JUMPDEST PUSH1 0x0 PUSH1 0x40 MLOAD DUP1 DUP4 SUB DUP2 DUP6 DUP8 GAS CALL SWAP3 POP POP POP RETURNDATASIZE DUP1 PUSH1 0x0 DUP2 EQ PUSH2 0xBC7 JUMPI PUSH1 0x40 MLOAD SWAP2 POP PUSH1 0x1F NOT PUSH1 0x3F RETURNDATASIZE ADD AND DUP3 ADD PUSH1 0x40 MSTORE RETURNDATASIZE DUP3 MSTORE RETURNDATASIZE PUSH1 0x0 PUSH1 0x20 DUP5 ADD RETURNDATACOPY PUSH2 0xBCC JUMP JUMPDEST PUSH1 0x60 SWAP2 POP JUMPDEST POP SWAP2 POP SWAP2 POP DUP2 PUSH2 0xC11 JUMPI PUSH1 0x40 MLOAD PUSH32 0x8C379A000000000000000000000000000000000000000000000000000000000 DUP2 MSTORE PUSH1 0x4 ADD PUSH2 0xC08 SWAP1 PUSH2 0x1159 JUMP JUMPDEST PUSH1 0x40 MLOAD DUP1 SWAP2 SUB SWAP1 REVERT JUMPDEST POP POP PUSH2 0xCCA JUMP JUMPDEST PUSH1 0x2 PUSH1 0x0 SWAP1 SLOAD SWAP1 PUSH2 0x100 EXP SWAP1 DIV PUSH20 0xFFFFFFFFFFFFFFFFFFFFFFFFFFFFFFFFFFFFFFFF AND PUSH20 0xFFFFFFFFFFFFFFFFFFFFFFFFFFFFFFFFFFFFFFFF AND PUSH4 0xA9059CBB PUSH1 0x0 DUP1 SLOAD SWAP1 PUSH2 0x100 EXP SWAP1 DIV PUSH20 0xFFFFFFFFFFFFFFFFFFFFFFFFFFFFFFFFFFFFFFFF AND PUSH1 0x3 SLOAD PUSH1 0x40 MLOAD DUP4 PUSH4 0xFFFFFFFF AND PUSH1 0xE0 SHL DUP2 MSTORE PUSH1 0x4 ADD PUSH2 0xC97 SWAP3 SWAP2 SWAP1 PUSH2 0x101A JUMP JUMPDEST PUSH1 0x0 PUSH1 0x40 MLOAD DUP1 DUP4 SUB DUP2 PUSH1 0x0 DUP8 DUP1 EXTCODESIZE ISZERO DUP1 ISZERO PUSH2 0xCB1 JUMPI PUSH1 0x0 DUP1 REVERT JUMPDEST POP GAS CALL ISZERO DUP1 ISZERO PUSH2 0xCC5 JUMPI RETURNDATASIZE PUSH1 0x0 DUP1 RETURNDATACOPY RETURNDATASIZE PUSH1 0x0 REVERT JUMPDEST POP POP POP POP JUMPDEST PUSH1 0x1 PUSH1 0x0 PUSH1 0x15 PUSH2 0x100 EXP DUP2 SLOAD DUP2 PUSH1 0xFF MUL NOT AND SWAP1 DUP4 ISZERO ISZERO MUL OR SWAP1 SSTORE POP PUSH32 0x7D7570B046E5EAD3A4F3FBC9FA2445113625A1E79823776146316BAFED6B8CC5 PUSH1 0x5 PUSH1 0x0 SWAP1 SLOAD SWAP1 PUSH2 0x100 EXP SWAP1 DIV PUSH20 0xFFFFFFFFFFFFFFFFFFFFFFFFFFFFFFFFFFFFFFFF AND PUSH1 0x4 SLOAD PUSH1 0x40 MLOAD PUSH2 0xD3A SWAP3 SWAP2 SWAP1 PUSH2 0x107A JUMP JUMPDEST PUSH1 0x40 MLOAD DUP1 SWAP2 SUB SWAP1 LOG1 JUMP JUMPDEST PUSH1 0x0 DUP2 CALLDATALOAD SWAP1 POP PUSH2 0xD53 DUP2 PUSH2 0x14E2 JUMP JUMPDEST SWAP3 SWAP2 POP POP JUMP JUMPDEST PUSH1 0x0 DUP2 CALLDATALOAD SWAP1 POP PUSH2 0xD68 DUP2 PUSH2 0x14F9 JUMP JUMPDEST SWAP3 SWAP2 POP POP JUMP JUMPDEST PUSH1 0x0 DUP2 CALLDATALOAD SWAP1 POP PUSH2 0xD7D DUP2 PUSH2 0x1510 JUMP JUMPDEST SWAP3 SWAP2 POP POP JUMP JUMPDEST PUSH1 0x0 PUSH1 0x20 DUP3 DUP5 SUB SLT ISZERO PUSH2 0xD99 JUMPI PUSH2 0xD98 PUSH2 0x1369 JUMP JUMPDEST JUMPDEST PUSH1 0x0 PUSH2 0xDA7 DUP5 DUP3 DUP6 ADD PUSH2 0xD44 JUMP JUMPDEST SWAP2 POP POP SWAP3 SWAP2 POP POP JUMP JUMPDEST PUSH1 0x0 DUP1 PUSH1 0x0 DUP1 PUSH1 0x80 DUP6 DUP8 SUB SLT ISZERO PUSH2 0xDCA JUMPI PUSH2 0xDC9 PUSH2 0x1369 JUMP JUMPDEST JUMPDEST PUSH1 0x0 PUSH2 0xDD8 DUP8 DUP3 DUP9 ADD PUSH2 0xD59 JUMP JUMPDEST SWAP5 POP POP PUSH1 0x20 PUSH2 0xDE9 DUP8 DUP3 DUP9 ADD PUSH2 0xD6E JUMP JUMPDEST SWAP4 POP POP PUSH1 0x40 PUSH2 0xDFA DUP8 DUP3 DUP9 ADD PUSH2 0xD6E JUMP JUMPDEST SWAP3 POP POP PUSH1 0x60 PUSH2 0xE0B DUP8 DUP3 DUP9 ADD PUSH2 0xD6E JUMP JUMPDEST SWAP2 POP POP SWAP3 SWAP6 SWAP2 SWAP5 POP SWAP3 POP JUMP JUMPDEST PUSH2 0xE20 DUP2 PUSH2 0x12F2 JUMP JUMPDEST DUP3 MSTORE POP POP JUMP JUMPDEST PUSH2 0xE2F DUP2 PUSH2 0x1298 JUMP JUMPDEST DUP3 MSTORE POP POP JUMP JUMPDEST PUSH2 0xE3E DUP2 PUSH2 0x1286 JUMP JUMPDEST DUP3 MSTORE POP POP JUMP JUMPDEST PUSH2 0xE4D DUP2 PUSH2 0x12AA JUMP JUMPDEST DUP3 MSTORE POP POP JUMP JUMPDEST PUSH2 0xE5C DUP2 PUSH2 0x1304 JUMP JUMPDEST DUP3 MSTORE POP POP JUMP JUMPDEST PUSH1 0x0 PUSH2 0xE6F PUSH1 0x19 DUP4 PUSH2 0x121F JUMP JUMPDEST SWAP2 POP PUSH2 0xE7A DUP3 PUSH2 0x136E JUMP JUMPDEST PUSH1 0x20 DUP3 ADD SWAP1 POP SWAP2 SWAP1 POP JUMP JUMPDEST PUSH1 0x0 PUSH2 0xE92 PUSH1 0x10 DUP4 PUSH2 0x121F JUMP JUMPDEST SWAP2 POP PUSH2 0xE9D DUP3 PUSH2 0x1397 JUMP JUMPDEST PUSH1 0x20 DUP3 ADD SWAP1 POP SWAP2 SWAP1 POP JUMP JUMPDEST PUSH1 0x0 PUSH2 0xEB5 PUSH1 0x6 DUP4 PUSH2 0x121F JUMP JUMPDEST SWAP2 POP PUSH2 0xEC0 DUP3 PUSH2 0x13C0 JUMP JUMPDEST PUSH1 0x20 DUP3 ADD SWAP1 POP SWAP2 SWAP1 POP JUMP JUMPDEST PUSH1 0x0 PUSH2 0xED8 PUSH1 0x1E DUP4 PUSH2 0x121F JUMP JUMPDEST SWAP2 POP PUSH2 0xEE3 DUP3 PUSH2 0x13E9 JUMP JUMPDEST PUSH1 0x20 DUP3 ADD SWAP1 POP SWAP2 SWAP1 POP JUMP JUMPDEST PUSH1 0x0 PUSH2 0xEFB PUSH1 0x15 DUP4 PUSH2 0x121F JUMP JUMPDEST SWAP2 POP PUSH2 0xF06 DUP3 PUSH2 0x1412 JUMP JUMPDEST PUSH1 0x20 DUP3 ADD SWAP1 POP SWAP2 SWAP1 POP JUMP JUMPDEST PUSH1 0x0 PUSH2 0xF1E PUSH1 0x18 DUP4 PUSH2 0x121F JUMP JUMPDEST SWAP2 POP PUSH2 0xF29 DUP3 PUSH2 0x143B JUMP JUMPDEST PUSH1 0x20 DUP3 ADD SWAP1 POP SWAP2 SWAP1 POP JUMP JUMPDEST PUSH1 0x0 PUSH2 0xF41 PUSH1 0xC DUP4 PUSH2 0x121F JUMP JUMPDEST SWAP2 POP PUSH2 0xF4C DUP3 PUSH2 0x1464 JUMP JUMPDEST PUSH1 0x20 DUP3 ADD SWAP1 POP SWAP2 SWAP1 POP JUMP JUMPDEST PUSH1 0x0 PUSH2 0xF64 PUSH1 0x0 DUP4 PUSH2 0x1214 JUMP JUMPDEST SWAP2 POP PUSH2 0xF6F DUP3 PUSH2 0x148D JUMP JUMPDEST PUSH1 0x0 DUP3 ADD SWAP1 POP SWAP2 SWAP1 POP JUMP JUMPDEST PUSH1 0x0 PUSH2 0xF87 PUSH1 0x16 DUP4 PUSH2 0x121F JUMP JUMPDEST SWAP2 POP PUSH2 0xF92 DUP3 PUSH2 0x1490 JUMP JUMPDEST PUSH1 0x20 DUP3 ADD SWAP1 POP SWAP2 SWAP1 POP JUMP JUMPDEST PUSH1 0x0 PUSH2 0xFAA PUSH1 0x12 DUP4 PUSH2 0x121F JUMP JUMPDEST SWAP2 POP PUSH2 0xFB5 DUP3 PUSH2 0x14B9 JUMP JUMPDEST PUSH1 0x20 DUP3 ADD SWAP1 POP SWAP2 SWAP1 POP JUMP JUMPDEST PUSH2 0xFC9 DUP2 PUSH2 0x12E8 JUMP JUMPDEST DUP3 MSTORE POP POP JUMP JUMPDEST PUSH1 0x0 PUSH2 0xFDA DUP3 PUSH2 0xF57 JUMP JUMPDEST SWAP2 POP DUP2 SWAP1 POP SWAP2 SWAP1 POP JUMP JUMPDEST PUSH1 0x0 PUSH1 0x20 DUP3 ADD SWAP1 POP PUSH2 0xFF9 PUSH1 0x0 DUP4 ADD DUP5 PUSH2 0xE35 JUMP JUMPDEST SWAP3 SWAP2 POP POP JUMP JUMPDEST PUSH1 0x0 PUSH1 0x20 DUP3 ADD SWAP1 POP PUSH2 0x1014 PUSH1 0x0 DUP4 ADD DUP5 PUSH2 0xE26 JUMP JUMPDEST SWAP3 SWAP2 POP POP JUMP JUMPDEST PUSH1 0x0 PUSH1 0x40 DUP3 ADD SWAP1 POP PUSH2 0x102F PUSH1 0x0 DUP4 ADD DUP6 PUSH2 0xE17 JUMP JUMPDEST PUSH2 0x103C PUSH1 0x20 DUP4 ADD DUP5 PUSH2 0xFC0 JUMP JUMPDEST SWAP4 SWAP3 POP POP POP JUMP JUMPDEST PUSH1 0x0 PUSH1 0x60 DUP3 ADD SWAP1 POP PUSH2 0x1058 PUSH1 0x0 DUP4 ADD DUP7 PUSH2 0xE35 JUMP JUMPDEST PUSH2 0x1065 PUSH1 0x20 DUP4 ADD DUP6 PUSH2 0xE35 JUMP JUMPDEST PUSH2 0x1072 PUSH1 0x40 DUP4 ADD DUP5 PUSH2 0xFC0 JUMP JUMPDEST SWAP5 SWAP4 POP POP POP POP JUMP JUMPDEST PUSH1 0x0 PUSH1 0x40 DUP3 ADD SWAP1 POP PUSH2 0x108F PUSH1 0x0 DUP4 ADD DUP6 PUSH2 0xE35 JUMP JUMPDEST PUSH2 0x109C PUSH1 0x20 DUP4 ADD DUP5 PUSH2 0xFC0 JUMP JUMPDEST SWAP4 SWAP3 POP POP POP JUMP JUMPDEST PUSH1 0x0 PUSH1 0x20 DUP3 ADD SWAP1 POP PUSH2 0x10B8 PUSH1 0x0 DUP4 ADD DUP5 PUSH2 0xE44 JUMP JUMPDEST SWAP3 SWAP2 POP POP JUMP JUMPDEST PUSH1 0x0 PUSH1 0x20 DUP3 ADD SWAP1 POP PUSH2 0x10D3 PUSH1 0x0 DUP4 ADD DUP5 PUSH2 0xE53 JUMP JUMPDEST SWAP3 SWAP2 POP POP JUMP JUMPDEST PUSH1 0x0 PUSH1 0x20 DUP3 ADD SWAP1 POP DUP2 DUP2 SUB PUSH1 0x0 DUP4 ADD MSTORE PUSH2 0x10F2 DUP2 PUSH2 0xE62 JUMP JUMPDEST SWAP1 POP SWAP2 SWAP1 POP JUMP JUMPDEST PUSH1 0x0 PUSH1 0x20 DUP3 ADD SWAP1 POP DUP2 DUP2 SUB PUSH1 0x0 DUP4 ADD MSTORE PUSH2 0x1112 DUP2 PUSH2 0xE85 JUMP JUMPDEST SWAP1 POP SWAP2 SWAP1 POP JUMP JUMPDEST PUSH1 0x0 PUSH1 0x20 DUP3 ADD SWAP1 POP DUP2 DUP2 SUB PUSH1 0x0 DUP4 ADD MSTORE PUSH2 0x1132 DUP2 PUSH2 0xEA8 JUMP JUMPDEST SWAP1 POP SWAP2 SWAP1 POP JUMP JUMPDEST PUSH1 0x0 PUSH1 0x20 DUP3 ADD SWAP1 POP DUP2 DUP2 SUB PUSH1 0x0 DUP4 ADD MSTORE PUSH2 0x1152 DUP2 PUSH2 0xECB JUMP JUMPDEST SWAP1 POP SWAP2 SWAP1 POP JUMP JUMPDEST PUSH1 0x0 PUSH1 0x20 DUP3 ADD SWAP1 POP DUP2 DUP2 SUB PUSH1 0x0 DUP4 ADD MSTORE PUSH2 0x1172 DUP2 PUSH2 0xEEE JUMP JUMPDEST SWAP1 POP SWAP2 SWAP1 POP JUMP JUMPDEST PUSH1 0x0 PUSH1 0x20 DUP3 ADD SWAP1 POP DUP2 DUP2 SUB PUSH1 0x0 DUP4 ADD MSTORE PUSH2 0x1192 DUP2 PUSH2 0xF11 JUMP JUMPDEST SWAP1 POP SWAP2 SWAP1 POP JUMP JUMPDEST PUSH1 0x0 PUSH1 0x20 DUP3 ADD SWAP1 POP DUP2 DUP2 SUB PUSH1 0x0 DUP4 ADD MSTORE PUSH2 0x11B2 DUP2 PUSH2 0xF34 JUMP JUMPDEST SWAP1 POP SWAP2 SWAP1 POP JUMP JUMPDEST PUSH1 0x0 PUSH1 0x20 DUP3 ADD SWAP1 POP DUP2 DUP2 SUB PUSH1 0x0 DUP4 ADD MSTORE PUSH2 0x11D2 DUP2 PUSH2 0xF7A JUMP JUMPDEST SWAP1 POP SWAP2 SWAP1 POP JUMP JUMPDEST PUSH1 0x0 PUSH1 0x20 DUP3 ADD SWAP1 POP DUP2 DUP2 SUB PUSH1 0x0 DUP4 ADD MSTORE PUSH2 0x11F2 DUP2 PUSH2 0xF9D JUMP JUMPDEST SWAP1 POP SWAP2 SWAP1 POP JUMP JUMPDEST PUSH1 0x0 PUSH1 0x20 DUP3 ADD SWAP1 POP PUSH2 0x120E PUSH1 0x0 DUP4 ADD DUP5 PUSH2 0xFC0 JUMP JUMPDEST SWAP3 SWAP2 POP POP JUMP JUMPDEST PUSH1 0x0 DUP2 SWAP1 POP SWAP3 SWAP2 POP POP JUMP JUMPDEST PUSH1 0x0 DUP3 DUP3 MSTORE PUSH1 0x20 DUP3 ADD SWAP1 POP SWAP3 SWAP2 POP POP JUMP JUMPDEST PUSH1 0x0 PUSH2 0x123B DUP3 PUSH2 0x12E8 JUMP JUMPDEST SWAP2 POP PUSH2 0x1246 DUP4 PUSH2 0x12E8 JUMP JUMPDEST SWAP3 POP DUP3 PUSH32 0xFFFFFFFFFFFFFFFFFFFFFFFFFFFFFFFFFFFFFFFFFFFFFFFFFFFFFFFFFFFFFFFF SUB DUP3 GT ISZERO PUSH2 0x127B JUMPI PUSH2 0x127A PUSH2 0x133A JUMP JUMPDEST JUMPDEST DUP3 DUP3 ADD SWAP1 POP SWAP3 SWAP2 POP POP JUMP JUMPDEST PUSH1 0x0 PUSH2 0x1291 DUP3 PUSH2 0x12C8 JUMP JUMPDEST SWAP1 POP SWAP2 SWAP1 POP JUMP JUMPDEST PUSH1 0x0 PUSH2 0x12A3 DUP3 PUSH2 0x12C8 JUMP JUMPDEST SWAP1 POP SWAP2 SWAP1 POP JUMP JUMPDEST PUSH1 0x0 DUP2 ISZERO ISZERO SWAP1 POP SWAP2 SWAP1 POP JUMP JUMPDEST PUSH1 0x0 PUSH2 0x12C1 DUP3 PUSH2 0x1286 JUMP JUMPDEST SWAP1 POP SWAP2 SWAP1 POP JUMP JUMPDEST PUSH1 0x0 PUSH20 0xFFFFFFFFFFFFFFFFFFFFFFFFFFFFFFFFFFFFFFFF DUP3 AND SWAP1 POP SWAP2 SWAP1 POP JUMP JUMPDEST PUSH1 0x0 DUP2 SWAP1 POP SWAP2 SWAP1 POP JUMP JUMPDEST PUSH1 0x0 PUSH2 0x12FD DUP3 PUSH2 0x1316 JUMP JUMPDEST SWAP1 POP SWAP2 SWAP1 POP JUMP JUMPDEST PUSH1 0x0 PUSH2 0x130F DUP3 PUSH2 0x1316 JUMP JUMPDEST SWAP1 POP SWAP2 SWAP1 POP JUMP JUMPDEST PUSH1 0x0 PUSH2 0x1321 DUP3 PUSH2 0x1328 JUMP JUMPDEST SWAP1 POP SWAP2 SWAP1 POP JUMP JUMPDEST PUSH1 0x0 PUSH2 0x1333 DUP3 PUSH2 0x12C8 JUMP JUMPDEST SWAP1 POP SWAP2 SWAP1 POP JUMP JUMPDEST PUSH32 0x4E487B7100000000000000000000000000000000000000000000000000000000 PUSH1 0x0 MSTORE PUSH1 0x11 PUSH1 0x4 MSTORE PUSH1 0x24 PUSH1 0x0 REVERT JUMPDEST PUSH1 0x0 DUP1 REVERT JUMPDEST PUSH32 0x41756374696F6E206973207374696C6C206F6E676F696E672100000000000000 PUSH1 0x0 DUP3 ADD MSTORE POP JUMP JUMPDEST PUSH32 0x416C726561647920737461727465642100000000000000000000000000000000 PUSH1 0x0 DUP3 ADD MSTORE POP JUMP JUMPDEST PUSH32 0x456E646564210000000000000000000000000000000000000000000000000000 PUSH1 0x0 DUP3 ADD MSTORE POP JUMP JUMPDEST PUSH32 0x596F7520646964206E6F74207374617274207468652061756374696F6E210000 PUSH1 0x0 DUP3 ADD MSTORE POP JUMP JUMPDEST PUSH32 0x436F756C64206E6F74207061792073656C6C6572210000000000000000000000 PUSH1 0x0 DUP3 ADD MSTORE POP JUMP JUMPDEST PUSH32 0x596F75206E65656420746F207374617274206669727374210000000000000000 PUSH1 0x0 DUP3 ADD MSTORE POP JUMP JUMPDEST PUSH32 0x4E6F7420737461727465642E0000000000000000000000000000000000000000 PUSH1 0x0 DUP3 ADD MSTORE POP JUMP JUMPDEST POP JUMP JUMPDEST PUSH32 0x41756374696F6E20616C726561647920656E6465642100000000000000000000 PUSH1 0x0 DUP3 ADD MSTORE POP JUMP JUMPDEST PUSH32 0x436F756C64206E6F742077697468647261770000000000000000000000000000 PUSH1 0x0 DUP3 ADD MSTORE POP JUMP JUMPDEST PUSH2 0x14EB DUP2 PUSH2 0x1286 JUMP JUMPDEST DUP2 EQ PUSH2 0x14F6 JUMPI PUSH1 0x0 DUP1 REVERT JUMPDEST POP JUMP JUMPDEST PUSH2 0x1502 DUP2 PUSH2 0x12B6 JUMP JUMPDEST DUP2 EQ PUSH2 0x150D JUMPI PUSH1 0x0 DUP1 REVERT JUMPDEST POP JUMP JUMPDEST PUSH2 0x1519 DUP2 PUSH2 0x12E8 JUMP JUMPDEST DUP2 EQ PUSH2 0x1524 JUMPI PUSH1 0x0 DUP1 REVERT JUMPDEST POP JUMP INVALID LOG2 PUSH5 0x6970667358 0x22 SLT KECCAK256 DIV STATICCALL 0xA9 NUMBER 0xA9 SMOD 0x28 PUSH8 0x2AD5705000F37711 0xED ADD 0x1F 0xB7 CALLDATALOAD DUP8 DIV PUSH23 0x4B58CBE36B502CAB64736F6C6343000807003300000000 "
				},
				"gasEstimates": {
					"creation": {
						"codeDepositCost": "1093800",
						"executionCost": "25400",
						"totalCost": "1119200"
					},
					"external": {
						"bid()": "infinite",
						"bids(address)": "2837",
						"end()": "infinite",
						"endAt()": "2474",
						"ended()": "2544",
						"highestBid()": "2495",
						"highestBidder()": "2581",
						"nft()": "2711",
						"nftId()": "2473",
						"seller()": "2512",
						"start(address,uint256,uint256,uint256)": "infinite",
						"started()": "2588",
						"withdraw()": "infinite"
					}
				},
				"methodIdentifiers": {
					"bid()": "1998aeef",
					"bids(address)": "62ea82db",
					"end()": "efbe1c1c",
					"endAt()": "7cc3ae8c",
					"ended()": "12fa6feb",
					"highestBid()": "d57bde79",
					"highestBidder()": "91f90157",
					"nft()": "47ccca02",
					"nftId()": "c6bc5182",
					"seller()": "08551a53",
					"start(address,uint256,uint256,uint256)": "b76a3b5a",
					"started()": "1f2698ab",
					"withdraw()": "3ccfd60b"
				}
			},
			"storageLayout": {
				"storage": [
					{
						"astId": 42,
						"contract": "Bid.sol:Auction",
						"label": "seller",
						"offset": 0,
						"slot": "0",
						"type": "t_address_payable"
					},
					{
						"astId": 44,
						"contract": "Bid.sol:Auction",
						"label": "started",
						"offset": 20,
						"slot": "0",
						"type": "t_bool"
					},
					{
						"astId": 46,
						"contract": "Bid.sol:Auction",
						"label": "ended",
						"offset": 21,
						"slot": "0",
						"type": "t_bool"
					},
					{
						"astId": 48,
						"contract": "Bid.sol:Auction",
						"label": "endAt",
						"offset": 0,
						"slot": "1",
						"type": "t_uint256"
					},
					{
						"astId": 51,
						"contract": "Bid.sol:Auction",
						"label": "nft",
						"offset": 0,
						"slot": "2",
						"type": "t_contract(IERC721)18"
					},
					{
						"astId": 53,
						"contract": "Bid.sol:Auction",
						"label": "nftId",
						"offset": 0,
						"slot": "3",
						"type": "t_uint256"
					},
					{
						"astId": 55,
						"contract": "Bid.sol:Auction",
						"label": "highestBid",
						"offset": 0,
						"slot": "4",
						"type": "t_uint256"
					},
					{
						"astId": 57,
						"contract": "Bid.sol:Auction",
						"label": "highestBidder",
						"offset": 0,
						"slot": "5",
						"type": "t_address"
					},
					{
						"astId": 61,
						"contract": "Bid.sol:Auction",
						"label": "bids",
						"offset": 0,
						"slot": "6",
						"type": "t_mapping(t_address,t_uint256)"
					}
				],
				"types": {
					"t_address": {
						"encoding": "inplace",
						"label": "address",
						"numberOfBytes": "20"
					},
					"t_address_payable": {
						"encoding": "inplace",
						"label": "address payable",
						"numberOfBytes": "20"
					},
					"t_bool": {
						"encoding": "inplace",
						"label": "bool",
						"numberOfBytes": "1"
					},
					"t_contract(IERC721)18": {
						"encoding": "inplace",
						"label": "contract IERC721",
						"numberOfBytes": "20"
					},
					"t_mapping(t_address,t_uint256)": {
						"encoding": "mapping",
						"key": "t_address",
						"label": "mapping(address => uint256)",
						"numberOfBytes": "32",
						"value": "t_uint256"
					},
					"t_uint256": {
						"encoding": "inplace",
						"label": "uint256",
						"numberOfBytes": "32"
					}
				}
			},
			"userdoc": {
				"kind": "user",
				"methods": {},
				"version": 1
			}
		}
	}
}