{
	"ERC721.sol": {
		"MXRT": {
			"abi": [
				{
					"inputs": [],
					"stateMutability": "nonpayable",
					"type": "constructor"
				},
				{
					"anonymous": false,
					"inputs": [
						{
							"indexed": true,
							"internalType": "address",
							"name": "owner",
							"type": "address"
						},
						{
							"indexed": true,
							"internalType": "address",
							"name": "approved",
							"type": "address"
						},
						{
							"indexed": true,
							"internalType": "uint256",
							"name": "tokenId",
							"type": "uint256"
						}
					],
					"name": "Approval",
					"type": "event"
				},
				{
					"anonymous": false,
					"inputs": [
						{
							"indexed": true,
							"internalType": "address",
							"name": "owner",
							"type": "address"
						},
						{
							"indexed": true,
							"internalType": "address",
							"name": "operator",
							"type": "address"
						},
						{
							"indexed": false,
							"internalType": "bool",
							"name": "approved",
							"type": "bool"
						}
					],
					"name": "ApprovalForAll",
					"type": "event"
				},
				{
					"anonymous": false,
					"inputs": [
						{
							"indexed": true,
							"internalType": "address",
							"name": "from",
							"type": "address"
						},
						{
							"indexed": true,
							"internalType": "address",
							"name": "to",
							"type": "address"
						},
						{
							"indexed": true,
							"internalType": "uint256",
							"name": "tokenId",
							"type": "uint256"
						}
					],
					"name": "Transfer",
					"type": "event"
				},
				{
					"inputs": [
						{
							"internalType": "address",
							"name": "to",
							"type": "address"
						},
						{
							"internalType": "uint256",
							"name": "tokenId",
							"type": "uint256"
						}
					],
					"name": "approve",
					"outputs": [],
					"stateMutability": "nonpayable",
					"type": "function"
				},
				{
					"inputs": [
						{
							"internalType": "address",
							"name": "owner",
							"type": "address"
						}
					],
					"name": "balanceOf",
					"outputs": [
						{
							"internalType": "uint256",
							"name": "",
							"type": "uint256"
						}
					],
					"stateMutability": "view",
					"type": "function"
				},
				{
					"inputs": [
						{
							"internalType": "uint256",
							"name": "tokenId",
							"type": "uint256"
						},
						{
							"internalType": "string",
							"name": "uri",
							"type": "string"
						}
					],
					"name": "create",
					"outputs": [],
					"stateMutability": "nonpayable",
					"type": "function"
				},
				{
					"inputs": [
						{
							"internalType": "uint256",
							"name": "tokenId",
							"type": "uint256"
						}
					],
					"name": "getApproved",
					"outputs": [
						{
							"internalType": "address",
							"name": "",
							"type": "address"
						}
					],
					"stateMutability": "view",
					"type": "function"
				},
				{
					"inputs": [
						{
							"internalType": "address",
							"name": "owner",
							"type": "address"
						},
						{
							"internalType": "address",
							"name": "operator",
							"type": "address"
						}
					],
					"name": "isApprovedForAll",
					"outputs": [
						{
							"internalType": "bool",
							"name": "",
							"type": "bool"
						}
					],
					"stateMutability": "view",
					"type": "function"
				},
				{
					"inputs": [],
					"name": "name",
					"outputs": [
						{
							"internalType": "string",
							"name": "",
							"type": "string"
						}
					],
					"stateMutability": "view",
					"type": "function"
				},
				{
					"inputs": [
						{
							"internalType": "uint256",
							"name": "tokenId",
							"type": "uint256"
						}
					],
					"name": "ownerOf",
					"outputs": [
						{
							"internalType": "address",
							"name": "",
							"type": "address"
						}
					],
					"stateMutability": "view",
					"type": "function"
				},
				{
					"inputs": [
						{
							"internalType": "address",
							"name": "from",
							"type": "address"
						},
						{
							"internalType": "address",
							"name": "to",
							"type": "address"
						},
						{
							"internalType": "uint256",
							"name": "tokenId",
							"type": "uint256"
						}
					],
					"name": "safeTransferFrom",
					"outputs": [],
					"stateMutability": "nonpayable",
					"type": "function"
				},
				{
					"inputs": [
						{
							"internalType": "address",
							"name": "from",
							"type": "address"
						},
						{
							"internalType": "address",
							"name": "to",
							"type": "address"
						},
						{
							"internalType": "uint256",
							"name": "tokenId",
							"type": "uint256"
						},
						{
							"internalType": "bytes",
							"name": "data",
							"type": "bytes"
						}
					],
					"name": "safeTransferFrom",
					"outputs": [],
					"stateMutability": "nonpayable",
					"type": "function"
				},
				{
					"inputs": [
						{
							"internalType": "address",
							"name": "operator",
							"type": "address"
						},
						{
							"internalType": "bool",
							"name": "approved",
							"type": "bool"
						}
					],
					"name": "setApprovalForAll",
					"outputs": [],
					"stateMutability": "nonpayable",
					"type": "function"
				},
				{
					"inputs": [
						{
							"internalType": "bytes4",
							"name": "interfaceId",
							"type": "bytes4"
						}
					],
					"name": "supportsInterface",
					"outputs": [
						{
							"internalType": "bool",
							"name": "",
							"type": "bool"
						}
					],
					"stateMutability": "pure",
					"type": "function"
				},
				{
					"inputs": [],
					"name": "symbol",
					"outputs": [
						{
							"internalType": "string",
							"name": "",
							"type": "string"
						}
					],
					"stateMutability": "view",
					"type": "function"
				},
				{
					"inputs": [
						{
							"internalType": "uint256",
							"name": "index",
							"type": "uint256"
						}
					],
					"name": "tokenByIndex",
					"outputs": [
						{
							"internalType": "uint256",
							"name": "",
							"type": "uint256"
						}
					],
					"stateMutability": "view",
					"type": "function"
				},
				{
					"inputs": [
						{
							"internalType": "address",
							"name": "owner",
							"type": "address"
						},
						{
							"internalType": "uint256",
							"name": "index",
							"type": "uint256"
						}
					],
					"name": "tokenOfOwnerByIndex",
					"outputs": [
						{
							"internalType": "uint256",
							"name": "",
							"type": "uint256"
						}
					],
					"stateMutability": "view",
					"type": "function"
				},
				{
					"inputs": [
						{
							"internalType": "uint256",
							"name": "tokenId",
							"type": "uint256"
						}
					],
					"name": "tokenURI",
					"outputs": [
						{
							"internalType": "string",
							"name": "",
							"type": "string"
						}
					],
					"stateMutability": "view",
					"type": "function"
				},
				{
					"inputs": [],
					"name": "totalSupply",
					"outputs": [
						{
							"internalType": "uint256",
							"name": "",
							"type": "uint256"
						}
					],
					"stateMutability": "view",
					"type": "function"
				},
				{
					"inputs": [
						{
							"internalType": "address",
							"name": "from",
							"type": "address"
						},
						{
							"internalType": "address",
							"name": "to",
							"type": "address"
						},
						{
							"internalType": "uint256",
							"name": "tokenId",
							"type": "uint256"
						}
					],
					"name": "transferFrom",
					"outputs": [],
					"stateMutability": "nonpayable",
					"type": "function"
				},
				{
					"inputs": [
						{
							"internalType": "uint256",
							"name": "tokenId",
							"type": "uint256"
						}
					],
					"name": "uri",
					"outputs": [
						{
							"internalType": "string",
							"name": "",
							"type": "string"
						}
					],
					"stateMutability": "view",
					"type": "function"
				}
			],
			"devdoc": {
				"kind": "dev",
				"methods": {},
				"version": 1
			},
			"evm": {
				"assembly": "    /* \"ERC721.sol\":10267:10582  contract MXRT is ERC721 {\r... */\n  mstore(0x40, 0x80)\n    /* \"ERC721.sol\":10321:10408  constructor() ERC721(\"MXR Collectibles\", \"MXRT\") {\r... */\n  callvalue\n  dup1\n  iszero\n  tag_1\n  jumpi\n  0x00\n  dup1\n  revert\ntag_1:\n  pop\n    /* \"ERC721.sol\":2533:2650  constructor (string memory name_, string memory symbol_) {\r... */\n  mload(0x40)\n  dup1\n  0x40\n  add\n  0x40\n  mstore\n  dup1\n  0x10\n  dup2\n  mstore\n  0x20\n  add\n  0x4d585220436f6c6c65637469626c657300000000000000000000000000000000\n  dup2\n  mstore\n  pop\n  mload(0x40)\n  dup1\n  0x40\n  add\n  0x40\n  mstore\n  dup1\n  0x04\n  dup2\n  mstore\n  0x20\n  add\n  0x4d58525400000000000000000000000000000000000000000000000000000000\n  dup2\n  mstore\n  pop\n    /* \"ERC721.sol\":2609:2614  name_ */\n  dup2\n    /* \"ERC721.sol\":2601:2606  _name */\n  0x04\n    /* \"ERC721.sol\":2601:2614  _name = name_ */\n  swap1\n  dup1\n  mload\n  swap1\n  0x20\n  add\n  swap1\n  tag_5\n  swap3\n  swap2\n  swap1\n  tag_6\n  jump\t// in\ntag_5:\n  pop\n    /* \"ERC721.sol\":2635:2642  symbol_ */\n  dup1\n    /* \"ERC721.sol\":2625:2632  _symbol */\n  0x05\n    /* \"ERC721.sol\":2625:2642  _symbol = symbol_ */\n  swap1\n  dup1\n  mload\n  swap1\n  0x20\n  add\n  swap1\n  tag_7\n  swap3\n  swap2\n  swap1\n  tag_6\n  jump\t// in\ntag_7:\n  pop\n    /* \"ERC721.sol\":2533:2650  constructor (string memory name_, string memory symbol_) {\r... */\n  pop\n  pop\n    /* \"ERC721.sol\":10390:10400  msg.sender */\n  caller\n    /* \"ERC721.sol\":10381:10387  _admin */\n  0x0b\n  0x00\n    /* \"ERC721.sol\":10381:10400  _admin = msg.sender */\n  0x0100\n  exp\n  dup2\n  sload\n  dup2\n  0xffffffffffffffffffffffffffffffffffffffff\n  mul\n  not\n  and\n  swap1\n  dup4\n  0xffffffffffffffffffffffffffffffffffffffff\n  and\n  mul\n  or\n  swap1\n  sstore\n  pop\n    /* \"ERC721.sol\":10267:10582  contract MXRT is ERC721 {\r... */\n  jump(tag_9)\ntag_6:\n  dup3\n  dup1\n  sload\n  tag_10\n  swap1\n  tag_11\n  jump\t// in\ntag_10:\n  swap1\n  0x00\n  mstore\n  keccak256(0x00, 0x20)\n  swap1\n  0x1f\n  add\n  0x20\n  swap1\n  div\n  dup2\n  add\n  swap3\n  dup3\n  tag_13\n  jumpi\n  0x00\n  dup6\n  sstore\n  jump(tag_12)\ntag_13:\n  dup3\n  0x1f\n  lt\n  tag_14\n  jumpi\n  dup1\n  mload\n  not(0xff)\n  and\n  dup4\n  dup1\n  add\n  or\n  dup6\n  sstore\n  jump(tag_12)\ntag_14:\n  dup3\n  dup1\n  add\n  0x01\n  add\n  dup6\n  sstore\n  dup3\n  iszero\n  tag_12\n  jumpi\n  swap2\n  dup3\n  add\ntag_15:\n  dup3\n  dup2\n  gt\n  iszero\n  tag_16\n  jumpi\n  dup3\n  mload\n  dup3\n  sstore\n  swap2\n  0x20\n  add\n  swap2\n  swap1\n  0x01\n  add\n  swap1\n  jump(tag_15)\ntag_16:\ntag_12:\n  pop\n  swap1\n  pop\n  tag_17\n  swap2\n  swap1\n  tag_18\n  jump\t// in\ntag_17:\n  pop\n  swap1\n  jump\t// out\ntag_18:\ntag_19:\n  dup1\n  dup3\n  gt\n  iszero\n  tag_20\n  jumpi\n  0x00\n  dup2\n  0x00\n  swap1\n  sstore\n  pop\n  0x01\n  add\n  jump(tag_19)\ntag_20:\n  pop\n  swap1\n  jump\t// out\n    /* \"#utility.yul\":7:327   */\ntag_11:\n    /* \"#utility.yul\":51:57   */\n  0x00\n    /* \"#utility.yul\":88:89   */\n  0x02\n    /* \"#utility.yul\":82:86   */\n  dup3\n    /* \"#utility.yul\":78:90   */\n  div\n    /* \"#utility.yul\":68:90   */\n  swap1\n  pop\n    /* \"#utility.yul\":135:136   */\n  0x01\n    /* \"#utility.yul\":129:133   */\n  dup3\n    /* \"#utility.yul\":125:137   */\n  and\n    /* \"#utility.yul\":156:174   */\n  dup1\n    /* \"#utility.yul\":146:227   */\n  tag_23\n  jumpi\n    /* \"#utility.yul\":212:216   */\n  0x7f\n    /* \"#utility.yul\":204:210   */\n  dup3\n    /* \"#utility.yul\":200:217   */\n  and\n    /* \"#utility.yul\":190:217   */\n  swap2\n  pop\n    /* \"#utility.yul\":146:227   */\ntag_23:\n    /* \"#utility.yul\":274:276   */\n  0x20\n    /* \"#utility.yul\":266:272   */\n  dup3\n    /* \"#utility.yul\":263:277   */\n  lt\n    /* \"#utility.yul\":243:261   */\n  dup2\n    /* \"#utility.yul\":240:278   */\n  eq\n    /* \"#utility.yul\":237:321   */\n  iszero\n  tag_24\n  jumpi\n    /* \"#utility.yul\":293:311   */\n  tag_25\n  tag_26\n  jump\t// in\ntag_25:\n    /* \"#utility.yul\":237:321   */\ntag_24:\n    /* \"#utility.yul\":58:327   */\n  pop\n    /* \"#utility.yul\":7:327   */\n  swap2\n  swap1\n  pop\n  jump\t// out\n    /* \"#utility.yul\":333:513   */\ntag_26:\n    /* \"#utility.yul\":381:458   */\n  0x4e487b7100000000000000000000000000000000000000000000000000000000\n    /* \"#utility.yul\":378:379   */\n  0x00\n    /* \"#utility.yul\":371:459   */\n  mstore\n    /* \"#utility.yul\":478:482   */\n  0x22\n    /* \"#utility.yul\":475:476   */\n  0x04\n    /* \"#utility.yul\":468:483   */\n  mstore\n    /* \"#utility.yul\":502:506   */\n  0x24\n    /* \"#utility.yul\":499:500   */\n  0x00\n    /* \"#utility.yul\":492:507   */\n  revert\n    /* \"ERC721.sol\":10267:10582  contract MXRT is ERC721 {\r... */\ntag_9:\n  dataSize(sub_0)\n  dup1\n  dataOffset(sub_0)\n  0x00\n  codecopy\n  0x00\n  return\nstop\n\nsub_0: assembly {\n        /* \"ERC721.sol\":10267:10582  contract MXRT is ERC721 {\r... */\n      mstore(0x40, 0x80)\n      callvalue\n      dup1\n      iszero\n      tag_1\n      jumpi\n      0x00\n      dup1\n      revert\n    tag_1:\n      pop\n      jumpi(tag_2, lt(calldatasize, 0x04))\n      shr(0xe0, calldataload(0x00))\n      dup1\n      0x42842e0e\n      gt\n      tag_21\n      jumpi\n      dup1\n      0x95d89b41\n      gt\n      tag_22\n      jumpi\n      dup1\n      0x95d89b41\n      eq\n      tag_16\n      jumpi\n      dup1\n      0xa22cb465\n      eq\n      tag_17\n      jumpi\n      dup1\n      0xb88d4fde\n      eq\n      tag_18\n      jumpi\n      dup1\n      0xc87b56dd\n      eq\n      tag_19\n      jumpi\n      dup1\n      0xe985e9c5\n      eq\n      tag_20\n      jumpi\n      jump(tag_2)\n    tag_22:\n      dup1\n      0x42842e0e\n      eq\n      tag_12\n      jumpi\n      dup1\n      0x4f6ccce7\n      eq\n      tag_13\n      jumpi\n      dup1\n      0x6352211e\n      eq\n      tag_14\n      jumpi\n      dup1\n      0x70a08231\n      eq\n      tag_15\n      jumpi\n      jump(tag_2)\n    tag_21:\n      dup1\n      0x095ea7b3\n      gt\n      tag_23\n      jumpi\n      dup1\n      0x095ea7b3\n      eq\n      tag_7\n      jumpi\n      dup1\n      0x0e89341c\n      eq\n      tag_8\n      jumpi\n      dup1\n      0x18160ddd\n      eq\n      tag_9\n      jumpi\n      dup1\n      0x23b872dd\n      eq\n      tag_10\n      jumpi\n      dup1\n      0x2f745c59\n      eq\n      tag_11\n      jumpi\n      jump(tag_2)\n    tag_23:\n      dup1\n      0x0118fa49\n      eq\n      tag_3\n      jumpi\n      dup1\n      0x01ffc9a7\n      eq\n      tag_4\n      jumpi\n      dup1\n      0x06fdde03\n      eq\n      tag_5\n      jumpi\n      dup1\n      0x081812fc\n      eq\n      tag_6\n      jumpi\n    tag_2:\n      0x00\n      dup1\n      revert\n        /* \"ERC721.sol\":10416:10579  function create(uint tokenId, string memory uri) public {\r... */\n    tag_3:\n      tag_24\n      0x04\n      dup1\n      calldatasize\n      sub\n      dup2\n      add\n      swap1\n      tag_25\n      swap2\n      swap1\n      tag_26\n      jump\t// in\n    tag_25:\n      tag_27\n      jump\t// in\n    tag_24:\n      stop\n        /* \"ERC721.sol\":3121:3530  function supportsInterface(bytes4 interfaceId) public override pure returns (bool) {\r... */\n    tag_4:\n      tag_28\n      0x04\n      dup1\n      calldatasize\n      sub\n      dup2\n      add\n      swap1\n      tag_29\n      swap2\n      swap1\n      tag_30\n      jump\t// in\n    tag_29:\n      tag_31\n      jump\t// in\n    tag_28:\n      mload(0x40)\n      tag_32\n      swap2\n      swap1\n      tag_33\n      jump\t// in\n    tag_32:\n      mload(0x40)\n      dup1\n      swap2\n      sub\n      swap1\n      return\n        /* \"ERC721.sol\":2658:2750  function name() public override view returns (string memory) {\r... */\n    tag_5:\n      tag_34\n      tag_35\n      jump\t// in\n    tag_34:\n      mload(0x40)\n      tag_36\n      swap2\n      swap1\n      tag_37\n      jump\t// in\n    tag_36:\n      mload(0x40)\n      dup1\n      swap2\n      sub\n      swap1\n      return\n        /* \"ERC721.sol\":4733:4935  function getApproved(uint256 tokenId) public override view returns (address) {\r... */\n    tag_6:\n      tag_38\n      0x04\n      dup1\n      calldatasize\n      sub\n      dup2\n      add\n      swap1\n      tag_39\n      swap2\n      swap1\n      tag_40\n      jump\t// in\n    tag_39:\n      tag_41\n      jump\t// in\n    tag_38:\n      mload(0x40)\n      tag_42\n      swap2\n      swap1\n      tag_43\n      jump\t// in\n    tag_42:\n      mload(0x40)\n      dup1\n      swap2\n      sub\n      swap1\n      return\n        /* \"ERC721.sol\":4394:4725  function approve(address to, uint256 tokenId) public override {\r... */\n    tag_7:\n      tag_44\n      0x04\n      dup1\n      calldatasize\n      sub\n      dup2\n      add\n      swap1\n      tag_45\n      swap2\n      swap1\n      tag_46\n      jump\t// in\n    tag_45:\n      tag_47\n      jump\t// in\n    tag_44:\n      stop\n        /* \"ERC721.sol\":2995:3113  function uri(uint256 tokenId) public override view returns (string memory) {\r... */\n    tag_8:\n      tag_48\n      0x04\n      dup1\n      calldatasize\n      sub\n      dup2\n      add\n      swap1\n      tag_49\n      swap2\n      swap1\n      tag_40\n      jump\t// in\n    tag_49:\n      tag_50\n      jump\t// in\n    tag_48:\n      mload(0x40)\n      tag_51\n      swap2\n      swap1\n      tag_37\n      jump\t// in\n    tag_51:\n      mload(0x40)\n      dup1\n      swap2\n      sub\n      swap1\n      return\n        /* \"ERC721.sol\":6115:6220  function totalSupply() public override view returns (uint256) {\r... */\n    tag_9:\n      tag_52\n      tag_53\n      jump\t// in\n    tag_52:\n      mload(0x40)\n      tag_54\n      swap2\n      swap1\n      tag_55\n      jump\t// in\n    tag_54:\n      mload(0x40)\n      dup1\n      swap2\n      sub\n      swap1\n      return\n        /* \"ERC721.sol\":4943:5679  function transferFrom(address from, address to, uint256 tokenId) public override {\r... */\n    tag_10:\n      tag_56\n      0x04\n      dup1\n      calldatasize\n      sub\n      dup2\n      add\n      swap1\n      tag_57\n      swap2\n      swap1\n      tag_58\n      jump\t// in\n    tag_57:\n      tag_59\n      jump\t// in\n    tag_56:\n      stop\n        /* \"ERC721.sol\":6425:6644  function tokenOfOwnerByIndex(address owner, uint256 index) public override view returns (uint256) {\r... */\n    tag_11:\n      tag_60\n      0x04\n      dup1\n      calldatasize\n      sub\n      dup2\n      add\n      swap1\n      tag_61\n      swap2\n      swap1\n      tag_46\n      jump\t// in\n    tag_61:\n      tag_62\n      jump\t// in\n    tag_60:\n      mload(0x40)\n      tag_63\n      swap2\n      swap1\n      tag_55\n      jump\t// in\n    tag_63:\n      mload(0x40)\n      dup1\n      swap2\n      sub\n      swap1\n      return\n        /* \"ERC721.sol\":5964:6107  function safeTransferFrom(address from, address to, uint256 tokenId) public override {\r... */\n    tag_12:\n      tag_64\n      0x04\n      dup1\n      calldatasize\n      sub\n      dup2\n      add\n      swap1\n      tag_65\n      swap2\n      swap1\n      tag_58\n      jump\t// in\n    tag_65:\n      tag_66\n      jump\t// in\n    tag_64:\n      stop\n        /* \"ERC721.sol\":6228:6417  function tokenByIndex(uint256 index) public override view returns (uint256) {\r... */\n    tag_13:\n      tag_67\n      0x04\n      dup1\n      calldatasize\n      sub\n      dup2\n      add\n      swap1\n      tag_68\n      swap2\n      swap1\n      tag_40\n      jump\t// in\n    tag_68:\n      tag_69\n      jump\t// in\n    tag_67:\n      mload(0x40)\n      tag_70\n      swap2\n      swap1\n      tag_55\n      jump\t// in\n    tag_70:\n      mload(0x40)\n      dup1\n      swap2\n      sub\n      swap1\n      return\n        /* \"ERC721.sol\":3727:3936  function ownerOf(uint256 tokenId) public override view returns (address) {\r... */\n    tag_14:\n      tag_71\n      0x04\n      dup1\n      calldatasize\n      sub\n      dup2\n      add\n      swap1\n      tag_72\n      swap2\n      swap1\n      tag_40\n      jump\t// in\n    tag_72:\n      tag_73\n      jump\t// in\n    tag_71:\n      mload(0x40)\n      tag_74\n      swap2\n      swap1\n      tag_43\n      jump\t// in\n    tag_74:\n      mload(0x40)\n      dup1\n      swap2\n      sub\n      swap1\n      return\n        /* \"ERC721.sol\":3538:3719  function balanceOf(address owner) public override view returns (uint256) {\r... */\n    tag_15:\n      tag_75\n      0x04\n      dup1\n      calldatasize\n      sub\n      dup2\n      add\n      swap1\n      tag_76\n      swap2\n      swap1\n      tag_77\n      jump\t// in\n    tag_76:\n      tag_78\n      jump\t// in\n    tag_75:\n      mload(0x40)\n      tag_79\n      swap2\n      swap1\n      tag_55\n      jump\t// in\n    tag_79:\n      mload(0x40)\n      dup1\n      swap2\n      sub\n      swap1\n      return\n        /* \"ERC721.sol\":2758:2854  function symbol() public override view returns (string memory) {\r... */\n    tag_16:\n      tag_80\n      tag_81\n      jump\t// in\n    tag_80:\n      mload(0x40)\n      tag_82\n      swap2\n      swap1\n      tag_37\n      jump\t// in\n    tag_82:\n      mload(0x40)\n      dup1\n      swap2\n      sub\n      swap1\n      return\n        /* \"ERC721.sol\":3944:4222  function setApprovalForAll(address operator, bool approved) public override {\r... */\n    tag_17:\n      tag_83\n      0x04\n      dup1\n      calldatasize\n      sub\n      dup2\n      add\n      swap1\n      tag_84\n      swap2\n      swap1\n      tag_85\n      jump\t// in\n    tag_84:\n      tag_86\n      jump\t// in\n    tag_83:\n      stop\n        /* \"ERC721.sol\":5687:5956  function safeTransferFrom(address from, address to, uint256 tokenId, bytes memory data) public override {\r... */\n    tag_18:\n      tag_87\n      0x04\n      dup1\n      calldatasize\n      sub\n      dup2\n      add\n      swap1\n      tag_88\n      swap2\n      swap1\n      tag_89\n      jump\t// in\n    tag_88:\n      tag_90\n      jump\t// in\n    tag_87:\n      stop\n        /* \"ERC721.sol\":2862:2987  function tokenURI(uint256 tokenId) public override view returns (string memory) {\r... */\n    tag_19:\n      tag_91\n      0x04\n      dup1\n      calldatasize\n      sub\n      dup2\n      add\n      swap1\n      tag_92\n      swap2\n      swap1\n      tag_40\n      jump\t// in\n    tag_92:\n      tag_93\n      jump\t// in\n    tag_91:\n      mload(0x40)\n      tag_94\n      swap2\n      swap1\n      tag_37\n      jump\t// in\n    tag_94:\n      mload(0x40)\n      dup1\n      swap2\n      sub\n      swap1\n      return\n        /* \"ERC721.sol\":4230:4386  function isApprovedForAll(address owner, address operator) public override view returns (bool) {\r... */\n    tag_20:\n      tag_95\n      0x04\n      dup1\n      calldatasize\n      sub\n      dup2\n      add\n      swap1\n      tag_96\n      swap2\n      swap1\n      tag_97\n      jump\t// in\n    tag_96:\n      tag_98\n      jump\t// in\n    tag_95:\n      mload(0x40)\n      tag_99\n      swap2\n      swap1\n      tag_33\n      jump\t// in\n    tag_99:\n      mload(0x40)\n      dup1\n      swap2\n      sub\n      swap1\n      return\n        /* \"ERC721.sol\":10416:10579  function create(uint tokenId, string memory uri) public {\r... */\n    tag_27:\n        /* \"ERC721.sol\":10505:10511  _admin */\n      0x0b\n      0x00\n      swap1\n      sload\n      swap1\n      0x0100\n      exp\n      swap1\n      div\n      0xffffffffffffffffffffffffffffffffffffffff\n      and\n        /* \"ERC721.sol\":10491:10511  msg.sender == _admin */\n      0xffffffffffffffffffffffffffffffffffffffff\n      and\n        /* \"ERC721.sol\":10491:10501  msg.sender */\n      caller\n        /* \"ERC721.sol\":10491:10511  msg.sender == _admin */\n      0xffffffffffffffffffffffffffffffffffffffff\n      and\n      eq\n        /* \"ERC721.sol\":10483:10529  require(msg.sender == _admin, \"Unauthorized.\") */\n      tag_101\n      jumpi\n      mload(0x40)\n      0x08c379a000000000000000000000000000000000000000000000000000000000\n      dup2\n      mstore\n      0x04\n      add\n      tag_102\n      swap1\n      tag_103\n      jump\t// in\n    tag_102:\n      mload(0x40)\n      dup1\n      swap2\n      sub\n      swap1\n      revert\n    tag_101:\n        /* \"ERC721.sol\":10540:10571  _mint(msg.sender, tokenId, uri) */\n      tag_104\n        /* \"ERC721.sol\":10546:10556  msg.sender */\n      caller\n        /* \"ERC721.sol\":10558:10565  tokenId */\n      dup4\n        /* \"ERC721.sol\":10567:10570  uri */\n      dup4\n        /* \"ERC721.sol\":10540:10545  _mint */\n      tag_105\n        /* \"ERC721.sol\":10540:10571  _mint(msg.sender, tokenId, uri) */\n      jump\t// in\n    tag_104:\n        /* \"ERC721.sol\":10416:10579  function create(uint tokenId, string memory uri) public {\r... */\n      pop\n      pop\n      jump\t// out\n        /* \"ERC721.sol\":3121:3530  function supportsInterface(bytes4 interfaceId) public override pure returns (bool) {\r... */\n    tag_31:\n        /* \"ERC721.sol\":3198:3202  bool */\n      0x00\n        /* \"ERC721.sol\":3237:3262  type(IERC165).interfaceId */\n      0x01ffc9a700000000000000000000000000000000000000000000000000000000\n        /* \"ERC721.sol\":3222:3262  interfaceId == type(IERC165).interfaceId */\n      not(0xffffffffffffffffffffffffffffffffffffffffffffffffffffffff)\n      and\n        /* \"ERC721.sol\":3222:3233  interfaceId */\n      dup3\n        /* \"ERC721.sol\":3222:3262  interfaceId == type(IERC165).interfaceId */\n      not(0xffffffffffffffffffffffffffffffffffffffffffffffffffffffff)\n      and\n      eq\n        /* \"ERC721.sol\":3222:3320  interfaceId == type(IERC165).interfaceId \r... */\n      dup1\n      tag_107\n      jumpi\n      pop\n        /* \"ERC721.sol\":3295:3320  type(IERC721).interfaceId */\n      0x80ac58cd00000000000000000000000000000000000000000000000000000000\n        /* \"ERC721.sol\":3280:3320  interfaceId == type(IERC721).interfaceId */\n      not(0xffffffffffffffffffffffffffffffffffffffffffffffffffffffff)\n      and\n        /* \"ERC721.sol\":3280:3291  interfaceId */\n      dup3\n        /* \"ERC721.sol\":3280:3320  interfaceId == type(IERC721).interfaceId */\n      not(0xffffffffffffffffffffffffffffffffffffffffffffffffffffffff)\n      and\n      eq\n        /* \"ERC721.sol\":3222:3320  interfaceId == type(IERC165).interfaceId \r... */\n    tag_107:\n        /* \"ERC721.sol\":3222:3385  interfaceId == type(IERC165).interfaceId \r... */\n      dup1\n      tag_108\n      jumpi\n      pop\n        /* \"ERC721.sol\":3352:3385  type(IERC721Metadata).interfaceId */\n      0x5b5e139f00000000000000000000000000000000000000000000000000000000\n        /* \"ERC721.sol\":3337:3385  interfaceId == type(IERC721Metadata).interfaceId */\n      not(0xffffffffffffffffffffffffffffffffffffffffffffffffffffffff)\n      and\n        /* \"ERC721.sol\":3337:3348  interfaceId */\n      dup3\n        /* \"ERC721.sol\":3337:3385  interfaceId == type(IERC721Metadata).interfaceId */\n      not(0xffffffffffffffffffffffffffffffffffffffffffffffffffffffff)\n      and\n      eq\n        /* \"ERC721.sol\":3222:3385  interfaceId == type(IERC165).interfaceId \r... */\n    tag_108:\n        /* \"ERC721.sol\":3222:3455  interfaceId == type(IERC165).interfaceId \r... */\n      dup1\n      tag_109\n      jumpi\n      pop\n        /* \"ERC721.sol\":3417:3455  type(IERC1155Metadata_URI).interfaceId */\n      0x0e89341c00000000000000000000000000000000000000000000000000000000\n        /* \"ERC721.sol\":3402:3455  interfaceId == type(IERC1155Metadata_URI).interfaceId */\n      not(0xffffffffffffffffffffffffffffffffffffffffffffffffffffffff)\n      and\n        /* \"ERC721.sol\":3402:3413  interfaceId */\n      dup3\n        /* \"ERC721.sol\":3402:3455  interfaceId == type(IERC1155Metadata_URI).interfaceId */\n      not(0xffffffffffffffffffffffffffffffffffffffffffffffffffffffff)\n      and\n      eq\n        /* \"ERC721.sol\":3222:3455  interfaceId == type(IERC165).interfaceId \r... */\n    tag_109:\n        /* \"ERC721.sol\":3222:3522  interfaceId == type(IERC165).interfaceId \r... */\n      dup1\n      tag_110\n      jumpi\n      pop\n        /* \"ERC721.sol\":3487:3522  type(IERC721Enumerable).interfaceId */\n      0x780e9d6300000000000000000000000000000000000000000000000000000000\n        /* \"ERC721.sol\":3472:3522  interfaceId == type(IERC721Enumerable).interfaceId */\n      not(0xffffffffffffffffffffffffffffffffffffffffffffffffffffffff)\n      and\n        /* \"ERC721.sol\":3472:3483  interfaceId */\n      dup3\n        /* \"ERC721.sol\":3472:3522  interfaceId == type(IERC721Enumerable).interfaceId */\n      not(0xffffffffffffffffffffffffffffffffffffffffffffffffffffffff)\n      and\n      eq\n        /* \"ERC721.sol\":3222:3522  interfaceId == type(IERC165).interfaceId \r... */\n    tag_110:\n        /* \"ERC721.sol\":3215:3522  return interfaceId == type(IERC165).interfaceId \r... */\n      swap1\n      pop\n        /* \"ERC721.sol\":3121:3530  function supportsInterface(bytes4 interfaceId) public override pure returns (bool) {\r... */\n      swap2\n      swap1\n      pop\n      jump\t// out\n        /* \"ERC721.sol\":2658:2750  function name() public override view returns (string memory) {\r... */\n    tag_35:\n        /* \"ERC721.sol\":2704:2717  string memory */\n      0x60\n        /* \"ERC721.sol\":2737:2742  _name */\n      0x04\n        /* \"ERC721.sol\":2730:2742  return _name */\n      dup1\n      sload\n      tag_112\n      swap1\n      tag_113\n      jump\t// in\n    tag_112:\n      dup1\n      0x1f\n      add\n      0x20\n      dup1\n      swap2\n      div\n      mul\n      0x20\n      add\n      mload(0x40)\n      swap1\n      dup2\n      add\n      0x40\n      mstore\n      dup1\n      swap3\n      swap2\n      swap1\n      dup2\n      dup2\n      mstore\n      0x20\n      add\n      dup3\n      dup1\n      sload\n      tag_114\n      swap1\n      tag_113\n      jump\t// in\n    tag_114:\n      dup1\n      iszero\n      tag_115\n      jumpi\n      dup1\n      0x1f\n      lt\n      tag_116\n      jumpi\n      0x0100\n      dup1\n      dup4\n      sload\n      div\n      mul\n      dup4\n      mstore\n      swap2\n      0x20\n      add\n      swap2\n      jump(tag_115)\n    tag_116:\n      dup3\n      add\n      swap2\n      swap1\n      0x00\n      mstore\n      keccak256(0x00, 0x20)\n      swap1\n    tag_117:\n      dup2\n      sload\n      dup2\n      mstore\n      swap1\n      0x01\n      add\n      swap1\n      0x20\n      add\n      dup1\n      dup4\n      gt\n      tag_117\n      jumpi\n      dup3\n      swap1\n      sub\n      0x1f\n      and\n      dup3\n      add\n      swap2\n    tag_115:\n      pop\n      pop\n      pop\n      pop\n      pop\n      swap1\n      pop\n        /* \"ERC721.sol\":2658:2750  function name() public override view returns (string memory) {\r... */\n      swap1\n      jump\t// out\n        /* \"ERC721.sol\":4733:4935  function getApproved(uint256 tokenId) public override view returns (address) {\r... */\n    tag_41:\n        /* \"ERC721.sol\":4801:4808  address */\n      0x00\n        /* \"ERC721.sol\":4857:4858  0 */\n      dup1\n        /* \"ERC721.sol\":4829:4859  _owners[tokenId] != address(0) */\n      0xffffffffffffffffffffffffffffffffffffffff\n      and\n        /* \"ERC721.sol\":4829:4836  _owners */\n      0x01\n        /* \"ERC721.sol\":4829:4845  _owners[tokenId] */\n      0x00\n        /* \"ERC721.sol\":4837:4844  tokenId */\n      dup5\n        /* \"ERC721.sol\":4829:4845  _owners[tokenId] */\n      dup2\n      mstore\n      0x20\n      add\n      swap1\n      dup2\n      mstore\n      0x20\n      add\n      0x00\n      keccak256\n      0x00\n      swap1\n      sload\n      swap1\n      0x0100\n      exp\n      swap1\n      div\n      0xffffffffffffffffffffffffffffffffffffffff\n      and\n        /* \"ERC721.sol\":4829:4859  _owners[tokenId] != address(0) */\n      0xffffffffffffffffffffffffffffffffffffffff\n      and\n      eq\n      iszero\n        /* \"ERC721.sol\":4821:4883  require(_owners[tokenId] != address(0), \"token is not exists\") */\n      tag_119\n      jumpi\n      mload(0x40)\n      0x08c379a000000000000000000000000000000000000000000000000000000000\n      dup2\n      mstore\n      0x04\n      add\n      tag_120\n      swap1\n      tag_121\n      jump\t// in\n    tag_120:\n      mload(0x40)\n      dup1\n      swap2\n      sub\n      swap1\n      revert\n    tag_119:\n        /* \"ERC721.sol\":4903:4918  _tokenApprovals */\n      0x03\n        /* \"ERC721.sol\":4903:4927  _tokenApprovals[tokenId] */\n      0x00\n        /* \"ERC721.sol\":4919:4926  tokenId */\n      dup4\n        /* \"ERC721.sol\":4903:4927  _tokenApprovals[tokenId] */\n      dup2\n      mstore\n      0x20\n      add\n      swap1\n      dup2\n      mstore\n      0x20\n      add\n      0x00\n      keccak256\n      0x00\n      swap1\n      sload\n      swap1\n      0x0100\n      exp\n      swap1\n      div\n      0xffffffffffffffffffffffffffffffffffffffff\n      and\n        /* \"ERC721.sol\":4896:4927  return _tokenApprovals[tokenId] */\n      swap1\n      pop\n        /* \"ERC721.sol\":4733:4935  function getApproved(uint256 tokenId) public override view returns (address) {\r... */\n      swap2\n      swap1\n      pop\n      jump\t// out\n        /* \"ERC721.sol\":4394:4725  function approve(address to, uint256 tokenId) public override {\r... */\n    tag_47:\n        /* \"ERC721.sol\":4467:4480  address owner */\n      0x00\n        /* \"ERC721.sol\":4483:4499  ownerOf(tokenId) */\n      tag_123\n        /* \"ERC721.sol\":4491:4498  tokenId */\n      dup3\n        /* \"ERC721.sol\":4483:4490  ownerOf */\n      tag_73\n        /* \"ERC721.sol\":4483:4499  ownerOf(tokenId) */\n      jump\t// in\n    tag_123:\n        /* \"ERC721.sol\":4467:4499  address owner = ownerOf(tokenId) */\n      swap1\n      pop\n        /* \"ERC721.sol\":4524:4529  owner */\n      dup1\n        /* \"ERC721.sol\":4518:4529  to != owner */\n      0xffffffffffffffffffffffffffffffffffffffff\n      and\n        /* \"ERC721.sol\":4518:4520  to */\n      dup4\n        /* \"ERC721.sol\":4518:4529  to != owner */\n      0xffffffffffffffffffffffffffffffffffffffff\n      and\n      eq\n      iszero\n        /* \"ERC721.sol\":4510:4558  require(to != owner, \"approval status for self\") */\n      tag_124\n      jumpi\n      mload(0x40)\n      0x08c379a000000000000000000000000000000000000000000000000000000000\n      dup2\n      mstore\n      0x04\n      add\n      tag_125\n      swap1\n      tag_126\n      jump\t// in\n    tag_125:\n      mload(0x40)\n      dup1\n      swap2\n      sub\n      swap1\n      revert\n    tag_124:\n        /* \"ERC721.sol\":4591:4596  owner */\n      dup1\n        /* \"ERC721.sol\":4577:4596  msg.sender == owner */\n      0xffffffffffffffffffffffffffffffffffffffff\n      and\n        /* \"ERC721.sol\":4577:4587  msg.sender */\n      caller\n        /* \"ERC721.sol\":4577:4596  msg.sender == owner */\n      0xffffffffffffffffffffffffffffffffffffffff\n      and\n      eq\n        /* \"ERC721.sol\":4577:4635  msg.sender == owner || isApprovedForAll(owner, msg.sender) */\n      dup1\n      tag_127\n      jumpi\n      pop\n        /* \"ERC721.sol\":4600:4635  isApprovedForAll(owner, msg.sender) */\n      tag_128\n        /* \"ERC721.sol\":4617:4622  owner */\n      dup2\n        /* \"ERC721.sol\":4624:4634  msg.sender */\n      caller\n        /* \"ERC721.sol\":4600:4616  isApprovedForAll */\n      tag_98\n        /* \"ERC721.sol\":4600:4635  isApprovedForAll(owner, msg.sender) */\n      jump\t// in\n    tag_128:\n        /* \"ERC721.sol\":4577:4635  msg.sender == owner || isApprovedForAll(owner, msg.sender) */\n    tag_127:\n        /* \"ERC721.sol\":4569:4685  require(msg.sender == owner || isApprovedForAll(owner, msg.sender), \"caller is not token owner or approval for all\") */\n      tag_129\n      jumpi\n      mload(0x40)\n      0x08c379a000000000000000000000000000000000000000000000000000000000\n      dup2\n      mstore\n      0x04\n      add\n      tag_130\n      swap1\n      tag_131\n      jump\t// in\n    tag_130:\n      mload(0x40)\n      dup1\n      swap2\n      sub\n      swap1\n      revert\n    tag_129:\n        /* \"ERC721.sol\":4696:4717  _approve(to, tokenId) */\n      tag_132\n        /* \"ERC721.sol\":4705:4707  to */\n      dup4\n        /* \"ERC721.sol\":4709:4716  tokenId */\n      dup4\n        /* \"ERC721.sol\":4696:4704  _approve */\n      tag_133\n        /* \"ERC721.sol\":4696:4717  _approve(to, tokenId) */\n      jump\t// in\n    tag_132:\n        /* \"ERC721.sol\":4456:4725  {\r... */\n      pop\n        /* \"ERC721.sol\":4394:4725  function approve(address to, uint256 tokenId) public override {\r... */\n      pop\n      pop\n      jump\t// out\n        /* \"ERC721.sol\":2995:3113  function uri(uint256 tokenId) public override view returns (string memory) {\r... */\n    tag_50:\n        /* \"ERC721.sol\":3055:3068  string memory */\n      0x60\n        /* \"ERC721.sol\":3088:3105  tokenURI(tokenId) */\n      tag_135\n        /* \"ERC721.sol\":3097:3104  tokenId */\n      dup3\n        /* \"ERC721.sol\":3088:3096  tokenURI */\n      tag_93\n        /* \"ERC721.sol\":3088:3105  tokenURI(tokenId) */\n      jump\t// in\n    tag_135:\n        /* \"ERC721.sol\":3081:3105  return tokenURI(tokenId) */\n      swap1\n      pop\n        /* \"ERC721.sol\":2995:3113  function uri(uint256 tokenId) public override view returns (string memory) {\r... */\n      swap2\n      swap1\n      pop\n      jump\t// out\n        /* \"ERC721.sol\":6115:6220  function totalSupply() public override view returns (uint256) {\r... */\n    tag_53:\n        /* \"ERC721.sol\":6168:6175  uint256 */\n      0x00\n        /* \"ERC721.sol\":6195:6205  _allTokens */\n      0x09\n        /* \"ERC721.sol\":6195:6212  _allTokens.length */\n      dup1\n      sload\n      swap1\n      pop\n        /* \"ERC721.sol\":6188:6212  return _allTokens.length */\n      swap1\n      pop\n        /* \"ERC721.sol\":6115:6220  function totalSupply() public override view returns (uint256) {\r... */\n      swap1\n      jump\t// out\n        /* \"ERC721.sol\":4943:5679  function transferFrom(address from, address to, uint256 tokenId) public override {\r... */\n    tag_59:\n        /* \"ERC721.sol\":5059:5060  0 */\n      0x00\n        /* \"ERC721.sol\":5043:5061  from != address(0) */\n      0xffffffffffffffffffffffffffffffffffffffff\n      and\n        /* \"ERC721.sol\":5043:5047  from */\n      dup4\n        /* \"ERC721.sol\":5043:5061  from != address(0) */\n      0xffffffffffffffffffffffffffffffffffffffff\n      and\n      eq\n      iszero\n        /* \"ERC721.sol\":5035:5092  require(from != address(0), \"transfer from zero address\") */\n      tag_138\n      jumpi\n      mload(0x40)\n      0x08c379a000000000000000000000000000000000000000000000000000000000\n      dup2\n      mstore\n      0x04\n      add\n      tag_139\n      swap1\n      tag_140\n      jump\t// in\n    tag_139:\n      mload(0x40)\n      dup1\n      swap2\n      sub\n      swap1\n      revert\n    tag_138:\n        /* \"ERC721.sol\":5125:5126  0 */\n      0x00\n        /* \"ERC721.sol\":5111:5127  to != address(0) */\n      0xffffffffffffffffffffffffffffffffffffffff\n      and\n        /* \"ERC721.sol\":5111:5113  to */\n      dup3\n        /* \"ERC721.sol\":5111:5127  to != address(0) */\n      0xffffffffffffffffffffffffffffffffffffffff\n      and\n      eq\n      iszero\n        /* \"ERC721.sol\":5103:5156  require(to != address(0), \"transfer to zero address\") */\n      tag_141\n      jumpi\n      mload(0x40)\n      0x08c379a000000000000000000000000000000000000000000000000000000000\n      dup2\n      mstore\n      0x04\n      add\n      tag_142\n      swap1\n      tag_143\n      jump\t// in\n    tag_142:\n      mload(0x40)\n      dup1\n      swap2\n      sub\n      swap1\n      revert\n    tag_141:\n        /* \"ERC721.sol\":5169:5182  address owner */\n      0x00\n        /* \"ERC721.sol\":5185:5201  ownerOf(tokenId) */\n      tag_144\n        /* \"ERC721.sol\":5193:5200  tokenId */\n      dup3\n        /* \"ERC721.sol\":5185:5192  ownerOf */\n      tag_73\n        /* \"ERC721.sol\":5185:5201  ownerOf(tokenId) */\n      jump\t// in\n    tag_144:\n        /* \"ERC721.sol\":5169:5201  address owner = ownerOf(tokenId) */\n      swap1\n      pop\n        /* \"ERC721.sol\":5229:5233  from */\n      dup4\n        /* \"ERC721.sol\":5220:5233  owner == from */\n      0xffffffffffffffffffffffffffffffffffffffff\n      and\n        /* \"ERC721.sol\":5220:5225  owner */\n      dup2\n        /* \"ERC721.sol\":5220:5233  owner == from */\n      0xffffffffffffffffffffffffffffffffffffffff\n      and\n      eq\n        /* \"ERC721.sol\":5212:5270  require(owner == from, \"transfer from is not token owner\") */\n      tag_145\n      jumpi\n      mload(0x40)\n      0x08c379a000000000000000000000000000000000000000000000000000000000\n      dup2\n      mstore\n      0x04\n      add\n      tag_146\n      swap1\n      tag_147\n      jump\t// in\n    tag_146:\n      mload(0x40)\n      dup1\n      swap2\n      sub\n      swap1\n      revert\n    tag_145:\n        /* \"ERC721.sol\":5303:5308  owner */\n      dup1\n        /* \"ERC721.sol\":5289:5308  msg.sender == owner */\n      0xffffffffffffffffffffffffffffffffffffffff\n      and\n        /* \"ERC721.sol\":5289:5299  msg.sender */\n      caller\n        /* \"ERC721.sol\":5289:5308  msg.sender == owner */\n      0xffffffffffffffffffffffffffffffffffffffff\n      and\n      eq\n        /* \"ERC721.sol\":5289:5346  msg.sender == owner || msg.sender == getApproved(tokenId) */\n      dup1\n      tag_148\n      jumpi\n      pop\n        /* \"ERC721.sol\":5326:5346  getApproved(tokenId) */\n      tag_149\n        /* \"ERC721.sol\":5338:5345  tokenId */\n      dup3\n        /* \"ERC721.sol\":5326:5337  getApproved */\n      tag_41\n        /* \"ERC721.sol\":5326:5346  getApproved(tokenId) */\n      jump\t// in\n    tag_149:\n        /* \"ERC721.sol\":5312:5346  msg.sender == getApproved(tokenId) */\n      0xffffffffffffffffffffffffffffffffffffffff\n      and\n        /* \"ERC721.sol\":5312:5322  msg.sender */\n      caller\n        /* \"ERC721.sol\":5312:5346  msg.sender == getApproved(tokenId) */\n      0xffffffffffffffffffffffffffffffffffffffff\n      and\n      eq\n        /* \"ERC721.sol\":5289:5346  msg.sender == owner || msg.sender == getApproved(tokenId) */\n    tag_148:\n        /* \"ERC721.sol\":5289:5385  msg.sender == owner || msg.sender == getApproved(tokenId) || isApprovedForAll(owner, msg.sender) */\n      dup1\n      tag_150\n      jumpi\n      pop\n        /* \"ERC721.sol\":5350:5385  isApprovedForAll(owner, msg.sender) */\n      tag_151\n        /* \"ERC721.sol\":5367:5372  owner */\n      dup2\n        /* \"ERC721.sol\":5374:5384  msg.sender */\n      caller\n        /* \"ERC721.sol\":5350:5366  isApprovedForAll */\n      tag_98\n        /* \"ERC721.sol\":5350:5385  isApprovedForAll(owner, msg.sender) */\n      jump\t// in\n    tag_151:\n        /* \"ERC721.sol\":5289:5385  msg.sender == owner || msg.sender == getApproved(tokenId) || isApprovedForAll(owner, msg.sender) */\n    tag_150:\n        /* \"ERC721.sol\":5281:5421  require(msg.sender == owner || msg.sender == getApproved(tokenId) || isApprovedForAll(owner, msg.sender), \"caller is not owner or approval\") */\n      tag_152\n      jumpi\n      mload(0x40)\n      0x08c379a000000000000000000000000000000000000000000000000000000000\n      dup2\n      mstore\n      0x04\n      add\n      tag_153\n      swap1\n      tag_154\n      jump\t// in\n    tag_153:\n      mload(0x40)\n      dup1\n      swap2\n      sub\n      swap1\n      revert\n    tag_152:\n        /* \"ERC721.sol\":5453:5454  1 */\n      0x01\n        /* \"ERC721.sol\":5434:5443  _balances */\n      0x00\n        /* \"ERC721.sol\":5434:5449  _balances[from] */\n      dup1\n        /* \"ERC721.sol\":5444:5448  from */\n      dup7\n        /* \"ERC721.sol\":5434:5449  _balances[from] */\n      0xffffffffffffffffffffffffffffffffffffffff\n      and\n      0xffffffffffffffffffffffffffffffffffffffff\n      and\n      dup2\n      mstore\n      0x20\n      add\n      swap1\n      dup2\n      mstore\n      0x20\n      add\n      0x00\n      keccak256\n      0x00\n        /* \"ERC721.sol\":5434:5454  _balances[from] -= 1 */\n      dup3\n      dup3\n      sload\n      tag_155\n      swap2\n      swap1\n      tag_156\n      jump\t// in\n    tag_155:\n      swap3\n      pop\n      pop\n      dup2\n      swap1\n      sstore\n      pop\n        /* \"ERC721.sol\":5482:5483  1 */\n      0x01\n        /* \"ERC721.sol\":5465:5474  _balances */\n      0x00\n        /* \"ERC721.sol\":5465:5478  _balances[to] */\n      dup1\n        /* \"ERC721.sol\":5475:5477  to */\n      dup6\n        /* \"ERC721.sol\":5465:5478  _balances[to] */\n      0xffffffffffffffffffffffffffffffffffffffff\n      and\n      0xffffffffffffffffffffffffffffffffffffffff\n      and\n      dup2\n      mstore\n      0x20\n      add\n      swap1\n      dup2\n      mstore\n      0x20\n      add\n      0x00\n      keccak256\n      0x00\n        /* \"ERC721.sol\":5465:5483  _balances[to] += 1 */\n      dup3\n      dup3\n      sload\n      tag_157\n      swap2\n      swap1\n      tag_158\n      jump\t// in\n    tag_157:\n      swap3\n      pop\n      pop\n      dup2\n      swap1\n      sstore\n      pop\n        /* \"ERC721.sol\":5513:5515  to */\n      dup3\n        /* \"ERC721.sol\":5494:5501  _owners */\n      0x01\n        /* \"ERC721.sol\":5494:5510  _owners[tokenId] */\n      0x00\n        /* \"ERC721.sol\":5502:5509  tokenId */\n      dup5\n        /* \"ERC721.sol\":5494:5510  _owners[tokenId] */\n      dup2\n      mstore\n      0x20\n      add\n      swap1\n      dup2\n      mstore\n      0x20\n      add\n      0x00\n      keccak256\n      0x00\n        /* \"ERC721.sol\":5494:5515  _owners[tokenId] = to */\n      0x0100\n      exp\n      dup2\n      sload\n      dup2\n      0xffffffffffffffffffffffffffffffffffffffff\n      mul\n      not\n      and\n      swap1\n      dup4\n      0xffffffffffffffffffffffffffffffffffffffff\n      and\n      mul\n      or\n      swap1\n      sstore\n      pop\n        /* \"ERC721.sol\":5552:5559  tokenId */\n      dup2\n        /* \"ERC721.sol\":5548:5550  to */\n      dup4\n        /* \"ERC721.sol\":5533:5560  Transfer(from, to, tokenId) */\n      0xffffffffffffffffffffffffffffffffffffffff\n      and\n        /* \"ERC721.sol\":5542:5546  from */\n      dup6\n        /* \"ERC721.sol\":5533:5560  Transfer(from, to, tokenId) */\n      0xffffffffffffffffffffffffffffffffffffffff\n      and\n      0xddf252ad1be2c89b69c2b068fc378daa952ba7f163c4a11628f55a4df523b3ef\n      mload(0x40)\n      mload(0x40)\n      dup1\n      swap2\n      sub\n      swap1\n      log4\n        /* \"ERC721.sol\":5573:5620  _removeTokenFromOwnerEnumeration(from, tokenId) */\n      tag_159\n        /* \"ERC721.sol\":5606:5610  from */\n      dup5\n        /* \"ERC721.sol\":5612:5619  tokenId */\n      dup4\n        /* \"ERC721.sol\":5573:5605  _removeTokenFromOwnerEnumeration */\n      tag_160\n        /* \"ERC721.sol\":5573:5620  _removeTokenFromOwnerEnumeration(from, tokenId) */\n      jump\t// in\n    tag_159:\n        /* \"ERC721.sol\":5631:5671  _addTokenToOwnerEnumeration(to, tokenId) */\n      tag_161\n        /* \"ERC721.sol\":5659:5661  to */\n      dup4\n        /* \"ERC721.sol\":5663:5670  tokenId */\n      dup4\n        /* \"ERC721.sol\":5631:5658  _addTokenToOwnerEnumeration */\n      tag_162\n        /* \"ERC721.sol\":5631:5671  _addTokenToOwnerEnumeration(to, tokenId) */\n      jump\t// in\n    tag_161:\n        /* \"ERC721.sol\":5024:5679  {\r... */\n      pop\n        /* \"ERC721.sol\":4943:5679  function transferFrom(address from, address to, uint256 tokenId) public override {\r... */\n      pop\n      pop\n      pop\n      jump\t// out\n        /* \"ERC721.sol\":6425:6644  function tokenOfOwnerByIndex(address owner, uint256 index) public override view returns (uint256) {\r... */\n    tag_62:\n        /* \"ERC721.sol\":6514:6521  uint256 */\n      0x00\n        /* \"ERC721.sol\":6550:6559  _balances */\n      dup1\n        /* \"ERC721.sol\":6550:6566  _balances[owner] */\n      0x00\n        /* \"ERC721.sol\":6560:6565  owner */\n      dup5\n        /* \"ERC721.sol\":6550:6566  _balances[owner] */\n      0xffffffffffffffffffffffffffffffffffffffff\n      and\n      0xffffffffffffffffffffffffffffffffffffffff\n      and\n      dup2\n      mstore\n      0x20\n      add\n      swap1\n      dup2\n      mstore\n      0x20\n      add\n      0x00\n      keccak256\n      sload\n        /* \"ERC721.sol\":6542:6547  index */\n      dup3\n        /* \"ERC721.sol\":6542:6566  index < _balances[owner] */\n      lt\n        /* \"ERC721.sol\":6534:6590  require(index < _balances[owner], \"index out of bounds\") */\n      tag_164\n      jumpi\n      mload(0x40)\n      0x08c379a000000000000000000000000000000000000000000000000000000000\n      dup2\n      mstore\n      0x04\n      add\n      tag_165\n      swap1\n      tag_166\n      jump\t// in\n    tag_165:\n      mload(0x40)\n      dup1\n      swap2\n      sub\n      swap1\n      revert\n    tag_164:\n        /* \"ERC721.sol\":6610:6622  _ownedTokens */\n      0x07\n        /* \"ERC721.sol\":6610:6629  _ownedTokens[owner] */\n      0x00\n        /* \"ERC721.sol\":6623:6628  owner */\n      dup5\n        /* \"ERC721.sol\":6610:6629  _ownedTokens[owner] */\n      0xffffffffffffffffffffffffffffffffffffffff\n      and\n      0xffffffffffffffffffffffffffffffffffffffff\n      and\n      dup2\n      mstore\n      0x20\n      add\n      swap1\n      dup2\n      mstore\n      0x20\n      add\n      0x00\n      keccak256\n        /* \"ERC721.sol\":6610:6636  _ownedTokens[owner][index] */\n      0x00\n        /* \"ERC721.sol\":6630:6635  index */\n      dup4\n        /* \"ERC721.sol\":6610:6636  _ownedTokens[owner][index] */\n      dup2\n      mstore\n      0x20\n      add\n      swap1\n      dup2\n      mstore\n      0x20\n      add\n      0x00\n      keccak256\n      sload\n        /* \"ERC721.sol\":6603:6636  return _ownedTokens[owner][index] */\n      swap1\n      pop\n        /* \"ERC721.sol\":6425:6644  function tokenOfOwnerByIndex(address owner, uint256 index) public override view returns (uint256) {\r... */\n      swap3\n      swap2\n      pop\n      pop\n      jump\t// out\n        /* \"ERC721.sol\":5964:6107  function safeTransferFrom(address from, address to, uint256 tokenId) public override {\r... */\n    tag_66:\n        /* \"ERC721.sol\":6060:6099  safeTransferFrom(from, to, tokenId, \"\") */\n      tag_168\n        /* \"ERC721.sol\":6077:6081  from */\n      dup4\n        /* \"ERC721.sol\":6083:6085  to */\n      dup4\n        /* \"ERC721.sol\":6087:6094  tokenId */\n      dup4\n        /* \"ERC721.sol\":6060:6099  safeTransferFrom(from, to, tokenId, \"\") */\n      mload(0x40)\n      dup1\n      0x20\n      add\n      0x40\n      mstore\n      dup1\n      0x00\n      dup2\n      mstore\n      pop\n        /* \"ERC721.sol\":6060:6076  safeTransferFrom */\n      tag_90\n        /* \"ERC721.sol\":6060:6099  safeTransferFrom(from, to, tokenId, \"\") */\n      jump\t// in\n    tag_168:\n        /* \"ERC721.sol\":5964:6107  function safeTransferFrom(address from, address to, uint256 tokenId) public override {\r... */\n      pop\n      pop\n      pop\n      jump\t// out\n        /* \"ERC721.sol\":6228:6417  function tokenByIndex(uint256 index) public override view returns (uint256) {\r... */\n    tag_69:\n        /* \"ERC721.sol\":6295:6302  uint256 */\n      0x00\n        /* \"ERC721.sol\":6331:6341  _allTokens */\n      0x09\n        /* \"ERC721.sol\":6331:6348  _allTokens.length */\n      dup1\n      sload\n      swap1\n      pop\n        /* \"ERC721.sol\":6323:6328  index */\n      dup3\n        /* \"ERC721.sol\":6323:6348  index < _allTokens.length */\n      lt\n        /* \"ERC721.sol\":6315:6372  require(index < _allTokens.length, \"index out of bounds\") */\n      tag_170\n      jumpi\n      mload(0x40)\n      0x08c379a000000000000000000000000000000000000000000000000000000000\n      dup2\n      mstore\n      0x04\n      add\n      tag_171\n      swap1\n      tag_166\n      jump\t// in\n    tag_171:\n      mload(0x40)\n      dup1\n      swap2\n      sub\n      swap1\n      revert\n    tag_170:\n        /* \"ERC721.sol\":6392:6402  _allTokens */\n      0x09\n        /* \"ERC721.sol\":6403:6408  index */\n      dup3\n        /* \"ERC721.sol\":6392:6409  _allTokens[index] */\n      dup2\n      sload\n      dup2\n      lt\n      tag_172\n      jumpi\n      tag_173\n      tag_174\n      jump\t// in\n    tag_173:\n    tag_172:\n      swap1\n      0x00\n      mstore\n      keccak256(0x00, 0x20)\n      add\n      sload\n        /* \"ERC721.sol\":6385:6409  return _allTokens[index] */\n      swap1\n      pop\n        /* \"ERC721.sol\":6228:6417  function tokenByIndex(uint256 index) public override view returns (uint256) {\r... */\n      swap2\n      swap1\n      pop\n      jump\t// out\n        /* \"ERC721.sol\":3727:3936  function ownerOf(uint256 tokenId) public override view returns (address) {\r... */\n    tag_73:\n        /* \"ERC721.sol\":3791:3798  address */\n      0x00\n        /* \"ERC721.sol\":3811:3824  address owner */\n      dup1\n        /* \"ERC721.sol\":3827:3834  _owners */\n      0x01\n        /* \"ERC721.sol\":3827:3843  _owners[tokenId] */\n      0x00\n        /* \"ERC721.sol\":3835:3842  tokenId */\n      dup5\n        /* \"ERC721.sol\":3827:3843  _owners[tokenId] */\n      dup2\n      mstore\n      0x20\n      add\n      swap1\n      dup2\n      mstore\n      0x20\n      add\n      0x00\n      keccak256\n      0x00\n      swap1\n      sload\n      swap1\n      0x0100\n      exp\n      swap1\n      div\n      0xffffffffffffffffffffffffffffffffffffffff\n      and\n        /* \"ERC721.sol\":3811:3843  address owner = _owners[tokenId] */\n      swap1\n      pop\n        /* \"ERC721.sol\":3879:3880  0 */\n      0x00\n        /* \"ERC721.sol\":3862:3881  owner != address(0) */\n      0xffffffffffffffffffffffffffffffffffffffff\n      and\n        /* \"ERC721.sol\":3862:3867  owner */\n      dup2\n        /* \"ERC721.sol\":3862:3881  owner != address(0) */\n      0xffffffffffffffffffffffffffffffffffffffff\n      and\n      eq\n      iszero\n        /* \"ERC721.sol\":3854:3905  require(owner != address(0), \"token is not exists\") */\n      tag_177\n      jumpi\n      mload(0x40)\n      0x08c379a000000000000000000000000000000000000000000000000000000000\n      dup2\n      mstore\n      0x04\n      add\n      tag_178\n      swap1\n      tag_121\n      jump\t// in\n    tag_178:\n      mload(0x40)\n      dup1\n      swap2\n      sub\n      swap1\n      revert\n    tag_177:\n        /* \"ERC721.sol\":3923:3928  owner */\n      dup1\n        /* \"ERC721.sol\":3916:3928  return owner */\n      swap2\n      pop\n      pop\n        /* \"ERC721.sol\":3727:3936  function ownerOf(uint256 tokenId) public override view returns (address) {\r... */\n      swap2\n      swap1\n      pop\n      jump\t// out\n        /* \"ERC721.sol\":3538:3719  function balanceOf(address owner) public override view returns (uint256) {\r... */\n    tag_78:\n        /* \"ERC721.sol\":3602:3609  uint256 */\n      0x00\n        /* \"ERC721.sol\":3647:3648  0 */\n      dup1\n        /* \"ERC721.sol\":3630:3649  owner != address(0) */\n      0xffffffffffffffffffffffffffffffffffffffff\n      and\n        /* \"ERC721.sol\":3630:3635  owner */\n      dup3\n        /* \"ERC721.sol\":3630:3649  owner != address(0) */\n      0xffffffffffffffffffffffffffffffffffffffff\n      and\n      eq\n      iszero\n        /* \"ERC721.sol\":3622:3675  require(owner != address(0), \"owner is zero address\") */\n      tag_180\n      jumpi\n      mload(0x40)\n      0x08c379a000000000000000000000000000000000000000000000000000000000\n      dup2\n      mstore\n      0x04\n      add\n      tag_181\n      swap1\n      tag_182\n      jump\t// in\n    tag_181:\n      mload(0x40)\n      dup1\n      swap2\n      sub\n      swap1\n      revert\n    tag_180:\n        /* \"ERC721.sol\":3695:3704  _balances */\n      0x00\n        /* \"ERC721.sol\":3695:3711  _balances[owner] */\n      dup1\n        /* \"ERC721.sol\":3705:3710  owner */\n      dup4\n        /* \"ERC721.sol\":3695:3711  _balances[owner] */\n      0xffffffffffffffffffffffffffffffffffffffff\n      and\n      0xffffffffffffffffffffffffffffffffffffffff\n      and\n      dup2\n      mstore\n      0x20\n      add\n      swap1\n      dup2\n      mstore\n      0x20\n      add\n      0x00\n      keccak256\n      sload\n        /* \"ERC721.sol\":3688:3711  return _balances[owner] */\n      swap1\n      pop\n        /* \"ERC721.sol\":3538:3719  function balanceOf(address owner) public override view returns (uint256) {\r... */\n      swap2\n      swap1\n      pop\n      jump\t// out\n        /* \"ERC721.sol\":2758:2854  function symbol() public override view returns (string memory) {\r... */\n    tag_81:\n        /* \"ERC721.sol\":2806:2819  string memory */\n      0x60\n        /* \"ERC721.sol\":2839:2846  _symbol */\n      0x05\n        /* \"ERC721.sol\":2832:2846  return _symbol */\n      dup1\n      sload\n      tag_184\n      swap1\n      tag_113\n      jump\t// in\n    tag_184:\n      dup1\n      0x1f\n      add\n      0x20\n      dup1\n      swap2\n      div\n      mul\n      0x20\n      add\n      mload(0x40)\n      swap1\n      dup2\n      add\n      0x40\n      mstore\n      dup1\n      swap3\n      swap2\n      swap1\n      dup2\n      dup2\n      mstore\n      0x20\n      add\n      dup3\n      dup1\n      sload\n      tag_185\n      swap1\n      tag_113\n      jump\t// in\n    tag_185:\n      dup1\n      iszero\n      tag_186\n      jumpi\n      dup1\n      0x1f\n      lt\n      tag_187\n      jumpi\n      0x0100\n      dup1\n      dup4\n      sload\n      div\n      mul\n      dup4\n      mstore\n      swap2\n      0x20\n      add\n      swap2\n      jump(tag_186)\n    tag_187:\n      dup3\n      add\n      swap2\n      swap1\n      0x00\n      mstore\n      keccak256(0x00, 0x20)\n      swap1\n    tag_188:\n      dup2\n      sload\n      dup2\n      mstore\n      swap1\n      0x01\n      add\n      swap1\n      0x20\n      add\n      dup1\n      dup4\n      gt\n      tag_188\n      jumpi\n      dup3\n      swap1\n      sub\n      0x1f\n      and\n      dup3\n      add\n      swap2\n    tag_186:\n      pop\n      pop\n      pop\n      pop\n      pop\n      swap1\n      pop\n        /* \"ERC721.sol\":2758:2854  function symbol() public override view returns (string memory) {\r... */\n      swap1\n      jump\t// out\n        /* \"ERC721.sol\":3944:4222  function setApprovalForAll(address operator, bool approved) public override {\r... */\n    tag_86:\n        /* \"ERC721.sol\":4053:4061  operator */\n      dup2\n        /* \"ERC721.sol\":4039:4061  msg.sender != operator */\n      0xffffffffffffffffffffffffffffffffffffffff\n      and\n        /* \"ERC721.sol\":4039:4049  msg.sender */\n      caller\n        /* \"ERC721.sol\":4039:4061  msg.sender != operator */\n      0xffffffffffffffffffffffffffffffffffffffff\n      and\n      eq\n      iszero\n        /* \"ERC721.sol\":4031:4090  require(msg.sender != operator, \"approval status for self\") */\n      tag_190\n      jumpi\n      mload(0x40)\n      0x08c379a000000000000000000000000000000000000000000000000000000000\n      dup2\n      mstore\n      0x04\n      add\n      tag_191\n      swap1\n      tag_126\n      jump\t// in\n    tag_191:\n      mload(0x40)\n      dup1\n      swap2\n      sub\n      swap1\n      revert\n    tag_190:\n        /* \"ERC721.sol\":4144:4152  approved */\n      dup1\n        /* \"ERC721.sol\":4101:4119  _operatorApprovals */\n      0x02\n        /* \"ERC721.sol\":4101:4131  _operatorApprovals[msg.sender] */\n      0x00\n        /* \"ERC721.sol\":4120:4130  msg.sender */\n      caller\n        /* \"ERC721.sol\":4101:4131  _operatorApprovals[msg.sender] */\n      0xffffffffffffffffffffffffffffffffffffffff\n      and\n      0xffffffffffffffffffffffffffffffffffffffff\n      and\n      dup2\n      mstore\n      0x20\n      add\n      swap1\n      dup2\n      mstore\n      0x20\n      add\n      0x00\n      keccak256\n        /* \"ERC721.sol\":4101:4141  _operatorApprovals[msg.sender][operator] */\n      0x00\n        /* \"ERC721.sol\":4132:4140  operator */\n      dup5\n        /* \"ERC721.sol\":4101:4141  _operatorApprovals[msg.sender][operator] */\n      0xffffffffffffffffffffffffffffffffffffffff\n      and\n      0xffffffffffffffffffffffffffffffffffffffff\n      and\n      dup2\n      mstore\n      0x20\n      add\n      swap1\n      dup2\n      mstore\n      0x20\n      add\n      0x00\n      keccak256\n      0x00\n        /* \"ERC721.sol\":4101:4152  _operatorApprovals[msg.sender][operator] = approved */\n      0x0100\n      exp\n      dup2\n      sload\n      dup2\n      0xff\n      mul\n      not\n      and\n      swap1\n      dup4\n      iszero\n      iszero\n      mul\n      or\n      swap1\n      sstore\n      pop\n        /* \"ERC721.sol\":4195:4203  operator */\n      dup2\n        /* \"ERC721.sol\":4168:4214  ApprovalForAll(msg.sender, operator, approved) */\n      0xffffffffffffffffffffffffffffffffffffffff\n      and\n        /* \"ERC721.sol\":4183:4193  msg.sender */\n      caller\n        /* \"ERC721.sol\":4168:4214  ApprovalForAll(msg.sender, operator, approved) */\n      0xffffffffffffffffffffffffffffffffffffffff\n      and\n      0x17307eab39ab6107e8899845ad3d59bd9653f200f220920489ca2b5937696c31\n        /* \"ERC721.sol\":4205:4213  approved */\n      dup4\n        /* \"ERC721.sol\":4168:4214  ApprovalForAll(msg.sender, operator, approved) */\n      mload(0x40)\n      tag_192\n      swap2\n      swap1\n      tag_33\n      jump\t// in\n    tag_192:\n      mload(0x40)\n      dup1\n      swap2\n      sub\n      swap1\n      log3\n        /* \"ERC721.sol\":3944:4222  function setApprovalForAll(address operator, bool approved) public override {\r... */\n      pop\n      pop\n      jump\t// out\n        /* \"ERC721.sol\":5687:5956  function safeTransferFrom(address from, address to, uint256 tokenId, bytes memory data) public override {\r... */\n    tag_90:\n        /* \"ERC721.sol\":5802:5833  transferFrom(from, to, tokenId) */\n      tag_194\n        /* \"ERC721.sol\":5815:5819  from */\n      dup5\n        /* \"ERC721.sol\":5821:5823  to */\n      dup5\n        /* \"ERC721.sol\":5825:5832  tokenId */\n      dup5\n        /* \"ERC721.sol\":5802:5814  transferFrom */\n      tag_59\n        /* \"ERC721.sol\":5802:5833  transferFrom(from, to, tokenId) */\n      jump\t// in\n    tag_194:\n        /* \"ERC721.sol\":5854:5901  _checkOnERC721Received(from, to, tokenId, data) */\n      tag_195\n        /* \"ERC721.sol\":5877:5881  from */\n      dup5\n        /* \"ERC721.sol\":5883:5885  to */\n      dup5\n        /* \"ERC721.sol\":5887:5894  tokenId */\n      dup5\n        /* \"ERC721.sol\":5896:5900  data */\n      dup5\n        /* \"ERC721.sol\":5854:5876  _checkOnERC721Received */\n      tag_196\n        /* \"ERC721.sol\":5854:5901  _checkOnERC721Received(from, to, tokenId, data) */\n      jump\t// in\n    tag_195:\n        /* \"ERC721.sol\":5846:5948  require(_checkOnERC721Received(from, to, tokenId, data), \"transfer to non ERC721Receiver implementer\") */\n      tag_197\n      jumpi\n      mload(0x40)\n      0x08c379a000000000000000000000000000000000000000000000000000000000\n      dup2\n      mstore\n      0x04\n      add\n      tag_198\n      swap1\n      tag_199\n      jump\t// in\n    tag_198:\n      mload(0x40)\n      dup1\n      swap2\n      sub\n      swap1\n      revert\n    tag_197:\n        /* \"ERC721.sol\":5687:5956  function safeTransferFrom(address from, address to, uint256 tokenId, bytes memory data) public override {\r... */\n      pop\n      pop\n      pop\n      pop\n      jump\t// out\n        /* \"ERC721.sol\":2862:2987  function tokenURI(uint256 tokenId) public override view returns (string memory) {\r... */\n    tag_93:\n        /* \"ERC721.sol\":2927:2940  string memory */\n      0x60\n        /* \"ERC721.sol\":2960:2970  _tokenURIs */\n      0x06\n        /* \"ERC721.sol\":2960:2979  _tokenURIs[tokenId] */\n      0x00\n        /* \"ERC721.sol\":2971:2978  tokenId */\n      dup4\n        /* \"ERC721.sol\":2960:2979  _tokenURIs[tokenId] */\n      dup2\n      mstore\n      0x20\n      add\n      swap1\n      dup2\n      mstore\n      0x20\n      add\n      0x00\n      keccak256\n        /* \"ERC721.sol\":2953:2979  return _tokenURIs[tokenId] */\n      dup1\n      sload\n      tag_201\n      swap1\n      tag_113\n      jump\t// in\n    tag_201:\n      dup1\n      0x1f\n      add\n      0x20\n      dup1\n      swap2\n      div\n      mul\n      0x20\n      add\n      mload(0x40)\n      swap1\n      dup2\n      add\n      0x40\n      mstore\n      dup1\n      swap3\n      swap2\n      swap1\n      dup2\n      dup2\n      mstore\n      0x20\n      add\n      dup3\n      dup1\n      sload\n      tag_202\n      swap1\n      tag_113\n      jump\t// in\n    tag_202:\n      dup1\n      iszero\n      tag_203\n      jumpi\n      dup1\n      0x1f\n      lt\n      tag_204\n      jumpi\n      0x0100\n      dup1\n      dup4\n      sload\n      div\n      mul\n      dup4\n      mstore\n      swap2\n      0x20\n      add\n      swap2\n      jump(tag_203)\n    tag_204:\n      dup3\n      add\n      swap2\n      swap1\n      0x00\n      mstore\n      keccak256(0x00, 0x20)\n      swap1\n    tag_205:\n      dup2\n      sload\n      dup2\n      mstore\n      swap1\n      0x01\n      add\n      swap1\n      0x20\n      add\n      dup1\n      dup4\n      gt\n      tag_205\n      jumpi\n      dup3\n      swap1\n      sub\n      0x1f\n      and\n      dup3\n      add\n      swap2\n    tag_203:\n      pop\n      pop\n      pop\n      pop\n      pop\n      swap1\n      pop\n        /* \"ERC721.sol\":2862:2987  function tokenURI(uint256 tokenId) public override view returns (string memory) {\r... */\n      swap2\n      swap1\n      pop\n      jump\t// out\n        /* \"ERC721.sol\":4230:4386  function isApprovedForAll(address owner, address operator) public override view returns (bool) {\r... */\n    tag_98:\n        /* \"ERC721.sol\":4319:4323  bool */\n      0x00\n        /* \"ERC721.sol\":4343:4361  _operatorApprovals */\n      0x02\n        /* \"ERC721.sol\":4343:4368  _operatorApprovals[owner] */\n      0x00\n        /* \"ERC721.sol\":4362:4367  owner */\n      dup5\n        /* \"ERC721.sol\":4343:4368  _operatorApprovals[owner] */\n      0xffffffffffffffffffffffffffffffffffffffff\n      and\n      0xffffffffffffffffffffffffffffffffffffffff\n      and\n      dup2\n      mstore\n      0x20\n      add\n      swap1\n      dup2\n      mstore\n      0x20\n      add\n      0x00\n      keccak256\n        /* \"ERC721.sol\":4343:4378  _operatorApprovals[owner][operator] */\n      0x00\n        /* \"ERC721.sol\":4369:4377  operator */\n      dup4\n        /* \"ERC721.sol\":4343:4378  _operatorApprovals[owner][operator] */\n      0xffffffffffffffffffffffffffffffffffffffff\n      and\n      0xffffffffffffffffffffffffffffffffffffffff\n      and\n      dup2\n      mstore\n      0x20\n      add\n      swap1\n      dup2\n      mstore\n      0x20\n      add\n      0x00\n      keccak256\n      0x00\n      swap1\n      sload\n      swap1\n      0x0100\n      exp\n      swap1\n      div\n      0xff\n      and\n        /* \"ERC721.sol\":4336:4378  return _operatorApprovals[owner][operator] */\n      swap1\n      pop\n        /* \"ERC721.sol\":4230:4386  function isApprovedForAll(address owner, address operator) public override view returns (bool) {\r... */\n      swap3\n      swap2\n      pop\n      pop\n      jump\t// out\n        /* \"ERC721.sol\":7484:7945  function _mint(address to, uint tokenId, string memory uri_) internal {\r... */\n    tag_105:\n        /* \"ERC721.sol\":7587:7588  0 */\n      0x00\n        /* \"ERC721.sol\":7573:7589  to != address(0) */\n      0xffffffffffffffffffffffffffffffffffffffff\n      and\n        /* \"ERC721.sol\":7573:7575  to */\n      dup4\n        /* \"ERC721.sol\":7573:7589  to != address(0) */\n      0xffffffffffffffffffffffffffffffffffffffff\n      and\n      eq\n      iszero\n        /* \"ERC721.sol\":7565:7614  require(to != address(0), \"mint to zero address\") */\n      tag_208\n      jumpi\n      mload(0x40)\n      0x08c379a000000000000000000000000000000000000000000000000000000000\n      dup2\n      mstore\n      0x04\n      add\n      tag_209\n      swap1\n      tag_210\n      jump\t// in\n    tag_209:\n      mload(0x40)\n      dup1\n      swap2\n      sub\n      swap1\n      revert\n    tag_208:\n        /* \"ERC721.sol\":7661:7662  0 */\n      0x00\n        /* \"ERC721.sol\":7633:7663  _owners[tokenId] == address(0) */\n      0xffffffffffffffffffffffffffffffffffffffff\n      and\n        /* \"ERC721.sol\":7633:7640  _owners */\n      0x01\n        /* \"ERC721.sol\":7633:7649  _owners[tokenId] */\n      0x00\n        /* \"ERC721.sol\":7641:7648  tokenId */\n      dup5\n        /* \"ERC721.sol\":7633:7649  _owners[tokenId] */\n      dup2\n      mstore\n      0x20\n      add\n      swap1\n      dup2\n      mstore\n      0x20\n      add\n      0x00\n      keccak256\n      0x00\n      swap1\n      sload\n      swap1\n      0x0100\n      exp\n      swap1\n      div\n      0xffffffffffffffffffffffffffffffffffffffff\n      and\n        /* \"ERC721.sol\":7633:7663  _owners[tokenId] == address(0) */\n      0xffffffffffffffffffffffffffffffffffffffff\n      and\n      eq\n        /* \"ERC721.sol\":7625:7688  require(_owners[tokenId] == address(0), \"token already minted\") */\n      tag_211\n      jumpi\n      mload(0x40)\n      0x08c379a000000000000000000000000000000000000000000000000000000000\n      dup2\n      mstore\n      0x04\n      add\n      tag_212\n      swap1\n      tag_213\n      jump\t// in\n    tag_212:\n      mload(0x40)\n      dup1\n      swap2\n      sub\n      swap1\n      revert\n    tag_211:\n        /* \"ERC721.sol\":7718:7719  1 */\n      0x01\n        /* \"ERC721.sol\":7701:7710  _balances */\n      0x00\n        /* \"ERC721.sol\":7701:7714  _balances[to] */\n      dup1\n        /* \"ERC721.sol\":7711:7713  to */\n      dup6\n        /* \"ERC721.sol\":7701:7714  _balances[to] */\n      0xffffffffffffffffffffffffffffffffffffffff\n      and\n      0xffffffffffffffffffffffffffffffffffffffff\n      and\n      dup2\n      mstore\n      0x20\n      add\n      swap1\n      dup2\n      mstore\n      0x20\n      add\n      0x00\n      keccak256\n      0x00\n        /* \"ERC721.sol\":7701:7719  _balances[to] += 1 */\n      dup3\n      dup3\n      sload\n      tag_214\n      swap2\n      swap1\n      tag_158\n      jump\t// in\n    tag_214:\n      swap3\n      pop\n      pop\n      dup2\n      swap1\n      sstore\n      pop\n        /* \"ERC721.sol\":7749:7751  to */\n      dup3\n        /* \"ERC721.sol\":7730:7737  _owners */\n      0x01\n        /* \"ERC721.sol\":7730:7746  _owners[tokenId] */\n      0x00\n        /* \"ERC721.sol\":7738:7745  tokenId */\n      dup5\n        /* \"ERC721.sol\":7730:7746  _owners[tokenId] */\n      dup2\n      mstore\n      0x20\n      add\n      swap1\n      dup2\n      mstore\n      0x20\n      add\n      0x00\n      keccak256\n      0x00\n        /* \"ERC721.sol\":7730:7751  _owners[tokenId] = to */\n      0x0100\n      exp\n      dup2\n      sload\n      dup2\n      0xffffffffffffffffffffffffffffffffffffffff\n      mul\n      not\n      and\n      swap1\n      dup4\n      0xffffffffffffffffffffffffffffffffffffffff\n      and\n      mul\n      or\n      swap1\n      sstore\n      pop\n        /* \"ERC721.sol\":7784:7788  uri_ */\n      dup1\n        /* \"ERC721.sol\":7762:7772  _tokenURIs */\n      0x06\n        /* \"ERC721.sol\":7762:7781  _tokenURIs[tokenId] */\n      0x00\n        /* \"ERC721.sol\":7773:7780  tokenId */\n      dup5\n        /* \"ERC721.sol\":7762:7781  _tokenURIs[tokenId] */\n      dup2\n      mstore\n      0x20\n      add\n      swap1\n      dup2\n      mstore\n      0x20\n      add\n      0x00\n      keccak256\n        /* \"ERC721.sol\":7762:7788  _tokenURIs[tokenId] = uri_ */\n      swap1\n      dup1\n      mload\n      swap1\n      0x20\n      add\n      swap1\n      tag_215\n      swap3\n      swap2\n      swap1\n      tag_216\n      jump\t// in\n    tag_215:\n      pop\n        /* \"ERC721.sol\":7831:7838  tokenId */\n      dup2\n        /* \"ERC721.sol\":7827:7829  to */\n      dup4\n        /* \"ERC721.sol\":7806:7839  Transfer(address(0), to, tokenId) */\n      0xffffffffffffffffffffffffffffffffffffffff\n      and\n        /* \"ERC721.sol\":7823:7824  0 */\n      0x00\n        /* \"ERC721.sol\":7806:7839  Transfer(address(0), to, tokenId) */\n      0xffffffffffffffffffffffffffffffffffffffff\n      and\n      0xddf252ad1be2c89b69c2b068fc378daa952ba7f163c4a11628f55a4df523b3ef\n      mload(0x40)\n      mload(0x40)\n      dup1\n      swap2\n      sub\n      swap1\n      log4\n        /* \"ERC721.sol\":7852:7886  _addTokenToAllEnumeration(tokenId) */\n      tag_217\n        /* \"ERC721.sol\":7878:7885  tokenId */\n      dup3\n        /* \"ERC721.sol\":7852:7877  _addTokenToAllEnumeration */\n      tag_218\n        /* \"ERC721.sol\":7852:7886  _addTokenToAllEnumeration(tokenId) */\n      jump\t// in\n    tag_217:\n        /* \"ERC721.sol\":7897:7937  _addTokenToOwnerEnumeration(to, tokenId) */\n      tag_219\n        /* \"ERC721.sol\":7925:7927  to */\n      dup4\n        /* \"ERC721.sol\":7929:7936  tokenId */\n      dup4\n        /* \"ERC721.sol\":7897:7924  _addTokenToOwnerEnumeration */\n      tag_162\n        /* \"ERC721.sol\":7897:7937  _addTokenToOwnerEnumeration(to, tokenId) */\n      jump\t// in\n    tag_219:\n        /* \"ERC721.sol\":7484:7945  function _mint(address to, uint tokenId, string memory uri_) internal {\r... */\n      pop\n      pop\n      pop\n      jump\t// out\n        /* \"ERC721.sol\":6689:6877  function _approve(address to, uint tokenId) internal {\r... */\n    tag_133:\n        /* \"ERC721.sol\":6780:6782  to */\n      dup2\n        /* \"ERC721.sol\":6753:6768  _tokenApprovals */\n      0x03\n        /* \"ERC721.sol\":6753:6777  _tokenApprovals[tokenId] */\n      0x00\n        /* \"ERC721.sol\":6769:6776  tokenId */\n      dup4\n        /* \"ERC721.sol\":6753:6777  _tokenApprovals[tokenId] */\n      dup2\n      mstore\n      0x20\n      add\n      swap1\n      dup2\n      mstore\n      0x20\n      add\n      0x00\n      keccak256\n      0x00\n        /* \"ERC721.sol\":6753:6782  _tokenApprovals[tokenId] = to */\n      0x0100\n      exp\n      dup2\n      sload\n      dup2\n      0xffffffffffffffffffffffffffffffffffffffff\n      mul\n      not\n      and\n      swap1\n      dup4\n      0xffffffffffffffffffffffffffffffffffffffff\n      and\n      mul\n      or\n      swap1\n      sstore\n      pop\n        /* \"ERC721.sol\":6793:6806  address owner */\n      0x00\n        /* \"ERC721.sol\":6809:6825  ownerOf(tokenId) */\n      tag_221\n        /* \"ERC721.sol\":6817:6824  tokenId */\n      dup3\n        /* \"ERC721.sol\":6809:6816  ownerOf */\n      tag_73\n        /* \"ERC721.sol\":6809:6825  ownerOf(tokenId) */\n      jump\t// in\n    tag_221:\n        /* \"ERC721.sol\":6793:6825  address owner = ownerOf(tokenId) */\n      swap1\n      pop\n        /* \"ERC721.sol\":6861:6868  tokenId */\n      dup2\n        /* \"ERC721.sol\":6857:6859  to */\n      dup4\n        /* \"ERC721.sol\":6841:6869  Approval(owner, to, tokenId) */\n      0xffffffffffffffffffffffffffffffffffffffff\n      and\n        /* \"ERC721.sol\":6850:6855  owner */\n      dup3\n        /* \"ERC721.sol\":6841:6869  Approval(owner, to, tokenId) */\n      0xffffffffffffffffffffffffffffffffffffffff\n      and\n      0x8c5be1e5ebec7d5bd14f71427d1e84f3dd0314c0f7b2291e5b200ac8c7c3b925\n      mload(0x40)\n      mload(0x40)\n      dup1\n      swap2\n      sub\n      swap1\n      log4\n        /* \"ERC721.sol\":6742:6877  {\r... */\n      pop\n        /* \"ERC721.sol\":6689:6877  function _approve(address to, uint tokenId) internal {\r... */\n      pop\n      pop\n      jump\t// out\n        /* \"ERC721.sol\":9780:10260  function _removeTokenFromOwnerEnumeration(address owner, uint tokenId) private {\r... */\n    tag_160:\n        /* \"ERC721.sol\":9870:9880  uint index */\n      0x00\n        /* \"ERC721.sol\":9883:9900  _ownedTokensIndex */\n      0x08\n        /* \"ERC721.sol\":9883:9909  _ownedTokensIndex[tokenId] */\n      0x00\n        /* \"ERC721.sol\":9901:9908  tokenId */\n      dup4\n        /* \"ERC721.sol\":9883:9909  _ownedTokensIndex[tokenId] */\n      dup2\n      mstore\n      0x20\n      add\n      swap1\n      dup2\n      mstore\n      0x20\n      add\n      0x00\n      keccak256\n      sload\n        /* \"ERC721.sol\":9870:9909  uint index = _ownedTokensIndex[tokenId] */\n      swap1\n      pop\n        /* \"ERC721.sol\":9920:9934  uint indexLast */\n      0x00\n        /* \"ERC721.sol\":9937:9946  _balances */\n      dup1\n        /* \"ERC721.sol\":9937:9953  _balances[owner] */\n      0x00\n        /* \"ERC721.sol\":9947:9952  owner */\n      dup6\n        /* \"ERC721.sol\":9937:9953  _balances[owner] */\n      0xffffffffffffffffffffffffffffffffffffffff\n      and\n      0xffffffffffffffffffffffffffffffffffffffff\n      and\n      dup2\n      mstore\n      0x20\n      add\n      swap1\n      dup2\n      mstore\n      0x20\n      add\n      0x00\n      keccak256\n      sload\n        /* \"ERC721.sol\":9920:9953  uint indexLast = _balances[owner] */\n      swap1\n      pop\n        /* \"ERC721.sol\":9977:9986  indexLast */\n      dup1\n        /* \"ERC721.sol\":9969:9974  index */\n      dup3\n        /* \"ERC721.sol\":9969:9986  index < indexLast */\n      lt\n        /* \"ERC721.sol\":9966:10159  if(index < indexLast) {\r... */\n      iszero\n      tag_223\n      jumpi\n        /* \"ERC721.sol\":10003:10014  uint idLast */\n      0x00\n        /* \"ERC721.sol\":10017:10029  _ownedTokens */\n      0x07\n        /* \"ERC721.sol\":10017:10036  _ownedTokens[owner] */\n      0x00\n        /* \"ERC721.sol\":10030:10035  owner */\n      dup7\n        /* \"ERC721.sol\":10017:10036  _ownedTokens[owner] */\n      0xffffffffffffffffffffffffffffffffffffffff\n      and\n      0xffffffffffffffffffffffffffffffffffffffff\n      and\n      dup2\n      mstore\n      0x20\n      add\n      swap1\n      dup2\n      mstore\n      0x20\n      add\n      0x00\n      keccak256\n        /* \"ERC721.sol\":10017:10047  _ownedTokens[owner][indexLast] */\n      0x00\n        /* \"ERC721.sol\":10037:10046  indexLast */\n      dup4\n        /* \"ERC721.sol\":10017:10047  _ownedTokens[owner][indexLast] */\n      dup2\n      mstore\n      0x20\n      add\n      swap1\n      dup2\n      mstore\n      0x20\n      add\n      0x00\n      keccak256\n      sload\n        /* \"ERC721.sol\":10003:10047  uint idLast = _ownedTokens[owner][indexLast] */\n      swap1\n      pop\n        /* \"ERC721.sol\":10093:10099  idLast */\n      dup1\n        /* \"ERC721.sol\":10064:10076  _ownedTokens */\n      0x07\n        /* \"ERC721.sol\":10064:10083  _ownedTokens[owner] */\n      0x00\n        /* \"ERC721.sol\":10077:10082  owner */\n      dup8\n        /* \"ERC721.sol\":10064:10083  _ownedTokens[owner] */\n      0xffffffffffffffffffffffffffffffffffffffff\n      and\n      0xffffffffffffffffffffffffffffffffffffffff\n      and\n      dup2\n      mstore\n      0x20\n      add\n      swap1\n      dup2\n      mstore\n      0x20\n      add\n      0x00\n      keccak256\n        /* \"ERC721.sol\":10064:10090  _ownedTokens[owner][index] */\n      0x00\n        /* \"ERC721.sol\":10084:10089  index */\n      dup6\n        /* \"ERC721.sol\":10064:10090  _ownedTokens[owner][index] */\n      dup2\n      mstore\n      0x20\n      add\n      swap1\n      dup2\n      mstore\n      0x20\n      add\n      0x00\n      keccak256\n        /* \"ERC721.sol\":10064:10099  _ownedTokens[owner][index] = idLast */\n      dup2\n      swap1\n      sstore\n      pop\n        /* \"ERC721.sol\":10142:10147  index */\n      dup3\n        /* \"ERC721.sol\":10114:10131  _ownedTokensIndex */\n      0x08\n        /* \"ERC721.sol\":10114:10139  _ownedTokensIndex[idLast] */\n      0x00\n        /* \"ERC721.sol\":10132:10138  idLast */\n      dup4\n        /* \"ERC721.sol\":10114:10139  _ownedTokensIndex[idLast] */\n      dup2\n      mstore\n      0x20\n      add\n      swap1\n      dup2\n      mstore\n      0x20\n      add\n      0x00\n      keccak256\n        /* \"ERC721.sol\":10114:10147  _ownedTokensIndex[idLast] = index */\n      dup2\n      swap1\n      sstore\n      pop\n        /* \"ERC721.sol\":9988:10159  {\r... */\n      pop\n        /* \"ERC721.sol\":9966:10159  if(index < indexLast) {\r... */\n    tag_223:\n        /* \"ERC721.sol\":10178:10190  _ownedTokens */\n      0x07\n        /* \"ERC721.sol\":10178:10197  _ownedTokens[owner] */\n      0x00\n        /* \"ERC721.sol\":10191:10196  owner */\n      dup6\n        /* \"ERC721.sol\":10178:10197  _ownedTokens[owner] */\n      0xffffffffffffffffffffffffffffffffffffffff\n      and\n      0xffffffffffffffffffffffffffffffffffffffff\n      and\n      dup2\n      mstore\n      0x20\n      add\n      swap1\n      dup2\n      mstore\n      0x20\n      add\n      0x00\n      keccak256\n        /* \"ERC721.sol\":10178:10208  _ownedTokens[owner][indexLast] */\n      0x00\n        /* \"ERC721.sol\":10198:10207  indexLast */\n      dup3\n        /* \"ERC721.sol\":10178:10208  _ownedTokens[owner][indexLast] */\n      dup2\n      mstore\n      0x20\n      add\n      swap1\n      dup2\n      mstore\n      0x20\n      add\n      0x00\n      keccak256\n        /* \"ERC721.sol\":10171:10208  delete _ownedTokens[owner][indexLast] */\n      0x00\n      swap1\n      sstore\n        /* \"ERC721.sol\":10226:10243  _ownedTokensIndex */\n      0x08\n        /* \"ERC721.sol\":10226:10252  _ownedTokensIndex[tokenId] */\n      0x00\n        /* \"ERC721.sol\":10244:10251  tokenId */\n      dup5\n        /* \"ERC721.sol\":10226:10252  _ownedTokensIndex[tokenId] */\n      dup2\n      mstore\n      0x20\n      add\n      swap1\n      dup2\n      mstore\n      0x20\n      add\n      0x00\n      keccak256\n        /* \"ERC721.sol\":10219:10252  delete _ownedTokensIndex[tokenId] */\n      0x00\n      swap1\n      sstore\n        /* \"ERC721.sol\":9859:10260  {\r... */\n      pop\n      pop\n        /* \"ERC721.sol\":9780:10260  function _removeTokenFromOwnerEnumeration(address owner, uint tokenId) private {\r... */\n      pop\n      pop\n      jump\t// out\n        /* \"ERC721.sol\":9554:9772  function _addTokenToOwnerEnumeration(address owner, uint tokenId) private {\r... */\n    tag_162:\n        /* \"ERC721.sol\":9639:9649  uint index */\n      0x00\n        /* \"ERC721.sol\":9671:9672  1 */\n      0x01\n        /* \"ERC721.sol\":9652:9661  _balances */\n      0x00\n        /* \"ERC721.sol\":9652:9668  _balances[owner] */\n      dup1\n        /* \"ERC721.sol\":9662:9667  owner */\n      dup6\n        /* \"ERC721.sol\":9652:9668  _balances[owner] */\n      0xffffffffffffffffffffffffffffffffffffffff\n      and\n      0xffffffffffffffffffffffffffffffffffffffff\n      and\n      dup2\n      mstore\n      0x20\n      add\n      swap1\n      dup2\n      mstore\n      0x20\n      add\n      0x00\n      keccak256\n      sload\n        /* \"ERC721.sol\":9652:9672  _balances[owner] - 1 */\n      tag_225\n      swap2\n      swap1\n      tag_156\n      jump\t// in\n    tag_225:\n        /* \"ERC721.sol\":9639:9672  uint index = _balances[owner] - 1 */\n      swap1\n      pop\n        /* \"ERC721.sol\":9712:9719  tokenId */\n      dup2\n        /* \"ERC721.sol\":9683:9695  _ownedTokens */\n      0x07\n        /* \"ERC721.sol\":9683:9702  _ownedTokens[owner] */\n      0x00\n        /* \"ERC721.sol\":9696:9701  owner */\n      dup6\n        /* \"ERC721.sol\":9683:9702  _ownedTokens[owner] */\n      0xffffffffffffffffffffffffffffffffffffffff\n      and\n      0xffffffffffffffffffffffffffffffffffffffff\n      and\n      dup2\n      mstore\n      0x20\n      add\n      swap1\n      dup2\n      mstore\n      0x20\n      add\n      0x00\n      keccak256\n        /* \"ERC721.sol\":9683:9709  _ownedTokens[owner][index] */\n      0x00\n        /* \"ERC721.sol\":9703:9708  index */\n      dup4\n        /* \"ERC721.sol\":9683:9709  _ownedTokens[owner][index] */\n      dup2\n      mstore\n      0x20\n      add\n      swap1\n      dup2\n      mstore\n      0x20\n      add\n      0x00\n      keccak256\n        /* \"ERC721.sol\":9683:9719  _ownedTokens[owner][index] = tokenId */\n      dup2\n      swap1\n      sstore\n      pop\n        /* \"ERC721.sol\":9759:9764  index */\n      dup1\n        /* \"ERC721.sol\":9730:9747  _ownedTokensIndex */\n      0x08\n        /* \"ERC721.sol\":9730:9756  _ownedTokensIndex[tokenId] */\n      0x00\n        /* \"ERC721.sol\":9748:9755  tokenId */\n      dup5\n        /* \"ERC721.sol\":9730:9756  _ownedTokensIndex[tokenId] */\n      dup2\n      mstore\n      0x20\n      add\n      swap1\n      dup2\n      mstore\n      0x20\n      add\n      0x00\n      keccak256\n        /* \"ERC721.sol\":9730:9764  _ownedTokensIndex[tokenId] = index */\n      dup2\n      swap1\n      sstore\n      pop\n        /* \"ERC721.sol\":9628:9772  {\r... */\n      pop\n        /* \"ERC721.sol\":9554:9772  function _addTokenToOwnerEnumeration(address owner, uint tokenId) private {\r... */\n      pop\n      pop\n      jump\t// out\n        /* \"ERC721.sol\":6889:7476  function _checkOnERC721Received(address from, address to, uint tokenId, bytes memory data) private returns(bool) {\r... */\n    tag_196:\n        /* \"ERC721.sol\":6996:7000  bool */\n      0x00\n        /* \"ERC721.sol\":7035:7036  0 */\n      dup1\n        /* \"ERC721.sol\":7017:7019  to */\n      dup5\n        /* \"ERC721.sol\":7017:7031  to.code.length */\n      0xffffffffffffffffffffffffffffffffffffffff\n      and\n      extcodesize\n        /* \"ERC721.sol\":7017:7036  to.code.length <= 0 */\n      gt\n        /* \"ERC721.sol\":7013:7049  if (to.code.length <= 0) return true */\n      tag_227\n      jumpi\n        /* \"ERC721.sol\":7045:7049  true */\n      0x01\n        /* \"ERC721.sol\":7038:7049  return true */\n      swap1\n      pop\n      jump(tag_226)\n        /* \"ERC721.sol\":7013:7049  if (to.code.length <= 0) return true */\n    tag_227:\n        /* \"ERC721.sol\":7062:7091  IERC721TokenReceiver receiver */\n      0x00\n        /* \"ERC721.sol\":7115:7117  to */\n      dup5\n        /* \"ERC721.sol\":7062:7118  IERC721TokenReceiver receiver = IERC721TokenReceiver(to) */\n      swap1\n      pop\n        /* \"ERC721.sol\":7133:7141  receiver */\n      dup1\n        /* \"ERC721.sol\":7133:7158  receiver.onERC721Received */\n      0xffffffffffffffffffffffffffffffffffffffff\n      and\n      0x150b7a02\n        /* \"ERC721.sol\":7159:7169  msg.sender */\n      caller\n        /* \"ERC721.sol\":7171:7175  from */\n      dup9\n        /* \"ERC721.sol\":7177:7184  tokenId */\n      dup8\n        /* \"ERC721.sol\":7186:7190  data */\n      dup8\n        /* \"ERC721.sol\":7133:7191  receiver.onERC721Received(msg.sender, from, tokenId, data) */\n      mload(0x40)\n      dup6\n      0xffffffff\n      and\n      0xe0\n      shl\n      dup2\n      mstore\n      0x04\n      add\n      tag_228\n      swap5\n      swap4\n      swap3\n      swap2\n      swap1\n      tag_229\n      jump\t// in\n    tag_228:\n      0x20\n      mload(0x40)\n      dup1\n      dup4\n      sub\n      dup2\n      0x00\n      dup8\n      dup1\n      extcodesize\n      iszero\n      dup1\n      iszero\n      tag_230\n      jumpi\n      0x00\n      dup1\n      revert\n    tag_230:\n      pop\n      gas\n      call\n      swap3\n      pop\n      pop\n      pop\n      dup1\n      iszero\n      tag_231\n      jumpi\n      pop\n      mload(0x40)\n      returndatasize\n      not(0x1f)\n      0x1f\n      dup3\n      add\n      and\n      dup3\n      add\n      dup1\n      0x40\n      mstore\n      pop\n      dup2\n      add\n      swap1\n      tag_232\n      swap2\n      swap1\n      tag_233\n      jump\t// in\n    tag_232:\n      0x01\n    tag_231:\n        /* \"ERC721.sol\":7129:7469  try receiver.onERC721Received(msg.sender, from, tokenId, data) returns(bytes4 interfaceId) {\r... */\n      tag_234\n      jumpi\n      tag_238\n      tag_239\n      jump\t// in\n    tag_238:\n      dup1\n      0x08c379a0\n      eq\n      iszero\n      tag_237\n      jumpi\n      pop\n      tag_240\n      tag_241\n      jump\t// in\n    tag_240:\n      dup1\n      tag_242\n      jumpi\n      pop\n      jump(tag_236)\n    tag_242:\n        /* \"ERC721.sol\":7364:7370  reason */\n      dup1\n        /* \"ERC721.sol\":7357:7371  revert(reason) */\n      mload(0x40)\n      0x08c379a000000000000000000000000000000000000000000000000000000000\n      dup2\n      mstore\n      0x04\n      add\n      tag_243\n      swap2\n      swap1\n      tag_37\n      jump\t// in\n    tag_243:\n      mload(0x40)\n      dup1\n      swap2\n      sub\n      swap1\n      revert\n        /* \"ERC721.sol\":7129:7469  try receiver.onERC721Received(msg.sender, from, tokenId, data) returns(bytes4 interfaceId) {\r... */\n    tag_237:\n      pop\n    tag_236:\n        /* \"ERC721.sol\":7405:7457  revert(\"transfer to non ERC721Receiver implementer\") */\n      mload(0x40)\n      0x08c379a000000000000000000000000000000000000000000000000000000000\n      dup2\n      mstore\n      0x04\n      add\n      tag_244\n      swap1\n      tag_199\n      jump\t// in\n    tag_244:\n      mload(0x40)\n      dup1\n      swap2\n      sub\n      swap1\n      revert\n        /* \"ERC721.sol\":7129:7469  try receiver.onERC721Received(msg.sender, from, tokenId, data) returns(bytes4 interfaceId) {\r... */\n    tag_234:\n        /* \"ERC721.sol\":7257:7295  type(IERC721TokenReceiver).interfaceId */\n      0x150b7a0200000000000000000000000000000000000000000000000000000000\n        /* \"ERC721.sol\":7242:7295  interfaceId == type(IERC721TokenReceiver).interfaceId */\n      not(0xffffffffffffffffffffffffffffffffffffffffffffffffffffffff)\n      and\n        /* \"ERC721.sol\":7242:7253  interfaceId */\n      dup2\n        /* \"ERC721.sol\":7242:7295  interfaceId == type(IERC721TokenReceiver).interfaceId */\n      not(0xffffffffffffffffffffffffffffffffffffffffffffffffffffffff)\n      and\n      eq\n        /* \"ERC721.sol\":7235:7295  return interfaceId == type(IERC721TokenReceiver).interfaceId */\n      swap3\n      pop\n      pop\n      pop\n        /* \"ERC721.sol\":6889:7476  function _checkOnERC721Received(address from, address to, uint tokenId, bytes memory data) private returns(bool) {\r... */\n    tag_226:\n      swap5\n      swap4\n      pop\n      pop\n      pop\n      pop\n      jump\t// out\n        /* \"ERC721.sol\":8932:9091  function _addTokenToAllEnumeration(uint tokenId) private {\r... */\n    tag_218:\n        /* \"ERC721.sol\":9000:9010  _allTokens */\n      0x09\n        /* \"ERC721.sol\":9016:9023  tokenId */\n      dup2\n        /* \"ERC721.sol\":9000:9024  _allTokens.push(tokenId) */\n      swap1\n      dup1\n      0x01\n      dup2\n      sload\n      add\n      dup1\n      dup3\n      sstore\n      dup1\n      swap2\n      pop\n      pop\n      0x01\n      swap1\n      sub\n      swap1\n      0x00\n      mstore\n      keccak256(0x00, 0x20)\n      add\n      0x00\n      swap1\n      swap2\n      swap1\n      swap2\n      swap1\n      swap2\n      pop\n      sstore\n        /* \"ERC721.sol\":9082:9083  1 */\n      0x01\n        /* \"ERC721.sol\":9062:9072  _allTokens */\n      0x09\n        /* \"ERC721.sol\":9062:9079  _allTokens.length */\n      dup1\n      sload\n      swap1\n      pop\n        /* \"ERC721.sol\":9062:9083  _allTokens.length - 1 */\n      tag_248\n      swap2\n      swap1\n      tag_156\n      jump\t// in\n    tag_248:\n        /* \"ERC721.sol\":9035:9050  _allTokensIndex */\n      0x0a\n        /* \"ERC721.sol\":9035:9059  _allTokensIndex[tokenId] */\n      0x00\n        /* \"ERC721.sol\":9051:9058  tokenId */\n      dup4\n        /* \"ERC721.sol\":9035:9059  _allTokensIndex[tokenId] */\n      dup2\n      mstore\n      0x20\n      add\n      swap1\n      dup2\n      mstore\n      0x20\n      add\n      0x00\n      keccak256\n        /* \"ERC721.sol\":9035:9083  _allTokensIndex[tokenId] = _allTokens.length - 1 */\n      dup2\n      swap1\n      sstore\n      pop\n        /* \"ERC721.sol\":8932:9091  function _addTokenToAllEnumeration(uint tokenId) private {\r... */\n      pop\n      jump\t// out\n    tag_216:\n      dup3\n      dup1\n      sload\n      tag_249\n      swap1\n      tag_113\n      jump\t// in\n    tag_249:\n      swap1\n      0x00\n      mstore\n      keccak256(0x00, 0x20)\n      swap1\n      0x1f\n      add\n      0x20\n      swap1\n      div\n      dup2\n      add\n      swap3\n      dup3\n      tag_251\n      jumpi\n      0x00\n      dup6\n      sstore\n      jump(tag_250)\n    tag_251:\n      dup3\n      0x1f\n      lt\n      tag_252\n      jumpi\n      dup1\n      mload\n      not(0xff)\n      and\n      dup4\n      dup1\n      add\n      or\n      dup6\n      sstore\n      jump(tag_250)\n    tag_252:\n      dup3\n      dup1\n      add\n      0x01\n      add\n      dup6\n      sstore\n      dup3\n      iszero\n      tag_250\n      jumpi\n      swap2\n      dup3\n      add\n    tag_253:\n      dup3\n      dup2\n      gt\n      iszero\n      tag_254\n      jumpi\n      dup3\n      mload\n      dup3\n      sstore\n      swap2\n      0x20\n      add\n      swap2\n      swap1\n      0x01\n      add\n      swap1\n      jump(tag_253)\n    tag_254:\n    tag_250:\n      pop\n      swap1\n      pop\n      tag_255\n      swap2\n      swap1\n      tag_256\n      jump\t// in\n    tag_255:\n      pop\n      swap1\n      jump\t// out\n    tag_256:\n    tag_257:\n      dup1\n      dup3\n      gt\n      iszero\n      tag_258\n      jumpi\n      0x00\n      dup2\n      0x00\n      swap1\n      sstore\n      pop\n      0x01\n      add\n      jump(tag_257)\n    tag_258:\n      pop\n      swap1\n      jump\t// out\n        /* \"#utility.yul\":7:417   */\n    tag_260:\n        /* \"#utility.yul\":84:89   */\n      0x00\n        /* \"#utility.yul\":109:174   */\n      tag_262\n        /* \"#utility.yul\":125:173   */\n      tag_263\n        /* \"#utility.yul\":166:172   */\n      dup5\n        /* \"#utility.yul\":125:173   */\n      tag_264\n      jump\t// in\n    tag_263:\n        /* \"#utility.yul\":109:174   */\n      tag_265\n      jump\t// in\n    tag_262:\n        /* \"#utility.yul\":100:174   */\n      swap1\n      pop\n        /* \"#utility.yul\":197:203   */\n      dup3\n        /* \"#utility.yul\":190:195   */\n      dup2\n        /* \"#utility.yul\":183:204   */\n      mstore\n        /* \"#utility.yul\":235:239   */\n      0x20\n        /* \"#utility.yul\":228:233   */\n      dup2\n        /* \"#utility.yul\":224:240   */\n      add\n        /* \"#utility.yul\":273:276   */\n      dup5\n        /* \"#utility.yul\":264:270   */\n      dup5\n        /* \"#utility.yul\":259:262   */\n      dup5\n        /* \"#utility.yul\":255:271   */\n      add\n        /* \"#utility.yul\":252:277   */\n      gt\n        /* \"#utility.yul\":249:361   */\n      iszero\n      tag_266\n      jumpi\n        /* \"#utility.yul\":280:359   */\n      tag_267\n      tag_268\n      jump\t// in\n    tag_267:\n        /* \"#utility.yul\":249:361   */\n    tag_266:\n        /* \"#utility.yul\":370:411   */\n      tag_269\n        /* \"#utility.yul\":404:410   */\n      dup5\n        /* \"#utility.yul\":399:402   */\n      dup3\n        /* \"#utility.yul\":394:397   */\n      dup6\n        /* \"#utility.yul\":370:411   */\n      tag_270\n      jump\t// in\n    tag_269:\n        /* \"#utility.yul\":90:417   */\n      pop\n        /* \"#utility.yul\":7:417   */\n      swap4\n      swap3\n      pop\n      pop\n      pop\n      jump\t// out\n        /* \"#utility.yul\":423:835   */\n    tag_271:\n        /* \"#utility.yul\":501:506   */\n      0x00\n        /* \"#utility.yul\":526:592   */\n      tag_273\n        /* \"#utility.yul\":542:591   */\n      tag_274\n        /* \"#utility.yul\":584:590   */\n      dup5\n        /* \"#utility.yul\":542:591   */\n      tag_275\n      jump\t// in\n    tag_274:\n        /* \"#utility.yul\":526:592   */\n      tag_265\n      jump\t// in\n    tag_273:\n        /* \"#utility.yul\":517:592   */\n      swap1\n      pop\n        /* \"#utility.yul\":615:621   */\n      dup3\n        /* \"#utility.yul\":608:613   */\n      dup2\n        /* \"#utility.yul\":601:622   */\n      mstore\n        /* \"#utility.yul\":653:657   */\n      0x20\n        /* \"#utility.yul\":646:651   */\n      dup2\n        /* \"#utility.yul\":642:658   */\n      add\n        /* \"#utility.yul\":691:694   */\n      dup5\n        /* \"#utility.yul\":682:688   */\n      dup5\n        /* \"#utility.yul\":677:680   */\n      dup5\n        /* \"#utility.yul\":673:689   */\n      add\n        /* \"#utility.yul\":670:695   */\n      gt\n        /* \"#utility.yul\":667:779   */\n      iszero\n      tag_276\n      jumpi\n        /* \"#utility.yul\":698:777   */\n      tag_277\n      tag_268\n      jump\t// in\n    tag_277:\n        /* \"#utility.yul\":667:779   */\n    tag_276:\n        /* \"#utility.yul\":788:829   */\n      tag_278\n        /* \"#utility.yul\":822:828   */\n      dup5\n        /* \"#utility.yul\":817:820   */\n      dup3\n        /* \"#utility.yul\":812:815   */\n      dup6\n        /* \"#utility.yul\":788:829   */\n      tag_270\n      jump\t// in\n    tag_278:\n        /* \"#utility.yul\":507:835   */\n      pop\n        /* \"#utility.yul\":423:835   */\n      swap4\n      swap3\n      pop\n      pop\n      pop\n      jump\t// out\n        /* \"#utility.yul\":841:980   */\n    tag_279:\n        /* \"#utility.yul\":887:892   */\n      0x00\n        /* \"#utility.yul\":925:931   */\n      dup2\n        /* \"#utility.yul\":912:932   */\n      calldataload\n        /* \"#utility.yul\":903:932   */\n      swap1\n      pop\n        /* \"#utility.yul\":941:974   */\n      tag_281\n        /* \"#utility.yul\":968:973   */\n      dup2\n        /* \"#utility.yul\":941:974   */\n      tag_282\n      jump\t// in\n    tag_281:\n        /* \"#utility.yul\":841:980   */\n      swap3\n      swap2\n      pop\n      pop\n      jump\t// out\n        /* \"#utility.yul\":986:1119   */\n    tag_283:\n        /* \"#utility.yul\":1029:1034   */\n      0x00\n        /* \"#utility.yul\":1067:1073   */\n      dup2\n        /* \"#utility.yul\":1054:1074   */\n      calldataload\n        /* \"#utility.yul\":1045:1074   */\n      swap1\n      pop\n        /* \"#utility.yul\":1083:1113   */\n      tag_285\n        /* \"#utility.yul\":1107:1112   */\n      dup2\n        /* \"#utility.yul\":1083:1113   */\n      tag_286\n      jump\t// in\n    tag_285:\n        /* \"#utility.yul\":986:1119   */\n      swap3\n      swap2\n      pop\n      pop\n      jump\t// out\n        /* \"#utility.yul\":1125:1262   */\n    tag_287:\n        /* \"#utility.yul\":1170:1175   */\n      0x00\n        /* \"#utility.yul\":1208:1214   */\n      dup2\n        /* \"#utility.yul\":1195:1215   */\n      calldataload\n        /* \"#utility.yul\":1186:1215   */\n      swap1\n      pop\n        /* \"#utility.yul\":1224:1256   */\n      tag_289\n        /* \"#utility.yul\":1250:1255   */\n      dup2\n        /* \"#utility.yul\":1224:1256   */\n      tag_290\n      jump\t// in\n    tag_289:\n        /* \"#utility.yul\":1125:1262   */\n      swap3\n      swap2\n      pop\n      pop\n      jump\t// out\n        /* \"#utility.yul\":1268:1409   */\n    tag_291:\n        /* \"#utility.yul\":1324:1329   */\n      0x00\n        /* \"#utility.yul\":1355:1361   */\n      dup2\n        /* \"#utility.yul\":1349:1362   */\n      mload\n        /* \"#utility.yul\":1340:1362   */\n      swap1\n      pop\n        /* \"#utility.yul\":1371:1403   */\n      tag_293\n        /* \"#utility.yul\":1397:1402   */\n      dup2\n        /* \"#utility.yul\":1371:1403   */\n      tag_290\n      jump\t// in\n    tag_293:\n        /* \"#utility.yul\":1268:1409   */\n      swap3\n      swap2\n      pop\n      pop\n      jump\t// out\n        /* \"#utility.yul\":1428:1766   */\n    tag_294:\n        /* \"#utility.yul\":1483:1488   */\n      0x00\n        /* \"#utility.yul\":1532:1535   */\n      dup3\n        /* \"#utility.yul\":1525:1529   */\n      0x1f\n        /* \"#utility.yul\":1517:1523   */\n      dup4\n        /* \"#utility.yul\":1513:1530   */\n      add\n        /* \"#utility.yul\":1509:1536   */\n      slt\n        /* \"#utility.yul\":1499:1621   */\n      tag_296\n      jumpi\n        /* \"#utility.yul\":1540:1619   */\n      tag_297\n      tag_298\n      jump\t// in\n    tag_297:\n        /* \"#utility.yul\":1499:1621   */\n    tag_296:\n        /* \"#utility.yul\":1657:1663   */\n      dup2\n        /* \"#utility.yul\":1644:1664   */\n      calldataload\n        /* \"#utility.yul\":1682:1760   */\n      tag_299\n        /* \"#utility.yul\":1756:1759   */\n      dup5\n        /* \"#utility.yul\":1748:1754   */\n      dup3\n        /* \"#utility.yul\":1741:1745   */\n      0x20\n        /* \"#utility.yul\":1733:1739   */\n      dup7\n        /* \"#utility.yul\":1729:1746   */\n      add\n        /* \"#utility.yul\":1682:1760   */\n      tag_260\n      jump\t// in\n    tag_299:\n        /* \"#utility.yul\":1673:1760   */\n      swap2\n      pop\n        /* \"#utility.yul\":1489:1766   */\n      pop\n        /* \"#utility.yul\":1428:1766   */\n      swap3\n      swap2\n      pop\n      pop\n      jump\t// out\n        /* \"#utility.yul\":1786:2126   */\n    tag_300:\n        /* \"#utility.yul\":1842:1847   */\n      0x00\n        /* \"#utility.yul\":1891:1894   */\n      dup3\n        /* \"#utility.yul\":1884:1888   */\n      0x1f\n        /* \"#utility.yul\":1876:1882   */\n      dup4\n        /* \"#utility.yul\":1872:1889   */\n      add\n        /* \"#utility.yul\":1868:1895   */\n      slt\n        /* \"#utility.yul\":1858:1980   */\n      tag_302\n      jumpi\n        /* \"#utility.yul\":1899:1978   */\n      tag_303\n      tag_298\n      jump\t// in\n    tag_303:\n        /* \"#utility.yul\":1858:1980   */\n    tag_302:\n        /* \"#utility.yul\":2016:2022   */\n      dup2\n        /* \"#utility.yul\":2003:2023   */\n      calldataload\n        /* \"#utility.yul\":2041:2120   */\n      tag_304\n        /* \"#utility.yul\":2116:2119   */\n      dup5\n        /* \"#utility.yul\":2108:2114   */\n      dup3\n        /* \"#utility.yul\":2101:2105   */\n      0x20\n        /* \"#utility.yul\":2093:2099   */\n      dup7\n        /* \"#utility.yul\":2089:2106   */\n      add\n        /* \"#utility.yul\":2041:2120   */\n      tag_271\n      jump\t// in\n    tag_304:\n        /* \"#utility.yul\":2032:2120   */\n      swap2\n      pop\n        /* \"#utility.yul\":1848:2126   */\n      pop\n        /* \"#utility.yul\":1786:2126   */\n      swap3\n      swap2\n      pop\n      pop\n      jump\t// out\n        /* \"#utility.yul\":2132:2271   */\n    tag_305:\n        /* \"#utility.yul\":2178:2183   */\n      0x00\n        /* \"#utility.yul\":2216:2222   */\n      dup2\n        /* \"#utility.yul\":2203:2223   */\n      calldataload\n        /* \"#utility.yul\":2194:2223   */\n      swap1\n      pop\n        /* \"#utility.yul\":2232:2265   */\n      tag_307\n        /* \"#utility.yul\":2259:2264   */\n      dup2\n        /* \"#utility.yul\":2232:2265   */\n      tag_308\n      jump\t// in\n    tag_307:\n        /* \"#utility.yul\":2132:2271   */\n      swap3\n      swap2\n      pop\n      pop\n      jump\t// out\n        /* \"#utility.yul\":2277:2606   */\n    tag_77:\n        /* \"#utility.yul\":2336:2342   */\n      0x00\n        /* \"#utility.yul\":2385:2387   */\n      0x20\n        /* \"#utility.yul\":2373:2382   */\n      dup3\n        /* \"#utility.yul\":2364:2371   */\n      dup5\n        /* \"#utility.yul\":2360:2383   */\n      sub\n        /* \"#utility.yul\":2356:2388   */\n      slt\n        /* \"#utility.yul\":2353:2472   */\n      iszero\n      tag_310\n      jumpi\n        /* \"#utility.yul\":2391:2470   */\n      tag_311\n      tag_312\n      jump\t// in\n    tag_311:\n        /* \"#utility.yul\":2353:2472   */\n    tag_310:\n        /* \"#utility.yul\":2511:2512   */\n      0x00\n        /* \"#utility.yul\":2536:2589   */\n      tag_313\n        /* \"#utility.yul\":2581:2588   */\n      dup5\n        /* \"#utility.yul\":2572:2578   */\n      dup3\n        /* \"#utility.yul\":2561:2570   */\n      dup6\n        /* \"#utility.yul\":2557:2579   */\n      add\n        /* \"#utility.yul\":2536:2589   */\n      tag_279\n      jump\t// in\n    tag_313:\n        /* \"#utility.yul\":2526:2589   */\n      swap2\n      pop\n        /* \"#utility.yul\":2482:2599   */\n      pop\n        /* \"#utility.yul\":2277:2606   */\n      swap3\n      swap2\n      pop\n      pop\n      jump\t// out\n        /* \"#utility.yul\":2612:3086   */\n    tag_97:\n        /* \"#utility.yul\":2680:2686   */\n      0x00\n        /* \"#utility.yul\":2688:2694   */\n      dup1\n        /* \"#utility.yul\":2737:2739   */\n      0x40\n        /* \"#utility.yul\":2725:2734   */\n      dup4\n        /* \"#utility.yul\":2716:2723   */\n      dup6\n        /* \"#utility.yul\":2712:2735   */\n      sub\n        /* \"#utility.yul\":2708:2740   */\n      slt\n        /* \"#utility.yul\":2705:2824   */\n      iszero\n      tag_315\n      jumpi\n        /* \"#utility.yul\":2743:2822   */\n      tag_316\n      tag_312\n      jump\t// in\n    tag_316:\n        /* \"#utility.yul\":2705:2824   */\n    tag_315:\n        /* \"#utility.yul\":2863:2864   */\n      0x00\n        /* \"#utility.yul\":2888:2941   */\n      tag_317\n        /* \"#utility.yul\":2933:2940   */\n      dup6\n        /* \"#utility.yul\":2924:2930   */\n      dup3\n        /* \"#utility.yul\":2913:2922   */\n      dup7\n        /* \"#utility.yul\":2909:2931   */\n      add\n        /* \"#utility.yul\":2888:2941   */\n      tag_279\n      jump\t// in\n    tag_317:\n        /* \"#utility.yul\":2878:2941   */\n      swap3\n      pop\n        /* \"#utility.yul\":2834:2951   */\n      pop\n        /* \"#utility.yul\":2990:2992   */\n      0x20\n        /* \"#utility.yul\":3016:3069   */\n      tag_318\n        /* \"#utility.yul\":3061:3068   */\n      dup6\n        /* \"#utility.yul\":3052:3058   */\n      dup3\n        /* \"#utility.yul\":3041:3050   */\n      dup7\n        /* \"#utility.yul\":3037:3059   */\n      add\n        /* \"#utility.yul\":3016:3069   */\n      tag_279\n      jump\t// in\n    tag_318:\n        /* \"#utility.yul\":3006:3069   */\n      swap2\n      pop\n        /* \"#utility.yul\":2961:3079   */\n      pop\n        /* \"#utility.yul\":2612:3086   */\n      swap3\n      pop\n      swap3\n      swap1\n      pop\n      jump\t// out\n        /* \"#utility.yul\":3092:3711   */\n    tag_58:\n        /* \"#utility.yul\":3169:3175   */\n      0x00\n        /* \"#utility.yul\":3177:3183   */\n      dup1\n        /* \"#utility.yul\":3185:3191   */\n      0x00\n        /* \"#utility.yul\":3234:3236   */\n      0x60\n        /* \"#utility.yul\":3222:3231   */\n      dup5\n        /* \"#utility.yul\":3213:3220   */\n      dup7\n        /* \"#utility.yul\":3209:3232   */\n      sub\n        /* \"#utility.yul\":3205:3237   */\n      slt\n        /* \"#utility.yul\":3202:3321   */\n      iszero\n      tag_320\n      jumpi\n        /* \"#utility.yul\":3240:3319   */\n      tag_321\n      tag_312\n      jump\t// in\n    tag_321:\n        /* \"#utility.yul\":3202:3321   */\n    tag_320:\n        /* \"#utility.yul\":3360:3361   */\n      0x00\n        /* \"#utility.yul\":3385:3438   */\n      tag_322\n        /* \"#utility.yul\":3430:3437   */\n      dup7\n        /* \"#utility.yul\":3421:3427   */\n      dup3\n        /* \"#utility.yul\":3410:3419   */\n      dup8\n        /* \"#utility.yul\":3406:3428   */\n      add\n        /* \"#utility.yul\":3385:3438   */\n      tag_279\n      jump\t// in\n    tag_322:\n        /* \"#utility.yul\":3375:3438   */\n      swap4\n      pop\n        /* \"#utility.yul\":3331:3448   */\n      pop\n        /* \"#utility.yul\":3487:3489   */\n      0x20\n        /* \"#utility.yul\":3513:3566   */\n      tag_323\n        /* \"#utility.yul\":3558:3565   */\n      dup7\n        /* \"#utility.yul\":3549:3555   */\n      dup3\n        /* \"#utility.yul\":3538:3547   */\n      dup8\n        /* \"#utility.yul\":3534:3556   */\n      add\n        /* \"#utility.yul\":3513:3566   */\n      tag_279\n      jump\t// in\n    tag_323:\n        /* \"#utility.yul\":3503:3566   */\n      swap3\n      pop\n        /* \"#utility.yul\":3458:3576   */\n      pop\n        /* \"#utility.yul\":3615:3617   */\n      0x40\n        /* \"#utility.yul\":3641:3694   */\n      tag_324\n        /* \"#utility.yul\":3686:3693   */\n      dup7\n        /* \"#utility.yul\":3677:3683   */\n      dup3\n        /* \"#utility.yul\":3666:3675   */\n      dup8\n        /* \"#utility.yul\":3662:3684   */\n      add\n        /* \"#utility.yul\":3641:3694   */\n      tag_305\n      jump\t// in\n    tag_324:\n        /* \"#utility.yul\":3631:3694   */\n      swap2\n      pop\n        /* \"#utility.yul\":3586:3704   */\n      pop\n        /* \"#utility.yul\":3092:3711   */\n      swap3\n      pop\n      swap3\n      pop\n      swap3\n      jump\t// out\n        /* \"#utility.yul\":3717:4660   */\n    tag_89:\n        /* \"#utility.yul\":3812:3818   */\n      0x00\n        /* \"#utility.yul\":3820:3826   */\n      dup1\n        /* \"#utility.yul\":3828:3834   */\n      0x00\n        /* \"#utility.yul\":3836:3842   */\n      dup1\n        /* \"#utility.yul\":3885:3888   */\n      0x80\n        /* \"#utility.yul\":3873:3882   */\n      dup6\n        /* \"#utility.yul\":3864:3871   */\n      dup8\n        /* \"#utility.yul\":3860:3883   */\n      sub\n        /* \"#utility.yul\":3856:3889   */\n      slt\n        /* \"#utility.yul\":3853:3973   */\n      iszero\n      tag_326\n      jumpi\n        /* \"#utility.yul\":3892:3971   */\n      tag_327\n      tag_312\n      jump\t// in\n    tag_327:\n        /* \"#utility.yul\":3853:3973   */\n    tag_326:\n        /* \"#utility.yul\":4012:4013   */\n      0x00\n        /* \"#utility.yul\":4037:4090   */\n      tag_328\n        /* \"#utility.yul\":4082:4089   */\n      dup8\n        /* \"#utility.yul\":4073:4079   */\n      dup3\n        /* \"#utility.yul\":4062:4071   */\n      dup9\n        /* \"#utility.yul\":4058:4080   */\n      add\n        /* \"#utility.yul\":4037:4090   */\n      tag_279\n      jump\t// in\n    tag_328:\n        /* \"#utility.yul\":4027:4090   */\n      swap5\n      pop\n        /* \"#utility.yul\":3983:4100   */\n      pop\n        /* \"#utility.yul\":4139:4141   */\n      0x20\n        /* \"#utility.yul\":4165:4218   */\n      tag_329\n        /* \"#utility.yul\":4210:4217   */\n      dup8\n        /* \"#utility.yul\":4201:4207   */\n      dup3\n        /* \"#utility.yul\":4190:4199   */\n      dup9\n        /* \"#utility.yul\":4186:4208   */\n      add\n        /* \"#utility.yul\":4165:4218   */\n      tag_279\n      jump\t// in\n    tag_329:\n        /* \"#utility.yul\":4155:4218   */\n      swap4\n      pop\n        /* \"#utility.yul\":4110:4228   */\n      pop\n        /* \"#utility.yul\":4267:4269   */\n      0x40\n        /* \"#utility.yul\":4293:4346   */\n      tag_330\n        /* \"#utility.yul\":4338:4345   */\n      dup8\n        /* \"#utility.yul\":4329:4335   */\n      dup3\n        /* \"#utility.yul\":4318:4327   */\n      dup9\n        /* \"#utility.yul\":4314:4336   */\n      add\n        /* \"#utility.yul\":4293:4346   */\n      tag_305\n      jump\t// in\n    tag_330:\n        /* \"#utility.yul\":4283:4346   */\n      swap3\n      pop\n        /* \"#utility.yul\":4238:4356   */\n      pop\n        /* \"#utility.yul\":4423:4425   */\n      0x60\n        /* \"#utility.yul\":4412:4421   */\n      dup6\n        /* \"#utility.yul\":4408:4426   */\n      add\n        /* \"#utility.yul\":4395:4427   */\n      calldataload\n        /* \"#utility.yul\":4454:4472   */\n      0xffffffffffffffff\n        /* \"#utility.yul\":4446:4452   */\n      dup2\n        /* \"#utility.yul\":4443:4473   */\n      gt\n        /* \"#utility.yul\":4440:4557   */\n      iszero\n      tag_331\n      jumpi\n        /* \"#utility.yul\":4476:4555   */\n      tag_332\n      tag_333\n      jump\t// in\n    tag_332:\n        /* \"#utility.yul\":4440:4557   */\n    tag_331:\n        /* \"#utility.yul\":4581:4643   */\n      tag_334\n        /* \"#utility.yul\":4635:4642   */\n      dup8\n        /* \"#utility.yul\":4626:4632   */\n      dup3\n        /* \"#utility.yul\":4615:4624   */\n      dup9\n        /* \"#utility.yul\":4611:4633   */\n      add\n        /* \"#utility.yul\":4581:4643   */\n      tag_294\n      jump\t// in\n    tag_334:\n        /* \"#utility.yul\":4571:4643   */\n      swap2\n      pop\n        /* \"#utility.yul\":4366:4653   */\n      pop\n        /* \"#utility.yul\":3717:4660   */\n      swap3\n      swap6\n      swap2\n      swap5\n      pop\n      swap3\n      pop\n      jump\t// out\n        /* \"#utility.yul\":4666:5134   */\n    tag_85:\n        /* \"#utility.yul\":4731:4737   */\n      0x00\n        /* \"#utility.yul\":4739:4745   */\n      dup1\n        /* \"#utility.yul\":4788:4790   */\n      0x40\n        /* \"#utility.yul\":4776:4785   */\n      dup4\n        /* \"#utility.yul\":4767:4774   */\n      dup6\n        /* \"#utility.yul\":4763:4786   */\n      sub\n        /* \"#utility.yul\":4759:4791   */\n      slt\n        /* \"#utility.yul\":4756:4875   */\n      iszero\n      tag_336\n      jumpi\n        /* \"#utility.yul\":4794:4873   */\n      tag_337\n      tag_312\n      jump\t// in\n    tag_337:\n        /* \"#utility.yul\":4756:4875   */\n    tag_336:\n        /* \"#utility.yul\":4914:4915   */\n      0x00\n        /* \"#utility.yul\":4939:4992   */\n      tag_338\n        /* \"#utility.yul\":4984:4991   */\n      dup6\n        /* \"#utility.yul\":4975:4981   */\n      dup3\n        /* \"#utility.yul\":4964:4973   */\n      dup7\n        /* \"#utility.yul\":4960:4982   */\n      add\n        /* \"#utility.yul\":4939:4992   */\n      tag_279\n      jump\t// in\n    tag_338:\n        /* \"#utility.yul\":4929:4992   */\n      swap3\n      pop\n        /* \"#utility.yul\":4885:5002   */\n      pop\n        /* \"#utility.yul\":5041:5043   */\n      0x20\n        /* \"#utility.yul\":5067:5117   */\n      tag_339\n        /* \"#utility.yul\":5109:5116   */\n      dup6\n        /* \"#utility.yul\":5100:5106   */\n      dup3\n        /* \"#utility.yul\":5089:5098   */\n      dup7\n        /* \"#utility.yul\":5085:5107   */\n      add\n        /* \"#utility.yul\":5067:5117   */\n      tag_283\n      jump\t// in\n    tag_339:\n        /* \"#utility.yul\":5057:5117   */\n      swap2\n      pop\n        /* \"#utility.yul\":5012:5127   */\n      pop\n        /* \"#utility.yul\":4666:5134   */\n      swap3\n      pop\n      swap3\n      swap1\n      pop\n      jump\t// out\n        /* \"#utility.yul\":5140:5614   */\n    tag_46:\n        /* \"#utility.yul\":5208:5214   */\n      0x00\n        /* \"#utility.yul\":5216:5222   */\n      dup1\n        /* \"#utility.yul\":5265:5267   */\n      0x40\n        /* \"#utility.yul\":5253:5262   */\n      dup4\n        /* \"#utility.yul\":5244:5251   */\n      dup6\n        /* \"#utility.yul\":5240:5263   */\n      sub\n        /* \"#utility.yul\":5236:5268   */\n      slt\n        /* \"#utility.yul\":5233:5352   */\n      iszero\n      tag_341\n      jumpi\n        /* \"#utility.yul\":5271:5350   */\n      tag_342\n      tag_312\n      jump\t// in\n    tag_342:\n        /* \"#utility.yul\":5233:5352   */\n    tag_341:\n        /* \"#utility.yul\":5391:5392   */\n      0x00\n        /* \"#utility.yul\":5416:5469   */\n      tag_343\n        /* \"#utility.yul\":5461:5468   */\n      dup6\n        /* \"#utility.yul\":5452:5458   */\n      dup3\n        /* \"#utility.yul\":5441:5450   */\n      dup7\n        /* \"#utility.yul\":5437:5459   */\n      add\n        /* \"#utility.yul\":5416:5469   */\n      tag_279\n      jump\t// in\n    tag_343:\n        /* \"#utility.yul\":5406:5469   */\n      swap3\n      pop\n        /* \"#utility.yul\":5362:5479   */\n      pop\n        /* \"#utility.yul\":5518:5520   */\n      0x20\n        /* \"#utility.yul\":5544:5597   */\n      tag_344\n        /* \"#utility.yul\":5589:5596   */\n      dup6\n        /* \"#utility.yul\":5580:5586   */\n      dup3\n        /* \"#utility.yul\":5569:5578   */\n      dup7\n        /* \"#utility.yul\":5565:5587   */\n      add\n        /* \"#utility.yul\":5544:5597   */\n      tag_305\n      jump\t// in\n    tag_344:\n        /* \"#utility.yul\":5534:5597   */\n      swap2\n      pop\n        /* \"#utility.yul\":5489:5607   */\n      pop\n        /* \"#utility.yul\":5140:5614   */\n      swap3\n      pop\n      swap3\n      swap1\n      pop\n      jump\t// out\n        /* \"#utility.yul\":5620:5947   */\n    tag_30:\n        /* \"#utility.yul\":5678:5684   */\n      0x00\n        /* \"#utility.yul\":5727:5729   */\n      0x20\n        /* \"#utility.yul\":5715:5724   */\n      dup3\n        /* \"#utility.yul\":5706:5713   */\n      dup5\n        /* \"#utility.yul\":5702:5725   */\n      sub\n        /* \"#utility.yul\":5698:5730   */\n      slt\n        /* \"#utility.yul\":5695:5814   */\n      iszero\n      tag_346\n      jumpi\n        /* \"#utility.yul\":5733:5812   */\n      tag_347\n      tag_312\n      jump\t// in\n    tag_347:\n        /* \"#utility.yul\":5695:5814   */\n    tag_346:\n        /* \"#utility.yul\":5853:5854   */\n      0x00\n        /* \"#utility.yul\":5878:5930   */\n      tag_348\n        /* \"#utility.yul\":5922:5929   */\n      dup5\n        /* \"#utility.yul\":5913:5919   */\n      dup3\n        /* \"#utility.yul\":5902:5911   */\n      dup6\n        /* \"#utility.yul\":5898:5920   */\n      add\n        /* \"#utility.yul\":5878:5930   */\n      tag_287\n      jump\t// in\n    tag_348:\n        /* \"#utility.yul\":5868:5930   */\n      swap2\n      pop\n        /* \"#utility.yul\":5824:5940   */\n      pop\n        /* \"#utility.yul\":5620:5947   */\n      swap3\n      swap2\n      pop\n      pop\n      jump\t// out\n        /* \"#utility.yul\":5953:6302   */\n    tag_233:\n        /* \"#utility.yul\":6022:6028   */\n      0x00\n        /* \"#utility.yul\":6071:6073   */\n      0x20\n        /* \"#utility.yul\":6059:6068   */\n      dup3\n        /* \"#utility.yul\":6050:6057   */\n      dup5\n        /* \"#utility.yul\":6046:6069   */\n      sub\n        /* \"#utility.yul\":6042:6074   */\n      slt\n        /* \"#utility.yul\":6039:6158   */\n      iszero\n      tag_350\n      jumpi\n        /* \"#utility.yul\":6077:6156   */\n      tag_351\n      tag_312\n      jump\t// in\n    tag_351:\n        /* \"#utility.yul\":6039:6158   */\n    tag_350:\n        /* \"#utility.yul\":6197:6198   */\n      0x00\n        /* \"#utility.yul\":6222:6285   */\n      tag_352\n        /* \"#utility.yul\":6277:6284   */\n      dup5\n        /* \"#utility.yul\":6268:6274   */\n      dup3\n        /* \"#utility.yul\":6257:6266   */\n      dup6\n        /* \"#utility.yul\":6253:6275   */\n      add\n        /* \"#utility.yul\":6222:6285   */\n      tag_291\n      jump\t// in\n    tag_352:\n        /* \"#utility.yul\":6212:6285   */\n      swap2\n      pop\n        /* \"#utility.yul\":6168:6295   */\n      pop\n        /* \"#utility.yul\":5953:6302   */\n      swap3\n      swap2\n      pop\n      pop\n      jump\t// out\n        /* \"#utility.yul\":6308:6637   */\n    tag_40:\n        /* \"#utility.yul\":6367:6373   */\n      0x00\n        /* \"#utility.yul\":6416:6418   */\n      0x20\n        /* \"#utility.yul\":6404:6413   */\n      dup3\n        /* \"#utility.yul\":6395:6402   */\n      dup5\n        /* \"#utility.yul\":6391:6414   */\n      sub\n        /* \"#utility.yul\":6387:6419   */\n      slt\n        /* \"#utility.yul\":6384:6503   */\n      iszero\n      tag_354\n      jumpi\n        /* \"#utility.yul\":6422:6501   */\n      tag_355\n      tag_312\n      jump\t// in\n    tag_355:\n        /* \"#utility.yul\":6384:6503   */\n    tag_354:\n        /* \"#utility.yul\":6542:6543   */\n      0x00\n        /* \"#utility.yul\":6567:6620   */\n      tag_356\n        /* \"#utility.yul\":6612:6619   */\n      dup5\n        /* \"#utility.yul\":6603:6609   */\n      dup3\n        /* \"#utility.yul\":6592:6601   */\n      dup6\n        /* \"#utility.yul\":6588:6610   */\n      add\n        /* \"#utility.yul\":6567:6620   */\n      tag_305\n      jump\t// in\n    tag_356:\n        /* \"#utility.yul\":6557:6620   */\n      swap2\n      pop\n        /* \"#utility.yul\":6513:6630   */\n      pop\n        /* \"#utility.yul\":6308:6637   */\n      swap3\n      swap2\n      pop\n      pop\n      jump\t// out\n        /* \"#utility.yul\":6643:7297   */\n    tag_26:\n        /* \"#utility.yul\":6721:6727   */\n      0x00\n        /* \"#utility.yul\":6729:6735   */\n      dup1\n        /* \"#utility.yul\":6778:6780   */\n      0x40\n        /* \"#utility.yul\":6766:6775   */\n      dup4\n        /* \"#utility.yul\":6757:6764   */\n      dup6\n        /* \"#utility.yul\":6753:6776   */\n      sub\n        /* \"#utility.yul\":6749:6781   */\n      slt\n        /* \"#utility.yul\":6746:6865   */\n      iszero\n      tag_358\n      jumpi\n        /* \"#utility.yul\":6784:6863   */\n      tag_359\n      tag_312\n      jump\t// in\n    tag_359:\n        /* \"#utility.yul\":6746:6865   */\n    tag_358:\n        /* \"#utility.yul\":6904:6905   */\n      0x00\n        /* \"#utility.yul\":6929:6982   */\n      tag_360\n        /* \"#utility.yul\":6974:6981   */\n      dup6\n        /* \"#utility.yul\":6965:6971   */\n      dup3\n        /* \"#utility.yul\":6954:6963   */\n      dup7\n        /* \"#utility.yul\":6950:6972   */\n      add\n        /* \"#utility.yul\":6929:6982   */\n      tag_305\n      jump\t// in\n    tag_360:\n        /* \"#utility.yul\":6919:6982   */\n      swap3\n      pop\n        /* \"#utility.yul\":6875:6992   */\n      pop\n        /* \"#utility.yul\":7059:7061   */\n      0x20\n        /* \"#utility.yul\":7048:7057   */\n      dup4\n        /* \"#utility.yul\":7044:7062   */\n      add\n        /* \"#utility.yul\":7031:7063   */\n      calldataload\n        /* \"#utility.yul\":7090:7108   */\n      0xffffffffffffffff\n        /* \"#utility.yul\":7082:7088   */\n      dup2\n        /* \"#utility.yul\":7079:7109   */\n      gt\n        /* \"#utility.yul\":7076:7193   */\n      iszero\n      tag_361\n      jumpi\n        /* \"#utility.yul\":7112:7191   */\n      tag_362\n      tag_333\n      jump\t// in\n    tag_362:\n        /* \"#utility.yul\":7076:7193   */\n    tag_361:\n        /* \"#utility.yul\":7217:7280   */\n      tag_363\n        /* \"#utility.yul\":7272:7279   */\n      dup6\n        /* \"#utility.yul\":7263:7269   */\n      dup3\n        /* \"#utility.yul\":7252:7261   */\n      dup7\n        /* \"#utility.yul\":7248:7270   */\n      add\n        /* \"#utility.yul\":7217:7280   */\n      tag_300\n      jump\t// in\n    tag_363:\n        /* \"#utility.yul\":7207:7280   */\n      swap2\n      pop\n        /* \"#utility.yul\":7002:7290   */\n      pop\n        /* \"#utility.yul\":6643:7297   */\n      swap3\n      pop\n      swap3\n      swap1\n      pop\n      jump\t// out\n        /* \"#utility.yul\":7303:7421   */\n    tag_364:\n        /* \"#utility.yul\":7390:7414   */\n      tag_366\n        /* \"#utility.yul\":7408:7413   */\n      dup2\n        /* \"#utility.yul\":7390:7414   */\n      tag_367\n      jump\t// in\n    tag_366:\n        /* \"#utility.yul\":7385:7388   */\n      dup3\n        /* \"#utility.yul\":7378:7415   */\n      mstore\n        /* \"#utility.yul\":7303:7421   */\n      pop\n      pop\n      jump\t// out\n        /* \"#utility.yul\":7427:7536   */\n    tag_368:\n        /* \"#utility.yul\":7508:7529   */\n      tag_370\n        /* \"#utility.yul\":7523:7528   */\n      dup2\n        /* \"#utility.yul\":7508:7529   */\n      tag_371\n      jump\t// in\n    tag_370:\n        /* \"#utility.yul\":7503:7506   */\n      dup3\n        /* \"#utility.yul\":7496:7530   */\n      mstore\n        /* \"#utility.yul\":7427:7536   */\n      pop\n      pop\n      jump\t// out\n        /* \"#utility.yul\":7542:7902   */\n    tag_372:\n        /* \"#utility.yul\":7628:7631   */\n      0x00\n        /* \"#utility.yul\":7656:7694   */\n      tag_374\n        /* \"#utility.yul\":7688:7693   */\n      dup3\n        /* \"#utility.yul\":7656:7694   */\n      tag_375\n      jump\t// in\n    tag_374:\n        /* \"#utility.yul\":7710:7780   */\n      tag_376\n        /* \"#utility.yul\":7773:7779   */\n      dup2\n        /* \"#utility.yul\":7768:7771   */\n      dup6\n        /* \"#utility.yul\":7710:7780   */\n      tag_377\n      jump\t// in\n    tag_376:\n        /* \"#utility.yul\":7703:7780   */\n      swap4\n      pop\n        /* \"#utility.yul\":7789:7841   */\n      tag_378\n        /* \"#utility.yul\":7834:7840   */\n      dup2\n        /* \"#utility.yul\":7829:7832   */\n      dup6\n        /* \"#utility.yul\":7822:7826   */\n      0x20\n        /* \"#utility.yul\":7815:7820   */\n      dup7\n        /* \"#utility.yul\":7811:7827   */\n      add\n        /* \"#utility.yul\":7789:7841   */\n      tag_379\n      jump\t// in\n    tag_378:\n        /* \"#utility.yul\":7866:7895   */\n      tag_380\n        /* \"#utility.yul\":7888:7894   */\n      dup2\n        /* \"#utility.yul\":7866:7895   */\n      tag_381\n      jump\t// in\n    tag_380:\n        /* \"#utility.yul\":7861:7864   */\n      dup5\n        /* \"#utility.yul\":7857:7896   */\n      add\n        /* \"#utility.yul\":7850:7896   */\n      swap2\n      pop\n        /* \"#utility.yul\":7632:7902   */\n      pop\n        /* \"#utility.yul\":7542:7902   */\n      swap3\n      swap2\n      pop\n      pop\n      jump\t// out\n        /* \"#utility.yul\":7908:8272   */\n    tag_382:\n        /* \"#utility.yul\":7996:7999   */\n      0x00\n        /* \"#utility.yul\":8024:8063   */\n      tag_384\n        /* \"#utility.yul\":8057:8062   */\n      dup3\n        /* \"#utility.yul\":8024:8063   */\n      tag_385\n      jump\t// in\n    tag_384:\n        /* \"#utility.yul\":8079:8150   */\n      tag_386\n        /* \"#utility.yul\":8143:8149   */\n      dup2\n        /* \"#utility.yul\":8138:8141   */\n      dup6\n        /* \"#utility.yul\":8079:8150   */\n      tag_387\n      jump\t// in\n    tag_386:\n        /* \"#utility.yul\":8072:8150   */\n      swap4\n      pop\n        /* \"#utility.yul\":8159:8211   */\n      tag_388\n        /* \"#utility.yul\":8204:8210   */\n      dup2\n        /* \"#utility.yul\":8199:8202   */\n      dup6\n        /* \"#utility.yul\":8192:8196   */\n      0x20\n        /* \"#utility.yul\":8185:8190   */\n      dup7\n        /* \"#utility.yul\":8181:8197   */\n      add\n        /* \"#utility.yul\":8159:8211   */\n      tag_379\n      jump\t// in\n    tag_388:\n        /* \"#utility.yul\":8236:8265   */\n      tag_389\n        /* \"#utility.yul\":8258:8264   */\n      dup2\n        /* \"#utility.yul\":8236:8265   */\n      tag_381\n      jump\t// in\n    tag_389:\n        /* \"#utility.yul\":8231:8234   */\n      dup5\n        /* \"#utility.yul\":8227:8266   */\n      add\n        /* \"#utility.yul\":8220:8266   */\n      swap2\n      pop\n        /* \"#utility.yul\":8000:8272   */\n      pop\n        /* \"#utility.yul\":7908:8272   */\n      swap3\n      swap2\n      pop\n      pop\n      jump\t// out\n        /* \"#utility.yul\":8278:8644   */\n    tag_390:\n        /* \"#utility.yul\":8420:8423   */\n      0x00\n        /* \"#utility.yul\":8441:8508   */\n      tag_392\n        /* \"#utility.yul\":8505:8507   */\n      0x1a\n        /* \"#utility.yul\":8500:8503   */\n      dup4\n        /* \"#utility.yul\":8441:8508   */\n      tag_387\n      jump\t// in\n    tag_392:\n        /* \"#utility.yul\":8434:8508   */\n      swap2\n      pop\n        /* \"#utility.yul\":8517:8610   */\n      tag_393\n        /* \"#utility.yul\":8606:8609   */\n      dup3\n        /* \"#utility.yul\":8517:8610   */\n      tag_394\n      jump\t// in\n    tag_393:\n        /* \"#utility.yul\":8635:8637   */\n      0x20\n        /* \"#utility.yul\":8630:8633   */\n      dup3\n        /* \"#utility.yul\":8626:8638   */\n      add\n        /* \"#utility.yul\":8619:8638   */\n      swap1\n      pop\n        /* \"#utility.yul\":8278:8644   */\n      swap2\n      swap1\n      pop\n      jump\t// out\n        /* \"#utility.yul\":8650:9016   */\n    tag_395:\n        /* \"#utility.yul\":8792:8795   */\n      0x00\n        /* \"#utility.yul\":8813:8880   */\n      tag_397\n        /* \"#utility.yul\":8877:8879   */\n      0x1f\n        /* \"#utility.yul\":8872:8875   */\n      dup4\n        /* \"#utility.yul\":8813:8880   */\n      tag_387\n      jump\t// in\n    tag_397:\n        /* \"#utility.yul\":8806:8880   */\n      swap2\n      pop\n        /* \"#utility.yul\":8889:8982   */\n      tag_398\n        /* \"#utility.yul\":8978:8981   */\n      dup3\n        /* \"#utility.yul\":8889:8982   */\n      tag_399\n      jump\t// in\n    tag_398:\n        /* \"#utility.yul\":9007:9009   */\n      0x20\n        /* \"#utility.yul\":9002:9005   */\n      dup3\n        /* \"#utility.yul\":8998:9010   */\n      add\n        /* \"#utility.yul\":8991:9010   */\n      swap1\n      pop\n        /* \"#utility.yul\":8650:9016   */\n      swap2\n      swap1\n      pop\n      jump\t// out\n        /* \"#utility.yul\":9022:9388   */\n    tag_400:\n        /* \"#utility.yul\":9164:9167   */\n      0x00\n        /* \"#utility.yul\":9185:9252   */\n      tag_402\n        /* \"#utility.yul\":9249:9251   */\n      0x15\n        /* \"#utility.yul\":9244:9247   */\n      dup4\n        /* \"#utility.yul\":9185:9252   */\n      tag_387\n      jump\t// in\n    tag_402:\n        /* \"#utility.yul\":9178:9252   */\n      swap2\n      pop\n        /* \"#utility.yul\":9261:9354   */\n      tag_403\n        /* \"#utility.yul\":9350:9353   */\n      dup3\n        /* \"#utility.yul\":9261:9354   */\n      tag_404\n      jump\t// in\n    tag_403:\n        /* \"#utility.yul\":9379:9381   */\n      0x20\n        /* \"#utility.yul\":9374:9377   */\n      dup3\n        /* \"#utility.yul\":9370:9382   */\n      add\n        /* \"#utility.yul\":9363:9382   */\n      swap1\n      pop\n        /* \"#utility.yul\":9022:9388   */\n      swap2\n      swap1\n      pop\n      jump\t// out\n        /* \"#utility.yul\":9394:9760   */\n    tag_405:\n        /* \"#utility.yul\":9536:9539   */\n      0x00\n        /* \"#utility.yul\":9557:9624   */\n      tag_407\n        /* \"#utility.yul\":9621:9623   */\n      0x14\n        /* \"#utility.yul\":9616:9619   */\n      dup4\n        /* \"#utility.yul\":9557:9624   */\n      tag_387\n      jump\t// in\n    tag_407:\n        /* \"#utility.yul\":9550:9624   */\n      swap2\n      pop\n        /* \"#utility.yul\":9633:9726   */\n      tag_408\n        /* \"#utility.yul\":9722:9725   */\n      dup3\n        /* \"#utility.yul\":9633:9726   */\n      tag_409\n      jump\t// in\n    tag_408:\n        /* \"#utility.yul\":9751:9753   */\n      0x20\n        /* \"#utility.yul\":9746:9749   */\n      dup3\n        /* \"#utility.yul\":9742:9754   */\n      add\n        /* \"#utility.yul\":9735:9754   */\n      swap1\n      pop\n        /* \"#utility.yul\":9394:9760   */\n      swap2\n      swap1\n      pop\n      jump\t// out\n        /* \"#utility.yul\":9766:10132   */\n    tag_410:\n        /* \"#utility.yul\":9908:9911   */\n      0x00\n        /* \"#utility.yul\":9929:9996   */\n      tag_412\n        /* \"#utility.yul\":9993:9995   */\n      0x2a\n        /* \"#utility.yul\":9988:9991   */\n      dup4\n        /* \"#utility.yul\":9929:9996   */\n      tag_387\n      jump\t// in\n    tag_412:\n        /* \"#utility.yul\":9922:9996   */\n      swap2\n      pop\n        /* \"#utility.yul\":10005:10098   */\n      tag_413\n        /* \"#utility.yul\":10094:10097   */\n      dup3\n        /* \"#utility.yul\":10005:10098   */\n      tag_414\n      jump\t// in\n    tag_413:\n        /* \"#utility.yul\":10123:10125   */\n      0x40\n        /* \"#utility.yul\":10118:10121   */\n      dup3\n        /* \"#utility.yul\":10114:10126   */\n      add\n        /* \"#utility.yul\":10107:10126   */\n      swap1\n      pop\n        /* \"#utility.yul\":9766:10132   */\n      swap2\n      swap1\n      pop\n      jump\t// out\n        /* \"#utility.yul\":10138:10504   */\n    tag_415:\n        /* \"#utility.yul\":10280:10283   */\n      0x00\n        /* \"#utility.yul\":10301:10368   */\n      tag_417\n        /* \"#utility.yul\":10365:10367   */\n      0x2d\n        /* \"#utility.yul\":10360:10363   */\n      dup4\n        /* \"#utility.yul\":10301:10368   */\n      tag_387\n      jump\t// in\n    tag_417:\n        /* \"#utility.yul\":10294:10368   */\n      swap2\n      pop\n        /* \"#utility.yul\":10377:10470   */\n      tag_418\n        /* \"#utility.yul\":10466:10469   */\n      dup3\n        /* \"#utility.yul\":10377:10470   */\n      tag_419\n      jump\t// in\n    tag_418:\n        /* \"#utility.yul\":10495:10497   */\n      0x40\n        /* \"#utility.yul\":10490:10493   */\n      dup3\n        /* \"#utility.yul\":10486:10498   */\n      add\n        /* \"#utility.yul\":10479:10498   */\n      swap1\n      pop\n        /* \"#utility.yul\":10138:10504   */\n      swap2\n      swap1\n      pop\n      jump\t// out\n        /* \"#utility.yul\":10510:10876   */\n    tag_420:\n        /* \"#utility.yul\":10652:10655   */\n      0x00\n        /* \"#utility.yul\":10673:10740   */\n      tag_422\n        /* \"#utility.yul\":10737:10739   */\n      0x18\n        /* \"#utility.yul\":10732:10735   */\n      dup4\n        /* \"#utility.yul\":10673:10740   */\n      tag_387\n      jump\t// in\n    tag_422:\n        /* \"#utility.yul\":10666:10740   */\n      swap2\n      pop\n        /* \"#utility.yul\":10749:10842   */\n      tag_423\n        /* \"#utility.yul\":10838:10841   */\n      dup3\n        /* \"#utility.yul\":10749:10842   */\n      tag_424\n      jump\t// in\n    tag_423:\n        /* \"#utility.yul\":10867:10869   */\n      0x20\n        /* \"#utility.yul\":10862:10865   */\n      dup3\n        /* \"#utility.yul\":10858:10870   */\n      add\n        /* \"#utility.yul\":10851:10870   */\n      swap1\n      pop\n        /* \"#utility.yul\":10510:10876   */\n      swap2\n      swap1\n      pop\n      jump\t// out\n        /* \"#utility.yul\":10882:11248   */\n    tag_425:\n        /* \"#utility.yul\":11024:11027   */\n      0x00\n        /* \"#utility.yul\":11045:11112   */\n      tag_427\n        /* \"#utility.yul\":11109:11111   */\n      0x0d\n        /* \"#utility.yul\":11104:11107   */\n      dup4\n        /* \"#utility.yul\":11045:11112   */\n      tag_387\n      jump\t// in\n    tag_427:\n        /* \"#utility.yul\":11038:11112   */\n      swap2\n      pop\n        /* \"#utility.yul\":11121:11214   */\n      tag_428\n        /* \"#utility.yul\":11210:11213   */\n      dup3\n        /* \"#utility.yul\":11121:11214   */\n      tag_429\n      jump\t// in\n    tag_428:\n        /* \"#utility.yul\":11239:11241   */\n      0x20\n        /* \"#utility.yul\":11234:11237   */\n      dup3\n        /* \"#utility.yul\":11230:11242   */\n      add\n        /* \"#utility.yul\":11223:11242   */\n      swap1\n      pop\n        /* \"#utility.yul\":10882:11248   */\n      swap2\n      swap1\n      pop\n      jump\t// out\n        /* \"#utility.yul\":11254:11620   */\n    tag_430:\n        /* \"#utility.yul\":11396:11399   */\n      0x00\n        /* \"#utility.yul\":11417:11484   */\n      tag_432\n        /* \"#utility.yul\":11481:11483   */\n      0x20\n        /* \"#utility.yul\":11476:11479   */\n      dup4\n        /* \"#utility.yul\":11417:11484   */\n      tag_387\n      jump\t// in\n    tag_432:\n        /* \"#utility.yul\":11410:11484   */\n      swap2\n      pop\n        /* \"#utility.yul\":11493:11586   */\n      tag_433\n        /* \"#utility.yul\":11582:11585   */\n      dup3\n        /* \"#utility.yul\":11493:11586   */\n      tag_434\n      jump\t// in\n    tag_433:\n        /* \"#utility.yul\":11611:11613   */\n      0x20\n        /* \"#utility.yul\":11606:11609   */\n      dup3\n        /* \"#utility.yul\":11602:11614   */\n      add\n        /* \"#utility.yul\":11595:11614   */\n      swap1\n      pop\n        /* \"#utility.yul\":11254:11620   */\n      swap2\n      swap1\n      pop\n      jump\t// out\n        /* \"#utility.yul\":11626:11992   */\n    tag_435:\n        /* \"#utility.yul\":11768:11771   */\n      0x00\n        /* \"#utility.yul\":11789:11856   */\n      tag_437\n        /* \"#utility.yul\":11853:11855   */\n      0x18\n        /* \"#utility.yul\":11848:11851   */\n      dup4\n        /* \"#utility.yul\":11789:11856   */\n      tag_387\n      jump\t// in\n    tag_437:\n        /* \"#utility.yul\":11782:11856   */\n      swap2\n      pop\n        /* \"#utility.yul\":11865:11958   */\n      tag_438\n        /* \"#utility.yul\":11954:11957   */\n      dup3\n        /* \"#utility.yul\":11865:11958   */\n      tag_439\n      jump\t// in\n    tag_438:\n        /* \"#utility.yul\":11983:11985   */\n      0x20\n        /* \"#utility.yul\":11978:11981   */\n      dup3\n        /* \"#utility.yul\":11974:11986   */\n      add\n        /* \"#utility.yul\":11967:11986   */\n      swap1\n      pop\n        /* \"#utility.yul\":11626:11992   */\n      swap2\n      swap1\n      pop\n      jump\t// out\n        /* \"#utility.yul\":11998:12364   */\n    tag_440:\n        /* \"#utility.yul\":12140:12143   */\n      0x00\n        /* \"#utility.yul\":12161:12228   */\n      tag_442\n        /* \"#utility.yul\":12225:12227   */\n      0x14\n        /* \"#utility.yul\":12220:12223   */\n      dup4\n        /* \"#utility.yul\":12161:12228   */\n      tag_387\n      jump\t// in\n    tag_442:\n        /* \"#utility.yul\":12154:12228   */\n      swap2\n      pop\n        /* \"#utility.yul\":12237:12330   */\n      tag_443\n        /* \"#utility.yul\":12326:12329   */\n      dup3\n        /* \"#utility.yul\":12237:12330   */\n      tag_444\n      jump\t// in\n    tag_443:\n        /* \"#utility.yul\":12355:12357   */\n      0x20\n        /* \"#utility.yul\":12350:12353   */\n      dup3\n        /* \"#utility.yul\":12346:12358   */\n      add\n        /* \"#utility.yul\":12339:12358   */\n      swap1\n      pop\n        /* \"#utility.yul\":11998:12364   */\n      swap2\n      swap1\n      pop\n      jump\t// out\n        /* \"#utility.yul\":12370:12736   */\n    tag_445:\n        /* \"#utility.yul\":12512:12515   */\n      0x00\n        /* \"#utility.yul\":12533:12600   */\n      tag_447\n        /* \"#utility.yul\":12597:12599   */\n      0x13\n        /* \"#utility.yul\":12592:12595   */\n      dup4\n        /* \"#utility.yul\":12533:12600   */\n      tag_387\n      jump\t// in\n    tag_447:\n        /* \"#utility.yul\":12526:12600   */\n      swap2\n      pop\n        /* \"#utility.yul\":12609:12702   */\n      tag_448\n        /* \"#utility.yul\":12698:12701   */\n      dup3\n        /* \"#utility.yul\":12609:12702   */\n      tag_449\n      jump\t// in\n    tag_448:\n        /* \"#utility.yul\":12727:12729   */\n      0x20\n        /* \"#utility.yul\":12722:12725   */\n      dup3\n        /* \"#utility.yul\":12718:12730   */\n      add\n        /* \"#utility.yul\":12711:12730   */\n      swap1\n      pop\n        /* \"#utility.yul\":12370:12736   */\n      swap2\n      swap1\n      pop\n      jump\t// out\n        /* \"#utility.yul\":12742:13108   */\n    tag_450:\n        /* \"#utility.yul\":12884:12887   */\n      0x00\n        /* \"#utility.yul\":12905:12972   */\n      tag_452\n        /* \"#utility.yul\":12969:12971   */\n      0x13\n        /* \"#utility.yul\":12964:12967   */\n      dup4\n        /* \"#utility.yul\":12905:12972   */\n      tag_387\n      jump\t// in\n    tag_452:\n        /* \"#utility.yul\":12898:12972   */\n      swap2\n      pop\n        /* \"#utility.yul\":12981:13074   */\n      tag_453\n        /* \"#utility.yul\":13070:13073   */\n      dup3\n        /* \"#utility.yul\":12981:13074   */\n      tag_454\n      jump\t// in\n    tag_453:\n        /* \"#utility.yul\":13099:13101   */\n      0x20\n        /* \"#utility.yul\":13094:13097   */\n      dup3\n        /* \"#utility.yul\":13090:13102   */\n      add\n        /* \"#utility.yul\":13083:13102   */\n      swap1\n      pop\n        /* \"#utility.yul\":12742:13108   */\n      swap2\n      swap1\n      pop\n      jump\t// out\n        /* \"#utility.yul\":13114:13232   */\n    tag_455:\n        /* \"#utility.yul\":13201:13225   */\n      tag_457\n        /* \"#utility.yul\":13219:13224   */\n      dup2\n        /* \"#utility.yul\":13201:13225   */\n      tag_458\n      jump\t// in\n    tag_457:\n        /* \"#utility.yul\":13196:13199   */\n      dup3\n        /* \"#utility.yul\":13189:13226   */\n      mstore\n        /* \"#utility.yul\":13114:13232   */\n      pop\n      pop\n      jump\t// out\n        /* \"#utility.yul\":13238:13460   */\n    tag_43:\n        /* \"#utility.yul\":13331:13335   */\n      0x00\n        /* \"#utility.yul\":13369:13371   */\n      0x20\n        /* \"#utility.yul\":13358:13367   */\n      dup3\n        /* \"#utility.yul\":13354:13372   */\n      add\n        /* \"#utility.yul\":13346:13372   */\n      swap1\n      pop\n        /* \"#utility.yul\":13382:13453   */\n      tag_460\n        /* \"#utility.yul\":13450:13451   */\n      0x00\n        /* \"#utility.yul\":13439:13448   */\n      dup4\n        /* \"#utility.yul\":13435:13452   */\n      add\n        /* \"#utility.yul\":13426:13432   */\n      dup5\n        /* \"#utility.yul\":13382:13453   */\n      tag_364\n      jump\t// in\n    tag_460:\n        /* \"#utility.yul\":13238:13460   */\n      swap3\n      swap2\n      pop\n      pop\n      jump\t// out\n        /* \"#utility.yul\":13466:14106   */\n    tag_229:\n        /* \"#utility.yul\":13661:13665   */\n      0x00\n        /* \"#utility.yul\":13699:13702   */\n      0x80\n        /* \"#utility.yul\":13688:13697   */\n      dup3\n        /* \"#utility.yul\":13684:13703   */\n      add\n        /* \"#utility.yul\":13676:13703   */\n      swap1\n      pop\n        /* \"#utility.yul\":13713:13784   */\n      tag_462\n        /* \"#utility.yul\":13781:13782   */\n      0x00\n        /* \"#utility.yul\":13770:13779   */\n      dup4\n        /* \"#utility.yul\":13766:13783   */\n      add\n        /* \"#utility.yul\":13757:13763   */\n      dup8\n        /* \"#utility.yul\":13713:13784   */\n      tag_364\n      jump\t// in\n    tag_462:\n        /* \"#utility.yul\":13794:13866   */\n      tag_463\n        /* \"#utility.yul\":13862:13864   */\n      0x20\n        /* \"#utility.yul\":13851:13860   */\n      dup4\n        /* \"#utility.yul\":13847:13865   */\n      add\n        /* \"#utility.yul\":13838:13844   */\n      dup7\n        /* \"#utility.yul\":13794:13866   */\n      tag_364\n      jump\t// in\n    tag_463:\n        /* \"#utility.yul\":13876:13948   */\n      tag_464\n        /* \"#utility.yul\":13944:13946   */\n      0x40\n        /* \"#utility.yul\":13933:13942   */\n      dup4\n        /* \"#utility.yul\":13929:13947   */\n      add\n        /* \"#utility.yul\":13920:13926   */\n      dup6\n        /* \"#utility.yul\":13876:13948   */\n      tag_455\n      jump\t// in\n    tag_464:\n        /* \"#utility.yul\":13995:14004   */\n      dup2\n        /* \"#utility.yul\":13989:13993   */\n      dup2\n        /* \"#utility.yul\":13985:14005   */\n      sub\n        /* \"#utility.yul\":13980:13982   */\n      0x60\n        /* \"#utility.yul\":13969:13978   */\n      dup4\n        /* \"#utility.yul\":13965:13983   */\n      add\n        /* \"#utility.yul\":13958:14006   */\n      mstore\n        /* \"#utility.yul\":14023:14099   */\n      tag_465\n        /* \"#utility.yul\":14094:14098   */\n      dup2\n        /* \"#utility.yul\":14085:14091   */\n      dup5\n        /* \"#utility.yul\":14023:14099   */\n      tag_372\n      jump\t// in\n    tag_465:\n        /* \"#utility.yul\":14015:14099   */\n      swap1\n      pop\n        /* \"#utility.yul\":13466:14106   */\n      swap6\n      swap5\n      pop\n      pop\n      pop\n      pop\n      pop\n      jump\t// out\n        /* \"#utility.yul\":14112:14322   */\n    tag_33:\n        /* \"#utility.yul\":14199:14203   */\n      0x00\n        /* \"#utility.yul\":14237:14239   */\n      0x20\n        /* \"#utility.yul\":14226:14235   */\n      dup3\n        /* \"#utility.yul\":14222:14240   */\n      add\n        /* \"#utility.yul\":14214:14240   */\n      swap1\n      pop\n        /* \"#utility.yul\":14250:14315   */\n      tag_467\n        /* \"#utility.yul\":14312:14313   */\n      0x00\n        /* \"#utility.yul\":14301:14310   */\n      dup4\n        /* \"#utility.yul\":14297:14314   */\n      add\n        /* \"#utility.yul\":14288:14294   */\n      dup5\n        /* \"#utility.yul\":14250:14315   */\n      tag_368\n      jump\t// in\n    tag_467:\n        /* \"#utility.yul\":14112:14322   */\n      swap3\n      swap2\n      pop\n      pop\n      jump\t// out\n        /* \"#utility.yul\":14328:14641   */\n    tag_37:\n        /* \"#utility.yul\":14441:14445   */\n      0x00\n        /* \"#utility.yul\":14479:14481   */\n      0x20\n        /* \"#utility.yul\":14468:14477   */\n      dup3\n        /* \"#utility.yul\":14464:14482   */\n      add\n        /* \"#utility.yul\":14456:14482   */\n      swap1\n      pop\n        /* \"#utility.yul\":14528:14537   */\n      dup2\n        /* \"#utility.yul\":14522:14526   */\n      dup2\n        /* \"#utility.yul\":14518:14538   */\n      sub\n        /* \"#utility.yul\":14514:14515   */\n      0x00\n        /* \"#utility.yul\":14503:14512   */\n      dup4\n        /* \"#utility.yul\":14499:14516   */\n      add\n        /* \"#utility.yul\":14492:14539   */\n      mstore\n        /* \"#utility.yul\":14556:14634   */\n      tag_469\n        /* \"#utility.yul\":14629:14633   */\n      dup2\n        /* \"#utility.yul\":14620:14626   */\n      dup5\n        /* \"#utility.yul\":14556:14634   */\n      tag_382\n      jump\t// in\n    tag_469:\n        /* \"#utility.yul\":14548:14634   */\n      swap1\n      pop\n        /* \"#utility.yul\":14328:14641   */\n      swap3\n      swap2\n      pop\n      pop\n      jump\t// out\n        /* \"#utility.yul\":14647:15066   */\n    tag_140:\n        /* \"#utility.yul\":14813:14817   */\n      0x00\n        /* \"#utility.yul\":14851:14853   */\n      0x20\n        /* \"#utility.yul\":14840:14849   */\n      dup3\n        /* \"#utility.yul\":14836:14854   */\n      add\n        /* \"#utility.yul\":14828:14854   */\n      swap1\n      pop\n        /* \"#utility.yul\":14900:14909   */\n      dup2\n        /* \"#utility.yul\":14894:14898   */\n      dup2\n        /* \"#utility.yul\":14890:14910   */\n      sub\n        /* \"#utility.yul\":14886:14887   */\n      0x00\n        /* \"#utility.yul\":14875:14884   */\n      dup4\n        /* \"#utility.yul\":14871:14888   */\n      add\n        /* \"#utility.yul\":14864:14911   */\n      mstore\n        /* \"#utility.yul\":14928:15059   */\n      tag_471\n        /* \"#utility.yul\":15054:15058   */\n      dup2\n        /* \"#utility.yul\":14928:15059   */\n      tag_390\n      jump\t// in\n    tag_471:\n        /* \"#utility.yul\":14920:15059   */\n      swap1\n      pop\n        /* \"#utility.yul\":14647:15066   */\n      swap2\n      swap1\n      pop\n      jump\t// out\n        /* \"#utility.yul\":15072:15491   */\n    tag_154:\n        /* \"#utility.yul\":15238:15242   */\n      0x00\n        /* \"#utility.yul\":15276:15278   */\n      0x20\n        /* \"#utility.yul\":15265:15274   */\n      dup3\n        /* \"#utility.yul\":15261:15279   */\n      add\n        /* \"#utility.yul\":15253:15279   */\n      swap1\n      pop\n        /* \"#utility.yul\":15325:15334   */\n      dup2\n        /* \"#utility.yul\":15319:15323   */\n      dup2\n        /* \"#utility.yul\":15315:15335   */\n      sub\n        /* \"#utility.yul\":15311:15312   */\n      0x00\n        /* \"#utility.yul\":15300:15309   */\n      dup4\n        /* \"#utility.yul\":15296:15313   */\n      add\n        /* \"#utility.yul\":15289:15336   */\n      mstore\n        /* \"#utility.yul\":15353:15484   */\n      tag_473\n        /* \"#utility.yul\":15479:15483   */\n      dup2\n        /* \"#utility.yul\":15353:15484   */\n      tag_395\n      jump\t// in\n    tag_473:\n        /* \"#utility.yul\":15345:15484   */\n      swap1\n      pop\n        /* \"#utility.yul\":15072:15491   */\n      swap2\n      swap1\n      pop\n      jump\t// out\n        /* \"#utility.yul\":15497:15916   */\n    tag_182:\n        /* \"#utility.yul\":15663:15667   */\n      0x00\n        /* \"#utility.yul\":15701:15703   */\n      0x20\n        /* \"#utility.yul\":15690:15699   */\n      dup3\n        /* \"#utility.yul\":15686:15704   */\n      add\n        /* \"#utility.yul\":15678:15704   */\n      swap1\n      pop\n        /* \"#utility.yul\":15750:15759   */\n      dup2\n        /* \"#utility.yul\":15744:15748   */\n      dup2\n        /* \"#utility.yul\":15740:15760   */\n      sub\n        /* \"#utility.yul\":15736:15737   */\n      0x00\n        /* \"#utility.yul\":15725:15734   */\n      dup4\n        /* \"#utility.yul\":15721:15738   */\n      add\n        /* \"#utility.yul\":15714:15761   */\n      mstore\n        /* \"#utility.yul\":15778:15909   */\n      tag_475\n        /* \"#utility.yul\":15904:15908   */\n      dup2\n        /* \"#utility.yul\":15778:15909   */\n      tag_400\n      jump\t// in\n    tag_475:\n        /* \"#utility.yul\":15770:15909   */\n      swap1\n      pop\n        /* \"#utility.yul\":15497:15916   */\n      swap2\n      swap1\n      pop\n      jump\t// out\n        /* \"#utility.yul\":15922:16341   */\n    tag_210:\n        /* \"#utility.yul\":16088:16092   */\n      0x00\n        /* \"#utility.yul\":16126:16128   */\n      0x20\n        /* \"#utility.yul\":16115:16124   */\n      dup3\n        /* \"#utility.yul\":16111:16129   */\n      add\n        /* \"#utility.yul\":16103:16129   */\n      swap1\n      pop\n        /* \"#utility.yul\":16175:16184   */\n      dup2\n        /* \"#utility.yul\":16169:16173   */\n      dup2\n        /* \"#utility.yul\":16165:16185   */\n      sub\n        /* \"#utility.yul\":16161:16162   */\n      0x00\n        /* \"#utility.yul\":16150:16159   */\n      dup4\n        /* \"#utility.yul\":16146:16163   */\n      add\n        /* \"#utility.yul\":16139:16186   */\n      mstore\n        /* \"#utility.yul\":16203:16334   */\n      tag_477\n        /* \"#utility.yul\":16329:16333   */\n      dup2\n        /* \"#utility.yul\":16203:16334   */\n      tag_405\n      jump\t// in\n    tag_477:\n        /* \"#utility.yul\":16195:16334   */\n      swap1\n      pop\n        /* \"#utility.yul\":15922:16341   */\n      swap2\n      swap1\n      pop\n      jump\t// out\n        /* \"#utility.yul\":16347:16766   */\n    tag_199:\n        /* \"#utility.yul\":16513:16517   */\n      0x00\n        /* \"#utility.yul\":16551:16553   */\n      0x20\n        /* \"#utility.yul\":16540:16549   */\n      dup3\n        /* \"#utility.yul\":16536:16554   */\n      add\n        /* \"#utility.yul\":16528:16554   */\n      swap1\n      pop\n        /* \"#utility.yul\":16600:16609   */\n      dup2\n        /* \"#utility.yul\":16594:16598   */\n      dup2\n        /* \"#utility.yul\":16590:16610   */\n      sub\n        /* \"#utility.yul\":16586:16587   */\n      0x00\n        /* \"#utility.yul\":16575:16584   */\n      dup4\n        /* \"#utility.yul\":16571:16588   */\n      add\n        /* \"#utility.yul\":16564:16611   */\n      mstore\n        /* \"#utility.yul\":16628:16759   */\n      tag_479\n        /* \"#utility.yul\":16754:16758   */\n      dup2\n        /* \"#utility.yul\":16628:16759   */\n      tag_410\n      jump\t// in\n    tag_479:\n        /* \"#utility.yul\":16620:16759   */\n      swap1\n      pop\n        /* \"#utility.yul\":16347:16766   */\n      swap2\n      swap1\n      pop\n      jump\t// out\n        /* \"#utility.yul\":16772:17191   */\n    tag_131:\n        /* \"#utility.yul\":16938:16942   */\n      0x00\n        /* \"#utility.yul\":16976:16978   */\n      0x20\n        /* \"#utility.yul\":16965:16974   */\n      dup3\n        /* \"#utility.yul\":16961:16979   */\n      add\n        /* \"#utility.yul\":16953:16979   */\n      swap1\n      pop\n        /* \"#utility.yul\":17025:17034   */\n      dup2\n        /* \"#utility.yul\":17019:17023   */\n      dup2\n        /* \"#utility.yul\":17015:17035   */\n      sub\n        /* \"#utility.yul\":17011:17012   */\n      0x00\n        /* \"#utility.yul\":17000:17009   */\n      dup4\n        /* \"#utility.yul\":16996:17013   */\n      add\n        /* \"#utility.yul\":16989:17036   */\n      mstore\n        /* \"#utility.yul\":17053:17184   */\n      tag_481\n        /* \"#utility.yul\":17179:17183   */\n      dup2\n        /* \"#utility.yul\":17053:17184   */\n      tag_415\n      jump\t// in\n    tag_481:\n        /* \"#utility.yul\":17045:17184   */\n      swap1\n      pop\n        /* \"#utility.yul\":16772:17191   */\n      swap2\n      swap1\n      pop\n      jump\t// out\n        /* \"#utility.yul\":17197:17616   */\n    tag_143:\n        /* \"#utility.yul\":17363:17367   */\n      0x00\n        /* \"#utility.yul\":17401:17403   */\n      0x20\n        /* \"#utility.yul\":17390:17399   */\n      dup3\n        /* \"#utility.yul\":17386:17404   */\n      add\n        /* \"#utility.yul\":17378:17404   */\n      swap1\n      pop\n        /* \"#utility.yul\":17450:17459   */\n      dup2\n        /* \"#utility.yul\":17444:17448   */\n      dup2\n        /* \"#utility.yul\":17440:17460   */\n      sub\n        /* \"#utility.yul\":17436:17437   */\n      0x00\n        /* \"#utility.yul\":17425:17434   */\n      dup4\n        /* \"#utility.yul\":17421:17438   */\n      add\n        /* \"#utility.yul\":17414:17461   */\n      mstore\n        /* \"#utility.yul\":17478:17609   */\n      tag_483\n        /* \"#utility.yul\":17604:17608   */\n      dup2\n        /* \"#utility.yul\":17478:17609   */\n      tag_420\n      jump\t// in\n    tag_483:\n        /* \"#utility.yul\":17470:17609   */\n      swap1\n      pop\n        /* \"#utility.yul\":17197:17616   */\n      swap2\n      swap1\n      pop\n      jump\t// out\n        /* \"#utility.yul\":17622:18041   */\n    tag_103:\n        /* \"#utility.yul\":17788:17792   */\n      0x00\n        /* \"#utility.yul\":17826:17828   */\n      0x20\n        /* \"#utility.yul\":17815:17824   */\n      dup3\n        /* \"#utility.yul\":17811:17829   */\n      add\n        /* \"#utility.yul\":17803:17829   */\n      swap1\n      pop\n        /* \"#utility.yul\":17875:17884   */\n      dup2\n        /* \"#utility.yul\":17869:17873   */\n      dup2\n        /* \"#utility.yul\":17865:17885   */\n      sub\n        /* \"#utility.yul\":17861:17862   */\n      0x00\n        /* \"#utility.yul\":17850:17859   */\n      dup4\n        /* \"#utility.yul\":17846:17863   */\n      add\n        /* \"#utility.yul\":17839:17886   */\n      mstore\n        /* \"#utility.yul\":17903:18034   */\n      tag_485\n        /* \"#utility.yul\":18029:18033   */\n      dup2\n        /* \"#utility.yul\":17903:18034   */\n      tag_425\n      jump\t// in\n    tag_485:\n        /* \"#utility.yul\":17895:18034   */\n      swap1\n      pop\n        /* \"#utility.yul\":17622:18041   */\n      swap2\n      swap1\n      pop\n      jump\t// out\n        /* \"#utility.yul\":18047:18466   */\n    tag_147:\n        /* \"#utility.yul\":18213:18217   */\n      0x00\n        /* \"#utility.yul\":18251:18253   */\n      0x20\n        /* \"#utility.yul\":18240:18249   */\n      dup3\n        /* \"#utility.yul\":18236:18254   */\n      add\n        /* \"#utility.yul\":18228:18254   */\n      swap1\n      pop\n        /* \"#utility.yul\":18300:18309   */\n      dup2\n        /* \"#utility.yul\":18294:18298   */\n      dup2\n        /* \"#utility.yul\":18290:18310   */\n      sub\n        /* \"#utility.yul\":18286:18287   */\n      0x00\n        /* \"#utility.yul\":18275:18284   */\n      dup4\n        /* \"#utility.yul\":18271:18288   */\n      add\n        /* \"#utility.yul\":18264:18311   */\n      mstore\n        /* \"#utility.yul\":18328:18459   */\n      tag_487\n        /* \"#utility.yul\":18454:18458   */\n      dup2\n        /* \"#utility.yul\":18328:18459   */\n      tag_430\n      jump\t// in\n    tag_487:\n        /* \"#utility.yul\":18320:18459   */\n      swap1\n      pop\n        /* \"#utility.yul\":18047:18466   */\n      swap2\n      swap1\n      pop\n      jump\t// out\n        /* \"#utility.yul\":18472:18891   */\n    tag_126:\n        /* \"#utility.yul\":18638:18642   */\n      0x00\n        /* \"#utility.yul\":18676:18678   */\n      0x20\n        /* \"#utility.yul\":18665:18674   */\n      dup3\n        /* \"#utility.yul\":18661:18679   */\n      add\n        /* \"#utility.yul\":18653:18679   */\n      swap1\n      pop\n        /* \"#utility.yul\":18725:18734   */\n      dup2\n        /* \"#utility.yul\":18719:18723   */\n      dup2\n        /* \"#utility.yul\":18715:18735   */\n      sub\n        /* \"#utility.yul\":18711:18712   */\n      0x00\n        /* \"#utility.yul\":18700:18709   */\n      dup4\n        /* \"#utility.yul\":18696:18713   */\n      add\n        /* \"#utility.yul\":18689:18736   */\n      mstore\n        /* \"#utility.yul\":18753:18884   */\n      tag_489\n        /* \"#utility.yul\":18879:18883   */\n      dup2\n        /* \"#utility.yul\":18753:18884   */\n      tag_435\n      jump\t// in\n    tag_489:\n        /* \"#utility.yul\":18745:18884   */\n      swap1\n      pop\n        /* \"#utility.yul\":18472:18891   */\n      swap2\n      swap1\n      pop\n      jump\t// out\n        /* \"#utility.yul\":18897:19316   */\n    tag_213:\n        /* \"#utility.yul\":19063:19067   */\n      0x00\n        /* \"#utility.yul\":19101:19103   */\n      0x20\n        /* \"#utility.yul\":19090:19099   */\n      dup3\n        /* \"#utility.yul\":19086:19104   */\n      add\n        /* \"#utility.yul\":19078:19104   */\n      swap1\n      pop\n        /* \"#utility.yul\":19150:19159   */\n      dup2\n        /* \"#utility.yul\":19144:19148   */\n      dup2\n        /* \"#utility.yul\":19140:19160   */\n      sub\n        /* \"#utility.yul\":19136:19137   */\n      0x00\n        /* \"#utility.yul\":19125:19134   */\n      dup4\n        /* \"#utility.yul\":19121:19138   */\n      add\n        /* \"#utility.yul\":19114:19161   */\n      mstore\n        /* \"#utility.yul\":19178:19309   */\n      tag_491\n        /* \"#utility.yul\":19304:19308   */\n      dup2\n        /* \"#utility.yul\":19178:19309   */\n      tag_440\n      jump\t// in\n    tag_491:\n        /* \"#utility.yul\":19170:19309   */\n      swap1\n      pop\n        /* \"#utility.yul\":18897:19316   */\n      swap2\n      swap1\n      pop\n      jump\t// out\n        /* \"#utility.yul\":19322:19741   */\n    tag_121:\n        /* \"#utility.yul\":19488:19492   */\n      0x00\n        /* \"#utility.yul\":19526:19528   */\n      0x20\n        /* \"#utility.yul\":19515:19524   */\n      dup3\n        /* \"#utility.yul\":19511:19529   */\n      add\n        /* \"#utility.yul\":19503:19529   */\n      swap1\n      pop\n        /* \"#utility.yul\":19575:19584   */\n      dup2\n        /* \"#utility.yul\":19569:19573   */\n      dup2\n        /* \"#utility.yul\":19565:19585   */\n      sub\n        /* \"#utility.yul\":19561:19562   */\n      0x00\n        /* \"#utility.yul\":19550:19559   */\n      dup4\n        /* \"#utility.yul\":19546:19563   */\n      add\n        /* \"#utility.yul\":19539:19586   */\n      mstore\n        /* \"#utility.yul\":19603:19734   */\n      tag_493\n        /* \"#utility.yul\":19729:19733   */\n      dup2\n        /* \"#utility.yul\":19603:19734   */\n      tag_445\n      jump\t// in\n    tag_493:\n        /* \"#utility.yul\":19595:19734   */\n      swap1\n      pop\n        /* \"#utility.yul\":19322:19741   */\n      swap2\n      swap1\n      pop\n      jump\t// out\n        /* \"#utility.yul\":19747:20166   */\n    tag_166:\n        /* \"#utility.yul\":19913:19917   */\n      0x00\n        /* \"#utility.yul\":19951:19953   */\n      0x20\n        /* \"#utility.yul\":19940:19949   */\n      dup3\n        /* \"#utility.yul\":19936:19954   */\n      add\n        /* \"#utility.yul\":19928:19954   */\n      swap1\n      pop\n        /* \"#utility.yul\":20000:20009   */\n      dup2\n        /* \"#utility.yul\":19994:19998   */\n      dup2\n        /* \"#utility.yul\":19990:20010   */\n      sub\n        /* \"#utility.yul\":19986:19987   */\n      0x00\n        /* \"#utility.yul\":19975:19984   */\n      dup4\n        /* \"#utility.yul\":19971:19988   */\n      add\n        /* \"#utility.yul\":19964:20011   */\n      mstore\n        /* \"#utility.yul\":20028:20159   */\n      tag_495\n        /* \"#utility.yul\":20154:20158   */\n      dup2\n        /* \"#utility.yul\":20028:20159   */\n      tag_450\n      jump\t// in\n    tag_495:\n        /* \"#utility.yul\":20020:20159   */\n      swap1\n      pop\n        /* \"#utility.yul\":19747:20166   */\n      swap2\n      swap1\n      pop\n      jump\t// out\n        /* \"#utility.yul\":20172:20394   */\n    tag_55:\n        /* \"#utility.yul\":20265:20269   */\n      0x00\n        /* \"#utility.yul\":20303:20305   */\n      0x20\n        /* \"#utility.yul\":20292:20301   */\n      dup3\n        /* \"#utility.yul\":20288:20306   */\n      add\n        /* \"#utility.yul\":20280:20306   */\n      swap1\n      pop\n        /* \"#utility.yul\":20316:20387   */\n      tag_497\n        /* \"#utility.yul\":20384:20385   */\n      0x00\n        /* \"#utility.yul\":20373:20382   */\n      dup4\n        /* \"#utility.yul\":20369:20386   */\n      add\n        /* \"#utility.yul\":20360:20366   */\n      dup5\n        /* \"#utility.yul\":20316:20387   */\n      tag_455\n      jump\t// in\n    tag_497:\n        /* \"#utility.yul\":20172:20394   */\n      swap3\n      swap2\n      pop\n      pop\n      jump\t// out\n        /* \"#utility.yul\":20400:20529   */\n    tag_265:\n        /* \"#utility.yul\":20434:20440   */\n      0x00\n        /* \"#utility.yul\":20461:20481   */\n      tag_499\n      tag_500\n      jump\t// in\n    tag_499:\n        /* \"#utility.yul\":20451:20481   */\n      swap1\n      pop\n        /* \"#utility.yul\":20490:20523   */\n      tag_501\n        /* \"#utility.yul\":20518:20522   */\n      dup3\n        /* \"#utility.yul\":20510:20516   */\n      dup3\n        /* \"#utility.yul\":20490:20523   */\n      tag_502\n      jump\t// in\n    tag_501:\n        /* \"#utility.yul\":20400:20529   */\n      swap2\n      swap1\n      pop\n      jump\t// out\n        /* \"#utility.yul\":20535:20610   */\n    tag_500:\n        /* \"#utility.yul\":20568:20574   */\n      0x00\n        /* \"#utility.yul\":20601:20603   */\n      0x40\n        /* \"#utility.yul\":20595:20604   */\n      mload\n        /* \"#utility.yul\":20585:20604   */\n      swap1\n      pop\n        /* \"#utility.yul\":20535:20610   */\n      swap1\n      jump\t// out\n        /* \"#utility.yul\":20616:20923   */\n    tag_264:\n        /* \"#utility.yul\":20677:20681   */\n      0x00\n        /* \"#utility.yul\":20767:20785   */\n      0xffffffffffffffff\n        /* \"#utility.yul\":20759:20765   */\n      dup3\n        /* \"#utility.yul\":20756:20786   */\n      gt\n        /* \"#utility.yul\":20753:20809   */\n      iszero\n      tag_505\n      jumpi\n        /* \"#utility.yul\":20789:20807   */\n      tag_506\n      tag_507\n      jump\t// in\n    tag_506:\n        /* \"#utility.yul\":20753:20809   */\n    tag_505:\n        /* \"#utility.yul\":20827:20856   */\n      tag_508\n        /* \"#utility.yul\":20849:20855   */\n      dup3\n        /* \"#utility.yul\":20827:20856   */\n      tag_381\n      jump\t// in\n    tag_508:\n        /* \"#utility.yul\":20819:20856   */\n      swap1\n      pop\n        /* \"#utility.yul\":20911:20915   */\n      0x20\n        /* \"#utility.yul\":20905:20909   */\n      dup2\n        /* \"#utility.yul\":20901:20916   */\n      add\n        /* \"#utility.yul\":20893:20916   */\n      swap1\n      pop\n        /* \"#utility.yul\":20616:20923   */\n      swap2\n      swap1\n      pop\n      jump\t// out\n        /* \"#utility.yul\":20929:21237   */\n    tag_275:\n        /* \"#utility.yul\":20991:20995   */\n      0x00\n        /* \"#utility.yul\":21081:21099   */\n      0xffffffffffffffff\n        /* \"#utility.yul\":21073:21079   */\n      dup3\n        /* \"#utility.yul\":21070:21100   */\n      gt\n        /* \"#utility.yul\":21067:21123   */\n      iszero\n      tag_510\n      jumpi\n        /* \"#utility.yul\":21103:21121   */\n      tag_511\n      tag_507\n      jump\t// in\n    tag_511:\n        /* \"#utility.yul\":21067:21123   */\n    tag_510:\n        /* \"#utility.yul\":21141:21170   */\n      tag_512\n        /* \"#utility.yul\":21163:21169   */\n      dup3\n        /* \"#utility.yul\":21141:21170   */\n      tag_381\n      jump\t// in\n    tag_512:\n        /* \"#utility.yul\":21133:21170   */\n      swap1\n      pop\n        /* \"#utility.yul\":21225:21229   */\n      0x20\n        /* \"#utility.yul\":21219:21223   */\n      dup2\n        /* \"#utility.yul\":21215:21230   */\n      add\n        /* \"#utility.yul\":21207:21230   */\n      swap1\n      pop\n        /* \"#utility.yul\":20929:21237   */\n      swap2\n      swap1\n      pop\n      jump\t// out\n        /* \"#utility.yul\":21243:21341   */\n    tag_375:\n        /* \"#utility.yul\":21294:21300   */\n      0x00\n        /* \"#utility.yul\":21328:21333   */\n      dup2\n        /* \"#utility.yul\":21322:21334   */\n      mload\n        /* \"#utility.yul\":21312:21334   */\n      swap1\n      pop\n        /* \"#utility.yul\":21243:21341   */\n      swap2\n      swap1\n      pop\n      jump\t// out\n        /* \"#utility.yul\":21347:21446   */\n    tag_385:\n        /* \"#utility.yul\":21399:21405   */\n      0x00\n        /* \"#utility.yul\":21433:21438   */\n      dup2\n        /* \"#utility.yul\":21427:21439   */\n      mload\n        /* \"#utility.yul\":21417:21439   */\n      swap1\n      pop\n        /* \"#utility.yul\":21347:21446   */\n      swap2\n      swap1\n      pop\n      jump\t// out\n        /* \"#utility.yul\":21452:21620   */\n    tag_377:\n        /* \"#utility.yul\":21535:21546   */\n      0x00\n        /* \"#utility.yul\":21569:21575   */\n      dup3\n        /* \"#utility.yul\":21564:21567   */\n      dup3\n        /* \"#utility.yul\":21557:21576   */\n      mstore\n        /* \"#utility.yul\":21609:21613   */\n      0x20\n        /* \"#utility.yul\":21604:21607   */\n      dup3\n        /* \"#utility.yul\":21600:21614   */\n      add\n        /* \"#utility.yul\":21585:21614   */\n      swap1\n      pop\n        /* \"#utility.yul\":21452:21620   */\n      swap3\n      swap2\n      pop\n      pop\n      jump\t// out\n        /* \"#utility.yul\":21626:21795   */\n    tag_387:\n        /* \"#utility.yul\":21710:21721   */\n      0x00\n        /* \"#utility.yul\":21744:21750   */\n      dup3\n        /* \"#utility.yul\":21739:21742   */\n      dup3\n        /* \"#utility.yul\":21732:21751   */\n      mstore\n        /* \"#utility.yul\":21784:21788   */\n      0x20\n        /* \"#utility.yul\":21779:21782   */\n      dup3\n        /* \"#utility.yul\":21775:21789   */\n      add\n        /* \"#utility.yul\":21760:21789   */\n      swap1\n      pop\n        /* \"#utility.yul\":21626:21795   */\n      swap3\n      swap2\n      pop\n      pop\n      jump\t// out\n        /* \"#utility.yul\":21801:22106   */\n    tag_158:\n        /* \"#utility.yul\":21841:21844   */\n      0x00\n        /* \"#utility.yul\":21860:21880   */\n      tag_518\n        /* \"#utility.yul\":21878:21879   */\n      dup3\n        /* \"#utility.yul\":21860:21880   */\n      tag_458\n      jump\t// in\n    tag_518:\n        /* \"#utility.yul\":21855:21880   */\n      swap2\n      pop\n        /* \"#utility.yul\":21894:21914   */\n      tag_519\n        /* \"#utility.yul\":21912:21913   */\n      dup4\n        /* \"#utility.yul\":21894:21914   */\n      tag_458\n      jump\t// in\n    tag_519:\n        /* \"#utility.yul\":21889:21914   */\n      swap3\n      pop\n        /* \"#utility.yul\":22048:22049   */\n      dup3\n        /* \"#utility.yul\":21980:22046   */\n      0xffffffffffffffffffffffffffffffffffffffffffffffffffffffffffffffff\n        /* \"#utility.yul\":21976:22050   */\n      sub\n        /* \"#utility.yul\":21973:21974   */\n      dup3\n        /* \"#utility.yul\":21970:22051   */\n      gt\n        /* \"#utility.yul\":21967:22074   */\n      iszero\n      tag_520\n      jumpi\n        /* \"#utility.yul\":22054:22072   */\n      tag_521\n      tag_522\n      jump\t// in\n    tag_521:\n        /* \"#utility.yul\":21967:22074   */\n    tag_520:\n        /* \"#utility.yul\":22098:22099   */\n      dup3\n        /* \"#utility.yul\":22095:22096   */\n      dup3\n        /* \"#utility.yul\":22091:22100   */\n      add\n        /* \"#utility.yul\":22084:22100   */\n      swap1\n      pop\n        /* \"#utility.yul\":21801:22106   */\n      swap3\n      swap2\n      pop\n      pop\n      jump\t// out\n        /* \"#utility.yul\":22112:22303   */\n    tag_156:\n        /* \"#utility.yul\":22152:22156   */\n      0x00\n        /* \"#utility.yul\":22172:22192   */\n      tag_524\n        /* \"#utility.yul\":22190:22191   */\n      dup3\n        /* \"#utility.yul\":22172:22192   */\n      tag_458\n      jump\t// in\n    tag_524:\n        /* \"#utility.yul\":22167:22192   */\n      swap2\n      pop\n        /* \"#utility.yul\":22206:22226   */\n      tag_525\n        /* \"#utility.yul\":22224:22225   */\n      dup4\n        /* \"#utility.yul\":22206:22226   */\n      tag_458\n      jump\t// in\n    tag_525:\n        /* \"#utility.yul\":22201:22226   */\n      swap3\n      pop\n        /* \"#utility.yul\":22245:22246   */\n      dup3\n        /* \"#utility.yul\":22242:22243   */\n      dup3\n        /* \"#utility.yul\":22239:22247   */\n      lt\n        /* \"#utility.yul\":22236:22270   */\n      iszero\n      tag_526\n      jumpi\n        /* \"#utility.yul\":22250:22268   */\n      tag_527\n      tag_522\n      jump\t// in\n    tag_527:\n        /* \"#utility.yul\":22236:22270   */\n    tag_526:\n        /* \"#utility.yul\":22295:22296   */\n      dup3\n        /* \"#utility.yul\":22292:22293   */\n      dup3\n        /* \"#utility.yul\":22288:22297   */\n      sub\n        /* \"#utility.yul\":22280:22297   */\n      swap1\n      pop\n        /* \"#utility.yul\":22112:22303   */\n      swap3\n      swap2\n      pop\n      pop\n      jump\t// out\n        /* \"#utility.yul\":22309:22405   */\n    tag_367:\n        /* \"#utility.yul\":22346:22353   */\n      0x00\n        /* \"#utility.yul\":22375:22399   */\n      tag_529\n        /* \"#utility.yul\":22393:22398   */\n      dup3\n        /* \"#utility.yul\":22375:22399   */\n      tag_530\n      jump\t// in\n    tag_529:\n        /* \"#utility.yul\":22364:22399   */\n      swap1\n      pop\n        /* \"#utility.yul\":22309:22405   */\n      swap2\n      swap1\n      pop\n      jump\t// out\n        /* \"#utility.yul\":22411:22501   */\n    tag_371:\n        /* \"#utility.yul\":22445:22452   */\n      0x00\n        /* \"#utility.yul\":22488:22493   */\n      dup2\n        /* \"#utility.yul\":22481:22494   */\n      iszero\n        /* \"#utility.yul\":22474:22495   */\n      iszero\n        /* \"#utility.yul\":22463:22495   */\n      swap1\n      pop\n        /* \"#utility.yul\":22411:22501   */\n      swap2\n      swap1\n      pop\n      jump\t// out\n        /* \"#utility.yul\":22507:22656   */\n    tag_532:\n        /* \"#utility.yul\":22543:22550   */\n      0x00\n        /* \"#utility.yul\":22583:22649   */\n      0xffffffff00000000000000000000000000000000000000000000000000000000\n        /* \"#utility.yul\":22576:22581   */\n      dup3\n        /* \"#utility.yul\":22572:22650   */\n      and\n        /* \"#utility.yul\":22561:22650   */\n      swap1\n      pop\n        /* \"#utility.yul\":22507:22656   */\n      swap2\n      swap1\n      pop\n      jump\t// out\n        /* \"#utility.yul\":22662:22788   */\n    tag_530:\n        /* \"#utility.yul\":22699:22706   */\n      0x00\n        /* \"#utility.yul\":22739:22781   */\n      0xffffffffffffffffffffffffffffffffffffffff\n        /* \"#utility.yul\":22732:22737   */\n      dup3\n        /* \"#utility.yul\":22728:22782   */\n      and\n        /* \"#utility.yul\":22717:22782   */\n      swap1\n      pop\n        /* \"#utility.yul\":22662:22788   */\n      swap2\n      swap1\n      pop\n      jump\t// out\n        /* \"#utility.yul\":22794:22871   */\n    tag_458:\n        /* \"#utility.yul\":22831:22838   */\n      0x00\n        /* \"#utility.yul\":22860:22865   */\n      dup2\n        /* \"#utility.yul\":22849:22865   */\n      swap1\n      pop\n        /* \"#utility.yul\":22794:22871   */\n      swap2\n      swap1\n      pop\n      jump\t// out\n        /* \"#utility.yul\":22877:23031   */\n    tag_270:\n        /* \"#utility.yul\":22961:22967   */\n      dup3\n        /* \"#utility.yul\":22956:22959   */\n      dup2\n        /* \"#utility.yul\":22951:22954   */\n      dup4\n        /* \"#utility.yul\":22938:22968   */\n      calldatacopy\n        /* \"#utility.yul\":23023:23024   */\n      0x00\n        /* \"#utility.yul\":23014:23020   */\n      dup4\n        /* \"#utility.yul\":23009:23012   */\n      dup4\n        /* \"#utility.yul\":23005:23021   */\n      add\n        /* \"#utility.yul\":22998:23025   */\n      mstore\n        /* \"#utility.yul\":22877:23031   */\n      pop\n      pop\n      pop\n      jump\t// out\n        /* \"#utility.yul\":23037:23344   */\n    tag_379:\n        /* \"#utility.yul\":23105:23106   */\n      0x00\n        /* \"#utility.yul\":23115:23228   */\n    tag_538:\n        /* \"#utility.yul\":23129:23135   */\n      dup4\n        /* \"#utility.yul\":23126:23127   */\n      dup2\n        /* \"#utility.yul\":23123:23136   */\n      lt\n        /* \"#utility.yul\":23115:23228   */\n      iszero\n      tag_540\n      jumpi\n        /* \"#utility.yul\":23214:23215   */\n      dup1\n        /* \"#utility.yul\":23209:23212   */\n      dup3\n        /* \"#utility.yul\":23205:23216   */\n      add\n        /* \"#utility.yul\":23199:23217   */\n      mload\n        /* \"#utility.yul\":23195:23196   */\n      dup2\n        /* \"#utility.yul\":23190:23193   */\n      dup5\n        /* \"#utility.yul\":23186:23197   */\n      add\n        /* \"#utility.yul\":23179:23218   */\n      mstore\n        /* \"#utility.yul\":23151:23153   */\n      0x20\n        /* \"#utility.yul\":23148:23149   */\n      dup2\n        /* \"#utility.yul\":23144:23154   */\n      add\n        /* \"#utility.yul\":23139:23154   */\n      swap1\n      pop\n        /* \"#utility.yul\":23115:23228   */\n      jump(tag_538)\n    tag_540:\n        /* \"#utility.yul\":23246:23252   */\n      dup4\n        /* \"#utility.yul\":23243:23244   */\n      dup2\n        /* \"#utility.yul\":23240:23253   */\n      gt\n        /* \"#utility.yul\":23237:23338   */\n      iszero\n      tag_541\n      jumpi\n        /* \"#utility.yul\":23326:23327   */\n      0x00\n        /* \"#utility.yul\":23317:23323   */\n      dup5\n        /* \"#utility.yul\":23312:23315   */\n      dup5\n        /* \"#utility.yul\":23308:23324   */\n      add\n        /* \"#utility.yul\":23301:23328   */\n      mstore\n        /* \"#utility.yul\":23237:23338   */\n    tag_541:\n        /* \"#utility.yul\":23086:23344   */\n      pop\n        /* \"#utility.yul\":23037:23344   */\n      pop\n      pop\n      pop\n      jump\t// out\n        /* \"#utility.yul\":23350:23670   */\n    tag_113:\n        /* \"#utility.yul\":23394:23400   */\n      0x00\n        /* \"#utility.yul\":23431:23432   */\n      0x02\n        /* \"#utility.yul\":23425:23429   */\n      dup3\n        /* \"#utility.yul\":23421:23433   */\n      div\n        /* \"#utility.yul\":23411:23433   */\n      swap1\n      pop\n        /* \"#utility.yul\":23478:23479   */\n      0x01\n        /* \"#utility.yul\":23472:23476   */\n      dup3\n        /* \"#utility.yul\":23468:23480   */\n      and\n        /* \"#utility.yul\":23499:23517   */\n      dup1\n        /* \"#utility.yul\":23489:23570   */\n      tag_543\n      jumpi\n        /* \"#utility.yul\":23555:23559   */\n      0x7f\n        /* \"#utility.yul\":23547:23553   */\n      dup3\n        /* \"#utility.yul\":23543:23560   */\n      and\n        /* \"#utility.yul\":23533:23560   */\n      swap2\n      pop\n        /* \"#utility.yul\":23489:23570   */\n    tag_543:\n        /* \"#utility.yul\":23617:23619   */\n      0x20\n        /* \"#utility.yul\":23609:23615   */\n      dup3\n        /* \"#utility.yul\":23606:23620   */\n      lt\n        /* \"#utility.yul\":23586:23604   */\n      dup2\n        /* \"#utility.yul\":23583:23621   */\n      eq\n        /* \"#utility.yul\":23580:23664   */\n      iszero\n      tag_544\n      jumpi\n        /* \"#utility.yul\":23636:23654   */\n      tag_545\n      tag_546\n      jump\t// in\n    tag_545:\n        /* \"#utility.yul\":23580:23664   */\n    tag_544:\n        /* \"#utility.yul\":23401:23670   */\n      pop\n        /* \"#utility.yul\":23350:23670   */\n      swap2\n      swap1\n      pop\n      jump\t// out\n        /* \"#utility.yul\":23676:23957   */\n    tag_502:\n        /* \"#utility.yul\":23759:23786   */\n      tag_548\n        /* \"#utility.yul\":23781:23785   */\n      dup3\n        /* \"#utility.yul\":23759:23786   */\n      tag_381\n      jump\t// in\n    tag_548:\n        /* \"#utility.yul\":23751:23757   */\n      dup2\n        /* \"#utility.yul\":23747:23787   */\n      add\n        /* \"#utility.yul\":23889:23895   */\n      dup2\n        /* \"#utility.yul\":23877:23887   */\n      dup2\n        /* \"#utility.yul\":23874:23896   */\n      lt\n        /* \"#utility.yul\":23853:23871   */\n      0xffffffffffffffff\n        /* \"#utility.yul\":23841:23851   */\n      dup3\n        /* \"#utility.yul\":23838:23872   */\n      gt\n        /* \"#utility.yul\":23835:23897   */\n      or\n        /* \"#utility.yul\":23832:23920   */\n      iszero\n      tag_549\n      jumpi\n        /* \"#utility.yul\":23900:23918   */\n      tag_550\n      tag_507\n      jump\t// in\n    tag_550:\n        /* \"#utility.yul\":23832:23920   */\n    tag_549:\n        /* \"#utility.yul\":23940:23950   */\n      dup1\n        /* \"#utility.yul\":23936:23938   */\n      0x40\n        /* \"#utility.yul\":23929:23951   */\n      mstore\n        /* \"#utility.yul\":23719:23957   */\n      pop\n        /* \"#utility.yul\":23676:23957   */\n      pop\n      pop\n      jump\t// out\n        /* \"#utility.yul\":23963:24143   */\n    tag_522:\n        /* \"#utility.yul\":24011:24088   */\n      0x4e487b7100000000000000000000000000000000000000000000000000000000\n        /* \"#utility.yul\":24008:24009   */\n      0x00\n        /* \"#utility.yul\":24001:24089   */\n      mstore\n        /* \"#utility.yul\":24108:24112   */\n      0x11\n        /* \"#utility.yul\":24105:24106   */\n      0x04\n        /* \"#utility.yul\":24098:24113   */\n      mstore\n        /* \"#utility.yul\":24132:24136   */\n      0x24\n        /* \"#utility.yul\":24129:24130   */\n      0x00\n        /* \"#utility.yul\":24122:24137   */\n      revert\n        /* \"#utility.yul\":24149:24329   */\n    tag_546:\n        /* \"#utility.yul\":24197:24274   */\n      0x4e487b7100000000000000000000000000000000000000000000000000000000\n        /* \"#utility.yul\":24194:24195   */\n      0x00\n        /* \"#utility.yul\":24187:24275   */\n      mstore\n        /* \"#utility.yul\":24294:24298   */\n      0x22\n        /* \"#utility.yul\":24291:24292   */\n      0x04\n        /* \"#utility.yul\":24284:24299   */\n      mstore\n        /* \"#utility.yul\":24318:24322   */\n      0x24\n        /* \"#utility.yul\":24315:24316   */\n      0x00\n        /* \"#utility.yul\":24308:24323   */\n      revert\n        /* \"#utility.yul\":24335:24515   */\n    tag_174:\n        /* \"#utility.yul\":24383:24460   */\n      0x4e487b7100000000000000000000000000000000000000000000000000000000\n        /* \"#utility.yul\":24380:24381   */\n      0x00\n        /* \"#utility.yul\":24373:24461   */\n      mstore\n        /* \"#utility.yul\":24480:24484   */\n      0x32\n        /* \"#utility.yul\":24477:24478   */\n      0x04\n        /* \"#utility.yul\":24470:24485   */\n      mstore\n        /* \"#utility.yul\":24504:24508   */\n      0x24\n        /* \"#utility.yul\":24501:24502   */\n      0x00\n        /* \"#utility.yul\":24494:24509   */\n      revert\n        /* \"#utility.yul\":24521:24701   */\n    tag_507:\n        /* \"#utility.yul\":24569:24646   */\n      0x4e487b7100000000000000000000000000000000000000000000000000000000\n        /* \"#utility.yul\":24566:24567   */\n      0x00\n        /* \"#utility.yul\":24559:24647   */\n      mstore\n        /* \"#utility.yul\":24666:24670   */\n      0x41\n        /* \"#utility.yul\":24663:24664   */\n      0x04\n        /* \"#utility.yul\":24656:24671   */\n      mstore\n        /* \"#utility.yul\":24690:24694   */\n      0x24\n        /* \"#utility.yul\":24687:24688   */\n      0x00\n        /* \"#utility.yul\":24680:24695   */\n      revert\n        /* \"#utility.yul\":24707:24890   */\n    tag_239:\n        /* \"#utility.yul\":24742:24745   */\n      0x00\n        /* \"#utility.yul\":24780:24781   */\n      0x03\n        /* \"#utility.yul\":24762:24778   */\n      returndatasize\n        /* \"#utility.yul\":24759:24782   */\n      gt\n        /* \"#utility.yul\":24756:24884   */\n      iszero\n      tag_556\n      jumpi\n        /* \"#utility.yul\":24818:24819   */\n      0x04\n        /* \"#utility.yul\":24815:24816   */\n      0x00\n        /* \"#utility.yul\":24812:24813   */\n      dup1\n        /* \"#utility.yul\":24797:24820   */\n      returndatacopy\n        /* \"#utility.yul\":24840:24874   */\n      tag_557\n        /* \"#utility.yul\":24871:24872   */\n      0x00\n        /* \"#utility.yul\":24865:24873   */\n      mload\n        /* \"#utility.yul\":24840:24874   */\n      tag_558\n      jump\t// in\n    tag_557:\n        /* \"#utility.yul\":24833:24874   */\n      swap1\n      pop\n        /* \"#utility.yul\":24756:24884   */\n    tag_556:\n        /* \"#utility.yul\":24707:24890   */\n      swap1\n      jump\t// out\n        /* \"#utility.yul\":24896:25013   */\n    tag_298:\n        /* \"#utility.yul\":25005:25006   */\n      0x00\n        /* \"#utility.yul\":25002:25003   */\n      dup1\n        /* \"#utility.yul\":24995:25007   */\n      revert\n        /* \"#utility.yul\":25019:25136   */\n    tag_268:\n        /* \"#utility.yul\":25128:25129   */\n      0x00\n        /* \"#utility.yul\":25125:25126   */\n      dup1\n        /* \"#utility.yul\":25118:25130   */\n      revert\n        /* \"#utility.yul\":25142:25259   */\n    tag_333:\n        /* \"#utility.yul\":25251:25252   */\n      0x00\n        /* \"#utility.yul\":25248:25249   */\n      dup1\n        /* \"#utility.yul\":25241:25253   */\n      revert\n        /* \"#utility.yul\":25265:25382   */\n    tag_312:\n        /* \"#utility.yul\":25374:25375   */\n      0x00\n        /* \"#utility.yul\":25371:25372   */\n      dup1\n        /* \"#utility.yul\":25364:25376   */\n      revert\n        /* \"#utility.yul\":25388:25490   */\n    tag_381:\n        /* \"#utility.yul\":25429:25435   */\n      0x00\n        /* \"#utility.yul\":25480:25482   */\n      0x1f\n        /* \"#utility.yul\":25476:25483   */\n      not\n        /* \"#utility.yul\":25471:25473   */\n      0x1f\n        /* \"#utility.yul\":25464:25469   */\n      dup4\n        /* \"#utility.yul\":25460:25474   */\n      add\n        /* \"#utility.yul\":25456:25484   */\n      and\n        /* \"#utility.yul\":25446:25484   */\n      swap1\n      pop\n        /* \"#utility.yul\":25388:25490   */\n      swap2\n      swap1\n      pop\n      jump\t// out\n        /* \"#utility.yul\":25496:25602   */\n    tag_558:\n        /* \"#utility.yul\":25540:25548   */\n      0x00\n        /* \"#utility.yul\":25589:25594   */\n      dup2\n        /* \"#utility.yul\":25584:25587   */\n      0xe0\n        /* \"#utility.yul\":25580:25595   */\n      shr\n        /* \"#utility.yul\":25559:25595   */\n      swap1\n      pop\n        /* \"#utility.yul\":25496:25602   */\n      swap2\n      swap1\n      pop\n      jump\t// out\n        /* \"#utility.yul\":25608:25784   */\n    tag_394:\n        /* \"#utility.yul\":25748:25776   */\n      0x7472616e736665722066726f6d207a65726f2061646472657373000000000000\n        /* \"#utility.yul\":25744:25745   */\n      0x00\n        /* \"#utility.yul\":25736:25742   */\n      dup3\n        /* \"#utility.yul\":25732:25746   */\n      add\n        /* \"#utility.yul\":25725:25777   */\n      mstore\n        /* \"#utility.yul\":25608:25784   */\n      pop\n      jump\t// out\n        /* \"#utility.yul\":25790:25971   */\n    tag_399:\n        /* \"#utility.yul\":25930:25963   */\n      0x63616c6c6572206973206e6f74206f776e6572206f7220617070726f76616c00\n        /* \"#utility.yul\":25926:25927   */\n      0x00\n        /* \"#utility.yul\":25918:25924   */\n      dup3\n        /* \"#utility.yul\":25914:25928   */\n      add\n        /* \"#utility.yul\":25907:25964   */\n      mstore\n        /* \"#utility.yul\":25790:25971   */\n      pop\n      jump\t// out\n        /* \"#utility.yul\":25977:26148   */\n    tag_404:\n        /* \"#utility.yul\":26117:26140   */\n      0x6f776e6572206973207a65726f20616464726573730000000000000000000000\n        /* \"#utility.yul\":26113:26114   */\n      0x00\n        /* \"#utility.yul\":26105:26111   */\n      dup3\n        /* \"#utility.yul\":26101:26115   */\n      add\n        /* \"#utility.yul\":26094:26141   */\n      mstore\n        /* \"#utility.yul\":25977:26148   */\n      pop\n      jump\t// out\n        /* \"#utility.yul\":26154:26324   */\n    tag_409:\n        /* \"#utility.yul\":26294:26316   */\n      0x6d696e7420746f207a65726f2061646472657373000000000000000000000000\n        /* \"#utility.yul\":26290:26291   */\n      0x00\n        /* \"#utility.yul\":26282:26288   */\n      dup3\n        /* \"#utility.yul\":26278:26292   */\n      add\n        /* \"#utility.yul\":26271:26317   */\n      mstore\n        /* \"#utility.yul\":26154:26324   */\n      pop\n      jump\t// out\n        /* \"#utility.yul\":26330:26559   */\n    tag_414:\n        /* \"#utility.yul\":26470:26504   */\n      0x7472616e7366657220746f206e6f6e2045524337323152656365697665722069\n        /* \"#utility.yul\":26466:26467   */\n      0x00\n        /* \"#utility.yul\":26458:26464   */\n      dup3\n        /* \"#utility.yul\":26454:26468   */\n      add\n        /* \"#utility.yul\":26447:26505   */\n      mstore\n        /* \"#utility.yul\":26539:26551   */\n      0x6d706c656d656e74657200000000000000000000000000000000000000000000\n        /* \"#utility.yul\":26534:26536   */\n      0x20\n        /* \"#utility.yul\":26526:26532   */\n      dup3\n        /* \"#utility.yul\":26522:26537   */\n      add\n        /* \"#utility.yul\":26515:26552   */\n      mstore\n        /* \"#utility.yul\":26330:26559   */\n      pop\n      jump\t// out\n        /* \"#utility.yul\":26565:26797   */\n    tag_419:\n        /* \"#utility.yul\":26705:26739   */\n      0x63616c6c6572206973206e6f7420746f6b656e206f776e6572206f7220617070\n        /* \"#utility.yul\":26701:26702   */\n      0x00\n        /* \"#utility.yul\":26693:26699   */\n      dup3\n        /* \"#utility.yul\":26689:26703   */\n      add\n        /* \"#utility.yul\":26682:26740   */\n      mstore\n        /* \"#utility.yul\":26774:26789   */\n      0x726f76616c20666f7220616c6c00000000000000000000000000000000000000\n        /* \"#utility.yul\":26769:26771   */\n      0x20\n        /* \"#utility.yul\":26761:26767   */\n      dup3\n        /* \"#utility.yul\":26757:26772   */\n      add\n        /* \"#utility.yul\":26750:26790   */\n      mstore\n        /* \"#utility.yul\":26565:26797   */\n      pop\n      jump\t// out\n        /* \"#utility.yul\":26803:26977   */\n    tag_424:\n        /* \"#utility.yul\":26943:26969   */\n      0x7472616e7366657220746f207a65726f20616464726573730000000000000000\n        /* \"#utility.yul\":26939:26940   */\n      0x00\n        /* \"#utility.yul\":26931:26937   */\n      dup3\n        /* \"#utility.yul\":26927:26941   */\n      add\n        /* \"#utility.yul\":26920:26970   */\n      mstore\n        /* \"#utility.yul\":26803:26977   */\n      pop\n      jump\t// out\n        /* \"#utility.yul\":26983:27146   */\n    tag_429:\n        /* \"#utility.yul\":27123:27138   */\n      0x556e617574686f72697a65642e00000000000000000000000000000000000000\n        /* \"#utility.yul\":27119:27120   */\n      0x00\n        /* \"#utility.yul\":27111:27117   */\n      dup3\n        /* \"#utility.yul\":27107:27121   */\n      add\n        /* \"#utility.yul\":27100:27139   */\n      mstore\n        /* \"#utility.yul\":26983:27146   */\n      pop\n      jump\t// out\n        /* \"#utility.yul\":27152:27334   */\n    tag_434:\n        /* \"#utility.yul\":27292:27326   */\n      0x7472616e736665722066726f6d206973206e6f7420746f6b656e206f776e6572\n        /* \"#utility.yul\":27288:27289   */\n      0x00\n        /* \"#utility.yul\":27280:27286   */\n      dup3\n        /* \"#utility.yul\":27276:27290   */\n      add\n        /* \"#utility.yul\":27269:27327   */\n      mstore\n        /* \"#utility.yul\":27152:27334   */\n      pop\n      jump\t// out\n        /* \"#utility.yul\":27340:27514   */\n    tag_439:\n        /* \"#utility.yul\":27480:27506   */\n      0x617070726f76616c2073746174757320666f722073656c660000000000000000\n        /* \"#utility.yul\":27476:27477   */\n      0x00\n        /* \"#utility.yul\":27468:27474   */\n      dup3\n        /* \"#utility.yul\":27464:27478   */\n      add\n        /* \"#utility.yul\":27457:27507   */\n      mstore\n        /* \"#utility.yul\":27340:27514   */\n      pop\n      jump\t// out\n        /* \"#utility.yul\":27520:27690   */\n    tag_444:\n        /* \"#utility.yul\":27660:27682   */\n      0x746f6b656e20616c7265616479206d696e746564000000000000000000000000\n        /* \"#utility.yul\":27656:27657   */\n      0x00\n        /* \"#utility.yul\":27648:27654   */\n      dup3\n        /* \"#utility.yul\":27644:27658   */\n      add\n        /* \"#utility.yul\":27637:27683   */\n      mstore\n        /* \"#utility.yul\":27520:27690   */\n      pop\n      jump\t// out\n        /* \"#utility.yul\":27696:27865   */\n    tag_449:\n        /* \"#utility.yul\":27836:27857   */\n      0x746f6b656e206973206e6f742065786973747300000000000000000000000000\n        /* \"#utility.yul\":27832:27833   */\n      0x00\n        /* \"#utility.yul\":27824:27830   */\n      dup3\n        /* \"#utility.yul\":27820:27834   */\n      add\n        /* \"#utility.yul\":27813:27858   */\n      mstore\n        /* \"#utility.yul\":27696:27865   */\n      pop\n      jump\t// out\n        /* \"#utility.yul\":27871:28040   */\n    tag_454:\n        /* \"#utility.yul\":28011:28032   */\n      0x696e646578206f7574206f6620626f756e647300000000000000000000000000\n        /* \"#utility.yul\":28007:28008   */\n      0x00\n        /* \"#utility.yul\":27999:28005   */\n      dup3\n        /* \"#utility.yul\":27995:28009   */\n      add\n        /* \"#utility.yul\":27988:28033   */\n      mstore\n        /* \"#utility.yul\":27871:28040   */\n      pop\n      jump\t// out\n        /* \"#utility.yul\":28046:28757   */\n    tag_241:\n        /* \"#utility.yul\":28085:28088   */\n      0x00\n        /* \"#utility.yul\":28123:28127   */\n      0x44\n        /* \"#utility.yul\":28105:28121   */\n      returndatasize\n        /* \"#utility.yul\":28102:28128   */\n      lt\n        /* \"#utility.yul\":28099:28138   */\n      iszero\n      tag_579\n      jumpi\n        /* \"#utility.yul\":28131:28136   */\n      jump(tag_578)\n        /* \"#utility.yul\":28099:28138   */\n    tag_579:\n        /* \"#utility.yul\":28160:28180   */\n      tag_580\n      tag_500\n      jump\t// in\n    tag_580:\n        /* \"#utility.yul\":28235:28236   */\n      0x04\n        /* \"#utility.yul\":28217:28233   */\n      returndatasize\n        /* \"#utility.yul\":28213:28237   */\n      sub\n        /* \"#utility.yul\":28210:28211   */\n      0x04\n        /* \"#utility.yul\":28204:28208   */\n      dup3\n        /* \"#utility.yul\":28189:28238   */\n      returndatacopy\n        /* \"#utility.yul\":28268:28272   */\n      dup1\n        /* \"#utility.yul\":28262:28273   */\n      mload\n        /* \"#utility.yul\":28367:28383   */\n      returndatasize\n        /* \"#utility.yul\":28360:28364   */\n      0x24\n        /* \"#utility.yul\":28352:28358   */\n      dup3\n        /* \"#utility.yul\":28348:28365   */\n      add\n        /* \"#utility.yul\":28345:28384   */\n      gt\n        /* \"#utility.yul\":28312:28330   */\n      0xffffffffffffffff\n        /* \"#utility.yul\":28304:28310   */\n      dup3\n        /* \"#utility.yul\":28301:28331   */\n      gt\n        /* \"#utility.yul\":28285:28398   */\n      or\n        /* \"#utility.yul\":28282:28428   */\n      iszero\n      tag_581\n      jumpi\n        /* \"#utility.yul\":28413:28418   */\n      pop\n      pop\n      jump(tag_578)\n        /* \"#utility.yul\":28282:28428   */\n    tag_581:\n        /* \"#utility.yul\":28459:28465   */\n      dup1\n        /* \"#utility.yul\":28453:28457   */\n      dup3\n        /* \"#utility.yul\":28449:28466   */\n      add\n        /* \"#utility.yul\":28495:28498   */\n      dup1\n        /* \"#utility.yul\":28489:28499   */\n      mload\n        /* \"#utility.yul\":28522:28540   */\n      0xffffffffffffffff\n        /* \"#utility.yul\":28514:28520   */\n      dup2\n        /* \"#utility.yul\":28511:28541   */\n      gt\n        /* \"#utility.yul\":28508:28551   */\n      iszero\n      tag_582\n      jumpi\n        /* \"#utility.yul\":28544:28549   */\n      pop\n      pop\n      pop\n      pop\n      jump(tag_578)\n        /* \"#utility.yul\":28508:28551   */\n    tag_582:\n        /* \"#utility.yul\":28592:28598   */\n      dup1\n        /* \"#utility.yul\":28585:28589   */\n      0x20\n        /* \"#utility.yul\":28580:28583   */\n      dup4\n        /* \"#utility.yul\":28576:28590   */\n      add\n        /* \"#utility.yul\":28572:28599   */\n      add\n        /* \"#utility.yul\":28651:28652   */\n      0x04\n        /* \"#utility.yul\":28633:28649   */\n      returndatasize\n        /* \"#utility.yul\":28629:28653   */\n      sub\n        /* \"#utility.yul\":28623:28627   */\n      dup6\n        /* \"#utility.yul\":28619:28654   */\n      add\n        /* \"#utility.yul\":28614:28617   */\n      dup2\n        /* \"#utility.yul\":28611:28655   */\n      gt\n        /* \"#utility.yul\":28608:28665   */\n      iszero\n      tag_583\n      jumpi\n        /* \"#utility.yul\":28658:28663   */\n      pop\n      pop\n      pop\n      pop\n      pop\n      jump(tag_578)\n        /* \"#utility.yul\":28608:28665   */\n    tag_583:\n        /* \"#utility.yul\":28675:28732   */\n      tag_584\n        /* \"#utility.yul\":28723:28729   */\n      dup3\n        /* \"#utility.yul\":28717:28721   */\n      0x20\n        /* \"#utility.yul\":28713:28730   */\n      add\n        /* \"#utility.yul\":28705:28711   */\n      dup6\n        /* \"#utility.yul\":28701:28731   */\n      add\n        /* \"#utility.yul\":28695:28699   */\n      dup7\n        /* \"#utility.yul\":28675:28732   */\n      tag_502\n      jump\t// in\n    tag_584:\n        /* \"#utility.yul\":28748:28751   */\n      dup3\n        /* \"#utility.yul\":28741:28751   */\n      swap6\n      pop\n        /* \"#utility.yul\":28089:28757   */\n      pop\n      pop\n      pop\n      pop\n      pop\n        /* \"#utility.yul\":28046:28757   */\n    tag_578:\n      swap1\n      jump\t// out\n        /* \"#utility.yul\":28763:28885   */\n    tag_282:\n        /* \"#utility.yul\":28836:28860   */\n      tag_586\n        /* \"#utility.yul\":28854:28859   */\n      dup2\n        /* \"#utility.yul\":28836:28860   */\n      tag_367\n      jump\t// in\n    tag_586:\n        /* \"#utility.yul\":28829:28834   */\n      dup2\n        /* \"#utility.yul\":28826:28861   */\n      eq\n        /* \"#utility.yul\":28816:28879   */\n      tag_587\n      jumpi\n        /* \"#utility.yul\":28875:28876   */\n      0x00\n        /* \"#utility.yul\":28872:28873   */\n      dup1\n        /* \"#utility.yul\":28865:28877   */\n      revert\n        /* \"#utility.yul\":28816:28879   */\n    tag_587:\n        /* \"#utility.yul\":28763:28885   */\n      pop\n      jump\t// out\n        /* \"#utility.yul\":28891:29007   */\n    tag_286:\n        /* \"#utility.yul\":28961:28982   */\n      tag_589\n        /* \"#utility.yul\":28976:28981   */\n      dup2\n        /* \"#utility.yul\":28961:28982   */\n      tag_371\n      jump\t// in\n    tag_589:\n        /* \"#utility.yul\":28954:28959   */\n      dup2\n        /* \"#utility.yul\":28951:28983   */\n      eq\n        /* \"#utility.yul\":28941:29001   */\n      tag_590\n      jumpi\n        /* \"#utility.yul\":28997:28998   */\n      0x00\n        /* \"#utility.yul\":28994:28995   */\n      dup1\n        /* \"#utility.yul\":28987:28999   */\n      revert\n        /* \"#utility.yul\":28941:29001   */\n    tag_590:\n        /* \"#utility.yul\":28891:29007   */\n      pop\n      jump\t// out\n        /* \"#utility.yul\":29013:29133   */\n    tag_290:\n        /* \"#utility.yul\":29085:29108   */\n      tag_592\n        /* \"#utility.yul\":29102:29107   */\n      dup2\n        /* \"#utility.yul\":29085:29108   */\n      tag_532\n      jump\t// in\n    tag_592:\n        /* \"#utility.yul\":29078:29083   */\n      dup2\n        /* \"#utility.yul\":29075:29109   */\n      eq\n        /* \"#utility.yul\":29065:29127   */\n      tag_593\n      jumpi\n        /* \"#utility.yul\":29123:29124   */\n      0x00\n        /* \"#utility.yul\":29120:29121   */\n      dup1\n        /* \"#utility.yul\":29113:29125   */\n      revert\n        /* \"#utility.yul\":29065:29127   */\n    tag_593:\n        /* \"#utility.yul\":29013:29133   */\n      pop\n      jump\t// out\n        /* \"#utility.yul\":29139:29261   */\n    tag_308:\n        /* \"#utility.yul\":29212:29236   */\n      tag_595\n        /* \"#utility.yul\":29230:29235   */\n      dup2\n        /* \"#utility.yul\":29212:29236   */\n      tag_458\n      jump\t// in\n    tag_595:\n        /* \"#utility.yul\":29205:29210   */\n      dup2\n        /* \"#utility.yul\":29202:29237   */\n      eq\n        /* \"#utility.yul\":29192:29255   */\n      tag_596\n      jumpi\n        /* \"#utility.yul\":29251:29252   */\n      0x00\n        /* \"#utility.yul\":29248:29249   */\n      dup1\n        /* \"#utility.yul\":29241:29253   */\n      revert\n        /* \"#utility.yul\":29192:29255   */\n    tag_596:\n        /* \"#utility.yul\":29139:29261   */\n      pop\n      jump\t// out\n\n    auxdata: 0xa2646970667358221220c193ff2df829dd947bfda6cfddeed1d9187c8fd34eda1d55fb74bd0728742a1b64736f6c63430008070033\n}\n",
				"bytecode": {
					"linkReferences": {},
					"object": "60806040523480156200001157600080fd5b506040518060400160405280601081526020017f4d585220436f6c6c65637469626c6573000000000000000000000000000000008152506040518060400160405280600481526020017f4d58525400000000000000000000000000000000000000000000000000000000815250816004908051906020019062000096929190620000f9565b508060059080519060200190620000af929190620000f9565b50505033600b60006101000a81548173ffffffffffffffffffffffffffffffffffffffff021916908373ffffffffffffffffffffffffffffffffffffffff1602179055506200020e565b8280546200010790620001a9565b90600052602060002090601f0160209004810192826200012b576000855562000177565b82601f106200014657805160ff191683800117855562000177565b8280016001018555821562000177579182015b828111156200017657825182559160200191906001019062000159565b5b5090506200018691906200018a565b5090565b5b80821115620001a55760008160009055506001016200018b565b5090565b60006002820490506001821680620001c257607f821691505b60208210811415620001d957620001d8620001df565b5b50919050565b7f4e487b7100000000000000000000000000000000000000000000000000000000600052602260045260246000fd5b612ae2806200021e6000396000f3fe608060405234801561001057600080fd5b50600436106101165760003560e01c806342842e0e116100a257806395d89b411161007157806395d89b4114610317578063a22cb46514610335578063b88d4fde14610351578063c87b56dd1461036d578063e985e9c51461039d57610116565b806342842e0e1461026b5780634f6ccce7146102875780636352211e146102b757806370a08231146102e757610116565b8063095ea7b3116100e9578063095ea7b3146101b55780630e89341c146101d157806318160ddd1461020157806323b872dd1461021f5780632f745c591461023b57610116565b80630118fa491461011b57806301ffc9a71461013757806306fdde0314610167578063081812fc14610185575b600080fd5b61013560048036038101906101309190611ec6565b6103cd565b005b610151600480360381019061014c9190611e3f565b61046c565b60405161015e91906121ef565b60405180910390f35b61016f610676565b60405161017c919061220a565b60405180910390f35b61019f600480360381019061019a9190611e99565b610708565b6040516101ac9190612188565b60405180910390f35b6101cf60048036038101906101ca9190611dff565b6107e7565b005b6101eb60048036038101906101e69190611e99565b6108f1565b6040516101f8919061220a565b60405180910390f35b610209610903565b60405161021691906123cc565b60405180910390f35b61023960048036038101906102349190611ce9565b610910565b005b61025560048036038101906102509190611dff565b610c9b565b60405161026291906123cc565b60405180910390f35b61028560048036038101906102809190611ce9565b610d76565b005b6102a1600480360381019061029c9190611e99565b610d96565b6040516102ae91906123cc565b60405180910390f35b6102d160048036038101906102cc9190611e99565b610e05565b6040516102de9190612188565b60405180910390f35b61030160048036038101906102fc9190611c7c565b610eb7565b60405161030e91906123cc565b60405180910390f35b61031f610f6e565b60405161032c919061220a565b60405180910390f35b61034f600480360381019061034a9190611dbf565b611000565b005b61036b60048036038101906103669190611d3c565b61116c565b005b61038760048036038101906103829190611e99565b6111c8565b604051610394919061220a565b60405180910390f35b6103b760048036038101906103b29190611ca9565b61126d565b6040516103c491906121ef565b60405180910390f35b600b60009054906101000a900473ffffffffffffffffffffffffffffffffffffffff1673ffffffffffffffffffffffffffffffffffffffff163373ffffffffffffffffffffffffffffffffffffffff161461045d576040517f08c379a00000000000000000000000000000000000000000000000000000000081526004016104549061230c565b60405180910390fd5b610468338383611301565b5050565b60007f01ffc9a7000000000000000000000000000000000000000000000000000000007bffffffffffffffffffffffffffffffffffffffffffffffffffffffff1916827bffffffffffffffffffffffffffffffffffffffffffffffffffffffff1916148061053757507f80ac58cd000000000000000000000000000000000000000000000000000000007bffffffffffffffffffffffffffffffffffffffffffffffffffffffff1916827bffffffffffffffffffffffffffffffffffffffffffffffffffffffff1916145b8061059f57507f5b5e139f000000000000000000000000000000000000000000000000000000007bffffffffffffffffffffffffffffffffffffffffffffffffffffffff1916827bffffffffffffffffffffffffffffffffffffffffffffffffffffffff1916145b8061060757507f0e89341c000000000000000000000000000000000000000000000000000000007bffffffffffffffffffffffffffffffffffffffffffffffffffffffff1916827bffffffffffffffffffffffffffffffffffffffffffffffffffffffff1916145b8061066f57507f780e9d63000000000000000000000000000000000000000000000000000000007bffffffffffffffffffffffffffffffffffffffffffffffffffffffff1916827bffffffffffffffffffffffffffffffffffffffffffffffffffffffff1916145b9050919050565b606060048054610685906125e6565b80601f01602080910402602001604051908101604052809291908181526020018280546106b1906125e6565b80156106fe5780601f106106d3576101008083540402835291602001916106fe565b820191906000526020600020905b8154815290600101906020018083116106e157829003601f168201915b5050505050905090565b60008073ffffffffffffffffffffffffffffffffffffffff166001600084815260200190815260200160002060009054906101000a900473ffffffffffffffffffffffffffffffffffffffff1673ffffffffffffffffffffffffffffffffffffffff1614156107ac576040517f08c379a00000000000000000000000000000000000000000000000000000000081526004016107a39061238c565b60405180910390fd5b6003600083815260200190815260200160002060009054906101000a900473ffffffffffffffffffffffffffffffffffffffff169050919050565b60006107f282610e05565b90508073ffffffffffffffffffffffffffffffffffffffff168373ffffffffffffffffffffffffffffffffffffffff161415610863576040517f08c379a000000000000000000000000000000000000000000000000000000000815260040161085a9061234c565b60405180910390fd5b8073ffffffffffffffffffffffffffffffffffffffff163373ffffffffffffffffffffffffffffffffffffffff1614806108a357506108a2813361126d565b5b6108e2576040517f08c379a00000000000000000000000000000000000000000000000000000000081526004016108d9906122cc565b60405180910390fd5b6108ec8383611557565b505050565b60606108fc826111c8565b9050919050565b6000600980549050905090565b600073ffffffffffffffffffffffffffffffffffffffff168373ffffffffffffffffffffffffffffffffffffffff161415610980576040517f08c379a00000000000000000000000000000000000000000000000000000000081526004016109779061222c565b60405180910390fd5b600073ffffffffffffffffffffffffffffffffffffffff168273ffffffffffffffffffffffffffffffffffffffff1614156109f0576040517f08c379a00000000000000000000000000000000000000000000000000000000081526004016109e7906122ec565b60405180910390fd5b60006109fb82610e05565b90508373ffffffffffffffffffffffffffffffffffffffff168173ffffffffffffffffffffffffffffffffffffffff1614610a6b576040517f08c379a0000000000000000000000000000000000000000000000000000000008152600401610a629061232c565b60405180910390fd5b8073ffffffffffffffffffffffffffffffffffffffff163373ffffffffffffffffffffffffffffffffffffffff161480610ad85750610aa982610708565b73ffffffffffffffffffffffffffffffffffffffff163373ffffffffffffffffffffffffffffffffffffffff16145b80610ae95750610ae8813361126d565b5b610b28576040517f08c379a0000000000000000000000000000000000000000000000000000000008152600401610b1f9061224c565b60405180910390fd5b60016000808673ffffffffffffffffffffffffffffffffffffffff1673ffffffffffffffffffffffffffffffffffffffff1681526020019081526020016000206000828254610b7791906124fc565b9250508190555060016000808573ffffffffffffffffffffffffffffffffffffffff1673ffffffffffffffffffffffffffffffffffffffff1681526020019081526020016000206000828254610bcd91906124a6565b92505081905550826001600084815260200190815260200160002060006101000a81548173ffffffffffffffffffffffffffffffffffffffff021916908373ffffffffffffffffffffffffffffffffffffffff160217905550818373ffffffffffffffffffffffffffffffffffffffff168573ffffffffffffffffffffffffffffffffffffffff167fddf252ad1be2c89b69c2b068fc378daa952ba7f163c4a11628f55a4df523b3ef60405160405180910390a4610c8b8483611616565b610c9583836117ae565b50505050565b60008060008473ffffffffffffffffffffffffffffffffffffffff1673ffffffffffffffffffffffffffffffffffffffff168152602001908152602001600020548210610d1d576040517f08c379a0000000000000000000000000000000000000000000000000000000008152600401610d14906123ac565b60405180910390fd5b600760008473ffffffffffffffffffffffffffffffffffffffff1673ffffffffffffffffffffffffffffffffffffffff168152602001908152602001600020600083815260200190815260200160002054905092915050565b610d918383836040518060200160405280600081525061116c565b505050565b60006009805490508210610ddf576040517f08c379a0000000000000000000000000000000000000000000000000000000008152600401610dd6906123ac565b60405180910390fd5b60098281548110610df357610df26126a7565b5b90600052602060002001549050919050565b6000806001600084815260200190815260200160002060009054906101000a900473ffffffffffffffffffffffffffffffffffffffff169050600073ffffffffffffffffffffffffffffffffffffffff168173ffffffffffffffffffffffffffffffffffffffff161415610eae576040517f08c379a0000000000000000000000000000000000000000000000000000000008152600401610ea59061238c565b60405180910390fd5b80915050919050565b60008073ffffffffffffffffffffffffffffffffffffffff168273ffffffffffffffffffffffffffffffffffffffff161415610f28576040517f08c379a0000000000000000000000000000000000000000000000000000000008152600401610f1f9061226c565b60405180910390fd5b6000808373ffffffffffffffffffffffffffffffffffffffff1673ffffffffffffffffffffffffffffffffffffffff168152602001908152602001600020549050919050565b606060058054610f7d906125e6565b80601f0160208091040260200160405190810160405280929190818152602001828054610fa9906125e6565b8015610ff65780601f10610fcb57610100808354040283529160200191610ff6565b820191906000526020600020905b815481529060010190602001808311610fd957829003601f168201915b5050505050905090565b8173ffffffffffffffffffffffffffffffffffffffff163373ffffffffffffffffffffffffffffffffffffffff16141561106f576040517f08c379a00000000000000000000000000000000000000000000000000000000081526004016110669061234c565b60405180910390fd5b80600260003373ffffffffffffffffffffffffffffffffffffffff1673ffffffffffffffffffffffffffffffffffffffff16815260200190815260200160002060008473ffffffffffffffffffffffffffffffffffffffff1673ffffffffffffffffffffffffffffffffffffffff16815260200190815260200160002060006101000a81548160ff0219169083151502179055508173ffffffffffffffffffffffffffffffffffffffff163373ffffffffffffffffffffffffffffffffffffffff167f17307eab39ab6107e8899845ad3d59bd9653f200f220920489ca2b5937696c318360405161116091906121ef565b60405180910390a35050565b611177848484610910565b6111838484848461186f565b6111c2576040517f08c379a00000000000000000000000000000000000000000000000000000000081526004016111b9906122ac565b60405180910390fd5b50505050565b60606006600083815260200190815260200160002080546111e8906125e6565b80601f0160208091040260200160405190810160405280929190818152602001828054611214906125e6565b80156112615780601f1061123657610100808354040283529160200191611261565b820191906000526020600020905b81548152906001019060200180831161124457829003601f168201915b50505050509050919050565b6000600260008473ffffffffffffffffffffffffffffffffffffffff1673ffffffffffffffffffffffffffffffffffffffff16815260200190815260200160002060008373ffffffffffffffffffffffffffffffffffffffff1673ffffffffffffffffffffffffffffffffffffffff16815260200190815260200160002060009054906101000a900460ff16905092915050565b600073ffffffffffffffffffffffffffffffffffffffff168373ffffffffffffffffffffffffffffffffffffffff161415611371576040517f08c379a00000000000000000000000000000000000000000000000000000000081526004016113689061228c565b60405180910390fd5b600073ffffffffffffffffffffffffffffffffffffffff166001600084815260200190815260200160002060009054906101000a900473ffffffffffffffffffffffffffffffffffffffff1673ffffffffffffffffffffffffffffffffffffffff1614611413576040517f08c379a000000000000000000000000000000000000000000000000000000000815260040161140a9061236c565b60405180910390fd5b60016000808573ffffffffffffffffffffffffffffffffffffffff1673ffffffffffffffffffffffffffffffffffffffff168152602001908152602001600020600082825461146291906124a6565b92505081905550826001600084815260200190815260200160002060006101000a81548173ffffffffffffffffffffffffffffffffffffffff021916908373ffffffffffffffffffffffffffffffffffffffff160217905550806006600084815260200190815260200160002090805190602001906114e2929190611a90565b50818373ffffffffffffffffffffffffffffffffffffffff16600073ffffffffffffffffffffffffffffffffffffffff167fddf252ad1be2c89b69c2b068fc378daa952ba7f163c4a11628f55a4df523b3ef60405160405180910390a461154882611a3b565b61155283836117ae565b505050565b816003600083815260200190815260200160002060006101000a81548173ffffffffffffffffffffffffffffffffffffffff021916908373ffffffffffffffffffffffffffffffffffffffff16021790555060006115b482610e05565b9050818373ffffffffffffffffffffffffffffffffffffffff168273ffffffffffffffffffffffffffffffffffffffff167f8c5be1e5ebec7d5bd14f71427d1e84f3dd0314c0f7b2291e5b200ac8c7c3b92560405160405180910390a4505050565b60006008600083815260200190815260200160002054905060008060008573ffffffffffffffffffffffffffffffffffffffff1673ffffffffffffffffffffffffffffffffffffffff1681526020019081526020016000205490508082101561173d576000600760008673ffffffffffffffffffffffffffffffffffffffff1673ffffffffffffffffffffffffffffffffffffffff168152602001908152602001600020600083815260200190815260200160002054905080600760008773ffffffffffffffffffffffffffffffffffffffff1673ffffffffffffffffffffffffffffffffffffffff168152602001908152602001600020600085815260200190815260200160002081905550826008600083815260200190815260200160002081905550505b600760008573ffffffffffffffffffffffffffffffffffffffff1673ffffffffffffffffffffffffffffffffffffffff168152602001908152602001600020600082815260200190815260200160002060009055600860008481526020019081526020016000206000905550505050565b600060016000808573ffffffffffffffffffffffffffffffffffffffff1673ffffffffffffffffffffffffffffffffffffffff168152602001908152602001600020546117fb91906124fc565b905081600760008573ffffffffffffffffffffffffffffffffffffffff1673ffffffffffffffffffffffffffffffffffffffff168152602001908152602001600020600083815260200190815260200160002081905550806008600084815260200190815260200160002081905550505050565b6000808473ffffffffffffffffffffffffffffffffffffffff163b116118985760019050611a33565b60008490508073ffffffffffffffffffffffffffffffffffffffff1663150b7a02338887876040518563ffffffff1660e01b81526004016118dc94939291906121a3565b602060405180830381600087803b1580156118f657600080fd5b505af192505050801561192757506040513d601f19601f820116820180604052508101906119249190611e6c565b60015b6119cd57611933612705565b806308c379a0141561199057506119486129ba565b806119535750611992565b806040517f08c379a0000000000000000000000000000000000000000000000000000000008152600401611987919061220a565b60405180910390fd5b505b6040517f08c379a00000000000000000000000000000000000000000000000000000000081526004016119c4906122ac565b60405180910390fd5b7f150b7a02000000000000000000000000000000000000000000000000000000007bffffffffffffffffffffffffffffffffffffffffffffffffffffffff1916817bffffffffffffffffffffffffffffffffffffffffffffffffffffffff191614925050505b949350505050565b60098190806001815401808255809150506001900390600052602060002001600090919091909150556001600980549050611a7691906124fc565b600a60008381526020019081526020016000208190555050565b828054611a9c906125e6565b90600052602060002090601f016020900481019282611abe5760008555611b05565b82601f10611ad757805160ff1916838001178555611b05565b82800160010185558215611b05579182015b82811115611b04578251825591602001919060010190611ae9565b5b509050611b129190611b16565b5090565b5b80821115611b2f576000816000905550600101611b17565b5090565b6000611b46611b418461240c565b6123e7565b905082815260208101848484011115611b6257611b6161272c565b5b611b6d8482856125a4565b509392505050565b6000611b88611b838461243d565b6123e7565b905082815260208101848484011115611ba457611ba361272c565b5b611baf8482856125a4565b509392505050565b600081359050611bc681612a50565b92915050565b600081359050611bdb81612a67565b92915050565b600081359050611bf081612a7e565b92915050565b600081519050611c0581612a7e565b92915050565b600082601f830112611c2057611c1f612727565b5b8135611c30848260208601611b33565b91505092915050565b600082601f830112611c4e57611c4d612727565b5b8135611c5e848260208601611b75565b91505092915050565b600081359050611c7681612a95565b92915050565b600060208284031215611c9257611c91612736565b5b6000611ca084828501611bb7565b91505092915050565b60008060408385031215611cc057611cbf612736565b5b6000611cce85828601611bb7565b9250506020611cdf85828601611bb7565b9150509250929050565b600080600060608486031215611d0257611d01612736565b5b6000611d1086828701611bb7565b9350506020611d2186828701611bb7565b9250506040611d3286828701611c67565b9150509250925092565b60008060008060808587031215611d5657611d55612736565b5b6000611d6487828801611bb7565b9450506020611d7587828801611bb7565b9350506040611d8687828801611c67565b925050606085013567ffffffffffffffff811115611da757611da6612731565b5b611db387828801611c0b565b91505092959194509250565b60008060408385031215611dd657611dd5612736565b5b6000611de485828601611bb7565b9250506020611df585828601611bcc565b9150509250929050565b60008060408385031215611e1657611e15612736565b5b6000611e2485828601611bb7565b9250506020611e3585828601611c67565b9150509250929050565b600060208284031215611e5557611e54612736565b5b6000611e6384828501611be1565b91505092915050565b600060208284031215611e8257611e81612736565b5b6000611e9084828501611bf6565b91505092915050565b600060208284031215611eaf57611eae612736565b5b6000611ebd84828501611c67565b91505092915050565b60008060408385031215611edd57611edc612736565b5b6000611eeb85828601611c67565b925050602083013567ffffffffffffffff811115611f0c57611f0b612731565b5b611f1885828601611c39565b9150509250929050565b611f2b81612530565b82525050565b611f3a81612542565b82525050565b6000611f4b8261246e565b611f558185612484565b9350611f658185602086016125b3565b611f6e8161273b565b840191505092915050565b6000611f8482612479565b611f8e8185612495565b9350611f9e8185602086016125b3565b611fa78161273b565b840191505092915050565b6000611fbf601a83612495565b9150611fca82612759565b602082019050919050565b6000611fe2601f83612495565b9150611fed82612782565b602082019050919050565b6000612005601583612495565b9150612010826127ab565b602082019050919050565b6000612028601483612495565b9150612033826127d4565b602082019050919050565b600061204b602a83612495565b9150612056826127fd565b604082019050919050565b600061206e602d83612495565b91506120798261284c565b604082019050919050565b6000612091601883612495565b915061209c8261289b565b602082019050919050565b60006120b4600d83612495565b91506120bf826128c4565b602082019050919050565b60006120d7602083612495565b91506120e2826128ed565b602082019050919050565b60006120fa601883612495565b915061210582612916565b602082019050919050565b600061211d601483612495565b91506121288261293f565b602082019050919050565b6000612140601383612495565b915061214b82612968565b602082019050919050565b6000612163601383612495565b915061216e82612991565b602082019050919050565b6121828161259a565b82525050565b600060208201905061219d6000830184611f22565b92915050565b60006080820190506121b86000830187611f22565b6121c56020830186611f22565b6121d26040830185612179565b81810360608301526121e48184611f40565b905095945050505050565b60006020820190506122046000830184611f31565b92915050565b600060208201905081810360008301526122248184611f79565b905092915050565b6000602082019050818103600083015261224581611fb2565b9050919050565b6000602082019050818103600083015261226581611fd5565b9050919050565b6000602082019050818103600083015261228581611ff8565b9050919050565b600060208201905081810360008301526122a58161201b565b9050919050565b600060208201905081810360008301526122c58161203e565b9050919050565b600060208201905081810360008301526122e581612061565b9050919050565b6000602082019050818103600083015261230581612084565b9050919050565b60006020820190508181036000830152612325816120a7565b9050919050565b60006020820190508181036000830152612345816120ca565b9050919050565b60006020820190508181036000830152612365816120ed565b9050919050565b6000602082019050818103600083015261238581612110565b9050919050565b600060208201905081810360008301526123a581612133565b9050919050565b600060208201905081810360008301526123c581612156565b9050919050565b60006020820190506123e16000830184612179565b92915050565b60006123f1612402565b90506123fd8282612618565b919050565b6000604051905090565b600067ffffffffffffffff821115612427576124266126d6565b5b6124308261273b565b9050602081019050919050565b600067ffffffffffffffff821115612458576124576126d6565b5b6124618261273b565b9050602081019050919050565b600081519050919050565b600081519050919050565b600082825260208201905092915050565b600082825260208201905092915050565b60006124b18261259a565b91506124bc8361259a565b9250827fffffffffffffffffffffffffffffffffffffffffffffffffffffffffffffffff038211156124f1576124f0612649565b5b828201905092915050565b60006125078261259a565b91506125128361259a565b92508282101561252557612524612649565b5b828203905092915050565b600061253b8261257a565b9050919050565b60008115159050919050565b60007fffffffff0000000000000000000000000000000000000000000000000000000082169050919050565b600073ffffffffffffffffffffffffffffffffffffffff82169050919050565b6000819050919050565b82818337600083830152505050565b60005b838110156125d15780820151818401526020810190506125b6565b838111156125e0576000848401525b50505050565b600060028204905060018216806125fe57607f821691505b6020821081141561261257612611612678565b5b50919050565b6126218261273b565b810181811067ffffffffffffffff821117156126405761263f6126d6565b5b80604052505050565b7f4e487b7100000000000000000000000000000000000000000000000000000000600052601160045260246000fd5b7f4e487b7100000000000000000000000000000000000000000000000000000000600052602260045260246000fd5b7f4e487b7100000000000000000000000000000000000000000000000000000000600052603260045260246000fd5b7f4e487b7100000000000000000000000000000000000000000000000000000000600052604160045260246000fd5b600060033d11156127245760046000803e61272160005161274c565b90505b90565b600080fd5b600080fd5b600080fd5b600080fd5b6000601f19601f8301169050919050565b60008160e01c9050919050565b7f7472616e736665722066726f6d207a65726f2061646472657373000000000000600082015250565b7f63616c6c6572206973206e6f74206f776e6572206f7220617070726f76616c00600082015250565b7f6f776e6572206973207a65726f20616464726573730000000000000000000000600082015250565b7f6d696e7420746f207a65726f2061646472657373000000000000000000000000600082015250565b7f7472616e7366657220746f206e6f6e204552433732315265636569766572206960008201527f6d706c656d656e74657200000000000000000000000000000000000000000000602082015250565b7f63616c6c6572206973206e6f7420746f6b656e206f776e6572206f722061707060008201527f726f76616c20666f7220616c6c00000000000000000000000000000000000000602082015250565b7f7472616e7366657220746f207a65726f20616464726573730000000000000000600082015250565b7f556e617574686f72697a65642e00000000000000000000000000000000000000600082015250565b7f7472616e736665722066726f6d206973206e6f7420746f6b656e206f776e6572600082015250565b7f617070726f76616c2073746174757320666f722073656c660000000000000000600082015250565b7f746f6b656e20616c7265616479206d696e746564000000000000000000000000600082015250565b7f746f6b656e206973206e6f742065786973747300000000000000000000000000600082015250565b7f696e646578206f7574206f6620626f756e647300000000000000000000000000600082015250565b600060443d10156129ca57612a4d565b6129d2612402565b60043d036004823e80513d602482011167ffffffffffffffff821117156129fa575050612a4d565b808201805167ffffffffffffffff811115612a185750505050612a4d565b80602083010160043d038501811115612a35575050505050612a4d565b612a4482602001850186612618565b82955050505050505b90565b612a5981612530565b8114612a6457600080fd5b50565b612a7081612542565b8114612a7b57600080fd5b50565b612a878161254e565b8114612a9257600080fd5b50565b612a9e8161259a565b8114612aa957600080fd5b5056fea2646970667358221220c193ff2df829dd947bfda6cfddeed1d9187c8fd34eda1d55fb74bd0728742a1b64736f6c63430008070033",
					"opcodes": "PUSH1 0x80 PUSH1 0x40 MSTORE CALLVALUE DUP1 ISZERO PUSH3 0x11 JUMPI PUSH1 0x0 DUP1 REVERT JUMPDEST POP PUSH1 0x40 MLOAD DUP1 PUSH1 0x40 ADD PUSH1 0x40 MSTORE DUP1 PUSH1 0x10 DUP2 MSTORE PUSH1 0x20 ADD PUSH32 0x4D585220436F6C6C65637469626C657300000000000000000000000000000000 DUP2 MSTORE POP PUSH1 0x40 MLOAD DUP1 PUSH1 0x40 ADD PUSH1 0x40 MSTORE DUP1 PUSH1 0x4 DUP2 MSTORE PUSH1 0x20 ADD PUSH32 0x4D58525400000000000000000000000000000000000000000000000000000000 DUP2 MSTORE POP DUP2 PUSH1 0x4 SWAP1 DUP1 MLOAD SWAP1 PUSH1 0x20 ADD SWAP1 PUSH3 0x96 SWAP3 SWAP2 SWAP1 PUSH3 0xF9 JUMP JUMPDEST POP DUP1 PUSH1 0x5 SWAP1 DUP1 MLOAD SWAP1 PUSH1 0x20 ADD SWAP1 PUSH3 0xAF SWAP3 SWAP2 SWAP1 PUSH3 0xF9 JUMP JUMPDEST POP POP POP CALLER PUSH1 0xB PUSH1 0x0 PUSH2 0x100 EXP DUP2 SLOAD DUP2 PUSH20 0xFFFFFFFFFFFFFFFFFFFFFFFFFFFFFFFFFFFFFFFF MUL NOT AND SWAP1 DUP4 PUSH20 0xFFFFFFFFFFFFFFFFFFFFFFFFFFFFFFFFFFFFFFFF AND MUL OR SWAP1 SSTORE POP PUSH3 0x20E JUMP JUMPDEST DUP3 DUP1 SLOAD PUSH3 0x107 SWAP1 PUSH3 0x1A9 JUMP JUMPDEST SWAP1 PUSH1 0x0 MSTORE PUSH1 0x20 PUSH1 0x0 KECCAK256 SWAP1 PUSH1 0x1F ADD PUSH1 0x20 SWAP1 DIV DUP2 ADD SWAP3 DUP3 PUSH3 0x12B JUMPI PUSH1 0x0 DUP6 SSTORE PUSH3 0x177 JUMP JUMPDEST DUP3 PUSH1 0x1F LT PUSH3 0x146 JUMPI DUP1 MLOAD PUSH1 0xFF NOT AND DUP4 DUP1 ADD OR DUP6 SSTORE PUSH3 0x177 JUMP JUMPDEST DUP3 DUP1 ADD PUSH1 0x1 ADD DUP6 SSTORE DUP3 ISZERO PUSH3 0x177 JUMPI SWAP2 DUP3 ADD JUMPDEST DUP3 DUP2 GT ISZERO PUSH3 0x176 JUMPI DUP3 MLOAD DUP3 SSTORE SWAP2 PUSH1 0x20 ADD SWAP2 SWAP1 PUSH1 0x1 ADD SWAP1 PUSH3 0x159 JUMP JUMPDEST JUMPDEST POP SWAP1 POP PUSH3 0x186 SWAP2 SWAP1 PUSH3 0x18A JUMP JUMPDEST POP SWAP1 JUMP JUMPDEST JUMPDEST DUP1 DUP3 GT ISZERO PUSH3 0x1A5 JUMPI PUSH1 0x0 DUP2 PUSH1 0x0 SWAP1 SSTORE POP PUSH1 0x1 ADD PUSH3 0x18B JUMP JUMPDEST POP SWAP1 JUMP JUMPDEST PUSH1 0x0 PUSH1 0x2 DUP3 DIV SWAP1 POP PUSH1 0x1 DUP3 AND DUP1 PUSH3 0x1C2 JUMPI PUSH1 0x7F DUP3 AND SWAP2 POP JUMPDEST PUSH1 0x20 DUP3 LT DUP2 EQ ISZERO PUSH3 0x1D9 JUMPI PUSH3 0x1D8 PUSH3 0x1DF JUMP JUMPDEST JUMPDEST POP SWAP2 SWAP1 POP JUMP JUMPDEST PUSH32 0x4E487B7100000000000000000000000000000000000000000000000000000000 PUSH1 0x0 MSTORE PUSH1 0x22 PUSH1 0x4 MSTORE PUSH1 0x24 PUSH1 0x0 REVERT JUMPDEST PUSH2 0x2AE2 DUP1 PUSH3 0x21E PUSH1 0x0 CODECOPY PUSH1 0x0 RETURN INVALID PUSH1 0x80 PUSH1 0x40 MSTORE CALLVALUE DUP1 ISZERO PUSH2 0x10 JUMPI PUSH1 0x0 DUP1 REVERT JUMPDEST POP PUSH1 0x4 CALLDATASIZE LT PUSH2 0x116 JUMPI PUSH1 0x0 CALLDATALOAD PUSH1 0xE0 SHR DUP1 PUSH4 0x42842E0E GT PUSH2 0xA2 JUMPI DUP1 PUSH4 0x95D89B41 GT PUSH2 0x71 JUMPI DUP1 PUSH4 0x95D89B41 EQ PUSH2 0x317 JUMPI DUP1 PUSH4 0xA22CB465 EQ PUSH2 0x335 JUMPI DUP1 PUSH4 0xB88D4FDE EQ PUSH2 0x351 JUMPI DUP1 PUSH4 0xC87B56DD EQ PUSH2 0x36D JUMPI DUP1 PUSH4 0xE985E9C5 EQ PUSH2 0x39D JUMPI PUSH2 0x116 JUMP JUMPDEST DUP1 PUSH4 0x42842E0E EQ PUSH2 0x26B JUMPI DUP1 PUSH4 0x4F6CCCE7 EQ PUSH2 0x287 JUMPI DUP1 PUSH4 0x6352211E EQ PUSH2 0x2B7 JUMPI DUP1 PUSH4 0x70A08231 EQ PUSH2 0x2E7 JUMPI PUSH2 0x116 JUMP JUMPDEST DUP1 PUSH4 0x95EA7B3 GT PUSH2 0xE9 JUMPI DUP1 PUSH4 0x95EA7B3 EQ PUSH2 0x1B5 JUMPI DUP1 PUSH4 0xE89341C EQ PUSH2 0x1D1 JUMPI DUP1 PUSH4 0x18160DDD EQ PUSH2 0x201 JUMPI DUP1 PUSH4 0x23B872DD EQ PUSH2 0x21F JUMPI DUP1 PUSH4 0x2F745C59 EQ PUSH2 0x23B JUMPI PUSH2 0x116 JUMP JUMPDEST DUP1 PUSH4 0x118FA49 EQ PUSH2 0x11B JUMPI DUP1 PUSH4 0x1FFC9A7 EQ PUSH2 0x137 JUMPI DUP1 PUSH4 0x6FDDE03 EQ PUSH2 0x167 JUMPI DUP1 PUSH4 0x81812FC EQ PUSH2 0x185 JUMPI JUMPDEST PUSH1 0x0 DUP1 REVERT JUMPDEST PUSH2 0x135 PUSH1 0x4 DUP1 CALLDATASIZE SUB DUP2 ADD SWAP1 PUSH2 0x130 SWAP2 SWAP1 PUSH2 0x1EC6 JUMP JUMPDEST PUSH2 0x3CD JUMP JUMPDEST STOP JUMPDEST PUSH2 0x151 PUSH1 0x4 DUP1 CALLDATASIZE SUB DUP2 ADD SWAP1 PUSH2 0x14C SWAP2 SWAP1 PUSH2 0x1E3F JUMP JUMPDEST PUSH2 0x46C JUMP JUMPDEST PUSH1 0x40 MLOAD PUSH2 0x15E SWAP2 SWAP1 PUSH2 0x21EF JUMP JUMPDEST PUSH1 0x40 MLOAD DUP1 SWAP2 SUB SWAP1 RETURN JUMPDEST PUSH2 0x16F PUSH2 0x676 JUMP JUMPDEST PUSH1 0x40 MLOAD PUSH2 0x17C SWAP2 SWAP1 PUSH2 0x220A JUMP JUMPDEST PUSH1 0x40 MLOAD DUP1 SWAP2 SUB SWAP1 RETURN JUMPDEST PUSH2 0x19F PUSH1 0x4 DUP1 CALLDATASIZE SUB DUP2 ADD SWAP1 PUSH2 0x19A SWAP2 SWAP1 PUSH2 0x1E99 JUMP JUMPDEST PUSH2 0x708 JUMP JUMPDEST PUSH1 0x40 MLOAD PUSH2 0x1AC SWAP2 SWAP1 PUSH2 0x2188 JUMP JUMPDEST PUSH1 0x40 MLOAD DUP1 SWAP2 SUB SWAP1 RETURN JUMPDEST PUSH2 0x1CF PUSH1 0x4 DUP1 CALLDATASIZE SUB DUP2 ADD SWAP1 PUSH2 0x1CA SWAP2 SWAP1 PUSH2 0x1DFF JUMP JUMPDEST PUSH2 0x7E7 JUMP JUMPDEST STOP JUMPDEST PUSH2 0x1EB PUSH1 0x4 DUP1 CALLDATASIZE SUB DUP2 ADD SWAP1 PUSH2 0x1E6 SWAP2 SWAP1 PUSH2 0x1E99 JUMP JUMPDEST PUSH2 0x8F1 JUMP JUMPDEST PUSH1 0x40 MLOAD PUSH2 0x1F8 SWAP2 SWAP1 PUSH2 0x220A JUMP JUMPDEST PUSH1 0x40 MLOAD DUP1 SWAP2 SUB SWAP1 RETURN JUMPDEST PUSH2 0x209 PUSH2 0x903 JUMP JUMPDEST PUSH1 0x40 MLOAD PUSH2 0x216 SWAP2 SWAP1 PUSH2 0x23CC JUMP JUMPDEST PUSH1 0x40 MLOAD DUP1 SWAP2 SUB SWAP1 RETURN JUMPDEST PUSH2 0x239 PUSH1 0x4 DUP1 CALLDATASIZE SUB DUP2 ADD SWAP1 PUSH2 0x234 SWAP2 SWAP1 PUSH2 0x1CE9 JUMP JUMPDEST PUSH2 0x910 JUMP JUMPDEST STOP JUMPDEST PUSH2 0x255 PUSH1 0x4 DUP1 CALLDATASIZE SUB DUP2 ADD SWAP1 PUSH2 0x250 SWAP2 SWAP1 PUSH2 0x1DFF JUMP JUMPDEST PUSH2 0xC9B JUMP JUMPDEST PUSH1 0x40 MLOAD PUSH2 0x262 SWAP2 SWAP1 PUSH2 0x23CC JUMP JUMPDEST PUSH1 0x40 MLOAD DUP1 SWAP2 SUB SWAP1 RETURN JUMPDEST PUSH2 0x285 PUSH1 0x4 DUP1 CALLDATASIZE SUB DUP2 ADD SWAP1 PUSH2 0x280 SWAP2 SWAP1 PUSH2 0x1CE9 JUMP JUMPDEST PUSH2 0xD76 JUMP JUMPDEST STOP JUMPDEST PUSH2 0x2A1 PUSH1 0x4 DUP1 CALLDATASIZE SUB DUP2 ADD SWAP1 PUSH2 0x29C SWAP2 SWAP1 PUSH2 0x1E99 JUMP JUMPDEST PUSH2 0xD96 JUMP JUMPDEST PUSH1 0x40 MLOAD PUSH2 0x2AE SWAP2 SWAP1 PUSH2 0x23CC JUMP JUMPDEST PUSH1 0x40 MLOAD DUP1 SWAP2 SUB SWAP1 RETURN JUMPDEST PUSH2 0x2D1 PUSH1 0x4 DUP1 CALLDATASIZE SUB DUP2 ADD SWAP1 PUSH2 0x2CC SWAP2 SWAP1 PUSH2 0x1E99 JUMP JUMPDEST PUSH2 0xE05 JUMP JUMPDEST PUSH1 0x40 MLOAD PUSH2 0x2DE SWAP2 SWAP1 PUSH2 0x2188 JUMP JUMPDEST PUSH1 0x40 MLOAD DUP1 SWAP2 SUB SWAP1 RETURN JUMPDEST PUSH2 0x301 PUSH1 0x4 DUP1 CALLDATASIZE SUB DUP2 ADD SWAP1 PUSH2 0x2FC SWAP2 SWAP1 PUSH2 0x1C7C JUMP JUMPDEST PUSH2 0xEB7 JUMP JUMPDEST PUSH1 0x40 MLOAD PUSH2 0x30E SWAP2 SWAP1 PUSH2 0x23CC JUMP JUMPDEST PUSH1 0x40 MLOAD DUP1 SWAP2 SUB SWAP1 RETURN JUMPDEST PUSH2 0x31F PUSH2 0xF6E JUMP JUMPDEST PUSH1 0x40 MLOAD PUSH2 0x32C SWAP2 SWAP1 PUSH2 0x220A JUMP JUMPDEST PUSH1 0x40 MLOAD DUP1 SWAP2 SUB SWAP1 RETURN JUMPDEST PUSH2 0x34F PUSH1 0x4 DUP1 CALLDATASIZE SUB DUP2 ADD SWAP1 PUSH2 0x34A SWAP2 SWAP1 PUSH2 0x1DBF JUMP JUMPDEST PUSH2 0x1000 JUMP JUMPDEST STOP JUMPDEST PUSH2 0x36B PUSH1 0x4 DUP1 CALLDATASIZE SUB DUP2 ADD SWAP1 PUSH2 0x366 SWAP2 SWAP1 PUSH2 0x1D3C JUMP JUMPDEST PUSH2 0x116C JUMP JUMPDEST STOP JUMPDEST PUSH2 0x387 PUSH1 0x4 DUP1 CALLDATASIZE SUB DUP2 ADD SWAP1 PUSH2 0x382 SWAP2 SWAP1 PUSH2 0x1E99 JUMP JUMPDEST PUSH2 0x11C8 JUMP JUMPDEST PUSH1 0x40 MLOAD PUSH2 0x394 SWAP2 SWAP1 PUSH2 0x220A JUMP JUMPDEST PUSH1 0x40 MLOAD DUP1 SWAP2 SUB SWAP1 RETURN JUMPDEST PUSH2 0x3B7 PUSH1 0x4 DUP1 CALLDATASIZE SUB DUP2 ADD SWAP1 PUSH2 0x3B2 SWAP2 SWAP1 PUSH2 0x1CA9 JUMP JUMPDEST PUSH2 0x126D JUMP JUMPDEST PUSH1 0x40 MLOAD PUSH2 0x3C4 SWAP2 SWAP1 PUSH2 0x21EF JUMP JUMPDEST PUSH1 0x40 MLOAD DUP1 SWAP2 SUB SWAP1 RETURN JUMPDEST PUSH1 0xB PUSH1 0x0 SWAP1 SLOAD SWAP1 PUSH2 0x100 EXP SWAP1 DIV PUSH20 0xFFFFFFFFFFFFFFFFFFFFFFFFFFFFFFFFFFFFFFFF AND PUSH20 0xFFFFFFFFFFFFFFFFFFFFFFFFFFFFFFFFFFFFFFFF AND CALLER PUSH20 0xFFFFFFFFFFFFFFFFFFFFFFFFFFFFFFFFFFFFFFFF AND EQ PUSH2 0x45D JUMPI PUSH1 0x40 MLOAD PUSH32 0x8C379A000000000000000000000000000000000000000000000000000000000 DUP2 MSTORE PUSH1 0x4 ADD PUSH2 0x454 SWAP1 PUSH2 0x230C JUMP JUMPDEST PUSH1 0x40 MLOAD DUP1 SWAP2 SUB SWAP1 REVERT JUMPDEST PUSH2 0x468 CALLER DUP4 DUP4 PUSH2 0x1301 JUMP JUMPDEST POP POP JUMP JUMPDEST PUSH1 0x0 PUSH32 0x1FFC9A700000000000000000000000000000000000000000000000000000000 PUSH28 0xFFFFFFFFFFFFFFFFFFFFFFFFFFFFFFFFFFFFFFFFFFFFFFFFFFFFFFFF NOT AND DUP3 PUSH28 0xFFFFFFFFFFFFFFFFFFFFFFFFFFFFFFFFFFFFFFFFFFFFFFFFFFFFFFFF NOT AND EQ DUP1 PUSH2 0x537 JUMPI POP PUSH32 0x80AC58CD00000000000000000000000000000000000000000000000000000000 PUSH28 0xFFFFFFFFFFFFFFFFFFFFFFFFFFFFFFFFFFFFFFFFFFFFFFFFFFFFFFFF NOT AND DUP3 PUSH28 0xFFFFFFFFFFFFFFFFFFFFFFFFFFFFFFFFFFFFFFFFFFFFFFFFFFFFFFFF NOT AND EQ JUMPDEST DUP1 PUSH2 0x59F JUMPI POP PUSH32 0x5B5E139F00000000000000000000000000000000000000000000000000000000 PUSH28 0xFFFFFFFFFFFFFFFFFFFFFFFFFFFFFFFFFFFFFFFFFFFFFFFFFFFFFFFF NOT AND DUP3 PUSH28 0xFFFFFFFFFFFFFFFFFFFFFFFFFFFFFFFFFFFFFFFFFFFFFFFFFFFFFFFF NOT AND EQ JUMPDEST DUP1 PUSH2 0x607 JUMPI POP PUSH32 0xE89341C00000000000000000000000000000000000000000000000000000000 PUSH28 0xFFFFFFFFFFFFFFFFFFFFFFFFFFFFFFFFFFFFFFFFFFFFFFFFFFFFFFFF NOT AND DUP3 PUSH28 0xFFFFFFFFFFFFFFFFFFFFFFFFFFFFFFFFFFFFFFFFFFFFFFFFFFFFFFFF NOT AND EQ JUMPDEST DUP1 PUSH2 0x66F JUMPI POP PUSH32 0x780E9D6300000000000000000000000000000000000000000000000000000000 PUSH28 0xFFFFFFFFFFFFFFFFFFFFFFFFFFFFFFFFFFFFFFFFFFFFFFFFFFFFFFFF NOT AND DUP3 PUSH28 0xFFFFFFFFFFFFFFFFFFFFFFFFFFFFFFFFFFFFFFFFFFFFFFFFFFFFFFFF NOT AND EQ JUMPDEST SWAP1 POP SWAP2 SWAP1 POP JUMP JUMPDEST PUSH1 0x60 PUSH1 0x4 DUP1 SLOAD PUSH2 0x685 SWAP1 PUSH2 0x25E6 JUMP JUMPDEST DUP1 PUSH1 0x1F ADD PUSH1 0x20 DUP1 SWAP2 DIV MUL PUSH1 0x20 ADD PUSH1 0x40 MLOAD SWAP1 DUP2 ADD PUSH1 0x40 MSTORE DUP1 SWAP3 SWAP2 SWAP1 DUP2 DUP2 MSTORE PUSH1 0x20 ADD DUP3 DUP1 SLOAD PUSH2 0x6B1 SWAP1 PUSH2 0x25E6 JUMP JUMPDEST DUP1 ISZERO PUSH2 0x6FE JUMPI DUP1 PUSH1 0x1F LT PUSH2 0x6D3 JUMPI PUSH2 0x100 DUP1 DUP4 SLOAD DIV MUL DUP4 MSTORE SWAP2 PUSH1 0x20 ADD SWAP2 PUSH2 0x6FE JUMP JUMPDEST DUP3 ADD SWAP2 SWAP1 PUSH1 0x0 MSTORE PUSH1 0x20 PUSH1 0x0 KECCAK256 SWAP1 JUMPDEST DUP2 SLOAD DUP2 MSTORE SWAP1 PUSH1 0x1 ADD SWAP1 PUSH1 0x20 ADD DUP1 DUP4 GT PUSH2 0x6E1 JUMPI DUP3 SWAP1 SUB PUSH1 0x1F AND DUP3 ADD SWAP2 JUMPDEST POP POP POP POP POP SWAP1 POP SWAP1 JUMP JUMPDEST PUSH1 0x0 DUP1 PUSH20 0xFFFFFFFFFFFFFFFFFFFFFFFFFFFFFFFFFFFFFFFF AND PUSH1 0x1 PUSH1 0x0 DUP5 DUP2 MSTORE PUSH1 0x20 ADD SWAP1 DUP2 MSTORE PUSH1 0x20 ADD PUSH1 0x0 KECCAK256 PUSH1 0x0 SWAP1 SLOAD SWAP1 PUSH2 0x100 EXP SWAP1 DIV PUSH20 0xFFFFFFFFFFFFFFFFFFFFFFFFFFFFFFFFFFFFFFFF AND PUSH20 0xFFFFFFFFFFFFFFFFFFFFFFFFFFFFFFFFFFFFFFFF AND EQ ISZERO PUSH2 0x7AC JUMPI PUSH1 0x40 MLOAD PUSH32 0x8C379A000000000000000000000000000000000000000000000000000000000 DUP2 MSTORE PUSH1 0x4 ADD PUSH2 0x7A3 SWAP1 PUSH2 0x238C JUMP JUMPDEST PUSH1 0x40 MLOAD DUP1 SWAP2 SUB SWAP1 REVERT JUMPDEST PUSH1 0x3 PUSH1 0x0 DUP4 DUP2 MSTORE PUSH1 0x20 ADD SWAP1 DUP2 MSTORE PUSH1 0x20 ADD PUSH1 0x0 KECCAK256 PUSH1 0x0 SWAP1 SLOAD SWAP1 PUSH2 0x100 EXP SWAP1 DIV PUSH20 0xFFFFFFFFFFFFFFFFFFFFFFFFFFFFFFFFFFFFFFFF AND SWAP1 POP SWAP2 SWAP1 POP JUMP JUMPDEST PUSH1 0x0 PUSH2 0x7F2 DUP3 PUSH2 0xE05 JUMP JUMPDEST SWAP1 POP DUP1 PUSH20 0xFFFFFFFFFFFFFFFFFFFFFFFFFFFFFFFFFFFFFFFF AND DUP4 PUSH20 0xFFFFFFFFFFFFFFFFFFFFFFFFFFFFFFFFFFFFFFFF AND EQ ISZERO PUSH2 0x863 JUMPI PUSH1 0x40 MLOAD PUSH32 0x8C379A000000000000000000000000000000000000000000000000000000000 DUP2 MSTORE PUSH1 0x4 ADD PUSH2 0x85A SWAP1 PUSH2 0x234C JUMP JUMPDEST PUSH1 0x40 MLOAD DUP1 SWAP2 SUB SWAP1 REVERT JUMPDEST DUP1 PUSH20 0xFFFFFFFFFFFFFFFFFFFFFFFFFFFFFFFFFFFFFFFF AND CALLER PUSH20 0xFFFFFFFFFFFFFFFFFFFFFFFFFFFFFFFFFFFFFFFF AND EQ DUP1 PUSH2 0x8A3 JUMPI POP PUSH2 0x8A2 DUP2 CALLER PUSH2 0x126D JUMP JUMPDEST JUMPDEST PUSH2 0x8E2 JUMPI PUSH1 0x40 MLOAD PUSH32 0x8C379A000000000000000000000000000000000000000000000000000000000 DUP2 MSTORE PUSH1 0x4 ADD PUSH2 0x8D9 SWAP1 PUSH2 0x22CC JUMP JUMPDEST PUSH1 0x40 MLOAD DUP1 SWAP2 SUB SWAP1 REVERT JUMPDEST PUSH2 0x8EC DUP4 DUP4 PUSH2 0x1557 JUMP JUMPDEST POP POP POP JUMP JUMPDEST PUSH1 0x60 PUSH2 0x8FC DUP3 PUSH2 0x11C8 JUMP JUMPDEST SWAP1 POP SWAP2 SWAP1 POP JUMP JUMPDEST PUSH1 0x0 PUSH1 0x9 DUP1 SLOAD SWAP1 POP SWAP1 POP SWAP1 JUMP JUMPDEST PUSH1 0x0 PUSH20 0xFFFFFFFFFFFFFFFFFFFFFFFFFFFFFFFFFFFFFFFF AND DUP4 PUSH20 0xFFFFFFFFFFFFFFFFFFFFFFFFFFFFFFFFFFFFFFFF AND EQ ISZERO PUSH2 0x980 JUMPI PUSH1 0x40 MLOAD PUSH32 0x8C379A000000000000000000000000000000000000000000000000000000000 DUP2 MSTORE PUSH1 0x4 ADD PUSH2 0x977 SWAP1 PUSH2 0x222C JUMP JUMPDEST PUSH1 0x40 MLOAD DUP1 SWAP2 SUB SWAP1 REVERT JUMPDEST PUSH1 0x0 PUSH20 0xFFFFFFFFFFFFFFFFFFFFFFFFFFFFFFFFFFFFFFFF AND DUP3 PUSH20 0xFFFFFFFFFFFFFFFFFFFFFFFFFFFFFFFFFFFFFFFF AND EQ ISZERO PUSH2 0x9F0 JUMPI PUSH1 0x40 MLOAD PUSH32 0x8C379A000000000000000000000000000000000000000000000000000000000 DUP2 MSTORE PUSH1 0x4 ADD PUSH2 0x9E7 SWAP1 PUSH2 0x22EC JUMP JUMPDEST PUSH1 0x40 MLOAD DUP1 SWAP2 SUB SWAP1 REVERT JUMPDEST PUSH1 0x0 PUSH2 0x9FB DUP3 PUSH2 0xE05 JUMP JUMPDEST SWAP1 POP DUP4 PUSH20 0xFFFFFFFFFFFFFFFFFFFFFFFFFFFFFFFFFFFFFFFF AND DUP2 PUSH20 0xFFFFFFFFFFFFFFFFFFFFFFFFFFFFFFFFFFFFFFFF AND EQ PUSH2 0xA6B JUMPI PUSH1 0x40 MLOAD PUSH32 0x8C379A000000000000000000000000000000000000000000000000000000000 DUP2 MSTORE PUSH1 0x4 ADD PUSH2 0xA62 SWAP1 PUSH2 0x232C JUMP JUMPDEST PUSH1 0x40 MLOAD DUP1 SWAP2 SUB SWAP1 REVERT JUMPDEST DUP1 PUSH20 0xFFFFFFFFFFFFFFFFFFFFFFFFFFFFFFFFFFFFFFFF AND CALLER PUSH20 0xFFFFFFFFFFFFFFFFFFFFFFFFFFFFFFFFFFFFFFFF AND EQ DUP1 PUSH2 0xAD8 JUMPI POP PUSH2 0xAA9 DUP3 PUSH2 0x708 JUMP JUMPDEST PUSH20 0xFFFFFFFFFFFFFFFFFFFFFFFFFFFFFFFFFFFFFFFF AND CALLER PUSH20 0xFFFFFFFFFFFFFFFFFFFFFFFFFFFFFFFFFFFFFFFF AND EQ JUMPDEST DUP1 PUSH2 0xAE9 JUMPI POP PUSH2 0xAE8 DUP2 CALLER PUSH2 0x126D JUMP JUMPDEST JUMPDEST PUSH2 0xB28 JUMPI PUSH1 0x40 MLOAD PUSH32 0x8C379A000000000000000000000000000000000000000000000000000000000 DUP2 MSTORE PUSH1 0x4 ADD PUSH2 0xB1F SWAP1 PUSH2 0x224C JUMP JUMPDEST PUSH1 0x40 MLOAD DUP1 SWAP2 SUB SWAP1 REVERT JUMPDEST PUSH1 0x1 PUSH1 0x0 DUP1 DUP7 PUSH20 0xFFFFFFFFFFFFFFFFFFFFFFFFFFFFFFFFFFFFFFFF AND PUSH20 0xFFFFFFFFFFFFFFFFFFFFFFFFFFFFFFFFFFFFFFFF AND DUP2 MSTORE PUSH1 0x20 ADD SWAP1 DUP2 MSTORE PUSH1 0x20 ADD PUSH1 0x0 KECCAK256 PUSH1 0x0 DUP3 DUP3 SLOAD PUSH2 0xB77 SWAP2 SWAP1 PUSH2 0x24FC JUMP JUMPDEST SWAP3 POP POP DUP2 SWAP1 SSTORE POP PUSH1 0x1 PUSH1 0x0 DUP1 DUP6 PUSH20 0xFFFFFFFFFFFFFFFFFFFFFFFFFFFFFFFFFFFFFFFF AND PUSH20 0xFFFFFFFFFFFFFFFFFFFFFFFFFFFFFFFFFFFFFFFF AND DUP2 MSTORE PUSH1 0x20 ADD SWAP1 DUP2 MSTORE PUSH1 0x20 ADD PUSH1 0x0 KECCAK256 PUSH1 0x0 DUP3 DUP3 SLOAD PUSH2 0xBCD SWAP2 SWAP1 PUSH2 0x24A6 JUMP JUMPDEST SWAP3 POP POP DUP2 SWAP1 SSTORE POP DUP3 PUSH1 0x1 PUSH1 0x0 DUP5 DUP2 MSTORE PUSH1 0x20 ADD SWAP1 DUP2 MSTORE PUSH1 0x20 ADD PUSH1 0x0 KECCAK256 PUSH1 0x0 PUSH2 0x100 EXP DUP2 SLOAD DUP2 PUSH20 0xFFFFFFFFFFFFFFFFFFFFFFFFFFFFFFFFFFFFFFFF MUL NOT AND SWAP1 DUP4 PUSH20 0xFFFFFFFFFFFFFFFFFFFFFFFFFFFFFFFFFFFFFFFF AND MUL OR SWAP1 SSTORE POP DUP2 DUP4 PUSH20 0xFFFFFFFFFFFFFFFFFFFFFFFFFFFFFFFFFFFFFFFF AND DUP6 PUSH20 0xFFFFFFFFFFFFFFFFFFFFFFFFFFFFFFFFFFFFFFFF AND PUSH32 0xDDF252AD1BE2C89B69C2B068FC378DAA952BA7F163C4A11628F55A4DF523B3EF PUSH1 0x40 MLOAD PUSH1 0x40 MLOAD DUP1 SWAP2 SUB SWAP1 LOG4 PUSH2 0xC8B DUP5 DUP4 PUSH2 0x1616 JUMP JUMPDEST PUSH2 0xC95 DUP4 DUP4 PUSH2 0x17AE JUMP JUMPDEST POP POP POP POP JUMP JUMPDEST PUSH1 0x0 DUP1 PUSH1 0x0 DUP5 PUSH20 0xFFFFFFFFFFFFFFFFFFFFFFFFFFFFFFFFFFFFFFFF AND PUSH20 0xFFFFFFFFFFFFFFFFFFFFFFFFFFFFFFFFFFFFFFFF AND DUP2 MSTORE PUSH1 0x20 ADD SWAP1 DUP2 MSTORE PUSH1 0x20 ADD PUSH1 0x0 KECCAK256 SLOAD DUP3 LT PUSH2 0xD1D JUMPI PUSH1 0x40 MLOAD PUSH32 0x8C379A000000000000000000000000000000000000000000000000000000000 DUP2 MSTORE PUSH1 0x4 ADD PUSH2 0xD14 SWAP1 PUSH2 0x23AC JUMP JUMPDEST PUSH1 0x40 MLOAD DUP1 SWAP2 SUB SWAP1 REVERT JUMPDEST PUSH1 0x7 PUSH1 0x0 DUP5 PUSH20 0xFFFFFFFFFFFFFFFFFFFFFFFFFFFFFFFFFFFFFFFF AND PUSH20 0xFFFFFFFFFFFFFFFFFFFFFFFFFFFFFFFFFFFFFFFF AND DUP2 MSTORE PUSH1 0x20 ADD SWAP1 DUP2 MSTORE PUSH1 0x20 ADD PUSH1 0x0 KECCAK256 PUSH1 0x0 DUP4 DUP2 MSTORE PUSH1 0x20 ADD SWAP1 DUP2 MSTORE PUSH1 0x20 ADD PUSH1 0x0 KECCAK256 SLOAD SWAP1 POP SWAP3 SWAP2 POP POP JUMP JUMPDEST PUSH2 0xD91 DUP4 DUP4 DUP4 PUSH1 0x40 MLOAD DUP1 PUSH1 0x20 ADD PUSH1 0x40 MSTORE DUP1 PUSH1 0x0 DUP2 MSTORE POP PUSH2 0x116C JUMP JUMPDEST POP POP POP JUMP JUMPDEST PUSH1 0x0 PUSH1 0x9 DUP1 SLOAD SWAP1 POP DUP3 LT PUSH2 0xDDF JUMPI PUSH1 0x40 MLOAD PUSH32 0x8C379A000000000000000000000000000000000000000000000000000000000 DUP2 MSTORE PUSH1 0x4 ADD PUSH2 0xDD6 SWAP1 PUSH2 0x23AC JUMP JUMPDEST PUSH1 0x40 MLOAD DUP1 SWAP2 SUB SWAP1 REVERT JUMPDEST PUSH1 0x9 DUP3 DUP2 SLOAD DUP2 LT PUSH2 0xDF3 JUMPI PUSH2 0xDF2 PUSH2 0x26A7 JUMP JUMPDEST JUMPDEST SWAP1 PUSH1 0x0 MSTORE PUSH1 0x20 PUSH1 0x0 KECCAK256 ADD SLOAD SWAP1 POP SWAP2 SWAP1 POP JUMP JUMPDEST PUSH1 0x0 DUP1 PUSH1 0x1 PUSH1 0x0 DUP5 DUP2 MSTORE PUSH1 0x20 ADD SWAP1 DUP2 MSTORE PUSH1 0x20 ADD PUSH1 0x0 KECCAK256 PUSH1 0x0 SWAP1 SLOAD SWAP1 PUSH2 0x100 EXP SWAP1 DIV PUSH20 0xFFFFFFFFFFFFFFFFFFFFFFFFFFFFFFFFFFFFFFFF AND SWAP1 POP PUSH1 0x0 PUSH20 0xFFFFFFFFFFFFFFFFFFFFFFFFFFFFFFFFFFFFFFFF AND DUP2 PUSH20 0xFFFFFFFFFFFFFFFFFFFFFFFFFFFFFFFFFFFFFFFF AND EQ ISZERO PUSH2 0xEAE JUMPI PUSH1 0x40 MLOAD PUSH32 0x8C379A000000000000000000000000000000000000000000000000000000000 DUP2 MSTORE PUSH1 0x4 ADD PUSH2 0xEA5 SWAP1 PUSH2 0x238C JUMP JUMPDEST PUSH1 0x40 MLOAD DUP1 SWAP2 SUB SWAP1 REVERT JUMPDEST DUP1 SWAP2 POP POP SWAP2 SWAP1 POP JUMP JUMPDEST PUSH1 0x0 DUP1 PUSH20 0xFFFFFFFFFFFFFFFFFFFFFFFFFFFFFFFFFFFFFFFF AND DUP3 PUSH20 0xFFFFFFFFFFFFFFFFFFFFFFFFFFFFFFFFFFFFFFFF AND EQ ISZERO PUSH2 0xF28 JUMPI PUSH1 0x40 MLOAD PUSH32 0x8C379A000000000000000000000000000000000000000000000000000000000 DUP2 MSTORE PUSH1 0x4 ADD PUSH2 0xF1F SWAP1 PUSH2 0x226C JUMP JUMPDEST PUSH1 0x40 MLOAD DUP1 SWAP2 SUB SWAP1 REVERT JUMPDEST PUSH1 0x0 DUP1 DUP4 PUSH20 0xFFFFFFFFFFFFFFFFFFFFFFFFFFFFFFFFFFFFFFFF AND PUSH20 0xFFFFFFFFFFFFFFFFFFFFFFFFFFFFFFFFFFFFFFFF AND DUP2 MSTORE PUSH1 0x20 ADD SWAP1 DUP2 MSTORE PUSH1 0x20 ADD PUSH1 0x0 KECCAK256 SLOAD SWAP1 POP SWAP2 SWAP1 POP JUMP JUMPDEST PUSH1 0x60 PUSH1 0x5 DUP1 SLOAD PUSH2 0xF7D SWAP1 PUSH2 0x25E6 JUMP JUMPDEST DUP1 PUSH1 0x1F ADD PUSH1 0x20 DUP1 SWAP2 DIV MUL PUSH1 0x20 ADD PUSH1 0x40 MLOAD SWAP1 DUP2 ADD PUSH1 0x40 MSTORE DUP1 SWAP3 SWAP2 SWAP1 DUP2 DUP2 MSTORE PUSH1 0x20 ADD DUP3 DUP1 SLOAD PUSH2 0xFA9 SWAP1 PUSH2 0x25E6 JUMP JUMPDEST DUP1 ISZERO PUSH2 0xFF6 JUMPI DUP1 PUSH1 0x1F LT PUSH2 0xFCB JUMPI PUSH2 0x100 DUP1 DUP4 SLOAD DIV MUL DUP4 MSTORE SWAP2 PUSH1 0x20 ADD SWAP2 PUSH2 0xFF6 JUMP JUMPDEST DUP3 ADD SWAP2 SWAP1 PUSH1 0x0 MSTORE PUSH1 0x20 PUSH1 0x0 KECCAK256 SWAP1 JUMPDEST DUP2 SLOAD DUP2 MSTORE SWAP1 PUSH1 0x1 ADD SWAP1 PUSH1 0x20 ADD DUP1 DUP4 GT PUSH2 0xFD9 JUMPI DUP3 SWAP1 SUB PUSH1 0x1F AND DUP3 ADD SWAP2 JUMPDEST POP POP POP POP POP SWAP1 POP SWAP1 JUMP JUMPDEST DUP2 PUSH20 0xFFFFFFFFFFFFFFFFFFFFFFFFFFFFFFFFFFFFFFFF AND CALLER PUSH20 0xFFFFFFFFFFFFFFFFFFFFFFFFFFFFFFFFFFFFFFFF AND EQ ISZERO PUSH2 0x106F JUMPI PUSH1 0x40 MLOAD PUSH32 0x8C379A000000000000000000000000000000000000000000000000000000000 DUP2 MSTORE PUSH1 0x4 ADD PUSH2 0x1066 SWAP1 PUSH2 0x234C JUMP JUMPDEST PUSH1 0x40 MLOAD DUP1 SWAP2 SUB SWAP1 REVERT JUMPDEST DUP1 PUSH1 0x2 PUSH1 0x0 CALLER PUSH20 0xFFFFFFFFFFFFFFFFFFFFFFFFFFFFFFFFFFFFFFFF AND PUSH20 0xFFFFFFFFFFFFFFFFFFFFFFFFFFFFFFFFFFFFFFFF AND DUP2 MSTORE PUSH1 0x20 ADD SWAP1 DUP2 MSTORE PUSH1 0x20 ADD PUSH1 0x0 KECCAK256 PUSH1 0x0 DUP5 PUSH20 0xFFFFFFFFFFFFFFFFFFFFFFFFFFFFFFFFFFFFFFFF AND PUSH20 0xFFFFFFFFFFFFFFFFFFFFFFFFFFFFFFFFFFFFFFFF AND DUP2 MSTORE PUSH1 0x20 ADD SWAP1 DUP2 MSTORE PUSH1 0x20 ADD PUSH1 0x0 KECCAK256 PUSH1 0x0 PUSH2 0x100 EXP DUP2 SLOAD DUP2 PUSH1 0xFF MUL NOT AND SWAP1 DUP4 ISZERO ISZERO MUL OR SWAP1 SSTORE POP DUP2 PUSH20 0xFFFFFFFFFFFFFFFFFFFFFFFFFFFFFFFFFFFFFFFF AND CALLER PUSH20 0xFFFFFFFFFFFFFFFFFFFFFFFFFFFFFFFFFFFFFFFF AND PUSH32 0x17307EAB39AB6107E8899845AD3D59BD9653F200F220920489CA2B5937696C31 DUP4 PUSH1 0x40 MLOAD PUSH2 0x1160 SWAP2 SWAP1 PUSH2 0x21EF JUMP JUMPDEST PUSH1 0x40 MLOAD DUP1 SWAP2 SUB SWAP1 LOG3 POP POP JUMP JUMPDEST PUSH2 0x1177 DUP5 DUP5 DUP5 PUSH2 0x910 JUMP JUMPDEST PUSH2 0x1183 DUP5 DUP5 DUP5 DUP5 PUSH2 0x186F JUMP JUMPDEST PUSH2 0x11C2 JUMPI PUSH1 0x40 MLOAD PUSH32 0x8C379A000000000000000000000000000000000000000000000000000000000 DUP2 MSTORE PUSH1 0x4 ADD PUSH2 0x11B9 SWAP1 PUSH2 0x22AC JUMP JUMPDEST PUSH1 0x40 MLOAD DUP1 SWAP2 SUB SWAP1 REVERT JUMPDEST POP POP POP POP JUMP JUMPDEST PUSH1 0x60 PUSH1 0x6 PUSH1 0x0 DUP4 DUP2 MSTORE PUSH1 0x20 ADD SWAP1 DUP2 MSTORE PUSH1 0x20 ADD PUSH1 0x0 KECCAK256 DUP1 SLOAD PUSH2 0x11E8 SWAP1 PUSH2 0x25E6 JUMP JUMPDEST DUP1 PUSH1 0x1F ADD PUSH1 0x20 DUP1 SWAP2 DIV MUL PUSH1 0x20 ADD PUSH1 0x40 MLOAD SWAP1 DUP2 ADD PUSH1 0x40 MSTORE DUP1 SWAP3 SWAP2 SWAP1 DUP2 DUP2 MSTORE PUSH1 0x20 ADD DUP3 DUP1 SLOAD PUSH2 0x1214 SWAP1 PUSH2 0x25E6 JUMP JUMPDEST DUP1 ISZERO PUSH2 0x1261 JUMPI DUP1 PUSH1 0x1F LT PUSH2 0x1236 JUMPI PUSH2 0x100 DUP1 DUP4 SLOAD DIV MUL DUP4 MSTORE SWAP2 PUSH1 0x20 ADD SWAP2 PUSH2 0x1261 JUMP JUMPDEST DUP3 ADD SWAP2 SWAP1 PUSH1 0x0 MSTORE PUSH1 0x20 PUSH1 0x0 KECCAK256 SWAP1 JUMPDEST DUP2 SLOAD DUP2 MSTORE SWAP1 PUSH1 0x1 ADD SWAP1 PUSH1 0x20 ADD DUP1 DUP4 GT PUSH2 0x1244 JUMPI DUP3 SWAP1 SUB PUSH1 0x1F AND DUP3 ADD SWAP2 JUMPDEST POP POP POP POP POP SWAP1 POP SWAP2 SWAP1 POP JUMP JUMPDEST PUSH1 0x0 PUSH1 0x2 PUSH1 0x0 DUP5 PUSH20 0xFFFFFFFFFFFFFFFFFFFFFFFFFFFFFFFFFFFFFFFF AND PUSH20 0xFFFFFFFFFFFFFFFFFFFFFFFFFFFFFFFFFFFFFFFF AND DUP2 MSTORE PUSH1 0x20 ADD SWAP1 DUP2 MSTORE PUSH1 0x20 ADD PUSH1 0x0 KECCAK256 PUSH1 0x0 DUP4 PUSH20 0xFFFFFFFFFFFFFFFFFFFFFFFFFFFFFFFFFFFFFFFF AND PUSH20 0xFFFFFFFFFFFFFFFFFFFFFFFFFFFFFFFFFFFFFFFF AND DUP2 MSTORE PUSH1 0x20 ADD SWAP1 DUP2 MSTORE PUSH1 0x20 ADD PUSH1 0x0 KECCAK256 PUSH1 0x0 SWAP1 SLOAD SWAP1 PUSH2 0x100 EXP SWAP1 DIV PUSH1 0xFF AND SWAP1 POP SWAP3 SWAP2 POP POP JUMP JUMPDEST PUSH1 0x0 PUSH20 0xFFFFFFFFFFFFFFFFFFFFFFFFFFFFFFFFFFFFFFFF AND DUP4 PUSH20 0xFFFFFFFFFFFFFFFFFFFFFFFFFFFFFFFFFFFFFFFF AND EQ ISZERO PUSH2 0x1371 JUMPI PUSH1 0x40 MLOAD PUSH32 0x8C379A000000000000000000000000000000000000000000000000000000000 DUP2 MSTORE PUSH1 0x4 ADD PUSH2 0x1368 SWAP1 PUSH2 0x228C JUMP JUMPDEST PUSH1 0x40 MLOAD DUP1 SWAP2 SUB SWAP1 REVERT JUMPDEST PUSH1 0x0 PUSH20 0xFFFFFFFFFFFFFFFFFFFFFFFFFFFFFFFFFFFFFFFF AND PUSH1 0x1 PUSH1 0x0 DUP5 DUP2 MSTORE PUSH1 0x20 ADD SWAP1 DUP2 MSTORE PUSH1 0x20 ADD PUSH1 0x0 KECCAK256 PUSH1 0x0 SWAP1 SLOAD SWAP1 PUSH2 0x100 EXP SWAP1 DIV PUSH20 0xFFFFFFFFFFFFFFFFFFFFFFFFFFFFFFFFFFFFFFFF AND PUSH20 0xFFFFFFFFFFFFFFFFFFFFFFFFFFFFFFFFFFFFFFFF AND EQ PUSH2 0x1413 JUMPI PUSH1 0x40 MLOAD PUSH32 0x8C379A000000000000000000000000000000000000000000000000000000000 DUP2 MSTORE PUSH1 0x4 ADD PUSH2 0x140A SWAP1 PUSH2 0x236C JUMP JUMPDEST PUSH1 0x40 MLOAD DUP1 SWAP2 SUB SWAP1 REVERT JUMPDEST PUSH1 0x1 PUSH1 0x0 DUP1 DUP6 PUSH20 0xFFFFFFFFFFFFFFFFFFFFFFFFFFFFFFFFFFFFFFFF AND PUSH20 0xFFFFFFFFFFFFFFFFFFFFFFFFFFFFFFFFFFFFFFFF AND DUP2 MSTORE PUSH1 0x20 ADD SWAP1 DUP2 MSTORE PUSH1 0x20 ADD PUSH1 0x0 KECCAK256 PUSH1 0x0 DUP3 DUP3 SLOAD PUSH2 0x1462 SWAP2 SWAP1 PUSH2 0x24A6 JUMP JUMPDEST SWAP3 POP POP DUP2 SWAP1 SSTORE POP DUP3 PUSH1 0x1 PUSH1 0x0 DUP5 DUP2 MSTORE PUSH1 0x20 ADD SWAP1 DUP2 MSTORE PUSH1 0x20 ADD PUSH1 0x0 KECCAK256 PUSH1 0x0 PUSH2 0x100 EXP DUP2 SLOAD DUP2 PUSH20 0xFFFFFFFFFFFFFFFFFFFFFFFFFFFFFFFFFFFFFFFF MUL NOT AND SWAP1 DUP4 PUSH20 0xFFFFFFFFFFFFFFFFFFFFFFFFFFFFFFFFFFFFFFFF AND MUL OR SWAP1 SSTORE POP DUP1 PUSH1 0x6 PUSH1 0x0 DUP5 DUP2 MSTORE PUSH1 0x20 ADD SWAP1 DUP2 MSTORE PUSH1 0x20 ADD PUSH1 0x0 KECCAK256 SWAP1 DUP1 MLOAD SWAP1 PUSH1 0x20 ADD SWAP1 PUSH2 0x14E2 SWAP3 SWAP2 SWAP1 PUSH2 0x1A90 JUMP JUMPDEST POP DUP2 DUP4 PUSH20 0xFFFFFFFFFFFFFFFFFFFFFFFFFFFFFFFFFFFFFFFF AND PUSH1 0x0 PUSH20 0xFFFFFFFFFFFFFFFFFFFFFFFFFFFFFFFFFFFFFFFF AND PUSH32 0xDDF252AD1BE2C89B69C2B068FC378DAA952BA7F163C4A11628F55A4DF523B3EF PUSH1 0x40 MLOAD PUSH1 0x40 MLOAD DUP1 SWAP2 SUB SWAP1 LOG4 PUSH2 0x1548 DUP3 PUSH2 0x1A3B JUMP JUMPDEST PUSH2 0x1552 DUP4 DUP4 PUSH2 0x17AE JUMP JUMPDEST POP POP POP JUMP JUMPDEST DUP2 PUSH1 0x3 PUSH1 0x0 DUP4 DUP2 MSTORE PUSH1 0x20 ADD SWAP1 DUP2 MSTORE PUSH1 0x20 ADD PUSH1 0x0 KECCAK256 PUSH1 0x0 PUSH2 0x100 EXP DUP2 SLOAD DUP2 PUSH20 0xFFFFFFFFFFFFFFFFFFFFFFFFFFFFFFFFFFFFFFFF MUL NOT AND SWAP1 DUP4 PUSH20 0xFFFFFFFFFFFFFFFFFFFFFFFFFFFFFFFFFFFFFFFF AND MUL OR SWAP1 SSTORE POP PUSH1 0x0 PUSH2 0x15B4 DUP3 PUSH2 0xE05 JUMP JUMPDEST SWAP1 POP DUP2 DUP4 PUSH20 0xFFFFFFFFFFFFFFFFFFFFFFFFFFFFFFFFFFFFFFFF AND DUP3 PUSH20 0xFFFFFFFFFFFFFFFFFFFFFFFFFFFFFFFFFFFFFFFF AND PUSH32 0x8C5BE1E5EBEC7D5BD14F71427D1E84F3DD0314C0F7B2291E5B200AC8C7C3B925 PUSH1 0x40 MLOAD PUSH1 0x40 MLOAD DUP1 SWAP2 SUB SWAP1 LOG4 POP POP POP JUMP JUMPDEST PUSH1 0x0 PUSH1 0x8 PUSH1 0x0 DUP4 DUP2 MSTORE PUSH1 0x20 ADD SWAP1 DUP2 MSTORE PUSH1 0x20 ADD PUSH1 0x0 KECCAK256 SLOAD SWAP1 POP PUSH1 0x0 DUP1 PUSH1 0x0 DUP6 PUSH20 0xFFFFFFFFFFFFFFFFFFFFFFFFFFFFFFFFFFFFFFFF AND PUSH20 0xFFFFFFFFFFFFFFFFFFFFFFFFFFFFFFFFFFFFFFFF AND DUP2 MSTORE PUSH1 0x20 ADD SWAP1 DUP2 MSTORE PUSH1 0x20 ADD PUSH1 0x0 KECCAK256 SLOAD SWAP1 POP DUP1 DUP3 LT ISZERO PUSH2 0x173D JUMPI PUSH1 0x0 PUSH1 0x7 PUSH1 0x0 DUP7 PUSH20 0xFFFFFFFFFFFFFFFFFFFFFFFFFFFFFFFFFFFFFFFF AND PUSH20 0xFFFFFFFFFFFFFFFFFFFFFFFFFFFFFFFFFFFFFFFF AND DUP2 MSTORE PUSH1 0x20 ADD SWAP1 DUP2 MSTORE PUSH1 0x20 ADD PUSH1 0x0 KECCAK256 PUSH1 0x0 DUP4 DUP2 MSTORE PUSH1 0x20 ADD SWAP1 DUP2 MSTORE PUSH1 0x20 ADD PUSH1 0x0 KECCAK256 SLOAD SWAP1 POP DUP1 PUSH1 0x7 PUSH1 0x0 DUP8 PUSH20 0xFFFFFFFFFFFFFFFFFFFFFFFFFFFFFFFFFFFFFFFF AND PUSH20 0xFFFFFFFFFFFFFFFFFFFFFFFFFFFFFFFFFFFFFFFF AND DUP2 MSTORE PUSH1 0x20 ADD SWAP1 DUP2 MSTORE PUSH1 0x20 ADD PUSH1 0x0 KECCAK256 PUSH1 0x0 DUP6 DUP2 MSTORE PUSH1 0x20 ADD SWAP1 DUP2 MSTORE PUSH1 0x20 ADD PUSH1 0x0 KECCAK256 DUP2 SWAP1 SSTORE POP DUP3 PUSH1 0x8 PUSH1 0x0 DUP4 DUP2 MSTORE PUSH1 0x20 ADD SWAP1 DUP2 MSTORE PUSH1 0x20 ADD PUSH1 0x0 KECCAK256 DUP2 SWAP1 SSTORE POP POP JUMPDEST PUSH1 0x7 PUSH1 0x0 DUP6 PUSH20 0xFFFFFFFFFFFFFFFFFFFFFFFFFFFFFFFFFFFFFFFF AND PUSH20 0xFFFFFFFFFFFFFFFFFFFFFFFFFFFFFFFFFFFFFFFF AND DUP2 MSTORE PUSH1 0x20 ADD SWAP1 DUP2 MSTORE PUSH1 0x20 ADD PUSH1 0x0 KECCAK256 PUSH1 0x0 DUP3 DUP2 MSTORE PUSH1 0x20 ADD SWAP1 DUP2 MSTORE PUSH1 0x20 ADD PUSH1 0x0 KECCAK256 PUSH1 0x0 SWAP1 SSTORE PUSH1 0x8 PUSH1 0x0 DUP5 DUP2 MSTORE PUSH1 0x20 ADD SWAP1 DUP2 MSTORE PUSH1 0x20 ADD PUSH1 0x0 KECCAK256 PUSH1 0x0 SWAP1 SSTORE POP POP POP POP JUMP JUMPDEST PUSH1 0x0 PUSH1 0x1 PUSH1 0x0 DUP1 DUP6 PUSH20 0xFFFFFFFFFFFFFFFFFFFFFFFFFFFFFFFFFFFFFFFF AND PUSH20 0xFFFFFFFFFFFFFFFFFFFFFFFFFFFFFFFFFFFFFFFF AND DUP2 MSTORE PUSH1 0x20 ADD SWAP1 DUP2 MSTORE PUSH1 0x20 ADD PUSH1 0x0 KECCAK256 SLOAD PUSH2 0x17FB SWAP2 SWAP1 PUSH2 0x24FC JUMP JUMPDEST SWAP1 POP DUP2 PUSH1 0x7 PUSH1 0x0 DUP6 PUSH20 0xFFFFFFFFFFFFFFFFFFFFFFFFFFFFFFFFFFFFFFFF AND PUSH20 0xFFFFFFFFFFFFFFFFFFFFFFFFFFFFFFFFFFFFFFFF AND DUP2 MSTORE PUSH1 0x20 ADD SWAP1 DUP2 MSTORE PUSH1 0x20 ADD PUSH1 0x0 KECCAK256 PUSH1 0x0 DUP4 DUP2 MSTORE PUSH1 0x20 ADD SWAP1 DUP2 MSTORE PUSH1 0x20 ADD PUSH1 0x0 KECCAK256 DUP2 SWAP1 SSTORE POP DUP1 PUSH1 0x8 PUSH1 0x0 DUP5 DUP2 MSTORE PUSH1 0x20 ADD SWAP1 DUP2 MSTORE PUSH1 0x20 ADD PUSH1 0x0 KECCAK256 DUP2 SWAP1 SSTORE POP POP POP POP JUMP JUMPDEST PUSH1 0x0 DUP1 DUP5 PUSH20 0xFFFFFFFFFFFFFFFFFFFFFFFFFFFFFFFFFFFFFFFF AND EXTCODESIZE GT PUSH2 0x1898 JUMPI PUSH1 0x1 SWAP1 POP PUSH2 0x1A33 JUMP JUMPDEST PUSH1 0x0 DUP5 SWAP1 POP DUP1 PUSH20 0xFFFFFFFFFFFFFFFFFFFFFFFFFFFFFFFFFFFFFFFF AND PUSH4 0x150B7A02 CALLER DUP9 DUP8 DUP8 PUSH1 0x40 MLOAD DUP6 PUSH4 0xFFFFFFFF AND PUSH1 0xE0 SHL DUP2 MSTORE PUSH1 0x4 ADD PUSH2 0x18DC SWAP5 SWAP4 SWAP3 SWAP2 SWAP1 PUSH2 0x21A3 JUMP JUMPDEST PUSH1 0x20 PUSH1 0x40 MLOAD DUP1 DUP4 SUB DUP2 PUSH1 0x0 DUP8 DUP1 EXTCODESIZE ISZERO DUP1 ISZERO PUSH2 0x18F6 JUMPI PUSH1 0x0 DUP1 REVERT JUMPDEST POP GAS CALL SWAP3 POP POP POP DUP1 ISZERO PUSH2 0x1927 JUMPI POP PUSH1 0x40 MLOAD RETURNDATASIZE PUSH1 0x1F NOT PUSH1 0x1F DUP3 ADD AND DUP3 ADD DUP1 PUSH1 0x40 MSTORE POP DUP2 ADD SWAP1 PUSH2 0x1924 SWAP2 SWAP1 PUSH2 0x1E6C JUMP JUMPDEST PUSH1 0x1 JUMPDEST PUSH2 0x19CD JUMPI PUSH2 0x1933 PUSH2 0x2705 JUMP JUMPDEST DUP1 PUSH4 0x8C379A0 EQ ISZERO PUSH2 0x1990 JUMPI POP PUSH2 0x1948 PUSH2 0x29BA JUMP JUMPDEST DUP1 PUSH2 0x1953 JUMPI POP PUSH2 0x1992 JUMP JUMPDEST DUP1 PUSH1 0x40 MLOAD PUSH32 0x8C379A000000000000000000000000000000000000000000000000000000000 DUP2 MSTORE PUSH1 0x4 ADD PUSH2 0x1987 SWAP2 SWAP1 PUSH2 0x220A JUMP JUMPDEST PUSH1 0x40 MLOAD DUP1 SWAP2 SUB SWAP1 REVERT JUMPDEST POP JUMPDEST PUSH1 0x40 MLOAD PUSH32 0x8C379A000000000000000000000000000000000000000000000000000000000 DUP2 MSTORE PUSH1 0x4 ADD PUSH2 0x19C4 SWAP1 PUSH2 0x22AC JUMP JUMPDEST PUSH1 0x40 MLOAD DUP1 SWAP2 SUB SWAP1 REVERT JUMPDEST PUSH32 0x150B7A0200000000000000000000000000000000000000000000000000000000 PUSH28 0xFFFFFFFFFFFFFFFFFFFFFFFFFFFFFFFFFFFFFFFFFFFFFFFFFFFFFFFF NOT AND DUP2 PUSH28 0xFFFFFFFFFFFFFFFFFFFFFFFFFFFFFFFFFFFFFFFFFFFFFFFFFFFFFFFF NOT AND EQ SWAP3 POP POP POP JUMPDEST SWAP5 SWAP4 POP POP POP POP JUMP JUMPDEST PUSH1 0x9 DUP2 SWAP1 DUP1 PUSH1 0x1 DUP2 SLOAD ADD DUP1 DUP3 SSTORE DUP1 SWAP2 POP POP PUSH1 0x1 SWAP1 SUB SWAP1 PUSH1 0x0 MSTORE PUSH1 0x20 PUSH1 0x0 KECCAK256 ADD PUSH1 0x0 SWAP1 SWAP2 SWAP1 SWAP2 SWAP1 SWAP2 POP SSTORE PUSH1 0x1 PUSH1 0x9 DUP1 SLOAD SWAP1 POP PUSH2 0x1A76 SWAP2 SWAP1 PUSH2 0x24FC JUMP JUMPDEST PUSH1 0xA PUSH1 0x0 DUP4 DUP2 MSTORE PUSH1 0x20 ADD SWAP1 DUP2 MSTORE PUSH1 0x20 ADD PUSH1 0x0 KECCAK256 DUP2 SWAP1 SSTORE POP POP JUMP JUMPDEST DUP3 DUP1 SLOAD PUSH2 0x1A9C SWAP1 PUSH2 0x25E6 JUMP JUMPDEST SWAP1 PUSH1 0x0 MSTORE PUSH1 0x20 PUSH1 0x0 KECCAK256 SWAP1 PUSH1 0x1F ADD PUSH1 0x20 SWAP1 DIV DUP2 ADD SWAP3 DUP3 PUSH2 0x1ABE JUMPI PUSH1 0x0 DUP6 SSTORE PUSH2 0x1B05 JUMP JUMPDEST DUP3 PUSH1 0x1F LT PUSH2 0x1AD7 JUMPI DUP1 MLOAD PUSH1 0xFF NOT AND DUP4 DUP1 ADD OR DUP6 SSTORE PUSH2 0x1B05 JUMP JUMPDEST DUP3 DUP1 ADD PUSH1 0x1 ADD DUP6 SSTORE DUP3 ISZERO PUSH2 0x1B05 JUMPI SWAP2 DUP3 ADD JUMPDEST DUP3 DUP2 GT ISZERO PUSH2 0x1B04 JUMPI DUP3 MLOAD DUP3 SSTORE SWAP2 PUSH1 0x20 ADD SWAP2 SWAP1 PUSH1 0x1 ADD SWAP1 PUSH2 0x1AE9 JUMP JUMPDEST JUMPDEST POP SWAP1 POP PUSH2 0x1B12 SWAP2 SWAP1 PUSH2 0x1B16 JUMP JUMPDEST POP SWAP1 JUMP JUMPDEST JUMPDEST DUP1 DUP3 GT ISZERO PUSH2 0x1B2F JUMPI PUSH1 0x0 DUP2 PUSH1 0x0 SWAP1 SSTORE POP PUSH1 0x1 ADD PUSH2 0x1B17 JUMP JUMPDEST POP SWAP1 JUMP JUMPDEST PUSH1 0x0 PUSH2 0x1B46 PUSH2 0x1B41 DUP5 PUSH2 0x240C JUMP JUMPDEST PUSH2 0x23E7 JUMP JUMPDEST SWAP1 POP DUP3 DUP2 MSTORE PUSH1 0x20 DUP2 ADD DUP5 DUP5 DUP5 ADD GT ISZERO PUSH2 0x1B62 JUMPI PUSH2 0x1B61 PUSH2 0x272C JUMP JUMPDEST JUMPDEST PUSH2 0x1B6D DUP5 DUP3 DUP6 PUSH2 0x25A4 JUMP JUMPDEST POP SWAP4 SWAP3 POP POP POP JUMP JUMPDEST PUSH1 0x0 PUSH2 0x1B88 PUSH2 0x1B83 DUP5 PUSH2 0x243D JUMP JUMPDEST PUSH2 0x23E7 JUMP JUMPDEST SWAP1 POP DUP3 DUP2 MSTORE PUSH1 0x20 DUP2 ADD DUP5 DUP5 DUP5 ADD GT ISZERO PUSH2 0x1BA4 JUMPI PUSH2 0x1BA3 PUSH2 0x272C JUMP JUMPDEST JUMPDEST PUSH2 0x1BAF DUP5 DUP3 DUP6 PUSH2 0x25A4 JUMP JUMPDEST POP SWAP4 SWAP3 POP POP POP JUMP JUMPDEST PUSH1 0x0 DUP2 CALLDATALOAD SWAP1 POP PUSH2 0x1BC6 DUP2 PUSH2 0x2A50 JUMP JUMPDEST SWAP3 SWAP2 POP POP JUMP JUMPDEST PUSH1 0x0 DUP2 CALLDATALOAD SWAP1 POP PUSH2 0x1BDB DUP2 PUSH2 0x2A67 JUMP JUMPDEST SWAP3 SWAP2 POP POP JUMP JUMPDEST PUSH1 0x0 DUP2 CALLDATALOAD SWAP1 POP PUSH2 0x1BF0 DUP2 PUSH2 0x2A7E JUMP JUMPDEST SWAP3 SWAP2 POP POP JUMP JUMPDEST PUSH1 0x0 DUP2 MLOAD SWAP1 POP PUSH2 0x1C05 DUP2 PUSH2 0x2A7E JUMP JUMPDEST SWAP3 SWAP2 POP POP JUMP JUMPDEST PUSH1 0x0 DUP3 PUSH1 0x1F DUP4 ADD SLT PUSH2 0x1C20 JUMPI PUSH2 0x1C1F PUSH2 0x2727 JUMP JUMPDEST JUMPDEST DUP2 CALLDATALOAD PUSH2 0x1C30 DUP5 DUP3 PUSH1 0x20 DUP7 ADD PUSH2 0x1B33 JUMP JUMPDEST SWAP2 POP POP SWAP3 SWAP2 POP POP JUMP JUMPDEST PUSH1 0x0 DUP3 PUSH1 0x1F DUP4 ADD SLT PUSH2 0x1C4E JUMPI PUSH2 0x1C4D PUSH2 0x2727 JUMP JUMPDEST JUMPDEST DUP2 CALLDATALOAD PUSH2 0x1C5E DUP5 DUP3 PUSH1 0x20 DUP7 ADD PUSH2 0x1B75 JUMP JUMPDEST SWAP2 POP POP SWAP3 SWAP2 POP POP JUMP JUMPDEST PUSH1 0x0 DUP2 CALLDATALOAD SWAP1 POP PUSH2 0x1C76 DUP2 PUSH2 0x2A95 JUMP JUMPDEST SWAP3 SWAP2 POP POP JUMP JUMPDEST PUSH1 0x0 PUSH1 0x20 DUP3 DUP5 SUB SLT ISZERO PUSH2 0x1C92 JUMPI PUSH2 0x1C91 PUSH2 0x2736 JUMP JUMPDEST JUMPDEST PUSH1 0x0 PUSH2 0x1CA0 DUP5 DUP3 DUP6 ADD PUSH2 0x1BB7 JUMP JUMPDEST SWAP2 POP POP SWAP3 SWAP2 POP POP JUMP JUMPDEST PUSH1 0x0 DUP1 PUSH1 0x40 DUP4 DUP6 SUB SLT ISZERO PUSH2 0x1CC0 JUMPI PUSH2 0x1CBF PUSH2 0x2736 JUMP JUMPDEST JUMPDEST PUSH1 0x0 PUSH2 0x1CCE DUP6 DUP3 DUP7 ADD PUSH2 0x1BB7 JUMP JUMPDEST SWAP3 POP POP PUSH1 0x20 PUSH2 0x1CDF DUP6 DUP3 DUP7 ADD PUSH2 0x1BB7 JUMP JUMPDEST SWAP2 POP POP SWAP3 POP SWAP3 SWAP1 POP JUMP JUMPDEST PUSH1 0x0 DUP1 PUSH1 0x0 PUSH1 0x60 DUP5 DUP7 SUB SLT ISZERO PUSH2 0x1D02 JUMPI PUSH2 0x1D01 PUSH2 0x2736 JUMP JUMPDEST JUMPDEST PUSH1 0x0 PUSH2 0x1D10 DUP7 DUP3 DUP8 ADD PUSH2 0x1BB7 JUMP JUMPDEST SWAP4 POP POP PUSH1 0x20 PUSH2 0x1D21 DUP7 DUP3 DUP8 ADD PUSH2 0x1BB7 JUMP JUMPDEST SWAP3 POP POP PUSH1 0x40 PUSH2 0x1D32 DUP7 DUP3 DUP8 ADD PUSH2 0x1C67 JUMP JUMPDEST SWAP2 POP POP SWAP3 POP SWAP3 POP SWAP3 JUMP JUMPDEST PUSH1 0x0 DUP1 PUSH1 0x0 DUP1 PUSH1 0x80 DUP6 DUP8 SUB SLT ISZERO PUSH2 0x1D56 JUMPI PUSH2 0x1D55 PUSH2 0x2736 JUMP JUMPDEST JUMPDEST PUSH1 0x0 PUSH2 0x1D64 DUP8 DUP3 DUP9 ADD PUSH2 0x1BB7 JUMP JUMPDEST SWAP5 POP POP PUSH1 0x20 PUSH2 0x1D75 DUP8 DUP3 DUP9 ADD PUSH2 0x1BB7 JUMP JUMPDEST SWAP4 POP POP PUSH1 0x40 PUSH2 0x1D86 DUP8 DUP3 DUP9 ADD PUSH2 0x1C67 JUMP JUMPDEST SWAP3 POP POP PUSH1 0x60 DUP6 ADD CALLDATALOAD PUSH8 0xFFFFFFFFFFFFFFFF DUP2 GT ISZERO PUSH2 0x1DA7 JUMPI PUSH2 0x1DA6 PUSH2 0x2731 JUMP JUMPDEST JUMPDEST PUSH2 0x1DB3 DUP8 DUP3 DUP9 ADD PUSH2 0x1C0B JUMP JUMPDEST SWAP2 POP POP SWAP3 SWAP6 SWAP2 SWAP5 POP SWAP3 POP JUMP JUMPDEST PUSH1 0x0 DUP1 PUSH1 0x40 DUP4 DUP6 SUB SLT ISZERO PUSH2 0x1DD6 JUMPI PUSH2 0x1DD5 PUSH2 0x2736 JUMP JUMPDEST JUMPDEST PUSH1 0x0 PUSH2 0x1DE4 DUP6 DUP3 DUP7 ADD PUSH2 0x1BB7 JUMP JUMPDEST SWAP3 POP POP PUSH1 0x20 PUSH2 0x1DF5 DUP6 DUP3 DUP7 ADD PUSH2 0x1BCC JUMP JUMPDEST SWAP2 POP POP SWAP3 POP SWAP3 SWAP1 POP JUMP JUMPDEST PUSH1 0x0 DUP1 PUSH1 0x40 DUP4 DUP6 SUB SLT ISZERO PUSH2 0x1E16 JUMPI PUSH2 0x1E15 PUSH2 0x2736 JUMP JUMPDEST JUMPDEST PUSH1 0x0 PUSH2 0x1E24 DUP6 DUP3 DUP7 ADD PUSH2 0x1BB7 JUMP JUMPDEST SWAP3 POP POP PUSH1 0x20 PUSH2 0x1E35 DUP6 DUP3 DUP7 ADD PUSH2 0x1C67 JUMP JUMPDEST SWAP2 POP POP SWAP3 POP SWAP3 SWAP1 POP JUMP JUMPDEST PUSH1 0x0 PUSH1 0x20 DUP3 DUP5 SUB SLT ISZERO PUSH2 0x1E55 JUMPI PUSH2 0x1E54 PUSH2 0x2736 JUMP JUMPDEST JUMPDEST PUSH1 0x0 PUSH2 0x1E63 DUP5 DUP3 DUP6 ADD PUSH2 0x1BE1 JUMP JUMPDEST SWAP2 POP POP SWAP3 SWAP2 POP POP JUMP JUMPDEST PUSH1 0x0 PUSH1 0x20 DUP3 DUP5 SUB SLT ISZERO PUSH2 0x1E82 JUMPI PUSH2 0x1E81 PUSH2 0x2736 JUMP JUMPDEST JUMPDEST PUSH1 0x0 PUSH2 0x1E90 DUP5 DUP3 DUP6 ADD PUSH2 0x1BF6 JUMP JUMPDEST SWAP2 POP POP SWAP3 SWAP2 POP POP JUMP JUMPDEST PUSH1 0x0 PUSH1 0x20 DUP3 DUP5 SUB SLT ISZERO PUSH2 0x1EAF JUMPI PUSH2 0x1EAE PUSH2 0x2736 JUMP JUMPDEST JUMPDEST PUSH1 0x0 PUSH2 0x1EBD DUP5 DUP3 DUP6 ADD PUSH2 0x1C67 JUMP JUMPDEST SWAP2 POP POP SWAP3 SWAP2 POP POP JUMP JUMPDEST PUSH1 0x0 DUP1 PUSH1 0x40 DUP4 DUP6 SUB SLT ISZERO PUSH2 0x1EDD JUMPI PUSH2 0x1EDC PUSH2 0x2736 JUMP JUMPDEST JUMPDEST PUSH1 0x0 PUSH2 0x1EEB DUP6 DUP3 DUP7 ADD PUSH2 0x1C67 JUMP JUMPDEST SWAP3 POP POP PUSH1 0x20 DUP4 ADD CALLDATALOAD PUSH8 0xFFFFFFFFFFFFFFFF DUP2 GT ISZERO PUSH2 0x1F0C JUMPI PUSH2 0x1F0B PUSH2 0x2731 JUMP JUMPDEST JUMPDEST PUSH2 0x1F18 DUP6 DUP3 DUP7 ADD PUSH2 0x1C39 JUMP JUMPDEST SWAP2 POP POP SWAP3 POP SWAP3 SWAP1 POP JUMP JUMPDEST PUSH2 0x1F2B DUP2 PUSH2 0x2530 JUMP JUMPDEST DUP3 MSTORE POP POP JUMP JUMPDEST PUSH2 0x1F3A DUP2 PUSH2 0x2542 JUMP JUMPDEST DUP3 MSTORE POP POP JUMP JUMPDEST PUSH1 0x0 PUSH2 0x1F4B DUP3 PUSH2 0x246E JUMP JUMPDEST PUSH2 0x1F55 DUP2 DUP6 PUSH2 0x2484 JUMP JUMPDEST SWAP4 POP PUSH2 0x1F65 DUP2 DUP6 PUSH1 0x20 DUP7 ADD PUSH2 0x25B3 JUMP JUMPDEST PUSH2 0x1F6E DUP2 PUSH2 0x273B JUMP JUMPDEST DUP5 ADD SWAP2 POP POP SWAP3 SWAP2 POP POP JUMP JUMPDEST PUSH1 0x0 PUSH2 0x1F84 DUP3 PUSH2 0x2479 JUMP JUMPDEST PUSH2 0x1F8E DUP2 DUP6 PUSH2 0x2495 JUMP JUMPDEST SWAP4 POP PUSH2 0x1F9E DUP2 DUP6 PUSH1 0x20 DUP7 ADD PUSH2 0x25B3 JUMP JUMPDEST PUSH2 0x1FA7 DUP2 PUSH2 0x273B JUMP JUMPDEST DUP5 ADD SWAP2 POP POP SWAP3 SWAP2 POP POP JUMP JUMPDEST PUSH1 0x0 PUSH2 0x1FBF PUSH1 0x1A DUP4 PUSH2 0x2495 JUMP JUMPDEST SWAP2 POP PUSH2 0x1FCA DUP3 PUSH2 0x2759 JUMP JUMPDEST PUSH1 0x20 DUP3 ADD SWAP1 POP SWAP2 SWAP1 POP JUMP JUMPDEST PUSH1 0x0 PUSH2 0x1FE2 PUSH1 0x1F DUP4 PUSH2 0x2495 JUMP JUMPDEST SWAP2 POP PUSH2 0x1FED DUP3 PUSH2 0x2782 JUMP JUMPDEST PUSH1 0x20 DUP3 ADD SWAP1 POP SWAP2 SWAP1 POP JUMP JUMPDEST PUSH1 0x0 PUSH2 0x2005 PUSH1 0x15 DUP4 PUSH2 0x2495 JUMP JUMPDEST SWAP2 POP PUSH2 0x2010 DUP3 PUSH2 0x27AB JUMP JUMPDEST PUSH1 0x20 DUP3 ADD SWAP1 POP SWAP2 SWAP1 POP JUMP JUMPDEST PUSH1 0x0 PUSH2 0x2028 PUSH1 0x14 DUP4 PUSH2 0x2495 JUMP JUMPDEST SWAP2 POP PUSH2 0x2033 DUP3 PUSH2 0x27D4 JUMP JUMPDEST PUSH1 0x20 DUP3 ADD SWAP1 POP SWAP2 SWAP1 POP JUMP JUMPDEST PUSH1 0x0 PUSH2 0x204B PUSH1 0x2A DUP4 PUSH2 0x2495 JUMP JUMPDEST SWAP2 POP PUSH2 0x2056 DUP3 PUSH2 0x27FD JUMP JUMPDEST PUSH1 0x40 DUP3 ADD SWAP1 POP SWAP2 SWAP1 POP JUMP JUMPDEST PUSH1 0x0 PUSH2 0x206E PUSH1 0x2D DUP4 PUSH2 0x2495 JUMP JUMPDEST SWAP2 POP PUSH2 0x2079 DUP3 PUSH2 0x284C JUMP JUMPDEST PUSH1 0x40 DUP3 ADD SWAP1 POP SWAP2 SWAP1 POP JUMP JUMPDEST PUSH1 0x0 PUSH2 0x2091 PUSH1 0x18 DUP4 PUSH2 0x2495 JUMP JUMPDEST SWAP2 POP PUSH2 0x209C DUP3 PUSH2 0x289B JUMP JUMPDEST PUSH1 0x20 DUP3 ADD SWAP1 POP SWAP2 SWAP1 POP JUMP JUMPDEST PUSH1 0x0 PUSH2 0x20B4 PUSH1 0xD DUP4 PUSH2 0x2495 JUMP JUMPDEST SWAP2 POP PUSH2 0x20BF DUP3 PUSH2 0x28C4 JUMP JUMPDEST PUSH1 0x20 DUP3 ADD SWAP1 POP SWAP2 SWAP1 POP JUMP JUMPDEST PUSH1 0x0 PUSH2 0x20D7 PUSH1 0x20 DUP4 PUSH2 0x2495 JUMP JUMPDEST SWAP2 POP PUSH2 0x20E2 DUP3 PUSH2 0x28ED JUMP JUMPDEST PUSH1 0x20 DUP3 ADD SWAP1 POP SWAP2 SWAP1 POP JUMP JUMPDEST PUSH1 0x0 PUSH2 0x20FA PUSH1 0x18 DUP4 PUSH2 0x2495 JUMP JUMPDEST SWAP2 POP PUSH2 0x2105 DUP3 PUSH2 0x2916 JUMP JUMPDEST PUSH1 0x20 DUP3 ADD SWAP1 POP SWAP2 SWAP1 POP JUMP JUMPDEST PUSH1 0x0 PUSH2 0x211D PUSH1 0x14 DUP4 PUSH2 0x2495 JUMP JUMPDEST SWAP2 POP PUSH2 0x2128 DUP3 PUSH2 0x293F JUMP JUMPDEST PUSH1 0x20 DUP3 ADD SWAP1 POP SWAP2 SWAP1 POP JUMP JUMPDEST PUSH1 0x0 PUSH2 0x2140 PUSH1 0x13 DUP4 PUSH2 0x2495 JUMP JUMPDEST SWAP2 POP PUSH2 0x214B DUP3 PUSH2 0x2968 JUMP JUMPDEST PUSH1 0x20 DUP3 ADD SWAP1 POP SWAP2 SWAP1 POP JUMP JUMPDEST PUSH1 0x0 PUSH2 0x2163 PUSH1 0x13 DUP4 PUSH2 0x2495 JUMP JUMPDEST SWAP2 POP PUSH2 0x216E DUP3 PUSH2 0x2991 JUMP JUMPDEST PUSH1 0x20 DUP3 ADD SWAP1 POP SWAP2 SWAP1 POP JUMP JUMPDEST PUSH2 0x2182 DUP2 PUSH2 0x259A JUMP JUMPDEST DUP3 MSTORE POP POP JUMP JUMPDEST PUSH1 0x0 PUSH1 0x20 DUP3 ADD SWAP1 POP PUSH2 0x219D PUSH1 0x0 DUP4 ADD DUP5 PUSH2 0x1F22 JUMP JUMPDEST SWAP3 SWAP2 POP POP JUMP JUMPDEST PUSH1 0x0 PUSH1 0x80 DUP3 ADD SWAP1 POP PUSH2 0x21B8 PUSH1 0x0 DUP4 ADD DUP8 PUSH2 0x1F22 JUMP JUMPDEST PUSH2 0x21C5 PUSH1 0x20 DUP4 ADD DUP7 PUSH2 0x1F22 JUMP JUMPDEST PUSH2 0x21D2 PUSH1 0x40 DUP4 ADD DUP6 PUSH2 0x2179 JUMP JUMPDEST DUP2 DUP2 SUB PUSH1 0x60 DUP4 ADD MSTORE PUSH2 0x21E4 DUP2 DUP5 PUSH2 0x1F40 JUMP JUMPDEST SWAP1 POP SWAP6 SWAP5 POP POP POP POP POP JUMP JUMPDEST PUSH1 0x0 PUSH1 0x20 DUP3 ADD SWAP1 POP PUSH2 0x2204 PUSH1 0x0 DUP4 ADD DUP5 PUSH2 0x1F31 JUMP JUMPDEST SWAP3 SWAP2 POP POP JUMP JUMPDEST PUSH1 0x0 PUSH1 0x20 DUP3 ADD SWAP1 POP DUP2 DUP2 SUB PUSH1 0x0 DUP4 ADD MSTORE PUSH2 0x2224 DUP2 DUP5 PUSH2 0x1F79 JUMP JUMPDEST SWAP1 POP SWAP3 SWAP2 POP POP JUMP JUMPDEST PUSH1 0x0 PUSH1 0x20 DUP3 ADD SWAP1 POP DUP2 DUP2 SUB PUSH1 0x0 DUP4 ADD MSTORE PUSH2 0x2245 DUP2 PUSH2 0x1FB2 JUMP JUMPDEST SWAP1 POP SWAP2 SWAP1 POP JUMP JUMPDEST PUSH1 0x0 PUSH1 0x20 DUP3 ADD SWAP1 POP DUP2 DUP2 SUB PUSH1 0x0 DUP4 ADD MSTORE PUSH2 0x2265 DUP2 PUSH2 0x1FD5 JUMP JUMPDEST SWAP1 POP SWAP2 SWAP1 POP JUMP JUMPDEST PUSH1 0x0 PUSH1 0x20 DUP3 ADD SWAP1 POP DUP2 DUP2 SUB PUSH1 0x0 DUP4 ADD MSTORE PUSH2 0x2285 DUP2 PUSH2 0x1FF8 JUMP JUMPDEST SWAP1 POP SWAP2 SWAP1 POP JUMP JUMPDEST PUSH1 0x0 PUSH1 0x20 DUP3 ADD SWAP1 POP DUP2 DUP2 SUB PUSH1 0x0 DUP4 ADD MSTORE PUSH2 0x22A5 DUP2 PUSH2 0x201B JUMP JUMPDEST SWAP1 POP SWAP2 SWAP1 POP JUMP JUMPDEST PUSH1 0x0 PUSH1 0x20 DUP3 ADD SWAP1 POP DUP2 DUP2 SUB PUSH1 0x0 DUP4 ADD MSTORE PUSH2 0x22C5 DUP2 PUSH2 0x203E JUMP JUMPDEST SWAP1 POP SWAP2 SWAP1 POP JUMP JUMPDEST PUSH1 0x0 PUSH1 0x20 DUP3 ADD SWAP1 POP DUP2 DUP2 SUB PUSH1 0x0 DUP4 ADD MSTORE PUSH2 0x22E5 DUP2 PUSH2 0x2061 JUMP JUMPDEST SWAP1 POP SWAP2 SWAP1 POP JUMP JUMPDEST PUSH1 0x0 PUSH1 0x20 DUP3 ADD SWAP1 POP DUP2 DUP2 SUB PUSH1 0x0 DUP4 ADD MSTORE PUSH2 0x2305 DUP2 PUSH2 0x2084 JUMP JUMPDEST SWAP1 POP SWAP2 SWAP1 POP JUMP JUMPDEST PUSH1 0x0 PUSH1 0x20 DUP3 ADD SWAP1 POP DUP2 DUP2 SUB PUSH1 0x0 DUP4 ADD MSTORE PUSH2 0x2325 DUP2 PUSH2 0x20A7 JUMP JUMPDEST SWAP1 POP SWAP2 SWAP1 POP JUMP JUMPDEST PUSH1 0x0 PUSH1 0x20 DUP3 ADD SWAP1 POP DUP2 DUP2 SUB PUSH1 0x0 DUP4 ADD MSTORE PUSH2 0x2345 DUP2 PUSH2 0x20CA JUMP JUMPDEST SWAP1 POP SWAP2 SWAP1 POP JUMP JUMPDEST PUSH1 0x0 PUSH1 0x20 DUP3 ADD SWAP1 POP DUP2 DUP2 SUB PUSH1 0x0 DUP4 ADD MSTORE PUSH2 0x2365 DUP2 PUSH2 0x20ED JUMP JUMPDEST SWAP1 POP SWAP2 SWAP1 POP JUMP JUMPDEST PUSH1 0x0 PUSH1 0x20 DUP3 ADD SWAP1 POP DUP2 DUP2 SUB PUSH1 0x0 DUP4 ADD MSTORE PUSH2 0x2385 DUP2 PUSH2 0x2110 JUMP JUMPDEST SWAP1 POP SWAP2 SWAP1 POP JUMP JUMPDEST PUSH1 0x0 PUSH1 0x20 DUP3 ADD SWAP1 POP DUP2 DUP2 SUB PUSH1 0x0 DUP4 ADD MSTORE PUSH2 0x23A5 DUP2 PUSH2 0x2133 JUMP JUMPDEST SWAP1 POP SWAP2 SWAP1 POP JUMP JUMPDEST PUSH1 0x0 PUSH1 0x20 DUP3 ADD SWAP1 POP DUP2 DUP2 SUB PUSH1 0x0 DUP4 ADD MSTORE PUSH2 0x23C5 DUP2 PUSH2 0x2156 JUMP JUMPDEST SWAP1 POP SWAP2 SWAP1 POP JUMP JUMPDEST PUSH1 0x0 PUSH1 0x20 DUP3 ADD SWAP1 POP PUSH2 0x23E1 PUSH1 0x0 DUP4 ADD DUP5 PUSH2 0x2179 JUMP JUMPDEST SWAP3 SWAP2 POP POP JUMP JUMPDEST PUSH1 0x0 PUSH2 0x23F1 PUSH2 0x2402 JUMP JUMPDEST SWAP1 POP PUSH2 0x23FD DUP3 DUP3 PUSH2 0x2618 JUMP JUMPDEST SWAP2 SWAP1 POP JUMP JUMPDEST PUSH1 0x0 PUSH1 0x40 MLOAD SWAP1 POP SWAP1 JUMP JUMPDEST PUSH1 0x0 PUSH8 0xFFFFFFFFFFFFFFFF DUP3 GT ISZERO PUSH2 0x2427 JUMPI PUSH2 0x2426 PUSH2 0x26D6 JUMP JUMPDEST JUMPDEST PUSH2 0x2430 DUP3 PUSH2 0x273B JUMP JUMPDEST SWAP1 POP PUSH1 0x20 DUP2 ADD SWAP1 POP SWAP2 SWAP1 POP JUMP JUMPDEST PUSH1 0x0 PUSH8 0xFFFFFFFFFFFFFFFF DUP3 GT ISZERO PUSH2 0x2458 JUMPI PUSH2 0x2457 PUSH2 0x26D6 JUMP JUMPDEST JUMPDEST PUSH2 0x2461 DUP3 PUSH2 0x273B JUMP JUMPDEST SWAP1 POP PUSH1 0x20 DUP2 ADD SWAP1 POP SWAP2 SWAP1 POP JUMP JUMPDEST PUSH1 0x0 DUP2 MLOAD SWAP1 POP SWAP2 SWAP1 POP JUMP JUMPDEST PUSH1 0x0 DUP2 MLOAD SWAP1 POP SWAP2 SWAP1 POP JUMP JUMPDEST PUSH1 0x0 DUP3 DUP3 MSTORE PUSH1 0x20 DUP3 ADD SWAP1 POP SWAP3 SWAP2 POP POP JUMP JUMPDEST PUSH1 0x0 DUP3 DUP3 MSTORE PUSH1 0x20 DUP3 ADD SWAP1 POP SWAP3 SWAP2 POP POP JUMP JUMPDEST PUSH1 0x0 PUSH2 0x24B1 DUP3 PUSH2 0x259A JUMP JUMPDEST SWAP2 POP PUSH2 0x24BC DUP4 PUSH2 0x259A JUMP JUMPDEST SWAP3 POP DUP3 PUSH32 0xFFFFFFFFFFFFFFFFFFFFFFFFFFFFFFFFFFFFFFFFFFFFFFFFFFFFFFFFFFFFFFFF SUB DUP3 GT ISZERO PUSH2 0x24F1 JUMPI PUSH2 0x24F0 PUSH2 0x2649 JUMP JUMPDEST JUMPDEST DUP3 DUP3 ADD SWAP1 POP SWAP3 SWAP2 POP POP JUMP JUMPDEST PUSH1 0x0 PUSH2 0x2507 DUP3 PUSH2 0x259A JUMP JUMPDEST SWAP2 POP PUSH2 0x2512 DUP4 PUSH2 0x259A JUMP JUMPDEST SWAP3 POP DUP3 DUP3 LT ISZERO PUSH2 0x2525 JUMPI PUSH2 0x2524 PUSH2 0x2649 JUMP JUMPDEST JUMPDEST DUP3 DUP3 SUB SWAP1 POP SWAP3 SWAP2 POP POP JUMP JUMPDEST PUSH1 0x0 PUSH2 0x253B DUP3 PUSH2 0x257A JUMP JUMPDEST SWAP1 POP SWAP2 SWAP1 POP JUMP JUMPDEST PUSH1 0x0 DUP2 ISZERO ISZERO SWAP1 POP SWAP2 SWAP1 POP JUMP JUMPDEST PUSH1 0x0 PUSH32 0xFFFFFFFF00000000000000000000000000000000000000000000000000000000 DUP3 AND SWAP1 POP SWAP2 SWAP1 POP JUMP JUMPDEST PUSH1 0x0 PUSH20 0xFFFFFFFFFFFFFFFFFFFFFFFFFFFFFFFFFFFFFFFF DUP3 AND SWAP1 POP SWAP2 SWAP1 POP JUMP JUMPDEST PUSH1 0x0 DUP2 SWAP1 POP SWAP2 SWAP1 POP JUMP JUMPDEST DUP3 DUP2 DUP4 CALLDATACOPY PUSH1 0x0 DUP4 DUP4 ADD MSTORE POP POP POP JUMP JUMPDEST PUSH1 0x0 JUMPDEST DUP4 DUP2 LT ISZERO PUSH2 0x25D1 JUMPI DUP1 DUP3 ADD MLOAD DUP2 DUP5 ADD MSTORE PUSH1 0x20 DUP2 ADD SWAP1 POP PUSH2 0x25B6 JUMP JUMPDEST DUP4 DUP2 GT ISZERO PUSH2 0x25E0 JUMPI PUSH1 0x0 DUP5 DUP5 ADD MSTORE JUMPDEST POP POP POP POP JUMP JUMPDEST PUSH1 0x0 PUSH1 0x2 DUP3 DIV SWAP1 POP PUSH1 0x1 DUP3 AND DUP1 PUSH2 0x25FE JUMPI PUSH1 0x7F DUP3 AND SWAP2 POP JUMPDEST PUSH1 0x20 DUP3 LT DUP2 EQ ISZERO PUSH2 0x2612 JUMPI PUSH2 0x2611 PUSH2 0x2678 JUMP JUMPDEST JUMPDEST POP SWAP2 SWAP1 POP JUMP JUMPDEST PUSH2 0x2621 DUP3 PUSH2 0x273B JUMP JUMPDEST DUP2 ADD DUP2 DUP2 LT PUSH8 0xFFFFFFFFFFFFFFFF DUP3 GT OR ISZERO PUSH2 0x2640 JUMPI PUSH2 0x263F PUSH2 0x26D6 JUMP JUMPDEST JUMPDEST DUP1 PUSH1 0x40 MSTORE POP POP POP JUMP JUMPDEST PUSH32 0x4E487B7100000000000000000000000000000000000000000000000000000000 PUSH1 0x0 MSTORE PUSH1 0x11 PUSH1 0x4 MSTORE PUSH1 0x24 PUSH1 0x0 REVERT JUMPDEST PUSH32 0x4E487B7100000000000000000000000000000000000000000000000000000000 PUSH1 0x0 MSTORE PUSH1 0x22 PUSH1 0x4 MSTORE PUSH1 0x24 PUSH1 0x0 REVERT JUMPDEST PUSH32 0x4E487B7100000000000000000000000000000000000000000000000000000000 PUSH1 0x0 MSTORE PUSH1 0x32 PUSH1 0x4 MSTORE PUSH1 0x24 PUSH1 0x0 REVERT JUMPDEST PUSH32 0x4E487B7100000000000000000000000000000000000000000000000000000000 PUSH1 0x0 MSTORE PUSH1 0x41 PUSH1 0x4 MSTORE PUSH1 0x24 PUSH1 0x0 REVERT JUMPDEST PUSH1 0x0 PUSH1 0x3 RETURNDATASIZE GT ISZERO PUSH2 0x2724 JUMPI PUSH1 0x4 PUSH1 0x0 DUP1 RETURNDATACOPY PUSH2 0x2721 PUSH1 0x0 MLOAD PUSH2 0x274C JUMP JUMPDEST SWAP1 POP JUMPDEST SWAP1 JUMP JUMPDEST PUSH1 0x0 DUP1 REVERT JUMPDEST PUSH1 0x0 DUP1 REVERT JUMPDEST PUSH1 0x0 DUP1 REVERT JUMPDEST PUSH1 0x0 DUP1 REVERT JUMPDEST PUSH1 0x0 PUSH1 0x1F NOT PUSH1 0x1F DUP4 ADD AND SWAP1 POP SWAP2 SWAP1 POP JUMP JUMPDEST PUSH1 0x0 DUP2 PUSH1 0xE0 SHR SWAP1 POP SWAP2 SWAP1 POP JUMP JUMPDEST PUSH32 0x7472616E736665722066726F6D207A65726F2061646472657373000000000000 PUSH1 0x0 DUP3 ADD MSTORE POP JUMP JUMPDEST PUSH32 0x63616C6C6572206973206E6F74206F776E6572206F7220617070726F76616C00 PUSH1 0x0 DUP3 ADD MSTORE POP JUMP JUMPDEST PUSH32 0x6F776E6572206973207A65726F20616464726573730000000000000000000000 PUSH1 0x0 DUP3 ADD MSTORE POP JUMP JUMPDEST PUSH32 0x6D696E7420746F207A65726F2061646472657373000000000000000000000000 PUSH1 0x0 DUP3 ADD MSTORE POP JUMP JUMPDEST PUSH32 0x7472616E7366657220746F206E6F6E2045524337323152656365697665722069 PUSH1 0x0 DUP3 ADD MSTORE PUSH32 0x6D706C656D656E74657200000000000000000000000000000000000000000000 PUSH1 0x20 DUP3 ADD MSTORE POP JUMP JUMPDEST PUSH32 0x63616C6C6572206973206E6F7420746F6B656E206F776E6572206F7220617070 PUSH1 0x0 DUP3 ADD MSTORE PUSH32 0x726F76616C20666F7220616C6C00000000000000000000000000000000000000 PUSH1 0x20 DUP3 ADD MSTORE POP JUMP JUMPDEST PUSH32 0x7472616E7366657220746F207A65726F20616464726573730000000000000000 PUSH1 0x0 DUP3 ADD MSTORE POP JUMP JUMPDEST PUSH32 0x556E617574686F72697A65642E00000000000000000000000000000000000000 PUSH1 0x0 DUP3 ADD MSTORE POP JUMP JUMPDEST PUSH32 0x7472616E736665722066726F6D206973206E6F7420746F6B656E206F776E6572 PUSH1 0x0 DUP3 ADD MSTORE POP JUMP JUMPDEST PUSH32 0x617070726F76616C2073746174757320666F722073656C660000000000000000 PUSH1 0x0 DUP3 ADD MSTORE POP JUMP JUMPDEST PUSH32 0x746F6B656E20616C7265616479206D696E746564000000000000000000000000 PUSH1 0x0 DUP3 ADD MSTORE POP JUMP JUMPDEST PUSH32 0x746F6B656E206973206E6F742065786973747300000000000000000000000000 PUSH1 0x0 DUP3 ADD MSTORE POP JUMP JUMPDEST PUSH32 0x696E646578206F7574206F6620626F756E647300000000000000000000000000 PUSH1 0x0 DUP3 ADD MSTORE POP JUMP JUMPDEST PUSH1 0x0 PUSH1 0x44 RETURNDATASIZE LT ISZERO PUSH2 0x29CA JUMPI PUSH2 0x2A4D JUMP JUMPDEST PUSH2 0x29D2 PUSH2 0x2402 JUMP JUMPDEST PUSH1 0x4 RETURNDATASIZE SUB PUSH1 0x4 DUP3 RETURNDATACOPY DUP1 MLOAD RETURNDATASIZE PUSH1 0x24 DUP3 ADD GT PUSH8 0xFFFFFFFFFFFFFFFF DUP3 GT OR ISZERO PUSH2 0x29FA JUMPI POP POP PUSH2 0x2A4D JUMP JUMPDEST DUP1 DUP3 ADD DUP1 MLOAD PUSH8 0xFFFFFFFFFFFFFFFF DUP2 GT ISZERO PUSH2 0x2A18 JUMPI POP POP POP POP PUSH2 0x2A4D JUMP JUMPDEST DUP1 PUSH1 0x20 DUP4 ADD ADD PUSH1 0x4 RETURNDATASIZE SUB DUP6 ADD DUP2 GT ISZERO PUSH2 0x2A35 JUMPI POP POP POP POP POP PUSH2 0x2A4D JUMP JUMPDEST PUSH2 0x2A44 DUP3 PUSH1 0x20 ADD DUP6 ADD DUP7 PUSH2 0x2618 JUMP JUMPDEST DUP3 SWAP6 POP POP POP POP POP POP JUMPDEST SWAP1 JUMP JUMPDEST PUSH2 0x2A59 DUP2 PUSH2 0x2530 JUMP JUMPDEST DUP2 EQ PUSH2 0x2A64 JUMPI PUSH1 0x0 DUP1 REVERT JUMPDEST POP JUMP JUMPDEST PUSH2 0x2A70 DUP2 PUSH2 0x2542 JUMP JUMPDEST DUP2 EQ PUSH2 0x2A7B JUMPI PUSH1 0x0 DUP1 REVERT JUMPDEST POP JUMP JUMPDEST PUSH2 0x2A87 DUP2 PUSH2 0x254E JUMP JUMPDEST DUP2 EQ PUSH2 0x2A92 JUMPI PUSH1 0x0 DUP1 REVERT JUMPDEST POP JUMP JUMPDEST PUSH2 0x2A9E DUP2 PUSH2 0x259A JUMP JUMPDEST DUP2 EQ PUSH2 0x2AA9 JUMPI PUSH1 0x0 DUP1 REVERT JUMPDEST POP JUMP INVALID LOG2 PUSH5 0x6970667358 0x22 SLT KECCAK256 0xC1 SWAP4 SELFDESTRUCT 0x2D 0xF8 0x29 0xDD SWAP5 PUSH28 0xFDA6CFDDEED1D9187C8FD34EDA1D55FB74BD0728742A1B64736F6C63 NUMBER STOP ADDMOD SMOD STOP CALLER "
				},
				"gasEstimates": {
					"creation": {
						"codeDepositCost": "2195600",
						"executionCost": "infinite",
						"totalCost": "infinite"
					},
					"external": {
						"approve(address,uint256)": "infinite",
						"balanceOf(address)": "2968",
						"create(uint256,string)": "infinite",
						"getApproved(uint256)": "5207",
						"isApprovedForAll(address,address)": "infinite",
						"name()": "infinite",
						"ownerOf(uint256)": "3026",
						"safeTransferFrom(address,address,uint256)": "infinite",
						"safeTransferFrom(address,address,uint256,bytes)": "infinite",
						"setApprovalForAll(address,bool)": "infinite",
						"supportsInterface(bytes4)": "868",
						"symbol()": "infinite",
						"tokenByIndex(uint256)": "infinite",
						"tokenOfOwnerByIndex(address,uint256)": "infinite",
						"tokenURI(uint256)": "infinite",
						"totalSupply()": "2512",
						"transferFrom(address,address,uint256)": "infinite",
						"uri(uint256)": "infinite"
					}
				},
				"methodIdentifiers": {
					"approve(address,uint256)": "095ea7b3",
					"balanceOf(address)": "70a08231",
					"create(uint256,string)": "0118fa49",
					"getApproved(uint256)": "081812fc",
					"isApprovedForAll(address,address)": "e985e9c5",
					"name()": "06fdde03",
					"ownerOf(uint256)": "6352211e",
					"safeTransferFrom(address,address,uint256)": "42842e0e",
					"safeTransferFrom(address,address,uint256,bytes)": "b88d4fde",
					"setApprovalForAll(address,bool)": "a22cb465",
					"supportsInterface(bytes4)": "01ffc9a7",
					"symbol()": "95d89b41",
					"tokenByIndex(uint256)": "4f6ccce7",
					"tokenOfOwnerByIndex(address,uint256)": "2f745c59",
					"tokenURI(uint256)": "c87b56dd",
					"totalSupply()": "18160ddd",
					"transferFrom(address,address,uint256)": "23b872dd",
					"uri(uint256)": "0e89341c"
				}
			},
			"storageLayout": {
				"storage": [
					{
						"astId": 183,
						"contract": "ERC721.sol:MXRT",
						"label": "_balances",
						"offset": 0,
						"slot": "0",
						"type": "t_mapping(t_address,t_uint256)"
					},
					{
						"astId": 187,
						"contract": "ERC721.sol:MXRT",
						"label": "_owners",
						"offset": 0,
						"slot": "1",
						"type": "t_mapping(t_uint256,t_address)"
					},
					{
						"astId": 193,
						"contract": "ERC721.sol:MXRT",
						"label": "_operatorApprovals",
						"offset": 0,
						"slot": "2",
						"type": "t_mapping(t_address,t_mapping(t_address,t_bool))"
					},
					{
						"astId": 197,
						"contract": "ERC721.sol:MXRT",
						"label": "_tokenApprovals",
						"offset": 0,
						"slot": "3",
						"type": "t_mapping(t_uint256,t_address)"
					},
					{
						"astId": 199,
						"contract": "ERC721.sol:MXRT",
						"label": "_name",
						"offset": 0,
						"slot": "4",
						"type": "t_string_storage"
					},
					{
						"astId": 201,
						"contract": "ERC721.sol:MXRT",
						"label": "_symbol",
						"offset": 0,
						"slot": "5",
						"type": "t_string_storage"
					},
					{
						"astId": 205,
						"contract": "ERC721.sol:MXRT",
						"label": "_tokenURIs",
						"offset": 0,
						"slot": "6",
						"type": "t_mapping(t_uint256,t_string_storage)"
					},
					{
						"astId": 211,
						"contract": "ERC721.sol:MXRT",
						"label": "_ownedTokens",
						"offset": 0,
						"slot": "7",
						"type": "t_mapping(t_address,t_mapping(t_uint256,t_uint256))"
					},
					{
						"astId": 215,
						"contract": "ERC721.sol:MXRT",
						"label": "_ownedTokensIndex",
						"offset": 0,
						"slot": "8",
						"type": "t_mapping(t_uint256,t_uint256)"
					},
					{
						"astId": 218,
						"contract": "ERC721.sol:MXRT",
						"label": "_allTokens",
						"offset": 0,
						"slot": "9",
						"type": "t_array(t_uint256)dyn_storage"
					},
					{
						"astId": 222,
						"contract": "ERC721.sol:MXRT",
						"label": "_allTokensIndex",
						"offset": 0,
						"slot": "10",
						"type": "t_mapping(t_uint256,t_uint256)"
					},
					{
						"astId": 1144,
						"contract": "ERC721.sol:MXRT",
						"label": "_admin",
						"offset": 0,
						"slot": "11",
						"type": "t_address"
					}
				],
				"types": {
					"t_address": {
						"encoding": "inplace",
						"label": "address",
						"numberOfBytes": "20"
					},
					"t_array(t_uint256)dyn_storage": {
						"base": "t_uint256",
						"encoding": "dynamic_array",
						"label": "uint256[]",
						"numberOfBytes": "32"
					},
					"t_bool": {
						"encoding": "inplace",
						"label": "bool",
						"numberOfBytes": "1"
					},
					"t_mapping(t_address,t_bool)": {
						"encoding": "mapping",
						"key": "t_address",
						"label": "mapping(address => bool)",
						"numberOfBytes": "32",
						"value": "t_bool"
					},
					"t_mapping(t_address,t_mapping(t_address,t_bool))": {
						"encoding": "mapping",
						"key": "t_address",
						"label": "mapping(address => mapping(address => bool))",
						"numberOfBytes": "32",
						"value": "t_mapping(t_address,t_bool)"
					},
					"t_mapping(t_address,t_mapping(t_uint256,t_uint256))": {
						"encoding": "mapping",
						"key": "t_address",
						"label": "mapping(address => mapping(uint256 => uint256))",
						"numberOfBytes": "32",
						"value": "t_mapping(t_uint256,t_uint256)"
					},
					"t_mapping(t_address,t_uint256)": {
						"encoding": "mapping",
						"key": "t_address",
						"label": "mapping(address => uint256)",
						"numberOfBytes": "32",
						"value": "t_uint256"
					},
					"t_mapping(t_uint256,t_address)": {
						"encoding": "mapping",
						"key": "t_uint256",
						"label": "mapping(uint256 => address)",
						"numberOfBytes": "32",
						"value": "t_address"
					},
					"t_mapping(t_uint256,t_string_storage)": {
						"encoding": "mapping",
						"key": "t_uint256",
						"label": "mapping(uint256 => string)",
						"numberOfBytes": "32",
						"value": "t_string_storage"
					},
					"t_mapping(t_uint256,t_uint256)": {
						"encoding": "mapping",
						"key": "t_uint256",
						"label": "mapping(uint256 => uint256)",
						"numberOfBytes": "32",
						"value": "t_uint256"
					},
					"t_string_storage": {
						"encoding": "bytes",
						"label": "string",
						"numberOfBytes": "32"
					},
					"t_uint256": {
						"encoding": "inplace",
						"label": "uint256",
						"numberOfBytes": "32"
					}
				}
			},
			"userdoc": {
				"kind": "user",
				"methods": {},
				"version": 1
			}
		}
	}
}