{
	"ERC721.sol": {
		"ERC721": {
			"abi": [
				{
					"inputs": [
						{
							"internalType": "string",
							"name": "name_",
							"type": "string"
						},
						{
							"internalType": "string",
							"name": "symbol_",
							"type": "string"
						}
					],
					"stateMutability": "nonpayable",
					"type": "constructor"
				},
				{
					"anonymous": false,
					"inputs": [
						{
							"indexed": true,
							"internalType": "address",
							"name": "owner",
							"type": "address"
						},
						{
							"indexed": true,
							"internalType": "address",
							"name": "approved",
							"type": "address"
						},
						{
							"indexed": true,
							"internalType": "uint256",
							"name": "tokenId",
							"type": "uint256"
						}
					],
					"name": "Approval",
					"type": "event"
				},
				{
					"anonymous": false,
					"inputs": [
						{
							"indexed": true,
							"internalType": "address",
							"name": "owner",
							"type": "address"
						},
						{
							"indexed": true,
							"internalType": "address",
							"name": "operator",
							"type": "address"
						},
						{
							"indexed": false,
							"internalType": "bool",
							"name": "approved",
							"type": "bool"
						}
					],
					"name": "ApprovalForAll",
					"type": "event"
				},
				{
					"anonymous": false,
					"inputs": [
						{
							"indexed": true,
							"internalType": "address",
							"name": "from",
							"type": "address"
						},
						{
							"indexed": true,
							"internalType": "address",
							"name": "to",
							"type": "address"
						},
						{
							"indexed": true,
							"internalType": "uint256",
							"name": "tokenId",
							"type": "uint256"
						}
					],
					"name": "Transfer",
					"type": "event"
				},
				{
					"inputs": [
						{
							"internalType": "address",
							"name": "to",
							"type": "address"
						},
						{
							"internalType": "uint256",
							"name": "tokenId",
							"type": "uint256"
						}
					],
					"name": "approve",
					"outputs": [],
					"stateMutability": "nonpayable",
					"type": "function"
				},
				{
					"inputs": [
						{
							"internalType": "address",
							"name": "owner",
							"type": "address"
						}
					],
					"name": "balanceOf",
					"outputs": [
						{
							"internalType": "uint256",
							"name": "",
							"type": "uint256"
						}
					],
					"stateMutability": "view",
					"type": "function"
				},
				{
					"inputs": [
						{
							"internalType": "uint256",
							"name": "tokenId",
							"type": "uint256"
						}
					],
					"name": "getApproved",
					"outputs": [
						{
							"internalType": "address",
							"name": "",
							"type": "address"
						}
					],
					"stateMutability": "view",
					"type": "function"
				},
				{
					"inputs": [
						{
							"internalType": "address",
							"name": "owner",
							"type": "address"
						},
						{
							"internalType": "address",
							"name": "operator",
							"type": "address"
						}
					],
					"name": "isApprovedForAll",
					"outputs": [
						{
							"internalType": "bool",
							"name": "",
							"type": "bool"
						}
					],
					"stateMutability": "view",
					"type": "function"
				},
				{
					"inputs": [],
					"name": "name",
					"outputs": [
						{
							"internalType": "string",
							"name": "",
							"type": "string"
						}
					],
					"stateMutability": "view",
					"type": "function"
				},
				{
					"inputs": [
						{
							"internalType": "uint256",
							"name": "tokenId",
							"type": "uint256"
						}
					],
					"name": "ownerOf",
					"outputs": [
						{
							"internalType": "address",
							"name": "",
							"type": "address"
						}
					],
					"stateMutability": "view",
					"type": "function"
				},
				{
					"inputs": [
						{
							"internalType": "address",
							"name": "from",
							"type": "address"
						},
						{
							"internalType": "address",
							"name": "to",
							"type": "address"
						},
						{
							"internalType": "uint256",
							"name": "tokenId",
							"type": "uint256"
						}
					],
					"name": "safeTransferFrom",
					"outputs": [],
					"stateMutability": "nonpayable",
					"type": "function"
				},
				{
					"inputs": [
						{
							"internalType": "address",
							"name": "from",
							"type": "address"
						},
						{
							"internalType": "address",
							"name": "to",
							"type": "address"
						},
						{
							"internalType": "uint256",
							"name": "tokenId",
							"type": "uint256"
						},
						{
							"internalType": "bytes",
							"name": "data",
							"type": "bytes"
						}
					],
					"name": "safeTransferFrom",
					"outputs": [],
					"stateMutability": "nonpayable",
					"type": "function"
				},
				{
					"inputs": [
						{
							"internalType": "address",
							"name": "operator",
							"type": "address"
						},
						{
							"internalType": "bool",
							"name": "approved",
							"type": "bool"
						}
					],
					"name": "setApprovalForAll",
					"outputs": [],
					"stateMutability": "nonpayable",
					"type": "function"
				},
				{
					"inputs": [
						{
							"internalType": "bytes4",
							"name": "interfaceId",
							"type": "bytes4"
						}
					],
					"name": "supportsInterface",
					"outputs": [
						{
							"internalType": "bool",
							"name": "",
							"type": "bool"
						}
					],
					"stateMutability": "pure",
					"type": "function"
				},
				{
					"inputs": [],
					"name": "symbol",
					"outputs": [
						{
							"internalType": "string",
							"name": "",
							"type": "string"
						}
					],
					"stateMutability": "view",
					"type": "function"
				},
				{
					"inputs": [
						{
							"internalType": "uint256",
							"name": "index",
							"type": "uint256"
						}
					],
					"name": "tokenByIndex",
					"outputs": [
						{
							"internalType": "uint256",
							"name": "",
							"type": "uint256"
						}
					],
					"stateMutability": "view",
					"type": "function"
				},
				{
					"inputs": [
						{
							"internalType": "address",
							"name": "owner",
							"type": "address"
						},
						{
							"internalType": "uint256",
							"name": "index",
							"type": "uint256"
						}
					],
					"name": "tokenOfOwnerByIndex",
					"outputs": [
						{
							"internalType": "uint256",
							"name": "",
							"type": "uint256"
						}
					],
					"stateMutability": "view",
					"type": "function"
				},
				{
					"inputs": [
						{
							"internalType": "uint256",
							"name": "tokenId",
							"type": "uint256"
						}
					],
					"name": "tokenURI",
					"outputs": [
						{
							"internalType": "string",
							"name": "",
							"type": "string"
						}
					],
					"stateMutability": "view",
					"type": "function"
				},
				{
					"inputs": [],
					"name": "totalSupply",
					"outputs": [
						{
							"internalType": "uint256",
							"name": "",
							"type": "uint256"
						}
					],
					"stateMutability": "view",
					"type": "function"
				},
				{
					"inputs": [
						{
							"internalType": "address",
							"name": "from",
							"type": "address"
						},
						{
							"internalType": "address",
							"name": "to",
							"type": "address"
						},
						{
							"internalType": "uint256",
							"name": "tokenId",
							"type": "uint256"
						}
					],
					"name": "transferFrom",
					"outputs": [],
					"stateMutability": "nonpayable",
					"type": "function"
				},
				{
					"inputs": [
						{
							"internalType": "uint256",
							"name": "tokenId",
							"type": "uint256"
						}
					],
					"name": "uri",
					"outputs": [
						{
							"internalType": "string",
							"name": "",
							"type": "string"
						}
					],
					"stateMutability": "view",
					"type": "function"
				}
			],
			"devdoc": {
				"kind": "dev",
				"methods": {},
				"version": 1
			},
			"evm": {
				"assembly": "    /* \"ERC721.sol\":1967:10263  contract ERC721 is IERC165, IERC721, IERC721Metadata, IERC1155Metadata_URI, IERC721Enumerable {\r... */\n  mstore(0x40, 0x80)\n    /* \"ERC721.sol\":2533:2650  constructor (string memory name_, string memory symbol_) {\r... */\n  callvalue\n  dup1\n  iszero\n  tag_1\n  jumpi\n  0x00\n  dup1\n  revert\ntag_1:\n  pop\n  mload(0x40)\n  sub(codesize, bytecodeSize)\n  dup1\n  bytecodeSize\n  dup4\n  codecopy\n  dup2\n  dup2\n  add\n  0x40\n  mstore\n  dup2\n  add\n  swap1\n  tag_2\n  swap2\n  swap1\n  tag_3\n  jump\t// in\ntag_2:\n    /* \"ERC721.sol\":2609:2614  name_ */\n  dup2\n    /* \"ERC721.sol\":2601:2606  _name */\n  0x04\n    /* \"ERC721.sol\":2601:2614  _name = name_ */\n  swap1\n  dup1\n  mload\n  swap1\n  0x20\n  add\n  swap1\n  tag_6\n  swap3\n  swap2\n  swap1\n  tag_7\n  jump\t// in\ntag_6:\n  pop\n    /* \"ERC721.sol\":2635:2642  symbol_ */\n  dup1\n    /* \"ERC721.sol\":2625:2632  _symbol */\n  0x05\n    /* \"ERC721.sol\":2625:2642  _symbol = symbol_ */\n  swap1\n  dup1\n  mload\n  swap1\n  0x20\n  add\n  swap1\n  tag_8\n  swap3\n  swap2\n  swap1\n  tag_7\n  jump\t// in\ntag_8:\n  pop\n    /* \"ERC721.sol\":2533:2650  constructor (string memory name_, string memory symbol_) {\r... */\n  pop\n  pop\n    /* \"ERC721.sol\":1967:10263  contract ERC721 is IERC165, IERC721, IERC721Metadata, IERC1155Metadata_URI, IERC721Enumerable {\r... */\n  jump(tag_9)\ntag_7:\n  dup3\n  dup1\n  sload\n  tag_10\n  swap1\n  tag_11\n  jump\t// in\ntag_10:\n  swap1\n  0x00\n  mstore\n  keccak256(0x00, 0x20)\n  swap1\n  0x1f\n  add\n  0x20\n  swap1\n  div\n  dup2\n  add\n  swap3\n  dup3\n  tag_13\n  jumpi\n  0x00\n  dup6\n  sstore\n  jump(tag_12)\ntag_13:\n  dup3\n  0x1f\n  lt\n  tag_14\n  jumpi\n  dup1\n  mload\n  not(0xff)\n  and\n  dup4\n  dup1\n  add\n  or\n  dup6\n  sstore\n  jump(tag_12)\ntag_14:\n  dup3\n  dup1\n  add\n  0x01\n  add\n  dup6\n  sstore\n  dup3\n  iszero\n  tag_12\n  jumpi\n  swap2\n  dup3\n  add\ntag_15:\n  dup3\n  dup2\n  gt\n  iszero\n  tag_16\n  jumpi\n  dup3\n  mload\n  dup3\n  sstore\n  swap2\n  0x20\n  add\n  swap2\n  swap1\n  0x01\n  add\n  swap1\n  jump(tag_15)\ntag_16:\ntag_12:\n  pop\n  swap1\n  pop\n  tag_17\n  swap2\n  swap1\n  tag_18\n  jump\t// in\ntag_17:\n  pop\n  swap1\n  jump\t// out\ntag_18:\ntag_19:\n  dup1\n  dup3\n  gt\n  iszero\n  tag_20\n  jumpi\n  0x00\n  dup2\n  0x00\n  swap1\n  sstore\n  pop\n  0x01\n  add\n  jump(tag_19)\ntag_20:\n  pop\n  swap1\n  jump\t// out\n    /* \"#utility.yul\":7:428   */\ntag_22:\n    /* \"#utility.yul\":96:101   */\n  0x00\n    /* \"#utility.yul\":121:187   */\n  tag_24\n    /* \"#utility.yul\":137:186   */\n  tag_25\n    /* \"#utility.yul\":179:185   */\n  dup5\n    /* \"#utility.yul\":137:186   */\n  tag_26\n  jump\t// in\ntag_25:\n    /* \"#utility.yul\":121:187   */\n  tag_27\n  jump\t// in\ntag_24:\n    /* \"#utility.yul\":112:187   */\n  swap1\n  pop\n    /* \"#utility.yul\":210:216   */\n  dup3\n    /* \"#utility.yul\":203:208   */\n  dup2\n    /* \"#utility.yul\":196:217   */\n  mstore\n    /* \"#utility.yul\":248:252   */\n  0x20\n    /* \"#utility.yul\":241:246   */\n  dup2\n    /* \"#utility.yul\":237:253   */\n  add\n    /* \"#utility.yul\":286:289   */\n  dup5\n    /* \"#utility.yul\":277:283   */\n  dup5\n    /* \"#utility.yul\":272:275   */\n  dup5\n    /* \"#utility.yul\":268:284   */\n  add\n    /* \"#utility.yul\":265:290   */\n  gt\n    /* \"#utility.yul\":262:374   */\n  iszero\n  tag_28\n  jumpi\n    /* \"#utility.yul\":293:372   */\n  tag_29\n  tag_30\n  jump\t// in\ntag_29:\n    /* \"#utility.yul\":262:374   */\ntag_28:\n    /* \"#utility.yul\":383:422   */\n  tag_31\n    /* \"#utility.yul\":415:421   */\n  dup5\n    /* \"#utility.yul\":410:413   */\n  dup3\n    /* \"#utility.yul\":405:408   */\n  dup6\n    /* \"#utility.yul\":383:422   */\n  tag_32\n  jump\t// in\ntag_31:\n    /* \"#utility.yul\":102:428   */\n  pop\n    /* \"#utility.yul\":7:428   */\n  swap4\n  swap3\n  pop\n  pop\n  pop\n  jump\t// out\n    /* \"#utility.yul\":448:803   */\ntag_33:\n    /* \"#utility.yul\":515:520   */\n  0x00\n    /* \"#utility.yul\":564:567   */\n  dup3\n    /* \"#utility.yul\":557:561   */\n  0x1f\n    /* \"#utility.yul\":549:555   */\n  dup4\n    /* \"#utility.yul\":545:562   */\n  add\n    /* \"#utility.yul\":541:568   */\n  slt\n    /* \"#utility.yul\":531:653   */\n  tag_35\n  jumpi\n    /* \"#utility.yul\":572:651   */\n  tag_36\n  tag_37\n  jump\t// in\ntag_36:\n    /* \"#utility.yul\":531:653   */\ntag_35:\n    /* \"#utility.yul\":682:688   */\n  dup2\n    /* \"#utility.yul\":676:689   */\n  mload\n    /* \"#utility.yul\":707:797   */\n  tag_38\n    /* \"#utility.yul\":793:796   */\n  dup5\n    /* \"#utility.yul\":785:791   */\n  dup3\n    /* \"#utility.yul\":778:782   */\n  0x20\n    /* \"#utility.yul\":770:776   */\n  dup7\n    /* \"#utility.yul\":766:783   */\n  add\n    /* \"#utility.yul\":707:797   */\n  tag_22\n  jump\t// in\ntag_38:\n    /* \"#utility.yul\":698:797   */\n  swap2\n  pop\n    /* \"#utility.yul\":521:803   */\n  pop\n    /* \"#utility.yul\":448:803   */\n  swap3\n  swap2\n  pop\n  pop\n  jump\t// out\n    /* \"#utility.yul\":809:1662   */\ntag_3:\n    /* \"#utility.yul\":908:914   */\n  0x00\n    /* \"#utility.yul\":916:922   */\n  dup1\n    /* \"#utility.yul\":965:967   */\n  0x40\n    /* \"#utility.yul\":953:962   */\n  dup4\n    /* \"#utility.yul\":944:951   */\n  dup6\n    /* \"#utility.yul\":940:963   */\n  sub\n    /* \"#utility.yul\":936:968   */\n  slt\n    /* \"#utility.yul\":933:1052   */\n  iszero\n  tag_40\n  jumpi\n    /* \"#utility.yul\":971:1050   */\n  tag_41\n  tag_42\n  jump\t// in\ntag_41:\n    /* \"#utility.yul\":933:1052   */\ntag_40:\n    /* \"#utility.yul\":1112:1113   */\n  0x00\n    /* \"#utility.yul\":1101:1110   */\n  dup4\n    /* \"#utility.yul\":1097:1114   */\n  add\n    /* \"#utility.yul\":1091:1115   */\n  mload\n    /* \"#utility.yul\":1142:1160   */\n  0xffffffffffffffff\n    /* \"#utility.yul\":1134:1140   */\n  dup2\n    /* \"#utility.yul\":1131:1161   */\n  gt\n    /* \"#utility.yul\":1128:1245   */\n  iszero\n  tag_43\n  jumpi\n    /* \"#utility.yul\":1164:1243   */\n  tag_44\n  tag_45\n  jump\t// in\ntag_44:\n    /* \"#utility.yul\":1128:1245   */\ntag_43:\n    /* \"#utility.yul\":1269:1343   */\n  tag_46\n    /* \"#utility.yul\":1335:1342   */\n  dup6\n    /* \"#utility.yul\":1326:1332   */\n  dup3\n    /* \"#utility.yul\":1315:1324   */\n  dup7\n    /* \"#utility.yul\":1311:1333   */\n  add\n    /* \"#utility.yul\":1269:1343   */\n  tag_33\n  jump\t// in\ntag_46:\n    /* \"#utility.yul\":1259:1343   */\n  swap3\n  pop\n    /* \"#utility.yul\":1062:1353   */\n  pop\n    /* \"#utility.yul\":1413:1415   */\n  0x20\n    /* \"#utility.yul\":1402:1411   */\n  dup4\n    /* \"#utility.yul\":1398:1416   */\n  add\n    /* \"#utility.yul\":1392:1417   */\n  mload\n    /* \"#utility.yul\":1444:1462   */\n  0xffffffffffffffff\n    /* \"#utility.yul\":1436:1442   */\n  dup2\n    /* \"#utility.yul\":1433:1463   */\n  gt\n    /* \"#utility.yul\":1430:1547   */\n  iszero\n  tag_47\n  jumpi\n    /* \"#utility.yul\":1466:1545   */\n  tag_48\n  tag_45\n  jump\t// in\ntag_48:\n    /* \"#utility.yul\":1430:1547   */\ntag_47:\n    /* \"#utility.yul\":1571:1645   */\n  tag_49\n    /* \"#utility.yul\":1637:1644   */\n  dup6\n    /* \"#utility.yul\":1628:1634   */\n  dup3\n    /* \"#utility.yul\":1617:1626   */\n  dup7\n    /* \"#utility.yul\":1613:1635   */\n  add\n    /* \"#utility.yul\":1571:1645   */\n  tag_33\n  jump\t// in\ntag_49:\n    /* \"#utility.yul\":1561:1645   */\n  swap2\n  pop\n    /* \"#utility.yul\":1363:1655   */\n  pop\n    /* \"#utility.yul\":809:1662   */\n  swap3\n  pop\n  swap3\n  swap1\n  pop\n  jump\t// out\n    /* \"#utility.yul\":1668:1797   */\ntag_27:\n    /* \"#utility.yul\":1702:1708   */\n  0x00\n    /* \"#utility.yul\":1729:1749   */\n  tag_51\n  tag_52\n  jump\t// in\ntag_51:\n    /* \"#utility.yul\":1719:1749   */\n  swap1\n  pop\n    /* \"#utility.yul\":1758:1791   */\n  tag_53\n    /* \"#utility.yul\":1786:1790   */\n  dup3\n    /* \"#utility.yul\":1778:1784   */\n  dup3\n    /* \"#utility.yul\":1758:1791   */\n  tag_54\n  jump\t// in\ntag_53:\n    /* \"#utility.yul\":1668:1797   */\n  swap2\n  swap1\n  pop\n  jump\t// out\n    /* \"#utility.yul\":1803:1878   */\ntag_52:\n    /* \"#utility.yul\":1836:1842   */\n  0x00\n    /* \"#utility.yul\":1869:1871   */\n  0x40\n    /* \"#utility.yul\":1863:1872   */\n  mload\n    /* \"#utility.yul\":1853:1872   */\n  swap1\n  pop\n    /* \"#utility.yul\":1803:1878   */\n  swap1\n  jump\t// out\n    /* \"#utility.yul\":1884:2192   */\ntag_26:\n    /* \"#utility.yul\":1946:1950   */\n  0x00\n    /* \"#utility.yul\":2036:2054   */\n  0xffffffffffffffff\n    /* \"#utility.yul\":2028:2034   */\n  dup3\n    /* \"#utility.yul\":2025:2055   */\n  gt\n    /* \"#utility.yul\":2022:2078   */\n  iszero\n  tag_57\n  jumpi\n    /* \"#utility.yul\":2058:2076   */\n  tag_58\n  tag_59\n  jump\t// in\ntag_58:\n    /* \"#utility.yul\":2022:2078   */\ntag_57:\n    /* \"#utility.yul\":2096:2125   */\n  tag_60\n    /* \"#utility.yul\":2118:2124   */\n  dup3\n    /* \"#utility.yul\":2096:2125   */\n  tag_61\n  jump\t// in\ntag_60:\n    /* \"#utility.yul\":2088:2125   */\n  swap1\n  pop\n    /* \"#utility.yul\":2180:2184   */\n  0x20\n    /* \"#utility.yul\":2174:2178   */\n  dup2\n    /* \"#utility.yul\":2170:2185   */\n  add\n    /* \"#utility.yul\":2162:2185   */\n  swap1\n  pop\n    /* \"#utility.yul\":1884:2192   */\n  swap2\n  swap1\n  pop\n  jump\t// out\n    /* \"#utility.yul\":2198:2505   */\ntag_32:\n    /* \"#utility.yul\":2266:2267   */\n  0x00\n    /* \"#utility.yul\":2276:2389   */\ntag_63:\n    /* \"#utility.yul\":2290:2296   */\n  dup4\n    /* \"#utility.yul\":2287:2288   */\n  dup2\n    /* \"#utility.yul\":2284:2297   */\n  lt\n    /* \"#utility.yul\":2276:2389   */\n  iszero\n  tag_65\n  jumpi\n    /* \"#utility.yul\":2375:2376   */\n  dup1\n    /* \"#utility.yul\":2370:2373   */\n  dup3\n    /* \"#utility.yul\":2366:2377   */\n  add\n    /* \"#utility.yul\":2360:2378   */\n  mload\n    /* \"#utility.yul\":2356:2357   */\n  dup2\n    /* \"#utility.yul\":2351:2354   */\n  dup5\n    /* \"#utility.yul\":2347:2358   */\n  add\n    /* \"#utility.yul\":2340:2379   */\n  mstore\n    /* \"#utility.yul\":2312:2314   */\n  0x20\n    /* \"#utility.yul\":2309:2310   */\n  dup2\n    /* \"#utility.yul\":2305:2315   */\n  add\n    /* \"#utility.yul\":2300:2315   */\n  swap1\n  pop\n    /* \"#utility.yul\":2276:2389   */\n  jump(tag_63)\ntag_65:\n    /* \"#utility.yul\":2407:2413   */\n  dup4\n    /* \"#utility.yul\":2404:2405   */\n  dup2\n    /* \"#utility.yul\":2401:2414   */\n  gt\n    /* \"#utility.yul\":2398:2499   */\n  iszero\n  tag_66\n  jumpi\n    /* \"#utility.yul\":2487:2488   */\n  0x00\n    /* \"#utility.yul\":2478:2484   */\n  dup5\n    /* \"#utility.yul\":2473:2476   */\n  dup5\n    /* \"#utility.yul\":2469:2485   */\n  add\n    /* \"#utility.yul\":2462:2489   */\n  mstore\n    /* \"#utility.yul\":2398:2499   */\ntag_66:\n    /* \"#utility.yul\":2247:2505   */\n  pop\n    /* \"#utility.yul\":2198:2505   */\n  pop\n  pop\n  pop\n  jump\t// out\n    /* \"#utility.yul\":2511:2831   */\ntag_11:\n    /* \"#utility.yul\":2555:2561   */\n  0x00\n    /* \"#utility.yul\":2592:2593   */\n  0x02\n    /* \"#utility.yul\":2586:2590   */\n  dup3\n    /* \"#utility.yul\":2582:2594   */\n  div\n    /* \"#utility.yul\":2572:2594   */\n  swap1\n  pop\n    /* \"#utility.yul\":2639:2640   */\n  0x01\n    /* \"#utility.yul\":2633:2637   */\n  dup3\n    /* \"#utility.yul\":2629:2641   */\n  and\n    /* \"#utility.yul\":2660:2678   */\n  dup1\n    /* \"#utility.yul\":2650:2731   */\n  tag_68\n  jumpi\n    /* \"#utility.yul\":2716:2720   */\n  0x7f\n    /* \"#utility.yul\":2708:2714   */\n  dup3\n    /* \"#utility.yul\":2704:2721   */\n  and\n    /* \"#utility.yul\":2694:2721   */\n  swap2\n  pop\n    /* \"#utility.yul\":2650:2731   */\ntag_68:\n    /* \"#utility.yul\":2778:2780   */\n  0x20\n    /* \"#utility.yul\":2770:2776   */\n  dup3\n    /* \"#utility.yul\":2767:2781   */\n  lt\n    /* \"#utility.yul\":2747:2765   */\n  dup2\n    /* \"#utility.yul\":2744:2782   */\n  eq\n    /* \"#utility.yul\":2741:2825   */\n  iszero\n  tag_69\n  jumpi\n    /* \"#utility.yul\":2797:2815   */\n  tag_70\n  tag_71\n  jump\t// in\ntag_70:\n    /* \"#utility.yul\":2741:2825   */\ntag_69:\n    /* \"#utility.yul\":2562:2831   */\n  pop\n    /* \"#utility.yul\":2511:2831   */\n  swap2\n  swap1\n  pop\n  jump\t// out\n    /* \"#utility.yul\":2837:3118   */\ntag_54:\n    /* \"#utility.yul\":2920:2947   */\n  tag_73\n    /* \"#utility.yul\":2942:2946   */\n  dup3\n    /* \"#utility.yul\":2920:2947   */\n  tag_61\n  jump\t// in\ntag_73:\n    /* \"#utility.yul\":2912:2918   */\n  dup2\n    /* \"#utility.yul\":2908:2948   */\n  add\n    /* \"#utility.yul\":3050:3056   */\n  dup2\n    /* \"#utility.yul\":3038:3048   */\n  dup2\n    /* \"#utility.yul\":3035:3057   */\n  lt\n    /* \"#utility.yul\":3014:3032   */\n  0xffffffffffffffff\n    /* \"#utility.yul\":3002:3012   */\n  dup3\n    /* \"#utility.yul\":2999:3033   */\n  gt\n    /* \"#utility.yul\":2996:3058   */\n  or\n    /* \"#utility.yul\":2993:3081   */\n  iszero\n  tag_74\n  jumpi\n    /* \"#utility.yul\":3061:3079   */\n  tag_75\n  tag_59\n  jump\t// in\ntag_75:\n    /* \"#utility.yul\":2993:3081   */\ntag_74:\n    /* \"#utility.yul\":3101:3111   */\n  dup1\n    /* \"#utility.yul\":3097:3099   */\n  0x40\n    /* \"#utility.yul\":3090:3112   */\n  mstore\n    /* \"#utility.yul\":2880:3118   */\n  pop\n    /* \"#utility.yul\":2837:3118   */\n  pop\n  pop\n  jump\t// out\n    /* \"#utility.yul\":3124:3304   */\ntag_71:\n    /* \"#utility.yul\":3172:3249   */\n  0x4e487b7100000000000000000000000000000000000000000000000000000000\n    /* \"#utility.yul\":3169:3170   */\n  0x00\n    /* \"#utility.yul\":3162:3250   */\n  mstore\n    /* \"#utility.yul\":3269:3273   */\n  0x22\n    /* \"#utility.yul\":3266:3267   */\n  0x04\n    /* \"#utility.yul\":3259:3274   */\n  mstore\n    /* \"#utility.yul\":3293:3297   */\n  0x24\n    /* \"#utility.yul\":3290:3291   */\n  0x00\n    /* \"#utility.yul\":3283:3298   */\n  revert\n    /* \"#utility.yul\":3310:3490   */\ntag_59:\n    /* \"#utility.yul\":3358:3435   */\n  0x4e487b7100000000000000000000000000000000000000000000000000000000\n    /* \"#utility.yul\":3355:3356   */\n  0x00\n    /* \"#utility.yul\":3348:3436   */\n  mstore\n    /* \"#utility.yul\":3455:3459   */\n  0x41\n    /* \"#utility.yul\":3452:3453   */\n  0x04\n    /* \"#utility.yul\":3445:3460   */\n  mstore\n    /* \"#utility.yul\":3479:3483   */\n  0x24\n    /* \"#utility.yul\":3476:3477   */\n  0x00\n    /* \"#utility.yul\":3469:3484   */\n  revert\n    /* \"#utility.yul\":3496:3613   */\ntag_37:\n    /* \"#utility.yul\":3605:3606   */\n  0x00\n    /* \"#utility.yul\":3602:3603   */\n  dup1\n    /* \"#utility.yul\":3595:3607   */\n  revert\n    /* \"#utility.yul\":3619:3736   */\ntag_30:\n    /* \"#utility.yul\":3728:3729   */\n  0x00\n    /* \"#utility.yul\":3725:3726   */\n  dup1\n    /* \"#utility.yul\":3718:3730   */\n  revert\n    /* \"#utility.yul\":3742:3859   */\ntag_45:\n    /* \"#utility.yul\":3851:3852   */\n  0x00\n    /* \"#utility.yul\":3848:3849   */\n  dup1\n    /* \"#utility.yul\":3841:3853   */\n  revert\n    /* \"#utility.yul\":3865:3982   */\ntag_42:\n    /* \"#utility.yul\":3974:3975   */\n  0x00\n    /* \"#utility.yul\":3971:3972   */\n  dup1\n    /* \"#utility.yul\":3964:3976   */\n  revert\n    /* \"#utility.yul\":3988:4090   */\ntag_61:\n    /* \"#utility.yul\":4029:4035   */\n  0x00\n    /* \"#utility.yul\":4080:4082   */\n  0x1f\n    /* \"#utility.yul\":4076:4083   */\n  not\n    /* \"#utility.yul\":4071:4073   */\n  0x1f\n    /* \"#utility.yul\":4064:4069   */\n  dup4\n    /* \"#utility.yul\":4060:4074   */\n  add\n    /* \"#utility.yul\":4056:4084   */\n  and\n    /* \"#utility.yul\":4046:4084   */\n  swap1\n  pop\n    /* \"#utility.yul\":3988:4090   */\n  swap2\n  swap1\n  pop\n  jump\t// out\n    /* \"ERC721.sol\":1967:10263  contract ERC721 is IERC165, IERC721, IERC721Metadata, IERC1155Metadata_URI, IERC721Enumerable {\r... */\ntag_9:\n  dataSize(sub_0)\n  dup1\n  dataOffset(sub_0)\n  0x00\n  codecopy\n  0x00\n  return\nstop\n\nsub_0: assembly {\n        /* \"ERC721.sol\":1967:10263  contract ERC721 is IERC165, IERC721, IERC721Metadata, IERC1155Metadata_URI, IERC721Enumerable {\r... */\n      mstore(0x40, 0x80)\n      callvalue\n      dup1\n      iszero\n      tag_1\n      jumpi\n      0x00\n      dup1\n      revert\n    tag_1:\n      pop\n      jumpi(tag_2, lt(calldatasize, 0x04))\n      shr(0xe0, calldataload(0x00))\n      dup1\n      0x42842e0e\n      gt\n      tag_20\n      jumpi\n      dup1\n      0x95d89b41\n      gt\n      tag_21\n      jumpi\n      dup1\n      0x95d89b41\n      eq\n      tag_15\n      jumpi\n      dup1\n      0xa22cb465\n      eq\n      tag_16\n      jumpi\n      dup1\n      0xb88d4fde\n      eq\n      tag_17\n      jumpi\n      dup1\n      0xc87b56dd\n      eq\n      tag_18\n      jumpi\n      dup1\n      0xe985e9c5\n      eq\n      tag_19\n      jumpi\n      jump(tag_2)\n    tag_21:\n      dup1\n      0x42842e0e\n      eq\n      tag_11\n      jumpi\n      dup1\n      0x4f6ccce7\n      eq\n      tag_12\n      jumpi\n      dup1\n      0x6352211e\n      eq\n      tag_13\n      jumpi\n      dup1\n      0x70a08231\n      eq\n      tag_14\n      jumpi\n      jump(tag_2)\n    tag_20:\n      dup1\n      0x0e89341c\n      gt\n      tag_22\n      jumpi\n      dup1\n      0x0e89341c\n      eq\n      tag_7\n      jumpi\n      dup1\n      0x18160ddd\n      eq\n      tag_8\n      jumpi\n      dup1\n      0x23b872dd\n      eq\n      tag_9\n      jumpi\n      dup1\n      0x2f745c59\n      eq\n      tag_10\n      jumpi\n      jump(tag_2)\n    tag_22:\n      dup1\n      0x01ffc9a7\n      eq\n      tag_3\n      jumpi\n      dup1\n      0x06fdde03\n      eq\n      tag_4\n      jumpi\n      dup1\n      0x081812fc\n      eq\n      tag_5\n      jumpi\n      dup1\n      0x095ea7b3\n      eq\n      tag_6\n      jumpi\n    tag_2:\n      0x00\n      dup1\n      revert\n        /* \"ERC721.sol\":3121:3530  function supportsInterface(bytes4 interfaceId) public override pure returns (bool) {\r... */\n    tag_3:\n      tag_23\n      0x04\n      dup1\n      calldatasize\n      sub\n      dup2\n      add\n      swap1\n      tag_24\n      swap2\n      swap1\n      tag_25\n      jump\t// in\n    tag_24:\n      tag_26\n      jump\t// in\n    tag_23:\n      mload(0x40)\n      tag_27\n      swap2\n      swap1\n      tag_28\n      jump\t// in\n    tag_27:\n      mload(0x40)\n      dup1\n      swap2\n      sub\n      swap1\n      return\n        /* \"ERC721.sol\":2658:2750  function name() public override view returns (string memory) {\r... */\n    tag_4:\n      tag_29\n      tag_30\n      jump\t// in\n    tag_29:\n      mload(0x40)\n      tag_31\n      swap2\n      swap1\n      tag_32\n      jump\t// in\n    tag_31:\n      mload(0x40)\n      dup1\n      swap2\n      sub\n      swap1\n      return\n        /* \"ERC721.sol\":4733:4935  function getApproved(uint256 tokenId) public override view returns (address) {\r... */\n    tag_5:\n      tag_33\n      0x04\n      dup1\n      calldatasize\n      sub\n      dup2\n      add\n      swap1\n      tag_34\n      swap2\n      swap1\n      tag_35\n      jump\t// in\n    tag_34:\n      tag_36\n      jump\t// in\n    tag_33:\n      mload(0x40)\n      tag_37\n      swap2\n      swap1\n      tag_38\n      jump\t// in\n    tag_37:\n      mload(0x40)\n      dup1\n      swap2\n      sub\n      swap1\n      return\n        /* \"ERC721.sol\":4394:4725  function approve(address to, uint256 tokenId) public override {\r... */\n    tag_6:\n      tag_39\n      0x04\n      dup1\n      calldatasize\n      sub\n      dup2\n      add\n      swap1\n      tag_40\n      swap2\n      swap1\n      tag_41\n      jump\t// in\n    tag_40:\n      tag_42\n      jump\t// in\n    tag_39:\n      stop\n        /* \"ERC721.sol\":2995:3113  function uri(uint256 tokenId) public override view returns (string memory) {\r... */\n    tag_7:\n      tag_43\n      0x04\n      dup1\n      calldatasize\n      sub\n      dup2\n      add\n      swap1\n      tag_44\n      swap2\n      swap1\n      tag_35\n      jump\t// in\n    tag_44:\n      tag_45\n      jump\t// in\n    tag_43:\n      mload(0x40)\n      tag_46\n      swap2\n      swap1\n      tag_32\n      jump\t// in\n    tag_46:\n      mload(0x40)\n      dup1\n      swap2\n      sub\n      swap1\n      return\n        /* \"ERC721.sol\":6115:6220  function totalSupply() public override view returns (uint256) {\r... */\n    tag_8:\n      tag_47\n      tag_48\n      jump\t// in\n    tag_47:\n      mload(0x40)\n      tag_49\n      swap2\n      swap1\n      tag_50\n      jump\t// in\n    tag_49:\n      mload(0x40)\n      dup1\n      swap2\n      sub\n      swap1\n      return\n        /* \"ERC721.sol\":4943:5679  function transferFrom(address from, address to, uint256 tokenId) public override {\r... */\n    tag_9:\n      tag_51\n      0x04\n      dup1\n      calldatasize\n      sub\n      dup2\n      add\n      swap1\n      tag_52\n      swap2\n      swap1\n      tag_53\n      jump\t// in\n    tag_52:\n      tag_54\n      jump\t// in\n    tag_51:\n      stop\n        /* \"ERC721.sol\":6425:6644  function tokenOfOwnerByIndex(address owner, uint256 index) public override view returns (uint256) {\r... */\n    tag_10:\n      tag_55\n      0x04\n      dup1\n      calldatasize\n      sub\n      dup2\n      add\n      swap1\n      tag_56\n      swap2\n      swap1\n      tag_41\n      jump\t// in\n    tag_56:\n      tag_57\n      jump\t// in\n    tag_55:\n      mload(0x40)\n      tag_58\n      swap2\n      swap1\n      tag_50\n      jump\t// in\n    tag_58:\n      mload(0x40)\n      dup1\n      swap2\n      sub\n      swap1\n      return\n        /* \"ERC721.sol\":5964:6107  function safeTransferFrom(address from, address to, uint256 tokenId) public override {\r... */\n    tag_11:\n      tag_59\n      0x04\n      dup1\n      calldatasize\n      sub\n      dup2\n      add\n      swap1\n      tag_60\n      swap2\n      swap1\n      tag_53\n      jump\t// in\n    tag_60:\n      tag_61\n      jump\t// in\n    tag_59:\n      stop\n        /* \"ERC721.sol\":6228:6417  function tokenByIndex(uint256 index) public override view returns (uint256) {\r... */\n    tag_12:\n      tag_62\n      0x04\n      dup1\n      calldatasize\n      sub\n      dup2\n      add\n      swap1\n      tag_63\n      swap2\n      swap1\n      tag_35\n      jump\t// in\n    tag_63:\n      tag_64\n      jump\t// in\n    tag_62:\n      mload(0x40)\n      tag_65\n      swap2\n      swap1\n      tag_50\n      jump\t// in\n    tag_65:\n      mload(0x40)\n      dup1\n      swap2\n      sub\n      swap1\n      return\n        /* \"ERC721.sol\":3727:3936  function ownerOf(uint256 tokenId) public override view returns (address) {\r... */\n    tag_13:\n      tag_66\n      0x04\n      dup1\n      calldatasize\n      sub\n      dup2\n      add\n      swap1\n      tag_67\n      swap2\n      swap1\n      tag_35\n      jump\t// in\n    tag_67:\n      tag_68\n      jump\t// in\n    tag_66:\n      mload(0x40)\n      tag_69\n      swap2\n      swap1\n      tag_38\n      jump\t// in\n    tag_69:\n      mload(0x40)\n      dup1\n      swap2\n      sub\n      swap1\n      return\n        /* \"ERC721.sol\":3538:3719  function balanceOf(address owner) public override view returns (uint256) {\r... */\n    tag_14:\n      tag_70\n      0x04\n      dup1\n      calldatasize\n      sub\n      dup2\n      add\n      swap1\n      tag_71\n      swap2\n      swap1\n      tag_72\n      jump\t// in\n    tag_71:\n      tag_73\n      jump\t// in\n    tag_70:\n      mload(0x40)\n      tag_74\n      swap2\n      swap1\n      tag_50\n      jump\t// in\n    tag_74:\n      mload(0x40)\n      dup1\n      swap2\n      sub\n      swap1\n      return\n        /* \"ERC721.sol\":2758:2854  function symbol() public override view returns (string memory) {\r... */\n    tag_15:\n      tag_75\n      tag_76\n      jump\t// in\n    tag_75:\n      mload(0x40)\n      tag_77\n      swap2\n      swap1\n      tag_32\n      jump\t// in\n    tag_77:\n      mload(0x40)\n      dup1\n      swap2\n      sub\n      swap1\n      return\n        /* \"ERC721.sol\":3944:4222  function setApprovalForAll(address operator, bool approved) public override {\r... */\n    tag_16:\n      tag_78\n      0x04\n      dup1\n      calldatasize\n      sub\n      dup2\n      add\n      swap1\n      tag_79\n      swap2\n      swap1\n      tag_80\n      jump\t// in\n    tag_79:\n      tag_81\n      jump\t// in\n    tag_78:\n      stop\n        /* \"ERC721.sol\":5687:5956  function safeTransferFrom(address from, address to, uint256 tokenId, bytes memory data) public override {\r... */\n    tag_17:\n      tag_82\n      0x04\n      dup1\n      calldatasize\n      sub\n      dup2\n      add\n      swap1\n      tag_83\n      swap2\n      swap1\n      tag_84\n      jump\t// in\n    tag_83:\n      tag_85\n      jump\t// in\n    tag_82:\n      stop\n        /* \"ERC721.sol\":2862:2987  function tokenURI(uint256 tokenId) public override view returns (string memory) {\r... */\n    tag_18:\n      tag_86\n      0x04\n      dup1\n      calldatasize\n      sub\n      dup2\n      add\n      swap1\n      tag_87\n      swap2\n      swap1\n      tag_35\n      jump\t// in\n    tag_87:\n      tag_88\n      jump\t// in\n    tag_86:\n      mload(0x40)\n      tag_89\n      swap2\n      swap1\n      tag_32\n      jump\t// in\n    tag_89:\n      mload(0x40)\n      dup1\n      swap2\n      sub\n      swap1\n      return\n        /* \"ERC721.sol\":4230:4386  function isApprovedForAll(address owner, address operator) public override view returns (bool) {\r... */\n    tag_19:\n      tag_90\n      0x04\n      dup1\n      calldatasize\n      sub\n      dup2\n      add\n      swap1\n      tag_91\n      swap2\n      swap1\n      tag_92\n      jump\t// in\n    tag_91:\n      tag_93\n      jump\t// in\n    tag_90:\n      mload(0x40)\n      tag_94\n      swap2\n      swap1\n      tag_28\n      jump\t// in\n    tag_94:\n      mload(0x40)\n      dup1\n      swap2\n      sub\n      swap1\n      return\n        /* \"ERC721.sol\":3121:3530  function supportsInterface(bytes4 interfaceId) public override pure returns (bool) {\r... */\n    tag_26:\n        /* \"ERC721.sol\":3198:3202  bool */\n      0x00\n        /* \"ERC721.sol\":3237:3262  type(IERC165).interfaceId */\n      0x01ffc9a700000000000000000000000000000000000000000000000000000000\n        /* \"ERC721.sol\":3222:3262  interfaceId == type(IERC165).interfaceId */\n      not(0xffffffffffffffffffffffffffffffffffffffffffffffffffffffff)\n      and\n        /* \"ERC721.sol\":3222:3233  interfaceId */\n      dup3\n        /* \"ERC721.sol\":3222:3262  interfaceId == type(IERC165).interfaceId */\n      not(0xffffffffffffffffffffffffffffffffffffffffffffffffffffffff)\n      and\n      eq\n        /* \"ERC721.sol\":3222:3320  interfaceId == type(IERC165).interfaceId \r... */\n      dup1\n      tag_96\n      jumpi\n      pop\n        /* \"ERC721.sol\":3295:3320  type(IERC721).interfaceId */\n      0x80ac58cd00000000000000000000000000000000000000000000000000000000\n        /* \"ERC721.sol\":3280:3320  interfaceId == type(IERC721).interfaceId */\n      not(0xffffffffffffffffffffffffffffffffffffffffffffffffffffffff)\n      and\n        /* \"ERC721.sol\":3280:3291  interfaceId */\n      dup3\n        /* \"ERC721.sol\":3280:3320  interfaceId == type(IERC721).interfaceId */\n      not(0xffffffffffffffffffffffffffffffffffffffffffffffffffffffff)\n      and\n      eq\n        /* \"ERC721.sol\":3222:3320  interfaceId == type(IERC165).interfaceId \r... */\n    tag_96:\n        /* \"ERC721.sol\":3222:3385  interfaceId == type(IERC165).interfaceId \r... */\n      dup1\n      tag_97\n      jumpi\n      pop\n        /* \"ERC721.sol\":3352:3385  type(IERC721Metadata).interfaceId */\n      0x5b5e139f00000000000000000000000000000000000000000000000000000000\n        /* \"ERC721.sol\":3337:3385  interfaceId == type(IERC721Metadata).interfaceId */\n      not(0xffffffffffffffffffffffffffffffffffffffffffffffffffffffff)\n      and\n        /* \"ERC721.sol\":3337:3348  interfaceId */\n      dup3\n        /* \"ERC721.sol\":3337:3385  interfaceId == type(IERC721Metadata).interfaceId */\n      not(0xffffffffffffffffffffffffffffffffffffffffffffffffffffffff)\n      and\n      eq\n        /* \"ERC721.sol\":3222:3385  interfaceId == type(IERC165).interfaceId \r... */\n    tag_97:\n        /* \"ERC721.sol\":3222:3455  interfaceId == type(IERC165).interfaceId \r... */\n      dup1\n      tag_98\n      jumpi\n      pop\n        /* \"ERC721.sol\":3417:3455  type(IERC1155Metadata_URI).interfaceId */\n      0x0e89341c00000000000000000000000000000000000000000000000000000000\n        /* \"ERC721.sol\":3402:3455  interfaceId == type(IERC1155Metadata_URI).interfaceId */\n      not(0xffffffffffffffffffffffffffffffffffffffffffffffffffffffff)\n      and\n        /* \"ERC721.sol\":3402:3413  interfaceId */\n      dup3\n        /* \"ERC721.sol\":3402:3455  interfaceId == type(IERC1155Metadata_URI).interfaceId */\n      not(0xffffffffffffffffffffffffffffffffffffffffffffffffffffffff)\n      and\n      eq\n        /* \"ERC721.sol\":3222:3455  interfaceId == type(IERC165).interfaceId \r... */\n    tag_98:\n        /* \"ERC721.sol\":3222:3522  interfaceId == type(IERC165).interfaceId \r... */\n      dup1\n      tag_99\n      jumpi\n      pop\n        /* \"ERC721.sol\":3487:3522  type(IERC721Enumerable).interfaceId */\n      0x780e9d6300000000000000000000000000000000000000000000000000000000\n        /* \"ERC721.sol\":3472:3522  interfaceId == type(IERC721Enumerable).interfaceId */\n      not(0xffffffffffffffffffffffffffffffffffffffffffffffffffffffff)\n      and\n        /* \"ERC721.sol\":3472:3483  interfaceId */\n      dup3\n        /* \"ERC721.sol\":3472:3522  interfaceId == type(IERC721Enumerable).interfaceId */\n      not(0xffffffffffffffffffffffffffffffffffffffffffffffffffffffff)\n      and\n      eq\n        /* \"ERC721.sol\":3222:3522  interfaceId == type(IERC165).interfaceId \r... */\n    tag_99:\n        /* \"ERC721.sol\":3215:3522  return interfaceId == type(IERC165).interfaceId \r... */\n      swap1\n      pop\n        /* \"ERC721.sol\":3121:3530  function supportsInterface(bytes4 interfaceId) public override pure returns (bool) {\r... */\n      swap2\n      swap1\n      pop\n      jump\t// out\n        /* \"ERC721.sol\":2658:2750  function name() public override view returns (string memory) {\r... */\n    tag_30:\n        /* \"ERC721.sol\":2704:2717  string memory */\n      0x60\n        /* \"ERC721.sol\":2737:2742  _name */\n      0x04\n        /* \"ERC721.sol\":2730:2742  return _name */\n      dup1\n      sload\n      tag_101\n      swap1\n      tag_102\n      jump\t// in\n    tag_101:\n      dup1\n      0x1f\n      add\n      0x20\n      dup1\n      swap2\n      div\n      mul\n      0x20\n      add\n      mload(0x40)\n      swap1\n      dup2\n      add\n      0x40\n      mstore\n      dup1\n      swap3\n      swap2\n      swap1\n      dup2\n      dup2\n      mstore\n      0x20\n      add\n      dup3\n      dup1\n      sload\n      tag_103\n      swap1\n      tag_102\n      jump\t// in\n    tag_103:\n      dup1\n      iszero\n      tag_104\n      jumpi\n      dup1\n      0x1f\n      lt\n      tag_105\n      jumpi\n      0x0100\n      dup1\n      dup4\n      sload\n      div\n      mul\n      dup4\n      mstore\n      swap2\n      0x20\n      add\n      swap2\n      jump(tag_104)\n    tag_105:\n      dup3\n      add\n      swap2\n      swap1\n      0x00\n      mstore\n      keccak256(0x00, 0x20)\n      swap1\n    tag_106:\n      dup2\n      sload\n      dup2\n      mstore\n      swap1\n      0x01\n      add\n      swap1\n      0x20\n      add\n      dup1\n      dup4\n      gt\n      tag_106\n      jumpi\n      dup3\n      swap1\n      sub\n      0x1f\n      and\n      dup3\n      add\n      swap2\n    tag_104:\n      pop\n      pop\n      pop\n      pop\n      pop\n      swap1\n      pop\n        /* \"ERC721.sol\":2658:2750  function name() public override view returns (string memory) {\r... */\n      swap1\n      jump\t// out\n        /* \"ERC721.sol\":4733:4935  function getApproved(uint256 tokenId) public override view returns (address) {\r... */\n    tag_36:\n        /* \"ERC721.sol\":4801:4808  address */\n      0x00\n        /* \"ERC721.sol\":4857:4858  0 */\n      dup1\n        /* \"ERC721.sol\":4829:4859  _owners[tokenId] != address(0) */\n      0xffffffffffffffffffffffffffffffffffffffff\n      and\n        /* \"ERC721.sol\":4829:4836  _owners */\n      0x01\n        /* \"ERC721.sol\":4829:4845  _owners[tokenId] */\n      0x00\n        /* \"ERC721.sol\":4837:4844  tokenId */\n      dup5\n        /* \"ERC721.sol\":4829:4845  _owners[tokenId] */\n      dup2\n      mstore\n      0x20\n      add\n      swap1\n      dup2\n      mstore\n      0x20\n      add\n      0x00\n      keccak256\n      0x00\n      swap1\n      sload\n      swap1\n      0x0100\n      exp\n      swap1\n      div\n      0xffffffffffffffffffffffffffffffffffffffff\n      and\n        /* \"ERC721.sol\":4829:4859  _owners[tokenId] != address(0) */\n      0xffffffffffffffffffffffffffffffffffffffff\n      and\n      eq\n      iszero\n        /* \"ERC721.sol\":4821:4883  require(_owners[tokenId] != address(0), \"token is not exists\") */\n      tag_108\n      jumpi\n      mload(0x40)\n      0x08c379a000000000000000000000000000000000000000000000000000000000\n      dup2\n      mstore\n      0x04\n      add\n      tag_109\n      swap1\n      tag_110\n      jump\t// in\n    tag_109:\n      mload(0x40)\n      dup1\n      swap2\n      sub\n      swap1\n      revert\n    tag_108:\n        /* \"ERC721.sol\":4903:4918  _tokenApprovals */\n      0x03\n        /* \"ERC721.sol\":4903:4927  _tokenApprovals[tokenId] */\n      0x00\n        /* \"ERC721.sol\":4919:4926  tokenId */\n      dup4\n        /* \"ERC721.sol\":4903:4927  _tokenApprovals[tokenId] */\n      dup2\n      mstore\n      0x20\n      add\n      swap1\n      dup2\n      mstore\n      0x20\n      add\n      0x00\n      keccak256\n      0x00\n      swap1\n      sload\n      swap1\n      0x0100\n      exp\n      swap1\n      div\n      0xffffffffffffffffffffffffffffffffffffffff\n      and\n        /* \"ERC721.sol\":4896:4927  return _tokenApprovals[tokenId] */\n      swap1\n      pop\n        /* \"ERC721.sol\":4733:4935  function getApproved(uint256 tokenId) public override view returns (address) {\r... */\n      swap2\n      swap1\n      pop\n      jump\t// out\n        /* \"ERC721.sol\":4394:4725  function approve(address to, uint256 tokenId) public override {\r... */\n    tag_42:\n        /* \"ERC721.sol\":4467:4480  address owner */\n      0x00\n        /* \"ERC721.sol\":4483:4499  ownerOf(tokenId) */\n      tag_112\n        /* \"ERC721.sol\":4491:4498  tokenId */\n      dup3\n        /* \"ERC721.sol\":4483:4490  ownerOf */\n      tag_68\n        /* \"ERC721.sol\":4483:4499  ownerOf(tokenId) */\n      jump\t// in\n    tag_112:\n        /* \"ERC721.sol\":4467:4499  address owner = ownerOf(tokenId) */\n      swap1\n      pop\n        /* \"ERC721.sol\":4524:4529  owner */\n      dup1\n        /* \"ERC721.sol\":4518:4529  to != owner */\n      0xffffffffffffffffffffffffffffffffffffffff\n      and\n        /* \"ERC721.sol\":4518:4520  to */\n      dup4\n        /* \"ERC721.sol\":4518:4529  to != owner */\n      0xffffffffffffffffffffffffffffffffffffffff\n      and\n      eq\n      iszero\n        /* \"ERC721.sol\":4510:4558  require(to != owner, \"approval status for self\") */\n      tag_113\n      jumpi\n      mload(0x40)\n      0x08c379a000000000000000000000000000000000000000000000000000000000\n      dup2\n      mstore\n      0x04\n      add\n      tag_114\n      swap1\n      tag_115\n      jump\t// in\n    tag_114:\n      mload(0x40)\n      dup1\n      swap2\n      sub\n      swap1\n      revert\n    tag_113:\n        /* \"ERC721.sol\":4591:4596  owner */\n      dup1\n        /* \"ERC721.sol\":4577:4596  msg.sender == owner */\n      0xffffffffffffffffffffffffffffffffffffffff\n      and\n        /* \"ERC721.sol\":4577:4587  msg.sender */\n      caller\n        /* \"ERC721.sol\":4577:4596  msg.sender == owner */\n      0xffffffffffffffffffffffffffffffffffffffff\n      and\n      eq\n        /* \"ERC721.sol\":4577:4635  msg.sender == owner || isApprovedForAll(owner, msg.sender) */\n      dup1\n      tag_116\n      jumpi\n      pop\n        /* \"ERC721.sol\":4600:4635  isApprovedForAll(owner, msg.sender) */\n      tag_117\n        /* \"ERC721.sol\":4617:4622  owner */\n      dup2\n        /* \"ERC721.sol\":4624:4634  msg.sender */\n      caller\n        /* \"ERC721.sol\":4600:4616  isApprovedForAll */\n      tag_93\n        /* \"ERC721.sol\":4600:4635  isApprovedForAll(owner, msg.sender) */\n      jump\t// in\n    tag_117:\n        /* \"ERC721.sol\":4577:4635  msg.sender == owner || isApprovedForAll(owner, msg.sender) */\n    tag_116:\n        /* \"ERC721.sol\":4569:4685  require(msg.sender == owner || isApprovedForAll(owner, msg.sender), \"caller is not token owner or approval for all\") */\n      tag_118\n      jumpi\n      mload(0x40)\n      0x08c379a000000000000000000000000000000000000000000000000000000000\n      dup2\n      mstore\n      0x04\n      add\n      tag_119\n      swap1\n      tag_120\n      jump\t// in\n    tag_119:\n      mload(0x40)\n      dup1\n      swap2\n      sub\n      swap1\n      revert\n    tag_118:\n        /* \"ERC721.sol\":4696:4717  _approve(to, tokenId) */\n      tag_121\n        /* \"ERC721.sol\":4705:4707  to */\n      dup4\n        /* \"ERC721.sol\":4709:4716  tokenId */\n      dup4\n        /* \"ERC721.sol\":4696:4704  _approve */\n      tag_122\n        /* \"ERC721.sol\":4696:4717  _approve(to, tokenId) */\n      jump\t// in\n    tag_121:\n        /* \"ERC721.sol\":4456:4725  {\r... */\n      pop\n        /* \"ERC721.sol\":4394:4725  function approve(address to, uint256 tokenId) public override {\r... */\n      pop\n      pop\n      jump\t// out\n        /* \"ERC721.sol\":2995:3113  function uri(uint256 tokenId) public override view returns (string memory) {\r... */\n    tag_45:\n        /* \"ERC721.sol\":3055:3068  string memory */\n      0x60\n        /* \"ERC721.sol\":3088:3105  tokenURI(tokenId) */\n      tag_124\n        /* \"ERC721.sol\":3097:3104  tokenId */\n      dup3\n        /* \"ERC721.sol\":3088:3096  tokenURI */\n      tag_88\n        /* \"ERC721.sol\":3088:3105  tokenURI(tokenId) */\n      jump\t// in\n    tag_124:\n        /* \"ERC721.sol\":3081:3105  return tokenURI(tokenId) */\n      swap1\n      pop\n        /* \"ERC721.sol\":2995:3113  function uri(uint256 tokenId) public override view returns (string memory) {\r... */\n      swap2\n      swap1\n      pop\n      jump\t// out\n        /* \"ERC721.sol\":6115:6220  function totalSupply() public override view returns (uint256) {\r... */\n    tag_48:\n        /* \"ERC721.sol\":6168:6175  uint256 */\n      0x00\n        /* \"ERC721.sol\":6195:6205  _allTokens */\n      0x09\n        /* \"ERC721.sol\":6195:6212  _allTokens.length */\n      dup1\n      sload\n      swap1\n      pop\n        /* \"ERC721.sol\":6188:6212  return _allTokens.length */\n      swap1\n      pop\n        /* \"ERC721.sol\":6115:6220  function totalSupply() public override view returns (uint256) {\r... */\n      swap1\n      jump\t// out\n        /* \"ERC721.sol\":4943:5679  function transferFrom(address from, address to, uint256 tokenId) public override {\r... */\n    tag_54:\n        /* \"ERC721.sol\":5059:5060  0 */\n      0x00\n        /* \"ERC721.sol\":5043:5061  from != address(0) */\n      0xffffffffffffffffffffffffffffffffffffffff\n      and\n        /* \"ERC721.sol\":5043:5047  from */\n      dup4\n        /* \"ERC721.sol\":5043:5061  from != address(0) */\n      0xffffffffffffffffffffffffffffffffffffffff\n      and\n      eq\n      iszero\n        /* \"ERC721.sol\":5035:5092  require(from != address(0), \"transfer from zero address\") */\n      tag_127\n      jumpi\n      mload(0x40)\n      0x08c379a000000000000000000000000000000000000000000000000000000000\n      dup2\n      mstore\n      0x04\n      add\n      tag_128\n      swap1\n      tag_129\n      jump\t// in\n    tag_128:\n      mload(0x40)\n      dup1\n      swap2\n      sub\n      swap1\n      revert\n    tag_127:\n        /* \"ERC721.sol\":5125:5126  0 */\n      0x00\n        /* \"ERC721.sol\":5111:5127  to != address(0) */\n      0xffffffffffffffffffffffffffffffffffffffff\n      and\n        /* \"ERC721.sol\":5111:5113  to */\n      dup3\n        /* \"ERC721.sol\":5111:5127  to != address(0) */\n      0xffffffffffffffffffffffffffffffffffffffff\n      and\n      eq\n      iszero\n        /* \"ERC721.sol\":5103:5156  require(to != address(0), \"transfer to zero address\") */\n      tag_130\n      jumpi\n      mload(0x40)\n      0x08c379a000000000000000000000000000000000000000000000000000000000\n      dup2\n      mstore\n      0x04\n      add\n      tag_131\n      swap1\n      tag_132\n      jump\t// in\n    tag_131:\n      mload(0x40)\n      dup1\n      swap2\n      sub\n      swap1\n      revert\n    tag_130:\n        /* \"ERC721.sol\":5169:5182  address owner */\n      0x00\n        /* \"ERC721.sol\":5185:5201  ownerOf(tokenId) */\n      tag_133\n        /* \"ERC721.sol\":5193:5200  tokenId */\n      dup3\n        /* \"ERC721.sol\":5185:5192  ownerOf */\n      tag_68\n        /* \"ERC721.sol\":5185:5201  ownerOf(tokenId) */\n      jump\t// in\n    tag_133:\n        /* \"ERC721.sol\":5169:5201  address owner = ownerOf(tokenId) */\n      swap1\n      pop\n        /* \"ERC721.sol\":5229:5233  from */\n      dup4\n        /* \"ERC721.sol\":5220:5233  owner == from */\n      0xffffffffffffffffffffffffffffffffffffffff\n      and\n        /* \"ERC721.sol\":5220:5225  owner */\n      dup2\n        /* \"ERC721.sol\":5220:5233  owner == from */\n      0xffffffffffffffffffffffffffffffffffffffff\n      and\n      eq\n        /* \"ERC721.sol\":5212:5270  require(owner == from, \"transfer from is not token owner\") */\n      tag_134\n      jumpi\n      mload(0x40)\n      0x08c379a000000000000000000000000000000000000000000000000000000000\n      dup2\n      mstore\n      0x04\n      add\n      tag_135\n      swap1\n      tag_136\n      jump\t// in\n    tag_135:\n      mload(0x40)\n      dup1\n      swap2\n      sub\n      swap1\n      revert\n    tag_134:\n        /* \"ERC721.sol\":5303:5308  owner */\n      dup1\n        /* \"ERC721.sol\":5289:5308  msg.sender == owner */\n      0xffffffffffffffffffffffffffffffffffffffff\n      and\n        /* \"ERC721.sol\":5289:5299  msg.sender */\n      caller\n        /* \"ERC721.sol\":5289:5308  msg.sender == owner */\n      0xffffffffffffffffffffffffffffffffffffffff\n      and\n      eq\n        /* \"ERC721.sol\":5289:5346  msg.sender == owner || msg.sender == getApproved(tokenId) */\n      dup1\n      tag_137\n      jumpi\n      pop\n        /* \"ERC721.sol\":5326:5346  getApproved(tokenId) */\n      tag_138\n        /* \"ERC721.sol\":5338:5345  tokenId */\n      dup3\n        /* \"ERC721.sol\":5326:5337  getApproved */\n      tag_36\n        /* \"ERC721.sol\":5326:5346  getApproved(tokenId) */\n      jump\t// in\n    tag_138:\n        /* \"ERC721.sol\":5312:5346  msg.sender == getApproved(tokenId) */\n      0xffffffffffffffffffffffffffffffffffffffff\n      and\n        /* \"ERC721.sol\":5312:5322  msg.sender */\n      caller\n        /* \"ERC721.sol\":5312:5346  msg.sender == getApproved(tokenId) */\n      0xffffffffffffffffffffffffffffffffffffffff\n      and\n      eq\n        /* \"ERC721.sol\":5289:5346  msg.sender == owner || msg.sender == getApproved(tokenId) */\n    tag_137:\n        /* \"ERC721.sol\":5289:5385  msg.sender == owner || msg.sender == getApproved(tokenId) || isApprovedForAll(owner, msg.sender) */\n      dup1\n      tag_139\n      jumpi\n      pop\n        /* \"ERC721.sol\":5350:5385  isApprovedForAll(owner, msg.sender) */\n      tag_140\n        /* \"ERC721.sol\":5367:5372  owner */\n      dup2\n        /* \"ERC721.sol\":5374:5384  msg.sender */\n      caller\n        /* \"ERC721.sol\":5350:5366  isApprovedForAll */\n      tag_93\n        /* \"ERC721.sol\":5350:5385  isApprovedForAll(owner, msg.sender) */\n      jump\t// in\n    tag_140:\n        /* \"ERC721.sol\":5289:5385  msg.sender == owner || msg.sender == getApproved(tokenId) || isApprovedForAll(owner, msg.sender) */\n    tag_139:\n        /* \"ERC721.sol\":5281:5421  require(msg.sender == owner || msg.sender == getApproved(tokenId) || isApprovedForAll(owner, msg.sender), \"caller is not owner or approval\") */\n      tag_141\n      jumpi\n      mload(0x40)\n      0x08c379a000000000000000000000000000000000000000000000000000000000\n      dup2\n      mstore\n      0x04\n      add\n      tag_142\n      swap1\n      tag_143\n      jump\t// in\n    tag_142:\n      mload(0x40)\n      dup1\n      swap2\n      sub\n      swap1\n      revert\n    tag_141:\n        /* \"ERC721.sol\":5453:5454  1 */\n      0x01\n        /* \"ERC721.sol\":5434:5443  _balances */\n      0x00\n        /* \"ERC721.sol\":5434:5449  _balances[from] */\n      dup1\n        /* \"ERC721.sol\":5444:5448  from */\n      dup7\n        /* \"ERC721.sol\":5434:5449  _balances[from] */\n      0xffffffffffffffffffffffffffffffffffffffff\n      and\n      0xffffffffffffffffffffffffffffffffffffffff\n      and\n      dup2\n      mstore\n      0x20\n      add\n      swap1\n      dup2\n      mstore\n      0x20\n      add\n      0x00\n      keccak256\n      0x00\n        /* \"ERC721.sol\":5434:5454  _balances[from] -= 1 */\n      dup3\n      dup3\n      sload\n      tag_144\n      swap2\n      swap1\n      tag_145\n      jump\t// in\n    tag_144:\n      swap3\n      pop\n      pop\n      dup2\n      swap1\n      sstore\n      pop\n        /* \"ERC721.sol\":5482:5483  1 */\n      0x01\n        /* \"ERC721.sol\":5465:5474  _balances */\n      0x00\n        /* \"ERC721.sol\":5465:5478  _balances[to] */\n      dup1\n        /* \"ERC721.sol\":5475:5477  to */\n      dup6\n        /* \"ERC721.sol\":5465:5478  _balances[to] */\n      0xffffffffffffffffffffffffffffffffffffffff\n      and\n      0xffffffffffffffffffffffffffffffffffffffff\n      and\n      dup2\n      mstore\n      0x20\n      add\n      swap1\n      dup2\n      mstore\n      0x20\n      add\n      0x00\n      keccak256\n      0x00\n        /* \"ERC721.sol\":5465:5483  _balances[to] += 1 */\n      dup3\n      dup3\n      sload\n      tag_146\n      swap2\n      swap1\n      tag_147\n      jump\t// in\n    tag_146:\n      swap3\n      pop\n      pop\n      dup2\n      swap1\n      sstore\n      pop\n        /* \"ERC721.sol\":5513:5515  to */\n      dup3\n        /* \"ERC721.sol\":5494:5501  _owners */\n      0x01\n        /* \"ERC721.sol\":5494:5510  _owners[tokenId] */\n      0x00\n        /* \"ERC721.sol\":5502:5509  tokenId */\n      dup5\n        /* \"ERC721.sol\":5494:5510  _owners[tokenId] */\n      dup2\n      mstore\n      0x20\n      add\n      swap1\n      dup2\n      mstore\n      0x20\n      add\n      0x00\n      keccak256\n      0x00\n        /* \"ERC721.sol\":5494:5515  _owners[tokenId] = to */\n      0x0100\n      exp\n      dup2\n      sload\n      dup2\n      0xffffffffffffffffffffffffffffffffffffffff\n      mul\n      not\n      and\n      swap1\n      dup4\n      0xffffffffffffffffffffffffffffffffffffffff\n      and\n      mul\n      or\n      swap1\n      sstore\n      pop\n        /* \"ERC721.sol\":5552:5559  tokenId */\n      dup2\n        /* \"ERC721.sol\":5548:5550  to */\n      dup4\n        /* \"ERC721.sol\":5533:5560  Transfer(from, to, tokenId) */\n      0xffffffffffffffffffffffffffffffffffffffff\n      and\n        /* \"ERC721.sol\":5542:5546  from */\n      dup6\n        /* \"ERC721.sol\":5533:5560  Transfer(from, to, tokenId) */\n      0xffffffffffffffffffffffffffffffffffffffff\n      and\n      0xddf252ad1be2c89b69c2b068fc378daa952ba7f163c4a11628f55a4df523b3ef\n      mload(0x40)\n      mload(0x40)\n      dup1\n      swap2\n      sub\n      swap1\n      log4\n        /* \"ERC721.sol\":5573:5620  _removeTokenFromOwnerEnumeration(from, tokenId) */\n      tag_148\n        /* \"ERC721.sol\":5606:5610  from */\n      dup5\n        /* \"ERC721.sol\":5612:5619  tokenId */\n      dup4\n        /* \"ERC721.sol\":5573:5605  _removeTokenFromOwnerEnumeration */\n      tag_149\n        /* \"ERC721.sol\":5573:5620  _removeTokenFromOwnerEnumeration(from, tokenId) */\n      jump\t// in\n    tag_148:\n        /* \"ERC721.sol\":5631:5671  _addTokenToOwnerEnumeration(to, tokenId) */\n      tag_150\n        /* \"ERC721.sol\":5659:5661  to */\n      dup4\n        /* \"ERC721.sol\":5663:5670  tokenId */\n      dup4\n        /* \"ERC721.sol\":5631:5658  _addTokenToOwnerEnumeration */\n      tag_151\n        /* \"ERC721.sol\":5631:5671  _addTokenToOwnerEnumeration(to, tokenId) */\n      jump\t// in\n    tag_150:\n        /* \"ERC721.sol\":5024:5679  {\r... */\n      pop\n        /* \"ERC721.sol\":4943:5679  function transferFrom(address from, address to, uint256 tokenId) public override {\r... */\n      pop\n      pop\n      pop\n      jump\t// out\n        /* \"ERC721.sol\":6425:6644  function tokenOfOwnerByIndex(address owner, uint256 index) public override view returns (uint256) {\r... */\n    tag_57:\n        /* \"ERC721.sol\":6514:6521  uint256 */\n      0x00\n        /* \"ERC721.sol\":6550:6559  _balances */\n      dup1\n        /* \"ERC721.sol\":6550:6566  _balances[owner] */\n      0x00\n        /* \"ERC721.sol\":6560:6565  owner */\n      dup5\n        /* \"ERC721.sol\":6550:6566  _balances[owner] */\n      0xffffffffffffffffffffffffffffffffffffffff\n      and\n      0xffffffffffffffffffffffffffffffffffffffff\n      and\n      dup2\n      mstore\n      0x20\n      add\n      swap1\n      dup2\n      mstore\n      0x20\n      add\n      0x00\n      keccak256\n      sload\n        /* \"ERC721.sol\":6542:6547  index */\n      dup3\n        /* \"ERC721.sol\":6542:6566  index < _balances[owner] */\n      lt\n        /* \"ERC721.sol\":6534:6590  require(index < _balances[owner], \"index out of bounds\") */\n      tag_153\n      jumpi\n      mload(0x40)\n      0x08c379a000000000000000000000000000000000000000000000000000000000\n      dup2\n      mstore\n      0x04\n      add\n      tag_154\n      swap1\n      tag_155\n      jump\t// in\n    tag_154:\n      mload(0x40)\n      dup1\n      swap2\n      sub\n      swap1\n      revert\n    tag_153:\n        /* \"ERC721.sol\":6610:6622  _ownedTokens */\n      0x07\n        /* \"ERC721.sol\":6610:6629  _ownedTokens[owner] */\n      0x00\n        /* \"ERC721.sol\":6623:6628  owner */\n      dup5\n        /* \"ERC721.sol\":6610:6629  _ownedTokens[owner] */\n      0xffffffffffffffffffffffffffffffffffffffff\n      and\n      0xffffffffffffffffffffffffffffffffffffffff\n      and\n      dup2\n      mstore\n      0x20\n      add\n      swap1\n      dup2\n      mstore\n      0x20\n      add\n      0x00\n      keccak256\n        /* \"ERC721.sol\":6610:6636  _ownedTokens[owner][index] */\n      0x00\n        /* \"ERC721.sol\":6630:6635  index */\n      dup4\n        /* \"ERC721.sol\":6610:6636  _ownedTokens[owner][index] */\n      dup2\n      mstore\n      0x20\n      add\n      swap1\n      dup2\n      mstore\n      0x20\n      add\n      0x00\n      keccak256\n      sload\n        /* \"ERC721.sol\":6603:6636  return _ownedTokens[owner][index] */\n      swap1\n      pop\n        /* \"ERC721.sol\":6425:6644  function tokenOfOwnerByIndex(address owner, uint256 index) public override view returns (uint256) {\r... */\n      swap3\n      swap2\n      pop\n      pop\n      jump\t// out\n        /* \"ERC721.sol\":5964:6107  function safeTransferFrom(address from, address to, uint256 tokenId) public override {\r... */\n    tag_61:\n        /* \"ERC721.sol\":6060:6099  safeTransferFrom(from, to, tokenId, \"\") */\n      tag_157\n        /* \"ERC721.sol\":6077:6081  from */\n      dup4\n        /* \"ERC721.sol\":6083:6085  to */\n      dup4\n        /* \"ERC721.sol\":6087:6094  tokenId */\n      dup4\n        /* \"ERC721.sol\":6060:6099  safeTransferFrom(from, to, tokenId, \"\") */\n      mload(0x40)\n      dup1\n      0x20\n      add\n      0x40\n      mstore\n      dup1\n      0x00\n      dup2\n      mstore\n      pop\n        /* \"ERC721.sol\":6060:6076  safeTransferFrom */\n      tag_85\n        /* \"ERC721.sol\":6060:6099  safeTransferFrom(from, to, tokenId, \"\") */\n      jump\t// in\n    tag_157:\n        /* \"ERC721.sol\":5964:6107  function safeTransferFrom(address from, address to, uint256 tokenId) public override {\r... */\n      pop\n      pop\n      pop\n      jump\t// out\n        /* \"ERC721.sol\":6228:6417  function tokenByIndex(uint256 index) public override view returns (uint256) {\r... */\n    tag_64:\n        /* \"ERC721.sol\":6295:6302  uint256 */\n      0x00\n        /* \"ERC721.sol\":6331:6341  _allTokens */\n      0x09\n        /* \"ERC721.sol\":6331:6348  _allTokens.length */\n      dup1\n      sload\n      swap1\n      pop\n        /* \"ERC721.sol\":6323:6328  index */\n      dup3\n        /* \"ERC721.sol\":6323:6348  index < _allTokens.length */\n      lt\n        /* \"ERC721.sol\":6315:6372  require(index < _allTokens.length, \"index out of bounds\") */\n      tag_159\n      jumpi\n      mload(0x40)\n      0x08c379a000000000000000000000000000000000000000000000000000000000\n      dup2\n      mstore\n      0x04\n      add\n      tag_160\n      swap1\n      tag_155\n      jump\t// in\n    tag_160:\n      mload(0x40)\n      dup1\n      swap2\n      sub\n      swap1\n      revert\n    tag_159:\n        /* \"ERC721.sol\":6392:6402  _allTokens */\n      0x09\n        /* \"ERC721.sol\":6403:6408  index */\n      dup3\n        /* \"ERC721.sol\":6392:6409  _allTokens[index] */\n      dup2\n      sload\n      dup2\n      lt\n      tag_161\n      jumpi\n      tag_162\n      tag_163\n      jump\t// in\n    tag_162:\n    tag_161:\n      swap1\n      0x00\n      mstore\n      keccak256(0x00, 0x20)\n      add\n      sload\n        /* \"ERC721.sol\":6385:6409  return _allTokens[index] */\n      swap1\n      pop\n        /* \"ERC721.sol\":6228:6417  function tokenByIndex(uint256 index) public override view returns (uint256) {\r... */\n      swap2\n      swap1\n      pop\n      jump\t// out\n        /* \"ERC721.sol\":3727:3936  function ownerOf(uint256 tokenId) public override view returns (address) {\r... */\n    tag_68:\n        /* \"ERC721.sol\":3791:3798  address */\n      0x00\n        /* \"ERC721.sol\":3811:3824  address owner */\n      dup1\n        /* \"ERC721.sol\":3827:3834  _owners */\n      0x01\n        /* \"ERC721.sol\":3827:3843  _owners[tokenId] */\n      0x00\n        /* \"ERC721.sol\":3835:3842  tokenId */\n      dup5\n        /* \"ERC721.sol\":3827:3843  _owners[tokenId] */\n      dup2\n      mstore\n      0x20\n      add\n      swap1\n      dup2\n      mstore\n      0x20\n      add\n      0x00\n      keccak256\n      0x00\n      swap1\n      sload\n      swap1\n      0x0100\n      exp\n      swap1\n      div\n      0xffffffffffffffffffffffffffffffffffffffff\n      and\n        /* \"ERC721.sol\":3811:3843  address owner = _owners[tokenId] */\n      swap1\n      pop\n        /* \"ERC721.sol\":3879:3880  0 */\n      0x00\n        /* \"ERC721.sol\":3862:3881  owner != address(0) */\n      0xffffffffffffffffffffffffffffffffffffffff\n      and\n        /* \"ERC721.sol\":3862:3867  owner */\n      dup2\n        /* \"ERC721.sol\":3862:3881  owner != address(0) */\n      0xffffffffffffffffffffffffffffffffffffffff\n      and\n      eq\n      iszero\n        /* \"ERC721.sol\":3854:3905  require(owner != address(0), \"token is not exists\") */\n      tag_166\n      jumpi\n      mload(0x40)\n      0x08c379a000000000000000000000000000000000000000000000000000000000\n      dup2\n      mstore\n      0x04\n      add\n      tag_167\n      swap1\n      tag_110\n      jump\t// in\n    tag_167:\n      mload(0x40)\n      dup1\n      swap2\n      sub\n      swap1\n      revert\n    tag_166:\n        /* \"ERC721.sol\":3923:3928  owner */\n      dup1\n        /* \"ERC721.sol\":3916:3928  return owner */\n      swap2\n      pop\n      pop\n        /* \"ERC721.sol\":3727:3936  function ownerOf(uint256 tokenId) public override view returns (address) {\r... */\n      swap2\n      swap1\n      pop\n      jump\t// out\n        /* \"ERC721.sol\":3538:3719  function balanceOf(address owner) public override view returns (uint256) {\r... */\n    tag_73:\n        /* \"ERC721.sol\":3602:3609  uint256 */\n      0x00\n        /* \"ERC721.sol\":3647:3648  0 */\n      dup1\n        /* \"ERC721.sol\":3630:3649  owner != address(0) */\n      0xffffffffffffffffffffffffffffffffffffffff\n      and\n        /* \"ERC721.sol\":3630:3635  owner */\n      dup3\n        /* \"ERC721.sol\":3630:3649  owner != address(0) */\n      0xffffffffffffffffffffffffffffffffffffffff\n      and\n      eq\n      iszero\n        /* \"ERC721.sol\":3622:3675  require(owner != address(0), \"owner is zero address\") */\n      tag_169\n      jumpi\n      mload(0x40)\n      0x08c379a000000000000000000000000000000000000000000000000000000000\n      dup2\n      mstore\n      0x04\n      add\n      tag_170\n      swap1\n      tag_171\n      jump\t// in\n    tag_170:\n      mload(0x40)\n      dup1\n      swap2\n      sub\n      swap1\n      revert\n    tag_169:\n        /* \"ERC721.sol\":3695:3704  _balances */\n      0x00\n        /* \"ERC721.sol\":3695:3711  _balances[owner] */\n      dup1\n        /* \"ERC721.sol\":3705:3710  owner */\n      dup4\n        /* \"ERC721.sol\":3695:3711  _balances[owner] */\n      0xffffffffffffffffffffffffffffffffffffffff\n      and\n      0xffffffffffffffffffffffffffffffffffffffff\n      and\n      dup2\n      mstore\n      0x20\n      add\n      swap1\n      dup2\n      mstore\n      0x20\n      add\n      0x00\n      keccak256\n      sload\n        /* \"ERC721.sol\":3688:3711  return _balances[owner] */\n      swap1\n      pop\n        /* \"ERC721.sol\":3538:3719  function balanceOf(address owner) public override view returns (uint256) {\r... */\n      swap2\n      swap1\n      pop\n      jump\t// out\n        /* \"ERC721.sol\":2758:2854  function symbol() public override view returns (string memory) {\r... */\n    tag_76:\n        /* \"ERC721.sol\":2806:2819  string memory */\n      0x60\n        /* \"ERC721.sol\":2839:2846  _symbol */\n      0x05\n        /* \"ERC721.sol\":2832:2846  return _symbol */\n      dup1\n      sload\n      tag_173\n      swap1\n      tag_102\n      jump\t// in\n    tag_173:\n      dup1\n      0x1f\n      add\n      0x20\n      dup1\n      swap2\n      div\n      mul\n      0x20\n      add\n      mload(0x40)\n      swap1\n      dup2\n      add\n      0x40\n      mstore\n      dup1\n      swap3\n      swap2\n      swap1\n      dup2\n      dup2\n      mstore\n      0x20\n      add\n      dup3\n      dup1\n      sload\n      tag_174\n      swap1\n      tag_102\n      jump\t// in\n    tag_174:\n      dup1\n      iszero\n      tag_175\n      jumpi\n      dup1\n      0x1f\n      lt\n      tag_176\n      jumpi\n      0x0100\n      dup1\n      dup4\n      sload\n      div\n      mul\n      dup4\n      mstore\n      swap2\n      0x20\n      add\n      swap2\n      jump(tag_175)\n    tag_176:\n      dup3\n      add\n      swap2\n      swap1\n      0x00\n      mstore\n      keccak256(0x00, 0x20)\n      swap1\n    tag_177:\n      dup2\n      sload\n      dup2\n      mstore\n      swap1\n      0x01\n      add\n      swap1\n      0x20\n      add\n      dup1\n      dup4\n      gt\n      tag_177\n      jumpi\n      dup3\n      swap1\n      sub\n      0x1f\n      and\n      dup3\n      add\n      swap2\n    tag_175:\n      pop\n      pop\n      pop\n      pop\n      pop\n      swap1\n      pop\n        /* \"ERC721.sol\":2758:2854  function symbol() public override view returns (string memory) {\r... */\n      swap1\n      jump\t// out\n        /* \"ERC721.sol\":3944:4222  function setApprovalForAll(address operator, bool approved) public override {\r... */\n    tag_81:\n        /* \"ERC721.sol\":4053:4061  operator */\n      dup2\n        /* \"ERC721.sol\":4039:4061  msg.sender != operator */\n      0xffffffffffffffffffffffffffffffffffffffff\n      and\n        /* \"ERC721.sol\":4039:4049  msg.sender */\n      caller\n        /* \"ERC721.sol\":4039:4061  msg.sender != operator */\n      0xffffffffffffffffffffffffffffffffffffffff\n      and\n      eq\n      iszero\n        /* \"ERC721.sol\":4031:4090  require(msg.sender != operator, \"approval status for self\") */\n      tag_179\n      jumpi\n      mload(0x40)\n      0x08c379a000000000000000000000000000000000000000000000000000000000\n      dup2\n      mstore\n      0x04\n      add\n      tag_180\n      swap1\n      tag_115\n      jump\t// in\n    tag_180:\n      mload(0x40)\n      dup1\n      swap2\n      sub\n      swap1\n      revert\n    tag_179:\n        /* \"ERC721.sol\":4144:4152  approved */\n      dup1\n        /* \"ERC721.sol\":4101:4119  _operatorApprovals */\n      0x02\n        /* \"ERC721.sol\":4101:4131  _operatorApprovals[msg.sender] */\n      0x00\n        /* \"ERC721.sol\":4120:4130  msg.sender */\n      caller\n        /* \"ERC721.sol\":4101:4131  _operatorApprovals[msg.sender] */\n      0xffffffffffffffffffffffffffffffffffffffff\n      and\n      0xffffffffffffffffffffffffffffffffffffffff\n      and\n      dup2\n      mstore\n      0x20\n      add\n      swap1\n      dup2\n      mstore\n      0x20\n      add\n      0x00\n      keccak256\n        /* \"ERC721.sol\":4101:4141  _operatorApprovals[msg.sender][operator] */\n      0x00\n        /* \"ERC721.sol\":4132:4140  operator */\n      dup5\n        /* \"ERC721.sol\":4101:4141  _operatorApprovals[msg.sender][operator] */\n      0xffffffffffffffffffffffffffffffffffffffff\n      and\n      0xffffffffffffffffffffffffffffffffffffffff\n      and\n      dup2\n      mstore\n      0x20\n      add\n      swap1\n      dup2\n      mstore\n      0x20\n      add\n      0x00\n      keccak256\n      0x00\n        /* \"ERC721.sol\":4101:4152  _operatorApprovals[msg.sender][operator] = approved */\n      0x0100\n      exp\n      dup2\n      sload\n      dup2\n      0xff\n      mul\n      not\n      and\n      swap1\n      dup4\n      iszero\n      iszero\n      mul\n      or\n      swap1\n      sstore\n      pop\n        /* \"ERC721.sol\":4195:4203  operator */\n      dup2\n        /* \"ERC721.sol\":4168:4214  ApprovalForAll(msg.sender, operator, approved) */\n      0xffffffffffffffffffffffffffffffffffffffff\n      and\n        /* \"ERC721.sol\":4183:4193  msg.sender */\n      caller\n        /* \"ERC721.sol\":4168:4214  ApprovalForAll(msg.sender, operator, approved) */\n      0xffffffffffffffffffffffffffffffffffffffff\n      and\n      0x17307eab39ab6107e8899845ad3d59bd9653f200f220920489ca2b5937696c31\n        /* \"ERC721.sol\":4205:4213  approved */\n      dup4\n        /* \"ERC721.sol\":4168:4214  ApprovalForAll(msg.sender, operator, approved) */\n      mload(0x40)\n      tag_181\n      swap2\n      swap1\n      tag_28\n      jump\t// in\n    tag_181:\n      mload(0x40)\n      dup1\n      swap2\n      sub\n      swap1\n      log3\n        /* \"ERC721.sol\":3944:4222  function setApprovalForAll(address operator, bool approved) public override {\r... */\n      pop\n      pop\n      jump\t// out\n        /* \"ERC721.sol\":5687:5956  function safeTransferFrom(address from, address to, uint256 tokenId, bytes memory data) public override {\r... */\n    tag_85:\n        /* \"ERC721.sol\":5802:5833  transferFrom(from, to, tokenId) */\n      tag_183\n        /* \"ERC721.sol\":5815:5819  from */\n      dup5\n        /* \"ERC721.sol\":5821:5823  to */\n      dup5\n        /* \"ERC721.sol\":5825:5832  tokenId */\n      dup5\n        /* \"ERC721.sol\":5802:5814  transferFrom */\n      tag_54\n        /* \"ERC721.sol\":5802:5833  transferFrom(from, to, tokenId) */\n      jump\t// in\n    tag_183:\n        /* \"ERC721.sol\":5854:5901  _checkOnERC721Received(from, to, tokenId, data) */\n      tag_184\n        /* \"ERC721.sol\":5877:5881  from */\n      dup5\n        /* \"ERC721.sol\":5883:5885  to */\n      dup5\n        /* \"ERC721.sol\":5887:5894  tokenId */\n      dup5\n        /* \"ERC721.sol\":5896:5900  data */\n      dup5\n        /* \"ERC721.sol\":5854:5876  _checkOnERC721Received */\n      tag_185\n        /* \"ERC721.sol\":5854:5901  _checkOnERC721Received(from, to, tokenId, data) */\n      jump\t// in\n    tag_184:\n        /* \"ERC721.sol\":5846:5948  require(_checkOnERC721Received(from, to, tokenId, data), \"transfer to non ERC721Receiver implementer\") */\n      tag_186\n      jumpi\n      mload(0x40)\n      0x08c379a000000000000000000000000000000000000000000000000000000000\n      dup2\n      mstore\n      0x04\n      add\n      tag_187\n      swap1\n      tag_188\n      jump\t// in\n    tag_187:\n      mload(0x40)\n      dup1\n      swap2\n      sub\n      swap1\n      revert\n    tag_186:\n        /* \"ERC721.sol\":5687:5956  function safeTransferFrom(address from, address to, uint256 tokenId, bytes memory data) public override {\r... */\n      pop\n      pop\n      pop\n      pop\n      jump\t// out\n        /* \"ERC721.sol\":2862:2987  function tokenURI(uint256 tokenId) public override view returns (string memory) {\r... */\n    tag_88:\n        /* \"ERC721.sol\":2927:2940  string memory */\n      0x60\n        /* \"ERC721.sol\":2960:2970  _tokenURIs */\n      0x06\n        /* \"ERC721.sol\":2960:2979  _tokenURIs[tokenId] */\n      0x00\n        /* \"ERC721.sol\":2971:2978  tokenId */\n      dup4\n        /* \"ERC721.sol\":2960:2979  _tokenURIs[tokenId] */\n      dup2\n      mstore\n      0x20\n      add\n      swap1\n      dup2\n      mstore\n      0x20\n      add\n      0x00\n      keccak256\n        /* \"ERC721.sol\":2953:2979  return _tokenURIs[tokenId] */\n      dup1\n      sload\n      tag_190\n      swap1\n      tag_102\n      jump\t// in\n    tag_190:\n      dup1\n      0x1f\n      add\n      0x20\n      dup1\n      swap2\n      div\n      mul\n      0x20\n      add\n      mload(0x40)\n      swap1\n      dup2\n      add\n      0x40\n      mstore\n      dup1\n      swap3\n      swap2\n      swap1\n      dup2\n      dup2\n      mstore\n      0x20\n      add\n      dup3\n      dup1\n      sload\n      tag_191\n      swap1\n      tag_102\n      jump\t// in\n    tag_191:\n      dup1\n      iszero\n      tag_192\n      jumpi\n      dup1\n      0x1f\n      lt\n      tag_193\n      jumpi\n      0x0100\n      dup1\n      dup4\n      sload\n      div\n      mul\n      dup4\n      mstore\n      swap2\n      0x20\n      add\n      swap2\n      jump(tag_192)\n    tag_193:\n      dup3\n      add\n      swap2\n      swap1\n      0x00\n      mstore\n      keccak256(0x00, 0x20)\n      swap1\n    tag_194:\n      dup2\n      sload\n      dup2\n      mstore\n      swap1\n      0x01\n      add\n      swap1\n      0x20\n      add\n      dup1\n      dup4\n      gt\n      tag_194\n      jumpi\n      dup3\n      swap1\n      sub\n      0x1f\n      and\n      dup3\n      add\n      swap2\n    tag_192:\n      pop\n      pop\n      pop\n      pop\n      pop\n      swap1\n      pop\n        /* \"ERC721.sol\":2862:2987  function tokenURI(uint256 tokenId) public override view returns (string memory) {\r... */\n      swap2\n      swap1\n      pop\n      jump\t// out\n        /* \"ERC721.sol\":4230:4386  function isApprovedForAll(address owner, address operator) public override view returns (bool) {\r... */\n    tag_93:\n        /* \"ERC721.sol\":4319:4323  bool */\n      0x00\n        /* \"ERC721.sol\":4343:4361  _operatorApprovals */\n      0x02\n        /* \"ERC721.sol\":4343:4368  _operatorApprovals[owner] */\n      0x00\n        /* \"ERC721.sol\":4362:4367  owner */\n      dup5\n        /* \"ERC721.sol\":4343:4368  _operatorApprovals[owner] */\n      0xffffffffffffffffffffffffffffffffffffffff\n      and\n      0xffffffffffffffffffffffffffffffffffffffff\n      and\n      dup2\n      mstore\n      0x20\n      add\n      swap1\n      dup2\n      mstore\n      0x20\n      add\n      0x00\n      keccak256\n        /* \"ERC721.sol\":4343:4378  _operatorApprovals[owner][operator] */\n      0x00\n        /* \"ERC721.sol\":4369:4377  operator */\n      dup4\n        /* \"ERC721.sol\":4343:4378  _operatorApprovals[owner][operator] */\n      0xffffffffffffffffffffffffffffffffffffffff\n      and\n      0xffffffffffffffffffffffffffffffffffffffff\n      and\n      dup2\n      mstore\n      0x20\n      add\n      swap1\n      dup2\n      mstore\n      0x20\n      add\n      0x00\n      keccak256\n      0x00\n      swap1\n      sload\n      swap1\n      0x0100\n      exp\n      swap1\n      div\n      0xff\n      and\n        /* \"ERC721.sol\":4336:4378  return _operatorApprovals[owner][operator] */\n      swap1\n      pop\n        /* \"ERC721.sol\":4230:4386  function isApprovedForAll(address owner, address operator) public override view returns (bool) {\r... */\n      swap3\n      swap2\n      pop\n      pop\n      jump\t// out\n        /* \"ERC721.sol\":6689:6877  function _approve(address to, uint tokenId) internal {\r... */\n    tag_122:\n        /* \"ERC721.sol\":6780:6782  to */\n      dup2\n        /* \"ERC721.sol\":6753:6768  _tokenApprovals */\n      0x03\n        /* \"ERC721.sol\":6753:6777  _tokenApprovals[tokenId] */\n      0x00\n        /* \"ERC721.sol\":6769:6776  tokenId */\n      dup4\n        /* \"ERC721.sol\":6753:6777  _tokenApprovals[tokenId] */\n      dup2\n      mstore\n      0x20\n      add\n      swap1\n      dup2\n      mstore\n      0x20\n      add\n      0x00\n      keccak256\n      0x00\n        /* \"ERC721.sol\":6753:6782  _tokenApprovals[tokenId] = to */\n      0x0100\n      exp\n      dup2\n      sload\n      dup2\n      0xffffffffffffffffffffffffffffffffffffffff\n      mul\n      not\n      and\n      swap1\n      dup4\n      0xffffffffffffffffffffffffffffffffffffffff\n      and\n      mul\n      or\n      swap1\n      sstore\n      pop\n        /* \"ERC721.sol\":6793:6806  address owner */\n      0x00\n        /* \"ERC721.sol\":6809:6825  ownerOf(tokenId) */\n      tag_197\n        /* \"ERC721.sol\":6817:6824  tokenId */\n      dup3\n        /* \"ERC721.sol\":6809:6816  ownerOf */\n      tag_68\n        /* \"ERC721.sol\":6809:6825  ownerOf(tokenId) */\n      jump\t// in\n    tag_197:\n        /* \"ERC721.sol\":6793:6825  address owner = ownerOf(tokenId) */\n      swap1\n      pop\n        /* \"ERC721.sol\":6861:6868  tokenId */\n      dup2\n        /* \"ERC721.sol\":6857:6859  to */\n      dup4\n        /* \"ERC721.sol\":6841:6869  Approval(owner, to, tokenId) */\n      0xffffffffffffffffffffffffffffffffffffffff\n      and\n        /* \"ERC721.sol\":6850:6855  owner */\n      dup3\n        /* \"ERC721.sol\":6841:6869  Approval(owner, to, tokenId) */\n      0xffffffffffffffffffffffffffffffffffffffff\n      and\n      0x8c5be1e5ebec7d5bd14f71427d1e84f3dd0314c0f7b2291e5b200ac8c7c3b925\n      mload(0x40)\n      mload(0x40)\n      dup1\n      swap2\n      sub\n      swap1\n      log4\n        /* \"ERC721.sol\":6742:6877  {\r... */\n      pop\n        /* \"ERC721.sol\":6689:6877  function _approve(address to, uint tokenId) internal {\r... */\n      pop\n      pop\n      jump\t// out\n        /* \"ERC721.sol\":9780:10260  function _removeTokenFromOwnerEnumeration(address owner, uint tokenId) private {\r... */\n    tag_149:\n        /* \"ERC721.sol\":9870:9880  uint index */\n      0x00\n        /* \"ERC721.sol\":9883:9900  _ownedTokensIndex */\n      0x08\n        /* \"ERC721.sol\":9883:9909  _ownedTokensIndex[tokenId] */\n      0x00\n        /* \"ERC721.sol\":9901:9908  tokenId */\n      dup4\n        /* \"ERC721.sol\":9883:9909  _ownedTokensIndex[tokenId] */\n      dup2\n      mstore\n      0x20\n      add\n      swap1\n      dup2\n      mstore\n      0x20\n      add\n      0x00\n      keccak256\n      sload\n        /* \"ERC721.sol\":9870:9909  uint index = _ownedTokensIndex[tokenId] */\n      swap1\n      pop\n        /* \"ERC721.sol\":9920:9934  uint indexLast */\n      0x00\n        /* \"ERC721.sol\":9937:9946  _balances */\n      dup1\n        /* \"ERC721.sol\":9937:9953  _balances[owner] */\n      0x00\n        /* \"ERC721.sol\":9947:9952  owner */\n      dup6\n        /* \"ERC721.sol\":9937:9953  _balances[owner] */\n      0xffffffffffffffffffffffffffffffffffffffff\n      and\n      0xffffffffffffffffffffffffffffffffffffffff\n      and\n      dup2\n      mstore\n      0x20\n      add\n      swap1\n      dup2\n      mstore\n      0x20\n      add\n      0x00\n      keccak256\n      sload\n        /* \"ERC721.sol\":9920:9953  uint indexLast = _balances[owner] */\n      swap1\n      pop\n        /* \"ERC721.sol\":9977:9986  indexLast */\n      dup1\n        /* \"ERC721.sol\":9969:9974  index */\n      dup3\n        /* \"ERC721.sol\":9969:9986  index < indexLast */\n      lt\n        /* \"ERC721.sol\":9966:10159  if(index < indexLast) {\r... */\n      iszero\n      tag_199\n      jumpi\n        /* \"ERC721.sol\":10003:10014  uint idLast */\n      0x00\n        /* \"ERC721.sol\":10017:10029  _ownedTokens */\n      0x07\n        /* \"ERC721.sol\":10017:10036  _ownedTokens[owner] */\n      0x00\n        /* \"ERC721.sol\":10030:10035  owner */\n      dup7\n        /* \"ERC721.sol\":10017:10036  _ownedTokens[owner] */\n      0xffffffffffffffffffffffffffffffffffffffff\n      and\n      0xffffffffffffffffffffffffffffffffffffffff\n      and\n      dup2\n      mstore\n      0x20\n      add\n      swap1\n      dup2\n      mstore\n      0x20\n      add\n      0x00\n      keccak256\n        /* \"ERC721.sol\":10017:10047  _ownedTokens[owner][indexLast] */\n      0x00\n        /* \"ERC721.sol\":10037:10046  indexLast */\n      dup4\n        /* \"ERC721.sol\":10017:10047  _ownedTokens[owner][indexLast] */\n      dup2\n      mstore\n      0x20\n      add\n      swap1\n      dup2\n      mstore\n      0x20\n      add\n      0x00\n      keccak256\n      sload\n        /* \"ERC721.sol\":10003:10047  uint idLast = _ownedTokens[owner][indexLast] */\n      swap1\n      pop\n        /* \"ERC721.sol\":10093:10099  idLast */\n      dup1\n        /* \"ERC721.sol\":10064:10076  _ownedTokens */\n      0x07\n        /* \"ERC721.sol\":10064:10083  _ownedTokens[owner] */\n      0x00\n        /* \"ERC721.sol\":10077:10082  owner */\n      dup8\n        /* \"ERC721.sol\":10064:10083  _ownedTokens[owner] */\n      0xffffffffffffffffffffffffffffffffffffffff\n      and\n      0xffffffffffffffffffffffffffffffffffffffff\n      and\n      dup2\n      mstore\n      0x20\n      add\n      swap1\n      dup2\n      mstore\n      0x20\n      add\n      0x00\n      keccak256\n        /* \"ERC721.sol\":10064:10090  _ownedTokens[owner][index] */\n      0x00\n        /* \"ERC721.sol\":10084:10089  index */\n      dup6\n        /* \"ERC721.sol\":10064:10090  _ownedTokens[owner][index] */\n      dup2\n      mstore\n      0x20\n      add\n      swap1\n      dup2\n      mstore\n      0x20\n      add\n      0x00\n      keccak256\n        /* \"ERC721.sol\":10064:10099  _ownedTokens[owner][index] = idLast */\n      dup2\n      swap1\n      sstore\n      pop\n        /* \"ERC721.sol\":10142:10147  index */\n      dup3\n        /* \"ERC721.sol\":10114:10131  _ownedTokensIndex */\n      0x08\n        /* \"ERC721.sol\":10114:10139  _ownedTokensIndex[idLast] */\n      0x00\n        /* \"ERC721.sol\":10132:10138  idLast */\n      dup4\n        /* \"ERC721.sol\":10114:10139  _ownedTokensIndex[idLast] */\n      dup2\n      mstore\n      0x20\n      add\n      swap1\n      dup2\n      mstore\n      0x20\n      add\n      0x00\n      keccak256\n        /* \"ERC721.sol\":10114:10147  _ownedTokensIndex[idLast] = index */\n      dup2\n      swap1\n      sstore\n      pop\n        /* \"ERC721.sol\":9988:10159  {\r... */\n      pop\n        /* \"ERC721.sol\":9966:10159  if(index < indexLast) {\r... */\n    tag_199:\n        /* \"ERC721.sol\":10178:10190  _ownedTokens */\n      0x07\n        /* \"ERC721.sol\":10178:10197  _ownedTokens[owner] */\n      0x00\n        /* \"ERC721.sol\":10191:10196  owner */\n      dup6\n        /* \"ERC721.sol\":10178:10197  _ownedTokens[owner] */\n      0xffffffffffffffffffffffffffffffffffffffff\n      and\n      0xffffffffffffffffffffffffffffffffffffffff\n      and\n      dup2\n      mstore\n      0x20\n      add\n      swap1\n      dup2\n      mstore\n      0x20\n      add\n      0x00\n      keccak256\n        /* \"ERC721.sol\":10178:10208  _ownedTokens[owner][indexLast] */\n      0x00\n        /* \"ERC721.sol\":10198:10207  indexLast */\n      dup3\n        /* \"ERC721.sol\":10178:10208  _ownedTokens[owner][indexLast] */\n      dup2\n      mstore\n      0x20\n      add\n      swap1\n      dup2\n      mstore\n      0x20\n      add\n      0x00\n      keccak256\n        /* \"ERC721.sol\":10171:10208  delete _ownedTokens[owner][indexLast] */\n      0x00\n      swap1\n      sstore\n        /* \"ERC721.sol\":10226:10243  _ownedTokensIndex */\n      0x08\n        /* \"ERC721.sol\":10226:10252  _ownedTokensIndex[tokenId] */\n      0x00\n        /* \"ERC721.sol\":10244:10251  tokenId */\n      dup5\n        /* \"ERC721.sol\":10226:10252  _ownedTokensIndex[tokenId] */\n      dup2\n      mstore\n      0x20\n      add\n      swap1\n      dup2\n      mstore\n      0x20\n      add\n      0x00\n      keccak256\n        /* \"ERC721.sol\":10219:10252  delete _ownedTokensIndex[tokenId] */\n      0x00\n      swap1\n      sstore\n        /* \"ERC721.sol\":9859:10260  {\r... */\n      pop\n      pop\n        /* \"ERC721.sol\":9780:10260  function _removeTokenFromOwnerEnumeration(address owner, uint tokenId) private {\r... */\n      pop\n      pop\n      jump\t// out\n        /* \"ERC721.sol\":9554:9772  function _addTokenToOwnerEnumeration(address owner, uint tokenId) private {\r... */\n    tag_151:\n        /* \"ERC721.sol\":9639:9649  uint index */\n      0x00\n        /* \"ERC721.sol\":9671:9672  1 */\n      0x01\n        /* \"ERC721.sol\":9652:9661  _balances */\n      0x00\n        /* \"ERC721.sol\":9652:9668  _balances[owner] */\n      dup1\n        /* \"ERC721.sol\":9662:9667  owner */\n      dup6\n        /* \"ERC721.sol\":9652:9668  _balances[owner] */\n      0xffffffffffffffffffffffffffffffffffffffff\n      and\n      0xffffffffffffffffffffffffffffffffffffffff\n      and\n      dup2\n      mstore\n      0x20\n      add\n      swap1\n      dup2\n      mstore\n      0x20\n      add\n      0x00\n      keccak256\n      sload\n        /* \"ERC721.sol\":9652:9672  _balances[owner] - 1 */\n      tag_201\n      swap2\n      swap1\n      tag_145\n      jump\t// in\n    tag_201:\n        /* \"ERC721.sol\":9639:9672  uint index = _balances[owner] - 1 */\n      swap1\n      pop\n        /* \"ERC721.sol\":9712:9719  tokenId */\n      dup2\n        /* \"ERC721.sol\":9683:9695  _ownedTokens */\n      0x07\n        /* \"ERC721.sol\":9683:9702  _ownedTokens[owner] */\n      0x00\n        /* \"ERC721.sol\":9696:9701  owner */\n      dup6\n        /* \"ERC721.sol\":9683:9702  _ownedTokens[owner] */\n      0xffffffffffffffffffffffffffffffffffffffff\n      and\n      0xffffffffffffffffffffffffffffffffffffffff\n      and\n      dup2\n      mstore\n      0x20\n      add\n      swap1\n      dup2\n      mstore\n      0x20\n      add\n      0x00\n      keccak256\n        /* \"ERC721.sol\":9683:9709  _ownedTokens[owner][index] */\n      0x00\n        /* \"ERC721.sol\":9703:9708  index */\n      dup4\n        /* \"ERC721.sol\":9683:9709  _ownedTokens[owner][index] */\n      dup2\n      mstore\n      0x20\n      add\n      swap1\n      dup2\n      mstore\n      0x20\n      add\n      0x00\n      keccak256\n        /* \"ERC721.sol\":9683:9719  _ownedTokens[owner][index] = tokenId */\n      dup2\n      swap1\n      sstore\n      pop\n        /* \"ERC721.sol\":9759:9764  index */\n      dup1\n        /* \"ERC721.sol\":9730:9747  _ownedTokensIndex */\n      0x08\n        /* \"ERC721.sol\":9730:9756  _ownedTokensIndex[tokenId] */\n      0x00\n        /* \"ERC721.sol\":9748:9755  tokenId */\n      dup5\n        /* \"ERC721.sol\":9730:9756  _ownedTokensIndex[tokenId] */\n      dup2\n      mstore\n      0x20\n      add\n      swap1\n      dup2\n      mstore\n      0x20\n      add\n      0x00\n      keccak256\n        /* \"ERC721.sol\":9730:9764  _ownedTokensIndex[tokenId] = index */\n      dup2\n      swap1\n      sstore\n      pop\n        /* \"ERC721.sol\":9628:9772  {\r... */\n      pop\n        /* \"ERC721.sol\":9554:9772  function _addTokenToOwnerEnumeration(address owner, uint tokenId) private {\r... */\n      pop\n      pop\n      jump\t// out\n        /* \"ERC721.sol\":6889:7476  function _checkOnERC721Received(address from, address to, uint tokenId, bytes memory data) private returns(bool) {\r... */\n    tag_185:\n        /* \"ERC721.sol\":6996:7000  bool */\n      0x00\n        /* \"ERC721.sol\":7035:7036  0 */\n      dup1\n        /* \"ERC721.sol\":7017:7019  to */\n      dup5\n        /* \"ERC721.sol\":7017:7031  to.code.length */\n      0xffffffffffffffffffffffffffffffffffffffff\n      and\n      extcodesize\n        /* \"ERC721.sol\":7017:7036  to.code.length <= 0 */\n      gt\n        /* \"ERC721.sol\":7013:7049  if (to.code.length <= 0) return true */\n      tag_203\n      jumpi\n        /* \"ERC721.sol\":7045:7049  true */\n      0x01\n        /* \"ERC721.sol\":7038:7049  return true */\n      swap1\n      pop\n      jump(tag_202)\n        /* \"ERC721.sol\":7013:7049  if (to.code.length <= 0) return true */\n    tag_203:\n        /* \"ERC721.sol\":7062:7091  IERC721TokenReceiver receiver */\n      0x00\n        /* \"ERC721.sol\":7115:7117  to */\n      dup5\n        /* \"ERC721.sol\":7062:7118  IERC721TokenReceiver receiver = IERC721TokenReceiver(to) */\n      swap1\n      pop\n        /* \"ERC721.sol\":7133:7141  receiver */\n      dup1\n        /* \"ERC721.sol\":7133:7158  receiver.onERC721Received */\n      0xffffffffffffffffffffffffffffffffffffffff\n      and\n      0x150b7a02\n        /* \"ERC721.sol\":7159:7169  msg.sender */\n      caller\n        /* \"ERC721.sol\":7171:7175  from */\n      dup9\n        /* \"ERC721.sol\":7177:7184  tokenId */\n      dup8\n        /* \"ERC721.sol\":7186:7190  data */\n      dup8\n        /* \"ERC721.sol\":7133:7191  receiver.onERC721Received(msg.sender, from, tokenId, data) */\n      mload(0x40)\n      dup6\n      0xffffffff\n      and\n      0xe0\n      shl\n      dup2\n      mstore\n      0x04\n      add\n      tag_204\n      swap5\n      swap4\n      swap3\n      swap2\n      swap1\n      tag_205\n      jump\t// in\n    tag_204:\n      0x20\n      mload(0x40)\n      dup1\n      dup4\n      sub\n      dup2\n      0x00\n      dup8\n      dup1\n      extcodesize\n      iszero\n      dup1\n      iszero\n      tag_206\n      jumpi\n      0x00\n      dup1\n      revert\n    tag_206:\n      pop\n      gas\n      call\n      swap3\n      pop\n      pop\n      pop\n      dup1\n      iszero\n      tag_207\n      jumpi\n      pop\n      mload(0x40)\n      returndatasize\n      not(0x1f)\n      0x1f\n      dup3\n      add\n      and\n      dup3\n      add\n      dup1\n      0x40\n      mstore\n      pop\n      dup2\n      add\n      swap1\n      tag_208\n      swap2\n      swap1\n      tag_209\n      jump\t// in\n    tag_208:\n      0x01\n    tag_207:\n        /* \"ERC721.sol\":7129:7469  try receiver.onERC721Received(msg.sender, from, tokenId, data) returns(bytes4 interfaceId) {\r... */\n      tag_210\n      jumpi\n      tag_214\n      tag_215\n      jump\t// in\n    tag_214:\n      dup1\n      0x08c379a0\n      eq\n      iszero\n      tag_213\n      jumpi\n      pop\n      tag_216\n      tag_217\n      jump\t// in\n    tag_216:\n      dup1\n      tag_218\n      jumpi\n      pop\n      jump(tag_212)\n    tag_218:\n        /* \"ERC721.sol\":7364:7370  reason */\n      dup1\n        /* \"ERC721.sol\":7357:7371  revert(reason) */\n      mload(0x40)\n      0x08c379a000000000000000000000000000000000000000000000000000000000\n      dup2\n      mstore\n      0x04\n      add\n      tag_219\n      swap2\n      swap1\n      tag_32\n      jump\t// in\n    tag_219:\n      mload(0x40)\n      dup1\n      swap2\n      sub\n      swap1\n      revert\n        /* \"ERC721.sol\":7129:7469  try receiver.onERC721Received(msg.sender, from, tokenId, data) returns(bytes4 interfaceId) {\r... */\n    tag_213:\n      pop\n    tag_212:\n        /* \"ERC721.sol\":7405:7457  revert(\"transfer to non ERC721Receiver implementer\") */\n      mload(0x40)\n      0x08c379a000000000000000000000000000000000000000000000000000000000\n      dup2\n      mstore\n      0x04\n      add\n      tag_220\n      swap1\n      tag_188\n      jump\t// in\n    tag_220:\n      mload(0x40)\n      dup1\n      swap2\n      sub\n      swap1\n      revert\n        /* \"ERC721.sol\":7129:7469  try receiver.onERC721Received(msg.sender, from, tokenId, data) returns(bytes4 interfaceId) {\r... */\n    tag_210:\n        /* \"ERC721.sol\":7257:7295  type(IERC721TokenReceiver).interfaceId */\n      0x150b7a0200000000000000000000000000000000000000000000000000000000\n        /* \"ERC721.sol\":7242:7295  interfaceId == type(IERC721TokenReceiver).interfaceId */\n      not(0xffffffffffffffffffffffffffffffffffffffffffffffffffffffff)\n      and\n        /* \"ERC721.sol\":7242:7253  interfaceId */\n      dup2\n        /* \"ERC721.sol\":7242:7295  interfaceId == type(IERC721TokenReceiver).interfaceId */\n      not(0xffffffffffffffffffffffffffffffffffffffffffffffffffffffff)\n      and\n      eq\n        /* \"ERC721.sol\":7235:7295  return interfaceId == type(IERC721TokenReceiver).interfaceId */\n      swap3\n      pop\n      pop\n      pop\n        /* \"ERC721.sol\":6889:7476  function _checkOnERC721Received(address from, address to, uint tokenId, bytes memory data) private returns(bool) {\r... */\n    tag_202:\n      swap5\n      swap4\n      pop\n      pop\n      pop\n      pop\n      jump\t// out\n        /* \"#utility.yul\":7:417   */\n    tag_223:\n        /* \"#utility.yul\":84:89   */\n      0x00\n        /* \"#utility.yul\":109:174   */\n      tag_225\n        /* \"#utility.yul\":125:173   */\n      tag_226\n        /* \"#utility.yul\":166:172   */\n      dup5\n        /* \"#utility.yul\":125:173   */\n      tag_227\n      jump\t// in\n    tag_226:\n        /* \"#utility.yul\":109:174   */\n      tag_228\n      jump\t// in\n    tag_225:\n        /* \"#utility.yul\":100:174   */\n      swap1\n      pop\n        /* \"#utility.yul\":197:203   */\n      dup3\n        /* \"#utility.yul\":190:195   */\n      dup2\n        /* \"#utility.yul\":183:204   */\n      mstore\n        /* \"#utility.yul\":235:239   */\n      0x20\n        /* \"#utility.yul\":228:233   */\n      dup2\n        /* \"#utility.yul\":224:240   */\n      add\n        /* \"#utility.yul\":273:276   */\n      dup5\n        /* \"#utility.yul\":264:270   */\n      dup5\n        /* \"#utility.yul\":259:262   */\n      dup5\n        /* \"#utility.yul\":255:271   */\n      add\n        /* \"#utility.yul\":252:277   */\n      gt\n        /* \"#utility.yul\":249:361   */\n      iszero\n      tag_229\n      jumpi\n        /* \"#utility.yul\":280:359   */\n      tag_230\n      tag_231\n      jump\t// in\n    tag_230:\n        /* \"#utility.yul\":249:361   */\n    tag_229:\n        /* \"#utility.yul\":370:411   */\n      tag_232\n        /* \"#utility.yul\":404:410   */\n      dup5\n        /* \"#utility.yul\":399:402   */\n      dup3\n        /* \"#utility.yul\":394:397   */\n      dup6\n        /* \"#utility.yul\":370:411   */\n      tag_233\n      jump\t// in\n    tag_232:\n        /* \"#utility.yul\":90:417   */\n      pop\n        /* \"#utility.yul\":7:417   */\n      swap4\n      swap3\n      pop\n      pop\n      pop\n      jump\t// out\n        /* \"#utility.yul\":423:562   */\n    tag_234:\n        /* \"#utility.yul\":469:474   */\n      0x00\n        /* \"#utility.yul\":507:513   */\n      dup2\n        /* \"#utility.yul\":494:514   */\n      calldataload\n        /* \"#utility.yul\":485:514   */\n      swap1\n      pop\n        /* \"#utility.yul\":523:556   */\n      tag_236\n        /* \"#utility.yul\":550:555   */\n      dup2\n        /* \"#utility.yul\":523:556   */\n      tag_237\n      jump\t// in\n    tag_236:\n        /* \"#utility.yul\":423:562   */\n      swap3\n      swap2\n      pop\n      pop\n      jump\t// out\n        /* \"#utility.yul\":568:701   */\n    tag_238:\n        /* \"#utility.yul\":611:616   */\n      0x00\n        /* \"#utility.yul\":649:655   */\n      dup2\n        /* \"#utility.yul\":636:656   */\n      calldataload\n        /* \"#utility.yul\":627:656   */\n      swap1\n      pop\n        /* \"#utility.yul\":665:695   */\n      tag_240\n        /* \"#utility.yul\":689:694   */\n      dup2\n        /* \"#utility.yul\":665:695   */\n      tag_241\n      jump\t// in\n    tag_240:\n        /* \"#utility.yul\":568:701   */\n      swap3\n      swap2\n      pop\n      pop\n      jump\t// out\n        /* \"#utility.yul\":707:844   */\n    tag_242:\n        /* \"#utility.yul\":752:757   */\n      0x00\n        /* \"#utility.yul\":790:796   */\n      dup2\n        /* \"#utility.yul\":777:797   */\n      calldataload\n        /* \"#utility.yul\":768:797   */\n      swap1\n      pop\n        /* \"#utility.yul\":806:838   */\n      tag_244\n        /* \"#utility.yul\":832:837   */\n      dup2\n        /* \"#utility.yul\":806:838   */\n      tag_245\n      jump\t// in\n    tag_244:\n        /* \"#utility.yul\":707:844   */\n      swap3\n      swap2\n      pop\n      pop\n      jump\t// out\n        /* \"#utility.yul\":850:991   */\n    tag_246:\n        /* \"#utility.yul\":906:911   */\n      0x00\n        /* \"#utility.yul\":937:943   */\n      dup2\n        /* \"#utility.yul\":931:944   */\n      mload\n        /* \"#utility.yul\":922:944   */\n      swap1\n      pop\n        /* \"#utility.yul\":953:985   */\n      tag_248\n        /* \"#utility.yul\":979:984   */\n      dup2\n        /* \"#utility.yul\":953:985   */\n      tag_245\n      jump\t// in\n    tag_248:\n        /* \"#utility.yul\":850:991   */\n      swap3\n      swap2\n      pop\n      pop\n      jump\t// out\n        /* \"#utility.yul\":1010:1348   */\n    tag_249:\n        /* \"#utility.yul\":1065:1070   */\n      0x00\n        /* \"#utility.yul\":1114:1117   */\n      dup3\n        /* \"#utility.yul\":1107:1111   */\n      0x1f\n        /* \"#utility.yul\":1099:1105   */\n      dup4\n        /* \"#utility.yul\":1095:1112   */\n      add\n        /* \"#utility.yul\":1091:1118   */\n      slt\n        /* \"#utility.yul\":1081:1203   */\n      tag_251\n      jumpi\n        /* \"#utility.yul\":1122:1201   */\n      tag_252\n      tag_253\n      jump\t// in\n    tag_252:\n        /* \"#utility.yul\":1081:1203   */\n    tag_251:\n        /* \"#utility.yul\":1239:1245   */\n      dup2\n        /* \"#utility.yul\":1226:1246   */\n      calldataload\n        /* \"#utility.yul\":1264:1342   */\n      tag_254\n        /* \"#utility.yul\":1338:1341   */\n      dup5\n        /* \"#utility.yul\":1330:1336   */\n      dup3\n        /* \"#utility.yul\":1323:1327   */\n      0x20\n        /* \"#utility.yul\":1315:1321   */\n      dup7\n        /* \"#utility.yul\":1311:1328   */\n      add\n        /* \"#utility.yul\":1264:1342   */\n      tag_223\n      jump\t// in\n    tag_254:\n        /* \"#utility.yul\":1255:1342   */\n      swap2\n      pop\n        /* \"#utility.yul\":1071:1348   */\n      pop\n        /* \"#utility.yul\":1010:1348   */\n      swap3\n      swap2\n      pop\n      pop\n      jump\t// out\n        /* \"#utility.yul\":1354:1493   */\n    tag_255:\n        /* \"#utility.yul\":1400:1405   */\n      0x00\n        /* \"#utility.yul\":1438:1444   */\n      dup2\n        /* \"#utility.yul\":1425:1445   */\n      calldataload\n        /* \"#utility.yul\":1416:1445   */\n      swap1\n      pop\n        /* \"#utility.yul\":1454:1487   */\n      tag_257\n        /* \"#utility.yul\":1481:1486   */\n      dup2\n        /* \"#utility.yul\":1454:1487   */\n      tag_258\n      jump\t// in\n    tag_257:\n        /* \"#utility.yul\":1354:1493   */\n      swap3\n      swap2\n      pop\n      pop\n      jump\t// out\n        /* \"#utility.yul\":1499:1828   */\n    tag_72:\n        /* \"#utility.yul\":1558:1564   */\n      0x00\n        /* \"#utility.yul\":1607:1609   */\n      0x20\n        /* \"#utility.yul\":1595:1604   */\n      dup3\n        /* \"#utility.yul\":1586:1593   */\n      dup5\n        /* \"#utility.yul\":1582:1605   */\n      sub\n        /* \"#utility.yul\":1578:1610   */\n      slt\n        /* \"#utility.yul\":1575:1694   */\n      iszero\n      tag_260\n      jumpi\n        /* \"#utility.yul\":1613:1692   */\n      tag_261\n      tag_262\n      jump\t// in\n    tag_261:\n        /* \"#utility.yul\":1575:1694   */\n    tag_260:\n        /* \"#utility.yul\":1733:1734   */\n      0x00\n        /* \"#utility.yul\":1758:1811   */\n      tag_263\n        /* \"#utility.yul\":1803:1810   */\n      dup5\n        /* \"#utility.yul\":1794:1800   */\n      dup3\n        /* \"#utility.yul\":1783:1792   */\n      dup6\n        /* \"#utility.yul\":1779:1801   */\n      add\n        /* \"#utility.yul\":1758:1811   */\n      tag_234\n      jump\t// in\n    tag_263:\n        /* \"#utility.yul\":1748:1811   */\n      swap2\n      pop\n        /* \"#utility.yul\":1704:1821   */\n      pop\n        /* \"#utility.yul\":1499:1828   */\n      swap3\n      swap2\n      pop\n      pop\n      jump\t// out\n        /* \"#utility.yul\":1834:2308   */\n    tag_92:\n        /* \"#utility.yul\":1902:1908   */\n      0x00\n        /* \"#utility.yul\":1910:1916   */\n      dup1\n        /* \"#utility.yul\":1959:1961   */\n      0x40\n        /* \"#utility.yul\":1947:1956   */\n      dup4\n        /* \"#utility.yul\":1938:1945   */\n      dup6\n        /* \"#utility.yul\":1934:1957   */\n      sub\n        /* \"#utility.yul\":1930:1962   */\n      slt\n        /* \"#utility.yul\":1927:2046   */\n      iszero\n      tag_265\n      jumpi\n        /* \"#utility.yul\":1965:2044   */\n      tag_266\n      tag_262\n      jump\t// in\n    tag_266:\n        /* \"#utility.yul\":1927:2046   */\n    tag_265:\n        /* \"#utility.yul\":2085:2086   */\n      0x00\n        /* \"#utility.yul\":2110:2163   */\n      tag_267\n        /* \"#utility.yul\":2155:2162   */\n      dup6\n        /* \"#utility.yul\":2146:2152   */\n      dup3\n        /* \"#utility.yul\":2135:2144   */\n      dup7\n        /* \"#utility.yul\":2131:2153   */\n      add\n        /* \"#utility.yul\":2110:2163   */\n      tag_234\n      jump\t// in\n    tag_267:\n        /* \"#utility.yul\":2100:2163   */\n      swap3\n      pop\n        /* \"#utility.yul\":2056:2173   */\n      pop\n        /* \"#utility.yul\":2212:2214   */\n      0x20\n        /* \"#utility.yul\":2238:2291   */\n      tag_268\n        /* \"#utility.yul\":2283:2290   */\n      dup6\n        /* \"#utility.yul\":2274:2280   */\n      dup3\n        /* \"#utility.yul\":2263:2272   */\n      dup7\n        /* \"#utility.yul\":2259:2281   */\n      add\n        /* \"#utility.yul\":2238:2291   */\n      tag_234\n      jump\t// in\n    tag_268:\n        /* \"#utility.yul\":2228:2291   */\n      swap2\n      pop\n        /* \"#utility.yul\":2183:2301   */\n      pop\n        /* \"#utility.yul\":1834:2308   */\n      swap3\n      pop\n      swap3\n      swap1\n      pop\n      jump\t// out\n        /* \"#utility.yul\":2314:2933   */\n    tag_53:\n        /* \"#utility.yul\":2391:2397   */\n      0x00\n        /* \"#utility.yul\":2399:2405   */\n      dup1\n        /* \"#utility.yul\":2407:2413   */\n      0x00\n        /* \"#utility.yul\":2456:2458   */\n      0x60\n        /* \"#utility.yul\":2444:2453   */\n      dup5\n        /* \"#utility.yul\":2435:2442   */\n      dup7\n        /* \"#utility.yul\":2431:2454   */\n      sub\n        /* \"#utility.yul\":2427:2459   */\n      slt\n        /* \"#utility.yul\":2424:2543   */\n      iszero\n      tag_270\n      jumpi\n        /* \"#utility.yul\":2462:2541   */\n      tag_271\n      tag_262\n      jump\t// in\n    tag_271:\n        /* \"#utility.yul\":2424:2543   */\n    tag_270:\n        /* \"#utility.yul\":2582:2583   */\n      0x00\n        /* \"#utility.yul\":2607:2660   */\n      tag_272\n        /* \"#utility.yul\":2652:2659   */\n      dup7\n        /* \"#utility.yul\":2643:2649   */\n      dup3\n        /* \"#utility.yul\":2632:2641   */\n      dup8\n        /* \"#utility.yul\":2628:2650   */\n      add\n        /* \"#utility.yul\":2607:2660   */\n      tag_234\n      jump\t// in\n    tag_272:\n        /* \"#utility.yul\":2597:2660   */\n      swap4\n      pop\n        /* \"#utility.yul\":2553:2670   */\n      pop\n        /* \"#utility.yul\":2709:2711   */\n      0x20\n        /* \"#utility.yul\":2735:2788   */\n      tag_273\n        /* \"#utility.yul\":2780:2787   */\n      dup7\n        /* \"#utility.yul\":2771:2777   */\n      dup3\n        /* \"#utility.yul\":2760:2769   */\n      dup8\n        /* \"#utility.yul\":2756:2778   */\n      add\n        /* \"#utility.yul\":2735:2788   */\n      tag_234\n      jump\t// in\n    tag_273:\n        /* \"#utility.yul\":2725:2788   */\n      swap3\n      pop\n        /* \"#utility.yul\":2680:2798   */\n      pop\n        /* \"#utility.yul\":2837:2839   */\n      0x40\n        /* \"#utility.yul\":2863:2916   */\n      tag_274\n        /* \"#utility.yul\":2908:2915   */\n      dup7\n        /* \"#utility.yul\":2899:2905   */\n      dup3\n        /* \"#utility.yul\":2888:2897   */\n      dup8\n        /* \"#utility.yul\":2884:2906   */\n      add\n        /* \"#utility.yul\":2863:2916   */\n      tag_255\n      jump\t// in\n    tag_274:\n        /* \"#utility.yul\":2853:2916   */\n      swap2\n      pop\n        /* \"#utility.yul\":2808:2926   */\n      pop\n        /* \"#utility.yul\":2314:2933   */\n      swap3\n      pop\n      swap3\n      pop\n      swap3\n      jump\t// out\n        /* \"#utility.yul\":2939:3882   */\n    tag_84:\n        /* \"#utility.yul\":3034:3040   */\n      0x00\n        /* \"#utility.yul\":3042:3048   */\n      dup1\n        /* \"#utility.yul\":3050:3056   */\n      0x00\n        /* \"#utility.yul\":3058:3064   */\n      dup1\n        /* \"#utility.yul\":3107:3110   */\n      0x80\n        /* \"#utility.yul\":3095:3104   */\n      dup6\n        /* \"#utility.yul\":3086:3093   */\n      dup8\n        /* \"#utility.yul\":3082:3105   */\n      sub\n        /* \"#utility.yul\":3078:3111   */\n      slt\n        /* \"#utility.yul\":3075:3195   */\n      iszero\n      tag_276\n      jumpi\n        /* \"#utility.yul\":3114:3193   */\n      tag_277\n      tag_262\n      jump\t// in\n    tag_277:\n        /* \"#utility.yul\":3075:3195   */\n    tag_276:\n        /* \"#utility.yul\":3234:3235   */\n      0x00\n        /* \"#utility.yul\":3259:3312   */\n      tag_278\n        /* \"#utility.yul\":3304:3311   */\n      dup8\n        /* \"#utility.yul\":3295:3301   */\n      dup3\n        /* \"#utility.yul\":3284:3293   */\n      dup9\n        /* \"#utility.yul\":3280:3302   */\n      add\n        /* \"#utility.yul\":3259:3312   */\n      tag_234\n      jump\t// in\n    tag_278:\n        /* \"#utility.yul\":3249:3312   */\n      swap5\n      pop\n        /* \"#utility.yul\":3205:3322   */\n      pop\n        /* \"#utility.yul\":3361:3363   */\n      0x20\n        /* \"#utility.yul\":3387:3440   */\n      tag_279\n        /* \"#utility.yul\":3432:3439   */\n      dup8\n        /* \"#utility.yul\":3423:3429   */\n      dup3\n        /* \"#utility.yul\":3412:3421   */\n      dup9\n        /* \"#utility.yul\":3408:3430   */\n      add\n        /* \"#utility.yul\":3387:3440   */\n      tag_234\n      jump\t// in\n    tag_279:\n        /* \"#utility.yul\":3377:3440   */\n      swap4\n      pop\n        /* \"#utility.yul\":3332:3450   */\n      pop\n        /* \"#utility.yul\":3489:3491   */\n      0x40\n        /* \"#utility.yul\":3515:3568   */\n      tag_280\n        /* \"#utility.yul\":3560:3567   */\n      dup8\n        /* \"#utility.yul\":3551:3557   */\n      dup3\n        /* \"#utility.yul\":3540:3549   */\n      dup9\n        /* \"#utility.yul\":3536:3558   */\n      add\n        /* \"#utility.yul\":3515:3568   */\n      tag_255\n      jump\t// in\n    tag_280:\n        /* \"#utility.yul\":3505:3568   */\n      swap3\n      pop\n        /* \"#utility.yul\":3460:3578   */\n      pop\n        /* \"#utility.yul\":3645:3647   */\n      0x60\n        /* \"#utility.yul\":3634:3643   */\n      dup6\n        /* \"#utility.yul\":3630:3648   */\n      add\n        /* \"#utility.yul\":3617:3649   */\n      calldataload\n        /* \"#utility.yul\":3676:3694   */\n      0xffffffffffffffff\n        /* \"#utility.yul\":3668:3674   */\n      dup2\n        /* \"#utility.yul\":3665:3695   */\n      gt\n        /* \"#utility.yul\":3662:3779   */\n      iszero\n      tag_281\n      jumpi\n        /* \"#utility.yul\":3698:3777   */\n      tag_282\n      tag_283\n      jump\t// in\n    tag_282:\n        /* \"#utility.yul\":3662:3779   */\n    tag_281:\n        /* \"#utility.yul\":3803:3865   */\n      tag_284\n        /* \"#utility.yul\":3857:3864   */\n      dup8\n        /* \"#utility.yul\":3848:3854   */\n      dup3\n        /* \"#utility.yul\":3837:3846   */\n      dup9\n        /* \"#utility.yul\":3833:3855   */\n      add\n        /* \"#utility.yul\":3803:3865   */\n      tag_249\n      jump\t// in\n    tag_284:\n        /* \"#utility.yul\":3793:3865   */\n      swap2\n      pop\n        /* \"#utility.yul\":3588:3875   */\n      pop\n        /* \"#utility.yul\":2939:3882   */\n      swap3\n      swap6\n      swap2\n      swap5\n      pop\n      swap3\n      pop\n      jump\t// out\n        /* \"#utility.yul\":3888:4356   */\n    tag_80:\n        /* \"#utility.yul\":3953:3959   */\n      0x00\n        /* \"#utility.yul\":3961:3967   */\n      dup1\n        /* \"#utility.yul\":4010:4012   */\n      0x40\n        /* \"#utility.yul\":3998:4007   */\n      dup4\n        /* \"#utility.yul\":3989:3996   */\n      dup6\n        /* \"#utility.yul\":3985:4008   */\n      sub\n        /* \"#utility.yul\":3981:4013   */\n      slt\n        /* \"#utility.yul\":3978:4097   */\n      iszero\n      tag_286\n      jumpi\n        /* \"#utility.yul\":4016:4095   */\n      tag_287\n      tag_262\n      jump\t// in\n    tag_287:\n        /* \"#utility.yul\":3978:4097   */\n    tag_286:\n        /* \"#utility.yul\":4136:4137   */\n      0x00\n        /* \"#utility.yul\":4161:4214   */\n      tag_288\n        /* \"#utility.yul\":4206:4213   */\n      dup6\n        /* \"#utility.yul\":4197:4203   */\n      dup3\n        /* \"#utility.yul\":4186:4195   */\n      dup7\n        /* \"#utility.yul\":4182:4204   */\n      add\n        /* \"#utility.yul\":4161:4214   */\n      tag_234\n      jump\t// in\n    tag_288:\n        /* \"#utility.yul\":4151:4214   */\n      swap3\n      pop\n        /* \"#utility.yul\":4107:4224   */\n      pop\n        /* \"#utility.yul\":4263:4265   */\n      0x20\n        /* \"#utility.yul\":4289:4339   */\n      tag_289\n        /* \"#utility.yul\":4331:4338   */\n      dup6\n        /* \"#utility.yul\":4322:4328   */\n      dup3\n        /* \"#utility.yul\":4311:4320   */\n      dup7\n        /* \"#utility.yul\":4307:4329   */\n      add\n        /* \"#utility.yul\":4289:4339   */\n      tag_238\n      jump\t// in\n    tag_289:\n        /* \"#utility.yul\":4279:4339   */\n      swap2\n      pop\n        /* \"#utility.yul\":4234:4349   */\n      pop\n        /* \"#utility.yul\":3888:4356   */\n      swap3\n      pop\n      swap3\n      swap1\n      pop\n      jump\t// out\n        /* \"#utility.yul\":4362:4836   */\n    tag_41:\n        /* \"#utility.yul\":4430:4436   */\n      0x00\n        /* \"#utility.yul\":4438:4444   */\n      dup1\n        /* \"#utility.yul\":4487:4489   */\n      0x40\n        /* \"#utility.yul\":4475:4484   */\n      dup4\n        /* \"#utility.yul\":4466:4473   */\n      dup6\n        /* \"#utility.yul\":4462:4485   */\n      sub\n        /* \"#utility.yul\":4458:4490   */\n      slt\n        /* \"#utility.yul\":4455:4574   */\n      iszero\n      tag_291\n      jumpi\n        /* \"#utility.yul\":4493:4572   */\n      tag_292\n      tag_262\n      jump\t// in\n    tag_292:\n        /* \"#utility.yul\":4455:4574   */\n    tag_291:\n        /* \"#utility.yul\":4613:4614   */\n      0x00\n        /* \"#utility.yul\":4638:4691   */\n      tag_293\n        /* \"#utility.yul\":4683:4690   */\n      dup6\n        /* \"#utility.yul\":4674:4680   */\n      dup3\n        /* \"#utility.yul\":4663:4672   */\n      dup7\n        /* \"#utility.yul\":4659:4681   */\n      add\n        /* \"#utility.yul\":4638:4691   */\n      tag_234\n      jump\t// in\n    tag_293:\n        /* \"#utility.yul\":4628:4691   */\n      swap3\n      pop\n        /* \"#utility.yul\":4584:4701   */\n      pop\n        /* \"#utility.yul\":4740:4742   */\n      0x20\n        /* \"#utility.yul\":4766:4819   */\n      tag_294\n        /* \"#utility.yul\":4811:4818   */\n      dup6\n        /* \"#utility.yul\":4802:4808   */\n      dup3\n        /* \"#utility.yul\":4791:4800   */\n      dup7\n        /* \"#utility.yul\":4787:4809   */\n      add\n        /* \"#utility.yul\":4766:4819   */\n      tag_255\n      jump\t// in\n    tag_294:\n        /* \"#utility.yul\":4756:4819   */\n      swap2\n      pop\n        /* \"#utility.yul\":4711:4829   */\n      pop\n        /* \"#utility.yul\":4362:4836   */\n      swap3\n      pop\n      swap3\n      swap1\n      pop\n      jump\t// out\n        /* \"#utility.yul\":4842:5169   */\n    tag_25:\n        /* \"#utility.yul\":4900:4906   */\n      0x00\n        /* \"#utility.yul\":4949:4951   */\n      0x20\n        /* \"#utility.yul\":4937:4946   */\n      dup3\n        /* \"#utility.yul\":4928:4935   */\n      dup5\n        /* \"#utility.yul\":4924:4947   */\n      sub\n        /* \"#utility.yul\":4920:4952   */\n      slt\n        /* \"#utility.yul\":4917:5036   */\n      iszero\n      tag_296\n      jumpi\n        /* \"#utility.yul\":4955:5034   */\n      tag_297\n      tag_262\n      jump\t// in\n    tag_297:\n        /* \"#utility.yul\":4917:5036   */\n    tag_296:\n        /* \"#utility.yul\":5075:5076   */\n      0x00\n        /* \"#utility.yul\":5100:5152   */\n      tag_298\n        /* \"#utility.yul\":5144:5151   */\n      dup5\n        /* \"#utility.yul\":5135:5141   */\n      dup3\n        /* \"#utility.yul\":5124:5133   */\n      dup6\n        /* \"#utility.yul\":5120:5142   */\n      add\n        /* \"#utility.yul\":5100:5152   */\n      tag_242\n      jump\t// in\n    tag_298:\n        /* \"#utility.yul\":5090:5152   */\n      swap2\n      pop\n        /* \"#utility.yul\":5046:5162   */\n      pop\n        /* \"#utility.yul\":4842:5169   */\n      swap3\n      swap2\n      pop\n      pop\n      jump\t// out\n        /* \"#utility.yul\":5175:5524   */\n    tag_209:\n        /* \"#utility.yul\":5244:5250   */\n      0x00\n        /* \"#utility.yul\":5293:5295   */\n      0x20\n        /* \"#utility.yul\":5281:5290   */\n      dup3\n        /* \"#utility.yul\":5272:5279   */\n      dup5\n        /* \"#utility.yul\":5268:5291   */\n      sub\n        /* \"#utility.yul\":5264:5296   */\n      slt\n        /* \"#utility.yul\":5261:5380   */\n      iszero\n      tag_300\n      jumpi\n        /* \"#utility.yul\":5299:5378   */\n      tag_301\n      tag_262\n      jump\t// in\n    tag_301:\n        /* \"#utility.yul\":5261:5380   */\n    tag_300:\n        /* \"#utility.yul\":5419:5420   */\n      0x00\n        /* \"#utility.yul\":5444:5507   */\n      tag_302\n        /* \"#utility.yul\":5499:5506   */\n      dup5\n        /* \"#utility.yul\":5490:5496   */\n      dup3\n        /* \"#utility.yul\":5479:5488   */\n      dup6\n        /* \"#utility.yul\":5475:5497   */\n      add\n        /* \"#utility.yul\":5444:5507   */\n      tag_246\n      jump\t// in\n    tag_302:\n        /* \"#utility.yul\":5434:5507   */\n      swap2\n      pop\n        /* \"#utility.yul\":5390:5517   */\n      pop\n        /* \"#utility.yul\":5175:5524   */\n      swap3\n      swap2\n      pop\n      pop\n      jump\t// out\n        /* \"#utility.yul\":5530:5859   */\n    tag_35:\n        /* \"#utility.yul\":5589:5595   */\n      0x00\n        /* \"#utility.yul\":5638:5640   */\n      0x20\n        /* \"#utility.yul\":5626:5635   */\n      dup3\n        /* \"#utility.yul\":5617:5624   */\n      dup5\n        /* \"#utility.yul\":5613:5636   */\n      sub\n        /* \"#utility.yul\":5609:5641   */\n      slt\n        /* \"#utility.yul\":5606:5725   */\n      iszero\n      tag_304\n      jumpi\n        /* \"#utility.yul\":5644:5723   */\n      tag_305\n      tag_262\n      jump\t// in\n    tag_305:\n        /* \"#utility.yul\":5606:5725   */\n    tag_304:\n        /* \"#utility.yul\":5764:5765   */\n      0x00\n        /* \"#utility.yul\":5789:5842   */\n      tag_306\n        /* \"#utility.yul\":5834:5841   */\n      dup5\n        /* \"#utility.yul\":5825:5831   */\n      dup3\n        /* \"#utility.yul\":5814:5823   */\n      dup6\n        /* \"#utility.yul\":5810:5832   */\n      add\n        /* \"#utility.yul\":5789:5842   */\n      tag_255\n      jump\t// in\n    tag_306:\n        /* \"#utility.yul\":5779:5842   */\n      swap2\n      pop\n        /* \"#utility.yul\":5735:5852   */\n      pop\n        /* \"#utility.yul\":5530:5859   */\n      swap3\n      swap2\n      pop\n      pop\n      jump\t// out\n        /* \"#utility.yul\":5865:5983   */\n    tag_307:\n        /* \"#utility.yul\":5952:5976   */\n      tag_309\n        /* \"#utility.yul\":5970:5975   */\n      dup2\n        /* \"#utility.yul\":5952:5976   */\n      tag_310\n      jump\t// in\n    tag_309:\n        /* \"#utility.yul\":5947:5950   */\n      dup3\n        /* \"#utility.yul\":5940:5977   */\n      mstore\n        /* \"#utility.yul\":5865:5983   */\n      pop\n      pop\n      jump\t// out\n        /* \"#utility.yul\":5989:6098   */\n    tag_311:\n        /* \"#utility.yul\":6070:6091   */\n      tag_313\n        /* \"#utility.yul\":6085:6090   */\n      dup2\n        /* \"#utility.yul\":6070:6091   */\n      tag_314\n      jump\t// in\n    tag_313:\n        /* \"#utility.yul\":6065:6068   */\n      dup3\n        /* \"#utility.yul\":6058:6092   */\n      mstore\n        /* \"#utility.yul\":5989:6098   */\n      pop\n      pop\n      jump\t// out\n        /* \"#utility.yul\":6104:6464   */\n    tag_315:\n        /* \"#utility.yul\":6190:6193   */\n      0x00\n        /* \"#utility.yul\":6218:6256   */\n      tag_317\n        /* \"#utility.yul\":6250:6255   */\n      dup3\n        /* \"#utility.yul\":6218:6256   */\n      tag_318\n      jump\t// in\n    tag_317:\n        /* \"#utility.yul\":6272:6342   */\n      tag_319\n        /* \"#utility.yul\":6335:6341   */\n      dup2\n        /* \"#utility.yul\":6330:6333   */\n      dup6\n        /* \"#utility.yul\":6272:6342   */\n      tag_320\n      jump\t// in\n    tag_319:\n        /* \"#utility.yul\":6265:6342   */\n      swap4\n      pop\n        /* \"#utility.yul\":6351:6403   */\n      tag_321\n        /* \"#utility.yul\":6396:6402   */\n      dup2\n        /* \"#utility.yul\":6391:6394   */\n      dup6\n        /* \"#utility.yul\":6384:6388   */\n      0x20\n        /* \"#utility.yul\":6377:6382   */\n      dup7\n        /* \"#utility.yul\":6373:6389   */\n      add\n        /* \"#utility.yul\":6351:6403   */\n      tag_322\n      jump\t// in\n    tag_321:\n        /* \"#utility.yul\":6428:6457   */\n      tag_323\n        /* \"#utility.yul\":6450:6456   */\n      dup2\n        /* \"#utility.yul\":6428:6457   */\n      tag_324\n      jump\t// in\n    tag_323:\n        /* \"#utility.yul\":6423:6426   */\n      dup5\n        /* \"#utility.yul\":6419:6458   */\n      add\n        /* \"#utility.yul\":6412:6458   */\n      swap2\n      pop\n        /* \"#utility.yul\":6194:6464   */\n      pop\n        /* \"#utility.yul\":6104:6464   */\n      swap3\n      swap2\n      pop\n      pop\n      jump\t// out\n        /* \"#utility.yul\":6470:6834   */\n    tag_325:\n        /* \"#utility.yul\":6558:6561   */\n      0x00\n        /* \"#utility.yul\":6586:6625   */\n      tag_327\n        /* \"#utility.yul\":6619:6624   */\n      dup3\n        /* \"#utility.yul\":6586:6625   */\n      tag_328\n      jump\t// in\n    tag_327:\n        /* \"#utility.yul\":6641:6712   */\n      tag_329\n        /* \"#utility.yul\":6705:6711   */\n      dup2\n        /* \"#utility.yul\":6700:6703   */\n      dup6\n        /* \"#utility.yul\":6641:6712   */\n      tag_330\n      jump\t// in\n    tag_329:\n        /* \"#utility.yul\":6634:6712   */\n      swap4\n      pop\n        /* \"#utility.yul\":6721:6773   */\n      tag_331\n        /* \"#utility.yul\":6766:6772   */\n      dup2\n        /* \"#utility.yul\":6761:6764   */\n      dup6\n        /* \"#utility.yul\":6754:6758   */\n      0x20\n        /* \"#utility.yul\":6747:6752   */\n      dup7\n        /* \"#utility.yul\":6743:6759   */\n      add\n        /* \"#utility.yul\":6721:6773   */\n      tag_322\n      jump\t// in\n    tag_331:\n        /* \"#utility.yul\":6798:6827   */\n      tag_332\n        /* \"#utility.yul\":6820:6826   */\n      dup2\n        /* \"#utility.yul\":6798:6827   */\n      tag_324\n      jump\t// in\n    tag_332:\n        /* \"#utility.yul\":6793:6796   */\n      dup5\n        /* \"#utility.yul\":6789:6828   */\n      add\n        /* \"#utility.yul\":6782:6828   */\n      swap2\n      pop\n        /* \"#utility.yul\":6562:6834   */\n      pop\n        /* \"#utility.yul\":6470:6834   */\n      swap3\n      swap2\n      pop\n      pop\n      jump\t// out\n        /* \"#utility.yul\":6840:7206   */\n    tag_333:\n        /* \"#utility.yul\":6982:6985   */\n      0x00\n        /* \"#utility.yul\":7003:7070   */\n      tag_335\n        /* \"#utility.yul\":7067:7069   */\n      0x1a\n        /* \"#utility.yul\":7062:7065   */\n      dup4\n        /* \"#utility.yul\":7003:7070   */\n      tag_330\n      jump\t// in\n    tag_335:\n        /* \"#utility.yul\":6996:7070   */\n      swap2\n      pop\n        /* \"#utility.yul\":7079:7172   */\n      tag_336\n        /* \"#utility.yul\":7168:7171   */\n      dup3\n        /* \"#utility.yul\":7079:7172   */\n      tag_337\n      jump\t// in\n    tag_336:\n        /* \"#utility.yul\":7197:7199   */\n      0x20\n        /* \"#utility.yul\":7192:7195   */\n      dup3\n        /* \"#utility.yul\":7188:7200   */\n      add\n        /* \"#utility.yul\":7181:7200   */\n      swap1\n      pop\n        /* \"#utility.yul\":6840:7206   */\n      swap2\n      swap1\n      pop\n      jump\t// out\n        /* \"#utility.yul\":7212:7578   */\n    tag_338:\n        /* \"#utility.yul\":7354:7357   */\n      0x00\n        /* \"#utility.yul\":7375:7442   */\n      tag_340\n        /* \"#utility.yul\":7439:7441   */\n      0x1f\n        /* \"#utility.yul\":7434:7437   */\n      dup4\n        /* \"#utility.yul\":7375:7442   */\n      tag_330\n      jump\t// in\n    tag_340:\n        /* \"#utility.yul\":7368:7442   */\n      swap2\n      pop\n        /* \"#utility.yul\":7451:7544   */\n      tag_341\n        /* \"#utility.yul\":7540:7543   */\n      dup3\n        /* \"#utility.yul\":7451:7544   */\n      tag_342\n      jump\t// in\n    tag_341:\n        /* \"#utility.yul\":7569:7571   */\n      0x20\n        /* \"#utility.yul\":7564:7567   */\n      dup3\n        /* \"#utility.yul\":7560:7572   */\n      add\n        /* \"#utility.yul\":7553:7572   */\n      swap1\n      pop\n        /* \"#utility.yul\":7212:7578   */\n      swap2\n      swap1\n      pop\n      jump\t// out\n        /* \"#utility.yul\":7584:7950   */\n    tag_343:\n        /* \"#utility.yul\":7726:7729   */\n      0x00\n        /* \"#utility.yul\":7747:7814   */\n      tag_345\n        /* \"#utility.yul\":7811:7813   */\n      0x15\n        /* \"#utility.yul\":7806:7809   */\n      dup4\n        /* \"#utility.yul\":7747:7814   */\n      tag_330\n      jump\t// in\n    tag_345:\n        /* \"#utility.yul\":7740:7814   */\n      swap2\n      pop\n        /* \"#utility.yul\":7823:7916   */\n      tag_346\n        /* \"#utility.yul\":7912:7915   */\n      dup3\n        /* \"#utility.yul\":7823:7916   */\n      tag_347\n      jump\t// in\n    tag_346:\n        /* \"#utility.yul\":7941:7943   */\n      0x20\n        /* \"#utility.yul\":7936:7939   */\n      dup3\n        /* \"#utility.yul\":7932:7944   */\n      add\n        /* \"#utility.yul\":7925:7944   */\n      swap1\n      pop\n        /* \"#utility.yul\":7584:7950   */\n      swap2\n      swap1\n      pop\n      jump\t// out\n        /* \"#utility.yul\":7956:8322   */\n    tag_348:\n        /* \"#utility.yul\":8098:8101   */\n      0x00\n        /* \"#utility.yul\":8119:8186   */\n      tag_350\n        /* \"#utility.yul\":8183:8185   */\n      0x2a\n        /* \"#utility.yul\":8178:8181   */\n      dup4\n        /* \"#utility.yul\":8119:8186   */\n      tag_330\n      jump\t// in\n    tag_350:\n        /* \"#utility.yul\":8112:8186   */\n      swap2\n      pop\n        /* \"#utility.yul\":8195:8288   */\n      tag_351\n        /* \"#utility.yul\":8284:8287   */\n      dup3\n        /* \"#utility.yul\":8195:8288   */\n      tag_352\n      jump\t// in\n    tag_351:\n        /* \"#utility.yul\":8313:8315   */\n      0x40\n        /* \"#utility.yul\":8308:8311   */\n      dup3\n        /* \"#utility.yul\":8304:8316   */\n      add\n        /* \"#utility.yul\":8297:8316   */\n      swap1\n      pop\n        /* \"#utility.yul\":7956:8322   */\n      swap2\n      swap1\n      pop\n      jump\t// out\n        /* \"#utility.yul\":8328:8694   */\n    tag_353:\n        /* \"#utility.yul\":8470:8473   */\n      0x00\n        /* \"#utility.yul\":8491:8558   */\n      tag_355\n        /* \"#utility.yul\":8555:8557   */\n      0x2d\n        /* \"#utility.yul\":8550:8553   */\n      dup4\n        /* \"#utility.yul\":8491:8558   */\n      tag_330\n      jump\t// in\n    tag_355:\n        /* \"#utility.yul\":8484:8558   */\n      swap2\n      pop\n        /* \"#utility.yul\":8567:8660   */\n      tag_356\n        /* \"#utility.yul\":8656:8659   */\n      dup3\n        /* \"#utility.yul\":8567:8660   */\n      tag_357\n      jump\t// in\n    tag_356:\n        /* \"#utility.yul\":8685:8687   */\n      0x40\n        /* \"#utility.yul\":8680:8683   */\n      dup3\n        /* \"#utility.yul\":8676:8688   */\n      add\n        /* \"#utility.yul\":8669:8688   */\n      swap1\n      pop\n        /* \"#utility.yul\":8328:8694   */\n      swap2\n      swap1\n      pop\n      jump\t// out\n        /* \"#utility.yul\":8700:9066   */\n    tag_358:\n        /* \"#utility.yul\":8842:8845   */\n      0x00\n        /* \"#utility.yul\":8863:8930   */\n      tag_360\n        /* \"#utility.yul\":8927:8929   */\n      0x18\n        /* \"#utility.yul\":8922:8925   */\n      dup4\n        /* \"#utility.yul\":8863:8930   */\n      tag_330\n      jump\t// in\n    tag_360:\n        /* \"#utility.yul\":8856:8930   */\n      swap2\n      pop\n        /* \"#utility.yul\":8939:9032   */\n      tag_361\n        /* \"#utility.yul\":9028:9031   */\n      dup3\n        /* \"#utility.yul\":8939:9032   */\n      tag_362\n      jump\t// in\n    tag_361:\n        /* \"#utility.yul\":9057:9059   */\n      0x20\n        /* \"#utility.yul\":9052:9055   */\n      dup3\n        /* \"#utility.yul\":9048:9060   */\n      add\n        /* \"#utility.yul\":9041:9060   */\n      swap1\n      pop\n        /* \"#utility.yul\":8700:9066   */\n      swap2\n      swap1\n      pop\n      jump\t// out\n        /* \"#utility.yul\":9072:9438   */\n    tag_363:\n        /* \"#utility.yul\":9214:9217   */\n      0x00\n        /* \"#utility.yul\":9235:9302   */\n      tag_365\n        /* \"#utility.yul\":9299:9301   */\n      0x20\n        /* \"#utility.yul\":9294:9297   */\n      dup4\n        /* \"#utility.yul\":9235:9302   */\n      tag_330\n      jump\t// in\n    tag_365:\n        /* \"#utility.yul\":9228:9302   */\n      swap2\n      pop\n        /* \"#utility.yul\":9311:9404   */\n      tag_366\n        /* \"#utility.yul\":9400:9403   */\n      dup3\n        /* \"#utility.yul\":9311:9404   */\n      tag_367\n      jump\t// in\n    tag_366:\n        /* \"#utility.yul\":9429:9431   */\n      0x20\n        /* \"#utility.yul\":9424:9427   */\n      dup3\n        /* \"#utility.yul\":9420:9432   */\n      add\n        /* \"#utility.yul\":9413:9432   */\n      swap1\n      pop\n        /* \"#utility.yul\":9072:9438   */\n      swap2\n      swap1\n      pop\n      jump\t// out\n        /* \"#utility.yul\":9444:9810   */\n    tag_368:\n        /* \"#utility.yul\":9586:9589   */\n      0x00\n        /* \"#utility.yul\":9607:9674   */\n      tag_370\n        /* \"#utility.yul\":9671:9673   */\n      0x18\n        /* \"#utility.yul\":9666:9669   */\n      dup4\n        /* \"#utility.yul\":9607:9674   */\n      tag_330\n      jump\t// in\n    tag_370:\n        /* \"#utility.yul\":9600:9674   */\n      swap2\n      pop\n        /* \"#utility.yul\":9683:9776   */\n      tag_371\n        /* \"#utility.yul\":9772:9775   */\n      dup3\n        /* \"#utility.yul\":9683:9776   */\n      tag_372\n      jump\t// in\n    tag_371:\n        /* \"#utility.yul\":9801:9803   */\n      0x20\n        /* \"#utility.yul\":9796:9799   */\n      dup3\n        /* \"#utility.yul\":9792:9804   */\n      add\n        /* \"#utility.yul\":9785:9804   */\n      swap1\n      pop\n        /* \"#utility.yul\":9444:9810   */\n      swap2\n      swap1\n      pop\n      jump\t// out\n        /* \"#utility.yul\":9816:10182   */\n    tag_373:\n        /* \"#utility.yul\":9958:9961   */\n      0x00\n        /* \"#utility.yul\":9979:10046   */\n      tag_375\n        /* \"#utility.yul\":10043:10045   */\n      0x13\n        /* \"#utility.yul\":10038:10041   */\n      dup4\n        /* \"#utility.yul\":9979:10046   */\n      tag_330\n      jump\t// in\n    tag_375:\n        /* \"#utility.yul\":9972:10046   */\n      swap2\n      pop\n        /* \"#utility.yul\":10055:10148   */\n      tag_376\n        /* \"#utility.yul\":10144:10147   */\n      dup3\n        /* \"#utility.yul\":10055:10148   */\n      tag_377\n      jump\t// in\n    tag_376:\n        /* \"#utility.yul\":10173:10175   */\n      0x20\n        /* \"#utility.yul\":10168:10171   */\n      dup3\n        /* \"#utility.yul\":10164:10176   */\n      add\n        /* \"#utility.yul\":10157:10176   */\n      swap1\n      pop\n        /* \"#utility.yul\":9816:10182   */\n      swap2\n      swap1\n      pop\n      jump\t// out\n        /* \"#utility.yul\":10188:10554   */\n    tag_378:\n        /* \"#utility.yul\":10330:10333   */\n      0x00\n        /* \"#utility.yul\":10351:10418   */\n      tag_380\n        /* \"#utility.yul\":10415:10417   */\n      0x13\n        /* \"#utility.yul\":10410:10413   */\n      dup4\n        /* \"#utility.yul\":10351:10418   */\n      tag_330\n      jump\t// in\n    tag_380:\n        /* \"#utility.yul\":10344:10418   */\n      swap2\n      pop\n        /* \"#utility.yul\":10427:10520   */\n      tag_381\n        /* \"#utility.yul\":10516:10519   */\n      dup3\n        /* \"#utility.yul\":10427:10520   */\n      tag_382\n      jump\t// in\n    tag_381:\n        /* \"#utility.yul\":10545:10547   */\n      0x20\n        /* \"#utility.yul\":10540:10543   */\n      dup3\n        /* \"#utility.yul\":10536:10548   */\n      add\n        /* \"#utility.yul\":10529:10548   */\n      swap1\n      pop\n        /* \"#utility.yul\":10188:10554   */\n      swap2\n      swap1\n      pop\n      jump\t// out\n        /* \"#utility.yul\":10560:10678   */\n    tag_383:\n        /* \"#utility.yul\":10647:10671   */\n      tag_385\n        /* \"#utility.yul\":10665:10670   */\n      dup2\n        /* \"#utility.yul\":10647:10671   */\n      tag_386\n      jump\t// in\n    tag_385:\n        /* \"#utility.yul\":10642:10645   */\n      dup3\n        /* \"#utility.yul\":10635:10672   */\n      mstore\n        /* \"#utility.yul\":10560:10678   */\n      pop\n      pop\n      jump\t// out\n        /* \"#utility.yul\":10684:10906   */\n    tag_38:\n        /* \"#utility.yul\":10777:10781   */\n      0x00\n        /* \"#utility.yul\":10815:10817   */\n      0x20\n        /* \"#utility.yul\":10804:10813   */\n      dup3\n        /* \"#utility.yul\":10800:10818   */\n      add\n        /* \"#utility.yul\":10792:10818   */\n      swap1\n      pop\n        /* \"#utility.yul\":10828:10899   */\n      tag_388\n        /* \"#utility.yul\":10896:10897   */\n      0x00\n        /* \"#utility.yul\":10885:10894   */\n      dup4\n        /* \"#utility.yul\":10881:10898   */\n      add\n        /* \"#utility.yul\":10872:10878   */\n      dup5\n        /* \"#utility.yul\":10828:10899   */\n      tag_307\n      jump\t// in\n    tag_388:\n        /* \"#utility.yul\":10684:10906   */\n      swap3\n      swap2\n      pop\n      pop\n      jump\t// out\n        /* \"#utility.yul\":10912:11552   */\n    tag_205:\n        /* \"#utility.yul\":11107:11111   */\n      0x00\n        /* \"#utility.yul\":11145:11148   */\n      0x80\n        /* \"#utility.yul\":11134:11143   */\n      dup3\n        /* \"#utility.yul\":11130:11149   */\n      add\n        /* \"#utility.yul\":11122:11149   */\n      swap1\n      pop\n        /* \"#utility.yul\":11159:11230   */\n      tag_390\n        /* \"#utility.yul\":11227:11228   */\n      0x00\n        /* \"#utility.yul\":11216:11225   */\n      dup4\n        /* \"#utility.yul\":11212:11229   */\n      add\n        /* \"#utility.yul\":11203:11209   */\n      dup8\n        /* \"#utility.yul\":11159:11230   */\n      tag_307\n      jump\t// in\n    tag_390:\n        /* \"#utility.yul\":11240:11312   */\n      tag_391\n        /* \"#utility.yul\":11308:11310   */\n      0x20\n        /* \"#utility.yul\":11297:11306   */\n      dup4\n        /* \"#utility.yul\":11293:11311   */\n      add\n        /* \"#utility.yul\":11284:11290   */\n      dup7\n        /* \"#utility.yul\":11240:11312   */\n      tag_307\n      jump\t// in\n    tag_391:\n        /* \"#utility.yul\":11322:11394   */\n      tag_392\n        /* \"#utility.yul\":11390:11392   */\n      0x40\n        /* \"#utility.yul\":11379:11388   */\n      dup4\n        /* \"#utility.yul\":11375:11393   */\n      add\n        /* \"#utility.yul\":11366:11372   */\n      dup6\n        /* \"#utility.yul\":11322:11394   */\n      tag_383\n      jump\t// in\n    tag_392:\n        /* \"#utility.yul\":11441:11450   */\n      dup2\n        /* \"#utility.yul\":11435:11439   */\n      dup2\n        /* \"#utility.yul\":11431:11451   */\n      sub\n        /* \"#utility.yul\":11426:11428   */\n      0x60\n        /* \"#utility.yul\":11415:11424   */\n      dup4\n        /* \"#utility.yul\":11411:11429   */\n      add\n        /* \"#utility.yul\":11404:11452   */\n      mstore\n        /* \"#utility.yul\":11469:11545   */\n      tag_393\n        /* \"#utility.yul\":11540:11544   */\n      dup2\n        /* \"#utility.yul\":11531:11537   */\n      dup5\n        /* \"#utility.yul\":11469:11545   */\n      tag_315\n      jump\t// in\n    tag_393:\n        /* \"#utility.yul\":11461:11545   */\n      swap1\n      pop\n        /* \"#utility.yul\":10912:11552   */\n      swap6\n      swap5\n      pop\n      pop\n      pop\n      pop\n      pop\n      jump\t// out\n        /* \"#utility.yul\":11558:11768   */\n    tag_28:\n        /* \"#utility.yul\":11645:11649   */\n      0x00\n        /* \"#utility.yul\":11683:11685   */\n      0x20\n        /* \"#utility.yul\":11672:11681   */\n      dup3\n        /* \"#utility.yul\":11668:11686   */\n      add\n        /* \"#utility.yul\":11660:11686   */\n      swap1\n      pop\n        /* \"#utility.yul\":11696:11761   */\n      tag_395\n        /* \"#utility.yul\":11758:11759   */\n      0x00\n        /* \"#utility.yul\":11747:11756   */\n      dup4\n        /* \"#utility.yul\":11743:11760   */\n      add\n        /* \"#utility.yul\":11734:11740   */\n      dup5\n        /* \"#utility.yul\":11696:11761   */\n      tag_311\n      jump\t// in\n    tag_395:\n        /* \"#utility.yul\":11558:11768   */\n      swap3\n      swap2\n      pop\n      pop\n      jump\t// out\n        /* \"#utility.yul\":11774:12087   */\n    tag_32:\n        /* \"#utility.yul\":11887:11891   */\n      0x00\n        /* \"#utility.yul\":11925:11927   */\n      0x20\n        /* \"#utility.yul\":11914:11923   */\n      dup3\n        /* \"#utility.yul\":11910:11928   */\n      add\n        /* \"#utility.yul\":11902:11928   */\n      swap1\n      pop\n        /* \"#utility.yul\":11974:11983   */\n      dup2\n        /* \"#utility.yul\":11968:11972   */\n      dup2\n        /* \"#utility.yul\":11964:11984   */\n      sub\n        /* \"#utility.yul\":11960:11961   */\n      0x00\n        /* \"#utility.yul\":11949:11958   */\n      dup4\n        /* \"#utility.yul\":11945:11962   */\n      add\n        /* \"#utility.yul\":11938:11985   */\n      mstore\n        /* \"#utility.yul\":12002:12080   */\n      tag_397\n        /* \"#utility.yul\":12075:12079   */\n      dup2\n        /* \"#utility.yul\":12066:12072   */\n      dup5\n        /* \"#utility.yul\":12002:12080   */\n      tag_325\n      jump\t// in\n    tag_397:\n        /* \"#utility.yul\":11994:12080   */\n      swap1\n      pop\n        /* \"#utility.yul\":11774:12087   */\n      swap3\n      swap2\n      pop\n      pop\n      jump\t// out\n        /* \"#utility.yul\":12093:12512   */\n    tag_129:\n        /* \"#utility.yul\":12259:12263   */\n      0x00\n        /* \"#utility.yul\":12297:12299   */\n      0x20\n        /* \"#utility.yul\":12286:12295   */\n      dup3\n        /* \"#utility.yul\":12282:12300   */\n      add\n        /* \"#utility.yul\":12274:12300   */\n      swap1\n      pop\n        /* \"#utility.yul\":12346:12355   */\n      dup2\n        /* \"#utility.yul\":12340:12344   */\n      dup2\n        /* \"#utility.yul\":12336:12356   */\n      sub\n        /* \"#utility.yul\":12332:12333   */\n      0x00\n        /* \"#utility.yul\":12321:12330   */\n      dup4\n        /* \"#utility.yul\":12317:12334   */\n      add\n        /* \"#utility.yul\":12310:12357   */\n      mstore\n        /* \"#utility.yul\":12374:12505   */\n      tag_399\n        /* \"#utility.yul\":12500:12504   */\n      dup2\n        /* \"#utility.yul\":12374:12505   */\n      tag_333\n      jump\t// in\n    tag_399:\n        /* \"#utility.yul\":12366:12505   */\n      swap1\n      pop\n        /* \"#utility.yul\":12093:12512   */\n      swap2\n      swap1\n      pop\n      jump\t// out\n        /* \"#utility.yul\":12518:12937   */\n    tag_143:\n        /* \"#utility.yul\":12684:12688   */\n      0x00\n        /* \"#utility.yul\":12722:12724   */\n      0x20\n        /* \"#utility.yul\":12711:12720   */\n      dup3\n        /* \"#utility.yul\":12707:12725   */\n      add\n        /* \"#utility.yul\":12699:12725   */\n      swap1\n      pop\n        /* \"#utility.yul\":12771:12780   */\n      dup2\n        /* \"#utility.yul\":12765:12769   */\n      dup2\n        /* \"#utility.yul\":12761:12781   */\n      sub\n        /* \"#utility.yul\":12757:12758   */\n      0x00\n        /* \"#utility.yul\":12746:12755   */\n      dup4\n        /* \"#utility.yul\":12742:12759   */\n      add\n        /* \"#utility.yul\":12735:12782   */\n      mstore\n        /* \"#utility.yul\":12799:12930   */\n      tag_401\n        /* \"#utility.yul\":12925:12929   */\n      dup2\n        /* \"#utility.yul\":12799:12930   */\n      tag_338\n      jump\t// in\n    tag_401:\n        /* \"#utility.yul\":12791:12930   */\n      swap1\n      pop\n        /* \"#utility.yul\":12518:12937   */\n      swap2\n      swap1\n      pop\n      jump\t// out\n        /* \"#utility.yul\":12943:13362   */\n    tag_171:\n        /* \"#utility.yul\":13109:13113   */\n      0x00\n        /* \"#utility.yul\":13147:13149   */\n      0x20\n        /* \"#utility.yul\":13136:13145   */\n      dup3\n        /* \"#utility.yul\":13132:13150   */\n      add\n        /* \"#utility.yul\":13124:13150   */\n      swap1\n      pop\n        /* \"#utility.yul\":13196:13205   */\n      dup2\n        /* \"#utility.yul\":13190:13194   */\n      dup2\n        /* \"#utility.yul\":13186:13206   */\n      sub\n        /* \"#utility.yul\":13182:13183   */\n      0x00\n        /* \"#utility.yul\":13171:13180   */\n      dup4\n        /* \"#utility.yul\":13167:13184   */\n      add\n        /* \"#utility.yul\":13160:13207   */\n      mstore\n        /* \"#utility.yul\":13224:13355   */\n      tag_403\n        /* \"#utility.yul\":13350:13354   */\n      dup2\n        /* \"#utility.yul\":13224:13355   */\n      tag_343\n      jump\t// in\n    tag_403:\n        /* \"#utility.yul\":13216:13355   */\n      swap1\n      pop\n        /* \"#utility.yul\":12943:13362   */\n      swap2\n      swap1\n      pop\n      jump\t// out\n        /* \"#utility.yul\":13368:13787   */\n    tag_188:\n        /* \"#utility.yul\":13534:13538   */\n      0x00\n        /* \"#utility.yul\":13572:13574   */\n      0x20\n        /* \"#utility.yul\":13561:13570   */\n      dup3\n        /* \"#utility.yul\":13557:13575   */\n      add\n        /* \"#utility.yul\":13549:13575   */\n      swap1\n      pop\n        /* \"#utility.yul\":13621:13630   */\n      dup2\n        /* \"#utility.yul\":13615:13619   */\n      dup2\n        /* \"#utility.yul\":13611:13631   */\n      sub\n        /* \"#utility.yul\":13607:13608   */\n      0x00\n        /* \"#utility.yul\":13596:13605   */\n      dup4\n        /* \"#utility.yul\":13592:13609   */\n      add\n        /* \"#utility.yul\":13585:13632   */\n      mstore\n        /* \"#utility.yul\":13649:13780   */\n      tag_405\n        /* \"#utility.yul\":13775:13779   */\n      dup2\n        /* \"#utility.yul\":13649:13780   */\n      tag_348\n      jump\t// in\n    tag_405:\n        /* \"#utility.yul\":13641:13780   */\n      swap1\n      pop\n        /* \"#utility.yul\":13368:13787   */\n      swap2\n      swap1\n      pop\n      jump\t// out\n        /* \"#utility.yul\":13793:14212   */\n    tag_120:\n        /* \"#utility.yul\":13959:13963   */\n      0x00\n        /* \"#utility.yul\":13997:13999   */\n      0x20\n        /* \"#utility.yul\":13986:13995   */\n      dup3\n        /* \"#utility.yul\":13982:14000   */\n      add\n        /* \"#utility.yul\":13974:14000   */\n      swap1\n      pop\n        /* \"#utility.yul\":14046:14055   */\n      dup2\n        /* \"#utility.yul\":14040:14044   */\n      dup2\n        /* \"#utility.yul\":14036:14056   */\n      sub\n        /* \"#utility.yul\":14032:14033   */\n      0x00\n        /* \"#utility.yul\":14021:14030   */\n      dup4\n        /* \"#utility.yul\":14017:14034   */\n      add\n        /* \"#utility.yul\":14010:14057   */\n      mstore\n        /* \"#utility.yul\":14074:14205   */\n      tag_407\n        /* \"#utility.yul\":14200:14204   */\n      dup2\n        /* \"#utility.yul\":14074:14205   */\n      tag_353\n      jump\t// in\n    tag_407:\n        /* \"#utility.yul\":14066:14205   */\n      swap1\n      pop\n        /* \"#utility.yul\":13793:14212   */\n      swap2\n      swap1\n      pop\n      jump\t// out\n        /* \"#utility.yul\":14218:14637   */\n    tag_132:\n        /* \"#utility.yul\":14384:14388   */\n      0x00\n        /* \"#utility.yul\":14422:14424   */\n      0x20\n        /* \"#utility.yul\":14411:14420   */\n      dup3\n        /* \"#utility.yul\":14407:14425   */\n      add\n        /* \"#utility.yul\":14399:14425   */\n      swap1\n      pop\n        /* \"#utility.yul\":14471:14480   */\n      dup2\n        /* \"#utility.yul\":14465:14469   */\n      dup2\n        /* \"#utility.yul\":14461:14481   */\n      sub\n        /* \"#utility.yul\":14457:14458   */\n      0x00\n        /* \"#utility.yul\":14446:14455   */\n      dup4\n        /* \"#utility.yul\":14442:14459   */\n      add\n        /* \"#utility.yul\":14435:14482   */\n      mstore\n        /* \"#utility.yul\":14499:14630   */\n      tag_409\n        /* \"#utility.yul\":14625:14629   */\n      dup2\n        /* \"#utility.yul\":14499:14630   */\n      tag_358\n      jump\t// in\n    tag_409:\n        /* \"#utility.yul\":14491:14630   */\n      swap1\n      pop\n        /* \"#utility.yul\":14218:14637   */\n      swap2\n      swap1\n      pop\n      jump\t// out\n        /* \"#utility.yul\":14643:15062   */\n    tag_136:\n        /* \"#utility.yul\":14809:14813   */\n      0x00\n        /* \"#utility.yul\":14847:14849   */\n      0x20\n        /* \"#utility.yul\":14836:14845   */\n      dup3\n        /* \"#utility.yul\":14832:14850   */\n      add\n        /* \"#utility.yul\":14824:14850   */\n      swap1\n      pop\n        /* \"#utility.yul\":14896:14905   */\n      dup2\n        /* \"#utility.yul\":14890:14894   */\n      dup2\n        /* \"#utility.yul\":14886:14906   */\n      sub\n        /* \"#utility.yul\":14882:14883   */\n      0x00\n        /* \"#utility.yul\":14871:14880   */\n      dup4\n        /* \"#utility.yul\":14867:14884   */\n      add\n        /* \"#utility.yul\":14860:14907   */\n      mstore\n        /* \"#utility.yul\":14924:15055   */\n      tag_411\n        /* \"#utility.yul\":15050:15054   */\n      dup2\n        /* \"#utility.yul\":14924:15055   */\n      tag_363\n      jump\t// in\n    tag_411:\n        /* \"#utility.yul\":14916:15055   */\n      swap1\n      pop\n        /* \"#utility.yul\":14643:15062   */\n      swap2\n      swap1\n      pop\n      jump\t// out\n        /* \"#utility.yul\":15068:15487   */\n    tag_115:\n        /* \"#utility.yul\":15234:15238   */\n      0x00\n        /* \"#utility.yul\":15272:15274   */\n      0x20\n        /* \"#utility.yul\":15261:15270   */\n      dup3\n        /* \"#utility.yul\":15257:15275   */\n      add\n        /* \"#utility.yul\":15249:15275   */\n      swap1\n      pop\n        /* \"#utility.yul\":15321:15330   */\n      dup2\n        /* \"#utility.yul\":15315:15319   */\n      dup2\n        /* \"#utility.yul\":15311:15331   */\n      sub\n        /* \"#utility.yul\":15307:15308   */\n      0x00\n        /* \"#utility.yul\":15296:15305   */\n      dup4\n        /* \"#utility.yul\":15292:15309   */\n      add\n        /* \"#utility.yul\":15285:15332   */\n      mstore\n        /* \"#utility.yul\":15349:15480   */\n      tag_413\n        /* \"#utility.yul\":15475:15479   */\n      dup2\n        /* \"#utility.yul\":15349:15480   */\n      tag_368\n      jump\t// in\n    tag_413:\n        /* \"#utility.yul\":15341:15480   */\n      swap1\n      pop\n        /* \"#utility.yul\":15068:15487   */\n      swap2\n      swap1\n      pop\n      jump\t// out\n        /* \"#utility.yul\":15493:15912   */\n    tag_110:\n        /* \"#utility.yul\":15659:15663   */\n      0x00\n        /* \"#utility.yul\":15697:15699   */\n      0x20\n        /* \"#utility.yul\":15686:15695   */\n      dup3\n        /* \"#utility.yul\":15682:15700   */\n      add\n        /* \"#utility.yul\":15674:15700   */\n      swap1\n      pop\n        /* \"#utility.yul\":15746:15755   */\n      dup2\n        /* \"#utility.yul\":15740:15744   */\n      dup2\n        /* \"#utility.yul\":15736:15756   */\n      sub\n        /* \"#utility.yul\":15732:15733   */\n      0x00\n        /* \"#utility.yul\":15721:15730   */\n      dup4\n        /* \"#utility.yul\":15717:15734   */\n      add\n        /* \"#utility.yul\":15710:15757   */\n      mstore\n        /* \"#utility.yul\":15774:15905   */\n      tag_415\n        /* \"#utility.yul\":15900:15904   */\n      dup2\n        /* \"#utility.yul\":15774:15905   */\n      tag_373\n      jump\t// in\n    tag_415:\n        /* \"#utility.yul\":15766:15905   */\n      swap1\n      pop\n        /* \"#utility.yul\":15493:15912   */\n      swap2\n      swap1\n      pop\n      jump\t// out\n        /* \"#utility.yul\":15918:16337   */\n    tag_155:\n        /* \"#utility.yul\":16084:16088   */\n      0x00\n        /* \"#utility.yul\":16122:16124   */\n      0x20\n        /* \"#utility.yul\":16111:16120   */\n      dup3\n        /* \"#utility.yul\":16107:16125   */\n      add\n        /* \"#utility.yul\":16099:16125   */\n      swap1\n      pop\n        /* \"#utility.yul\":16171:16180   */\n      dup2\n        /* \"#utility.yul\":16165:16169   */\n      dup2\n        /* \"#utility.yul\":16161:16181   */\n      sub\n        /* \"#utility.yul\":16157:16158   */\n      0x00\n        /* \"#utility.yul\":16146:16155   */\n      dup4\n        /* \"#utility.yul\":16142:16159   */\n      add\n        /* \"#utility.yul\":16135:16182   */\n      mstore\n        /* \"#utility.yul\":16199:16330   */\n      tag_417\n        /* \"#utility.yul\":16325:16329   */\n      dup2\n        /* \"#utility.yul\":16199:16330   */\n      tag_378\n      jump\t// in\n    tag_417:\n        /* \"#utility.yul\":16191:16330   */\n      swap1\n      pop\n        /* \"#utility.yul\":15918:16337   */\n      swap2\n      swap1\n      pop\n      jump\t// out\n        /* \"#utility.yul\":16343:16565   */\n    tag_50:\n        /* \"#utility.yul\":16436:16440   */\n      0x00\n        /* \"#utility.yul\":16474:16476   */\n      0x20\n        /* \"#utility.yul\":16463:16472   */\n      dup3\n        /* \"#utility.yul\":16459:16477   */\n      add\n        /* \"#utility.yul\":16451:16477   */\n      swap1\n      pop\n        /* \"#utility.yul\":16487:16558   */\n      tag_419\n        /* \"#utility.yul\":16555:16556   */\n      0x00\n        /* \"#utility.yul\":16544:16553   */\n      dup4\n        /* \"#utility.yul\":16540:16557   */\n      add\n        /* \"#utility.yul\":16531:16537   */\n      dup5\n        /* \"#utility.yul\":16487:16558   */\n      tag_383\n      jump\t// in\n    tag_419:\n        /* \"#utility.yul\":16343:16565   */\n      swap3\n      swap2\n      pop\n      pop\n      jump\t// out\n        /* \"#utility.yul\":16571:16700   */\n    tag_228:\n        /* \"#utility.yul\":16605:16611   */\n      0x00\n        /* \"#utility.yul\":16632:16652   */\n      tag_421\n      tag_422\n      jump\t// in\n    tag_421:\n        /* \"#utility.yul\":16622:16652   */\n      swap1\n      pop\n        /* \"#utility.yul\":16661:16694   */\n      tag_423\n        /* \"#utility.yul\":16689:16693   */\n      dup3\n        /* \"#utility.yul\":16681:16687   */\n      dup3\n        /* \"#utility.yul\":16661:16694   */\n      tag_424\n      jump\t// in\n    tag_423:\n        /* \"#utility.yul\":16571:16700   */\n      swap2\n      swap1\n      pop\n      jump\t// out\n        /* \"#utility.yul\":16706:16781   */\n    tag_422:\n        /* \"#utility.yul\":16739:16745   */\n      0x00\n        /* \"#utility.yul\":16772:16774   */\n      0x40\n        /* \"#utility.yul\":16766:16775   */\n      mload\n        /* \"#utility.yul\":16756:16775   */\n      swap1\n      pop\n        /* \"#utility.yul\":16706:16781   */\n      swap1\n      jump\t// out\n        /* \"#utility.yul\":16787:17094   */\n    tag_227:\n        /* \"#utility.yul\":16848:16852   */\n      0x00\n        /* \"#utility.yul\":16938:16956   */\n      0xffffffffffffffff\n        /* \"#utility.yul\":16930:16936   */\n      dup3\n        /* \"#utility.yul\":16927:16957   */\n      gt\n        /* \"#utility.yul\":16924:16980   */\n      iszero\n      tag_427\n      jumpi\n        /* \"#utility.yul\":16960:16978   */\n      tag_428\n      tag_429\n      jump\t// in\n    tag_428:\n        /* \"#utility.yul\":16924:16980   */\n    tag_427:\n        /* \"#utility.yul\":16998:17027   */\n      tag_430\n        /* \"#utility.yul\":17020:17026   */\n      dup3\n        /* \"#utility.yul\":16998:17027   */\n      tag_324\n      jump\t// in\n    tag_430:\n        /* \"#utility.yul\":16990:17027   */\n      swap1\n      pop\n        /* \"#utility.yul\":17082:17086   */\n      0x20\n        /* \"#utility.yul\":17076:17080   */\n      dup2\n        /* \"#utility.yul\":17072:17087   */\n      add\n        /* \"#utility.yul\":17064:17087   */\n      swap1\n      pop\n        /* \"#utility.yul\":16787:17094   */\n      swap2\n      swap1\n      pop\n      jump\t// out\n        /* \"#utility.yul\":17100:17198   */\n    tag_318:\n        /* \"#utility.yul\":17151:17157   */\n      0x00\n        /* \"#utility.yul\":17185:17190   */\n      dup2\n        /* \"#utility.yul\":17179:17191   */\n      mload\n        /* \"#utility.yul\":17169:17191   */\n      swap1\n      pop\n        /* \"#utility.yul\":17100:17198   */\n      swap2\n      swap1\n      pop\n      jump\t// out\n        /* \"#utility.yul\":17204:17303   */\n    tag_328:\n        /* \"#utility.yul\":17256:17262   */\n      0x00\n        /* \"#utility.yul\":17290:17295   */\n      dup2\n        /* \"#utility.yul\":17284:17296   */\n      mload\n        /* \"#utility.yul\":17274:17296   */\n      swap1\n      pop\n        /* \"#utility.yul\":17204:17303   */\n      swap2\n      swap1\n      pop\n      jump\t// out\n        /* \"#utility.yul\":17309:17477   */\n    tag_320:\n        /* \"#utility.yul\":17392:17403   */\n      0x00\n        /* \"#utility.yul\":17426:17432   */\n      dup3\n        /* \"#utility.yul\":17421:17424   */\n      dup3\n        /* \"#utility.yul\":17414:17433   */\n      mstore\n        /* \"#utility.yul\":17466:17470   */\n      0x20\n        /* \"#utility.yul\":17461:17464   */\n      dup3\n        /* \"#utility.yul\":17457:17471   */\n      add\n        /* \"#utility.yul\":17442:17471   */\n      swap1\n      pop\n        /* \"#utility.yul\":17309:17477   */\n      swap3\n      swap2\n      pop\n      pop\n      jump\t// out\n        /* \"#utility.yul\":17483:17652   */\n    tag_330:\n        /* \"#utility.yul\":17567:17578   */\n      0x00\n        /* \"#utility.yul\":17601:17607   */\n      dup3\n        /* \"#utility.yul\":17596:17599   */\n      dup3\n        /* \"#utility.yul\":17589:17608   */\n      mstore\n        /* \"#utility.yul\":17641:17645   */\n      0x20\n        /* \"#utility.yul\":17636:17639   */\n      dup3\n        /* \"#utility.yul\":17632:17646   */\n      add\n        /* \"#utility.yul\":17617:17646   */\n      swap1\n      pop\n        /* \"#utility.yul\":17483:17652   */\n      swap3\n      swap2\n      pop\n      pop\n      jump\t// out\n        /* \"#utility.yul\":17658:17963   */\n    tag_147:\n        /* \"#utility.yul\":17698:17701   */\n      0x00\n        /* \"#utility.yul\":17717:17737   */\n      tag_436\n        /* \"#utility.yul\":17735:17736   */\n      dup3\n        /* \"#utility.yul\":17717:17737   */\n      tag_386\n      jump\t// in\n    tag_436:\n        /* \"#utility.yul\":17712:17737   */\n      swap2\n      pop\n        /* \"#utility.yul\":17751:17771   */\n      tag_437\n        /* \"#utility.yul\":17769:17770   */\n      dup4\n        /* \"#utility.yul\":17751:17771   */\n      tag_386\n      jump\t// in\n    tag_437:\n        /* \"#utility.yul\":17746:17771   */\n      swap3\n      pop\n        /* \"#utility.yul\":17905:17906   */\n      dup3\n        /* \"#utility.yul\":17837:17903   */\n      0xffffffffffffffffffffffffffffffffffffffffffffffffffffffffffffffff\n        /* \"#utility.yul\":17833:17907   */\n      sub\n        /* \"#utility.yul\":17830:17831   */\n      dup3\n        /* \"#utility.yul\":17827:17908   */\n      gt\n        /* \"#utility.yul\":17824:17931   */\n      iszero\n      tag_438\n      jumpi\n        /* \"#utility.yul\":17911:17929   */\n      tag_439\n      tag_440\n      jump\t// in\n    tag_439:\n        /* \"#utility.yul\":17824:17931   */\n    tag_438:\n        /* \"#utility.yul\":17955:17956   */\n      dup3\n        /* \"#utility.yul\":17952:17953   */\n      dup3\n        /* \"#utility.yul\":17948:17957   */\n      add\n        /* \"#utility.yul\":17941:17957   */\n      swap1\n      pop\n        /* \"#utility.yul\":17658:17963   */\n      swap3\n      swap2\n      pop\n      pop\n      jump\t// out\n        /* \"#utility.yul\":17969:18160   */\n    tag_145:\n        /* \"#utility.yul\":18009:18013   */\n      0x00\n        /* \"#utility.yul\":18029:18049   */\n      tag_442\n        /* \"#utility.yul\":18047:18048   */\n      dup3\n        /* \"#utility.yul\":18029:18049   */\n      tag_386\n      jump\t// in\n    tag_442:\n        /* \"#utility.yul\":18024:18049   */\n      swap2\n      pop\n        /* \"#utility.yul\":18063:18083   */\n      tag_443\n        /* \"#utility.yul\":18081:18082   */\n      dup4\n        /* \"#utility.yul\":18063:18083   */\n      tag_386\n      jump\t// in\n    tag_443:\n        /* \"#utility.yul\":18058:18083   */\n      swap3\n      pop\n        /* \"#utility.yul\":18102:18103   */\n      dup3\n        /* \"#utility.yul\":18099:18100   */\n      dup3\n        /* \"#utility.yul\":18096:18104   */\n      lt\n        /* \"#utility.yul\":18093:18127   */\n      iszero\n      tag_444\n      jumpi\n        /* \"#utility.yul\":18107:18125   */\n      tag_445\n      tag_440\n      jump\t// in\n    tag_445:\n        /* \"#utility.yul\":18093:18127   */\n    tag_444:\n        /* \"#utility.yul\":18152:18153   */\n      dup3\n        /* \"#utility.yul\":18149:18150   */\n      dup3\n        /* \"#utility.yul\":18145:18154   */\n      sub\n        /* \"#utility.yul\":18137:18154   */\n      swap1\n      pop\n        /* \"#utility.yul\":17969:18160   */\n      swap3\n      swap2\n      pop\n      pop\n      jump\t// out\n        /* \"#utility.yul\":18166:18262   */\n    tag_310:\n        /* \"#utility.yul\":18203:18210   */\n      0x00\n        /* \"#utility.yul\":18232:18256   */\n      tag_447\n        /* \"#utility.yul\":18250:18255   */\n      dup3\n        /* \"#utility.yul\":18232:18256   */\n      tag_448\n      jump\t// in\n    tag_447:\n        /* \"#utility.yul\":18221:18256   */\n      swap1\n      pop\n        /* \"#utility.yul\":18166:18262   */\n      swap2\n      swap1\n      pop\n      jump\t// out\n        /* \"#utility.yul\":18268:18358   */\n    tag_314:\n        /* \"#utility.yul\":18302:18309   */\n      0x00\n        /* \"#utility.yul\":18345:18350   */\n      dup2\n        /* \"#utility.yul\":18338:18351   */\n      iszero\n        /* \"#utility.yul\":18331:18352   */\n      iszero\n        /* \"#utility.yul\":18320:18352   */\n      swap1\n      pop\n        /* \"#utility.yul\":18268:18358   */\n      swap2\n      swap1\n      pop\n      jump\t// out\n        /* \"#utility.yul\":18364:18513   */\n    tag_450:\n        /* \"#utility.yul\":18400:18407   */\n      0x00\n        /* \"#utility.yul\":18440:18506   */\n      0xffffffff00000000000000000000000000000000000000000000000000000000\n        /* \"#utility.yul\":18433:18438   */\n      dup3\n        /* \"#utility.yul\":18429:18507   */\n      and\n        /* \"#utility.yul\":18418:18507   */\n      swap1\n      pop\n        /* \"#utility.yul\":18364:18513   */\n      swap2\n      swap1\n      pop\n      jump\t// out\n        /* \"#utility.yul\":18519:18645   */\n    tag_448:\n        /* \"#utility.yul\":18556:18563   */\n      0x00\n        /* \"#utility.yul\":18596:18638   */\n      0xffffffffffffffffffffffffffffffffffffffff\n        /* \"#utility.yul\":18589:18594   */\n      dup3\n        /* \"#utility.yul\":18585:18639   */\n      and\n        /* \"#utility.yul\":18574:18639   */\n      swap1\n      pop\n        /* \"#utility.yul\":18519:18645   */\n      swap2\n      swap1\n      pop\n      jump\t// out\n        /* \"#utility.yul\":18651:18728   */\n    tag_386:\n        /* \"#utility.yul\":18688:18695   */\n      0x00\n        /* \"#utility.yul\":18717:18722   */\n      dup2\n        /* \"#utility.yul\":18706:18722   */\n      swap1\n      pop\n        /* \"#utility.yul\":18651:18728   */\n      swap2\n      swap1\n      pop\n      jump\t// out\n        /* \"#utility.yul\":18734:18888   */\n    tag_233:\n        /* \"#utility.yul\":18818:18824   */\n      dup3\n        /* \"#utility.yul\":18813:18816   */\n      dup2\n        /* \"#utility.yul\":18808:18811   */\n      dup4\n        /* \"#utility.yul\":18795:18825   */\n      calldatacopy\n        /* \"#utility.yul\":18880:18881   */\n      0x00\n        /* \"#utility.yul\":18871:18877   */\n      dup4\n        /* \"#utility.yul\":18866:18869   */\n      dup4\n        /* \"#utility.yul\":18862:18878   */\n      add\n        /* \"#utility.yul\":18855:18882   */\n      mstore\n        /* \"#utility.yul\":18734:18888   */\n      pop\n      pop\n      pop\n      jump\t// out\n        /* \"#utility.yul\":18894:19201   */\n    tag_322:\n        /* \"#utility.yul\":18962:18963   */\n      0x00\n        /* \"#utility.yul\":18972:19085   */\n    tag_456:\n        /* \"#utility.yul\":18986:18992   */\n      dup4\n        /* \"#utility.yul\":18983:18984   */\n      dup2\n        /* \"#utility.yul\":18980:18993   */\n      lt\n        /* \"#utility.yul\":18972:19085   */\n      iszero\n      tag_458\n      jumpi\n        /* \"#utility.yul\":19071:19072   */\n      dup1\n        /* \"#utility.yul\":19066:19069   */\n      dup3\n        /* \"#utility.yul\":19062:19073   */\n      add\n        /* \"#utility.yul\":19056:19074   */\n      mload\n        /* \"#utility.yul\":19052:19053   */\n      dup2\n        /* \"#utility.yul\":19047:19050   */\n      dup5\n        /* \"#utility.yul\":19043:19054   */\n      add\n        /* \"#utility.yul\":19036:19075   */\n      mstore\n        /* \"#utility.yul\":19008:19010   */\n      0x20\n        /* \"#utility.yul\":19005:19006   */\n      dup2\n        /* \"#utility.yul\":19001:19011   */\n      add\n        /* \"#utility.yul\":18996:19011   */\n      swap1\n      pop\n        /* \"#utility.yul\":18972:19085   */\n      jump(tag_456)\n    tag_458:\n        /* \"#utility.yul\":19103:19109   */\n      dup4\n        /* \"#utility.yul\":19100:19101   */\n      dup2\n        /* \"#utility.yul\":19097:19110   */\n      gt\n        /* \"#utility.yul\":19094:19195   */\n      iszero\n      tag_459\n      jumpi\n        /* \"#utility.yul\":19183:19184   */\n      0x00\n        /* \"#utility.yul\":19174:19180   */\n      dup5\n        /* \"#utility.yul\":19169:19172   */\n      dup5\n        /* \"#utility.yul\":19165:19181   */\n      add\n        /* \"#utility.yul\":19158:19185   */\n      mstore\n        /* \"#utility.yul\":19094:19195   */\n    tag_459:\n        /* \"#utility.yul\":18943:19201   */\n      pop\n        /* \"#utility.yul\":18894:19201   */\n      pop\n      pop\n      pop\n      jump\t// out\n        /* \"#utility.yul\":19207:19527   */\n    tag_102:\n        /* \"#utility.yul\":19251:19257   */\n      0x00\n        /* \"#utility.yul\":19288:19289   */\n      0x02\n        /* \"#utility.yul\":19282:19286   */\n      dup3\n        /* \"#utility.yul\":19278:19290   */\n      div\n        /* \"#utility.yul\":19268:19290   */\n      swap1\n      pop\n        /* \"#utility.yul\":19335:19336   */\n      0x01\n        /* \"#utility.yul\":19329:19333   */\n      dup3\n        /* \"#utility.yul\":19325:19337   */\n      and\n        /* \"#utility.yul\":19356:19374   */\n      dup1\n        /* \"#utility.yul\":19346:19427   */\n      tag_461\n      jumpi\n        /* \"#utility.yul\":19412:19416   */\n      0x7f\n        /* \"#utility.yul\":19404:19410   */\n      dup3\n        /* \"#utility.yul\":19400:19417   */\n      and\n        /* \"#utility.yul\":19390:19417   */\n      swap2\n      pop\n        /* \"#utility.yul\":19346:19427   */\n    tag_461:\n        /* \"#utility.yul\":19474:19476   */\n      0x20\n        /* \"#utility.yul\":19466:19472   */\n      dup3\n        /* \"#utility.yul\":19463:19477   */\n      lt\n        /* \"#utility.yul\":19443:19461   */\n      dup2\n        /* \"#utility.yul\":19440:19478   */\n      eq\n        /* \"#utility.yul\":19437:19521   */\n      iszero\n      tag_462\n      jumpi\n        /* \"#utility.yul\":19493:19511   */\n      tag_463\n      tag_464\n      jump\t// in\n    tag_463:\n        /* \"#utility.yul\":19437:19521   */\n    tag_462:\n        /* \"#utility.yul\":19258:19527   */\n      pop\n        /* \"#utility.yul\":19207:19527   */\n      swap2\n      swap1\n      pop\n      jump\t// out\n        /* \"#utility.yul\":19533:19814   */\n    tag_424:\n        /* \"#utility.yul\":19616:19643   */\n      tag_466\n        /* \"#utility.yul\":19638:19642   */\n      dup3\n        /* \"#utility.yul\":19616:19643   */\n      tag_324\n      jump\t// in\n    tag_466:\n        /* \"#utility.yul\":19608:19614   */\n      dup2\n        /* \"#utility.yul\":19604:19644   */\n      add\n        /* \"#utility.yul\":19746:19752   */\n      dup2\n        /* \"#utility.yul\":19734:19744   */\n      dup2\n        /* \"#utility.yul\":19731:19753   */\n      lt\n        /* \"#utility.yul\":19710:19728   */\n      0xffffffffffffffff\n        /* \"#utility.yul\":19698:19708   */\n      dup3\n        /* \"#utility.yul\":19695:19729   */\n      gt\n        /* \"#utility.yul\":19692:19754   */\n      or\n        /* \"#utility.yul\":19689:19777   */\n      iszero\n      tag_467\n      jumpi\n        /* \"#utility.yul\":19757:19775   */\n      tag_468\n      tag_429\n      jump\t// in\n    tag_468:\n        /* \"#utility.yul\":19689:19777   */\n    tag_467:\n        /* \"#utility.yul\":19797:19807   */\n      dup1\n        /* \"#utility.yul\":19793:19795   */\n      0x40\n        /* \"#utility.yul\":19786:19808   */\n      mstore\n        /* \"#utility.yul\":19576:19814   */\n      pop\n        /* \"#utility.yul\":19533:19814   */\n      pop\n      pop\n      jump\t// out\n        /* \"#utility.yul\":19820:20000   */\n    tag_440:\n        /* \"#utility.yul\":19868:19945   */\n      0x4e487b7100000000000000000000000000000000000000000000000000000000\n        /* \"#utility.yul\":19865:19866   */\n      0x00\n        /* \"#utility.yul\":19858:19946   */\n      mstore\n        /* \"#utility.yul\":19965:19969   */\n      0x11\n        /* \"#utility.yul\":19962:19963   */\n      0x04\n        /* \"#utility.yul\":19955:19970   */\n      mstore\n        /* \"#utility.yul\":19989:19993   */\n      0x24\n        /* \"#utility.yul\":19986:19987   */\n      0x00\n        /* \"#utility.yul\":19979:19994   */\n      revert\n        /* \"#utility.yul\":20006:20186   */\n    tag_464:\n        /* \"#utility.yul\":20054:20131   */\n      0x4e487b7100000000000000000000000000000000000000000000000000000000\n        /* \"#utility.yul\":20051:20052   */\n      0x00\n        /* \"#utility.yul\":20044:20132   */\n      mstore\n        /* \"#utility.yul\":20151:20155   */\n      0x22\n        /* \"#utility.yul\":20148:20149   */\n      0x04\n        /* \"#utility.yul\":20141:20156   */\n      mstore\n        /* \"#utility.yul\":20175:20179   */\n      0x24\n        /* \"#utility.yul\":20172:20173   */\n      0x00\n        /* \"#utility.yul\":20165:20180   */\n      revert\n        /* \"#utility.yul\":20192:20372   */\n    tag_163:\n        /* \"#utility.yul\":20240:20317   */\n      0x4e487b7100000000000000000000000000000000000000000000000000000000\n        /* \"#utility.yul\":20237:20238   */\n      0x00\n        /* \"#utility.yul\":20230:20318   */\n      mstore\n        /* \"#utility.yul\":20337:20341   */\n      0x32\n        /* \"#utility.yul\":20334:20335   */\n      0x04\n        /* \"#utility.yul\":20327:20342   */\n      mstore\n        /* \"#utility.yul\":20361:20365   */\n      0x24\n        /* \"#utility.yul\":20358:20359   */\n      0x00\n        /* \"#utility.yul\":20351:20366   */\n      revert\n        /* \"#utility.yul\":20378:20558   */\n    tag_429:\n        /* \"#utility.yul\":20426:20503   */\n      0x4e487b7100000000000000000000000000000000000000000000000000000000\n        /* \"#utility.yul\":20423:20424   */\n      0x00\n        /* \"#utility.yul\":20416:20504   */\n      mstore\n        /* \"#utility.yul\":20523:20527   */\n      0x41\n        /* \"#utility.yul\":20520:20521   */\n      0x04\n        /* \"#utility.yul\":20513:20528   */\n      mstore\n        /* \"#utility.yul\":20547:20551   */\n      0x24\n        /* \"#utility.yul\":20544:20545   */\n      0x00\n        /* \"#utility.yul\":20537:20552   */\n      revert\n        /* \"#utility.yul\":20564:20747   */\n    tag_215:\n        /* \"#utility.yul\":20599:20602   */\n      0x00\n        /* \"#utility.yul\":20637:20638   */\n      0x03\n        /* \"#utility.yul\":20619:20635   */\n      returndatasize\n        /* \"#utility.yul\":20616:20639   */\n      gt\n        /* \"#utility.yul\":20613:20741   */\n      iszero\n      tag_474\n      jumpi\n        /* \"#utility.yul\":20675:20676   */\n      0x04\n        /* \"#utility.yul\":20672:20673   */\n      0x00\n        /* \"#utility.yul\":20669:20670   */\n      dup1\n        /* \"#utility.yul\":20654:20677   */\n      returndatacopy\n        /* \"#utility.yul\":20697:20731   */\n      tag_475\n        /* \"#utility.yul\":20728:20729   */\n      0x00\n        /* \"#utility.yul\":20722:20730   */\n      mload\n        /* \"#utility.yul\":20697:20731   */\n      tag_476\n      jump\t// in\n    tag_475:\n        /* \"#utility.yul\":20690:20731   */\n      swap1\n      pop\n        /* \"#utility.yul\":20613:20741   */\n    tag_474:\n        /* \"#utility.yul\":20564:20747   */\n      swap1\n      jump\t// out\n        /* \"#utility.yul\":20753:20870   */\n    tag_253:\n        /* \"#utility.yul\":20862:20863   */\n      0x00\n        /* \"#utility.yul\":20859:20860   */\n      dup1\n        /* \"#utility.yul\":20852:20864   */\n      revert\n        /* \"#utility.yul\":20876:20993   */\n    tag_231:\n        /* \"#utility.yul\":20985:20986   */\n      0x00\n        /* \"#utility.yul\":20982:20983   */\n      dup1\n        /* \"#utility.yul\":20975:20987   */\n      revert\n        /* \"#utility.yul\":20999:21116   */\n    tag_283:\n        /* \"#utility.yul\":21108:21109   */\n      0x00\n        /* \"#utility.yul\":21105:21106   */\n      dup1\n        /* \"#utility.yul\":21098:21110   */\n      revert\n        /* \"#utility.yul\":21122:21239   */\n    tag_262:\n        /* \"#utility.yul\":21231:21232   */\n      0x00\n        /* \"#utility.yul\":21228:21229   */\n      dup1\n        /* \"#utility.yul\":21221:21233   */\n      revert\n        /* \"#utility.yul\":21245:21347   */\n    tag_324:\n        /* \"#utility.yul\":21286:21292   */\n      0x00\n        /* \"#utility.yul\":21337:21339   */\n      0x1f\n        /* \"#utility.yul\":21333:21340   */\n      not\n        /* \"#utility.yul\":21328:21330   */\n      0x1f\n        /* \"#utility.yul\":21321:21326   */\n      dup4\n        /* \"#utility.yul\":21317:21331   */\n      add\n        /* \"#utility.yul\":21313:21341   */\n      and\n        /* \"#utility.yul\":21303:21341   */\n      swap1\n      pop\n        /* \"#utility.yul\":21245:21347   */\n      swap2\n      swap1\n      pop\n      jump\t// out\n        /* \"#utility.yul\":21353:21459   */\n    tag_476:\n        /* \"#utility.yul\":21397:21405   */\n      0x00\n        /* \"#utility.yul\":21446:21451   */\n      dup2\n        /* \"#utility.yul\":21441:21444   */\n      0xe0\n        /* \"#utility.yul\":21437:21452   */\n      shr\n        /* \"#utility.yul\":21416:21452   */\n      swap1\n      pop\n        /* \"#utility.yul\":21353:21459   */\n      swap2\n      swap1\n      pop\n      jump\t// out\n        /* \"#utility.yul\":21465:21641   */\n    tag_337:\n        /* \"#utility.yul\":21605:21633   */\n      0x7472616e736665722066726f6d207a65726f2061646472657373000000000000\n        /* \"#utility.yul\":21601:21602   */\n      0x00\n        /* \"#utility.yul\":21593:21599   */\n      dup3\n        /* \"#utility.yul\":21589:21603   */\n      add\n        /* \"#utility.yul\":21582:21634   */\n      mstore\n        /* \"#utility.yul\":21465:21641   */\n      pop\n      jump\t// out\n        /* \"#utility.yul\":21647:21828   */\n    tag_342:\n        /* \"#utility.yul\":21787:21820   */\n      0x63616c6c6572206973206e6f74206f776e6572206f7220617070726f76616c00\n        /* \"#utility.yul\":21783:21784   */\n      0x00\n        /* \"#utility.yul\":21775:21781   */\n      dup3\n        /* \"#utility.yul\":21771:21785   */\n      add\n        /* \"#utility.yul\":21764:21821   */\n      mstore\n        /* \"#utility.yul\":21647:21828   */\n      pop\n      jump\t// out\n        /* \"#utility.yul\":21834:22005   */\n    tag_347:\n        /* \"#utility.yul\":21974:21997   */\n      0x6f776e6572206973207a65726f20616464726573730000000000000000000000\n        /* \"#utility.yul\":21970:21971   */\n      0x00\n        /* \"#utility.yul\":21962:21968   */\n      dup3\n        /* \"#utility.yul\":21958:21972   */\n      add\n        /* \"#utility.yul\":21951:21998   */\n      mstore\n        /* \"#utility.yul\":21834:22005   */\n      pop\n      jump\t// out\n        /* \"#utility.yul\":22011:22240   */\n    tag_352:\n        /* \"#utility.yul\":22151:22185   */\n      0x7472616e7366657220746f206e6f6e2045524337323152656365697665722069\n        /* \"#utility.yul\":22147:22148   */\n      0x00\n        /* \"#utility.yul\":22139:22145   */\n      dup3\n        /* \"#utility.yul\":22135:22149   */\n      add\n        /* \"#utility.yul\":22128:22186   */\n      mstore\n        /* \"#utility.yul\":22220:22232   */\n      0x6d706c656d656e74657200000000000000000000000000000000000000000000\n        /* \"#utility.yul\":22215:22217   */\n      0x20\n        /* \"#utility.yul\":22207:22213   */\n      dup3\n        /* \"#utility.yul\":22203:22218   */\n      add\n        /* \"#utility.yul\":22196:22233   */\n      mstore\n        /* \"#utility.yul\":22011:22240   */\n      pop\n      jump\t// out\n        /* \"#utility.yul\":22246:22478   */\n    tag_357:\n        /* \"#utility.yul\":22386:22420   */\n      0x63616c6c6572206973206e6f7420746f6b656e206f776e6572206f7220617070\n        /* \"#utility.yul\":22382:22383   */\n      0x00\n        /* \"#utility.yul\":22374:22380   */\n      dup3\n        /* \"#utility.yul\":22370:22384   */\n      add\n        /* \"#utility.yul\":22363:22421   */\n      mstore\n        /* \"#utility.yul\":22455:22470   */\n      0x726f76616c20666f7220616c6c00000000000000000000000000000000000000\n        /* \"#utility.yul\":22450:22452   */\n      0x20\n        /* \"#utility.yul\":22442:22448   */\n      dup3\n        /* \"#utility.yul\":22438:22453   */\n      add\n        /* \"#utility.yul\":22431:22471   */\n      mstore\n        /* \"#utility.yul\":22246:22478   */\n      pop\n      jump\t// out\n        /* \"#utility.yul\":22484:22658   */\n    tag_362:\n        /* \"#utility.yul\":22624:22650   */\n      0x7472616e7366657220746f207a65726f20616464726573730000000000000000\n        /* \"#utility.yul\":22620:22621   */\n      0x00\n        /* \"#utility.yul\":22612:22618   */\n      dup3\n        /* \"#utility.yul\":22608:22622   */\n      add\n        /* \"#utility.yul\":22601:22651   */\n      mstore\n        /* \"#utility.yul\":22484:22658   */\n      pop\n      jump\t// out\n        /* \"#utility.yul\":22664:22846   */\n    tag_367:\n        /* \"#utility.yul\":22804:22838   */\n      0x7472616e736665722066726f6d206973206e6f7420746f6b656e206f776e6572\n        /* \"#utility.yul\":22800:22801   */\n      0x00\n        /* \"#utility.yul\":22792:22798   */\n      dup3\n        /* \"#utility.yul\":22788:22802   */\n      add\n        /* \"#utility.yul\":22781:22839   */\n      mstore\n        /* \"#utility.yul\":22664:22846   */\n      pop\n      jump\t// out\n        /* \"#utility.yul\":22852:23026   */\n    tag_372:\n        /* \"#utility.yul\":22992:23018   */\n      0x617070726f76616c2073746174757320666f722073656c660000000000000000\n        /* \"#utility.yul\":22988:22989   */\n      0x00\n        /* \"#utility.yul\":22980:22986   */\n      dup3\n        /* \"#utility.yul\":22976:22990   */\n      add\n        /* \"#utility.yul\":22969:23019   */\n      mstore\n        /* \"#utility.yul\":22852:23026   */\n      pop\n      jump\t// out\n        /* \"#utility.yul\":23032:23201   */\n    tag_377:\n        /* \"#utility.yul\":23172:23193   */\n      0x746f6b656e206973206e6f742065786973747300000000000000000000000000\n        /* \"#utility.yul\":23168:23169   */\n      0x00\n        /* \"#utility.yul\":23160:23166   */\n      dup3\n        /* \"#utility.yul\":23156:23170   */\n      add\n        /* \"#utility.yul\":23149:23194   */\n      mstore\n        /* \"#utility.yul\":23032:23201   */\n      pop\n      jump\t// out\n        /* \"#utility.yul\":23207:23376   */\n    tag_382:\n        /* \"#utility.yul\":23347:23368   */\n      0x696e646578206f7574206f6620626f756e647300000000000000000000000000\n        /* \"#utility.yul\":23343:23344   */\n      0x00\n        /* \"#utility.yul\":23335:23341   */\n      dup3\n        /* \"#utility.yul\":23331:23345   */\n      add\n        /* \"#utility.yul\":23324:23369   */\n      mstore\n        /* \"#utility.yul\":23207:23376   */\n      pop\n      jump\t// out\n        /* \"#utility.yul\":23382:24093   */\n    tag_217:\n        /* \"#utility.yul\":23421:23424   */\n      0x00\n        /* \"#utility.yul\":23459:23463   */\n      0x44\n        /* \"#utility.yul\":23441:23457   */\n      returndatasize\n        /* \"#utility.yul\":23438:23464   */\n      lt\n        /* \"#utility.yul\":23435:23474   */\n      iszero\n      tag_494\n      jumpi\n        /* \"#utility.yul\":23467:23472   */\n      jump(tag_493)\n        /* \"#utility.yul\":23435:23474   */\n    tag_494:\n        /* \"#utility.yul\":23496:23516   */\n      tag_495\n      tag_422\n      jump\t// in\n    tag_495:\n        /* \"#utility.yul\":23571:23572   */\n      0x04\n        /* \"#utility.yul\":23553:23569   */\n      returndatasize\n        /* \"#utility.yul\":23549:23573   */\n      sub\n        /* \"#utility.yul\":23546:23547   */\n      0x04\n        /* \"#utility.yul\":23540:23544   */\n      dup3\n        /* \"#utility.yul\":23525:23574   */\n      returndatacopy\n        /* \"#utility.yul\":23604:23608   */\n      dup1\n        /* \"#utility.yul\":23598:23609   */\n      mload\n        /* \"#utility.yul\":23703:23719   */\n      returndatasize\n        /* \"#utility.yul\":23696:23700   */\n      0x24\n        /* \"#utility.yul\":23688:23694   */\n      dup3\n        /* \"#utility.yul\":23684:23701   */\n      add\n        /* \"#utility.yul\":23681:23720   */\n      gt\n        /* \"#utility.yul\":23648:23666   */\n      0xffffffffffffffff\n        /* \"#utility.yul\":23640:23646   */\n      dup3\n        /* \"#utility.yul\":23637:23667   */\n      gt\n        /* \"#utility.yul\":23621:23734   */\n      or\n        /* \"#utility.yul\":23618:23764   */\n      iszero\n      tag_496\n      jumpi\n        /* \"#utility.yul\":23749:23754   */\n      pop\n      pop\n      jump(tag_493)\n        /* \"#utility.yul\":23618:23764   */\n    tag_496:\n        /* \"#utility.yul\":23795:23801   */\n      dup1\n        /* \"#utility.yul\":23789:23793   */\n      dup3\n        /* \"#utility.yul\":23785:23802   */\n      add\n        /* \"#utility.yul\":23831:23834   */\n      dup1\n        /* \"#utility.yul\":23825:23835   */\n      mload\n        /* \"#utility.yul\":23858:23876   */\n      0xffffffffffffffff\n        /* \"#utility.yul\":23850:23856   */\n      dup2\n        /* \"#utility.yul\":23847:23877   */\n      gt\n        /* \"#utility.yul\":23844:23887   */\n      iszero\n      tag_497\n      jumpi\n        /* \"#utility.yul\":23880:23885   */\n      pop\n      pop\n      pop\n      pop\n      jump(tag_493)\n        /* \"#utility.yul\":23844:23887   */\n    tag_497:\n        /* \"#utility.yul\":23928:23934   */\n      dup1\n        /* \"#utility.yul\":23921:23925   */\n      0x20\n        /* \"#utility.yul\":23916:23919   */\n      dup4\n        /* \"#utility.yul\":23912:23926   */\n      add\n        /* \"#utility.yul\":23908:23935   */\n      add\n        /* \"#utility.yul\":23987:23988   */\n      0x04\n        /* \"#utility.yul\":23969:23985   */\n      returndatasize\n        /* \"#utility.yul\":23965:23989   */\n      sub\n        /* \"#utility.yul\":23959:23963   */\n      dup6\n        /* \"#utility.yul\":23955:23990   */\n      add\n        /* \"#utility.yul\":23950:23953   */\n      dup2\n        /* \"#utility.yul\":23947:23991   */\n      gt\n        /* \"#utility.yul\":23944:24001   */\n      iszero\n      tag_498\n      jumpi\n        /* \"#utility.yul\":23994:23999   */\n      pop\n      pop\n      pop\n      pop\n      pop\n      jump(tag_493)\n        /* \"#utility.yul\":23944:24001   */\n    tag_498:\n        /* \"#utility.yul\":24011:24068   */\n      tag_499\n        /* \"#utility.yul\":24059:24065   */\n      dup3\n        /* \"#utility.yul\":24053:24057   */\n      0x20\n        /* \"#utility.yul\":24049:24066   */\n      add\n        /* \"#utility.yul\":24041:24047   */\n      dup6\n        /* \"#utility.yul\":24037:24067   */\n      add\n        /* \"#utility.yul\":24031:24035   */\n      dup7\n        /* \"#utility.yul\":24011:24068   */\n      tag_424\n      jump\t// in\n    tag_499:\n        /* \"#utility.yul\":24084:24087   */\n      dup3\n        /* \"#utility.yul\":24077:24087   */\n      swap6\n      pop\n        /* \"#utility.yul\":23425:24093   */\n      pop\n      pop\n      pop\n      pop\n      pop\n        /* \"#utility.yul\":23382:24093   */\n    tag_493:\n      swap1\n      jump\t// out\n        /* \"#utility.yul\":24099:24221   */\n    tag_237:\n        /* \"#utility.yul\":24172:24196   */\n      tag_501\n        /* \"#utility.yul\":24190:24195   */\n      dup2\n        /* \"#utility.yul\":24172:24196   */\n      tag_310\n      jump\t// in\n    tag_501:\n        /* \"#utility.yul\":24165:24170   */\n      dup2\n        /* \"#utility.yul\":24162:24197   */\n      eq\n        /* \"#utility.yul\":24152:24215   */\n      tag_502\n      jumpi\n        /* \"#utility.yul\":24211:24212   */\n      0x00\n        /* \"#utility.yul\":24208:24209   */\n      dup1\n        /* \"#utility.yul\":24201:24213   */\n      revert\n        /* \"#utility.yul\":24152:24215   */\n    tag_502:\n        /* \"#utility.yul\":24099:24221   */\n      pop\n      jump\t// out\n        /* \"#utility.yul\":24227:24343   */\n    tag_241:\n        /* \"#utility.yul\":24297:24318   */\n      tag_504\n        /* \"#utility.yul\":24312:24317   */\n      dup2\n        /* \"#utility.yul\":24297:24318   */\n      tag_314\n      jump\t// in\n    tag_504:\n        /* \"#utility.yul\":24290:24295   */\n      dup2\n        /* \"#utility.yul\":24287:24319   */\n      eq\n        /* \"#utility.yul\":24277:24337   */\n      tag_505\n      jumpi\n        /* \"#utility.yul\":24333:24334   */\n      0x00\n        /* \"#utility.yul\":24330:24331   */\n      dup1\n        /* \"#utility.yul\":24323:24335   */\n      revert\n        /* \"#utility.yul\":24277:24337   */\n    tag_505:\n        /* \"#utility.yul\":24227:24343   */\n      pop\n      jump\t// out\n        /* \"#utility.yul\":24349:24469   */\n    tag_245:\n        /* \"#utility.yul\":24421:24444   */\n      tag_507\n        /* \"#utility.yul\":24438:24443   */\n      dup2\n        /* \"#utility.yul\":24421:24444   */\n      tag_450\n      jump\t// in\n    tag_507:\n        /* \"#utility.yul\":24414:24419   */\n      dup2\n        /* \"#utility.yul\":24411:24445   */\n      eq\n        /* \"#utility.yul\":24401:24463   */\n      tag_508\n      jumpi\n        /* \"#utility.yul\":24459:24460   */\n      0x00\n        /* \"#utility.yul\":24456:24457   */\n      dup1\n        /* \"#utility.yul\":24449:24461   */\n      revert\n        /* \"#utility.yul\":24401:24463   */\n    tag_508:\n        /* \"#utility.yul\":24349:24469   */\n      pop\n      jump\t// out\n        /* \"#utility.yul\":24475:24597   */\n    tag_258:\n        /* \"#utility.yul\":24548:24572   */\n      tag_510\n        /* \"#utility.yul\":24566:24571   */\n      dup2\n        /* \"#utility.yul\":24548:24572   */\n      tag_386\n      jump\t// in\n    tag_510:\n        /* \"#utility.yul\":24541:24546   */\n      dup2\n        /* \"#utility.yul\":24538:24573   */\n      eq\n        /* \"#utility.yul\":24528:24591   */\n      tag_511\n      jumpi\n        /* \"#utility.yul\":24587:24588   */\n      0x00\n        /* \"#utility.yul\":24584:24585   */\n      dup1\n        /* \"#utility.yul\":24577:24589   */\n      revert\n        /* \"#utility.yul\":24528:24591   */\n    tag_511:\n        /* \"#utility.yul\":24475:24597   */\n      pop\n      jump\t// out\n\n    auxdata: 0xa26469706673582212209ba2df969e04ab738286feffce8b9f62cbcc3c8ac645a1006ed986a6b13b940064736f6c63430008070033\n}\n",
				"bytecode": {
					"linkReferences": {},
					"object": "60806040523480156200001157600080fd5b50604051620028453803806200284583398181016040528101906200003791906200019f565b81600490805190602001906200004f92919062000071565b5080600590805190602001906200006892919062000071565b505050620003a8565b8280546200007f90620002b9565b90600052602060002090601f016020900481019282620000a35760008555620000ef565b82601f10620000be57805160ff1916838001178555620000ef565b82800160010185558215620000ef579182015b82811115620000ee578251825591602001919060010190620000d1565b5b509050620000fe919062000102565b5090565b5b808211156200011d57600081600090555060010162000103565b5090565b60006200013862000132846200024d565b62000224565b90508281526020810184848401111562000157576200015662000388565b5b6200016484828562000283565b509392505050565b600082601f83011262000184576200018362000383565b5b81516200019684826020860162000121565b91505092915050565b60008060408385031215620001b957620001b862000392565b5b600083015167ffffffffffffffff811115620001da57620001d96200038d565b5b620001e8858286016200016c565b925050602083015167ffffffffffffffff8111156200020c576200020b6200038d565b5b6200021a858286016200016c565b9150509250929050565b60006200023062000243565b90506200023e8282620002ef565b919050565b6000604051905090565b600067ffffffffffffffff8211156200026b576200026a62000354565b5b620002768262000397565b9050602081019050919050565b60005b83811015620002a357808201518184015260208101905062000286565b83811115620002b3576000848401525b50505050565b60006002820490506001821680620002d257607f821691505b60208210811415620002e957620002e862000325565b5b50919050565b620002fa8262000397565b810181811067ffffffffffffffff821117156200031c576200031b62000354565b5b80604052505050565b7f4e487b7100000000000000000000000000000000000000000000000000000000600052602260045260246000fd5b7f4e487b7100000000000000000000000000000000000000000000000000000000600052604160045260246000fd5b600080fd5b600080fd5b600080fd5b600080fd5b6000601f19601f8301169050919050565b61248d80620003b86000396000f3fe608060405234801561001057600080fd5b506004361061010b5760003560e01c806342842e0e116100a257806395d89b411161007157806395d89b41146102f0578063a22cb4651461030e578063b88d4fde1461032a578063c87b56dd14610346578063e985e9c5146103765761010b565b806342842e0e146102445780634f6ccce7146102605780636352211e1461029057806370a08231146102c05761010b565b80630e89341c116100de5780630e89341c146101aa57806318160ddd146101da57806323b872dd146101f85780632f745c59146102145761010b565b806301ffc9a71461011057806306fdde0314610140578063081812fc1461015e578063095ea7b31461018e575b600080fd5b61012a600480360381019061012591906119bb565b6103a6565b6040516101379190611ca6565b60405180910390f35b6101486105b0565b6040516101559190611cc1565b60405180910390f35b61017860048036038101906101739190611a15565b610642565b6040516101859190611c3f565b60405180910390f35b6101a860048036038101906101a3919061197b565b610721565b005b6101c460048036038101906101bf9190611a15565b61082b565b6040516101d19190611cc1565b60405180910390f35b6101e261083d565b6040516101ef9190611e23565b60405180910390f35b610212600480360381019061020d9190611865565b61084a565b005b61022e6004803603810190610229919061197b565b610bd5565b60405161023b9190611e23565b60405180910390f35b61025e60048036038101906102599190611865565b610cb0565b005b61027a60048036038101906102759190611a15565b610cd0565b6040516102879190611e23565b60405180910390f35b6102aa60048036038101906102a59190611a15565b610d3f565b6040516102b79190611c3f565b60405180910390f35b6102da60048036038101906102d591906117f8565b610df1565b6040516102e79190611e23565b60405180910390f35b6102f8610ea8565b6040516103059190611cc1565b60405180910390f35b6103286004803603810190610323919061193b565b610f3a565b005b610344600480360381019061033f91906118b8565b6110a6565b005b610360600480360381019061035b9190611a15565b611102565b60405161036d9190611cc1565b60405180910390f35b610390600480360381019061038b9190611825565b6111a7565b60405161039d9190611ca6565b60405180910390f35b60007f01ffc9a7000000000000000000000000000000000000000000000000000000007bffffffffffffffffffffffffffffffffffffffffffffffffffffffff1916827bffffffffffffffffffffffffffffffffffffffffffffffffffffffff1916148061047157507f80ac58cd000000000000000000000000000000000000000000000000000000007bffffffffffffffffffffffffffffffffffffffffffffffffffffffff1916827bffffffffffffffffffffffffffffffffffffffffffffffffffffffff1916145b806104d957507f5b5e139f000000000000000000000000000000000000000000000000000000007bffffffffffffffffffffffffffffffffffffffffffffffffffffffff1916827bffffffffffffffffffffffffffffffffffffffffffffffffffffffff1916145b8061054157507f0e89341c000000000000000000000000000000000000000000000000000000007bffffffffffffffffffffffffffffffffffffffffffffffffffffffff1916827bffffffffffffffffffffffffffffffffffffffffffffffffffffffff1916145b806105a957507f780e9d63000000000000000000000000000000000000000000000000000000007bffffffffffffffffffffffffffffffffffffffffffffffffffffffff1916827bffffffffffffffffffffffffffffffffffffffffffffffffffffffff1916145b9050919050565b6060600480546105bf9061200c565b80601f01602080910402602001604051908101604052809291908181526020018280546105eb9061200c565b80156106385780601f1061060d57610100808354040283529160200191610638565b820191906000526020600020905b81548152906001019060200180831161061b57829003601f168201915b5050505050905090565b60008073ffffffffffffffffffffffffffffffffffffffff166001600084815260200190815260200160002060009054906101000a900473ffffffffffffffffffffffffffffffffffffffff1673ffffffffffffffffffffffffffffffffffffffff1614156106e6576040517f08c379a00000000000000000000000000000000000000000000000000000000081526004016106dd90611de3565b60405180910390fd5b6003600083815260200190815260200160002060009054906101000a900473ffffffffffffffffffffffffffffffffffffffff169050919050565b600061072c82610d3f565b90508073ffffffffffffffffffffffffffffffffffffffff168373ffffffffffffffffffffffffffffffffffffffff16141561079d576040517f08c379a000000000000000000000000000000000000000000000000000000000815260040161079490611dc3565b60405180910390fd5b8073ffffffffffffffffffffffffffffffffffffffff163373ffffffffffffffffffffffffffffffffffffffff1614806107dd57506107dc81336111a7565b5b61081c576040517f08c379a000000000000000000000000000000000000000000000000000000000815260040161081390611d63565b60405180910390fd5b610826838361123b565b505050565b606061083682611102565b9050919050565b6000600980549050905090565b600073ffffffffffffffffffffffffffffffffffffffff168373ffffffffffffffffffffffffffffffffffffffff1614156108ba576040517f08c379a00000000000000000000000000000000000000000000000000000000081526004016108b190611ce3565b60405180910390fd5b600073ffffffffffffffffffffffffffffffffffffffff168273ffffffffffffffffffffffffffffffffffffffff16141561092a576040517f08c379a000000000000000000000000000000000000000000000000000000000815260040161092190611d83565b60405180910390fd5b600061093582610d3f565b90508373ffffffffffffffffffffffffffffffffffffffff168173ffffffffffffffffffffffffffffffffffffffff16146109a5576040517f08c379a000000000000000000000000000000000000000000000000000000000815260040161099c90611da3565b60405180910390fd5b8073ffffffffffffffffffffffffffffffffffffffff163373ffffffffffffffffffffffffffffffffffffffff161480610a1257506109e382610642565b73ffffffffffffffffffffffffffffffffffffffff163373ffffffffffffffffffffffffffffffffffffffff16145b80610a235750610a2281336111a7565b5b610a62576040517f08c379a0000000000000000000000000000000000000000000000000000000008152600401610a5990611d03565b60405180910390fd5b60016000808673ffffffffffffffffffffffffffffffffffffffff1673ffffffffffffffffffffffffffffffffffffffff1681526020019081526020016000206000828254610ab19190611f22565b9250508190555060016000808573ffffffffffffffffffffffffffffffffffffffff1673ffffffffffffffffffffffffffffffffffffffff1681526020019081526020016000206000828254610b079190611ecc565b92505081905550826001600084815260200190815260200160002060006101000a81548173ffffffffffffffffffffffffffffffffffffffff021916908373ffffffffffffffffffffffffffffffffffffffff160217905550818373ffffffffffffffffffffffffffffffffffffffff168573ffffffffffffffffffffffffffffffffffffffff167fddf252ad1be2c89b69c2b068fc378daa952ba7f163c4a11628f55a4df523b3ef60405160405180910390a4610bc584836112fa565b610bcf8383611492565b50505050565b60008060008473ffffffffffffffffffffffffffffffffffffffff1673ffffffffffffffffffffffffffffffffffffffff168152602001908152602001600020548210610c57576040517f08c379a0000000000000000000000000000000000000000000000000000000008152600401610c4e90611e03565b60405180910390fd5b600760008473ffffffffffffffffffffffffffffffffffffffff1673ffffffffffffffffffffffffffffffffffffffff168152602001908152602001600020600083815260200190815260200160002054905092915050565b610ccb838383604051806020016040528060008152506110a6565b505050565b60006009805490508210610d19576040517f08c379a0000000000000000000000000000000000000000000000000000000008152600401610d1090611e03565b60405180910390fd5b60098281548110610d2d57610d2c6120cd565b5b90600052602060002001549050919050565b6000806001600084815260200190815260200160002060009054906101000a900473ffffffffffffffffffffffffffffffffffffffff169050600073ffffffffffffffffffffffffffffffffffffffff168173ffffffffffffffffffffffffffffffffffffffff161415610de8576040517f08c379a0000000000000000000000000000000000000000000000000000000008152600401610ddf90611de3565b60405180910390fd5b80915050919050565b60008073ffffffffffffffffffffffffffffffffffffffff168273ffffffffffffffffffffffffffffffffffffffff161415610e62576040517f08c379a0000000000000000000000000000000000000000000000000000000008152600401610e5990611d23565b60405180910390fd5b6000808373ffffffffffffffffffffffffffffffffffffffff1673ffffffffffffffffffffffffffffffffffffffff168152602001908152602001600020549050919050565b606060058054610eb79061200c565b80601f0160208091040260200160405190810160405280929190818152602001828054610ee39061200c565b8015610f305780601f10610f0557610100808354040283529160200191610f30565b820191906000526020600020905b815481529060010190602001808311610f1357829003601f168201915b5050505050905090565b8173ffffffffffffffffffffffffffffffffffffffff163373ffffffffffffffffffffffffffffffffffffffff161415610fa9576040517f08c379a0000000000000000000000000000000000000000000000000000000008152600401610fa090611dc3565b60405180910390fd5b80600260003373ffffffffffffffffffffffffffffffffffffffff1673ffffffffffffffffffffffffffffffffffffffff16815260200190815260200160002060008473ffffffffffffffffffffffffffffffffffffffff1673ffffffffffffffffffffffffffffffffffffffff16815260200190815260200160002060006101000a81548160ff0219169083151502179055508173ffffffffffffffffffffffffffffffffffffffff163373ffffffffffffffffffffffffffffffffffffffff167f17307eab39ab6107e8899845ad3d59bd9653f200f220920489ca2b5937696c318360405161109a9190611ca6565b60405180910390a35050565b6110b184848461084a565b6110bd84848484611553565b6110fc576040517f08c379a00000000000000000000000000000000000000000000000000000000081526004016110f390611d43565b60405180910390fd5b50505050565b60606006600083815260200190815260200160002080546111229061200c565b80601f016020809104026020016040519081016040528092919081815260200182805461114e9061200c565b801561119b5780601f106111705761010080835404028352916020019161119b565b820191906000526020600020905b81548152906001019060200180831161117e57829003601f168201915b50505050509050919050565b6000600260008473ffffffffffffffffffffffffffffffffffffffff1673ffffffffffffffffffffffffffffffffffffffff16815260200190815260200160002060008373ffffffffffffffffffffffffffffffffffffffff1673ffffffffffffffffffffffffffffffffffffffff16815260200190815260200160002060009054906101000a900460ff16905092915050565b816003600083815260200190815260200160002060006101000a81548173ffffffffffffffffffffffffffffffffffffffff021916908373ffffffffffffffffffffffffffffffffffffffff160217905550600061129882610d3f565b9050818373ffffffffffffffffffffffffffffffffffffffff168273ffffffffffffffffffffffffffffffffffffffff167f8c5be1e5ebec7d5bd14f71427d1e84f3dd0314c0f7b2291e5b200ac8c7c3b92560405160405180910390a4505050565b60006008600083815260200190815260200160002054905060008060008573ffffffffffffffffffffffffffffffffffffffff1673ffffffffffffffffffffffffffffffffffffffff16815260200190815260200160002054905080821015611421576000600760008673ffffffffffffffffffffffffffffffffffffffff1673ffffffffffffffffffffffffffffffffffffffff168152602001908152602001600020600083815260200190815260200160002054905080600760008773ffffffffffffffffffffffffffffffffffffffff1673ffffffffffffffffffffffffffffffffffffffff168152602001908152602001600020600085815260200190815260200160002081905550826008600083815260200190815260200160002081905550505b600760008573ffffffffffffffffffffffffffffffffffffffff1673ffffffffffffffffffffffffffffffffffffffff168152602001908152602001600020600082815260200190815260200160002060009055600860008481526020019081526020016000206000905550505050565b600060016000808573ffffffffffffffffffffffffffffffffffffffff1673ffffffffffffffffffffffffffffffffffffffff168152602001908152602001600020546114df9190611f22565b905081600760008573ffffffffffffffffffffffffffffffffffffffff1673ffffffffffffffffffffffffffffffffffffffff168152602001908152602001600020600083815260200190815260200160002081905550806008600084815260200190815260200160002081905550505050565b6000808473ffffffffffffffffffffffffffffffffffffffff163b1161157c5760019050611717565b60008490508073ffffffffffffffffffffffffffffffffffffffff1663150b7a02338887876040518563ffffffff1660e01b81526004016115c09493929190611c5a565b602060405180830381600087803b1580156115da57600080fd5b505af192505050801561160b57506040513d601f19601f8201168201806040525081019061160891906119e8565b60015b6116b15761161761212b565b806308c379a01415611674575061162c612365565b806116375750611676565b806040517f08c379a000000000000000000000000000000000000000000000000000000000815260040161166b9190611cc1565b60405180910390fd5b505b6040517f08c379a00000000000000000000000000000000000000000000000000000000081526004016116a890611d43565b60405180910390fd5b7f150b7a02000000000000000000000000000000000000000000000000000000007bffffffffffffffffffffffffffffffffffffffffffffffffffffffff1916817bffffffffffffffffffffffffffffffffffffffffffffffffffffffff191614925050505b949350505050565b600061173261172d84611e63565b611e3e565b90508281526020810184848401111561174e5761174d612152565b5b611759848285611fca565b509392505050565b600081359050611770816123fb565b92915050565b60008135905061178581612412565b92915050565b60008135905061179a81612429565b92915050565b6000815190506117af81612429565b92915050565b600082601f8301126117ca576117c961214d565b5b81356117da84826020860161171f565b91505092915050565b6000813590506117f281612440565b92915050565b60006020828403121561180e5761180d61215c565b5b600061181c84828501611761565b91505092915050565b6000806040838503121561183c5761183b61215c565b5b600061184a85828601611761565b925050602061185b85828601611761565b9150509250929050565b60008060006060848603121561187e5761187d61215c565b5b600061188c86828701611761565b935050602061189d86828701611761565b92505060406118ae868287016117e3565b9150509250925092565b600080600080608085870312156118d2576118d161215c565b5b60006118e087828801611761565b94505060206118f187828801611761565b9350506040611902878288016117e3565b925050606085013567ffffffffffffffff81111561192357611922612157565b5b61192f878288016117b5565b91505092959194509250565b600080604083850312156119525761195161215c565b5b600061196085828601611761565b925050602061197185828601611776565b9150509250929050565b600080604083850312156119925761199161215c565b5b60006119a085828601611761565b92505060206119b1858286016117e3565b9150509250929050565b6000602082840312156119d1576119d061215c565b5b60006119df8482850161178b565b91505092915050565b6000602082840312156119fe576119fd61215c565b5b6000611a0c848285016117a0565b91505092915050565b600060208284031215611a2b57611a2a61215c565b5b6000611a39848285016117e3565b91505092915050565b611a4b81611f56565b82525050565b611a5a81611f68565b82525050565b6000611a6b82611e94565b611a758185611eaa565b9350611a85818560208601611fd9565b611a8e81612161565b840191505092915050565b6000611aa482611e9f565b611aae8185611ebb565b9350611abe818560208601611fd9565b611ac781612161565b840191505092915050565b6000611adf601a83611ebb565b9150611aea8261217f565b602082019050919050565b6000611b02601f83611ebb565b9150611b0d826121a8565b602082019050919050565b6000611b25601583611ebb565b9150611b30826121d1565b602082019050919050565b6000611b48602a83611ebb565b9150611b53826121fa565b604082019050919050565b6000611b6b602d83611ebb565b9150611b7682612249565b604082019050919050565b6000611b8e601883611ebb565b9150611b9982612298565b602082019050919050565b6000611bb1602083611ebb565b9150611bbc826122c1565b602082019050919050565b6000611bd4601883611ebb565b9150611bdf826122ea565b602082019050919050565b6000611bf7601383611ebb565b9150611c0282612313565b602082019050919050565b6000611c1a601383611ebb565b9150611c258261233c565b602082019050919050565b611c3981611fc0565b82525050565b6000602082019050611c546000830184611a42565b92915050565b6000608082019050611c6f6000830187611a42565b611c7c6020830186611a42565b611c896040830185611c30565b8181036060830152611c9b8184611a60565b905095945050505050565b6000602082019050611cbb6000830184611a51565b92915050565b60006020820190508181036000830152611cdb8184611a99565b905092915050565b60006020820190508181036000830152611cfc81611ad2565b9050919050565b60006020820190508181036000830152611d1c81611af5565b9050919050565b60006020820190508181036000830152611d3c81611b18565b9050919050565b60006020820190508181036000830152611d5c81611b3b565b9050919050565b60006020820190508181036000830152611d7c81611b5e565b9050919050565b60006020820190508181036000830152611d9c81611b81565b9050919050565b60006020820190508181036000830152611dbc81611ba4565b9050919050565b60006020820190508181036000830152611ddc81611bc7565b9050919050565b60006020820190508181036000830152611dfc81611bea565b9050919050565b60006020820190508181036000830152611e1c81611c0d565b9050919050565b6000602082019050611e386000830184611c30565b92915050565b6000611e48611e59565b9050611e54828261203e565b919050565b6000604051905090565b600067ffffffffffffffff821115611e7e57611e7d6120fc565b5b611e8782612161565b9050602081019050919050565b600081519050919050565b600081519050919050565b600082825260208201905092915050565b600082825260208201905092915050565b6000611ed782611fc0565b9150611ee283611fc0565b9250827fffffffffffffffffffffffffffffffffffffffffffffffffffffffffffffffff03821115611f1757611f1661206f565b5b828201905092915050565b6000611f2d82611fc0565b9150611f3883611fc0565b925082821015611f4b57611f4a61206f565b5b828203905092915050565b6000611f6182611fa0565b9050919050565b60008115159050919050565b60007fffffffff0000000000000000000000000000000000000000000000000000000082169050919050565b600073ffffffffffffffffffffffffffffffffffffffff82169050919050565b6000819050919050565b82818337600083830152505050565b60005b83811015611ff7578082015181840152602081019050611fdc565b83811115612006576000848401525b50505050565b6000600282049050600182168061202457607f821691505b602082108114156120385761203761209e565b5b50919050565b61204782612161565b810181811067ffffffffffffffff82111715612066576120656120fc565b5b80604052505050565b7f4e487b7100000000000000000000000000000000000000000000000000000000600052601160045260246000fd5b7f4e487b7100000000000000000000000000000000000000000000000000000000600052602260045260246000fd5b7f4e487b7100000000000000000000000000000000000000000000000000000000600052603260045260246000fd5b7f4e487b7100000000000000000000000000000000000000000000000000000000600052604160045260246000fd5b600060033d111561214a5760046000803e612147600051612172565b90505b90565b600080fd5b600080fd5b600080fd5b600080fd5b6000601f19601f8301169050919050565b60008160e01c9050919050565b7f7472616e736665722066726f6d207a65726f2061646472657373000000000000600082015250565b7f63616c6c6572206973206e6f74206f776e6572206f7220617070726f76616c00600082015250565b7f6f776e6572206973207a65726f20616464726573730000000000000000000000600082015250565b7f7472616e7366657220746f206e6f6e204552433732315265636569766572206960008201527f6d706c656d656e74657200000000000000000000000000000000000000000000602082015250565b7f63616c6c6572206973206e6f7420746f6b656e206f776e6572206f722061707060008201527f726f76616c20666f7220616c6c00000000000000000000000000000000000000602082015250565b7f7472616e7366657220746f207a65726f20616464726573730000000000000000600082015250565b7f7472616e736665722066726f6d206973206e6f7420746f6b656e206f776e6572600082015250565b7f617070726f76616c2073746174757320666f722073656c660000000000000000600082015250565b7f746f6b656e206973206e6f742065786973747300000000000000000000000000600082015250565b7f696e646578206f7574206f6620626f756e647300000000000000000000000000600082015250565b600060443d1015612375576123f8565b61237d611e59565b60043d036004823e80513d602482011167ffffffffffffffff821117156123a55750506123f8565b808201805167ffffffffffffffff8111156123c357505050506123f8565b80602083010160043d0385018111156123e05750505050506123f8565b6123ef8260200185018661203e565b82955050505050505b90565b61240481611f56565b811461240f57600080fd5b50565b61241b81611f68565b811461242657600080fd5b50565b61243281611f74565b811461243d57600080fd5b50565b61244981611fc0565b811461245457600080fd5b5056fea26469706673582212209ba2df969e04ab738286feffce8b9f62cbcc3c8ac645a1006ed986a6b13b940064736f6c63430008070033",
					"opcodes": "PUSH1 0x80 PUSH1 0x40 MSTORE CALLVALUE DUP1 ISZERO PUSH3 0x11 JUMPI PUSH1 0x0 DUP1 REVERT JUMPDEST POP PUSH1 0x40 MLOAD PUSH3 0x2845 CODESIZE SUB DUP1 PUSH3 0x2845 DUP4 CODECOPY DUP2 DUP2 ADD PUSH1 0x40 MSTORE DUP2 ADD SWAP1 PUSH3 0x37 SWAP2 SWAP1 PUSH3 0x19F JUMP JUMPDEST DUP2 PUSH1 0x4 SWAP1 DUP1 MLOAD SWAP1 PUSH1 0x20 ADD SWAP1 PUSH3 0x4F SWAP3 SWAP2 SWAP1 PUSH3 0x71 JUMP JUMPDEST POP DUP1 PUSH1 0x5 SWAP1 DUP1 MLOAD SWAP1 PUSH1 0x20 ADD SWAP1 PUSH3 0x68 SWAP3 SWAP2 SWAP1 PUSH3 0x71 JUMP JUMPDEST POP POP POP PUSH3 0x3A8 JUMP JUMPDEST DUP3 DUP1 SLOAD PUSH3 0x7F SWAP1 PUSH3 0x2B9 JUMP JUMPDEST SWAP1 PUSH1 0x0 MSTORE PUSH1 0x20 PUSH1 0x0 KECCAK256 SWAP1 PUSH1 0x1F ADD PUSH1 0x20 SWAP1 DIV DUP2 ADD SWAP3 DUP3 PUSH3 0xA3 JUMPI PUSH1 0x0 DUP6 SSTORE PUSH3 0xEF JUMP JUMPDEST DUP3 PUSH1 0x1F LT PUSH3 0xBE JUMPI DUP1 MLOAD PUSH1 0xFF NOT AND DUP4 DUP1 ADD OR DUP6 SSTORE PUSH3 0xEF JUMP JUMPDEST DUP3 DUP1 ADD PUSH1 0x1 ADD DUP6 SSTORE DUP3 ISZERO PUSH3 0xEF JUMPI SWAP2 DUP3 ADD JUMPDEST DUP3 DUP2 GT ISZERO PUSH3 0xEE JUMPI DUP3 MLOAD DUP3 SSTORE SWAP2 PUSH1 0x20 ADD SWAP2 SWAP1 PUSH1 0x1 ADD SWAP1 PUSH3 0xD1 JUMP JUMPDEST JUMPDEST POP SWAP1 POP PUSH3 0xFE SWAP2 SWAP1 PUSH3 0x102 JUMP JUMPDEST POP SWAP1 JUMP JUMPDEST JUMPDEST DUP1 DUP3 GT ISZERO PUSH3 0x11D JUMPI PUSH1 0x0 DUP2 PUSH1 0x0 SWAP1 SSTORE POP PUSH1 0x1 ADD PUSH3 0x103 JUMP JUMPDEST POP SWAP1 JUMP JUMPDEST PUSH1 0x0 PUSH3 0x138 PUSH3 0x132 DUP5 PUSH3 0x24D JUMP JUMPDEST PUSH3 0x224 JUMP JUMPDEST SWAP1 POP DUP3 DUP2 MSTORE PUSH1 0x20 DUP2 ADD DUP5 DUP5 DUP5 ADD GT ISZERO PUSH3 0x157 JUMPI PUSH3 0x156 PUSH3 0x388 JUMP JUMPDEST JUMPDEST PUSH3 0x164 DUP5 DUP3 DUP6 PUSH3 0x283 JUMP JUMPDEST POP SWAP4 SWAP3 POP POP POP JUMP JUMPDEST PUSH1 0x0 DUP3 PUSH1 0x1F DUP4 ADD SLT PUSH3 0x184 JUMPI PUSH3 0x183 PUSH3 0x383 JUMP JUMPDEST JUMPDEST DUP2 MLOAD PUSH3 0x196 DUP5 DUP3 PUSH1 0x20 DUP7 ADD PUSH3 0x121 JUMP JUMPDEST SWAP2 POP POP SWAP3 SWAP2 POP POP JUMP JUMPDEST PUSH1 0x0 DUP1 PUSH1 0x40 DUP4 DUP6 SUB SLT ISZERO PUSH3 0x1B9 JUMPI PUSH3 0x1B8 PUSH3 0x392 JUMP JUMPDEST JUMPDEST PUSH1 0x0 DUP4 ADD MLOAD PUSH8 0xFFFFFFFFFFFFFFFF DUP2 GT ISZERO PUSH3 0x1DA JUMPI PUSH3 0x1D9 PUSH3 0x38D JUMP JUMPDEST JUMPDEST PUSH3 0x1E8 DUP6 DUP3 DUP7 ADD PUSH3 0x16C JUMP JUMPDEST SWAP3 POP POP PUSH1 0x20 DUP4 ADD MLOAD PUSH8 0xFFFFFFFFFFFFFFFF DUP2 GT ISZERO PUSH3 0x20C JUMPI PUSH3 0x20B PUSH3 0x38D JUMP JUMPDEST JUMPDEST PUSH3 0x21A DUP6 DUP3 DUP7 ADD PUSH3 0x16C JUMP JUMPDEST SWAP2 POP POP SWAP3 POP SWAP3 SWAP1 POP JUMP JUMPDEST PUSH1 0x0 PUSH3 0x230 PUSH3 0x243 JUMP JUMPDEST SWAP1 POP PUSH3 0x23E DUP3 DUP3 PUSH3 0x2EF JUMP JUMPDEST SWAP2 SWAP1 POP JUMP JUMPDEST PUSH1 0x0 PUSH1 0x40 MLOAD SWAP1 POP SWAP1 JUMP JUMPDEST PUSH1 0x0 PUSH8 0xFFFFFFFFFFFFFFFF DUP3 GT ISZERO PUSH3 0x26B JUMPI PUSH3 0x26A PUSH3 0x354 JUMP JUMPDEST JUMPDEST PUSH3 0x276 DUP3 PUSH3 0x397 JUMP JUMPDEST SWAP1 POP PUSH1 0x20 DUP2 ADD SWAP1 POP SWAP2 SWAP1 POP JUMP JUMPDEST PUSH1 0x0 JUMPDEST DUP4 DUP2 LT ISZERO PUSH3 0x2A3 JUMPI DUP1 DUP3 ADD MLOAD DUP2 DUP5 ADD MSTORE PUSH1 0x20 DUP2 ADD SWAP1 POP PUSH3 0x286 JUMP JUMPDEST DUP4 DUP2 GT ISZERO PUSH3 0x2B3 JUMPI PUSH1 0x0 DUP5 DUP5 ADD MSTORE JUMPDEST POP POP POP POP JUMP JUMPDEST PUSH1 0x0 PUSH1 0x2 DUP3 DIV SWAP1 POP PUSH1 0x1 DUP3 AND DUP1 PUSH3 0x2D2 JUMPI PUSH1 0x7F DUP3 AND SWAP2 POP JUMPDEST PUSH1 0x20 DUP3 LT DUP2 EQ ISZERO PUSH3 0x2E9 JUMPI PUSH3 0x2E8 PUSH3 0x325 JUMP JUMPDEST JUMPDEST POP SWAP2 SWAP1 POP JUMP JUMPDEST PUSH3 0x2FA DUP3 PUSH3 0x397 JUMP JUMPDEST DUP2 ADD DUP2 DUP2 LT PUSH8 0xFFFFFFFFFFFFFFFF DUP3 GT OR ISZERO PUSH3 0x31C JUMPI PUSH3 0x31B PUSH3 0x354 JUMP JUMPDEST JUMPDEST DUP1 PUSH1 0x40 MSTORE POP POP POP JUMP JUMPDEST PUSH32 0x4E487B7100000000000000000000000000000000000000000000000000000000 PUSH1 0x0 MSTORE PUSH1 0x22 PUSH1 0x4 MSTORE PUSH1 0x24 PUSH1 0x0 REVERT JUMPDEST PUSH32 0x4E487B7100000000000000000000000000000000000000000000000000000000 PUSH1 0x0 MSTORE PUSH1 0x41 PUSH1 0x4 MSTORE PUSH1 0x24 PUSH1 0x0 REVERT JUMPDEST PUSH1 0x0 DUP1 REVERT JUMPDEST PUSH1 0x0 DUP1 REVERT JUMPDEST PUSH1 0x0 DUP1 REVERT JUMPDEST PUSH1 0x0 DUP1 REVERT JUMPDEST PUSH1 0x0 PUSH1 0x1F NOT PUSH1 0x1F DUP4 ADD AND SWAP1 POP SWAP2 SWAP1 POP JUMP JUMPDEST PUSH2 0x248D DUP1 PUSH3 0x3B8 PUSH1 0x0 CODECOPY PUSH1 0x0 RETURN INVALID PUSH1 0x80 PUSH1 0x40 MSTORE CALLVALUE DUP1 ISZERO PUSH2 0x10 JUMPI PUSH1 0x0 DUP1 REVERT JUMPDEST POP PUSH1 0x4 CALLDATASIZE LT PUSH2 0x10B JUMPI PUSH1 0x0 CALLDATALOAD PUSH1 0xE0 SHR DUP1 PUSH4 0x42842E0E GT PUSH2 0xA2 JUMPI DUP1 PUSH4 0x95D89B41 GT PUSH2 0x71 JUMPI DUP1 PUSH4 0x95D89B41 EQ PUSH2 0x2F0 JUMPI DUP1 PUSH4 0xA22CB465 EQ PUSH2 0x30E JUMPI DUP1 PUSH4 0xB88D4FDE EQ PUSH2 0x32A JUMPI DUP1 PUSH4 0xC87B56DD EQ PUSH2 0x346 JUMPI DUP1 PUSH4 0xE985E9C5 EQ PUSH2 0x376 JUMPI PUSH2 0x10B JUMP JUMPDEST DUP1 PUSH4 0x42842E0E EQ PUSH2 0x244 JUMPI DUP1 PUSH4 0x4F6CCCE7 EQ PUSH2 0x260 JUMPI DUP1 PUSH4 0x6352211E EQ PUSH2 0x290 JUMPI DUP1 PUSH4 0x70A08231 EQ PUSH2 0x2C0 JUMPI PUSH2 0x10B JUMP JUMPDEST DUP1 PUSH4 0xE89341C GT PUSH2 0xDE JUMPI DUP1 PUSH4 0xE89341C EQ PUSH2 0x1AA JUMPI DUP1 PUSH4 0x18160DDD EQ PUSH2 0x1DA JUMPI DUP1 PUSH4 0x23B872DD EQ PUSH2 0x1F8 JUMPI DUP1 PUSH4 0x2F745C59 EQ PUSH2 0x214 JUMPI PUSH2 0x10B JUMP JUMPDEST DUP1 PUSH4 0x1FFC9A7 EQ PUSH2 0x110 JUMPI DUP1 PUSH4 0x6FDDE03 EQ PUSH2 0x140 JUMPI DUP1 PUSH4 0x81812FC EQ PUSH2 0x15E JUMPI DUP1 PUSH4 0x95EA7B3 EQ PUSH2 0x18E JUMPI JUMPDEST PUSH1 0x0 DUP1 REVERT JUMPDEST PUSH2 0x12A PUSH1 0x4 DUP1 CALLDATASIZE SUB DUP2 ADD SWAP1 PUSH2 0x125 SWAP2 SWAP1 PUSH2 0x19BB JUMP JUMPDEST PUSH2 0x3A6 JUMP JUMPDEST PUSH1 0x40 MLOAD PUSH2 0x137 SWAP2 SWAP1 PUSH2 0x1CA6 JUMP JUMPDEST PUSH1 0x40 MLOAD DUP1 SWAP2 SUB SWAP1 RETURN JUMPDEST PUSH2 0x148 PUSH2 0x5B0 JUMP JUMPDEST PUSH1 0x40 MLOAD PUSH2 0x155 SWAP2 SWAP1 PUSH2 0x1CC1 JUMP JUMPDEST PUSH1 0x40 MLOAD DUP1 SWAP2 SUB SWAP1 RETURN JUMPDEST PUSH2 0x178 PUSH1 0x4 DUP1 CALLDATASIZE SUB DUP2 ADD SWAP1 PUSH2 0x173 SWAP2 SWAP1 PUSH2 0x1A15 JUMP JUMPDEST PUSH2 0x642 JUMP JUMPDEST PUSH1 0x40 MLOAD PUSH2 0x185 SWAP2 SWAP1 PUSH2 0x1C3F JUMP JUMPDEST PUSH1 0x40 MLOAD DUP1 SWAP2 SUB SWAP1 RETURN JUMPDEST PUSH2 0x1A8 PUSH1 0x4 DUP1 CALLDATASIZE SUB DUP2 ADD SWAP1 PUSH2 0x1A3 SWAP2 SWAP1 PUSH2 0x197B JUMP JUMPDEST PUSH2 0x721 JUMP JUMPDEST STOP JUMPDEST PUSH2 0x1C4 PUSH1 0x4 DUP1 CALLDATASIZE SUB DUP2 ADD SWAP1 PUSH2 0x1BF SWAP2 SWAP1 PUSH2 0x1A15 JUMP JUMPDEST PUSH2 0x82B JUMP JUMPDEST PUSH1 0x40 MLOAD PUSH2 0x1D1 SWAP2 SWAP1 PUSH2 0x1CC1 JUMP JUMPDEST PUSH1 0x40 MLOAD DUP1 SWAP2 SUB SWAP1 RETURN JUMPDEST PUSH2 0x1E2 PUSH2 0x83D JUMP JUMPDEST PUSH1 0x40 MLOAD PUSH2 0x1EF SWAP2 SWAP1 PUSH2 0x1E23 JUMP JUMPDEST PUSH1 0x40 MLOAD DUP1 SWAP2 SUB SWAP1 RETURN JUMPDEST PUSH2 0x212 PUSH1 0x4 DUP1 CALLDATASIZE SUB DUP2 ADD SWAP1 PUSH2 0x20D SWAP2 SWAP1 PUSH2 0x1865 JUMP JUMPDEST PUSH2 0x84A JUMP JUMPDEST STOP JUMPDEST PUSH2 0x22E PUSH1 0x4 DUP1 CALLDATASIZE SUB DUP2 ADD SWAP1 PUSH2 0x229 SWAP2 SWAP1 PUSH2 0x197B JUMP JUMPDEST PUSH2 0xBD5 JUMP JUMPDEST PUSH1 0x40 MLOAD PUSH2 0x23B SWAP2 SWAP1 PUSH2 0x1E23 JUMP JUMPDEST PUSH1 0x40 MLOAD DUP1 SWAP2 SUB SWAP1 RETURN JUMPDEST PUSH2 0x25E PUSH1 0x4 DUP1 CALLDATASIZE SUB DUP2 ADD SWAP1 PUSH2 0x259 SWAP2 SWAP1 PUSH2 0x1865 JUMP JUMPDEST PUSH2 0xCB0 JUMP JUMPDEST STOP JUMPDEST PUSH2 0x27A PUSH1 0x4 DUP1 CALLDATASIZE SUB DUP2 ADD SWAP1 PUSH2 0x275 SWAP2 SWAP1 PUSH2 0x1A15 JUMP JUMPDEST PUSH2 0xCD0 JUMP JUMPDEST PUSH1 0x40 MLOAD PUSH2 0x287 SWAP2 SWAP1 PUSH2 0x1E23 JUMP JUMPDEST PUSH1 0x40 MLOAD DUP1 SWAP2 SUB SWAP1 RETURN JUMPDEST PUSH2 0x2AA PUSH1 0x4 DUP1 CALLDATASIZE SUB DUP2 ADD SWAP1 PUSH2 0x2A5 SWAP2 SWAP1 PUSH2 0x1A15 JUMP JUMPDEST PUSH2 0xD3F JUMP JUMPDEST PUSH1 0x40 MLOAD PUSH2 0x2B7 SWAP2 SWAP1 PUSH2 0x1C3F JUMP JUMPDEST PUSH1 0x40 MLOAD DUP1 SWAP2 SUB SWAP1 RETURN JUMPDEST PUSH2 0x2DA PUSH1 0x4 DUP1 CALLDATASIZE SUB DUP2 ADD SWAP1 PUSH2 0x2D5 SWAP2 SWAP1 PUSH2 0x17F8 JUMP JUMPDEST PUSH2 0xDF1 JUMP JUMPDEST PUSH1 0x40 MLOAD PUSH2 0x2E7 SWAP2 SWAP1 PUSH2 0x1E23 JUMP JUMPDEST PUSH1 0x40 MLOAD DUP1 SWAP2 SUB SWAP1 RETURN JUMPDEST PUSH2 0x2F8 PUSH2 0xEA8 JUMP JUMPDEST PUSH1 0x40 MLOAD PUSH2 0x305 SWAP2 SWAP1 PUSH2 0x1CC1 JUMP JUMPDEST PUSH1 0x40 MLOAD DUP1 SWAP2 SUB SWAP1 RETURN JUMPDEST PUSH2 0x328 PUSH1 0x4 DUP1 CALLDATASIZE SUB DUP2 ADD SWAP1 PUSH2 0x323 SWAP2 SWAP1 PUSH2 0x193B JUMP JUMPDEST PUSH2 0xF3A JUMP JUMPDEST STOP JUMPDEST PUSH2 0x344 PUSH1 0x4 DUP1 CALLDATASIZE SUB DUP2 ADD SWAP1 PUSH2 0x33F SWAP2 SWAP1 PUSH2 0x18B8 JUMP JUMPDEST PUSH2 0x10A6 JUMP JUMPDEST STOP JUMPDEST PUSH2 0x360 PUSH1 0x4 DUP1 CALLDATASIZE SUB DUP2 ADD SWAP1 PUSH2 0x35B SWAP2 SWAP1 PUSH2 0x1A15 JUMP JUMPDEST PUSH2 0x1102 JUMP JUMPDEST PUSH1 0x40 MLOAD PUSH2 0x36D SWAP2 SWAP1 PUSH2 0x1CC1 JUMP JUMPDEST PUSH1 0x40 MLOAD DUP1 SWAP2 SUB SWAP1 RETURN JUMPDEST PUSH2 0x390 PUSH1 0x4 DUP1 CALLDATASIZE SUB DUP2 ADD SWAP1 PUSH2 0x38B SWAP2 SWAP1 PUSH2 0x1825 JUMP JUMPDEST PUSH2 0x11A7 JUMP JUMPDEST PUSH1 0x40 MLOAD PUSH2 0x39D SWAP2 SWAP1 PUSH2 0x1CA6 JUMP JUMPDEST PUSH1 0x40 MLOAD DUP1 SWAP2 SUB SWAP1 RETURN JUMPDEST PUSH1 0x0 PUSH32 0x1FFC9A700000000000000000000000000000000000000000000000000000000 PUSH28 0xFFFFFFFFFFFFFFFFFFFFFFFFFFFFFFFFFFFFFFFFFFFFFFFFFFFFFFFF NOT AND DUP3 PUSH28 0xFFFFFFFFFFFFFFFFFFFFFFFFFFFFFFFFFFFFFFFFFFFFFFFFFFFFFFFF NOT AND EQ DUP1 PUSH2 0x471 JUMPI POP PUSH32 0x80AC58CD00000000000000000000000000000000000000000000000000000000 PUSH28 0xFFFFFFFFFFFFFFFFFFFFFFFFFFFFFFFFFFFFFFFFFFFFFFFFFFFFFFFF NOT AND DUP3 PUSH28 0xFFFFFFFFFFFFFFFFFFFFFFFFFFFFFFFFFFFFFFFFFFFFFFFFFFFFFFFF NOT AND EQ JUMPDEST DUP1 PUSH2 0x4D9 JUMPI POP PUSH32 0x5B5E139F00000000000000000000000000000000000000000000000000000000 PUSH28 0xFFFFFFFFFFFFFFFFFFFFFFFFFFFFFFFFFFFFFFFFFFFFFFFFFFFFFFFF NOT AND DUP3 PUSH28 0xFFFFFFFFFFFFFFFFFFFFFFFFFFFFFFFFFFFFFFFFFFFFFFFFFFFFFFFF NOT AND EQ JUMPDEST DUP1 PUSH2 0x541 JUMPI POP PUSH32 0xE89341C00000000000000000000000000000000000000000000000000000000 PUSH28 0xFFFFFFFFFFFFFFFFFFFFFFFFFFFFFFFFFFFFFFFFFFFFFFFFFFFFFFFF NOT AND DUP3 PUSH28 0xFFFFFFFFFFFFFFFFFFFFFFFFFFFFFFFFFFFFFFFFFFFFFFFFFFFFFFFF NOT AND EQ JUMPDEST DUP1 PUSH2 0x5A9 JUMPI POP PUSH32 0x780E9D6300000000000000000000000000000000000000000000000000000000 PUSH28 0xFFFFFFFFFFFFFFFFFFFFFFFFFFFFFFFFFFFFFFFFFFFFFFFFFFFFFFFF NOT AND DUP3 PUSH28 0xFFFFFFFFFFFFFFFFFFFFFFFFFFFFFFFFFFFFFFFFFFFFFFFFFFFFFFFF NOT AND EQ JUMPDEST SWAP1 POP SWAP2 SWAP1 POP JUMP JUMPDEST PUSH1 0x60 PUSH1 0x4 DUP1 SLOAD PUSH2 0x5BF SWAP1 PUSH2 0x200C JUMP JUMPDEST DUP1 PUSH1 0x1F ADD PUSH1 0x20 DUP1 SWAP2 DIV MUL PUSH1 0x20 ADD PUSH1 0x40 MLOAD SWAP1 DUP2 ADD PUSH1 0x40 MSTORE DUP1 SWAP3 SWAP2 SWAP1 DUP2 DUP2 MSTORE PUSH1 0x20 ADD DUP3 DUP1 SLOAD PUSH2 0x5EB SWAP1 PUSH2 0x200C JUMP JUMPDEST DUP1 ISZERO PUSH2 0x638 JUMPI DUP1 PUSH1 0x1F LT PUSH2 0x60D JUMPI PUSH2 0x100 DUP1 DUP4 SLOAD DIV MUL DUP4 MSTORE SWAP2 PUSH1 0x20 ADD SWAP2 PUSH2 0x638 JUMP JUMPDEST DUP3 ADD SWAP2 SWAP1 PUSH1 0x0 MSTORE PUSH1 0x20 PUSH1 0x0 KECCAK256 SWAP1 JUMPDEST DUP2 SLOAD DUP2 MSTORE SWAP1 PUSH1 0x1 ADD SWAP1 PUSH1 0x20 ADD DUP1 DUP4 GT PUSH2 0x61B JUMPI DUP3 SWAP1 SUB PUSH1 0x1F AND DUP3 ADD SWAP2 JUMPDEST POP POP POP POP POP SWAP1 POP SWAP1 JUMP JUMPDEST PUSH1 0x0 DUP1 PUSH20 0xFFFFFFFFFFFFFFFFFFFFFFFFFFFFFFFFFFFFFFFF AND PUSH1 0x1 PUSH1 0x0 DUP5 DUP2 MSTORE PUSH1 0x20 ADD SWAP1 DUP2 MSTORE PUSH1 0x20 ADD PUSH1 0x0 KECCAK256 PUSH1 0x0 SWAP1 SLOAD SWAP1 PUSH2 0x100 EXP SWAP1 DIV PUSH20 0xFFFFFFFFFFFFFFFFFFFFFFFFFFFFFFFFFFFFFFFF AND PUSH20 0xFFFFFFFFFFFFFFFFFFFFFFFFFFFFFFFFFFFFFFFF AND EQ ISZERO PUSH2 0x6E6 JUMPI PUSH1 0x40 MLOAD PUSH32 0x8C379A000000000000000000000000000000000000000000000000000000000 DUP2 MSTORE PUSH1 0x4 ADD PUSH2 0x6DD SWAP1 PUSH2 0x1DE3 JUMP JUMPDEST PUSH1 0x40 MLOAD DUP1 SWAP2 SUB SWAP1 REVERT JUMPDEST PUSH1 0x3 PUSH1 0x0 DUP4 DUP2 MSTORE PUSH1 0x20 ADD SWAP1 DUP2 MSTORE PUSH1 0x20 ADD PUSH1 0x0 KECCAK256 PUSH1 0x0 SWAP1 SLOAD SWAP1 PUSH2 0x100 EXP SWAP1 DIV PUSH20 0xFFFFFFFFFFFFFFFFFFFFFFFFFFFFFFFFFFFFFFFF AND SWAP1 POP SWAP2 SWAP1 POP JUMP JUMPDEST PUSH1 0x0 PUSH2 0x72C DUP3 PUSH2 0xD3F JUMP JUMPDEST SWAP1 POP DUP1 PUSH20 0xFFFFFFFFFFFFFFFFFFFFFFFFFFFFFFFFFFFFFFFF AND DUP4 PUSH20 0xFFFFFFFFFFFFFFFFFFFFFFFFFFFFFFFFFFFFFFFF AND EQ ISZERO PUSH2 0x79D JUMPI PUSH1 0x40 MLOAD PUSH32 0x8C379A000000000000000000000000000000000000000000000000000000000 DUP2 MSTORE PUSH1 0x4 ADD PUSH2 0x794 SWAP1 PUSH2 0x1DC3 JUMP JUMPDEST PUSH1 0x40 MLOAD DUP1 SWAP2 SUB SWAP1 REVERT JUMPDEST DUP1 PUSH20 0xFFFFFFFFFFFFFFFFFFFFFFFFFFFFFFFFFFFFFFFF AND CALLER PUSH20 0xFFFFFFFFFFFFFFFFFFFFFFFFFFFFFFFFFFFFFFFF AND EQ DUP1 PUSH2 0x7DD JUMPI POP PUSH2 0x7DC DUP2 CALLER PUSH2 0x11A7 JUMP JUMPDEST JUMPDEST PUSH2 0x81C JUMPI PUSH1 0x40 MLOAD PUSH32 0x8C379A000000000000000000000000000000000000000000000000000000000 DUP2 MSTORE PUSH1 0x4 ADD PUSH2 0x813 SWAP1 PUSH2 0x1D63 JUMP JUMPDEST PUSH1 0x40 MLOAD DUP1 SWAP2 SUB SWAP1 REVERT JUMPDEST PUSH2 0x826 DUP4 DUP4 PUSH2 0x123B JUMP JUMPDEST POP POP POP JUMP JUMPDEST PUSH1 0x60 PUSH2 0x836 DUP3 PUSH2 0x1102 JUMP JUMPDEST SWAP1 POP SWAP2 SWAP1 POP JUMP JUMPDEST PUSH1 0x0 PUSH1 0x9 DUP1 SLOAD SWAP1 POP SWAP1 POP SWAP1 JUMP JUMPDEST PUSH1 0x0 PUSH20 0xFFFFFFFFFFFFFFFFFFFFFFFFFFFFFFFFFFFFFFFF AND DUP4 PUSH20 0xFFFFFFFFFFFFFFFFFFFFFFFFFFFFFFFFFFFFFFFF AND EQ ISZERO PUSH2 0x8BA JUMPI PUSH1 0x40 MLOAD PUSH32 0x8C379A000000000000000000000000000000000000000000000000000000000 DUP2 MSTORE PUSH1 0x4 ADD PUSH2 0x8B1 SWAP1 PUSH2 0x1CE3 JUMP JUMPDEST PUSH1 0x40 MLOAD DUP1 SWAP2 SUB SWAP1 REVERT JUMPDEST PUSH1 0x0 PUSH20 0xFFFFFFFFFFFFFFFFFFFFFFFFFFFFFFFFFFFFFFFF AND DUP3 PUSH20 0xFFFFFFFFFFFFFFFFFFFFFFFFFFFFFFFFFFFFFFFF AND EQ ISZERO PUSH2 0x92A JUMPI PUSH1 0x40 MLOAD PUSH32 0x8C379A000000000000000000000000000000000000000000000000000000000 DUP2 MSTORE PUSH1 0x4 ADD PUSH2 0x921 SWAP1 PUSH2 0x1D83 JUMP JUMPDEST PUSH1 0x40 MLOAD DUP1 SWAP2 SUB SWAP1 REVERT JUMPDEST PUSH1 0x0 PUSH2 0x935 DUP3 PUSH2 0xD3F JUMP JUMPDEST SWAP1 POP DUP4 PUSH20 0xFFFFFFFFFFFFFFFFFFFFFFFFFFFFFFFFFFFFFFFF AND DUP2 PUSH20 0xFFFFFFFFFFFFFFFFFFFFFFFFFFFFFFFFFFFFFFFF AND EQ PUSH2 0x9A5 JUMPI PUSH1 0x40 MLOAD PUSH32 0x8C379A000000000000000000000000000000000000000000000000000000000 DUP2 MSTORE PUSH1 0x4 ADD PUSH2 0x99C SWAP1 PUSH2 0x1DA3 JUMP JUMPDEST PUSH1 0x40 MLOAD DUP1 SWAP2 SUB SWAP1 REVERT JUMPDEST DUP1 PUSH20 0xFFFFFFFFFFFFFFFFFFFFFFFFFFFFFFFFFFFFFFFF AND CALLER PUSH20 0xFFFFFFFFFFFFFFFFFFFFFFFFFFFFFFFFFFFFFFFF AND EQ DUP1 PUSH2 0xA12 JUMPI POP PUSH2 0x9E3 DUP3 PUSH2 0x642 JUMP JUMPDEST PUSH20 0xFFFFFFFFFFFFFFFFFFFFFFFFFFFFFFFFFFFFFFFF AND CALLER PUSH20 0xFFFFFFFFFFFFFFFFFFFFFFFFFFFFFFFFFFFFFFFF AND EQ JUMPDEST DUP1 PUSH2 0xA23 JUMPI POP PUSH2 0xA22 DUP2 CALLER PUSH2 0x11A7 JUMP JUMPDEST JUMPDEST PUSH2 0xA62 JUMPI PUSH1 0x40 MLOAD PUSH32 0x8C379A000000000000000000000000000000000000000000000000000000000 DUP2 MSTORE PUSH1 0x4 ADD PUSH2 0xA59 SWAP1 PUSH2 0x1D03 JUMP JUMPDEST PUSH1 0x40 MLOAD DUP1 SWAP2 SUB SWAP1 REVERT JUMPDEST PUSH1 0x1 PUSH1 0x0 DUP1 DUP7 PUSH20 0xFFFFFFFFFFFFFFFFFFFFFFFFFFFFFFFFFFFFFFFF AND PUSH20 0xFFFFFFFFFFFFFFFFFFFFFFFFFFFFFFFFFFFFFFFF AND DUP2 MSTORE PUSH1 0x20 ADD SWAP1 DUP2 MSTORE PUSH1 0x20 ADD PUSH1 0x0 KECCAK256 PUSH1 0x0 DUP3 DUP3 SLOAD PUSH2 0xAB1 SWAP2 SWAP1 PUSH2 0x1F22 JUMP JUMPDEST SWAP3 POP POP DUP2 SWAP1 SSTORE POP PUSH1 0x1 PUSH1 0x0 DUP1 DUP6 PUSH20 0xFFFFFFFFFFFFFFFFFFFFFFFFFFFFFFFFFFFFFFFF AND PUSH20 0xFFFFFFFFFFFFFFFFFFFFFFFFFFFFFFFFFFFFFFFF AND DUP2 MSTORE PUSH1 0x20 ADD SWAP1 DUP2 MSTORE PUSH1 0x20 ADD PUSH1 0x0 KECCAK256 PUSH1 0x0 DUP3 DUP3 SLOAD PUSH2 0xB07 SWAP2 SWAP1 PUSH2 0x1ECC JUMP JUMPDEST SWAP3 POP POP DUP2 SWAP1 SSTORE POP DUP3 PUSH1 0x1 PUSH1 0x0 DUP5 DUP2 MSTORE PUSH1 0x20 ADD SWAP1 DUP2 MSTORE PUSH1 0x20 ADD PUSH1 0x0 KECCAK256 PUSH1 0x0 PUSH2 0x100 EXP DUP2 SLOAD DUP2 PUSH20 0xFFFFFFFFFFFFFFFFFFFFFFFFFFFFFFFFFFFFFFFF MUL NOT AND SWAP1 DUP4 PUSH20 0xFFFFFFFFFFFFFFFFFFFFFFFFFFFFFFFFFFFFFFFF AND MUL OR SWAP1 SSTORE POP DUP2 DUP4 PUSH20 0xFFFFFFFFFFFFFFFFFFFFFFFFFFFFFFFFFFFFFFFF AND DUP6 PUSH20 0xFFFFFFFFFFFFFFFFFFFFFFFFFFFFFFFFFFFFFFFF AND PUSH32 0xDDF252AD1BE2C89B69C2B068FC378DAA952BA7F163C4A11628F55A4DF523B3EF PUSH1 0x40 MLOAD PUSH1 0x40 MLOAD DUP1 SWAP2 SUB SWAP1 LOG4 PUSH2 0xBC5 DUP5 DUP4 PUSH2 0x12FA JUMP JUMPDEST PUSH2 0xBCF DUP4 DUP4 PUSH2 0x1492 JUMP JUMPDEST POP POP POP POP JUMP JUMPDEST PUSH1 0x0 DUP1 PUSH1 0x0 DUP5 PUSH20 0xFFFFFFFFFFFFFFFFFFFFFFFFFFFFFFFFFFFFFFFF AND PUSH20 0xFFFFFFFFFFFFFFFFFFFFFFFFFFFFFFFFFFFFFFFF AND DUP2 MSTORE PUSH1 0x20 ADD SWAP1 DUP2 MSTORE PUSH1 0x20 ADD PUSH1 0x0 KECCAK256 SLOAD DUP3 LT PUSH2 0xC57 JUMPI PUSH1 0x40 MLOAD PUSH32 0x8C379A000000000000000000000000000000000000000000000000000000000 DUP2 MSTORE PUSH1 0x4 ADD PUSH2 0xC4E SWAP1 PUSH2 0x1E03 JUMP JUMPDEST PUSH1 0x40 MLOAD DUP1 SWAP2 SUB SWAP1 REVERT JUMPDEST PUSH1 0x7 PUSH1 0x0 DUP5 PUSH20 0xFFFFFFFFFFFFFFFFFFFFFFFFFFFFFFFFFFFFFFFF AND PUSH20 0xFFFFFFFFFFFFFFFFFFFFFFFFFFFFFFFFFFFFFFFF AND DUP2 MSTORE PUSH1 0x20 ADD SWAP1 DUP2 MSTORE PUSH1 0x20 ADD PUSH1 0x0 KECCAK256 PUSH1 0x0 DUP4 DUP2 MSTORE PUSH1 0x20 ADD SWAP1 DUP2 MSTORE PUSH1 0x20 ADD PUSH1 0x0 KECCAK256 SLOAD SWAP1 POP SWAP3 SWAP2 POP POP JUMP JUMPDEST PUSH2 0xCCB DUP4 DUP4 DUP4 PUSH1 0x40 MLOAD DUP1 PUSH1 0x20 ADD PUSH1 0x40 MSTORE DUP1 PUSH1 0x0 DUP2 MSTORE POP PUSH2 0x10A6 JUMP JUMPDEST POP POP POP JUMP JUMPDEST PUSH1 0x0 PUSH1 0x9 DUP1 SLOAD SWAP1 POP DUP3 LT PUSH2 0xD19 JUMPI PUSH1 0x40 MLOAD PUSH32 0x8C379A000000000000000000000000000000000000000000000000000000000 DUP2 MSTORE PUSH1 0x4 ADD PUSH2 0xD10 SWAP1 PUSH2 0x1E03 JUMP JUMPDEST PUSH1 0x40 MLOAD DUP1 SWAP2 SUB SWAP1 REVERT JUMPDEST PUSH1 0x9 DUP3 DUP2 SLOAD DUP2 LT PUSH2 0xD2D JUMPI PUSH2 0xD2C PUSH2 0x20CD JUMP JUMPDEST JUMPDEST SWAP1 PUSH1 0x0 MSTORE PUSH1 0x20 PUSH1 0x0 KECCAK256 ADD SLOAD SWAP1 POP SWAP2 SWAP1 POP JUMP JUMPDEST PUSH1 0x0 DUP1 PUSH1 0x1 PUSH1 0x0 DUP5 DUP2 MSTORE PUSH1 0x20 ADD SWAP1 DUP2 MSTORE PUSH1 0x20 ADD PUSH1 0x0 KECCAK256 PUSH1 0x0 SWAP1 SLOAD SWAP1 PUSH2 0x100 EXP SWAP1 DIV PUSH20 0xFFFFFFFFFFFFFFFFFFFFFFFFFFFFFFFFFFFFFFFF AND SWAP1 POP PUSH1 0x0 PUSH20 0xFFFFFFFFFFFFFFFFFFFFFFFFFFFFFFFFFFFFFFFF AND DUP2 PUSH20 0xFFFFFFFFFFFFFFFFFFFFFFFFFFFFFFFFFFFFFFFF AND EQ ISZERO PUSH2 0xDE8 JUMPI PUSH1 0x40 MLOAD PUSH32 0x8C379A000000000000000000000000000000000000000000000000000000000 DUP2 MSTORE PUSH1 0x4 ADD PUSH2 0xDDF SWAP1 PUSH2 0x1DE3 JUMP JUMPDEST PUSH1 0x40 MLOAD DUP1 SWAP2 SUB SWAP1 REVERT JUMPDEST DUP1 SWAP2 POP POP SWAP2 SWAP1 POP JUMP JUMPDEST PUSH1 0x0 DUP1 PUSH20 0xFFFFFFFFFFFFFFFFFFFFFFFFFFFFFFFFFFFFFFFF AND DUP3 PUSH20 0xFFFFFFFFFFFFFFFFFFFFFFFFFFFFFFFFFFFFFFFF AND EQ ISZERO PUSH2 0xE62 JUMPI PUSH1 0x40 MLOAD PUSH32 0x8C379A000000000000000000000000000000000000000000000000000000000 DUP2 MSTORE PUSH1 0x4 ADD PUSH2 0xE59 SWAP1 PUSH2 0x1D23 JUMP JUMPDEST PUSH1 0x40 MLOAD DUP1 SWAP2 SUB SWAP1 REVERT JUMPDEST PUSH1 0x0 DUP1 DUP4 PUSH20 0xFFFFFFFFFFFFFFFFFFFFFFFFFFFFFFFFFFFFFFFF AND PUSH20 0xFFFFFFFFFFFFFFFFFFFFFFFFFFFFFFFFFFFFFFFF AND DUP2 MSTORE PUSH1 0x20 ADD SWAP1 DUP2 MSTORE PUSH1 0x20 ADD PUSH1 0x0 KECCAK256 SLOAD SWAP1 POP SWAP2 SWAP1 POP JUMP JUMPDEST PUSH1 0x60 PUSH1 0x5 DUP1 SLOAD PUSH2 0xEB7 SWAP1 PUSH2 0x200C JUMP JUMPDEST DUP1 PUSH1 0x1F ADD PUSH1 0x20 DUP1 SWAP2 DIV MUL PUSH1 0x20 ADD PUSH1 0x40 MLOAD SWAP1 DUP2 ADD PUSH1 0x40 MSTORE DUP1 SWAP3 SWAP2 SWAP1 DUP2 DUP2 MSTORE PUSH1 0x20 ADD DUP3 DUP1 SLOAD PUSH2 0xEE3 SWAP1 PUSH2 0x200C JUMP JUMPDEST DUP1 ISZERO PUSH2 0xF30 JUMPI DUP1 PUSH1 0x1F LT PUSH2 0xF05 JUMPI PUSH2 0x100 DUP1 DUP4 SLOAD DIV MUL DUP4 MSTORE SWAP2 PUSH1 0x20 ADD SWAP2 PUSH2 0xF30 JUMP JUMPDEST DUP3 ADD SWAP2 SWAP1 PUSH1 0x0 MSTORE PUSH1 0x20 PUSH1 0x0 KECCAK256 SWAP1 JUMPDEST DUP2 SLOAD DUP2 MSTORE SWAP1 PUSH1 0x1 ADD SWAP1 PUSH1 0x20 ADD DUP1 DUP4 GT PUSH2 0xF13 JUMPI DUP3 SWAP1 SUB PUSH1 0x1F AND DUP3 ADD SWAP2 JUMPDEST POP POP POP POP POP SWAP1 POP SWAP1 JUMP JUMPDEST DUP2 PUSH20 0xFFFFFFFFFFFFFFFFFFFFFFFFFFFFFFFFFFFFFFFF AND CALLER PUSH20 0xFFFFFFFFFFFFFFFFFFFFFFFFFFFFFFFFFFFFFFFF AND EQ ISZERO PUSH2 0xFA9 JUMPI PUSH1 0x40 MLOAD PUSH32 0x8C379A000000000000000000000000000000000000000000000000000000000 DUP2 MSTORE PUSH1 0x4 ADD PUSH2 0xFA0 SWAP1 PUSH2 0x1DC3 JUMP JUMPDEST PUSH1 0x40 MLOAD DUP1 SWAP2 SUB SWAP1 REVERT JUMPDEST DUP1 PUSH1 0x2 PUSH1 0x0 CALLER PUSH20 0xFFFFFFFFFFFFFFFFFFFFFFFFFFFFFFFFFFFFFFFF AND PUSH20 0xFFFFFFFFFFFFFFFFFFFFFFFFFFFFFFFFFFFFFFFF AND DUP2 MSTORE PUSH1 0x20 ADD SWAP1 DUP2 MSTORE PUSH1 0x20 ADD PUSH1 0x0 KECCAK256 PUSH1 0x0 DUP5 PUSH20 0xFFFFFFFFFFFFFFFFFFFFFFFFFFFFFFFFFFFFFFFF AND PUSH20 0xFFFFFFFFFFFFFFFFFFFFFFFFFFFFFFFFFFFFFFFF AND DUP2 MSTORE PUSH1 0x20 ADD SWAP1 DUP2 MSTORE PUSH1 0x20 ADD PUSH1 0x0 KECCAK256 PUSH1 0x0 PUSH2 0x100 EXP DUP2 SLOAD DUP2 PUSH1 0xFF MUL NOT AND SWAP1 DUP4 ISZERO ISZERO MUL OR SWAP1 SSTORE POP DUP2 PUSH20 0xFFFFFFFFFFFFFFFFFFFFFFFFFFFFFFFFFFFFFFFF AND CALLER PUSH20 0xFFFFFFFFFFFFFFFFFFFFFFFFFFFFFFFFFFFFFFFF AND PUSH32 0x17307EAB39AB6107E8899845AD3D59BD9653F200F220920489CA2B5937696C31 DUP4 PUSH1 0x40 MLOAD PUSH2 0x109A SWAP2 SWAP1 PUSH2 0x1CA6 JUMP JUMPDEST PUSH1 0x40 MLOAD DUP1 SWAP2 SUB SWAP1 LOG3 POP POP JUMP JUMPDEST PUSH2 0x10B1 DUP5 DUP5 DUP5 PUSH2 0x84A JUMP JUMPDEST PUSH2 0x10BD DUP5 DUP5 DUP5 DUP5 PUSH2 0x1553 JUMP JUMPDEST PUSH2 0x10FC JUMPI PUSH1 0x40 MLOAD PUSH32 0x8C379A000000000000000000000000000000000000000000000000000000000 DUP2 MSTORE PUSH1 0x4 ADD PUSH2 0x10F3 SWAP1 PUSH2 0x1D43 JUMP JUMPDEST PUSH1 0x40 MLOAD DUP1 SWAP2 SUB SWAP1 REVERT JUMPDEST POP POP POP POP JUMP JUMPDEST PUSH1 0x60 PUSH1 0x6 PUSH1 0x0 DUP4 DUP2 MSTORE PUSH1 0x20 ADD SWAP1 DUP2 MSTORE PUSH1 0x20 ADD PUSH1 0x0 KECCAK256 DUP1 SLOAD PUSH2 0x1122 SWAP1 PUSH2 0x200C JUMP JUMPDEST DUP1 PUSH1 0x1F ADD PUSH1 0x20 DUP1 SWAP2 DIV MUL PUSH1 0x20 ADD PUSH1 0x40 MLOAD SWAP1 DUP2 ADD PUSH1 0x40 MSTORE DUP1 SWAP3 SWAP2 SWAP1 DUP2 DUP2 MSTORE PUSH1 0x20 ADD DUP3 DUP1 SLOAD PUSH2 0x114E SWAP1 PUSH2 0x200C JUMP JUMPDEST DUP1 ISZERO PUSH2 0x119B JUMPI DUP1 PUSH1 0x1F LT PUSH2 0x1170 JUMPI PUSH2 0x100 DUP1 DUP4 SLOAD DIV MUL DUP4 MSTORE SWAP2 PUSH1 0x20 ADD SWAP2 PUSH2 0x119B JUMP JUMPDEST DUP3 ADD SWAP2 SWAP1 PUSH1 0x0 MSTORE PUSH1 0x20 PUSH1 0x0 KECCAK256 SWAP1 JUMPDEST DUP2 SLOAD DUP2 MSTORE SWAP1 PUSH1 0x1 ADD SWAP1 PUSH1 0x20 ADD DUP1 DUP4 GT PUSH2 0x117E JUMPI DUP3 SWAP1 SUB PUSH1 0x1F AND DUP3 ADD SWAP2 JUMPDEST POP POP POP POP POP SWAP1 POP SWAP2 SWAP1 POP JUMP JUMPDEST PUSH1 0x0 PUSH1 0x2 PUSH1 0x0 DUP5 PUSH20 0xFFFFFFFFFFFFFFFFFFFFFFFFFFFFFFFFFFFFFFFF AND PUSH20 0xFFFFFFFFFFFFFFFFFFFFFFFFFFFFFFFFFFFFFFFF AND DUP2 MSTORE PUSH1 0x20 ADD SWAP1 DUP2 MSTORE PUSH1 0x20 ADD PUSH1 0x0 KECCAK256 PUSH1 0x0 DUP4 PUSH20 0xFFFFFFFFFFFFFFFFFFFFFFFFFFFFFFFFFFFFFFFF AND PUSH20 0xFFFFFFFFFFFFFFFFFFFFFFFFFFFFFFFFFFFFFFFF AND DUP2 MSTORE PUSH1 0x20 ADD SWAP1 DUP2 MSTORE PUSH1 0x20 ADD PUSH1 0x0 KECCAK256 PUSH1 0x0 SWAP1 SLOAD SWAP1 PUSH2 0x100 EXP SWAP1 DIV PUSH1 0xFF AND SWAP1 POP SWAP3 SWAP2 POP POP JUMP JUMPDEST DUP2 PUSH1 0x3 PUSH1 0x0 DUP4 DUP2 MSTORE PUSH1 0x20 ADD SWAP1 DUP2 MSTORE PUSH1 0x20 ADD PUSH1 0x0 KECCAK256 PUSH1 0x0 PUSH2 0x100 EXP DUP2 SLOAD DUP2 PUSH20 0xFFFFFFFFFFFFFFFFFFFFFFFFFFFFFFFFFFFFFFFF MUL NOT AND SWAP1 DUP4 PUSH20 0xFFFFFFFFFFFFFFFFFFFFFFFFFFFFFFFFFFFFFFFF AND MUL OR SWAP1 SSTORE POP PUSH1 0x0 PUSH2 0x1298 DUP3 PUSH2 0xD3F JUMP JUMPDEST SWAP1 POP DUP2 DUP4 PUSH20 0xFFFFFFFFFFFFFFFFFFFFFFFFFFFFFFFFFFFFFFFF AND DUP3 PUSH20 0xFFFFFFFFFFFFFFFFFFFFFFFFFFFFFFFFFFFFFFFF AND PUSH32 0x8C5BE1E5EBEC7D5BD14F71427D1E84F3DD0314C0F7B2291E5B200AC8C7C3B925 PUSH1 0x40 MLOAD PUSH1 0x40 MLOAD DUP1 SWAP2 SUB SWAP1 LOG4 POP POP POP JUMP JUMPDEST PUSH1 0x0 PUSH1 0x8 PUSH1 0x0 DUP4 DUP2 MSTORE PUSH1 0x20 ADD SWAP1 DUP2 MSTORE PUSH1 0x20 ADD PUSH1 0x0 KECCAK256 SLOAD SWAP1 POP PUSH1 0x0 DUP1 PUSH1 0x0 DUP6 PUSH20 0xFFFFFFFFFFFFFFFFFFFFFFFFFFFFFFFFFFFFFFFF AND PUSH20 0xFFFFFFFFFFFFFFFFFFFFFFFFFFFFFFFFFFFFFFFF AND DUP2 MSTORE PUSH1 0x20 ADD SWAP1 DUP2 MSTORE PUSH1 0x20 ADD PUSH1 0x0 KECCAK256 SLOAD SWAP1 POP DUP1 DUP3 LT ISZERO PUSH2 0x1421 JUMPI PUSH1 0x0 PUSH1 0x7 PUSH1 0x0 DUP7 PUSH20 0xFFFFFFFFFFFFFFFFFFFFFFFFFFFFFFFFFFFFFFFF AND PUSH20 0xFFFFFFFFFFFFFFFFFFFFFFFFFFFFFFFFFFFFFFFF AND DUP2 MSTORE PUSH1 0x20 ADD SWAP1 DUP2 MSTORE PUSH1 0x20 ADD PUSH1 0x0 KECCAK256 PUSH1 0x0 DUP4 DUP2 MSTORE PUSH1 0x20 ADD SWAP1 DUP2 MSTORE PUSH1 0x20 ADD PUSH1 0x0 KECCAK256 SLOAD SWAP1 POP DUP1 PUSH1 0x7 PUSH1 0x0 DUP8 PUSH20 0xFFFFFFFFFFFFFFFFFFFFFFFFFFFFFFFFFFFFFFFF AND PUSH20 0xFFFFFFFFFFFFFFFFFFFFFFFFFFFFFFFFFFFFFFFF AND DUP2 MSTORE PUSH1 0x20 ADD SWAP1 DUP2 MSTORE PUSH1 0x20 ADD PUSH1 0x0 KECCAK256 PUSH1 0x0 DUP6 DUP2 MSTORE PUSH1 0x20 ADD SWAP1 DUP2 MSTORE PUSH1 0x20 ADD PUSH1 0x0 KECCAK256 DUP2 SWAP1 SSTORE POP DUP3 PUSH1 0x8 PUSH1 0x0 DUP4 DUP2 MSTORE PUSH1 0x20 ADD SWAP1 DUP2 MSTORE PUSH1 0x20 ADD PUSH1 0x0 KECCAK256 DUP2 SWAP1 SSTORE POP POP JUMPDEST PUSH1 0x7 PUSH1 0x0 DUP6 PUSH20 0xFFFFFFFFFFFFFFFFFFFFFFFFFFFFFFFFFFFFFFFF AND PUSH20 0xFFFFFFFFFFFFFFFFFFFFFFFFFFFFFFFFFFFFFFFF AND DUP2 MSTORE PUSH1 0x20 ADD SWAP1 DUP2 MSTORE PUSH1 0x20 ADD PUSH1 0x0 KECCAK256 PUSH1 0x0 DUP3 DUP2 MSTORE PUSH1 0x20 ADD SWAP1 DUP2 MSTORE PUSH1 0x20 ADD PUSH1 0x0 KECCAK256 PUSH1 0x0 SWAP1 SSTORE PUSH1 0x8 PUSH1 0x0 DUP5 DUP2 MSTORE PUSH1 0x20 ADD SWAP1 DUP2 MSTORE PUSH1 0x20 ADD PUSH1 0x0 KECCAK256 PUSH1 0x0 SWAP1 SSTORE POP POP POP POP JUMP JUMPDEST PUSH1 0x0 PUSH1 0x1 PUSH1 0x0 DUP1 DUP6 PUSH20 0xFFFFFFFFFFFFFFFFFFFFFFFFFFFFFFFFFFFFFFFF AND PUSH20 0xFFFFFFFFFFFFFFFFFFFFFFFFFFFFFFFFFFFFFFFF AND DUP2 MSTORE PUSH1 0x20 ADD SWAP1 DUP2 MSTORE PUSH1 0x20 ADD PUSH1 0x0 KECCAK256 SLOAD PUSH2 0x14DF SWAP2 SWAP1 PUSH2 0x1F22 JUMP JUMPDEST SWAP1 POP DUP2 PUSH1 0x7 PUSH1 0x0 DUP6 PUSH20 0xFFFFFFFFFFFFFFFFFFFFFFFFFFFFFFFFFFFFFFFF AND PUSH20 0xFFFFFFFFFFFFFFFFFFFFFFFFFFFFFFFFFFFFFFFF AND DUP2 MSTORE PUSH1 0x20 ADD SWAP1 DUP2 MSTORE PUSH1 0x20 ADD PUSH1 0x0 KECCAK256 PUSH1 0x0 DUP4 DUP2 MSTORE PUSH1 0x20 ADD SWAP1 DUP2 MSTORE PUSH1 0x20 ADD PUSH1 0x0 KECCAK256 DUP2 SWAP1 SSTORE POP DUP1 PUSH1 0x8 PUSH1 0x0 DUP5 DUP2 MSTORE PUSH1 0x20 ADD SWAP1 DUP2 MSTORE PUSH1 0x20 ADD PUSH1 0x0 KECCAK256 DUP2 SWAP1 SSTORE POP POP POP POP JUMP JUMPDEST PUSH1 0x0 DUP1 DUP5 PUSH20 0xFFFFFFFFFFFFFFFFFFFFFFFFFFFFFFFFFFFFFFFF AND EXTCODESIZE GT PUSH2 0x157C JUMPI PUSH1 0x1 SWAP1 POP PUSH2 0x1717 JUMP JUMPDEST PUSH1 0x0 DUP5 SWAP1 POP DUP1 PUSH20 0xFFFFFFFFFFFFFFFFFFFFFFFFFFFFFFFFFFFFFFFF AND PUSH4 0x150B7A02 CALLER DUP9 DUP8 DUP8 PUSH1 0x40 MLOAD DUP6 PUSH4 0xFFFFFFFF AND PUSH1 0xE0 SHL DUP2 MSTORE PUSH1 0x4 ADD PUSH2 0x15C0 SWAP5 SWAP4 SWAP3 SWAP2 SWAP1 PUSH2 0x1C5A JUMP JUMPDEST PUSH1 0x20 PUSH1 0x40 MLOAD DUP1 DUP4 SUB DUP2 PUSH1 0x0 DUP8 DUP1 EXTCODESIZE ISZERO DUP1 ISZERO PUSH2 0x15DA JUMPI PUSH1 0x0 DUP1 REVERT JUMPDEST POP GAS CALL SWAP3 POP POP POP DUP1 ISZERO PUSH2 0x160B JUMPI POP PUSH1 0x40 MLOAD RETURNDATASIZE PUSH1 0x1F NOT PUSH1 0x1F DUP3 ADD AND DUP3 ADD DUP1 PUSH1 0x40 MSTORE POP DUP2 ADD SWAP1 PUSH2 0x1608 SWAP2 SWAP1 PUSH2 0x19E8 JUMP JUMPDEST PUSH1 0x1 JUMPDEST PUSH2 0x16B1 JUMPI PUSH2 0x1617 PUSH2 0x212B JUMP JUMPDEST DUP1 PUSH4 0x8C379A0 EQ ISZERO PUSH2 0x1674 JUMPI POP PUSH2 0x162C PUSH2 0x2365 JUMP JUMPDEST DUP1 PUSH2 0x1637 JUMPI POP PUSH2 0x1676 JUMP JUMPDEST DUP1 PUSH1 0x40 MLOAD PUSH32 0x8C379A000000000000000000000000000000000000000000000000000000000 DUP2 MSTORE PUSH1 0x4 ADD PUSH2 0x166B SWAP2 SWAP1 PUSH2 0x1CC1 JUMP JUMPDEST PUSH1 0x40 MLOAD DUP1 SWAP2 SUB SWAP1 REVERT JUMPDEST POP JUMPDEST PUSH1 0x40 MLOAD PUSH32 0x8C379A000000000000000000000000000000000000000000000000000000000 DUP2 MSTORE PUSH1 0x4 ADD PUSH2 0x16A8 SWAP1 PUSH2 0x1D43 JUMP JUMPDEST PUSH1 0x40 MLOAD DUP1 SWAP2 SUB SWAP1 REVERT JUMPDEST PUSH32 0x150B7A0200000000000000000000000000000000000000000000000000000000 PUSH28 0xFFFFFFFFFFFFFFFFFFFFFFFFFFFFFFFFFFFFFFFFFFFFFFFFFFFFFFFF NOT AND DUP2 PUSH28 0xFFFFFFFFFFFFFFFFFFFFFFFFFFFFFFFFFFFFFFFFFFFFFFFFFFFFFFFF NOT AND EQ SWAP3 POP POP POP JUMPDEST SWAP5 SWAP4 POP POP POP POP JUMP JUMPDEST PUSH1 0x0 PUSH2 0x1732 PUSH2 0x172D DUP5 PUSH2 0x1E63 JUMP JUMPDEST PUSH2 0x1E3E JUMP JUMPDEST SWAP1 POP DUP3 DUP2 MSTORE PUSH1 0x20 DUP2 ADD DUP5 DUP5 DUP5 ADD GT ISZERO PUSH2 0x174E JUMPI PUSH2 0x174D PUSH2 0x2152 JUMP JUMPDEST JUMPDEST PUSH2 0x1759 DUP5 DUP3 DUP6 PUSH2 0x1FCA JUMP JUMPDEST POP SWAP4 SWAP3 POP POP POP JUMP JUMPDEST PUSH1 0x0 DUP2 CALLDATALOAD SWAP1 POP PUSH2 0x1770 DUP2 PUSH2 0x23FB JUMP JUMPDEST SWAP3 SWAP2 POP POP JUMP JUMPDEST PUSH1 0x0 DUP2 CALLDATALOAD SWAP1 POP PUSH2 0x1785 DUP2 PUSH2 0x2412 JUMP JUMPDEST SWAP3 SWAP2 POP POP JUMP JUMPDEST PUSH1 0x0 DUP2 CALLDATALOAD SWAP1 POP PUSH2 0x179A DUP2 PUSH2 0x2429 JUMP JUMPDEST SWAP3 SWAP2 POP POP JUMP JUMPDEST PUSH1 0x0 DUP2 MLOAD SWAP1 POP PUSH2 0x17AF DUP2 PUSH2 0x2429 JUMP JUMPDEST SWAP3 SWAP2 POP POP JUMP JUMPDEST PUSH1 0x0 DUP3 PUSH1 0x1F DUP4 ADD SLT PUSH2 0x17CA JUMPI PUSH2 0x17C9 PUSH2 0x214D JUMP JUMPDEST JUMPDEST DUP2 CALLDATALOAD PUSH2 0x17DA DUP5 DUP3 PUSH1 0x20 DUP7 ADD PUSH2 0x171F JUMP JUMPDEST SWAP2 POP POP SWAP3 SWAP2 POP POP JUMP JUMPDEST PUSH1 0x0 DUP2 CALLDATALOAD SWAP1 POP PUSH2 0x17F2 DUP2 PUSH2 0x2440 JUMP JUMPDEST SWAP3 SWAP2 POP POP JUMP JUMPDEST PUSH1 0x0 PUSH1 0x20 DUP3 DUP5 SUB SLT ISZERO PUSH2 0x180E JUMPI PUSH2 0x180D PUSH2 0x215C JUMP JUMPDEST JUMPDEST PUSH1 0x0 PUSH2 0x181C DUP5 DUP3 DUP6 ADD PUSH2 0x1761 JUMP JUMPDEST SWAP2 POP POP SWAP3 SWAP2 POP POP JUMP JUMPDEST PUSH1 0x0 DUP1 PUSH1 0x40 DUP4 DUP6 SUB SLT ISZERO PUSH2 0x183C JUMPI PUSH2 0x183B PUSH2 0x215C JUMP JUMPDEST JUMPDEST PUSH1 0x0 PUSH2 0x184A DUP6 DUP3 DUP7 ADD PUSH2 0x1761 JUMP JUMPDEST SWAP3 POP POP PUSH1 0x20 PUSH2 0x185B DUP6 DUP3 DUP7 ADD PUSH2 0x1761 JUMP JUMPDEST SWAP2 POP POP SWAP3 POP SWAP3 SWAP1 POP JUMP JUMPDEST PUSH1 0x0 DUP1 PUSH1 0x0 PUSH1 0x60 DUP5 DUP7 SUB SLT ISZERO PUSH2 0x187E JUMPI PUSH2 0x187D PUSH2 0x215C JUMP JUMPDEST JUMPDEST PUSH1 0x0 PUSH2 0x188C DUP7 DUP3 DUP8 ADD PUSH2 0x1761 JUMP JUMPDEST SWAP4 POP POP PUSH1 0x20 PUSH2 0x189D DUP7 DUP3 DUP8 ADD PUSH2 0x1761 JUMP JUMPDEST SWAP3 POP POP PUSH1 0x40 PUSH2 0x18AE DUP7 DUP3 DUP8 ADD PUSH2 0x17E3 JUMP JUMPDEST SWAP2 POP POP SWAP3 POP SWAP3 POP SWAP3 JUMP JUMPDEST PUSH1 0x0 DUP1 PUSH1 0x0 DUP1 PUSH1 0x80 DUP6 DUP8 SUB SLT ISZERO PUSH2 0x18D2 JUMPI PUSH2 0x18D1 PUSH2 0x215C JUMP JUMPDEST JUMPDEST PUSH1 0x0 PUSH2 0x18E0 DUP8 DUP3 DUP9 ADD PUSH2 0x1761 JUMP JUMPDEST SWAP5 POP POP PUSH1 0x20 PUSH2 0x18F1 DUP8 DUP3 DUP9 ADD PUSH2 0x1761 JUMP JUMPDEST SWAP4 POP POP PUSH1 0x40 PUSH2 0x1902 DUP8 DUP3 DUP9 ADD PUSH2 0x17E3 JUMP JUMPDEST SWAP3 POP POP PUSH1 0x60 DUP6 ADD CALLDATALOAD PUSH8 0xFFFFFFFFFFFFFFFF DUP2 GT ISZERO PUSH2 0x1923 JUMPI PUSH2 0x1922 PUSH2 0x2157 JUMP JUMPDEST JUMPDEST PUSH2 0x192F DUP8 DUP3 DUP9 ADD PUSH2 0x17B5 JUMP JUMPDEST SWAP2 POP POP SWAP3 SWAP6 SWAP2 SWAP5 POP SWAP3 POP JUMP JUMPDEST PUSH1 0x0 DUP1 PUSH1 0x40 DUP4 DUP6 SUB SLT ISZERO PUSH2 0x1952 JUMPI PUSH2 0x1951 PUSH2 0x215C JUMP JUMPDEST JUMPDEST PUSH1 0x0 PUSH2 0x1960 DUP6 DUP3 DUP7 ADD PUSH2 0x1761 JUMP JUMPDEST SWAP3 POP POP PUSH1 0x20 PUSH2 0x1971 DUP6 DUP3 DUP7 ADD PUSH2 0x1776 JUMP JUMPDEST SWAP2 POP POP SWAP3 POP SWAP3 SWAP1 POP JUMP JUMPDEST PUSH1 0x0 DUP1 PUSH1 0x40 DUP4 DUP6 SUB SLT ISZERO PUSH2 0x1992 JUMPI PUSH2 0x1991 PUSH2 0x215C JUMP JUMPDEST JUMPDEST PUSH1 0x0 PUSH2 0x19A0 DUP6 DUP3 DUP7 ADD PUSH2 0x1761 JUMP JUMPDEST SWAP3 POP POP PUSH1 0x20 PUSH2 0x19B1 DUP6 DUP3 DUP7 ADD PUSH2 0x17E3 JUMP JUMPDEST SWAP2 POP POP SWAP3 POP SWAP3 SWAP1 POP JUMP JUMPDEST PUSH1 0x0 PUSH1 0x20 DUP3 DUP5 SUB SLT ISZERO PUSH2 0x19D1 JUMPI PUSH2 0x19D0 PUSH2 0x215C JUMP JUMPDEST JUMPDEST PUSH1 0x0 PUSH2 0x19DF DUP5 DUP3 DUP6 ADD PUSH2 0x178B JUMP JUMPDEST SWAP2 POP POP SWAP3 SWAP2 POP POP JUMP JUMPDEST PUSH1 0x0 PUSH1 0x20 DUP3 DUP5 SUB SLT ISZERO PUSH2 0x19FE JUMPI PUSH2 0x19FD PUSH2 0x215C JUMP JUMPDEST JUMPDEST PUSH1 0x0 PUSH2 0x1A0C DUP5 DUP3 DUP6 ADD PUSH2 0x17A0 JUMP JUMPDEST SWAP2 POP POP SWAP3 SWAP2 POP POP JUMP JUMPDEST PUSH1 0x0 PUSH1 0x20 DUP3 DUP5 SUB SLT ISZERO PUSH2 0x1A2B JUMPI PUSH2 0x1A2A PUSH2 0x215C JUMP JUMPDEST JUMPDEST PUSH1 0x0 PUSH2 0x1A39 DUP5 DUP3 DUP6 ADD PUSH2 0x17E3 JUMP JUMPDEST SWAP2 POP POP SWAP3 SWAP2 POP POP JUMP JUMPDEST PUSH2 0x1A4B DUP2 PUSH2 0x1F56 JUMP JUMPDEST DUP3 MSTORE POP POP JUMP JUMPDEST PUSH2 0x1A5A DUP2 PUSH2 0x1F68 JUMP JUMPDEST DUP3 MSTORE POP POP JUMP JUMPDEST PUSH1 0x0 PUSH2 0x1A6B DUP3 PUSH2 0x1E94 JUMP JUMPDEST PUSH2 0x1A75 DUP2 DUP6 PUSH2 0x1EAA JUMP JUMPDEST SWAP4 POP PUSH2 0x1A85 DUP2 DUP6 PUSH1 0x20 DUP7 ADD PUSH2 0x1FD9 JUMP JUMPDEST PUSH2 0x1A8E DUP2 PUSH2 0x2161 JUMP JUMPDEST DUP5 ADD SWAP2 POP POP SWAP3 SWAP2 POP POP JUMP JUMPDEST PUSH1 0x0 PUSH2 0x1AA4 DUP3 PUSH2 0x1E9F JUMP JUMPDEST PUSH2 0x1AAE DUP2 DUP6 PUSH2 0x1EBB JUMP JUMPDEST SWAP4 POP PUSH2 0x1ABE DUP2 DUP6 PUSH1 0x20 DUP7 ADD PUSH2 0x1FD9 JUMP JUMPDEST PUSH2 0x1AC7 DUP2 PUSH2 0x2161 JUMP JUMPDEST DUP5 ADD SWAP2 POP POP SWAP3 SWAP2 POP POP JUMP JUMPDEST PUSH1 0x0 PUSH2 0x1ADF PUSH1 0x1A DUP4 PUSH2 0x1EBB JUMP JUMPDEST SWAP2 POP PUSH2 0x1AEA DUP3 PUSH2 0x217F JUMP JUMPDEST PUSH1 0x20 DUP3 ADD SWAP1 POP SWAP2 SWAP1 POP JUMP JUMPDEST PUSH1 0x0 PUSH2 0x1B02 PUSH1 0x1F DUP4 PUSH2 0x1EBB JUMP JUMPDEST SWAP2 POP PUSH2 0x1B0D DUP3 PUSH2 0x21A8 JUMP JUMPDEST PUSH1 0x20 DUP3 ADD SWAP1 POP SWAP2 SWAP1 POP JUMP JUMPDEST PUSH1 0x0 PUSH2 0x1B25 PUSH1 0x15 DUP4 PUSH2 0x1EBB JUMP JUMPDEST SWAP2 POP PUSH2 0x1B30 DUP3 PUSH2 0x21D1 JUMP JUMPDEST PUSH1 0x20 DUP3 ADD SWAP1 POP SWAP2 SWAP1 POP JUMP JUMPDEST PUSH1 0x0 PUSH2 0x1B48 PUSH1 0x2A DUP4 PUSH2 0x1EBB JUMP JUMPDEST SWAP2 POP PUSH2 0x1B53 DUP3 PUSH2 0x21FA JUMP JUMPDEST PUSH1 0x40 DUP3 ADD SWAP1 POP SWAP2 SWAP1 POP JUMP JUMPDEST PUSH1 0x0 PUSH2 0x1B6B PUSH1 0x2D DUP4 PUSH2 0x1EBB JUMP JUMPDEST SWAP2 POP PUSH2 0x1B76 DUP3 PUSH2 0x2249 JUMP JUMPDEST PUSH1 0x40 DUP3 ADD SWAP1 POP SWAP2 SWAP1 POP JUMP JUMPDEST PUSH1 0x0 PUSH2 0x1B8E PUSH1 0x18 DUP4 PUSH2 0x1EBB JUMP JUMPDEST SWAP2 POP PUSH2 0x1B99 DUP3 PUSH2 0x2298 JUMP JUMPDEST PUSH1 0x20 DUP3 ADD SWAP1 POP SWAP2 SWAP1 POP JUMP JUMPDEST PUSH1 0x0 PUSH2 0x1BB1 PUSH1 0x20 DUP4 PUSH2 0x1EBB JUMP JUMPDEST SWAP2 POP PUSH2 0x1BBC DUP3 PUSH2 0x22C1 JUMP JUMPDEST PUSH1 0x20 DUP3 ADD SWAP1 POP SWAP2 SWAP1 POP JUMP JUMPDEST PUSH1 0x0 PUSH2 0x1BD4 PUSH1 0x18 DUP4 PUSH2 0x1EBB JUMP JUMPDEST SWAP2 POP PUSH2 0x1BDF DUP3 PUSH2 0x22EA JUMP JUMPDEST PUSH1 0x20 DUP3 ADD SWAP1 POP SWAP2 SWAP1 POP JUMP JUMPDEST PUSH1 0x0 PUSH2 0x1BF7 PUSH1 0x13 DUP4 PUSH2 0x1EBB JUMP JUMPDEST SWAP2 POP PUSH2 0x1C02 DUP3 PUSH2 0x2313 JUMP JUMPDEST PUSH1 0x20 DUP3 ADD SWAP1 POP SWAP2 SWAP1 POP JUMP JUMPDEST PUSH1 0x0 PUSH2 0x1C1A PUSH1 0x13 DUP4 PUSH2 0x1EBB JUMP JUMPDEST SWAP2 POP PUSH2 0x1C25 DUP3 PUSH2 0x233C JUMP JUMPDEST PUSH1 0x20 DUP3 ADD SWAP1 POP SWAP2 SWAP1 POP JUMP JUMPDEST PUSH2 0x1C39 DUP2 PUSH2 0x1FC0 JUMP JUMPDEST DUP3 MSTORE POP POP JUMP JUMPDEST PUSH1 0x0 PUSH1 0x20 DUP3 ADD SWAP1 POP PUSH2 0x1C54 PUSH1 0x0 DUP4 ADD DUP5 PUSH2 0x1A42 JUMP JUMPDEST SWAP3 SWAP2 POP POP JUMP JUMPDEST PUSH1 0x0 PUSH1 0x80 DUP3 ADD SWAP1 POP PUSH2 0x1C6F PUSH1 0x0 DUP4 ADD DUP8 PUSH2 0x1A42 JUMP JUMPDEST PUSH2 0x1C7C PUSH1 0x20 DUP4 ADD DUP7 PUSH2 0x1A42 JUMP JUMPDEST PUSH2 0x1C89 PUSH1 0x40 DUP4 ADD DUP6 PUSH2 0x1C30 JUMP JUMPDEST DUP2 DUP2 SUB PUSH1 0x60 DUP4 ADD MSTORE PUSH2 0x1C9B DUP2 DUP5 PUSH2 0x1A60 JUMP JUMPDEST SWAP1 POP SWAP6 SWAP5 POP POP POP POP POP JUMP JUMPDEST PUSH1 0x0 PUSH1 0x20 DUP3 ADD SWAP1 POP PUSH2 0x1CBB PUSH1 0x0 DUP4 ADD DUP5 PUSH2 0x1A51 JUMP JUMPDEST SWAP3 SWAP2 POP POP JUMP JUMPDEST PUSH1 0x0 PUSH1 0x20 DUP3 ADD SWAP1 POP DUP2 DUP2 SUB PUSH1 0x0 DUP4 ADD MSTORE PUSH2 0x1CDB DUP2 DUP5 PUSH2 0x1A99 JUMP JUMPDEST SWAP1 POP SWAP3 SWAP2 POP POP JUMP JUMPDEST PUSH1 0x0 PUSH1 0x20 DUP3 ADD SWAP1 POP DUP2 DUP2 SUB PUSH1 0x0 DUP4 ADD MSTORE PUSH2 0x1CFC DUP2 PUSH2 0x1AD2 JUMP JUMPDEST SWAP1 POP SWAP2 SWAP1 POP JUMP JUMPDEST PUSH1 0x0 PUSH1 0x20 DUP3 ADD SWAP1 POP DUP2 DUP2 SUB PUSH1 0x0 DUP4 ADD MSTORE PUSH2 0x1D1C DUP2 PUSH2 0x1AF5 JUMP JUMPDEST SWAP1 POP SWAP2 SWAP1 POP JUMP JUMPDEST PUSH1 0x0 PUSH1 0x20 DUP3 ADD SWAP1 POP DUP2 DUP2 SUB PUSH1 0x0 DUP4 ADD MSTORE PUSH2 0x1D3C DUP2 PUSH2 0x1B18 JUMP JUMPDEST SWAP1 POP SWAP2 SWAP1 POP JUMP JUMPDEST PUSH1 0x0 PUSH1 0x20 DUP3 ADD SWAP1 POP DUP2 DUP2 SUB PUSH1 0x0 DUP4 ADD MSTORE PUSH2 0x1D5C DUP2 PUSH2 0x1B3B JUMP JUMPDEST SWAP1 POP SWAP2 SWAP1 POP JUMP JUMPDEST PUSH1 0x0 PUSH1 0x20 DUP3 ADD SWAP1 POP DUP2 DUP2 SUB PUSH1 0x0 DUP4 ADD MSTORE PUSH2 0x1D7C DUP2 PUSH2 0x1B5E JUMP JUMPDEST SWAP1 POP SWAP2 SWAP1 POP JUMP JUMPDEST PUSH1 0x0 PUSH1 0x20 DUP3 ADD SWAP1 POP DUP2 DUP2 SUB PUSH1 0x0 DUP4 ADD MSTORE PUSH2 0x1D9C DUP2 PUSH2 0x1B81 JUMP JUMPDEST SWAP1 POP SWAP2 SWAP1 POP JUMP JUMPDEST PUSH1 0x0 PUSH1 0x20 DUP3 ADD SWAP1 POP DUP2 DUP2 SUB PUSH1 0x0 DUP4 ADD MSTORE PUSH2 0x1DBC DUP2 PUSH2 0x1BA4 JUMP JUMPDEST SWAP1 POP SWAP2 SWAP1 POP JUMP JUMPDEST PUSH1 0x0 PUSH1 0x20 DUP3 ADD SWAP1 POP DUP2 DUP2 SUB PUSH1 0x0 DUP4 ADD MSTORE PUSH2 0x1DDC DUP2 PUSH2 0x1BC7 JUMP JUMPDEST SWAP1 POP SWAP2 SWAP1 POP JUMP JUMPDEST PUSH1 0x0 PUSH1 0x20 DUP3 ADD SWAP1 POP DUP2 DUP2 SUB PUSH1 0x0 DUP4 ADD MSTORE PUSH2 0x1DFC DUP2 PUSH2 0x1BEA JUMP JUMPDEST SWAP1 POP SWAP2 SWAP1 POP JUMP JUMPDEST PUSH1 0x0 PUSH1 0x20 DUP3 ADD SWAP1 POP DUP2 DUP2 SUB PUSH1 0x0 DUP4 ADD MSTORE PUSH2 0x1E1C DUP2 PUSH2 0x1C0D JUMP JUMPDEST SWAP1 POP SWAP2 SWAP1 POP JUMP JUMPDEST PUSH1 0x0 PUSH1 0x20 DUP3 ADD SWAP1 POP PUSH2 0x1E38 PUSH1 0x0 DUP4 ADD DUP5 PUSH2 0x1C30 JUMP JUMPDEST SWAP3 SWAP2 POP POP JUMP JUMPDEST PUSH1 0x0 PUSH2 0x1E48 PUSH2 0x1E59 JUMP JUMPDEST SWAP1 POP PUSH2 0x1E54 DUP3 DUP3 PUSH2 0x203E JUMP JUMPDEST SWAP2 SWAP1 POP JUMP JUMPDEST PUSH1 0x0 PUSH1 0x40 MLOAD SWAP1 POP SWAP1 JUMP JUMPDEST PUSH1 0x0 PUSH8 0xFFFFFFFFFFFFFFFF DUP3 GT ISZERO PUSH2 0x1E7E JUMPI PUSH2 0x1E7D PUSH2 0x20FC JUMP JUMPDEST JUMPDEST PUSH2 0x1E87 DUP3 PUSH2 0x2161 JUMP JUMPDEST SWAP1 POP PUSH1 0x20 DUP2 ADD SWAP1 POP SWAP2 SWAP1 POP JUMP JUMPDEST PUSH1 0x0 DUP2 MLOAD SWAP1 POP SWAP2 SWAP1 POP JUMP JUMPDEST PUSH1 0x0 DUP2 MLOAD SWAP1 POP SWAP2 SWAP1 POP JUMP JUMPDEST PUSH1 0x0 DUP3 DUP3 MSTORE PUSH1 0x20 DUP3 ADD SWAP1 POP SWAP3 SWAP2 POP POP JUMP JUMPDEST PUSH1 0x0 DUP3 DUP3 MSTORE PUSH1 0x20 DUP3 ADD SWAP1 POP SWAP3 SWAP2 POP POP JUMP JUMPDEST PUSH1 0x0 PUSH2 0x1ED7 DUP3 PUSH2 0x1FC0 JUMP JUMPDEST SWAP2 POP PUSH2 0x1EE2 DUP4 PUSH2 0x1FC0 JUMP JUMPDEST SWAP3 POP DUP3 PUSH32 0xFFFFFFFFFFFFFFFFFFFFFFFFFFFFFFFFFFFFFFFFFFFFFFFFFFFFFFFFFFFFFFFF SUB DUP3 GT ISZERO PUSH2 0x1F17 JUMPI PUSH2 0x1F16 PUSH2 0x206F JUMP JUMPDEST JUMPDEST DUP3 DUP3 ADD SWAP1 POP SWAP3 SWAP2 POP POP JUMP JUMPDEST PUSH1 0x0 PUSH2 0x1F2D DUP3 PUSH2 0x1FC0 JUMP JUMPDEST SWAP2 POP PUSH2 0x1F38 DUP4 PUSH2 0x1FC0 JUMP JUMPDEST SWAP3 POP DUP3 DUP3 LT ISZERO PUSH2 0x1F4B JUMPI PUSH2 0x1F4A PUSH2 0x206F JUMP JUMPDEST JUMPDEST DUP3 DUP3 SUB SWAP1 POP SWAP3 SWAP2 POP POP JUMP JUMPDEST PUSH1 0x0 PUSH2 0x1F61 DUP3 PUSH2 0x1FA0 JUMP JUMPDEST SWAP1 POP SWAP2 SWAP1 POP JUMP JUMPDEST PUSH1 0x0 DUP2 ISZERO ISZERO SWAP1 POP SWAP2 SWAP1 POP JUMP JUMPDEST PUSH1 0x0 PUSH32 0xFFFFFFFF00000000000000000000000000000000000000000000000000000000 DUP3 AND SWAP1 POP SWAP2 SWAP1 POP JUMP JUMPDEST PUSH1 0x0 PUSH20 0xFFFFFFFFFFFFFFFFFFFFFFFFFFFFFFFFFFFFFFFF DUP3 AND SWAP1 POP SWAP2 SWAP1 POP JUMP JUMPDEST PUSH1 0x0 DUP2 SWAP1 POP SWAP2 SWAP1 POP JUMP JUMPDEST DUP3 DUP2 DUP4 CALLDATACOPY PUSH1 0x0 DUP4 DUP4 ADD MSTORE POP POP POP JUMP JUMPDEST PUSH1 0x0 JUMPDEST DUP4 DUP2 LT ISZERO PUSH2 0x1FF7 JUMPI DUP1 DUP3 ADD MLOAD DUP2 DUP5 ADD MSTORE PUSH1 0x20 DUP2 ADD SWAP1 POP PUSH2 0x1FDC JUMP JUMPDEST DUP4 DUP2 GT ISZERO PUSH2 0x2006 JUMPI PUSH1 0x0 DUP5 DUP5 ADD MSTORE JUMPDEST POP POP POP POP JUMP JUMPDEST PUSH1 0x0 PUSH1 0x2 DUP3 DIV SWAP1 POP PUSH1 0x1 DUP3 AND DUP1 PUSH2 0x2024 JUMPI PUSH1 0x7F DUP3 AND SWAP2 POP JUMPDEST PUSH1 0x20 DUP3 LT DUP2 EQ ISZERO PUSH2 0x2038 JUMPI PUSH2 0x2037 PUSH2 0x209E JUMP JUMPDEST JUMPDEST POP SWAP2 SWAP1 POP JUMP JUMPDEST PUSH2 0x2047 DUP3 PUSH2 0x2161 JUMP JUMPDEST DUP2 ADD DUP2 DUP2 LT PUSH8 0xFFFFFFFFFFFFFFFF DUP3 GT OR ISZERO PUSH2 0x2066 JUMPI PUSH2 0x2065 PUSH2 0x20FC JUMP JUMPDEST JUMPDEST DUP1 PUSH1 0x40 MSTORE POP POP POP JUMP JUMPDEST PUSH32 0x4E487B7100000000000000000000000000000000000000000000000000000000 PUSH1 0x0 MSTORE PUSH1 0x11 PUSH1 0x4 MSTORE PUSH1 0x24 PUSH1 0x0 REVERT JUMPDEST PUSH32 0x4E487B7100000000000000000000000000000000000000000000000000000000 PUSH1 0x0 MSTORE PUSH1 0x22 PUSH1 0x4 MSTORE PUSH1 0x24 PUSH1 0x0 REVERT JUMPDEST PUSH32 0x4E487B7100000000000000000000000000000000000000000000000000000000 PUSH1 0x0 MSTORE PUSH1 0x32 PUSH1 0x4 MSTORE PUSH1 0x24 PUSH1 0x0 REVERT JUMPDEST PUSH32 0x4E487B7100000000000000000000000000000000000000000000000000000000 PUSH1 0x0 MSTORE PUSH1 0x41 PUSH1 0x4 MSTORE PUSH1 0x24 PUSH1 0x0 REVERT JUMPDEST PUSH1 0x0 PUSH1 0x3 RETURNDATASIZE GT ISZERO PUSH2 0x214A JUMPI PUSH1 0x4 PUSH1 0x0 DUP1 RETURNDATACOPY PUSH2 0x2147 PUSH1 0x0 MLOAD PUSH2 0x2172 JUMP JUMPDEST SWAP1 POP JUMPDEST SWAP1 JUMP JUMPDEST PUSH1 0x0 DUP1 REVERT JUMPDEST PUSH1 0x0 DUP1 REVERT JUMPDEST PUSH1 0x0 DUP1 REVERT JUMPDEST PUSH1 0x0 DUP1 REVERT JUMPDEST PUSH1 0x0 PUSH1 0x1F NOT PUSH1 0x1F DUP4 ADD AND SWAP1 POP SWAP2 SWAP1 POP JUMP JUMPDEST PUSH1 0x0 DUP2 PUSH1 0xE0 SHR SWAP1 POP SWAP2 SWAP1 POP JUMP JUMPDEST PUSH32 0x7472616E736665722066726F6D207A65726F2061646472657373000000000000 PUSH1 0x0 DUP3 ADD MSTORE POP JUMP JUMPDEST PUSH32 0x63616C6C6572206973206E6F74206F776E6572206F7220617070726F76616C00 PUSH1 0x0 DUP3 ADD MSTORE POP JUMP JUMPDEST PUSH32 0x6F776E6572206973207A65726F20616464726573730000000000000000000000 PUSH1 0x0 DUP3 ADD MSTORE POP JUMP JUMPDEST PUSH32 0x7472616E7366657220746F206E6F6E2045524337323152656365697665722069 PUSH1 0x0 DUP3 ADD MSTORE PUSH32 0x6D706C656D656E74657200000000000000000000000000000000000000000000 PUSH1 0x20 DUP3 ADD MSTORE POP JUMP JUMPDEST PUSH32 0x63616C6C6572206973206E6F7420746F6B656E206F776E6572206F7220617070 PUSH1 0x0 DUP3 ADD MSTORE PUSH32 0x726F76616C20666F7220616C6C00000000000000000000000000000000000000 PUSH1 0x20 DUP3 ADD MSTORE POP JUMP JUMPDEST PUSH32 0x7472616E7366657220746F207A65726F20616464726573730000000000000000 PUSH1 0x0 DUP3 ADD MSTORE POP JUMP JUMPDEST PUSH32 0x7472616E736665722066726F6D206973206E6F7420746F6B656E206F776E6572 PUSH1 0x0 DUP3 ADD MSTORE POP JUMP JUMPDEST PUSH32 0x617070726F76616C2073746174757320666F722073656C660000000000000000 PUSH1 0x0 DUP3 ADD MSTORE POP JUMP JUMPDEST PUSH32 0x746F6B656E206973206E6F742065786973747300000000000000000000000000 PUSH1 0x0 DUP3 ADD MSTORE POP JUMP JUMPDEST PUSH32 0x696E646578206F7574206F6620626F756E647300000000000000000000000000 PUSH1 0x0 DUP3 ADD MSTORE POP JUMP JUMPDEST PUSH1 0x0 PUSH1 0x44 RETURNDATASIZE LT ISZERO PUSH2 0x2375 JUMPI PUSH2 0x23F8 JUMP JUMPDEST PUSH2 0x237D PUSH2 0x1E59 JUMP JUMPDEST PUSH1 0x4 RETURNDATASIZE SUB PUSH1 0x4 DUP3 RETURNDATACOPY DUP1 MLOAD RETURNDATASIZE PUSH1 0x24 DUP3 ADD GT PUSH8 0xFFFFFFFFFFFFFFFF DUP3 GT OR ISZERO PUSH2 0x23A5 JUMPI POP POP PUSH2 0x23F8 JUMP JUMPDEST DUP1 DUP3 ADD DUP1 MLOAD PUSH8 0xFFFFFFFFFFFFFFFF DUP2 GT ISZERO PUSH2 0x23C3 JUMPI POP POP POP POP PUSH2 0x23F8 JUMP JUMPDEST DUP1 PUSH1 0x20 DUP4 ADD ADD PUSH1 0x4 RETURNDATASIZE SUB DUP6 ADD DUP2 GT ISZERO PUSH2 0x23E0 JUMPI POP POP POP POP POP PUSH2 0x23F8 JUMP JUMPDEST PUSH2 0x23EF DUP3 PUSH1 0x20 ADD DUP6 ADD DUP7 PUSH2 0x203E JUMP JUMPDEST DUP3 SWAP6 POP POP POP POP POP POP JUMPDEST SWAP1 JUMP JUMPDEST PUSH2 0x2404 DUP2 PUSH2 0x1F56 JUMP JUMPDEST DUP2 EQ PUSH2 0x240F JUMPI PUSH1 0x0 DUP1 REVERT JUMPDEST POP JUMP JUMPDEST PUSH2 0x241B DUP2 PUSH2 0x1F68 JUMP JUMPDEST DUP2 EQ PUSH2 0x2426 JUMPI PUSH1 0x0 DUP1 REVERT JUMPDEST POP JUMP JUMPDEST PUSH2 0x2432 DUP2 PUSH2 0x1F74 JUMP JUMPDEST DUP2 EQ PUSH2 0x243D JUMPI PUSH1 0x0 DUP1 REVERT JUMPDEST POP JUMP JUMPDEST PUSH2 0x2449 DUP2 PUSH2 0x1FC0 JUMP JUMPDEST DUP2 EQ PUSH2 0x2454 JUMPI PUSH1 0x0 DUP1 REVERT JUMPDEST POP JUMP INVALID LOG2 PUSH5 0x6970667358 0x22 SLT KECCAK256 SWAP12 LOG2 0xDF SWAP7 SWAP15 DIV 0xAB PUSH20 0x8286FEFFCE8B9F62CBCC3C8AC645A1006ED986A6 0xB1 EXTCODESIZE SWAP5 STOP PUSH5 0x736F6C6343 STOP ADDMOD SMOD STOP CALLER "
				},
				"gasEstimates": {
					"creation": {
						"codeDepositCost": "1871400",
						"executionCost": "infinite",
						"totalCost": "infinite"
					},
					"external": {
						"approve(address,uint256)": "infinite",
						"balanceOf(address)": "2968",
						"getApproved(uint256)": "5185",
						"isApprovedForAll(address,address)": "infinite",
						"name()": "infinite",
						"ownerOf(uint256)": "3026",
						"safeTransferFrom(address,address,uint256)": "infinite",
						"safeTransferFrom(address,address,uint256,bytes)": "infinite",
						"setApprovalForAll(address,bool)": "infinite",
						"supportsInterface(bytes4)": "846",
						"symbol()": "infinite",
						"tokenByIndex(uint256)": "infinite",
						"tokenOfOwnerByIndex(address,uint256)": "infinite",
						"tokenURI(uint256)": "infinite",
						"totalSupply()": "2490",
						"transferFrom(address,address,uint256)": "infinite",
						"uri(uint256)": "infinite"
					},
					"internal": {
						"_addTokenToAllEnumeration(uint256)": "infinite",
						"_addTokenToOwnerEnumeration(address,uint256)": "infinite",
						"_approve(address,uint256)": "infinite",
						"_burn(uint256)": "infinite",
						"_checkOnERC721Received(address,address,uint256,bytes memory)": "infinite",
						"_mint(address,uint256,string memory)": "infinite",
						"_removeTokenFromAllEnumeration(uint256)": "infinite",
						"_removeTokenFromOwnerEnumeration(address,uint256)": "61458",
						"_safeMint(address,uint256,string memory)": "infinite",
						"_safeMint(address,uint256,string memory,bytes memory)": "infinite"
					}
				},
				"methodIdentifiers": {
					"approve(address,uint256)": "095ea7b3",
					"balanceOf(address)": "70a08231",
					"getApproved(uint256)": "081812fc",
					"isApprovedForAll(address,address)": "e985e9c5",
					"name()": "06fdde03",
					"ownerOf(uint256)": "6352211e",
					"safeTransferFrom(address,address,uint256)": "42842e0e",
					"safeTransferFrom(address,address,uint256,bytes)": "b88d4fde",
					"setApprovalForAll(address,bool)": "a22cb465",
					"supportsInterface(bytes4)": "01ffc9a7",
					"symbol()": "95d89b41",
					"tokenByIndex(uint256)": "4f6ccce7",
					"tokenOfOwnerByIndex(address,uint256)": "2f745c59",
					"tokenURI(uint256)": "c87b56dd",
					"totalSupply()": "18160ddd",
					"transferFrom(address,address,uint256)": "23b872dd",
					"uri(uint256)": "0e89341c"
				}
			},
			"storageLayout": {
				"storage": [
					{
						"astId": 183,
						"contract": "ERC721.sol:ERC721",
						"label": "_balances",
						"offset": 0,
						"slot": "0",
						"type": "t_mapping(t_address,t_uint256)"
					},
					{
						"astId": 187,
						"contract": "ERC721.sol:ERC721",
						"label": "_owners",
						"offset": 0,
						"slot": "1",
						"type": "t_mapping(t_uint256,t_address)"
					},
					{
						"astId": 193,
						"contract": "ERC721.sol:ERC721",
						"label": "_operatorApprovals",
						"offset": 0,
						"slot": "2",
						"type": "t_mapping(t_address,t_mapping(t_address,t_bool))"
					},
					{
						"astId": 197,
						"contract": "ERC721.sol:ERC721",
						"label": "_tokenApprovals",
						"offset": 0,
						"slot": "3",
						"type": "t_mapping(t_uint256,t_address)"
					},
					{
						"astId": 199,
						"contract": "ERC721.sol:ERC721",
						"label": "_name",
						"offset": 0,
						"slot": "4",
						"type": "t_string_storage"
					},
					{
						"astId": 201,
						"contract": "ERC721.sol:ERC721",
						"label": "_symbol",
						"offset": 0,
						"slot": "5",
						"type": "t_string_storage"
					},
					{
						"astId": 205,
						"contract": "ERC721.sol:ERC721",
						"label": "_tokenURIs",
						"offset": 0,
						"slot": "6",
						"type": "t_mapping(t_uint256,t_string_storage)"
					},
					{
						"astId": 211,
						"contract": "ERC721.sol:ERC721",
						"label": "_ownedTokens",
						"offset": 0,
						"slot": "7",
						"type": "t_mapping(t_address,t_mapping(t_uint256,t_uint256))"
					},
					{
						"astId": 215,
						"contract": "ERC721.sol:ERC721",
						"label": "_ownedTokensIndex",
						"offset": 0,
						"slot": "8",
						"type": "t_mapping(t_uint256,t_uint256)"
					},
					{
						"astId": 218,
						"contract": "ERC721.sol:ERC721",
						"label": "_allTokens",
						"offset": 0,
						"slot": "9",
						"type": "t_array(t_uint256)dyn_storage"
					},
					{
						"astId": 222,
						"contract": "ERC721.sol:ERC721",
						"label": "_allTokensIndex",
						"offset": 0,
						"slot": "10",
						"type": "t_mapping(t_uint256,t_uint256)"
					}
				],
				"types": {
					"t_address": {
						"encoding": "inplace",
						"label": "address",
						"numberOfBytes": "20"
					},
					"t_array(t_uint256)dyn_storage": {
						"base": "t_uint256",
						"encoding": "dynamic_array",
						"label": "uint256[]",
						"numberOfBytes": "32"
					},
					"t_bool": {
						"encoding": "inplace",
						"label": "bool",
						"numberOfBytes": "1"
					},
					"t_mapping(t_address,t_bool)": {
						"encoding": "mapping",
						"key": "t_address",
						"label": "mapping(address => bool)",
						"numberOfBytes": "32",
						"value": "t_bool"
					},
					"t_mapping(t_address,t_mapping(t_address,t_bool))": {
						"encoding": "mapping",
						"key": "t_address",
						"label": "mapping(address => mapping(address => bool))",
						"numberOfBytes": "32",
						"value": "t_mapping(t_address,t_bool)"
					},
					"t_mapping(t_address,t_mapping(t_uint256,t_uint256))": {
						"encoding": "mapping",
						"key": "t_address",
						"label": "mapping(address => mapping(uint256 => uint256))",
						"numberOfBytes": "32",
						"value": "t_mapping(t_uint256,t_uint256)"
					},
					"t_mapping(t_address,t_uint256)": {
						"encoding": "mapping",
						"key": "t_address",
						"label": "mapping(address => uint256)",
						"numberOfBytes": "32",
						"value": "t_uint256"
					},
					"t_mapping(t_uint256,t_address)": {
						"encoding": "mapping",
						"key": "t_uint256",
						"label": "mapping(uint256 => address)",
						"numberOfBytes": "32",
						"value": "t_address"
					},
					"t_mapping(t_uint256,t_string_storage)": {
						"encoding": "mapping",
						"key": "t_uint256",
						"label": "mapping(uint256 => string)",
						"numberOfBytes": "32",
						"value": "t_string_storage"
					},
					"t_mapping(t_uint256,t_uint256)": {
						"encoding": "mapping",
						"key": "t_uint256",
						"label": "mapping(uint256 => uint256)",
						"numberOfBytes": "32",
						"value": "t_uint256"
					},
					"t_string_storage": {
						"encoding": "bytes",
						"label": "string",
						"numberOfBytes": "32"
					},
					"t_uint256": {
						"encoding": "inplace",
						"label": "uint256",
						"numberOfBytes": "32"
					}
				}
			},
			"userdoc": {
				"kind": "user",
				"methods": {},
				"version": 1
			}
		}
	}
}