{
	"Offer.sol": {
		"Offer": {
			"abi": [
				{
					"anonymous": false,
					"inputs": [
						{
							"indexed": true,
							"internalType": "address",
							"name": "tokenAddr",
							"type": "address"
						},
						{
							"indexed": true,
							"internalType": "uint256",
							"name": "tokenId",
							"type": "uint256"
						},
						{
							"indexed": true,
							"internalType": "address",
							"name": "offerer",
							"type": "address"
						},
						{
							"indexed": false,
							"internalType": "uint256",
							"name": "amount",
							"type": "uint256"
						},
						{
							"indexed": false,
							"internalType": "bool",
							"name": "isOffer",
							"type": "bool"
						}
					],
					"name": "OfferEvent",
					"type": "event"
				},
				{
					"anonymous": false,
					"inputs": [
						{
							"indexed": true,
							"internalType": "address",
							"name": "tokenAddr",
							"type": "address"
						},
						{
							"indexed": true,
							"internalType": "uint256",
							"name": "tokenId",
							"type": "uint256"
						},
						{
							"indexed": false,
							"internalType": "bool",
							"name": "isOffer",
							"type": "bool"
						}
					],
					"name": "SubmitEvent",
					"type": "event"
				},
				{
					"inputs": [],
					"name": "balances",
					"outputs": [
						{
							"internalType": "uint256",
							"name": "",
							"type": "uint256"
						}
					],
					"stateMutability": "view",
					"type": "function"
				},
				{
					"inputs": [
						{
							"internalType": "address",
							"name": "tokenAddr",
							"type": "address"
						},
						{
							"internalType": "uint256",
							"name": "tokenId",
							"type": "uint256"
						}
					],
					"name": "offer",
					"outputs": [],
					"stateMutability": "payable",
					"type": "function"
				},
				{
					"inputs": [
						{
							"internalType": "address",
							"name": "",
							"type": "address"
						},
						{
							"internalType": "uint256",
							"name": "",
							"type": "uint256"
						}
					],
					"name": "offers",
					"outputs": [
						{
							"internalType": "bool",
							"name": "isOffer",
							"type": "bool"
						}
					],
					"stateMutability": "view",
					"type": "function"
				},
				{
					"inputs": [
						{
							"internalType": "address",
							"name": "tokenAddr",
							"type": "address"
						},
						{
							"internalType": "uint256",
							"name": "tokenId",
							"type": "uint256"
						},
						{
							"internalType": "address",
							"name": "offerer",
							"type": "address"
						}
					],
					"name": "submit",
					"outputs": [],
					"stateMutability": "payable",
					"type": "function"
				}
			],
			"devdoc": {
				"kind": "dev",
				"methods": {},
				"version": 1
			},
			"evm": {
				"assembly": "    /* \"Offer.sol\":207:1634  contract Offer {\r... */\n  mstore(0x40, 0x80)\n  callvalue\n  dup1\n  iszero\n  tag_1\n  jumpi\n  0x00\n  dup1\n  revert\ntag_1:\n  pop\n  dataSize(sub_0)\n  dup1\n  dataOffset(sub_0)\n  0x00\n  codecopy\n  0x00\n  return\nstop\n\nsub_0: assembly {\n        /* \"Offer.sol\":207:1634  contract Offer {\r... */\n      mstore(0x40, 0x80)\n      jumpi(tag_1, lt(calldatasize, 0x04))\n      shr(0xe0, calldataload(0x00))\n      dup1\n      0x6b212960\n      eq\n      tag_2\n      jumpi\n      dup1\n      0x7bb98a68\n      eq\n      tag_3\n      jumpi\n      dup1\n      0xaa1a8411\n      eq\n      tag_4\n      jumpi\n      dup1\n      0xabd51552\n      eq\n      tag_5\n      jumpi\n    tag_1:\n      0x00\n      dup1\n      revert\n        /* \"Offer.sol\":658:1031  function offer(address tokenAddr, uint tokenId) external payable {\r... */\n    tag_2:\n      tag_6\n      0x04\n      dup1\n      calldatasize\n      sub\n      dup2\n      add\n      swap1\n      tag_7\n      swap2\n      swap1\n      tag_8\n      jump\t// in\n    tag_7:\n      tag_9\n      jump\t// in\n    tag_6:\n      stop\n        /* \"Offer.sol\":629:649  uint public balances */\n    tag_3:\n      callvalue\n      dup1\n      iszero\n      tag_10\n      jumpi\n      0x00\n      dup1\n      revert\n    tag_10:\n      pop\n      tag_11\n      tag_12\n      jump\t// in\n    tag_11:\n      mload(0x40)\n      tag_13\n      swap2\n      swap1\n      tag_14\n      jump\t// in\n    tag_13:\n      mload(0x40)\n      dup1\n      swap2\n      sub\n      swap1\n      return\n        /* \"Offer.sol\":441:497  mapping(address =>mapping(uint => Offers)) public offers */\n    tag_4:\n      callvalue\n      dup1\n      iszero\n      tag_15\n      jumpi\n      0x00\n      dup1\n      revert\n    tag_15:\n      pop\n      tag_16\n      0x04\n      dup1\n      calldatasize\n      sub\n      dup2\n      add\n      swap1\n      tag_17\n      swap2\n      swap1\n      tag_8\n      jump\t// in\n    tag_17:\n      tag_18\n      jump\t// in\n    tag_16:\n      mload(0x40)\n      tag_19\n      swap2\n      swap1\n      tag_20\n      jump\t// in\n    tag_19:\n      mload(0x40)\n      dup1\n      swap2\n      sub\n      swap1\n      return\n        /* \"Offer.sol\":1039:1631  function submit(address tokenAddr, uint tokenId, address offerer) external payable {\r... */\n    tag_5:\n      tag_21\n      0x04\n      dup1\n      calldatasize\n      sub\n      dup2\n      add\n      swap1\n      tag_22\n      swap2\n      swap1\n      tag_23\n      jump\t// in\n    tag_22:\n      tag_24\n      jump\t// in\n    tag_21:\n      stop\n        /* \"Offer.sol\":658:1031  function offer(address tokenAddr, uint tokenId) external payable {\r... */\n    tag_9:\n        /* \"Offer.sol\":734:756  Offers storage _offers */\n      0x00\n        /* \"Offer.sol\":759:765  offers */\n      dup1\n        /* \"Offer.sol\":759:776  offers[tokenAddr] */\n      0x00\n        /* \"Offer.sol\":766:775  tokenAddr */\n      dup5\n        /* \"Offer.sol\":759:776  offers[tokenAddr] */\n      0xffffffffffffffffffffffffffffffffffffffff\n      and\n      0xffffffffffffffffffffffffffffffffffffffff\n      and\n      dup2\n      mstore\n      0x20\n      add\n      swap1\n      dup2\n      mstore\n      0x20\n      add\n      0x00\n      keccak256\n        /* \"Offer.sol\":759:785  offers[tokenAddr][tokenId] */\n      0x00\n        /* \"Offer.sol\":777:784  tokenId */\n      dup4\n        /* \"Offer.sol\":759:785  offers[tokenAddr][tokenId] */\n      dup2\n      mstore\n      0x20\n      add\n      swap1\n      dup2\n      mstore\n      0x20\n      add\n      0x00\n      keccak256\n        /* \"Offer.sol\":734:785  Offers storage _offers = offers[tokenAddr][tokenId] */\n      swap1\n      pop\n        /* \"Offer.sol\":798:805  _offers */\n      dup1\n        /* \"Offer.sol\":798:813  _offers.offerer */\n      0x00\n      add\n        /* \"Offer.sol\":819:829  msg.sender */\n      caller\n        /* \"Offer.sol\":798:830  _offers.offerer.push(msg.sender) */\n      swap1\n      dup1\n      0x01\n      dup2\n      sload\n      add\n      dup1\n      dup3\n      sstore\n      dup1\n      swap2\n      pop\n      pop\n      0x01\n      swap1\n      sub\n      swap1\n      0x00\n      mstore\n      keccak256(0x00, 0x20)\n      add\n      0x00\n      swap1\n      swap2\n      swap1\n      swap2\n      swap1\n      swap2\n      0x0100\n      exp\n      dup2\n      sload\n      dup2\n      0xffffffffffffffffffffffffffffffffffffffff\n      mul\n      not\n      and\n      swap1\n      dup4\n      0xffffffffffffffffffffffffffffffffffffffff\n      and\n      mul\n      or\n      swap1\n      sstore\n      pop\n        /* \"Offer.sol\":870:879  msg.value */\n      callvalue\n        /* \"Offer.sol\":841:848  _offers */\n      dup2\n        /* \"Offer.sol\":841:855  _offers.amount */\n      0x01\n      add\n        /* \"Offer.sol\":841:867  _offers.amount[msg.sender] */\n      0x00\n        /* \"Offer.sol\":856:866  msg.sender */\n      caller\n        /* \"Offer.sol\":841:867  _offers.amount[msg.sender] */\n      0xffffffffffffffffffffffffffffffffffffffff\n      and\n      0xffffffffffffffffffffffffffffffffffffffff\n      and\n      dup2\n      mstore\n      0x20\n      add\n      swap1\n      dup2\n      mstore\n      0x20\n      add\n      0x00\n      keccak256\n        /* \"Offer.sol\":841:879  _offers.amount[msg.sender] = msg.value */\n      dup2\n      swap1\n      sstore\n      pop\n        /* \"Offer.sol\":908:912  true */\n      0x01\n        /* \"Offer.sol\":890:897  _offers */\n      dup2\n        /* \"Offer.sol\":890:905  _offers.isOffer */\n      0x02\n      add\n      0x00\n        /* \"Offer.sol\":890:912  _offers.isOffer = true */\n      0x0100\n      exp\n      dup2\n      sload\n      dup2\n      0xff\n      mul\n      not\n      and\n      swap1\n      dup4\n      iszero\n      iszero\n      mul\n      or\n      swap1\n      sstore\n      pop\n        /* \"Offer.sol\":937:946  msg.value */\n      callvalue\n        /* \"Offer.sol\":925:933  balances */\n      0x01\n      0x00\n        /* \"Offer.sol\":925:946  balances += msg.value */\n      dup3\n      dup3\n      sload\n      tag_27\n      swap2\n      swap1\n      tag_28\n      jump\t// in\n    tag_27:\n      swap3\n      pop\n      pop\n      dup2\n      swap1\n      sstore\n      pop\n        /* \"Offer.sol\":995:1005  msg.sender */\n      caller\n        /* \"Offer.sol\":964:1023  OfferEvent(tokenAddr, tokenId, msg.sender, msg.value, true) */\n      0xffffffffffffffffffffffffffffffffffffffff\n      and\n        /* \"Offer.sol\":986:993  tokenId */\n      dup3\n        /* \"Offer.sol\":975:984  tokenAddr */\n      dup5\n        /* \"Offer.sol\":964:1023  OfferEvent(tokenAddr, tokenId, msg.sender, msg.value, true) */\n      0xffffffffffffffffffffffffffffffffffffffff\n      and\n      0xa297a5039e151f85fd39b734d57194f31bf1ba744464810f8fa18941216c79b0\n        /* \"Offer.sol\":1007:1016  msg.value */\n      callvalue\n        /* \"Offer.sol\":1018:1022  true */\n      0x01\n        /* \"Offer.sol\":964:1023  OfferEvent(tokenAddr, tokenId, msg.sender, msg.value, true) */\n      mload(0x40)\n      tag_29\n      swap3\n      swap2\n      swap1\n      tag_30\n      jump\t// in\n    tag_29:\n      mload(0x40)\n      dup1\n      swap2\n      sub\n      swap1\n      log4\n        /* \"Offer.sol\":723:1031  {\r... */\n      pop\n        /* \"Offer.sol\":658:1031  function offer(address tokenAddr, uint tokenId) external payable {\r... */\n      pop\n      pop\n      jump\t// out\n        /* \"Offer.sol\":629:649  uint public balances */\n    tag_12:\n      sload(0x01)\n      dup2\n      jump\t// out\n        /* \"Offer.sol\":441:497  mapping(address =>mapping(uint => Offers)) public offers */\n    tag_18:\n      mstore(0x20, 0x00)\n      dup2\n      0x00\n      mstore\n      mstore(0x20, keccak256(0x00, 0x40))\n      dup1\n      0x00\n      mstore\n      keccak256(0x00, 0x40)\n      0x00\n      swap2\n      pop\n      swap2\n      pop\n      pop\n      dup1\n      0x02\n      add\n      0x00\n      swap1\n      sload\n      swap1\n      0x0100\n      exp\n      swap1\n      div\n      0xff\n      and\n      swap1\n      pop\n      dup2\n      jump\t// out\n        /* \"Offer.sol\":1039:1631  function submit(address tokenAddr, uint tokenId, address offerer) external payable {\r... */\n    tag_24:\n        /* \"Offer.sol\":1133:1155  Offers storage _offers */\n      0x00\n        /* \"Offer.sol\":1158:1164  offers */\n      dup1\n        /* \"Offer.sol\":1158:1175  offers[tokenAddr] */\n      0x00\n        /* \"Offer.sol\":1165:1174  tokenAddr */\n      dup6\n        /* \"Offer.sol\":1158:1175  offers[tokenAddr] */\n      0xffffffffffffffffffffffffffffffffffffffff\n      and\n      0xffffffffffffffffffffffffffffffffffffffff\n      and\n      dup2\n      mstore\n      0x20\n      add\n      swap1\n      dup2\n      mstore\n      0x20\n      add\n      0x00\n      keccak256\n        /* \"Offer.sol\":1158:1184  offers[tokenAddr][tokenId] */\n      0x00\n        /* \"Offer.sol\":1176:1183  tokenId */\n      dup5\n        /* \"Offer.sol\":1158:1184  offers[tokenAddr][tokenId] */\n      dup2\n      mstore\n      0x20\n      add\n      swap1\n      dup2\n      mstore\n      0x20\n      add\n      0x00\n      keccak256\n        /* \"Offer.sol\":1133:1184  Offers storage _offers = offers[tokenAddr][tokenId] */\n      swap1\n      pop\n        /* \"Offer.sol\":1195:1208  IERC721 token */\n      0x00\n        /* \"Offer.sol\":1219:1228  tokenAddr */\n      dup5\n        /* \"Offer.sol\":1195:1229  IERC721 token = IERC721(tokenAddr) */\n      swap1\n      pop\n        /* \"Offer.sol\":1276:1286  msg.sender */\n      caller\n        /* \"Offer.sol\":1250:1286  token.ownerOf(tokenId) == msg.sender */\n      0xffffffffffffffffffffffffffffffffffffffff\n      and\n        /* \"Offer.sol\":1250:1255  token */\n      dup2\n        /* \"Offer.sol\":1250:1263  token.ownerOf */\n      0xffffffffffffffffffffffffffffffffffffffff\n      and\n      0x6352211e\n        /* \"Offer.sol\":1264:1271  tokenId */\n      dup7\n        /* \"Offer.sol\":1250:1272  token.ownerOf(tokenId) */\n      mload(0x40)\n      dup3\n      0xffffffff\n      and\n      0xe0\n      shl\n      dup2\n      mstore\n      0x04\n      add\n      tag_32\n      swap2\n      swap1\n      tag_14\n      jump\t// in\n    tag_32:\n      0x20\n      mload(0x40)\n      dup1\n      dup4\n      sub\n      dup2\n      dup7\n      dup1\n      extcodesize\n      iszero\n      dup1\n      iszero\n      tag_33\n      jumpi\n      0x00\n      dup1\n      revert\n    tag_33:\n      pop\n      gas\n      staticcall\n      iszero\n      dup1\n      iszero\n      tag_35\n      jumpi\n      returndatasize\n      0x00\n      dup1\n      returndatacopy\n      revert(0x00, returndatasize)\n    tag_35:\n      pop\n      pop\n      pop\n      pop\n      mload(0x40)\n      returndatasize\n      not(0x1f)\n      0x1f\n      dup3\n      add\n      and\n      dup3\n      add\n      dup1\n      0x40\n      mstore\n      pop\n      dup2\n      add\n      swap1\n      tag_36\n      swap2\n      swap1\n      tag_37\n      jump\t// in\n    tag_36:\n        /* \"Offer.sol\":1250:1286  token.ownerOf(tokenId) == msg.sender */\n      0xffffffffffffffffffffffffffffffffffffffff\n      and\n      eq\n        /* \"Offer.sol\":1242:1304  require(token.ownerOf(tokenId) == msg.sender, \"Unauthorized.\") */\n      tag_38\n      jumpi\n      mload(0x40)\n      0x08c379a000000000000000000000000000000000000000000000000000000000\n      dup2\n      mstore\n      0x04\n      add\n      tag_39\n      swap1\n      tag_40\n      jump\t// in\n    tag_39:\n      mload(0x40)\n      dup1\n      swap2\n      sub\n      swap1\n      revert\n    tag_38:\n        /* \"Offer.sol\":1342:1346  true */\n      0x01\n        /* \"Offer.sol\":1323:1346  _offers.isOffer == true */\n      iszero\n      iszero\n        /* \"Offer.sol\":1323:1330  _offers */\n      dup3\n        /* \"Offer.sol\":1323:1338  _offers.isOffer */\n      0x02\n      add\n      0x00\n      swap1\n      sload\n      swap1\n      0x0100\n      exp\n      swap1\n      div\n      0xff\n      and\n        /* \"Offer.sol\":1323:1346  _offers.isOffer == true */\n      iszero\n      iszero\n      eq\n        /* \"Offer.sol\":1315:1360  require(_offers.isOffer == true, \"No offer.\") */\n      tag_41\n      jumpi\n      mload(0x40)\n      0x08c379a000000000000000000000000000000000000000000000000000000000\n      dup2\n      mstore\n      0x04\n      add\n      tag_42\n      swap1\n      tag_43\n      jump\t// in\n    tag_42:\n      mload(0x40)\n      dup1\n      swap2\n      sub\n      swap1\n      revert\n    tag_41:\n        /* \"Offer.sol\":1381:1391  msg.sender */\n      caller\n        /* \"Offer.sol\":1373:1401  payable(msg.sender).transfer */\n      0xffffffffffffffffffffffffffffffffffffffff\n      and\n        /* \"Offer.sol\":1373:1426  payable(msg.sender).transfer(_offers.amount[offerer]) */\n      0x08fc\n        /* \"Offer.sol\":1402:1409  _offers */\n      dup4\n        /* \"Offer.sol\":1402:1416  _offers.amount */\n      0x01\n      add\n        /* \"Offer.sol\":1402:1425  _offers.amount[offerer] */\n      0x00\n        /* \"Offer.sol\":1417:1424  offerer */\n      dup7\n        /* \"Offer.sol\":1402:1425  _offers.amount[offerer] */\n      0xffffffffffffffffffffffffffffffffffffffff\n      and\n      0xffffffffffffffffffffffffffffffffffffffff\n      and\n      dup2\n      mstore\n      0x20\n      add\n      swap1\n      dup2\n      mstore\n      0x20\n      add\n      0x00\n      keccak256\n      sload\n        /* \"Offer.sol\":1373:1426  payable(msg.sender).transfer(_offers.amount[offerer]) */\n      swap1\n      dup2\n      iszero\n      mul\n      swap1\n      mload(0x40)\n      0x00\n      mload(0x40)\n      dup1\n      dup4\n      sub\n      dup2\n      dup6\n      dup9\n      dup9\n      call\n      swap4\n      pop\n      pop\n      pop\n      pop\n      iszero\n      dup1\n      iszero\n      tag_45\n      jumpi\n      returndatasize\n      0x00\n      dup1\n      returndatacopy\n      revert(0x00, returndatasize)\n    tag_45:\n      pop\n        /* \"Offer.sol\":1449:1456  _offers */\n      dup2\n        /* \"Offer.sol\":1449:1463  _offers.amount */\n      0x01\n      add\n        /* \"Offer.sol\":1449:1472  _offers.amount[offerer] */\n      0x00\n        /* \"Offer.sol\":1464:1471  offerer */\n      dup5\n        /* \"Offer.sol\":1449:1472  _offers.amount[offerer] */\n      0xffffffffffffffffffffffffffffffffffffffff\n      and\n      0xffffffffffffffffffffffffffffffffffffffff\n      and\n      dup2\n      mstore\n      0x20\n      add\n      swap1\n      dup2\n      mstore\n      0x20\n      add\n      0x00\n      keccak256\n      sload\n        /* \"Offer.sol\":1437:1445  balances */\n      0x01\n      0x00\n        /* \"Offer.sol\":1437:1472  balances -= _offers.amount[offerer] */\n      dup3\n      dup3\n      sload\n      tag_46\n      swap2\n      swap1\n      tag_47\n      jump\t// in\n    tag_46:\n      swap3\n      pop\n      pop\n      dup2\n      swap1\n      sstore\n      pop\n        /* \"Offer.sol\":1501:1506  false */\n      0x00\n        /* \"Offer.sol\":1483:1490  _offers */\n      dup3\n        /* \"Offer.sol\":1483:1498  _offers.isOffer */\n      0x02\n      add\n      0x00\n        /* \"Offer.sol\":1483:1506  _offers.isOffer = false */\n      0x0100\n      exp\n      dup2\n      sload\n      dup2\n      0xff\n      mul\n      not\n      and\n      swap1\n      dup4\n      iszero\n      iszero\n      mul\n      or\n      swap1\n      sstore\n      pop\n        /* \"Offer.sol\":1519:1524  token */\n      dup1\n        /* \"Offer.sol\":1519:1537  token.transferFrom */\n      0xffffffffffffffffffffffffffffffffffffffff\n      and\n      0x23b872dd\n        /* \"Offer.sol\":1538:1548  msg.sender */\n      caller\n        /* \"Offer.sol\":1550:1557  offerer */\n      dup6\n        /* \"Offer.sol\":1559:1566  tokenId */\n      dup8\n        /* \"Offer.sol\":1519:1567  token.transferFrom(msg.sender, offerer, tokenId) */\n      mload(0x40)\n      dup5\n      0xffffffff\n      and\n      0xe0\n      shl\n      dup2\n      mstore\n      0x04\n      add\n      tag_48\n      swap4\n      swap3\n      swap2\n      swap1\n      tag_49\n      jump\t// in\n    tag_48:\n      0x00\n      mload(0x40)\n      dup1\n      dup4\n      sub\n      dup2\n      0x00\n      dup8\n      dup1\n      extcodesize\n      iszero\n      dup1\n      iszero\n      tag_50\n      jumpi\n      0x00\n      dup1\n      revert\n    tag_50:\n      pop\n      gas\n      call\n      iszero\n      dup1\n      iszero\n      tag_52\n      jumpi\n      returndatasize\n      0x00\n      dup1\n      returndatacopy\n      revert(0x00, returndatasize)\n    tag_52:\n      pop\n      pop\n      pop\n      pop\n        /* \"Offer.sol\":1608:1615  tokenId */\n      dup4\n        /* \"Offer.sol\":1597:1606  tokenAddr */\n      dup6\n        /* \"Offer.sol\":1585:1623  SubmitEvent(tokenAddr, tokenId, false) */\n      0xffffffffffffffffffffffffffffffffffffffff\n      and\n      0x9663db6e9b1f015a82beb1b03ec8fed9d1a25b5da31b2cc92c2be9e8c629a80d\n        /* \"Offer.sol\":1617:1622  false */\n      0x00\n        /* \"Offer.sol\":1585:1623  SubmitEvent(tokenAddr, tokenId, false) */\n      mload(0x40)\n      tag_53\n      swap2\n      swap1\n      tag_20\n      jump\t// in\n    tag_53:\n      mload(0x40)\n      dup1\n      swap2\n      sub\n      swap1\n      log3\n        /* \"Offer.sol\":1122:1631  {\r... */\n      pop\n      pop\n        /* \"Offer.sol\":1039:1631  function submit(address tokenAddr, uint tokenId, address offerer) external payable {\r... */\n      pop\n      pop\n      pop\n      jump\t// out\n        /* \"#utility.yul\":7:146   */\n    tag_55:\n        /* \"#utility.yul\":53:58   */\n      0x00\n        /* \"#utility.yul\":91:97   */\n      dup2\n        /* \"#utility.yul\":78:98   */\n      calldataload\n        /* \"#utility.yul\":69:98   */\n      swap1\n      pop\n        /* \"#utility.yul\":107:140   */\n      tag_57\n        /* \"#utility.yul\":134:139   */\n      dup2\n        /* \"#utility.yul\":107:140   */\n      tag_58\n      jump\t// in\n    tag_57:\n        /* \"#utility.yul\":7:146   */\n      swap3\n      swap2\n      pop\n      pop\n      jump\t// out\n        /* \"#utility.yul\":152:295   */\n    tag_59:\n        /* \"#utility.yul\":209:214   */\n      0x00\n        /* \"#utility.yul\":240:246   */\n      dup2\n        /* \"#utility.yul\":234:247   */\n      mload\n        /* \"#utility.yul\":225:247   */\n      swap1\n      pop\n        /* \"#utility.yul\":256:289   */\n      tag_61\n        /* \"#utility.yul\":283:288   */\n      dup2\n        /* \"#utility.yul\":256:289   */\n      tag_58\n      jump\t// in\n    tag_61:\n        /* \"#utility.yul\":152:295   */\n      swap3\n      swap2\n      pop\n      pop\n      jump\t// out\n        /* \"#utility.yul\":301:440   */\n    tag_62:\n        /* \"#utility.yul\":347:352   */\n      0x00\n        /* \"#utility.yul\":385:391   */\n      dup2\n        /* \"#utility.yul\":372:392   */\n      calldataload\n        /* \"#utility.yul\":363:392   */\n      swap1\n      pop\n        /* \"#utility.yul\":401:434   */\n      tag_64\n        /* \"#utility.yul\":428:433   */\n      dup2\n        /* \"#utility.yul\":401:434   */\n      tag_65\n      jump\t// in\n    tag_64:\n        /* \"#utility.yul\":301:440   */\n      swap3\n      swap2\n      pop\n      pop\n      jump\t// out\n        /* \"#utility.yul\":446:797   */\n    tag_37:\n        /* \"#utility.yul\":516:522   */\n      0x00\n        /* \"#utility.yul\":565:567   */\n      0x20\n        /* \"#utility.yul\":553:562   */\n      dup3\n        /* \"#utility.yul\":544:551   */\n      dup5\n        /* \"#utility.yul\":540:563   */\n      sub\n        /* \"#utility.yul\":536:568   */\n      slt\n        /* \"#utility.yul\":533:652   */\n      iszero\n      tag_67\n      jumpi\n        /* \"#utility.yul\":571:650   */\n      tag_68\n      tag_69\n      jump\t// in\n    tag_68:\n        /* \"#utility.yul\":533:652   */\n    tag_67:\n        /* \"#utility.yul\":691:692   */\n      0x00\n        /* \"#utility.yul\":716:780   */\n      tag_70\n        /* \"#utility.yul\":772:779   */\n      dup5\n        /* \"#utility.yul\":763:769   */\n      dup3\n        /* \"#utility.yul\":752:761   */\n      dup6\n        /* \"#utility.yul\":748:770   */\n      add\n        /* \"#utility.yul\":716:780   */\n      tag_59\n      jump\t// in\n    tag_70:\n        /* \"#utility.yul\":706:780   */\n      swap2\n      pop\n        /* \"#utility.yul\":662:790   */\n      pop\n        /* \"#utility.yul\":446:797   */\n      swap3\n      swap2\n      pop\n      pop\n      jump\t// out\n        /* \"#utility.yul\":803:1277   */\n    tag_8:\n        /* \"#utility.yul\":871:877   */\n      0x00\n        /* \"#utility.yul\":879:885   */\n      dup1\n        /* \"#utility.yul\":928:930   */\n      0x40\n        /* \"#utility.yul\":916:925   */\n      dup4\n        /* \"#utility.yul\":907:914   */\n      dup6\n        /* \"#utility.yul\":903:926   */\n      sub\n        /* \"#utility.yul\":899:931   */\n      slt\n        /* \"#utility.yul\":896:1015   */\n      iszero\n      tag_72\n      jumpi\n        /* \"#utility.yul\":934:1013   */\n      tag_73\n      tag_69\n      jump\t// in\n    tag_73:\n        /* \"#utility.yul\":896:1015   */\n    tag_72:\n        /* \"#utility.yul\":1054:1055   */\n      0x00\n        /* \"#utility.yul\":1079:1132   */\n      tag_74\n        /* \"#utility.yul\":1124:1131   */\n      dup6\n        /* \"#utility.yul\":1115:1121   */\n      dup3\n        /* \"#utility.yul\":1104:1113   */\n      dup7\n        /* \"#utility.yul\":1100:1122   */\n      add\n        /* \"#utility.yul\":1079:1132   */\n      tag_55\n      jump\t// in\n    tag_74:\n        /* \"#utility.yul\":1069:1132   */\n      swap3\n      pop\n        /* \"#utility.yul\":1025:1142   */\n      pop\n        /* \"#utility.yul\":1181:1183   */\n      0x20\n        /* \"#utility.yul\":1207:1260   */\n      tag_75\n        /* \"#utility.yul\":1252:1259   */\n      dup6\n        /* \"#utility.yul\":1243:1249   */\n      dup3\n        /* \"#utility.yul\":1232:1241   */\n      dup7\n        /* \"#utility.yul\":1228:1250   */\n      add\n        /* \"#utility.yul\":1207:1260   */\n      tag_62\n      jump\t// in\n    tag_75:\n        /* \"#utility.yul\":1197:1260   */\n      swap2\n      pop\n        /* \"#utility.yul\":1152:1270   */\n      pop\n        /* \"#utility.yul\":803:1277   */\n      swap3\n      pop\n      swap3\n      swap1\n      pop\n      jump\t// out\n        /* \"#utility.yul\":1283:1902   */\n    tag_23:\n        /* \"#utility.yul\":1360:1366   */\n      0x00\n        /* \"#utility.yul\":1368:1374   */\n      dup1\n        /* \"#utility.yul\":1376:1382   */\n      0x00\n        /* \"#utility.yul\":1425:1427   */\n      0x60\n        /* \"#utility.yul\":1413:1422   */\n      dup5\n        /* \"#utility.yul\":1404:1411   */\n      dup7\n        /* \"#utility.yul\":1400:1423   */\n      sub\n        /* \"#utility.yul\":1396:1428   */\n      slt\n        /* \"#utility.yul\":1393:1512   */\n      iszero\n      tag_77\n      jumpi\n        /* \"#utility.yul\":1431:1510   */\n      tag_78\n      tag_69\n      jump\t// in\n    tag_78:\n        /* \"#utility.yul\":1393:1512   */\n    tag_77:\n        /* \"#utility.yul\":1551:1552   */\n      0x00\n        /* \"#utility.yul\":1576:1629   */\n      tag_79\n        /* \"#utility.yul\":1621:1628   */\n      dup7\n        /* \"#utility.yul\":1612:1618   */\n      dup3\n        /* \"#utility.yul\":1601:1610   */\n      dup8\n        /* \"#utility.yul\":1597:1619   */\n      add\n        /* \"#utility.yul\":1576:1629   */\n      tag_55\n      jump\t// in\n    tag_79:\n        /* \"#utility.yul\":1566:1629   */\n      swap4\n      pop\n        /* \"#utility.yul\":1522:1639   */\n      pop\n        /* \"#utility.yul\":1678:1680   */\n      0x20\n        /* \"#utility.yul\":1704:1757   */\n      tag_80\n        /* \"#utility.yul\":1749:1756   */\n      dup7\n        /* \"#utility.yul\":1740:1746   */\n      dup3\n        /* \"#utility.yul\":1729:1738   */\n      dup8\n        /* \"#utility.yul\":1725:1747   */\n      add\n        /* \"#utility.yul\":1704:1757   */\n      tag_62\n      jump\t// in\n    tag_80:\n        /* \"#utility.yul\":1694:1757   */\n      swap3\n      pop\n        /* \"#utility.yul\":1649:1767   */\n      pop\n        /* \"#utility.yul\":1806:1808   */\n      0x40\n        /* \"#utility.yul\":1832:1885   */\n      tag_81\n        /* \"#utility.yul\":1877:1884   */\n      dup7\n        /* \"#utility.yul\":1868:1874   */\n      dup3\n        /* \"#utility.yul\":1857:1866   */\n      dup8\n        /* \"#utility.yul\":1853:1875   */\n      add\n        /* \"#utility.yul\":1832:1885   */\n      tag_55\n      jump\t// in\n    tag_81:\n        /* \"#utility.yul\":1822:1885   */\n      swap2\n      pop\n        /* \"#utility.yul\":1777:1895   */\n      pop\n        /* \"#utility.yul\":1283:1902   */\n      swap3\n      pop\n      swap3\n      pop\n      swap3\n      jump\t// out\n        /* \"#utility.yul\":1908:2026   */\n    tag_82:\n        /* \"#utility.yul\":1995:2019   */\n      tag_84\n        /* \"#utility.yul\":2013:2018   */\n      dup2\n        /* \"#utility.yul\":1995:2019   */\n      tag_85\n      jump\t// in\n    tag_84:\n        /* \"#utility.yul\":1990:1993   */\n      dup3\n        /* \"#utility.yul\":1983:2020   */\n      mstore\n        /* \"#utility.yul\":1908:2026   */\n      pop\n      pop\n      jump\t// out\n        /* \"#utility.yul\":2032:2141   */\n    tag_86:\n        /* \"#utility.yul\":2113:2134   */\n      tag_88\n        /* \"#utility.yul\":2128:2133   */\n      dup2\n        /* \"#utility.yul\":2113:2134   */\n      tag_89\n      jump\t// in\n    tag_88:\n        /* \"#utility.yul\":2108:2111   */\n      dup3\n        /* \"#utility.yul\":2101:2135   */\n      mstore\n        /* \"#utility.yul\":2032:2141   */\n      pop\n      pop\n      jump\t// out\n        /* \"#utility.yul\":2147:2513   */\n    tag_90:\n        /* \"#utility.yul\":2289:2292   */\n      0x00\n        /* \"#utility.yul\":2310:2377   */\n      tag_92\n        /* \"#utility.yul\":2374:2376   */\n      0x0d\n        /* \"#utility.yul\":2369:2372   */\n      dup4\n        /* \"#utility.yul\":2310:2377   */\n      tag_93\n      jump\t// in\n    tag_92:\n        /* \"#utility.yul\":2303:2377   */\n      swap2\n      pop\n        /* \"#utility.yul\":2386:2479   */\n      tag_94\n        /* \"#utility.yul\":2475:2478   */\n      dup3\n        /* \"#utility.yul\":2386:2479   */\n      tag_95\n      jump\t// in\n    tag_94:\n        /* \"#utility.yul\":2504:2506   */\n      0x20\n        /* \"#utility.yul\":2499:2502   */\n      dup3\n        /* \"#utility.yul\":2495:2507   */\n      add\n        /* \"#utility.yul\":2488:2507   */\n      swap1\n      pop\n        /* \"#utility.yul\":2147:2513   */\n      swap2\n      swap1\n      pop\n      jump\t// out\n        /* \"#utility.yul\":2519:2884   */\n    tag_96:\n        /* \"#utility.yul\":2661:2664   */\n      0x00\n        /* \"#utility.yul\":2682:2748   */\n      tag_98\n        /* \"#utility.yul\":2746:2747   */\n      0x09\n        /* \"#utility.yul\":2741:2744   */\n      dup4\n        /* \"#utility.yul\":2682:2748   */\n      tag_93\n      jump\t// in\n    tag_98:\n        /* \"#utility.yul\":2675:2748   */\n      swap2\n      pop\n        /* \"#utility.yul\":2757:2850   */\n      tag_99\n        /* \"#utility.yul\":2846:2849   */\n      dup3\n        /* \"#utility.yul\":2757:2850   */\n      tag_100\n      jump\t// in\n    tag_99:\n        /* \"#utility.yul\":2875:2877   */\n      0x20\n        /* \"#utility.yul\":2870:2873   */\n      dup3\n        /* \"#utility.yul\":2866:2878   */\n      add\n        /* \"#utility.yul\":2859:2878   */\n      swap1\n      pop\n        /* \"#utility.yul\":2519:2884   */\n      swap2\n      swap1\n      pop\n      jump\t// out\n        /* \"#utility.yul\":2890:3008   */\n    tag_101:\n        /* \"#utility.yul\":2977:3001   */\n      tag_103\n        /* \"#utility.yul\":2995:3000   */\n      dup2\n        /* \"#utility.yul\":2977:3001   */\n      tag_104\n      jump\t// in\n    tag_103:\n        /* \"#utility.yul\":2972:2975   */\n      dup3\n        /* \"#utility.yul\":2965:3002   */\n      mstore\n        /* \"#utility.yul\":2890:3008   */\n      pop\n      pop\n      jump\t// out\n        /* \"#utility.yul\":3014:3456   */\n    tag_49:\n        /* \"#utility.yul\":3163:3167   */\n      0x00\n        /* \"#utility.yul\":3201:3203   */\n      0x60\n        /* \"#utility.yul\":3190:3199   */\n      dup3\n        /* \"#utility.yul\":3186:3204   */\n      add\n        /* \"#utility.yul\":3178:3204   */\n      swap1\n      pop\n        /* \"#utility.yul\":3214:3285   */\n      tag_106\n        /* \"#utility.yul\":3282:3283   */\n      0x00\n        /* \"#utility.yul\":3271:3280   */\n      dup4\n        /* \"#utility.yul\":3267:3284   */\n      add\n        /* \"#utility.yul\":3258:3264   */\n      dup7\n        /* \"#utility.yul\":3214:3285   */\n      tag_82\n      jump\t// in\n    tag_106:\n        /* \"#utility.yul\":3295:3367   */\n      tag_107\n        /* \"#utility.yul\":3363:3365   */\n      0x20\n        /* \"#utility.yul\":3352:3361   */\n      dup4\n        /* \"#utility.yul\":3348:3366   */\n      add\n        /* \"#utility.yul\":3339:3345   */\n      dup6\n        /* \"#utility.yul\":3295:3367   */\n      tag_82\n      jump\t// in\n    tag_107:\n        /* \"#utility.yul\":3377:3449   */\n      tag_108\n        /* \"#utility.yul\":3445:3447   */\n      0x40\n        /* \"#utility.yul\":3434:3443   */\n      dup4\n        /* \"#utility.yul\":3430:3448   */\n      add\n        /* \"#utility.yul\":3421:3427   */\n      dup5\n        /* \"#utility.yul\":3377:3449   */\n      tag_101\n      jump\t// in\n    tag_108:\n        /* \"#utility.yul\":3014:3456   */\n      swap5\n      swap4\n      pop\n      pop\n      pop\n      pop\n      jump\t// out\n        /* \"#utility.yul\":3462:3672   */\n    tag_20:\n        /* \"#utility.yul\":3549:3553   */\n      0x00\n        /* \"#utility.yul\":3587:3589   */\n      0x20\n        /* \"#utility.yul\":3576:3585   */\n      dup3\n        /* \"#utility.yul\":3572:3590   */\n      add\n        /* \"#utility.yul\":3564:3590   */\n      swap1\n      pop\n        /* \"#utility.yul\":3600:3665   */\n      tag_110\n        /* \"#utility.yul\":3662:3663   */\n      0x00\n        /* \"#utility.yul\":3651:3660   */\n      dup4\n        /* \"#utility.yul\":3647:3664   */\n      add\n        /* \"#utility.yul\":3638:3644   */\n      dup5\n        /* \"#utility.yul\":3600:3665   */\n      tag_86\n      jump\t// in\n    tag_110:\n        /* \"#utility.yul\":3462:3672   */\n      swap3\n      swap2\n      pop\n      pop\n      jump\t// out\n        /* \"#utility.yul\":3678:4097   */\n    tag_40:\n        /* \"#utility.yul\":3844:3848   */\n      0x00\n        /* \"#utility.yul\":3882:3884   */\n      0x20\n        /* \"#utility.yul\":3871:3880   */\n      dup3\n        /* \"#utility.yul\":3867:3885   */\n      add\n        /* \"#utility.yul\":3859:3885   */\n      swap1\n      pop\n        /* \"#utility.yul\":3931:3940   */\n      dup2\n        /* \"#utility.yul\":3925:3929   */\n      dup2\n        /* \"#utility.yul\":3921:3941   */\n      sub\n        /* \"#utility.yul\":3917:3918   */\n      0x00\n        /* \"#utility.yul\":3906:3915   */\n      dup4\n        /* \"#utility.yul\":3902:3919   */\n      add\n        /* \"#utility.yul\":3895:3942   */\n      mstore\n        /* \"#utility.yul\":3959:4090   */\n      tag_112\n        /* \"#utility.yul\":4085:4089   */\n      dup2\n        /* \"#utility.yul\":3959:4090   */\n      tag_90\n      jump\t// in\n    tag_112:\n        /* \"#utility.yul\":3951:4090   */\n      swap1\n      pop\n        /* \"#utility.yul\":3678:4097   */\n      swap2\n      swap1\n      pop\n      jump\t// out\n        /* \"#utility.yul\":4103:4522   */\n    tag_43:\n        /* \"#utility.yul\":4269:4273   */\n      0x00\n        /* \"#utility.yul\":4307:4309   */\n      0x20\n        /* \"#utility.yul\":4296:4305   */\n      dup3\n        /* \"#utility.yul\":4292:4310   */\n      add\n        /* \"#utility.yul\":4284:4310   */\n      swap1\n      pop\n        /* \"#utility.yul\":4356:4365   */\n      dup2\n        /* \"#utility.yul\":4350:4354   */\n      dup2\n        /* \"#utility.yul\":4346:4366   */\n      sub\n        /* \"#utility.yul\":4342:4343   */\n      0x00\n        /* \"#utility.yul\":4331:4340   */\n      dup4\n        /* \"#utility.yul\":4327:4344   */\n      add\n        /* \"#utility.yul\":4320:4367   */\n      mstore\n        /* \"#utility.yul\":4384:4515   */\n      tag_114\n        /* \"#utility.yul\":4510:4514   */\n      dup2\n        /* \"#utility.yul\":4384:4515   */\n      tag_96\n      jump\t// in\n    tag_114:\n        /* \"#utility.yul\":4376:4515   */\n      swap1\n      pop\n        /* \"#utility.yul\":4103:4522   */\n      swap2\n      swap1\n      pop\n      jump\t// out\n        /* \"#utility.yul\":4528:4750   */\n    tag_14:\n        /* \"#utility.yul\":4621:4625   */\n      0x00\n        /* \"#utility.yul\":4659:4661   */\n      0x20\n        /* \"#utility.yul\":4648:4657   */\n      dup3\n        /* \"#utility.yul\":4644:4662   */\n      add\n        /* \"#utility.yul\":4636:4662   */\n      swap1\n      pop\n        /* \"#utility.yul\":4672:4743   */\n      tag_116\n        /* \"#utility.yul\":4740:4741   */\n      0x00\n        /* \"#utility.yul\":4729:4738   */\n      dup4\n        /* \"#utility.yul\":4725:4742   */\n      add\n        /* \"#utility.yul\":4716:4722   */\n      dup5\n        /* \"#utility.yul\":4672:4743   */\n      tag_101\n      jump\t// in\n    tag_116:\n        /* \"#utility.yul\":4528:4750   */\n      swap3\n      swap2\n      pop\n      pop\n      jump\t// out\n        /* \"#utility.yul\":4756:5076   */\n    tag_30:\n        /* \"#utility.yul\":4871:4875   */\n      0x00\n        /* \"#utility.yul\":4909:4911   */\n      0x40\n        /* \"#utility.yul\":4898:4907   */\n      dup3\n        /* \"#utility.yul\":4894:4912   */\n      add\n        /* \"#utility.yul\":4886:4912   */\n      swap1\n      pop\n        /* \"#utility.yul\":4922:4993   */\n      tag_118\n        /* \"#utility.yul\":4990:4991   */\n      0x00\n        /* \"#utility.yul\":4979:4988   */\n      dup4\n        /* \"#utility.yul\":4975:4992   */\n      add\n        /* \"#utility.yul\":4966:4972   */\n      dup6\n        /* \"#utility.yul\":4922:4993   */\n      tag_101\n      jump\t// in\n    tag_118:\n        /* \"#utility.yul\":5003:5069   */\n      tag_119\n        /* \"#utility.yul\":5065:5067   */\n      0x20\n        /* \"#utility.yul\":5054:5063   */\n      dup4\n        /* \"#utility.yul\":5050:5068   */\n      add\n        /* \"#utility.yul\":5041:5047   */\n      dup5\n        /* \"#utility.yul\":5003:5069   */\n      tag_86\n      jump\t// in\n    tag_119:\n        /* \"#utility.yul\":4756:5076   */\n      swap4\n      swap3\n      pop\n      pop\n      pop\n      jump\t// out\n        /* \"#utility.yul\":5163:5332   */\n    tag_93:\n        /* \"#utility.yul\":5247:5258   */\n      0x00\n        /* \"#utility.yul\":5281:5287   */\n      dup3\n        /* \"#utility.yul\":5276:5279   */\n      dup3\n        /* \"#utility.yul\":5269:5288   */\n      mstore\n        /* \"#utility.yul\":5321:5325   */\n      0x20\n        /* \"#utility.yul\":5316:5319   */\n      dup3\n        /* \"#utility.yul\":5312:5326   */\n      add\n        /* \"#utility.yul\":5297:5326   */\n      swap1\n      pop\n        /* \"#utility.yul\":5163:5332   */\n      swap3\n      swap2\n      pop\n      pop\n      jump\t// out\n        /* \"#utility.yul\":5338:5643   */\n    tag_28:\n        /* \"#utility.yul\":5378:5381   */\n      0x00\n        /* \"#utility.yul\":5397:5417   */\n      tag_124\n        /* \"#utility.yul\":5415:5416   */\n      dup3\n        /* \"#utility.yul\":5397:5417   */\n      tag_104\n      jump\t// in\n    tag_124:\n        /* \"#utility.yul\":5392:5417   */\n      swap2\n      pop\n        /* \"#utility.yul\":5431:5451   */\n      tag_125\n        /* \"#utility.yul\":5449:5450   */\n      dup4\n        /* \"#utility.yul\":5431:5451   */\n      tag_104\n      jump\t// in\n    tag_125:\n        /* \"#utility.yul\":5426:5451   */\n      swap3\n      pop\n        /* \"#utility.yul\":5585:5586   */\n      dup3\n        /* \"#utility.yul\":5517:5583   */\n      0xffffffffffffffffffffffffffffffffffffffffffffffffffffffffffffffff\n        /* \"#utility.yul\":5513:5587   */\n      sub\n        /* \"#utility.yul\":5510:5511   */\n      dup3\n        /* \"#utility.yul\":5507:5588   */\n      gt\n        /* \"#utility.yul\":5504:5611   */\n      iszero\n      tag_126\n      jumpi\n        /* \"#utility.yul\":5591:5609   */\n      tag_127\n      tag_128\n      jump\t// in\n    tag_127:\n        /* \"#utility.yul\":5504:5611   */\n    tag_126:\n        /* \"#utility.yul\":5635:5636   */\n      dup3\n        /* \"#utility.yul\":5632:5633   */\n      dup3\n        /* \"#utility.yul\":5628:5637   */\n      add\n        /* \"#utility.yul\":5621:5637   */\n      swap1\n      pop\n        /* \"#utility.yul\":5338:5643   */\n      swap3\n      swap2\n      pop\n      pop\n      jump\t// out\n        /* \"#utility.yul\":5649:5840   */\n    tag_47:\n        /* \"#utility.yul\":5689:5693   */\n      0x00\n        /* \"#utility.yul\":5709:5729   */\n      tag_130\n        /* \"#utility.yul\":5727:5728   */\n      dup3\n        /* \"#utility.yul\":5709:5729   */\n      tag_104\n      jump\t// in\n    tag_130:\n        /* \"#utility.yul\":5704:5729   */\n      swap2\n      pop\n        /* \"#utility.yul\":5743:5763   */\n      tag_131\n        /* \"#utility.yul\":5761:5762   */\n      dup4\n        /* \"#utility.yul\":5743:5763   */\n      tag_104\n      jump\t// in\n    tag_131:\n        /* \"#utility.yul\":5738:5763   */\n      swap3\n      pop\n        /* \"#utility.yul\":5782:5783   */\n      dup3\n        /* \"#utility.yul\":5779:5780   */\n      dup3\n        /* \"#utility.yul\":5776:5784   */\n      lt\n        /* \"#utility.yul\":5773:5807   */\n      iszero\n      tag_132\n      jumpi\n        /* \"#utility.yul\":5787:5805   */\n      tag_133\n      tag_128\n      jump\t// in\n    tag_133:\n        /* \"#utility.yul\":5773:5807   */\n    tag_132:\n        /* \"#utility.yul\":5832:5833   */\n      dup3\n        /* \"#utility.yul\":5829:5830   */\n      dup3\n        /* \"#utility.yul\":5825:5834   */\n      sub\n        /* \"#utility.yul\":5817:5834   */\n      swap1\n      pop\n        /* \"#utility.yul\":5649:5840   */\n      swap3\n      swap2\n      pop\n      pop\n      jump\t// out\n        /* \"#utility.yul\":5846:5942   */\n    tag_85:\n        /* \"#utility.yul\":5883:5890   */\n      0x00\n        /* \"#utility.yul\":5912:5936   */\n      tag_135\n        /* \"#utility.yul\":5930:5935   */\n      dup3\n        /* \"#utility.yul\":5912:5936   */\n      tag_136\n      jump\t// in\n    tag_135:\n        /* \"#utility.yul\":5901:5936   */\n      swap1\n      pop\n        /* \"#utility.yul\":5846:5942   */\n      swap2\n      swap1\n      pop\n      jump\t// out\n        /* \"#utility.yul\":5948:6038   */\n    tag_89:\n        /* \"#utility.yul\":5982:5989   */\n      0x00\n        /* \"#utility.yul\":6025:6030   */\n      dup2\n        /* \"#utility.yul\":6018:6031   */\n      iszero\n        /* \"#utility.yul\":6011:6032   */\n      iszero\n        /* \"#utility.yul\":6000:6032   */\n      swap1\n      pop\n        /* \"#utility.yul\":5948:6038   */\n      swap2\n      swap1\n      pop\n      jump\t// out\n        /* \"#utility.yul\":6044:6170   */\n    tag_136:\n        /* \"#utility.yul\":6081:6088   */\n      0x00\n        /* \"#utility.yul\":6121:6163   */\n      0xffffffffffffffffffffffffffffffffffffffff\n        /* \"#utility.yul\":6114:6119   */\n      dup3\n        /* \"#utility.yul\":6110:6164   */\n      and\n        /* \"#utility.yul\":6099:6164   */\n      swap1\n      pop\n        /* \"#utility.yul\":6044:6170   */\n      swap2\n      swap1\n      pop\n      jump\t// out\n        /* \"#utility.yul\":6176:6253   */\n    tag_104:\n        /* \"#utility.yul\":6213:6220   */\n      0x00\n        /* \"#utility.yul\":6242:6247   */\n      dup2\n        /* \"#utility.yul\":6231:6247   */\n      swap1\n      pop\n        /* \"#utility.yul\":6176:6253   */\n      swap2\n      swap1\n      pop\n      jump\t// out\n        /* \"#utility.yul\":6259:6439   */\n    tag_128:\n        /* \"#utility.yul\":6307:6384   */\n      0x4e487b7100000000000000000000000000000000000000000000000000000000\n        /* \"#utility.yul\":6304:6305   */\n      0x00\n        /* \"#utility.yul\":6297:6385   */\n      mstore\n        /* \"#utility.yul\":6404:6408   */\n      0x11\n        /* \"#utility.yul\":6401:6402   */\n      0x04\n        /* \"#utility.yul\":6394:6409   */\n      mstore\n        /* \"#utility.yul\":6428:6432   */\n      0x24\n        /* \"#utility.yul\":6425:6426   */\n      0x00\n        /* \"#utility.yul\":6418:6433   */\n      revert\n        /* \"#utility.yul\":6568:6685   */\n    tag_69:\n        /* \"#utility.yul\":6677:6678   */\n      0x00\n        /* \"#utility.yul\":6674:6675   */\n      dup1\n        /* \"#utility.yul\":6667:6679   */\n      revert\n        /* \"#utility.yul\":6691:6854   */\n    tag_95:\n        /* \"#utility.yul\":6831:6846   */\n      0x556e617574686f72697a65642e00000000000000000000000000000000000000\n        /* \"#utility.yul\":6827:6828   */\n      0x00\n        /* \"#utility.yul\":6819:6825   */\n      dup3\n        /* \"#utility.yul\":6815:6829   */\n      add\n        /* \"#utility.yul\":6808:6847   */\n      mstore\n        /* \"#utility.yul\":6691:6854   */\n      pop\n      jump\t// out\n        /* \"#utility.yul\":6860:7019   */\n    tag_100:\n        /* \"#utility.yul\":7000:7011   */\n      0x4e6f206f666665722e0000000000000000000000000000000000000000000000\n        /* \"#utility.yul\":6996:6997   */\n      0x00\n        /* \"#utility.yul\":6988:6994   */\n      dup3\n        /* \"#utility.yul\":6984:6998   */\n      add\n        /* \"#utility.yul\":6977:7012   */\n      mstore\n        /* \"#utility.yul\":6860:7019   */\n      pop\n      jump\t// out\n        /* \"#utility.yul\":7025:7147   */\n    tag_58:\n        /* \"#utility.yul\":7098:7122   */\n      tag_147\n        /* \"#utility.yul\":7116:7121   */\n      dup2\n        /* \"#utility.yul\":7098:7122   */\n      tag_85\n      jump\t// in\n    tag_147:\n        /* \"#utility.yul\":7091:7096   */\n      dup2\n        /* \"#utility.yul\":7088:7123   */\n      eq\n        /* \"#utility.yul\":7078:7141   */\n      tag_148\n      jumpi\n        /* \"#utility.yul\":7137:7138   */\n      0x00\n        /* \"#utility.yul\":7134:7135   */\n      dup1\n        /* \"#utility.yul\":7127:7139   */\n      revert\n        /* \"#utility.yul\":7078:7141   */\n    tag_148:\n        /* \"#utility.yul\":7025:7147   */\n      pop\n      jump\t// out\n        /* \"#utility.yul\":7153:7275   */\n    tag_65:\n        /* \"#utility.yul\":7226:7250   */\n      tag_150\n        /* \"#utility.yul\":7244:7249   */\n      dup2\n        /* \"#utility.yul\":7226:7250   */\n      tag_104\n      jump\t// in\n    tag_150:\n        /* \"#utility.yul\":7219:7224   */\n      dup2\n        /* \"#utility.yul\":7216:7251   */\n      eq\n        /* \"#utility.yul\":7206:7269   */\n      tag_151\n      jumpi\n        /* \"#utility.yul\":7265:7266   */\n      0x00\n        /* \"#utility.yul\":7262:7263   */\n      dup1\n        /* \"#utility.yul\":7255:7267   */\n      revert\n        /* \"#utility.yul\":7206:7269   */\n    tag_151:\n        /* \"#utility.yul\":7153:7275   */\n      pop\n      jump\t// out\n\n    auxdata: 0xa264697066735822122032362d1e43ebc1517e2e6f8adece68ba4cabaa5c4374ca19a946814f54c802fa64736f6c63430008070033\n}\n",
				"bytecode": {
					"linkReferences": {},
					"object": "608060405234801561001057600080fd5b50610a44806100206000396000f3fe60806040526004361061003f5760003560e01c80636b212960146100445780637bb98a6814610060578063aa1a84111461008b578063abd51552146100c8575b600080fd5b61005e6004803603810190610059919061069b565b6100e4565b005b34801561006c57600080fd5b50610075610286565b6040516100829190610833565b60405180910390f35b34801561009757600080fd5b506100b260048036038101906100ad919061069b565b61028c565b6040516100bf91906107d8565b60405180910390f35b6100e260048036038101906100dd91906106db565b6102c4565b005b60008060008473ffffffffffffffffffffffffffffffffffffffff1673ffffffffffffffffffffffffffffffffffffffff1681526020019081526020016000206000838152602001908152602001600020905080600001339080600181540180825580915050600190039060005260206000200160009091909190916101000a81548173ffffffffffffffffffffffffffffffffffffffff021916908373ffffffffffffffffffffffffffffffffffffffff160217905550348160010160003373ffffffffffffffffffffffffffffffffffffffff1673ffffffffffffffffffffffffffffffffffffffff1681526020019081526020016000208190555060018160020160006101000a81548160ff02191690831515021790555034600160008282546102119190610888565b925050819055503373ffffffffffffffffffffffffffffffffffffffff16828473ffffffffffffffffffffffffffffffffffffffff167fa297a5039e151f85fd39b734d57194f31bf1ba744464810f8fa18941216c79b034600160405161027992919061084e565b60405180910390a4505050565b60015481565b6000602052816000526040600020602052806000526040600020600091509150508060020160009054906101000a900460ff16905081565b60008060008573ffffffffffffffffffffffffffffffffffffffff1673ffffffffffffffffffffffffffffffffffffffff1681526020019081526020016000206000848152602001908152602001600020905060008490503373ffffffffffffffffffffffffffffffffffffffff168173ffffffffffffffffffffffffffffffffffffffff16636352211e866040518263ffffffff1660e01b815260040161036c9190610833565b60206040518083038186803b15801561038457600080fd5b505afa158015610398573d6000803e3d6000fd5b505050506040513d601f19601f820116820180604052508101906103bc919061066e565b73ffffffffffffffffffffffffffffffffffffffff1614610412576040517f08c379a0000000000000000000000000000000000000000000000000000000008152600401610409906107f3565b60405180910390fd5b600115158260020160009054906101000a900460ff1615151461046a576040517f08c379a000000000000000000000000000000000000000000000000000000000815260040161046190610813565b60405180910390fd5b3373ffffffffffffffffffffffffffffffffffffffff166108fc8360010160008673ffffffffffffffffffffffffffffffffffffffff1673ffffffffffffffffffffffffffffffffffffffff168152602001908152602001600020549081150290604051600060405180830381858888f193505050501580156104f1573d6000803e3d6000fd5b508160010160008473ffffffffffffffffffffffffffffffffffffffff1673ffffffffffffffffffffffffffffffffffffffff168152602001908152602001600020546001600082825461054591906108de565b9250508190555060008260020160006101000a81548160ff0219169083151502179055508073ffffffffffffffffffffffffffffffffffffffff166323b872dd3385876040518463ffffffff1660e01b81526004016105a6939291906107a1565b600060405180830381600087803b1580156105c057600080fd5b505af11580156105d4573d6000803e3d6000fd5b50505050838573ffffffffffffffffffffffffffffffffffffffff167f9663db6e9b1f015a82beb1b03ec8fed9d1a25b5da31b2cc92c2be9e8c629a80d600060405161062091906107d8565b60405180910390a35050505050565b60008135905061063e816109e0565b92915050565b600081519050610653816109e0565b92915050565b600081359050610668816109f7565b92915050565b60006020828403121561068457610683610989565b5b600061069284828501610644565b91505092915050565b600080604083850312156106b2576106b1610989565b5b60006106c08582860161062f565b92505060206106d185828601610659565b9150509250929050565b6000806000606084860312156106f4576106f3610989565b5b60006107028682870161062f565b935050602061071386828701610659565b92505060406107248682870161062f565b9150509250925092565b61073781610912565b82525050565b61074681610924565b82525050565b6000610759600d83610877565b91506107648261098e565b602082019050919050565b600061077c600983610877565b9150610787826109b7565b602082019050919050565b61079b81610950565b82525050565b60006060820190506107b6600083018661072e565b6107c3602083018561072e565b6107d06040830184610792565b949350505050565b60006020820190506107ed600083018461073d565b92915050565b6000602082019050818103600083015261080c8161074c565b9050919050565b6000602082019050818103600083015261082c8161076f565b9050919050565b60006020820190506108486000830184610792565b92915050565b60006040820190506108636000830185610792565b610870602083018461073d565b9392505050565b600082825260208201905092915050565b600061089382610950565b915061089e83610950565b9250827fffffffffffffffffffffffffffffffffffffffffffffffffffffffffffffffff038211156108d3576108d261095a565b5b828201905092915050565b60006108e982610950565b91506108f483610950565b9250828210156109075761090661095a565b5b828203905092915050565b600061091d82610930565b9050919050565b60008115159050919050565b600073ffffffffffffffffffffffffffffffffffffffff82169050919050565b6000819050919050565b7f4e487b7100000000000000000000000000000000000000000000000000000000600052601160045260246000fd5b600080fd5b7f556e617574686f72697a65642e00000000000000000000000000000000000000600082015250565b7f4e6f206f666665722e0000000000000000000000000000000000000000000000600082015250565b6109e981610912565b81146109f457600080fd5b50565b610a0081610950565b8114610a0b57600080fd5b5056fea264697066735822122032362d1e43ebc1517e2e6f8adece68ba4cabaa5c4374ca19a946814f54c802fa64736f6c63430008070033",
					"opcodes": "PUSH1 0x80 PUSH1 0x40 MSTORE CALLVALUE DUP1 ISZERO PUSH2 0x10 JUMPI PUSH1 0x0 DUP1 REVERT JUMPDEST POP PUSH2 0xA44 DUP1 PUSH2 0x20 PUSH1 0x0 CODECOPY PUSH1 0x0 RETURN INVALID PUSH1 0x80 PUSH1 0x40 MSTORE PUSH1 0x4 CALLDATASIZE LT PUSH2 0x3F JUMPI PUSH1 0x0 CALLDATALOAD PUSH1 0xE0 SHR DUP1 PUSH4 0x6B212960 EQ PUSH2 0x44 JUMPI DUP1 PUSH4 0x7BB98A68 EQ PUSH2 0x60 JUMPI DUP1 PUSH4 0xAA1A8411 EQ PUSH2 0x8B JUMPI DUP1 PUSH4 0xABD51552 EQ PUSH2 0xC8 JUMPI JUMPDEST PUSH1 0x0 DUP1 REVERT JUMPDEST PUSH2 0x5E PUSH1 0x4 DUP1 CALLDATASIZE SUB DUP2 ADD SWAP1 PUSH2 0x59 SWAP2 SWAP1 PUSH2 0x69B JUMP JUMPDEST PUSH2 0xE4 JUMP JUMPDEST STOP JUMPDEST CALLVALUE DUP1 ISZERO PUSH2 0x6C JUMPI PUSH1 0x0 DUP1 REVERT JUMPDEST POP PUSH2 0x75 PUSH2 0x286 JUMP JUMPDEST PUSH1 0x40 MLOAD PUSH2 0x82 SWAP2 SWAP1 PUSH2 0x833 JUMP JUMPDEST PUSH1 0x40 MLOAD DUP1 SWAP2 SUB SWAP1 RETURN JUMPDEST CALLVALUE DUP1 ISZERO PUSH2 0x97 JUMPI PUSH1 0x0 DUP1 REVERT JUMPDEST POP PUSH2 0xB2 PUSH1 0x4 DUP1 CALLDATASIZE SUB DUP2 ADD SWAP1 PUSH2 0xAD SWAP2 SWAP1 PUSH2 0x69B JUMP JUMPDEST PUSH2 0x28C JUMP JUMPDEST PUSH1 0x40 MLOAD PUSH2 0xBF SWAP2 SWAP1 PUSH2 0x7D8 JUMP JUMPDEST PUSH1 0x40 MLOAD DUP1 SWAP2 SUB SWAP1 RETURN JUMPDEST PUSH2 0xE2 PUSH1 0x4 DUP1 CALLDATASIZE SUB DUP2 ADD SWAP1 PUSH2 0xDD SWAP2 SWAP1 PUSH2 0x6DB JUMP JUMPDEST PUSH2 0x2C4 JUMP JUMPDEST STOP JUMPDEST PUSH1 0x0 DUP1 PUSH1 0x0 DUP5 PUSH20 0xFFFFFFFFFFFFFFFFFFFFFFFFFFFFFFFFFFFFFFFF AND PUSH20 0xFFFFFFFFFFFFFFFFFFFFFFFFFFFFFFFFFFFFFFFF AND DUP2 MSTORE PUSH1 0x20 ADD SWAP1 DUP2 MSTORE PUSH1 0x20 ADD PUSH1 0x0 KECCAK256 PUSH1 0x0 DUP4 DUP2 MSTORE PUSH1 0x20 ADD SWAP1 DUP2 MSTORE PUSH1 0x20 ADD PUSH1 0x0 KECCAK256 SWAP1 POP DUP1 PUSH1 0x0 ADD CALLER SWAP1 DUP1 PUSH1 0x1 DUP2 SLOAD ADD DUP1 DUP3 SSTORE DUP1 SWAP2 POP POP PUSH1 0x1 SWAP1 SUB SWAP1 PUSH1 0x0 MSTORE PUSH1 0x20 PUSH1 0x0 KECCAK256 ADD PUSH1 0x0 SWAP1 SWAP2 SWAP1 SWAP2 SWAP1 SWAP2 PUSH2 0x100 EXP DUP2 SLOAD DUP2 PUSH20 0xFFFFFFFFFFFFFFFFFFFFFFFFFFFFFFFFFFFFFFFF MUL NOT AND SWAP1 DUP4 PUSH20 0xFFFFFFFFFFFFFFFFFFFFFFFFFFFFFFFFFFFFFFFF AND MUL OR SWAP1 SSTORE POP CALLVALUE DUP2 PUSH1 0x1 ADD PUSH1 0x0 CALLER PUSH20 0xFFFFFFFFFFFFFFFFFFFFFFFFFFFFFFFFFFFFFFFF AND PUSH20 0xFFFFFFFFFFFFFFFFFFFFFFFFFFFFFFFFFFFFFFFF AND DUP2 MSTORE PUSH1 0x20 ADD SWAP1 DUP2 MSTORE PUSH1 0x20 ADD PUSH1 0x0 KECCAK256 DUP2 SWAP1 SSTORE POP PUSH1 0x1 DUP2 PUSH1 0x2 ADD PUSH1 0x0 PUSH2 0x100 EXP DUP2 SLOAD DUP2 PUSH1 0xFF MUL NOT AND SWAP1 DUP4 ISZERO ISZERO MUL OR SWAP1 SSTORE POP CALLVALUE PUSH1 0x1 PUSH1 0x0 DUP3 DUP3 SLOAD PUSH2 0x211 SWAP2 SWAP1 PUSH2 0x888 JUMP JUMPDEST SWAP3 POP POP DUP2 SWAP1 SSTORE POP CALLER PUSH20 0xFFFFFFFFFFFFFFFFFFFFFFFFFFFFFFFFFFFFFFFF AND DUP3 DUP5 PUSH20 0xFFFFFFFFFFFFFFFFFFFFFFFFFFFFFFFFFFFFFFFF AND PUSH32 0xA297A5039E151F85FD39B734D57194F31BF1BA744464810F8FA18941216C79B0 CALLVALUE PUSH1 0x1 PUSH1 0x40 MLOAD PUSH2 0x279 SWAP3 SWAP2 SWAP1 PUSH2 0x84E JUMP JUMPDEST PUSH1 0x40 MLOAD DUP1 SWAP2 SUB SWAP1 LOG4 POP POP POP JUMP JUMPDEST PUSH1 0x1 SLOAD DUP2 JUMP JUMPDEST PUSH1 0x0 PUSH1 0x20 MSTORE DUP2 PUSH1 0x0 MSTORE PUSH1 0x40 PUSH1 0x0 KECCAK256 PUSH1 0x20 MSTORE DUP1 PUSH1 0x0 MSTORE PUSH1 0x40 PUSH1 0x0 KECCAK256 PUSH1 0x0 SWAP2 POP SWAP2 POP POP DUP1 PUSH1 0x2 ADD PUSH1 0x0 SWAP1 SLOAD SWAP1 PUSH2 0x100 EXP SWAP1 DIV PUSH1 0xFF AND SWAP1 POP DUP2 JUMP JUMPDEST PUSH1 0x0 DUP1 PUSH1 0x0 DUP6 PUSH20 0xFFFFFFFFFFFFFFFFFFFFFFFFFFFFFFFFFFFFFFFF AND PUSH20 0xFFFFFFFFFFFFFFFFFFFFFFFFFFFFFFFFFFFFFFFF AND DUP2 MSTORE PUSH1 0x20 ADD SWAP1 DUP2 MSTORE PUSH1 0x20 ADD PUSH1 0x0 KECCAK256 PUSH1 0x0 DUP5 DUP2 MSTORE PUSH1 0x20 ADD SWAP1 DUP2 MSTORE PUSH1 0x20 ADD PUSH1 0x0 KECCAK256 SWAP1 POP PUSH1 0x0 DUP5 SWAP1 POP CALLER PUSH20 0xFFFFFFFFFFFFFFFFFFFFFFFFFFFFFFFFFFFFFFFF AND DUP2 PUSH20 0xFFFFFFFFFFFFFFFFFFFFFFFFFFFFFFFFFFFFFFFF AND PUSH4 0x6352211E DUP7 PUSH1 0x40 MLOAD DUP3 PUSH4 0xFFFFFFFF AND PUSH1 0xE0 SHL DUP2 MSTORE PUSH1 0x4 ADD PUSH2 0x36C SWAP2 SWAP1 PUSH2 0x833 JUMP JUMPDEST PUSH1 0x20 PUSH1 0x40 MLOAD DUP1 DUP4 SUB DUP2 DUP7 DUP1 EXTCODESIZE ISZERO DUP1 ISZERO PUSH2 0x384 JUMPI PUSH1 0x0 DUP1 REVERT JUMPDEST POP GAS STATICCALL ISZERO DUP1 ISZERO PUSH2 0x398 JUMPI RETURNDATASIZE PUSH1 0x0 DUP1 RETURNDATACOPY RETURNDATASIZE PUSH1 0x0 REVERT JUMPDEST POP POP POP POP PUSH1 0x40 MLOAD RETURNDATASIZE PUSH1 0x1F NOT PUSH1 0x1F DUP3 ADD AND DUP3 ADD DUP1 PUSH1 0x40 MSTORE POP DUP2 ADD SWAP1 PUSH2 0x3BC SWAP2 SWAP1 PUSH2 0x66E JUMP JUMPDEST PUSH20 0xFFFFFFFFFFFFFFFFFFFFFFFFFFFFFFFFFFFFFFFF AND EQ PUSH2 0x412 JUMPI PUSH1 0x40 MLOAD PUSH32 0x8C379A000000000000000000000000000000000000000000000000000000000 DUP2 MSTORE PUSH1 0x4 ADD PUSH2 0x409 SWAP1 PUSH2 0x7F3 JUMP JUMPDEST PUSH1 0x40 MLOAD DUP1 SWAP2 SUB SWAP1 REVERT JUMPDEST PUSH1 0x1 ISZERO ISZERO DUP3 PUSH1 0x2 ADD PUSH1 0x0 SWAP1 SLOAD SWAP1 PUSH2 0x100 EXP SWAP1 DIV PUSH1 0xFF AND ISZERO ISZERO EQ PUSH2 0x46A JUMPI PUSH1 0x40 MLOAD PUSH32 0x8C379A000000000000000000000000000000000000000000000000000000000 DUP2 MSTORE PUSH1 0x4 ADD PUSH2 0x461 SWAP1 PUSH2 0x813 JUMP JUMPDEST PUSH1 0x40 MLOAD DUP1 SWAP2 SUB SWAP1 REVERT JUMPDEST CALLER PUSH20 0xFFFFFFFFFFFFFFFFFFFFFFFFFFFFFFFFFFFFFFFF AND PUSH2 0x8FC DUP4 PUSH1 0x1 ADD PUSH1 0x0 DUP7 PUSH20 0xFFFFFFFFFFFFFFFFFFFFFFFFFFFFFFFFFFFFFFFF AND PUSH20 0xFFFFFFFFFFFFFFFFFFFFFFFFFFFFFFFFFFFFFFFF AND DUP2 MSTORE PUSH1 0x20 ADD SWAP1 DUP2 MSTORE PUSH1 0x20 ADD PUSH1 0x0 KECCAK256 SLOAD SWAP1 DUP2 ISZERO MUL SWAP1 PUSH1 0x40 MLOAD PUSH1 0x0 PUSH1 0x40 MLOAD DUP1 DUP4 SUB DUP2 DUP6 DUP9 DUP9 CALL SWAP4 POP POP POP POP ISZERO DUP1 ISZERO PUSH2 0x4F1 JUMPI RETURNDATASIZE PUSH1 0x0 DUP1 RETURNDATACOPY RETURNDATASIZE PUSH1 0x0 REVERT JUMPDEST POP DUP2 PUSH1 0x1 ADD PUSH1 0x0 DUP5 PUSH20 0xFFFFFFFFFFFFFFFFFFFFFFFFFFFFFFFFFFFFFFFF AND PUSH20 0xFFFFFFFFFFFFFFFFFFFFFFFFFFFFFFFFFFFFFFFF AND DUP2 MSTORE PUSH1 0x20 ADD SWAP1 DUP2 MSTORE PUSH1 0x20 ADD PUSH1 0x0 KECCAK256 SLOAD PUSH1 0x1 PUSH1 0x0 DUP3 DUP3 SLOAD PUSH2 0x545 SWAP2 SWAP1 PUSH2 0x8DE JUMP JUMPDEST SWAP3 POP POP DUP2 SWAP1 SSTORE POP PUSH1 0x0 DUP3 PUSH1 0x2 ADD PUSH1 0x0 PUSH2 0x100 EXP DUP2 SLOAD DUP2 PUSH1 0xFF MUL NOT AND SWAP1 DUP4 ISZERO ISZERO MUL OR SWAP1 SSTORE POP DUP1 PUSH20 0xFFFFFFFFFFFFFFFFFFFFFFFFFFFFFFFFFFFFFFFF AND PUSH4 0x23B872DD CALLER DUP6 DUP8 PUSH1 0x40 MLOAD DUP5 PUSH4 0xFFFFFFFF AND PUSH1 0xE0 SHL DUP2 MSTORE PUSH1 0x4 ADD PUSH2 0x5A6 SWAP4 SWAP3 SWAP2 SWAP1 PUSH2 0x7A1 JUMP JUMPDEST PUSH1 0x0 PUSH1 0x40 MLOAD DUP1 DUP4 SUB DUP2 PUSH1 0x0 DUP8 DUP1 EXTCODESIZE ISZERO DUP1 ISZERO PUSH2 0x5C0 JUMPI PUSH1 0x0 DUP1 REVERT JUMPDEST POP GAS CALL ISZERO DUP1 ISZERO PUSH2 0x5D4 JUMPI RETURNDATASIZE PUSH1 0x0 DUP1 RETURNDATACOPY RETURNDATASIZE PUSH1 0x0 REVERT JUMPDEST POP POP POP POP DUP4 DUP6 PUSH20 0xFFFFFFFFFFFFFFFFFFFFFFFFFFFFFFFFFFFFFFFF AND PUSH32 0x9663DB6E9B1F015A82BEB1B03EC8FED9D1A25B5DA31B2CC92C2BE9E8C629A80D PUSH1 0x0 PUSH1 0x40 MLOAD PUSH2 0x620 SWAP2 SWAP1 PUSH2 0x7D8 JUMP JUMPDEST PUSH1 0x40 MLOAD DUP1 SWAP2 SUB SWAP1 LOG3 POP POP POP POP POP JUMP JUMPDEST PUSH1 0x0 DUP2 CALLDATALOAD SWAP1 POP PUSH2 0x63E DUP2 PUSH2 0x9E0 JUMP JUMPDEST SWAP3 SWAP2 POP POP JUMP JUMPDEST PUSH1 0x0 DUP2 MLOAD SWAP1 POP PUSH2 0x653 DUP2 PUSH2 0x9E0 JUMP JUMPDEST SWAP3 SWAP2 POP POP JUMP JUMPDEST PUSH1 0x0 DUP2 CALLDATALOAD SWAP1 POP PUSH2 0x668 DUP2 PUSH2 0x9F7 JUMP JUMPDEST SWAP3 SWAP2 POP POP JUMP JUMPDEST PUSH1 0x0 PUSH1 0x20 DUP3 DUP5 SUB SLT ISZERO PUSH2 0x684 JUMPI PUSH2 0x683 PUSH2 0x989 JUMP JUMPDEST JUMPDEST PUSH1 0x0 PUSH2 0x692 DUP5 DUP3 DUP6 ADD PUSH2 0x644 JUMP JUMPDEST SWAP2 POP POP SWAP3 SWAP2 POP POP JUMP JUMPDEST PUSH1 0x0 DUP1 PUSH1 0x40 DUP4 DUP6 SUB SLT ISZERO PUSH2 0x6B2 JUMPI PUSH2 0x6B1 PUSH2 0x989 JUMP JUMPDEST JUMPDEST PUSH1 0x0 PUSH2 0x6C0 DUP6 DUP3 DUP7 ADD PUSH2 0x62F JUMP JUMPDEST SWAP3 POP POP PUSH1 0x20 PUSH2 0x6D1 DUP6 DUP3 DUP7 ADD PUSH2 0x659 JUMP JUMPDEST SWAP2 POP POP SWAP3 POP SWAP3 SWAP1 POP JUMP JUMPDEST PUSH1 0x0 DUP1 PUSH1 0x0 PUSH1 0x60 DUP5 DUP7 SUB SLT ISZERO PUSH2 0x6F4 JUMPI PUSH2 0x6F3 PUSH2 0x989 JUMP JUMPDEST JUMPDEST PUSH1 0x0 PUSH2 0x702 DUP7 DUP3 DUP8 ADD PUSH2 0x62F JUMP JUMPDEST SWAP4 POP POP PUSH1 0x20 PUSH2 0x713 DUP7 DUP3 DUP8 ADD PUSH2 0x659 JUMP JUMPDEST SWAP3 POP POP PUSH1 0x40 PUSH2 0x724 DUP7 DUP3 DUP8 ADD PUSH2 0x62F JUMP JUMPDEST SWAP2 POP POP SWAP3 POP SWAP3 POP SWAP3 JUMP JUMPDEST PUSH2 0x737 DUP2 PUSH2 0x912 JUMP JUMPDEST DUP3 MSTORE POP POP JUMP JUMPDEST PUSH2 0x746 DUP2 PUSH2 0x924 JUMP JUMPDEST DUP3 MSTORE POP POP JUMP JUMPDEST PUSH1 0x0 PUSH2 0x759 PUSH1 0xD DUP4 PUSH2 0x877 JUMP JUMPDEST SWAP2 POP PUSH2 0x764 DUP3 PUSH2 0x98E JUMP JUMPDEST PUSH1 0x20 DUP3 ADD SWAP1 POP SWAP2 SWAP1 POP JUMP JUMPDEST PUSH1 0x0 PUSH2 0x77C PUSH1 0x9 DUP4 PUSH2 0x877 JUMP JUMPDEST SWAP2 POP PUSH2 0x787 DUP3 PUSH2 0x9B7 JUMP JUMPDEST PUSH1 0x20 DUP3 ADD SWAP1 POP SWAP2 SWAP1 POP JUMP JUMPDEST PUSH2 0x79B DUP2 PUSH2 0x950 JUMP JUMPDEST DUP3 MSTORE POP POP JUMP JUMPDEST PUSH1 0x0 PUSH1 0x60 DUP3 ADD SWAP1 POP PUSH2 0x7B6 PUSH1 0x0 DUP4 ADD DUP7 PUSH2 0x72E JUMP JUMPDEST PUSH2 0x7C3 PUSH1 0x20 DUP4 ADD DUP6 PUSH2 0x72E JUMP JUMPDEST PUSH2 0x7D0 PUSH1 0x40 DUP4 ADD DUP5 PUSH2 0x792 JUMP JUMPDEST SWAP5 SWAP4 POP POP POP POP JUMP JUMPDEST PUSH1 0x0 PUSH1 0x20 DUP3 ADD SWAP1 POP PUSH2 0x7ED PUSH1 0x0 DUP4 ADD DUP5 PUSH2 0x73D JUMP JUMPDEST SWAP3 SWAP2 POP POP JUMP JUMPDEST PUSH1 0x0 PUSH1 0x20 DUP3 ADD SWAP1 POP DUP2 DUP2 SUB PUSH1 0x0 DUP4 ADD MSTORE PUSH2 0x80C DUP2 PUSH2 0x74C JUMP JUMPDEST SWAP1 POP SWAP2 SWAP1 POP JUMP JUMPDEST PUSH1 0x0 PUSH1 0x20 DUP3 ADD SWAP1 POP DUP2 DUP2 SUB PUSH1 0x0 DUP4 ADD MSTORE PUSH2 0x82C DUP2 PUSH2 0x76F JUMP JUMPDEST SWAP1 POP SWAP2 SWAP1 POP JUMP JUMPDEST PUSH1 0x0 PUSH1 0x20 DUP3 ADD SWAP1 POP PUSH2 0x848 PUSH1 0x0 DUP4 ADD DUP5 PUSH2 0x792 JUMP JUMPDEST SWAP3 SWAP2 POP POP JUMP JUMPDEST PUSH1 0x0 PUSH1 0x40 DUP3 ADD SWAP1 POP PUSH2 0x863 PUSH1 0x0 DUP4 ADD DUP6 PUSH2 0x792 JUMP JUMPDEST PUSH2 0x870 PUSH1 0x20 DUP4 ADD DUP5 PUSH2 0x73D JUMP JUMPDEST SWAP4 SWAP3 POP POP POP JUMP JUMPDEST PUSH1 0x0 DUP3 DUP3 MSTORE PUSH1 0x20 DUP3 ADD SWAP1 POP SWAP3 SWAP2 POP POP JUMP JUMPDEST PUSH1 0x0 PUSH2 0x893 DUP3 PUSH2 0x950 JUMP JUMPDEST SWAP2 POP PUSH2 0x89E DUP4 PUSH2 0x950 JUMP JUMPDEST SWAP3 POP DUP3 PUSH32 0xFFFFFFFFFFFFFFFFFFFFFFFFFFFFFFFFFFFFFFFFFFFFFFFFFFFFFFFFFFFFFFFF SUB DUP3 GT ISZERO PUSH2 0x8D3 JUMPI PUSH2 0x8D2 PUSH2 0x95A JUMP JUMPDEST JUMPDEST DUP3 DUP3 ADD SWAP1 POP SWAP3 SWAP2 POP POP JUMP JUMPDEST PUSH1 0x0 PUSH2 0x8E9 DUP3 PUSH2 0x950 JUMP JUMPDEST SWAP2 POP PUSH2 0x8F4 DUP4 PUSH2 0x950 JUMP JUMPDEST SWAP3 POP DUP3 DUP3 LT ISZERO PUSH2 0x907 JUMPI PUSH2 0x906 PUSH2 0x95A JUMP JUMPDEST JUMPDEST DUP3 DUP3 SUB SWAP1 POP SWAP3 SWAP2 POP POP JUMP JUMPDEST PUSH1 0x0 PUSH2 0x91D DUP3 PUSH2 0x930 JUMP JUMPDEST SWAP1 POP SWAP2 SWAP1 POP JUMP JUMPDEST PUSH1 0x0 DUP2 ISZERO ISZERO SWAP1 POP SWAP2 SWAP1 POP JUMP JUMPDEST PUSH1 0x0 PUSH20 0xFFFFFFFFFFFFFFFFFFFFFFFFFFFFFFFFFFFFFFFF DUP3 AND SWAP1 POP SWAP2 SWAP1 POP JUMP JUMPDEST PUSH1 0x0 DUP2 SWAP1 POP SWAP2 SWAP1 POP JUMP JUMPDEST PUSH32 0x4E487B7100000000000000000000000000000000000000000000000000000000 PUSH1 0x0 MSTORE PUSH1 0x11 PUSH1 0x4 MSTORE PUSH1 0x24 PUSH1 0x0 REVERT JUMPDEST PUSH1 0x0 DUP1 REVERT JUMPDEST PUSH32 0x556E617574686F72697A65642E00000000000000000000000000000000000000 PUSH1 0x0 DUP3 ADD MSTORE POP JUMP JUMPDEST PUSH32 0x4E6F206F666665722E0000000000000000000000000000000000000000000000 PUSH1 0x0 DUP3 ADD MSTORE POP JUMP JUMPDEST PUSH2 0x9E9 DUP2 PUSH2 0x912 JUMP JUMPDEST DUP2 EQ PUSH2 0x9F4 JUMPI PUSH1 0x0 DUP1 REVERT JUMPDEST POP JUMP JUMPDEST PUSH2 0xA00 DUP2 PUSH2 0x950 JUMP JUMPDEST DUP2 EQ PUSH2 0xA0B JUMPI PUSH1 0x0 DUP1 REVERT JUMPDEST POP JUMP INVALID LOG2 PUSH5 0x6970667358 0x22 SLT KECCAK256 ORIGIN CALLDATASIZE 0x2D 0x1E NUMBER 0xEB 0xC1 MLOAD PUSH31 0x2E6F8ADECE68BA4CABAA5C4374CA19A946814F54C802FA64736F6C63430008 SMOD STOP CALLER "
				},
				"gasEstimates": {
					"creation": {
						"codeDepositCost": "525600",
						"executionCost": "562",
						"totalCost": "526162"
					},
					"external": {
						"balances()": "2429",
						"offer(address,uint256)": "infinite",
						"offers(address,uint256)": "3128",
						"submit(address,uint256,address)": "infinite"
					}
				},
				"methodIdentifiers": {
					"balances()": "7bb98a68",
					"offer(address,uint256)": "6b212960",
					"offers(address,uint256)": "aa1a8411",
					"submit(address,uint256,address)": "abd51552"
				}
			},
			"storageLayout": {
				"storage": [
					{
						"astId": 45,
						"contract": "Offer.sol:Offer",
						"label": "offers",
						"offset": 0,
						"slot": "0",
						"type": "t_mapping(t_address,t_mapping(t_uint256,t_struct(Offers)55_storage))"
					},
					{
						"astId": 57,
						"contract": "Offer.sol:Offer",
						"label": "balances",
						"offset": 0,
						"slot": "1",
						"type": "t_uint256"
					}
				],
				"types": {
					"t_address": {
						"encoding": "inplace",
						"label": "address",
						"numberOfBytes": "20"
					},
					"t_array(t_address)dyn_storage": {
						"base": "t_address",
						"encoding": "dynamic_array",
						"label": "address[]",
						"numberOfBytes": "32"
					},
					"t_bool": {
						"encoding": "inplace",
						"label": "bool",
						"numberOfBytes": "1"
					},
					"t_mapping(t_address,t_mapping(t_uint256,t_struct(Offers)55_storage))": {
						"encoding": "mapping",
						"key": "t_address",
						"label": "mapping(address => mapping(uint256 => struct Offer.Offers))",
						"numberOfBytes": "32",
						"value": "t_mapping(t_uint256,t_struct(Offers)55_storage)"
					},
					"t_mapping(t_address,t_uint256)": {
						"encoding": "mapping",
						"key": "t_address",
						"label": "mapping(address => uint256)",
						"numberOfBytes": "32",
						"value": "t_uint256"
					},
					"t_mapping(t_uint256,t_struct(Offers)55_storage)": {
						"encoding": "mapping",
						"key": "t_uint256",
						"label": "mapping(uint256 => struct Offer.Offers)",
						"numberOfBytes": "32",
						"value": "t_struct(Offers)55_storage"
					},
					"t_struct(Offers)55_storage": {
						"encoding": "inplace",
						"label": "struct Offer.Offers",
						"members": [
							{
								"astId": 48,
								"contract": "Offer.sol:Offer",
								"label": "offerer",
								"offset": 0,
								"slot": "0",
								"type": "t_array(t_address)dyn_storage"
							},
							{
								"astId": 52,
								"contract": "Offer.sol:Offer",
								"label": "amount",
								"offset": 0,
								"slot": "1",
								"type": "t_mapping(t_address,t_uint256)"
							},
							{
								"astId": 54,
								"contract": "Offer.sol:Offer",
								"label": "isOffer",
								"offset": 0,
								"slot": "2",
								"type": "t_bool"
							}
						],
						"numberOfBytes": "96"
					},
					"t_uint256": {
						"encoding": "inplace",
						"label": "uint256",
						"numberOfBytes": "32"
					}
				}
			},
			"userdoc": {
				"kind": "user",
				"methods": {},
				"version": 1
			}
		}
	}
}