{
	"Bid.sol": {
		"Auction": {
			"abi": [
				{
					"anonymous": false,
					"inputs": [
						{
							"indexed": true,
							"internalType": "address",
							"name": "sender",
							"type": "address"
						},
						{
							"indexed": false,
							"internalType": "uint256",
							"name": "amount",
							"type": "uint256"
						}
					],
					"name": "Bid",
					"type": "event"
				},
				{
					"anonymous": false,
					"inputs": [
						{
							"indexed": false,
							"internalType": "address",
							"name": "highestBidder",
							"type": "address"
						},
						{
							"indexed": false,
							"internalType": "uint256",
							"name": "highestBid",
							"type": "uint256"
						}
					],
					"name": "End",
					"type": "event"
				},
				{
					"anonymous": false,
					"inputs": [
						{
							"indexed": true,
							"internalType": "address",
							"name": "tokenAddr",
							"type": "address"
						},
						{
							"indexed": true,
							"internalType": "uint256",
							"name": "tokenId",
							"type": "uint256"
						},
						{
							"indexed": false,
							"internalType": "uint256",
							"name": "startingBid",
							"type": "uint256"
						},
						{
							"indexed": false,
							"internalType": "uint256",
							"name": "endAt",
							"type": "uint256"
						}
					],
					"name": "Start",
					"type": "event"
				},
				{
					"anonymous": false,
					"inputs": [
						{
							"indexed": true,
							"internalType": "address",
							"name": "bidder",
							"type": "address"
						},
						{
							"indexed": false,
							"internalType": "uint256",
							"name": "amount",
							"type": "uint256"
						}
					],
					"name": "Withdraw",
					"type": "event"
				},
				{
					"inputs": [
						{
							"internalType": "address",
							"name": "tokenAddr_",
							"type": "address"
						},
						{
							"internalType": "uint256",
							"name": "tokenId_",
							"type": "uint256"
						},
						{
							"internalType": "address",
							"name": "to",
							"type": "address"
						}
					],
					"name": "autoWithdraw",
					"outputs": [],
					"stateMutability": "payable",
					"type": "function"
				},
				{
					"inputs": [],
					"name": "balances",
					"outputs": [
						{
							"internalType": "uint256",
							"name": "",
							"type": "uint256"
						}
					],
					"stateMutability": "view",
					"type": "function"
				},
				{
					"inputs": [
						{
							"internalType": "address",
							"name": "_tokenAddr",
							"type": "address"
						},
						{
							"internalType": "uint256",
							"name": "_tokenId",
							"type": "uint256"
						}
					],
					"name": "bid",
					"outputs": [],
					"stateMutability": "payable",
					"type": "function"
				},
				{
					"inputs": [
						{
							"internalType": "address",
							"name": "",
							"type": "address"
						},
						{
							"internalType": "uint256",
							"name": "",
							"type": "uint256"
						}
					],
					"name": "biddings",
					"outputs": [
						{
							"internalType": "address",
							"name": "seller",
							"type": "address"
						},
						{
							"internalType": "bool",
							"name": "started",
							"type": "bool"
						},
						{
							"internalType": "bool",
							"name": "ended",
							"type": "bool"
						},
						{
							"internalType": "uint256",
							"name": "endAt",
							"type": "uint256"
						},
						{
							"internalType": "contract ERC721",
							"name": "tokenAddr",
							"type": "address"
						},
						{
							"internalType": "uint256",
							"name": "tokenId",
							"type": "uint256"
						},
						{
							"internalType": "uint256",
							"name": "bidCount",
							"type": "uint256"
						}
					],
					"stateMutability": "view",
					"type": "function"
				},
				{
					"inputs": [
						{
							"internalType": "address",
							"name": "_tokenAddr",
							"type": "address"
						},
						{
							"internalType": "uint256",
							"name": "_tokenId",
							"type": "uint256"
						}
					],
					"name": "end",
					"outputs": [],
					"stateMutability": "nonpayable",
					"type": "function"
				},
				{
					"inputs": [
						{
							"internalType": "address",
							"name": "_tokenAddr",
							"type": "address"
						},
						{
							"internalType": "uint256",
							"name": "_tokenId",
							"type": "uint256"
						},
						{
							"internalType": "uint256",
							"name": "startingBid",
							"type": "uint256"
						},
						{
							"internalType": "uint256",
							"name": "dayAmount",
							"type": "uint256"
						}
					],
					"name": "start",
					"outputs": [],
					"stateMutability": "nonpayable",
					"type": "function"
				},
				{
					"inputs": [
						{
							"internalType": "address",
							"name": "_tokenAddr",
							"type": "address"
						},
						{
							"internalType": "uint256",
							"name": "_tokenId",
							"type": "uint256"
						}
					],
					"name": "withdraw",
					"outputs": [],
					"stateMutability": "payable",
					"type": "function"
				}
			],
			"devdoc": {
				"kind": "dev",
				"methods": {},
				"version": 1
			},
			"evm": {
				"assembly": "    /* \"Bid.sol\":85:4433  contract Auction {\r... */\n  mstore(0x40, 0x80)\n  callvalue\n  dup1\n  iszero\n  tag_1\n  jumpi\n  0x00\n  dup1\n  revert\ntag_1:\n  pop\n  dataSize(sub_0)\n  dup1\n  dataOffset(sub_0)\n  0x00\n  codecopy\n  0x00\n  return\nstop\n\nsub_0: assembly {\n        /* \"Bid.sol\":85:4433  contract Auction {\r... */\n      mstore(0x40, 0x80)\n      jumpi(tag_1, lt(calldatasize, 0x04))\n      shr(0xe0, calldataload(0x00))\n      dup1\n      0x7bb98a68\n      gt\n      tag_9\n      jumpi\n      dup1\n      0x7bb98a68\n      eq\n      tag_5\n      jumpi\n      dup1\n      0xb76a3b5a\n      eq\n      tag_6\n      jumpi\n      dup1\n      0xf3fef3a3\n      eq\n      tag_7\n      jumpi\n      dup1\n      0xf48e9b3d\n      eq\n      tag_8\n      jumpi\n      jump(tag_1)\n    tag_9:\n      dup1\n      0x59d667a5\n      eq\n      tag_2\n      jumpi\n      dup1\n      0x695d69ba\n      eq\n      tag_3\n      jumpi\n      dup1\n      0x699ff43f\n      eq\n      tag_4\n      jumpi\n    tag_1:\n      0x00\n      dup1\n      revert\n        /* \"Bid.sol\":1618:2370  function bid(address _tokenAddr, uint _tokenId) external payable {\r... */\n    tag_2:\n      tag_10\n      0x04\n      dup1\n      calldatasize\n      sub\n      dup2\n      add\n      swap1\n      tag_11\n      swap2\n      swap1\n      tag_12\n      jump\t// in\n    tag_11:\n      tag_13\n      jump\t// in\n    tag_10:\n      stop\n        /* \"Bid.sol\":2988:4032  function end(address _tokenAddr, uint _tokenId) external {\r... */\n    tag_3:\n      callvalue\n      dup1\n      iszero\n      tag_14\n      jumpi\n      0x00\n      dup1\n      revert\n    tag_14:\n      pop\n      tag_15\n      0x04\n      dup1\n      calldatasize\n      sub\n      dup2\n      add\n      swap1\n      tag_16\n      swap2\n      swap1\n      tag_12\n      jump\t// in\n    tag_16:\n      tag_17\n      jump\t// in\n    tag_15:\n      stop\n        /* \"Bid.sol\":4040:4430  function autoWithdraw(address tokenAddr_, uint tokenId_, address to) public payable {\r... */\n    tag_4:\n      tag_18\n      0x04\n      dup1\n      calldatasize\n      sub\n      dup2\n      add\n      swap1\n      tag_19\n      swap2\n      swap1\n      tag_20\n      jump\t// in\n    tag_19:\n      tag_21\n      jump\t// in\n    tag_18:\n      stop\n        /* \"Bid.sol\":443:463  uint public balances */\n    tag_5:\n      callvalue\n      dup1\n      iszero\n      tag_22\n      jumpi\n      0x00\n      dup1\n      revert\n    tag_22:\n      pop\n      tag_23\n      tag_24\n      jump\t// in\n    tag_23:\n      mload(0x40)\n      tag_25\n      swap2\n      swap1\n      tag_26\n      jump\t// in\n    tag_25:\n      mload(0x40)\n      dup1\n      swap2\n      sub\n      swap1\n      return\n        /* \"Bid.sol\":799:1610  function start(address _tokenAddr, uint _tokenId, uint startingBid, uint dayAmount) external {\r... */\n    tag_6:\n      callvalue\n      dup1\n      iszero\n      tag_27\n      jumpi\n      0x00\n      dup1\n      revert\n    tag_27:\n      pop\n      tag_28\n      0x04\n      dup1\n      calldatasize\n      sub\n      dup2\n      add\n      swap1\n      tag_29\n      swap2\n      swap1\n      tag_30\n      jump\t// in\n    tag_29:\n      tag_31\n      jump\t// in\n    tag_28:\n      stop\n        /* \"Bid.sol\":2378:2980  function withdraw(address _tokenAddr, uint _tokenId) external payable {\r... */\n    tag_7:\n      tag_32\n      0x04\n      dup1\n      calldatasize\n      sub\n      dup2\n      add\n      swap1\n      tag_33\n      swap2\n      swap1\n      tag_12\n      jump\t// in\n    tag_33:\n      tag_34\n      jump\t// in\n    tag_32:\n      stop\n        /* \"Bid.sol\":375:434  mapping(address =>mapping(uint => Bidding)) public biddings */\n    tag_8:\n      callvalue\n      dup1\n      iszero\n      tag_35\n      jumpi\n      0x00\n      dup1\n      revert\n    tag_35:\n      pop\n      tag_36\n      0x04\n      dup1\n      calldatasize\n      sub\n      dup2\n      add\n      swap1\n      tag_37\n      swap2\n      swap1\n      tag_12\n      jump\t// in\n    tag_37:\n      tag_38\n      jump\t// in\n    tag_36:\n      mload(0x40)\n      tag_39\n      swap8\n      swap7\n      swap6\n      swap5\n      swap4\n      swap3\n      swap2\n      swap1\n      tag_40\n      jump\t// in\n    tag_39:\n      mload(0x40)\n      dup1\n      swap2\n      sub\n      swap1\n      return\n        /* \"Bid.sol\":1618:2370  function bid(address _tokenAddr, uint _tokenId) external payable {\r... */\n    tag_13:\n        /* \"Bid.sol\":1694:1714  Bidding storage _bid */\n      0x00\n        /* \"Bid.sol\":1717:1725  biddings */\n      dup1\n        /* \"Bid.sol\":1717:1737  biddings[_tokenAddr] */\n      0x00\n        /* \"Bid.sol\":1726:1736  _tokenAddr */\n      dup5\n        /* \"Bid.sol\":1717:1737  biddings[_tokenAddr] */\n      0xffffffffffffffffffffffffffffffffffffffff\n      and\n      0xffffffffffffffffffffffffffffffffffffffff\n      and\n      dup2\n      mstore\n      0x20\n      add\n      swap1\n      dup2\n      mstore\n      0x20\n      add\n      0x00\n      keccak256\n        /* \"Bid.sol\":1717:1747  biddings[_tokenAddr][_tokenId] */\n      0x00\n        /* \"Bid.sol\":1738:1746  _tokenId */\n      dup4\n        /* \"Bid.sol\":1717:1747  biddings[_tokenAddr][_tokenId] */\n      dup2\n      mstore\n      0x20\n      add\n      swap1\n      dup2\n      mstore\n      0x20\n      add\n      0x00\n      keccak256\n        /* \"Bid.sol\":1694:1747  Bidding storage _bid = biddings[_tokenAddr][_tokenId] */\n      swap1\n      pop\n        /* \"Bid.sol\":1768:1772  _bid */\n      dup1\n        /* \"Bid.sol\":1768:1780  _bid.started */\n      0x00\n      add\n      0x14\n      swap1\n      sload\n      swap1\n      0x0100\n      exp\n      swap1\n      div\n      0xff\n      and\n        /* \"Bid.sol\":1760:1797  require(_bid.started, \"Not started.\") */\n      tag_42\n      jumpi\n      mload(0x40)\n      0x08c379a000000000000000000000000000000000000000000000000000000000\n      dup2\n      mstore\n      0x04\n      add\n      tag_43\n      swap1\n      tag_44\n      jump\t// in\n    tag_43:\n      mload(0x40)\n      dup1\n      swap2\n      sub\n      swap1\n      revert\n    tag_42:\n        /* \"Bid.sol\":1834:1838  _bid */\n      dup1\n        /* \"Bid.sol\":1834:1844  _bid.endAt */\n      0x01\n      add\n      sload\n        /* \"Bid.sol\":1816:1831  block.timestamp */\n      timestamp\n        /* \"Bid.sol\":1816:1844  block.timestamp < _bid.endAt */\n      lt\n        /* \"Bid.sol\":1808:1855  require(block.timestamp < _bid.endAt, \"Ended!\") */\n      tag_45\n      jumpi\n      mload(0x40)\n      0x08c379a000000000000000000000000000000000000000000000000000000000\n      dup2\n      mstore\n      0x04\n      add\n      tag_46\n      swap1\n      tag_47\n      jump\t// in\n    tag_46:\n      mload(0x40)\n      dup1\n      swap2\n      sub\n      swap1\n      revert\n    tag_45:\n        /* \"Bid.sol\":1886:1890  _bid */\n      dup1\n        /* \"Bid.sol\":1886:1901  _bid.highestBid */\n      0x05\n      add\n        /* \"Bid.sol\":1886:1916  _bid.highestBid[_bid.bidCount] */\n      0x00\n        /* \"Bid.sol\":1902:1906  _bid */\n      dup3\n        /* \"Bid.sol\":1902:1915  _bid.bidCount */\n      0x04\n      add\n      sload\n        /* \"Bid.sol\":1886:1916  _bid.highestBid[_bid.bidCount] */\n      dup2\n      mstore\n      0x20\n      add\n      swap1\n      dup2\n      mstore\n      0x20\n      add\n      0x00\n      keccak256\n      sload\n        /* \"Bid.sol\":1874:1883  msg.value */\n      callvalue\n        /* \"Bid.sol\":1874:1916  msg.value > _bid.highestBid[_bid.bidCount] */\n      gt\n        /* \"Bid.sol\":1866:1931  require(msg.value > _bid.highestBid[_bid.bidCount], \"Lower bid!\") */\n      tag_48\n      jumpi\n      mload(0x40)\n      0x08c379a000000000000000000000000000000000000000000000000000000000\n      dup2\n      mstore\n      0x04\n      add\n      tag_49\n      swap1\n      tag_50\n      jump\t// in\n    tag_49:\n      mload(0x40)\n      dup1\n      swap2\n      sub\n      swap1\n      revert\n    tag_48:\n        /* \"Bid.sol\":1993:1994  0 */\n      0x00\n        /* \"Bid.sol\":1948:1995  _bid.highestBidder[_bid.bidCount] != address(0) */\n      0xffffffffffffffffffffffffffffffffffffffff\n      and\n        /* \"Bid.sol\":1948:1952  _bid */\n      dup2\n        /* \"Bid.sol\":1948:1966  _bid.highestBidder */\n      0x06\n      add\n        /* \"Bid.sol\":1948:1981  _bid.highestBidder[_bid.bidCount] */\n      0x00\n        /* \"Bid.sol\":1967:1971  _bid */\n      dup4\n        /* \"Bid.sol\":1967:1980  _bid.bidCount */\n      0x04\n      add\n      sload\n        /* \"Bid.sol\":1948:1981  _bid.highestBidder[_bid.bidCount] */\n      dup2\n      mstore\n      0x20\n      add\n      swap1\n      dup2\n      mstore\n      0x20\n      add\n      0x00\n      keccak256\n      0x00\n      swap1\n      sload\n      swap1\n      0x0100\n      exp\n      swap1\n      div\n      0xffffffffffffffffffffffffffffffffffffffff\n      and\n        /* \"Bid.sol\":1948:1995  _bid.highestBidder[_bid.bidCount] != address(0) */\n      0xffffffffffffffffffffffffffffffffffffffff\n      and\n      eq\n        /* \"Bid.sol\":1944:2101  if (_bid.highestBidder[_bid.bidCount] != address(0)) {\r... */\n      tag_51\n      jumpi\n        /* \"Bid.sol\":2059:2063  _bid */\n      dup1\n        /* \"Bid.sol\":2059:2074  _bid.highestBid */\n      0x05\n      add\n        /* \"Bid.sol\":2059:2089  _bid.highestBid[_bid.bidCount] */\n      0x00\n        /* \"Bid.sol\":2075:2079  _bid */\n      dup3\n        /* \"Bid.sol\":2075:2088  _bid.bidCount */\n      0x04\n      add\n      sload\n        /* \"Bid.sol\":2059:2089  _bid.highestBid[_bid.bidCount] */\n      dup2\n      mstore\n      0x20\n      add\n      swap1\n      dup2\n      mstore\n      0x20\n      add\n      0x00\n      keccak256\n      sload\n        /* \"Bid.sol\":2012:2016  _bid */\n      dup2\n        /* \"Bid.sol\":2012:2021  _bid.bids */\n      0x07\n      add\n        /* \"Bid.sol\":2012:2056  _bid.bids[_bid.highestBidder[_bid.bidCount]] */\n      0x00\n        /* \"Bid.sol\":2022:2026  _bid */\n      dup4\n        /* \"Bid.sol\":2022:2040  _bid.highestBidder */\n      0x06\n      add\n        /* \"Bid.sol\":2022:2055  _bid.highestBidder[_bid.bidCount] */\n      0x00\n        /* \"Bid.sol\":2041:2045  _bid */\n      dup6\n        /* \"Bid.sol\":2041:2054  _bid.bidCount */\n      0x04\n      add\n      sload\n        /* \"Bid.sol\":2022:2055  _bid.highestBidder[_bid.bidCount] */\n      dup2\n      mstore\n      0x20\n      add\n      swap1\n      dup2\n      mstore\n      0x20\n      add\n      0x00\n      keccak256\n      0x00\n      swap1\n      sload\n      swap1\n      0x0100\n      exp\n      swap1\n      div\n      0xffffffffffffffffffffffffffffffffffffffff\n      and\n        /* \"Bid.sol\":2012:2056  _bid.bids[_bid.highestBidder[_bid.bidCount]] */\n      0xffffffffffffffffffffffffffffffffffffffff\n      and\n      0xffffffffffffffffffffffffffffffffffffffff\n      and\n      dup2\n      mstore\n      0x20\n      add\n      swap1\n      dup2\n      mstore\n      0x20\n      add\n      0x00\n      keccak256\n        /* \"Bid.sol\":2012:2089  _bid.bids[_bid.highestBidder[_bid.bidCount]] = _bid.highestBid[_bid.bidCount] */\n      dup2\n      swap1\n      sstore\n      pop\n        /* \"Bid.sol\":1944:2101  if (_bid.highestBidder[_bid.bidCount] != address(0)) {\r... */\n    tag_51:\n        /* \"Bid.sol\":2113:2117  _bid */\n      dup1\n        /* \"Bid.sol\":2113:2126  _bid.bidCount */\n      0x04\n      add\n      0x00\n        /* \"Bid.sol\":2113:2128  _bid.bidCount++ */\n      dup2\n      sload\n      dup1\n      swap3\n      swap2\n      swap1\n      tag_52\n      swap1\n      tag_53\n      jump\t// in\n    tag_52:\n      swap2\n      swap1\n      pop\n      sstore\n      pop\n        /* \"Bid.sol\":2174:2183  msg.value */\n      callvalue\n        /* \"Bid.sol\":2141:2145  _bid */\n      dup2\n        /* \"Bid.sol\":2141:2156  _bid.highestBid */\n      0x05\n      add\n        /* \"Bid.sol\":2141:2171  _bid.highestBid[_bid.bidCount] */\n      0x00\n        /* \"Bid.sol\":2157:2161  _bid */\n      dup4\n        /* \"Bid.sol\":2157:2170  _bid.bidCount */\n      0x04\n      add\n      sload\n        /* \"Bid.sol\":2141:2171  _bid.highestBid[_bid.bidCount] */\n      dup2\n      mstore\n      0x20\n      add\n      swap1\n      dup2\n      mstore\n      0x20\n      add\n      0x00\n      keccak256\n        /* \"Bid.sol\":2141:2183  _bid.highestBid[_bid.bidCount] = msg.value */\n      dup2\n      swap1\n      sstore\n      pop\n        /* \"Bid.sol\":2230:2240  msg.sender */\n      caller\n        /* \"Bid.sol\":2194:2198  _bid */\n      dup2\n        /* \"Bid.sol\":2194:2212  _bid.highestBidder */\n      0x06\n      add\n        /* \"Bid.sol\":2194:2227  _bid.highestBidder[_bid.bidCount] */\n      0x00\n        /* \"Bid.sol\":2213:2217  _bid */\n      dup4\n        /* \"Bid.sol\":2213:2226  _bid.bidCount */\n      0x04\n      add\n      sload\n        /* \"Bid.sol\":2194:2227  _bid.highestBidder[_bid.bidCount] */\n      dup2\n      mstore\n      0x20\n      add\n      swap1\n      dup2\n      mstore\n      0x20\n      add\n      0x00\n      keccak256\n      0x00\n        /* \"Bid.sol\":2194:2240  _bid.highestBidder[_bid.bidCount] = msg.sender */\n      0x0100\n      exp\n      dup2\n      sload\n      dup2\n      0xffffffffffffffffffffffffffffffffffffffff\n      mul\n      not\n      and\n      swap1\n      dup4\n      0xffffffffffffffffffffffffffffffffffffffff\n      and\n      mul\n      or\n      swap1\n      sstore\n      pop\n        /* \"Bid.sol\":2265:2274  msg.value */\n      callvalue\n        /* \"Bid.sol\":2253:2261  balances */\n      0x01\n      0x00\n        /* \"Bid.sol\":2253:2274  balances += msg.value */\n      dup3\n      dup3\n      sload\n      tag_54\n      swap2\n      swap1\n      tag_55\n      jump\t// in\n    tag_54:\n      swap3\n      pop\n      pop\n      dup2\n      swap1\n      sstore\n      pop\n        /* \"Bid.sol\":2296:2300  _bid */\n      dup1\n        /* \"Bid.sol\":2296:2314  _bid.highestBidder */\n      0x06\n      add\n        /* \"Bid.sol\":2296:2329  _bid.highestBidder[_bid.bidCount] */\n      0x00\n        /* \"Bid.sol\":2315:2319  _bid */\n      dup3\n        /* \"Bid.sol\":2315:2328  _bid.bidCount */\n      0x04\n      add\n      sload\n        /* \"Bid.sol\":2296:2329  _bid.highestBidder[_bid.bidCount] */\n      dup2\n      mstore\n      0x20\n      add\n      swap1\n      dup2\n      mstore\n      0x20\n      add\n      0x00\n      keccak256\n      0x00\n      swap1\n      sload\n      swap1\n      0x0100\n      exp\n      swap1\n      div\n      0xffffffffffffffffffffffffffffffffffffffff\n      and\n        /* \"Bid.sol\":2292:2362  Bid(_bid.highestBidder[_bid.bidCount], _bid.highestBid[_bid.bidCount]) */\n      0xffffffffffffffffffffffffffffffffffffffff\n      and\n      0xe684a55f31b79eca403df938249029212a5925ec6be8012e099b45bc1019e5d2\n        /* \"Bid.sol\":2331:2335  _bid */\n      dup3\n        /* \"Bid.sol\":2331:2346  _bid.highestBid */\n      0x05\n      add\n        /* \"Bid.sol\":2331:2361  _bid.highestBid[_bid.bidCount] */\n      0x00\n        /* \"Bid.sol\":2347:2351  _bid */\n      dup5\n        /* \"Bid.sol\":2347:2360  _bid.bidCount */\n      0x04\n      add\n      sload\n        /* \"Bid.sol\":2331:2361  _bid.highestBid[_bid.bidCount] */\n      dup2\n      mstore\n      0x20\n      add\n      swap1\n      dup2\n      mstore\n      0x20\n      add\n      0x00\n      keccak256\n      sload\n        /* \"Bid.sol\":2292:2362  Bid(_bid.highestBidder[_bid.bidCount], _bid.highestBid[_bid.bidCount]) */\n      mload(0x40)\n      tag_56\n      swap2\n      swap1\n      tag_26\n      jump\t// in\n    tag_56:\n      mload(0x40)\n      dup1\n      swap2\n      sub\n      swap1\n      log2\n        /* \"Bid.sol\":1683:2370  {\r... */\n      pop\n        /* \"Bid.sol\":1618:2370  function bid(address _tokenAddr, uint _tokenId) external payable {\r... */\n      pop\n      pop\n      jump\t// out\n        /* \"Bid.sol\":2988:4032  function end(address _tokenAddr, uint _tokenId) external {\r... */\n    tag_17:\n        /* \"Bid.sol\":3056:3076  Bidding storage _bid */\n      0x00\n        /* \"Bid.sol\":3079:3087  biddings */\n      dup1\n        /* \"Bid.sol\":3079:3099  biddings[_tokenAddr] */\n      0x00\n        /* \"Bid.sol\":3088:3098  _tokenAddr */\n      dup5\n        /* \"Bid.sol\":3079:3099  biddings[_tokenAddr] */\n      0xffffffffffffffffffffffffffffffffffffffff\n      and\n      0xffffffffffffffffffffffffffffffffffffffff\n      and\n      dup2\n      mstore\n      0x20\n      add\n      swap1\n      dup2\n      mstore\n      0x20\n      add\n      0x00\n      keccak256\n        /* \"Bid.sol\":3079:3109  biddings[_tokenAddr][_tokenId] */\n      0x00\n        /* \"Bid.sol\":3100:3108  _tokenId */\n      dup4\n        /* \"Bid.sol\":3079:3109  biddings[_tokenAddr][_tokenId] */\n      dup2\n      mstore\n      0x20\n      add\n      swap1\n      dup2\n      mstore\n      0x20\n      add\n      0x00\n      keccak256\n        /* \"Bid.sol\":3056:3109  Bidding storage _bid = biddings[_tokenAddr][_tokenId] */\n      swap1\n      pop\n        /* \"Bid.sol\":3130:3134  _bid */\n      dup1\n        /* \"Bid.sol\":3130:3142  _bid.started */\n      0x00\n      add\n      0x14\n      swap1\n      sload\n      swap1\n      0x0100\n      exp\n      swap1\n      div\n      0xff\n      and\n        /* \"Bid.sol\":3122:3171  require(_bid.started, \"You need to start first!\") */\n      tag_58\n      jumpi\n      mload(0x40)\n      0x08c379a000000000000000000000000000000000000000000000000000000000\n      dup2\n      mstore\n      0x04\n      add\n      tag_59\n      swap1\n      tag_60\n      jump\t// in\n    tag_59:\n      mload(0x40)\n      dup1\n      swap2\n      sub\n      swap1\n      revert\n    tag_58:\n        /* \"Bid.sol\":3209:3213  _bid */\n      dup1\n        /* \"Bid.sol\":3209:3219  _bid.endAt */\n      0x01\n      add\n      sload\n        /* \"Bid.sol\":3190:3205  block.timestamp */\n      timestamp\n        /* \"Bid.sol\":3190:3219  block.timestamp >= _bid.endAt */\n      lt\n      iszero\n        /* \"Bid.sol\":3182:3249  require(block.timestamp >= _bid.endAt, \"Auction is still ongoing!\") */\n      tag_61\n      jumpi\n      mload(0x40)\n      0x08c379a000000000000000000000000000000000000000000000000000000000\n      dup2\n      mstore\n      0x04\n      add\n      tag_62\n      swap1\n      tag_63\n      jump\t// in\n    tag_62:\n      mload(0x40)\n      dup1\n      swap2\n      sub\n      swap1\n      revert\n    tag_61:\n        /* \"Bid.sol\":3269:3273  _bid */\n      dup1\n        /* \"Bid.sol\":3269:3279  _bid.ended */\n      0x00\n      add\n      0x15\n      swap1\n      sload\n      swap1\n      0x0100\n      exp\n      swap1\n      div\n      0xff\n      and\n        /* \"Bid.sol\":3268:3279  !_bid.ended */\n      iszero\n        /* \"Bid.sol\":3260:3306  require(!_bid.ended, \"Auction already ended!\") */\n      tag_64\n      jumpi\n      mload(0x40)\n      0x08c379a000000000000000000000000000000000000000000000000000000000\n      dup2\n      mstore\n      0x04\n      add\n      tag_65\n      swap1\n      tag_66\n      jump\t// in\n    tag_65:\n      mload(0x40)\n      dup1\n      swap2\n      sub\n      swap1\n      revert\n    tag_64:\n        /* \"Bid.sol\":3368:3369  0 */\n      0x00\n        /* \"Bid.sol\":3323:3370  _bid.highestBidder[_bid.bidCount] != address(0) */\n      0xffffffffffffffffffffffffffffffffffffffff\n      and\n        /* \"Bid.sol\":3323:3327  _bid */\n      dup2\n        /* \"Bid.sol\":3323:3341  _bid.highestBidder */\n      0x06\n      add\n        /* \"Bid.sol\":3323:3356  _bid.highestBidder[_bid.bidCount] */\n      0x00\n        /* \"Bid.sol\":3342:3346  _bid */\n      dup4\n        /* \"Bid.sol\":3342:3355  _bid.bidCount */\n      0x04\n      add\n      sload\n        /* \"Bid.sol\":3323:3356  _bid.highestBidder[_bid.bidCount] */\n      dup2\n      mstore\n      0x20\n      add\n      swap1\n      dup2\n      mstore\n      0x20\n      add\n      0x00\n      keccak256\n      0x00\n      swap1\n      sload\n      swap1\n      0x0100\n      exp\n      swap1\n      div\n      0xffffffffffffffffffffffffffffffffffffffff\n      and\n        /* \"Bid.sol\":3323:3370  _bid.highestBidder[_bid.bidCount] != address(0) */\n      0xffffffffffffffffffffffffffffffffffffffff\n      and\n      eq\n        /* \"Bid.sol\":3319:3878  if (_bid.highestBidder[_bid.bidCount] != address(0)) {\r... */\n      tag_67\n      jumpi\n        /* \"Bid.sol\":3389:3393  _bid */\n      dup1\n        /* \"Bid.sol\":3389:3403  _bid.tokenAddr */\n      0x02\n      add\n      0x00\n      swap1\n      sload\n      swap1\n      0x0100\n      exp\n      swap1\n      div\n      0xffffffffffffffffffffffffffffffffffffffff\n      and\n        /* \"Bid.sol\":3389:3416  _bid.tokenAddr.transferFrom */\n      0xffffffffffffffffffffffffffffffffffffffff\n      and\n      0x23b872dd\n        /* \"Bid.sol\":3425:3429  this */\n      address\n        /* \"Bid.sol\":3432:3436  _bid */\n      dup4\n        /* \"Bid.sol\":3432:3450  _bid.highestBidder */\n      0x06\n      add\n        /* \"Bid.sol\":3432:3465  _bid.highestBidder[_bid.bidCount] */\n      0x00\n        /* \"Bid.sol\":3451:3455  _bid */\n      dup6\n        /* \"Bid.sol\":3451:3464  _bid.bidCount */\n      0x04\n      add\n      sload\n        /* \"Bid.sol\":3432:3465  _bid.highestBidder[_bid.bidCount] */\n      dup2\n      mstore\n      0x20\n      add\n      swap1\n      dup2\n      mstore\n      0x20\n      add\n      0x00\n      keccak256\n      0x00\n      swap1\n      sload\n      swap1\n      0x0100\n      exp\n      swap1\n      div\n      0xffffffffffffffffffffffffffffffffffffffff\n      and\n        /* \"Bid.sol\":3467:3471  _bid */\n      dup5\n        /* \"Bid.sol\":3467:3479  _bid.tokenId */\n      0x03\n      add\n      sload\n        /* \"Bid.sol\":3389:3480  _bid.tokenAddr.transferFrom(address(this), _bid.highestBidder[_bid.bidCount], _bid.tokenId) */\n      mload(0x40)\n      dup5\n      0xffffffff\n      and\n      0xe0\n      shl\n      dup2\n      mstore\n      0x04\n      add\n      tag_68\n      swap4\n      swap3\n      swap2\n      swap1\n      tag_69\n      jump\t// in\n    tag_68:\n      0x00\n      mload(0x40)\n      dup1\n      dup4\n      sub\n      dup2\n      0x00\n      dup8\n      dup1\n      extcodesize\n      iszero\n      dup1\n      iszero\n      tag_70\n      jumpi\n      0x00\n      dup1\n      revert\n    tag_70:\n      pop\n      gas\n      call\n      iszero\n      dup1\n      iszero\n      tag_72\n      jumpi\n      returndatasize\n      0x00\n      dup1\n      returndatacopy\n      revert(0x00, returndatasize)\n    tag_72:\n      pop\n      pop\n      pop\n      pop\n        /* \"Bid.sol\":3505:3509  _bid */\n      dup1\n        /* \"Bid.sol\":3505:3516  _bid.seller */\n      0x00\n      add\n      0x00\n      swap1\n      sload\n      swap1\n      0x0100\n      exp\n      swap1\n      div\n      0xffffffffffffffffffffffffffffffffffffffff\n      and\n        /* \"Bid.sol\":3497:3526  payable(_bid.seller).transfer */\n      0xffffffffffffffffffffffffffffffffffffffff\n      and\n        /* \"Bid.sol\":3497:3558  payable(_bid.seller).transfer(_bid.highestBid[_bid.bidCount]) */\n      0x08fc\n        /* \"Bid.sol\":3527:3531  _bid */\n      dup3\n        /* \"Bid.sol\":3527:3542  _bid.highestBid */\n      0x05\n      add\n        /* \"Bid.sol\":3527:3557  _bid.highestBid[_bid.bidCount] */\n      0x00\n        /* \"Bid.sol\":3543:3547  _bid */\n      dup5\n        /* \"Bid.sol\":3543:3556  _bid.bidCount */\n      0x04\n      add\n      sload\n        /* \"Bid.sol\":3527:3557  _bid.highestBid[_bid.bidCount] */\n      dup2\n      mstore\n      0x20\n      add\n      swap1\n      dup2\n      mstore\n      0x20\n      add\n      0x00\n      keccak256\n      sload\n        /* \"Bid.sol\":3497:3558  payable(_bid.seller).transfer(_bid.highestBid[_bid.bidCount]) */\n      swap1\n      dup2\n      iszero\n      mul\n      swap1\n      mload(0x40)\n      0x00\n      mload(0x40)\n      dup1\n      dup4\n      sub\n      dup2\n      dup6\n      dup9\n      dup9\n      call\n      swap4\n      pop\n      pop\n      pop\n      pop\n      iszero\n      dup1\n      iszero\n      tag_74\n      jumpi\n      returndatasize\n      0x00\n      dup1\n      returndatacopy\n      revert(0x00, returndatasize)\n    tag_74:\n      pop\n        /* \"Bid.sol\":3585:3589  _bid */\n      dup1\n        /* \"Bid.sol\":3585:3600  _bid.highestBid */\n      0x05\n      add\n        /* \"Bid.sol\":3585:3615  _bid.highestBid[_bid.bidCount] */\n      0x00\n        /* \"Bid.sol\":3601:3605  _bid */\n      dup3\n        /* \"Bid.sol\":3601:3614  _bid.bidCount */\n      0x04\n      add\n      sload\n        /* \"Bid.sol\":3585:3615  _bid.highestBid[_bid.bidCount] */\n      dup2\n      mstore\n      0x20\n      add\n      swap1\n      dup2\n      mstore\n      0x20\n      add\n      0x00\n      keccak256\n      sload\n        /* \"Bid.sol\":3573:3581  balances */\n      0x01\n      0x00\n        /* \"Bid.sol\":3573:3615  balances -= _bid.highestBid[_bid.bidCount] */\n      dup3\n      dup3\n      sload\n      tag_75\n      swap2\n      swap1\n      tag_76\n      jump\t// in\n    tag_75:\n      swap3\n      pop\n      pop\n      dup2\n      swap1\n      sstore\n      pop\n        /* \"Bid.sol\":3637:3643  uint i */\n      0x00\n        /* \"Bid.sol\":3632:3765  for (uint i = 0; i < _bid.bidCount; i++) {\r... */\n    tag_77:\n        /* \"Bid.sol\":3653:3657  _bid */\n      dup2\n        /* \"Bid.sol\":3653:3666  _bid.bidCount */\n      0x04\n      add\n      sload\n        /* \"Bid.sol\":3649:3650  i */\n      dup2\n        /* \"Bid.sol\":3649:3666  i < _bid.bidCount */\n      lt\n        /* \"Bid.sol\":3632:3765  for (uint i = 0; i < _bid.bidCount; i++) {\r... */\n      iszero\n      tag_78\n      jumpi\n        /* \"Bid.sol\":3692:3749  autoWithdraw(_tokenAddr, _tokenId, _bid.highestBidder[i]) */\n      tag_80\n        /* \"Bid.sol\":3705:3715  _tokenAddr */\n      dup5\n        /* \"Bid.sol\":3717:3725  _tokenId */\n      dup5\n        /* \"Bid.sol\":3727:3731  _bid */\n      dup5\n        /* \"Bid.sol\":3727:3745  _bid.highestBidder */\n      0x06\n      add\n        /* \"Bid.sol\":3727:3748  _bid.highestBidder[i] */\n      0x00\n        /* \"Bid.sol\":3746:3747  i */\n      dup6\n        /* \"Bid.sol\":3727:3748  _bid.highestBidder[i] */\n      dup2\n      mstore\n      0x20\n      add\n      swap1\n      dup2\n      mstore\n      0x20\n      add\n      0x00\n      keccak256\n      0x00\n      swap1\n      sload\n      swap1\n      0x0100\n      exp\n      swap1\n      div\n      0xffffffffffffffffffffffffffffffffffffffff\n      and\n        /* \"Bid.sol\":3692:3704  autoWithdraw */\n      tag_21\n        /* \"Bid.sol\":3692:3749  autoWithdraw(_tokenAddr, _tokenId, _bid.highestBidder[i]) */\n      jump\t// in\n    tag_80:\n        /* \"Bid.sol\":3668:3671  i++ */\n      dup1\n      dup1\n      tag_81\n      swap1\n      tag_53\n      jump\t// in\n    tag_81:\n      swap2\n      pop\n      pop\n        /* \"Bid.sol\":3632:3765  for (uint i = 0; i < _bid.bidCount; i++) {\r... */\n      jump(tag_77)\n    tag_78:\n      pop\n        /* \"Bid.sol\":3319:3878  if (_bid.highestBidder[_bid.bidCount] != address(0)) {\r... */\n      jump(tag_82)\n    tag_67:\n        /* \"Bid.sol\":3797:3801  _bid */\n      dup1\n        /* \"Bid.sol\":3797:3811  _bid.tokenAddr */\n      0x02\n      add\n      0x00\n      swap1\n      sload\n      swap1\n      0x0100\n      exp\n      swap1\n      div\n      0xffffffffffffffffffffffffffffffffffffffff\n      and\n        /* \"Bid.sol\":3797:3824  _bid.tokenAddr.transferFrom */\n      0xffffffffffffffffffffffffffffffffffffffff\n      and\n      0x23b872dd\n        /* \"Bid.sol\":3833:3837  this */\n      address\n        /* \"Bid.sol\":3840:3844  _bid */\n      dup4\n        /* \"Bid.sol\":3840:3851  _bid.seller */\n      0x00\n      add\n      0x00\n      swap1\n      sload\n      swap1\n      0x0100\n      exp\n      swap1\n      div\n      0xffffffffffffffffffffffffffffffffffffffff\n      and\n        /* \"Bid.sol\":3853:3857  _bid */\n      dup5\n        /* \"Bid.sol\":3853:3865  _bid.tokenId */\n      0x03\n      add\n      sload\n        /* \"Bid.sol\":3797:3866  _bid.tokenAddr.transferFrom(address(this), _bid.seller, _bid.tokenId) */\n      mload(0x40)\n      dup5\n      0xffffffff\n      and\n      0xe0\n      shl\n      dup2\n      mstore\n      0x04\n      add\n      tag_83\n      swap4\n      swap3\n      swap2\n      swap1\n      tag_69\n      jump\t// in\n    tag_83:\n      0x00\n      mload(0x40)\n      dup1\n      dup4\n      sub\n      dup2\n      0x00\n      dup8\n      dup1\n      extcodesize\n      iszero\n      dup1\n      iszero\n      tag_84\n      jumpi\n      0x00\n      dup1\n      revert\n    tag_84:\n      pop\n      gas\n      call\n      iszero\n      dup1\n      iszero\n      tag_86\n      jumpi\n      returndatasize\n      0x00\n      dup1\n      returndatacopy\n      revert(0x00, returndatasize)\n    tag_86:\n      pop\n      pop\n      pop\n      pop\n        /* \"Bid.sol\":3319:3878  if (_bid.highestBidder[_bid.bidCount] != address(0)) {\r... */\n    tag_82:\n        /* \"Bid.sol\":3903:3907  true */\n      0x01\n        /* \"Bid.sol\":3890:3894  _bid */\n      dup2\n        /* \"Bid.sol\":3890:3900  _bid.ended */\n      0x00\n      add\n      0x15\n        /* \"Bid.sol\":3890:3907  _bid.ended = true */\n      0x0100\n      exp\n      dup2\n      sload\n      dup2\n      0xff\n      mul\n      not\n      and\n      swap1\n      dup4\n      iszero\n      iszero\n      mul\n      or\n      swap1\n      sstore\n      pop\n        /* \"Bid.sol\":3933:3938  false */\n      0x00\n        /* \"Bid.sol\":3918:3922  _bid */\n      dup2\n        /* \"Bid.sol\":3918:3930  _bid.started */\n      0x00\n      add\n      0x14\n        /* \"Bid.sol\":3918:3938  _bid.started = false */\n      0x0100\n      exp\n      dup2\n      sload\n      dup2\n      0xff\n      mul\n      not\n      and\n      swap1\n      dup4\n      iszero\n      iszero\n      mul\n      or\n      swap1\n      sstore\n      pop\n        /* \"Bid.sol\":3954:4024  End(_bid.highestBidder[_bid.bidCount], _bid.highestBid[_bid.bidCount]) */\n      0x7d7570b046e5ead3a4f3fbc9fa2445113625a1e79823776146316bafed6b8cc5\n        /* \"Bid.sol\":3958:3962  _bid */\n      dup2\n        /* \"Bid.sol\":3958:3976  _bid.highestBidder */\n      0x06\n      add\n        /* \"Bid.sol\":3958:3991  _bid.highestBidder[_bid.bidCount] */\n      0x00\n        /* \"Bid.sol\":3977:3981  _bid */\n      dup4\n        /* \"Bid.sol\":3977:3990  _bid.bidCount */\n      0x04\n      add\n      sload\n        /* \"Bid.sol\":3958:3991  _bid.highestBidder[_bid.bidCount] */\n      dup2\n      mstore\n      0x20\n      add\n      swap1\n      dup2\n      mstore\n      0x20\n      add\n      0x00\n      keccak256\n      0x00\n      swap1\n      sload\n      swap1\n      0x0100\n      exp\n      swap1\n      div\n      0xffffffffffffffffffffffffffffffffffffffff\n      and\n        /* \"Bid.sol\":3993:3997  _bid */\n      dup3\n        /* \"Bid.sol\":3993:4008  _bid.highestBid */\n      0x05\n      add\n        /* \"Bid.sol\":3993:4023  _bid.highestBid[_bid.bidCount] */\n      0x00\n        /* \"Bid.sol\":4009:4013  _bid */\n      dup5\n        /* \"Bid.sol\":4009:4022  _bid.bidCount */\n      0x04\n      add\n      sload\n        /* \"Bid.sol\":3993:4023  _bid.highestBid[_bid.bidCount] */\n      dup2\n      mstore\n      0x20\n      add\n      swap1\n      dup2\n      mstore\n      0x20\n      add\n      0x00\n      keccak256\n      sload\n        /* \"Bid.sol\":3954:4024  End(_bid.highestBidder[_bid.bidCount], _bid.highestBid[_bid.bidCount]) */\n      mload(0x40)\n      tag_87\n      swap3\n      swap2\n      swap1\n      tag_88\n      jump\t// in\n    tag_87:\n      mload(0x40)\n      dup1\n      swap2\n      sub\n      swap1\n      log1\n        /* \"Bid.sol\":3045:4032  {\r... */\n      pop\n        /* \"Bid.sol\":2988:4032  function end(address _tokenAddr, uint _tokenId) external {\r... */\n      pop\n      pop\n      jump\t// out\n        /* \"Bid.sol\":4040:4430  function autoWithdraw(address tokenAddr_, uint tokenId_, address to) public payable {\r... */\n    tag_21:\n        /* \"Bid.sol\":4135:4155  Bidding storage _bid */\n      0x00\n        /* \"Bid.sol\":4158:4166  biddings */\n      dup1\n        /* \"Bid.sol\":4158:4178  biddings[tokenAddr_] */\n      0x00\n        /* \"Bid.sol\":4167:4177  tokenAddr_ */\n      dup6\n        /* \"Bid.sol\":4158:4178  biddings[tokenAddr_] */\n      0xffffffffffffffffffffffffffffffffffffffff\n      and\n      0xffffffffffffffffffffffffffffffffffffffff\n      and\n      dup2\n      mstore\n      0x20\n      add\n      swap1\n      dup2\n      mstore\n      0x20\n      add\n      0x00\n      keccak256\n        /* \"Bid.sol\":4158:4188  biddings[tokenAddr_][tokenId_] */\n      0x00\n        /* \"Bid.sol\":4179:4187  tokenId_ */\n      dup5\n        /* \"Bid.sol\":4158:4188  biddings[tokenAddr_][tokenId_] */\n      dup2\n      mstore\n      0x20\n      add\n      swap1\n      dup2\n      mstore\n      0x20\n      add\n      0x00\n      keccak256\n        /* \"Bid.sol\":4135:4188  Bidding storage _bid = biddings[tokenAddr_][tokenId_] */\n      swap1\n      pop\n        /* \"Bid.sol\":4199:4207  uint bal */\n      0x00\n        /* \"Bid.sol\":4210:4214  _bid */\n      dup2\n        /* \"Bid.sol\":4210:4219  _bid.bids */\n      0x07\n      add\n        /* \"Bid.sol\":4210:4223  _bid.bids[to] */\n      0x00\n        /* \"Bid.sol\":4220:4222  to */\n      dup5\n        /* \"Bid.sol\":4210:4223  _bid.bids[to] */\n      0xffffffffffffffffffffffffffffffffffffffff\n      and\n      0xffffffffffffffffffffffffffffffffffffffff\n      and\n      dup2\n      mstore\n      0x20\n      add\n      swap1\n      dup2\n      mstore\n      0x20\n      add\n      0x00\n      keccak256\n      sload\n        /* \"Bid.sol\":4199:4223  uint bal = _bid.bids[to] */\n      swap1\n      pop\n        /* \"Bid.sol\":4250:4251  0 */\n      0x00\n        /* \"Bid.sol\":4244:4247  bal */\n      dup2\n        /* \"Bid.sol\":4244:4251  bal > 0 */\n      gt\n        /* \"Bid.sol\":4244:4270  bal > 0 && bal <= balances */\n      dup1\n      iszero\n      tag_90\n      jumpi\n      pop\n        /* \"Bid.sol\":4262:4270  balances */\n      sload(0x01)\n        /* \"Bid.sol\":4255:4258  bal */\n      dup2\n        /* \"Bid.sol\":4255:4270  bal <= balances */\n      gt\n      iszero\n        /* \"Bid.sol\":4244:4270  bal > 0 && bal <= balances */\n    tag_90:\n        /* \"Bid.sol\":4236:4293  require(bal > 0 && bal <= balances, \"Could not withdraw\") */\n      tag_91\n      jumpi\n      mload(0x40)\n      0x08c379a000000000000000000000000000000000000000000000000000000000\n      dup2\n      mstore\n      0x04\n      add\n      tag_92\n      swap1\n      tag_93\n      jump\t// in\n    tag_92:\n      mload(0x40)\n      dup1\n      swap2\n      sub\n      swap1\n      revert\n    tag_91:\n        /* \"Bid.sol\":4322:4323  0 */\n      0x00\n        /* \"Bid.sol\":4306:4310  _bid */\n      dup3\n        /* \"Bid.sol\":4306:4315  _bid.bids */\n      0x07\n      add\n        /* \"Bid.sol\":4306:4319  _bid.bids[to] */\n      0x00\n        /* \"Bid.sol\":4316:4318  to */\n      dup6\n        /* \"Bid.sol\":4306:4319  _bid.bids[to] */\n      0xffffffffffffffffffffffffffffffffffffffff\n      and\n      0xffffffffffffffffffffffffffffffffffffffff\n      and\n      dup2\n      mstore\n      0x20\n      add\n      swap1\n      dup2\n      mstore\n      0x20\n      add\n      0x00\n      keccak256\n        /* \"Bid.sol\":4306:4323  _bid.bids[to] = 0 */\n      dup2\n      swap1\n      sstore\n      pop\n        /* \"Bid.sol\":4344:4346  to */\n      dup3\n        /* \"Bid.sol\":4336:4356  payable(to).transfer */\n      0xffffffffffffffffffffffffffffffffffffffff\n      and\n        /* \"Bid.sol\":4336:4361  payable(to).transfer(bal) */\n      0x08fc\n        /* \"Bid.sol\":4357:4360  bal */\n      dup3\n        /* \"Bid.sol\":4336:4361  payable(to).transfer(bal) */\n      swap1\n      dup2\n      iszero\n      mul\n      swap1\n      mload(0x40)\n      0x00\n      mload(0x40)\n      dup1\n      dup4\n      sub\n      dup2\n      dup6\n      dup9\n      dup9\n      call\n      swap4\n      pop\n      pop\n      pop\n      pop\n      iszero\n      dup1\n      iszero\n      tag_95\n      jumpi\n      returndatasize\n      0x00\n      dup1\n      returndatacopy\n      revert(0x00, returndatasize)\n    tag_95:\n      pop\n        /* \"Bid.sol\":4384:4387  bal */\n      dup1\n        /* \"Bid.sol\":4372:4380  balances */\n      0x01\n      0x00\n        /* \"Bid.sol\":4372:4387  balances -= bal */\n      dup3\n      dup3\n      sload\n      tag_96\n      swap2\n      swap1\n      tag_76\n      jump\t// in\n    tag_96:\n      swap3\n      pop\n      pop\n      dup2\n      swap1\n      sstore\n      pop\n        /* \"Bid.sol\":4414:4416  to */\n      dup3\n        /* \"Bid.sol\":4405:4422  Withdraw(to, bal) */\n      0xffffffffffffffffffffffffffffffffffffffff\n      and\n      0x884edad9ce6fa2440d8a54cc123490eb96d2768479d49ff9c7366125a9424364\n        /* \"Bid.sol\":4418:4421  bal */\n      dup3\n        /* \"Bid.sol\":4405:4422  Withdraw(to, bal) */\n      mload(0x40)\n      tag_97\n      swap2\n      swap1\n      tag_26\n      jump\t// in\n    tag_97:\n      mload(0x40)\n      dup1\n      swap2\n      sub\n      swap1\n      log2\n        /* \"Bid.sol\":4124:4430  {\r... */\n      pop\n      pop\n        /* \"Bid.sol\":4040:4430  function autoWithdraw(address tokenAddr_, uint tokenId_, address to) public payable {\r... */\n      pop\n      pop\n      pop\n      jump\t// out\n        /* \"Bid.sol\":443:463  uint public balances */\n    tag_24:\n      sload(0x01)\n      dup2\n      jump\t// out\n        /* \"Bid.sol\":799:1610  function start(address _tokenAddr, uint _tokenId, uint startingBid, uint dayAmount) external {\r... */\n    tag_31:\n        /* \"Bid.sol\":903:923  Bidding storage _bid */\n      0x00\n        /* \"Bid.sol\":926:934  biddings */\n      dup1\n        /* \"Bid.sol\":926:946  biddings[_tokenAddr] */\n      0x00\n        /* \"Bid.sol\":935:945  _tokenAddr */\n      dup7\n        /* \"Bid.sol\":926:946  biddings[_tokenAddr] */\n      0xffffffffffffffffffffffffffffffffffffffff\n      and\n      0xffffffffffffffffffffffffffffffffffffffff\n      and\n      dup2\n      mstore\n      0x20\n      add\n      swap1\n      dup2\n      mstore\n      0x20\n      add\n      0x00\n      keccak256\n        /* \"Bid.sol\":926:956  biddings[_tokenAddr][_tokenId] */\n      0x00\n        /* \"Bid.sol\":947:955  _tokenId */\n      dup6\n        /* \"Bid.sol\":926:956  biddings[_tokenAddr][_tokenId] */\n      dup2\n      mstore\n      0x20\n      add\n      swap1\n      dup2\n      mstore\n      0x20\n      add\n      0x00\n      keccak256\n        /* \"Bid.sol\":903:956  Bidding storage _bid = biddings[_tokenAddr][_tokenId] */\n      swap1\n      pop\n        /* \"Bid.sol\":991:1001  _tokenAddr */\n      dup5\n        /* \"Bid.sol\":967:971  _bid */\n      dup2\n        /* \"Bid.sol\":967:981  _bid.tokenAddr */\n      0x02\n      add\n      0x00\n        /* \"Bid.sol\":967:1002  _bid.tokenAddr = ERC721(_tokenAddr) */\n      0x0100\n      exp\n      dup2\n      sload\n      dup2\n      0xffffffffffffffffffffffffffffffffffffffff\n      mul\n      not\n      and\n      swap1\n      dup4\n      0xffffffffffffffffffffffffffffffffffffffff\n      and\n      mul\n      or\n      swap1\n      sstore\n      pop\n        /* \"Bid.sol\":1027:1031  _bid */\n      dup1\n        /* \"Bid.sol\":1027:1041  _bid.tokenAddr */\n      0x02\n      add\n      0x00\n      swap1\n      sload\n      swap1\n      0x0100\n      exp\n      swap1\n      div\n      0xffffffffffffffffffffffffffffffffffffffff\n      and\n        /* \"Bid.sol\":1027:1049  _bid.tokenAddr.ownerOf */\n      0xffffffffffffffffffffffffffffffffffffffff\n      and\n      0x6352211e\n        /* \"Bid.sol\":1050:1058  _tokenId */\n      dup6\n        /* \"Bid.sol\":1027:1059  _bid.tokenAddr.ownerOf(_tokenId) */\n      mload(0x40)\n      dup3\n      0xffffffff\n      and\n      0xe0\n      shl\n      dup2\n      mstore\n      0x04\n      add\n      tag_99\n      swap2\n      swap1\n      tag_26\n      jump\t// in\n    tag_99:\n      0x20\n      mload(0x40)\n      dup1\n      dup4\n      sub\n      dup2\n      dup7\n      dup1\n      extcodesize\n      iszero\n      dup1\n      iszero\n      tag_100\n      jumpi\n      0x00\n      dup1\n      revert\n    tag_100:\n      pop\n      gas\n      staticcall\n      iszero\n      dup1\n      iszero\n      tag_102\n      jumpi\n      returndatasize\n      0x00\n      dup1\n      returndatacopy\n      revert(0x00, returndatasize)\n    tag_102:\n      pop\n      pop\n      pop\n      pop\n      mload(0x40)\n      returndatasize\n      not(0x1f)\n      0x1f\n      dup3\n      add\n      and\n      dup3\n      add\n      dup1\n      0x40\n      mstore\n      pop\n      dup2\n      add\n      swap1\n      tag_103\n      swap2\n      swap1\n      tag_104\n      jump\t// in\n    tag_103:\n        /* \"Bid.sol\":1013:1017  _bid */\n      dup2\n        /* \"Bid.sol\":1013:1024  _bid.seller */\n      0x00\n      add\n      0x00\n        /* \"Bid.sol\":1013:1059  _bid.seller = _bid.tokenAddr.ownerOf(_tokenId) */\n      0x0100\n      exp\n      dup2\n      sload\n      dup2\n      0xffffffffffffffffffffffffffffffffffffffff\n      mul\n      not\n      and\n      swap1\n      dup4\n      0xffffffffffffffffffffffffffffffffffffffff\n      and\n      mul\n      or\n      swap1\n      sstore\n      pop\n        /* \"Bid.sol\":1083:1088  false */\n      0x00\n        /* \"Bid.sol\":1070:1074  _bid */\n      dup2\n        /* \"Bid.sol\":1070:1080  _bid.ended */\n      0x00\n      add\n      0x15\n        /* \"Bid.sol\":1070:1088  _bid.ended = false */\n      0x0100\n      exp\n      dup2\n      sload\n      dup2\n      0xff\n      mul\n      not\n      and\n      swap1\n      dup4\n      iszero\n      iszero\n      mul\n      or\n      swap1\n      sstore\n      pop\n        /* \"Bid.sol\":1110:1114  _bid */\n      dup1\n        /* \"Bid.sol\":1110:1122  _bid.started */\n      0x00\n      add\n      0x14\n      swap1\n      sload\n      swap1\n      0x0100\n      exp\n      swap1\n      div\n      0xff\n      and\n        /* \"Bid.sol\":1109:1122  !_bid.started */\n      iszero\n        /* \"Bid.sol\":1101:1143  require(!_bid.started, \"Already started!\") */\n      tag_105\n      jumpi\n      mload(0x40)\n      0x08c379a000000000000000000000000000000000000000000000000000000000\n      dup2\n      mstore\n      0x04\n      add\n      tag_106\n      swap1\n      tag_107\n      jump\t// in\n    tag_106:\n      mload(0x40)\n      dup1\n      swap2\n      sub\n      swap1\n      revert\n    tag_105:\n        /* \"Bid.sol\":1176:1180  _bid */\n      dup1\n        /* \"Bid.sol\":1176:1187  _bid.seller */\n      0x00\n      add\n      0x00\n      swap1\n      sload\n      swap1\n      0x0100\n      exp\n      swap1\n      div\n      0xffffffffffffffffffffffffffffffffffffffff\n      and\n        /* \"Bid.sol\":1162:1187  msg.sender == _bid.seller */\n      0xffffffffffffffffffffffffffffffffffffffff\n      and\n        /* \"Bid.sol\":1162:1172  msg.sender */\n      caller\n        /* \"Bid.sol\":1162:1187  msg.sender == _bid.seller */\n      0xffffffffffffffffffffffffffffffffffffffff\n      and\n      eq\n        /* \"Bid.sol\":1154:1222  require(msg.sender == _bid.seller, \"You can not start the auction!\") */\n      tag_108\n      jumpi\n      mload(0x40)\n      0x08c379a000000000000000000000000000000000000000000000000000000000\n      dup2\n      mstore\n      0x04\n      add\n      tag_109\n      swap1\n      tag_110\n      jump\t// in\n    tag_109:\n      mload(0x40)\n      dup1\n      swap2\n      sub\n      swap1\n      revert\n    tag_108:\n        /* \"Bid.sol\":1259:1260  0 */\n      0x00\n        /* \"Bid.sol\":1243:1247  _bid */\n      dup2\n        /* \"Bid.sol\":1243:1256  _bid.bidCount */\n      0x04\n      add\n        /* \"Bid.sol\":1243:1260  _bid.bidCount = 0 */\n      dup2\n      swap1\n      sstore\n      pop\n        /* \"Bid.sol\":1304:1315  startingBid */\n      dup3\n        /* \"Bid.sol\":1271:1275  _bid */\n      dup2\n        /* \"Bid.sol\":1271:1286  _bid.highestBid */\n      0x05\n      add\n        /* \"Bid.sol\":1271:1301  _bid.highestBid[_bid.bidCount] */\n      0x00\n        /* \"Bid.sol\":1287:1291  _bid */\n      dup4\n        /* \"Bid.sol\":1287:1300  _bid.bidCount */\n      0x04\n      add\n      sload\n        /* \"Bid.sol\":1271:1301  _bid.highestBid[_bid.bidCount] */\n      dup2\n      mstore\n      0x20\n      add\n      swap1\n      dup2\n      mstore\n      0x20\n      add\n      0x00\n      keccak256\n        /* \"Bid.sol\":1271:1315  _bid.highestBid[_bid.bidCount] = startingBid */\n      dup2\n      swap1\n      sstore\n      pop\n        /* \"Bid.sol\":1351:1359  _tokenId */\n      dup4\n        /* \"Bid.sol\":1336:1340  _bid */\n      dup2\n        /* \"Bid.sol\":1336:1348  _bid.tokenId */\n      0x03\n      add\n        /* \"Bid.sol\":1336:1359  _bid.tokenId = _tokenId */\n      dup2\n      swap1\n      sstore\n      pop\n        /* \"Bid.sol\":1370:1374  _bid */\n      dup1\n        /* \"Bid.sol\":1370:1384  _bid.tokenAddr */\n      0x02\n      add\n      0x00\n      swap1\n      sload\n      swap1\n      0x0100\n      exp\n      swap1\n      div\n      0xffffffffffffffffffffffffffffffffffffffff\n      and\n        /* \"Bid.sol\":1370:1397  _bid.tokenAddr.transferFrom */\n      0xffffffffffffffffffffffffffffffffffffffff\n      and\n      0x23b872dd\n        /* \"Bid.sol\":1398:1408  msg.sender */\n      caller\n        /* \"Bid.sol\":1418:1422  this */\n      address\n        /* \"Bid.sol\":1425:1429  _bid */\n      dup5\n        /* \"Bid.sol\":1425:1437  _bid.tokenId */\n      0x03\n      add\n      sload\n        /* \"Bid.sol\":1370:1438  _bid.tokenAddr.transferFrom(msg.sender, address(this), _bid.tokenId) */\n      mload(0x40)\n      dup5\n      0xffffffff\n      and\n      0xe0\n      shl\n      dup2\n      mstore\n      0x04\n      add\n      tag_111\n      swap4\n      swap3\n      swap2\n      swap1\n      tag_69\n      jump\t// in\n    tag_111:\n      0x00\n      mload(0x40)\n      dup1\n      dup4\n      sub\n      dup2\n      0x00\n      dup8\n      dup1\n      extcodesize\n      iszero\n      dup1\n      iszero\n      tag_112\n      jumpi\n      0x00\n      dup1\n      revert\n    tag_112:\n      pop\n      gas\n      call\n      iszero\n      dup1\n      iszero\n      tag_114\n      jumpi\n      returndatasize\n      0x00\n      dup1\n      returndatacopy\n      revert(0x00, returndatasize)\n    tag_114:\n      pop\n      pop\n      pop\n      pop\n        /* \"Bid.sol\":1466:1470  true */\n      0x01\n        /* \"Bid.sol\":1451:1455  _bid */\n      dup2\n        /* \"Bid.sol\":1451:1463  _bid.started */\n      0x00\n      add\n      0x14\n        /* \"Bid.sol\":1451:1470  _bid.started = true */\n      0x0100\n      exp\n      dup2\n      sload\n      dup2\n      0xff\n      mul\n      not\n      and\n      swap1\n      dup4\n      iszero\n      iszero\n      mul\n      or\n      swap1\n      sstore\n      pop\n        /* \"Bid.sol\":1525:1531  1 days */\n      0x015180\n        /* \"Bid.sol\":1513:1522  dayAmount */\n      dup3\n        /* \"Bid.sol\":1513:1531  dayAmount * 1 days */\n      tag_115\n      swap2\n      swap1\n      tag_116\n      jump\t// in\n    tag_115:\n        /* \"Bid.sol\":1494:1509  block.timestamp */\n      timestamp\n        /* \"Bid.sol\":1494:1532  block.timestamp + (dayAmount * 1 days) */\n      tag_117\n      swap2\n      swap1\n      tag_55\n      jump\t// in\n    tag_117:\n        /* \"Bid.sol\":1481:1485  _bid */\n      dup2\n        /* \"Bid.sol\":1481:1491  _bid.endAt */\n      0x01\n      add\n        /* \"Bid.sol\":1481:1532  _bid.endAt = block.timestamp + (dayAmount * 1 days) */\n      dup2\n      swap1\n      sstore\n      pop\n        /* \"Bid.sol\":1568:1576  _tokenId */\n      dup4\n        /* \"Bid.sol\":1556:1566  _tokenAddr */\n      dup6\n        /* \"Bid.sol\":1550:1602  Start(_tokenAddr, _tokenId, startingBid, _bid.endAt) */\n      0xffffffffffffffffffffffffffffffffffffffff\n      and\n      0x3b305515dbe345238649f5ce343c57ae67d5727443f8d744b2b793c3231e3ad9\n        /* \"Bid.sol\":1578:1589  startingBid */\n      dup6\n        /* \"Bid.sol\":1591:1595  _bid */\n      dup5\n        /* \"Bid.sol\":1591:1601  _bid.endAt */\n      0x01\n      add\n      sload\n        /* \"Bid.sol\":1550:1602  Start(_tokenAddr, _tokenId, startingBid, _bid.endAt) */\n      mload(0x40)\n      tag_118\n      swap3\n      swap2\n      swap1\n      tag_119\n      jump\t// in\n    tag_118:\n      mload(0x40)\n      dup1\n      swap2\n      sub\n      swap1\n      log3\n        /* \"Bid.sol\":892:1610  {\r... */\n      pop\n        /* \"Bid.sol\":799:1610  function start(address _tokenAddr, uint _tokenId, uint startingBid, uint dayAmount) external {\r... */\n      pop\n      pop\n      pop\n      pop\n      jump\t// out\n        /* \"Bid.sol\":2378:2980  function withdraw(address _tokenAddr, uint _tokenId) external payable {\r... */\n    tag_34:\n        /* \"Bid.sol\":2459:2479  Bidding storage _bid */\n      0x00\n        /* \"Bid.sol\":2482:2490  biddings */\n      dup1\n        /* \"Bid.sol\":2482:2502  biddings[_tokenAddr] */\n      0x00\n        /* \"Bid.sol\":2491:2501  _tokenAddr */\n      dup5\n        /* \"Bid.sol\":2482:2502  biddings[_tokenAddr] */\n      0xffffffffffffffffffffffffffffffffffffffff\n      and\n      0xffffffffffffffffffffffffffffffffffffffff\n      and\n      dup2\n      mstore\n      0x20\n      add\n      swap1\n      dup2\n      mstore\n      0x20\n      add\n      0x00\n      keccak256\n        /* \"Bid.sol\":2482:2512  biddings[_tokenAddr][_tokenId] */\n      0x00\n        /* \"Bid.sol\":2503:2511  _tokenId */\n      dup4\n        /* \"Bid.sol\":2482:2512  biddings[_tokenAddr][_tokenId] */\n      dup2\n      mstore\n      0x20\n      add\n      swap1\n      dup2\n      mstore\n      0x20\n      add\n      0x00\n      keccak256\n        /* \"Bid.sol\":2459:2512  Bidding storage _bid = biddings[_tokenAddr][_tokenId] */\n      swap1\n      pop\n        /* \"Bid.sol\":2523:2531  uint bal */\n      0x00\n        /* \"Bid.sol\":2534:2538  _bid */\n      dup2\n        /* \"Bid.sol\":2534:2543  _bid.bids */\n      0x07\n      add\n        /* \"Bid.sol\":2534:2555  _bid.bids[msg.sender] */\n      0x00\n        /* \"Bid.sol\":2544:2554  msg.sender */\n      caller\n        /* \"Bid.sol\":2534:2555  _bid.bids[msg.sender] */\n      0xffffffffffffffffffffffffffffffffffffffff\n      and\n      0xffffffffffffffffffffffffffffffffffffffff\n      and\n      dup2\n      mstore\n      0x20\n      add\n      swap1\n      dup2\n      mstore\n      0x20\n      add\n      0x00\n      keccak256\n      sload\n        /* \"Bid.sol\":2523:2555  uint bal = _bid.bids[msg.sender] */\n      swap1\n      pop\n        /* \"Bid.sol\":2583:2584  0 */\n      0x00\n        /* \"Bid.sol\":2576:2579  bal */\n      dup2\n        /* \"Bid.sol\":2576:2584  bal != 0 */\n      eq\n      iszero\n        /* \"Bid.sol\":2576:2603  bal != 0 && bal <= balances */\n      dup1\n      iszero\n      tag_121\n      jumpi\n      pop\n        /* \"Bid.sol\":2595:2603  balances */\n      sload(0x01)\n        /* \"Bid.sol\":2588:2591  bal */\n      dup2\n        /* \"Bid.sol\":2588:2603  bal <= balances */\n      gt\n      iszero\n        /* \"Bid.sol\":2576:2603  bal != 0 && bal <= balances */\n    tag_121:\n        /* \"Bid.sol\":2568:2626  require(bal != 0 && bal <= balances, \"Could not withdraw\") */\n      tag_122\n      jumpi\n      mload(0x40)\n      0x08c379a000000000000000000000000000000000000000000000000000000000\n      dup2\n      mstore\n      0x04\n      add\n      tag_123\n      swap1\n      tag_93\n      jump\t// in\n    tag_123:\n      mload(0x40)\n      dup1\n      swap2\n      sub\n      swap1\n      revert\n    tag_122:\n        /* \"Bid.sol\":2657:2661  _bid */\n      dup2\n        /* \"Bid.sol\":2657:2675  _bid.highestBidder */\n      0x06\n      add\n        /* \"Bid.sol\":2657:2690  _bid.highestBidder[_bid.bidCount] */\n      0x00\n        /* \"Bid.sol\":2676:2680  _bid */\n      dup4\n        /* \"Bid.sol\":2676:2689  _bid.bidCount */\n      0x04\n      add\n      sload\n        /* \"Bid.sol\":2657:2690  _bid.highestBidder[_bid.bidCount] */\n      dup2\n      mstore\n      0x20\n      add\n      swap1\n      dup2\n      mstore\n      0x20\n      add\n      0x00\n      keccak256\n      0x00\n      swap1\n      sload\n      swap1\n      0x0100\n      exp\n      swap1\n      div\n      0xffffffffffffffffffffffffffffffffffffffff\n      and\n        /* \"Bid.sol\":2643:2690  msg.sender == _bid.highestBidder[_bid.bidCount] */\n      0xffffffffffffffffffffffffffffffffffffffff\n      and\n        /* \"Bid.sol\":2643:2653  msg.sender */\n      caller\n        /* \"Bid.sol\":2643:2690  msg.sender == _bid.highestBidder[_bid.bidCount] */\n      0xffffffffffffffffffffffffffffffffffffffff\n      and\n      eq\n        /* \"Bid.sol\":2639:2734  if (msg.sender == _bid.highestBidder[_bid.bidCount]) {\r... */\n      iszero\n      tag_124\n      jumpi\n        /* \"Bid.sol\":2707:2711  _bid */\n      dup2\n        /* \"Bid.sol\":2707:2720  _bid.bidCount */\n      0x04\n      add\n      0x00\n        /* \"Bid.sol\":2707:2722  _bid.bidCount-- */\n      dup2\n      sload\n      dup1\n      swap3\n      swap2\n      swap1\n      tag_125\n      swap1\n      tag_126\n      jump\t// in\n    tag_125:\n      swap2\n      swap1\n      pop\n      sstore\n      pop\n        /* \"Bid.sol\":2639:2734  if (msg.sender == _bid.highestBidder[_bid.bidCount]) {\r... */\n    tag_124:\n        /* \"Bid.sol\":2770:2771  0 */\n      0x00\n        /* \"Bid.sol\":2746:2750  _bid */\n      dup3\n        /* \"Bid.sol\":2746:2755  _bid.bids */\n      0x07\n      add\n        /* \"Bid.sol\":2746:2767  _bid.bids[msg.sender] */\n      0x00\n        /* \"Bid.sol\":2756:2766  msg.sender */\n      caller\n        /* \"Bid.sol\":2746:2767  _bid.bids[msg.sender] */\n      0xffffffffffffffffffffffffffffffffffffffff\n      and\n      0xffffffffffffffffffffffffffffffffffffffff\n      and\n      dup2\n      mstore\n      0x20\n      add\n      swap1\n      dup2\n      mstore\n      0x20\n      add\n      0x00\n      keccak256\n        /* \"Bid.sol\":2746:2771  _bid.bids[msg.sender] = 0 */\n      dup2\n      swap1\n      sstore\n      pop\n        /* \"Bid.sol\":2792:2802  msg.sender */\n      caller\n        /* \"Bid.sol\":2784:2812  payable(msg.sender).transfer */\n      0xffffffffffffffffffffffffffffffffffffffff\n      and\n        /* \"Bid.sol\":2784:2817  payable(msg.sender).transfer(bal) */\n      0x08fc\n        /* \"Bid.sol\":2813:2816  bal */\n      dup3\n        /* \"Bid.sol\":2784:2817  payable(msg.sender).transfer(bal) */\n      swap1\n      dup2\n      iszero\n      mul\n      swap1\n      mload(0x40)\n      0x00\n      mload(0x40)\n      dup1\n      dup4\n      sub\n      dup2\n      dup6\n      dup9\n      dup9\n      call\n      swap4\n      pop\n      pop\n      pop\n      pop\n      iszero\n      dup1\n      iszero\n      tag_128\n      jumpi\n      returndatasize\n      0x00\n      dup1\n      returndatacopy\n      revert(0x00, returndatasize)\n    tag_128:\n      pop\n        /* \"Bid.sol\":2840:2843  bal */\n      dup1\n        /* \"Bid.sol\":2828:2836  balances */\n      0x01\n      0x00\n        /* \"Bid.sol\":2828:2843  balances -= bal */\n      dup3\n      dup3\n      sload\n      tag_129\n      swap2\n      swap1\n      tag_76\n      jump\t// in\n    tag_129:\n      swap3\n      pop\n      pop\n      dup2\n      swap1\n      sstore\n      pop\n        /* \"Bid.sol\":2865:2869  _bid */\n      dup2\n        /* \"Bid.sol\":2865:2883  _bid.highestBidder */\n      0x06\n      add\n        /* \"Bid.sol\":2865:2898  _bid.highestBidder[_bid.bidCount] */\n      0x00\n        /* \"Bid.sol\":2884:2888  _bid */\n      dup4\n        /* \"Bid.sol\":2884:2897  _bid.bidCount */\n      0x04\n      add\n      sload\n        /* \"Bid.sol\":2865:2898  _bid.highestBidder[_bid.bidCount] */\n      dup2\n      mstore\n      0x20\n      add\n      swap1\n      dup2\n      mstore\n      0x20\n      add\n      0x00\n      keccak256\n      0x00\n      swap1\n      sload\n      swap1\n      0x0100\n      exp\n      swap1\n      div\n      0xffffffffffffffffffffffffffffffffffffffff\n      and\n        /* \"Bid.sol\":2861:2931  Bid(_bid.highestBidder[_bid.bidCount], _bid.highestBid[_bid.bidCount]) */\n      0xffffffffffffffffffffffffffffffffffffffff\n      and\n      0xe684a55f31b79eca403df938249029212a5925ec6be8012e099b45bc1019e5d2\n        /* \"Bid.sol\":2900:2904  _bid */\n      dup4\n        /* \"Bid.sol\":2900:2915  _bid.highestBid */\n      0x05\n      add\n        /* \"Bid.sol\":2900:2930  _bid.highestBid[_bid.bidCount] */\n      0x00\n        /* \"Bid.sol\":2916:2920  _bid */\n      dup6\n        /* \"Bid.sol\":2916:2929  _bid.bidCount */\n      0x04\n      add\n      sload\n        /* \"Bid.sol\":2900:2930  _bid.highestBid[_bid.bidCount] */\n      dup2\n      mstore\n      0x20\n      add\n      swap1\n      dup2\n      mstore\n      0x20\n      add\n      0x00\n      keccak256\n      sload\n        /* \"Bid.sol\":2861:2931  Bid(_bid.highestBidder[_bid.bidCount], _bid.highestBid[_bid.bidCount]) */\n      mload(0x40)\n      tag_130\n      swap2\n      swap1\n      tag_26\n      jump\t// in\n    tag_130:\n      mload(0x40)\n      dup1\n      swap2\n      sub\n      swap1\n      log2\n        /* \"Bid.sol\":2956:2966  msg.sender */\n      caller\n        /* \"Bid.sol\":2947:2972  Withdraw(msg.sender, bal) */\n      0xffffffffffffffffffffffffffffffffffffffff\n      and\n      0x884edad9ce6fa2440d8a54cc123490eb96d2768479d49ff9c7366125a9424364\n        /* \"Bid.sol\":2968:2971  bal */\n      dup3\n        /* \"Bid.sol\":2947:2972  Withdraw(msg.sender, bal) */\n      mload(0x40)\n      tag_131\n      swap2\n      swap1\n      tag_26\n      jump\t// in\n    tag_131:\n      mload(0x40)\n      dup1\n      swap2\n      sub\n      swap1\n      log2\n        /* \"Bid.sol\":2448:2980  {\r... */\n      pop\n      pop\n        /* \"Bid.sol\":2378:2980  function withdraw(address _tokenAddr, uint _tokenId) external payable {\r... */\n      pop\n      pop\n      jump\t// out\n        /* \"Bid.sol\":375:434  mapping(address =>mapping(uint => Bidding)) public biddings */\n    tag_38:\n      mstore(0x20, 0x00)\n      dup2\n      0x00\n      mstore\n      mstore(0x20, keccak256(0x00, 0x40))\n      dup1\n      0x00\n      mstore\n      keccak256(0x00, 0x40)\n      0x00\n      swap2\n      pop\n      swap2\n      pop\n      pop\n      dup1\n      0x00\n      add\n      0x00\n      swap1\n      sload\n      swap1\n      0x0100\n      exp\n      swap1\n      div\n      0xffffffffffffffffffffffffffffffffffffffff\n      and\n      swap1\n      dup1\n      0x00\n      add\n      0x14\n      swap1\n      sload\n      swap1\n      0x0100\n      exp\n      swap1\n      div\n      0xff\n      and\n      swap1\n      dup1\n      0x00\n      add\n      0x15\n      swap1\n      sload\n      swap1\n      0x0100\n      exp\n      swap1\n      div\n      0xff\n      and\n      swap1\n      dup1\n      0x01\n      add\n      sload\n      swap1\n      dup1\n      0x02\n      add\n      0x00\n      swap1\n      sload\n      swap1\n      0x0100\n      exp\n      swap1\n      div\n      0xffffffffffffffffffffffffffffffffffffffff\n      and\n      swap1\n      dup1\n      0x03\n      add\n      sload\n      swap1\n      dup1\n      0x04\n      add\n      sload\n      swap1\n      pop\n      dup8\n      jump\t// out\n        /* \"#utility.yul\":7:146   */\n    tag_133:\n        /* \"#utility.yul\":53:58   */\n      0x00\n        /* \"#utility.yul\":91:97   */\n      dup2\n        /* \"#utility.yul\":78:98   */\n      calldataload\n        /* \"#utility.yul\":69:98   */\n      swap1\n      pop\n        /* \"#utility.yul\":107:140   */\n      tag_135\n        /* \"#utility.yul\":134:139   */\n      dup2\n        /* \"#utility.yul\":107:140   */\n      tag_136\n      jump\t// in\n    tag_135:\n        /* \"#utility.yul\":7:146   */\n      swap3\n      swap2\n      pop\n      pop\n      jump\t// out\n        /* \"#utility.yul\":152:295   */\n    tag_137:\n        /* \"#utility.yul\":209:214   */\n      0x00\n        /* \"#utility.yul\":240:246   */\n      dup2\n        /* \"#utility.yul\":234:247   */\n      mload\n        /* \"#utility.yul\":225:247   */\n      swap1\n      pop\n        /* \"#utility.yul\":256:289   */\n      tag_139\n        /* \"#utility.yul\":283:288   */\n      dup2\n        /* \"#utility.yul\":256:289   */\n      tag_136\n      jump\t// in\n    tag_139:\n        /* \"#utility.yul\":152:295   */\n      swap3\n      swap2\n      pop\n      pop\n      jump\t// out\n        /* \"#utility.yul\":301:440   */\n    tag_140:\n        /* \"#utility.yul\":347:352   */\n      0x00\n        /* \"#utility.yul\":385:391   */\n      dup2\n        /* \"#utility.yul\":372:392   */\n      calldataload\n        /* \"#utility.yul\":363:392   */\n      swap1\n      pop\n        /* \"#utility.yul\":401:434   */\n      tag_142\n        /* \"#utility.yul\":428:433   */\n      dup2\n        /* \"#utility.yul\":401:434   */\n      tag_143\n      jump\t// in\n    tag_142:\n        /* \"#utility.yul\":301:440   */\n      swap3\n      swap2\n      pop\n      pop\n      jump\t// out\n        /* \"#utility.yul\":446:797   */\n    tag_104:\n        /* \"#utility.yul\":516:522   */\n      0x00\n        /* \"#utility.yul\":565:567   */\n      0x20\n        /* \"#utility.yul\":553:562   */\n      dup3\n        /* \"#utility.yul\":544:551   */\n      dup5\n        /* \"#utility.yul\":540:563   */\n      sub\n        /* \"#utility.yul\":536:568   */\n      slt\n        /* \"#utility.yul\":533:652   */\n      iszero\n      tag_145\n      jumpi\n        /* \"#utility.yul\":571:650   */\n      tag_146\n      tag_147\n      jump\t// in\n    tag_146:\n        /* \"#utility.yul\":533:652   */\n    tag_145:\n        /* \"#utility.yul\":691:692   */\n      0x00\n        /* \"#utility.yul\":716:780   */\n      tag_148\n        /* \"#utility.yul\":772:779   */\n      dup5\n        /* \"#utility.yul\":763:769   */\n      dup3\n        /* \"#utility.yul\":752:761   */\n      dup6\n        /* \"#utility.yul\":748:770   */\n      add\n        /* \"#utility.yul\":716:780   */\n      tag_137\n      jump\t// in\n    tag_148:\n        /* \"#utility.yul\":706:780   */\n      swap2\n      pop\n        /* \"#utility.yul\":662:790   */\n      pop\n        /* \"#utility.yul\":446:797   */\n      swap3\n      swap2\n      pop\n      pop\n      jump\t// out\n        /* \"#utility.yul\":803:1277   */\n    tag_12:\n        /* \"#utility.yul\":871:877   */\n      0x00\n        /* \"#utility.yul\":879:885   */\n      dup1\n        /* \"#utility.yul\":928:930   */\n      0x40\n        /* \"#utility.yul\":916:925   */\n      dup4\n        /* \"#utility.yul\":907:914   */\n      dup6\n        /* \"#utility.yul\":903:926   */\n      sub\n        /* \"#utility.yul\":899:931   */\n      slt\n        /* \"#utility.yul\":896:1015   */\n      iszero\n      tag_150\n      jumpi\n        /* \"#utility.yul\":934:1013   */\n      tag_151\n      tag_147\n      jump\t// in\n    tag_151:\n        /* \"#utility.yul\":896:1015   */\n    tag_150:\n        /* \"#utility.yul\":1054:1055   */\n      0x00\n        /* \"#utility.yul\":1079:1132   */\n      tag_152\n        /* \"#utility.yul\":1124:1131   */\n      dup6\n        /* \"#utility.yul\":1115:1121   */\n      dup3\n        /* \"#utility.yul\":1104:1113   */\n      dup7\n        /* \"#utility.yul\":1100:1122   */\n      add\n        /* \"#utility.yul\":1079:1132   */\n      tag_133\n      jump\t// in\n    tag_152:\n        /* \"#utility.yul\":1069:1132   */\n      swap3\n      pop\n        /* \"#utility.yul\":1025:1142   */\n      pop\n        /* \"#utility.yul\":1181:1183   */\n      0x20\n        /* \"#utility.yul\":1207:1260   */\n      tag_153\n        /* \"#utility.yul\":1252:1259   */\n      dup6\n        /* \"#utility.yul\":1243:1249   */\n      dup3\n        /* \"#utility.yul\":1232:1241   */\n      dup7\n        /* \"#utility.yul\":1228:1250   */\n      add\n        /* \"#utility.yul\":1207:1260   */\n      tag_140\n      jump\t// in\n    tag_153:\n        /* \"#utility.yul\":1197:1260   */\n      swap2\n      pop\n        /* \"#utility.yul\":1152:1270   */\n      pop\n        /* \"#utility.yul\":803:1277   */\n      swap3\n      pop\n      swap3\n      swap1\n      pop\n      jump\t// out\n        /* \"#utility.yul\":1283:1902   */\n    tag_20:\n        /* \"#utility.yul\":1360:1366   */\n      0x00\n        /* \"#utility.yul\":1368:1374   */\n      dup1\n        /* \"#utility.yul\":1376:1382   */\n      0x00\n        /* \"#utility.yul\":1425:1427   */\n      0x60\n        /* \"#utility.yul\":1413:1422   */\n      dup5\n        /* \"#utility.yul\":1404:1411   */\n      dup7\n        /* \"#utility.yul\":1400:1423   */\n      sub\n        /* \"#utility.yul\":1396:1428   */\n      slt\n        /* \"#utility.yul\":1393:1512   */\n      iszero\n      tag_155\n      jumpi\n        /* \"#utility.yul\":1431:1510   */\n      tag_156\n      tag_147\n      jump\t// in\n    tag_156:\n        /* \"#utility.yul\":1393:1512   */\n    tag_155:\n        /* \"#utility.yul\":1551:1552   */\n      0x00\n        /* \"#utility.yul\":1576:1629   */\n      tag_157\n        /* \"#utility.yul\":1621:1628   */\n      dup7\n        /* \"#utility.yul\":1612:1618   */\n      dup3\n        /* \"#utility.yul\":1601:1610   */\n      dup8\n        /* \"#utility.yul\":1597:1619   */\n      add\n        /* \"#utility.yul\":1576:1629   */\n      tag_133\n      jump\t// in\n    tag_157:\n        /* \"#utility.yul\":1566:1629   */\n      swap4\n      pop\n        /* \"#utility.yul\":1522:1639   */\n      pop\n        /* \"#utility.yul\":1678:1680   */\n      0x20\n        /* \"#utility.yul\":1704:1757   */\n      tag_158\n        /* \"#utility.yul\":1749:1756   */\n      dup7\n        /* \"#utility.yul\":1740:1746   */\n      dup3\n        /* \"#utility.yul\":1729:1738   */\n      dup8\n        /* \"#utility.yul\":1725:1747   */\n      add\n        /* \"#utility.yul\":1704:1757   */\n      tag_140\n      jump\t// in\n    tag_158:\n        /* \"#utility.yul\":1694:1757   */\n      swap3\n      pop\n        /* \"#utility.yul\":1649:1767   */\n      pop\n        /* \"#utility.yul\":1806:1808   */\n      0x40\n        /* \"#utility.yul\":1832:1885   */\n      tag_159\n        /* \"#utility.yul\":1877:1884   */\n      dup7\n        /* \"#utility.yul\":1868:1874   */\n      dup3\n        /* \"#utility.yul\":1857:1866   */\n      dup8\n        /* \"#utility.yul\":1853:1875   */\n      add\n        /* \"#utility.yul\":1832:1885   */\n      tag_133\n      jump\t// in\n    tag_159:\n        /* \"#utility.yul\":1822:1885   */\n      swap2\n      pop\n        /* \"#utility.yul\":1777:1895   */\n      pop\n        /* \"#utility.yul\":1283:1902   */\n      swap3\n      pop\n      swap3\n      pop\n      swap3\n      jump\t// out\n        /* \"#utility.yul\":1908:2673   */\n    tag_30:\n        /* \"#utility.yul\":1994:2000   */\n      0x00\n        /* \"#utility.yul\":2002:2008   */\n      dup1\n        /* \"#utility.yul\":2010:2016   */\n      0x00\n        /* \"#utility.yul\":2018:2024   */\n      dup1\n        /* \"#utility.yul\":2067:2070   */\n      0x80\n        /* \"#utility.yul\":2055:2064   */\n      dup6\n        /* \"#utility.yul\":2046:2053   */\n      dup8\n        /* \"#utility.yul\":2042:2065   */\n      sub\n        /* \"#utility.yul\":2038:2071   */\n      slt\n        /* \"#utility.yul\":2035:2155   */\n      iszero\n      tag_161\n      jumpi\n        /* \"#utility.yul\":2074:2153   */\n      tag_162\n      tag_147\n      jump\t// in\n    tag_162:\n        /* \"#utility.yul\":2035:2155   */\n    tag_161:\n        /* \"#utility.yul\":2194:2195   */\n      0x00\n        /* \"#utility.yul\":2219:2272   */\n      tag_163\n        /* \"#utility.yul\":2264:2271   */\n      dup8\n        /* \"#utility.yul\":2255:2261   */\n      dup3\n        /* \"#utility.yul\":2244:2253   */\n      dup9\n        /* \"#utility.yul\":2240:2262   */\n      add\n        /* \"#utility.yul\":2219:2272   */\n      tag_133\n      jump\t// in\n    tag_163:\n        /* \"#utility.yul\":2209:2272   */\n      swap5\n      pop\n        /* \"#utility.yul\":2165:2282   */\n      pop\n        /* \"#utility.yul\":2321:2323   */\n      0x20\n        /* \"#utility.yul\":2347:2400   */\n      tag_164\n        /* \"#utility.yul\":2392:2399   */\n      dup8\n        /* \"#utility.yul\":2383:2389   */\n      dup3\n        /* \"#utility.yul\":2372:2381   */\n      dup9\n        /* \"#utility.yul\":2368:2390   */\n      add\n        /* \"#utility.yul\":2347:2400   */\n      tag_140\n      jump\t// in\n    tag_164:\n        /* \"#utility.yul\":2337:2400   */\n      swap4\n      pop\n        /* \"#utility.yul\":2292:2410   */\n      pop\n        /* \"#utility.yul\":2449:2451   */\n      0x40\n        /* \"#utility.yul\":2475:2528   */\n      tag_165\n        /* \"#utility.yul\":2520:2527   */\n      dup8\n        /* \"#utility.yul\":2511:2517   */\n      dup3\n        /* \"#utility.yul\":2500:2509   */\n      dup9\n        /* \"#utility.yul\":2496:2518   */\n      add\n        /* \"#utility.yul\":2475:2528   */\n      tag_140\n      jump\t// in\n    tag_165:\n        /* \"#utility.yul\":2465:2528   */\n      swap3\n      pop\n        /* \"#utility.yul\":2420:2538   */\n      pop\n        /* \"#utility.yul\":2577:2579   */\n      0x60\n        /* \"#utility.yul\":2603:2656   */\n      tag_166\n        /* \"#utility.yul\":2648:2655   */\n      dup8\n        /* \"#utility.yul\":2639:2645   */\n      dup3\n        /* \"#utility.yul\":2628:2637   */\n      dup9\n        /* \"#utility.yul\":2624:2646   */\n      add\n        /* \"#utility.yul\":2603:2656   */\n      tag_140\n      jump\t// in\n    tag_166:\n        /* \"#utility.yul\":2593:2656   */\n      swap2\n      pop\n        /* \"#utility.yul\":2548:2666   */\n      pop\n        /* \"#utility.yul\":1908:2673   */\n      swap3\n      swap6\n      swap2\n      swap5\n      pop\n      swap3\n      pop\n      jump\t// out\n        /* \"#utility.yul\":2679:2797   */\n    tag_167:\n        /* \"#utility.yul\":2766:2790   */\n      tag_169\n        /* \"#utility.yul\":2784:2789   */\n      dup2\n        /* \"#utility.yul\":2766:2790   */\n      tag_170\n      jump\t// in\n    tag_169:\n        /* \"#utility.yul\":2761:2764   */\n      dup3\n        /* \"#utility.yul\":2754:2791   */\n      mstore\n        /* \"#utility.yul\":2679:2797   */\n      pop\n      pop\n      jump\t// out\n        /* \"#utility.yul\":2803:2912   */\n    tag_171:\n        /* \"#utility.yul\":2884:2905   */\n      tag_173\n        /* \"#utility.yul\":2899:2904   */\n      dup2\n        /* \"#utility.yul\":2884:2905   */\n      tag_174\n      jump\t// in\n    tag_173:\n        /* \"#utility.yul\":2879:2882   */\n      dup3\n        /* \"#utility.yul\":2872:2906   */\n      mstore\n        /* \"#utility.yul\":2803:2912   */\n      pop\n      pop\n      jump\t// out\n        /* \"#utility.yul\":2918:3079   */\n    tag_175:\n        /* \"#utility.yul\":3020:3072   */\n      tag_177\n        /* \"#utility.yul\":3066:3071   */\n      dup2\n        /* \"#utility.yul\":3020:3072   */\n      tag_178\n      jump\t// in\n    tag_177:\n        /* \"#utility.yul\":3015:3018   */\n      dup3\n        /* \"#utility.yul\":3008:3073   */\n      mstore\n        /* \"#utility.yul\":2918:3079   */\n      pop\n      pop\n      jump\t// out\n        /* \"#utility.yul\":3085:3451   */\n    tag_179:\n        /* \"#utility.yul\":3227:3230   */\n      0x00\n        /* \"#utility.yul\":3248:3315   */\n      tag_181\n        /* \"#utility.yul\":3312:3314   */\n      0x0a\n        /* \"#utility.yul\":3307:3310   */\n      dup4\n        /* \"#utility.yul\":3248:3315   */\n      tag_182\n      jump\t// in\n    tag_181:\n        /* \"#utility.yul\":3241:3315   */\n      swap2\n      pop\n        /* \"#utility.yul\":3324:3417   */\n      tag_183\n        /* \"#utility.yul\":3413:3416   */\n      dup3\n        /* \"#utility.yul\":3324:3417   */\n      tag_184\n      jump\t// in\n    tag_183:\n        /* \"#utility.yul\":3442:3444   */\n      0x20\n        /* \"#utility.yul\":3437:3440   */\n      dup3\n        /* \"#utility.yul\":3433:3445   */\n      add\n        /* \"#utility.yul\":3426:3445   */\n      swap1\n      pop\n        /* \"#utility.yul\":3085:3451   */\n      swap2\n      swap1\n      pop\n      jump\t// out\n        /* \"#utility.yul\":3457:3823   */\n    tag_185:\n        /* \"#utility.yul\":3599:3602   */\n      0x00\n        /* \"#utility.yul\":3620:3687   */\n      tag_187\n        /* \"#utility.yul\":3684:3686   */\n      0x19\n        /* \"#utility.yul\":3679:3682   */\n      dup4\n        /* \"#utility.yul\":3620:3687   */\n      tag_182\n      jump\t// in\n    tag_187:\n        /* \"#utility.yul\":3613:3687   */\n      swap2\n      pop\n        /* \"#utility.yul\":3696:3789   */\n      tag_188\n        /* \"#utility.yul\":3785:3788   */\n      dup3\n        /* \"#utility.yul\":3696:3789   */\n      tag_189\n      jump\t// in\n    tag_188:\n        /* \"#utility.yul\":3814:3816   */\n      0x20\n        /* \"#utility.yul\":3809:3812   */\n      dup3\n        /* \"#utility.yul\":3805:3817   */\n      add\n        /* \"#utility.yul\":3798:3817   */\n      swap1\n      pop\n        /* \"#utility.yul\":3457:3823   */\n      swap2\n      swap1\n      pop\n      jump\t// out\n        /* \"#utility.yul\":3829:4195   */\n    tag_190:\n        /* \"#utility.yul\":3971:3974   */\n      0x00\n        /* \"#utility.yul\":3992:4059   */\n      tag_192\n        /* \"#utility.yul\":4056:4058   */\n      0x10\n        /* \"#utility.yul\":4051:4054   */\n      dup4\n        /* \"#utility.yul\":3992:4059   */\n      tag_182\n      jump\t// in\n    tag_192:\n        /* \"#utility.yul\":3985:4059   */\n      swap2\n      pop\n        /* \"#utility.yul\":4068:4161   */\n      tag_193\n        /* \"#utility.yul\":4157:4160   */\n      dup3\n        /* \"#utility.yul\":4068:4161   */\n      tag_194\n      jump\t// in\n    tag_193:\n        /* \"#utility.yul\":4186:4188   */\n      0x20\n        /* \"#utility.yul\":4181:4184   */\n      dup3\n        /* \"#utility.yul\":4177:4189   */\n      add\n        /* \"#utility.yul\":4170:4189   */\n      swap1\n      pop\n        /* \"#utility.yul\":3829:4195   */\n      swap2\n      swap1\n      pop\n      jump\t// out\n        /* \"#utility.yul\":4201:4566   */\n    tag_195:\n        /* \"#utility.yul\":4343:4346   */\n      0x00\n        /* \"#utility.yul\":4364:4430   */\n      tag_197\n        /* \"#utility.yul\":4428:4429   */\n      0x06\n        /* \"#utility.yul\":4423:4426   */\n      dup4\n        /* \"#utility.yul\":4364:4430   */\n      tag_182\n      jump\t// in\n    tag_197:\n        /* \"#utility.yul\":4357:4430   */\n      swap2\n      pop\n        /* \"#utility.yul\":4439:4532   */\n      tag_198\n        /* \"#utility.yul\":4528:4531   */\n      dup3\n        /* \"#utility.yul\":4439:4532   */\n      tag_199\n      jump\t// in\n    tag_198:\n        /* \"#utility.yul\":4557:4559   */\n      0x20\n        /* \"#utility.yul\":4552:4555   */\n      dup3\n        /* \"#utility.yul\":4548:4560   */\n      add\n        /* \"#utility.yul\":4541:4560   */\n      swap1\n      pop\n        /* \"#utility.yul\":4201:4566   */\n      swap2\n      swap1\n      pop\n      jump\t// out\n        /* \"#utility.yul\":4572:4938   */\n    tag_200:\n        /* \"#utility.yul\":4714:4717   */\n      0x00\n        /* \"#utility.yul\":4735:4802   */\n      tag_202\n        /* \"#utility.yul\":4799:4801   */\n      0x18\n        /* \"#utility.yul\":4794:4797   */\n      dup4\n        /* \"#utility.yul\":4735:4802   */\n      tag_182\n      jump\t// in\n    tag_202:\n        /* \"#utility.yul\":4728:4802   */\n      swap2\n      pop\n        /* \"#utility.yul\":4811:4904   */\n      tag_203\n        /* \"#utility.yul\":4900:4903   */\n      dup3\n        /* \"#utility.yul\":4811:4904   */\n      tag_204\n      jump\t// in\n    tag_203:\n        /* \"#utility.yul\":4929:4931   */\n      0x20\n        /* \"#utility.yul\":4924:4927   */\n      dup3\n        /* \"#utility.yul\":4920:4932   */\n      add\n        /* \"#utility.yul\":4913:4932   */\n      swap1\n      pop\n        /* \"#utility.yul\":4572:4938   */\n      swap2\n      swap1\n      pop\n      jump\t// out\n        /* \"#utility.yul\":4944:5310   */\n    tag_205:\n        /* \"#utility.yul\":5086:5089   */\n      0x00\n        /* \"#utility.yul\":5107:5174   */\n      tag_207\n        /* \"#utility.yul\":5171:5173   */\n      0x1e\n        /* \"#utility.yul\":5166:5169   */\n      dup4\n        /* \"#utility.yul\":5107:5174   */\n      tag_182\n      jump\t// in\n    tag_207:\n        /* \"#utility.yul\":5100:5174   */\n      swap2\n      pop\n        /* \"#utility.yul\":5183:5276   */\n      tag_208\n        /* \"#utility.yul\":5272:5275   */\n      dup3\n        /* \"#utility.yul\":5183:5276   */\n      tag_209\n      jump\t// in\n    tag_208:\n        /* \"#utility.yul\":5301:5303   */\n      0x20\n        /* \"#utility.yul\":5296:5299   */\n      dup3\n        /* \"#utility.yul\":5292:5304   */\n      add\n        /* \"#utility.yul\":5285:5304   */\n      swap1\n      pop\n        /* \"#utility.yul\":4944:5310   */\n      swap2\n      swap1\n      pop\n      jump\t// out\n        /* \"#utility.yul\":5316:5682   */\n    tag_210:\n        /* \"#utility.yul\":5458:5461   */\n      0x00\n        /* \"#utility.yul\":5479:5546   */\n      tag_212\n        /* \"#utility.yul\":5543:5545   */\n      0x0c\n        /* \"#utility.yul\":5538:5541   */\n      dup4\n        /* \"#utility.yul\":5479:5546   */\n      tag_182\n      jump\t// in\n    tag_212:\n        /* \"#utility.yul\":5472:5546   */\n      swap2\n      pop\n        /* \"#utility.yul\":5555:5648   */\n      tag_213\n        /* \"#utility.yul\":5644:5647   */\n      dup3\n        /* \"#utility.yul\":5555:5648   */\n      tag_214\n      jump\t// in\n    tag_213:\n        /* \"#utility.yul\":5673:5675   */\n      0x20\n        /* \"#utility.yul\":5668:5671   */\n      dup3\n        /* \"#utility.yul\":5664:5676   */\n      add\n        /* \"#utility.yul\":5657:5676   */\n      swap1\n      pop\n        /* \"#utility.yul\":5316:5682   */\n      swap2\n      swap1\n      pop\n      jump\t// out\n        /* \"#utility.yul\":5688:6054   */\n    tag_215:\n        /* \"#utility.yul\":5830:5833   */\n      0x00\n        /* \"#utility.yul\":5851:5918   */\n      tag_217\n        /* \"#utility.yul\":5915:5917   */\n      0x16\n        /* \"#utility.yul\":5910:5913   */\n      dup4\n        /* \"#utility.yul\":5851:5918   */\n      tag_182\n      jump\t// in\n    tag_217:\n        /* \"#utility.yul\":5844:5918   */\n      swap2\n      pop\n        /* \"#utility.yul\":5927:6020   */\n      tag_218\n        /* \"#utility.yul\":6016:6019   */\n      dup3\n        /* \"#utility.yul\":5927:6020   */\n      tag_219\n      jump\t// in\n    tag_218:\n        /* \"#utility.yul\":6045:6047   */\n      0x20\n        /* \"#utility.yul\":6040:6043   */\n      dup3\n        /* \"#utility.yul\":6036:6048   */\n      add\n        /* \"#utility.yul\":6029:6048   */\n      swap1\n      pop\n        /* \"#utility.yul\":5688:6054   */\n      swap2\n      swap1\n      pop\n      jump\t// out\n        /* \"#utility.yul\":6060:6426   */\n    tag_220:\n        /* \"#utility.yul\":6202:6205   */\n      0x00\n        /* \"#utility.yul\":6223:6290   */\n      tag_222\n        /* \"#utility.yul\":6287:6289   */\n      0x12\n        /* \"#utility.yul\":6282:6285   */\n      dup4\n        /* \"#utility.yul\":6223:6290   */\n      tag_182\n      jump\t// in\n    tag_222:\n        /* \"#utility.yul\":6216:6290   */\n      swap2\n      pop\n        /* \"#utility.yul\":6299:6392   */\n      tag_223\n        /* \"#utility.yul\":6388:6391   */\n      dup3\n        /* \"#utility.yul\":6299:6392   */\n      tag_224\n      jump\t// in\n    tag_223:\n        /* \"#utility.yul\":6417:6419   */\n      0x20\n        /* \"#utility.yul\":6412:6415   */\n      dup3\n        /* \"#utility.yul\":6408:6420   */\n      add\n        /* \"#utility.yul\":6401:6420   */\n      swap1\n      pop\n        /* \"#utility.yul\":6060:6426   */\n      swap2\n      swap1\n      pop\n      jump\t// out\n        /* \"#utility.yul\":6432:6550   */\n    tag_225:\n        /* \"#utility.yul\":6519:6543   */\n      tag_227\n        /* \"#utility.yul\":6537:6542   */\n      dup2\n        /* \"#utility.yul\":6519:6543   */\n      tag_228\n      jump\t// in\n    tag_227:\n        /* \"#utility.yul\":6514:6517   */\n      dup3\n        /* \"#utility.yul\":6507:6544   */\n      mstore\n        /* \"#utility.yul\":6432:6550   */\n      pop\n      pop\n      jump\t// out\n        /* \"#utility.yul\":6556:6998   */\n    tag_69:\n        /* \"#utility.yul\":6705:6709   */\n      0x00\n        /* \"#utility.yul\":6743:6745   */\n      0x60\n        /* \"#utility.yul\":6732:6741   */\n      dup3\n        /* \"#utility.yul\":6728:6746   */\n      add\n        /* \"#utility.yul\":6720:6746   */\n      swap1\n      pop\n        /* \"#utility.yul\":6756:6827   */\n      tag_230\n        /* \"#utility.yul\":6824:6825   */\n      0x00\n        /* \"#utility.yul\":6813:6822   */\n      dup4\n        /* \"#utility.yul\":6809:6826   */\n      add\n        /* \"#utility.yul\":6800:6806   */\n      dup7\n        /* \"#utility.yul\":6756:6827   */\n      tag_167\n      jump\t// in\n    tag_230:\n        /* \"#utility.yul\":6837:6909   */\n      tag_231\n        /* \"#utility.yul\":6905:6907   */\n      0x20\n        /* \"#utility.yul\":6894:6903   */\n      dup4\n        /* \"#utility.yul\":6890:6908   */\n      add\n        /* \"#utility.yul\":6881:6887   */\n      dup6\n        /* \"#utility.yul\":6837:6909   */\n      tag_167\n      jump\t// in\n    tag_231:\n        /* \"#utility.yul\":6919:6991   */\n      tag_232\n        /* \"#utility.yul\":6987:6989   */\n      0x40\n        /* \"#utility.yul\":6976:6985   */\n      dup4\n        /* \"#utility.yul\":6972:6990   */\n      add\n        /* \"#utility.yul\":6963:6969   */\n      dup5\n        /* \"#utility.yul\":6919:6991   */\n      tag_225\n      jump\t// in\n    tag_232:\n        /* \"#utility.yul\":6556:6998   */\n      swap5\n      swap4\n      pop\n      pop\n      pop\n      pop\n      jump\t// out\n        /* \"#utility.yul\":7004:7896   */\n    tag_40:\n        /* \"#utility.yul\":7268:7272   */\n      0x00\n        /* \"#utility.yul\":7306:7309   */\n      0xe0\n        /* \"#utility.yul\":7295:7304   */\n      dup3\n        /* \"#utility.yul\":7291:7310   */\n      add\n        /* \"#utility.yul\":7283:7310   */\n      swap1\n      pop\n        /* \"#utility.yul\":7320:7391   */\n      tag_234\n        /* \"#utility.yul\":7388:7389   */\n      0x00\n        /* \"#utility.yul\":7377:7386   */\n      dup4\n        /* \"#utility.yul\":7373:7390   */\n      add\n        /* \"#utility.yul\":7364:7370   */\n      dup11\n        /* \"#utility.yul\":7320:7391   */\n      tag_167\n      jump\t// in\n    tag_234:\n        /* \"#utility.yul\":7401:7467   */\n      tag_235\n        /* \"#utility.yul\":7463:7465   */\n      0x20\n        /* \"#utility.yul\":7452:7461   */\n      dup4\n        /* \"#utility.yul\":7448:7466   */\n      add\n        /* \"#utility.yul\":7439:7445   */\n      dup10\n        /* \"#utility.yul\":7401:7467   */\n      tag_171\n      jump\t// in\n    tag_235:\n        /* \"#utility.yul\":7477:7543   */\n      tag_236\n        /* \"#utility.yul\":7539:7541   */\n      0x40\n        /* \"#utility.yul\":7528:7537   */\n      dup4\n        /* \"#utility.yul\":7524:7542   */\n      add\n        /* \"#utility.yul\":7515:7521   */\n      dup9\n        /* \"#utility.yul\":7477:7543   */\n      tag_171\n      jump\t// in\n    tag_236:\n        /* \"#utility.yul\":7553:7625   */\n      tag_237\n        /* \"#utility.yul\":7621:7623   */\n      0x60\n        /* \"#utility.yul\":7610:7619   */\n      dup4\n        /* \"#utility.yul\":7606:7624   */\n      add\n        /* \"#utility.yul\":7597:7603   */\n      dup8\n        /* \"#utility.yul\":7553:7625   */\n      tag_225\n      jump\t// in\n    tag_237:\n        /* \"#utility.yul\":7635:7723   */\n      tag_238\n        /* \"#utility.yul\":7718:7721   */\n      0x80\n        /* \"#utility.yul\":7707:7716   */\n      dup4\n        /* \"#utility.yul\":7703:7722   */\n      add\n        /* \"#utility.yul\":7694:7700   */\n      dup7\n        /* \"#utility.yul\":7635:7723   */\n      tag_175\n      jump\t// in\n    tag_238:\n        /* \"#utility.yul\":7733:7806   */\n      tag_239\n        /* \"#utility.yul\":7801:7804   */\n      0xa0\n        /* \"#utility.yul\":7790:7799   */\n      dup4\n        /* \"#utility.yul\":7786:7805   */\n      add\n        /* \"#utility.yul\":7777:7783   */\n      dup6\n        /* \"#utility.yul\":7733:7806   */\n      tag_225\n      jump\t// in\n    tag_239:\n        /* \"#utility.yul\":7816:7889   */\n      tag_240\n        /* \"#utility.yul\":7884:7887   */\n      0xc0\n        /* \"#utility.yul\":7873:7882   */\n      dup4\n        /* \"#utility.yul\":7869:7888   */\n      add\n        /* \"#utility.yul\":7860:7866   */\n      dup5\n        /* \"#utility.yul\":7816:7889   */\n      tag_225\n      jump\t// in\n    tag_240:\n        /* \"#utility.yul\":7004:7896   */\n      swap9\n      swap8\n      pop\n      pop\n      pop\n      pop\n      pop\n      pop\n      pop\n      pop\n      jump\t// out\n        /* \"#utility.yul\":7902:8234   */\n    tag_88:\n        /* \"#utility.yul\":8023:8027   */\n      0x00\n        /* \"#utility.yul\":8061:8063   */\n      0x40\n        /* \"#utility.yul\":8050:8059   */\n      dup3\n        /* \"#utility.yul\":8046:8064   */\n      add\n        /* \"#utility.yul\":8038:8064   */\n      swap1\n      pop\n        /* \"#utility.yul\":8074:8145   */\n      tag_242\n        /* \"#utility.yul\":8142:8143   */\n      0x00\n        /* \"#utility.yul\":8131:8140   */\n      dup4\n        /* \"#utility.yul\":8127:8144   */\n      add\n        /* \"#utility.yul\":8118:8124   */\n      dup6\n        /* \"#utility.yul\":8074:8145   */\n      tag_167\n      jump\t// in\n    tag_242:\n        /* \"#utility.yul\":8155:8227   */\n      tag_243\n        /* \"#utility.yul\":8223:8225   */\n      0x20\n        /* \"#utility.yul\":8212:8221   */\n      dup4\n        /* \"#utility.yul\":8208:8226   */\n      add\n        /* \"#utility.yul\":8199:8205   */\n      dup5\n        /* \"#utility.yul\":8155:8227   */\n      tag_225\n      jump\t// in\n    tag_243:\n        /* \"#utility.yul\":7902:8234   */\n      swap4\n      swap3\n      pop\n      pop\n      pop\n      jump\t// out\n        /* \"#utility.yul\":8240:8659   */\n    tag_50:\n        /* \"#utility.yul\":8406:8410   */\n      0x00\n        /* \"#utility.yul\":8444:8446   */\n      0x20\n        /* \"#utility.yul\":8433:8442   */\n      dup3\n        /* \"#utility.yul\":8429:8447   */\n      add\n        /* \"#utility.yul\":8421:8447   */\n      swap1\n      pop\n        /* \"#utility.yul\":8493:8502   */\n      dup2\n        /* \"#utility.yul\":8487:8491   */\n      dup2\n        /* \"#utility.yul\":8483:8503   */\n      sub\n        /* \"#utility.yul\":8479:8480   */\n      0x00\n        /* \"#utility.yul\":8468:8477   */\n      dup4\n        /* \"#utility.yul\":8464:8481   */\n      add\n        /* \"#utility.yul\":8457:8504   */\n      mstore\n        /* \"#utility.yul\":8521:8652   */\n      tag_245\n        /* \"#utility.yul\":8647:8651   */\n      dup2\n        /* \"#utility.yul\":8521:8652   */\n      tag_179\n      jump\t// in\n    tag_245:\n        /* \"#utility.yul\":8513:8652   */\n      swap1\n      pop\n        /* \"#utility.yul\":8240:8659   */\n      swap2\n      swap1\n      pop\n      jump\t// out\n        /* \"#utility.yul\":8665:9084   */\n    tag_63:\n        /* \"#utility.yul\":8831:8835   */\n      0x00\n        /* \"#utility.yul\":8869:8871   */\n      0x20\n        /* \"#utility.yul\":8858:8867   */\n      dup3\n        /* \"#utility.yul\":8854:8872   */\n      add\n        /* \"#utility.yul\":8846:8872   */\n      swap1\n      pop\n        /* \"#utility.yul\":8918:8927   */\n      dup2\n        /* \"#utility.yul\":8912:8916   */\n      dup2\n        /* \"#utility.yul\":8908:8928   */\n      sub\n        /* \"#utility.yul\":8904:8905   */\n      0x00\n        /* \"#utility.yul\":8893:8902   */\n      dup4\n        /* \"#utility.yul\":8889:8906   */\n      add\n        /* \"#utility.yul\":8882:8929   */\n      mstore\n        /* \"#utility.yul\":8946:9077   */\n      tag_247\n        /* \"#utility.yul\":9072:9076   */\n      dup2\n        /* \"#utility.yul\":8946:9077   */\n      tag_185\n      jump\t// in\n    tag_247:\n        /* \"#utility.yul\":8938:9077   */\n      swap1\n      pop\n        /* \"#utility.yul\":8665:9084   */\n      swap2\n      swap1\n      pop\n      jump\t// out\n        /* \"#utility.yul\":9090:9509   */\n    tag_107:\n        /* \"#utility.yul\":9256:9260   */\n      0x00\n        /* \"#utility.yul\":9294:9296   */\n      0x20\n        /* \"#utility.yul\":9283:9292   */\n      dup3\n        /* \"#utility.yul\":9279:9297   */\n      add\n        /* \"#utility.yul\":9271:9297   */\n      swap1\n      pop\n        /* \"#utility.yul\":9343:9352   */\n      dup2\n        /* \"#utility.yul\":9337:9341   */\n      dup2\n        /* \"#utility.yul\":9333:9353   */\n      sub\n        /* \"#utility.yul\":9329:9330   */\n      0x00\n        /* \"#utility.yul\":9318:9327   */\n      dup4\n        /* \"#utility.yul\":9314:9331   */\n      add\n        /* \"#utility.yul\":9307:9354   */\n      mstore\n        /* \"#utility.yul\":9371:9502   */\n      tag_249\n        /* \"#utility.yul\":9497:9501   */\n      dup2\n        /* \"#utility.yul\":9371:9502   */\n      tag_190\n      jump\t// in\n    tag_249:\n        /* \"#utility.yul\":9363:9502   */\n      swap1\n      pop\n        /* \"#utility.yul\":9090:9509   */\n      swap2\n      swap1\n      pop\n      jump\t// out\n        /* \"#utility.yul\":9515:9934   */\n    tag_47:\n        /* \"#utility.yul\":9681:9685   */\n      0x00\n        /* \"#utility.yul\":9719:9721   */\n      0x20\n        /* \"#utility.yul\":9708:9717   */\n      dup3\n        /* \"#utility.yul\":9704:9722   */\n      add\n        /* \"#utility.yul\":9696:9722   */\n      swap1\n      pop\n        /* \"#utility.yul\":9768:9777   */\n      dup2\n        /* \"#utility.yul\":9762:9766   */\n      dup2\n        /* \"#utility.yul\":9758:9778   */\n      sub\n        /* \"#utility.yul\":9754:9755   */\n      0x00\n        /* \"#utility.yul\":9743:9752   */\n      dup4\n        /* \"#utility.yul\":9739:9756   */\n      add\n        /* \"#utility.yul\":9732:9779   */\n      mstore\n        /* \"#utility.yul\":9796:9927   */\n      tag_251\n        /* \"#utility.yul\":9922:9926   */\n      dup2\n        /* \"#utility.yul\":9796:9927   */\n      tag_195\n      jump\t// in\n    tag_251:\n        /* \"#utility.yul\":9788:9927   */\n      swap1\n      pop\n        /* \"#utility.yul\":9515:9934   */\n      swap2\n      swap1\n      pop\n      jump\t// out\n        /* \"#utility.yul\":9940:10359   */\n    tag_60:\n        /* \"#utility.yul\":10106:10110   */\n      0x00\n        /* \"#utility.yul\":10144:10146   */\n      0x20\n        /* \"#utility.yul\":10133:10142   */\n      dup3\n        /* \"#utility.yul\":10129:10147   */\n      add\n        /* \"#utility.yul\":10121:10147   */\n      swap1\n      pop\n        /* \"#utility.yul\":10193:10202   */\n      dup2\n        /* \"#utility.yul\":10187:10191   */\n      dup2\n        /* \"#utility.yul\":10183:10203   */\n      sub\n        /* \"#utility.yul\":10179:10180   */\n      0x00\n        /* \"#utility.yul\":10168:10177   */\n      dup4\n        /* \"#utility.yul\":10164:10181   */\n      add\n        /* \"#utility.yul\":10157:10204   */\n      mstore\n        /* \"#utility.yul\":10221:10352   */\n      tag_253\n        /* \"#utility.yul\":10347:10351   */\n      dup2\n        /* \"#utility.yul\":10221:10352   */\n      tag_200\n      jump\t// in\n    tag_253:\n        /* \"#utility.yul\":10213:10352   */\n      swap1\n      pop\n        /* \"#utility.yul\":9940:10359   */\n      swap2\n      swap1\n      pop\n      jump\t// out\n        /* \"#utility.yul\":10365:10784   */\n    tag_110:\n        /* \"#utility.yul\":10531:10535   */\n      0x00\n        /* \"#utility.yul\":10569:10571   */\n      0x20\n        /* \"#utility.yul\":10558:10567   */\n      dup3\n        /* \"#utility.yul\":10554:10572   */\n      add\n        /* \"#utility.yul\":10546:10572   */\n      swap1\n      pop\n        /* \"#utility.yul\":10618:10627   */\n      dup2\n        /* \"#utility.yul\":10612:10616   */\n      dup2\n        /* \"#utility.yul\":10608:10628   */\n      sub\n        /* \"#utility.yul\":10604:10605   */\n      0x00\n        /* \"#utility.yul\":10593:10602   */\n      dup4\n        /* \"#utility.yul\":10589:10606   */\n      add\n        /* \"#utility.yul\":10582:10629   */\n      mstore\n        /* \"#utility.yul\":10646:10777   */\n      tag_255\n        /* \"#utility.yul\":10772:10776   */\n      dup2\n        /* \"#utility.yul\":10646:10777   */\n      tag_205\n      jump\t// in\n    tag_255:\n        /* \"#utility.yul\":10638:10777   */\n      swap1\n      pop\n        /* \"#utility.yul\":10365:10784   */\n      swap2\n      swap1\n      pop\n      jump\t// out\n        /* \"#utility.yul\":10790:11209   */\n    tag_44:\n        /* \"#utility.yul\":10956:10960   */\n      0x00\n        /* \"#utility.yul\":10994:10996   */\n      0x20\n        /* \"#utility.yul\":10983:10992   */\n      dup3\n        /* \"#utility.yul\":10979:10997   */\n      add\n        /* \"#utility.yul\":10971:10997   */\n      swap1\n      pop\n        /* \"#utility.yul\":11043:11052   */\n      dup2\n        /* \"#utility.yul\":11037:11041   */\n      dup2\n        /* \"#utility.yul\":11033:11053   */\n      sub\n        /* \"#utility.yul\":11029:11030   */\n      0x00\n        /* \"#utility.yul\":11018:11027   */\n      dup4\n        /* \"#utility.yul\":11014:11031   */\n      add\n        /* \"#utility.yul\":11007:11054   */\n      mstore\n        /* \"#utility.yul\":11071:11202   */\n      tag_257\n        /* \"#utility.yul\":11197:11201   */\n      dup2\n        /* \"#utility.yul\":11071:11202   */\n      tag_210\n      jump\t// in\n    tag_257:\n        /* \"#utility.yul\":11063:11202   */\n      swap1\n      pop\n        /* \"#utility.yul\":10790:11209   */\n      swap2\n      swap1\n      pop\n      jump\t// out\n        /* \"#utility.yul\":11215:11634   */\n    tag_66:\n        /* \"#utility.yul\":11381:11385   */\n      0x00\n        /* \"#utility.yul\":11419:11421   */\n      0x20\n        /* \"#utility.yul\":11408:11417   */\n      dup3\n        /* \"#utility.yul\":11404:11422   */\n      add\n        /* \"#utility.yul\":11396:11422   */\n      swap1\n      pop\n        /* \"#utility.yul\":11468:11477   */\n      dup2\n        /* \"#utility.yul\":11462:11466   */\n      dup2\n        /* \"#utility.yul\":11458:11478   */\n      sub\n        /* \"#utility.yul\":11454:11455   */\n      0x00\n        /* \"#utility.yul\":11443:11452   */\n      dup4\n        /* \"#utility.yul\":11439:11456   */\n      add\n        /* \"#utility.yul\":11432:11479   */\n      mstore\n        /* \"#utility.yul\":11496:11627   */\n      tag_259\n        /* \"#utility.yul\":11622:11626   */\n      dup2\n        /* \"#utility.yul\":11496:11627   */\n      tag_215\n      jump\t// in\n    tag_259:\n        /* \"#utility.yul\":11488:11627   */\n      swap1\n      pop\n        /* \"#utility.yul\":11215:11634   */\n      swap2\n      swap1\n      pop\n      jump\t// out\n        /* \"#utility.yul\":11640:12059   */\n    tag_93:\n        /* \"#utility.yul\":11806:11810   */\n      0x00\n        /* \"#utility.yul\":11844:11846   */\n      0x20\n        /* \"#utility.yul\":11833:11842   */\n      dup3\n        /* \"#utility.yul\":11829:11847   */\n      add\n        /* \"#utility.yul\":11821:11847   */\n      swap1\n      pop\n        /* \"#utility.yul\":11893:11902   */\n      dup2\n        /* \"#utility.yul\":11887:11891   */\n      dup2\n        /* \"#utility.yul\":11883:11903   */\n      sub\n        /* \"#utility.yul\":11879:11880   */\n      0x00\n        /* \"#utility.yul\":11868:11877   */\n      dup4\n        /* \"#utility.yul\":11864:11881   */\n      add\n        /* \"#utility.yul\":11857:11904   */\n      mstore\n        /* \"#utility.yul\":11921:12052   */\n      tag_261\n        /* \"#utility.yul\":12047:12051   */\n      dup2\n        /* \"#utility.yul\":11921:12052   */\n      tag_220\n      jump\t// in\n    tag_261:\n        /* \"#utility.yul\":11913:12052   */\n      swap1\n      pop\n        /* \"#utility.yul\":11640:12059   */\n      swap2\n      swap1\n      pop\n      jump\t// out\n        /* \"#utility.yul\":12065:12287   */\n    tag_26:\n        /* \"#utility.yul\":12158:12162   */\n      0x00\n        /* \"#utility.yul\":12196:12198   */\n      0x20\n        /* \"#utility.yul\":12185:12194   */\n      dup3\n        /* \"#utility.yul\":12181:12199   */\n      add\n        /* \"#utility.yul\":12173:12199   */\n      swap1\n      pop\n        /* \"#utility.yul\":12209:12280   */\n      tag_263\n        /* \"#utility.yul\":12277:12278   */\n      0x00\n        /* \"#utility.yul\":12266:12275   */\n      dup4\n        /* \"#utility.yul\":12262:12279   */\n      add\n        /* \"#utility.yul\":12253:12259   */\n      dup5\n        /* \"#utility.yul\":12209:12280   */\n      tag_225\n      jump\t// in\n    tag_263:\n        /* \"#utility.yul\":12065:12287   */\n      swap3\n      swap2\n      pop\n      pop\n      jump\t// out\n        /* \"#utility.yul\":12293:12625   */\n    tag_119:\n        /* \"#utility.yul\":12414:12418   */\n      0x00\n        /* \"#utility.yul\":12452:12454   */\n      0x40\n        /* \"#utility.yul\":12441:12450   */\n      dup3\n        /* \"#utility.yul\":12437:12455   */\n      add\n        /* \"#utility.yul\":12429:12455   */\n      swap1\n      pop\n        /* \"#utility.yul\":12465:12536   */\n      tag_265\n        /* \"#utility.yul\":12533:12534   */\n      0x00\n        /* \"#utility.yul\":12522:12531   */\n      dup4\n        /* \"#utility.yul\":12518:12535   */\n      add\n        /* \"#utility.yul\":12509:12515   */\n      dup6\n        /* \"#utility.yul\":12465:12536   */\n      tag_225\n      jump\t// in\n    tag_265:\n        /* \"#utility.yul\":12546:12618   */\n      tag_266\n        /* \"#utility.yul\":12614:12616   */\n      0x20\n        /* \"#utility.yul\":12603:12612   */\n      dup4\n        /* \"#utility.yul\":12599:12617   */\n      add\n        /* \"#utility.yul\":12590:12596   */\n      dup5\n        /* \"#utility.yul\":12546:12618   */\n      tag_225\n      jump\t// in\n    tag_266:\n        /* \"#utility.yul\":12293:12625   */\n      swap4\n      swap3\n      pop\n      pop\n      pop\n      jump\t// out\n        /* \"#utility.yul\":12712:12881   */\n    tag_182:\n        /* \"#utility.yul\":12796:12807   */\n      0x00\n        /* \"#utility.yul\":12830:12836   */\n      dup3\n        /* \"#utility.yul\":12825:12828   */\n      dup3\n        /* \"#utility.yul\":12818:12837   */\n      mstore\n        /* \"#utility.yul\":12870:12874   */\n      0x20\n        /* \"#utility.yul\":12865:12868   */\n      dup3\n        /* \"#utility.yul\":12861:12875   */\n      add\n        /* \"#utility.yul\":12846:12875   */\n      swap1\n      pop\n        /* \"#utility.yul\":12712:12881   */\n      swap3\n      swap2\n      pop\n      pop\n      jump\t// out\n        /* \"#utility.yul\":12887:13192   */\n    tag_55:\n        /* \"#utility.yul\":12927:12930   */\n      0x00\n        /* \"#utility.yul\":12946:12966   */\n      tag_271\n        /* \"#utility.yul\":12964:12965   */\n      dup3\n        /* \"#utility.yul\":12946:12966   */\n      tag_228\n      jump\t// in\n    tag_271:\n        /* \"#utility.yul\":12941:12966   */\n      swap2\n      pop\n        /* \"#utility.yul\":12980:13000   */\n      tag_272\n        /* \"#utility.yul\":12998:12999   */\n      dup4\n        /* \"#utility.yul\":12980:13000   */\n      tag_228\n      jump\t// in\n    tag_272:\n        /* \"#utility.yul\":12975:13000   */\n      swap3\n      pop\n        /* \"#utility.yul\":13134:13135   */\n      dup3\n        /* \"#utility.yul\":13066:13132   */\n      0xffffffffffffffffffffffffffffffffffffffffffffffffffffffffffffffff\n        /* \"#utility.yul\":13062:13136   */\n      sub\n        /* \"#utility.yul\":13059:13060   */\n      dup3\n        /* \"#utility.yul\":13056:13137   */\n      gt\n        /* \"#utility.yul\":13053:13160   */\n      iszero\n      tag_273\n      jumpi\n        /* \"#utility.yul\":13140:13158   */\n      tag_274\n      tag_275\n      jump\t// in\n    tag_274:\n        /* \"#utility.yul\":13053:13160   */\n    tag_273:\n        /* \"#utility.yul\":13184:13185   */\n      dup3\n        /* \"#utility.yul\":13181:13182   */\n      dup3\n        /* \"#utility.yul\":13177:13186   */\n      add\n        /* \"#utility.yul\":13170:13186   */\n      swap1\n      pop\n        /* \"#utility.yul\":12887:13192   */\n      swap3\n      swap2\n      pop\n      pop\n      jump\t// out\n        /* \"#utility.yul\":13198:13546   */\n    tag_116:\n        /* \"#utility.yul\":13238:13245   */\n      0x00\n        /* \"#utility.yul\":13261:13281   */\n      tag_277\n        /* \"#utility.yul\":13279:13280   */\n      dup3\n        /* \"#utility.yul\":13261:13281   */\n      tag_228\n      jump\t// in\n    tag_277:\n        /* \"#utility.yul\":13256:13281   */\n      swap2\n      pop\n        /* \"#utility.yul\":13295:13315   */\n      tag_278\n        /* \"#utility.yul\":13313:13314   */\n      dup4\n        /* \"#utility.yul\":13295:13315   */\n      tag_228\n      jump\t// in\n    tag_278:\n        /* \"#utility.yul\":13290:13315   */\n      swap3\n      pop\n        /* \"#utility.yul\":13483:13484   */\n      dup2\n        /* \"#utility.yul\":13415:13481   */\n      0xffffffffffffffffffffffffffffffffffffffffffffffffffffffffffffffff\n        /* \"#utility.yul\":13411:13485   */\n      div\n        /* \"#utility.yul\":13408:13409   */\n      dup4\n        /* \"#utility.yul\":13405:13486   */\n      gt\n        /* \"#utility.yul\":13400:13401   */\n      dup3\n        /* \"#utility.yul\":13393:13402   */\n      iszero\n        /* \"#utility.yul\":13386:13403   */\n      iszero\n        /* \"#utility.yul\":13382:13487   */\n      and\n        /* \"#utility.yul\":13379:13510   */\n      iszero\n      tag_279\n      jumpi\n        /* \"#utility.yul\":13490:13508   */\n      tag_280\n      tag_275\n      jump\t// in\n    tag_280:\n        /* \"#utility.yul\":13379:13510   */\n    tag_279:\n        /* \"#utility.yul\":13538:13539   */\n      dup3\n        /* \"#utility.yul\":13535:13536   */\n      dup3\n        /* \"#utility.yul\":13531:13540   */\n      mul\n        /* \"#utility.yul\":13520:13540   */\n      swap1\n      pop\n        /* \"#utility.yul\":13198:13546   */\n      swap3\n      swap2\n      pop\n      pop\n      jump\t// out\n        /* \"#utility.yul\":13552:13743   */\n    tag_76:\n        /* \"#utility.yul\":13592:13596   */\n      0x00\n        /* \"#utility.yul\":13612:13632   */\n      tag_282\n        /* \"#utility.yul\":13630:13631   */\n      dup3\n        /* \"#utility.yul\":13612:13632   */\n      tag_228\n      jump\t// in\n    tag_282:\n        /* \"#utility.yul\":13607:13632   */\n      swap2\n      pop\n        /* \"#utility.yul\":13646:13666   */\n      tag_283\n        /* \"#utility.yul\":13664:13665   */\n      dup4\n        /* \"#utility.yul\":13646:13666   */\n      tag_228\n      jump\t// in\n    tag_283:\n        /* \"#utility.yul\":13641:13666   */\n      swap3\n      pop\n        /* \"#utility.yul\":13685:13686   */\n      dup3\n        /* \"#utility.yul\":13682:13683   */\n      dup3\n        /* \"#utility.yul\":13679:13687   */\n      lt\n        /* \"#utility.yul\":13676:13710   */\n      iszero\n      tag_284\n      jumpi\n        /* \"#utility.yul\":13690:13708   */\n      tag_285\n      tag_275\n      jump\t// in\n    tag_285:\n        /* \"#utility.yul\":13676:13710   */\n    tag_284:\n        /* \"#utility.yul\":13735:13736   */\n      dup3\n        /* \"#utility.yul\":13732:13733   */\n      dup3\n        /* \"#utility.yul\":13728:13737   */\n      sub\n        /* \"#utility.yul\":13720:13737   */\n      swap1\n      pop\n        /* \"#utility.yul\":13552:13743   */\n      swap3\n      swap2\n      pop\n      pop\n      jump\t// out\n        /* \"#utility.yul\":13749:13845   */\n    tag_170:\n        /* \"#utility.yul\":13786:13793   */\n      0x00\n        /* \"#utility.yul\":13815:13839   */\n      tag_287\n        /* \"#utility.yul\":13833:13838   */\n      dup3\n        /* \"#utility.yul\":13815:13839   */\n      tag_288\n      jump\t// in\n    tag_287:\n        /* \"#utility.yul\":13804:13839   */\n      swap1\n      pop\n        /* \"#utility.yul\":13749:13845   */\n      swap2\n      swap1\n      pop\n      jump\t// out\n        /* \"#utility.yul\":13851:13941   */\n    tag_174:\n        /* \"#utility.yul\":13885:13892   */\n      0x00\n        /* \"#utility.yul\":13928:13933   */\n      dup2\n        /* \"#utility.yul\":13921:13934   */\n      iszero\n        /* \"#utility.yul\":13914:13935   */\n      iszero\n        /* \"#utility.yul\":13903:13935   */\n      swap1\n      pop\n        /* \"#utility.yul\":13851:13941   */\n      swap2\n      swap1\n      pop\n      jump\t// out\n        /* \"#utility.yul\":13947:14073   */\n    tag_288:\n        /* \"#utility.yul\":13984:13991   */\n      0x00\n        /* \"#utility.yul\":14024:14066   */\n      0xffffffffffffffffffffffffffffffffffffffff\n        /* \"#utility.yul\":14017:14022   */\n      dup3\n        /* \"#utility.yul\":14013:14067   */\n      and\n        /* \"#utility.yul\":14002:14067   */\n      swap1\n      pop\n        /* \"#utility.yul\":13947:14073   */\n      swap2\n      swap1\n      pop\n      jump\t// out\n        /* \"#utility.yul\":14079:14156   */\n    tag_228:\n        /* \"#utility.yul\":14116:14123   */\n      0x00\n        /* \"#utility.yul\":14145:14150   */\n      dup2\n        /* \"#utility.yul\":14134:14150   */\n      swap1\n      pop\n        /* \"#utility.yul\":14079:14156   */\n      swap2\n      swap1\n      pop\n      jump\t// out\n        /* \"#utility.yul\":14162:14303   */\n    tag_178:\n        /* \"#utility.yul\":14227:14236   */\n      0x00\n        /* \"#utility.yul\":14260:14297   */\n      tag_293\n        /* \"#utility.yul\":14291:14296   */\n      dup3\n        /* \"#utility.yul\":14260:14297   */\n      tag_294\n      jump\t// in\n    tag_293:\n        /* \"#utility.yul\":14247:14297   */\n      swap1\n      pop\n        /* \"#utility.yul\":14162:14303   */\n      swap2\n      swap1\n      pop\n      jump\t// out\n        /* \"#utility.yul\":14309:14435   */\n    tag_294:\n        /* \"#utility.yul\":14359:14368   */\n      0x00\n        /* \"#utility.yul\":14392:14429   */\n      tag_296\n        /* \"#utility.yul\":14423:14428   */\n      dup3\n        /* \"#utility.yul\":14392:14429   */\n      tag_297\n      jump\t// in\n    tag_296:\n        /* \"#utility.yul\":14379:14429   */\n      swap1\n      pop\n        /* \"#utility.yul\":14309:14435   */\n      swap2\n      swap1\n      pop\n      jump\t// out\n        /* \"#utility.yul\":14441:14554   */\n    tag_297:\n        /* \"#utility.yul\":14491:14500   */\n      0x00\n        /* \"#utility.yul\":14524:14548   */\n      tag_299\n        /* \"#utility.yul\":14542:14547   */\n      dup3\n        /* \"#utility.yul\":14524:14548   */\n      tag_288\n      jump\t// in\n    tag_299:\n        /* \"#utility.yul\":14511:14548   */\n      swap1\n      pop\n        /* \"#utility.yul\":14441:14554   */\n      swap2\n      swap1\n      pop\n      jump\t// out\n        /* \"#utility.yul\":14560:14731   */\n    tag_126:\n        /* \"#utility.yul\":14599:14602   */\n      0x00\n        /* \"#utility.yul\":14622:14646   */\n      tag_301\n        /* \"#utility.yul\":14640:14645   */\n      dup3\n        /* \"#utility.yul\":14622:14646   */\n      tag_228\n      jump\t// in\n    tag_301:\n        /* \"#utility.yul\":14613:14646   */\n      swap2\n      pop\n        /* \"#utility.yul\":14668:14672   */\n      0x00\n        /* \"#utility.yul\":14661:14666   */\n      dup3\n        /* \"#utility.yul\":14658:14673   */\n      eq\n        /* \"#utility.yul\":14655:14696   */\n      iszero\n      tag_302\n      jumpi\n        /* \"#utility.yul\":14676:14694   */\n      tag_303\n      tag_275\n      jump\t// in\n    tag_303:\n        /* \"#utility.yul\":14655:14696   */\n    tag_302:\n        /* \"#utility.yul\":14723:14724   */\n      0x01\n        /* \"#utility.yul\":14716:14721   */\n      dup3\n        /* \"#utility.yul\":14712:14725   */\n      sub\n        /* \"#utility.yul\":14705:14725   */\n      swap1\n      pop\n        /* \"#utility.yul\":14560:14731   */\n      swap2\n      swap1\n      pop\n      jump\t// out\n        /* \"#utility.yul\":14737:14970   */\n    tag_53:\n        /* \"#utility.yul\":14776:14779   */\n      0x00\n        /* \"#utility.yul\":14799:14823   */\n      tag_305\n        /* \"#utility.yul\":14817:14822   */\n      dup3\n        /* \"#utility.yul\":14799:14823   */\n      tag_228\n      jump\t// in\n    tag_305:\n        /* \"#utility.yul\":14790:14823   */\n      swap2\n      pop\n        /* \"#utility.yul\":14845:14911   */\n      0xffffffffffffffffffffffffffffffffffffffffffffffffffffffffffffffff\n        /* \"#utility.yul\":14838:14843   */\n      dup3\n        /* \"#utility.yul\":14835:14912   */\n      eq\n        /* \"#utility.yul\":14832:14935   */\n      iszero\n      tag_306\n      jumpi\n        /* \"#utility.yul\":14915:14933   */\n      tag_307\n      tag_275\n      jump\t// in\n    tag_307:\n        /* \"#utility.yul\":14832:14935   */\n    tag_306:\n        /* \"#utility.yul\":14962:14963   */\n      0x01\n        /* \"#utility.yul\":14955:14960   */\n      dup3\n        /* \"#utility.yul\":14951:14964   */\n      add\n        /* \"#utility.yul\":14944:14964   */\n      swap1\n      pop\n        /* \"#utility.yul\":14737:14970   */\n      swap2\n      swap1\n      pop\n      jump\t// out\n        /* \"#utility.yul\":14976:15156   */\n    tag_275:\n        /* \"#utility.yul\":15024:15101   */\n      0x4e487b7100000000000000000000000000000000000000000000000000000000\n        /* \"#utility.yul\":15021:15022   */\n      0x00\n        /* \"#utility.yul\":15014:15102   */\n      mstore\n        /* \"#utility.yul\":15121:15125   */\n      0x11\n        /* \"#utility.yul\":15118:15119   */\n      0x04\n        /* \"#utility.yul\":15111:15126   */\n      mstore\n        /* \"#utility.yul\":15145:15149   */\n      0x24\n        /* \"#utility.yul\":15142:15143   */\n      0x00\n        /* \"#utility.yul\":15135:15150   */\n      revert\n        /* \"#utility.yul\":15285:15402   */\n    tag_147:\n        /* \"#utility.yul\":15394:15395   */\n      0x00\n        /* \"#utility.yul\":15391:15392   */\n      dup1\n        /* \"#utility.yul\":15384:15396   */\n      revert\n        /* \"#utility.yul\":15408:15568   */\n    tag_184:\n        /* \"#utility.yul\":15548:15560   */\n      0x4c6f776572206269642100000000000000000000000000000000000000000000\n        /* \"#utility.yul\":15544:15545   */\n      0x00\n        /* \"#utility.yul\":15536:15542   */\n      dup3\n        /* \"#utility.yul\":15532:15546   */\n      add\n        /* \"#utility.yul\":15525:15561   */\n      mstore\n        /* \"#utility.yul\":15408:15568   */\n      pop\n      jump\t// out\n        /* \"#utility.yul\":15574:15749   */\n    tag_189:\n        /* \"#utility.yul\":15714:15741   */\n      0x41756374696f6e206973207374696c6c206f6e676f696e672100000000000000\n        /* \"#utility.yul\":15710:15711   */\n      0x00\n        /* \"#utility.yul\":15702:15708   */\n      dup3\n        /* \"#utility.yul\":15698:15712   */\n      add\n        /* \"#utility.yul\":15691:15742   */\n      mstore\n        /* \"#utility.yul\":15574:15749   */\n      pop\n      jump\t// out\n        /* \"#utility.yul\":15755:15921   */\n    tag_194:\n        /* \"#utility.yul\":15895:15913   */\n      0x416c726561647920737461727465642100000000000000000000000000000000\n        /* \"#utility.yul\":15891:15892   */\n      0x00\n        /* \"#utility.yul\":15883:15889   */\n      dup3\n        /* \"#utility.yul\":15879:15893   */\n      add\n        /* \"#utility.yul\":15872:15914   */\n      mstore\n        /* \"#utility.yul\":15755:15921   */\n      pop\n      jump\t// out\n        /* \"#utility.yul\":15927:16083   */\n    tag_199:\n        /* \"#utility.yul\":16067:16075   */\n      0x456e646564210000000000000000000000000000000000000000000000000000\n        /* \"#utility.yul\":16063:16064   */\n      0x00\n        /* \"#utility.yul\":16055:16061   */\n      dup3\n        /* \"#utility.yul\":16051:16065   */\n      add\n        /* \"#utility.yul\":16044:16076   */\n      mstore\n        /* \"#utility.yul\":15927:16083   */\n      pop\n      jump\t// out\n        /* \"#utility.yul\":16089:16263   */\n    tag_204:\n        /* \"#utility.yul\":16229:16255   */\n      0x596f75206e65656420746f207374617274206669727374210000000000000000\n        /* \"#utility.yul\":16225:16226   */\n      0x00\n        /* \"#utility.yul\":16217:16223   */\n      dup3\n        /* \"#utility.yul\":16213:16227   */\n      add\n        /* \"#utility.yul\":16206:16256   */\n      mstore\n        /* \"#utility.yul\":16089:16263   */\n      pop\n      jump\t// out\n        /* \"#utility.yul\":16269:16449   */\n    tag_209:\n        /* \"#utility.yul\":16409:16441   */\n      0x596f752063616e206e6f74207374617274207468652061756374696f6e210000\n        /* \"#utility.yul\":16405:16406   */\n      0x00\n        /* \"#utility.yul\":16397:16403   */\n      dup3\n        /* \"#utility.yul\":16393:16407   */\n      add\n        /* \"#utility.yul\":16386:16442   */\n      mstore\n        /* \"#utility.yul\":16269:16449   */\n      pop\n      jump\t// out\n        /* \"#utility.yul\":16455:16617   */\n    tag_214:\n        /* \"#utility.yul\":16595:16609   */\n      0x4e6f7420737461727465642e0000000000000000000000000000000000000000\n        /* \"#utility.yul\":16591:16592   */\n      0x00\n        /* \"#utility.yul\":16583:16589   */\n      dup3\n        /* \"#utility.yul\":16579:16593   */\n      add\n        /* \"#utility.yul\":16572:16610   */\n      mstore\n        /* \"#utility.yul\":16455:16617   */\n      pop\n      jump\t// out\n        /* \"#utility.yul\":16623:16795   */\n    tag_219:\n        /* \"#utility.yul\":16763:16787   */\n      0x41756374696f6e20616c726561647920656e6465642100000000000000000000\n        /* \"#utility.yul\":16759:16760   */\n      0x00\n        /* \"#utility.yul\":16751:16757   */\n      dup3\n        /* \"#utility.yul\":16747:16761   */\n      add\n        /* \"#utility.yul\":16740:16788   */\n      mstore\n        /* \"#utility.yul\":16623:16795   */\n      pop\n      jump\t// out\n        /* \"#utility.yul\":16801:16969   */\n    tag_224:\n        /* \"#utility.yul\":16941:16961   */\n      0x436f756c64206e6f742077697468647261770000000000000000000000000000\n        /* \"#utility.yul\":16937:16938   */\n      0x00\n        /* \"#utility.yul\":16929:16935   */\n      dup3\n        /* \"#utility.yul\":16925:16939   */\n      add\n        /* \"#utility.yul\":16918:16962   */\n      mstore\n        /* \"#utility.yul\":16801:16969   */\n      pop\n      jump\t// out\n        /* \"#utility.yul\":16975:17097   */\n    tag_136:\n        /* \"#utility.yul\":17048:17072   */\n      tag_322\n        /* \"#utility.yul\":17066:17071   */\n      dup2\n        /* \"#utility.yul\":17048:17072   */\n      tag_170\n      jump\t// in\n    tag_322:\n        /* \"#utility.yul\":17041:17046   */\n      dup2\n        /* \"#utility.yul\":17038:17073   */\n      eq\n        /* \"#utility.yul\":17028:17091   */\n      tag_323\n      jumpi\n        /* \"#utility.yul\":17087:17088   */\n      0x00\n        /* \"#utility.yul\":17084:17085   */\n      dup1\n        /* \"#utility.yul\":17077:17089   */\n      revert\n        /* \"#utility.yul\":17028:17091   */\n    tag_323:\n        /* \"#utility.yul\":16975:17097   */\n      pop\n      jump\t// out\n        /* \"#utility.yul\":17103:17225   */\n    tag_143:\n        /* \"#utility.yul\":17176:17200   */\n      tag_325\n        /* \"#utility.yul\":17194:17199   */\n      dup2\n        /* \"#utility.yul\":17176:17200   */\n      tag_228\n      jump\t// in\n    tag_325:\n        /* \"#utility.yul\":17169:17174   */\n      dup2\n        /* \"#utility.yul\":17166:17201   */\n      eq\n        /* \"#utility.yul\":17156:17219   */\n      tag_326\n      jumpi\n        /* \"#utility.yul\":17215:17216   */\n      0x00\n        /* \"#utility.yul\":17212:17213   */\n      dup1\n        /* \"#utility.yul\":17205:17217   */\n      revert\n        /* \"#utility.yul\":17156:17219   */\n    tag_326:\n        /* \"#utility.yul\":17103:17225   */\n      pop\n      jump\t// out\n\n    auxdata: 0xa26469706673582212200454178d6257746f340f950de16e99fb96efb4629af9f6524aa689868c5cc0e764736f6c63430008070033\n}\n",
				"bytecode": {
					"linkReferences": {},
					"object": "608060405234801561001057600080fd5b50611ccb806100206000396000f3fe6080604052600436106100705760003560e01c80637bb98a681161004e5780637bb98a68146100d6578063b76a3b5a14610101578063f3fef3a31461012a578063f48e9b3d1461014657610070565b806359d667a514610075578063695d69ba14610091578063699ff43f146100ba575b600080fd5b61008f600480360381019061008a9190611438565b610189565b005b34801561009d57600080fd5b506100b860048036038101906100b39190611438565b610522565b005b6100d460048036038101906100cf9190611478565b610a40565b005b3480156100e257600080fd5b506100eb610c26565b6040516100f89190611898565b60405180910390f35b34801561010d57600080fd5b50610128600480360381019061012391906114cb565b610c2c565b005b610144600480360381019061013f9190611438565b611015565b005b34801561015257600080fd5b5061016d60048036038101906101689190611438565b611323565b60405161018097969594939291906116e0565b60405180910390f35b60008060008473ffffffffffffffffffffffffffffffffffffffff1673ffffffffffffffffffffffffffffffffffffffff168152602001908152602001600020600083815260200190815260200160002090508060000160149054906101000a900460ff1661022d576040517f08c379a000000000000000000000000000000000000000000000000000000000815260040161022490611838565b60405180910390fd5b80600101544210610273576040517f08c379a000000000000000000000000000000000000000000000000000000000815260040161026a906117d8565b60405180910390fd5b806005016000826004015481526020019081526020016000205434116102ce576040517f08c379a00000000000000000000000000000000000000000000000000000000081526004016102c590611778565b60405180910390fd5b600073ffffffffffffffffffffffffffffffffffffffff168160060160008360040154815260200190815260200160002060009054906101000a900473ffffffffffffffffffffffffffffffffffffffff1673ffffffffffffffffffffffffffffffffffffffff16146103d45780600501600082600401548152602001908152602001600020548160070160008360060160008560040154815260200190815260200160002060009054906101000a900473ffffffffffffffffffffffffffffffffffffffff1673ffffffffffffffffffffffffffffffffffffffff1673ffffffffffffffffffffffffffffffffffffffff168152602001908152602001600020819055505b8060040160008154809291906103e990611a79565b9190505550348160050160008360040154815260200190815260200160002081905550338160060160008360040154815260200190815260200160002060006101000a81548173ffffffffffffffffffffffffffffffffffffffff021916908373ffffffffffffffffffffffffffffffffffffffff160217905550346001600082825461047691906118ed565b925050819055508060060160008260040154815260200190815260200160002060009054906101000a900473ffffffffffffffffffffffffffffffffffffffff1673ffffffffffffffffffffffffffffffffffffffff167fe684a55f31b79eca403df938249029212a5925ec6be8012e099b45bc1019e5d282600501600084600401548152602001908152602001600020546040516105159190611898565b60405180910390a2505050565b60008060008473ffffffffffffffffffffffffffffffffffffffff1673ffffffffffffffffffffffffffffffffffffffff168152602001908152602001600020600083815260200190815260200160002090508060000160149054906101000a900460ff166105c6576040517f08c379a00000000000000000000000000000000000000000000000000000000081526004016105bd906117f8565b60405180910390fd5b806001015442101561060d576040517f08c379a000000000000000000000000000000000000000000000000000000000815260040161060490611798565b60405180910390fd5b8060000160159054906101000a900460ff161561065f576040517f08c379a000000000000000000000000000000000000000000000000000000000815260040161065690611858565b60405180910390fd5b600073ffffffffffffffffffffffffffffffffffffffff168160060160008360040154815260200190815260200160002060009054906101000a900473ffffffffffffffffffffffffffffffffffffffff1673ffffffffffffffffffffffffffffffffffffffff16146108ba578060020160009054906101000a900473ffffffffffffffffffffffffffffffffffffffff1673ffffffffffffffffffffffffffffffffffffffff166323b872dd308360060160008560040154815260200190815260200160002060009054906101000a900473ffffffffffffffffffffffffffffffffffffffff1684600301546040518463ffffffff1660e01b815260040161076a939291906116a9565b600060405180830381600087803b15801561078457600080fd5b505af1158015610798573d6000803e3d6000fd5b505050508060000160009054906101000a900473ffffffffffffffffffffffffffffffffffffffff1673ffffffffffffffffffffffffffffffffffffffff166108fc82600501600084600401548152602001908152602001600020549081150290604051600060405180830381858888f1935050505015801561081f573d6000803e3d6000fd5b5080600501600082600401548152602001908152602001600020546001600082825461084b919061199d565b9250508190555060005b81600401548110156108b4576108a1848484600601600085815260200190815260200160002060009054906101000a900473ffffffffffffffffffffffffffffffffffffffff16610a40565b80806108ac90611a79565b915050610855565b50610976565b8060020160009054906101000a900473ffffffffffffffffffffffffffffffffffffffff1673ffffffffffffffffffffffffffffffffffffffff166323b872dd308360000160009054906101000a900473ffffffffffffffffffffffffffffffffffffffff1684600301546040518463ffffffff1660e01b8152600401610943939291906116a9565b600060405180830381600087803b15801561095d57600080fd5b505af1158015610971573d6000803e3d6000fd5b505050505b60018160000160156101000a81548160ff02191690831515021790555060008160000160146101000a81548160ff0219169083151502179055507f7d7570b046e5ead3a4f3fbc9fa2445113625a1e79823776146316bafed6b8cc58160060160008360040154815260200190815260200160002060009054906101000a900473ffffffffffffffffffffffffffffffffffffffff168260050160008460040154815260200190815260200160002054604051610a3392919061174f565b60405180910390a1505050565b60008060008573ffffffffffffffffffffffffffffffffffffffff1673ffffffffffffffffffffffffffffffffffffffff1681526020019081526020016000206000848152602001908152602001600020905060008160070160008473ffffffffffffffffffffffffffffffffffffffff1673ffffffffffffffffffffffffffffffffffffffff168152602001908152602001600020549050600081118015610aeb57506001548111155b610b2a576040517f08c379a0000000000000000000000000000000000000000000000000000000008152600401610b2190611878565b60405180910390fd5b60008260070160008573ffffffffffffffffffffffffffffffffffffffff1673ffffffffffffffffffffffffffffffffffffffff168152602001908152602001600020819055508273ffffffffffffffffffffffffffffffffffffffff166108fc829081150290604051600060405180830381858888f19350505050158015610bb7573d6000803e3d6000fd5b508060016000828254610bca919061199d565b925050819055508273ffffffffffffffffffffffffffffffffffffffff167f884edad9ce6fa2440d8a54cc123490eb96d2768479d49ff9c7366125a942436482604051610c179190611898565b60405180910390a25050505050565b60015481565b60008060008673ffffffffffffffffffffffffffffffffffffffff1673ffffffffffffffffffffffffffffffffffffffff16815260200190815260200160002060008581526020019081526020016000209050848160020160006101000a81548173ffffffffffffffffffffffffffffffffffffffff021916908373ffffffffffffffffffffffffffffffffffffffff1602179055508060020160009054906101000a900473ffffffffffffffffffffffffffffffffffffffff1673ffffffffffffffffffffffffffffffffffffffff16636352211e856040518263ffffffff1660e01b8152600401610d1f9190611898565b60206040518083038186803b158015610d3757600080fd5b505afa158015610d4b573d6000803e3d6000fd5b505050506040513d601f19601f82011682018060405250810190610d6f919061140b565b8160000160006101000a81548173ffffffffffffffffffffffffffffffffffffffff021916908373ffffffffffffffffffffffffffffffffffffffff16021790555060008160000160156101000a81548160ff0219169083151502179055508060000160149054906101000a900460ff1615610e20576040517f08c379a0000000000000000000000000000000000000000000000000000000008152600401610e17906117b8565b60405180910390fd5b8060000160009054906101000a900473ffffffffffffffffffffffffffffffffffffffff1673ffffffffffffffffffffffffffffffffffffffff163373ffffffffffffffffffffffffffffffffffffffff1614610eb2576040517f08c379a0000000000000000000000000000000000000000000000000000000008152600401610ea990611818565b60405180910390fd5b600081600401819055508281600501600083600401548152602001908152602001600020819055508381600301819055508060020160009054906101000a900473ffffffffffffffffffffffffffffffffffffffff1673ffffffffffffffffffffffffffffffffffffffff166323b872dd333084600301546040518463ffffffff1660e01b8152600401610f48939291906116a9565b600060405180830381600087803b158015610f6257600080fd5b505af1158015610f76573d6000803e3d6000fd5b5050505060018160000160146101000a81548160ff0219169083151502179055506201518082610fa69190611943565b42610fb191906118ed565b8160010181905550838573ffffffffffffffffffffffffffffffffffffffff167f3b305515dbe345238649f5ce343c57ae67d5727443f8d744b2b793c3231e3ad98584600101546040516110069291906118b3565b60405180910390a35050505050565b60008060008473ffffffffffffffffffffffffffffffffffffffff1673ffffffffffffffffffffffffffffffffffffffff1681526020019081526020016000206000838152602001908152602001600020905060008160070160003373ffffffffffffffffffffffffffffffffffffffff1673ffffffffffffffffffffffffffffffffffffffff168152602001908152602001600020549050600081141580156110c157506001548111155b611100576040517f08c379a00000000000000000000000000000000000000000000000000000000081526004016110f790611878565b60405180910390fd5b8160060160008360040154815260200190815260200160002060009054906101000a900473ffffffffffffffffffffffffffffffffffffffff1673ffffffffffffffffffffffffffffffffffffffff163373ffffffffffffffffffffffffffffffffffffffff1614156111885781600401600081548092919061118290611a4f565b91905055505b60008260070160003373ffffffffffffffffffffffffffffffffffffffff1673ffffffffffffffffffffffffffffffffffffffff168152602001908152602001600020819055503373ffffffffffffffffffffffffffffffffffffffff166108fc829081150290604051600060405180830381858888f19350505050158015611215573d6000803e3d6000fd5b508060016000828254611228919061199d565b925050819055508160060160008360040154815260200190815260200160002060009054906101000a900473ffffffffffffffffffffffffffffffffffffffff1673ffffffffffffffffffffffffffffffffffffffff167fe684a55f31b79eca403df938249029212a5925ec6be8012e099b45bc1019e5d283600501600085600401548152602001908152602001600020546040516112c79190611898565b60405180910390a23373ffffffffffffffffffffffffffffffffffffffff167f884edad9ce6fa2440d8a54cc123490eb96d2768479d49ff9c7366125a9424364826040516113159190611898565b60405180910390a250505050565b6000602052816000526040600020602052806000526040600020600091509150508060000160009054906101000a900473ffffffffffffffffffffffffffffffffffffffff16908060000160149054906101000a900460ff16908060000160159054906101000a900460ff16908060010154908060020160009054906101000a900473ffffffffffffffffffffffffffffffffffffffff16908060030154908060040154905087565b6000813590506113db81611c67565b92915050565b6000815190506113f081611c67565b92915050565b60008135905061140581611c7e565b92915050565b60006020828403121561142157611420611af1565b5b600061142f848285016113e1565b91505092915050565b6000806040838503121561144f5761144e611af1565b5b600061145d858286016113cc565b925050602061146e858286016113f6565b9150509250929050565b60008060006060848603121561149157611490611af1565b5b600061149f868287016113cc565b93505060206114b0868287016113f6565b92505060406114c1868287016113cc565b9150509250925092565b600080600080608085870312156114e5576114e4611af1565b5b60006114f3878288016113cc565b9450506020611504878288016113f6565b9350506040611515878288016113f6565b9250506060611526878288016113f6565b91505092959194509250565b61153b816119d1565b82525050565b61154a816119e3565b82525050565b61155981611a19565b82525050565b600061156c600a836118dc565b915061157782611af6565b602082019050919050565b600061158f6019836118dc565b915061159a82611b1f565b602082019050919050565b60006115b26010836118dc565b91506115bd82611b48565b602082019050919050565b60006115d56006836118dc565b91506115e082611b71565b602082019050919050565b60006115f86018836118dc565b915061160382611b9a565b602082019050919050565b600061161b601e836118dc565b915061162682611bc3565b602082019050919050565b600061163e600c836118dc565b915061164982611bec565b602082019050919050565b60006116616016836118dc565b915061166c82611c15565b602082019050919050565b60006116846012836118dc565b915061168f82611c3e565b602082019050919050565b6116a381611a0f565b82525050565b60006060820190506116be6000830186611532565b6116cb6020830185611532565b6116d8604083018461169a565b949350505050565b600060e0820190506116f5600083018a611532565b6117026020830189611541565b61170f6040830188611541565b61171c606083018761169a565b6117296080830186611550565b61173660a083018561169a565b61174360c083018461169a565b98975050505050505050565b60006040820190506117646000830185611532565b611771602083018461169a565b9392505050565b600060208201905081810360008301526117918161155f565b9050919050565b600060208201905081810360008301526117b181611582565b9050919050565b600060208201905081810360008301526117d1816115a5565b9050919050565b600060208201905081810360008301526117f1816115c8565b9050919050565b60006020820190508181036000830152611811816115eb565b9050919050565b600060208201905081810360008301526118318161160e565b9050919050565b6000602082019050818103600083015261185181611631565b9050919050565b6000602082019050818103600083015261187181611654565b9050919050565b6000602082019050818103600083015261189181611677565b9050919050565b60006020820190506118ad600083018461169a565b92915050565b60006040820190506118c8600083018561169a565b6118d5602083018461169a565b9392505050565b600082825260208201905092915050565b60006118f882611a0f565b915061190383611a0f565b9250827fffffffffffffffffffffffffffffffffffffffffffffffffffffffffffffffff0382111561193857611937611ac2565b5b828201905092915050565b600061194e82611a0f565b915061195983611a0f565b9250817fffffffffffffffffffffffffffffffffffffffffffffffffffffffffffffffff048311821515161561199257611991611ac2565b5b828202905092915050565b60006119a882611a0f565b91506119b383611a0f565b9250828210156119c6576119c5611ac2565b5b828203905092915050565b60006119dc826119ef565b9050919050565b60008115159050919050565b600073ffffffffffffffffffffffffffffffffffffffff82169050919050565b6000819050919050565b6000611a2482611a2b565b9050919050565b6000611a3682611a3d565b9050919050565b6000611a48826119ef565b9050919050565b6000611a5a82611a0f565b91506000821415611a6e57611a6d611ac2565b5b600182039050919050565b6000611a8482611a0f565b91507fffffffffffffffffffffffffffffffffffffffffffffffffffffffffffffffff821415611ab757611ab6611ac2565b5b600182019050919050565b7f4e487b7100000000000000000000000000000000000000000000000000000000600052601160045260246000fd5b600080fd5b7f4c6f776572206269642100000000000000000000000000000000000000000000600082015250565b7f41756374696f6e206973207374696c6c206f6e676f696e672100000000000000600082015250565b7f416c726561647920737461727465642100000000000000000000000000000000600082015250565b7f456e646564210000000000000000000000000000000000000000000000000000600082015250565b7f596f75206e65656420746f207374617274206669727374210000000000000000600082015250565b7f596f752063616e206e6f74207374617274207468652061756374696f6e210000600082015250565b7f4e6f7420737461727465642e0000000000000000000000000000000000000000600082015250565b7f41756374696f6e20616c726561647920656e6465642100000000000000000000600082015250565b7f436f756c64206e6f742077697468647261770000000000000000000000000000600082015250565b611c70816119d1565b8114611c7b57600080fd5b50565b611c8781611a0f565b8114611c9257600080fd5b5056fea26469706673582212200454178d6257746f340f950de16e99fb96efb4629af9f6524aa689868c5cc0e764736f6c63430008070033",
					"opcodes": "PUSH1 0x80 PUSH1 0x40 MSTORE CALLVALUE DUP1 ISZERO PUSH2 0x10 JUMPI PUSH1 0x0 DUP1 REVERT JUMPDEST POP PUSH2 0x1CCB DUP1 PUSH2 0x20 PUSH1 0x0 CODECOPY PUSH1 0x0 RETURN INVALID PUSH1 0x80 PUSH1 0x40 MSTORE PUSH1 0x4 CALLDATASIZE LT PUSH2 0x70 JUMPI PUSH1 0x0 CALLDATALOAD PUSH1 0xE0 SHR DUP1 PUSH4 0x7BB98A68 GT PUSH2 0x4E JUMPI DUP1 PUSH4 0x7BB98A68 EQ PUSH2 0xD6 JUMPI DUP1 PUSH4 0xB76A3B5A EQ PUSH2 0x101 JUMPI DUP1 PUSH4 0xF3FEF3A3 EQ PUSH2 0x12A JUMPI DUP1 PUSH4 0xF48E9B3D EQ PUSH2 0x146 JUMPI PUSH2 0x70 JUMP JUMPDEST DUP1 PUSH4 0x59D667A5 EQ PUSH2 0x75 JUMPI DUP1 PUSH4 0x695D69BA EQ PUSH2 0x91 JUMPI DUP1 PUSH4 0x699FF43F EQ PUSH2 0xBA JUMPI JUMPDEST PUSH1 0x0 DUP1 REVERT JUMPDEST PUSH2 0x8F PUSH1 0x4 DUP1 CALLDATASIZE SUB DUP2 ADD SWAP1 PUSH2 0x8A SWAP2 SWAP1 PUSH2 0x1438 JUMP JUMPDEST PUSH2 0x189 JUMP JUMPDEST STOP JUMPDEST CALLVALUE DUP1 ISZERO PUSH2 0x9D JUMPI PUSH1 0x0 DUP1 REVERT JUMPDEST POP PUSH2 0xB8 PUSH1 0x4 DUP1 CALLDATASIZE SUB DUP2 ADD SWAP1 PUSH2 0xB3 SWAP2 SWAP1 PUSH2 0x1438 JUMP JUMPDEST PUSH2 0x522 JUMP JUMPDEST STOP JUMPDEST PUSH2 0xD4 PUSH1 0x4 DUP1 CALLDATASIZE SUB DUP2 ADD SWAP1 PUSH2 0xCF SWAP2 SWAP1 PUSH2 0x1478 JUMP JUMPDEST PUSH2 0xA40 JUMP JUMPDEST STOP JUMPDEST CALLVALUE DUP1 ISZERO PUSH2 0xE2 JUMPI PUSH1 0x0 DUP1 REVERT JUMPDEST POP PUSH2 0xEB PUSH2 0xC26 JUMP JUMPDEST PUSH1 0x40 MLOAD PUSH2 0xF8 SWAP2 SWAP1 PUSH2 0x1898 JUMP JUMPDEST PUSH1 0x40 MLOAD DUP1 SWAP2 SUB SWAP1 RETURN JUMPDEST CALLVALUE DUP1 ISZERO PUSH2 0x10D JUMPI PUSH1 0x0 DUP1 REVERT JUMPDEST POP PUSH2 0x128 PUSH1 0x4 DUP1 CALLDATASIZE SUB DUP2 ADD SWAP1 PUSH2 0x123 SWAP2 SWAP1 PUSH2 0x14CB JUMP JUMPDEST PUSH2 0xC2C JUMP JUMPDEST STOP JUMPDEST PUSH2 0x144 PUSH1 0x4 DUP1 CALLDATASIZE SUB DUP2 ADD SWAP1 PUSH2 0x13F SWAP2 SWAP1 PUSH2 0x1438 JUMP JUMPDEST PUSH2 0x1015 JUMP JUMPDEST STOP JUMPDEST CALLVALUE DUP1 ISZERO PUSH2 0x152 JUMPI PUSH1 0x0 DUP1 REVERT JUMPDEST POP PUSH2 0x16D PUSH1 0x4 DUP1 CALLDATASIZE SUB DUP2 ADD SWAP1 PUSH2 0x168 SWAP2 SWAP1 PUSH2 0x1438 JUMP JUMPDEST PUSH2 0x1323 JUMP JUMPDEST PUSH1 0x40 MLOAD PUSH2 0x180 SWAP8 SWAP7 SWAP6 SWAP5 SWAP4 SWAP3 SWAP2 SWAP1 PUSH2 0x16E0 JUMP JUMPDEST PUSH1 0x40 MLOAD DUP1 SWAP2 SUB SWAP1 RETURN JUMPDEST PUSH1 0x0 DUP1 PUSH1 0x0 DUP5 PUSH20 0xFFFFFFFFFFFFFFFFFFFFFFFFFFFFFFFFFFFFFFFF AND PUSH20 0xFFFFFFFFFFFFFFFFFFFFFFFFFFFFFFFFFFFFFFFF AND DUP2 MSTORE PUSH1 0x20 ADD SWAP1 DUP2 MSTORE PUSH1 0x20 ADD PUSH1 0x0 KECCAK256 PUSH1 0x0 DUP4 DUP2 MSTORE PUSH1 0x20 ADD SWAP1 DUP2 MSTORE PUSH1 0x20 ADD PUSH1 0x0 KECCAK256 SWAP1 POP DUP1 PUSH1 0x0 ADD PUSH1 0x14 SWAP1 SLOAD SWAP1 PUSH2 0x100 EXP SWAP1 DIV PUSH1 0xFF AND PUSH2 0x22D JUMPI PUSH1 0x40 MLOAD PUSH32 0x8C379A000000000000000000000000000000000000000000000000000000000 DUP2 MSTORE PUSH1 0x4 ADD PUSH2 0x224 SWAP1 PUSH2 0x1838 JUMP JUMPDEST PUSH1 0x40 MLOAD DUP1 SWAP2 SUB SWAP1 REVERT JUMPDEST DUP1 PUSH1 0x1 ADD SLOAD TIMESTAMP LT PUSH2 0x273 JUMPI PUSH1 0x40 MLOAD PUSH32 0x8C379A000000000000000000000000000000000000000000000000000000000 DUP2 MSTORE PUSH1 0x4 ADD PUSH2 0x26A SWAP1 PUSH2 0x17D8 JUMP JUMPDEST PUSH1 0x40 MLOAD DUP1 SWAP2 SUB SWAP1 REVERT JUMPDEST DUP1 PUSH1 0x5 ADD PUSH1 0x0 DUP3 PUSH1 0x4 ADD SLOAD DUP2 MSTORE PUSH1 0x20 ADD SWAP1 DUP2 MSTORE PUSH1 0x20 ADD PUSH1 0x0 KECCAK256 SLOAD CALLVALUE GT PUSH2 0x2CE JUMPI PUSH1 0x40 MLOAD PUSH32 0x8C379A000000000000000000000000000000000000000000000000000000000 DUP2 MSTORE PUSH1 0x4 ADD PUSH2 0x2C5 SWAP1 PUSH2 0x1778 JUMP JUMPDEST PUSH1 0x40 MLOAD DUP1 SWAP2 SUB SWAP1 REVERT JUMPDEST PUSH1 0x0 PUSH20 0xFFFFFFFFFFFFFFFFFFFFFFFFFFFFFFFFFFFFFFFF AND DUP2 PUSH1 0x6 ADD PUSH1 0x0 DUP4 PUSH1 0x4 ADD SLOAD DUP2 MSTORE PUSH1 0x20 ADD SWAP1 DUP2 MSTORE PUSH1 0x20 ADD PUSH1 0x0 KECCAK256 PUSH1 0x0 SWAP1 SLOAD SWAP1 PUSH2 0x100 EXP SWAP1 DIV PUSH20 0xFFFFFFFFFFFFFFFFFFFFFFFFFFFFFFFFFFFFFFFF AND PUSH20 0xFFFFFFFFFFFFFFFFFFFFFFFFFFFFFFFFFFFFFFFF AND EQ PUSH2 0x3D4 JUMPI DUP1 PUSH1 0x5 ADD PUSH1 0x0 DUP3 PUSH1 0x4 ADD SLOAD DUP2 MSTORE PUSH1 0x20 ADD SWAP1 DUP2 MSTORE PUSH1 0x20 ADD PUSH1 0x0 KECCAK256 SLOAD DUP2 PUSH1 0x7 ADD PUSH1 0x0 DUP4 PUSH1 0x6 ADD PUSH1 0x0 DUP6 PUSH1 0x4 ADD SLOAD DUP2 MSTORE PUSH1 0x20 ADD SWAP1 DUP2 MSTORE PUSH1 0x20 ADD PUSH1 0x0 KECCAK256 PUSH1 0x0 SWAP1 SLOAD SWAP1 PUSH2 0x100 EXP SWAP1 DIV PUSH20 0xFFFFFFFFFFFFFFFFFFFFFFFFFFFFFFFFFFFFFFFF AND PUSH20 0xFFFFFFFFFFFFFFFFFFFFFFFFFFFFFFFFFFFFFFFF AND PUSH20 0xFFFFFFFFFFFFFFFFFFFFFFFFFFFFFFFFFFFFFFFF AND DUP2 MSTORE PUSH1 0x20 ADD SWAP1 DUP2 MSTORE PUSH1 0x20 ADD PUSH1 0x0 KECCAK256 DUP2 SWAP1 SSTORE POP JUMPDEST DUP1 PUSH1 0x4 ADD PUSH1 0x0 DUP2 SLOAD DUP1 SWAP3 SWAP2 SWAP1 PUSH2 0x3E9 SWAP1 PUSH2 0x1A79 JUMP JUMPDEST SWAP2 SWAP1 POP SSTORE POP CALLVALUE DUP2 PUSH1 0x5 ADD PUSH1 0x0 DUP4 PUSH1 0x4 ADD SLOAD DUP2 MSTORE PUSH1 0x20 ADD SWAP1 DUP2 MSTORE PUSH1 0x20 ADD PUSH1 0x0 KECCAK256 DUP2 SWAP1 SSTORE POP CALLER DUP2 PUSH1 0x6 ADD PUSH1 0x0 DUP4 PUSH1 0x4 ADD SLOAD DUP2 MSTORE PUSH1 0x20 ADD SWAP1 DUP2 MSTORE PUSH1 0x20 ADD PUSH1 0x0 KECCAK256 PUSH1 0x0 PUSH2 0x100 EXP DUP2 SLOAD DUP2 PUSH20 0xFFFFFFFFFFFFFFFFFFFFFFFFFFFFFFFFFFFFFFFF MUL NOT AND SWAP1 DUP4 PUSH20 0xFFFFFFFFFFFFFFFFFFFFFFFFFFFFFFFFFFFFFFFF AND MUL OR SWAP1 SSTORE POP CALLVALUE PUSH1 0x1 PUSH1 0x0 DUP3 DUP3 SLOAD PUSH2 0x476 SWAP2 SWAP1 PUSH2 0x18ED JUMP JUMPDEST SWAP3 POP POP DUP2 SWAP1 SSTORE POP DUP1 PUSH1 0x6 ADD PUSH1 0x0 DUP3 PUSH1 0x4 ADD SLOAD DUP2 MSTORE PUSH1 0x20 ADD SWAP1 DUP2 MSTORE PUSH1 0x20 ADD PUSH1 0x0 KECCAK256 PUSH1 0x0 SWAP1 SLOAD SWAP1 PUSH2 0x100 EXP SWAP1 DIV PUSH20 0xFFFFFFFFFFFFFFFFFFFFFFFFFFFFFFFFFFFFFFFF AND PUSH20 0xFFFFFFFFFFFFFFFFFFFFFFFFFFFFFFFFFFFFFFFF AND PUSH32 0xE684A55F31B79ECA403DF938249029212A5925EC6BE8012E099B45BC1019E5D2 DUP3 PUSH1 0x5 ADD PUSH1 0x0 DUP5 PUSH1 0x4 ADD SLOAD DUP2 MSTORE PUSH1 0x20 ADD SWAP1 DUP2 MSTORE PUSH1 0x20 ADD PUSH1 0x0 KECCAK256 SLOAD PUSH1 0x40 MLOAD PUSH2 0x515 SWAP2 SWAP1 PUSH2 0x1898 JUMP JUMPDEST PUSH1 0x40 MLOAD DUP1 SWAP2 SUB SWAP1 LOG2 POP POP POP JUMP JUMPDEST PUSH1 0x0 DUP1 PUSH1 0x0 DUP5 PUSH20 0xFFFFFFFFFFFFFFFFFFFFFFFFFFFFFFFFFFFFFFFF AND PUSH20 0xFFFFFFFFFFFFFFFFFFFFFFFFFFFFFFFFFFFFFFFF AND DUP2 MSTORE PUSH1 0x20 ADD SWAP1 DUP2 MSTORE PUSH1 0x20 ADD PUSH1 0x0 KECCAK256 PUSH1 0x0 DUP4 DUP2 MSTORE PUSH1 0x20 ADD SWAP1 DUP2 MSTORE PUSH1 0x20 ADD PUSH1 0x0 KECCAK256 SWAP1 POP DUP1 PUSH1 0x0 ADD PUSH1 0x14 SWAP1 SLOAD SWAP1 PUSH2 0x100 EXP SWAP1 DIV PUSH1 0xFF AND PUSH2 0x5C6 JUMPI PUSH1 0x40 MLOAD PUSH32 0x8C379A000000000000000000000000000000000000000000000000000000000 DUP2 MSTORE PUSH1 0x4 ADD PUSH2 0x5BD SWAP1 PUSH2 0x17F8 JUMP JUMPDEST PUSH1 0x40 MLOAD DUP1 SWAP2 SUB SWAP1 REVERT JUMPDEST DUP1 PUSH1 0x1 ADD SLOAD TIMESTAMP LT ISZERO PUSH2 0x60D JUMPI PUSH1 0x40 MLOAD PUSH32 0x8C379A000000000000000000000000000000000000000000000000000000000 DUP2 MSTORE PUSH1 0x4 ADD PUSH2 0x604 SWAP1 PUSH2 0x1798 JUMP JUMPDEST PUSH1 0x40 MLOAD DUP1 SWAP2 SUB SWAP1 REVERT JUMPDEST DUP1 PUSH1 0x0 ADD PUSH1 0x15 SWAP1 SLOAD SWAP1 PUSH2 0x100 EXP SWAP1 DIV PUSH1 0xFF AND ISZERO PUSH2 0x65F JUMPI PUSH1 0x40 MLOAD PUSH32 0x8C379A000000000000000000000000000000000000000000000000000000000 DUP2 MSTORE PUSH1 0x4 ADD PUSH2 0x656 SWAP1 PUSH2 0x1858 JUMP JUMPDEST PUSH1 0x40 MLOAD DUP1 SWAP2 SUB SWAP1 REVERT JUMPDEST PUSH1 0x0 PUSH20 0xFFFFFFFFFFFFFFFFFFFFFFFFFFFFFFFFFFFFFFFF AND DUP2 PUSH1 0x6 ADD PUSH1 0x0 DUP4 PUSH1 0x4 ADD SLOAD DUP2 MSTORE PUSH1 0x20 ADD SWAP1 DUP2 MSTORE PUSH1 0x20 ADD PUSH1 0x0 KECCAK256 PUSH1 0x0 SWAP1 SLOAD SWAP1 PUSH2 0x100 EXP SWAP1 DIV PUSH20 0xFFFFFFFFFFFFFFFFFFFFFFFFFFFFFFFFFFFFFFFF AND PUSH20 0xFFFFFFFFFFFFFFFFFFFFFFFFFFFFFFFFFFFFFFFF AND EQ PUSH2 0x8BA JUMPI DUP1 PUSH1 0x2 ADD PUSH1 0x0 SWAP1 SLOAD SWAP1 PUSH2 0x100 EXP SWAP1 DIV PUSH20 0xFFFFFFFFFFFFFFFFFFFFFFFFFFFFFFFFFFFFFFFF AND PUSH20 0xFFFFFFFFFFFFFFFFFFFFFFFFFFFFFFFFFFFFFFFF AND PUSH4 0x23B872DD ADDRESS DUP4 PUSH1 0x6 ADD PUSH1 0x0 DUP6 PUSH1 0x4 ADD SLOAD DUP2 MSTORE PUSH1 0x20 ADD SWAP1 DUP2 MSTORE PUSH1 0x20 ADD PUSH1 0x0 KECCAK256 PUSH1 0x0 SWAP1 SLOAD SWAP1 PUSH2 0x100 EXP SWAP1 DIV PUSH20 0xFFFFFFFFFFFFFFFFFFFFFFFFFFFFFFFFFFFFFFFF AND DUP5 PUSH1 0x3 ADD SLOAD PUSH1 0x40 MLOAD DUP5 PUSH4 0xFFFFFFFF AND PUSH1 0xE0 SHL DUP2 MSTORE PUSH1 0x4 ADD PUSH2 0x76A SWAP4 SWAP3 SWAP2 SWAP1 PUSH2 0x16A9 JUMP JUMPDEST PUSH1 0x0 PUSH1 0x40 MLOAD DUP1 DUP4 SUB DUP2 PUSH1 0x0 DUP8 DUP1 EXTCODESIZE ISZERO DUP1 ISZERO PUSH2 0x784 JUMPI PUSH1 0x0 DUP1 REVERT JUMPDEST POP GAS CALL ISZERO DUP1 ISZERO PUSH2 0x798 JUMPI RETURNDATASIZE PUSH1 0x0 DUP1 RETURNDATACOPY RETURNDATASIZE PUSH1 0x0 REVERT JUMPDEST POP POP POP POP DUP1 PUSH1 0x0 ADD PUSH1 0x0 SWAP1 SLOAD SWAP1 PUSH2 0x100 EXP SWAP1 DIV PUSH20 0xFFFFFFFFFFFFFFFFFFFFFFFFFFFFFFFFFFFFFFFF AND PUSH20 0xFFFFFFFFFFFFFFFFFFFFFFFFFFFFFFFFFFFFFFFF AND PUSH2 0x8FC DUP3 PUSH1 0x5 ADD PUSH1 0x0 DUP5 PUSH1 0x4 ADD SLOAD DUP2 MSTORE PUSH1 0x20 ADD SWAP1 DUP2 MSTORE PUSH1 0x20 ADD PUSH1 0x0 KECCAK256 SLOAD SWAP1 DUP2 ISZERO MUL SWAP1 PUSH1 0x40 MLOAD PUSH1 0x0 PUSH1 0x40 MLOAD DUP1 DUP4 SUB DUP2 DUP6 DUP9 DUP9 CALL SWAP4 POP POP POP POP ISZERO DUP1 ISZERO PUSH2 0x81F JUMPI RETURNDATASIZE PUSH1 0x0 DUP1 RETURNDATACOPY RETURNDATASIZE PUSH1 0x0 REVERT JUMPDEST POP DUP1 PUSH1 0x5 ADD PUSH1 0x0 DUP3 PUSH1 0x4 ADD SLOAD DUP2 MSTORE PUSH1 0x20 ADD SWAP1 DUP2 MSTORE PUSH1 0x20 ADD PUSH1 0x0 KECCAK256 SLOAD PUSH1 0x1 PUSH1 0x0 DUP3 DUP3 SLOAD PUSH2 0x84B SWAP2 SWAP1 PUSH2 0x199D JUMP JUMPDEST SWAP3 POP POP DUP2 SWAP1 SSTORE POP PUSH1 0x0 JUMPDEST DUP2 PUSH1 0x4 ADD SLOAD DUP2 LT ISZERO PUSH2 0x8B4 JUMPI PUSH2 0x8A1 DUP5 DUP5 DUP5 PUSH1 0x6 ADD PUSH1 0x0 DUP6 DUP2 MSTORE PUSH1 0x20 ADD SWAP1 DUP2 MSTORE PUSH1 0x20 ADD PUSH1 0x0 KECCAK256 PUSH1 0x0 SWAP1 SLOAD SWAP1 PUSH2 0x100 EXP SWAP1 DIV PUSH20 0xFFFFFFFFFFFFFFFFFFFFFFFFFFFFFFFFFFFFFFFF AND PUSH2 0xA40 JUMP JUMPDEST DUP1 DUP1 PUSH2 0x8AC SWAP1 PUSH2 0x1A79 JUMP JUMPDEST SWAP2 POP POP PUSH2 0x855 JUMP JUMPDEST POP PUSH2 0x976 JUMP JUMPDEST DUP1 PUSH1 0x2 ADD PUSH1 0x0 SWAP1 SLOAD SWAP1 PUSH2 0x100 EXP SWAP1 DIV PUSH20 0xFFFFFFFFFFFFFFFFFFFFFFFFFFFFFFFFFFFFFFFF AND PUSH20 0xFFFFFFFFFFFFFFFFFFFFFFFFFFFFFFFFFFFFFFFF AND PUSH4 0x23B872DD ADDRESS DUP4 PUSH1 0x0 ADD PUSH1 0x0 SWAP1 SLOAD SWAP1 PUSH2 0x100 EXP SWAP1 DIV PUSH20 0xFFFFFFFFFFFFFFFFFFFFFFFFFFFFFFFFFFFFFFFF AND DUP5 PUSH1 0x3 ADD SLOAD PUSH1 0x40 MLOAD DUP5 PUSH4 0xFFFFFFFF AND PUSH1 0xE0 SHL DUP2 MSTORE PUSH1 0x4 ADD PUSH2 0x943 SWAP4 SWAP3 SWAP2 SWAP1 PUSH2 0x16A9 JUMP JUMPDEST PUSH1 0x0 PUSH1 0x40 MLOAD DUP1 DUP4 SUB DUP2 PUSH1 0x0 DUP8 DUP1 EXTCODESIZE ISZERO DUP1 ISZERO PUSH2 0x95D JUMPI PUSH1 0x0 DUP1 REVERT JUMPDEST POP GAS CALL ISZERO DUP1 ISZERO PUSH2 0x971 JUMPI RETURNDATASIZE PUSH1 0x0 DUP1 RETURNDATACOPY RETURNDATASIZE PUSH1 0x0 REVERT JUMPDEST POP POP POP POP JUMPDEST PUSH1 0x1 DUP2 PUSH1 0x0 ADD PUSH1 0x15 PUSH2 0x100 EXP DUP2 SLOAD DUP2 PUSH1 0xFF MUL NOT AND SWAP1 DUP4 ISZERO ISZERO MUL OR SWAP1 SSTORE POP PUSH1 0x0 DUP2 PUSH1 0x0 ADD PUSH1 0x14 PUSH2 0x100 EXP DUP2 SLOAD DUP2 PUSH1 0xFF MUL NOT AND SWAP1 DUP4 ISZERO ISZERO MUL OR SWAP1 SSTORE POP PUSH32 0x7D7570B046E5EAD3A4F3FBC9FA2445113625A1E79823776146316BAFED6B8CC5 DUP2 PUSH1 0x6 ADD PUSH1 0x0 DUP4 PUSH1 0x4 ADD SLOAD DUP2 MSTORE PUSH1 0x20 ADD SWAP1 DUP2 MSTORE PUSH1 0x20 ADD PUSH1 0x0 KECCAK256 PUSH1 0x0 SWAP1 SLOAD SWAP1 PUSH2 0x100 EXP SWAP1 DIV PUSH20 0xFFFFFFFFFFFFFFFFFFFFFFFFFFFFFFFFFFFFFFFF AND DUP3 PUSH1 0x5 ADD PUSH1 0x0 DUP5 PUSH1 0x4 ADD SLOAD DUP2 MSTORE PUSH1 0x20 ADD SWAP1 DUP2 MSTORE PUSH1 0x20 ADD PUSH1 0x0 KECCAK256 SLOAD PUSH1 0x40 MLOAD PUSH2 0xA33 SWAP3 SWAP2 SWAP1 PUSH2 0x174F JUMP JUMPDEST PUSH1 0x40 MLOAD DUP1 SWAP2 SUB SWAP1 LOG1 POP POP POP JUMP JUMPDEST PUSH1 0x0 DUP1 PUSH1 0x0 DUP6 PUSH20 0xFFFFFFFFFFFFFFFFFFFFFFFFFFFFFFFFFFFFFFFF AND PUSH20 0xFFFFFFFFFFFFFFFFFFFFFFFFFFFFFFFFFFFFFFFF AND DUP2 MSTORE PUSH1 0x20 ADD SWAP1 DUP2 MSTORE PUSH1 0x20 ADD PUSH1 0x0 KECCAK256 PUSH1 0x0 DUP5 DUP2 MSTORE PUSH1 0x20 ADD SWAP1 DUP2 MSTORE PUSH1 0x20 ADD PUSH1 0x0 KECCAK256 SWAP1 POP PUSH1 0x0 DUP2 PUSH1 0x7 ADD PUSH1 0x0 DUP5 PUSH20 0xFFFFFFFFFFFFFFFFFFFFFFFFFFFFFFFFFFFFFFFF AND PUSH20 0xFFFFFFFFFFFFFFFFFFFFFFFFFFFFFFFFFFFFFFFF AND DUP2 MSTORE PUSH1 0x20 ADD SWAP1 DUP2 MSTORE PUSH1 0x20 ADD PUSH1 0x0 KECCAK256 SLOAD SWAP1 POP PUSH1 0x0 DUP2 GT DUP1 ISZERO PUSH2 0xAEB JUMPI POP PUSH1 0x1 SLOAD DUP2 GT ISZERO JUMPDEST PUSH2 0xB2A JUMPI PUSH1 0x40 MLOAD PUSH32 0x8C379A000000000000000000000000000000000000000000000000000000000 DUP2 MSTORE PUSH1 0x4 ADD PUSH2 0xB21 SWAP1 PUSH2 0x1878 JUMP JUMPDEST PUSH1 0x40 MLOAD DUP1 SWAP2 SUB SWAP1 REVERT JUMPDEST PUSH1 0x0 DUP3 PUSH1 0x7 ADD PUSH1 0x0 DUP6 PUSH20 0xFFFFFFFFFFFFFFFFFFFFFFFFFFFFFFFFFFFFFFFF AND PUSH20 0xFFFFFFFFFFFFFFFFFFFFFFFFFFFFFFFFFFFFFFFF AND DUP2 MSTORE PUSH1 0x20 ADD SWAP1 DUP2 MSTORE PUSH1 0x20 ADD PUSH1 0x0 KECCAK256 DUP2 SWAP1 SSTORE POP DUP3 PUSH20 0xFFFFFFFFFFFFFFFFFFFFFFFFFFFFFFFFFFFFFFFF AND PUSH2 0x8FC DUP3 SWAP1 DUP2 ISZERO MUL SWAP1 PUSH1 0x40 MLOAD PUSH1 0x0 PUSH1 0x40 MLOAD DUP1 DUP4 SUB DUP2 DUP6 DUP9 DUP9 CALL SWAP4 POP POP POP POP ISZERO DUP1 ISZERO PUSH2 0xBB7 JUMPI RETURNDATASIZE PUSH1 0x0 DUP1 RETURNDATACOPY RETURNDATASIZE PUSH1 0x0 REVERT JUMPDEST POP DUP1 PUSH1 0x1 PUSH1 0x0 DUP3 DUP3 SLOAD PUSH2 0xBCA SWAP2 SWAP1 PUSH2 0x199D JUMP JUMPDEST SWAP3 POP POP DUP2 SWAP1 SSTORE POP DUP3 PUSH20 0xFFFFFFFFFFFFFFFFFFFFFFFFFFFFFFFFFFFFFFFF AND PUSH32 0x884EDAD9CE6FA2440D8A54CC123490EB96D2768479D49FF9C7366125A9424364 DUP3 PUSH1 0x40 MLOAD PUSH2 0xC17 SWAP2 SWAP1 PUSH2 0x1898 JUMP JUMPDEST PUSH1 0x40 MLOAD DUP1 SWAP2 SUB SWAP1 LOG2 POP POP POP POP POP JUMP JUMPDEST PUSH1 0x1 SLOAD DUP2 JUMP JUMPDEST PUSH1 0x0 DUP1 PUSH1 0x0 DUP7 PUSH20 0xFFFFFFFFFFFFFFFFFFFFFFFFFFFFFFFFFFFFFFFF AND PUSH20 0xFFFFFFFFFFFFFFFFFFFFFFFFFFFFFFFFFFFFFFFF AND DUP2 MSTORE PUSH1 0x20 ADD SWAP1 DUP2 MSTORE PUSH1 0x20 ADD PUSH1 0x0 KECCAK256 PUSH1 0x0 DUP6 DUP2 MSTORE PUSH1 0x20 ADD SWAP1 DUP2 MSTORE PUSH1 0x20 ADD PUSH1 0x0 KECCAK256 SWAP1 POP DUP5 DUP2 PUSH1 0x2 ADD PUSH1 0x0 PUSH2 0x100 EXP DUP2 SLOAD DUP2 PUSH20 0xFFFFFFFFFFFFFFFFFFFFFFFFFFFFFFFFFFFFFFFF MUL NOT AND SWAP1 DUP4 PUSH20 0xFFFFFFFFFFFFFFFFFFFFFFFFFFFFFFFFFFFFFFFF AND MUL OR SWAP1 SSTORE POP DUP1 PUSH1 0x2 ADD PUSH1 0x0 SWAP1 SLOAD SWAP1 PUSH2 0x100 EXP SWAP1 DIV PUSH20 0xFFFFFFFFFFFFFFFFFFFFFFFFFFFFFFFFFFFFFFFF AND PUSH20 0xFFFFFFFFFFFFFFFFFFFFFFFFFFFFFFFFFFFFFFFF AND PUSH4 0x6352211E DUP6 PUSH1 0x40 MLOAD DUP3 PUSH4 0xFFFFFFFF AND PUSH1 0xE0 SHL DUP2 MSTORE PUSH1 0x4 ADD PUSH2 0xD1F SWAP2 SWAP1 PUSH2 0x1898 JUMP JUMPDEST PUSH1 0x20 PUSH1 0x40 MLOAD DUP1 DUP4 SUB DUP2 DUP7 DUP1 EXTCODESIZE ISZERO DUP1 ISZERO PUSH2 0xD37 JUMPI PUSH1 0x0 DUP1 REVERT JUMPDEST POP GAS STATICCALL ISZERO DUP1 ISZERO PUSH2 0xD4B JUMPI RETURNDATASIZE PUSH1 0x0 DUP1 RETURNDATACOPY RETURNDATASIZE PUSH1 0x0 REVERT JUMPDEST POP POP POP POP PUSH1 0x40 MLOAD RETURNDATASIZE PUSH1 0x1F NOT PUSH1 0x1F DUP3 ADD AND DUP3 ADD DUP1 PUSH1 0x40 MSTORE POP DUP2 ADD SWAP1 PUSH2 0xD6F SWAP2 SWAP1 PUSH2 0x140B JUMP JUMPDEST DUP2 PUSH1 0x0 ADD PUSH1 0x0 PUSH2 0x100 EXP DUP2 SLOAD DUP2 PUSH20 0xFFFFFFFFFFFFFFFFFFFFFFFFFFFFFFFFFFFFFFFF MUL NOT AND SWAP1 DUP4 PUSH20 0xFFFFFFFFFFFFFFFFFFFFFFFFFFFFFFFFFFFFFFFF AND MUL OR SWAP1 SSTORE POP PUSH1 0x0 DUP2 PUSH1 0x0 ADD PUSH1 0x15 PUSH2 0x100 EXP DUP2 SLOAD DUP2 PUSH1 0xFF MUL NOT AND SWAP1 DUP4 ISZERO ISZERO MUL OR SWAP1 SSTORE POP DUP1 PUSH1 0x0 ADD PUSH1 0x14 SWAP1 SLOAD SWAP1 PUSH2 0x100 EXP SWAP1 DIV PUSH1 0xFF AND ISZERO PUSH2 0xE20 JUMPI PUSH1 0x40 MLOAD PUSH32 0x8C379A000000000000000000000000000000000000000000000000000000000 DUP2 MSTORE PUSH1 0x4 ADD PUSH2 0xE17 SWAP1 PUSH2 0x17B8 JUMP JUMPDEST PUSH1 0x40 MLOAD DUP1 SWAP2 SUB SWAP1 REVERT JUMPDEST DUP1 PUSH1 0x0 ADD PUSH1 0x0 SWAP1 SLOAD SWAP1 PUSH2 0x100 EXP SWAP1 DIV PUSH20 0xFFFFFFFFFFFFFFFFFFFFFFFFFFFFFFFFFFFFFFFF AND PUSH20 0xFFFFFFFFFFFFFFFFFFFFFFFFFFFFFFFFFFFFFFFF AND CALLER PUSH20 0xFFFFFFFFFFFFFFFFFFFFFFFFFFFFFFFFFFFFFFFF AND EQ PUSH2 0xEB2 JUMPI PUSH1 0x40 MLOAD PUSH32 0x8C379A000000000000000000000000000000000000000000000000000000000 DUP2 MSTORE PUSH1 0x4 ADD PUSH2 0xEA9 SWAP1 PUSH2 0x1818 JUMP JUMPDEST PUSH1 0x40 MLOAD DUP1 SWAP2 SUB SWAP1 REVERT JUMPDEST PUSH1 0x0 DUP2 PUSH1 0x4 ADD DUP2 SWAP1 SSTORE POP DUP3 DUP2 PUSH1 0x5 ADD PUSH1 0x0 DUP4 PUSH1 0x4 ADD SLOAD DUP2 MSTORE PUSH1 0x20 ADD SWAP1 DUP2 MSTORE PUSH1 0x20 ADD PUSH1 0x0 KECCAK256 DUP2 SWAP1 SSTORE POP DUP4 DUP2 PUSH1 0x3 ADD DUP2 SWAP1 SSTORE POP DUP1 PUSH1 0x2 ADD PUSH1 0x0 SWAP1 SLOAD SWAP1 PUSH2 0x100 EXP SWAP1 DIV PUSH20 0xFFFFFFFFFFFFFFFFFFFFFFFFFFFFFFFFFFFFFFFF AND PUSH20 0xFFFFFFFFFFFFFFFFFFFFFFFFFFFFFFFFFFFFFFFF AND PUSH4 0x23B872DD CALLER ADDRESS DUP5 PUSH1 0x3 ADD SLOAD PUSH1 0x40 MLOAD DUP5 PUSH4 0xFFFFFFFF AND PUSH1 0xE0 SHL DUP2 MSTORE PUSH1 0x4 ADD PUSH2 0xF48 SWAP4 SWAP3 SWAP2 SWAP1 PUSH2 0x16A9 JUMP JUMPDEST PUSH1 0x0 PUSH1 0x40 MLOAD DUP1 DUP4 SUB DUP2 PUSH1 0x0 DUP8 DUP1 EXTCODESIZE ISZERO DUP1 ISZERO PUSH2 0xF62 JUMPI PUSH1 0x0 DUP1 REVERT JUMPDEST POP GAS CALL ISZERO DUP1 ISZERO PUSH2 0xF76 JUMPI RETURNDATASIZE PUSH1 0x0 DUP1 RETURNDATACOPY RETURNDATASIZE PUSH1 0x0 REVERT JUMPDEST POP POP POP POP PUSH1 0x1 DUP2 PUSH1 0x0 ADD PUSH1 0x14 PUSH2 0x100 EXP DUP2 SLOAD DUP2 PUSH1 0xFF MUL NOT AND SWAP1 DUP4 ISZERO ISZERO MUL OR SWAP1 SSTORE POP PUSH3 0x15180 DUP3 PUSH2 0xFA6 SWAP2 SWAP1 PUSH2 0x1943 JUMP JUMPDEST TIMESTAMP PUSH2 0xFB1 SWAP2 SWAP1 PUSH2 0x18ED JUMP JUMPDEST DUP2 PUSH1 0x1 ADD DUP2 SWAP1 SSTORE POP DUP4 DUP6 PUSH20 0xFFFFFFFFFFFFFFFFFFFFFFFFFFFFFFFFFFFFFFFF AND PUSH32 0x3B305515DBE345238649F5CE343C57AE67D5727443F8D744B2B793C3231E3AD9 DUP6 DUP5 PUSH1 0x1 ADD SLOAD PUSH1 0x40 MLOAD PUSH2 0x1006 SWAP3 SWAP2 SWAP1 PUSH2 0x18B3 JUMP JUMPDEST PUSH1 0x40 MLOAD DUP1 SWAP2 SUB SWAP1 LOG3 POP POP POP POP POP JUMP JUMPDEST PUSH1 0x0 DUP1 PUSH1 0x0 DUP5 PUSH20 0xFFFFFFFFFFFFFFFFFFFFFFFFFFFFFFFFFFFFFFFF AND PUSH20 0xFFFFFFFFFFFFFFFFFFFFFFFFFFFFFFFFFFFFFFFF AND DUP2 MSTORE PUSH1 0x20 ADD SWAP1 DUP2 MSTORE PUSH1 0x20 ADD PUSH1 0x0 KECCAK256 PUSH1 0x0 DUP4 DUP2 MSTORE PUSH1 0x20 ADD SWAP1 DUP2 MSTORE PUSH1 0x20 ADD PUSH1 0x0 KECCAK256 SWAP1 POP PUSH1 0x0 DUP2 PUSH1 0x7 ADD PUSH1 0x0 CALLER PUSH20 0xFFFFFFFFFFFFFFFFFFFFFFFFFFFFFFFFFFFFFFFF AND PUSH20 0xFFFFFFFFFFFFFFFFFFFFFFFFFFFFFFFFFFFFFFFF AND DUP2 MSTORE PUSH1 0x20 ADD SWAP1 DUP2 MSTORE PUSH1 0x20 ADD PUSH1 0x0 KECCAK256 SLOAD SWAP1 POP PUSH1 0x0 DUP2 EQ ISZERO DUP1 ISZERO PUSH2 0x10C1 JUMPI POP PUSH1 0x1 SLOAD DUP2 GT ISZERO JUMPDEST PUSH2 0x1100 JUMPI PUSH1 0x40 MLOAD PUSH32 0x8C379A000000000000000000000000000000000000000000000000000000000 DUP2 MSTORE PUSH1 0x4 ADD PUSH2 0x10F7 SWAP1 PUSH2 0x1878 JUMP JUMPDEST PUSH1 0x40 MLOAD DUP1 SWAP2 SUB SWAP1 REVERT JUMPDEST DUP2 PUSH1 0x6 ADD PUSH1 0x0 DUP4 PUSH1 0x4 ADD SLOAD DUP2 MSTORE PUSH1 0x20 ADD SWAP1 DUP2 MSTORE PUSH1 0x20 ADD PUSH1 0x0 KECCAK256 PUSH1 0x0 SWAP1 SLOAD SWAP1 PUSH2 0x100 EXP SWAP1 DIV PUSH20 0xFFFFFFFFFFFFFFFFFFFFFFFFFFFFFFFFFFFFFFFF AND PUSH20 0xFFFFFFFFFFFFFFFFFFFFFFFFFFFFFFFFFFFFFFFF AND CALLER PUSH20 0xFFFFFFFFFFFFFFFFFFFFFFFFFFFFFFFFFFFFFFFF AND EQ ISZERO PUSH2 0x1188 JUMPI DUP2 PUSH1 0x4 ADD PUSH1 0x0 DUP2 SLOAD DUP1 SWAP3 SWAP2 SWAP1 PUSH2 0x1182 SWAP1 PUSH2 0x1A4F JUMP JUMPDEST SWAP2 SWAP1 POP SSTORE POP JUMPDEST PUSH1 0x0 DUP3 PUSH1 0x7 ADD PUSH1 0x0 CALLER PUSH20 0xFFFFFFFFFFFFFFFFFFFFFFFFFFFFFFFFFFFFFFFF AND PUSH20 0xFFFFFFFFFFFFFFFFFFFFFFFFFFFFFFFFFFFFFFFF AND DUP2 MSTORE PUSH1 0x20 ADD SWAP1 DUP2 MSTORE PUSH1 0x20 ADD PUSH1 0x0 KECCAK256 DUP2 SWAP1 SSTORE POP CALLER PUSH20 0xFFFFFFFFFFFFFFFFFFFFFFFFFFFFFFFFFFFFFFFF AND PUSH2 0x8FC DUP3 SWAP1 DUP2 ISZERO MUL SWAP1 PUSH1 0x40 MLOAD PUSH1 0x0 PUSH1 0x40 MLOAD DUP1 DUP4 SUB DUP2 DUP6 DUP9 DUP9 CALL SWAP4 POP POP POP POP ISZERO DUP1 ISZERO PUSH2 0x1215 JUMPI RETURNDATASIZE PUSH1 0x0 DUP1 RETURNDATACOPY RETURNDATASIZE PUSH1 0x0 REVERT JUMPDEST POP DUP1 PUSH1 0x1 PUSH1 0x0 DUP3 DUP3 SLOAD PUSH2 0x1228 SWAP2 SWAP1 PUSH2 0x199D JUMP JUMPDEST SWAP3 POP POP DUP2 SWAP1 SSTORE POP DUP2 PUSH1 0x6 ADD PUSH1 0x0 DUP4 PUSH1 0x4 ADD SLOAD DUP2 MSTORE PUSH1 0x20 ADD SWAP1 DUP2 MSTORE PUSH1 0x20 ADD PUSH1 0x0 KECCAK256 PUSH1 0x0 SWAP1 SLOAD SWAP1 PUSH2 0x100 EXP SWAP1 DIV PUSH20 0xFFFFFFFFFFFFFFFFFFFFFFFFFFFFFFFFFFFFFFFF AND PUSH20 0xFFFFFFFFFFFFFFFFFFFFFFFFFFFFFFFFFFFFFFFF AND PUSH32 0xE684A55F31B79ECA403DF938249029212A5925EC6BE8012E099B45BC1019E5D2 DUP4 PUSH1 0x5 ADD PUSH1 0x0 DUP6 PUSH1 0x4 ADD SLOAD DUP2 MSTORE PUSH1 0x20 ADD SWAP1 DUP2 MSTORE PUSH1 0x20 ADD PUSH1 0x0 KECCAK256 SLOAD PUSH1 0x40 MLOAD PUSH2 0x12C7 SWAP2 SWAP1 PUSH2 0x1898 JUMP JUMPDEST PUSH1 0x40 MLOAD DUP1 SWAP2 SUB SWAP1 LOG2 CALLER PUSH20 0xFFFFFFFFFFFFFFFFFFFFFFFFFFFFFFFFFFFFFFFF AND PUSH32 0x884EDAD9CE6FA2440D8A54CC123490EB96D2768479D49FF9C7366125A9424364 DUP3 PUSH1 0x40 MLOAD PUSH2 0x1315 SWAP2 SWAP1 PUSH2 0x1898 JUMP JUMPDEST PUSH1 0x40 MLOAD DUP1 SWAP2 SUB SWAP1 LOG2 POP POP POP POP JUMP JUMPDEST PUSH1 0x0 PUSH1 0x20 MSTORE DUP2 PUSH1 0x0 MSTORE PUSH1 0x40 PUSH1 0x0 KECCAK256 PUSH1 0x20 MSTORE DUP1 PUSH1 0x0 MSTORE PUSH1 0x40 PUSH1 0x0 KECCAK256 PUSH1 0x0 SWAP2 POP SWAP2 POP POP DUP1 PUSH1 0x0 ADD PUSH1 0x0 SWAP1 SLOAD SWAP1 PUSH2 0x100 EXP SWAP1 DIV PUSH20 0xFFFFFFFFFFFFFFFFFFFFFFFFFFFFFFFFFFFFFFFF AND SWAP1 DUP1 PUSH1 0x0 ADD PUSH1 0x14 SWAP1 SLOAD SWAP1 PUSH2 0x100 EXP SWAP1 DIV PUSH1 0xFF AND SWAP1 DUP1 PUSH1 0x0 ADD PUSH1 0x15 SWAP1 SLOAD SWAP1 PUSH2 0x100 EXP SWAP1 DIV PUSH1 0xFF AND SWAP1 DUP1 PUSH1 0x1 ADD SLOAD SWAP1 DUP1 PUSH1 0x2 ADD PUSH1 0x0 SWAP1 SLOAD SWAP1 PUSH2 0x100 EXP SWAP1 DIV PUSH20 0xFFFFFFFFFFFFFFFFFFFFFFFFFFFFFFFFFFFFFFFF AND SWAP1 DUP1 PUSH1 0x3 ADD SLOAD SWAP1 DUP1 PUSH1 0x4 ADD SLOAD SWAP1 POP DUP8 JUMP JUMPDEST PUSH1 0x0 DUP2 CALLDATALOAD SWAP1 POP PUSH2 0x13DB DUP2 PUSH2 0x1C67 JUMP JUMPDEST SWAP3 SWAP2 POP POP JUMP JUMPDEST PUSH1 0x0 DUP2 MLOAD SWAP1 POP PUSH2 0x13F0 DUP2 PUSH2 0x1C67 JUMP JUMPDEST SWAP3 SWAP2 POP POP JUMP JUMPDEST PUSH1 0x0 DUP2 CALLDATALOAD SWAP1 POP PUSH2 0x1405 DUP2 PUSH2 0x1C7E JUMP JUMPDEST SWAP3 SWAP2 POP POP JUMP JUMPDEST PUSH1 0x0 PUSH1 0x20 DUP3 DUP5 SUB SLT ISZERO PUSH2 0x1421 JUMPI PUSH2 0x1420 PUSH2 0x1AF1 JUMP JUMPDEST JUMPDEST PUSH1 0x0 PUSH2 0x142F DUP5 DUP3 DUP6 ADD PUSH2 0x13E1 JUMP JUMPDEST SWAP2 POP POP SWAP3 SWAP2 POP POP JUMP JUMPDEST PUSH1 0x0 DUP1 PUSH1 0x40 DUP4 DUP6 SUB SLT ISZERO PUSH2 0x144F JUMPI PUSH2 0x144E PUSH2 0x1AF1 JUMP JUMPDEST JUMPDEST PUSH1 0x0 PUSH2 0x145D DUP6 DUP3 DUP7 ADD PUSH2 0x13CC JUMP JUMPDEST SWAP3 POP POP PUSH1 0x20 PUSH2 0x146E DUP6 DUP3 DUP7 ADD PUSH2 0x13F6 JUMP JUMPDEST SWAP2 POP POP SWAP3 POP SWAP3 SWAP1 POP JUMP JUMPDEST PUSH1 0x0 DUP1 PUSH1 0x0 PUSH1 0x60 DUP5 DUP7 SUB SLT ISZERO PUSH2 0x1491 JUMPI PUSH2 0x1490 PUSH2 0x1AF1 JUMP JUMPDEST JUMPDEST PUSH1 0x0 PUSH2 0x149F DUP7 DUP3 DUP8 ADD PUSH2 0x13CC JUMP JUMPDEST SWAP4 POP POP PUSH1 0x20 PUSH2 0x14B0 DUP7 DUP3 DUP8 ADD PUSH2 0x13F6 JUMP JUMPDEST SWAP3 POP POP PUSH1 0x40 PUSH2 0x14C1 DUP7 DUP3 DUP8 ADD PUSH2 0x13CC JUMP JUMPDEST SWAP2 POP POP SWAP3 POP SWAP3 POP SWAP3 JUMP JUMPDEST PUSH1 0x0 DUP1 PUSH1 0x0 DUP1 PUSH1 0x80 DUP6 DUP8 SUB SLT ISZERO PUSH2 0x14E5 JUMPI PUSH2 0x14E4 PUSH2 0x1AF1 JUMP JUMPDEST JUMPDEST PUSH1 0x0 PUSH2 0x14F3 DUP8 DUP3 DUP9 ADD PUSH2 0x13CC JUMP JUMPDEST SWAP5 POP POP PUSH1 0x20 PUSH2 0x1504 DUP8 DUP3 DUP9 ADD PUSH2 0x13F6 JUMP JUMPDEST SWAP4 POP POP PUSH1 0x40 PUSH2 0x1515 DUP8 DUP3 DUP9 ADD PUSH2 0x13F6 JUMP JUMPDEST SWAP3 POP POP PUSH1 0x60 PUSH2 0x1526 DUP8 DUP3 DUP9 ADD PUSH2 0x13F6 JUMP JUMPDEST SWAP2 POP POP SWAP3 SWAP6 SWAP2 SWAP5 POP SWAP3 POP JUMP JUMPDEST PUSH2 0x153B DUP2 PUSH2 0x19D1 JUMP JUMPDEST DUP3 MSTORE POP POP JUMP JUMPDEST PUSH2 0x154A DUP2 PUSH2 0x19E3 JUMP JUMPDEST DUP3 MSTORE POP POP JUMP JUMPDEST PUSH2 0x1559 DUP2 PUSH2 0x1A19 JUMP JUMPDEST DUP3 MSTORE POP POP JUMP JUMPDEST PUSH1 0x0 PUSH2 0x156C PUSH1 0xA DUP4 PUSH2 0x18DC JUMP JUMPDEST SWAP2 POP PUSH2 0x1577 DUP3 PUSH2 0x1AF6 JUMP JUMPDEST PUSH1 0x20 DUP3 ADD SWAP1 POP SWAP2 SWAP1 POP JUMP JUMPDEST PUSH1 0x0 PUSH2 0x158F PUSH1 0x19 DUP4 PUSH2 0x18DC JUMP JUMPDEST SWAP2 POP PUSH2 0x159A DUP3 PUSH2 0x1B1F JUMP JUMPDEST PUSH1 0x20 DUP3 ADD SWAP1 POP SWAP2 SWAP1 POP JUMP JUMPDEST PUSH1 0x0 PUSH2 0x15B2 PUSH1 0x10 DUP4 PUSH2 0x18DC JUMP JUMPDEST SWAP2 POP PUSH2 0x15BD DUP3 PUSH2 0x1B48 JUMP JUMPDEST PUSH1 0x20 DUP3 ADD SWAP1 POP SWAP2 SWAP1 POP JUMP JUMPDEST PUSH1 0x0 PUSH2 0x15D5 PUSH1 0x6 DUP4 PUSH2 0x18DC JUMP JUMPDEST SWAP2 POP PUSH2 0x15E0 DUP3 PUSH2 0x1B71 JUMP JUMPDEST PUSH1 0x20 DUP3 ADD SWAP1 POP SWAP2 SWAP1 POP JUMP JUMPDEST PUSH1 0x0 PUSH2 0x15F8 PUSH1 0x18 DUP4 PUSH2 0x18DC JUMP JUMPDEST SWAP2 POP PUSH2 0x1603 DUP3 PUSH2 0x1B9A JUMP JUMPDEST PUSH1 0x20 DUP3 ADD SWAP1 POP SWAP2 SWAP1 POP JUMP JUMPDEST PUSH1 0x0 PUSH2 0x161B PUSH1 0x1E DUP4 PUSH2 0x18DC JUMP JUMPDEST SWAP2 POP PUSH2 0x1626 DUP3 PUSH2 0x1BC3 JUMP JUMPDEST PUSH1 0x20 DUP3 ADD SWAP1 POP SWAP2 SWAP1 POP JUMP JUMPDEST PUSH1 0x0 PUSH2 0x163E PUSH1 0xC DUP4 PUSH2 0x18DC JUMP JUMPDEST SWAP2 POP PUSH2 0x1649 DUP3 PUSH2 0x1BEC JUMP JUMPDEST PUSH1 0x20 DUP3 ADD SWAP1 POP SWAP2 SWAP1 POP JUMP JUMPDEST PUSH1 0x0 PUSH2 0x1661 PUSH1 0x16 DUP4 PUSH2 0x18DC JUMP JUMPDEST SWAP2 POP PUSH2 0x166C DUP3 PUSH2 0x1C15 JUMP JUMPDEST PUSH1 0x20 DUP3 ADD SWAP1 POP SWAP2 SWAP1 POP JUMP JUMPDEST PUSH1 0x0 PUSH2 0x1684 PUSH1 0x12 DUP4 PUSH2 0x18DC JUMP JUMPDEST SWAP2 POP PUSH2 0x168F DUP3 PUSH2 0x1C3E JUMP JUMPDEST PUSH1 0x20 DUP3 ADD SWAP1 POP SWAP2 SWAP1 POP JUMP JUMPDEST PUSH2 0x16A3 DUP2 PUSH2 0x1A0F JUMP JUMPDEST DUP3 MSTORE POP POP JUMP JUMPDEST PUSH1 0x0 PUSH1 0x60 DUP3 ADD SWAP1 POP PUSH2 0x16BE PUSH1 0x0 DUP4 ADD DUP7 PUSH2 0x1532 JUMP JUMPDEST PUSH2 0x16CB PUSH1 0x20 DUP4 ADD DUP6 PUSH2 0x1532 JUMP JUMPDEST PUSH2 0x16D8 PUSH1 0x40 DUP4 ADD DUP5 PUSH2 0x169A JUMP JUMPDEST SWAP5 SWAP4 POP POP POP POP JUMP JUMPDEST PUSH1 0x0 PUSH1 0xE0 DUP3 ADD SWAP1 POP PUSH2 0x16F5 PUSH1 0x0 DUP4 ADD DUP11 PUSH2 0x1532 JUMP JUMPDEST PUSH2 0x1702 PUSH1 0x20 DUP4 ADD DUP10 PUSH2 0x1541 JUMP JUMPDEST PUSH2 0x170F PUSH1 0x40 DUP4 ADD DUP9 PUSH2 0x1541 JUMP JUMPDEST PUSH2 0x171C PUSH1 0x60 DUP4 ADD DUP8 PUSH2 0x169A JUMP JUMPDEST PUSH2 0x1729 PUSH1 0x80 DUP4 ADD DUP7 PUSH2 0x1550 JUMP JUMPDEST PUSH2 0x1736 PUSH1 0xA0 DUP4 ADD DUP6 PUSH2 0x169A JUMP JUMPDEST PUSH2 0x1743 PUSH1 0xC0 DUP4 ADD DUP5 PUSH2 0x169A JUMP JUMPDEST SWAP9 SWAP8 POP POP POP POP POP POP POP POP JUMP JUMPDEST PUSH1 0x0 PUSH1 0x40 DUP3 ADD SWAP1 POP PUSH2 0x1764 PUSH1 0x0 DUP4 ADD DUP6 PUSH2 0x1532 JUMP JUMPDEST PUSH2 0x1771 PUSH1 0x20 DUP4 ADD DUP5 PUSH2 0x169A JUMP JUMPDEST SWAP4 SWAP3 POP POP POP JUMP JUMPDEST PUSH1 0x0 PUSH1 0x20 DUP3 ADD SWAP1 POP DUP2 DUP2 SUB PUSH1 0x0 DUP4 ADD MSTORE PUSH2 0x1791 DUP2 PUSH2 0x155F JUMP JUMPDEST SWAP1 POP SWAP2 SWAP1 POP JUMP JUMPDEST PUSH1 0x0 PUSH1 0x20 DUP3 ADD SWAP1 POP DUP2 DUP2 SUB PUSH1 0x0 DUP4 ADD MSTORE PUSH2 0x17B1 DUP2 PUSH2 0x1582 JUMP JUMPDEST SWAP1 POP SWAP2 SWAP1 POP JUMP JUMPDEST PUSH1 0x0 PUSH1 0x20 DUP3 ADD SWAP1 POP DUP2 DUP2 SUB PUSH1 0x0 DUP4 ADD MSTORE PUSH2 0x17D1 DUP2 PUSH2 0x15A5 JUMP JUMPDEST SWAP1 POP SWAP2 SWAP1 POP JUMP JUMPDEST PUSH1 0x0 PUSH1 0x20 DUP3 ADD SWAP1 POP DUP2 DUP2 SUB PUSH1 0x0 DUP4 ADD MSTORE PUSH2 0x17F1 DUP2 PUSH2 0x15C8 JUMP JUMPDEST SWAP1 POP SWAP2 SWAP1 POP JUMP JUMPDEST PUSH1 0x0 PUSH1 0x20 DUP3 ADD SWAP1 POP DUP2 DUP2 SUB PUSH1 0x0 DUP4 ADD MSTORE PUSH2 0x1811 DUP2 PUSH2 0x15EB JUMP JUMPDEST SWAP1 POP SWAP2 SWAP1 POP JUMP JUMPDEST PUSH1 0x0 PUSH1 0x20 DUP3 ADD SWAP1 POP DUP2 DUP2 SUB PUSH1 0x0 DUP4 ADD MSTORE PUSH2 0x1831 DUP2 PUSH2 0x160E JUMP JUMPDEST SWAP1 POP SWAP2 SWAP1 POP JUMP JUMPDEST PUSH1 0x0 PUSH1 0x20 DUP3 ADD SWAP1 POP DUP2 DUP2 SUB PUSH1 0x0 DUP4 ADD MSTORE PUSH2 0x1851 DUP2 PUSH2 0x1631 JUMP JUMPDEST SWAP1 POP SWAP2 SWAP1 POP JUMP JUMPDEST PUSH1 0x0 PUSH1 0x20 DUP3 ADD SWAP1 POP DUP2 DUP2 SUB PUSH1 0x0 DUP4 ADD MSTORE PUSH2 0x1871 DUP2 PUSH2 0x1654 JUMP JUMPDEST SWAP1 POP SWAP2 SWAP1 POP JUMP JUMPDEST PUSH1 0x0 PUSH1 0x20 DUP3 ADD SWAP1 POP DUP2 DUP2 SUB PUSH1 0x0 DUP4 ADD MSTORE PUSH2 0x1891 DUP2 PUSH2 0x1677 JUMP JUMPDEST SWAP1 POP SWAP2 SWAP1 POP JUMP JUMPDEST PUSH1 0x0 PUSH1 0x20 DUP3 ADD SWAP1 POP PUSH2 0x18AD PUSH1 0x0 DUP4 ADD DUP5 PUSH2 0x169A JUMP JUMPDEST SWAP3 SWAP2 POP POP JUMP JUMPDEST PUSH1 0x0 PUSH1 0x40 DUP3 ADD SWAP1 POP PUSH2 0x18C8 PUSH1 0x0 DUP4 ADD DUP6 PUSH2 0x169A JUMP JUMPDEST PUSH2 0x18D5 PUSH1 0x20 DUP4 ADD DUP5 PUSH2 0x169A JUMP JUMPDEST SWAP4 SWAP3 POP POP POP JUMP JUMPDEST PUSH1 0x0 DUP3 DUP3 MSTORE PUSH1 0x20 DUP3 ADD SWAP1 POP SWAP3 SWAP2 POP POP JUMP JUMPDEST PUSH1 0x0 PUSH2 0x18F8 DUP3 PUSH2 0x1A0F JUMP JUMPDEST SWAP2 POP PUSH2 0x1903 DUP4 PUSH2 0x1A0F JUMP JUMPDEST SWAP3 POP DUP3 PUSH32 0xFFFFFFFFFFFFFFFFFFFFFFFFFFFFFFFFFFFFFFFFFFFFFFFFFFFFFFFFFFFFFFFF SUB DUP3 GT ISZERO PUSH2 0x1938 JUMPI PUSH2 0x1937 PUSH2 0x1AC2 JUMP JUMPDEST JUMPDEST DUP3 DUP3 ADD SWAP1 POP SWAP3 SWAP2 POP POP JUMP JUMPDEST PUSH1 0x0 PUSH2 0x194E DUP3 PUSH2 0x1A0F JUMP JUMPDEST SWAP2 POP PUSH2 0x1959 DUP4 PUSH2 0x1A0F JUMP JUMPDEST SWAP3 POP DUP2 PUSH32 0xFFFFFFFFFFFFFFFFFFFFFFFFFFFFFFFFFFFFFFFFFFFFFFFFFFFFFFFFFFFFFFFF DIV DUP4 GT DUP3 ISZERO ISZERO AND ISZERO PUSH2 0x1992 JUMPI PUSH2 0x1991 PUSH2 0x1AC2 JUMP JUMPDEST JUMPDEST DUP3 DUP3 MUL SWAP1 POP SWAP3 SWAP2 POP POP JUMP JUMPDEST PUSH1 0x0 PUSH2 0x19A8 DUP3 PUSH2 0x1A0F JUMP JUMPDEST SWAP2 POP PUSH2 0x19B3 DUP4 PUSH2 0x1A0F JUMP JUMPDEST SWAP3 POP DUP3 DUP3 LT ISZERO PUSH2 0x19C6 JUMPI PUSH2 0x19C5 PUSH2 0x1AC2 JUMP JUMPDEST JUMPDEST DUP3 DUP3 SUB SWAP1 POP SWAP3 SWAP2 POP POP JUMP JUMPDEST PUSH1 0x0 PUSH2 0x19DC DUP3 PUSH2 0x19EF JUMP JUMPDEST SWAP1 POP SWAP2 SWAP1 POP JUMP JUMPDEST PUSH1 0x0 DUP2 ISZERO ISZERO SWAP1 POP SWAP2 SWAP1 POP JUMP JUMPDEST PUSH1 0x0 PUSH20 0xFFFFFFFFFFFFFFFFFFFFFFFFFFFFFFFFFFFFFFFF DUP3 AND SWAP1 POP SWAP2 SWAP1 POP JUMP JUMPDEST PUSH1 0x0 DUP2 SWAP1 POP SWAP2 SWAP1 POP JUMP JUMPDEST PUSH1 0x0 PUSH2 0x1A24 DUP3 PUSH2 0x1A2B JUMP JUMPDEST SWAP1 POP SWAP2 SWAP1 POP JUMP JUMPDEST PUSH1 0x0 PUSH2 0x1A36 DUP3 PUSH2 0x1A3D JUMP JUMPDEST SWAP1 POP SWAP2 SWAP1 POP JUMP JUMPDEST PUSH1 0x0 PUSH2 0x1A48 DUP3 PUSH2 0x19EF JUMP JUMPDEST SWAP1 POP SWAP2 SWAP1 POP JUMP JUMPDEST PUSH1 0x0 PUSH2 0x1A5A DUP3 PUSH2 0x1A0F JUMP JUMPDEST SWAP2 POP PUSH1 0x0 DUP3 EQ ISZERO PUSH2 0x1A6E JUMPI PUSH2 0x1A6D PUSH2 0x1AC2 JUMP JUMPDEST JUMPDEST PUSH1 0x1 DUP3 SUB SWAP1 POP SWAP2 SWAP1 POP JUMP JUMPDEST PUSH1 0x0 PUSH2 0x1A84 DUP3 PUSH2 0x1A0F JUMP JUMPDEST SWAP2 POP PUSH32 0xFFFFFFFFFFFFFFFFFFFFFFFFFFFFFFFFFFFFFFFFFFFFFFFFFFFFFFFFFFFFFFFF DUP3 EQ ISZERO PUSH2 0x1AB7 JUMPI PUSH2 0x1AB6 PUSH2 0x1AC2 JUMP JUMPDEST JUMPDEST PUSH1 0x1 DUP3 ADD SWAP1 POP SWAP2 SWAP1 POP JUMP JUMPDEST PUSH32 0x4E487B7100000000000000000000000000000000000000000000000000000000 PUSH1 0x0 MSTORE PUSH1 0x11 PUSH1 0x4 MSTORE PUSH1 0x24 PUSH1 0x0 REVERT JUMPDEST PUSH1 0x0 DUP1 REVERT JUMPDEST PUSH32 0x4C6F776572206269642100000000000000000000000000000000000000000000 PUSH1 0x0 DUP3 ADD MSTORE POP JUMP JUMPDEST PUSH32 0x41756374696F6E206973207374696C6C206F6E676F696E672100000000000000 PUSH1 0x0 DUP3 ADD MSTORE POP JUMP JUMPDEST PUSH32 0x416C726561647920737461727465642100000000000000000000000000000000 PUSH1 0x0 DUP3 ADD MSTORE POP JUMP JUMPDEST PUSH32 0x456E646564210000000000000000000000000000000000000000000000000000 PUSH1 0x0 DUP3 ADD MSTORE POP JUMP JUMPDEST PUSH32 0x596F75206E65656420746F207374617274206669727374210000000000000000 PUSH1 0x0 DUP3 ADD MSTORE POP JUMP JUMPDEST PUSH32 0x596F752063616E206E6F74207374617274207468652061756374696F6E210000 PUSH1 0x0 DUP3 ADD MSTORE POP JUMP JUMPDEST PUSH32 0x4E6F7420737461727465642E0000000000000000000000000000000000000000 PUSH1 0x0 DUP3 ADD MSTORE POP JUMP JUMPDEST PUSH32 0x41756374696F6E20616C726561647920656E6465642100000000000000000000 PUSH1 0x0 DUP3 ADD MSTORE POP JUMP JUMPDEST PUSH32 0x436F756C64206E6F742077697468647261770000000000000000000000000000 PUSH1 0x0 DUP3 ADD MSTORE POP JUMP JUMPDEST PUSH2 0x1C70 DUP2 PUSH2 0x19D1 JUMP JUMPDEST DUP2 EQ PUSH2 0x1C7B JUMPI PUSH1 0x0 DUP1 REVERT JUMPDEST POP JUMP JUMPDEST PUSH2 0x1C87 DUP2 PUSH2 0x1A0F JUMP JUMPDEST DUP2 EQ PUSH2 0x1C92 JUMPI PUSH1 0x0 DUP1 REVERT JUMPDEST POP JUMP INVALID LOG2 PUSH5 0x6970667358 0x22 SLT KECCAK256 DIV SLOAD OR DUP14 PUSH3 0x57746F CALLVALUE 0xF SWAP6 0xD 0xE1 PUSH15 0x99FB96EFB4629AF9F6524AA689868C 0x5C 0xC0 0xE7 PUSH5 0x736F6C6343 STOP ADDMOD SMOD STOP CALLER "
				},
				"gasEstimates": {
					"creation": {
						"codeDepositCost": "1474200",
						"executionCost": "1541",
						"totalCost": "1475741"
					},
					"external": {
						"autoWithdraw(address,uint256,address)": "infinite",
						"balances()": "2429",
						"bid(address,uint256)": "infinite",
						"biddings(address,uint256)": "infinite",
						"end(address,uint256)": "infinite",
						"start(address,uint256,uint256,uint256)": "infinite",
						"withdraw(address,uint256)": "infinite"
					}
				},
				"methodIdentifiers": {
					"autoWithdraw(address,uint256,address)": "699ff43f",
					"balances()": "7bb98a68",
					"bid(address,uint256)": "59d667a5",
					"biddings(address,uint256)": "f48e9b3d",
					"end(address,uint256)": "695d69ba",
					"start(address,uint256,uint256,uint256)": "b76a3b5a",
					"withdraw(address,uint256)": "f3fef3a3"
				}
			},
			"storageLayout": {
				"storage": [
					{
						"astId": 37,
						"contract": "Bid.sol:Auction",
						"label": "biddings",
						"offset": 0,
						"slot": "0",
						"type": "t_mapping(t_address,t_mapping(t_uint256,t_struct(Bidding)67_storage))"
					},
					{
						"astId": 39,
						"contract": "Bid.sol:Auction",
						"label": "balances",
						"offset": 0,
						"slot": "1",
						"type": "t_uint256"
					}
				],
				"types": {
					"t_address": {
						"encoding": "inplace",
						"label": "address",
						"numberOfBytes": "20"
					},
					"t_bool": {
						"encoding": "inplace",
						"label": "bool",
						"numberOfBytes": "1"
					},
					"t_contract(ERC721)1754": {
						"encoding": "inplace",
						"label": "contract ERC721",
						"numberOfBytes": "20"
					},
					"t_mapping(t_address,t_mapping(t_uint256,t_struct(Bidding)67_storage))": {
						"encoding": "mapping",
						"key": "t_address",
						"label": "mapping(address => mapping(uint256 => struct Auction.Bidding))",
						"numberOfBytes": "32",
						"value": "t_mapping(t_uint256,t_struct(Bidding)67_storage)"
					},
					"t_mapping(t_address,t_uint256)": {
						"encoding": "mapping",
						"key": "t_address",
						"label": "mapping(address => uint256)",
						"numberOfBytes": "32",
						"value": "t_uint256"
					},
					"t_mapping(t_uint256,t_address)": {
						"encoding": "mapping",
						"key": "t_uint256",
						"label": "mapping(uint256 => address)",
						"numberOfBytes": "32",
						"value": "t_address"
					},
					"t_mapping(t_uint256,t_struct(Bidding)67_storage)": {
						"encoding": "mapping",
						"key": "t_uint256",
						"label": "mapping(uint256 => struct Auction.Bidding)",
						"numberOfBytes": "32",
						"value": "t_struct(Bidding)67_storage"
					},
					"t_mapping(t_uint256,t_uint256)": {
						"encoding": "mapping",
						"key": "t_uint256",
						"label": "mapping(uint256 => uint256)",
						"numberOfBytes": "32",
						"value": "t_uint256"
					},
					"t_struct(Bidding)67_storage": {
						"encoding": "inplace",
						"label": "struct Auction.Bidding",
						"members": [
							{
								"astId": 41,
								"contract": "Bid.sol:Auction",
								"label": "seller",
								"offset": 0,
								"slot": "0",
								"type": "t_address"
							},
							{
								"astId": 43,
								"contract": "Bid.sol:Auction",
								"label": "started",
								"offset": 20,
								"slot": "0",
								"type": "t_bool"
							},
							{
								"astId": 45,
								"contract": "Bid.sol:Auction",
								"label": "ended",
								"offset": 21,
								"slot": "0",
								"type": "t_bool"
							},
							{
								"astId": 47,
								"contract": "Bid.sol:Auction",
								"label": "endAt",
								"offset": 0,
								"slot": "1",
								"type": "t_uint256"
							},
							{
								"astId": 50,
								"contract": "Bid.sol:Auction",
								"label": "tokenAddr",
								"offset": 0,
								"slot": "2",
								"type": "t_contract(ERC721)1754"
							},
							{
								"astId": 52,
								"contract": "Bid.sol:Auction",
								"label": "tokenId",
								"offset": 0,
								"slot": "3",
								"type": "t_uint256"
							},
							{
								"astId": 54,
								"contract": "Bid.sol:Auction",
								"label": "bidCount",
								"offset": 0,
								"slot": "4",
								"type": "t_uint256"
							},
							{
								"astId": 58,
								"contract": "Bid.sol:Auction",
								"label": "highestBid",
								"offset": 0,
								"slot": "5",
								"type": "t_mapping(t_uint256,t_uint256)"
							},
							{
								"astId": 62,
								"contract": "Bid.sol:Auction",
								"label": "highestBidder",
								"offset": 0,
								"slot": "6",
								"type": "t_mapping(t_uint256,t_address)"
							},
							{
								"astId": 66,
								"contract": "Bid.sol:Auction",
								"label": "bids",
								"offset": 0,
								"slot": "7",
								"type": "t_mapping(t_address,t_uint256)"
							}
						],
						"numberOfBytes": "256"
					},
					"t_uint256": {
						"encoding": "inplace",
						"label": "uint256",
						"numberOfBytes": "32"
					}
				}
			},
			"userdoc": {
				"kind": "user",
				"methods": {},
				"version": 1
			}
		}
	}
}