{
	"Bid.sol": {
		"Auction": {
			"abi": [
				{
					"inputs": [],
					"stateMutability": "nonpayable",
					"type": "constructor"
				},
				{
					"anonymous": false,
					"inputs": [
						{
							"indexed": true,
							"internalType": "address",
							"name": "sender",
							"type": "address"
						},
						{
							"indexed": false,
							"internalType": "uint256",
							"name": "amount",
							"type": "uint256"
						}
					],
					"name": "Bid",
					"type": "event"
				},
				{
					"anonymous": false,
					"inputs": [
						{
							"indexed": false,
							"internalType": "address",
							"name": "highestBidder",
							"type": "address"
						},
						{
							"indexed": false,
							"internalType": "uint256",
							"name": "highestBid",
							"type": "uint256"
						}
					],
					"name": "End",
					"type": "event"
				},
				{
					"anonymous": false,
					"inputs": [
						{
							"indexed": false,
							"internalType": "uint256",
							"name": "endAt",
							"type": "uint256"
						}
					],
					"name": "Start",
					"type": "event"
				},
				{
					"anonymous": false,
					"inputs": [
						{
							"indexed": true,
							"internalType": "address",
							"name": "bidder",
							"type": "address"
						},
						{
							"indexed": false,
							"internalType": "uint256",
							"name": "amount",
							"type": "uint256"
						}
					],
					"name": "Withdraw",
					"type": "event"
				},
				{
					"inputs": [],
					"name": "bid",
					"outputs": [],
					"stateMutability": "payable",
					"type": "function"
				},
				{
					"inputs": [
						{
							"internalType": "address",
							"name": "",
							"type": "address"
						}
					],
					"name": "bids",
					"outputs": [
						{
							"internalType": "uint256",
							"name": "",
							"type": "uint256"
						}
					],
					"stateMutability": "view",
					"type": "function"
				},
				{
					"inputs": [],
					"name": "end",
					"outputs": [],
					"stateMutability": "nonpayable",
					"type": "function"
				},
				{
					"inputs": [],
					"name": "endAt",
					"outputs": [
						{
							"internalType": "uint256",
							"name": "",
							"type": "uint256"
						}
					],
					"stateMutability": "view",
					"type": "function"
				},
				{
					"inputs": [],
					"name": "ended",
					"outputs": [
						{
							"internalType": "bool",
							"name": "",
							"type": "bool"
						}
					],
					"stateMutability": "view",
					"type": "function"
				},
				{
					"inputs": [],
					"name": "highestBid",
					"outputs": [
						{
							"internalType": "uint256",
							"name": "",
							"type": "uint256"
						}
					],
					"stateMutability": "view",
					"type": "function"
				},
				{
					"inputs": [],
					"name": "highestBidder",
					"outputs": [
						{
							"internalType": "address",
							"name": "",
							"type": "address"
						}
					],
					"stateMutability": "view",
					"type": "function"
				},
				{
					"inputs": [],
					"name": "nft",
					"outputs": [
						{
							"internalType": "contract IERC721",
							"name": "",
							"type": "address"
						}
					],
					"stateMutability": "view",
					"type": "function"
				},
				{
					"inputs": [],
					"name": "nftId",
					"outputs": [
						{
							"internalType": "uint256",
							"name": "",
							"type": "uint256"
						}
					],
					"stateMutability": "view",
					"type": "function"
				},
				{
					"inputs": [],
					"name": "seller",
					"outputs": [
						{
							"internalType": "address payable",
							"name": "",
							"type": "address"
						}
					],
					"stateMutability": "view",
					"type": "function"
				},
				{
					"inputs": [
						{
							"internalType": "contract IERC721",
							"name": "_nft",
							"type": "address"
						},
						{
							"internalType": "uint256",
							"name": "_nftId",
							"type": "uint256"
						},
						{
							"internalType": "uint256",
							"name": "startingBid",
							"type": "uint256"
						},
						{
							"internalType": "uint256",
							"name": "dayAmount",
							"type": "uint256"
						}
					],
					"name": "start",
					"outputs": [],
					"stateMutability": "nonpayable",
					"type": "function"
				},
				{
					"inputs": [],
					"name": "started",
					"outputs": [
						{
							"internalType": "bool",
							"name": "",
							"type": "bool"
						}
					],
					"stateMutability": "view",
					"type": "function"
				},
				{
					"inputs": [],
					"name": "withdraw",
					"outputs": [],
					"stateMutability": "payable",
					"type": "function"
				}
			],
			"devdoc": {
				"kind": "dev",
				"methods": {},
				"version": 1
			},
			"evm": {
				"assembly": "    /* \"Bid.sol\":230:2574  contract Auction {\r... */\n  mstore(0x40, 0x80)\n    /* \"Bid.sol\":727:789  constructor () {\r... */\n  callvalue\n  dup1\n  iszero\n  tag_1\n  jumpi\n  0x00\n  dup1\n  revert\ntag_1:\n  pop\n    /* \"Bid.sol\":770:780  msg.sender */\n  caller\n    /* \"Bid.sol\":753:759  seller */\n  0x00\n  dup1\n    /* \"Bid.sol\":753:781  seller = payable(msg.sender) */\n  0x0100\n  exp\n  dup2\n  sload\n  dup2\n  0xffffffffffffffffffffffffffffffffffffffff\n  mul\n  not\n  and\n  swap1\n  dup4\n  0xffffffffffffffffffffffffffffffffffffffff\n  and\n  mul\n  or\n  swap1\n  sstore\n  pop\n    /* \"Bid.sol\":230:2574  contract Auction {\r... */\n  dataSize(sub_0)\n  dup1\n  dataOffset(sub_0)\n  0x00\n  codecopy\n  0x00\n  return\nstop\n\nsub_0: assembly {\n        /* \"Bid.sol\":230:2574  contract Auction {\r... */\n      mstore(0x40, 0x80)\n      jumpi(tag_1, lt(calldatasize, 0x04))\n      shr(0xe0, calldataload(0x00))\n      dup1\n      0x62ea82db\n      gt\n      tag_15\n      jumpi\n      dup1\n      0xb76a3b5a\n      gt\n      tag_16\n      jumpi\n      dup1\n      0xb76a3b5a\n      eq\n      tag_11\n      jumpi\n      dup1\n      0xc6bc5182\n      eq\n      tag_12\n      jumpi\n      dup1\n      0xd57bde79\n      eq\n      tag_13\n      jumpi\n      dup1\n      0xefbe1c1c\n      eq\n      tag_14\n      jumpi\n      jump(tag_1)\n    tag_16:\n      dup1\n      0x62ea82db\n      eq\n      tag_8\n      jumpi\n      dup1\n      0x7cc3ae8c\n      eq\n      tag_9\n      jumpi\n      dup1\n      0x91f90157\n      eq\n      tag_10\n      jumpi\n      jump(tag_1)\n    tag_15:\n      dup1\n      0x08551a53\n      eq\n      tag_2\n      jumpi\n      dup1\n      0x12fa6feb\n      eq\n      tag_3\n      jumpi\n      dup1\n      0x1998aeef\n      eq\n      tag_4\n      jumpi\n      dup1\n      0x1f2698ab\n      eq\n      tag_5\n      jumpi\n      dup1\n      0x3ccfd60b\n      eq\n      tag_6\n      jumpi\n      dup1\n      0x47ccca02\n      eq\n      tag_7\n      jumpi\n    tag_1:\n      0x00\n      dup1\n      revert\n        /* \"Bid.sol\":453:482  address payable public seller */\n    tag_2:\n      callvalue\n      dup1\n      iszero\n      tag_17\n      jumpi\n      0x00\n      dup1\n      revert\n    tag_17:\n      pop\n      tag_18\n      tag_19\n      jump\t// in\n    tag_18:\n      mload(0x40)\n      tag_20\n      swap2\n      swap1\n      tag_21\n      jump\t// in\n    tag_20:\n      mload(0x40)\n      dup1\n      swap2\n      sub\n      swap1\n      return\n        /* \"Bid.sol\":517:534  bool public ended */\n    tag_3:\n      callvalue\n      dup1\n      iszero\n      tag_22\n      jumpi\n      0x00\n      dup1\n      revert\n    tag_22:\n      pop\n      tag_23\n      tag_24\n      jump\t// in\n    tag_23:\n      mload(0x40)\n      tag_25\n      swap2\n      swap1\n      tag_26\n      jump\t// in\n    tag_25:\n      mload(0x40)\n      dup1\n      swap2\n      sub\n      swap1\n      return\n        /* \"Bid.sol\":1281:1684  function bid() external payable {\r... */\n    tag_4:\n      tag_27\n      tag_28\n      jump\t// in\n    tag_27:\n      stop\n        /* \"Bid.sol\":491:510  bool public started */\n    tag_5:\n      callvalue\n      dup1\n      iszero\n      tag_29\n      jumpi\n      0x00\n      dup1\n      revert\n    tag_29:\n      pop\n      tag_30\n      tag_31\n      jump\t// in\n    tag_30:\n      mload(0x40)\n      tag_32\n      swap2\n      swap1\n      tag_26\n      jump\t// in\n    tag_32:\n      mload(0x40)\n      dup1\n      swap2\n      sub\n      swap1\n      return\n        /* \"Bid.sol\":1692:1979  function withdraw() external payable {\r... */\n    tag_6:\n      tag_33\n      tag_34\n      jump\t// in\n    tag_33:\n      stop\n        /* \"Bid.sol\":567:585  IERC721 public nft */\n    tag_7:\n      callvalue\n      dup1\n      iszero\n      tag_35\n      jumpi\n      0x00\n      dup1\n      revert\n    tag_35:\n      pop\n      tag_36\n      tag_37\n      jump\t// in\n    tag_36:\n      mload(0x40)\n      tag_38\n      swap2\n      swap1\n      tag_39\n      jump\t// in\n    tag_38:\n      mload(0x40)\n      dup1\n      swap2\n      sub\n      swap1\n      return\n        /* \"Bid.sol\":682:718  mapping(address => uint) public bids */\n    tag_8:\n      callvalue\n      dup1\n      iszero\n      tag_40\n      jumpi\n      0x00\n      dup1\n      revert\n    tag_40:\n      pop\n      tag_41\n      0x04\n      dup1\n      calldatasize\n      sub\n      dup2\n      add\n      swap1\n      tag_42\n      swap2\n      swap1\n      tag_43\n      jump\t// in\n    tag_42:\n      tag_44\n      jump\t// in\n    tag_41:\n      mload(0x40)\n      tag_45\n      swap2\n      swap1\n      tag_46\n      jump\t// in\n    tag_45:\n      mload(0x40)\n      dup1\n      swap2\n      sub\n      swap1\n      return\n        /* \"Bid.sol\":541:558  uint public endAt */\n    tag_9:\n      callvalue\n      dup1\n      iszero\n      tag_47\n      jumpi\n      0x00\n      dup1\n      revert\n    tag_47:\n      pop\n      tag_48\n      tag_49\n      jump\t// in\n    tag_48:\n      mload(0x40)\n      tag_50\n      swap2\n      swap1\n      tag_46\n      jump\t// in\n    tag_50:\n      mload(0x40)\n      dup1\n      swap2\n      sub\n      swap1\n      return\n        /* \"Bid.sol\":647:675  address public highestBidder */\n    tag_10:\n      callvalue\n      dup1\n      iszero\n      tag_51\n      jumpi\n      0x00\n      dup1\n      revert\n    tag_51:\n      pop\n      tag_52\n      tag_53\n      jump\t// in\n    tag_52:\n      mload(0x40)\n      tag_54\n      swap2\n      swap1\n      tag_55\n      jump\t// in\n    tag_54:\n      mload(0x40)\n      dup1\n      swap2\n      sub\n      swap1\n      return\n        /* \"Bid.sol\":797:1273  function start(IERC721 _nft, uint _nftId, uint startingBid, uint256 dayAmount) external {\r... */\n    tag_11:\n      callvalue\n      dup1\n      iszero\n      tag_56\n      jumpi\n      0x00\n      dup1\n      revert\n    tag_56:\n      pop\n      tag_57\n      0x04\n      dup1\n      calldatasize\n      sub\n      dup2\n      add\n      swap1\n      tag_58\n      swap2\n      swap1\n      tag_59\n      jump\t// in\n    tag_58:\n      tag_60\n      jump\t// in\n    tag_57:\n      stop\n        /* \"Bid.sol\":592:609  uint public nftId */\n    tag_12:\n      callvalue\n      dup1\n      iszero\n      tag_61\n      jumpi\n      0x00\n      dup1\n      revert\n    tag_61:\n      pop\n      tag_62\n      tag_63\n      jump\t// in\n    tag_62:\n      mload(0x40)\n      tag_64\n      swap2\n      swap1\n      tag_46\n      jump\t// in\n    tag_64:\n      mload(0x40)\n      dup1\n      swap2\n      sub\n      swap1\n      return\n        /* \"Bid.sol\":618:640  uint public highestBid */\n    tag_13:\n      callvalue\n      dup1\n      iszero\n      tag_65\n      jumpi\n      0x00\n      dup1\n      revert\n    tag_65:\n      pop\n      tag_66\n      tag_67\n      jump\t// in\n    tag_66:\n      mload(0x40)\n      tag_68\n      swap2\n      swap1\n      tag_46\n      jump\t// in\n    tag_68:\n      mload(0x40)\n      dup1\n      swap2\n      sub\n      swap1\n      return\n        /* \"Bid.sol\":1987:2571  function end() external {\r... */\n    tag_14:\n      callvalue\n      dup1\n      iszero\n      tag_69\n      jumpi\n      0x00\n      dup1\n      revert\n    tag_69:\n      pop\n      tag_70\n      tag_71\n      jump\t// in\n    tag_70:\n      stop\n        /* \"Bid.sol\":453:482  address payable public seller */\n    tag_19:\n      0x00\n      dup1\n      sload\n      swap1\n      0x0100\n      exp\n      swap1\n      div\n      0xffffffffffffffffffffffffffffffffffffffff\n      and\n      dup2\n      jump\t// out\n        /* \"Bid.sol\":517:534  bool public ended */\n    tag_24:\n      0x00\n      0x15\n      swap1\n      sload\n      swap1\n      0x0100\n      exp\n      swap1\n      div\n      0xff\n      and\n      dup2\n      jump\t// out\n        /* \"Bid.sol\":1281:1684  function bid() external payable {\r... */\n    tag_28:\n        /* \"Bid.sol\":1332:1339  started */\n      0x00\n      0x14\n      swap1\n      sload\n      swap1\n      0x0100\n      exp\n      swap1\n      div\n      0xff\n      and\n        /* \"Bid.sol\":1324:1356  require(started, \"Not started.\") */\n      tag_73\n      jumpi\n      mload(0x40)\n      0x08c379a000000000000000000000000000000000000000000000000000000000\n      dup2\n      mstore\n      0x04\n      add\n      tag_74\n      swap1\n      tag_75\n      jump\t// in\n    tag_74:\n      mload(0x40)\n      dup1\n      swap2\n      sub\n      swap1\n      revert\n    tag_73:\n        /* \"Bid.sol\":1393:1398  endAt */\n      sload(0x01)\n        /* \"Bid.sol\":1375:1390  block.timestamp */\n      timestamp\n        /* \"Bid.sol\":1375:1398  block.timestamp < endAt */\n      lt\n        /* \"Bid.sol\":1367:1409  require(block.timestamp < endAt, \"Ended!\") */\n      tag_76\n      jumpi\n      mload(0x40)\n      0x08c379a000000000000000000000000000000000000000000000000000000000\n      dup2\n      mstore\n      0x04\n      add\n      tag_77\n      swap1\n      tag_78\n      jump\t// in\n    tag_77:\n      mload(0x40)\n      dup1\n      swap2\n      sub\n      swap1\n      revert\n    tag_76:\n        /* \"Bid.sol\":1440:1450  highestBid */\n      sload(0x04)\n        /* \"Bid.sol\":1428:1437  msg.value */\n      callvalue\n        /* \"Bid.sol\":1428:1450  msg.value > highestBid */\n      gt\n        /* \"Bid.sol\":1420:1451  require(msg.value > highestBid) */\n      tag_79\n      jumpi\n      0x00\n      dup1\n      revert\n    tag_79:\n        /* \"Bid.sol\":1493:1494  0 */\n      0x00\n        /* \"Bid.sol\":1468:1495  highestBidder != address(0) */\n      0xffffffffffffffffffffffffffffffffffffffff\n      and\n        /* \"Bid.sol\":1468:1481  highestBidder */\n      0x05\n      0x00\n      swap1\n      sload\n      swap1\n      0x0100\n      exp\n      swap1\n      div\n      0xffffffffffffffffffffffffffffffffffffffff\n      and\n        /* \"Bid.sol\":1468:1495  highestBidder != address(0) */\n      0xffffffffffffffffffffffffffffffffffffffff\n      and\n      eq\n        /* \"Bid.sol\":1464:1557  if (highestBidder != address(0)) {\r... */\n      tag_80\n      jumpi\n        /* \"Bid.sol\":1535:1545  highestBid */\n      sload(0x04)\n        /* \"Bid.sol\":1512:1516  bids */\n      0x06\n        /* \"Bid.sol\":1512:1531  bids[highestBidder] */\n      0x00\n        /* \"Bid.sol\":1517:1530  highestBidder */\n      0x05\n      0x00\n      swap1\n      sload\n      swap1\n      0x0100\n      exp\n      swap1\n      div\n      0xffffffffffffffffffffffffffffffffffffffff\n      and\n        /* \"Bid.sol\":1512:1531  bids[highestBidder] */\n      0xffffffffffffffffffffffffffffffffffffffff\n      and\n      0xffffffffffffffffffffffffffffffffffffffff\n      and\n      dup2\n      mstore\n      0x20\n      add\n      swap1\n      dup2\n      mstore\n      0x20\n      add\n      0x00\n      keccak256\n      0x00\n        /* \"Bid.sol\":1512:1545  bids[highestBidder] += highestBid */\n      dup3\n      dup3\n      sload\n      tag_81\n      swap2\n      swap1\n      tag_82\n      jump\t// in\n    tag_81:\n      swap3\n      pop\n      pop\n      dup2\n      swap1\n      sstore\n      pop\n        /* \"Bid.sol\":1464:1557  if (highestBidder != address(0)) {\r... */\n    tag_80:\n        /* \"Bid.sol\":1582:1591  msg.value */\n      callvalue\n        /* \"Bid.sol\":1569:1579  highestBid */\n      0x04\n        /* \"Bid.sol\":1569:1591  highestBid = msg.value */\n      dup2\n      swap1\n      sstore\n      pop\n        /* \"Bid.sol\":1618:1628  msg.sender */\n      caller\n        /* \"Bid.sol\":1602:1615  highestBidder */\n      0x05\n      0x00\n        /* \"Bid.sol\":1602:1628  highestBidder = msg.sender */\n      0x0100\n      exp\n      dup2\n      sload\n      dup2\n      0xffffffffffffffffffffffffffffffffffffffff\n      mul\n      not\n      and\n      swap1\n      dup4\n      0xffffffffffffffffffffffffffffffffffffffff\n      and\n      mul\n      or\n      swap1\n      sstore\n      pop\n        /* \"Bid.sol\":1650:1663  highestBidder */\n      0x05\n      0x00\n      swap1\n      sload\n      swap1\n      0x0100\n      exp\n      swap1\n      div\n      0xffffffffffffffffffffffffffffffffffffffff\n      and\n        /* \"Bid.sol\":1646:1676  Bid(highestBidder, highestBid) */\n      0xffffffffffffffffffffffffffffffffffffffff\n      and\n      0xe684a55f31b79eca403df938249029212a5925ec6be8012e099b45bc1019e5d2\n        /* \"Bid.sol\":1665:1675  highestBid */\n      sload(0x04)\n        /* \"Bid.sol\":1646:1676  Bid(highestBidder, highestBid) */\n      mload(0x40)\n      tag_83\n      swap2\n      swap1\n      tag_46\n      jump\t// in\n    tag_83:\n      mload(0x40)\n      dup1\n      swap2\n      sub\n      swap1\n      log2\n        /* \"Bid.sol\":1281:1684  function bid() external payable {\r... */\n      jump\t// out\n        /* \"Bid.sol\":491:510  bool public started */\n    tag_31:\n      0x00\n      0x14\n      swap1\n      sload\n      swap1\n      0x0100\n      exp\n      swap1\n      div\n      0xff\n      and\n      dup2\n      jump\t// out\n        /* \"Bid.sol\":1692:1979  function withdraw() external payable {\r... */\n    tag_34:\n        /* \"Bid.sol\":1740:1748  uint bal */\n      0x00\n        /* \"Bid.sol\":1751:1755  bids */\n      0x06\n        /* \"Bid.sol\":1751:1767  bids[msg.sender] */\n      0x00\n        /* \"Bid.sol\":1756:1766  msg.sender */\n      caller\n        /* \"Bid.sol\":1751:1767  bids[msg.sender] */\n      0xffffffffffffffffffffffffffffffffffffffff\n      and\n      0xffffffffffffffffffffffffffffffffffffffff\n      and\n      dup2\n      mstore\n      0x20\n      add\n      swap1\n      dup2\n      mstore\n      0x20\n      add\n      0x00\n      keccak256\n      sload\n        /* \"Bid.sol\":1740:1767  uint bal = bids[msg.sender] */\n      swap1\n      pop\n        /* \"Bid.sol\":1797:1798  0 */\n      0x00\n        /* \"Bid.sol\":1778:1782  bids */\n      0x06\n        /* \"Bid.sol\":1778:1794  bids[msg.sender] */\n      0x00\n        /* \"Bid.sol\":1783:1793  msg.sender */\n      caller\n        /* \"Bid.sol\":1778:1794  bids[msg.sender] */\n      0xffffffffffffffffffffffffffffffffffffffff\n      and\n      0xffffffffffffffffffffffffffffffffffffffff\n      and\n      dup2\n      mstore\n      0x20\n      add\n      swap1\n      dup2\n      mstore\n      0x20\n      add\n      0x00\n      keccak256\n        /* \"Bid.sol\":1778:1798  bids[msg.sender] = 0 */\n      dup2\n      swap1\n      sstore\n      pop\n        /* \"Bid.sol\":1810:1819  bool sent */\n      0x00\n        /* \"Bid.sol\":1821:1838  bytes memory data */\n      dup1\n        /* \"Bid.sol\":1850:1860  msg.sender */\n      caller\n        /* \"Bid.sol\":1842:1866  payable(msg.sender).call */\n      0xffffffffffffffffffffffffffffffffffffffff\n      and\n        /* \"Bid.sol\":1874:1877  bal */\n      dup4\n        /* \"Bid.sol\":1842:1882  payable(msg.sender).call{value: bal}(\"\") */\n      mload(0x40)\n      tag_85\n      swap1\n      tag_86\n      jump\t// in\n    tag_85:\n      0x00\n      mload(0x40)\n      dup1\n      dup4\n      sub\n      dup2\n      dup6\n      dup8\n      gas\n      call\n      swap3\n      pop\n      pop\n      pop\n      returndatasize\n      dup1\n      0x00\n      dup2\n      eq\n      tag_89\n      jumpi\n      mload(0x40)\n      swap2\n      pop\n      and(add(returndatasize, 0x3f), not(0x1f))\n      dup3\n      add\n      0x40\n      mstore\n      returndatasize\n      dup3\n      mstore\n      returndatasize\n      0x00\n      0x20\n      dup5\n      add\n      returndatacopy\n      jump(tag_88)\n    tag_89:\n      0x60\n      swap2\n      pop\n    tag_88:\n      pop\n        /* \"Bid.sol\":1809:1882  (bool sent, bytes memory data) = payable(msg.sender).call{value: bal}(\"\") */\n      swap2\n      pop\n      swap2\n      pop\n        /* \"Bid.sol\":1901:1905  sent */\n      dup2\n        /* \"Bid.sol\":1893:1928  require(sent, \"Could not withdraw\") */\n      tag_90\n      jumpi\n      mload(0x40)\n      0x08c379a000000000000000000000000000000000000000000000000000000000\n      dup2\n      mstore\n      0x04\n      add\n      tag_91\n      swap1\n      tag_92\n      jump\t// in\n    tag_91:\n      mload(0x40)\n      dup1\n      swap2\n      sub\n      swap1\n      revert\n    tag_90:\n        /* \"Bid.sol\":1955:1965  msg.sender */\n      caller\n        /* \"Bid.sol\":1946:1971  Withdraw(msg.sender, bal) */\n      0xffffffffffffffffffffffffffffffffffffffff\n      and\n      0x884edad9ce6fa2440d8a54cc123490eb96d2768479d49ff9c7366125a9424364\n        /* \"Bid.sol\":1967:1970  bal */\n      dup5\n        /* \"Bid.sol\":1946:1971  Withdraw(msg.sender, bal) */\n      mload(0x40)\n      tag_93\n      swap2\n      swap1\n      tag_46\n      jump\t// in\n    tag_93:\n      mload(0x40)\n      dup1\n      swap2\n      sub\n      swap1\n      log2\n        /* \"Bid.sol\":1729:1979  {\r... */\n      pop\n      pop\n      pop\n        /* \"Bid.sol\":1692:1979  function withdraw() external payable {\r... */\n      jump\t// out\n        /* \"Bid.sol\":567:585  IERC721 public nft */\n    tag_37:\n      0x02\n      0x00\n      swap1\n      sload\n      swap1\n      0x0100\n      exp\n      swap1\n      div\n      0xffffffffffffffffffffffffffffffffffffffff\n      and\n      dup2\n      jump\t// out\n        /* \"Bid.sol\":682:718  mapping(address => uint) public bids */\n    tag_44:\n      mstore(0x20, 0x06)\n      dup1\n      0x00\n      mstore\n      keccak256(0x00, 0x40)\n      0x00\n      swap2\n      pop\n      swap1\n      pop\n      sload\n      dup2\n      jump\t// out\n        /* \"Bid.sol\":541:558  uint public endAt */\n    tag_49:\n      sload(0x01)\n      dup2\n      jump\t// out\n        /* \"Bid.sol\":647:675  address public highestBidder */\n    tag_53:\n      0x05\n      0x00\n      swap1\n      sload\n      swap1\n      0x0100\n      exp\n      swap1\n      div\n      0xffffffffffffffffffffffffffffffffffffffff\n      and\n      dup2\n      jump\t// out\n        /* \"Bid.sol\":797:1273  function start(IERC721 _nft, uint _nftId, uint startingBid, uint256 dayAmount) external {\r... */\n    tag_60:\n        /* \"Bid.sol\":905:912  started */\n      0x00\n      0x14\n      swap1\n      sload\n      swap1\n      0x0100\n      exp\n      swap1\n      div\n      0xff\n      and\n        /* \"Bid.sol\":904:912  !started */\n      iszero\n        /* \"Bid.sol\":896:933  require(!started, \"Already started!\") */\n      tag_95\n      jumpi\n      mload(0x40)\n      0x08c379a000000000000000000000000000000000000000000000000000000000\n      dup2\n      mstore\n      0x04\n      add\n      tag_96\n      swap1\n      tag_97\n      jump\t// in\n    tag_96:\n      mload(0x40)\n      dup1\n      swap2\n      sub\n      swap1\n      revert\n    tag_95:\n        /* \"Bid.sol\":966:972  seller */\n      0x00\n      dup1\n      sload\n      swap1\n      0x0100\n      exp\n      swap1\n      div\n      0xffffffffffffffffffffffffffffffffffffffff\n      and\n        /* \"Bid.sol\":952:972  msg.sender == seller */\n      0xffffffffffffffffffffffffffffffffffffffff\n      and\n        /* \"Bid.sol\":952:962  msg.sender */\n      caller\n        /* \"Bid.sol\":952:972  msg.sender == seller */\n      0xffffffffffffffffffffffffffffffffffffffff\n      and\n      eq\n        /* \"Bid.sol\":944:1007  require(msg.sender == seller, \"You did not start the auction!\") */\n      tag_98\n      jumpi\n      mload(0x40)\n      0x08c379a000000000000000000000000000000000000000000000000000000000\n      dup2\n      mstore\n      0x04\n      add\n      tag_99\n      swap1\n      tag_100\n      jump\t// in\n    tag_99:\n      mload(0x40)\n      dup1\n      swap2\n      sub\n      swap1\n      revert\n    tag_98:\n        /* \"Bid.sol\":1031:1042  startingBid */\n      dup2\n        /* \"Bid.sol\":1018:1028  highestBid */\n      0x04\n        /* \"Bid.sol\":1018:1042  highestBid = startingBid */\n      dup2\n      swap1\n      sstore\n      pop\n        /* \"Bid.sol\":1061:1065  _nft */\n      dup4\n        /* \"Bid.sol\":1055:1058  nft */\n      0x02\n      0x00\n        /* \"Bid.sol\":1055:1065  nft = _nft */\n      0x0100\n      exp\n      dup2\n      sload\n      dup2\n      0xffffffffffffffffffffffffffffffffffffffff\n      mul\n      not\n      and\n      swap1\n      dup4\n      0xffffffffffffffffffffffffffffffffffffffff\n      and\n      mul\n      or\n      swap1\n      sstore\n      pop\n        /* \"Bid.sol\":1084:1090  _nftId */\n      dup3\n        /* \"Bid.sol\":1076:1081  nftId */\n      0x03\n        /* \"Bid.sol\":1076:1090  nftId = _nftId */\n      dup2\n      swap1\n      sstore\n      pop\n        /* \"Bid.sol\":1101:1104  nft */\n      0x02\n      0x00\n      swap1\n      sload\n      swap1\n      0x0100\n      exp\n      swap1\n      div\n      0xffffffffffffffffffffffffffffffffffffffff\n      and\n        /* \"Bid.sol\":1101:1117  nft.transferFrom */\n      0xffffffffffffffffffffffffffffffffffffffff\n      and\n      0x23b872dd\n        /* \"Bid.sol\":1118:1128  msg.sender */\n      caller\n        /* \"Bid.sol\":1138:1142  this */\n      address\n        /* \"Bid.sol\":1145:1150  nftId */\n      sload(0x03)\n        /* \"Bid.sol\":1101:1151  nft.transferFrom(msg.sender, address(this), nftId) */\n      mload(0x40)\n      dup5\n      0xffffffff\n      and\n      0xe0\n      shl\n      dup2\n      mstore\n      0x04\n      add\n      tag_101\n      swap4\n      swap3\n      swap2\n      swap1\n      tag_102\n      jump\t// in\n    tag_101:\n      0x00\n      mload(0x40)\n      dup1\n      dup4\n      sub\n      dup2\n      0x00\n      dup8\n      dup1\n      extcodesize\n      iszero\n      dup1\n      iszero\n      tag_103\n      jumpi\n      0x00\n      dup1\n      revert\n    tag_103:\n      pop\n      gas\n      call\n      iszero\n      dup1\n      iszero\n      tag_105\n      jumpi\n      returndatasize\n      0x00\n      dup1\n      returndatacopy\n      revert(0x00, returndatasize)\n    tag_105:\n      pop\n      pop\n      pop\n      pop\n        /* \"Bid.sol\":1174:1178  true */\n      0x01\n        /* \"Bid.sol\":1164:1171  started */\n      0x00\n      0x14\n        /* \"Bid.sol\":1164:1178  started = true */\n      0x0100\n      exp\n      dup2\n      sload\n      dup2\n      0xff\n      mul\n      not\n      and\n      swap1\n      dup4\n      iszero\n      iszero\n      mul\n      or\n      swap1\n      sstore\n      pop\n        /* \"Bid.sol\":1228:1234  1 days */\n      0x015180\n        /* \"Bid.sol\":1216:1225  dayAmount */\n      dup2\n        /* \"Bid.sol\":1216:1234  dayAmount * 1 days */\n      tag_106\n      swap2\n      swap1\n      tag_107\n      jump\t// in\n    tag_106:\n        /* \"Bid.sol\":1197:1212  block.timestamp */\n      timestamp\n        /* \"Bid.sol\":1197:1235  block.timestamp + (dayAmount * 1 days) */\n      tag_108\n      swap2\n      swap1\n      tag_82\n      jump\t// in\n    tag_108:\n        /* \"Bid.sol\":1189:1194  endAt */\n      0x01\n        /* \"Bid.sol\":1189:1235  endAt = block.timestamp + (dayAmount * 1 days) */\n      dup2\n      swap1\n      sstore\n      pop\n        /* \"Bid.sol\":1253:1265  Start(endAt) */\n      0xf06a29c94c6f4edc1085072972d9441f7603e81c8535a308f214285d0653c850\n        /* \"Bid.sol\":1259:1264  endAt */\n      sload(0x01)\n        /* \"Bid.sol\":1253:1265  Start(endAt) */\n      mload(0x40)\n      tag_109\n      swap2\n      swap1\n      tag_46\n      jump\t// in\n    tag_109:\n      mload(0x40)\n      dup1\n      swap2\n      sub\n      swap1\n      log1\n        /* \"Bid.sol\":797:1273  function start(IERC721 _nft, uint _nftId, uint startingBid, uint256 dayAmount) external {\r... */\n      pop\n      pop\n      pop\n      pop\n      jump\t// out\n        /* \"Bid.sol\":592:609  uint public nftId */\n    tag_63:\n      sload(0x03)\n      dup2\n      jump\t// out\n        /* \"Bid.sol\":618:640  uint public highestBid */\n    tag_67:\n      sload(0x04)\n      dup2\n      jump\t// out\n        /* \"Bid.sol\":1987:2571  function end() external {\r... */\n    tag_71:\n        /* \"Bid.sol\":2030:2037  started */\n      0x00\n      0x14\n      swap1\n      sload\n      swap1\n      0x0100\n      exp\n      swap1\n      div\n      0xff\n      and\n        /* \"Bid.sol\":2022:2066  require(started, \"You need to start first!\") */\n      tag_111\n      jumpi\n      mload(0x40)\n      0x08c379a000000000000000000000000000000000000000000000000000000000\n      dup2\n      mstore\n      0x04\n      add\n      tag_112\n      swap1\n      tag_113\n      jump\t// in\n    tag_112:\n      mload(0x40)\n      dup1\n      swap2\n      sub\n      swap1\n      revert\n    tag_111:\n        /* \"Bid.sol\":2104:2109  endAt */\n      sload(0x01)\n        /* \"Bid.sol\":2085:2100  block.timestamp */\n      timestamp\n        /* \"Bid.sol\":2085:2109  block.timestamp >= endAt */\n      lt\n      iszero\n        /* \"Bid.sol\":2077:2139  require(block.timestamp >= endAt, \"Auction is still ongoing!\") */\n      tag_114\n      jumpi\n      mload(0x40)\n      0x08c379a000000000000000000000000000000000000000000000000000000000\n      dup2\n      mstore\n      0x04\n      add\n      tag_115\n      swap1\n      tag_116\n      jump\t// in\n    tag_115:\n      mload(0x40)\n      dup1\n      swap2\n      sub\n      swap1\n      revert\n    tag_114:\n        /* \"Bid.sol\":2159:2164  ended */\n      0x00\n      0x15\n      swap1\n      sload\n      swap1\n      0x0100\n      exp\n      swap1\n      div\n      0xff\n      and\n        /* \"Bid.sol\":2158:2164  !ended */\n      iszero\n        /* \"Bid.sol\":2150:2191  require(!ended, \"Auction already ended!\") */\n      tag_117\n      jumpi\n      mload(0x40)\n      0x08c379a000000000000000000000000000000000000000000000000000000000\n      dup2\n      mstore\n      0x04\n      add\n      tag_118\n      swap1\n      tag_119\n      jump\t// in\n    tag_118:\n      mload(0x40)\n      dup1\n      swap2\n      sub\n      swap1\n      revert\n    tag_117:\n        /* \"Bid.sol\":2233:2234  0 */\n      0x00\n        /* \"Bid.sol\":2208:2235  highestBidder != address(0) */\n      0xffffffffffffffffffffffffffffffffffffffff\n      and\n        /* \"Bid.sol\":2208:2221  highestBidder */\n      0x05\n      0x00\n      swap1\n      sload\n      swap1\n      0x0100\n      exp\n      swap1\n      div\n      0xffffffffffffffffffffffffffffffffffffffff\n      and\n        /* \"Bid.sol\":2208:2235  highestBidder != address(0) */\n      0xffffffffffffffffffffffffffffffffffffffff\n      and\n      eq\n        /* \"Bid.sol\":2204:2493  if (highestBidder != address(0)) {\r... */\n      tag_120\n      jumpi\n        /* \"Bid.sol\":2252:2255  nft */\n      0x02\n      0x00\n      swap1\n      sload\n      swap1\n      0x0100\n      exp\n      swap1\n      div\n      0xffffffffffffffffffffffffffffffffffffffff\n      and\n        /* \"Bid.sol\":2252:2264  nft.transfer */\n      0xffffffffffffffffffffffffffffffffffffffff\n      and\n      0xa9059cbb\n        /* \"Bid.sol\":2265:2278  highestBidder */\n      0x05\n      0x00\n      swap1\n      sload\n      swap1\n      0x0100\n      exp\n      swap1\n      div\n      0xffffffffffffffffffffffffffffffffffffffff\n      and\n        /* \"Bid.sol\":2280:2285  nftId */\n      sload(0x03)\n        /* \"Bid.sol\":2252:2286  nft.transfer(highestBidder, nftId) */\n      mload(0x40)\n      dup4\n      0xffffffff\n      and\n      0xe0\n      shl\n      dup2\n      mstore\n      0x04\n      add\n      tag_121\n      swap3\n      swap2\n      swap1\n      tag_122\n      jump\t// in\n    tag_121:\n      0x00\n      mload(0x40)\n      dup1\n      dup4\n      sub\n      dup2\n      0x00\n      dup8\n      dup1\n      extcodesize\n      iszero\n      dup1\n      iszero\n      tag_123\n      jumpi\n      0x00\n      dup1\n      revert\n    tag_123:\n      pop\n      gas\n      call\n      iszero\n      dup1\n      iszero\n      tag_125\n      jumpi\n      returndatasize\n      0x00\n      dup1\n      returndatacopy\n      revert(0x00, returndatasize)\n    tag_125:\n      pop\n      pop\n      pop\n      pop\n        /* \"Bid.sol\":2302:2311  bool sent */\n      0x00\n        /* \"Bid.sol\":2313:2330  bytes memory data */\n      dup1\n        /* \"Bid.sol\":2334:2340  seller */\n      0x00\n      dup1\n      sload\n      swap1\n      0x0100\n      exp\n      swap1\n      div\n      0xffffffffffffffffffffffffffffffffffffffff\n      and\n        /* \"Bid.sol\":2334:2345  seller.call */\n      0xffffffffffffffffffffffffffffffffffffffff\n      and\n        /* \"Bid.sol\":2353:2363  highestBid */\n      sload(0x04)\n        /* \"Bid.sol\":2334:2368  seller.call{value: highestBid}(\"\") */\n      mload(0x40)\n      tag_126\n      swap1\n      tag_86\n      jump\t// in\n    tag_126:\n      0x00\n      mload(0x40)\n      dup1\n      dup4\n      sub\n      dup2\n      dup6\n      dup8\n      gas\n      call\n      swap3\n      pop\n      pop\n      pop\n      returndatasize\n      dup1\n      0x00\n      dup2\n      eq\n      tag_129\n      jumpi\n      mload(0x40)\n      swap2\n      pop\n      and(add(returndatasize, 0x3f), not(0x1f))\n      dup3\n      add\n      0x40\n      mstore\n      returndatasize\n      dup3\n      mstore\n      returndatasize\n      0x00\n      0x20\n      dup5\n      add\n      returndatacopy\n      jump(tag_128)\n    tag_129:\n      0x60\n      swap2\n      pop\n    tag_128:\n      pop\n        /* \"Bid.sol\":2301:2368  (bool sent, bytes memory data) = seller.call{value: highestBid}(\"\") */\n      swap2\n      pop\n      swap2\n      pop\n        /* \"Bid.sol\":2391:2395  sent */\n      dup2\n        /* \"Bid.sol\":2383:2421  require(sent, \"Could not pay seller!\") */\n      tag_130\n      jumpi\n      mload(0x40)\n      0x08c379a000000000000000000000000000000000000000000000000000000000\n      dup2\n      mstore\n      0x04\n      add\n      tag_131\n      swap1\n      tag_132\n      jump\t// in\n    tag_131:\n      mload(0x40)\n      dup1\n      swap2\n      sub\n      swap1\n      revert\n    tag_130:\n        /* \"Bid.sol\":2237:2433  {\r... */\n      pop\n      pop\n        /* \"Bid.sol\":2204:2493  if (highestBidder != address(0)) {\r... */\n      jump(tag_133)\n    tag_120:\n        /* \"Bid.sol\":2454:2457  nft */\n      0x02\n      0x00\n      swap1\n      sload\n      swap1\n      0x0100\n      exp\n      swap1\n      div\n      0xffffffffffffffffffffffffffffffffffffffff\n      and\n        /* \"Bid.sol\":2454:2466  nft.transfer */\n      0xffffffffffffffffffffffffffffffffffffffff\n      and\n      0xa9059cbb\n        /* \"Bid.sol\":2467:2473  seller */\n      0x00\n      dup1\n      sload\n      swap1\n      0x0100\n      exp\n      swap1\n      div\n      0xffffffffffffffffffffffffffffffffffffffff\n      and\n        /* \"Bid.sol\":2475:2480  nftId */\n      sload(0x03)\n        /* \"Bid.sol\":2454:2481  nft.transfer(seller, nftId) */\n      mload(0x40)\n      dup4\n      0xffffffff\n      and\n      0xe0\n      shl\n      dup2\n      mstore\n      0x04\n      add\n      tag_134\n      swap3\n      swap2\n      swap1\n      tag_135\n      jump\t// in\n    tag_134:\n      0x00\n      mload(0x40)\n      dup1\n      dup4\n      sub\n      dup2\n      0x00\n      dup8\n      dup1\n      extcodesize\n      iszero\n      dup1\n      iszero\n      tag_136\n      jumpi\n      0x00\n      dup1\n      revert\n    tag_136:\n      pop\n      gas\n      call\n      iszero\n      dup1\n      iszero\n      tag_138\n      jumpi\n      returndatasize\n      0x00\n      dup1\n      returndatacopy\n      revert(0x00, returndatasize)\n    tag_138:\n      pop\n      pop\n      pop\n      pop\n        /* \"Bid.sol\":2204:2493  if (highestBidder != address(0)) {\r... */\n    tag_133:\n        /* \"Bid.sol\":2513:2517  true */\n      0x01\n        /* \"Bid.sol\":2505:2510  ended */\n      0x00\n      0x15\n        /* \"Bid.sol\":2505:2517  ended = true */\n      0x0100\n      exp\n      dup2\n      sload\n      dup2\n      0xff\n      mul\n      not\n      and\n      swap1\n      dup4\n      iszero\n      iszero\n      mul\n      or\n      swap1\n      sstore\n      pop\n        /* \"Bid.sol\":2533:2563  End(highestBidder, highestBid) */\n      0x7d7570b046e5ead3a4f3fbc9fa2445113625a1e79823776146316bafed6b8cc5\n        /* \"Bid.sol\":2537:2550  highestBidder */\n      0x05\n      0x00\n      swap1\n      sload\n      swap1\n      0x0100\n      exp\n      swap1\n      div\n      0xffffffffffffffffffffffffffffffffffffffff\n      and\n        /* \"Bid.sol\":2552:2562  highestBid */\n      sload(0x04)\n        /* \"Bid.sol\":2533:2563  End(highestBidder, highestBid) */\n      mload(0x40)\n      tag_139\n      swap3\n      swap2\n      swap1\n      tag_122\n      jump\t// in\n    tag_139:\n      mload(0x40)\n      dup1\n      swap2\n      sub\n      swap1\n      log1\n        /* \"Bid.sol\":1987:2571  function end() external {\r... */\n      jump\t// out\n        /* \"#utility.yul\":7:146   */\n    tag_141:\n        /* \"#utility.yul\":53:58   */\n      0x00\n        /* \"#utility.yul\":91:97   */\n      dup2\n        /* \"#utility.yul\":78:98   */\n      calldataload\n        /* \"#utility.yul\":69:98   */\n      swap1\n      pop\n        /* \"#utility.yul\":107:140   */\n      tag_143\n        /* \"#utility.yul\":134:139   */\n      dup2\n        /* \"#utility.yul\":107:140   */\n      tag_144\n      jump\t// in\n    tag_143:\n        /* \"#utility.yul\":7:146   */\n      swap3\n      swap2\n      pop\n      pop\n      jump\t// out\n        /* \"#utility.yul\":152:319   */\n    tag_145:\n        /* \"#utility.yul\":212:217   */\n      0x00\n        /* \"#utility.yul\":250:256   */\n      dup2\n        /* \"#utility.yul\":237:257   */\n      calldataload\n        /* \"#utility.yul\":228:257   */\n      swap1\n      pop\n        /* \"#utility.yul\":266:313   */\n      tag_147\n        /* \"#utility.yul\":307:312   */\n      dup2\n        /* \"#utility.yul\":266:313   */\n      tag_148\n      jump\t// in\n    tag_147:\n        /* \"#utility.yul\":152:319   */\n      swap3\n      swap2\n      pop\n      pop\n      jump\t// out\n        /* \"#utility.yul\":325:464   */\n    tag_149:\n        /* \"#utility.yul\":371:376   */\n      0x00\n        /* \"#utility.yul\":409:415   */\n      dup2\n        /* \"#utility.yul\":396:416   */\n      calldataload\n        /* \"#utility.yul\":387:416   */\n      swap1\n      pop\n        /* \"#utility.yul\":425:458   */\n      tag_151\n        /* \"#utility.yul\":452:457   */\n      dup2\n        /* \"#utility.yul\":425:458   */\n      tag_152\n      jump\t// in\n    tag_151:\n        /* \"#utility.yul\":325:464   */\n      swap3\n      swap2\n      pop\n      pop\n      jump\t// out\n        /* \"#utility.yul\":470:799   */\n    tag_43:\n        /* \"#utility.yul\":529:535   */\n      0x00\n        /* \"#utility.yul\":578:580   */\n      0x20\n        /* \"#utility.yul\":566:575   */\n      dup3\n        /* \"#utility.yul\":557:564   */\n      dup5\n        /* \"#utility.yul\":553:576   */\n      sub\n        /* \"#utility.yul\":549:581   */\n      slt\n        /* \"#utility.yul\":546:665   */\n      iszero\n      tag_154\n      jumpi\n        /* \"#utility.yul\":584:663   */\n      tag_155\n      tag_156\n      jump\t// in\n    tag_155:\n        /* \"#utility.yul\":546:665   */\n    tag_154:\n        /* \"#utility.yul\":704:705   */\n      0x00\n        /* \"#utility.yul\":729:782   */\n      tag_157\n        /* \"#utility.yul\":774:781   */\n      dup5\n        /* \"#utility.yul\":765:771   */\n      dup3\n        /* \"#utility.yul\":754:763   */\n      dup6\n        /* \"#utility.yul\":750:772   */\n      add\n        /* \"#utility.yul\":729:782   */\n      tag_141\n      jump\t// in\n    tag_157:\n        /* \"#utility.yul\":719:782   */\n      swap2\n      pop\n        /* \"#utility.yul\":675:792   */\n      pop\n        /* \"#utility.yul\":470:799   */\n      swap3\n      swap2\n      pop\n      pop\n      jump\t// out\n        /* \"#utility.yul\":805:1598   */\n    tag_59:\n        /* \"#utility.yul\":905:911   */\n      0x00\n        /* \"#utility.yul\":913:919   */\n      dup1\n        /* \"#utility.yul\":921:927   */\n      0x00\n        /* \"#utility.yul\":929:935   */\n      dup1\n        /* \"#utility.yul\":978:981   */\n      0x80\n        /* \"#utility.yul\":966:975   */\n      dup6\n        /* \"#utility.yul\":957:964   */\n      dup8\n        /* \"#utility.yul\":953:976   */\n      sub\n        /* \"#utility.yul\":949:982   */\n      slt\n        /* \"#utility.yul\":946:1066   */\n      iszero\n      tag_159\n      jumpi\n        /* \"#utility.yul\":985:1064   */\n      tag_160\n      tag_156\n      jump\t// in\n    tag_160:\n        /* \"#utility.yul\":946:1066   */\n    tag_159:\n        /* \"#utility.yul\":1105:1106   */\n      0x00\n        /* \"#utility.yul\":1130:1197   */\n      tag_161\n        /* \"#utility.yul\":1189:1196   */\n      dup8\n        /* \"#utility.yul\":1180:1186   */\n      dup3\n        /* \"#utility.yul\":1169:1178   */\n      dup9\n        /* \"#utility.yul\":1165:1187   */\n      add\n        /* \"#utility.yul\":1130:1197   */\n      tag_145\n      jump\t// in\n    tag_161:\n        /* \"#utility.yul\":1120:1197   */\n      swap5\n      pop\n        /* \"#utility.yul\":1076:1207   */\n      pop\n        /* \"#utility.yul\":1246:1248   */\n      0x20\n        /* \"#utility.yul\":1272:1325   */\n      tag_162\n        /* \"#utility.yul\":1317:1324   */\n      dup8\n        /* \"#utility.yul\":1308:1314   */\n      dup3\n        /* \"#utility.yul\":1297:1306   */\n      dup9\n        /* \"#utility.yul\":1293:1315   */\n      add\n        /* \"#utility.yul\":1272:1325   */\n      tag_149\n      jump\t// in\n    tag_162:\n        /* \"#utility.yul\":1262:1325   */\n      swap4\n      pop\n        /* \"#utility.yul\":1217:1335   */\n      pop\n        /* \"#utility.yul\":1374:1376   */\n      0x40\n        /* \"#utility.yul\":1400:1453   */\n      tag_163\n        /* \"#utility.yul\":1445:1452   */\n      dup8\n        /* \"#utility.yul\":1436:1442   */\n      dup3\n        /* \"#utility.yul\":1425:1434   */\n      dup9\n        /* \"#utility.yul\":1421:1443   */\n      add\n        /* \"#utility.yul\":1400:1453   */\n      tag_149\n      jump\t// in\n    tag_163:\n        /* \"#utility.yul\":1390:1453   */\n      swap3\n      pop\n        /* \"#utility.yul\":1345:1463   */\n      pop\n        /* \"#utility.yul\":1502:1504   */\n      0x60\n        /* \"#utility.yul\":1528:1581   */\n      tag_164\n        /* \"#utility.yul\":1573:1580   */\n      dup8\n        /* \"#utility.yul\":1564:1570   */\n      dup3\n        /* \"#utility.yul\":1553:1562   */\n      dup9\n        /* \"#utility.yul\":1549:1571   */\n      add\n        /* \"#utility.yul\":1528:1581   */\n      tag_149\n      jump\t// in\n    tag_164:\n        /* \"#utility.yul\":1518:1581   */\n      swap2\n      pop\n        /* \"#utility.yul\":1473:1591   */\n      pop\n        /* \"#utility.yul\":805:1598   */\n      swap3\n      swap6\n      swap2\n      swap5\n      pop\n      swap3\n      pop\n      jump\t// out\n        /* \"#utility.yul\":1604:1751   */\n    tag_165:\n        /* \"#utility.yul\":1699:1744   */\n      tag_167\n        /* \"#utility.yul\":1738:1743   */\n      dup2\n        /* \"#utility.yul\":1699:1744   */\n      tag_168\n      jump\t// in\n    tag_167:\n        /* \"#utility.yul\":1694:1697   */\n      dup3\n        /* \"#utility.yul\":1687:1745   */\n      mstore\n        /* \"#utility.yul\":1604:1751   */\n      pop\n      pop\n      jump\t// out\n        /* \"#utility.yul\":1757:1899   */\n    tag_169:\n        /* \"#utility.yul\":1860:1892   */\n      tag_171\n        /* \"#utility.yul\":1886:1891   */\n      dup2\n        /* \"#utility.yul\":1860:1892   */\n      tag_172\n      jump\t// in\n    tag_171:\n        /* \"#utility.yul\":1855:1858   */\n      dup3\n        /* \"#utility.yul\":1848:1893   */\n      mstore\n        /* \"#utility.yul\":1757:1899   */\n      pop\n      pop\n      jump\t// out\n        /* \"#utility.yul\":1905:2023   */\n    tag_173:\n        /* \"#utility.yul\":1992:2016   */\n      tag_175\n        /* \"#utility.yul\":2010:2015   */\n      dup2\n        /* \"#utility.yul\":1992:2016   */\n      tag_176\n      jump\t// in\n    tag_175:\n        /* \"#utility.yul\":1987:1990   */\n      dup3\n        /* \"#utility.yul\":1980:2017   */\n      mstore\n        /* \"#utility.yul\":1905:2023   */\n      pop\n      pop\n      jump\t// out\n        /* \"#utility.yul\":2029:2138   */\n    tag_177:\n        /* \"#utility.yul\":2110:2131   */\n      tag_179\n        /* \"#utility.yul\":2125:2130   */\n      dup2\n        /* \"#utility.yul\":2110:2131   */\n      tag_180\n      jump\t// in\n    tag_179:\n        /* \"#utility.yul\":2105:2108   */\n      dup3\n        /* \"#utility.yul\":2098:2132   */\n      mstore\n        /* \"#utility.yul\":2029:2138   */\n      pop\n      pop\n      jump\t// out\n        /* \"#utility.yul\":2144:2303   */\n    tag_181:\n        /* \"#utility.yul\":2245:2296   */\n      tag_183\n        /* \"#utility.yul\":2290:2295   */\n      dup2\n        /* \"#utility.yul\":2245:2296   */\n      tag_184\n      jump\t// in\n    tag_183:\n        /* \"#utility.yul\":2240:2243   */\n      dup3\n        /* \"#utility.yul\":2233:2297   */\n      mstore\n        /* \"#utility.yul\":2144:2303   */\n      pop\n      pop\n      jump\t// out\n        /* \"#utility.yul\":2309:2675   */\n    tag_185:\n        /* \"#utility.yul\":2451:2454   */\n      0x00\n        /* \"#utility.yul\":2472:2539   */\n      tag_187\n        /* \"#utility.yul\":2536:2538   */\n      0x19\n        /* \"#utility.yul\":2531:2534   */\n      dup4\n        /* \"#utility.yul\":2472:2539   */\n      tag_188\n      jump\t// in\n    tag_187:\n        /* \"#utility.yul\":2465:2539   */\n      swap2\n      pop\n        /* \"#utility.yul\":2548:2641   */\n      tag_189\n        /* \"#utility.yul\":2637:2640   */\n      dup3\n        /* \"#utility.yul\":2548:2641   */\n      tag_190\n      jump\t// in\n    tag_189:\n        /* \"#utility.yul\":2666:2668   */\n      0x20\n        /* \"#utility.yul\":2661:2664   */\n      dup3\n        /* \"#utility.yul\":2657:2669   */\n      add\n        /* \"#utility.yul\":2650:2669   */\n      swap1\n      pop\n        /* \"#utility.yul\":2309:2675   */\n      swap2\n      swap1\n      pop\n      jump\t// out\n        /* \"#utility.yul\":2681:3047   */\n    tag_191:\n        /* \"#utility.yul\":2823:2826   */\n      0x00\n        /* \"#utility.yul\":2844:2911   */\n      tag_193\n        /* \"#utility.yul\":2908:2910   */\n      0x10\n        /* \"#utility.yul\":2903:2906   */\n      dup4\n        /* \"#utility.yul\":2844:2911   */\n      tag_188\n      jump\t// in\n    tag_193:\n        /* \"#utility.yul\":2837:2911   */\n      swap2\n      pop\n        /* \"#utility.yul\":2920:3013   */\n      tag_194\n        /* \"#utility.yul\":3009:3012   */\n      dup3\n        /* \"#utility.yul\":2920:3013   */\n      tag_195\n      jump\t// in\n    tag_194:\n        /* \"#utility.yul\":3038:3040   */\n      0x20\n        /* \"#utility.yul\":3033:3036   */\n      dup3\n        /* \"#utility.yul\":3029:3041   */\n      add\n        /* \"#utility.yul\":3022:3041   */\n      swap1\n      pop\n        /* \"#utility.yul\":2681:3047   */\n      swap2\n      swap1\n      pop\n      jump\t// out\n        /* \"#utility.yul\":3053:3418   */\n    tag_196:\n        /* \"#utility.yul\":3195:3198   */\n      0x00\n        /* \"#utility.yul\":3216:3282   */\n      tag_198\n        /* \"#utility.yul\":3280:3281   */\n      0x06\n        /* \"#utility.yul\":3275:3278   */\n      dup4\n        /* \"#utility.yul\":3216:3282   */\n      tag_188\n      jump\t// in\n    tag_198:\n        /* \"#utility.yul\":3209:3282   */\n      swap2\n      pop\n        /* \"#utility.yul\":3291:3384   */\n      tag_199\n        /* \"#utility.yul\":3380:3383   */\n      dup3\n        /* \"#utility.yul\":3291:3384   */\n      tag_200\n      jump\t// in\n    tag_199:\n        /* \"#utility.yul\":3409:3411   */\n      0x20\n        /* \"#utility.yul\":3404:3407   */\n      dup3\n        /* \"#utility.yul\":3400:3412   */\n      add\n        /* \"#utility.yul\":3393:3412   */\n      swap1\n      pop\n        /* \"#utility.yul\":3053:3418   */\n      swap2\n      swap1\n      pop\n      jump\t// out\n        /* \"#utility.yul\":3424:3790   */\n    tag_201:\n        /* \"#utility.yul\":3566:3569   */\n      0x00\n        /* \"#utility.yul\":3587:3654   */\n      tag_203\n        /* \"#utility.yul\":3651:3653   */\n      0x1e\n        /* \"#utility.yul\":3646:3649   */\n      dup4\n        /* \"#utility.yul\":3587:3654   */\n      tag_188\n      jump\t// in\n    tag_203:\n        /* \"#utility.yul\":3580:3654   */\n      swap2\n      pop\n        /* \"#utility.yul\":3663:3756   */\n      tag_204\n        /* \"#utility.yul\":3752:3755   */\n      dup3\n        /* \"#utility.yul\":3663:3756   */\n      tag_205\n      jump\t// in\n    tag_204:\n        /* \"#utility.yul\":3781:3783   */\n      0x20\n        /* \"#utility.yul\":3776:3779   */\n      dup3\n        /* \"#utility.yul\":3772:3784   */\n      add\n        /* \"#utility.yul\":3765:3784   */\n      swap1\n      pop\n        /* \"#utility.yul\":3424:3790   */\n      swap2\n      swap1\n      pop\n      jump\t// out\n        /* \"#utility.yul\":3796:4162   */\n    tag_206:\n        /* \"#utility.yul\":3938:3941   */\n      0x00\n        /* \"#utility.yul\":3959:4026   */\n      tag_208\n        /* \"#utility.yul\":4023:4025   */\n      0x15\n        /* \"#utility.yul\":4018:4021   */\n      dup4\n        /* \"#utility.yul\":3959:4026   */\n      tag_188\n      jump\t// in\n    tag_208:\n        /* \"#utility.yul\":3952:4026   */\n      swap2\n      pop\n        /* \"#utility.yul\":4035:4128   */\n      tag_209\n        /* \"#utility.yul\":4124:4127   */\n      dup3\n        /* \"#utility.yul\":4035:4128   */\n      tag_210\n      jump\t// in\n    tag_209:\n        /* \"#utility.yul\":4153:4155   */\n      0x20\n        /* \"#utility.yul\":4148:4151   */\n      dup3\n        /* \"#utility.yul\":4144:4156   */\n      add\n        /* \"#utility.yul\":4137:4156   */\n      swap1\n      pop\n        /* \"#utility.yul\":3796:4162   */\n      swap2\n      swap1\n      pop\n      jump\t// out\n        /* \"#utility.yul\":4168:4534   */\n    tag_211:\n        /* \"#utility.yul\":4310:4313   */\n      0x00\n        /* \"#utility.yul\":4331:4398   */\n      tag_213\n        /* \"#utility.yul\":4395:4397   */\n      0x18\n        /* \"#utility.yul\":4390:4393   */\n      dup4\n        /* \"#utility.yul\":4331:4398   */\n      tag_188\n      jump\t// in\n    tag_213:\n        /* \"#utility.yul\":4324:4398   */\n      swap2\n      pop\n        /* \"#utility.yul\":4407:4500   */\n      tag_214\n        /* \"#utility.yul\":4496:4499   */\n      dup3\n        /* \"#utility.yul\":4407:4500   */\n      tag_215\n      jump\t// in\n    tag_214:\n        /* \"#utility.yul\":4525:4527   */\n      0x20\n        /* \"#utility.yul\":4520:4523   */\n      dup3\n        /* \"#utility.yul\":4516:4528   */\n      add\n        /* \"#utility.yul\":4509:4528   */\n      swap1\n      pop\n        /* \"#utility.yul\":4168:4534   */\n      swap2\n      swap1\n      pop\n      jump\t// out\n        /* \"#utility.yul\":4540:4906   */\n    tag_216:\n        /* \"#utility.yul\":4682:4685   */\n      0x00\n        /* \"#utility.yul\":4703:4770   */\n      tag_218\n        /* \"#utility.yul\":4767:4769   */\n      0x0c\n        /* \"#utility.yul\":4762:4765   */\n      dup4\n        /* \"#utility.yul\":4703:4770   */\n      tag_188\n      jump\t// in\n    tag_218:\n        /* \"#utility.yul\":4696:4770   */\n      swap2\n      pop\n        /* \"#utility.yul\":4779:4872   */\n      tag_219\n        /* \"#utility.yul\":4868:4871   */\n      dup3\n        /* \"#utility.yul\":4779:4872   */\n      tag_220\n      jump\t// in\n    tag_219:\n        /* \"#utility.yul\":4897:4899   */\n      0x20\n        /* \"#utility.yul\":4892:4895   */\n      dup3\n        /* \"#utility.yul\":4888:4900   */\n      add\n        /* \"#utility.yul\":4881:4900   */\n      swap1\n      pop\n        /* \"#utility.yul\":4540:4906   */\n      swap2\n      swap1\n      pop\n      jump\t// out\n        /* \"#utility.yul\":4912:5310   */\n    tag_221:\n        /* \"#utility.yul\":5071:5074   */\n      0x00\n        /* \"#utility.yul\":5092:5175   */\n      tag_223\n        /* \"#utility.yul\":5173:5174   */\n      0x00\n        /* \"#utility.yul\":5168:5171   */\n      dup4\n        /* \"#utility.yul\":5092:5175   */\n      tag_224\n      jump\t// in\n    tag_223:\n        /* \"#utility.yul\":5085:5175   */\n      swap2\n      pop\n        /* \"#utility.yul\":5184:5277   */\n      tag_225\n        /* \"#utility.yul\":5273:5276   */\n      dup3\n        /* \"#utility.yul\":5184:5277   */\n      tag_226\n      jump\t// in\n    tag_225:\n        /* \"#utility.yul\":5302:5303   */\n      0x00\n        /* \"#utility.yul\":5297:5300   */\n      dup3\n        /* \"#utility.yul\":5293:5304   */\n      add\n        /* \"#utility.yul\":5286:5304   */\n      swap1\n      pop\n        /* \"#utility.yul\":4912:5310   */\n      swap2\n      swap1\n      pop\n      jump\t// out\n        /* \"#utility.yul\":5316:5682   */\n    tag_227:\n        /* \"#utility.yul\":5458:5461   */\n      0x00\n        /* \"#utility.yul\":5479:5546   */\n      tag_229\n        /* \"#utility.yul\":5543:5545   */\n      0x16\n        /* \"#utility.yul\":5538:5541   */\n      dup4\n        /* \"#utility.yul\":5479:5546   */\n      tag_188\n      jump\t// in\n    tag_229:\n        /* \"#utility.yul\":5472:5546   */\n      swap2\n      pop\n        /* \"#utility.yul\":5555:5648   */\n      tag_230\n        /* \"#utility.yul\":5644:5647   */\n      dup3\n        /* \"#utility.yul\":5555:5648   */\n      tag_231\n      jump\t// in\n    tag_230:\n        /* \"#utility.yul\":5673:5675   */\n      0x20\n        /* \"#utility.yul\":5668:5671   */\n      dup3\n        /* \"#utility.yul\":5664:5676   */\n      add\n        /* \"#utility.yul\":5657:5676   */\n      swap1\n      pop\n        /* \"#utility.yul\":5316:5682   */\n      swap2\n      swap1\n      pop\n      jump\t// out\n        /* \"#utility.yul\":5688:6054   */\n    tag_232:\n        /* \"#utility.yul\":5830:5833   */\n      0x00\n        /* \"#utility.yul\":5851:5918   */\n      tag_234\n        /* \"#utility.yul\":5915:5917   */\n      0x12\n        /* \"#utility.yul\":5910:5913   */\n      dup4\n        /* \"#utility.yul\":5851:5918   */\n      tag_188\n      jump\t// in\n    tag_234:\n        /* \"#utility.yul\":5844:5918   */\n      swap2\n      pop\n        /* \"#utility.yul\":5927:6020   */\n      tag_235\n        /* \"#utility.yul\":6016:6019   */\n      dup3\n        /* \"#utility.yul\":5927:6020   */\n      tag_236\n      jump\t// in\n    tag_235:\n        /* \"#utility.yul\":6045:6047   */\n      0x20\n        /* \"#utility.yul\":6040:6043   */\n      dup3\n        /* \"#utility.yul\":6036:6048   */\n      add\n        /* \"#utility.yul\":6029:6048   */\n      swap1\n      pop\n        /* \"#utility.yul\":5688:6054   */\n      swap2\n      swap1\n      pop\n      jump\t// out\n        /* \"#utility.yul\":6060:6178   */\n    tag_237:\n        /* \"#utility.yul\":6147:6171   */\n      tag_239\n        /* \"#utility.yul\":6165:6170   */\n      dup2\n        /* \"#utility.yul\":6147:6171   */\n      tag_240\n      jump\t// in\n    tag_239:\n        /* \"#utility.yul\":6142:6145   */\n      dup3\n        /* \"#utility.yul\":6135:6172   */\n      mstore\n        /* \"#utility.yul\":6060:6178   */\n      pop\n      pop\n      jump\t// out\n        /* \"#utility.yul\":6184:6563   */\n    tag_86:\n        /* \"#utility.yul\":6368:6371   */\n      0x00\n        /* \"#utility.yul\":6390:6537   */\n      tag_242\n        /* \"#utility.yul\":6533:6536   */\n      dup3\n        /* \"#utility.yul\":6390:6537   */\n      tag_221\n      jump\t// in\n    tag_242:\n        /* \"#utility.yul\":6383:6537   */\n      swap2\n      pop\n        /* \"#utility.yul\":6554:6557   */\n      dup2\n        /* \"#utility.yul\":6547:6557   */\n      swap1\n      pop\n        /* \"#utility.yul\":6184:6563   */\n      swap2\n      swap1\n      pop\n      jump\t// out\n        /* \"#utility.yul\":6569:6791   */\n    tag_55:\n        /* \"#utility.yul\":6662:6666   */\n      0x00\n        /* \"#utility.yul\":6700:6702   */\n      0x20\n        /* \"#utility.yul\":6689:6698   */\n      dup3\n        /* \"#utility.yul\":6685:6703   */\n      add\n        /* \"#utility.yul\":6677:6703   */\n      swap1\n      pop\n        /* \"#utility.yul\":6713:6784   */\n      tag_244\n        /* \"#utility.yul\":6781:6782   */\n      0x00\n        /* \"#utility.yul\":6770:6779   */\n      dup4\n        /* \"#utility.yul\":6766:6783   */\n      add\n        /* \"#utility.yul\":6757:6763   */\n      dup5\n        /* \"#utility.yul\":6713:6784   */\n      tag_173\n      jump\t// in\n    tag_244:\n        /* \"#utility.yul\":6569:6791   */\n      swap3\n      swap2\n      pop\n      pop\n      jump\t// out\n        /* \"#utility.yul\":6797:7051   */\n    tag_21:\n        /* \"#utility.yul\":6906:6910   */\n      0x00\n        /* \"#utility.yul\":6944:6946   */\n      0x20\n        /* \"#utility.yul\":6933:6942   */\n      dup3\n        /* \"#utility.yul\":6929:6947   */\n      add\n        /* \"#utility.yul\":6921:6947   */\n      swap1\n      pop\n        /* \"#utility.yul\":6957:7044   */\n      tag_246\n        /* \"#utility.yul\":7041:7042   */\n      0x00\n        /* \"#utility.yul\":7030:7039   */\n      dup4\n        /* \"#utility.yul\":7026:7043   */\n      add\n        /* \"#utility.yul\":7017:7023   */\n      dup5\n        /* \"#utility.yul\":6957:7044   */\n      tag_169\n      jump\t// in\n    tag_246:\n        /* \"#utility.yul\":6797:7051   */\n      swap3\n      swap2\n      pop\n      pop\n      jump\t// out\n        /* \"#utility.yul\":7057:7405   */\n    tag_135:\n        /* \"#utility.yul\":7186:7190   */\n      0x00\n        /* \"#utility.yul\":7224:7226   */\n      0x40\n        /* \"#utility.yul\":7213:7222   */\n      dup3\n        /* \"#utility.yul\":7209:7227   */\n      add\n        /* \"#utility.yul\":7201:7227   */\n      swap1\n      pop\n        /* \"#utility.yul\":7237:7316   */\n      tag_248\n        /* \"#utility.yul\":7313:7314   */\n      0x00\n        /* \"#utility.yul\":7302:7311   */\n      dup4\n        /* \"#utility.yul\":7298:7315   */\n      add\n        /* \"#utility.yul\":7289:7295   */\n      dup6\n        /* \"#utility.yul\":7237:7316   */\n      tag_165\n      jump\t// in\n    tag_248:\n        /* \"#utility.yul\":7326:7398   */\n      tag_249\n        /* \"#utility.yul\":7394:7396   */\n      0x20\n        /* \"#utility.yul\":7383:7392   */\n      dup4\n        /* \"#utility.yul\":7379:7397   */\n      add\n        /* \"#utility.yul\":7370:7376   */\n      dup5\n        /* \"#utility.yul\":7326:7398   */\n      tag_237\n      jump\t// in\n    tag_249:\n        /* \"#utility.yul\":7057:7405   */\n      swap4\n      swap3\n      pop\n      pop\n      pop\n      jump\t// out\n        /* \"#utility.yul\":7411:7853   */\n    tag_102:\n        /* \"#utility.yul\":7560:7564   */\n      0x00\n        /* \"#utility.yul\":7598:7600   */\n      0x60\n        /* \"#utility.yul\":7587:7596   */\n      dup3\n        /* \"#utility.yul\":7583:7601   */\n      add\n        /* \"#utility.yul\":7575:7601   */\n      swap1\n      pop\n        /* \"#utility.yul\":7611:7682   */\n      tag_251\n        /* \"#utility.yul\":7679:7680   */\n      0x00\n        /* \"#utility.yul\":7668:7677   */\n      dup4\n        /* \"#utility.yul\":7664:7681   */\n      add\n        /* \"#utility.yul\":7655:7661   */\n      dup7\n        /* \"#utility.yul\":7611:7682   */\n      tag_173\n      jump\t// in\n    tag_251:\n        /* \"#utility.yul\":7692:7764   */\n      tag_252\n        /* \"#utility.yul\":7760:7762   */\n      0x20\n        /* \"#utility.yul\":7749:7758   */\n      dup4\n        /* \"#utility.yul\":7745:7763   */\n      add\n        /* \"#utility.yul\":7736:7742   */\n      dup6\n        /* \"#utility.yul\":7692:7764   */\n      tag_173\n      jump\t// in\n    tag_252:\n        /* \"#utility.yul\":7774:7846   */\n      tag_253\n        /* \"#utility.yul\":7842:7844   */\n      0x40\n        /* \"#utility.yul\":7831:7840   */\n      dup4\n        /* \"#utility.yul\":7827:7845   */\n      add\n        /* \"#utility.yul\":7818:7824   */\n      dup5\n        /* \"#utility.yul\":7774:7846   */\n      tag_237\n      jump\t// in\n    tag_253:\n        /* \"#utility.yul\":7411:7853   */\n      swap5\n      swap4\n      pop\n      pop\n      pop\n      pop\n      jump\t// out\n        /* \"#utility.yul\":7859:8191   */\n    tag_122:\n        /* \"#utility.yul\":7980:7984   */\n      0x00\n        /* \"#utility.yul\":8018:8020   */\n      0x40\n        /* \"#utility.yul\":8007:8016   */\n      dup3\n        /* \"#utility.yul\":8003:8021   */\n      add\n        /* \"#utility.yul\":7995:8021   */\n      swap1\n      pop\n        /* \"#utility.yul\":8031:8102   */\n      tag_255\n        /* \"#utility.yul\":8099:8100   */\n      0x00\n        /* \"#utility.yul\":8088:8097   */\n      dup4\n        /* \"#utility.yul\":8084:8101   */\n      add\n        /* \"#utility.yul\":8075:8081   */\n      dup6\n        /* \"#utility.yul\":8031:8102   */\n      tag_173\n      jump\t// in\n    tag_255:\n        /* \"#utility.yul\":8112:8184   */\n      tag_256\n        /* \"#utility.yul\":8180:8182   */\n      0x20\n        /* \"#utility.yul\":8169:8178   */\n      dup4\n        /* \"#utility.yul\":8165:8183   */\n      add\n        /* \"#utility.yul\":8156:8162   */\n      dup5\n        /* \"#utility.yul\":8112:8184   */\n      tag_237\n      jump\t// in\n    tag_256:\n        /* \"#utility.yul\":7859:8191   */\n      swap4\n      swap3\n      pop\n      pop\n      pop\n      jump\t// out\n        /* \"#utility.yul\":8197:8407   */\n    tag_26:\n        /* \"#utility.yul\":8284:8288   */\n      0x00\n        /* \"#utility.yul\":8322:8324   */\n      0x20\n        /* \"#utility.yul\":8311:8320   */\n      dup3\n        /* \"#utility.yul\":8307:8325   */\n      add\n        /* \"#utility.yul\":8299:8325   */\n      swap1\n      pop\n        /* \"#utility.yul\":8335:8400   */\n      tag_258\n        /* \"#utility.yul\":8397:8398   */\n      0x00\n        /* \"#utility.yul\":8386:8395   */\n      dup4\n        /* \"#utility.yul\":8382:8399   */\n      add\n        /* \"#utility.yul\":8373:8379   */\n      dup5\n        /* \"#utility.yul\":8335:8400   */\n      tag_177\n      jump\t// in\n    tag_258:\n        /* \"#utility.yul\":8197:8407   */\n      swap3\n      swap2\n      pop\n      pop\n      jump\t// out\n        /* \"#utility.yul\":8413:8663   */\n    tag_39:\n        /* \"#utility.yul\":8520:8524   */\n      0x00\n        /* \"#utility.yul\":8558:8560   */\n      0x20\n        /* \"#utility.yul\":8547:8556   */\n      dup3\n        /* \"#utility.yul\":8543:8561   */\n      add\n        /* \"#utility.yul\":8535:8561   */\n      swap1\n      pop\n        /* \"#utility.yul\":8571:8656   */\n      tag_260\n        /* \"#utility.yul\":8653:8654   */\n      0x00\n        /* \"#utility.yul\":8642:8651   */\n      dup4\n        /* \"#utility.yul\":8638:8655   */\n      add\n        /* \"#utility.yul\":8629:8635   */\n      dup5\n        /* \"#utility.yul\":8571:8656   */\n      tag_181\n      jump\t// in\n    tag_260:\n        /* \"#utility.yul\":8413:8663   */\n      swap3\n      swap2\n      pop\n      pop\n      jump\t// out\n        /* \"#utility.yul\":8669:9088   */\n    tag_116:\n        /* \"#utility.yul\":8835:8839   */\n      0x00\n        /* \"#utility.yul\":8873:8875   */\n      0x20\n        /* \"#utility.yul\":8862:8871   */\n      dup3\n        /* \"#utility.yul\":8858:8876   */\n      add\n        /* \"#utility.yul\":8850:8876   */\n      swap1\n      pop\n        /* \"#utility.yul\":8922:8931   */\n      dup2\n        /* \"#utility.yul\":8916:8920   */\n      dup2\n        /* \"#utility.yul\":8912:8932   */\n      sub\n        /* \"#utility.yul\":8908:8909   */\n      0x00\n        /* \"#utility.yul\":8897:8906   */\n      dup4\n        /* \"#utility.yul\":8893:8910   */\n      add\n        /* \"#utility.yul\":8886:8933   */\n      mstore\n        /* \"#utility.yul\":8950:9081   */\n      tag_262\n        /* \"#utility.yul\":9076:9080   */\n      dup2\n        /* \"#utility.yul\":8950:9081   */\n      tag_185\n      jump\t// in\n    tag_262:\n        /* \"#utility.yul\":8942:9081   */\n      swap1\n      pop\n        /* \"#utility.yul\":8669:9088   */\n      swap2\n      swap1\n      pop\n      jump\t// out\n        /* \"#utility.yul\":9094:9513   */\n    tag_97:\n        /* \"#utility.yul\":9260:9264   */\n      0x00\n        /* \"#utility.yul\":9298:9300   */\n      0x20\n        /* \"#utility.yul\":9287:9296   */\n      dup3\n        /* \"#utility.yul\":9283:9301   */\n      add\n        /* \"#utility.yul\":9275:9301   */\n      swap1\n      pop\n        /* \"#utility.yul\":9347:9356   */\n      dup2\n        /* \"#utility.yul\":9341:9345   */\n      dup2\n        /* \"#utility.yul\":9337:9357   */\n      sub\n        /* \"#utility.yul\":9333:9334   */\n      0x00\n        /* \"#utility.yul\":9322:9331   */\n      dup4\n        /* \"#utility.yul\":9318:9335   */\n      add\n        /* \"#utility.yul\":9311:9358   */\n      mstore\n        /* \"#utility.yul\":9375:9506   */\n      tag_264\n        /* \"#utility.yul\":9501:9505   */\n      dup2\n        /* \"#utility.yul\":9375:9506   */\n      tag_191\n      jump\t// in\n    tag_264:\n        /* \"#utility.yul\":9367:9506   */\n      swap1\n      pop\n        /* \"#utility.yul\":9094:9513   */\n      swap2\n      swap1\n      pop\n      jump\t// out\n        /* \"#utility.yul\":9519:9938   */\n    tag_78:\n        /* \"#utility.yul\":9685:9689   */\n      0x00\n        /* \"#utility.yul\":9723:9725   */\n      0x20\n        /* \"#utility.yul\":9712:9721   */\n      dup3\n        /* \"#utility.yul\":9708:9726   */\n      add\n        /* \"#utility.yul\":9700:9726   */\n      swap1\n      pop\n        /* \"#utility.yul\":9772:9781   */\n      dup2\n        /* \"#utility.yul\":9766:9770   */\n      dup2\n        /* \"#utility.yul\":9762:9782   */\n      sub\n        /* \"#utility.yul\":9758:9759   */\n      0x00\n        /* \"#utility.yul\":9747:9756   */\n      dup4\n        /* \"#utility.yul\":9743:9760   */\n      add\n        /* \"#utility.yul\":9736:9783   */\n      mstore\n        /* \"#utility.yul\":9800:9931   */\n      tag_266\n        /* \"#utility.yul\":9926:9930   */\n      dup2\n        /* \"#utility.yul\":9800:9931   */\n      tag_196\n      jump\t// in\n    tag_266:\n        /* \"#utility.yul\":9792:9931   */\n      swap1\n      pop\n        /* \"#utility.yul\":9519:9938   */\n      swap2\n      swap1\n      pop\n      jump\t// out\n        /* \"#utility.yul\":9944:10363   */\n    tag_100:\n        /* \"#utility.yul\":10110:10114   */\n      0x00\n        /* \"#utility.yul\":10148:10150   */\n      0x20\n        /* \"#utility.yul\":10137:10146   */\n      dup3\n        /* \"#utility.yul\":10133:10151   */\n      add\n        /* \"#utility.yul\":10125:10151   */\n      swap1\n      pop\n        /* \"#utility.yul\":10197:10206   */\n      dup2\n        /* \"#utility.yul\":10191:10195   */\n      dup2\n        /* \"#utility.yul\":10187:10207   */\n      sub\n        /* \"#utility.yul\":10183:10184   */\n      0x00\n        /* \"#utility.yul\":10172:10181   */\n      dup4\n        /* \"#utility.yul\":10168:10185   */\n      add\n        /* \"#utility.yul\":10161:10208   */\n      mstore\n        /* \"#utility.yul\":10225:10356   */\n      tag_268\n        /* \"#utility.yul\":10351:10355   */\n      dup2\n        /* \"#utility.yul\":10225:10356   */\n      tag_201\n      jump\t// in\n    tag_268:\n        /* \"#utility.yul\":10217:10356   */\n      swap1\n      pop\n        /* \"#utility.yul\":9944:10363   */\n      swap2\n      swap1\n      pop\n      jump\t// out\n        /* \"#utility.yul\":10369:10788   */\n    tag_132:\n        /* \"#utility.yul\":10535:10539   */\n      0x00\n        /* \"#utility.yul\":10573:10575   */\n      0x20\n        /* \"#utility.yul\":10562:10571   */\n      dup3\n        /* \"#utility.yul\":10558:10576   */\n      add\n        /* \"#utility.yul\":10550:10576   */\n      swap1\n      pop\n        /* \"#utility.yul\":10622:10631   */\n      dup2\n        /* \"#utility.yul\":10616:10620   */\n      dup2\n        /* \"#utility.yul\":10612:10632   */\n      sub\n        /* \"#utility.yul\":10608:10609   */\n      0x00\n        /* \"#utility.yul\":10597:10606   */\n      dup4\n        /* \"#utility.yul\":10593:10610   */\n      add\n        /* \"#utility.yul\":10586:10633   */\n      mstore\n        /* \"#utility.yul\":10650:10781   */\n      tag_270\n        /* \"#utility.yul\":10776:10780   */\n      dup2\n        /* \"#utility.yul\":10650:10781   */\n      tag_206\n      jump\t// in\n    tag_270:\n        /* \"#utility.yul\":10642:10781   */\n      swap1\n      pop\n        /* \"#utility.yul\":10369:10788   */\n      swap2\n      swap1\n      pop\n      jump\t// out\n        /* \"#utility.yul\":10794:11213   */\n    tag_113:\n        /* \"#utility.yul\":10960:10964   */\n      0x00\n        /* \"#utility.yul\":10998:11000   */\n      0x20\n        /* \"#utility.yul\":10987:10996   */\n      dup3\n        /* \"#utility.yul\":10983:11001   */\n      add\n        /* \"#utility.yul\":10975:11001   */\n      swap1\n      pop\n        /* \"#utility.yul\":11047:11056   */\n      dup2\n        /* \"#utility.yul\":11041:11045   */\n      dup2\n        /* \"#utility.yul\":11037:11057   */\n      sub\n        /* \"#utility.yul\":11033:11034   */\n      0x00\n        /* \"#utility.yul\":11022:11031   */\n      dup4\n        /* \"#utility.yul\":11018:11035   */\n      add\n        /* \"#utility.yul\":11011:11058   */\n      mstore\n        /* \"#utility.yul\":11075:11206   */\n      tag_272\n        /* \"#utility.yul\":11201:11205   */\n      dup2\n        /* \"#utility.yul\":11075:11206   */\n      tag_211\n      jump\t// in\n    tag_272:\n        /* \"#utility.yul\":11067:11206   */\n      swap1\n      pop\n        /* \"#utility.yul\":10794:11213   */\n      swap2\n      swap1\n      pop\n      jump\t// out\n        /* \"#utility.yul\":11219:11638   */\n    tag_75:\n        /* \"#utility.yul\":11385:11389   */\n      0x00\n        /* \"#utility.yul\":11423:11425   */\n      0x20\n        /* \"#utility.yul\":11412:11421   */\n      dup3\n        /* \"#utility.yul\":11408:11426   */\n      add\n        /* \"#utility.yul\":11400:11426   */\n      swap1\n      pop\n        /* \"#utility.yul\":11472:11481   */\n      dup2\n        /* \"#utility.yul\":11466:11470   */\n      dup2\n        /* \"#utility.yul\":11462:11482   */\n      sub\n        /* \"#utility.yul\":11458:11459   */\n      0x00\n        /* \"#utility.yul\":11447:11456   */\n      dup4\n        /* \"#utility.yul\":11443:11460   */\n      add\n        /* \"#utility.yul\":11436:11483   */\n      mstore\n        /* \"#utility.yul\":11500:11631   */\n      tag_274\n        /* \"#utility.yul\":11626:11630   */\n      dup2\n        /* \"#utility.yul\":11500:11631   */\n      tag_216\n      jump\t// in\n    tag_274:\n        /* \"#utility.yul\":11492:11631   */\n      swap1\n      pop\n        /* \"#utility.yul\":11219:11638   */\n      swap2\n      swap1\n      pop\n      jump\t// out\n        /* \"#utility.yul\":11644:12063   */\n    tag_119:\n        /* \"#utility.yul\":11810:11814   */\n      0x00\n        /* \"#utility.yul\":11848:11850   */\n      0x20\n        /* \"#utility.yul\":11837:11846   */\n      dup3\n        /* \"#utility.yul\":11833:11851   */\n      add\n        /* \"#utility.yul\":11825:11851   */\n      swap1\n      pop\n        /* \"#utility.yul\":11897:11906   */\n      dup2\n        /* \"#utility.yul\":11891:11895   */\n      dup2\n        /* \"#utility.yul\":11887:11907   */\n      sub\n        /* \"#utility.yul\":11883:11884   */\n      0x00\n        /* \"#utility.yul\":11872:11881   */\n      dup4\n        /* \"#utility.yul\":11868:11885   */\n      add\n        /* \"#utility.yul\":11861:11908   */\n      mstore\n        /* \"#utility.yul\":11925:12056   */\n      tag_276\n        /* \"#utility.yul\":12051:12055   */\n      dup2\n        /* \"#utility.yul\":11925:12056   */\n      tag_227\n      jump\t// in\n    tag_276:\n        /* \"#utility.yul\":11917:12056   */\n      swap1\n      pop\n        /* \"#utility.yul\":11644:12063   */\n      swap2\n      swap1\n      pop\n      jump\t// out\n        /* \"#utility.yul\":12069:12488   */\n    tag_92:\n        /* \"#utility.yul\":12235:12239   */\n      0x00\n        /* \"#utility.yul\":12273:12275   */\n      0x20\n        /* \"#utility.yul\":12262:12271   */\n      dup3\n        /* \"#utility.yul\":12258:12276   */\n      add\n        /* \"#utility.yul\":12250:12276   */\n      swap1\n      pop\n        /* \"#utility.yul\":12322:12331   */\n      dup2\n        /* \"#utility.yul\":12316:12320   */\n      dup2\n        /* \"#utility.yul\":12312:12332   */\n      sub\n        /* \"#utility.yul\":12308:12309   */\n      0x00\n        /* \"#utility.yul\":12297:12306   */\n      dup4\n        /* \"#utility.yul\":12293:12310   */\n      add\n        /* \"#utility.yul\":12286:12333   */\n      mstore\n        /* \"#utility.yul\":12350:12481   */\n      tag_278\n        /* \"#utility.yul\":12476:12480   */\n      dup2\n        /* \"#utility.yul\":12350:12481   */\n      tag_232\n      jump\t// in\n    tag_278:\n        /* \"#utility.yul\":12342:12481   */\n      swap1\n      pop\n        /* \"#utility.yul\":12069:12488   */\n      swap2\n      swap1\n      pop\n      jump\t// out\n        /* \"#utility.yul\":12494:12716   */\n    tag_46:\n        /* \"#utility.yul\":12587:12591   */\n      0x00\n        /* \"#utility.yul\":12625:12627   */\n      0x20\n        /* \"#utility.yul\":12614:12623   */\n      dup3\n        /* \"#utility.yul\":12610:12628   */\n      add\n        /* \"#utility.yul\":12602:12628   */\n      swap1\n      pop\n        /* \"#utility.yul\":12638:12709   */\n      tag_280\n        /* \"#utility.yul\":12706:12707   */\n      0x00\n        /* \"#utility.yul\":12695:12704   */\n      dup4\n        /* \"#utility.yul\":12691:12708   */\n      add\n        /* \"#utility.yul\":12682:12688   */\n      dup5\n        /* \"#utility.yul\":12638:12709   */\n      tag_237\n      jump\t// in\n    tag_280:\n        /* \"#utility.yul\":12494:12716   */\n      swap3\n      swap2\n      pop\n      pop\n      jump\t// out\n        /* \"#utility.yul\":12803:12950   */\n    tag_224:\n        /* \"#utility.yul\":12904:12915   */\n      0x00\n        /* \"#utility.yul\":12941:12944   */\n      dup2\n        /* \"#utility.yul\":12926:12944   */\n      swap1\n      pop\n        /* \"#utility.yul\":12803:12950   */\n      swap3\n      swap2\n      pop\n      pop\n      jump\t// out\n        /* \"#utility.yul\":12956:13125   */\n    tag_188:\n        /* \"#utility.yul\":13040:13051   */\n      0x00\n        /* \"#utility.yul\":13074:13080   */\n      dup3\n        /* \"#utility.yul\":13069:13072   */\n      dup3\n        /* \"#utility.yul\":13062:13081   */\n      mstore\n        /* \"#utility.yul\":13114:13118   */\n      0x20\n        /* \"#utility.yul\":13109:13112   */\n      dup3\n        /* \"#utility.yul\":13105:13119   */\n      add\n        /* \"#utility.yul\":13090:13119   */\n      swap1\n      pop\n        /* \"#utility.yul\":12956:13125   */\n      swap3\n      swap2\n      pop\n      pop\n      jump\t// out\n        /* \"#utility.yul\":13131:13436   */\n    tag_82:\n        /* \"#utility.yul\":13171:13174   */\n      0x00\n        /* \"#utility.yul\":13190:13210   */\n      tag_286\n        /* \"#utility.yul\":13208:13209   */\n      dup3\n        /* \"#utility.yul\":13190:13210   */\n      tag_240\n      jump\t// in\n    tag_286:\n        /* \"#utility.yul\":13185:13210   */\n      swap2\n      pop\n        /* \"#utility.yul\":13224:13244   */\n      tag_287\n        /* \"#utility.yul\":13242:13243   */\n      dup4\n        /* \"#utility.yul\":13224:13244   */\n      tag_240\n      jump\t// in\n    tag_287:\n        /* \"#utility.yul\":13219:13244   */\n      swap3\n      pop\n        /* \"#utility.yul\":13378:13379   */\n      dup3\n        /* \"#utility.yul\":13310:13376   */\n      0xffffffffffffffffffffffffffffffffffffffffffffffffffffffffffffffff\n        /* \"#utility.yul\":13306:13380   */\n      sub\n        /* \"#utility.yul\":13303:13304   */\n      dup3\n        /* \"#utility.yul\":13300:13381   */\n      gt\n        /* \"#utility.yul\":13297:13404   */\n      iszero\n      tag_288\n      jumpi\n        /* \"#utility.yul\":13384:13402   */\n      tag_289\n      tag_290\n      jump\t// in\n    tag_289:\n        /* \"#utility.yul\":13297:13404   */\n    tag_288:\n        /* \"#utility.yul\":13428:13429   */\n      dup3\n        /* \"#utility.yul\":13425:13426   */\n      dup3\n        /* \"#utility.yul\":13421:13430   */\n      add\n        /* \"#utility.yul\":13414:13430   */\n      swap1\n      pop\n        /* \"#utility.yul\":13131:13436   */\n      swap3\n      swap2\n      pop\n      pop\n      jump\t// out\n        /* \"#utility.yul\":13442:13790   */\n    tag_107:\n        /* \"#utility.yul\":13482:13489   */\n      0x00\n        /* \"#utility.yul\":13505:13525   */\n      tag_292\n        /* \"#utility.yul\":13523:13524   */\n      dup3\n        /* \"#utility.yul\":13505:13525   */\n      tag_240\n      jump\t// in\n    tag_292:\n        /* \"#utility.yul\":13500:13525   */\n      swap2\n      pop\n        /* \"#utility.yul\":13539:13559   */\n      tag_293\n        /* \"#utility.yul\":13557:13558   */\n      dup4\n        /* \"#utility.yul\":13539:13559   */\n      tag_240\n      jump\t// in\n    tag_293:\n        /* \"#utility.yul\":13534:13559   */\n      swap3\n      pop\n        /* \"#utility.yul\":13727:13728   */\n      dup2\n        /* \"#utility.yul\":13659:13725   */\n      0xffffffffffffffffffffffffffffffffffffffffffffffffffffffffffffffff\n        /* \"#utility.yul\":13655:13729   */\n      div\n        /* \"#utility.yul\":13652:13653   */\n      dup4\n        /* \"#utility.yul\":13649:13730   */\n      gt\n        /* \"#utility.yul\":13644:13645   */\n      dup3\n        /* \"#utility.yul\":13637:13646   */\n      iszero\n        /* \"#utility.yul\":13630:13647   */\n      iszero\n        /* \"#utility.yul\":13626:13731   */\n      and\n        /* \"#utility.yul\":13623:13754   */\n      iszero\n      tag_294\n      jumpi\n        /* \"#utility.yul\":13734:13752   */\n      tag_295\n      tag_290\n      jump\t// in\n    tag_295:\n        /* \"#utility.yul\":13623:13754   */\n    tag_294:\n        /* \"#utility.yul\":13782:13783   */\n      dup3\n        /* \"#utility.yul\":13779:13780   */\n      dup3\n        /* \"#utility.yul\":13775:13784   */\n      mul\n        /* \"#utility.yul\":13764:13784   */\n      swap1\n      pop\n        /* \"#utility.yul\":13442:13790   */\n      swap3\n      swap2\n      pop\n      pop\n      jump\t// out\n        /* \"#utility.yul\":13796:13892   */\n    tag_176:\n        /* \"#utility.yul\":13833:13840   */\n      0x00\n        /* \"#utility.yul\":13862:13886   */\n      tag_297\n        /* \"#utility.yul\":13880:13885   */\n      dup3\n        /* \"#utility.yul\":13862:13886   */\n      tag_298\n      jump\t// in\n    tag_297:\n        /* \"#utility.yul\":13851:13886   */\n      swap1\n      pop\n        /* \"#utility.yul\":13796:13892   */\n      swap2\n      swap1\n      pop\n      jump\t// out\n        /* \"#utility.yul\":13898:14002   */\n    tag_172:\n        /* \"#utility.yul\":13943:13950   */\n      0x00\n        /* \"#utility.yul\":13972:13996   */\n      tag_300\n        /* \"#utility.yul\":13990:13995   */\n      dup3\n        /* \"#utility.yul\":13972:13996   */\n      tag_298\n      jump\t// in\n    tag_300:\n        /* \"#utility.yul\":13961:13996   */\n      swap1\n      pop\n        /* \"#utility.yul\":13898:14002   */\n      swap2\n      swap1\n      pop\n      jump\t// out\n        /* \"#utility.yul\":14008:14098   */\n    tag_180:\n        /* \"#utility.yul\":14042:14049   */\n      0x00\n        /* \"#utility.yul\":14085:14090   */\n      dup2\n        /* \"#utility.yul\":14078:14091   */\n      iszero\n        /* \"#utility.yul\":14071:14092   */\n      iszero\n        /* \"#utility.yul\":14060:14092   */\n      swap1\n      pop\n        /* \"#utility.yul\":14008:14098   */\n      swap2\n      swap1\n      pop\n      jump\t// out\n        /* \"#utility.yul\":14104:14214   */\n    tag_302:\n        /* \"#utility.yul\":14155:14162   */\n      0x00\n        /* \"#utility.yul\":14184:14208   */\n      tag_304\n        /* \"#utility.yul\":14202:14207   */\n      dup3\n        /* \"#utility.yul\":14184:14208   */\n      tag_176\n      jump\t// in\n    tag_304:\n        /* \"#utility.yul\":14173:14208   */\n      swap1\n      pop\n        /* \"#utility.yul\":14104:14214   */\n      swap2\n      swap1\n      pop\n      jump\t// out\n        /* \"#utility.yul\":14220:14346   */\n    tag_298:\n        /* \"#utility.yul\":14257:14264   */\n      0x00\n        /* \"#utility.yul\":14297:14339   */\n      0xffffffffffffffffffffffffffffffffffffffff\n        /* \"#utility.yul\":14290:14295   */\n      dup3\n        /* \"#utility.yul\":14286:14340   */\n      and\n        /* \"#utility.yul\":14275:14340   */\n      swap1\n      pop\n        /* \"#utility.yul\":14220:14346   */\n      swap2\n      swap1\n      pop\n      jump\t// out\n        /* \"#utility.yul\":14352:14429   */\n    tag_240:\n        /* \"#utility.yul\":14389:14396   */\n      0x00\n        /* \"#utility.yul\":14418:14423   */\n      dup2\n        /* \"#utility.yul\":14407:14423   */\n      swap1\n      pop\n        /* \"#utility.yul\":14352:14429   */\n      swap2\n      swap1\n      pop\n      jump\t// out\n        /* \"#utility.yul\":14435:14569   */\n    tag_168:\n        /* \"#utility.yul\":14493:14502   */\n      0x00\n        /* \"#utility.yul\":14526:14563   */\n      tag_308\n        /* \"#utility.yul\":14557:14562   */\n      dup3\n        /* \"#utility.yul\":14526:14563   */\n      tag_309\n      jump\t// in\n    tag_308:\n        /* \"#utility.yul\":14513:14563   */\n      swap1\n      pop\n        /* \"#utility.yul\":14435:14569   */\n      swap2\n      swap1\n      pop\n      jump\t// out\n        /* \"#utility.yul\":14575:14715   */\n    tag_184:\n        /* \"#utility.yul\":14639:14648   */\n      0x00\n        /* \"#utility.yul\":14672:14709   */\n      tag_311\n        /* \"#utility.yul\":14703:14708   */\n      dup3\n        /* \"#utility.yul\":14672:14709   */\n      tag_309\n      jump\t// in\n    tag_311:\n        /* \"#utility.yul\":14659:14709   */\n      swap1\n      pop\n        /* \"#utility.yul\":14575:14715   */\n      swap2\n      swap1\n      pop\n      jump\t// out\n        /* \"#utility.yul\":14721:14847   */\n    tag_309:\n        /* \"#utility.yul\":14771:14780   */\n      0x00\n        /* \"#utility.yul\":14804:14841   */\n      tag_313\n        /* \"#utility.yul\":14835:14840   */\n      dup3\n        /* \"#utility.yul\":14804:14841   */\n      tag_314\n      jump\t// in\n    tag_313:\n        /* \"#utility.yul\":14791:14841   */\n      swap1\n      pop\n        /* \"#utility.yul\":14721:14847   */\n      swap2\n      swap1\n      pop\n      jump\t// out\n        /* \"#utility.yul\":14853:14966   */\n    tag_314:\n        /* \"#utility.yul\":14903:14912   */\n      0x00\n        /* \"#utility.yul\":14936:14960   */\n      tag_316\n        /* \"#utility.yul\":14954:14959   */\n      dup3\n        /* \"#utility.yul\":14936:14960   */\n      tag_298\n      jump\t// in\n    tag_316:\n        /* \"#utility.yul\":14923:14960   */\n      swap1\n      pop\n        /* \"#utility.yul\":14853:14966   */\n      swap2\n      swap1\n      pop\n      jump\t// out\n        /* \"#utility.yul\":14972:15152   */\n    tag_290:\n        /* \"#utility.yul\":15020:15097   */\n      0x4e487b7100000000000000000000000000000000000000000000000000000000\n        /* \"#utility.yul\":15017:15018   */\n      0x00\n        /* \"#utility.yul\":15010:15098   */\n      mstore\n        /* \"#utility.yul\":15117:15121   */\n      0x11\n        /* \"#utility.yul\":15114:15115   */\n      0x04\n        /* \"#utility.yul\":15107:15122   */\n      mstore\n        /* \"#utility.yul\":15141:15145   */\n      0x24\n        /* \"#utility.yul\":15138:15139   */\n      0x00\n        /* \"#utility.yul\":15131:15146   */\n      revert\n        /* \"#utility.yul\":15281:15398   */\n    tag_156:\n        /* \"#utility.yul\":15390:15391   */\n      0x00\n        /* \"#utility.yul\":15387:15388   */\n      dup1\n        /* \"#utility.yul\":15380:15392   */\n      revert\n        /* \"#utility.yul\":15404:15579   */\n    tag_190:\n        /* \"#utility.yul\":15544:15571   */\n      0x41756374696f6e206973207374696c6c206f6e676f696e672100000000000000\n        /* \"#utility.yul\":15540:15541   */\n      0x00\n        /* \"#utility.yul\":15532:15538   */\n      dup3\n        /* \"#utility.yul\":15528:15542   */\n      add\n        /* \"#utility.yul\":15521:15572   */\n      mstore\n        /* \"#utility.yul\":15404:15579   */\n      pop\n      jump\t// out\n        /* \"#utility.yul\":15585:15751   */\n    tag_195:\n        /* \"#utility.yul\":15725:15743   */\n      0x416c726561647920737461727465642100000000000000000000000000000000\n        /* \"#utility.yul\":15721:15722   */\n      0x00\n        /* \"#utility.yul\":15713:15719   */\n      dup3\n        /* \"#utility.yul\":15709:15723   */\n      add\n        /* \"#utility.yul\":15702:15744   */\n      mstore\n        /* \"#utility.yul\":15585:15751   */\n      pop\n      jump\t// out\n        /* \"#utility.yul\":15757:15913   */\n    tag_200:\n        /* \"#utility.yul\":15897:15905   */\n      0x456e646564210000000000000000000000000000000000000000000000000000\n        /* \"#utility.yul\":15893:15894   */\n      0x00\n        /* \"#utility.yul\":15885:15891   */\n      dup3\n        /* \"#utility.yul\":15881:15895   */\n      add\n        /* \"#utility.yul\":15874:15906   */\n      mstore\n        /* \"#utility.yul\":15757:15913   */\n      pop\n      jump\t// out\n        /* \"#utility.yul\":15919:16099   */\n    tag_205:\n        /* \"#utility.yul\":16059:16091   */\n      0x596f7520646964206e6f74207374617274207468652061756374696f6e210000\n        /* \"#utility.yul\":16055:16056   */\n      0x00\n        /* \"#utility.yul\":16047:16053   */\n      dup3\n        /* \"#utility.yul\":16043:16057   */\n      add\n        /* \"#utility.yul\":16036:16092   */\n      mstore\n        /* \"#utility.yul\":15919:16099   */\n      pop\n      jump\t// out\n        /* \"#utility.yul\":16105:16276   */\n    tag_210:\n        /* \"#utility.yul\":16245:16268   */\n      0x436f756c64206e6f74207061792073656c6c6572210000000000000000000000\n        /* \"#utility.yul\":16241:16242   */\n      0x00\n        /* \"#utility.yul\":16233:16239   */\n      dup3\n        /* \"#utility.yul\":16229:16243   */\n      add\n        /* \"#utility.yul\":16222:16269   */\n      mstore\n        /* \"#utility.yul\":16105:16276   */\n      pop\n      jump\t// out\n        /* \"#utility.yul\":16282:16456   */\n    tag_215:\n        /* \"#utility.yul\":16422:16448   */\n      0x596f75206e65656420746f207374617274206669727374210000000000000000\n        /* \"#utility.yul\":16418:16419   */\n      0x00\n        /* \"#utility.yul\":16410:16416   */\n      dup3\n        /* \"#utility.yul\":16406:16420   */\n      add\n        /* \"#utility.yul\":16399:16449   */\n      mstore\n        /* \"#utility.yul\":16282:16456   */\n      pop\n      jump\t// out\n        /* \"#utility.yul\":16462:16624   */\n    tag_220:\n        /* \"#utility.yul\":16602:16616   */\n      0x4e6f7420737461727465642e0000000000000000000000000000000000000000\n        /* \"#utility.yul\":16598:16599   */\n      0x00\n        /* \"#utility.yul\":16590:16596   */\n      dup3\n        /* \"#utility.yul\":16586:16600   */\n      add\n        /* \"#utility.yul\":16579:16617   */\n      mstore\n        /* \"#utility.yul\":16462:16624   */\n      pop\n      jump\t// out\n        /* \"#utility.yul\":16630:16744   */\n    tag_226:\n      pop\n      jump\t// out\n        /* \"#utility.yul\":16750:16922   */\n    tag_231:\n        /* \"#utility.yul\":16890:16914   */\n      0x41756374696f6e20616c726561647920656e6465642100000000000000000000\n        /* \"#utility.yul\":16886:16887   */\n      0x00\n        /* \"#utility.yul\":16878:16884   */\n      dup3\n        /* \"#utility.yul\":16874:16888   */\n      add\n        /* \"#utility.yul\":16867:16915   */\n      mstore\n        /* \"#utility.yul\":16750:16922   */\n      pop\n      jump\t// out\n        /* \"#utility.yul\":16928:17096   */\n    tag_236:\n        /* \"#utility.yul\":17068:17088   */\n      0x436f756c64206e6f742077697468647261770000000000000000000000000000\n        /* \"#utility.yul\":17064:17065   */\n      0x00\n        /* \"#utility.yul\":17056:17062   */\n      dup3\n        /* \"#utility.yul\":17052:17066   */\n      add\n        /* \"#utility.yul\":17045:17089   */\n      mstore\n        /* \"#utility.yul\":16928:17096   */\n      pop\n      jump\t// out\n        /* \"#utility.yul\":17102:17224   */\n    tag_144:\n        /* \"#utility.yul\":17175:17199   */\n      tag_332\n        /* \"#utility.yul\":17193:17198   */\n      dup2\n        /* \"#utility.yul\":17175:17199   */\n      tag_176\n      jump\t// in\n    tag_332:\n        /* \"#utility.yul\":17168:17173   */\n      dup2\n        /* \"#utility.yul\":17165:17200   */\n      eq\n        /* \"#utility.yul\":17155:17218   */\n      tag_333\n      jumpi\n        /* \"#utility.yul\":17214:17215   */\n      0x00\n        /* \"#utility.yul\":17211:17212   */\n      dup1\n        /* \"#utility.yul\":17204:17216   */\n      revert\n        /* \"#utility.yul\":17155:17218   */\n    tag_333:\n        /* \"#utility.yul\":17102:17224   */\n      pop\n      jump\t// out\n        /* \"#utility.yul\":17230:17380   */\n    tag_148:\n        /* \"#utility.yul\":17317:17355   */\n      tag_335\n        /* \"#utility.yul\":17349:17354   */\n      dup2\n        /* \"#utility.yul\":17317:17355   */\n      tag_302\n      jump\t// in\n    tag_335:\n        /* \"#utility.yul\":17310:17315   */\n      dup2\n        /* \"#utility.yul\":17307:17356   */\n      eq\n        /* \"#utility.yul\":17297:17374   */\n      tag_336\n      jumpi\n        /* \"#utility.yul\":17370:17371   */\n      0x00\n        /* \"#utility.yul\":17367:17368   */\n      dup1\n        /* \"#utility.yul\":17360:17372   */\n      revert\n        /* \"#utility.yul\":17297:17374   */\n    tag_336:\n        /* \"#utility.yul\":17230:17380   */\n      pop\n      jump\t// out\n        /* \"#utility.yul\":17386:17508   */\n    tag_152:\n        /* \"#utility.yul\":17459:17483   */\n      tag_338\n        /* \"#utility.yul\":17477:17482   */\n      dup2\n        /* \"#utility.yul\":17459:17483   */\n      tag_240\n      jump\t// in\n    tag_338:\n        /* \"#utility.yul\":17452:17457   */\n      dup2\n        /* \"#utility.yul\":17449:17484   */\n      eq\n        /* \"#utility.yul\":17439:17502   */\n      tag_339\n      jumpi\n        /* \"#utility.yul\":17498:17499   */\n      0x00\n        /* \"#utility.yul\":17495:17496   */\n      dup1\n        /* \"#utility.yul\":17488:17500   */\n      revert\n        /* \"#utility.yul\":17439:17502   */\n    tag_339:\n        /* \"#utility.yul\":17386:17508   */\n      pop\n      jump\t// out\n\n    auxdata: 0xa26469706673582212201525fb7a4cef21faf7e79371b78da92651f929edca0cfa7845d3a39d2685649d64736f6c63430008070033\n}\n",
				"bytecode": {
					"linkReferences": {},
					"object": "608060405234801561001057600080fd5b50336000806101000a81548173ffffffffffffffffffffffffffffffffffffffff021916908373ffffffffffffffffffffffffffffffffffffffff1602179055506115c5806100606000396000f3fe6080604052600436106100c25760003560e01c806362ea82db1161007f578063b76a3b5a11610059578063b76a3b5a1461021a578063c6bc518214610243578063d57bde791461026e578063efbe1c1c14610299576100c2565b806362ea82db146101875780637cc3ae8c146101c457806391f90157146101ef576100c2565b806308551a53146100c757806312fa6feb146100f25780631998aeef1461011d5780631f2698ab146101275780633ccfd60b1461015257806347ccca021461015c575b600080fd5b3480156100d357600080fd5b506100dc6102b0565b6040516100e9919061100d565b60405180910390f35b3480156100fe57600080fd5b506101076102d4565b60405161011491906110b1565b60405180910390f35b6101256102e7565b005b34801561013357600080fd5b5061013c610515565b60405161014991906110b1565b60405180910390f35b61015a610528565b005b34801561016857600080fd5b506101716106b2565b60405161017e91906110cc565b60405180910390f35b34801561019357600080fd5b506101ae60048036038101906101a99190610d91565b6106d8565b6040516101bb9190611207565b60405180910390f35b3480156101d057600080fd5b506101d96106f0565b6040516101e69190611207565b60405180910390f35b3480156101fb57600080fd5b506102046106f6565b6040516102119190610ff2565b60405180910390f35b34801561022657600080fd5b50610241600480360381019061023c9190610dbe565b61071c565b005b34801561024f57600080fd5b50610258610956565b6040516102659190611207565b60405180910390f35b34801561027a57600080fd5b5061028361095c565b6040516102909190611207565b60405180910390f35b3480156102a557600080fd5b506102ae610962565b005b60008054906101000a900473ffffffffffffffffffffffffffffffffffffffff1681565b600060159054906101000a900460ff1681565b600060149054906101000a900460ff16610336576040517f08c379a000000000000000000000000000000000000000000000000000000000815260040161032d906111a7565b60405180910390fd5b600154421061037a576040517f08c379a000000000000000000000000000000000000000000000000000000000815260040161037190611127565b60405180910390fd5b600454341161038857600080fd5b600073ffffffffffffffffffffffffffffffffffffffff16600560009054906101000a900473ffffffffffffffffffffffffffffffffffffffff1673ffffffffffffffffffffffffffffffffffffffff16146104595760045460066000600560009054906101000a900473ffffffffffffffffffffffffffffffffffffffff1673ffffffffffffffffffffffffffffffffffffffff1673ffffffffffffffffffffffffffffffffffffffff1681526020019081526020016000206000828254610451919061123e565b925050819055505b3460048190555033600560006101000a81548173ffffffffffffffffffffffffffffffffffffffff021916908373ffffffffffffffffffffffffffffffffffffffff160217905550600560009054906101000a900473ffffffffffffffffffffffffffffffffffffffff1673ffffffffffffffffffffffffffffffffffffffff167fe684a55f31b79eca403df938249029212a5925ec6be8012e099b45bc1019e5d260045460405161050b9190611207565b60405180910390a2565b600060149054906101000a900460ff1681565b6000600660003373ffffffffffffffffffffffffffffffffffffffff1673ffffffffffffffffffffffffffffffffffffffff1681526020019081526020016000205490506000600660003373ffffffffffffffffffffffffffffffffffffffff1673ffffffffffffffffffffffffffffffffffffffff168152602001908152602001600020819055506000803373ffffffffffffffffffffffffffffffffffffffff16836040516105d890610fdd565b60006040518083038185875af1925050503d8060008114610615576040519150601f19603f3d011682016040523d82523d6000602084013e61061a565b606091505b50915091508161065f576040517f08c379a0000000000000000000000000000000000000000000000000000000008152600401610656906111e7565b60405180910390fd5b3373ffffffffffffffffffffffffffffffffffffffff167f884edad9ce6fa2440d8a54cc123490eb96d2768479d49ff9c7366125a9424364846040516106a59190611207565b60405180910390a2505050565b600260009054906101000a900473ffffffffffffffffffffffffffffffffffffffff1681565b60066020528060005260406000206000915090505481565b60015481565b600560009054906101000a900473ffffffffffffffffffffffffffffffffffffffff1681565b600060149054906101000a900460ff161561076c576040517f08c379a000000000000000000000000000000000000000000000000000000000815260040161076390611107565b60405180910390fd5b60008054906101000a900473ffffffffffffffffffffffffffffffffffffffff1673ffffffffffffffffffffffffffffffffffffffff163373ffffffffffffffffffffffffffffffffffffffff16146107fa576040517f08c379a00000000000000000000000000000000000000000000000000000000081526004016107f190611147565b60405180910390fd5b8160048190555083600260006101000a81548173ffffffffffffffffffffffffffffffffffffffff021916908373ffffffffffffffffffffffffffffffffffffffff16021790555082600381905550600260009054906101000a900473ffffffffffffffffffffffffffffffffffffffff1673ffffffffffffffffffffffffffffffffffffffff166323b872dd33306003546040518463ffffffff1660e01b81526004016108aa93929190611051565b600060405180830381600087803b1580156108c457600080fd5b505af11580156108d8573d6000803e3d6000fd5b505050506001600060146101000a81548160ff02191690831515021790555062015180816109069190611294565b42610911919061123e565b6001819055507ff06a29c94c6f4edc1085072972d9441f7603e81c8535a308f214285d0653c8506001546040516109489190611207565b60405180910390a150505050565b60035481565b60045481565b600060149054906101000a900460ff166109b1576040517f08c379a00000000000000000000000000000000000000000000000000000000081526004016109a890611187565b60405180910390fd5b6001544210156109f6576040517f08c379a00000000000000000000000000000000000000000000000000000000081526004016109ed906110e7565b60405180910390fd5b600060159054906101000a900460ff1615610a46576040517f08c379a0000000000000000000000000000000000000000000000000000000008152600401610a3d906111c7565b60405180910390fd5b600073ffffffffffffffffffffffffffffffffffffffff16600560009054906101000a900473ffffffffffffffffffffffffffffffffffffffff1673ffffffffffffffffffffffffffffffffffffffff1614610c2657600260009054906101000a900473ffffffffffffffffffffffffffffffffffffffff1673ffffffffffffffffffffffffffffffffffffffff1663a9059cbb600560009054906101000a900473ffffffffffffffffffffffffffffffffffffffff166003546040518363ffffffff1660e01b8152600401610b1d929190611088565b600060405180830381600087803b158015610b3757600080fd5b505af1158015610b4b573d6000803e3d6000fd5b5050505060008060008054906101000a900473ffffffffffffffffffffffffffffffffffffffff1673ffffffffffffffffffffffffffffffffffffffff16600454604051610b9890610fdd565b60006040518083038185875af1925050503d8060008114610bd5576040519150601f19603f3d011682016040523d82523d6000602084013e610bda565b606091505b509150915081610c1f576040517f08c379a0000000000000000000000000000000000000000000000000000000008152600401610c1690611167565b60405180910390fd5b5050610cd8565b600260009054906101000a900473ffffffffffffffffffffffffffffffffffffffff1673ffffffffffffffffffffffffffffffffffffffff1663a9059cbb60008054906101000a900473ffffffffffffffffffffffffffffffffffffffff166003546040518363ffffffff1660e01b8152600401610ca5929190611028565b600060405180830381600087803b158015610cbf57600080fd5b505af1158015610cd3573d6000803e3d6000fd5b505050505b6001600060156101000a81548160ff0219169083151502179055507f7d7570b046e5ead3a4f3fbc9fa2445113625a1e79823776146316bafed6b8cc5600560009054906101000a900473ffffffffffffffffffffffffffffffffffffffff16600454604051610d48929190611088565b60405180910390a1565b600081359050610d618161154a565b92915050565b600081359050610d7681611561565b92915050565b600081359050610d8b81611578565b92915050565b600060208284031215610da757610da66113d1565b5b6000610db584828501610d52565b91505092915050565b60008060008060808587031215610dd857610dd76113d1565b5b6000610de687828801610d67565b9450506020610df787828801610d7c565b9350506040610e0887828801610d7c565b9250506060610e1987828801610d7c565b91505092959194509250565b610e2e8161135a565b82525050565b610e3d81611300565b82525050565b610e4c816112ee565b82525050565b610e5b81611312565b82525050565b610e6a8161136c565b82525050565b6000610e7d60198361122d565b9150610e88826113d6565b602082019050919050565b6000610ea060108361122d565b9150610eab826113ff565b602082019050919050565b6000610ec360068361122d565b9150610ece82611428565b602082019050919050565b6000610ee6601e8361122d565b9150610ef182611451565b602082019050919050565b6000610f0960158361122d565b9150610f148261147a565b602082019050919050565b6000610f2c60188361122d565b9150610f37826114a3565b602082019050919050565b6000610f4f600c8361122d565b9150610f5a826114cc565b602082019050919050565b6000610f72600083611222565b9150610f7d826114f5565b600082019050919050565b6000610f9560168361122d565b9150610fa0826114f8565b602082019050919050565b6000610fb860128361122d565b9150610fc382611521565b602082019050919050565b610fd781611350565b82525050565b6000610fe882610f65565b9150819050919050565b60006020820190506110076000830184610e43565b92915050565b60006020820190506110226000830184610e34565b92915050565b600060408201905061103d6000830185610e25565b61104a6020830184610fce565b9392505050565b60006060820190506110666000830186610e43565b6110736020830185610e43565b6110806040830184610fce565b949350505050565b600060408201905061109d6000830185610e43565b6110aa6020830184610fce565b9392505050565b60006020820190506110c66000830184610e52565b92915050565b60006020820190506110e16000830184610e61565b92915050565b6000602082019050818103600083015261110081610e70565b9050919050565b6000602082019050818103600083015261112081610e93565b9050919050565b6000602082019050818103600083015261114081610eb6565b9050919050565b6000602082019050818103600083015261116081610ed9565b9050919050565b6000602082019050818103600083015261118081610efc565b9050919050565b600060208201905081810360008301526111a081610f1f565b9050919050565b600060208201905081810360008301526111c081610f42565b9050919050565b600060208201905081810360008301526111e081610f88565b9050919050565b6000602082019050818103600083015261120081610fab565b9050919050565b600060208201905061121c6000830184610fce565b92915050565b600081905092915050565b600082825260208201905092915050565b600061124982611350565b915061125483611350565b9250827fffffffffffffffffffffffffffffffffffffffffffffffffffffffffffffffff03821115611289576112886113a2565b5b828201905092915050565b600061129f82611350565b91506112aa83611350565b9250817fffffffffffffffffffffffffffffffffffffffffffffffffffffffffffffffff04831182151516156112e3576112e26113a2565b5b828202905092915050565b60006112f982611330565b9050919050565b600061130b82611330565b9050919050565b60008115159050919050565b6000611329826112ee565b9050919050565b600073ffffffffffffffffffffffffffffffffffffffff82169050919050565b6000819050919050565b60006113658261137e565b9050919050565b60006113778261137e565b9050919050565b600061138982611390565b9050919050565b600061139b82611330565b9050919050565b7f4e487b7100000000000000000000000000000000000000000000000000000000600052601160045260246000fd5b600080fd5b7f41756374696f6e206973207374696c6c206f6e676f696e672100000000000000600082015250565b7f416c726561647920737461727465642100000000000000000000000000000000600082015250565b7f456e646564210000000000000000000000000000000000000000000000000000600082015250565b7f596f7520646964206e6f74207374617274207468652061756374696f6e210000600082015250565b7f436f756c64206e6f74207061792073656c6c6572210000000000000000000000600082015250565b7f596f75206e65656420746f207374617274206669727374210000000000000000600082015250565b7f4e6f7420737461727465642e0000000000000000000000000000000000000000600082015250565b50565b7f41756374696f6e20616c726561647920656e6465642100000000000000000000600082015250565b7f436f756c64206e6f742077697468647261770000000000000000000000000000600082015250565b611553816112ee565b811461155e57600080fd5b50565b61156a8161131e565b811461157557600080fd5b50565b61158181611350565b811461158c57600080fd5b5056fea26469706673582212201525fb7a4cef21faf7e79371b78da92651f929edca0cfa7845d3a39d2685649d64736f6c63430008070033",
					"opcodes": "PUSH1 0x80 PUSH1 0x40 MSTORE CALLVALUE DUP1 ISZERO PUSH2 0x10 JUMPI PUSH1 0x0 DUP1 REVERT JUMPDEST POP CALLER PUSH1 0x0 DUP1 PUSH2 0x100 EXP DUP2 SLOAD DUP2 PUSH20 0xFFFFFFFFFFFFFFFFFFFFFFFFFFFFFFFFFFFFFFFF MUL NOT AND SWAP1 DUP4 PUSH20 0xFFFFFFFFFFFFFFFFFFFFFFFFFFFFFFFFFFFFFFFF AND MUL OR SWAP1 SSTORE POP PUSH2 0x15C5 DUP1 PUSH2 0x60 PUSH1 0x0 CODECOPY PUSH1 0x0 RETURN INVALID PUSH1 0x80 PUSH1 0x40 MSTORE PUSH1 0x4 CALLDATASIZE LT PUSH2 0xC2 JUMPI PUSH1 0x0 CALLDATALOAD PUSH1 0xE0 SHR DUP1 PUSH4 0x62EA82DB GT PUSH2 0x7F JUMPI DUP1 PUSH4 0xB76A3B5A GT PUSH2 0x59 JUMPI DUP1 PUSH4 0xB76A3B5A EQ PUSH2 0x21A JUMPI DUP1 PUSH4 0xC6BC5182 EQ PUSH2 0x243 JUMPI DUP1 PUSH4 0xD57BDE79 EQ PUSH2 0x26E JUMPI DUP1 PUSH4 0xEFBE1C1C EQ PUSH2 0x299 JUMPI PUSH2 0xC2 JUMP JUMPDEST DUP1 PUSH4 0x62EA82DB EQ PUSH2 0x187 JUMPI DUP1 PUSH4 0x7CC3AE8C EQ PUSH2 0x1C4 JUMPI DUP1 PUSH4 0x91F90157 EQ PUSH2 0x1EF JUMPI PUSH2 0xC2 JUMP JUMPDEST DUP1 PUSH4 0x8551A53 EQ PUSH2 0xC7 JUMPI DUP1 PUSH4 0x12FA6FEB EQ PUSH2 0xF2 JUMPI DUP1 PUSH4 0x1998AEEF EQ PUSH2 0x11D JUMPI DUP1 PUSH4 0x1F2698AB EQ PUSH2 0x127 JUMPI DUP1 PUSH4 0x3CCFD60B EQ PUSH2 0x152 JUMPI DUP1 PUSH4 0x47CCCA02 EQ PUSH2 0x15C JUMPI JUMPDEST PUSH1 0x0 DUP1 REVERT JUMPDEST CALLVALUE DUP1 ISZERO PUSH2 0xD3 JUMPI PUSH1 0x0 DUP1 REVERT JUMPDEST POP PUSH2 0xDC PUSH2 0x2B0 JUMP JUMPDEST PUSH1 0x40 MLOAD PUSH2 0xE9 SWAP2 SWAP1 PUSH2 0x100D JUMP JUMPDEST PUSH1 0x40 MLOAD DUP1 SWAP2 SUB SWAP1 RETURN JUMPDEST CALLVALUE DUP1 ISZERO PUSH2 0xFE JUMPI PUSH1 0x0 DUP1 REVERT JUMPDEST POP PUSH2 0x107 PUSH2 0x2D4 JUMP JUMPDEST PUSH1 0x40 MLOAD PUSH2 0x114 SWAP2 SWAP1 PUSH2 0x10B1 JUMP JUMPDEST PUSH1 0x40 MLOAD DUP1 SWAP2 SUB SWAP1 RETURN JUMPDEST PUSH2 0x125 PUSH2 0x2E7 JUMP JUMPDEST STOP JUMPDEST CALLVALUE DUP1 ISZERO PUSH2 0x133 JUMPI PUSH1 0x0 DUP1 REVERT JUMPDEST POP PUSH2 0x13C PUSH2 0x515 JUMP JUMPDEST PUSH1 0x40 MLOAD PUSH2 0x149 SWAP2 SWAP1 PUSH2 0x10B1 JUMP JUMPDEST PUSH1 0x40 MLOAD DUP1 SWAP2 SUB SWAP1 RETURN JUMPDEST PUSH2 0x15A PUSH2 0x528 JUMP JUMPDEST STOP JUMPDEST CALLVALUE DUP1 ISZERO PUSH2 0x168 JUMPI PUSH1 0x0 DUP1 REVERT JUMPDEST POP PUSH2 0x171 PUSH2 0x6B2 JUMP JUMPDEST PUSH1 0x40 MLOAD PUSH2 0x17E SWAP2 SWAP1 PUSH2 0x10CC JUMP JUMPDEST PUSH1 0x40 MLOAD DUP1 SWAP2 SUB SWAP1 RETURN JUMPDEST CALLVALUE DUP1 ISZERO PUSH2 0x193 JUMPI PUSH1 0x0 DUP1 REVERT JUMPDEST POP PUSH2 0x1AE PUSH1 0x4 DUP1 CALLDATASIZE SUB DUP2 ADD SWAP1 PUSH2 0x1A9 SWAP2 SWAP1 PUSH2 0xD91 JUMP JUMPDEST PUSH2 0x6D8 JUMP JUMPDEST PUSH1 0x40 MLOAD PUSH2 0x1BB SWAP2 SWAP1 PUSH2 0x1207 JUMP JUMPDEST PUSH1 0x40 MLOAD DUP1 SWAP2 SUB SWAP1 RETURN JUMPDEST CALLVALUE DUP1 ISZERO PUSH2 0x1D0 JUMPI PUSH1 0x0 DUP1 REVERT JUMPDEST POP PUSH2 0x1D9 PUSH2 0x6F0 JUMP JUMPDEST PUSH1 0x40 MLOAD PUSH2 0x1E6 SWAP2 SWAP1 PUSH2 0x1207 JUMP JUMPDEST PUSH1 0x40 MLOAD DUP1 SWAP2 SUB SWAP1 RETURN JUMPDEST CALLVALUE DUP1 ISZERO PUSH2 0x1FB JUMPI PUSH1 0x0 DUP1 REVERT JUMPDEST POP PUSH2 0x204 PUSH2 0x6F6 JUMP JUMPDEST PUSH1 0x40 MLOAD PUSH2 0x211 SWAP2 SWAP1 PUSH2 0xFF2 JUMP JUMPDEST PUSH1 0x40 MLOAD DUP1 SWAP2 SUB SWAP1 RETURN JUMPDEST CALLVALUE DUP1 ISZERO PUSH2 0x226 JUMPI PUSH1 0x0 DUP1 REVERT JUMPDEST POP PUSH2 0x241 PUSH1 0x4 DUP1 CALLDATASIZE SUB DUP2 ADD SWAP1 PUSH2 0x23C SWAP2 SWAP1 PUSH2 0xDBE JUMP JUMPDEST PUSH2 0x71C JUMP JUMPDEST STOP JUMPDEST CALLVALUE DUP1 ISZERO PUSH2 0x24F JUMPI PUSH1 0x0 DUP1 REVERT JUMPDEST POP PUSH2 0x258 PUSH2 0x956 JUMP JUMPDEST PUSH1 0x40 MLOAD PUSH2 0x265 SWAP2 SWAP1 PUSH2 0x1207 JUMP JUMPDEST PUSH1 0x40 MLOAD DUP1 SWAP2 SUB SWAP1 RETURN JUMPDEST CALLVALUE DUP1 ISZERO PUSH2 0x27A JUMPI PUSH1 0x0 DUP1 REVERT JUMPDEST POP PUSH2 0x283 PUSH2 0x95C JUMP JUMPDEST PUSH1 0x40 MLOAD PUSH2 0x290 SWAP2 SWAP1 PUSH2 0x1207 JUMP JUMPDEST PUSH1 0x40 MLOAD DUP1 SWAP2 SUB SWAP1 RETURN JUMPDEST CALLVALUE DUP1 ISZERO PUSH2 0x2A5 JUMPI PUSH1 0x0 DUP1 REVERT JUMPDEST POP PUSH2 0x2AE PUSH2 0x962 JUMP JUMPDEST STOP JUMPDEST PUSH1 0x0 DUP1 SLOAD SWAP1 PUSH2 0x100 EXP SWAP1 DIV PUSH20 0xFFFFFFFFFFFFFFFFFFFFFFFFFFFFFFFFFFFFFFFF AND DUP2 JUMP JUMPDEST PUSH1 0x0 PUSH1 0x15 SWAP1 SLOAD SWAP1 PUSH2 0x100 EXP SWAP1 DIV PUSH1 0xFF AND DUP2 JUMP JUMPDEST PUSH1 0x0 PUSH1 0x14 SWAP1 SLOAD SWAP1 PUSH2 0x100 EXP SWAP1 DIV PUSH1 0xFF AND PUSH2 0x336 JUMPI PUSH1 0x40 MLOAD PUSH32 0x8C379A000000000000000000000000000000000000000000000000000000000 DUP2 MSTORE PUSH1 0x4 ADD PUSH2 0x32D SWAP1 PUSH2 0x11A7 JUMP JUMPDEST PUSH1 0x40 MLOAD DUP1 SWAP2 SUB SWAP1 REVERT JUMPDEST PUSH1 0x1 SLOAD TIMESTAMP LT PUSH2 0x37A JUMPI PUSH1 0x40 MLOAD PUSH32 0x8C379A000000000000000000000000000000000000000000000000000000000 DUP2 MSTORE PUSH1 0x4 ADD PUSH2 0x371 SWAP1 PUSH2 0x1127 JUMP JUMPDEST PUSH1 0x40 MLOAD DUP1 SWAP2 SUB SWAP1 REVERT JUMPDEST PUSH1 0x4 SLOAD CALLVALUE GT PUSH2 0x388 JUMPI PUSH1 0x0 DUP1 REVERT JUMPDEST PUSH1 0x0 PUSH20 0xFFFFFFFFFFFFFFFFFFFFFFFFFFFFFFFFFFFFFFFF AND PUSH1 0x5 PUSH1 0x0 SWAP1 SLOAD SWAP1 PUSH2 0x100 EXP SWAP1 DIV PUSH20 0xFFFFFFFFFFFFFFFFFFFFFFFFFFFFFFFFFFFFFFFF AND PUSH20 0xFFFFFFFFFFFFFFFFFFFFFFFFFFFFFFFFFFFFFFFF AND EQ PUSH2 0x459 JUMPI PUSH1 0x4 SLOAD PUSH1 0x6 PUSH1 0x0 PUSH1 0x5 PUSH1 0x0 SWAP1 SLOAD SWAP1 PUSH2 0x100 EXP SWAP1 DIV PUSH20 0xFFFFFFFFFFFFFFFFFFFFFFFFFFFFFFFFFFFFFFFF AND PUSH20 0xFFFFFFFFFFFFFFFFFFFFFFFFFFFFFFFFFFFFFFFF AND PUSH20 0xFFFFFFFFFFFFFFFFFFFFFFFFFFFFFFFFFFFFFFFF AND DUP2 MSTORE PUSH1 0x20 ADD SWAP1 DUP2 MSTORE PUSH1 0x20 ADD PUSH1 0x0 KECCAK256 PUSH1 0x0 DUP3 DUP3 SLOAD PUSH2 0x451 SWAP2 SWAP1 PUSH2 0x123E JUMP JUMPDEST SWAP3 POP POP DUP2 SWAP1 SSTORE POP JUMPDEST CALLVALUE PUSH1 0x4 DUP2 SWAP1 SSTORE POP CALLER PUSH1 0x5 PUSH1 0x0 PUSH2 0x100 EXP DUP2 SLOAD DUP2 PUSH20 0xFFFFFFFFFFFFFFFFFFFFFFFFFFFFFFFFFFFFFFFF MUL NOT AND SWAP1 DUP4 PUSH20 0xFFFFFFFFFFFFFFFFFFFFFFFFFFFFFFFFFFFFFFFF AND MUL OR SWAP1 SSTORE POP PUSH1 0x5 PUSH1 0x0 SWAP1 SLOAD SWAP1 PUSH2 0x100 EXP SWAP1 DIV PUSH20 0xFFFFFFFFFFFFFFFFFFFFFFFFFFFFFFFFFFFFFFFF AND PUSH20 0xFFFFFFFFFFFFFFFFFFFFFFFFFFFFFFFFFFFFFFFF AND PUSH32 0xE684A55F31B79ECA403DF938249029212A5925EC6BE8012E099B45BC1019E5D2 PUSH1 0x4 SLOAD PUSH1 0x40 MLOAD PUSH2 0x50B SWAP2 SWAP1 PUSH2 0x1207 JUMP JUMPDEST PUSH1 0x40 MLOAD DUP1 SWAP2 SUB SWAP1 LOG2 JUMP JUMPDEST PUSH1 0x0 PUSH1 0x14 SWAP1 SLOAD SWAP1 PUSH2 0x100 EXP SWAP1 DIV PUSH1 0xFF AND DUP2 JUMP JUMPDEST PUSH1 0x0 PUSH1 0x6 PUSH1 0x0 CALLER PUSH20 0xFFFFFFFFFFFFFFFFFFFFFFFFFFFFFFFFFFFFFFFF AND PUSH20 0xFFFFFFFFFFFFFFFFFFFFFFFFFFFFFFFFFFFFFFFF AND DUP2 MSTORE PUSH1 0x20 ADD SWAP1 DUP2 MSTORE PUSH1 0x20 ADD PUSH1 0x0 KECCAK256 SLOAD SWAP1 POP PUSH1 0x0 PUSH1 0x6 PUSH1 0x0 CALLER PUSH20 0xFFFFFFFFFFFFFFFFFFFFFFFFFFFFFFFFFFFFFFFF AND PUSH20 0xFFFFFFFFFFFFFFFFFFFFFFFFFFFFFFFFFFFFFFFF AND DUP2 MSTORE PUSH1 0x20 ADD SWAP1 DUP2 MSTORE PUSH1 0x20 ADD PUSH1 0x0 KECCAK256 DUP2 SWAP1 SSTORE POP PUSH1 0x0 DUP1 CALLER PUSH20 0xFFFFFFFFFFFFFFFFFFFFFFFFFFFFFFFFFFFFFFFF AND DUP4 PUSH1 0x40 MLOAD PUSH2 0x5D8 SWAP1 PUSH2 0xFDD JUMP JUMPDEST PUSH1 0x0 PUSH1 0x40 MLOAD DUP1 DUP4 SUB DUP2 DUP6 DUP8 GAS CALL SWAP3 POP POP POP RETURNDATASIZE DUP1 PUSH1 0x0 DUP2 EQ PUSH2 0x615 JUMPI PUSH1 0x40 MLOAD SWAP2 POP PUSH1 0x1F NOT PUSH1 0x3F RETURNDATASIZE ADD AND DUP3 ADD PUSH1 0x40 MSTORE RETURNDATASIZE DUP3 MSTORE RETURNDATASIZE PUSH1 0x0 PUSH1 0x20 DUP5 ADD RETURNDATACOPY PUSH2 0x61A JUMP JUMPDEST PUSH1 0x60 SWAP2 POP JUMPDEST POP SWAP2 POP SWAP2 POP DUP2 PUSH2 0x65F JUMPI PUSH1 0x40 MLOAD PUSH32 0x8C379A000000000000000000000000000000000000000000000000000000000 DUP2 MSTORE PUSH1 0x4 ADD PUSH2 0x656 SWAP1 PUSH2 0x11E7 JUMP JUMPDEST PUSH1 0x40 MLOAD DUP1 SWAP2 SUB SWAP1 REVERT JUMPDEST CALLER PUSH20 0xFFFFFFFFFFFFFFFFFFFFFFFFFFFFFFFFFFFFFFFF AND PUSH32 0x884EDAD9CE6FA2440D8A54CC123490EB96D2768479D49FF9C7366125A9424364 DUP5 PUSH1 0x40 MLOAD PUSH2 0x6A5 SWAP2 SWAP1 PUSH2 0x1207 JUMP JUMPDEST PUSH1 0x40 MLOAD DUP1 SWAP2 SUB SWAP1 LOG2 POP POP POP JUMP JUMPDEST PUSH1 0x2 PUSH1 0x0 SWAP1 SLOAD SWAP1 PUSH2 0x100 EXP SWAP1 DIV PUSH20 0xFFFFFFFFFFFFFFFFFFFFFFFFFFFFFFFFFFFFFFFF AND DUP2 JUMP JUMPDEST PUSH1 0x6 PUSH1 0x20 MSTORE DUP1 PUSH1 0x0 MSTORE PUSH1 0x40 PUSH1 0x0 KECCAK256 PUSH1 0x0 SWAP2 POP SWAP1 POP SLOAD DUP2 JUMP JUMPDEST PUSH1 0x1 SLOAD DUP2 JUMP JUMPDEST PUSH1 0x5 PUSH1 0x0 SWAP1 SLOAD SWAP1 PUSH2 0x100 EXP SWAP1 DIV PUSH20 0xFFFFFFFFFFFFFFFFFFFFFFFFFFFFFFFFFFFFFFFF AND DUP2 JUMP JUMPDEST PUSH1 0x0 PUSH1 0x14 SWAP1 SLOAD SWAP1 PUSH2 0x100 EXP SWAP1 DIV PUSH1 0xFF AND ISZERO PUSH2 0x76C JUMPI PUSH1 0x40 MLOAD PUSH32 0x8C379A000000000000000000000000000000000000000000000000000000000 DUP2 MSTORE PUSH1 0x4 ADD PUSH2 0x763 SWAP1 PUSH2 0x1107 JUMP JUMPDEST PUSH1 0x40 MLOAD DUP1 SWAP2 SUB SWAP1 REVERT JUMPDEST PUSH1 0x0 DUP1 SLOAD SWAP1 PUSH2 0x100 EXP SWAP1 DIV PUSH20 0xFFFFFFFFFFFFFFFFFFFFFFFFFFFFFFFFFFFFFFFF AND PUSH20 0xFFFFFFFFFFFFFFFFFFFFFFFFFFFFFFFFFFFFFFFF AND CALLER PUSH20 0xFFFFFFFFFFFFFFFFFFFFFFFFFFFFFFFFFFFFFFFF AND EQ PUSH2 0x7FA JUMPI PUSH1 0x40 MLOAD PUSH32 0x8C379A000000000000000000000000000000000000000000000000000000000 DUP2 MSTORE PUSH1 0x4 ADD PUSH2 0x7F1 SWAP1 PUSH2 0x1147 JUMP JUMPDEST PUSH1 0x40 MLOAD DUP1 SWAP2 SUB SWAP1 REVERT JUMPDEST DUP2 PUSH1 0x4 DUP2 SWAP1 SSTORE POP DUP4 PUSH1 0x2 PUSH1 0x0 PUSH2 0x100 EXP DUP2 SLOAD DUP2 PUSH20 0xFFFFFFFFFFFFFFFFFFFFFFFFFFFFFFFFFFFFFFFF MUL NOT AND SWAP1 DUP4 PUSH20 0xFFFFFFFFFFFFFFFFFFFFFFFFFFFFFFFFFFFFFFFF AND MUL OR SWAP1 SSTORE POP DUP3 PUSH1 0x3 DUP2 SWAP1 SSTORE POP PUSH1 0x2 PUSH1 0x0 SWAP1 SLOAD SWAP1 PUSH2 0x100 EXP SWAP1 DIV PUSH20 0xFFFFFFFFFFFFFFFFFFFFFFFFFFFFFFFFFFFFFFFF AND PUSH20 0xFFFFFFFFFFFFFFFFFFFFFFFFFFFFFFFFFFFFFFFF AND PUSH4 0x23B872DD CALLER ADDRESS PUSH1 0x3 SLOAD PUSH1 0x40 MLOAD DUP5 PUSH4 0xFFFFFFFF AND PUSH1 0xE0 SHL DUP2 MSTORE PUSH1 0x4 ADD PUSH2 0x8AA SWAP4 SWAP3 SWAP2 SWAP1 PUSH2 0x1051 JUMP JUMPDEST PUSH1 0x0 PUSH1 0x40 MLOAD DUP1 DUP4 SUB DUP2 PUSH1 0x0 DUP8 DUP1 EXTCODESIZE ISZERO DUP1 ISZERO PUSH2 0x8C4 JUMPI PUSH1 0x0 DUP1 REVERT JUMPDEST POP GAS CALL ISZERO DUP1 ISZERO PUSH2 0x8D8 JUMPI RETURNDATASIZE PUSH1 0x0 DUP1 RETURNDATACOPY RETURNDATASIZE PUSH1 0x0 REVERT JUMPDEST POP POP POP POP PUSH1 0x1 PUSH1 0x0 PUSH1 0x14 PUSH2 0x100 EXP DUP2 SLOAD DUP2 PUSH1 0xFF MUL NOT AND SWAP1 DUP4 ISZERO ISZERO MUL OR SWAP1 SSTORE POP PUSH3 0x15180 DUP2 PUSH2 0x906 SWAP2 SWAP1 PUSH2 0x1294 JUMP JUMPDEST TIMESTAMP PUSH2 0x911 SWAP2 SWAP1 PUSH2 0x123E JUMP JUMPDEST PUSH1 0x1 DUP2 SWAP1 SSTORE POP PUSH32 0xF06A29C94C6F4EDC1085072972D9441F7603E81C8535A308F214285D0653C850 PUSH1 0x1 SLOAD PUSH1 0x40 MLOAD PUSH2 0x948 SWAP2 SWAP1 PUSH2 0x1207 JUMP JUMPDEST PUSH1 0x40 MLOAD DUP1 SWAP2 SUB SWAP1 LOG1 POP POP POP POP JUMP JUMPDEST PUSH1 0x3 SLOAD DUP2 JUMP JUMPDEST PUSH1 0x4 SLOAD DUP2 JUMP JUMPDEST PUSH1 0x0 PUSH1 0x14 SWAP1 SLOAD SWAP1 PUSH2 0x100 EXP SWAP1 DIV PUSH1 0xFF AND PUSH2 0x9B1 JUMPI PUSH1 0x40 MLOAD PUSH32 0x8C379A000000000000000000000000000000000000000000000000000000000 DUP2 MSTORE PUSH1 0x4 ADD PUSH2 0x9A8 SWAP1 PUSH2 0x1187 JUMP JUMPDEST PUSH1 0x40 MLOAD DUP1 SWAP2 SUB SWAP1 REVERT JUMPDEST PUSH1 0x1 SLOAD TIMESTAMP LT ISZERO PUSH2 0x9F6 JUMPI PUSH1 0x40 MLOAD PUSH32 0x8C379A000000000000000000000000000000000000000000000000000000000 DUP2 MSTORE PUSH1 0x4 ADD PUSH2 0x9ED SWAP1 PUSH2 0x10E7 JUMP JUMPDEST PUSH1 0x40 MLOAD DUP1 SWAP2 SUB SWAP1 REVERT JUMPDEST PUSH1 0x0 PUSH1 0x15 SWAP1 SLOAD SWAP1 PUSH2 0x100 EXP SWAP1 DIV PUSH1 0xFF AND ISZERO PUSH2 0xA46 JUMPI PUSH1 0x40 MLOAD PUSH32 0x8C379A000000000000000000000000000000000000000000000000000000000 DUP2 MSTORE PUSH1 0x4 ADD PUSH2 0xA3D SWAP1 PUSH2 0x11C7 JUMP JUMPDEST PUSH1 0x40 MLOAD DUP1 SWAP2 SUB SWAP1 REVERT JUMPDEST PUSH1 0x0 PUSH20 0xFFFFFFFFFFFFFFFFFFFFFFFFFFFFFFFFFFFFFFFF AND PUSH1 0x5 PUSH1 0x0 SWAP1 SLOAD SWAP1 PUSH2 0x100 EXP SWAP1 DIV PUSH20 0xFFFFFFFFFFFFFFFFFFFFFFFFFFFFFFFFFFFFFFFF AND PUSH20 0xFFFFFFFFFFFFFFFFFFFFFFFFFFFFFFFFFFFFFFFF AND EQ PUSH2 0xC26 JUMPI PUSH1 0x2 PUSH1 0x0 SWAP1 SLOAD SWAP1 PUSH2 0x100 EXP SWAP1 DIV PUSH20 0xFFFFFFFFFFFFFFFFFFFFFFFFFFFFFFFFFFFFFFFF AND PUSH20 0xFFFFFFFFFFFFFFFFFFFFFFFFFFFFFFFFFFFFFFFF AND PUSH4 0xA9059CBB PUSH1 0x5 PUSH1 0x0 SWAP1 SLOAD SWAP1 PUSH2 0x100 EXP SWAP1 DIV PUSH20 0xFFFFFFFFFFFFFFFFFFFFFFFFFFFFFFFFFFFFFFFF AND PUSH1 0x3 SLOAD PUSH1 0x40 MLOAD DUP4 PUSH4 0xFFFFFFFF AND PUSH1 0xE0 SHL DUP2 MSTORE PUSH1 0x4 ADD PUSH2 0xB1D SWAP3 SWAP2 SWAP1 PUSH2 0x1088 JUMP JUMPDEST PUSH1 0x0 PUSH1 0x40 MLOAD DUP1 DUP4 SUB DUP2 PUSH1 0x0 DUP8 DUP1 EXTCODESIZE ISZERO DUP1 ISZERO PUSH2 0xB37 JUMPI PUSH1 0x0 DUP1 REVERT JUMPDEST POP GAS CALL ISZERO DUP1 ISZERO PUSH2 0xB4B JUMPI RETURNDATASIZE PUSH1 0x0 DUP1 RETURNDATACOPY RETURNDATASIZE PUSH1 0x0 REVERT JUMPDEST POP POP POP POP PUSH1 0x0 DUP1 PUSH1 0x0 DUP1 SLOAD SWAP1 PUSH2 0x100 EXP SWAP1 DIV PUSH20 0xFFFFFFFFFFFFFFFFFFFFFFFFFFFFFFFFFFFFFFFF AND PUSH20 0xFFFFFFFFFFFFFFFFFFFFFFFFFFFFFFFFFFFFFFFF AND PUSH1 0x4 SLOAD PUSH1 0x40 MLOAD PUSH2 0xB98 SWAP1 PUSH2 0xFDD JUMP JUMPDEST PUSH1 0x0 PUSH1 0x40 MLOAD DUP1 DUP4 SUB DUP2 DUP6 DUP8 GAS CALL SWAP3 POP POP POP RETURNDATASIZE DUP1 PUSH1 0x0 DUP2 EQ PUSH2 0xBD5 JUMPI PUSH1 0x40 MLOAD SWAP2 POP PUSH1 0x1F NOT PUSH1 0x3F RETURNDATASIZE ADD AND DUP3 ADD PUSH1 0x40 MSTORE RETURNDATASIZE DUP3 MSTORE RETURNDATASIZE PUSH1 0x0 PUSH1 0x20 DUP5 ADD RETURNDATACOPY PUSH2 0xBDA JUMP JUMPDEST PUSH1 0x60 SWAP2 POP JUMPDEST POP SWAP2 POP SWAP2 POP DUP2 PUSH2 0xC1F JUMPI PUSH1 0x40 MLOAD PUSH32 0x8C379A000000000000000000000000000000000000000000000000000000000 DUP2 MSTORE PUSH1 0x4 ADD PUSH2 0xC16 SWAP1 PUSH2 0x1167 JUMP JUMPDEST PUSH1 0x40 MLOAD DUP1 SWAP2 SUB SWAP1 REVERT JUMPDEST POP POP PUSH2 0xCD8 JUMP JUMPDEST PUSH1 0x2 PUSH1 0x0 SWAP1 SLOAD SWAP1 PUSH2 0x100 EXP SWAP1 DIV PUSH20 0xFFFFFFFFFFFFFFFFFFFFFFFFFFFFFFFFFFFFFFFF AND PUSH20 0xFFFFFFFFFFFFFFFFFFFFFFFFFFFFFFFFFFFFFFFF AND PUSH4 0xA9059CBB PUSH1 0x0 DUP1 SLOAD SWAP1 PUSH2 0x100 EXP SWAP1 DIV PUSH20 0xFFFFFFFFFFFFFFFFFFFFFFFFFFFFFFFFFFFFFFFF AND PUSH1 0x3 SLOAD PUSH1 0x40 MLOAD DUP4 PUSH4 0xFFFFFFFF AND PUSH1 0xE0 SHL DUP2 MSTORE PUSH1 0x4 ADD PUSH2 0xCA5 SWAP3 SWAP2 SWAP1 PUSH2 0x1028 JUMP JUMPDEST PUSH1 0x0 PUSH1 0x40 MLOAD DUP1 DUP4 SUB DUP2 PUSH1 0x0 DUP8 DUP1 EXTCODESIZE ISZERO DUP1 ISZERO PUSH2 0xCBF JUMPI PUSH1 0x0 DUP1 REVERT JUMPDEST POP GAS CALL ISZERO DUP1 ISZERO PUSH2 0xCD3 JUMPI RETURNDATASIZE PUSH1 0x0 DUP1 RETURNDATACOPY RETURNDATASIZE PUSH1 0x0 REVERT JUMPDEST POP POP POP POP JUMPDEST PUSH1 0x1 PUSH1 0x0 PUSH1 0x15 PUSH2 0x100 EXP DUP2 SLOAD DUP2 PUSH1 0xFF MUL NOT AND SWAP1 DUP4 ISZERO ISZERO MUL OR SWAP1 SSTORE POP PUSH32 0x7D7570B046E5EAD3A4F3FBC9FA2445113625A1E79823776146316BAFED6B8CC5 PUSH1 0x5 PUSH1 0x0 SWAP1 SLOAD SWAP1 PUSH2 0x100 EXP SWAP1 DIV PUSH20 0xFFFFFFFFFFFFFFFFFFFFFFFFFFFFFFFFFFFFFFFF AND PUSH1 0x4 SLOAD PUSH1 0x40 MLOAD PUSH2 0xD48 SWAP3 SWAP2 SWAP1 PUSH2 0x1088 JUMP JUMPDEST PUSH1 0x40 MLOAD DUP1 SWAP2 SUB SWAP1 LOG1 JUMP JUMPDEST PUSH1 0x0 DUP2 CALLDATALOAD SWAP1 POP PUSH2 0xD61 DUP2 PUSH2 0x154A JUMP JUMPDEST SWAP3 SWAP2 POP POP JUMP JUMPDEST PUSH1 0x0 DUP2 CALLDATALOAD SWAP1 POP PUSH2 0xD76 DUP2 PUSH2 0x1561 JUMP JUMPDEST SWAP3 SWAP2 POP POP JUMP JUMPDEST PUSH1 0x0 DUP2 CALLDATALOAD SWAP1 POP PUSH2 0xD8B DUP2 PUSH2 0x1578 JUMP JUMPDEST SWAP3 SWAP2 POP POP JUMP JUMPDEST PUSH1 0x0 PUSH1 0x20 DUP3 DUP5 SUB SLT ISZERO PUSH2 0xDA7 JUMPI PUSH2 0xDA6 PUSH2 0x13D1 JUMP JUMPDEST JUMPDEST PUSH1 0x0 PUSH2 0xDB5 DUP5 DUP3 DUP6 ADD PUSH2 0xD52 JUMP JUMPDEST SWAP2 POP POP SWAP3 SWAP2 POP POP JUMP JUMPDEST PUSH1 0x0 DUP1 PUSH1 0x0 DUP1 PUSH1 0x80 DUP6 DUP8 SUB SLT ISZERO PUSH2 0xDD8 JUMPI PUSH2 0xDD7 PUSH2 0x13D1 JUMP JUMPDEST JUMPDEST PUSH1 0x0 PUSH2 0xDE6 DUP8 DUP3 DUP9 ADD PUSH2 0xD67 JUMP JUMPDEST SWAP5 POP POP PUSH1 0x20 PUSH2 0xDF7 DUP8 DUP3 DUP9 ADD PUSH2 0xD7C JUMP JUMPDEST SWAP4 POP POP PUSH1 0x40 PUSH2 0xE08 DUP8 DUP3 DUP9 ADD PUSH2 0xD7C JUMP JUMPDEST SWAP3 POP POP PUSH1 0x60 PUSH2 0xE19 DUP8 DUP3 DUP9 ADD PUSH2 0xD7C JUMP JUMPDEST SWAP2 POP POP SWAP3 SWAP6 SWAP2 SWAP5 POP SWAP3 POP JUMP JUMPDEST PUSH2 0xE2E DUP2 PUSH2 0x135A JUMP JUMPDEST DUP3 MSTORE POP POP JUMP JUMPDEST PUSH2 0xE3D DUP2 PUSH2 0x1300 JUMP JUMPDEST DUP3 MSTORE POP POP JUMP JUMPDEST PUSH2 0xE4C DUP2 PUSH2 0x12EE JUMP JUMPDEST DUP3 MSTORE POP POP JUMP JUMPDEST PUSH2 0xE5B DUP2 PUSH2 0x1312 JUMP JUMPDEST DUP3 MSTORE POP POP JUMP JUMPDEST PUSH2 0xE6A DUP2 PUSH2 0x136C JUMP JUMPDEST DUP3 MSTORE POP POP JUMP JUMPDEST PUSH1 0x0 PUSH2 0xE7D PUSH1 0x19 DUP4 PUSH2 0x122D JUMP JUMPDEST SWAP2 POP PUSH2 0xE88 DUP3 PUSH2 0x13D6 JUMP JUMPDEST PUSH1 0x20 DUP3 ADD SWAP1 POP SWAP2 SWAP1 POP JUMP JUMPDEST PUSH1 0x0 PUSH2 0xEA0 PUSH1 0x10 DUP4 PUSH2 0x122D JUMP JUMPDEST SWAP2 POP PUSH2 0xEAB DUP3 PUSH2 0x13FF JUMP JUMPDEST PUSH1 0x20 DUP3 ADD SWAP1 POP SWAP2 SWAP1 POP JUMP JUMPDEST PUSH1 0x0 PUSH2 0xEC3 PUSH1 0x6 DUP4 PUSH2 0x122D JUMP JUMPDEST SWAP2 POP PUSH2 0xECE DUP3 PUSH2 0x1428 JUMP JUMPDEST PUSH1 0x20 DUP3 ADD SWAP1 POP SWAP2 SWAP1 POP JUMP JUMPDEST PUSH1 0x0 PUSH2 0xEE6 PUSH1 0x1E DUP4 PUSH2 0x122D JUMP JUMPDEST SWAP2 POP PUSH2 0xEF1 DUP3 PUSH2 0x1451 JUMP JUMPDEST PUSH1 0x20 DUP3 ADD SWAP1 POP SWAP2 SWAP1 POP JUMP JUMPDEST PUSH1 0x0 PUSH2 0xF09 PUSH1 0x15 DUP4 PUSH2 0x122D JUMP JUMPDEST SWAP2 POP PUSH2 0xF14 DUP3 PUSH2 0x147A JUMP JUMPDEST PUSH1 0x20 DUP3 ADD SWAP1 POP SWAP2 SWAP1 POP JUMP JUMPDEST PUSH1 0x0 PUSH2 0xF2C PUSH1 0x18 DUP4 PUSH2 0x122D JUMP JUMPDEST SWAP2 POP PUSH2 0xF37 DUP3 PUSH2 0x14A3 JUMP JUMPDEST PUSH1 0x20 DUP3 ADD SWAP1 POP SWAP2 SWAP1 POP JUMP JUMPDEST PUSH1 0x0 PUSH2 0xF4F PUSH1 0xC DUP4 PUSH2 0x122D JUMP JUMPDEST SWAP2 POP PUSH2 0xF5A DUP3 PUSH2 0x14CC JUMP JUMPDEST PUSH1 0x20 DUP3 ADD SWAP1 POP SWAP2 SWAP1 POP JUMP JUMPDEST PUSH1 0x0 PUSH2 0xF72 PUSH1 0x0 DUP4 PUSH2 0x1222 JUMP JUMPDEST SWAP2 POP PUSH2 0xF7D DUP3 PUSH2 0x14F5 JUMP JUMPDEST PUSH1 0x0 DUP3 ADD SWAP1 POP SWAP2 SWAP1 POP JUMP JUMPDEST PUSH1 0x0 PUSH2 0xF95 PUSH1 0x16 DUP4 PUSH2 0x122D JUMP JUMPDEST SWAP2 POP PUSH2 0xFA0 DUP3 PUSH2 0x14F8 JUMP JUMPDEST PUSH1 0x20 DUP3 ADD SWAP1 POP SWAP2 SWAP1 POP JUMP JUMPDEST PUSH1 0x0 PUSH2 0xFB8 PUSH1 0x12 DUP4 PUSH2 0x122D JUMP JUMPDEST SWAP2 POP PUSH2 0xFC3 DUP3 PUSH2 0x1521 JUMP JUMPDEST PUSH1 0x20 DUP3 ADD SWAP1 POP SWAP2 SWAP1 POP JUMP JUMPDEST PUSH2 0xFD7 DUP2 PUSH2 0x1350 JUMP JUMPDEST DUP3 MSTORE POP POP JUMP JUMPDEST PUSH1 0x0 PUSH2 0xFE8 DUP3 PUSH2 0xF65 JUMP JUMPDEST SWAP2 POP DUP2 SWAP1 POP SWAP2 SWAP1 POP JUMP JUMPDEST PUSH1 0x0 PUSH1 0x20 DUP3 ADD SWAP1 POP PUSH2 0x1007 PUSH1 0x0 DUP4 ADD DUP5 PUSH2 0xE43 JUMP JUMPDEST SWAP3 SWAP2 POP POP JUMP JUMPDEST PUSH1 0x0 PUSH1 0x20 DUP3 ADD SWAP1 POP PUSH2 0x1022 PUSH1 0x0 DUP4 ADD DUP5 PUSH2 0xE34 JUMP JUMPDEST SWAP3 SWAP2 POP POP JUMP JUMPDEST PUSH1 0x0 PUSH1 0x40 DUP3 ADD SWAP1 POP PUSH2 0x103D PUSH1 0x0 DUP4 ADD DUP6 PUSH2 0xE25 JUMP JUMPDEST PUSH2 0x104A PUSH1 0x20 DUP4 ADD DUP5 PUSH2 0xFCE JUMP JUMPDEST SWAP4 SWAP3 POP POP POP JUMP JUMPDEST PUSH1 0x0 PUSH1 0x60 DUP3 ADD SWAP1 POP PUSH2 0x1066 PUSH1 0x0 DUP4 ADD DUP7 PUSH2 0xE43 JUMP JUMPDEST PUSH2 0x1073 PUSH1 0x20 DUP4 ADD DUP6 PUSH2 0xE43 JUMP JUMPDEST PUSH2 0x1080 PUSH1 0x40 DUP4 ADD DUP5 PUSH2 0xFCE JUMP JUMPDEST SWAP5 SWAP4 POP POP POP POP JUMP JUMPDEST PUSH1 0x0 PUSH1 0x40 DUP3 ADD SWAP1 POP PUSH2 0x109D PUSH1 0x0 DUP4 ADD DUP6 PUSH2 0xE43 JUMP JUMPDEST PUSH2 0x10AA PUSH1 0x20 DUP4 ADD DUP5 PUSH2 0xFCE JUMP JUMPDEST SWAP4 SWAP3 POP POP POP JUMP JUMPDEST PUSH1 0x0 PUSH1 0x20 DUP3 ADD SWAP1 POP PUSH2 0x10C6 PUSH1 0x0 DUP4 ADD DUP5 PUSH2 0xE52 JUMP JUMPDEST SWAP3 SWAP2 POP POP JUMP JUMPDEST PUSH1 0x0 PUSH1 0x20 DUP3 ADD SWAP1 POP PUSH2 0x10E1 PUSH1 0x0 DUP4 ADD DUP5 PUSH2 0xE61 JUMP JUMPDEST SWAP3 SWAP2 POP POP JUMP JUMPDEST PUSH1 0x0 PUSH1 0x20 DUP3 ADD SWAP1 POP DUP2 DUP2 SUB PUSH1 0x0 DUP4 ADD MSTORE PUSH2 0x1100 DUP2 PUSH2 0xE70 JUMP JUMPDEST SWAP1 POP SWAP2 SWAP1 POP JUMP JUMPDEST PUSH1 0x0 PUSH1 0x20 DUP3 ADD SWAP1 POP DUP2 DUP2 SUB PUSH1 0x0 DUP4 ADD MSTORE PUSH2 0x1120 DUP2 PUSH2 0xE93 JUMP JUMPDEST SWAP1 POP SWAP2 SWAP1 POP JUMP JUMPDEST PUSH1 0x0 PUSH1 0x20 DUP3 ADD SWAP1 POP DUP2 DUP2 SUB PUSH1 0x0 DUP4 ADD MSTORE PUSH2 0x1140 DUP2 PUSH2 0xEB6 JUMP JUMPDEST SWAP1 POP SWAP2 SWAP1 POP JUMP JUMPDEST PUSH1 0x0 PUSH1 0x20 DUP3 ADD SWAP1 POP DUP2 DUP2 SUB PUSH1 0x0 DUP4 ADD MSTORE PUSH2 0x1160 DUP2 PUSH2 0xED9 JUMP JUMPDEST SWAP1 POP SWAP2 SWAP1 POP JUMP JUMPDEST PUSH1 0x0 PUSH1 0x20 DUP3 ADD SWAP1 POP DUP2 DUP2 SUB PUSH1 0x0 DUP4 ADD MSTORE PUSH2 0x1180 DUP2 PUSH2 0xEFC JUMP JUMPDEST SWAP1 POP SWAP2 SWAP1 POP JUMP JUMPDEST PUSH1 0x0 PUSH1 0x20 DUP3 ADD SWAP1 POP DUP2 DUP2 SUB PUSH1 0x0 DUP4 ADD MSTORE PUSH2 0x11A0 DUP2 PUSH2 0xF1F JUMP JUMPDEST SWAP1 POP SWAP2 SWAP1 POP JUMP JUMPDEST PUSH1 0x0 PUSH1 0x20 DUP3 ADD SWAP1 POP DUP2 DUP2 SUB PUSH1 0x0 DUP4 ADD MSTORE PUSH2 0x11C0 DUP2 PUSH2 0xF42 JUMP JUMPDEST SWAP1 POP SWAP2 SWAP1 POP JUMP JUMPDEST PUSH1 0x0 PUSH1 0x20 DUP3 ADD SWAP1 POP DUP2 DUP2 SUB PUSH1 0x0 DUP4 ADD MSTORE PUSH2 0x11E0 DUP2 PUSH2 0xF88 JUMP JUMPDEST SWAP1 POP SWAP2 SWAP1 POP JUMP JUMPDEST PUSH1 0x0 PUSH1 0x20 DUP3 ADD SWAP1 POP DUP2 DUP2 SUB PUSH1 0x0 DUP4 ADD MSTORE PUSH2 0x1200 DUP2 PUSH2 0xFAB JUMP JUMPDEST SWAP1 POP SWAP2 SWAP1 POP JUMP JUMPDEST PUSH1 0x0 PUSH1 0x20 DUP3 ADD SWAP1 POP PUSH2 0x121C PUSH1 0x0 DUP4 ADD DUP5 PUSH2 0xFCE JUMP JUMPDEST SWAP3 SWAP2 POP POP JUMP JUMPDEST PUSH1 0x0 DUP2 SWAP1 POP SWAP3 SWAP2 POP POP JUMP JUMPDEST PUSH1 0x0 DUP3 DUP3 MSTORE PUSH1 0x20 DUP3 ADD SWAP1 POP SWAP3 SWAP2 POP POP JUMP JUMPDEST PUSH1 0x0 PUSH2 0x1249 DUP3 PUSH2 0x1350 JUMP JUMPDEST SWAP2 POP PUSH2 0x1254 DUP4 PUSH2 0x1350 JUMP JUMPDEST SWAP3 POP DUP3 PUSH32 0xFFFFFFFFFFFFFFFFFFFFFFFFFFFFFFFFFFFFFFFFFFFFFFFFFFFFFFFFFFFFFFFF SUB DUP3 GT ISZERO PUSH2 0x1289 JUMPI PUSH2 0x1288 PUSH2 0x13A2 JUMP JUMPDEST JUMPDEST DUP3 DUP3 ADD SWAP1 POP SWAP3 SWAP2 POP POP JUMP JUMPDEST PUSH1 0x0 PUSH2 0x129F DUP3 PUSH2 0x1350 JUMP JUMPDEST SWAP2 POP PUSH2 0x12AA DUP4 PUSH2 0x1350 JUMP JUMPDEST SWAP3 POP DUP2 PUSH32 0xFFFFFFFFFFFFFFFFFFFFFFFFFFFFFFFFFFFFFFFFFFFFFFFFFFFFFFFFFFFFFFFF DIV DUP4 GT DUP3 ISZERO ISZERO AND ISZERO PUSH2 0x12E3 JUMPI PUSH2 0x12E2 PUSH2 0x13A2 JUMP JUMPDEST JUMPDEST DUP3 DUP3 MUL SWAP1 POP SWAP3 SWAP2 POP POP JUMP JUMPDEST PUSH1 0x0 PUSH2 0x12F9 DUP3 PUSH2 0x1330 JUMP JUMPDEST SWAP1 POP SWAP2 SWAP1 POP JUMP JUMPDEST PUSH1 0x0 PUSH2 0x130B DUP3 PUSH2 0x1330 JUMP JUMPDEST SWAP1 POP SWAP2 SWAP1 POP JUMP JUMPDEST PUSH1 0x0 DUP2 ISZERO ISZERO SWAP1 POP SWAP2 SWAP1 POP JUMP JUMPDEST PUSH1 0x0 PUSH2 0x1329 DUP3 PUSH2 0x12EE JUMP JUMPDEST SWAP1 POP SWAP2 SWAP1 POP JUMP JUMPDEST PUSH1 0x0 PUSH20 0xFFFFFFFFFFFFFFFFFFFFFFFFFFFFFFFFFFFFFFFF DUP3 AND SWAP1 POP SWAP2 SWAP1 POP JUMP JUMPDEST PUSH1 0x0 DUP2 SWAP1 POP SWAP2 SWAP1 POP JUMP JUMPDEST PUSH1 0x0 PUSH2 0x1365 DUP3 PUSH2 0x137E JUMP JUMPDEST SWAP1 POP SWAP2 SWAP1 POP JUMP JUMPDEST PUSH1 0x0 PUSH2 0x1377 DUP3 PUSH2 0x137E JUMP JUMPDEST SWAP1 POP SWAP2 SWAP1 POP JUMP JUMPDEST PUSH1 0x0 PUSH2 0x1389 DUP3 PUSH2 0x1390 JUMP JUMPDEST SWAP1 POP SWAP2 SWAP1 POP JUMP JUMPDEST PUSH1 0x0 PUSH2 0x139B DUP3 PUSH2 0x1330 JUMP JUMPDEST SWAP1 POP SWAP2 SWAP1 POP JUMP JUMPDEST PUSH32 0x4E487B7100000000000000000000000000000000000000000000000000000000 PUSH1 0x0 MSTORE PUSH1 0x11 PUSH1 0x4 MSTORE PUSH1 0x24 PUSH1 0x0 REVERT JUMPDEST PUSH1 0x0 DUP1 REVERT JUMPDEST PUSH32 0x41756374696F6E206973207374696C6C206F6E676F696E672100000000000000 PUSH1 0x0 DUP3 ADD MSTORE POP JUMP JUMPDEST PUSH32 0x416C726561647920737461727465642100000000000000000000000000000000 PUSH1 0x0 DUP3 ADD MSTORE POP JUMP JUMPDEST PUSH32 0x456E646564210000000000000000000000000000000000000000000000000000 PUSH1 0x0 DUP3 ADD MSTORE POP JUMP JUMPDEST PUSH32 0x596F7520646964206E6F74207374617274207468652061756374696F6E210000 PUSH1 0x0 DUP3 ADD MSTORE POP JUMP JUMPDEST PUSH32 0x436F756C64206E6F74207061792073656C6C6572210000000000000000000000 PUSH1 0x0 DUP3 ADD MSTORE POP JUMP JUMPDEST PUSH32 0x596F75206E65656420746F207374617274206669727374210000000000000000 PUSH1 0x0 DUP3 ADD MSTORE POP JUMP JUMPDEST PUSH32 0x4E6F7420737461727465642E0000000000000000000000000000000000000000 PUSH1 0x0 DUP3 ADD MSTORE POP JUMP JUMPDEST POP JUMP JUMPDEST PUSH32 0x41756374696F6E20616C726561647920656E6465642100000000000000000000 PUSH1 0x0 DUP3 ADD MSTORE POP JUMP JUMPDEST PUSH32 0x436F756C64206E6F742077697468647261770000000000000000000000000000 PUSH1 0x0 DUP3 ADD MSTORE POP JUMP JUMPDEST PUSH2 0x1553 DUP2 PUSH2 0x12EE JUMP JUMPDEST DUP2 EQ PUSH2 0x155E JUMPI PUSH1 0x0 DUP1 REVERT JUMPDEST POP JUMP JUMPDEST PUSH2 0x156A DUP2 PUSH2 0x131E JUMP JUMPDEST DUP2 EQ PUSH2 0x1575 JUMPI PUSH1 0x0 DUP1 REVERT JUMPDEST POP JUMP JUMPDEST PUSH2 0x1581 DUP2 PUSH2 0x1350 JUMP JUMPDEST DUP2 EQ PUSH2 0x158C JUMPI PUSH1 0x0 DUP1 REVERT JUMPDEST POP JUMP INVALID LOG2 PUSH5 0x6970667358 0x22 SLT KECCAK256 ISZERO 0x25 0xFB PUSH27 0x4CEF21FAF7E79371B78DA92651F929EDCA0CFA7845D3A39D268564 SWAP14 PUSH5 0x736F6C6343 STOP ADDMOD SMOD STOP CALLER "
				},
				"gasEstimates": {
					"creation": {
						"codeDepositCost": "1114600",
						"executionCost": "25426",
						"totalCost": "1140026"
					},
					"external": {
						"bid()": "infinite",
						"bids(address)": "2837",
						"end()": "infinite",
						"endAt()": "2474",
						"ended()": "2544",
						"highestBid()": "2495",
						"highestBidder()": "2581",
						"nft()": "2711",
						"nftId()": "2473",
						"seller()": "2512",
						"start(address,uint256,uint256,uint256)": "infinite",
						"started()": "2588",
						"withdraw()": "infinite"
					}
				},
				"methodIdentifiers": {
					"bid()": "1998aeef",
					"bids(address)": "62ea82db",
					"end()": "efbe1c1c",
					"endAt()": "7cc3ae8c",
					"ended()": "12fa6feb",
					"highestBid()": "d57bde79",
					"highestBidder()": "91f90157",
					"nft()": "47ccca02",
					"nftId()": "c6bc5182",
					"seller()": "08551a53",
					"start(address,uint256,uint256,uint256)": "b76a3b5a",
					"started()": "1f2698ab",
					"withdraw()": "3ccfd60b"
				}
			},
			"storageLayout": {
				"storage": [
					{
						"astId": 42,
						"contract": "Bid.sol:Auction",
						"label": "seller",
						"offset": 0,
						"slot": "0",
						"type": "t_address_payable"
					},
					{
						"astId": 44,
						"contract": "Bid.sol:Auction",
						"label": "started",
						"offset": 20,
						"slot": "0",
						"type": "t_bool"
					},
					{
						"astId": 46,
						"contract": "Bid.sol:Auction",
						"label": "ended",
						"offset": 21,
						"slot": "0",
						"type": "t_bool"
					},
					{
						"astId": 48,
						"contract": "Bid.sol:Auction",
						"label": "endAt",
						"offset": 0,
						"slot": "1",
						"type": "t_uint256"
					},
					{
						"astId": 51,
						"contract": "Bid.sol:Auction",
						"label": "nft",
						"offset": 0,
						"slot": "2",
						"type": "t_contract(IERC721)18"
					},
					{
						"astId": 53,
						"contract": "Bid.sol:Auction",
						"label": "nftId",
						"offset": 0,
						"slot": "3",
						"type": "t_uint256"
					},
					{
						"astId": 55,
						"contract": "Bid.sol:Auction",
						"label": "highestBid",
						"offset": 0,
						"slot": "4",
						"type": "t_uint256"
					},
					{
						"astId": 57,
						"contract": "Bid.sol:Auction",
						"label": "highestBidder",
						"offset": 0,
						"slot": "5",
						"type": "t_address"
					},
					{
						"astId": 61,
						"contract": "Bid.sol:Auction",
						"label": "bids",
						"offset": 0,
						"slot": "6",
						"type": "t_mapping(t_address,t_uint256)"
					}
				],
				"types": {
					"t_address": {
						"encoding": "inplace",
						"label": "address",
						"numberOfBytes": "20"
					},
					"t_address_payable": {
						"encoding": "inplace",
						"label": "address payable",
						"numberOfBytes": "20"
					},
					"t_bool": {
						"encoding": "inplace",
						"label": "bool",
						"numberOfBytes": "1"
					},
					"t_contract(IERC721)18": {
						"encoding": "inplace",
						"label": "contract IERC721",
						"numberOfBytes": "20"
					},
					"t_mapping(t_address,t_uint256)": {
						"encoding": "mapping",
						"key": "t_address",
						"label": "mapping(address => uint256)",
						"numberOfBytes": "32",
						"value": "t_uint256"
					},
					"t_uint256": {
						"encoding": "inplace",
						"label": "uint256",
						"numberOfBytes": "32"
					}
				}
			},
			"userdoc": {
				"kind": "user",
				"methods": {},
				"version": 1
			}
		}
	}
}