{
	"Bid.sol": {
		"Auction": {
			"abi": [
				{
					"anonymous": false,
					"inputs": [
						{
							"indexed": true,
							"internalType": "address",
							"name": "sender",
							"type": "address"
						},
						{
							"indexed": false,
							"internalType": "uint256",
							"name": "amount",
							"type": "uint256"
						}
					],
					"name": "Bid",
					"type": "event"
				},
				{
					"anonymous": false,
					"inputs": [
						{
							"indexed": false,
							"internalType": "address",
							"name": "highestBidder",
							"type": "address"
						},
						{
							"indexed": false,
							"internalType": "uint256",
							"name": "highestBid",
							"type": "uint256"
						}
					],
					"name": "End",
					"type": "event"
				},
				{
					"anonymous": false,
					"inputs": [
						{
							"indexed": true,
							"internalType": "address",
							"name": "tokenAddr",
							"type": "address"
						},
						{
							"indexed": true,
							"internalType": "uint256",
							"name": "tokenId",
							"type": "uint256"
						},
						{
							"indexed": false,
							"internalType": "uint256",
							"name": "startingBid",
							"type": "uint256"
						},
						{
							"indexed": false,
							"internalType": "uint256",
							"name": "endAt",
							"type": "uint256"
						}
					],
					"name": "Start",
					"type": "event"
				},
				{
					"anonymous": false,
					"inputs": [
						{
							"indexed": true,
							"internalType": "address",
							"name": "bidder",
							"type": "address"
						},
						{
							"indexed": false,
							"internalType": "uint256",
							"name": "amount",
							"type": "uint256"
						}
					],
					"name": "Withdraw",
					"type": "event"
				},
				{
					"inputs": [
						{
							"internalType": "address",
							"name": "tokenAddr_",
							"type": "address"
						},
						{
							"internalType": "uint256",
							"name": "tokenId_",
							"type": "uint256"
						},
						{
							"internalType": "address",
							"name": "to",
							"type": "address"
						}
					],
					"name": "autoWithdraw",
					"outputs": [],
					"stateMutability": "payable",
					"type": "function"
				},
				{
					"inputs": [],
					"name": "balances",
					"outputs": [
						{
							"internalType": "uint256",
							"name": "",
							"type": "uint256"
						}
					],
					"stateMutability": "view",
					"type": "function"
				},
				{
					"inputs": [
						{
							"internalType": "address",
							"name": "_tokenAddr",
							"type": "address"
						},
						{
							"internalType": "uint256",
							"name": "_tokenId",
							"type": "uint256"
						}
					],
					"name": "bid",
					"outputs": [],
					"stateMutability": "payable",
					"type": "function"
				},
				{
					"inputs": [
						{
							"internalType": "address",
							"name": "",
							"type": "address"
						},
						{
							"internalType": "uint256",
							"name": "",
							"type": "uint256"
						}
					],
					"name": "biddings",
					"outputs": [
						{
							"internalType": "address",
							"name": "seller",
							"type": "address"
						},
						{
							"internalType": "bool",
							"name": "started",
							"type": "bool"
						},
						{
							"internalType": "bool",
							"name": "ended",
							"type": "bool"
						},
						{
							"internalType": "uint256",
							"name": "endAt",
							"type": "uint256"
						},
						{
							"internalType": "contract ERC721",
							"name": "tokenAddr",
							"type": "address"
						},
						{
							"internalType": "uint256",
							"name": "tokenId",
							"type": "uint256"
						},
						{
							"internalType": "uint256",
							"name": "bidCount",
							"type": "uint256"
						}
					],
					"stateMutability": "view",
					"type": "function"
				},
				{
					"inputs": [
						{
							"internalType": "address",
							"name": "_tokenAddr",
							"type": "address"
						},
						{
							"internalType": "uint256",
							"name": "_tokenId",
							"type": "uint256"
						}
					],
					"name": "end",
					"outputs": [],
					"stateMutability": "nonpayable",
					"type": "function"
				},
				{
					"inputs": [
						{
							"internalType": "address",
							"name": "contractAddr",
							"type": "address"
						},
						{
							"internalType": "address",
							"name": "tokenAddr",
							"type": "address"
						},
						{
							"internalType": "uint256",
							"name": "tokenId",
							"type": "uint256"
						}
					],
					"name": "getPrice",
					"outputs": [
						{
							"internalType": "uint256",
							"name": "price",
							"type": "uint256"
						}
					],
					"stateMutability": "view",
					"type": "function"
				},
				{
					"inputs": [
						{
							"internalType": "address",
							"name": "_tokenAddr",
							"type": "address"
						},
						{
							"internalType": "uint256",
							"name": "_tokenId",
							"type": "uint256"
						},
						{
							"internalType": "uint256",
							"name": "startingBid",
							"type": "uint256"
						},
						{
							"internalType": "uint256",
							"name": "dayAmount",
							"type": "uint256"
						}
					],
					"name": "start",
					"outputs": [],
					"stateMutability": "nonpayable",
					"type": "function"
				},
				{
					"inputs": [
						{
							"internalType": "address",
							"name": "_tokenAddr",
							"type": "address"
						},
						{
							"internalType": "uint256",
							"name": "_tokenId",
							"type": "uint256"
						}
					],
					"name": "withdraw",
					"outputs": [],
					"stateMutability": "payable",
					"type": "function"
				}
			],
			"devdoc": {
				"kind": "dev",
				"methods": {},
				"version": 1
			},
			"evm": {
				"assembly": "    /* \"Bid.sol\":362:4850  contract Auction {\r... */\n  mstore(0x40, 0x80)\n  callvalue\n  dup1\n  iszero\n  tag_1\n  jumpi\n  0x00\n  dup1\n  revert\ntag_1:\n  pop\n  dataSize(sub_0)\n  dup1\n  dataOffset(sub_0)\n  0x00\n  codecopy\n  0x00\n  return\nstop\n\nsub_0: assembly {\n        /* \"Bid.sol\":362:4850  contract Auction {\r... */\n      mstore(0x40, 0x80)\n      jumpi(tag_1, lt(calldatasize, 0x04))\n      shr(0xe0, calldataload(0x00))\n      dup1\n      0xa9dd14d6\n      gt\n      tag_10\n      jumpi\n      dup1\n      0xa9dd14d6\n      eq\n      tag_6\n      jumpi\n      dup1\n      0xb76a3b5a\n      eq\n      tag_7\n      jumpi\n      dup1\n      0xf3fef3a3\n      eq\n      tag_8\n      jumpi\n      dup1\n      0xf48e9b3d\n      eq\n      tag_9\n      jumpi\n      jump(tag_1)\n    tag_10:\n      dup1\n      0x59d667a5\n      eq\n      tag_2\n      jumpi\n      dup1\n      0x695d69ba\n      eq\n      tag_3\n      jumpi\n      dup1\n      0x699ff43f\n      eq\n      tag_4\n      jumpi\n      dup1\n      0x7bb98a68\n      eq\n      tag_5\n      jumpi\n    tag_1:\n      0x00\n      dup1\n      revert\n        /* \"Bid.sol\":1921:2592  function bid(address _tokenAddr, uint _tokenId) external payable {\r... */\n    tag_2:\n      tag_11\n      0x04\n      dup1\n      calldatasize\n      sub\n      dup2\n      add\n      swap1\n      tag_12\n      swap2\n      swap1\n      tag_13\n      jump\t// in\n    tag_12:\n      tag_14\n      jump\t// in\n    tag_11:\n      stop\n        /* \"Bid.sol\":3214:4258  function end(address _tokenAddr, uint _tokenId) external {\r... */\n    tag_3:\n      callvalue\n      dup1\n      iszero\n      tag_15\n      jumpi\n      0x00\n      dup1\n      revert\n    tag_15:\n      pop\n      tag_16\n      0x04\n      dup1\n      calldatasize\n      sub\n      dup2\n      add\n      swap1\n      tag_17\n      swap2\n      swap1\n      tag_13\n      jump\t// in\n    tag_17:\n      tag_18\n      jump\t// in\n    tag_16:\n      stop\n        /* \"Bid.sol\":4266:4656  function autoWithdraw(address tokenAddr_, uint tokenId_, address to) public payable {\r... */\n    tag_4:\n      tag_19\n      0x04\n      dup1\n      calldatasize\n      sub\n      dup2\n      add\n      swap1\n      tag_20\n      swap2\n      swap1\n      tag_21\n      jump\t// in\n    tag_20:\n      tag_22\n      jump\t// in\n    tag_19:\n      stop\n        /* \"Bid.sol\":720:740  uint public balances */\n    tag_5:\n      callvalue\n      dup1\n      iszero\n      tag_23\n      jumpi\n      0x00\n      dup1\n      revert\n    tag_23:\n      pop\n      tag_24\n      tag_25\n      jump\t// in\n    tag_24:\n      mload(0x40)\n      tag_26\n      swap2\n      swap1\n      tag_27\n      jump\t// in\n    tag_26:\n      mload(0x40)\n      dup1\n      swap2\n      sub\n      swap1\n      return\n        /* \"Bid.sol\":4664:4847  function getPrice(address contractAddr, address tokenAddr, uint tokenId) public view returns(uint256 price) {\r... */\n    tag_6:\n      callvalue\n      dup1\n      iszero\n      tag_28\n      jumpi\n      0x00\n      dup1\n      revert\n    tag_28:\n      pop\n      tag_29\n      0x04\n      dup1\n      calldatasize\n      sub\n      dup2\n      add\n      swap1\n      tag_30\n      swap2\n      swap1\n      tag_31\n      jump\t// in\n    tag_30:\n      tag_32\n      jump\t// in\n    tag_29:\n      mload(0x40)\n      tag_33\n      swap2\n      swap1\n      tag_27\n      jump\t// in\n    tag_33:\n      mload(0x40)\n      dup1\n      swap2\n      sub\n      swap1\n      return\n        /* \"Bid.sol\":1076:1913  function start(address _tokenAddr, uint _tokenId, uint startingBid, uint dayAmount) external {\r... */\n    tag_7:\n      callvalue\n      dup1\n      iszero\n      tag_34\n      jumpi\n      0x00\n      dup1\n      revert\n    tag_34:\n      pop\n      tag_35\n      0x04\n      dup1\n      calldatasize\n      sub\n      dup2\n      add\n      swap1\n      tag_36\n      swap2\n      swap1\n      tag_37\n      jump\t// in\n    tag_36:\n      tag_38\n      jump\t// in\n    tag_35:\n      stop\n        /* \"Bid.sol\":2600:3206  function withdraw(address _tokenAddr, uint _tokenId) external payable {\r... */\n    tag_8:\n      tag_39\n      0x04\n      dup1\n      calldatasize\n      sub\n      dup2\n      add\n      swap1\n      tag_40\n      swap2\n      swap1\n      tag_13\n      jump\t// in\n    tag_40:\n      tag_41\n      jump\t// in\n    tag_39:\n      stop\n        /* \"Bid.sol\":652:711  mapping(address =>mapping(uint => Bidding)) public biddings */\n    tag_9:\n      callvalue\n      dup1\n      iszero\n      tag_42\n      jumpi\n      0x00\n      dup1\n      revert\n    tag_42:\n      pop\n      tag_43\n      0x04\n      dup1\n      calldatasize\n      sub\n      dup2\n      add\n      swap1\n      tag_44\n      swap2\n      swap1\n      tag_13\n      jump\t// in\n    tag_44:\n      tag_45\n      jump\t// in\n    tag_43:\n      mload(0x40)\n      tag_46\n      swap8\n      swap7\n      swap6\n      swap5\n      swap4\n      swap3\n      swap2\n      swap1\n      tag_47\n      jump\t// in\n    tag_46:\n      mload(0x40)\n      dup1\n      swap2\n      sub\n      swap1\n      return\n        /* \"Bid.sol\":1921:2592  function bid(address _tokenAddr, uint _tokenId) external payable {\r... */\n    tag_14:\n        /* \"Bid.sol\":1997:2017  Bidding storage _bid */\n      0x00\n        /* \"Bid.sol\":2020:2028  biddings */\n      dup1\n        /* \"Bid.sol\":2020:2040  biddings[_tokenAddr] */\n      0x00\n        /* \"Bid.sol\":2029:2039  _tokenAddr */\n      dup5\n        /* \"Bid.sol\":2020:2040  biddings[_tokenAddr] */\n      0xffffffffffffffffffffffffffffffffffffffff\n      and\n      0xffffffffffffffffffffffffffffffffffffffff\n      and\n      dup2\n      mstore\n      0x20\n      add\n      swap1\n      dup2\n      mstore\n      0x20\n      add\n      0x00\n      keccak256\n        /* \"Bid.sol\":2020:2050  biddings[_tokenAddr][_tokenId] */\n      0x00\n        /* \"Bid.sol\":2041:2049  _tokenId */\n      dup4\n        /* \"Bid.sol\":2020:2050  biddings[_tokenAddr][_tokenId] */\n      dup2\n      mstore\n      0x20\n      add\n      swap1\n      dup2\n      mstore\n      0x20\n      add\n      0x00\n      keccak256\n        /* \"Bid.sol\":1997:2050  Bidding storage _bid = biddings[_tokenAddr][_tokenId] */\n      swap1\n      pop\n        /* \"Bid.sol\":2071:2075  _bid */\n      dup1\n        /* \"Bid.sol\":2071:2083  _bid.started */\n      0x00\n      add\n      0x14\n      swap1\n      sload\n      swap1\n      0x0100\n      exp\n      swap1\n      div\n      0xff\n      and\n        /* \"Bid.sol\":2063:2100  require(_bid.started, \"Not started.\") */\n      tag_49\n      jumpi\n      mload(0x40)\n      0x08c379a000000000000000000000000000000000000000000000000000000000\n      dup2\n      mstore\n      0x04\n      add\n      tag_50\n      swap1\n      tag_51\n      jump\t// in\n    tag_50:\n      mload(0x40)\n      dup1\n      swap2\n      sub\n      swap1\n      revert\n    tag_49:\n        /* \"Bid.sol\":2137:2141  _bid */\n      dup1\n        /* \"Bid.sol\":2137:2147  _bid.endAt */\n      0x01\n      add\n      sload\n        /* \"Bid.sol\":2119:2134  block.timestamp */\n      timestamp\n        /* \"Bid.sol\":2119:2147  block.timestamp < _bid.endAt */\n      lt\n        /* \"Bid.sol\":2111:2158  require(block.timestamp < _bid.endAt, \"Ended!\") */\n      tag_52\n      jumpi\n      mload(0x40)\n      0x08c379a000000000000000000000000000000000000000000000000000000000\n      dup2\n      mstore\n      0x04\n      add\n      tag_53\n      swap1\n      tag_54\n      jump\t// in\n    tag_53:\n      mload(0x40)\n      dup1\n      swap2\n      sub\n      swap1\n      revert\n    tag_52:\n        /* \"Bid.sol\":2189:2193  _bid */\n      dup1\n        /* \"Bid.sol\":2189:2204  _bid.highestBid */\n      0x05\n      add\n        /* \"Bid.sol\":2189:2219  _bid.highestBid[_bid.bidCount] */\n      0x00\n        /* \"Bid.sol\":2205:2209  _bid */\n      dup3\n        /* \"Bid.sol\":2205:2218  _bid.bidCount */\n      0x04\n      add\n      sload\n        /* \"Bid.sol\":2189:2219  _bid.highestBid[_bid.bidCount] */\n      dup2\n      mstore\n      0x20\n      add\n      swap1\n      dup2\n      mstore\n      0x20\n      add\n      0x00\n      keccak256\n      sload\n        /* \"Bid.sol\":2177:2186  msg.value */\n      callvalue\n        /* \"Bid.sol\":2177:2219  msg.value > _bid.highestBid[_bid.bidCount] */\n      gt\n        /* \"Bid.sol\":2169:2234  require(msg.value > _bid.highestBid[_bid.bidCount], \"Lower bid!\") */\n      tag_55\n      jumpi\n      mload(0x40)\n      0x08c379a000000000000000000000000000000000000000000000000000000000\n      dup2\n      mstore\n      0x04\n      add\n      tag_56\n      swap1\n      tag_57\n      jump\t// in\n    tag_56:\n      mload(0x40)\n      dup1\n      swap2\n      sub\n      swap1\n      revert\n    tag_55:\n        /* \"Bid.sol\":2280:2289  msg.value */\n      callvalue\n        /* \"Bid.sol\":2247:2251  _bid */\n      dup2\n        /* \"Bid.sol\":2247:2262  _bid.highestBid */\n      0x05\n      add\n        /* \"Bid.sol\":2247:2277  _bid.highestBid[_bid.bidCount] */\n      0x00\n        /* \"Bid.sol\":2263:2267  _bid */\n      dup4\n        /* \"Bid.sol\":2263:2276  _bid.bidCount */\n      0x04\n      add\n      sload\n        /* \"Bid.sol\":2247:2277  _bid.highestBid[_bid.bidCount] */\n      dup2\n      mstore\n      0x20\n      add\n      swap1\n      dup2\n      mstore\n      0x20\n      add\n      0x00\n      keccak256\n        /* \"Bid.sol\":2247:2289  _bid.highestBid[_bid.bidCount] = msg.value */\n      dup2\n      swap1\n      sstore\n      pop\n        /* \"Bid.sol\":2336:2346  msg.sender */\n      caller\n        /* \"Bid.sol\":2300:2304  _bid */\n      dup2\n        /* \"Bid.sol\":2300:2318  _bid.highestBidder */\n      0x06\n      add\n        /* \"Bid.sol\":2300:2333  _bid.highestBidder[_bid.bidCount] */\n      0x00\n        /* \"Bid.sol\":2319:2323  _bid */\n      dup4\n        /* \"Bid.sol\":2319:2332  _bid.bidCount */\n      0x04\n      add\n      sload\n        /* \"Bid.sol\":2300:2333  _bid.highestBidder[_bid.bidCount] */\n      dup2\n      mstore\n      0x20\n      add\n      swap1\n      dup2\n      mstore\n      0x20\n      add\n      0x00\n      keccak256\n      0x00\n        /* \"Bid.sol\":2300:2346  _bid.highestBidder[_bid.bidCount] = msg.sender */\n      0x0100\n      exp\n      dup2\n      sload\n      dup2\n      0xffffffffffffffffffffffffffffffffffffffff\n      mul\n      not\n      and\n      swap1\n      dup4\n      0xffffffffffffffffffffffffffffffffffffffff\n      and\n      mul\n      or\n      swap1\n      sstore\n      pop\n        /* \"Bid.sol\":2404:2408  _bid */\n      dup1\n        /* \"Bid.sol\":2404:2419  _bid.highestBid */\n      0x05\n      add\n        /* \"Bid.sol\":2404:2434  _bid.highestBid[_bid.bidCount] */\n      0x00\n        /* \"Bid.sol\":2420:2424  _bid */\n      dup3\n        /* \"Bid.sol\":2420:2433  _bid.bidCount */\n      0x04\n      add\n      sload\n        /* \"Bid.sol\":2404:2434  _bid.highestBid[_bid.bidCount] */\n      dup2\n      mstore\n      0x20\n      add\n      swap1\n      dup2\n      mstore\n      0x20\n      add\n      0x00\n      keccak256\n      sload\n        /* \"Bid.sol\":2357:2361  _bid */\n      dup2\n        /* \"Bid.sol\":2357:2366  _bid.bids */\n      0x07\n      add\n        /* \"Bid.sol\":2357:2401  _bid.bids[_bid.highestBidder[_bid.bidCount]] */\n      0x00\n        /* \"Bid.sol\":2367:2371  _bid */\n      dup4\n        /* \"Bid.sol\":2367:2385  _bid.highestBidder */\n      0x06\n      add\n        /* \"Bid.sol\":2367:2400  _bid.highestBidder[_bid.bidCount] */\n      0x00\n        /* \"Bid.sol\":2386:2390  _bid */\n      dup6\n        /* \"Bid.sol\":2386:2399  _bid.bidCount */\n      0x04\n      add\n      sload\n        /* \"Bid.sol\":2367:2400  _bid.highestBidder[_bid.bidCount] */\n      dup2\n      mstore\n      0x20\n      add\n      swap1\n      dup2\n      mstore\n      0x20\n      add\n      0x00\n      keccak256\n      0x00\n      swap1\n      sload\n      swap1\n      0x0100\n      exp\n      swap1\n      div\n      0xffffffffffffffffffffffffffffffffffffffff\n      and\n        /* \"Bid.sol\":2357:2401  _bid.bids[_bid.highestBidder[_bid.bidCount]] */\n      0xffffffffffffffffffffffffffffffffffffffff\n      and\n      0xffffffffffffffffffffffffffffffffffffffff\n      and\n      dup2\n      mstore\n      0x20\n      add\n      swap1\n      dup2\n      mstore\n      0x20\n      add\n      0x00\n      keccak256\n        /* \"Bid.sol\":2357:2434  _bid.bids[_bid.highestBidder[_bid.bidCount]] = _bid.highestBid[_bid.bidCount] */\n      dup2\n      swap1\n      sstore\n      pop\n        /* \"Bid.sol\":2447:2451  _bid */\n      dup1\n        /* \"Bid.sol\":2447:2460  _bid.bidCount */\n      0x04\n      add\n      0x00\n        /* \"Bid.sol\":2447:2462  _bid.bidCount++ */\n      dup2\n      sload\n      dup1\n      swap3\n      swap2\n      swap1\n      tag_58\n      swap1\n      tag_59\n      jump\t// in\n    tag_58:\n      swap2\n      swap1\n      pop\n      sstore\n      pop\n        /* \"Bid.sol\":2487:2496  msg.value */\n      callvalue\n        /* \"Bid.sol\":2475:2483  balances */\n      0x01\n      0x00\n        /* \"Bid.sol\":2475:2496  balances += msg.value */\n      dup3\n      dup3\n      sload\n      tag_60\n      swap2\n      swap1\n      tag_61\n      jump\t// in\n    tag_60:\n      swap3\n      pop\n      pop\n      dup2\n      swap1\n      sstore\n      pop\n        /* \"Bid.sol\":2518:2522  _bid */\n      dup1\n        /* \"Bid.sol\":2518:2536  _bid.highestBidder */\n      0x06\n      add\n        /* \"Bid.sol\":2518:2551  _bid.highestBidder[_bid.bidCount] */\n      0x00\n        /* \"Bid.sol\":2537:2541  _bid */\n      dup3\n        /* \"Bid.sol\":2537:2550  _bid.bidCount */\n      0x04\n      add\n      sload\n        /* \"Bid.sol\":2518:2551  _bid.highestBidder[_bid.bidCount] */\n      dup2\n      mstore\n      0x20\n      add\n      swap1\n      dup2\n      mstore\n      0x20\n      add\n      0x00\n      keccak256\n      0x00\n      swap1\n      sload\n      swap1\n      0x0100\n      exp\n      swap1\n      div\n      0xffffffffffffffffffffffffffffffffffffffff\n      and\n        /* \"Bid.sol\":2514:2584  Bid(_bid.highestBidder[_bid.bidCount], _bid.highestBid[_bid.bidCount]) */\n      0xffffffffffffffffffffffffffffffffffffffff\n      and\n      0xe684a55f31b79eca403df938249029212a5925ec6be8012e099b45bc1019e5d2\n        /* \"Bid.sol\":2553:2557  _bid */\n      dup3\n        /* \"Bid.sol\":2553:2568  _bid.highestBid */\n      0x05\n      add\n        /* \"Bid.sol\":2553:2583  _bid.highestBid[_bid.bidCount] */\n      0x00\n        /* \"Bid.sol\":2569:2573  _bid */\n      dup5\n        /* \"Bid.sol\":2569:2582  _bid.bidCount */\n      0x04\n      add\n      sload\n        /* \"Bid.sol\":2553:2583  _bid.highestBid[_bid.bidCount] */\n      dup2\n      mstore\n      0x20\n      add\n      swap1\n      dup2\n      mstore\n      0x20\n      add\n      0x00\n      keccak256\n      sload\n        /* \"Bid.sol\":2514:2584  Bid(_bid.highestBidder[_bid.bidCount], _bid.highestBid[_bid.bidCount]) */\n      mload(0x40)\n      tag_62\n      swap2\n      swap1\n      tag_27\n      jump\t// in\n    tag_62:\n      mload(0x40)\n      dup1\n      swap2\n      sub\n      swap1\n      log2\n        /* \"Bid.sol\":1986:2592  {\r... */\n      pop\n        /* \"Bid.sol\":1921:2592  function bid(address _tokenAddr, uint _tokenId) external payable {\r... */\n      pop\n      pop\n      jump\t// out\n        /* \"Bid.sol\":3214:4258  function end(address _tokenAddr, uint _tokenId) external {\r... */\n    tag_18:\n        /* \"Bid.sol\":3282:3302  Bidding storage _bid */\n      0x00\n        /* \"Bid.sol\":3305:3313  biddings */\n      dup1\n        /* \"Bid.sol\":3305:3325  biddings[_tokenAddr] */\n      0x00\n        /* \"Bid.sol\":3314:3324  _tokenAddr */\n      dup5\n        /* \"Bid.sol\":3305:3325  biddings[_tokenAddr] */\n      0xffffffffffffffffffffffffffffffffffffffff\n      and\n      0xffffffffffffffffffffffffffffffffffffffff\n      and\n      dup2\n      mstore\n      0x20\n      add\n      swap1\n      dup2\n      mstore\n      0x20\n      add\n      0x00\n      keccak256\n        /* \"Bid.sol\":3305:3335  biddings[_tokenAddr][_tokenId] */\n      0x00\n        /* \"Bid.sol\":3326:3334  _tokenId */\n      dup4\n        /* \"Bid.sol\":3305:3335  biddings[_tokenAddr][_tokenId] */\n      dup2\n      mstore\n      0x20\n      add\n      swap1\n      dup2\n      mstore\n      0x20\n      add\n      0x00\n      keccak256\n        /* \"Bid.sol\":3282:3335  Bidding storage _bid = biddings[_tokenAddr][_tokenId] */\n      swap1\n      pop\n        /* \"Bid.sol\":3356:3360  _bid */\n      dup1\n        /* \"Bid.sol\":3356:3368  _bid.started */\n      0x00\n      add\n      0x14\n      swap1\n      sload\n      swap1\n      0x0100\n      exp\n      swap1\n      div\n      0xff\n      and\n        /* \"Bid.sol\":3348:3397  require(_bid.started, \"You need to start first!\") */\n      tag_64\n      jumpi\n      mload(0x40)\n      0x08c379a000000000000000000000000000000000000000000000000000000000\n      dup2\n      mstore\n      0x04\n      add\n      tag_65\n      swap1\n      tag_66\n      jump\t// in\n    tag_65:\n      mload(0x40)\n      dup1\n      swap2\n      sub\n      swap1\n      revert\n    tag_64:\n        /* \"Bid.sol\":3435:3439  _bid */\n      dup1\n        /* \"Bid.sol\":3435:3445  _bid.endAt */\n      0x01\n      add\n      sload\n        /* \"Bid.sol\":3416:3431  block.timestamp */\n      timestamp\n        /* \"Bid.sol\":3416:3445  block.timestamp >= _bid.endAt */\n      lt\n      iszero\n        /* \"Bid.sol\":3408:3475  require(block.timestamp >= _bid.endAt, \"Auction is still ongoing!\") */\n      tag_67\n      jumpi\n      mload(0x40)\n      0x08c379a000000000000000000000000000000000000000000000000000000000\n      dup2\n      mstore\n      0x04\n      add\n      tag_68\n      swap1\n      tag_69\n      jump\t// in\n    tag_68:\n      mload(0x40)\n      dup1\n      swap2\n      sub\n      swap1\n      revert\n    tag_67:\n        /* \"Bid.sol\":3495:3499  _bid */\n      dup1\n        /* \"Bid.sol\":3495:3505  _bid.ended */\n      0x00\n      add\n      0x15\n      swap1\n      sload\n      swap1\n      0x0100\n      exp\n      swap1\n      div\n      0xff\n      and\n        /* \"Bid.sol\":3494:3505  !_bid.ended */\n      iszero\n        /* \"Bid.sol\":3486:3532  require(!_bid.ended, \"Auction already ended!\") */\n      tag_70\n      jumpi\n      mload(0x40)\n      0x08c379a000000000000000000000000000000000000000000000000000000000\n      dup2\n      mstore\n      0x04\n      add\n      tag_71\n      swap1\n      tag_72\n      jump\t// in\n    tag_71:\n      mload(0x40)\n      dup1\n      swap2\n      sub\n      swap1\n      revert\n    tag_70:\n        /* \"Bid.sol\":3594:3595  0 */\n      0x00\n        /* \"Bid.sol\":3549:3596  _bid.highestBidder[_bid.bidCount] != address(0) */\n      0xffffffffffffffffffffffffffffffffffffffff\n      and\n        /* \"Bid.sol\":3549:3553  _bid */\n      dup2\n        /* \"Bid.sol\":3549:3567  _bid.highestBidder */\n      0x06\n      add\n        /* \"Bid.sol\":3549:3582  _bid.highestBidder[_bid.bidCount] */\n      0x00\n        /* \"Bid.sol\":3568:3572  _bid */\n      dup4\n        /* \"Bid.sol\":3568:3581  _bid.bidCount */\n      0x04\n      add\n      sload\n        /* \"Bid.sol\":3549:3582  _bid.highestBidder[_bid.bidCount] */\n      dup2\n      mstore\n      0x20\n      add\n      swap1\n      dup2\n      mstore\n      0x20\n      add\n      0x00\n      keccak256\n      0x00\n      swap1\n      sload\n      swap1\n      0x0100\n      exp\n      swap1\n      div\n      0xffffffffffffffffffffffffffffffffffffffff\n      and\n        /* \"Bid.sol\":3549:3596  _bid.highestBidder[_bid.bidCount] != address(0) */\n      0xffffffffffffffffffffffffffffffffffffffff\n      and\n      eq\n        /* \"Bid.sol\":3545:4104  if (_bid.highestBidder[_bid.bidCount] != address(0)) {\r... */\n      tag_73\n      jumpi\n        /* \"Bid.sol\":3615:3619  _bid */\n      dup1\n        /* \"Bid.sol\":3615:3629  _bid.tokenAddr */\n      0x02\n      add\n      0x00\n      swap1\n      sload\n      swap1\n      0x0100\n      exp\n      swap1\n      div\n      0xffffffffffffffffffffffffffffffffffffffff\n      and\n        /* \"Bid.sol\":3615:3642  _bid.tokenAddr.transferFrom */\n      0xffffffffffffffffffffffffffffffffffffffff\n      and\n      0x23b872dd\n        /* \"Bid.sol\":3651:3655  this */\n      address\n        /* \"Bid.sol\":3658:3662  _bid */\n      dup4\n        /* \"Bid.sol\":3658:3676  _bid.highestBidder */\n      0x06\n      add\n        /* \"Bid.sol\":3658:3691  _bid.highestBidder[_bid.bidCount] */\n      0x00\n        /* \"Bid.sol\":3677:3681  _bid */\n      dup6\n        /* \"Bid.sol\":3677:3690  _bid.bidCount */\n      0x04\n      add\n      sload\n        /* \"Bid.sol\":3658:3691  _bid.highestBidder[_bid.bidCount] */\n      dup2\n      mstore\n      0x20\n      add\n      swap1\n      dup2\n      mstore\n      0x20\n      add\n      0x00\n      keccak256\n      0x00\n      swap1\n      sload\n      swap1\n      0x0100\n      exp\n      swap1\n      div\n      0xffffffffffffffffffffffffffffffffffffffff\n      and\n        /* \"Bid.sol\":3693:3697  _bid */\n      dup5\n        /* \"Bid.sol\":3693:3705  _bid.tokenId */\n      0x03\n      add\n      sload\n        /* \"Bid.sol\":3615:3706  _bid.tokenAddr.transferFrom(address(this), _bid.highestBidder[_bid.bidCount], _bid.tokenId) */\n      mload(0x40)\n      dup5\n      0xffffffff\n      and\n      0xe0\n      shl\n      dup2\n      mstore\n      0x04\n      add\n      tag_74\n      swap4\n      swap3\n      swap2\n      swap1\n      tag_75\n      jump\t// in\n    tag_74:\n      0x00\n      mload(0x40)\n      dup1\n      dup4\n      sub\n      dup2\n      0x00\n      dup8\n      dup1\n      extcodesize\n      iszero\n      dup1\n      iszero\n      tag_76\n      jumpi\n      0x00\n      dup1\n      revert\n    tag_76:\n      pop\n      gas\n      call\n      iszero\n      dup1\n      iszero\n      tag_78\n      jumpi\n      returndatasize\n      0x00\n      dup1\n      returndatacopy\n      revert(0x00, returndatasize)\n    tag_78:\n      pop\n      pop\n      pop\n      pop\n        /* \"Bid.sol\":3731:3735  _bid */\n      dup1\n        /* \"Bid.sol\":3731:3742  _bid.seller */\n      0x00\n      add\n      0x00\n      swap1\n      sload\n      swap1\n      0x0100\n      exp\n      swap1\n      div\n      0xffffffffffffffffffffffffffffffffffffffff\n      and\n        /* \"Bid.sol\":3723:3752  payable(_bid.seller).transfer */\n      0xffffffffffffffffffffffffffffffffffffffff\n      and\n        /* \"Bid.sol\":3723:3784  payable(_bid.seller).transfer(_bid.highestBid[_bid.bidCount]) */\n      0x08fc\n        /* \"Bid.sol\":3753:3757  _bid */\n      dup3\n        /* \"Bid.sol\":3753:3768  _bid.highestBid */\n      0x05\n      add\n        /* \"Bid.sol\":3753:3783  _bid.highestBid[_bid.bidCount] */\n      0x00\n        /* \"Bid.sol\":3769:3773  _bid */\n      dup5\n        /* \"Bid.sol\":3769:3782  _bid.bidCount */\n      0x04\n      add\n      sload\n        /* \"Bid.sol\":3753:3783  _bid.highestBid[_bid.bidCount] */\n      dup2\n      mstore\n      0x20\n      add\n      swap1\n      dup2\n      mstore\n      0x20\n      add\n      0x00\n      keccak256\n      sload\n        /* \"Bid.sol\":3723:3784  payable(_bid.seller).transfer(_bid.highestBid[_bid.bidCount]) */\n      swap1\n      dup2\n      iszero\n      mul\n      swap1\n      mload(0x40)\n      0x00\n      mload(0x40)\n      dup1\n      dup4\n      sub\n      dup2\n      dup6\n      dup9\n      dup9\n      call\n      swap4\n      pop\n      pop\n      pop\n      pop\n      iszero\n      dup1\n      iszero\n      tag_80\n      jumpi\n      returndatasize\n      0x00\n      dup1\n      returndatacopy\n      revert(0x00, returndatasize)\n    tag_80:\n      pop\n        /* \"Bid.sol\":3811:3815  _bid */\n      dup1\n        /* \"Bid.sol\":3811:3826  _bid.highestBid */\n      0x05\n      add\n        /* \"Bid.sol\":3811:3841  _bid.highestBid[_bid.bidCount] */\n      0x00\n        /* \"Bid.sol\":3827:3831  _bid */\n      dup3\n        /* \"Bid.sol\":3827:3840  _bid.bidCount */\n      0x04\n      add\n      sload\n        /* \"Bid.sol\":3811:3841  _bid.highestBid[_bid.bidCount] */\n      dup2\n      mstore\n      0x20\n      add\n      swap1\n      dup2\n      mstore\n      0x20\n      add\n      0x00\n      keccak256\n      sload\n        /* \"Bid.sol\":3799:3807  balances */\n      0x01\n      0x00\n        /* \"Bid.sol\":3799:3841  balances -= _bid.highestBid[_bid.bidCount] */\n      dup3\n      dup3\n      sload\n      tag_81\n      swap2\n      swap1\n      tag_82\n      jump\t// in\n    tag_81:\n      swap3\n      pop\n      pop\n      dup2\n      swap1\n      sstore\n      pop\n        /* \"Bid.sol\":3863:3869  uint i */\n      0x00\n        /* \"Bid.sol\":3858:3991  for (uint i = 0; i < _bid.bidCount; i++) {\r... */\n    tag_83:\n        /* \"Bid.sol\":3879:3883  _bid */\n      dup2\n        /* \"Bid.sol\":3879:3892  _bid.bidCount */\n      0x04\n      add\n      sload\n        /* \"Bid.sol\":3875:3876  i */\n      dup2\n        /* \"Bid.sol\":3875:3892  i < _bid.bidCount */\n      lt\n        /* \"Bid.sol\":3858:3991  for (uint i = 0; i < _bid.bidCount; i++) {\r... */\n      iszero\n      tag_84\n      jumpi\n        /* \"Bid.sol\":3918:3975  autoWithdraw(_tokenAddr, _tokenId, _bid.highestBidder[i]) */\n      tag_86\n        /* \"Bid.sol\":3931:3941  _tokenAddr */\n      dup5\n        /* \"Bid.sol\":3943:3951  _tokenId */\n      dup5\n        /* \"Bid.sol\":3953:3957  _bid */\n      dup5\n        /* \"Bid.sol\":3953:3971  _bid.highestBidder */\n      0x06\n      add\n        /* \"Bid.sol\":3953:3974  _bid.highestBidder[i] */\n      0x00\n        /* \"Bid.sol\":3972:3973  i */\n      dup6\n        /* \"Bid.sol\":3953:3974  _bid.highestBidder[i] */\n      dup2\n      mstore\n      0x20\n      add\n      swap1\n      dup2\n      mstore\n      0x20\n      add\n      0x00\n      keccak256\n      0x00\n      swap1\n      sload\n      swap1\n      0x0100\n      exp\n      swap1\n      div\n      0xffffffffffffffffffffffffffffffffffffffff\n      and\n        /* \"Bid.sol\":3918:3930  autoWithdraw */\n      tag_22\n        /* \"Bid.sol\":3918:3975  autoWithdraw(_tokenAddr, _tokenId, _bid.highestBidder[i]) */\n      jump\t// in\n    tag_86:\n        /* \"Bid.sol\":3894:3897  i++ */\n      dup1\n      dup1\n      tag_87\n      swap1\n      tag_59\n      jump\t// in\n    tag_87:\n      swap2\n      pop\n      pop\n        /* \"Bid.sol\":3858:3991  for (uint i = 0; i < _bid.bidCount; i++) {\r... */\n      jump(tag_83)\n    tag_84:\n      pop\n        /* \"Bid.sol\":3545:4104  if (_bid.highestBidder[_bid.bidCount] != address(0)) {\r... */\n      jump(tag_88)\n    tag_73:\n        /* \"Bid.sol\":4023:4027  _bid */\n      dup1\n        /* \"Bid.sol\":4023:4037  _bid.tokenAddr */\n      0x02\n      add\n      0x00\n      swap1\n      sload\n      swap1\n      0x0100\n      exp\n      swap1\n      div\n      0xffffffffffffffffffffffffffffffffffffffff\n      and\n        /* \"Bid.sol\":4023:4050  _bid.tokenAddr.transferFrom */\n      0xffffffffffffffffffffffffffffffffffffffff\n      and\n      0x23b872dd\n        /* \"Bid.sol\":4059:4063  this */\n      address\n        /* \"Bid.sol\":4066:4070  _bid */\n      dup4\n        /* \"Bid.sol\":4066:4077  _bid.seller */\n      0x00\n      add\n      0x00\n      swap1\n      sload\n      swap1\n      0x0100\n      exp\n      swap1\n      div\n      0xffffffffffffffffffffffffffffffffffffffff\n      and\n        /* \"Bid.sol\":4079:4083  _bid */\n      dup5\n        /* \"Bid.sol\":4079:4091  _bid.tokenId */\n      0x03\n      add\n      sload\n        /* \"Bid.sol\":4023:4092  _bid.tokenAddr.transferFrom(address(this), _bid.seller, _bid.tokenId) */\n      mload(0x40)\n      dup5\n      0xffffffff\n      and\n      0xe0\n      shl\n      dup2\n      mstore\n      0x04\n      add\n      tag_89\n      swap4\n      swap3\n      swap2\n      swap1\n      tag_75\n      jump\t// in\n    tag_89:\n      0x00\n      mload(0x40)\n      dup1\n      dup4\n      sub\n      dup2\n      0x00\n      dup8\n      dup1\n      extcodesize\n      iszero\n      dup1\n      iszero\n      tag_90\n      jumpi\n      0x00\n      dup1\n      revert\n    tag_90:\n      pop\n      gas\n      call\n      iszero\n      dup1\n      iszero\n      tag_92\n      jumpi\n      returndatasize\n      0x00\n      dup1\n      returndatacopy\n      revert(0x00, returndatasize)\n    tag_92:\n      pop\n      pop\n      pop\n      pop\n        /* \"Bid.sol\":3545:4104  if (_bid.highestBidder[_bid.bidCount] != address(0)) {\r... */\n    tag_88:\n        /* \"Bid.sol\":4129:4133  true */\n      0x01\n        /* \"Bid.sol\":4116:4120  _bid */\n      dup2\n        /* \"Bid.sol\":4116:4126  _bid.ended */\n      0x00\n      add\n      0x15\n        /* \"Bid.sol\":4116:4133  _bid.ended = true */\n      0x0100\n      exp\n      dup2\n      sload\n      dup2\n      0xff\n      mul\n      not\n      and\n      swap1\n      dup4\n      iszero\n      iszero\n      mul\n      or\n      swap1\n      sstore\n      pop\n        /* \"Bid.sol\":4159:4164  false */\n      0x00\n        /* \"Bid.sol\":4144:4148  _bid */\n      dup2\n        /* \"Bid.sol\":4144:4156  _bid.started */\n      0x00\n      add\n      0x14\n        /* \"Bid.sol\":4144:4164  _bid.started = false */\n      0x0100\n      exp\n      dup2\n      sload\n      dup2\n      0xff\n      mul\n      not\n      and\n      swap1\n      dup4\n      iszero\n      iszero\n      mul\n      or\n      swap1\n      sstore\n      pop\n        /* \"Bid.sol\":4180:4250  End(_bid.highestBidder[_bid.bidCount], _bid.highestBid[_bid.bidCount]) */\n      0x7d7570b046e5ead3a4f3fbc9fa2445113625a1e79823776146316bafed6b8cc5\n        /* \"Bid.sol\":4184:4188  _bid */\n      dup2\n        /* \"Bid.sol\":4184:4202  _bid.highestBidder */\n      0x06\n      add\n        /* \"Bid.sol\":4184:4217  _bid.highestBidder[_bid.bidCount] */\n      0x00\n        /* \"Bid.sol\":4203:4207  _bid */\n      dup4\n        /* \"Bid.sol\":4203:4216  _bid.bidCount */\n      0x04\n      add\n      sload\n        /* \"Bid.sol\":4184:4217  _bid.highestBidder[_bid.bidCount] */\n      dup2\n      mstore\n      0x20\n      add\n      swap1\n      dup2\n      mstore\n      0x20\n      add\n      0x00\n      keccak256\n      0x00\n      swap1\n      sload\n      swap1\n      0x0100\n      exp\n      swap1\n      div\n      0xffffffffffffffffffffffffffffffffffffffff\n      and\n        /* \"Bid.sol\":4219:4223  _bid */\n      dup3\n        /* \"Bid.sol\":4219:4234  _bid.highestBid */\n      0x05\n      add\n        /* \"Bid.sol\":4219:4249  _bid.highestBid[_bid.bidCount] */\n      0x00\n        /* \"Bid.sol\":4235:4239  _bid */\n      dup5\n        /* \"Bid.sol\":4235:4248  _bid.bidCount */\n      0x04\n      add\n      sload\n        /* \"Bid.sol\":4219:4249  _bid.highestBid[_bid.bidCount] */\n      dup2\n      mstore\n      0x20\n      add\n      swap1\n      dup2\n      mstore\n      0x20\n      add\n      0x00\n      keccak256\n      sload\n        /* \"Bid.sol\":4180:4250  End(_bid.highestBidder[_bid.bidCount], _bid.highestBid[_bid.bidCount]) */\n      mload(0x40)\n      tag_93\n      swap3\n      swap2\n      swap1\n      tag_94\n      jump\t// in\n    tag_93:\n      mload(0x40)\n      dup1\n      swap2\n      sub\n      swap1\n      log1\n        /* \"Bid.sol\":3271:4258  {\r... */\n      pop\n        /* \"Bid.sol\":3214:4258  function end(address _tokenAddr, uint _tokenId) external {\r... */\n      pop\n      pop\n      jump\t// out\n        /* \"Bid.sol\":4266:4656  function autoWithdraw(address tokenAddr_, uint tokenId_, address to) public payable {\r... */\n    tag_22:\n        /* \"Bid.sol\":4361:4381  Bidding storage _bid */\n      0x00\n        /* \"Bid.sol\":4384:4392  biddings */\n      dup1\n        /* \"Bid.sol\":4384:4404  biddings[tokenAddr_] */\n      0x00\n        /* \"Bid.sol\":4393:4403  tokenAddr_ */\n      dup6\n        /* \"Bid.sol\":4384:4404  biddings[tokenAddr_] */\n      0xffffffffffffffffffffffffffffffffffffffff\n      and\n      0xffffffffffffffffffffffffffffffffffffffff\n      and\n      dup2\n      mstore\n      0x20\n      add\n      swap1\n      dup2\n      mstore\n      0x20\n      add\n      0x00\n      keccak256\n        /* \"Bid.sol\":4384:4414  biddings[tokenAddr_][tokenId_] */\n      0x00\n        /* \"Bid.sol\":4405:4413  tokenId_ */\n      dup5\n        /* \"Bid.sol\":4384:4414  biddings[tokenAddr_][tokenId_] */\n      dup2\n      mstore\n      0x20\n      add\n      swap1\n      dup2\n      mstore\n      0x20\n      add\n      0x00\n      keccak256\n        /* \"Bid.sol\":4361:4414  Bidding storage _bid = biddings[tokenAddr_][tokenId_] */\n      swap1\n      pop\n        /* \"Bid.sol\":4425:4433  uint bal */\n      0x00\n        /* \"Bid.sol\":4436:4440  _bid */\n      dup2\n        /* \"Bid.sol\":4436:4445  _bid.bids */\n      0x07\n      add\n        /* \"Bid.sol\":4436:4449  _bid.bids[to] */\n      0x00\n        /* \"Bid.sol\":4446:4448  to */\n      dup5\n        /* \"Bid.sol\":4436:4449  _bid.bids[to] */\n      0xffffffffffffffffffffffffffffffffffffffff\n      and\n      0xffffffffffffffffffffffffffffffffffffffff\n      and\n      dup2\n      mstore\n      0x20\n      add\n      swap1\n      dup2\n      mstore\n      0x20\n      add\n      0x00\n      keccak256\n      sload\n        /* \"Bid.sol\":4425:4449  uint bal = _bid.bids[to] */\n      swap1\n      pop\n        /* \"Bid.sol\":4476:4477  0 */\n      0x00\n        /* \"Bid.sol\":4470:4473  bal */\n      dup2\n        /* \"Bid.sol\":4470:4477  bal > 0 */\n      gt\n        /* \"Bid.sol\":4470:4496  bal > 0 && bal <= balances */\n      dup1\n      iszero\n      tag_96\n      jumpi\n      pop\n        /* \"Bid.sol\":4488:4496  balances */\n      sload(0x01)\n        /* \"Bid.sol\":4481:4484  bal */\n      dup2\n        /* \"Bid.sol\":4481:4496  bal <= balances */\n      gt\n      iszero\n        /* \"Bid.sol\":4470:4496  bal > 0 && bal <= balances */\n    tag_96:\n        /* \"Bid.sol\":4462:4519  require(bal > 0 && bal <= balances, \"Could not withdraw\") */\n      tag_97\n      jumpi\n      mload(0x40)\n      0x08c379a000000000000000000000000000000000000000000000000000000000\n      dup2\n      mstore\n      0x04\n      add\n      tag_98\n      swap1\n      tag_99\n      jump\t// in\n    tag_98:\n      mload(0x40)\n      dup1\n      swap2\n      sub\n      swap1\n      revert\n    tag_97:\n        /* \"Bid.sol\":4548:4549  0 */\n      0x00\n        /* \"Bid.sol\":4532:4536  _bid */\n      dup3\n        /* \"Bid.sol\":4532:4541  _bid.bids */\n      0x07\n      add\n        /* \"Bid.sol\":4532:4545  _bid.bids[to] */\n      0x00\n        /* \"Bid.sol\":4542:4544  to */\n      dup6\n        /* \"Bid.sol\":4532:4545  _bid.bids[to] */\n      0xffffffffffffffffffffffffffffffffffffffff\n      and\n      0xffffffffffffffffffffffffffffffffffffffff\n      and\n      dup2\n      mstore\n      0x20\n      add\n      swap1\n      dup2\n      mstore\n      0x20\n      add\n      0x00\n      keccak256\n        /* \"Bid.sol\":4532:4549  _bid.bids[to] = 0 */\n      dup2\n      swap1\n      sstore\n      pop\n        /* \"Bid.sol\":4570:4572  to */\n      dup3\n        /* \"Bid.sol\":4562:4582  payable(to).transfer */\n      0xffffffffffffffffffffffffffffffffffffffff\n      and\n        /* \"Bid.sol\":4562:4587  payable(to).transfer(bal) */\n      0x08fc\n        /* \"Bid.sol\":4583:4586  bal */\n      dup3\n        /* \"Bid.sol\":4562:4587  payable(to).transfer(bal) */\n      swap1\n      dup2\n      iszero\n      mul\n      swap1\n      mload(0x40)\n      0x00\n      mload(0x40)\n      dup1\n      dup4\n      sub\n      dup2\n      dup6\n      dup9\n      dup9\n      call\n      swap4\n      pop\n      pop\n      pop\n      pop\n      iszero\n      dup1\n      iszero\n      tag_101\n      jumpi\n      returndatasize\n      0x00\n      dup1\n      returndatacopy\n      revert(0x00, returndatasize)\n    tag_101:\n      pop\n        /* \"Bid.sol\":4610:4613  bal */\n      dup1\n        /* \"Bid.sol\":4598:4606  balances */\n      0x01\n      0x00\n        /* \"Bid.sol\":4598:4613  balances -= bal */\n      dup3\n      dup3\n      sload\n      tag_102\n      swap2\n      swap1\n      tag_82\n      jump\t// in\n    tag_102:\n      swap3\n      pop\n      pop\n      dup2\n      swap1\n      sstore\n      pop\n        /* \"Bid.sol\":4640:4642  to */\n      dup3\n        /* \"Bid.sol\":4631:4648  Withdraw(to, bal) */\n      0xffffffffffffffffffffffffffffffffffffffff\n      and\n      0x884edad9ce6fa2440d8a54cc123490eb96d2768479d49ff9c7366125a9424364\n        /* \"Bid.sol\":4644:4647  bal */\n      dup3\n        /* \"Bid.sol\":4631:4648  Withdraw(to, bal) */\n      mload(0x40)\n      tag_103\n      swap2\n      swap1\n      tag_27\n      jump\t// in\n    tag_103:\n      mload(0x40)\n      dup1\n      swap2\n      sub\n      swap1\n      log2\n        /* \"Bid.sol\":4350:4656  {\r... */\n      pop\n      pop\n        /* \"Bid.sol\":4266:4656  function autoWithdraw(address tokenAddr_, uint tokenId_, address to) public payable {\r... */\n      pop\n      pop\n      pop\n      jump\t// out\n        /* \"Bid.sol\":720:740  uint public balances */\n    tag_25:\n      sload(0x01)\n      dup2\n      jump\t// out\n        /* \"Bid.sol\":4664:4847  function getPrice(address contractAddr, address tokenAddr, uint tokenId) public view returns(uint256 price) {\r... */\n    tag_32:\n        /* \"Bid.sol\":4757:4770  uint256 price */\n      0x00\n        /* \"Bid.sol\":4797:4809  contractAddr */\n      dup4\n        /* \"Bid.sol\":4790:4819  Market(contractAddr).getPrice */\n      0xffffffffffffffffffffffffffffffffffffffff\n      and\n      0x449e815d\n        /* \"Bid.sol\":4820:4829  tokenAddr */\n      dup5\n        /* \"Bid.sol\":4831:4838  tokenId */\n      dup5\n        /* \"Bid.sol\":4790:4839  Market(contractAddr).getPrice(tokenAddr, tokenId) */\n      mload(0x40)\n      dup4\n      0xffffffff\n      and\n      0xe0\n      shl\n      dup2\n      mstore\n      0x04\n      add\n      tag_105\n      swap3\n      swap2\n      swap1\n      tag_94\n      jump\t// in\n    tag_105:\n      0x20\n      mload(0x40)\n      dup1\n      dup4\n      sub\n      dup2\n      dup7\n      dup1\n      extcodesize\n      iszero\n      dup1\n      iszero\n      tag_106\n      jumpi\n      0x00\n      dup1\n      revert\n    tag_106:\n      pop\n      gas\n      staticcall\n      iszero\n      dup1\n      iszero\n      tag_108\n      jumpi\n      returndatasize\n      0x00\n      dup1\n      returndatacopy\n      revert(0x00, returndatasize)\n    tag_108:\n      pop\n      pop\n      pop\n      pop\n      mload(0x40)\n      returndatasize\n      not(0x1f)\n      0x1f\n      dup3\n      add\n      and\n      dup3\n      add\n      dup1\n      0x40\n      mstore\n      pop\n      dup2\n      add\n      swap1\n      tag_109\n      swap2\n      swap1\n      tag_110\n      jump\t// in\n    tag_109:\n        /* \"Bid.sol\":4783:4839  return Market(contractAddr).getPrice(tokenAddr, tokenId) */\n      swap1\n      pop\n        /* \"Bid.sol\":4664:4847  function getPrice(address contractAddr, address tokenAddr, uint tokenId) public view returns(uint256 price) {\r... */\n      swap4\n      swap3\n      pop\n      pop\n      pop\n      jump\t// out\n        /* \"Bid.sol\":1076:1913  function start(address _tokenAddr, uint _tokenId, uint startingBid, uint dayAmount) external {\r... */\n    tag_38:\n        /* \"Bid.sol\":1180:1200  Bidding storage _bid */\n      0x00\n        /* \"Bid.sol\":1203:1211  biddings */\n      dup1\n        /* \"Bid.sol\":1203:1223  biddings[_tokenAddr] */\n      0x00\n        /* \"Bid.sol\":1212:1222  _tokenAddr */\n      dup7\n        /* \"Bid.sol\":1203:1223  biddings[_tokenAddr] */\n      0xffffffffffffffffffffffffffffffffffffffff\n      and\n      0xffffffffffffffffffffffffffffffffffffffff\n      and\n      dup2\n      mstore\n      0x20\n      add\n      swap1\n      dup2\n      mstore\n      0x20\n      add\n      0x00\n      keccak256\n        /* \"Bid.sol\":1203:1233  biddings[_tokenAddr][_tokenId] */\n      0x00\n        /* \"Bid.sol\":1224:1232  _tokenId */\n      dup6\n        /* \"Bid.sol\":1203:1233  biddings[_tokenAddr][_tokenId] */\n      dup2\n      mstore\n      0x20\n      add\n      swap1\n      dup2\n      mstore\n      0x20\n      add\n      0x00\n      keccak256\n        /* \"Bid.sol\":1180:1233  Bidding storage _bid = biddings[_tokenAddr][_tokenId] */\n      swap1\n      pop\n        /* \"Bid.sol\":1268:1278  _tokenAddr */\n      dup5\n        /* \"Bid.sol\":1244:1248  _bid */\n      dup2\n        /* \"Bid.sol\":1244:1258  _bid.tokenAddr */\n      0x02\n      add\n      0x00\n        /* \"Bid.sol\":1244:1279  _bid.tokenAddr = ERC721(_tokenAddr) */\n      0x0100\n      exp\n      dup2\n      sload\n      dup2\n      0xffffffffffffffffffffffffffffffffffffffff\n      mul\n      not\n      and\n      swap1\n      dup4\n      0xffffffffffffffffffffffffffffffffffffffff\n      and\n      mul\n      or\n      swap1\n      sstore\n      pop\n        /* \"Bid.sol\":1304:1308  _bid */\n      dup1\n        /* \"Bid.sol\":1304:1318  _bid.tokenAddr */\n      0x02\n      add\n      0x00\n      swap1\n      sload\n      swap1\n      0x0100\n      exp\n      swap1\n      div\n      0xffffffffffffffffffffffffffffffffffffffff\n      and\n        /* \"Bid.sol\":1304:1326  _bid.tokenAddr.ownerOf */\n      0xffffffffffffffffffffffffffffffffffffffff\n      and\n      0x6352211e\n        /* \"Bid.sol\":1327:1335  _tokenId */\n      dup6\n        /* \"Bid.sol\":1304:1336  _bid.tokenAddr.ownerOf(_tokenId) */\n      mload(0x40)\n      dup3\n      0xffffffff\n      and\n      0xe0\n      shl\n      dup2\n      mstore\n      0x04\n      add\n      tag_112\n      swap2\n      swap1\n      tag_27\n      jump\t// in\n    tag_112:\n      0x20\n      mload(0x40)\n      dup1\n      dup4\n      sub\n      dup2\n      dup7\n      dup1\n      extcodesize\n      iszero\n      dup1\n      iszero\n      tag_113\n      jumpi\n      0x00\n      dup1\n      revert\n    tag_113:\n      pop\n      gas\n      staticcall\n      iszero\n      dup1\n      iszero\n      tag_115\n      jumpi\n      returndatasize\n      0x00\n      dup1\n      returndatacopy\n      revert(0x00, returndatasize)\n    tag_115:\n      pop\n      pop\n      pop\n      pop\n      mload(0x40)\n      returndatasize\n      not(0x1f)\n      0x1f\n      dup3\n      add\n      and\n      dup3\n      add\n      dup1\n      0x40\n      mstore\n      pop\n      dup2\n      add\n      swap1\n      tag_116\n      swap2\n      swap1\n      tag_117\n      jump\t// in\n    tag_116:\n        /* \"Bid.sol\":1290:1294  _bid */\n      dup2\n        /* \"Bid.sol\":1290:1301  _bid.seller */\n      0x00\n      add\n      0x00\n        /* \"Bid.sol\":1290:1336  _bid.seller = _bid.tokenAddr.ownerOf(_tokenId) */\n      0x0100\n      exp\n      dup2\n      sload\n      dup2\n      0xffffffffffffffffffffffffffffffffffffffff\n      mul\n      not\n      and\n      swap1\n      dup4\n      0xffffffffffffffffffffffffffffffffffffffff\n      and\n      mul\n      or\n      swap1\n      sstore\n      pop\n        /* \"Bid.sol\":1360:1365  false */\n      0x00\n        /* \"Bid.sol\":1347:1351  _bid */\n      dup2\n        /* \"Bid.sol\":1347:1357  _bid.ended */\n      0x00\n      add\n      0x15\n        /* \"Bid.sol\":1347:1365  _bid.ended = false */\n      0x0100\n      exp\n      dup2\n      sload\n      dup2\n      0xff\n      mul\n      not\n      and\n      swap1\n      dup4\n      iszero\n      iszero\n      mul\n      or\n      swap1\n      sstore\n      pop\n        /* \"Bid.sol\":1387:1391  _bid */\n      dup1\n        /* \"Bid.sol\":1387:1399  _bid.started */\n      0x00\n      add\n      0x14\n      swap1\n      sload\n      swap1\n      0x0100\n      exp\n      swap1\n      div\n      0xff\n      and\n        /* \"Bid.sol\":1386:1399  !_bid.started */\n      iszero\n        /* \"Bid.sol\":1378:1420  require(!_bid.started, \"Already started!\") */\n      tag_118\n      jumpi\n      mload(0x40)\n      0x08c379a000000000000000000000000000000000000000000000000000000000\n      dup2\n      mstore\n      0x04\n      add\n      tag_119\n      swap1\n      tag_120\n      jump\t// in\n    tag_119:\n      mload(0x40)\n      dup1\n      swap2\n      sub\n      swap1\n      revert\n    tag_118:\n        /* \"Bid.sol\":1453:1457  _bid */\n      dup1\n        /* \"Bid.sol\":1453:1464  _bid.seller */\n      0x00\n      add\n      0x00\n      swap1\n      sload\n      swap1\n      0x0100\n      exp\n      swap1\n      div\n      0xffffffffffffffffffffffffffffffffffffffff\n      and\n        /* \"Bid.sol\":1439:1464  msg.sender == _bid.seller */\n      0xffffffffffffffffffffffffffffffffffffffff\n      and\n        /* \"Bid.sol\":1439:1449  msg.sender */\n      caller\n        /* \"Bid.sol\":1439:1464  msg.sender == _bid.seller */\n      0xffffffffffffffffffffffffffffffffffffffff\n      and\n      eq\n        /* \"Bid.sol\":1431:1499  require(msg.sender == _bid.seller, \"You can not start the auction!\") */\n      tag_121\n      jumpi\n      mload(0x40)\n      0x08c379a000000000000000000000000000000000000000000000000000000000\n      dup2\n      mstore\n      0x04\n      add\n      tag_122\n      swap1\n      tag_123\n      jump\t// in\n    tag_122:\n      mload(0x40)\n      dup1\n      swap2\n      sub\n      swap1\n      revert\n    tag_121:\n        /* \"Bid.sol\":1536:1537  0 */\n      0x00\n        /* \"Bid.sol\":1520:1524  _bid */\n      dup2\n        /* \"Bid.sol\":1520:1533  _bid.bidCount */\n      0x04\n      add\n        /* \"Bid.sol\":1520:1537  _bid.bidCount = 0 */\n      dup2\n      swap1\n      sstore\n      pop\n        /* \"Bid.sol\":1581:1592  startingBid */\n      dup3\n        /* \"Bid.sol\":1548:1552  _bid */\n      dup2\n        /* \"Bid.sol\":1548:1563  _bid.highestBid */\n      0x05\n      add\n        /* \"Bid.sol\":1548:1578  _bid.highestBid[_bid.bidCount] */\n      0x00\n        /* \"Bid.sol\":1564:1568  _bid */\n      dup4\n        /* \"Bid.sol\":1564:1577  _bid.bidCount */\n      0x04\n      add\n      sload\n        /* \"Bid.sol\":1548:1578  _bid.highestBid[_bid.bidCount] */\n      dup2\n      mstore\n      0x20\n      add\n      swap1\n      dup2\n      mstore\n      0x20\n      add\n      0x00\n      keccak256\n        /* \"Bid.sol\":1548:1592  _bid.highestBid[_bid.bidCount] = startingBid */\n      dup2\n      swap1\n      sstore\n      pop\n        /* \"Bid.sol\":1603:1607  _bid */\n      dup1\n        /* \"Bid.sol\":1603:1616  _bid.bidCount */\n      0x04\n      add\n      0x00\n        /* \"Bid.sol\":1603:1618  _bid.bidCount++ */\n      dup2\n      sload\n      dup1\n      swap3\n      swap2\n      swap1\n      tag_124\n      swap1\n      tag_59\n      jump\t// in\n    tag_124:\n      swap2\n      swap1\n      pop\n      sstore\n      pop\n        /* \"Bid.sol\":1654:1662  _tokenId */\n      dup4\n        /* \"Bid.sol\":1639:1643  _bid */\n      dup2\n        /* \"Bid.sol\":1639:1651  _bid.tokenId */\n      0x03\n      add\n        /* \"Bid.sol\":1639:1662  _bid.tokenId = _tokenId */\n      dup2\n      swap1\n      sstore\n      pop\n        /* \"Bid.sol\":1673:1677  _bid */\n      dup1\n        /* \"Bid.sol\":1673:1687  _bid.tokenAddr */\n      0x02\n      add\n      0x00\n      swap1\n      sload\n      swap1\n      0x0100\n      exp\n      swap1\n      div\n      0xffffffffffffffffffffffffffffffffffffffff\n      and\n        /* \"Bid.sol\":1673:1700  _bid.tokenAddr.transferFrom */\n      0xffffffffffffffffffffffffffffffffffffffff\n      and\n      0x23b872dd\n        /* \"Bid.sol\":1701:1711  msg.sender */\n      caller\n        /* \"Bid.sol\":1721:1725  this */\n      address\n        /* \"Bid.sol\":1728:1732  _bid */\n      dup5\n        /* \"Bid.sol\":1728:1740  _bid.tokenId */\n      0x03\n      add\n      sload\n        /* \"Bid.sol\":1673:1741  _bid.tokenAddr.transferFrom(msg.sender, address(this), _bid.tokenId) */\n      mload(0x40)\n      dup5\n      0xffffffff\n      and\n      0xe0\n      shl\n      dup2\n      mstore\n      0x04\n      add\n      tag_125\n      swap4\n      swap3\n      swap2\n      swap1\n      tag_75\n      jump\t// in\n    tag_125:\n      0x00\n      mload(0x40)\n      dup1\n      dup4\n      sub\n      dup2\n      0x00\n      dup8\n      dup1\n      extcodesize\n      iszero\n      dup1\n      iszero\n      tag_126\n      jumpi\n      0x00\n      dup1\n      revert\n    tag_126:\n      pop\n      gas\n      call\n      iszero\n      dup1\n      iszero\n      tag_128\n      jumpi\n      returndatasize\n      0x00\n      dup1\n      returndatacopy\n      revert(0x00, returndatasize)\n    tag_128:\n      pop\n      pop\n      pop\n      pop\n        /* \"Bid.sol\":1769:1773  true */\n      0x01\n        /* \"Bid.sol\":1754:1758  _bid */\n      dup2\n        /* \"Bid.sol\":1754:1766  _bid.started */\n      0x00\n      add\n      0x14\n        /* \"Bid.sol\":1754:1773  _bid.started = true */\n      0x0100\n      exp\n      dup2\n      sload\n      dup2\n      0xff\n      mul\n      not\n      and\n      swap1\n      dup4\n      iszero\n      iszero\n      mul\n      or\n      swap1\n      sstore\n      pop\n        /* \"Bid.sol\":1828:1834  1 days */\n      0x015180\n        /* \"Bid.sol\":1816:1825  dayAmount */\n      dup3\n        /* \"Bid.sol\":1816:1834  dayAmount * 1 days */\n      tag_129\n      swap2\n      swap1\n      tag_130\n      jump\t// in\n    tag_129:\n        /* \"Bid.sol\":1797:1812  block.timestamp */\n      timestamp\n        /* \"Bid.sol\":1797:1835  block.timestamp + (dayAmount * 1 days) */\n      tag_131\n      swap2\n      swap1\n      tag_61\n      jump\t// in\n    tag_131:\n        /* \"Bid.sol\":1784:1788  _bid */\n      dup2\n        /* \"Bid.sol\":1784:1794  _bid.endAt */\n      0x01\n      add\n        /* \"Bid.sol\":1784:1835  _bid.endAt = block.timestamp + (dayAmount * 1 days) */\n      dup2\n      swap1\n      sstore\n      pop\n        /* \"Bid.sol\":1871:1879  _tokenId */\n      dup4\n        /* \"Bid.sol\":1859:1869  _tokenAddr */\n      dup6\n        /* \"Bid.sol\":1853:1905  Start(_tokenAddr, _tokenId, startingBid, _bid.endAt) */\n      0xffffffffffffffffffffffffffffffffffffffff\n      and\n      0x3b305515dbe345238649f5ce343c57ae67d5727443f8d744b2b793c3231e3ad9\n        /* \"Bid.sol\":1881:1892  startingBid */\n      dup6\n        /* \"Bid.sol\":1894:1898  _bid */\n      dup5\n        /* \"Bid.sol\":1894:1904  _bid.endAt */\n      0x01\n      add\n      sload\n        /* \"Bid.sol\":1853:1905  Start(_tokenAddr, _tokenId, startingBid, _bid.endAt) */\n      mload(0x40)\n      tag_132\n      swap3\n      swap2\n      swap1\n      tag_133\n      jump\t// in\n    tag_132:\n      mload(0x40)\n      dup1\n      swap2\n      sub\n      swap1\n      log3\n        /* \"Bid.sol\":1169:1913  {\r... */\n      pop\n        /* \"Bid.sol\":1076:1913  function start(address _tokenAddr, uint _tokenId, uint startingBid, uint dayAmount) external {\r... */\n      pop\n      pop\n      pop\n      pop\n      jump\t// out\n        /* \"Bid.sol\":2600:3206  function withdraw(address _tokenAddr, uint _tokenId) external payable {\r... */\n    tag_41:\n        /* \"Bid.sol\":2681:2701  Bidding storage _bid */\n      0x00\n        /* \"Bid.sol\":2704:2712  biddings */\n      dup1\n        /* \"Bid.sol\":2704:2724  biddings[_tokenAddr] */\n      0x00\n        /* \"Bid.sol\":2713:2723  _tokenAddr */\n      dup5\n        /* \"Bid.sol\":2704:2724  biddings[_tokenAddr] */\n      0xffffffffffffffffffffffffffffffffffffffff\n      and\n      0xffffffffffffffffffffffffffffffffffffffff\n      and\n      dup2\n      mstore\n      0x20\n      add\n      swap1\n      dup2\n      mstore\n      0x20\n      add\n      0x00\n      keccak256\n        /* \"Bid.sol\":2704:2734  biddings[_tokenAddr][_tokenId] */\n      0x00\n        /* \"Bid.sol\":2725:2733  _tokenId */\n      dup4\n        /* \"Bid.sol\":2704:2734  biddings[_tokenAddr][_tokenId] */\n      dup2\n      mstore\n      0x20\n      add\n      swap1\n      dup2\n      mstore\n      0x20\n      add\n      0x00\n      keccak256\n        /* \"Bid.sol\":2681:2734  Bidding storage _bid = biddings[_tokenAddr][_tokenId] */\n      swap1\n      pop\n        /* \"Bid.sol\":2745:2753  uint bal */\n      0x00\n        /* \"Bid.sol\":2756:2760  _bid */\n      dup2\n        /* \"Bid.sol\":2756:2765  _bid.bids */\n      0x07\n      add\n        /* \"Bid.sol\":2756:2777  _bid.bids[msg.sender] */\n      0x00\n        /* \"Bid.sol\":2766:2776  msg.sender */\n      caller\n        /* \"Bid.sol\":2756:2777  _bid.bids[msg.sender] */\n      0xffffffffffffffffffffffffffffffffffffffff\n      and\n      0xffffffffffffffffffffffffffffffffffffffff\n      and\n      dup2\n      mstore\n      0x20\n      add\n      swap1\n      dup2\n      mstore\n      0x20\n      add\n      0x00\n      keccak256\n      sload\n        /* \"Bid.sol\":2745:2777  uint bal = _bid.bids[msg.sender] */\n      swap1\n      pop\n        /* \"Bid.sol\":2805:2806  0 */\n      0x00\n        /* \"Bid.sol\":2798:2801  bal */\n      dup2\n        /* \"Bid.sol\":2798:2806  bal != 0 */\n      eq\n      iszero\n        /* \"Bid.sol\":2798:2825  bal != 0 && bal <= balances */\n      dup1\n      iszero\n      tag_135\n      jumpi\n      pop\n        /* \"Bid.sol\":2817:2825  balances */\n      sload(0x01)\n        /* \"Bid.sol\":2810:2813  bal */\n      dup2\n        /* \"Bid.sol\":2810:2825  bal <= balances */\n      gt\n      iszero\n        /* \"Bid.sol\":2798:2825  bal != 0 && bal <= balances */\n    tag_135:\n        /* \"Bid.sol\":2790:2848  require(bal != 0 && bal <= balances, \"Could not withdraw\") */\n      tag_136\n      jumpi\n      mload(0x40)\n      0x08c379a000000000000000000000000000000000000000000000000000000000\n      dup2\n      mstore\n      0x04\n      add\n      tag_137\n      swap1\n      tag_99\n      jump\t// in\n    tag_137:\n      mload(0x40)\n      dup1\n      swap2\n      sub\n      swap1\n      revert\n    tag_136:\n        /* \"Bid.sol\":2879:2883  _bid */\n      dup2\n        /* \"Bid.sol\":2879:2897  _bid.highestBidder */\n      0x06\n      add\n        /* \"Bid.sol\":2879:2912  _bid.highestBidder[_bid.bidCount] */\n      0x00\n        /* \"Bid.sol\":2898:2902  _bid */\n      dup4\n        /* \"Bid.sol\":2898:2911  _bid.bidCount */\n      0x04\n      add\n      sload\n        /* \"Bid.sol\":2879:2912  _bid.highestBidder[_bid.bidCount] */\n      dup2\n      mstore\n      0x20\n      add\n      swap1\n      dup2\n      mstore\n      0x20\n      add\n      0x00\n      keccak256\n      0x00\n      swap1\n      sload\n      swap1\n      0x0100\n      exp\n      swap1\n      div\n      0xffffffffffffffffffffffffffffffffffffffff\n      and\n        /* \"Bid.sol\":2865:2912  msg.sender == _bid.highestBidder[_bid.bidCount] */\n      0xffffffffffffffffffffffffffffffffffffffff\n      and\n        /* \"Bid.sol\":2865:2875  msg.sender */\n      caller\n        /* \"Bid.sol\":2865:2912  msg.sender == _bid.highestBidder[_bid.bidCount] */\n      0xffffffffffffffffffffffffffffffffffffffff\n      and\n      eq\n        /* \"Bid.sol\":2861:3046  if (msg.sender == _bid.highestBidder[_bid.bidCount]) {\r... */\n      iszero\n      tag_138\n      jumpi\n        /* \"Bid.sol\":2931:2935  _bid */\n      dup2\n        /* \"Bid.sol\":2931:2944  _bid.bidCount */\n      0x04\n      add\n      0x00\n        /* \"Bid.sol\":2929:2944  --_bid.bidCount */\n      dup2\n      sload\n      tag_139\n      swap1\n      tag_140\n      jump\t// in\n    tag_139:\n      swap2\n      swap1\n      pop\n      dup2\n      swap1\n      sstore\n      pop\n        /* \"Bid.sol\":2968:2972  _bid */\n      dup2\n        /* \"Bid.sol\":2968:2986  _bid.highestBidder */\n      0x06\n      add\n        /* \"Bid.sol\":2968:3001  _bid.highestBidder[_bid.bidCount] */\n      0x00\n        /* \"Bid.sol\":2987:2991  _bid */\n      dup4\n        /* \"Bid.sol\":2987:3000  _bid.bidCount */\n      0x04\n      add\n      sload\n        /* \"Bid.sol\":2968:3001  _bid.highestBidder[_bid.bidCount] */\n      dup2\n      mstore\n      0x20\n      add\n      swap1\n      dup2\n      mstore\n      0x20\n      add\n      0x00\n      keccak256\n      0x00\n      swap1\n      sload\n      swap1\n      0x0100\n      exp\n      swap1\n      div\n      0xffffffffffffffffffffffffffffffffffffffff\n      and\n        /* \"Bid.sol\":2964:3034  Bid(_bid.highestBidder[_bid.bidCount], _bid.highestBid[_bid.bidCount]) */\n      0xffffffffffffffffffffffffffffffffffffffff\n      and\n      0xe684a55f31b79eca403df938249029212a5925ec6be8012e099b45bc1019e5d2\n        /* \"Bid.sol\":3003:3007  _bid */\n      dup4\n        /* \"Bid.sol\":3003:3018  _bid.highestBid */\n      0x05\n      add\n        /* \"Bid.sol\":3003:3033  _bid.highestBid[_bid.bidCount] */\n      0x00\n        /* \"Bid.sol\":3019:3023  _bid */\n      dup6\n        /* \"Bid.sol\":3019:3032  _bid.bidCount */\n      0x04\n      add\n      sload\n        /* \"Bid.sol\":3003:3033  _bid.highestBid[_bid.bidCount] */\n      dup2\n      mstore\n      0x20\n      add\n      swap1\n      dup2\n      mstore\n      0x20\n      add\n      0x00\n      keccak256\n      sload\n        /* \"Bid.sol\":2964:3034  Bid(_bid.highestBidder[_bid.bidCount], _bid.highestBid[_bid.bidCount]) */\n      mload(0x40)\n      tag_141\n      swap2\n      swap1\n      tag_27\n      jump\t// in\n    tag_141:\n      mload(0x40)\n      dup1\n      swap2\n      sub\n      swap1\n      log2\n        /* \"Bid.sol\":2861:3046  if (msg.sender == _bid.highestBidder[_bid.bidCount]) {\r... */\n    tag_138:\n        /* \"Bid.sol\":3082:3083  0 */\n      0x00\n        /* \"Bid.sol\":3058:3062  _bid */\n      dup3\n        /* \"Bid.sol\":3058:3067  _bid.bids */\n      0x07\n      add\n        /* \"Bid.sol\":3058:3079  _bid.bids[msg.sender] */\n      0x00\n        /* \"Bid.sol\":3068:3078  msg.sender */\n      caller\n        /* \"Bid.sol\":3058:3079  _bid.bids[msg.sender] */\n      0xffffffffffffffffffffffffffffffffffffffff\n      and\n      0xffffffffffffffffffffffffffffffffffffffff\n      and\n      dup2\n      mstore\n      0x20\n      add\n      swap1\n      dup2\n      mstore\n      0x20\n      add\n      0x00\n      keccak256\n        /* \"Bid.sol\":3058:3083  _bid.bids[msg.sender] = 0 */\n      dup2\n      swap1\n      sstore\n      pop\n        /* \"Bid.sol\":3104:3114  msg.sender */\n      caller\n        /* \"Bid.sol\":3096:3124  payable(msg.sender).transfer */\n      0xffffffffffffffffffffffffffffffffffffffff\n      and\n        /* \"Bid.sol\":3096:3129  payable(msg.sender).transfer(bal) */\n      0x08fc\n        /* \"Bid.sol\":3125:3128  bal */\n      dup3\n        /* \"Bid.sol\":3096:3129  payable(msg.sender).transfer(bal) */\n      swap1\n      dup2\n      iszero\n      mul\n      swap1\n      mload(0x40)\n      0x00\n      mload(0x40)\n      dup1\n      dup4\n      sub\n      dup2\n      dup6\n      dup9\n      dup9\n      call\n      swap4\n      pop\n      pop\n      pop\n      pop\n      iszero\n      dup1\n      iszero\n      tag_143\n      jumpi\n      returndatasize\n      0x00\n      dup1\n      returndatacopy\n      revert(0x00, returndatasize)\n    tag_143:\n      pop\n        /* \"Bid.sol\":3152:3155  bal */\n      dup1\n        /* \"Bid.sol\":3140:3148  balances */\n      0x01\n      0x00\n        /* \"Bid.sol\":3140:3155  balances -= bal */\n      dup3\n      dup3\n      sload\n      tag_144\n      swap2\n      swap1\n      tag_82\n      jump\t// in\n    tag_144:\n      swap3\n      pop\n      pop\n      dup2\n      swap1\n      sstore\n      pop\n        /* \"Bid.sol\":3182:3192  msg.sender */\n      caller\n        /* \"Bid.sol\":3173:3198  Withdraw(msg.sender, bal) */\n      0xffffffffffffffffffffffffffffffffffffffff\n      and\n      0x884edad9ce6fa2440d8a54cc123490eb96d2768479d49ff9c7366125a9424364\n        /* \"Bid.sol\":3194:3197  bal */\n      dup3\n        /* \"Bid.sol\":3173:3198  Withdraw(msg.sender, bal) */\n      mload(0x40)\n      tag_145\n      swap2\n      swap1\n      tag_27\n      jump\t// in\n    tag_145:\n      mload(0x40)\n      dup1\n      swap2\n      sub\n      swap1\n      log2\n        /* \"Bid.sol\":2670:3206  {\r... */\n      pop\n      pop\n        /* \"Bid.sol\":2600:3206  function withdraw(address _tokenAddr, uint _tokenId) external payable {\r... */\n      pop\n      pop\n      jump\t// out\n        /* \"Bid.sol\":652:711  mapping(address =>mapping(uint => Bidding)) public biddings */\n    tag_45:\n      mstore(0x20, 0x00)\n      dup2\n      0x00\n      mstore\n      mstore(0x20, keccak256(0x00, 0x40))\n      dup1\n      0x00\n      mstore\n      keccak256(0x00, 0x40)\n      0x00\n      swap2\n      pop\n      swap2\n      pop\n      pop\n      dup1\n      0x00\n      add\n      0x00\n      swap1\n      sload\n      swap1\n      0x0100\n      exp\n      swap1\n      div\n      0xffffffffffffffffffffffffffffffffffffffff\n      and\n      swap1\n      dup1\n      0x00\n      add\n      0x14\n      swap1\n      sload\n      swap1\n      0x0100\n      exp\n      swap1\n      div\n      0xff\n      and\n      swap1\n      dup1\n      0x00\n      add\n      0x15\n      swap1\n      sload\n      swap1\n      0x0100\n      exp\n      swap1\n      div\n      0xff\n      and\n      swap1\n      dup1\n      0x01\n      add\n      sload\n      swap1\n      dup1\n      0x02\n      add\n      0x00\n      swap1\n      sload\n      swap1\n      0x0100\n      exp\n      swap1\n      div\n      0xffffffffffffffffffffffffffffffffffffffff\n      and\n      swap1\n      dup1\n      0x03\n      add\n      sload\n      swap1\n      dup1\n      0x04\n      add\n      sload\n      swap1\n      pop\n      dup8\n      jump\t// out\n        /* \"#utility.yul\":7:146   */\n    tag_147:\n        /* \"#utility.yul\":53:58   */\n      0x00\n        /* \"#utility.yul\":91:97   */\n      dup2\n        /* \"#utility.yul\":78:98   */\n      calldataload\n        /* \"#utility.yul\":69:98   */\n      swap1\n      pop\n        /* \"#utility.yul\":107:140   */\n      tag_149\n        /* \"#utility.yul\":134:139   */\n      dup2\n        /* \"#utility.yul\":107:140   */\n      tag_150\n      jump\t// in\n    tag_149:\n        /* \"#utility.yul\":7:146   */\n      swap3\n      swap2\n      pop\n      pop\n      jump\t// out\n        /* \"#utility.yul\":152:295   */\n    tag_151:\n        /* \"#utility.yul\":209:214   */\n      0x00\n        /* \"#utility.yul\":240:246   */\n      dup2\n        /* \"#utility.yul\":234:247   */\n      mload\n        /* \"#utility.yul\":225:247   */\n      swap1\n      pop\n        /* \"#utility.yul\":256:289   */\n      tag_153\n        /* \"#utility.yul\":283:288   */\n      dup2\n        /* \"#utility.yul\":256:289   */\n      tag_150\n      jump\t// in\n    tag_153:\n        /* \"#utility.yul\":152:295   */\n      swap3\n      swap2\n      pop\n      pop\n      jump\t// out\n        /* \"#utility.yul\":301:440   */\n    tag_154:\n        /* \"#utility.yul\":347:352   */\n      0x00\n        /* \"#utility.yul\":385:391   */\n      dup2\n        /* \"#utility.yul\":372:392   */\n      calldataload\n        /* \"#utility.yul\":363:392   */\n      swap1\n      pop\n        /* \"#utility.yul\":401:434   */\n      tag_156\n        /* \"#utility.yul\":428:433   */\n      dup2\n        /* \"#utility.yul\":401:434   */\n      tag_157\n      jump\t// in\n    tag_156:\n        /* \"#utility.yul\":301:440   */\n      swap3\n      swap2\n      pop\n      pop\n      jump\t// out\n        /* \"#utility.yul\":446:589   */\n    tag_158:\n        /* \"#utility.yul\":503:508   */\n      0x00\n        /* \"#utility.yul\":534:540   */\n      dup2\n        /* \"#utility.yul\":528:541   */\n      mload\n        /* \"#utility.yul\":519:541   */\n      swap1\n      pop\n        /* \"#utility.yul\":550:583   */\n      tag_160\n        /* \"#utility.yul\":577:582   */\n      dup2\n        /* \"#utility.yul\":550:583   */\n      tag_157\n      jump\t// in\n    tag_160:\n        /* \"#utility.yul\":446:589   */\n      swap3\n      swap2\n      pop\n      pop\n      jump\t// out\n        /* \"#utility.yul\":595:946   */\n    tag_117:\n        /* \"#utility.yul\":665:671   */\n      0x00\n        /* \"#utility.yul\":714:716   */\n      0x20\n        /* \"#utility.yul\":702:711   */\n      dup3\n        /* \"#utility.yul\":693:700   */\n      dup5\n        /* \"#utility.yul\":689:712   */\n      sub\n        /* \"#utility.yul\":685:717   */\n      slt\n        /* \"#utility.yul\":682:801   */\n      iszero\n      tag_162\n      jumpi\n        /* \"#utility.yul\":720:799   */\n      tag_163\n      tag_164\n      jump\t// in\n    tag_163:\n        /* \"#utility.yul\":682:801   */\n    tag_162:\n        /* \"#utility.yul\":840:841   */\n      0x00\n        /* \"#utility.yul\":865:929   */\n      tag_165\n        /* \"#utility.yul\":921:928   */\n      dup5\n        /* \"#utility.yul\":912:918   */\n      dup3\n        /* \"#utility.yul\":901:910   */\n      dup6\n        /* \"#utility.yul\":897:919   */\n      add\n        /* \"#utility.yul\":865:929   */\n      tag_151\n      jump\t// in\n    tag_165:\n        /* \"#utility.yul\":855:929   */\n      swap2\n      pop\n        /* \"#utility.yul\":811:939   */\n      pop\n        /* \"#utility.yul\":595:946   */\n      swap3\n      swap2\n      pop\n      pop\n      jump\t// out\n        /* \"#utility.yul\":952:1571   */\n    tag_31:\n        /* \"#utility.yul\":1029:1035   */\n      0x00\n        /* \"#utility.yul\":1037:1043   */\n      dup1\n        /* \"#utility.yul\":1045:1051   */\n      0x00\n        /* \"#utility.yul\":1094:1096   */\n      0x60\n        /* \"#utility.yul\":1082:1091   */\n      dup5\n        /* \"#utility.yul\":1073:1080   */\n      dup7\n        /* \"#utility.yul\":1069:1092   */\n      sub\n        /* \"#utility.yul\":1065:1097   */\n      slt\n        /* \"#utility.yul\":1062:1181   */\n      iszero\n      tag_167\n      jumpi\n        /* \"#utility.yul\":1100:1179   */\n      tag_168\n      tag_164\n      jump\t// in\n    tag_168:\n        /* \"#utility.yul\":1062:1181   */\n    tag_167:\n        /* \"#utility.yul\":1220:1221   */\n      0x00\n        /* \"#utility.yul\":1245:1298   */\n      tag_169\n        /* \"#utility.yul\":1290:1297   */\n      dup7\n        /* \"#utility.yul\":1281:1287   */\n      dup3\n        /* \"#utility.yul\":1270:1279   */\n      dup8\n        /* \"#utility.yul\":1266:1288   */\n      add\n        /* \"#utility.yul\":1245:1298   */\n      tag_147\n      jump\t// in\n    tag_169:\n        /* \"#utility.yul\":1235:1298   */\n      swap4\n      pop\n        /* \"#utility.yul\":1191:1308   */\n      pop\n        /* \"#utility.yul\":1347:1349   */\n      0x20\n        /* \"#utility.yul\":1373:1426   */\n      tag_170\n        /* \"#utility.yul\":1418:1425   */\n      dup7\n        /* \"#utility.yul\":1409:1415   */\n      dup3\n        /* \"#utility.yul\":1398:1407   */\n      dup8\n        /* \"#utility.yul\":1394:1416   */\n      add\n        /* \"#utility.yul\":1373:1426   */\n      tag_147\n      jump\t// in\n    tag_170:\n        /* \"#utility.yul\":1363:1426   */\n      swap3\n      pop\n        /* \"#utility.yul\":1318:1436   */\n      pop\n        /* \"#utility.yul\":1475:1477   */\n      0x40\n        /* \"#utility.yul\":1501:1554   */\n      tag_171\n        /* \"#utility.yul\":1546:1553   */\n      dup7\n        /* \"#utility.yul\":1537:1543   */\n      dup3\n        /* \"#utility.yul\":1526:1535   */\n      dup8\n        /* \"#utility.yul\":1522:1544   */\n      add\n        /* \"#utility.yul\":1501:1554   */\n      tag_154\n      jump\t// in\n    tag_171:\n        /* \"#utility.yul\":1491:1554   */\n      swap2\n      pop\n        /* \"#utility.yul\":1446:1564   */\n      pop\n        /* \"#utility.yul\":952:1571   */\n      swap3\n      pop\n      swap3\n      pop\n      swap3\n      jump\t// out\n        /* \"#utility.yul\":1577:2051   */\n    tag_13:\n        /* \"#utility.yul\":1645:1651   */\n      0x00\n        /* \"#utility.yul\":1653:1659   */\n      dup1\n        /* \"#utility.yul\":1702:1704   */\n      0x40\n        /* \"#utility.yul\":1690:1699   */\n      dup4\n        /* \"#utility.yul\":1681:1688   */\n      dup6\n        /* \"#utility.yul\":1677:1700   */\n      sub\n        /* \"#utility.yul\":1673:1705   */\n      slt\n        /* \"#utility.yul\":1670:1789   */\n      iszero\n      tag_173\n      jumpi\n        /* \"#utility.yul\":1708:1787   */\n      tag_174\n      tag_164\n      jump\t// in\n    tag_174:\n        /* \"#utility.yul\":1670:1789   */\n    tag_173:\n        /* \"#utility.yul\":1828:1829   */\n      0x00\n        /* \"#utility.yul\":1853:1906   */\n      tag_175\n        /* \"#utility.yul\":1898:1905   */\n      dup6\n        /* \"#utility.yul\":1889:1895   */\n      dup3\n        /* \"#utility.yul\":1878:1887   */\n      dup7\n        /* \"#utility.yul\":1874:1896   */\n      add\n        /* \"#utility.yul\":1853:1906   */\n      tag_147\n      jump\t// in\n    tag_175:\n        /* \"#utility.yul\":1843:1906   */\n      swap3\n      pop\n        /* \"#utility.yul\":1799:1916   */\n      pop\n        /* \"#utility.yul\":1955:1957   */\n      0x20\n        /* \"#utility.yul\":1981:2034   */\n      tag_176\n        /* \"#utility.yul\":2026:2033   */\n      dup6\n        /* \"#utility.yul\":2017:2023   */\n      dup3\n        /* \"#utility.yul\":2006:2015   */\n      dup7\n        /* \"#utility.yul\":2002:2024   */\n      add\n        /* \"#utility.yul\":1981:2034   */\n      tag_154\n      jump\t// in\n    tag_176:\n        /* \"#utility.yul\":1971:2034   */\n      swap2\n      pop\n        /* \"#utility.yul\":1926:2044   */\n      pop\n        /* \"#utility.yul\":1577:2051   */\n      swap3\n      pop\n      swap3\n      swap1\n      pop\n      jump\t// out\n        /* \"#utility.yul\":2057:2676   */\n    tag_21:\n        /* \"#utility.yul\":2134:2140   */\n      0x00\n        /* \"#utility.yul\":2142:2148   */\n      dup1\n        /* \"#utility.yul\":2150:2156   */\n      0x00\n        /* \"#utility.yul\":2199:2201   */\n      0x60\n        /* \"#utility.yul\":2187:2196   */\n      dup5\n        /* \"#utility.yul\":2178:2185   */\n      dup7\n        /* \"#utility.yul\":2174:2197   */\n      sub\n        /* \"#utility.yul\":2170:2202   */\n      slt\n        /* \"#utility.yul\":2167:2286   */\n      iszero\n      tag_178\n      jumpi\n        /* \"#utility.yul\":2205:2284   */\n      tag_179\n      tag_164\n      jump\t// in\n    tag_179:\n        /* \"#utility.yul\":2167:2286   */\n    tag_178:\n        /* \"#utility.yul\":2325:2326   */\n      0x00\n        /* \"#utility.yul\":2350:2403   */\n      tag_180\n        /* \"#utility.yul\":2395:2402   */\n      dup7\n        /* \"#utility.yul\":2386:2392   */\n      dup3\n        /* \"#utility.yul\":2375:2384   */\n      dup8\n        /* \"#utility.yul\":2371:2393   */\n      add\n        /* \"#utility.yul\":2350:2403   */\n      tag_147\n      jump\t// in\n    tag_180:\n        /* \"#utility.yul\":2340:2403   */\n      swap4\n      pop\n        /* \"#utility.yul\":2296:2413   */\n      pop\n        /* \"#utility.yul\":2452:2454   */\n      0x20\n        /* \"#utility.yul\":2478:2531   */\n      tag_181\n        /* \"#utility.yul\":2523:2530   */\n      dup7\n        /* \"#utility.yul\":2514:2520   */\n      dup3\n        /* \"#utility.yul\":2503:2512   */\n      dup8\n        /* \"#utility.yul\":2499:2521   */\n      add\n        /* \"#utility.yul\":2478:2531   */\n      tag_154\n      jump\t// in\n    tag_181:\n        /* \"#utility.yul\":2468:2531   */\n      swap3\n      pop\n        /* \"#utility.yul\":2423:2541   */\n      pop\n        /* \"#utility.yul\":2580:2582   */\n      0x40\n        /* \"#utility.yul\":2606:2659   */\n      tag_182\n        /* \"#utility.yul\":2651:2658   */\n      dup7\n        /* \"#utility.yul\":2642:2648   */\n      dup3\n        /* \"#utility.yul\":2631:2640   */\n      dup8\n        /* \"#utility.yul\":2627:2649   */\n      add\n        /* \"#utility.yul\":2606:2659   */\n      tag_147\n      jump\t// in\n    tag_182:\n        /* \"#utility.yul\":2596:2659   */\n      swap2\n      pop\n        /* \"#utility.yul\":2551:2669   */\n      pop\n        /* \"#utility.yul\":2057:2676   */\n      swap3\n      pop\n      swap3\n      pop\n      swap3\n      jump\t// out\n        /* \"#utility.yul\":2682:3447   */\n    tag_37:\n        /* \"#utility.yul\":2768:2774   */\n      0x00\n        /* \"#utility.yul\":2776:2782   */\n      dup1\n        /* \"#utility.yul\":2784:2790   */\n      0x00\n        /* \"#utility.yul\":2792:2798   */\n      dup1\n        /* \"#utility.yul\":2841:2844   */\n      0x80\n        /* \"#utility.yul\":2829:2838   */\n      dup6\n        /* \"#utility.yul\":2820:2827   */\n      dup8\n        /* \"#utility.yul\":2816:2839   */\n      sub\n        /* \"#utility.yul\":2812:2845   */\n      slt\n        /* \"#utility.yul\":2809:2929   */\n      iszero\n      tag_184\n      jumpi\n        /* \"#utility.yul\":2848:2927   */\n      tag_185\n      tag_164\n      jump\t// in\n    tag_185:\n        /* \"#utility.yul\":2809:2929   */\n    tag_184:\n        /* \"#utility.yul\":2968:2969   */\n      0x00\n        /* \"#utility.yul\":2993:3046   */\n      tag_186\n        /* \"#utility.yul\":3038:3045   */\n      dup8\n        /* \"#utility.yul\":3029:3035   */\n      dup3\n        /* \"#utility.yul\":3018:3027   */\n      dup9\n        /* \"#utility.yul\":3014:3036   */\n      add\n        /* \"#utility.yul\":2993:3046   */\n      tag_147\n      jump\t// in\n    tag_186:\n        /* \"#utility.yul\":2983:3046   */\n      swap5\n      pop\n        /* \"#utility.yul\":2939:3056   */\n      pop\n        /* \"#utility.yul\":3095:3097   */\n      0x20\n        /* \"#utility.yul\":3121:3174   */\n      tag_187\n        /* \"#utility.yul\":3166:3173   */\n      dup8\n        /* \"#utility.yul\":3157:3163   */\n      dup3\n        /* \"#utility.yul\":3146:3155   */\n      dup9\n        /* \"#utility.yul\":3142:3164   */\n      add\n        /* \"#utility.yul\":3121:3174   */\n      tag_154\n      jump\t// in\n    tag_187:\n        /* \"#utility.yul\":3111:3174   */\n      swap4\n      pop\n        /* \"#utility.yul\":3066:3184   */\n      pop\n        /* \"#utility.yul\":3223:3225   */\n      0x40\n        /* \"#utility.yul\":3249:3302   */\n      tag_188\n        /* \"#utility.yul\":3294:3301   */\n      dup8\n        /* \"#utility.yul\":3285:3291   */\n      dup3\n        /* \"#utility.yul\":3274:3283   */\n      dup9\n        /* \"#utility.yul\":3270:3292   */\n      add\n        /* \"#utility.yul\":3249:3302   */\n      tag_154\n      jump\t// in\n    tag_188:\n        /* \"#utility.yul\":3239:3302   */\n      swap3\n      pop\n        /* \"#utility.yul\":3194:3312   */\n      pop\n        /* \"#utility.yul\":3351:3353   */\n      0x60\n        /* \"#utility.yul\":3377:3430   */\n      tag_189\n        /* \"#utility.yul\":3422:3429   */\n      dup8\n        /* \"#utility.yul\":3413:3419   */\n      dup3\n        /* \"#utility.yul\":3402:3411   */\n      dup9\n        /* \"#utility.yul\":3398:3420   */\n      add\n        /* \"#utility.yul\":3377:3430   */\n      tag_154\n      jump\t// in\n    tag_189:\n        /* \"#utility.yul\":3367:3430   */\n      swap2\n      pop\n        /* \"#utility.yul\":3322:3440   */\n      pop\n        /* \"#utility.yul\":2682:3447   */\n      swap3\n      swap6\n      swap2\n      swap5\n      pop\n      swap3\n      pop\n      jump\t// out\n        /* \"#utility.yul\":3453:3804   */\n    tag_110:\n        /* \"#utility.yul\":3523:3529   */\n      0x00\n        /* \"#utility.yul\":3572:3574   */\n      0x20\n        /* \"#utility.yul\":3560:3569   */\n      dup3\n        /* \"#utility.yul\":3551:3558   */\n      dup5\n        /* \"#utility.yul\":3547:3570   */\n      sub\n        /* \"#utility.yul\":3543:3575   */\n      slt\n        /* \"#utility.yul\":3540:3659   */\n      iszero\n      tag_191\n      jumpi\n        /* \"#utility.yul\":3578:3657   */\n      tag_192\n      tag_164\n      jump\t// in\n    tag_192:\n        /* \"#utility.yul\":3540:3659   */\n    tag_191:\n        /* \"#utility.yul\":3698:3699   */\n      0x00\n        /* \"#utility.yul\":3723:3787   */\n      tag_193\n        /* \"#utility.yul\":3779:3786   */\n      dup5\n        /* \"#utility.yul\":3770:3776   */\n      dup3\n        /* \"#utility.yul\":3759:3768   */\n      dup6\n        /* \"#utility.yul\":3755:3777   */\n      add\n        /* \"#utility.yul\":3723:3787   */\n      tag_158\n      jump\t// in\n    tag_193:\n        /* \"#utility.yul\":3713:3787   */\n      swap2\n      pop\n        /* \"#utility.yul\":3669:3797   */\n      pop\n        /* \"#utility.yul\":3453:3804   */\n      swap3\n      swap2\n      pop\n      pop\n      jump\t// out\n        /* \"#utility.yul\":3810:3928   */\n    tag_194:\n        /* \"#utility.yul\":3897:3921   */\n      tag_196\n        /* \"#utility.yul\":3915:3920   */\n      dup2\n        /* \"#utility.yul\":3897:3921   */\n      tag_197\n      jump\t// in\n    tag_196:\n        /* \"#utility.yul\":3892:3895   */\n      dup3\n        /* \"#utility.yul\":3885:3922   */\n      mstore\n        /* \"#utility.yul\":3810:3928   */\n      pop\n      pop\n      jump\t// out\n        /* \"#utility.yul\":3934:4043   */\n    tag_198:\n        /* \"#utility.yul\":4015:4036   */\n      tag_200\n        /* \"#utility.yul\":4030:4035   */\n      dup2\n        /* \"#utility.yul\":4015:4036   */\n      tag_201\n      jump\t// in\n    tag_200:\n        /* \"#utility.yul\":4010:4013   */\n      dup3\n        /* \"#utility.yul\":4003:4037   */\n      mstore\n        /* \"#utility.yul\":3934:4043   */\n      pop\n      pop\n      jump\t// out\n        /* \"#utility.yul\":4049:4206   */\n    tag_202:\n        /* \"#utility.yul\":4149:4199   */\n      tag_204\n        /* \"#utility.yul\":4193:4198   */\n      dup2\n        /* \"#utility.yul\":4149:4199   */\n      tag_205\n      jump\t// in\n    tag_204:\n        /* \"#utility.yul\":4144:4147   */\n      dup3\n        /* \"#utility.yul\":4137:4200   */\n      mstore\n        /* \"#utility.yul\":4049:4206   */\n      pop\n      pop\n      jump\t// out\n        /* \"#utility.yul\":4212:4578   */\n    tag_206:\n        /* \"#utility.yul\":4354:4357   */\n      0x00\n        /* \"#utility.yul\":4375:4442   */\n      tag_208\n        /* \"#utility.yul\":4439:4441   */\n      0x0a\n        /* \"#utility.yul\":4434:4437   */\n      dup4\n        /* \"#utility.yul\":4375:4442   */\n      tag_209\n      jump\t// in\n    tag_208:\n        /* \"#utility.yul\":4368:4442   */\n      swap2\n      pop\n        /* \"#utility.yul\":4451:4544   */\n      tag_210\n        /* \"#utility.yul\":4540:4543   */\n      dup3\n        /* \"#utility.yul\":4451:4544   */\n      tag_211\n      jump\t// in\n    tag_210:\n        /* \"#utility.yul\":4569:4571   */\n      0x20\n        /* \"#utility.yul\":4564:4567   */\n      dup3\n        /* \"#utility.yul\":4560:4572   */\n      add\n        /* \"#utility.yul\":4553:4572   */\n      swap1\n      pop\n        /* \"#utility.yul\":4212:4578   */\n      swap2\n      swap1\n      pop\n      jump\t// out\n        /* \"#utility.yul\":4584:4950   */\n    tag_212:\n        /* \"#utility.yul\":4726:4729   */\n      0x00\n        /* \"#utility.yul\":4747:4814   */\n      tag_214\n        /* \"#utility.yul\":4811:4813   */\n      0x19\n        /* \"#utility.yul\":4806:4809   */\n      dup4\n        /* \"#utility.yul\":4747:4814   */\n      tag_209\n      jump\t// in\n    tag_214:\n        /* \"#utility.yul\":4740:4814   */\n      swap2\n      pop\n        /* \"#utility.yul\":4823:4916   */\n      tag_215\n        /* \"#utility.yul\":4912:4915   */\n      dup3\n        /* \"#utility.yul\":4823:4916   */\n      tag_216\n      jump\t// in\n    tag_215:\n        /* \"#utility.yul\":4941:4943   */\n      0x20\n        /* \"#utility.yul\":4936:4939   */\n      dup3\n        /* \"#utility.yul\":4932:4944   */\n      add\n        /* \"#utility.yul\":4925:4944   */\n      swap1\n      pop\n        /* \"#utility.yul\":4584:4950   */\n      swap2\n      swap1\n      pop\n      jump\t// out\n        /* \"#utility.yul\":4956:5322   */\n    tag_217:\n        /* \"#utility.yul\":5098:5101   */\n      0x00\n        /* \"#utility.yul\":5119:5186   */\n      tag_219\n        /* \"#utility.yul\":5183:5185   */\n      0x10\n        /* \"#utility.yul\":5178:5181   */\n      dup4\n        /* \"#utility.yul\":5119:5186   */\n      tag_209\n      jump\t// in\n    tag_219:\n        /* \"#utility.yul\":5112:5186   */\n      swap2\n      pop\n        /* \"#utility.yul\":5195:5288   */\n      tag_220\n        /* \"#utility.yul\":5284:5287   */\n      dup3\n        /* \"#utility.yul\":5195:5288   */\n      tag_221\n      jump\t// in\n    tag_220:\n        /* \"#utility.yul\":5313:5315   */\n      0x20\n        /* \"#utility.yul\":5308:5311   */\n      dup3\n        /* \"#utility.yul\":5304:5316   */\n      add\n        /* \"#utility.yul\":5297:5316   */\n      swap1\n      pop\n        /* \"#utility.yul\":4956:5322   */\n      swap2\n      swap1\n      pop\n      jump\t// out\n        /* \"#utility.yul\":5328:5693   */\n    tag_222:\n        /* \"#utility.yul\":5470:5473   */\n      0x00\n        /* \"#utility.yul\":5491:5557   */\n      tag_224\n        /* \"#utility.yul\":5555:5556   */\n      0x06\n        /* \"#utility.yul\":5550:5553   */\n      dup4\n        /* \"#utility.yul\":5491:5557   */\n      tag_209\n      jump\t// in\n    tag_224:\n        /* \"#utility.yul\":5484:5557   */\n      swap2\n      pop\n        /* \"#utility.yul\":5566:5659   */\n      tag_225\n        /* \"#utility.yul\":5655:5658   */\n      dup3\n        /* \"#utility.yul\":5566:5659   */\n      tag_226\n      jump\t// in\n    tag_225:\n        /* \"#utility.yul\":5684:5686   */\n      0x20\n        /* \"#utility.yul\":5679:5682   */\n      dup3\n        /* \"#utility.yul\":5675:5687   */\n      add\n        /* \"#utility.yul\":5668:5687   */\n      swap1\n      pop\n        /* \"#utility.yul\":5328:5693   */\n      swap2\n      swap1\n      pop\n      jump\t// out\n        /* \"#utility.yul\":5699:6065   */\n    tag_227:\n        /* \"#utility.yul\":5841:5844   */\n      0x00\n        /* \"#utility.yul\":5862:5929   */\n      tag_229\n        /* \"#utility.yul\":5926:5928   */\n      0x18\n        /* \"#utility.yul\":5921:5924   */\n      dup4\n        /* \"#utility.yul\":5862:5929   */\n      tag_209\n      jump\t// in\n    tag_229:\n        /* \"#utility.yul\":5855:5929   */\n      swap2\n      pop\n        /* \"#utility.yul\":5938:6031   */\n      tag_230\n        /* \"#utility.yul\":6027:6030   */\n      dup3\n        /* \"#utility.yul\":5938:6031   */\n      tag_231\n      jump\t// in\n    tag_230:\n        /* \"#utility.yul\":6056:6058   */\n      0x20\n        /* \"#utility.yul\":6051:6054   */\n      dup3\n        /* \"#utility.yul\":6047:6059   */\n      add\n        /* \"#utility.yul\":6040:6059   */\n      swap1\n      pop\n        /* \"#utility.yul\":5699:6065   */\n      swap2\n      swap1\n      pop\n      jump\t// out\n        /* \"#utility.yul\":6071:6437   */\n    tag_232:\n        /* \"#utility.yul\":6213:6216   */\n      0x00\n        /* \"#utility.yul\":6234:6301   */\n      tag_234\n        /* \"#utility.yul\":6298:6300   */\n      0x1e\n        /* \"#utility.yul\":6293:6296   */\n      dup4\n        /* \"#utility.yul\":6234:6301   */\n      tag_209\n      jump\t// in\n    tag_234:\n        /* \"#utility.yul\":6227:6301   */\n      swap2\n      pop\n        /* \"#utility.yul\":6310:6403   */\n      tag_235\n        /* \"#utility.yul\":6399:6402   */\n      dup3\n        /* \"#utility.yul\":6310:6403   */\n      tag_236\n      jump\t// in\n    tag_235:\n        /* \"#utility.yul\":6428:6430   */\n      0x20\n        /* \"#utility.yul\":6423:6426   */\n      dup3\n        /* \"#utility.yul\":6419:6431   */\n      add\n        /* \"#utility.yul\":6412:6431   */\n      swap1\n      pop\n        /* \"#utility.yul\":6071:6437   */\n      swap2\n      swap1\n      pop\n      jump\t// out\n        /* \"#utility.yul\":6443:6809   */\n    tag_237:\n        /* \"#utility.yul\":6585:6588   */\n      0x00\n        /* \"#utility.yul\":6606:6673   */\n      tag_239\n        /* \"#utility.yul\":6670:6672   */\n      0x0c\n        /* \"#utility.yul\":6665:6668   */\n      dup4\n        /* \"#utility.yul\":6606:6673   */\n      tag_209\n      jump\t// in\n    tag_239:\n        /* \"#utility.yul\":6599:6673   */\n      swap2\n      pop\n        /* \"#utility.yul\":6682:6775   */\n      tag_240\n        /* \"#utility.yul\":6771:6774   */\n      dup3\n        /* \"#utility.yul\":6682:6775   */\n      tag_241\n      jump\t// in\n    tag_240:\n        /* \"#utility.yul\":6800:6802   */\n      0x20\n        /* \"#utility.yul\":6795:6798   */\n      dup3\n        /* \"#utility.yul\":6791:6803   */\n      add\n        /* \"#utility.yul\":6784:6803   */\n      swap1\n      pop\n        /* \"#utility.yul\":6443:6809   */\n      swap2\n      swap1\n      pop\n      jump\t// out\n        /* \"#utility.yul\":6815:7181   */\n    tag_242:\n        /* \"#utility.yul\":6957:6960   */\n      0x00\n        /* \"#utility.yul\":6978:7045   */\n      tag_244\n        /* \"#utility.yul\":7042:7044   */\n      0x16\n        /* \"#utility.yul\":7037:7040   */\n      dup4\n        /* \"#utility.yul\":6978:7045   */\n      tag_209\n      jump\t// in\n    tag_244:\n        /* \"#utility.yul\":6971:7045   */\n      swap2\n      pop\n        /* \"#utility.yul\":7054:7147   */\n      tag_245\n        /* \"#utility.yul\":7143:7146   */\n      dup3\n        /* \"#utility.yul\":7054:7147   */\n      tag_246\n      jump\t// in\n    tag_245:\n        /* \"#utility.yul\":7172:7174   */\n      0x20\n        /* \"#utility.yul\":7167:7170   */\n      dup3\n        /* \"#utility.yul\":7163:7175   */\n      add\n        /* \"#utility.yul\":7156:7175   */\n      swap1\n      pop\n        /* \"#utility.yul\":6815:7181   */\n      swap2\n      swap1\n      pop\n      jump\t// out\n        /* \"#utility.yul\":7187:7553   */\n    tag_247:\n        /* \"#utility.yul\":7329:7332   */\n      0x00\n        /* \"#utility.yul\":7350:7417   */\n      tag_249\n        /* \"#utility.yul\":7414:7416   */\n      0x12\n        /* \"#utility.yul\":7409:7412   */\n      dup4\n        /* \"#utility.yul\":7350:7417   */\n      tag_209\n      jump\t// in\n    tag_249:\n        /* \"#utility.yul\":7343:7417   */\n      swap2\n      pop\n        /* \"#utility.yul\":7426:7519   */\n      tag_250\n        /* \"#utility.yul\":7515:7518   */\n      dup3\n        /* \"#utility.yul\":7426:7519   */\n      tag_251\n      jump\t// in\n    tag_250:\n        /* \"#utility.yul\":7544:7546   */\n      0x20\n        /* \"#utility.yul\":7539:7542   */\n      dup3\n        /* \"#utility.yul\":7535:7547   */\n      add\n        /* \"#utility.yul\":7528:7547   */\n      swap1\n      pop\n        /* \"#utility.yul\":7187:7553   */\n      swap2\n      swap1\n      pop\n      jump\t// out\n        /* \"#utility.yul\":7559:7677   */\n    tag_252:\n        /* \"#utility.yul\":7646:7670   */\n      tag_254\n        /* \"#utility.yul\":7664:7669   */\n      dup2\n        /* \"#utility.yul\":7646:7670   */\n      tag_255\n      jump\t// in\n    tag_254:\n        /* \"#utility.yul\":7641:7644   */\n      dup3\n        /* \"#utility.yul\":7634:7671   */\n      mstore\n        /* \"#utility.yul\":7559:7677   */\n      pop\n      pop\n      jump\t// out\n        /* \"#utility.yul\":7683:8125   */\n    tag_75:\n        /* \"#utility.yul\":7832:7836   */\n      0x00\n        /* \"#utility.yul\":7870:7872   */\n      0x60\n        /* \"#utility.yul\":7859:7868   */\n      dup3\n        /* \"#utility.yul\":7855:7873   */\n      add\n        /* \"#utility.yul\":7847:7873   */\n      swap1\n      pop\n        /* \"#utility.yul\":7883:7954   */\n      tag_257\n        /* \"#utility.yul\":7951:7952   */\n      0x00\n        /* \"#utility.yul\":7940:7949   */\n      dup4\n        /* \"#utility.yul\":7936:7953   */\n      add\n        /* \"#utility.yul\":7927:7933   */\n      dup7\n        /* \"#utility.yul\":7883:7954   */\n      tag_194\n      jump\t// in\n    tag_257:\n        /* \"#utility.yul\":7964:8036   */\n      tag_258\n        /* \"#utility.yul\":8032:8034   */\n      0x20\n        /* \"#utility.yul\":8021:8030   */\n      dup4\n        /* \"#utility.yul\":8017:8035   */\n      add\n        /* \"#utility.yul\":8008:8014   */\n      dup6\n        /* \"#utility.yul\":7964:8036   */\n      tag_194\n      jump\t// in\n    tag_258:\n        /* \"#utility.yul\":8046:8118   */\n      tag_259\n        /* \"#utility.yul\":8114:8116   */\n      0x40\n        /* \"#utility.yul\":8103:8112   */\n      dup4\n        /* \"#utility.yul\":8099:8117   */\n      add\n        /* \"#utility.yul\":8090:8096   */\n      dup5\n        /* \"#utility.yul\":8046:8118   */\n      tag_252\n      jump\t// in\n    tag_259:\n        /* \"#utility.yul\":7683:8125   */\n      swap5\n      swap4\n      pop\n      pop\n      pop\n      pop\n      jump\t// out\n        /* \"#utility.yul\":8131:9019   */\n    tag_47:\n        /* \"#utility.yul\":8393:8397   */\n      0x00\n        /* \"#utility.yul\":8431:8434   */\n      0xe0\n        /* \"#utility.yul\":8420:8429   */\n      dup3\n        /* \"#utility.yul\":8416:8435   */\n      add\n        /* \"#utility.yul\":8408:8435   */\n      swap1\n      pop\n        /* \"#utility.yul\":8445:8516   */\n      tag_261\n        /* \"#utility.yul\":8513:8514   */\n      0x00\n        /* \"#utility.yul\":8502:8511   */\n      dup4\n        /* \"#utility.yul\":8498:8515   */\n      add\n        /* \"#utility.yul\":8489:8495   */\n      dup11\n        /* \"#utility.yul\":8445:8516   */\n      tag_194\n      jump\t// in\n    tag_261:\n        /* \"#utility.yul\":8526:8592   */\n      tag_262\n        /* \"#utility.yul\":8588:8590   */\n      0x20\n        /* \"#utility.yul\":8577:8586   */\n      dup4\n        /* \"#utility.yul\":8573:8591   */\n      add\n        /* \"#utility.yul\":8564:8570   */\n      dup10\n        /* \"#utility.yul\":8526:8592   */\n      tag_198\n      jump\t// in\n    tag_262:\n        /* \"#utility.yul\":8602:8668   */\n      tag_263\n        /* \"#utility.yul\":8664:8666   */\n      0x40\n        /* \"#utility.yul\":8653:8662   */\n      dup4\n        /* \"#utility.yul\":8649:8667   */\n      add\n        /* \"#utility.yul\":8640:8646   */\n      dup9\n        /* \"#utility.yul\":8602:8668   */\n      tag_198\n      jump\t// in\n    tag_263:\n        /* \"#utility.yul\":8678:8750   */\n      tag_264\n        /* \"#utility.yul\":8746:8748   */\n      0x60\n        /* \"#utility.yul\":8735:8744   */\n      dup4\n        /* \"#utility.yul\":8731:8749   */\n      add\n        /* \"#utility.yul\":8722:8728   */\n      dup8\n        /* \"#utility.yul\":8678:8750   */\n      tag_252\n      jump\t// in\n    tag_264:\n        /* \"#utility.yul\":8760:8846   */\n      tag_265\n        /* \"#utility.yul\":8841:8844   */\n      0x80\n        /* \"#utility.yul\":8830:8839   */\n      dup4\n        /* \"#utility.yul\":8826:8845   */\n      add\n        /* \"#utility.yul\":8817:8823   */\n      dup7\n        /* \"#utility.yul\":8760:8846   */\n      tag_202\n      jump\t// in\n    tag_265:\n        /* \"#utility.yul\":8856:8929   */\n      tag_266\n        /* \"#utility.yul\":8924:8927   */\n      0xa0\n        /* \"#utility.yul\":8913:8922   */\n      dup4\n        /* \"#utility.yul\":8909:8928   */\n      add\n        /* \"#utility.yul\":8900:8906   */\n      dup6\n        /* \"#utility.yul\":8856:8929   */\n      tag_252\n      jump\t// in\n    tag_266:\n        /* \"#utility.yul\":8939:9012   */\n      tag_267\n        /* \"#utility.yul\":9007:9010   */\n      0xc0\n        /* \"#utility.yul\":8996:9005   */\n      dup4\n        /* \"#utility.yul\":8992:9011   */\n      add\n        /* \"#utility.yul\":8983:8989   */\n      dup5\n        /* \"#utility.yul\":8939:9012   */\n      tag_252\n      jump\t// in\n    tag_267:\n        /* \"#utility.yul\":8131:9019   */\n      swap9\n      swap8\n      pop\n      pop\n      pop\n      pop\n      pop\n      pop\n      pop\n      pop\n      jump\t// out\n        /* \"#utility.yul\":9025:9357   */\n    tag_94:\n        /* \"#utility.yul\":9146:9150   */\n      0x00\n        /* \"#utility.yul\":9184:9186   */\n      0x40\n        /* \"#utility.yul\":9173:9182   */\n      dup3\n        /* \"#utility.yul\":9169:9187   */\n      add\n        /* \"#utility.yul\":9161:9187   */\n      swap1\n      pop\n        /* \"#utility.yul\":9197:9268   */\n      tag_269\n        /* \"#utility.yul\":9265:9266   */\n      0x00\n        /* \"#utility.yul\":9254:9263   */\n      dup4\n        /* \"#utility.yul\":9250:9267   */\n      add\n        /* \"#utility.yul\":9241:9247   */\n      dup6\n        /* \"#utility.yul\":9197:9268   */\n      tag_194\n      jump\t// in\n    tag_269:\n        /* \"#utility.yul\":9278:9350   */\n      tag_270\n        /* \"#utility.yul\":9346:9348   */\n      0x20\n        /* \"#utility.yul\":9335:9344   */\n      dup4\n        /* \"#utility.yul\":9331:9349   */\n      add\n        /* \"#utility.yul\":9322:9328   */\n      dup5\n        /* \"#utility.yul\":9278:9350   */\n      tag_252\n      jump\t// in\n    tag_270:\n        /* \"#utility.yul\":9025:9357   */\n      swap4\n      swap3\n      pop\n      pop\n      pop\n      jump\t// out\n        /* \"#utility.yul\":9363:9782   */\n    tag_57:\n        /* \"#utility.yul\":9529:9533   */\n      0x00\n        /* \"#utility.yul\":9567:9569   */\n      0x20\n        /* \"#utility.yul\":9556:9565   */\n      dup3\n        /* \"#utility.yul\":9552:9570   */\n      add\n        /* \"#utility.yul\":9544:9570   */\n      swap1\n      pop\n        /* \"#utility.yul\":9616:9625   */\n      dup2\n        /* \"#utility.yul\":9610:9614   */\n      dup2\n        /* \"#utility.yul\":9606:9626   */\n      sub\n        /* \"#utility.yul\":9602:9603   */\n      0x00\n        /* \"#utility.yul\":9591:9600   */\n      dup4\n        /* \"#utility.yul\":9587:9604   */\n      add\n        /* \"#utility.yul\":9580:9627   */\n      mstore\n        /* \"#utility.yul\":9644:9775   */\n      tag_272\n        /* \"#utility.yul\":9770:9774   */\n      dup2\n        /* \"#utility.yul\":9644:9775   */\n      tag_206\n      jump\t// in\n    tag_272:\n        /* \"#utility.yul\":9636:9775   */\n      swap1\n      pop\n        /* \"#utility.yul\":9363:9782   */\n      swap2\n      swap1\n      pop\n      jump\t// out\n        /* \"#utility.yul\":9788:10207   */\n    tag_69:\n        /* \"#utility.yul\":9954:9958   */\n      0x00\n        /* \"#utility.yul\":9992:9994   */\n      0x20\n        /* \"#utility.yul\":9981:9990   */\n      dup3\n        /* \"#utility.yul\":9977:9995   */\n      add\n        /* \"#utility.yul\":9969:9995   */\n      swap1\n      pop\n        /* \"#utility.yul\":10041:10050   */\n      dup2\n        /* \"#utility.yul\":10035:10039   */\n      dup2\n        /* \"#utility.yul\":10031:10051   */\n      sub\n        /* \"#utility.yul\":10027:10028   */\n      0x00\n        /* \"#utility.yul\":10016:10025   */\n      dup4\n        /* \"#utility.yul\":10012:10029   */\n      add\n        /* \"#utility.yul\":10005:10052   */\n      mstore\n        /* \"#utility.yul\":10069:10200   */\n      tag_274\n        /* \"#utility.yul\":10195:10199   */\n      dup2\n        /* \"#utility.yul\":10069:10200   */\n      tag_212\n      jump\t// in\n    tag_274:\n        /* \"#utility.yul\":10061:10200   */\n      swap1\n      pop\n        /* \"#utility.yul\":9788:10207   */\n      swap2\n      swap1\n      pop\n      jump\t// out\n        /* \"#utility.yul\":10213:10632   */\n    tag_120:\n        /* \"#utility.yul\":10379:10383   */\n      0x00\n        /* \"#utility.yul\":10417:10419   */\n      0x20\n        /* \"#utility.yul\":10406:10415   */\n      dup3\n        /* \"#utility.yul\":10402:10420   */\n      add\n        /* \"#utility.yul\":10394:10420   */\n      swap1\n      pop\n        /* \"#utility.yul\":10466:10475   */\n      dup2\n        /* \"#utility.yul\":10460:10464   */\n      dup2\n        /* \"#utility.yul\":10456:10476   */\n      sub\n        /* \"#utility.yul\":10452:10453   */\n      0x00\n        /* \"#utility.yul\":10441:10450   */\n      dup4\n        /* \"#utility.yul\":10437:10454   */\n      add\n        /* \"#utility.yul\":10430:10477   */\n      mstore\n        /* \"#utility.yul\":10494:10625   */\n      tag_276\n        /* \"#utility.yul\":10620:10624   */\n      dup2\n        /* \"#utility.yul\":10494:10625   */\n      tag_217\n      jump\t// in\n    tag_276:\n        /* \"#utility.yul\":10486:10625   */\n      swap1\n      pop\n        /* \"#utility.yul\":10213:10632   */\n      swap2\n      swap1\n      pop\n      jump\t// out\n        /* \"#utility.yul\":10638:11057   */\n    tag_54:\n        /* \"#utility.yul\":10804:10808   */\n      0x00\n        /* \"#utility.yul\":10842:10844   */\n      0x20\n        /* \"#utility.yul\":10831:10840   */\n      dup3\n        /* \"#utility.yul\":10827:10845   */\n      add\n        /* \"#utility.yul\":10819:10845   */\n      swap1\n      pop\n        /* \"#utility.yul\":10891:10900   */\n      dup2\n        /* \"#utility.yul\":10885:10889   */\n      dup2\n        /* \"#utility.yul\":10881:10901   */\n      sub\n        /* \"#utility.yul\":10877:10878   */\n      0x00\n        /* \"#utility.yul\":10866:10875   */\n      dup4\n        /* \"#utility.yul\":10862:10879   */\n      add\n        /* \"#utility.yul\":10855:10902   */\n      mstore\n        /* \"#utility.yul\":10919:11050   */\n      tag_278\n        /* \"#utility.yul\":11045:11049   */\n      dup2\n        /* \"#utility.yul\":10919:11050   */\n      tag_222\n      jump\t// in\n    tag_278:\n        /* \"#utility.yul\":10911:11050   */\n      swap1\n      pop\n        /* \"#utility.yul\":10638:11057   */\n      swap2\n      swap1\n      pop\n      jump\t// out\n        /* \"#utility.yul\":11063:11482   */\n    tag_66:\n        /* \"#utility.yul\":11229:11233   */\n      0x00\n        /* \"#utility.yul\":11267:11269   */\n      0x20\n        /* \"#utility.yul\":11256:11265   */\n      dup3\n        /* \"#utility.yul\":11252:11270   */\n      add\n        /* \"#utility.yul\":11244:11270   */\n      swap1\n      pop\n        /* \"#utility.yul\":11316:11325   */\n      dup2\n        /* \"#utility.yul\":11310:11314   */\n      dup2\n        /* \"#utility.yul\":11306:11326   */\n      sub\n        /* \"#utility.yul\":11302:11303   */\n      0x00\n        /* \"#utility.yul\":11291:11300   */\n      dup4\n        /* \"#utility.yul\":11287:11304   */\n      add\n        /* \"#utility.yul\":11280:11327   */\n      mstore\n        /* \"#utility.yul\":11344:11475   */\n      tag_280\n        /* \"#utility.yul\":11470:11474   */\n      dup2\n        /* \"#utility.yul\":11344:11475   */\n      tag_227\n      jump\t// in\n    tag_280:\n        /* \"#utility.yul\":11336:11475   */\n      swap1\n      pop\n        /* \"#utility.yul\":11063:11482   */\n      swap2\n      swap1\n      pop\n      jump\t// out\n        /* \"#utility.yul\":11488:11907   */\n    tag_123:\n        /* \"#utility.yul\":11654:11658   */\n      0x00\n        /* \"#utility.yul\":11692:11694   */\n      0x20\n        /* \"#utility.yul\":11681:11690   */\n      dup3\n        /* \"#utility.yul\":11677:11695   */\n      add\n        /* \"#utility.yul\":11669:11695   */\n      swap1\n      pop\n        /* \"#utility.yul\":11741:11750   */\n      dup2\n        /* \"#utility.yul\":11735:11739   */\n      dup2\n        /* \"#utility.yul\":11731:11751   */\n      sub\n        /* \"#utility.yul\":11727:11728   */\n      0x00\n        /* \"#utility.yul\":11716:11725   */\n      dup4\n        /* \"#utility.yul\":11712:11729   */\n      add\n        /* \"#utility.yul\":11705:11752   */\n      mstore\n        /* \"#utility.yul\":11769:11900   */\n      tag_282\n        /* \"#utility.yul\":11895:11899   */\n      dup2\n        /* \"#utility.yul\":11769:11900   */\n      tag_232\n      jump\t// in\n    tag_282:\n        /* \"#utility.yul\":11761:11900   */\n      swap1\n      pop\n        /* \"#utility.yul\":11488:11907   */\n      swap2\n      swap1\n      pop\n      jump\t// out\n        /* \"#utility.yul\":11913:12332   */\n    tag_51:\n        /* \"#utility.yul\":12079:12083   */\n      0x00\n        /* \"#utility.yul\":12117:12119   */\n      0x20\n        /* \"#utility.yul\":12106:12115   */\n      dup3\n        /* \"#utility.yul\":12102:12120   */\n      add\n        /* \"#utility.yul\":12094:12120   */\n      swap1\n      pop\n        /* \"#utility.yul\":12166:12175   */\n      dup2\n        /* \"#utility.yul\":12160:12164   */\n      dup2\n        /* \"#utility.yul\":12156:12176   */\n      sub\n        /* \"#utility.yul\":12152:12153   */\n      0x00\n        /* \"#utility.yul\":12141:12150   */\n      dup4\n        /* \"#utility.yul\":12137:12154   */\n      add\n        /* \"#utility.yul\":12130:12177   */\n      mstore\n        /* \"#utility.yul\":12194:12325   */\n      tag_284\n        /* \"#utility.yul\":12320:12324   */\n      dup2\n        /* \"#utility.yul\":12194:12325   */\n      tag_237\n      jump\t// in\n    tag_284:\n        /* \"#utility.yul\":12186:12325   */\n      swap1\n      pop\n        /* \"#utility.yul\":11913:12332   */\n      swap2\n      swap1\n      pop\n      jump\t// out\n        /* \"#utility.yul\":12338:12757   */\n    tag_72:\n        /* \"#utility.yul\":12504:12508   */\n      0x00\n        /* \"#utility.yul\":12542:12544   */\n      0x20\n        /* \"#utility.yul\":12531:12540   */\n      dup3\n        /* \"#utility.yul\":12527:12545   */\n      add\n        /* \"#utility.yul\":12519:12545   */\n      swap1\n      pop\n        /* \"#utility.yul\":12591:12600   */\n      dup2\n        /* \"#utility.yul\":12585:12589   */\n      dup2\n        /* \"#utility.yul\":12581:12601   */\n      sub\n        /* \"#utility.yul\":12577:12578   */\n      0x00\n        /* \"#utility.yul\":12566:12575   */\n      dup4\n        /* \"#utility.yul\":12562:12579   */\n      add\n        /* \"#utility.yul\":12555:12602   */\n      mstore\n        /* \"#utility.yul\":12619:12750   */\n      tag_286\n        /* \"#utility.yul\":12745:12749   */\n      dup2\n        /* \"#utility.yul\":12619:12750   */\n      tag_242\n      jump\t// in\n    tag_286:\n        /* \"#utility.yul\":12611:12750   */\n      swap1\n      pop\n        /* \"#utility.yul\":12338:12757   */\n      swap2\n      swap1\n      pop\n      jump\t// out\n        /* \"#utility.yul\":12763:13182   */\n    tag_99:\n        /* \"#utility.yul\":12929:12933   */\n      0x00\n        /* \"#utility.yul\":12967:12969   */\n      0x20\n        /* \"#utility.yul\":12956:12965   */\n      dup3\n        /* \"#utility.yul\":12952:12970   */\n      add\n        /* \"#utility.yul\":12944:12970   */\n      swap1\n      pop\n        /* \"#utility.yul\":13016:13025   */\n      dup2\n        /* \"#utility.yul\":13010:13014   */\n      dup2\n        /* \"#utility.yul\":13006:13026   */\n      sub\n        /* \"#utility.yul\":13002:13003   */\n      0x00\n        /* \"#utility.yul\":12991:13000   */\n      dup4\n        /* \"#utility.yul\":12987:13004   */\n      add\n        /* \"#utility.yul\":12980:13027   */\n      mstore\n        /* \"#utility.yul\":13044:13175   */\n      tag_288\n        /* \"#utility.yul\":13170:13174   */\n      dup2\n        /* \"#utility.yul\":13044:13175   */\n      tag_247\n      jump\t// in\n    tag_288:\n        /* \"#utility.yul\":13036:13175   */\n      swap1\n      pop\n        /* \"#utility.yul\":12763:13182   */\n      swap2\n      swap1\n      pop\n      jump\t// out\n        /* \"#utility.yul\":13188:13410   */\n    tag_27:\n        /* \"#utility.yul\":13281:13285   */\n      0x00\n        /* \"#utility.yul\":13319:13321   */\n      0x20\n        /* \"#utility.yul\":13308:13317   */\n      dup3\n        /* \"#utility.yul\":13304:13322   */\n      add\n        /* \"#utility.yul\":13296:13322   */\n      swap1\n      pop\n        /* \"#utility.yul\":13332:13403   */\n      tag_290\n        /* \"#utility.yul\":13400:13401   */\n      0x00\n        /* \"#utility.yul\":13389:13398   */\n      dup4\n        /* \"#utility.yul\":13385:13402   */\n      add\n        /* \"#utility.yul\":13376:13382   */\n      dup5\n        /* \"#utility.yul\":13332:13403   */\n      tag_252\n      jump\t// in\n    tag_290:\n        /* \"#utility.yul\":13188:13410   */\n      swap3\n      swap2\n      pop\n      pop\n      jump\t// out\n        /* \"#utility.yul\":13416:13748   */\n    tag_133:\n        /* \"#utility.yul\":13537:13541   */\n      0x00\n        /* \"#utility.yul\":13575:13577   */\n      0x40\n        /* \"#utility.yul\":13564:13573   */\n      dup3\n        /* \"#utility.yul\":13560:13578   */\n      add\n        /* \"#utility.yul\":13552:13578   */\n      swap1\n      pop\n        /* \"#utility.yul\":13588:13659   */\n      tag_292\n        /* \"#utility.yul\":13656:13657   */\n      0x00\n        /* \"#utility.yul\":13645:13654   */\n      dup4\n        /* \"#utility.yul\":13641:13658   */\n      add\n        /* \"#utility.yul\":13632:13638   */\n      dup6\n        /* \"#utility.yul\":13588:13659   */\n      tag_252\n      jump\t// in\n    tag_292:\n        /* \"#utility.yul\":13669:13741   */\n      tag_293\n        /* \"#utility.yul\":13737:13739   */\n      0x20\n        /* \"#utility.yul\":13726:13735   */\n      dup4\n        /* \"#utility.yul\":13722:13740   */\n      add\n        /* \"#utility.yul\":13713:13719   */\n      dup5\n        /* \"#utility.yul\":13669:13741   */\n      tag_252\n      jump\t// in\n    tag_293:\n        /* \"#utility.yul\":13416:13748   */\n      swap4\n      swap3\n      pop\n      pop\n      pop\n      jump\t// out\n        /* \"#utility.yul\":13835:14004   */\n    tag_209:\n        /* \"#utility.yul\":13919:13930   */\n      0x00\n        /* \"#utility.yul\":13953:13959   */\n      dup3\n        /* \"#utility.yul\":13948:13951   */\n      dup3\n        /* \"#utility.yul\":13941:13960   */\n      mstore\n        /* \"#utility.yul\":13993:13997   */\n      0x20\n        /* \"#utility.yul\":13988:13991   */\n      dup3\n        /* \"#utility.yul\":13984:13998   */\n      add\n        /* \"#utility.yul\":13969:13998   */\n      swap1\n      pop\n        /* \"#utility.yul\":13835:14004   */\n      swap3\n      swap2\n      pop\n      pop\n      jump\t// out\n        /* \"#utility.yul\":14010:14315   */\n    tag_61:\n        /* \"#utility.yul\":14050:14053   */\n      0x00\n        /* \"#utility.yul\":14069:14089   */\n      tag_298\n        /* \"#utility.yul\":14087:14088   */\n      dup3\n        /* \"#utility.yul\":14069:14089   */\n      tag_255\n      jump\t// in\n    tag_298:\n        /* \"#utility.yul\":14064:14089   */\n      swap2\n      pop\n        /* \"#utility.yul\":14103:14123   */\n      tag_299\n        /* \"#utility.yul\":14121:14122   */\n      dup4\n        /* \"#utility.yul\":14103:14123   */\n      tag_255\n      jump\t// in\n    tag_299:\n        /* \"#utility.yul\":14098:14123   */\n      swap3\n      pop\n        /* \"#utility.yul\":14257:14258   */\n      dup3\n        /* \"#utility.yul\":14189:14255   */\n      0xffffffffffffffffffffffffffffffffffffffffffffffffffffffffffffffff\n        /* \"#utility.yul\":14185:14259   */\n      sub\n        /* \"#utility.yul\":14182:14183   */\n      dup3\n        /* \"#utility.yul\":14179:14260   */\n      gt\n        /* \"#utility.yul\":14176:14283   */\n      iszero\n      tag_300\n      jumpi\n        /* \"#utility.yul\":14263:14281   */\n      tag_301\n      tag_302\n      jump\t// in\n    tag_301:\n        /* \"#utility.yul\":14176:14283   */\n    tag_300:\n        /* \"#utility.yul\":14307:14308   */\n      dup3\n        /* \"#utility.yul\":14304:14305   */\n      dup3\n        /* \"#utility.yul\":14300:14309   */\n      add\n        /* \"#utility.yul\":14293:14309   */\n      swap1\n      pop\n        /* \"#utility.yul\":14010:14315   */\n      swap3\n      swap2\n      pop\n      pop\n      jump\t// out\n        /* \"#utility.yul\":14321:14669   */\n    tag_130:\n        /* \"#utility.yul\":14361:14368   */\n      0x00\n        /* \"#utility.yul\":14384:14404   */\n      tag_304\n        /* \"#utility.yul\":14402:14403   */\n      dup3\n        /* \"#utility.yul\":14384:14404   */\n      tag_255\n      jump\t// in\n    tag_304:\n        /* \"#utility.yul\":14379:14404   */\n      swap2\n      pop\n        /* \"#utility.yul\":14418:14438   */\n      tag_305\n        /* \"#utility.yul\":14436:14437   */\n      dup4\n        /* \"#utility.yul\":14418:14438   */\n      tag_255\n      jump\t// in\n    tag_305:\n        /* \"#utility.yul\":14413:14438   */\n      swap3\n      pop\n        /* \"#utility.yul\":14606:14607   */\n      dup2\n        /* \"#utility.yul\":14538:14604   */\n      0xffffffffffffffffffffffffffffffffffffffffffffffffffffffffffffffff\n        /* \"#utility.yul\":14534:14608   */\n      div\n        /* \"#utility.yul\":14531:14532   */\n      dup4\n        /* \"#utility.yul\":14528:14609   */\n      gt\n        /* \"#utility.yul\":14523:14524   */\n      dup3\n        /* \"#utility.yul\":14516:14525   */\n      iszero\n        /* \"#utility.yul\":14509:14526   */\n      iszero\n        /* \"#utility.yul\":14505:14610   */\n      and\n        /* \"#utility.yul\":14502:14633   */\n      iszero\n      tag_306\n      jumpi\n        /* \"#utility.yul\":14613:14631   */\n      tag_307\n      tag_302\n      jump\t// in\n    tag_307:\n        /* \"#utility.yul\":14502:14633   */\n    tag_306:\n        /* \"#utility.yul\":14661:14662   */\n      dup3\n        /* \"#utility.yul\":14658:14659   */\n      dup3\n        /* \"#utility.yul\":14654:14663   */\n      mul\n        /* \"#utility.yul\":14643:14663   */\n      swap1\n      pop\n        /* \"#utility.yul\":14321:14669   */\n      swap3\n      swap2\n      pop\n      pop\n      jump\t// out\n        /* \"#utility.yul\":14675:14866   */\n    tag_82:\n        /* \"#utility.yul\":14715:14719   */\n      0x00\n        /* \"#utility.yul\":14735:14755   */\n      tag_309\n        /* \"#utility.yul\":14753:14754   */\n      dup3\n        /* \"#utility.yul\":14735:14755   */\n      tag_255\n      jump\t// in\n    tag_309:\n        /* \"#utility.yul\":14730:14755   */\n      swap2\n      pop\n        /* \"#utility.yul\":14769:14789   */\n      tag_310\n        /* \"#utility.yul\":14787:14788   */\n      dup4\n        /* \"#utility.yul\":14769:14789   */\n      tag_255\n      jump\t// in\n    tag_310:\n        /* \"#utility.yul\":14764:14789   */\n      swap3\n      pop\n        /* \"#utility.yul\":14808:14809   */\n      dup3\n        /* \"#utility.yul\":14805:14806   */\n      dup3\n        /* \"#utility.yul\":14802:14810   */\n      lt\n        /* \"#utility.yul\":14799:14833   */\n      iszero\n      tag_311\n      jumpi\n        /* \"#utility.yul\":14813:14831   */\n      tag_312\n      tag_302\n      jump\t// in\n    tag_312:\n        /* \"#utility.yul\":14799:14833   */\n    tag_311:\n        /* \"#utility.yul\":14858:14859   */\n      dup3\n        /* \"#utility.yul\":14855:14856   */\n      dup3\n        /* \"#utility.yul\":14851:14860   */\n      sub\n        /* \"#utility.yul\":14843:14860   */\n      swap1\n      pop\n        /* \"#utility.yul\":14675:14866   */\n      swap3\n      swap2\n      pop\n      pop\n      jump\t// out\n        /* \"#utility.yul\":14872:14968   */\n    tag_197:\n        /* \"#utility.yul\":14909:14916   */\n      0x00\n        /* \"#utility.yul\":14938:14962   */\n      tag_314\n        /* \"#utility.yul\":14956:14961   */\n      dup3\n        /* \"#utility.yul\":14938:14962   */\n      tag_315\n      jump\t// in\n    tag_314:\n        /* \"#utility.yul\":14927:14962   */\n      swap1\n      pop\n        /* \"#utility.yul\":14872:14968   */\n      swap2\n      swap1\n      pop\n      jump\t// out\n        /* \"#utility.yul\":14974:15064   */\n    tag_201:\n        /* \"#utility.yul\":15008:15015   */\n      0x00\n        /* \"#utility.yul\":15051:15056   */\n      dup2\n        /* \"#utility.yul\":15044:15057   */\n      iszero\n        /* \"#utility.yul\":15037:15058   */\n      iszero\n        /* \"#utility.yul\":15026:15058   */\n      swap1\n      pop\n        /* \"#utility.yul\":14974:15064   */\n      swap2\n      swap1\n      pop\n      jump\t// out\n        /* \"#utility.yul\":15070:15196   */\n    tag_315:\n        /* \"#utility.yul\":15107:15114   */\n      0x00\n        /* \"#utility.yul\":15147:15189   */\n      0xffffffffffffffffffffffffffffffffffffffff\n        /* \"#utility.yul\":15140:15145   */\n      dup3\n        /* \"#utility.yul\":15136:15190   */\n      and\n        /* \"#utility.yul\":15125:15190   */\n      swap1\n      pop\n        /* \"#utility.yul\":15070:15196   */\n      swap2\n      swap1\n      pop\n      jump\t// out\n        /* \"#utility.yul\":15202:15279   */\n    tag_255:\n        /* \"#utility.yul\":15239:15246   */\n      0x00\n        /* \"#utility.yul\":15268:15273   */\n      dup2\n        /* \"#utility.yul\":15257:15273   */\n      swap1\n      pop\n        /* \"#utility.yul\":15202:15279   */\n      swap2\n      swap1\n      pop\n      jump\t// out\n        /* \"#utility.yul\":15285:15424   */\n    tag_205:\n        /* \"#utility.yul\":15348:15357   */\n      0x00\n        /* \"#utility.yul\":15381:15418   */\n      tag_320\n        /* \"#utility.yul\":15412:15417   */\n      dup3\n        /* \"#utility.yul\":15381:15418   */\n      tag_321\n      jump\t// in\n    tag_320:\n        /* \"#utility.yul\":15368:15418   */\n      swap1\n      pop\n        /* \"#utility.yul\":15285:15424   */\n      swap2\n      swap1\n      pop\n      jump\t// out\n        /* \"#utility.yul\":15430:15556   */\n    tag_321:\n        /* \"#utility.yul\":15480:15489   */\n      0x00\n        /* \"#utility.yul\":15513:15550   */\n      tag_323\n        /* \"#utility.yul\":15544:15549   */\n      dup3\n        /* \"#utility.yul\":15513:15550   */\n      tag_324\n      jump\t// in\n    tag_323:\n        /* \"#utility.yul\":15500:15550   */\n      swap1\n      pop\n        /* \"#utility.yul\":15430:15556   */\n      swap2\n      swap1\n      pop\n      jump\t// out\n        /* \"#utility.yul\":15562:15675   */\n    tag_324:\n        /* \"#utility.yul\":15612:15621   */\n      0x00\n        /* \"#utility.yul\":15645:15669   */\n      tag_326\n        /* \"#utility.yul\":15663:15668   */\n      dup3\n        /* \"#utility.yul\":15645:15669   */\n      tag_315\n      jump\t// in\n    tag_326:\n        /* \"#utility.yul\":15632:15669   */\n      swap1\n      pop\n        /* \"#utility.yul\":15562:15675   */\n      swap2\n      swap1\n      pop\n      jump\t// out\n        /* \"#utility.yul\":15681:15852   */\n    tag_140:\n        /* \"#utility.yul\":15720:15723   */\n      0x00\n        /* \"#utility.yul\":15743:15767   */\n      tag_328\n        /* \"#utility.yul\":15761:15766   */\n      dup3\n        /* \"#utility.yul\":15743:15767   */\n      tag_255\n      jump\t// in\n    tag_328:\n        /* \"#utility.yul\":15734:15767   */\n      swap2\n      pop\n        /* \"#utility.yul\":15789:15793   */\n      0x00\n        /* \"#utility.yul\":15782:15787   */\n      dup3\n        /* \"#utility.yul\":15779:15794   */\n      eq\n        /* \"#utility.yul\":15776:15817   */\n      iszero\n      tag_329\n      jumpi\n        /* \"#utility.yul\":15797:15815   */\n      tag_330\n      tag_302\n      jump\t// in\n    tag_330:\n        /* \"#utility.yul\":15776:15817   */\n    tag_329:\n        /* \"#utility.yul\":15844:15845   */\n      0x01\n        /* \"#utility.yul\":15837:15842   */\n      dup3\n        /* \"#utility.yul\":15833:15846   */\n      sub\n        /* \"#utility.yul\":15826:15846   */\n      swap1\n      pop\n        /* \"#utility.yul\":15681:15852   */\n      swap2\n      swap1\n      pop\n      jump\t// out\n        /* \"#utility.yul\":15858:16091   */\n    tag_59:\n        /* \"#utility.yul\":15897:15900   */\n      0x00\n        /* \"#utility.yul\":15920:15944   */\n      tag_332\n        /* \"#utility.yul\":15938:15943   */\n      dup3\n        /* \"#utility.yul\":15920:15944   */\n      tag_255\n      jump\t// in\n    tag_332:\n        /* \"#utility.yul\":15911:15944   */\n      swap2\n      pop\n        /* \"#utility.yul\":15966:16032   */\n      0xffffffffffffffffffffffffffffffffffffffffffffffffffffffffffffffff\n        /* \"#utility.yul\":15959:15964   */\n      dup3\n        /* \"#utility.yul\":15956:16033   */\n      eq\n        /* \"#utility.yul\":15953:16056   */\n      iszero\n      tag_333\n      jumpi\n        /* \"#utility.yul\":16036:16054   */\n      tag_334\n      tag_302\n      jump\t// in\n    tag_334:\n        /* \"#utility.yul\":15953:16056   */\n    tag_333:\n        /* \"#utility.yul\":16083:16084   */\n      0x01\n        /* \"#utility.yul\":16076:16081   */\n      dup3\n        /* \"#utility.yul\":16072:16085   */\n      add\n        /* \"#utility.yul\":16065:16085   */\n      swap1\n      pop\n        /* \"#utility.yul\":15858:16091   */\n      swap2\n      swap1\n      pop\n      jump\t// out\n        /* \"#utility.yul\":16097:16277   */\n    tag_302:\n        /* \"#utility.yul\":16145:16222   */\n      0x4e487b7100000000000000000000000000000000000000000000000000000000\n        /* \"#utility.yul\":16142:16143   */\n      0x00\n        /* \"#utility.yul\":16135:16223   */\n      mstore\n        /* \"#utility.yul\":16242:16246   */\n      0x11\n        /* \"#utility.yul\":16239:16240   */\n      0x04\n        /* \"#utility.yul\":16232:16247   */\n      mstore\n        /* \"#utility.yul\":16266:16270   */\n      0x24\n        /* \"#utility.yul\":16263:16264   */\n      0x00\n        /* \"#utility.yul\":16256:16271   */\n      revert\n        /* \"#utility.yul\":16406:16523   */\n    tag_164:\n        /* \"#utility.yul\":16515:16516   */\n      0x00\n        /* \"#utility.yul\":16512:16513   */\n      dup1\n        /* \"#utility.yul\":16505:16517   */\n      revert\n        /* \"#utility.yul\":16529:16689   */\n    tag_211:\n        /* \"#utility.yul\":16669:16681   */\n      0x4c6f776572206269642100000000000000000000000000000000000000000000\n        /* \"#utility.yul\":16665:16666   */\n      0x00\n        /* \"#utility.yul\":16657:16663   */\n      dup3\n        /* \"#utility.yul\":16653:16667   */\n      add\n        /* \"#utility.yul\":16646:16682   */\n      mstore\n        /* \"#utility.yul\":16529:16689   */\n      pop\n      jump\t// out\n        /* \"#utility.yul\":16695:16870   */\n    tag_216:\n        /* \"#utility.yul\":16835:16862   */\n      0x41756374696f6e206973207374696c6c206f6e676f696e672100000000000000\n        /* \"#utility.yul\":16831:16832   */\n      0x00\n        /* \"#utility.yul\":16823:16829   */\n      dup3\n        /* \"#utility.yul\":16819:16833   */\n      add\n        /* \"#utility.yul\":16812:16863   */\n      mstore\n        /* \"#utility.yul\":16695:16870   */\n      pop\n      jump\t// out\n        /* \"#utility.yul\":16876:17042   */\n    tag_221:\n        /* \"#utility.yul\":17016:17034   */\n      0x416c726561647920737461727465642100000000000000000000000000000000\n        /* \"#utility.yul\":17012:17013   */\n      0x00\n        /* \"#utility.yul\":17004:17010   */\n      dup3\n        /* \"#utility.yul\":17000:17014   */\n      add\n        /* \"#utility.yul\":16993:17035   */\n      mstore\n        /* \"#utility.yul\":16876:17042   */\n      pop\n      jump\t// out\n        /* \"#utility.yul\":17048:17204   */\n    tag_226:\n        /* \"#utility.yul\":17188:17196   */\n      0x456e646564210000000000000000000000000000000000000000000000000000\n        /* \"#utility.yul\":17184:17185   */\n      0x00\n        /* \"#utility.yul\":17176:17182   */\n      dup3\n        /* \"#utility.yul\":17172:17186   */\n      add\n        /* \"#utility.yul\":17165:17197   */\n      mstore\n        /* \"#utility.yul\":17048:17204   */\n      pop\n      jump\t// out\n        /* \"#utility.yul\":17210:17384   */\n    tag_231:\n        /* \"#utility.yul\":17350:17376   */\n      0x596f75206e65656420746f207374617274206669727374210000000000000000\n        /* \"#utility.yul\":17346:17347   */\n      0x00\n        /* \"#utility.yul\":17338:17344   */\n      dup3\n        /* \"#utility.yul\":17334:17348   */\n      add\n        /* \"#utility.yul\":17327:17377   */\n      mstore\n        /* \"#utility.yul\":17210:17384   */\n      pop\n      jump\t// out\n        /* \"#utility.yul\":17390:17570   */\n    tag_236:\n        /* \"#utility.yul\":17530:17562   */\n      0x596f752063616e206e6f74207374617274207468652061756374696f6e210000\n        /* \"#utility.yul\":17526:17527   */\n      0x00\n        /* \"#utility.yul\":17518:17524   */\n      dup3\n        /* \"#utility.yul\":17514:17528   */\n      add\n        /* \"#utility.yul\":17507:17563   */\n      mstore\n        /* \"#utility.yul\":17390:17570   */\n      pop\n      jump\t// out\n        /* \"#utility.yul\":17576:17738   */\n    tag_241:\n        /* \"#utility.yul\":17716:17730   */\n      0x4e6f7420737461727465642e0000000000000000000000000000000000000000\n        /* \"#utility.yul\":17712:17713   */\n      0x00\n        /* \"#utility.yul\":17704:17710   */\n      dup3\n        /* \"#utility.yul\":17700:17714   */\n      add\n        /* \"#utility.yul\":17693:17731   */\n      mstore\n        /* \"#utility.yul\":17576:17738   */\n      pop\n      jump\t// out\n        /* \"#utility.yul\":17744:17916   */\n    tag_246:\n        /* \"#utility.yul\":17884:17908   */\n      0x41756374696f6e20616c726561647920656e6465642100000000000000000000\n        /* \"#utility.yul\":17880:17881   */\n      0x00\n        /* \"#utility.yul\":17872:17878   */\n      dup3\n        /* \"#utility.yul\":17868:17882   */\n      add\n        /* \"#utility.yul\":17861:17909   */\n      mstore\n        /* \"#utility.yul\":17744:17916   */\n      pop\n      jump\t// out\n        /* \"#utility.yul\":17922:18090   */\n    tag_251:\n        /* \"#utility.yul\":18062:18082   */\n      0x436f756c64206e6f742077697468647261770000000000000000000000000000\n        /* \"#utility.yul\":18058:18059   */\n      0x00\n        /* \"#utility.yul\":18050:18056   */\n      dup3\n        /* \"#utility.yul\":18046:18060   */\n      add\n        /* \"#utility.yul\":18039:18083   */\n      mstore\n        /* \"#utility.yul\":17922:18090   */\n      pop\n      jump\t// out\n        /* \"#utility.yul\":18096:18218   */\n    tag_150:\n        /* \"#utility.yul\":18169:18193   */\n      tag_349\n        /* \"#utility.yul\":18187:18192   */\n      dup2\n        /* \"#utility.yul\":18169:18193   */\n      tag_197\n      jump\t// in\n    tag_349:\n        /* \"#utility.yul\":18162:18167   */\n      dup2\n        /* \"#utility.yul\":18159:18194   */\n      eq\n        /* \"#utility.yul\":18149:18212   */\n      tag_350\n      jumpi\n        /* \"#utility.yul\":18208:18209   */\n      0x00\n        /* \"#utility.yul\":18205:18206   */\n      dup1\n        /* \"#utility.yul\":18198:18210   */\n      revert\n        /* \"#utility.yul\":18149:18212   */\n    tag_350:\n        /* \"#utility.yul\":18096:18218   */\n      pop\n      jump\t// out\n        /* \"#utility.yul\":18224:18346   */\n    tag_157:\n        /* \"#utility.yul\":18297:18321   */\n      tag_352\n        /* \"#utility.yul\":18315:18320   */\n      dup2\n        /* \"#utility.yul\":18297:18321   */\n      tag_255\n      jump\t// in\n    tag_352:\n        /* \"#utility.yul\":18290:18295   */\n      dup2\n        /* \"#utility.yul\":18287:18322   */\n      eq\n        /* \"#utility.yul\":18277:18340   */\n      tag_353\n      jumpi\n        /* \"#utility.yul\":18336:18337   */\n      0x00\n        /* \"#utility.yul\":18333:18334   */\n      dup1\n        /* \"#utility.yul\":18326:18338   */\n      revert\n        /* \"#utility.yul\":18277:18340   */\n    tag_353:\n        /* \"#utility.yul\":18224:18346   */\n      pop\n      jump\t// out\n\n    auxdata: 0xa2646970667358221220c1df68f9539e4daff3fd64083da3d43dd90def97648ba09a7d552d63b471767864736f6c63430008070033\n}\n",
				"bytecode": {
					"linkReferences": {},
					"object": "608060405234801561001057600080fd5b50611de8806100206000396000f3fe60806040526004361061007b5760003560e01c8063a9dd14d61161004e578063a9dd14d61461010c578063b76a3b5a14610149578063f3fef3a314610172578063f48e9b3d1461018e5761007b565b806359d667a514610080578063695d69ba1461009c578063699ff43f146100c55780637bb98a68146100e1575b600080fd5b61009a60048036038101906100959190611528565b6101d1565b005b3480156100a857600080fd5b506100c360048036038101906100be9190611528565b6104fc565b005b6100df60048036038101906100da9190611568565b610a1a565b005b3480156100ed57600080fd5b506100f6610c00565b60405161010391906119b5565b60405180910390f35b34801561011857600080fd5b50610133600480360381019061012e91906114d5565b610c06565b60405161014091906119b5565b60405180910390f35b34801561015557600080fd5b50610170600480360381019061016b91906115bb565b610c9c565b005b61018c60048036038101906101879190611528565b61109f565b005b34801561019a57600080fd5b506101b560048036038101906101b09190611528565b6113ab565b6040516101c897969594939291906117fd565b60405180910390f35b60008060008473ffffffffffffffffffffffffffffffffffffffff1673ffffffffffffffffffffffffffffffffffffffff168152602001908152602001600020600083815260200190815260200160002090508060000160149054906101000a900460ff16610275576040517f08c379a000000000000000000000000000000000000000000000000000000000815260040161026c90611955565b60405180910390fd5b806001015442106102bb576040517f08c379a00000000000000000000000000000000000000000000000000000000081526004016102b2906118f5565b60405180910390fd5b80600501600082600401548152602001908152602001600020543411610316576040517f08c379a000000000000000000000000000000000000000000000000000000000815260040161030d90611895565b60405180910390fd5b348160050160008360040154815260200190815260200160002081905550338160060160008360040154815260200190815260200160002060006101000a81548173ffffffffffffffffffffffffffffffffffffffff021916908373ffffffffffffffffffffffffffffffffffffffff16021790555080600501600082600401548152602001908152602001600020548160070160008360060160008560040154815260200190815260200160002060009054906101000a900473ffffffffffffffffffffffffffffffffffffffff1673ffffffffffffffffffffffffffffffffffffffff1673ffffffffffffffffffffffffffffffffffffffff1681526020019081526020016000208190555080600401600081548092919061043990611b96565b919050555034600160008282546104509190611a0a565b925050819055508060060160008260040154815260200190815260200160002060009054906101000a900473ffffffffffffffffffffffffffffffffffffffff1673ffffffffffffffffffffffffffffffffffffffff167fe684a55f31b79eca403df938249029212a5925ec6be8012e099b45bc1019e5d282600501600084600401548152602001908152602001600020546040516104ef91906119b5565b60405180910390a2505050565b60008060008473ffffffffffffffffffffffffffffffffffffffff1673ffffffffffffffffffffffffffffffffffffffff168152602001908152602001600020600083815260200190815260200160002090508060000160149054906101000a900460ff166105a0576040517f08c379a000000000000000000000000000000000000000000000000000000000815260040161059790611915565b60405180910390fd5b80600101544210156105e7576040517f08c379a00000000000000000000000000000000000000000000000000000000081526004016105de906118b5565b60405180910390fd5b8060000160159054906101000a900460ff1615610639576040517f08c379a000000000000000000000000000000000000000000000000000000000815260040161063090611975565b60405180910390fd5b600073ffffffffffffffffffffffffffffffffffffffff168160060160008360040154815260200190815260200160002060009054906101000a900473ffffffffffffffffffffffffffffffffffffffff1673ffffffffffffffffffffffffffffffffffffffff1614610894578060020160009054906101000a900473ffffffffffffffffffffffffffffffffffffffff1673ffffffffffffffffffffffffffffffffffffffff166323b872dd308360060160008560040154815260200190815260200160002060009054906101000a900473ffffffffffffffffffffffffffffffffffffffff1684600301546040518463ffffffff1660e01b8152600401610744939291906117c6565b600060405180830381600087803b15801561075e57600080fd5b505af1158015610772573d6000803e3d6000fd5b505050508060000160009054906101000a900473ffffffffffffffffffffffffffffffffffffffff1673ffffffffffffffffffffffffffffffffffffffff166108fc82600501600084600401548152602001908152602001600020549081150290604051600060405180830381858888f193505050501580156107f9573d6000803e3d6000fd5b508060050160008260040154815260200190815260200160002054600160008282546108259190611aba565b9250508190555060005b816004015481101561088e5761087b848484600601600085815260200190815260200160002060009054906101000a900473ffffffffffffffffffffffffffffffffffffffff16610a1a565b808061088690611b96565b91505061082f565b50610950565b8060020160009054906101000a900473ffffffffffffffffffffffffffffffffffffffff1673ffffffffffffffffffffffffffffffffffffffff166323b872dd308360000160009054906101000a900473ffffffffffffffffffffffffffffffffffffffff1684600301546040518463ffffffff1660e01b815260040161091d939291906117c6565b600060405180830381600087803b15801561093757600080fd5b505af115801561094b573d6000803e3d6000fd5b505050505b60018160000160156101000a81548160ff02191690831515021790555060008160000160146101000a81548160ff0219169083151502179055507f7d7570b046e5ead3a4f3fbc9fa2445113625a1e79823776146316bafed6b8cc58160060160008360040154815260200190815260200160002060009054906101000a900473ffffffffffffffffffffffffffffffffffffffff168260050160008460040154815260200190815260200160002054604051610a0d92919061186c565b60405180910390a1505050565b60008060008573ffffffffffffffffffffffffffffffffffffffff1673ffffffffffffffffffffffffffffffffffffffff1681526020019081526020016000206000848152602001908152602001600020905060008160070160008473ffffffffffffffffffffffffffffffffffffffff1673ffffffffffffffffffffffffffffffffffffffff168152602001908152602001600020549050600081118015610ac557506001548111155b610b04576040517f08c379a0000000000000000000000000000000000000000000000000000000008152600401610afb90611995565b60405180910390fd5b60008260070160008573ffffffffffffffffffffffffffffffffffffffff1673ffffffffffffffffffffffffffffffffffffffff168152602001908152602001600020819055508273ffffffffffffffffffffffffffffffffffffffff166108fc829081150290604051600060405180830381858888f19350505050158015610b91573d6000803e3d6000fd5b508060016000828254610ba49190611aba565b925050819055508273ffffffffffffffffffffffffffffffffffffffff167f884edad9ce6fa2440d8a54cc123490eb96d2768479d49ff9c7366125a942436482604051610bf191906119b5565b60405180910390a25050505050565b60015481565b60008373ffffffffffffffffffffffffffffffffffffffff1663449e815d84846040518363ffffffff1660e01b8152600401610c4392919061186c565b60206040518083038186803b158015610c5b57600080fd5b505afa158015610c6f573d6000803e3d6000fd5b505050506040513d601f19601f82011682018060405250810190610c939190611622565b90509392505050565b60008060008673ffffffffffffffffffffffffffffffffffffffff1673ffffffffffffffffffffffffffffffffffffffff16815260200190815260200160002060008581526020019081526020016000209050848160020160006101000a81548173ffffffffffffffffffffffffffffffffffffffff021916908373ffffffffffffffffffffffffffffffffffffffff1602179055508060020160009054906101000a900473ffffffffffffffffffffffffffffffffffffffff1673ffffffffffffffffffffffffffffffffffffffff16636352211e856040518263ffffffff1660e01b8152600401610d8f91906119b5565b60206040518083038186803b158015610da757600080fd5b505afa158015610dbb573d6000803e3d6000fd5b505050506040513d601f19601f82011682018060405250810190610ddf91906114a8565b8160000160006101000a81548173ffffffffffffffffffffffffffffffffffffffff021916908373ffffffffffffffffffffffffffffffffffffffff16021790555060008160000160156101000a81548160ff0219169083151502179055508060000160149054906101000a900460ff1615610e90576040517f08c379a0000000000000000000000000000000000000000000000000000000008152600401610e87906118d5565b60405180910390fd5b8060000160009054906101000a900473ffffffffffffffffffffffffffffffffffffffff1673ffffffffffffffffffffffffffffffffffffffff163373ffffffffffffffffffffffffffffffffffffffff1614610f22576040517f08c379a0000000000000000000000000000000000000000000000000000000008152600401610f1990611935565b60405180910390fd5b60008160040181905550828160050160008360040154815260200190815260200160002081905550806004016000815480929190610f5f90611b96565b91905055508381600301819055508060020160009054906101000a900473ffffffffffffffffffffffffffffffffffffffff1673ffffffffffffffffffffffffffffffffffffffff166323b872dd333084600301546040518463ffffffff1660e01b8152600401610fd2939291906117c6565b600060405180830381600087803b158015610fec57600080fd5b505af1158015611000573d6000803e3d6000fd5b5050505060018160000160146101000a81548160ff02191690831515021790555062015180826110309190611a60565b4261103b9190611a0a565b8160010181905550838573ffffffffffffffffffffffffffffffffffffffff167f3b305515dbe345238649f5ce343c57ae67d5727443f8d744b2b793c3231e3ad98584600101546040516110909291906119d0565b60405180910390a35050505050565b60008060008473ffffffffffffffffffffffffffffffffffffffff1673ffffffffffffffffffffffffffffffffffffffff1681526020019081526020016000206000838152602001908152602001600020905060008160070160003373ffffffffffffffffffffffffffffffffffffffff1673ffffffffffffffffffffffffffffffffffffffff1681526020019081526020016000205490506000811415801561114b57506001548111155b61118a576040517f08c379a000000000000000000000000000000000000000000000000000000000815260040161118190611995565b60405180910390fd5b8160060160008360040154815260200190815260200160002060009054906101000a900473ffffffffffffffffffffffffffffffffffffffff1673ffffffffffffffffffffffffffffffffffffffff163373ffffffffffffffffffffffffffffffffffffffff1614156112b057816004016000815461120890611b6c565b919050819055508160060160008360040154815260200190815260200160002060009054906101000a900473ffffffffffffffffffffffffffffffffffffffff1673ffffffffffffffffffffffffffffffffffffffff167fe684a55f31b79eca403df938249029212a5925ec6be8012e099b45bc1019e5d283600501600085600401548152602001908152602001600020546040516112a791906119b5565b60405180910390a25b60008260070160003373ffffffffffffffffffffffffffffffffffffffff1673ffffffffffffffffffffffffffffffffffffffff168152602001908152602001600020819055503373ffffffffffffffffffffffffffffffffffffffff166108fc829081150290604051600060405180830381858888f1935050505015801561133d573d6000803e3d6000fd5b5080600160008282546113509190611aba565b925050819055503373ffffffffffffffffffffffffffffffffffffffff167f884edad9ce6fa2440d8a54cc123490eb96d2768479d49ff9c7366125a94243648260405161139d91906119b5565b60405180910390a250505050565b6000602052816000526040600020602052806000526040600020600091509150508060000160009054906101000a900473ffffffffffffffffffffffffffffffffffffffff16908060000160149054906101000a900460ff16908060000160159054906101000a900460ff16908060010154908060020160009054906101000a900473ffffffffffffffffffffffffffffffffffffffff16908060030154908060040154905087565b60008135905061146381611d84565b92915050565b60008151905061147881611d84565b92915050565b60008135905061148d81611d9b565b92915050565b6000815190506114a281611d9b565b92915050565b6000602082840312156114be576114bd611c0e565b5b60006114cc84828501611469565b91505092915050565b6000806000606084860312156114ee576114ed611c0e565b5b60006114fc86828701611454565b935050602061150d86828701611454565b925050604061151e8682870161147e565b9150509250925092565b6000806040838503121561153f5761153e611c0e565b5b600061154d85828601611454565b925050602061155e8582860161147e565b9150509250929050565b60008060006060848603121561158157611580611c0e565b5b600061158f86828701611454565b93505060206115a08682870161147e565b92505060406115b186828701611454565b9150509250925092565b600080600080608085870312156115d5576115d4611c0e565b5b60006115e387828801611454565b94505060206115f48782880161147e565b93505060406116058782880161147e565b92505060606116168782880161147e565b91505092959194509250565b60006020828403121561163857611637611c0e565b5b600061164684828501611493565b91505092915050565b61165881611aee565b82525050565b61166781611b00565b82525050565b61167681611b36565b82525050565b6000611689600a836119f9565b915061169482611c13565b602082019050919050565b60006116ac6019836119f9565b91506116b782611c3c565b602082019050919050565b60006116cf6010836119f9565b91506116da82611c65565b602082019050919050565b60006116f26006836119f9565b91506116fd82611c8e565b602082019050919050565b60006117156018836119f9565b915061172082611cb7565b602082019050919050565b6000611738601e836119f9565b915061174382611ce0565b602082019050919050565b600061175b600c836119f9565b915061176682611d09565b602082019050919050565b600061177e6016836119f9565b915061178982611d32565b602082019050919050565b60006117a16012836119f9565b91506117ac82611d5b565b602082019050919050565b6117c081611b2c565b82525050565b60006060820190506117db600083018661164f565b6117e8602083018561164f565b6117f560408301846117b7565b949350505050565b600060e082019050611812600083018a61164f565b61181f602083018961165e565b61182c604083018861165e565b61183960608301876117b7565b611846608083018661166d565b61185360a08301856117b7565b61186060c08301846117b7565b98975050505050505050565b6000604082019050611881600083018561164f565b61188e60208301846117b7565b9392505050565b600060208201905081810360008301526118ae8161167c565b9050919050565b600060208201905081810360008301526118ce8161169f565b9050919050565b600060208201905081810360008301526118ee816116c2565b9050919050565b6000602082019050818103600083015261190e816116e5565b9050919050565b6000602082019050818103600083015261192e81611708565b9050919050565b6000602082019050818103600083015261194e8161172b565b9050919050565b6000602082019050818103600083015261196e8161174e565b9050919050565b6000602082019050818103600083015261198e81611771565b9050919050565b600060208201905081810360008301526119ae81611794565b9050919050565b60006020820190506119ca60008301846117b7565b92915050565b60006040820190506119e560008301856117b7565b6119f260208301846117b7565b9392505050565b600082825260208201905092915050565b6000611a1582611b2c565b9150611a2083611b2c565b9250827fffffffffffffffffffffffffffffffffffffffffffffffffffffffffffffffff03821115611a5557611a54611bdf565b5b828201905092915050565b6000611a6b82611b2c565b9150611a7683611b2c565b9250817fffffffffffffffffffffffffffffffffffffffffffffffffffffffffffffffff0483118215151615611aaf57611aae611bdf565b5b828202905092915050565b6000611ac582611b2c565b9150611ad083611b2c565b925082821015611ae357611ae2611bdf565b5b828203905092915050565b6000611af982611b0c565b9050919050565b60008115159050919050565b600073ffffffffffffffffffffffffffffffffffffffff82169050919050565b6000819050919050565b6000611b4182611b48565b9050919050565b6000611b5382611b5a565b9050919050565b6000611b6582611b0c565b9050919050565b6000611b7782611b2c565b91506000821415611b8b57611b8a611bdf565b5b600182039050919050565b6000611ba182611b2c565b91507fffffffffffffffffffffffffffffffffffffffffffffffffffffffffffffffff821415611bd457611bd3611bdf565b5b600182019050919050565b7f4e487b7100000000000000000000000000000000000000000000000000000000600052601160045260246000fd5b600080fd5b7f4c6f776572206269642100000000000000000000000000000000000000000000600082015250565b7f41756374696f6e206973207374696c6c206f6e676f696e672100000000000000600082015250565b7f416c726561647920737461727465642100000000000000000000000000000000600082015250565b7f456e646564210000000000000000000000000000000000000000000000000000600082015250565b7f596f75206e65656420746f207374617274206669727374210000000000000000600082015250565b7f596f752063616e206e6f74207374617274207468652061756374696f6e210000600082015250565b7f4e6f7420737461727465642e0000000000000000000000000000000000000000600082015250565b7f41756374696f6e20616c726561647920656e6465642100000000000000000000600082015250565b7f436f756c64206e6f742077697468647261770000000000000000000000000000600082015250565b611d8d81611aee565b8114611d9857600080fd5b50565b611da481611b2c565b8114611daf57600080fd5b5056fea2646970667358221220c1df68f9539e4daff3fd64083da3d43dd90def97648ba09a7d552d63b471767864736f6c63430008070033",
					"opcodes": "PUSH1 0x80 PUSH1 0x40 MSTORE CALLVALUE DUP1 ISZERO PUSH2 0x10 JUMPI PUSH1 0x0 DUP1 REVERT JUMPDEST POP PUSH2 0x1DE8 DUP1 PUSH2 0x20 PUSH1 0x0 CODECOPY PUSH1 0x0 RETURN INVALID PUSH1 0x80 PUSH1 0x40 MSTORE PUSH1 0x4 CALLDATASIZE LT PUSH2 0x7B JUMPI PUSH1 0x0 CALLDATALOAD PUSH1 0xE0 SHR DUP1 PUSH4 0xA9DD14D6 GT PUSH2 0x4E JUMPI DUP1 PUSH4 0xA9DD14D6 EQ PUSH2 0x10C JUMPI DUP1 PUSH4 0xB76A3B5A EQ PUSH2 0x149 JUMPI DUP1 PUSH4 0xF3FEF3A3 EQ PUSH2 0x172 JUMPI DUP1 PUSH4 0xF48E9B3D EQ PUSH2 0x18E JUMPI PUSH2 0x7B JUMP JUMPDEST DUP1 PUSH4 0x59D667A5 EQ PUSH2 0x80 JUMPI DUP1 PUSH4 0x695D69BA EQ PUSH2 0x9C JUMPI DUP1 PUSH4 0x699FF43F EQ PUSH2 0xC5 JUMPI DUP1 PUSH4 0x7BB98A68 EQ PUSH2 0xE1 JUMPI JUMPDEST PUSH1 0x0 DUP1 REVERT JUMPDEST PUSH2 0x9A PUSH1 0x4 DUP1 CALLDATASIZE SUB DUP2 ADD SWAP1 PUSH2 0x95 SWAP2 SWAP1 PUSH2 0x1528 JUMP JUMPDEST PUSH2 0x1D1 JUMP JUMPDEST STOP JUMPDEST CALLVALUE DUP1 ISZERO PUSH2 0xA8 JUMPI PUSH1 0x0 DUP1 REVERT JUMPDEST POP PUSH2 0xC3 PUSH1 0x4 DUP1 CALLDATASIZE SUB DUP2 ADD SWAP1 PUSH2 0xBE SWAP2 SWAP1 PUSH2 0x1528 JUMP JUMPDEST PUSH2 0x4FC JUMP JUMPDEST STOP JUMPDEST PUSH2 0xDF PUSH1 0x4 DUP1 CALLDATASIZE SUB DUP2 ADD SWAP1 PUSH2 0xDA SWAP2 SWAP1 PUSH2 0x1568 JUMP JUMPDEST PUSH2 0xA1A JUMP JUMPDEST STOP JUMPDEST CALLVALUE DUP1 ISZERO PUSH2 0xED JUMPI PUSH1 0x0 DUP1 REVERT JUMPDEST POP PUSH2 0xF6 PUSH2 0xC00 JUMP JUMPDEST PUSH1 0x40 MLOAD PUSH2 0x103 SWAP2 SWAP1 PUSH2 0x19B5 JUMP JUMPDEST PUSH1 0x40 MLOAD DUP1 SWAP2 SUB SWAP1 RETURN JUMPDEST CALLVALUE DUP1 ISZERO PUSH2 0x118 JUMPI PUSH1 0x0 DUP1 REVERT JUMPDEST POP PUSH2 0x133 PUSH1 0x4 DUP1 CALLDATASIZE SUB DUP2 ADD SWAP1 PUSH2 0x12E SWAP2 SWAP1 PUSH2 0x14D5 JUMP JUMPDEST PUSH2 0xC06 JUMP JUMPDEST PUSH1 0x40 MLOAD PUSH2 0x140 SWAP2 SWAP1 PUSH2 0x19B5 JUMP JUMPDEST PUSH1 0x40 MLOAD DUP1 SWAP2 SUB SWAP1 RETURN JUMPDEST CALLVALUE DUP1 ISZERO PUSH2 0x155 JUMPI PUSH1 0x0 DUP1 REVERT JUMPDEST POP PUSH2 0x170 PUSH1 0x4 DUP1 CALLDATASIZE SUB DUP2 ADD SWAP1 PUSH2 0x16B SWAP2 SWAP1 PUSH2 0x15BB JUMP JUMPDEST PUSH2 0xC9C JUMP JUMPDEST STOP JUMPDEST PUSH2 0x18C PUSH1 0x4 DUP1 CALLDATASIZE SUB DUP2 ADD SWAP1 PUSH2 0x187 SWAP2 SWAP1 PUSH2 0x1528 JUMP JUMPDEST PUSH2 0x109F JUMP JUMPDEST STOP JUMPDEST CALLVALUE DUP1 ISZERO PUSH2 0x19A JUMPI PUSH1 0x0 DUP1 REVERT JUMPDEST POP PUSH2 0x1B5 PUSH1 0x4 DUP1 CALLDATASIZE SUB DUP2 ADD SWAP1 PUSH2 0x1B0 SWAP2 SWAP1 PUSH2 0x1528 JUMP JUMPDEST PUSH2 0x13AB JUMP JUMPDEST PUSH1 0x40 MLOAD PUSH2 0x1C8 SWAP8 SWAP7 SWAP6 SWAP5 SWAP4 SWAP3 SWAP2 SWAP1 PUSH2 0x17FD JUMP JUMPDEST PUSH1 0x40 MLOAD DUP1 SWAP2 SUB SWAP1 RETURN JUMPDEST PUSH1 0x0 DUP1 PUSH1 0x0 DUP5 PUSH20 0xFFFFFFFFFFFFFFFFFFFFFFFFFFFFFFFFFFFFFFFF AND PUSH20 0xFFFFFFFFFFFFFFFFFFFFFFFFFFFFFFFFFFFFFFFF AND DUP2 MSTORE PUSH1 0x20 ADD SWAP1 DUP2 MSTORE PUSH1 0x20 ADD PUSH1 0x0 KECCAK256 PUSH1 0x0 DUP4 DUP2 MSTORE PUSH1 0x20 ADD SWAP1 DUP2 MSTORE PUSH1 0x20 ADD PUSH1 0x0 KECCAK256 SWAP1 POP DUP1 PUSH1 0x0 ADD PUSH1 0x14 SWAP1 SLOAD SWAP1 PUSH2 0x100 EXP SWAP1 DIV PUSH1 0xFF AND PUSH2 0x275 JUMPI PUSH1 0x40 MLOAD PUSH32 0x8C379A000000000000000000000000000000000000000000000000000000000 DUP2 MSTORE PUSH1 0x4 ADD PUSH2 0x26C SWAP1 PUSH2 0x1955 JUMP JUMPDEST PUSH1 0x40 MLOAD DUP1 SWAP2 SUB SWAP1 REVERT JUMPDEST DUP1 PUSH1 0x1 ADD SLOAD TIMESTAMP LT PUSH2 0x2BB JUMPI PUSH1 0x40 MLOAD PUSH32 0x8C379A000000000000000000000000000000000000000000000000000000000 DUP2 MSTORE PUSH1 0x4 ADD PUSH2 0x2B2 SWAP1 PUSH2 0x18F5 JUMP JUMPDEST PUSH1 0x40 MLOAD DUP1 SWAP2 SUB SWAP1 REVERT JUMPDEST DUP1 PUSH1 0x5 ADD PUSH1 0x0 DUP3 PUSH1 0x4 ADD SLOAD DUP2 MSTORE PUSH1 0x20 ADD SWAP1 DUP2 MSTORE PUSH1 0x20 ADD PUSH1 0x0 KECCAK256 SLOAD CALLVALUE GT PUSH2 0x316 JUMPI PUSH1 0x40 MLOAD PUSH32 0x8C379A000000000000000000000000000000000000000000000000000000000 DUP2 MSTORE PUSH1 0x4 ADD PUSH2 0x30D SWAP1 PUSH2 0x1895 JUMP JUMPDEST PUSH1 0x40 MLOAD DUP1 SWAP2 SUB SWAP1 REVERT JUMPDEST CALLVALUE DUP2 PUSH1 0x5 ADD PUSH1 0x0 DUP4 PUSH1 0x4 ADD SLOAD DUP2 MSTORE PUSH1 0x20 ADD SWAP1 DUP2 MSTORE PUSH1 0x20 ADD PUSH1 0x0 KECCAK256 DUP2 SWAP1 SSTORE POP CALLER DUP2 PUSH1 0x6 ADD PUSH1 0x0 DUP4 PUSH1 0x4 ADD SLOAD DUP2 MSTORE PUSH1 0x20 ADD SWAP1 DUP2 MSTORE PUSH1 0x20 ADD PUSH1 0x0 KECCAK256 PUSH1 0x0 PUSH2 0x100 EXP DUP2 SLOAD DUP2 PUSH20 0xFFFFFFFFFFFFFFFFFFFFFFFFFFFFFFFFFFFFFFFF MUL NOT AND SWAP1 DUP4 PUSH20 0xFFFFFFFFFFFFFFFFFFFFFFFFFFFFFFFFFFFFFFFF AND MUL OR SWAP1 SSTORE POP DUP1 PUSH1 0x5 ADD PUSH1 0x0 DUP3 PUSH1 0x4 ADD SLOAD DUP2 MSTORE PUSH1 0x20 ADD SWAP1 DUP2 MSTORE PUSH1 0x20 ADD PUSH1 0x0 KECCAK256 SLOAD DUP2 PUSH1 0x7 ADD PUSH1 0x0 DUP4 PUSH1 0x6 ADD PUSH1 0x0 DUP6 PUSH1 0x4 ADD SLOAD DUP2 MSTORE PUSH1 0x20 ADD SWAP1 DUP2 MSTORE PUSH1 0x20 ADD PUSH1 0x0 KECCAK256 PUSH1 0x0 SWAP1 SLOAD SWAP1 PUSH2 0x100 EXP SWAP1 DIV PUSH20 0xFFFFFFFFFFFFFFFFFFFFFFFFFFFFFFFFFFFFFFFF AND PUSH20 0xFFFFFFFFFFFFFFFFFFFFFFFFFFFFFFFFFFFFFFFF AND PUSH20 0xFFFFFFFFFFFFFFFFFFFFFFFFFFFFFFFFFFFFFFFF AND DUP2 MSTORE PUSH1 0x20 ADD SWAP1 DUP2 MSTORE PUSH1 0x20 ADD PUSH1 0x0 KECCAK256 DUP2 SWAP1 SSTORE POP DUP1 PUSH1 0x4 ADD PUSH1 0x0 DUP2 SLOAD DUP1 SWAP3 SWAP2 SWAP1 PUSH2 0x439 SWAP1 PUSH2 0x1B96 JUMP JUMPDEST SWAP2 SWAP1 POP SSTORE POP CALLVALUE PUSH1 0x1 PUSH1 0x0 DUP3 DUP3 SLOAD PUSH2 0x450 SWAP2 SWAP1 PUSH2 0x1A0A JUMP JUMPDEST SWAP3 POP POP DUP2 SWAP1 SSTORE POP DUP1 PUSH1 0x6 ADD PUSH1 0x0 DUP3 PUSH1 0x4 ADD SLOAD DUP2 MSTORE PUSH1 0x20 ADD SWAP1 DUP2 MSTORE PUSH1 0x20 ADD PUSH1 0x0 KECCAK256 PUSH1 0x0 SWAP1 SLOAD SWAP1 PUSH2 0x100 EXP SWAP1 DIV PUSH20 0xFFFFFFFFFFFFFFFFFFFFFFFFFFFFFFFFFFFFFFFF AND PUSH20 0xFFFFFFFFFFFFFFFFFFFFFFFFFFFFFFFFFFFFFFFF AND PUSH32 0xE684A55F31B79ECA403DF938249029212A5925EC6BE8012E099B45BC1019E5D2 DUP3 PUSH1 0x5 ADD PUSH1 0x0 DUP5 PUSH1 0x4 ADD SLOAD DUP2 MSTORE PUSH1 0x20 ADD SWAP1 DUP2 MSTORE PUSH1 0x20 ADD PUSH1 0x0 KECCAK256 SLOAD PUSH1 0x40 MLOAD PUSH2 0x4EF SWAP2 SWAP1 PUSH2 0x19B5 JUMP JUMPDEST PUSH1 0x40 MLOAD DUP1 SWAP2 SUB SWAP1 LOG2 POP POP POP JUMP JUMPDEST PUSH1 0x0 DUP1 PUSH1 0x0 DUP5 PUSH20 0xFFFFFFFFFFFFFFFFFFFFFFFFFFFFFFFFFFFFFFFF AND PUSH20 0xFFFFFFFFFFFFFFFFFFFFFFFFFFFFFFFFFFFFFFFF AND DUP2 MSTORE PUSH1 0x20 ADD SWAP1 DUP2 MSTORE PUSH1 0x20 ADD PUSH1 0x0 KECCAK256 PUSH1 0x0 DUP4 DUP2 MSTORE PUSH1 0x20 ADD SWAP1 DUP2 MSTORE PUSH1 0x20 ADD PUSH1 0x0 KECCAK256 SWAP1 POP DUP1 PUSH1 0x0 ADD PUSH1 0x14 SWAP1 SLOAD SWAP1 PUSH2 0x100 EXP SWAP1 DIV PUSH1 0xFF AND PUSH2 0x5A0 JUMPI PUSH1 0x40 MLOAD PUSH32 0x8C379A000000000000000000000000000000000000000000000000000000000 DUP2 MSTORE PUSH1 0x4 ADD PUSH2 0x597 SWAP1 PUSH2 0x1915 JUMP JUMPDEST PUSH1 0x40 MLOAD DUP1 SWAP2 SUB SWAP1 REVERT JUMPDEST DUP1 PUSH1 0x1 ADD SLOAD TIMESTAMP LT ISZERO PUSH2 0x5E7 JUMPI PUSH1 0x40 MLOAD PUSH32 0x8C379A000000000000000000000000000000000000000000000000000000000 DUP2 MSTORE PUSH1 0x4 ADD PUSH2 0x5DE SWAP1 PUSH2 0x18B5 JUMP JUMPDEST PUSH1 0x40 MLOAD DUP1 SWAP2 SUB SWAP1 REVERT JUMPDEST DUP1 PUSH1 0x0 ADD PUSH1 0x15 SWAP1 SLOAD SWAP1 PUSH2 0x100 EXP SWAP1 DIV PUSH1 0xFF AND ISZERO PUSH2 0x639 JUMPI PUSH1 0x40 MLOAD PUSH32 0x8C379A000000000000000000000000000000000000000000000000000000000 DUP2 MSTORE PUSH1 0x4 ADD PUSH2 0x630 SWAP1 PUSH2 0x1975 JUMP JUMPDEST PUSH1 0x40 MLOAD DUP1 SWAP2 SUB SWAP1 REVERT JUMPDEST PUSH1 0x0 PUSH20 0xFFFFFFFFFFFFFFFFFFFFFFFFFFFFFFFFFFFFFFFF AND DUP2 PUSH1 0x6 ADD PUSH1 0x0 DUP4 PUSH1 0x4 ADD SLOAD DUP2 MSTORE PUSH1 0x20 ADD SWAP1 DUP2 MSTORE PUSH1 0x20 ADD PUSH1 0x0 KECCAK256 PUSH1 0x0 SWAP1 SLOAD SWAP1 PUSH2 0x100 EXP SWAP1 DIV PUSH20 0xFFFFFFFFFFFFFFFFFFFFFFFFFFFFFFFFFFFFFFFF AND PUSH20 0xFFFFFFFFFFFFFFFFFFFFFFFFFFFFFFFFFFFFFFFF AND EQ PUSH2 0x894 JUMPI DUP1 PUSH1 0x2 ADD PUSH1 0x0 SWAP1 SLOAD SWAP1 PUSH2 0x100 EXP SWAP1 DIV PUSH20 0xFFFFFFFFFFFFFFFFFFFFFFFFFFFFFFFFFFFFFFFF AND PUSH20 0xFFFFFFFFFFFFFFFFFFFFFFFFFFFFFFFFFFFFFFFF AND PUSH4 0x23B872DD ADDRESS DUP4 PUSH1 0x6 ADD PUSH1 0x0 DUP6 PUSH1 0x4 ADD SLOAD DUP2 MSTORE PUSH1 0x20 ADD SWAP1 DUP2 MSTORE PUSH1 0x20 ADD PUSH1 0x0 KECCAK256 PUSH1 0x0 SWAP1 SLOAD SWAP1 PUSH2 0x100 EXP SWAP1 DIV PUSH20 0xFFFFFFFFFFFFFFFFFFFFFFFFFFFFFFFFFFFFFFFF AND DUP5 PUSH1 0x3 ADD SLOAD PUSH1 0x40 MLOAD DUP5 PUSH4 0xFFFFFFFF AND PUSH1 0xE0 SHL DUP2 MSTORE PUSH1 0x4 ADD PUSH2 0x744 SWAP4 SWAP3 SWAP2 SWAP1 PUSH2 0x17C6 JUMP JUMPDEST PUSH1 0x0 PUSH1 0x40 MLOAD DUP1 DUP4 SUB DUP2 PUSH1 0x0 DUP8 DUP1 EXTCODESIZE ISZERO DUP1 ISZERO PUSH2 0x75E JUMPI PUSH1 0x0 DUP1 REVERT JUMPDEST POP GAS CALL ISZERO DUP1 ISZERO PUSH2 0x772 JUMPI RETURNDATASIZE PUSH1 0x0 DUP1 RETURNDATACOPY RETURNDATASIZE PUSH1 0x0 REVERT JUMPDEST POP POP POP POP DUP1 PUSH1 0x0 ADD PUSH1 0x0 SWAP1 SLOAD SWAP1 PUSH2 0x100 EXP SWAP1 DIV PUSH20 0xFFFFFFFFFFFFFFFFFFFFFFFFFFFFFFFFFFFFFFFF AND PUSH20 0xFFFFFFFFFFFFFFFFFFFFFFFFFFFFFFFFFFFFFFFF AND PUSH2 0x8FC DUP3 PUSH1 0x5 ADD PUSH1 0x0 DUP5 PUSH1 0x4 ADD SLOAD DUP2 MSTORE PUSH1 0x20 ADD SWAP1 DUP2 MSTORE PUSH1 0x20 ADD PUSH1 0x0 KECCAK256 SLOAD SWAP1 DUP2 ISZERO MUL SWAP1 PUSH1 0x40 MLOAD PUSH1 0x0 PUSH1 0x40 MLOAD DUP1 DUP4 SUB DUP2 DUP6 DUP9 DUP9 CALL SWAP4 POP POP POP POP ISZERO DUP1 ISZERO PUSH2 0x7F9 JUMPI RETURNDATASIZE PUSH1 0x0 DUP1 RETURNDATACOPY RETURNDATASIZE PUSH1 0x0 REVERT JUMPDEST POP DUP1 PUSH1 0x5 ADD PUSH1 0x0 DUP3 PUSH1 0x4 ADD SLOAD DUP2 MSTORE PUSH1 0x20 ADD SWAP1 DUP2 MSTORE PUSH1 0x20 ADD PUSH1 0x0 KECCAK256 SLOAD PUSH1 0x1 PUSH1 0x0 DUP3 DUP3 SLOAD PUSH2 0x825 SWAP2 SWAP1 PUSH2 0x1ABA JUMP JUMPDEST SWAP3 POP POP DUP2 SWAP1 SSTORE POP PUSH1 0x0 JUMPDEST DUP2 PUSH1 0x4 ADD SLOAD DUP2 LT ISZERO PUSH2 0x88E JUMPI PUSH2 0x87B DUP5 DUP5 DUP5 PUSH1 0x6 ADD PUSH1 0x0 DUP6 DUP2 MSTORE PUSH1 0x20 ADD SWAP1 DUP2 MSTORE PUSH1 0x20 ADD PUSH1 0x0 KECCAK256 PUSH1 0x0 SWAP1 SLOAD SWAP1 PUSH2 0x100 EXP SWAP1 DIV PUSH20 0xFFFFFFFFFFFFFFFFFFFFFFFFFFFFFFFFFFFFFFFF AND PUSH2 0xA1A JUMP JUMPDEST DUP1 DUP1 PUSH2 0x886 SWAP1 PUSH2 0x1B96 JUMP JUMPDEST SWAP2 POP POP PUSH2 0x82F JUMP JUMPDEST POP PUSH2 0x950 JUMP JUMPDEST DUP1 PUSH1 0x2 ADD PUSH1 0x0 SWAP1 SLOAD SWAP1 PUSH2 0x100 EXP SWAP1 DIV PUSH20 0xFFFFFFFFFFFFFFFFFFFFFFFFFFFFFFFFFFFFFFFF AND PUSH20 0xFFFFFFFFFFFFFFFFFFFFFFFFFFFFFFFFFFFFFFFF AND PUSH4 0x23B872DD ADDRESS DUP4 PUSH1 0x0 ADD PUSH1 0x0 SWAP1 SLOAD SWAP1 PUSH2 0x100 EXP SWAP1 DIV PUSH20 0xFFFFFFFFFFFFFFFFFFFFFFFFFFFFFFFFFFFFFFFF AND DUP5 PUSH1 0x3 ADD SLOAD PUSH1 0x40 MLOAD DUP5 PUSH4 0xFFFFFFFF AND PUSH1 0xE0 SHL DUP2 MSTORE PUSH1 0x4 ADD PUSH2 0x91D SWAP4 SWAP3 SWAP2 SWAP1 PUSH2 0x17C6 JUMP JUMPDEST PUSH1 0x0 PUSH1 0x40 MLOAD DUP1 DUP4 SUB DUP2 PUSH1 0x0 DUP8 DUP1 EXTCODESIZE ISZERO DUP1 ISZERO PUSH2 0x937 JUMPI PUSH1 0x0 DUP1 REVERT JUMPDEST POP GAS CALL ISZERO DUP1 ISZERO PUSH2 0x94B JUMPI RETURNDATASIZE PUSH1 0x0 DUP1 RETURNDATACOPY RETURNDATASIZE PUSH1 0x0 REVERT JUMPDEST POP POP POP POP JUMPDEST PUSH1 0x1 DUP2 PUSH1 0x0 ADD PUSH1 0x15 PUSH2 0x100 EXP DUP2 SLOAD DUP2 PUSH1 0xFF MUL NOT AND SWAP1 DUP4 ISZERO ISZERO MUL OR SWAP1 SSTORE POP PUSH1 0x0 DUP2 PUSH1 0x0 ADD PUSH1 0x14 PUSH2 0x100 EXP DUP2 SLOAD DUP2 PUSH1 0xFF MUL NOT AND SWAP1 DUP4 ISZERO ISZERO MUL OR SWAP1 SSTORE POP PUSH32 0x7D7570B046E5EAD3A4F3FBC9FA2445113625A1E79823776146316BAFED6B8CC5 DUP2 PUSH1 0x6 ADD PUSH1 0x0 DUP4 PUSH1 0x4 ADD SLOAD DUP2 MSTORE PUSH1 0x20 ADD SWAP1 DUP2 MSTORE PUSH1 0x20 ADD PUSH1 0x0 KECCAK256 PUSH1 0x0 SWAP1 SLOAD SWAP1 PUSH2 0x100 EXP SWAP1 DIV PUSH20 0xFFFFFFFFFFFFFFFFFFFFFFFFFFFFFFFFFFFFFFFF AND DUP3 PUSH1 0x5 ADD PUSH1 0x0 DUP5 PUSH1 0x4 ADD SLOAD DUP2 MSTORE PUSH1 0x20 ADD SWAP1 DUP2 MSTORE PUSH1 0x20 ADD PUSH1 0x0 KECCAK256 SLOAD PUSH1 0x40 MLOAD PUSH2 0xA0D SWAP3 SWAP2 SWAP1 PUSH2 0x186C JUMP JUMPDEST PUSH1 0x40 MLOAD DUP1 SWAP2 SUB SWAP1 LOG1 POP POP POP JUMP JUMPDEST PUSH1 0x0 DUP1 PUSH1 0x0 DUP6 PUSH20 0xFFFFFFFFFFFFFFFFFFFFFFFFFFFFFFFFFFFFFFFF AND PUSH20 0xFFFFFFFFFFFFFFFFFFFFFFFFFFFFFFFFFFFFFFFF AND DUP2 MSTORE PUSH1 0x20 ADD SWAP1 DUP2 MSTORE PUSH1 0x20 ADD PUSH1 0x0 KECCAK256 PUSH1 0x0 DUP5 DUP2 MSTORE PUSH1 0x20 ADD SWAP1 DUP2 MSTORE PUSH1 0x20 ADD PUSH1 0x0 KECCAK256 SWAP1 POP PUSH1 0x0 DUP2 PUSH1 0x7 ADD PUSH1 0x0 DUP5 PUSH20 0xFFFFFFFFFFFFFFFFFFFFFFFFFFFFFFFFFFFFFFFF AND PUSH20 0xFFFFFFFFFFFFFFFFFFFFFFFFFFFFFFFFFFFFFFFF AND DUP2 MSTORE PUSH1 0x20 ADD SWAP1 DUP2 MSTORE PUSH1 0x20 ADD PUSH1 0x0 KECCAK256 SLOAD SWAP1 POP PUSH1 0x0 DUP2 GT DUP1 ISZERO PUSH2 0xAC5 JUMPI POP PUSH1 0x1 SLOAD DUP2 GT ISZERO JUMPDEST PUSH2 0xB04 JUMPI PUSH1 0x40 MLOAD PUSH32 0x8C379A000000000000000000000000000000000000000000000000000000000 DUP2 MSTORE PUSH1 0x4 ADD PUSH2 0xAFB SWAP1 PUSH2 0x1995 JUMP JUMPDEST PUSH1 0x40 MLOAD DUP1 SWAP2 SUB SWAP1 REVERT JUMPDEST PUSH1 0x0 DUP3 PUSH1 0x7 ADD PUSH1 0x0 DUP6 PUSH20 0xFFFFFFFFFFFFFFFFFFFFFFFFFFFFFFFFFFFFFFFF AND PUSH20 0xFFFFFFFFFFFFFFFFFFFFFFFFFFFFFFFFFFFFFFFF AND DUP2 MSTORE PUSH1 0x20 ADD SWAP1 DUP2 MSTORE PUSH1 0x20 ADD PUSH1 0x0 KECCAK256 DUP2 SWAP1 SSTORE POP DUP3 PUSH20 0xFFFFFFFFFFFFFFFFFFFFFFFFFFFFFFFFFFFFFFFF AND PUSH2 0x8FC DUP3 SWAP1 DUP2 ISZERO MUL SWAP1 PUSH1 0x40 MLOAD PUSH1 0x0 PUSH1 0x40 MLOAD DUP1 DUP4 SUB DUP2 DUP6 DUP9 DUP9 CALL SWAP4 POP POP POP POP ISZERO DUP1 ISZERO PUSH2 0xB91 JUMPI RETURNDATASIZE PUSH1 0x0 DUP1 RETURNDATACOPY RETURNDATASIZE PUSH1 0x0 REVERT JUMPDEST POP DUP1 PUSH1 0x1 PUSH1 0x0 DUP3 DUP3 SLOAD PUSH2 0xBA4 SWAP2 SWAP1 PUSH2 0x1ABA JUMP JUMPDEST SWAP3 POP POP DUP2 SWAP1 SSTORE POP DUP3 PUSH20 0xFFFFFFFFFFFFFFFFFFFFFFFFFFFFFFFFFFFFFFFF AND PUSH32 0x884EDAD9CE6FA2440D8A54CC123490EB96D2768479D49FF9C7366125A9424364 DUP3 PUSH1 0x40 MLOAD PUSH2 0xBF1 SWAP2 SWAP1 PUSH2 0x19B5 JUMP JUMPDEST PUSH1 0x40 MLOAD DUP1 SWAP2 SUB SWAP1 LOG2 POP POP POP POP POP JUMP JUMPDEST PUSH1 0x1 SLOAD DUP2 JUMP JUMPDEST PUSH1 0x0 DUP4 PUSH20 0xFFFFFFFFFFFFFFFFFFFFFFFFFFFFFFFFFFFFFFFF AND PUSH4 0x449E815D DUP5 DUP5 PUSH1 0x40 MLOAD DUP4 PUSH4 0xFFFFFFFF AND PUSH1 0xE0 SHL DUP2 MSTORE PUSH1 0x4 ADD PUSH2 0xC43 SWAP3 SWAP2 SWAP1 PUSH2 0x186C JUMP JUMPDEST PUSH1 0x20 PUSH1 0x40 MLOAD DUP1 DUP4 SUB DUP2 DUP7 DUP1 EXTCODESIZE ISZERO DUP1 ISZERO PUSH2 0xC5B JUMPI PUSH1 0x0 DUP1 REVERT JUMPDEST POP GAS STATICCALL ISZERO DUP1 ISZERO PUSH2 0xC6F JUMPI RETURNDATASIZE PUSH1 0x0 DUP1 RETURNDATACOPY RETURNDATASIZE PUSH1 0x0 REVERT JUMPDEST POP POP POP POP PUSH1 0x40 MLOAD RETURNDATASIZE PUSH1 0x1F NOT PUSH1 0x1F DUP3 ADD AND DUP3 ADD DUP1 PUSH1 0x40 MSTORE POP DUP2 ADD SWAP1 PUSH2 0xC93 SWAP2 SWAP1 PUSH2 0x1622 JUMP JUMPDEST SWAP1 POP SWAP4 SWAP3 POP POP POP JUMP JUMPDEST PUSH1 0x0 DUP1 PUSH1 0x0 DUP7 PUSH20 0xFFFFFFFFFFFFFFFFFFFFFFFFFFFFFFFFFFFFFFFF AND PUSH20 0xFFFFFFFFFFFFFFFFFFFFFFFFFFFFFFFFFFFFFFFF AND DUP2 MSTORE PUSH1 0x20 ADD SWAP1 DUP2 MSTORE PUSH1 0x20 ADD PUSH1 0x0 KECCAK256 PUSH1 0x0 DUP6 DUP2 MSTORE PUSH1 0x20 ADD SWAP1 DUP2 MSTORE PUSH1 0x20 ADD PUSH1 0x0 KECCAK256 SWAP1 POP DUP5 DUP2 PUSH1 0x2 ADD PUSH1 0x0 PUSH2 0x100 EXP DUP2 SLOAD DUP2 PUSH20 0xFFFFFFFFFFFFFFFFFFFFFFFFFFFFFFFFFFFFFFFF MUL NOT AND SWAP1 DUP4 PUSH20 0xFFFFFFFFFFFFFFFFFFFFFFFFFFFFFFFFFFFFFFFF AND MUL OR SWAP1 SSTORE POP DUP1 PUSH1 0x2 ADD PUSH1 0x0 SWAP1 SLOAD SWAP1 PUSH2 0x100 EXP SWAP1 DIV PUSH20 0xFFFFFFFFFFFFFFFFFFFFFFFFFFFFFFFFFFFFFFFF AND PUSH20 0xFFFFFFFFFFFFFFFFFFFFFFFFFFFFFFFFFFFFFFFF AND PUSH4 0x6352211E DUP6 PUSH1 0x40 MLOAD DUP3 PUSH4 0xFFFFFFFF AND PUSH1 0xE0 SHL DUP2 MSTORE PUSH1 0x4 ADD PUSH2 0xD8F SWAP2 SWAP1 PUSH2 0x19B5 JUMP JUMPDEST PUSH1 0x20 PUSH1 0x40 MLOAD DUP1 DUP4 SUB DUP2 DUP7 DUP1 EXTCODESIZE ISZERO DUP1 ISZERO PUSH2 0xDA7 JUMPI PUSH1 0x0 DUP1 REVERT JUMPDEST POP GAS STATICCALL ISZERO DUP1 ISZERO PUSH2 0xDBB JUMPI RETURNDATASIZE PUSH1 0x0 DUP1 RETURNDATACOPY RETURNDATASIZE PUSH1 0x0 REVERT JUMPDEST POP POP POP POP PUSH1 0x40 MLOAD RETURNDATASIZE PUSH1 0x1F NOT PUSH1 0x1F DUP3 ADD AND DUP3 ADD DUP1 PUSH1 0x40 MSTORE POP DUP2 ADD SWAP1 PUSH2 0xDDF SWAP2 SWAP1 PUSH2 0x14A8 JUMP JUMPDEST DUP2 PUSH1 0x0 ADD PUSH1 0x0 PUSH2 0x100 EXP DUP2 SLOAD DUP2 PUSH20 0xFFFFFFFFFFFFFFFFFFFFFFFFFFFFFFFFFFFFFFFF MUL NOT AND SWAP1 DUP4 PUSH20 0xFFFFFFFFFFFFFFFFFFFFFFFFFFFFFFFFFFFFFFFF AND MUL OR SWAP1 SSTORE POP PUSH1 0x0 DUP2 PUSH1 0x0 ADD PUSH1 0x15 PUSH2 0x100 EXP DUP2 SLOAD DUP2 PUSH1 0xFF MUL NOT AND SWAP1 DUP4 ISZERO ISZERO MUL OR SWAP1 SSTORE POP DUP1 PUSH1 0x0 ADD PUSH1 0x14 SWAP1 SLOAD SWAP1 PUSH2 0x100 EXP SWAP1 DIV PUSH1 0xFF AND ISZERO PUSH2 0xE90 JUMPI PUSH1 0x40 MLOAD PUSH32 0x8C379A000000000000000000000000000000000000000000000000000000000 DUP2 MSTORE PUSH1 0x4 ADD PUSH2 0xE87 SWAP1 PUSH2 0x18D5 JUMP JUMPDEST PUSH1 0x40 MLOAD DUP1 SWAP2 SUB SWAP1 REVERT JUMPDEST DUP1 PUSH1 0x0 ADD PUSH1 0x0 SWAP1 SLOAD SWAP1 PUSH2 0x100 EXP SWAP1 DIV PUSH20 0xFFFFFFFFFFFFFFFFFFFFFFFFFFFFFFFFFFFFFFFF AND PUSH20 0xFFFFFFFFFFFFFFFFFFFFFFFFFFFFFFFFFFFFFFFF AND CALLER PUSH20 0xFFFFFFFFFFFFFFFFFFFFFFFFFFFFFFFFFFFFFFFF AND EQ PUSH2 0xF22 JUMPI PUSH1 0x40 MLOAD PUSH32 0x8C379A000000000000000000000000000000000000000000000000000000000 DUP2 MSTORE PUSH1 0x4 ADD PUSH2 0xF19 SWAP1 PUSH2 0x1935 JUMP JUMPDEST PUSH1 0x40 MLOAD DUP1 SWAP2 SUB SWAP1 REVERT JUMPDEST PUSH1 0x0 DUP2 PUSH1 0x4 ADD DUP2 SWAP1 SSTORE POP DUP3 DUP2 PUSH1 0x5 ADD PUSH1 0x0 DUP4 PUSH1 0x4 ADD SLOAD DUP2 MSTORE PUSH1 0x20 ADD SWAP1 DUP2 MSTORE PUSH1 0x20 ADD PUSH1 0x0 KECCAK256 DUP2 SWAP1 SSTORE POP DUP1 PUSH1 0x4 ADD PUSH1 0x0 DUP2 SLOAD DUP1 SWAP3 SWAP2 SWAP1 PUSH2 0xF5F SWAP1 PUSH2 0x1B96 JUMP JUMPDEST SWAP2 SWAP1 POP SSTORE POP DUP4 DUP2 PUSH1 0x3 ADD DUP2 SWAP1 SSTORE POP DUP1 PUSH1 0x2 ADD PUSH1 0x0 SWAP1 SLOAD SWAP1 PUSH2 0x100 EXP SWAP1 DIV PUSH20 0xFFFFFFFFFFFFFFFFFFFFFFFFFFFFFFFFFFFFFFFF AND PUSH20 0xFFFFFFFFFFFFFFFFFFFFFFFFFFFFFFFFFFFFFFFF AND PUSH4 0x23B872DD CALLER ADDRESS DUP5 PUSH1 0x3 ADD SLOAD PUSH1 0x40 MLOAD DUP5 PUSH4 0xFFFFFFFF AND PUSH1 0xE0 SHL DUP2 MSTORE PUSH1 0x4 ADD PUSH2 0xFD2 SWAP4 SWAP3 SWAP2 SWAP1 PUSH2 0x17C6 JUMP JUMPDEST PUSH1 0x0 PUSH1 0x40 MLOAD DUP1 DUP4 SUB DUP2 PUSH1 0x0 DUP8 DUP1 EXTCODESIZE ISZERO DUP1 ISZERO PUSH2 0xFEC JUMPI PUSH1 0x0 DUP1 REVERT JUMPDEST POP GAS CALL ISZERO DUP1 ISZERO PUSH2 0x1000 JUMPI RETURNDATASIZE PUSH1 0x0 DUP1 RETURNDATACOPY RETURNDATASIZE PUSH1 0x0 REVERT JUMPDEST POP POP POP POP PUSH1 0x1 DUP2 PUSH1 0x0 ADD PUSH1 0x14 PUSH2 0x100 EXP DUP2 SLOAD DUP2 PUSH1 0xFF MUL NOT AND SWAP1 DUP4 ISZERO ISZERO MUL OR SWAP1 SSTORE POP PUSH3 0x15180 DUP3 PUSH2 0x1030 SWAP2 SWAP1 PUSH2 0x1A60 JUMP JUMPDEST TIMESTAMP PUSH2 0x103B SWAP2 SWAP1 PUSH2 0x1A0A JUMP JUMPDEST DUP2 PUSH1 0x1 ADD DUP2 SWAP1 SSTORE POP DUP4 DUP6 PUSH20 0xFFFFFFFFFFFFFFFFFFFFFFFFFFFFFFFFFFFFFFFF AND PUSH32 0x3B305515DBE345238649F5CE343C57AE67D5727443F8D744B2B793C3231E3AD9 DUP6 DUP5 PUSH1 0x1 ADD SLOAD PUSH1 0x40 MLOAD PUSH2 0x1090 SWAP3 SWAP2 SWAP1 PUSH2 0x19D0 JUMP JUMPDEST PUSH1 0x40 MLOAD DUP1 SWAP2 SUB SWAP1 LOG3 POP POP POP POP POP JUMP JUMPDEST PUSH1 0x0 DUP1 PUSH1 0x0 DUP5 PUSH20 0xFFFFFFFFFFFFFFFFFFFFFFFFFFFFFFFFFFFFFFFF AND PUSH20 0xFFFFFFFFFFFFFFFFFFFFFFFFFFFFFFFFFFFFFFFF AND DUP2 MSTORE PUSH1 0x20 ADD SWAP1 DUP2 MSTORE PUSH1 0x20 ADD PUSH1 0x0 KECCAK256 PUSH1 0x0 DUP4 DUP2 MSTORE PUSH1 0x20 ADD SWAP1 DUP2 MSTORE PUSH1 0x20 ADD PUSH1 0x0 KECCAK256 SWAP1 POP PUSH1 0x0 DUP2 PUSH1 0x7 ADD PUSH1 0x0 CALLER PUSH20 0xFFFFFFFFFFFFFFFFFFFFFFFFFFFFFFFFFFFFFFFF AND PUSH20 0xFFFFFFFFFFFFFFFFFFFFFFFFFFFFFFFFFFFFFFFF AND DUP2 MSTORE PUSH1 0x20 ADD SWAP1 DUP2 MSTORE PUSH1 0x20 ADD PUSH1 0x0 KECCAK256 SLOAD SWAP1 POP PUSH1 0x0 DUP2 EQ ISZERO DUP1 ISZERO PUSH2 0x114B JUMPI POP PUSH1 0x1 SLOAD DUP2 GT ISZERO JUMPDEST PUSH2 0x118A JUMPI PUSH1 0x40 MLOAD PUSH32 0x8C379A000000000000000000000000000000000000000000000000000000000 DUP2 MSTORE PUSH1 0x4 ADD PUSH2 0x1181 SWAP1 PUSH2 0x1995 JUMP JUMPDEST PUSH1 0x40 MLOAD DUP1 SWAP2 SUB SWAP1 REVERT JUMPDEST DUP2 PUSH1 0x6 ADD PUSH1 0x0 DUP4 PUSH1 0x4 ADD SLOAD DUP2 MSTORE PUSH1 0x20 ADD SWAP1 DUP2 MSTORE PUSH1 0x20 ADD PUSH1 0x0 KECCAK256 PUSH1 0x0 SWAP1 SLOAD SWAP1 PUSH2 0x100 EXP SWAP1 DIV PUSH20 0xFFFFFFFFFFFFFFFFFFFFFFFFFFFFFFFFFFFFFFFF AND PUSH20 0xFFFFFFFFFFFFFFFFFFFFFFFFFFFFFFFFFFFFFFFF AND CALLER PUSH20 0xFFFFFFFFFFFFFFFFFFFFFFFFFFFFFFFFFFFFFFFF AND EQ ISZERO PUSH2 0x12B0 JUMPI DUP2 PUSH1 0x4 ADD PUSH1 0x0 DUP2 SLOAD PUSH2 0x1208 SWAP1 PUSH2 0x1B6C JUMP JUMPDEST SWAP2 SWAP1 POP DUP2 SWAP1 SSTORE POP DUP2 PUSH1 0x6 ADD PUSH1 0x0 DUP4 PUSH1 0x4 ADD SLOAD DUP2 MSTORE PUSH1 0x20 ADD SWAP1 DUP2 MSTORE PUSH1 0x20 ADD PUSH1 0x0 KECCAK256 PUSH1 0x0 SWAP1 SLOAD SWAP1 PUSH2 0x100 EXP SWAP1 DIV PUSH20 0xFFFFFFFFFFFFFFFFFFFFFFFFFFFFFFFFFFFFFFFF AND PUSH20 0xFFFFFFFFFFFFFFFFFFFFFFFFFFFFFFFFFFFFFFFF AND PUSH32 0xE684A55F31B79ECA403DF938249029212A5925EC6BE8012E099B45BC1019E5D2 DUP4 PUSH1 0x5 ADD PUSH1 0x0 DUP6 PUSH1 0x4 ADD SLOAD DUP2 MSTORE PUSH1 0x20 ADD SWAP1 DUP2 MSTORE PUSH1 0x20 ADD PUSH1 0x0 KECCAK256 SLOAD PUSH1 0x40 MLOAD PUSH2 0x12A7 SWAP2 SWAP1 PUSH2 0x19B5 JUMP JUMPDEST PUSH1 0x40 MLOAD DUP1 SWAP2 SUB SWAP1 LOG2 JUMPDEST PUSH1 0x0 DUP3 PUSH1 0x7 ADD PUSH1 0x0 CALLER PUSH20 0xFFFFFFFFFFFFFFFFFFFFFFFFFFFFFFFFFFFFFFFF AND PUSH20 0xFFFFFFFFFFFFFFFFFFFFFFFFFFFFFFFFFFFFFFFF AND DUP2 MSTORE PUSH1 0x20 ADD SWAP1 DUP2 MSTORE PUSH1 0x20 ADD PUSH1 0x0 KECCAK256 DUP2 SWAP1 SSTORE POP CALLER PUSH20 0xFFFFFFFFFFFFFFFFFFFFFFFFFFFFFFFFFFFFFFFF AND PUSH2 0x8FC DUP3 SWAP1 DUP2 ISZERO MUL SWAP1 PUSH1 0x40 MLOAD PUSH1 0x0 PUSH1 0x40 MLOAD DUP1 DUP4 SUB DUP2 DUP6 DUP9 DUP9 CALL SWAP4 POP POP POP POP ISZERO DUP1 ISZERO PUSH2 0x133D JUMPI RETURNDATASIZE PUSH1 0x0 DUP1 RETURNDATACOPY RETURNDATASIZE PUSH1 0x0 REVERT JUMPDEST POP DUP1 PUSH1 0x1 PUSH1 0x0 DUP3 DUP3 SLOAD PUSH2 0x1350 SWAP2 SWAP1 PUSH2 0x1ABA JUMP JUMPDEST SWAP3 POP POP DUP2 SWAP1 SSTORE POP CALLER PUSH20 0xFFFFFFFFFFFFFFFFFFFFFFFFFFFFFFFFFFFFFFFF AND PUSH32 0x884EDAD9CE6FA2440D8A54CC123490EB96D2768479D49FF9C7366125A9424364 DUP3 PUSH1 0x40 MLOAD PUSH2 0x139D SWAP2 SWAP1 PUSH2 0x19B5 JUMP JUMPDEST PUSH1 0x40 MLOAD DUP1 SWAP2 SUB SWAP1 LOG2 POP POP POP POP JUMP JUMPDEST PUSH1 0x0 PUSH1 0x20 MSTORE DUP2 PUSH1 0x0 MSTORE PUSH1 0x40 PUSH1 0x0 KECCAK256 PUSH1 0x20 MSTORE DUP1 PUSH1 0x0 MSTORE PUSH1 0x40 PUSH1 0x0 KECCAK256 PUSH1 0x0 SWAP2 POP SWAP2 POP POP DUP1 PUSH1 0x0 ADD PUSH1 0x0 SWAP1 SLOAD SWAP1 PUSH2 0x100 EXP SWAP1 DIV PUSH20 0xFFFFFFFFFFFFFFFFFFFFFFFFFFFFFFFFFFFFFFFF AND SWAP1 DUP1 PUSH1 0x0 ADD PUSH1 0x14 SWAP1 SLOAD SWAP1 PUSH2 0x100 EXP SWAP1 DIV PUSH1 0xFF AND SWAP1 DUP1 PUSH1 0x0 ADD PUSH1 0x15 SWAP1 SLOAD SWAP1 PUSH2 0x100 EXP SWAP1 DIV PUSH1 0xFF AND SWAP1 DUP1 PUSH1 0x1 ADD SLOAD SWAP1 DUP1 PUSH1 0x2 ADD PUSH1 0x0 SWAP1 SLOAD SWAP1 PUSH2 0x100 EXP SWAP1 DIV PUSH20 0xFFFFFFFFFFFFFFFFFFFFFFFFFFFFFFFFFFFFFFFF AND SWAP1 DUP1 PUSH1 0x3 ADD SLOAD SWAP1 DUP1 PUSH1 0x4 ADD SLOAD SWAP1 POP DUP8 JUMP JUMPDEST PUSH1 0x0 DUP2 CALLDATALOAD SWAP1 POP PUSH2 0x1463 DUP2 PUSH2 0x1D84 JUMP JUMPDEST SWAP3 SWAP2 POP POP JUMP JUMPDEST PUSH1 0x0 DUP2 MLOAD SWAP1 POP PUSH2 0x1478 DUP2 PUSH2 0x1D84 JUMP JUMPDEST SWAP3 SWAP2 POP POP JUMP JUMPDEST PUSH1 0x0 DUP2 CALLDATALOAD SWAP1 POP PUSH2 0x148D DUP2 PUSH2 0x1D9B JUMP JUMPDEST SWAP3 SWAP2 POP POP JUMP JUMPDEST PUSH1 0x0 DUP2 MLOAD SWAP1 POP PUSH2 0x14A2 DUP2 PUSH2 0x1D9B JUMP JUMPDEST SWAP3 SWAP2 POP POP JUMP JUMPDEST PUSH1 0x0 PUSH1 0x20 DUP3 DUP5 SUB SLT ISZERO PUSH2 0x14BE JUMPI PUSH2 0x14BD PUSH2 0x1C0E JUMP JUMPDEST JUMPDEST PUSH1 0x0 PUSH2 0x14CC DUP5 DUP3 DUP6 ADD PUSH2 0x1469 JUMP JUMPDEST SWAP2 POP POP SWAP3 SWAP2 POP POP JUMP JUMPDEST PUSH1 0x0 DUP1 PUSH1 0x0 PUSH1 0x60 DUP5 DUP7 SUB SLT ISZERO PUSH2 0x14EE JUMPI PUSH2 0x14ED PUSH2 0x1C0E JUMP JUMPDEST JUMPDEST PUSH1 0x0 PUSH2 0x14FC DUP7 DUP3 DUP8 ADD PUSH2 0x1454 JUMP JUMPDEST SWAP4 POP POP PUSH1 0x20 PUSH2 0x150D DUP7 DUP3 DUP8 ADD PUSH2 0x1454 JUMP JUMPDEST SWAP3 POP POP PUSH1 0x40 PUSH2 0x151E DUP7 DUP3 DUP8 ADD PUSH2 0x147E JUMP JUMPDEST SWAP2 POP POP SWAP3 POP SWAP3 POP SWAP3 JUMP JUMPDEST PUSH1 0x0 DUP1 PUSH1 0x40 DUP4 DUP6 SUB SLT ISZERO PUSH2 0x153F JUMPI PUSH2 0x153E PUSH2 0x1C0E JUMP JUMPDEST JUMPDEST PUSH1 0x0 PUSH2 0x154D DUP6 DUP3 DUP7 ADD PUSH2 0x1454 JUMP JUMPDEST SWAP3 POP POP PUSH1 0x20 PUSH2 0x155E DUP6 DUP3 DUP7 ADD PUSH2 0x147E JUMP JUMPDEST SWAP2 POP POP SWAP3 POP SWAP3 SWAP1 POP JUMP JUMPDEST PUSH1 0x0 DUP1 PUSH1 0x0 PUSH1 0x60 DUP5 DUP7 SUB SLT ISZERO PUSH2 0x1581 JUMPI PUSH2 0x1580 PUSH2 0x1C0E JUMP JUMPDEST JUMPDEST PUSH1 0x0 PUSH2 0x158F DUP7 DUP3 DUP8 ADD PUSH2 0x1454 JUMP JUMPDEST SWAP4 POP POP PUSH1 0x20 PUSH2 0x15A0 DUP7 DUP3 DUP8 ADD PUSH2 0x147E JUMP JUMPDEST SWAP3 POP POP PUSH1 0x40 PUSH2 0x15B1 DUP7 DUP3 DUP8 ADD PUSH2 0x1454 JUMP JUMPDEST SWAP2 POP POP SWAP3 POP SWAP3 POP SWAP3 JUMP JUMPDEST PUSH1 0x0 DUP1 PUSH1 0x0 DUP1 PUSH1 0x80 DUP6 DUP8 SUB SLT ISZERO PUSH2 0x15D5 JUMPI PUSH2 0x15D4 PUSH2 0x1C0E JUMP JUMPDEST JUMPDEST PUSH1 0x0 PUSH2 0x15E3 DUP8 DUP3 DUP9 ADD PUSH2 0x1454 JUMP JUMPDEST SWAP5 POP POP PUSH1 0x20 PUSH2 0x15F4 DUP8 DUP3 DUP9 ADD PUSH2 0x147E JUMP JUMPDEST SWAP4 POP POP PUSH1 0x40 PUSH2 0x1605 DUP8 DUP3 DUP9 ADD PUSH2 0x147E JUMP JUMPDEST SWAP3 POP POP PUSH1 0x60 PUSH2 0x1616 DUP8 DUP3 DUP9 ADD PUSH2 0x147E JUMP JUMPDEST SWAP2 POP POP SWAP3 SWAP6 SWAP2 SWAP5 POP SWAP3 POP JUMP JUMPDEST PUSH1 0x0 PUSH1 0x20 DUP3 DUP5 SUB SLT ISZERO PUSH2 0x1638 JUMPI PUSH2 0x1637 PUSH2 0x1C0E JUMP JUMPDEST JUMPDEST PUSH1 0x0 PUSH2 0x1646 DUP5 DUP3 DUP6 ADD PUSH2 0x1493 JUMP JUMPDEST SWAP2 POP POP SWAP3 SWAP2 POP POP JUMP JUMPDEST PUSH2 0x1658 DUP2 PUSH2 0x1AEE JUMP JUMPDEST DUP3 MSTORE POP POP JUMP JUMPDEST PUSH2 0x1667 DUP2 PUSH2 0x1B00 JUMP JUMPDEST DUP3 MSTORE POP POP JUMP JUMPDEST PUSH2 0x1676 DUP2 PUSH2 0x1B36 JUMP JUMPDEST DUP3 MSTORE POP POP JUMP JUMPDEST PUSH1 0x0 PUSH2 0x1689 PUSH1 0xA DUP4 PUSH2 0x19F9 JUMP JUMPDEST SWAP2 POP PUSH2 0x1694 DUP3 PUSH2 0x1C13 JUMP JUMPDEST PUSH1 0x20 DUP3 ADD SWAP1 POP SWAP2 SWAP1 POP JUMP JUMPDEST PUSH1 0x0 PUSH2 0x16AC PUSH1 0x19 DUP4 PUSH2 0x19F9 JUMP JUMPDEST SWAP2 POP PUSH2 0x16B7 DUP3 PUSH2 0x1C3C JUMP JUMPDEST PUSH1 0x20 DUP3 ADD SWAP1 POP SWAP2 SWAP1 POP JUMP JUMPDEST PUSH1 0x0 PUSH2 0x16CF PUSH1 0x10 DUP4 PUSH2 0x19F9 JUMP JUMPDEST SWAP2 POP PUSH2 0x16DA DUP3 PUSH2 0x1C65 JUMP JUMPDEST PUSH1 0x20 DUP3 ADD SWAP1 POP SWAP2 SWAP1 POP JUMP JUMPDEST PUSH1 0x0 PUSH2 0x16F2 PUSH1 0x6 DUP4 PUSH2 0x19F9 JUMP JUMPDEST SWAP2 POP PUSH2 0x16FD DUP3 PUSH2 0x1C8E JUMP JUMPDEST PUSH1 0x20 DUP3 ADD SWAP1 POP SWAP2 SWAP1 POP JUMP JUMPDEST PUSH1 0x0 PUSH2 0x1715 PUSH1 0x18 DUP4 PUSH2 0x19F9 JUMP JUMPDEST SWAP2 POP PUSH2 0x1720 DUP3 PUSH2 0x1CB7 JUMP JUMPDEST PUSH1 0x20 DUP3 ADD SWAP1 POP SWAP2 SWAP1 POP JUMP JUMPDEST PUSH1 0x0 PUSH2 0x1738 PUSH1 0x1E DUP4 PUSH2 0x19F9 JUMP JUMPDEST SWAP2 POP PUSH2 0x1743 DUP3 PUSH2 0x1CE0 JUMP JUMPDEST PUSH1 0x20 DUP3 ADD SWAP1 POP SWAP2 SWAP1 POP JUMP JUMPDEST PUSH1 0x0 PUSH2 0x175B PUSH1 0xC DUP4 PUSH2 0x19F9 JUMP JUMPDEST SWAP2 POP PUSH2 0x1766 DUP3 PUSH2 0x1D09 JUMP JUMPDEST PUSH1 0x20 DUP3 ADD SWAP1 POP SWAP2 SWAP1 POP JUMP JUMPDEST PUSH1 0x0 PUSH2 0x177E PUSH1 0x16 DUP4 PUSH2 0x19F9 JUMP JUMPDEST SWAP2 POP PUSH2 0x1789 DUP3 PUSH2 0x1D32 JUMP JUMPDEST PUSH1 0x20 DUP3 ADD SWAP1 POP SWAP2 SWAP1 POP JUMP JUMPDEST PUSH1 0x0 PUSH2 0x17A1 PUSH1 0x12 DUP4 PUSH2 0x19F9 JUMP JUMPDEST SWAP2 POP PUSH2 0x17AC DUP3 PUSH2 0x1D5B JUMP JUMPDEST PUSH1 0x20 DUP3 ADD SWAP1 POP SWAP2 SWAP1 POP JUMP JUMPDEST PUSH2 0x17C0 DUP2 PUSH2 0x1B2C JUMP JUMPDEST DUP3 MSTORE POP POP JUMP JUMPDEST PUSH1 0x0 PUSH1 0x60 DUP3 ADD SWAP1 POP PUSH2 0x17DB PUSH1 0x0 DUP4 ADD DUP7 PUSH2 0x164F JUMP JUMPDEST PUSH2 0x17E8 PUSH1 0x20 DUP4 ADD DUP6 PUSH2 0x164F JUMP JUMPDEST PUSH2 0x17F5 PUSH1 0x40 DUP4 ADD DUP5 PUSH2 0x17B7 JUMP JUMPDEST SWAP5 SWAP4 POP POP POP POP JUMP JUMPDEST PUSH1 0x0 PUSH1 0xE0 DUP3 ADD SWAP1 POP PUSH2 0x1812 PUSH1 0x0 DUP4 ADD DUP11 PUSH2 0x164F JUMP JUMPDEST PUSH2 0x181F PUSH1 0x20 DUP4 ADD DUP10 PUSH2 0x165E JUMP JUMPDEST PUSH2 0x182C PUSH1 0x40 DUP4 ADD DUP9 PUSH2 0x165E JUMP JUMPDEST PUSH2 0x1839 PUSH1 0x60 DUP4 ADD DUP8 PUSH2 0x17B7 JUMP JUMPDEST PUSH2 0x1846 PUSH1 0x80 DUP4 ADD DUP7 PUSH2 0x166D JUMP JUMPDEST PUSH2 0x1853 PUSH1 0xA0 DUP4 ADD DUP6 PUSH2 0x17B7 JUMP JUMPDEST PUSH2 0x1860 PUSH1 0xC0 DUP4 ADD DUP5 PUSH2 0x17B7 JUMP JUMPDEST SWAP9 SWAP8 POP POP POP POP POP POP POP POP JUMP JUMPDEST PUSH1 0x0 PUSH1 0x40 DUP3 ADD SWAP1 POP PUSH2 0x1881 PUSH1 0x0 DUP4 ADD DUP6 PUSH2 0x164F JUMP JUMPDEST PUSH2 0x188E PUSH1 0x20 DUP4 ADD DUP5 PUSH2 0x17B7 JUMP JUMPDEST SWAP4 SWAP3 POP POP POP JUMP JUMPDEST PUSH1 0x0 PUSH1 0x20 DUP3 ADD SWAP1 POP DUP2 DUP2 SUB PUSH1 0x0 DUP4 ADD MSTORE PUSH2 0x18AE DUP2 PUSH2 0x167C JUMP JUMPDEST SWAP1 POP SWAP2 SWAP1 POP JUMP JUMPDEST PUSH1 0x0 PUSH1 0x20 DUP3 ADD SWAP1 POP DUP2 DUP2 SUB PUSH1 0x0 DUP4 ADD MSTORE PUSH2 0x18CE DUP2 PUSH2 0x169F JUMP JUMPDEST SWAP1 POP SWAP2 SWAP1 POP JUMP JUMPDEST PUSH1 0x0 PUSH1 0x20 DUP3 ADD SWAP1 POP DUP2 DUP2 SUB PUSH1 0x0 DUP4 ADD MSTORE PUSH2 0x18EE DUP2 PUSH2 0x16C2 JUMP JUMPDEST SWAP1 POP SWAP2 SWAP1 POP JUMP JUMPDEST PUSH1 0x0 PUSH1 0x20 DUP3 ADD SWAP1 POP DUP2 DUP2 SUB PUSH1 0x0 DUP4 ADD MSTORE PUSH2 0x190E DUP2 PUSH2 0x16E5 JUMP JUMPDEST SWAP1 POP SWAP2 SWAP1 POP JUMP JUMPDEST PUSH1 0x0 PUSH1 0x20 DUP3 ADD SWAP1 POP DUP2 DUP2 SUB PUSH1 0x0 DUP4 ADD MSTORE PUSH2 0x192E DUP2 PUSH2 0x1708 JUMP JUMPDEST SWAP1 POP SWAP2 SWAP1 POP JUMP JUMPDEST PUSH1 0x0 PUSH1 0x20 DUP3 ADD SWAP1 POP DUP2 DUP2 SUB PUSH1 0x0 DUP4 ADD MSTORE PUSH2 0x194E DUP2 PUSH2 0x172B JUMP JUMPDEST SWAP1 POP SWAP2 SWAP1 POP JUMP JUMPDEST PUSH1 0x0 PUSH1 0x20 DUP3 ADD SWAP1 POP DUP2 DUP2 SUB PUSH1 0x0 DUP4 ADD MSTORE PUSH2 0x196E DUP2 PUSH2 0x174E JUMP JUMPDEST SWAP1 POP SWAP2 SWAP1 POP JUMP JUMPDEST PUSH1 0x0 PUSH1 0x20 DUP3 ADD SWAP1 POP DUP2 DUP2 SUB PUSH1 0x0 DUP4 ADD MSTORE PUSH2 0x198E DUP2 PUSH2 0x1771 JUMP JUMPDEST SWAP1 POP SWAP2 SWAP1 POP JUMP JUMPDEST PUSH1 0x0 PUSH1 0x20 DUP3 ADD SWAP1 POP DUP2 DUP2 SUB PUSH1 0x0 DUP4 ADD MSTORE PUSH2 0x19AE DUP2 PUSH2 0x1794 JUMP JUMPDEST SWAP1 POP SWAP2 SWAP1 POP JUMP JUMPDEST PUSH1 0x0 PUSH1 0x20 DUP3 ADD SWAP1 POP PUSH2 0x19CA PUSH1 0x0 DUP4 ADD DUP5 PUSH2 0x17B7 JUMP JUMPDEST SWAP3 SWAP2 POP POP JUMP JUMPDEST PUSH1 0x0 PUSH1 0x40 DUP3 ADD SWAP1 POP PUSH2 0x19E5 PUSH1 0x0 DUP4 ADD DUP6 PUSH2 0x17B7 JUMP JUMPDEST PUSH2 0x19F2 PUSH1 0x20 DUP4 ADD DUP5 PUSH2 0x17B7 JUMP JUMPDEST SWAP4 SWAP3 POP POP POP JUMP JUMPDEST PUSH1 0x0 DUP3 DUP3 MSTORE PUSH1 0x20 DUP3 ADD SWAP1 POP SWAP3 SWAP2 POP POP JUMP JUMPDEST PUSH1 0x0 PUSH2 0x1A15 DUP3 PUSH2 0x1B2C JUMP JUMPDEST SWAP2 POP PUSH2 0x1A20 DUP4 PUSH2 0x1B2C JUMP JUMPDEST SWAP3 POP DUP3 PUSH32 0xFFFFFFFFFFFFFFFFFFFFFFFFFFFFFFFFFFFFFFFFFFFFFFFFFFFFFFFFFFFFFFFF SUB DUP3 GT ISZERO PUSH2 0x1A55 JUMPI PUSH2 0x1A54 PUSH2 0x1BDF JUMP JUMPDEST JUMPDEST DUP3 DUP3 ADD SWAP1 POP SWAP3 SWAP2 POP POP JUMP JUMPDEST PUSH1 0x0 PUSH2 0x1A6B DUP3 PUSH2 0x1B2C JUMP JUMPDEST SWAP2 POP PUSH2 0x1A76 DUP4 PUSH2 0x1B2C JUMP JUMPDEST SWAP3 POP DUP2 PUSH32 0xFFFFFFFFFFFFFFFFFFFFFFFFFFFFFFFFFFFFFFFFFFFFFFFFFFFFFFFFFFFFFFFF DIV DUP4 GT DUP3 ISZERO ISZERO AND ISZERO PUSH2 0x1AAF JUMPI PUSH2 0x1AAE PUSH2 0x1BDF JUMP JUMPDEST JUMPDEST DUP3 DUP3 MUL SWAP1 POP SWAP3 SWAP2 POP POP JUMP JUMPDEST PUSH1 0x0 PUSH2 0x1AC5 DUP3 PUSH2 0x1B2C JUMP JUMPDEST SWAP2 POP PUSH2 0x1AD0 DUP4 PUSH2 0x1B2C JUMP JUMPDEST SWAP3 POP DUP3 DUP3 LT ISZERO PUSH2 0x1AE3 JUMPI PUSH2 0x1AE2 PUSH2 0x1BDF JUMP JUMPDEST JUMPDEST DUP3 DUP3 SUB SWAP1 POP SWAP3 SWAP2 POP POP JUMP JUMPDEST PUSH1 0x0 PUSH2 0x1AF9 DUP3 PUSH2 0x1B0C JUMP JUMPDEST SWAP1 POP SWAP2 SWAP1 POP JUMP JUMPDEST PUSH1 0x0 DUP2 ISZERO ISZERO SWAP1 POP SWAP2 SWAP1 POP JUMP JUMPDEST PUSH1 0x0 PUSH20 0xFFFFFFFFFFFFFFFFFFFFFFFFFFFFFFFFFFFFFFFF DUP3 AND SWAP1 POP SWAP2 SWAP1 POP JUMP JUMPDEST PUSH1 0x0 DUP2 SWAP1 POP SWAP2 SWAP1 POP JUMP JUMPDEST PUSH1 0x0 PUSH2 0x1B41 DUP3 PUSH2 0x1B48 JUMP JUMPDEST SWAP1 POP SWAP2 SWAP1 POP JUMP JUMPDEST PUSH1 0x0 PUSH2 0x1B53 DUP3 PUSH2 0x1B5A JUMP JUMPDEST SWAP1 POP SWAP2 SWAP1 POP JUMP JUMPDEST PUSH1 0x0 PUSH2 0x1B65 DUP3 PUSH2 0x1B0C JUMP JUMPDEST SWAP1 POP SWAP2 SWAP1 POP JUMP JUMPDEST PUSH1 0x0 PUSH2 0x1B77 DUP3 PUSH2 0x1B2C JUMP JUMPDEST SWAP2 POP PUSH1 0x0 DUP3 EQ ISZERO PUSH2 0x1B8B JUMPI PUSH2 0x1B8A PUSH2 0x1BDF JUMP JUMPDEST JUMPDEST PUSH1 0x1 DUP3 SUB SWAP1 POP SWAP2 SWAP1 POP JUMP JUMPDEST PUSH1 0x0 PUSH2 0x1BA1 DUP3 PUSH2 0x1B2C JUMP JUMPDEST SWAP2 POP PUSH32 0xFFFFFFFFFFFFFFFFFFFFFFFFFFFFFFFFFFFFFFFFFFFFFFFFFFFFFFFFFFFFFFFF DUP3 EQ ISZERO PUSH2 0x1BD4 JUMPI PUSH2 0x1BD3 PUSH2 0x1BDF JUMP JUMPDEST JUMPDEST PUSH1 0x1 DUP3 ADD SWAP1 POP SWAP2 SWAP1 POP JUMP JUMPDEST PUSH32 0x4E487B7100000000000000000000000000000000000000000000000000000000 PUSH1 0x0 MSTORE PUSH1 0x11 PUSH1 0x4 MSTORE PUSH1 0x24 PUSH1 0x0 REVERT JUMPDEST PUSH1 0x0 DUP1 REVERT JUMPDEST PUSH32 0x4C6F776572206269642100000000000000000000000000000000000000000000 PUSH1 0x0 DUP3 ADD MSTORE POP JUMP JUMPDEST PUSH32 0x41756374696F6E206973207374696C6C206F6E676F696E672100000000000000 PUSH1 0x0 DUP3 ADD MSTORE POP JUMP JUMPDEST PUSH32 0x416C726561647920737461727465642100000000000000000000000000000000 PUSH1 0x0 DUP3 ADD MSTORE POP JUMP JUMPDEST PUSH32 0x456E646564210000000000000000000000000000000000000000000000000000 PUSH1 0x0 DUP3 ADD MSTORE POP JUMP JUMPDEST PUSH32 0x596F75206E65656420746F207374617274206669727374210000000000000000 PUSH1 0x0 DUP3 ADD MSTORE POP JUMP JUMPDEST PUSH32 0x596F752063616E206E6F74207374617274207468652061756374696F6E210000 PUSH1 0x0 DUP3 ADD MSTORE POP JUMP JUMPDEST PUSH32 0x4E6F7420737461727465642E0000000000000000000000000000000000000000 PUSH1 0x0 DUP3 ADD MSTORE POP JUMP JUMPDEST PUSH32 0x41756374696F6E20616C726561647920656E6465642100000000000000000000 PUSH1 0x0 DUP3 ADD MSTORE POP JUMP JUMPDEST PUSH32 0x436F756C64206E6F742077697468647261770000000000000000000000000000 PUSH1 0x0 DUP3 ADD MSTORE POP JUMP JUMPDEST PUSH2 0x1D8D DUP2 PUSH2 0x1AEE JUMP JUMPDEST DUP2 EQ PUSH2 0x1D98 JUMPI PUSH1 0x0 DUP1 REVERT JUMPDEST POP JUMP JUMPDEST PUSH2 0x1DA4 DUP2 PUSH2 0x1B2C JUMP JUMPDEST DUP2 EQ PUSH2 0x1DAF JUMPI PUSH1 0x0 DUP1 REVERT JUMPDEST POP JUMP INVALID LOG2 PUSH5 0x6970667358 0x22 SLT KECCAK256 0xC1 0xDF PUSH9 0xF9539E4DAFF3FD6408 RETURNDATASIZE LOG3 0xD4 RETURNDATASIZE 0xD9 0xD 0xEF SWAP8 PUSH5 0x8BA09A7D55 0x2D PUSH4 0xB4717678 PUSH5 0x736F6C6343 STOP ADDMOD SMOD STOP CALLER "
				},
				"gasEstimates": {
					"creation": {
						"codeDepositCost": "1531200",
						"executionCost": "1603",
						"totalCost": "1532803"
					},
					"external": {
						"autoWithdraw(address,uint256,address)": "infinite",
						"balances()": "2496",
						"bid(address,uint256)": "infinite",
						"biddings(address,uint256)": "infinite",
						"end(address,uint256)": "infinite",
						"getPrice(address,address,uint256)": "infinite",
						"start(address,uint256,uint256,uint256)": "infinite",
						"withdraw(address,uint256)": "infinite"
					}
				},
				"methodIdentifiers": {
					"autoWithdraw(address,uint256,address)": "699ff43f",
					"balances()": "7bb98a68",
					"bid(address,uint256)": "59d667a5",
					"biddings(address,uint256)": "f48e9b3d",
					"end(address,uint256)": "695d69ba",
					"getPrice(address,address,uint256)": "a9dd14d6",
					"start(address,uint256,uint256,uint256)": "b76a3b5a",
					"withdraw(address,uint256)": "f3fef3a3"
				}
			},
			"storageLayout": {
				"storage": [
					{
						"astId": 68,
						"contract": "Bid.sol:Auction",
						"label": "biddings",
						"offset": 0,
						"slot": "0",
						"type": "t_mapping(t_address,t_mapping(t_uint256,t_struct(Bidding)98_storage))"
					},
					{
						"astId": 70,
						"contract": "Bid.sol:Auction",
						"label": "balances",
						"offset": 0,
						"slot": "1",
						"type": "t_uint256"
					}
				],
				"types": {
					"t_address": {
						"encoding": "inplace",
						"label": "address",
						"numberOfBytes": "20"
					},
					"t_bool": {
						"encoding": "inplace",
						"label": "bool",
						"numberOfBytes": "1"
					},
					"t_contract(ERC721)18": {
						"encoding": "inplace",
						"label": "contract ERC721",
						"numberOfBytes": "20"
					},
					"t_mapping(t_address,t_mapping(t_uint256,t_struct(Bidding)98_storage))": {
						"encoding": "mapping",
						"key": "t_address",
						"label": "mapping(address => mapping(uint256 => struct Auction.Bidding))",
						"numberOfBytes": "32",
						"value": "t_mapping(t_uint256,t_struct(Bidding)98_storage)"
					},
					"t_mapping(t_address,t_uint256)": {
						"encoding": "mapping",
						"key": "t_address",
						"label": "mapping(address => uint256)",
						"numberOfBytes": "32",
						"value": "t_uint256"
					},
					"t_mapping(t_uint256,t_address)": {
						"encoding": "mapping",
						"key": "t_uint256",
						"label": "mapping(uint256 => address)",
						"numberOfBytes": "32",
						"value": "t_address"
					},
					"t_mapping(t_uint256,t_struct(Bidding)98_storage)": {
						"encoding": "mapping",
						"key": "t_uint256",
						"label": "mapping(uint256 => struct Auction.Bidding)",
						"numberOfBytes": "32",
						"value": "t_struct(Bidding)98_storage"
					},
					"t_mapping(t_uint256,t_uint256)": {
						"encoding": "mapping",
						"key": "t_uint256",
						"label": "mapping(uint256 => uint256)",
						"numberOfBytes": "32",
						"value": "t_uint256"
					},
					"t_struct(Bidding)98_storage": {
						"encoding": "inplace",
						"label": "struct Auction.Bidding",
						"members": [
							{
								"astId": 72,
								"contract": "Bid.sol:Auction",
								"label": "seller",
								"offset": 0,
								"slot": "0",
								"type": "t_address"
							},
							{
								"astId": 74,
								"contract": "Bid.sol:Auction",
								"label": "started",
								"offset": 20,
								"slot": "0",
								"type": "t_bool"
							},
							{
								"astId": 76,
								"contract": "Bid.sol:Auction",
								"label": "ended",
								"offset": 21,
								"slot": "0",
								"type": "t_bool"
							},
							{
								"astId": 78,
								"contract": "Bid.sol:Auction",
								"label": "endAt",
								"offset": 0,
								"slot": "1",
								"type": "t_uint256"
							},
							{
								"astId": 81,
								"contract": "Bid.sol:Auction",
								"label": "tokenAddr",
								"offset": 0,
								"slot": "2",
								"type": "t_contract(ERC721)18"
							},
							{
								"astId": 83,
								"contract": "Bid.sol:Auction",
								"label": "tokenId",
								"offset": 0,
								"slot": "3",
								"type": "t_uint256"
							},
							{
								"astId": 85,
								"contract": "Bid.sol:Auction",
								"label": "bidCount",
								"offset": 0,
								"slot": "4",
								"type": "t_uint256"
							},
							{
								"astId": 89,
								"contract": "Bid.sol:Auction",
								"label": "highestBid",
								"offset": 0,
								"slot": "5",
								"type": "t_mapping(t_uint256,t_uint256)"
							},
							{
								"astId": 93,
								"contract": "Bid.sol:Auction",
								"label": "highestBidder",
								"offset": 0,
								"slot": "6",
								"type": "t_mapping(t_uint256,t_address)"
							},
							{
								"astId": 97,
								"contract": "Bid.sol:Auction",
								"label": "bids",
								"offset": 0,
								"slot": "7",
								"type": "t_mapping(t_address,t_uint256)"
							}
						],
						"numberOfBytes": "256"
					},
					"t_uint256": {
						"encoding": "inplace",
						"label": "uint256",
						"numberOfBytes": "32"
					}
				}
			},
			"userdoc": {
				"kind": "user",
				"methods": {},
				"version": 1
			}
		}
	}
}