{
	"MarketERC721.sol": {
		"Market": {
			"abi": [
				{
					"anonymous": false,
					"inputs": [
						{
							"indexed": true,
							"internalType": "address",
							"name": "owner",
							"type": "address"
						},
						{
							"indexed": true,
							"internalType": "uint256",
							"name": "tokenId",
							"type": "uint256"
						},
						{
							"indexed": false,
							"internalType": "uint256",
							"name": "price",
							"type": "uint256"
						},
						{
							"indexed": true,
							"internalType": "bool",
							"name": "isListing",
							"type": "bool"
						}
					],
					"name": "List",
					"type": "event"
				},
				{
					"anonymous": false,
					"inputs": [
						{
							"indexed": true,
							"internalType": "address",
							"name": "previousOwner",
							"type": "address"
						},
						{
							"indexed": true,
							"internalType": "address",
							"name": "newOwner",
							"type": "address"
						}
					],
					"name": "OwnershipTransferred",
					"type": "event"
				},
				{
					"inputs": [
						{
							"internalType": "uint256",
							"name": "price",
							"type": "uint256"
						},
						{
							"internalType": "address",
							"name": "contractAddr",
							"type": "address"
						},
						{
							"internalType": "uint256",
							"name": "tokenId",
							"type": "uint256"
						}
					],
					"name": "addListing",
					"outputs": [],
					"stateMutability": "nonpayable",
					"type": "function"
				},
				{
					"inputs": [
						{
							"internalType": "address",
							"name": "contractAddr",
							"type": "address"
						},
						{
							"internalType": "uint256",
							"name": "tokenId",
							"type": "uint256"
						}
					],
					"name": "cancelListing",
					"outputs": [],
					"stateMutability": "nonpayable",
					"type": "function"
				},
				{
					"inputs": [
						{
							"internalType": "address",
							"name": "contractAddr",
							"type": "address"
						},
						{
							"internalType": "uint256",
							"name": "tokenId",
							"type": "uint256"
						}
					],
					"name": "getIsListing",
					"outputs": [
						{
							"internalType": "bool",
							"name": "isListing",
							"type": "bool"
						}
					],
					"stateMutability": "view",
					"type": "function"
				},
				{
					"inputs": [
						{
							"internalType": "address",
							"name": "contractAddr",
							"type": "address"
						},
						{
							"internalType": "uint256",
							"name": "tokenId",
							"type": "uint256"
						}
					],
					"name": "getOwner",
					"outputs": [
						{
							"internalType": "address",
							"name": "owner",
							"type": "address"
						}
					],
					"stateMutability": "view",
					"type": "function"
				},
				{
					"inputs": [
						{
							"internalType": "address",
							"name": "contractAddr",
							"type": "address"
						},
						{
							"internalType": "uint256",
							"name": "tokenId",
							"type": "uint256"
						},
						{
							"internalType": "uint256",
							"name": "prevIndex",
							"type": "uint256"
						}
					],
					"name": "getPrevOwner",
					"outputs": [
						{
							"internalType": "address",
							"name": "prevOwner",
							"type": "address"
						}
					],
					"stateMutability": "view",
					"type": "function"
				},
				{
					"inputs": [
						{
							"internalType": "address",
							"name": "contractAddr",
							"type": "address"
						},
						{
							"internalType": "uint256",
							"name": "tokenId",
							"type": "uint256"
						}
					],
					"name": "getPrice",
					"outputs": [
						{
							"internalType": "uint256",
							"name": "price",
							"type": "uint256"
						}
					],
					"stateMutability": "view",
					"type": "function"
				},
				{
					"inputs": [
						{
							"internalType": "address",
							"name": "contractAddr",
							"type": "address"
						},
						{
							"internalType": "uint256",
							"name": "tokenId",
							"type": "uint256"
						}
					],
					"name": "getSeller",
					"outputs": [
						{
							"internalType": "address",
							"name": "seller",
							"type": "address"
						}
					],
					"stateMutability": "view",
					"type": "function"
				},
				{
					"inputs": [
						{
							"internalType": "address",
							"name": "",
							"type": "address"
						},
						{
							"internalType": "uint256",
							"name": "",
							"type": "uint256"
						}
					],
					"name": "listings",
					"outputs": [
						{
							"internalType": "uint256",
							"name": "price",
							"type": "uint256"
						},
						{
							"internalType": "address",
							"name": "seller",
							"type": "address"
						},
						{
							"internalType": "address",
							"name": "owner",
							"type": "address"
						},
						{
							"internalType": "bool",
							"name": "isListing",
							"type": "bool"
						},
						{
							"internalType": "uint256",
							"name": "ownerCount",
							"type": "uint256"
						}
					],
					"stateMutability": "view",
					"type": "function"
				},
				{
					"inputs": [],
					"name": "owner",
					"outputs": [
						{
							"internalType": "address",
							"name": "",
							"type": "address"
						}
					],
					"stateMutability": "view",
					"type": "function"
				},
				{
					"inputs": [
						{
							"internalType": "address",
							"name": "contractAddr",
							"type": "address"
						},
						{
							"internalType": "uint256",
							"name": "tokenId",
							"type": "uint256"
						},
						{
							"internalType": "address",
							"name": "referer",
							"type": "address"
						},
						{
							"internalType": "uint256",
							"name": "metaverseFee",
							"type": "uint256"
						},
						{
							"internalType": "uint256",
							"name": "previousOwnerFee",
							"type": "uint256"
						},
						{
							"internalType": "uint256",
							"name": "referalFee",
							"type": "uint256"
						}
					],
					"name": "purchase",
					"outputs": [],
					"stateMutability": "payable",
					"type": "function"
				},
				{
					"inputs": [
						{
							"internalType": "address",
							"name": "contractAddr",
							"type": "address"
						},
						{
							"internalType": "uint256[]",
							"name": "tokenId",
							"type": "uint256[]"
						},
						{
							"internalType": "address",
							"name": "referer",
							"type": "address"
						},
						{
							"internalType": "uint256",
							"name": "metaverseFee",
							"type": "uint256"
						},
						{
							"internalType": "uint256[]",
							"name": "previousOwnerFee",
							"type": "uint256[]"
						},
						{
							"internalType": "uint256",
							"name": "referalFee",
							"type": "uint256"
						}
					],
					"name": "purchaseBatch",
					"outputs": [],
					"stateMutability": "payable",
					"type": "function"
				},
				{
					"inputs": [
						{
							"internalType": "address",
							"name": "contractAddr",
							"type": "address"
						},
						{
							"internalType": "address",
							"name": "coinAddr",
							"type": "address"
						},
						{
							"internalType": "uint256",
							"name": "tokenId",
							"type": "uint256"
						},
						{
							"internalType": "address",
							"name": "referer",
							"type": "address"
						},
						{
							"internalType": "uint256",
							"name": "metaverseFee",
							"type": "uint256"
						},
						{
							"internalType": "uint256",
							"name": "previousOwnerFee",
							"type": "uint256"
						},
						{
							"internalType": "uint256",
							"name": "referalFee",
							"type": "uint256"
						}
					],
					"name": "purchaseERC20",
					"outputs": [],
					"stateMutability": "payable",
					"type": "function"
				},
				{
					"inputs": [
						{
							"internalType": "address",
							"name": "contractAddr",
							"type": "address"
						},
						{
							"internalType": "address",
							"name": "coinAddr",
							"type": "address"
						},
						{
							"internalType": "uint256[]",
							"name": "tokenId",
							"type": "uint256[]"
						},
						{
							"internalType": "address",
							"name": "referer",
							"type": "address"
						},
						{
							"internalType": "uint256",
							"name": "metaverseFee",
							"type": "uint256"
						},
						{
							"internalType": "uint256[]",
							"name": "previousOwnerFee",
							"type": "uint256[]"
						},
						{
							"internalType": "uint256",
							"name": "referalFee",
							"type": "uint256"
						}
					],
					"name": "purchaseERC20Batch",
					"outputs": [],
					"stateMutability": "payable",
					"type": "function"
				},
				{
					"inputs": [],
					"name": "renounceOwnership",
					"outputs": [],
					"stateMutability": "nonpayable",
					"type": "function"
				},
				{
					"inputs": [
						{
							"internalType": "address",
							"name": "newOwner",
							"type": "address"
						}
					],
					"name": "transferOwnership",
					"outputs": [],
					"stateMutability": "nonpayable",
					"type": "function"
				}
			],
			"devdoc": {
				"kind": "dev",
				"methods": {},
				"version": 1
			},
			"evm": {
				"assembly": "    /* \"MarketERC721.sol\":606:9654  contract Market is Ownable {\r... */\n  mstore(0x40, 0x80)\n  callvalue\n  dup1\n  iszero\n  tag_1\n  jumpi\n  0x00\n  dup1\n  revert\ntag_1:\n  pop\n    /* \"Ownable.sol\":364:396  _transferOwnership(_msgSender()) */\n  tag_4\n    /* \"Ownable.sol\":383:395  _msgSender() */\n  tag_5\n    /* \"Ownable.sol\":383:393  _msgSender */\n  shl(0x20, tag_6)\n    /* \"Ownable.sol\":383:395  _msgSender() */\n  0x20\n  shr\n  jump\t// in\ntag_5:\n    /* \"Ownable.sol\":364:382  _transferOwnership */\n  shl(0x20, tag_7)\n    /* \"Ownable.sol\":364:396  _transferOwnership(_msgSender()) */\n  0x20\n  shr\n  jump\t// in\ntag_4:\n    /* \"MarketERC721.sol\":606:9654  contract Market is Ownable {\r... */\n  jump(tag_8)\n    /* \"@openzeppelin/contracts/utils/Context.sol\":640:736  function _msgSender() internal view virtual returns (address) {... */\ntag_6:\n    /* \"@openzeppelin/contracts/utils/Context.sol\":693:700  address */\n  0x00\n    /* \"@openzeppelin/contracts/utils/Context.sol\":719:729  msg.sender */\n  caller\n    /* \"@openzeppelin/contracts/utils/Context.sol\":712:729  return msg.sender */\n  swap1\n  pop\n    /* \"@openzeppelin/contracts/utils/Context.sol\":640:736  function _msgSender() internal view virtual returns (address) {... */\n  swap1\n  jump\t// out\n    /* \"Ownable.sol\":955:1146  function _transferOwnership(address newOwner) internal virtual {\r... */\ntag_7:\n    /* \"Ownable.sol\":1029:1045  address oldOwner */\n  0x00\n    /* \"Ownable.sol\":1048:1054  _owner */\n  dup1\n  0x00\n  swap1\n  sload\n  swap1\n  0x0100\n  exp\n  swap1\n  div\n  0xffffffffffffffffffffffffffffffffffffffff\n  and\n    /* \"Ownable.sol\":1029:1054  address oldOwner = _owner */\n  swap1\n  pop\n    /* \"Ownable.sol\":1074:1082  newOwner */\n  dup2\n    /* \"Ownable.sol\":1065:1071  _owner */\n  0x00\n  dup1\n    /* \"Ownable.sol\":1065:1082  _owner = newOwner */\n  0x0100\n  exp\n  dup2\n  sload\n  dup2\n  0xffffffffffffffffffffffffffffffffffffffff\n  mul\n  not\n  and\n  swap1\n  dup4\n  0xffffffffffffffffffffffffffffffffffffffff\n  and\n  mul\n  or\n  swap1\n  sstore\n  pop\n    /* \"Ownable.sol\":1129:1137  newOwner */\n  dup2\n    /* \"Ownable.sol\":1098:1138  OwnershipTransferred(oldOwner, newOwner) */\n  0xffffffffffffffffffffffffffffffffffffffff\n  and\n    /* \"Ownable.sol\":1119:1127  oldOwner */\n  dup2\n    /* \"Ownable.sol\":1098:1138  OwnershipTransferred(oldOwner, newOwner) */\n  0xffffffffffffffffffffffffffffffffffffffff\n  and\n  0x8be0079c531659141344cd1fd0a4f28419497f9722a3daafe3b4186f6b6457e0\n  mload(0x40)\n  mload(0x40)\n  dup1\n  swap2\n  sub\n  swap1\n  log3\n    /* \"Ownable.sol\":1018:1146  {\r... */\n  pop\n    /* \"Ownable.sol\":955:1146  function _transferOwnership(address newOwner) internal virtual {\r... */\n  pop\n  jump\t// out\n    /* \"MarketERC721.sol\":606:9654  contract Market is Ownable {\r... */\ntag_8:\n  dataSize(sub_0)\n  dup1\n  dataOffset(sub_0)\n  0x00\n  codecopy\n  0x00\n  return\nstop\n\nsub_0: assembly {\n        /* \"MarketERC721.sol\":606:9654  contract Market is Ownable {\r... */\n      mstore(0x40, 0x80)\n      jumpi(tag_1, lt(calldatasize, 0x04))\n      shr(0xe0, calldataload(0x00))\n      dup1\n      0x715018a6\n      gt\n      tag_17\n      jumpi\n      dup1\n      0x8da5cb5b\n      gt\n      tag_18\n      jumpi\n      dup1\n      0x8da5cb5b\n      eq\n      tag_13\n      jumpi\n      dup1\n      0xb2ddee06\n      eq\n      tag_14\n      jumpi\n      dup1\n      0xed81abad\n      eq\n      tag_15\n      jumpi\n      dup1\n      0xf2fde38b\n      eq\n      tag_16\n      jumpi\n      jump(tag_1)\n    tag_18:\n      dup1\n      0x715018a6\n      eq\n      tag_9\n      jumpi\n      dup1\n      0x80abbe57\n      eq\n      tag_10\n      jumpi\n      dup1\n      0x8111f398\n      eq\n      tag_11\n      jumpi\n      dup1\n      0x8c5b197b\n      eq\n      tag_12\n      jumpi\n      jump(tag_1)\n    tag_17:\n      dup1\n      0x2973d6f8\n      gt\n      tag_19\n      jumpi\n      dup1\n      0x2973d6f8\n      eq\n      tag_5\n      jumpi\n      dup1\n      0x2c872cd1\n      eq\n      tag_6\n      jumpi\n      dup1\n      0x2f634a90\n      eq\n      tag_7\n      jumpi\n      dup1\n      0x449e815d\n      eq\n      tag_8\n      jumpi\n      jump(tag_1)\n    tag_19:\n      dup1\n      0x07df30\n      eq\n      tag_2\n      jumpi\n      dup1\n      0x031aa9b5\n      eq\n      tag_3\n      jumpi\n      dup1\n      0x189ecff1\n      eq\n      tag_4\n      jumpi\n    tag_1:\n      0x00\n      dup1\n      revert\n        /* \"MarketERC721.sol\":642:704  mapping(address =>mapping(uint256 => Listing)) public listings */\n    tag_2:\n      callvalue\n      dup1\n      iszero\n      tag_20\n      jumpi\n      0x00\n      dup1\n      revert\n    tag_20:\n      pop\n      tag_21\n      0x04\n      dup1\n      calldatasize\n      sub\n      dup2\n      add\n      swap1\n      tag_22\n      swap2\n      swap1\n      tag_23\n      jump\t// in\n    tag_22:\n      tag_24\n      jump\t// in\n    tag_21:\n      mload(0x40)\n      tag_25\n      swap6\n      swap5\n      swap4\n      swap3\n      swap2\n      swap1\n      tag_26\n      jump\t// in\n    tag_25:\n      mload(0x40)\n      dup1\n      swap2\n      sub\n      swap1\n      return\n        /* \"MarketERC721.sol\":9126:9287  function getIsListing(address contractAddr, uint tokenId) public view returns(bool isListing) {\r... */\n    tag_3:\n      callvalue\n      dup1\n      iszero\n      tag_27\n      jumpi\n      0x00\n      dup1\n      revert\n    tag_27:\n      pop\n      tag_28\n      0x04\n      dup1\n      calldatasize\n      sub\n      dup2\n      add\n      swap1\n      tag_29\n      swap2\n      swap1\n      tag_23\n      jump\t// in\n    tag_29:\n      tag_30\n      jump\t// in\n    tag_28:\n      mload(0x40)\n      tag_31\n      swap2\n      swap1\n      tag_32\n      jump\t// in\n    tag_31:\n      mload(0x40)\n      dup1\n      swap2\n      sub\n      swap1\n      return\n        /* \"MarketERC721.sol\":8963:9118  function getSeller(address contractAddr, uint tokenId) public view returns(address seller) {\r... */\n    tag_4:\n      callvalue\n      dup1\n      iszero\n      tag_33\n      jumpi\n      0x00\n      dup1\n      revert\n    tag_33:\n      pop\n      tag_34\n      0x04\n      dup1\n      calldatasize\n      sub\n      dup2\n      add\n      swap1\n      tag_35\n      swap2\n      swap1\n      tag_23\n      jump\t// in\n    tag_35:\n      tag_36\n      jump\t// in\n    tag_34:\n      mload(0x40)\n      tag_37\n      swap2\n      swap1\n      tag_38\n      jump\t// in\n    tag_37:\n      mload(0x40)\n      dup1\n      swap2\n      sub\n      swap1\n      return\n        /* \"MarketERC721.sol\":9295:9491  function getPrevOwner(address contractAddr, uint tokenId, uint prevIndex) public view returns(address prevOwner) {\r... */\n    tag_5:\n      callvalue\n      dup1\n      iszero\n      tag_39\n      jumpi\n      0x00\n      dup1\n      revert\n    tag_39:\n      pop\n      tag_40\n      0x04\n      dup1\n      calldatasize\n      sub\n      dup2\n      add\n      swap1\n      tag_41\n      swap2\n      swap1\n      tag_42\n      jump\t// in\n    tag_41:\n      tag_43\n      jump\t// in\n    tag_40:\n      mload(0x40)\n      tag_44\n      swap2\n      swap1\n      tag_38\n      jump\t// in\n    tag_44:\n      mload(0x40)\n      dup1\n      swap2\n      sub\n      swap1\n      return\n        /* \"MarketERC721.sol\":5333:6960  function purchaseERC20(address contractAddr, address coinAddr, uint256 tokenId, address referer, uint256 metaverseFee, uint256 previousOwnerFee, uint256 referalFee) public payable {\r... */\n    tag_6:\n      tag_45\n      0x04\n      dup1\n      calldatasize\n      sub\n      dup2\n      add\n      swap1\n      tag_46\n      swap2\n      swap1\n      tag_47\n      jump\t// in\n    tag_46:\n      tag_48\n      jump\t// in\n    tag_45:\n      stop\n        /* \"MarketERC721.sol\":9499:9651  function getOwner(address contractAddr, uint tokenId) public view returns(address owner) {\r... */\n    tag_7:\n      callvalue\n      dup1\n      iszero\n      tag_49\n      jumpi\n      0x00\n      dup1\n      revert\n    tag_49:\n      pop\n      tag_50\n      0x04\n      dup1\n      calldatasize\n      sub\n      dup2\n      add\n      swap1\n      tag_51\n      swap2\n      swap1\n      tag_23\n      jump\t// in\n    tag_51:\n      tag_52\n      jump\t// in\n    tag_50:\n      mload(0x40)\n      tag_53\n      swap2\n      swap1\n      tag_38\n      jump\t// in\n    tag_53:\n      mload(0x40)\n      dup1\n      swap2\n      sub\n      swap1\n      return\n        /* \"MarketERC721.sol\":8803:8955  function getPrice(address contractAddr, uint tokenId) public view returns(uint256 price) {\r... */\n    tag_8:\n      callvalue\n      dup1\n      iszero\n      tag_54\n      jumpi\n      0x00\n      dup1\n      revert\n    tag_54:\n      pop\n      tag_55\n      0x04\n      dup1\n      calldatasize\n      sub\n      dup2\n      add\n      swap1\n      tag_56\n      swap2\n      swap1\n      tag_23\n      jump\t// in\n    tag_56:\n      tag_57\n      jump\t// in\n    tag_55:\n      mload(0x40)\n      tag_58\n      swap2\n      swap1\n      tag_59\n      jump\t// in\n    tag_58:\n      mload(0x40)\n      dup1\n      swap2\n      sub\n      swap1\n      return\n        /* \"Ownable.sol\":635:738  function renounceOwnership() public virtual onlyOwner {\r... */\n    tag_9:\n      callvalue\n      dup1\n      iszero\n      tag_60\n      jumpi\n      0x00\n      dup1\n      revert\n    tag_60:\n      pop\n      tag_61\n      tag_62\n      jump\t// in\n    tag_61:\n      stop\n        /* \"MarketERC721.sol\":1018:1598  function addListing(uint256 price, address contractAddr, uint256 tokenId) public {\r... */\n    tag_10:\n      callvalue\n      dup1\n      iszero\n      tag_63\n      jumpi\n      0x00\n      dup1\n      revert\n    tag_63:\n      pop\n      tag_64\n      0x04\n      dup1\n      calldatasize\n      sub\n      dup2\n      add\n      swap1\n      tag_65\n      swap2\n      swap1\n      tag_66\n      jump\t// in\n    tag_65:\n      tag_67\n      jump\t// in\n    tag_64:\n      stop\n        /* \"MarketERC721.sol\":2129:3625  function purchase(address contractAddr, uint256 tokenId, address referer, uint256 metaverseFee, uint256 previousOwnerFee, uint256 referalFee) public payable {\r... */\n    tag_11:\n      tag_68\n      0x04\n      dup1\n      calldatasize\n      sub\n      dup2\n      add\n      swap1\n      tag_69\n      swap2\n      swap1\n      tag_70\n      jump\t// in\n    tag_69:\n      tag_71\n      jump\t// in\n    tag_68:\n      stop\n        /* \"MarketERC721.sol\":3633:5325  function purchaseBatch(address contractAddr, uint256[] calldata tokenId, address referer, uint256 metaverseFee, uint256[] calldata previousOwnerFee, uint256 referalFee) public payable {\r... */\n    tag_12:\n      tag_72\n      0x04\n      dup1\n      calldatasize\n      sub\n      dup2\n      add\n      swap1\n      tag_73\n      swap2\n      swap1\n      tag_74\n      jump\t// in\n    tag_73:\n      tag_75\n      jump\t// in\n    tag_72:\n      stop\n        /* \"Ownable.sol\":412:499  function owner() public view virtual returns (address) {\r... */\n    tag_13:\n      callvalue\n      dup1\n      iszero\n      tag_76\n      jumpi\n      0x00\n      dup1\n      revert\n    tag_76:\n      pop\n      tag_77\n      tag_78\n      jump\t// in\n    tag_77:\n      mload(0x40)\n      tag_79\n      swap2\n      swap1\n      tag_38\n      jump\t// in\n    tag_79:\n      mload(0x40)\n      dup1\n      swap2\n      sub\n      swap1\n      return\n        /* \"MarketERC721.sol\":1606:2121  function cancelListing(address contractAddr, uint256 tokenId) public {\r... */\n    tag_14:\n      callvalue\n      dup1\n      iszero\n      tag_80\n      jumpi\n      0x00\n      dup1\n      revert\n    tag_80:\n      pop\n      tag_81\n      0x04\n      dup1\n      calldatasize\n      sub\n      dup2\n      add\n      swap1\n      tag_82\n      swap2\n      swap1\n      tag_23\n      jump\t// in\n    tag_82:\n      tag_83\n      jump\t// in\n    tag_81:\n      stop\n        /* \"MarketERC721.sol\":6968:8795  function purchaseERC20Batch(address contractAddr, address coinAddr, uint256[] calldata tokenId, address referer, uint256 metaverseFee, uint256[] calldata previousOwnerFee, uint256 referalFee) public payable {\r... */\n    tag_15:\n      tag_84\n      0x04\n      dup1\n      calldatasize\n      sub\n      dup2\n      add\n      swap1\n      tag_85\n      swap2\n      swap1\n      tag_86\n      jump\t// in\n    tag_85:\n      tag_87\n      jump\t// in\n    tag_84:\n      stop\n        /* \"Ownable.sol\":746:947  function transferOwnership(address newOwner) public virtual onlyOwner {\r... */\n    tag_16:\n      callvalue\n      dup1\n      iszero\n      tag_88\n      jumpi\n      0x00\n      dup1\n      revert\n    tag_88:\n      pop\n      tag_89\n      0x04\n      dup1\n      calldatasize\n      sub\n      dup2\n      add\n      swap1\n      tag_90\n      swap2\n      swap1\n      tag_91\n      jump\t// in\n    tag_90:\n      tag_92\n      jump\t// in\n    tag_89:\n      stop\n        /* \"MarketERC721.sol\":642:704  mapping(address =>mapping(uint256 => Listing)) public listings */\n    tag_24:\n      mstore(0x20, 0x01)\n      dup2\n      0x00\n      mstore\n      mstore(0x20, keccak256(0x00, 0x40))\n      dup1\n      0x00\n      mstore\n      keccak256(0x00, 0x40)\n      0x00\n      swap2\n      pop\n      swap2\n      pop\n      pop\n      dup1\n      0x00\n      add\n      sload\n      swap1\n      dup1\n      0x01\n      add\n      0x00\n      swap1\n      sload\n      swap1\n      0x0100\n      exp\n      swap1\n      div\n      0xffffffffffffffffffffffffffffffffffffffff\n      and\n      swap1\n      dup1\n      0x02\n      add\n      0x00\n      swap1\n      sload\n      swap1\n      0x0100\n      exp\n      swap1\n      div\n      0xffffffffffffffffffffffffffffffffffffffff\n      and\n      swap1\n      dup1\n      0x02\n      add\n      0x14\n      swap1\n      sload\n      swap1\n      0x0100\n      exp\n      swap1\n      div\n      0xff\n      and\n      swap1\n      dup1\n      0x03\n      add\n      sload\n      swap1\n      pop\n      dup6\n      jump\t// out\n        /* \"MarketERC721.sol\":9126:9287  function getIsListing(address contractAddr, uint tokenId) public view returns(bool isListing) {\r... */\n    tag_30:\n        /* \"MarketERC721.sol\":9204:9218  bool isListing */\n      0x00\n        /* \"MarketERC721.sol\":9238:9246  listings */\n      0x01\n        /* \"MarketERC721.sol\":9238:9260  listings[contractAddr] */\n      0x00\n        /* \"MarketERC721.sol\":9247:9259  contractAddr */\n      dup5\n        /* \"MarketERC721.sol\":9238:9260  listings[contractAddr] */\n      0xffffffffffffffffffffffffffffffffffffffff\n      and\n      0xffffffffffffffffffffffffffffffffffffffff\n      and\n      dup2\n      mstore\n      0x20\n      add\n      swap1\n      dup2\n      mstore\n      0x20\n      add\n      0x00\n      keccak256\n        /* \"MarketERC721.sol\":9238:9269  listings[contractAddr][tokenId] */\n      0x00\n        /* \"MarketERC721.sol\":9261:9268  tokenId */\n      dup4\n        /* \"MarketERC721.sol\":9238:9269  listings[contractAddr][tokenId] */\n      dup2\n      mstore\n      0x20\n      add\n      swap1\n      dup2\n      mstore\n      0x20\n      add\n      0x00\n      keccak256\n        /* \"MarketERC721.sol\":9238:9279  listings[contractAddr][tokenId].isListing */\n      0x02\n      add\n      0x14\n      swap1\n      sload\n      swap1\n      0x0100\n      exp\n      swap1\n      div\n      0xff\n      and\n        /* \"MarketERC721.sol\":9231:9279  return listings[contractAddr][tokenId].isListing */\n      swap1\n      pop\n        /* \"MarketERC721.sol\":9126:9287  function getIsListing(address contractAddr, uint tokenId) public view returns(bool isListing) {\r... */\n      swap3\n      swap2\n      pop\n      pop\n      jump\t// out\n        /* \"MarketERC721.sol\":8963:9118  function getSeller(address contractAddr, uint tokenId) public view returns(address seller) {\r... */\n    tag_36:\n        /* \"MarketERC721.sol\":9038:9052  address seller */\n      0x00\n        /* \"MarketERC721.sol\":9072:9080  listings */\n      0x01\n        /* \"MarketERC721.sol\":9072:9094  listings[contractAddr] */\n      0x00\n        /* \"MarketERC721.sol\":9081:9093  contractAddr */\n      dup5\n        /* \"MarketERC721.sol\":9072:9094  listings[contractAddr] */\n      0xffffffffffffffffffffffffffffffffffffffff\n      and\n      0xffffffffffffffffffffffffffffffffffffffff\n      and\n      dup2\n      mstore\n      0x20\n      add\n      swap1\n      dup2\n      mstore\n      0x20\n      add\n      0x00\n      keccak256\n        /* \"MarketERC721.sol\":9072:9103  listings[contractAddr][tokenId] */\n      0x00\n        /* \"MarketERC721.sol\":9095:9102  tokenId */\n      dup4\n        /* \"MarketERC721.sol\":9072:9103  listings[contractAddr][tokenId] */\n      dup2\n      mstore\n      0x20\n      add\n      swap1\n      dup2\n      mstore\n      0x20\n      add\n      0x00\n      keccak256\n        /* \"MarketERC721.sol\":9072:9110  listings[contractAddr][tokenId].seller */\n      0x01\n      add\n      0x00\n      swap1\n      sload\n      swap1\n      0x0100\n      exp\n      swap1\n      div\n      0xffffffffffffffffffffffffffffffffffffffff\n      and\n        /* \"MarketERC721.sol\":9065:9110  return listings[contractAddr][tokenId].seller */\n      swap1\n      pop\n        /* \"MarketERC721.sol\":8963:9118  function getSeller(address contractAddr, uint tokenId) public view returns(address seller) {\r... */\n      swap3\n      swap2\n      pop\n      pop\n      jump\t// out\n        /* \"MarketERC721.sol\":9295:9491  function getPrevOwner(address contractAddr, uint tokenId, uint prevIndex) public view returns(address prevOwner) {\r... */\n    tag_43:\n        /* \"MarketERC721.sol\":9389:9406  address prevOwner */\n      0x00\n        /* \"MarketERC721.sol\":9426:9434  listings */\n      0x01\n        /* \"MarketERC721.sol\":9426:9448  listings[contractAddr] */\n      0x00\n        /* \"MarketERC721.sol\":9435:9447  contractAddr */\n      dup6\n        /* \"MarketERC721.sol\":9426:9448  listings[contractAddr] */\n      0xffffffffffffffffffffffffffffffffffffffff\n      and\n      0xffffffffffffffffffffffffffffffffffffffff\n      and\n      dup2\n      mstore\n      0x20\n      add\n      swap1\n      dup2\n      mstore\n      0x20\n      add\n      0x00\n      keccak256\n        /* \"MarketERC721.sol\":9426:9457  listings[contractAddr][tokenId] */\n      0x00\n        /* \"MarketERC721.sol\":9449:9456  tokenId */\n      dup5\n        /* \"MarketERC721.sol\":9426:9457  listings[contractAddr][tokenId] */\n      dup2\n      mstore\n      0x20\n      add\n      swap1\n      dup2\n      mstore\n      0x20\n      add\n      0x00\n      keccak256\n        /* \"MarketERC721.sol\":9426:9472  listings[contractAddr][tokenId].previousOwners */\n      0x04\n      add\n        /* \"MarketERC721.sol\":9426:9483  listings[contractAddr][tokenId].previousOwners[prevIndex] */\n      0x00\n        /* \"MarketERC721.sol\":9473:9482  prevIndex */\n      dup4\n        /* \"MarketERC721.sol\":9426:9483  listings[contractAddr][tokenId].previousOwners[prevIndex] */\n      dup2\n      mstore\n      0x20\n      add\n      swap1\n      dup2\n      mstore\n      0x20\n      add\n      0x00\n      keccak256\n      0x00\n      swap1\n      sload\n      swap1\n      0x0100\n      exp\n      swap1\n      div\n      0xffffffffffffffffffffffffffffffffffffffff\n      and\n        /* \"MarketERC721.sol\":9419:9483  return listings[contractAddr][tokenId].previousOwners[prevIndex] */\n      swap1\n      pop\n        /* \"MarketERC721.sol\":9295:9491  function getPrevOwner(address contractAddr, uint tokenId, uint prevIndex) public view returns(address prevOwner) {\r... */\n      swap4\n      swap3\n      pop\n      pop\n      pop\n      jump\t// out\n        /* \"MarketERC721.sol\":5333:6960  function purchaseERC20(address contractAddr, address coinAddr, uint256 tokenId, address referer, uint256 metaverseFee, uint256 previousOwnerFee, uint256 referalFee) public payable {\r... */\n    tag_48:\n        /* \"MarketERC721.sol\":5524:5544  Listing storage item */\n      0x00\n        /* \"MarketERC721.sol\":5547:5555  listings */\n      0x01\n        /* \"MarketERC721.sol\":5547:5569  listings[contractAddr] */\n      0x00\n        /* \"MarketERC721.sol\":5556:5568  contractAddr */\n      dup10\n        /* \"MarketERC721.sol\":5547:5569  listings[contractAddr] */\n      0xffffffffffffffffffffffffffffffffffffffff\n      and\n      0xffffffffffffffffffffffffffffffffffffffff\n      and\n      dup2\n      mstore\n      0x20\n      add\n      swap1\n      dup2\n      mstore\n      0x20\n      add\n      0x00\n      keccak256\n        /* \"MarketERC721.sol\":5547:5578  listings[contractAddr][tokenId] */\n      0x00\n        /* \"MarketERC721.sol\":5570:5577  tokenId */\n      dup8\n        /* \"MarketERC721.sol\":5547:5578  listings[contractAddr][tokenId] */\n      dup2\n      mstore\n      0x20\n      add\n      swap1\n      dup2\n      mstore\n      0x20\n      add\n      0x00\n      keccak256\n        /* \"MarketERC721.sol\":5524:5578  Listing storage item = listings[contractAddr][tokenId] */\n      swap1\n      pop\n        /* \"MarketERC721.sol\":5589:5601  ERC721 token */\n      0x00\n        /* \"MarketERC721.sol\":5611:5623  contractAddr */\n      dup9\n        /* \"MarketERC721.sol\":5589:5624  ERC721 token = ERC721(contractAddr) */\n      swap1\n      pop\n        /* \"MarketERC721.sol\":5635:5645  ERC20 coin */\n      0x00\n        /* \"MarketERC721.sol\":5654:5662  coinAddr */\n      dup9\n        /* \"MarketERC721.sol\":5635:5663  ERC20 coin = ERC20(coinAddr) */\n      swap1\n      pop\n        /* \"MarketERC721.sol\":5682:5686  item */\n      dup3\n        /* \"MarketERC721.sol\":5682:5696  item.isListing */\n      0x02\n      add\n      0x14\n      swap1\n      sload\n      swap1\n      0x0100\n      exp\n      swap1\n      div\n      0xff\n      and\n        /* \"MarketERC721.sol\":5674:5726  require(item.isListing, \"This NFT is not for sell.\") */\n      tag_97\n      jumpi\n      mload(0x40)\n      0x08c379a000000000000000000000000000000000000000000000000000000000\n      dup2\n      mstore\n      0x04\n      add\n      tag_98\n      swap1\n      tag_99\n      jump\t// in\n    tag_98:\n      mload(0x40)\n      dup1\n      swap2\n      sub\n      swap1\n      revert\n    tag_97:\n        /* \"MarketERC721.sol\":5759:5763  item */\n      dup3\n        /* \"MarketERC721.sol\":5759:5770  item.seller */\n      0x01\n      add\n      0x00\n      swap1\n      sload\n      swap1\n      0x0100\n      exp\n      swap1\n      div\n      0xffffffffffffffffffffffffffffffffffffffff\n      and\n        /* \"MarketERC721.sol\":5745:5770  msg.sender != item.seller */\n      0xffffffffffffffffffffffffffffffffffffffff\n      and\n        /* \"MarketERC721.sol\":5745:5755  msg.sender */\n      caller\n        /* \"MarketERC721.sol\":5745:5770  msg.sender != item.seller */\n      0xffffffffffffffffffffffffffffffffffffffff\n      and\n      eq\n      iszero\n        /* \"MarketERC721.sol\":5737:5793  require(msg.sender != item.seller, \"Buy from yourself.\") */\n      tag_100\n      jumpi\n      mload(0x40)\n      0x08c379a000000000000000000000000000000000000000000000000000000000\n      dup2\n      mstore\n      0x04\n      add\n      tag_101\n      swap1\n      tag_102\n      jump\t// in\n    tag_101:\n      mload(0x40)\n      dup1\n      swap2\n      sub\n      swap1\n      revert\n    tag_100:\n        /* \"MarketERC721.sol\":5842:5846  item */\n      dup3\n        /* \"MarketERC721.sol\":5842:5852  item.price */\n      0x00\n      add\n      sload\n        /* \"MarketERC721.sol\":5812:5816  coin */\n      dup2\n        /* \"MarketERC721.sol\":5812:5826  coin.balanceOf */\n      0xffffffffffffffffffffffffffffffffffffffff\n      and\n      0x70a08231\n        /* \"MarketERC721.sol\":5827:5837  msg.sender */\n      caller\n        /* \"MarketERC721.sol\":5812:5838  coin.balanceOf(msg.sender) */\n      mload(0x40)\n      dup3\n      0xffffffff\n      and\n      0xe0\n      shl\n      dup2\n      mstore\n      0x04\n      add\n      tag_103\n      swap2\n      swap1\n      tag_38\n      jump\t// in\n    tag_103:\n      0x20\n      mload(0x40)\n      dup1\n      dup4\n      sub\n      dup2\n      dup7\n      dup1\n      extcodesize\n      iszero\n      dup1\n      iszero\n      tag_104\n      jumpi\n      0x00\n      dup1\n      revert\n    tag_104:\n      pop\n      gas\n      staticcall\n      iszero\n      dup1\n      iszero\n      tag_106\n      jumpi\n      returndatasize\n      0x00\n      dup1\n      returndatacopy\n      revert(0x00, returndatasize)\n    tag_106:\n      pop\n      pop\n      pop\n      pop\n      mload(0x40)\n      returndatasize\n      not(0x1f)\n      0x1f\n      dup3\n      add\n      and\n      dup3\n      add\n      dup1\n      0x40\n      mstore\n      pop\n      dup2\n      add\n      swap1\n      tag_107\n      swap2\n      swap1\n      tag_108\n      jump\t// in\n    tag_107:\n        /* \"MarketERC721.sol\":5812:5852  coin.balanceOf(msg.sender) >= item.price */\n      lt\n      iszero\n        /* \"MarketERC721.sol\":5804:5881  require(coin.balanceOf(msg.sender) >= item.price, \"Insufficient funds sent.\") */\n      tag_109\n      jumpi\n      mload(0x40)\n      0x08c379a000000000000000000000000000000000000000000000000000000000\n      dup2\n      mstore\n      0x04\n      add\n      tag_110\n      swap1\n      tag_111\n      jump\t// in\n    tag_110:\n      mload(0x40)\n      dup1\n      swap2\n      sub\n      swap1\n      revert\n    tag_109:\n        /* \"MarketERC721.sol\":5892:5896  coin */\n      dup1\n        /* \"MarketERC721.sol\":5892:5909  coin.transferFrom */\n      0xffffffffffffffffffffffffffffffffffffffff\n      and\n      0x23b872dd\n        /* \"MarketERC721.sol\":5910:5920  msg.sender */\n      caller\n        /* \"MarketERC721.sol\":5922:5926  item */\n      dup6\n        /* \"MarketERC721.sol\":5922:5933  item.seller */\n      0x01\n      add\n      0x00\n      swap1\n      sload\n      swap1\n      0x0100\n      exp\n      swap1\n      div\n      0xffffffffffffffffffffffffffffffffffffffff\n      and\n        /* \"MarketERC721.sol\":5962:5964  20 */\n      0x14\n        /* \"MarketERC721.sol\":5949:5953  item */\n      dup8\n        /* \"MarketERC721.sol\":5949:5959  item.price */\n      0x00\n      add\n      sload\n        /* \"MarketERC721.sol\":5949:5964  item.price / 20 */\n      tag_112\n      swap2\n      swap1\n      tag_113\n      jump\t// in\n    tag_112:\n        /* \"MarketERC721.sol\":5935:5939  item */\n      dup8\n        /* \"MarketERC721.sol\":5935:5945  item.price */\n      0x00\n      add\n      sload\n        /* \"MarketERC721.sol\":5935:5965  item.price - (item.price / 20) */\n      tag_114\n      swap2\n      swap1\n      tag_115\n      jump\t// in\n    tag_114:\n        /* \"MarketERC721.sol\":5892:5966  coin.transferFrom(msg.sender, item.seller, item.price - (item.price / 20)) */\n      mload(0x40)\n      dup5\n      0xffffffff\n      and\n      0xe0\n      shl\n      dup2\n      mstore\n      0x04\n      add\n      tag_116\n      swap4\n      swap3\n      swap2\n      swap1\n      tag_117\n      jump\t// in\n    tag_116:\n      0x20\n      mload(0x40)\n      dup1\n      dup4\n      sub\n      dup2\n      0x00\n      dup8\n      dup1\n      extcodesize\n      iszero\n      dup1\n      iszero\n      tag_118\n      jumpi\n      0x00\n      dup1\n      revert\n    tag_118:\n      pop\n      gas\n      call\n      iszero\n      dup1\n      iszero\n      tag_120\n      jumpi\n      returndatasize\n      0x00\n      dup1\n      returndatacopy\n      revert(0x00, returndatasize)\n    tag_120:\n      pop\n      pop\n      pop\n      pop\n      mload(0x40)\n      returndatasize\n      not(0x1f)\n      0x1f\n      dup3\n      add\n      and\n      dup3\n      add\n      dup1\n      0x40\n      mstore\n      pop\n      dup2\n      add\n      swap1\n      tag_121\n      swap2\n      swap1\n      tag_122\n      jump\t// in\n    tag_121:\n      pop\n        /* \"MarketERC721.sol\":5977:5981  coin */\n      dup1\n        /* \"MarketERC721.sol\":5977:5994  coin.transferFrom */\n      0xffffffffffffffffffffffffffffffffffffffff\n      and\n      0x23b872dd\n        /* \"MarketERC721.sol\":5995:6005  msg.sender */\n      caller\n        /* \"MarketERC721.sol\":6007:6014  owner() */\n      tag_123\n        /* \"MarketERC721.sol\":6007:6012  owner */\n      tag_78\n        /* \"MarketERC721.sol\":6007:6014  owner() */\n      jump\t// in\n    tag_123:\n        /* \"MarketERC721.sol\":6016:6028  metaverseFee */\n      dup10\n        /* \"MarketERC721.sol\":5977:6029  coin.transferFrom(msg.sender, owner(), metaverseFee) */\n      mload(0x40)\n      dup5\n      0xffffffff\n      and\n      0xe0\n      shl\n      dup2\n      mstore\n      0x04\n      add\n      tag_124\n      swap4\n      swap3\n      swap2\n      swap1\n      tag_117\n      jump\t// in\n    tag_124:\n      0x20\n      mload(0x40)\n      dup1\n      dup4\n      sub\n      dup2\n      0x00\n      dup8\n      dup1\n      extcodesize\n      iszero\n      dup1\n      iszero\n      tag_125\n      jumpi\n      0x00\n      dup1\n      revert\n    tag_125:\n      pop\n      gas\n      call\n      iszero\n      dup1\n      iszero\n      tag_127\n      jumpi\n      returndatasize\n      0x00\n      dup1\n      returndatacopy\n      revert(0x00, returndatasize)\n    tag_127:\n      pop\n      pop\n      pop\n      pop\n      mload(0x40)\n      returndatasize\n      not(0x1f)\n      0x1f\n      dup3\n      add\n      and\n      dup3\n      add\n      dup1\n      0x40\n      mstore\n      pop\n      dup2\n      add\n      swap1\n      tag_128\n      swap2\n      swap1\n      tag_122\n      jump\t// in\n    tag_128:\n      pop\n        /* \"MarketERC721.sol\":6062:6063  0 */\n      0x00\n        /* \"MarketERC721.sol\":6043:6064  referer != address(0) */\n      0xffffffffffffffffffffffffffffffffffffffff\n      and\n        /* \"MarketERC721.sol\":6043:6050  referer */\n      dup8\n        /* \"MarketERC721.sol\":6043:6064  referer != address(0) */\n      0xffffffffffffffffffffffffffffffffffffffff\n      and\n      eq\n        /* \"MarketERC721.sol\":6040:6142  if(referer != address(0)){\r... */\n      tag_129\n      jumpi\n        /* \"MarketERC721.sol\":6080:6084  coin */\n      dup1\n        /* \"MarketERC721.sol\":6080:6097  coin.transferFrom */\n      0xffffffffffffffffffffffffffffffffffffffff\n      and\n      0x23b872dd\n        /* \"MarketERC721.sol\":6098:6108  msg.sender */\n      caller\n        /* \"MarketERC721.sol\":6110:6117  referer */\n      dup10\n        /* \"MarketERC721.sol\":6119:6129  referalFee */\n      dup8\n        /* \"MarketERC721.sol\":6080:6130  coin.transferFrom(msg.sender, referer, referalFee) */\n      mload(0x40)\n      dup5\n      0xffffffff\n      and\n      0xe0\n      shl\n      dup2\n      mstore\n      0x04\n      add\n      tag_130\n      swap4\n      swap3\n      swap2\n      swap1\n      tag_117\n      jump\t// in\n    tag_130:\n      0x20\n      mload(0x40)\n      dup1\n      dup4\n      sub\n      dup2\n      0x00\n      dup8\n      dup1\n      extcodesize\n      iszero\n      dup1\n      iszero\n      tag_131\n      jumpi\n      0x00\n      dup1\n      revert\n    tag_131:\n      pop\n      gas\n      call\n      iszero\n      dup1\n      iszero\n      tag_133\n      jumpi\n      returndatasize\n      0x00\n      dup1\n      returndatacopy\n      revert(0x00, returndatasize)\n    tag_133:\n      pop\n      pop\n      pop\n      pop\n      mload(0x40)\n      returndatasize\n      not(0x1f)\n      0x1f\n      dup3\n      add\n      and\n      dup3\n      add\n      dup1\n      0x40\n      mstore\n      pop\n      dup2\n      add\n      swap1\n      tag_134\n      swap2\n      swap1\n      tag_122\n      jump\t// in\n    tag_134:\n      pop\n        /* \"MarketERC721.sol\":6040:6142  if(referer != address(0)){\r... */\n    tag_129:\n        /* \"MarketERC721.sol\":6157:6163  uint i */\n      0x00\n        /* \"MarketERC721.sol\":6152:6442  for (uint i = 0; i < 5; i++) {\r... */\n    tag_135:\n        /* \"MarketERC721.sol\":6173:6174  5 */\n      0x05\n        /* \"MarketERC721.sol\":6169:6170  i */\n      dup2\n        /* \"MarketERC721.sol\":6169:6174  i < 5 */\n      lt\n        /* \"MarketERC721.sol\":6152:6442  for (uint i = 0; i < 5; i++) {\r... */\n      iszero\n      tag_136\n      jumpi\n        /* \"MarketERC721.sol\":6238:6239  0 */\n      0x00\n        /* \"MarketERC721.sol\":6204:6240  item.previousOwners[i] != address(0) */\n      0xffffffffffffffffffffffffffffffffffffffff\n      and\n        /* \"MarketERC721.sol\":6204:6208  item */\n      dup5\n        /* \"MarketERC721.sol\":6204:6223  item.previousOwners */\n      0x04\n      add\n        /* \"MarketERC721.sol\":6204:6226  item.previousOwners[i] */\n      0x00\n        /* \"MarketERC721.sol\":6224:6225  i */\n      dup4\n        /* \"MarketERC721.sol\":6204:6226  item.previousOwners[i] */\n      dup2\n      mstore\n      0x20\n      add\n      swap1\n      dup2\n      mstore\n      0x20\n      add\n      0x00\n      keccak256\n      0x00\n      swap1\n      sload\n      swap1\n      0x0100\n      exp\n      swap1\n      div\n      0xffffffffffffffffffffffffffffffffffffffff\n      and\n        /* \"MarketERC721.sol\":6204:6240  item.previousOwners[i] != address(0) */\n      0xffffffffffffffffffffffffffffffffffffffff\n      and\n      eq\n        /* \"MarketERC721.sol\":6200:6427  if (item.previousOwners[i] != address(0)) {\r... */\n      tag_138\n      jumpi\n        /* \"MarketERC721.sol\":6265:6269  coin */\n      dup2\n        /* \"MarketERC721.sol\":6265:6282  coin.transferFrom */\n      0xffffffffffffffffffffffffffffffffffffffff\n      and\n      0x23b872dd\n        /* \"MarketERC721.sol\":6283:6293  msg.sender */\n      caller\n        /* \"MarketERC721.sol\":6295:6299  item */\n      dup7\n        /* \"MarketERC721.sol\":6295:6314  item.previousOwners */\n      0x04\n      add\n        /* \"MarketERC721.sol\":6295:6317  item.previousOwners[i] */\n      0x00\n        /* \"MarketERC721.sol\":6315:6316  i */\n      dup6\n        /* \"MarketERC721.sol\":6295:6317  item.previousOwners[i] */\n      dup2\n      mstore\n      0x20\n      add\n      swap1\n      dup2\n      mstore\n      0x20\n      add\n      0x00\n      keccak256\n      0x00\n      swap1\n      sload\n      swap1\n      0x0100\n      exp\n      swap1\n      div\n      0xffffffffffffffffffffffffffffffffffffffff\n      and\n        /* \"MarketERC721.sol\":6319:6335  previousOwnerFee */\n      dup10\n        /* \"MarketERC721.sol\":6265:6336  coin.transferFrom(msg.sender, item.previousOwners[i], previousOwnerFee) */\n      mload(0x40)\n      dup5\n      0xffffffff\n      and\n      0xe0\n      shl\n      dup2\n      mstore\n      0x04\n      add\n      tag_139\n      swap4\n      swap3\n      swap2\n      swap1\n      tag_117\n      jump\t// in\n    tag_139:\n      0x20\n      mload(0x40)\n      dup1\n      dup4\n      sub\n      dup2\n      0x00\n      dup8\n      dup1\n      extcodesize\n      iszero\n      dup1\n      iszero\n      tag_140\n      jumpi\n      0x00\n      dup1\n      revert\n    tag_140:\n      pop\n      gas\n      call\n      iszero\n      dup1\n      iszero\n      tag_142\n      jumpi\n      returndatasize\n      0x00\n      dup1\n      returndatacopy\n      revert(0x00, returndatasize)\n    tag_142:\n      pop\n      pop\n      pop\n      pop\n      mload(0x40)\n      returndatasize\n      not(0x1f)\n      0x1f\n      dup3\n      add\n      and\n      dup3\n      add\n      dup1\n      0x40\n      mstore\n      pop\n      dup2\n      add\n      swap1\n      tag_143\n      swap2\n      swap1\n      tag_122\n      jump\t// in\n    tag_143:\n      pop\n        /* \"MarketERC721.sol\":6200:6427  if (item.previousOwners[i] != address(0)) {\r... */\n      jump(tag_144)\n    tag_138:\n        /* \"MarketERC721.sol\":6402:6407  break */\n      jump(tag_136)\n        /* \"MarketERC721.sol\":6200:6427  if (item.previousOwners[i] != address(0)) {\r... */\n    tag_144:\n        /* \"MarketERC721.sol\":6176:6179  i++ */\n      dup1\n      dup1\n      tag_145\n      swap1\n      tag_146\n      jump\t// in\n    tag_145:\n      swap2\n      pop\n      pop\n        /* \"MarketERC721.sol\":6152:6442  for (uint i = 0; i < 5; i++) {\r... */\n      jump(tag_135)\n    tag_136:\n      pop\n        /* \"MarketERC721.sol\":6454:6459  token */\n      dup2\n        /* \"MarketERC721.sol\":6454:6476  token.safeTransferFrom */\n      0xffffffffffffffffffffffffffffffffffffffff\n      and\n      0xb88d4fde\n        /* \"MarketERC721.sol\":6477:6481  item */\n      dup5\n        /* \"MarketERC721.sol\":6477:6488  item.seller */\n      0x01\n      add\n      0x00\n      swap1\n      sload\n      swap1\n      0x0100\n      exp\n      swap1\n      div\n      0xffffffffffffffffffffffffffffffffffffffff\n      and\n        /* \"MarketERC721.sol\":6490:6500  msg.sender */\n      caller\n        /* \"MarketERC721.sol\":6502:6509  tokenId */\n      dup12\n        /* \"MarketERC721.sol\":6454:6514  token.safeTransferFrom(item.seller, msg.sender, tokenId, \"\") */\n      mload(0x40)\n      dup5\n      0xffffffff\n      and\n      0xe0\n      shl\n      dup2\n      mstore\n      0x04\n      add\n      tag_147\n      swap4\n      swap3\n      swap2\n      swap1\n      tag_148\n      jump\t// in\n    tag_147:\n      0x00\n      mload(0x40)\n      dup1\n      dup4\n      sub\n      dup2\n      0x00\n      dup8\n      dup1\n      extcodesize\n      iszero\n      dup1\n      iszero\n      tag_149\n      jumpi\n      0x00\n      dup1\n      revert\n    tag_149:\n      pop\n      gas\n      call\n      iszero\n      dup1\n      iszero\n      tag_151\n      jumpi\n      returndatasize\n      0x00\n      dup1\n      returndatacopy\n      revert(0x00, returndatasize)\n    tag_151:\n      pop\n      pop\n      pop\n      pop\n        /* \"MarketERC721.sol\":6538:6548  msg.sender */\n      caller\n        /* \"MarketERC721.sol\":6525:6529  item */\n      dup4\n        /* \"MarketERC721.sol\":6525:6535  item.owner */\n      0x02\n      add\n      0x00\n        /* \"MarketERC721.sol\":6525:6548  item.owner = msg.sender */\n      0x0100\n      exp\n      dup2\n      sload\n      dup2\n      0xffffffffffffffffffffffffffffffffffffffff\n      mul\n      not\n      and\n      swap1\n      dup4\n      0xffffffffffffffffffffffffffffffffffffffff\n      and\n      mul\n      or\n      swap1\n      sstore\n      pop\n        /* \"MarketERC721.sol\":6608:6609  3 */\n      0x03\n        /* \"MarketERC721.sol\":6562:6570  listings */\n      0x01\n        /* \"MarketERC721.sol\":6562:6584  listings[contractAddr] */\n      0x00\n        /* \"MarketERC721.sol\":6571:6583  contractAddr */\n      dup13\n        /* \"MarketERC721.sol\":6562:6584  listings[contractAddr] */\n      0xffffffffffffffffffffffffffffffffffffffff\n      and\n      0xffffffffffffffffffffffffffffffffffffffff\n      and\n      dup2\n      mstore\n      0x20\n      add\n      swap1\n      dup2\n      mstore\n      0x20\n      add\n      0x00\n      keccak256\n        /* \"MarketERC721.sol\":6562:6593  listings[contractAddr][tokenId] */\n      0x00\n        /* \"MarketERC721.sol\":6585:6592  tokenId */\n      dup11\n        /* \"MarketERC721.sol\":6562:6593  listings[contractAddr][tokenId] */\n      dup2\n      mstore\n      0x20\n      add\n      swap1\n      dup2\n      mstore\n      0x20\n      add\n      0x00\n      keccak256\n        /* \"MarketERC721.sol\":6562:6604  listings[contractAddr][tokenId].ownerCount */\n      0x03\n      add\n      sload\n        /* \"MarketERC721.sol\":6562:6609  listings[contractAddr][tokenId].ownerCount <= 3 */\n      gt\n        /* \"MarketERC721.sol\":6559:6849  if(listings[contractAddr][tokenId].ownerCount <= 3) {\r... */\n      tag_152\n      jumpi\n        /* \"MarketERC721.sol\":6665:6669  item */\n      dup3\n        /* \"MarketERC721.sol\":6665:6676  item.seller */\n      0x01\n      add\n      0x00\n      swap1\n      sload\n      swap1\n      0x0100\n      exp\n      swap1\n      div\n      0xffffffffffffffffffffffffffffffffffffffff\n      and\n        /* \"MarketERC721.sol\":6626:6630  item */\n      dup4\n        /* \"MarketERC721.sol\":6626:6645  item.previousOwners */\n      0x04\n      add\n        /* \"MarketERC721.sol\":6626:6662  item.previousOwners[item.ownerCount] */\n      0x00\n        /* \"MarketERC721.sol\":6646:6650  item */\n      dup6\n        /* \"MarketERC721.sol\":6646:6661  item.ownerCount */\n      0x03\n      add\n      sload\n        /* \"MarketERC721.sol\":6626:6662  item.previousOwners[item.ownerCount] */\n      dup2\n      mstore\n      0x20\n      add\n      swap1\n      dup2\n      mstore\n      0x20\n      add\n      0x00\n      keccak256\n      0x00\n        /* \"MarketERC721.sol\":6626:6676  item.previousOwners[item.ownerCount] = item.seller */\n      0x0100\n      exp\n      dup2\n      sload\n      dup2\n      0xffffffffffffffffffffffffffffffffffffffff\n      mul\n      not\n      and\n      swap1\n      dup4\n      0xffffffffffffffffffffffffffffffffffffffff\n      and\n      mul\n      or\n      swap1\n      sstore\n      pop\n        /* \"MarketERC721.sol\":6710:6711  1 */\n      0x01\n        /* \"MarketERC721.sol\":6691:6695  item */\n      dup4\n        /* \"MarketERC721.sol\":6691:6706  item.ownerCount */\n      0x03\n      add\n      0x00\n        /* \"MarketERC721.sol\":6691:6711  item.ownerCount += 1 */\n      dup3\n      dup3\n      sload\n      tag_153\n      swap2\n      swap1\n      tag_154\n      jump\t// in\n    tag_153:\n      swap3\n      pop\n      pop\n      dup2\n      swap1\n      sstore\n      pop\n        /* \"MarketERC721.sol\":6559:6849  if(listings[contractAddr][tokenId].ownerCount <= 3) {\r... */\n      jump(tag_155)\n    tag_152:\n        /* \"MarketERC721.sol\":6792:6796  item */\n      dup3\n        /* \"MarketERC721.sol\":6792:6803  item.seller */\n      0x01\n      add\n      0x00\n      swap1\n      sload\n      swap1\n      0x0100\n      exp\n      swap1\n      div\n      0xffffffffffffffffffffffffffffffffffffffff\n      and\n        /* \"MarketERC721.sol\":6753:6757  item */\n      dup4\n        /* \"MarketERC721.sol\":6753:6772  item.previousOwners */\n      0x04\n      add\n        /* \"MarketERC721.sol\":6753:6789  item.previousOwners[item.ownerCount] */\n      0x00\n        /* \"MarketERC721.sol\":6773:6777  item */\n      dup6\n        /* \"MarketERC721.sol\":6773:6788  item.ownerCount */\n      0x03\n      add\n      sload\n        /* \"MarketERC721.sol\":6753:6789  item.previousOwners[item.ownerCount] */\n      dup2\n      mstore\n      0x20\n      add\n      swap1\n      dup2\n      mstore\n      0x20\n      add\n      0x00\n      keccak256\n      0x00\n        /* \"MarketERC721.sol\":6753:6803  item.previousOwners[item.ownerCount] = item.seller */\n      0x0100\n      exp\n      dup2\n      sload\n      dup2\n      0xffffffffffffffffffffffffffffffffffffffff\n      mul\n      not\n      and\n      swap1\n      dup4\n      0xffffffffffffffffffffffffffffffffffffffff\n      and\n      mul\n      or\n      swap1\n      sstore\n      pop\n        /* \"MarketERC721.sol\":6836:6837  0 */\n      0x00\n        /* \"MarketERC721.sol\":6818:6822  item */\n      dup4\n        /* \"MarketERC721.sol\":6818:6833  item.ownerCount */\n      0x03\n      add\n        /* \"MarketERC721.sol\":6818:6837  item.ownerCount = 0 */\n      dup2\n      swap1\n      sstore\n      pop\n        /* \"MarketERC721.sol\":6559:6849  if(listings[contractAddr][tokenId].ownerCount <= 3) {\r... */\n    tag_155:\n        /* \"MarketERC721.sol\":6878:6883  false */\n      0x00\n        /* \"MarketERC721.sol\":6861:6865  item */\n      dup4\n        /* \"MarketERC721.sol\":6861:6875  item.isListing */\n      0x02\n      add\n      0x14\n        /* \"MarketERC721.sol\":6861:6883  item.isListing = false */\n      0x0100\n      exp\n      dup2\n      sload\n      dup2\n      0xff\n      mul\n      not\n      and\n      swap1\n      dup4\n      iszero\n      iszero\n      mul\n      or\n      swap1\n      sstore\n      pop\n        /* \"MarketERC721.sol\":6937:6941  item */\n      dup3\n        /* \"MarketERC721.sol\":6937:6951  item.isListing */\n      0x02\n      add\n      0x14\n      swap1\n      sload\n      swap1\n      0x0100\n      exp\n      swap1\n      div\n      0xff\n      and\n        /* \"MarketERC721.sol\":6899:6952  List(msg.sender, tokenId, item.price, item.isListing) */\n      iszero\n      iszero\n        /* \"MarketERC721.sol\":6916:6923  tokenId */\n      dup9\n        /* \"MarketERC721.sol\":6904:6914  msg.sender */\n      caller\n        /* \"MarketERC721.sol\":6899:6952  List(msg.sender, tokenId, item.price, item.isListing) */\n      0xffffffffffffffffffffffffffffffffffffffff\n      and\n      0xa7cd299f7ebc29460ad99cf3ea75776d7cd038a63a59fa595e86441f8190ef90\n        /* \"MarketERC721.sol\":6925:6929  item */\n      dup7\n        /* \"MarketERC721.sol\":6925:6935  item.price */\n      0x00\n      add\n      sload\n        /* \"MarketERC721.sol\":6899:6952  List(msg.sender, tokenId, item.price, item.isListing) */\n      mload(0x40)\n      tag_156\n      swap2\n      swap1\n      tag_59\n      jump\t// in\n    tag_156:\n      mload(0x40)\n      dup1\n      swap2\n      sub\n      swap1\n      log4\n        /* \"MarketERC721.sol\":5513:6960  {\r... */\n      pop\n      pop\n      pop\n        /* \"MarketERC721.sol\":5333:6960  function purchaseERC20(address contractAddr, address coinAddr, uint256 tokenId, address referer, uint256 metaverseFee, uint256 previousOwnerFee, uint256 referalFee) public payable {\r... */\n      pop\n      pop\n      pop\n      pop\n      pop\n      pop\n      pop\n      jump\t// out\n        /* \"MarketERC721.sol\":9499:9651  function getOwner(address contractAddr, uint tokenId) public view returns(address owner) {\r... */\n    tag_52:\n        /* \"MarketERC721.sol\":9573:9586  address owner */\n      0x00\n        /* \"MarketERC721.sol\":9606:9614  listings */\n      0x01\n        /* \"MarketERC721.sol\":9606:9628  listings[contractAddr] */\n      0x00\n        /* \"MarketERC721.sol\":9615:9627  contractAddr */\n      dup5\n        /* \"MarketERC721.sol\":9606:9628  listings[contractAddr] */\n      0xffffffffffffffffffffffffffffffffffffffff\n      and\n      0xffffffffffffffffffffffffffffffffffffffff\n      and\n      dup2\n      mstore\n      0x20\n      add\n      swap1\n      dup2\n      mstore\n      0x20\n      add\n      0x00\n      keccak256\n        /* \"MarketERC721.sol\":9606:9637  listings[contractAddr][tokenId] */\n      0x00\n        /* \"MarketERC721.sol\":9629:9636  tokenId */\n      dup4\n        /* \"MarketERC721.sol\":9606:9637  listings[contractAddr][tokenId] */\n      dup2\n      mstore\n      0x20\n      add\n      swap1\n      dup2\n      mstore\n      0x20\n      add\n      0x00\n      keccak256\n        /* \"MarketERC721.sol\":9606:9643  listings[contractAddr][tokenId].owner */\n      0x02\n      add\n      0x00\n      swap1\n      sload\n      swap1\n      0x0100\n      exp\n      swap1\n      div\n      0xffffffffffffffffffffffffffffffffffffffff\n      and\n        /* \"MarketERC721.sol\":9599:9643  return listings[contractAddr][tokenId].owner */\n      swap1\n      pop\n        /* \"MarketERC721.sol\":9499:9651  function getOwner(address contractAddr, uint tokenId) public view returns(address owner) {\r... */\n      swap3\n      swap2\n      pop\n      pop\n      jump\t// out\n        /* \"MarketERC721.sol\":8803:8955  function getPrice(address contractAddr, uint tokenId) public view returns(uint256 price) {\r... */\n    tag_57:\n        /* \"MarketERC721.sol\":8877:8890  uint256 price */\n      0x00\n        /* \"MarketERC721.sol\":8910:8918  listings */\n      0x01\n        /* \"MarketERC721.sol\":8910:8932  listings[contractAddr] */\n      0x00\n        /* \"MarketERC721.sol\":8919:8931  contractAddr */\n      dup5\n        /* \"MarketERC721.sol\":8910:8932  listings[contractAddr] */\n      0xffffffffffffffffffffffffffffffffffffffff\n      and\n      0xffffffffffffffffffffffffffffffffffffffff\n      and\n      dup2\n      mstore\n      0x20\n      add\n      swap1\n      dup2\n      mstore\n      0x20\n      add\n      0x00\n      keccak256\n        /* \"MarketERC721.sol\":8910:8941  listings[contractAddr][tokenId] */\n      0x00\n        /* \"MarketERC721.sol\":8933:8940  tokenId */\n      dup4\n        /* \"MarketERC721.sol\":8910:8941  listings[contractAddr][tokenId] */\n      dup2\n      mstore\n      0x20\n      add\n      swap1\n      dup2\n      mstore\n      0x20\n      add\n      0x00\n      keccak256\n        /* \"MarketERC721.sol\":8910:8947  listings[contractAddr][tokenId].price */\n      0x00\n      add\n      sload\n        /* \"MarketERC721.sol\":8903:8947  return listings[contractAddr][tokenId].price */\n      swap1\n      pop\n        /* \"MarketERC721.sol\":8803:8955  function getPrice(address contractAddr, uint tokenId) public view returns(uint256 price) {\r... */\n      swap3\n      swap2\n      pop\n      pop\n      jump\t// out\n        /* \"Ownable.sol\":635:738  function renounceOwnership() public virtual onlyOwner {\r... */\n    tag_62:\n        /* \"Ownable.sol\":558:570  _msgSender() */\n      tag_160\n        /* \"Ownable.sol\":558:568  _msgSender */\n      tag_161\n        /* \"Ownable.sol\":558:570  _msgSender() */\n      jump\t// in\n    tag_160:\n        /* \"Ownable.sol\":547:570  owner() == _msgSender() */\n      0xffffffffffffffffffffffffffffffffffffffff\n      and\n        /* \"Ownable.sol\":547:554  owner() */\n      tag_162\n        /* \"Ownable.sol\":547:552  owner */\n      tag_78\n        /* \"Ownable.sol\":547:554  owner() */\n      jump\t// in\n    tag_162:\n        /* \"Ownable.sol\":547:570  owner() == _msgSender() */\n      0xffffffffffffffffffffffffffffffffffffffff\n      and\n      eq\n        /* \"Ownable.sol\":539:607  require(owner() == _msgSender(), \"Ownable: caller is not the owner\") */\n      tag_163\n      jumpi\n      mload(0x40)\n      0x08c379a000000000000000000000000000000000000000000000000000000000\n      dup2\n      mstore\n      0x04\n      add\n      tag_164\n      swap1\n      tag_165\n      jump\t// in\n    tag_164:\n      mload(0x40)\n      dup1\n      swap2\n      sub\n      swap1\n      revert\n    tag_163:\n        /* \"Ownable.sol\":700:730  _transferOwnership(address(0)) */\n      tag_167\n        /* \"Ownable.sol\":727:728  0 */\n      0x00\n        /* \"Ownable.sol\":700:718  _transferOwnership */\n      tag_168\n        /* \"Ownable.sol\":700:730  _transferOwnership(address(0)) */\n      jump\t// in\n    tag_167:\n        /* \"Ownable.sol\":635:738  function renounceOwnership() public virtual onlyOwner {\r... */\n      jump\t// out\n        /* \"MarketERC721.sol\":1018:1598  function addListing(uint256 price, address contractAddr, uint256 tokenId) public {\r... */\n    tag_67:\n        /* \"MarketERC721.sol\":1110:1122  ERC721 token */\n      0x00\n        /* \"MarketERC721.sol\":1132:1144  contractAddr */\n      dup3\n        /* \"MarketERC721.sol\":1110:1145  ERC721 token = ERC721(contractAddr) */\n      swap1\n      pop\n        /* \"MarketERC721.sol\":1156:1176  Listing storage item */\n      0x00\n        /* \"MarketERC721.sol\":1179:1187  listings */\n      0x01\n        /* \"MarketERC721.sol\":1179:1201  listings[contractAddr] */\n      0x00\n        /* \"MarketERC721.sol\":1188:1200  contractAddr */\n      dup6\n        /* \"MarketERC721.sol\":1179:1201  listings[contractAddr] */\n      0xffffffffffffffffffffffffffffffffffffffff\n      and\n      0xffffffffffffffffffffffffffffffffffffffff\n      and\n      dup2\n      mstore\n      0x20\n      add\n      swap1\n      dup2\n      mstore\n      0x20\n      add\n      0x00\n      keccak256\n        /* \"MarketERC721.sol\":1179:1210  listings[contractAddr][tokenId] */\n      0x00\n        /* \"MarketERC721.sol\":1202:1209  tokenId */\n      dup5\n        /* \"MarketERC721.sol\":1179:1210  listings[contractAddr][tokenId] */\n      dup2\n      mstore\n      0x20\n      add\n      swap1\n      dup2\n      mstore\n      0x20\n      add\n      0x00\n      keccak256\n        /* \"MarketERC721.sol\":1156:1210  Listing storage item = listings[contractAddr][tokenId] */\n      swap1\n      pop\n        /* \"MarketERC721.sol\":1255:1265  msg.sender */\n      caller\n        /* \"MarketERC721.sol\":1229:1265  token.ownerOf(tokenId) == msg.sender */\n      0xffffffffffffffffffffffffffffffffffffffff\n      and\n        /* \"MarketERC721.sol\":1229:1234  token */\n      dup3\n        /* \"MarketERC721.sol\":1229:1242  token.ownerOf */\n      0xffffffffffffffffffffffffffffffffffffffff\n      and\n      0x6352211e\n        /* \"MarketERC721.sol\":1243:1250  tokenId */\n      dup6\n        /* \"MarketERC721.sol\":1229:1251  token.ownerOf(tokenId) */\n      mload(0x40)\n      dup3\n      0xffffffff\n      and\n      0xe0\n      shl\n      dup2\n      mstore\n      0x04\n      add\n      tag_170\n      swap2\n      swap1\n      tag_59\n      jump\t// in\n    tag_170:\n      0x20\n      mload(0x40)\n      dup1\n      dup4\n      sub\n      dup2\n      dup7\n      dup1\n      extcodesize\n      iszero\n      dup1\n      iszero\n      tag_171\n      jumpi\n      0x00\n      dup1\n      revert\n    tag_171:\n      pop\n      gas\n      staticcall\n      iszero\n      dup1\n      iszero\n      tag_173\n      jumpi\n      returndatasize\n      0x00\n      dup1\n      returndatacopy\n      revert(0x00, returndatasize)\n    tag_173:\n      pop\n      pop\n      pop\n      pop\n      mload(0x40)\n      returndatasize\n      not(0x1f)\n      0x1f\n      dup3\n      add\n      and\n      dup3\n      add\n      dup1\n      0x40\n      mstore\n      pop\n      dup2\n      add\n      swap1\n      tag_174\n      swap2\n      swap1\n      tag_175\n      jump\t// in\n    tag_174:\n        /* \"MarketERC721.sol\":1229:1265  token.ownerOf(tokenId) == msg.sender */\n      0xffffffffffffffffffffffffffffffffffffffff\n      and\n      eq\n        /* \"MarketERC721.sol\":1221:1290  require(token.ownerOf(tokenId) == msg.sender, \"Seller has no token.\") */\n      tag_176\n      jumpi\n      mload(0x40)\n      0x08c379a000000000000000000000000000000000000000000000000000000000\n      dup2\n      mstore\n      0x04\n      add\n      tag_177\n      swap1\n      tag_178\n      jump\t// in\n    tag_177:\n      mload(0x40)\n      dup1\n      swap2\n      sub\n      swap1\n      revert\n    tag_176:\n        /* \"MarketERC721.sol\":1309:1314  token */\n      dup2\n        /* \"MarketERC721.sol\":1309:1331  token.isApprovedForAll */\n      0xffffffffffffffffffffffffffffffffffffffff\n      and\n      0xe985e9c5\n        /* \"MarketERC721.sol\":1332:1342  msg.sender */\n      caller\n        /* \"MarketERC721.sol\":1352:1356  this */\n      address\n        /* \"MarketERC721.sol\":1309:1358  token.isApprovedForAll(msg.sender, address(this)) */\n      mload(0x40)\n      dup4\n      0xffffffff\n      and\n      0xe0\n      shl\n      dup2\n      mstore\n      0x04\n      add\n      tag_179\n      swap3\n      swap2\n      swap1\n      tag_180\n      jump\t// in\n    tag_179:\n      0x20\n      mload(0x40)\n      dup1\n      dup4\n      sub\n      dup2\n      dup7\n      dup1\n      extcodesize\n      iszero\n      dup1\n      iszero\n      tag_181\n      jumpi\n      0x00\n      dup1\n      revert\n    tag_181:\n      pop\n      gas\n      staticcall\n      iszero\n      dup1\n      iszero\n      tag_183\n      jumpi\n      returndatasize\n      0x00\n      dup1\n      returndatacopy\n      revert(0x00, returndatasize)\n    tag_183:\n      pop\n      pop\n      pop\n      pop\n      mload(0x40)\n      returndatasize\n      not(0x1f)\n      0x1f\n      dup3\n      add\n      and\n      dup3\n      add\n      dup1\n      0x40\n      mstore\n      pop\n      dup2\n      add\n      swap1\n      tag_184\n      swap2\n      swap1\n      tag_122\n      jump\t// in\n    tag_184:\n        /* \"MarketERC721.sol\":1301:1389  require(token.isApprovedForAll(msg.sender, address(this)), \"Contract must be approved.\") */\n      tag_185\n      jumpi\n      mload(0x40)\n      0x08c379a000000000000000000000000000000000000000000000000000000000\n      dup2\n      mstore\n      0x04\n      add\n      tag_186\n      swap1\n      tag_187\n      jump\t// in\n    tag_186:\n      mload(0x40)\n      dup1\n      swap2\n      sub\n      swap1\n      revert\n    tag_185:\n        /* \"MarketERC721.sol\":1415:1420  price */\n      dup5\n        /* \"MarketERC721.sol\":1402:1406  item */\n      dup2\n        /* \"MarketERC721.sol\":1402:1412  item.price */\n      0x00\n      add\n        /* \"MarketERC721.sol\":1402:1420  item.price = price */\n      dup2\n      swap1\n      sstore\n      pop\n        /* \"MarketERC721.sol\":1445:1455  msg.sender */\n      caller\n        /* \"MarketERC721.sol\":1431:1435  item */\n      dup2\n        /* \"MarketERC721.sol\":1431:1442  item.seller */\n      0x01\n      add\n      0x00\n        /* \"MarketERC721.sol\":1431:1455  item.seller = msg.sender */\n      0x0100\n      exp\n      dup2\n      sload\n      dup2\n      0xffffffffffffffffffffffffffffffffffffffff\n      mul\n      not\n      and\n      swap1\n      dup4\n      0xffffffffffffffffffffffffffffffffffffffff\n      and\n      mul\n      or\n      swap1\n      sstore\n      pop\n        /* \"MarketERC721.sol\":1479:1489  msg.sender */\n      caller\n        /* \"MarketERC721.sol\":1466:1470  item */\n      dup2\n        /* \"MarketERC721.sol\":1466:1476  item.owner */\n      0x02\n      add\n      0x00\n        /* \"MarketERC721.sol\":1466:1489  item.owner = msg.sender */\n      0x0100\n      exp\n      dup2\n      sload\n      dup2\n      0xffffffffffffffffffffffffffffffffffffffff\n      mul\n      not\n      and\n      swap1\n      dup4\n      0xffffffffffffffffffffffffffffffffffffffff\n      and\n      mul\n      or\n      swap1\n      sstore\n      pop\n        /* \"MarketERC721.sol\":1517:1521  true */\n      0x01\n        /* \"MarketERC721.sol\":1500:1504  item */\n      dup2\n        /* \"MarketERC721.sol\":1500:1514  item.isListing */\n      0x02\n      add\n      0x14\n        /* \"MarketERC721.sol\":1500:1521  item.isListing = true */\n      0x0100\n      exp\n      dup2\n      sload\n      dup2\n      0xff\n      mul\n      not\n      and\n      swap1\n      dup4\n      iszero\n      iszero\n      mul\n      or\n      swap1\n      sstore\n      pop\n        /* \"MarketERC721.sol\":1575:1579  item */\n      dup1\n        /* \"MarketERC721.sol\":1575:1589  item.isListing */\n      0x02\n      add\n      0x14\n      swap1\n      sload\n      swap1\n      0x0100\n      exp\n      swap1\n      div\n      0xff\n      and\n        /* \"MarketERC721.sol\":1537:1590  List(msg.sender, tokenId, item.price, item.isListing) */\n      iszero\n      iszero\n        /* \"MarketERC721.sol\":1554:1561  tokenId */\n      dup4\n        /* \"MarketERC721.sol\":1542:1552  msg.sender */\n      caller\n        /* \"MarketERC721.sol\":1537:1590  List(msg.sender, tokenId, item.price, item.isListing) */\n      0xffffffffffffffffffffffffffffffffffffffff\n      and\n      0xa7cd299f7ebc29460ad99cf3ea75776d7cd038a63a59fa595e86441f8190ef90\n        /* \"MarketERC721.sol\":1563:1567  item */\n      dup5\n        /* \"MarketERC721.sol\":1563:1573  item.price */\n      0x00\n      add\n      sload\n        /* \"MarketERC721.sol\":1537:1590  List(msg.sender, tokenId, item.price, item.isListing) */\n      mload(0x40)\n      tag_188\n      swap2\n      swap1\n      tag_59\n      jump\t// in\n    tag_188:\n      mload(0x40)\n      dup1\n      swap2\n      sub\n      swap1\n      log4\n        /* \"MarketERC721.sol\":1099:1598  {\r... */\n      pop\n      pop\n        /* \"MarketERC721.sol\":1018:1598  function addListing(uint256 price, address contractAddr, uint256 tokenId) public {\r... */\n      pop\n      pop\n      pop\n      jump\t// out\n        /* \"MarketERC721.sol\":2129:3625  function purchase(address contractAddr, uint256 tokenId, address referer, uint256 metaverseFee, uint256 previousOwnerFee, uint256 referalFee) public payable {\r... */\n    tag_71:\n        /* \"MarketERC721.sol\":2297:2317  Listing storage item */\n      0x00\n        /* \"MarketERC721.sol\":2320:2328  listings */\n      0x01\n        /* \"MarketERC721.sol\":2320:2342  listings[contractAddr] */\n      0x00\n        /* \"MarketERC721.sol\":2329:2341  contractAddr */\n      dup9\n        /* \"MarketERC721.sol\":2320:2342  listings[contractAddr] */\n      0xffffffffffffffffffffffffffffffffffffffff\n      and\n      0xffffffffffffffffffffffffffffffffffffffff\n      and\n      dup2\n      mstore\n      0x20\n      add\n      swap1\n      dup2\n      mstore\n      0x20\n      add\n      0x00\n      keccak256\n        /* \"MarketERC721.sol\":2320:2351  listings[contractAddr][tokenId] */\n      0x00\n        /* \"MarketERC721.sol\":2343:2350  tokenId */\n      dup8\n        /* \"MarketERC721.sol\":2320:2351  listings[contractAddr][tokenId] */\n      dup2\n      mstore\n      0x20\n      add\n      swap1\n      dup2\n      mstore\n      0x20\n      add\n      0x00\n      keccak256\n        /* \"MarketERC721.sol\":2297:2351  Listing storage item = listings[contractAddr][tokenId] */\n      swap1\n      pop\n        /* \"MarketERC721.sol\":2362:2374  ERC721 token */\n      0x00\n        /* \"MarketERC721.sol\":2384:2396  contractAddr */\n      dup8\n        /* \"MarketERC721.sol\":2362:2397  ERC721 token = ERC721(contractAddr) */\n      swap1\n      pop\n        /* \"MarketERC721.sol\":2416:2420  item */\n      dup2\n        /* \"MarketERC721.sol\":2416:2430  item.isListing */\n      0x02\n      add\n      0x14\n      swap1\n      sload\n      swap1\n      0x0100\n      exp\n      swap1\n      div\n      0xff\n      and\n        /* \"MarketERC721.sol\":2408:2460  require(item.isListing, \"This NFT is not for sell.\") */\n      tag_190\n      jumpi\n      mload(0x40)\n      0x08c379a000000000000000000000000000000000000000000000000000000000\n      dup2\n      mstore\n      0x04\n      add\n      tag_191\n      swap1\n      tag_99\n      jump\t// in\n    tag_191:\n      mload(0x40)\n      dup1\n      swap2\n      sub\n      swap1\n      revert\n    tag_190:\n        /* \"MarketERC721.sol\":2493:2497  item */\n      dup2\n        /* \"MarketERC721.sol\":2493:2504  item.seller */\n      0x01\n      add\n      0x00\n      swap1\n      sload\n      swap1\n      0x0100\n      exp\n      swap1\n      div\n      0xffffffffffffffffffffffffffffffffffffffff\n      and\n        /* \"MarketERC721.sol\":2479:2504  msg.sender != item.seller */\n      0xffffffffffffffffffffffffffffffffffffffff\n      and\n        /* \"MarketERC721.sol\":2479:2489  msg.sender */\n      caller\n        /* \"MarketERC721.sol\":2479:2504  msg.sender != item.seller */\n      0xffffffffffffffffffffffffffffffffffffffff\n      and\n      eq\n      iszero\n        /* \"MarketERC721.sol\":2471:2527  require(msg.sender != item.seller, \"Buy from yourself.\") */\n      tag_192\n      jumpi\n      mload(0x40)\n      0x08c379a000000000000000000000000000000000000000000000000000000000\n      dup2\n      mstore\n      0x04\n      add\n      tag_193\n      swap1\n      tag_102\n      jump\t// in\n    tag_193:\n      mload(0x40)\n      dup1\n      swap2\n      sub\n      swap1\n      revert\n    tag_192:\n        /* \"MarketERC721.sol\":2559:2563  item */\n      dup2\n        /* \"MarketERC721.sol\":2559:2569  item.price */\n      0x00\n      add\n      sload\n        /* \"MarketERC721.sol\":2546:2555  msg.value */\n      callvalue\n        /* \"MarketERC721.sol\":2546:2569  msg.value >= item.price */\n      lt\n      iszero\n        /* \"MarketERC721.sol\":2538:2598  require(msg.value >= item.price, \"Insufficient funds sent.\") */\n      tag_194\n      jumpi\n      mload(0x40)\n      0x08c379a000000000000000000000000000000000000000000000000000000000\n      dup2\n      mstore\n      0x04\n      add\n      tag_195\n      swap1\n      tag_111\n      jump\t// in\n    tag_195:\n      mload(0x40)\n      dup1\n      swap2\n      sub\n      swap1\n      revert\n    tag_194:\n        /* \"MarketERC721.sol\":2617:2621  item */\n      dup2\n        /* \"MarketERC721.sol\":2617:2628  item.seller */\n      0x01\n      add\n      0x00\n      swap1\n      sload\n      swap1\n      0x0100\n      exp\n      swap1\n      div\n      0xffffffffffffffffffffffffffffffffffffffff\n      and\n        /* \"MarketERC721.sol\":2609:2638  payable(item.seller).transfer */\n      0xffffffffffffffffffffffffffffffffffffffff\n      and\n        /* \"MarketERC721.sol\":2609:2670  payable(item.seller).transfer(item.price - (item.price / 20)) */\n      0x08fc\n        /* \"MarketERC721.sol\":2666:2668  20 */\n      0x14\n        /* \"MarketERC721.sol\":2653:2657  item */\n      dup5\n        /* \"MarketERC721.sol\":2653:2663  item.price */\n      0x00\n      add\n      sload\n        /* \"MarketERC721.sol\":2653:2668  item.price / 20 */\n      tag_196\n      swap2\n      swap1\n      tag_113\n      jump\t// in\n    tag_196:\n        /* \"MarketERC721.sol\":2639:2643  item */\n      dup5\n        /* \"MarketERC721.sol\":2639:2649  item.price */\n      0x00\n      add\n      sload\n        /* \"MarketERC721.sol\":2639:2669  item.price - (item.price / 20) */\n      tag_197\n      swap2\n      swap1\n      tag_115\n      jump\t// in\n    tag_197:\n        /* \"MarketERC721.sol\":2609:2670  payable(item.seller).transfer(item.price - (item.price / 20)) */\n      swap1\n      dup2\n      iszero\n      mul\n      swap1\n      mload(0x40)\n      0x00\n      mload(0x40)\n      dup1\n      dup4\n      sub\n      dup2\n      dup6\n      dup9\n      dup9\n      call\n      swap4\n      pop\n      pop\n      pop\n      pop\n      iszero\n      dup1\n      iszero\n      tag_199\n      jumpi\n      returndatasize\n      0x00\n      dup1\n      returndatacopy\n      revert(0x00, returndatasize)\n    tag_199:\n      pop\n        /* \"MarketERC721.sol\":2689:2696  owner() */\n      tag_200\n        /* \"MarketERC721.sol\":2689:2694  owner */\n      tag_78\n        /* \"MarketERC721.sol\":2689:2696  owner() */\n      jump\t// in\n    tag_200:\n        /* \"MarketERC721.sol\":2681:2706  payable(owner()).transfer */\n      0xffffffffffffffffffffffffffffffffffffffff\n      and\n        /* \"MarketERC721.sol\":2681:2720  payable(owner()).transfer(metaverseFee) */\n      0x08fc\n        /* \"MarketERC721.sol\":2707:2719  metaverseFee */\n      dup7\n        /* \"MarketERC721.sol\":2681:2720  payable(owner()).transfer(metaverseFee) */\n      swap1\n      dup2\n      iszero\n      mul\n      swap1\n      mload(0x40)\n      0x00\n      mload(0x40)\n      dup1\n      dup4\n      sub\n      dup2\n      dup6\n      dup9\n      dup9\n      call\n      swap4\n      pop\n      pop\n      pop\n      pop\n      iszero\n      dup1\n      iszero\n      tag_202\n      jumpi\n      returndatasize\n      0x00\n      dup1\n      returndatacopy\n      revert(0x00, returndatasize)\n    tag_202:\n      pop\n        /* \"MarketERC721.sol\":2753:2754  0 */\n      0x00\n        /* \"MarketERC721.sol\":2734:2755  referer != address(0) */\n      0xffffffffffffffffffffffffffffffffffffffff\n      and\n        /* \"MarketERC721.sol\":2734:2741  referer */\n      dup7\n        /* \"MarketERC721.sol\":2734:2755  referer != address(0) */\n      0xffffffffffffffffffffffffffffffffffffffff\n      and\n      eq\n        /* \"MarketERC721.sol\":2731:2820  if(referer != address(0)){\r... */\n      tag_203\n      jumpi\n        /* \"MarketERC721.sol\":2779:2786  referer */\n      dup6\n        /* \"MarketERC721.sol\":2771:2796  payable(referer).transfer */\n      0xffffffffffffffffffffffffffffffffffffffff\n      and\n        /* \"MarketERC721.sol\":2771:2808  payable(referer).transfer(referalFee) */\n      0x08fc\n        /* \"MarketERC721.sol\":2797:2807  referalFee */\n      dup5\n        /* \"MarketERC721.sol\":2771:2808  payable(referer).transfer(referalFee) */\n      swap1\n      dup2\n      iszero\n      mul\n      swap1\n      mload(0x40)\n      0x00\n      mload(0x40)\n      dup1\n      dup4\n      sub\n      dup2\n      dup6\n      dup9\n      dup9\n      call\n      swap4\n      pop\n      pop\n      pop\n      pop\n      iszero\n      dup1\n      iszero\n      tag_205\n      jumpi\n      returndatasize\n      0x00\n      dup1\n      returndatacopy\n      revert(0x00, returndatasize)\n    tag_205:\n      pop\n        /* \"MarketERC721.sol\":2731:2820  if(referer != address(0)){\r... */\n    tag_203:\n        /* \"MarketERC721.sol\":2835:2841  uint i */\n      0x00\n        /* \"MarketERC721.sol\":2830:3107  for (uint i = 0; i < 5; i++) {\r... */\n    tag_206:\n        /* \"MarketERC721.sol\":2851:2852  5 */\n      0x05\n        /* \"MarketERC721.sol\":2847:2848  i */\n      dup2\n        /* \"MarketERC721.sol\":2847:2852  i < 5 */\n      lt\n        /* \"MarketERC721.sol\":2830:3107  for (uint i = 0; i < 5; i++) {\r... */\n      iszero\n      tag_207\n      jumpi\n        /* \"MarketERC721.sol\":2916:2917  0 */\n      0x00\n        /* \"MarketERC721.sol\":2882:2918  item.previousOwners[i] != address(0) */\n      0xffffffffffffffffffffffffffffffffffffffff\n      and\n        /* \"MarketERC721.sol\":2882:2886  item */\n      dup4\n        /* \"MarketERC721.sol\":2882:2901  item.previousOwners */\n      0x04\n      add\n        /* \"MarketERC721.sol\":2882:2904  item.previousOwners[i] */\n      0x00\n        /* \"MarketERC721.sol\":2902:2903  i */\n      dup4\n        /* \"MarketERC721.sol\":2882:2904  item.previousOwners[i] */\n      dup2\n      mstore\n      0x20\n      add\n      swap1\n      dup2\n      mstore\n      0x20\n      add\n      0x00\n      keccak256\n      0x00\n      swap1\n      sload\n      swap1\n      0x0100\n      exp\n      swap1\n      div\n      0xffffffffffffffffffffffffffffffffffffffff\n      and\n        /* \"MarketERC721.sol\":2882:2918  item.previousOwners[i] != address(0) */\n      0xffffffffffffffffffffffffffffffffffffffff\n      and\n      eq\n        /* \"MarketERC721.sol\":2878:3092  if (item.previousOwners[i] != address(0)) {\r... */\n      tag_209\n      jumpi\n        /* \"MarketERC721.sol\":2951:2955  item */\n      dup3\n        /* \"MarketERC721.sol\":2951:2970  item.previousOwners */\n      0x04\n      add\n        /* \"MarketERC721.sol\":2951:2973  item.previousOwners[i] */\n      0x00\n        /* \"MarketERC721.sol\":2971:2972  i */\n      dup3\n        /* \"MarketERC721.sol\":2951:2973  item.previousOwners[i] */\n      dup2\n      mstore\n      0x20\n      add\n      swap1\n      dup2\n      mstore\n      0x20\n      add\n      0x00\n      keccak256\n      0x00\n      swap1\n      sload\n      swap1\n      0x0100\n      exp\n      swap1\n      div\n      0xffffffffffffffffffffffffffffffffffffffff\n      and\n        /* \"MarketERC721.sol\":2943:2983  payable(item.previousOwners[i]).transfer */\n      0xffffffffffffffffffffffffffffffffffffffff\n      and\n        /* \"MarketERC721.sol\":2943:3001  payable(item.previousOwners[i]).transfer(previousOwnerFee) */\n      0x08fc\n        /* \"MarketERC721.sol\":2984:3000  previousOwnerFee */\n      dup7\n        /* \"MarketERC721.sol\":2943:3001  payable(item.previousOwners[i]).transfer(previousOwnerFee) */\n      swap1\n      dup2\n      iszero\n      mul\n      swap1\n      mload(0x40)\n      0x00\n      mload(0x40)\n      dup1\n      dup4\n      sub\n      dup2\n      dup6\n      dup9\n      dup9\n      call\n      swap4\n      pop\n      pop\n      pop\n      pop\n      iszero\n      dup1\n      iszero\n      tag_211\n      jumpi\n      returndatasize\n      0x00\n      dup1\n      returndatacopy\n      revert(0x00, returndatasize)\n    tag_211:\n      pop\n        /* \"MarketERC721.sol\":2878:3092  if (item.previousOwners[i] != address(0)) {\r... */\n      jump(tag_212)\n    tag_209:\n        /* \"MarketERC721.sol\":3067:3072  break */\n      jump(tag_207)\n        /* \"MarketERC721.sol\":2878:3092  if (item.previousOwners[i] != address(0)) {\r... */\n    tag_212:\n        /* \"MarketERC721.sol\":2854:2857  i++ */\n      dup1\n      dup1\n      tag_213\n      swap1\n      tag_146\n      jump\t// in\n    tag_213:\n      swap2\n      pop\n      pop\n        /* \"MarketERC721.sol\":2830:3107  for (uint i = 0; i < 5; i++) {\r... */\n      jump(tag_206)\n    tag_207:\n      pop\n        /* \"MarketERC721.sol\":3119:3124  token */\n      dup1\n        /* \"MarketERC721.sol\":3119:3141  token.safeTransferFrom */\n      0xffffffffffffffffffffffffffffffffffffffff\n      and\n      0xb88d4fde\n        /* \"MarketERC721.sol\":3142:3146  item */\n      dup4\n        /* \"MarketERC721.sol\":3142:3153  item.seller */\n      0x01\n      add\n      0x00\n      swap1\n      sload\n      swap1\n      0x0100\n      exp\n      swap1\n      div\n      0xffffffffffffffffffffffffffffffffffffffff\n      and\n        /* \"MarketERC721.sol\":3155:3165  msg.sender */\n      caller\n        /* \"MarketERC721.sol\":3167:3174  tokenId */\n      dup11\n        /* \"MarketERC721.sol\":3119:3179  token.safeTransferFrom(item.seller, msg.sender, tokenId, \"\") */\n      mload(0x40)\n      dup5\n      0xffffffff\n      and\n      0xe0\n      shl\n      dup2\n      mstore\n      0x04\n      add\n      tag_214\n      swap4\n      swap3\n      swap2\n      swap1\n      tag_148\n      jump\t// in\n    tag_214:\n      0x00\n      mload(0x40)\n      dup1\n      dup4\n      sub\n      dup2\n      0x00\n      dup8\n      dup1\n      extcodesize\n      iszero\n      dup1\n      iszero\n      tag_215\n      jumpi\n      0x00\n      dup1\n      revert\n    tag_215:\n      pop\n      gas\n      call\n      iszero\n      dup1\n      iszero\n      tag_217\n      jumpi\n      returndatasize\n      0x00\n      dup1\n      returndatacopy\n      revert(0x00, returndatasize)\n    tag_217:\n      pop\n      pop\n      pop\n      pop\n        /* \"MarketERC721.sol\":3203:3213  msg.sender */\n      caller\n        /* \"MarketERC721.sol\":3190:3194  item */\n      dup3\n        /* \"MarketERC721.sol\":3190:3200  item.owner */\n      0x02\n      add\n      0x00\n        /* \"MarketERC721.sol\":3190:3213  item.owner = msg.sender */\n      0x0100\n      exp\n      dup2\n      sload\n      dup2\n      0xffffffffffffffffffffffffffffffffffffffff\n      mul\n      not\n      and\n      swap1\n      dup4\n      0xffffffffffffffffffffffffffffffffffffffff\n      and\n      mul\n      or\n      swap1\n      sstore\n      pop\n        /* \"MarketERC721.sol\":3273:3274  3 */\n      0x03\n        /* \"MarketERC721.sol\":3227:3235  listings */\n      0x01\n        /* \"MarketERC721.sol\":3227:3249  listings[contractAddr] */\n      0x00\n        /* \"MarketERC721.sol\":3236:3248  contractAddr */\n      dup11\n        /* \"MarketERC721.sol\":3227:3249  listings[contractAddr] */\n      0xffffffffffffffffffffffffffffffffffffffff\n      and\n      0xffffffffffffffffffffffffffffffffffffffff\n      and\n      dup2\n      mstore\n      0x20\n      add\n      swap1\n      dup2\n      mstore\n      0x20\n      add\n      0x00\n      keccak256\n        /* \"MarketERC721.sol\":3227:3258  listings[contractAddr][tokenId] */\n      0x00\n        /* \"MarketERC721.sol\":3250:3257  tokenId */\n      dup10\n        /* \"MarketERC721.sol\":3227:3258  listings[contractAddr][tokenId] */\n      dup2\n      mstore\n      0x20\n      add\n      swap1\n      dup2\n      mstore\n      0x20\n      add\n      0x00\n      keccak256\n        /* \"MarketERC721.sol\":3227:3269  listings[contractAddr][tokenId].ownerCount */\n      0x03\n      add\n      sload\n        /* \"MarketERC721.sol\":3227:3274  listings[contractAddr][tokenId].ownerCount <= 3 */\n      gt\n        /* \"MarketERC721.sol\":3224:3514  if(listings[contractAddr][tokenId].ownerCount <= 3) {\r... */\n      tag_218\n      jumpi\n        /* \"MarketERC721.sol\":3330:3334  item */\n      dup2\n        /* \"MarketERC721.sol\":3330:3341  item.seller */\n      0x01\n      add\n      0x00\n      swap1\n      sload\n      swap1\n      0x0100\n      exp\n      swap1\n      div\n      0xffffffffffffffffffffffffffffffffffffffff\n      and\n        /* \"MarketERC721.sol\":3291:3295  item */\n      dup3\n        /* \"MarketERC721.sol\":3291:3310  item.previousOwners */\n      0x04\n      add\n        /* \"MarketERC721.sol\":3291:3327  item.previousOwners[item.ownerCount] */\n      0x00\n        /* \"MarketERC721.sol\":3311:3315  item */\n      dup5\n        /* \"MarketERC721.sol\":3311:3326  item.ownerCount */\n      0x03\n      add\n      sload\n        /* \"MarketERC721.sol\":3291:3327  item.previousOwners[item.ownerCount] */\n      dup2\n      mstore\n      0x20\n      add\n      swap1\n      dup2\n      mstore\n      0x20\n      add\n      0x00\n      keccak256\n      0x00\n        /* \"MarketERC721.sol\":3291:3341  item.previousOwners[item.ownerCount] = item.seller */\n      0x0100\n      exp\n      dup2\n      sload\n      dup2\n      0xffffffffffffffffffffffffffffffffffffffff\n      mul\n      not\n      and\n      swap1\n      dup4\n      0xffffffffffffffffffffffffffffffffffffffff\n      and\n      mul\n      or\n      swap1\n      sstore\n      pop\n        /* \"MarketERC721.sol\":3375:3376  1 */\n      0x01\n        /* \"MarketERC721.sol\":3356:3360  item */\n      dup3\n        /* \"MarketERC721.sol\":3356:3371  item.ownerCount */\n      0x03\n      add\n      0x00\n        /* \"MarketERC721.sol\":3356:3376  item.ownerCount += 1 */\n      dup3\n      dup3\n      sload\n      tag_219\n      swap2\n      swap1\n      tag_154\n      jump\t// in\n    tag_219:\n      swap3\n      pop\n      pop\n      dup2\n      swap1\n      sstore\n      pop\n        /* \"MarketERC721.sol\":3224:3514  if(listings[contractAddr][tokenId].ownerCount <= 3) {\r... */\n      jump(tag_220)\n    tag_218:\n        /* \"MarketERC721.sol\":3457:3461  item */\n      dup2\n        /* \"MarketERC721.sol\":3457:3468  item.seller */\n      0x01\n      add\n      0x00\n      swap1\n      sload\n      swap1\n      0x0100\n      exp\n      swap1\n      div\n      0xffffffffffffffffffffffffffffffffffffffff\n      and\n        /* \"MarketERC721.sol\":3418:3422  item */\n      dup3\n        /* \"MarketERC721.sol\":3418:3437  item.previousOwners */\n      0x04\n      add\n        /* \"MarketERC721.sol\":3418:3454  item.previousOwners[item.ownerCount] */\n      0x00\n        /* \"MarketERC721.sol\":3438:3442  item */\n      dup5\n        /* \"MarketERC721.sol\":3438:3453  item.ownerCount */\n      0x03\n      add\n      sload\n        /* \"MarketERC721.sol\":3418:3454  item.previousOwners[item.ownerCount] */\n      dup2\n      mstore\n      0x20\n      add\n      swap1\n      dup2\n      mstore\n      0x20\n      add\n      0x00\n      keccak256\n      0x00\n        /* \"MarketERC721.sol\":3418:3468  item.previousOwners[item.ownerCount] = item.seller */\n      0x0100\n      exp\n      dup2\n      sload\n      dup2\n      0xffffffffffffffffffffffffffffffffffffffff\n      mul\n      not\n      and\n      swap1\n      dup4\n      0xffffffffffffffffffffffffffffffffffffffff\n      and\n      mul\n      or\n      swap1\n      sstore\n      pop\n        /* \"MarketERC721.sol\":3501:3502  0 */\n      0x00\n        /* \"MarketERC721.sol\":3483:3487  item */\n      dup3\n        /* \"MarketERC721.sol\":3483:3498  item.ownerCount */\n      0x03\n      add\n        /* \"MarketERC721.sol\":3483:3502  item.ownerCount = 0 */\n      dup2\n      swap1\n      sstore\n      pop\n        /* \"MarketERC721.sol\":3224:3514  if(listings[contractAddr][tokenId].ownerCount <= 3) {\r... */\n    tag_220:\n        /* \"MarketERC721.sol\":3543:3548  false */\n      0x00\n        /* \"MarketERC721.sol\":3526:3530  item */\n      dup3\n        /* \"MarketERC721.sol\":3526:3540  item.isListing */\n      0x02\n      add\n      0x14\n        /* \"MarketERC721.sol\":3526:3548  item.isListing = false */\n      0x0100\n      exp\n      dup2\n      sload\n      dup2\n      0xff\n      mul\n      not\n      and\n      swap1\n      dup4\n      iszero\n      iszero\n      mul\n      or\n      swap1\n      sstore\n      pop\n        /* \"MarketERC721.sol\":3602:3606  item */\n      dup2\n        /* \"MarketERC721.sol\":3602:3616  item.isListing */\n      0x02\n      add\n      0x14\n      swap1\n      sload\n      swap1\n      0x0100\n      exp\n      swap1\n      div\n      0xff\n      and\n        /* \"MarketERC721.sol\":3564:3617  List(msg.sender, tokenId, item.price, item.isListing) */\n      iszero\n      iszero\n        /* \"MarketERC721.sol\":3581:3588  tokenId */\n      dup8\n        /* \"MarketERC721.sol\":3569:3579  msg.sender */\n      caller\n        /* \"MarketERC721.sol\":3564:3617  List(msg.sender, tokenId, item.price, item.isListing) */\n      0xffffffffffffffffffffffffffffffffffffffff\n      and\n      0xa7cd299f7ebc29460ad99cf3ea75776d7cd038a63a59fa595e86441f8190ef90\n        /* \"MarketERC721.sol\":3590:3594  item */\n      dup6\n        /* \"MarketERC721.sol\":3590:3600  item.price */\n      0x00\n      add\n      sload\n        /* \"MarketERC721.sol\":3564:3617  List(msg.sender, tokenId, item.price, item.isListing) */\n      mload(0x40)\n      tag_221\n      swap2\n      swap1\n      tag_59\n      jump\t// in\n    tag_221:\n      mload(0x40)\n      dup1\n      swap2\n      sub\n      swap1\n      log4\n        /* \"MarketERC721.sol\":2286:3625  {\r... */\n      pop\n      pop\n        /* \"MarketERC721.sol\":2129:3625  function purchase(address contractAddr, uint256 tokenId, address referer, uint256 metaverseFee, uint256 previousOwnerFee, uint256 referalFee) public payable {\r... */\n      pop\n      pop\n      pop\n      pop\n      pop\n      pop\n      jump\t// out\n        /* \"MarketERC721.sol\":3633:5325  function purchaseBatch(address contractAddr, uint256[] calldata tokenId, address referer, uint256 metaverseFee, uint256[] calldata previousOwnerFee, uint256 referalFee) public payable {\r... */\n    tag_75:\n        /* \"MarketERC721.sol\":3833:3839  uint j */\n      0x00\n        /* \"MarketERC721.sol\":3828:5318  for (uint j = 0; j < tokenId.length; j++) {\r... */\n    tag_223:\n        /* \"MarketERC721.sol\":3849:3856  tokenId */\n      dup8\n      dup8\n        /* \"MarketERC721.sol\":3849:3863  tokenId.length */\n      swap1\n      pop\n        /* \"MarketERC721.sol\":3845:3846  j */\n      dup2\n        /* \"MarketERC721.sol\":3845:3863  j < tokenId.length */\n      lt\n        /* \"MarketERC721.sol\":3828:5318  for (uint j = 0; j < tokenId.length; j++) {\r... */\n      iszero\n      tag_224\n      jumpi\n        /* \"MarketERC721.sol\":3885:3905  Listing storage item */\n      0x00\n        /* \"MarketERC721.sol\":3908:3916  listings */\n      0x01\n        /* \"MarketERC721.sol\":3908:3930  listings[contractAddr] */\n      0x00\n        /* \"MarketERC721.sol\":3917:3929  contractAddr */\n      dup12\n        /* \"MarketERC721.sol\":3908:3930  listings[contractAddr] */\n      0xffffffffffffffffffffffffffffffffffffffff\n      and\n      0xffffffffffffffffffffffffffffffffffffffff\n      and\n      dup2\n      mstore\n      0x20\n      add\n      swap1\n      dup2\n      mstore\n      0x20\n      add\n      0x00\n      keccak256\n        /* \"MarketERC721.sol\":3908:3942  listings[contractAddr][tokenId[j]] */\n      0x00\n        /* \"MarketERC721.sol\":3931:3938  tokenId */\n      dup11\n      dup11\n        /* \"MarketERC721.sol\":3939:3940  j */\n      dup6\n        /* \"MarketERC721.sol\":3931:3941  tokenId[j] */\n      dup2\n      dup2\n      lt\n      tag_226\n      jumpi\n      tag_227\n      tag_228\n      jump\t// in\n    tag_227:\n    tag_226:\n      swap1\n      pop\n      0x20\n      mul\n      add\n      calldataload\n        /* \"MarketERC721.sol\":3908:3942  listings[contractAddr][tokenId[j]] */\n      dup2\n      mstore\n      0x20\n      add\n      swap1\n      dup2\n      mstore\n      0x20\n      add\n      0x00\n      keccak256\n        /* \"MarketERC721.sol\":3885:3942  Listing storage item = listings[contractAddr][tokenId[j]] */\n      swap1\n      pop\n        /* \"MarketERC721.sol\":3957:3969  ERC721 token */\n      0x00\n        /* \"MarketERC721.sol\":3979:3991  contractAddr */\n      dup11\n        /* \"MarketERC721.sol\":3957:3992  ERC721 token = ERC721(contractAddr) */\n      swap1\n      pop\n        /* \"MarketERC721.sol\":4015:4019  item */\n      dup2\n        /* \"MarketERC721.sol\":4015:4029  item.isListing */\n      0x02\n      add\n      0x14\n      swap1\n      sload\n      swap1\n      0x0100\n      exp\n      swap1\n      div\n      0xff\n      and\n        /* \"MarketERC721.sol\":4007:4059  require(item.isListing, \"This NFT is not for sell.\") */\n      tag_229\n      jumpi\n      mload(0x40)\n      0x08c379a000000000000000000000000000000000000000000000000000000000\n      dup2\n      mstore\n      0x04\n      add\n      tag_230\n      swap1\n      tag_99\n      jump\t// in\n    tag_230:\n      mload(0x40)\n      dup1\n      swap2\n      sub\n      swap1\n      revert\n    tag_229:\n        /* \"MarketERC721.sol\":4096:4100  item */\n      dup2\n        /* \"MarketERC721.sol\":4096:4107  item.seller */\n      0x01\n      add\n      0x00\n      swap1\n      sload\n      swap1\n      0x0100\n      exp\n      swap1\n      div\n      0xffffffffffffffffffffffffffffffffffffffff\n      and\n        /* \"MarketERC721.sol\":4082:4107  msg.sender != item.seller */\n      0xffffffffffffffffffffffffffffffffffffffff\n      and\n        /* \"MarketERC721.sol\":4082:4092  msg.sender */\n      caller\n        /* \"MarketERC721.sol\":4082:4107  msg.sender != item.seller */\n      0xffffffffffffffffffffffffffffffffffffffff\n      and\n      eq\n      iszero\n        /* \"MarketERC721.sol\":4074:4130  require(msg.sender != item.seller, \"Buy from yourself.\") */\n      tag_231\n      jumpi\n      mload(0x40)\n      0x08c379a000000000000000000000000000000000000000000000000000000000\n      dup2\n      mstore\n      0x04\n      add\n      tag_232\n      swap1\n      tag_102\n      jump\t// in\n    tag_232:\n      mload(0x40)\n      dup1\n      swap2\n      sub\n      swap1\n      revert\n    tag_231:\n        /* \"MarketERC721.sol\":4166:4170  item */\n      dup2\n        /* \"MarketERC721.sol\":4166:4176  item.price */\n      0x00\n      add\n      sload\n        /* \"MarketERC721.sol\":4153:4162  msg.value */\n      callvalue\n        /* \"MarketERC721.sol\":4153:4176  msg.value >= item.price */\n      lt\n      iszero\n        /* \"MarketERC721.sol\":4145:4205  require(msg.value >= item.price, \"Insufficient funds sent.\") */\n      tag_233\n      jumpi\n      mload(0x40)\n      0x08c379a000000000000000000000000000000000000000000000000000000000\n      dup2\n      mstore\n      0x04\n      add\n      tag_234\n      swap1\n      tag_111\n      jump\t// in\n    tag_234:\n      mload(0x40)\n      dup1\n      swap2\n      sub\n      swap1\n      revert\n    tag_233:\n        /* \"MarketERC721.sol\":4228:4232  item */\n      dup2\n        /* \"MarketERC721.sol\":4228:4239  item.seller */\n      0x01\n      add\n      0x00\n      swap1\n      sload\n      swap1\n      0x0100\n      exp\n      swap1\n      div\n      0xffffffffffffffffffffffffffffffffffffffff\n      and\n        /* \"MarketERC721.sol\":4220:4249  payable(item.seller).transfer */\n      0xffffffffffffffffffffffffffffffffffffffff\n      and\n        /* \"MarketERC721.sol\":4220:4281  payable(item.seller).transfer(item.price - (item.price / 20)) */\n      0x08fc\n        /* \"MarketERC721.sol\":4277:4279  20 */\n      0x14\n        /* \"MarketERC721.sol\":4264:4268  item */\n      dup5\n        /* \"MarketERC721.sol\":4264:4274  item.price */\n      0x00\n      add\n      sload\n        /* \"MarketERC721.sol\":4264:4279  item.price / 20 */\n      tag_235\n      swap2\n      swap1\n      tag_113\n      jump\t// in\n    tag_235:\n        /* \"MarketERC721.sol\":4250:4254  item */\n      dup5\n        /* \"MarketERC721.sol\":4250:4260  item.price */\n      0x00\n      add\n      sload\n        /* \"MarketERC721.sol\":4250:4280  item.price - (item.price / 20) */\n      tag_236\n      swap2\n      swap1\n      tag_115\n      jump\t// in\n    tag_236:\n        /* \"MarketERC721.sol\":4220:4281  payable(item.seller).transfer(item.price - (item.price / 20)) */\n      swap1\n      dup2\n      iszero\n      mul\n      swap1\n      mload(0x40)\n      0x00\n      mload(0x40)\n      dup1\n      dup4\n      sub\n      dup2\n      dup6\n      dup9\n      dup9\n      call\n      swap4\n      pop\n      pop\n      pop\n      pop\n      iszero\n      dup1\n      iszero\n      tag_238\n      jumpi\n      returndatasize\n      0x00\n      dup1\n      returndatacopy\n      revert(0x00, returndatasize)\n    tag_238:\n      pop\n        /* \"MarketERC721.sol\":4304:4311  owner() */\n      tag_239\n        /* \"MarketERC721.sol\":4304:4309  owner */\n      tag_78\n        /* \"MarketERC721.sol\":4304:4311  owner() */\n      jump\t// in\n    tag_239:\n        /* \"MarketERC721.sol\":4296:4321  payable(owner()).transfer */\n      0xffffffffffffffffffffffffffffffffffffffff\n      and\n        /* \"MarketERC721.sol\":4296:4335  payable(owner()).transfer(metaverseFee) */\n      0x08fc\n        /* \"MarketERC721.sol\":4322:4334  metaverseFee */\n      dup9\n        /* \"MarketERC721.sol\":4296:4335  payable(owner()).transfer(metaverseFee) */\n      swap1\n      dup2\n      iszero\n      mul\n      swap1\n      mload(0x40)\n      0x00\n      mload(0x40)\n      dup1\n      dup4\n      sub\n      dup2\n      dup6\n      dup9\n      dup9\n      call\n      swap4\n      pop\n      pop\n      pop\n      pop\n      iszero\n      dup1\n      iszero\n      tag_241\n      jumpi\n      returndatasize\n      0x00\n      dup1\n      returndatacopy\n      revert(0x00, returndatasize)\n    tag_241:\n      pop\n        /* \"MarketERC721.sol\":4372:4373  0 */\n      0x00\n        /* \"MarketERC721.sol\":4353:4374  referer != address(0) */\n      0xffffffffffffffffffffffffffffffffffffffff\n      and\n        /* \"MarketERC721.sol\":4353:4360  referer */\n      dup9\n        /* \"MarketERC721.sol\":4353:4374  referer != address(0) */\n      0xffffffffffffffffffffffffffffffffffffffff\n      and\n      eq\n        /* \"MarketERC721.sol\":4350:4447  if(referer != address(0)){\r... */\n      tag_242\n      jumpi\n        /* \"MarketERC721.sol\":4402:4409  referer */\n      dup8\n        /* \"MarketERC721.sol\":4394:4419  payable(referer).transfer */\n      0xffffffffffffffffffffffffffffffffffffffff\n      and\n        /* \"MarketERC721.sol\":4394:4431  payable(referer).transfer(referalFee) */\n      0x08fc\n        /* \"MarketERC721.sol\":4420:4430  referalFee */\n      dup6\n        /* \"MarketERC721.sol\":4394:4431  payable(referer).transfer(referalFee) */\n      swap1\n      dup2\n      iszero\n      mul\n      swap1\n      mload(0x40)\n      0x00\n      mload(0x40)\n      dup1\n      dup4\n      sub\n      dup2\n      dup6\n      dup9\n      dup9\n      call\n      swap4\n      pop\n      pop\n      pop\n      pop\n      iszero\n      dup1\n      iszero\n      tag_244\n      jumpi\n      returndatasize\n      0x00\n      dup1\n      returndatacopy\n      revert(0x00, returndatasize)\n    tag_244:\n      pop\n        /* \"MarketERC721.sol\":4350:4447  if(referer != address(0)){\r... */\n    tag_242:\n        /* \"MarketERC721.sol\":4466:4472  uint i */\n      0x00\n        /* \"MarketERC721.sol\":4461:4769  for (uint i = 0; i < 5; i++) {\r... */\n    tag_245:\n        /* \"MarketERC721.sol\":4482:4483  5 */\n      0x05\n        /* \"MarketERC721.sol\":4478:4479  i */\n      dup2\n        /* \"MarketERC721.sol\":4478:4483  i < 5 */\n      lt\n        /* \"MarketERC721.sol\":4461:4769  for (uint i = 0; i < 5; i++) {\r... */\n      iszero\n      tag_246\n      jumpi\n        /* \"MarketERC721.sol\":4551:4552  0 */\n      0x00\n        /* \"MarketERC721.sol\":4517:4553  item.previousOwners[i] != address(0) */\n      0xffffffffffffffffffffffffffffffffffffffff\n      and\n        /* \"MarketERC721.sol\":4517:4521  item */\n      dup4\n        /* \"MarketERC721.sol\":4517:4536  item.previousOwners */\n      0x04\n      add\n        /* \"MarketERC721.sol\":4517:4539  item.previousOwners[i] */\n      0x00\n        /* \"MarketERC721.sol\":4537:4538  i */\n      dup4\n        /* \"MarketERC721.sol\":4517:4539  item.previousOwners[i] */\n      dup2\n      mstore\n      0x20\n      add\n      swap1\n      dup2\n      mstore\n      0x20\n      add\n      0x00\n      keccak256\n      0x00\n      swap1\n      sload\n      swap1\n      0x0100\n      exp\n      swap1\n      div\n      0xffffffffffffffffffffffffffffffffffffffff\n      and\n        /* \"MarketERC721.sol\":4517:4553  item.previousOwners[i] != address(0) */\n      0xffffffffffffffffffffffffffffffffffffffff\n      and\n      eq\n        /* \"MarketERC721.sol\":4513:4750  if (item.previousOwners[i] != address(0)) {\r... */\n      tag_248\n      jumpi\n        /* \"MarketERC721.sol\":4590:4594  item */\n      dup3\n        /* \"MarketERC721.sol\":4590:4609  item.previousOwners */\n      0x04\n      add\n        /* \"MarketERC721.sol\":4590:4612  item.previousOwners[i] */\n      0x00\n        /* \"MarketERC721.sol\":4610:4611  i */\n      dup3\n        /* \"MarketERC721.sol\":4590:4612  item.previousOwners[i] */\n      dup2\n      mstore\n      0x20\n      add\n      swap1\n      dup2\n      mstore\n      0x20\n      add\n      0x00\n      keccak256\n      0x00\n      swap1\n      sload\n      swap1\n      0x0100\n      exp\n      swap1\n      div\n      0xffffffffffffffffffffffffffffffffffffffff\n      and\n        /* \"MarketERC721.sol\":4582:4622  payable(item.previousOwners[i]).transfer */\n      0xffffffffffffffffffffffffffffffffffffffff\n      and\n        /* \"MarketERC721.sol\":4582:4643  payable(item.previousOwners[i]).transfer(previousOwnerFee[j]) */\n      0x08fc\n        /* \"MarketERC721.sol\":4623:4639  previousOwnerFee */\n      dup9\n      dup9\n        /* \"MarketERC721.sol\":4640:4641  j */\n      dup8\n        /* \"MarketERC721.sol\":4623:4642  previousOwnerFee[j] */\n      dup2\n      dup2\n      lt\n      tag_249\n      jumpi\n      tag_250\n      tag_228\n      jump\t// in\n    tag_250:\n    tag_249:\n      swap1\n      pop\n      0x20\n      mul\n      add\n      calldataload\n        /* \"MarketERC721.sol\":4582:4643  payable(item.previousOwners[i]).transfer(previousOwnerFee[j]) */\n      swap1\n      dup2\n      iszero\n      mul\n      swap1\n      mload(0x40)\n      0x00\n      mload(0x40)\n      dup1\n      dup4\n      sub\n      dup2\n      dup6\n      dup9\n      dup9\n      call\n      swap4\n      pop\n      pop\n      pop\n      pop\n      iszero\n      dup1\n      iszero\n      tag_252\n      jumpi\n      returndatasize\n      0x00\n      dup1\n      returndatacopy\n      revert(0x00, returndatasize)\n    tag_252:\n      pop\n        /* \"MarketERC721.sol\":4513:4750  if (item.previousOwners[i] != address(0)) {\r... */\n      jump(tag_253)\n    tag_248:\n        /* \"MarketERC721.sol\":4721:4726  break */\n      jump(tag_246)\n        /* \"MarketERC721.sol\":4513:4750  if (item.previousOwners[i] != address(0)) {\r... */\n    tag_253:\n        /* \"MarketERC721.sol\":4485:4488  i++ */\n      dup1\n      dup1\n      tag_254\n      swap1\n      tag_146\n      jump\t// in\n    tag_254:\n      swap2\n      pop\n      pop\n        /* \"MarketERC721.sol\":4461:4769  for (uint i = 0; i < 5; i++) {\r... */\n      jump(tag_245)\n    tag_246:\n      pop\n        /* \"MarketERC721.sol\":4785:4790  token */\n      dup1\n        /* \"MarketERC721.sol\":4785:4807  token.safeTransferFrom */\n      0xffffffffffffffffffffffffffffffffffffffff\n      and\n      0xb88d4fde\n        /* \"MarketERC721.sol\":4808:4812  item */\n      dup4\n        /* \"MarketERC721.sol\":4808:4819  item.seller */\n      0x01\n      add\n      0x00\n      swap1\n      sload\n      swap1\n      0x0100\n      exp\n      swap1\n      div\n      0xffffffffffffffffffffffffffffffffffffffff\n      and\n        /* \"MarketERC721.sol\":4821:4831  msg.sender */\n      caller\n        /* \"MarketERC721.sol\":4833:4840  tokenId */\n      dup14\n      dup14\n        /* \"MarketERC721.sol\":4841:4842  j */\n      dup9\n        /* \"MarketERC721.sol\":4833:4843  tokenId[j] */\n      dup2\n      dup2\n      lt\n      tag_255\n      jumpi\n      tag_256\n      tag_228\n      jump\t// in\n    tag_256:\n    tag_255:\n      swap1\n      pop\n      0x20\n      mul\n      add\n      calldataload\n        /* \"MarketERC721.sol\":4785:4848  token.safeTransferFrom(item.seller, msg.sender, tokenId[j], \"\") */\n      mload(0x40)\n      dup5\n      0xffffffff\n      and\n      0xe0\n      shl\n      dup2\n      mstore\n      0x04\n      add\n      tag_257\n      swap4\n      swap3\n      swap2\n      swap1\n      tag_148\n      jump\t// in\n    tag_257:\n      0x00\n      mload(0x40)\n      dup1\n      dup4\n      sub\n      dup2\n      0x00\n      dup8\n      dup1\n      extcodesize\n      iszero\n      dup1\n      iszero\n      tag_258\n      jumpi\n      0x00\n      dup1\n      revert\n    tag_258:\n      pop\n      gas\n      call\n      iszero\n      dup1\n      iszero\n      tag_260\n      jumpi\n      returndatasize\n      0x00\n      dup1\n      returndatacopy\n      revert(0x00, returndatasize)\n    tag_260:\n      pop\n      pop\n      pop\n      pop\n        /* \"MarketERC721.sol\":4876:4886  msg.sender */\n      caller\n        /* \"MarketERC721.sol\":4863:4867  item */\n      dup3\n        /* \"MarketERC721.sol\":4863:4873  item.owner */\n      0x02\n      add\n      0x00\n        /* \"MarketERC721.sol\":4863:4886  item.owner = msg.sender */\n      0x0100\n      exp\n      dup2\n      sload\n      dup2\n      0xffffffffffffffffffffffffffffffffffffffff\n      mul\n      not\n      and\n      swap1\n      dup4\n      0xffffffffffffffffffffffffffffffffffffffff\n      and\n      mul\n      or\n      swap1\n      sstore\n      pop\n        /* \"MarketERC721.sol\":4923:4924  3 */\n      0x03\n        /* \"MarketERC721.sol\":4904:4908  item */\n      dup3\n        /* \"MarketERC721.sol\":4904:4919  item.ownerCount */\n      0x03\n      add\n      sload\n        /* \"MarketERC721.sol\":4904:4924  item.ownerCount <= 3 */\n      gt\n        /* \"MarketERC721.sol\":4901:5192  if(item.ownerCount <= 3) {\r... */\n      tag_261\n      jumpi\n        /* \"MarketERC721.sol\":4984:4988  item */\n      dup2\n        /* \"MarketERC721.sol\":4984:4995  item.seller */\n      0x01\n      add\n      0x00\n      swap1\n      sload\n      swap1\n      0x0100\n      exp\n      swap1\n      div\n      0xffffffffffffffffffffffffffffffffffffffff\n      and\n        /* \"MarketERC721.sol\":4945:4949  item */\n      dup3\n        /* \"MarketERC721.sol\":4945:4964  item.previousOwners */\n      0x04\n      add\n        /* \"MarketERC721.sol\":4945:4981  item.previousOwners[item.ownerCount] */\n      0x00\n        /* \"MarketERC721.sol\":4965:4969  item */\n      dup5\n        /* \"MarketERC721.sol\":4965:4980  item.ownerCount */\n      0x03\n      add\n      sload\n        /* \"MarketERC721.sol\":4945:4981  item.previousOwners[item.ownerCount] */\n      dup2\n      mstore\n      0x20\n      add\n      swap1\n      dup2\n      mstore\n      0x20\n      add\n      0x00\n      keccak256\n      0x00\n        /* \"MarketERC721.sol\":4945:4995  item.previousOwners[item.ownerCount] = item.seller */\n      0x0100\n      exp\n      dup2\n      sload\n      dup2\n      0xffffffffffffffffffffffffffffffffffffffff\n      mul\n      not\n      and\n      swap1\n      dup4\n      0xffffffffffffffffffffffffffffffffffffffff\n      and\n      mul\n      or\n      swap1\n      sstore\n      pop\n        /* \"MarketERC721.sol\":5033:5034  1 */\n      0x01\n        /* \"MarketERC721.sol\":5014:5018  item */\n      dup3\n        /* \"MarketERC721.sol\":5014:5029  item.ownerCount */\n      0x03\n      add\n      0x00\n        /* \"MarketERC721.sol\":5014:5034  item.ownerCount += 1 */\n      dup3\n      dup3\n      sload\n      tag_262\n      swap2\n      swap1\n      tag_154\n      jump\t// in\n    tag_262:\n      swap3\n      pop\n      pop\n      dup2\n      swap1\n      sstore\n      pop\n        /* \"MarketERC721.sol\":4901:5192  if(item.ownerCount <= 3) {\r... */\n      jump(tag_263)\n    tag_261:\n        /* \"MarketERC721.sol\":5127:5131  item */\n      dup2\n        /* \"MarketERC721.sol\":5127:5138  item.seller */\n      0x01\n      add\n      0x00\n      swap1\n      sload\n      swap1\n      0x0100\n      exp\n      swap1\n      div\n      0xffffffffffffffffffffffffffffffffffffffff\n      and\n        /* \"MarketERC721.sol\":5088:5092  item */\n      dup3\n        /* \"MarketERC721.sol\":5088:5107  item.previousOwners */\n      0x04\n      add\n        /* \"MarketERC721.sol\":5088:5124  item.previousOwners[item.ownerCount] */\n      0x00\n        /* \"MarketERC721.sol\":5108:5112  item */\n      dup5\n        /* \"MarketERC721.sol\":5108:5123  item.ownerCount */\n      0x03\n      add\n      sload\n        /* \"MarketERC721.sol\":5088:5124  item.previousOwners[item.ownerCount] */\n      dup2\n      mstore\n      0x20\n      add\n      swap1\n      dup2\n      mstore\n      0x20\n      add\n      0x00\n      keccak256\n      0x00\n        /* \"MarketERC721.sol\":5088:5138  item.previousOwners[item.ownerCount] = item.seller */\n      0x0100\n      exp\n      dup2\n      sload\n      dup2\n      0xffffffffffffffffffffffffffffffffffffffff\n      mul\n      not\n      and\n      swap1\n      dup4\n      0xffffffffffffffffffffffffffffffffffffffff\n      and\n      mul\n      or\n      swap1\n      sstore\n      pop\n        /* \"MarketERC721.sol\":5175:5176  0 */\n      0x00\n        /* \"MarketERC721.sol\":5157:5161  item */\n      dup3\n        /* \"MarketERC721.sol\":5157:5172  item.ownerCount */\n      0x03\n      add\n        /* \"MarketERC721.sol\":5157:5176  item.ownerCount = 0 */\n      dup2\n      swap1\n      sstore\n      pop\n        /* \"MarketERC721.sol\":4901:5192  if(item.ownerCount <= 3) {\r... */\n    tag_263:\n        /* \"MarketERC721.sol\":5225:5230  false */\n      0x00\n        /* \"MarketERC721.sol\":5208:5212  item */\n      dup3\n        /* \"MarketERC721.sol\":5208:5222  item.isListing */\n      0x02\n      add\n      0x14\n        /* \"MarketERC721.sol\":5208:5230  item.isListing = false */\n      0x0100\n      exp\n      dup2\n      sload\n      dup2\n      0xff\n      mul\n      not\n      and\n      swap1\n      dup4\n      iszero\n      iszero\n      mul\n      or\n      swap1\n      sstore\n      pop\n        /* \"MarketERC721.sol\":5291:5295  item */\n      dup2\n        /* \"MarketERC721.sol\":5291:5305  item.isListing */\n      0x02\n      add\n      0x14\n      swap1\n      sload\n      swap1\n      0x0100\n      exp\n      swap1\n      div\n      0xff\n      and\n        /* \"MarketERC721.sol\":5250:5306  List(msg.sender, tokenId[j], item.price, item.isListing) */\n      iszero\n      iszero\n        /* \"MarketERC721.sol\":5267:5274  tokenId */\n      dup11\n      dup11\n        /* \"MarketERC721.sol\":5275:5276  j */\n      dup6\n        /* \"MarketERC721.sol\":5267:5277  tokenId[j] */\n      dup2\n      dup2\n      lt\n      tag_264\n      jumpi\n      tag_265\n      tag_228\n      jump\t// in\n    tag_265:\n    tag_264:\n      swap1\n      pop\n      0x20\n      mul\n      add\n      calldataload\n        /* \"MarketERC721.sol\":5255:5265  msg.sender */\n      caller\n        /* \"MarketERC721.sol\":5250:5306  List(msg.sender, tokenId[j], item.price, item.isListing) */\n      0xffffffffffffffffffffffffffffffffffffffff\n      and\n      0xa7cd299f7ebc29460ad99cf3ea75776d7cd038a63a59fa595e86441f8190ef90\n        /* \"MarketERC721.sol\":5279:5283  item */\n      dup6\n        /* \"MarketERC721.sol\":5279:5289  item.price */\n      0x00\n      add\n      sload\n        /* \"MarketERC721.sol\":5250:5306  List(msg.sender, tokenId[j], item.price, item.isListing) */\n      mload(0x40)\n      tag_266\n      swap2\n      swap1\n      tag_59\n      jump\t// in\n    tag_266:\n      mload(0x40)\n      dup1\n      swap2\n      sub\n      swap1\n      log4\n        /* \"MarketERC721.sol\":3870:5318  {\r... */\n      pop\n      pop\n        /* \"MarketERC721.sol\":3865:3868  j++ */\n      dup1\n      dup1\n      tag_267\n      swap1\n      tag_146\n      jump\t// in\n    tag_267:\n      swap2\n      pop\n      pop\n        /* \"MarketERC721.sol\":3828:5318  for (uint j = 0; j < tokenId.length; j++) {\r... */\n      jump(tag_223)\n    tag_224:\n      pop\n        /* \"MarketERC721.sol\":3633:5325  function purchaseBatch(address contractAddr, uint256[] calldata tokenId, address referer, uint256 metaverseFee, uint256[] calldata previousOwnerFee, uint256 referalFee) public payable {\r... */\n      pop\n      pop\n      pop\n      pop\n      pop\n      pop\n      pop\n      pop\n      jump\t// out\n        /* \"Ownable.sol\":412:499  function owner() public view virtual returns (address) {\r... */\n    tag_78:\n        /* \"Ownable.sol\":458:465  address */\n      0x00\n        /* \"Ownable.sol\":485:491  _owner */\n      dup1\n      0x00\n      swap1\n      sload\n      swap1\n      0x0100\n      exp\n      swap1\n      div\n      0xffffffffffffffffffffffffffffffffffffffff\n      and\n        /* \"Ownable.sol\":478:491  return _owner */\n      swap1\n      pop\n        /* \"Ownable.sol\":412:499  function owner() public view virtual returns (address) {\r... */\n      swap1\n      jump\t// out\n        /* \"MarketERC721.sol\":1606:2121  function cancelListing(address contractAddr, uint256 tokenId) public {\r... */\n    tag_83:\n        /* \"MarketERC721.sol\":1686:1698  ERC721 token */\n      0x00\n        /* \"MarketERC721.sol\":1708:1720  contractAddr */\n      dup3\n        /* \"MarketERC721.sol\":1686:1721  ERC721 token = ERC721(contractAddr) */\n      swap1\n      pop\n        /* \"MarketERC721.sol\":1732:1752  Listing storage item */\n      0x00\n        /* \"MarketERC721.sol\":1755:1763  listings */\n      0x01\n        /* \"MarketERC721.sol\":1755:1777  listings[contractAddr] */\n      0x00\n        /* \"MarketERC721.sol\":1764:1776  contractAddr */\n      dup6\n        /* \"MarketERC721.sol\":1755:1777  listings[contractAddr] */\n      0xffffffffffffffffffffffffffffffffffffffff\n      and\n      0xffffffffffffffffffffffffffffffffffffffff\n      and\n      dup2\n      mstore\n      0x20\n      add\n      swap1\n      dup2\n      mstore\n      0x20\n      add\n      0x00\n      keccak256\n        /* \"MarketERC721.sol\":1755:1786  listings[contractAddr][tokenId] */\n      0x00\n        /* \"MarketERC721.sol\":1778:1785  tokenId */\n      dup5\n        /* \"MarketERC721.sol\":1755:1786  listings[contractAddr][tokenId] */\n      dup2\n      mstore\n      0x20\n      add\n      swap1\n      dup2\n      mstore\n      0x20\n      add\n      0x00\n      keccak256\n        /* \"MarketERC721.sol\":1732:1786  Listing storage item = listings[contractAddr][tokenId] */\n      swap1\n      pop\n        /* \"MarketERC721.sol\":1820:1830  msg.sender */\n      caller\n        /* \"MarketERC721.sol\":1805:1830  item.seller == msg.sender */\n      0xffffffffffffffffffffffffffffffffffffffff\n      and\n        /* \"MarketERC721.sol\":1805:1809  item */\n      dup2\n        /* \"MarketERC721.sol\":1805:1816  item.seller */\n      0x01\n      add\n      0x00\n      swap1\n      sload\n      swap1\n      0x0100\n      exp\n      swap1\n      div\n      0xffffffffffffffffffffffffffffffffffffffff\n      and\n        /* \"MarketERC721.sol\":1805:1830  item.seller == msg.sender */\n      0xffffffffffffffffffffffffffffffffffffffff\n      and\n      eq\n        /* \"MarketERC721.sol\":1797:1848  require(item.seller == msg.sender, \"Unauthorized.\") */\n      tag_270\n      jumpi\n      mload(0x40)\n      0x08c379a000000000000000000000000000000000000000000000000000000000\n      dup2\n      mstore\n      0x04\n      add\n      tag_271\n      swap1\n      tag_272\n      jump\t// in\n    tag_271:\n      mload(0x40)\n      dup1\n      swap2\n      sub\n      swap1\n      revert\n    tag_270:\n        /* \"MarketERC721.sol\":1867:1871  item */\n      dup1\n        /* \"MarketERC721.sol\":1867:1881  item.isListing */\n      0x02\n      add\n      0x14\n      swap1\n      sload\n      swap1\n      0x0100\n      exp\n      swap1\n      div\n      0xff\n      and\n        /* \"MarketERC721.sol\":1859:1910  require(item.isListing, \"This NFT is not listing.\") */\n      tag_273\n      jumpi\n      mload(0x40)\n      0x08c379a000000000000000000000000000000000000000000000000000000000\n      dup2\n      mstore\n      0x04\n      add\n      tag_274\n      swap1\n      tag_275\n      jump\t// in\n    tag_274:\n      mload(0x40)\n      dup1\n      swap2\n      sub\n      swap1\n      revert\n    tag_273:\n        /* \"MarketERC721.sol\":1929:1934  token */\n      dup2\n        /* \"MarketERC721.sol\":1929:1951  token.isApprovedForAll */\n      0xffffffffffffffffffffffffffffffffffffffff\n      and\n      0xe985e9c5\n        /* \"MarketERC721.sol\":1952:1962  msg.sender */\n      caller\n        /* \"MarketERC721.sol\":1972:1976  this */\n      address\n        /* \"MarketERC721.sol\":1929:1978  token.isApprovedForAll(msg.sender, address(this)) */\n      mload(0x40)\n      dup4\n      0xffffffff\n      and\n      0xe0\n      shl\n      dup2\n      mstore\n      0x04\n      add\n      tag_276\n      swap3\n      swap2\n      swap1\n      tag_180\n      jump\t// in\n    tag_276:\n      0x20\n      mload(0x40)\n      dup1\n      dup4\n      sub\n      dup2\n      dup7\n      dup1\n      extcodesize\n      iszero\n      dup1\n      iszero\n      tag_277\n      jumpi\n      0x00\n      dup1\n      revert\n    tag_277:\n      pop\n      gas\n      staticcall\n      iszero\n      dup1\n      iszero\n      tag_279\n      jumpi\n      returndatasize\n      0x00\n      dup1\n      returndatacopy\n      revert(0x00, returndatasize)\n    tag_279:\n      pop\n      pop\n      pop\n      pop\n      mload(0x40)\n      returndatasize\n      not(0x1f)\n      0x1f\n      dup3\n      add\n      and\n      dup3\n      add\n      dup1\n      0x40\n      mstore\n      pop\n      dup2\n      add\n      swap1\n      tag_280\n      swap2\n      swap1\n      tag_122\n      jump\t// in\n    tag_280:\n        /* \"MarketERC721.sol\":1921:2009  require(token.isApprovedForAll(msg.sender, address(this)), \"Contract must be approved.\") */\n      tag_281\n      jumpi\n      mload(0x40)\n      0x08c379a000000000000000000000000000000000000000000000000000000000\n      dup2\n      mstore\n      0x04\n      add\n      tag_282\n      swap1\n      tag_187\n      jump\t// in\n    tag_282:\n      mload(0x40)\n      dup1\n      swap2\n      sub\n      swap1\n      revert\n    tag_281:\n        /* \"MarketERC721.sol\":2039:2044  false */\n      0x00\n        /* \"MarketERC721.sol\":2022:2026  item */\n      dup2\n        /* \"MarketERC721.sol\":2022:2036  item.isListing */\n      0x02\n      add\n      0x14\n        /* \"MarketERC721.sol\":2022:2044  item.isListing = false */\n      0x0100\n      exp\n      dup2\n      sload\n      dup2\n      0xff\n      mul\n      not\n      and\n      swap1\n      dup4\n      iszero\n      iszero\n      mul\n      or\n      swap1\n      sstore\n      pop\n        /* \"MarketERC721.sol\":2098:2102  item */\n      dup1\n        /* \"MarketERC721.sol\":2098:2112  item.isListing */\n      0x02\n      add\n      0x14\n      swap1\n      sload\n      swap1\n      0x0100\n      exp\n      swap1\n      div\n      0xff\n      and\n        /* \"MarketERC721.sol\":2060:2113  List(msg.sender, tokenId, item.price, item.isListing) */\n      iszero\n      iszero\n        /* \"MarketERC721.sol\":2077:2084  tokenId */\n      dup4\n        /* \"MarketERC721.sol\":2065:2075  msg.sender */\n      caller\n        /* \"MarketERC721.sol\":2060:2113  List(msg.sender, tokenId, item.price, item.isListing) */\n      0xffffffffffffffffffffffffffffffffffffffff\n      and\n      0xa7cd299f7ebc29460ad99cf3ea75776d7cd038a63a59fa595e86441f8190ef90\n        /* \"MarketERC721.sol\":2086:2090  item */\n      dup5\n        /* \"MarketERC721.sol\":2086:2096  item.price */\n      0x00\n      add\n      sload\n        /* \"MarketERC721.sol\":2060:2113  List(msg.sender, tokenId, item.price, item.isListing) */\n      mload(0x40)\n      tag_283\n      swap2\n      swap1\n      tag_59\n      jump\t// in\n    tag_283:\n      mload(0x40)\n      dup1\n      swap2\n      sub\n      swap1\n      log4\n        /* \"MarketERC721.sol\":1675:2121  {\r... */\n      pop\n      pop\n        /* \"MarketERC721.sol\":1606:2121  function cancelListing(address contractAddr, uint256 tokenId) public {\r... */\n      pop\n      pop\n      jump\t// out\n        /* \"MarketERC721.sol\":6968:8795  function purchaseERC20Batch(address contractAddr, address coinAddr, uint256[] calldata tokenId, address referer, uint256 metaverseFee, uint256[] calldata previousOwnerFee, uint256 referalFee) public payable {\r... */\n    tag_87:\n        /* \"MarketERC721.sol\":7191:7197  uint j */\n      0x00\n        /* \"MarketERC721.sol\":7186:8788  for (uint j = 0; j < tokenId.length; j++) {\r... */\n    tag_285:\n        /* \"MarketERC721.sol\":7207:7214  tokenId */\n      dup8\n      dup8\n        /* \"MarketERC721.sol\":7207:7221  tokenId.length */\n      swap1\n      pop\n        /* \"MarketERC721.sol\":7203:7204  j */\n      dup2\n        /* \"MarketERC721.sol\":7203:7221  j < tokenId.length */\n      lt\n        /* \"MarketERC721.sol\":7186:8788  for (uint j = 0; j < tokenId.length; j++) {\r... */\n      iszero\n      tag_286\n      jumpi\n        /* \"MarketERC721.sol\":7243:7263  Listing storage item */\n      0x00\n        /* \"MarketERC721.sol\":7266:7274  listings */\n      0x01\n        /* \"MarketERC721.sol\":7266:7288  listings[contractAddr] */\n      0x00\n        /* \"MarketERC721.sol\":7275:7287  contractAddr */\n      dup13\n        /* \"MarketERC721.sol\":7266:7288  listings[contractAddr] */\n      0xffffffffffffffffffffffffffffffffffffffff\n      and\n      0xffffffffffffffffffffffffffffffffffffffff\n      and\n      dup2\n      mstore\n      0x20\n      add\n      swap1\n      dup2\n      mstore\n      0x20\n      add\n      0x00\n      keccak256\n        /* \"MarketERC721.sol\":7266:7300  listings[contractAddr][tokenId[j]] */\n      0x00\n        /* \"MarketERC721.sol\":7289:7296  tokenId */\n      dup11\n      dup11\n        /* \"MarketERC721.sol\":7297:7298  j */\n      dup6\n        /* \"MarketERC721.sol\":7289:7299  tokenId[j] */\n      dup2\n      dup2\n      lt\n      tag_288\n      jumpi\n      tag_289\n      tag_228\n      jump\t// in\n    tag_289:\n    tag_288:\n      swap1\n      pop\n      0x20\n      mul\n      add\n      calldataload\n        /* \"MarketERC721.sol\":7266:7300  listings[contractAddr][tokenId[j]] */\n      dup2\n      mstore\n      0x20\n      add\n      swap1\n      dup2\n      mstore\n      0x20\n      add\n      0x00\n      keccak256\n        /* \"MarketERC721.sol\":7243:7300  Listing storage item = listings[contractAddr][tokenId[j]] */\n      swap1\n      pop\n        /* \"MarketERC721.sol\":7315:7327  ERC721 token */\n      0x00\n        /* \"MarketERC721.sol\":7337:7349  contractAddr */\n      dup12\n        /* \"MarketERC721.sol\":7315:7350  ERC721 token = ERC721(contractAddr) */\n      swap1\n      pop\n        /* \"MarketERC721.sol\":7365:7375  ERC20 coin */\n      0x00\n        /* \"MarketERC721.sol\":7384:7392  coinAddr */\n      dup12\n        /* \"MarketERC721.sol\":7365:7393  ERC20 coin = ERC20(coinAddr) */\n      swap1\n      pop\n        /* \"MarketERC721.sol\":7416:7420  item */\n      dup3\n        /* \"MarketERC721.sol\":7416:7430  item.isListing */\n      0x02\n      add\n      0x14\n      swap1\n      sload\n      swap1\n      0x0100\n      exp\n      swap1\n      div\n      0xff\n      and\n        /* \"MarketERC721.sol\":7408:7460  require(item.isListing, \"This NFT is not for sell.\") */\n      tag_290\n      jumpi\n      mload(0x40)\n      0x08c379a000000000000000000000000000000000000000000000000000000000\n      dup2\n      mstore\n      0x04\n      add\n      tag_291\n      swap1\n      tag_99\n      jump\t// in\n    tag_291:\n      mload(0x40)\n      dup1\n      swap2\n      sub\n      swap1\n      revert\n    tag_290:\n        /* \"MarketERC721.sol\":7497:7501  item */\n      dup3\n        /* \"MarketERC721.sol\":7497:7508  item.seller */\n      0x01\n      add\n      0x00\n      swap1\n      sload\n      swap1\n      0x0100\n      exp\n      swap1\n      div\n      0xffffffffffffffffffffffffffffffffffffffff\n      and\n        /* \"MarketERC721.sol\":7483:7508  msg.sender != item.seller */\n      0xffffffffffffffffffffffffffffffffffffffff\n      and\n        /* \"MarketERC721.sol\":7483:7493  msg.sender */\n      caller\n        /* \"MarketERC721.sol\":7483:7508  msg.sender != item.seller */\n      0xffffffffffffffffffffffffffffffffffffffff\n      and\n      eq\n      iszero\n        /* \"MarketERC721.sol\":7475:7531  require(msg.sender != item.seller, \"Buy from yourself.\") */\n      tag_292\n      jumpi\n      mload(0x40)\n      0x08c379a000000000000000000000000000000000000000000000000000000000\n      dup2\n      mstore\n      0x04\n      add\n      tag_293\n      swap1\n      tag_102\n      jump\t// in\n    tag_293:\n      mload(0x40)\n      dup1\n      swap2\n      sub\n      swap1\n      revert\n    tag_292:\n        /* \"MarketERC721.sol\":7584:7588  item */\n      dup3\n        /* \"MarketERC721.sol\":7584:7594  item.price */\n      0x00\n      add\n      sload\n        /* \"MarketERC721.sol\":7554:7558  coin */\n      dup2\n        /* \"MarketERC721.sol\":7554:7568  coin.balanceOf */\n      0xffffffffffffffffffffffffffffffffffffffff\n      and\n      0x70a08231\n        /* \"MarketERC721.sol\":7569:7579  msg.sender */\n      caller\n        /* \"MarketERC721.sol\":7554:7580  coin.balanceOf(msg.sender) */\n      mload(0x40)\n      dup3\n      0xffffffff\n      and\n      0xe0\n      shl\n      dup2\n      mstore\n      0x04\n      add\n      tag_294\n      swap2\n      swap1\n      tag_38\n      jump\t// in\n    tag_294:\n      0x20\n      mload(0x40)\n      dup1\n      dup4\n      sub\n      dup2\n      dup7\n      dup1\n      extcodesize\n      iszero\n      dup1\n      iszero\n      tag_295\n      jumpi\n      0x00\n      dup1\n      revert\n    tag_295:\n      pop\n      gas\n      staticcall\n      iszero\n      dup1\n      iszero\n      tag_297\n      jumpi\n      returndatasize\n      0x00\n      dup1\n      returndatacopy\n      revert(0x00, returndatasize)\n    tag_297:\n      pop\n      pop\n      pop\n      pop\n      mload(0x40)\n      returndatasize\n      not(0x1f)\n      0x1f\n      dup3\n      add\n      and\n      dup3\n      add\n      dup1\n      0x40\n      mstore\n      pop\n      dup2\n      add\n      swap1\n      tag_298\n      swap2\n      swap1\n      tag_108\n      jump\t// in\n    tag_298:\n        /* \"MarketERC721.sol\":7554:7594  coin.balanceOf(msg.sender) >= item.price */\n      lt\n      iszero\n        /* \"MarketERC721.sol\":7546:7623  require(coin.balanceOf(msg.sender) >= item.price, \"Insufficient funds sent.\") */\n      tag_299\n      jumpi\n      mload(0x40)\n      0x08c379a000000000000000000000000000000000000000000000000000000000\n      dup2\n      mstore\n      0x04\n      add\n      tag_300\n      swap1\n      tag_111\n      jump\t// in\n    tag_300:\n      mload(0x40)\n      dup1\n      swap2\n      sub\n      swap1\n      revert\n    tag_299:\n        /* \"MarketERC721.sol\":7638:7642  coin */\n      dup1\n        /* \"MarketERC721.sol\":7638:7655  coin.transferFrom */\n      0xffffffffffffffffffffffffffffffffffffffff\n      and\n      0x23b872dd\n        /* \"MarketERC721.sol\":7656:7666  msg.sender */\n      caller\n        /* \"MarketERC721.sol\":7668:7672  item */\n      dup6\n        /* \"MarketERC721.sol\":7668:7679  item.seller */\n      0x01\n      add\n      0x00\n      swap1\n      sload\n      swap1\n      0x0100\n      exp\n      swap1\n      div\n      0xffffffffffffffffffffffffffffffffffffffff\n      and\n        /* \"MarketERC721.sol\":7708:7710  20 */\n      0x14\n        /* \"MarketERC721.sol\":7695:7699  item */\n      dup8\n        /* \"MarketERC721.sol\":7695:7705  item.price */\n      0x00\n      add\n      sload\n        /* \"MarketERC721.sol\":7695:7710  item.price / 20 */\n      tag_301\n      swap2\n      swap1\n      tag_113\n      jump\t// in\n    tag_301:\n        /* \"MarketERC721.sol\":7681:7685  item */\n      dup8\n        /* \"MarketERC721.sol\":7681:7691  item.price */\n      0x00\n      add\n      sload\n        /* \"MarketERC721.sol\":7681:7711  item.price - (item.price / 20) */\n      tag_302\n      swap2\n      swap1\n      tag_115\n      jump\t// in\n    tag_302:\n        /* \"MarketERC721.sol\":7638:7712  coin.transferFrom(msg.sender, item.seller, item.price - (item.price / 20)) */\n      mload(0x40)\n      dup5\n      0xffffffff\n      and\n      0xe0\n      shl\n      dup2\n      mstore\n      0x04\n      add\n      tag_303\n      swap4\n      swap3\n      swap2\n      swap1\n      tag_117\n      jump\t// in\n    tag_303:\n      0x20\n      mload(0x40)\n      dup1\n      dup4\n      sub\n      dup2\n      0x00\n      dup8\n      dup1\n      extcodesize\n      iszero\n      dup1\n      iszero\n      tag_304\n      jumpi\n      0x00\n      dup1\n      revert\n    tag_304:\n      pop\n      gas\n      call\n      iszero\n      dup1\n      iszero\n      tag_306\n      jumpi\n      returndatasize\n      0x00\n      dup1\n      returndatacopy\n      revert(0x00, returndatasize)\n    tag_306:\n      pop\n      pop\n      pop\n      pop\n      mload(0x40)\n      returndatasize\n      not(0x1f)\n      0x1f\n      dup3\n      add\n      and\n      dup3\n      add\n      dup1\n      0x40\n      mstore\n      pop\n      dup2\n      add\n      swap1\n      tag_307\n      swap2\n      swap1\n      tag_122\n      jump\t// in\n    tag_307:\n      pop\n        /* \"MarketERC721.sol\":7727:7731  coin */\n      dup1\n        /* \"MarketERC721.sol\":7727:7744  coin.transferFrom */\n      0xffffffffffffffffffffffffffffffffffffffff\n      and\n      0x23b872dd\n        /* \"MarketERC721.sol\":7745:7755  msg.sender */\n      caller\n        /* \"MarketERC721.sol\":7757:7764  owner() */\n      tag_308\n        /* \"MarketERC721.sol\":7757:7762  owner */\n      tag_78\n        /* \"MarketERC721.sol\":7757:7764  owner() */\n      jump\t// in\n    tag_308:\n        /* \"MarketERC721.sol\":7766:7778  metaverseFee */\n      dup12\n        /* \"MarketERC721.sol\":7727:7779  coin.transferFrom(msg.sender, owner(), metaverseFee) */\n      mload(0x40)\n      dup5\n      0xffffffff\n      and\n      0xe0\n      shl\n      dup2\n      mstore\n      0x04\n      add\n      tag_309\n      swap4\n      swap3\n      swap2\n      swap1\n      tag_117\n      jump\t// in\n    tag_309:\n      0x20\n      mload(0x40)\n      dup1\n      dup4\n      sub\n      dup2\n      0x00\n      dup8\n      dup1\n      extcodesize\n      iszero\n      dup1\n      iszero\n      tag_310\n      jumpi\n      0x00\n      dup1\n      revert\n    tag_310:\n      pop\n      gas\n      call\n      iszero\n      dup1\n      iszero\n      tag_312\n      jumpi\n      returndatasize\n      0x00\n      dup1\n      returndatacopy\n      revert(0x00, returndatasize)\n    tag_312:\n      pop\n      pop\n      pop\n      pop\n      mload(0x40)\n      returndatasize\n      not(0x1f)\n      0x1f\n      dup3\n      add\n      and\n      dup3\n      add\n      dup1\n      0x40\n      mstore\n      pop\n      dup2\n      add\n      swap1\n      tag_313\n      swap2\n      swap1\n      tag_122\n      jump\t// in\n    tag_313:\n      pop\n        /* \"MarketERC721.sol\":7816:7817  0 */\n      0x00\n        /* \"MarketERC721.sol\":7797:7818  referer != address(0) */\n      0xffffffffffffffffffffffffffffffffffffffff\n      and\n        /* \"MarketERC721.sol\":7797:7804  referer */\n      dup10\n        /* \"MarketERC721.sol\":7797:7818  referer != address(0) */\n      0xffffffffffffffffffffffffffffffffffffffff\n      and\n      eq\n        /* \"MarketERC721.sol\":7794:7904  if(referer != address(0)){\r... */\n      tag_314\n      jumpi\n        /* \"MarketERC721.sol\":7838:7842  coin */\n      dup1\n        /* \"MarketERC721.sol\":7838:7855  coin.transferFrom */\n      0xffffffffffffffffffffffffffffffffffffffff\n      and\n      0x23b872dd\n        /* \"MarketERC721.sol\":7856:7866  msg.sender */\n      caller\n        /* \"MarketERC721.sol\":7868:7875  referer */\n      dup12\n        /* \"MarketERC721.sol\":7877:7887  referalFee */\n      dup9\n        /* \"MarketERC721.sol\":7838:7888  coin.transferFrom(msg.sender, referer, referalFee) */\n      mload(0x40)\n      dup5\n      0xffffffff\n      and\n      0xe0\n      shl\n      dup2\n      mstore\n      0x04\n      add\n      tag_315\n      swap4\n      swap3\n      swap2\n      swap1\n      tag_117\n      jump\t// in\n    tag_315:\n      0x20\n      mload(0x40)\n      dup1\n      dup4\n      sub\n      dup2\n      0x00\n      dup8\n      dup1\n      extcodesize\n      iszero\n      dup1\n      iszero\n      tag_316\n      jumpi\n      0x00\n      dup1\n      revert\n    tag_316:\n      pop\n      gas\n      call\n      iszero\n      dup1\n      iszero\n      tag_318\n      jumpi\n      returndatasize\n      0x00\n      dup1\n      returndatacopy\n      revert(0x00, returndatasize)\n    tag_318:\n      pop\n      pop\n      pop\n      pop\n      mload(0x40)\n      returndatasize\n      not(0x1f)\n      0x1f\n      dup3\n      add\n      and\n      dup3\n      add\n      dup1\n      0x40\n      mstore\n      pop\n      dup2\n      add\n      swap1\n      tag_319\n      swap2\n      swap1\n      tag_122\n      jump\t// in\n    tag_319:\n      pop\n        /* \"MarketERC721.sol\":7794:7904  if(referer != address(0)){\r... */\n    tag_314:\n        /* \"MarketERC721.sol\":7923:7929  uint i */\n      0x00\n        /* \"MarketERC721.sol\":7918:8239  for (uint i = 0; i < 5; i++) {\r... */\n    tag_320:\n        /* \"MarketERC721.sol\":7939:7940  5 */\n      0x05\n        /* \"MarketERC721.sol\":7935:7936  i */\n      dup2\n        /* \"MarketERC721.sol\":7935:7940  i < 5 */\n      lt\n        /* \"MarketERC721.sol\":7918:8239  for (uint i = 0; i < 5; i++) {\r... */\n      iszero\n      tag_321\n      jumpi\n        /* \"MarketERC721.sol\":8008:8009  0 */\n      0x00\n        /* \"MarketERC721.sol\":7974:8010  item.previousOwners[i] != address(0) */\n      0xffffffffffffffffffffffffffffffffffffffff\n      and\n        /* \"MarketERC721.sol\":7974:7978  item */\n      dup5\n        /* \"MarketERC721.sol\":7974:7993  item.previousOwners */\n      0x04\n      add\n        /* \"MarketERC721.sol\":7974:7996  item.previousOwners[i] */\n      0x00\n        /* \"MarketERC721.sol\":7994:7995  i */\n      dup4\n        /* \"MarketERC721.sol\":7974:7996  item.previousOwners[i] */\n      dup2\n      mstore\n      0x20\n      add\n      swap1\n      dup2\n      mstore\n      0x20\n      add\n      0x00\n      keccak256\n      0x00\n      swap1\n      sload\n      swap1\n      0x0100\n      exp\n      swap1\n      div\n      0xffffffffffffffffffffffffffffffffffffffff\n      and\n        /* \"MarketERC721.sol\":7974:8010  item.previousOwners[i] != address(0) */\n      0xffffffffffffffffffffffffffffffffffffffff\n      and\n      eq\n        /* \"MarketERC721.sol\":7970:8220  if (item.previousOwners[i] != address(0)) {\r... */\n      tag_323\n      jumpi\n        /* \"MarketERC721.sol\":8039:8043  coin */\n      dup2\n        /* \"MarketERC721.sol\":8039:8056  coin.transferFrom */\n      0xffffffffffffffffffffffffffffffffffffffff\n      and\n      0x23b872dd\n        /* \"MarketERC721.sol\":8057:8067  msg.sender */\n      caller\n        /* \"MarketERC721.sol\":8069:8073  item */\n      dup7\n        /* \"MarketERC721.sol\":8069:8088  item.previousOwners */\n      0x04\n      add\n        /* \"MarketERC721.sol\":8069:8091  item.previousOwners[i] */\n      0x00\n        /* \"MarketERC721.sol\":8089:8090  i */\n      dup6\n        /* \"MarketERC721.sol\":8069:8091  item.previousOwners[i] */\n      dup2\n      mstore\n      0x20\n      add\n      swap1\n      dup2\n      mstore\n      0x20\n      add\n      0x00\n      keccak256\n      0x00\n      swap1\n      sload\n      swap1\n      0x0100\n      exp\n      swap1\n      div\n      0xffffffffffffffffffffffffffffffffffffffff\n      and\n        /* \"MarketERC721.sol\":8093:8109  previousOwnerFee */\n      dup12\n      dup12\n        /* \"MarketERC721.sol\":8110:8111  j */\n      dup11\n        /* \"MarketERC721.sol\":8093:8112  previousOwnerFee[j] */\n      dup2\n      dup2\n      lt\n      tag_324\n      jumpi\n      tag_325\n      tag_228\n      jump\t// in\n    tag_325:\n    tag_324:\n      swap1\n      pop\n      0x20\n      mul\n      add\n      calldataload\n        /* \"MarketERC721.sol\":8039:8113  coin.transferFrom(msg.sender, item.previousOwners[i], previousOwnerFee[j]) */\n      mload(0x40)\n      dup5\n      0xffffffff\n      and\n      0xe0\n      shl\n      dup2\n      mstore\n      0x04\n      add\n      tag_326\n      swap4\n      swap3\n      swap2\n      swap1\n      tag_117\n      jump\t// in\n    tag_326:\n      0x20\n      mload(0x40)\n      dup1\n      dup4\n      sub\n      dup2\n      0x00\n      dup8\n      dup1\n      extcodesize\n      iszero\n      dup1\n      iszero\n      tag_327\n      jumpi\n      0x00\n      dup1\n      revert\n    tag_327:\n      pop\n      gas\n      call\n      iszero\n      dup1\n      iszero\n      tag_329\n      jumpi\n      returndatasize\n      0x00\n      dup1\n      returndatacopy\n      revert(0x00, returndatasize)\n    tag_329:\n      pop\n      pop\n      pop\n      pop\n      mload(0x40)\n      returndatasize\n      not(0x1f)\n      0x1f\n      dup3\n      add\n      and\n      dup3\n      add\n      dup1\n      0x40\n      mstore\n      pop\n      dup2\n      add\n      swap1\n      tag_330\n      swap2\n      swap1\n      tag_122\n      jump\t// in\n    tag_330:\n      pop\n        /* \"MarketERC721.sol\":7970:8220  if (item.previousOwners[i] != address(0)) {\r... */\n      jump(tag_331)\n    tag_323:\n        /* \"MarketERC721.sol\":8191:8196  break */\n      jump(tag_321)\n        /* \"MarketERC721.sol\":7970:8220  if (item.previousOwners[i] != address(0)) {\r... */\n    tag_331:\n        /* \"MarketERC721.sol\":7942:7945  i++ */\n      dup1\n      dup1\n      tag_332\n      swap1\n      tag_146\n      jump\t// in\n    tag_332:\n      swap2\n      pop\n      pop\n        /* \"MarketERC721.sol\":7918:8239  for (uint i = 0; i < 5; i++) {\r... */\n      jump(tag_320)\n    tag_321:\n      pop\n        /* \"MarketERC721.sol\":8255:8260  token */\n      dup2\n        /* \"MarketERC721.sol\":8255:8277  token.safeTransferFrom */\n      0xffffffffffffffffffffffffffffffffffffffff\n      and\n      0xb88d4fde\n        /* \"MarketERC721.sol\":8278:8282  item */\n      dup5\n        /* \"MarketERC721.sol\":8278:8289  item.seller */\n      0x01\n      add\n      0x00\n      swap1\n      sload\n      swap1\n      0x0100\n      exp\n      swap1\n      div\n      0xffffffffffffffffffffffffffffffffffffffff\n      and\n        /* \"MarketERC721.sol\":8291:8301  msg.sender */\n      caller\n        /* \"MarketERC721.sol\":8303:8310  tokenId */\n      dup15\n      dup15\n        /* \"MarketERC721.sol\":8311:8312  j */\n      dup10\n        /* \"MarketERC721.sol\":8303:8313  tokenId[j] */\n      dup2\n      dup2\n      lt\n      tag_333\n      jumpi\n      tag_334\n      tag_228\n      jump\t// in\n    tag_334:\n    tag_333:\n      swap1\n      pop\n      0x20\n      mul\n      add\n      calldataload\n        /* \"MarketERC721.sol\":8255:8318  token.safeTransferFrom(item.seller, msg.sender, tokenId[j], \"\") */\n      mload(0x40)\n      dup5\n      0xffffffff\n      and\n      0xe0\n      shl\n      dup2\n      mstore\n      0x04\n      add\n      tag_335\n      swap4\n      swap3\n      swap2\n      swap1\n      tag_148\n      jump\t// in\n    tag_335:\n      0x00\n      mload(0x40)\n      dup1\n      dup4\n      sub\n      dup2\n      0x00\n      dup8\n      dup1\n      extcodesize\n      iszero\n      dup1\n      iszero\n      tag_336\n      jumpi\n      0x00\n      dup1\n      revert\n    tag_336:\n      pop\n      gas\n      call\n      iszero\n      dup1\n      iszero\n      tag_338\n      jumpi\n      returndatasize\n      0x00\n      dup1\n      returndatacopy\n      revert(0x00, returndatasize)\n    tag_338:\n      pop\n      pop\n      pop\n      pop\n        /* \"MarketERC721.sol\":8346:8356  msg.sender */\n      caller\n        /* \"MarketERC721.sol\":8333:8337  item */\n      dup4\n        /* \"MarketERC721.sol\":8333:8343  item.owner */\n      0x02\n      add\n      0x00\n        /* \"MarketERC721.sol\":8333:8356  item.owner = msg.sender */\n      0x0100\n      exp\n      dup2\n      sload\n      dup2\n      0xffffffffffffffffffffffffffffffffffffffff\n      mul\n      not\n      and\n      swap1\n      dup4\n      0xffffffffffffffffffffffffffffffffffffffff\n      and\n      mul\n      or\n      swap1\n      sstore\n      pop\n        /* \"MarketERC721.sol\":8393:8394  3 */\n      0x03\n        /* \"MarketERC721.sol\":8374:8378  item */\n      dup4\n        /* \"MarketERC721.sol\":8374:8389  item.ownerCount */\n      0x03\n      add\n      sload\n        /* \"MarketERC721.sol\":8374:8394  item.ownerCount <= 3 */\n      gt\n        /* \"MarketERC721.sol\":8371:8662  if(item.ownerCount <= 3) {\r... */\n      tag_339\n      jumpi\n        /* \"MarketERC721.sol\":8454:8458  item */\n      dup3\n        /* \"MarketERC721.sol\":8454:8465  item.seller */\n      0x01\n      add\n      0x00\n      swap1\n      sload\n      swap1\n      0x0100\n      exp\n      swap1\n      div\n      0xffffffffffffffffffffffffffffffffffffffff\n      and\n        /* \"MarketERC721.sol\":8415:8419  item */\n      dup4\n        /* \"MarketERC721.sol\":8415:8434  item.previousOwners */\n      0x04\n      add\n        /* \"MarketERC721.sol\":8415:8451  item.previousOwners[item.ownerCount] */\n      0x00\n        /* \"MarketERC721.sol\":8435:8439  item */\n      dup6\n        /* \"MarketERC721.sol\":8435:8450  item.ownerCount */\n      0x03\n      add\n      sload\n        /* \"MarketERC721.sol\":8415:8451  item.previousOwners[item.ownerCount] */\n      dup2\n      mstore\n      0x20\n      add\n      swap1\n      dup2\n      mstore\n      0x20\n      add\n      0x00\n      keccak256\n      0x00\n        /* \"MarketERC721.sol\":8415:8465  item.previousOwners[item.ownerCount] = item.seller */\n      0x0100\n      exp\n      dup2\n      sload\n      dup2\n      0xffffffffffffffffffffffffffffffffffffffff\n      mul\n      not\n      and\n      swap1\n      dup4\n      0xffffffffffffffffffffffffffffffffffffffff\n      and\n      mul\n      or\n      swap1\n      sstore\n      pop\n        /* \"MarketERC721.sol\":8503:8504  1 */\n      0x01\n        /* \"MarketERC721.sol\":8484:8488  item */\n      dup4\n        /* \"MarketERC721.sol\":8484:8499  item.ownerCount */\n      0x03\n      add\n      0x00\n        /* \"MarketERC721.sol\":8484:8504  item.ownerCount += 1 */\n      dup3\n      dup3\n      sload\n      tag_340\n      swap2\n      swap1\n      tag_154\n      jump\t// in\n    tag_340:\n      swap3\n      pop\n      pop\n      dup2\n      swap1\n      sstore\n      pop\n        /* \"MarketERC721.sol\":8371:8662  if(item.ownerCount <= 3) {\r... */\n      jump(tag_341)\n    tag_339:\n        /* \"MarketERC721.sol\":8597:8601  item */\n      dup3\n        /* \"MarketERC721.sol\":8597:8608  item.seller */\n      0x01\n      add\n      0x00\n      swap1\n      sload\n      swap1\n      0x0100\n      exp\n      swap1\n      div\n      0xffffffffffffffffffffffffffffffffffffffff\n      and\n        /* \"MarketERC721.sol\":8558:8562  item */\n      dup4\n        /* \"MarketERC721.sol\":8558:8577  item.previousOwners */\n      0x04\n      add\n        /* \"MarketERC721.sol\":8558:8594  item.previousOwners[item.ownerCount] */\n      0x00\n        /* \"MarketERC721.sol\":8578:8582  item */\n      dup6\n        /* \"MarketERC721.sol\":8578:8593  item.ownerCount */\n      0x03\n      add\n      sload\n        /* \"MarketERC721.sol\":8558:8594  item.previousOwners[item.ownerCount] */\n      dup2\n      mstore\n      0x20\n      add\n      swap1\n      dup2\n      mstore\n      0x20\n      add\n      0x00\n      keccak256\n      0x00\n        /* \"MarketERC721.sol\":8558:8608  item.previousOwners[item.ownerCount] = item.seller */\n      0x0100\n      exp\n      dup2\n      sload\n      dup2\n      0xffffffffffffffffffffffffffffffffffffffff\n      mul\n      not\n      and\n      swap1\n      dup4\n      0xffffffffffffffffffffffffffffffffffffffff\n      and\n      mul\n      or\n      swap1\n      sstore\n      pop\n        /* \"MarketERC721.sol\":8645:8646  0 */\n      0x00\n        /* \"MarketERC721.sol\":8627:8631  item */\n      dup4\n        /* \"MarketERC721.sol\":8627:8642  item.ownerCount */\n      0x03\n      add\n        /* \"MarketERC721.sol\":8627:8646  item.ownerCount = 0 */\n      dup2\n      swap1\n      sstore\n      pop\n        /* \"MarketERC721.sol\":8371:8662  if(item.ownerCount <= 3) {\r... */\n    tag_341:\n        /* \"MarketERC721.sol\":8695:8700  false */\n      0x00\n        /* \"MarketERC721.sol\":8678:8682  item */\n      dup4\n        /* \"MarketERC721.sol\":8678:8692  item.isListing */\n      0x02\n      add\n      0x14\n        /* \"MarketERC721.sol\":8678:8700  item.isListing = false */\n      0x0100\n      exp\n      dup2\n      sload\n      dup2\n      0xff\n      mul\n      not\n      and\n      swap1\n      dup4\n      iszero\n      iszero\n      mul\n      or\n      swap1\n      sstore\n      pop\n        /* \"MarketERC721.sol\":8761:8765  item */\n      dup3\n        /* \"MarketERC721.sol\":8761:8775  item.isListing */\n      0x02\n      add\n      0x14\n      swap1\n      sload\n      swap1\n      0x0100\n      exp\n      swap1\n      div\n      0xff\n      and\n        /* \"MarketERC721.sol\":8720:8776  List(msg.sender, tokenId[j], item.price, item.isListing) */\n      iszero\n      iszero\n        /* \"MarketERC721.sol\":8737:8744  tokenId */\n      dup12\n      dup12\n        /* \"MarketERC721.sol\":8745:8746  j */\n      dup7\n        /* \"MarketERC721.sol\":8737:8747  tokenId[j] */\n      dup2\n      dup2\n      lt\n      tag_342\n      jumpi\n      tag_343\n      tag_228\n      jump\t// in\n    tag_343:\n    tag_342:\n      swap1\n      pop\n      0x20\n      mul\n      add\n      calldataload\n        /* \"MarketERC721.sol\":8725:8735  msg.sender */\n      caller\n        /* \"MarketERC721.sol\":8720:8776  List(msg.sender, tokenId[j], item.price, item.isListing) */\n      0xffffffffffffffffffffffffffffffffffffffff\n      and\n      0xa7cd299f7ebc29460ad99cf3ea75776d7cd038a63a59fa595e86441f8190ef90\n        /* \"MarketERC721.sol\":8749:8753  item */\n      dup7\n        /* \"MarketERC721.sol\":8749:8759  item.price */\n      0x00\n      add\n      sload\n        /* \"MarketERC721.sol\":8720:8776  List(msg.sender, tokenId[j], item.price, item.isListing) */\n      mload(0x40)\n      tag_344\n      swap2\n      swap1\n      tag_59\n      jump\t// in\n    tag_344:\n      mload(0x40)\n      dup1\n      swap2\n      sub\n      swap1\n      log4\n        /* \"MarketERC721.sol\":7228:8788  {\r... */\n      pop\n      pop\n      pop\n        /* \"MarketERC721.sol\":7223:7226  j++ */\n      dup1\n      dup1\n      tag_345\n      swap1\n      tag_146\n      jump\t// in\n    tag_345:\n      swap2\n      pop\n      pop\n        /* \"MarketERC721.sol\":7186:8788  for (uint j = 0; j < tokenId.length; j++) {\r... */\n      jump(tag_285)\n    tag_286:\n      pop\n        /* \"MarketERC721.sol\":6968:8795  function purchaseERC20Batch(address contractAddr, address coinAddr, uint256[] calldata tokenId, address referer, uint256 metaverseFee, uint256[] calldata previousOwnerFee, uint256 referalFee) public payable {\r... */\n      pop\n      pop\n      pop\n      pop\n      pop\n      pop\n      pop\n      pop\n      pop\n      jump\t// out\n        /* \"Ownable.sol\":746:947  function transferOwnership(address newOwner) public virtual onlyOwner {\r... */\n    tag_92:\n        /* \"Ownable.sol\":558:570  _msgSender() */\n      tag_347\n        /* \"Ownable.sol\":558:568  _msgSender */\n      tag_161\n        /* \"Ownable.sol\":558:570  _msgSender() */\n      jump\t// in\n    tag_347:\n        /* \"Ownable.sol\":547:570  owner() == _msgSender() */\n      0xffffffffffffffffffffffffffffffffffffffff\n      and\n        /* \"Ownable.sol\":547:554  owner() */\n      tag_348\n        /* \"Ownable.sol\":547:552  owner */\n      tag_78\n        /* \"Ownable.sol\":547:554  owner() */\n      jump\t// in\n    tag_348:\n        /* \"Ownable.sol\":547:570  owner() == _msgSender() */\n      0xffffffffffffffffffffffffffffffffffffffff\n      and\n      eq\n        /* \"Ownable.sol\":539:607  require(owner() == _msgSender(), \"Ownable: caller is not the owner\") */\n      tag_349\n      jumpi\n      mload(0x40)\n      0x08c379a000000000000000000000000000000000000000000000000000000000\n      dup2\n      mstore\n      0x04\n      add\n      tag_350\n      swap1\n      tag_165\n      jump\t// in\n    tag_350:\n      mload(0x40)\n      dup1\n      swap2\n      sub\n      swap1\n      revert\n    tag_349:\n        /* \"Ownable.sol\":855:856  0 */\n      0x00\n        /* \"Ownable.sol\":835:857  newOwner != address(0) */\n      0xffffffffffffffffffffffffffffffffffffffff\n      and\n        /* \"Ownable.sol\":835:843  newOwner */\n      dup2\n        /* \"Ownable.sol\":835:857  newOwner != address(0) */\n      0xffffffffffffffffffffffffffffffffffffffff\n      and\n      eq\n      iszero\n        /* \"Ownable.sol\":827:900  require(newOwner != address(0), \"Ownable: new owner is the zero address\") */\n      tag_352\n      jumpi\n      mload(0x40)\n      0x08c379a000000000000000000000000000000000000000000000000000000000\n      dup2\n      mstore\n      0x04\n      add\n      tag_353\n      swap1\n      tag_354\n      jump\t// in\n    tag_353:\n      mload(0x40)\n      dup1\n      swap2\n      sub\n      swap1\n      revert\n    tag_352:\n        /* \"Ownable.sol\":911:939  _transferOwnership(newOwner) */\n      tag_355\n        /* \"Ownable.sol\":930:938  newOwner */\n      dup2\n        /* \"Ownable.sol\":911:929  _transferOwnership */\n      tag_168\n        /* \"Ownable.sol\":911:939  _transferOwnership(newOwner) */\n      jump\t// in\n    tag_355:\n        /* \"Ownable.sol\":746:947  function transferOwnership(address newOwner) public virtual onlyOwner {\r... */\n      pop\n      jump\t// out\n        /* \"@openzeppelin/contracts/utils/Context.sol\":640:736  function _msgSender() internal view virtual returns (address) {... */\n    tag_161:\n        /* \"@openzeppelin/contracts/utils/Context.sol\":693:700  address */\n      0x00\n        /* \"@openzeppelin/contracts/utils/Context.sol\":719:729  msg.sender */\n      caller\n        /* \"@openzeppelin/contracts/utils/Context.sol\":712:729  return msg.sender */\n      swap1\n      pop\n        /* \"@openzeppelin/contracts/utils/Context.sol\":640:736  function _msgSender() internal view virtual returns (address) {... */\n      swap1\n      jump\t// out\n        /* \"Ownable.sol\":955:1146  function _transferOwnership(address newOwner) internal virtual {\r... */\n    tag_168:\n        /* \"Ownable.sol\":1029:1045  address oldOwner */\n      0x00\n        /* \"Ownable.sol\":1048:1054  _owner */\n      dup1\n      0x00\n      swap1\n      sload\n      swap1\n      0x0100\n      exp\n      swap1\n      div\n      0xffffffffffffffffffffffffffffffffffffffff\n      and\n        /* \"Ownable.sol\":1029:1054  address oldOwner = _owner */\n      swap1\n      pop\n        /* \"Ownable.sol\":1074:1082  newOwner */\n      dup2\n        /* \"Ownable.sol\":1065:1071  _owner */\n      0x00\n      dup1\n        /* \"Ownable.sol\":1065:1082  _owner = newOwner */\n      0x0100\n      exp\n      dup2\n      sload\n      dup2\n      0xffffffffffffffffffffffffffffffffffffffff\n      mul\n      not\n      and\n      swap1\n      dup4\n      0xffffffffffffffffffffffffffffffffffffffff\n      and\n      mul\n      or\n      swap1\n      sstore\n      pop\n        /* \"Ownable.sol\":1129:1137  newOwner */\n      dup2\n        /* \"Ownable.sol\":1098:1138  OwnershipTransferred(oldOwner, newOwner) */\n      0xffffffffffffffffffffffffffffffffffffffff\n      and\n        /* \"Ownable.sol\":1119:1127  oldOwner */\n      dup2\n        /* \"Ownable.sol\":1098:1138  OwnershipTransferred(oldOwner, newOwner) */\n      0xffffffffffffffffffffffffffffffffffffffff\n      and\n      0x8be0079c531659141344cd1fd0a4f28419497f9722a3daafe3b4186f6b6457e0\n      mload(0x40)\n      mload(0x40)\n      dup1\n      swap2\n      sub\n      swap1\n      log3\n        /* \"Ownable.sol\":1018:1146  {\r... */\n      pop\n        /* \"Ownable.sol\":955:1146  function _transferOwnership(address newOwner) internal virtual {\r... */\n      pop\n      jump\t// out\n        /* \"#utility.yul\":7:146   */\n    tag_359:\n        /* \"#utility.yul\":53:58   */\n      0x00\n        /* \"#utility.yul\":91:97   */\n      dup2\n        /* \"#utility.yul\":78:98   */\n      calldataload\n        /* \"#utility.yul\":69:98   */\n      swap1\n      pop\n        /* \"#utility.yul\":107:140   */\n      tag_361\n        /* \"#utility.yul\":134:139   */\n      dup2\n        /* \"#utility.yul\":107:140   */\n      tag_362\n      jump\t// in\n    tag_361:\n        /* \"#utility.yul\":7:146   */\n      swap3\n      swap2\n      pop\n      pop\n      jump\t// out\n        /* \"#utility.yul\":152:295   */\n    tag_363:\n        /* \"#utility.yul\":209:214   */\n      0x00\n        /* \"#utility.yul\":240:246   */\n      dup2\n        /* \"#utility.yul\":234:247   */\n      mload\n        /* \"#utility.yul\":225:247   */\n      swap1\n      pop\n        /* \"#utility.yul\":256:289   */\n      tag_365\n        /* \"#utility.yul\":283:288   */\n      dup2\n        /* \"#utility.yul\":256:289   */\n      tag_362\n      jump\t// in\n    tag_365:\n        /* \"#utility.yul\":152:295   */\n      swap3\n      swap2\n      pop\n      pop\n      jump\t// out\n        /* \"#utility.yul\":318:886   */\n    tag_366:\n        /* \"#utility.yul\":391:399   */\n      0x00\n        /* \"#utility.yul\":401:407   */\n      dup1\n        /* \"#utility.yul\":451:454   */\n      dup4\n        /* \"#utility.yul\":444:448   */\n      0x1f\n        /* \"#utility.yul\":436:442   */\n      dup5\n        /* \"#utility.yul\":432:449   */\n      add\n        /* \"#utility.yul\":428:455   */\n      slt\n        /* \"#utility.yul\":418:540   */\n      tag_368\n      jumpi\n        /* \"#utility.yul\":459:538   */\n      tag_369\n      tag_370\n      jump\t// in\n    tag_369:\n        /* \"#utility.yul\":418:540   */\n    tag_368:\n        /* \"#utility.yul\":572:578   */\n      dup3\n        /* \"#utility.yul\":559:579   */\n      calldataload\n        /* \"#utility.yul\":549:579   */\n      swap1\n      pop\n        /* \"#utility.yul\":602:620   */\n      0xffffffffffffffff\n        /* \"#utility.yul\":594:600   */\n      dup2\n        /* \"#utility.yul\":591:621   */\n      gt\n        /* \"#utility.yul\":588:705   */\n      iszero\n      tag_371\n      jumpi\n        /* \"#utility.yul\":624:703   */\n      tag_372\n      tag_373\n      jump\t// in\n    tag_372:\n        /* \"#utility.yul\":588:705   */\n    tag_371:\n        /* \"#utility.yul\":738:742   */\n      0x20\n        /* \"#utility.yul\":730:736   */\n      dup4\n        /* \"#utility.yul\":726:743   */\n      add\n        /* \"#utility.yul\":714:743   */\n      swap2\n      pop\n        /* \"#utility.yul\":792:795   */\n      dup4\n        /* \"#utility.yul\":784:788   */\n      0x20\n        /* \"#utility.yul\":776:782   */\n      dup3\n        /* \"#utility.yul\":772:789   */\n      mul\n        /* \"#utility.yul\":762:770   */\n      dup4\n        /* \"#utility.yul\":758:790   */\n      add\n        /* \"#utility.yul\":755:796   */\n      gt\n        /* \"#utility.yul\":752:880   */\n      iszero\n      tag_374\n      jumpi\n        /* \"#utility.yul\":799:878   */\n      tag_375\n      tag_376\n      jump\t// in\n    tag_375:\n        /* \"#utility.yul\":752:880   */\n    tag_374:\n        /* \"#utility.yul\":318:886   */\n      swap3\n      pop\n      swap3\n      swap1\n      pop\n      jump\t// out\n        /* \"#utility.yul\":892:1029   */\n    tag_377:\n        /* \"#utility.yul\":946:951   */\n      0x00\n        /* \"#utility.yul\":977:983   */\n      dup2\n        /* \"#utility.yul\":971:984   */\n      mload\n        /* \"#utility.yul\":962:984   */\n      swap1\n      pop\n        /* \"#utility.yul\":993:1023   */\n      tag_379\n        /* \"#utility.yul\":1017:1022   */\n      dup2\n        /* \"#utility.yul\":993:1023   */\n      tag_380\n      jump\t// in\n    tag_379:\n        /* \"#utility.yul\":892:1029   */\n      swap3\n      swap2\n      pop\n      pop\n      jump\t// out\n        /* \"#utility.yul\":1035:1174   */\n    tag_381:\n        /* \"#utility.yul\":1081:1086   */\n      0x00\n        /* \"#utility.yul\":1119:1125   */\n      dup2\n        /* \"#utility.yul\":1106:1126   */\n      calldataload\n        /* \"#utility.yul\":1097:1126   */\n      swap1\n      pop\n        /* \"#utility.yul\":1135:1168   */\n      tag_383\n        /* \"#utility.yul\":1162:1167   */\n      dup2\n        /* \"#utility.yul\":1135:1168   */\n      tag_384\n      jump\t// in\n    tag_383:\n        /* \"#utility.yul\":1035:1174   */\n      swap3\n      swap2\n      pop\n      pop\n      jump\t// out\n        /* \"#utility.yul\":1180:1323   */\n    tag_385:\n        /* \"#utility.yul\":1237:1242   */\n      0x00\n        /* \"#utility.yul\":1268:1274   */\n      dup2\n        /* \"#utility.yul\":1262:1275   */\n      mload\n        /* \"#utility.yul\":1253:1275   */\n      swap1\n      pop\n        /* \"#utility.yul\":1284:1317   */\n      tag_387\n        /* \"#utility.yul\":1311:1316   */\n      dup2\n        /* \"#utility.yul\":1284:1317   */\n      tag_384\n      jump\t// in\n    tag_387:\n        /* \"#utility.yul\":1180:1323   */\n      swap3\n      swap2\n      pop\n      pop\n      jump\t// out\n        /* \"#utility.yul\":1329:1658   */\n    tag_91:\n        /* \"#utility.yul\":1388:1394   */\n      0x00\n        /* \"#utility.yul\":1437:1439   */\n      0x20\n        /* \"#utility.yul\":1425:1434   */\n      dup3\n        /* \"#utility.yul\":1416:1423   */\n      dup5\n        /* \"#utility.yul\":1412:1435   */\n      sub\n        /* \"#utility.yul\":1408:1440   */\n      slt\n        /* \"#utility.yul\":1405:1524   */\n      iszero\n      tag_389\n      jumpi\n        /* \"#utility.yul\":1443:1522   */\n      tag_390\n      tag_391\n      jump\t// in\n    tag_390:\n        /* \"#utility.yul\":1405:1524   */\n    tag_389:\n        /* \"#utility.yul\":1563:1564   */\n      0x00\n        /* \"#utility.yul\":1588:1641   */\n      tag_392\n        /* \"#utility.yul\":1633:1640   */\n      dup5\n        /* \"#utility.yul\":1624:1630   */\n      dup3\n        /* \"#utility.yul\":1613:1622   */\n      dup6\n        /* \"#utility.yul\":1609:1631   */\n      add\n        /* \"#utility.yul\":1588:1641   */\n      tag_359\n      jump\t// in\n    tag_392:\n        /* \"#utility.yul\":1578:1641   */\n      swap2\n      pop\n        /* \"#utility.yul\":1534:1651   */\n      pop\n        /* \"#utility.yul\":1329:1658   */\n      swap3\n      swap2\n      pop\n      pop\n      jump\t// out\n        /* \"#utility.yul\":1664:2015   */\n    tag_175:\n        /* \"#utility.yul\":1734:1740   */\n      0x00\n        /* \"#utility.yul\":1783:1785   */\n      0x20\n        /* \"#utility.yul\":1771:1780   */\n      dup3\n        /* \"#utility.yul\":1762:1769   */\n      dup5\n        /* \"#utility.yul\":1758:1781   */\n      sub\n        /* \"#utility.yul\":1754:1786   */\n      slt\n        /* \"#utility.yul\":1751:1870   */\n      iszero\n      tag_394\n      jumpi\n        /* \"#utility.yul\":1789:1868   */\n      tag_395\n      tag_391\n      jump\t// in\n    tag_395:\n        /* \"#utility.yul\":1751:1870   */\n    tag_394:\n        /* \"#utility.yul\":1909:1910   */\n      0x00\n        /* \"#utility.yul\":1934:1998   */\n      tag_396\n        /* \"#utility.yul\":1990:1997   */\n      dup5\n        /* \"#utility.yul\":1981:1987   */\n      dup3\n        /* \"#utility.yul\":1970:1979   */\n      dup6\n        /* \"#utility.yul\":1966:1988   */\n      add\n        /* \"#utility.yul\":1934:1998   */\n      tag_363\n      jump\t// in\n    tag_396:\n        /* \"#utility.yul\":1924:1998   */\n      swap2\n      pop\n        /* \"#utility.yul\":1880:2008   */\n      pop\n        /* \"#utility.yul\":1664:2015   */\n      swap3\n      swap2\n      pop\n      pop\n      jump\t// out\n        /* \"#utility.yul\":2021:3684   */\n    tag_86:\n        /* \"#utility.yul\":2188:2194   */\n      0x00\n        /* \"#utility.yul\":2196:2202   */\n      dup1\n        /* \"#utility.yul\":2204:2210   */\n      0x00\n        /* \"#utility.yul\":2212:2218   */\n      dup1\n        /* \"#utility.yul\":2220:2226   */\n      0x00\n        /* \"#utility.yul\":2228:2234   */\n      dup1\n        /* \"#utility.yul\":2236:2242   */\n      0x00\n        /* \"#utility.yul\":2244:2250   */\n      dup1\n        /* \"#utility.yul\":2252:2258   */\n      0x00\n        /* \"#utility.yul\":2301:2304   */\n      0xe0\n        /* \"#utility.yul\":2289:2298   */\n      dup11\n        /* \"#utility.yul\":2280:2287   */\n      dup13\n        /* \"#utility.yul\":2276:2299   */\n      sub\n        /* \"#utility.yul\":2272:2305   */\n      slt\n        /* \"#utility.yul\":2269:2389   */\n      iszero\n      tag_398\n      jumpi\n        /* \"#utility.yul\":2308:2387   */\n      tag_399\n      tag_391\n      jump\t// in\n    tag_399:\n        /* \"#utility.yul\":2269:2389   */\n    tag_398:\n        /* \"#utility.yul\":2428:2429   */\n      0x00\n        /* \"#utility.yul\":2453:2506   */\n      tag_400\n        /* \"#utility.yul\":2498:2505   */\n      dup13\n        /* \"#utility.yul\":2489:2495   */\n      dup3\n        /* \"#utility.yul\":2478:2487   */\n      dup14\n        /* \"#utility.yul\":2474:2496   */\n      add\n        /* \"#utility.yul\":2453:2506   */\n      tag_359\n      jump\t// in\n    tag_400:\n        /* \"#utility.yul\":2443:2506   */\n      swap10\n      pop\n        /* \"#utility.yul\":2399:2516   */\n      pop\n        /* \"#utility.yul\":2555:2557   */\n      0x20\n        /* \"#utility.yul\":2581:2634   */\n      tag_401\n        /* \"#utility.yul\":2626:2633   */\n      dup13\n        /* \"#utility.yul\":2617:2623   */\n      dup3\n        /* \"#utility.yul\":2606:2615   */\n      dup14\n        /* \"#utility.yul\":2602:2624   */\n      add\n        /* \"#utility.yul\":2581:2634   */\n      tag_359\n      jump\t// in\n    tag_401:\n        /* \"#utility.yul\":2571:2634   */\n      swap9\n      pop\n        /* \"#utility.yul\":2526:2644   */\n      pop\n        /* \"#utility.yul\":2711:2713   */\n      0x40\n        /* \"#utility.yul\":2700:2709   */\n      dup11\n        /* \"#utility.yul\":2696:2714   */\n      add\n        /* \"#utility.yul\":2683:2715   */\n      calldataload\n        /* \"#utility.yul\":2742:2760   */\n      0xffffffffffffffff\n        /* \"#utility.yul\":2734:2740   */\n      dup2\n        /* \"#utility.yul\":2731:2761   */\n      gt\n        /* \"#utility.yul\":2728:2845   */\n      iszero\n      tag_402\n      jumpi\n        /* \"#utility.yul\":2764:2843   */\n      tag_403\n      tag_404\n      jump\t// in\n    tag_403:\n        /* \"#utility.yul\":2728:2845   */\n    tag_402:\n        /* \"#utility.yul\":2877:2957   */\n      tag_405\n        /* \"#utility.yul\":2949:2956   */\n      dup13\n        /* \"#utility.yul\":2940:2946   */\n      dup3\n        /* \"#utility.yul\":2929:2938   */\n      dup14\n        /* \"#utility.yul\":2925:2947   */\n      add\n        /* \"#utility.yul\":2877:2957   */\n      tag_366\n      jump\t// in\n    tag_405:\n        /* \"#utility.yul\":2859:2957   */\n      swap8\n      pop\n      swap8\n      pop\n        /* \"#utility.yul\":2654:2967   */\n      pop\n        /* \"#utility.yul\":3006:3008   */\n      0x60\n        /* \"#utility.yul\":3032:3085   */\n      tag_406\n        /* \"#utility.yul\":3077:3084   */\n      dup13\n        /* \"#utility.yul\":3068:3074   */\n      dup3\n        /* \"#utility.yul\":3057:3066   */\n      dup14\n        /* \"#utility.yul\":3053:3075   */\n      add\n        /* \"#utility.yul\":3032:3085   */\n      tag_359\n      jump\t// in\n    tag_406:\n        /* \"#utility.yul\":3022:3085   */\n      swap6\n      pop\n        /* \"#utility.yul\":2977:3095   */\n      pop\n        /* \"#utility.yul\":3134:3137   */\n      0x80\n        /* \"#utility.yul\":3161:3214   */\n      tag_407\n        /* \"#utility.yul\":3206:3213   */\n      dup13\n        /* \"#utility.yul\":3197:3203   */\n      dup3\n        /* \"#utility.yul\":3186:3195   */\n      dup14\n        /* \"#utility.yul\":3182:3204   */\n      add\n        /* \"#utility.yul\":3161:3214   */\n      tag_381\n      jump\t// in\n    tag_407:\n        /* \"#utility.yul\":3151:3214   */\n      swap5\n      pop\n        /* \"#utility.yul\":3105:3224   */\n      pop\n        /* \"#utility.yul\":3291:3294   */\n      0xa0\n        /* \"#utility.yul\":3280:3289   */\n      dup11\n        /* \"#utility.yul\":3276:3295   */\n      add\n        /* \"#utility.yul\":3263:3296   */\n      calldataload\n        /* \"#utility.yul\":3323:3341   */\n      0xffffffffffffffff\n        /* \"#utility.yul\":3315:3321   */\n      dup2\n        /* \"#utility.yul\":3312:3342   */\n      gt\n        /* \"#utility.yul\":3309:3426   */\n      iszero\n      tag_408\n      jumpi\n        /* \"#utility.yul\":3345:3424   */\n      tag_409\n      tag_404\n      jump\t// in\n    tag_409:\n        /* \"#utility.yul\":3309:3426   */\n    tag_408:\n        /* \"#utility.yul\":3458:3538   */\n      tag_410\n        /* \"#utility.yul\":3530:3537   */\n      dup13\n        /* \"#utility.yul\":3521:3527   */\n      dup3\n        /* \"#utility.yul\":3510:3519   */\n      dup14\n        /* \"#utility.yul\":3506:3528   */\n      add\n        /* \"#utility.yul\":3458:3538   */\n      tag_366\n      jump\t// in\n    tag_410:\n        /* \"#utility.yul\":3440:3538   */\n      swap4\n      pop\n      swap4\n      pop\n        /* \"#utility.yul\":3234:3548   */\n      pop\n        /* \"#utility.yul\":3587:3590   */\n      0xc0\n        /* \"#utility.yul\":3614:3667   */\n      tag_411\n        /* \"#utility.yul\":3659:3666   */\n      dup13\n        /* \"#utility.yul\":3650:3656   */\n      dup3\n        /* \"#utility.yul\":3639:3648   */\n      dup14\n        /* \"#utility.yul\":3635:3657   */\n      add\n        /* \"#utility.yul\":3614:3667   */\n      tag_381\n      jump\t// in\n    tag_411:\n        /* \"#utility.yul\":3604:3667   */\n      swap2\n      pop\n        /* \"#utility.yul\":3558:3677   */\n      pop\n        /* \"#utility.yul\":2021:3684   */\n      swap3\n      swap6\n      swap9\n      pop\n      swap3\n      swap6\n      swap9\n      pop\n      swap3\n      swap6\n      swap9\n      jump\t// out\n        /* \"#utility.yul\":3690:4893   */\n    tag_47:\n        /* \"#utility.yul\":3803:3809   */\n      0x00\n        /* \"#utility.yul\":3811:3817   */\n      dup1\n        /* \"#utility.yul\":3819:3825   */\n      0x00\n        /* \"#utility.yul\":3827:3833   */\n      dup1\n        /* \"#utility.yul\":3835:3841   */\n      0x00\n        /* \"#utility.yul\":3843:3849   */\n      dup1\n        /* \"#utility.yul\":3851:3857   */\n      0x00\n        /* \"#utility.yul\":3900:3903   */\n      0xe0\n        /* \"#utility.yul\":3888:3897   */\n      dup9\n        /* \"#utility.yul\":3879:3886   */\n      dup11\n        /* \"#utility.yul\":3875:3898   */\n      sub\n        /* \"#utility.yul\":3871:3904   */\n      slt\n        /* \"#utility.yul\":3868:3988   */\n      iszero\n      tag_413\n      jumpi\n        /* \"#utility.yul\":3907:3986   */\n      tag_414\n      tag_391\n      jump\t// in\n    tag_414:\n        /* \"#utility.yul\":3868:3988   */\n    tag_413:\n        /* \"#utility.yul\":4027:4028   */\n      0x00\n        /* \"#utility.yul\":4052:4105   */\n      tag_415\n        /* \"#utility.yul\":4097:4104   */\n      dup11\n        /* \"#utility.yul\":4088:4094   */\n      dup3\n        /* \"#utility.yul\":4077:4086   */\n      dup12\n        /* \"#utility.yul\":4073:4095   */\n      add\n        /* \"#utility.yul\":4052:4105   */\n      tag_359\n      jump\t// in\n    tag_415:\n        /* \"#utility.yul\":4042:4105   */\n      swap8\n      pop\n        /* \"#utility.yul\":3998:4115   */\n      pop\n        /* \"#utility.yul\":4154:4156   */\n      0x20\n        /* \"#utility.yul\":4180:4233   */\n      tag_416\n        /* \"#utility.yul\":4225:4232   */\n      dup11\n        /* \"#utility.yul\":4216:4222   */\n      dup3\n        /* \"#utility.yul\":4205:4214   */\n      dup12\n        /* \"#utility.yul\":4201:4223   */\n      add\n        /* \"#utility.yul\":4180:4233   */\n      tag_359\n      jump\t// in\n    tag_416:\n        /* \"#utility.yul\":4170:4233   */\n      swap7\n      pop\n        /* \"#utility.yul\":4125:4243   */\n      pop\n        /* \"#utility.yul\":4282:4284   */\n      0x40\n        /* \"#utility.yul\":4308:4361   */\n      tag_417\n        /* \"#utility.yul\":4353:4360   */\n      dup11\n        /* \"#utility.yul\":4344:4350   */\n      dup3\n        /* \"#utility.yul\":4333:4342   */\n      dup12\n        /* \"#utility.yul\":4329:4351   */\n      add\n        /* \"#utility.yul\":4308:4361   */\n      tag_381\n      jump\t// in\n    tag_417:\n        /* \"#utility.yul\":4298:4361   */\n      swap6\n      pop\n        /* \"#utility.yul\":4253:4371   */\n      pop\n        /* \"#utility.yul\":4410:4412   */\n      0x60\n        /* \"#utility.yul\":4436:4489   */\n      tag_418\n        /* \"#utility.yul\":4481:4488   */\n      dup11\n        /* \"#utility.yul\":4472:4478   */\n      dup3\n        /* \"#utility.yul\":4461:4470   */\n      dup12\n        /* \"#utility.yul\":4457:4479   */\n      add\n        /* \"#utility.yul\":4436:4489   */\n      tag_359\n      jump\t// in\n    tag_418:\n        /* \"#utility.yul\":4426:4489   */\n      swap5\n      pop\n        /* \"#utility.yul\":4381:4499   */\n      pop\n        /* \"#utility.yul\":4538:4541   */\n      0x80\n        /* \"#utility.yul\":4565:4618   */\n      tag_419\n        /* \"#utility.yul\":4610:4617   */\n      dup11\n        /* \"#utility.yul\":4601:4607   */\n      dup3\n        /* \"#utility.yul\":4590:4599   */\n      dup12\n        /* \"#utility.yul\":4586:4608   */\n      add\n        /* \"#utility.yul\":4565:4618   */\n      tag_381\n      jump\t// in\n    tag_419:\n        /* \"#utility.yul\":4555:4618   */\n      swap4\n      pop\n        /* \"#utility.yul\":4509:4628   */\n      pop\n        /* \"#utility.yul\":4667:4670   */\n      0xa0\n        /* \"#utility.yul\":4694:4747   */\n      tag_420\n        /* \"#utility.yul\":4739:4746   */\n      dup11\n        /* \"#utility.yul\":4730:4736   */\n      dup3\n        /* \"#utility.yul\":4719:4728   */\n      dup12\n        /* \"#utility.yul\":4715:4737   */\n      add\n        /* \"#utility.yul\":4694:4747   */\n      tag_381\n      jump\t// in\n    tag_420:\n        /* \"#utility.yul\":4684:4747   */\n      swap3\n      pop\n        /* \"#utility.yul\":4638:4757   */\n      pop\n        /* \"#utility.yul\":4796:4799   */\n      0xc0\n        /* \"#utility.yul\":4823:4876   */\n      tag_421\n        /* \"#utility.yul\":4868:4875   */\n      dup11\n        /* \"#utility.yul\":4859:4865   */\n      dup3\n        /* \"#utility.yul\":4848:4857   */\n      dup12\n        /* \"#utility.yul\":4844:4866   */\n      add\n        /* \"#utility.yul\":4823:4876   */\n      tag_381\n      jump\t// in\n    tag_421:\n        /* \"#utility.yul\":4813:4876   */\n      swap2\n      pop\n        /* \"#utility.yul\":4767:4886   */\n      pop\n        /* \"#utility.yul\":3690:4893   */\n      swap3\n      swap6\n      swap9\n      swap2\n      swap5\n      swap8\n      pop\n      swap3\n      swap6\n      pop\n      jump\t// out\n        /* \"#utility.yul\":4899:6416   */\n    tag_74:\n        /* \"#utility.yul\":5057:5063   */\n      0x00\n        /* \"#utility.yul\":5065:5071   */\n      dup1\n        /* \"#utility.yul\":5073:5079   */\n      0x00\n        /* \"#utility.yul\":5081:5087   */\n      dup1\n        /* \"#utility.yul\":5089:5095   */\n      0x00\n        /* \"#utility.yul\":5097:5103   */\n      dup1\n        /* \"#utility.yul\":5105:5111   */\n      0x00\n        /* \"#utility.yul\":5113:5119   */\n      dup1\n        /* \"#utility.yul\":5162:5165   */\n      0xc0\n        /* \"#utility.yul\":5150:5159   */\n      dup10\n        /* \"#utility.yul\":5141:5148   */\n      dup12\n        /* \"#utility.yul\":5137:5160   */\n      sub\n        /* \"#utility.yul\":5133:5166   */\n      slt\n        /* \"#utility.yul\":5130:5250   */\n      iszero\n      tag_423\n      jumpi\n        /* \"#utility.yul\":5169:5248   */\n      tag_424\n      tag_391\n      jump\t// in\n    tag_424:\n        /* \"#utility.yul\":5130:5250   */\n    tag_423:\n        /* \"#utility.yul\":5289:5290   */\n      0x00\n        /* \"#utility.yul\":5314:5367   */\n      tag_425\n        /* \"#utility.yul\":5359:5366   */\n      dup12\n        /* \"#utility.yul\":5350:5356   */\n      dup3\n        /* \"#utility.yul\":5339:5348   */\n      dup13\n        /* \"#utility.yul\":5335:5357   */\n      add\n        /* \"#utility.yul\":5314:5367   */\n      tag_359\n      jump\t// in\n    tag_425:\n        /* \"#utility.yul\":5304:5367   */\n      swap9\n      pop\n        /* \"#utility.yul\":5260:5377   */\n      pop\n        /* \"#utility.yul\":5444:5446   */\n      0x20\n        /* \"#utility.yul\":5433:5442   */\n      dup10\n        /* \"#utility.yul\":5429:5447   */\n      add\n        /* \"#utility.yul\":5416:5448   */\n      calldataload\n        /* \"#utility.yul\":5475:5493   */\n      0xffffffffffffffff\n        /* \"#utility.yul\":5467:5473   */\n      dup2\n        /* \"#utility.yul\":5464:5494   */\n      gt\n        /* \"#utility.yul\":5461:5578   */\n      iszero\n      tag_426\n      jumpi\n        /* \"#utility.yul\":5497:5576   */\n      tag_427\n      tag_404\n      jump\t// in\n    tag_427:\n        /* \"#utility.yul\":5461:5578   */\n    tag_426:\n        /* \"#utility.yul\":5610:5690   */\n      tag_428\n        /* \"#utility.yul\":5682:5689   */\n      dup12\n        /* \"#utility.yul\":5673:5679   */\n      dup3\n        /* \"#utility.yul\":5662:5671   */\n      dup13\n        /* \"#utility.yul\":5658:5680   */\n      add\n        /* \"#utility.yul\":5610:5690   */\n      tag_366\n      jump\t// in\n    tag_428:\n        /* \"#utility.yul\":5592:5690   */\n      swap8\n      pop\n      swap8\n      pop\n        /* \"#utility.yul\":5387:5700   */\n      pop\n        /* \"#utility.yul\":5739:5741   */\n      0x40\n        /* \"#utility.yul\":5765:5818   */\n      tag_429\n        /* \"#utility.yul\":5810:5817   */\n      dup12\n        /* \"#utility.yul\":5801:5807   */\n      dup3\n        /* \"#utility.yul\":5790:5799   */\n      dup13\n        /* \"#utility.yul\":5786:5808   */\n      add\n        /* \"#utility.yul\":5765:5818   */\n      tag_359\n      jump\t// in\n    tag_429:\n        /* \"#utility.yul\":5755:5818   */\n      swap6\n      pop\n        /* \"#utility.yul\":5710:5828   */\n      pop\n        /* \"#utility.yul\":5867:5869   */\n      0x60\n        /* \"#utility.yul\":5893:5946   */\n      tag_430\n        /* \"#utility.yul\":5938:5945   */\n      dup12\n        /* \"#utility.yul\":5929:5935   */\n      dup3\n        /* \"#utility.yul\":5918:5927   */\n      dup13\n        /* \"#utility.yul\":5914:5936   */\n      add\n        /* \"#utility.yul\":5893:5946   */\n      tag_381\n      jump\t// in\n    tag_430:\n        /* \"#utility.yul\":5883:5946   */\n      swap5\n      pop\n        /* \"#utility.yul\":5838:5956   */\n      pop\n        /* \"#utility.yul\":6023:6026   */\n      0x80\n        /* \"#utility.yul\":6012:6021   */\n      dup10\n        /* \"#utility.yul\":6008:6027   */\n      add\n        /* \"#utility.yul\":5995:6028   */\n      calldataload\n        /* \"#utility.yul\":6055:6073   */\n      0xffffffffffffffff\n        /* \"#utility.yul\":6047:6053   */\n      dup2\n        /* \"#utility.yul\":6044:6074   */\n      gt\n        /* \"#utility.yul\":6041:6158   */\n      iszero\n      tag_431\n      jumpi\n        /* \"#utility.yul\":6077:6156   */\n      tag_432\n      tag_404\n      jump\t// in\n    tag_432:\n        /* \"#utility.yul\":6041:6158   */\n    tag_431:\n        /* \"#utility.yul\":6190:6270   */\n      tag_433\n        /* \"#utility.yul\":6262:6269   */\n      dup12\n        /* \"#utility.yul\":6253:6259   */\n      dup3\n        /* \"#utility.yul\":6242:6251   */\n      dup13\n        /* \"#utility.yul\":6238:6260   */\n      add\n        /* \"#utility.yul\":6190:6270   */\n      tag_366\n      jump\t// in\n    tag_433:\n        /* \"#utility.yul\":6172:6270   */\n      swap4\n      pop\n      swap4\n      pop\n        /* \"#utility.yul\":5966:6280   */\n      pop\n        /* \"#utility.yul\":6319:6322   */\n      0xa0\n        /* \"#utility.yul\":6346:6399   */\n      tag_434\n        /* \"#utility.yul\":6391:6398   */\n      dup12\n        /* \"#utility.yul\":6382:6388   */\n      dup3\n        /* \"#utility.yul\":6371:6380   */\n      dup13\n        /* \"#utility.yul\":6367:6389   */\n      add\n        /* \"#utility.yul\":6346:6399   */\n      tag_381\n      jump\t// in\n    tag_434:\n        /* \"#utility.yul\":6336:6399   */\n      swap2\n      pop\n        /* \"#utility.yul\":6290:6409   */\n      pop\n        /* \"#utility.yul\":4899:6416   */\n      swap3\n      swap6\n      swap9\n      pop\n      swap3\n      swap6\n      swap9\n      swap1\n      swap4\n      swap7\n      pop\n      jump\t// out\n        /* \"#utility.yul\":6422:6896   */\n    tag_23:\n        /* \"#utility.yul\":6490:6496   */\n      0x00\n        /* \"#utility.yul\":6498:6504   */\n      dup1\n        /* \"#utility.yul\":6547:6549   */\n      0x40\n        /* \"#utility.yul\":6535:6544   */\n      dup4\n        /* \"#utility.yul\":6526:6533   */\n      dup6\n        /* \"#utility.yul\":6522:6545   */\n      sub\n        /* \"#utility.yul\":6518:6550   */\n      slt\n        /* \"#utility.yul\":6515:6634   */\n      iszero\n      tag_436\n      jumpi\n        /* \"#utility.yul\":6553:6632   */\n      tag_437\n      tag_391\n      jump\t// in\n    tag_437:\n        /* \"#utility.yul\":6515:6634   */\n    tag_436:\n        /* \"#utility.yul\":6673:6674   */\n      0x00\n        /* \"#utility.yul\":6698:6751   */\n      tag_438\n        /* \"#utility.yul\":6743:6750   */\n      dup6\n        /* \"#utility.yul\":6734:6740   */\n      dup3\n        /* \"#utility.yul\":6723:6732   */\n      dup7\n        /* \"#utility.yul\":6719:6741   */\n      add\n        /* \"#utility.yul\":6698:6751   */\n      tag_359\n      jump\t// in\n    tag_438:\n        /* \"#utility.yul\":6688:6751   */\n      swap3\n      pop\n        /* \"#utility.yul\":6644:6761   */\n      pop\n        /* \"#utility.yul\":6800:6802   */\n      0x20\n        /* \"#utility.yul\":6826:6879   */\n      tag_439\n        /* \"#utility.yul\":6871:6878   */\n      dup6\n        /* \"#utility.yul\":6862:6868   */\n      dup3\n        /* \"#utility.yul\":6851:6860   */\n      dup7\n        /* \"#utility.yul\":6847:6869   */\n      add\n        /* \"#utility.yul\":6826:6879   */\n      tag_381\n      jump\t// in\n    tag_439:\n        /* \"#utility.yul\":6816:6879   */\n      swap2\n      pop\n        /* \"#utility.yul\":6771:6889   */\n      pop\n        /* \"#utility.yul\":6422:6896   */\n      swap3\n      pop\n      swap3\n      swap1\n      pop\n      jump\t// out\n        /* \"#utility.yul\":6902:7959   */\n    tag_70:\n        /* \"#utility.yul\":7006:7012   */\n      0x00\n        /* \"#utility.yul\":7014:7020   */\n      dup1\n        /* \"#utility.yul\":7022:7028   */\n      0x00\n        /* \"#utility.yul\":7030:7036   */\n      dup1\n        /* \"#utility.yul\":7038:7044   */\n      0x00\n        /* \"#utility.yul\":7046:7052   */\n      dup1\n        /* \"#utility.yul\":7095:7098   */\n      0xc0\n        /* \"#utility.yul\":7083:7092   */\n      dup8\n        /* \"#utility.yul\":7074:7081   */\n      dup10\n        /* \"#utility.yul\":7070:7093   */\n      sub\n        /* \"#utility.yul\":7066:7099   */\n      slt\n        /* \"#utility.yul\":7063:7183   */\n      iszero\n      tag_441\n      jumpi\n        /* \"#utility.yul\":7102:7181   */\n      tag_442\n      tag_391\n      jump\t// in\n    tag_442:\n        /* \"#utility.yul\":7063:7183   */\n    tag_441:\n        /* \"#utility.yul\":7222:7223   */\n      0x00\n        /* \"#utility.yul\":7247:7300   */\n      tag_443\n        /* \"#utility.yul\":7292:7299   */\n      dup10\n        /* \"#utility.yul\":7283:7289   */\n      dup3\n        /* \"#utility.yul\":7272:7281   */\n      dup11\n        /* \"#utility.yul\":7268:7290   */\n      add\n        /* \"#utility.yul\":7247:7300   */\n      tag_359\n      jump\t// in\n    tag_443:\n        /* \"#utility.yul\":7237:7300   */\n      swap7\n      pop\n        /* \"#utility.yul\":7193:7310   */\n      pop\n        /* \"#utility.yul\":7349:7351   */\n      0x20\n        /* \"#utility.yul\":7375:7428   */\n      tag_444\n        /* \"#utility.yul\":7420:7427   */\n      dup10\n        /* \"#utility.yul\":7411:7417   */\n      dup3\n        /* \"#utility.yul\":7400:7409   */\n      dup11\n        /* \"#utility.yul\":7396:7418   */\n      add\n        /* \"#utility.yul\":7375:7428   */\n      tag_381\n      jump\t// in\n    tag_444:\n        /* \"#utility.yul\":7365:7428   */\n      swap6\n      pop\n        /* \"#utility.yul\":7320:7438   */\n      pop\n        /* \"#utility.yul\":7477:7479   */\n      0x40\n        /* \"#utility.yul\":7503:7556   */\n      tag_445\n        /* \"#utility.yul\":7548:7555   */\n      dup10\n        /* \"#utility.yul\":7539:7545   */\n      dup3\n        /* \"#utility.yul\":7528:7537   */\n      dup11\n        /* \"#utility.yul\":7524:7546   */\n      add\n        /* \"#utility.yul\":7503:7556   */\n      tag_359\n      jump\t// in\n    tag_445:\n        /* \"#utility.yul\":7493:7556   */\n      swap5\n      pop\n        /* \"#utility.yul\":7448:7566   */\n      pop\n        /* \"#utility.yul\":7605:7607   */\n      0x60\n        /* \"#utility.yul\":7631:7684   */\n      tag_446\n        /* \"#utility.yul\":7676:7683   */\n      dup10\n        /* \"#utility.yul\":7667:7673   */\n      dup3\n        /* \"#utility.yul\":7656:7665   */\n      dup11\n        /* \"#utility.yul\":7652:7674   */\n      add\n        /* \"#utility.yul\":7631:7684   */\n      tag_381\n      jump\t// in\n    tag_446:\n        /* \"#utility.yul\":7621:7684   */\n      swap4\n      pop\n        /* \"#utility.yul\":7576:7694   */\n      pop\n        /* \"#utility.yul\":7733:7736   */\n      0x80\n        /* \"#utility.yul\":7760:7813   */\n      tag_447\n        /* \"#utility.yul\":7805:7812   */\n      dup10\n        /* \"#utility.yul\":7796:7802   */\n      dup3\n        /* \"#utility.yul\":7785:7794   */\n      dup11\n        /* \"#utility.yul\":7781:7803   */\n      add\n        /* \"#utility.yul\":7760:7813   */\n      tag_381\n      jump\t// in\n    tag_447:\n        /* \"#utility.yul\":7750:7813   */\n      swap3\n      pop\n        /* \"#utility.yul\":7704:7823   */\n      pop\n        /* \"#utility.yul\":7862:7865   */\n      0xa0\n        /* \"#utility.yul\":7889:7942   */\n      tag_448\n        /* \"#utility.yul\":7934:7941   */\n      dup10\n        /* \"#utility.yul\":7925:7931   */\n      dup3\n        /* \"#utility.yul\":7914:7923   */\n      dup11\n        /* \"#utility.yul\":7910:7932   */\n      add\n        /* \"#utility.yul\":7889:7942   */\n      tag_381\n      jump\t// in\n    tag_448:\n        /* \"#utility.yul\":7879:7942   */\n      swap2\n      pop\n        /* \"#utility.yul\":7833:7952   */\n      pop\n        /* \"#utility.yul\":6902:7959   */\n      swap3\n      swap6\n      pop\n      swap3\n      swap6\n      pop\n      swap3\n      swap6\n      jump\t// out\n        /* \"#utility.yul\":7965:8584   */\n    tag_42:\n        /* \"#utility.yul\":8042:8048   */\n      0x00\n        /* \"#utility.yul\":8050:8056   */\n      dup1\n        /* \"#utility.yul\":8058:8064   */\n      0x00\n        /* \"#utility.yul\":8107:8109   */\n      0x60\n        /* \"#utility.yul\":8095:8104   */\n      dup5\n        /* \"#utility.yul\":8086:8093   */\n      dup7\n        /* \"#utility.yul\":8082:8105   */\n      sub\n        /* \"#utility.yul\":8078:8110   */\n      slt\n        /* \"#utility.yul\":8075:8194   */\n      iszero\n      tag_450\n      jumpi\n        /* \"#utility.yul\":8113:8192   */\n      tag_451\n      tag_391\n      jump\t// in\n    tag_451:\n        /* \"#utility.yul\":8075:8194   */\n    tag_450:\n        /* \"#utility.yul\":8233:8234   */\n      0x00\n        /* \"#utility.yul\":8258:8311   */\n      tag_452\n        /* \"#utility.yul\":8303:8310   */\n      dup7\n        /* \"#utility.yul\":8294:8300   */\n      dup3\n        /* \"#utility.yul\":8283:8292   */\n      dup8\n        /* \"#utility.yul\":8279:8301   */\n      add\n        /* \"#utility.yul\":8258:8311   */\n      tag_359\n      jump\t// in\n    tag_452:\n        /* \"#utility.yul\":8248:8311   */\n      swap4\n      pop\n        /* \"#utility.yul\":8204:8321   */\n      pop\n        /* \"#utility.yul\":8360:8362   */\n      0x20\n        /* \"#utility.yul\":8386:8439   */\n      tag_453\n        /* \"#utility.yul\":8431:8438   */\n      dup7\n        /* \"#utility.yul\":8422:8428   */\n      dup3\n        /* \"#utility.yul\":8411:8420   */\n      dup8\n        /* \"#utility.yul\":8407:8429   */\n      add\n        /* \"#utility.yul\":8386:8439   */\n      tag_381\n      jump\t// in\n    tag_453:\n        /* \"#utility.yul\":8376:8439   */\n      swap3\n      pop\n        /* \"#utility.yul\":8331:8449   */\n      pop\n        /* \"#utility.yul\":8488:8490   */\n      0x40\n        /* \"#utility.yul\":8514:8567   */\n      tag_454\n        /* \"#utility.yul\":8559:8566   */\n      dup7\n        /* \"#utility.yul\":8550:8556   */\n      dup3\n        /* \"#utility.yul\":8539:8548   */\n      dup8\n        /* \"#utility.yul\":8535:8557   */\n      add\n        /* \"#utility.yul\":8514:8567   */\n      tag_381\n      jump\t// in\n    tag_454:\n        /* \"#utility.yul\":8504:8567   */\n      swap2\n      pop\n        /* \"#utility.yul\":8459:8577   */\n      pop\n        /* \"#utility.yul\":7965:8584   */\n      swap3\n      pop\n      swap3\n      pop\n      swap3\n      jump\t// out\n        /* \"#utility.yul\":8590:8935   */\n    tag_122:\n        /* \"#utility.yul\":8657:8663   */\n      0x00\n        /* \"#utility.yul\":8706:8708   */\n      0x20\n        /* \"#utility.yul\":8694:8703   */\n      dup3\n        /* \"#utility.yul\":8685:8692   */\n      dup5\n        /* \"#utility.yul\":8681:8704   */\n      sub\n        /* \"#utility.yul\":8677:8709   */\n      slt\n        /* \"#utility.yul\":8674:8793   */\n      iszero\n      tag_456\n      jumpi\n        /* \"#utility.yul\":8712:8791   */\n      tag_457\n      tag_391\n      jump\t// in\n    tag_457:\n        /* \"#utility.yul\":8674:8793   */\n    tag_456:\n        /* \"#utility.yul\":8832:8833   */\n      0x00\n        /* \"#utility.yul\":8857:8918   */\n      tag_458\n        /* \"#utility.yul\":8910:8917   */\n      dup5\n        /* \"#utility.yul\":8901:8907   */\n      dup3\n        /* \"#utility.yul\":8890:8899   */\n      dup6\n        /* \"#utility.yul\":8886:8908   */\n      add\n        /* \"#utility.yul\":8857:8918   */\n      tag_377\n      jump\t// in\n    tag_458:\n        /* \"#utility.yul\":8847:8918   */\n      swap2\n      pop\n        /* \"#utility.yul\":8803:8928   */\n      pop\n        /* \"#utility.yul\":8590:8935   */\n      swap3\n      swap2\n      pop\n      pop\n      jump\t// out\n        /* \"#utility.yul\":8941:9292   */\n    tag_108:\n        /* \"#utility.yul\":9011:9017   */\n      0x00\n        /* \"#utility.yul\":9060:9062   */\n      0x20\n        /* \"#utility.yul\":9048:9057   */\n      dup3\n        /* \"#utility.yul\":9039:9046   */\n      dup5\n        /* \"#utility.yul\":9035:9058   */\n      sub\n        /* \"#utility.yul\":9031:9063   */\n      slt\n        /* \"#utility.yul\":9028:9147   */\n      iszero\n      tag_460\n      jumpi\n        /* \"#utility.yul\":9066:9145   */\n      tag_461\n      tag_391\n      jump\t// in\n    tag_461:\n        /* \"#utility.yul\":9028:9147   */\n    tag_460:\n        /* \"#utility.yul\":9186:9187   */\n      0x00\n        /* \"#utility.yul\":9211:9275   */\n      tag_462\n        /* \"#utility.yul\":9267:9274   */\n      dup5\n        /* \"#utility.yul\":9258:9264   */\n      dup3\n        /* \"#utility.yul\":9247:9256   */\n      dup6\n        /* \"#utility.yul\":9243:9265   */\n      add\n        /* \"#utility.yul\":9211:9275   */\n      tag_385\n      jump\t// in\n    tag_462:\n        /* \"#utility.yul\":9201:9275   */\n      swap2\n      pop\n        /* \"#utility.yul\":9157:9285   */\n      pop\n        /* \"#utility.yul\":8941:9292   */\n      swap3\n      swap2\n      pop\n      pop\n      jump\t// out\n        /* \"#utility.yul\":9298:9917   */\n    tag_66:\n        /* \"#utility.yul\":9375:9381   */\n      0x00\n        /* \"#utility.yul\":9383:9389   */\n      dup1\n        /* \"#utility.yul\":9391:9397   */\n      0x00\n        /* \"#utility.yul\":9440:9442   */\n      0x60\n        /* \"#utility.yul\":9428:9437   */\n      dup5\n        /* \"#utility.yul\":9419:9426   */\n      dup7\n        /* \"#utility.yul\":9415:9438   */\n      sub\n        /* \"#utility.yul\":9411:9443   */\n      slt\n        /* \"#utility.yul\":9408:9527   */\n      iszero\n      tag_464\n      jumpi\n        /* \"#utility.yul\":9446:9525   */\n      tag_465\n      tag_391\n      jump\t// in\n    tag_465:\n        /* \"#utility.yul\":9408:9527   */\n    tag_464:\n        /* \"#utility.yul\":9566:9567   */\n      0x00\n        /* \"#utility.yul\":9591:9644   */\n      tag_466\n        /* \"#utility.yul\":9636:9643   */\n      dup7\n        /* \"#utility.yul\":9627:9633   */\n      dup3\n        /* \"#utility.yul\":9616:9625   */\n      dup8\n        /* \"#utility.yul\":9612:9634   */\n      add\n        /* \"#utility.yul\":9591:9644   */\n      tag_381\n      jump\t// in\n    tag_466:\n        /* \"#utility.yul\":9581:9644   */\n      swap4\n      pop\n        /* \"#utility.yul\":9537:9654   */\n      pop\n        /* \"#utility.yul\":9693:9695   */\n      0x20\n        /* \"#utility.yul\":9719:9772   */\n      tag_467\n        /* \"#utility.yul\":9764:9771   */\n      dup7\n        /* \"#utility.yul\":9755:9761   */\n      dup3\n        /* \"#utility.yul\":9744:9753   */\n      dup8\n        /* \"#utility.yul\":9740:9762   */\n      add\n        /* \"#utility.yul\":9719:9772   */\n      tag_359\n      jump\t// in\n    tag_467:\n        /* \"#utility.yul\":9709:9772   */\n      swap3\n      pop\n        /* \"#utility.yul\":9664:9782   */\n      pop\n        /* \"#utility.yul\":9821:9823   */\n      0x40\n        /* \"#utility.yul\":9847:9900   */\n      tag_468\n        /* \"#utility.yul\":9892:9899   */\n      dup7\n        /* \"#utility.yul\":9883:9889   */\n      dup3\n        /* \"#utility.yul\":9872:9881   */\n      dup8\n        /* \"#utility.yul\":9868:9890   */\n      add\n        /* \"#utility.yul\":9847:9900   */\n      tag_381\n      jump\t// in\n    tag_468:\n        /* \"#utility.yul\":9837:9900   */\n      swap2\n      pop\n        /* \"#utility.yul\":9792:9910   */\n      pop\n        /* \"#utility.yul\":9298:9917   */\n      swap3\n      pop\n      swap3\n      pop\n      swap3\n      jump\t// out\n        /* \"#utility.yul\":9923:10041   */\n    tag_469:\n        /* \"#utility.yul\":10010:10034   */\n      tag_471\n        /* \"#utility.yul\":10028:10033   */\n      dup2\n        /* \"#utility.yul\":10010:10034   */\n      tag_472\n      jump\t// in\n    tag_471:\n        /* \"#utility.yul\":10005:10008   */\n      dup3\n        /* \"#utility.yul\":9998:10035   */\n      mstore\n        /* \"#utility.yul\":9923:10041   */\n      pop\n      pop\n      jump\t// out\n        /* \"#utility.yul\":10047:10156   */\n    tag_473:\n        /* \"#utility.yul\":10128:10149   */\n      tag_475\n        /* \"#utility.yul\":10143:10148   */\n      dup2\n        /* \"#utility.yul\":10128:10149   */\n      tag_476\n      jump\t// in\n    tag_475:\n        /* \"#utility.yul\":10123:10126   */\n      dup3\n        /* \"#utility.yul\":10116:10150   */\n      mstore\n        /* \"#utility.yul\":10047:10156   */\n      pop\n      pop\n      jump\t// out\n        /* \"#utility.yul\":10162:10528   */\n    tag_477:\n        /* \"#utility.yul\":10304:10307   */\n      0x00\n        /* \"#utility.yul\":10325:10392   */\n      tag_479\n        /* \"#utility.yul\":10389:10391   */\n      0x18\n        /* \"#utility.yul\":10384:10387   */\n      dup4\n        /* \"#utility.yul\":10325:10392   */\n      tag_480\n      jump\t// in\n    tag_479:\n        /* \"#utility.yul\":10318:10392   */\n      swap2\n      pop\n        /* \"#utility.yul\":10401:10494   */\n      tag_481\n        /* \"#utility.yul\":10490:10493   */\n      dup3\n        /* \"#utility.yul\":10401:10494   */\n      tag_482\n      jump\t// in\n    tag_481:\n        /* \"#utility.yul\":10519:10521   */\n      0x20\n        /* \"#utility.yul\":10514:10517   */\n      dup3\n        /* \"#utility.yul\":10510:10522   */\n      add\n        /* \"#utility.yul\":10503:10522   */\n      swap1\n      pop\n        /* \"#utility.yul\":10162:10528   */\n      swap2\n      swap1\n      pop\n      jump\t// out\n        /* \"#utility.yul\":10534:10900   */\n    tag_483:\n        /* \"#utility.yul\":10676:10679   */\n      0x00\n        /* \"#utility.yul\":10697:10764   */\n      tag_485\n        /* \"#utility.yul\":10761:10763   */\n      0x1a\n        /* \"#utility.yul\":10756:10759   */\n      dup4\n        /* \"#utility.yul\":10697:10764   */\n      tag_480\n      jump\t// in\n    tag_485:\n        /* \"#utility.yul\":10690:10764   */\n      swap2\n      pop\n        /* \"#utility.yul\":10773:10866   */\n      tag_486\n        /* \"#utility.yul\":10862:10865   */\n      dup3\n        /* \"#utility.yul\":10773:10866   */\n      tag_487\n      jump\t// in\n    tag_486:\n        /* \"#utility.yul\":10891:10893   */\n      0x20\n        /* \"#utility.yul\":10886:10889   */\n      dup3\n        /* \"#utility.yul\":10882:10894   */\n      add\n        /* \"#utility.yul\":10875:10894   */\n      swap1\n      pop\n        /* \"#utility.yul\":10534:10900   */\n      swap2\n      swap1\n      pop\n      jump\t// out\n        /* \"#utility.yul\":10906:11272   */\n    tag_488:\n        /* \"#utility.yul\":11048:11051   */\n      0x00\n        /* \"#utility.yul\":11069:11136   */\n      tag_490\n        /* \"#utility.yul\":11133:11135   */\n      0x26\n        /* \"#utility.yul\":11128:11131   */\n      dup4\n        /* \"#utility.yul\":11069:11136   */\n      tag_480\n      jump\t// in\n    tag_490:\n        /* \"#utility.yul\":11062:11136   */\n      swap2\n      pop\n        /* \"#utility.yul\":11145:11238   */\n      tag_491\n        /* \"#utility.yul\":11234:11237   */\n      dup3\n        /* \"#utility.yul\":11145:11238   */\n      tag_492\n      jump\t// in\n    tag_491:\n        /* \"#utility.yul\":11263:11265   */\n      0x40\n        /* \"#utility.yul\":11258:11261   */\n      dup3\n        /* \"#utility.yul\":11254:11266   */\n      add\n        /* \"#utility.yul\":11247:11266   */\n      swap1\n      pop\n        /* \"#utility.yul\":10906:11272   */\n      swap2\n      swap1\n      pop\n      jump\t// out\n        /* \"#utility.yul\":11278:11644   */\n    tag_493:\n        /* \"#utility.yul\":11420:11423   */\n      0x00\n        /* \"#utility.yul\":11441:11508   */\n      tag_495\n        /* \"#utility.yul\":11505:11507   */\n      0x12\n        /* \"#utility.yul\":11500:11503   */\n      dup4\n        /* \"#utility.yul\":11441:11508   */\n      tag_480\n      jump\t// in\n    tag_495:\n        /* \"#utility.yul\":11434:11508   */\n      swap2\n      pop\n        /* \"#utility.yul\":11517:11610   */\n      tag_496\n        /* \"#utility.yul\":11606:11609   */\n      dup3\n        /* \"#utility.yul\":11517:11610   */\n      tag_497\n      jump\t// in\n    tag_496:\n        /* \"#utility.yul\":11635:11637   */\n      0x20\n        /* \"#utility.yul\":11630:11633   */\n      dup3\n        /* \"#utility.yul\":11626:11638   */\n      add\n        /* \"#utility.yul\":11619:11638   */\n      swap1\n      pop\n        /* \"#utility.yul\":11278:11644   */\n      swap2\n      swap1\n      pop\n      jump\t// out\n        /* \"#utility.yul\":11650:12016   */\n    tag_498:\n        /* \"#utility.yul\":11792:11795   */\n      0x00\n        /* \"#utility.yul\":11813:11880   */\n      tag_500\n        /* \"#utility.yul\":11877:11879   */\n      0x18\n        /* \"#utility.yul\":11872:11875   */\n      dup4\n        /* \"#utility.yul\":11813:11880   */\n      tag_480\n      jump\t// in\n    tag_500:\n        /* \"#utility.yul\":11806:11880   */\n      swap2\n      pop\n        /* \"#utility.yul\":11889:11982   */\n      tag_501\n        /* \"#utility.yul\":11978:11981   */\n      dup3\n        /* \"#utility.yul\":11889:11982   */\n      tag_502\n      jump\t// in\n    tag_501:\n        /* \"#utility.yul\":12007:12009   */\n      0x20\n        /* \"#utility.yul\":12002:12005   */\n      dup3\n        /* \"#utility.yul\":11998:12010   */\n      add\n        /* \"#utility.yul\":11991:12010   */\n      swap1\n      pop\n        /* \"#utility.yul\":11650:12016   */\n      swap2\n      swap1\n      pop\n      jump\t// out\n        /* \"#utility.yul\":12022:12388   */\n    tag_503:\n        /* \"#utility.yul\":12164:12167   */\n      0x00\n        /* \"#utility.yul\":12185:12252   */\n      tag_505\n        /* \"#utility.yul\":12249:12251   */\n      0x0d\n        /* \"#utility.yul\":12244:12247   */\n      dup4\n        /* \"#utility.yul\":12185:12252   */\n      tag_480\n      jump\t// in\n    tag_505:\n        /* \"#utility.yul\":12178:12252   */\n      swap2\n      pop\n        /* \"#utility.yul\":12261:12354   */\n      tag_506\n        /* \"#utility.yul\":12350:12353   */\n      dup3\n        /* \"#utility.yul\":12261:12354   */\n      tag_507\n      jump\t// in\n    tag_506:\n        /* \"#utility.yul\":12379:12381   */\n      0x20\n        /* \"#utility.yul\":12374:12377   */\n      dup3\n        /* \"#utility.yul\":12370:12382   */\n      add\n        /* \"#utility.yul\":12363:12382   */\n      swap1\n      pop\n        /* \"#utility.yul\":12022:12388   */\n      swap2\n      swap1\n      pop\n      jump\t// out\n        /* \"#utility.yul\":12394:12760   */\n    tag_508:\n        /* \"#utility.yul\":12536:12539   */\n      0x00\n        /* \"#utility.yul\":12557:12624   */\n      tag_510\n        /* \"#utility.yul\":12621:12623   */\n      0x20\n        /* \"#utility.yul\":12616:12619   */\n      dup4\n        /* \"#utility.yul\":12557:12624   */\n      tag_480\n      jump\t// in\n    tag_510:\n        /* \"#utility.yul\":12550:12624   */\n      swap2\n      pop\n        /* \"#utility.yul\":12633:12726   */\n      tag_511\n        /* \"#utility.yul\":12722:12725   */\n      dup3\n        /* \"#utility.yul\":12633:12726   */\n      tag_512\n      jump\t// in\n    tag_511:\n        /* \"#utility.yul\":12751:12753   */\n      0x20\n        /* \"#utility.yul\":12746:12749   */\n      dup3\n        /* \"#utility.yul\":12742:12754   */\n      add\n        /* \"#utility.yul\":12735:12754   */\n      swap1\n      pop\n        /* \"#utility.yul\":12394:12760   */\n      swap2\n      swap1\n      pop\n      jump\t// out\n        /* \"#utility.yul\":12766:13128   */\n    tag_513:\n        /* \"#utility.yul\":12907:12910   */\n      0x00\n        /* \"#utility.yul\":12928:12993   */\n      tag_515\n        /* \"#utility.yul\":12991:12992   */\n      0x00\n        /* \"#utility.yul\":12986:12989   */\n      dup4\n        /* \"#utility.yul\":12928:12993   */\n      tag_516\n      jump\t// in\n    tag_515:\n        /* \"#utility.yul\":12921:12993   */\n      swap2\n      pop\n        /* \"#utility.yul\":13002:13095   */\n      tag_517\n        /* \"#utility.yul\":13091:13094   */\n      dup3\n        /* \"#utility.yul\":13002:13095   */\n      tag_518\n      jump\t// in\n    tag_517:\n        /* \"#utility.yul\":13120:13121   */\n      0x00\n        /* \"#utility.yul\":13115:13118   */\n      dup3\n        /* \"#utility.yul\":13111:13122   */\n      add\n        /* \"#utility.yul\":13104:13122   */\n      swap1\n      pop\n        /* \"#utility.yul\":12766:13128   */\n      swap2\n      swap1\n      pop\n      jump\t// out\n        /* \"#utility.yul\":13134:13500   */\n    tag_519:\n        /* \"#utility.yul\":13276:13279   */\n      0x00\n        /* \"#utility.yul\":13297:13364   */\n      tag_521\n        /* \"#utility.yul\":13361:13363   */\n      0x19\n        /* \"#utility.yul\":13356:13359   */\n      dup4\n        /* \"#utility.yul\":13297:13364   */\n      tag_480\n      jump\t// in\n    tag_521:\n        /* \"#utility.yul\":13290:13364   */\n      swap2\n      pop\n        /* \"#utility.yul\":13373:13466   */\n      tag_522\n        /* \"#utility.yul\":13462:13465   */\n      dup3\n        /* \"#utility.yul\":13373:13466   */\n      tag_523\n      jump\t// in\n    tag_522:\n        /* \"#utility.yul\":13491:13493   */\n      0x20\n        /* \"#utility.yul\":13486:13489   */\n      dup3\n        /* \"#utility.yul\":13482:13494   */\n      add\n        /* \"#utility.yul\":13475:13494   */\n      swap1\n      pop\n        /* \"#utility.yul\":13134:13500   */\n      swap2\n      swap1\n      pop\n      jump\t// out\n        /* \"#utility.yul\":13506:13872   */\n    tag_524:\n        /* \"#utility.yul\":13648:13651   */\n      0x00\n        /* \"#utility.yul\":13669:13736   */\n      tag_526\n        /* \"#utility.yul\":13733:13735   */\n      0x14\n        /* \"#utility.yul\":13728:13731   */\n      dup4\n        /* \"#utility.yul\":13669:13736   */\n      tag_480\n      jump\t// in\n    tag_526:\n        /* \"#utility.yul\":13662:13736   */\n      swap2\n      pop\n        /* \"#utility.yul\":13745:13838   */\n      tag_527\n        /* \"#utility.yul\":13834:13837   */\n      dup3\n        /* \"#utility.yul\":13745:13838   */\n      tag_528\n      jump\t// in\n    tag_527:\n        /* \"#utility.yul\":13863:13865   */\n      0x20\n        /* \"#utility.yul\":13858:13861   */\n      dup3\n        /* \"#utility.yul\":13854:13866   */\n      add\n        /* \"#utility.yul\":13847:13866   */\n      swap1\n      pop\n        /* \"#utility.yul\":13506:13872   */\n      swap2\n      swap1\n      pop\n      jump\t// out\n        /* \"#utility.yul\":13878:13996   */\n    tag_529:\n        /* \"#utility.yul\":13965:13989   */\n      tag_531\n        /* \"#utility.yul\":13983:13988   */\n      dup2\n        /* \"#utility.yul\":13965:13989   */\n      tag_532\n      jump\t// in\n    tag_531:\n        /* \"#utility.yul\":13960:13963   */\n      dup3\n        /* \"#utility.yul\":13953:13990   */\n      mstore\n        /* \"#utility.yul\":13878:13996   */\n      pop\n      pop\n      jump\t// out\n        /* \"#utility.yul\":14002:14224   */\n    tag_38:\n        /* \"#utility.yul\":14095:14099   */\n      0x00\n        /* \"#utility.yul\":14133:14135   */\n      0x20\n        /* \"#utility.yul\":14122:14131   */\n      dup3\n        /* \"#utility.yul\":14118:14136   */\n      add\n        /* \"#utility.yul\":14110:14136   */\n      swap1\n      pop\n        /* \"#utility.yul\":14146:14217   */\n      tag_534\n        /* \"#utility.yul\":14214:14215   */\n      0x00\n        /* \"#utility.yul\":14203:14212   */\n      dup4\n        /* \"#utility.yul\":14199:14216   */\n      add\n        /* \"#utility.yul\":14190:14196   */\n      dup5\n        /* \"#utility.yul\":14146:14217   */\n      tag_469\n      jump\t// in\n    tag_534:\n        /* \"#utility.yul\":14002:14224   */\n      swap3\n      swap2\n      pop\n      pop\n      jump\t// out\n        /* \"#utility.yul\":14230:14562   */\n    tag_180:\n        /* \"#utility.yul\":14351:14355   */\n      0x00\n        /* \"#utility.yul\":14389:14391   */\n      0x40\n        /* \"#utility.yul\":14378:14387   */\n      dup3\n        /* \"#utility.yul\":14374:14392   */\n      add\n        /* \"#utility.yul\":14366:14392   */\n      swap1\n      pop\n        /* \"#utility.yul\":14402:14473   */\n      tag_536\n        /* \"#utility.yul\":14470:14471   */\n      0x00\n        /* \"#utility.yul\":14459:14468   */\n      dup4\n        /* \"#utility.yul\":14455:14472   */\n      add\n        /* \"#utility.yul\":14446:14452   */\n      dup6\n        /* \"#utility.yul\":14402:14473   */\n      tag_469\n      jump\t// in\n    tag_536:\n        /* \"#utility.yul\":14483:14555   */\n      tag_537\n        /* \"#utility.yul\":14551:14553   */\n      0x20\n        /* \"#utility.yul\":14540:14549   */\n      dup4\n        /* \"#utility.yul\":14536:14554   */\n      add\n        /* \"#utility.yul\":14527:14533   */\n      dup5\n        /* \"#utility.yul\":14483:14555   */\n      tag_469\n      jump\t// in\n    tag_537:\n        /* \"#utility.yul\":14230:14562   */\n      swap4\n      swap3\n      pop\n      pop\n      pop\n      jump\t// out\n        /* \"#utility.yul\":14568:15010   */\n    tag_117:\n        /* \"#utility.yul\":14717:14721   */\n      0x00\n        /* \"#utility.yul\":14755:14757   */\n      0x60\n        /* \"#utility.yul\":14744:14753   */\n      dup3\n        /* \"#utility.yul\":14740:14758   */\n      add\n        /* \"#utility.yul\":14732:14758   */\n      swap1\n      pop\n        /* \"#utility.yul\":14768:14839   */\n      tag_539\n        /* \"#utility.yul\":14836:14837   */\n      0x00\n        /* \"#utility.yul\":14825:14834   */\n      dup4\n        /* \"#utility.yul\":14821:14838   */\n      add\n        /* \"#utility.yul\":14812:14818   */\n      dup7\n        /* \"#utility.yul\":14768:14839   */\n      tag_469\n      jump\t// in\n    tag_539:\n        /* \"#utility.yul\":14849:14921   */\n      tag_540\n        /* \"#utility.yul\":14917:14919   */\n      0x20\n        /* \"#utility.yul\":14906:14915   */\n      dup4\n        /* \"#utility.yul\":14902:14920   */\n      add\n        /* \"#utility.yul\":14893:14899   */\n      dup6\n        /* \"#utility.yul\":14849:14921   */\n      tag_469\n      jump\t// in\n    tag_540:\n        /* \"#utility.yul\":14931:15003   */\n      tag_541\n        /* \"#utility.yul\":14999:15001   */\n      0x40\n        /* \"#utility.yul\":14988:14997   */\n      dup4\n        /* \"#utility.yul\":14984:15002   */\n      add\n        /* \"#utility.yul\":14975:14981   */\n      dup5\n        /* \"#utility.yul\":14931:15003   */\n      tag_529\n      jump\t// in\n    tag_541:\n        /* \"#utility.yul\":14568:15010   */\n      swap5\n      swap4\n      pop\n      pop\n      pop\n      pop\n      jump\t// out\n        /* \"#utility.yul\":15016:15764   */\n    tag_148:\n        /* \"#utility.yul\":15265:15269   */\n      0x00\n        /* \"#utility.yul\":15303:15306   */\n      0x80\n        /* \"#utility.yul\":15292:15301   */\n      dup3\n        /* \"#utility.yul\":15288:15307   */\n      add\n        /* \"#utility.yul\":15280:15307   */\n      swap1\n      pop\n        /* \"#utility.yul\":15317:15388   */\n      tag_543\n        /* \"#utility.yul\":15385:15386   */\n      0x00\n        /* \"#utility.yul\":15374:15383   */\n      dup4\n        /* \"#utility.yul\":15370:15387   */\n      add\n        /* \"#utility.yul\":15361:15367   */\n      dup7\n        /* \"#utility.yul\":15317:15388   */\n      tag_469\n      jump\t// in\n    tag_543:\n        /* \"#utility.yul\":15398:15470   */\n      tag_544\n        /* \"#utility.yul\":15466:15468   */\n      0x20\n        /* \"#utility.yul\":15455:15464   */\n      dup4\n        /* \"#utility.yul\":15451:15469   */\n      add\n        /* \"#utility.yul\":15442:15448   */\n      dup6\n        /* \"#utility.yul\":15398:15470   */\n      tag_469\n      jump\t// in\n    tag_544:\n        /* \"#utility.yul\":15480:15552   */\n      tag_545\n        /* \"#utility.yul\":15548:15550   */\n      0x40\n        /* \"#utility.yul\":15537:15546   */\n      dup4\n        /* \"#utility.yul\":15533:15551   */\n      add\n        /* \"#utility.yul\":15524:15530   */\n      dup5\n        /* \"#utility.yul\":15480:15552   */\n      tag_529\n      jump\t// in\n    tag_545:\n        /* \"#utility.yul\":15599:15608   */\n      dup2\n        /* \"#utility.yul\":15593:15597   */\n      dup2\n        /* \"#utility.yul\":15589:15609   */\n      sub\n        /* \"#utility.yul\":15584:15586   */\n      0x60\n        /* \"#utility.yul\":15573:15582   */\n      dup4\n        /* \"#utility.yul\":15569:15587   */\n      add\n        /* \"#utility.yul\":15562:15610   */\n      mstore\n        /* \"#utility.yul\":15627:15757   */\n      tag_546\n        /* \"#utility.yul\":15752:15756   */\n      dup2\n        /* \"#utility.yul\":15627:15757   */\n      tag_513\n      jump\t// in\n    tag_546:\n        /* \"#utility.yul\":15619:15757   */\n      swap1\n      pop\n        /* \"#utility.yul\":15016:15764   */\n      swap5\n      swap4\n      pop\n      pop\n      pop\n      pop\n      jump\t// out\n        /* \"#utility.yul\":15770:15980   */\n    tag_32:\n        /* \"#utility.yul\":15857:15861   */\n      0x00\n        /* \"#utility.yul\":15895:15897   */\n      0x20\n        /* \"#utility.yul\":15884:15893   */\n      dup3\n        /* \"#utility.yul\":15880:15898   */\n      add\n        /* \"#utility.yul\":15872:15898   */\n      swap1\n      pop\n        /* \"#utility.yul\":15908:15973   */\n      tag_548\n        /* \"#utility.yul\":15970:15971   */\n      0x00\n        /* \"#utility.yul\":15959:15968   */\n      dup4\n        /* \"#utility.yul\":15955:15972   */\n      add\n        /* \"#utility.yul\":15946:15952   */\n      dup5\n        /* \"#utility.yul\":15908:15973   */\n      tag_473\n      jump\t// in\n    tag_548:\n        /* \"#utility.yul\":15770:15980   */\n      swap3\n      swap2\n      pop\n      pop\n      jump\t// out\n        /* \"#utility.yul\":15986:16405   */\n    tag_275:\n        /* \"#utility.yul\":16152:16156   */\n      0x00\n        /* \"#utility.yul\":16190:16192   */\n      0x20\n        /* \"#utility.yul\":16179:16188   */\n      dup3\n        /* \"#utility.yul\":16175:16193   */\n      add\n        /* \"#utility.yul\":16167:16193   */\n      swap1\n      pop\n        /* \"#utility.yul\":16239:16248   */\n      dup2\n        /* \"#utility.yul\":16233:16237   */\n      dup2\n        /* \"#utility.yul\":16229:16249   */\n      sub\n        /* \"#utility.yul\":16225:16226   */\n      0x00\n        /* \"#utility.yul\":16214:16223   */\n      dup4\n        /* \"#utility.yul\":16210:16227   */\n      add\n        /* \"#utility.yul\":16203:16250   */\n      mstore\n        /* \"#utility.yul\":16267:16398   */\n      tag_550\n        /* \"#utility.yul\":16393:16397   */\n      dup2\n        /* \"#utility.yul\":16267:16398   */\n      tag_477\n      jump\t// in\n    tag_550:\n        /* \"#utility.yul\":16259:16398   */\n      swap1\n      pop\n        /* \"#utility.yul\":15986:16405   */\n      swap2\n      swap1\n      pop\n      jump\t// out\n        /* \"#utility.yul\":16411:16830   */\n    tag_187:\n        /* \"#utility.yul\":16577:16581   */\n      0x00\n        /* \"#utility.yul\":16615:16617   */\n      0x20\n        /* \"#utility.yul\":16604:16613   */\n      dup3\n        /* \"#utility.yul\":16600:16618   */\n      add\n        /* \"#utility.yul\":16592:16618   */\n      swap1\n      pop\n        /* \"#utility.yul\":16664:16673   */\n      dup2\n        /* \"#utility.yul\":16658:16662   */\n      dup2\n        /* \"#utility.yul\":16654:16674   */\n      sub\n        /* \"#utility.yul\":16650:16651   */\n      0x00\n        /* \"#utility.yul\":16639:16648   */\n      dup4\n        /* \"#utility.yul\":16635:16652   */\n      add\n        /* \"#utility.yul\":16628:16675   */\n      mstore\n        /* \"#utility.yul\":16692:16823   */\n      tag_552\n        /* \"#utility.yul\":16818:16822   */\n      dup2\n        /* \"#utility.yul\":16692:16823   */\n      tag_483\n      jump\t// in\n    tag_552:\n        /* \"#utility.yul\":16684:16823   */\n      swap1\n      pop\n        /* \"#utility.yul\":16411:16830   */\n      swap2\n      swap1\n      pop\n      jump\t// out\n        /* \"#utility.yul\":16836:17255   */\n    tag_354:\n        /* \"#utility.yul\":17002:17006   */\n      0x00\n        /* \"#utility.yul\":17040:17042   */\n      0x20\n        /* \"#utility.yul\":17029:17038   */\n      dup3\n        /* \"#utility.yul\":17025:17043   */\n      add\n        /* \"#utility.yul\":17017:17043   */\n      swap1\n      pop\n        /* \"#utility.yul\":17089:17098   */\n      dup2\n        /* \"#utility.yul\":17083:17087   */\n      dup2\n        /* \"#utility.yul\":17079:17099   */\n      sub\n        /* \"#utility.yul\":17075:17076   */\n      0x00\n        /* \"#utility.yul\":17064:17073   */\n      dup4\n        /* \"#utility.yul\":17060:17077   */\n      add\n        /* \"#utility.yul\":17053:17100   */\n      mstore\n        /* \"#utility.yul\":17117:17248   */\n      tag_554\n        /* \"#utility.yul\":17243:17247   */\n      dup2\n        /* \"#utility.yul\":17117:17248   */\n      tag_488\n      jump\t// in\n    tag_554:\n        /* \"#utility.yul\":17109:17248   */\n      swap1\n      pop\n        /* \"#utility.yul\":16836:17255   */\n      swap2\n      swap1\n      pop\n      jump\t// out\n        /* \"#utility.yul\":17261:17680   */\n    tag_102:\n        /* \"#utility.yul\":17427:17431   */\n      0x00\n        /* \"#utility.yul\":17465:17467   */\n      0x20\n        /* \"#utility.yul\":17454:17463   */\n      dup3\n        /* \"#utility.yul\":17450:17468   */\n      add\n        /* \"#utility.yul\":17442:17468   */\n      swap1\n      pop\n        /* \"#utility.yul\":17514:17523   */\n      dup2\n        /* \"#utility.yul\":17508:17512   */\n      dup2\n        /* \"#utility.yul\":17504:17524   */\n      sub\n        /* \"#utility.yul\":17500:17501   */\n      0x00\n        /* \"#utility.yul\":17489:17498   */\n      dup4\n        /* \"#utility.yul\":17485:17502   */\n      add\n        /* \"#utility.yul\":17478:17525   */\n      mstore\n        /* \"#utility.yul\":17542:17673   */\n      tag_556\n        /* \"#utility.yul\":17668:17672   */\n      dup2\n        /* \"#utility.yul\":17542:17673   */\n      tag_493\n      jump\t// in\n    tag_556:\n        /* \"#utility.yul\":17534:17673   */\n      swap1\n      pop\n        /* \"#utility.yul\":17261:17680   */\n      swap2\n      swap1\n      pop\n      jump\t// out\n        /* \"#utility.yul\":17686:18105   */\n    tag_111:\n        /* \"#utility.yul\":17852:17856   */\n      0x00\n        /* \"#utility.yul\":17890:17892   */\n      0x20\n        /* \"#utility.yul\":17879:17888   */\n      dup3\n        /* \"#utility.yul\":17875:17893   */\n      add\n        /* \"#utility.yul\":17867:17893   */\n      swap1\n      pop\n        /* \"#utility.yul\":17939:17948   */\n      dup2\n        /* \"#utility.yul\":17933:17937   */\n      dup2\n        /* \"#utility.yul\":17929:17949   */\n      sub\n        /* \"#utility.yul\":17925:17926   */\n      0x00\n        /* \"#utility.yul\":17914:17923   */\n      dup4\n        /* \"#utility.yul\":17910:17927   */\n      add\n        /* \"#utility.yul\":17903:17950   */\n      mstore\n        /* \"#utility.yul\":17967:18098   */\n      tag_558\n        /* \"#utility.yul\":18093:18097   */\n      dup2\n        /* \"#utility.yul\":17967:18098   */\n      tag_498\n      jump\t// in\n    tag_558:\n        /* \"#utility.yul\":17959:18098   */\n      swap1\n      pop\n        /* \"#utility.yul\":17686:18105   */\n      swap2\n      swap1\n      pop\n      jump\t// out\n        /* \"#utility.yul\":18111:18530   */\n    tag_272:\n        /* \"#utility.yul\":18277:18281   */\n      0x00\n        /* \"#utility.yul\":18315:18317   */\n      0x20\n        /* \"#utility.yul\":18304:18313   */\n      dup3\n        /* \"#utility.yul\":18300:18318   */\n      add\n        /* \"#utility.yul\":18292:18318   */\n      swap1\n      pop\n        /* \"#utility.yul\":18364:18373   */\n      dup2\n        /* \"#utility.yul\":18358:18362   */\n      dup2\n        /* \"#utility.yul\":18354:18374   */\n      sub\n        /* \"#utility.yul\":18350:18351   */\n      0x00\n        /* \"#utility.yul\":18339:18348   */\n      dup4\n        /* \"#utility.yul\":18335:18352   */\n      add\n        /* \"#utility.yul\":18328:18375   */\n      mstore\n        /* \"#utility.yul\":18392:18523   */\n      tag_560\n        /* \"#utility.yul\":18518:18522   */\n      dup2\n        /* \"#utility.yul\":18392:18523   */\n      tag_503\n      jump\t// in\n    tag_560:\n        /* \"#utility.yul\":18384:18523   */\n      swap1\n      pop\n        /* \"#utility.yul\":18111:18530   */\n      swap2\n      swap1\n      pop\n      jump\t// out\n        /* \"#utility.yul\":18536:18955   */\n    tag_165:\n        /* \"#utility.yul\":18702:18706   */\n      0x00\n        /* \"#utility.yul\":18740:18742   */\n      0x20\n        /* \"#utility.yul\":18729:18738   */\n      dup3\n        /* \"#utility.yul\":18725:18743   */\n      add\n        /* \"#utility.yul\":18717:18743   */\n      swap1\n      pop\n        /* \"#utility.yul\":18789:18798   */\n      dup2\n        /* \"#utility.yul\":18783:18787   */\n      dup2\n        /* \"#utility.yul\":18779:18799   */\n      sub\n        /* \"#utility.yul\":18775:18776   */\n      0x00\n        /* \"#utility.yul\":18764:18773   */\n      dup4\n        /* \"#utility.yul\":18760:18777   */\n      add\n        /* \"#utility.yul\":18753:18800   */\n      mstore\n        /* \"#utility.yul\":18817:18948   */\n      tag_562\n        /* \"#utility.yul\":18943:18947   */\n      dup2\n        /* \"#utility.yul\":18817:18948   */\n      tag_508\n      jump\t// in\n    tag_562:\n        /* \"#utility.yul\":18809:18948   */\n      swap1\n      pop\n        /* \"#utility.yul\":18536:18955   */\n      swap2\n      swap1\n      pop\n      jump\t// out\n        /* \"#utility.yul\":18961:19380   */\n    tag_99:\n        /* \"#utility.yul\":19127:19131   */\n      0x00\n        /* \"#utility.yul\":19165:19167   */\n      0x20\n        /* \"#utility.yul\":19154:19163   */\n      dup3\n        /* \"#utility.yul\":19150:19168   */\n      add\n        /* \"#utility.yul\":19142:19168   */\n      swap1\n      pop\n        /* \"#utility.yul\":19214:19223   */\n      dup2\n        /* \"#utility.yul\":19208:19212   */\n      dup2\n        /* \"#utility.yul\":19204:19224   */\n      sub\n        /* \"#utility.yul\":19200:19201   */\n      0x00\n        /* \"#utility.yul\":19189:19198   */\n      dup4\n        /* \"#utility.yul\":19185:19202   */\n      add\n        /* \"#utility.yul\":19178:19225   */\n      mstore\n        /* \"#utility.yul\":19242:19373   */\n      tag_564\n        /* \"#utility.yul\":19368:19372   */\n      dup2\n        /* \"#utility.yul\":19242:19373   */\n      tag_519\n      jump\t// in\n    tag_564:\n        /* \"#utility.yul\":19234:19373   */\n      swap1\n      pop\n        /* \"#utility.yul\":18961:19380   */\n      swap2\n      swap1\n      pop\n      jump\t// out\n        /* \"#utility.yul\":19386:19805   */\n    tag_178:\n        /* \"#utility.yul\":19552:19556   */\n      0x00\n        /* \"#utility.yul\":19590:19592   */\n      0x20\n        /* \"#utility.yul\":19579:19588   */\n      dup3\n        /* \"#utility.yul\":19575:19593   */\n      add\n        /* \"#utility.yul\":19567:19593   */\n      swap1\n      pop\n        /* \"#utility.yul\":19639:19648   */\n      dup2\n        /* \"#utility.yul\":19633:19637   */\n      dup2\n        /* \"#utility.yul\":19629:19649   */\n      sub\n        /* \"#utility.yul\":19625:19626   */\n      0x00\n        /* \"#utility.yul\":19614:19623   */\n      dup4\n        /* \"#utility.yul\":19610:19627   */\n      add\n        /* \"#utility.yul\":19603:19650   */\n      mstore\n        /* \"#utility.yul\":19667:19798   */\n      tag_566\n        /* \"#utility.yul\":19793:19797   */\n      dup2\n        /* \"#utility.yul\":19667:19798   */\n      tag_524\n      jump\t// in\n    tag_566:\n        /* \"#utility.yul\":19659:19798   */\n      swap1\n      pop\n        /* \"#utility.yul\":19386:19805   */\n      swap2\n      swap1\n      pop\n      jump\t// out\n        /* \"#utility.yul\":19811:20033   */\n    tag_59:\n        /* \"#utility.yul\":19904:19908   */\n      0x00\n        /* \"#utility.yul\":19942:19944   */\n      0x20\n        /* \"#utility.yul\":19931:19940   */\n      dup3\n        /* \"#utility.yul\":19927:19945   */\n      add\n        /* \"#utility.yul\":19919:19945   */\n      swap1\n      pop\n        /* \"#utility.yul\":19955:20026   */\n      tag_568\n        /* \"#utility.yul\":20023:20024   */\n      0x00\n        /* \"#utility.yul\":20012:20021   */\n      dup4\n        /* \"#utility.yul\":20008:20025   */\n      add\n        /* \"#utility.yul\":19999:20005   */\n      dup5\n        /* \"#utility.yul\":19955:20026   */\n      tag_529\n      jump\t// in\n    tag_568:\n        /* \"#utility.yul\":19811:20033   */\n      swap3\n      swap2\n      pop\n      pop\n      jump\t// out\n        /* \"#utility.yul\":20039:20691   */\n    tag_26:\n        /* \"#utility.yul\":20238:20242   */\n      0x00\n        /* \"#utility.yul\":20276:20279   */\n      0xa0\n        /* \"#utility.yul\":20265:20274   */\n      dup3\n        /* \"#utility.yul\":20261:20280   */\n      add\n        /* \"#utility.yul\":20253:20280   */\n      swap1\n      pop\n        /* \"#utility.yul\":20290:20361   */\n      tag_570\n        /* \"#utility.yul\":20358:20359   */\n      0x00\n        /* \"#utility.yul\":20347:20356   */\n      dup4\n        /* \"#utility.yul\":20343:20360   */\n      add\n        /* \"#utility.yul\":20334:20340   */\n      dup9\n        /* \"#utility.yul\":20290:20361   */\n      tag_529\n      jump\t// in\n    tag_570:\n        /* \"#utility.yul\":20371:20443   */\n      tag_571\n        /* \"#utility.yul\":20439:20441   */\n      0x20\n        /* \"#utility.yul\":20428:20437   */\n      dup4\n        /* \"#utility.yul\":20424:20442   */\n      add\n        /* \"#utility.yul\":20415:20421   */\n      dup8\n        /* \"#utility.yul\":20371:20443   */\n      tag_469\n      jump\t// in\n    tag_571:\n        /* \"#utility.yul\":20453:20525   */\n      tag_572\n        /* \"#utility.yul\":20521:20523   */\n      0x40\n        /* \"#utility.yul\":20510:20519   */\n      dup4\n        /* \"#utility.yul\":20506:20524   */\n      add\n        /* \"#utility.yul\":20497:20503   */\n      dup7\n        /* \"#utility.yul\":20453:20525   */\n      tag_469\n      jump\t// in\n    tag_572:\n        /* \"#utility.yul\":20535:20601   */\n      tag_573\n        /* \"#utility.yul\":20597:20599   */\n      0x60\n        /* \"#utility.yul\":20586:20595   */\n      dup4\n        /* \"#utility.yul\":20582:20600   */\n      add\n        /* \"#utility.yul\":20573:20579   */\n      dup6\n        /* \"#utility.yul\":20535:20601   */\n      tag_473\n      jump\t// in\n    tag_573:\n        /* \"#utility.yul\":20611:20684   */\n      tag_574\n        /* \"#utility.yul\":20679:20682   */\n      0x80\n        /* \"#utility.yul\":20668:20677   */\n      dup4\n        /* \"#utility.yul\":20664:20683   */\n      add\n        /* \"#utility.yul\":20655:20661   */\n      dup5\n        /* \"#utility.yul\":20611:20684   */\n      tag_529\n      jump\t// in\n    tag_574:\n        /* \"#utility.yul\":20039:20691   */\n      swap7\n      swap6\n      pop\n      pop\n      pop\n      pop\n      pop\n      pop\n      jump\t// out\n        /* \"#utility.yul\":20778:20946   */\n    tag_516:\n        /* \"#utility.yul\":20861:20872   */\n      0x00\n        /* \"#utility.yul\":20895:20901   */\n      dup3\n        /* \"#utility.yul\":20890:20893   */\n      dup3\n        /* \"#utility.yul\":20883:20902   */\n      mstore\n        /* \"#utility.yul\":20935:20939   */\n      0x20\n        /* \"#utility.yul\":20930:20933   */\n      dup3\n        /* \"#utility.yul\":20926:20940   */\n      add\n        /* \"#utility.yul\":20911:20940   */\n      swap1\n      pop\n        /* \"#utility.yul\":20778:20946   */\n      swap3\n      swap2\n      pop\n      pop\n      jump\t// out\n        /* \"#utility.yul\":20952:21121   */\n    tag_480:\n        /* \"#utility.yul\":21036:21047   */\n      0x00\n        /* \"#utility.yul\":21070:21076   */\n      dup3\n        /* \"#utility.yul\":21065:21068   */\n      dup3\n        /* \"#utility.yul\":21058:21077   */\n      mstore\n        /* \"#utility.yul\":21110:21114   */\n      0x20\n        /* \"#utility.yul\":21105:21108   */\n      dup3\n        /* \"#utility.yul\":21101:21115   */\n      add\n        /* \"#utility.yul\":21086:21115   */\n      swap1\n      pop\n        /* \"#utility.yul\":20952:21121   */\n      swap3\n      swap2\n      pop\n      pop\n      jump\t// out\n        /* \"#utility.yul\":21127:21432   */\n    tag_154:\n        /* \"#utility.yul\":21167:21170   */\n      0x00\n        /* \"#utility.yul\":21186:21206   */\n      tag_580\n        /* \"#utility.yul\":21204:21205   */\n      dup3\n        /* \"#utility.yul\":21186:21206   */\n      tag_532\n      jump\t// in\n    tag_580:\n        /* \"#utility.yul\":21181:21206   */\n      swap2\n      pop\n        /* \"#utility.yul\":21220:21240   */\n      tag_581\n        /* \"#utility.yul\":21238:21239   */\n      dup4\n        /* \"#utility.yul\":21220:21240   */\n      tag_532\n      jump\t// in\n    tag_581:\n        /* \"#utility.yul\":21215:21240   */\n      swap3\n      pop\n        /* \"#utility.yul\":21374:21375   */\n      dup3\n        /* \"#utility.yul\":21306:21372   */\n      0xffffffffffffffffffffffffffffffffffffffffffffffffffffffffffffffff\n        /* \"#utility.yul\":21302:21376   */\n      sub\n        /* \"#utility.yul\":21299:21300   */\n      dup3\n        /* \"#utility.yul\":21296:21377   */\n      gt\n        /* \"#utility.yul\":21293:21400   */\n      iszero\n      tag_582\n      jumpi\n        /* \"#utility.yul\":21380:21398   */\n      tag_583\n      tag_584\n      jump\t// in\n    tag_583:\n        /* \"#utility.yul\":21293:21400   */\n    tag_582:\n        /* \"#utility.yul\":21424:21425   */\n      dup3\n        /* \"#utility.yul\":21421:21422   */\n      dup3\n        /* \"#utility.yul\":21417:21426   */\n      add\n        /* \"#utility.yul\":21410:21426   */\n      swap1\n      pop\n        /* \"#utility.yul\":21127:21432   */\n      swap3\n      swap2\n      pop\n      pop\n      jump\t// out\n        /* \"#utility.yul\":21438:21623   */\n    tag_113:\n        /* \"#utility.yul\":21478:21479   */\n      0x00\n        /* \"#utility.yul\":21495:21515   */\n      tag_586\n        /* \"#utility.yul\":21513:21514   */\n      dup3\n        /* \"#utility.yul\":21495:21515   */\n      tag_532\n      jump\t// in\n    tag_586:\n        /* \"#utility.yul\":21490:21515   */\n      swap2\n      pop\n        /* \"#utility.yul\":21529:21549   */\n      tag_587\n        /* \"#utility.yul\":21547:21548   */\n      dup4\n        /* \"#utility.yul\":21529:21549   */\n      tag_532\n      jump\t// in\n    tag_587:\n        /* \"#utility.yul\":21524:21549   */\n      swap3\n      pop\n        /* \"#utility.yul\":21568:21569   */\n      dup3\n        /* \"#utility.yul\":21558:21593   */\n      tag_588\n      jumpi\n        /* \"#utility.yul\":21573:21591   */\n      tag_589\n      tag_590\n      jump\t// in\n    tag_589:\n        /* \"#utility.yul\":21558:21593   */\n    tag_588:\n        /* \"#utility.yul\":21615:21616   */\n      dup3\n        /* \"#utility.yul\":21612:21613   */\n      dup3\n        /* \"#utility.yul\":21608:21617   */\n      div\n        /* \"#utility.yul\":21603:21617   */\n      swap1\n      pop\n        /* \"#utility.yul\":21438:21623   */\n      swap3\n      swap2\n      pop\n      pop\n      jump\t// out\n        /* \"#utility.yul\":21629:21820   */\n    tag_115:\n        /* \"#utility.yul\":21669:21673   */\n      0x00\n        /* \"#utility.yul\":21689:21709   */\n      tag_592\n        /* \"#utility.yul\":21707:21708   */\n      dup3\n        /* \"#utility.yul\":21689:21709   */\n      tag_532\n      jump\t// in\n    tag_592:\n        /* \"#utility.yul\":21684:21709   */\n      swap2\n      pop\n        /* \"#utility.yul\":21723:21743   */\n      tag_593\n        /* \"#utility.yul\":21741:21742   */\n      dup4\n        /* \"#utility.yul\":21723:21743   */\n      tag_532\n      jump\t// in\n    tag_593:\n        /* \"#utility.yul\":21718:21743   */\n      swap3\n      pop\n        /* \"#utility.yul\":21762:21763   */\n      dup3\n        /* \"#utility.yul\":21759:21760   */\n      dup3\n        /* \"#utility.yul\":21756:21764   */\n      lt\n        /* \"#utility.yul\":21753:21787   */\n      iszero\n      tag_594\n      jumpi\n        /* \"#utility.yul\":21767:21785   */\n      tag_595\n      tag_584\n      jump\t// in\n    tag_595:\n        /* \"#utility.yul\":21753:21787   */\n    tag_594:\n        /* \"#utility.yul\":21812:21813   */\n      dup3\n        /* \"#utility.yul\":21809:21810   */\n      dup3\n        /* \"#utility.yul\":21805:21814   */\n      sub\n        /* \"#utility.yul\":21797:21814   */\n      swap1\n      pop\n        /* \"#utility.yul\":21629:21820   */\n      swap3\n      swap2\n      pop\n      pop\n      jump\t// out\n        /* \"#utility.yul\":21826:21922   */\n    tag_472:\n        /* \"#utility.yul\":21863:21870   */\n      0x00\n        /* \"#utility.yul\":21892:21916   */\n      tag_597\n        /* \"#utility.yul\":21910:21915   */\n      dup3\n        /* \"#utility.yul\":21892:21916   */\n      tag_598\n      jump\t// in\n    tag_597:\n        /* \"#utility.yul\":21881:21916   */\n      swap1\n      pop\n        /* \"#utility.yul\":21826:21922   */\n      swap2\n      swap1\n      pop\n      jump\t// out\n        /* \"#utility.yul\":21928:22018   */\n    tag_476:\n        /* \"#utility.yul\":21962:21969   */\n      0x00\n        /* \"#utility.yul\":22005:22010   */\n      dup2\n        /* \"#utility.yul\":21998:22011   */\n      iszero\n        /* \"#utility.yul\":21991:22012   */\n      iszero\n        /* \"#utility.yul\":21980:22012   */\n      swap1\n      pop\n        /* \"#utility.yul\":21928:22018   */\n      swap2\n      swap1\n      pop\n      jump\t// out\n        /* \"#utility.yul\":22024:22150   */\n    tag_598:\n        /* \"#utility.yul\":22061:22068   */\n      0x00\n        /* \"#utility.yul\":22101:22143   */\n      0xffffffffffffffffffffffffffffffffffffffff\n        /* \"#utility.yul\":22094:22099   */\n      dup3\n        /* \"#utility.yul\":22090:22144   */\n      and\n        /* \"#utility.yul\":22079:22144   */\n      swap1\n      pop\n        /* \"#utility.yul\":22024:22150   */\n      swap2\n      swap1\n      pop\n      jump\t// out\n        /* \"#utility.yul\":22156:22233   */\n    tag_532:\n        /* \"#utility.yul\":22193:22200   */\n      0x00\n        /* \"#utility.yul\":22222:22227   */\n      dup2\n        /* \"#utility.yul\":22211:22227   */\n      swap1\n      pop\n        /* \"#utility.yul\":22156:22233   */\n      swap2\n      swap1\n      pop\n      jump\t// out\n        /* \"#utility.yul\":22239:22472   */\n    tag_146:\n        /* \"#utility.yul\":22278:22281   */\n      0x00\n        /* \"#utility.yul\":22301:22325   */\n      tag_603\n        /* \"#utility.yul\":22319:22324   */\n      dup3\n        /* \"#utility.yul\":22301:22325   */\n      tag_532\n      jump\t// in\n    tag_603:\n        /* \"#utility.yul\":22292:22325   */\n      swap2\n      pop\n        /* \"#utility.yul\":22347:22413   */\n      0xffffffffffffffffffffffffffffffffffffffffffffffffffffffffffffffff\n        /* \"#utility.yul\":22340:22345   */\n      dup3\n        /* \"#utility.yul\":22337:22414   */\n      eq\n        /* \"#utility.yul\":22334:22437   */\n      iszero\n      tag_604\n      jumpi\n        /* \"#utility.yul\":22417:22435   */\n      tag_605\n      tag_584\n      jump\t// in\n    tag_605:\n        /* \"#utility.yul\":22334:22437   */\n    tag_604:\n        /* \"#utility.yul\":22464:22465   */\n      0x01\n        /* \"#utility.yul\":22457:22462   */\n      dup3\n        /* \"#utility.yul\":22453:22466   */\n      add\n        /* \"#utility.yul\":22446:22466   */\n      swap1\n      pop\n        /* \"#utility.yul\":22239:22472   */\n      swap2\n      swap1\n      pop\n      jump\t// out\n        /* \"#utility.yul\":22478:22658   */\n    tag_584:\n        /* \"#utility.yul\":22526:22603   */\n      0x4e487b7100000000000000000000000000000000000000000000000000000000\n        /* \"#utility.yul\":22523:22524   */\n      0x00\n        /* \"#utility.yul\":22516:22604   */\n      mstore\n        /* \"#utility.yul\":22623:22627   */\n      0x11\n        /* \"#utility.yul\":22620:22621   */\n      0x04\n        /* \"#utility.yul\":22613:22628   */\n      mstore\n        /* \"#utility.yul\":22647:22651   */\n      0x24\n        /* \"#utility.yul\":22644:22645   */\n      0x00\n        /* \"#utility.yul\":22637:22652   */\n      revert\n        /* \"#utility.yul\":22664:22844   */\n    tag_590:\n        /* \"#utility.yul\":22712:22789   */\n      0x4e487b7100000000000000000000000000000000000000000000000000000000\n        /* \"#utility.yul\":22709:22710   */\n      0x00\n        /* \"#utility.yul\":22702:22790   */\n      mstore\n        /* \"#utility.yul\":22809:22813   */\n      0x12\n        /* \"#utility.yul\":22806:22807   */\n      0x04\n        /* \"#utility.yul\":22799:22814   */\n      mstore\n        /* \"#utility.yul\":22833:22837   */\n      0x24\n        /* \"#utility.yul\":22830:22831   */\n      0x00\n        /* \"#utility.yul\":22823:22838   */\n      revert\n        /* \"#utility.yul\":22850:23030   */\n    tag_228:\n        /* \"#utility.yul\":22898:22975   */\n      0x4e487b7100000000000000000000000000000000000000000000000000000000\n        /* \"#utility.yul\":22895:22896   */\n      0x00\n        /* \"#utility.yul\":22888:22976   */\n      mstore\n        /* \"#utility.yul\":22995:22999   */\n      0x32\n        /* \"#utility.yul\":22992:22993   */\n      0x04\n        /* \"#utility.yul\":22985:23000   */\n      mstore\n        /* \"#utility.yul\":23019:23023   */\n      0x24\n        /* \"#utility.yul\":23016:23017   */\n      0x00\n        /* \"#utility.yul\":23009:23024   */\n      revert\n        /* \"#utility.yul\":23036:23153   */\n    tag_373:\n        /* \"#utility.yul\":23145:23146   */\n      0x00\n        /* \"#utility.yul\":23142:23143   */\n      dup1\n        /* \"#utility.yul\":23135:23147   */\n      revert\n        /* \"#utility.yul\":23159:23276   */\n    tag_370:\n        /* \"#utility.yul\":23268:23269   */\n      0x00\n        /* \"#utility.yul\":23265:23266   */\n      dup1\n        /* \"#utility.yul\":23258:23270   */\n      revert\n        /* \"#utility.yul\":23282:23399   */\n    tag_376:\n        /* \"#utility.yul\":23391:23392   */\n      0x00\n        /* \"#utility.yul\":23388:23389   */\n      dup1\n        /* \"#utility.yul\":23381:23393   */\n      revert\n        /* \"#utility.yul\":23405:23522   */\n    tag_404:\n        /* \"#utility.yul\":23514:23515   */\n      0x00\n        /* \"#utility.yul\":23511:23512   */\n      dup1\n        /* \"#utility.yul\":23504:23516   */\n      revert\n        /* \"#utility.yul\":23528:23645   */\n    tag_391:\n        /* \"#utility.yul\":23637:23638   */\n      0x00\n        /* \"#utility.yul\":23634:23635   */\n      dup1\n        /* \"#utility.yul\":23627:23639   */\n      revert\n        /* \"#utility.yul\":23651:23825   */\n    tag_482:\n        /* \"#utility.yul\":23791:23817   */\n      0x54686973204e4654206973206e6f74206c697374696e672e0000000000000000\n        /* \"#utility.yul\":23787:23788   */\n      0x00\n        /* \"#utility.yul\":23779:23785   */\n      dup3\n        /* \"#utility.yul\":23775:23789   */\n      add\n        /* \"#utility.yul\":23768:23818   */\n      mstore\n        /* \"#utility.yul\":23651:23825   */\n      pop\n      jump\t// out\n        /* \"#utility.yul\":23831:24007   */\n    tag_487:\n        /* \"#utility.yul\":23971:23999   */\n      0x436f6e7472616374206d75737420626520617070726f7665642e000000000000\n        /* \"#utility.yul\":23967:23968   */\n      0x00\n        /* \"#utility.yul\":23959:23965   */\n      dup3\n        /* \"#utility.yul\":23955:23969   */\n      add\n        /* \"#utility.yul\":23948:24000   */\n      mstore\n        /* \"#utility.yul\":23831:24007   */\n      pop\n      jump\t// out\n        /* \"#utility.yul\":24013:24238   */\n    tag_492:\n        /* \"#utility.yul\":24153:24187   */\n      0x4f776e61626c653a206e6577206f776e657220697320746865207a65726f2061\n        /* \"#utility.yul\":24149:24150   */\n      0x00\n        /* \"#utility.yul\":24141:24147   */\n      dup3\n        /* \"#utility.yul\":24137:24151   */\n      add\n        /* \"#utility.yul\":24130:24188   */\n      mstore\n        /* \"#utility.yul\":24222:24230   */\n      0x6464726573730000000000000000000000000000000000000000000000000000\n        /* \"#utility.yul\":24217:24219   */\n      0x20\n        /* \"#utility.yul\":24209:24215   */\n      dup3\n        /* \"#utility.yul\":24205:24220   */\n      add\n        /* \"#utility.yul\":24198:24231   */\n      mstore\n        /* \"#utility.yul\":24013:24238   */\n      pop\n      jump\t// out\n        /* \"#utility.yul\":24244:24412   */\n    tag_497:\n        /* \"#utility.yul\":24384:24404   */\n      0x4275792066726f6d20796f757273656c662e0000000000000000000000000000\n        /* \"#utility.yul\":24380:24381   */\n      0x00\n        /* \"#utility.yul\":24372:24378   */\n      dup3\n        /* \"#utility.yul\":24368:24382   */\n      add\n        /* \"#utility.yul\":24361:24405   */\n      mstore\n        /* \"#utility.yul\":24244:24412   */\n      pop\n      jump\t// out\n        /* \"#utility.yul\":24418:24592   */\n    tag_502:\n        /* \"#utility.yul\":24558:24584   */\n      0x496e73756666696369656e742066756e64732073656e742e0000000000000000\n        /* \"#utility.yul\":24554:24555   */\n      0x00\n        /* \"#utility.yul\":24546:24552   */\n      dup3\n        /* \"#utility.yul\":24542:24556   */\n      add\n        /* \"#utility.yul\":24535:24585   */\n      mstore\n        /* \"#utility.yul\":24418:24592   */\n      pop\n      jump\t// out\n        /* \"#utility.yul\":24598:24761   */\n    tag_507:\n        /* \"#utility.yul\":24738:24753   */\n      0x556e617574686f72697a65642e00000000000000000000000000000000000000\n        /* \"#utility.yul\":24734:24735   */\n      0x00\n        /* \"#utility.yul\":24726:24732   */\n      dup3\n        /* \"#utility.yul\":24722:24736   */\n      add\n        /* \"#utility.yul\":24715:24754   */\n      mstore\n        /* \"#utility.yul\":24598:24761   */\n      pop\n      jump\t// out\n        /* \"#utility.yul\":24767:24949   */\n    tag_512:\n        /* \"#utility.yul\":24907:24941   */\n      0x4f776e61626c653a2063616c6c6572206973206e6f7420746865206f776e6572\n        /* \"#utility.yul\":24903:24904   */\n      0x00\n        /* \"#utility.yul\":24895:24901   */\n      dup3\n        /* \"#utility.yul\":24891:24905   */\n      add\n        /* \"#utility.yul\":24884:24942   */\n      mstore\n        /* \"#utility.yul\":24767:24949   */\n      pop\n      jump\t// out\n        /* \"#utility.yul\":24955:25069   */\n    tag_518:\n      pop\n      jump\t// out\n        /* \"#utility.yul\":25075:25250   */\n    tag_523:\n        /* \"#utility.yul\":25215:25242   */\n      0x54686973204e4654206973206e6f7420666f722073656c6c2e00000000000000\n        /* \"#utility.yul\":25211:25212   */\n      0x00\n        /* \"#utility.yul\":25203:25209   */\n      dup3\n        /* \"#utility.yul\":25199:25213   */\n      add\n        /* \"#utility.yul\":25192:25243   */\n      mstore\n        /* \"#utility.yul\":25075:25250   */\n      pop\n      jump\t// out\n        /* \"#utility.yul\":25256:25426   */\n    tag_528:\n        /* \"#utility.yul\":25396:25418   */\n      0x53656c6c657220686173206e6f20746f6b656e2e000000000000000000000000\n        /* \"#utility.yul\":25392:25393   */\n      0x00\n        /* \"#utility.yul\":25384:25390   */\n      dup3\n        /* \"#utility.yul\":25380:25394   */\n      add\n        /* \"#utility.yul\":25373:25419   */\n      mstore\n        /* \"#utility.yul\":25256:25426   */\n      pop\n      jump\t// out\n        /* \"#utility.yul\":25432:25554   */\n    tag_362:\n        /* \"#utility.yul\":25505:25529   */\n      tag_625\n        /* \"#utility.yul\":25523:25528   */\n      dup2\n        /* \"#utility.yul\":25505:25529   */\n      tag_472\n      jump\t// in\n    tag_625:\n        /* \"#utility.yul\":25498:25503   */\n      dup2\n        /* \"#utility.yul\":25495:25530   */\n      eq\n        /* \"#utility.yul\":25485:25548   */\n      tag_626\n      jumpi\n        /* \"#utility.yul\":25544:25545   */\n      0x00\n        /* \"#utility.yul\":25541:25542   */\n      dup1\n        /* \"#utility.yul\":25534:25546   */\n      revert\n        /* \"#utility.yul\":25485:25548   */\n    tag_626:\n        /* \"#utility.yul\":25432:25554   */\n      pop\n      jump\t// out\n        /* \"#utility.yul\":25560:25676   */\n    tag_380:\n        /* \"#utility.yul\":25630:25651   */\n      tag_628\n        /* \"#utility.yul\":25645:25650   */\n      dup2\n        /* \"#utility.yul\":25630:25651   */\n      tag_476\n      jump\t// in\n    tag_628:\n        /* \"#utility.yul\":25623:25628   */\n      dup2\n        /* \"#utility.yul\":25620:25652   */\n      eq\n        /* \"#utility.yul\":25610:25670   */\n      tag_629\n      jumpi\n        /* \"#utility.yul\":25666:25667   */\n      0x00\n        /* \"#utility.yul\":25663:25664   */\n      dup1\n        /* \"#utility.yul\":25656:25668   */\n      revert\n        /* \"#utility.yul\":25610:25670   */\n    tag_629:\n        /* \"#utility.yul\":25560:25676   */\n      pop\n      jump\t// out\n        /* \"#utility.yul\":25682:25804   */\n    tag_384:\n        /* \"#utility.yul\":25755:25779   */\n      tag_631\n        /* \"#utility.yul\":25773:25778   */\n      dup2\n        /* \"#utility.yul\":25755:25779   */\n      tag_532\n      jump\t// in\n    tag_631:\n        /* \"#utility.yul\":25748:25753   */\n      dup2\n        /* \"#utility.yul\":25745:25780   */\n      eq\n        /* \"#utility.yul\":25735:25798   */\n      tag_632\n      jumpi\n        /* \"#utility.yul\":25794:25795   */\n      0x00\n        /* \"#utility.yul\":25791:25792   */\n      dup1\n        /* \"#utility.yul\":25784:25796   */\n      revert\n        /* \"#utility.yul\":25735:25798   */\n    tag_632:\n        /* \"#utility.yul\":25682:25804   */\n      pop\n      jump\t// out\n\n    auxdata: 0xa264697066735822122059a65e8615d934826fead225741edf82925fe54491cd582101b290e02dd44d9764736f6c63430008070033\n}\n",
				"bytecode": {
					"linkReferences": {},
					"object": "60806040523480156200001157600080fd5b5062000032620000266200003860201b60201c565b6200004060201b60201c565b62000104565b600033905090565b60008060009054906101000a900473ffffffffffffffffffffffffffffffffffffffff169050816000806101000a81548173ffffffffffffffffffffffffffffffffffffffff021916908373ffffffffffffffffffffffffffffffffffffffff1602179055508173ffffffffffffffffffffffffffffffffffffffff168173ffffffffffffffffffffffffffffffffffffffff167f8be0079c531659141344cd1fd0a4f28419497f9722a3daafe3b4186f6b6457e060405160405180910390a35050565b613b0380620001146000396000f3fe6080604052600436106100e75760003560e01c8063715018a61161008a5780638da5cb5b116100595780638da5cb5b146102f2578063b2ddee061461031d578063ed81abad14610346578063f2fde38b14610362576100e7565b8063715018a61461027a57806380abbe57146102915780638111f398146102ba5780638c5b197b146102d6576100e7565b80632973d6f8116100c65780632973d6f8146101a75780632c872cd1146101e45780632f634a9014610200578063449e815d1461023d576100e7565b806207df30146100ec578063031aa9b51461012d578063189ecff11461016a575b600080fd5b3480156100f857600080fd5b50610113600480360381019061010e9190613114565b61038b565b604051610124959493929190613687565b60405180910390f35b34801561013957600080fd5b50610154600480360381019061014f9190613114565b61041b565b6040516101619190613531565b60405180910390f35b34801561017657600080fd5b50610191600480360381019061018c9190613114565b610486565b60405161019e919061346c565b60405180910390f35b3480156101b357600080fd5b506101ce60048036038101906101c991906131e1565b610504565b6040516101db919061346c565b60405180910390f35b6101fe60048036038101906101f99190612fa3565b610594565b005b34801561020c57600080fd5b5061022760048036038101906102229190613114565b610e11565b604051610234919061346c565b60405180910390f35b34801561024957600080fd5b50610264600480360381019061025f9190613114565b610e8f565b604051610271919061366c565b60405180910390f35b34801561028657600080fd5b5061028f610eed565b005b34801561029d57600080fd5b506102b860048036038101906102b3919061328e565b610f75565b005b6102d460048036038101906102cf9190613154565b6112a8565b005b6102f060048036038101906102eb9190613045565b611972565b005b3480156102fe57600080fd5b50610307612075565b604051610314919061346c565b60405180910390f35b34801561032957600080fd5b50610344600480360381019061033f9190613114565b61209e565b005b610360600480360381019061035b9190612ec1565b61232e565b005b34801561036e57600080fd5b5061038960048036038101906103849190612e67565b612be4565b005b6001602052816000526040600020602052806000526040600020600091509150508060000154908060010160009054906101000a900473ffffffffffffffffffffffffffffffffffffffff16908060020160009054906101000a900473ffffffffffffffffffffffffffffffffffffffff16908060020160149054906101000a900460ff16908060030154905085565b6000600160008473ffffffffffffffffffffffffffffffffffffffff1673ffffffffffffffffffffffffffffffffffffffff168152602001908152602001600020600083815260200190815260200160002060020160149054906101000a900460ff16905092915050565b6000600160008473ffffffffffffffffffffffffffffffffffffffff1673ffffffffffffffffffffffffffffffffffffffff168152602001908152602001600020600083815260200190815260200160002060010160009054906101000a900473ffffffffffffffffffffffffffffffffffffffff16905092915050565b6000600160008573ffffffffffffffffffffffffffffffffffffffff1673ffffffffffffffffffffffffffffffffffffffff1681526020019081526020016000206000848152602001908152602001600020600401600083815260200190815260200160002060009054906101000a900473ffffffffffffffffffffffffffffffffffffffff1690509392505050565b6000600160008973ffffffffffffffffffffffffffffffffffffffff1673ffffffffffffffffffffffffffffffffffffffff16815260200190815260200160002060008781526020019081526020016000209050600088905060008890508260020160149054906101000a900460ff16610643576040517f08c379a000000000000000000000000000000000000000000000000000000000815260040161063a9061362c565b60405180910390fd5b8260010160009054906101000a900473ffffffffffffffffffffffffffffffffffffffff1673ffffffffffffffffffffffffffffffffffffffff163373ffffffffffffffffffffffffffffffffffffffff1614156106d6576040517f08c379a00000000000000000000000000000000000000000000000000000000081526004016106cd906135ac565b60405180910390fd5b82600001548173ffffffffffffffffffffffffffffffffffffffff166370a08231336040518263ffffffff1660e01b8152600401610714919061346c565b60206040518083038186803b15801561072c57600080fd5b505afa158015610740573d6000803e3d6000fd5b505050506040513d601f19601f820116820180604052508101906107649190613261565b10156107a5576040517f08c379a000000000000000000000000000000000000000000000000000000000815260040161079c906135cc565b60405180910390fd5b8073ffffffffffffffffffffffffffffffffffffffff166323b872dd338560010160009054906101000a900473ffffffffffffffffffffffffffffffffffffffff16601487600001546107f89190613752565b87600001546108079190613783565b6040518463ffffffff1660e01b8152600401610825939291906134b0565b602060405180830381600087803b15801561083f57600080fd5b505af1158015610853573d6000803e3d6000fd5b505050506040513d601f19601f820116820180604052508101906108779190613234565b508073ffffffffffffffffffffffffffffffffffffffff166323b872dd3361089d612075565b896040518463ffffffff1660e01b81526004016108bc939291906134b0565b602060405180830381600087803b1580156108d657600080fd5b505af11580156108ea573d6000803e3d6000fd5b505050506040513d601f19601f8201168201806040525081019061090e9190613234565b50600073ffffffffffffffffffffffffffffffffffffffff168773ffffffffffffffffffffffffffffffffffffffff16146109d4578073ffffffffffffffffffffffffffffffffffffffff166323b872dd3389876040518463ffffffff1660e01b8152600401610980939291906134b0565b602060405180830381600087803b15801561099a57600080fd5b505af11580156109ae573d6000803e3d6000fd5b505050506040513d601f19601f820116820180604052508101906109d29190613234565b505b60005b6005811015610b2b57600073ffffffffffffffffffffffffffffffffffffffff1684600401600083815260200190815260200160002060009054906101000a900473ffffffffffffffffffffffffffffffffffffffff1673ffffffffffffffffffffffffffffffffffffffff1614610b13578173ffffffffffffffffffffffffffffffffffffffff166323b872dd3386600401600085815260200190815260200160002060009054906101000a900473ffffffffffffffffffffffffffffffffffffffff16896040518463ffffffff1660e01b8152600401610abb939291906134b0565b602060405180830381600087803b158015610ad557600080fd5b505af1158015610ae9573d6000803e3d6000fd5b505050506040513d601f19601f82011682018060405250810190610b0d9190613234565b50610b18565b610b2b565b8080610b23906137ff565b9150506109d7565b508173ffffffffffffffffffffffffffffffffffffffff1663b88d4fde8460010160009054906101000a900473ffffffffffffffffffffffffffffffffffffffff16338b6040518463ffffffff1660e01b8152600401610b8d939291906134e7565b600060405180830381600087803b158015610ba757600080fd5b505af1158015610bbb573d6000803e3d6000fd5b50505050338360020160006101000a81548173ffffffffffffffffffffffffffffffffffffffff021916908373ffffffffffffffffffffffffffffffffffffffff1602179055506003600160008c73ffffffffffffffffffffffffffffffffffffffff1673ffffffffffffffffffffffffffffffffffffffff16815260200190815260200160002060008a81526020019081526020016000206003015411610cfa578260010160009054906101000a900473ffffffffffffffffffffffffffffffffffffffff168360040160008560030154815260200190815260200160002060006101000a81548173ffffffffffffffffffffffffffffffffffffffff021916908373ffffffffffffffffffffffffffffffffffffffff1602179055506001836003016000828254610cee91906136fc565b92505081905550610d81565b8260010160009054906101000a900473ffffffffffffffffffffffffffffffffffffffff168360040160008560030154815260200190815260200160002060006101000a81548173ffffffffffffffffffffffffffffffffffffffff021916908373ffffffffffffffffffffffffffffffffffffffff160217905550600083600301819055505b60008360020160146101000a81548160ff0219169083151502179055508260020160149054906101000a900460ff161515883373ffffffffffffffffffffffffffffffffffffffff167fa7cd299f7ebc29460ad99cf3ea75776d7cd038a63a59fa595e86441f8190ef908660000154604051610dfd919061366c565b60405180910390a450505050505050505050565b6000600160008473ffffffffffffffffffffffffffffffffffffffff1673ffffffffffffffffffffffffffffffffffffffff168152602001908152602001600020600083815260200190815260200160002060020160009054906101000a900473ffffffffffffffffffffffffffffffffffffffff16905092915050565b6000600160008473ffffffffffffffffffffffffffffffffffffffff1673ffffffffffffffffffffffffffffffffffffffff168152602001908152602001600020600083815260200190815260200160002060000154905092915050565b610ef5612cdc565b73ffffffffffffffffffffffffffffffffffffffff16610f13612075565b73ffffffffffffffffffffffffffffffffffffffff1614610f69576040517f08c379a0000000000000000000000000000000000000000000000000000000008152600401610f609061360c565b60405180910390fd5b610f736000612ce4565b565b60008290506000600160008573ffffffffffffffffffffffffffffffffffffffff1673ffffffffffffffffffffffffffffffffffffffff168152602001908152602001600020600084815260200190815260200160002090503373ffffffffffffffffffffffffffffffffffffffff168273ffffffffffffffffffffffffffffffffffffffff16636352211e856040518263ffffffff1660e01b815260040161101e919061366c565b60206040518083038186803b15801561103657600080fd5b505afa15801561104a573d6000803e3d6000fd5b505050506040513d601f19601f8201168201806040525081019061106e9190612e94565b73ffffffffffffffffffffffffffffffffffffffff16146110c4576040517f08c379a00000000000000000000000000000000000000000000000000000000081526004016110bb9061364c565b60405180910390fd5b8173ffffffffffffffffffffffffffffffffffffffff1663e985e9c533306040518363ffffffff1660e01b81526004016110ff929190613487565b60206040518083038186803b15801561111757600080fd5b505afa15801561112b573d6000803e3d6000fd5b505050506040513d601f19601f8201168201806040525081019061114f9190613234565b61118e576040517f08c379a00000000000000000000000000000000000000000000000000000000081526004016111859061356c565b60405180910390fd5b848160000181905550338160010160006101000a81548173ffffffffffffffffffffffffffffffffffffffff021916908373ffffffffffffffffffffffffffffffffffffffff160217905550338160020160006101000a81548173ffffffffffffffffffffffffffffffffffffffff021916908373ffffffffffffffffffffffffffffffffffffffff16021790555060018160020160146101000a81548160ff0219169083151502179055508060020160149054906101000a900460ff161515833373ffffffffffffffffffffffffffffffffffffffff167fa7cd299f7ebc29460ad99cf3ea75776d7cd038a63a59fa595e86441f8190ef908460000154604051611299919061366c565b60405180910390a45050505050565b6000600160008873ffffffffffffffffffffffffffffffffffffffff1673ffffffffffffffffffffffffffffffffffffffff1681526020019081526020016000206000878152602001908152602001600020905060008790508160020160149054906101000a900460ff16611352576040517f08c379a00000000000000000000000000000000000000000000000000000000081526004016113499061362c565b60405180910390fd5b8160010160009054906101000a900473ffffffffffffffffffffffffffffffffffffffff1673ffffffffffffffffffffffffffffffffffffffff163373ffffffffffffffffffffffffffffffffffffffff1614156113e5576040517f08c379a00000000000000000000000000000000000000000000000000000000081526004016113dc906135ac565b60405180910390fd5b816000015434101561142c576040517f08c379a0000000000000000000000000000000000000000000000000000000008152600401611423906135cc565b60405180910390fd5b8160010160009054906101000a900473ffffffffffffffffffffffffffffffffffffffff1673ffffffffffffffffffffffffffffffffffffffff166108fc6014846000015461147b9190613752565b846000015461148a9190613783565b9081150290604051600060405180830381858888f193505050501580156114b5573d6000803e3d6000fd5b506114be612075565b73ffffffffffffffffffffffffffffffffffffffff166108fc869081150290604051600060405180830381858888f19350505050158015611503573d6000803e3d6000fd5b50600073ffffffffffffffffffffffffffffffffffffffff168673ffffffffffffffffffffffffffffffffffffffff1614611580578573ffffffffffffffffffffffffffffffffffffffff166108fc849081150290604051600060405180830381858888f1935050505015801561157e573d6000803e3d6000fd5b505b60005b600581101561168e57600073ffffffffffffffffffffffffffffffffffffffff1683600401600083815260200190815260200160002060009054906101000a900473ffffffffffffffffffffffffffffffffffffffff1673ffffffffffffffffffffffffffffffffffffffff16146116765782600401600082815260200190815260200160002060009054906101000a900473ffffffffffffffffffffffffffffffffffffffff1673ffffffffffffffffffffffffffffffffffffffff166108fc869081150290604051600060405180830381858888f19350505050158015611670573d6000803e3d6000fd5b5061167b565b61168e565b8080611686906137ff565b915050611583565b508073ffffffffffffffffffffffffffffffffffffffff1663b88d4fde8360010160009054906101000a900473ffffffffffffffffffffffffffffffffffffffff16338a6040518463ffffffff1660e01b81526004016116f0939291906134e7565b600060405180830381600087803b15801561170a57600080fd5b505af115801561171e573d6000803e3d6000fd5b50505050338260020160006101000a81548173ffffffffffffffffffffffffffffffffffffffff021916908373ffffffffffffffffffffffffffffffffffffffff1602179055506003600160008a73ffffffffffffffffffffffffffffffffffffffff1673ffffffffffffffffffffffffffffffffffffffff1681526020019081526020016000206000898152602001908152602001600020600301541161185d578160010160009054906101000a900473ffffffffffffffffffffffffffffffffffffffff168260040160008460030154815260200190815260200160002060006101000a81548173ffffffffffffffffffffffffffffffffffffffff021916908373ffffffffffffffffffffffffffffffffffffffff160217905550600182600301600082825461185191906136fc565b925050819055506118e4565b8160010160009054906101000a900473ffffffffffffffffffffffffffffffffffffffff168260040160008460030154815260200190815260200160002060006101000a81548173ffffffffffffffffffffffffffffffffffffffff021916908373ffffffffffffffffffffffffffffffffffffffff160217905550600082600301819055505b60008260020160146101000a81548160ff0219169083151502179055508160020160149054906101000a900460ff161515873373ffffffffffffffffffffffffffffffffffffffff167fa7cd299f7ebc29460ad99cf3ea75776d7cd038a63a59fa595e86441f8190ef908560000154604051611960919061366c565b60405180910390a45050505050505050565b60005b8787905081101561206a576000600160008b73ffffffffffffffffffffffffffffffffffffffff1673ffffffffffffffffffffffffffffffffffffffff16815260200190815260200160002060008a8a858181106119d6576119d56138a6565b5b905060200201358152602001908152602001600020905060008a90508160020160149054906101000a900460ff16611a43576040517f08c379a0000000000000000000000000000000000000000000000000000000008152600401611a3a9061362c565b60405180910390fd5b8160010160009054906101000a900473ffffffffffffffffffffffffffffffffffffffff1673ffffffffffffffffffffffffffffffffffffffff163373ffffffffffffffffffffffffffffffffffffffff161415611ad6576040517f08c379a0000000000000000000000000000000000000000000000000000000008152600401611acd906135ac565b60405180910390fd5b8160000154341015611b1d576040517f08c379a0000000000000000000000000000000000000000000000000000000008152600401611b14906135cc565b60405180910390fd5b8160010160009054906101000a900473ffffffffffffffffffffffffffffffffffffffff1673ffffffffffffffffffffffffffffffffffffffff166108fc60148460000154611b6c9190613752565b8460000154611b7b9190613783565b9081150290604051600060405180830381858888f19350505050158015611ba6573d6000803e3d6000fd5b50611baf612075565b73ffffffffffffffffffffffffffffffffffffffff166108fc889081150290604051600060405180830381858888f19350505050158015611bf4573d6000803e3d6000fd5b50600073ffffffffffffffffffffffffffffffffffffffff168873ffffffffffffffffffffffffffffffffffffffff1614611c71578773ffffffffffffffffffffffffffffffffffffffff166108fc859081150290604051600060405180830381858888f19350505050158015611c6f573d6000803e3d6000fd5b505b60005b6005811015611d9857600073ffffffffffffffffffffffffffffffffffffffff1683600401600083815260200190815260200160002060009054906101000a900473ffffffffffffffffffffffffffffffffffffffff1673ffffffffffffffffffffffffffffffffffffffff1614611d805782600401600082815260200190815260200160002060009054906101000a900473ffffffffffffffffffffffffffffffffffffffff1673ffffffffffffffffffffffffffffffffffffffff166108fc888887818110611d4857611d476138a6565b5b905060200201359081150290604051600060405180830381858888f19350505050158015611d7a573d6000803e3d6000fd5b50611d85565b611d98565b8080611d90906137ff565b915050611c74565b508073ffffffffffffffffffffffffffffffffffffffff1663b88d4fde8360010160009054906101000a900473ffffffffffffffffffffffffffffffffffffffff16338d8d88818110611dee57611ded6138a6565b5b905060200201356040518463ffffffff1660e01b8152600401611e13939291906134e7565b600060405180830381600087803b158015611e2d57600080fd5b505af1158015611e41573d6000803e3d6000fd5b50505050338260020160006101000a81548173ffffffffffffffffffffffffffffffffffffffff021916908373ffffffffffffffffffffffffffffffffffffffff1602179055506003826003015411611f31578160010160009054906101000a900473ffffffffffffffffffffffffffffffffffffffff168260040160008460030154815260200190815260200160002060006101000a81548173ffffffffffffffffffffffffffffffffffffffff021916908373ffffffffffffffffffffffffffffffffffffffff1602179055506001826003016000828254611f2591906136fc565b92505081905550611fb8565b8160010160009054906101000a900473ffffffffffffffffffffffffffffffffffffffff168260040160008460030154815260200190815260200160002060006101000a81548173ffffffffffffffffffffffffffffffffffffffff021916908373ffffffffffffffffffffffffffffffffffffffff160217905550600082600301819055505b60008260020160146101000a81548160ff0219169083151502179055508160020160149054906101000a900460ff1615158a8a85818110611ffc57611ffb6138a6565b5b905060200201353373ffffffffffffffffffffffffffffffffffffffff167fa7cd299f7ebc29460ad99cf3ea75776d7cd038a63a59fa595e86441f8190ef90856000015460405161204d919061366c565b60405180910390a450508080612062906137ff565b915050611975565b505050505050505050565b60008060009054906101000a900473ffffffffffffffffffffffffffffffffffffffff16905090565b60008290506000600160008573ffffffffffffffffffffffffffffffffffffffff1673ffffffffffffffffffffffffffffffffffffffff168152602001908152602001600020600084815260200190815260200160002090503373ffffffffffffffffffffffffffffffffffffffff168160010160009054906101000a900473ffffffffffffffffffffffffffffffffffffffff1673ffffffffffffffffffffffffffffffffffffffff1614612189576040517f08c379a0000000000000000000000000000000000000000000000000000000008152600401612180906135ec565b60405180910390fd5b8060020160149054906101000a900460ff166121da576040517f08c379a00000000000000000000000000000000000000000000000000000000081526004016121d19061354c565b60405180910390fd5b8173ffffffffffffffffffffffffffffffffffffffff1663e985e9c533306040518363ffffffff1660e01b8152600401612215929190613487565b60206040518083038186803b15801561222d57600080fd5b505afa158015612241573d6000803e3d6000fd5b505050506040513d601f19601f820116820180604052508101906122659190613234565b6122a4576040517f08c379a000000000000000000000000000000000000000000000000000000000815260040161229b9061356c565b60405180910390fd5b60008160020160146101000a81548160ff0219169083151502179055508060020160149054906101000a900460ff161515833373ffffffffffffffffffffffffffffffffffffffff167fa7cd299f7ebc29460ad99cf3ea75776d7cd038a63a59fa595e86441f8190ef908460000154604051612320919061366c565b60405180910390a450505050565b60005b87879050811015612bd8576000600160008c73ffffffffffffffffffffffffffffffffffffffff1673ffffffffffffffffffffffffffffffffffffffff16815260200190815260200160002060008a8a85818110612392576123916138a6565b5b905060200201358152602001908152602001600020905060008b905060008b90508260020160149054906101000a900460ff16612404576040517f08c379a00000000000000000000000000000000000000000000000000000000081526004016123fb9061362c565b60405180910390fd5b8260010160009054906101000a900473ffffffffffffffffffffffffffffffffffffffff1673ffffffffffffffffffffffffffffffffffffffff163373ffffffffffffffffffffffffffffffffffffffff161415612497576040517f08c379a000000000000000000000000000000000000000000000000000000000815260040161248e906135ac565b60405180910390fd5b82600001548173ffffffffffffffffffffffffffffffffffffffff166370a08231336040518263ffffffff1660e01b81526004016124d5919061346c565b60206040518083038186803b1580156124ed57600080fd5b505afa158015612501573d6000803e3d6000fd5b505050506040513d601f19601f820116820180604052508101906125259190613261565b1015612566576040517f08c379a000000000000000000000000000000000000000000000000000000000815260040161255d906135cc565b60405180910390fd5b8073ffffffffffffffffffffffffffffffffffffffff166323b872dd338560010160009054906101000a900473ffffffffffffffffffffffffffffffffffffffff16601487600001546125b99190613752565b87600001546125c89190613783565b6040518463ffffffff1660e01b81526004016125e6939291906134b0565b602060405180830381600087803b15801561260057600080fd5b505af1158015612614573d6000803e3d6000fd5b505050506040513d601f19601f820116820180604052508101906126389190613234565b508073ffffffffffffffffffffffffffffffffffffffff166323b872dd3361265e612075565b8b6040518463ffffffff1660e01b815260040161267d939291906134b0565b602060405180830381600087803b15801561269757600080fd5b505af11580156126ab573d6000803e3d6000fd5b505050506040513d601f19601f820116820180604052508101906126cf9190613234565b50600073ffffffffffffffffffffffffffffffffffffffff168973ffffffffffffffffffffffffffffffffffffffff1614612795578073ffffffffffffffffffffffffffffffffffffffff166323b872dd338b886040518463ffffffff1660e01b8152600401612741939291906134b0565b602060405180830381600087803b15801561275b57600080fd5b505af115801561276f573d6000803e3d6000fd5b505050506040513d601f19601f820116820180604052508101906127939190613234565b505b60005b600581101561290557600073ffffffffffffffffffffffffffffffffffffffff1684600401600083815260200190815260200160002060009054906101000a900473ffffffffffffffffffffffffffffffffffffffff1673ffffffffffffffffffffffffffffffffffffffff16146128ed578173ffffffffffffffffffffffffffffffffffffffff166323b872dd3386600401600085815260200190815260200160002060009054906101000a900473ffffffffffffffffffffffffffffffffffffffff168b8b8a8181106128705761286f6138a6565b5b905060200201356040518463ffffffff1660e01b8152600401612895939291906134b0565b602060405180830381600087803b1580156128af57600080fd5b505af11580156128c3573d6000803e3d6000fd5b505050506040513d601f19601f820116820180604052508101906128e79190613234565b506128f2565b612905565b80806128fd906137ff565b915050612798565b508173ffffffffffffffffffffffffffffffffffffffff1663b88d4fde8460010160009054906101000a900473ffffffffffffffffffffffffffffffffffffffff16338e8e8981811061295b5761295a6138a6565b5b905060200201356040518463ffffffff1660e01b8152600401612980939291906134e7565b600060405180830381600087803b15801561299a57600080fd5b505af11580156129ae573d6000803e3d6000fd5b50505050338360020160006101000a81548173ffffffffffffffffffffffffffffffffffffffff021916908373ffffffffffffffffffffffffffffffffffffffff1602179055506003836003015411612a9e578260010160009054906101000a900473ffffffffffffffffffffffffffffffffffffffff168360040160008560030154815260200190815260200160002060006101000a81548173ffffffffffffffffffffffffffffffffffffffff021916908373ffffffffffffffffffffffffffffffffffffffff1602179055506001836003016000828254612a9291906136fc565b92505081905550612b25565b8260010160009054906101000a900473ffffffffffffffffffffffffffffffffffffffff168360040160008560030154815260200190815260200160002060006101000a81548173ffffffffffffffffffffffffffffffffffffffff021916908373ffffffffffffffffffffffffffffffffffffffff160217905550600083600301819055505b60008360020160146101000a81548160ff0219169083151502179055508260020160149054906101000a900460ff1615158b8b86818110612b6957612b686138a6565b5b905060200201353373ffffffffffffffffffffffffffffffffffffffff167fa7cd299f7ebc29460ad99cf3ea75776d7cd038a63a59fa595e86441f8190ef908660000154604051612bba919061366c565b60405180910390a45050508080612bd0906137ff565b915050612331565b50505050505050505050565b612bec612cdc565b73ffffffffffffffffffffffffffffffffffffffff16612c0a612075565b73ffffffffffffffffffffffffffffffffffffffff1614612c60576040517f08c379a0000000000000000000000000000000000000000000000000000000008152600401612c579061360c565b60405180910390fd5b600073ffffffffffffffffffffffffffffffffffffffff168173ffffffffffffffffffffffffffffffffffffffff161415612cd0576040517f08c379a0000000000000000000000000000000000000000000000000000000008152600401612cc79061358c565b60405180910390fd5b612cd981612ce4565b50565b600033905090565b60008060009054906101000a900473ffffffffffffffffffffffffffffffffffffffff169050816000806101000a81548173ffffffffffffffffffffffffffffffffffffffff021916908373ffffffffffffffffffffffffffffffffffffffff1602179055508173ffffffffffffffffffffffffffffffffffffffff168173ffffffffffffffffffffffffffffffffffffffff167f8be0079c531659141344cd1fd0a4f28419497f9722a3daafe3b4186f6b6457e060405160405180910390a35050565b600081359050612db781613a88565b92915050565b600081519050612dcc81613a88565b92915050565b60008083601f840112612de857612de76138da565b5b8235905067ffffffffffffffff811115612e0557612e046138d5565b5b602083019150836020820283011115612e2157612e206138df565b5b9250929050565b600081519050612e3781613a9f565b92915050565b600081359050612e4c81613ab6565b92915050565b600081519050612e6181613ab6565b92915050565b600060208284031215612e7d57612e7c6138e9565b5b6000612e8b84828501612da8565b91505092915050565b600060208284031215612eaa57612ea96138e9565b5b6000612eb884828501612dbd565b91505092915050565b600080600080600080600080600060e08a8c031215612ee357612ee26138e9565b5b6000612ef18c828d01612da8565b9950506020612f028c828d01612da8565b98505060408a013567ffffffffffffffff811115612f2357612f226138e4565b5b612f2f8c828d01612dd2565b97509750506060612f428c828d01612da8565b9550506080612f538c828d01612e3d565b94505060a08a013567ffffffffffffffff811115612f7457612f736138e4565b5b612f808c828d01612dd2565b935093505060c0612f938c828d01612e3d565b9150509295985092959850929598565b600080600080600080600060e0888a031215612fc257612fc16138e9565b5b6000612fd08a828b01612da8565b9750506020612fe18a828b01612da8565b9650506040612ff28a828b01612e3d565b95505060606130038a828b01612da8565b94505060806130148a828b01612e3d565b93505060a06130258a828b01612e3d565b92505060c06130368a828b01612e3d565b91505092959891949750929550565b60008060008060008060008060c0898b031215613065576130646138e9565b5b60006130738b828c01612da8565b985050602089013567ffffffffffffffff811115613094576130936138e4565b5b6130a08b828c01612dd2565b975097505060406130b38b828c01612da8565b95505060606130c48b828c01612e3d565b945050608089013567ffffffffffffffff8111156130e5576130e46138e4565b5b6130f18b828c01612dd2565b935093505060a06131048b828c01612e3d565b9150509295985092959890939650565b6000806040838503121561312b5761312a6138e9565b5b600061313985828601612da8565b925050602061314a85828601612e3d565b9150509250929050565b60008060008060008060c08789031215613171576131706138e9565b5b600061317f89828a01612da8565b965050602061319089828a01612e3d565b95505060406131a189828a01612da8565b94505060606131b289828a01612e3d565b93505060806131c389828a01612e3d565b92505060a06131d489828a01612e3d565b9150509295509295509295565b6000806000606084860312156131fa576131f96138e9565b5b600061320886828701612da8565b935050602061321986828701612e3d565b925050604061322a86828701612e3d565b9150509250925092565b60006020828403121561324a576132496138e9565b5b600061325884828501612e28565b91505092915050565b600060208284031215613277576132766138e9565b5b600061328584828501612e52565b91505092915050565b6000806000606084860312156132a7576132a66138e9565b5b60006132b586828701612e3d565b93505060206132c686828701612da8565b92505060406132d786828701612e3d565b9150509250925092565b6132ea816137b7565b82525050565b6132f9816137c9565b82525050565b600061330c6018836136eb565b9150613317826138ee565b602082019050919050565b600061332f601a836136eb565b915061333a82613917565b602082019050919050565b60006133526026836136eb565b915061335d82613940565b604082019050919050565b60006133756012836136eb565b91506133808261398f565b602082019050919050565b60006133986018836136eb565b91506133a3826139b8565b602082019050919050565b60006133bb600d836136eb565b91506133c6826139e1565b602082019050919050565b60006133de6020836136eb565b91506133e982613a0a565b602082019050919050565b60006134016000836136da565b915061340c82613a33565b600082019050919050565b60006134246019836136eb565b915061342f82613a36565b602082019050919050565b60006134476014836136eb565b915061345282613a5f565b602082019050919050565b613466816137f5565b82525050565b600060208201905061348160008301846132e1565b92915050565b600060408201905061349c60008301856132e1565b6134a960208301846132e1565b9392505050565b60006060820190506134c560008301866132e1565b6134d260208301856132e1565b6134df604083018461345d565b949350505050565b60006080820190506134fc60008301866132e1565b61350960208301856132e1565b613516604083018461345d565b8181036060830152613527816133f4565b9050949350505050565b600060208201905061354660008301846132f0565b92915050565b60006020820190508181036000830152613565816132ff565b9050919050565b6000602082019050818103600083015261358581613322565b9050919050565b600060208201905081810360008301526135a581613345565b9050919050565b600060208201905081810360008301526135c581613368565b9050919050565b600060208201905081810360008301526135e58161338b565b9050919050565b60006020820190508181036000830152613605816133ae565b9050919050565b60006020820190508181036000830152613625816133d1565b9050919050565b6000602082019050818103600083015261364581613417565b9050919050565b600060208201905081810360008301526136658161343a565b9050919050565b6000602082019050613681600083018461345d565b92915050565b600060a08201905061369c600083018861345d565b6136a960208301876132e1565b6136b660408301866132e1565b6136c360608301856132f0565b6136d0608083018461345d565b9695505050505050565b600082825260208201905092915050565b600082825260208201905092915050565b6000613707826137f5565b9150613712836137f5565b9250827fffffffffffffffffffffffffffffffffffffffffffffffffffffffffffffffff0382111561374757613746613848565b5b828201905092915050565b600061375d826137f5565b9150613768836137f5565b92508261377857613777613877565b5b828204905092915050565b600061378e826137f5565b9150613799836137f5565b9250828210156137ac576137ab613848565b5b828203905092915050565b60006137c2826137d5565b9050919050565b60008115159050919050565b600073ffffffffffffffffffffffffffffffffffffffff82169050919050565b6000819050919050565b600061380a826137f5565b91507fffffffffffffffffffffffffffffffffffffffffffffffffffffffffffffffff82141561383d5761383c613848565b5b600182019050919050565b7f4e487b7100000000000000000000000000000000000000000000000000000000600052601160045260246000fd5b7f4e487b7100000000000000000000000000000000000000000000000000000000600052601260045260246000fd5b7f4e487b7100000000000000000000000000000000000000000000000000000000600052603260045260246000fd5b600080fd5b600080fd5b600080fd5b600080fd5b600080fd5b7f54686973204e4654206973206e6f74206c697374696e672e0000000000000000600082015250565b7f436f6e7472616374206d75737420626520617070726f7665642e000000000000600082015250565b7f4f776e61626c653a206e6577206f776e657220697320746865207a65726f206160008201527f6464726573730000000000000000000000000000000000000000000000000000602082015250565b7f4275792066726f6d20796f757273656c662e0000000000000000000000000000600082015250565b7f496e73756666696369656e742066756e64732073656e742e0000000000000000600082015250565b7f556e617574686f72697a65642e00000000000000000000000000000000000000600082015250565b7f4f776e61626c653a2063616c6c6572206973206e6f7420746865206f776e6572600082015250565b50565b7f54686973204e4654206973206e6f7420666f722073656c6c2e00000000000000600082015250565b7f53656c6c657220686173206e6f20746f6b656e2e000000000000000000000000600082015250565b613a91816137b7565b8114613a9c57600080fd5b50565b613aa8816137c9565b8114613ab357600080fd5b50565b613abf816137f5565b8114613aca57600080fd5b5056fea264697066735822122059a65e8615d934826fead225741edf82925fe54491cd582101b290e02dd44d9764736f6c63430008070033",
					"opcodes": "PUSH1 0x80 PUSH1 0x40 MSTORE CALLVALUE DUP1 ISZERO PUSH3 0x11 JUMPI PUSH1 0x0 DUP1 REVERT JUMPDEST POP PUSH3 0x32 PUSH3 0x26 PUSH3 0x38 PUSH1 0x20 SHL PUSH1 0x20 SHR JUMP JUMPDEST PUSH3 0x40 PUSH1 0x20 SHL PUSH1 0x20 SHR JUMP JUMPDEST PUSH3 0x104 JUMP JUMPDEST PUSH1 0x0 CALLER SWAP1 POP SWAP1 JUMP JUMPDEST PUSH1 0x0 DUP1 PUSH1 0x0 SWAP1 SLOAD SWAP1 PUSH2 0x100 EXP SWAP1 DIV PUSH20 0xFFFFFFFFFFFFFFFFFFFFFFFFFFFFFFFFFFFFFFFF AND SWAP1 POP DUP2 PUSH1 0x0 DUP1 PUSH2 0x100 EXP DUP2 SLOAD DUP2 PUSH20 0xFFFFFFFFFFFFFFFFFFFFFFFFFFFFFFFFFFFFFFFF MUL NOT AND SWAP1 DUP4 PUSH20 0xFFFFFFFFFFFFFFFFFFFFFFFFFFFFFFFFFFFFFFFF AND MUL OR SWAP1 SSTORE POP DUP2 PUSH20 0xFFFFFFFFFFFFFFFFFFFFFFFFFFFFFFFFFFFFFFFF AND DUP2 PUSH20 0xFFFFFFFFFFFFFFFFFFFFFFFFFFFFFFFFFFFFFFFF AND PUSH32 0x8BE0079C531659141344CD1FD0A4F28419497F9722A3DAAFE3B4186F6B6457E0 PUSH1 0x40 MLOAD PUSH1 0x40 MLOAD DUP1 SWAP2 SUB SWAP1 LOG3 POP POP JUMP JUMPDEST PUSH2 0x3B03 DUP1 PUSH3 0x114 PUSH1 0x0 CODECOPY PUSH1 0x0 RETURN INVALID PUSH1 0x80 PUSH1 0x40 MSTORE PUSH1 0x4 CALLDATASIZE LT PUSH2 0xE7 JUMPI PUSH1 0x0 CALLDATALOAD PUSH1 0xE0 SHR DUP1 PUSH4 0x715018A6 GT PUSH2 0x8A JUMPI DUP1 PUSH4 0x8DA5CB5B GT PUSH2 0x59 JUMPI DUP1 PUSH4 0x8DA5CB5B EQ PUSH2 0x2F2 JUMPI DUP1 PUSH4 0xB2DDEE06 EQ PUSH2 0x31D JUMPI DUP1 PUSH4 0xED81ABAD EQ PUSH2 0x346 JUMPI DUP1 PUSH4 0xF2FDE38B EQ PUSH2 0x362 JUMPI PUSH2 0xE7 JUMP JUMPDEST DUP1 PUSH4 0x715018A6 EQ PUSH2 0x27A JUMPI DUP1 PUSH4 0x80ABBE57 EQ PUSH2 0x291 JUMPI DUP1 PUSH4 0x8111F398 EQ PUSH2 0x2BA JUMPI DUP1 PUSH4 0x8C5B197B EQ PUSH2 0x2D6 JUMPI PUSH2 0xE7 JUMP JUMPDEST DUP1 PUSH4 0x2973D6F8 GT PUSH2 0xC6 JUMPI DUP1 PUSH4 0x2973D6F8 EQ PUSH2 0x1A7 JUMPI DUP1 PUSH4 0x2C872CD1 EQ PUSH2 0x1E4 JUMPI DUP1 PUSH4 0x2F634A90 EQ PUSH2 0x200 JUMPI DUP1 PUSH4 0x449E815D EQ PUSH2 0x23D JUMPI PUSH2 0xE7 JUMP JUMPDEST DUP1 PUSH3 0x7DF30 EQ PUSH2 0xEC JUMPI DUP1 PUSH4 0x31AA9B5 EQ PUSH2 0x12D JUMPI DUP1 PUSH4 0x189ECFF1 EQ PUSH2 0x16A JUMPI JUMPDEST PUSH1 0x0 DUP1 REVERT JUMPDEST CALLVALUE DUP1 ISZERO PUSH2 0xF8 JUMPI PUSH1 0x0 DUP1 REVERT JUMPDEST POP PUSH2 0x113 PUSH1 0x4 DUP1 CALLDATASIZE SUB DUP2 ADD SWAP1 PUSH2 0x10E SWAP2 SWAP1 PUSH2 0x3114 JUMP JUMPDEST PUSH2 0x38B JUMP JUMPDEST PUSH1 0x40 MLOAD PUSH2 0x124 SWAP6 SWAP5 SWAP4 SWAP3 SWAP2 SWAP1 PUSH2 0x3687 JUMP JUMPDEST PUSH1 0x40 MLOAD DUP1 SWAP2 SUB SWAP1 RETURN JUMPDEST CALLVALUE DUP1 ISZERO PUSH2 0x139 JUMPI PUSH1 0x0 DUP1 REVERT JUMPDEST POP PUSH2 0x154 PUSH1 0x4 DUP1 CALLDATASIZE SUB DUP2 ADD SWAP1 PUSH2 0x14F SWAP2 SWAP1 PUSH2 0x3114 JUMP JUMPDEST PUSH2 0x41B JUMP JUMPDEST PUSH1 0x40 MLOAD PUSH2 0x161 SWAP2 SWAP1 PUSH2 0x3531 JUMP JUMPDEST PUSH1 0x40 MLOAD DUP1 SWAP2 SUB SWAP1 RETURN JUMPDEST CALLVALUE DUP1 ISZERO PUSH2 0x176 JUMPI PUSH1 0x0 DUP1 REVERT JUMPDEST POP PUSH2 0x191 PUSH1 0x4 DUP1 CALLDATASIZE SUB DUP2 ADD SWAP1 PUSH2 0x18C SWAP2 SWAP1 PUSH2 0x3114 JUMP JUMPDEST PUSH2 0x486 JUMP JUMPDEST PUSH1 0x40 MLOAD PUSH2 0x19E SWAP2 SWAP1 PUSH2 0x346C JUMP JUMPDEST PUSH1 0x40 MLOAD DUP1 SWAP2 SUB SWAP1 RETURN JUMPDEST CALLVALUE DUP1 ISZERO PUSH2 0x1B3 JUMPI PUSH1 0x0 DUP1 REVERT JUMPDEST POP PUSH2 0x1CE PUSH1 0x4 DUP1 CALLDATASIZE SUB DUP2 ADD SWAP1 PUSH2 0x1C9 SWAP2 SWAP1 PUSH2 0x31E1 JUMP JUMPDEST PUSH2 0x504 JUMP JUMPDEST PUSH1 0x40 MLOAD PUSH2 0x1DB SWAP2 SWAP1 PUSH2 0x346C JUMP JUMPDEST PUSH1 0x40 MLOAD DUP1 SWAP2 SUB SWAP1 RETURN JUMPDEST PUSH2 0x1FE PUSH1 0x4 DUP1 CALLDATASIZE SUB DUP2 ADD SWAP1 PUSH2 0x1F9 SWAP2 SWAP1 PUSH2 0x2FA3 JUMP JUMPDEST PUSH2 0x594 JUMP JUMPDEST STOP JUMPDEST CALLVALUE DUP1 ISZERO PUSH2 0x20C JUMPI PUSH1 0x0 DUP1 REVERT JUMPDEST POP PUSH2 0x227 PUSH1 0x4 DUP1 CALLDATASIZE SUB DUP2 ADD SWAP1 PUSH2 0x222 SWAP2 SWAP1 PUSH2 0x3114 JUMP JUMPDEST PUSH2 0xE11 JUMP JUMPDEST PUSH1 0x40 MLOAD PUSH2 0x234 SWAP2 SWAP1 PUSH2 0x346C JUMP JUMPDEST PUSH1 0x40 MLOAD DUP1 SWAP2 SUB SWAP1 RETURN JUMPDEST CALLVALUE DUP1 ISZERO PUSH2 0x249 JUMPI PUSH1 0x0 DUP1 REVERT JUMPDEST POP PUSH2 0x264 PUSH1 0x4 DUP1 CALLDATASIZE SUB DUP2 ADD SWAP1 PUSH2 0x25F SWAP2 SWAP1 PUSH2 0x3114 JUMP JUMPDEST PUSH2 0xE8F JUMP JUMPDEST PUSH1 0x40 MLOAD PUSH2 0x271 SWAP2 SWAP1 PUSH2 0x366C JUMP JUMPDEST PUSH1 0x40 MLOAD DUP1 SWAP2 SUB SWAP1 RETURN JUMPDEST CALLVALUE DUP1 ISZERO PUSH2 0x286 JUMPI PUSH1 0x0 DUP1 REVERT JUMPDEST POP PUSH2 0x28F PUSH2 0xEED JUMP JUMPDEST STOP JUMPDEST CALLVALUE DUP1 ISZERO PUSH2 0x29D JUMPI PUSH1 0x0 DUP1 REVERT JUMPDEST POP PUSH2 0x2B8 PUSH1 0x4 DUP1 CALLDATASIZE SUB DUP2 ADD SWAP1 PUSH2 0x2B3 SWAP2 SWAP1 PUSH2 0x328E JUMP JUMPDEST PUSH2 0xF75 JUMP JUMPDEST STOP JUMPDEST PUSH2 0x2D4 PUSH1 0x4 DUP1 CALLDATASIZE SUB DUP2 ADD SWAP1 PUSH2 0x2CF SWAP2 SWAP1 PUSH2 0x3154 JUMP JUMPDEST PUSH2 0x12A8 JUMP JUMPDEST STOP JUMPDEST PUSH2 0x2F0 PUSH1 0x4 DUP1 CALLDATASIZE SUB DUP2 ADD SWAP1 PUSH2 0x2EB SWAP2 SWAP1 PUSH2 0x3045 JUMP JUMPDEST PUSH2 0x1972 JUMP JUMPDEST STOP JUMPDEST CALLVALUE DUP1 ISZERO PUSH2 0x2FE JUMPI PUSH1 0x0 DUP1 REVERT JUMPDEST POP PUSH2 0x307 PUSH2 0x2075 JUMP JUMPDEST PUSH1 0x40 MLOAD PUSH2 0x314 SWAP2 SWAP1 PUSH2 0x346C JUMP JUMPDEST PUSH1 0x40 MLOAD DUP1 SWAP2 SUB SWAP1 RETURN JUMPDEST CALLVALUE DUP1 ISZERO PUSH2 0x329 JUMPI PUSH1 0x0 DUP1 REVERT JUMPDEST POP PUSH2 0x344 PUSH1 0x4 DUP1 CALLDATASIZE SUB DUP2 ADD SWAP1 PUSH2 0x33F SWAP2 SWAP1 PUSH2 0x3114 JUMP JUMPDEST PUSH2 0x209E JUMP JUMPDEST STOP JUMPDEST PUSH2 0x360 PUSH1 0x4 DUP1 CALLDATASIZE SUB DUP2 ADD SWAP1 PUSH2 0x35B SWAP2 SWAP1 PUSH2 0x2EC1 JUMP JUMPDEST PUSH2 0x232E JUMP JUMPDEST STOP JUMPDEST CALLVALUE DUP1 ISZERO PUSH2 0x36E JUMPI PUSH1 0x0 DUP1 REVERT JUMPDEST POP PUSH2 0x389 PUSH1 0x4 DUP1 CALLDATASIZE SUB DUP2 ADD SWAP1 PUSH2 0x384 SWAP2 SWAP1 PUSH2 0x2E67 JUMP JUMPDEST PUSH2 0x2BE4 JUMP JUMPDEST STOP JUMPDEST PUSH1 0x1 PUSH1 0x20 MSTORE DUP2 PUSH1 0x0 MSTORE PUSH1 0x40 PUSH1 0x0 KECCAK256 PUSH1 0x20 MSTORE DUP1 PUSH1 0x0 MSTORE PUSH1 0x40 PUSH1 0x0 KECCAK256 PUSH1 0x0 SWAP2 POP SWAP2 POP POP DUP1 PUSH1 0x0 ADD SLOAD SWAP1 DUP1 PUSH1 0x1 ADD PUSH1 0x0 SWAP1 SLOAD SWAP1 PUSH2 0x100 EXP SWAP1 DIV PUSH20 0xFFFFFFFFFFFFFFFFFFFFFFFFFFFFFFFFFFFFFFFF AND SWAP1 DUP1 PUSH1 0x2 ADD PUSH1 0x0 SWAP1 SLOAD SWAP1 PUSH2 0x100 EXP SWAP1 DIV PUSH20 0xFFFFFFFFFFFFFFFFFFFFFFFFFFFFFFFFFFFFFFFF AND SWAP1 DUP1 PUSH1 0x2 ADD PUSH1 0x14 SWAP1 SLOAD SWAP1 PUSH2 0x100 EXP SWAP1 DIV PUSH1 0xFF AND SWAP1 DUP1 PUSH1 0x3 ADD SLOAD SWAP1 POP DUP6 JUMP JUMPDEST PUSH1 0x0 PUSH1 0x1 PUSH1 0x0 DUP5 PUSH20 0xFFFFFFFFFFFFFFFFFFFFFFFFFFFFFFFFFFFFFFFF AND PUSH20 0xFFFFFFFFFFFFFFFFFFFFFFFFFFFFFFFFFFFFFFFF AND DUP2 MSTORE PUSH1 0x20 ADD SWAP1 DUP2 MSTORE PUSH1 0x20 ADD PUSH1 0x0 KECCAK256 PUSH1 0x0 DUP4 DUP2 MSTORE PUSH1 0x20 ADD SWAP1 DUP2 MSTORE PUSH1 0x20 ADD PUSH1 0x0 KECCAK256 PUSH1 0x2 ADD PUSH1 0x14 SWAP1 SLOAD SWAP1 PUSH2 0x100 EXP SWAP1 DIV PUSH1 0xFF AND SWAP1 POP SWAP3 SWAP2 POP POP JUMP JUMPDEST PUSH1 0x0 PUSH1 0x1 PUSH1 0x0 DUP5 PUSH20 0xFFFFFFFFFFFFFFFFFFFFFFFFFFFFFFFFFFFFFFFF AND PUSH20 0xFFFFFFFFFFFFFFFFFFFFFFFFFFFFFFFFFFFFFFFF AND DUP2 MSTORE PUSH1 0x20 ADD SWAP1 DUP2 MSTORE PUSH1 0x20 ADD PUSH1 0x0 KECCAK256 PUSH1 0x0 DUP4 DUP2 MSTORE PUSH1 0x20 ADD SWAP1 DUP2 MSTORE PUSH1 0x20 ADD PUSH1 0x0 KECCAK256 PUSH1 0x1 ADD PUSH1 0x0 SWAP1 SLOAD SWAP1 PUSH2 0x100 EXP SWAP1 DIV PUSH20 0xFFFFFFFFFFFFFFFFFFFFFFFFFFFFFFFFFFFFFFFF AND SWAP1 POP SWAP3 SWAP2 POP POP JUMP JUMPDEST PUSH1 0x0 PUSH1 0x1 PUSH1 0x0 DUP6 PUSH20 0xFFFFFFFFFFFFFFFFFFFFFFFFFFFFFFFFFFFFFFFF AND PUSH20 0xFFFFFFFFFFFFFFFFFFFFFFFFFFFFFFFFFFFFFFFF AND DUP2 MSTORE PUSH1 0x20 ADD SWAP1 DUP2 MSTORE PUSH1 0x20 ADD PUSH1 0x0 KECCAK256 PUSH1 0x0 DUP5 DUP2 MSTORE PUSH1 0x20 ADD SWAP1 DUP2 MSTORE PUSH1 0x20 ADD PUSH1 0x0 KECCAK256 PUSH1 0x4 ADD PUSH1 0x0 DUP4 DUP2 MSTORE PUSH1 0x20 ADD SWAP1 DUP2 MSTORE PUSH1 0x20 ADD PUSH1 0x0 KECCAK256 PUSH1 0x0 SWAP1 SLOAD SWAP1 PUSH2 0x100 EXP SWAP1 DIV PUSH20 0xFFFFFFFFFFFFFFFFFFFFFFFFFFFFFFFFFFFFFFFF AND SWAP1 POP SWAP4 SWAP3 POP POP POP JUMP JUMPDEST PUSH1 0x0 PUSH1 0x1 PUSH1 0x0 DUP10 PUSH20 0xFFFFFFFFFFFFFFFFFFFFFFFFFFFFFFFFFFFFFFFF AND PUSH20 0xFFFFFFFFFFFFFFFFFFFFFFFFFFFFFFFFFFFFFFFF AND DUP2 MSTORE PUSH1 0x20 ADD SWAP1 DUP2 MSTORE PUSH1 0x20 ADD PUSH1 0x0 KECCAK256 PUSH1 0x0 DUP8 DUP2 MSTORE PUSH1 0x20 ADD SWAP1 DUP2 MSTORE PUSH1 0x20 ADD PUSH1 0x0 KECCAK256 SWAP1 POP PUSH1 0x0 DUP9 SWAP1 POP PUSH1 0x0 DUP9 SWAP1 POP DUP3 PUSH1 0x2 ADD PUSH1 0x14 SWAP1 SLOAD SWAP1 PUSH2 0x100 EXP SWAP1 DIV PUSH1 0xFF AND PUSH2 0x643 JUMPI PUSH1 0x40 MLOAD PUSH32 0x8C379A000000000000000000000000000000000000000000000000000000000 DUP2 MSTORE PUSH1 0x4 ADD PUSH2 0x63A SWAP1 PUSH2 0x362C JUMP JUMPDEST PUSH1 0x40 MLOAD DUP1 SWAP2 SUB SWAP1 REVERT JUMPDEST DUP3 PUSH1 0x1 ADD PUSH1 0x0 SWAP1 SLOAD SWAP1 PUSH2 0x100 EXP SWAP1 DIV PUSH20 0xFFFFFFFFFFFFFFFFFFFFFFFFFFFFFFFFFFFFFFFF AND PUSH20 0xFFFFFFFFFFFFFFFFFFFFFFFFFFFFFFFFFFFFFFFF AND CALLER PUSH20 0xFFFFFFFFFFFFFFFFFFFFFFFFFFFFFFFFFFFFFFFF AND EQ ISZERO PUSH2 0x6D6 JUMPI PUSH1 0x40 MLOAD PUSH32 0x8C379A000000000000000000000000000000000000000000000000000000000 DUP2 MSTORE PUSH1 0x4 ADD PUSH2 0x6CD SWAP1 PUSH2 0x35AC JUMP JUMPDEST PUSH1 0x40 MLOAD DUP1 SWAP2 SUB SWAP1 REVERT JUMPDEST DUP3 PUSH1 0x0 ADD SLOAD DUP2 PUSH20 0xFFFFFFFFFFFFFFFFFFFFFFFFFFFFFFFFFFFFFFFF AND PUSH4 0x70A08231 CALLER PUSH1 0x40 MLOAD DUP3 PUSH4 0xFFFFFFFF AND PUSH1 0xE0 SHL DUP2 MSTORE PUSH1 0x4 ADD PUSH2 0x714 SWAP2 SWAP1 PUSH2 0x346C JUMP JUMPDEST PUSH1 0x20 PUSH1 0x40 MLOAD DUP1 DUP4 SUB DUP2 DUP7 DUP1 EXTCODESIZE ISZERO DUP1 ISZERO PUSH2 0x72C JUMPI PUSH1 0x0 DUP1 REVERT JUMPDEST POP GAS STATICCALL ISZERO DUP1 ISZERO PUSH2 0x740 JUMPI RETURNDATASIZE PUSH1 0x0 DUP1 RETURNDATACOPY RETURNDATASIZE PUSH1 0x0 REVERT JUMPDEST POP POP POP POP PUSH1 0x40 MLOAD RETURNDATASIZE PUSH1 0x1F NOT PUSH1 0x1F DUP3 ADD AND DUP3 ADD DUP1 PUSH1 0x40 MSTORE POP DUP2 ADD SWAP1 PUSH2 0x764 SWAP2 SWAP1 PUSH2 0x3261 JUMP JUMPDEST LT ISZERO PUSH2 0x7A5 JUMPI PUSH1 0x40 MLOAD PUSH32 0x8C379A000000000000000000000000000000000000000000000000000000000 DUP2 MSTORE PUSH1 0x4 ADD PUSH2 0x79C SWAP1 PUSH2 0x35CC JUMP JUMPDEST PUSH1 0x40 MLOAD DUP1 SWAP2 SUB SWAP1 REVERT JUMPDEST DUP1 PUSH20 0xFFFFFFFFFFFFFFFFFFFFFFFFFFFFFFFFFFFFFFFF AND PUSH4 0x23B872DD CALLER DUP6 PUSH1 0x1 ADD PUSH1 0x0 SWAP1 SLOAD SWAP1 PUSH2 0x100 EXP SWAP1 DIV PUSH20 0xFFFFFFFFFFFFFFFFFFFFFFFFFFFFFFFFFFFFFFFF AND PUSH1 0x14 DUP8 PUSH1 0x0 ADD SLOAD PUSH2 0x7F8 SWAP2 SWAP1 PUSH2 0x3752 JUMP JUMPDEST DUP8 PUSH1 0x0 ADD SLOAD PUSH2 0x807 SWAP2 SWAP1 PUSH2 0x3783 JUMP JUMPDEST PUSH1 0x40 MLOAD DUP5 PUSH4 0xFFFFFFFF AND PUSH1 0xE0 SHL DUP2 MSTORE PUSH1 0x4 ADD PUSH2 0x825 SWAP4 SWAP3 SWAP2 SWAP1 PUSH2 0x34B0 JUMP JUMPDEST PUSH1 0x20 PUSH1 0x40 MLOAD DUP1 DUP4 SUB DUP2 PUSH1 0x0 DUP8 DUP1 EXTCODESIZE ISZERO DUP1 ISZERO PUSH2 0x83F JUMPI PUSH1 0x0 DUP1 REVERT JUMPDEST POP GAS CALL ISZERO DUP1 ISZERO PUSH2 0x853 JUMPI RETURNDATASIZE PUSH1 0x0 DUP1 RETURNDATACOPY RETURNDATASIZE PUSH1 0x0 REVERT JUMPDEST POP POP POP POP PUSH1 0x40 MLOAD RETURNDATASIZE PUSH1 0x1F NOT PUSH1 0x1F DUP3 ADD AND DUP3 ADD DUP1 PUSH1 0x40 MSTORE POP DUP2 ADD SWAP1 PUSH2 0x877 SWAP2 SWAP1 PUSH2 0x3234 JUMP JUMPDEST POP DUP1 PUSH20 0xFFFFFFFFFFFFFFFFFFFFFFFFFFFFFFFFFFFFFFFF AND PUSH4 0x23B872DD CALLER PUSH2 0x89D PUSH2 0x2075 JUMP JUMPDEST DUP10 PUSH1 0x40 MLOAD DUP5 PUSH4 0xFFFFFFFF AND PUSH1 0xE0 SHL DUP2 MSTORE PUSH1 0x4 ADD PUSH2 0x8BC SWAP4 SWAP3 SWAP2 SWAP1 PUSH2 0x34B0 JUMP JUMPDEST PUSH1 0x20 PUSH1 0x40 MLOAD DUP1 DUP4 SUB DUP2 PUSH1 0x0 DUP8 DUP1 EXTCODESIZE ISZERO DUP1 ISZERO PUSH2 0x8D6 JUMPI PUSH1 0x0 DUP1 REVERT JUMPDEST POP GAS CALL ISZERO DUP1 ISZERO PUSH2 0x8EA JUMPI RETURNDATASIZE PUSH1 0x0 DUP1 RETURNDATACOPY RETURNDATASIZE PUSH1 0x0 REVERT JUMPDEST POP POP POP POP PUSH1 0x40 MLOAD RETURNDATASIZE PUSH1 0x1F NOT PUSH1 0x1F DUP3 ADD AND DUP3 ADD DUP1 PUSH1 0x40 MSTORE POP DUP2 ADD SWAP1 PUSH2 0x90E SWAP2 SWAP1 PUSH2 0x3234 JUMP JUMPDEST POP PUSH1 0x0 PUSH20 0xFFFFFFFFFFFFFFFFFFFFFFFFFFFFFFFFFFFFFFFF AND DUP8 PUSH20 0xFFFFFFFFFFFFFFFFFFFFFFFFFFFFFFFFFFFFFFFF AND EQ PUSH2 0x9D4 JUMPI DUP1 PUSH20 0xFFFFFFFFFFFFFFFFFFFFFFFFFFFFFFFFFFFFFFFF AND PUSH4 0x23B872DD CALLER DUP10 DUP8 PUSH1 0x40 MLOAD DUP5 PUSH4 0xFFFFFFFF AND PUSH1 0xE0 SHL DUP2 MSTORE PUSH1 0x4 ADD PUSH2 0x980 SWAP4 SWAP3 SWAP2 SWAP1 PUSH2 0x34B0 JUMP JUMPDEST PUSH1 0x20 PUSH1 0x40 MLOAD DUP1 DUP4 SUB DUP2 PUSH1 0x0 DUP8 DUP1 EXTCODESIZE ISZERO DUP1 ISZERO PUSH2 0x99A JUMPI PUSH1 0x0 DUP1 REVERT JUMPDEST POP GAS CALL ISZERO DUP1 ISZERO PUSH2 0x9AE JUMPI RETURNDATASIZE PUSH1 0x0 DUP1 RETURNDATACOPY RETURNDATASIZE PUSH1 0x0 REVERT JUMPDEST POP POP POP POP PUSH1 0x40 MLOAD RETURNDATASIZE PUSH1 0x1F NOT PUSH1 0x1F DUP3 ADD AND DUP3 ADD DUP1 PUSH1 0x40 MSTORE POP DUP2 ADD SWAP1 PUSH2 0x9D2 SWAP2 SWAP1 PUSH2 0x3234 JUMP JUMPDEST POP JUMPDEST PUSH1 0x0 JUMPDEST PUSH1 0x5 DUP2 LT ISZERO PUSH2 0xB2B JUMPI PUSH1 0x0 PUSH20 0xFFFFFFFFFFFFFFFFFFFFFFFFFFFFFFFFFFFFFFFF AND DUP5 PUSH1 0x4 ADD PUSH1 0x0 DUP4 DUP2 MSTORE PUSH1 0x20 ADD SWAP1 DUP2 MSTORE PUSH1 0x20 ADD PUSH1 0x0 KECCAK256 PUSH1 0x0 SWAP1 SLOAD SWAP1 PUSH2 0x100 EXP SWAP1 DIV PUSH20 0xFFFFFFFFFFFFFFFFFFFFFFFFFFFFFFFFFFFFFFFF AND PUSH20 0xFFFFFFFFFFFFFFFFFFFFFFFFFFFFFFFFFFFFFFFF AND EQ PUSH2 0xB13 JUMPI DUP2 PUSH20 0xFFFFFFFFFFFFFFFFFFFFFFFFFFFFFFFFFFFFFFFF AND PUSH4 0x23B872DD CALLER DUP7 PUSH1 0x4 ADD PUSH1 0x0 DUP6 DUP2 MSTORE PUSH1 0x20 ADD SWAP1 DUP2 MSTORE PUSH1 0x20 ADD PUSH1 0x0 KECCAK256 PUSH1 0x0 SWAP1 SLOAD SWAP1 PUSH2 0x100 EXP SWAP1 DIV PUSH20 0xFFFFFFFFFFFFFFFFFFFFFFFFFFFFFFFFFFFFFFFF AND DUP10 PUSH1 0x40 MLOAD DUP5 PUSH4 0xFFFFFFFF AND PUSH1 0xE0 SHL DUP2 MSTORE PUSH1 0x4 ADD PUSH2 0xABB SWAP4 SWAP3 SWAP2 SWAP1 PUSH2 0x34B0 JUMP JUMPDEST PUSH1 0x20 PUSH1 0x40 MLOAD DUP1 DUP4 SUB DUP2 PUSH1 0x0 DUP8 DUP1 EXTCODESIZE ISZERO DUP1 ISZERO PUSH2 0xAD5 JUMPI PUSH1 0x0 DUP1 REVERT JUMPDEST POP GAS CALL ISZERO DUP1 ISZERO PUSH2 0xAE9 JUMPI RETURNDATASIZE PUSH1 0x0 DUP1 RETURNDATACOPY RETURNDATASIZE PUSH1 0x0 REVERT JUMPDEST POP POP POP POP PUSH1 0x40 MLOAD RETURNDATASIZE PUSH1 0x1F NOT PUSH1 0x1F DUP3 ADD AND DUP3 ADD DUP1 PUSH1 0x40 MSTORE POP DUP2 ADD SWAP1 PUSH2 0xB0D SWAP2 SWAP1 PUSH2 0x3234 JUMP JUMPDEST POP PUSH2 0xB18 JUMP JUMPDEST PUSH2 0xB2B JUMP JUMPDEST DUP1 DUP1 PUSH2 0xB23 SWAP1 PUSH2 0x37FF JUMP JUMPDEST SWAP2 POP POP PUSH2 0x9D7 JUMP JUMPDEST POP DUP2 PUSH20 0xFFFFFFFFFFFFFFFFFFFFFFFFFFFFFFFFFFFFFFFF AND PUSH4 0xB88D4FDE DUP5 PUSH1 0x1 ADD PUSH1 0x0 SWAP1 SLOAD SWAP1 PUSH2 0x100 EXP SWAP1 DIV PUSH20 0xFFFFFFFFFFFFFFFFFFFFFFFFFFFFFFFFFFFFFFFF AND CALLER DUP12 PUSH1 0x40 MLOAD DUP5 PUSH4 0xFFFFFFFF AND PUSH1 0xE0 SHL DUP2 MSTORE PUSH1 0x4 ADD PUSH2 0xB8D SWAP4 SWAP3 SWAP2 SWAP1 PUSH2 0x34E7 JUMP JUMPDEST PUSH1 0x0 PUSH1 0x40 MLOAD DUP1 DUP4 SUB DUP2 PUSH1 0x0 DUP8 DUP1 EXTCODESIZE ISZERO DUP1 ISZERO PUSH2 0xBA7 JUMPI PUSH1 0x0 DUP1 REVERT JUMPDEST POP GAS CALL ISZERO DUP1 ISZERO PUSH2 0xBBB JUMPI RETURNDATASIZE PUSH1 0x0 DUP1 RETURNDATACOPY RETURNDATASIZE PUSH1 0x0 REVERT JUMPDEST POP POP POP POP CALLER DUP4 PUSH1 0x2 ADD PUSH1 0x0 PUSH2 0x100 EXP DUP2 SLOAD DUP2 PUSH20 0xFFFFFFFFFFFFFFFFFFFFFFFFFFFFFFFFFFFFFFFF MUL NOT AND SWAP1 DUP4 PUSH20 0xFFFFFFFFFFFFFFFFFFFFFFFFFFFFFFFFFFFFFFFF AND MUL OR SWAP1 SSTORE POP PUSH1 0x3 PUSH1 0x1 PUSH1 0x0 DUP13 PUSH20 0xFFFFFFFFFFFFFFFFFFFFFFFFFFFFFFFFFFFFFFFF AND PUSH20 0xFFFFFFFFFFFFFFFFFFFFFFFFFFFFFFFFFFFFFFFF AND DUP2 MSTORE PUSH1 0x20 ADD SWAP1 DUP2 MSTORE PUSH1 0x20 ADD PUSH1 0x0 KECCAK256 PUSH1 0x0 DUP11 DUP2 MSTORE PUSH1 0x20 ADD SWAP1 DUP2 MSTORE PUSH1 0x20 ADD PUSH1 0x0 KECCAK256 PUSH1 0x3 ADD SLOAD GT PUSH2 0xCFA JUMPI DUP3 PUSH1 0x1 ADD PUSH1 0x0 SWAP1 SLOAD SWAP1 PUSH2 0x100 EXP SWAP1 DIV PUSH20 0xFFFFFFFFFFFFFFFFFFFFFFFFFFFFFFFFFFFFFFFF AND DUP4 PUSH1 0x4 ADD PUSH1 0x0 DUP6 PUSH1 0x3 ADD SLOAD DUP2 MSTORE PUSH1 0x20 ADD SWAP1 DUP2 MSTORE PUSH1 0x20 ADD PUSH1 0x0 KECCAK256 PUSH1 0x0 PUSH2 0x100 EXP DUP2 SLOAD DUP2 PUSH20 0xFFFFFFFFFFFFFFFFFFFFFFFFFFFFFFFFFFFFFFFF MUL NOT AND SWAP1 DUP4 PUSH20 0xFFFFFFFFFFFFFFFFFFFFFFFFFFFFFFFFFFFFFFFF AND MUL OR SWAP1 SSTORE POP PUSH1 0x1 DUP4 PUSH1 0x3 ADD PUSH1 0x0 DUP3 DUP3 SLOAD PUSH2 0xCEE SWAP2 SWAP1 PUSH2 0x36FC JUMP JUMPDEST SWAP3 POP POP DUP2 SWAP1 SSTORE POP PUSH2 0xD81 JUMP JUMPDEST DUP3 PUSH1 0x1 ADD PUSH1 0x0 SWAP1 SLOAD SWAP1 PUSH2 0x100 EXP SWAP1 DIV PUSH20 0xFFFFFFFFFFFFFFFFFFFFFFFFFFFFFFFFFFFFFFFF AND DUP4 PUSH1 0x4 ADD PUSH1 0x0 DUP6 PUSH1 0x3 ADD SLOAD DUP2 MSTORE PUSH1 0x20 ADD SWAP1 DUP2 MSTORE PUSH1 0x20 ADD PUSH1 0x0 KECCAK256 PUSH1 0x0 PUSH2 0x100 EXP DUP2 SLOAD DUP2 PUSH20 0xFFFFFFFFFFFFFFFFFFFFFFFFFFFFFFFFFFFFFFFF MUL NOT AND SWAP1 DUP4 PUSH20 0xFFFFFFFFFFFFFFFFFFFFFFFFFFFFFFFFFFFFFFFF AND MUL OR SWAP1 SSTORE POP PUSH1 0x0 DUP4 PUSH1 0x3 ADD DUP2 SWAP1 SSTORE POP JUMPDEST PUSH1 0x0 DUP4 PUSH1 0x2 ADD PUSH1 0x14 PUSH2 0x100 EXP DUP2 SLOAD DUP2 PUSH1 0xFF MUL NOT AND SWAP1 DUP4 ISZERO ISZERO MUL OR SWAP1 SSTORE POP DUP3 PUSH1 0x2 ADD PUSH1 0x14 SWAP1 SLOAD SWAP1 PUSH2 0x100 EXP SWAP1 DIV PUSH1 0xFF AND ISZERO ISZERO DUP9 CALLER PUSH20 0xFFFFFFFFFFFFFFFFFFFFFFFFFFFFFFFFFFFFFFFF AND PUSH32 0xA7CD299F7EBC29460AD99CF3EA75776D7CD038A63A59FA595E86441F8190EF90 DUP7 PUSH1 0x0 ADD SLOAD PUSH1 0x40 MLOAD PUSH2 0xDFD SWAP2 SWAP1 PUSH2 0x366C JUMP JUMPDEST PUSH1 0x40 MLOAD DUP1 SWAP2 SUB SWAP1 LOG4 POP POP POP POP POP POP POP POP POP POP JUMP JUMPDEST PUSH1 0x0 PUSH1 0x1 PUSH1 0x0 DUP5 PUSH20 0xFFFFFFFFFFFFFFFFFFFFFFFFFFFFFFFFFFFFFFFF AND PUSH20 0xFFFFFFFFFFFFFFFFFFFFFFFFFFFFFFFFFFFFFFFF AND DUP2 MSTORE PUSH1 0x20 ADD SWAP1 DUP2 MSTORE PUSH1 0x20 ADD PUSH1 0x0 KECCAK256 PUSH1 0x0 DUP4 DUP2 MSTORE PUSH1 0x20 ADD SWAP1 DUP2 MSTORE PUSH1 0x20 ADD PUSH1 0x0 KECCAK256 PUSH1 0x2 ADD PUSH1 0x0 SWAP1 SLOAD SWAP1 PUSH2 0x100 EXP SWAP1 DIV PUSH20 0xFFFFFFFFFFFFFFFFFFFFFFFFFFFFFFFFFFFFFFFF AND SWAP1 POP SWAP3 SWAP2 POP POP JUMP JUMPDEST PUSH1 0x0 PUSH1 0x1 PUSH1 0x0 DUP5 PUSH20 0xFFFFFFFFFFFFFFFFFFFFFFFFFFFFFFFFFFFFFFFF AND PUSH20 0xFFFFFFFFFFFFFFFFFFFFFFFFFFFFFFFFFFFFFFFF AND DUP2 MSTORE PUSH1 0x20 ADD SWAP1 DUP2 MSTORE PUSH1 0x20 ADD PUSH1 0x0 KECCAK256 PUSH1 0x0 DUP4 DUP2 MSTORE PUSH1 0x20 ADD SWAP1 DUP2 MSTORE PUSH1 0x20 ADD PUSH1 0x0 KECCAK256 PUSH1 0x0 ADD SLOAD SWAP1 POP SWAP3 SWAP2 POP POP JUMP JUMPDEST PUSH2 0xEF5 PUSH2 0x2CDC JUMP JUMPDEST PUSH20 0xFFFFFFFFFFFFFFFFFFFFFFFFFFFFFFFFFFFFFFFF AND PUSH2 0xF13 PUSH2 0x2075 JUMP JUMPDEST PUSH20 0xFFFFFFFFFFFFFFFFFFFFFFFFFFFFFFFFFFFFFFFF AND EQ PUSH2 0xF69 JUMPI PUSH1 0x40 MLOAD PUSH32 0x8C379A000000000000000000000000000000000000000000000000000000000 DUP2 MSTORE PUSH1 0x4 ADD PUSH2 0xF60 SWAP1 PUSH2 0x360C JUMP JUMPDEST PUSH1 0x40 MLOAD DUP1 SWAP2 SUB SWAP1 REVERT JUMPDEST PUSH2 0xF73 PUSH1 0x0 PUSH2 0x2CE4 JUMP JUMPDEST JUMP JUMPDEST PUSH1 0x0 DUP3 SWAP1 POP PUSH1 0x0 PUSH1 0x1 PUSH1 0x0 DUP6 PUSH20 0xFFFFFFFFFFFFFFFFFFFFFFFFFFFFFFFFFFFFFFFF AND PUSH20 0xFFFFFFFFFFFFFFFFFFFFFFFFFFFFFFFFFFFFFFFF AND DUP2 MSTORE PUSH1 0x20 ADD SWAP1 DUP2 MSTORE PUSH1 0x20 ADD PUSH1 0x0 KECCAK256 PUSH1 0x0 DUP5 DUP2 MSTORE PUSH1 0x20 ADD SWAP1 DUP2 MSTORE PUSH1 0x20 ADD PUSH1 0x0 KECCAK256 SWAP1 POP CALLER PUSH20 0xFFFFFFFFFFFFFFFFFFFFFFFFFFFFFFFFFFFFFFFF AND DUP3 PUSH20 0xFFFFFFFFFFFFFFFFFFFFFFFFFFFFFFFFFFFFFFFF AND PUSH4 0x6352211E DUP6 PUSH1 0x40 MLOAD DUP3 PUSH4 0xFFFFFFFF AND PUSH1 0xE0 SHL DUP2 MSTORE PUSH1 0x4 ADD PUSH2 0x101E SWAP2 SWAP1 PUSH2 0x366C JUMP JUMPDEST PUSH1 0x20 PUSH1 0x40 MLOAD DUP1 DUP4 SUB DUP2 DUP7 DUP1 EXTCODESIZE ISZERO DUP1 ISZERO PUSH2 0x1036 JUMPI PUSH1 0x0 DUP1 REVERT JUMPDEST POP GAS STATICCALL ISZERO DUP1 ISZERO PUSH2 0x104A JUMPI RETURNDATASIZE PUSH1 0x0 DUP1 RETURNDATACOPY RETURNDATASIZE PUSH1 0x0 REVERT JUMPDEST POP POP POP POP PUSH1 0x40 MLOAD RETURNDATASIZE PUSH1 0x1F NOT PUSH1 0x1F DUP3 ADD AND DUP3 ADD DUP1 PUSH1 0x40 MSTORE POP DUP2 ADD SWAP1 PUSH2 0x106E SWAP2 SWAP1 PUSH2 0x2E94 JUMP JUMPDEST PUSH20 0xFFFFFFFFFFFFFFFFFFFFFFFFFFFFFFFFFFFFFFFF AND EQ PUSH2 0x10C4 JUMPI PUSH1 0x40 MLOAD PUSH32 0x8C379A000000000000000000000000000000000000000000000000000000000 DUP2 MSTORE PUSH1 0x4 ADD PUSH2 0x10BB SWAP1 PUSH2 0x364C JUMP JUMPDEST PUSH1 0x40 MLOAD DUP1 SWAP2 SUB SWAP1 REVERT JUMPDEST DUP2 PUSH20 0xFFFFFFFFFFFFFFFFFFFFFFFFFFFFFFFFFFFFFFFF AND PUSH4 0xE985E9C5 CALLER ADDRESS PUSH1 0x40 MLOAD DUP4 PUSH4 0xFFFFFFFF AND PUSH1 0xE0 SHL DUP2 MSTORE PUSH1 0x4 ADD PUSH2 0x10FF SWAP3 SWAP2 SWAP1 PUSH2 0x3487 JUMP JUMPDEST PUSH1 0x20 PUSH1 0x40 MLOAD DUP1 DUP4 SUB DUP2 DUP7 DUP1 EXTCODESIZE ISZERO DUP1 ISZERO PUSH2 0x1117 JUMPI PUSH1 0x0 DUP1 REVERT JUMPDEST POP GAS STATICCALL ISZERO DUP1 ISZERO PUSH2 0x112B JUMPI RETURNDATASIZE PUSH1 0x0 DUP1 RETURNDATACOPY RETURNDATASIZE PUSH1 0x0 REVERT JUMPDEST POP POP POP POP PUSH1 0x40 MLOAD RETURNDATASIZE PUSH1 0x1F NOT PUSH1 0x1F DUP3 ADD AND DUP3 ADD DUP1 PUSH1 0x40 MSTORE POP DUP2 ADD SWAP1 PUSH2 0x114F SWAP2 SWAP1 PUSH2 0x3234 JUMP JUMPDEST PUSH2 0x118E JUMPI PUSH1 0x40 MLOAD PUSH32 0x8C379A000000000000000000000000000000000000000000000000000000000 DUP2 MSTORE PUSH1 0x4 ADD PUSH2 0x1185 SWAP1 PUSH2 0x356C JUMP JUMPDEST PUSH1 0x40 MLOAD DUP1 SWAP2 SUB SWAP1 REVERT JUMPDEST DUP5 DUP2 PUSH1 0x0 ADD DUP2 SWAP1 SSTORE POP CALLER DUP2 PUSH1 0x1 ADD PUSH1 0x0 PUSH2 0x100 EXP DUP2 SLOAD DUP2 PUSH20 0xFFFFFFFFFFFFFFFFFFFFFFFFFFFFFFFFFFFFFFFF MUL NOT AND SWAP1 DUP4 PUSH20 0xFFFFFFFFFFFFFFFFFFFFFFFFFFFFFFFFFFFFFFFF AND MUL OR SWAP1 SSTORE POP CALLER DUP2 PUSH1 0x2 ADD PUSH1 0x0 PUSH2 0x100 EXP DUP2 SLOAD DUP2 PUSH20 0xFFFFFFFFFFFFFFFFFFFFFFFFFFFFFFFFFFFFFFFF MUL NOT AND SWAP1 DUP4 PUSH20 0xFFFFFFFFFFFFFFFFFFFFFFFFFFFFFFFFFFFFFFFF AND MUL OR SWAP1 SSTORE POP PUSH1 0x1 DUP2 PUSH1 0x2 ADD PUSH1 0x14 PUSH2 0x100 EXP DUP2 SLOAD DUP2 PUSH1 0xFF MUL NOT AND SWAP1 DUP4 ISZERO ISZERO MUL OR SWAP1 SSTORE POP DUP1 PUSH1 0x2 ADD PUSH1 0x14 SWAP1 SLOAD SWAP1 PUSH2 0x100 EXP SWAP1 DIV PUSH1 0xFF AND ISZERO ISZERO DUP4 CALLER PUSH20 0xFFFFFFFFFFFFFFFFFFFFFFFFFFFFFFFFFFFFFFFF AND PUSH32 0xA7CD299F7EBC29460AD99CF3EA75776D7CD038A63A59FA595E86441F8190EF90 DUP5 PUSH1 0x0 ADD SLOAD PUSH1 0x40 MLOAD PUSH2 0x1299 SWAP2 SWAP1 PUSH2 0x366C JUMP JUMPDEST PUSH1 0x40 MLOAD DUP1 SWAP2 SUB SWAP1 LOG4 POP POP POP POP POP JUMP JUMPDEST PUSH1 0x0 PUSH1 0x1 PUSH1 0x0 DUP9 PUSH20 0xFFFFFFFFFFFFFFFFFFFFFFFFFFFFFFFFFFFFFFFF AND PUSH20 0xFFFFFFFFFFFFFFFFFFFFFFFFFFFFFFFFFFFFFFFF AND DUP2 MSTORE PUSH1 0x20 ADD SWAP1 DUP2 MSTORE PUSH1 0x20 ADD PUSH1 0x0 KECCAK256 PUSH1 0x0 DUP8 DUP2 MSTORE PUSH1 0x20 ADD SWAP1 DUP2 MSTORE PUSH1 0x20 ADD PUSH1 0x0 KECCAK256 SWAP1 POP PUSH1 0x0 DUP8 SWAP1 POP DUP2 PUSH1 0x2 ADD PUSH1 0x14 SWAP1 SLOAD SWAP1 PUSH2 0x100 EXP SWAP1 DIV PUSH1 0xFF AND PUSH2 0x1352 JUMPI PUSH1 0x40 MLOAD PUSH32 0x8C379A000000000000000000000000000000000000000000000000000000000 DUP2 MSTORE PUSH1 0x4 ADD PUSH2 0x1349 SWAP1 PUSH2 0x362C JUMP JUMPDEST PUSH1 0x40 MLOAD DUP1 SWAP2 SUB SWAP1 REVERT JUMPDEST DUP2 PUSH1 0x1 ADD PUSH1 0x0 SWAP1 SLOAD SWAP1 PUSH2 0x100 EXP SWAP1 DIV PUSH20 0xFFFFFFFFFFFFFFFFFFFFFFFFFFFFFFFFFFFFFFFF AND PUSH20 0xFFFFFFFFFFFFFFFFFFFFFFFFFFFFFFFFFFFFFFFF AND CALLER PUSH20 0xFFFFFFFFFFFFFFFFFFFFFFFFFFFFFFFFFFFFFFFF AND EQ ISZERO PUSH2 0x13E5 JUMPI PUSH1 0x40 MLOAD PUSH32 0x8C379A000000000000000000000000000000000000000000000000000000000 DUP2 MSTORE PUSH1 0x4 ADD PUSH2 0x13DC SWAP1 PUSH2 0x35AC JUMP JUMPDEST PUSH1 0x40 MLOAD DUP1 SWAP2 SUB SWAP1 REVERT JUMPDEST DUP2 PUSH1 0x0 ADD SLOAD CALLVALUE LT ISZERO PUSH2 0x142C JUMPI PUSH1 0x40 MLOAD PUSH32 0x8C379A000000000000000000000000000000000000000000000000000000000 DUP2 MSTORE PUSH1 0x4 ADD PUSH2 0x1423 SWAP1 PUSH2 0x35CC JUMP JUMPDEST PUSH1 0x40 MLOAD DUP1 SWAP2 SUB SWAP1 REVERT JUMPDEST DUP2 PUSH1 0x1 ADD PUSH1 0x0 SWAP1 SLOAD SWAP1 PUSH2 0x100 EXP SWAP1 DIV PUSH20 0xFFFFFFFFFFFFFFFFFFFFFFFFFFFFFFFFFFFFFFFF AND PUSH20 0xFFFFFFFFFFFFFFFFFFFFFFFFFFFFFFFFFFFFFFFF AND PUSH2 0x8FC PUSH1 0x14 DUP5 PUSH1 0x0 ADD SLOAD PUSH2 0x147B SWAP2 SWAP1 PUSH2 0x3752 JUMP JUMPDEST DUP5 PUSH1 0x0 ADD SLOAD PUSH2 0x148A SWAP2 SWAP1 PUSH2 0x3783 JUMP JUMPDEST SWAP1 DUP2 ISZERO MUL SWAP1 PUSH1 0x40 MLOAD PUSH1 0x0 PUSH1 0x40 MLOAD DUP1 DUP4 SUB DUP2 DUP6 DUP9 DUP9 CALL SWAP4 POP POP POP POP ISZERO DUP1 ISZERO PUSH2 0x14B5 JUMPI RETURNDATASIZE PUSH1 0x0 DUP1 RETURNDATACOPY RETURNDATASIZE PUSH1 0x0 REVERT JUMPDEST POP PUSH2 0x14BE PUSH2 0x2075 JUMP JUMPDEST PUSH20 0xFFFFFFFFFFFFFFFFFFFFFFFFFFFFFFFFFFFFFFFF AND PUSH2 0x8FC DUP7 SWAP1 DUP2 ISZERO MUL SWAP1 PUSH1 0x40 MLOAD PUSH1 0x0 PUSH1 0x40 MLOAD DUP1 DUP4 SUB DUP2 DUP6 DUP9 DUP9 CALL SWAP4 POP POP POP POP ISZERO DUP1 ISZERO PUSH2 0x1503 JUMPI RETURNDATASIZE PUSH1 0x0 DUP1 RETURNDATACOPY RETURNDATASIZE PUSH1 0x0 REVERT JUMPDEST POP PUSH1 0x0 PUSH20 0xFFFFFFFFFFFFFFFFFFFFFFFFFFFFFFFFFFFFFFFF AND DUP7 PUSH20 0xFFFFFFFFFFFFFFFFFFFFFFFFFFFFFFFFFFFFFFFF AND EQ PUSH2 0x1580 JUMPI DUP6 PUSH20 0xFFFFFFFFFFFFFFFFFFFFFFFFFFFFFFFFFFFFFFFF AND PUSH2 0x8FC DUP5 SWAP1 DUP2 ISZERO MUL SWAP1 PUSH1 0x40 MLOAD PUSH1 0x0 PUSH1 0x40 MLOAD DUP1 DUP4 SUB DUP2 DUP6 DUP9 DUP9 CALL SWAP4 POP POP POP POP ISZERO DUP1 ISZERO PUSH2 0x157E JUMPI RETURNDATASIZE PUSH1 0x0 DUP1 RETURNDATACOPY RETURNDATASIZE PUSH1 0x0 REVERT JUMPDEST POP JUMPDEST PUSH1 0x0 JUMPDEST PUSH1 0x5 DUP2 LT ISZERO PUSH2 0x168E JUMPI PUSH1 0x0 PUSH20 0xFFFFFFFFFFFFFFFFFFFFFFFFFFFFFFFFFFFFFFFF AND DUP4 PUSH1 0x4 ADD PUSH1 0x0 DUP4 DUP2 MSTORE PUSH1 0x20 ADD SWAP1 DUP2 MSTORE PUSH1 0x20 ADD PUSH1 0x0 KECCAK256 PUSH1 0x0 SWAP1 SLOAD SWAP1 PUSH2 0x100 EXP SWAP1 DIV PUSH20 0xFFFFFFFFFFFFFFFFFFFFFFFFFFFFFFFFFFFFFFFF AND PUSH20 0xFFFFFFFFFFFFFFFFFFFFFFFFFFFFFFFFFFFFFFFF AND EQ PUSH2 0x1676 JUMPI DUP3 PUSH1 0x4 ADD PUSH1 0x0 DUP3 DUP2 MSTORE PUSH1 0x20 ADD SWAP1 DUP2 MSTORE PUSH1 0x20 ADD PUSH1 0x0 KECCAK256 PUSH1 0x0 SWAP1 SLOAD SWAP1 PUSH2 0x100 EXP SWAP1 DIV PUSH20 0xFFFFFFFFFFFFFFFFFFFFFFFFFFFFFFFFFFFFFFFF AND PUSH20 0xFFFFFFFFFFFFFFFFFFFFFFFFFFFFFFFFFFFFFFFF AND PUSH2 0x8FC DUP7 SWAP1 DUP2 ISZERO MUL SWAP1 PUSH1 0x40 MLOAD PUSH1 0x0 PUSH1 0x40 MLOAD DUP1 DUP4 SUB DUP2 DUP6 DUP9 DUP9 CALL SWAP4 POP POP POP POP ISZERO DUP1 ISZERO PUSH2 0x1670 JUMPI RETURNDATASIZE PUSH1 0x0 DUP1 RETURNDATACOPY RETURNDATASIZE PUSH1 0x0 REVERT JUMPDEST POP PUSH2 0x167B JUMP JUMPDEST PUSH2 0x168E JUMP JUMPDEST DUP1 DUP1 PUSH2 0x1686 SWAP1 PUSH2 0x37FF JUMP JUMPDEST SWAP2 POP POP PUSH2 0x1583 JUMP JUMPDEST POP DUP1 PUSH20 0xFFFFFFFFFFFFFFFFFFFFFFFFFFFFFFFFFFFFFFFF AND PUSH4 0xB88D4FDE DUP4 PUSH1 0x1 ADD PUSH1 0x0 SWAP1 SLOAD SWAP1 PUSH2 0x100 EXP SWAP1 DIV PUSH20 0xFFFFFFFFFFFFFFFFFFFFFFFFFFFFFFFFFFFFFFFF AND CALLER DUP11 PUSH1 0x40 MLOAD DUP5 PUSH4 0xFFFFFFFF AND PUSH1 0xE0 SHL DUP2 MSTORE PUSH1 0x4 ADD PUSH2 0x16F0 SWAP4 SWAP3 SWAP2 SWAP1 PUSH2 0x34E7 JUMP JUMPDEST PUSH1 0x0 PUSH1 0x40 MLOAD DUP1 DUP4 SUB DUP2 PUSH1 0x0 DUP8 DUP1 EXTCODESIZE ISZERO DUP1 ISZERO PUSH2 0x170A JUMPI PUSH1 0x0 DUP1 REVERT JUMPDEST POP GAS CALL ISZERO DUP1 ISZERO PUSH2 0x171E JUMPI RETURNDATASIZE PUSH1 0x0 DUP1 RETURNDATACOPY RETURNDATASIZE PUSH1 0x0 REVERT JUMPDEST POP POP POP POP CALLER DUP3 PUSH1 0x2 ADD PUSH1 0x0 PUSH2 0x100 EXP DUP2 SLOAD DUP2 PUSH20 0xFFFFFFFFFFFFFFFFFFFFFFFFFFFFFFFFFFFFFFFF MUL NOT AND SWAP1 DUP4 PUSH20 0xFFFFFFFFFFFFFFFFFFFFFFFFFFFFFFFFFFFFFFFF AND MUL OR SWAP1 SSTORE POP PUSH1 0x3 PUSH1 0x1 PUSH1 0x0 DUP11 PUSH20 0xFFFFFFFFFFFFFFFFFFFFFFFFFFFFFFFFFFFFFFFF AND PUSH20 0xFFFFFFFFFFFFFFFFFFFFFFFFFFFFFFFFFFFFFFFF AND DUP2 MSTORE PUSH1 0x20 ADD SWAP1 DUP2 MSTORE PUSH1 0x20 ADD PUSH1 0x0 KECCAK256 PUSH1 0x0 DUP10 DUP2 MSTORE PUSH1 0x20 ADD SWAP1 DUP2 MSTORE PUSH1 0x20 ADD PUSH1 0x0 KECCAK256 PUSH1 0x3 ADD SLOAD GT PUSH2 0x185D JUMPI DUP2 PUSH1 0x1 ADD PUSH1 0x0 SWAP1 SLOAD SWAP1 PUSH2 0x100 EXP SWAP1 DIV PUSH20 0xFFFFFFFFFFFFFFFFFFFFFFFFFFFFFFFFFFFFFFFF AND DUP3 PUSH1 0x4 ADD PUSH1 0x0 DUP5 PUSH1 0x3 ADD SLOAD DUP2 MSTORE PUSH1 0x20 ADD SWAP1 DUP2 MSTORE PUSH1 0x20 ADD PUSH1 0x0 KECCAK256 PUSH1 0x0 PUSH2 0x100 EXP DUP2 SLOAD DUP2 PUSH20 0xFFFFFFFFFFFFFFFFFFFFFFFFFFFFFFFFFFFFFFFF MUL NOT AND SWAP1 DUP4 PUSH20 0xFFFFFFFFFFFFFFFFFFFFFFFFFFFFFFFFFFFFFFFF AND MUL OR SWAP1 SSTORE POP PUSH1 0x1 DUP3 PUSH1 0x3 ADD PUSH1 0x0 DUP3 DUP3 SLOAD PUSH2 0x1851 SWAP2 SWAP1 PUSH2 0x36FC JUMP JUMPDEST SWAP3 POP POP DUP2 SWAP1 SSTORE POP PUSH2 0x18E4 JUMP JUMPDEST DUP2 PUSH1 0x1 ADD PUSH1 0x0 SWAP1 SLOAD SWAP1 PUSH2 0x100 EXP SWAP1 DIV PUSH20 0xFFFFFFFFFFFFFFFFFFFFFFFFFFFFFFFFFFFFFFFF AND DUP3 PUSH1 0x4 ADD PUSH1 0x0 DUP5 PUSH1 0x3 ADD SLOAD DUP2 MSTORE PUSH1 0x20 ADD SWAP1 DUP2 MSTORE PUSH1 0x20 ADD PUSH1 0x0 KECCAK256 PUSH1 0x0 PUSH2 0x100 EXP DUP2 SLOAD DUP2 PUSH20 0xFFFFFFFFFFFFFFFFFFFFFFFFFFFFFFFFFFFFFFFF MUL NOT AND SWAP1 DUP4 PUSH20 0xFFFFFFFFFFFFFFFFFFFFFFFFFFFFFFFFFFFFFFFF AND MUL OR SWAP1 SSTORE POP PUSH1 0x0 DUP3 PUSH1 0x3 ADD DUP2 SWAP1 SSTORE POP JUMPDEST PUSH1 0x0 DUP3 PUSH1 0x2 ADD PUSH1 0x14 PUSH2 0x100 EXP DUP2 SLOAD DUP2 PUSH1 0xFF MUL NOT AND SWAP1 DUP4 ISZERO ISZERO MUL OR SWAP1 SSTORE POP DUP2 PUSH1 0x2 ADD PUSH1 0x14 SWAP1 SLOAD SWAP1 PUSH2 0x100 EXP SWAP1 DIV PUSH1 0xFF AND ISZERO ISZERO DUP8 CALLER PUSH20 0xFFFFFFFFFFFFFFFFFFFFFFFFFFFFFFFFFFFFFFFF AND PUSH32 0xA7CD299F7EBC29460AD99CF3EA75776D7CD038A63A59FA595E86441F8190EF90 DUP6 PUSH1 0x0 ADD SLOAD PUSH1 0x40 MLOAD PUSH2 0x1960 SWAP2 SWAP1 PUSH2 0x366C JUMP JUMPDEST PUSH1 0x40 MLOAD DUP1 SWAP2 SUB SWAP1 LOG4 POP POP POP POP POP POP POP POP JUMP JUMPDEST PUSH1 0x0 JUMPDEST DUP8 DUP8 SWAP1 POP DUP2 LT ISZERO PUSH2 0x206A JUMPI PUSH1 0x0 PUSH1 0x1 PUSH1 0x0 DUP12 PUSH20 0xFFFFFFFFFFFFFFFFFFFFFFFFFFFFFFFFFFFFFFFF AND PUSH20 0xFFFFFFFFFFFFFFFFFFFFFFFFFFFFFFFFFFFFFFFF AND DUP2 MSTORE PUSH1 0x20 ADD SWAP1 DUP2 MSTORE PUSH1 0x20 ADD PUSH1 0x0 KECCAK256 PUSH1 0x0 DUP11 DUP11 DUP6 DUP2 DUP2 LT PUSH2 0x19D6 JUMPI PUSH2 0x19D5 PUSH2 0x38A6 JUMP JUMPDEST JUMPDEST SWAP1 POP PUSH1 0x20 MUL ADD CALLDATALOAD DUP2 MSTORE PUSH1 0x20 ADD SWAP1 DUP2 MSTORE PUSH1 0x20 ADD PUSH1 0x0 KECCAK256 SWAP1 POP PUSH1 0x0 DUP11 SWAP1 POP DUP2 PUSH1 0x2 ADD PUSH1 0x14 SWAP1 SLOAD SWAP1 PUSH2 0x100 EXP SWAP1 DIV PUSH1 0xFF AND PUSH2 0x1A43 JUMPI PUSH1 0x40 MLOAD PUSH32 0x8C379A000000000000000000000000000000000000000000000000000000000 DUP2 MSTORE PUSH1 0x4 ADD PUSH2 0x1A3A SWAP1 PUSH2 0x362C JUMP JUMPDEST PUSH1 0x40 MLOAD DUP1 SWAP2 SUB SWAP1 REVERT JUMPDEST DUP2 PUSH1 0x1 ADD PUSH1 0x0 SWAP1 SLOAD SWAP1 PUSH2 0x100 EXP SWAP1 DIV PUSH20 0xFFFFFFFFFFFFFFFFFFFFFFFFFFFFFFFFFFFFFFFF AND PUSH20 0xFFFFFFFFFFFFFFFFFFFFFFFFFFFFFFFFFFFFFFFF AND CALLER PUSH20 0xFFFFFFFFFFFFFFFFFFFFFFFFFFFFFFFFFFFFFFFF AND EQ ISZERO PUSH2 0x1AD6 JUMPI PUSH1 0x40 MLOAD PUSH32 0x8C379A000000000000000000000000000000000000000000000000000000000 DUP2 MSTORE PUSH1 0x4 ADD PUSH2 0x1ACD SWAP1 PUSH2 0x35AC JUMP JUMPDEST PUSH1 0x40 MLOAD DUP1 SWAP2 SUB SWAP1 REVERT JUMPDEST DUP2 PUSH1 0x0 ADD SLOAD CALLVALUE LT ISZERO PUSH2 0x1B1D JUMPI PUSH1 0x40 MLOAD PUSH32 0x8C379A000000000000000000000000000000000000000000000000000000000 DUP2 MSTORE PUSH1 0x4 ADD PUSH2 0x1B14 SWAP1 PUSH2 0x35CC JUMP JUMPDEST PUSH1 0x40 MLOAD DUP1 SWAP2 SUB SWAP1 REVERT JUMPDEST DUP2 PUSH1 0x1 ADD PUSH1 0x0 SWAP1 SLOAD SWAP1 PUSH2 0x100 EXP SWAP1 DIV PUSH20 0xFFFFFFFFFFFFFFFFFFFFFFFFFFFFFFFFFFFFFFFF AND PUSH20 0xFFFFFFFFFFFFFFFFFFFFFFFFFFFFFFFFFFFFFFFF AND PUSH2 0x8FC PUSH1 0x14 DUP5 PUSH1 0x0 ADD SLOAD PUSH2 0x1B6C SWAP2 SWAP1 PUSH2 0x3752 JUMP JUMPDEST DUP5 PUSH1 0x0 ADD SLOAD PUSH2 0x1B7B SWAP2 SWAP1 PUSH2 0x3783 JUMP JUMPDEST SWAP1 DUP2 ISZERO MUL SWAP1 PUSH1 0x40 MLOAD PUSH1 0x0 PUSH1 0x40 MLOAD DUP1 DUP4 SUB DUP2 DUP6 DUP9 DUP9 CALL SWAP4 POP POP POP POP ISZERO DUP1 ISZERO PUSH2 0x1BA6 JUMPI RETURNDATASIZE PUSH1 0x0 DUP1 RETURNDATACOPY RETURNDATASIZE PUSH1 0x0 REVERT JUMPDEST POP PUSH2 0x1BAF PUSH2 0x2075 JUMP JUMPDEST PUSH20 0xFFFFFFFFFFFFFFFFFFFFFFFFFFFFFFFFFFFFFFFF AND PUSH2 0x8FC DUP9 SWAP1 DUP2 ISZERO MUL SWAP1 PUSH1 0x40 MLOAD PUSH1 0x0 PUSH1 0x40 MLOAD DUP1 DUP4 SUB DUP2 DUP6 DUP9 DUP9 CALL SWAP4 POP POP POP POP ISZERO DUP1 ISZERO PUSH2 0x1BF4 JUMPI RETURNDATASIZE PUSH1 0x0 DUP1 RETURNDATACOPY RETURNDATASIZE PUSH1 0x0 REVERT JUMPDEST POP PUSH1 0x0 PUSH20 0xFFFFFFFFFFFFFFFFFFFFFFFFFFFFFFFFFFFFFFFF AND DUP9 PUSH20 0xFFFFFFFFFFFFFFFFFFFFFFFFFFFFFFFFFFFFFFFF AND EQ PUSH2 0x1C71 JUMPI DUP8 PUSH20 0xFFFFFFFFFFFFFFFFFFFFFFFFFFFFFFFFFFFFFFFF AND PUSH2 0x8FC DUP6 SWAP1 DUP2 ISZERO MUL SWAP1 PUSH1 0x40 MLOAD PUSH1 0x0 PUSH1 0x40 MLOAD DUP1 DUP4 SUB DUP2 DUP6 DUP9 DUP9 CALL SWAP4 POP POP POP POP ISZERO DUP1 ISZERO PUSH2 0x1C6F JUMPI RETURNDATASIZE PUSH1 0x0 DUP1 RETURNDATACOPY RETURNDATASIZE PUSH1 0x0 REVERT JUMPDEST POP JUMPDEST PUSH1 0x0 JUMPDEST PUSH1 0x5 DUP2 LT ISZERO PUSH2 0x1D98 JUMPI PUSH1 0x0 PUSH20 0xFFFFFFFFFFFFFFFFFFFFFFFFFFFFFFFFFFFFFFFF AND DUP4 PUSH1 0x4 ADD PUSH1 0x0 DUP4 DUP2 MSTORE PUSH1 0x20 ADD SWAP1 DUP2 MSTORE PUSH1 0x20 ADD PUSH1 0x0 KECCAK256 PUSH1 0x0 SWAP1 SLOAD SWAP1 PUSH2 0x100 EXP SWAP1 DIV PUSH20 0xFFFFFFFFFFFFFFFFFFFFFFFFFFFFFFFFFFFFFFFF AND PUSH20 0xFFFFFFFFFFFFFFFFFFFFFFFFFFFFFFFFFFFFFFFF AND EQ PUSH2 0x1D80 JUMPI DUP3 PUSH1 0x4 ADD PUSH1 0x0 DUP3 DUP2 MSTORE PUSH1 0x20 ADD SWAP1 DUP2 MSTORE PUSH1 0x20 ADD PUSH1 0x0 KECCAK256 PUSH1 0x0 SWAP1 SLOAD SWAP1 PUSH2 0x100 EXP SWAP1 DIV PUSH20 0xFFFFFFFFFFFFFFFFFFFFFFFFFFFFFFFFFFFFFFFF AND PUSH20 0xFFFFFFFFFFFFFFFFFFFFFFFFFFFFFFFFFFFFFFFF AND PUSH2 0x8FC DUP9 DUP9 DUP8 DUP2 DUP2 LT PUSH2 0x1D48 JUMPI PUSH2 0x1D47 PUSH2 0x38A6 JUMP JUMPDEST JUMPDEST SWAP1 POP PUSH1 0x20 MUL ADD CALLDATALOAD SWAP1 DUP2 ISZERO MUL SWAP1 PUSH1 0x40 MLOAD PUSH1 0x0 PUSH1 0x40 MLOAD DUP1 DUP4 SUB DUP2 DUP6 DUP9 DUP9 CALL SWAP4 POP POP POP POP ISZERO DUP1 ISZERO PUSH2 0x1D7A JUMPI RETURNDATASIZE PUSH1 0x0 DUP1 RETURNDATACOPY RETURNDATASIZE PUSH1 0x0 REVERT JUMPDEST POP PUSH2 0x1D85 JUMP JUMPDEST PUSH2 0x1D98 JUMP JUMPDEST DUP1 DUP1 PUSH2 0x1D90 SWAP1 PUSH2 0x37FF JUMP JUMPDEST SWAP2 POP POP PUSH2 0x1C74 JUMP JUMPDEST POP DUP1 PUSH20 0xFFFFFFFFFFFFFFFFFFFFFFFFFFFFFFFFFFFFFFFF AND PUSH4 0xB88D4FDE DUP4 PUSH1 0x1 ADD PUSH1 0x0 SWAP1 SLOAD SWAP1 PUSH2 0x100 EXP SWAP1 DIV PUSH20 0xFFFFFFFFFFFFFFFFFFFFFFFFFFFFFFFFFFFFFFFF AND CALLER DUP14 DUP14 DUP9 DUP2 DUP2 LT PUSH2 0x1DEE JUMPI PUSH2 0x1DED PUSH2 0x38A6 JUMP JUMPDEST JUMPDEST SWAP1 POP PUSH1 0x20 MUL ADD CALLDATALOAD PUSH1 0x40 MLOAD DUP5 PUSH4 0xFFFFFFFF AND PUSH1 0xE0 SHL DUP2 MSTORE PUSH1 0x4 ADD PUSH2 0x1E13 SWAP4 SWAP3 SWAP2 SWAP1 PUSH2 0x34E7 JUMP JUMPDEST PUSH1 0x0 PUSH1 0x40 MLOAD DUP1 DUP4 SUB DUP2 PUSH1 0x0 DUP8 DUP1 EXTCODESIZE ISZERO DUP1 ISZERO PUSH2 0x1E2D JUMPI PUSH1 0x0 DUP1 REVERT JUMPDEST POP GAS CALL ISZERO DUP1 ISZERO PUSH2 0x1E41 JUMPI RETURNDATASIZE PUSH1 0x0 DUP1 RETURNDATACOPY RETURNDATASIZE PUSH1 0x0 REVERT JUMPDEST POP POP POP POP CALLER DUP3 PUSH1 0x2 ADD PUSH1 0x0 PUSH2 0x100 EXP DUP2 SLOAD DUP2 PUSH20 0xFFFFFFFFFFFFFFFFFFFFFFFFFFFFFFFFFFFFFFFF MUL NOT AND SWAP1 DUP4 PUSH20 0xFFFFFFFFFFFFFFFFFFFFFFFFFFFFFFFFFFFFFFFF AND MUL OR SWAP1 SSTORE POP PUSH1 0x3 DUP3 PUSH1 0x3 ADD SLOAD GT PUSH2 0x1F31 JUMPI DUP2 PUSH1 0x1 ADD PUSH1 0x0 SWAP1 SLOAD SWAP1 PUSH2 0x100 EXP SWAP1 DIV PUSH20 0xFFFFFFFFFFFFFFFFFFFFFFFFFFFFFFFFFFFFFFFF AND DUP3 PUSH1 0x4 ADD PUSH1 0x0 DUP5 PUSH1 0x3 ADD SLOAD DUP2 MSTORE PUSH1 0x20 ADD SWAP1 DUP2 MSTORE PUSH1 0x20 ADD PUSH1 0x0 KECCAK256 PUSH1 0x0 PUSH2 0x100 EXP DUP2 SLOAD DUP2 PUSH20 0xFFFFFFFFFFFFFFFFFFFFFFFFFFFFFFFFFFFFFFFF MUL NOT AND SWAP1 DUP4 PUSH20 0xFFFFFFFFFFFFFFFFFFFFFFFFFFFFFFFFFFFFFFFF AND MUL OR SWAP1 SSTORE POP PUSH1 0x1 DUP3 PUSH1 0x3 ADD PUSH1 0x0 DUP3 DUP3 SLOAD PUSH2 0x1F25 SWAP2 SWAP1 PUSH2 0x36FC JUMP JUMPDEST SWAP3 POP POP DUP2 SWAP1 SSTORE POP PUSH2 0x1FB8 JUMP JUMPDEST DUP2 PUSH1 0x1 ADD PUSH1 0x0 SWAP1 SLOAD SWAP1 PUSH2 0x100 EXP SWAP1 DIV PUSH20 0xFFFFFFFFFFFFFFFFFFFFFFFFFFFFFFFFFFFFFFFF AND DUP3 PUSH1 0x4 ADD PUSH1 0x0 DUP5 PUSH1 0x3 ADD SLOAD DUP2 MSTORE PUSH1 0x20 ADD SWAP1 DUP2 MSTORE PUSH1 0x20 ADD PUSH1 0x0 KECCAK256 PUSH1 0x0 PUSH2 0x100 EXP DUP2 SLOAD DUP2 PUSH20 0xFFFFFFFFFFFFFFFFFFFFFFFFFFFFFFFFFFFFFFFF MUL NOT AND SWAP1 DUP4 PUSH20 0xFFFFFFFFFFFFFFFFFFFFFFFFFFFFFFFFFFFFFFFF AND MUL OR SWAP1 SSTORE POP PUSH1 0x0 DUP3 PUSH1 0x3 ADD DUP2 SWAP1 SSTORE POP JUMPDEST PUSH1 0x0 DUP3 PUSH1 0x2 ADD PUSH1 0x14 PUSH2 0x100 EXP DUP2 SLOAD DUP2 PUSH1 0xFF MUL NOT AND SWAP1 DUP4 ISZERO ISZERO MUL OR SWAP1 SSTORE POP DUP2 PUSH1 0x2 ADD PUSH1 0x14 SWAP1 SLOAD SWAP1 PUSH2 0x100 EXP SWAP1 DIV PUSH1 0xFF AND ISZERO ISZERO DUP11 DUP11 DUP6 DUP2 DUP2 LT PUSH2 0x1FFC JUMPI PUSH2 0x1FFB PUSH2 0x38A6 JUMP JUMPDEST JUMPDEST SWAP1 POP PUSH1 0x20 MUL ADD CALLDATALOAD CALLER PUSH20 0xFFFFFFFFFFFFFFFFFFFFFFFFFFFFFFFFFFFFFFFF AND PUSH32 0xA7CD299F7EBC29460AD99CF3EA75776D7CD038A63A59FA595E86441F8190EF90 DUP6 PUSH1 0x0 ADD SLOAD PUSH1 0x40 MLOAD PUSH2 0x204D SWAP2 SWAP1 PUSH2 0x366C JUMP JUMPDEST PUSH1 0x40 MLOAD DUP1 SWAP2 SUB SWAP1 LOG4 POP POP DUP1 DUP1 PUSH2 0x2062 SWAP1 PUSH2 0x37FF JUMP JUMPDEST SWAP2 POP POP PUSH2 0x1975 JUMP JUMPDEST POP POP POP POP POP POP POP POP POP JUMP JUMPDEST PUSH1 0x0 DUP1 PUSH1 0x0 SWAP1 SLOAD SWAP1 PUSH2 0x100 EXP SWAP1 DIV PUSH20 0xFFFFFFFFFFFFFFFFFFFFFFFFFFFFFFFFFFFFFFFF AND SWAP1 POP SWAP1 JUMP JUMPDEST PUSH1 0x0 DUP3 SWAP1 POP PUSH1 0x0 PUSH1 0x1 PUSH1 0x0 DUP6 PUSH20 0xFFFFFFFFFFFFFFFFFFFFFFFFFFFFFFFFFFFFFFFF AND PUSH20 0xFFFFFFFFFFFFFFFFFFFFFFFFFFFFFFFFFFFFFFFF AND DUP2 MSTORE PUSH1 0x20 ADD SWAP1 DUP2 MSTORE PUSH1 0x20 ADD PUSH1 0x0 KECCAK256 PUSH1 0x0 DUP5 DUP2 MSTORE PUSH1 0x20 ADD SWAP1 DUP2 MSTORE PUSH1 0x20 ADD PUSH1 0x0 KECCAK256 SWAP1 POP CALLER PUSH20 0xFFFFFFFFFFFFFFFFFFFFFFFFFFFFFFFFFFFFFFFF AND DUP2 PUSH1 0x1 ADD PUSH1 0x0 SWAP1 SLOAD SWAP1 PUSH2 0x100 EXP SWAP1 DIV PUSH20 0xFFFFFFFFFFFFFFFFFFFFFFFFFFFFFFFFFFFFFFFF AND PUSH20 0xFFFFFFFFFFFFFFFFFFFFFFFFFFFFFFFFFFFFFFFF AND EQ PUSH2 0x2189 JUMPI PUSH1 0x40 MLOAD PUSH32 0x8C379A000000000000000000000000000000000000000000000000000000000 DUP2 MSTORE PUSH1 0x4 ADD PUSH2 0x2180 SWAP1 PUSH2 0x35EC JUMP JUMPDEST PUSH1 0x40 MLOAD DUP1 SWAP2 SUB SWAP1 REVERT JUMPDEST DUP1 PUSH1 0x2 ADD PUSH1 0x14 SWAP1 SLOAD SWAP1 PUSH2 0x100 EXP SWAP1 DIV PUSH1 0xFF AND PUSH2 0x21DA JUMPI PUSH1 0x40 MLOAD PUSH32 0x8C379A000000000000000000000000000000000000000000000000000000000 DUP2 MSTORE PUSH1 0x4 ADD PUSH2 0x21D1 SWAP1 PUSH2 0x354C JUMP JUMPDEST PUSH1 0x40 MLOAD DUP1 SWAP2 SUB SWAP1 REVERT JUMPDEST DUP2 PUSH20 0xFFFFFFFFFFFFFFFFFFFFFFFFFFFFFFFFFFFFFFFF AND PUSH4 0xE985E9C5 CALLER ADDRESS PUSH1 0x40 MLOAD DUP4 PUSH4 0xFFFFFFFF AND PUSH1 0xE0 SHL DUP2 MSTORE PUSH1 0x4 ADD PUSH2 0x2215 SWAP3 SWAP2 SWAP1 PUSH2 0x3487 JUMP JUMPDEST PUSH1 0x20 PUSH1 0x40 MLOAD DUP1 DUP4 SUB DUP2 DUP7 DUP1 EXTCODESIZE ISZERO DUP1 ISZERO PUSH2 0x222D JUMPI PUSH1 0x0 DUP1 REVERT JUMPDEST POP GAS STATICCALL ISZERO DUP1 ISZERO PUSH2 0x2241 JUMPI RETURNDATASIZE PUSH1 0x0 DUP1 RETURNDATACOPY RETURNDATASIZE PUSH1 0x0 REVERT JUMPDEST POP POP POP POP PUSH1 0x40 MLOAD RETURNDATASIZE PUSH1 0x1F NOT PUSH1 0x1F DUP3 ADD AND DUP3 ADD DUP1 PUSH1 0x40 MSTORE POP DUP2 ADD SWAP1 PUSH2 0x2265 SWAP2 SWAP1 PUSH2 0x3234 JUMP JUMPDEST PUSH2 0x22A4 JUMPI PUSH1 0x40 MLOAD PUSH32 0x8C379A000000000000000000000000000000000000000000000000000000000 DUP2 MSTORE PUSH1 0x4 ADD PUSH2 0x229B SWAP1 PUSH2 0x356C JUMP JUMPDEST PUSH1 0x40 MLOAD DUP1 SWAP2 SUB SWAP1 REVERT JUMPDEST PUSH1 0x0 DUP2 PUSH1 0x2 ADD PUSH1 0x14 PUSH2 0x100 EXP DUP2 SLOAD DUP2 PUSH1 0xFF MUL NOT AND SWAP1 DUP4 ISZERO ISZERO MUL OR SWAP1 SSTORE POP DUP1 PUSH1 0x2 ADD PUSH1 0x14 SWAP1 SLOAD SWAP1 PUSH2 0x100 EXP SWAP1 DIV PUSH1 0xFF AND ISZERO ISZERO DUP4 CALLER PUSH20 0xFFFFFFFFFFFFFFFFFFFFFFFFFFFFFFFFFFFFFFFF AND PUSH32 0xA7CD299F7EBC29460AD99CF3EA75776D7CD038A63A59FA595E86441F8190EF90 DUP5 PUSH1 0x0 ADD SLOAD PUSH1 0x40 MLOAD PUSH2 0x2320 SWAP2 SWAP1 PUSH2 0x366C JUMP JUMPDEST PUSH1 0x40 MLOAD DUP1 SWAP2 SUB SWAP1 LOG4 POP POP POP POP JUMP JUMPDEST PUSH1 0x0 JUMPDEST DUP8 DUP8 SWAP1 POP DUP2 LT ISZERO PUSH2 0x2BD8 JUMPI PUSH1 0x0 PUSH1 0x1 PUSH1 0x0 DUP13 PUSH20 0xFFFFFFFFFFFFFFFFFFFFFFFFFFFFFFFFFFFFFFFF AND PUSH20 0xFFFFFFFFFFFFFFFFFFFFFFFFFFFFFFFFFFFFFFFF AND DUP2 MSTORE PUSH1 0x20 ADD SWAP1 DUP2 MSTORE PUSH1 0x20 ADD PUSH1 0x0 KECCAK256 PUSH1 0x0 DUP11 DUP11 DUP6 DUP2 DUP2 LT PUSH2 0x2392 JUMPI PUSH2 0x2391 PUSH2 0x38A6 JUMP JUMPDEST JUMPDEST SWAP1 POP PUSH1 0x20 MUL ADD CALLDATALOAD DUP2 MSTORE PUSH1 0x20 ADD SWAP1 DUP2 MSTORE PUSH1 0x20 ADD PUSH1 0x0 KECCAK256 SWAP1 POP PUSH1 0x0 DUP12 SWAP1 POP PUSH1 0x0 DUP12 SWAP1 POP DUP3 PUSH1 0x2 ADD PUSH1 0x14 SWAP1 SLOAD SWAP1 PUSH2 0x100 EXP SWAP1 DIV PUSH1 0xFF AND PUSH2 0x2404 JUMPI PUSH1 0x40 MLOAD PUSH32 0x8C379A000000000000000000000000000000000000000000000000000000000 DUP2 MSTORE PUSH1 0x4 ADD PUSH2 0x23FB SWAP1 PUSH2 0x362C JUMP JUMPDEST PUSH1 0x40 MLOAD DUP1 SWAP2 SUB SWAP1 REVERT JUMPDEST DUP3 PUSH1 0x1 ADD PUSH1 0x0 SWAP1 SLOAD SWAP1 PUSH2 0x100 EXP SWAP1 DIV PUSH20 0xFFFFFFFFFFFFFFFFFFFFFFFFFFFFFFFFFFFFFFFF AND PUSH20 0xFFFFFFFFFFFFFFFFFFFFFFFFFFFFFFFFFFFFFFFF AND CALLER PUSH20 0xFFFFFFFFFFFFFFFFFFFFFFFFFFFFFFFFFFFFFFFF AND EQ ISZERO PUSH2 0x2497 JUMPI PUSH1 0x40 MLOAD PUSH32 0x8C379A000000000000000000000000000000000000000000000000000000000 DUP2 MSTORE PUSH1 0x4 ADD PUSH2 0x248E SWAP1 PUSH2 0x35AC JUMP JUMPDEST PUSH1 0x40 MLOAD DUP1 SWAP2 SUB SWAP1 REVERT JUMPDEST DUP3 PUSH1 0x0 ADD SLOAD DUP2 PUSH20 0xFFFFFFFFFFFFFFFFFFFFFFFFFFFFFFFFFFFFFFFF AND PUSH4 0x70A08231 CALLER PUSH1 0x40 MLOAD DUP3 PUSH4 0xFFFFFFFF AND PUSH1 0xE0 SHL DUP2 MSTORE PUSH1 0x4 ADD PUSH2 0x24D5 SWAP2 SWAP1 PUSH2 0x346C JUMP JUMPDEST PUSH1 0x20 PUSH1 0x40 MLOAD DUP1 DUP4 SUB DUP2 DUP7 DUP1 EXTCODESIZE ISZERO DUP1 ISZERO PUSH2 0x24ED JUMPI PUSH1 0x0 DUP1 REVERT JUMPDEST POP GAS STATICCALL ISZERO DUP1 ISZERO PUSH2 0x2501 JUMPI RETURNDATASIZE PUSH1 0x0 DUP1 RETURNDATACOPY RETURNDATASIZE PUSH1 0x0 REVERT JUMPDEST POP POP POP POP PUSH1 0x40 MLOAD RETURNDATASIZE PUSH1 0x1F NOT PUSH1 0x1F DUP3 ADD AND DUP3 ADD DUP1 PUSH1 0x40 MSTORE POP DUP2 ADD SWAP1 PUSH2 0x2525 SWAP2 SWAP1 PUSH2 0x3261 JUMP JUMPDEST LT ISZERO PUSH2 0x2566 JUMPI PUSH1 0x40 MLOAD PUSH32 0x8C379A000000000000000000000000000000000000000000000000000000000 DUP2 MSTORE PUSH1 0x4 ADD PUSH2 0x255D SWAP1 PUSH2 0x35CC JUMP JUMPDEST PUSH1 0x40 MLOAD DUP1 SWAP2 SUB SWAP1 REVERT JUMPDEST DUP1 PUSH20 0xFFFFFFFFFFFFFFFFFFFFFFFFFFFFFFFFFFFFFFFF AND PUSH4 0x23B872DD CALLER DUP6 PUSH1 0x1 ADD PUSH1 0x0 SWAP1 SLOAD SWAP1 PUSH2 0x100 EXP SWAP1 DIV PUSH20 0xFFFFFFFFFFFFFFFFFFFFFFFFFFFFFFFFFFFFFFFF AND PUSH1 0x14 DUP8 PUSH1 0x0 ADD SLOAD PUSH2 0x25B9 SWAP2 SWAP1 PUSH2 0x3752 JUMP JUMPDEST DUP8 PUSH1 0x0 ADD SLOAD PUSH2 0x25C8 SWAP2 SWAP1 PUSH2 0x3783 JUMP JUMPDEST PUSH1 0x40 MLOAD DUP5 PUSH4 0xFFFFFFFF AND PUSH1 0xE0 SHL DUP2 MSTORE PUSH1 0x4 ADD PUSH2 0x25E6 SWAP4 SWAP3 SWAP2 SWAP1 PUSH2 0x34B0 JUMP JUMPDEST PUSH1 0x20 PUSH1 0x40 MLOAD DUP1 DUP4 SUB DUP2 PUSH1 0x0 DUP8 DUP1 EXTCODESIZE ISZERO DUP1 ISZERO PUSH2 0x2600 JUMPI PUSH1 0x0 DUP1 REVERT JUMPDEST POP GAS CALL ISZERO DUP1 ISZERO PUSH2 0x2614 JUMPI RETURNDATASIZE PUSH1 0x0 DUP1 RETURNDATACOPY RETURNDATASIZE PUSH1 0x0 REVERT JUMPDEST POP POP POP POP PUSH1 0x40 MLOAD RETURNDATASIZE PUSH1 0x1F NOT PUSH1 0x1F DUP3 ADD AND DUP3 ADD DUP1 PUSH1 0x40 MSTORE POP DUP2 ADD SWAP1 PUSH2 0x2638 SWAP2 SWAP1 PUSH2 0x3234 JUMP JUMPDEST POP DUP1 PUSH20 0xFFFFFFFFFFFFFFFFFFFFFFFFFFFFFFFFFFFFFFFF AND PUSH4 0x23B872DD CALLER PUSH2 0x265E PUSH2 0x2075 JUMP JUMPDEST DUP12 PUSH1 0x40 MLOAD DUP5 PUSH4 0xFFFFFFFF AND PUSH1 0xE0 SHL DUP2 MSTORE PUSH1 0x4 ADD PUSH2 0x267D SWAP4 SWAP3 SWAP2 SWAP1 PUSH2 0x34B0 JUMP JUMPDEST PUSH1 0x20 PUSH1 0x40 MLOAD DUP1 DUP4 SUB DUP2 PUSH1 0x0 DUP8 DUP1 EXTCODESIZE ISZERO DUP1 ISZERO PUSH2 0x2697 JUMPI PUSH1 0x0 DUP1 REVERT JUMPDEST POP GAS CALL ISZERO DUP1 ISZERO PUSH2 0x26AB JUMPI RETURNDATASIZE PUSH1 0x0 DUP1 RETURNDATACOPY RETURNDATASIZE PUSH1 0x0 REVERT JUMPDEST POP POP POP POP PUSH1 0x40 MLOAD RETURNDATASIZE PUSH1 0x1F NOT PUSH1 0x1F DUP3 ADD AND DUP3 ADD DUP1 PUSH1 0x40 MSTORE POP DUP2 ADD SWAP1 PUSH2 0x26CF SWAP2 SWAP1 PUSH2 0x3234 JUMP JUMPDEST POP PUSH1 0x0 PUSH20 0xFFFFFFFFFFFFFFFFFFFFFFFFFFFFFFFFFFFFFFFF AND DUP10 PUSH20 0xFFFFFFFFFFFFFFFFFFFFFFFFFFFFFFFFFFFFFFFF AND EQ PUSH2 0x2795 JUMPI DUP1 PUSH20 0xFFFFFFFFFFFFFFFFFFFFFFFFFFFFFFFFFFFFFFFF AND PUSH4 0x23B872DD CALLER DUP12 DUP9 PUSH1 0x40 MLOAD DUP5 PUSH4 0xFFFFFFFF AND PUSH1 0xE0 SHL DUP2 MSTORE PUSH1 0x4 ADD PUSH2 0x2741 SWAP4 SWAP3 SWAP2 SWAP1 PUSH2 0x34B0 JUMP JUMPDEST PUSH1 0x20 PUSH1 0x40 MLOAD DUP1 DUP4 SUB DUP2 PUSH1 0x0 DUP8 DUP1 EXTCODESIZE ISZERO DUP1 ISZERO PUSH2 0x275B JUMPI PUSH1 0x0 DUP1 REVERT JUMPDEST POP GAS CALL ISZERO DUP1 ISZERO PUSH2 0x276F JUMPI RETURNDATASIZE PUSH1 0x0 DUP1 RETURNDATACOPY RETURNDATASIZE PUSH1 0x0 REVERT JUMPDEST POP POP POP POP PUSH1 0x40 MLOAD RETURNDATASIZE PUSH1 0x1F NOT PUSH1 0x1F DUP3 ADD AND DUP3 ADD DUP1 PUSH1 0x40 MSTORE POP DUP2 ADD SWAP1 PUSH2 0x2793 SWAP2 SWAP1 PUSH2 0x3234 JUMP JUMPDEST POP JUMPDEST PUSH1 0x0 JUMPDEST PUSH1 0x5 DUP2 LT ISZERO PUSH2 0x2905 JUMPI PUSH1 0x0 PUSH20 0xFFFFFFFFFFFFFFFFFFFFFFFFFFFFFFFFFFFFFFFF AND DUP5 PUSH1 0x4 ADD PUSH1 0x0 DUP4 DUP2 MSTORE PUSH1 0x20 ADD SWAP1 DUP2 MSTORE PUSH1 0x20 ADD PUSH1 0x0 KECCAK256 PUSH1 0x0 SWAP1 SLOAD SWAP1 PUSH2 0x100 EXP SWAP1 DIV PUSH20 0xFFFFFFFFFFFFFFFFFFFFFFFFFFFFFFFFFFFFFFFF AND PUSH20 0xFFFFFFFFFFFFFFFFFFFFFFFFFFFFFFFFFFFFFFFF AND EQ PUSH2 0x28ED JUMPI DUP2 PUSH20 0xFFFFFFFFFFFFFFFFFFFFFFFFFFFFFFFFFFFFFFFF AND PUSH4 0x23B872DD CALLER DUP7 PUSH1 0x4 ADD PUSH1 0x0 DUP6 DUP2 MSTORE PUSH1 0x20 ADD SWAP1 DUP2 MSTORE PUSH1 0x20 ADD PUSH1 0x0 KECCAK256 PUSH1 0x0 SWAP1 SLOAD SWAP1 PUSH2 0x100 EXP SWAP1 DIV PUSH20 0xFFFFFFFFFFFFFFFFFFFFFFFFFFFFFFFFFFFFFFFF AND DUP12 DUP12 DUP11 DUP2 DUP2 LT PUSH2 0x2870 JUMPI PUSH2 0x286F PUSH2 0x38A6 JUMP JUMPDEST JUMPDEST SWAP1 POP PUSH1 0x20 MUL ADD CALLDATALOAD PUSH1 0x40 MLOAD DUP5 PUSH4 0xFFFFFFFF AND PUSH1 0xE0 SHL DUP2 MSTORE PUSH1 0x4 ADD PUSH2 0x2895 SWAP4 SWAP3 SWAP2 SWAP1 PUSH2 0x34B0 JUMP JUMPDEST PUSH1 0x20 PUSH1 0x40 MLOAD DUP1 DUP4 SUB DUP2 PUSH1 0x0 DUP8 DUP1 EXTCODESIZE ISZERO DUP1 ISZERO PUSH2 0x28AF JUMPI PUSH1 0x0 DUP1 REVERT JUMPDEST POP GAS CALL ISZERO DUP1 ISZERO PUSH2 0x28C3 JUMPI RETURNDATASIZE PUSH1 0x0 DUP1 RETURNDATACOPY RETURNDATASIZE PUSH1 0x0 REVERT JUMPDEST POP POP POP POP PUSH1 0x40 MLOAD RETURNDATASIZE PUSH1 0x1F NOT PUSH1 0x1F DUP3 ADD AND DUP3 ADD DUP1 PUSH1 0x40 MSTORE POP DUP2 ADD SWAP1 PUSH2 0x28E7 SWAP2 SWAP1 PUSH2 0x3234 JUMP JUMPDEST POP PUSH2 0x28F2 JUMP JUMPDEST PUSH2 0x2905 JUMP JUMPDEST DUP1 DUP1 PUSH2 0x28FD SWAP1 PUSH2 0x37FF JUMP JUMPDEST SWAP2 POP POP PUSH2 0x2798 JUMP JUMPDEST POP DUP2 PUSH20 0xFFFFFFFFFFFFFFFFFFFFFFFFFFFFFFFFFFFFFFFF AND PUSH4 0xB88D4FDE DUP5 PUSH1 0x1 ADD PUSH1 0x0 SWAP1 SLOAD SWAP1 PUSH2 0x100 EXP SWAP1 DIV PUSH20 0xFFFFFFFFFFFFFFFFFFFFFFFFFFFFFFFFFFFFFFFF AND CALLER DUP15 DUP15 DUP10 DUP2 DUP2 LT PUSH2 0x295B JUMPI PUSH2 0x295A PUSH2 0x38A6 JUMP JUMPDEST JUMPDEST SWAP1 POP PUSH1 0x20 MUL ADD CALLDATALOAD PUSH1 0x40 MLOAD DUP5 PUSH4 0xFFFFFFFF AND PUSH1 0xE0 SHL DUP2 MSTORE PUSH1 0x4 ADD PUSH2 0x2980 SWAP4 SWAP3 SWAP2 SWAP1 PUSH2 0x34E7 JUMP JUMPDEST PUSH1 0x0 PUSH1 0x40 MLOAD DUP1 DUP4 SUB DUP2 PUSH1 0x0 DUP8 DUP1 EXTCODESIZE ISZERO DUP1 ISZERO PUSH2 0x299A JUMPI PUSH1 0x0 DUP1 REVERT JUMPDEST POP GAS CALL ISZERO DUP1 ISZERO PUSH2 0x29AE JUMPI RETURNDATASIZE PUSH1 0x0 DUP1 RETURNDATACOPY RETURNDATASIZE PUSH1 0x0 REVERT JUMPDEST POP POP POP POP CALLER DUP4 PUSH1 0x2 ADD PUSH1 0x0 PUSH2 0x100 EXP DUP2 SLOAD DUP2 PUSH20 0xFFFFFFFFFFFFFFFFFFFFFFFFFFFFFFFFFFFFFFFF MUL NOT AND SWAP1 DUP4 PUSH20 0xFFFFFFFFFFFFFFFFFFFFFFFFFFFFFFFFFFFFFFFF AND MUL OR SWAP1 SSTORE POP PUSH1 0x3 DUP4 PUSH1 0x3 ADD SLOAD GT PUSH2 0x2A9E JUMPI DUP3 PUSH1 0x1 ADD PUSH1 0x0 SWAP1 SLOAD SWAP1 PUSH2 0x100 EXP SWAP1 DIV PUSH20 0xFFFFFFFFFFFFFFFFFFFFFFFFFFFFFFFFFFFFFFFF AND DUP4 PUSH1 0x4 ADD PUSH1 0x0 DUP6 PUSH1 0x3 ADD SLOAD DUP2 MSTORE PUSH1 0x20 ADD SWAP1 DUP2 MSTORE PUSH1 0x20 ADD PUSH1 0x0 KECCAK256 PUSH1 0x0 PUSH2 0x100 EXP DUP2 SLOAD DUP2 PUSH20 0xFFFFFFFFFFFFFFFFFFFFFFFFFFFFFFFFFFFFFFFF MUL NOT AND SWAP1 DUP4 PUSH20 0xFFFFFFFFFFFFFFFFFFFFFFFFFFFFFFFFFFFFFFFF AND MUL OR SWAP1 SSTORE POP PUSH1 0x1 DUP4 PUSH1 0x3 ADD PUSH1 0x0 DUP3 DUP3 SLOAD PUSH2 0x2A92 SWAP2 SWAP1 PUSH2 0x36FC JUMP JUMPDEST SWAP3 POP POP DUP2 SWAP1 SSTORE POP PUSH2 0x2B25 JUMP JUMPDEST DUP3 PUSH1 0x1 ADD PUSH1 0x0 SWAP1 SLOAD SWAP1 PUSH2 0x100 EXP SWAP1 DIV PUSH20 0xFFFFFFFFFFFFFFFFFFFFFFFFFFFFFFFFFFFFFFFF AND DUP4 PUSH1 0x4 ADD PUSH1 0x0 DUP6 PUSH1 0x3 ADD SLOAD DUP2 MSTORE PUSH1 0x20 ADD SWAP1 DUP2 MSTORE PUSH1 0x20 ADD PUSH1 0x0 KECCAK256 PUSH1 0x0 PUSH2 0x100 EXP DUP2 SLOAD DUP2 PUSH20 0xFFFFFFFFFFFFFFFFFFFFFFFFFFFFFFFFFFFFFFFF MUL NOT AND SWAP1 DUP4 PUSH20 0xFFFFFFFFFFFFFFFFFFFFFFFFFFFFFFFFFFFFFFFF AND MUL OR SWAP1 SSTORE POP PUSH1 0x0 DUP4 PUSH1 0x3 ADD DUP2 SWAP1 SSTORE POP JUMPDEST PUSH1 0x0 DUP4 PUSH1 0x2 ADD PUSH1 0x14 PUSH2 0x100 EXP DUP2 SLOAD DUP2 PUSH1 0xFF MUL NOT AND SWAP1 DUP4 ISZERO ISZERO MUL OR SWAP1 SSTORE POP DUP3 PUSH1 0x2 ADD PUSH1 0x14 SWAP1 SLOAD SWAP1 PUSH2 0x100 EXP SWAP1 DIV PUSH1 0xFF AND ISZERO ISZERO DUP12 DUP12 DUP7 DUP2 DUP2 LT PUSH2 0x2B69 JUMPI PUSH2 0x2B68 PUSH2 0x38A6 JUMP JUMPDEST JUMPDEST SWAP1 POP PUSH1 0x20 MUL ADD CALLDATALOAD CALLER PUSH20 0xFFFFFFFFFFFFFFFFFFFFFFFFFFFFFFFFFFFFFFFF AND PUSH32 0xA7CD299F7EBC29460AD99CF3EA75776D7CD038A63A59FA595E86441F8190EF90 DUP7 PUSH1 0x0 ADD SLOAD PUSH1 0x40 MLOAD PUSH2 0x2BBA SWAP2 SWAP1 PUSH2 0x366C JUMP JUMPDEST PUSH1 0x40 MLOAD DUP1 SWAP2 SUB SWAP1 LOG4 POP POP POP DUP1 DUP1 PUSH2 0x2BD0 SWAP1 PUSH2 0x37FF JUMP JUMPDEST SWAP2 POP POP PUSH2 0x2331 JUMP JUMPDEST POP POP POP POP POP POP POP POP POP POP JUMP JUMPDEST PUSH2 0x2BEC PUSH2 0x2CDC JUMP JUMPDEST PUSH20 0xFFFFFFFFFFFFFFFFFFFFFFFFFFFFFFFFFFFFFFFF AND PUSH2 0x2C0A PUSH2 0x2075 JUMP JUMPDEST PUSH20 0xFFFFFFFFFFFFFFFFFFFFFFFFFFFFFFFFFFFFFFFF AND EQ PUSH2 0x2C60 JUMPI PUSH1 0x40 MLOAD PUSH32 0x8C379A000000000000000000000000000000000000000000000000000000000 DUP2 MSTORE PUSH1 0x4 ADD PUSH2 0x2C57 SWAP1 PUSH2 0x360C JUMP JUMPDEST PUSH1 0x40 MLOAD DUP1 SWAP2 SUB SWAP1 REVERT JUMPDEST PUSH1 0x0 PUSH20 0xFFFFFFFFFFFFFFFFFFFFFFFFFFFFFFFFFFFFFFFF AND DUP2 PUSH20 0xFFFFFFFFFFFFFFFFFFFFFFFFFFFFFFFFFFFFFFFF AND EQ ISZERO PUSH2 0x2CD0 JUMPI PUSH1 0x40 MLOAD PUSH32 0x8C379A000000000000000000000000000000000000000000000000000000000 DUP2 MSTORE PUSH1 0x4 ADD PUSH2 0x2CC7 SWAP1 PUSH2 0x358C JUMP JUMPDEST PUSH1 0x40 MLOAD DUP1 SWAP2 SUB SWAP1 REVERT JUMPDEST PUSH2 0x2CD9 DUP2 PUSH2 0x2CE4 JUMP JUMPDEST POP JUMP JUMPDEST PUSH1 0x0 CALLER SWAP1 POP SWAP1 JUMP JUMPDEST PUSH1 0x0 DUP1 PUSH1 0x0 SWAP1 SLOAD SWAP1 PUSH2 0x100 EXP SWAP1 DIV PUSH20 0xFFFFFFFFFFFFFFFFFFFFFFFFFFFFFFFFFFFFFFFF AND SWAP1 POP DUP2 PUSH1 0x0 DUP1 PUSH2 0x100 EXP DUP2 SLOAD DUP2 PUSH20 0xFFFFFFFFFFFFFFFFFFFFFFFFFFFFFFFFFFFFFFFF MUL NOT AND SWAP1 DUP4 PUSH20 0xFFFFFFFFFFFFFFFFFFFFFFFFFFFFFFFFFFFFFFFF AND MUL OR SWAP1 SSTORE POP DUP2 PUSH20 0xFFFFFFFFFFFFFFFFFFFFFFFFFFFFFFFFFFFFFFFF AND DUP2 PUSH20 0xFFFFFFFFFFFFFFFFFFFFFFFFFFFFFFFFFFFFFFFF AND PUSH32 0x8BE0079C531659141344CD1FD0A4F28419497F9722A3DAAFE3B4186F6B6457E0 PUSH1 0x40 MLOAD PUSH1 0x40 MLOAD DUP1 SWAP2 SUB SWAP1 LOG3 POP POP JUMP JUMPDEST PUSH1 0x0 DUP2 CALLDATALOAD SWAP1 POP PUSH2 0x2DB7 DUP2 PUSH2 0x3A88 JUMP JUMPDEST SWAP3 SWAP2 POP POP JUMP JUMPDEST PUSH1 0x0 DUP2 MLOAD SWAP1 POP PUSH2 0x2DCC DUP2 PUSH2 0x3A88 JUMP JUMPDEST SWAP3 SWAP2 POP POP JUMP JUMPDEST PUSH1 0x0 DUP1 DUP4 PUSH1 0x1F DUP5 ADD SLT PUSH2 0x2DE8 JUMPI PUSH2 0x2DE7 PUSH2 0x38DA JUMP JUMPDEST JUMPDEST DUP3 CALLDATALOAD SWAP1 POP PUSH8 0xFFFFFFFFFFFFFFFF DUP2 GT ISZERO PUSH2 0x2E05 JUMPI PUSH2 0x2E04 PUSH2 0x38D5 JUMP JUMPDEST JUMPDEST PUSH1 0x20 DUP4 ADD SWAP2 POP DUP4 PUSH1 0x20 DUP3 MUL DUP4 ADD GT ISZERO PUSH2 0x2E21 JUMPI PUSH2 0x2E20 PUSH2 0x38DF JUMP JUMPDEST JUMPDEST SWAP3 POP SWAP3 SWAP1 POP JUMP JUMPDEST PUSH1 0x0 DUP2 MLOAD SWAP1 POP PUSH2 0x2E37 DUP2 PUSH2 0x3A9F JUMP JUMPDEST SWAP3 SWAP2 POP POP JUMP JUMPDEST PUSH1 0x0 DUP2 CALLDATALOAD SWAP1 POP PUSH2 0x2E4C DUP2 PUSH2 0x3AB6 JUMP JUMPDEST SWAP3 SWAP2 POP POP JUMP JUMPDEST PUSH1 0x0 DUP2 MLOAD SWAP1 POP PUSH2 0x2E61 DUP2 PUSH2 0x3AB6 JUMP JUMPDEST SWAP3 SWAP2 POP POP JUMP JUMPDEST PUSH1 0x0 PUSH1 0x20 DUP3 DUP5 SUB SLT ISZERO PUSH2 0x2E7D JUMPI PUSH2 0x2E7C PUSH2 0x38E9 JUMP JUMPDEST JUMPDEST PUSH1 0x0 PUSH2 0x2E8B DUP5 DUP3 DUP6 ADD PUSH2 0x2DA8 JUMP JUMPDEST SWAP2 POP POP SWAP3 SWAP2 POP POP JUMP JUMPDEST PUSH1 0x0 PUSH1 0x20 DUP3 DUP5 SUB SLT ISZERO PUSH2 0x2EAA JUMPI PUSH2 0x2EA9 PUSH2 0x38E9 JUMP JUMPDEST JUMPDEST PUSH1 0x0 PUSH2 0x2EB8 DUP5 DUP3 DUP6 ADD PUSH2 0x2DBD JUMP JUMPDEST SWAP2 POP POP SWAP3 SWAP2 POP POP JUMP JUMPDEST PUSH1 0x0 DUP1 PUSH1 0x0 DUP1 PUSH1 0x0 DUP1 PUSH1 0x0 DUP1 PUSH1 0x0 PUSH1 0xE0 DUP11 DUP13 SUB SLT ISZERO PUSH2 0x2EE3 JUMPI PUSH2 0x2EE2 PUSH2 0x38E9 JUMP JUMPDEST JUMPDEST PUSH1 0x0 PUSH2 0x2EF1 DUP13 DUP3 DUP14 ADD PUSH2 0x2DA8 JUMP JUMPDEST SWAP10 POP POP PUSH1 0x20 PUSH2 0x2F02 DUP13 DUP3 DUP14 ADD PUSH2 0x2DA8 JUMP JUMPDEST SWAP9 POP POP PUSH1 0x40 DUP11 ADD CALLDATALOAD PUSH8 0xFFFFFFFFFFFFFFFF DUP2 GT ISZERO PUSH2 0x2F23 JUMPI PUSH2 0x2F22 PUSH2 0x38E4 JUMP JUMPDEST JUMPDEST PUSH2 0x2F2F DUP13 DUP3 DUP14 ADD PUSH2 0x2DD2 JUMP JUMPDEST SWAP8 POP SWAP8 POP POP PUSH1 0x60 PUSH2 0x2F42 DUP13 DUP3 DUP14 ADD PUSH2 0x2DA8 JUMP JUMPDEST SWAP6 POP POP PUSH1 0x80 PUSH2 0x2F53 DUP13 DUP3 DUP14 ADD PUSH2 0x2E3D JUMP JUMPDEST SWAP5 POP POP PUSH1 0xA0 DUP11 ADD CALLDATALOAD PUSH8 0xFFFFFFFFFFFFFFFF DUP2 GT ISZERO PUSH2 0x2F74 JUMPI PUSH2 0x2F73 PUSH2 0x38E4 JUMP JUMPDEST JUMPDEST PUSH2 0x2F80 DUP13 DUP3 DUP14 ADD PUSH2 0x2DD2 JUMP JUMPDEST SWAP4 POP SWAP4 POP POP PUSH1 0xC0 PUSH2 0x2F93 DUP13 DUP3 DUP14 ADD PUSH2 0x2E3D JUMP JUMPDEST SWAP2 POP POP SWAP3 SWAP6 SWAP9 POP SWAP3 SWAP6 SWAP9 POP SWAP3 SWAP6 SWAP9 JUMP JUMPDEST PUSH1 0x0 DUP1 PUSH1 0x0 DUP1 PUSH1 0x0 DUP1 PUSH1 0x0 PUSH1 0xE0 DUP9 DUP11 SUB SLT ISZERO PUSH2 0x2FC2 JUMPI PUSH2 0x2FC1 PUSH2 0x38E9 JUMP JUMPDEST JUMPDEST PUSH1 0x0 PUSH2 0x2FD0 DUP11 DUP3 DUP12 ADD PUSH2 0x2DA8 JUMP JUMPDEST SWAP8 POP POP PUSH1 0x20 PUSH2 0x2FE1 DUP11 DUP3 DUP12 ADD PUSH2 0x2DA8 JUMP JUMPDEST SWAP7 POP POP PUSH1 0x40 PUSH2 0x2FF2 DUP11 DUP3 DUP12 ADD PUSH2 0x2E3D JUMP JUMPDEST SWAP6 POP POP PUSH1 0x60 PUSH2 0x3003 DUP11 DUP3 DUP12 ADD PUSH2 0x2DA8 JUMP JUMPDEST SWAP5 POP POP PUSH1 0x80 PUSH2 0x3014 DUP11 DUP3 DUP12 ADD PUSH2 0x2E3D JUMP JUMPDEST SWAP4 POP POP PUSH1 0xA0 PUSH2 0x3025 DUP11 DUP3 DUP12 ADD PUSH2 0x2E3D JUMP JUMPDEST SWAP3 POP POP PUSH1 0xC0 PUSH2 0x3036 DUP11 DUP3 DUP12 ADD PUSH2 0x2E3D JUMP JUMPDEST SWAP2 POP POP SWAP3 SWAP6 SWAP9 SWAP2 SWAP5 SWAP8 POP SWAP3 SWAP6 POP JUMP JUMPDEST PUSH1 0x0 DUP1 PUSH1 0x0 DUP1 PUSH1 0x0 DUP1 PUSH1 0x0 DUP1 PUSH1 0xC0 DUP10 DUP12 SUB SLT ISZERO PUSH2 0x3065 JUMPI PUSH2 0x3064 PUSH2 0x38E9 JUMP JUMPDEST JUMPDEST PUSH1 0x0 PUSH2 0x3073 DUP12 DUP3 DUP13 ADD PUSH2 0x2DA8 JUMP JUMPDEST SWAP9 POP POP PUSH1 0x20 DUP10 ADD CALLDATALOAD PUSH8 0xFFFFFFFFFFFFFFFF DUP2 GT ISZERO PUSH2 0x3094 JUMPI PUSH2 0x3093 PUSH2 0x38E4 JUMP JUMPDEST JUMPDEST PUSH2 0x30A0 DUP12 DUP3 DUP13 ADD PUSH2 0x2DD2 JUMP JUMPDEST SWAP8 POP SWAP8 POP POP PUSH1 0x40 PUSH2 0x30B3 DUP12 DUP3 DUP13 ADD PUSH2 0x2DA8 JUMP JUMPDEST SWAP6 POP POP PUSH1 0x60 PUSH2 0x30C4 DUP12 DUP3 DUP13 ADD PUSH2 0x2E3D JUMP JUMPDEST SWAP5 POP POP PUSH1 0x80 DUP10 ADD CALLDATALOAD PUSH8 0xFFFFFFFFFFFFFFFF DUP2 GT ISZERO PUSH2 0x30E5 JUMPI PUSH2 0x30E4 PUSH2 0x38E4 JUMP JUMPDEST JUMPDEST PUSH2 0x30F1 DUP12 DUP3 DUP13 ADD PUSH2 0x2DD2 JUMP JUMPDEST SWAP4 POP SWAP4 POP POP PUSH1 0xA0 PUSH2 0x3104 DUP12 DUP3 DUP13 ADD PUSH2 0x2E3D JUMP JUMPDEST SWAP2 POP POP SWAP3 SWAP6 SWAP9 POP SWAP3 SWAP6 SWAP9 SWAP1 SWAP4 SWAP7 POP JUMP JUMPDEST PUSH1 0x0 DUP1 PUSH1 0x40 DUP4 DUP6 SUB SLT ISZERO PUSH2 0x312B JUMPI PUSH2 0x312A PUSH2 0x38E9 JUMP JUMPDEST JUMPDEST PUSH1 0x0 PUSH2 0x3139 DUP6 DUP3 DUP7 ADD PUSH2 0x2DA8 JUMP JUMPDEST SWAP3 POP POP PUSH1 0x20 PUSH2 0x314A DUP6 DUP3 DUP7 ADD PUSH2 0x2E3D JUMP JUMPDEST SWAP2 POP POP SWAP3 POP SWAP3 SWAP1 POP JUMP JUMPDEST PUSH1 0x0 DUP1 PUSH1 0x0 DUP1 PUSH1 0x0 DUP1 PUSH1 0xC0 DUP8 DUP10 SUB SLT ISZERO PUSH2 0x3171 JUMPI PUSH2 0x3170 PUSH2 0x38E9 JUMP JUMPDEST JUMPDEST PUSH1 0x0 PUSH2 0x317F DUP10 DUP3 DUP11 ADD PUSH2 0x2DA8 JUMP JUMPDEST SWAP7 POP POP PUSH1 0x20 PUSH2 0x3190 DUP10 DUP3 DUP11 ADD PUSH2 0x2E3D JUMP JUMPDEST SWAP6 POP POP PUSH1 0x40 PUSH2 0x31A1 DUP10 DUP3 DUP11 ADD PUSH2 0x2DA8 JUMP JUMPDEST SWAP5 POP POP PUSH1 0x60 PUSH2 0x31B2 DUP10 DUP3 DUP11 ADD PUSH2 0x2E3D JUMP JUMPDEST SWAP4 POP POP PUSH1 0x80 PUSH2 0x31C3 DUP10 DUP3 DUP11 ADD PUSH2 0x2E3D JUMP JUMPDEST SWAP3 POP POP PUSH1 0xA0 PUSH2 0x31D4 DUP10 DUP3 DUP11 ADD PUSH2 0x2E3D JUMP JUMPDEST SWAP2 POP POP SWAP3 SWAP6 POP SWAP3 SWAP6 POP SWAP3 SWAP6 JUMP JUMPDEST PUSH1 0x0 DUP1 PUSH1 0x0 PUSH1 0x60 DUP5 DUP7 SUB SLT ISZERO PUSH2 0x31FA JUMPI PUSH2 0x31F9 PUSH2 0x38E9 JUMP JUMPDEST JUMPDEST PUSH1 0x0 PUSH2 0x3208 DUP7 DUP3 DUP8 ADD PUSH2 0x2DA8 JUMP JUMPDEST SWAP4 POP POP PUSH1 0x20 PUSH2 0x3219 DUP7 DUP3 DUP8 ADD PUSH2 0x2E3D JUMP JUMPDEST SWAP3 POP POP PUSH1 0x40 PUSH2 0x322A DUP7 DUP3 DUP8 ADD PUSH2 0x2E3D JUMP JUMPDEST SWAP2 POP POP SWAP3 POP SWAP3 POP SWAP3 JUMP JUMPDEST PUSH1 0x0 PUSH1 0x20 DUP3 DUP5 SUB SLT ISZERO PUSH2 0x324A JUMPI PUSH2 0x3249 PUSH2 0x38E9 JUMP JUMPDEST JUMPDEST PUSH1 0x0 PUSH2 0x3258 DUP5 DUP3 DUP6 ADD PUSH2 0x2E28 JUMP JUMPDEST SWAP2 POP POP SWAP3 SWAP2 POP POP JUMP JUMPDEST PUSH1 0x0 PUSH1 0x20 DUP3 DUP5 SUB SLT ISZERO PUSH2 0x3277 JUMPI PUSH2 0x3276 PUSH2 0x38E9 JUMP JUMPDEST JUMPDEST PUSH1 0x0 PUSH2 0x3285 DUP5 DUP3 DUP6 ADD PUSH2 0x2E52 JUMP JUMPDEST SWAP2 POP POP SWAP3 SWAP2 POP POP JUMP JUMPDEST PUSH1 0x0 DUP1 PUSH1 0x0 PUSH1 0x60 DUP5 DUP7 SUB SLT ISZERO PUSH2 0x32A7 JUMPI PUSH2 0x32A6 PUSH2 0x38E9 JUMP JUMPDEST JUMPDEST PUSH1 0x0 PUSH2 0x32B5 DUP7 DUP3 DUP8 ADD PUSH2 0x2E3D JUMP JUMPDEST SWAP4 POP POP PUSH1 0x20 PUSH2 0x32C6 DUP7 DUP3 DUP8 ADD PUSH2 0x2DA8 JUMP JUMPDEST SWAP3 POP POP PUSH1 0x40 PUSH2 0x32D7 DUP7 DUP3 DUP8 ADD PUSH2 0x2E3D JUMP JUMPDEST SWAP2 POP POP SWAP3 POP SWAP3 POP SWAP3 JUMP JUMPDEST PUSH2 0x32EA DUP2 PUSH2 0x37B7 JUMP JUMPDEST DUP3 MSTORE POP POP JUMP JUMPDEST PUSH2 0x32F9 DUP2 PUSH2 0x37C9 JUMP JUMPDEST DUP3 MSTORE POP POP JUMP JUMPDEST PUSH1 0x0 PUSH2 0x330C PUSH1 0x18 DUP4 PUSH2 0x36EB JUMP JUMPDEST SWAP2 POP PUSH2 0x3317 DUP3 PUSH2 0x38EE JUMP JUMPDEST PUSH1 0x20 DUP3 ADD SWAP1 POP SWAP2 SWAP1 POP JUMP JUMPDEST PUSH1 0x0 PUSH2 0x332F PUSH1 0x1A DUP4 PUSH2 0x36EB JUMP JUMPDEST SWAP2 POP PUSH2 0x333A DUP3 PUSH2 0x3917 JUMP JUMPDEST PUSH1 0x20 DUP3 ADD SWAP1 POP SWAP2 SWAP1 POP JUMP JUMPDEST PUSH1 0x0 PUSH2 0x3352 PUSH1 0x26 DUP4 PUSH2 0x36EB JUMP JUMPDEST SWAP2 POP PUSH2 0x335D DUP3 PUSH2 0x3940 JUMP JUMPDEST PUSH1 0x40 DUP3 ADD SWAP1 POP SWAP2 SWAP1 POP JUMP JUMPDEST PUSH1 0x0 PUSH2 0x3375 PUSH1 0x12 DUP4 PUSH2 0x36EB JUMP JUMPDEST SWAP2 POP PUSH2 0x3380 DUP3 PUSH2 0x398F JUMP JUMPDEST PUSH1 0x20 DUP3 ADD SWAP1 POP SWAP2 SWAP1 POP JUMP JUMPDEST PUSH1 0x0 PUSH2 0x3398 PUSH1 0x18 DUP4 PUSH2 0x36EB JUMP JUMPDEST SWAP2 POP PUSH2 0x33A3 DUP3 PUSH2 0x39B8 JUMP JUMPDEST PUSH1 0x20 DUP3 ADD SWAP1 POP SWAP2 SWAP1 POP JUMP JUMPDEST PUSH1 0x0 PUSH2 0x33BB PUSH1 0xD DUP4 PUSH2 0x36EB JUMP JUMPDEST SWAP2 POP PUSH2 0x33C6 DUP3 PUSH2 0x39E1 JUMP JUMPDEST PUSH1 0x20 DUP3 ADD SWAP1 POP SWAP2 SWAP1 POP JUMP JUMPDEST PUSH1 0x0 PUSH2 0x33DE PUSH1 0x20 DUP4 PUSH2 0x36EB JUMP JUMPDEST SWAP2 POP PUSH2 0x33E9 DUP3 PUSH2 0x3A0A JUMP JUMPDEST PUSH1 0x20 DUP3 ADD SWAP1 POP SWAP2 SWAP1 POP JUMP JUMPDEST PUSH1 0x0 PUSH2 0x3401 PUSH1 0x0 DUP4 PUSH2 0x36DA JUMP JUMPDEST SWAP2 POP PUSH2 0x340C DUP3 PUSH2 0x3A33 JUMP JUMPDEST PUSH1 0x0 DUP3 ADD SWAP1 POP SWAP2 SWAP1 POP JUMP JUMPDEST PUSH1 0x0 PUSH2 0x3424 PUSH1 0x19 DUP4 PUSH2 0x36EB JUMP JUMPDEST SWAP2 POP PUSH2 0x342F DUP3 PUSH2 0x3A36 JUMP JUMPDEST PUSH1 0x20 DUP3 ADD SWAP1 POP SWAP2 SWAP1 POP JUMP JUMPDEST PUSH1 0x0 PUSH2 0x3447 PUSH1 0x14 DUP4 PUSH2 0x36EB JUMP JUMPDEST SWAP2 POP PUSH2 0x3452 DUP3 PUSH2 0x3A5F JUMP JUMPDEST PUSH1 0x20 DUP3 ADD SWAP1 POP SWAP2 SWAP1 POP JUMP JUMPDEST PUSH2 0x3466 DUP2 PUSH2 0x37F5 JUMP JUMPDEST DUP3 MSTORE POP POP JUMP JUMPDEST PUSH1 0x0 PUSH1 0x20 DUP3 ADD SWAP1 POP PUSH2 0x3481 PUSH1 0x0 DUP4 ADD DUP5 PUSH2 0x32E1 JUMP JUMPDEST SWAP3 SWAP2 POP POP JUMP JUMPDEST PUSH1 0x0 PUSH1 0x40 DUP3 ADD SWAP1 POP PUSH2 0x349C PUSH1 0x0 DUP4 ADD DUP6 PUSH2 0x32E1 JUMP JUMPDEST PUSH2 0x34A9 PUSH1 0x20 DUP4 ADD DUP5 PUSH2 0x32E1 JUMP JUMPDEST SWAP4 SWAP3 POP POP POP JUMP JUMPDEST PUSH1 0x0 PUSH1 0x60 DUP3 ADD SWAP1 POP PUSH2 0x34C5 PUSH1 0x0 DUP4 ADD DUP7 PUSH2 0x32E1 JUMP JUMPDEST PUSH2 0x34D2 PUSH1 0x20 DUP4 ADD DUP6 PUSH2 0x32E1 JUMP JUMPDEST PUSH2 0x34DF PUSH1 0x40 DUP4 ADD DUP5 PUSH2 0x345D JUMP JUMPDEST SWAP5 SWAP4 POP POP POP POP JUMP JUMPDEST PUSH1 0x0 PUSH1 0x80 DUP3 ADD SWAP1 POP PUSH2 0x34FC PUSH1 0x0 DUP4 ADD DUP7 PUSH2 0x32E1 JUMP JUMPDEST PUSH2 0x3509 PUSH1 0x20 DUP4 ADD DUP6 PUSH2 0x32E1 JUMP JUMPDEST PUSH2 0x3516 PUSH1 0x40 DUP4 ADD DUP5 PUSH2 0x345D JUMP JUMPDEST DUP2 DUP2 SUB PUSH1 0x60 DUP4 ADD MSTORE PUSH2 0x3527 DUP2 PUSH2 0x33F4 JUMP JUMPDEST SWAP1 POP SWAP5 SWAP4 POP POP POP POP JUMP JUMPDEST PUSH1 0x0 PUSH1 0x20 DUP3 ADD SWAP1 POP PUSH2 0x3546 PUSH1 0x0 DUP4 ADD DUP5 PUSH2 0x32F0 JUMP JUMPDEST SWAP3 SWAP2 POP POP JUMP JUMPDEST PUSH1 0x0 PUSH1 0x20 DUP3 ADD SWAP1 POP DUP2 DUP2 SUB PUSH1 0x0 DUP4 ADD MSTORE PUSH2 0x3565 DUP2 PUSH2 0x32FF JUMP JUMPDEST SWAP1 POP SWAP2 SWAP1 POP JUMP JUMPDEST PUSH1 0x0 PUSH1 0x20 DUP3 ADD SWAP1 POP DUP2 DUP2 SUB PUSH1 0x0 DUP4 ADD MSTORE PUSH2 0x3585 DUP2 PUSH2 0x3322 JUMP JUMPDEST SWAP1 POP SWAP2 SWAP1 POP JUMP JUMPDEST PUSH1 0x0 PUSH1 0x20 DUP3 ADD SWAP1 POP DUP2 DUP2 SUB PUSH1 0x0 DUP4 ADD MSTORE PUSH2 0x35A5 DUP2 PUSH2 0x3345 JUMP JUMPDEST SWAP1 POP SWAP2 SWAP1 POP JUMP JUMPDEST PUSH1 0x0 PUSH1 0x20 DUP3 ADD SWAP1 POP DUP2 DUP2 SUB PUSH1 0x0 DUP4 ADD MSTORE PUSH2 0x35C5 DUP2 PUSH2 0x3368 JUMP JUMPDEST SWAP1 POP SWAP2 SWAP1 POP JUMP JUMPDEST PUSH1 0x0 PUSH1 0x20 DUP3 ADD SWAP1 POP DUP2 DUP2 SUB PUSH1 0x0 DUP4 ADD MSTORE PUSH2 0x35E5 DUP2 PUSH2 0x338B JUMP JUMPDEST SWAP1 POP SWAP2 SWAP1 POP JUMP JUMPDEST PUSH1 0x0 PUSH1 0x20 DUP3 ADD SWAP1 POP DUP2 DUP2 SUB PUSH1 0x0 DUP4 ADD MSTORE PUSH2 0x3605 DUP2 PUSH2 0x33AE JUMP JUMPDEST SWAP1 POP SWAP2 SWAP1 POP JUMP JUMPDEST PUSH1 0x0 PUSH1 0x20 DUP3 ADD SWAP1 POP DUP2 DUP2 SUB PUSH1 0x0 DUP4 ADD MSTORE PUSH2 0x3625 DUP2 PUSH2 0x33D1 JUMP JUMPDEST SWAP1 POP SWAP2 SWAP1 POP JUMP JUMPDEST PUSH1 0x0 PUSH1 0x20 DUP3 ADD SWAP1 POP DUP2 DUP2 SUB PUSH1 0x0 DUP4 ADD MSTORE PUSH2 0x3645 DUP2 PUSH2 0x3417 JUMP JUMPDEST SWAP1 POP SWAP2 SWAP1 POP JUMP JUMPDEST PUSH1 0x0 PUSH1 0x20 DUP3 ADD SWAP1 POP DUP2 DUP2 SUB PUSH1 0x0 DUP4 ADD MSTORE PUSH2 0x3665 DUP2 PUSH2 0x343A JUMP JUMPDEST SWAP1 POP SWAP2 SWAP1 POP JUMP JUMPDEST PUSH1 0x0 PUSH1 0x20 DUP3 ADD SWAP1 POP PUSH2 0x3681 PUSH1 0x0 DUP4 ADD DUP5 PUSH2 0x345D JUMP JUMPDEST SWAP3 SWAP2 POP POP JUMP JUMPDEST PUSH1 0x0 PUSH1 0xA0 DUP3 ADD SWAP1 POP PUSH2 0x369C PUSH1 0x0 DUP4 ADD DUP9 PUSH2 0x345D JUMP JUMPDEST PUSH2 0x36A9 PUSH1 0x20 DUP4 ADD DUP8 PUSH2 0x32E1 JUMP JUMPDEST PUSH2 0x36B6 PUSH1 0x40 DUP4 ADD DUP7 PUSH2 0x32E1 JUMP JUMPDEST PUSH2 0x36C3 PUSH1 0x60 DUP4 ADD DUP6 PUSH2 0x32F0 JUMP JUMPDEST PUSH2 0x36D0 PUSH1 0x80 DUP4 ADD DUP5 PUSH2 0x345D JUMP JUMPDEST SWAP7 SWAP6 POP POP POP POP POP POP JUMP JUMPDEST PUSH1 0x0 DUP3 DUP3 MSTORE PUSH1 0x20 DUP3 ADD SWAP1 POP SWAP3 SWAP2 POP POP JUMP JUMPDEST PUSH1 0x0 DUP3 DUP3 MSTORE PUSH1 0x20 DUP3 ADD SWAP1 POP SWAP3 SWAP2 POP POP JUMP JUMPDEST PUSH1 0x0 PUSH2 0x3707 DUP3 PUSH2 0x37F5 JUMP JUMPDEST SWAP2 POP PUSH2 0x3712 DUP4 PUSH2 0x37F5 JUMP JUMPDEST SWAP3 POP DUP3 PUSH32 0xFFFFFFFFFFFFFFFFFFFFFFFFFFFFFFFFFFFFFFFFFFFFFFFFFFFFFFFFFFFFFFFF SUB DUP3 GT ISZERO PUSH2 0x3747 JUMPI PUSH2 0x3746 PUSH2 0x3848 JUMP JUMPDEST JUMPDEST DUP3 DUP3 ADD SWAP1 POP SWAP3 SWAP2 POP POP JUMP JUMPDEST PUSH1 0x0 PUSH2 0x375D DUP3 PUSH2 0x37F5 JUMP JUMPDEST SWAP2 POP PUSH2 0x3768 DUP4 PUSH2 0x37F5 JUMP JUMPDEST SWAP3 POP DUP3 PUSH2 0x3778 JUMPI PUSH2 0x3777 PUSH2 0x3877 JUMP JUMPDEST JUMPDEST DUP3 DUP3 DIV SWAP1 POP SWAP3 SWAP2 POP POP JUMP JUMPDEST PUSH1 0x0 PUSH2 0x378E DUP3 PUSH2 0x37F5 JUMP JUMPDEST SWAP2 POP PUSH2 0x3799 DUP4 PUSH2 0x37F5 JUMP JUMPDEST SWAP3 POP DUP3 DUP3 LT ISZERO PUSH2 0x37AC JUMPI PUSH2 0x37AB PUSH2 0x3848 JUMP JUMPDEST JUMPDEST DUP3 DUP3 SUB SWAP1 POP SWAP3 SWAP2 POP POP JUMP JUMPDEST PUSH1 0x0 PUSH2 0x37C2 DUP3 PUSH2 0x37D5 JUMP JUMPDEST SWAP1 POP SWAP2 SWAP1 POP JUMP JUMPDEST PUSH1 0x0 DUP2 ISZERO ISZERO SWAP1 POP SWAP2 SWAP1 POP JUMP JUMPDEST PUSH1 0x0 PUSH20 0xFFFFFFFFFFFFFFFFFFFFFFFFFFFFFFFFFFFFFFFF DUP3 AND SWAP1 POP SWAP2 SWAP1 POP JUMP JUMPDEST PUSH1 0x0 DUP2 SWAP1 POP SWAP2 SWAP1 POP JUMP JUMPDEST PUSH1 0x0 PUSH2 0x380A DUP3 PUSH2 0x37F5 JUMP JUMPDEST SWAP2 POP PUSH32 0xFFFFFFFFFFFFFFFFFFFFFFFFFFFFFFFFFFFFFFFFFFFFFFFFFFFFFFFFFFFFFFFF DUP3 EQ ISZERO PUSH2 0x383D JUMPI PUSH2 0x383C PUSH2 0x3848 JUMP JUMPDEST JUMPDEST PUSH1 0x1 DUP3 ADD SWAP1 POP SWAP2 SWAP1 POP JUMP JUMPDEST PUSH32 0x4E487B7100000000000000000000000000000000000000000000000000000000 PUSH1 0x0 MSTORE PUSH1 0x11 PUSH1 0x4 MSTORE PUSH1 0x24 PUSH1 0x0 REVERT JUMPDEST PUSH32 0x4E487B7100000000000000000000000000000000000000000000000000000000 PUSH1 0x0 MSTORE PUSH1 0x12 PUSH1 0x4 MSTORE PUSH1 0x24 PUSH1 0x0 REVERT JUMPDEST PUSH32 0x4E487B7100000000000000000000000000000000000000000000000000000000 PUSH1 0x0 MSTORE PUSH1 0x32 PUSH1 0x4 MSTORE PUSH1 0x24 PUSH1 0x0 REVERT JUMPDEST PUSH1 0x0 DUP1 REVERT JUMPDEST PUSH1 0x0 DUP1 REVERT JUMPDEST PUSH1 0x0 DUP1 REVERT JUMPDEST PUSH1 0x0 DUP1 REVERT JUMPDEST PUSH1 0x0 DUP1 REVERT JUMPDEST PUSH32 0x54686973204E4654206973206E6F74206C697374696E672E0000000000000000 PUSH1 0x0 DUP3 ADD MSTORE POP JUMP JUMPDEST PUSH32 0x436F6E7472616374206D75737420626520617070726F7665642E000000000000 PUSH1 0x0 DUP3 ADD MSTORE POP JUMP JUMPDEST PUSH32 0x4F776E61626C653A206E6577206F776E657220697320746865207A65726F2061 PUSH1 0x0 DUP3 ADD MSTORE PUSH32 0x6464726573730000000000000000000000000000000000000000000000000000 PUSH1 0x20 DUP3 ADD MSTORE POP JUMP JUMPDEST PUSH32 0x4275792066726F6D20796F757273656C662E0000000000000000000000000000 PUSH1 0x0 DUP3 ADD MSTORE POP JUMP JUMPDEST PUSH32 0x496E73756666696369656E742066756E64732073656E742E0000000000000000 PUSH1 0x0 DUP3 ADD MSTORE POP JUMP JUMPDEST PUSH32 0x556E617574686F72697A65642E00000000000000000000000000000000000000 PUSH1 0x0 DUP3 ADD MSTORE POP JUMP JUMPDEST PUSH32 0x4F776E61626C653A2063616C6C6572206973206E6F7420746865206F776E6572 PUSH1 0x0 DUP3 ADD MSTORE POP JUMP JUMPDEST POP JUMP JUMPDEST PUSH32 0x54686973204E4654206973206E6F7420666F722073656C6C2E00000000000000 PUSH1 0x0 DUP3 ADD MSTORE POP JUMP JUMPDEST PUSH32 0x53656C6C657220686173206E6F20746F6B656E2E000000000000000000000000 PUSH1 0x0 DUP3 ADD MSTORE POP JUMP JUMPDEST PUSH2 0x3A91 DUP2 PUSH2 0x37B7 JUMP JUMPDEST DUP2 EQ PUSH2 0x3A9C JUMPI PUSH1 0x0 DUP1 REVERT JUMPDEST POP JUMP JUMPDEST PUSH2 0x3AA8 DUP2 PUSH2 0x37C9 JUMP JUMPDEST DUP2 EQ PUSH2 0x3AB3 JUMPI PUSH1 0x0 DUP1 REVERT JUMPDEST POP JUMP JUMPDEST PUSH2 0x3ABF DUP2 PUSH2 0x37F5 JUMP JUMPDEST DUP2 EQ PUSH2 0x3ACA JUMPI PUSH1 0x0 DUP1 REVERT JUMPDEST POP JUMP INVALID LOG2 PUSH5 0x6970667358 0x22 SLT KECCAK256 MSIZE 0xA6 0x5E DUP7 ISZERO 0xD9 CALLVALUE DUP3 PUSH16 0xEAD225741EDF82925FE54491CD582101 0xB2 SWAP1 0xE0 0x2D 0xD4 0x4D SWAP8 PUSH5 0x736F6C6343 STOP ADDMOD SMOD STOP CALLER "
				},
				"gasEstimates": {
					"creation": {
						"codeDepositCost": "3021400",
						"executionCost": "infinite",
						"totalCost": "infinite"
					},
					"external": {
						"addListing(uint256,address,uint256)": "infinite",
						"cancelListing(address,uint256)": "infinite",
						"getIsListing(address,uint256)": "3236",
						"getOwner(address,uint256)": "infinite",
						"getPrevOwner(address,uint256,uint256)": "infinite",
						"getPrice(address,uint256)": "infinite",
						"getSeller(address,uint256)": "infinite",
						"listings(address,uint256)": "infinite",
						"owner()": "2544",
						"purchase(address,uint256,address,uint256,uint256,uint256)": "infinite",
						"purchaseBatch(address,uint256[],address,uint256,uint256[],uint256)": "infinite",
						"purchaseERC20(address,address,uint256,address,uint256,uint256,uint256)": "infinite",
						"purchaseERC20Batch(address,address,uint256[],address,uint256,uint256[],uint256)": "infinite",
						"renounceOwnership()": "30397",
						"transferOwnership(address)": "30811"
					}
				},
				"methodIdentifiers": {
					"addListing(uint256,address,uint256)": "80abbe57",
					"cancelListing(address,uint256)": "b2ddee06",
					"getIsListing(address,uint256)": "031aa9b5",
					"getOwner(address,uint256)": "2f634a90",
					"getPrevOwner(address,uint256,uint256)": "2973d6f8",
					"getPrice(address,uint256)": "449e815d",
					"getSeller(address,uint256)": "189ecff1",
					"listings(address,uint256)": "0007df30",
					"owner()": "8da5cb5b",
					"purchase(address,uint256,address,uint256,uint256,uint256)": "8111f398",
					"purchaseBatch(address,uint256[],address,uint256,uint256[],uint256)": "8c5b197b",
					"purchaseERC20(address,address,uint256,address,uint256,uint256,uint256)": "2c872cd1",
					"purchaseERC20Batch(address,address,uint256[],address,uint256,uint256[],uint256)": "ed81abad",
					"renounceOwnership()": "715018a6",
					"transferOwnership(address)": "f2fde38b"
				}
			},
			"storageLayout": {
				"storage": [
					{
						"astId": 1266,
						"contract": "MarketERC721.sol:Market",
						"label": "_owner",
						"offset": 0,
						"slot": "0",
						"type": "t_address"
					},
					{
						"astId": 80,
						"contract": "MarketERC721.sol:Market",
						"label": "listings",
						"offset": 0,
						"slot": "1",
						"type": "t_mapping(t_address,t_mapping(t_uint256,t_struct(Listing)95_storage))"
					}
				],
				"types": {
					"t_address": {
						"encoding": "inplace",
						"label": "address",
						"numberOfBytes": "20"
					},
					"t_bool": {
						"encoding": "inplace",
						"label": "bool",
						"numberOfBytes": "1"
					},
					"t_mapping(t_address,t_mapping(t_uint256,t_struct(Listing)95_storage))": {
						"encoding": "mapping",
						"key": "t_address",
						"label": "mapping(address => mapping(uint256 => struct Market.Listing))",
						"numberOfBytes": "32",
						"value": "t_mapping(t_uint256,t_struct(Listing)95_storage)"
					},
					"t_mapping(t_uint256,t_address)": {
						"encoding": "mapping",
						"key": "t_uint256",
						"label": "mapping(uint256 => address)",
						"numberOfBytes": "32",
						"value": "t_address"
					},
					"t_mapping(t_uint256,t_struct(Listing)95_storage)": {
						"encoding": "mapping",
						"key": "t_uint256",
						"label": "mapping(uint256 => struct Market.Listing)",
						"numberOfBytes": "32",
						"value": "t_struct(Listing)95_storage"
					},
					"t_struct(Listing)95_storage": {
						"encoding": "inplace",
						"label": "struct Market.Listing",
						"members": [
							{
								"astId": 82,
								"contract": "MarketERC721.sol:Market",
								"label": "price",
								"offset": 0,
								"slot": "0",
								"type": "t_uint256"
							},
							{
								"astId": 84,
								"contract": "MarketERC721.sol:Market",
								"label": "seller",
								"offset": 0,
								"slot": "1",
								"type": "t_address"
							},
							{
								"astId": 86,
								"contract": "MarketERC721.sol:Market",
								"label": "owner",
								"offset": 0,
								"slot": "2",
								"type": "t_address"
							},
							{
								"astId": 88,
								"contract": "MarketERC721.sol:Market",
								"label": "isListing",
								"offset": 20,
								"slot": "2",
								"type": "t_bool"
							},
							{
								"astId": 90,
								"contract": "MarketERC721.sol:Market",
								"label": "ownerCount",
								"offset": 0,
								"slot": "3",
								"type": "t_uint256"
							},
							{
								"astId": 94,
								"contract": "MarketERC721.sol:Market",
								"label": "previousOwners",
								"offset": 0,
								"slot": "4",
								"type": "t_mapping(t_uint256,t_address)"
							}
						],
						"numberOfBytes": "160"
					},
					"t_uint256": {
						"encoding": "inplace",
						"label": "uint256",
						"numberOfBytes": "32"
					}
				}
			},
			"userdoc": {
				"kind": "user",
				"methods": {},
				"version": 1
			}
		}
	}
}