{
	"Offer.sol": {
		"Offer": {
			"abi": [
				{
					"anonymous": false,
					"inputs": [
						{
							"indexed": true,
							"internalType": "address",
							"name": "tokenAddr",
							"type": "address"
						},
						{
							"indexed": true,
							"internalType": "uint256",
							"name": "tokenId",
							"type": "uint256"
						},
						{
							"indexed": true,
							"internalType": "address",
							"name": "offerer",
							"type": "address"
						},
						{
							"indexed": false,
							"internalType": "uint256",
							"name": "amount",
							"type": "uint256"
						},
						{
							"indexed": false,
							"internalType": "bool",
							"name": "isOffer",
							"type": "bool"
						}
					],
					"name": "OfferEvent",
					"type": "event"
				},
				{
					"anonymous": false,
					"inputs": [
						{
							"indexed": true,
							"internalType": "address",
							"name": "tokenAddr",
							"type": "address"
						},
						{
							"indexed": true,
							"internalType": "uint256",
							"name": "tokenId",
							"type": "uint256"
						},
						{
							"indexed": false,
							"internalType": "bool",
							"name": "isOffer",
							"type": "bool"
						}
					],
					"name": "SubmitEvent",
					"type": "event"
				},
				{
					"anonymous": false,
					"inputs": [
						{
							"indexed": true,
							"internalType": "address",
							"name": "tokenAddr",
							"type": "address"
						},
						{
							"indexed": true,
							"internalType": "uint256",
							"name": "tokenId",
							"type": "uint256"
						},
						{
							"indexed": true,
							"internalType": "address",
							"name": "offerer",
							"type": "address"
						}
					],
					"name": "WithdrawEvent",
					"type": "event"
				},
				{
					"inputs": [],
					"name": "balances",
					"outputs": [
						{
							"internalType": "uint256",
							"name": "",
							"type": "uint256"
						}
					],
					"stateMutability": "view",
					"type": "function"
				},
				{
					"inputs": [
						{
							"internalType": "address",
							"name": "tokenAddr",
							"type": "address"
						},
						{
							"internalType": "uint256",
							"name": "tokenId",
							"type": "uint256"
						}
					],
					"name": "offer",
					"outputs": [],
					"stateMutability": "payable",
					"type": "function"
				},
				{
					"inputs": [
						{
							"internalType": "address",
							"name": "",
							"type": "address"
						},
						{
							"internalType": "uint256",
							"name": "",
							"type": "uint256"
						}
					],
					"name": "offers",
					"outputs": [
						{
							"internalType": "bool",
							"name": "isOffer",
							"type": "bool"
						}
					],
					"stateMutability": "view",
					"type": "function"
				},
				{
					"inputs": [
						{
							"internalType": "address",
							"name": "contractAddr",
							"type": "address"
						},
						{
							"internalType": "address",
							"name": "tokenAddr",
							"type": "address"
						},
						{
							"internalType": "uint256",
							"name": "tokenId",
							"type": "uint256"
						},
						{
							"internalType": "address",
							"name": "offerer",
							"type": "address"
						}
					],
					"name": "submit",
					"outputs": [],
					"stateMutability": "payable",
					"type": "function"
				},
				{
					"inputs": [
						{
							"internalType": "address",
							"name": "tokenAddr",
							"type": "address"
						},
						{
							"internalType": "uint256",
							"name": "tokenId",
							"type": "uint256"
						}
					],
					"name": "withdraw",
					"outputs": [],
					"stateMutability": "payable",
					"type": "function"
				}
			],
			"devdoc": {
				"kind": "dev",
				"methods": {},
				"version": 1
			},
			"evm": {
				"assembly": "    /* \"Offer.sol\":488:4404  contract Offer {\r... */\n  mstore(0x40, 0x80)\n  callvalue\n  dup1\n  iszero\n  tag_1\n  jumpi\n  0x00\n  dup1\n  revert\ntag_1:\n  pop\n  dataSize(sub_0)\n  dup1\n  dataOffset(sub_0)\n  0x00\n  codecopy\n  0x00\n  return\nstop\n\nsub_0: assembly {\n        /* \"Offer.sol\":488:4404  contract Offer {\r... */\n      mstore(0x40, 0x80)\n      jumpi(tag_1, lt(calldatasize, 0x04))\n      shr(0xe0, calldataload(0x00))\n      dup1\n      0x6b212960\n      eq\n      tag_2\n      jumpi\n      dup1\n      0x7bb98a68\n      eq\n      tag_3\n      jumpi\n      dup1\n      0xaa1a8411\n      eq\n      tag_4\n      jumpi\n      dup1\n      0xbbb96976\n      eq\n      tag_5\n      jumpi\n      dup1\n      0xf3fef3a3\n      eq\n      tag_6\n      jumpi\n    tag_1:\n      0x00\n      dup1\n      revert\n        /* \"Offer.sol\":1038:1473  function offer(address tokenAddr, uint tokenId) external payable {\r... */\n    tag_2:\n      tag_7\n      0x04\n      dup1\n      calldatasize\n      sub\n      dup2\n      add\n      swap1\n      tag_8\n      swap2\n      swap1\n      tag_9\n      jump\t// in\n    tag_8:\n      tag_10\n      jump\t// in\n    tag_7:\n      stop\n        /* \"Offer.sol\":1009:1029  uint public balances */\n    tag_3:\n      callvalue\n      dup1\n      iszero\n      tag_11\n      jumpi\n      0x00\n      dup1\n      revert\n    tag_11:\n      pop\n      tag_12\n      tag_13\n      jump\t// in\n    tag_12:\n      mload(0x40)\n      tag_14\n      swap2\n      swap1\n      tag_15\n      jump\t// in\n    tag_14:\n      mload(0x40)\n      dup1\n      swap2\n      sub\n      swap1\n      return\n        /* \"Offer.sol\":821:877  mapping(address =>mapping(uint => Offers)) public offers */\n    tag_4:\n      callvalue\n      dup1\n      iszero\n      tag_16\n      jumpi\n      0x00\n      dup1\n      revert\n    tag_16:\n      pop\n      tag_17\n      0x04\n      dup1\n      calldatasize\n      sub\n      dup2\n      add\n      swap1\n      tag_18\n      swap2\n      swap1\n      tag_9\n      jump\t// in\n    tag_18:\n      tag_19\n      jump\t// in\n    tag_17:\n      mload(0x40)\n      tag_20\n      swap2\n      swap1\n      tag_21\n      jump\t// in\n    tag_20:\n      mload(0x40)\n      dup1\n      swap2\n      sub\n      swap1\n      return\n        /* \"Offer.sol\":1481:3390  function submit(address contractAddr, address tokenAddr, uint tokenId, address offerer) external payable {\r... */\n    tag_5:\n      tag_22\n      0x04\n      dup1\n      calldatasize\n      sub\n      dup2\n      add\n      swap1\n      tag_23\n      swap2\n      swap1\n      tag_24\n      jump\t// in\n    tag_23:\n      tag_25\n      jump\t// in\n    tag_22:\n      stop\n        /* \"Offer.sol\":3398:4401  function withdraw(address tokenAddr, uint tokenId) public payable {\r... */\n    tag_6:\n      tag_26\n      0x04\n      dup1\n      calldatasize\n      sub\n      dup2\n      add\n      swap1\n      tag_27\n      swap2\n      swap1\n      tag_9\n      jump\t// in\n    tag_27:\n      tag_28\n      jump\t// in\n    tag_26:\n      stop\n        /* \"Offer.sol\":1038:1473  function offer(address tokenAddr, uint tokenId) external payable {\r... */\n    tag_10:\n        /* \"Offer.sol\":1114:1136  Offers storage _offers */\n      0x00\n        /* \"Offer.sol\":1139:1145  offers */\n      dup1\n        /* \"Offer.sol\":1139:1156  offers[tokenAddr] */\n      0x00\n        /* \"Offer.sol\":1146:1155  tokenAddr */\n      dup5\n        /* \"Offer.sol\":1139:1156  offers[tokenAddr] */\n      0xffffffffffffffffffffffffffffffffffffffff\n      and\n      0xffffffffffffffffffffffffffffffffffffffff\n      and\n      dup2\n      mstore\n      0x20\n      add\n      swap1\n      dup2\n      mstore\n      0x20\n      add\n      0x00\n      keccak256\n        /* \"Offer.sol\":1139:1165  offers[tokenAddr][tokenId] */\n      0x00\n        /* \"Offer.sol\":1157:1164  tokenId */\n      dup4\n        /* \"Offer.sol\":1139:1165  offers[tokenAddr][tokenId] */\n      dup2\n      mstore\n      0x20\n      add\n      swap1\n      dup2\n      mstore\n      0x20\n      add\n      0x00\n      keccak256\n        /* \"Offer.sol\":1114:1165  Offers storage _offers = offers[tokenAddr][tokenId] */\n      swap1\n      pop\n        /* \"Offer.sol\":1211:1212  0 */\n      0x00\n        /* \"Offer.sol\":1181:1188  _offers */\n      dup2\n        /* \"Offer.sol\":1181:1195  _offers.amount */\n      0x01\n      add\n        /* \"Offer.sol\":1181:1207  _offers.amount[msg.sender] */\n      0x00\n        /* \"Offer.sol\":1196:1206  msg.sender */\n      caller\n        /* \"Offer.sol\":1181:1207  _offers.amount[msg.sender] */\n      0xffffffffffffffffffffffffffffffffffffffff\n      and\n      0xffffffffffffffffffffffffffffffffffffffff\n      and\n      dup2\n      mstore\n      0x20\n      add\n      swap1\n      dup2\n      mstore\n      0x20\n      add\n      0x00\n      keccak256\n      sload\n        /* \"Offer.sol\":1181:1212  _offers.amount[msg.sender] == 0 */\n      eq\n        /* \"Offer.sol\":1178:1273  if(_offers.amount[msg.sender] == 0) {\r... */\n      iszero\n      tag_30\n      jumpi\n        /* \"Offer.sol\":1229:1236  _offers */\n      dup1\n        /* \"Offer.sol\":1229:1244  _offers.offerer */\n      0x00\n      add\n        /* \"Offer.sol\":1250:1260  msg.sender */\n      caller\n        /* \"Offer.sol\":1229:1261  _offers.offerer.push(msg.sender) */\n      swap1\n      dup1\n      0x01\n      dup2\n      sload\n      add\n      dup1\n      dup3\n      sstore\n      dup1\n      swap2\n      pop\n      pop\n      0x01\n      swap1\n      sub\n      swap1\n      0x00\n      mstore\n      keccak256(0x00, 0x20)\n      add\n      0x00\n      swap1\n      swap2\n      swap1\n      swap2\n      swap1\n      swap2\n      0x0100\n      exp\n      dup2\n      sload\n      dup2\n      0xffffffffffffffffffffffffffffffffffffffff\n      mul\n      not\n      and\n      swap1\n      dup4\n      0xffffffffffffffffffffffffffffffffffffffff\n      and\n      mul\n      or\n      swap1\n      sstore\n      pop\n        /* \"Offer.sol\":1178:1273  if(_offers.amount[msg.sender] == 0) {\r... */\n    tag_30:\n        /* \"Offer.sol\":1312:1321  msg.value */\n      callvalue\n        /* \"Offer.sol\":1283:1290  _offers */\n      dup2\n        /* \"Offer.sol\":1283:1297  _offers.amount */\n      0x01\n      add\n        /* \"Offer.sol\":1283:1309  _offers.amount[msg.sender] */\n      0x00\n        /* \"Offer.sol\":1298:1308  msg.sender */\n      caller\n        /* \"Offer.sol\":1283:1309  _offers.amount[msg.sender] */\n      0xffffffffffffffffffffffffffffffffffffffff\n      and\n      0xffffffffffffffffffffffffffffffffffffffff\n      and\n      dup2\n      mstore\n      0x20\n      add\n      swap1\n      dup2\n      mstore\n      0x20\n      add\n      0x00\n      keccak256\n        /* \"Offer.sol\":1283:1321  _offers.amount[msg.sender] = msg.value */\n      dup2\n      swap1\n      sstore\n      pop\n        /* \"Offer.sol\":1350:1354  true */\n      0x01\n        /* \"Offer.sol\":1332:1339  _offers */\n      dup2\n        /* \"Offer.sol\":1332:1347  _offers.isOffer */\n      0x02\n      add\n      0x00\n        /* \"Offer.sol\":1332:1354  _offers.isOffer = true */\n      0x0100\n      exp\n      dup2\n      sload\n      dup2\n      0xff\n      mul\n      not\n      and\n      swap1\n      dup4\n      iszero\n      iszero\n      mul\n      or\n      swap1\n      sstore\n      pop\n        /* \"Offer.sol\":1379:1388  msg.value */\n      callvalue\n        /* \"Offer.sol\":1367:1375  balances */\n      0x01\n      0x00\n        /* \"Offer.sol\":1367:1388  balances += msg.value */\n      dup3\n      dup3\n      sload\n      tag_32\n      swap2\n      swap1\n      tag_33\n      jump\t// in\n    tag_32:\n      swap3\n      pop\n      pop\n      dup2\n      swap1\n      sstore\n      pop\n        /* \"Offer.sol\":1437:1447  msg.sender */\n      caller\n        /* \"Offer.sol\":1406:1465  OfferEvent(tokenAddr, tokenId, msg.sender, msg.value, true) */\n      0xffffffffffffffffffffffffffffffffffffffff\n      and\n        /* \"Offer.sol\":1428:1435  tokenId */\n      dup3\n        /* \"Offer.sol\":1417:1426  tokenAddr */\n      dup5\n        /* \"Offer.sol\":1406:1465  OfferEvent(tokenAddr, tokenId, msg.sender, msg.value, true) */\n      0xffffffffffffffffffffffffffffffffffffffff\n      and\n      0xa297a5039e151f85fd39b734d57194f31bf1ba744464810f8fa18941216c79b0\n        /* \"Offer.sol\":1449:1458  msg.value */\n      callvalue\n        /* \"Offer.sol\":1460:1464  true */\n      0x01\n        /* \"Offer.sol\":1406:1465  OfferEvent(tokenAddr, tokenId, msg.sender, msg.value, true) */\n      mload(0x40)\n      tag_34\n      swap3\n      swap2\n      swap1\n      tag_35\n      jump\t// in\n    tag_34:\n      mload(0x40)\n      dup1\n      swap2\n      sub\n      swap1\n      log4\n        /* \"Offer.sol\":1103:1473  {\r... */\n      pop\n        /* \"Offer.sol\":1038:1473  function offer(address tokenAddr, uint tokenId) external payable {\r... */\n      pop\n      pop\n      jump\t// out\n        /* \"Offer.sol\":1009:1029  uint public balances */\n    tag_13:\n      sload(0x01)\n      dup2\n      jump\t// out\n        /* \"Offer.sol\":821:877  mapping(address =>mapping(uint => Offers)) public offers */\n    tag_19:\n      mstore(0x20, 0x00)\n      dup2\n      0x00\n      mstore\n      mstore(0x20, keccak256(0x00, 0x40))\n      dup1\n      0x00\n      mstore\n      keccak256(0x00, 0x40)\n      0x00\n      swap2\n      pop\n      swap2\n      pop\n      pop\n      dup1\n      0x02\n      add\n      0x00\n      swap1\n      sload\n      swap1\n      0x0100\n      exp\n      swap1\n      div\n      0xff\n      and\n      swap1\n      pop\n      dup2\n      jump\t// out\n        /* \"Offer.sol\":1481:3390  function submit(address contractAddr, address tokenAddr, uint tokenId, address offerer) external payable {\r... */\n    tag_25:\n        /* \"Offer.sol\":1597:1619  Offers storage _offers */\n      0x00\n        /* \"Offer.sol\":1622:1628  offers */\n      dup1\n        /* \"Offer.sol\":1622:1639  offers[tokenAddr] */\n      0x00\n        /* \"Offer.sol\":1629:1638  tokenAddr */\n      dup6\n        /* \"Offer.sol\":1622:1639  offers[tokenAddr] */\n      0xffffffffffffffffffffffffffffffffffffffff\n      and\n      0xffffffffffffffffffffffffffffffffffffffff\n      and\n      dup2\n      mstore\n      0x20\n      add\n      swap1\n      dup2\n      mstore\n      0x20\n      add\n      0x00\n      keccak256\n        /* \"Offer.sol\":1622:1648  offers[tokenAddr][tokenId] */\n      0x00\n        /* \"Offer.sol\":1640:1647  tokenId */\n      dup5\n        /* \"Offer.sol\":1622:1648  offers[tokenAddr][tokenId] */\n      dup2\n      mstore\n      0x20\n      add\n      swap1\n      dup2\n      mstore\n      0x20\n      add\n      0x00\n      keccak256\n        /* \"Offer.sol\":1597:1648  Offers storage _offers = offers[tokenAddr][tokenId] */\n      swap1\n      pop\n        /* \"Offer.sol\":1659:1672  IERC721 token */\n      0x00\n        /* \"Offer.sol\":1683:1692  tokenAddr */\n      dup5\n        /* \"Offer.sol\":1659:1693  IERC721 token = IERC721(tokenAddr) */\n      swap1\n      pop\n        /* \"Offer.sol\":1704:1718  Market _market */\n      0x00\n        /* \"Offer.sol\":1728:1740  contractAddr */\n      dup7\n        /* \"Offer.sol\":1704:1741  Market _market = Market(contractAddr) */\n      swap1\n      pop\n        /* \"Offer.sol\":1788:1798  msg.sender */\n      caller\n        /* \"Offer.sol\":1762:1798  token.ownerOf(tokenId) == msg.sender */\n      0xffffffffffffffffffffffffffffffffffffffff\n      and\n        /* \"Offer.sol\":1762:1767  token */\n      dup3\n        /* \"Offer.sol\":1762:1775  token.ownerOf */\n      0xffffffffffffffffffffffffffffffffffffffff\n      and\n      0x6352211e\n        /* \"Offer.sol\":1776:1783  tokenId */\n      dup8\n        /* \"Offer.sol\":1762:1784  token.ownerOf(tokenId) */\n      mload(0x40)\n      dup3\n      0xffffffff\n      and\n      0xe0\n      shl\n      dup2\n      mstore\n      0x04\n      add\n      tag_37\n      swap2\n      swap1\n      tag_15\n      jump\t// in\n    tag_37:\n      0x20\n      mload(0x40)\n      dup1\n      dup4\n      sub\n      dup2\n      dup7\n      dup1\n      extcodesize\n      iszero\n      dup1\n      iszero\n      tag_38\n      jumpi\n      0x00\n      dup1\n      revert\n    tag_38:\n      pop\n      gas\n      staticcall\n      iszero\n      dup1\n      iszero\n      tag_40\n      jumpi\n      returndatasize\n      0x00\n      dup1\n      returndatacopy\n      revert(0x00, returndatasize)\n    tag_40:\n      pop\n      pop\n      pop\n      pop\n      mload(0x40)\n      returndatasize\n      not(0x1f)\n      0x1f\n      dup3\n      add\n      and\n      dup3\n      add\n      dup1\n      0x40\n      mstore\n      pop\n      dup2\n      add\n      swap1\n      tag_41\n      swap2\n      swap1\n      tag_42\n      jump\t// in\n    tag_41:\n        /* \"Offer.sol\":1762:1798  token.ownerOf(tokenId) == msg.sender */\n      0xffffffffffffffffffffffffffffffffffffffff\n      and\n      eq\n        /* \"Offer.sol\":1754:1816  require(token.ownerOf(tokenId) == msg.sender, \"Unauthorized.\") */\n      tag_43\n      jumpi\n      mload(0x40)\n      0x08c379a000000000000000000000000000000000000000000000000000000000\n      dup2\n      mstore\n      0x04\n      add\n      tag_44\n      swap1\n      tag_45\n      jump\t// in\n    tag_44:\n      mload(0x40)\n      dup1\n      swap2\n      sub\n      swap1\n      revert\n    tag_43:\n        /* \"Offer.sol\":1854:1858  true */\n      0x01\n        /* \"Offer.sol\":1835:1858  _offers.isOffer == true */\n      iszero\n      iszero\n        /* \"Offer.sol\":1835:1842  _offers */\n      dup4\n        /* \"Offer.sol\":1835:1850  _offers.isOffer */\n      0x02\n      add\n      0x00\n      swap1\n      sload\n      swap1\n      0x0100\n      exp\n      swap1\n      div\n      0xff\n      and\n        /* \"Offer.sol\":1835:1858  _offers.isOffer == true */\n      iszero\n      iszero\n      eq\n        /* \"Offer.sol\":1827:1872  require(_offers.isOffer == true, \"No offer.\") */\n      tag_46\n      jumpi\n      mload(0x40)\n      0x08c379a000000000000000000000000000000000000000000000000000000000\n      dup2\n      mstore\n      0x04\n      add\n      tag_47\n      swap1\n      tag_48\n      jump\t// in\n    tag_47:\n      mload(0x40)\n      dup1\n      swap2\n      sub\n      swap1\n      revert\n    tag_46:\n        /* \"Offer.sol\":1893:1903  msg.sender */\n      caller\n        /* \"Offer.sol\":1885:1913  payable(msg.sender).transfer */\n      0xffffffffffffffffffffffffffffffffffffffff\n      and\n        /* \"Offer.sol\":1885:1971  payable(msg.sender).transfer(_offers.amount[offerer] - (_offers.amount[offerer] / 20)) */\n      0x08fc\n        /* \"Offer.sol\":1967:1969  20 */\n      0x14\n        /* \"Offer.sol\":1941:1948  _offers */\n      dup6\n        /* \"Offer.sol\":1941:1955  _offers.amount */\n      0x01\n      add\n        /* \"Offer.sol\":1941:1964  _offers.amount[offerer] */\n      0x00\n        /* \"Offer.sol\":1956:1963  offerer */\n      dup9\n        /* \"Offer.sol\":1941:1964  _offers.amount[offerer] */\n      0xffffffffffffffffffffffffffffffffffffffff\n      and\n      0xffffffffffffffffffffffffffffffffffffffff\n      and\n      dup2\n      mstore\n      0x20\n      add\n      swap1\n      dup2\n      mstore\n      0x20\n      add\n      0x00\n      keccak256\n      sload\n        /* \"Offer.sol\":1941:1969  _offers.amount[offerer] / 20 */\n      tag_49\n      swap2\n      swap1\n      tag_50\n      jump\t// in\n    tag_49:\n        /* \"Offer.sol\":1914:1921  _offers */\n      dup6\n        /* \"Offer.sol\":1914:1928  _offers.amount */\n      0x01\n      add\n        /* \"Offer.sol\":1914:1937  _offers.amount[offerer] */\n      0x00\n        /* \"Offer.sol\":1929:1936  offerer */\n      dup9\n        /* \"Offer.sol\":1914:1937  _offers.amount[offerer] */\n      0xffffffffffffffffffffffffffffffffffffffff\n      and\n      0xffffffffffffffffffffffffffffffffffffffff\n      and\n      dup2\n      mstore\n      0x20\n      add\n      swap1\n      dup2\n      mstore\n      0x20\n      add\n      0x00\n      keccak256\n      sload\n        /* \"Offer.sol\":1914:1970  _offers.amount[offerer] - (_offers.amount[offerer] / 20) */\n      tag_51\n      swap2\n      swap1\n      tag_52\n      jump\t// in\n    tag_51:\n        /* \"Offer.sol\":1885:1971  payable(msg.sender).transfer(_offers.amount[offerer] - (_offers.amount[offerer] / 20)) */\n      swap1\n      dup2\n      iszero\n      mul\n      swap1\n      mload(0x40)\n      0x00\n      mload(0x40)\n      dup1\n      dup4\n      sub\n      dup2\n      dup6\n      dup9\n      dup9\n      call\n      swap4\n      pop\n      pop\n      pop\n      pop\n      iszero\n      dup1\n      iszero\n      tag_54\n      jumpi\n      returndatasize\n      0x00\n      dup1\n      returndatacopy\n      revert(0x00, returndatasize)\n    tag_54:\n      pop\n        /* \"Offer.sol\":2044:2045  0 */\n      0x00\n        /* \"Offer.sol\":1995:2002  _market */\n      dup2\n        /* \"Offer.sol\":1995:2021  _market.getPrevOwnerAmount */\n      0xffffffffffffffffffffffffffffffffffffffff\n      and\n      0xd178227a\n        /* \"Offer.sol\":2022:2031  tokenAddr */\n      dup9\n        /* \"Offer.sol\":2033:2040  tokenId */\n      dup9\n        /* \"Offer.sol\":1995:2041  _market.getPrevOwnerAmount(tokenAddr, tokenId) */\n      mload(0x40)\n      dup4\n      0xffffffff\n      and\n      0xe0\n      shl\n      dup2\n      mstore\n      0x04\n      add\n      tag_55\n      swap3\n      swap2\n      swap1\n      tag_56\n      jump\t// in\n    tag_55:\n      0x20\n      mload(0x40)\n      dup1\n      dup4\n      sub\n      dup2\n      dup7\n      dup1\n      extcodesize\n      iszero\n      dup1\n      iszero\n      tag_57\n      jumpi\n      0x00\n      dup1\n      revert\n    tag_57:\n      pop\n      gas\n      staticcall\n      iszero\n      dup1\n      iszero\n      tag_59\n      jumpi\n      returndatasize\n      0x00\n      dup1\n      returndatacopy\n      revert(0x00, returndatasize)\n    tag_59:\n      pop\n      pop\n      pop\n      pop\n      mload(0x40)\n      returndatasize\n      not(0x1f)\n      0x1f\n      dup3\n      add\n      and\n      dup3\n      add\n      dup1\n      0x40\n      mstore\n      pop\n      dup2\n      add\n      swap1\n      tag_60\n      swap2\n      swap1\n      tag_61\n      jump\t// in\n    tag_60:\n        /* \"Offer.sol\":1995:2045  _market.getPrevOwnerAmount(tokenAddr, tokenId) > 0 */\n      gt\n        /* \"Offer.sol\":1992:2638  if(_market.getPrevOwnerAmount(tokenAddr, tokenId) > 0) {\r... */\n      iszero\n      tag_62\n      jumpi\n        /* \"Offer.sol\":2070:2077  _market */\n      dup1\n        /* \"Offer.sol\":2070:2083  _market.owner */\n      0xffffffffffffffffffffffffffffffffffffffff\n      and\n      0x8da5cb5b\n        /* \"Offer.sol\":2070:2085  _market.owner() */\n      mload(0x40)\n      dup2\n      0xffffffff\n      and\n      0xe0\n      shl\n      dup2\n      mstore\n      0x04\n      add\n      0x20\n      mload(0x40)\n      dup1\n      dup4\n      sub\n      dup2\n      dup7\n      dup1\n      extcodesize\n      iszero\n      dup1\n      iszero\n      tag_63\n      jumpi\n      0x00\n      dup1\n      revert\n    tag_63:\n      pop\n      gas\n      staticcall\n      iszero\n      dup1\n      iszero\n      tag_65\n      jumpi\n      returndatasize\n      0x00\n      dup1\n      returndatacopy\n      revert(0x00, returndatasize)\n    tag_65:\n      pop\n      pop\n      pop\n      pop\n      mload(0x40)\n      returndatasize\n      not(0x1f)\n      0x1f\n      dup3\n      add\n      and\n      dup3\n      add\n      dup1\n      0x40\n      mstore\n      pop\n      dup2\n      add\n      swap1\n      tag_66\n      swap2\n      swap1\n      tag_42\n      jump\t// in\n    tag_66:\n        /* \"Offer.sol\":2062:2095  payable(_market.owner()).transfer */\n      0xffffffffffffffffffffffffffffffffffffffff\n      and\n        /* \"Offer.sol\":2062:2125  payable(_market.owner()).transfer(_offers.amount[offerer] / 40) */\n      0x08fc\n        /* \"Offer.sol\":2122:2124  40 */\n      0x28\n        /* \"Offer.sol\":2096:2103  _offers */\n      dup6\n        /* \"Offer.sol\":2096:2110  _offers.amount */\n      0x01\n      add\n        /* \"Offer.sol\":2096:2119  _offers.amount[offerer] */\n      0x00\n        /* \"Offer.sol\":2111:2118  offerer */\n      dup9\n        /* \"Offer.sol\":2096:2119  _offers.amount[offerer] */\n      0xffffffffffffffffffffffffffffffffffffffff\n      and\n      0xffffffffffffffffffffffffffffffffffffffff\n      and\n      dup2\n      mstore\n      0x20\n      add\n      swap1\n      dup2\n      mstore\n      0x20\n      add\n      0x00\n      keccak256\n      sload\n        /* \"Offer.sol\":2096:2124  _offers.amount[offerer] / 40 */\n      tag_67\n      swap2\n      swap1\n      tag_50\n      jump\t// in\n    tag_67:\n        /* \"Offer.sol\":2062:2125  payable(_market.owner()).transfer(_offers.amount[offerer] / 40) */\n      swap1\n      dup2\n      iszero\n      mul\n      swap1\n      mload(0x40)\n      0x00\n      mload(0x40)\n      dup1\n      dup4\n      sub\n      dup2\n      dup6\n      dup9\n      dup9\n      call\n      swap4\n      pop\n      pop\n      pop\n      pop\n      iszero\n      dup1\n      iszero\n      tag_69\n      jumpi\n      returndatasize\n      0x00\n      dup1\n      returndatacopy\n      revert(0x00, returndatasize)\n    tag_69:\n      pop\n        /* \"Offer.sol\":2145:2151  uint i */\n      0x00\n        /* \"Offer.sol\":2140:2522  for (uint i = 0; i < 5; i++) {\r... */\n    tag_70:\n        /* \"Offer.sol\":2161:2162  5 */\n      0x05\n        /* \"Offer.sol\":2157:2158  i */\n      dup2\n        /* \"Offer.sol\":2157:2162  i < 5 */\n      lt\n        /* \"Offer.sol\":2140:2522  for (uint i = 0; i < 5; i++) {\r... */\n      iszero\n      tag_71\n      jumpi\n        /* \"Offer.sol\":2247:2248  0 */\n      0x00\n        /* \"Offer.sol\":2192:2249  _market.getPrevOwner(tokenAddr, tokenId, i) != address(0) */\n      0xffffffffffffffffffffffffffffffffffffffff\n      and\n        /* \"Offer.sol\":2192:2199  _market */\n      dup3\n        /* \"Offer.sol\":2192:2212  _market.getPrevOwner */\n      0xffffffffffffffffffffffffffffffffffffffff\n      and\n      0x2973d6f8\n        /* \"Offer.sol\":2213:2222  tokenAddr */\n      dup10\n        /* \"Offer.sol\":2224:2231  tokenId */\n      dup10\n        /* \"Offer.sol\":2233:2234  i */\n      dup6\n        /* \"Offer.sol\":2192:2235  _market.getPrevOwner(tokenAddr, tokenId, i) */\n      mload(0x40)\n      dup5\n      0xffffffff\n      and\n      0xe0\n      shl\n      dup2\n      mstore\n      0x04\n      add\n      tag_73\n      swap4\n      swap3\n      swap2\n      swap1\n      tag_74\n      jump\t// in\n    tag_73:\n      0x20\n      mload(0x40)\n      dup1\n      dup4\n      sub\n      dup2\n      dup7\n      dup1\n      extcodesize\n      iszero\n      dup1\n      iszero\n      tag_75\n      jumpi\n      0x00\n      dup1\n      revert\n    tag_75:\n      pop\n      gas\n      staticcall\n      iszero\n      dup1\n      iszero\n      tag_77\n      jumpi\n      returndatasize\n      0x00\n      dup1\n      returndatacopy\n      revert(0x00, returndatasize)\n    tag_77:\n      pop\n      pop\n      pop\n      pop\n      mload(0x40)\n      returndatasize\n      not(0x1f)\n      0x1f\n      dup3\n      add\n      and\n      dup3\n      add\n      dup1\n      0x40\n      mstore\n      pop\n      dup2\n      add\n      swap1\n      tag_78\n      swap2\n      swap1\n      tag_42\n      jump\t// in\n    tag_78:\n        /* \"Offer.sol\":2192:2249  _market.getPrevOwner(tokenAddr, tokenId, i) != address(0) */\n      0xffffffffffffffffffffffffffffffffffffffff\n      and\n      eq\n        /* \"Offer.sol\":2188:2507  if (_market.getPrevOwner(tokenAddr, tokenId, i) != address(0)) {\r... */\n      tag_79\n      jumpi\n        /* \"Offer.sol\":2282:2289  _market */\n      dup2\n        /* \"Offer.sol\":2282:2302  _market.getPrevOwner */\n      0xffffffffffffffffffffffffffffffffffffffff\n      and\n      0x2973d6f8\n        /* \"Offer.sol\":2303:2312  tokenAddr */\n      dup9\n        /* \"Offer.sol\":2314:2321  tokenId */\n      dup9\n        /* \"Offer.sol\":2323:2324  i */\n      dup5\n        /* \"Offer.sol\":2282:2325  _market.getPrevOwner(tokenAddr, tokenId, i) */\n      mload(0x40)\n      dup5\n      0xffffffff\n      and\n      0xe0\n      shl\n      dup2\n      mstore\n      0x04\n      add\n      tag_80\n      swap4\n      swap3\n      swap2\n      swap1\n      tag_74\n      jump\t// in\n    tag_80:\n      0x20\n      mload(0x40)\n      dup1\n      dup4\n      sub\n      dup2\n      dup7\n      dup1\n      extcodesize\n      iszero\n      dup1\n      iszero\n      tag_81\n      jumpi\n      0x00\n      dup1\n      revert\n    tag_81:\n      pop\n      gas\n      staticcall\n      iszero\n      dup1\n      iszero\n      tag_83\n      jumpi\n      returndatasize\n      0x00\n      dup1\n      returndatacopy\n      revert(0x00, returndatasize)\n    tag_83:\n      pop\n      pop\n      pop\n      pop\n      mload(0x40)\n      returndatasize\n      not(0x1f)\n      0x1f\n      dup3\n      add\n      and\n      dup3\n      add\n      dup1\n      0x40\n      mstore\n      pop\n      dup2\n      add\n      swap1\n      tag_84\n      swap2\n      swap1\n      tag_42\n      jump\t// in\n    tag_84:\n        /* \"Offer.sol\":2274:2335  payable(_market.getPrevOwner(tokenAddr, tokenId, i)).transfer */\n      0xffffffffffffffffffffffffffffffffffffffff\n      and\n        /* \"Offer.sol\":2274:2416  payable(_market.getPrevOwner(tokenAddr, tokenId, i)).transfer((_offers.amount[offerer] / 40) / _market.getPrevOwnerAmount(tokenAddr, tokenId)) */\n      0x08fc\n        /* \"Offer.sol\":2369:2376  _market */\n      dup4\n        /* \"Offer.sol\":2369:2395  _market.getPrevOwnerAmount */\n      0xffffffffffffffffffffffffffffffffffffffff\n      and\n      0xd178227a\n        /* \"Offer.sol\":2396:2405  tokenAddr */\n      dup11\n        /* \"Offer.sol\":2407:2414  tokenId */\n      dup11\n        /* \"Offer.sol\":2369:2415  _market.getPrevOwnerAmount(tokenAddr, tokenId) */\n      mload(0x40)\n      dup4\n      0xffffffff\n      and\n      0xe0\n      shl\n      dup2\n      mstore\n      0x04\n      add\n      tag_85\n      swap3\n      swap2\n      swap1\n      tag_56\n      jump\t// in\n    tag_85:\n      0x20\n      mload(0x40)\n      dup1\n      dup4\n      sub\n      dup2\n      dup7\n      dup1\n      extcodesize\n      iszero\n      dup1\n      iszero\n      tag_86\n      jumpi\n      0x00\n      dup1\n      revert\n    tag_86:\n      pop\n      gas\n      staticcall\n      iszero\n      dup1\n      iszero\n      tag_88\n      jumpi\n      returndatasize\n      0x00\n      dup1\n      returndatacopy\n      revert(0x00, returndatasize)\n    tag_88:\n      pop\n      pop\n      pop\n      pop\n      mload(0x40)\n      returndatasize\n      not(0x1f)\n      0x1f\n      dup3\n      add\n      and\n      dup3\n      add\n      dup1\n      0x40\n      mstore\n      pop\n      dup2\n      add\n      swap1\n      tag_89\n      swap2\n      swap1\n      tag_61\n      jump\t// in\n    tag_89:\n        /* \"Offer.sol\":2363:2365  40 */\n      0x28\n        /* \"Offer.sol\":2337:2344  _offers */\n      dup8\n        /* \"Offer.sol\":2337:2351  _offers.amount */\n      0x01\n      add\n        /* \"Offer.sol\":2337:2360  _offers.amount[offerer] */\n      0x00\n        /* \"Offer.sol\":2352:2359  offerer */\n      dup11\n        /* \"Offer.sol\":2337:2360  _offers.amount[offerer] */\n      0xffffffffffffffffffffffffffffffffffffffff\n      and\n      0xffffffffffffffffffffffffffffffffffffffff\n      and\n      dup2\n      mstore\n      0x20\n      add\n      swap1\n      dup2\n      mstore\n      0x20\n      add\n      0x00\n      keccak256\n      sload\n        /* \"Offer.sol\":2337:2365  _offers.amount[offerer] / 40 */\n      tag_90\n      swap2\n      swap1\n      tag_50\n      jump\t// in\n    tag_90:\n        /* \"Offer.sol\":2336:2415  (_offers.amount[offerer] / 40) / _market.getPrevOwnerAmount(tokenAddr, tokenId) */\n      tag_91\n      swap2\n      swap1\n      tag_50\n      jump\t// in\n    tag_91:\n        /* \"Offer.sol\":2274:2416  payable(_market.getPrevOwner(tokenAddr, tokenId, i)).transfer((_offers.amount[offerer] / 40) / _market.getPrevOwnerAmount(tokenAddr, tokenId)) */\n      swap1\n      dup2\n      iszero\n      mul\n      swap1\n      mload(0x40)\n      0x00\n      mload(0x40)\n      dup1\n      dup4\n      sub\n      dup2\n      dup6\n      dup9\n      dup9\n      call\n      swap4\n      pop\n      pop\n      pop\n      pop\n      iszero\n      dup1\n      iszero\n      tag_93\n      jumpi\n      returndatasize\n      0x00\n      dup1\n      returndatacopy\n      revert(0x00, returndatasize)\n    tag_93:\n      pop\n        /* \"Offer.sol\":2188:2507  if (_market.getPrevOwner(tokenAddr, tokenId, i) != address(0)) {\r... */\n      jump(tag_94)\n    tag_79:\n        /* \"Offer.sol\":2482:2487  break */\n      jump(tag_71)\n        /* \"Offer.sol\":2188:2507  if (_market.getPrevOwner(tokenAddr, tokenId, i) != address(0)) {\r... */\n    tag_94:\n        /* \"Offer.sol\":2164:2167  i++ */\n      dup1\n      dup1\n      tag_95\n      swap1\n      tag_96\n      jump\t// in\n    tag_95:\n      swap2\n      pop\n      pop\n        /* \"Offer.sol\":2140:2522  for (uint i = 0; i < 5; i++) {\r... */\n      jump(tag_70)\n    tag_71:\n      pop\n        /* \"Offer.sol\":1992:2638  if(_market.getPrevOwnerAmount(tokenAddr, tokenId) > 0) {\r... */\n      jump(tag_97)\n    tag_62:\n        /* \"Offer.sol\":2571:2578  _market */\n      dup1\n        /* \"Offer.sol\":2571:2584  _market.owner */\n      0xffffffffffffffffffffffffffffffffffffffff\n      and\n      0x8da5cb5b\n        /* \"Offer.sol\":2571:2586  _market.owner() */\n      mload(0x40)\n      dup2\n      0xffffffff\n      and\n      0xe0\n      shl\n      dup2\n      mstore\n      0x04\n      add\n      0x20\n      mload(0x40)\n      dup1\n      dup4\n      sub\n      dup2\n      dup7\n      dup1\n      extcodesize\n      iszero\n      dup1\n      iszero\n      tag_98\n      jumpi\n      0x00\n      dup1\n      revert\n    tag_98:\n      pop\n      gas\n      staticcall\n      iszero\n      dup1\n      iszero\n      tag_100\n      jumpi\n      returndatasize\n      0x00\n      dup1\n      returndatacopy\n      revert(0x00, returndatasize)\n    tag_100:\n      pop\n      pop\n      pop\n      pop\n      mload(0x40)\n      returndatasize\n      not(0x1f)\n      0x1f\n      dup3\n      add\n      and\n      dup3\n      add\n      dup1\n      0x40\n      mstore\n      pop\n      dup2\n      add\n      swap1\n      tag_101\n      swap2\n      swap1\n      tag_42\n      jump\t// in\n    tag_101:\n        /* \"Offer.sol\":2563:2596  payable(_market.owner()).transfer */\n      0xffffffffffffffffffffffffffffffffffffffff\n      and\n        /* \"Offer.sol\":2563:2626  payable(_market.owner()).transfer(_offers.amount[offerer] / 20) */\n      0x08fc\n        /* \"Offer.sol\":2623:2625  20 */\n      0x14\n        /* \"Offer.sol\":2597:2604  _offers */\n      dup6\n        /* \"Offer.sol\":2597:2611  _offers.amount */\n      0x01\n      add\n        /* \"Offer.sol\":2597:2620  _offers.amount[offerer] */\n      0x00\n        /* \"Offer.sol\":2612:2619  offerer */\n      dup9\n        /* \"Offer.sol\":2597:2620  _offers.amount[offerer] */\n      0xffffffffffffffffffffffffffffffffffffffff\n      and\n      0xffffffffffffffffffffffffffffffffffffffff\n      and\n      dup2\n      mstore\n      0x20\n      add\n      swap1\n      dup2\n      mstore\n      0x20\n      add\n      0x00\n      keccak256\n      sload\n        /* \"Offer.sol\":2597:2625  _offers.amount[offerer] / 20 */\n      tag_102\n      swap2\n      swap1\n      tag_50\n      jump\t// in\n    tag_102:\n        /* \"Offer.sol\":2563:2626  payable(_market.owner()).transfer(_offers.amount[offerer] / 20) */\n      swap1\n      dup2\n      iszero\n      mul\n      swap1\n      mload(0x40)\n      0x00\n      mload(0x40)\n      dup1\n      dup4\n      sub\n      dup2\n      dup6\n      dup9\n      dup9\n      call\n      swap4\n      pop\n      pop\n      pop\n      pop\n      iszero\n      dup1\n      iszero\n      tag_104\n      jumpi\n      returndatasize\n      0x00\n      dup1\n      returndatacopy\n      revert(0x00, returndatasize)\n    tag_104:\n      pop\n        /* \"Offer.sol\":1992:2638  if(_market.getPrevOwnerAmount(tokenAddr, tokenId) > 0) {\r... */\n    tag_97:\n        /* \"Offer.sol\":2662:2669  _offers */\n      dup3\n        /* \"Offer.sol\":2662:2676  _offers.amount */\n      0x01\n      add\n        /* \"Offer.sol\":2662:2685  _offers.amount[offerer] */\n      0x00\n        /* \"Offer.sol\":2677:2684  offerer */\n      dup6\n        /* \"Offer.sol\":2662:2685  _offers.amount[offerer] */\n      0xffffffffffffffffffffffffffffffffffffffff\n      and\n      0xffffffffffffffffffffffffffffffffffffffff\n      and\n      dup2\n      mstore\n      0x20\n      add\n      swap1\n      dup2\n      mstore\n      0x20\n      add\n      0x00\n      keccak256\n      sload\n        /* \"Offer.sol\":2650:2658  balances */\n      0x01\n      0x00\n        /* \"Offer.sol\":2650:2685  balances -= _offers.amount[offerer] */\n      dup3\n      dup3\n      sload\n      tag_105\n      swap2\n      swap1\n      tag_52\n      jump\t// in\n    tag_105:\n      swap3\n      pop\n      pop\n      dup2\n      swap1\n      sstore\n      pop\n        /* \"Offer.sol\":2698:2712  uint lastIndex */\n      0x00\n        /* \"Offer.sol\":2740:2741  1 */\n      0x01\n        /* \"Offer.sol\":2715:2722  _offers */\n      dup5\n        /* \"Offer.sol\":2715:2730  _offers.offerer */\n      0x00\n      add\n        /* \"Offer.sol\":2715:2737  _offers.offerer.length */\n      dup1\n      sload\n      swap1\n      pop\n        /* \"Offer.sol\":2715:2741  _offers.offerer.length - 1 */\n      tag_106\n      swap2\n      swap1\n      tag_52\n      jump\t// in\n    tag_106:\n        /* \"Offer.sol\":2698:2741  uint lastIndex = _offers.offerer.length - 1 */\n      swap1\n      pop\n        /* \"Offer.sol\":2768:2775  _offers */\n      dup4\n        /* \"Offer.sol\":2768:2783  _offers.offerer */\n      0x00\n      add\n        /* \"Offer.sol\":2784:2793  lastIndex */\n      dup2\n        /* \"Offer.sol\":2768:2794  _offers.offerer[lastIndex] */\n      dup2\n      sload\n      dup2\n      lt\n      tag_107\n      jumpi\n      tag_108\n      tag_109\n      jump\t// in\n    tag_108:\n    tag_107:\n      swap1\n      0x00\n      mstore\n      keccak256(0x00, 0x20)\n      add\n      0x00\n      swap1\n      sload\n      swap1\n      0x0100\n      exp\n      swap1\n      div\n      0xffffffffffffffffffffffffffffffffffffffff\n      and\n        /* \"Offer.sol\":2757:2794  offerer == _offers.offerer[lastIndex] */\n      0xffffffffffffffffffffffffffffffffffffffff\n      and\n        /* \"Offer.sol\":2757:2764  offerer */\n      dup6\n        /* \"Offer.sol\":2757:2794  offerer == _offers.offerer[lastIndex] */\n      0xffffffffffffffffffffffffffffffffffffffff\n      and\n      eq\n        /* \"Offer.sol\":2754:3164  if(offerer == _offers.offerer[lastIndex]) {\r... */\n      iszero\n      tag_111\n      jumpi\n        /* \"Offer.sol\":2811:2818  _offers */\n      dup4\n        /* \"Offer.sol\":2811:2826  _offers.offerer */\n      0x00\n      add\n        /* \"Offer.sol\":2811:2832  _offers.offerer.pop() */\n      dup1\n      sload\n      dup1\n      tag_112\n      jumpi\n      tag_113\n      tag_114\n      jump\t// in\n    tag_113:\n    tag_112:\n      0x01\n      swap1\n      sub\n      dup2\n      dup2\n      swap1\n      0x00\n      mstore\n      keccak256(0x00, 0x20)\n      add\n      exp(0x0100, 0x00)\n      dup2\n      sload\n      swap1\n      0xffffffffffffffffffffffffffffffffffffffff\n      mul\n      not\n      and\n      swap1\n      sstore\n      swap1\n      sstore\n        /* \"Offer.sol\":2754:3164  if(offerer == _offers.offerer[lastIndex]) {\r... */\n      jump(tag_116)\n    tag_111:\n        /* \"Offer.sol\":2878:2884  uint i */\n      0x00\n        /* \"Offer.sol\":2874:3153  for(uint i = 0; i < _offers.offerer.length; i++) {\r... */\n    tag_117:\n        /* \"Offer.sol\":2894:2901  _offers */\n      dup5\n        /* \"Offer.sol\":2894:2909  _offers.offerer */\n      0x00\n      add\n        /* \"Offer.sol\":2894:2916  _offers.offerer.length */\n      dup1\n      sload\n      swap1\n      pop\n        /* \"Offer.sol\":2890:2891  i */\n      dup2\n        /* \"Offer.sol\":2890:2916  i < _offers.offerer.length */\n      lt\n        /* \"Offer.sol\":2874:3153  for(uint i = 0; i < _offers.offerer.length; i++) {\r... */\n      iszero\n      tag_118\n      jumpi\n        /* \"Offer.sol\":2967:2974  offerer */\n      dup6\n        /* \"Offer.sol\":2945:2974  _offers.offerer[i] == offerer */\n      0xffffffffffffffffffffffffffffffffffffffff\n      and\n        /* \"Offer.sol\":2945:2952  _offers */\n      dup6\n        /* \"Offer.sol\":2945:2960  _offers.offerer */\n      0x00\n      add\n        /* \"Offer.sol\":2961:2962  i */\n      dup3\n        /* \"Offer.sol\":2945:2963  _offers.offerer[i] */\n      dup2\n      sload\n      dup2\n      lt\n      tag_120\n      jumpi\n      tag_121\n      tag_109\n      jump\t// in\n    tag_121:\n    tag_120:\n      swap1\n      0x00\n      mstore\n      keccak256(0x00, 0x20)\n      add\n      0x00\n      swap1\n      sload\n      swap1\n      0x0100\n      exp\n      swap1\n      div\n      0xffffffffffffffffffffffffffffffffffffffff\n      and\n        /* \"Offer.sol\":2945:2974  _offers.offerer[i] == offerer */\n      0xffffffffffffffffffffffffffffffffffffffff\n      and\n      eq\n        /* \"Offer.sol\":2942:3138  if(_offers.offerer[i] == offerer) {\r... */\n      iszero\n      tag_123\n      jumpi\n        /* \"Offer.sol\":3020:3027  _offers */\n      dup5\n        /* \"Offer.sol\":3020:3035  _offers.offerer */\n      0x00\n      add\n        /* \"Offer.sol\":3036:3045  lastIndex */\n      dup3\n        /* \"Offer.sol\":3020:3046  _offers.offerer[lastIndex] */\n      dup2\n      sload\n      dup2\n      lt\n      tag_124\n      jumpi\n      tag_125\n      tag_109\n      jump\t// in\n    tag_125:\n    tag_124:\n      swap1\n      0x00\n      mstore\n      keccak256(0x00, 0x20)\n      add\n      0x00\n      swap1\n      sload\n      swap1\n      0x0100\n      exp\n      swap1\n      div\n      0xffffffffffffffffffffffffffffffffffffffff\n      and\n        /* \"Offer.sol\":2999:3006  _offers */\n      dup6\n        /* \"Offer.sol\":2999:3014  _offers.offerer */\n      0x00\n      add\n        /* \"Offer.sol\":3015:3016  i */\n      dup3\n        /* \"Offer.sol\":2999:3017  _offers.offerer[i] */\n      dup2\n      sload\n      dup2\n      lt\n      tag_127\n      jumpi\n      tag_128\n      tag_109\n      jump\t// in\n    tag_128:\n    tag_127:\n      swap1\n      0x00\n      mstore\n      keccak256(0x00, 0x20)\n      add\n      0x00\n        /* \"Offer.sol\":2999:3046  _offers.offerer[i] = _offers.offerer[lastIndex] */\n      0x0100\n      exp\n      dup2\n      sload\n      dup2\n      0xffffffffffffffffffffffffffffffffffffffff\n      mul\n      not\n      and\n      swap1\n      dup4\n      0xffffffffffffffffffffffffffffffffffffffff\n      and\n      mul\n      or\n      swap1\n      sstore\n      pop\n        /* \"Offer.sol\":3069:3076  _offers */\n      dup5\n        /* \"Offer.sol\":3069:3084  _offers.offerer */\n      0x00\n      add\n        /* \"Offer.sol\":3069:3090  _offers.offerer.pop() */\n      dup1\n      sload\n      dup1\n      tag_130\n      jumpi\n      tag_131\n      tag_114\n      jump\t// in\n    tag_131:\n    tag_130:\n      0x01\n      swap1\n      sub\n      dup2\n      dup2\n      swap1\n      0x00\n      mstore\n      keccak256(0x00, 0x20)\n      add\n      exp(0x0100, 0x00)\n      dup2\n      sload\n      swap1\n      0xffffffffffffffffffffffffffffffffffffffff\n      mul\n      not\n      and\n      swap1\n      sstore\n      swap1\n      sstore\n        /* \"Offer.sol\":3113:3118  break */\n      jump(tag_118)\n        /* \"Offer.sol\":2942:3138  if(_offers.offerer[i] == offerer) {\r... */\n    tag_123:\n        /* \"Offer.sol\":2918:2921  i++ */\n      dup1\n      dup1\n      tag_133\n      swap1\n      tag_96\n      jump\t// in\n    tag_133:\n      swap2\n      pop\n      pop\n        /* \"Offer.sol\":2874:3153  for(uint i = 0; i < _offers.offerer.length; i++) {\r... */\n      jump(tag_117)\n    tag_118:\n      pop\n        /* \"Offer.sol\":2754:3164  if(offerer == _offers.offerer[lastIndex]) {\r... */\n    tag_116:\n        /* \"Offer.sol\":3205:3206  0 */\n      0x00\n        /* \"Offer.sol\":3179:3186  _offers */\n      dup5\n        /* \"Offer.sol\":3179:3194  _offers.offerer */\n      0x00\n      add\n        /* \"Offer.sol\":3179:3201  _offers.offerer.length */\n      dup1\n      sload\n      swap1\n      pop\n        /* \"Offer.sol\":3179:3206  _offers.offerer.length <= 0 */\n      gt\n        /* \"Offer.sol\":3176:3258  if(_offers.offerer.length <= 0) {\r... */\n      tag_134\n      jumpi\n        /* \"Offer.sol\":3241:3246  false */\n      0x00\n        /* \"Offer.sol\":3223:3230  _offers */\n      dup5\n        /* \"Offer.sol\":3223:3238  _offers.isOffer */\n      0x02\n      add\n      0x00\n        /* \"Offer.sol\":3223:3246  _offers.isOffer = false */\n      0x0100\n      exp\n      dup2\n      sload\n      dup2\n      0xff\n      mul\n      not\n      and\n      swap1\n      dup4\n      iszero\n      iszero\n      mul\n      or\n      swap1\n      sstore\n      pop\n        /* \"Offer.sol\":3176:3258  if(_offers.offerer.length <= 0) {\r... */\n    tag_134:\n        /* \"Offer.sol\":3270:3275  token */\n      dup3\n        /* \"Offer.sol\":3270:3292  token.safeTransferFrom */\n      0xffffffffffffffffffffffffffffffffffffffff\n      and\n      0xb88d4fde\n        /* \"Offer.sol\":3293:3303  msg.sender */\n      caller\n        /* \"Offer.sol\":3305:3312  offerer */\n      dup8\n        /* \"Offer.sol\":3314:3321  tokenId */\n      dup10\n        /* \"Offer.sol\":3270:3326  token.safeTransferFrom(msg.sender, offerer, tokenId, \"\") */\n      mload(0x40)\n      dup5\n      0xffffffff\n      and\n      0xe0\n      shl\n      dup2\n      mstore\n      0x04\n      add\n      tag_135\n      swap4\n      swap3\n      swap2\n      swap1\n      tag_136\n      jump\t// in\n    tag_135:\n      0x00\n      mload(0x40)\n      dup1\n      dup4\n      sub\n      dup2\n      0x00\n      dup8\n      dup1\n      extcodesize\n      iszero\n      dup1\n      iszero\n      tag_137\n      jumpi\n      0x00\n      dup1\n      revert\n    tag_137:\n      pop\n      gas\n      call\n      iszero\n      dup1\n      iszero\n      tag_139\n      jumpi\n      returndatasize\n      0x00\n      dup1\n      returndatacopy\n      revert(0x00, returndatasize)\n    tag_139:\n      pop\n      pop\n      pop\n      pop\n        /* \"Offer.sol\":3367:3374  tokenId */\n      dup6\n        /* \"Offer.sol\":3356:3365  tokenAddr */\n      dup8\n        /* \"Offer.sol\":3344:3382  SubmitEvent(tokenAddr, tokenId, false) */\n      0xffffffffffffffffffffffffffffffffffffffff\n      and\n      0x9663db6e9b1f015a82beb1b03ec8fed9d1a25b5da31b2cc92c2be9e8c629a80d\n        /* \"Offer.sol\":3376:3381  false */\n      0x00\n        /* \"Offer.sol\":3344:3382  SubmitEvent(tokenAddr, tokenId, false) */\n      mload(0x40)\n      tag_140\n      swap2\n      swap1\n      tag_21\n      jump\t// in\n    tag_140:\n      mload(0x40)\n      dup1\n      swap2\n      sub\n      swap1\n      log3\n        /* \"Offer.sol\":1586:3390  {\r... */\n      pop\n      pop\n      pop\n      pop\n        /* \"Offer.sol\":1481:3390  function submit(address contractAddr, address tokenAddr, uint tokenId, address offerer) external payable {\r... */\n      pop\n      pop\n      pop\n      pop\n      jump\t// out\n        /* \"Offer.sol\":3398:4401  function withdraw(address tokenAddr, uint tokenId) public payable {\r... */\n    tag_28:\n        /* \"Offer.sol\":3475:3497  Offers storage _offers */\n      0x00\n        /* \"Offer.sol\":3500:3506  offers */\n      dup1\n        /* \"Offer.sol\":3500:3517  offers[tokenAddr] */\n      0x00\n        /* \"Offer.sol\":3507:3516  tokenAddr */\n      dup5\n        /* \"Offer.sol\":3500:3517  offers[tokenAddr] */\n      0xffffffffffffffffffffffffffffffffffffffff\n      and\n      0xffffffffffffffffffffffffffffffffffffffff\n      and\n      dup2\n      mstore\n      0x20\n      add\n      swap1\n      dup2\n      mstore\n      0x20\n      add\n      0x00\n      keccak256\n        /* \"Offer.sol\":3500:3526  offers[tokenAddr][tokenId] */\n      0x00\n        /* \"Offer.sol\":3518:3525  tokenId */\n      dup4\n        /* \"Offer.sol\":3500:3526  offers[tokenAddr][tokenId] */\n      dup2\n      mstore\n      0x20\n      add\n      swap1\n      dup2\n      mstore\n      0x20\n      add\n      0x00\n      keccak256\n        /* \"Offer.sol\":3475:3526  Offers storage _offers = offers[tokenAddr][tokenId] */\n      swap1\n      pop\n        /* \"Offer.sol\":3576:3577  0 */\n      0x00\n        /* \"Offer.sol\":3547:3554  _offers */\n      dup2\n        /* \"Offer.sol\":3547:3561  _offers.amount */\n      0x01\n      add\n        /* \"Offer.sol\":3547:3573  _offers.amount[msg.sender] */\n      0x00\n        /* \"Offer.sol\":3562:3572  msg.sender */\n      caller\n        /* \"Offer.sol\":3547:3573  _offers.amount[msg.sender] */\n      0xffffffffffffffffffffffffffffffffffffffff\n      and\n      0xffffffffffffffffffffffffffffffffffffffff\n      and\n      dup2\n      mstore\n      0x20\n      add\n      swap1\n      dup2\n      mstore\n      0x20\n      add\n      0x00\n      keccak256\n      sload\n        /* \"Offer.sol\":3547:3577  _offers.amount[msg.sender] > 0 */\n      gt\n        /* \"Offer.sol\":3539:3593  require(_offers.amount[msg.sender] > 0, \"Offer is 0.\") */\n      tag_142\n      jumpi\n      mload(0x40)\n      0x08c379a000000000000000000000000000000000000000000000000000000000\n      dup2\n      mstore\n      0x04\n      add\n      tag_143\n      swap1\n      tag_144\n      jump\t// in\n    tag_143:\n      mload(0x40)\n      dup1\n      swap2\n      sub\n      swap1\n      revert\n    tag_142:\n        /* \"Offer.sol\":3606:3620  uint lastIndex */\n      0x00\n        /* \"Offer.sol\":3648:3649  1 */\n      0x01\n        /* \"Offer.sol\":3623:3630  _offers */\n      dup3\n        /* \"Offer.sol\":3623:3638  _offers.offerer */\n      0x00\n      add\n        /* \"Offer.sol\":3623:3645  _offers.offerer.length */\n      dup1\n      sload\n      swap1\n      pop\n        /* \"Offer.sol\":3623:3649  _offers.offerer.length - 1 */\n      tag_145\n      swap2\n      swap1\n      tag_52\n      jump\t// in\n    tag_145:\n        /* \"Offer.sol\":3606:3649  uint lastIndex = _offers.offerer.length - 1 */\n      swap1\n      pop\n        /* \"Offer.sol\":3679:3686  _offers */\n      dup2\n        /* \"Offer.sol\":3679:3694  _offers.offerer */\n      0x00\n      add\n        /* \"Offer.sol\":3695:3704  lastIndex */\n      dup2\n        /* \"Offer.sol\":3679:3705  _offers.offerer[lastIndex] */\n      dup2\n      sload\n      dup2\n      lt\n      tag_146\n      jumpi\n      tag_147\n      tag_109\n      jump\t// in\n    tag_147:\n    tag_146:\n      swap1\n      0x00\n      mstore\n      keccak256(0x00, 0x20)\n      add\n      0x00\n      swap1\n      sload\n      swap1\n      0x0100\n      exp\n      swap1\n      div\n      0xffffffffffffffffffffffffffffffffffffffff\n      and\n        /* \"Offer.sol\":3665:3705  msg.sender == _offers.offerer[lastIndex] */\n      0xffffffffffffffffffffffffffffffffffffffff\n      and\n        /* \"Offer.sol\":3665:3675  msg.sender */\n      caller\n        /* \"Offer.sol\":3665:3705  msg.sender == _offers.offerer[lastIndex] */\n      0xffffffffffffffffffffffffffffffffffffffff\n      and\n      eq\n        /* \"Offer.sol\":3662:4078  if(msg.sender == _offers.offerer[lastIndex]) {\r... */\n      iszero\n      tag_149\n      jumpi\n        /* \"Offer.sol\":3722:3729  _offers */\n      dup2\n        /* \"Offer.sol\":3722:3737  _offers.offerer */\n      0x00\n      add\n        /* \"Offer.sol\":3722:3743  _offers.offerer.pop() */\n      dup1\n      sload\n      dup1\n      tag_150\n      jumpi\n      tag_151\n      tag_114\n      jump\t// in\n    tag_151:\n    tag_150:\n      0x01\n      swap1\n      sub\n      dup2\n      dup2\n      swap1\n      0x00\n      mstore\n      keccak256(0x00, 0x20)\n      add\n      exp(0x0100, 0x00)\n      dup2\n      sload\n      swap1\n      0xffffffffffffffffffffffffffffffffffffffff\n      mul\n      not\n      and\n      swap1\n      sstore\n      swap1\n      sstore\n        /* \"Offer.sol\":3662:4078  if(msg.sender == _offers.offerer[lastIndex]) {\r... */\n      jump(tag_153)\n    tag_149:\n        /* \"Offer.sol\":3789:3795  uint i */\n      0x00\n        /* \"Offer.sol\":3785:4067  for(uint i = 0; i < _offers.offerer.length; i++) {\r... */\n    tag_154:\n        /* \"Offer.sol\":3805:3812  _offers */\n      dup3\n        /* \"Offer.sol\":3805:3820  _offers.offerer */\n      0x00\n      add\n        /* \"Offer.sol\":3805:3827  _offers.offerer.length */\n      dup1\n      sload\n      swap1\n      pop\n        /* \"Offer.sol\":3801:3802  i */\n      dup2\n        /* \"Offer.sol\":3801:3827  i < _offers.offerer.length */\n      lt\n        /* \"Offer.sol\":3785:4067  for(uint i = 0; i < _offers.offerer.length; i++) {\r... */\n      iszero\n      tag_155\n      jumpi\n        /* \"Offer.sol\":3878:3888  msg.sender */\n      caller\n        /* \"Offer.sol\":3856:3888  _offers.offerer[i] == msg.sender */\n      0xffffffffffffffffffffffffffffffffffffffff\n      and\n        /* \"Offer.sol\":3856:3863  _offers */\n      dup4\n        /* \"Offer.sol\":3856:3871  _offers.offerer */\n      0x00\n      add\n        /* \"Offer.sol\":3872:3873  i */\n      dup3\n        /* \"Offer.sol\":3856:3874  _offers.offerer[i] */\n      dup2\n      sload\n      dup2\n      lt\n      tag_157\n      jumpi\n      tag_158\n      tag_109\n      jump\t// in\n    tag_158:\n    tag_157:\n      swap1\n      0x00\n      mstore\n      keccak256(0x00, 0x20)\n      add\n      0x00\n      swap1\n      sload\n      swap1\n      0x0100\n      exp\n      swap1\n      div\n      0xffffffffffffffffffffffffffffffffffffffff\n      and\n        /* \"Offer.sol\":3856:3888  _offers.offerer[i] == msg.sender */\n      0xffffffffffffffffffffffffffffffffffffffff\n      and\n      eq\n        /* \"Offer.sol\":3853:4052  if(_offers.offerer[i] == msg.sender) {\r... */\n      iszero\n      tag_160\n      jumpi\n        /* \"Offer.sol\":3934:3941  _offers */\n      dup3\n        /* \"Offer.sol\":3934:3949  _offers.offerer */\n      0x00\n      add\n        /* \"Offer.sol\":3950:3959  lastIndex */\n      dup3\n        /* \"Offer.sol\":3934:3960  _offers.offerer[lastIndex] */\n      dup2\n      sload\n      dup2\n      lt\n      tag_161\n      jumpi\n      tag_162\n      tag_109\n      jump\t// in\n    tag_162:\n    tag_161:\n      swap1\n      0x00\n      mstore\n      keccak256(0x00, 0x20)\n      add\n      0x00\n      swap1\n      sload\n      swap1\n      0x0100\n      exp\n      swap1\n      div\n      0xffffffffffffffffffffffffffffffffffffffff\n      and\n        /* \"Offer.sol\":3913:3920  _offers */\n      dup4\n        /* \"Offer.sol\":3913:3928  _offers.offerer */\n      0x00\n      add\n        /* \"Offer.sol\":3929:3930  i */\n      dup3\n        /* \"Offer.sol\":3913:3931  _offers.offerer[i] */\n      dup2\n      sload\n      dup2\n      lt\n      tag_164\n      jumpi\n      tag_165\n      tag_109\n      jump\t// in\n    tag_165:\n    tag_164:\n      swap1\n      0x00\n      mstore\n      keccak256(0x00, 0x20)\n      add\n      0x00\n        /* \"Offer.sol\":3913:3960  _offers.offerer[i] = _offers.offerer[lastIndex] */\n      0x0100\n      exp\n      dup2\n      sload\n      dup2\n      0xffffffffffffffffffffffffffffffffffffffff\n      mul\n      not\n      and\n      swap1\n      dup4\n      0xffffffffffffffffffffffffffffffffffffffff\n      and\n      mul\n      or\n      swap1\n      sstore\n      pop\n        /* \"Offer.sol\":3983:3990  _offers */\n      dup3\n        /* \"Offer.sol\":3983:3998  _offers.offerer */\n      0x00\n      add\n        /* \"Offer.sol\":3983:4004  _offers.offerer.pop() */\n      dup1\n      sload\n      dup1\n      tag_167\n      jumpi\n      tag_168\n      tag_114\n      jump\t// in\n    tag_168:\n    tag_167:\n      0x01\n      swap1\n      sub\n      dup2\n      dup2\n      swap1\n      0x00\n      mstore\n      keccak256(0x00, 0x20)\n      add\n      exp(0x0100, 0x00)\n      dup2\n      sload\n      swap1\n      0xffffffffffffffffffffffffffffffffffffffff\n      mul\n      not\n      and\n      swap1\n      sstore\n      swap1\n      sstore\n        /* \"Offer.sol\":4027:4032  break */\n      jump(tag_155)\n        /* \"Offer.sol\":3853:4052  if(_offers.offerer[i] == msg.sender) {\r... */\n    tag_160:\n        /* \"Offer.sol\":3829:3832  i++ */\n      dup1\n      dup1\n      tag_170\n      swap1\n      tag_96\n      jump\t// in\n    tag_170:\n      swap2\n      pop\n      pop\n        /* \"Offer.sol\":3785:4067  for(uint i = 0; i < _offers.offerer.length; i++) {\r... */\n      jump(tag_154)\n    tag_155:\n      pop\n        /* \"Offer.sol\":3662:4078  if(msg.sender == _offers.offerer[lastIndex]) {\r... */\n    tag_153:\n        /* \"Offer.sol\":4119:4120  0 */\n      0x00\n        /* \"Offer.sol\":4093:4100  _offers */\n      dup3\n        /* \"Offer.sol\":4093:4108  _offers.offerer */\n      0x00\n      add\n        /* \"Offer.sol\":4093:4115  _offers.offerer.length */\n      dup1\n      sload\n      swap1\n      pop\n        /* \"Offer.sol\":4093:4120  _offers.offerer.length <= 0 */\n      gt\n        /* \"Offer.sol\":4090:4172  if(_offers.offerer.length <= 0) {\r... */\n      tag_171\n      jumpi\n        /* \"Offer.sol\":4155:4160  false */\n      0x00\n        /* \"Offer.sol\":4137:4144  _offers */\n      dup3\n        /* \"Offer.sol\":4137:4152  _offers.isOffer */\n      0x02\n      add\n      0x00\n        /* \"Offer.sol\":4137:4160  _offers.isOffer = false */\n      0x0100\n      exp\n      dup2\n      sload\n      dup2\n      0xff\n      mul\n      not\n      and\n      swap1\n      dup4\n      iszero\n      iszero\n      mul\n      or\n      swap1\n      sstore\n      pop\n        /* \"Offer.sol\":4090:4172  if(_offers.offerer.length <= 0) {\r... */\n    tag_171:\n        /* \"Offer.sol\":4192:4202  msg.sender */\n      caller\n        /* \"Offer.sol\":4184:4212  payable(msg.sender).transfer */\n      0xffffffffffffffffffffffffffffffffffffffff\n      and\n        /* \"Offer.sol\":4184:4240  payable(msg.sender).transfer(_offers.amount[msg.sender]) */\n      0x08fc\n        /* \"Offer.sol\":4213:4220  _offers */\n      dup4\n        /* \"Offer.sol\":4213:4227  _offers.amount */\n      0x01\n      add\n        /* \"Offer.sol\":4213:4239  _offers.amount[msg.sender] */\n      0x00\n        /* \"Offer.sol\":4228:4238  msg.sender */\n      caller\n        /* \"Offer.sol\":4213:4239  _offers.amount[msg.sender] */\n      0xffffffffffffffffffffffffffffffffffffffff\n      and\n      0xffffffffffffffffffffffffffffffffffffffff\n      and\n      dup2\n      mstore\n      0x20\n      add\n      swap1\n      dup2\n      mstore\n      0x20\n      add\n      0x00\n      keccak256\n      sload\n        /* \"Offer.sol\":4184:4240  payable(msg.sender).transfer(_offers.amount[msg.sender]) */\n      swap1\n      dup2\n      iszero\n      mul\n      swap1\n      mload(0x40)\n      0x00\n      mload(0x40)\n      dup1\n      dup4\n      sub\n      dup2\n      dup6\n      dup9\n      dup9\n      call\n      swap4\n      pop\n      pop\n      pop\n      pop\n      iszero\n      dup1\n      iszero\n      tag_173\n      jumpi\n      returndatasize\n      0x00\n      dup1\n      returndatacopy\n      revert(0x00, returndatasize)\n    tag_173:\n      pop\n        /* \"Offer.sol\":4263:4270  _offers */\n      dup2\n        /* \"Offer.sol\":4263:4277  _offers.amount */\n      0x01\n      add\n        /* \"Offer.sol\":4263:4289  _offers.amount[msg.sender] */\n      0x00\n        /* \"Offer.sol\":4278:4288  msg.sender */\n      caller\n        /* \"Offer.sol\":4263:4289  _offers.amount[msg.sender] */\n      0xffffffffffffffffffffffffffffffffffffffff\n      and\n      0xffffffffffffffffffffffffffffffffffffffff\n      and\n      dup2\n      mstore\n      0x20\n      add\n      swap1\n      dup2\n      mstore\n      0x20\n      add\n      0x00\n      keccak256\n      sload\n        /* \"Offer.sol\":4251:4259  balances */\n      0x01\n      0x00\n        /* \"Offer.sol\":4251:4289  balances -= _offers.amount[msg.sender] */\n      dup3\n      dup3\n      sload\n      tag_174\n      swap2\n      swap1\n      tag_52\n      jump\t// in\n    tag_174:\n      swap3\n      pop\n      pop\n      dup2\n      swap1\n      sstore\n      pop\n        /* \"Offer.sol\":4329:4330  0 */\n      0x00\n        /* \"Offer.sol\":4300:4307  _offers */\n      dup3\n        /* \"Offer.sol\":4300:4314  _offers.amount */\n      0x01\n      add\n        /* \"Offer.sol\":4300:4326  _offers.amount[msg.sender] */\n      0x00\n        /* \"Offer.sol\":4315:4325  msg.sender */\n      caller\n        /* \"Offer.sol\":4300:4326  _offers.amount[msg.sender] */\n      0xffffffffffffffffffffffffffffffffffffffff\n      and\n      0xffffffffffffffffffffffffffffffffffffffff\n      and\n      dup2\n      mstore\n      0x20\n      add\n      swap1\n      dup2\n      mstore\n      0x20\n      add\n      0x00\n      keccak256\n        /* \"Offer.sol\":4300:4330  _offers.amount[msg.sender] = 0 */\n      dup2\n      swap1\n      sstore\n      pop\n        /* \"Offer.sol\":4382:4392  msg.sender */\n      caller\n        /* \"Offer.sol\":4348:4393  WithdrawEvent(tokenAddr, tokenId, msg.sender) */\n      0xffffffffffffffffffffffffffffffffffffffff\n      and\n        /* \"Offer.sol\":4373:4380  tokenId */\n      dup4\n        /* \"Offer.sol\":4362:4371  tokenAddr */\n      dup6\n        /* \"Offer.sol\":4348:4393  WithdrawEvent(tokenAddr, tokenId, msg.sender) */\n      0xffffffffffffffffffffffffffffffffffffffff\n      and\n      0x5eee4de26cd3c0f49f086164989c02cd12d97a964804bc188ee593e26fb98186\n      mload(0x40)\n      mload(0x40)\n      dup1\n      swap2\n      sub\n      swap1\n      log4\n        /* \"Offer.sol\":3464:4401  {\r... */\n      pop\n      pop\n        /* \"Offer.sol\":3398:4401  function withdraw(address tokenAddr, uint tokenId) public payable {\r... */\n      pop\n      pop\n      jump\t// out\n        /* \"#utility.yul\":7:146   */\n    tag_176:\n        /* \"#utility.yul\":53:58   */\n      0x00\n        /* \"#utility.yul\":91:97   */\n      dup2\n        /* \"#utility.yul\":78:98   */\n      calldataload\n        /* \"#utility.yul\":69:98   */\n      swap1\n      pop\n        /* \"#utility.yul\":107:140   */\n      tag_178\n        /* \"#utility.yul\":134:139   */\n      dup2\n        /* \"#utility.yul\":107:140   */\n      tag_179\n      jump\t// in\n    tag_178:\n        /* \"#utility.yul\":7:146   */\n      swap3\n      swap2\n      pop\n      pop\n      jump\t// out\n        /* \"#utility.yul\":152:295   */\n    tag_180:\n        /* \"#utility.yul\":209:214   */\n      0x00\n        /* \"#utility.yul\":240:246   */\n      dup2\n        /* \"#utility.yul\":234:247   */\n      mload\n        /* \"#utility.yul\":225:247   */\n      swap1\n      pop\n        /* \"#utility.yul\":256:289   */\n      tag_182\n        /* \"#utility.yul\":283:288   */\n      dup2\n        /* \"#utility.yul\":256:289   */\n      tag_179\n      jump\t// in\n    tag_182:\n        /* \"#utility.yul\":152:295   */\n      swap3\n      swap2\n      pop\n      pop\n      jump\t// out\n        /* \"#utility.yul\":301:440   */\n    tag_183:\n        /* \"#utility.yul\":347:352   */\n      0x00\n        /* \"#utility.yul\":385:391   */\n      dup2\n        /* \"#utility.yul\":372:392   */\n      calldataload\n        /* \"#utility.yul\":363:392   */\n      swap1\n      pop\n        /* \"#utility.yul\":401:434   */\n      tag_185\n        /* \"#utility.yul\":428:433   */\n      dup2\n        /* \"#utility.yul\":401:434   */\n      tag_186\n      jump\t// in\n    tag_185:\n        /* \"#utility.yul\":301:440   */\n      swap3\n      swap2\n      pop\n      pop\n      jump\t// out\n        /* \"#utility.yul\":446:589   */\n    tag_187:\n        /* \"#utility.yul\":503:508   */\n      0x00\n        /* \"#utility.yul\":534:540   */\n      dup2\n        /* \"#utility.yul\":528:541   */\n      mload\n        /* \"#utility.yul\":519:541   */\n      swap1\n      pop\n        /* \"#utility.yul\":550:583   */\n      tag_189\n        /* \"#utility.yul\":577:582   */\n      dup2\n        /* \"#utility.yul\":550:583   */\n      tag_186\n      jump\t// in\n    tag_189:\n        /* \"#utility.yul\":446:589   */\n      swap3\n      swap2\n      pop\n      pop\n      jump\t// out\n        /* \"#utility.yul\":595:946   */\n    tag_42:\n        /* \"#utility.yul\":665:671   */\n      0x00\n        /* \"#utility.yul\":714:716   */\n      0x20\n        /* \"#utility.yul\":702:711   */\n      dup3\n        /* \"#utility.yul\":693:700   */\n      dup5\n        /* \"#utility.yul\":689:712   */\n      sub\n        /* \"#utility.yul\":685:717   */\n      slt\n        /* \"#utility.yul\":682:801   */\n      iszero\n      tag_191\n      jumpi\n        /* \"#utility.yul\":720:799   */\n      tag_192\n      tag_193\n      jump\t// in\n    tag_192:\n        /* \"#utility.yul\":682:801   */\n    tag_191:\n        /* \"#utility.yul\":840:841   */\n      0x00\n        /* \"#utility.yul\":865:929   */\n      tag_194\n        /* \"#utility.yul\":921:928   */\n      dup5\n        /* \"#utility.yul\":912:918   */\n      dup3\n        /* \"#utility.yul\":901:910   */\n      dup6\n        /* \"#utility.yul\":897:919   */\n      add\n        /* \"#utility.yul\":865:929   */\n      tag_180\n      jump\t// in\n    tag_194:\n        /* \"#utility.yul\":855:929   */\n      swap2\n      pop\n        /* \"#utility.yul\":811:939   */\n      pop\n        /* \"#utility.yul\":595:946   */\n      swap3\n      swap2\n      pop\n      pop\n      jump\t// out\n        /* \"#utility.yul\":952:1717   */\n    tag_24:\n        /* \"#utility.yul\":1038:1044   */\n      0x00\n        /* \"#utility.yul\":1046:1052   */\n      dup1\n        /* \"#utility.yul\":1054:1060   */\n      0x00\n        /* \"#utility.yul\":1062:1068   */\n      dup1\n        /* \"#utility.yul\":1111:1114   */\n      0x80\n        /* \"#utility.yul\":1099:1108   */\n      dup6\n        /* \"#utility.yul\":1090:1097   */\n      dup8\n        /* \"#utility.yul\":1086:1109   */\n      sub\n        /* \"#utility.yul\":1082:1115   */\n      slt\n        /* \"#utility.yul\":1079:1199   */\n      iszero\n      tag_196\n      jumpi\n        /* \"#utility.yul\":1118:1197   */\n      tag_197\n      tag_193\n      jump\t// in\n    tag_197:\n        /* \"#utility.yul\":1079:1199   */\n    tag_196:\n        /* \"#utility.yul\":1238:1239   */\n      0x00\n        /* \"#utility.yul\":1263:1316   */\n      tag_198\n        /* \"#utility.yul\":1308:1315   */\n      dup8\n        /* \"#utility.yul\":1299:1305   */\n      dup3\n        /* \"#utility.yul\":1288:1297   */\n      dup9\n        /* \"#utility.yul\":1284:1306   */\n      add\n        /* \"#utility.yul\":1263:1316   */\n      tag_176\n      jump\t// in\n    tag_198:\n        /* \"#utility.yul\":1253:1316   */\n      swap5\n      pop\n        /* \"#utility.yul\":1209:1326   */\n      pop\n        /* \"#utility.yul\":1365:1367   */\n      0x20\n        /* \"#utility.yul\":1391:1444   */\n      tag_199\n        /* \"#utility.yul\":1436:1443   */\n      dup8\n        /* \"#utility.yul\":1427:1433   */\n      dup3\n        /* \"#utility.yul\":1416:1425   */\n      dup9\n        /* \"#utility.yul\":1412:1434   */\n      add\n        /* \"#utility.yul\":1391:1444   */\n      tag_176\n      jump\t// in\n    tag_199:\n        /* \"#utility.yul\":1381:1444   */\n      swap4\n      pop\n        /* \"#utility.yul\":1336:1454   */\n      pop\n        /* \"#utility.yul\":1493:1495   */\n      0x40\n        /* \"#utility.yul\":1519:1572   */\n      tag_200\n        /* \"#utility.yul\":1564:1571   */\n      dup8\n        /* \"#utility.yul\":1555:1561   */\n      dup3\n        /* \"#utility.yul\":1544:1553   */\n      dup9\n        /* \"#utility.yul\":1540:1562   */\n      add\n        /* \"#utility.yul\":1519:1572   */\n      tag_183\n      jump\t// in\n    tag_200:\n        /* \"#utility.yul\":1509:1572   */\n      swap3\n      pop\n        /* \"#utility.yul\":1464:1582   */\n      pop\n        /* \"#utility.yul\":1621:1623   */\n      0x60\n        /* \"#utility.yul\":1647:1700   */\n      tag_201\n        /* \"#utility.yul\":1692:1699   */\n      dup8\n        /* \"#utility.yul\":1683:1689   */\n      dup3\n        /* \"#utility.yul\":1672:1681   */\n      dup9\n        /* \"#utility.yul\":1668:1690   */\n      add\n        /* \"#utility.yul\":1647:1700   */\n      tag_176\n      jump\t// in\n    tag_201:\n        /* \"#utility.yul\":1637:1700   */\n      swap2\n      pop\n        /* \"#utility.yul\":1592:1710   */\n      pop\n        /* \"#utility.yul\":952:1717   */\n      swap3\n      swap6\n      swap2\n      swap5\n      pop\n      swap3\n      pop\n      jump\t// out\n        /* \"#utility.yul\":1723:2197   */\n    tag_9:\n        /* \"#utility.yul\":1791:1797   */\n      0x00\n        /* \"#utility.yul\":1799:1805   */\n      dup1\n        /* \"#utility.yul\":1848:1850   */\n      0x40\n        /* \"#utility.yul\":1836:1845   */\n      dup4\n        /* \"#utility.yul\":1827:1834   */\n      dup6\n        /* \"#utility.yul\":1823:1846   */\n      sub\n        /* \"#utility.yul\":1819:1851   */\n      slt\n        /* \"#utility.yul\":1816:1935   */\n      iszero\n      tag_203\n      jumpi\n        /* \"#utility.yul\":1854:1933   */\n      tag_204\n      tag_193\n      jump\t// in\n    tag_204:\n        /* \"#utility.yul\":1816:1935   */\n    tag_203:\n        /* \"#utility.yul\":1974:1975   */\n      0x00\n        /* \"#utility.yul\":1999:2052   */\n      tag_205\n        /* \"#utility.yul\":2044:2051   */\n      dup6\n        /* \"#utility.yul\":2035:2041   */\n      dup3\n        /* \"#utility.yul\":2024:2033   */\n      dup7\n        /* \"#utility.yul\":2020:2042   */\n      add\n        /* \"#utility.yul\":1999:2052   */\n      tag_176\n      jump\t// in\n    tag_205:\n        /* \"#utility.yul\":1989:2052   */\n      swap3\n      pop\n        /* \"#utility.yul\":1945:2062   */\n      pop\n        /* \"#utility.yul\":2101:2103   */\n      0x20\n        /* \"#utility.yul\":2127:2180   */\n      tag_206\n        /* \"#utility.yul\":2172:2179   */\n      dup6\n        /* \"#utility.yul\":2163:2169   */\n      dup3\n        /* \"#utility.yul\":2152:2161   */\n      dup7\n        /* \"#utility.yul\":2148:2170   */\n      add\n        /* \"#utility.yul\":2127:2180   */\n      tag_183\n      jump\t// in\n    tag_206:\n        /* \"#utility.yul\":2117:2180   */\n      swap2\n      pop\n        /* \"#utility.yul\":2072:2190   */\n      pop\n        /* \"#utility.yul\":1723:2197   */\n      swap3\n      pop\n      swap3\n      swap1\n      pop\n      jump\t// out\n        /* \"#utility.yul\":2203:2554   */\n    tag_61:\n        /* \"#utility.yul\":2273:2279   */\n      0x00\n        /* \"#utility.yul\":2322:2324   */\n      0x20\n        /* \"#utility.yul\":2310:2319   */\n      dup3\n        /* \"#utility.yul\":2301:2308   */\n      dup5\n        /* \"#utility.yul\":2297:2320   */\n      sub\n        /* \"#utility.yul\":2293:2325   */\n      slt\n        /* \"#utility.yul\":2290:2409   */\n      iszero\n      tag_208\n      jumpi\n        /* \"#utility.yul\":2328:2407   */\n      tag_209\n      tag_193\n      jump\t// in\n    tag_209:\n        /* \"#utility.yul\":2290:2409   */\n    tag_208:\n        /* \"#utility.yul\":2448:2449   */\n      0x00\n        /* \"#utility.yul\":2473:2537   */\n      tag_210\n        /* \"#utility.yul\":2529:2536   */\n      dup5\n        /* \"#utility.yul\":2520:2526   */\n      dup3\n        /* \"#utility.yul\":2509:2518   */\n      dup6\n        /* \"#utility.yul\":2505:2527   */\n      add\n        /* \"#utility.yul\":2473:2537   */\n      tag_187\n      jump\t// in\n    tag_210:\n        /* \"#utility.yul\":2463:2537   */\n      swap2\n      pop\n        /* \"#utility.yul\":2419:2547   */\n      pop\n        /* \"#utility.yul\":2203:2554   */\n      swap3\n      swap2\n      pop\n      pop\n      jump\t// out\n        /* \"#utility.yul\":2560:2678   */\n    tag_211:\n        /* \"#utility.yul\":2647:2671   */\n      tag_213\n        /* \"#utility.yul\":2665:2670   */\n      dup2\n        /* \"#utility.yul\":2647:2671   */\n      tag_214\n      jump\t// in\n    tag_213:\n        /* \"#utility.yul\":2642:2645   */\n      dup3\n        /* \"#utility.yul\":2635:2672   */\n      mstore\n        /* \"#utility.yul\":2560:2678   */\n      pop\n      pop\n      jump\t// out\n        /* \"#utility.yul\":2684:2793   */\n    tag_215:\n        /* \"#utility.yul\":2765:2786   */\n      tag_217\n        /* \"#utility.yul\":2780:2785   */\n      dup2\n        /* \"#utility.yul\":2765:2786   */\n      tag_218\n      jump\t// in\n    tag_217:\n        /* \"#utility.yul\":2760:2763   */\n      dup3\n        /* \"#utility.yul\":2753:2787   */\n      mstore\n        /* \"#utility.yul\":2684:2793   */\n      pop\n      pop\n      jump\t// out\n        /* \"#utility.yul\":2799:3165   */\n    tag_219:\n        /* \"#utility.yul\":2941:2944   */\n      0x00\n        /* \"#utility.yul\":2962:3029   */\n      tag_221\n        /* \"#utility.yul\":3026:3028   */\n      0x0b\n        /* \"#utility.yul\":3021:3024   */\n      dup4\n        /* \"#utility.yul\":2962:3029   */\n      tag_222\n      jump\t// in\n    tag_221:\n        /* \"#utility.yul\":2955:3029   */\n      swap2\n      pop\n        /* \"#utility.yul\":3038:3131   */\n      tag_223\n        /* \"#utility.yul\":3127:3130   */\n      dup3\n        /* \"#utility.yul\":3038:3131   */\n      tag_224\n      jump\t// in\n    tag_223:\n        /* \"#utility.yul\":3156:3158   */\n      0x20\n        /* \"#utility.yul\":3151:3154   */\n      dup3\n        /* \"#utility.yul\":3147:3159   */\n      add\n        /* \"#utility.yul\":3140:3159   */\n      swap1\n      pop\n        /* \"#utility.yul\":2799:3165   */\n      swap2\n      swap1\n      pop\n      jump\t// out\n        /* \"#utility.yul\":3171:3537   */\n    tag_225:\n        /* \"#utility.yul\":3313:3316   */\n      0x00\n        /* \"#utility.yul\":3334:3401   */\n      tag_227\n        /* \"#utility.yul\":3398:3400   */\n      0x0d\n        /* \"#utility.yul\":3393:3396   */\n      dup4\n        /* \"#utility.yul\":3334:3401   */\n      tag_222\n      jump\t// in\n    tag_227:\n        /* \"#utility.yul\":3327:3401   */\n      swap2\n      pop\n        /* \"#utility.yul\":3410:3503   */\n      tag_228\n        /* \"#utility.yul\":3499:3502   */\n      dup3\n        /* \"#utility.yul\":3410:3503   */\n      tag_229\n      jump\t// in\n    tag_228:\n        /* \"#utility.yul\":3528:3530   */\n      0x20\n        /* \"#utility.yul\":3523:3526   */\n      dup3\n        /* \"#utility.yul\":3519:3531   */\n      add\n        /* \"#utility.yul\":3512:3531   */\n      swap1\n      pop\n        /* \"#utility.yul\":3171:3537   */\n      swap2\n      swap1\n      pop\n      jump\t// out\n        /* \"#utility.yul\":3543:3908   */\n    tag_230:\n        /* \"#utility.yul\":3685:3688   */\n      0x00\n        /* \"#utility.yul\":3706:3772   */\n      tag_232\n        /* \"#utility.yul\":3770:3771   */\n      0x09\n        /* \"#utility.yul\":3765:3768   */\n      dup4\n        /* \"#utility.yul\":3706:3772   */\n      tag_222\n      jump\t// in\n    tag_232:\n        /* \"#utility.yul\":3699:3772   */\n      swap2\n      pop\n        /* \"#utility.yul\":3781:3874   */\n      tag_233\n        /* \"#utility.yul\":3870:3873   */\n      dup3\n        /* \"#utility.yul\":3781:3874   */\n      tag_234\n      jump\t// in\n    tag_233:\n        /* \"#utility.yul\":3899:3901   */\n      0x20\n        /* \"#utility.yul\":3894:3897   */\n      dup3\n        /* \"#utility.yul\":3890:3902   */\n      add\n        /* \"#utility.yul\":3883:3902   */\n      swap1\n      pop\n        /* \"#utility.yul\":3543:3908   */\n      swap2\n      swap1\n      pop\n      jump\t// out\n        /* \"#utility.yul\":3914:4276   */\n    tag_235:\n        /* \"#utility.yul\":4055:4058   */\n      0x00\n        /* \"#utility.yul\":4076:4141   */\n      tag_237\n        /* \"#utility.yul\":4139:4140   */\n      0x00\n        /* \"#utility.yul\":4134:4137   */\n      dup4\n        /* \"#utility.yul\":4076:4141   */\n      tag_238\n      jump\t// in\n    tag_237:\n        /* \"#utility.yul\":4069:4141   */\n      swap2\n      pop\n        /* \"#utility.yul\":4150:4243   */\n      tag_239\n        /* \"#utility.yul\":4239:4242   */\n      dup3\n        /* \"#utility.yul\":4150:4243   */\n      tag_240\n      jump\t// in\n    tag_239:\n        /* \"#utility.yul\":4268:4269   */\n      0x00\n        /* \"#utility.yul\":4263:4266   */\n      dup3\n        /* \"#utility.yul\":4259:4270   */\n      add\n        /* \"#utility.yul\":4252:4270   */\n      swap1\n      pop\n        /* \"#utility.yul\":3914:4276   */\n      swap2\n      swap1\n      pop\n      jump\t// out\n        /* \"#utility.yul\":4282:4400   */\n    tag_241:\n        /* \"#utility.yul\":4369:4393   */\n      tag_243\n        /* \"#utility.yul\":4387:4392   */\n      dup2\n        /* \"#utility.yul\":4369:4393   */\n      tag_244\n      jump\t// in\n    tag_243:\n        /* \"#utility.yul\":4364:4367   */\n      dup3\n        /* \"#utility.yul\":4357:4394   */\n      mstore\n        /* \"#utility.yul\":4282:4400   */\n      pop\n      pop\n      jump\t// out\n        /* \"#utility.yul\":4406:5154   */\n    tag_136:\n        /* \"#utility.yul\":4655:4659   */\n      0x00\n        /* \"#utility.yul\":4693:4696   */\n      0x80\n        /* \"#utility.yul\":4682:4691   */\n      dup3\n        /* \"#utility.yul\":4678:4697   */\n      add\n        /* \"#utility.yul\":4670:4697   */\n      swap1\n      pop\n        /* \"#utility.yul\":4707:4778   */\n      tag_246\n        /* \"#utility.yul\":4775:4776   */\n      0x00\n        /* \"#utility.yul\":4764:4773   */\n      dup4\n        /* \"#utility.yul\":4760:4777   */\n      add\n        /* \"#utility.yul\":4751:4757   */\n      dup7\n        /* \"#utility.yul\":4707:4778   */\n      tag_211\n      jump\t// in\n    tag_246:\n        /* \"#utility.yul\":4788:4860   */\n      tag_247\n        /* \"#utility.yul\":4856:4858   */\n      0x20\n        /* \"#utility.yul\":4845:4854   */\n      dup4\n        /* \"#utility.yul\":4841:4859   */\n      add\n        /* \"#utility.yul\":4832:4838   */\n      dup6\n        /* \"#utility.yul\":4788:4860   */\n      tag_211\n      jump\t// in\n    tag_247:\n        /* \"#utility.yul\":4870:4942   */\n      tag_248\n        /* \"#utility.yul\":4938:4940   */\n      0x40\n        /* \"#utility.yul\":4927:4936   */\n      dup4\n        /* \"#utility.yul\":4923:4941   */\n      add\n        /* \"#utility.yul\":4914:4920   */\n      dup5\n        /* \"#utility.yul\":4870:4942   */\n      tag_241\n      jump\t// in\n    tag_248:\n        /* \"#utility.yul\":4989:4998   */\n      dup2\n        /* \"#utility.yul\":4983:4987   */\n      dup2\n        /* \"#utility.yul\":4979:4999   */\n      sub\n        /* \"#utility.yul\":4974:4976   */\n      0x60\n        /* \"#utility.yul\":4963:4972   */\n      dup4\n        /* \"#utility.yul\":4959:4977   */\n      add\n        /* \"#utility.yul\":4952:5000   */\n      mstore\n        /* \"#utility.yul\":5017:5147   */\n      tag_249\n        /* \"#utility.yul\":5142:5146   */\n      dup2\n        /* \"#utility.yul\":5017:5147   */\n      tag_235\n      jump\t// in\n    tag_249:\n        /* \"#utility.yul\":5009:5147   */\n      swap1\n      pop\n        /* \"#utility.yul\":4406:5154   */\n      swap5\n      swap4\n      pop\n      pop\n      pop\n      pop\n      jump\t// out\n        /* \"#utility.yul\":5160:5492   */\n    tag_56:\n        /* \"#utility.yul\":5281:5285   */\n      0x00\n        /* \"#utility.yul\":5319:5321   */\n      0x40\n        /* \"#utility.yul\":5308:5317   */\n      dup3\n        /* \"#utility.yul\":5304:5322   */\n      add\n        /* \"#utility.yul\":5296:5322   */\n      swap1\n      pop\n        /* \"#utility.yul\":5332:5403   */\n      tag_251\n        /* \"#utility.yul\":5400:5401   */\n      0x00\n        /* \"#utility.yul\":5389:5398   */\n      dup4\n        /* \"#utility.yul\":5385:5402   */\n      add\n        /* \"#utility.yul\":5376:5382   */\n      dup6\n        /* \"#utility.yul\":5332:5403   */\n      tag_211\n      jump\t// in\n    tag_251:\n        /* \"#utility.yul\":5413:5485   */\n      tag_252\n        /* \"#utility.yul\":5481:5483   */\n      0x20\n        /* \"#utility.yul\":5470:5479   */\n      dup4\n        /* \"#utility.yul\":5466:5484   */\n      add\n        /* \"#utility.yul\":5457:5463   */\n      dup5\n        /* \"#utility.yul\":5413:5485   */\n      tag_241\n      jump\t// in\n    tag_252:\n        /* \"#utility.yul\":5160:5492   */\n      swap4\n      swap3\n      pop\n      pop\n      pop\n      jump\t// out\n        /* \"#utility.yul\":5498:5940   */\n    tag_74:\n        /* \"#utility.yul\":5647:5651   */\n      0x00\n        /* \"#utility.yul\":5685:5687   */\n      0x60\n        /* \"#utility.yul\":5674:5683   */\n      dup3\n        /* \"#utility.yul\":5670:5688   */\n      add\n        /* \"#utility.yul\":5662:5688   */\n      swap1\n      pop\n        /* \"#utility.yul\":5698:5769   */\n      tag_254\n        /* \"#utility.yul\":5766:5767   */\n      0x00\n        /* \"#utility.yul\":5755:5764   */\n      dup4\n        /* \"#utility.yul\":5751:5768   */\n      add\n        /* \"#utility.yul\":5742:5748   */\n      dup7\n        /* \"#utility.yul\":5698:5769   */\n      tag_211\n      jump\t// in\n    tag_254:\n        /* \"#utility.yul\":5779:5851   */\n      tag_255\n        /* \"#utility.yul\":5847:5849   */\n      0x20\n        /* \"#utility.yul\":5836:5845   */\n      dup4\n        /* \"#utility.yul\":5832:5850   */\n      add\n        /* \"#utility.yul\":5823:5829   */\n      dup6\n        /* \"#utility.yul\":5779:5851   */\n      tag_241\n      jump\t// in\n    tag_255:\n        /* \"#utility.yul\":5861:5933   */\n      tag_256\n        /* \"#utility.yul\":5929:5931   */\n      0x40\n        /* \"#utility.yul\":5918:5927   */\n      dup4\n        /* \"#utility.yul\":5914:5932   */\n      add\n        /* \"#utility.yul\":5905:5911   */\n      dup5\n        /* \"#utility.yul\":5861:5933   */\n      tag_241\n      jump\t// in\n    tag_256:\n        /* \"#utility.yul\":5498:5940   */\n      swap5\n      swap4\n      pop\n      pop\n      pop\n      pop\n      jump\t// out\n        /* \"#utility.yul\":5946:6156   */\n    tag_21:\n        /* \"#utility.yul\":6033:6037   */\n      0x00\n        /* \"#utility.yul\":6071:6073   */\n      0x20\n        /* \"#utility.yul\":6060:6069   */\n      dup3\n        /* \"#utility.yul\":6056:6074   */\n      add\n        /* \"#utility.yul\":6048:6074   */\n      swap1\n      pop\n        /* \"#utility.yul\":6084:6149   */\n      tag_258\n        /* \"#utility.yul\":6146:6147   */\n      0x00\n        /* \"#utility.yul\":6135:6144   */\n      dup4\n        /* \"#utility.yul\":6131:6148   */\n      add\n        /* \"#utility.yul\":6122:6128   */\n      dup5\n        /* \"#utility.yul\":6084:6149   */\n      tag_215\n      jump\t// in\n    tag_258:\n        /* \"#utility.yul\":5946:6156   */\n      swap3\n      swap2\n      pop\n      pop\n      jump\t// out\n        /* \"#utility.yul\":6162:6581   */\n    tag_144:\n        /* \"#utility.yul\":6328:6332   */\n      0x00\n        /* \"#utility.yul\":6366:6368   */\n      0x20\n        /* \"#utility.yul\":6355:6364   */\n      dup3\n        /* \"#utility.yul\":6351:6369   */\n      add\n        /* \"#utility.yul\":6343:6369   */\n      swap1\n      pop\n        /* \"#utility.yul\":6415:6424   */\n      dup2\n        /* \"#utility.yul\":6409:6413   */\n      dup2\n        /* \"#utility.yul\":6405:6425   */\n      sub\n        /* \"#utility.yul\":6401:6402   */\n      0x00\n        /* \"#utility.yul\":6390:6399   */\n      dup4\n        /* \"#utility.yul\":6386:6403   */\n      add\n        /* \"#utility.yul\":6379:6426   */\n      mstore\n        /* \"#utility.yul\":6443:6574   */\n      tag_260\n        /* \"#utility.yul\":6569:6573   */\n      dup2\n        /* \"#utility.yul\":6443:6574   */\n      tag_219\n      jump\t// in\n    tag_260:\n        /* \"#utility.yul\":6435:6574   */\n      swap1\n      pop\n        /* \"#utility.yul\":6162:6581   */\n      swap2\n      swap1\n      pop\n      jump\t// out\n        /* \"#utility.yul\":6587:7006   */\n    tag_45:\n        /* \"#utility.yul\":6753:6757   */\n      0x00\n        /* \"#utility.yul\":6791:6793   */\n      0x20\n        /* \"#utility.yul\":6780:6789   */\n      dup3\n        /* \"#utility.yul\":6776:6794   */\n      add\n        /* \"#utility.yul\":6768:6794   */\n      swap1\n      pop\n        /* \"#utility.yul\":6840:6849   */\n      dup2\n        /* \"#utility.yul\":6834:6838   */\n      dup2\n        /* \"#utility.yul\":6830:6850   */\n      sub\n        /* \"#utility.yul\":6826:6827   */\n      0x00\n        /* \"#utility.yul\":6815:6824   */\n      dup4\n        /* \"#utility.yul\":6811:6828   */\n      add\n        /* \"#utility.yul\":6804:6851   */\n      mstore\n        /* \"#utility.yul\":6868:6999   */\n      tag_262\n        /* \"#utility.yul\":6994:6998   */\n      dup2\n        /* \"#utility.yul\":6868:6999   */\n      tag_225\n      jump\t// in\n    tag_262:\n        /* \"#utility.yul\":6860:6999   */\n      swap1\n      pop\n        /* \"#utility.yul\":6587:7006   */\n      swap2\n      swap1\n      pop\n      jump\t// out\n        /* \"#utility.yul\":7012:7431   */\n    tag_48:\n        /* \"#utility.yul\":7178:7182   */\n      0x00\n        /* \"#utility.yul\":7216:7218   */\n      0x20\n        /* \"#utility.yul\":7205:7214   */\n      dup3\n        /* \"#utility.yul\":7201:7219   */\n      add\n        /* \"#utility.yul\":7193:7219   */\n      swap1\n      pop\n        /* \"#utility.yul\":7265:7274   */\n      dup2\n        /* \"#utility.yul\":7259:7263   */\n      dup2\n        /* \"#utility.yul\":7255:7275   */\n      sub\n        /* \"#utility.yul\":7251:7252   */\n      0x00\n        /* \"#utility.yul\":7240:7249   */\n      dup4\n        /* \"#utility.yul\":7236:7253   */\n      add\n        /* \"#utility.yul\":7229:7276   */\n      mstore\n        /* \"#utility.yul\":7293:7424   */\n      tag_264\n        /* \"#utility.yul\":7419:7423   */\n      dup2\n        /* \"#utility.yul\":7293:7424   */\n      tag_230\n      jump\t// in\n    tag_264:\n        /* \"#utility.yul\":7285:7424   */\n      swap1\n      pop\n        /* \"#utility.yul\":7012:7431   */\n      swap2\n      swap1\n      pop\n      jump\t// out\n        /* \"#utility.yul\":7437:7659   */\n    tag_15:\n        /* \"#utility.yul\":7530:7534   */\n      0x00\n        /* \"#utility.yul\":7568:7570   */\n      0x20\n        /* \"#utility.yul\":7557:7566   */\n      dup3\n        /* \"#utility.yul\":7553:7571   */\n      add\n        /* \"#utility.yul\":7545:7571   */\n      swap1\n      pop\n        /* \"#utility.yul\":7581:7652   */\n      tag_266\n        /* \"#utility.yul\":7649:7650   */\n      0x00\n        /* \"#utility.yul\":7638:7647   */\n      dup4\n        /* \"#utility.yul\":7634:7651   */\n      add\n        /* \"#utility.yul\":7625:7631   */\n      dup5\n        /* \"#utility.yul\":7581:7652   */\n      tag_241\n      jump\t// in\n    tag_266:\n        /* \"#utility.yul\":7437:7659   */\n      swap3\n      swap2\n      pop\n      pop\n      jump\t// out\n        /* \"#utility.yul\":7665:7985   */\n    tag_35:\n        /* \"#utility.yul\":7780:7784   */\n      0x00\n        /* \"#utility.yul\":7818:7820   */\n      0x40\n        /* \"#utility.yul\":7807:7816   */\n      dup3\n        /* \"#utility.yul\":7803:7821   */\n      add\n        /* \"#utility.yul\":7795:7821   */\n      swap1\n      pop\n        /* \"#utility.yul\":7831:7902   */\n      tag_268\n        /* \"#utility.yul\":7899:7900   */\n      0x00\n        /* \"#utility.yul\":7888:7897   */\n      dup4\n        /* \"#utility.yul\":7884:7901   */\n      add\n        /* \"#utility.yul\":7875:7881   */\n      dup6\n        /* \"#utility.yul\":7831:7902   */\n      tag_241\n      jump\t// in\n    tag_268:\n        /* \"#utility.yul\":7912:7978   */\n      tag_269\n        /* \"#utility.yul\":7974:7976   */\n      0x20\n        /* \"#utility.yul\":7963:7972   */\n      dup4\n        /* \"#utility.yul\":7959:7977   */\n      add\n        /* \"#utility.yul\":7950:7956   */\n      dup5\n        /* \"#utility.yul\":7912:7978   */\n      tag_215\n      jump\t// in\n    tag_269:\n        /* \"#utility.yul\":7665:7985   */\n      swap4\n      swap3\n      pop\n      pop\n      pop\n      jump\t// out\n        /* \"#utility.yul\":8072:8240   */\n    tag_238:\n        /* \"#utility.yul\":8155:8166   */\n      0x00\n        /* \"#utility.yul\":8189:8195   */\n      dup3\n        /* \"#utility.yul\":8184:8187   */\n      dup3\n        /* \"#utility.yul\":8177:8196   */\n      mstore\n        /* \"#utility.yul\":8229:8233   */\n      0x20\n        /* \"#utility.yul\":8224:8227   */\n      dup3\n        /* \"#utility.yul\":8220:8234   */\n      add\n        /* \"#utility.yul\":8205:8234   */\n      swap1\n      pop\n        /* \"#utility.yul\":8072:8240   */\n      swap3\n      swap2\n      pop\n      pop\n      jump\t// out\n        /* \"#utility.yul\":8246:8415   */\n    tag_222:\n        /* \"#utility.yul\":8330:8341   */\n      0x00\n        /* \"#utility.yul\":8364:8370   */\n      dup3\n        /* \"#utility.yul\":8359:8362   */\n      dup3\n        /* \"#utility.yul\":8352:8371   */\n      mstore\n        /* \"#utility.yul\":8404:8408   */\n      0x20\n        /* \"#utility.yul\":8399:8402   */\n      dup3\n        /* \"#utility.yul\":8395:8409   */\n      add\n        /* \"#utility.yul\":8380:8409   */\n      swap1\n      pop\n        /* \"#utility.yul\":8246:8415   */\n      swap3\n      swap2\n      pop\n      pop\n      jump\t// out\n        /* \"#utility.yul\":8421:8726   */\n    tag_33:\n        /* \"#utility.yul\":8461:8464   */\n      0x00\n        /* \"#utility.yul\":8480:8500   */\n      tag_275\n        /* \"#utility.yul\":8498:8499   */\n      dup3\n        /* \"#utility.yul\":8480:8500   */\n      tag_244\n      jump\t// in\n    tag_275:\n        /* \"#utility.yul\":8475:8500   */\n      swap2\n      pop\n        /* \"#utility.yul\":8514:8534   */\n      tag_276\n        /* \"#utility.yul\":8532:8533   */\n      dup4\n        /* \"#utility.yul\":8514:8534   */\n      tag_244\n      jump\t// in\n    tag_276:\n        /* \"#utility.yul\":8509:8534   */\n      swap3\n      pop\n        /* \"#utility.yul\":8668:8669   */\n      dup3\n        /* \"#utility.yul\":8600:8666   */\n      0xffffffffffffffffffffffffffffffffffffffffffffffffffffffffffffffff\n        /* \"#utility.yul\":8596:8670   */\n      sub\n        /* \"#utility.yul\":8593:8594   */\n      dup3\n        /* \"#utility.yul\":8590:8671   */\n      gt\n        /* \"#utility.yul\":8587:8694   */\n      iszero\n      tag_277\n      jumpi\n        /* \"#utility.yul\":8674:8692   */\n      tag_278\n      tag_279\n      jump\t// in\n    tag_278:\n        /* \"#utility.yul\":8587:8694   */\n    tag_277:\n        /* \"#utility.yul\":8718:8719   */\n      dup3\n        /* \"#utility.yul\":8715:8716   */\n      dup3\n        /* \"#utility.yul\":8711:8720   */\n      add\n        /* \"#utility.yul\":8704:8720   */\n      swap1\n      pop\n        /* \"#utility.yul\":8421:8726   */\n      swap3\n      swap2\n      pop\n      pop\n      jump\t// out\n        /* \"#utility.yul\":8732:8917   */\n    tag_50:\n        /* \"#utility.yul\":8772:8773   */\n      0x00\n        /* \"#utility.yul\":8789:8809   */\n      tag_281\n        /* \"#utility.yul\":8807:8808   */\n      dup3\n        /* \"#utility.yul\":8789:8809   */\n      tag_244\n      jump\t// in\n    tag_281:\n        /* \"#utility.yul\":8784:8809   */\n      swap2\n      pop\n        /* \"#utility.yul\":8823:8843   */\n      tag_282\n        /* \"#utility.yul\":8841:8842   */\n      dup4\n        /* \"#utility.yul\":8823:8843   */\n      tag_244\n      jump\t// in\n    tag_282:\n        /* \"#utility.yul\":8818:8843   */\n      swap3\n      pop\n        /* \"#utility.yul\":8862:8863   */\n      dup3\n        /* \"#utility.yul\":8852:8887   */\n      tag_283\n      jumpi\n        /* \"#utility.yul\":8867:8885   */\n      tag_284\n      tag_285\n      jump\t// in\n    tag_284:\n        /* \"#utility.yul\":8852:8887   */\n    tag_283:\n        /* \"#utility.yul\":8909:8910   */\n      dup3\n        /* \"#utility.yul\":8906:8907   */\n      dup3\n        /* \"#utility.yul\":8902:8911   */\n      div\n        /* \"#utility.yul\":8897:8911   */\n      swap1\n      pop\n        /* \"#utility.yul\":8732:8917   */\n      swap3\n      swap2\n      pop\n      pop\n      jump\t// out\n        /* \"#utility.yul\":8923:9114   */\n    tag_52:\n        /* \"#utility.yul\":8963:8967   */\n      0x00\n        /* \"#utility.yul\":8983:9003   */\n      tag_287\n        /* \"#utility.yul\":9001:9002   */\n      dup3\n        /* \"#utility.yul\":8983:9003   */\n      tag_244\n      jump\t// in\n    tag_287:\n        /* \"#utility.yul\":8978:9003   */\n      swap2\n      pop\n        /* \"#utility.yul\":9017:9037   */\n      tag_288\n        /* \"#utility.yul\":9035:9036   */\n      dup4\n        /* \"#utility.yul\":9017:9037   */\n      tag_244\n      jump\t// in\n    tag_288:\n        /* \"#utility.yul\":9012:9037   */\n      swap3\n      pop\n        /* \"#utility.yul\":9056:9057   */\n      dup3\n        /* \"#utility.yul\":9053:9054   */\n      dup3\n        /* \"#utility.yul\":9050:9058   */\n      lt\n        /* \"#utility.yul\":9047:9081   */\n      iszero\n      tag_289\n      jumpi\n        /* \"#utility.yul\":9061:9079   */\n      tag_290\n      tag_279\n      jump\t// in\n    tag_290:\n        /* \"#utility.yul\":9047:9081   */\n    tag_289:\n        /* \"#utility.yul\":9106:9107   */\n      dup3\n        /* \"#utility.yul\":9103:9104   */\n      dup3\n        /* \"#utility.yul\":9099:9108   */\n      sub\n        /* \"#utility.yul\":9091:9108   */\n      swap1\n      pop\n        /* \"#utility.yul\":8923:9114   */\n      swap3\n      swap2\n      pop\n      pop\n      jump\t// out\n        /* \"#utility.yul\":9120:9216   */\n    tag_214:\n        /* \"#utility.yul\":9157:9164   */\n      0x00\n        /* \"#utility.yul\":9186:9210   */\n      tag_292\n        /* \"#utility.yul\":9204:9209   */\n      dup3\n        /* \"#utility.yul\":9186:9210   */\n      tag_293\n      jump\t// in\n    tag_292:\n        /* \"#utility.yul\":9175:9210   */\n      swap1\n      pop\n        /* \"#utility.yul\":9120:9216   */\n      swap2\n      swap1\n      pop\n      jump\t// out\n        /* \"#utility.yul\":9222:9312   */\n    tag_218:\n        /* \"#utility.yul\":9256:9263   */\n      0x00\n        /* \"#utility.yul\":9299:9304   */\n      dup2\n        /* \"#utility.yul\":9292:9305   */\n      iszero\n        /* \"#utility.yul\":9285:9306   */\n      iszero\n        /* \"#utility.yul\":9274:9306   */\n      swap1\n      pop\n        /* \"#utility.yul\":9222:9312   */\n      swap2\n      swap1\n      pop\n      jump\t// out\n        /* \"#utility.yul\":9318:9444   */\n    tag_293:\n        /* \"#utility.yul\":9355:9362   */\n      0x00\n        /* \"#utility.yul\":9395:9437   */\n      0xffffffffffffffffffffffffffffffffffffffff\n        /* \"#utility.yul\":9388:9393   */\n      dup3\n        /* \"#utility.yul\":9384:9438   */\n      and\n        /* \"#utility.yul\":9373:9438   */\n      swap1\n      pop\n        /* \"#utility.yul\":9318:9444   */\n      swap2\n      swap1\n      pop\n      jump\t// out\n        /* \"#utility.yul\":9450:9527   */\n    tag_244:\n        /* \"#utility.yul\":9487:9494   */\n      0x00\n        /* \"#utility.yul\":9516:9521   */\n      dup2\n        /* \"#utility.yul\":9505:9521   */\n      swap1\n      pop\n        /* \"#utility.yul\":9450:9527   */\n      swap2\n      swap1\n      pop\n      jump\t// out\n        /* \"#utility.yul\":9533:9766   */\n    tag_96:\n        /* \"#utility.yul\":9572:9575   */\n      0x00\n        /* \"#utility.yul\":9595:9619   */\n      tag_298\n        /* \"#utility.yul\":9613:9618   */\n      dup3\n        /* \"#utility.yul\":9595:9619   */\n      tag_244\n      jump\t// in\n    tag_298:\n        /* \"#utility.yul\":9586:9619   */\n      swap2\n      pop\n        /* \"#utility.yul\":9641:9707   */\n      0xffffffffffffffffffffffffffffffffffffffffffffffffffffffffffffffff\n        /* \"#utility.yul\":9634:9639   */\n      dup3\n        /* \"#utility.yul\":9631:9708   */\n      eq\n        /* \"#utility.yul\":9628:9731   */\n      iszero\n      tag_299\n      jumpi\n        /* \"#utility.yul\":9711:9729   */\n      tag_300\n      tag_279\n      jump\t// in\n    tag_300:\n        /* \"#utility.yul\":9628:9731   */\n    tag_299:\n        /* \"#utility.yul\":9758:9759   */\n      0x01\n        /* \"#utility.yul\":9751:9756   */\n      dup3\n        /* \"#utility.yul\":9747:9760   */\n      add\n        /* \"#utility.yul\":9740:9760   */\n      swap1\n      pop\n        /* \"#utility.yul\":9533:9766   */\n      swap2\n      swap1\n      pop\n      jump\t// out\n        /* \"#utility.yul\":9772:9952   */\n    tag_279:\n        /* \"#utility.yul\":9820:9897   */\n      0x4e487b7100000000000000000000000000000000000000000000000000000000\n        /* \"#utility.yul\":9817:9818   */\n      0x00\n        /* \"#utility.yul\":9810:9898   */\n      mstore\n        /* \"#utility.yul\":9917:9921   */\n      0x11\n        /* \"#utility.yul\":9914:9915   */\n      0x04\n        /* \"#utility.yul\":9907:9922   */\n      mstore\n        /* \"#utility.yul\":9941:9945   */\n      0x24\n        /* \"#utility.yul\":9938:9939   */\n      0x00\n        /* \"#utility.yul\":9931:9946   */\n      revert\n        /* \"#utility.yul\":9958:10138   */\n    tag_285:\n        /* \"#utility.yul\":10006:10083   */\n      0x4e487b7100000000000000000000000000000000000000000000000000000000\n        /* \"#utility.yul\":10003:10004   */\n      0x00\n        /* \"#utility.yul\":9996:10084   */\n      mstore\n        /* \"#utility.yul\":10103:10107   */\n      0x12\n        /* \"#utility.yul\":10100:10101   */\n      0x04\n        /* \"#utility.yul\":10093:10108   */\n      mstore\n        /* \"#utility.yul\":10127:10131   */\n      0x24\n        /* \"#utility.yul\":10124:10125   */\n      0x00\n        /* \"#utility.yul\":10117:10132   */\n      revert\n        /* \"#utility.yul\":10144:10324   */\n    tag_114:\n        /* \"#utility.yul\":10192:10269   */\n      0x4e487b7100000000000000000000000000000000000000000000000000000000\n        /* \"#utility.yul\":10189:10190   */\n      0x00\n        /* \"#utility.yul\":10182:10270   */\n      mstore\n        /* \"#utility.yul\":10289:10293   */\n      0x31\n        /* \"#utility.yul\":10286:10287   */\n      0x04\n        /* \"#utility.yul\":10279:10294   */\n      mstore\n        /* \"#utility.yul\":10313:10317   */\n      0x24\n        /* \"#utility.yul\":10310:10311   */\n      0x00\n        /* \"#utility.yul\":10303:10318   */\n      revert\n        /* \"#utility.yul\":10330:10510   */\n    tag_109:\n        /* \"#utility.yul\":10378:10455   */\n      0x4e487b7100000000000000000000000000000000000000000000000000000000\n        /* \"#utility.yul\":10375:10376   */\n      0x00\n        /* \"#utility.yul\":10368:10456   */\n      mstore\n        /* \"#utility.yul\":10475:10479   */\n      0x32\n        /* \"#utility.yul\":10472:10473   */\n      0x04\n        /* \"#utility.yul\":10465:10480   */\n      mstore\n        /* \"#utility.yul\":10499:10503   */\n      0x24\n        /* \"#utility.yul\":10496:10497   */\n      0x00\n        /* \"#utility.yul\":10489:10504   */\n      revert\n        /* \"#utility.yul\":10639:10756   */\n    tag_193:\n        /* \"#utility.yul\":10748:10749   */\n      0x00\n        /* \"#utility.yul\":10745:10746   */\n      dup1\n        /* \"#utility.yul\":10738:10750   */\n      revert\n        /* \"#utility.yul\":10762:10923   */\n    tag_224:\n        /* \"#utility.yul\":10902:10915   */\n      0x4f6666657220697320302e000000000000000000000000000000000000000000\n        /* \"#utility.yul\":10898:10899   */\n      0x00\n        /* \"#utility.yul\":10890:10896   */\n      dup3\n        /* \"#utility.yul\":10886:10900   */\n      add\n        /* \"#utility.yul\":10879:10916   */\n      mstore\n        /* \"#utility.yul\":10762:10923   */\n      pop\n      jump\t// out\n        /* \"#utility.yul\":10929:11092   */\n    tag_229:\n        /* \"#utility.yul\":11069:11084   */\n      0x556e617574686f72697a65642e00000000000000000000000000000000000000\n        /* \"#utility.yul\":11065:11066   */\n      0x00\n        /* \"#utility.yul\":11057:11063   */\n      dup3\n        /* \"#utility.yul\":11053:11067   */\n      add\n        /* \"#utility.yul\":11046:11085   */\n      mstore\n        /* \"#utility.yul\":10929:11092   */\n      pop\n      jump\t// out\n        /* \"#utility.yul\":11098:11257   */\n    tag_234:\n        /* \"#utility.yul\":11238:11249   */\n      0x4e6f206f666665722e0000000000000000000000000000000000000000000000\n        /* \"#utility.yul\":11234:11235   */\n      0x00\n        /* \"#utility.yul\":11226:11232   */\n      dup3\n        /* \"#utility.yul\":11222:11236   */\n      add\n        /* \"#utility.yul\":11215:11250   */\n      mstore\n        /* \"#utility.yul\":11098:11257   */\n      pop\n      jump\t// out\n        /* \"#utility.yul\":11263:11377   */\n    tag_240:\n      pop\n      jump\t// out\n        /* \"#utility.yul\":11383:11505   */\n    tag_179:\n        /* \"#utility.yul\":11456:11480   */\n      tag_313\n        /* \"#utility.yul\":11474:11479   */\n      dup2\n        /* \"#utility.yul\":11456:11480   */\n      tag_214\n      jump\t// in\n    tag_313:\n        /* \"#utility.yul\":11449:11454   */\n      dup2\n        /* \"#utility.yul\":11446:11481   */\n      eq\n        /* \"#utility.yul\":11436:11499   */\n      tag_314\n      jumpi\n        /* \"#utility.yul\":11495:11496   */\n      0x00\n        /* \"#utility.yul\":11492:11493   */\n      dup1\n        /* \"#utility.yul\":11485:11497   */\n      revert\n        /* \"#utility.yul\":11436:11499   */\n    tag_314:\n        /* \"#utility.yul\":11383:11505   */\n      pop\n      jump\t// out\n        /* \"#utility.yul\":11511:11633   */\n    tag_186:\n        /* \"#utility.yul\":11584:11608   */\n      tag_316\n        /* \"#utility.yul\":11602:11607   */\n      dup2\n        /* \"#utility.yul\":11584:11608   */\n      tag_244\n      jump\t// in\n    tag_316:\n        /* \"#utility.yul\":11577:11582   */\n      dup2\n        /* \"#utility.yul\":11574:11609   */\n      eq\n        /* \"#utility.yul\":11564:11627   */\n      tag_317\n      jumpi\n        /* \"#utility.yul\":11623:11624   */\n      0x00\n        /* \"#utility.yul\":11620:11621   */\n      dup1\n        /* \"#utility.yul\":11613:11625   */\n      revert\n        /* \"#utility.yul\":11564:11627   */\n    tag_317:\n        /* \"#utility.yul\":11511:11633   */\n      pop\n      jump\t// out\n\n    auxdata: 0xa2646970667358221220117f99a5de67316a350fec36bc5cfe38fcaf15a33f90fdb0737e88f51e51b35e64736f6c63430008070033\n}\n",
				"bytecode": {
					"linkReferences": {},
					"object": "608060405234801561001057600080fd5b50611a45806100206000396000f3fe60806040526004361061004a5760003560e01c80636b2129601461004f5780637bb98a681461006b578063aa1a841114610096578063bbb96976146100d3578063f3fef3a3146100ef575b600080fd5b610069600480360381019061006491906114a5565b61010b565b005b34801561007757600080fd5b506100806102f8565b60405161008d91906116f0565b60405180910390f35b3480156100a257600080fd5b506100bd60048036038101906100b891906114a5565b6102fe565b6040516100ca9190611675565b60405180910390f35b6100ed60048036038101906100e8919061143e565b610336565b005b610109600480360381019061010491906114a5565b610ecd565b005b60008060008473ffffffffffffffffffffffffffffffffffffffff1673ffffffffffffffffffffffffffffffffffffffff1681526020019081526020016000206000838152602001908152602001600020905060008160010160003373ffffffffffffffffffffffffffffffffffffffff1673ffffffffffffffffffffffffffffffffffffffff16815260200190815260200160002054141561020e5780600001339080600181540180825580915050600190039060005260206000200160009091909190916101000a81548173ffffffffffffffffffffffffffffffffffffffff021916908373ffffffffffffffffffffffffffffffffffffffff1602179055505b348160010160003373ffffffffffffffffffffffffffffffffffffffff1673ffffffffffffffffffffffffffffffffffffffff1681526020019081526020016000208190555060018160020160006101000a81548160ff02191690831515021790555034600160008282546102839190611756565b925050819055503373ffffffffffffffffffffffffffffffffffffffff16828473ffffffffffffffffffffffffffffffffffffffff167fa297a5039e151f85fd39b734d57194f31bf1ba744464810f8fa18941216c79b03460016040516102eb92919061170b565b60405180910390a4505050565b60015481565b6000602052816000526040600020602052806000526040600020600091509150508060020160009054906101000a900460ff16905081565b60008060008573ffffffffffffffffffffffffffffffffffffffff1673ffffffffffffffffffffffffffffffffffffffff16815260200190815260200160002060008481526020019081526020016000209050600084905060008690503373ffffffffffffffffffffffffffffffffffffffff168273ffffffffffffffffffffffffffffffffffffffff16636352211e876040518263ffffffff1660e01b81526004016103e391906116f0565b60206040518083038186803b1580156103fb57600080fd5b505afa15801561040f573d6000803e3d6000fd5b505050506040513d601f19601f820116820180604052508101906104339190611411565b73ffffffffffffffffffffffffffffffffffffffff1614610489576040517f08c379a0000000000000000000000000000000000000000000000000000000008152600401610480906116b0565b60405180910390fd5b600115158360020160009054906101000a900460ff161515146104e1576040517f08c379a00000000000000000000000000000000000000000000000000000000081526004016104d8906116d0565b60405180910390fd5b3373ffffffffffffffffffffffffffffffffffffffff166108fc60148560010160008873ffffffffffffffffffffffffffffffffffffffff1673ffffffffffffffffffffffffffffffffffffffff1681526020019081526020016000205461054991906117ac565b8560010160008873ffffffffffffffffffffffffffffffffffffffff1673ffffffffffffffffffffffffffffffffffffffff1681526020019081526020016000205461059591906117dd565b9081150290604051600060405180830381858888f193505050501580156105c0573d6000803e3d6000fd5b5060008173ffffffffffffffffffffffffffffffffffffffff1663d178227a88886040518363ffffffff1660e01b81526004016105fe929190611615565b60206040518083038186803b15801561061657600080fd5b505afa15801561062a573d6000803e3d6000fd5b505050506040513d601f19601f8201168201806040525081019061064e91906114e5565b1115610a09578073ffffffffffffffffffffffffffffffffffffffff16638da5cb5b6040518163ffffffff1660e01b815260040160206040518083038186803b15801561069a57600080fd5b505afa1580156106ae573d6000803e3d6000fd5b505050506040513d601f19601f820116820180604052508101906106d29190611411565b73ffffffffffffffffffffffffffffffffffffffff166108fc60288560010160008873ffffffffffffffffffffffffffffffffffffffff1673ffffffffffffffffffffffffffffffffffffffff1681526020019081526020016000205461073991906117ac565b9081150290604051600060405180830381858888f19350505050158015610764573d6000803e3d6000fd5b5060005b6005811015610a0357600073ffffffffffffffffffffffffffffffffffffffff168273ffffffffffffffffffffffffffffffffffffffff16632973d6f88989856040518463ffffffff1660e01b81526004016107c69392919061163e565b60206040518083038186803b1580156107de57600080fd5b505afa1580156107f2573d6000803e3d6000fd5b505050506040513d601f19601f820116820180604052508101906108169190611411565b73ffffffffffffffffffffffffffffffffffffffff16146109eb578173ffffffffffffffffffffffffffffffffffffffff16632973d6f88888846040518463ffffffff1660e01b815260040161086e9392919061163e565b60206040518083038186803b15801561088657600080fd5b505afa15801561089a573d6000803e3d6000fd5b505050506040513d601f19601f820116820180604052508101906108be9190611411565b73ffffffffffffffffffffffffffffffffffffffff166108fc8373ffffffffffffffffffffffffffffffffffffffff1663d178227a8a8a6040518363ffffffff1660e01b8152600401610912929190611615565b60206040518083038186803b15801561092a57600080fd5b505afa15801561093e573d6000803e3d6000fd5b505050506040513d601f19601f8201168201806040525081019061096291906114e5565b60288760010160008a73ffffffffffffffffffffffffffffffffffffffff1673ffffffffffffffffffffffffffffffffffffffff168152602001908152602001600020546109b091906117ac565b6109ba91906117ac565b9081150290604051600060405180830381858888f193505050501580156109e5573d6000803e3d6000fd5b506109f0565b610a03565b80806109fb90611859565b915050610768565b50610b1b565b8073ffffffffffffffffffffffffffffffffffffffff16638da5cb5b6040518163ffffffff1660e01b815260040160206040518083038186803b158015610a4f57600080fd5b505afa158015610a63573d6000803e3d6000fd5b505050506040513d601f19601f82011682018060405250810190610a879190611411565b73ffffffffffffffffffffffffffffffffffffffff166108fc60148560010160008873ffffffffffffffffffffffffffffffffffffffff1673ffffffffffffffffffffffffffffffffffffffff16815260200190815260200160002054610aee91906117ac565b9081150290604051600060405180830381858888f19350505050158015610b19573d6000803e3d6000fd5b505b8260010160008573ffffffffffffffffffffffffffffffffffffffff1673ffffffffffffffffffffffffffffffffffffffff1681526020019081526020016000205460016000828254610b6e91906117dd565b92505081905550600060018460000180549050610b8b91906117dd565b9050836000018181548110610ba357610ba261192f565b5b9060005260206000200160009054906101000a900473ffffffffffffffffffffffffffffffffffffffff1673ffffffffffffffffffffffffffffffffffffffff168573ffffffffffffffffffffffffffffffffffffffff161415610c4f5783600001805480610c1557610c14611900565b5b6001900381819060005260206000200160006101000a81549073ffffffffffffffffffffffffffffffffffffffff02191690559055610dd7565b60005b8460000180549050811015610dd5578573ffffffffffffffffffffffffffffffffffffffff16856000018281548110610c8e57610c8d61192f565b5b9060005260206000200160009054906101000a900473ffffffffffffffffffffffffffffffffffffffff1673ffffffffffffffffffffffffffffffffffffffff161415610dc257846000018281548110610ceb57610cea61192f565b5b9060005260206000200160009054906101000a900473ffffffffffffffffffffffffffffffffffffffff16856000018281548110610d2c57610d2b61192f565b5b9060005260206000200160006101000a81548173ffffffffffffffffffffffffffffffffffffffff021916908373ffffffffffffffffffffffffffffffffffffffff16021790555084600001805480610d8857610d87611900565b5b6001900381819060005260206000200160006101000a81549073ffffffffffffffffffffffffffffffffffffffff02191690559055610dd5565b8080610dcd90611859565b915050610c52565b505b6000846000018054905011610e045760008460020160006101000a81548160ff0219169083151502179055505b8273ffffffffffffffffffffffffffffffffffffffff1663b88d4fde3387896040518463ffffffff1660e01b8152600401610e41939291906115cb565b600060405180830381600087803b158015610e5b57600080fd5b505af1158015610e6f573d6000803e3d6000fd5b50505050858773ffffffffffffffffffffffffffffffffffffffff167f9663db6e9b1f015a82beb1b03ec8fed9d1a25b5da31b2cc92c2be9e8c629a80d6000604051610ebb9190611675565b60405180910390a35050505050505050565b60008060008473ffffffffffffffffffffffffffffffffffffffff1673ffffffffffffffffffffffffffffffffffffffff1681526020019081526020016000206000838152602001908152602001600020905060008160010160003373ffffffffffffffffffffffffffffffffffffffff1673ffffffffffffffffffffffffffffffffffffffff1681526020019081526020016000205411610fa4576040517f08c379a0000000000000000000000000000000000000000000000000000000008152600401610f9b90611690565b60405180910390fd5b600060018260000180549050610fba91906117dd565b9050816000018181548110610fd257610fd161192f565b5b9060005260206000200160009054906101000a900473ffffffffffffffffffffffffffffffffffffffff1673ffffffffffffffffffffffffffffffffffffffff163373ffffffffffffffffffffffffffffffffffffffff16141561107e578160000180548061104457611043611900565b5b6001900381819060005260206000200160006101000a81549073ffffffffffffffffffffffffffffffffffffffff02191690559055611206565b60005b8260000180549050811015611204573373ffffffffffffffffffffffffffffffffffffffff168360000182815481106110bd576110bc61192f565b5b9060005260206000200160009054906101000a900473ffffffffffffffffffffffffffffffffffffffff1673ffffffffffffffffffffffffffffffffffffffff1614156111f15782600001828154811061111a5761111961192f565b5b9060005260206000200160009054906101000a900473ffffffffffffffffffffffffffffffffffffffff1683600001828154811061115b5761115a61192f565b5b9060005260206000200160006101000a81548173ffffffffffffffffffffffffffffffffffffffff021916908373ffffffffffffffffffffffffffffffffffffffff160217905550826000018054806111b7576111b6611900565b5b6001900381819060005260206000200160006101000a81549073ffffffffffffffffffffffffffffffffffffffff02191690559055611204565b80806111fc90611859565b915050611081565b505b60008260000180549050116112335760008260020160006101000a81548160ff0219169083151502179055505b3373ffffffffffffffffffffffffffffffffffffffff166108fc8360010160003373ffffffffffffffffffffffffffffffffffffffff1673ffffffffffffffffffffffffffffffffffffffff168152602001908152602001600020549081150290604051600060405180830381858888f193505050501580156112ba573d6000803e3d6000fd5b508160010160003373ffffffffffffffffffffffffffffffffffffffff1673ffffffffffffffffffffffffffffffffffffffff168152602001908152602001600020546001600082825461130e91906117dd565b9250508190555060008260010160003373ffffffffffffffffffffffffffffffffffffffff1673ffffffffffffffffffffffffffffffffffffffff168152602001908152602001600020819055503373ffffffffffffffffffffffffffffffffffffffff16838573ffffffffffffffffffffffffffffffffffffffff167f5eee4de26cd3c0f49f086164989c02cd12d97a964804bc188ee593e26fb9818660405160405180910390a450505050565b6000813590506113cc816119e1565b92915050565b6000815190506113e1816119e1565b92915050565b6000813590506113f6816119f8565b92915050565b60008151905061140b816119f8565b92915050565b6000602082840312156114275761142661195e565b5b6000611435848285016113d2565b91505092915050565b600080600080608085870312156114585761145761195e565b5b6000611466878288016113bd565b9450506020611477878288016113bd565b9350506040611488878288016113e7565b9250506060611499878288016113bd565b91505092959194509250565b600080604083850312156114bc576114bb61195e565b5b60006114ca858286016113bd565b92505060206114db858286016113e7565b9150509250929050565b6000602082840312156114fb576114fa61195e565b5b6000611509848285016113fc565b91505092915050565b61151b81611811565b82525050565b61152a81611823565b82525050565b600061153d600b83611745565b915061154882611963565b602082019050919050565b6000611560600d83611745565b915061156b8261198c565b602082019050919050565b6000611583600983611745565b915061158e826119b5565b602082019050919050565b60006115a6600083611734565b91506115b1826119de565b600082019050919050565b6115c58161184f565b82525050565b60006080820190506115e06000830186611512565b6115ed6020830185611512565b6115fa60408301846115bc565b818103606083015261160b81611599565b9050949350505050565b600060408201905061162a6000830185611512565b61163760208301846115bc565b9392505050565b60006060820190506116536000830186611512565b61166060208301856115bc565b61166d60408301846115bc565b949350505050565b600060208201905061168a6000830184611521565b92915050565b600060208201905081810360008301526116a981611530565b9050919050565b600060208201905081810360008301526116c981611553565b9050919050565b600060208201905081810360008301526116e981611576565b9050919050565b600060208201905061170560008301846115bc565b92915050565b600060408201905061172060008301856115bc565b61172d6020830184611521565b9392505050565b600082825260208201905092915050565b600082825260208201905092915050565b60006117618261184f565b915061176c8361184f565b9250827fffffffffffffffffffffffffffffffffffffffffffffffffffffffffffffffff038211156117a1576117a06118a2565b5b828201905092915050565b60006117b78261184f565b91506117c28361184f565b9250826117d2576117d16118d1565b5b828204905092915050565b60006117e88261184f565b91506117f38361184f565b925082821015611806576118056118a2565b5b828203905092915050565b600061181c8261182f565b9050919050565b60008115159050919050565b600073ffffffffffffffffffffffffffffffffffffffff82169050919050565b6000819050919050565b60006118648261184f565b91507fffffffffffffffffffffffffffffffffffffffffffffffffffffffffffffffff821415611897576118966118a2565b5b600182019050919050565b7f4e487b7100000000000000000000000000000000000000000000000000000000600052601160045260246000fd5b7f4e487b7100000000000000000000000000000000000000000000000000000000600052601260045260246000fd5b7f4e487b7100000000000000000000000000000000000000000000000000000000600052603160045260246000fd5b7f4e487b7100000000000000000000000000000000000000000000000000000000600052603260045260246000fd5b600080fd5b7f4f6666657220697320302e000000000000000000000000000000000000000000600082015250565b7f556e617574686f72697a65642e00000000000000000000000000000000000000600082015250565b7f4e6f206f666665722e0000000000000000000000000000000000000000000000600082015250565b50565b6119ea81611811565b81146119f557600080fd5b50565b611a018161184f565b8114611a0c57600080fd5b5056fea2646970667358221220117f99a5de67316a350fec36bc5cfe38fcaf15a33f90fdb0737e88f51e51b35e64736f6c63430008070033",
					"opcodes": "PUSH1 0x80 PUSH1 0x40 MSTORE CALLVALUE DUP1 ISZERO PUSH2 0x10 JUMPI PUSH1 0x0 DUP1 REVERT JUMPDEST POP PUSH2 0x1A45 DUP1 PUSH2 0x20 PUSH1 0x0 CODECOPY PUSH1 0x0 RETURN INVALID PUSH1 0x80 PUSH1 0x40 MSTORE PUSH1 0x4 CALLDATASIZE LT PUSH2 0x4A JUMPI PUSH1 0x0 CALLDATALOAD PUSH1 0xE0 SHR DUP1 PUSH4 0x6B212960 EQ PUSH2 0x4F JUMPI DUP1 PUSH4 0x7BB98A68 EQ PUSH2 0x6B JUMPI DUP1 PUSH4 0xAA1A8411 EQ PUSH2 0x96 JUMPI DUP1 PUSH4 0xBBB96976 EQ PUSH2 0xD3 JUMPI DUP1 PUSH4 0xF3FEF3A3 EQ PUSH2 0xEF JUMPI JUMPDEST PUSH1 0x0 DUP1 REVERT JUMPDEST PUSH2 0x69 PUSH1 0x4 DUP1 CALLDATASIZE SUB DUP2 ADD SWAP1 PUSH2 0x64 SWAP2 SWAP1 PUSH2 0x14A5 JUMP JUMPDEST PUSH2 0x10B JUMP JUMPDEST STOP JUMPDEST CALLVALUE DUP1 ISZERO PUSH2 0x77 JUMPI PUSH1 0x0 DUP1 REVERT JUMPDEST POP PUSH2 0x80 PUSH2 0x2F8 JUMP JUMPDEST PUSH1 0x40 MLOAD PUSH2 0x8D SWAP2 SWAP1 PUSH2 0x16F0 JUMP JUMPDEST PUSH1 0x40 MLOAD DUP1 SWAP2 SUB SWAP1 RETURN JUMPDEST CALLVALUE DUP1 ISZERO PUSH2 0xA2 JUMPI PUSH1 0x0 DUP1 REVERT JUMPDEST POP PUSH2 0xBD PUSH1 0x4 DUP1 CALLDATASIZE SUB DUP2 ADD SWAP1 PUSH2 0xB8 SWAP2 SWAP1 PUSH2 0x14A5 JUMP JUMPDEST PUSH2 0x2FE JUMP JUMPDEST PUSH1 0x40 MLOAD PUSH2 0xCA SWAP2 SWAP1 PUSH2 0x1675 JUMP JUMPDEST PUSH1 0x40 MLOAD DUP1 SWAP2 SUB SWAP1 RETURN JUMPDEST PUSH2 0xED PUSH1 0x4 DUP1 CALLDATASIZE SUB DUP2 ADD SWAP1 PUSH2 0xE8 SWAP2 SWAP1 PUSH2 0x143E JUMP JUMPDEST PUSH2 0x336 JUMP JUMPDEST STOP JUMPDEST PUSH2 0x109 PUSH1 0x4 DUP1 CALLDATASIZE SUB DUP2 ADD SWAP1 PUSH2 0x104 SWAP2 SWAP1 PUSH2 0x14A5 JUMP JUMPDEST PUSH2 0xECD JUMP JUMPDEST STOP JUMPDEST PUSH1 0x0 DUP1 PUSH1 0x0 DUP5 PUSH20 0xFFFFFFFFFFFFFFFFFFFFFFFFFFFFFFFFFFFFFFFF AND PUSH20 0xFFFFFFFFFFFFFFFFFFFFFFFFFFFFFFFFFFFFFFFF AND DUP2 MSTORE PUSH1 0x20 ADD SWAP1 DUP2 MSTORE PUSH1 0x20 ADD PUSH1 0x0 KECCAK256 PUSH1 0x0 DUP4 DUP2 MSTORE PUSH1 0x20 ADD SWAP1 DUP2 MSTORE PUSH1 0x20 ADD PUSH1 0x0 KECCAK256 SWAP1 POP PUSH1 0x0 DUP2 PUSH1 0x1 ADD PUSH1 0x0 CALLER PUSH20 0xFFFFFFFFFFFFFFFFFFFFFFFFFFFFFFFFFFFFFFFF AND PUSH20 0xFFFFFFFFFFFFFFFFFFFFFFFFFFFFFFFFFFFFFFFF AND DUP2 MSTORE PUSH1 0x20 ADD SWAP1 DUP2 MSTORE PUSH1 0x20 ADD PUSH1 0x0 KECCAK256 SLOAD EQ ISZERO PUSH2 0x20E JUMPI DUP1 PUSH1 0x0 ADD CALLER SWAP1 DUP1 PUSH1 0x1 DUP2 SLOAD ADD DUP1 DUP3 SSTORE DUP1 SWAP2 POP POP PUSH1 0x1 SWAP1 SUB SWAP1 PUSH1 0x0 MSTORE PUSH1 0x20 PUSH1 0x0 KECCAK256 ADD PUSH1 0x0 SWAP1 SWAP2 SWAP1 SWAP2 SWAP1 SWAP2 PUSH2 0x100 EXP DUP2 SLOAD DUP2 PUSH20 0xFFFFFFFFFFFFFFFFFFFFFFFFFFFFFFFFFFFFFFFF MUL NOT AND SWAP1 DUP4 PUSH20 0xFFFFFFFFFFFFFFFFFFFFFFFFFFFFFFFFFFFFFFFF AND MUL OR SWAP1 SSTORE POP JUMPDEST CALLVALUE DUP2 PUSH1 0x1 ADD PUSH1 0x0 CALLER PUSH20 0xFFFFFFFFFFFFFFFFFFFFFFFFFFFFFFFFFFFFFFFF AND PUSH20 0xFFFFFFFFFFFFFFFFFFFFFFFFFFFFFFFFFFFFFFFF AND DUP2 MSTORE PUSH1 0x20 ADD SWAP1 DUP2 MSTORE PUSH1 0x20 ADD PUSH1 0x0 KECCAK256 DUP2 SWAP1 SSTORE POP PUSH1 0x1 DUP2 PUSH1 0x2 ADD PUSH1 0x0 PUSH2 0x100 EXP DUP2 SLOAD DUP2 PUSH1 0xFF MUL NOT AND SWAP1 DUP4 ISZERO ISZERO MUL OR SWAP1 SSTORE POP CALLVALUE PUSH1 0x1 PUSH1 0x0 DUP3 DUP3 SLOAD PUSH2 0x283 SWAP2 SWAP1 PUSH2 0x1756 JUMP JUMPDEST SWAP3 POP POP DUP2 SWAP1 SSTORE POP CALLER PUSH20 0xFFFFFFFFFFFFFFFFFFFFFFFFFFFFFFFFFFFFFFFF AND DUP3 DUP5 PUSH20 0xFFFFFFFFFFFFFFFFFFFFFFFFFFFFFFFFFFFFFFFF AND PUSH32 0xA297A5039E151F85FD39B734D57194F31BF1BA744464810F8FA18941216C79B0 CALLVALUE PUSH1 0x1 PUSH1 0x40 MLOAD PUSH2 0x2EB SWAP3 SWAP2 SWAP1 PUSH2 0x170B JUMP JUMPDEST PUSH1 0x40 MLOAD DUP1 SWAP2 SUB SWAP1 LOG4 POP POP POP JUMP JUMPDEST PUSH1 0x1 SLOAD DUP2 JUMP JUMPDEST PUSH1 0x0 PUSH1 0x20 MSTORE DUP2 PUSH1 0x0 MSTORE PUSH1 0x40 PUSH1 0x0 KECCAK256 PUSH1 0x20 MSTORE DUP1 PUSH1 0x0 MSTORE PUSH1 0x40 PUSH1 0x0 KECCAK256 PUSH1 0x0 SWAP2 POP SWAP2 POP POP DUP1 PUSH1 0x2 ADD PUSH1 0x0 SWAP1 SLOAD SWAP1 PUSH2 0x100 EXP SWAP1 DIV PUSH1 0xFF AND SWAP1 POP DUP2 JUMP JUMPDEST PUSH1 0x0 DUP1 PUSH1 0x0 DUP6 PUSH20 0xFFFFFFFFFFFFFFFFFFFFFFFFFFFFFFFFFFFFFFFF AND PUSH20 0xFFFFFFFFFFFFFFFFFFFFFFFFFFFFFFFFFFFFFFFF AND DUP2 MSTORE PUSH1 0x20 ADD SWAP1 DUP2 MSTORE PUSH1 0x20 ADD PUSH1 0x0 KECCAK256 PUSH1 0x0 DUP5 DUP2 MSTORE PUSH1 0x20 ADD SWAP1 DUP2 MSTORE PUSH1 0x20 ADD PUSH1 0x0 KECCAK256 SWAP1 POP PUSH1 0x0 DUP5 SWAP1 POP PUSH1 0x0 DUP7 SWAP1 POP CALLER PUSH20 0xFFFFFFFFFFFFFFFFFFFFFFFFFFFFFFFFFFFFFFFF AND DUP3 PUSH20 0xFFFFFFFFFFFFFFFFFFFFFFFFFFFFFFFFFFFFFFFF AND PUSH4 0x6352211E DUP8 PUSH1 0x40 MLOAD DUP3 PUSH4 0xFFFFFFFF AND PUSH1 0xE0 SHL DUP2 MSTORE PUSH1 0x4 ADD PUSH2 0x3E3 SWAP2 SWAP1 PUSH2 0x16F0 JUMP JUMPDEST PUSH1 0x20 PUSH1 0x40 MLOAD DUP1 DUP4 SUB DUP2 DUP7 DUP1 EXTCODESIZE ISZERO DUP1 ISZERO PUSH2 0x3FB JUMPI PUSH1 0x0 DUP1 REVERT JUMPDEST POP GAS STATICCALL ISZERO DUP1 ISZERO PUSH2 0x40F JUMPI RETURNDATASIZE PUSH1 0x0 DUP1 RETURNDATACOPY RETURNDATASIZE PUSH1 0x0 REVERT JUMPDEST POP POP POP POP PUSH1 0x40 MLOAD RETURNDATASIZE PUSH1 0x1F NOT PUSH1 0x1F DUP3 ADD AND DUP3 ADD DUP1 PUSH1 0x40 MSTORE POP DUP2 ADD SWAP1 PUSH2 0x433 SWAP2 SWAP1 PUSH2 0x1411 JUMP JUMPDEST PUSH20 0xFFFFFFFFFFFFFFFFFFFFFFFFFFFFFFFFFFFFFFFF AND EQ PUSH2 0x489 JUMPI PUSH1 0x40 MLOAD PUSH32 0x8C379A000000000000000000000000000000000000000000000000000000000 DUP2 MSTORE PUSH1 0x4 ADD PUSH2 0x480 SWAP1 PUSH2 0x16B0 JUMP JUMPDEST PUSH1 0x40 MLOAD DUP1 SWAP2 SUB SWAP1 REVERT JUMPDEST PUSH1 0x1 ISZERO ISZERO DUP4 PUSH1 0x2 ADD PUSH1 0x0 SWAP1 SLOAD SWAP1 PUSH2 0x100 EXP SWAP1 DIV PUSH1 0xFF AND ISZERO ISZERO EQ PUSH2 0x4E1 JUMPI PUSH1 0x40 MLOAD PUSH32 0x8C379A000000000000000000000000000000000000000000000000000000000 DUP2 MSTORE PUSH1 0x4 ADD PUSH2 0x4D8 SWAP1 PUSH2 0x16D0 JUMP JUMPDEST PUSH1 0x40 MLOAD DUP1 SWAP2 SUB SWAP1 REVERT JUMPDEST CALLER PUSH20 0xFFFFFFFFFFFFFFFFFFFFFFFFFFFFFFFFFFFFFFFF AND PUSH2 0x8FC PUSH1 0x14 DUP6 PUSH1 0x1 ADD PUSH1 0x0 DUP9 PUSH20 0xFFFFFFFFFFFFFFFFFFFFFFFFFFFFFFFFFFFFFFFF AND PUSH20 0xFFFFFFFFFFFFFFFFFFFFFFFFFFFFFFFFFFFFFFFF AND DUP2 MSTORE PUSH1 0x20 ADD SWAP1 DUP2 MSTORE PUSH1 0x20 ADD PUSH1 0x0 KECCAK256 SLOAD PUSH2 0x549 SWAP2 SWAP1 PUSH2 0x17AC JUMP JUMPDEST DUP6 PUSH1 0x1 ADD PUSH1 0x0 DUP9 PUSH20 0xFFFFFFFFFFFFFFFFFFFFFFFFFFFFFFFFFFFFFFFF AND PUSH20 0xFFFFFFFFFFFFFFFFFFFFFFFFFFFFFFFFFFFFFFFF AND DUP2 MSTORE PUSH1 0x20 ADD SWAP1 DUP2 MSTORE PUSH1 0x20 ADD PUSH1 0x0 KECCAK256 SLOAD PUSH2 0x595 SWAP2 SWAP1 PUSH2 0x17DD JUMP JUMPDEST SWAP1 DUP2 ISZERO MUL SWAP1 PUSH1 0x40 MLOAD PUSH1 0x0 PUSH1 0x40 MLOAD DUP1 DUP4 SUB DUP2 DUP6 DUP9 DUP9 CALL SWAP4 POP POP POP POP ISZERO DUP1 ISZERO PUSH2 0x5C0 JUMPI RETURNDATASIZE PUSH1 0x0 DUP1 RETURNDATACOPY RETURNDATASIZE PUSH1 0x0 REVERT JUMPDEST POP PUSH1 0x0 DUP2 PUSH20 0xFFFFFFFFFFFFFFFFFFFFFFFFFFFFFFFFFFFFFFFF AND PUSH4 0xD178227A DUP9 DUP9 PUSH1 0x40 MLOAD DUP4 PUSH4 0xFFFFFFFF AND PUSH1 0xE0 SHL DUP2 MSTORE PUSH1 0x4 ADD PUSH2 0x5FE SWAP3 SWAP2 SWAP1 PUSH2 0x1615 JUMP JUMPDEST PUSH1 0x20 PUSH1 0x40 MLOAD DUP1 DUP4 SUB DUP2 DUP7 DUP1 EXTCODESIZE ISZERO DUP1 ISZERO PUSH2 0x616 JUMPI PUSH1 0x0 DUP1 REVERT JUMPDEST POP GAS STATICCALL ISZERO DUP1 ISZERO PUSH2 0x62A JUMPI RETURNDATASIZE PUSH1 0x0 DUP1 RETURNDATACOPY RETURNDATASIZE PUSH1 0x0 REVERT JUMPDEST POP POP POP POP PUSH1 0x40 MLOAD RETURNDATASIZE PUSH1 0x1F NOT PUSH1 0x1F DUP3 ADD AND DUP3 ADD DUP1 PUSH1 0x40 MSTORE POP DUP2 ADD SWAP1 PUSH2 0x64E SWAP2 SWAP1 PUSH2 0x14E5 JUMP JUMPDEST GT ISZERO PUSH2 0xA09 JUMPI DUP1 PUSH20 0xFFFFFFFFFFFFFFFFFFFFFFFFFFFFFFFFFFFFFFFF AND PUSH4 0x8DA5CB5B PUSH1 0x40 MLOAD DUP2 PUSH4 0xFFFFFFFF AND PUSH1 0xE0 SHL DUP2 MSTORE PUSH1 0x4 ADD PUSH1 0x20 PUSH1 0x40 MLOAD DUP1 DUP4 SUB DUP2 DUP7 DUP1 EXTCODESIZE ISZERO DUP1 ISZERO PUSH2 0x69A JUMPI PUSH1 0x0 DUP1 REVERT JUMPDEST POP GAS STATICCALL ISZERO DUP1 ISZERO PUSH2 0x6AE JUMPI RETURNDATASIZE PUSH1 0x0 DUP1 RETURNDATACOPY RETURNDATASIZE PUSH1 0x0 REVERT JUMPDEST POP POP POP POP PUSH1 0x40 MLOAD RETURNDATASIZE PUSH1 0x1F NOT PUSH1 0x1F DUP3 ADD AND DUP3 ADD DUP1 PUSH1 0x40 MSTORE POP DUP2 ADD SWAP1 PUSH2 0x6D2 SWAP2 SWAP1 PUSH2 0x1411 JUMP JUMPDEST PUSH20 0xFFFFFFFFFFFFFFFFFFFFFFFFFFFFFFFFFFFFFFFF AND PUSH2 0x8FC PUSH1 0x28 DUP6 PUSH1 0x1 ADD PUSH1 0x0 DUP9 PUSH20 0xFFFFFFFFFFFFFFFFFFFFFFFFFFFFFFFFFFFFFFFF AND PUSH20 0xFFFFFFFFFFFFFFFFFFFFFFFFFFFFFFFFFFFFFFFF AND DUP2 MSTORE PUSH1 0x20 ADD SWAP1 DUP2 MSTORE PUSH1 0x20 ADD PUSH1 0x0 KECCAK256 SLOAD PUSH2 0x739 SWAP2 SWAP1 PUSH2 0x17AC JUMP JUMPDEST SWAP1 DUP2 ISZERO MUL SWAP1 PUSH1 0x40 MLOAD PUSH1 0x0 PUSH1 0x40 MLOAD DUP1 DUP4 SUB DUP2 DUP6 DUP9 DUP9 CALL SWAP4 POP POP POP POP ISZERO DUP1 ISZERO PUSH2 0x764 JUMPI RETURNDATASIZE PUSH1 0x0 DUP1 RETURNDATACOPY RETURNDATASIZE PUSH1 0x0 REVERT JUMPDEST POP PUSH1 0x0 JUMPDEST PUSH1 0x5 DUP2 LT ISZERO PUSH2 0xA03 JUMPI PUSH1 0x0 PUSH20 0xFFFFFFFFFFFFFFFFFFFFFFFFFFFFFFFFFFFFFFFF AND DUP3 PUSH20 0xFFFFFFFFFFFFFFFFFFFFFFFFFFFFFFFFFFFFFFFF AND PUSH4 0x2973D6F8 DUP10 DUP10 DUP6 PUSH1 0x40 MLOAD DUP5 PUSH4 0xFFFFFFFF AND PUSH1 0xE0 SHL DUP2 MSTORE PUSH1 0x4 ADD PUSH2 0x7C6 SWAP4 SWAP3 SWAP2 SWAP1 PUSH2 0x163E JUMP JUMPDEST PUSH1 0x20 PUSH1 0x40 MLOAD DUP1 DUP4 SUB DUP2 DUP7 DUP1 EXTCODESIZE ISZERO DUP1 ISZERO PUSH2 0x7DE JUMPI PUSH1 0x0 DUP1 REVERT JUMPDEST POP GAS STATICCALL ISZERO DUP1 ISZERO PUSH2 0x7F2 JUMPI RETURNDATASIZE PUSH1 0x0 DUP1 RETURNDATACOPY RETURNDATASIZE PUSH1 0x0 REVERT JUMPDEST POP POP POP POP PUSH1 0x40 MLOAD RETURNDATASIZE PUSH1 0x1F NOT PUSH1 0x1F DUP3 ADD AND DUP3 ADD DUP1 PUSH1 0x40 MSTORE POP DUP2 ADD SWAP1 PUSH2 0x816 SWAP2 SWAP1 PUSH2 0x1411 JUMP JUMPDEST PUSH20 0xFFFFFFFFFFFFFFFFFFFFFFFFFFFFFFFFFFFFFFFF AND EQ PUSH2 0x9EB JUMPI DUP2 PUSH20 0xFFFFFFFFFFFFFFFFFFFFFFFFFFFFFFFFFFFFFFFF AND PUSH4 0x2973D6F8 DUP9 DUP9 DUP5 PUSH1 0x40 MLOAD DUP5 PUSH4 0xFFFFFFFF AND PUSH1 0xE0 SHL DUP2 MSTORE PUSH1 0x4 ADD PUSH2 0x86E SWAP4 SWAP3 SWAP2 SWAP1 PUSH2 0x163E JUMP JUMPDEST PUSH1 0x20 PUSH1 0x40 MLOAD DUP1 DUP4 SUB DUP2 DUP7 DUP1 EXTCODESIZE ISZERO DUP1 ISZERO PUSH2 0x886 JUMPI PUSH1 0x0 DUP1 REVERT JUMPDEST POP GAS STATICCALL ISZERO DUP1 ISZERO PUSH2 0x89A JUMPI RETURNDATASIZE PUSH1 0x0 DUP1 RETURNDATACOPY RETURNDATASIZE PUSH1 0x0 REVERT JUMPDEST POP POP POP POP PUSH1 0x40 MLOAD RETURNDATASIZE PUSH1 0x1F NOT PUSH1 0x1F DUP3 ADD AND DUP3 ADD DUP1 PUSH1 0x40 MSTORE POP DUP2 ADD SWAP1 PUSH2 0x8BE SWAP2 SWAP1 PUSH2 0x1411 JUMP JUMPDEST PUSH20 0xFFFFFFFFFFFFFFFFFFFFFFFFFFFFFFFFFFFFFFFF AND PUSH2 0x8FC DUP4 PUSH20 0xFFFFFFFFFFFFFFFFFFFFFFFFFFFFFFFFFFFFFFFF AND PUSH4 0xD178227A DUP11 DUP11 PUSH1 0x40 MLOAD DUP4 PUSH4 0xFFFFFFFF AND PUSH1 0xE0 SHL DUP2 MSTORE PUSH1 0x4 ADD PUSH2 0x912 SWAP3 SWAP2 SWAP1 PUSH2 0x1615 JUMP JUMPDEST PUSH1 0x20 PUSH1 0x40 MLOAD DUP1 DUP4 SUB DUP2 DUP7 DUP1 EXTCODESIZE ISZERO DUP1 ISZERO PUSH2 0x92A JUMPI PUSH1 0x0 DUP1 REVERT JUMPDEST POP GAS STATICCALL ISZERO DUP1 ISZERO PUSH2 0x93E JUMPI RETURNDATASIZE PUSH1 0x0 DUP1 RETURNDATACOPY RETURNDATASIZE PUSH1 0x0 REVERT JUMPDEST POP POP POP POP PUSH1 0x40 MLOAD RETURNDATASIZE PUSH1 0x1F NOT PUSH1 0x1F DUP3 ADD AND DUP3 ADD DUP1 PUSH1 0x40 MSTORE POP DUP2 ADD SWAP1 PUSH2 0x962 SWAP2 SWAP1 PUSH2 0x14E5 JUMP JUMPDEST PUSH1 0x28 DUP8 PUSH1 0x1 ADD PUSH1 0x0 DUP11 PUSH20 0xFFFFFFFFFFFFFFFFFFFFFFFFFFFFFFFFFFFFFFFF AND PUSH20 0xFFFFFFFFFFFFFFFFFFFFFFFFFFFFFFFFFFFFFFFF AND DUP2 MSTORE PUSH1 0x20 ADD SWAP1 DUP2 MSTORE PUSH1 0x20 ADD PUSH1 0x0 KECCAK256 SLOAD PUSH2 0x9B0 SWAP2 SWAP1 PUSH2 0x17AC JUMP JUMPDEST PUSH2 0x9BA SWAP2 SWAP1 PUSH2 0x17AC JUMP JUMPDEST SWAP1 DUP2 ISZERO MUL SWAP1 PUSH1 0x40 MLOAD PUSH1 0x0 PUSH1 0x40 MLOAD DUP1 DUP4 SUB DUP2 DUP6 DUP9 DUP9 CALL SWAP4 POP POP POP POP ISZERO DUP1 ISZERO PUSH2 0x9E5 JUMPI RETURNDATASIZE PUSH1 0x0 DUP1 RETURNDATACOPY RETURNDATASIZE PUSH1 0x0 REVERT JUMPDEST POP PUSH2 0x9F0 JUMP JUMPDEST PUSH2 0xA03 JUMP JUMPDEST DUP1 DUP1 PUSH2 0x9FB SWAP1 PUSH2 0x1859 JUMP JUMPDEST SWAP2 POP POP PUSH2 0x768 JUMP JUMPDEST POP PUSH2 0xB1B JUMP JUMPDEST DUP1 PUSH20 0xFFFFFFFFFFFFFFFFFFFFFFFFFFFFFFFFFFFFFFFF AND PUSH4 0x8DA5CB5B PUSH1 0x40 MLOAD DUP2 PUSH4 0xFFFFFFFF AND PUSH1 0xE0 SHL DUP2 MSTORE PUSH1 0x4 ADD PUSH1 0x20 PUSH1 0x40 MLOAD DUP1 DUP4 SUB DUP2 DUP7 DUP1 EXTCODESIZE ISZERO DUP1 ISZERO PUSH2 0xA4F JUMPI PUSH1 0x0 DUP1 REVERT JUMPDEST POP GAS STATICCALL ISZERO DUP1 ISZERO PUSH2 0xA63 JUMPI RETURNDATASIZE PUSH1 0x0 DUP1 RETURNDATACOPY RETURNDATASIZE PUSH1 0x0 REVERT JUMPDEST POP POP POP POP PUSH1 0x40 MLOAD RETURNDATASIZE PUSH1 0x1F NOT PUSH1 0x1F DUP3 ADD AND DUP3 ADD DUP1 PUSH1 0x40 MSTORE POP DUP2 ADD SWAP1 PUSH2 0xA87 SWAP2 SWAP1 PUSH2 0x1411 JUMP JUMPDEST PUSH20 0xFFFFFFFFFFFFFFFFFFFFFFFFFFFFFFFFFFFFFFFF AND PUSH2 0x8FC PUSH1 0x14 DUP6 PUSH1 0x1 ADD PUSH1 0x0 DUP9 PUSH20 0xFFFFFFFFFFFFFFFFFFFFFFFFFFFFFFFFFFFFFFFF AND PUSH20 0xFFFFFFFFFFFFFFFFFFFFFFFFFFFFFFFFFFFFFFFF AND DUP2 MSTORE PUSH1 0x20 ADD SWAP1 DUP2 MSTORE PUSH1 0x20 ADD PUSH1 0x0 KECCAK256 SLOAD PUSH2 0xAEE SWAP2 SWAP1 PUSH2 0x17AC JUMP JUMPDEST SWAP1 DUP2 ISZERO MUL SWAP1 PUSH1 0x40 MLOAD PUSH1 0x0 PUSH1 0x40 MLOAD DUP1 DUP4 SUB DUP2 DUP6 DUP9 DUP9 CALL SWAP4 POP POP POP POP ISZERO DUP1 ISZERO PUSH2 0xB19 JUMPI RETURNDATASIZE PUSH1 0x0 DUP1 RETURNDATACOPY RETURNDATASIZE PUSH1 0x0 REVERT JUMPDEST POP JUMPDEST DUP3 PUSH1 0x1 ADD PUSH1 0x0 DUP6 PUSH20 0xFFFFFFFFFFFFFFFFFFFFFFFFFFFFFFFFFFFFFFFF AND PUSH20 0xFFFFFFFFFFFFFFFFFFFFFFFFFFFFFFFFFFFFFFFF AND DUP2 MSTORE PUSH1 0x20 ADD SWAP1 DUP2 MSTORE PUSH1 0x20 ADD PUSH1 0x0 KECCAK256 SLOAD PUSH1 0x1 PUSH1 0x0 DUP3 DUP3 SLOAD PUSH2 0xB6E SWAP2 SWAP1 PUSH2 0x17DD JUMP JUMPDEST SWAP3 POP POP DUP2 SWAP1 SSTORE POP PUSH1 0x0 PUSH1 0x1 DUP5 PUSH1 0x0 ADD DUP1 SLOAD SWAP1 POP PUSH2 0xB8B SWAP2 SWAP1 PUSH2 0x17DD JUMP JUMPDEST SWAP1 POP DUP4 PUSH1 0x0 ADD DUP2 DUP2 SLOAD DUP2 LT PUSH2 0xBA3 JUMPI PUSH2 0xBA2 PUSH2 0x192F JUMP JUMPDEST JUMPDEST SWAP1 PUSH1 0x0 MSTORE PUSH1 0x20 PUSH1 0x0 KECCAK256 ADD PUSH1 0x0 SWAP1 SLOAD SWAP1 PUSH2 0x100 EXP SWAP1 DIV PUSH20 0xFFFFFFFFFFFFFFFFFFFFFFFFFFFFFFFFFFFFFFFF AND PUSH20 0xFFFFFFFFFFFFFFFFFFFFFFFFFFFFFFFFFFFFFFFF AND DUP6 PUSH20 0xFFFFFFFFFFFFFFFFFFFFFFFFFFFFFFFFFFFFFFFF AND EQ ISZERO PUSH2 0xC4F JUMPI DUP4 PUSH1 0x0 ADD DUP1 SLOAD DUP1 PUSH2 0xC15 JUMPI PUSH2 0xC14 PUSH2 0x1900 JUMP JUMPDEST JUMPDEST PUSH1 0x1 SWAP1 SUB DUP2 DUP2 SWAP1 PUSH1 0x0 MSTORE PUSH1 0x20 PUSH1 0x0 KECCAK256 ADD PUSH1 0x0 PUSH2 0x100 EXP DUP2 SLOAD SWAP1 PUSH20 0xFFFFFFFFFFFFFFFFFFFFFFFFFFFFFFFFFFFFFFFF MUL NOT AND SWAP1 SSTORE SWAP1 SSTORE PUSH2 0xDD7 JUMP JUMPDEST PUSH1 0x0 JUMPDEST DUP5 PUSH1 0x0 ADD DUP1 SLOAD SWAP1 POP DUP2 LT ISZERO PUSH2 0xDD5 JUMPI DUP6 PUSH20 0xFFFFFFFFFFFFFFFFFFFFFFFFFFFFFFFFFFFFFFFF AND DUP6 PUSH1 0x0 ADD DUP3 DUP2 SLOAD DUP2 LT PUSH2 0xC8E JUMPI PUSH2 0xC8D PUSH2 0x192F JUMP JUMPDEST JUMPDEST SWAP1 PUSH1 0x0 MSTORE PUSH1 0x20 PUSH1 0x0 KECCAK256 ADD PUSH1 0x0 SWAP1 SLOAD SWAP1 PUSH2 0x100 EXP SWAP1 DIV PUSH20 0xFFFFFFFFFFFFFFFFFFFFFFFFFFFFFFFFFFFFFFFF AND PUSH20 0xFFFFFFFFFFFFFFFFFFFFFFFFFFFFFFFFFFFFFFFF AND EQ ISZERO PUSH2 0xDC2 JUMPI DUP5 PUSH1 0x0 ADD DUP3 DUP2 SLOAD DUP2 LT PUSH2 0xCEB JUMPI PUSH2 0xCEA PUSH2 0x192F JUMP JUMPDEST JUMPDEST SWAP1 PUSH1 0x0 MSTORE PUSH1 0x20 PUSH1 0x0 KECCAK256 ADD PUSH1 0x0 SWAP1 SLOAD SWAP1 PUSH2 0x100 EXP SWAP1 DIV PUSH20 0xFFFFFFFFFFFFFFFFFFFFFFFFFFFFFFFFFFFFFFFF AND DUP6 PUSH1 0x0 ADD DUP3 DUP2 SLOAD DUP2 LT PUSH2 0xD2C JUMPI PUSH2 0xD2B PUSH2 0x192F JUMP JUMPDEST JUMPDEST SWAP1 PUSH1 0x0 MSTORE PUSH1 0x20 PUSH1 0x0 KECCAK256 ADD PUSH1 0x0 PUSH2 0x100 EXP DUP2 SLOAD DUP2 PUSH20 0xFFFFFFFFFFFFFFFFFFFFFFFFFFFFFFFFFFFFFFFF MUL NOT AND SWAP1 DUP4 PUSH20 0xFFFFFFFFFFFFFFFFFFFFFFFFFFFFFFFFFFFFFFFF AND MUL OR SWAP1 SSTORE POP DUP5 PUSH1 0x0 ADD DUP1 SLOAD DUP1 PUSH2 0xD88 JUMPI PUSH2 0xD87 PUSH2 0x1900 JUMP JUMPDEST JUMPDEST PUSH1 0x1 SWAP1 SUB DUP2 DUP2 SWAP1 PUSH1 0x0 MSTORE PUSH1 0x20 PUSH1 0x0 KECCAK256 ADD PUSH1 0x0 PUSH2 0x100 EXP DUP2 SLOAD SWAP1 PUSH20 0xFFFFFFFFFFFFFFFFFFFFFFFFFFFFFFFFFFFFFFFF MUL NOT AND SWAP1 SSTORE SWAP1 SSTORE PUSH2 0xDD5 JUMP JUMPDEST DUP1 DUP1 PUSH2 0xDCD SWAP1 PUSH2 0x1859 JUMP JUMPDEST SWAP2 POP POP PUSH2 0xC52 JUMP JUMPDEST POP JUMPDEST PUSH1 0x0 DUP5 PUSH1 0x0 ADD DUP1 SLOAD SWAP1 POP GT PUSH2 0xE04 JUMPI PUSH1 0x0 DUP5 PUSH1 0x2 ADD PUSH1 0x0 PUSH2 0x100 EXP DUP2 SLOAD DUP2 PUSH1 0xFF MUL NOT AND SWAP1 DUP4 ISZERO ISZERO MUL OR SWAP1 SSTORE POP JUMPDEST DUP3 PUSH20 0xFFFFFFFFFFFFFFFFFFFFFFFFFFFFFFFFFFFFFFFF AND PUSH4 0xB88D4FDE CALLER DUP8 DUP10 PUSH1 0x40 MLOAD DUP5 PUSH4 0xFFFFFFFF AND PUSH1 0xE0 SHL DUP2 MSTORE PUSH1 0x4 ADD PUSH2 0xE41 SWAP4 SWAP3 SWAP2 SWAP1 PUSH2 0x15CB JUMP JUMPDEST PUSH1 0x0 PUSH1 0x40 MLOAD DUP1 DUP4 SUB DUP2 PUSH1 0x0 DUP8 DUP1 EXTCODESIZE ISZERO DUP1 ISZERO PUSH2 0xE5B JUMPI PUSH1 0x0 DUP1 REVERT JUMPDEST POP GAS CALL ISZERO DUP1 ISZERO PUSH2 0xE6F JUMPI RETURNDATASIZE PUSH1 0x0 DUP1 RETURNDATACOPY RETURNDATASIZE PUSH1 0x0 REVERT JUMPDEST POP POP POP POP DUP6 DUP8 PUSH20 0xFFFFFFFFFFFFFFFFFFFFFFFFFFFFFFFFFFFFFFFF AND PUSH32 0x9663DB6E9B1F015A82BEB1B03EC8FED9D1A25B5DA31B2CC92C2BE9E8C629A80D PUSH1 0x0 PUSH1 0x40 MLOAD PUSH2 0xEBB SWAP2 SWAP1 PUSH2 0x1675 JUMP JUMPDEST PUSH1 0x40 MLOAD DUP1 SWAP2 SUB SWAP1 LOG3 POP POP POP POP POP POP POP POP JUMP JUMPDEST PUSH1 0x0 DUP1 PUSH1 0x0 DUP5 PUSH20 0xFFFFFFFFFFFFFFFFFFFFFFFFFFFFFFFFFFFFFFFF AND PUSH20 0xFFFFFFFFFFFFFFFFFFFFFFFFFFFFFFFFFFFFFFFF AND DUP2 MSTORE PUSH1 0x20 ADD SWAP1 DUP2 MSTORE PUSH1 0x20 ADD PUSH1 0x0 KECCAK256 PUSH1 0x0 DUP4 DUP2 MSTORE PUSH1 0x20 ADD SWAP1 DUP2 MSTORE PUSH1 0x20 ADD PUSH1 0x0 KECCAK256 SWAP1 POP PUSH1 0x0 DUP2 PUSH1 0x1 ADD PUSH1 0x0 CALLER PUSH20 0xFFFFFFFFFFFFFFFFFFFFFFFFFFFFFFFFFFFFFFFF AND PUSH20 0xFFFFFFFFFFFFFFFFFFFFFFFFFFFFFFFFFFFFFFFF AND DUP2 MSTORE PUSH1 0x20 ADD SWAP1 DUP2 MSTORE PUSH1 0x20 ADD PUSH1 0x0 KECCAK256 SLOAD GT PUSH2 0xFA4 JUMPI PUSH1 0x40 MLOAD PUSH32 0x8C379A000000000000000000000000000000000000000000000000000000000 DUP2 MSTORE PUSH1 0x4 ADD PUSH2 0xF9B SWAP1 PUSH2 0x1690 JUMP JUMPDEST PUSH1 0x40 MLOAD DUP1 SWAP2 SUB SWAP1 REVERT JUMPDEST PUSH1 0x0 PUSH1 0x1 DUP3 PUSH1 0x0 ADD DUP1 SLOAD SWAP1 POP PUSH2 0xFBA SWAP2 SWAP1 PUSH2 0x17DD JUMP JUMPDEST SWAP1 POP DUP2 PUSH1 0x0 ADD DUP2 DUP2 SLOAD DUP2 LT PUSH2 0xFD2 JUMPI PUSH2 0xFD1 PUSH2 0x192F JUMP JUMPDEST JUMPDEST SWAP1 PUSH1 0x0 MSTORE PUSH1 0x20 PUSH1 0x0 KECCAK256 ADD PUSH1 0x0 SWAP1 SLOAD SWAP1 PUSH2 0x100 EXP SWAP1 DIV PUSH20 0xFFFFFFFFFFFFFFFFFFFFFFFFFFFFFFFFFFFFFFFF AND PUSH20 0xFFFFFFFFFFFFFFFFFFFFFFFFFFFFFFFFFFFFFFFF AND CALLER PUSH20 0xFFFFFFFFFFFFFFFFFFFFFFFFFFFFFFFFFFFFFFFF AND EQ ISZERO PUSH2 0x107E JUMPI DUP2 PUSH1 0x0 ADD DUP1 SLOAD DUP1 PUSH2 0x1044 JUMPI PUSH2 0x1043 PUSH2 0x1900 JUMP JUMPDEST JUMPDEST PUSH1 0x1 SWAP1 SUB DUP2 DUP2 SWAP1 PUSH1 0x0 MSTORE PUSH1 0x20 PUSH1 0x0 KECCAK256 ADD PUSH1 0x0 PUSH2 0x100 EXP DUP2 SLOAD SWAP1 PUSH20 0xFFFFFFFFFFFFFFFFFFFFFFFFFFFFFFFFFFFFFFFF MUL NOT AND SWAP1 SSTORE SWAP1 SSTORE PUSH2 0x1206 JUMP JUMPDEST PUSH1 0x0 JUMPDEST DUP3 PUSH1 0x0 ADD DUP1 SLOAD SWAP1 POP DUP2 LT ISZERO PUSH2 0x1204 JUMPI CALLER PUSH20 0xFFFFFFFFFFFFFFFFFFFFFFFFFFFFFFFFFFFFFFFF AND DUP4 PUSH1 0x0 ADD DUP3 DUP2 SLOAD DUP2 LT PUSH2 0x10BD JUMPI PUSH2 0x10BC PUSH2 0x192F JUMP JUMPDEST JUMPDEST SWAP1 PUSH1 0x0 MSTORE PUSH1 0x20 PUSH1 0x0 KECCAK256 ADD PUSH1 0x0 SWAP1 SLOAD SWAP1 PUSH2 0x100 EXP SWAP1 DIV PUSH20 0xFFFFFFFFFFFFFFFFFFFFFFFFFFFFFFFFFFFFFFFF AND PUSH20 0xFFFFFFFFFFFFFFFFFFFFFFFFFFFFFFFFFFFFFFFF AND EQ ISZERO PUSH2 0x11F1 JUMPI DUP3 PUSH1 0x0 ADD DUP3 DUP2 SLOAD DUP2 LT PUSH2 0x111A JUMPI PUSH2 0x1119 PUSH2 0x192F JUMP JUMPDEST JUMPDEST SWAP1 PUSH1 0x0 MSTORE PUSH1 0x20 PUSH1 0x0 KECCAK256 ADD PUSH1 0x0 SWAP1 SLOAD SWAP1 PUSH2 0x100 EXP SWAP1 DIV PUSH20 0xFFFFFFFFFFFFFFFFFFFFFFFFFFFFFFFFFFFFFFFF AND DUP4 PUSH1 0x0 ADD DUP3 DUP2 SLOAD DUP2 LT PUSH2 0x115B JUMPI PUSH2 0x115A PUSH2 0x192F JUMP JUMPDEST JUMPDEST SWAP1 PUSH1 0x0 MSTORE PUSH1 0x20 PUSH1 0x0 KECCAK256 ADD PUSH1 0x0 PUSH2 0x100 EXP DUP2 SLOAD DUP2 PUSH20 0xFFFFFFFFFFFFFFFFFFFFFFFFFFFFFFFFFFFFFFFF MUL NOT AND SWAP1 DUP4 PUSH20 0xFFFFFFFFFFFFFFFFFFFFFFFFFFFFFFFFFFFFFFFF AND MUL OR SWAP1 SSTORE POP DUP3 PUSH1 0x0 ADD DUP1 SLOAD DUP1 PUSH2 0x11B7 JUMPI PUSH2 0x11B6 PUSH2 0x1900 JUMP JUMPDEST JUMPDEST PUSH1 0x1 SWAP1 SUB DUP2 DUP2 SWAP1 PUSH1 0x0 MSTORE PUSH1 0x20 PUSH1 0x0 KECCAK256 ADD PUSH1 0x0 PUSH2 0x100 EXP DUP2 SLOAD SWAP1 PUSH20 0xFFFFFFFFFFFFFFFFFFFFFFFFFFFFFFFFFFFFFFFF MUL NOT AND SWAP1 SSTORE SWAP1 SSTORE PUSH2 0x1204 JUMP JUMPDEST DUP1 DUP1 PUSH2 0x11FC SWAP1 PUSH2 0x1859 JUMP JUMPDEST SWAP2 POP POP PUSH2 0x1081 JUMP JUMPDEST POP JUMPDEST PUSH1 0x0 DUP3 PUSH1 0x0 ADD DUP1 SLOAD SWAP1 POP GT PUSH2 0x1233 JUMPI PUSH1 0x0 DUP3 PUSH1 0x2 ADD PUSH1 0x0 PUSH2 0x100 EXP DUP2 SLOAD DUP2 PUSH1 0xFF MUL NOT AND SWAP1 DUP4 ISZERO ISZERO MUL OR SWAP1 SSTORE POP JUMPDEST CALLER PUSH20 0xFFFFFFFFFFFFFFFFFFFFFFFFFFFFFFFFFFFFFFFF AND PUSH2 0x8FC DUP4 PUSH1 0x1 ADD PUSH1 0x0 CALLER PUSH20 0xFFFFFFFFFFFFFFFFFFFFFFFFFFFFFFFFFFFFFFFF AND PUSH20 0xFFFFFFFFFFFFFFFFFFFFFFFFFFFFFFFFFFFFFFFF AND DUP2 MSTORE PUSH1 0x20 ADD SWAP1 DUP2 MSTORE PUSH1 0x20 ADD PUSH1 0x0 KECCAK256 SLOAD SWAP1 DUP2 ISZERO MUL SWAP1 PUSH1 0x40 MLOAD PUSH1 0x0 PUSH1 0x40 MLOAD DUP1 DUP4 SUB DUP2 DUP6 DUP9 DUP9 CALL SWAP4 POP POP POP POP ISZERO DUP1 ISZERO PUSH2 0x12BA JUMPI RETURNDATASIZE PUSH1 0x0 DUP1 RETURNDATACOPY RETURNDATASIZE PUSH1 0x0 REVERT JUMPDEST POP DUP2 PUSH1 0x1 ADD PUSH1 0x0 CALLER PUSH20 0xFFFFFFFFFFFFFFFFFFFFFFFFFFFFFFFFFFFFFFFF AND PUSH20 0xFFFFFFFFFFFFFFFFFFFFFFFFFFFFFFFFFFFFFFFF AND DUP2 MSTORE PUSH1 0x20 ADD SWAP1 DUP2 MSTORE PUSH1 0x20 ADD PUSH1 0x0 KECCAK256 SLOAD PUSH1 0x1 PUSH1 0x0 DUP3 DUP3 SLOAD PUSH2 0x130E SWAP2 SWAP1 PUSH2 0x17DD JUMP JUMPDEST SWAP3 POP POP DUP2 SWAP1 SSTORE POP PUSH1 0x0 DUP3 PUSH1 0x1 ADD PUSH1 0x0 CALLER PUSH20 0xFFFFFFFFFFFFFFFFFFFFFFFFFFFFFFFFFFFFFFFF AND PUSH20 0xFFFFFFFFFFFFFFFFFFFFFFFFFFFFFFFFFFFFFFFF AND DUP2 MSTORE PUSH1 0x20 ADD SWAP1 DUP2 MSTORE PUSH1 0x20 ADD PUSH1 0x0 KECCAK256 DUP2 SWAP1 SSTORE POP CALLER PUSH20 0xFFFFFFFFFFFFFFFFFFFFFFFFFFFFFFFFFFFFFFFF AND DUP4 DUP6 PUSH20 0xFFFFFFFFFFFFFFFFFFFFFFFFFFFFFFFFFFFFFFFF AND PUSH32 0x5EEE4DE26CD3C0F49F086164989C02CD12D97A964804BC188EE593E26FB98186 PUSH1 0x40 MLOAD PUSH1 0x40 MLOAD DUP1 SWAP2 SUB SWAP1 LOG4 POP POP POP POP JUMP JUMPDEST PUSH1 0x0 DUP2 CALLDATALOAD SWAP1 POP PUSH2 0x13CC DUP2 PUSH2 0x19E1 JUMP JUMPDEST SWAP3 SWAP2 POP POP JUMP JUMPDEST PUSH1 0x0 DUP2 MLOAD SWAP1 POP PUSH2 0x13E1 DUP2 PUSH2 0x19E1 JUMP JUMPDEST SWAP3 SWAP2 POP POP JUMP JUMPDEST PUSH1 0x0 DUP2 CALLDATALOAD SWAP1 POP PUSH2 0x13F6 DUP2 PUSH2 0x19F8 JUMP JUMPDEST SWAP3 SWAP2 POP POP JUMP JUMPDEST PUSH1 0x0 DUP2 MLOAD SWAP1 POP PUSH2 0x140B DUP2 PUSH2 0x19F8 JUMP JUMPDEST SWAP3 SWAP2 POP POP JUMP JUMPDEST PUSH1 0x0 PUSH1 0x20 DUP3 DUP5 SUB SLT ISZERO PUSH2 0x1427 JUMPI PUSH2 0x1426 PUSH2 0x195E JUMP JUMPDEST JUMPDEST PUSH1 0x0 PUSH2 0x1435 DUP5 DUP3 DUP6 ADD PUSH2 0x13D2 JUMP JUMPDEST SWAP2 POP POP SWAP3 SWAP2 POP POP JUMP JUMPDEST PUSH1 0x0 DUP1 PUSH1 0x0 DUP1 PUSH1 0x80 DUP6 DUP8 SUB SLT ISZERO PUSH2 0x1458 JUMPI PUSH2 0x1457 PUSH2 0x195E JUMP JUMPDEST JUMPDEST PUSH1 0x0 PUSH2 0x1466 DUP8 DUP3 DUP9 ADD PUSH2 0x13BD JUMP JUMPDEST SWAP5 POP POP PUSH1 0x20 PUSH2 0x1477 DUP8 DUP3 DUP9 ADD PUSH2 0x13BD JUMP JUMPDEST SWAP4 POP POP PUSH1 0x40 PUSH2 0x1488 DUP8 DUP3 DUP9 ADD PUSH2 0x13E7 JUMP JUMPDEST SWAP3 POP POP PUSH1 0x60 PUSH2 0x1499 DUP8 DUP3 DUP9 ADD PUSH2 0x13BD JUMP JUMPDEST SWAP2 POP POP SWAP3 SWAP6 SWAP2 SWAP5 POP SWAP3 POP JUMP JUMPDEST PUSH1 0x0 DUP1 PUSH1 0x40 DUP4 DUP6 SUB SLT ISZERO PUSH2 0x14BC JUMPI PUSH2 0x14BB PUSH2 0x195E JUMP JUMPDEST JUMPDEST PUSH1 0x0 PUSH2 0x14CA DUP6 DUP3 DUP7 ADD PUSH2 0x13BD JUMP JUMPDEST SWAP3 POP POP PUSH1 0x20 PUSH2 0x14DB DUP6 DUP3 DUP7 ADD PUSH2 0x13E7 JUMP JUMPDEST SWAP2 POP POP SWAP3 POP SWAP3 SWAP1 POP JUMP JUMPDEST PUSH1 0x0 PUSH1 0x20 DUP3 DUP5 SUB SLT ISZERO PUSH2 0x14FB JUMPI PUSH2 0x14FA PUSH2 0x195E JUMP JUMPDEST JUMPDEST PUSH1 0x0 PUSH2 0x1509 DUP5 DUP3 DUP6 ADD PUSH2 0x13FC JUMP JUMPDEST SWAP2 POP POP SWAP3 SWAP2 POP POP JUMP JUMPDEST PUSH2 0x151B DUP2 PUSH2 0x1811 JUMP JUMPDEST DUP3 MSTORE POP POP JUMP JUMPDEST PUSH2 0x152A DUP2 PUSH2 0x1823 JUMP JUMPDEST DUP3 MSTORE POP POP JUMP JUMPDEST PUSH1 0x0 PUSH2 0x153D PUSH1 0xB DUP4 PUSH2 0x1745 JUMP JUMPDEST SWAP2 POP PUSH2 0x1548 DUP3 PUSH2 0x1963 JUMP JUMPDEST PUSH1 0x20 DUP3 ADD SWAP1 POP SWAP2 SWAP1 POP JUMP JUMPDEST PUSH1 0x0 PUSH2 0x1560 PUSH1 0xD DUP4 PUSH2 0x1745 JUMP JUMPDEST SWAP2 POP PUSH2 0x156B DUP3 PUSH2 0x198C JUMP JUMPDEST PUSH1 0x20 DUP3 ADD SWAP1 POP SWAP2 SWAP1 POP JUMP JUMPDEST PUSH1 0x0 PUSH2 0x1583 PUSH1 0x9 DUP4 PUSH2 0x1745 JUMP JUMPDEST SWAP2 POP PUSH2 0x158E DUP3 PUSH2 0x19B5 JUMP JUMPDEST PUSH1 0x20 DUP3 ADD SWAP1 POP SWAP2 SWAP1 POP JUMP JUMPDEST PUSH1 0x0 PUSH2 0x15A6 PUSH1 0x0 DUP4 PUSH2 0x1734 JUMP JUMPDEST SWAP2 POP PUSH2 0x15B1 DUP3 PUSH2 0x19DE JUMP JUMPDEST PUSH1 0x0 DUP3 ADD SWAP1 POP SWAP2 SWAP1 POP JUMP JUMPDEST PUSH2 0x15C5 DUP2 PUSH2 0x184F JUMP JUMPDEST DUP3 MSTORE POP POP JUMP JUMPDEST PUSH1 0x0 PUSH1 0x80 DUP3 ADD SWAP1 POP PUSH2 0x15E0 PUSH1 0x0 DUP4 ADD DUP7 PUSH2 0x1512 JUMP JUMPDEST PUSH2 0x15ED PUSH1 0x20 DUP4 ADD DUP6 PUSH2 0x1512 JUMP JUMPDEST PUSH2 0x15FA PUSH1 0x40 DUP4 ADD DUP5 PUSH2 0x15BC JUMP JUMPDEST DUP2 DUP2 SUB PUSH1 0x60 DUP4 ADD MSTORE PUSH2 0x160B DUP2 PUSH2 0x1599 JUMP JUMPDEST SWAP1 POP SWAP5 SWAP4 POP POP POP POP JUMP JUMPDEST PUSH1 0x0 PUSH1 0x40 DUP3 ADD SWAP1 POP PUSH2 0x162A PUSH1 0x0 DUP4 ADD DUP6 PUSH2 0x1512 JUMP JUMPDEST PUSH2 0x1637 PUSH1 0x20 DUP4 ADD DUP5 PUSH2 0x15BC JUMP JUMPDEST SWAP4 SWAP3 POP POP POP JUMP JUMPDEST PUSH1 0x0 PUSH1 0x60 DUP3 ADD SWAP1 POP PUSH2 0x1653 PUSH1 0x0 DUP4 ADD DUP7 PUSH2 0x1512 JUMP JUMPDEST PUSH2 0x1660 PUSH1 0x20 DUP4 ADD DUP6 PUSH2 0x15BC JUMP JUMPDEST PUSH2 0x166D PUSH1 0x40 DUP4 ADD DUP5 PUSH2 0x15BC JUMP JUMPDEST SWAP5 SWAP4 POP POP POP POP JUMP JUMPDEST PUSH1 0x0 PUSH1 0x20 DUP3 ADD SWAP1 POP PUSH2 0x168A PUSH1 0x0 DUP4 ADD DUP5 PUSH2 0x1521 JUMP JUMPDEST SWAP3 SWAP2 POP POP JUMP JUMPDEST PUSH1 0x0 PUSH1 0x20 DUP3 ADD SWAP1 POP DUP2 DUP2 SUB PUSH1 0x0 DUP4 ADD MSTORE PUSH2 0x16A9 DUP2 PUSH2 0x1530 JUMP JUMPDEST SWAP1 POP SWAP2 SWAP1 POP JUMP JUMPDEST PUSH1 0x0 PUSH1 0x20 DUP3 ADD SWAP1 POP DUP2 DUP2 SUB PUSH1 0x0 DUP4 ADD MSTORE PUSH2 0x16C9 DUP2 PUSH2 0x1553 JUMP JUMPDEST SWAP1 POP SWAP2 SWAP1 POP JUMP JUMPDEST PUSH1 0x0 PUSH1 0x20 DUP3 ADD SWAP1 POP DUP2 DUP2 SUB PUSH1 0x0 DUP4 ADD MSTORE PUSH2 0x16E9 DUP2 PUSH2 0x1576 JUMP JUMPDEST SWAP1 POP SWAP2 SWAP1 POP JUMP JUMPDEST PUSH1 0x0 PUSH1 0x20 DUP3 ADD SWAP1 POP PUSH2 0x1705 PUSH1 0x0 DUP4 ADD DUP5 PUSH2 0x15BC JUMP JUMPDEST SWAP3 SWAP2 POP POP JUMP JUMPDEST PUSH1 0x0 PUSH1 0x40 DUP3 ADD SWAP1 POP PUSH2 0x1720 PUSH1 0x0 DUP4 ADD DUP6 PUSH2 0x15BC JUMP JUMPDEST PUSH2 0x172D PUSH1 0x20 DUP4 ADD DUP5 PUSH2 0x1521 JUMP JUMPDEST SWAP4 SWAP3 POP POP POP JUMP JUMPDEST PUSH1 0x0 DUP3 DUP3 MSTORE PUSH1 0x20 DUP3 ADD SWAP1 POP SWAP3 SWAP2 POP POP JUMP JUMPDEST PUSH1 0x0 DUP3 DUP3 MSTORE PUSH1 0x20 DUP3 ADD SWAP1 POP SWAP3 SWAP2 POP POP JUMP JUMPDEST PUSH1 0x0 PUSH2 0x1761 DUP3 PUSH2 0x184F JUMP JUMPDEST SWAP2 POP PUSH2 0x176C DUP4 PUSH2 0x184F JUMP JUMPDEST SWAP3 POP DUP3 PUSH32 0xFFFFFFFFFFFFFFFFFFFFFFFFFFFFFFFFFFFFFFFFFFFFFFFFFFFFFFFFFFFFFFFF SUB DUP3 GT ISZERO PUSH2 0x17A1 JUMPI PUSH2 0x17A0 PUSH2 0x18A2 JUMP JUMPDEST JUMPDEST DUP3 DUP3 ADD SWAP1 POP SWAP3 SWAP2 POP POP JUMP JUMPDEST PUSH1 0x0 PUSH2 0x17B7 DUP3 PUSH2 0x184F JUMP JUMPDEST SWAP2 POP PUSH2 0x17C2 DUP4 PUSH2 0x184F JUMP JUMPDEST SWAP3 POP DUP3 PUSH2 0x17D2 JUMPI PUSH2 0x17D1 PUSH2 0x18D1 JUMP JUMPDEST JUMPDEST DUP3 DUP3 DIV SWAP1 POP SWAP3 SWAP2 POP POP JUMP JUMPDEST PUSH1 0x0 PUSH2 0x17E8 DUP3 PUSH2 0x184F JUMP JUMPDEST SWAP2 POP PUSH2 0x17F3 DUP4 PUSH2 0x184F JUMP JUMPDEST SWAP3 POP DUP3 DUP3 LT ISZERO PUSH2 0x1806 JUMPI PUSH2 0x1805 PUSH2 0x18A2 JUMP JUMPDEST JUMPDEST DUP3 DUP3 SUB SWAP1 POP SWAP3 SWAP2 POP POP JUMP JUMPDEST PUSH1 0x0 PUSH2 0x181C DUP3 PUSH2 0x182F JUMP JUMPDEST SWAP1 POP SWAP2 SWAP1 POP JUMP JUMPDEST PUSH1 0x0 DUP2 ISZERO ISZERO SWAP1 POP SWAP2 SWAP1 POP JUMP JUMPDEST PUSH1 0x0 PUSH20 0xFFFFFFFFFFFFFFFFFFFFFFFFFFFFFFFFFFFFFFFF DUP3 AND SWAP1 POP SWAP2 SWAP1 POP JUMP JUMPDEST PUSH1 0x0 DUP2 SWAP1 POP SWAP2 SWAP1 POP JUMP JUMPDEST PUSH1 0x0 PUSH2 0x1864 DUP3 PUSH2 0x184F JUMP JUMPDEST SWAP2 POP PUSH32 0xFFFFFFFFFFFFFFFFFFFFFFFFFFFFFFFFFFFFFFFFFFFFFFFFFFFFFFFFFFFFFFFF DUP3 EQ ISZERO PUSH2 0x1897 JUMPI PUSH2 0x1896 PUSH2 0x18A2 JUMP JUMPDEST JUMPDEST PUSH1 0x1 DUP3 ADD SWAP1 POP SWAP2 SWAP1 POP JUMP JUMPDEST PUSH32 0x4E487B7100000000000000000000000000000000000000000000000000000000 PUSH1 0x0 MSTORE PUSH1 0x11 PUSH1 0x4 MSTORE PUSH1 0x24 PUSH1 0x0 REVERT JUMPDEST PUSH32 0x4E487B7100000000000000000000000000000000000000000000000000000000 PUSH1 0x0 MSTORE PUSH1 0x12 PUSH1 0x4 MSTORE PUSH1 0x24 PUSH1 0x0 REVERT JUMPDEST PUSH32 0x4E487B7100000000000000000000000000000000000000000000000000000000 PUSH1 0x0 MSTORE PUSH1 0x31 PUSH1 0x4 MSTORE PUSH1 0x24 PUSH1 0x0 REVERT JUMPDEST PUSH32 0x4E487B7100000000000000000000000000000000000000000000000000000000 PUSH1 0x0 MSTORE PUSH1 0x32 PUSH1 0x4 MSTORE PUSH1 0x24 PUSH1 0x0 REVERT JUMPDEST PUSH1 0x0 DUP1 REVERT JUMPDEST PUSH32 0x4F6666657220697320302E000000000000000000000000000000000000000000 PUSH1 0x0 DUP3 ADD MSTORE POP JUMP JUMPDEST PUSH32 0x556E617574686F72697A65642E00000000000000000000000000000000000000 PUSH1 0x0 DUP3 ADD MSTORE POP JUMP JUMPDEST PUSH32 0x4E6F206F666665722E0000000000000000000000000000000000000000000000 PUSH1 0x0 DUP3 ADD MSTORE POP JUMP JUMPDEST POP JUMP JUMPDEST PUSH2 0x19EA DUP2 PUSH2 0x1811 JUMP JUMPDEST DUP2 EQ PUSH2 0x19F5 JUMPI PUSH1 0x0 DUP1 REVERT JUMPDEST POP JUMP JUMPDEST PUSH2 0x1A01 DUP2 PUSH2 0x184F JUMP JUMPDEST DUP2 EQ PUSH2 0x1A0C JUMPI PUSH1 0x0 DUP1 REVERT JUMPDEST POP JUMP INVALID LOG2 PUSH5 0x6970667358 0x22 SLT KECCAK256 GT PUSH32 0x99A5DE67316A350FEC36BC5CFE38FCAF15A33F90FDB0737E88F51E51B35E6473 PUSH16 0x6C634300080700330000000000000000 "
				},
				"gasEstimates": {
					"creation": {
						"codeDepositCost": "1345000",
						"executionCost": "1403",
						"totalCost": "1346403"
					},
					"external": {
						"balances()": "2429",
						"offer(address,uint256)": "infinite",
						"offers(address,uint256)": "3128",
						"submit(address,address,uint256,address)": "infinite",
						"withdraw(address,uint256)": "infinite"
					}
				},
				"methodIdentifiers": {
					"balances()": "7bb98a68",
					"offer(address,uint256)": "6b212960",
					"offers(address,uint256)": "aa1a8411",
					"submit(address,address,uint256,address)": "bbb96976",
					"withdraw(address,uint256)": "f3fef3a3"
				}
			},
			"storageLayout": {
				"storage": [
					{
						"astId": 81,
						"contract": "Offer.sol:Offer",
						"label": "offers",
						"offset": 0,
						"slot": "0",
						"type": "t_mapping(t_address,t_mapping(t_uint256,t_struct(Offers)91_storage))"
					},
					{
						"astId": 93,
						"contract": "Offer.sol:Offer",
						"label": "balances",
						"offset": 0,
						"slot": "1",
						"type": "t_uint256"
					}
				],
				"types": {
					"t_address": {
						"encoding": "inplace",
						"label": "address",
						"numberOfBytes": "20"
					},
					"t_array(t_address)dyn_storage": {
						"base": "t_address",
						"encoding": "dynamic_array",
						"label": "address[]",
						"numberOfBytes": "32"
					},
					"t_bool": {
						"encoding": "inplace",
						"label": "bool",
						"numberOfBytes": "1"
					},
					"t_mapping(t_address,t_mapping(t_uint256,t_struct(Offers)91_storage))": {
						"encoding": "mapping",
						"key": "t_address",
						"label": "mapping(address => mapping(uint256 => struct Offer.Offers))",
						"numberOfBytes": "32",
						"value": "t_mapping(t_uint256,t_struct(Offers)91_storage)"
					},
					"t_mapping(t_address,t_uint256)": {
						"encoding": "mapping",
						"key": "t_address",
						"label": "mapping(address => uint256)",
						"numberOfBytes": "32",
						"value": "t_uint256"
					},
					"t_mapping(t_uint256,t_struct(Offers)91_storage)": {
						"encoding": "mapping",
						"key": "t_uint256",
						"label": "mapping(uint256 => struct Offer.Offers)",
						"numberOfBytes": "32",
						"value": "t_struct(Offers)91_storage"
					},
					"t_struct(Offers)91_storage": {
						"encoding": "inplace",
						"label": "struct Offer.Offers",
						"members": [
							{
								"astId": 84,
								"contract": "Offer.sol:Offer",
								"label": "offerer",
								"offset": 0,
								"slot": "0",
								"type": "t_array(t_address)dyn_storage"
							},
							{
								"astId": 88,
								"contract": "Offer.sol:Offer",
								"label": "amount",
								"offset": 0,
								"slot": "1",
								"type": "t_mapping(t_address,t_uint256)"
							},
							{
								"astId": 90,
								"contract": "Offer.sol:Offer",
								"label": "isOffer",
								"offset": 0,
								"slot": "2",
								"type": "t_bool"
							}
						],
						"numberOfBytes": "96"
					},
					"t_uint256": {
						"encoding": "inplace",
						"label": "uint256",
						"numberOfBytes": "32"
					}
				}
			},
			"userdoc": {
				"kind": "user",
				"methods": {},
				"version": 1
			}
		}
	}
}