{
	"MarketERC721.sol": {
		"Market": {
			"abi": [
				{
					"anonymous": false,
					"inputs": [
						{
							"indexed": true,
							"internalType": "address",
							"name": "owner",
							"type": "address"
						},
						{
							"indexed": true,
							"internalType": "uint256",
							"name": "tokenId",
							"type": "uint256"
						},
						{
							"indexed": false,
							"internalType": "uint256",
							"name": "price",
							"type": "uint256"
						},
						{
							"indexed": true,
							"internalType": "bool",
							"name": "isListing",
							"type": "bool"
						}
					],
					"name": "List",
					"type": "event"
				},
				{
					"anonymous": false,
					"inputs": [
						{
							"indexed": true,
							"internalType": "address",
							"name": "previousOwner",
							"type": "address"
						},
						{
							"indexed": true,
							"internalType": "address",
							"name": "newOwner",
							"type": "address"
						}
					],
					"name": "OwnershipTransferred",
					"type": "event"
				},
				{
					"inputs": [
						{
							"internalType": "uint256",
							"name": "price",
							"type": "uint256"
						},
						{
							"internalType": "address",
							"name": "contractAddr",
							"type": "address"
						},
						{
							"internalType": "uint256",
							"name": "tokenId",
							"type": "uint256"
						}
					],
					"name": "addListing",
					"outputs": [],
					"stateMutability": "nonpayable",
					"type": "function"
				},
				{
					"inputs": [
						{
							"internalType": "address",
							"name": "contractAddr",
							"type": "address"
						},
						{
							"internalType": "uint256",
							"name": "tokenId",
							"type": "uint256"
						}
					],
					"name": "cancelListing",
					"outputs": [],
					"stateMutability": "nonpayable",
					"type": "function"
				},
				{
					"inputs": [
						{
							"internalType": "address",
							"name": "contractAddr",
							"type": "address"
						},
						{
							"internalType": "uint256",
							"name": "tokenId",
							"type": "uint256"
						}
					],
					"name": "getIsListing",
					"outputs": [
						{
							"internalType": "bool",
							"name": "isListing",
							"type": "bool"
						}
					],
					"stateMutability": "view",
					"type": "function"
				},
				{
					"inputs": [
						{
							"internalType": "address",
							"name": "contractAddr",
							"type": "address"
						},
						{
							"internalType": "uint256",
							"name": "tokenId",
							"type": "uint256"
						}
					],
					"name": "getOwner",
					"outputs": [
						{
							"internalType": "address",
							"name": "owner",
							"type": "address"
						}
					],
					"stateMutability": "view",
					"type": "function"
				},
				{
					"inputs": [
						{
							"internalType": "address",
							"name": "contractAddr",
							"type": "address"
						},
						{
							"internalType": "uint256",
							"name": "tokenId",
							"type": "uint256"
						},
						{
							"internalType": "uint256",
							"name": "prevIndex",
							"type": "uint256"
						}
					],
					"name": "getPrevOwner",
					"outputs": [
						{
							"internalType": "address",
							"name": "prevOwner",
							"type": "address"
						}
					],
					"stateMutability": "view",
					"type": "function"
				},
				{
					"inputs": [
						{
							"internalType": "address",
							"name": "contractAddr",
							"type": "address"
						},
						{
							"internalType": "uint256",
							"name": "tokenId",
							"type": "uint256"
						}
					],
					"name": "getPrevOwnerAmount",
					"outputs": [
						{
							"internalType": "uint256",
							"name": "prevOwnerAmount",
							"type": "uint256"
						}
					],
					"stateMutability": "view",
					"type": "function"
				},
				{
					"inputs": [
						{
							"internalType": "address",
							"name": "contractAddr",
							"type": "address"
						},
						{
							"internalType": "uint256",
							"name": "tokenId",
							"type": "uint256"
						}
					],
					"name": "getPrice",
					"outputs": [
						{
							"internalType": "uint256",
							"name": "price",
							"type": "uint256"
						}
					],
					"stateMutability": "view",
					"type": "function"
				},
				{
					"inputs": [
						{
							"internalType": "address",
							"name": "contractAddr",
							"type": "address"
						},
						{
							"internalType": "uint256",
							"name": "tokenId",
							"type": "uint256"
						}
					],
					"name": "getSeller",
					"outputs": [
						{
							"internalType": "address",
							"name": "seller",
							"type": "address"
						}
					],
					"stateMutability": "view",
					"type": "function"
				},
				{
					"inputs": [
						{
							"internalType": "address",
							"name": "",
							"type": "address"
						},
						{
							"internalType": "uint256",
							"name": "",
							"type": "uint256"
						}
					],
					"name": "listings",
					"outputs": [
						{
							"internalType": "uint256",
							"name": "price",
							"type": "uint256"
						},
						{
							"internalType": "address",
							"name": "seller",
							"type": "address"
						},
						{
							"internalType": "address",
							"name": "owner",
							"type": "address"
						},
						{
							"internalType": "bool",
							"name": "isListing",
							"type": "bool"
						},
						{
							"internalType": "uint256",
							"name": "ownerCount",
							"type": "uint256"
						},
						{
							"internalType": "uint256",
							"name": "prevOwnersAmount",
							"type": "uint256"
						}
					],
					"stateMutability": "view",
					"type": "function"
				},
				{
					"inputs": [],
					"name": "owner",
					"outputs": [
						{
							"internalType": "address",
							"name": "",
							"type": "address"
						}
					],
					"stateMutability": "view",
					"type": "function"
				},
				{
					"inputs": [
						{
							"internalType": "address",
							"name": "contractAddr",
							"type": "address"
						},
						{
							"internalType": "uint256",
							"name": "tokenId",
							"type": "uint256"
						},
						{
							"internalType": "address",
							"name": "referer",
							"type": "address"
						},
						{
							"internalType": "uint256",
							"name": "metaverseFee",
							"type": "uint256"
						},
						{
							"internalType": "uint256",
							"name": "previousOwnerFee",
							"type": "uint256"
						},
						{
							"internalType": "uint256",
							"name": "referalFee",
							"type": "uint256"
						}
					],
					"name": "purchase",
					"outputs": [],
					"stateMutability": "payable",
					"type": "function"
				},
				{
					"inputs": [
						{
							"internalType": "address",
							"name": "contractAddr",
							"type": "address"
						},
						{
							"internalType": "uint256[]",
							"name": "tokenId",
							"type": "uint256[]"
						},
						{
							"internalType": "address",
							"name": "referer",
							"type": "address"
						},
						{
							"internalType": "uint256",
							"name": "metaverseFee",
							"type": "uint256"
						},
						{
							"internalType": "uint256[]",
							"name": "previousOwnerFee",
							"type": "uint256[]"
						},
						{
							"internalType": "uint256",
							"name": "referalFee",
							"type": "uint256"
						}
					],
					"name": "purchaseBatch",
					"outputs": [],
					"stateMutability": "payable",
					"type": "function"
				},
				{
					"inputs": [
						{
							"internalType": "address",
							"name": "contractAddr",
							"type": "address"
						},
						{
							"internalType": "address",
							"name": "coinAddr",
							"type": "address"
						},
						{
							"internalType": "uint256",
							"name": "tokenId",
							"type": "uint256"
						},
						{
							"internalType": "address",
							"name": "referer",
							"type": "address"
						},
						{
							"internalType": "uint256",
							"name": "metaverseFee",
							"type": "uint256"
						},
						{
							"internalType": "uint256",
							"name": "previousOwnerFee",
							"type": "uint256"
						},
						{
							"internalType": "uint256",
							"name": "referalFee",
							"type": "uint256"
						}
					],
					"name": "purchaseERC20",
					"outputs": [],
					"stateMutability": "payable",
					"type": "function"
				},
				{
					"inputs": [
						{
							"internalType": "address",
							"name": "contractAddr",
							"type": "address"
						},
						{
							"internalType": "address",
							"name": "coinAddr",
							"type": "address"
						},
						{
							"internalType": "uint256[]",
							"name": "tokenId",
							"type": "uint256[]"
						},
						{
							"internalType": "address",
							"name": "referer",
							"type": "address"
						},
						{
							"internalType": "uint256",
							"name": "metaverseFee",
							"type": "uint256"
						},
						{
							"internalType": "uint256[]",
							"name": "previousOwnerFee",
							"type": "uint256[]"
						},
						{
							"internalType": "uint256",
							"name": "referalFee",
							"type": "uint256"
						}
					],
					"name": "purchaseERC20Batch",
					"outputs": [],
					"stateMutability": "payable",
					"type": "function"
				},
				{
					"inputs": [],
					"name": "renounceOwnership",
					"outputs": [],
					"stateMutability": "nonpayable",
					"type": "function"
				},
				{
					"inputs": [
						{
							"internalType": "address",
							"name": "newOwner",
							"type": "address"
						}
					],
					"name": "transferOwnership",
					"outputs": [],
					"stateMutability": "nonpayable",
					"type": "function"
				}
			],
			"devdoc": {
				"kind": "dev",
				"methods": {},
				"version": 1
			},
			"evm": {
				"assembly": "    /* \"MarketERC721.sol\":606:10236  contract Market is Ownable {\r... */\n  mstore(0x40, 0x80)\n  callvalue\n  dup1\n  iszero\n  tag_1\n  jumpi\n  0x00\n  dup1\n  revert\ntag_1:\n  pop\n    /* \"Ownable.sol\":336:368  _transferOwnership(_msgSender()) */\n  tag_4\n    /* \"Ownable.sol\":355:367  _msgSender() */\n  tag_5\n    /* \"Ownable.sol\":355:365  _msgSender */\n  shl(0x20, tag_6)\n    /* \"Ownable.sol\":355:367  _msgSender() */\n  0x20\n  shr\n  jump\t// in\ntag_5:\n    /* \"Ownable.sol\":336:354  _transferOwnership */\n  shl(0x20, tag_7)\n    /* \"Ownable.sol\":336:368  _transferOwnership(_msgSender()) */\n  0x20\n  shr\n  jump\t// in\ntag_4:\n    /* \"MarketERC721.sol\":606:10236  contract Market is Ownable {\r... */\n  jump(tag_8)\n    /* \"Context.sol\":656:754  function _msgSender() internal view virtual returns (address) {\r... */\ntag_6:\n    /* \"Context.sol\":709:716  address */\n  0x00\n    /* \"Context.sol\":736:746  msg.sender */\n  caller\n    /* \"Context.sol\":729:746  return msg.sender */\n  swap1\n  pop\n    /* \"Context.sol\":656:754  function _msgSender() internal view virtual returns (address) {\r... */\n  swap1\n  jump\t// out\n    /* \"Ownable.sol\":927:1118  function _transferOwnership(address newOwner) internal virtual {\r... */\ntag_7:\n    /* \"Ownable.sol\":1001:1017  address oldOwner */\n  0x00\n    /* \"Ownable.sol\":1020:1026  _owner */\n  dup1\n  0x00\n  swap1\n  sload\n  swap1\n  0x0100\n  exp\n  swap1\n  div\n  0xffffffffffffffffffffffffffffffffffffffff\n  and\n    /* \"Ownable.sol\":1001:1026  address oldOwner = _owner */\n  swap1\n  pop\n    /* \"Ownable.sol\":1046:1054  newOwner */\n  dup2\n    /* \"Ownable.sol\":1037:1043  _owner */\n  0x00\n  dup1\n    /* \"Ownable.sol\":1037:1054  _owner = newOwner */\n  0x0100\n  exp\n  dup2\n  sload\n  dup2\n  0xffffffffffffffffffffffffffffffffffffffff\n  mul\n  not\n  and\n  swap1\n  dup4\n  0xffffffffffffffffffffffffffffffffffffffff\n  and\n  mul\n  or\n  swap1\n  sstore\n  pop\n    /* \"Ownable.sol\":1101:1109  newOwner */\n  dup2\n    /* \"Ownable.sol\":1070:1110  OwnershipTransferred(oldOwner, newOwner) */\n  0xffffffffffffffffffffffffffffffffffffffff\n  and\n    /* \"Ownable.sol\":1091:1099  oldOwner */\n  dup2\n    /* \"Ownable.sol\":1070:1110  OwnershipTransferred(oldOwner, newOwner) */\n  0xffffffffffffffffffffffffffffffffffffffff\n  and\n  0x8be0079c531659141344cd1fd0a4f28419497f9722a3daafe3b4186f6b6457e0\n  mload(0x40)\n  mload(0x40)\n  dup1\n  swap2\n  sub\n  swap1\n  log3\n    /* \"Ownable.sol\":990:1118  {\r... */\n  pop\n    /* \"Ownable.sol\":927:1118  function _transferOwnership(address newOwner) internal virtual {\r... */\n  pop\n  jump\t// out\n    /* \"MarketERC721.sol\":606:10236  contract Market is Ownable {\r... */\ntag_8:\n  dataSize(sub_0)\n  dup1\n  dataOffset(sub_0)\n  0x00\n  codecopy\n  0x00\n  return\nstop\n\nsub_0: assembly {\n        /* \"MarketERC721.sol\":606:10236  contract Market is Ownable {\r... */\n      mstore(0x40, 0x80)\n      jumpi(tag_1, lt(calldatasize, 0x04))\n      shr(0xe0, calldataload(0x00))\n      dup1\n      0x80abbe57\n      gt\n      tag_18\n      jumpi\n      dup1\n      0xb2ddee06\n      gt\n      tag_19\n      jumpi\n      dup1\n      0xb2ddee06\n      eq\n      tag_14\n      jumpi\n      dup1\n      0xd178227a\n      eq\n      tag_15\n      jumpi\n      dup1\n      0xed81abad\n      eq\n      tag_16\n      jumpi\n      dup1\n      0xf2fde38b\n      eq\n      tag_17\n      jumpi\n      jump(tag_1)\n    tag_19:\n      dup1\n      0x80abbe57\n      eq\n      tag_10\n      jumpi\n      dup1\n      0x8111f398\n      eq\n      tag_11\n      jumpi\n      dup1\n      0x8c5b197b\n      eq\n      tag_12\n      jumpi\n      dup1\n      0x8da5cb5b\n      eq\n      tag_13\n      jumpi\n      jump(tag_1)\n    tag_18:\n      dup1\n      0x2c872cd1\n      gt\n      tag_20\n      jumpi\n      dup1\n      0x2c872cd1\n      eq\n      tag_6\n      jumpi\n      dup1\n      0x2f634a90\n      eq\n      tag_7\n      jumpi\n      dup1\n      0x449e815d\n      eq\n      tag_8\n      jumpi\n      dup1\n      0x715018a6\n      eq\n      tag_9\n      jumpi\n      jump(tag_1)\n    tag_20:\n      dup1\n      0x07df30\n      eq\n      tag_2\n      jumpi\n      dup1\n      0x031aa9b5\n      eq\n      tag_3\n      jumpi\n      dup1\n      0x189ecff1\n      eq\n      tag_4\n      jumpi\n      dup1\n      0x2973d6f8\n      eq\n      tag_5\n      jumpi\n    tag_1:\n      0x00\n      dup1\n      revert\n        /* \"MarketERC721.sol\":642:704  mapping(address =>mapping(uint256 => Listing)) public listings */\n    tag_2:\n      callvalue\n      dup1\n      iszero\n      tag_21\n      jumpi\n      0x00\n      dup1\n      revert\n    tag_21:\n      pop\n      tag_22\n      0x04\n      dup1\n      calldatasize\n      sub\n      dup2\n      add\n      swap1\n      tag_23\n      swap2\n      swap1\n      tag_24\n      jump\t// in\n    tag_23:\n      tag_25\n      jump\t// in\n    tag_22:\n      mload(0x40)\n      tag_26\n      swap7\n      swap6\n      swap5\n      swap4\n      swap3\n      swap2\n      swap1\n      tag_27\n      jump\t// in\n    tag_26:\n      mload(0x40)\n      dup1\n      swap2\n      sub\n      swap1\n      return\n        /* \"MarketERC721.sol\":9520:9681  function getIsListing(address contractAddr, uint tokenId) public view returns(bool isListing) {\r... */\n    tag_3:\n      callvalue\n      dup1\n      iszero\n      tag_28\n      jumpi\n      0x00\n      dup1\n      revert\n    tag_28:\n      pop\n      tag_29\n      0x04\n      dup1\n      calldatasize\n      sub\n      dup2\n      add\n      swap1\n      tag_30\n      swap2\n      swap1\n      tag_24\n      jump\t// in\n    tag_30:\n      tag_31\n      jump\t// in\n    tag_29:\n      mload(0x40)\n      tag_32\n      swap2\n      swap1\n      tag_33\n      jump\t// in\n    tag_32:\n      mload(0x40)\n      dup1\n      swap2\n      sub\n      swap1\n      return\n        /* \"MarketERC721.sol\":9357:9512  function getSeller(address contractAddr, uint tokenId) public view returns(address seller) {\r... */\n    tag_4:\n      callvalue\n      dup1\n      iszero\n      tag_34\n      jumpi\n      0x00\n      dup1\n      revert\n    tag_34:\n      pop\n      tag_35\n      0x04\n      dup1\n      calldatasize\n      sub\n      dup2\n      add\n      swap1\n      tag_36\n      swap2\n      swap1\n      tag_24\n      jump\t// in\n    tag_36:\n      tag_37\n      jump\t// in\n    tag_35:\n      mload(0x40)\n      tag_38\n      swap2\n      swap1\n      tag_39\n      jump\t// in\n    tag_38:\n      mload(0x40)\n      dup1\n      swap2\n      sub\n      swap1\n      return\n        /* \"MarketERC721.sol\":9689:9885  function getPrevOwner(address contractAddr, uint tokenId, uint prevIndex) public view returns(address prevOwner) {\r... */\n    tag_5:\n      callvalue\n      dup1\n      iszero\n      tag_40\n      jumpi\n      0x00\n      dup1\n      revert\n    tag_40:\n      pop\n      tag_41\n      0x04\n      dup1\n      calldatasize\n      sub\n      dup2\n      add\n      swap1\n      tag_42\n      swap2\n      swap1\n      tag_43\n      jump\t// in\n    tag_42:\n      tag_44\n      jump\t// in\n    tag_41:\n      mload(0x40)\n      tag_45\n      swap2\n      swap1\n      tag_39\n      jump\t// in\n    tag_45:\n      mload(0x40)\n      dup1\n      swap2\n      sub\n      swap1\n      return\n        /* \"MarketERC721.sol\":5548:7245  function purchaseERC20(address contractAddr, address coinAddr, uint256 tokenId, address referer, uint256 metaverseFee, uint256 previousOwnerFee, uint256 referalFee) public payable {\r... */\n    tag_6:\n      tag_46\n      0x04\n      dup1\n      calldatasize\n      sub\n      dup2\n      add\n      swap1\n      tag_47\n      swap2\n      swap1\n      tag_48\n      jump\t// in\n    tag_47:\n      tag_49\n      jump\t// in\n    tag_46:\n      stop\n        /* \"MarketERC721.sol\":10081:10233  function getOwner(address contractAddr, uint tokenId) public view returns(address owner) {\r... */\n    tag_7:\n      callvalue\n      dup1\n      iszero\n      tag_50\n      jumpi\n      0x00\n      dup1\n      revert\n    tag_50:\n      pop\n      tag_51\n      0x04\n      dup1\n      calldatasize\n      sub\n      dup2\n      add\n      swap1\n      tag_52\n      swap2\n      swap1\n      tag_24\n      jump\t// in\n    tag_52:\n      tag_53\n      jump\t// in\n    tag_51:\n      mload(0x40)\n      tag_54\n      swap2\n      swap1\n      tag_39\n      jump\t// in\n    tag_54:\n      mload(0x40)\n      dup1\n      swap2\n      sub\n      swap1\n      return\n        /* \"MarketERC721.sol\":9197:9349  function getPrice(address contractAddr, uint tokenId) public view returns(uint256 price) {\r... */\n    tag_8:\n      callvalue\n      dup1\n      iszero\n      tag_55\n      jumpi\n      0x00\n      dup1\n      revert\n    tag_55:\n      pop\n      tag_56\n      0x04\n      dup1\n      calldatasize\n      sub\n      dup2\n      add\n      swap1\n      tag_57\n      swap2\n      swap1\n      tag_24\n      jump\t// in\n    tag_57:\n      tag_58\n      jump\t// in\n    tag_56:\n      mload(0x40)\n      tag_59\n      swap2\n      swap1\n      tag_60\n      jump\t// in\n    tag_59:\n      mload(0x40)\n      dup1\n      swap2\n      sub\n      swap1\n      return\n        /* \"Ownable.sol\":607:710  function renounceOwnership() public virtual onlyOwner {\r... */\n    tag_9:\n      callvalue\n      dup1\n      iszero\n      tag_61\n      jumpi\n      0x00\n      dup1\n      revert\n    tag_61:\n      pop\n      tag_62\n      tag_63\n      jump\t// in\n    tag_62:\n      stop\n        /* \"MarketERC721.sol\":1050:1630  function addListing(uint256 price, address contractAddr, uint256 tokenId) public {\r... */\n    tag_10:\n      callvalue\n      dup1\n      iszero\n      tag_64\n      jumpi\n      0x00\n      dup1\n      revert\n    tag_64:\n      pop\n      tag_65\n      0x04\n      dup1\n      calldatasize\n      sub\n      dup2\n      add\n      swap1\n      tag_66\n      swap2\n      swap1\n      tag_67\n      jump\t// in\n    tag_66:\n      tag_68\n      jump\t// in\n    tag_65:\n      stop\n        /* \"MarketERC721.sol\":2161:3731  function purchase(address contractAddr, uint256 tokenId, address referer, uint256 metaverseFee, uint256 previousOwnerFee, uint256 referalFee) public payable {\r... */\n    tag_11:\n      tag_69\n      0x04\n      dup1\n      calldatasize\n      sub\n      dup2\n      add\n      swap1\n      tag_70\n      swap2\n      swap1\n      tag_71\n      jump\t// in\n    tag_70:\n      tag_72\n      jump\t// in\n    tag_69:\n      stop\n        /* \"MarketERC721.sol\":3739:5540  function purchaseBatch(address contractAddr, uint256[] calldata tokenId, address referer, uint256 metaverseFee, uint256[] calldata previousOwnerFee, uint256 referalFee) public payable {\r... */\n    tag_12:\n      tag_73\n      0x04\n      dup1\n      calldatasize\n      sub\n      dup2\n      add\n      swap1\n      tag_74\n      swap2\n      swap1\n      tag_75\n      jump\t// in\n    tag_74:\n      tag_76\n      jump\t// in\n    tag_73:\n      stop\n        /* \"Ownable.sol\":384:471  function owner() public view virtual returns (address) {\r... */\n    tag_13:\n      callvalue\n      dup1\n      iszero\n      tag_77\n      jumpi\n      0x00\n      dup1\n      revert\n    tag_77:\n      pop\n      tag_78\n      tag_79\n      jump\t// in\n    tag_78:\n      mload(0x40)\n      tag_80\n      swap2\n      swap1\n      tag_39\n      jump\t// in\n    tag_80:\n      mload(0x40)\n      dup1\n      swap2\n      sub\n      swap1\n      return\n        /* \"MarketERC721.sol\":1638:2153  function cancelListing(address contractAddr, uint256 tokenId) public {\r... */\n    tag_14:\n      callvalue\n      dup1\n      iszero\n      tag_81\n      jumpi\n      0x00\n      dup1\n      revert\n    tag_81:\n      pop\n      tag_82\n      0x04\n      dup1\n      calldatasize\n      sub\n      dup2\n      add\n      swap1\n      tag_83\n      swap2\n      swap1\n      tag_24\n      jump\t// in\n    tag_83:\n      tag_84\n      jump\t// in\n    tag_82:\n      stop\n        /* \"MarketERC721.sol\":9893:10073  function getPrevOwnerAmount(address contractAddr, uint tokenId) public view returns(uint prevOwnerAmount) {\r... */\n    tag_15:\n      callvalue\n      dup1\n      iszero\n      tag_85\n      jumpi\n      0x00\n      dup1\n      revert\n    tag_85:\n      pop\n      tag_86\n      0x04\n      dup1\n      calldatasize\n      sub\n      dup2\n      add\n      swap1\n      tag_87\n      swap2\n      swap1\n      tag_24\n      jump\t// in\n    tag_87:\n      tag_88\n      jump\t// in\n    tag_86:\n      mload(0x40)\n      tag_89\n      swap2\n      swap1\n      tag_60\n      jump\t// in\n    tag_89:\n      mload(0x40)\n      dup1\n      swap2\n      sub\n      swap1\n      return\n        /* \"MarketERC721.sol\":7253:9189  function purchaseERC20Batch(address contractAddr, address coinAddr, uint256[] calldata tokenId, address referer, uint256 metaverseFee, uint256[] calldata previousOwnerFee, uint256 referalFee) public payable {\r... */\n    tag_16:\n      tag_90\n      0x04\n      dup1\n      calldatasize\n      sub\n      dup2\n      add\n      swap1\n      tag_91\n      swap2\n      swap1\n      tag_92\n      jump\t// in\n    tag_91:\n      tag_93\n      jump\t// in\n    tag_90:\n      stop\n        /* \"Ownable.sol\":718:919  function transferOwnership(address newOwner) public virtual onlyOwner {\r... */\n    tag_17:\n      callvalue\n      dup1\n      iszero\n      tag_94\n      jumpi\n      0x00\n      dup1\n      revert\n    tag_94:\n      pop\n      tag_95\n      0x04\n      dup1\n      calldatasize\n      sub\n      dup2\n      add\n      swap1\n      tag_96\n      swap2\n      swap1\n      tag_97\n      jump\t// in\n    tag_96:\n      tag_98\n      jump\t// in\n    tag_95:\n      stop\n        /* \"MarketERC721.sol\":642:704  mapping(address =>mapping(uint256 => Listing)) public listings */\n    tag_25:\n      mstore(0x20, 0x01)\n      dup2\n      0x00\n      mstore\n      mstore(0x20, keccak256(0x00, 0x40))\n      dup1\n      0x00\n      mstore\n      keccak256(0x00, 0x40)\n      0x00\n      swap2\n      pop\n      swap2\n      pop\n      pop\n      dup1\n      0x00\n      add\n      sload\n      swap1\n      dup1\n      0x01\n      add\n      0x00\n      swap1\n      sload\n      swap1\n      0x0100\n      exp\n      swap1\n      div\n      0xffffffffffffffffffffffffffffffffffffffff\n      and\n      swap1\n      dup1\n      0x02\n      add\n      0x00\n      swap1\n      sload\n      swap1\n      0x0100\n      exp\n      swap1\n      div\n      0xffffffffffffffffffffffffffffffffffffffff\n      and\n      swap1\n      dup1\n      0x02\n      add\n      0x14\n      swap1\n      sload\n      swap1\n      0x0100\n      exp\n      swap1\n      div\n      0xff\n      and\n      swap1\n      dup1\n      0x03\n      add\n      sload\n      swap1\n      dup1\n      0x04\n      add\n      sload\n      swap1\n      pop\n      dup7\n      jump\t// out\n        /* \"MarketERC721.sol\":9520:9681  function getIsListing(address contractAddr, uint tokenId) public view returns(bool isListing) {\r... */\n    tag_31:\n        /* \"MarketERC721.sol\":9598:9612  bool isListing */\n      0x00\n        /* \"MarketERC721.sol\":9632:9640  listings */\n      0x01\n        /* \"MarketERC721.sol\":9632:9654  listings[contractAddr] */\n      0x00\n        /* \"MarketERC721.sol\":9641:9653  contractAddr */\n      dup5\n        /* \"MarketERC721.sol\":9632:9654  listings[contractAddr] */\n      0xffffffffffffffffffffffffffffffffffffffff\n      and\n      0xffffffffffffffffffffffffffffffffffffffff\n      and\n      dup2\n      mstore\n      0x20\n      add\n      swap1\n      dup2\n      mstore\n      0x20\n      add\n      0x00\n      keccak256\n        /* \"MarketERC721.sol\":9632:9663  listings[contractAddr][tokenId] */\n      0x00\n        /* \"MarketERC721.sol\":9655:9662  tokenId */\n      dup4\n        /* \"MarketERC721.sol\":9632:9663  listings[contractAddr][tokenId] */\n      dup2\n      mstore\n      0x20\n      add\n      swap1\n      dup2\n      mstore\n      0x20\n      add\n      0x00\n      keccak256\n        /* \"MarketERC721.sol\":9632:9673  listings[contractAddr][tokenId].isListing */\n      0x02\n      add\n      0x14\n      swap1\n      sload\n      swap1\n      0x0100\n      exp\n      swap1\n      div\n      0xff\n      and\n        /* \"MarketERC721.sol\":9625:9673  return listings[contractAddr][tokenId].isListing */\n      swap1\n      pop\n        /* \"MarketERC721.sol\":9520:9681  function getIsListing(address contractAddr, uint tokenId) public view returns(bool isListing) {\r... */\n      swap3\n      swap2\n      pop\n      pop\n      jump\t// out\n        /* \"MarketERC721.sol\":9357:9512  function getSeller(address contractAddr, uint tokenId) public view returns(address seller) {\r... */\n    tag_37:\n        /* \"MarketERC721.sol\":9432:9446  address seller */\n      0x00\n        /* \"MarketERC721.sol\":9466:9474  listings */\n      0x01\n        /* \"MarketERC721.sol\":9466:9488  listings[contractAddr] */\n      0x00\n        /* \"MarketERC721.sol\":9475:9487  contractAddr */\n      dup5\n        /* \"MarketERC721.sol\":9466:9488  listings[contractAddr] */\n      0xffffffffffffffffffffffffffffffffffffffff\n      and\n      0xffffffffffffffffffffffffffffffffffffffff\n      and\n      dup2\n      mstore\n      0x20\n      add\n      swap1\n      dup2\n      mstore\n      0x20\n      add\n      0x00\n      keccak256\n        /* \"MarketERC721.sol\":9466:9497  listings[contractAddr][tokenId] */\n      0x00\n        /* \"MarketERC721.sol\":9489:9496  tokenId */\n      dup4\n        /* \"MarketERC721.sol\":9466:9497  listings[contractAddr][tokenId] */\n      dup2\n      mstore\n      0x20\n      add\n      swap1\n      dup2\n      mstore\n      0x20\n      add\n      0x00\n      keccak256\n        /* \"MarketERC721.sol\":9466:9504  listings[contractAddr][tokenId].seller */\n      0x01\n      add\n      0x00\n      swap1\n      sload\n      swap1\n      0x0100\n      exp\n      swap1\n      div\n      0xffffffffffffffffffffffffffffffffffffffff\n      and\n        /* \"MarketERC721.sol\":9459:9504  return listings[contractAddr][tokenId].seller */\n      swap1\n      pop\n        /* \"MarketERC721.sol\":9357:9512  function getSeller(address contractAddr, uint tokenId) public view returns(address seller) {\r... */\n      swap3\n      swap2\n      pop\n      pop\n      jump\t// out\n        /* \"MarketERC721.sol\":9689:9885  function getPrevOwner(address contractAddr, uint tokenId, uint prevIndex) public view returns(address prevOwner) {\r... */\n    tag_44:\n        /* \"MarketERC721.sol\":9783:9800  address prevOwner */\n      0x00\n        /* \"MarketERC721.sol\":9820:9828  listings */\n      0x01\n        /* \"MarketERC721.sol\":9820:9842  listings[contractAddr] */\n      0x00\n        /* \"MarketERC721.sol\":9829:9841  contractAddr */\n      dup6\n        /* \"MarketERC721.sol\":9820:9842  listings[contractAddr] */\n      0xffffffffffffffffffffffffffffffffffffffff\n      and\n      0xffffffffffffffffffffffffffffffffffffffff\n      and\n      dup2\n      mstore\n      0x20\n      add\n      swap1\n      dup2\n      mstore\n      0x20\n      add\n      0x00\n      keccak256\n        /* \"MarketERC721.sol\":9820:9851  listings[contractAddr][tokenId] */\n      0x00\n        /* \"MarketERC721.sol\":9843:9850  tokenId */\n      dup5\n        /* \"MarketERC721.sol\":9820:9851  listings[contractAddr][tokenId] */\n      dup2\n      mstore\n      0x20\n      add\n      swap1\n      dup2\n      mstore\n      0x20\n      add\n      0x00\n      keccak256\n        /* \"MarketERC721.sol\":9820:9866  listings[contractAddr][tokenId].previousOwners */\n      0x05\n      add\n        /* \"MarketERC721.sol\":9820:9877  listings[contractAddr][tokenId].previousOwners[prevIndex] */\n      0x00\n        /* \"MarketERC721.sol\":9867:9876  prevIndex */\n      dup4\n        /* \"MarketERC721.sol\":9820:9877  listings[contractAddr][tokenId].previousOwners[prevIndex] */\n      dup2\n      mstore\n      0x20\n      add\n      swap1\n      dup2\n      mstore\n      0x20\n      add\n      0x00\n      keccak256\n      0x00\n      swap1\n      sload\n      swap1\n      0x0100\n      exp\n      swap1\n      div\n      0xffffffffffffffffffffffffffffffffffffffff\n      and\n        /* \"MarketERC721.sol\":9813:9877  return listings[contractAddr][tokenId].previousOwners[prevIndex] */\n      swap1\n      pop\n        /* \"MarketERC721.sol\":9689:9885  function getPrevOwner(address contractAddr, uint tokenId, uint prevIndex) public view returns(address prevOwner) {\r... */\n      swap4\n      swap3\n      pop\n      pop\n      pop\n      jump\t// out\n        /* \"MarketERC721.sol\":5548:7245  function purchaseERC20(address contractAddr, address coinAddr, uint256 tokenId, address referer, uint256 metaverseFee, uint256 previousOwnerFee, uint256 referalFee) public payable {\r... */\n    tag_49:\n        /* \"MarketERC721.sol\":5739:5759  Listing storage item */\n      0x00\n        /* \"MarketERC721.sol\":5762:5770  listings */\n      0x01\n        /* \"MarketERC721.sol\":5762:5784  listings[contractAddr] */\n      0x00\n        /* \"MarketERC721.sol\":5771:5783  contractAddr */\n      dup10\n        /* \"MarketERC721.sol\":5762:5784  listings[contractAddr] */\n      0xffffffffffffffffffffffffffffffffffffffff\n      and\n      0xffffffffffffffffffffffffffffffffffffffff\n      and\n      dup2\n      mstore\n      0x20\n      add\n      swap1\n      dup2\n      mstore\n      0x20\n      add\n      0x00\n      keccak256\n        /* \"MarketERC721.sol\":5762:5793  listings[contractAddr][tokenId] */\n      0x00\n        /* \"MarketERC721.sol\":5785:5792  tokenId */\n      dup8\n        /* \"MarketERC721.sol\":5762:5793  listings[contractAddr][tokenId] */\n      dup2\n      mstore\n      0x20\n      add\n      swap1\n      dup2\n      mstore\n      0x20\n      add\n      0x00\n      keccak256\n        /* \"MarketERC721.sol\":5739:5793  Listing storage item = listings[contractAddr][tokenId] */\n      swap1\n      pop\n        /* \"MarketERC721.sol\":5804:5816  ERC721 token */\n      0x00\n        /* \"MarketERC721.sol\":5826:5838  contractAddr */\n      dup9\n        /* \"MarketERC721.sol\":5804:5839  ERC721 token = ERC721(contractAddr) */\n      swap1\n      pop\n        /* \"MarketERC721.sol\":5850:5860  ERC20 coin */\n      0x00\n        /* \"MarketERC721.sol\":5869:5877  coinAddr */\n      dup9\n        /* \"MarketERC721.sol\":5850:5878  ERC20 coin = ERC20(coinAddr) */\n      swap1\n      pop\n        /* \"MarketERC721.sol\":5897:5901  item */\n      dup3\n        /* \"MarketERC721.sol\":5897:5911  item.isListing */\n      0x02\n      add\n      0x14\n      swap1\n      sload\n      swap1\n      0x0100\n      exp\n      swap1\n      div\n      0xff\n      and\n        /* \"MarketERC721.sol\":5889:5941  require(item.isListing, \"This NFT is not for sell.\") */\n      tag_103\n      jumpi\n      mload(0x40)\n      0x08c379a000000000000000000000000000000000000000000000000000000000\n      dup2\n      mstore\n      0x04\n      add\n      tag_104\n      swap1\n      tag_105\n      jump\t// in\n    tag_104:\n      mload(0x40)\n      dup1\n      swap2\n      sub\n      swap1\n      revert\n    tag_103:\n        /* \"MarketERC721.sol\":5974:5978  item */\n      dup3\n        /* \"MarketERC721.sol\":5974:5985  item.seller */\n      0x01\n      add\n      0x00\n      swap1\n      sload\n      swap1\n      0x0100\n      exp\n      swap1\n      div\n      0xffffffffffffffffffffffffffffffffffffffff\n      and\n        /* \"MarketERC721.sol\":5960:5985  msg.sender != item.seller */\n      0xffffffffffffffffffffffffffffffffffffffff\n      and\n        /* \"MarketERC721.sol\":5960:5970  msg.sender */\n      caller\n        /* \"MarketERC721.sol\":5960:5985  msg.sender != item.seller */\n      0xffffffffffffffffffffffffffffffffffffffff\n      and\n      eq\n      iszero\n        /* \"MarketERC721.sol\":5952:6008  require(msg.sender != item.seller, \"Buy from yourself.\") */\n      tag_106\n      jumpi\n      mload(0x40)\n      0x08c379a000000000000000000000000000000000000000000000000000000000\n      dup2\n      mstore\n      0x04\n      add\n      tag_107\n      swap1\n      tag_108\n      jump\t// in\n    tag_107:\n      mload(0x40)\n      dup1\n      swap2\n      sub\n      swap1\n      revert\n    tag_106:\n        /* \"MarketERC721.sol\":6057:6061  item */\n      dup3\n        /* \"MarketERC721.sol\":6057:6067  item.price */\n      0x00\n      add\n      sload\n        /* \"MarketERC721.sol\":6027:6031  coin */\n      dup2\n        /* \"MarketERC721.sol\":6027:6041  coin.balanceOf */\n      0xffffffffffffffffffffffffffffffffffffffff\n      and\n      0x70a08231\n        /* \"MarketERC721.sol\":6042:6052  msg.sender */\n      caller\n        /* \"MarketERC721.sol\":6027:6053  coin.balanceOf(msg.sender) */\n      mload(0x40)\n      dup3\n      0xffffffff\n      and\n      0xe0\n      shl\n      dup2\n      mstore\n      0x04\n      add\n      tag_109\n      swap2\n      swap1\n      tag_39\n      jump\t// in\n    tag_109:\n      0x20\n      mload(0x40)\n      dup1\n      dup4\n      sub\n      dup2\n      dup7\n      dup1\n      extcodesize\n      iszero\n      dup1\n      iszero\n      tag_110\n      jumpi\n      0x00\n      dup1\n      revert\n    tag_110:\n      pop\n      gas\n      staticcall\n      iszero\n      dup1\n      iszero\n      tag_112\n      jumpi\n      returndatasize\n      0x00\n      dup1\n      returndatacopy\n      revert(0x00, returndatasize)\n    tag_112:\n      pop\n      pop\n      pop\n      pop\n      mload(0x40)\n      returndatasize\n      not(0x1f)\n      0x1f\n      dup3\n      add\n      and\n      dup3\n      add\n      dup1\n      0x40\n      mstore\n      pop\n      dup2\n      add\n      swap1\n      tag_113\n      swap2\n      swap1\n      tag_114\n      jump\t// in\n    tag_113:\n        /* \"MarketERC721.sol\":6027:6067  coin.balanceOf(msg.sender) >= item.price */\n      lt\n      iszero\n        /* \"MarketERC721.sol\":6019:6096  require(coin.balanceOf(msg.sender) >= item.price, \"Insufficient funds sent.\") */\n      tag_115\n      jumpi\n      mload(0x40)\n      0x08c379a000000000000000000000000000000000000000000000000000000000\n      dup2\n      mstore\n      0x04\n      add\n      tag_116\n      swap1\n      tag_117\n      jump\t// in\n    tag_116:\n      mload(0x40)\n      dup1\n      swap2\n      sub\n      swap1\n      revert\n    tag_115:\n        /* \"MarketERC721.sol\":6107:6111  coin */\n      dup1\n        /* \"MarketERC721.sol\":6107:6124  coin.transferFrom */\n      0xffffffffffffffffffffffffffffffffffffffff\n      and\n      0x23b872dd\n        /* \"MarketERC721.sol\":6125:6135  msg.sender */\n      caller\n        /* \"MarketERC721.sol\":6137:6141  item */\n      dup6\n        /* \"MarketERC721.sol\":6137:6148  item.seller */\n      0x01\n      add\n      0x00\n      swap1\n      sload\n      swap1\n      0x0100\n      exp\n      swap1\n      div\n      0xffffffffffffffffffffffffffffffffffffffff\n      and\n        /* \"MarketERC721.sol\":6177:6179  20 */\n      0x14\n        /* \"MarketERC721.sol\":6164:6168  item */\n      dup8\n        /* \"MarketERC721.sol\":6164:6174  item.price */\n      0x00\n      add\n      sload\n        /* \"MarketERC721.sol\":6164:6179  item.price / 20 */\n      tag_118\n      swap2\n      swap1\n      tag_119\n      jump\t// in\n    tag_118:\n        /* \"MarketERC721.sol\":6150:6154  item */\n      dup8\n        /* \"MarketERC721.sol\":6150:6160  item.price */\n      0x00\n      add\n      sload\n        /* \"MarketERC721.sol\":6150:6180  item.price - (item.price / 20) */\n      tag_120\n      swap2\n      swap1\n      tag_121\n      jump\t// in\n    tag_120:\n        /* \"MarketERC721.sol\":6107:6181  coin.transferFrom(msg.sender, item.seller, item.price - (item.price / 20)) */\n      mload(0x40)\n      dup5\n      0xffffffff\n      and\n      0xe0\n      shl\n      dup2\n      mstore\n      0x04\n      add\n      tag_122\n      swap4\n      swap3\n      swap2\n      swap1\n      tag_123\n      jump\t// in\n    tag_122:\n      0x20\n      mload(0x40)\n      dup1\n      dup4\n      sub\n      dup2\n      0x00\n      dup8\n      dup1\n      extcodesize\n      iszero\n      dup1\n      iszero\n      tag_124\n      jumpi\n      0x00\n      dup1\n      revert\n    tag_124:\n      pop\n      gas\n      call\n      iszero\n      dup1\n      iszero\n      tag_126\n      jumpi\n      returndatasize\n      0x00\n      dup1\n      returndatacopy\n      revert(0x00, returndatasize)\n    tag_126:\n      pop\n      pop\n      pop\n      pop\n      mload(0x40)\n      returndatasize\n      not(0x1f)\n      0x1f\n      dup3\n      add\n      and\n      dup3\n      add\n      dup1\n      0x40\n      mstore\n      pop\n      dup2\n      add\n      swap1\n      tag_127\n      swap2\n      swap1\n      tag_128\n      jump\t// in\n    tag_127:\n      pop\n        /* \"MarketERC721.sol\":6192:6196  coin */\n      dup1\n        /* \"MarketERC721.sol\":6192:6209  coin.transferFrom */\n      0xffffffffffffffffffffffffffffffffffffffff\n      and\n      0x23b872dd\n        /* \"MarketERC721.sol\":6210:6220  msg.sender */\n      caller\n        /* \"MarketERC721.sol\":6222:6229  owner() */\n      tag_129\n        /* \"MarketERC721.sol\":6222:6227  owner */\n      tag_79\n        /* \"MarketERC721.sol\":6222:6229  owner() */\n      jump\t// in\n    tag_129:\n        /* \"MarketERC721.sol\":6231:6243  metaverseFee */\n      dup10\n        /* \"MarketERC721.sol\":6192:6244  coin.transferFrom(msg.sender, owner(), metaverseFee) */\n      mload(0x40)\n      dup5\n      0xffffffff\n      and\n      0xe0\n      shl\n      dup2\n      mstore\n      0x04\n      add\n      tag_130\n      swap4\n      swap3\n      swap2\n      swap1\n      tag_123\n      jump\t// in\n    tag_130:\n      0x20\n      mload(0x40)\n      dup1\n      dup4\n      sub\n      dup2\n      0x00\n      dup8\n      dup1\n      extcodesize\n      iszero\n      dup1\n      iszero\n      tag_131\n      jumpi\n      0x00\n      dup1\n      revert\n    tag_131:\n      pop\n      gas\n      call\n      iszero\n      dup1\n      iszero\n      tag_133\n      jumpi\n      returndatasize\n      0x00\n      dup1\n      returndatacopy\n      revert(0x00, returndatasize)\n    tag_133:\n      pop\n      pop\n      pop\n      pop\n      mload(0x40)\n      returndatasize\n      not(0x1f)\n      0x1f\n      dup3\n      add\n      and\n      dup3\n      add\n      dup1\n      0x40\n      mstore\n      pop\n      dup2\n      add\n      swap1\n      tag_134\n      swap2\n      swap1\n      tag_128\n      jump\t// in\n    tag_134:\n      pop\n        /* \"MarketERC721.sol\":6277:6278  0 */\n      0x00\n        /* \"MarketERC721.sol\":6258:6279  referer != address(0) */\n      0xffffffffffffffffffffffffffffffffffffffff\n      and\n        /* \"MarketERC721.sol\":6258:6265  referer */\n      dup8\n        /* \"MarketERC721.sol\":6258:6279  referer != address(0) */\n      0xffffffffffffffffffffffffffffffffffffffff\n      and\n      eq\n        /* \"MarketERC721.sol\":6255:6357  if(referer != address(0)){\r... */\n      tag_135\n      jumpi\n        /* \"MarketERC721.sol\":6295:6299  coin */\n      dup1\n        /* \"MarketERC721.sol\":6295:6312  coin.transferFrom */\n      0xffffffffffffffffffffffffffffffffffffffff\n      and\n      0x23b872dd\n        /* \"MarketERC721.sol\":6313:6323  msg.sender */\n      caller\n        /* \"MarketERC721.sol\":6325:6332  referer */\n      dup10\n        /* \"MarketERC721.sol\":6334:6344  referalFee */\n      dup8\n        /* \"MarketERC721.sol\":6295:6345  coin.transferFrom(msg.sender, referer, referalFee) */\n      mload(0x40)\n      dup5\n      0xffffffff\n      and\n      0xe0\n      shl\n      dup2\n      mstore\n      0x04\n      add\n      tag_136\n      swap4\n      swap3\n      swap2\n      swap1\n      tag_123\n      jump\t// in\n    tag_136:\n      0x20\n      mload(0x40)\n      dup1\n      dup4\n      sub\n      dup2\n      0x00\n      dup8\n      dup1\n      extcodesize\n      iszero\n      dup1\n      iszero\n      tag_137\n      jumpi\n      0x00\n      dup1\n      revert\n    tag_137:\n      pop\n      gas\n      call\n      iszero\n      dup1\n      iszero\n      tag_139\n      jumpi\n      returndatasize\n      0x00\n      dup1\n      returndatacopy\n      revert(0x00, returndatasize)\n    tag_139:\n      pop\n      pop\n      pop\n      pop\n      mload(0x40)\n      returndatasize\n      not(0x1f)\n      0x1f\n      dup3\n      add\n      and\n      dup3\n      add\n      dup1\n      0x40\n      mstore\n      pop\n      dup2\n      add\n      swap1\n      tag_140\n      swap2\n      swap1\n      tag_128\n      jump\t// in\n    tag_140:\n      pop\n        /* \"MarketERC721.sol\":6255:6357  if(referer != address(0)){\r... */\n    tag_135:\n        /* \"MarketERC721.sol\":6372:6378  uint i */\n      0x00\n        /* \"MarketERC721.sol\":6367:6657  for (uint i = 0; i < 5; i++) {\r... */\n    tag_141:\n        /* \"MarketERC721.sol\":6388:6389  5 */\n      0x05\n        /* \"MarketERC721.sol\":6384:6385  i */\n      dup2\n        /* \"MarketERC721.sol\":6384:6389  i < 5 */\n      lt\n        /* \"MarketERC721.sol\":6367:6657  for (uint i = 0; i < 5; i++) {\r... */\n      iszero\n      tag_142\n      jumpi\n        /* \"MarketERC721.sol\":6453:6454  0 */\n      0x00\n        /* \"MarketERC721.sol\":6419:6455  item.previousOwners[i] != address(0) */\n      0xffffffffffffffffffffffffffffffffffffffff\n      and\n        /* \"MarketERC721.sol\":6419:6423  item */\n      dup5\n        /* \"MarketERC721.sol\":6419:6438  item.previousOwners */\n      0x05\n      add\n        /* \"MarketERC721.sol\":6419:6441  item.previousOwners[i] */\n      0x00\n        /* \"MarketERC721.sol\":6439:6440  i */\n      dup4\n        /* \"MarketERC721.sol\":6419:6441  item.previousOwners[i] */\n      dup2\n      mstore\n      0x20\n      add\n      swap1\n      dup2\n      mstore\n      0x20\n      add\n      0x00\n      keccak256\n      0x00\n      swap1\n      sload\n      swap1\n      0x0100\n      exp\n      swap1\n      div\n      0xffffffffffffffffffffffffffffffffffffffff\n      and\n        /* \"MarketERC721.sol\":6419:6455  item.previousOwners[i] != address(0) */\n      0xffffffffffffffffffffffffffffffffffffffff\n      and\n      eq\n        /* \"MarketERC721.sol\":6415:6642  if (item.previousOwners[i] != address(0)) {\r... */\n      tag_144\n      jumpi\n        /* \"MarketERC721.sol\":6480:6484  coin */\n      dup2\n        /* \"MarketERC721.sol\":6480:6497  coin.transferFrom */\n      0xffffffffffffffffffffffffffffffffffffffff\n      and\n      0x23b872dd\n        /* \"MarketERC721.sol\":6498:6508  msg.sender */\n      caller\n        /* \"MarketERC721.sol\":6510:6514  item */\n      dup7\n        /* \"MarketERC721.sol\":6510:6529  item.previousOwners */\n      0x05\n      add\n        /* \"MarketERC721.sol\":6510:6532  item.previousOwners[i] */\n      0x00\n        /* \"MarketERC721.sol\":6530:6531  i */\n      dup6\n        /* \"MarketERC721.sol\":6510:6532  item.previousOwners[i] */\n      dup2\n      mstore\n      0x20\n      add\n      swap1\n      dup2\n      mstore\n      0x20\n      add\n      0x00\n      keccak256\n      0x00\n      swap1\n      sload\n      swap1\n      0x0100\n      exp\n      swap1\n      div\n      0xffffffffffffffffffffffffffffffffffffffff\n      and\n        /* \"MarketERC721.sol\":6534:6550  previousOwnerFee */\n      dup10\n        /* \"MarketERC721.sol\":6480:6551  coin.transferFrom(msg.sender, item.previousOwners[i], previousOwnerFee) */\n      mload(0x40)\n      dup5\n      0xffffffff\n      and\n      0xe0\n      shl\n      dup2\n      mstore\n      0x04\n      add\n      tag_145\n      swap4\n      swap3\n      swap2\n      swap1\n      tag_123\n      jump\t// in\n    tag_145:\n      0x20\n      mload(0x40)\n      dup1\n      dup4\n      sub\n      dup2\n      0x00\n      dup8\n      dup1\n      extcodesize\n      iszero\n      dup1\n      iszero\n      tag_146\n      jumpi\n      0x00\n      dup1\n      revert\n    tag_146:\n      pop\n      gas\n      call\n      iszero\n      dup1\n      iszero\n      tag_148\n      jumpi\n      returndatasize\n      0x00\n      dup1\n      returndatacopy\n      revert(0x00, returndatasize)\n    tag_148:\n      pop\n      pop\n      pop\n      pop\n      mload(0x40)\n      returndatasize\n      not(0x1f)\n      0x1f\n      dup3\n      add\n      and\n      dup3\n      add\n      dup1\n      0x40\n      mstore\n      pop\n      dup2\n      add\n      swap1\n      tag_149\n      swap2\n      swap1\n      tag_128\n      jump\t// in\n    tag_149:\n      pop\n        /* \"MarketERC721.sol\":6415:6642  if (item.previousOwners[i] != address(0)) {\r... */\n      jump(tag_150)\n    tag_144:\n        /* \"MarketERC721.sol\":6617:6622  break */\n      jump(tag_142)\n        /* \"MarketERC721.sol\":6415:6642  if (item.previousOwners[i] != address(0)) {\r... */\n    tag_150:\n        /* \"MarketERC721.sol\":6391:6394  i++ */\n      dup1\n      dup1\n      tag_151\n      swap1\n      tag_152\n      jump\t// in\n    tag_151:\n      swap2\n      pop\n      pop\n        /* \"MarketERC721.sol\":6367:6657  for (uint i = 0; i < 5; i++) {\r... */\n      jump(tag_141)\n    tag_142:\n      pop\n        /* \"MarketERC721.sol\":6669:6674  token */\n      dup2\n        /* \"MarketERC721.sol\":6669:6691  token.safeTransferFrom */\n      0xffffffffffffffffffffffffffffffffffffffff\n      and\n      0xb88d4fde\n        /* \"MarketERC721.sol\":6692:6696  item */\n      dup5\n        /* \"MarketERC721.sol\":6692:6703  item.seller */\n      0x01\n      add\n      0x00\n      swap1\n      sload\n      swap1\n      0x0100\n      exp\n      swap1\n      div\n      0xffffffffffffffffffffffffffffffffffffffff\n      and\n        /* \"MarketERC721.sol\":6705:6715  msg.sender */\n      caller\n        /* \"MarketERC721.sol\":6717:6724  tokenId */\n      dup12\n        /* \"MarketERC721.sol\":6669:6729  token.safeTransferFrom(item.seller, msg.sender, tokenId, \"\") */\n      mload(0x40)\n      dup5\n      0xffffffff\n      and\n      0xe0\n      shl\n      dup2\n      mstore\n      0x04\n      add\n      tag_153\n      swap4\n      swap3\n      swap2\n      swap1\n      tag_154\n      jump\t// in\n    tag_153:\n      0x00\n      mload(0x40)\n      dup1\n      dup4\n      sub\n      dup2\n      0x00\n      dup8\n      dup1\n      extcodesize\n      iszero\n      dup1\n      iszero\n      tag_155\n      jumpi\n      0x00\n      dup1\n      revert\n    tag_155:\n      pop\n      gas\n      call\n      iszero\n      dup1\n      iszero\n      tag_157\n      jumpi\n      returndatasize\n      0x00\n      dup1\n      returndatacopy\n      revert(0x00, returndatasize)\n    tag_157:\n      pop\n      pop\n      pop\n      pop\n        /* \"MarketERC721.sol\":6753:6763  msg.sender */\n      caller\n        /* \"MarketERC721.sol\":6740:6744  item */\n      dup4\n        /* \"MarketERC721.sol\":6740:6750  item.owner */\n      0x02\n      add\n      0x00\n        /* \"MarketERC721.sol\":6740:6763  item.owner = msg.sender */\n      0x0100\n      exp\n      dup2\n      sload\n      dup2\n      0xffffffffffffffffffffffffffffffffffffffff\n      mul\n      not\n      and\n      swap1\n      dup4\n      0xffffffffffffffffffffffffffffffffffffffff\n      and\n      mul\n      or\n      swap1\n      sstore\n      pop\n        /* \"MarketERC721.sol\":6803:6804  5 */\n      0x05\n        /* \"MarketERC721.sol\":6779:6783  item */\n      dup4\n        /* \"MarketERC721.sol\":6779:6800  item.prevOwnersAmount */\n      0x04\n      add\n      sload\n        /* \"MarketERC721.sol\":6779:6804  item.prevOwnersAmount < 5 */\n      lt\n        /* \"MarketERC721.sol\":6776:6859  if(item.prevOwnersAmount < 5) {\r... */\n      iszero\n      tag_158\n      jumpi\n        /* \"MarketERC721.sol\":6846:6847  1 */\n      0x01\n        /* \"MarketERC721.sol\":6821:6825  item */\n      dup4\n        /* \"MarketERC721.sol\":6821:6842  item.prevOwnersAmount */\n      0x04\n      add\n      0x00\n        /* \"MarketERC721.sol\":6821:6847  item.prevOwnersAmount += 1 */\n      dup3\n      dup3\n      sload\n      tag_159\n      swap2\n      swap1\n      tag_160\n      jump\t// in\n    tag_159:\n      swap3\n      pop\n      pop\n      dup2\n      swap1\n      sstore\n      pop\n        /* \"MarketERC721.sol\":6776:6859  if(item.prevOwnersAmount < 5) {\r... */\n    tag_158:\n        /* \"MarketERC721.sol\":6893:6894  3 */\n      0x03\n        /* \"MarketERC721.sol\":6874:6878  item */\n      dup4\n        /* \"MarketERC721.sol\":6874:6889  item.ownerCount */\n      0x03\n      add\n      sload\n        /* \"MarketERC721.sol\":6874:6894  item.ownerCount <= 3 */\n      gt\n        /* \"MarketERC721.sol\":6871:7134  if(item.ownerCount <= 3) {\r... */\n      tag_161\n      jumpi\n        /* \"MarketERC721.sol\":6950:6954  item */\n      dup3\n        /* \"MarketERC721.sol\":6950:6961  item.seller */\n      0x01\n      add\n      0x00\n      swap1\n      sload\n      swap1\n      0x0100\n      exp\n      swap1\n      div\n      0xffffffffffffffffffffffffffffffffffffffff\n      and\n        /* \"MarketERC721.sol\":6911:6915  item */\n      dup4\n        /* \"MarketERC721.sol\":6911:6930  item.previousOwners */\n      0x05\n      add\n        /* \"MarketERC721.sol\":6911:6947  item.previousOwners[item.ownerCount] */\n      0x00\n        /* \"MarketERC721.sol\":6931:6935  item */\n      dup6\n        /* \"MarketERC721.sol\":6931:6946  item.ownerCount */\n      0x03\n      add\n      sload\n        /* \"MarketERC721.sol\":6911:6947  item.previousOwners[item.ownerCount] */\n      dup2\n      mstore\n      0x20\n      add\n      swap1\n      dup2\n      mstore\n      0x20\n      add\n      0x00\n      keccak256\n      0x00\n        /* \"MarketERC721.sol\":6911:6961  item.previousOwners[item.ownerCount] = item.seller */\n      0x0100\n      exp\n      dup2\n      sload\n      dup2\n      0xffffffffffffffffffffffffffffffffffffffff\n      mul\n      not\n      and\n      swap1\n      dup4\n      0xffffffffffffffffffffffffffffffffffffffff\n      and\n      mul\n      or\n      swap1\n      sstore\n      pop\n        /* \"MarketERC721.sol\":6995:6996  1 */\n      0x01\n        /* \"MarketERC721.sol\":6976:6980  item */\n      dup4\n        /* \"MarketERC721.sol\":6976:6991  item.ownerCount */\n      0x03\n      add\n      0x00\n        /* \"MarketERC721.sol\":6976:6996  item.ownerCount += 1 */\n      dup3\n      dup3\n      sload\n      tag_162\n      swap2\n      swap1\n      tag_160\n      jump\t// in\n    tag_162:\n      swap3\n      pop\n      pop\n      dup2\n      swap1\n      sstore\n      pop\n        /* \"MarketERC721.sol\":6871:7134  if(item.ownerCount <= 3) {\r... */\n      jump(tag_163)\n    tag_161:\n        /* \"MarketERC721.sol\":7077:7081  item */\n      dup3\n        /* \"MarketERC721.sol\":7077:7088  item.seller */\n      0x01\n      add\n      0x00\n      swap1\n      sload\n      swap1\n      0x0100\n      exp\n      swap1\n      div\n      0xffffffffffffffffffffffffffffffffffffffff\n      and\n        /* \"MarketERC721.sol\":7038:7042  item */\n      dup4\n        /* \"MarketERC721.sol\":7038:7057  item.previousOwners */\n      0x05\n      add\n        /* \"MarketERC721.sol\":7038:7074  item.previousOwners[item.ownerCount] */\n      0x00\n        /* \"MarketERC721.sol\":7058:7062  item */\n      dup6\n        /* \"MarketERC721.sol\":7058:7073  item.ownerCount */\n      0x03\n      add\n      sload\n        /* \"MarketERC721.sol\":7038:7074  item.previousOwners[item.ownerCount] */\n      dup2\n      mstore\n      0x20\n      add\n      swap1\n      dup2\n      mstore\n      0x20\n      add\n      0x00\n      keccak256\n      0x00\n        /* \"MarketERC721.sol\":7038:7088  item.previousOwners[item.ownerCount] = item.seller */\n      0x0100\n      exp\n      dup2\n      sload\n      dup2\n      0xffffffffffffffffffffffffffffffffffffffff\n      mul\n      not\n      and\n      swap1\n      dup4\n      0xffffffffffffffffffffffffffffffffffffffff\n      and\n      mul\n      or\n      swap1\n      sstore\n      pop\n        /* \"MarketERC721.sol\":7121:7122  0 */\n      0x00\n        /* \"MarketERC721.sol\":7103:7107  item */\n      dup4\n        /* \"MarketERC721.sol\":7103:7118  item.ownerCount */\n      0x03\n      add\n        /* \"MarketERC721.sol\":7103:7122  item.ownerCount = 0 */\n      dup2\n      swap1\n      sstore\n      pop\n        /* \"MarketERC721.sol\":6871:7134  if(item.ownerCount <= 3) {\r... */\n    tag_163:\n        /* \"MarketERC721.sol\":7163:7168  false */\n      0x00\n        /* \"MarketERC721.sol\":7146:7150  item */\n      dup4\n        /* \"MarketERC721.sol\":7146:7160  item.isListing */\n      0x02\n      add\n      0x14\n        /* \"MarketERC721.sol\":7146:7168  item.isListing = false */\n      0x0100\n      exp\n      dup2\n      sload\n      dup2\n      0xff\n      mul\n      not\n      and\n      swap1\n      dup4\n      iszero\n      iszero\n      mul\n      or\n      swap1\n      sstore\n      pop\n        /* \"MarketERC721.sol\":7222:7226  item */\n      dup3\n        /* \"MarketERC721.sol\":7222:7236  item.isListing */\n      0x02\n      add\n      0x14\n      swap1\n      sload\n      swap1\n      0x0100\n      exp\n      swap1\n      div\n      0xff\n      and\n        /* \"MarketERC721.sol\":7184:7237  List(msg.sender, tokenId, item.price, item.isListing) */\n      iszero\n      iszero\n        /* \"MarketERC721.sol\":7201:7208  tokenId */\n      dup9\n        /* \"MarketERC721.sol\":7189:7199  msg.sender */\n      caller\n        /* \"MarketERC721.sol\":7184:7237  List(msg.sender, tokenId, item.price, item.isListing) */\n      0xffffffffffffffffffffffffffffffffffffffff\n      and\n      0xa7cd299f7ebc29460ad99cf3ea75776d7cd038a63a59fa595e86441f8190ef90\n        /* \"MarketERC721.sol\":7210:7214  item */\n      dup7\n        /* \"MarketERC721.sol\":7210:7220  item.price */\n      0x00\n      add\n      sload\n        /* \"MarketERC721.sol\":7184:7237  List(msg.sender, tokenId, item.price, item.isListing) */\n      mload(0x40)\n      tag_164\n      swap2\n      swap1\n      tag_60\n      jump\t// in\n    tag_164:\n      mload(0x40)\n      dup1\n      swap2\n      sub\n      swap1\n      log4\n        /* \"MarketERC721.sol\":5728:7245  {\r... */\n      pop\n      pop\n      pop\n        /* \"MarketERC721.sol\":5548:7245  function purchaseERC20(address contractAddr, address coinAddr, uint256 tokenId, address referer, uint256 metaverseFee, uint256 previousOwnerFee, uint256 referalFee) public payable {\r... */\n      pop\n      pop\n      pop\n      pop\n      pop\n      pop\n      pop\n      jump\t// out\n        /* \"MarketERC721.sol\":10081:10233  function getOwner(address contractAddr, uint tokenId) public view returns(address owner) {\r... */\n    tag_53:\n        /* \"MarketERC721.sol\":10155:10168  address owner */\n      0x00\n        /* \"MarketERC721.sol\":10188:10196  listings */\n      0x01\n        /* \"MarketERC721.sol\":10188:10210  listings[contractAddr] */\n      0x00\n        /* \"MarketERC721.sol\":10197:10209  contractAddr */\n      dup5\n        /* \"MarketERC721.sol\":10188:10210  listings[contractAddr] */\n      0xffffffffffffffffffffffffffffffffffffffff\n      and\n      0xffffffffffffffffffffffffffffffffffffffff\n      and\n      dup2\n      mstore\n      0x20\n      add\n      swap1\n      dup2\n      mstore\n      0x20\n      add\n      0x00\n      keccak256\n        /* \"MarketERC721.sol\":10188:10219  listings[contractAddr][tokenId] */\n      0x00\n        /* \"MarketERC721.sol\":10211:10218  tokenId */\n      dup4\n        /* \"MarketERC721.sol\":10188:10219  listings[contractAddr][tokenId] */\n      dup2\n      mstore\n      0x20\n      add\n      swap1\n      dup2\n      mstore\n      0x20\n      add\n      0x00\n      keccak256\n        /* \"MarketERC721.sol\":10188:10225  listings[contractAddr][tokenId].owner */\n      0x02\n      add\n      0x00\n      swap1\n      sload\n      swap1\n      0x0100\n      exp\n      swap1\n      div\n      0xffffffffffffffffffffffffffffffffffffffff\n      and\n        /* \"MarketERC721.sol\":10181:10225  return listings[contractAddr][tokenId].owner */\n      swap1\n      pop\n        /* \"MarketERC721.sol\":10081:10233  function getOwner(address contractAddr, uint tokenId) public view returns(address owner) {\r... */\n      swap3\n      swap2\n      pop\n      pop\n      jump\t// out\n        /* \"MarketERC721.sol\":9197:9349  function getPrice(address contractAddr, uint tokenId) public view returns(uint256 price) {\r... */\n    tag_58:\n        /* \"MarketERC721.sol\":9271:9284  uint256 price */\n      0x00\n        /* \"MarketERC721.sol\":9304:9312  listings */\n      0x01\n        /* \"MarketERC721.sol\":9304:9326  listings[contractAddr] */\n      0x00\n        /* \"MarketERC721.sol\":9313:9325  contractAddr */\n      dup5\n        /* \"MarketERC721.sol\":9304:9326  listings[contractAddr] */\n      0xffffffffffffffffffffffffffffffffffffffff\n      and\n      0xffffffffffffffffffffffffffffffffffffffff\n      and\n      dup2\n      mstore\n      0x20\n      add\n      swap1\n      dup2\n      mstore\n      0x20\n      add\n      0x00\n      keccak256\n        /* \"MarketERC721.sol\":9304:9335  listings[contractAddr][tokenId] */\n      0x00\n        /* \"MarketERC721.sol\":9327:9334  tokenId */\n      dup4\n        /* \"MarketERC721.sol\":9304:9335  listings[contractAddr][tokenId] */\n      dup2\n      mstore\n      0x20\n      add\n      swap1\n      dup2\n      mstore\n      0x20\n      add\n      0x00\n      keccak256\n        /* \"MarketERC721.sol\":9304:9341  listings[contractAddr][tokenId].price */\n      0x00\n      add\n      sload\n        /* \"MarketERC721.sol\":9297:9341  return listings[contractAddr][tokenId].price */\n      swap1\n      pop\n        /* \"MarketERC721.sol\":9197:9349  function getPrice(address contractAddr, uint tokenId) public view returns(uint256 price) {\r... */\n      swap3\n      swap2\n      pop\n      pop\n      jump\t// out\n        /* \"Ownable.sol\":607:710  function renounceOwnership() public virtual onlyOwner {\r... */\n    tag_63:\n        /* \"Ownable.sol\":530:542  _msgSender() */\n      tag_168\n        /* \"Ownable.sol\":530:540  _msgSender */\n      tag_169\n        /* \"Ownable.sol\":530:542  _msgSender() */\n      jump\t// in\n    tag_168:\n        /* \"Ownable.sol\":519:542  owner() == _msgSender() */\n      0xffffffffffffffffffffffffffffffffffffffff\n      and\n        /* \"Ownable.sol\":519:526  owner() */\n      tag_170\n        /* \"Ownable.sol\":519:524  owner */\n      tag_79\n        /* \"Ownable.sol\":519:526  owner() */\n      jump\t// in\n    tag_170:\n        /* \"Ownable.sol\":519:542  owner() == _msgSender() */\n      0xffffffffffffffffffffffffffffffffffffffff\n      and\n      eq\n        /* \"Ownable.sol\":511:579  require(owner() == _msgSender(), \"Ownable: caller is not the owner\") */\n      tag_171\n      jumpi\n      mload(0x40)\n      0x08c379a000000000000000000000000000000000000000000000000000000000\n      dup2\n      mstore\n      0x04\n      add\n      tag_172\n      swap1\n      tag_173\n      jump\t// in\n    tag_172:\n      mload(0x40)\n      dup1\n      swap2\n      sub\n      swap1\n      revert\n    tag_171:\n        /* \"Ownable.sol\":672:702  _transferOwnership(address(0)) */\n      tag_175\n        /* \"Ownable.sol\":699:700  0 */\n      0x00\n        /* \"Ownable.sol\":672:690  _transferOwnership */\n      tag_176\n        /* \"Ownable.sol\":672:702  _transferOwnership(address(0)) */\n      jump\t// in\n    tag_175:\n        /* \"Ownable.sol\":607:710  function renounceOwnership() public virtual onlyOwner {\r... */\n      jump\t// out\n        /* \"MarketERC721.sol\":1050:1630  function addListing(uint256 price, address contractAddr, uint256 tokenId) public {\r... */\n    tag_68:\n        /* \"MarketERC721.sol\":1142:1154  ERC721 token */\n      0x00\n        /* \"MarketERC721.sol\":1164:1176  contractAddr */\n      dup3\n        /* \"MarketERC721.sol\":1142:1177  ERC721 token = ERC721(contractAddr) */\n      swap1\n      pop\n        /* \"MarketERC721.sol\":1188:1208  Listing storage item */\n      0x00\n        /* \"MarketERC721.sol\":1211:1219  listings */\n      0x01\n        /* \"MarketERC721.sol\":1211:1233  listings[contractAddr] */\n      0x00\n        /* \"MarketERC721.sol\":1220:1232  contractAddr */\n      dup6\n        /* \"MarketERC721.sol\":1211:1233  listings[contractAddr] */\n      0xffffffffffffffffffffffffffffffffffffffff\n      and\n      0xffffffffffffffffffffffffffffffffffffffff\n      and\n      dup2\n      mstore\n      0x20\n      add\n      swap1\n      dup2\n      mstore\n      0x20\n      add\n      0x00\n      keccak256\n        /* \"MarketERC721.sol\":1211:1242  listings[contractAddr][tokenId] */\n      0x00\n        /* \"MarketERC721.sol\":1234:1241  tokenId */\n      dup5\n        /* \"MarketERC721.sol\":1211:1242  listings[contractAddr][tokenId] */\n      dup2\n      mstore\n      0x20\n      add\n      swap1\n      dup2\n      mstore\n      0x20\n      add\n      0x00\n      keccak256\n        /* \"MarketERC721.sol\":1188:1242  Listing storage item = listings[contractAddr][tokenId] */\n      swap1\n      pop\n        /* \"MarketERC721.sol\":1287:1297  msg.sender */\n      caller\n        /* \"MarketERC721.sol\":1261:1297  token.ownerOf(tokenId) == msg.sender */\n      0xffffffffffffffffffffffffffffffffffffffff\n      and\n        /* \"MarketERC721.sol\":1261:1266  token */\n      dup3\n        /* \"MarketERC721.sol\":1261:1274  token.ownerOf */\n      0xffffffffffffffffffffffffffffffffffffffff\n      and\n      0x6352211e\n        /* \"MarketERC721.sol\":1275:1282  tokenId */\n      dup6\n        /* \"MarketERC721.sol\":1261:1283  token.ownerOf(tokenId) */\n      mload(0x40)\n      dup3\n      0xffffffff\n      and\n      0xe0\n      shl\n      dup2\n      mstore\n      0x04\n      add\n      tag_178\n      swap2\n      swap1\n      tag_60\n      jump\t// in\n    tag_178:\n      0x20\n      mload(0x40)\n      dup1\n      dup4\n      sub\n      dup2\n      dup7\n      dup1\n      extcodesize\n      iszero\n      dup1\n      iszero\n      tag_179\n      jumpi\n      0x00\n      dup1\n      revert\n    tag_179:\n      pop\n      gas\n      staticcall\n      iszero\n      dup1\n      iszero\n      tag_181\n      jumpi\n      returndatasize\n      0x00\n      dup1\n      returndatacopy\n      revert(0x00, returndatasize)\n    tag_181:\n      pop\n      pop\n      pop\n      pop\n      mload(0x40)\n      returndatasize\n      not(0x1f)\n      0x1f\n      dup3\n      add\n      and\n      dup3\n      add\n      dup1\n      0x40\n      mstore\n      pop\n      dup2\n      add\n      swap1\n      tag_182\n      swap2\n      swap1\n      tag_183\n      jump\t// in\n    tag_182:\n        /* \"MarketERC721.sol\":1261:1297  token.ownerOf(tokenId) == msg.sender */\n      0xffffffffffffffffffffffffffffffffffffffff\n      and\n      eq\n        /* \"MarketERC721.sol\":1253:1322  require(token.ownerOf(tokenId) == msg.sender, \"Seller has no token.\") */\n      tag_184\n      jumpi\n      mload(0x40)\n      0x08c379a000000000000000000000000000000000000000000000000000000000\n      dup2\n      mstore\n      0x04\n      add\n      tag_185\n      swap1\n      tag_186\n      jump\t// in\n    tag_185:\n      mload(0x40)\n      dup1\n      swap2\n      sub\n      swap1\n      revert\n    tag_184:\n        /* \"MarketERC721.sol\":1341:1346  token */\n      dup2\n        /* \"MarketERC721.sol\":1341:1363  token.isApprovedForAll */\n      0xffffffffffffffffffffffffffffffffffffffff\n      and\n      0xe985e9c5\n        /* \"MarketERC721.sol\":1364:1374  msg.sender */\n      caller\n        /* \"MarketERC721.sol\":1384:1388  this */\n      address\n        /* \"MarketERC721.sol\":1341:1390  token.isApprovedForAll(msg.sender, address(this)) */\n      mload(0x40)\n      dup4\n      0xffffffff\n      and\n      0xe0\n      shl\n      dup2\n      mstore\n      0x04\n      add\n      tag_187\n      swap3\n      swap2\n      swap1\n      tag_188\n      jump\t// in\n    tag_187:\n      0x20\n      mload(0x40)\n      dup1\n      dup4\n      sub\n      dup2\n      dup7\n      dup1\n      extcodesize\n      iszero\n      dup1\n      iszero\n      tag_189\n      jumpi\n      0x00\n      dup1\n      revert\n    tag_189:\n      pop\n      gas\n      staticcall\n      iszero\n      dup1\n      iszero\n      tag_191\n      jumpi\n      returndatasize\n      0x00\n      dup1\n      returndatacopy\n      revert(0x00, returndatasize)\n    tag_191:\n      pop\n      pop\n      pop\n      pop\n      mload(0x40)\n      returndatasize\n      not(0x1f)\n      0x1f\n      dup3\n      add\n      and\n      dup3\n      add\n      dup1\n      0x40\n      mstore\n      pop\n      dup2\n      add\n      swap1\n      tag_192\n      swap2\n      swap1\n      tag_128\n      jump\t// in\n    tag_192:\n        /* \"MarketERC721.sol\":1333:1421  require(token.isApprovedForAll(msg.sender, address(this)), \"Contract must be approved.\") */\n      tag_193\n      jumpi\n      mload(0x40)\n      0x08c379a000000000000000000000000000000000000000000000000000000000\n      dup2\n      mstore\n      0x04\n      add\n      tag_194\n      swap1\n      tag_195\n      jump\t// in\n    tag_194:\n      mload(0x40)\n      dup1\n      swap2\n      sub\n      swap1\n      revert\n    tag_193:\n        /* \"MarketERC721.sol\":1447:1452  price */\n      dup5\n        /* \"MarketERC721.sol\":1434:1438  item */\n      dup2\n        /* \"MarketERC721.sol\":1434:1444  item.price */\n      0x00\n      add\n        /* \"MarketERC721.sol\":1434:1452  item.price = price */\n      dup2\n      swap1\n      sstore\n      pop\n        /* \"MarketERC721.sol\":1477:1487  msg.sender */\n      caller\n        /* \"MarketERC721.sol\":1463:1467  item */\n      dup2\n        /* \"MarketERC721.sol\":1463:1474  item.seller */\n      0x01\n      add\n      0x00\n        /* \"MarketERC721.sol\":1463:1487  item.seller = msg.sender */\n      0x0100\n      exp\n      dup2\n      sload\n      dup2\n      0xffffffffffffffffffffffffffffffffffffffff\n      mul\n      not\n      and\n      swap1\n      dup4\n      0xffffffffffffffffffffffffffffffffffffffff\n      and\n      mul\n      or\n      swap1\n      sstore\n      pop\n        /* \"MarketERC721.sol\":1511:1521  msg.sender */\n      caller\n        /* \"MarketERC721.sol\":1498:1502  item */\n      dup2\n        /* \"MarketERC721.sol\":1498:1508  item.owner */\n      0x02\n      add\n      0x00\n        /* \"MarketERC721.sol\":1498:1521  item.owner = msg.sender */\n      0x0100\n      exp\n      dup2\n      sload\n      dup2\n      0xffffffffffffffffffffffffffffffffffffffff\n      mul\n      not\n      and\n      swap1\n      dup4\n      0xffffffffffffffffffffffffffffffffffffffff\n      and\n      mul\n      or\n      swap1\n      sstore\n      pop\n        /* \"MarketERC721.sol\":1549:1553  true */\n      0x01\n        /* \"MarketERC721.sol\":1532:1536  item */\n      dup2\n        /* \"MarketERC721.sol\":1532:1546  item.isListing */\n      0x02\n      add\n      0x14\n        /* \"MarketERC721.sol\":1532:1553  item.isListing = true */\n      0x0100\n      exp\n      dup2\n      sload\n      dup2\n      0xff\n      mul\n      not\n      and\n      swap1\n      dup4\n      iszero\n      iszero\n      mul\n      or\n      swap1\n      sstore\n      pop\n        /* \"MarketERC721.sol\":1607:1611  item */\n      dup1\n        /* \"MarketERC721.sol\":1607:1621  item.isListing */\n      0x02\n      add\n      0x14\n      swap1\n      sload\n      swap1\n      0x0100\n      exp\n      swap1\n      div\n      0xff\n      and\n        /* \"MarketERC721.sol\":1569:1622  List(msg.sender, tokenId, item.price, item.isListing) */\n      iszero\n      iszero\n        /* \"MarketERC721.sol\":1586:1593  tokenId */\n      dup4\n        /* \"MarketERC721.sol\":1574:1584  msg.sender */\n      caller\n        /* \"MarketERC721.sol\":1569:1622  List(msg.sender, tokenId, item.price, item.isListing) */\n      0xffffffffffffffffffffffffffffffffffffffff\n      and\n      0xa7cd299f7ebc29460ad99cf3ea75776d7cd038a63a59fa595e86441f8190ef90\n        /* \"MarketERC721.sol\":1595:1599  item */\n      dup5\n        /* \"MarketERC721.sol\":1595:1605  item.price */\n      0x00\n      add\n      sload\n        /* \"MarketERC721.sol\":1569:1622  List(msg.sender, tokenId, item.price, item.isListing) */\n      mload(0x40)\n      tag_196\n      swap2\n      swap1\n      tag_60\n      jump\t// in\n    tag_196:\n      mload(0x40)\n      dup1\n      swap2\n      sub\n      swap1\n      log4\n        /* \"MarketERC721.sol\":1131:1630  {\r... */\n      pop\n      pop\n        /* \"MarketERC721.sol\":1050:1630  function addListing(uint256 price, address contractAddr, uint256 tokenId) public {\r... */\n      pop\n      pop\n      pop\n      jump\t// out\n        /* \"MarketERC721.sol\":2161:3731  function purchase(address contractAddr, uint256 tokenId, address referer, uint256 metaverseFee, uint256 previousOwnerFee, uint256 referalFee) public payable {\r... */\n    tag_72:\n        /* \"MarketERC721.sol\":2329:2349  Listing storage item */\n      0x00\n        /* \"MarketERC721.sol\":2352:2360  listings */\n      0x01\n        /* \"MarketERC721.sol\":2352:2374  listings[contractAddr] */\n      0x00\n        /* \"MarketERC721.sol\":2361:2373  contractAddr */\n      dup9\n        /* \"MarketERC721.sol\":2352:2374  listings[contractAddr] */\n      0xffffffffffffffffffffffffffffffffffffffff\n      and\n      0xffffffffffffffffffffffffffffffffffffffff\n      and\n      dup2\n      mstore\n      0x20\n      add\n      swap1\n      dup2\n      mstore\n      0x20\n      add\n      0x00\n      keccak256\n        /* \"MarketERC721.sol\":2352:2383  listings[contractAddr][tokenId] */\n      0x00\n        /* \"MarketERC721.sol\":2375:2382  tokenId */\n      dup8\n        /* \"MarketERC721.sol\":2352:2383  listings[contractAddr][tokenId] */\n      dup2\n      mstore\n      0x20\n      add\n      swap1\n      dup2\n      mstore\n      0x20\n      add\n      0x00\n      keccak256\n        /* \"MarketERC721.sol\":2329:2383  Listing storage item = listings[contractAddr][tokenId] */\n      swap1\n      pop\n        /* \"MarketERC721.sol\":2394:2406  ERC721 token */\n      0x00\n        /* \"MarketERC721.sol\":2416:2428  contractAddr */\n      dup8\n        /* \"MarketERC721.sol\":2394:2429  ERC721 token = ERC721(contractAddr) */\n      swap1\n      pop\n        /* \"MarketERC721.sol\":2448:2452  item */\n      dup2\n        /* \"MarketERC721.sol\":2448:2462  item.isListing */\n      0x02\n      add\n      0x14\n      swap1\n      sload\n      swap1\n      0x0100\n      exp\n      swap1\n      div\n      0xff\n      and\n        /* \"MarketERC721.sol\":2440:2492  require(item.isListing, \"This NFT is not for sell.\") */\n      tag_198\n      jumpi\n      mload(0x40)\n      0x08c379a000000000000000000000000000000000000000000000000000000000\n      dup2\n      mstore\n      0x04\n      add\n      tag_199\n      swap1\n      tag_105\n      jump\t// in\n    tag_199:\n      mload(0x40)\n      dup1\n      swap2\n      sub\n      swap1\n      revert\n    tag_198:\n        /* \"MarketERC721.sol\":2525:2529  item */\n      dup2\n        /* \"MarketERC721.sol\":2525:2536  item.seller */\n      0x01\n      add\n      0x00\n      swap1\n      sload\n      swap1\n      0x0100\n      exp\n      swap1\n      div\n      0xffffffffffffffffffffffffffffffffffffffff\n      and\n        /* \"MarketERC721.sol\":2511:2536  msg.sender != item.seller */\n      0xffffffffffffffffffffffffffffffffffffffff\n      and\n        /* \"MarketERC721.sol\":2511:2521  msg.sender */\n      caller\n        /* \"MarketERC721.sol\":2511:2536  msg.sender != item.seller */\n      0xffffffffffffffffffffffffffffffffffffffff\n      and\n      eq\n      iszero\n        /* \"MarketERC721.sol\":2503:2559  require(msg.sender != item.seller, \"Buy from yourself.\") */\n      tag_200\n      jumpi\n      mload(0x40)\n      0x08c379a000000000000000000000000000000000000000000000000000000000\n      dup2\n      mstore\n      0x04\n      add\n      tag_201\n      swap1\n      tag_108\n      jump\t// in\n    tag_201:\n      mload(0x40)\n      dup1\n      swap2\n      sub\n      swap1\n      revert\n    tag_200:\n        /* \"MarketERC721.sol\":2591:2595  item */\n      dup2\n        /* \"MarketERC721.sol\":2591:2601  item.price */\n      0x00\n      add\n      sload\n        /* \"MarketERC721.sol\":2578:2587  msg.value */\n      callvalue\n        /* \"MarketERC721.sol\":2578:2601  msg.value >= item.price */\n      lt\n      iszero\n        /* \"MarketERC721.sol\":2570:2630  require(msg.value >= item.price, \"Insufficient funds sent.\") */\n      tag_202\n      jumpi\n      mload(0x40)\n      0x08c379a000000000000000000000000000000000000000000000000000000000\n      dup2\n      mstore\n      0x04\n      add\n      tag_203\n      swap1\n      tag_117\n      jump\t// in\n    tag_203:\n      mload(0x40)\n      dup1\n      swap2\n      sub\n      swap1\n      revert\n    tag_202:\n        /* \"MarketERC721.sol\":2649:2653  item */\n      dup2\n        /* \"MarketERC721.sol\":2649:2660  item.seller */\n      0x01\n      add\n      0x00\n      swap1\n      sload\n      swap1\n      0x0100\n      exp\n      swap1\n      div\n      0xffffffffffffffffffffffffffffffffffffffff\n      and\n        /* \"MarketERC721.sol\":2641:2670  payable(item.seller).transfer */\n      0xffffffffffffffffffffffffffffffffffffffff\n      and\n        /* \"MarketERC721.sol\":2641:2702  payable(item.seller).transfer(item.price - (item.price / 20)) */\n      0x08fc\n        /* \"MarketERC721.sol\":2698:2700  20 */\n      0x14\n        /* \"MarketERC721.sol\":2685:2689  item */\n      dup5\n        /* \"MarketERC721.sol\":2685:2695  item.price */\n      0x00\n      add\n      sload\n        /* \"MarketERC721.sol\":2685:2700  item.price / 20 */\n      tag_204\n      swap2\n      swap1\n      tag_119\n      jump\t// in\n    tag_204:\n        /* \"MarketERC721.sol\":2671:2675  item */\n      dup5\n        /* \"MarketERC721.sol\":2671:2681  item.price */\n      0x00\n      add\n      sload\n        /* \"MarketERC721.sol\":2671:2701  item.price - (item.price / 20) */\n      tag_205\n      swap2\n      swap1\n      tag_121\n      jump\t// in\n    tag_205:\n        /* \"MarketERC721.sol\":2641:2702  payable(item.seller).transfer(item.price - (item.price / 20)) */\n      swap1\n      dup2\n      iszero\n      mul\n      swap1\n      mload(0x40)\n      0x00\n      mload(0x40)\n      dup1\n      dup4\n      sub\n      dup2\n      dup6\n      dup9\n      dup9\n      call\n      swap4\n      pop\n      pop\n      pop\n      pop\n      iszero\n      dup1\n      iszero\n      tag_207\n      jumpi\n      returndatasize\n      0x00\n      dup1\n      returndatacopy\n      revert(0x00, returndatasize)\n    tag_207:\n      pop\n        /* \"MarketERC721.sol\":2721:2728  owner() */\n      tag_208\n        /* \"MarketERC721.sol\":2721:2726  owner */\n      tag_79\n        /* \"MarketERC721.sol\":2721:2728  owner() */\n      jump\t// in\n    tag_208:\n        /* \"MarketERC721.sol\":2713:2738  payable(owner()).transfer */\n      0xffffffffffffffffffffffffffffffffffffffff\n      and\n        /* \"MarketERC721.sol\":2713:2752  payable(owner()).transfer(metaverseFee) */\n      0x08fc\n        /* \"MarketERC721.sol\":2739:2751  metaverseFee */\n      dup7\n        /* \"MarketERC721.sol\":2713:2752  payable(owner()).transfer(metaverseFee) */\n      swap1\n      dup2\n      iszero\n      mul\n      swap1\n      mload(0x40)\n      0x00\n      mload(0x40)\n      dup1\n      dup4\n      sub\n      dup2\n      dup6\n      dup9\n      dup9\n      call\n      swap4\n      pop\n      pop\n      pop\n      pop\n      iszero\n      dup1\n      iszero\n      tag_210\n      jumpi\n      returndatasize\n      0x00\n      dup1\n      returndatacopy\n      revert(0x00, returndatasize)\n    tag_210:\n      pop\n        /* \"MarketERC721.sol\":2785:2786  0 */\n      0x00\n        /* \"MarketERC721.sol\":2766:2787  referer != address(0) */\n      0xffffffffffffffffffffffffffffffffffffffff\n      and\n        /* \"MarketERC721.sol\":2766:2773  referer */\n      dup7\n        /* \"MarketERC721.sol\":2766:2787  referer != address(0) */\n      0xffffffffffffffffffffffffffffffffffffffff\n      and\n      eq\n        /* \"MarketERC721.sol\":2763:2852  if(referer != address(0)){\r... */\n      tag_211\n      jumpi\n        /* \"MarketERC721.sol\":2811:2818  referer */\n      dup6\n        /* \"MarketERC721.sol\":2803:2828  payable(referer).transfer */\n      0xffffffffffffffffffffffffffffffffffffffff\n      and\n        /* \"MarketERC721.sol\":2803:2840  payable(referer).transfer(referalFee) */\n      0x08fc\n        /* \"MarketERC721.sol\":2829:2839  referalFee */\n      dup5\n        /* \"MarketERC721.sol\":2803:2840  payable(referer).transfer(referalFee) */\n      swap1\n      dup2\n      iszero\n      mul\n      swap1\n      mload(0x40)\n      0x00\n      mload(0x40)\n      dup1\n      dup4\n      sub\n      dup2\n      dup6\n      dup9\n      dup9\n      call\n      swap4\n      pop\n      pop\n      pop\n      pop\n      iszero\n      dup1\n      iszero\n      tag_213\n      jumpi\n      returndatasize\n      0x00\n      dup1\n      returndatacopy\n      revert(0x00, returndatasize)\n    tag_213:\n      pop\n        /* \"MarketERC721.sol\":2763:2852  if(referer != address(0)){\r... */\n    tag_211:\n        /* \"MarketERC721.sol\":2867:2873  uint i */\n      0x00\n        /* \"MarketERC721.sol\":2862:3139  for (uint i = 0; i < 5; i++) {\r... */\n    tag_214:\n        /* \"MarketERC721.sol\":2883:2884  5 */\n      0x05\n        /* \"MarketERC721.sol\":2879:2880  i */\n      dup2\n        /* \"MarketERC721.sol\":2879:2884  i < 5 */\n      lt\n        /* \"MarketERC721.sol\":2862:3139  for (uint i = 0; i < 5; i++) {\r... */\n      iszero\n      tag_215\n      jumpi\n        /* \"MarketERC721.sol\":2948:2949  0 */\n      0x00\n        /* \"MarketERC721.sol\":2914:2950  item.previousOwners[i] != address(0) */\n      0xffffffffffffffffffffffffffffffffffffffff\n      and\n        /* \"MarketERC721.sol\":2914:2918  item */\n      dup4\n        /* \"MarketERC721.sol\":2914:2933  item.previousOwners */\n      0x05\n      add\n        /* \"MarketERC721.sol\":2914:2936  item.previousOwners[i] */\n      0x00\n        /* \"MarketERC721.sol\":2934:2935  i */\n      dup4\n        /* \"MarketERC721.sol\":2914:2936  item.previousOwners[i] */\n      dup2\n      mstore\n      0x20\n      add\n      swap1\n      dup2\n      mstore\n      0x20\n      add\n      0x00\n      keccak256\n      0x00\n      swap1\n      sload\n      swap1\n      0x0100\n      exp\n      swap1\n      div\n      0xffffffffffffffffffffffffffffffffffffffff\n      and\n        /* \"MarketERC721.sol\":2914:2950  item.previousOwners[i] != address(0) */\n      0xffffffffffffffffffffffffffffffffffffffff\n      and\n      eq\n        /* \"MarketERC721.sol\":2910:3124  if (item.previousOwners[i] != address(0)) {\r... */\n      tag_217\n      jumpi\n        /* \"MarketERC721.sol\":2983:2987  item */\n      dup3\n        /* \"MarketERC721.sol\":2983:3002  item.previousOwners */\n      0x05\n      add\n        /* \"MarketERC721.sol\":2983:3005  item.previousOwners[i] */\n      0x00\n        /* \"MarketERC721.sol\":3003:3004  i */\n      dup3\n        /* \"MarketERC721.sol\":2983:3005  item.previousOwners[i] */\n      dup2\n      mstore\n      0x20\n      add\n      swap1\n      dup2\n      mstore\n      0x20\n      add\n      0x00\n      keccak256\n      0x00\n      swap1\n      sload\n      swap1\n      0x0100\n      exp\n      swap1\n      div\n      0xffffffffffffffffffffffffffffffffffffffff\n      and\n        /* \"MarketERC721.sol\":2975:3015  payable(item.previousOwners[i]).transfer */\n      0xffffffffffffffffffffffffffffffffffffffff\n      and\n        /* \"MarketERC721.sol\":2975:3033  payable(item.previousOwners[i]).transfer(previousOwnerFee) */\n      0x08fc\n        /* \"MarketERC721.sol\":3016:3032  previousOwnerFee */\n      dup7\n        /* \"MarketERC721.sol\":2975:3033  payable(item.previousOwners[i]).transfer(previousOwnerFee) */\n      swap1\n      dup2\n      iszero\n      mul\n      swap1\n      mload(0x40)\n      0x00\n      mload(0x40)\n      dup1\n      dup4\n      sub\n      dup2\n      dup6\n      dup9\n      dup9\n      call\n      swap4\n      pop\n      pop\n      pop\n      pop\n      iszero\n      dup1\n      iszero\n      tag_219\n      jumpi\n      returndatasize\n      0x00\n      dup1\n      returndatacopy\n      revert(0x00, returndatasize)\n    tag_219:\n      pop\n        /* \"MarketERC721.sol\":2910:3124  if (item.previousOwners[i] != address(0)) {\r... */\n      jump(tag_220)\n    tag_217:\n        /* \"MarketERC721.sol\":3099:3104  break */\n      jump(tag_215)\n        /* \"MarketERC721.sol\":2910:3124  if (item.previousOwners[i] != address(0)) {\r... */\n    tag_220:\n        /* \"MarketERC721.sol\":2886:2889  i++ */\n      dup1\n      dup1\n      tag_221\n      swap1\n      tag_152\n      jump\t// in\n    tag_221:\n      swap2\n      pop\n      pop\n        /* \"MarketERC721.sol\":2862:3139  for (uint i = 0; i < 5; i++) {\r... */\n      jump(tag_214)\n    tag_215:\n      pop\n        /* \"MarketERC721.sol\":3151:3156  token */\n      dup1\n        /* \"MarketERC721.sol\":3151:3173  token.safeTransferFrom */\n      0xffffffffffffffffffffffffffffffffffffffff\n      and\n      0xb88d4fde\n        /* \"MarketERC721.sol\":3174:3178  item */\n      dup4\n        /* \"MarketERC721.sol\":3174:3185  item.seller */\n      0x01\n      add\n      0x00\n      swap1\n      sload\n      swap1\n      0x0100\n      exp\n      swap1\n      div\n      0xffffffffffffffffffffffffffffffffffffffff\n      and\n        /* \"MarketERC721.sol\":3187:3197  msg.sender */\n      caller\n        /* \"MarketERC721.sol\":3199:3206  tokenId */\n      dup11\n        /* \"MarketERC721.sol\":3151:3211  token.safeTransferFrom(item.seller, msg.sender, tokenId, \"\") */\n      mload(0x40)\n      dup5\n      0xffffffff\n      and\n      0xe0\n      shl\n      dup2\n      mstore\n      0x04\n      add\n      tag_222\n      swap4\n      swap3\n      swap2\n      swap1\n      tag_154\n      jump\t// in\n    tag_222:\n      0x00\n      mload(0x40)\n      dup1\n      dup4\n      sub\n      dup2\n      0x00\n      dup8\n      dup1\n      extcodesize\n      iszero\n      dup1\n      iszero\n      tag_223\n      jumpi\n      0x00\n      dup1\n      revert\n    tag_223:\n      pop\n      gas\n      call\n      iszero\n      dup1\n      iszero\n      tag_225\n      jumpi\n      returndatasize\n      0x00\n      dup1\n      returndatacopy\n      revert(0x00, returndatasize)\n    tag_225:\n      pop\n      pop\n      pop\n      pop\n        /* \"MarketERC721.sol\":3235:3245  msg.sender */\n      caller\n        /* \"MarketERC721.sol\":3222:3226  item */\n      dup3\n        /* \"MarketERC721.sol\":3222:3232  item.owner */\n      0x02\n      add\n      0x00\n        /* \"MarketERC721.sol\":3222:3245  item.owner = msg.sender */\n      0x0100\n      exp\n      dup2\n      sload\n      dup2\n      0xffffffffffffffffffffffffffffffffffffffff\n      mul\n      not\n      and\n      swap1\n      dup4\n      0xffffffffffffffffffffffffffffffffffffffff\n      and\n      mul\n      or\n      swap1\n      sstore\n      pop\n        /* \"MarketERC721.sol\":3285:3286  5 */\n      0x05\n        /* \"MarketERC721.sol\":3261:3265  item */\n      dup3\n        /* \"MarketERC721.sol\":3261:3282  item.prevOwnersAmount */\n      0x04\n      add\n      sload\n        /* \"MarketERC721.sol\":3261:3286  item.prevOwnersAmount < 5 */\n      lt\n        /* \"MarketERC721.sol\":3258:3345  if(item.prevOwnersAmount < 5) {\r... */\n      iszero\n      tag_226\n      jumpi\n        /* \"MarketERC721.sol\":3332:3333  1 */\n      0x01\n        /* \"MarketERC721.sol\":3307:3311  item */\n      dup3\n        /* \"MarketERC721.sol\":3307:3328  item.prevOwnersAmount */\n      0x04\n      add\n      0x00\n        /* \"MarketERC721.sol\":3307:3333  item.prevOwnersAmount += 1 */\n      dup3\n      dup3\n      sload\n      tag_227\n      swap2\n      swap1\n      tag_160\n      jump\t// in\n    tag_227:\n      swap3\n      pop\n      pop\n      dup2\n      swap1\n      sstore\n      pop\n        /* \"MarketERC721.sol\":3258:3345  if(item.prevOwnersAmount < 5) {\r... */\n    tag_226:\n        /* \"MarketERC721.sol\":3379:3380  3 */\n      0x03\n        /* \"MarketERC721.sol\":3360:3364  item */\n      dup3\n        /* \"MarketERC721.sol\":3360:3375  item.ownerCount */\n      0x03\n      add\n      sload\n        /* \"MarketERC721.sol\":3360:3380  item.ownerCount <= 3 */\n      gt\n        /* \"MarketERC721.sol\":3357:3620  if(item.ownerCount <= 3) {\r... */\n      tag_228\n      jumpi\n        /* \"MarketERC721.sol\":3436:3440  item */\n      dup2\n        /* \"MarketERC721.sol\":3436:3447  item.seller */\n      0x01\n      add\n      0x00\n      swap1\n      sload\n      swap1\n      0x0100\n      exp\n      swap1\n      div\n      0xffffffffffffffffffffffffffffffffffffffff\n      and\n        /* \"MarketERC721.sol\":3397:3401  item */\n      dup3\n        /* \"MarketERC721.sol\":3397:3416  item.previousOwners */\n      0x05\n      add\n        /* \"MarketERC721.sol\":3397:3433  item.previousOwners[item.ownerCount] */\n      0x00\n        /* \"MarketERC721.sol\":3417:3421  item */\n      dup5\n        /* \"MarketERC721.sol\":3417:3432  item.ownerCount */\n      0x03\n      add\n      sload\n        /* \"MarketERC721.sol\":3397:3433  item.previousOwners[item.ownerCount] */\n      dup2\n      mstore\n      0x20\n      add\n      swap1\n      dup2\n      mstore\n      0x20\n      add\n      0x00\n      keccak256\n      0x00\n        /* \"MarketERC721.sol\":3397:3447  item.previousOwners[item.ownerCount] = item.seller */\n      0x0100\n      exp\n      dup2\n      sload\n      dup2\n      0xffffffffffffffffffffffffffffffffffffffff\n      mul\n      not\n      and\n      swap1\n      dup4\n      0xffffffffffffffffffffffffffffffffffffffff\n      and\n      mul\n      or\n      swap1\n      sstore\n      pop\n        /* \"MarketERC721.sol\":3481:3482  1 */\n      0x01\n        /* \"MarketERC721.sol\":3462:3466  item */\n      dup3\n        /* \"MarketERC721.sol\":3462:3477  item.ownerCount */\n      0x03\n      add\n      0x00\n        /* \"MarketERC721.sol\":3462:3482  item.ownerCount += 1 */\n      dup3\n      dup3\n      sload\n      tag_229\n      swap2\n      swap1\n      tag_160\n      jump\t// in\n    tag_229:\n      swap3\n      pop\n      pop\n      dup2\n      swap1\n      sstore\n      pop\n        /* \"MarketERC721.sol\":3357:3620  if(item.ownerCount <= 3) {\r... */\n      jump(tag_230)\n    tag_228:\n        /* \"MarketERC721.sol\":3563:3567  item */\n      dup2\n        /* \"MarketERC721.sol\":3563:3574  item.seller */\n      0x01\n      add\n      0x00\n      swap1\n      sload\n      swap1\n      0x0100\n      exp\n      swap1\n      div\n      0xffffffffffffffffffffffffffffffffffffffff\n      and\n        /* \"MarketERC721.sol\":3524:3528  item */\n      dup3\n        /* \"MarketERC721.sol\":3524:3543  item.previousOwners */\n      0x05\n      add\n        /* \"MarketERC721.sol\":3524:3560  item.previousOwners[item.ownerCount] */\n      0x00\n        /* \"MarketERC721.sol\":3544:3548  item */\n      dup5\n        /* \"MarketERC721.sol\":3544:3559  item.ownerCount */\n      0x03\n      add\n      sload\n        /* \"MarketERC721.sol\":3524:3560  item.previousOwners[item.ownerCount] */\n      dup2\n      mstore\n      0x20\n      add\n      swap1\n      dup2\n      mstore\n      0x20\n      add\n      0x00\n      keccak256\n      0x00\n        /* \"MarketERC721.sol\":3524:3574  item.previousOwners[item.ownerCount] = item.seller */\n      0x0100\n      exp\n      dup2\n      sload\n      dup2\n      0xffffffffffffffffffffffffffffffffffffffff\n      mul\n      not\n      and\n      swap1\n      dup4\n      0xffffffffffffffffffffffffffffffffffffffff\n      and\n      mul\n      or\n      swap1\n      sstore\n      pop\n        /* \"MarketERC721.sol\":3607:3608  0 */\n      0x00\n        /* \"MarketERC721.sol\":3589:3593  item */\n      dup3\n        /* \"MarketERC721.sol\":3589:3604  item.ownerCount */\n      0x03\n      add\n        /* \"MarketERC721.sol\":3589:3608  item.ownerCount = 0 */\n      dup2\n      swap1\n      sstore\n      pop\n        /* \"MarketERC721.sol\":3357:3620  if(item.ownerCount <= 3) {\r... */\n    tag_230:\n        /* \"MarketERC721.sol\":3649:3654  false */\n      0x00\n        /* \"MarketERC721.sol\":3632:3636  item */\n      dup3\n        /* \"MarketERC721.sol\":3632:3646  item.isListing */\n      0x02\n      add\n      0x14\n        /* \"MarketERC721.sol\":3632:3654  item.isListing = false */\n      0x0100\n      exp\n      dup2\n      sload\n      dup2\n      0xff\n      mul\n      not\n      and\n      swap1\n      dup4\n      iszero\n      iszero\n      mul\n      or\n      swap1\n      sstore\n      pop\n        /* \"MarketERC721.sol\":3708:3712  item */\n      dup2\n        /* \"MarketERC721.sol\":3708:3722  item.isListing */\n      0x02\n      add\n      0x14\n      swap1\n      sload\n      swap1\n      0x0100\n      exp\n      swap1\n      div\n      0xff\n      and\n        /* \"MarketERC721.sol\":3670:3723  List(msg.sender, tokenId, item.price, item.isListing) */\n      iszero\n      iszero\n        /* \"MarketERC721.sol\":3687:3694  tokenId */\n      dup8\n        /* \"MarketERC721.sol\":3675:3685  msg.sender */\n      caller\n        /* \"MarketERC721.sol\":3670:3723  List(msg.sender, tokenId, item.price, item.isListing) */\n      0xffffffffffffffffffffffffffffffffffffffff\n      and\n      0xa7cd299f7ebc29460ad99cf3ea75776d7cd038a63a59fa595e86441f8190ef90\n        /* \"MarketERC721.sol\":3696:3700  item */\n      dup6\n        /* \"MarketERC721.sol\":3696:3706  item.price */\n      0x00\n      add\n      sload\n        /* \"MarketERC721.sol\":3670:3723  List(msg.sender, tokenId, item.price, item.isListing) */\n      mload(0x40)\n      tag_231\n      swap2\n      swap1\n      tag_60\n      jump\t// in\n    tag_231:\n      mload(0x40)\n      dup1\n      swap2\n      sub\n      swap1\n      log4\n        /* \"MarketERC721.sol\":2318:3731  {\r... */\n      pop\n      pop\n        /* \"MarketERC721.sol\":2161:3731  function purchase(address contractAddr, uint256 tokenId, address referer, uint256 metaverseFee, uint256 previousOwnerFee, uint256 referalFee) public payable {\r... */\n      pop\n      pop\n      pop\n      pop\n      pop\n      pop\n      jump\t// out\n        /* \"MarketERC721.sol\":3739:5540  function purchaseBatch(address contractAddr, uint256[] calldata tokenId, address referer, uint256 metaverseFee, uint256[] calldata previousOwnerFee, uint256 referalFee) public payable {\r... */\n    tag_76:\n        /* \"MarketERC721.sol\":3939:3945  uint j */\n      0x00\n        /* \"MarketERC721.sol\":3934:5533  for (uint j = 0; j < tokenId.length; j++) {\r... */\n    tag_233:\n        /* \"MarketERC721.sol\":3955:3962  tokenId */\n      dup8\n      dup8\n        /* \"MarketERC721.sol\":3955:3969  tokenId.length */\n      swap1\n      pop\n        /* \"MarketERC721.sol\":3951:3952  j */\n      dup2\n        /* \"MarketERC721.sol\":3951:3969  j < tokenId.length */\n      lt\n        /* \"MarketERC721.sol\":3934:5533  for (uint j = 0; j < tokenId.length; j++) {\r... */\n      iszero\n      tag_234\n      jumpi\n        /* \"MarketERC721.sol\":3991:4011  Listing storage item */\n      0x00\n        /* \"MarketERC721.sol\":4014:4022  listings */\n      0x01\n        /* \"MarketERC721.sol\":4014:4036  listings[contractAddr] */\n      0x00\n        /* \"MarketERC721.sol\":4023:4035  contractAddr */\n      dup12\n        /* \"MarketERC721.sol\":4014:4036  listings[contractAddr] */\n      0xffffffffffffffffffffffffffffffffffffffff\n      and\n      0xffffffffffffffffffffffffffffffffffffffff\n      and\n      dup2\n      mstore\n      0x20\n      add\n      swap1\n      dup2\n      mstore\n      0x20\n      add\n      0x00\n      keccak256\n        /* \"MarketERC721.sol\":4014:4048  listings[contractAddr][tokenId[j]] */\n      0x00\n        /* \"MarketERC721.sol\":4037:4044  tokenId */\n      dup11\n      dup11\n        /* \"MarketERC721.sol\":4045:4046  j */\n      dup6\n        /* \"MarketERC721.sol\":4037:4047  tokenId[j] */\n      dup2\n      dup2\n      lt\n      tag_236\n      jumpi\n      tag_237\n      tag_238\n      jump\t// in\n    tag_237:\n    tag_236:\n      swap1\n      pop\n      0x20\n      mul\n      add\n      calldataload\n        /* \"MarketERC721.sol\":4014:4048  listings[contractAddr][tokenId[j]] */\n      dup2\n      mstore\n      0x20\n      add\n      swap1\n      dup2\n      mstore\n      0x20\n      add\n      0x00\n      keccak256\n        /* \"MarketERC721.sol\":3991:4048  Listing storage item = listings[contractAddr][tokenId[j]] */\n      swap1\n      pop\n        /* \"MarketERC721.sol\":4063:4075  ERC721 token */\n      0x00\n        /* \"MarketERC721.sol\":4085:4097  contractAddr */\n      dup11\n        /* \"MarketERC721.sol\":4063:4098  ERC721 token = ERC721(contractAddr) */\n      swap1\n      pop\n        /* \"MarketERC721.sol\":4121:4125  item */\n      dup2\n        /* \"MarketERC721.sol\":4121:4135  item.isListing */\n      0x02\n      add\n      0x14\n      swap1\n      sload\n      swap1\n      0x0100\n      exp\n      swap1\n      div\n      0xff\n      and\n        /* \"MarketERC721.sol\":4113:4165  require(item.isListing, \"This NFT is not for sell.\") */\n      tag_239\n      jumpi\n      mload(0x40)\n      0x08c379a000000000000000000000000000000000000000000000000000000000\n      dup2\n      mstore\n      0x04\n      add\n      tag_240\n      swap1\n      tag_105\n      jump\t// in\n    tag_240:\n      mload(0x40)\n      dup1\n      swap2\n      sub\n      swap1\n      revert\n    tag_239:\n        /* \"MarketERC721.sol\":4202:4206  item */\n      dup2\n        /* \"MarketERC721.sol\":4202:4213  item.seller */\n      0x01\n      add\n      0x00\n      swap1\n      sload\n      swap1\n      0x0100\n      exp\n      swap1\n      div\n      0xffffffffffffffffffffffffffffffffffffffff\n      and\n        /* \"MarketERC721.sol\":4188:4213  msg.sender != item.seller */\n      0xffffffffffffffffffffffffffffffffffffffff\n      and\n        /* \"MarketERC721.sol\":4188:4198  msg.sender */\n      caller\n        /* \"MarketERC721.sol\":4188:4213  msg.sender != item.seller */\n      0xffffffffffffffffffffffffffffffffffffffff\n      and\n      eq\n      iszero\n        /* \"MarketERC721.sol\":4180:4236  require(msg.sender != item.seller, \"Buy from yourself.\") */\n      tag_241\n      jumpi\n      mload(0x40)\n      0x08c379a000000000000000000000000000000000000000000000000000000000\n      dup2\n      mstore\n      0x04\n      add\n      tag_242\n      swap1\n      tag_108\n      jump\t// in\n    tag_242:\n      mload(0x40)\n      dup1\n      swap2\n      sub\n      swap1\n      revert\n    tag_241:\n        /* \"MarketERC721.sol\":4272:4276  item */\n      dup2\n        /* \"MarketERC721.sol\":4272:4282  item.price */\n      0x00\n      add\n      sload\n        /* \"MarketERC721.sol\":4259:4268  msg.value */\n      callvalue\n        /* \"MarketERC721.sol\":4259:4282  msg.value >= item.price */\n      lt\n      iszero\n        /* \"MarketERC721.sol\":4251:4311  require(msg.value >= item.price, \"Insufficient funds sent.\") */\n      tag_243\n      jumpi\n      mload(0x40)\n      0x08c379a000000000000000000000000000000000000000000000000000000000\n      dup2\n      mstore\n      0x04\n      add\n      tag_244\n      swap1\n      tag_117\n      jump\t// in\n    tag_244:\n      mload(0x40)\n      dup1\n      swap2\n      sub\n      swap1\n      revert\n    tag_243:\n        /* \"MarketERC721.sol\":4334:4338  item */\n      dup2\n        /* \"MarketERC721.sol\":4334:4345  item.seller */\n      0x01\n      add\n      0x00\n      swap1\n      sload\n      swap1\n      0x0100\n      exp\n      swap1\n      div\n      0xffffffffffffffffffffffffffffffffffffffff\n      and\n        /* \"MarketERC721.sol\":4326:4355  payable(item.seller).transfer */\n      0xffffffffffffffffffffffffffffffffffffffff\n      and\n        /* \"MarketERC721.sol\":4326:4387  payable(item.seller).transfer(item.price - (item.price / 20)) */\n      0x08fc\n        /* \"MarketERC721.sol\":4383:4385  20 */\n      0x14\n        /* \"MarketERC721.sol\":4370:4374  item */\n      dup5\n        /* \"MarketERC721.sol\":4370:4380  item.price */\n      0x00\n      add\n      sload\n        /* \"MarketERC721.sol\":4370:4385  item.price / 20 */\n      tag_245\n      swap2\n      swap1\n      tag_119\n      jump\t// in\n    tag_245:\n        /* \"MarketERC721.sol\":4356:4360  item */\n      dup5\n        /* \"MarketERC721.sol\":4356:4366  item.price */\n      0x00\n      add\n      sload\n        /* \"MarketERC721.sol\":4356:4386  item.price - (item.price / 20) */\n      tag_246\n      swap2\n      swap1\n      tag_121\n      jump\t// in\n    tag_246:\n        /* \"MarketERC721.sol\":4326:4387  payable(item.seller).transfer(item.price - (item.price / 20)) */\n      swap1\n      dup2\n      iszero\n      mul\n      swap1\n      mload(0x40)\n      0x00\n      mload(0x40)\n      dup1\n      dup4\n      sub\n      dup2\n      dup6\n      dup9\n      dup9\n      call\n      swap4\n      pop\n      pop\n      pop\n      pop\n      iszero\n      dup1\n      iszero\n      tag_248\n      jumpi\n      returndatasize\n      0x00\n      dup1\n      returndatacopy\n      revert(0x00, returndatasize)\n    tag_248:\n      pop\n        /* \"MarketERC721.sol\":4410:4417  owner() */\n      tag_249\n        /* \"MarketERC721.sol\":4410:4415  owner */\n      tag_79\n        /* \"MarketERC721.sol\":4410:4417  owner() */\n      jump\t// in\n    tag_249:\n        /* \"MarketERC721.sol\":4402:4427  payable(owner()).transfer */\n      0xffffffffffffffffffffffffffffffffffffffff\n      and\n        /* \"MarketERC721.sol\":4402:4441  payable(owner()).transfer(metaverseFee) */\n      0x08fc\n        /* \"MarketERC721.sol\":4428:4440  metaverseFee */\n      dup9\n        /* \"MarketERC721.sol\":4402:4441  payable(owner()).transfer(metaverseFee) */\n      swap1\n      dup2\n      iszero\n      mul\n      swap1\n      mload(0x40)\n      0x00\n      mload(0x40)\n      dup1\n      dup4\n      sub\n      dup2\n      dup6\n      dup9\n      dup9\n      call\n      swap4\n      pop\n      pop\n      pop\n      pop\n      iszero\n      dup1\n      iszero\n      tag_251\n      jumpi\n      returndatasize\n      0x00\n      dup1\n      returndatacopy\n      revert(0x00, returndatasize)\n    tag_251:\n      pop\n        /* \"MarketERC721.sol\":4478:4479  0 */\n      0x00\n        /* \"MarketERC721.sol\":4459:4480  referer != address(0) */\n      0xffffffffffffffffffffffffffffffffffffffff\n      and\n        /* \"MarketERC721.sol\":4459:4466  referer */\n      dup9\n        /* \"MarketERC721.sol\":4459:4480  referer != address(0) */\n      0xffffffffffffffffffffffffffffffffffffffff\n      and\n      eq\n        /* \"MarketERC721.sol\":4456:4553  if(referer != address(0)){\r... */\n      tag_252\n      jumpi\n        /* \"MarketERC721.sol\":4508:4515  referer */\n      dup8\n        /* \"MarketERC721.sol\":4500:4525  payable(referer).transfer */\n      0xffffffffffffffffffffffffffffffffffffffff\n      and\n        /* \"MarketERC721.sol\":4500:4537  payable(referer).transfer(referalFee) */\n      0x08fc\n        /* \"MarketERC721.sol\":4526:4536  referalFee */\n      dup6\n        /* \"MarketERC721.sol\":4500:4537  payable(referer).transfer(referalFee) */\n      swap1\n      dup2\n      iszero\n      mul\n      swap1\n      mload(0x40)\n      0x00\n      mload(0x40)\n      dup1\n      dup4\n      sub\n      dup2\n      dup6\n      dup9\n      dup9\n      call\n      swap4\n      pop\n      pop\n      pop\n      pop\n      iszero\n      dup1\n      iszero\n      tag_254\n      jumpi\n      returndatasize\n      0x00\n      dup1\n      returndatacopy\n      revert(0x00, returndatasize)\n    tag_254:\n      pop\n        /* \"MarketERC721.sol\":4456:4553  if(referer != address(0)){\r... */\n    tag_252:\n        /* \"MarketERC721.sol\":4572:4578  uint i */\n      0x00\n        /* \"MarketERC721.sol\":4567:4875  for (uint i = 0; i < 5; i++) {\r... */\n    tag_255:\n        /* \"MarketERC721.sol\":4588:4589  5 */\n      0x05\n        /* \"MarketERC721.sol\":4584:4585  i */\n      dup2\n        /* \"MarketERC721.sol\":4584:4589  i < 5 */\n      lt\n        /* \"MarketERC721.sol\":4567:4875  for (uint i = 0; i < 5; i++) {\r... */\n      iszero\n      tag_256\n      jumpi\n        /* \"MarketERC721.sol\":4657:4658  0 */\n      0x00\n        /* \"MarketERC721.sol\":4623:4659  item.previousOwners[i] != address(0) */\n      0xffffffffffffffffffffffffffffffffffffffff\n      and\n        /* \"MarketERC721.sol\":4623:4627  item */\n      dup4\n        /* \"MarketERC721.sol\":4623:4642  item.previousOwners */\n      0x05\n      add\n        /* \"MarketERC721.sol\":4623:4645  item.previousOwners[i] */\n      0x00\n        /* \"MarketERC721.sol\":4643:4644  i */\n      dup4\n        /* \"MarketERC721.sol\":4623:4645  item.previousOwners[i] */\n      dup2\n      mstore\n      0x20\n      add\n      swap1\n      dup2\n      mstore\n      0x20\n      add\n      0x00\n      keccak256\n      0x00\n      swap1\n      sload\n      swap1\n      0x0100\n      exp\n      swap1\n      div\n      0xffffffffffffffffffffffffffffffffffffffff\n      and\n        /* \"MarketERC721.sol\":4623:4659  item.previousOwners[i] != address(0) */\n      0xffffffffffffffffffffffffffffffffffffffff\n      and\n      eq\n        /* \"MarketERC721.sol\":4619:4856  if (item.previousOwners[i] != address(0)) {\r... */\n      tag_258\n      jumpi\n        /* \"MarketERC721.sol\":4696:4700  item */\n      dup3\n        /* \"MarketERC721.sol\":4696:4715  item.previousOwners */\n      0x05\n      add\n        /* \"MarketERC721.sol\":4696:4718  item.previousOwners[i] */\n      0x00\n        /* \"MarketERC721.sol\":4716:4717  i */\n      dup3\n        /* \"MarketERC721.sol\":4696:4718  item.previousOwners[i] */\n      dup2\n      mstore\n      0x20\n      add\n      swap1\n      dup2\n      mstore\n      0x20\n      add\n      0x00\n      keccak256\n      0x00\n      swap1\n      sload\n      swap1\n      0x0100\n      exp\n      swap1\n      div\n      0xffffffffffffffffffffffffffffffffffffffff\n      and\n        /* \"MarketERC721.sol\":4688:4728  payable(item.previousOwners[i]).transfer */\n      0xffffffffffffffffffffffffffffffffffffffff\n      and\n        /* \"MarketERC721.sol\":4688:4749  payable(item.previousOwners[i]).transfer(previousOwnerFee[j]) */\n      0x08fc\n        /* \"MarketERC721.sol\":4729:4745  previousOwnerFee */\n      dup9\n      dup9\n        /* \"MarketERC721.sol\":4746:4747  j */\n      dup8\n        /* \"MarketERC721.sol\":4729:4748  previousOwnerFee[j] */\n      dup2\n      dup2\n      lt\n      tag_259\n      jumpi\n      tag_260\n      tag_238\n      jump\t// in\n    tag_260:\n    tag_259:\n      swap1\n      pop\n      0x20\n      mul\n      add\n      calldataload\n        /* \"MarketERC721.sol\":4688:4749  payable(item.previousOwners[i]).transfer(previousOwnerFee[j]) */\n      swap1\n      dup2\n      iszero\n      mul\n      swap1\n      mload(0x40)\n      0x00\n      mload(0x40)\n      dup1\n      dup4\n      sub\n      dup2\n      dup6\n      dup9\n      dup9\n      call\n      swap4\n      pop\n      pop\n      pop\n      pop\n      iszero\n      dup1\n      iszero\n      tag_262\n      jumpi\n      returndatasize\n      0x00\n      dup1\n      returndatacopy\n      revert(0x00, returndatasize)\n    tag_262:\n      pop\n        /* \"MarketERC721.sol\":4619:4856  if (item.previousOwners[i] != address(0)) {\r... */\n      jump(tag_263)\n    tag_258:\n        /* \"MarketERC721.sol\":4827:4832  break */\n      jump(tag_256)\n        /* \"MarketERC721.sol\":4619:4856  if (item.previousOwners[i] != address(0)) {\r... */\n    tag_263:\n        /* \"MarketERC721.sol\":4591:4594  i++ */\n      dup1\n      dup1\n      tag_264\n      swap1\n      tag_152\n      jump\t// in\n    tag_264:\n      swap2\n      pop\n      pop\n        /* \"MarketERC721.sol\":4567:4875  for (uint i = 0; i < 5; i++) {\r... */\n      jump(tag_255)\n    tag_256:\n      pop\n        /* \"MarketERC721.sol\":4891:4896  token */\n      dup1\n        /* \"MarketERC721.sol\":4891:4913  token.safeTransferFrom */\n      0xffffffffffffffffffffffffffffffffffffffff\n      and\n      0xb88d4fde\n        /* \"MarketERC721.sol\":4914:4918  item */\n      dup4\n        /* \"MarketERC721.sol\":4914:4925  item.seller */\n      0x01\n      add\n      0x00\n      swap1\n      sload\n      swap1\n      0x0100\n      exp\n      swap1\n      div\n      0xffffffffffffffffffffffffffffffffffffffff\n      and\n        /* \"MarketERC721.sol\":4927:4937  msg.sender */\n      caller\n        /* \"MarketERC721.sol\":4939:4946  tokenId */\n      dup14\n      dup14\n        /* \"MarketERC721.sol\":4947:4948  j */\n      dup9\n        /* \"MarketERC721.sol\":4939:4949  tokenId[j] */\n      dup2\n      dup2\n      lt\n      tag_265\n      jumpi\n      tag_266\n      tag_238\n      jump\t// in\n    tag_266:\n    tag_265:\n      swap1\n      pop\n      0x20\n      mul\n      add\n      calldataload\n        /* \"MarketERC721.sol\":4891:4954  token.safeTransferFrom(item.seller, msg.sender, tokenId[j], \"\") */\n      mload(0x40)\n      dup5\n      0xffffffff\n      and\n      0xe0\n      shl\n      dup2\n      mstore\n      0x04\n      add\n      tag_267\n      swap4\n      swap3\n      swap2\n      swap1\n      tag_154\n      jump\t// in\n    tag_267:\n      0x00\n      mload(0x40)\n      dup1\n      dup4\n      sub\n      dup2\n      0x00\n      dup8\n      dup1\n      extcodesize\n      iszero\n      dup1\n      iszero\n      tag_268\n      jumpi\n      0x00\n      dup1\n      revert\n    tag_268:\n      pop\n      gas\n      call\n      iszero\n      dup1\n      iszero\n      tag_270\n      jumpi\n      returndatasize\n      0x00\n      dup1\n      returndatacopy\n      revert(0x00, returndatasize)\n    tag_270:\n      pop\n      pop\n      pop\n      pop\n        /* \"MarketERC721.sol\":4982:4992  msg.sender */\n      caller\n        /* \"MarketERC721.sol\":4969:4973  item */\n      dup3\n        /* \"MarketERC721.sol\":4969:4979  item.owner */\n      0x02\n      add\n      0x00\n        /* \"MarketERC721.sol\":4969:4992  item.owner = msg.sender */\n      0x0100\n      exp\n      dup2\n      sload\n      dup2\n      0xffffffffffffffffffffffffffffffffffffffff\n      mul\n      not\n      and\n      swap1\n      dup4\n      0xffffffffffffffffffffffffffffffffffffffff\n      and\n      mul\n      or\n      swap1\n      sstore\n      pop\n        /* \"MarketERC721.sol\":5036:5037  5 */\n      0x05\n        /* \"MarketERC721.sol\":5012:5016  item */\n      dup3\n        /* \"MarketERC721.sol\":5012:5033  item.prevOwnersAmount */\n      0x04\n      add\n      sload\n        /* \"MarketERC721.sol\":5012:5037  item.prevOwnersAmount < 5 */\n      lt\n        /* \"MarketERC721.sol\":5009:5100  if(item.prevOwnersAmount < 5) {\r... */\n      iszero\n      tag_271\n      jumpi\n        /* \"MarketERC721.sol\":5083:5084  1 */\n      0x01\n        /* \"MarketERC721.sol\":5058:5062  item */\n      dup3\n        /* \"MarketERC721.sol\":5058:5079  item.prevOwnersAmount */\n      0x04\n      add\n      0x00\n        /* \"MarketERC721.sol\":5058:5084  item.prevOwnersAmount += 1 */\n      dup3\n      dup3\n      sload\n      tag_272\n      swap2\n      swap1\n      tag_160\n      jump\t// in\n    tag_272:\n      swap3\n      pop\n      pop\n      dup2\n      swap1\n      sstore\n      pop\n        /* \"MarketERC721.sol\":5009:5100  if(item.prevOwnersAmount < 5) {\r... */\n    tag_271:\n        /* \"MarketERC721.sol\":5138:5139  3 */\n      0x03\n        /* \"MarketERC721.sol\":5119:5123  item */\n      dup3\n        /* \"MarketERC721.sol\":5119:5134  item.ownerCount */\n      0x03\n      add\n      sload\n        /* \"MarketERC721.sol\":5119:5139  item.ownerCount <= 3 */\n      gt\n        /* \"MarketERC721.sol\":5116:5407  if(item.ownerCount <= 3) {\r... */\n      tag_273\n      jumpi\n        /* \"MarketERC721.sol\":5199:5203  item */\n      dup2\n        /* \"MarketERC721.sol\":5199:5210  item.seller */\n      0x01\n      add\n      0x00\n      swap1\n      sload\n      swap1\n      0x0100\n      exp\n      swap1\n      div\n      0xffffffffffffffffffffffffffffffffffffffff\n      and\n        /* \"MarketERC721.sol\":5160:5164  item */\n      dup3\n        /* \"MarketERC721.sol\":5160:5179  item.previousOwners */\n      0x05\n      add\n        /* \"MarketERC721.sol\":5160:5196  item.previousOwners[item.ownerCount] */\n      0x00\n        /* \"MarketERC721.sol\":5180:5184  item */\n      dup5\n        /* \"MarketERC721.sol\":5180:5195  item.ownerCount */\n      0x03\n      add\n      sload\n        /* \"MarketERC721.sol\":5160:5196  item.previousOwners[item.ownerCount] */\n      dup2\n      mstore\n      0x20\n      add\n      swap1\n      dup2\n      mstore\n      0x20\n      add\n      0x00\n      keccak256\n      0x00\n        /* \"MarketERC721.sol\":5160:5210  item.previousOwners[item.ownerCount] = item.seller */\n      0x0100\n      exp\n      dup2\n      sload\n      dup2\n      0xffffffffffffffffffffffffffffffffffffffff\n      mul\n      not\n      and\n      swap1\n      dup4\n      0xffffffffffffffffffffffffffffffffffffffff\n      and\n      mul\n      or\n      swap1\n      sstore\n      pop\n        /* \"MarketERC721.sol\":5248:5249  1 */\n      0x01\n        /* \"MarketERC721.sol\":5229:5233  item */\n      dup3\n        /* \"MarketERC721.sol\":5229:5244  item.ownerCount */\n      0x03\n      add\n      0x00\n        /* \"MarketERC721.sol\":5229:5249  item.ownerCount += 1 */\n      dup3\n      dup3\n      sload\n      tag_274\n      swap2\n      swap1\n      tag_160\n      jump\t// in\n    tag_274:\n      swap3\n      pop\n      pop\n      dup2\n      swap1\n      sstore\n      pop\n        /* \"MarketERC721.sol\":5116:5407  if(item.ownerCount <= 3) {\r... */\n      jump(tag_275)\n    tag_273:\n        /* \"MarketERC721.sol\":5342:5346  item */\n      dup2\n        /* \"MarketERC721.sol\":5342:5353  item.seller */\n      0x01\n      add\n      0x00\n      swap1\n      sload\n      swap1\n      0x0100\n      exp\n      swap1\n      div\n      0xffffffffffffffffffffffffffffffffffffffff\n      and\n        /* \"MarketERC721.sol\":5303:5307  item */\n      dup3\n        /* \"MarketERC721.sol\":5303:5322  item.previousOwners */\n      0x05\n      add\n        /* \"MarketERC721.sol\":5303:5339  item.previousOwners[item.ownerCount] */\n      0x00\n        /* \"MarketERC721.sol\":5323:5327  item */\n      dup5\n        /* \"MarketERC721.sol\":5323:5338  item.ownerCount */\n      0x03\n      add\n      sload\n        /* \"MarketERC721.sol\":5303:5339  item.previousOwners[item.ownerCount] */\n      dup2\n      mstore\n      0x20\n      add\n      swap1\n      dup2\n      mstore\n      0x20\n      add\n      0x00\n      keccak256\n      0x00\n        /* \"MarketERC721.sol\":5303:5353  item.previousOwners[item.ownerCount] = item.seller */\n      0x0100\n      exp\n      dup2\n      sload\n      dup2\n      0xffffffffffffffffffffffffffffffffffffffff\n      mul\n      not\n      and\n      swap1\n      dup4\n      0xffffffffffffffffffffffffffffffffffffffff\n      and\n      mul\n      or\n      swap1\n      sstore\n      pop\n        /* \"MarketERC721.sol\":5390:5391  0 */\n      0x00\n        /* \"MarketERC721.sol\":5372:5376  item */\n      dup3\n        /* \"MarketERC721.sol\":5372:5387  item.ownerCount */\n      0x03\n      add\n        /* \"MarketERC721.sol\":5372:5391  item.ownerCount = 0 */\n      dup2\n      swap1\n      sstore\n      pop\n        /* \"MarketERC721.sol\":5116:5407  if(item.ownerCount <= 3) {\r... */\n    tag_275:\n        /* \"MarketERC721.sol\":5440:5445  false */\n      0x00\n        /* \"MarketERC721.sol\":5423:5427  item */\n      dup3\n        /* \"MarketERC721.sol\":5423:5437  item.isListing */\n      0x02\n      add\n      0x14\n        /* \"MarketERC721.sol\":5423:5445  item.isListing = false */\n      0x0100\n      exp\n      dup2\n      sload\n      dup2\n      0xff\n      mul\n      not\n      and\n      swap1\n      dup4\n      iszero\n      iszero\n      mul\n      or\n      swap1\n      sstore\n      pop\n        /* \"MarketERC721.sol\":5506:5510  item */\n      dup2\n        /* \"MarketERC721.sol\":5506:5520  item.isListing */\n      0x02\n      add\n      0x14\n      swap1\n      sload\n      swap1\n      0x0100\n      exp\n      swap1\n      div\n      0xff\n      and\n        /* \"MarketERC721.sol\":5465:5521  List(msg.sender, tokenId[j], item.price, item.isListing) */\n      iszero\n      iszero\n        /* \"MarketERC721.sol\":5482:5489  tokenId */\n      dup11\n      dup11\n        /* \"MarketERC721.sol\":5490:5491  j */\n      dup6\n        /* \"MarketERC721.sol\":5482:5492  tokenId[j] */\n      dup2\n      dup2\n      lt\n      tag_276\n      jumpi\n      tag_277\n      tag_238\n      jump\t// in\n    tag_277:\n    tag_276:\n      swap1\n      pop\n      0x20\n      mul\n      add\n      calldataload\n        /* \"MarketERC721.sol\":5470:5480  msg.sender */\n      caller\n        /* \"MarketERC721.sol\":5465:5521  List(msg.sender, tokenId[j], item.price, item.isListing) */\n      0xffffffffffffffffffffffffffffffffffffffff\n      and\n      0xa7cd299f7ebc29460ad99cf3ea75776d7cd038a63a59fa595e86441f8190ef90\n        /* \"MarketERC721.sol\":5494:5498  item */\n      dup6\n        /* \"MarketERC721.sol\":5494:5504  item.price */\n      0x00\n      add\n      sload\n        /* \"MarketERC721.sol\":5465:5521  List(msg.sender, tokenId[j], item.price, item.isListing) */\n      mload(0x40)\n      tag_278\n      swap2\n      swap1\n      tag_60\n      jump\t// in\n    tag_278:\n      mload(0x40)\n      dup1\n      swap2\n      sub\n      swap1\n      log4\n        /* \"MarketERC721.sol\":3976:5533  {\r... */\n      pop\n      pop\n        /* \"MarketERC721.sol\":3971:3974  j++ */\n      dup1\n      dup1\n      tag_279\n      swap1\n      tag_152\n      jump\t// in\n    tag_279:\n      swap2\n      pop\n      pop\n        /* \"MarketERC721.sol\":3934:5533  for (uint j = 0; j < tokenId.length; j++) {\r... */\n      jump(tag_233)\n    tag_234:\n      pop\n        /* \"MarketERC721.sol\":3739:5540  function purchaseBatch(address contractAddr, uint256[] calldata tokenId, address referer, uint256 metaverseFee, uint256[] calldata previousOwnerFee, uint256 referalFee) public payable {\r... */\n      pop\n      pop\n      pop\n      pop\n      pop\n      pop\n      pop\n      pop\n      jump\t// out\n        /* \"Ownable.sol\":384:471  function owner() public view virtual returns (address) {\r... */\n    tag_79:\n        /* \"Ownable.sol\":430:437  address */\n      0x00\n        /* \"Ownable.sol\":457:463  _owner */\n      dup1\n      0x00\n      swap1\n      sload\n      swap1\n      0x0100\n      exp\n      swap1\n      div\n      0xffffffffffffffffffffffffffffffffffffffff\n      and\n        /* \"Ownable.sol\":450:463  return _owner */\n      swap1\n      pop\n        /* \"Ownable.sol\":384:471  function owner() public view virtual returns (address) {\r... */\n      swap1\n      jump\t// out\n        /* \"MarketERC721.sol\":1638:2153  function cancelListing(address contractAddr, uint256 tokenId) public {\r... */\n    tag_84:\n        /* \"MarketERC721.sol\":1718:1730  ERC721 token */\n      0x00\n        /* \"MarketERC721.sol\":1740:1752  contractAddr */\n      dup3\n        /* \"MarketERC721.sol\":1718:1753  ERC721 token = ERC721(contractAddr) */\n      swap1\n      pop\n        /* \"MarketERC721.sol\":1764:1784  Listing storage item */\n      0x00\n        /* \"MarketERC721.sol\":1787:1795  listings */\n      0x01\n        /* \"MarketERC721.sol\":1787:1809  listings[contractAddr] */\n      0x00\n        /* \"MarketERC721.sol\":1796:1808  contractAddr */\n      dup6\n        /* \"MarketERC721.sol\":1787:1809  listings[contractAddr] */\n      0xffffffffffffffffffffffffffffffffffffffff\n      and\n      0xffffffffffffffffffffffffffffffffffffffff\n      and\n      dup2\n      mstore\n      0x20\n      add\n      swap1\n      dup2\n      mstore\n      0x20\n      add\n      0x00\n      keccak256\n        /* \"MarketERC721.sol\":1787:1818  listings[contractAddr][tokenId] */\n      0x00\n        /* \"MarketERC721.sol\":1810:1817  tokenId */\n      dup5\n        /* \"MarketERC721.sol\":1787:1818  listings[contractAddr][tokenId] */\n      dup2\n      mstore\n      0x20\n      add\n      swap1\n      dup2\n      mstore\n      0x20\n      add\n      0x00\n      keccak256\n        /* \"MarketERC721.sol\":1764:1818  Listing storage item = listings[contractAddr][tokenId] */\n      swap1\n      pop\n        /* \"MarketERC721.sol\":1852:1862  msg.sender */\n      caller\n        /* \"MarketERC721.sol\":1837:1862  item.seller == msg.sender */\n      0xffffffffffffffffffffffffffffffffffffffff\n      and\n        /* \"MarketERC721.sol\":1837:1841  item */\n      dup2\n        /* \"MarketERC721.sol\":1837:1848  item.seller */\n      0x01\n      add\n      0x00\n      swap1\n      sload\n      swap1\n      0x0100\n      exp\n      swap1\n      div\n      0xffffffffffffffffffffffffffffffffffffffff\n      and\n        /* \"MarketERC721.sol\":1837:1862  item.seller == msg.sender */\n      0xffffffffffffffffffffffffffffffffffffffff\n      and\n      eq\n        /* \"MarketERC721.sol\":1829:1880  require(item.seller == msg.sender, \"Unauthorized.\") */\n      tag_282\n      jumpi\n      mload(0x40)\n      0x08c379a000000000000000000000000000000000000000000000000000000000\n      dup2\n      mstore\n      0x04\n      add\n      tag_283\n      swap1\n      tag_284\n      jump\t// in\n    tag_283:\n      mload(0x40)\n      dup1\n      swap2\n      sub\n      swap1\n      revert\n    tag_282:\n        /* \"MarketERC721.sol\":1899:1903  item */\n      dup1\n        /* \"MarketERC721.sol\":1899:1913  item.isListing */\n      0x02\n      add\n      0x14\n      swap1\n      sload\n      swap1\n      0x0100\n      exp\n      swap1\n      div\n      0xff\n      and\n        /* \"MarketERC721.sol\":1891:1942  require(item.isListing, \"This NFT is not listing.\") */\n      tag_285\n      jumpi\n      mload(0x40)\n      0x08c379a000000000000000000000000000000000000000000000000000000000\n      dup2\n      mstore\n      0x04\n      add\n      tag_286\n      swap1\n      tag_287\n      jump\t// in\n    tag_286:\n      mload(0x40)\n      dup1\n      swap2\n      sub\n      swap1\n      revert\n    tag_285:\n        /* \"MarketERC721.sol\":1961:1966  token */\n      dup2\n        /* \"MarketERC721.sol\":1961:1983  token.isApprovedForAll */\n      0xffffffffffffffffffffffffffffffffffffffff\n      and\n      0xe985e9c5\n        /* \"MarketERC721.sol\":1984:1994  msg.sender */\n      caller\n        /* \"MarketERC721.sol\":2004:2008  this */\n      address\n        /* \"MarketERC721.sol\":1961:2010  token.isApprovedForAll(msg.sender, address(this)) */\n      mload(0x40)\n      dup4\n      0xffffffff\n      and\n      0xe0\n      shl\n      dup2\n      mstore\n      0x04\n      add\n      tag_288\n      swap3\n      swap2\n      swap1\n      tag_188\n      jump\t// in\n    tag_288:\n      0x20\n      mload(0x40)\n      dup1\n      dup4\n      sub\n      dup2\n      dup7\n      dup1\n      extcodesize\n      iszero\n      dup1\n      iszero\n      tag_289\n      jumpi\n      0x00\n      dup1\n      revert\n    tag_289:\n      pop\n      gas\n      staticcall\n      iszero\n      dup1\n      iszero\n      tag_291\n      jumpi\n      returndatasize\n      0x00\n      dup1\n      returndatacopy\n      revert(0x00, returndatasize)\n    tag_291:\n      pop\n      pop\n      pop\n      pop\n      mload(0x40)\n      returndatasize\n      not(0x1f)\n      0x1f\n      dup3\n      add\n      and\n      dup3\n      add\n      dup1\n      0x40\n      mstore\n      pop\n      dup2\n      add\n      swap1\n      tag_292\n      swap2\n      swap1\n      tag_128\n      jump\t// in\n    tag_292:\n        /* \"MarketERC721.sol\":1953:2041  require(token.isApprovedForAll(msg.sender, address(this)), \"Contract must be approved.\") */\n      tag_293\n      jumpi\n      mload(0x40)\n      0x08c379a000000000000000000000000000000000000000000000000000000000\n      dup2\n      mstore\n      0x04\n      add\n      tag_294\n      swap1\n      tag_195\n      jump\t// in\n    tag_294:\n      mload(0x40)\n      dup1\n      swap2\n      sub\n      swap1\n      revert\n    tag_293:\n        /* \"MarketERC721.sol\":2071:2076  false */\n      0x00\n        /* \"MarketERC721.sol\":2054:2058  item */\n      dup2\n        /* \"MarketERC721.sol\":2054:2068  item.isListing */\n      0x02\n      add\n      0x14\n        /* \"MarketERC721.sol\":2054:2076  item.isListing = false */\n      0x0100\n      exp\n      dup2\n      sload\n      dup2\n      0xff\n      mul\n      not\n      and\n      swap1\n      dup4\n      iszero\n      iszero\n      mul\n      or\n      swap1\n      sstore\n      pop\n        /* \"MarketERC721.sol\":2130:2134  item */\n      dup1\n        /* \"MarketERC721.sol\":2130:2144  item.isListing */\n      0x02\n      add\n      0x14\n      swap1\n      sload\n      swap1\n      0x0100\n      exp\n      swap1\n      div\n      0xff\n      and\n        /* \"MarketERC721.sol\":2092:2145  List(msg.sender, tokenId, item.price, item.isListing) */\n      iszero\n      iszero\n        /* \"MarketERC721.sol\":2109:2116  tokenId */\n      dup4\n        /* \"MarketERC721.sol\":2097:2107  msg.sender */\n      caller\n        /* \"MarketERC721.sol\":2092:2145  List(msg.sender, tokenId, item.price, item.isListing) */\n      0xffffffffffffffffffffffffffffffffffffffff\n      and\n      0xa7cd299f7ebc29460ad99cf3ea75776d7cd038a63a59fa595e86441f8190ef90\n        /* \"MarketERC721.sol\":2118:2122  item */\n      dup5\n        /* \"MarketERC721.sol\":2118:2128  item.price */\n      0x00\n      add\n      sload\n        /* \"MarketERC721.sol\":2092:2145  List(msg.sender, tokenId, item.price, item.isListing) */\n      mload(0x40)\n      tag_295\n      swap2\n      swap1\n      tag_60\n      jump\t// in\n    tag_295:\n      mload(0x40)\n      dup1\n      swap2\n      sub\n      swap1\n      log4\n        /* \"MarketERC721.sol\":1707:2153  {\r... */\n      pop\n      pop\n        /* \"MarketERC721.sol\":1638:2153  function cancelListing(address contractAddr, uint256 tokenId) public {\r... */\n      pop\n      pop\n      jump\t// out\n        /* \"MarketERC721.sol\":9893:10073  function getPrevOwnerAmount(address contractAddr, uint tokenId) public view returns(uint prevOwnerAmount) {\r... */\n    tag_88:\n        /* \"MarketERC721.sol\":9977:9997  uint prevOwnerAmount */\n      0x00\n        /* \"MarketERC721.sol\":10017:10025  listings */\n      0x01\n        /* \"MarketERC721.sol\":10017:10039  listings[contractAddr] */\n      0x00\n        /* \"MarketERC721.sol\":10026:10038  contractAddr */\n      dup5\n        /* \"MarketERC721.sol\":10017:10039  listings[contractAddr] */\n      0xffffffffffffffffffffffffffffffffffffffff\n      and\n      0xffffffffffffffffffffffffffffffffffffffff\n      and\n      dup2\n      mstore\n      0x20\n      add\n      swap1\n      dup2\n      mstore\n      0x20\n      add\n      0x00\n      keccak256\n        /* \"MarketERC721.sol\":10017:10048  listings[contractAddr][tokenId] */\n      0x00\n        /* \"MarketERC721.sol\":10040:10047  tokenId */\n      dup4\n        /* \"MarketERC721.sol\":10017:10048  listings[contractAddr][tokenId] */\n      dup2\n      mstore\n      0x20\n      add\n      swap1\n      dup2\n      mstore\n      0x20\n      add\n      0x00\n      keccak256\n        /* \"MarketERC721.sol\":10017:10065  listings[contractAddr][tokenId].prevOwnersAmount */\n      0x04\n      add\n      sload\n        /* \"MarketERC721.sol\":10010:10065  return listings[contractAddr][tokenId].prevOwnersAmount */\n      swap1\n      pop\n        /* \"MarketERC721.sol\":9893:10073  function getPrevOwnerAmount(address contractAddr, uint tokenId) public view returns(uint prevOwnerAmount) {\r... */\n      swap3\n      swap2\n      pop\n      pop\n      jump\t// out\n        /* \"MarketERC721.sol\":7253:9189  function purchaseERC20Batch(address contractAddr, address coinAddr, uint256[] calldata tokenId, address referer, uint256 metaverseFee, uint256[] calldata previousOwnerFee, uint256 referalFee) public payable {\r... */\n    tag_93:\n        /* \"MarketERC721.sol\":7476:7482  uint j */\n      0x00\n        /* \"MarketERC721.sol\":7471:9182  for (uint j = 0; j < tokenId.length; j++) {\r... */\n    tag_298:\n        /* \"MarketERC721.sol\":7492:7499  tokenId */\n      dup8\n      dup8\n        /* \"MarketERC721.sol\":7492:7506  tokenId.length */\n      swap1\n      pop\n        /* \"MarketERC721.sol\":7488:7489  j */\n      dup2\n        /* \"MarketERC721.sol\":7488:7506  j < tokenId.length */\n      lt\n        /* \"MarketERC721.sol\":7471:9182  for (uint j = 0; j < tokenId.length; j++) {\r... */\n      iszero\n      tag_299\n      jumpi\n        /* \"MarketERC721.sol\":7528:7548  Listing storage item */\n      0x00\n        /* \"MarketERC721.sol\":7551:7559  listings */\n      0x01\n        /* \"MarketERC721.sol\":7551:7573  listings[contractAddr] */\n      0x00\n        /* \"MarketERC721.sol\":7560:7572  contractAddr */\n      dup13\n        /* \"MarketERC721.sol\":7551:7573  listings[contractAddr] */\n      0xffffffffffffffffffffffffffffffffffffffff\n      and\n      0xffffffffffffffffffffffffffffffffffffffff\n      and\n      dup2\n      mstore\n      0x20\n      add\n      swap1\n      dup2\n      mstore\n      0x20\n      add\n      0x00\n      keccak256\n        /* \"MarketERC721.sol\":7551:7585  listings[contractAddr][tokenId[j]] */\n      0x00\n        /* \"MarketERC721.sol\":7574:7581  tokenId */\n      dup11\n      dup11\n        /* \"MarketERC721.sol\":7582:7583  j */\n      dup6\n        /* \"MarketERC721.sol\":7574:7584  tokenId[j] */\n      dup2\n      dup2\n      lt\n      tag_301\n      jumpi\n      tag_302\n      tag_238\n      jump\t// in\n    tag_302:\n    tag_301:\n      swap1\n      pop\n      0x20\n      mul\n      add\n      calldataload\n        /* \"MarketERC721.sol\":7551:7585  listings[contractAddr][tokenId[j]] */\n      dup2\n      mstore\n      0x20\n      add\n      swap1\n      dup2\n      mstore\n      0x20\n      add\n      0x00\n      keccak256\n        /* \"MarketERC721.sol\":7528:7585  Listing storage item = listings[contractAddr][tokenId[j]] */\n      swap1\n      pop\n        /* \"MarketERC721.sol\":7600:7612  ERC721 token */\n      0x00\n        /* \"MarketERC721.sol\":7622:7634  contractAddr */\n      dup12\n        /* \"MarketERC721.sol\":7600:7635  ERC721 token = ERC721(contractAddr) */\n      swap1\n      pop\n        /* \"MarketERC721.sol\":7650:7660  ERC20 coin */\n      0x00\n        /* \"MarketERC721.sol\":7669:7677  coinAddr */\n      dup12\n        /* \"MarketERC721.sol\":7650:7678  ERC20 coin = ERC20(coinAddr) */\n      swap1\n      pop\n        /* \"MarketERC721.sol\":7701:7705  item */\n      dup3\n        /* \"MarketERC721.sol\":7701:7715  item.isListing */\n      0x02\n      add\n      0x14\n      swap1\n      sload\n      swap1\n      0x0100\n      exp\n      swap1\n      div\n      0xff\n      and\n        /* \"MarketERC721.sol\":7693:7745  require(item.isListing, \"This NFT is not for sell.\") */\n      tag_303\n      jumpi\n      mload(0x40)\n      0x08c379a000000000000000000000000000000000000000000000000000000000\n      dup2\n      mstore\n      0x04\n      add\n      tag_304\n      swap1\n      tag_105\n      jump\t// in\n    tag_304:\n      mload(0x40)\n      dup1\n      swap2\n      sub\n      swap1\n      revert\n    tag_303:\n        /* \"MarketERC721.sol\":7782:7786  item */\n      dup3\n        /* \"MarketERC721.sol\":7782:7793  item.seller */\n      0x01\n      add\n      0x00\n      swap1\n      sload\n      swap1\n      0x0100\n      exp\n      swap1\n      div\n      0xffffffffffffffffffffffffffffffffffffffff\n      and\n        /* \"MarketERC721.sol\":7768:7793  msg.sender != item.seller */\n      0xffffffffffffffffffffffffffffffffffffffff\n      and\n        /* \"MarketERC721.sol\":7768:7778  msg.sender */\n      caller\n        /* \"MarketERC721.sol\":7768:7793  msg.sender != item.seller */\n      0xffffffffffffffffffffffffffffffffffffffff\n      and\n      eq\n      iszero\n        /* \"MarketERC721.sol\":7760:7816  require(msg.sender != item.seller, \"Buy from yourself.\") */\n      tag_305\n      jumpi\n      mload(0x40)\n      0x08c379a000000000000000000000000000000000000000000000000000000000\n      dup2\n      mstore\n      0x04\n      add\n      tag_306\n      swap1\n      tag_108\n      jump\t// in\n    tag_306:\n      mload(0x40)\n      dup1\n      swap2\n      sub\n      swap1\n      revert\n    tag_305:\n        /* \"MarketERC721.sol\":7869:7873  item */\n      dup3\n        /* \"MarketERC721.sol\":7869:7879  item.price */\n      0x00\n      add\n      sload\n        /* \"MarketERC721.sol\":7839:7843  coin */\n      dup2\n        /* \"MarketERC721.sol\":7839:7853  coin.balanceOf */\n      0xffffffffffffffffffffffffffffffffffffffff\n      and\n      0x70a08231\n        /* \"MarketERC721.sol\":7854:7864  msg.sender */\n      caller\n        /* \"MarketERC721.sol\":7839:7865  coin.balanceOf(msg.sender) */\n      mload(0x40)\n      dup3\n      0xffffffff\n      and\n      0xe0\n      shl\n      dup2\n      mstore\n      0x04\n      add\n      tag_307\n      swap2\n      swap1\n      tag_39\n      jump\t// in\n    tag_307:\n      0x20\n      mload(0x40)\n      dup1\n      dup4\n      sub\n      dup2\n      dup7\n      dup1\n      extcodesize\n      iszero\n      dup1\n      iszero\n      tag_308\n      jumpi\n      0x00\n      dup1\n      revert\n    tag_308:\n      pop\n      gas\n      staticcall\n      iszero\n      dup1\n      iszero\n      tag_310\n      jumpi\n      returndatasize\n      0x00\n      dup1\n      returndatacopy\n      revert(0x00, returndatasize)\n    tag_310:\n      pop\n      pop\n      pop\n      pop\n      mload(0x40)\n      returndatasize\n      not(0x1f)\n      0x1f\n      dup3\n      add\n      and\n      dup3\n      add\n      dup1\n      0x40\n      mstore\n      pop\n      dup2\n      add\n      swap1\n      tag_311\n      swap2\n      swap1\n      tag_114\n      jump\t// in\n    tag_311:\n        /* \"MarketERC721.sol\":7839:7879  coin.balanceOf(msg.sender) >= item.price */\n      lt\n      iszero\n        /* \"MarketERC721.sol\":7831:7908  require(coin.balanceOf(msg.sender) >= item.price, \"Insufficient funds sent.\") */\n      tag_312\n      jumpi\n      mload(0x40)\n      0x08c379a000000000000000000000000000000000000000000000000000000000\n      dup2\n      mstore\n      0x04\n      add\n      tag_313\n      swap1\n      tag_117\n      jump\t// in\n    tag_313:\n      mload(0x40)\n      dup1\n      swap2\n      sub\n      swap1\n      revert\n    tag_312:\n        /* \"MarketERC721.sol\":7923:7927  coin */\n      dup1\n        /* \"MarketERC721.sol\":7923:7940  coin.transferFrom */\n      0xffffffffffffffffffffffffffffffffffffffff\n      and\n      0x23b872dd\n        /* \"MarketERC721.sol\":7941:7951  msg.sender */\n      caller\n        /* \"MarketERC721.sol\":7953:7957  item */\n      dup6\n        /* \"MarketERC721.sol\":7953:7964  item.seller */\n      0x01\n      add\n      0x00\n      swap1\n      sload\n      swap1\n      0x0100\n      exp\n      swap1\n      div\n      0xffffffffffffffffffffffffffffffffffffffff\n      and\n        /* \"MarketERC721.sol\":7993:7995  20 */\n      0x14\n        /* \"MarketERC721.sol\":7980:7984  item */\n      dup8\n        /* \"MarketERC721.sol\":7980:7990  item.price */\n      0x00\n      add\n      sload\n        /* \"MarketERC721.sol\":7980:7995  item.price / 20 */\n      tag_314\n      swap2\n      swap1\n      tag_119\n      jump\t// in\n    tag_314:\n        /* \"MarketERC721.sol\":7966:7970  item */\n      dup8\n        /* \"MarketERC721.sol\":7966:7976  item.price */\n      0x00\n      add\n      sload\n        /* \"MarketERC721.sol\":7966:7996  item.price - (item.price / 20) */\n      tag_315\n      swap2\n      swap1\n      tag_121\n      jump\t// in\n    tag_315:\n        /* \"MarketERC721.sol\":7923:7997  coin.transferFrom(msg.sender, item.seller, item.price - (item.price / 20)) */\n      mload(0x40)\n      dup5\n      0xffffffff\n      and\n      0xe0\n      shl\n      dup2\n      mstore\n      0x04\n      add\n      tag_316\n      swap4\n      swap3\n      swap2\n      swap1\n      tag_123\n      jump\t// in\n    tag_316:\n      0x20\n      mload(0x40)\n      dup1\n      dup4\n      sub\n      dup2\n      0x00\n      dup8\n      dup1\n      extcodesize\n      iszero\n      dup1\n      iszero\n      tag_317\n      jumpi\n      0x00\n      dup1\n      revert\n    tag_317:\n      pop\n      gas\n      call\n      iszero\n      dup1\n      iszero\n      tag_319\n      jumpi\n      returndatasize\n      0x00\n      dup1\n      returndatacopy\n      revert(0x00, returndatasize)\n    tag_319:\n      pop\n      pop\n      pop\n      pop\n      mload(0x40)\n      returndatasize\n      not(0x1f)\n      0x1f\n      dup3\n      add\n      and\n      dup3\n      add\n      dup1\n      0x40\n      mstore\n      pop\n      dup2\n      add\n      swap1\n      tag_320\n      swap2\n      swap1\n      tag_128\n      jump\t// in\n    tag_320:\n      pop\n        /* \"MarketERC721.sol\":8012:8016  coin */\n      dup1\n        /* \"MarketERC721.sol\":8012:8029  coin.transferFrom */\n      0xffffffffffffffffffffffffffffffffffffffff\n      and\n      0x23b872dd\n        /* \"MarketERC721.sol\":8030:8040  msg.sender */\n      caller\n        /* \"MarketERC721.sol\":8042:8049  owner() */\n      tag_321\n        /* \"MarketERC721.sol\":8042:8047  owner */\n      tag_79\n        /* \"MarketERC721.sol\":8042:8049  owner() */\n      jump\t// in\n    tag_321:\n        /* \"MarketERC721.sol\":8051:8063  metaverseFee */\n      dup12\n        /* \"MarketERC721.sol\":8012:8064  coin.transferFrom(msg.sender, owner(), metaverseFee) */\n      mload(0x40)\n      dup5\n      0xffffffff\n      and\n      0xe0\n      shl\n      dup2\n      mstore\n      0x04\n      add\n      tag_322\n      swap4\n      swap3\n      swap2\n      swap1\n      tag_123\n      jump\t// in\n    tag_322:\n      0x20\n      mload(0x40)\n      dup1\n      dup4\n      sub\n      dup2\n      0x00\n      dup8\n      dup1\n      extcodesize\n      iszero\n      dup1\n      iszero\n      tag_323\n      jumpi\n      0x00\n      dup1\n      revert\n    tag_323:\n      pop\n      gas\n      call\n      iszero\n      dup1\n      iszero\n      tag_325\n      jumpi\n      returndatasize\n      0x00\n      dup1\n      returndatacopy\n      revert(0x00, returndatasize)\n    tag_325:\n      pop\n      pop\n      pop\n      pop\n      mload(0x40)\n      returndatasize\n      not(0x1f)\n      0x1f\n      dup3\n      add\n      and\n      dup3\n      add\n      dup1\n      0x40\n      mstore\n      pop\n      dup2\n      add\n      swap1\n      tag_326\n      swap2\n      swap1\n      tag_128\n      jump\t// in\n    tag_326:\n      pop\n        /* \"MarketERC721.sol\":8101:8102  0 */\n      0x00\n        /* \"MarketERC721.sol\":8082:8103  referer != address(0) */\n      0xffffffffffffffffffffffffffffffffffffffff\n      and\n        /* \"MarketERC721.sol\":8082:8089  referer */\n      dup10\n        /* \"MarketERC721.sol\":8082:8103  referer != address(0) */\n      0xffffffffffffffffffffffffffffffffffffffff\n      and\n      eq\n        /* \"MarketERC721.sol\":8079:8189  if(referer != address(0)){\r... */\n      tag_327\n      jumpi\n        /* \"MarketERC721.sol\":8123:8127  coin */\n      dup1\n        /* \"MarketERC721.sol\":8123:8140  coin.transferFrom */\n      0xffffffffffffffffffffffffffffffffffffffff\n      and\n      0x23b872dd\n        /* \"MarketERC721.sol\":8141:8151  msg.sender */\n      caller\n        /* \"MarketERC721.sol\":8153:8160  referer */\n      dup12\n        /* \"MarketERC721.sol\":8162:8172  referalFee */\n      dup9\n        /* \"MarketERC721.sol\":8123:8173  coin.transferFrom(msg.sender, referer, referalFee) */\n      mload(0x40)\n      dup5\n      0xffffffff\n      and\n      0xe0\n      shl\n      dup2\n      mstore\n      0x04\n      add\n      tag_328\n      swap4\n      swap3\n      swap2\n      swap1\n      tag_123\n      jump\t// in\n    tag_328:\n      0x20\n      mload(0x40)\n      dup1\n      dup4\n      sub\n      dup2\n      0x00\n      dup8\n      dup1\n      extcodesize\n      iszero\n      dup1\n      iszero\n      tag_329\n      jumpi\n      0x00\n      dup1\n      revert\n    tag_329:\n      pop\n      gas\n      call\n      iszero\n      dup1\n      iszero\n      tag_331\n      jumpi\n      returndatasize\n      0x00\n      dup1\n      returndatacopy\n      revert(0x00, returndatasize)\n    tag_331:\n      pop\n      pop\n      pop\n      pop\n      mload(0x40)\n      returndatasize\n      not(0x1f)\n      0x1f\n      dup3\n      add\n      and\n      dup3\n      add\n      dup1\n      0x40\n      mstore\n      pop\n      dup2\n      add\n      swap1\n      tag_332\n      swap2\n      swap1\n      tag_128\n      jump\t// in\n    tag_332:\n      pop\n        /* \"MarketERC721.sol\":8079:8189  if(referer != address(0)){\r... */\n    tag_327:\n        /* \"MarketERC721.sol\":8208:8214  uint i */\n      0x00\n        /* \"MarketERC721.sol\":8203:8524  for (uint i = 0; i < 5; i++) {\r... */\n    tag_333:\n        /* \"MarketERC721.sol\":8224:8225  5 */\n      0x05\n        /* \"MarketERC721.sol\":8220:8221  i */\n      dup2\n        /* \"MarketERC721.sol\":8220:8225  i < 5 */\n      lt\n        /* \"MarketERC721.sol\":8203:8524  for (uint i = 0; i < 5; i++) {\r... */\n      iszero\n      tag_334\n      jumpi\n        /* \"MarketERC721.sol\":8293:8294  0 */\n      0x00\n        /* \"MarketERC721.sol\":8259:8295  item.previousOwners[i] != address(0) */\n      0xffffffffffffffffffffffffffffffffffffffff\n      and\n        /* \"MarketERC721.sol\":8259:8263  item */\n      dup5\n        /* \"MarketERC721.sol\":8259:8278  item.previousOwners */\n      0x05\n      add\n        /* \"MarketERC721.sol\":8259:8281  item.previousOwners[i] */\n      0x00\n        /* \"MarketERC721.sol\":8279:8280  i */\n      dup4\n        /* \"MarketERC721.sol\":8259:8281  item.previousOwners[i] */\n      dup2\n      mstore\n      0x20\n      add\n      swap1\n      dup2\n      mstore\n      0x20\n      add\n      0x00\n      keccak256\n      0x00\n      swap1\n      sload\n      swap1\n      0x0100\n      exp\n      swap1\n      div\n      0xffffffffffffffffffffffffffffffffffffffff\n      and\n        /* \"MarketERC721.sol\":8259:8295  item.previousOwners[i] != address(0) */\n      0xffffffffffffffffffffffffffffffffffffffff\n      and\n      eq\n        /* \"MarketERC721.sol\":8255:8505  if (item.previousOwners[i] != address(0)) {\r... */\n      tag_336\n      jumpi\n        /* \"MarketERC721.sol\":8324:8328  coin */\n      dup2\n        /* \"MarketERC721.sol\":8324:8341  coin.transferFrom */\n      0xffffffffffffffffffffffffffffffffffffffff\n      and\n      0x23b872dd\n        /* \"MarketERC721.sol\":8342:8352  msg.sender */\n      caller\n        /* \"MarketERC721.sol\":8354:8358  item */\n      dup7\n        /* \"MarketERC721.sol\":8354:8373  item.previousOwners */\n      0x05\n      add\n        /* \"MarketERC721.sol\":8354:8376  item.previousOwners[i] */\n      0x00\n        /* \"MarketERC721.sol\":8374:8375  i */\n      dup6\n        /* \"MarketERC721.sol\":8354:8376  item.previousOwners[i] */\n      dup2\n      mstore\n      0x20\n      add\n      swap1\n      dup2\n      mstore\n      0x20\n      add\n      0x00\n      keccak256\n      0x00\n      swap1\n      sload\n      swap1\n      0x0100\n      exp\n      swap1\n      div\n      0xffffffffffffffffffffffffffffffffffffffff\n      and\n        /* \"MarketERC721.sol\":8378:8394  previousOwnerFee */\n      dup12\n      dup12\n        /* \"MarketERC721.sol\":8395:8396  j */\n      dup11\n        /* \"MarketERC721.sol\":8378:8397  previousOwnerFee[j] */\n      dup2\n      dup2\n      lt\n      tag_337\n      jumpi\n      tag_338\n      tag_238\n      jump\t// in\n    tag_338:\n    tag_337:\n      swap1\n      pop\n      0x20\n      mul\n      add\n      calldataload\n        /* \"MarketERC721.sol\":8324:8398  coin.transferFrom(msg.sender, item.previousOwners[i], previousOwnerFee[j]) */\n      mload(0x40)\n      dup5\n      0xffffffff\n      and\n      0xe0\n      shl\n      dup2\n      mstore\n      0x04\n      add\n      tag_339\n      swap4\n      swap3\n      swap2\n      swap1\n      tag_123\n      jump\t// in\n    tag_339:\n      0x20\n      mload(0x40)\n      dup1\n      dup4\n      sub\n      dup2\n      0x00\n      dup8\n      dup1\n      extcodesize\n      iszero\n      dup1\n      iszero\n      tag_340\n      jumpi\n      0x00\n      dup1\n      revert\n    tag_340:\n      pop\n      gas\n      call\n      iszero\n      dup1\n      iszero\n      tag_342\n      jumpi\n      returndatasize\n      0x00\n      dup1\n      returndatacopy\n      revert(0x00, returndatasize)\n    tag_342:\n      pop\n      pop\n      pop\n      pop\n      mload(0x40)\n      returndatasize\n      not(0x1f)\n      0x1f\n      dup3\n      add\n      and\n      dup3\n      add\n      dup1\n      0x40\n      mstore\n      pop\n      dup2\n      add\n      swap1\n      tag_343\n      swap2\n      swap1\n      tag_128\n      jump\t// in\n    tag_343:\n      pop\n        /* \"MarketERC721.sol\":8255:8505  if (item.previousOwners[i] != address(0)) {\r... */\n      jump(tag_344)\n    tag_336:\n        /* \"MarketERC721.sol\":8476:8481  break */\n      jump(tag_334)\n        /* \"MarketERC721.sol\":8255:8505  if (item.previousOwners[i] != address(0)) {\r... */\n    tag_344:\n        /* \"MarketERC721.sol\":8227:8230  i++ */\n      dup1\n      dup1\n      tag_345\n      swap1\n      tag_152\n      jump\t// in\n    tag_345:\n      swap2\n      pop\n      pop\n        /* \"MarketERC721.sol\":8203:8524  for (uint i = 0; i < 5; i++) {\r... */\n      jump(tag_333)\n    tag_334:\n      pop\n        /* \"MarketERC721.sol\":8540:8545  token */\n      dup2\n        /* \"MarketERC721.sol\":8540:8562  token.safeTransferFrom */\n      0xffffffffffffffffffffffffffffffffffffffff\n      and\n      0xb88d4fde\n        /* \"MarketERC721.sol\":8563:8567  item */\n      dup5\n        /* \"MarketERC721.sol\":8563:8574  item.seller */\n      0x01\n      add\n      0x00\n      swap1\n      sload\n      swap1\n      0x0100\n      exp\n      swap1\n      div\n      0xffffffffffffffffffffffffffffffffffffffff\n      and\n        /* \"MarketERC721.sol\":8576:8586  msg.sender */\n      caller\n        /* \"MarketERC721.sol\":8588:8595  tokenId */\n      dup15\n      dup15\n        /* \"MarketERC721.sol\":8596:8597  j */\n      dup10\n        /* \"MarketERC721.sol\":8588:8598  tokenId[j] */\n      dup2\n      dup2\n      lt\n      tag_346\n      jumpi\n      tag_347\n      tag_238\n      jump\t// in\n    tag_347:\n    tag_346:\n      swap1\n      pop\n      0x20\n      mul\n      add\n      calldataload\n        /* \"MarketERC721.sol\":8540:8603  token.safeTransferFrom(item.seller, msg.sender, tokenId[j], \"\") */\n      mload(0x40)\n      dup5\n      0xffffffff\n      and\n      0xe0\n      shl\n      dup2\n      mstore\n      0x04\n      add\n      tag_348\n      swap4\n      swap3\n      swap2\n      swap1\n      tag_154\n      jump\t// in\n    tag_348:\n      0x00\n      mload(0x40)\n      dup1\n      dup4\n      sub\n      dup2\n      0x00\n      dup8\n      dup1\n      extcodesize\n      iszero\n      dup1\n      iszero\n      tag_349\n      jumpi\n      0x00\n      dup1\n      revert\n    tag_349:\n      pop\n      gas\n      call\n      iszero\n      dup1\n      iszero\n      tag_351\n      jumpi\n      returndatasize\n      0x00\n      dup1\n      returndatacopy\n      revert(0x00, returndatasize)\n    tag_351:\n      pop\n      pop\n      pop\n      pop\n        /* \"MarketERC721.sol\":8631:8641  msg.sender */\n      caller\n        /* \"MarketERC721.sol\":8618:8622  item */\n      dup4\n        /* \"MarketERC721.sol\":8618:8628  item.owner */\n      0x02\n      add\n      0x00\n        /* \"MarketERC721.sol\":8618:8641  item.owner = msg.sender */\n      0x0100\n      exp\n      dup2\n      sload\n      dup2\n      0xffffffffffffffffffffffffffffffffffffffff\n      mul\n      not\n      and\n      swap1\n      dup4\n      0xffffffffffffffffffffffffffffffffffffffff\n      and\n      mul\n      or\n      swap1\n      sstore\n      pop\n        /* \"MarketERC721.sol\":8685:8686  5 */\n      0x05\n        /* \"MarketERC721.sol\":8661:8665  item */\n      dup4\n        /* \"MarketERC721.sol\":8661:8682  item.prevOwnersAmount */\n      0x04\n      add\n      sload\n        /* \"MarketERC721.sol\":8661:8686  item.prevOwnersAmount < 5 */\n      lt\n        /* \"MarketERC721.sol\":8658:8749  if(item.prevOwnersAmount < 5) {\r... */\n      iszero\n      tag_352\n      jumpi\n        /* \"MarketERC721.sol\":8732:8733  1 */\n      0x01\n        /* \"MarketERC721.sol\":8707:8711  item */\n      dup4\n        /* \"MarketERC721.sol\":8707:8728  item.prevOwnersAmount */\n      0x04\n      add\n      0x00\n        /* \"MarketERC721.sol\":8707:8733  item.prevOwnersAmount += 1 */\n      dup3\n      dup3\n      sload\n      tag_353\n      swap2\n      swap1\n      tag_160\n      jump\t// in\n    tag_353:\n      swap3\n      pop\n      pop\n      dup2\n      swap1\n      sstore\n      pop\n        /* \"MarketERC721.sol\":8658:8749  if(item.prevOwnersAmount < 5) {\r... */\n    tag_352:\n        /* \"MarketERC721.sol\":8787:8788  3 */\n      0x03\n        /* \"MarketERC721.sol\":8768:8772  item */\n      dup4\n        /* \"MarketERC721.sol\":8768:8783  item.ownerCount */\n      0x03\n      add\n      sload\n        /* \"MarketERC721.sol\":8768:8788  item.ownerCount <= 3 */\n      gt\n        /* \"MarketERC721.sol\":8765:9056  if(item.ownerCount <= 3) {\r... */\n      tag_354\n      jumpi\n        /* \"MarketERC721.sol\":8848:8852  item */\n      dup3\n        /* \"MarketERC721.sol\":8848:8859  item.seller */\n      0x01\n      add\n      0x00\n      swap1\n      sload\n      swap1\n      0x0100\n      exp\n      swap1\n      div\n      0xffffffffffffffffffffffffffffffffffffffff\n      and\n        /* \"MarketERC721.sol\":8809:8813  item */\n      dup4\n        /* \"MarketERC721.sol\":8809:8828  item.previousOwners */\n      0x05\n      add\n        /* \"MarketERC721.sol\":8809:8845  item.previousOwners[item.ownerCount] */\n      0x00\n        /* \"MarketERC721.sol\":8829:8833  item */\n      dup6\n        /* \"MarketERC721.sol\":8829:8844  item.ownerCount */\n      0x03\n      add\n      sload\n        /* \"MarketERC721.sol\":8809:8845  item.previousOwners[item.ownerCount] */\n      dup2\n      mstore\n      0x20\n      add\n      swap1\n      dup2\n      mstore\n      0x20\n      add\n      0x00\n      keccak256\n      0x00\n        /* \"MarketERC721.sol\":8809:8859  item.previousOwners[item.ownerCount] = item.seller */\n      0x0100\n      exp\n      dup2\n      sload\n      dup2\n      0xffffffffffffffffffffffffffffffffffffffff\n      mul\n      not\n      and\n      swap1\n      dup4\n      0xffffffffffffffffffffffffffffffffffffffff\n      and\n      mul\n      or\n      swap1\n      sstore\n      pop\n        /* \"MarketERC721.sol\":8897:8898  1 */\n      0x01\n        /* \"MarketERC721.sol\":8878:8882  item */\n      dup4\n        /* \"MarketERC721.sol\":8878:8893  item.ownerCount */\n      0x03\n      add\n      0x00\n        /* \"MarketERC721.sol\":8878:8898  item.ownerCount += 1 */\n      dup3\n      dup3\n      sload\n      tag_355\n      swap2\n      swap1\n      tag_160\n      jump\t// in\n    tag_355:\n      swap3\n      pop\n      pop\n      dup2\n      swap1\n      sstore\n      pop\n        /* \"MarketERC721.sol\":8765:9056  if(item.ownerCount <= 3) {\r... */\n      jump(tag_356)\n    tag_354:\n        /* \"MarketERC721.sol\":8991:8995  item */\n      dup3\n        /* \"MarketERC721.sol\":8991:9002  item.seller */\n      0x01\n      add\n      0x00\n      swap1\n      sload\n      swap1\n      0x0100\n      exp\n      swap1\n      div\n      0xffffffffffffffffffffffffffffffffffffffff\n      and\n        /* \"MarketERC721.sol\":8952:8956  item */\n      dup4\n        /* \"MarketERC721.sol\":8952:8971  item.previousOwners */\n      0x05\n      add\n        /* \"MarketERC721.sol\":8952:8988  item.previousOwners[item.ownerCount] */\n      0x00\n        /* \"MarketERC721.sol\":8972:8976  item */\n      dup6\n        /* \"MarketERC721.sol\":8972:8987  item.ownerCount */\n      0x03\n      add\n      sload\n        /* \"MarketERC721.sol\":8952:8988  item.previousOwners[item.ownerCount] */\n      dup2\n      mstore\n      0x20\n      add\n      swap1\n      dup2\n      mstore\n      0x20\n      add\n      0x00\n      keccak256\n      0x00\n        /* \"MarketERC721.sol\":8952:9002  item.previousOwners[item.ownerCount] = item.seller */\n      0x0100\n      exp\n      dup2\n      sload\n      dup2\n      0xffffffffffffffffffffffffffffffffffffffff\n      mul\n      not\n      and\n      swap1\n      dup4\n      0xffffffffffffffffffffffffffffffffffffffff\n      and\n      mul\n      or\n      swap1\n      sstore\n      pop\n        /* \"MarketERC721.sol\":9039:9040  0 */\n      0x00\n        /* \"MarketERC721.sol\":9021:9025  item */\n      dup4\n        /* \"MarketERC721.sol\":9021:9036  item.ownerCount */\n      0x03\n      add\n        /* \"MarketERC721.sol\":9021:9040  item.ownerCount = 0 */\n      dup2\n      swap1\n      sstore\n      pop\n        /* \"MarketERC721.sol\":8765:9056  if(item.ownerCount <= 3) {\r... */\n    tag_356:\n        /* \"MarketERC721.sol\":9089:9094  false */\n      0x00\n        /* \"MarketERC721.sol\":9072:9076  item */\n      dup4\n        /* \"MarketERC721.sol\":9072:9086  item.isListing */\n      0x02\n      add\n      0x14\n        /* \"MarketERC721.sol\":9072:9094  item.isListing = false */\n      0x0100\n      exp\n      dup2\n      sload\n      dup2\n      0xff\n      mul\n      not\n      and\n      swap1\n      dup4\n      iszero\n      iszero\n      mul\n      or\n      swap1\n      sstore\n      pop\n        /* \"MarketERC721.sol\":9155:9159  item */\n      dup3\n        /* \"MarketERC721.sol\":9155:9169  item.isListing */\n      0x02\n      add\n      0x14\n      swap1\n      sload\n      swap1\n      0x0100\n      exp\n      swap1\n      div\n      0xff\n      and\n        /* \"MarketERC721.sol\":9114:9170  List(msg.sender, tokenId[j], item.price, item.isListing) */\n      iszero\n      iszero\n        /* \"MarketERC721.sol\":9131:9138  tokenId */\n      dup12\n      dup12\n        /* \"MarketERC721.sol\":9139:9140  j */\n      dup7\n        /* \"MarketERC721.sol\":9131:9141  tokenId[j] */\n      dup2\n      dup2\n      lt\n      tag_357\n      jumpi\n      tag_358\n      tag_238\n      jump\t// in\n    tag_358:\n    tag_357:\n      swap1\n      pop\n      0x20\n      mul\n      add\n      calldataload\n        /* \"MarketERC721.sol\":9119:9129  msg.sender */\n      caller\n        /* \"MarketERC721.sol\":9114:9170  List(msg.sender, tokenId[j], item.price, item.isListing) */\n      0xffffffffffffffffffffffffffffffffffffffff\n      and\n      0xa7cd299f7ebc29460ad99cf3ea75776d7cd038a63a59fa595e86441f8190ef90\n        /* \"MarketERC721.sol\":9143:9147  item */\n      dup7\n        /* \"MarketERC721.sol\":9143:9153  item.price */\n      0x00\n      add\n      sload\n        /* \"MarketERC721.sol\":9114:9170  List(msg.sender, tokenId[j], item.price, item.isListing) */\n      mload(0x40)\n      tag_359\n      swap2\n      swap1\n      tag_60\n      jump\t// in\n    tag_359:\n      mload(0x40)\n      dup1\n      swap2\n      sub\n      swap1\n      log4\n        /* \"MarketERC721.sol\":7513:9182  {\r... */\n      pop\n      pop\n      pop\n        /* \"MarketERC721.sol\":7508:7511  j++ */\n      dup1\n      dup1\n      tag_360\n      swap1\n      tag_152\n      jump\t// in\n    tag_360:\n      swap2\n      pop\n      pop\n        /* \"MarketERC721.sol\":7471:9182  for (uint j = 0; j < tokenId.length; j++) {\r... */\n      jump(tag_298)\n    tag_299:\n      pop\n        /* \"MarketERC721.sol\":7253:9189  function purchaseERC20Batch(address contractAddr, address coinAddr, uint256[] calldata tokenId, address referer, uint256 metaverseFee, uint256[] calldata previousOwnerFee, uint256 referalFee) public payable {\r... */\n      pop\n      pop\n      pop\n      pop\n      pop\n      pop\n      pop\n      pop\n      pop\n      jump\t// out\n        /* \"Ownable.sol\":718:919  function transferOwnership(address newOwner) public virtual onlyOwner {\r... */\n    tag_98:\n        /* \"Ownable.sol\":530:542  _msgSender() */\n      tag_362\n        /* \"Ownable.sol\":530:540  _msgSender */\n      tag_169\n        /* \"Ownable.sol\":530:542  _msgSender() */\n      jump\t// in\n    tag_362:\n        /* \"Ownable.sol\":519:542  owner() == _msgSender() */\n      0xffffffffffffffffffffffffffffffffffffffff\n      and\n        /* \"Ownable.sol\":519:526  owner() */\n      tag_363\n        /* \"Ownable.sol\":519:524  owner */\n      tag_79\n        /* \"Ownable.sol\":519:526  owner() */\n      jump\t// in\n    tag_363:\n        /* \"Ownable.sol\":519:542  owner() == _msgSender() */\n      0xffffffffffffffffffffffffffffffffffffffff\n      and\n      eq\n        /* \"Ownable.sol\":511:579  require(owner() == _msgSender(), \"Ownable: caller is not the owner\") */\n      tag_364\n      jumpi\n      mload(0x40)\n      0x08c379a000000000000000000000000000000000000000000000000000000000\n      dup2\n      mstore\n      0x04\n      add\n      tag_365\n      swap1\n      tag_173\n      jump\t// in\n    tag_365:\n      mload(0x40)\n      dup1\n      swap2\n      sub\n      swap1\n      revert\n    tag_364:\n        /* \"Ownable.sol\":827:828  0 */\n      0x00\n        /* \"Ownable.sol\":807:829  newOwner != address(0) */\n      0xffffffffffffffffffffffffffffffffffffffff\n      and\n        /* \"Ownable.sol\":807:815  newOwner */\n      dup2\n        /* \"Ownable.sol\":807:829  newOwner != address(0) */\n      0xffffffffffffffffffffffffffffffffffffffff\n      and\n      eq\n      iszero\n        /* \"Ownable.sol\":799:872  require(newOwner != address(0), \"Ownable: new owner is the zero address\") */\n      tag_367\n      jumpi\n      mload(0x40)\n      0x08c379a000000000000000000000000000000000000000000000000000000000\n      dup2\n      mstore\n      0x04\n      add\n      tag_368\n      swap1\n      tag_369\n      jump\t// in\n    tag_368:\n      mload(0x40)\n      dup1\n      swap2\n      sub\n      swap1\n      revert\n    tag_367:\n        /* \"Ownable.sol\":883:911  _transferOwnership(newOwner) */\n      tag_370\n        /* \"Ownable.sol\":902:910  newOwner */\n      dup2\n        /* \"Ownable.sol\":883:901  _transferOwnership */\n      tag_176\n        /* \"Ownable.sol\":883:911  _transferOwnership(newOwner) */\n      jump\t// in\n    tag_370:\n        /* \"Ownable.sol\":718:919  function transferOwnership(address newOwner) public virtual onlyOwner {\r... */\n      pop\n      jump\t// out\n        /* \"Context.sol\":656:754  function _msgSender() internal view virtual returns (address) {\r... */\n    tag_169:\n        /* \"Context.sol\":709:716  address */\n      0x00\n        /* \"Context.sol\":736:746  msg.sender */\n      caller\n        /* \"Context.sol\":729:746  return msg.sender */\n      swap1\n      pop\n        /* \"Context.sol\":656:754  function _msgSender() internal view virtual returns (address) {\r... */\n      swap1\n      jump\t// out\n        /* \"Ownable.sol\":927:1118  function _transferOwnership(address newOwner) internal virtual {\r... */\n    tag_176:\n        /* \"Ownable.sol\":1001:1017  address oldOwner */\n      0x00\n        /* \"Ownable.sol\":1020:1026  _owner */\n      dup1\n      0x00\n      swap1\n      sload\n      swap1\n      0x0100\n      exp\n      swap1\n      div\n      0xffffffffffffffffffffffffffffffffffffffff\n      and\n        /* \"Ownable.sol\":1001:1026  address oldOwner = _owner */\n      swap1\n      pop\n        /* \"Ownable.sol\":1046:1054  newOwner */\n      dup2\n        /* \"Ownable.sol\":1037:1043  _owner */\n      0x00\n      dup1\n        /* \"Ownable.sol\":1037:1054  _owner = newOwner */\n      0x0100\n      exp\n      dup2\n      sload\n      dup2\n      0xffffffffffffffffffffffffffffffffffffffff\n      mul\n      not\n      and\n      swap1\n      dup4\n      0xffffffffffffffffffffffffffffffffffffffff\n      and\n      mul\n      or\n      swap1\n      sstore\n      pop\n        /* \"Ownable.sol\":1101:1109  newOwner */\n      dup2\n        /* \"Ownable.sol\":1070:1110  OwnershipTransferred(oldOwner, newOwner) */\n      0xffffffffffffffffffffffffffffffffffffffff\n      and\n        /* \"Ownable.sol\":1091:1099  oldOwner */\n      dup2\n        /* \"Ownable.sol\":1070:1110  OwnershipTransferred(oldOwner, newOwner) */\n      0xffffffffffffffffffffffffffffffffffffffff\n      and\n      0x8be0079c531659141344cd1fd0a4f28419497f9722a3daafe3b4186f6b6457e0\n      mload(0x40)\n      mload(0x40)\n      dup1\n      swap2\n      sub\n      swap1\n      log3\n        /* \"Ownable.sol\":990:1118  {\r... */\n      pop\n        /* \"Ownable.sol\":927:1118  function _transferOwnership(address newOwner) internal virtual {\r... */\n      pop\n      jump\t// out\n        /* \"#utility.yul\":7:146   */\n    tag_374:\n        /* \"#utility.yul\":53:58   */\n      0x00\n        /* \"#utility.yul\":91:97   */\n      dup2\n        /* \"#utility.yul\":78:98   */\n      calldataload\n        /* \"#utility.yul\":69:98   */\n      swap1\n      pop\n        /* \"#utility.yul\":107:140   */\n      tag_376\n        /* \"#utility.yul\":134:139   */\n      dup2\n        /* \"#utility.yul\":107:140   */\n      tag_377\n      jump\t// in\n    tag_376:\n        /* \"#utility.yul\":7:146   */\n      swap3\n      swap2\n      pop\n      pop\n      jump\t// out\n        /* \"#utility.yul\":152:295   */\n    tag_378:\n        /* \"#utility.yul\":209:214   */\n      0x00\n        /* \"#utility.yul\":240:246   */\n      dup2\n        /* \"#utility.yul\":234:247   */\n      mload\n        /* \"#utility.yul\":225:247   */\n      swap1\n      pop\n        /* \"#utility.yul\":256:289   */\n      tag_380\n        /* \"#utility.yul\":283:288   */\n      dup2\n        /* \"#utility.yul\":256:289   */\n      tag_377\n      jump\t// in\n    tag_380:\n        /* \"#utility.yul\":152:295   */\n      swap3\n      swap2\n      pop\n      pop\n      jump\t// out\n        /* \"#utility.yul\":318:886   */\n    tag_381:\n        /* \"#utility.yul\":391:399   */\n      0x00\n        /* \"#utility.yul\":401:407   */\n      dup1\n        /* \"#utility.yul\":451:454   */\n      dup4\n        /* \"#utility.yul\":444:448   */\n      0x1f\n        /* \"#utility.yul\":436:442   */\n      dup5\n        /* \"#utility.yul\":432:449   */\n      add\n        /* \"#utility.yul\":428:455   */\n      slt\n        /* \"#utility.yul\":418:540   */\n      tag_383\n      jumpi\n        /* \"#utility.yul\":459:538   */\n      tag_384\n      tag_385\n      jump\t// in\n    tag_384:\n        /* \"#utility.yul\":418:540   */\n    tag_383:\n        /* \"#utility.yul\":572:578   */\n      dup3\n        /* \"#utility.yul\":559:579   */\n      calldataload\n        /* \"#utility.yul\":549:579   */\n      swap1\n      pop\n        /* \"#utility.yul\":602:620   */\n      0xffffffffffffffff\n        /* \"#utility.yul\":594:600   */\n      dup2\n        /* \"#utility.yul\":591:621   */\n      gt\n        /* \"#utility.yul\":588:705   */\n      iszero\n      tag_386\n      jumpi\n        /* \"#utility.yul\":624:703   */\n      tag_387\n      tag_388\n      jump\t// in\n    tag_387:\n        /* \"#utility.yul\":588:705   */\n    tag_386:\n        /* \"#utility.yul\":738:742   */\n      0x20\n        /* \"#utility.yul\":730:736   */\n      dup4\n        /* \"#utility.yul\":726:743   */\n      add\n        /* \"#utility.yul\":714:743   */\n      swap2\n      pop\n        /* \"#utility.yul\":792:795   */\n      dup4\n        /* \"#utility.yul\":784:788   */\n      0x20\n        /* \"#utility.yul\":776:782   */\n      dup3\n        /* \"#utility.yul\":772:789   */\n      mul\n        /* \"#utility.yul\":762:770   */\n      dup4\n        /* \"#utility.yul\":758:790   */\n      add\n        /* \"#utility.yul\":755:796   */\n      gt\n        /* \"#utility.yul\":752:880   */\n      iszero\n      tag_389\n      jumpi\n        /* \"#utility.yul\":799:878   */\n      tag_390\n      tag_391\n      jump\t// in\n    tag_390:\n        /* \"#utility.yul\":752:880   */\n    tag_389:\n        /* \"#utility.yul\":318:886   */\n      swap3\n      pop\n      swap3\n      swap1\n      pop\n      jump\t// out\n        /* \"#utility.yul\":892:1029   */\n    tag_392:\n        /* \"#utility.yul\":946:951   */\n      0x00\n        /* \"#utility.yul\":977:983   */\n      dup2\n        /* \"#utility.yul\":971:984   */\n      mload\n        /* \"#utility.yul\":962:984   */\n      swap1\n      pop\n        /* \"#utility.yul\":993:1023   */\n      tag_394\n        /* \"#utility.yul\":1017:1022   */\n      dup2\n        /* \"#utility.yul\":993:1023   */\n      tag_395\n      jump\t// in\n    tag_394:\n        /* \"#utility.yul\":892:1029   */\n      swap3\n      swap2\n      pop\n      pop\n      jump\t// out\n        /* \"#utility.yul\":1035:1174   */\n    tag_396:\n        /* \"#utility.yul\":1081:1086   */\n      0x00\n        /* \"#utility.yul\":1119:1125   */\n      dup2\n        /* \"#utility.yul\":1106:1126   */\n      calldataload\n        /* \"#utility.yul\":1097:1126   */\n      swap1\n      pop\n        /* \"#utility.yul\":1135:1168   */\n      tag_398\n        /* \"#utility.yul\":1162:1167   */\n      dup2\n        /* \"#utility.yul\":1135:1168   */\n      tag_399\n      jump\t// in\n    tag_398:\n        /* \"#utility.yul\":1035:1174   */\n      swap3\n      swap2\n      pop\n      pop\n      jump\t// out\n        /* \"#utility.yul\":1180:1323   */\n    tag_400:\n        /* \"#utility.yul\":1237:1242   */\n      0x00\n        /* \"#utility.yul\":1268:1274   */\n      dup2\n        /* \"#utility.yul\":1262:1275   */\n      mload\n        /* \"#utility.yul\":1253:1275   */\n      swap1\n      pop\n        /* \"#utility.yul\":1284:1317   */\n      tag_402\n        /* \"#utility.yul\":1311:1316   */\n      dup2\n        /* \"#utility.yul\":1284:1317   */\n      tag_399\n      jump\t// in\n    tag_402:\n        /* \"#utility.yul\":1180:1323   */\n      swap3\n      swap2\n      pop\n      pop\n      jump\t// out\n        /* \"#utility.yul\":1329:1658   */\n    tag_97:\n        /* \"#utility.yul\":1388:1394   */\n      0x00\n        /* \"#utility.yul\":1437:1439   */\n      0x20\n        /* \"#utility.yul\":1425:1434   */\n      dup3\n        /* \"#utility.yul\":1416:1423   */\n      dup5\n        /* \"#utility.yul\":1412:1435   */\n      sub\n        /* \"#utility.yul\":1408:1440   */\n      slt\n        /* \"#utility.yul\":1405:1524   */\n      iszero\n      tag_404\n      jumpi\n        /* \"#utility.yul\":1443:1522   */\n      tag_405\n      tag_406\n      jump\t// in\n    tag_405:\n        /* \"#utility.yul\":1405:1524   */\n    tag_404:\n        /* \"#utility.yul\":1563:1564   */\n      0x00\n        /* \"#utility.yul\":1588:1641   */\n      tag_407\n        /* \"#utility.yul\":1633:1640   */\n      dup5\n        /* \"#utility.yul\":1624:1630   */\n      dup3\n        /* \"#utility.yul\":1613:1622   */\n      dup6\n        /* \"#utility.yul\":1609:1631   */\n      add\n        /* \"#utility.yul\":1588:1641   */\n      tag_374\n      jump\t// in\n    tag_407:\n        /* \"#utility.yul\":1578:1641   */\n      swap2\n      pop\n        /* \"#utility.yul\":1534:1651   */\n      pop\n        /* \"#utility.yul\":1329:1658   */\n      swap3\n      swap2\n      pop\n      pop\n      jump\t// out\n        /* \"#utility.yul\":1664:2015   */\n    tag_183:\n        /* \"#utility.yul\":1734:1740   */\n      0x00\n        /* \"#utility.yul\":1783:1785   */\n      0x20\n        /* \"#utility.yul\":1771:1780   */\n      dup3\n        /* \"#utility.yul\":1762:1769   */\n      dup5\n        /* \"#utility.yul\":1758:1781   */\n      sub\n        /* \"#utility.yul\":1754:1786   */\n      slt\n        /* \"#utility.yul\":1751:1870   */\n      iszero\n      tag_409\n      jumpi\n        /* \"#utility.yul\":1789:1868   */\n      tag_410\n      tag_406\n      jump\t// in\n    tag_410:\n        /* \"#utility.yul\":1751:1870   */\n    tag_409:\n        /* \"#utility.yul\":1909:1910   */\n      0x00\n        /* \"#utility.yul\":1934:1998   */\n      tag_411\n        /* \"#utility.yul\":1990:1997   */\n      dup5\n        /* \"#utility.yul\":1981:1987   */\n      dup3\n        /* \"#utility.yul\":1970:1979   */\n      dup6\n        /* \"#utility.yul\":1966:1988   */\n      add\n        /* \"#utility.yul\":1934:1998   */\n      tag_378\n      jump\t// in\n    tag_411:\n        /* \"#utility.yul\":1924:1998   */\n      swap2\n      pop\n        /* \"#utility.yul\":1880:2008   */\n      pop\n        /* \"#utility.yul\":1664:2015   */\n      swap3\n      swap2\n      pop\n      pop\n      jump\t// out\n        /* \"#utility.yul\":2021:3684   */\n    tag_92:\n        /* \"#utility.yul\":2188:2194   */\n      0x00\n        /* \"#utility.yul\":2196:2202   */\n      dup1\n        /* \"#utility.yul\":2204:2210   */\n      0x00\n        /* \"#utility.yul\":2212:2218   */\n      dup1\n        /* \"#utility.yul\":2220:2226   */\n      0x00\n        /* \"#utility.yul\":2228:2234   */\n      dup1\n        /* \"#utility.yul\":2236:2242   */\n      0x00\n        /* \"#utility.yul\":2244:2250   */\n      dup1\n        /* \"#utility.yul\":2252:2258   */\n      0x00\n        /* \"#utility.yul\":2301:2304   */\n      0xe0\n        /* \"#utility.yul\":2289:2298   */\n      dup11\n        /* \"#utility.yul\":2280:2287   */\n      dup13\n        /* \"#utility.yul\":2276:2299   */\n      sub\n        /* \"#utility.yul\":2272:2305   */\n      slt\n        /* \"#utility.yul\":2269:2389   */\n      iszero\n      tag_413\n      jumpi\n        /* \"#utility.yul\":2308:2387   */\n      tag_414\n      tag_406\n      jump\t// in\n    tag_414:\n        /* \"#utility.yul\":2269:2389   */\n    tag_413:\n        /* \"#utility.yul\":2428:2429   */\n      0x00\n        /* \"#utility.yul\":2453:2506   */\n      tag_415\n        /* \"#utility.yul\":2498:2505   */\n      dup13\n        /* \"#utility.yul\":2489:2495   */\n      dup3\n        /* \"#utility.yul\":2478:2487   */\n      dup14\n        /* \"#utility.yul\":2474:2496   */\n      add\n        /* \"#utility.yul\":2453:2506   */\n      tag_374\n      jump\t// in\n    tag_415:\n        /* \"#utility.yul\":2443:2506   */\n      swap10\n      pop\n        /* \"#utility.yul\":2399:2516   */\n      pop\n        /* \"#utility.yul\":2555:2557   */\n      0x20\n        /* \"#utility.yul\":2581:2634   */\n      tag_416\n        /* \"#utility.yul\":2626:2633   */\n      dup13\n        /* \"#utility.yul\":2617:2623   */\n      dup3\n        /* \"#utility.yul\":2606:2615   */\n      dup14\n        /* \"#utility.yul\":2602:2624   */\n      add\n        /* \"#utility.yul\":2581:2634   */\n      tag_374\n      jump\t// in\n    tag_416:\n        /* \"#utility.yul\":2571:2634   */\n      swap9\n      pop\n        /* \"#utility.yul\":2526:2644   */\n      pop\n        /* \"#utility.yul\":2711:2713   */\n      0x40\n        /* \"#utility.yul\":2700:2709   */\n      dup11\n        /* \"#utility.yul\":2696:2714   */\n      add\n        /* \"#utility.yul\":2683:2715   */\n      calldataload\n        /* \"#utility.yul\":2742:2760   */\n      0xffffffffffffffff\n        /* \"#utility.yul\":2734:2740   */\n      dup2\n        /* \"#utility.yul\":2731:2761   */\n      gt\n        /* \"#utility.yul\":2728:2845   */\n      iszero\n      tag_417\n      jumpi\n        /* \"#utility.yul\":2764:2843   */\n      tag_418\n      tag_419\n      jump\t// in\n    tag_418:\n        /* \"#utility.yul\":2728:2845   */\n    tag_417:\n        /* \"#utility.yul\":2877:2957   */\n      tag_420\n        /* \"#utility.yul\":2949:2956   */\n      dup13\n        /* \"#utility.yul\":2940:2946   */\n      dup3\n        /* \"#utility.yul\":2929:2938   */\n      dup14\n        /* \"#utility.yul\":2925:2947   */\n      add\n        /* \"#utility.yul\":2877:2957   */\n      tag_381\n      jump\t// in\n    tag_420:\n        /* \"#utility.yul\":2859:2957   */\n      swap8\n      pop\n      swap8\n      pop\n        /* \"#utility.yul\":2654:2967   */\n      pop\n        /* \"#utility.yul\":3006:3008   */\n      0x60\n        /* \"#utility.yul\":3032:3085   */\n      tag_421\n        /* \"#utility.yul\":3077:3084   */\n      dup13\n        /* \"#utility.yul\":3068:3074   */\n      dup3\n        /* \"#utility.yul\":3057:3066   */\n      dup14\n        /* \"#utility.yul\":3053:3075   */\n      add\n        /* \"#utility.yul\":3032:3085   */\n      tag_374\n      jump\t// in\n    tag_421:\n        /* \"#utility.yul\":3022:3085   */\n      swap6\n      pop\n        /* \"#utility.yul\":2977:3095   */\n      pop\n        /* \"#utility.yul\":3134:3137   */\n      0x80\n        /* \"#utility.yul\":3161:3214   */\n      tag_422\n        /* \"#utility.yul\":3206:3213   */\n      dup13\n        /* \"#utility.yul\":3197:3203   */\n      dup3\n        /* \"#utility.yul\":3186:3195   */\n      dup14\n        /* \"#utility.yul\":3182:3204   */\n      add\n        /* \"#utility.yul\":3161:3214   */\n      tag_396\n      jump\t// in\n    tag_422:\n        /* \"#utility.yul\":3151:3214   */\n      swap5\n      pop\n        /* \"#utility.yul\":3105:3224   */\n      pop\n        /* \"#utility.yul\":3291:3294   */\n      0xa0\n        /* \"#utility.yul\":3280:3289   */\n      dup11\n        /* \"#utility.yul\":3276:3295   */\n      add\n        /* \"#utility.yul\":3263:3296   */\n      calldataload\n        /* \"#utility.yul\":3323:3341   */\n      0xffffffffffffffff\n        /* \"#utility.yul\":3315:3321   */\n      dup2\n        /* \"#utility.yul\":3312:3342   */\n      gt\n        /* \"#utility.yul\":3309:3426   */\n      iszero\n      tag_423\n      jumpi\n        /* \"#utility.yul\":3345:3424   */\n      tag_424\n      tag_419\n      jump\t// in\n    tag_424:\n        /* \"#utility.yul\":3309:3426   */\n    tag_423:\n        /* \"#utility.yul\":3458:3538   */\n      tag_425\n        /* \"#utility.yul\":3530:3537   */\n      dup13\n        /* \"#utility.yul\":3521:3527   */\n      dup3\n        /* \"#utility.yul\":3510:3519   */\n      dup14\n        /* \"#utility.yul\":3506:3528   */\n      add\n        /* \"#utility.yul\":3458:3538   */\n      tag_381\n      jump\t// in\n    tag_425:\n        /* \"#utility.yul\":3440:3538   */\n      swap4\n      pop\n      swap4\n      pop\n        /* \"#utility.yul\":3234:3548   */\n      pop\n        /* \"#utility.yul\":3587:3590   */\n      0xc0\n        /* \"#utility.yul\":3614:3667   */\n      tag_426\n        /* \"#utility.yul\":3659:3666   */\n      dup13\n        /* \"#utility.yul\":3650:3656   */\n      dup3\n        /* \"#utility.yul\":3639:3648   */\n      dup14\n        /* \"#utility.yul\":3635:3657   */\n      add\n        /* \"#utility.yul\":3614:3667   */\n      tag_396\n      jump\t// in\n    tag_426:\n        /* \"#utility.yul\":3604:3667   */\n      swap2\n      pop\n        /* \"#utility.yul\":3558:3677   */\n      pop\n        /* \"#utility.yul\":2021:3684   */\n      swap3\n      swap6\n      swap9\n      pop\n      swap3\n      swap6\n      swap9\n      pop\n      swap3\n      swap6\n      swap9\n      jump\t// out\n        /* \"#utility.yul\":3690:4893   */\n    tag_48:\n        /* \"#utility.yul\":3803:3809   */\n      0x00\n        /* \"#utility.yul\":3811:3817   */\n      dup1\n        /* \"#utility.yul\":3819:3825   */\n      0x00\n        /* \"#utility.yul\":3827:3833   */\n      dup1\n        /* \"#utility.yul\":3835:3841   */\n      0x00\n        /* \"#utility.yul\":3843:3849   */\n      dup1\n        /* \"#utility.yul\":3851:3857   */\n      0x00\n        /* \"#utility.yul\":3900:3903   */\n      0xe0\n        /* \"#utility.yul\":3888:3897   */\n      dup9\n        /* \"#utility.yul\":3879:3886   */\n      dup11\n        /* \"#utility.yul\":3875:3898   */\n      sub\n        /* \"#utility.yul\":3871:3904   */\n      slt\n        /* \"#utility.yul\":3868:3988   */\n      iszero\n      tag_428\n      jumpi\n        /* \"#utility.yul\":3907:3986   */\n      tag_429\n      tag_406\n      jump\t// in\n    tag_429:\n        /* \"#utility.yul\":3868:3988   */\n    tag_428:\n        /* \"#utility.yul\":4027:4028   */\n      0x00\n        /* \"#utility.yul\":4052:4105   */\n      tag_430\n        /* \"#utility.yul\":4097:4104   */\n      dup11\n        /* \"#utility.yul\":4088:4094   */\n      dup3\n        /* \"#utility.yul\":4077:4086   */\n      dup12\n        /* \"#utility.yul\":4073:4095   */\n      add\n        /* \"#utility.yul\":4052:4105   */\n      tag_374\n      jump\t// in\n    tag_430:\n        /* \"#utility.yul\":4042:4105   */\n      swap8\n      pop\n        /* \"#utility.yul\":3998:4115   */\n      pop\n        /* \"#utility.yul\":4154:4156   */\n      0x20\n        /* \"#utility.yul\":4180:4233   */\n      tag_431\n        /* \"#utility.yul\":4225:4232   */\n      dup11\n        /* \"#utility.yul\":4216:4222   */\n      dup3\n        /* \"#utility.yul\":4205:4214   */\n      dup12\n        /* \"#utility.yul\":4201:4223   */\n      add\n        /* \"#utility.yul\":4180:4233   */\n      tag_374\n      jump\t// in\n    tag_431:\n        /* \"#utility.yul\":4170:4233   */\n      swap7\n      pop\n        /* \"#utility.yul\":4125:4243   */\n      pop\n        /* \"#utility.yul\":4282:4284   */\n      0x40\n        /* \"#utility.yul\":4308:4361   */\n      tag_432\n        /* \"#utility.yul\":4353:4360   */\n      dup11\n        /* \"#utility.yul\":4344:4350   */\n      dup3\n        /* \"#utility.yul\":4333:4342   */\n      dup12\n        /* \"#utility.yul\":4329:4351   */\n      add\n        /* \"#utility.yul\":4308:4361   */\n      tag_396\n      jump\t// in\n    tag_432:\n        /* \"#utility.yul\":4298:4361   */\n      swap6\n      pop\n        /* \"#utility.yul\":4253:4371   */\n      pop\n        /* \"#utility.yul\":4410:4412   */\n      0x60\n        /* \"#utility.yul\":4436:4489   */\n      tag_433\n        /* \"#utility.yul\":4481:4488   */\n      dup11\n        /* \"#utility.yul\":4472:4478   */\n      dup3\n        /* \"#utility.yul\":4461:4470   */\n      dup12\n        /* \"#utility.yul\":4457:4479   */\n      add\n        /* \"#utility.yul\":4436:4489   */\n      tag_374\n      jump\t// in\n    tag_433:\n        /* \"#utility.yul\":4426:4489   */\n      swap5\n      pop\n        /* \"#utility.yul\":4381:4499   */\n      pop\n        /* \"#utility.yul\":4538:4541   */\n      0x80\n        /* \"#utility.yul\":4565:4618   */\n      tag_434\n        /* \"#utility.yul\":4610:4617   */\n      dup11\n        /* \"#utility.yul\":4601:4607   */\n      dup3\n        /* \"#utility.yul\":4590:4599   */\n      dup12\n        /* \"#utility.yul\":4586:4608   */\n      add\n        /* \"#utility.yul\":4565:4618   */\n      tag_396\n      jump\t// in\n    tag_434:\n        /* \"#utility.yul\":4555:4618   */\n      swap4\n      pop\n        /* \"#utility.yul\":4509:4628   */\n      pop\n        /* \"#utility.yul\":4667:4670   */\n      0xa0\n        /* \"#utility.yul\":4694:4747   */\n      tag_435\n        /* \"#utility.yul\":4739:4746   */\n      dup11\n        /* \"#utility.yul\":4730:4736   */\n      dup3\n        /* \"#utility.yul\":4719:4728   */\n      dup12\n        /* \"#utility.yul\":4715:4737   */\n      add\n        /* \"#utility.yul\":4694:4747   */\n      tag_396\n      jump\t// in\n    tag_435:\n        /* \"#utility.yul\":4684:4747   */\n      swap3\n      pop\n        /* \"#utility.yul\":4638:4757   */\n      pop\n        /* \"#utility.yul\":4796:4799   */\n      0xc0\n        /* \"#utility.yul\":4823:4876   */\n      tag_436\n        /* \"#utility.yul\":4868:4875   */\n      dup11\n        /* \"#utility.yul\":4859:4865   */\n      dup3\n        /* \"#utility.yul\":4848:4857   */\n      dup12\n        /* \"#utility.yul\":4844:4866   */\n      add\n        /* \"#utility.yul\":4823:4876   */\n      tag_396\n      jump\t// in\n    tag_436:\n        /* \"#utility.yul\":4813:4876   */\n      swap2\n      pop\n        /* \"#utility.yul\":4767:4886   */\n      pop\n        /* \"#utility.yul\":3690:4893   */\n      swap3\n      swap6\n      swap9\n      swap2\n      swap5\n      swap8\n      pop\n      swap3\n      swap6\n      pop\n      jump\t// out\n        /* \"#utility.yul\":4899:6416   */\n    tag_75:\n        /* \"#utility.yul\":5057:5063   */\n      0x00\n        /* \"#utility.yul\":5065:5071   */\n      dup1\n        /* \"#utility.yul\":5073:5079   */\n      0x00\n        /* \"#utility.yul\":5081:5087   */\n      dup1\n        /* \"#utility.yul\":5089:5095   */\n      0x00\n        /* \"#utility.yul\":5097:5103   */\n      dup1\n        /* \"#utility.yul\":5105:5111   */\n      0x00\n        /* \"#utility.yul\":5113:5119   */\n      dup1\n        /* \"#utility.yul\":5162:5165   */\n      0xc0\n        /* \"#utility.yul\":5150:5159   */\n      dup10\n        /* \"#utility.yul\":5141:5148   */\n      dup12\n        /* \"#utility.yul\":5137:5160   */\n      sub\n        /* \"#utility.yul\":5133:5166   */\n      slt\n        /* \"#utility.yul\":5130:5250   */\n      iszero\n      tag_438\n      jumpi\n        /* \"#utility.yul\":5169:5248   */\n      tag_439\n      tag_406\n      jump\t// in\n    tag_439:\n        /* \"#utility.yul\":5130:5250   */\n    tag_438:\n        /* \"#utility.yul\":5289:5290   */\n      0x00\n        /* \"#utility.yul\":5314:5367   */\n      tag_440\n        /* \"#utility.yul\":5359:5366   */\n      dup12\n        /* \"#utility.yul\":5350:5356   */\n      dup3\n        /* \"#utility.yul\":5339:5348   */\n      dup13\n        /* \"#utility.yul\":5335:5357   */\n      add\n        /* \"#utility.yul\":5314:5367   */\n      tag_374\n      jump\t// in\n    tag_440:\n        /* \"#utility.yul\":5304:5367   */\n      swap9\n      pop\n        /* \"#utility.yul\":5260:5377   */\n      pop\n        /* \"#utility.yul\":5444:5446   */\n      0x20\n        /* \"#utility.yul\":5433:5442   */\n      dup10\n        /* \"#utility.yul\":5429:5447   */\n      add\n        /* \"#utility.yul\":5416:5448   */\n      calldataload\n        /* \"#utility.yul\":5475:5493   */\n      0xffffffffffffffff\n        /* \"#utility.yul\":5467:5473   */\n      dup2\n        /* \"#utility.yul\":5464:5494   */\n      gt\n        /* \"#utility.yul\":5461:5578   */\n      iszero\n      tag_441\n      jumpi\n        /* \"#utility.yul\":5497:5576   */\n      tag_442\n      tag_419\n      jump\t// in\n    tag_442:\n        /* \"#utility.yul\":5461:5578   */\n    tag_441:\n        /* \"#utility.yul\":5610:5690   */\n      tag_443\n        /* \"#utility.yul\":5682:5689   */\n      dup12\n        /* \"#utility.yul\":5673:5679   */\n      dup3\n        /* \"#utility.yul\":5662:5671   */\n      dup13\n        /* \"#utility.yul\":5658:5680   */\n      add\n        /* \"#utility.yul\":5610:5690   */\n      tag_381\n      jump\t// in\n    tag_443:\n        /* \"#utility.yul\":5592:5690   */\n      swap8\n      pop\n      swap8\n      pop\n        /* \"#utility.yul\":5387:5700   */\n      pop\n        /* \"#utility.yul\":5739:5741   */\n      0x40\n        /* \"#utility.yul\":5765:5818   */\n      tag_444\n        /* \"#utility.yul\":5810:5817   */\n      dup12\n        /* \"#utility.yul\":5801:5807   */\n      dup3\n        /* \"#utility.yul\":5790:5799   */\n      dup13\n        /* \"#utility.yul\":5786:5808   */\n      add\n        /* \"#utility.yul\":5765:5818   */\n      tag_374\n      jump\t// in\n    tag_444:\n        /* \"#utility.yul\":5755:5818   */\n      swap6\n      pop\n        /* \"#utility.yul\":5710:5828   */\n      pop\n        /* \"#utility.yul\":5867:5869   */\n      0x60\n        /* \"#utility.yul\":5893:5946   */\n      tag_445\n        /* \"#utility.yul\":5938:5945   */\n      dup12\n        /* \"#utility.yul\":5929:5935   */\n      dup3\n        /* \"#utility.yul\":5918:5927   */\n      dup13\n        /* \"#utility.yul\":5914:5936   */\n      add\n        /* \"#utility.yul\":5893:5946   */\n      tag_396\n      jump\t// in\n    tag_445:\n        /* \"#utility.yul\":5883:5946   */\n      swap5\n      pop\n        /* \"#utility.yul\":5838:5956   */\n      pop\n        /* \"#utility.yul\":6023:6026   */\n      0x80\n        /* \"#utility.yul\":6012:6021   */\n      dup10\n        /* \"#utility.yul\":6008:6027   */\n      add\n        /* \"#utility.yul\":5995:6028   */\n      calldataload\n        /* \"#utility.yul\":6055:6073   */\n      0xffffffffffffffff\n        /* \"#utility.yul\":6047:6053   */\n      dup2\n        /* \"#utility.yul\":6044:6074   */\n      gt\n        /* \"#utility.yul\":6041:6158   */\n      iszero\n      tag_446\n      jumpi\n        /* \"#utility.yul\":6077:6156   */\n      tag_447\n      tag_419\n      jump\t// in\n    tag_447:\n        /* \"#utility.yul\":6041:6158   */\n    tag_446:\n        /* \"#utility.yul\":6190:6270   */\n      tag_448\n        /* \"#utility.yul\":6262:6269   */\n      dup12\n        /* \"#utility.yul\":6253:6259   */\n      dup3\n        /* \"#utility.yul\":6242:6251   */\n      dup13\n        /* \"#utility.yul\":6238:6260   */\n      add\n        /* \"#utility.yul\":6190:6270   */\n      tag_381\n      jump\t// in\n    tag_448:\n        /* \"#utility.yul\":6172:6270   */\n      swap4\n      pop\n      swap4\n      pop\n        /* \"#utility.yul\":5966:6280   */\n      pop\n        /* \"#utility.yul\":6319:6322   */\n      0xa0\n        /* \"#utility.yul\":6346:6399   */\n      tag_449\n        /* \"#utility.yul\":6391:6398   */\n      dup12\n        /* \"#utility.yul\":6382:6388   */\n      dup3\n        /* \"#utility.yul\":6371:6380   */\n      dup13\n        /* \"#utility.yul\":6367:6389   */\n      add\n        /* \"#utility.yul\":6346:6399   */\n      tag_396\n      jump\t// in\n    tag_449:\n        /* \"#utility.yul\":6336:6399   */\n      swap2\n      pop\n        /* \"#utility.yul\":6290:6409   */\n      pop\n        /* \"#utility.yul\":4899:6416   */\n      swap3\n      swap6\n      swap9\n      pop\n      swap3\n      swap6\n      swap9\n      swap1\n      swap4\n      swap7\n      pop\n      jump\t// out\n        /* \"#utility.yul\":6422:6896   */\n    tag_24:\n        /* \"#utility.yul\":6490:6496   */\n      0x00\n        /* \"#utility.yul\":6498:6504   */\n      dup1\n        /* \"#utility.yul\":6547:6549   */\n      0x40\n        /* \"#utility.yul\":6535:6544   */\n      dup4\n        /* \"#utility.yul\":6526:6533   */\n      dup6\n        /* \"#utility.yul\":6522:6545   */\n      sub\n        /* \"#utility.yul\":6518:6550   */\n      slt\n        /* \"#utility.yul\":6515:6634   */\n      iszero\n      tag_451\n      jumpi\n        /* \"#utility.yul\":6553:6632   */\n      tag_452\n      tag_406\n      jump\t// in\n    tag_452:\n        /* \"#utility.yul\":6515:6634   */\n    tag_451:\n        /* \"#utility.yul\":6673:6674   */\n      0x00\n        /* \"#utility.yul\":6698:6751   */\n      tag_453\n        /* \"#utility.yul\":6743:6750   */\n      dup6\n        /* \"#utility.yul\":6734:6740   */\n      dup3\n        /* \"#utility.yul\":6723:6732   */\n      dup7\n        /* \"#utility.yul\":6719:6741   */\n      add\n        /* \"#utility.yul\":6698:6751   */\n      tag_374\n      jump\t// in\n    tag_453:\n        /* \"#utility.yul\":6688:6751   */\n      swap3\n      pop\n        /* \"#utility.yul\":6644:6761   */\n      pop\n        /* \"#utility.yul\":6800:6802   */\n      0x20\n        /* \"#utility.yul\":6826:6879   */\n      tag_454\n        /* \"#utility.yul\":6871:6878   */\n      dup6\n        /* \"#utility.yul\":6862:6868   */\n      dup3\n        /* \"#utility.yul\":6851:6860   */\n      dup7\n        /* \"#utility.yul\":6847:6869   */\n      add\n        /* \"#utility.yul\":6826:6879   */\n      tag_396\n      jump\t// in\n    tag_454:\n        /* \"#utility.yul\":6816:6879   */\n      swap2\n      pop\n        /* \"#utility.yul\":6771:6889   */\n      pop\n        /* \"#utility.yul\":6422:6896   */\n      swap3\n      pop\n      swap3\n      swap1\n      pop\n      jump\t// out\n        /* \"#utility.yul\":6902:7959   */\n    tag_71:\n        /* \"#utility.yul\":7006:7012   */\n      0x00\n        /* \"#utility.yul\":7014:7020   */\n      dup1\n        /* \"#utility.yul\":7022:7028   */\n      0x00\n        /* \"#utility.yul\":7030:7036   */\n      dup1\n        /* \"#utility.yul\":7038:7044   */\n      0x00\n        /* \"#utility.yul\":7046:7052   */\n      dup1\n        /* \"#utility.yul\":7095:7098   */\n      0xc0\n        /* \"#utility.yul\":7083:7092   */\n      dup8\n        /* \"#utility.yul\":7074:7081   */\n      dup10\n        /* \"#utility.yul\":7070:7093   */\n      sub\n        /* \"#utility.yul\":7066:7099   */\n      slt\n        /* \"#utility.yul\":7063:7183   */\n      iszero\n      tag_456\n      jumpi\n        /* \"#utility.yul\":7102:7181   */\n      tag_457\n      tag_406\n      jump\t// in\n    tag_457:\n        /* \"#utility.yul\":7063:7183   */\n    tag_456:\n        /* \"#utility.yul\":7222:7223   */\n      0x00\n        /* \"#utility.yul\":7247:7300   */\n      tag_458\n        /* \"#utility.yul\":7292:7299   */\n      dup10\n        /* \"#utility.yul\":7283:7289   */\n      dup3\n        /* \"#utility.yul\":7272:7281   */\n      dup11\n        /* \"#utility.yul\":7268:7290   */\n      add\n        /* \"#utility.yul\":7247:7300   */\n      tag_374\n      jump\t// in\n    tag_458:\n        /* \"#utility.yul\":7237:7300   */\n      swap7\n      pop\n        /* \"#utility.yul\":7193:7310   */\n      pop\n        /* \"#utility.yul\":7349:7351   */\n      0x20\n        /* \"#utility.yul\":7375:7428   */\n      tag_459\n        /* \"#utility.yul\":7420:7427   */\n      dup10\n        /* \"#utility.yul\":7411:7417   */\n      dup3\n        /* \"#utility.yul\":7400:7409   */\n      dup11\n        /* \"#utility.yul\":7396:7418   */\n      add\n        /* \"#utility.yul\":7375:7428   */\n      tag_396\n      jump\t// in\n    tag_459:\n        /* \"#utility.yul\":7365:7428   */\n      swap6\n      pop\n        /* \"#utility.yul\":7320:7438   */\n      pop\n        /* \"#utility.yul\":7477:7479   */\n      0x40\n        /* \"#utility.yul\":7503:7556   */\n      tag_460\n        /* \"#utility.yul\":7548:7555   */\n      dup10\n        /* \"#utility.yul\":7539:7545   */\n      dup3\n        /* \"#utility.yul\":7528:7537   */\n      dup11\n        /* \"#utility.yul\":7524:7546   */\n      add\n        /* \"#utility.yul\":7503:7556   */\n      tag_374\n      jump\t// in\n    tag_460:\n        /* \"#utility.yul\":7493:7556   */\n      swap5\n      pop\n        /* \"#utility.yul\":7448:7566   */\n      pop\n        /* \"#utility.yul\":7605:7607   */\n      0x60\n        /* \"#utility.yul\":7631:7684   */\n      tag_461\n        /* \"#utility.yul\":7676:7683   */\n      dup10\n        /* \"#utility.yul\":7667:7673   */\n      dup3\n        /* \"#utility.yul\":7656:7665   */\n      dup11\n        /* \"#utility.yul\":7652:7674   */\n      add\n        /* \"#utility.yul\":7631:7684   */\n      tag_396\n      jump\t// in\n    tag_461:\n        /* \"#utility.yul\":7621:7684   */\n      swap4\n      pop\n        /* \"#utility.yul\":7576:7694   */\n      pop\n        /* \"#utility.yul\":7733:7736   */\n      0x80\n        /* \"#utility.yul\":7760:7813   */\n      tag_462\n        /* \"#utility.yul\":7805:7812   */\n      dup10\n        /* \"#utility.yul\":7796:7802   */\n      dup3\n        /* \"#utility.yul\":7785:7794   */\n      dup11\n        /* \"#utility.yul\":7781:7803   */\n      add\n        /* \"#utility.yul\":7760:7813   */\n      tag_396\n      jump\t// in\n    tag_462:\n        /* \"#utility.yul\":7750:7813   */\n      swap3\n      pop\n        /* \"#utility.yul\":7704:7823   */\n      pop\n        /* \"#utility.yul\":7862:7865   */\n      0xa0\n        /* \"#utility.yul\":7889:7942   */\n      tag_463\n        /* \"#utility.yul\":7934:7941   */\n      dup10\n        /* \"#utility.yul\":7925:7931   */\n      dup3\n        /* \"#utility.yul\":7914:7923   */\n      dup11\n        /* \"#utility.yul\":7910:7932   */\n      add\n        /* \"#utility.yul\":7889:7942   */\n      tag_396\n      jump\t// in\n    tag_463:\n        /* \"#utility.yul\":7879:7942   */\n      swap2\n      pop\n        /* \"#utility.yul\":7833:7952   */\n      pop\n        /* \"#utility.yul\":6902:7959   */\n      swap3\n      swap6\n      pop\n      swap3\n      swap6\n      pop\n      swap3\n      swap6\n      jump\t// out\n        /* \"#utility.yul\":7965:8584   */\n    tag_43:\n        /* \"#utility.yul\":8042:8048   */\n      0x00\n        /* \"#utility.yul\":8050:8056   */\n      dup1\n        /* \"#utility.yul\":8058:8064   */\n      0x00\n        /* \"#utility.yul\":8107:8109   */\n      0x60\n        /* \"#utility.yul\":8095:8104   */\n      dup5\n        /* \"#utility.yul\":8086:8093   */\n      dup7\n        /* \"#utility.yul\":8082:8105   */\n      sub\n        /* \"#utility.yul\":8078:8110   */\n      slt\n        /* \"#utility.yul\":8075:8194   */\n      iszero\n      tag_465\n      jumpi\n        /* \"#utility.yul\":8113:8192   */\n      tag_466\n      tag_406\n      jump\t// in\n    tag_466:\n        /* \"#utility.yul\":8075:8194   */\n    tag_465:\n        /* \"#utility.yul\":8233:8234   */\n      0x00\n        /* \"#utility.yul\":8258:8311   */\n      tag_467\n        /* \"#utility.yul\":8303:8310   */\n      dup7\n        /* \"#utility.yul\":8294:8300   */\n      dup3\n        /* \"#utility.yul\":8283:8292   */\n      dup8\n        /* \"#utility.yul\":8279:8301   */\n      add\n        /* \"#utility.yul\":8258:8311   */\n      tag_374\n      jump\t// in\n    tag_467:\n        /* \"#utility.yul\":8248:8311   */\n      swap4\n      pop\n        /* \"#utility.yul\":8204:8321   */\n      pop\n        /* \"#utility.yul\":8360:8362   */\n      0x20\n        /* \"#utility.yul\":8386:8439   */\n      tag_468\n        /* \"#utility.yul\":8431:8438   */\n      dup7\n        /* \"#utility.yul\":8422:8428   */\n      dup3\n        /* \"#utility.yul\":8411:8420   */\n      dup8\n        /* \"#utility.yul\":8407:8429   */\n      add\n        /* \"#utility.yul\":8386:8439   */\n      tag_396\n      jump\t// in\n    tag_468:\n        /* \"#utility.yul\":8376:8439   */\n      swap3\n      pop\n        /* \"#utility.yul\":8331:8449   */\n      pop\n        /* \"#utility.yul\":8488:8490   */\n      0x40\n        /* \"#utility.yul\":8514:8567   */\n      tag_469\n        /* \"#utility.yul\":8559:8566   */\n      dup7\n        /* \"#utility.yul\":8550:8556   */\n      dup3\n        /* \"#utility.yul\":8539:8548   */\n      dup8\n        /* \"#utility.yul\":8535:8557   */\n      add\n        /* \"#utility.yul\":8514:8567   */\n      tag_396\n      jump\t// in\n    tag_469:\n        /* \"#utility.yul\":8504:8567   */\n      swap2\n      pop\n        /* \"#utility.yul\":8459:8577   */\n      pop\n        /* \"#utility.yul\":7965:8584   */\n      swap3\n      pop\n      swap3\n      pop\n      swap3\n      jump\t// out\n        /* \"#utility.yul\":8590:8935   */\n    tag_128:\n        /* \"#utility.yul\":8657:8663   */\n      0x00\n        /* \"#utility.yul\":8706:8708   */\n      0x20\n        /* \"#utility.yul\":8694:8703   */\n      dup3\n        /* \"#utility.yul\":8685:8692   */\n      dup5\n        /* \"#utility.yul\":8681:8704   */\n      sub\n        /* \"#utility.yul\":8677:8709   */\n      slt\n        /* \"#utility.yul\":8674:8793   */\n      iszero\n      tag_471\n      jumpi\n        /* \"#utility.yul\":8712:8791   */\n      tag_472\n      tag_406\n      jump\t// in\n    tag_472:\n        /* \"#utility.yul\":8674:8793   */\n    tag_471:\n        /* \"#utility.yul\":8832:8833   */\n      0x00\n        /* \"#utility.yul\":8857:8918   */\n      tag_473\n        /* \"#utility.yul\":8910:8917   */\n      dup5\n        /* \"#utility.yul\":8901:8907   */\n      dup3\n        /* \"#utility.yul\":8890:8899   */\n      dup6\n        /* \"#utility.yul\":8886:8908   */\n      add\n        /* \"#utility.yul\":8857:8918   */\n      tag_392\n      jump\t// in\n    tag_473:\n        /* \"#utility.yul\":8847:8918   */\n      swap2\n      pop\n        /* \"#utility.yul\":8803:8928   */\n      pop\n        /* \"#utility.yul\":8590:8935   */\n      swap3\n      swap2\n      pop\n      pop\n      jump\t// out\n        /* \"#utility.yul\":8941:9292   */\n    tag_114:\n        /* \"#utility.yul\":9011:9017   */\n      0x00\n        /* \"#utility.yul\":9060:9062   */\n      0x20\n        /* \"#utility.yul\":9048:9057   */\n      dup3\n        /* \"#utility.yul\":9039:9046   */\n      dup5\n        /* \"#utility.yul\":9035:9058   */\n      sub\n        /* \"#utility.yul\":9031:9063   */\n      slt\n        /* \"#utility.yul\":9028:9147   */\n      iszero\n      tag_475\n      jumpi\n        /* \"#utility.yul\":9066:9145   */\n      tag_476\n      tag_406\n      jump\t// in\n    tag_476:\n        /* \"#utility.yul\":9028:9147   */\n    tag_475:\n        /* \"#utility.yul\":9186:9187   */\n      0x00\n        /* \"#utility.yul\":9211:9275   */\n      tag_477\n        /* \"#utility.yul\":9267:9274   */\n      dup5\n        /* \"#utility.yul\":9258:9264   */\n      dup3\n        /* \"#utility.yul\":9247:9256   */\n      dup6\n        /* \"#utility.yul\":9243:9265   */\n      add\n        /* \"#utility.yul\":9211:9275   */\n      tag_400\n      jump\t// in\n    tag_477:\n        /* \"#utility.yul\":9201:9275   */\n      swap2\n      pop\n        /* \"#utility.yul\":9157:9285   */\n      pop\n        /* \"#utility.yul\":8941:9292   */\n      swap3\n      swap2\n      pop\n      pop\n      jump\t// out\n        /* \"#utility.yul\":9298:9917   */\n    tag_67:\n        /* \"#utility.yul\":9375:9381   */\n      0x00\n        /* \"#utility.yul\":9383:9389   */\n      dup1\n        /* \"#utility.yul\":9391:9397   */\n      0x00\n        /* \"#utility.yul\":9440:9442   */\n      0x60\n        /* \"#utility.yul\":9428:9437   */\n      dup5\n        /* \"#utility.yul\":9419:9426   */\n      dup7\n        /* \"#utility.yul\":9415:9438   */\n      sub\n        /* \"#utility.yul\":9411:9443   */\n      slt\n        /* \"#utility.yul\":9408:9527   */\n      iszero\n      tag_479\n      jumpi\n        /* \"#utility.yul\":9446:9525   */\n      tag_480\n      tag_406\n      jump\t// in\n    tag_480:\n        /* \"#utility.yul\":9408:9527   */\n    tag_479:\n        /* \"#utility.yul\":9566:9567   */\n      0x00\n        /* \"#utility.yul\":9591:9644   */\n      tag_481\n        /* \"#utility.yul\":9636:9643   */\n      dup7\n        /* \"#utility.yul\":9627:9633   */\n      dup3\n        /* \"#utility.yul\":9616:9625   */\n      dup8\n        /* \"#utility.yul\":9612:9634   */\n      add\n        /* \"#utility.yul\":9591:9644   */\n      tag_396\n      jump\t// in\n    tag_481:\n        /* \"#utility.yul\":9581:9644   */\n      swap4\n      pop\n        /* \"#utility.yul\":9537:9654   */\n      pop\n        /* \"#utility.yul\":9693:9695   */\n      0x20\n        /* \"#utility.yul\":9719:9772   */\n      tag_482\n        /* \"#utility.yul\":9764:9771   */\n      dup7\n        /* \"#utility.yul\":9755:9761   */\n      dup3\n        /* \"#utility.yul\":9744:9753   */\n      dup8\n        /* \"#utility.yul\":9740:9762   */\n      add\n        /* \"#utility.yul\":9719:9772   */\n      tag_374\n      jump\t// in\n    tag_482:\n        /* \"#utility.yul\":9709:9772   */\n      swap3\n      pop\n        /* \"#utility.yul\":9664:9782   */\n      pop\n        /* \"#utility.yul\":9821:9823   */\n      0x40\n        /* \"#utility.yul\":9847:9900   */\n      tag_483\n        /* \"#utility.yul\":9892:9899   */\n      dup7\n        /* \"#utility.yul\":9883:9889   */\n      dup3\n        /* \"#utility.yul\":9872:9881   */\n      dup8\n        /* \"#utility.yul\":9868:9890   */\n      add\n        /* \"#utility.yul\":9847:9900   */\n      tag_396\n      jump\t// in\n    tag_483:\n        /* \"#utility.yul\":9837:9900   */\n      swap2\n      pop\n        /* \"#utility.yul\":9792:9910   */\n      pop\n        /* \"#utility.yul\":9298:9917   */\n      swap3\n      pop\n      swap3\n      pop\n      swap3\n      jump\t// out\n        /* \"#utility.yul\":9923:10041   */\n    tag_484:\n        /* \"#utility.yul\":10010:10034   */\n      tag_486\n        /* \"#utility.yul\":10028:10033   */\n      dup2\n        /* \"#utility.yul\":10010:10034   */\n      tag_487\n      jump\t// in\n    tag_486:\n        /* \"#utility.yul\":10005:10008   */\n      dup3\n        /* \"#utility.yul\":9998:10035   */\n      mstore\n        /* \"#utility.yul\":9923:10041   */\n      pop\n      pop\n      jump\t// out\n        /* \"#utility.yul\":10047:10156   */\n    tag_488:\n        /* \"#utility.yul\":10128:10149   */\n      tag_490\n        /* \"#utility.yul\":10143:10148   */\n      dup2\n        /* \"#utility.yul\":10128:10149   */\n      tag_491\n      jump\t// in\n    tag_490:\n        /* \"#utility.yul\":10123:10126   */\n      dup3\n        /* \"#utility.yul\":10116:10150   */\n      mstore\n        /* \"#utility.yul\":10047:10156   */\n      pop\n      pop\n      jump\t// out\n        /* \"#utility.yul\":10162:10528   */\n    tag_492:\n        /* \"#utility.yul\":10304:10307   */\n      0x00\n        /* \"#utility.yul\":10325:10392   */\n      tag_494\n        /* \"#utility.yul\":10389:10391   */\n      0x18\n        /* \"#utility.yul\":10384:10387   */\n      dup4\n        /* \"#utility.yul\":10325:10392   */\n      tag_495\n      jump\t// in\n    tag_494:\n        /* \"#utility.yul\":10318:10392   */\n      swap2\n      pop\n        /* \"#utility.yul\":10401:10494   */\n      tag_496\n        /* \"#utility.yul\":10490:10493   */\n      dup3\n        /* \"#utility.yul\":10401:10494   */\n      tag_497\n      jump\t// in\n    tag_496:\n        /* \"#utility.yul\":10519:10521   */\n      0x20\n        /* \"#utility.yul\":10514:10517   */\n      dup3\n        /* \"#utility.yul\":10510:10522   */\n      add\n        /* \"#utility.yul\":10503:10522   */\n      swap1\n      pop\n        /* \"#utility.yul\":10162:10528   */\n      swap2\n      swap1\n      pop\n      jump\t// out\n        /* \"#utility.yul\":10534:10900   */\n    tag_498:\n        /* \"#utility.yul\":10676:10679   */\n      0x00\n        /* \"#utility.yul\":10697:10764   */\n      tag_500\n        /* \"#utility.yul\":10761:10763   */\n      0x1a\n        /* \"#utility.yul\":10756:10759   */\n      dup4\n        /* \"#utility.yul\":10697:10764   */\n      tag_495\n      jump\t// in\n    tag_500:\n        /* \"#utility.yul\":10690:10764   */\n      swap2\n      pop\n        /* \"#utility.yul\":10773:10866   */\n      tag_501\n        /* \"#utility.yul\":10862:10865   */\n      dup3\n        /* \"#utility.yul\":10773:10866   */\n      tag_502\n      jump\t// in\n    tag_501:\n        /* \"#utility.yul\":10891:10893   */\n      0x20\n        /* \"#utility.yul\":10886:10889   */\n      dup3\n        /* \"#utility.yul\":10882:10894   */\n      add\n        /* \"#utility.yul\":10875:10894   */\n      swap1\n      pop\n        /* \"#utility.yul\":10534:10900   */\n      swap2\n      swap1\n      pop\n      jump\t// out\n        /* \"#utility.yul\":10906:11272   */\n    tag_503:\n        /* \"#utility.yul\":11048:11051   */\n      0x00\n        /* \"#utility.yul\":11069:11136   */\n      tag_505\n        /* \"#utility.yul\":11133:11135   */\n      0x26\n        /* \"#utility.yul\":11128:11131   */\n      dup4\n        /* \"#utility.yul\":11069:11136   */\n      tag_495\n      jump\t// in\n    tag_505:\n        /* \"#utility.yul\":11062:11136   */\n      swap2\n      pop\n        /* \"#utility.yul\":11145:11238   */\n      tag_506\n        /* \"#utility.yul\":11234:11237   */\n      dup3\n        /* \"#utility.yul\":11145:11238   */\n      tag_507\n      jump\t// in\n    tag_506:\n        /* \"#utility.yul\":11263:11265   */\n      0x40\n        /* \"#utility.yul\":11258:11261   */\n      dup3\n        /* \"#utility.yul\":11254:11266   */\n      add\n        /* \"#utility.yul\":11247:11266   */\n      swap1\n      pop\n        /* \"#utility.yul\":10906:11272   */\n      swap2\n      swap1\n      pop\n      jump\t// out\n        /* \"#utility.yul\":11278:11644   */\n    tag_508:\n        /* \"#utility.yul\":11420:11423   */\n      0x00\n        /* \"#utility.yul\":11441:11508   */\n      tag_510\n        /* \"#utility.yul\":11505:11507   */\n      0x12\n        /* \"#utility.yul\":11500:11503   */\n      dup4\n        /* \"#utility.yul\":11441:11508   */\n      tag_495\n      jump\t// in\n    tag_510:\n        /* \"#utility.yul\":11434:11508   */\n      swap2\n      pop\n        /* \"#utility.yul\":11517:11610   */\n      tag_511\n        /* \"#utility.yul\":11606:11609   */\n      dup3\n        /* \"#utility.yul\":11517:11610   */\n      tag_512\n      jump\t// in\n    tag_511:\n        /* \"#utility.yul\":11635:11637   */\n      0x20\n        /* \"#utility.yul\":11630:11633   */\n      dup3\n        /* \"#utility.yul\":11626:11638   */\n      add\n        /* \"#utility.yul\":11619:11638   */\n      swap1\n      pop\n        /* \"#utility.yul\":11278:11644   */\n      swap2\n      swap1\n      pop\n      jump\t// out\n        /* \"#utility.yul\":11650:12016   */\n    tag_513:\n        /* \"#utility.yul\":11792:11795   */\n      0x00\n        /* \"#utility.yul\":11813:11880   */\n      tag_515\n        /* \"#utility.yul\":11877:11879   */\n      0x18\n        /* \"#utility.yul\":11872:11875   */\n      dup4\n        /* \"#utility.yul\":11813:11880   */\n      tag_495\n      jump\t// in\n    tag_515:\n        /* \"#utility.yul\":11806:11880   */\n      swap2\n      pop\n        /* \"#utility.yul\":11889:11982   */\n      tag_516\n        /* \"#utility.yul\":11978:11981   */\n      dup3\n        /* \"#utility.yul\":11889:11982   */\n      tag_517\n      jump\t// in\n    tag_516:\n        /* \"#utility.yul\":12007:12009   */\n      0x20\n        /* \"#utility.yul\":12002:12005   */\n      dup3\n        /* \"#utility.yul\":11998:12010   */\n      add\n        /* \"#utility.yul\":11991:12010   */\n      swap1\n      pop\n        /* \"#utility.yul\":11650:12016   */\n      swap2\n      swap1\n      pop\n      jump\t// out\n        /* \"#utility.yul\":12022:12388   */\n    tag_518:\n        /* \"#utility.yul\":12164:12167   */\n      0x00\n        /* \"#utility.yul\":12185:12252   */\n      tag_520\n        /* \"#utility.yul\":12249:12251   */\n      0x0d\n        /* \"#utility.yul\":12244:12247   */\n      dup4\n        /* \"#utility.yul\":12185:12252   */\n      tag_495\n      jump\t// in\n    tag_520:\n        /* \"#utility.yul\":12178:12252   */\n      swap2\n      pop\n        /* \"#utility.yul\":12261:12354   */\n      tag_521\n        /* \"#utility.yul\":12350:12353   */\n      dup3\n        /* \"#utility.yul\":12261:12354   */\n      tag_522\n      jump\t// in\n    tag_521:\n        /* \"#utility.yul\":12379:12381   */\n      0x20\n        /* \"#utility.yul\":12374:12377   */\n      dup3\n        /* \"#utility.yul\":12370:12382   */\n      add\n        /* \"#utility.yul\":12363:12382   */\n      swap1\n      pop\n        /* \"#utility.yul\":12022:12388   */\n      swap2\n      swap1\n      pop\n      jump\t// out\n        /* \"#utility.yul\":12394:12760   */\n    tag_523:\n        /* \"#utility.yul\":12536:12539   */\n      0x00\n        /* \"#utility.yul\":12557:12624   */\n      tag_525\n        /* \"#utility.yul\":12621:12623   */\n      0x20\n        /* \"#utility.yul\":12616:12619   */\n      dup4\n        /* \"#utility.yul\":12557:12624   */\n      tag_495\n      jump\t// in\n    tag_525:\n        /* \"#utility.yul\":12550:12624   */\n      swap2\n      pop\n        /* \"#utility.yul\":12633:12726   */\n      tag_526\n        /* \"#utility.yul\":12722:12725   */\n      dup3\n        /* \"#utility.yul\":12633:12726   */\n      tag_527\n      jump\t// in\n    tag_526:\n        /* \"#utility.yul\":12751:12753   */\n      0x20\n        /* \"#utility.yul\":12746:12749   */\n      dup3\n        /* \"#utility.yul\":12742:12754   */\n      add\n        /* \"#utility.yul\":12735:12754   */\n      swap1\n      pop\n        /* \"#utility.yul\":12394:12760   */\n      swap2\n      swap1\n      pop\n      jump\t// out\n        /* \"#utility.yul\":12766:13128   */\n    tag_528:\n        /* \"#utility.yul\":12907:12910   */\n      0x00\n        /* \"#utility.yul\":12928:12993   */\n      tag_530\n        /* \"#utility.yul\":12991:12992   */\n      0x00\n        /* \"#utility.yul\":12986:12989   */\n      dup4\n        /* \"#utility.yul\":12928:12993   */\n      tag_531\n      jump\t// in\n    tag_530:\n        /* \"#utility.yul\":12921:12993   */\n      swap2\n      pop\n        /* \"#utility.yul\":13002:13095   */\n      tag_532\n        /* \"#utility.yul\":13091:13094   */\n      dup3\n        /* \"#utility.yul\":13002:13095   */\n      tag_533\n      jump\t// in\n    tag_532:\n        /* \"#utility.yul\":13120:13121   */\n      0x00\n        /* \"#utility.yul\":13115:13118   */\n      dup3\n        /* \"#utility.yul\":13111:13122   */\n      add\n        /* \"#utility.yul\":13104:13122   */\n      swap1\n      pop\n        /* \"#utility.yul\":12766:13128   */\n      swap2\n      swap1\n      pop\n      jump\t// out\n        /* \"#utility.yul\":13134:13500   */\n    tag_534:\n        /* \"#utility.yul\":13276:13279   */\n      0x00\n        /* \"#utility.yul\":13297:13364   */\n      tag_536\n        /* \"#utility.yul\":13361:13363   */\n      0x19\n        /* \"#utility.yul\":13356:13359   */\n      dup4\n        /* \"#utility.yul\":13297:13364   */\n      tag_495\n      jump\t// in\n    tag_536:\n        /* \"#utility.yul\":13290:13364   */\n      swap2\n      pop\n        /* \"#utility.yul\":13373:13466   */\n      tag_537\n        /* \"#utility.yul\":13462:13465   */\n      dup3\n        /* \"#utility.yul\":13373:13466   */\n      tag_538\n      jump\t// in\n    tag_537:\n        /* \"#utility.yul\":13491:13493   */\n      0x20\n        /* \"#utility.yul\":13486:13489   */\n      dup3\n        /* \"#utility.yul\":13482:13494   */\n      add\n        /* \"#utility.yul\":13475:13494   */\n      swap1\n      pop\n        /* \"#utility.yul\":13134:13500   */\n      swap2\n      swap1\n      pop\n      jump\t// out\n        /* \"#utility.yul\":13506:13872   */\n    tag_539:\n        /* \"#utility.yul\":13648:13651   */\n      0x00\n        /* \"#utility.yul\":13669:13736   */\n      tag_541\n        /* \"#utility.yul\":13733:13735   */\n      0x14\n        /* \"#utility.yul\":13728:13731   */\n      dup4\n        /* \"#utility.yul\":13669:13736   */\n      tag_495\n      jump\t// in\n    tag_541:\n        /* \"#utility.yul\":13662:13736   */\n      swap2\n      pop\n        /* \"#utility.yul\":13745:13838   */\n      tag_542\n        /* \"#utility.yul\":13834:13837   */\n      dup3\n        /* \"#utility.yul\":13745:13838   */\n      tag_543\n      jump\t// in\n    tag_542:\n        /* \"#utility.yul\":13863:13865   */\n      0x20\n        /* \"#utility.yul\":13858:13861   */\n      dup3\n        /* \"#utility.yul\":13854:13866   */\n      add\n        /* \"#utility.yul\":13847:13866   */\n      swap1\n      pop\n        /* \"#utility.yul\":13506:13872   */\n      swap2\n      swap1\n      pop\n      jump\t// out\n        /* \"#utility.yul\":13878:13996   */\n    tag_544:\n        /* \"#utility.yul\":13965:13989   */\n      tag_546\n        /* \"#utility.yul\":13983:13988   */\n      dup2\n        /* \"#utility.yul\":13965:13989   */\n      tag_547\n      jump\t// in\n    tag_546:\n        /* \"#utility.yul\":13960:13963   */\n      dup3\n        /* \"#utility.yul\":13953:13990   */\n      mstore\n        /* \"#utility.yul\":13878:13996   */\n      pop\n      pop\n      jump\t// out\n        /* \"#utility.yul\":14002:14224   */\n    tag_39:\n        /* \"#utility.yul\":14095:14099   */\n      0x00\n        /* \"#utility.yul\":14133:14135   */\n      0x20\n        /* \"#utility.yul\":14122:14131   */\n      dup3\n        /* \"#utility.yul\":14118:14136   */\n      add\n        /* \"#utility.yul\":14110:14136   */\n      swap1\n      pop\n        /* \"#utility.yul\":14146:14217   */\n      tag_549\n        /* \"#utility.yul\":14214:14215   */\n      0x00\n        /* \"#utility.yul\":14203:14212   */\n      dup4\n        /* \"#utility.yul\":14199:14216   */\n      add\n        /* \"#utility.yul\":14190:14196   */\n      dup5\n        /* \"#utility.yul\":14146:14217   */\n      tag_484\n      jump\t// in\n    tag_549:\n        /* \"#utility.yul\":14002:14224   */\n      swap3\n      swap2\n      pop\n      pop\n      jump\t// out\n        /* \"#utility.yul\":14230:14562   */\n    tag_188:\n        /* \"#utility.yul\":14351:14355   */\n      0x00\n        /* \"#utility.yul\":14389:14391   */\n      0x40\n        /* \"#utility.yul\":14378:14387   */\n      dup3\n        /* \"#utility.yul\":14374:14392   */\n      add\n        /* \"#utility.yul\":14366:14392   */\n      swap1\n      pop\n        /* \"#utility.yul\":14402:14473   */\n      tag_551\n        /* \"#utility.yul\":14470:14471   */\n      0x00\n        /* \"#utility.yul\":14459:14468   */\n      dup4\n        /* \"#utility.yul\":14455:14472   */\n      add\n        /* \"#utility.yul\":14446:14452   */\n      dup6\n        /* \"#utility.yul\":14402:14473   */\n      tag_484\n      jump\t// in\n    tag_551:\n        /* \"#utility.yul\":14483:14555   */\n      tag_552\n        /* \"#utility.yul\":14551:14553   */\n      0x20\n        /* \"#utility.yul\":14540:14549   */\n      dup4\n        /* \"#utility.yul\":14536:14554   */\n      add\n        /* \"#utility.yul\":14527:14533   */\n      dup5\n        /* \"#utility.yul\":14483:14555   */\n      tag_484\n      jump\t// in\n    tag_552:\n        /* \"#utility.yul\":14230:14562   */\n      swap4\n      swap3\n      pop\n      pop\n      pop\n      jump\t// out\n        /* \"#utility.yul\":14568:15010   */\n    tag_123:\n        /* \"#utility.yul\":14717:14721   */\n      0x00\n        /* \"#utility.yul\":14755:14757   */\n      0x60\n        /* \"#utility.yul\":14744:14753   */\n      dup3\n        /* \"#utility.yul\":14740:14758   */\n      add\n        /* \"#utility.yul\":14732:14758   */\n      swap1\n      pop\n        /* \"#utility.yul\":14768:14839   */\n      tag_554\n        /* \"#utility.yul\":14836:14837   */\n      0x00\n        /* \"#utility.yul\":14825:14834   */\n      dup4\n        /* \"#utility.yul\":14821:14838   */\n      add\n        /* \"#utility.yul\":14812:14818   */\n      dup7\n        /* \"#utility.yul\":14768:14839   */\n      tag_484\n      jump\t// in\n    tag_554:\n        /* \"#utility.yul\":14849:14921   */\n      tag_555\n        /* \"#utility.yul\":14917:14919   */\n      0x20\n        /* \"#utility.yul\":14906:14915   */\n      dup4\n        /* \"#utility.yul\":14902:14920   */\n      add\n        /* \"#utility.yul\":14893:14899   */\n      dup6\n        /* \"#utility.yul\":14849:14921   */\n      tag_484\n      jump\t// in\n    tag_555:\n        /* \"#utility.yul\":14931:15003   */\n      tag_556\n        /* \"#utility.yul\":14999:15001   */\n      0x40\n        /* \"#utility.yul\":14988:14997   */\n      dup4\n        /* \"#utility.yul\":14984:15002   */\n      add\n        /* \"#utility.yul\":14975:14981   */\n      dup5\n        /* \"#utility.yul\":14931:15003   */\n      tag_544\n      jump\t// in\n    tag_556:\n        /* \"#utility.yul\":14568:15010   */\n      swap5\n      swap4\n      pop\n      pop\n      pop\n      pop\n      jump\t// out\n        /* \"#utility.yul\":15016:15764   */\n    tag_154:\n        /* \"#utility.yul\":15265:15269   */\n      0x00\n        /* \"#utility.yul\":15303:15306   */\n      0x80\n        /* \"#utility.yul\":15292:15301   */\n      dup3\n        /* \"#utility.yul\":15288:15307   */\n      add\n        /* \"#utility.yul\":15280:15307   */\n      swap1\n      pop\n        /* \"#utility.yul\":15317:15388   */\n      tag_558\n        /* \"#utility.yul\":15385:15386   */\n      0x00\n        /* \"#utility.yul\":15374:15383   */\n      dup4\n        /* \"#utility.yul\":15370:15387   */\n      add\n        /* \"#utility.yul\":15361:15367   */\n      dup7\n        /* \"#utility.yul\":15317:15388   */\n      tag_484\n      jump\t// in\n    tag_558:\n        /* \"#utility.yul\":15398:15470   */\n      tag_559\n        /* \"#utility.yul\":15466:15468   */\n      0x20\n        /* \"#utility.yul\":15455:15464   */\n      dup4\n        /* \"#utility.yul\":15451:15469   */\n      add\n        /* \"#utility.yul\":15442:15448   */\n      dup6\n        /* \"#utility.yul\":15398:15470   */\n      tag_484\n      jump\t// in\n    tag_559:\n        /* \"#utility.yul\":15480:15552   */\n      tag_560\n        /* \"#utility.yul\":15548:15550   */\n      0x40\n        /* \"#utility.yul\":15537:15546   */\n      dup4\n        /* \"#utility.yul\":15533:15551   */\n      add\n        /* \"#utility.yul\":15524:15530   */\n      dup5\n        /* \"#utility.yul\":15480:15552   */\n      tag_544\n      jump\t// in\n    tag_560:\n        /* \"#utility.yul\":15599:15608   */\n      dup2\n        /* \"#utility.yul\":15593:15597   */\n      dup2\n        /* \"#utility.yul\":15589:15609   */\n      sub\n        /* \"#utility.yul\":15584:15586   */\n      0x60\n        /* \"#utility.yul\":15573:15582   */\n      dup4\n        /* \"#utility.yul\":15569:15587   */\n      add\n        /* \"#utility.yul\":15562:15610   */\n      mstore\n        /* \"#utility.yul\":15627:15757   */\n      tag_561\n        /* \"#utility.yul\":15752:15756   */\n      dup2\n        /* \"#utility.yul\":15627:15757   */\n      tag_528\n      jump\t// in\n    tag_561:\n        /* \"#utility.yul\":15619:15757   */\n      swap1\n      pop\n        /* \"#utility.yul\":15016:15764   */\n      swap5\n      swap4\n      pop\n      pop\n      pop\n      pop\n      jump\t// out\n        /* \"#utility.yul\":15770:15980   */\n    tag_33:\n        /* \"#utility.yul\":15857:15861   */\n      0x00\n        /* \"#utility.yul\":15895:15897   */\n      0x20\n        /* \"#utility.yul\":15884:15893   */\n      dup3\n        /* \"#utility.yul\":15880:15898   */\n      add\n        /* \"#utility.yul\":15872:15898   */\n      swap1\n      pop\n        /* \"#utility.yul\":15908:15973   */\n      tag_563\n        /* \"#utility.yul\":15970:15971   */\n      0x00\n        /* \"#utility.yul\":15959:15968   */\n      dup4\n        /* \"#utility.yul\":15955:15972   */\n      add\n        /* \"#utility.yul\":15946:15952   */\n      dup5\n        /* \"#utility.yul\":15908:15973   */\n      tag_488\n      jump\t// in\n    tag_563:\n        /* \"#utility.yul\":15770:15980   */\n      swap3\n      swap2\n      pop\n      pop\n      jump\t// out\n        /* \"#utility.yul\":15986:16405   */\n    tag_287:\n        /* \"#utility.yul\":16152:16156   */\n      0x00\n        /* \"#utility.yul\":16190:16192   */\n      0x20\n        /* \"#utility.yul\":16179:16188   */\n      dup3\n        /* \"#utility.yul\":16175:16193   */\n      add\n        /* \"#utility.yul\":16167:16193   */\n      swap1\n      pop\n        /* \"#utility.yul\":16239:16248   */\n      dup2\n        /* \"#utility.yul\":16233:16237   */\n      dup2\n        /* \"#utility.yul\":16229:16249   */\n      sub\n        /* \"#utility.yul\":16225:16226   */\n      0x00\n        /* \"#utility.yul\":16214:16223   */\n      dup4\n        /* \"#utility.yul\":16210:16227   */\n      add\n        /* \"#utility.yul\":16203:16250   */\n      mstore\n        /* \"#utility.yul\":16267:16398   */\n      tag_565\n        /* \"#utility.yul\":16393:16397   */\n      dup2\n        /* \"#utility.yul\":16267:16398   */\n      tag_492\n      jump\t// in\n    tag_565:\n        /* \"#utility.yul\":16259:16398   */\n      swap1\n      pop\n        /* \"#utility.yul\":15986:16405   */\n      swap2\n      swap1\n      pop\n      jump\t// out\n        /* \"#utility.yul\":16411:16830   */\n    tag_195:\n        /* \"#utility.yul\":16577:16581   */\n      0x00\n        /* \"#utility.yul\":16615:16617   */\n      0x20\n        /* \"#utility.yul\":16604:16613   */\n      dup3\n        /* \"#utility.yul\":16600:16618   */\n      add\n        /* \"#utility.yul\":16592:16618   */\n      swap1\n      pop\n        /* \"#utility.yul\":16664:16673   */\n      dup2\n        /* \"#utility.yul\":16658:16662   */\n      dup2\n        /* \"#utility.yul\":16654:16674   */\n      sub\n        /* \"#utility.yul\":16650:16651   */\n      0x00\n        /* \"#utility.yul\":16639:16648   */\n      dup4\n        /* \"#utility.yul\":16635:16652   */\n      add\n        /* \"#utility.yul\":16628:16675   */\n      mstore\n        /* \"#utility.yul\":16692:16823   */\n      tag_567\n        /* \"#utility.yul\":16818:16822   */\n      dup2\n        /* \"#utility.yul\":16692:16823   */\n      tag_498\n      jump\t// in\n    tag_567:\n        /* \"#utility.yul\":16684:16823   */\n      swap1\n      pop\n        /* \"#utility.yul\":16411:16830   */\n      swap2\n      swap1\n      pop\n      jump\t// out\n        /* \"#utility.yul\":16836:17255   */\n    tag_369:\n        /* \"#utility.yul\":17002:17006   */\n      0x00\n        /* \"#utility.yul\":17040:17042   */\n      0x20\n        /* \"#utility.yul\":17029:17038   */\n      dup3\n        /* \"#utility.yul\":17025:17043   */\n      add\n        /* \"#utility.yul\":17017:17043   */\n      swap1\n      pop\n        /* \"#utility.yul\":17089:17098   */\n      dup2\n        /* \"#utility.yul\":17083:17087   */\n      dup2\n        /* \"#utility.yul\":17079:17099   */\n      sub\n        /* \"#utility.yul\":17075:17076   */\n      0x00\n        /* \"#utility.yul\":17064:17073   */\n      dup4\n        /* \"#utility.yul\":17060:17077   */\n      add\n        /* \"#utility.yul\":17053:17100   */\n      mstore\n        /* \"#utility.yul\":17117:17248   */\n      tag_569\n        /* \"#utility.yul\":17243:17247   */\n      dup2\n        /* \"#utility.yul\":17117:17248   */\n      tag_503\n      jump\t// in\n    tag_569:\n        /* \"#utility.yul\":17109:17248   */\n      swap1\n      pop\n        /* \"#utility.yul\":16836:17255   */\n      swap2\n      swap1\n      pop\n      jump\t// out\n        /* \"#utility.yul\":17261:17680   */\n    tag_108:\n        /* \"#utility.yul\":17427:17431   */\n      0x00\n        /* \"#utility.yul\":17465:17467   */\n      0x20\n        /* \"#utility.yul\":17454:17463   */\n      dup3\n        /* \"#utility.yul\":17450:17468   */\n      add\n        /* \"#utility.yul\":17442:17468   */\n      swap1\n      pop\n        /* \"#utility.yul\":17514:17523   */\n      dup2\n        /* \"#utility.yul\":17508:17512   */\n      dup2\n        /* \"#utility.yul\":17504:17524   */\n      sub\n        /* \"#utility.yul\":17500:17501   */\n      0x00\n        /* \"#utility.yul\":17489:17498   */\n      dup4\n        /* \"#utility.yul\":17485:17502   */\n      add\n        /* \"#utility.yul\":17478:17525   */\n      mstore\n        /* \"#utility.yul\":17542:17673   */\n      tag_571\n        /* \"#utility.yul\":17668:17672   */\n      dup2\n        /* \"#utility.yul\":17542:17673   */\n      tag_508\n      jump\t// in\n    tag_571:\n        /* \"#utility.yul\":17534:17673   */\n      swap1\n      pop\n        /* \"#utility.yul\":17261:17680   */\n      swap2\n      swap1\n      pop\n      jump\t// out\n        /* \"#utility.yul\":17686:18105   */\n    tag_117:\n        /* \"#utility.yul\":17852:17856   */\n      0x00\n        /* \"#utility.yul\":17890:17892   */\n      0x20\n        /* \"#utility.yul\":17879:17888   */\n      dup3\n        /* \"#utility.yul\":17875:17893   */\n      add\n        /* \"#utility.yul\":17867:17893   */\n      swap1\n      pop\n        /* \"#utility.yul\":17939:17948   */\n      dup2\n        /* \"#utility.yul\":17933:17937   */\n      dup2\n        /* \"#utility.yul\":17929:17949   */\n      sub\n        /* \"#utility.yul\":17925:17926   */\n      0x00\n        /* \"#utility.yul\":17914:17923   */\n      dup4\n        /* \"#utility.yul\":17910:17927   */\n      add\n        /* \"#utility.yul\":17903:17950   */\n      mstore\n        /* \"#utility.yul\":17967:18098   */\n      tag_573\n        /* \"#utility.yul\":18093:18097   */\n      dup2\n        /* \"#utility.yul\":17967:18098   */\n      tag_513\n      jump\t// in\n    tag_573:\n        /* \"#utility.yul\":17959:18098   */\n      swap1\n      pop\n        /* \"#utility.yul\":17686:18105   */\n      swap2\n      swap1\n      pop\n      jump\t// out\n        /* \"#utility.yul\":18111:18530   */\n    tag_284:\n        /* \"#utility.yul\":18277:18281   */\n      0x00\n        /* \"#utility.yul\":18315:18317   */\n      0x20\n        /* \"#utility.yul\":18304:18313   */\n      dup3\n        /* \"#utility.yul\":18300:18318   */\n      add\n        /* \"#utility.yul\":18292:18318   */\n      swap1\n      pop\n        /* \"#utility.yul\":18364:18373   */\n      dup2\n        /* \"#utility.yul\":18358:18362   */\n      dup2\n        /* \"#utility.yul\":18354:18374   */\n      sub\n        /* \"#utility.yul\":18350:18351   */\n      0x00\n        /* \"#utility.yul\":18339:18348   */\n      dup4\n        /* \"#utility.yul\":18335:18352   */\n      add\n        /* \"#utility.yul\":18328:18375   */\n      mstore\n        /* \"#utility.yul\":18392:18523   */\n      tag_575\n        /* \"#utility.yul\":18518:18522   */\n      dup2\n        /* \"#utility.yul\":18392:18523   */\n      tag_518\n      jump\t// in\n    tag_575:\n        /* \"#utility.yul\":18384:18523   */\n      swap1\n      pop\n        /* \"#utility.yul\":18111:18530   */\n      swap2\n      swap1\n      pop\n      jump\t// out\n        /* \"#utility.yul\":18536:18955   */\n    tag_173:\n        /* \"#utility.yul\":18702:18706   */\n      0x00\n        /* \"#utility.yul\":18740:18742   */\n      0x20\n        /* \"#utility.yul\":18729:18738   */\n      dup3\n        /* \"#utility.yul\":18725:18743   */\n      add\n        /* \"#utility.yul\":18717:18743   */\n      swap1\n      pop\n        /* \"#utility.yul\":18789:18798   */\n      dup2\n        /* \"#utility.yul\":18783:18787   */\n      dup2\n        /* \"#utility.yul\":18779:18799   */\n      sub\n        /* \"#utility.yul\":18775:18776   */\n      0x00\n        /* \"#utility.yul\":18764:18773   */\n      dup4\n        /* \"#utility.yul\":18760:18777   */\n      add\n        /* \"#utility.yul\":18753:18800   */\n      mstore\n        /* \"#utility.yul\":18817:18948   */\n      tag_577\n        /* \"#utility.yul\":18943:18947   */\n      dup2\n        /* \"#utility.yul\":18817:18948   */\n      tag_523\n      jump\t// in\n    tag_577:\n        /* \"#utility.yul\":18809:18948   */\n      swap1\n      pop\n        /* \"#utility.yul\":18536:18955   */\n      swap2\n      swap1\n      pop\n      jump\t// out\n        /* \"#utility.yul\":18961:19380   */\n    tag_105:\n        /* \"#utility.yul\":19127:19131   */\n      0x00\n        /* \"#utility.yul\":19165:19167   */\n      0x20\n        /* \"#utility.yul\":19154:19163   */\n      dup3\n        /* \"#utility.yul\":19150:19168   */\n      add\n        /* \"#utility.yul\":19142:19168   */\n      swap1\n      pop\n        /* \"#utility.yul\":19214:19223   */\n      dup2\n        /* \"#utility.yul\":19208:19212   */\n      dup2\n        /* \"#utility.yul\":19204:19224   */\n      sub\n        /* \"#utility.yul\":19200:19201   */\n      0x00\n        /* \"#utility.yul\":19189:19198   */\n      dup4\n        /* \"#utility.yul\":19185:19202   */\n      add\n        /* \"#utility.yul\":19178:19225   */\n      mstore\n        /* \"#utility.yul\":19242:19373   */\n      tag_579\n        /* \"#utility.yul\":19368:19372   */\n      dup2\n        /* \"#utility.yul\":19242:19373   */\n      tag_534\n      jump\t// in\n    tag_579:\n        /* \"#utility.yul\":19234:19373   */\n      swap1\n      pop\n        /* \"#utility.yul\":18961:19380   */\n      swap2\n      swap1\n      pop\n      jump\t// out\n        /* \"#utility.yul\":19386:19805   */\n    tag_186:\n        /* \"#utility.yul\":19552:19556   */\n      0x00\n        /* \"#utility.yul\":19590:19592   */\n      0x20\n        /* \"#utility.yul\":19579:19588   */\n      dup3\n        /* \"#utility.yul\":19575:19593   */\n      add\n        /* \"#utility.yul\":19567:19593   */\n      swap1\n      pop\n        /* \"#utility.yul\":19639:19648   */\n      dup2\n        /* \"#utility.yul\":19633:19637   */\n      dup2\n        /* \"#utility.yul\":19629:19649   */\n      sub\n        /* \"#utility.yul\":19625:19626   */\n      0x00\n        /* \"#utility.yul\":19614:19623   */\n      dup4\n        /* \"#utility.yul\":19610:19627   */\n      add\n        /* \"#utility.yul\":19603:19650   */\n      mstore\n        /* \"#utility.yul\":19667:19798   */\n      tag_581\n        /* \"#utility.yul\":19793:19797   */\n      dup2\n        /* \"#utility.yul\":19667:19798   */\n      tag_539\n      jump\t// in\n    tag_581:\n        /* \"#utility.yul\":19659:19798   */\n      swap1\n      pop\n        /* \"#utility.yul\":19386:19805   */\n      swap2\n      swap1\n      pop\n      jump\t// out\n        /* \"#utility.yul\":19811:20033   */\n    tag_60:\n        /* \"#utility.yul\":19904:19908   */\n      0x00\n        /* \"#utility.yul\":19942:19944   */\n      0x20\n        /* \"#utility.yul\":19931:19940   */\n      dup3\n        /* \"#utility.yul\":19927:19945   */\n      add\n        /* \"#utility.yul\":19919:19945   */\n      swap1\n      pop\n        /* \"#utility.yul\":19955:20026   */\n      tag_583\n        /* \"#utility.yul\":20023:20024   */\n      0x00\n        /* \"#utility.yul\":20012:20021   */\n      dup4\n        /* \"#utility.yul\":20008:20025   */\n      add\n        /* \"#utility.yul\":19999:20005   */\n      dup5\n        /* \"#utility.yul\":19955:20026   */\n      tag_544\n      jump\t// in\n    tag_583:\n        /* \"#utility.yul\":19811:20033   */\n      swap3\n      swap2\n      pop\n      pop\n      jump\t// out\n        /* \"#utility.yul\":20039:20802   */\n    tag_27:\n        /* \"#utility.yul\":20266:20270   */\n      0x00\n        /* \"#utility.yul\":20304:20307   */\n      0xc0\n        /* \"#utility.yul\":20293:20302   */\n      dup3\n        /* \"#utility.yul\":20289:20308   */\n      add\n        /* \"#utility.yul\":20281:20308   */\n      swap1\n      pop\n        /* \"#utility.yul\":20318:20389   */\n      tag_585\n        /* \"#utility.yul\":20386:20387   */\n      0x00\n        /* \"#utility.yul\":20375:20384   */\n      dup4\n        /* \"#utility.yul\":20371:20388   */\n      add\n        /* \"#utility.yul\":20362:20368   */\n      dup10\n        /* \"#utility.yul\":20318:20389   */\n      tag_544\n      jump\t// in\n    tag_585:\n        /* \"#utility.yul\":20399:20471   */\n      tag_586\n        /* \"#utility.yul\":20467:20469   */\n      0x20\n        /* \"#utility.yul\":20456:20465   */\n      dup4\n        /* \"#utility.yul\":20452:20470   */\n      add\n        /* \"#utility.yul\":20443:20449   */\n      dup9\n        /* \"#utility.yul\":20399:20471   */\n      tag_484\n      jump\t// in\n    tag_586:\n        /* \"#utility.yul\":20481:20553   */\n      tag_587\n        /* \"#utility.yul\":20549:20551   */\n      0x40\n        /* \"#utility.yul\":20538:20547   */\n      dup4\n        /* \"#utility.yul\":20534:20552   */\n      add\n        /* \"#utility.yul\":20525:20531   */\n      dup8\n        /* \"#utility.yul\":20481:20553   */\n      tag_484\n      jump\t// in\n    tag_587:\n        /* \"#utility.yul\":20563:20629   */\n      tag_588\n        /* \"#utility.yul\":20625:20627   */\n      0x60\n        /* \"#utility.yul\":20614:20623   */\n      dup4\n        /* \"#utility.yul\":20610:20628   */\n      add\n        /* \"#utility.yul\":20601:20607   */\n      dup7\n        /* \"#utility.yul\":20563:20629   */\n      tag_488\n      jump\t// in\n    tag_588:\n        /* \"#utility.yul\":20639:20712   */\n      tag_589\n        /* \"#utility.yul\":20707:20710   */\n      0x80\n        /* \"#utility.yul\":20696:20705   */\n      dup4\n        /* \"#utility.yul\":20692:20711   */\n      add\n        /* \"#utility.yul\":20683:20689   */\n      dup6\n        /* \"#utility.yul\":20639:20712   */\n      tag_544\n      jump\t// in\n    tag_589:\n        /* \"#utility.yul\":20722:20795   */\n      tag_590\n        /* \"#utility.yul\":20790:20793   */\n      0xa0\n        /* \"#utility.yul\":20779:20788   */\n      dup4\n        /* \"#utility.yul\":20775:20794   */\n      add\n        /* \"#utility.yul\":20766:20772   */\n      dup5\n        /* \"#utility.yul\":20722:20795   */\n      tag_544\n      jump\t// in\n    tag_590:\n        /* \"#utility.yul\":20039:20802   */\n      swap8\n      swap7\n      pop\n      pop\n      pop\n      pop\n      pop\n      pop\n      pop\n      jump\t// out\n        /* \"#utility.yul\":20889:21057   */\n    tag_531:\n        /* \"#utility.yul\":20972:20983   */\n      0x00\n        /* \"#utility.yul\":21006:21012   */\n      dup3\n        /* \"#utility.yul\":21001:21004   */\n      dup3\n        /* \"#utility.yul\":20994:21013   */\n      mstore\n        /* \"#utility.yul\":21046:21050   */\n      0x20\n        /* \"#utility.yul\":21041:21044   */\n      dup3\n        /* \"#utility.yul\":21037:21051   */\n      add\n        /* \"#utility.yul\":21022:21051   */\n      swap1\n      pop\n        /* \"#utility.yul\":20889:21057   */\n      swap3\n      swap2\n      pop\n      pop\n      jump\t// out\n        /* \"#utility.yul\":21063:21232   */\n    tag_495:\n        /* \"#utility.yul\":21147:21158   */\n      0x00\n        /* \"#utility.yul\":21181:21187   */\n      dup3\n        /* \"#utility.yul\":21176:21179   */\n      dup3\n        /* \"#utility.yul\":21169:21188   */\n      mstore\n        /* \"#utility.yul\":21221:21225   */\n      0x20\n        /* \"#utility.yul\":21216:21219   */\n      dup3\n        /* \"#utility.yul\":21212:21226   */\n      add\n        /* \"#utility.yul\":21197:21226   */\n      swap1\n      pop\n        /* \"#utility.yul\":21063:21232   */\n      swap3\n      swap2\n      pop\n      pop\n      jump\t// out\n        /* \"#utility.yul\":21238:21543   */\n    tag_160:\n        /* \"#utility.yul\":21278:21281   */\n      0x00\n        /* \"#utility.yul\":21297:21317   */\n      tag_596\n        /* \"#utility.yul\":21315:21316   */\n      dup3\n        /* \"#utility.yul\":21297:21317   */\n      tag_547\n      jump\t// in\n    tag_596:\n        /* \"#utility.yul\":21292:21317   */\n      swap2\n      pop\n        /* \"#utility.yul\":21331:21351   */\n      tag_597\n        /* \"#utility.yul\":21349:21350   */\n      dup4\n        /* \"#utility.yul\":21331:21351   */\n      tag_547\n      jump\t// in\n    tag_597:\n        /* \"#utility.yul\":21326:21351   */\n      swap3\n      pop\n        /* \"#utility.yul\":21485:21486   */\n      dup3\n        /* \"#utility.yul\":21417:21483   */\n      0xffffffffffffffffffffffffffffffffffffffffffffffffffffffffffffffff\n        /* \"#utility.yul\":21413:21487   */\n      sub\n        /* \"#utility.yul\":21410:21411   */\n      dup3\n        /* \"#utility.yul\":21407:21488   */\n      gt\n        /* \"#utility.yul\":21404:21511   */\n      iszero\n      tag_598\n      jumpi\n        /* \"#utility.yul\":21491:21509   */\n      tag_599\n      tag_600\n      jump\t// in\n    tag_599:\n        /* \"#utility.yul\":21404:21511   */\n    tag_598:\n        /* \"#utility.yul\":21535:21536   */\n      dup3\n        /* \"#utility.yul\":21532:21533   */\n      dup3\n        /* \"#utility.yul\":21528:21537   */\n      add\n        /* \"#utility.yul\":21521:21537   */\n      swap1\n      pop\n        /* \"#utility.yul\":21238:21543   */\n      swap3\n      swap2\n      pop\n      pop\n      jump\t// out\n        /* \"#utility.yul\":21549:21734   */\n    tag_119:\n        /* \"#utility.yul\":21589:21590   */\n      0x00\n        /* \"#utility.yul\":21606:21626   */\n      tag_602\n        /* \"#utility.yul\":21624:21625   */\n      dup3\n        /* \"#utility.yul\":21606:21626   */\n      tag_547\n      jump\t// in\n    tag_602:\n        /* \"#utility.yul\":21601:21626   */\n      swap2\n      pop\n        /* \"#utility.yul\":21640:21660   */\n      tag_603\n        /* \"#utility.yul\":21658:21659   */\n      dup4\n        /* \"#utility.yul\":21640:21660   */\n      tag_547\n      jump\t// in\n    tag_603:\n        /* \"#utility.yul\":21635:21660   */\n      swap3\n      pop\n        /* \"#utility.yul\":21679:21680   */\n      dup3\n        /* \"#utility.yul\":21669:21704   */\n      tag_604\n      jumpi\n        /* \"#utility.yul\":21684:21702   */\n      tag_605\n      tag_606\n      jump\t// in\n    tag_605:\n        /* \"#utility.yul\":21669:21704   */\n    tag_604:\n        /* \"#utility.yul\":21726:21727   */\n      dup3\n        /* \"#utility.yul\":21723:21724   */\n      dup3\n        /* \"#utility.yul\":21719:21728   */\n      div\n        /* \"#utility.yul\":21714:21728   */\n      swap1\n      pop\n        /* \"#utility.yul\":21549:21734   */\n      swap3\n      swap2\n      pop\n      pop\n      jump\t// out\n        /* \"#utility.yul\":21740:21931   */\n    tag_121:\n        /* \"#utility.yul\":21780:21784   */\n      0x00\n        /* \"#utility.yul\":21800:21820   */\n      tag_608\n        /* \"#utility.yul\":21818:21819   */\n      dup3\n        /* \"#utility.yul\":21800:21820   */\n      tag_547\n      jump\t// in\n    tag_608:\n        /* \"#utility.yul\":21795:21820   */\n      swap2\n      pop\n        /* \"#utility.yul\":21834:21854   */\n      tag_609\n        /* \"#utility.yul\":21852:21853   */\n      dup4\n        /* \"#utility.yul\":21834:21854   */\n      tag_547\n      jump\t// in\n    tag_609:\n        /* \"#utility.yul\":21829:21854   */\n      swap3\n      pop\n        /* \"#utility.yul\":21873:21874   */\n      dup3\n        /* \"#utility.yul\":21870:21871   */\n      dup3\n        /* \"#utility.yul\":21867:21875   */\n      lt\n        /* \"#utility.yul\":21864:21898   */\n      iszero\n      tag_610\n      jumpi\n        /* \"#utility.yul\":21878:21896   */\n      tag_611\n      tag_600\n      jump\t// in\n    tag_611:\n        /* \"#utility.yul\":21864:21898   */\n    tag_610:\n        /* \"#utility.yul\":21923:21924   */\n      dup3\n        /* \"#utility.yul\":21920:21921   */\n      dup3\n        /* \"#utility.yul\":21916:21925   */\n      sub\n        /* \"#utility.yul\":21908:21925   */\n      swap1\n      pop\n        /* \"#utility.yul\":21740:21931   */\n      swap3\n      swap2\n      pop\n      pop\n      jump\t// out\n        /* \"#utility.yul\":21937:22033   */\n    tag_487:\n        /* \"#utility.yul\":21974:21981   */\n      0x00\n        /* \"#utility.yul\":22003:22027   */\n      tag_613\n        /* \"#utility.yul\":22021:22026   */\n      dup3\n        /* \"#utility.yul\":22003:22027   */\n      tag_614\n      jump\t// in\n    tag_613:\n        /* \"#utility.yul\":21992:22027   */\n      swap1\n      pop\n        /* \"#utility.yul\":21937:22033   */\n      swap2\n      swap1\n      pop\n      jump\t// out\n        /* \"#utility.yul\":22039:22129   */\n    tag_491:\n        /* \"#utility.yul\":22073:22080   */\n      0x00\n        /* \"#utility.yul\":22116:22121   */\n      dup2\n        /* \"#utility.yul\":22109:22122   */\n      iszero\n        /* \"#utility.yul\":22102:22123   */\n      iszero\n        /* \"#utility.yul\":22091:22123   */\n      swap1\n      pop\n        /* \"#utility.yul\":22039:22129   */\n      swap2\n      swap1\n      pop\n      jump\t// out\n        /* \"#utility.yul\":22135:22261   */\n    tag_614:\n        /* \"#utility.yul\":22172:22179   */\n      0x00\n        /* \"#utility.yul\":22212:22254   */\n      0xffffffffffffffffffffffffffffffffffffffff\n        /* \"#utility.yul\":22205:22210   */\n      dup3\n        /* \"#utility.yul\":22201:22255   */\n      and\n        /* \"#utility.yul\":22190:22255   */\n      swap1\n      pop\n        /* \"#utility.yul\":22135:22261   */\n      swap2\n      swap1\n      pop\n      jump\t// out\n        /* \"#utility.yul\":22267:22344   */\n    tag_547:\n        /* \"#utility.yul\":22304:22311   */\n      0x00\n        /* \"#utility.yul\":22333:22338   */\n      dup2\n        /* \"#utility.yul\":22322:22338   */\n      swap1\n      pop\n        /* \"#utility.yul\":22267:22344   */\n      swap2\n      swap1\n      pop\n      jump\t// out\n        /* \"#utility.yul\":22350:22583   */\n    tag_152:\n        /* \"#utility.yul\":22389:22392   */\n      0x00\n        /* \"#utility.yul\":22412:22436   */\n      tag_619\n        /* \"#utility.yul\":22430:22435   */\n      dup3\n        /* \"#utility.yul\":22412:22436   */\n      tag_547\n      jump\t// in\n    tag_619:\n        /* \"#utility.yul\":22403:22436   */\n      swap2\n      pop\n        /* \"#utility.yul\":22458:22524   */\n      0xffffffffffffffffffffffffffffffffffffffffffffffffffffffffffffffff\n        /* \"#utility.yul\":22451:22456   */\n      dup3\n        /* \"#utility.yul\":22448:22525   */\n      eq\n        /* \"#utility.yul\":22445:22548   */\n      iszero\n      tag_620\n      jumpi\n        /* \"#utility.yul\":22528:22546   */\n      tag_621\n      tag_600\n      jump\t// in\n    tag_621:\n        /* \"#utility.yul\":22445:22548   */\n    tag_620:\n        /* \"#utility.yul\":22575:22576   */\n      0x01\n        /* \"#utility.yul\":22568:22573   */\n      dup3\n        /* \"#utility.yul\":22564:22577   */\n      add\n        /* \"#utility.yul\":22557:22577   */\n      swap1\n      pop\n        /* \"#utility.yul\":22350:22583   */\n      swap2\n      swap1\n      pop\n      jump\t// out\n        /* \"#utility.yul\":22589:22769   */\n    tag_600:\n        /* \"#utility.yul\":22637:22714   */\n      0x4e487b7100000000000000000000000000000000000000000000000000000000\n        /* \"#utility.yul\":22634:22635   */\n      0x00\n        /* \"#utility.yul\":22627:22715   */\n      mstore\n        /* \"#utility.yul\":22734:22738   */\n      0x11\n        /* \"#utility.yul\":22731:22732   */\n      0x04\n        /* \"#utility.yul\":22724:22739   */\n      mstore\n        /* \"#utility.yul\":22758:22762   */\n      0x24\n        /* \"#utility.yul\":22755:22756   */\n      0x00\n        /* \"#utility.yul\":22748:22763   */\n      revert\n        /* \"#utility.yul\":22775:22955   */\n    tag_606:\n        /* \"#utility.yul\":22823:22900   */\n      0x4e487b7100000000000000000000000000000000000000000000000000000000\n        /* \"#utility.yul\":22820:22821   */\n      0x00\n        /* \"#utility.yul\":22813:22901   */\n      mstore\n        /* \"#utility.yul\":22920:22924   */\n      0x12\n        /* \"#utility.yul\":22917:22918   */\n      0x04\n        /* \"#utility.yul\":22910:22925   */\n      mstore\n        /* \"#utility.yul\":22944:22948   */\n      0x24\n        /* \"#utility.yul\":22941:22942   */\n      0x00\n        /* \"#utility.yul\":22934:22949   */\n      revert\n        /* \"#utility.yul\":22961:23141   */\n    tag_238:\n        /* \"#utility.yul\":23009:23086   */\n      0x4e487b7100000000000000000000000000000000000000000000000000000000\n        /* \"#utility.yul\":23006:23007   */\n      0x00\n        /* \"#utility.yul\":22999:23087   */\n      mstore\n        /* \"#utility.yul\":23106:23110   */\n      0x32\n        /* \"#utility.yul\":23103:23104   */\n      0x04\n        /* \"#utility.yul\":23096:23111   */\n      mstore\n        /* \"#utility.yul\":23130:23134   */\n      0x24\n        /* \"#utility.yul\":23127:23128   */\n      0x00\n        /* \"#utility.yul\":23120:23135   */\n      revert\n        /* \"#utility.yul\":23147:23264   */\n    tag_388:\n        /* \"#utility.yul\":23256:23257   */\n      0x00\n        /* \"#utility.yul\":23253:23254   */\n      dup1\n        /* \"#utility.yul\":23246:23258   */\n      revert\n        /* \"#utility.yul\":23270:23387   */\n    tag_385:\n        /* \"#utility.yul\":23379:23380   */\n      0x00\n        /* \"#utility.yul\":23376:23377   */\n      dup1\n        /* \"#utility.yul\":23369:23381   */\n      revert\n        /* \"#utility.yul\":23393:23510   */\n    tag_391:\n        /* \"#utility.yul\":23502:23503   */\n      0x00\n        /* \"#utility.yul\":23499:23500   */\n      dup1\n        /* \"#utility.yul\":23492:23504   */\n      revert\n        /* \"#utility.yul\":23516:23633   */\n    tag_419:\n        /* \"#utility.yul\":23625:23626   */\n      0x00\n        /* \"#utility.yul\":23622:23623   */\n      dup1\n        /* \"#utility.yul\":23615:23627   */\n      revert\n        /* \"#utility.yul\":23639:23756   */\n    tag_406:\n        /* \"#utility.yul\":23748:23749   */\n      0x00\n        /* \"#utility.yul\":23745:23746   */\n      dup1\n        /* \"#utility.yul\":23738:23750   */\n      revert\n        /* \"#utility.yul\":23762:23936   */\n    tag_497:\n        /* \"#utility.yul\":23902:23928   */\n      0x54686973204e4654206973206e6f74206c697374696e672e0000000000000000\n        /* \"#utility.yul\":23898:23899   */\n      0x00\n        /* \"#utility.yul\":23890:23896   */\n      dup3\n        /* \"#utility.yul\":23886:23900   */\n      add\n        /* \"#utility.yul\":23879:23929   */\n      mstore\n        /* \"#utility.yul\":23762:23936   */\n      pop\n      jump\t// out\n        /* \"#utility.yul\":23942:24118   */\n    tag_502:\n        /* \"#utility.yul\":24082:24110   */\n      0x436f6e7472616374206d75737420626520617070726f7665642e000000000000\n        /* \"#utility.yul\":24078:24079   */\n      0x00\n        /* \"#utility.yul\":24070:24076   */\n      dup3\n        /* \"#utility.yul\":24066:24080   */\n      add\n        /* \"#utility.yul\":24059:24111   */\n      mstore\n        /* \"#utility.yul\":23942:24118   */\n      pop\n      jump\t// out\n        /* \"#utility.yul\":24124:24349   */\n    tag_507:\n        /* \"#utility.yul\":24264:24298   */\n      0x4f776e61626c653a206e6577206f776e657220697320746865207a65726f2061\n        /* \"#utility.yul\":24260:24261   */\n      0x00\n        /* \"#utility.yul\":24252:24258   */\n      dup3\n        /* \"#utility.yul\":24248:24262   */\n      add\n        /* \"#utility.yul\":24241:24299   */\n      mstore\n        /* \"#utility.yul\":24333:24341   */\n      0x6464726573730000000000000000000000000000000000000000000000000000\n        /* \"#utility.yul\":24328:24330   */\n      0x20\n        /* \"#utility.yul\":24320:24326   */\n      dup3\n        /* \"#utility.yul\":24316:24331   */\n      add\n        /* \"#utility.yul\":24309:24342   */\n      mstore\n        /* \"#utility.yul\":24124:24349   */\n      pop\n      jump\t// out\n        /* \"#utility.yul\":24355:24523   */\n    tag_512:\n        /* \"#utility.yul\":24495:24515   */\n      0x4275792066726f6d20796f757273656c662e0000000000000000000000000000\n        /* \"#utility.yul\":24491:24492   */\n      0x00\n        /* \"#utility.yul\":24483:24489   */\n      dup3\n        /* \"#utility.yul\":24479:24493   */\n      add\n        /* \"#utility.yul\":24472:24516   */\n      mstore\n        /* \"#utility.yul\":24355:24523   */\n      pop\n      jump\t// out\n        /* \"#utility.yul\":24529:24703   */\n    tag_517:\n        /* \"#utility.yul\":24669:24695   */\n      0x496e73756666696369656e742066756e64732073656e742e0000000000000000\n        /* \"#utility.yul\":24665:24666   */\n      0x00\n        /* \"#utility.yul\":24657:24663   */\n      dup3\n        /* \"#utility.yul\":24653:24667   */\n      add\n        /* \"#utility.yul\":24646:24696   */\n      mstore\n        /* \"#utility.yul\":24529:24703   */\n      pop\n      jump\t// out\n        /* \"#utility.yul\":24709:24872   */\n    tag_522:\n        /* \"#utility.yul\":24849:24864   */\n      0x556e617574686f72697a65642e00000000000000000000000000000000000000\n        /* \"#utility.yul\":24845:24846   */\n      0x00\n        /* \"#utility.yul\":24837:24843   */\n      dup3\n        /* \"#utility.yul\":24833:24847   */\n      add\n        /* \"#utility.yul\":24826:24865   */\n      mstore\n        /* \"#utility.yul\":24709:24872   */\n      pop\n      jump\t// out\n        /* \"#utility.yul\":24878:25060   */\n    tag_527:\n        /* \"#utility.yul\":25018:25052   */\n      0x4f776e61626c653a2063616c6c6572206973206e6f7420746865206f776e6572\n        /* \"#utility.yul\":25014:25015   */\n      0x00\n        /* \"#utility.yul\":25006:25012   */\n      dup3\n        /* \"#utility.yul\":25002:25016   */\n      add\n        /* \"#utility.yul\":24995:25053   */\n      mstore\n        /* \"#utility.yul\":24878:25060   */\n      pop\n      jump\t// out\n        /* \"#utility.yul\":25066:25180   */\n    tag_533:\n      pop\n      jump\t// out\n        /* \"#utility.yul\":25186:25361   */\n    tag_538:\n        /* \"#utility.yul\":25326:25353   */\n      0x54686973204e4654206973206e6f7420666f722073656c6c2e00000000000000\n        /* \"#utility.yul\":25322:25323   */\n      0x00\n        /* \"#utility.yul\":25314:25320   */\n      dup3\n        /* \"#utility.yul\":25310:25324   */\n      add\n        /* \"#utility.yul\":25303:25354   */\n      mstore\n        /* \"#utility.yul\":25186:25361   */\n      pop\n      jump\t// out\n        /* \"#utility.yul\":25367:25537   */\n    tag_543:\n        /* \"#utility.yul\":25507:25529   */\n      0x53656c6c657220686173206e6f20746f6b656e2e000000000000000000000000\n        /* \"#utility.yul\":25503:25504   */\n      0x00\n        /* \"#utility.yul\":25495:25501   */\n      dup3\n        /* \"#utility.yul\":25491:25505   */\n      add\n        /* \"#utility.yul\":25484:25530   */\n      mstore\n        /* \"#utility.yul\":25367:25537   */\n      pop\n      jump\t// out\n        /* \"#utility.yul\":25543:25665   */\n    tag_377:\n        /* \"#utility.yul\":25616:25640   */\n      tag_641\n        /* \"#utility.yul\":25634:25639   */\n      dup2\n        /* \"#utility.yul\":25616:25640   */\n      tag_487\n      jump\t// in\n    tag_641:\n        /* \"#utility.yul\":25609:25614   */\n      dup2\n        /* \"#utility.yul\":25606:25641   */\n      eq\n        /* \"#utility.yul\":25596:25659   */\n      tag_642\n      jumpi\n        /* \"#utility.yul\":25655:25656   */\n      0x00\n        /* \"#utility.yul\":25652:25653   */\n      dup1\n        /* \"#utility.yul\":25645:25657   */\n      revert\n        /* \"#utility.yul\":25596:25659   */\n    tag_642:\n        /* \"#utility.yul\":25543:25665   */\n      pop\n      jump\t// out\n        /* \"#utility.yul\":25671:25787   */\n    tag_395:\n        /* \"#utility.yul\":25741:25762   */\n      tag_644\n        /* \"#utility.yul\":25756:25761   */\n      dup2\n        /* \"#utility.yul\":25741:25762   */\n      tag_491\n      jump\t// in\n    tag_644:\n        /* \"#utility.yul\":25734:25739   */\n      dup2\n        /* \"#utility.yul\":25731:25763   */\n      eq\n        /* \"#utility.yul\":25721:25781   */\n      tag_645\n      jumpi\n        /* \"#utility.yul\":25777:25778   */\n      0x00\n        /* \"#utility.yul\":25774:25775   */\n      dup1\n        /* \"#utility.yul\":25767:25779   */\n      revert\n        /* \"#utility.yul\":25721:25781   */\n    tag_645:\n        /* \"#utility.yul\":25671:25787   */\n      pop\n      jump\t// out\n        /* \"#utility.yul\":25793:25915   */\n    tag_399:\n        /* \"#utility.yul\":25866:25890   */\n      tag_647\n        /* \"#utility.yul\":25884:25889   */\n      dup2\n        /* \"#utility.yul\":25866:25890   */\n      tag_547\n      jump\t// in\n    tag_647:\n        /* \"#utility.yul\":25859:25864   */\n      dup2\n        /* \"#utility.yul\":25856:25891   */\n      eq\n        /* \"#utility.yul\":25846:25909   */\n      tag_648\n      jumpi\n        /* \"#utility.yul\":25905:25906   */\n      0x00\n        /* \"#utility.yul\":25902:25903   */\n      dup1\n        /* \"#utility.yul\":25895:25907   */\n      revert\n        /* \"#utility.yul\":25846:25909   */\n    tag_648:\n        /* \"#utility.yul\":25793:25915   */\n      pop\n      jump\t// out\n\n    auxdata: 0xa2646970667358221220782d06aaab834a469e8b61f4c29bdb07fd3372cc4b43ba64acdccdece10c166964736f6c63430008070033\n}\n",
				"bytecode": {
					"linkReferences": {},
					"object": "60806040523480156200001157600080fd5b5062000032620000266200003860201b60201c565b6200004060201b60201c565b62000104565b600033905090565b60008060009054906101000a900473ffffffffffffffffffffffffffffffffffffffff169050816000806101000a81548173ffffffffffffffffffffffffffffffffffffffff021916908373ffffffffffffffffffffffffffffffffffffffff1602179055508173ffffffffffffffffffffffffffffffffffffffff168173ffffffffffffffffffffffffffffffffffffffff167f8be0079c531659141344cd1fd0a4f28419497f9722a3daafe3b4186f6b6457e060405160405180910390a35050565b613bc880620001146000396000f3fe6080604052600436106100f25760003560e01c806380abbe571161008a578063b2ddee0611610059578063b2ddee0614610329578063d178227a14610352578063ed81abad1461038f578063f2fde38b146103ab576100f2565b806380abbe571461029d5780638111f398146102c65780638c5b197b146102e25780638da5cb5b146102fe576100f2565b80632c872cd1116100c65780632c872cd1146101f05780632f634a901461020c578063449e815d14610249578063715018a614610286576100f2565b806207df30146100f7578063031aa9b514610139578063189ecff1146101765780632973d6f8146101b3575b600080fd5b34801561010357600080fd5b5061011e600480360381019061011991906131cb565b6103d4565b6040516101309695949392919061373e565b60405180910390f35b34801561014557600080fd5b50610160600480360381019061015b91906131cb565b61046a565b60405161016d91906135e8565b60405180910390f35b34801561018257600080fd5b5061019d600480360381019061019891906131cb565b6104d5565b6040516101aa9190613523565b60405180910390f35b3480156101bf57600080fd5b506101da60048036038101906101d59190613298565b610553565b6040516101e79190613523565b60405180910390f35b61020a6004803603810190610205919061305a565b6105e3565b005b34801561021857600080fd5b50610233600480360381019061022e91906131cb565b610e3b565b6040516102409190613523565b60405180910390f35b34801561025557600080fd5b50610270600480360381019061026b91906131cb565b610eb9565b60405161027d9190613723565b60405180910390f35b34801561029257600080fd5b5061029b610f17565b005b3480156102a957600080fd5b506102c460048036038101906102bf9190613345565b610f9f565b005b6102e060048036038101906102db919061320b565b6112d2565b005b6102fc60048036038101906102f791906130fc565b611977565b005b34801561030a57600080fd5b506103136120a4565b6040516103209190613523565b60405180910390f35b34801561033557600080fd5b50610350600480360381019061034b91906131cb565b6120cd565b005b34801561035e57600080fd5b50610379600480360381019061037491906131cb565b61235d565b6040516103869190613723565b60405180910390f35b6103a960048036038101906103a49190612f78565b6123bb565b005b3480156103b757600080fd5b506103d260048036038101906103cd9190612f1e565b612c9b565b005b6001602052816000526040600020602052806000526040600020600091509150508060000154908060010160009054906101000a900473ffffffffffffffffffffffffffffffffffffffff16908060020160009054906101000a900473ffffffffffffffffffffffffffffffffffffffff16908060020160149054906101000a900460ff16908060030154908060040154905086565b6000600160008473ffffffffffffffffffffffffffffffffffffffff1673ffffffffffffffffffffffffffffffffffffffff168152602001908152602001600020600083815260200190815260200160002060020160149054906101000a900460ff16905092915050565b6000600160008473ffffffffffffffffffffffffffffffffffffffff1673ffffffffffffffffffffffffffffffffffffffff168152602001908152602001600020600083815260200190815260200160002060010160009054906101000a900473ffffffffffffffffffffffffffffffffffffffff16905092915050565b6000600160008573ffffffffffffffffffffffffffffffffffffffff1673ffffffffffffffffffffffffffffffffffffffff1681526020019081526020016000206000848152602001908152602001600020600501600083815260200190815260200160002060009054906101000a900473ffffffffffffffffffffffffffffffffffffffff1690509392505050565b6000600160008973ffffffffffffffffffffffffffffffffffffffff1673ffffffffffffffffffffffffffffffffffffffff16815260200190815260200160002060008781526020019081526020016000209050600088905060008890508260020160149054906101000a900460ff16610692576040517f08c379a0000000000000000000000000000000000000000000000000000000008152600401610689906136e3565b60405180910390fd5b8260010160009054906101000a900473ffffffffffffffffffffffffffffffffffffffff1673ffffffffffffffffffffffffffffffffffffffff163373ffffffffffffffffffffffffffffffffffffffff161415610725576040517f08c379a000000000000000000000000000000000000000000000000000000000815260040161071c90613663565b60405180910390fd5b82600001548173ffffffffffffffffffffffffffffffffffffffff166370a08231336040518263ffffffff1660e01b81526004016107639190613523565b60206040518083038186803b15801561077b57600080fd5b505afa15801561078f573d6000803e3d6000fd5b505050506040513d601f19601f820116820180604052508101906107b39190613318565b10156107f4576040517f08c379a00000000000000000000000000000000000000000000000000000000081526004016107eb90613683565b60405180910390fd5b8073ffffffffffffffffffffffffffffffffffffffff166323b872dd338560010160009054906101000a900473ffffffffffffffffffffffffffffffffffffffff16601487600001546108479190613817565b87600001546108569190613848565b6040518463ffffffff1660e01b815260040161087493929190613567565b602060405180830381600087803b15801561088e57600080fd5b505af11580156108a2573d6000803e3d6000fd5b505050506040513d601f19601f820116820180604052508101906108c691906132eb565b508073ffffffffffffffffffffffffffffffffffffffff166323b872dd336108ec6120a4565b896040518463ffffffff1660e01b815260040161090b93929190613567565b602060405180830381600087803b15801561092557600080fd5b505af1158015610939573d6000803e3d6000fd5b505050506040513d601f19601f8201168201806040525081019061095d91906132eb565b50600073ffffffffffffffffffffffffffffffffffffffff168773ffffffffffffffffffffffffffffffffffffffff1614610a23578073ffffffffffffffffffffffffffffffffffffffff166323b872dd3389876040518463ffffffff1660e01b81526004016109cf93929190613567565b602060405180830381600087803b1580156109e957600080fd5b505af11580156109fd573d6000803e3d6000fd5b505050506040513d601f19601f82011682018060405250810190610a2191906132eb565b505b60005b6005811015610b7a57600073ffffffffffffffffffffffffffffffffffffffff1684600501600083815260200190815260200160002060009054906101000a900473ffffffffffffffffffffffffffffffffffffffff1673ffffffffffffffffffffffffffffffffffffffff1614610b62578173ffffffffffffffffffffffffffffffffffffffff166323b872dd3386600501600085815260200190815260200160002060009054906101000a900473ffffffffffffffffffffffffffffffffffffffff16896040518463ffffffff1660e01b8152600401610b0a93929190613567565b602060405180830381600087803b158015610b2457600080fd5b505af1158015610b38573d6000803e3d6000fd5b505050506040513d601f19601f82011682018060405250810190610b5c91906132eb565b50610b67565b610b7a565b8080610b72906138c4565b915050610a26565b508173ffffffffffffffffffffffffffffffffffffffff1663b88d4fde8460010160009054906101000a900473ffffffffffffffffffffffffffffffffffffffff16338b6040518463ffffffff1660e01b8152600401610bdc9392919061359e565b600060405180830381600087803b158015610bf657600080fd5b505af1158015610c0a573d6000803e3d6000fd5b50505050338360020160006101000a81548173ffffffffffffffffffffffffffffffffffffffff021916908373ffffffffffffffffffffffffffffffffffffffff160217905550600583600401541015610c7b576001836004016000828254610c7391906137c1565b925050819055505b6003836003015411610d24578260010160009054906101000a900473ffffffffffffffffffffffffffffffffffffffff168360050160008560030154815260200190815260200160002060006101000a81548173ffffffffffffffffffffffffffffffffffffffff021916908373ffffffffffffffffffffffffffffffffffffffff1602179055506001836003016000828254610d1891906137c1565b92505081905550610dab565b8260010160009054906101000a900473ffffffffffffffffffffffffffffffffffffffff168360050160008560030154815260200190815260200160002060006101000a81548173ffffffffffffffffffffffffffffffffffffffff021916908373ffffffffffffffffffffffffffffffffffffffff160217905550600083600301819055505b60008360020160146101000a81548160ff0219169083151502179055508260020160149054906101000a900460ff161515883373ffffffffffffffffffffffffffffffffffffffff167fa7cd299f7ebc29460ad99cf3ea75776d7cd038a63a59fa595e86441f8190ef908660000154604051610e279190613723565b60405180910390a450505050505050505050565b6000600160008473ffffffffffffffffffffffffffffffffffffffff1673ffffffffffffffffffffffffffffffffffffffff168152602001908152602001600020600083815260200190815260200160002060020160009054906101000a900473ffffffffffffffffffffffffffffffffffffffff16905092915050565b6000600160008473ffffffffffffffffffffffffffffffffffffffff1673ffffffffffffffffffffffffffffffffffffffff168152602001908152602001600020600083815260200190815260200160002060000154905092915050565b610f1f612d93565b73ffffffffffffffffffffffffffffffffffffffff16610f3d6120a4565b73ffffffffffffffffffffffffffffffffffffffff1614610f93576040517f08c379a0000000000000000000000000000000000000000000000000000000008152600401610f8a906136c3565b60405180910390fd5b610f9d6000612d9b565b565b60008290506000600160008573ffffffffffffffffffffffffffffffffffffffff1673ffffffffffffffffffffffffffffffffffffffff168152602001908152602001600020600084815260200190815260200160002090503373ffffffffffffffffffffffffffffffffffffffff168273ffffffffffffffffffffffffffffffffffffffff16636352211e856040518263ffffffff1660e01b81526004016110489190613723565b60206040518083038186803b15801561106057600080fd5b505afa158015611074573d6000803e3d6000fd5b505050506040513d601f19601f820116820180604052508101906110989190612f4b565b73ffffffffffffffffffffffffffffffffffffffff16146110ee576040517f08c379a00000000000000000000000000000000000000000000000000000000081526004016110e590613703565b60405180910390fd5b8173ffffffffffffffffffffffffffffffffffffffff1663e985e9c533306040518363ffffffff1660e01b815260040161112992919061353e565b60206040518083038186803b15801561114157600080fd5b505afa158015611155573d6000803e3d6000fd5b505050506040513d601f19601f8201168201806040525081019061117991906132eb565b6111b8576040517f08c379a00000000000000000000000000000000000000000000000000000000081526004016111af90613623565b60405180910390fd5b848160000181905550338160010160006101000a81548173ffffffffffffffffffffffffffffffffffffffff021916908373ffffffffffffffffffffffffffffffffffffffff160217905550338160020160006101000a81548173ffffffffffffffffffffffffffffffffffffffff021916908373ffffffffffffffffffffffffffffffffffffffff16021790555060018160020160146101000a81548160ff0219169083151502179055508060020160149054906101000a900460ff161515833373ffffffffffffffffffffffffffffffffffffffff167fa7cd299f7ebc29460ad99cf3ea75776d7cd038a63a59fa595e86441f8190ef9084600001546040516112c39190613723565b60405180910390a45050505050565b6000600160008873ffffffffffffffffffffffffffffffffffffffff1673ffffffffffffffffffffffffffffffffffffffff1681526020019081526020016000206000878152602001908152602001600020905060008790508160020160149054906101000a900460ff1661137c576040517f08c379a0000000000000000000000000000000000000000000000000000000008152600401611373906136e3565b60405180910390fd5b8160010160009054906101000a900473ffffffffffffffffffffffffffffffffffffffff1673ffffffffffffffffffffffffffffffffffffffff163373ffffffffffffffffffffffffffffffffffffffff16141561140f576040517f08c379a000000000000000000000000000000000000000000000000000000000815260040161140690613663565b60405180910390fd5b8160000154341015611456576040517f08c379a000000000000000000000000000000000000000000000000000000000815260040161144d90613683565b60405180910390fd5b8160010160009054906101000a900473ffffffffffffffffffffffffffffffffffffffff1673ffffffffffffffffffffffffffffffffffffffff166108fc601484600001546114a59190613817565b84600001546114b49190613848565b9081150290604051600060405180830381858888f193505050501580156114df573d6000803e3d6000fd5b506114e86120a4565b73ffffffffffffffffffffffffffffffffffffffff166108fc869081150290604051600060405180830381858888f1935050505015801561152d573d6000803e3d6000fd5b50600073ffffffffffffffffffffffffffffffffffffffff168673ffffffffffffffffffffffffffffffffffffffff16146115aa578573ffffffffffffffffffffffffffffffffffffffff166108fc849081150290604051600060405180830381858888f193505050501580156115a8573d6000803e3d6000fd5b505b60005b60058110156116b857600073ffffffffffffffffffffffffffffffffffffffff1683600501600083815260200190815260200160002060009054906101000a900473ffffffffffffffffffffffffffffffffffffffff1673ffffffffffffffffffffffffffffffffffffffff16146116a05782600501600082815260200190815260200160002060009054906101000a900473ffffffffffffffffffffffffffffffffffffffff1673ffffffffffffffffffffffffffffffffffffffff166108fc869081150290604051600060405180830381858888f1935050505015801561169a573d6000803e3d6000fd5b506116a5565b6116b8565b80806116b0906138c4565b9150506115ad565b508073ffffffffffffffffffffffffffffffffffffffff1663b88d4fde8360010160009054906101000a900473ffffffffffffffffffffffffffffffffffffffff16338a6040518463ffffffff1660e01b815260040161171a9392919061359e565b600060405180830381600087803b15801561173457600080fd5b505af1158015611748573d6000803e3d6000fd5b50505050338260020160006101000a81548173ffffffffffffffffffffffffffffffffffffffff021916908373ffffffffffffffffffffffffffffffffffffffff1602179055506005826004015410156117b95760018260040160008282546117b191906137c1565b925050819055505b6003826003015411611862578160010160009054906101000a900473ffffffffffffffffffffffffffffffffffffffff168260050160008460030154815260200190815260200160002060006101000a81548173ffffffffffffffffffffffffffffffffffffffff021916908373ffffffffffffffffffffffffffffffffffffffff160217905550600182600301600082825461185691906137c1565b925050819055506118e9565b8160010160009054906101000a900473ffffffffffffffffffffffffffffffffffffffff168260050160008460030154815260200190815260200160002060006101000a81548173ffffffffffffffffffffffffffffffffffffffff021916908373ffffffffffffffffffffffffffffffffffffffff160217905550600082600301819055505b60008260020160146101000a81548160ff0219169083151502179055508160020160149054906101000a900460ff161515873373ffffffffffffffffffffffffffffffffffffffff167fa7cd299f7ebc29460ad99cf3ea75776d7cd038a63a59fa595e86441f8190ef9085600001546040516119659190613723565b60405180910390a45050505050505050565b60005b87879050811015612099576000600160008b73ffffffffffffffffffffffffffffffffffffffff1673ffffffffffffffffffffffffffffffffffffffff16815260200190815260200160002060008a8a858181106119db576119da61396b565b5b905060200201358152602001908152602001600020905060008a90508160020160149054906101000a900460ff16611a48576040517f08c379a0000000000000000000000000000000000000000000000000000000008152600401611a3f906136e3565b60405180910390fd5b8160010160009054906101000a900473ffffffffffffffffffffffffffffffffffffffff1673ffffffffffffffffffffffffffffffffffffffff163373ffffffffffffffffffffffffffffffffffffffff161415611adb576040517f08c379a0000000000000000000000000000000000000000000000000000000008152600401611ad290613663565b60405180910390fd5b8160000154341015611b22576040517f08c379a0000000000000000000000000000000000000000000000000000000008152600401611b1990613683565b60405180910390fd5b8160010160009054906101000a900473ffffffffffffffffffffffffffffffffffffffff1673ffffffffffffffffffffffffffffffffffffffff166108fc60148460000154611b719190613817565b8460000154611b809190613848565b9081150290604051600060405180830381858888f19350505050158015611bab573d6000803e3d6000fd5b50611bb46120a4565b73ffffffffffffffffffffffffffffffffffffffff166108fc889081150290604051600060405180830381858888f19350505050158015611bf9573d6000803e3d6000fd5b50600073ffffffffffffffffffffffffffffffffffffffff168873ffffffffffffffffffffffffffffffffffffffff1614611c76578773ffffffffffffffffffffffffffffffffffffffff166108fc859081150290604051600060405180830381858888f19350505050158015611c74573d6000803e3d6000fd5b505b60005b6005811015611d9d57600073ffffffffffffffffffffffffffffffffffffffff1683600501600083815260200190815260200160002060009054906101000a900473ffffffffffffffffffffffffffffffffffffffff1673ffffffffffffffffffffffffffffffffffffffff1614611d855782600501600082815260200190815260200160002060009054906101000a900473ffffffffffffffffffffffffffffffffffffffff1673ffffffffffffffffffffffffffffffffffffffff166108fc888887818110611d4d57611d4c61396b565b5b905060200201359081150290604051600060405180830381858888f19350505050158015611d7f573d6000803e3d6000fd5b50611d8a565b611d9d565b8080611d95906138c4565b915050611c79565b508073ffffffffffffffffffffffffffffffffffffffff1663b88d4fde8360010160009054906101000a900473ffffffffffffffffffffffffffffffffffffffff16338d8d88818110611df357611df261396b565b5b905060200201356040518463ffffffff1660e01b8152600401611e189392919061359e565b600060405180830381600087803b158015611e3257600080fd5b505af1158015611e46573d6000803e3d6000fd5b50505050338260020160006101000a81548173ffffffffffffffffffffffffffffffffffffffff021916908373ffffffffffffffffffffffffffffffffffffffff160217905550600582600401541015611eb7576001826004016000828254611eaf91906137c1565b925050819055505b6003826003015411611f60578160010160009054906101000a900473ffffffffffffffffffffffffffffffffffffffff168260050160008460030154815260200190815260200160002060006101000a81548173ffffffffffffffffffffffffffffffffffffffff021916908373ffffffffffffffffffffffffffffffffffffffff1602179055506001826003016000828254611f5491906137c1565b92505081905550611fe7565b8160010160009054906101000a900473ffffffffffffffffffffffffffffffffffffffff168260050160008460030154815260200190815260200160002060006101000a81548173ffffffffffffffffffffffffffffffffffffffff021916908373ffffffffffffffffffffffffffffffffffffffff160217905550600082600301819055505b60008260020160146101000a81548160ff0219169083151502179055508160020160149054906101000a900460ff1615158a8a8581811061202b5761202a61396b565b5b905060200201353373ffffffffffffffffffffffffffffffffffffffff167fa7cd299f7ebc29460ad99cf3ea75776d7cd038a63a59fa595e86441f8190ef90856000015460405161207c9190613723565b60405180910390a450508080612091906138c4565b91505061197a565b505050505050505050565b60008060009054906101000a900473ffffffffffffffffffffffffffffffffffffffff16905090565b60008290506000600160008573ffffffffffffffffffffffffffffffffffffffff1673ffffffffffffffffffffffffffffffffffffffff168152602001908152602001600020600084815260200190815260200160002090503373ffffffffffffffffffffffffffffffffffffffff168160010160009054906101000a900473ffffffffffffffffffffffffffffffffffffffff1673ffffffffffffffffffffffffffffffffffffffff16146121b8576040517f08c379a00000000000000000000000000000000000000000000000000000000081526004016121af906136a3565b60405180910390fd5b8060020160149054906101000a900460ff16612209576040517f08c379a000000000000000000000000000000000000000000000000000000000815260040161220090613603565b60405180910390fd5b8173ffffffffffffffffffffffffffffffffffffffff1663e985e9c533306040518363ffffffff1660e01b815260040161224492919061353e565b60206040518083038186803b15801561225c57600080fd5b505afa158015612270573d6000803e3d6000fd5b505050506040513d601f19601f8201168201806040525081019061229491906132eb565b6122d3576040517f08c379a00000000000000000000000000000000000000000000000000000000081526004016122ca90613623565b60405180910390fd5b60008160020160146101000a81548160ff0219169083151502179055508060020160149054906101000a900460ff161515833373ffffffffffffffffffffffffffffffffffffffff167fa7cd299f7ebc29460ad99cf3ea75776d7cd038a63a59fa595e86441f8190ef90846000015460405161234f9190613723565b60405180910390a450505050565b6000600160008473ffffffffffffffffffffffffffffffffffffffff1673ffffffffffffffffffffffffffffffffffffffff168152602001908152602001600020600083815260200190815260200160002060040154905092915050565b60005b87879050811015612c8f576000600160008c73ffffffffffffffffffffffffffffffffffffffff1673ffffffffffffffffffffffffffffffffffffffff16815260200190815260200160002060008a8a8581811061241f5761241e61396b565b5b905060200201358152602001908152602001600020905060008b905060008b90508260020160149054906101000a900460ff16612491576040517f08c379a0000000000000000000000000000000000000000000000000000000008152600401612488906136e3565b60405180910390fd5b8260010160009054906101000a900473ffffffffffffffffffffffffffffffffffffffff1673ffffffffffffffffffffffffffffffffffffffff163373ffffffffffffffffffffffffffffffffffffffff161415612524576040517f08c379a000000000000000000000000000000000000000000000000000000000815260040161251b90613663565b60405180910390fd5b82600001548173ffffffffffffffffffffffffffffffffffffffff166370a08231336040518263ffffffff1660e01b81526004016125629190613523565b60206040518083038186803b15801561257a57600080fd5b505afa15801561258e573d6000803e3d6000fd5b505050506040513d601f19601f820116820180604052508101906125b29190613318565b10156125f3576040517f08c379a00000000000000000000000000000000000000000000000000000000081526004016125ea90613683565b60405180910390fd5b8073ffffffffffffffffffffffffffffffffffffffff166323b872dd338560010160009054906101000a900473ffffffffffffffffffffffffffffffffffffffff16601487600001546126469190613817565b87600001546126559190613848565b6040518463ffffffff1660e01b815260040161267393929190613567565b602060405180830381600087803b15801561268d57600080fd5b505af11580156126a1573d6000803e3d6000fd5b505050506040513d601f19601f820116820180604052508101906126c591906132eb565b508073ffffffffffffffffffffffffffffffffffffffff166323b872dd336126eb6120a4565b8b6040518463ffffffff1660e01b815260040161270a93929190613567565b602060405180830381600087803b15801561272457600080fd5b505af1158015612738573d6000803e3d6000fd5b505050506040513d601f19601f8201168201806040525081019061275c91906132eb565b50600073ffffffffffffffffffffffffffffffffffffffff168973ffffffffffffffffffffffffffffffffffffffff1614612822578073ffffffffffffffffffffffffffffffffffffffff166323b872dd338b886040518463ffffffff1660e01b81526004016127ce93929190613567565b602060405180830381600087803b1580156127e857600080fd5b505af11580156127fc573d6000803e3d6000fd5b505050506040513d601f19601f8201168201806040525081019061282091906132eb565b505b60005b600581101561299257600073ffffffffffffffffffffffffffffffffffffffff1684600501600083815260200190815260200160002060009054906101000a900473ffffffffffffffffffffffffffffffffffffffff1673ffffffffffffffffffffffffffffffffffffffff161461297a578173ffffffffffffffffffffffffffffffffffffffff166323b872dd3386600501600085815260200190815260200160002060009054906101000a900473ffffffffffffffffffffffffffffffffffffffff168b8b8a8181106128fd576128fc61396b565b5b905060200201356040518463ffffffff1660e01b815260040161292293929190613567565b602060405180830381600087803b15801561293c57600080fd5b505af1158015612950573d6000803e3d6000fd5b505050506040513d601f19601f8201168201806040525081019061297491906132eb565b5061297f565b612992565b808061298a906138c4565b915050612825565b508173ffffffffffffffffffffffffffffffffffffffff1663b88d4fde8460010160009054906101000a900473ffffffffffffffffffffffffffffffffffffffff16338e8e898181106129e8576129e761396b565b5b905060200201356040518463ffffffff1660e01b8152600401612a0d9392919061359e565b600060405180830381600087803b158015612a2757600080fd5b505af1158015612a3b573d6000803e3d6000fd5b50505050338360020160006101000a81548173ffffffffffffffffffffffffffffffffffffffff021916908373ffffffffffffffffffffffffffffffffffffffff160217905550600583600401541015612aac576001836004016000828254612aa491906137c1565b925050819055505b6003836003015411612b55578260010160009054906101000a900473ffffffffffffffffffffffffffffffffffffffff168360050160008560030154815260200190815260200160002060006101000a81548173ffffffffffffffffffffffffffffffffffffffff021916908373ffffffffffffffffffffffffffffffffffffffff1602179055506001836003016000828254612b4991906137c1565b92505081905550612bdc565b8260010160009054906101000a900473ffffffffffffffffffffffffffffffffffffffff168360050160008560030154815260200190815260200160002060006101000a81548173ffffffffffffffffffffffffffffffffffffffff021916908373ffffffffffffffffffffffffffffffffffffffff160217905550600083600301819055505b60008360020160146101000a81548160ff0219169083151502179055508260020160149054906101000a900460ff1615158b8b86818110612c2057612c1f61396b565b5b905060200201353373ffffffffffffffffffffffffffffffffffffffff167fa7cd299f7ebc29460ad99cf3ea75776d7cd038a63a59fa595e86441f8190ef908660000154604051612c719190613723565b60405180910390a45050508080612c87906138c4565b9150506123be565b50505050505050505050565b612ca3612d93565b73ffffffffffffffffffffffffffffffffffffffff16612cc16120a4565b73ffffffffffffffffffffffffffffffffffffffff1614612d17576040517f08c379a0000000000000000000000000000000000000000000000000000000008152600401612d0e906136c3565b60405180910390fd5b600073ffffffffffffffffffffffffffffffffffffffff168173ffffffffffffffffffffffffffffffffffffffff161415612d87576040517f08c379a0000000000000000000000000000000000000000000000000000000008152600401612d7e90613643565b60405180910390fd5b612d9081612d9b565b50565b600033905090565b60008060009054906101000a900473ffffffffffffffffffffffffffffffffffffffff169050816000806101000a81548173ffffffffffffffffffffffffffffffffffffffff021916908373ffffffffffffffffffffffffffffffffffffffff1602179055508173ffffffffffffffffffffffffffffffffffffffff168173ffffffffffffffffffffffffffffffffffffffff167f8be0079c531659141344cd1fd0a4f28419497f9722a3daafe3b4186f6b6457e060405160405180910390a35050565b600081359050612e6e81613b4d565b92915050565b600081519050612e8381613b4d565b92915050565b60008083601f840112612e9f57612e9e61399f565b5b8235905067ffffffffffffffff811115612ebc57612ebb61399a565b5b602083019150836020820283011115612ed857612ed76139a4565b5b9250929050565b600081519050612eee81613b64565b92915050565b600081359050612f0381613b7b565b92915050565b600081519050612f1881613b7b565b92915050565b600060208284031215612f3457612f336139ae565b5b6000612f4284828501612e5f565b91505092915050565b600060208284031215612f6157612f606139ae565b5b6000612f6f84828501612e74565b91505092915050565b600080600080600080600080600060e08a8c031215612f9a57612f996139ae565b5b6000612fa88c828d01612e5f565b9950506020612fb98c828d01612e5f565b98505060408a013567ffffffffffffffff811115612fda57612fd96139a9565b5b612fe68c828d01612e89565b97509750506060612ff98c828d01612e5f565b955050608061300a8c828d01612ef4565b94505060a08a013567ffffffffffffffff81111561302b5761302a6139a9565b5b6130378c828d01612e89565b935093505060c061304a8c828d01612ef4565b9150509295985092959850929598565b600080600080600080600060e0888a031215613079576130786139ae565b5b60006130878a828b01612e5f565b97505060206130988a828b01612e5f565b96505060406130a98a828b01612ef4565b95505060606130ba8a828b01612e5f565b94505060806130cb8a828b01612ef4565b93505060a06130dc8a828b01612ef4565b92505060c06130ed8a828b01612ef4565b91505092959891949750929550565b60008060008060008060008060c0898b03121561311c5761311b6139ae565b5b600061312a8b828c01612e5f565b985050602089013567ffffffffffffffff81111561314b5761314a6139a9565b5b6131578b828c01612e89565b9750975050604061316a8b828c01612e5f565b955050606061317b8b828c01612ef4565b945050608089013567ffffffffffffffff81111561319c5761319b6139a9565b5b6131a88b828c01612e89565b935093505060a06131bb8b828c01612ef4565b9150509295985092959890939650565b600080604083850312156131e2576131e16139ae565b5b60006131f085828601612e5f565b925050602061320185828601612ef4565b9150509250929050565b60008060008060008060c08789031215613228576132276139ae565b5b600061323689828a01612e5f565b965050602061324789828a01612ef4565b955050604061325889828a01612e5f565b945050606061326989828a01612ef4565b935050608061327a89828a01612ef4565b92505060a061328b89828a01612ef4565b9150509295509295509295565b6000806000606084860312156132b1576132b06139ae565b5b60006132bf86828701612e5f565b93505060206132d086828701612ef4565b92505060406132e186828701612ef4565b9150509250925092565b600060208284031215613301576133006139ae565b5b600061330f84828501612edf565b91505092915050565b60006020828403121561332e5761332d6139ae565b5b600061333c84828501612f09565b91505092915050565b60008060006060848603121561335e5761335d6139ae565b5b600061336c86828701612ef4565b935050602061337d86828701612e5f565b925050604061338e86828701612ef4565b9150509250925092565b6133a18161387c565b82525050565b6133b08161388e565b82525050565b60006133c36018836137b0565b91506133ce826139b3565b602082019050919050565b60006133e6601a836137b0565b91506133f1826139dc565b602082019050919050565b60006134096026836137b0565b915061341482613a05565b604082019050919050565b600061342c6012836137b0565b915061343782613a54565b602082019050919050565b600061344f6018836137b0565b915061345a82613a7d565b602082019050919050565b6000613472600d836137b0565b915061347d82613aa6565b602082019050919050565b60006134956020836137b0565b91506134a082613acf565b602082019050919050565b60006134b860008361379f565b91506134c382613af8565b600082019050919050565b60006134db6019836137b0565b91506134e682613afb565b602082019050919050565b60006134fe6014836137b0565b915061350982613b24565b602082019050919050565b61351d816138ba565b82525050565b60006020820190506135386000830184613398565b92915050565b60006040820190506135536000830185613398565b6135606020830184613398565b9392505050565b600060608201905061357c6000830186613398565b6135896020830185613398565b6135966040830184613514565b949350505050565b60006080820190506135b36000830186613398565b6135c06020830185613398565b6135cd6040830184613514565b81810360608301526135de816134ab565b9050949350505050565b60006020820190506135fd60008301846133a7565b92915050565b6000602082019050818103600083015261361c816133b6565b9050919050565b6000602082019050818103600083015261363c816133d9565b9050919050565b6000602082019050818103600083015261365c816133fc565b9050919050565b6000602082019050818103600083015261367c8161341f565b9050919050565b6000602082019050818103600083015261369c81613442565b9050919050565b600060208201905081810360008301526136bc81613465565b9050919050565b600060208201905081810360008301526136dc81613488565b9050919050565b600060208201905081810360008301526136fc816134ce565b9050919050565b6000602082019050818103600083015261371c816134f1565b9050919050565b60006020820190506137386000830184613514565b92915050565b600060c0820190506137536000830189613514565b6137606020830188613398565b61376d6040830187613398565b61377a60608301866133a7565b6137876080830185613514565b61379460a0830184613514565b979650505050505050565b600082825260208201905092915050565b600082825260208201905092915050565b60006137cc826138ba565b91506137d7836138ba565b9250827fffffffffffffffffffffffffffffffffffffffffffffffffffffffffffffffff0382111561380c5761380b61390d565b5b828201905092915050565b6000613822826138ba565b915061382d836138ba565b92508261383d5761383c61393c565b5b828204905092915050565b6000613853826138ba565b915061385e836138ba565b9250828210156138715761387061390d565b5b828203905092915050565b60006138878261389a565b9050919050565b60008115159050919050565b600073ffffffffffffffffffffffffffffffffffffffff82169050919050565b6000819050919050565b60006138cf826138ba565b91507fffffffffffffffffffffffffffffffffffffffffffffffffffffffffffffffff8214156139025761390161390d565b5b600182019050919050565b7f4e487b7100000000000000000000000000000000000000000000000000000000600052601160045260246000fd5b7f4e487b7100000000000000000000000000000000000000000000000000000000600052601260045260246000fd5b7f4e487b7100000000000000000000000000000000000000000000000000000000600052603260045260246000fd5b600080fd5b600080fd5b600080fd5b600080fd5b600080fd5b7f54686973204e4654206973206e6f74206c697374696e672e0000000000000000600082015250565b7f436f6e7472616374206d75737420626520617070726f7665642e000000000000600082015250565b7f4f776e61626c653a206e6577206f776e657220697320746865207a65726f206160008201527f6464726573730000000000000000000000000000000000000000000000000000602082015250565b7f4275792066726f6d20796f757273656c662e0000000000000000000000000000600082015250565b7f496e73756666696369656e742066756e64732073656e742e0000000000000000600082015250565b7f556e617574686f72697a65642e00000000000000000000000000000000000000600082015250565b7f4f776e61626c653a2063616c6c6572206973206e6f7420746865206f776e6572600082015250565b50565b7f54686973204e4654206973206e6f7420666f722073656c6c2e00000000000000600082015250565b7f53656c6c657220686173206e6f20746f6b656e2e000000000000000000000000600082015250565b613b568161387c565b8114613b6157600080fd5b50565b613b6d8161388e565b8114613b7857600080fd5b50565b613b84816138ba565b8114613b8f57600080fd5b5056fea2646970667358221220782d06aaab834a469e8b61f4c29bdb07fd3372cc4b43ba64acdccdece10c166964736f6c63430008070033",
					"opcodes": "PUSH1 0x80 PUSH1 0x40 MSTORE CALLVALUE DUP1 ISZERO PUSH3 0x11 JUMPI PUSH1 0x0 DUP1 REVERT JUMPDEST POP PUSH3 0x32 PUSH3 0x26 PUSH3 0x38 PUSH1 0x20 SHL PUSH1 0x20 SHR JUMP JUMPDEST PUSH3 0x40 PUSH1 0x20 SHL PUSH1 0x20 SHR JUMP JUMPDEST PUSH3 0x104 JUMP JUMPDEST PUSH1 0x0 CALLER SWAP1 POP SWAP1 JUMP JUMPDEST PUSH1 0x0 DUP1 PUSH1 0x0 SWAP1 SLOAD SWAP1 PUSH2 0x100 EXP SWAP1 DIV PUSH20 0xFFFFFFFFFFFFFFFFFFFFFFFFFFFFFFFFFFFFFFFF AND SWAP1 POP DUP2 PUSH1 0x0 DUP1 PUSH2 0x100 EXP DUP2 SLOAD DUP2 PUSH20 0xFFFFFFFFFFFFFFFFFFFFFFFFFFFFFFFFFFFFFFFF MUL NOT AND SWAP1 DUP4 PUSH20 0xFFFFFFFFFFFFFFFFFFFFFFFFFFFFFFFFFFFFFFFF AND MUL OR SWAP1 SSTORE POP DUP2 PUSH20 0xFFFFFFFFFFFFFFFFFFFFFFFFFFFFFFFFFFFFFFFF AND DUP2 PUSH20 0xFFFFFFFFFFFFFFFFFFFFFFFFFFFFFFFFFFFFFFFF AND PUSH32 0x8BE0079C531659141344CD1FD0A4F28419497F9722A3DAAFE3B4186F6B6457E0 PUSH1 0x40 MLOAD PUSH1 0x40 MLOAD DUP1 SWAP2 SUB SWAP1 LOG3 POP POP JUMP JUMPDEST PUSH2 0x3BC8 DUP1 PUSH3 0x114 PUSH1 0x0 CODECOPY PUSH1 0x0 RETURN INVALID PUSH1 0x80 PUSH1 0x40 MSTORE PUSH1 0x4 CALLDATASIZE LT PUSH2 0xF2 JUMPI PUSH1 0x0 CALLDATALOAD PUSH1 0xE0 SHR DUP1 PUSH4 0x80ABBE57 GT PUSH2 0x8A JUMPI DUP1 PUSH4 0xB2DDEE06 GT PUSH2 0x59 JUMPI DUP1 PUSH4 0xB2DDEE06 EQ PUSH2 0x329 JUMPI DUP1 PUSH4 0xD178227A EQ PUSH2 0x352 JUMPI DUP1 PUSH4 0xED81ABAD EQ PUSH2 0x38F JUMPI DUP1 PUSH4 0xF2FDE38B EQ PUSH2 0x3AB JUMPI PUSH2 0xF2 JUMP JUMPDEST DUP1 PUSH4 0x80ABBE57 EQ PUSH2 0x29D JUMPI DUP1 PUSH4 0x8111F398 EQ PUSH2 0x2C6 JUMPI DUP1 PUSH4 0x8C5B197B EQ PUSH2 0x2E2 JUMPI DUP1 PUSH4 0x8DA5CB5B EQ PUSH2 0x2FE JUMPI PUSH2 0xF2 JUMP JUMPDEST DUP1 PUSH4 0x2C872CD1 GT PUSH2 0xC6 JUMPI DUP1 PUSH4 0x2C872CD1 EQ PUSH2 0x1F0 JUMPI DUP1 PUSH4 0x2F634A90 EQ PUSH2 0x20C JUMPI DUP1 PUSH4 0x449E815D EQ PUSH2 0x249 JUMPI DUP1 PUSH4 0x715018A6 EQ PUSH2 0x286 JUMPI PUSH2 0xF2 JUMP JUMPDEST DUP1 PUSH3 0x7DF30 EQ PUSH2 0xF7 JUMPI DUP1 PUSH4 0x31AA9B5 EQ PUSH2 0x139 JUMPI DUP1 PUSH4 0x189ECFF1 EQ PUSH2 0x176 JUMPI DUP1 PUSH4 0x2973D6F8 EQ PUSH2 0x1B3 JUMPI JUMPDEST PUSH1 0x0 DUP1 REVERT JUMPDEST CALLVALUE DUP1 ISZERO PUSH2 0x103 JUMPI PUSH1 0x0 DUP1 REVERT JUMPDEST POP PUSH2 0x11E PUSH1 0x4 DUP1 CALLDATASIZE SUB DUP2 ADD SWAP1 PUSH2 0x119 SWAP2 SWAP1 PUSH2 0x31CB JUMP JUMPDEST PUSH2 0x3D4 JUMP JUMPDEST PUSH1 0x40 MLOAD PUSH2 0x130 SWAP7 SWAP6 SWAP5 SWAP4 SWAP3 SWAP2 SWAP1 PUSH2 0x373E JUMP JUMPDEST PUSH1 0x40 MLOAD DUP1 SWAP2 SUB SWAP1 RETURN JUMPDEST CALLVALUE DUP1 ISZERO PUSH2 0x145 JUMPI PUSH1 0x0 DUP1 REVERT JUMPDEST POP PUSH2 0x160 PUSH1 0x4 DUP1 CALLDATASIZE SUB DUP2 ADD SWAP1 PUSH2 0x15B SWAP2 SWAP1 PUSH2 0x31CB JUMP JUMPDEST PUSH2 0x46A JUMP JUMPDEST PUSH1 0x40 MLOAD PUSH2 0x16D SWAP2 SWAP1 PUSH2 0x35E8 JUMP JUMPDEST PUSH1 0x40 MLOAD DUP1 SWAP2 SUB SWAP1 RETURN JUMPDEST CALLVALUE DUP1 ISZERO PUSH2 0x182 JUMPI PUSH1 0x0 DUP1 REVERT JUMPDEST POP PUSH2 0x19D PUSH1 0x4 DUP1 CALLDATASIZE SUB DUP2 ADD SWAP1 PUSH2 0x198 SWAP2 SWAP1 PUSH2 0x31CB JUMP JUMPDEST PUSH2 0x4D5 JUMP JUMPDEST PUSH1 0x40 MLOAD PUSH2 0x1AA SWAP2 SWAP1 PUSH2 0x3523 JUMP JUMPDEST PUSH1 0x40 MLOAD DUP1 SWAP2 SUB SWAP1 RETURN JUMPDEST CALLVALUE DUP1 ISZERO PUSH2 0x1BF JUMPI PUSH1 0x0 DUP1 REVERT JUMPDEST POP PUSH2 0x1DA PUSH1 0x4 DUP1 CALLDATASIZE SUB DUP2 ADD SWAP1 PUSH2 0x1D5 SWAP2 SWAP1 PUSH2 0x3298 JUMP JUMPDEST PUSH2 0x553 JUMP JUMPDEST PUSH1 0x40 MLOAD PUSH2 0x1E7 SWAP2 SWAP1 PUSH2 0x3523 JUMP JUMPDEST PUSH1 0x40 MLOAD DUP1 SWAP2 SUB SWAP1 RETURN JUMPDEST PUSH2 0x20A PUSH1 0x4 DUP1 CALLDATASIZE SUB DUP2 ADD SWAP1 PUSH2 0x205 SWAP2 SWAP1 PUSH2 0x305A JUMP JUMPDEST PUSH2 0x5E3 JUMP JUMPDEST STOP JUMPDEST CALLVALUE DUP1 ISZERO PUSH2 0x218 JUMPI PUSH1 0x0 DUP1 REVERT JUMPDEST POP PUSH2 0x233 PUSH1 0x4 DUP1 CALLDATASIZE SUB DUP2 ADD SWAP1 PUSH2 0x22E SWAP2 SWAP1 PUSH2 0x31CB JUMP JUMPDEST PUSH2 0xE3B JUMP JUMPDEST PUSH1 0x40 MLOAD PUSH2 0x240 SWAP2 SWAP1 PUSH2 0x3523 JUMP JUMPDEST PUSH1 0x40 MLOAD DUP1 SWAP2 SUB SWAP1 RETURN JUMPDEST CALLVALUE DUP1 ISZERO PUSH2 0x255 JUMPI PUSH1 0x0 DUP1 REVERT JUMPDEST POP PUSH2 0x270 PUSH1 0x4 DUP1 CALLDATASIZE SUB DUP2 ADD SWAP1 PUSH2 0x26B SWAP2 SWAP1 PUSH2 0x31CB JUMP JUMPDEST PUSH2 0xEB9 JUMP JUMPDEST PUSH1 0x40 MLOAD PUSH2 0x27D SWAP2 SWAP1 PUSH2 0x3723 JUMP JUMPDEST PUSH1 0x40 MLOAD DUP1 SWAP2 SUB SWAP1 RETURN JUMPDEST CALLVALUE DUP1 ISZERO PUSH2 0x292 JUMPI PUSH1 0x0 DUP1 REVERT JUMPDEST POP PUSH2 0x29B PUSH2 0xF17 JUMP JUMPDEST STOP JUMPDEST CALLVALUE DUP1 ISZERO PUSH2 0x2A9 JUMPI PUSH1 0x0 DUP1 REVERT JUMPDEST POP PUSH2 0x2C4 PUSH1 0x4 DUP1 CALLDATASIZE SUB DUP2 ADD SWAP1 PUSH2 0x2BF SWAP2 SWAP1 PUSH2 0x3345 JUMP JUMPDEST PUSH2 0xF9F JUMP JUMPDEST STOP JUMPDEST PUSH2 0x2E0 PUSH1 0x4 DUP1 CALLDATASIZE SUB DUP2 ADD SWAP1 PUSH2 0x2DB SWAP2 SWAP1 PUSH2 0x320B JUMP JUMPDEST PUSH2 0x12D2 JUMP JUMPDEST STOP JUMPDEST PUSH2 0x2FC PUSH1 0x4 DUP1 CALLDATASIZE SUB DUP2 ADD SWAP1 PUSH2 0x2F7 SWAP2 SWAP1 PUSH2 0x30FC JUMP JUMPDEST PUSH2 0x1977 JUMP JUMPDEST STOP JUMPDEST CALLVALUE DUP1 ISZERO PUSH2 0x30A JUMPI PUSH1 0x0 DUP1 REVERT JUMPDEST POP PUSH2 0x313 PUSH2 0x20A4 JUMP JUMPDEST PUSH1 0x40 MLOAD PUSH2 0x320 SWAP2 SWAP1 PUSH2 0x3523 JUMP JUMPDEST PUSH1 0x40 MLOAD DUP1 SWAP2 SUB SWAP1 RETURN JUMPDEST CALLVALUE DUP1 ISZERO PUSH2 0x335 JUMPI PUSH1 0x0 DUP1 REVERT JUMPDEST POP PUSH2 0x350 PUSH1 0x4 DUP1 CALLDATASIZE SUB DUP2 ADD SWAP1 PUSH2 0x34B SWAP2 SWAP1 PUSH2 0x31CB JUMP JUMPDEST PUSH2 0x20CD JUMP JUMPDEST STOP JUMPDEST CALLVALUE DUP1 ISZERO PUSH2 0x35E JUMPI PUSH1 0x0 DUP1 REVERT JUMPDEST POP PUSH2 0x379 PUSH1 0x4 DUP1 CALLDATASIZE SUB DUP2 ADD SWAP1 PUSH2 0x374 SWAP2 SWAP1 PUSH2 0x31CB JUMP JUMPDEST PUSH2 0x235D JUMP JUMPDEST PUSH1 0x40 MLOAD PUSH2 0x386 SWAP2 SWAP1 PUSH2 0x3723 JUMP JUMPDEST PUSH1 0x40 MLOAD DUP1 SWAP2 SUB SWAP1 RETURN JUMPDEST PUSH2 0x3A9 PUSH1 0x4 DUP1 CALLDATASIZE SUB DUP2 ADD SWAP1 PUSH2 0x3A4 SWAP2 SWAP1 PUSH2 0x2F78 JUMP JUMPDEST PUSH2 0x23BB JUMP JUMPDEST STOP JUMPDEST CALLVALUE DUP1 ISZERO PUSH2 0x3B7 JUMPI PUSH1 0x0 DUP1 REVERT JUMPDEST POP PUSH2 0x3D2 PUSH1 0x4 DUP1 CALLDATASIZE SUB DUP2 ADD SWAP1 PUSH2 0x3CD SWAP2 SWAP1 PUSH2 0x2F1E JUMP JUMPDEST PUSH2 0x2C9B JUMP JUMPDEST STOP JUMPDEST PUSH1 0x1 PUSH1 0x20 MSTORE DUP2 PUSH1 0x0 MSTORE PUSH1 0x40 PUSH1 0x0 KECCAK256 PUSH1 0x20 MSTORE DUP1 PUSH1 0x0 MSTORE PUSH1 0x40 PUSH1 0x0 KECCAK256 PUSH1 0x0 SWAP2 POP SWAP2 POP POP DUP1 PUSH1 0x0 ADD SLOAD SWAP1 DUP1 PUSH1 0x1 ADD PUSH1 0x0 SWAP1 SLOAD SWAP1 PUSH2 0x100 EXP SWAP1 DIV PUSH20 0xFFFFFFFFFFFFFFFFFFFFFFFFFFFFFFFFFFFFFFFF AND SWAP1 DUP1 PUSH1 0x2 ADD PUSH1 0x0 SWAP1 SLOAD SWAP1 PUSH2 0x100 EXP SWAP1 DIV PUSH20 0xFFFFFFFFFFFFFFFFFFFFFFFFFFFFFFFFFFFFFFFF AND SWAP1 DUP1 PUSH1 0x2 ADD PUSH1 0x14 SWAP1 SLOAD SWAP1 PUSH2 0x100 EXP SWAP1 DIV PUSH1 0xFF AND SWAP1 DUP1 PUSH1 0x3 ADD SLOAD SWAP1 DUP1 PUSH1 0x4 ADD SLOAD SWAP1 POP DUP7 JUMP JUMPDEST PUSH1 0x0 PUSH1 0x1 PUSH1 0x0 DUP5 PUSH20 0xFFFFFFFFFFFFFFFFFFFFFFFFFFFFFFFFFFFFFFFF AND PUSH20 0xFFFFFFFFFFFFFFFFFFFFFFFFFFFFFFFFFFFFFFFF AND DUP2 MSTORE PUSH1 0x20 ADD SWAP1 DUP2 MSTORE PUSH1 0x20 ADD PUSH1 0x0 KECCAK256 PUSH1 0x0 DUP4 DUP2 MSTORE PUSH1 0x20 ADD SWAP1 DUP2 MSTORE PUSH1 0x20 ADD PUSH1 0x0 KECCAK256 PUSH1 0x2 ADD PUSH1 0x14 SWAP1 SLOAD SWAP1 PUSH2 0x100 EXP SWAP1 DIV PUSH1 0xFF AND SWAP1 POP SWAP3 SWAP2 POP POP JUMP JUMPDEST PUSH1 0x0 PUSH1 0x1 PUSH1 0x0 DUP5 PUSH20 0xFFFFFFFFFFFFFFFFFFFFFFFFFFFFFFFFFFFFFFFF AND PUSH20 0xFFFFFFFFFFFFFFFFFFFFFFFFFFFFFFFFFFFFFFFF AND DUP2 MSTORE PUSH1 0x20 ADD SWAP1 DUP2 MSTORE PUSH1 0x20 ADD PUSH1 0x0 KECCAK256 PUSH1 0x0 DUP4 DUP2 MSTORE PUSH1 0x20 ADD SWAP1 DUP2 MSTORE PUSH1 0x20 ADD PUSH1 0x0 KECCAK256 PUSH1 0x1 ADD PUSH1 0x0 SWAP1 SLOAD SWAP1 PUSH2 0x100 EXP SWAP1 DIV PUSH20 0xFFFFFFFFFFFFFFFFFFFFFFFFFFFFFFFFFFFFFFFF AND SWAP1 POP SWAP3 SWAP2 POP POP JUMP JUMPDEST PUSH1 0x0 PUSH1 0x1 PUSH1 0x0 DUP6 PUSH20 0xFFFFFFFFFFFFFFFFFFFFFFFFFFFFFFFFFFFFFFFF AND PUSH20 0xFFFFFFFFFFFFFFFFFFFFFFFFFFFFFFFFFFFFFFFF AND DUP2 MSTORE PUSH1 0x20 ADD SWAP1 DUP2 MSTORE PUSH1 0x20 ADD PUSH1 0x0 KECCAK256 PUSH1 0x0 DUP5 DUP2 MSTORE PUSH1 0x20 ADD SWAP1 DUP2 MSTORE PUSH1 0x20 ADD PUSH1 0x0 KECCAK256 PUSH1 0x5 ADD PUSH1 0x0 DUP4 DUP2 MSTORE PUSH1 0x20 ADD SWAP1 DUP2 MSTORE PUSH1 0x20 ADD PUSH1 0x0 KECCAK256 PUSH1 0x0 SWAP1 SLOAD SWAP1 PUSH2 0x100 EXP SWAP1 DIV PUSH20 0xFFFFFFFFFFFFFFFFFFFFFFFFFFFFFFFFFFFFFFFF AND SWAP1 POP SWAP4 SWAP3 POP POP POP JUMP JUMPDEST PUSH1 0x0 PUSH1 0x1 PUSH1 0x0 DUP10 PUSH20 0xFFFFFFFFFFFFFFFFFFFFFFFFFFFFFFFFFFFFFFFF AND PUSH20 0xFFFFFFFFFFFFFFFFFFFFFFFFFFFFFFFFFFFFFFFF AND DUP2 MSTORE PUSH1 0x20 ADD SWAP1 DUP2 MSTORE PUSH1 0x20 ADD PUSH1 0x0 KECCAK256 PUSH1 0x0 DUP8 DUP2 MSTORE PUSH1 0x20 ADD SWAP1 DUP2 MSTORE PUSH1 0x20 ADD PUSH1 0x0 KECCAK256 SWAP1 POP PUSH1 0x0 DUP9 SWAP1 POP PUSH1 0x0 DUP9 SWAP1 POP DUP3 PUSH1 0x2 ADD PUSH1 0x14 SWAP1 SLOAD SWAP1 PUSH2 0x100 EXP SWAP1 DIV PUSH1 0xFF AND PUSH2 0x692 JUMPI PUSH1 0x40 MLOAD PUSH32 0x8C379A000000000000000000000000000000000000000000000000000000000 DUP2 MSTORE PUSH1 0x4 ADD PUSH2 0x689 SWAP1 PUSH2 0x36E3 JUMP JUMPDEST PUSH1 0x40 MLOAD DUP1 SWAP2 SUB SWAP1 REVERT JUMPDEST DUP3 PUSH1 0x1 ADD PUSH1 0x0 SWAP1 SLOAD SWAP1 PUSH2 0x100 EXP SWAP1 DIV PUSH20 0xFFFFFFFFFFFFFFFFFFFFFFFFFFFFFFFFFFFFFFFF AND PUSH20 0xFFFFFFFFFFFFFFFFFFFFFFFFFFFFFFFFFFFFFFFF AND CALLER PUSH20 0xFFFFFFFFFFFFFFFFFFFFFFFFFFFFFFFFFFFFFFFF AND EQ ISZERO PUSH2 0x725 JUMPI PUSH1 0x40 MLOAD PUSH32 0x8C379A000000000000000000000000000000000000000000000000000000000 DUP2 MSTORE PUSH1 0x4 ADD PUSH2 0x71C SWAP1 PUSH2 0x3663 JUMP JUMPDEST PUSH1 0x40 MLOAD DUP1 SWAP2 SUB SWAP1 REVERT JUMPDEST DUP3 PUSH1 0x0 ADD SLOAD DUP2 PUSH20 0xFFFFFFFFFFFFFFFFFFFFFFFFFFFFFFFFFFFFFFFF AND PUSH4 0x70A08231 CALLER PUSH1 0x40 MLOAD DUP3 PUSH4 0xFFFFFFFF AND PUSH1 0xE0 SHL DUP2 MSTORE PUSH1 0x4 ADD PUSH2 0x763 SWAP2 SWAP1 PUSH2 0x3523 JUMP JUMPDEST PUSH1 0x20 PUSH1 0x40 MLOAD DUP1 DUP4 SUB DUP2 DUP7 DUP1 EXTCODESIZE ISZERO DUP1 ISZERO PUSH2 0x77B JUMPI PUSH1 0x0 DUP1 REVERT JUMPDEST POP GAS STATICCALL ISZERO DUP1 ISZERO PUSH2 0x78F JUMPI RETURNDATASIZE PUSH1 0x0 DUP1 RETURNDATACOPY RETURNDATASIZE PUSH1 0x0 REVERT JUMPDEST POP POP POP POP PUSH1 0x40 MLOAD RETURNDATASIZE PUSH1 0x1F NOT PUSH1 0x1F DUP3 ADD AND DUP3 ADD DUP1 PUSH1 0x40 MSTORE POP DUP2 ADD SWAP1 PUSH2 0x7B3 SWAP2 SWAP1 PUSH2 0x3318 JUMP JUMPDEST LT ISZERO PUSH2 0x7F4 JUMPI PUSH1 0x40 MLOAD PUSH32 0x8C379A000000000000000000000000000000000000000000000000000000000 DUP2 MSTORE PUSH1 0x4 ADD PUSH2 0x7EB SWAP1 PUSH2 0x3683 JUMP JUMPDEST PUSH1 0x40 MLOAD DUP1 SWAP2 SUB SWAP1 REVERT JUMPDEST DUP1 PUSH20 0xFFFFFFFFFFFFFFFFFFFFFFFFFFFFFFFFFFFFFFFF AND PUSH4 0x23B872DD CALLER DUP6 PUSH1 0x1 ADD PUSH1 0x0 SWAP1 SLOAD SWAP1 PUSH2 0x100 EXP SWAP1 DIV PUSH20 0xFFFFFFFFFFFFFFFFFFFFFFFFFFFFFFFFFFFFFFFF AND PUSH1 0x14 DUP8 PUSH1 0x0 ADD SLOAD PUSH2 0x847 SWAP2 SWAP1 PUSH2 0x3817 JUMP JUMPDEST DUP8 PUSH1 0x0 ADD SLOAD PUSH2 0x856 SWAP2 SWAP1 PUSH2 0x3848 JUMP JUMPDEST PUSH1 0x40 MLOAD DUP5 PUSH4 0xFFFFFFFF AND PUSH1 0xE0 SHL DUP2 MSTORE PUSH1 0x4 ADD PUSH2 0x874 SWAP4 SWAP3 SWAP2 SWAP1 PUSH2 0x3567 JUMP JUMPDEST PUSH1 0x20 PUSH1 0x40 MLOAD DUP1 DUP4 SUB DUP2 PUSH1 0x0 DUP8 DUP1 EXTCODESIZE ISZERO DUP1 ISZERO PUSH2 0x88E JUMPI PUSH1 0x0 DUP1 REVERT JUMPDEST POP GAS CALL ISZERO DUP1 ISZERO PUSH2 0x8A2 JUMPI RETURNDATASIZE PUSH1 0x0 DUP1 RETURNDATACOPY RETURNDATASIZE PUSH1 0x0 REVERT JUMPDEST POP POP POP POP PUSH1 0x40 MLOAD RETURNDATASIZE PUSH1 0x1F NOT PUSH1 0x1F DUP3 ADD AND DUP3 ADD DUP1 PUSH1 0x40 MSTORE POP DUP2 ADD SWAP1 PUSH2 0x8C6 SWAP2 SWAP1 PUSH2 0x32EB JUMP JUMPDEST POP DUP1 PUSH20 0xFFFFFFFFFFFFFFFFFFFFFFFFFFFFFFFFFFFFFFFF AND PUSH4 0x23B872DD CALLER PUSH2 0x8EC PUSH2 0x20A4 JUMP JUMPDEST DUP10 PUSH1 0x40 MLOAD DUP5 PUSH4 0xFFFFFFFF AND PUSH1 0xE0 SHL DUP2 MSTORE PUSH1 0x4 ADD PUSH2 0x90B SWAP4 SWAP3 SWAP2 SWAP1 PUSH2 0x3567 JUMP JUMPDEST PUSH1 0x20 PUSH1 0x40 MLOAD DUP1 DUP4 SUB DUP2 PUSH1 0x0 DUP8 DUP1 EXTCODESIZE ISZERO DUP1 ISZERO PUSH2 0x925 JUMPI PUSH1 0x0 DUP1 REVERT JUMPDEST POP GAS CALL ISZERO DUP1 ISZERO PUSH2 0x939 JUMPI RETURNDATASIZE PUSH1 0x0 DUP1 RETURNDATACOPY RETURNDATASIZE PUSH1 0x0 REVERT JUMPDEST POP POP POP POP PUSH1 0x40 MLOAD RETURNDATASIZE PUSH1 0x1F NOT PUSH1 0x1F DUP3 ADD AND DUP3 ADD DUP1 PUSH1 0x40 MSTORE POP DUP2 ADD SWAP1 PUSH2 0x95D SWAP2 SWAP1 PUSH2 0x32EB JUMP JUMPDEST POP PUSH1 0x0 PUSH20 0xFFFFFFFFFFFFFFFFFFFFFFFFFFFFFFFFFFFFFFFF AND DUP8 PUSH20 0xFFFFFFFFFFFFFFFFFFFFFFFFFFFFFFFFFFFFFFFF AND EQ PUSH2 0xA23 JUMPI DUP1 PUSH20 0xFFFFFFFFFFFFFFFFFFFFFFFFFFFFFFFFFFFFFFFF AND PUSH4 0x23B872DD CALLER DUP10 DUP8 PUSH1 0x40 MLOAD DUP5 PUSH4 0xFFFFFFFF AND PUSH1 0xE0 SHL DUP2 MSTORE PUSH1 0x4 ADD PUSH2 0x9CF SWAP4 SWAP3 SWAP2 SWAP1 PUSH2 0x3567 JUMP JUMPDEST PUSH1 0x20 PUSH1 0x40 MLOAD DUP1 DUP4 SUB DUP2 PUSH1 0x0 DUP8 DUP1 EXTCODESIZE ISZERO DUP1 ISZERO PUSH2 0x9E9 JUMPI PUSH1 0x0 DUP1 REVERT JUMPDEST POP GAS CALL ISZERO DUP1 ISZERO PUSH2 0x9FD JUMPI RETURNDATASIZE PUSH1 0x0 DUP1 RETURNDATACOPY RETURNDATASIZE PUSH1 0x0 REVERT JUMPDEST POP POP POP POP PUSH1 0x40 MLOAD RETURNDATASIZE PUSH1 0x1F NOT PUSH1 0x1F DUP3 ADD AND DUP3 ADD DUP1 PUSH1 0x40 MSTORE POP DUP2 ADD SWAP1 PUSH2 0xA21 SWAP2 SWAP1 PUSH2 0x32EB JUMP JUMPDEST POP JUMPDEST PUSH1 0x0 JUMPDEST PUSH1 0x5 DUP2 LT ISZERO PUSH2 0xB7A JUMPI PUSH1 0x0 PUSH20 0xFFFFFFFFFFFFFFFFFFFFFFFFFFFFFFFFFFFFFFFF AND DUP5 PUSH1 0x5 ADD PUSH1 0x0 DUP4 DUP2 MSTORE PUSH1 0x20 ADD SWAP1 DUP2 MSTORE PUSH1 0x20 ADD PUSH1 0x0 KECCAK256 PUSH1 0x0 SWAP1 SLOAD SWAP1 PUSH2 0x100 EXP SWAP1 DIV PUSH20 0xFFFFFFFFFFFFFFFFFFFFFFFFFFFFFFFFFFFFFFFF AND PUSH20 0xFFFFFFFFFFFFFFFFFFFFFFFFFFFFFFFFFFFFFFFF AND EQ PUSH2 0xB62 JUMPI DUP2 PUSH20 0xFFFFFFFFFFFFFFFFFFFFFFFFFFFFFFFFFFFFFFFF AND PUSH4 0x23B872DD CALLER DUP7 PUSH1 0x5 ADD PUSH1 0x0 DUP6 DUP2 MSTORE PUSH1 0x20 ADD SWAP1 DUP2 MSTORE PUSH1 0x20 ADD PUSH1 0x0 KECCAK256 PUSH1 0x0 SWAP1 SLOAD SWAP1 PUSH2 0x100 EXP SWAP1 DIV PUSH20 0xFFFFFFFFFFFFFFFFFFFFFFFFFFFFFFFFFFFFFFFF AND DUP10 PUSH1 0x40 MLOAD DUP5 PUSH4 0xFFFFFFFF AND PUSH1 0xE0 SHL DUP2 MSTORE PUSH1 0x4 ADD PUSH2 0xB0A SWAP4 SWAP3 SWAP2 SWAP1 PUSH2 0x3567 JUMP JUMPDEST PUSH1 0x20 PUSH1 0x40 MLOAD DUP1 DUP4 SUB DUP2 PUSH1 0x0 DUP8 DUP1 EXTCODESIZE ISZERO DUP1 ISZERO PUSH2 0xB24 JUMPI PUSH1 0x0 DUP1 REVERT JUMPDEST POP GAS CALL ISZERO DUP1 ISZERO PUSH2 0xB38 JUMPI RETURNDATASIZE PUSH1 0x0 DUP1 RETURNDATACOPY RETURNDATASIZE PUSH1 0x0 REVERT JUMPDEST POP POP POP POP PUSH1 0x40 MLOAD RETURNDATASIZE PUSH1 0x1F NOT PUSH1 0x1F DUP3 ADD AND DUP3 ADD DUP1 PUSH1 0x40 MSTORE POP DUP2 ADD SWAP1 PUSH2 0xB5C SWAP2 SWAP1 PUSH2 0x32EB JUMP JUMPDEST POP PUSH2 0xB67 JUMP JUMPDEST PUSH2 0xB7A JUMP JUMPDEST DUP1 DUP1 PUSH2 0xB72 SWAP1 PUSH2 0x38C4 JUMP JUMPDEST SWAP2 POP POP PUSH2 0xA26 JUMP JUMPDEST POP DUP2 PUSH20 0xFFFFFFFFFFFFFFFFFFFFFFFFFFFFFFFFFFFFFFFF AND PUSH4 0xB88D4FDE DUP5 PUSH1 0x1 ADD PUSH1 0x0 SWAP1 SLOAD SWAP1 PUSH2 0x100 EXP SWAP1 DIV PUSH20 0xFFFFFFFFFFFFFFFFFFFFFFFFFFFFFFFFFFFFFFFF AND CALLER DUP12 PUSH1 0x40 MLOAD DUP5 PUSH4 0xFFFFFFFF AND PUSH1 0xE0 SHL DUP2 MSTORE PUSH1 0x4 ADD PUSH2 0xBDC SWAP4 SWAP3 SWAP2 SWAP1 PUSH2 0x359E JUMP JUMPDEST PUSH1 0x0 PUSH1 0x40 MLOAD DUP1 DUP4 SUB DUP2 PUSH1 0x0 DUP8 DUP1 EXTCODESIZE ISZERO DUP1 ISZERO PUSH2 0xBF6 JUMPI PUSH1 0x0 DUP1 REVERT JUMPDEST POP GAS CALL ISZERO DUP1 ISZERO PUSH2 0xC0A JUMPI RETURNDATASIZE PUSH1 0x0 DUP1 RETURNDATACOPY RETURNDATASIZE PUSH1 0x0 REVERT JUMPDEST POP POP POP POP CALLER DUP4 PUSH1 0x2 ADD PUSH1 0x0 PUSH2 0x100 EXP DUP2 SLOAD DUP2 PUSH20 0xFFFFFFFFFFFFFFFFFFFFFFFFFFFFFFFFFFFFFFFF MUL NOT AND SWAP1 DUP4 PUSH20 0xFFFFFFFFFFFFFFFFFFFFFFFFFFFFFFFFFFFFFFFF AND MUL OR SWAP1 SSTORE POP PUSH1 0x5 DUP4 PUSH1 0x4 ADD SLOAD LT ISZERO PUSH2 0xC7B JUMPI PUSH1 0x1 DUP4 PUSH1 0x4 ADD PUSH1 0x0 DUP3 DUP3 SLOAD PUSH2 0xC73 SWAP2 SWAP1 PUSH2 0x37C1 JUMP JUMPDEST SWAP3 POP POP DUP2 SWAP1 SSTORE POP JUMPDEST PUSH1 0x3 DUP4 PUSH1 0x3 ADD SLOAD GT PUSH2 0xD24 JUMPI DUP3 PUSH1 0x1 ADD PUSH1 0x0 SWAP1 SLOAD SWAP1 PUSH2 0x100 EXP SWAP1 DIV PUSH20 0xFFFFFFFFFFFFFFFFFFFFFFFFFFFFFFFFFFFFFFFF AND DUP4 PUSH1 0x5 ADD PUSH1 0x0 DUP6 PUSH1 0x3 ADD SLOAD DUP2 MSTORE PUSH1 0x20 ADD SWAP1 DUP2 MSTORE PUSH1 0x20 ADD PUSH1 0x0 KECCAK256 PUSH1 0x0 PUSH2 0x100 EXP DUP2 SLOAD DUP2 PUSH20 0xFFFFFFFFFFFFFFFFFFFFFFFFFFFFFFFFFFFFFFFF MUL NOT AND SWAP1 DUP4 PUSH20 0xFFFFFFFFFFFFFFFFFFFFFFFFFFFFFFFFFFFFFFFF AND MUL OR SWAP1 SSTORE POP PUSH1 0x1 DUP4 PUSH1 0x3 ADD PUSH1 0x0 DUP3 DUP3 SLOAD PUSH2 0xD18 SWAP2 SWAP1 PUSH2 0x37C1 JUMP JUMPDEST SWAP3 POP POP DUP2 SWAP1 SSTORE POP PUSH2 0xDAB JUMP JUMPDEST DUP3 PUSH1 0x1 ADD PUSH1 0x0 SWAP1 SLOAD SWAP1 PUSH2 0x100 EXP SWAP1 DIV PUSH20 0xFFFFFFFFFFFFFFFFFFFFFFFFFFFFFFFFFFFFFFFF AND DUP4 PUSH1 0x5 ADD PUSH1 0x0 DUP6 PUSH1 0x3 ADD SLOAD DUP2 MSTORE PUSH1 0x20 ADD SWAP1 DUP2 MSTORE PUSH1 0x20 ADD PUSH1 0x0 KECCAK256 PUSH1 0x0 PUSH2 0x100 EXP DUP2 SLOAD DUP2 PUSH20 0xFFFFFFFFFFFFFFFFFFFFFFFFFFFFFFFFFFFFFFFF MUL NOT AND SWAP1 DUP4 PUSH20 0xFFFFFFFFFFFFFFFFFFFFFFFFFFFFFFFFFFFFFFFF AND MUL OR SWAP1 SSTORE POP PUSH1 0x0 DUP4 PUSH1 0x3 ADD DUP2 SWAP1 SSTORE POP JUMPDEST PUSH1 0x0 DUP4 PUSH1 0x2 ADD PUSH1 0x14 PUSH2 0x100 EXP DUP2 SLOAD DUP2 PUSH1 0xFF MUL NOT AND SWAP1 DUP4 ISZERO ISZERO MUL OR SWAP1 SSTORE POP DUP3 PUSH1 0x2 ADD PUSH1 0x14 SWAP1 SLOAD SWAP1 PUSH2 0x100 EXP SWAP1 DIV PUSH1 0xFF AND ISZERO ISZERO DUP9 CALLER PUSH20 0xFFFFFFFFFFFFFFFFFFFFFFFFFFFFFFFFFFFFFFFF AND PUSH32 0xA7CD299F7EBC29460AD99CF3EA75776D7CD038A63A59FA595E86441F8190EF90 DUP7 PUSH1 0x0 ADD SLOAD PUSH1 0x40 MLOAD PUSH2 0xE27 SWAP2 SWAP1 PUSH2 0x3723 JUMP JUMPDEST PUSH1 0x40 MLOAD DUP1 SWAP2 SUB SWAP1 LOG4 POP POP POP POP POP POP POP POP POP POP JUMP JUMPDEST PUSH1 0x0 PUSH1 0x1 PUSH1 0x0 DUP5 PUSH20 0xFFFFFFFFFFFFFFFFFFFFFFFFFFFFFFFFFFFFFFFF AND PUSH20 0xFFFFFFFFFFFFFFFFFFFFFFFFFFFFFFFFFFFFFFFF AND DUP2 MSTORE PUSH1 0x20 ADD SWAP1 DUP2 MSTORE PUSH1 0x20 ADD PUSH1 0x0 KECCAK256 PUSH1 0x0 DUP4 DUP2 MSTORE PUSH1 0x20 ADD SWAP1 DUP2 MSTORE PUSH1 0x20 ADD PUSH1 0x0 KECCAK256 PUSH1 0x2 ADD PUSH1 0x0 SWAP1 SLOAD SWAP1 PUSH2 0x100 EXP SWAP1 DIV PUSH20 0xFFFFFFFFFFFFFFFFFFFFFFFFFFFFFFFFFFFFFFFF AND SWAP1 POP SWAP3 SWAP2 POP POP JUMP JUMPDEST PUSH1 0x0 PUSH1 0x1 PUSH1 0x0 DUP5 PUSH20 0xFFFFFFFFFFFFFFFFFFFFFFFFFFFFFFFFFFFFFFFF AND PUSH20 0xFFFFFFFFFFFFFFFFFFFFFFFFFFFFFFFFFFFFFFFF AND DUP2 MSTORE PUSH1 0x20 ADD SWAP1 DUP2 MSTORE PUSH1 0x20 ADD PUSH1 0x0 KECCAK256 PUSH1 0x0 DUP4 DUP2 MSTORE PUSH1 0x20 ADD SWAP1 DUP2 MSTORE PUSH1 0x20 ADD PUSH1 0x0 KECCAK256 PUSH1 0x0 ADD SLOAD SWAP1 POP SWAP3 SWAP2 POP POP JUMP JUMPDEST PUSH2 0xF1F PUSH2 0x2D93 JUMP JUMPDEST PUSH20 0xFFFFFFFFFFFFFFFFFFFFFFFFFFFFFFFFFFFFFFFF AND PUSH2 0xF3D PUSH2 0x20A4 JUMP JUMPDEST PUSH20 0xFFFFFFFFFFFFFFFFFFFFFFFFFFFFFFFFFFFFFFFF AND EQ PUSH2 0xF93 JUMPI PUSH1 0x40 MLOAD PUSH32 0x8C379A000000000000000000000000000000000000000000000000000000000 DUP2 MSTORE PUSH1 0x4 ADD PUSH2 0xF8A SWAP1 PUSH2 0x36C3 JUMP JUMPDEST PUSH1 0x40 MLOAD DUP1 SWAP2 SUB SWAP1 REVERT JUMPDEST PUSH2 0xF9D PUSH1 0x0 PUSH2 0x2D9B JUMP JUMPDEST JUMP JUMPDEST PUSH1 0x0 DUP3 SWAP1 POP PUSH1 0x0 PUSH1 0x1 PUSH1 0x0 DUP6 PUSH20 0xFFFFFFFFFFFFFFFFFFFFFFFFFFFFFFFFFFFFFFFF AND PUSH20 0xFFFFFFFFFFFFFFFFFFFFFFFFFFFFFFFFFFFFFFFF AND DUP2 MSTORE PUSH1 0x20 ADD SWAP1 DUP2 MSTORE PUSH1 0x20 ADD PUSH1 0x0 KECCAK256 PUSH1 0x0 DUP5 DUP2 MSTORE PUSH1 0x20 ADD SWAP1 DUP2 MSTORE PUSH1 0x20 ADD PUSH1 0x0 KECCAK256 SWAP1 POP CALLER PUSH20 0xFFFFFFFFFFFFFFFFFFFFFFFFFFFFFFFFFFFFFFFF AND DUP3 PUSH20 0xFFFFFFFFFFFFFFFFFFFFFFFFFFFFFFFFFFFFFFFF AND PUSH4 0x6352211E DUP6 PUSH1 0x40 MLOAD DUP3 PUSH4 0xFFFFFFFF AND PUSH1 0xE0 SHL DUP2 MSTORE PUSH1 0x4 ADD PUSH2 0x1048 SWAP2 SWAP1 PUSH2 0x3723 JUMP JUMPDEST PUSH1 0x20 PUSH1 0x40 MLOAD DUP1 DUP4 SUB DUP2 DUP7 DUP1 EXTCODESIZE ISZERO DUP1 ISZERO PUSH2 0x1060 JUMPI PUSH1 0x0 DUP1 REVERT JUMPDEST POP GAS STATICCALL ISZERO DUP1 ISZERO PUSH2 0x1074 JUMPI RETURNDATASIZE PUSH1 0x0 DUP1 RETURNDATACOPY RETURNDATASIZE PUSH1 0x0 REVERT JUMPDEST POP POP POP POP PUSH1 0x40 MLOAD RETURNDATASIZE PUSH1 0x1F NOT PUSH1 0x1F DUP3 ADD AND DUP3 ADD DUP1 PUSH1 0x40 MSTORE POP DUP2 ADD SWAP1 PUSH2 0x1098 SWAP2 SWAP1 PUSH2 0x2F4B JUMP JUMPDEST PUSH20 0xFFFFFFFFFFFFFFFFFFFFFFFFFFFFFFFFFFFFFFFF AND EQ PUSH2 0x10EE JUMPI PUSH1 0x40 MLOAD PUSH32 0x8C379A000000000000000000000000000000000000000000000000000000000 DUP2 MSTORE PUSH1 0x4 ADD PUSH2 0x10E5 SWAP1 PUSH2 0x3703 JUMP JUMPDEST PUSH1 0x40 MLOAD DUP1 SWAP2 SUB SWAP1 REVERT JUMPDEST DUP2 PUSH20 0xFFFFFFFFFFFFFFFFFFFFFFFFFFFFFFFFFFFFFFFF AND PUSH4 0xE985E9C5 CALLER ADDRESS PUSH1 0x40 MLOAD DUP4 PUSH4 0xFFFFFFFF AND PUSH1 0xE0 SHL DUP2 MSTORE PUSH1 0x4 ADD PUSH2 0x1129 SWAP3 SWAP2 SWAP1 PUSH2 0x353E JUMP JUMPDEST PUSH1 0x20 PUSH1 0x40 MLOAD DUP1 DUP4 SUB DUP2 DUP7 DUP1 EXTCODESIZE ISZERO DUP1 ISZERO PUSH2 0x1141 JUMPI PUSH1 0x0 DUP1 REVERT JUMPDEST POP GAS STATICCALL ISZERO DUP1 ISZERO PUSH2 0x1155 JUMPI RETURNDATASIZE PUSH1 0x0 DUP1 RETURNDATACOPY RETURNDATASIZE PUSH1 0x0 REVERT JUMPDEST POP POP POP POP PUSH1 0x40 MLOAD RETURNDATASIZE PUSH1 0x1F NOT PUSH1 0x1F DUP3 ADD AND DUP3 ADD DUP1 PUSH1 0x40 MSTORE POP DUP2 ADD SWAP1 PUSH2 0x1179 SWAP2 SWAP1 PUSH2 0x32EB JUMP JUMPDEST PUSH2 0x11B8 JUMPI PUSH1 0x40 MLOAD PUSH32 0x8C379A000000000000000000000000000000000000000000000000000000000 DUP2 MSTORE PUSH1 0x4 ADD PUSH2 0x11AF SWAP1 PUSH2 0x3623 JUMP JUMPDEST PUSH1 0x40 MLOAD DUP1 SWAP2 SUB SWAP1 REVERT JUMPDEST DUP5 DUP2 PUSH1 0x0 ADD DUP2 SWAP1 SSTORE POP CALLER DUP2 PUSH1 0x1 ADD PUSH1 0x0 PUSH2 0x100 EXP DUP2 SLOAD DUP2 PUSH20 0xFFFFFFFFFFFFFFFFFFFFFFFFFFFFFFFFFFFFFFFF MUL NOT AND SWAP1 DUP4 PUSH20 0xFFFFFFFFFFFFFFFFFFFFFFFFFFFFFFFFFFFFFFFF AND MUL OR SWAP1 SSTORE POP CALLER DUP2 PUSH1 0x2 ADD PUSH1 0x0 PUSH2 0x100 EXP DUP2 SLOAD DUP2 PUSH20 0xFFFFFFFFFFFFFFFFFFFFFFFFFFFFFFFFFFFFFFFF MUL NOT AND SWAP1 DUP4 PUSH20 0xFFFFFFFFFFFFFFFFFFFFFFFFFFFFFFFFFFFFFFFF AND MUL OR SWAP1 SSTORE POP PUSH1 0x1 DUP2 PUSH1 0x2 ADD PUSH1 0x14 PUSH2 0x100 EXP DUP2 SLOAD DUP2 PUSH1 0xFF MUL NOT AND SWAP1 DUP4 ISZERO ISZERO MUL OR SWAP1 SSTORE POP DUP1 PUSH1 0x2 ADD PUSH1 0x14 SWAP1 SLOAD SWAP1 PUSH2 0x100 EXP SWAP1 DIV PUSH1 0xFF AND ISZERO ISZERO DUP4 CALLER PUSH20 0xFFFFFFFFFFFFFFFFFFFFFFFFFFFFFFFFFFFFFFFF AND PUSH32 0xA7CD299F7EBC29460AD99CF3EA75776D7CD038A63A59FA595E86441F8190EF90 DUP5 PUSH1 0x0 ADD SLOAD PUSH1 0x40 MLOAD PUSH2 0x12C3 SWAP2 SWAP1 PUSH2 0x3723 JUMP JUMPDEST PUSH1 0x40 MLOAD DUP1 SWAP2 SUB SWAP1 LOG4 POP POP POP POP POP JUMP JUMPDEST PUSH1 0x0 PUSH1 0x1 PUSH1 0x0 DUP9 PUSH20 0xFFFFFFFFFFFFFFFFFFFFFFFFFFFFFFFFFFFFFFFF AND PUSH20 0xFFFFFFFFFFFFFFFFFFFFFFFFFFFFFFFFFFFFFFFF AND DUP2 MSTORE PUSH1 0x20 ADD SWAP1 DUP2 MSTORE PUSH1 0x20 ADD PUSH1 0x0 KECCAK256 PUSH1 0x0 DUP8 DUP2 MSTORE PUSH1 0x20 ADD SWAP1 DUP2 MSTORE PUSH1 0x20 ADD PUSH1 0x0 KECCAK256 SWAP1 POP PUSH1 0x0 DUP8 SWAP1 POP DUP2 PUSH1 0x2 ADD PUSH1 0x14 SWAP1 SLOAD SWAP1 PUSH2 0x100 EXP SWAP1 DIV PUSH1 0xFF AND PUSH2 0x137C JUMPI PUSH1 0x40 MLOAD PUSH32 0x8C379A000000000000000000000000000000000000000000000000000000000 DUP2 MSTORE PUSH1 0x4 ADD PUSH2 0x1373 SWAP1 PUSH2 0x36E3 JUMP JUMPDEST PUSH1 0x40 MLOAD DUP1 SWAP2 SUB SWAP1 REVERT JUMPDEST DUP2 PUSH1 0x1 ADD PUSH1 0x0 SWAP1 SLOAD SWAP1 PUSH2 0x100 EXP SWAP1 DIV PUSH20 0xFFFFFFFFFFFFFFFFFFFFFFFFFFFFFFFFFFFFFFFF AND PUSH20 0xFFFFFFFFFFFFFFFFFFFFFFFFFFFFFFFFFFFFFFFF AND CALLER PUSH20 0xFFFFFFFFFFFFFFFFFFFFFFFFFFFFFFFFFFFFFFFF AND EQ ISZERO PUSH2 0x140F JUMPI PUSH1 0x40 MLOAD PUSH32 0x8C379A000000000000000000000000000000000000000000000000000000000 DUP2 MSTORE PUSH1 0x4 ADD PUSH2 0x1406 SWAP1 PUSH2 0x3663 JUMP JUMPDEST PUSH1 0x40 MLOAD DUP1 SWAP2 SUB SWAP1 REVERT JUMPDEST DUP2 PUSH1 0x0 ADD SLOAD CALLVALUE LT ISZERO PUSH2 0x1456 JUMPI PUSH1 0x40 MLOAD PUSH32 0x8C379A000000000000000000000000000000000000000000000000000000000 DUP2 MSTORE PUSH1 0x4 ADD PUSH2 0x144D SWAP1 PUSH2 0x3683 JUMP JUMPDEST PUSH1 0x40 MLOAD DUP1 SWAP2 SUB SWAP1 REVERT JUMPDEST DUP2 PUSH1 0x1 ADD PUSH1 0x0 SWAP1 SLOAD SWAP1 PUSH2 0x100 EXP SWAP1 DIV PUSH20 0xFFFFFFFFFFFFFFFFFFFFFFFFFFFFFFFFFFFFFFFF AND PUSH20 0xFFFFFFFFFFFFFFFFFFFFFFFFFFFFFFFFFFFFFFFF AND PUSH2 0x8FC PUSH1 0x14 DUP5 PUSH1 0x0 ADD SLOAD PUSH2 0x14A5 SWAP2 SWAP1 PUSH2 0x3817 JUMP JUMPDEST DUP5 PUSH1 0x0 ADD SLOAD PUSH2 0x14B4 SWAP2 SWAP1 PUSH2 0x3848 JUMP JUMPDEST SWAP1 DUP2 ISZERO MUL SWAP1 PUSH1 0x40 MLOAD PUSH1 0x0 PUSH1 0x40 MLOAD DUP1 DUP4 SUB DUP2 DUP6 DUP9 DUP9 CALL SWAP4 POP POP POP POP ISZERO DUP1 ISZERO PUSH2 0x14DF JUMPI RETURNDATASIZE PUSH1 0x0 DUP1 RETURNDATACOPY RETURNDATASIZE PUSH1 0x0 REVERT JUMPDEST POP PUSH2 0x14E8 PUSH2 0x20A4 JUMP JUMPDEST PUSH20 0xFFFFFFFFFFFFFFFFFFFFFFFFFFFFFFFFFFFFFFFF AND PUSH2 0x8FC DUP7 SWAP1 DUP2 ISZERO MUL SWAP1 PUSH1 0x40 MLOAD PUSH1 0x0 PUSH1 0x40 MLOAD DUP1 DUP4 SUB DUP2 DUP6 DUP9 DUP9 CALL SWAP4 POP POP POP POP ISZERO DUP1 ISZERO PUSH2 0x152D JUMPI RETURNDATASIZE PUSH1 0x0 DUP1 RETURNDATACOPY RETURNDATASIZE PUSH1 0x0 REVERT JUMPDEST POP PUSH1 0x0 PUSH20 0xFFFFFFFFFFFFFFFFFFFFFFFFFFFFFFFFFFFFFFFF AND DUP7 PUSH20 0xFFFFFFFFFFFFFFFFFFFFFFFFFFFFFFFFFFFFFFFF AND EQ PUSH2 0x15AA JUMPI DUP6 PUSH20 0xFFFFFFFFFFFFFFFFFFFFFFFFFFFFFFFFFFFFFFFF AND PUSH2 0x8FC DUP5 SWAP1 DUP2 ISZERO MUL SWAP1 PUSH1 0x40 MLOAD PUSH1 0x0 PUSH1 0x40 MLOAD DUP1 DUP4 SUB DUP2 DUP6 DUP9 DUP9 CALL SWAP4 POP POP POP POP ISZERO DUP1 ISZERO PUSH2 0x15A8 JUMPI RETURNDATASIZE PUSH1 0x0 DUP1 RETURNDATACOPY RETURNDATASIZE PUSH1 0x0 REVERT JUMPDEST POP JUMPDEST PUSH1 0x0 JUMPDEST PUSH1 0x5 DUP2 LT ISZERO PUSH2 0x16B8 JUMPI PUSH1 0x0 PUSH20 0xFFFFFFFFFFFFFFFFFFFFFFFFFFFFFFFFFFFFFFFF AND DUP4 PUSH1 0x5 ADD PUSH1 0x0 DUP4 DUP2 MSTORE PUSH1 0x20 ADD SWAP1 DUP2 MSTORE PUSH1 0x20 ADD PUSH1 0x0 KECCAK256 PUSH1 0x0 SWAP1 SLOAD SWAP1 PUSH2 0x100 EXP SWAP1 DIV PUSH20 0xFFFFFFFFFFFFFFFFFFFFFFFFFFFFFFFFFFFFFFFF AND PUSH20 0xFFFFFFFFFFFFFFFFFFFFFFFFFFFFFFFFFFFFFFFF AND EQ PUSH2 0x16A0 JUMPI DUP3 PUSH1 0x5 ADD PUSH1 0x0 DUP3 DUP2 MSTORE PUSH1 0x20 ADD SWAP1 DUP2 MSTORE PUSH1 0x20 ADD PUSH1 0x0 KECCAK256 PUSH1 0x0 SWAP1 SLOAD SWAP1 PUSH2 0x100 EXP SWAP1 DIV PUSH20 0xFFFFFFFFFFFFFFFFFFFFFFFFFFFFFFFFFFFFFFFF AND PUSH20 0xFFFFFFFFFFFFFFFFFFFFFFFFFFFFFFFFFFFFFFFF AND PUSH2 0x8FC DUP7 SWAP1 DUP2 ISZERO MUL SWAP1 PUSH1 0x40 MLOAD PUSH1 0x0 PUSH1 0x40 MLOAD DUP1 DUP4 SUB DUP2 DUP6 DUP9 DUP9 CALL SWAP4 POP POP POP POP ISZERO DUP1 ISZERO PUSH2 0x169A JUMPI RETURNDATASIZE PUSH1 0x0 DUP1 RETURNDATACOPY RETURNDATASIZE PUSH1 0x0 REVERT JUMPDEST POP PUSH2 0x16A5 JUMP JUMPDEST PUSH2 0x16B8 JUMP JUMPDEST DUP1 DUP1 PUSH2 0x16B0 SWAP1 PUSH2 0x38C4 JUMP JUMPDEST SWAP2 POP POP PUSH2 0x15AD JUMP JUMPDEST POP DUP1 PUSH20 0xFFFFFFFFFFFFFFFFFFFFFFFFFFFFFFFFFFFFFFFF AND PUSH4 0xB88D4FDE DUP4 PUSH1 0x1 ADD PUSH1 0x0 SWAP1 SLOAD SWAP1 PUSH2 0x100 EXP SWAP1 DIV PUSH20 0xFFFFFFFFFFFFFFFFFFFFFFFFFFFFFFFFFFFFFFFF AND CALLER DUP11 PUSH1 0x40 MLOAD DUP5 PUSH4 0xFFFFFFFF AND PUSH1 0xE0 SHL DUP2 MSTORE PUSH1 0x4 ADD PUSH2 0x171A SWAP4 SWAP3 SWAP2 SWAP1 PUSH2 0x359E JUMP JUMPDEST PUSH1 0x0 PUSH1 0x40 MLOAD DUP1 DUP4 SUB DUP2 PUSH1 0x0 DUP8 DUP1 EXTCODESIZE ISZERO DUP1 ISZERO PUSH2 0x1734 JUMPI PUSH1 0x0 DUP1 REVERT JUMPDEST POP GAS CALL ISZERO DUP1 ISZERO PUSH2 0x1748 JUMPI RETURNDATASIZE PUSH1 0x0 DUP1 RETURNDATACOPY RETURNDATASIZE PUSH1 0x0 REVERT JUMPDEST POP POP POP POP CALLER DUP3 PUSH1 0x2 ADD PUSH1 0x0 PUSH2 0x100 EXP DUP2 SLOAD DUP2 PUSH20 0xFFFFFFFFFFFFFFFFFFFFFFFFFFFFFFFFFFFFFFFF MUL NOT AND SWAP1 DUP4 PUSH20 0xFFFFFFFFFFFFFFFFFFFFFFFFFFFFFFFFFFFFFFFF AND MUL OR SWAP1 SSTORE POP PUSH1 0x5 DUP3 PUSH1 0x4 ADD SLOAD LT ISZERO PUSH2 0x17B9 JUMPI PUSH1 0x1 DUP3 PUSH1 0x4 ADD PUSH1 0x0 DUP3 DUP3 SLOAD PUSH2 0x17B1 SWAP2 SWAP1 PUSH2 0x37C1 JUMP JUMPDEST SWAP3 POP POP DUP2 SWAP1 SSTORE POP JUMPDEST PUSH1 0x3 DUP3 PUSH1 0x3 ADD SLOAD GT PUSH2 0x1862 JUMPI DUP2 PUSH1 0x1 ADD PUSH1 0x0 SWAP1 SLOAD SWAP1 PUSH2 0x100 EXP SWAP1 DIV PUSH20 0xFFFFFFFFFFFFFFFFFFFFFFFFFFFFFFFFFFFFFFFF AND DUP3 PUSH1 0x5 ADD PUSH1 0x0 DUP5 PUSH1 0x3 ADD SLOAD DUP2 MSTORE PUSH1 0x20 ADD SWAP1 DUP2 MSTORE PUSH1 0x20 ADD PUSH1 0x0 KECCAK256 PUSH1 0x0 PUSH2 0x100 EXP DUP2 SLOAD DUP2 PUSH20 0xFFFFFFFFFFFFFFFFFFFFFFFFFFFFFFFFFFFFFFFF MUL NOT AND SWAP1 DUP4 PUSH20 0xFFFFFFFFFFFFFFFFFFFFFFFFFFFFFFFFFFFFFFFF AND MUL OR SWAP1 SSTORE POP PUSH1 0x1 DUP3 PUSH1 0x3 ADD PUSH1 0x0 DUP3 DUP3 SLOAD PUSH2 0x1856 SWAP2 SWAP1 PUSH2 0x37C1 JUMP JUMPDEST SWAP3 POP POP DUP2 SWAP1 SSTORE POP PUSH2 0x18E9 JUMP JUMPDEST DUP2 PUSH1 0x1 ADD PUSH1 0x0 SWAP1 SLOAD SWAP1 PUSH2 0x100 EXP SWAP1 DIV PUSH20 0xFFFFFFFFFFFFFFFFFFFFFFFFFFFFFFFFFFFFFFFF AND DUP3 PUSH1 0x5 ADD PUSH1 0x0 DUP5 PUSH1 0x3 ADD SLOAD DUP2 MSTORE PUSH1 0x20 ADD SWAP1 DUP2 MSTORE PUSH1 0x20 ADD PUSH1 0x0 KECCAK256 PUSH1 0x0 PUSH2 0x100 EXP DUP2 SLOAD DUP2 PUSH20 0xFFFFFFFFFFFFFFFFFFFFFFFFFFFFFFFFFFFFFFFF MUL NOT AND SWAP1 DUP4 PUSH20 0xFFFFFFFFFFFFFFFFFFFFFFFFFFFFFFFFFFFFFFFF AND MUL OR SWAP1 SSTORE POP PUSH1 0x0 DUP3 PUSH1 0x3 ADD DUP2 SWAP1 SSTORE POP JUMPDEST PUSH1 0x0 DUP3 PUSH1 0x2 ADD PUSH1 0x14 PUSH2 0x100 EXP DUP2 SLOAD DUP2 PUSH1 0xFF MUL NOT AND SWAP1 DUP4 ISZERO ISZERO MUL OR SWAP1 SSTORE POP DUP2 PUSH1 0x2 ADD PUSH1 0x14 SWAP1 SLOAD SWAP1 PUSH2 0x100 EXP SWAP1 DIV PUSH1 0xFF AND ISZERO ISZERO DUP8 CALLER PUSH20 0xFFFFFFFFFFFFFFFFFFFFFFFFFFFFFFFFFFFFFFFF AND PUSH32 0xA7CD299F7EBC29460AD99CF3EA75776D7CD038A63A59FA595E86441F8190EF90 DUP6 PUSH1 0x0 ADD SLOAD PUSH1 0x40 MLOAD PUSH2 0x1965 SWAP2 SWAP1 PUSH2 0x3723 JUMP JUMPDEST PUSH1 0x40 MLOAD DUP1 SWAP2 SUB SWAP1 LOG4 POP POP POP POP POP POP POP POP JUMP JUMPDEST PUSH1 0x0 JUMPDEST DUP8 DUP8 SWAP1 POP DUP2 LT ISZERO PUSH2 0x2099 JUMPI PUSH1 0x0 PUSH1 0x1 PUSH1 0x0 DUP12 PUSH20 0xFFFFFFFFFFFFFFFFFFFFFFFFFFFFFFFFFFFFFFFF AND PUSH20 0xFFFFFFFFFFFFFFFFFFFFFFFFFFFFFFFFFFFFFFFF AND DUP2 MSTORE PUSH1 0x20 ADD SWAP1 DUP2 MSTORE PUSH1 0x20 ADD PUSH1 0x0 KECCAK256 PUSH1 0x0 DUP11 DUP11 DUP6 DUP2 DUP2 LT PUSH2 0x19DB JUMPI PUSH2 0x19DA PUSH2 0x396B JUMP JUMPDEST JUMPDEST SWAP1 POP PUSH1 0x20 MUL ADD CALLDATALOAD DUP2 MSTORE PUSH1 0x20 ADD SWAP1 DUP2 MSTORE PUSH1 0x20 ADD PUSH1 0x0 KECCAK256 SWAP1 POP PUSH1 0x0 DUP11 SWAP1 POP DUP2 PUSH1 0x2 ADD PUSH1 0x14 SWAP1 SLOAD SWAP1 PUSH2 0x100 EXP SWAP1 DIV PUSH1 0xFF AND PUSH2 0x1A48 JUMPI PUSH1 0x40 MLOAD PUSH32 0x8C379A000000000000000000000000000000000000000000000000000000000 DUP2 MSTORE PUSH1 0x4 ADD PUSH2 0x1A3F SWAP1 PUSH2 0x36E3 JUMP JUMPDEST PUSH1 0x40 MLOAD DUP1 SWAP2 SUB SWAP1 REVERT JUMPDEST DUP2 PUSH1 0x1 ADD PUSH1 0x0 SWAP1 SLOAD SWAP1 PUSH2 0x100 EXP SWAP1 DIV PUSH20 0xFFFFFFFFFFFFFFFFFFFFFFFFFFFFFFFFFFFFFFFF AND PUSH20 0xFFFFFFFFFFFFFFFFFFFFFFFFFFFFFFFFFFFFFFFF AND CALLER PUSH20 0xFFFFFFFFFFFFFFFFFFFFFFFFFFFFFFFFFFFFFFFF AND EQ ISZERO PUSH2 0x1ADB JUMPI PUSH1 0x40 MLOAD PUSH32 0x8C379A000000000000000000000000000000000000000000000000000000000 DUP2 MSTORE PUSH1 0x4 ADD PUSH2 0x1AD2 SWAP1 PUSH2 0x3663 JUMP JUMPDEST PUSH1 0x40 MLOAD DUP1 SWAP2 SUB SWAP1 REVERT JUMPDEST DUP2 PUSH1 0x0 ADD SLOAD CALLVALUE LT ISZERO PUSH2 0x1B22 JUMPI PUSH1 0x40 MLOAD PUSH32 0x8C379A000000000000000000000000000000000000000000000000000000000 DUP2 MSTORE PUSH1 0x4 ADD PUSH2 0x1B19 SWAP1 PUSH2 0x3683 JUMP JUMPDEST PUSH1 0x40 MLOAD DUP1 SWAP2 SUB SWAP1 REVERT JUMPDEST DUP2 PUSH1 0x1 ADD PUSH1 0x0 SWAP1 SLOAD SWAP1 PUSH2 0x100 EXP SWAP1 DIV PUSH20 0xFFFFFFFFFFFFFFFFFFFFFFFFFFFFFFFFFFFFFFFF AND PUSH20 0xFFFFFFFFFFFFFFFFFFFFFFFFFFFFFFFFFFFFFFFF AND PUSH2 0x8FC PUSH1 0x14 DUP5 PUSH1 0x0 ADD SLOAD PUSH2 0x1B71 SWAP2 SWAP1 PUSH2 0x3817 JUMP JUMPDEST DUP5 PUSH1 0x0 ADD SLOAD PUSH2 0x1B80 SWAP2 SWAP1 PUSH2 0x3848 JUMP JUMPDEST SWAP1 DUP2 ISZERO MUL SWAP1 PUSH1 0x40 MLOAD PUSH1 0x0 PUSH1 0x40 MLOAD DUP1 DUP4 SUB DUP2 DUP6 DUP9 DUP9 CALL SWAP4 POP POP POP POP ISZERO DUP1 ISZERO PUSH2 0x1BAB JUMPI RETURNDATASIZE PUSH1 0x0 DUP1 RETURNDATACOPY RETURNDATASIZE PUSH1 0x0 REVERT JUMPDEST POP PUSH2 0x1BB4 PUSH2 0x20A4 JUMP JUMPDEST PUSH20 0xFFFFFFFFFFFFFFFFFFFFFFFFFFFFFFFFFFFFFFFF AND PUSH2 0x8FC DUP9 SWAP1 DUP2 ISZERO MUL SWAP1 PUSH1 0x40 MLOAD PUSH1 0x0 PUSH1 0x40 MLOAD DUP1 DUP4 SUB DUP2 DUP6 DUP9 DUP9 CALL SWAP4 POP POP POP POP ISZERO DUP1 ISZERO PUSH2 0x1BF9 JUMPI RETURNDATASIZE PUSH1 0x0 DUP1 RETURNDATACOPY RETURNDATASIZE PUSH1 0x0 REVERT JUMPDEST POP PUSH1 0x0 PUSH20 0xFFFFFFFFFFFFFFFFFFFFFFFFFFFFFFFFFFFFFFFF AND DUP9 PUSH20 0xFFFFFFFFFFFFFFFFFFFFFFFFFFFFFFFFFFFFFFFF AND EQ PUSH2 0x1C76 JUMPI DUP8 PUSH20 0xFFFFFFFFFFFFFFFFFFFFFFFFFFFFFFFFFFFFFFFF AND PUSH2 0x8FC DUP6 SWAP1 DUP2 ISZERO MUL SWAP1 PUSH1 0x40 MLOAD PUSH1 0x0 PUSH1 0x40 MLOAD DUP1 DUP4 SUB DUP2 DUP6 DUP9 DUP9 CALL SWAP4 POP POP POP POP ISZERO DUP1 ISZERO PUSH2 0x1C74 JUMPI RETURNDATASIZE PUSH1 0x0 DUP1 RETURNDATACOPY RETURNDATASIZE PUSH1 0x0 REVERT JUMPDEST POP JUMPDEST PUSH1 0x0 JUMPDEST PUSH1 0x5 DUP2 LT ISZERO PUSH2 0x1D9D JUMPI PUSH1 0x0 PUSH20 0xFFFFFFFFFFFFFFFFFFFFFFFFFFFFFFFFFFFFFFFF AND DUP4 PUSH1 0x5 ADD PUSH1 0x0 DUP4 DUP2 MSTORE PUSH1 0x20 ADD SWAP1 DUP2 MSTORE PUSH1 0x20 ADD PUSH1 0x0 KECCAK256 PUSH1 0x0 SWAP1 SLOAD SWAP1 PUSH2 0x100 EXP SWAP1 DIV PUSH20 0xFFFFFFFFFFFFFFFFFFFFFFFFFFFFFFFFFFFFFFFF AND PUSH20 0xFFFFFFFFFFFFFFFFFFFFFFFFFFFFFFFFFFFFFFFF AND EQ PUSH2 0x1D85 JUMPI DUP3 PUSH1 0x5 ADD PUSH1 0x0 DUP3 DUP2 MSTORE PUSH1 0x20 ADD SWAP1 DUP2 MSTORE PUSH1 0x20 ADD PUSH1 0x0 KECCAK256 PUSH1 0x0 SWAP1 SLOAD SWAP1 PUSH2 0x100 EXP SWAP1 DIV PUSH20 0xFFFFFFFFFFFFFFFFFFFFFFFFFFFFFFFFFFFFFFFF AND PUSH20 0xFFFFFFFFFFFFFFFFFFFFFFFFFFFFFFFFFFFFFFFF AND PUSH2 0x8FC DUP9 DUP9 DUP8 DUP2 DUP2 LT PUSH2 0x1D4D JUMPI PUSH2 0x1D4C PUSH2 0x396B JUMP JUMPDEST JUMPDEST SWAP1 POP PUSH1 0x20 MUL ADD CALLDATALOAD SWAP1 DUP2 ISZERO MUL SWAP1 PUSH1 0x40 MLOAD PUSH1 0x0 PUSH1 0x40 MLOAD DUP1 DUP4 SUB DUP2 DUP6 DUP9 DUP9 CALL SWAP4 POP POP POP POP ISZERO DUP1 ISZERO PUSH2 0x1D7F JUMPI RETURNDATASIZE PUSH1 0x0 DUP1 RETURNDATACOPY RETURNDATASIZE PUSH1 0x0 REVERT JUMPDEST POP PUSH2 0x1D8A JUMP JUMPDEST PUSH2 0x1D9D JUMP JUMPDEST DUP1 DUP1 PUSH2 0x1D95 SWAP1 PUSH2 0x38C4 JUMP JUMPDEST SWAP2 POP POP PUSH2 0x1C79 JUMP JUMPDEST POP DUP1 PUSH20 0xFFFFFFFFFFFFFFFFFFFFFFFFFFFFFFFFFFFFFFFF AND PUSH4 0xB88D4FDE DUP4 PUSH1 0x1 ADD PUSH1 0x0 SWAP1 SLOAD SWAP1 PUSH2 0x100 EXP SWAP1 DIV PUSH20 0xFFFFFFFFFFFFFFFFFFFFFFFFFFFFFFFFFFFFFFFF AND CALLER DUP14 DUP14 DUP9 DUP2 DUP2 LT PUSH2 0x1DF3 JUMPI PUSH2 0x1DF2 PUSH2 0x396B JUMP JUMPDEST JUMPDEST SWAP1 POP PUSH1 0x20 MUL ADD CALLDATALOAD PUSH1 0x40 MLOAD DUP5 PUSH4 0xFFFFFFFF AND PUSH1 0xE0 SHL DUP2 MSTORE PUSH1 0x4 ADD PUSH2 0x1E18 SWAP4 SWAP3 SWAP2 SWAP1 PUSH2 0x359E JUMP JUMPDEST PUSH1 0x0 PUSH1 0x40 MLOAD DUP1 DUP4 SUB DUP2 PUSH1 0x0 DUP8 DUP1 EXTCODESIZE ISZERO DUP1 ISZERO PUSH2 0x1E32 JUMPI PUSH1 0x0 DUP1 REVERT JUMPDEST POP GAS CALL ISZERO DUP1 ISZERO PUSH2 0x1E46 JUMPI RETURNDATASIZE PUSH1 0x0 DUP1 RETURNDATACOPY RETURNDATASIZE PUSH1 0x0 REVERT JUMPDEST POP POP POP POP CALLER DUP3 PUSH1 0x2 ADD PUSH1 0x0 PUSH2 0x100 EXP DUP2 SLOAD DUP2 PUSH20 0xFFFFFFFFFFFFFFFFFFFFFFFFFFFFFFFFFFFFFFFF MUL NOT AND SWAP1 DUP4 PUSH20 0xFFFFFFFFFFFFFFFFFFFFFFFFFFFFFFFFFFFFFFFF AND MUL OR SWAP1 SSTORE POP PUSH1 0x5 DUP3 PUSH1 0x4 ADD SLOAD LT ISZERO PUSH2 0x1EB7 JUMPI PUSH1 0x1 DUP3 PUSH1 0x4 ADD PUSH1 0x0 DUP3 DUP3 SLOAD PUSH2 0x1EAF SWAP2 SWAP1 PUSH2 0x37C1 JUMP JUMPDEST SWAP3 POP POP DUP2 SWAP1 SSTORE POP JUMPDEST PUSH1 0x3 DUP3 PUSH1 0x3 ADD SLOAD GT PUSH2 0x1F60 JUMPI DUP2 PUSH1 0x1 ADD PUSH1 0x0 SWAP1 SLOAD SWAP1 PUSH2 0x100 EXP SWAP1 DIV PUSH20 0xFFFFFFFFFFFFFFFFFFFFFFFFFFFFFFFFFFFFFFFF AND DUP3 PUSH1 0x5 ADD PUSH1 0x0 DUP5 PUSH1 0x3 ADD SLOAD DUP2 MSTORE PUSH1 0x20 ADD SWAP1 DUP2 MSTORE PUSH1 0x20 ADD PUSH1 0x0 KECCAK256 PUSH1 0x0 PUSH2 0x100 EXP DUP2 SLOAD DUP2 PUSH20 0xFFFFFFFFFFFFFFFFFFFFFFFFFFFFFFFFFFFFFFFF MUL NOT AND SWAP1 DUP4 PUSH20 0xFFFFFFFFFFFFFFFFFFFFFFFFFFFFFFFFFFFFFFFF AND MUL OR SWAP1 SSTORE POP PUSH1 0x1 DUP3 PUSH1 0x3 ADD PUSH1 0x0 DUP3 DUP3 SLOAD PUSH2 0x1F54 SWAP2 SWAP1 PUSH2 0x37C1 JUMP JUMPDEST SWAP3 POP POP DUP2 SWAP1 SSTORE POP PUSH2 0x1FE7 JUMP JUMPDEST DUP2 PUSH1 0x1 ADD PUSH1 0x0 SWAP1 SLOAD SWAP1 PUSH2 0x100 EXP SWAP1 DIV PUSH20 0xFFFFFFFFFFFFFFFFFFFFFFFFFFFFFFFFFFFFFFFF AND DUP3 PUSH1 0x5 ADD PUSH1 0x0 DUP5 PUSH1 0x3 ADD SLOAD DUP2 MSTORE PUSH1 0x20 ADD SWAP1 DUP2 MSTORE PUSH1 0x20 ADD PUSH1 0x0 KECCAK256 PUSH1 0x0 PUSH2 0x100 EXP DUP2 SLOAD DUP2 PUSH20 0xFFFFFFFFFFFFFFFFFFFFFFFFFFFFFFFFFFFFFFFF MUL NOT AND SWAP1 DUP4 PUSH20 0xFFFFFFFFFFFFFFFFFFFFFFFFFFFFFFFFFFFFFFFF AND MUL OR SWAP1 SSTORE POP PUSH1 0x0 DUP3 PUSH1 0x3 ADD DUP2 SWAP1 SSTORE POP JUMPDEST PUSH1 0x0 DUP3 PUSH1 0x2 ADD PUSH1 0x14 PUSH2 0x100 EXP DUP2 SLOAD DUP2 PUSH1 0xFF MUL NOT AND SWAP1 DUP4 ISZERO ISZERO MUL OR SWAP1 SSTORE POP DUP2 PUSH1 0x2 ADD PUSH1 0x14 SWAP1 SLOAD SWAP1 PUSH2 0x100 EXP SWAP1 DIV PUSH1 0xFF AND ISZERO ISZERO DUP11 DUP11 DUP6 DUP2 DUP2 LT PUSH2 0x202B JUMPI PUSH2 0x202A PUSH2 0x396B JUMP JUMPDEST JUMPDEST SWAP1 POP PUSH1 0x20 MUL ADD CALLDATALOAD CALLER PUSH20 0xFFFFFFFFFFFFFFFFFFFFFFFFFFFFFFFFFFFFFFFF AND PUSH32 0xA7CD299F7EBC29460AD99CF3EA75776D7CD038A63A59FA595E86441F8190EF90 DUP6 PUSH1 0x0 ADD SLOAD PUSH1 0x40 MLOAD PUSH2 0x207C SWAP2 SWAP1 PUSH2 0x3723 JUMP JUMPDEST PUSH1 0x40 MLOAD DUP1 SWAP2 SUB SWAP1 LOG4 POP POP DUP1 DUP1 PUSH2 0x2091 SWAP1 PUSH2 0x38C4 JUMP JUMPDEST SWAP2 POP POP PUSH2 0x197A JUMP JUMPDEST POP POP POP POP POP POP POP POP POP JUMP JUMPDEST PUSH1 0x0 DUP1 PUSH1 0x0 SWAP1 SLOAD SWAP1 PUSH2 0x100 EXP SWAP1 DIV PUSH20 0xFFFFFFFFFFFFFFFFFFFFFFFFFFFFFFFFFFFFFFFF AND SWAP1 POP SWAP1 JUMP JUMPDEST PUSH1 0x0 DUP3 SWAP1 POP PUSH1 0x0 PUSH1 0x1 PUSH1 0x0 DUP6 PUSH20 0xFFFFFFFFFFFFFFFFFFFFFFFFFFFFFFFFFFFFFFFF AND PUSH20 0xFFFFFFFFFFFFFFFFFFFFFFFFFFFFFFFFFFFFFFFF AND DUP2 MSTORE PUSH1 0x20 ADD SWAP1 DUP2 MSTORE PUSH1 0x20 ADD PUSH1 0x0 KECCAK256 PUSH1 0x0 DUP5 DUP2 MSTORE PUSH1 0x20 ADD SWAP1 DUP2 MSTORE PUSH1 0x20 ADD PUSH1 0x0 KECCAK256 SWAP1 POP CALLER PUSH20 0xFFFFFFFFFFFFFFFFFFFFFFFFFFFFFFFFFFFFFFFF AND DUP2 PUSH1 0x1 ADD PUSH1 0x0 SWAP1 SLOAD SWAP1 PUSH2 0x100 EXP SWAP1 DIV PUSH20 0xFFFFFFFFFFFFFFFFFFFFFFFFFFFFFFFFFFFFFFFF AND PUSH20 0xFFFFFFFFFFFFFFFFFFFFFFFFFFFFFFFFFFFFFFFF AND EQ PUSH2 0x21B8 JUMPI PUSH1 0x40 MLOAD PUSH32 0x8C379A000000000000000000000000000000000000000000000000000000000 DUP2 MSTORE PUSH1 0x4 ADD PUSH2 0x21AF SWAP1 PUSH2 0x36A3 JUMP JUMPDEST PUSH1 0x40 MLOAD DUP1 SWAP2 SUB SWAP1 REVERT JUMPDEST DUP1 PUSH1 0x2 ADD PUSH1 0x14 SWAP1 SLOAD SWAP1 PUSH2 0x100 EXP SWAP1 DIV PUSH1 0xFF AND PUSH2 0x2209 JUMPI PUSH1 0x40 MLOAD PUSH32 0x8C379A000000000000000000000000000000000000000000000000000000000 DUP2 MSTORE PUSH1 0x4 ADD PUSH2 0x2200 SWAP1 PUSH2 0x3603 JUMP JUMPDEST PUSH1 0x40 MLOAD DUP1 SWAP2 SUB SWAP1 REVERT JUMPDEST DUP2 PUSH20 0xFFFFFFFFFFFFFFFFFFFFFFFFFFFFFFFFFFFFFFFF AND PUSH4 0xE985E9C5 CALLER ADDRESS PUSH1 0x40 MLOAD DUP4 PUSH4 0xFFFFFFFF AND PUSH1 0xE0 SHL DUP2 MSTORE PUSH1 0x4 ADD PUSH2 0x2244 SWAP3 SWAP2 SWAP1 PUSH2 0x353E JUMP JUMPDEST PUSH1 0x20 PUSH1 0x40 MLOAD DUP1 DUP4 SUB DUP2 DUP7 DUP1 EXTCODESIZE ISZERO DUP1 ISZERO PUSH2 0x225C JUMPI PUSH1 0x0 DUP1 REVERT JUMPDEST POP GAS STATICCALL ISZERO DUP1 ISZERO PUSH2 0x2270 JUMPI RETURNDATASIZE PUSH1 0x0 DUP1 RETURNDATACOPY RETURNDATASIZE PUSH1 0x0 REVERT JUMPDEST POP POP POP POP PUSH1 0x40 MLOAD RETURNDATASIZE PUSH1 0x1F NOT PUSH1 0x1F DUP3 ADD AND DUP3 ADD DUP1 PUSH1 0x40 MSTORE POP DUP2 ADD SWAP1 PUSH2 0x2294 SWAP2 SWAP1 PUSH2 0x32EB JUMP JUMPDEST PUSH2 0x22D3 JUMPI PUSH1 0x40 MLOAD PUSH32 0x8C379A000000000000000000000000000000000000000000000000000000000 DUP2 MSTORE PUSH1 0x4 ADD PUSH2 0x22CA SWAP1 PUSH2 0x3623 JUMP JUMPDEST PUSH1 0x40 MLOAD DUP1 SWAP2 SUB SWAP1 REVERT JUMPDEST PUSH1 0x0 DUP2 PUSH1 0x2 ADD PUSH1 0x14 PUSH2 0x100 EXP DUP2 SLOAD DUP2 PUSH1 0xFF MUL NOT AND SWAP1 DUP4 ISZERO ISZERO MUL OR SWAP1 SSTORE POP DUP1 PUSH1 0x2 ADD PUSH1 0x14 SWAP1 SLOAD SWAP1 PUSH2 0x100 EXP SWAP1 DIV PUSH1 0xFF AND ISZERO ISZERO DUP4 CALLER PUSH20 0xFFFFFFFFFFFFFFFFFFFFFFFFFFFFFFFFFFFFFFFF AND PUSH32 0xA7CD299F7EBC29460AD99CF3EA75776D7CD038A63A59FA595E86441F8190EF90 DUP5 PUSH1 0x0 ADD SLOAD PUSH1 0x40 MLOAD PUSH2 0x234F SWAP2 SWAP1 PUSH2 0x3723 JUMP JUMPDEST PUSH1 0x40 MLOAD DUP1 SWAP2 SUB SWAP1 LOG4 POP POP POP POP JUMP JUMPDEST PUSH1 0x0 PUSH1 0x1 PUSH1 0x0 DUP5 PUSH20 0xFFFFFFFFFFFFFFFFFFFFFFFFFFFFFFFFFFFFFFFF AND PUSH20 0xFFFFFFFFFFFFFFFFFFFFFFFFFFFFFFFFFFFFFFFF AND DUP2 MSTORE PUSH1 0x20 ADD SWAP1 DUP2 MSTORE PUSH1 0x20 ADD PUSH1 0x0 KECCAK256 PUSH1 0x0 DUP4 DUP2 MSTORE PUSH1 0x20 ADD SWAP1 DUP2 MSTORE PUSH1 0x20 ADD PUSH1 0x0 KECCAK256 PUSH1 0x4 ADD SLOAD SWAP1 POP SWAP3 SWAP2 POP POP JUMP JUMPDEST PUSH1 0x0 JUMPDEST DUP8 DUP8 SWAP1 POP DUP2 LT ISZERO PUSH2 0x2C8F JUMPI PUSH1 0x0 PUSH1 0x1 PUSH1 0x0 DUP13 PUSH20 0xFFFFFFFFFFFFFFFFFFFFFFFFFFFFFFFFFFFFFFFF AND PUSH20 0xFFFFFFFFFFFFFFFFFFFFFFFFFFFFFFFFFFFFFFFF AND DUP2 MSTORE PUSH1 0x20 ADD SWAP1 DUP2 MSTORE PUSH1 0x20 ADD PUSH1 0x0 KECCAK256 PUSH1 0x0 DUP11 DUP11 DUP6 DUP2 DUP2 LT PUSH2 0x241F JUMPI PUSH2 0x241E PUSH2 0x396B JUMP JUMPDEST JUMPDEST SWAP1 POP PUSH1 0x20 MUL ADD CALLDATALOAD DUP2 MSTORE PUSH1 0x20 ADD SWAP1 DUP2 MSTORE PUSH1 0x20 ADD PUSH1 0x0 KECCAK256 SWAP1 POP PUSH1 0x0 DUP12 SWAP1 POP PUSH1 0x0 DUP12 SWAP1 POP DUP3 PUSH1 0x2 ADD PUSH1 0x14 SWAP1 SLOAD SWAP1 PUSH2 0x100 EXP SWAP1 DIV PUSH1 0xFF AND PUSH2 0x2491 JUMPI PUSH1 0x40 MLOAD PUSH32 0x8C379A000000000000000000000000000000000000000000000000000000000 DUP2 MSTORE PUSH1 0x4 ADD PUSH2 0x2488 SWAP1 PUSH2 0x36E3 JUMP JUMPDEST PUSH1 0x40 MLOAD DUP1 SWAP2 SUB SWAP1 REVERT JUMPDEST DUP3 PUSH1 0x1 ADD PUSH1 0x0 SWAP1 SLOAD SWAP1 PUSH2 0x100 EXP SWAP1 DIV PUSH20 0xFFFFFFFFFFFFFFFFFFFFFFFFFFFFFFFFFFFFFFFF AND PUSH20 0xFFFFFFFFFFFFFFFFFFFFFFFFFFFFFFFFFFFFFFFF AND CALLER PUSH20 0xFFFFFFFFFFFFFFFFFFFFFFFFFFFFFFFFFFFFFFFF AND EQ ISZERO PUSH2 0x2524 JUMPI PUSH1 0x40 MLOAD PUSH32 0x8C379A000000000000000000000000000000000000000000000000000000000 DUP2 MSTORE PUSH1 0x4 ADD PUSH2 0x251B SWAP1 PUSH2 0x3663 JUMP JUMPDEST PUSH1 0x40 MLOAD DUP1 SWAP2 SUB SWAP1 REVERT JUMPDEST DUP3 PUSH1 0x0 ADD SLOAD DUP2 PUSH20 0xFFFFFFFFFFFFFFFFFFFFFFFFFFFFFFFFFFFFFFFF AND PUSH4 0x70A08231 CALLER PUSH1 0x40 MLOAD DUP3 PUSH4 0xFFFFFFFF AND PUSH1 0xE0 SHL DUP2 MSTORE PUSH1 0x4 ADD PUSH2 0x2562 SWAP2 SWAP1 PUSH2 0x3523 JUMP JUMPDEST PUSH1 0x20 PUSH1 0x40 MLOAD DUP1 DUP4 SUB DUP2 DUP7 DUP1 EXTCODESIZE ISZERO DUP1 ISZERO PUSH2 0x257A JUMPI PUSH1 0x0 DUP1 REVERT JUMPDEST POP GAS STATICCALL ISZERO DUP1 ISZERO PUSH2 0x258E JUMPI RETURNDATASIZE PUSH1 0x0 DUP1 RETURNDATACOPY RETURNDATASIZE PUSH1 0x0 REVERT JUMPDEST POP POP POP POP PUSH1 0x40 MLOAD RETURNDATASIZE PUSH1 0x1F NOT PUSH1 0x1F DUP3 ADD AND DUP3 ADD DUP1 PUSH1 0x40 MSTORE POP DUP2 ADD SWAP1 PUSH2 0x25B2 SWAP2 SWAP1 PUSH2 0x3318 JUMP JUMPDEST LT ISZERO PUSH2 0x25F3 JUMPI PUSH1 0x40 MLOAD PUSH32 0x8C379A000000000000000000000000000000000000000000000000000000000 DUP2 MSTORE PUSH1 0x4 ADD PUSH2 0x25EA SWAP1 PUSH2 0x3683 JUMP JUMPDEST PUSH1 0x40 MLOAD DUP1 SWAP2 SUB SWAP1 REVERT JUMPDEST DUP1 PUSH20 0xFFFFFFFFFFFFFFFFFFFFFFFFFFFFFFFFFFFFFFFF AND PUSH4 0x23B872DD CALLER DUP6 PUSH1 0x1 ADD PUSH1 0x0 SWAP1 SLOAD SWAP1 PUSH2 0x100 EXP SWAP1 DIV PUSH20 0xFFFFFFFFFFFFFFFFFFFFFFFFFFFFFFFFFFFFFFFF AND PUSH1 0x14 DUP8 PUSH1 0x0 ADD SLOAD PUSH2 0x2646 SWAP2 SWAP1 PUSH2 0x3817 JUMP JUMPDEST DUP8 PUSH1 0x0 ADD SLOAD PUSH2 0x2655 SWAP2 SWAP1 PUSH2 0x3848 JUMP JUMPDEST PUSH1 0x40 MLOAD DUP5 PUSH4 0xFFFFFFFF AND PUSH1 0xE0 SHL DUP2 MSTORE PUSH1 0x4 ADD PUSH2 0x2673 SWAP4 SWAP3 SWAP2 SWAP1 PUSH2 0x3567 JUMP JUMPDEST PUSH1 0x20 PUSH1 0x40 MLOAD DUP1 DUP4 SUB DUP2 PUSH1 0x0 DUP8 DUP1 EXTCODESIZE ISZERO DUP1 ISZERO PUSH2 0x268D JUMPI PUSH1 0x0 DUP1 REVERT JUMPDEST POP GAS CALL ISZERO DUP1 ISZERO PUSH2 0x26A1 JUMPI RETURNDATASIZE PUSH1 0x0 DUP1 RETURNDATACOPY RETURNDATASIZE PUSH1 0x0 REVERT JUMPDEST POP POP POP POP PUSH1 0x40 MLOAD RETURNDATASIZE PUSH1 0x1F NOT PUSH1 0x1F DUP3 ADD AND DUP3 ADD DUP1 PUSH1 0x40 MSTORE POP DUP2 ADD SWAP1 PUSH2 0x26C5 SWAP2 SWAP1 PUSH2 0x32EB JUMP JUMPDEST POP DUP1 PUSH20 0xFFFFFFFFFFFFFFFFFFFFFFFFFFFFFFFFFFFFFFFF AND PUSH4 0x23B872DD CALLER PUSH2 0x26EB PUSH2 0x20A4 JUMP JUMPDEST DUP12 PUSH1 0x40 MLOAD DUP5 PUSH4 0xFFFFFFFF AND PUSH1 0xE0 SHL DUP2 MSTORE PUSH1 0x4 ADD PUSH2 0x270A SWAP4 SWAP3 SWAP2 SWAP1 PUSH2 0x3567 JUMP JUMPDEST PUSH1 0x20 PUSH1 0x40 MLOAD DUP1 DUP4 SUB DUP2 PUSH1 0x0 DUP8 DUP1 EXTCODESIZE ISZERO DUP1 ISZERO PUSH2 0x2724 JUMPI PUSH1 0x0 DUP1 REVERT JUMPDEST POP GAS CALL ISZERO DUP1 ISZERO PUSH2 0x2738 JUMPI RETURNDATASIZE PUSH1 0x0 DUP1 RETURNDATACOPY RETURNDATASIZE PUSH1 0x0 REVERT JUMPDEST POP POP POP POP PUSH1 0x40 MLOAD RETURNDATASIZE PUSH1 0x1F NOT PUSH1 0x1F DUP3 ADD AND DUP3 ADD DUP1 PUSH1 0x40 MSTORE POP DUP2 ADD SWAP1 PUSH2 0x275C SWAP2 SWAP1 PUSH2 0x32EB JUMP JUMPDEST POP PUSH1 0x0 PUSH20 0xFFFFFFFFFFFFFFFFFFFFFFFFFFFFFFFFFFFFFFFF AND DUP10 PUSH20 0xFFFFFFFFFFFFFFFFFFFFFFFFFFFFFFFFFFFFFFFF AND EQ PUSH2 0x2822 JUMPI DUP1 PUSH20 0xFFFFFFFFFFFFFFFFFFFFFFFFFFFFFFFFFFFFFFFF AND PUSH4 0x23B872DD CALLER DUP12 DUP9 PUSH1 0x40 MLOAD DUP5 PUSH4 0xFFFFFFFF AND PUSH1 0xE0 SHL DUP2 MSTORE PUSH1 0x4 ADD PUSH2 0x27CE SWAP4 SWAP3 SWAP2 SWAP1 PUSH2 0x3567 JUMP JUMPDEST PUSH1 0x20 PUSH1 0x40 MLOAD DUP1 DUP4 SUB DUP2 PUSH1 0x0 DUP8 DUP1 EXTCODESIZE ISZERO DUP1 ISZERO PUSH2 0x27E8 JUMPI PUSH1 0x0 DUP1 REVERT JUMPDEST POP GAS CALL ISZERO DUP1 ISZERO PUSH2 0x27FC JUMPI RETURNDATASIZE PUSH1 0x0 DUP1 RETURNDATACOPY RETURNDATASIZE PUSH1 0x0 REVERT JUMPDEST POP POP POP POP PUSH1 0x40 MLOAD RETURNDATASIZE PUSH1 0x1F NOT PUSH1 0x1F DUP3 ADD AND DUP3 ADD DUP1 PUSH1 0x40 MSTORE POP DUP2 ADD SWAP1 PUSH2 0x2820 SWAP2 SWAP1 PUSH2 0x32EB JUMP JUMPDEST POP JUMPDEST PUSH1 0x0 JUMPDEST PUSH1 0x5 DUP2 LT ISZERO PUSH2 0x2992 JUMPI PUSH1 0x0 PUSH20 0xFFFFFFFFFFFFFFFFFFFFFFFFFFFFFFFFFFFFFFFF AND DUP5 PUSH1 0x5 ADD PUSH1 0x0 DUP4 DUP2 MSTORE PUSH1 0x20 ADD SWAP1 DUP2 MSTORE PUSH1 0x20 ADD PUSH1 0x0 KECCAK256 PUSH1 0x0 SWAP1 SLOAD SWAP1 PUSH2 0x100 EXP SWAP1 DIV PUSH20 0xFFFFFFFFFFFFFFFFFFFFFFFFFFFFFFFFFFFFFFFF AND PUSH20 0xFFFFFFFFFFFFFFFFFFFFFFFFFFFFFFFFFFFFFFFF AND EQ PUSH2 0x297A JUMPI DUP2 PUSH20 0xFFFFFFFFFFFFFFFFFFFFFFFFFFFFFFFFFFFFFFFF AND PUSH4 0x23B872DD CALLER DUP7 PUSH1 0x5 ADD PUSH1 0x0 DUP6 DUP2 MSTORE PUSH1 0x20 ADD SWAP1 DUP2 MSTORE PUSH1 0x20 ADD PUSH1 0x0 KECCAK256 PUSH1 0x0 SWAP1 SLOAD SWAP1 PUSH2 0x100 EXP SWAP1 DIV PUSH20 0xFFFFFFFFFFFFFFFFFFFFFFFFFFFFFFFFFFFFFFFF AND DUP12 DUP12 DUP11 DUP2 DUP2 LT PUSH2 0x28FD JUMPI PUSH2 0x28FC PUSH2 0x396B JUMP JUMPDEST JUMPDEST SWAP1 POP PUSH1 0x20 MUL ADD CALLDATALOAD PUSH1 0x40 MLOAD DUP5 PUSH4 0xFFFFFFFF AND PUSH1 0xE0 SHL DUP2 MSTORE PUSH1 0x4 ADD PUSH2 0x2922 SWAP4 SWAP3 SWAP2 SWAP1 PUSH2 0x3567 JUMP JUMPDEST PUSH1 0x20 PUSH1 0x40 MLOAD DUP1 DUP4 SUB DUP2 PUSH1 0x0 DUP8 DUP1 EXTCODESIZE ISZERO DUP1 ISZERO PUSH2 0x293C JUMPI PUSH1 0x0 DUP1 REVERT JUMPDEST POP GAS CALL ISZERO DUP1 ISZERO PUSH2 0x2950 JUMPI RETURNDATASIZE PUSH1 0x0 DUP1 RETURNDATACOPY RETURNDATASIZE PUSH1 0x0 REVERT JUMPDEST POP POP POP POP PUSH1 0x40 MLOAD RETURNDATASIZE PUSH1 0x1F NOT PUSH1 0x1F DUP3 ADD AND DUP3 ADD DUP1 PUSH1 0x40 MSTORE POP DUP2 ADD SWAP1 PUSH2 0x2974 SWAP2 SWAP1 PUSH2 0x32EB JUMP JUMPDEST POP PUSH2 0x297F JUMP JUMPDEST PUSH2 0x2992 JUMP JUMPDEST DUP1 DUP1 PUSH2 0x298A SWAP1 PUSH2 0x38C4 JUMP JUMPDEST SWAP2 POP POP PUSH2 0x2825 JUMP JUMPDEST POP DUP2 PUSH20 0xFFFFFFFFFFFFFFFFFFFFFFFFFFFFFFFFFFFFFFFF AND PUSH4 0xB88D4FDE DUP5 PUSH1 0x1 ADD PUSH1 0x0 SWAP1 SLOAD SWAP1 PUSH2 0x100 EXP SWAP1 DIV PUSH20 0xFFFFFFFFFFFFFFFFFFFFFFFFFFFFFFFFFFFFFFFF AND CALLER DUP15 DUP15 DUP10 DUP2 DUP2 LT PUSH2 0x29E8 JUMPI PUSH2 0x29E7 PUSH2 0x396B JUMP JUMPDEST JUMPDEST SWAP1 POP PUSH1 0x20 MUL ADD CALLDATALOAD PUSH1 0x40 MLOAD DUP5 PUSH4 0xFFFFFFFF AND PUSH1 0xE0 SHL DUP2 MSTORE PUSH1 0x4 ADD PUSH2 0x2A0D SWAP4 SWAP3 SWAP2 SWAP1 PUSH2 0x359E JUMP JUMPDEST PUSH1 0x0 PUSH1 0x40 MLOAD DUP1 DUP4 SUB DUP2 PUSH1 0x0 DUP8 DUP1 EXTCODESIZE ISZERO DUP1 ISZERO PUSH2 0x2A27 JUMPI PUSH1 0x0 DUP1 REVERT JUMPDEST POP GAS CALL ISZERO DUP1 ISZERO PUSH2 0x2A3B JUMPI RETURNDATASIZE PUSH1 0x0 DUP1 RETURNDATACOPY RETURNDATASIZE PUSH1 0x0 REVERT JUMPDEST POP POP POP POP CALLER DUP4 PUSH1 0x2 ADD PUSH1 0x0 PUSH2 0x100 EXP DUP2 SLOAD DUP2 PUSH20 0xFFFFFFFFFFFFFFFFFFFFFFFFFFFFFFFFFFFFFFFF MUL NOT AND SWAP1 DUP4 PUSH20 0xFFFFFFFFFFFFFFFFFFFFFFFFFFFFFFFFFFFFFFFF AND MUL OR SWAP1 SSTORE POP PUSH1 0x5 DUP4 PUSH1 0x4 ADD SLOAD LT ISZERO PUSH2 0x2AAC JUMPI PUSH1 0x1 DUP4 PUSH1 0x4 ADD PUSH1 0x0 DUP3 DUP3 SLOAD PUSH2 0x2AA4 SWAP2 SWAP1 PUSH2 0x37C1 JUMP JUMPDEST SWAP3 POP POP DUP2 SWAP1 SSTORE POP JUMPDEST PUSH1 0x3 DUP4 PUSH1 0x3 ADD SLOAD GT PUSH2 0x2B55 JUMPI DUP3 PUSH1 0x1 ADD PUSH1 0x0 SWAP1 SLOAD SWAP1 PUSH2 0x100 EXP SWAP1 DIV PUSH20 0xFFFFFFFFFFFFFFFFFFFFFFFFFFFFFFFFFFFFFFFF AND DUP4 PUSH1 0x5 ADD PUSH1 0x0 DUP6 PUSH1 0x3 ADD SLOAD DUP2 MSTORE PUSH1 0x20 ADD SWAP1 DUP2 MSTORE PUSH1 0x20 ADD PUSH1 0x0 KECCAK256 PUSH1 0x0 PUSH2 0x100 EXP DUP2 SLOAD DUP2 PUSH20 0xFFFFFFFFFFFFFFFFFFFFFFFFFFFFFFFFFFFFFFFF MUL NOT AND SWAP1 DUP4 PUSH20 0xFFFFFFFFFFFFFFFFFFFFFFFFFFFFFFFFFFFFFFFF AND MUL OR SWAP1 SSTORE POP PUSH1 0x1 DUP4 PUSH1 0x3 ADD PUSH1 0x0 DUP3 DUP3 SLOAD PUSH2 0x2B49 SWAP2 SWAP1 PUSH2 0x37C1 JUMP JUMPDEST SWAP3 POP POP DUP2 SWAP1 SSTORE POP PUSH2 0x2BDC JUMP JUMPDEST DUP3 PUSH1 0x1 ADD PUSH1 0x0 SWAP1 SLOAD SWAP1 PUSH2 0x100 EXP SWAP1 DIV PUSH20 0xFFFFFFFFFFFFFFFFFFFFFFFFFFFFFFFFFFFFFFFF AND DUP4 PUSH1 0x5 ADD PUSH1 0x0 DUP6 PUSH1 0x3 ADD SLOAD DUP2 MSTORE PUSH1 0x20 ADD SWAP1 DUP2 MSTORE PUSH1 0x20 ADD PUSH1 0x0 KECCAK256 PUSH1 0x0 PUSH2 0x100 EXP DUP2 SLOAD DUP2 PUSH20 0xFFFFFFFFFFFFFFFFFFFFFFFFFFFFFFFFFFFFFFFF MUL NOT AND SWAP1 DUP4 PUSH20 0xFFFFFFFFFFFFFFFFFFFFFFFFFFFFFFFFFFFFFFFF AND MUL OR SWAP1 SSTORE POP PUSH1 0x0 DUP4 PUSH1 0x3 ADD DUP2 SWAP1 SSTORE POP JUMPDEST PUSH1 0x0 DUP4 PUSH1 0x2 ADD PUSH1 0x14 PUSH2 0x100 EXP DUP2 SLOAD DUP2 PUSH1 0xFF MUL NOT AND SWAP1 DUP4 ISZERO ISZERO MUL OR SWAP1 SSTORE POP DUP3 PUSH1 0x2 ADD PUSH1 0x14 SWAP1 SLOAD SWAP1 PUSH2 0x100 EXP SWAP1 DIV PUSH1 0xFF AND ISZERO ISZERO DUP12 DUP12 DUP7 DUP2 DUP2 LT PUSH2 0x2C20 JUMPI PUSH2 0x2C1F PUSH2 0x396B JUMP JUMPDEST JUMPDEST SWAP1 POP PUSH1 0x20 MUL ADD CALLDATALOAD CALLER PUSH20 0xFFFFFFFFFFFFFFFFFFFFFFFFFFFFFFFFFFFFFFFF AND PUSH32 0xA7CD299F7EBC29460AD99CF3EA75776D7CD038A63A59FA595E86441F8190EF90 DUP7 PUSH1 0x0 ADD SLOAD PUSH1 0x40 MLOAD PUSH2 0x2C71 SWAP2 SWAP1 PUSH2 0x3723 JUMP JUMPDEST PUSH1 0x40 MLOAD DUP1 SWAP2 SUB SWAP1 LOG4 POP POP POP DUP1 DUP1 PUSH2 0x2C87 SWAP1 PUSH2 0x38C4 JUMP JUMPDEST SWAP2 POP POP PUSH2 0x23BE JUMP JUMPDEST POP POP POP POP POP POP POP POP POP POP JUMP JUMPDEST PUSH2 0x2CA3 PUSH2 0x2D93 JUMP JUMPDEST PUSH20 0xFFFFFFFFFFFFFFFFFFFFFFFFFFFFFFFFFFFFFFFF AND PUSH2 0x2CC1 PUSH2 0x20A4 JUMP JUMPDEST PUSH20 0xFFFFFFFFFFFFFFFFFFFFFFFFFFFFFFFFFFFFFFFF AND EQ PUSH2 0x2D17 JUMPI PUSH1 0x40 MLOAD PUSH32 0x8C379A000000000000000000000000000000000000000000000000000000000 DUP2 MSTORE PUSH1 0x4 ADD PUSH2 0x2D0E SWAP1 PUSH2 0x36C3 JUMP JUMPDEST PUSH1 0x40 MLOAD DUP1 SWAP2 SUB SWAP1 REVERT JUMPDEST PUSH1 0x0 PUSH20 0xFFFFFFFFFFFFFFFFFFFFFFFFFFFFFFFFFFFFFFFF AND DUP2 PUSH20 0xFFFFFFFFFFFFFFFFFFFFFFFFFFFFFFFFFFFFFFFF AND EQ ISZERO PUSH2 0x2D87 JUMPI PUSH1 0x40 MLOAD PUSH32 0x8C379A000000000000000000000000000000000000000000000000000000000 DUP2 MSTORE PUSH1 0x4 ADD PUSH2 0x2D7E SWAP1 PUSH2 0x3643 JUMP JUMPDEST PUSH1 0x40 MLOAD DUP1 SWAP2 SUB SWAP1 REVERT JUMPDEST PUSH2 0x2D90 DUP2 PUSH2 0x2D9B JUMP JUMPDEST POP JUMP JUMPDEST PUSH1 0x0 CALLER SWAP1 POP SWAP1 JUMP JUMPDEST PUSH1 0x0 DUP1 PUSH1 0x0 SWAP1 SLOAD SWAP1 PUSH2 0x100 EXP SWAP1 DIV PUSH20 0xFFFFFFFFFFFFFFFFFFFFFFFFFFFFFFFFFFFFFFFF AND SWAP1 POP DUP2 PUSH1 0x0 DUP1 PUSH2 0x100 EXP DUP2 SLOAD DUP2 PUSH20 0xFFFFFFFFFFFFFFFFFFFFFFFFFFFFFFFFFFFFFFFF MUL NOT AND SWAP1 DUP4 PUSH20 0xFFFFFFFFFFFFFFFFFFFFFFFFFFFFFFFFFFFFFFFF AND MUL OR SWAP1 SSTORE POP DUP2 PUSH20 0xFFFFFFFFFFFFFFFFFFFFFFFFFFFFFFFFFFFFFFFF AND DUP2 PUSH20 0xFFFFFFFFFFFFFFFFFFFFFFFFFFFFFFFFFFFFFFFF AND PUSH32 0x8BE0079C531659141344CD1FD0A4F28419497F9722A3DAAFE3B4186F6B6457E0 PUSH1 0x40 MLOAD PUSH1 0x40 MLOAD DUP1 SWAP2 SUB SWAP1 LOG3 POP POP JUMP JUMPDEST PUSH1 0x0 DUP2 CALLDATALOAD SWAP1 POP PUSH2 0x2E6E DUP2 PUSH2 0x3B4D JUMP JUMPDEST SWAP3 SWAP2 POP POP JUMP JUMPDEST PUSH1 0x0 DUP2 MLOAD SWAP1 POP PUSH2 0x2E83 DUP2 PUSH2 0x3B4D JUMP JUMPDEST SWAP3 SWAP2 POP POP JUMP JUMPDEST PUSH1 0x0 DUP1 DUP4 PUSH1 0x1F DUP5 ADD SLT PUSH2 0x2E9F JUMPI PUSH2 0x2E9E PUSH2 0x399F JUMP JUMPDEST JUMPDEST DUP3 CALLDATALOAD SWAP1 POP PUSH8 0xFFFFFFFFFFFFFFFF DUP2 GT ISZERO PUSH2 0x2EBC JUMPI PUSH2 0x2EBB PUSH2 0x399A JUMP JUMPDEST JUMPDEST PUSH1 0x20 DUP4 ADD SWAP2 POP DUP4 PUSH1 0x20 DUP3 MUL DUP4 ADD GT ISZERO PUSH2 0x2ED8 JUMPI PUSH2 0x2ED7 PUSH2 0x39A4 JUMP JUMPDEST JUMPDEST SWAP3 POP SWAP3 SWAP1 POP JUMP JUMPDEST PUSH1 0x0 DUP2 MLOAD SWAP1 POP PUSH2 0x2EEE DUP2 PUSH2 0x3B64 JUMP JUMPDEST SWAP3 SWAP2 POP POP JUMP JUMPDEST PUSH1 0x0 DUP2 CALLDATALOAD SWAP1 POP PUSH2 0x2F03 DUP2 PUSH2 0x3B7B JUMP JUMPDEST SWAP3 SWAP2 POP POP JUMP JUMPDEST PUSH1 0x0 DUP2 MLOAD SWAP1 POP PUSH2 0x2F18 DUP2 PUSH2 0x3B7B JUMP JUMPDEST SWAP3 SWAP2 POP POP JUMP JUMPDEST PUSH1 0x0 PUSH1 0x20 DUP3 DUP5 SUB SLT ISZERO PUSH2 0x2F34 JUMPI PUSH2 0x2F33 PUSH2 0x39AE JUMP JUMPDEST JUMPDEST PUSH1 0x0 PUSH2 0x2F42 DUP5 DUP3 DUP6 ADD PUSH2 0x2E5F JUMP JUMPDEST SWAP2 POP POP SWAP3 SWAP2 POP POP JUMP JUMPDEST PUSH1 0x0 PUSH1 0x20 DUP3 DUP5 SUB SLT ISZERO PUSH2 0x2F61 JUMPI PUSH2 0x2F60 PUSH2 0x39AE JUMP JUMPDEST JUMPDEST PUSH1 0x0 PUSH2 0x2F6F DUP5 DUP3 DUP6 ADD PUSH2 0x2E74 JUMP JUMPDEST SWAP2 POP POP SWAP3 SWAP2 POP POP JUMP JUMPDEST PUSH1 0x0 DUP1 PUSH1 0x0 DUP1 PUSH1 0x0 DUP1 PUSH1 0x0 DUP1 PUSH1 0x0 PUSH1 0xE0 DUP11 DUP13 SUB SLT ISZERO PUSH2 0x2F9A JUMPI PUSH2 0x2F99 PUSH2 0x39AE JUMP JUMPDEST JUMPDEST PUSH1 0x0 PUSH2 0x2FA8 DUP13 DUP3 DUP14 ADD PUSH2 0x2E5F JUMP JUMPDEST SWAP10 POP POP PUSH1 0x20 PUSH2 0x2FB9 DUP13 DUP3 DUP14 ADD PUSH2 0x2E5F JUMP JUMPDEST SWAP9 POP POP PUSH1 0x40 DUP11 ADD CALLDATALOAD PUSH8 0xFFFFFFFFFFFFFFFF DUP2 GT ISZERO PUSH2 0x2FDA JUMPI PUSH2 0x2FD9 PUSH2 0x39A9 JUMP JUMPDEST JUMPDEST PUSH2 0x2FE6 DUP13 DUP3 DUP14 ADD PUSH2 0x2E89 JUMP JUMPDEST SWAP8 POP SWAP8 POP POP PUSH1 0x60 PUSH2 0x2FF9 DUP13 DUP3 DUP14 ADD PUSH2 0x2E5F JUMP JUMPDEST SWAP6 POP POP PUSH1 0x80 PUSH2 0x300A DUP13 DUP3 DUP14 ADD PUSH2 0x2EF4 JUMP JUMPDEST SWAP5 POP POP PUSH1 0xA0 DUP11 ADD CALLDATALOAD PUSH8 0xFFFFFFFFFFFFFFFF DUP2 GT ISZERO PUSH2 0x302B JUMPI PUSH2 0x302A PUSH2 0x39A9 JUMP JUMPDEST JUMPDEST PUSH2 0x3037 DUP13 DUP3 DUP14 ADD PUSH2 0x2E89 JUMP JUMPDEST SWAP4 POP SWAP4 POP POP PUSH1 0xC0 PUSH2 0x304A DUP13 DUP3 DUP14 ADD PUSH2 0x2EF4 JUMP JUMPDEST SWAP2 POP POP SWAP3 SWAP6 SWAP9 POP SWAP3 SWAP6 SWAP9 POP SWAP3 SWAP6 SWAP9 JUMP JUMPDEST PUSH1 0x0 DUP1 PUSH1 0x0 DUP1 PUSH1 0x0 DUP1 PUSH1 0x0 PUSH1 0xE0 DUP9 DUP11 SUB SLT ISZERO PUSH2 0x3079 JUMPI PUSH2 0x3078 PUSH2 0x39AE JUMP JUMPDEST JUMPDEST PUSH1 0x0 PUSH2 0x3087 DUP11 DUP3 DUP12 ADD PUSH2 0x2E5F JUMP JUMPDEST SWAP8 POP POP PUSH1 0x20 PUSH2 0x3098 DUP11 DUP3 DUP12 ADD PUSH2 0x2E5F JUMP JUMPDEST SWAP7 POP POP PUSH1 0x40 PUSH2 0x30A9 DUP11 DUP3 DUP12 ADD PUSH2 0x2EF4 JUMP JUMPDEST SWAP6 POP POP PUSH1 0x60 PUSH2 0x30BA DUP11 DUP3 DUP12 ADD PUSH2 0x2E5F JUMP JUMPDEST SWAP5 POP POP PUSH1 0x80 PUSH2 0x30CB DUP11 DUP3 DUP12 ADD PUSH2 0x2EF4 JUMP JUMPDEST SWAP4 POP POP PUSH1 0xA0 PUSH2 0x30DC DUP11 DUP3 DUP12 ADD PUSH2 0x2EF4 JUMP JUMPDEST SWAP3 POP POP PUSH1 0xC0 PUSH2 0x30ED DUP11 DUP3 DUP12 ADD PUSH2 0x2EF4 JUMP JUMPDEST SWAP2 POP POP SWAP3 SWAP6 SWAP9 SWAP2 SWAP5 SWAP8 POP SWAP3 SWAP6 POP JUMP JUMPDEST PUSH1 0x0 DUP1 PUSH1 0x0 DUP1 PUSH1 0x0 DUP1 PUSH1 0x0 DUP1 PUSH1 0xC0 DUP10 DUP12 SUB SLT ISZERO PUSH2 0x311C JUMPI PUSH2 0x311B PUSH2 0x39AE JUMP JUMPDEST JUMPDEST PUSH1 0x0 PUSH2 0x312A DUP12 DUP3 DUP13 ADD PUSH2 0x2E5F JUMP JUMPDEST SWAP9 POP POP PUSH1 0x20 DUP10 ADD CALLDATALOAD PUSH8 0xFFFFFFFFFFFFFFFF DUP2 GT ISZERO PUSH2 0x314B JUMPI PUSH2 0x314A PUSH2 0x39A9 JUMP JUMPDEST JUMPDEST PUSH2 0x3157 DUP12 DUP3 DUP13 ADD PUSH2 0x2E89 JUMP JUMPDEST SWAP8 POP SWAP8 POP POP PUSH1 0x40 PUSH2 0x316A DUP12 DUP3 DUP13 ADD PUSH2 0x2E5F JUMP JUMPDEST SWAP6 POP POP PUSH1 0x60 PUSH2 0x317B DUP12 DUP3 DUP13 ADD PUSH2 0x2EF4 JUMP JUMPDEST SWAP5 POP POP PUSH1 0x80 DUP10 ADD CALLDATALOAD PUSH8 0xFFFFFFFFFFFFFFFF DUP2 GT ISZERO PUSH2 0x319C JUMPI PUSH2 0x319B PUSH2 0x39A9 JUMP JUMPDEST JUMPDEST PUSH2 0x31A8 DUP12 DUP3 DUP13 ADD PUSH2 0x2E89 JUMP JUMPDEST SWAP4 POP SWAP4 POP POP PUSH1 0xA0 PUSH2 0x31BB DUP12 DUP3 DUP13 ADD PUSH2 0x2EF4 JUMP JUMPDEST SWAP2 POP POP SWAP3 SWAP6 SWAP9 POP SWAP3 SWAP6 SWAP9 SWAP1 SWAP4 SWAP7 POP JUMP JUMPDEST PUSH1 0x0 DUP1 PUSH1 0x40 DUP4 DUP6 SUB SLT ISZERO PUSH2 0x31E2 JUMPI PUSH2 0x31E1 PUSH2 0x39AE JUMP JUMPDEST JUMPDEST PUSH1 0x0 PUSH2 0x31F0 DUP6 DUP3 DUP7 ADD PUSH2 0x2E5F JUMP JUMPDEST SWAP3 POP POP PUSH1 0x20 PUSH2 0x3201 DUP6 DUP3 DUP7 ADD PUSH2 0x2EF4 JUMP JUMPDEST SWAP2 POP POP SWAP3 POP SWAP3 SWAP1 POP JUMP JUMPDEST PUSH1 0x0 DUP1 PUSH1 0x0 DUP1 PUSH1 0x0 DUP1 PUSH1 0xC0 DUP8 DUP10 SUB SLT ISZERO PUSH2 0x3228 JUMPI PUSH2 0x3227 PUSH2 0x39AE JUMP JUMPDEST JUMPDEST PUSH1 0x0 PUSH2 0x3236 DUP10 DUP3 DUP11 ADD PUSH2 0x2E5F JUMP JUMPDEST SWAP7 POP POP PUSH1 0x20 PUSH2 0x3247 DUP10 DUP3 DUP11 ADD PUSH2 0x2EF4 JUMP JUMPDEST SWAP6 POP POP PUSH1 0x40 PUSH2 0x3258 DUP10 DUP3 DUP11 ADD PUSH2 0x2E5F JUMP JUMPDEST SWAP5 POP POP PUSH1 0x60 PUSH2 0x3269 DUP10 DUP3 DUP11 ADD PUSH2 0x2EF4 JUMP JUMPDEST SWAP4 POP POP PUSH1 0x80 PUSH2 0x327A DUP10 DUP3 DUP11 ADD PUSH2 0x2EF4 JUMP JUMPDEST SWAP3 POP POP PUSH1 0xA0 PUSH2 0x328B DUP10 DUP3 DUP11 ADD PUSH2 0x2EF4 JUMP JUMPDEST SWAP2 POP POP SWAP3 SWAP6 POP SWAP3 SWAP6 POP SWAP3 SWAP6 JUMP JUMPDEST PUSH1 0x0 DUP1 PUSH1 0x0 PUSH1 0x60 DUP5 DUP7 SUB SLT ISZERO PUSH2 0x32B1 JUMPI PUSH2 0x32B0 PUSH2 0x39AE JUMP JUMPDEST JUMPDEST PUSH1 0x0 PUSH2 0x32BF DUP7 DUP3 DUP8 ADD PUSH2 0x2E5F JUMP JUMPDEST SWAP4 POP POP PUSH1 0x20 PUSH2 0x32D0 DUP7 DUP3 DUP8 ADD PUSH2 0x2EF4 JUMP JUMPDEST SWAP3 POP POP PUSH1 0x40 PUSH2 0x32E1 DUP7 DUP3 DUP8 ADD PUSH2 0x2EF4 JUMP JUMPDEST SWAP2 POP POP SWAP3 POP SWAP3 POP SWAP3 JUMP JUMPDEST PUSH1 0x0 PUSH1 0x20 DUP3 DUP5 SUB SLT ISZERO PUSH2 0x3301 JUMPI PUSH2 0x3300 PUSH2 0x39AE JUMP JUMPDEST JUMPDEST PUSH1 0x0 PUSH2 0x330F DUP5 DUP3 DUP6 ADD PUSH2 0x2EDF JUMP JUMPDEST SWAP2 POP POP SWAP3 SWAP2 POP POP JUMP JUMPDEST PUSH1 0x0 PUSH1 0x20 DUP3 DUP5 SUB SLT ISZERO PUSH2 0x332E JUMPI PUSH2 0x332D PUSH2 0x39AE JUMP JUMPDEST JUMPDEST PUSH1 0x0 PUSH2 0x333C DUP5 DUP3 DUP6 ADD PUSH2 0x2F09 JUMP JUMPDEST SWAP2 POP POP SWAP3 SWAP2 POP POP JUMP JUMPDEST PUSH1 0x0 DUP1 PUSH1 0x0 PUSH1 0x60 DUP5 DUP7 SUB SLT ISZERO PUSH2 0x335E JUMPI PUSH2 0x335D PUSH2 0x39AE JUMP JUMPDEST JUMPDEST PUSH1 0x0 PUSH2 0x336C DUP7 DUP3 DUP8 ADD PUSH2 0x2EF4 JUMP JUMPDEST SWAP4 POP POP PUSH1 0x20 PUSH2 0x337D DUP7 DUP3 DUP8 ADD PUSH2 0x2E5F JUMP JUMPDEST SWAP3 POP POP PUSH1 0x40 PUSH2 0x338E DUP7 DUP3 DUP8 ADD PUSH2 0x2EF4 JUMP JUMPDEST SWAP2 POP POP SWAP3 POP SWAP3 POP SWAP3 JUMP JUMPDEST PUSH2 0x33A1 DUP2 PUSH2 0x387C JUMP JUMPDEST DUP3 MSTORE POP POP JUMP JUMPDEST PUSH2 0x33B0 DUP2 PUSH2 0x388E JUMP JUMPDEST DUP3 MSTORE POP POP JUMP JUMPDEST PUSH1 0x0 PUSH2 0x33C3 PUSH1 0x18 DUP4 PUSH2 0x37B0 JUMP JUMPDEST SWAP2 POP PUSH2 0x33CE DUP3 PUSH2 0x39B3 JUMP JUMPDEST PUSH1 0x20 DUP3 ADD SWAP1 POP SWAP2 SWAP1 POP JUMP JUMPDEST PUSH1 0x0 PUSH2 0x33E6 PUSH1 0x1A DUP4 PUSH2 0x37B0 JUMP JUMPDEST SWAP2 POP PUSH2 0x33F1 DUP3 PUSH2 0x39DC JUMP JUMPDEST PUSH1 0x20 DUP3 ADD SWAP1 POP SWAP2 SWAP1 POP JUMP JUMPDEST PUSH1 0x0 PUSH2 0x3409 PUSH1 0x26 DUP4 PUSH2 0x37B0 JUMP JUMPDEST SWAP2 POP PUSH2 0x3414 DUP3 PUSH2 0x3A05 JUMP JUMPDEST PUSH1 0x40 DUP3 ADD SWAP1 POP SWAP2 SWAP1 POP JUMP JUMPDEST PUSH1 0x0 PUSH2 0x342C PUSH1 0x12 DUP4 PUSH2 0x37B0 JUMP JUMPDEST SWAP2 POP PUSH2 0x3437 DUP3 PUSH2 0x3A54 JUMP JUMPDEST PUSH1 0x20 DUP3 ADD SWAP1 POP SWAP2 SWAP1 POP JUMP JUMPDEST PUSH1 0x0 PUSH2 0x344F PUSH1 0x18 DUP4 PUSH2 0x37B0 JUMP JUMPDEST SWAP2 POP PUSH2 0x345A DUP3 PUSH2 0x3A7D JUMP JUMPDEST PUSH1 0x20 DUP3 ADD SWAP1 POP SWAP2 SWAP1 POP JUMP JUMPDEST PUSH1 0x0 PUSH2 0x3472 PUSH1 0xD DUP4 PUSH2 0x37B0 JUMP JUMPDEST SWAP2 POP PUSH2 0x347D DUP3 PUSH2 0x3AA6 JUMP JUMPDEST PUSH1 0x20 DUP3 ADD SWAP1 POP SWAP2 SWAP1 POP JUMP JUMPDEST PUSH1 0x0 PUSH2 0x3495 PUSH1 0x20 DUP4 PUSH2 0x37B0 JUMP JUMPDEST SWAP2 POP PUSH2 0x34A0 DUP3 PUSH2 0x3ACF JUMP JUMPDEST PUSH1 0x20 DUP3 ADD SWAP1 POP SWAP2 SWAP1 POP JUMP JUMPDEST PUSH1 0x0 PUSH2 0x34B8 PUSH1 0x0 DUP4 PUSH2 0x379F JUMP JUMPDEST SWAP2 POP PUSH2 0x34C3 DUP3 PUSH2 0x3AF8 JUMP JUMPDEST PUSH1 0x0 DUP3 ADD SWAP1 POP SWAP2 SWAP1 POP JUMP JUMPDEST PUSH1 0x0 PUSH2 0x34DB PUSH1 0x19 DUP4 PUSH2 0x37B0 JUMP JUMPDEST SWAP2 POP PUSH2 0x34E6 DUP3 PUSH2 0x3AFB JUMP JUMPDEST PUSH1 0x20 DUP3 ADD SWAP1 POP SWAP2 SWAP1 POP JUMP JUMPDEST PUSH1 0x0 PUSH2 0x34FE PUSH1 0x14 DUP4 PUSH2 0x37B0 JUMP JUMPDEST SWAP2 POP PUSH2 0x3509 DUP3 PUSH2 0x3B24 JUMP JUMPDEST PUSH1 0x20 DUP3 ADD SWAP1 POP SWAP2 SWAP1 POP JUMP JUMPDEST PUSH2 0x351D DUP2 PUSH2 0x38BA JUMP JUMPDEST DUP3 MSTORE POP POP JUMP JUMPDEST PUSH1 0x0 PUSH1 0x20 DUP3 ADD SWAP1 POP PUSH2 0x3538 PUSH1 0x0 DUP4 ADD DUP5 PUSH2 0x3398 JUMP JUMPDEST SWAP3 SWAP2 POP POP JUMP JUMPDEST PUSH1 0x0 PUSH1 0x40 DUP3 ADD SWAP1 POP PUSH2 0x3553 PUSH1 0x0 DUP4 ADD DUP6 PUSH2 0x3398 JUMP JUMPDEST PUSH2 0x3560 PUSH1 0x20 DUP4 ADD DUP5 PUSH2 0x3398 JUMP JUMPDEST SWAP4 SWAP3 POP POP POP JUMP JUMPDEST PUSH1 0x0 PUSH1 0x60 DUP3 ADD SWAP1 POP PUSH2 0x357C PUSH1 0x0 DUP4 ADD DUP7 PUSH2 0x3398 JUMP JUMPDEST PUSH2 0x3589 PUSH1 0x20 DUP4 ADD DUP6 PUSH2 0x3398 JUMP JUMPDEST PUSH2 0x3596 PUSH1 0x40 DUP4 ADD DUP5 PUSH2 0x3514 JUMP JUMPDEST SWAP5 SWAP4 POP POP POP POP JUMP JUMPDEST PUSH1 0x0 PUSH1 0x80 DUP3 ADD SWAP1 POP PUSH2 0x35B3 PUSH1 0x0 DUP4 ADD DUP7 PUSH2 0x3398 JUMP JUMPDEST PUSH2 0x35C0 PUSH1 0x20 DUP4 ADD DUP6 PUSH2 0x3398 JUMP JUMPDEST PUSH2 0x35CD PUSH1 0x40 DUP4 ADD DUP5 PUSH2 0x3514 JUMP JUMPDEST DUP2 DUP2 SUB PUSH1 0x60 DUP4 ADD MSTORE PUSH2 0x35DE DUP2 PUSH2 0x34AB JUMP JUMPDEST SWAP1 POP SWAP5 SWAP4 POP POP POP POP JUMP JUMPDEST PUSH1 0x0 PUSH1 0x20 DUP3 ADD SWAP1 POP PUSH2 0x35FD PUSH1 0x0 DUP4 ADD DUP5 PUSH2 0x33A7 JUMP JUMPDEST SWAP3 SWAP2 POP POP JUMP JUMPDEST PUSH1 0x0 PUSH1 0x20 DUP3 ADD SWAP1 POP DUP2 DUP2 SUB PUSH1 0x0 DUP4 ADD MSTORE PUSH2 0x361C DUP2 PUSH2 0x33B6 JUMP JUMPDEST SWAP1 POP SWAP2 SWAP1 POP JUMP JUMPDEST PUSH1 0x0 PUSH1 0x20 DUP3 ADD SWAP1 POP DUP2 DUP2 SUB PUSH1 0x0 DUP4 ADD MSTORE PUSH2 0x363C DUP2 PUSH2 0x33D9 JUMP JUMPDEST SWAP1 POP SWAP2 SWAP1 POP JUMP JUMPDEST PUSH1 0x0 PUSH1 0x20 DUP3 ADD SWAP1 POP DUP2 DUP2 SUB PUSH1 0x0 DUP4 ADD MSTORE PUSH2 0x365C DUP2 PUSH2 0x33FC JUMP JUMPDEST SWAP1 POP SWAP2 SWAP1 POP JUMP JUMPDEST PUSH1 0x0 PUSH1 0x20 DUP3 ADD SWAP1 POP DUP2 DUP2 SUB PUSH1 0x0 DUP4 ADD MSTORE PUSH2 0x367C DUP2 PUSH2 0x341F JUMP JUMPDEST SWAP1 POP SWAP2 SWAP1 POP JUMP JUMPDEST PUSH1 0x0 PUSH1 0x20 DUP3 ADD SWAP1 POP DUP2 DUP2 SUB PUSH1 0x0 DUP4 ADD MSTORE PUSH2 0x369C DUP2 PUSH2 0x3442 JUMP JUMPDEST SWAP1 POP SWAP2 SWAP1 POP JUMP JUMPDEST PUSH1 0x0 PUSH1 0x20 DUP3 ADD SWAP1 POP DUP2 DUP2 SUB PUSH1 0x0 DUP4 ADD MSTORE PUSH2 0x36BC DUP2 PUSH2 0x3465 JUMP JUMPDEST SWAP1 POP SWAP2 SWAP1 POP JUMP JUMPDEST PUSH1 0x0 PUSH1 0x20 DUP3 ADD SWAP1 POP DUP2 DUP2 SUB PUSH1 0x0 DUP4 ADD MSTORE PUSH2 0x36DC DUP2 PUSH2 0x3488 JUMP JUMPDEST SWAP1 POP SWAP2 SWAP1 POP JUMP JUMPDEST PUSH1 0x0 PUSH1 0x20 DUP3 ADD SWAP1 POP DUP2 DUP2 SUB PUSH1 0x0 DUP4 ADD MSTORE PUSH2 0x36FC DUP2 PUSH2 0x34CE JUMP JUMPDEST SWAP1 POP SWAP2 SWAP1 POP JUMP JUMPDEST PUSH1 0x0 PUSH1 0x20 DUP3 ADD SWAP1 POP DUP2 DUP2 SUB PUSH1 0x0 DUP4 ADD MSTORE PUSH2 0x371C DUP2 PUSH2 0x34F1 JUMP JUMPDEST SWAP1 POP SWAP2 SWAP1 POP JUMP JUMPDEST PUSH1 0x0 PUSH1 0x20 DUP3 ADD SWAP1 POP PUSH2 0x3738 PUSH1 0x0 DUP4 ADD DUP5 PUSH2 0x3514 JUMP JUMPDEST SWAP3 SWAP2 POP POP JUMP JUMPDEST PUSH1 0x0 PUSH1 0xC0 DUP3 ADD SWAP1 POP PUSH2 0x3753 PUSH1 0x0 DUP4 ADD DUP10 PUSH2 0x3514 JUMP JUMPDEST PUSH2 0x3760 PUSH1 0x20 DUP4 ADD DUP9 PUSH2 0x3398 JUMP JUMPDEST PUSH2 0x376D PUSH1 0x40 DUP4 ADD DUP8 PUSH2 0x3398 JUMP JUMPDEST PUSH2 0x377A PUSH1 0x60 DUP4 ADD DUP7 PUSH2 0x33A7 JUMP JUMPDEST PUSH2 0x3787 PUSH1 0x80 DUP4 ADD DUP6 PUSH2 0x3514 JUMP JUMPDEST PUSH2 0x3794 PUSH1 0xA0 DUP4 ADD DUP5 PUSH2 0x3514 JUMP JUMPDEST SWAP8 SWAP7 POP POP POP POP POP POP POP JUMP JUMPDEST PUSH1 0x0 DUP3 DUP3 MSTORE PUSH1 0x20 DUP3 ADD SWAP1 POP SWAP3 SWAP2 POP POP JUMP JUMPDEST PUSH1 0x0 DUP3 DUP3 MSTORE PUSH1 0x20 DUP3 ADD SWAP1 POP SWAP3 SWAP2 POP POP JUMP JUMPDEST PUSH1 0x0 PUSH2 0x37CC DUP3 PUSH2 0x38BA JUMP JUMPDEST SWAP2 POP PUSH2 0x37D7 DUP4 PUSH2 0x38BA JUMP JUMPDEST SWAP3 POP DUP3 PUSH32 0xFFFFFFFFFFFFFFFFFFFFFFFFFFFFFFFFFFFFFFFFFFFFFFFFFFFFFFFFFFFFFFFF SUB DUP3 GT ISZERO PUSH2 0x380C JUMPI PUSH2 0x380B PUSH2 0x390D JUMP JUMPDEST JUMPDEST DUP3 DUP3 ADD SWAP1 POP SWAP3 SWAP2 POP POP JUMP JUMPDEST PUSH1 0x0 PUSH2 0x3822 DUP3 PUSH2 0x38BA JUMP JUMPDEST SWAP2 POP PUSH2 0x382D DUP4 PUSH2 0x38BA JUMP JUMPDEST SWAP3 POP DUP3 PUSH2 0x383D JUMPI PUSH2 0x383C PUSH2 0x393C JUMP JUMPDEST JUMPDEST DUP3 DUP3 DIV SWAP1 POP SWAP3 SWAP2 POP POP JUMP JUMPDEST PUSH1 0x0 PUSH2 0x3853 DUP3 PUSH2 0x38BA JUMP JUMPDEST SWAP2 POP PUSH2 0x385E DUP4 PUSH2 0x38BA JUMP JUMPDEST SWAP3 POP DUP3 DUP3 LT ISZERO PUSH2 0x3871 JUMPI PUSH2 0x3870 PUSH2 0x390D JUMP JUMPDEST JUMPDEST DUP3 DUP3 SUB SWAP1 POP SWAP3 SWAP2 POP POP JUMP JUMPDEST PUSH1 0x0 PUSH2 0x3887 DUP3 PUSH2 0x389A JUMP JUMPDEST SWAP1 POP SWAP2 SWAP1 POP JUMP JUMPDEST PUSH1 0x0 DUP2 ISZERO ISZERO SWAP1 POP SWAP2 SWAP1 POP JUMP JUMPDEST PUSH1 0x0 PUSH20 0xFFFFFFFFFFFFFFFFFFFFFFFFFFFFFFFFFFFFFFFF DUP3 AND SWAP1 POP SWAP2 SWAP1 POP JUMP JUMPDEST PUSH1 0x0 DUP2 SWAP1 POP SWAP2 SWAP1 POP JUMP JUMPDEST PUSH1 0x0 PUSH2 0x38CF DUP3 PUSH2 0x38BA JUMP JUMPDEST SWAP2 POP PUSH32 0xFFFFFFFFFFFFFFFFFFFFFFFFFFFFFFFFFFFFFFFFFFFFFFFFFFFFFFFFFFFFFFFF DUP3 EQ ISZERO PUSH2 0x3902 JUMPI PUSH2 0x3901 PUSH2 0x390D JUMP JUMPDEST JUMPDEST PUSH1 0x1 DUP3 ADD SWAP1 POP SWAP2 SWAP1 POP JUMP JUMPDEST PUSH32 0x4E487B7100000000000000000000000000000000000000000000000000000000 PUSH1 0x0 MSTORE PUSH1 0x11 PUSH1 0x4 MSTORE PUSH1 0x24 PUSH1 0x0 REVERT JUMPDEST PUSH32 0x4E487B7100000000000000000000000000000000000000000000000000000000 PUSH1 0x0 MSTORE PUSH1 0x12 PUSH1 0x4 MSTORE PUSH1 0x24 PUSH1 0x0 REVERT JUMPDEST PUSH32 0x4E487B7100000000000000000000000000000000000000000000000000000000 PUSH1 0x0 MSTORE PUSH1 0x32 PUSH1 0x4 MSTORE PUSH1 0x24 PUSH1 0x0 REVERT JUMPDEST PUSH1 0x0 DUP1 REVERT JUMPDEST PUSH1 0x0 DUP1 REVERT JUMPDEST PUSH1 0x0 DUP1 REVERT JUMPDEST PUSH1 0x0 DUP1 REVERT JUMPDEST PUSH1 0x0 DUP1 REVERT JUMPDEST PUSH32 0x54686973204E4654206973206E6F74206C697374696E672E0000000000000000 PUSH1 0x0 DUP3 ADD MSTORE POP JUMP JUMPDEST PUSH32 0x436F6E7472616374206D75737420626520617070726F7665642E000000000000 PUSH1 0x0 DUP3 ADD MSTORE POP JUMP JUMPDEST PUSH32 0x4F776E61626C653A206E6577206F776E657220697320746865207A65726F2061 PUSH1 0x0 DUP3 ADD MSTORE PUSH32 0x6464726573730000000000000000000000000000000000000000000000000000 PUSH1 0x20 DUP3 ADD MSTORE POP JUMP JUMPDEST PUSH32 0x4275792066726F6D20796F757273656C662E0000000000000000000000000000 PUSH1 0x0 DUP3 ADD MSTORE POP JUMP JUMPDEST PUSH32 0x496E73756666696369656E742066756E64732073656E742E0000000000000000 PUSH1 0x0 DUP3 ADD MSTORE POP JUMP JUMPDEST PUSH32 0x556E617574686F72697A65642E00000000000000000000000000000000000000 PUSH1 0x0 DUP3 ADD MSTORE POP JUMP JUMPDEST PUSH32 0x4F776E61626C653A2063616C6C6572206973206E6F7420746865206F776E6572 PUSH1 0x0 DUP3 ADD MSTORE POP JUMP JUMPDEST POP JUMP JUMPDEST PUSH32 0x54686973204E4654206973206E6F7420666F722073656C6C2E00000000000000 PUSH1 0x0 DUP3 ADD MSTORE POP JUMP JUMPDEST PUSH32 0x53656C6C657220686173206E6F20746F6B656E2E000000000000000000000000 PUSH1 0x0 DUP3 ADD MSTORE POP JUMP JUMPDEST PUSH2 0x3B56 DUP2 PUSH2 0x387C JUMP JUMPDEST DUP2 EQ PUSH2 0x3B61 JUMPI PUSH1 0x0 DUP1 REVERT JUMPDEST POP JUMP JUMPDEST PUSH2 0x3B6D DUP2 PUSH2 0x388E JUMP JUMPDEST DUP2 EQ PUSH2 0x3B78 JUMPI PUSH1 0x0 DUP1 REVERT JUMPDEST POP JUMP JUMPDEST PUSH2 0x3B84 DUP2 PUSH2 0x38BA JUMP JUMPDEST DUP2 EQ PUSH2 0x3B8F JUMPI PUSH1 0x0 DUP1 REVERT JUMPDEST POP JUMP INVALID LOG2 PUSH5 0x6970667358 0x22 SLT KECCAK256 PUSH25 0x2D06AAAB834A469E8B61F4C29BDB07FD3372CC4B43BA64ACDC 0xCD 0xEC 0xE1 0xC AND PUSH10 0x64736F6C634300080700 CALLER "
				},
				"gasEstimates": {
					"creation": {
						"codeDepositCost": "3060800",
						"executionCost": "infinite",
						"totalCost": "infinite"
					},
					"external": {
						"addListing(uint256,address,uint256)": "infinite",
						"cancelListing(address,uint256)": "infinite",
						"getIsListing(address,uint256)": "3236",
						"getOwner(address,uint256)": "infinite",
						"getPrevOwner(address,uint256,uint256)": "infinite",
						"getPrevOwnerAmount(address,uint256)": "infinite",
						"getPrice(address,uint256)": "infinite",
						"getSeller(address,uint256)": "infinite",
						"listings(address,uint256)": "infinite",
						"owner()": "2611",
						"purchase(address,uint256,address,uint256,uint256,uint256)": "infinite",
						"purchaseBatch(address,uint256[],address,uint256,uint256[],uint256)": "infinite",
						"purchaseERC20(address,address,uint256,address,uint256,uint256,uint256)": "infinite",
						"purchaseERC20Batch(address,address,uint256[],address,uint256,uint256[],uint256)": "infinite",
						"renounceOwnership()": "30463",
						"transferOwnership(address)": "30811"
					}
				},
				"methodIdentifiers": {
					"addListing(uint256,address,uint256)": "80abbe57",
					"cancelListing(address,uint256)": "b2ddee06",
					"getIsListing(address,uint256)": "031aa9b5",
					"getOwner(address,uint256)": "2f634a90",
					"getPrevOwner(address,uint256,uint256)": "2973d6f8",
					"getPrevOwnerAmount(address,uint256)": "d178227a",
					"getPrice(address,uint256)": "449e815d",
					"getSeller(address,uint256)": "189ecff1",
					"listings(address,uint256)": "0007df30",
					"owner()": "8da5cb5b",
					"purchase(address,uint256,address,uint256,uint256,uint256)": "8111f398",
					"purchaseBatch(address,uint256[],address,uint256,uint256[],uint256)": "8c5b197b",
					"purchaseERC20(address,address,uint256,address,uint256,uint256,uint256)": "2c872cd1",
					"purchaseERC20Batch(address,address,uint256[],address,uint256,uint256[],uint256)": "ed81abad",
					"renounceOwnership()": "715018a6",
					"transferOwnership(address)": "f2fde38b"
				}
			},
			"storageLayout": {
				"storage": [
					{
						"astId": 1325,
						"contract": "MarketERC721.sol:Market",
						"label": "_owner",
						"offset": 0,
						"slot": "0",
						"type": "t_address"
					},
					{
						"astId": 80,
						"contract": "MarketERC721.sol:Market",
						"label": "listings",
						"offset": 0,
						"slot": "1",
						"type": "t_mapping(t_address,t_mapping(t_uint256,t_struct(Listing)97_storage))"
					}
				],
				"types": {
					"t_address": {
						"encoding": "inplace",
						"label": "address",
						"numberOfBytes": "20"
					},
					"t_bool": {
						"encoding": "inplace",
						"label": "bool",
						"numberOfBytes": "1"
					},
					"t_mapping(t_address,t_mapping(t_uint256,t_struct(Listing)97_storage))": {
						"encoding": "mapping",
						"key": "t_address",
						"label": "mapping(address => mapping(uint256 => struct Market.Listing))",
						"numberOfBytes": "32",
						"value": "t_mapping(t_uint256,t_struct(Listing)97_storage)"
					},
					"t_mapping(t_uint256,t_address)": {
						"encoding": "mapping",
						"key": "t_uint256",
						"label": "mapping(uint256 => address)",
						"numberOfBytes": "32",
						"value": "t_address"
					},
					"t_mapping(t_uint256,t_struct(Listing)97_storage)": {
						"encoding": "mapping",
						"key": "t_uint256",
						"label": "mapping(uint256 => struct Market.Listing)",
						"numberOfBytes": "32",
						"value": "t_struct(Listing)97_storage"
					},
					"t_struct(Listing)97_storage": {
						"encoding": "inplace",
						"label": "struct Market.Listing",
						"members": [
							{
								"astId": 82,
								"contract": "MarketERC721.sol:Market",
								"label": "price",
								"offset": 0,
								"slot": "0",
								"type": "t_uint256"
							},
							{
								"astId": 84,
								"contract": "MarketERC721.sol:Market",
								"label": "seller",
								"offset": 0,
								"slot": "1",
								"type": "t_address"
							},
							{
								"astId": 86,
								"contract": "MarketERC721.sol:Market",
								"label": "owner",
								"offset": 0,
								"slot": "2",
								"type": "t_address"
							},
							{
								"astId": 88,
								"contract": "MarketERC721.sol:Market",
								"label": "isListing",
								"offset": 20,
								"slot": "2",
								"type": "t_bool"
							},
							{
								"astId": 90,
								"contract": "MarketERC721.sol:Market",
								"label": "ownerCount",
								"offset": 0,
								"slot": "3",
								"type": "t_uint256"
							},
							{
								"astId": 92,
								"contract": "MarketERC721.sol:Market",
								"label": "prevOwnersAmount",
								"offset": 0,
								"slot": "4",
								"type": "t_uint256"
							},
							{
								"astId": 96,
								"contract": "MarketERC721.sol:Market",
								"label": "previousOwners",
								"offset": 0,
								"slot": "5",
								"type": "t_mapping(t_uint256,t_address)"
							}
						],
						"numberOfBytes": "192"
					},
					"t_uint256": {
						"encoding": "inplace",
						"label": "uint256",
						"numberOfBytes": "32"
					}
				}
			},
			"userdoc": {
				"kind": "user",
				"methods": {},
				"version": 1
			}
		}
	}
}