{
	"Bid.sol": {
		"Auction": {
			"abi": [
				{
					"anonymous": false,
					"inputs": [
						{
							"indexed": true,
							"internalType": "address",
							"name": "sender",
							"type": "address"
						},
						{
							"indexed": false,
							"internalType": "uint256",
							"name": "amount",
							"type": "uint256"
						}
					],
					"name": "Bid",
					"type": "event"
				},
				{
					"anonymous": false,
					"inputs": [
						{
							"indexed": false,
							"internalType": "address",
							"name": "highestBidder",
							"type": "address"
						},
						{
							"indexed": false,
							"internalType": "uint256",
							"name": "highestBid",
							"type": "uint256"
						}
					],
					"name": "End",
					"type": "event"
				},
				{
					"anonymous": false,
					"inputs": [
						{
							"indexed": true,
							"internalType": "address",
							"name": "tokenAddr",
							"type": "address"
						},
						{
							"indexed": true,
							"internalType": "uint256",
							"name": "tokenId",
							"type": "uint256"
						},
						{
							"indexed": false,
							"internalType": "uint256",
							"name": "startingBid",
							"type": "uint256"
						},
						{
							"indexed": false,
							"internalType": "uint256",
							"name": "endAt",
							"type": "uint256"
						}
					],
					"name": "Start",
					"type": "event"
				},
				{
					"anonymous": false,
					"inputs": [
						{
							"indexed": true,
							"internalType": "address",
							"name": "bidder",
							"type": "address"
						},
						{
							"indexed": false,
							"internalType": "uint256",
							"name": "amount",
							"type": "uint256"
						}
					],
					"name": "Withdraw",
					"type": "event"
				},
				{
					"inputs": [
						{
							"internalType": "address",
							"name": "tokenAddr_",
							"type": "address"
						},
						{
							"internalType": "uint256",
							"name": "tokenId_",
							"type": "uint256"
						},
						{
							"internalType": "address",
							"name": "to",
							"type": "address"
						}
					],
					"name": "autoWithdraw",
					"outputs": [],
					"stateMutability": "payable",
					"type": "function"
				},
				{
					"inputs": [],
					"name": "balances",
					"outputs": [
						{
							"internalType": "uint256",
							"name": "",
							"type": "uint256"
						}
					],
					"stateMutability": "view",
					"type": "function"
				},
				{
					"inputs": [
						{
							"internalType": "address",
							"name": "_tokenAddr",
							"type": "address"
						},
						{
							"internalType": "uint256",
							"name": "_tokenId",
							"type": "uint256"
						}
					],
					"name": "bid",
					"outputs": [],
					"stateMutability": "payable",
					"type": "function"
				},
				{
					"inputs": [
						{
							"internalType": "address",
							"name": "",
							"type": "address"
						},
						{
							"internalType": "uint256",
							"name": "",
							"type": "uint256"
						}
					],
					"name": "biddings",
					"outputs": [
						{
							"internalType": "address",
							"name": "seller",
							"type": "address"
						},
						{
							"internalType": "bool",
							"name": "started",
							"type": "bool"
						},
						{
							"internalType": "bool",
							"name": "ended",
							"type": "bool"
						},
						{
							"internalType": "uint256",
							"name": "endAt",
							"type": "uint256"
						},
						{
							"internalType": "contract ERC721",
							"name": "tokenAddr",
							"type": "address"
						},
						{
							"internalType": "uint256",
							"name": "tokenId",
							"type": "uint256"
						},
						{
							"internalType": "uint256",
							"name": "bidCount",
							"type": "uint256"
						}
					],
					"stateMutability": "view",
					"type": "function"
				},
				{
					"inputs": [
						{
							"internalType": "address",
							"name": "_contractAddr",
							"type": "address"
						},
						{
							"internalType": "address",
							"name": "_tokenAddr",
							"type": "address"
						},
						{
							"internalType": "uint256",
							"name": "_tokenId",
							"type": "uint256"
						}
					],
					"name": "end",
					"outputs": [],
					"stateMutability": "nonpayable",
					"type": "function"
				},
				{
					"inputs": [
						{
							"internalType": "address",
							"name": "tokenAddr",
							"type": "address"
						},
						{
							"internalType": "uint256",
							"name": "tokenId",
							"type": "uint256"
						},
						{
							"internalType": "address",
							"name": "bidder",
							"type": "address"
						}
					],
					"name": "getBids",
					"outputs": [
						{
							"internalType": "uint256",
							"name": "bids",
							"type": "uint256"
						}
					],
					"stateMutability": "view",
					"type": "function"
				},
				{
					"inputs": [
						{
							"internalType": "address",
							"name": "tokenAddr",
							"type": "address"
						},
						{
							"internalType": "uint256",
							"name": "tokenId",
							"type": "uint256"
						},
						{
							"internalType": "uint256",
							"name": "bidCount",
							"type": "uint256"
						}
					],
					"name": "getHighestBid",
					"outputs": [
						{
							"internalType": "uint256",
							"name": "highestBid",
							"type": "uint256"
						}
					],
					"stateMutability": "view",
					"type": "function"
				},
				{
					"inputs": [
						{
							"internalType": "address",
							"name": "tokenAddr",
							"type": "address"
						},
						{
							"internalType": "uint256",
							"name": "tokenId",
							"type": "uint256"
						},
						{
							"internalType": "uint256",
							"name": "bidCount",
							"type": "uint256"
						}
					],
					"name": "getHighestBidder",
					"outputs": [
						{
							"internalType": "address",
							"name": "highestBidder",
							"type": "address"
						}
					],
					"stateMutability": "view",
					"type": "function"
				},
				{
					"inputs": [
						{
							"internalType": "address",
							"name": "_tokenAddr",
							"type": "address"
						},
						{
							"internalType": "uint256",
							"name": "_tokenId",
							"type": "uint256"
						},
						{
							"internalType": "uint256",
							"name": "startingBid",
							"type": "uint256"
						},
						{
							"internalType": "uint256",
							"name": "dayAmount",
							"type": "uint256"
						}
					],
					"name": "start",
					"outputs": [],
					"stateMutability": "nonpayable",
					"type": "function"
				},
				{
					"inputs": [
						{
							"internalType": "address",
							"name": "_tokenAddr",
							"type": "address"
						},
						{
							"internalType": "uint256",
							"name": "_tokenId",
							"type": "uint256"
						}
					],
					"name": "withdraw",
					"outputs": [],
					"stateMutability": "payable",
					"type": "function"
				}
			],
			"devdoc": {
				"kind": "dev",
				"methods": {},
				"version": 1
			},
			"evm": {
				"assembly": "    /* \"Bid.sol\":445:5864  contract Auction {\r... */\n  mstore(0x40, 0x80)\n  callvalue\n  dup1\n  iszero\n  tag_1\n  jumpi\n  0x00\n  dup1\n  revert\ntag_1:\n  pop\n  dataSize(sub_0)\n  dup1\n  dataOffset(sub_0)\n  0x00\n  codecopy\n  0x00\n  return\nstop\n\nsub_0: assembly {\n        /* \"Bid.sol\":445:5864  contract Auction {\r... */\n      mstore(0x40, 0x80)\n      jumpi(tag_1, lt(calldatasize, 0x04))\n      shr(0xe0, calldataload(0x00))\n      dup1\n      0xb0651dce\n      gt\n      tag_12\n      jumpi\n      dup1\n      0xb0651dce\n      eq\n      tag_7\n      jumpi\n      dup1\n      0xb76a3b5a\n      eq\n      tag_8\n      jumpi\n      dup1\n      0xbd15bf4e\n      eq\n      tag_9\n      jumpi\n      dup1\n      0xf3fef3a3\n      eq\n      tag_10\n      jumpi\n      dup1\n      0xf48e9b3d\n      eq\n      tag_11\n      jumpi\n      jump(tag_1)\n    tag_12:\n      dup1\n      0x545c285c\n      eq\n      tag_2\n      jumpi\n      dup1\n      0x57354ed1\n      eq\n      tag_3\n      jumpi\n      dup1\n      0x59d667a5\n      eq\n      tag_4\n      jumpi\n      dup1\n      0x699ff43f\n      eq\n      tag_5\n      jumpi\n      dup1\n      0x7bb98a68\n      eq\n      tag_6\n      jumpi\n    tag_1:\n      0x00\n      dup1\n      revert\n        /* \"Bid.sol\":3217:4897  function end(address _contractAddr, address _tokenAddr, uint _tokenId) external {\r... */\n    tag_2:\n      callvalue\n      dup1\n      iszero\n      tag_13\n      jumpi\n      0x00\n      dup1\n      revert\n    tag_13:\n      pop\n      tag_14\n      0x04\n      dup1\n      calldatasize\n      sub\n      dup2\n      add\n      swap1\n      tag_15\n      swap2\n      swap1\n      tag_16\n      jump\t// in\n    tag_15:\n      tag_17\n      jump\t// in\n    tag_14:\n      stop\n        /* \"Bid.sol\":5697:5861  function getBids(address tokenAddr, uint tokenId, address bidder) public view returns(uint bids) {\r... */\n    tag_3:\n      callvalue\n      dup1\n      iszero\n      tag_18\n      jumpi\n      0x00\n      dup1\n      revert\n    tag_18:\n      pop\n      tag_19\n      0x04\n      dup1\n      calldatasize\n      sub\n      dup2\n      add\n      swap1\n      tag_20\n      swap2\n      swap1\n      tag_21\n      jump\t// in\n    tag_20:\n      tag_22\n      jump\t// in\n    tag_19:\n      mload(0x40)\n      tag_23\n      swap2\n      swap1\n      tag_24\n      jump\t// in\n    tag_23:\n      mload(0x40)\n      dup1\n      swap2\n      sub\n      swap1\n      return\n        /* \"Bid.sol\":2004:2675  function bid(address _tokenAddr, uint _tokenId) external payable {\r... */\n    tag_4:\n      tag_25\n      0x04\n      dup1\n      calldatasize\n      sub\n      dup2\n      add\n      swap1\n      tag_26\n      swap2\n      swap1\n      tag_27\n      jump\t// in\n    tag_26:\n      tag_28\n      jump\t// in\n    tag_25:\n      stop\n        /* \"Bid.sol\":4905:5295  function autoWithdraw(address tokenAddr_, uint tokenId_, address to) public payable {\r... */\n    tag_5:\n      tag_29\n      0x04\n      dup1\n      calldatasize\n      sub\n      dup2\n      add\n      swap1\n      tag_30\n      swap2\n      swap1\n      tag_21\n      jump\t// in\n    tag_30:\n      tag_31\n      jump\t// in\n    tag_29:\n      stop\n        /* \"Bid.sol\":803:823  uint public balances */\n    tag_6:\n      callvalue\n      dup1\n      iszero\n      tag_32\n      jumpi\n      0x00\n      dup1\n      revert\n    tag_32:\n      pop\n      tag_33\n      tag_34\n      jump\t// in\n    tag_33:\n      mload(0x40)\n      tag_35\n      swap2\n      swap1\n      tag_24\n      jump\t// in\n    tag_35:\n      mload(0x40)\n      dup1\n      swap2\n      sub\n      swap1\n      return\n        /* \"Bid.sol\":5506:5689  function getHighestBid(address tokenAddr, uint tokenId, uint bidCount) public view returns(uint highestBid) {\r... */\n    tag_7:\n      callvalue\n      dup1\n      iszero\n      tag_36\n      jumpi\n      0x00\n      dup1\n      revert\n    tag_36:\n      pop\n      tag_37\n      0x04\n      dup1\n      calldatasize\n      sub\n      dup2\n      add\n      swap1\n      tag_38\n      swap2\n      swap1\n      tag_39\n      jump\t// in\n    tag_38:\n      tag_40\n      jump\t// in\n    tag_37:\n      mload(0x40)\n      tag_41\n      swap2\n      swap1\n      tag_24\n      jump\t// in\n    tag_41:\n      mload(0x40)\n      dup1\n      swap2\n      sub\n      swap1\n      return\n        /* \"Bid.sol\":1159:1996  function start(address _tokenAddr, uint _tokenId, uint startingBid, uint dayAmount) external {\r... */\n    tag_8:\n      callvalue\n      dup1\n      iszero\n      tag_42\n      jumpi\n      0x00\n      dup1\n      revert\n    tag_42:\n      pop\n      tag_43\n      0x04\n      dup1\n      calldatasize\n      sub\n      dup2\n      add\n      swap1\n      tag_44\n      swap2\n      swap1\n      tag_45\n      jump\t// in\n    tag_44:\n      tag_46\n      jump\t// in\n    tag_43:\n      stop\n        /* \"Bid.sol\":5303:5498  function getHighestBidder(address tokenAddr, uint tokenId, uint bidCount) public view returns(address highestBidder) {\r... */\n    tag_9:\n      callvalue\n      dup1\n      iszero\n      tag_47\n      jumpi\n      0x00\n      dup1\n      revert\n    tag_47:\n      pop\n      tag_48\n      0x04\n      dup1\n      calldatasize\n      sub\n      dup2\n      add\n      swap1\n      tag_49\n      swap2\n      swap1\n      tag_39\n      jump\t// in\n    tag_49:\n      tag_50\n      jump\t// in\n    tag_48:\n      mload(0x40)\n      tag_51\n      swap2\n      swap1\n      tag_52\n      jump\t// in\n    tag_51:\n      mload(0x40)\n      dup1\n      swap2\n      sub\n      swap1\n      return\n        /* \"Bid.sol\":2683:3209  function withdraw(address _tokenAddr, uint _tokenId) external payable {\r... */\n    tag_10:\n      tag_53\n      0x04\n      dup1\n      calldatasize\n      sub\n      dup2\n      add\n      swap1\n      tag_54\n      swap2\n      swap1\n      tag_27\n      jump\t// in\n    tag_54:\n      tag_55\n      jump\t// in\n    tag_53:\n      stop\n        /* \"Bid.sol\":735:794  mapping(address =>mapping(uint => Bidding)) public biddings */\n    tag_11:\n      callvalue\n      dup1\n      iszero\n      tag_56\n      jumpi\n      0x00\n      dup1\n      revert\n    tag_56:\n      pop\n      tag_57\n      0x04\n      dup1\n      calldatasize\n      sub\n      dup2\n      add\n      swap1\n      tag_58\n      swap2\n      swap1\n      tag_27\n      jump\t// in\n    tag_58:\n      tag_59\n      jump\t// in\n    tag_57:\n      mload(0x40)\n      tag_60\n      swap8\n      swap7\n      swap6\n      swap5\n      swap4\n      swap3\n      swap2\n      swap1\n      tag_61\n      jump\t// in\n    tag_60:\n      mload(0x40)\n      dup1\n      swap2\n      sub\n      swap1\n      return\n        /* \"Bid.sol\":3217:4897  function end(address _contractAddr, address _tokenAddr, uint _tokenId) external {\r... */\n    tag_17:\n        /* \"Bid.sol\":3308:3328  Bidding storage _bid */\n      0x00\n        /* \"Bid.sol\":3331:3339  biddings */\n      dup1\n        /* \"Bid.sol\":3331:3351  biddings[_tokenAddr] */\n      0x00\n        /* \"Bid.sol\":3340:3350  _tokenAddr */\n      dup5\n        /* \"Bid.sol\":3331:3351  biddings[_tokenAddr] */\n      0xffffffffffffffffffffffffffffffffffffffff\n      and\n      0xffffffffffffffffffffffffffffffffffffffff\n      and\n      dup2\n      mstore\n      0x20\n      add\n      swap1\n      dup2\n      mstore\n      0x20\n      add\n      0x00\n      keccak256\n        /* \"Bid.sol\":3331:3361  biddings[_tokenAddr][_tokenId] */\n      0x00\n        /* \"Bid.sol\":3352:3360  _tokenId */\n      dup4\n        /* \"Bid.sol\":3331:3361  biddings[_tokenAddr][_tokenId] */\n      dup2\n      mstore\n      0x20\n      add\n      swap1\n      dup2\n      mstore\n      0x20\n      add\n      0x00\n      keccak256\n        /* \"Bid.sol\":3308:3361  Bidding storage _bid = biddings[_tokenAddr][_tokenId] */\n      swap1\n      pop\n        /* \"Bid.sol\":3372:3386  Market _market */\n      0x00\n        /* \"Bid.sol\":3396:3409  _contractAddr */\n      dup5\n        /* \"Bid.sol\":3372:3410  Market _market = Market(_contractAddr) */\n      swap1\n      pop\n        /* \"Bid.sol\":3431:3435  _bid */\n      dup2\n        /* \"Bid.sol\":3431:3443  _bid.started */\n      0x00\n      add\n      0x14\n      swap1\n      sload\n      swap1\n      0x0100\n      exp\n      swap1\n      div\n      0xff\n      and\n        /* \"Bid.sol\":3423:3472  require(_bid.started, \"You need to start first!\") */\n      tag_63\n      jumpi\n      mload(0x40)\n      0x08c379a000000000000000000000000000000000000000000000000000000000\n      dup2\n      mstore\n      0x04\n      add\n      tag_64\n      swap1\n      tag_65\n      jump\t// in\n    tag_64:\n      mload(0x40)\n      dup1\n      swap2\n      sub\n      swap1\n      revert\n    tag_63:\n        /* \"Bid.sol\":3510:3514  _bid */\n      dup2\n        /* \"Bid.sol\":3510:3520  _bid.endAt */\n      0x01\n      add\n      sload\n        /* \"Bid.sol\":3491:3506  block.timestamp */\n      timestamp\n        /* \"Bid.sol\":3491:3520  block.timestamp >= _bid.endAt */\n      lt\n      iszero\n        /* \"Bid.sol\":3483:3550  require(block.timestamp >= _bid.endAt, \"Auction is still ongoing!\") */\n      tag_66\n      jumpi\n      mload(0x40)\n      0x08c379a000000000000000000000000000000000000000000000000000000000\n      dup2\n      mstore\n      0x04\n      add\n      tag_67\n      swap1\n      tag_68\n      jump\t// in\n    tag_67:\n      mload(0x40)\n      dup1\n      swap2\n      sub\n      swap1\n      revert\n    tag_66:\n        /* \"Bid.sol\":3570:3574  _bid */\n      dup2\n        /* \"Bid.sol\":3570:3580  _bid.ended */\n      0x00\n      add\n      0x15\n      swap1\n      sload\n      swap1\n      0x0100\n      exp\n      swap1\n      div\n      0xff\n      and\n        /* \"Bid.sol\":3569:3580  !_bid.ended */\n      iszero\n        /* \"Bid.sol\":3561:3607  require(!_bid.ended, \"Auction already ended!\") */\n      tag_69\n      jumpi\n      mload(0x40)\n      0x08c379a000000000000000000000000000000000000000000000000000000000\n      dup2\n      mstore\n      0x04\n      add\n      tag_70\n      swap1\n      tag_71\n      jump\t// in\n    tag_70:\n      mload(0x40)\n      dup1\n      swap2\n      sub\n      swap1\n      revert\n    tag_69:\n        /* \"Bid.sol\":3669:3670  0 */\n      0x00\n        /* \"Bid.sol\":3624:3671  _bid.highestBidder[_bid.bidCount] != address(0) */\n      0xffffffffffffffffffffffffffffffffffffffff\n      and\n        /* \"Bid.sol\":3624:3628  _bid */\n      dup3\n        /* \"Bid.sol\":3624:3642  _bid.highestBidder */\n      0x06\n      add\n        /* \"Bid.sol\":3624:3657  _bid.highestBidder[_bid.bidCount] */\n      0x00\n        /* \"Bid.sol\":3643:3647  _bid */\n      dup5\n        /* \"Bid.sol\":3643:3656  _bid.bidCount */\n      0x04\n      add\n      sload\n        /* \"Bid.sol\":3624:3657  _bid.highestBidder[_bid.bidCount] */\n      dup2\n      mstore\n      0x20\n      add\n      swap1\n      dup2\n      mstore\n      0x20\n      add\n      0x00\n      keccak256\n      0x00\n      swap1\n      sload\n      swap1\n      0x0100\n      exp\n      swap1\n      div\n      0xffffffffffffffffffffffffffffffffffffffff\n      and\n        /* \"Bid.sol\":3624:3671  _bid.highestBidder[_bid.bidCount] != address(0) */\n      0xffffffffffffffffffffffffffffffffffffffff\n      and\n      eq\n        /* \"Bid.sol\":3620:4743  if (_bid.highestBidder[_bid.bidCount] != address(0)) {\r... */\n      tag_72\n      jumpi\n        /* \"Bid.sol\":3690:3694  _bid */\n      dup2\n        /* \"Bid.sol\":3690:3704  _bid.tokenAddr */\n      0x02\n      add\n      0x00\n      swap1\n      sload\n      swap1\n      0x0100\n      exp\n      swap1\n      div\n      0xffffffffffffffffffffffffffffffffffffffff\n      and\n        /* \"Bid.sol\":3690:3717  _bid.tokenAddr.transferFrom */\n      0xffffffffffffffffffffffffffffffffffffffff\n      and\n      0x23b872dd\n        /* \"Bid.sol\":3726:3730  this */\n      address\n        /* \"Bid.sol\":3733:3737  _bid */\n      dup5\n        /* \"Bid.sol\":3733:3751  _bid.highestBidder */\n      0x06\n      add\n        /* \"Bid.sol\":3733:3766  _bid.highestBidder[_bid.bidCount] */\n      0x00\n        /* \"Bid.sol\":3752:3756  _bid */\n      dup7\n        /* \"Bid.sol\":3752:3765  _bid.bidCount */\n      0x04\n      add\n      sload\n        /* \"Bid.sol\":3733:3766  _bid.highestBidder[_bid.bidCount] */\n      dup2\n      mstore\n      0x20\n      add\n      swap1\n      dup2\n      mstore\n      0x20\n      add\n      0x00\n      keccak256\n      0x00\n      swap1\n      sload\n      swap1\n      0x0100\n      exp\n      swap1\n      div\n      0xffffffffffffffffffffffffffffffffffffffff\n      and\n        /* \"Bid.sol\":3768:3772  _bid */\n      dup6\n        /* \"Bid.sol\":3768:3780  _bid.tokenId */\n      0x03\n      add\n      sload\n        /* \"Bid.sol\":3690:3781  _bid.tokenAddr.transferFrom(address(this), _bid.highestBidder[_bid.bidCount], _bid.tokenId) */\n      mload(0x40)\n      dup5\n      0xffffffff\n      and\n      0xe0\n      shl\n      dup2\n      mstore\n      0x04\n      add\n      tag_73\n      swap4\n      swap3\n      swap2\n      swap1\n      tag_74\n      jump\t// in\n    tag_73:\n      0x00\n      mload(0x40)\n      dup1\n      dup4\n      sub\n      dup2\n      0x00\n      dup8\n      dup1\n      extcodesize\n      iszero\n      dup1\n      iszero\n      tag_75\n      jumpi\n      0x00\n      dup1\n      revert\n    tag_75:\n      pop\n      gas\n      call\n      iszero\n      dup1\n      iszero\n      tag_77\n      jumpi\n      returndatasize\n      0x00\n      dup1\n      returndatacopy\n      revert(0x00, returndatasize)\n    tag_77:\n      pop\n      pop\n      pop\n      pop\n        /* \"Bid.sol\":3806:3810  _bid */\n      dup2\n        /* \"Bid.sol\":3806:3817  _bid.seller */\n      0x00\n      add\n      0x00\n      swap1\n      sload\n      swap1\n      0x0100\n      exp\n      swap1\n      div\n      0xffffffffffffffffffffffffffffffffffffffff\n      and\n        /* \"Bid.sol\":3798:3827  payable(_bid.seller).transfer */\n      0xffffffffffffffffffffffffffffffffffffffff\n      and\n        /* \"Bid.sol\":3798:3899  payable(_bid.seller).transfer(_bid.highestBid[_bid.bidCount] - (_bid.highestBid[_bid.bidCount] / 20)) */\n      0x08fc\n        /* \"Bid.sol\":3895:3897  20 */\n      0x14\n        /* \"Bid.sol\":3862:3866  _bid */\n      dup5\n        /* \"Bid.sol\":3862:3877  _bid.highestBid */\n      0x05\n      add\n        /* \"Bid.sol\":3862:3892  _bid.highestBid[_bid.bidCount] */\n      0x00\n        /* \"Bid.sol\":3878:3882  _bid */\n      dup7\n        /* \"Bid.sol\":3878:3891  _bid.bidCount */\n      0x04\n      add\n      sload\n        /* \"Bid.sol\":3862:3892  _bid.highestBid[_bid.bidCount] */\n      dup2\n      mstore\n      0x20\n      add\n      swap1\n      dup2\n      mstore\n      0x20\n      add\n      0x00\n      keccak256\n      sload\n        /* \"Bid.sol\":3862:3897  _bid.highestBid[_bid.bidCount] / 20 */\n      tag_78\n      swap2\n      swap1\n      tag_79\n      jump\t// in\n    tag_78:\n        /* \"Bid.sol\":3828:3832  _bid */\n      dup5\n        /* \"Bid.sol\":3828:3843  _bid.highestBid */\n      0x05\n      add\n        /* \"Bid.sol\":3828:3858  _bid.highestBid[_bid.bidCount] */\n      0x00\n        /* \"Bid.sol\":3844:3848  _bid */\n      dup7\n        /* \"Bid.sol\":3844:3857  _bid.bidCount */\n      0x04\n      add\n      sload\n        /* \"Bid.sol\":3828:3858  _bid.highestBid[_bid.bidCount] */\n      dup2\n      mstore\n      0x20\n      add\n      swap1\n      dup2\n      mstore\n      0x20\n      add\n      0x00\n      keccak256\n      sload\n        /* \"Bid.sol\":3828:3898  _bid.highestBid[_bid.bidCount] - (_bid.highestBid[_bid.bidCount] / 20) */\n      tag_80\n      swap2\n      swap1\n      tag_81\n      jump\t// in\n    tag_80:\n        /* \"Bid.sol\":3798:3899  payable(_bid.seller).transfer(_bid.highestBid[_bid.bidCount] - (_bid.highestBid[_bid.bidCount] / 20)) */\n      swap1\n      dup2\n      iszero\n      mul\n      swap1\n      mload(0x40)\n      0x00\n      mload(0x40)\n      dup1\n      dup4\n      sub\n      dup2\n      dup6\n      dup9\n      dup9\n      call\n      swap4\n      pop\n      pop\n      pop\n      pop\n      iszero\n      dup1\n      iszero\n      tag_83\n      jumpi\n      returndatasize\n      0x00\n      dup1\n      returndatacopy\n      revert(0x00, returndatasize)\n    tag_83:\n      pop\n        /* \"Bid.sol\":3922:3929  _market */\n      dup1\n        /* \"Bid.sol\":3922:3935  _market.owner */\n      0xffffffffffffffffffffffffffffffffffffffff\n      and\n      0x8da5cb5b\n        /* \"Bid.sol\":3922:3937  _market.owner() */\n      mload(0x40)\n      dup2\n      0xffffffff\n      and\n      0xe0\n      shl\n      dup2\n      mstore\n      0x04\n      add\n      0x20\n      mload(0x40)\n      dup1\n      dup4\n      sub\n      dup2\n      dup7\n      dup1\n      extcodesize\n      iszero\n      dup1\n      iszero\n      tag_84\n      jumpi\n      0x00\n      dup1\n      revert\n    tag_84:\n      pop\n      gas\n      staticcall\n      iszero\n      dup1\n      iszero\n      tag_86\n      jumpi\n      returndatasize\n      0x00\n      dup1\n      returndatacopy\n      revert(0x00, returndatasize)\n    tag_86:\n      pop\n      pop\n      pop\n      pop\n      mload(0x40)\n      returndatasize\n      not(0x1f)\n      0x1f\n      dup3\n      add\n      and\n      dup3\n      add\n      dup1\n      0x40\n      mstore\n      pop\n      dup2\n      add\n      swap1\n      tag_87\n      swap2\n      swap1\n      tag_88\n      jump\t// in\n    tag_87:\n        /* \"Bid.sol\":3914:3947  payable(_market.owner()).transfer */\n      0xffffffffffffffffffffffffffffffffffffffff\n      and\n        /* \"Bid.sol\":3914:3984  payable(_market.owner()).transfer(_bid.highestBid[_bid.bidCount] / 20) */\n      0x08fc\n        /* \"Bid.sol\":3981:3983  20 */\n      0x14\n        /* \"Bid.sol\":3948:3952  _bid */\n      dup5\n        /* \"Bid.sol\":3948:3963  _bid.highestBid */\n      0x05\n      add\n        /* \"Bid.sol\":3948:3978  _bid.highestBid[_bid.bidCount] */\n      0x00\n        /* \"Bid.sol\":3964:3968  _bid */\n      dup7\n        /* \"Bid.sol\":3964:3977  _bid.bidCount */\n      0x04\n      add\n      sload\n        /* \"Bid.sol\":3948:3978  _bid.highestBid[_bid.bidCount] */\n      dup2\n      mstore\n      0x20\n      add\n      swap1\n      dup2\n      mstore\n      0x20\n      add\n      0x00\n      keccak256\n      sload\n        /* \"Bid.sol\":3948:3983  _bid.highestBid[_bid.bidCount] / 20 */\n      tag_89\n      swap2\n      swap1\n      tag_79\n      jump\t// in\n    tag_89:\n        /* \"Bid.sol\":3914:3984  payable(_market.owner()).transfer(_bid.highestBid[_bid.bidCount] / 20) */\n      swap1\n      dup2\n      iszero\n      mul\n      swap1\n      mload(0x40)\n      0x00\n      mload(0x40)\n      dup1\n      dup4\n      sub\n      dup2\n      dup6\n      dup9\n      dup9\n      call\n      swap4\n      pop\n      pop\n      pop\n      pop\n      iszero\n      dup1\n      iszero\n      tag_91\n      jumpi\n      returndatasize\n      0x00\n      dup1\n      returndatacopy\n      revert(0x00, returndatasize)\n    tag_91:\n      pop\n        /* \"Bid.sol\":4004:4010  uint i */\n      0x00\n        /* \"Bid.sol\":3999:4422  for (uint i = 0; i < 5; i++) {\r... */\n    tag_92:\n        /* \"Bid.sol\":4020:4021  5 */\n      0x05\n        /* \"Bid.sol\":4016:4017  i */\n      dup2\n        /* \"Bid.sol\":4016:4021  i < 5 */\n      lt\n        /* \"Bid.sol\":3999:4422  for (uint i = 0; i < 5; i++) {\r... */\n      iszero\n      tag_93\n      jumpi\n        /* \"Bid.sol\":4112:4113  0 */\n      0x00\n        /* \"Bid.sol\":4055:4114  _market.getPrevOwner(_tokenAddr, _tokenId, i) != address(0) */\n      0xffffffffffffffffffffffffffffffffffffffff\n      and\n        /* \"Bid.sol\":4055:4062  _market */\n      dup3\n        /* \"Bid.sol\":4055:4075  _market.getPrevOwner */\n      0xffffffffffffffffffffffffffffffffffffffff\n      and\n      0x2973d6f8\n        /* \"Bid.sol\":4076:4086  _tokenAddr */\n      dup8\n        /* \"Bid.sol\":4088:4096  _tokenId */\n      dup8\n        /* \"Bid.sol\":4098:4099  i */\n      dup6\n        /* \"Bid.sol\":4055:4100  _market.getPrevOwner(_tokenAddr, _tokenId, i) */\n      mload(0x40)\n      dup5\n      0xffffffff\n      and\n      0xe0\n      shl\n      dup2\n      mstore\n      0x04\n      add\n      tag_95\n      swap4\n      swap3\n      swap2\n      swap1\n      tag_96\n      jump\t// in\n    tag_95:\n      0x20\n      mload(0x40)\n      dup1\n      dup4\n      sub\n      dup2\n      dup7\n      dup1\n      extcodesize\n      iszero\n      dup1\n      iszero\n      tag_97\n      jumpi\n      0x00\n      dup1\n      revert\n    tag_97:\n      pop\n      gas\n      staticcall\n      iszero\n      dup1\n      iszero\n      tag_99\n      jumpi\n      returndatasize\n      0x00\n      dup1\n      returndatacopy\n      revert(0x00, returndatasize)\n    tag_99:\n      pop\n      pop\n      pop\n      pop\n      mload(0x40)\n      returndatasize\n      not(0x1f)\n      0x1f\n      dup3\n      add\n      and\n      dup3\n      add\n      dup1\n      0x40\n      mstore\n      pop\n      dup2\n      add\n      swap1\n      tag_100\n      swap2\n      swap1\n      tag_88\n      jump\t// in\n    tag_100:\n        /* \"Bid.sol\":4055:4114  _market.getPrevOwner(_tokenAddr, _tokenId, i) != address(0) */\n      0xffffffffffffffffffffffffffffffffffffffff\n      and\n      eq\n        /* \"Bid.sol\":4051:4403  if (_market.getPrevOwner(_tokenAddr, _tokenId, i) != address(0)) {\r... */\n      tag_101\n      jumpi\n        /* \"Bid.sol\":4151:4158  _market */\n      dup2\n        /* \"Bid.sol\":4151:4171  _market.getPrevOwner */\n      0xffffffffffffffffffffffffffffffffffffffff\n      and\n      0x2973d6f8\n        /* \"Bid.sol\":4172:4182  _tokenAddr */\n      dup7\n        /* \"Bid.sol\":4184:4192  _tokenId */\n      dup7\n        /* \"Bid.sol\":4194:4195  i */\n      dup5\n        /* \"Bid.sol\":4151:4196  _market.getPrevOwner(_tokenAddr, _tokenId, i) */\n      mload(0x40)\n      dup5\n      0xffffffff\n      and\n      0xe0\n      shl\n      dup2\n      mstore\n      0x04\n      add\n      tag_102\n      swap4\n      swap3\n      swap2\n      swap1\n      tag_96\n      jump\t// in\n    tag_102:\n      0x20\n      mload(0x40)\n      dup1\n      dup4\n      sub\n      dup2\n      dup7\n      dup1\n      extcodesize\n      iszero\n      dup1\n      iszero\n      tag_103\n      jumpi\n      0x00\n      dup1\n      revert\n    tag_103:\n      pop\n      gas\n      staticcall\n      iszero\n      dup1\n      iszero\n      tag_105\n      jumpi\n      returndatasize\n      0x00\n      dup1\n      returndatacopy\n      revert(0x00, returndatasize)\n    tag_105:\n      pop\n      pop\n      pop\n      pop\n      mload(0x40)\n      returndatasize\n      not(0x1f)\n      0x1f\n      dup3\n      add\n      and\n      dup3\n      add\n      dup1\n      0x40\n      mstore\n      pop\n      dup2\n      add\n      swap1\n      tag_106\n      swap2\n      swap1\n      tag_88\n      jump\t// in\n    tag_106:\n        /* \"Bid.sol\":4143:4206  payable(_market.getPrevOwner(_tokenAddr, _tokenId, i)).transfer */\n      0xffffffffffffffffffffffffffffffffffffffff\n      and\n        /* \"Bid.sol\":4143:4296  payable(_market.getPrevOwner(_tokenAddr, _tokenId, i)).transfer((_bid.highestBid[_bid.bidCount] / 20) / _market.getPrevOwnerAmount(_tokenAddr, _tokenId)) */\n      0x08fc\n        /* \"Bid.sol\":4247:4254  _market */\n      dup4\n        /* \"Bid.sol\":4247:4273  _market.getPrevOwnerAmount */\n      0xffffffffffffffffffffffffffffffffffffffff\n      and\n      0xd178227a\n        /* \"Bid.sol\":4274:4284  _tokenAddr */\n      dup9\n        /* \"Bid.sol\":4286:4294  _tokenId */\n      dup9\n        /* \"Bid.sol\":4247:4295  _market.getPrevOwnerAmount(_tokenAddr, _tokenId) */\n      mload(0x40)\n      dup4\n      0xffffffff\n      and\n      0xe0\n      shl\n      dup2\n      mstore\n      0x04\n      add\n      tag_107\n      swap3\n      swap2\n      swap1\n      tag_108\n      jump\t// in\n    tag_107:\n      0x20\n      mload(0x40)\n      dup1\n      dup4\n      sub\n      dup2\n      dup7\n      dup1\n      extcodesize\n      iszero\n      dup1\n      iszero\n      tag_109\n      jumpi\n      0x00\n      dup1\n      revert\n    tag_109:\n      pop\n      gas\n      staticcall\n      iszero\n      dup1\n      iszero\n      tag_111\n      jumpi\n      returndatasize\n      0x00\n      dup1\n      returndatacopy\n      revert(0x00, returndatasize)\n    tag_111:\n      pop\n      pop\n      pop\n      pop\n      mload(0x40)\n      returndatasize\n      not(0x1f)\n      0x1f\n      dup3\n      add\n      and\n      dup3\n      add\n      dup1\n      0x40\n      mstore\n      pop\n      dup2\n      add\n      swap1\n      tag_112\n      swap2\n      swap1\n      tag_113\n      jump\t// in\n    tag_112:\n        /* \"Bid.sol\":4241:4243  20 */\n      0x14\n        /* \"Bid.sol\":4208:4212  _bid */\n      dup7\n        /* \"Bid.sol\":4208:4223  _bid.highestBid */\n      0x05\n      add\n        /* \"Bid.sol\":4208:4238  _bid.highestBid[_bid.bidCount] */\n      0x00\n        /* \"Bid.sol\":4224:4228  _bid */\n      dup9\n        /* \"Bid.sol\":4224:4237  _bid.bidCount */\n      0x04\n      add\n      sload\n        /* \"Bid.sol\":4208:4238  _bid.highestBid[_bid.bidCount] */\n      dup2\n      mstore\n      0x20\n      add\n      swap1\n      dup2\n      mstore\n      0x20\n      add\n      0x00\n      keccak256\n      sload\n        /* \"Bid.sol\":4208:4243  _bid.highestBid[_bid.bidCount] / 20 */\n      tag_114\n      swap2\n      swap1\n      tag_79\n      jump\t// in\n    tag_114:\n        /* \"Bid.sol\":4207:4295  (_bid.highestBid[_bid.bidCount] / 20) / _market.getPrevOwnerAmount(_tokenAddr, _tokenId) */\n      tag_115\n      swap2\n      swap1\n      tag_79\n      jump\t// in\n    tag_115:\n        /* \"Bid.sol\":4143:4296  payable(_market.getPrevOwner(_tokenAddr, _tokenId, i)).transfer((_bid.highestBid[_bid.bidCount] / 20) / _market.getPrevOwnerAmount(_tokenAddr, _tokenId)) */\n      swap1\n      dup2\n      iszero\n      mul\n      swap1\n      mload(0x40)\n      0x00\n      mload(0x40)\n      dup1\n      dup4\n      sub\n      dup2\n      dup6\n      dup9\n      dup9\n      call\n      swap4\n      pop\n      pop\n      pop\n      pop\n      iszero\n      dup1\n      iszero\n      tag_117\n      jumpi\n      returndatasize\n      0x00\n      dup1\n      returndatacopy\n      revert(0x00, returndatasize)\n    tag_117:\n      pop\n        /* \"Bid.sol\":4051:4403  if (_market.getPrevOwner(_tokenAddr, _tokenId, i) != address(0)) {\r... */\n      jump(tag_118)\n    tag_101:\n        /* \"Bid.sol\":4374:4379  break */\n      jump(tag_93)\n        /* \"Bid.sol\":4051:4403  if (_market.getPrevOwner(_tokenAddr, _tokenId, i) != address(0)) {\r... */\n    tag_118:\n        /* \"Bid.sol\":4023:4026  i++ */\n      dup1\n      dup1\n      tag_119\n      swap1\n      tag_120\n      jump\t// in\n    tag_119:\n      swap2\n      pop\n      pop\n        /* \"Bid.sol\":3999:4422  for (uint i = 0; i < 5; i++) {\r... */\n      jump(tag_92)\n    tag_93:\n      pop\n        /* \"Bid.sol\":4450:4454  _bid */\n      dup2\n        /* \"Bid.sol\":4450:4465  _bid.highestBid */\n      0x05\n      add\n        /* \"Bid.sol\":4450:4480  _bid.highestBid[_bid.bidCount] */\n      0x00\n        /* \"Bid.sol\":4466:4470  _bid */\n      dup4\n        /* \"Bid.sol\":4466:4479  _bid.bidCount */\n      0x04\n      add\n      sload\n        /* \"Bid.sol\":4450:4480  _bid.highestBid[_bid.bidCount] */\n      dup2\n      mstore\n      0x20\n      add\n      swap1\n      dup2\n      mstore\n      0x20\n      add\n      0x00\n      keccak256\n      sload\n        /* \"Bid.sol\":4438:4446  balances */\n      0x01\n      0x00\n        /* \"Bid.sol\":4438:4480  balances -= _bid.highestBid[_bid.bidCount] */\n      dup3\n      dup3\n      sload\n      tag_121\n      swap2\n      swap1\n      tag_81\n      jump\t// in\n    tag_121:\n      swap3\n      pop\n      pop\n      dup2\n      swap1\n      sstore\n      pop\n        /* \"Bid.sol\":4502:4508  uint i */\n      0x00\n        /* \"Bid.sol\":4497:4630  for (uint i = 0; i < _bid.bidCount; i++) {\r... */\n    tag_122:\n        /* \"Bid.sol\":4518:4522  _bid */\n      dup3\n        /* \"Bid.sol\":4518:4531  _bid.bidCount */\n      0x04\n      add\n      sload\n        /* \"Bid.sol\":4514:4515  i */\n      dup2\n        /* \"Bid.sol\":4514:4531  i < _bid.bidCount */\n      lt\n        /* \"Bid.sol\":4497:4630  for (uint i = 0; i < _bid.bidCount; i++) {\r... */\n      iszero\n      tag_123\n      jumpi\n        /* \"Bid.sol\":4557:4614  autoWithdraw(_tokenAddr, _tokenId, _bid.highestBidder[i]) */\n      tag_125\n        /* \"Bid.sol\":4570:4580  _tokenAddr */\n      dup6\n        /* \"Bid.sol\":4582:4590  _tokenId */\n      dup6\n        /* \"Bid.sol\":4592:4596  _bid */\n      dup6\n        /* \"Bid.sol\":4592:4610  _bid.highestBidder */\n      0x06\n      add\n        /* \"Bid.sol\":4592:4613  _bid.highestBidder[i] */\n      0x00\n        /* \"Bid.sol\":4611:4612  i */\n      dup6\n        /* \"Bid.sol\":4592:4613  _bid.highestBidder[i] */\n      dup2\n      mstore\n      0x20\n      add\n      swap1\n      dup2\n      mstore\n      0x20\n      add\n      0x00\n      keccak256\n      0x00\n      swap1\n      sload\n      swap1\n      0x0100\n      exp\n      swap1\n      div\n      0xffffffffffffffffffffffffffffffffffffffff\n      and\n        /* \"Bid.sol\":4557:4569  autoWithdraw */\n      tag_31\n        /* \"Bid.sol\":4557:4614  autoWithdraw(_tokenAddr, _tokenId, _bid.highestBidder[i]) */\n      jump\t// in\n    tag_125:\n        /* \"Bid.sol\":4533:4536  i++ */\n      dup1\n      dup1\n      tag_126\n      swap1\n      tag_120\n      jump\t// in\n    tag_126:\n      swap2\n      pop\n      pop\n        /* \"Bid.sol\":4497:4630  for (uint i = 0; i < _bid.bidCount; i++) {\r... */\n      jump(tag_122)\n    tag_123:\n      pop\n        /* \"Bid.sol\":3620:4743  if (_bid.highestBidder[_bid.bidCount] != address(0)) {\r... */\n      jump(tag_127)\n    tag_72:\n        /* \"Bid.sol\":4662:4666  _bid */\n      dup2\n        /* \"Bid.sol\":4662:4676  _bid.tokenAddr */\n      0x02\n      add\n      0x00\n      swap1\n      sload\n      swap1\n      0x0100\n      exp\n      swap1\n      div\n      0xffffffffffffffffffffffffffffffffffffffff\n      and\n        /* \"Bid.sol\":4662:4689  _bid.tokenAddr.transferFrom */\n      0xffffffffffffffffffffffffffffffffffffffff\n      and\n      0x23b872dd\n        /* \"Bid.sol\":4698:4702  this */\n      address\n        /* \"Bid.sol\":4705:4709  _bid */\n      dup5\n        /* \"Bid.sol\":4705:4716  _bid.seller */\n      0x00\n      add\n      0x00\n      swap1\n      sload\n      swap1\n      0x0100\n      exp\n      swap1\n      div\n      0xffffffffffffffffffffffffffffffffffffffff\n      and\n        /* \"Bid.sol\":4718:4722  _bid */\n      dup6\n        /* \"Bid.sol\":4718:4730  _bid.tokenId */\n      0x03\n      add\n      sload\n        /* \"Bid.sol\":4662:4731  _bid.tokenAddr.transferFrom(address(this), _bid.seller, _bid.tokenId) */\n      mload(0x40)\n      dup5\n      0xffffffff\n      and\n      0xe0\n      shl\n      dup2\n      mstore\n      0x04\n      add\n      tag_128\n      swap4\n      swap3\n      swap2\n      swap1\n      tag_74\n      jump\t// in\n    tag_128:\n      0x00\n      mload(0x40)\n      dup1\n      dup4\n      sub\n      dup2\n      0x00\n      dup8\n      dup1\n      extcodesize\n      iszero\n      dup1\n      iszero\n      tag_129\n      jumpi\n      0x00\n      dup1\n      revert\n    tag_129:\n      pop\n      gas\n      call\n      iszero\n      dup1\n      iszero\n      tag_131\n      jumpi\n      returndatasize\n      0x00\n      dup1\n      returndatacopy\n      revert(0x00, returndatasize)\n    tag_131:\n      pop\n      pop\n      pop\n      pop\n        /* \"Bid.sol\":3620:4743  if (_bid.highestBidder[_bid.bidCount] != address(0)) {\r... */\n    tag_127:\n        /* \"Bid.sol\":4768:4772  true */\n      0x01\n        /* \"Bid.sol\":4755:4759  _bid */\n      dup3\n        /* \"Bid.sol\":4755:4765  _bid.ended */\n      0x00\n      add\n      0x15\n        /* \"Bid.sol\":4755:4772  _bid.ended = true */\n      0x0100\n      exp\n      dup2\n      sload\n      dup2\n      0xff\n      mul\n      not\n      and\n      swap1\n      dup4\n      iszero\n      iszero\n      mul\n      or\n      swap1\n      sstore\n      pop\n        /* \"Bid.sol\":4798:4803  false */\n      0x00\n        /* \"Bid.sol\":4783:4787  _bid */\n      dup3\n        /* \"Bid.sol\":4783:4795  _bid.started */\n      0x00\n      add\n      0x14\n        /* \"Bid.sol\":4783:4803  _bid.started = false */\n      0x0100\n      exp\n      dup2\n      sload\n      dup2\n      0xff\n      mul\n      not\n      and\n      swap1\n      dup4\n      iszero\n      iszero\n      mul\n      or\n      swap1\n      sstore\n      pop\n        /* \"Bid.sol\":4819:4889  End(_bid.highestBidder[_bid.bidCount], _bid.highestBid[_bid.bidCount]) */\n      0x7d7570b046e5ead3a4f3fbc9fa2445113625a1e79823776146316bafed6b8cc5\n        /* \"Bid.sol\":4823:4827  _bid */\n      dup3\n        /* \"Bid.sol\":4823:4841  _bid.highestBidder */\n      0x06\n      add\n        /* \"Bid.sol\":4823:4856  _bid.highestBidder[_bid.bidCount] */\n      0x00\n        /* \"Bid.sol\":4842:4846  _bid */\n      dup5\n        /* \"Bid.sol\":4842:4855  _bid.bidCount */\n      0x04\n      add\n      sload\n        /* \"Bid.sol\":4823:4856  _bid.highestBidder[_bid.bidCount] */\n      dup2\n      mstore\n      0x20\n      add\n      swap1\n      dup2\n      mstore\n      0x20\n      add\n      0x00\n      keccak256\n      0x00\n      swap1\n      sload\n      swap1\n      0x0100\n      exp\n      swap1\n      div\n      0xffffffffffffffffffffffffffffffffffffffff\n      and\n        /* \"Bid.sol\":4858:4862  _bid */\n      dup4\n        /* \"Bid.sol\":4858:4873  _bid.highestBid */\n      0x05\n      add\n        /* \"Bid.sol\":4858:4888  _bid.highestBid[_bid.bidCount] */\n      0x00\n        /* \"Bid.sol\":4874:4878  _bid */\n      dup6\n        /* \"Bid.sol\":4874:4887  _bid.bidCount */\n      0x04\n      add\n      sload\n        /* \"Bid.sol\":4858:4888  _bid.highestBid[_bid.bidCount] */\n      dup2\n      mstore\n      0x20\n      add\n      swap1\n      dup2\n      mstore\n      0x20\n      add\n      0x00\n      keccak256\n      sload\n        /* \"Bid.sol\":4819:4889  End(_bid.highestBidder[_bid.bidCount], _bid.highestBid[_bid.bidCount]) */\n      mload(0x40)\n      tag_132\n      swap3\n      swap2\n      swap1\n      tag_108\n      jump\t// in\n    tag_132:\n      mload(0x40)\n      dup1\n      swap2\n      sub\n      swap1\n      log1\n        /* \"Bid.sol\":3297:4897  {\r... */\n      pop\n      pop\n        /* \"Bid.sol\":3217:4897  function end(address _contractAddr, address _tokenAddr, uint _tokenId) external {\r... */\n      pop\n      pop\n      pop\n      jump\t// out\n        /* \"Bid.sol\":5697:5861  function getBids(address tokenAddr, uint tokenId, address bidder) public view returns(uint bids) {\r... */\n    tag_22:\n        /* \"Bid.sol\":5783:5792  uint bids */\n      0x00\n        /* \"Bid.sol\":5812:5820  biddings */\n      dup1\n        /* \"Bid.sol\":5812:5831  biddings[tokenAddr] */\n      0x00\n        /* \"Bid.sol\":5821:5830  tokenAddr */\n      dup6\n        /* \"Bid.sol\":5812:5831  biddings[tokenAddr] */\n      0xffffffffffffffffffffffffffffffffffffffff\n      and\n      0xffffffffffffffffffffffffffffffffffffffff\n      and\n      dup2\n      mstore\n      0x20\n      add\n      swap1\n      dup2\n      mstore\n      0x20\n      add\n      0x00\n      keccak256\n        /* \"Bid.sol\":5812:5840  biddings[tokenAddr][tokenId] */\n      0x00\n        /* \"Bid.sol\":5832:5839  tokenId */\n      dup5\n        /* \"Bid.sol\":5812:5840  biddings[tokenAddr][tokenId] */\n      dup2\n      mstore\n      0x20\n      add\n      swap1\n      dup2\n      mstore\n      0x20\n      add\n      0x00\n      keccak256\n        /* \"Bid.sol\":5812:5845  biddings[tokenAddr][tokenId].bids */\n      0x07\n      add\n        /* \"Bid.sol\":5812:5853  biddings[tokenAddr][tokenId].bids[bidder] */\n      0x00\n        /* \"Bid.sol\":5846:5852  bidder */\n      dup4\n        /* \"Bid.sol\":5812:5853  biddings[tokenAddr][tokenId].bids[bidder] */\n      0xffffffffffffffffffffffffffffffffffffffff\n      and\n      0xffffffffffffffffffffffffffffffffffffffff\n      and\n      dup2\n      mstore\n      0x20\n      add\n      swap1\n      dup2\n      mstore\n      0x20\n      add\n      0x00\n      keccak256\n      sload\n        /* \"Bid.sol\":5805:5853  return biddings[tokenAddr][tokenId].bids[bidder] */\n      swap1\n      pop\n        /* \"Bid.sol\":5697:5861  function getBids(address tokenAddr, uint tokenId, address bidder) public view returns(uint bids) {\r... */\n      swap4\n      swap3\n      pop\n      pop\n      pop\n      jump\t// out\n        /* \"Bid.sol\":2004:2675  function bid(address _tokenAddr, uint _tokenId) external payable {\r... */\n    tag_28:\n        /* \"Bid.sol\":2080:2100  Bidding storage _bid */\n      0x00\n        /* \"Bid.sol\":2103:2111  biddings */\n      dup1\n        /* \"Bid.sol\":2103:2123  biddings[_tokenAddr] */\n      0x00\n        /* \"Bid.sol\":2112:2122  _tokenAddr */\n      dup5\n        /* \"Bid.sol\":2103:2123  biddings[_tokenAddr] */\n      0xffffffffffffffffffffffffffffffffffffffff\n      and\n      0xffffffffffffffffffffffffffffffffffffffff\n      and\n      dup2\n      mstore\n      0x20\n      add\n      swap1\n      dup2\n      mstore\n      0x20\n      add\n      0x00\n      keccak256\n        /* \"Bid.sol\":2103:2133  biddings[_tokenAddr][_tokenId] */\n      0x00\n        /* \"Bid.sol\":2124:2132  _tokenId */\n      dup4\n        /* \"Bid.sol\":2103:2133  biddings[_tokenAddr][_tokenId] */\n      dup2\n      mstore\n      0x20\n      add\n      swap1\n      dup2\n      mstore\n      0x20\n      add\n      0x00\n      keccak256\n        /* \"Bid.sol\":2080:2133  Bidding storage _bid = biddings[_tokenAddr][_tokenId] */\n      swap1\n      pop\n        /* \"Bid.sol\":2154:2158  _bid */\n      dup1\n        /* \"Bid.sol\":2154:2166  _bid.started */\n      0x00\n      add\n      0x14\n      swap1\n      sload\n      swap1\n      0x0100\n      exp\n      swap1\n      div\n      0xff\n      and\n        /* \"Bid.sol\":2146:2183  require(_bid.started, \"Not started.\") */\n      tag_135\n      jumpi\n      mload(0x40)\n      0x08c379a000000000000000000000000000000000000000000000000000000000\n      dup2\n      mstore\n      0x04\n      add\n      tag_136\n      swap1\n      tag_137\n      jump\t// in\n    tag_136:\n      mload(0x40)\n      dup1\n      swap2\n      sub\n      swap1\n      revert\n    tag_135:\n        /* \"Bid.sol\":2220:2224  _bid */\n      dup1\n        /* \"Bid.sol\":2220:2230  _bid.endAt */\n      0x01\n      add\n      sload\n        /* \"Bid.sol\":2202:2217  block.timestamp */\n      timestamp\n        /* \"Bid.sol\":2202:2230  block.timestamp < _bid.endAt */\n      lt\n        /* \"Bid.sol\":2194:2241  require(block.timestamp < _bid.endAt, \"Ended!\") */\n      tag_138\n      jumpi\n      mload(0x40)\n      0x08c379a000000000000000000000000000000000000000000000000000000000\n      dup2\n      mstore\n      0x04\n      add\n      tag_139\n      swap1\n      tag_140\n      jump\t// in\n    tag_139:\n      mload(0x40)\n      dup1\n      swap2\n      sub\n      swap1\n      revert\n    tag_138:\n        /* \"Bid.sol\":2272:2276  _bid */\n      dup1\n        /* \"Bid.sol\":2272:2287  _bid.highestBid */\n      0x05\n      add\n        /* \"Bid.sol\":2272:2302  _bid.highestBid[_bid.bidCount] */\n      0x00\n        /* \"Bid.sol\":2288:2292  _bid */\n      dup3\n        /* \"Bid.sol\":2288:2301  _bid.bidCount */\n      0x04\n      add\n      sload\n        /* \"Bid.sol\":2272:2302  _bid.highestBid[_bid.bidCount] */\n      dup2\n      mstore\n      0x20\n      add\n      swap1\n      dup2\n      mstore\n      0x20\n      add\n      0x00\n      keccak256\n      sload\n        /* \"Bid.sol\":2260:2269  msg.value */\n      callvalue\n        /* \"Bid.sol\":2260:2302  msg.value > _bid.highestBid[_bid.bidCount] */\n      gt\n        /* \"Bid.sol\":2252:2317  require(msg.value > _bid.highestBid[_bid.bidCount], \"Lower bid!\") */\n      tag_141\n      jumpi\n      mload(0x40)\n      0x08c379a000000000000000000000000000000000000000000000000000000000\n      dup2\n      mstore\n      0x04\n      add\n      tag_142\n      swap1\n      tag_143\n      jump\t// in\n    tag_142:\n      mload(0x40)\n      dup1\n      swap2\n      sub\n      swap1\n      revert\n    tag_141:\n        /* \"Bid.sol\":2363:2372  msg.value */\n      callvalue\n        /* \"Bid.sol\":2330:2334  _bid */\n      dup2\n        /* \"Bid.sol\":2330:2345  _bid.highestBid */\n      0x05\n      add\n        /* \"Bid.sol\":2330:2360  _bid.highestBid[_bid.bidCount] */\n      0x00\n        /* \"Bid.sol\":2346:2350  _bid */\n      dup4\n        /* \"Bid.sol\":2346:2359  _bid.bidCount */\n      0x04\n      add\n      sload\n        /* \"Bid.sol\":2330:2360  _bid.highestBid[_bid.bidCount] */\n      dup2\n      mstore\n      0x20\n      add\n      swap1\n      dup2\n      mstore\n      0x20\n      add\n      0x00\n      keccak256\n        /* \"Bid.sol\":2330:2372  _bid.highestBid[_bid.bidCount] = msg.value */\n      dup2\n      swap1\n      sstore\n      pop\n        /* \"Bid.sol\":2419:2429  msg.sender */\n      caller\n        /* \"Bid.sol\":2383:2387  _bid */\n      dup2\n        /* \"Bid.sol\":2383:2401  _bid.highestBidder */\n      0x06\n      add\n        /* \"Bid.sol\":2383:2416  _bid.highestBidder[_bid.bidCount] */\n      0x00\n        /* \"Bid.sol\":2402:2406  _bid */\n      dup4\n        /* \"Bid.sol\":2402:2415  _bid.bidCount */\n      0x04\n      add\n      sload\n        /* \"Bid.sol\":2383:2416  _bid.highestBidder[_bid.bidCount] */\n      dup2\n      mstore\n      0x20\n      add\n      swap1\n      dup2\n      mstore\n      0x20\n      add\n      0x00\n      keccak256\n      0x00\n        /* \"Bid.sol\":2383:2429  _bid.highestBidder[_bid.bidCount] = msg.sender */\n      0x0100\n      exp\n      dup2\n      sload\n      dup2\n      0xffffffffffffffffffffffffffffffffffffffff\n      mul\n      not\n      and\n      swap1\n      dup4\n      0xffffffffffffffffffffffffffffffffffffffff\n      and\n      mul\n      or\n      swap1\n      sstore\n      pop\n        /* \"Bid.sol\":2487:2491  _bid */\n      dup1\n        /* \"Bid.sol\":2487:2502  _bid.highestBid */\n      0x05\n      add\n        /* \"Bid.sol\":2487:2517  _bid.highestBid[_bid.bidCount] */\n      0x00\n        /* \"Bid.sol\":2503:2507  _bid */\n      dup3\n        /* \"Bid.sol\":2503:2516  _bid.bidCount */\n      0x04\n      add\n      sload\n        /* \"Bid.sol\":2487:2517  _bid.highestBid[_bid.bidCount] */\n      dup2\n      mstore\n      0x20\n      add\n      swap1\n      dup2\n      mstore\n      0x20\n      add\n      0x00\n      keccak256\n      sload\n        /* \"Bid.sol\":2440:2444  _bid */\n      dup2\n        /* \"Bid.sol\":2440:2449  _bid.bids */\n      0x07\n      add\n        /* \"Bid.sol\":2440:2484  _bid.bids[_bid.highestBidder[_bid.bidCount]] */\n      0x00\n        /* \"Bid.sol\":2450:2454  _bid */\n      dup4\n        /* \"Bid.sol\":2450:2468  _bid.highestBidder */\n      0x06\n      add\n        /* \"Bid.sol\":2450:2483  _bid.highestBidder[_bid.bidCount] */\n      0x00\n        /* \"Bid.sol\":2469:2473  _bid */\n      dup6\n        /* \"Bid.sol\":2469:2482  _bid.bidCount */\n      0x04\n      add\n      sload\n        /* \"Bid.sol\":2450:2483  _bid.highestBidder[_bid.bidCount] */\n      dup2\n      mstore\n      0x20\n      add\n      swap1\n      dup2\n      mstore\n      0x20\n      add\n      0x00\n      keccak256\n      0x00\n      swap1\n      sload\n      swap1\n      0x0100\n      exp\n      swap1\n      div\n      0xffffffffffffffffffffffffffffffffffffffff\n      and\n        /* \"Bid.sol\":2440:2484  _bid.bids[_bid.highestBidder[_bid.bidCount]] */\n      0xffffffffffffffffffffffffffffffffffffffff\n      and\n      0xffffffffffffffffffffffffffffffffffffffff\n      and\n      dup2\n      mstore\n      0x20\n      add\n      swap1\n      dup2\n      mstore\n      0x20\n      add\n      0x00\n      keccak256\n        /* \"Bid.sol\":2440:2517  _bid.bids[_bid.highestBidder[_bid.bidCount]] = _bid.highestBid[_bid.bidCount] */\n      dup2\n      swap1\n      sstore\n      pop\n        /* \"Bid.sol\":2530:2534  _bid */\n      dup1\n        /* \"Bid.sol\":2530:2543  _bid.bidCount */\n      0x04\n      add\n      0x00\n        /* \"Bid.sol\":2530:2545  _bid.bidCount++ */\n      dup2\n      sload\n      dup1\n      swap3\n      swap2\n      swap1\n      tag_144\n      swap1\n      tag_120\n      jump\t// in\n    tag_144:\n      swap2\n      swap1\n      pop\n      sstore\n      pop\n        /* \"Bid.sol\":2570:2579  msg.value */\n      callvalue\n        /* \"Bid.sol\":2558:2566  balances */\n      0x01\n      0x00\n        /* \"Bid.sol\":2558:2579  balances += msg.value */\n      dup3\n      dup3\n      sload\n      tag_145\n      swap2\n      swap1\n      tag_146\n      jump\t// in\n    tag_145:\n      swap3\n      pop\n      pop\n      dup2\n      swap1\n      sstore\n      pop\n        /* \"Bid.sol\":2601:2605  _bid */\n      dup1\n        /* \"Bid.sol\":2601:2619  _bid.highestBidder */\n      0x06\n      add\n        /* \"Bid.sol\":2601:2634  _bid.highestBidder[_bid.bidCount] */\n      0x00\n        /* \"Bid.sol\":2620:2624  _bid */\n      dup3\n        /* \"Bid.sol\":2620:2633  _bid.bidCount */\n      0x04\n      add\n      sload\n        /* \"Bid.sol\":2601:2634  _bid.highestBidder[_bid.bidCount] */\n      dup2\n      mstore\n      0x20\n      add\n      swap1\n      dup2\n      mstore\n      0x20\n      add\n      0x00\n      keccak256\n      0x00\n      swap1\n      sload\n      swap1\n      0x0100\n      exp\n      swap1\n      div\n      0xffffffffffffffffffffffffffffffffffffffff\n      and\n        /* \"Bid.sol\":2597:2667  Bid(_bid.highestBidder[_bid.bidCount], _bid.highestBid[_bid.bidCount]) */\n      0xffffffffffffffffffffffffffffffffffffffff\n      and\n      0xe684a55f31b79eca403df938249029212a5925ec6be8012e099b45bc1019e5d2\n        /* \"Bid.sol\":2636:2640  _bid */\n      dup3\n        /* \"Bid.sol\":2636:2651  _bid.highestBid */\n      0x05\n      add\n        /* \"Bid.sol\":2636:2666  _bid.highestBid[_bid.bidCount] */\n      0x00\n        /* \"Bid.sol\":2652:2656  _bid */\n      dup5\n        /* \"Bid.sol\":2652:2665  _bid.bidCount */\n      0x04\n      add\n      sload\n        /* \"Bid.sol\":2636:2666  _bid.highestBid[_bid.bidCount] */\n      dup2\n      mstore\n      0x20\n      add\n      swap1\n      dup2\n      mstore\n      0x20\n      add\n      0x00\n      keccak256\n      sload\n        /* \"Bid.sol\":2597:2667  Bid(_bid.highestBidder[_bid.bidCount], _bid.highestBid[_bid.bidCount]) */\n      mload(0x40)\n      tag_147\n      swap2\n      swap1\n      tag_24\n      jump\t// in\n    tag_147:\n      mload(0x40)\n      dup1\n      swap2\n      sub\n      swap1\n      log2\n        /* \"Bid.sol\":2069:2675  {\r... */\n      pop\n        /* \"Bid.sol\":2004:2675  function bid(address _tokenAddr, uint _tokenId) external payable {\r... */\n      pop\n      pop\n      jump\t// out\n        /* \"Bid.sol\":4905:5295  function autoWithdraw(address tokenAddr_, uint tokenId_, address to) public payable {\r... */\n    tag_31:\n        /* \"Bid.sol\":5000:5020  Bidding storage _bid */\n      0x00\n        /* \"Bid.sol\":5023:5031  biddings */\n      dup1\n        /* \"Bid.sol\":5023:5043  biddings[tokenAddr_] */\n      0x00\n        /* \"Bid.sol\":5032:5042  tokenAddr_ */\n      dup6\n        /* \"Bid.sol\":5023:5043  biddings[tokenAddr_] */\n      0xffffffffffffffffffffffffffffffffffffffff\n      and\n      0xffffffffffffffffffffffffffffffffffffffff\n      and\n      dup2\n      mstore\n      0x20\n      add\n      swap1\n      dup2\n      mstore\n      0x20\n      add\n      0x00\n      keccak256\n        /* \"Bid.sol\":5023:5053  biddings[tokenAddr_][tokenId_] */\n      0x00\n        /* \"Bid.sol\":5044:5052  tokenId_ */\n      dup5\n        /* \"Bid.sol\":5023:5053  biddings[tokenAddr_][tokenId_] */\n      dup2\n      mstore\n      0x20\n      add\n      swap1\n      dup2\n      mstore\n      0x20\n      add\n      0x00\n      keccak256\n        /* \"Bid.sol\":5000:5053  Bidding storage _bid = biddings[tokenAddr_][tokenId_] */\n      swap1\n      pop\n        /* \"Bid.sol\":5064:5072  uint bal */\n      0x00\n        /* \"Bid.sol\":5075:5079  _bid */\n      dup2\n        /* \"Bid.sol\":5075:5084  _bid.bids */\n      0x07\n      add\n        /* \"Bid.sol\":5075:5088  _bid.bids[to] */\n      0x00\n        /* \"Bid.sol\":5085:5087  to */\n      dup5\n        /* \"Bid.sol\":5075:5088  _bid.bids[to] */\n      0xffffffffffffffffffffffffffffffffffffffff\n      and\n      0xffffffffffffffffffffffffffffffffffffffff\n      and\n      dup2\n      mstore\n      0x20\n      add\n      swap1\n      dup2\n      mstore\n      0x20\n      add\n      0x00\n      keccak256\n      sload\n        /* \"Bid.sol\":5064:5088  uint bal = _bid.bids[to] */\n      swap1\n      pop\n        /* \"Bid.sol\":5115:5116  0 */\n      0x00\n        /* \"Bid.sol\":5109:5112  bal */\n      dup2\n        /* \"Bid.sol\":5109:5116  bal > 0 */\n      gt\n        /* \"Bid.sol\":5109:5135  bal > 0 && bal <= balances */\n      dup1\n      iszero\n      tag_149\n      jumpi\n      pop\n        /* \"Bid.sol\":5127:5135  balances */\n      sload(0x01)\n        /* \"Bid.sol\":5120:5123  bal */\n      dup2\n        /* \"Bid.sol\":5120:5135  bal <= balances */\n      gt\n      iszero\n        /* \"Bid.sol\":5109:5135  bal > 0 && bal <= balances */\n    tag_149:\n        /* \"Bid.sol\":5101:5158  require(bal > 0 && bal <= balances, \"Could not withdraw\") */\n      tag_150\n      jumpi\n      mload(0x40)\n      0x08c379a000000000000000000000000000000000000000000000000000000000\n      dup2\n      mstore\n      0x04\n      add\n      tag_151\n      swap1\n      tag_152\n      jump\t// in\n    tag_151:\n      mload(0x40)\n      dup1\n      swap2\n      sub\n      swap1\n      revert\n    tag_150:\n        /* \"Bid.sol\":5187:5188  0 */\n      0x00\n        /* \"Bid.sol\":5171:5175  _bid */\n      dup3\n        /* \"Bid.sol\":5171:5180  _bid.bids */\n      0x07\n      add\n        /* \"Bid.sol\":5171:5184  _bid.bids[to] */\n      0x00\n        /* \"Bid.sol\":5181:5183  to */\n      dup6\n        /* \"Bid.sol\":5171:5184  _bid.bids[to] */\n      0xffffffffffffffffffffffffffffffffffffffff\n      and\n      0xffffffffffffffffffffffffffffffffffffffff\n      and\n      dup2\n      mstore\n      0x20\n      add\n      swap1\n      dup2\n      mstore\n      0x20\n      add\n      0x00\n      keccak256\n        /* \"Bid.sol\":5171:5188  _bid.bids[to] = 0 */\n      dup2\n      swap1\n      sstore\n      pop\n        /* \"Bid.sol\":5209:5211  to */\n      dup3\n        /* \"Bid.sol\":5201:5221  payable(to).transfer */\n      0xffffffffffffffffffffffffffffffffffffffff\n      and\n        /* \"Bid.sol\":5201:5226  payable(to).transfer(bal) */\n      0x08fc\n        /* \"Bid.sol\":5222:5225  bal */\n      dup3\n        /* \"Bid.sol\":5201:5226  payable(to).transfer(bal) */\n      swap1\n      dup2\n      iszero\n      mul\n      swap1\n      mload(0x40)\n      0x00\n      mload(0x40)\n      dup1\n      dup4\n      sub\n      dup2\n      dup6\n      dup9\n      dup9\n      call\n      swap4\n      pop\n      pop\n      pop\n      pop\n      iszero\n      dup1\n      iszero\n      tag_154\n      jumpi\n      returndatasize\n      0x00\n      dup1\n      returndatacopy\n      revert(0x00, returndatasize)\n    tag_154:\n      pop\n        /* \"Bid.sol\":5249:5252  bal */\n      dup1\n        /* \"Bid.sol\":5237:5245  balances */\n      0x01\n      0x00\n        /* \"Bid.sol\":5237:5252  balances -= bal */\n      dup3\n      dup3\n      sload\n      tag_155\n      swap2\n      swap1\n      tag_81\n      jump\t// in\n    tag_155:\n      swap3\n      pop\n      pop\n      dup2\n      swap1\n      sstore\n      pop\n        /* \"Bid.sol\":5279:5281  to */\n      dup3\n        /* \"Bid.sol\":5270:5287  Withdraw(to, bal) */\n      0xffffffffffffffffffffffffffffffffffffffff\n      and\n      0x884edad9ce6fa2440d8a54cc123490eb96d2768479d49ff9c7366125a9424364\n        /* \"Bid.sol\":5283:5286  bal */\n      dup3\n        /* \"Bid.sol\":5270:5287  Withdraw(to, bal) */\n      mload(0x40)\n      tag_156\n      swap2\n      swap1\n      tag_24\n      jump\t// in\n    tag_156:\n      mload(0x40)\n      dup1\n      swap2\n      sub\n      swap1\n      log2\n        /* \"Bid.sol\":4989:5295  {\r... */\n      pop\n      pop\n        /* \"Bid.sol\":4905:5295  function autoWithdraw(address tokenAddr_, uint tokenId_, address to) public payable {\r... */\n      pop\n      pop\n      pop\n      jump\t// out\n        /* \"Bid.sol\":803:823  uint public balances */\n    tag_34:\n      sload(0x01)\n      dup2\n      jump\t// out\n        /* \"Bid.sol\":5506:5689  function getHighestBid(address tokenAddr, uint tokenId, uint bidCount) public view returns(uint highestBid) {\r... */\n    tag_40:\n        /* \"Bid.sol\":5597:5612  uint highestBid */\n      0x00\n        /* \"Bid.sol\":5632:5640  biddings */\n      dup1\n        /* \"Bid.sol\":5632:5651  biddings[tokenAddr] */\n      0x00\n        /* \"Bid.sol\":5641:5650  tokenAddr */\n      dup6\n        /* \"Bid.sol\":5632:5651  biddings[tokenAddr] */\n      0xffffffffffffffffffffffffffffffffffffffff\n      and\n      0xffffffffffffffffffffffffffffffffffffffff\n      and\n      dup2\n      mstore\n      0x20\n      add\n      swap1\n      dup2\n      mstore\n      0x20\n      add\n      0x00\n      keccak256\n        /* \"Bid.sol\":5632:5660  biddings[tokenAddr][tokenId] */\n      0x00\n        /* \"Bid.sol\":5652:5659  tokenId */\n      dup5\n        /* \"Bid.sol\":5632:5660  biddings[tokenAddr][tokenId] */\n      dup2\n      mstore\n      0x20\n      add\n      swap1\n      dup2\n      mstore\n      0x20\n      add\n      0x00\n      keccak256\n        /* \"Bid.sol\":5632:5671  biddings[tokenAddr][tokenId].highestBid */\n      0x05\n      add\n        /* \"Bid.sol\":5632:5681  biddings[tokenAddr][tokenId].highestBid[bidCount] */\n      0x00\n        /* \"Bid.sol\":5672:5680  bidCount */\n      dup4\n        /* \"Bid.sol\":5632:5681  biddings[tokenAddr][tokenId].highestBid[bidCount] */\n      dup2\n      mstore\n      0x20\n      add\n      swap1\n      dup2\n      mstore\n      0x20\n      add\n      0x00\n      keccak256\n      sload\n        /* \"Bid.sol\":5625:5681  return biddings[tokenAddr][tokenId].highestBid[bidCount] */\n      swap1\n      pop\n        /* \"Bid.sol\":5506:5689  function getHighestBid(address tokenAddr, uint tokenId, uint bidCount) public view returns(uint highestBid) {\r... */\n      swap4\n      swap3\n      pop\n      pop\n      pop\n      jump\t// out\n        /* \"Bid.sol\":1159:1996  function start(address _tokenAddr, uint _tokenId, uint startingBid, uint dayAmount) external {\r... */\n    tag_46:\n        /* \"Bid.sol\":1263:1283  Bidding storage _bid */\n      0x00\n        /* \"Bid.sol\":1286:1294  biddings */\n      dup1\n        /* \"Bid.sol\":1286:1306  biddings[_tokenAddr] */\n      0x00\n        /* \"Bid.sol\":1295:1305  _tokenAddr */\n      dup7\n        /* \"Bid.sol\":1286:1306  biddings[_tokenAddr] */\n      0xffffffffffffffffffffffffffffffffffffffff\n      and\n      0xffffffffffffffffffffffffffffffffffffffff\n      and\n      dup2\n      mstore\n      0x20\n      add\n      swap1\n      dup2\n      mstore\n      0x20\n      add\n      0x00\n      keccak256\n        /* \"Bid.sol\":1286:1316  biddings[_tokenAddr][_tokenId] */\n      0x00\n        /* \"Bid.sol\":1307:1315  _tokenId */\n      dup6\n        /* \"Bid.sol\":1286:1316  biddings[_tokenAddr][_tokenId] */\n      dup2\n      mstore\n      0x20\n      add\n      swap1\n      dup2\n      mstore\n      0x20\n      add\n      0x00\n      keccak256\n        /* \"Bid.sol\":1263:1316  Bidding storage _bid = biddings[_tokenAddr][_tokenId] */\n      swap1\n      pop\n        /* \"Bid.sol\":1351:1361  _tokenAddr */\n      dup5\n        /* \"Bid.sol\":1327:1331  _bid */\n      dup2\n        /* \"Bid.sol\":1327:1341  _bid.tokenAddr */\n      0x02\n      add\n      0x00\n        /* \"Bid.sol\":1327:1362  _bid.tokenAddr = ERC721(_tokenAddr) */\n      0x0100\n      exp\n      dup2\n      sload\n      dup2\n      0xffffffffffffffffffffffffffffffffffffffff\n      mul\n      not\n      and\n      swap1\n      dup4\n      0xffffffffffffffffffffffffffffffffffffffff\n      and\n      mul\n      or\n      swap1\n      sstore\n      pop\n        /* \"Bid.sol\":1387:1391  _bid */\n      dup1\n        /* \"Bid.sol\":1387:1401  _bid.tokenAddr */\n      0x02\n      add\n      0x00\n      swap1\n      sload\n      swap1\n      0x0100\n      exp\n      swap1\n      div\n      0xffffffffffffffffffffffffffffffffffffffff\n      and\n        /* \"Bid.sol\":1387:1409  _bid.tokenAddr.ownerOf */\n      0xffffffffffffffffffffffffffffffffffffffff\n      and\n      0x6352211e\n        /* \"Bid.sol\":1410:1418  _tokenId */\n      dup6\n        /* \"Bid.sol\":1387:1419  _bid.tokenAddr.ownerOf(_tokenId) */\n      mload(0x40)\n      dup3\n      0xffffffff\n      and\n      0xe0\n      shl\n      dup2\n      mstore\n      0x04\n      add\n      tag_159\n      swap2\n      swap1\n      tag_24\n      jump\t// in\n    tag_159:\n      0x20\n      mload(0x40)\n      dup1\n      dup4\n      sub\n      dup2\n      dup7\n      dup1\n      extcodesize\n      iszero\n      dup1\n      iszero\n      tag_160\n      jumpi\n      0x00\n      dup1\n      revert\n    tag_160:\n      pop\n      gas\n      staticcall\n      iszero\n      dup1\n      iszero\n      tag_162\n      jumpi\n      returndatasize\n      0x00\n      dup1\n      returndatacopy\n      revert(0x00, returndatasize)\n    tag_162:\n      pop\n      pop\n      pop\n      pop\n      mload(0x40)\n      returndatasize\n      not(0x1f)\n      0x1f\n      dup3\n      add\n      and\n      dup3\n      add\n      dup1\n      0x40\n      mstore\n      pop\n      dup2\n      add\n      swap1\n      tag_163\n      swap2\n      swap1\n      tag_88\n      jump\t// in\n    tag_163:\n        /* \"Bid.sol\":1373:1377  _bid */\n      dup2\n        /* \"Bid.sol\":1373:1384  _bid.seller */\n      0x00\n      add\n      0x00\n        /* \"Bid.sol\":1373:1419  _bid.seller = _bid.tokenAddr.ownerOf(_tokenId) */\n      0x0100\n      exp\n      dup2\n      sload\n      dup2\n      0xffffffffffffffffffffffffffffffffffffffff\n      mul\n      not\n      and\n      swap1\n      dup4\n      0xffffffffffffffffffffffffffffffffffffffff\n      and\n      mul\n      or\n      swap1\n      sstore\n      pop\n        /* \"Bid.sol\":1443:1448  false */\n      0x00\n        /* \"Bid.sol\":1430:1434  _bid */\n      dup2\n        /* \"Bid.sol\":1430:1440  _bid.ended */\n      0x00\n      add\n      0x15\n        /* \"Bid.sol\":1430:1448  _bid.ended = false */\n      0x0100\n      exp\n      dup2\n      sload\n      dup2\n      0xff\n      mul\n      not\n      and\n      swap1\n      dup4\n      iszero\n      iszero\n      mul\n      or\n      swap1\n      sstore\n      pop\n        /* \"Bid.sol\":1470:1474  _bid */\n      dup1\n        /* \"Bid.sol\":1470:1482  _bid.started */\n      0x00\n      add\n      0x14\n      swap1\n      sload\n      swap1\n      0x0100\n      exp\n      swap1\n      div\n      0xff\n      and\n        /* \"Bid.sol\":1469:1482  !_bid.started */\n      iszero\n        /* \"Bid.sol\":1461:1503  require(!_bid.started, \"Already started!\") */\n      tag_164\n      jumpi\n      mload(0x40)\n      0x08c379a000000000000000000000000000000000000000000000000000000000\n      dup2\n      mstore\n      0x04\n      add\n      tag_165\n      swap1\n      tag_166\n      jump\t// in\n    tag_165:\n      mload(0x40)\n      dup1\n      swap2\n      sub\n      swap1\n      revert\n    tag_164:\n        /* \"Bid.sol\":1536:1540  _bid */\n      dup1\n        /* \"Bid.sol\":1536:1547  _bid.seller */\n      0x00\n      add\n      0x00\n      swap1\n      sload\n      swap1\n      0x0100\n      exp\n      swap1\n      div\n      0xffffffffffffffffffffffffffffffffffffffff\n      and\n        /* \"Bid.sol\":1522:1547  msg.sender == _bid.seller */\n      0xffffffffffffffffffffffffffffffffffffffff\n      and\n        /* \"Bid.sol\":1522:1532  msg.sender */\n      caller\n        /* \"Bid.sol\":1522:1547  msg.sender == _bid.seller */\n      0xffffffffffffffffffffffffffffffffffffffff\n      and\n      eq\n        /* \"Bid.sol\":1514:1582  require(msg.sender == _bid.seller, \"You can not start the auction!\") */\n      tag_167\n      jumpi\n      mload(0x40)\n      0x08c379a000000000000000000000000000000000000000000000000000000000\n      dup2\n      mstore\n      0x04\n      add\n      tag_168\n      swap1\n      tag_169\n      jump\t// in\n    tag_168:\n      mload(0x40)\n      dup1\n      swap2\n      sub\n      swap1\n      revert\n    tag_167:\n        /* \"Bid.sol\":1619:1620  0 */\n      0x00\n        /* \"Bid.sol\":1603:1607  _bid */\n      dup2\n        /* \"Bid.sol\":1603:1616  _bid.bidCount */\n      0x04\n      add\n        /* \"Bid.sol\":1603:1620  _bid.bidCount = 0 */\n      dup2\n      swap1\n      sstore\n      pop\n        /* \"Bid.sol\":1664:1675  startingBid */\n      dup3\n        /* \"Bid.sol\":1631:1635  _bid */\n      dup2\n        /* \"Bid.sol\":1631:1646  _bid.highestBid */\n      0x05\n      add\n        /* \"Bid.sol\":1631:1661  _bid.highestBid[_bid.bidCount] */\n      0x00\n        /* \"Bid.sol\":1647:1651  _bid */\n      dup4\n        /* \"Bid.sol\":1647:1660  _bid.bidCount */\n      0x04\n      add\n      sload\n        /* \"Bid.sol\":1631:1661  _bid.highestBid[_bid.bidCount] */\n      dup2\n      mstore\n      0x20\n      add\n      swap1\n      dup2\n      mstore\n      0x20\n      add\n      0x00\n      keccak256\n        /* \"Bid.sol\":1631:1675  _bid.highestBid[_bid.bidCount] = startingBid */\n      dup2\n      swap1\n      sstore\n      pop\n        /* \"Bid.sol\":1686:1690  _bid */\n      dup1\n        /* \"Bid.sol\":1686:1699  _bid.bidCount */\n      0x04\n      add\n      0x00\n        /* \"Bid.sol\":1686:1701  _bid.bidCount++ */\n      dup2\n      sload\n      dup1\n      swap3\n      swap2\n      swap1\n      tag_170\n      swap1\n      tag_120\n      jump\t// in\n    tag_170:\n      swap2\n      swap1\n      pop\n      sstore\n      pop\n        /* \"Bid.sol\":1737:1745  _tokenId */\n      dup4\n        /* \"Bid.sol\":1722:1726  _bid */\n      dup2\n        /* \"Bid.sol\":1722:1734  _bid.tokenId */\n      0x03\n      add\n        /* \"Bid.sol\":1722:1745  _bid.tokenId = _tokenId */\n      dup2\n      swap1\n      sstore\n      pop\n        /* \"Bid.sol\":1756:1760  _bid */\n      dup1\n        /* \"Bid.sol\":1756:1770  _bid.tokenAddr */\n      0x02\n      add\n      0x00\n      swap1\n      sload\n      swap1\n      0x0100\n      exp\n      swap1\n      div\n      0xffffffffffffffffffffffffffffffffffffffff\n      and\n        /* \"Bid.sol\":1756:1783  _bid.tokenAddr.transferFrom */\n      0xffffffffffffffffffffffffffffffffffffffff\n      and\n      0x23b872dd\n        /* \"Bid.sol\":1784:1794  msg.sender */\n      caller\n        /* \"Bid.sol\":1804:1808  this */\n      address\n        /* \"Bid.sol\":1811:1815  _bid */\n      dup5\n        /* \"Bid.sol\":1811:1823  _bid.tokenId */\n      0x03\n      add\n      sload\n        /* \"Bid.sol\":1756:1824  _bid.tokenAddr.transferFrom(msg.sender, address(this), _bid.tokenId) */\n      mload(0x40)\n      dup5\n      0xffffffff\n      and\n      0xe0\n      shl\n      dup2\n      mstore\n      0x04\n      add\n      tag_171\n      swap4\n      swap3\n      swap2\n      swap1\n      tag_74\n      jump\t// in\n    tag_171:\n      0x00\n      mload(0x40)\n      dup1\n      dup4\n      sub\n      dup2\n      0x00\n      dup8\n      dup1\n      extcodesize\n      iszero\n      dup1\n      iszero\n      tag_172\n      jumpi\n      0x00\n      dup1\n      revert\n    tag_172:\n      pop\n      gas\n      call\n      iszero\n      dup1\n      iszero\n      tag_174\n      jumpi\n      returndatasize\n      0x00\n      dup1\n      returndatacopy\n      revert(0x00, returndatasize)\n    tag_174:\n      pop\n      pop\n      pop\n      pop\n        /* \"Bid.sol\":1852:1856  true */\n      0x01\n        /* \"Bid.sol\":1837:1841  _bid */\n      dup2\n        /* \"Bid.sol\":1837:1849  _bid.started */\n      0x00\n      add\n      0x14\n        /* \"Bid.sol\":1837:1856  _bid.started = true */\n      0x0100\n      exp\n      dup2\n      sload\n      dup2\n      0xff\n      mul\n      not\n      and\n      swap1\n      dup4\n      iszero\n      iszero\n      mul\n      or\n      swap1\n      sstore\n      pop\n        /* \"Bid.sol\":1911:1917  1 days */\n      0x015180\n        /* \"Bid.sol\":1899:1908  dayAmount */\n      dup3\n        /* \"Bid.sol\":1899:1917  dayAmount * 1 days */\n      tag_175\n      swap2\n      swap1\n      tag_176\n      jump\t// in\n    tag_175:\n        /* \"Bid.sol\":1880:1895  block.timestamp */\n      timestamp\n        /* \"Bid.sol\":1880:1918  block.timestamp + (dayAmount * 1 days) */\n      tag_177\n      swap2\n      swap1\n      tag_146\n      jump\t// in\n    tag_177:\n        /* \"Bid.sol\":1867:1871  _bid */\n      dup2\n        /* \"Bid.sol\":1867:1877  _bid.endAt */\n      0x01\n      add\n        /* \"Bid.sol\":1867:1918  _bid.endAt = block.timestamp + (dayAmount * 1 days) */\n      dup2\n      swap1\n      sstore\n      pop\n        /* \"Bid.sol\":1954:1962  _tokenId */\n      dup4\n        /* \"Bid.sol\":1942:1952  _tokenAddr */\n      dup6\n        /* \"Bid.sol\":1936:1988  Start(_tokenAddr, _tokenId, startingBid, _bid.endAt) */\n      0xffffffffffffffffffffffffffffffffffffffff\n      and\n      0x3b305515dbe345238649f5ce343c57ae67d5727443f8d744b2b793c3231e3ad9\n        /* \"Bid.sol\":1964:1975  startingBid */\n      dup6\n        /* \"Bid.sol\":1977:1981  _bid */\n      dup5\n        /* \"Bid.sol\":1977:1987  _bid.endAt */\n      0x01\n      add\n      sload\n        /* \"Bid.sol\":1936:1988  Start(_tokenAddr, _tokenId, startingBid, _bid.endAt) */\n      mload(0x40)\n      tag_178\n      swap3\n      swap2\n      swap1\n      tag_179\n      jump\t// in\n    tag_178:\n      mload(0x40)\n      dup1\n      swap2\n      sub\n      swap1\n      log3\n        /* \"Bid.sol\":1252:1996  {\r... */\n      pop\n        /* \"Bid.sol\":1159:1996  function start(address _tokenAddr, uint _tokenId, uint startingBid, uint dayAmount) external {\r... */\n      pop\n      pop\n      pop\n      pop\n      jump\t// out\n        /* \"Bid.sol\":5303:5498  function getHighestBidder(address tokenAddr, uint tokenId, uint bidCount) public view returns(address highestBidder) {\r... */\n    tag_50:\n        /* \"Bid.sol\":5397:5418  address highestBidder */\n      0x00\n        /* \"Bid.sol\":5438:5446  biddings */\n      dup1\n        /* \"Bid.sol\":5438:5457  biddings[tokenAddr] */\n      0x00\n        /* \"Bid.sol\":5447:5456  tokenAddr */\n      dup6\n        /* \"Bid.sol\":5438:5457  biddings[tokenAddr] */\n      0xffffffffffffffffffffffffffffffffffffffff\n      and\n      0xffffffffffffffffffffffffffffffffffffffff\n      and\n      dup2\n      mstore\n      0x20\n      add\n      swap1\n      dup2\n      mstore\n      0x20\n      add\n      0x00\n      keccak256\n        /* \"Bid.sol\":5438:5466  biddings[tokenAddr][tokenId] */\n      0x00\n        /* \"Bid.sol\":5458:5465  tokenId */\n      dup5\n        /* \"Bid.sol\":5438:5466  biddings[tokenAddr][tokenId] */\n      dup2\n      mstore\n      0x20\n      add\n      swap1\n      dup2\n      mstore\n      0x20\n      add\n      0x00\n      keccak256\n        /* \"Bid.sol\":5438:5480  biddings[tokenAddr][tokenId].highestBidder */\n      0x06\n      add\n        /* \"Bid.sol\":5438:5490  biddings[tokenAddr][tokenId].highestBidder[bidCount] */\n      0x00\n        /* \"Bid.sol\":5481:5489  bidCount */\n      dup4\n        /* \"Bid.sol\":5438:5490  biddings[tokenAddr][tokenId].highestBidder[bidCount] */\n      dup2\n      mstore\n      0x20\n      add\n      swap1\n      dup2\n      mstore\n      0x20\n      add\n      0x00\n      keccak256\n      0x00\n      swap1\n      sload\n      swap1\n      0x0100\n      exp\n      swap1\n      div\n      0xffffffffffffffffffffffffffffffffffffffff\n      and\n        /* \"Bid.sol\":5431:5490  return biddings[tokenAddr][tokenId].highestBidder[bidCount] */\n      swap1\n      pop\n        /* \"Bid.sol\":5303:5498  function getHighestBidder(address tokenAddr, uint tokenId, uint bidCount) public view returns(address highestBidder) {\r... */\n      swap4\n      swap3\n      pop\n      pop\n      pop\n      jump\t// out\n        /* \"Bid.sol\":2683:3209  function withdraw(address _tokenAddr, uint _tokenId) external payable {\r... */\n    tag_55:\n        /* \"Bid.sol\":2764:2784  Bidding storage _bid */\n      0x00\n        /* \"Bid.sol\":2787:2795  biddings */\n      dup1\n        /* \"Bid.sol\":2787:2807  biddings[_tokenAddr] */\n      0x00\n        /* \"Bid.sol\":2796:2806  _tokenAddr */\n      dup5\n        /* \"Bid.sol\":2787:2807  biddings[_tokenAddr] */\n      0xffffffffffffffffffffffffffffffffffffffff\n      and\n      0xffffffffffffffffffffffffffffffffffffffff\n      and\n      dup2\n      mstore\n      0x20\n      add\n      swap1\n      dup2\n      mstore\n      0x20\n      add\n      0x00\n      keccak256\n        /* \"Bid.sol\":2787:2817  biddings[_tokenAddr][_tokenId] */\n      0x00\n        /* \"Bid.sol\":2808:2816  _tokenId */\n      dup4\n        /* \"Bid.sol\":2787:2817  biddings[_tokenAddr][_tokenId] */\n      dup2\n      mstore\n      0x20\n      add\n      swap1\n      dup2\n      mstore\n      0x20\n      add\n      0x00\n      keccak256\n        /* \"Bid.sol\":2764:2817  Bidding storage _bid = biddings[_tokenAddr][_tokenId] */\n      swap1\n      pop\n        /* \"Bid.sol\":2828:2836  uint bal */\n      0x00\n        /* \"Bid.sol\":2839:2843  _bid */\n      dup2\n        /* \"Bid.sol\":2839:2848  _bid.bids */\n      0x07\n      add\n        /* \"Bid.sol\":2839:2860  _bid.bids[msg.sender] */\n      0x00\n        /* \"Bid.sol\":2849:2859  msg.sender */\n      caller\n        /* \"Bid.sol\":2839:2860  _bid.bids[msg.sender] */\n      0xffffffffffffffffffffffffffffffffffffffff\n      and\n      0xffffffffffffffffffffffffffffffffffffffff\n      and\n      dup2\n      mstore\n      0x20\n      add\n      swap1\n      dup2\n      mstore\n      0x20\n      add\n      0x00\n      keccak256\n      sload\n        /* \"Bid.sol\":2828:2860  uint bal = _bid.bids[msg.sender] */\n      swap1\n      pop\n        /* \"Bid.sol\":2888:2889  0 */\n      0x00\n        /* \"Bid.sol\":2881:2884  bal */\n      dup2\n        /* \"Bid.sol\":2881:2889  bal != 0 */\n      eq\n      iszero\n        /* \"Bid.sol\":2881:2908  bal != 0 && bal <= balances */\n      dup1\n      iszero\n      tag_182\n      jumpi\n      pop\n        /* \"Bid.sol\":2900:2908  balances */\n      sload(0x01)\n        /* \"Bid.sol\":2893:2896  bal */\n      dup2\n        /* \"Bid.sol\":2893:2908  bal <= balances */\n      gt\n      iszero\n        /* \"Bid.sol\":2881:2908  bal != 0 && bal <= balances */\n    tag_182:\n        /* \"Bid.sol\":2873:2931  require(bal != 0 && bal <= balances, \"Could not withdraw\") */\n      tag_183\n      jumpi\n      mload(0x40)\n      0x08c379a000000000000000000000000000000000000000000000000000000000\n      dup2\n      mstore\n      0x04\n      add\n      tag_184\n      swap1\n      tag_152\n      jump\t// in\n    tag_184:\n      mload(0x40)\n      dup1\n      swap2\n      sub\n      swap1\n      revert\n    tag_183:\n        /* \"Bid.sol\":2969:2973  _bid */\n      dup2\n        /* \"Bid.sol\":2969:2987  _bid.highestBidder */\n      0x06\n      add\n        /* \"Bid.sol\":2969:3002  _bid.highestBidder[_bid.bidCount] */\n      0x00\n        /* \"Bid.sol\":2988:2992  _bid */\n      dup4\n        /* \"Bid.sol\":2988:3001  _bid.bidCount */\n      0x04\n      add\n      sload\n        /* \"Bid.sol\":2969:3002  _bid.highestBidder[_bid.bidCount] */\n      dup2\n      mstore\n      0x20\n      add\n      swap1\n      dup2\n      mstore\n      0x20\n      add\n      0x00\n      keccak256\n      0x00\n      swap1\n      sload\n      swap1\n      0x0100\n      exp\n      swap1\n      div\n      0xffffffffffffffffffffffffffffffffffffffff\n      and\n        /* \"Bid.sol\":2955:3002  msg.sender == _bid.highestBidder[_bid.bidCount] */\n      0xffffffffffffffffffffffffffffffffffffffff\n      and\n        /* \"Bid.sol\":2955:2965  msg.sender */\n      caller\n        /* \"Bid.sol\":2955:3002  msg.sender == _bid.highestBidder[_bid.bidCount] */\n      0xffffffffffffffffffffffffffffffffffffffff\n      and\n      eq\n        /* \"Bid.sol\":2952:3049  if(msg.sender == _bid.highestBidder[_bid.bidCount]) {\r... */\n      iszero\n      tag_185\n      jumpi\n        /* \"Bid.sol\":3036:3037  1 */\n      0x01\n        /* \"Bid.sol\":3019:3023  _bid */\n      dup3\n        /* \"Bid.sol\":3019:3032  _bid.bidCount */\n      0x04\n      add\n      0x00\n        /* \"Bid.sol\":3019:3037  _bid.bidCount -= 1 */\n      dup3\n      dup3\n      sload\n      tag_186\n      swap2\n      swap1\n      tag_81\n      jump\t// in\n    tag_186:\n      swap3\n      pop\n      pop\n      dup2\n      swap1\n      sstore\n      pop\n        /* \"Bid.sol\":2952:3049  if(msg.sender == _bid.highestBidder[_bid.bidCount]) {\r... */\n    tag_185:\n        /* \"Bid.sol\":3085:3086  0 */\n      0x00\n        /* \"Bid.sol\":3061:3065  _bid */\n      dup3\n        /* \"Bid.sol\":3061:3070  _bid.bids */\n      0x07\n      add\n        /* \"Bid.sol\":3061:3082  _bid.bids[msg.sender] */\n      0x00\n        /* \"Bid.sol\":3071:3081  msg.sender */\n      caller\n        /* \"Bid.sol\":3061:3082  _bid.bids[msg.sender] */\n      0xffffffffffffffffffffffffffffffffffffffff\n      and\n      0xffffffffffffffffffffffffffffffffffffffff\n      and\n      dup2\n      mstore\n      0x20\n      add\n      swap1\n      dup2\n      mstore\n      0x20\n      add\n      0x00\n      keccak256\n        /* \"Bid.sol\":3061:3086  _bid.bids[msg.sender] = 0 */\n      dup2\n      swap1\n      sstore\n      pop\n        /* \"Bid.sol\":3107:3117  msg.sender */\n      caller\n        /* \"Bid.sol\":3099:3127  payable(msg.sender).transfer */\n      0xffffffffffffffffffffffffffffffffffffffff\n      and\n        /* \"Bid.sol\":3099:3132  payable(msg.sender).transfer(bal) */\n      0x08fc\n        /* \"Bid.sol\":3128:3131  bal */\n      dup3\n        /* \"Bid.sol\":3099:3132  payable(msg.sender).transfer(bal) */\n      swap1\n      dup2\n      iszero\n      mul\n      swap1\n      mload(0x40)\n      0x00\n      mload(0x40)\n      dup1\n      dup4\n      sub\n      dup2\n      dup6\n      dup9\n      dup9\n      call\n      swap4\n      pop\n      pop\n      pop\n      pop\n      iszero\n      dup1\n      iszero\n      tag_188\n      jumpi\n      returndatasize\n      0x00\n      dup1\n      returndatacopy\n      revert(0x00, returndatasize)\n    tag_188:\n      pop\n        /* \"Bid.sol\":3155:3158  bal */\n      dup1\n        /* \"Bid.sol\":3143:3151  balances */\n      0x01\n      0x00\n        /* \"Bid.sol\":3143:3158  balances -= bal */\n      dup3\n      dup3\n      sload\n      tag_189\n      swap2\n      swap1\n      tag_81\n      jump\t// in\n    tag_189:\n      swap3\n      pop\n      pop\n      dup2\n      swap1\n      sstore\n      pop\n        /* \"Bid.sol\":3185:3195  msg.sender */\n      caller\n        /* \"Bid.sol\":3176:3201  Withdraw(msg.sender, bal) */\n      0xffffffffffffffffffffffffffffffffffffffff\n      and\n      0x884edad9ce6fa2440d8a54cc123490eb96d2768479d49ff9c7366125a9424364\n        /* \"Bid.sol\":3197:3200  bal */\n      dup3\n        /* \"Bid.sol\":3176:3201  Withdraw(msg.sender, bal) */\n      mload(0x40)\n      tag_190\n      swap2\n      swap1\n      tag_24\n      jump\t// in\n    tag_190:\n      mload(0x40)\n      dup1\n      swap2\n      sub\n      swap1\n      log2\n        /* \"Bid.sol\":2753:3209  {\r... */\n      pop\n      pop\n        /* \"Bid.sol\":2683:3209  function withdraw(address _tokenAddr, uint _tokenId) external payable {\r... */\n      pop\n      pop\n      jump\t// out\n        /* \"Bid.sol\":735:794  mapping(address =>mapping(uint => Bidding)) public biddings */\n    tag_59:\n      mstore(0x20, 0x00)\n      dup2\n      0x00\n      mstore\n      mstore(0x20, keccak256(0x00, 0x40))\n      dup1\n      0x00\n      mstore\n      keccak256(0x00, 0x40)\n      0x00\n      swap2\n      pop\n      swap2\n      pop\n      pop\n      dup1\n      0x00\n      add\n      0x00\n      swap1\n      sload\n      swap1\n      0x0100\n      exp\n      swap1\n      div\n      0xffffffffffffffffffffffffffffffffffffffff\n      and\n      swap1\n      dup1\n      0x00\n      add\n      0x14\n      swap1\n      sload\n      swap1\n      0x0100\n      exp\n      swap1\n      div\n      0xff\n      and\n      swap1\n      dup1\n      0x00\n      add\n      0x15\n      swap1\n      sload\n      swap1\n      0x0100\n      exp\n      swap1\n      div\n      0xff\n      and\n      swap1\n      dup1\n      0x01\n      add\n      sload\n      swap1\n      dup1\n      0x02\n      add\n      0x00\n      swap1\n      sload\n      swap1\n      0x0100\n      exp\n      swap1\n      div\n      0xffffffffffffffffffffffffffffffffffffffff\n      and\n      swap1\n      dup1\n      0x03\n      add\n      sload\n      swap1\n      dup1\n      0x04\n      add\n      sload\n      swap1\n      pop\n      dup8\n      jump\t// out\n        /* \"#utility.yul\":7:146   */\n    tag_192:\n        /* \"#utility.yul\":53:58   */\n      0x00\n        /* \"#utility.yul\":91:97   */\n      dup2\n        /* \"#utility.yul\":78:98   */\n      calldataload\n        /* \"#utility.yul\":69:98   */\n      swap1\n      pop\n        /* \"#utility.yul\":107:140   */\n      tag_194\n        /* \"#utility.yul\":134:139   */\n      dup2\n        /* \"#utility.yul\":107:140   */\n      tag_195\n      jump\t// in\n    tag_194:\n        /* \"#utility.yul\":7:146   */\n      swap3\n      swap2\n      pop\n      pop\n      jump\t// out\n        /* \"#utility.yul\":152:295   */\n    tag_196:\n        /* \"#utility.yul\":209:214   */\n      0x00\n        /* \"#utility.yul\":240:246   */\n      dup2\n        /* \"#utility.yul\":234:247   */\n      mload\n        /* \"#utility.yul\":225:247   */\n      swap1\n      pop\n        /* \"#utility.yul\":256:289   */\n      tag_198\n        /* \"#utility.yul\":283:288   */\n      dup2\n        /* \"#utility.yul\":256:289   */\n      tag_195\n      jump\t// in\n    tag_198:\n        /* \"#utility.yul\":152:295   */\n      swap3\n      swap2\n      pop\n      pop\n      jump\t// out\n        /* \"#utility.yul\":301:440   */\n    tag_199:\n        /* \"#utility.yul\":347:352   */\n      0x00\n        /* \"#utility.yul\":385:391   */\n      dup2\n        /* \"#utility.yul\":372:392   */\n      calldataload\n        /* \"#utility.yul\":363:392   */\n      swap1\n      pop\n        /* \"#utility.yul\":401:434   */\n      tag_201\n        /* \"#utility.yul\":428:433   */\n      dup2\n        /* \"#utility.yul\":401:434   */\n      tag_202\n      jump\t// in\n    tag_201:\n        /* \"#utility.yul\":301:440   */\n      swap3\n      swap2\n      pop\n      pop\n      jump\t// out\n        /* \"#utility.yul\":446:589   */\n    tag_203:\n        /* \"#utility.yul\":503:508   */\n      0x00\n        /* \"#utility.yul\":534:540   */\n      dup2\n        /* \"#utility.yul\":528:541   */\n      mload\n        /* \"#utility.yul\":519:541   */\n      swap1\n      pop\n        /* \"#utility.yul\":550:583   */\n      tag_205\n        /* \"#utility.yul\":577:582   */\n      dup2\n        /* \"#utility.yul\":550:583   */\n      tag_202\n      jump\t// in\n    tag_205:\n        /* \"#utility.yul\":446:589   */\n      swap3\n      swap2\n      pop\n      pop\n      jump\t// out\n        /* \"#utility.yul\":595:946   */\n    tag_88:\n        /* \"#utility.yul\":665:671   */\n      0x00\n        /* \"#utility.yul\":714:716   */\n      0x20\n        /* \"#utility.yul\":702:711   */\n      dup3\n        /* \"#utility.yul\":693:700   */\n      dup5\n        /* \"#utility.yul\":689:712   */\n      sub\n        /* \"#utility.yul\":685:717   */\n      slt\n        /* \"#utility.yul\":682:801   */\n      iszero\n      tag_207\n      jumpi\n        /* \"#utility.yul\":720:799   */\n      tag_208\n      tag_209\n      jump\t// in\n    tag_208:\n        /* \"#utility.yul\":682:801   */\n    tag_207:\n        /* \"#utility.yul\":840:841   */\n      0x00\n        /* \"#utility.yul\":865:929   */\n      tag_210\n        /* \"#utility.yul\":921:928   */\n      dup5\n        /* \"#utility.yul\":912:918   */\n      dup3\n        /* \"#utility.yul\":901:910   */\n      dup6\n        /* \"#utility.yul\":897:919   */\n      add\n        /* \"#utility.yul\":865:929   */\n      tag_196\n      jump\t// in\n    tag_210:\n        /* \"#utility.yul\":855:929   */\n      swap2\n      pop\n        /* \"#utility.yul\":811:939   */\n      pop\n        /* \"#utility.yul\":595:946   */\n      swap3\n      swap2\n      pop\n      pop\n      jump\t// out\n        /* \"#utility.yul\":952:1571   */\n    tag_16:\n        /* \"#utility.yul\":1029:1035   */\n      0x00\n        /* \"#utility.yul\":1037:1043   */\n      dup1\n        /* \"#utility.yul\":1045:1051   */\n      0x00\n        /* \"#utility.yul\":1094:1096   */\n      0x60\n        /* \"#utility.yul\":1082:1091   */\n      dup5\n        /* \"#utility.yul\":1073:1080   */\n      dup7\n        /* \"#utility.yul\":1069:1092   */\n      sub\n        /* \"#utility.yul\":1065:1097   */\n      slt\n        /* \"#utility.yul\":1062:1181   */\n      iszero\n      tag_212\n      jumpi\n        /* \"#utility.yul\":1100:1179   */\n      tag_213\n      tag_209\n      jump\t// in\n    tag_213:\n        /* \"#utility.yul\":1062:1181   */\n    tag_212:\n        /* \"#utility.yul\":1220:1221   */\n      0x00\n        /* \"#utility.yul\":1245:1298   */\n      tag_214\n        /* \"#utility.yul\":1290:1297   */\n      dup7\n        /* \"#utility.yul\":1281:1287   */\n      dup3\n        /* \"#utility.yul\":1270:1279   */\n      dup8\n        /* \"#utility.yul\":1266:1288   */\n      add\n        /* \"#utility.yul\":1245:1298   */\n      tag_192\n      jump\t// in\n    tag_214:\n        /* \"#utility.yul\":1235:1298   */\n      swap4\n      pop\n        /* \"#utility.yul\":1191:1308   */\n      pop\n        /* \"#utility.yul\":1347:1349   */\n      0x20\n        /* \"#utility.yul\":1373:1426   */\n      tag_215\n        /* \"#utility.yul\":1418:1425   */\n      dup7\n        /* \"#utility.yul\":1409:1415   */\n      dup3\n        /* \"#utility.yul\":1398:1407   */\n      dup8\n        /* \"#utility.yul\":1394:1416   */\n      add\n        /* \"#utility.yul\":1373:1426   */\n      tag_192\n      jump\t// in\n    tag_215:\n        /* \"#utility.yul\":1363:1426   */\n      swap3\n      pop\n        /* \"#utility.yul\":1318:1436   */\n      pop\n        /* \"#utility.yul\":1475:1477   */\n      0x40\n        /* \"#utility.yul\":1501:1554   */\n      tag_216\n        /* \"#utility.yul\":1546:1553   */\n      dup7\n        /* \"#utility.yul\":1537:1543   */\n      dup3\n        /* \"#utility.yul\":1526:1535   */\n      dup8\n        /* \"#utility.yul\":1522:1544   */\n      add\n        /* \"#utility.yul\":1501:1554   */\n      tag_199\n      jump\t// in\n    tag_216:\n        /* \"#utility.yul\":1491:1554   */\n      swap2\n      pop\n        /* \"#utility.yul\":1446:1564   */\n      pop\n        /* \"#utility.yul\":952:1571   */\n      swap3\n      pop\n      swap3\n      pop\n      swap3\n      jump\t// out\n        /* \"#utility.yul\":1577:2051   */\n    tag_27:\n        /* \"#utility.yul\":1645:1651   */\n      0x00\n        /* \"#utility.yul\":1653:1659   */\n      dup1\n        /* \"#utility.yul\":1702:1704   */\n      0x40\n        /* \"#utility.yul\":1690:1699   */\n      dup4\n        /* \"#utility.yul\":1681:1688   */\n      dup6\n        /* \"#utility.yul\":1677:1700   */\n      sub\n        /* \"#utility.yul\":1673:1705   */\n      slt\n        /* \"#utility.yul\":1670:1789   */\n      iszero\n      tag_218\n      jumpi\n        /* \"#utility.yul\":1708:1787   */\n      tag_219\n      tag_209\n      jump\t// in\n    tag_219:\n        /* \"#utility.yul\":1670:1789   */\n    tag_218:\n        /* \"#utility.yul\":1828:1829   */\n      0x00\n        /* \"#utility.yul\":1853:1906   */\n      tag_220\n        /* \"#utility.yul\":1898:1905   */\n      dup6\n        /* \"#utility.yul\":1889:1895   */\n      dup3\n        /* \"#utility.yul\":1878:1887   */\n      dup7\n        /* \"#utility.yul\":1874:1896   */\n      add\n        /* \"#utility.yul\":1853:1906   */\n      tag_192\n      jump\t// in\n    tag_220:\n        /* \"#utility.yul\":1843:1906   */\n      swap3\n      pop\n        /* \"#utility.yul\":1799:1916   */\n      pop\n        /* \"#utility.yul\":1955:1957   */\n      0x20\n        /* \"#utility.yul\":1981:2034   */\n      tag_221\n        /* \"#utility.yul\":2026:2033   */\n      dup6\n        /* \"#utility.yul\":2017:2023   */\n      dup3\n        /* \"#utility.yul\":2006:2015   */\n      dup7\n        /* \"#utility.yul\":2002:2024   */\n      add\n        /* \"#utility.yul\":1981:2034   */\n      tag_199\n      jump\t// in\n    tag_221:\n        /* \"#utility.yul\":1971:2034   */\n      swap2\n      pop\n        /* \"#utility.yul\":1926:2044   */\n      pop\n        /* \"#utility.yul\":1577:2051   */\n      swap3\n      pop\n      swap3\n      swap1\n      pop\n      jump\t// out\n        /* \"#utility.yul\":2057:2676   */\n    tag_21:\n        /* \"#utility.yul\":2134:2140   */\n      0x00\n        /* \"#utility.yul\":2142:2148   */\n      dup1\n        /* \"#utility.yul\":2150:2156   */\n      0x00\n        /* \"#utility.yul\":2199:2201   */\n      0x60\n        /* \"#utility.yul\":2187:2196   */\n      dup5\n        /* \"#utility.yul\":2178:2185   */\n      dup7\n        /* \"#utility.yul\":2174:2197   */\n      sub\n        /* \"#utility.yul\":2170:2202   */\n      slt\n        /* \"#utility.yul\":2167:2286   */\n      iszero\n      tag_223\n      jumpi\n        /* \"#utility.yul\":2205:2284   */\n      tag_224\n      tag_209\n      jump\t// in\n    tag_224:\n        /* \"#utility.yul\":2167:2286   */\n    tag_223:\n        /* \"#utility.yul\":2325:2326   */\n      0x00\n        /* \"#utility.yul\":2350:2403   */\n      tag_225\n        /* \"#utility.yul\":2395:2402   */\n      dup7\n        /* \"#utility.yul\":2386:2392   */\n      dup3\n        /* \"#utility.yul\":2375:2384   */\n      dup8\n        /* \"#utility.yul\":2371:2393   */\n      add\n        /* \"#utility.yul\":2350:2403   */\n      tag_192\n      jump\t// in\n    tag_225:\n        /* \"#utility.yul\":2340:2403   */\n      swap4\n      pop\n        /* \"#utility.yul\":2296:2413   */\n      pop\n        /* \"#utility.yul\":2452:2454   */\n      0x20\n        /* \"#utility.yul\":2478:2531   */\n      tag_226\n        /* \"#utility.yul\":2523:2530   */\n      dup7\n        /* \"#utility.yul\":2514:2520   */\n      dup3\n        /* \"#utility.yul\":2503:2512   */\n      dup8\n        /* \"#utility.yul\":2499:2521   */\n      add\n        /* \"#utility.yul\":2478:2531   */\n      tag_199\n      jump\t// in\n    tag_226:\n        /* \"#utility.yul\":2468:2531   */\n      swap3\n      pop\n        /* \"#utility.yul\":2423:2541   */\n      pop\n        /* \"#utility.yul\":2580:2582   */\n      0x40\n        /* \"#utility.yul\":2606:2659   */\n      tag_227\n        /* \"#utility.yul\":2651:2658   */\n      dup7\n        /* \"#utility.yul\":2642:2648   */\n      dup3\n        /* \"#utility.yul\":2631:2640   */\n      dup8\n        /* \"#utility.yul\":2627:2649   */\n      add\n        /* \"#utility.yul\":2606:2659   */\n      tag_192\n      jump\t// in\n    tag_227:\n        /* \"#utility.yul\":2596:2659   */\n      swap2\n      pop\n        /* \"#utility.yul\":2551:2669   */\n      pop\n        /* \"#utility.yul\":2057:2676   */\n      swap3\n      pop\n      swap3\n      pop\n      swap3\n      jump\t// out\n        /* \"#utility.yul\":2682:3301   */\n    tag_39:\n        /* \"#utility.yul\":2759:2765   */\n      0x00\n        /* \"#utility.yul\":2767:2773   */\n      dup1\n        /* \"#utility.yul\":2775:2781   */\n      0x00\n        /* \"#utility.yul\":2824:2826   */\n      0x60\n        /* \"#utility.yul\":2812:2821   */\n      dup5\n        /* \"#utility.yul\":2803:2810   */\n      dup7\n        /* \"#utility.yul\":2799:2822   */\n      sub\n        /* \"#utility.yul\":2795:2827   */\n      slt\n        /* \"#utility.yul\":2792:2911   */\n      iszero\n      tag_229\n      jumpi\n        /* \"#utility.yul\":2830:2909   */\n      tag_230\n      tag_209\n      jump\t// in\n    tag_230:\n        /* \"#utility.yul\":2792:2911   */\n    tag_229:\n        /* \"#utility.yul\":2950:2951   */\n      0x00\n        /* \"#utility.yul\":2975:3028   */\n      tag_231\n        /* \"#utility.yul\":3020:3027   */\n      dup7\n        /* \"#utility.yul\":3011:3017   */\n      dup3\n        /* \"#utility.yul\":3000:3009   */\n      dup8\n        /* \"#utility.yul\":2996:3018   */\n      add\n        /* \"#utility.yul\":2975:3028   */\n      tag_192\n      jump\t// in\n    tag_231:\n        /* \"#utility.yul\":2965:3028   */\n      swap4\n      pop\n        /* \"#utility.yul\":2921:3038   */\n      pop\n        /* \"#utility.yul\":3077:3079   */\n      0x20\n        /* \"#utility.yul\":3103:3156   */\n      tag_232\n        /* \"#utility.yul\":3148:3155   */\n      dup7\n        /* \"#utility.yul\":3139:3145   */\n      dup3\n        /* \"#utility.yul\":3128:3137   */\n      dup8\n        /* \"#utility.yul\":3124:3146   */\n      add\n        /* \"#utility.yul\":3103:3156   */\n      tag_199\n      jump\t// in\n    tag_232:\n        /* \"#utility.yul\":3093:3156   */\n      swap3\n      pop\n        /* \"#utility.yul\":3048:3166   */\n      pop\n        /* \"#utility.yul\":3205:3207   */\n      0x40\n        /* \"#utility.yul\":3231:3284   */\n      tag_233\n        /* \"#utility.yul\":3276:3283   */\n      dup7\n        /* \"#utility.yul\":3267:3273   */\n      dup3\n        /* \"#utility.yul\":3256:3265   */\n      dup8\n        /* \"#utility.yul\":3252:3274   */\n      add\n        /* \"#utility.yul\":3231:3284   */\n      tag_199\n      jump\t// in\n    tag_233:\n        /* \"#utility.yul\":3221:3284   */\n      swap2\n      pop\n        /* \"#utility.yul\":3176:3294   */\n      pop\n        /* \"#utility.yul\":2682:3301   */\n      swap3\n      pop\n      swap3\n      pop\n      swap3\n      jump\t// out\n        /* \"#utility.yul\":3307:4072   */\n    tag_45:\n        /* \"#utility.yul\":3393:3399   */\n      0x00\n        /* \"#utility.yul\":3401:3407   */\n      dup1\n        /* \"#utility.yul\":3409:3415   */\n      0x00\n        /* \"#utility.yul\":3417:3423   */\n      dup1\n        /* \"#utility.yul\":3466:3469   */\n      0x80\n        /* \"#utility.yul\":3454:3463   */\n      dup6\n        /* \"#utility.yul\":3445:3452   */\n      dup8\n        /* \"#utility.yul\":3441:3464   */\n      sub\n        /* \"#utility.yul\":3437:3470   */\n      slt\n        /* \"#utility.yul\":3434:3554   */\n      iszero\n      tag_235\n      jumpi\n        /* \"#utility.yul\":3473:3552   */\n      tag_236\n      tag_209\n      jump\t// in\n    tag_236:\n        /* \"#utility.yul\":3434:3554   */\n    tag_235:\n        /* \"#utility.yul\":3593:3594   */\n      0x00\n        /* \"#utility.yul\":3618:3671   */\n      tag_237\n        /* \"#utility.yul\":3663:3670   */\n      dup8\n        /* \"#utility.yul\":3654:3660   */\n      dup3\n        /* \"#utility.yul\":3643:3652   */\n      dup9\n        /* \"#utility.yul\":3639:3661   */\n      add\n        /* \"#utility.yul\":3618:3671   */\n      tag_192\n      jump\t// in\n    tag_237:\n        /* \"#utility.yul\":3608:3671   */\n      swap5\n      pop\n        /* \"#utility.yul\":3564:3681   */\n      pop\n        /* \"#utility.yul\":3720:3722   */\n      0x20\n        /* \"#utility.yul\":3746:3799   */\n      tag_238\n        /* \"#utility.yul\":3791:3798   */\n      dup8\n        /* \"#utility.yul\":3782:3788   */\n      dup3\n        /* \"#utility.yul\":3771:3780   */\n      dup9\n        /* \"#utility.yul\":3767:3789   */\n      add\n        /* \"#utility.yul\":3746:3799   */\n      tag_199\n      jump\t// in\n    tag_238:\n        /* \"#utility.yul\":3736:3799   */\n      swap4\n      pop\n        /* \"#utility.yul\":3691:3809   */\n      pop\n        /* \"#utility.yul\":3848:3850   */\n      0x40\n        /* \"#utility.yul\":3874:3927   */\n      tag_239\n        /* \"#utility.yul\":3919:3926   */\n      dup8\n        /* \"#utility.yul\":3910:3916   */\n      dup3\n        /* \"#utility.yul\":3899:3908   */\n      dup9\n        /* \"#utility.yul\":3895:3917   */\n      add\n        /* \"#utility.yul\":3874:3927   */\n      tag_199\n      jump\t// in\n    tag_239:\n        /* \"#utility.yul\":3864:3927   */\n      swap3\n      pop\n        /* \"#utility.yul\":3819:3937   */\n      pop\n        /* \"#utility.yul\":3976:3978   */\n      0x60\n        /* \"#utility.yul\":4002:4055   */\n      tag_240\n        /* \"#utility.yul\":4047:4054   */\n      dup8\n        /* \"#utility.yul\":4038:4044   */\n      dup3\n        /* \"#utility.yul\":4027:4036   */\n      dup9\n        /* \"#utility.yul\":4023:4045   */\n      add\n        /* \"#utility.yul\":4002:4055   */\n      tag_199\n      jump\t// in\n    tag_240:\n        /* \"#utility.yul\":3992:4055   */\n      swap2\n      pop\n        /* \"#utility.yul\":3947:4065   */\n      pop\n        /* \"#utility.yul\":3307:4072   */\n      swap3\n      swap6\n      swap2\n      swap5\n      pop\n      swap3\n      pop\n      jump\t// out\n        /* \"#utility.yul\":4078:4429   */\n    tag_113:\n        /* \"#utility.yul\":4148:4154   */\n      0x00\n        /* \"#utility.yul\":4197:4199   */\n      0x20\n        /* \"#utility.yul\":4185:4194   */\n      dup3\n        /* \"#utility.yul\":4176:4183   */\n      dup5\n        /* \"#utility.yul\":4172:4195   */\n      sub\n        /* \"#utility.yul\":4168:4200   */\n      slt\n        /* \"#utility.yul\":4165:4284   */\n      iszero\n      tag_242\n      jumpi\n        /* \"#utility.yul\":4203:4282   */\n      tag_243\n      tag_209\n      jump\t// in\n    tag_243:\n        /* \"#utility.yul\":4165:4284   */\n    tag_242:\n        /* \"#utility.yul\":4323:4324   */\n      0x00\n        /* \"#utility.yul\":4348:4412   */\n      tag_244\n        /* \"#utility.yul\":4404:4411   */\n      dup5\n        /* \"#utility.yul\":4395:4401   */\n      dup3\n        /* \"#utility.yul\":4384:4393   */\n      dup6\n        /* \"#utility.yul\":4380:4402   */\n      add\n        /* \"#utility.yul\":4348:4412   */\n      tag_203\n      jump\t// in\n    tag_244:\n        /* \"#utility.yul\":4338:4412   */\n      swap2\n      pop\n        /* \"#utility.yul\":4294:4422   */\n      pop\n        /* \"#utility.yul\":4078:4429   */\n      swap3\n      swap2\n      pop\n      pop\n      jump\t// out\n        /* \"#utility.yul\":4435:4553   */\n    tag_245:\n        /* \"#utility.yul\":4522:4546   */\n      tag_247\n        /* \"#utility.yul\":4540:4545   */\n      dup2\n        /* \"#utility.yul\":4522:4546   */\n      tag_248\n      jump\t// in\n    tag_247:\n        /* \"#utility.yul\":4517:4520   */\n      dup3\n        /* \"#utility.yul\":4510:4547   */\n      mstore\n        /* \"#utility.yul\":4435:4553   */\n      pop\n      pop\n      jump\t// out\n        /* \"#utility.yul\":4559:4668   */\n    tag_249:\n        /* \"#utility.yul\":4640:4661   */\n      tag_251\n        /* \"#utility.yul\":4655:4660   */\n      dup2\n        /* \"#utility.yul\":4640:4661   */\n      tag_252\n      jump\t// in\n    tag_251:\n        /* \"#utility.yul\":4635:4638   */\n      dup3\n        /* \"#utility.yul\":4628:4662   */\n      mstore\n        /* \"#utility.yul\":4559:4668   */\n      pop\n      pop\n      jump\t// out\n        /* \"#utility.yul\":4674:4831   */\n    tag_253:\n        /* \"#utility.yul\":4774:4824   */\n      tag_255\n        /* \"#utility.yul\":4818:4823   */\n      dup2\n        /* \"#utility.yul\":4774:4824   */\n      tag_256\n      jump\t// in\n    tag_255:\n        /* \"#utility.yul\":4769:4772   */\n      dup3\n        /* \"#utility.yul\":4762:4825   */\n      mstore\n        /* \"#utility.yul\":4674:4831   */\n      pop\n      pop\n      jump\t// out\n        /* \"#utility.yul\":4837:5203   */\n    tag_257:\n        /* \"#utility.yul\":4979:4982   */\n      0x00\n        /* \"#utility.yul\":5000:5067   */\n      tag_259\n        /* \"#utility.yul\":5064:5066   */\n      0x0a\n        /* \"#utility.yul\":5059:5062   */\n      dup4\n        /* \"#utility.yul\":5000:5067   */\n      tag_260\n      jump\t// in\n    tag_259:\n        /* \"#utility.yul\":4993:5067   */\n      swap2\n      pop\n        /* \"#utility.yul\":5076:5169   */\n      tag_261\n        /* \"#utility.yul\":5165:5168   */\n      dup3\n        /* \"#utility.yul\":5076:5169   */\n      tag_262\n      jump\t// in\n    tag_261:\n        /* \"#utility.yul\":5194:5196   */\n      0x20\n        /* \"#utility.yul\":5189:5192   */\n      dup3\n        /* \"#utility.yul\":5185:5197   */\n      add\n        /* \"#utility.yul\":5178:5197   */\n      swap1\n      pop\n        /* \"#utility.yul\":4837:5203   */\n      swap2\n      swap1\n      pop\n      jump\t// out\n        /* \"#utility.yul\":5209:5575   */\n    tag_263:\n        /* \"#utility.yul\":5351:5354   */\n      0x00\n        /* \"#utility.yul\":5372:5439   */\n      tag_265\n        /* \"#utility.yul\":5436:5438   */\n      0x19\n        /* \"#utility.yul\":5431:5434   */\n      dup4\n        /* \"#utility.yul\":5372:5439   */\n      tag_260\n      jump\t// in\n    tag_265:\n        /* \"#utility.yul\":5365:5439   */\n      swap2\n      pop\n        /* \"#utility.yul\":5448:5541   */\n      tag_266\n        /* \"#utility.yul\":5537:5540   */\n      dup3\n        /* \"#utility.yul\":5448:5541   */\n      tag_267\n      jump\t// in\n    tag_266:\n        /* \"#utility.yul\":5566:5568   */\n      0x20\n        /* \"#utility.yul\":5561:5564   */\n      dup3\n        /* \"#utility.yul\":5557:5569   */\n      add\n        /* \"#utility.yul\":5550:5569   */\n      swap1\n      pop\n        /* \"#utility.yul\":5209:5575   */\n      swap2\n      swap1\n      pop\n      jump\t// out\n        /* \"#utility.yul\":5581:5947   */\n    tag_268:\n        /* \"#utility.yul\":5723:5726   */\n      0x00\n        /* \"#utility.yul\":5744:5811   */\n      tag_270\n        /* \"#utility.yul\":5808:5810   */\n      0x10\n        /* \"#utility.yul\":5803:5806   */\n      dup4\n        /* \"#utility.yul\":5744:5811   */\n      tag_260\n      jump\t// in\n    tag_270:\n        /* \"#utility.yul\":5737:5811   */\n      swap2\n      pop\n        /* \"#utility.yul\":5820:5913   */\n      tag_271\n        /* \"#utility.yul\":5909:5912   */\n      dup3\n        /* \"#utility.yul\":5820:5913   */\n      tag_272\n      jump\t// in\n    tag_271:\n        /* \"#utility.yul\":5938:5940   */\n      0x20\n        /* \"#utility.yul\":5933:5936   */\n      dup3\n        /* \"#utility.yul\":5929:5941   */\n      add\n        /* \"#utility.yul\":5922:5941   */\n      swap1\n      pop\n        /* \"#utility.yul\":5581:5947   */\n      swap2\n      swap1\n      pop\n      jump\t// out\n        /* \"#utility.yul\":5953:6318   */\n    tag_273:\n        /* \"#utility.yul\":6095:6098   */\n      0x00\n        /* \"#utility.yul\":6116:6182   */\n      tag_275\n        /* \"#utility.yul\":6180:6181   */\n      0x06\n        /* \"#utility.yul\":6175:6178   */\n      dup4\n        /* \"#utility.yul\":6116:6182   */\n      tag_260\n      jump\t// in\n    tag_275:\n        /* \"#utility.yul\":6109:6182   */\n      swap2\n      pop\n        /* \"#utility.yul\":6191:6284   */\n      tag_276\n        /* \"#utility.yul\":6280:6283   */\n      dup3\n        /* \"#utility.yul\":6191:6284   */\n      tag_277\n      jump\t// in\n    tag_276:\n        /* \"#utility.yul\":6309:6311   */\n      0x20\n        /* \"#utility.yul\":6304:6307   */\n      dup3\n        /* \"#utility.yul\":6300:6312   */\n      add\n        /* \"#utility.yul\":6293:6312   */\n      swap1\n      pop\n        /* \"#utility.yul\":5953:6318   */\n      swap2\n      swap1\n      pop\n      jump\t// out\n        /* \"#utility.yul\":6324:6690   */\n    tag_278:\n        /* \"#utility.yul\":6466:6469   */\n      0x00\n        /* \"#utility.yul\":6487:6554   */\n      tag_280\n        /* \"#utility.yul\":6551:6553   */\n      0x18\n        /* \"#utility.yul\":6546:6549   */\n      dup4\n        /* \"#utility.yul\":6487:6554   */\n      tag_260\n      jump\t// in\n    tag_280:\n        /* \"#utility.yul\":6480:6554   */\n      swap2\n      pop\n        /* \"#utility.yul\":6563:6656   */\n      tag_281\n        /* \"#utility.yul\":6652:6655   */\n      dup3\n        /* \"#utility.yul\":6563:6656   */\n      tag_282\n      jump\t// in\n    tag_281:\n        /* \"#utility.yul\":6681:6683   */\n      0x20\n        /* \"#utility.yul\":6676:6679   */\n      dup3\n        /* \"#utility.yul\":6672:6684   */\n      add\n        /* \"#utility.yul\":6665:6684   */\n      swap1\n      pop\n        /* \"#utility.yul\":6324:6690   */\n      swap2\n      swap1\n      pop\n      jump\t// out\n        /* \"#utility.yul\":6696:7062   */\n    tag_283:\n        /* \"#utility.yul\":6838:6841   */\n      0x00\n        /* \"#utility.yul\":6859:6926   */\n      tag_285\n        /* \"#utility.yul\":6923:6925   */\n      0x1e\n        /* \"#utility.yul\":6918:6921   */\n      dup4\n        /* \"#utility.yul\":6859:6926   */\n      tag_260\n      jump\t// in\n    tag_285:\n        /* \"#utility.yul\":6852:6926   */\n      swap2\n      pop\n        /* \"#utility.yul\":6935:7028   */\n      tag_286\n        /* \"#utility.yul\":7024:7027   */\n      dup3\n        /* \"#utility.yul\":6935:7028   */\n      tag_287\n      jump\t// in\n    tag_286:\n        /* \"#utility.yul\":7053:7055   */\n      0x20\n        /* \"#utility.yul\":7048:7051   */\n      dup3\n        /* \"#utility.yul\":7044:7056   */\n      add\n        /* \"#utility.yul\":7037:7056   */\n      swap1\n      pop\n        /* \"#utility.yul\":6696:7062   */\n      swap2\n      swap1\n      pop\n      jump\t// out\n        /* \"#utility.yul\":7068:7434   */\n    tag_288:\n        /* \"#utility.yul\":7210:7213   */\n      0x00\n        /* \"#utility.yul\":7231:7298   */\n      tag_290\n        /* \"#utility.yul\":7295:7297   */\n      0x0c\n        /* \"#utility.yul\":7290:7293   */\n      dup4\n        /* \"#utility.yul\":7231:7298   */\n      tag_260\n      jump\t// in\n    tag_290:\n        /* \"#utility.yul\":7224:7298   */\n      swap2\n      pop\n        /* \"#utility.yul\":7307:7400   */\n      tag_291\n        /* \"#utility.yul\":7396:7399   */\n      dup3\n        /* \"#utility.yul\":7307:7400   */\n      tag_292\n      jump\t// in\n    tag_291:\n        /* \"#utility.yul\":7425:7427   */\n      0x20\n        /* \"#utility.yul\":7420:7423   */\n      dup3\n        /* \"#utility.yul\":7416:7428   */\n      add\n        /* \"#utility.yul\":7409:7428   */\n      swap1\n      pop\n        /* \"#utility.yul\":7068:7434   */\n      swap2\n      swap1\n      pop\n      jump\t// out\n        /* \"#utility.yul\":7440:7806   */\n    tag_293:\n        /* \"#utility.yul\":7582:7585   */\n      0x00\n        /* \"#utility.yul\":7603:7670   */\n      tag_295\n        /* \"#utility.yul\":7667:7669   */\n      0x16\n        /* \"#utility.yul\":7662:7665   */\n      dup4\n        /* \"#utility.yul\":7603:7670   */\n      tag_260\n      jump\t// in\n    tag_295:\n        /* \"#utility.yul\":7596:7670   */\n      swap2\n      pop\n        /* \"#utility.yul\":7679:7772   */\n      tag_296\n        /* \"#utility.yul\":7768:7771   */\n      dup3\n        /* \"#utility.yul\":7679:7772   */\n      tag_297\n      jump\t// in\n    tag_296:\n        /* \"#utility.yul\":7797:7799   */\n      0x20\n        /* \"#utility.yul\":7792:7795   */\n      dup3\n        /* \"#utility.yul\":7788:7800   */\n      add\n        /* \"#utility.yul\":7781:7800   */\n      swap1\n      pop\n        /* \"#utility.yul\":7440:7806   */\n      swap2\n      swap1\n      pop\n      jump\t// out\n        /* \"#utility.yul\":7812:8178   */\n    tag_298:\n        /* \"#utility.yul\":7954:7957   */\n      0x00\n        /* \"#utility.yul\":7975:8042   */\n      tag_300\n        /* \"#utility.yul\":8039:8041   */\n      0x12\n        /* \"#utility.yul\":8034:8037   */\n      dup4\n        /* \"#utility.yul\":7975:8042   */\n      tag_260\n      jump\t// in\n    tag_300:\n        /* \"#utility.yul\":7968:8042   */\n      swap2\n      pop\n        /* \"#utility.yul\":8051:8144   */\n      tag_301\n        /* \"#utility.yul\":8140:8143   */\n      dup3\n        /* \"#utility.yul\":8051:8144   */\n      tag_302\n      jump\t// in\n    tag_301:\n        /* \"#utility.yul\":8169:8171   */\n      0x20\n        /* \"#utility.yul\":8164:8167   */\n      dup3\n        /* \"#utility.yul\":8160:8172   */\n      add\n        /* \"#utility.yul\":8153:8172   */\n      swap1\n      pop\n        /* \"#utility.yul\":7812:8178   */\n      swap2\n      swap1\n      pop\n      jump\t// out\n        /* \"#utility.yul\":8184:8302   */\n    tag_303:\n        /* \"#utility.yul\":8271:8295   */\n      tag_305\n        /* \"#utility.yul\":8289:8294   */\n      dup2\n        /* \"#utility.yul\":8271:8295   */\n      tag_306\n      jump\t// in\n    tag_305:\n        /* \"#utility.yul\":8266:8269   */\n      dup3\n        /* \"#utility.yul\":8259:8296   */\n      mstore\n        /* \"#utility.yul\":8184:8302   */\n      pop\n      pop\n      jump\t// out\n        /* \"#utility.yul\":8308:8530   */\n    tag_52:\n        /* \"#utility.yul\":8401:8405   */\n      0x00\n        /* \"#utility.yul\":8439:8441   */\n      0x20\n        /* \"#utility.yul\":8428:8437   */\n      dup3\n        /* \"#utility.yul\":8424:8442   */\n      add\n        /* \"#utility.yul\":8416:8442   */\n      swap1\n      pop\n        /* \"#utility.yul\":8452:8523   */\n      tag_308\n        /* \"#utility.yul\":8520:8521   */\n      0x00\n        /* \"#utility.yul\":8509:8518   */\n      dup4\n        /* \"#utility.yul\":8505:8522   */\n      add\n        /* \"#utility.yul\":8496:8502   */\n      dup5\n        /* \"#utility.yul\":8452:8523   */\n      tag_245\n      jump\t// in\n    tag_308:\n        /* \"#utility.yul\":8308:8530   */\n      swap3\n      swap2\n      pop\n      pop\n      jump\t// out\n        /* \"#utility.yul\":8536:8978   */\n    tag_74:\n        /* \"#utility.yul\":8685:8689   */\n      0x00\n        /* \"#utility.yul\":8723:8725   */\n      0x60\n        /* \"#utility.yul\":8712:8721   */\n      dup3\n        /* \"#utility.yul\":8708:8726   */\n      add\n        /* \"#utility.yul\":8700:8726   */\n      swap1\n      pop\n        /* \"#utility.yul\":8736:8807   */\n      tag_310\n        /* \"#utility.yul\":8804:8805   */\n      0x00\n        /* \"#utility.yul\":8793:8802   */\n      dup4\n        /* \"#utility.yul\":8789:8806   */\n      add\n        /* \"#utility.yul\":8780:8786   */\n      dup7\n        /* \"#utility.yul\":8736:8807   */\n      tag_245\n      jump\t// in\n    tag_310:\n        /* \"#utility.yul\":8817:8889   */\n      tag_311\n        /* \"#utility.yul\":8885:8887   */\n      0x20\n        /* \"#utility.yul\":8874:8883   */\n      dup4\n        /* \"#utility.yul\":8870:8888   */\n      add\n        /* \"#utility.yul\":8861:8867   */\n      dup6\n        /* \"#utility.yul\":8817:8889   */\n      tag_245\n      jump\t// in\n    tag_311:\n        /* \"#utility.yul\":8899:8971   */\n      tag_312\n        /* \"#utility.yul\":8967:8969   */\n      0x40\n        /* \"#utility.yul\":8956:8965   */\n      dup4\n        /* \"#utility.yul\":8952:8970   */\n      add\n        /* \"#utility.yul\":8943:8949   */\n      dup5\n        /* \"#utility.yul\":8899:8971   */\n      tag_303\n      jump\t// in\n    tag_312:\n        /* \"#utility.yul\":8536:8978   */\n      swap5\n      swap4\n      pop\n      pop\n      pop\n      pop\n      jump\t// out\n        /* \"#utility.yul\":8984:9872   */\n    tag_61:\n        /* \"#utility.yul\":9246:9250   */\n      0x00\n        /* \"#utility.yul\":9284:9287   */\n      0xe0\n        /* \"#utility.yul\":9273:9282   */\n      dup3\n        /* \"#utility.yul\":9269:9288   */\n      add\n        /* \"#utility.yul\":9261:9288   */\n      swap1\n      pop\n        /* \"#utility.yul\":9298:9369   */\n      tag_314\n        /* \"#utility.yul\":9366:9367   */\n      0x00\n        /* \"#utility.yul\":9355:9364   */\n      dup4\n        /* \"#utility.yul\":9351:9368   */\n      add\n        /* \"#utility.yul\":9342:9348   */\n      dup11\n        /* \"#utility.yul\":9298:9369   */\n      tag_245\n      jump\t// in\n    tag_314:\n        /* \"#utility.yul\":9379:9445   */\n      tag_315\n        /* \"#utility.yul\":9441:9443   */\n      0x20\n        /* \"#utility.yul\":9430:9439   */\n      dup4\n        /* \"#utility.yul\":9426:9444   */\n      add\n        /* \"#utility.yul\":9417:9423   */\n      dup10\n        /* \"#utility.yul\":9379:9445   */\n      tag_249\n      jump\t// in\n    tag_315:\n        /* \"#utility.yul\":9455:9521   */\n      tag_316\n        /* \"#utility.yul\":9517:9519   */\n      0x40\n        /* \"#utility.yul\":9506:9515   */\n      dup4\n        /* \"#utility.yul\":9502:9520   */\n      add\n        /* \"#utility.yul\":9493:9499   */\n      dup9\n        /* \"#utility.yul\":9455:9521   */\n      tag_249\n      jump\t// in\n    tag_316:\n        /* \"#utility.yul\":9531:9603   */\n      tag_317\n        /* \"#utility.yul\":9599:9601   */\n      0x60\n        /* \"#utility.yul\":9588:9597   */\n      dup4\n        /* \"#utility.yul\":9584:9602   */\n      add\n        /* \"#utility.yul\":9575:9581   */\n      dup8\n        /* \"#utility.yul\":9531:9603   */\n      tag_303\n      jump\t// in\n    tag_317:\n        /* \"#utility.yul\":9613:9699   */\n      tag_318\n        /* \"#utility.yul\":9694:9697   */\n      0x80\n        /* \"#utility.yul\":9683:9692   */\n      dup4\n        /* \"#utility.yul\":9679:9698   */\n      add\n        /* \"#utility.yul\":9670:9676   */\n      dup7\n        /* \"#utility.yul\":9613:9699   */\n      tag_253\n      jump\t// in\n    tag_318:\n        /* \"#utility.yul\":9709:9782   */\n      tag_319\n        /* \"#utility.yul\":9777:9780   */\n      0xa0\n        /* \"#utility.yul\":9766:9775   */\n      dup4\n        /* \"#utility.yul\":9762:9781   */\n      add\n        /* \"#utility.yul\":9753:9759   */\n      dup6\n        /* \"#utility.yul\":9709:9782   */\n      tag_303\n      jump\t// in\n    tag_319:\n        /* \"#utility.yul\":9792:9865   */\n      tag_320\n        /* \"#utility.yul\":9860:9863   */\n      0xc0\n        /* \"#utility.yul\":9849:9858   */\n      dup4\n        /* \"#utility.yul\":9845:9864   */\n      add\n        /* \"#utility.yul\":9836:9842   */\n      dup5\n        /* \"#utility.yul\":9792:9865   */\n      tag_303\n      jump\t// in\n    tag_320:\n        /* \"#utility.yul\":8984:9872   */\n      swap9\n      swap8\n      pop\n      pop\n      pop\n      pop\n      pop\n      pop\n      pop\n      pop\n      jump\t// out\n        /* \"#utility.yul\":9878:10210   */\n    tag_108:\n        /* \"#utility.yul\":9999:10003   */\n      0x00\n        /* \"#utility.yul\":10037:10039   */\n      0x40\n        /* \"#utility.yul\":10026:10035   */\n      dup3\n        /* \"#utility.yul\":10022:10040   */\n      add\n        /* \"#utility.yul\":10014:10040   */\n      swap1\n      pop\n        /* \"#utility.yul\":10050:10121   */\n      tag_322\n        /* \"#utility.yul\":10118:10119   */\n      0x00\n        /* \"#utility.yul\":10107:10116   */\n      dup4\n        /* \"#utility.yul\":10103:10120   */\n      add\n        /* \"#utility.yul\":10094:10100   */\n      dup6\n        /* \"#utility.yul\":10050:10121   */\n      tag_245\n      jump\t// in\n    tag_322:\n        /* \"#utility.yul\":10131:10203   */\n      tag_323\n        /* \"#utility.yul\":10199:10201   */\n      0x20\n        /* \"#utility.yul\":10188:10197   */\n      dup4\n        /* \"#utility.yul\":10184:10202   */\n      add\n        /* \"#utility.yul\":10175:10181   */\n      dup5\n        /* \"#utility.yul\":10131:10203   */\n      tag_303\n      jump\t// in\n    tag_323:\n        /* \"#utility.yul\":9878:10210   */\n      swap4\n      swap3\n      pop\n      pop\n      pop\n      jump\t// out\n        /* \"#utility.yul\":10216:10658   */\n    tag_96:\n        /* \"#utility.yul\":10365:10369   */\n      0x00\n        /* \"#utility.yul\":10403:10405   */\n      0x60\n        /* \"#utility.yul\":10392:10401   */\n      dup3\n        /* \"#utility.yul\":10388:10406   */\n      add\n        /* \"#utility.yul\":10380:10406   */\n      swap1\n      pop\n        /* \"#utility.yul\":10416:10487   */\n      tag_325\n        /* \"#utility.yul\":10484:10485   */\n      0x00\n        /* \"#utility.yul\":10473:10482   */\n      dup4\n        /* \"#utility.yul\":10469:10486   */\n      add\n        /* \"#utility.yul\":10460:10466   */\n      dup7\n        /* \"#utility.yul\":10416:10487   */\n      tag_245\n      jump\t// in\n    tag_325:\n        /* \"#utility.yul\":10497:10569   */\n      tag_326\n        /* \"#utility.yul\":10565:10567   */\n      0x20\n        /* \"#utility.yul\":10554:10563   */\n      dup4\n        /* \"#utility.yul\":10550:10568   */\n      add\n        /* \"#utility.yul\":10541:10547   */\n      dup6\n        /* \"#utility.yul\":10497:10569   */\n      tag_303\n      jump\t// in\n    tag_326:\n        /* \"#utility.yul\":10579:10651   */\n      tag_327\n        /* \"#utility.yul\":10647:10649   */\n      0x40\n        /* \"#utility.yul\":10636:10645   */\n      dup4\n        /* \"#utility.yul\":10632:10650   */\n      add\n        /* \"#utility.yul\":10623:10629   */\n      dup5\n        /* \"#utility.yul\":10579:10651   */\n      tag_303\n      jump\t// in\n    tag_327:\n        /* \"#utility.yul\":10216:10658   */\n      swap5\n      swap4\n      pop\n      pop\n      pop\n      pop\n      jump\t// out\n        /* \"#utility.yul\":10664:11083   */\n    tag_143:\n        /* \"#utility.yul\":10830:10834   */\n      0x00\n        /* \"#utility.yul\":10868:10870   */\n      0x20\n        /* \"#utility.yul\":10857:10866   */\n      dup3\n        /* \"#utility.yul\":10853:10871   */\n      add\n        /* \"#utility.yul\":10845:10871   */\n      swap1\n      pop\n        /* \"#utility.yul\":10917:10926   */\n      dup2\n        /* \"#utility.yul\":10911:10915   */\n      dup2\n        /* \"#utility.yul\":10907:10927   */\n      sub\n        /* \"#utility.yul\":10903:10904   */\n      0x00\n        /* \"#utility.yul\":10892:10901   */\n      dup4\n        /* \"#utility.yul\":10888:10905   */\n      add\n        /* \"#utility.yul\":10881:10928   */\n      mstore\n        /* \"#utility.yul\":10945:11076   */\n      tag_329\n        /* \"#utility.yul\":11071:11075   */\n      dup2\n        /* \"#utility.yul\":10945:11076   */\n      tag_257\n      jump\t// in\n    tag_329:\n        /* \"#utility.yul\":10937:11076   */\n      swap1\n      pop\n        /* \"#utility.yul\":10664:11083   */\n      swap2\n      swap1\n      pop\n      jump\t// out\n        /* \"#utility.yul\":11089:11508   */\n    tag_68:\n        /* \"#utility.yul\":11255:11259   */\n      0x00\n        /* \"#utility.yul\":11293:11295   */\n      0x20\n        /* \"#utility.yul\":11282:11291   */\n      dup3\n        /* \"#utility.yul\":11278:11296   */\n      add\n        /* \"#utility.yul\":11270:11296   */\n      swap1\n      pop\n        /* \"#utility.yul\":11342:11351   */\n      dup2\n        /* \"#utility.yul\":11336:11340   */\n      dup2\n        /* \"#utility.yul\":11332:11352   */\n      sub\n        /* \"#utility.yul\":11328:11329   */\n      0x00\n        /* \"#utility.yul\":11317:11326   */\n      dup4\n        /* \"#utility.yul\":11313:11330   */\n      add\n        /* \"#utility.yul\":11306:11353   */\n      mstore\n        /* \"#utility.yul\":11370:11501   */\n      tag_331\n        /* \"#utility.yul\":11496:11500   */\n      dup2\n        /* \"#utility.yul\":11370:11501   */\n      tag_263\n      jump\t// in\n    tag_331:\n        /* \"#utility.yul\":11362:11501   */\n      swap1\n      pop\n        /* \"#utility.yul\":11089:11508   */\n      swap2\n      swap1\n      pop\n      jump\t// out\n        /* \"#utility.yul\":11514:11933   */\n    tag_166:\n        /* \"#utility.yul\":11680:11684   */\n      0x00\n        /* \"#utility.yul\":11718:11720   */\n      0x20\n        /* \"#utility.yul\":11707:11716   */\n      dup3\n        /* \"#utility.yul\":11703:11721   */\n      add\n        /* \"#utility.yul\":11695:11721   */\n      swap1\n      pop\n        /* \"#utility.yul\":11767:11776   */\n      dup2\n        /* \"#utility.yul\":11761:11765   */\n      dup2\n        /* \"#utility.yul\":11757:11777   */\n      sub\n        /* \"#utility.yul\":11753:11754   */\n      0x00\n        /* \"#utility.yul\":11742:11751   */\n      dup4\n        /* \"#utility.yul\":11738:11755   */\n      add\n        /* \"#utility.yul\":11731:11778   */\n      mstore\n        /* \"#utility.yul\":11795:11926   */\n      tag_333\n        /* \"#utility.yul\":11921:11925   */\n      dup2\n        /* \"#utility.yul\":11795:11926   */\n      tag_268\n      jump\t// in\n    tag_333:\n        /* \"#utility.yul\":11787:11926   */\n      swap1\n      pop\n        /* \"#utility.yul\":11514:11933   */\n      swap2\n      swap1\n      pop\n      jump\t// out\n        /* \"#utility.yul\":11939:12358   */\n    tag_140:\n        /* \"#utility.yul\":12105:12109   */\n      0x00\n        /* \"#utility.yul\":12143:12145   */\n      0x20\n        /* \"#utility.yul\":12132:12141   */\n      dup3\n        /* \"#utility.yul\":12128:12146   */\n      add\n        /* \"#utility.yul\":12120:12146   */\n      swap1\n      pop\n        /* \"#utility.yul\":12192:12201   */\n      dup2\n        /* \"#utility.yul\":12186:12190   */\n      dup2\n        /* \"#utility.yul\":12182:12202   */\n      sub\n        /* \"#utility.yul\":12178:12179   */\n      0x00\n        /* \"#utility.yul\":12167:12176   */\n      dup4\n        /* \"#utility.yul\":12163:12180   */\n      add\n        /* \"#utility.yul\":12156:12203   */\n      mstore\n        /* \"#utility.yul\":12220:12351   */\n      tag_335\n        /* \"#utility.yul\":12346:12350   */\n      dup2\n        /* \"#utility.yul\":12220:12351   */\n      tag_273\n      jump\t// in\n    tag_335:\n        /* \"#utility.yul\":12212:12351   */\n      swap1\n      pop\n        /* \"#utility.yul\":11939:12358   */\n      swap2\n      swap1\n      pop\n      jump\t// out\n        /* \"#utility.yul\":12364:12783   */\n    tag_65:\n        /* \"#utility.yul\":12530:12534   */\n      0x00\n        /* \"#utility.yul\":12568:12570   */\n      0x20\n        /* \"#utility.yul\":12557:12566   */\n      dup3\n        /* \"#utility.yul\":12553:12571   */\n      add\n        /* \"#utility.yul\":12545:12571   */\n      swap1\n      pop\n        /* \"#utility.yul\":12617:12626   */\n      dup2\n        /* \"#utility.yul\":12611:12615   */\n      dup2\n        /* \"#utility.yul\":12607:12627   */\n      sub\n        /* \"#utility.yul\":12603:12604   */\n      0x00\n        /* \"#utility.yul\":12592:12601   */\n      dup4\n        /* \"#utility.yul\":12588:12605   */\n      add\n        /* \"#utility.yul\":12581:12628   */\n      mstore\n        /* \"#utility.yul\":12645:12776   */\n      tag_337\n        /* \"#utility.yul\":12771:12775   */\n      dup2\n        /* \"#utility.yul\":12645:12776   */\n      tag_278\n      jump\t// in\n    tag_337:\n        /* \"#utility.yul\":12637:12776   */\n      swap1\n      pop\n        /* \"#utility.yul\":12364:12783   */\n      swap2\n      swap1\n      pop\n      jump\t// out\n        /* \"#utility.yul\":12789:13208   */\n    tag_169:\n        /* \"#utility.yul\":12955:12959   */\n      0x00\n        /* \"#utility.yul\":12993:12995   */\n      0x20\n        /* \"#utility.yul\":12982:12991   */\n      dup3\n        /* \"#utility.yul\":12978:12996   */\n      add\n        /* \"#utility.yul\":12970:12996   */\n      swap1\n      pop\n        /* \"#utility.yul\":13042:13051   */\n      dup2\n        /* \"#utility.yul\":13036:13040   */\n      dup2\n        /* \"#utility.yul\":13032:13052   */\n      sub\n        /* \"#utility.yul\":13028:13029   */\n      0x00\n        /* \"#utility.yul\":13017:13026   */\n      dup4\n        /* \"#utility.yul\":13013:13030   */\n      add\n        /* \"#utility.yul\":13006:13053   */\n      mstore\n        /* \"#utility.yul\":13070:13201   */\n      tag_339\n        /* \"#utility.yul\":13196:13200   */\n      dup2\n        /* \"#utility.yul\":13070:13201   */\n      tag_283\n      jump\t// in\n    tag_339:\n        /* \"#utility.yul\":13062:13201   */\n      swap1\n      pop\n        /* \"#utility.yul\":12789:13208   */\n      swap2\n      swap1\n      pop\n      jump\t// out\n        /* \"#utility.yul\":13214:13633   */\n    tag_137:\n        /* \"#utility.yul\":13380:13384   */\n      0x00\n        /* \"#utility.yul\":13418:13420   */\n      0x20\n        /* \"#utility.yul\":13407:13416   */\n      dup3\n        /* \"#utility.yul\":13403:13421   */\n      add\n        /* \"#utility.yul\":13395:13421   */\n      swap1\n      pop\n        /* \"#utility.yul\":13467:13476   */\n      dup2\n        /* \"#utility.yul\":13461:13465   */\n      dup2\n        /* \"#utility.yul\":13457:13477   */\n      sub\n        /* \"#utility.yul\":13453:13454   */\n      0x00\n        /* \"#utility.yul\":13442:13451   */\n      dup4\n        /* \"#utility.yul\":13438:13455   */\n      add\n        /* \"#utility.yul\":13431:13478   */\n      mstore\n        /* \"#utility.yul\":13495:13626   */\n      tag_341\n        /* \"#utility.yul\":13621:13625   */\n      dup2\n        /* \"#utility.yul\":13495:13626   */\n      tag_288\n      jump\t// in\n    tag_341:\n        /* \"#utility.yul\":13487:13626   */\n      swap1\n      pop\n        /* \"#utility.yul\":13214:13633   */\n      swap2\n      swap1\n      pop\n      jump\t// out\n        /* \"#utility.yul\":13639:14058   */\n    tag_71:\n        /* \"#utility.yul\":13805:13809   */\n      0x00\n        /* \"#utility.yul\":13843:13845   */\n      0x20\n        /* \"#utility.yul\":13832:13841   */\n      dup3\n        /* \"#utility.yul\":13828:13846   */\n      add\n        /* \"#utility.yul\":13820:13846   */\n      swap1\n      pop\n        /* \"#utility.yul\":13892:13901   */\n      dup2\n        /* \"#utility.yul\":13886:13890   */\n      dup2\n        /* \"#utility.yul\":13882:13902   */\n      sub\n        /* \"#utility.yul\":13878:13879   */\n      0x00\n        /* \"#utility.yul\":13867:13876   */\n      dup4\n        /* \"#utility.yul\":13863:13880   */\n      add\n        /* \"#utility.yul\":13856:13903   */\n      mstore\n        /* \"#utility.yul\":13920:14051   */\n      tag_343\n        /* \"#utility.yul\":14046:14050   */\n      dup2\n        /* \"#utility.yul\":13920:14051   */\n      tag_293\n      jump\t// in\n    tag_343:\n        /* \"#utility.yul\":13912:14051   */\n      swap1\n      pop\n        /* \"#utility.yul\":13639:14058   */\n      swap2\n      swap1\n      pop\n      jump\t// out\n        /* \"#utility.yul\":14064:14483   */\n    tag_152:\n        /* \"#utility.yul\":14230:14234   */\n      0x00\n        /* \"#utility.yul\":14268:14270   */\n      0x20\n        /* \"#utility.yul\":14257:14266   */\n      dup3\n        /* \"#utility.yul\":14253:14271   */\n      add\n        /* \"#utility.yul\":14245:14271   */\n      swap1\n      pop\n        /* \"#utility.yul\":14317:14326   */\n      dup2\n        /* \"#utility.yul\":14311:14315   */\n      dup2\n        /* \"#utility.yul\":14307:14327   */\n      sub\n        /* \"#utility.yul\":14303:14304   */\n      0x00\n        /* \"#utility.yul\":14292:14301   */\n      dup4\n        /* \"#utility.yul\":14288:14305   */\n      add\n        /* \"#utility.yul\":14281:14328   */\n      mstore\n        /* \"#utility.yul\":14345:14476   */\n      tag_345\n        /* \"#utility.yul\":14471:14475   */\n      dup2\n        /* \"#utility.yul\":14345:14476   */\n      tag_298\n      jump\t// in\n    tag_345:\n        /* \"#utility.yul\":14337:14476   */\n      swap1\n      pop\n        /* \"#utility.yul\":14064:14483   */\n      swap2\n      swap1\n      pop\n      jump\t// out\n        /* \"#utility.yul\":14489:14711   */\n    tag_24:\n        /* \"#utility.yul\":14582:14586   */\n      0x00\n        /* \"#utility.yul\":14620:14622   */\n      0x20\n        /* \"#utility.yul\":14609:14618   */\n      dup3\n        /* \"#utility.yul\":14605:14623   */\n      add\n        /* \"#utility.yul\":14597:14623   */\n      swap1\n      pop\n        /* \"#utility.yul\":14633:14704   */\n      tag_347\n        /* \"#utility.yul\":14701:14702   */\n      0x00\n        /* \"#utility.yul\":14690:14699   */\n      dup4\n        /* \"#utility.yul\":14686:14703   */\n      add\n        /* \"#utility.yul\":14677:14683   */\n      dup5\n        /* \"#utility.yul\":14633:14704   */\n      tag_303\n      jump\t// in\n    tag_347:\n        /* \"#utility.yul\":14489:14711   */\n      swap3\n      swap2\n      pop\n      pop\n      jump\t// out\n        /* \"#utility.yul\":14717:15049   */\n    tag_179:\n        /* \"#utility.yul\":14838:14842   */\n      0x00\n        /* \"#utility.yul\":14876:14878   */\n      0x40\n        /* \"#utility.yul\":14865:14874   */\n      dup3\n        /* \"#utility.yul\":14861:14879   */\n      add\n        /* \"#utility.yul\":14853:14879   */\n      swap1\n      pop\n        /* \"#utility.yul\":14889:14960   */\n      tag_349\n        /* \"#utility.yul\":14957:14958   */\n      0x00\n        /* \"#utility.yul\":14946:14955   */\n      dup4\n        /* \"#utility.yul\":14942:14959   */\n      add\n        /* \"#utility.yul\":14933:14939   */\n      dup6\n        /* \"#utility.yul\":14889:14960   */\n      tag_303\n      jump\t// in\n    tag_349:\n        /* \"#utility.yul\":14970:15042   */\n      tag_350\n        /* \"#utility.yul\":15038:15040   */\n      0x20\n        /* \"#utility.yul\":15027:15036   */\n      dup4\n        /* \"#utility.yul\":15023:15041   */\n      add\n        /* \"#utility.yul\":15014:15020   */\n      dup5\n        /* \"#utility.yul\":14970:15042   */\n      tag_303\n      jump\t// in\n    tag_350:\n        /* \"#utility.yul\":14717:15049   */\n      swap4\n      swap3\n      pop\n      pop\n      pop\n      jump\t// out\n        /* \"#utility.yul\":15136:15305   */\n    tag_260:\n        /* \"#utility.yul\":15220:15231   */\n      0x00\n        /* \"#utility.yul\":15254:15260   */\n      dup3\n        /* \"#utility.yul\":15249:15252   */\n      dup3\n        /* \"#utility.yul\":15242:15261   */\n      mstore\n        /* \"#utility.yul\":15294:15298   */\n      0x20\n        /* \"#utility.yul\":15289:15292   */\n      dup3\n        /* \"#utility.yul\":15285:15299   */\n      add\n        /* \"#utility.yul\":15270:15299   */\n      swap1\n      pop\n        /* \"#utility.yul\":15136:15305   */\n      swap3\n      swap2\n      pop\n      pop\n      jump\t// out\n        /* \"#utility.yul\":15311:15616   */\n    tag_146:\n        /* \"#utility.yul\":15351:15354   */\n      0x00\n        /* \"#utility.yul\":15370:15390   */\n      tag_355\n        /* \"#utility.yul\":15388:15389   */\n      dup3\n        /* \"#utility.yul\":15370:15390   */\n      tag_306\n      jump\t// in\n    tag_355:\n        /* \"#utility.yul\":15365:15390   */\n      swap2\n      pop\n        /* \"#utility.yul\":15404:15424   */\n      tag_356\n        /* \"#utility.yul\":15422:15423   */\n      dup4\n        /* \"#utility.yul\":15404:15424   */\n      tag_306\n      jump\t// in\n    tag_356:\n        /* \"#utility.yul\":15399:15424   */\n      swap3\n      pop\n        /* \"#utility.yul\":15558:15559   */\n      dup3\n        /* \"#utility.yul\":15490:15556   */\n      0xffffffffffffffffffffffffffffffffffffffffffffffffffffffffffffffff\n        /* \"#utility.yul\":15486:15560   */\n      sub\n        /* \"#utility.yul\":15483:15484   */\n      dup3\n        /* \"#utility.yul\":15480:15561   */\n      gt\n        /* \"#utility.yul\":15477:15584   */\n      iszero\n      tag_357\n      jumpi\n        /* \"#utility.yul\":15564:15582   */\n      tag_358\n      tag_359\n      jump\t// in\n    tag_358:\n        /* \"#utility.yul\":15477:15584   */\n    tag_357:\n        /* \"#utility.yul\":15608:15609   */\n      dup3\n        /* \"#utility.yul\":15605:15606   */\n      dup3\n        /* \"#utility.yul\":15601:15610   */\n      add\n        /* \"#utility.yul\":15594:15610   */\n      swap1\n      pop\n        /* \"#utility.yul\":15311:15616   */\n      swap3\n      swap2\n      pop\n      pop\n      jump\t// out\n        /* \"#utility.yul\":15622:15807   */\n    tag_79:\n        /* \"#utility.yul\":15662:15663   */\n      0x00\n        /* \"#utility.yul\":15679:15699   */\n      tag_361\n        /* \"#utility.yul\":15697:15698   */\n      dup3\n        /* \"#utility.yul\":15679:15699   */\n      tag_306\n      jump\t// in\n    tag_361:\n        /* \"#utility.yul\":15674:15699   */\n      swap2\n      pop\n        /* \"#utility.yul\":15713:15733   */\n      tag_362\n        /* \"#utility.yul\":15731:15732   */\n      dup4\n        /* \"#utility.yul\":15713:15733   */\n      tag_306\n      jump\t// in\n    tag_362:\n        /* \"#utility.yul\":15708:15733   */\n      swap3\n      pop\n        /* \"#utility.yul\":15752:15753   */\n      dup3\n        /* \"#utility.yul\":15742:15777   */\n      tag_363\n      jumpi\n        /* \"#utility.yul\":15757:15775   */\n      tag_364\n      tag_365\n      jump\t// in\n    tag_364:\n        /* \"#utility.yul\":15742:15777   */\n    tag_363:\n        /* \"#utility.yul\":15799:15800   */\n      dup3\n        /* \"#utility.yul\":15796:15797   */\n      dup3\n        /* \"#utility.yul\":15792:15801   */\n      div\n        /* \"#utility.yul\":15787:15801   */\n      swap1\n      pop\n        /* \"#utility.yul\":15622:15807   */\n      swap3\n      swap2\n      pop\n      pop\n      jump\t// out\n        /* \"#utility.yul\":15813:16161   */\n    tag_176:\n        /* \"#utility.yul\":15853:15860   */\n      0x00\n        /* \"#utility.yul\":15876:15896   */\n      tag_367\n        /* \"#utility.yul\":15894:15895   */\n      dup3\n        /* \"#utility.yul\":15876:15896   */\n      tag_306\n      jump\t// in\n    tag_367:\n        /* \"#utility.yul\":15871:15896   */\n      swap2\n      pop\n        /* \"#utility.yul\":15910:15930   */\n      tag_368\n        /* \"#utility.yul\":15928:15929   */\n      dup4\n        /* \"#utility.yul\":15910:15930   */\n      tag_306\n      jump\t// in\n    tag_368:\n        /* \"#utility.yul\":15905:15930   */\n      swap3\n      pop\n        /* \"#utility.yul\":16098:16099   */\n      dup2\n        /* \"#utility.yul\":16030:16096   */\n      0xffffffffffffffffffffffffffffffffffffffffffffffffffffffffffffffff\n        /* \"#utility.yul\":16026:16100   */\n      div\n        /* \"#utility.yul\":16023:16024   */\n      dup4\n        /* \"#utility.yul\":16020:16101   */\n      gt\n        /* \"#utility.yul\":16015:16016   */\n      dup3\n        /* \"#utility.yul\":16008:16017   */\n      iszero\n        /* \"#utility.yul\":16001:16018   */\n      iszero\n        /* \"#utility.yul\":15997:16102   */\n      and\n        /* \"#utility.yul\":15994:16125   */\n      iszero\n      tag_369\n      jumpi\n        /* \"#utility.yul\":16105:16123   */\n      tag_370\n      tag_359\n      jump\t// in\n    tag_370:\n        /* \"#utility.yul\":15994:16125   */\n    tag_369:\n        /* \"#utility.yul\":16153:16154   */\n      dup3\n        /* \"#utility.yul\":16150:16151   */\n      dup3\n        /* \"#utility.yul\":16146:16155   */\n      mul\n        /* \"#utility.yul\":16135:16155   */\n      swap1\n      pop\n        /* \"#utility.yul\":15813:16161   */\n      swap3\n      swap2\n      pop\n      pop\n      jump\t// out\n        /* \"#utility.yul\":16167:16358   */\n    tag_81:\n        /* \"#utility.yul\":16207:16211   */\n      0x00\n        /* \"#utility.yul\":16227:16247   */\n      tag_372\n        /* \"#utility.yul\":16245:16246   */\n      dup3\n        /* \"#utility.yul\":16227:16247   */\n      tag_306\n      jump\t// in\n    tag_372:\n        /* \"#utility.yul\":16222:16247   */\n      swap2\n      pop\n        /* \"#utility.yul\":16261:16281   */\n      tag_373\n        /* \"#utility.yul\":16279:16280   */\n      dup4\n        /* \"#utility.yul\":16261:16281   */\n      tag_306\n      jump\t// in\n    tag_373:\n        /* \"#utility.yul\":16256:16281   */\n      swap3\n      pop\n        /* \"#utility.yul\":16300:16301   */\n      dup3\n        /* \"#utility.yul\":16297:16298   */\n      dup3\n        /* \"#utility.yul\":16294:16302   */\n      lt\n        /* \"#utility.yul\":16291:16325   */\n      iszero\n      tag_374\n      jumpi\n        /* \"#utility.yul\":16305:16323   */\n      tag_375\n      tag_359\n      jump\t// in\n    tag_375:\n        /* \"#utility.yul\":16291:16325   */\n    tag_374:\n        /* \"#utility.yul\":16350:16351   */\n      dup3\n        /* \"#utility.yul\":16347:16348   */\n      dup3\n        /* \"#utility.yul\":16343:16352   */\n      sub\n        /* \"#utility.yul\":16335:16352   */\n      swap1\n      pop\n        /* \"#utility.yul\":16167:16358   */\n      swap3\n      swap2\n      pop\n      pop\n      jump\t// out\n        /* \"#utility.yul\":16364:16460   */\n    tag_248:\n        /* \"#utility.yul\":16401:16408   */\n      0x00\n        /* \"#utility.yul\":16430:16454   */\n      tag_377\n        /* \"#utility.yul\":16448:16453   */\n      dup3\n        /* \"#utility.yul\":16430:16454   */\n      tag_378\n      jump\t// in\n    tag_377:\n        /* \"#utility.yul\":16419:16454   */\n      swap1\n      pop\n        /* \"#utility.yul\":16364:16460   */\n      swap2\n      swap1\n      pop\n      jump\t// out\n        /* \"#utility.yul\":16466:16556   */\n    tag_252:\n        /* \"#utility.yul\":16500:16507   */\n      0x00\n        /* \"#utility.yul\":16543:16548   */\n      dup2\n        /* \"#utility.yul\":16536:16549   */\n      iszero\n        /* \"#utility.yul\":16529:16550   */\n      iszero\n        /* \"#utility.yul\":16518:16550   */\n      swap1\n      pop\n        /* \"#utility.yul\":16466:16556   */\n      swap2\n      swap1\n      pop\n      jump\t// out\n        /* \"#utility.yul\":16562:16688   */\n    tag_378:\n        /* \"#utility.yul\":16599:16606   */\n      0x00\n        /* \"#utility.yul\":16639:16681   */\n      0xffffffffffffffffffffffffffffffffffffffff\n        /* \"#utility.yul\":16632:16637   */\n      dup3\n        /* \"#utility.yul\":16628:16682   */\n      and\n        /* \"#utility.yul\":16617:16682   */\n      swap1\n      pop\n        /* \"#utility.yul\":16562:16688   */\n      swap2\n      swap1\n      pop\n      jump\t// out\n        /* \"#utility.yul\":16694:16771   */\n    tag_306:\n        /* \"#utility.yul\":16731:16738   */\n      0x00\n        /* \"#utility.yul\":16760:16765   */\n      dup2\n        /* \"#utility.yul\":16749:16765   */\n      swap1\n      pop\n        /* \"#utility.yul\":16694:16771   */\n      swap2\n      swap1\n      pop\n      jump\t// out\n        /* \"#utility.yul\":16777:16916   */\n    tag_256:\n        /* \"#utility.yul\":16840:16849   */\n      0x00\n        /* \"#utility.yul\":16873:16910   */\n      tag_383\n        /* \"#utility.yul\":16904:16909   */\n      dup3\n        /* \"#utility.yul\":16873:16910   */\n      tag_384\n      jump\t// in\n    tag_383:\n        /* \"#utility.yul\":16860:16910   */\n      swap1\n      pop\n        /* \"#utility.yul\":16777:16916   */\n      swap2\n      swap1\n      pop\n      jump\t// out\n        /* \"#utility.yul\":16922:17048   */\n    tag_384:\n        /* \"#utility.yul\":16972:16981   */\n      0x00\n        /* \"#utility.yul\":17005:17042   */\n      tag_386\n        /* \"#utility.yul\":17036:17041   */\n      dup3\n        /* \"#utility.yul\":17005:17042   */\n      tag_387\n      jump\t// in\n    tag_386:\n        /* \"#utility.yul\":16992:17042   */\n      swap1\n      pop\n        /* \"#utility.yul\":16922:17048   */\n      swap2\n      swap1\n      pop\n      jump\t// out\n        /* \"#utility.yul\":17054:17167   */\n    tag_387:\n        /* \"#utility.yul\":17104:17113   */\n      0x00\n        /* \"#utility.yul\":17137:17161   */\n      tag_389\n        /* \"#utility.yul\":17155:17160   */\n      dup3\n        /* \"#utility.yul\":17137:17161   */\n      tag_378\n      jump\t// in\n    tag_389:\n        /* \"#utility.yul\":17124:17161   */\n      swap1\n      pop\n        /* \"#utility.yul\":17054:17167   */\n      swap2\n      swap1\n      pop\n      jump\t// out\n        /* \"#utility.yul\":17173:17406   */\n    tag_120:\n        /* \"#utility.yul\":17212:17215   */\n      0x00\n        /* \"#utility.yul\":17235:17259   */\n      tag_391\n        /* \"#utility.yul\":17253:17258   */\n      dup3\n        /* \"#utility.yul\":17235:17259   */\n      tag_306\n      jump\t// in\n    tag_391:\n        /* \"#utility.yul\":17226:17259   */\n      swap2\n      pop\n        /* \"#utility.yul\":17281:17347   */\n      0xffffffffffffffffffffffffffffffffffffffffffffffffffffffffffffffff\n        /* \"#utility.yul\":17274:17279   */\n      dup3\n        /* \"#utility.yul\":17271:17348   */\n      eq\n        /* \"#utility.yul\":17268:17371   */\n      iszero\n      tag_392\n      jumpi\n        /* \"#utility.yul\":17351:17369   */\n      tag_393\n      tag_359\n      jump\t// in\n    tag_393:\n        /* \"#utility.yul\":17268:17371   */\n    tag_392:\n        /* \"#utility.yul\":17398:17399   */\n      0x01\n        /* \"#utility.yul\":17391:17396   */\n      dup3\n        /* \"#utility.yul\":17387:17400   */\n      add\n        /* \"#utility.yul\":17380:17400   */\n      swap1\n      pop\n        /* \"#utility.yul\":17173:17406   */\n      swap2\n      swap1\n      pop\n      jump\t// out\n        /* \"#utility.yul\":17412:17592   */\n    tag_359:\n        /* \"#utility.yul\":17460:17537   */\n      0x4e487b7100000000000000000000000000000000000000000000000000000000\n        /* \"#utility.yul\":17457:17458   */\n      0x00\n        /* \"#utility.yul\":17450:17538   */\n      mstore\n        /* \"#utility.yul\":17557:17561   */\n      0x11\n        /* \"#utility.yul\":17554:17555   */\n      0x04\n        /* \"#utility.yul\":17547:17562   */\n      mstore\n        /* \"#utility.yul\":17581:17585   */\n      0x24\n        /* \"#utility.yul\":17578:17579   */\n      0x00\n        /* \"#utility.yul\":17571:17586   */\n      revert\n        /* \"#utility.yul\":17598:17778   */\n    tag_365:\n        /* \"#utility.yul\":17646:17723   */\n      0x4e487b7100000000000000000000000000000000000000000000000000000000\n        /* \"#utility.yul\":17643:17644   */\n      0x00\n        /* \"#utility.yul\":17636:17724   */\n      mstore\n        /* \"#utility.yul\":17743:17747   */\n      0x12\n        /* \"#utility.yul\":17740:17741   */\n      0x04\n        /* \"#utility.yul\":17733:17748   */\n      mstore\n        /* \"#utility.yul\":17767:17771   */\n      0x24\n        /* \"#utility.yul\":17764:17765   */\n      0x00\n        /* \"#utility.yul\":17757:17772   */\n      revert\n        /* \"#utility.yul\":17907:18024   */\n    tag_209:\n        /* \"#utility.yul\":18016:18017   */\n      0x00\n        /* \"#utility.yul\":18013:18014   */\n      dup1\n        /* \"#utility.yul\":18006:18018   */\n      revert\n        /* \"#utility.yul\":18030:18190   */\n    tag_262:\n        /* \"#utility.yul\":18170:18182   */\n      0x4c6f776572206269642100000000000000000000000000000000000000000000\n        /* \"#utility.yul\":18166:18167   */\n      0x00\n        /* \"#utility.yul\":18158:18164   */\n      dup3\n        /* \"#utility.yul\":18154:18168   */\n      add\n        /* \"#utility.yul\":18147:18183   */\n      mstore\n        /* \"#utility.yul\":18030:18190   */\n      pop\n      jump\t// out\n        /* \"#utility.yul\":18196:18371   */\n    tag_267:\n        /* \"#utility.yul\":18336:18363   */\n      0x41756374696f6e206973207374696c6c206f6e676f696e672100000000000000\n        /* \"#utility.yul\":18332:18333   */\n      0x00\n        /* \"#utility.yul\":18324:18330   */\n      dup3\n        /* \"#utility.yul\":18320:18334   */\n      add\n        /* \"#utility.yul\":18313:18364   */\n      mstore\n        /* \"#utility.yul\":18196:18371   */\n      pop\n      jump\t// out\n        /* \"#utility.yul\":18377:18543   */\n    tag_272:\n        /* \"#utility.yul\":18517:18535   */\n      0x416c726561647920737461727465642100000000000000000000000000000000\n        /* \"#utility.yul\":18513:18514   */\n      0x00\n        /* \"#utility.yul\":18505:18511   */\n      dup3\n        /* \"#utility.yul\":18501:18515   */\n      add\n        /* \"#utility.yul\":18494:18536   */\n      mstore\n        /* \"#utility.yul\":18377:18543   */\n      pop\n      jump\t// out\n        /* \"#utility.yul\":18549:18705   */\n    tag_277:\n        /* \"#utility.yul\":18689:18697   */\n      0x456e646564210000000000000000000000000000000000000000000000000000\n        /* \"#utility.yul\":18685:18686   */\n      0x00\n        /* \"#utility.yul\":18677:18683   */\n      dup3\n        /* \"#utility.yul\":18673:18687   */\n      add\n        /* \"#utility.yul\":18666:18698   */\n      mstore\n        /* \"#utility.yul\":18549:18705   */\n      pop\n      jump\t// out\n        /* \"#utility.yul\":18711:18885   */\n    tag_282:\n        /* \"#utility.yul\":18851:18877   */\n      0x596f75206e65656420746f207374617274206669727374210000000000000000\n        /* \"#utility.yul\":18847:18848   */\n      0x00\n        /* \"#utility.yul\":18839:18845   */\n      dup3\n        /* \"#utility.yul\":18835:18849   */\n      add\n        /* \"#utility.yul\":18828:18878   */\n      mstore\n        /* \"#utility.yul\":18711:18885   */\n      pop\n      jump\t// out\n        /* \"#utility.yul\":18891:19071   */\n    tag_287:\n        /* \"#utility.yul\":19031:19063   */\n      0x596f752063616e206e6f74207374617274207468652061756374696f6e210000\n        /* \"#utility.yul\":19027:19028   */\n      0x00\n        /* \"#utility.yul\":19019:19025   */\n      dup3\n        /* \"#utility.yul\":19015:19029   */\n      add\n        /* \"#utility.yul\":19008:19064   */\n      mstore\n        /* \"#utility.yul\":18891:19071   */\n      pop\n      jump\t// out\n        /* \"#utility.yul\":19077:19239   */\n    tag_292:\n        /* \"#utility.yul\":19217:19231   */\n      0x4e6f7420737461727465642e0000000000000000000000000000000000000000\n        /* \"#utility.yul\":19213:19214   */\n      0x00\n        /* \"#utility.yul\":19205:19211   */\n      dup3\n        /* \"#utility.yul\":19201:19215   */\n      add\n        /* \"#utility.yul\":19194:19232   */\n      mstore\n        /* \"#utility.yul\":19077:19239   */\n      pop\n      jump\t// out\n        /* \"#utility.yul\":19245:19417   */\n    tag_297:\n        /* \"#utility.yul\":19385:19409   */\n      0x41756374696f6e20616c726561647920656e6465642100000000000000000000\n        /* \"#utility.yul\":19381:19382   */\n      0x00\n        /* \"#utility.yul\":19373:19379   */\n      dup3\n        /* \"#utility.yul\":19369:19383   */\n      add\n        /* \"#utility.yul\":19362:19410   */\n      mstore\n        /* \"#utility.yul\":19245:19417   */\n      pop\n      jump\t// out\n        /* \"#utility.yul\":19423:19591   */\n    tag_302:\n        /* \"#utility.yul\":19563:19583   */\n      0x436f756c64206e6f742077697468647261770000000000000000000000000000\n        /* \"#utility.yul\":19559:19560   */\n      0x00\n        /* \"#utility.yul\":19551:19557   */\n      dup3\n        /* \"#utility.yul\":19547:19561   */\n      add\n        /* \"#utility.yul\":19540:19584   */\n      mstore\n        /* \"#utility.yul\":19423:19591   */\n      pop\n      jump\t// out\n        /* \"#utility.yul\":19597:19719   */\n    tag_195:\n        /* \"#utility.yul\":19670:19694   */\n      tag_409\n        /* \"#utility.yul\":19688:19693   */\n      dup2\n        /* \"#utility.yul\":19670:19694   */\n      tag_248\n      jump\t// in\n    tag_409:\n        /* \"#utility.yul\":19663:19668   */\n      dup2\n        /* \"#utility.yul\":19660:19695   */\n      eq\n        /* \"#utility.yul\":19650:19713   */\n      tag_410\n      jumpi\n        /* \"#utility.yul\":19709:19710   */\n      0x00\n        /* \"#utility.yul\":19706:19707   */\n      dup1\n        /* \"#utility.yul\":19699:19711   */\n      revert\n        /* \"#utility.yul\":19650:19713   */\n    tag_410:\n        /* \"#utility.yul\":19597:19719   */\n      pop\n      jump\t// out\n        /* \"#utility.yul\":19725:19847   */\n    tag_202:\n        /* \"#utility.yul\":19798:19822   */\n      tag_412\n        /* \"#utility.yul\":19816:19821   */\n      dup2\n        /* \"#utility.yul\":19798:19822   */\n      tag_306\n      jump\t// in\n    tag_412:\n        /* \"#utility.yul\":19791:19796   */\n      dup2\n        /* \"#utility.yul\":19788:19823   */\n      eq\n        /* \"#utility.yul\":19778:19841   */\n      tag_413\n      jumpi\n        /* \"#utility.yul\":19837:19838   */\n      0x00\n        /* \"#utility.yul\":19834:19835   */\n      dup1\n        /* \"#utility.yul\":19827:19839   */\n      revert\n        /* \"#utility.yul\":19778:19841   */\n    tag_413:\n        /* \"#utility.yul\":19725:19847   */\n      pop\n      jump\t// out\n\n    auxdata: 0xa26469706673582212201b4b13085aad6431186c5861a61fab2deed07484f5751ac14cb6419078f72e5a64736f6c63430008070033\n}\n",
				"bytecode": {
					"linkReferences": {},
					"object": "608060405234801561001057600080fd5b50612351806100206000396000f3fe6080604052600436106100915760003560e01c8063b0651dce11610059578063b0651dce1461015f578063b76a3b5a1461019c578063bd15bf4e146101c5578063f3fef3a314610202578063f48e9b3d1461021e57610091565b8063545c285c1461009657806357354ed1146100bf57806359d667a5146100fc578063699ff43f146101185780637bb98a6814610134575b600080fd5b3480156100a257600080fd5b506100bd60048036038101906100b89190611963565b610261565b005b3480156100cb57600080fd5b506100e660048036038101906100e191906119f6565b610b16565b6040516100f39190611ee8565b60405180910390f35b610116600480360381019061011191906119b6565b610bb1565b005b610132600480360381019061012d91906119f6565b610edc565b005b34801561014057600080fd5b506101496110c2565b6040516101569190611ee8565b60405180910390f35b34801561016b57600080fd5b5061018660048036038101906101819190611a49565b6110c8565b6040516101939190611ee8565b60405180910390f35b3480156101a857600080fd5b506101c360048036038101906101be9190611a9c565b611137565b005b3480156101d157600080fd5b506101ec60048036038101906101e79190611a49565b61153a565b6040516101f99190611ca7565b60405180910390f35b61021c600480360381019061021791906119b6565b6115c9565b005b34801561022a57600080fd5b50610245600480360381019061024091906119b6565b611839565b6040516102589796959493929190611cf9565b60405180910390f35b60008060008473ffffffffffffffffffffffffffffffffffffffff1673ffffffffffffffffffffffffffffffffffffffff1681526020019081526020016000206000838152602001908152602001600020905060008490508160000160149054906101000a900460ff1661030a576040517f08c379a000000000000000000000000000000000000000000000000000000000815260040161030190611e48565b60405180910390fd5b8160010154421015610351576040517f08c379a000000000000000000000000000000000000000000000000000000000815260040161034890611de8565b60405180910390fd5b8160000160159054906101000a900460ff16156103a3576040517f08c379a000000000000000000000000000000000000000000000000000000000815260040161039a90611ea8565b60405180910390fd5b600073ffffffffffffffffffffffffffffffffffffffff168260060160008460040154815260200190815260200160002060009054906101000a900473ffffffffffffffffffffffffffffffffffffffff1673ffffffffffffffffffffffffffffffffffffffff161461098e578160020160009054906101000a900473ffffffffffffffffffffffffffffffffffffffff1673ffffffffffffffffffffffffffffffffffffffff166323b872dd308460060160008660040154815260200190815260200160002060009054906101000a900473ffffffffffffffffffffffffffffffffffffffff1685600301546040518463ffffffff1660e01b81526004016104ae93929190611cc2565b600060405180830381600087803b1580156104c857600080fd5b505af11580156104dc573d6000803e3d6000fd5b505050508160000160009054906101000a900473ffffffffffffffffffffffffffffffffffffffff1673ffffffffffffffffffffffffffffffffffffffff166108fc601484600501600086600401548152602001908152602001600020546105449190611f93565b8460050160008660040154815260200190815260200160002054610568919061201e565b9081150290604051600060405180830381858888f19350505050158015610593573d6000803e3d6000fd5b508073ffffffffffffffffffffffffffffffffffffffff16638da5cb5b6040518163ffffffff1660e01b815260040160206040518083038186803b1580156105da57600080fd5b505afa1580156105ee573d6000803e3d6000fd5b505050506040513d601f19601f820116820180604052508101906106129190611936565b73ffffffffffffffffffffffffffffffffffffffff166108fc601484600501600086600401548152602001908152602001600020546106519190611f93565b9081150290604051600060405180830381858888f1935050505015801561067c573d6000803e3d6000fd5b5060005b60058110156108f357600073ffffffffffffffffffffffffffffffffffffffff168273ffffffffffffffffffffffffffffffffffffffff16632973d6f88787856040518463ffffffff1660e01b81526004016106de93929190611d91565b60206040518083038186803b1580156106f657600080fd5b505afa15801561070a573d6000803e3d6000fd5b505050506040513d601f19601f8201168201806040525081019061072e9190611936565b73ffffffffffffffffffffffffffffffffffffffff16146108db578173ffffffffffffffffffffffffffffffffffffffff16632973d6f88686846040518463ffffffff1660e01b815260040161078693929190611d91565b60206040518083038186803b15801561079e57600080fd5b505afa1580156107b2573d6000803e3d6000fd5b505050506040513d601f19601f820116820180604052508101906107d69190611936565b73ffffffffffffffffffffffffffffffffffffffff166108fc8373ffffffffffffffffffffffffffffffffffffffff1663d178227a88886040518363ffffffff1660e01b815260040161082a929190611d68565b60206040518083038186803b15801561084257600080fd5b505afa158015610856573d6000803e3d6000fd5b505050506040513d601f19601f8201168201806040525081019061087a9190611b03565b601486600501600088600401548152602001908152602001600020546108a09190611f93565b6108aa9190611f93565b9081150290604051600060405180830381858888f193505050501580156108d5573d6000803e3d6000fd5b506108e0565b6108f3565b80806108eb906120d0565b915050610680565b5081600501600083600401548152602001908152602001600020546001600082825461091f919061201e565b9250508190555060005b826004015481101561098857610975858585600601600085815260200190815260200160002060009054906101000a900473ffffffffffffffffffffffffffffffffffffffff16610edc565b8080610980906120d0565b915050610929565b50610a4a565b8160020160009054906101000a900473ffffffffffffffffffffffffffffffffffffffff1673ffffffffffffffffffffffffffffffffffffffff166323b872dd308460000160009054906101000a900473ffffffffffffffffffffffffffffffffffffffff1685600301546040518463ffffffff1660e01b8152600401610a1793929190611cc2565b600060405180830381600087803b158015610a3157600080fd5b505af1158015610a45573d6000803e3d6000fd5b505050505b60018260000160156101000a81548160ff02191690831515021790555060008260000160146101000a81548160ff0219169083151502179055507f7d7570b046e5ead3a4f3fbc9fa2445113625a1e79823776146316bafed6b8cc58260060160008460040154815260200190815260200160002060009054906101000a900473ffffffffffffffffffffffffffffffffffffffff168360050160008560040154815260200190815260200160002054604051610b07929190611d68565b60405180910390a15050505050565b60008060008573ffffffffffffffffffffffffffffffffffffffff1673ffffffffffffffffffffffffffffffffffffffff168152602001908152602001600020600084815260200190815260200160002060070160008373ffffffffffffffffffffffffffffffffffffffff1673ffffffffffffffffffffffffffffffffffffffff1681526020019081526020016000205490509392505050565b60008060008473ffffffffffffffffffffffffffffffffffffffff1673ffffffffffffffffffffffffffffffffffffffff168152602001908152602001600020600083815260200190815260200160002090508060000160149054906101000a900460ff16610c55576040517f08c379a0000000000000000000000000000000000000000000000000000000008152600401610c4c90611e88565b60405180910390fd5b80600101544210610c9b576040517f08c379a0000000000000000000000000000000000000000000000000000000008152600401610c9290611e28565b60405180910390fd5b80600501600082600401548152602001908152602001600020543411610cf6576040517f08c379a0000000000000000000000000000000000000000000000000000000008152600401610ced90611dc8565b60405180910390fd5b348160050160008360040154815260200190815260200160002081905550338160060160008360040154815260200190815260200160002060006101000a81548173ffffffffffffffffffffffffffffffffffffffff021916908373ffffffffffffffffffffffffffffffffffffffff16021790555080600501600082600401548152602001908152602001600020548160070160008360060160008560040154815260200190815260200160002060009054906101000a900473ffffffffffffffffffffffffffffffffffffffff1673ffffffffffffffffffffffffffffffffffffffff1673ffffffffffffffffffffffffffffffffffffffff16815260200190815260200160002081905550806004016000815480929190610e19906120d0565b91905055503460016000828254610e309190611f3d565b925050819055508060060160008260040154815260200190815260200160002060009054906101000a900473ffffffffffffffffffffffffffffffffffffffff1673ffffffffffffffffffffffffffffffffffffffff167fe684a55f31b79eca403df938249029212a5925ec6be8012e099b45bc1019e5d28260050160008460040154815260200190815260200160002054604051610ecf9190611ee8565b60405180910390a2505050565b60008060008573ffffffffffffffffffffffffffffffffffffffff1673ffffffffffffffffffffffffffffffffffffffff1681526020019081526020016000206000848152602001908152602001600020905060008160070160008473ffffffffffffffffffffffffffffffffffffffff1673ffffffffffffffffffffffffffffffffffffffff168152602001908152602001600020549050600081118015610f8757506001548111155b610fc6576040517f08c379a0000000000000000000000000000000000000000000000000000000008152600401610fbd90611ec8565b60405180910390fd5b60008260070160008573ffffffffffffffffffffffffffffffffffffffff1673ffffffffffffffffffffffffffffffffffffffff168152602001908152602001600020819055508273ffffffffffffffffffffffffffffffffffffffff166108fc829081150290604051600060405180830381858888f19350505050158015611053573d6000803e3d6000fd5b508060016000828254611066919061201e565b925050819055508273ffffffffffffffffffffffffffffffffffffffff167f884edad9ce6fa2440d8a54cc123490eb96d2768479d49ff9c7366125a9424364826040516110b39190611ee8565b60405180910390a25050505050565b60015481565b60008060008573ffffffffffffffffffffffffffffffffffffffff1673ffffffffffffffffffffffffffffffffffffffff168152602001908152602001600020600084815260200190815260200160002060050160008381526020019081526020016000205490509392505050565b60008060008673ffffffffffffffffffffffffffffffffffffffff1673ffffffffffffffffffffffffffffffffffffffff16815260200190815260200160002060008581526020019081526020016000209050848160020160006101000a81548173ffffffffffffffffffffffffffffffffffffffff021916908373ffffffffffffffffffffffffffffffffffffffff1602179055508060020160009054906101000a900473ffffffffffffffffffffffffffffffffffffffff1673ffffffffffffffffffffffffffffffffffffffff16636352211e856040518263ffffffff1660e01b815260040161122a9190611ee8565b60206040518083038186803b15801561124257600080fd5b505afa158015611256573d6000803e3d6000fd5b505050506040513d601f19601f8201168201806040525081019061127a9190611936565b8160000160006101000a81548173ffffffffffffffffffffffffffffffffffffffff021916908373ffffffffffffffffffffffffffffffffffffffff16021790555060008160000160156101000a81548160ff0219169083151502179055508060000160149054906101000a900460ff161561132b576040517f08c379a000000000000000000000000000000000000000000000000000000000815260040161132290611e08565b60405180910390fd5b8060000160009054906101000a900473ffffffffffffffffffffffffffffffffffffffff1673ffffffffffffffffffffffffffffffffffffffff163373ffffffffffffffffffffffffffffffffffffffff16146113bd576040517f08c379a00000000000000000000000000000000000000000000000000000000081526004016113b490611e68565b60405180910390fd5b600081600401819055508281600501600083600401548152602001908152602001600020819055508060040160008154809291906113fa906120d0565b91905055508381600301819055508060020160009054906101000a900473ffffffffffffffffffffffffffffffffffffffff1673ffffffffffffffffffffffffffffffffffffffff166323b872dd333084600301546040518463ffffffff1660e01b815260040161146d93929190611cc2565b600060405180830381600087803b15801561148757600080fd5b505af115801561149b573d6000803e3d6000fd5b5050505060018160000160146101000a81548160ff02191690831515021790555062015180826114cb9190611fc4565b426114d69190611f3d565b8160010181905550838573ffffffffffffffffffffffffffffffffffffffff167f3b305515dbe345238649f5ce343c57ae67d5727443f8d744b2b793c3231e3ad985846001015460405161152b929190611f03565b60405180910390a35050505050565b60008060008573ffffffffffffffffffffffffffffffffffffffff1673ffffffffffffffffffffffffffffffffffffffff1681526020019081526020016000206000848152602001908152602001600020600601600083815260200190815260200160002060009054906101000a900473ffffffffffffffffffffffffffffffffffffffff1690509392505050565b60008060008473ffffffffffffffffffffffffffffffffffffffff1673ffffffffffffffffffffffffffffffffffffffff1681526020019081526020016000206000838152602001908152602001600020905060008160070160003373ffffffffffffffffffffffffffffffffffffffff1673ffffffffffffffffffffffffffffffffffffffff1681526020019081526020016000205490506000811415801561167557506001548111155b6116b4576040517f08c379a00000000000000000000000000000000000000000000000000000000081526004016116ab90611ec8565b60405180910390fd5b8160060160008360040154815260200190815260200160002060009054906101000a900473ffffffffffffffffffffffffffffffffffffffff1673ffffffffffffffffffffffffffffffffffffffff163373ffffffffffffffffffffffffffffffffffffffff16141561173e576001826004016000828254611736919061201e565b925050819055505b60008260070160003373ffffffffffffffffffffffffffffffffffffffff1673ffffffffffffffffffffffffffffffffffffffff168152602001908152602001600020819055503373ffffffffffffffffffffffffffffffffffffffff166108fc829081150290604051600060405180830381858888f193505050501580156117cb573d6000803e3d6000fd5b5080600160008282546117de919061201e565b925050819055503373ffffffffffffffffffffffffffffffffffffffff167f884edad9ce6fa2440d8a54cc123490eb96d2768479d49ff9c7366125a94243648260405161182b9190611ee8565b60405180910390a250505050565b6000602052816000526040600020602052806000526040600020600091509150508060000160009054906101000a900473ffffffffffffffffffffffffffffffffffffffff16908060000160149054906101000a900460ff16908060000160159054906101000a900460ff16908060010154908060020160009054906101000a900473ffffffffffffffffffffffffffffffffffffffff16908060030154908060040154905087565b6000813590506118f1816122ed565b92915050565b600081519050611906816122ed565b92915050565b60008135905061191b81612304565b92915050565b60008151905061193081612304565b92915050565b60006020828403121561194c5761194b612177565b5b600061195a848285016118f7565b91505092915050565b60008060006060848603121561197c5761197b612177565b5b600061198a868287016118e2565b935050602061199b868287016118e2565b92505060406119ac8682870161190c565b9150509250925092565b600080604083850312156119cd576119cc612177565b5b60006119db858286016118e2565b92505060206119ec8582860161190c565b9150509250929050565b600080600060608486031215611a0f57611a0e612177565b5b6000611a1d868287016118e2565b9350506020611a2e8682870161190c565b9250506040611a3f868287016118e2565b9150509250925092565b600080600060608486031215611a6257611a61612177565b5b6000611a70868287016118e2565b9350506020611a818682870161190c565b9250506040611a928682870161190c565b9150509250925092565b60008060008060808587031215611ab657611ab5612177565b5b6000611ac4878288016118e2565b9450506020611ad58782880161190c565b9350506040611ae68782880161190c565b9250506060611af78782880161190c565b91505092959194509250565b600060208284031215611b1957611b18612177565b5b6000611b2784828501611921565b91505092915050565b611b3981612052565b82525050565b611b4881612064565b82525050565b611b578161209a565b82525050565b6000611b6a600a83611f2c565b9150611b758261217c565b602082019050919050565b6000611b8d601983611f2c565b9150611b98826121a5565b602082019050919050565b6000611bb0601083611f2c565b9150611bbb826121ce565b602082019050919050565b6000611bd3600683611f2c565b9150611bde826121f7565b602082019050919050565b6000611bf6601883611f2c565b9150611c0182612220565b602082019050919050565b6000611c19601e83611f2c565b9150611c2482612249565b602082019050919050565b6000611c3c600c83611f2c565b9150611c4782612272565b602082019050919050565b6000611c5f601683611f2c565b9150611c6a8261229b565b602082019050919050565b6000611c82601283611f2c565b9150611c8d826122c4565b602082019050919050565b611ca181612090565b82525050565b6000602082019050611cbc6000830184611b30565b92915050565b6000606082019050611cd76000830186611b30565b611ce46020830185611b30565b611cf16040830184611c98565b949350505050565b600060e082019050611d0e600083018a611b30565b611d1b6020830189611b3f565b611d286040830188611b3f565b611d356060830187611c98565b611d426080830186611b4e565b611d4f60a0830185611c98565b611d5c60c0830184611c98565b98975050505050505050565b6000604082019050611d7d6000830185611b30565b611d8a6020830184611c98565b9392505050565b6000606082019050611da66000830186611b30565b611db36020830185611c98565b611dc06040830184611c98565b949350505050565b60006020820190508181036000830152611de181611b5d565b9050919050565b60006020820190508181036000830152611e0181611b80565b9050919050565b60006020820190508181036000830152611e2181611ba3565b9050919050565b60006020820190508181036000830152611e4181611bc6565b9050919050565b60006020820190508181036000830152611e6181611be9565b9050919050565b60006020820190508181036000830152611e8181611c0c565b9050919050565b60006020820190508181036000830152611ea181611c2f565b9050919050565b60006020820190508181036000830152611ec181611c52565b9050919050565b60006020820190508181036000830152611ee181611c75565b9050919050565b6000602082019050611efd6000830184611c98565b92915050565b6000604082019050611f186000830185611c98565b611f256020830184611c98565b9392505050565b600082825260208201905092915050565b6000611f4882612090565b9150611f5383612090565b9250827fffffffffffffffffffffffffffffffffffffffffffffffffffffffffffffffff03821115611f8857611f87612119565b5b828201905092915050565b6000611f9e82612090565b9150611fa983612090565b925082611fb957611fb8612148565b5b828204905092915050565b6000611fcf82612090565b9150611fda83612090565b9250817fffffffffffffffffffffffffffffffffffffffffffffffffffffffffffffffff048311821515161561201357612012612119565b5b828202905092915050565b600061202982612090565b915061203483612090565b92508282101561204757612046612119565b5b828203905092915050565b600061205d82612070565b9050919050565b60008115159050919050565b600073ffffffffffffffffffffffffffffffffffffffff82169050919050565b6000819050919050565b60006120a5826120ac565b9050919050565b60006120b7826120be565b9050919050565b60006120c982612070565b9050919050565b60006120db82612090565b91507fffffffffffffffffffffffffffffffffffffffffffffffffffffffffffffffff82141561210e5761210d612119565b5b600182019050919050565b7f4e487b7100000000000000000000000000000000000000000000000000000000600052601160045260246000fd5b7f4e487b7100000000000000000000000000000000000000000000000000000000600052601260045260246000fd5b600080fd5b7f4c6f776572206269642100000000000000000000000000000000000000000000600082015250565b7f41756374696f6e206973207374696c6c206f6e676f696e672100000000000000600082015250565b7f416c726561647920737461727465642100000000000000000000000000000000600082015250565b7f456e646564210000000000000000000000000000000000000000000000000000600082015250565b7f596f75206e65656420746f207374617274206669727374210000000000000000600082015250565b7f596f752063616e206e6f74207374617274207468652061756374696f6e210000600082015250565b7f4e6f7420737461727465642e0000000000000000000000000000000000000000600082015250565b7f41756374696f6e20616c726561647920656e6465642100000000000000000000600082015250565b7f436f756c64206e6f742077697468647261770000000000000000000000000000600082015250565b6122f681612052565b811461230157600080fd5b50565b61230d81612090565b811461231857600080fd5b5056fea26469706673582212201b4b13085aad6431186c5861a61fab2deed07484f5751ac14cb6419078f72e5a64736f6c63430008070033",
					"opcodes": "PUSH1 0x80 PUSH1 0x40 MSTORE CALLVALUE DUP1 ISZERO PUSH2 0x10 JUMPI PUSH1 0x0 DUP1 REVERT JUMPDEST POP PUSH2 0x2351 DUP1 PUSH2 0x20 PUSH1 0x0 CODECOPY PUSH1 0x0 RETURN INVALID PUSH1 0x80 PUSH1 0x40 MSTORE PUSH1 0x4 CALLDATASIZE LT PUSH2 0x91 JUMPI PUSH1 0x0 CALLDATALOAD PUSH1 0xE0 SHR DUP1 PUSH4 0xB0651DCE GT PUSH2 0x59 JUMPI DUP1 PUSH4 0xB0651DCE EQ PUSH2 0x15F JUMPI DUP1 PUSH4 0xB76A3B5A EQ PUSH2 0x19C JUMPI DUP1 PUSH4 0xBD15BF4E EQ PUSH2 0x1C5 JUMPI DUP1 PUSH4 0xF3FEF3A3 EQ PUSH2 0x202 JUMPI DUP1 PUSH4 0xF48E9B3D EQ PUSH2 0x21E JUMPI PUSH2 0x91 JUMP JUMPDEST DUP1 PUSH4 0x545C285C EQ PUSH2 0x96 JUMPI DUP1 PUSH4 0x57354ED1 EQ PUSH2 0xBF JUMPI DUP1 PUSH4 0x59D667A5 EQ PUSH2 0xFC JUMPI DUP1 PUSH4 0x699FF43F EQ PUSH2 0x118 JUMPI DUP1 PUSH4 0x7BB98A68 EQ PUSH2 0x134 JUMPI JUMPDEST PUSH1 0x0 DUP1 REVERT JUMPDEST CALLVALUE DUP1 ISZERO PUSH2 0xA2 JUMPI PUSH1 0x0 DUP1 REVERT JUMPDEST POP PUSH2 0xBD PUSH1 0x4 DUP1 CALLDATASIZE SUB DUP2 ADD SWAP1 PUSH2 0xB8 SWAP2 SWAP1 PUSH2 0x1963 JUMP JUMPDEST PUSH2 0x261 JUMP JUMPDEST STOP JUMPDEST CALLVALUE DUP1 ISZERO PUSH2 0xCB JUMPI PUSH1 0x0 DUP1 REVERT JUMPDEST POP PUSH2 0xE6 PUSH1 0x4 DUP1 CALLDATASIZE SUB DUP2 ADD SWAP1 PUSH2 0xE1 SWAP2 SWAP1 PUSH2 0x19F6 JUMP JUMPDEST PUSH2 0xB16 JUMP JUMPDEST PUSH1 0x40 MLOAD PUSH2 0xF3 SWAP2 SWAP1 PUSH2 0x1EE8 JUMP JUMPDEST PUSH1 0x40 MLOAD DUP1 SWAP2 SUB SWAP1 RETURN JUMPDEST PUSH2 0x116 PUSH1 0x4 DUP1 CALLDATASIZE SUB DUP2 ADD SWAP1 PUSH2 0x111 SWAP2 SWAP1 PUSH2 0x19B6 JUMP JUMPDEST PUSH2 0xBB1 JUMP JUMPDEST STOP JUMPDEST PUSH2 0x132 PUSH1 0x4 DUP1 CALLDATASIZE SUB DUP2 ADD SWAP1 PUSH2 0x12D SWAP2 SWAP1 PUSH2 0x19F6 JUMP JUMPDEST PUSH2 0xEDC JUMP JUMPDEST STOP JUMPDEST CALLVALUE DUP1 ISZERO PUSH2 0x140 JUMPI PUSH1 0x0 DUP1 REVERT JUMPDEST POP PUSH2 0x149 PUSH2 0x10C2 JUMP JUMPDEST PUSH1 0x40 MLOAD PUSH2 0x156 SWAP2 SWAP1 PUSH2 0x1EE8 JUMP JUMPDEST PUSH1 0x40 MLOAD DUP1 SWAP2 SUB SWAP1 RETURN JUMPDEST CALLVALUE DUP1 ISZERO PUSH2 0x16B JUMPI PUSH1 0x0 DUP1 REVERT JUMPDEST POP PUSH2 0x186 PUSH1 0x4 DUP1 CALLDATASIZE SUB DUP2 ADD SWAP1 PUSH2 0x181 SWAP2 SWAP1 PUSH2 0x1A49 JUMP JUMPDEST PUSH2 0x10C8 JUMP JUMPDEST PUSH1 0x40 MLOAD PUSH2 0x193 SWAP2 SWAP1 PUSH2 0x1EE8 JUMP JUMPDEST PUSH1 0x40 MLOAD DUP1 SWAP2 SUB SWAP1 RETURN JUMPDEST CALLVALUE DUP1 ISZERO PUSH2 0x1A8 JUMPI PUSH1 0x0 DUP1 REVERT JUMPDEST POP PUSH2 0x1C3 PUSH1 0x4 DUP1 CALLDATASIZE SUB DUP2 ADD SWAP1 PUSH2 0x1BE SWAP2 SWAP1 PUSH2 0x1A9C JUMP JUMPDEST PUSH2 0x1137 JUMP JUMPDEST STOP JUMPDEST CALLVALUE DUP1 ISZERO PUSH2 0x1D1 JUMPI PUSH1 0x0 DUP1 REVERT JUMPDEST POP PUSH2 0x1EC PUSH1 0x4 DUP1 CALLDATASIZE SUB DUP2 ADD SWAP1 PUSH2 0x1E7 SWAP2 SWAP1 PUSH2 0x1A49 JUMP JUMPDEST PUSH2 0x153A JUMP JUMPDEST PUSH1 0x40 MLOAD PUSH2 0x1F9 SWAP2 SWAP1 PUSH2 0x1CA7 JUMP JUMPDEST PUSH1 0x40 MLOAD DUP1 SWAP2 SUB SWAP1 RETURN JUMPDEST PUSH2 0x21C PUSH1 0x4 DUP1 CALLDATASIZE SUB DUP2 ADD SWAP1 PUSH2 0x217 SWAP2 SWAP1 PUSH2 0x19B6 JUMP JUMPDEST PUSH2 0x15C9 JUMP JUMPDEST STOP JUMPDEST CALLVALUE DUP1 ISZERO PUSH2 0x22A JUMPI PUSH1 0x0 DUP1 REVERT JUMPDEST POP PUSH2 0x245 PUSH1 0x4 DUP1 CALLDATASIZE SUB DUP2 ADD SWAP1 PUSH2 0x240 SWAP2 SWAP1 PUSH2 0x19B6 JUMP JUMPDEST PUSH2 0x1839 JUMP JUMPDEST PUSH1 0x40 MLOAD PUSH2 0x258 SWAP8 SWAP7 SWAP6 SWAP5 SWAP4 SWAP3 SWAP2 SWAP1 PUSH2 0x1CF9 JUMP JUMPDEST PUSH1 0x40 MLOAD DUP1 SWAP2 SUB SWAP1 RETURN JUMPDEST PUSH1 0x0 DUP1 PUSH1 0x0 DUP5 PUSH20 0xFFFFFFFFFFFFFFFFFFFFFFFFFFFFFFFFFFFFFFFF AND PUSH20 0xFFFFFFFFFFFFFFFFFFFFFFFFFFFFFFFFFFFFFFFF AND DUP2 MSTORE PUSH1 0x20 ADD SWAP1 DUP2 MSTORE PUSH1 0x20 ADD PUSH1 0x0 KECCAK256 PUSH1 0x0 DUP4 DUP2 MSTORE PUSH1 0x20 ADD SWAP1 DUP2 MSTORE PUSH1 0x20 ADD PUSH1 0x0 KECCAK256 SWAP1 POP PUSH1 0x0 DUP5 SWAP1 POP DUP2 PUSH1 0x0 ADD PUSH1 0x14 SWAP1 SLOAD SWAP1 PUSH2 0x100 EXP SWAP1 DIV PUSH1 0xFF AND PUSH2 0x30A JUMPI PUSH1 0x40 MLOAD PUSH32 0x8C379A000000000000000000000000000000000000000000000000000000000 DUP2 MSTORE PUSH1 0x4 ADD PUSH2 0x301 SWAP1 PUSH2 0x1E48 JUMP JUMPDEST PUSH1 0x40 MLOAD DUP1 SWAP2 SUB SWAP1 REVERT JUMPDEST DUP2 PUSH1 0x1 ADD SLOAD TIMESTAMP LT ISZERO PUSH2 0x351 JUMPI PUSH1 0x40 MLOAD PUSH32 0x8C379A000000000000000000000000000000000000000000000000000000000 DUP2 MSTORE PUSH1 0x4 ADD PUSH2 0x348 SWAP1 PUSH2 0x1DE8 JUMP JUMPDEST PUSH1 0x40 MLOAD DUP1 SWAP2 SUB SWAP1 REVERT JUMPDEST DUP2 PUSH1 0x0 ADD PUSH1 0x15 SWAP1 SLOAD SWAP1 PUSH2 0x100 EXP SWAP1 DIV PUSH1 0xFF AND ISZERO PUSH2 0x3A3 JUMPI PUSH1 0x40 MLOAD PUSH32 0x8C379A000000000000000000000000000000000000000000000000000000000 DUP2 MSTORE PUSH1 0x4 ADD PUSH2 0x39A SWAP1 PUSH2 0x1EA8 JUMP JUMPDEST PUSH1 0x40 MLOAD DUP1 SWAP2 SUB SWAP1 REVERT JUMPDEST PUSH1 0x0 PUSH20 0xFFFFFFFFFFFFFFFFFFFFFFFFFFFFFFFFFFFFFFFF AND DUP3 PUSH1 0x6 ADD PUSH1 0x0 DUP5 PUSH1 0x4 ADD SLOAD DUP2 MSTORE PUSH1 0x20 ADD SWAP1 DUP2 MSTORE PUSH1 0x20 ADD PUSH1 0x0 KECCAK256 PUSH1 0x0 SWAP1 SLOAD SWAP1 PUSH2 0x100 EXP SWAP1 DIV PUSH20 0xFFFFFFFFFFFFFFFFFFFFFFFFFFFFFFFFFFFFFFFF AND PUSH20 0xFFFFFFFFFFFFFFFFFFFFFFFFFFFFFFFFFFFFFFFF AND EQ PUSH2 0x98E JUMPI DUP2 PUSH1 0x2 ADD PUSH1 0x0 SWAP1 SLOAD SWAP1 PUSH2 0x100 EXP SWAP1 DIV PUSH20 0xFFFFFFFFFFFFFFFFFFFFFFFFFFFFFFFFFFFFFFFF AND PUSH20 0xFFFFFFFFFFFFFFFFFFFFFFFFFFFFFFFFFFFFFFFF AND PUSH4 0x23B872DD ADDRESS DUP5 PUSH1 0x6 ADD PUSH1 0x0 DUP7 PUSH1 0x4 ADD SLOAD DUP2 MSTORE PUSH1 0x20 ADD SWAP1 DUP2 MSTORE PUSH1 0x20 ADD PUSH1 0x0 KECCAK256 PUSH1 0x0 SWAP1 SLOAD SWAP1 PUSH2 0x100 EXP SWAP1 DIV PUSH20 0xFFFFFFFFFFFFFFFFFFFFFFFFFFFFFFFFFFFFFFFF AND DUP6 PUSH1 0x3 ADD SLOAD PUSH1 0x40 MLOAD DUP5 PUSH4 0xFFFFFFFF AND PUSH1 0xE0 SHL DUP2 MSTORE PUSH1 0x4 ADD PUSH2 0x4AE SWAP4 SWAP3 SWAP2 SWAP1 PUSH2 0x1CC2 JUMP JUMPDEST PUSH1 0x0 PUSH1 0x40 MLOAD DUP1 DUP4 SUB DUP2 PUSH1 0x0 DUP8 DUP1 EXTCODESIZE ISZERO DUP1 ISZERO PUSH2 0x4C8 JUMPI PUSH1 0x0 DUP1 REVERT JUMPDEST POP GAS CALL ISZERO DUP1 ISZERO PUSH2 0x4DC JUMPI RETURNDATASIZE PUSH1 0x0 DUP1 RETURNDATACOPY RETURNDATASIZE PUSH1 0x0 REVERT JUMPDEST POP POP POP POP DUP2 PUSH1 0x0 ADD PUSH1 0x0 SWAP1 SLOAD SWAP1 PUSH2 0x100 EXP SWAP1 DIV PUSH20 0xFFFFFFFFFFFFFFFFFFFFFFFFFFFFFFFFFFFFFFFF AND PUSH20 0xFFFFFFFFFFFFFFFFFFFFFFFFFFFFFFFFFFFFFFFF AND PUSH2 0x8FC PUSH1 0x14 DUP5 PUSH1 0x5 ADD PUSH1 0x0 DUP7 PUSH1 0x4 ADD SLOAD DUP2 MSTORE PUSH1 0x20 ADD SWAP1 DUP2 MSTORE PUSH1 0x20 ADD PUSH1 0x0 KECCAK256 SLOAD PUSH2 0x544 SWAP2 SWAP1 PUSH2 0x1F93 JUMP JUMPDEST DUP5 PUSH1 0x5 ADD PUSH1 0x0 DUP7 PUSH1 0x4 ADD SLOAD DUP2 MSTORE PUSH1 0x20 ADD SWAP1 DUP2 MSTORE PUSH1 0x20 ADD PUSH1 0x0 KECCAK256 SLOAD PUSH2 0x568 SWAP2 SWAP1 PUSH2 0x201E JUMP JUMPDEST SWAP1 DUP2 ISZERO MUL SWAP1 PUSH1 0x40 MLOAD PUSH1 0x0 PUSH1 0x40 MLOAD DUP1 DUP4 SUB DUP2 DUP6 DUP9 DUP9 CALL SWAP4 POP POP POP POP ISZERO DUP1 ISZERO PUSH2 0x593 JUMPI RETURNDATASIZE PUSH1 0x0 DUP1 RETURNDATACOPY RETURNDATASIZE PUSH1 0x0 REVERT JUMPDEST POP DUP1 PUSH20 0xFFFFFFFFFFFFFFFFFFFFFFFFFFFFFFFFFFFFFFFF AND PUSH4 0x8DA5CB5B PUSH1 0x40 MLOAD DUP2 PUSH4 0xFFFFFFFF AND PUSH1 0xE0 SHL DUP2 MSTORE PUSH1 0x4 ADD PUSH1 0x20 PUSH1 0x40 MLOAD DUP1 DUP4 SUB DUP2 DUP7 DUP1 EXTCODESIZE ISZERO DUP1 ISZERO PUSH2 0x5DA JUMPI PUSH1 0x0 DUP1 REVERT JUMPDEST POP GAS STATICCALL ISZERO DUP1 ISZERO PUSH2 0x5EE JUMPI RETURNDATASIZE PUSH1 0x0 DUP1 RETURNDATACOPY RETURNDATASIZE PUSH1 0x0 REVERT JUMPDEST POP POP POP POP PUSH1 0x40 MLOAD RETURNDATASIZE PUSH1 0x1F NOT PUSH1 0x1F DUP3 ADD AND DUP3 ADD DUP1 PUSH1 0x40 MSTORE POP DUP2 ADD SWAP1 PUSH2 0x612 SWAP2 SWAP1 PUSH2 0x1936 JUMP JUMPDEST PUSH20 0xFFFFFFFFFFFFFFFFFFFFFFFFFFFFFFFFFFFFFFFF AND PUSH2 0x8FC PUSH1 0x14 DUP5 PUSH1 0x5 ADD PUSH1 0x0 DUP7 PUSH1 0x4 ADD SLOAD DUP2 MSTORE PUSH1 0x20 ADD SWAP1 DUP2 MSTORE PUSH1 0x20 ADD PUSH1 0x0 KECCAK256 SLOAD PUSH2 0x651 SWAP2 SWAP1 PUSH2 0x1F93 JUMP JUMPDEST SWAP1 DUP2 ISZERO MUL SWAP1 PUSH1 0x40 MLOAD PUSH1 0x0 PUSH1 0x40 MLOAD DUP1 DUP4 SUB DUP2 DUP6 DUP9 DUP9 CALL SWAP4 POP POP POP POP ISZERO DUP1 ISZERO PUSH2 0x67C JUMPI RETURNDATASIZE PUSH1 0x0 DUP1 RETURNDATACOPY RETURNDATASIZE PUSH1 0x0 REVERT JUMPDEST POP PUSH1 0x0 JUMPDEST PUSH1 0x5 DUP2 LT ISZERO PUSH2 0x8F3 JUMPI PUSH1 0x0 PUSH20 0xFFFFFFFFFFFFFFFFFFFFFFFFFFFFFFFFFFFFFFFF AND DUP3 PUSH20 0xFFFFFFFFFFFFFFFFFFFFFFFFFFFFFFFFFFFFFFFF AND PUSH4 0x2973D6F8 DUP8 DUP8 DUP6 PUSH1 0x40 MLOAD DUP5 PUSH4 0xFFFFFFFF AND PUSH1 0xE0 SHL DUP2 MSTORE PUSH1 0x4 ADD PUSH2 0x6DE SWAP4 SWAP3 SWAP2 SWAP1 PUSH2 0x1D91 JUMP JUMPDEST PUSH1 0x20 PUSH1 0x40 MLOAD DUP1 DUP4 SUB DUP2 DUP7 DUP1 EXTCODESIZE ISZERO DUP1 ISZERO PUSH2 0x6F6 JUMPI PUSH1 0x0 DUP1 REVERT JUMPDEST POP GAS STATICCALL ISZERO DUP1 ISZERO PUSH2 0x70A JUMPI RETURNDATASIZE PUSH1 0x0 DUP1 RETURNDATACOPY RETURNDATASIZE PUSH1 0x0 REVERT JUMPDEST POP POP POP POP PUSH1 0x40 MLOAD RETURNDATASIZE PUSH1 0x1F NOT PUSH1 0x1F DUP3 ADD AND DUP3 ADD DUP1 PUSH1 0x40 MSTORE POP DUP2 ADD SWAP1 PUSH2 0x72E SWAP2 SWAP1 PUSH2 0x1936 JUMP JUMPDEST PUSH20 0xFFFFFFFFFFFFFFFFFFFFFFFFFFFFFFFFFFFFFFFF AND EQ PUSH2 0x8DB JUMPI DUP2 PUSH20 0xFFFFFFFFFFFFFFFFFFFFFFFFFFFFFFFFFFFFFFFF AND PUSH4 0x2973D6F8 DUP7 DUP7 DUP5 PUSH1 0x40 MLOAD DUP5 PUSH4 0xFFFFFFFF AND PUSH1 0xE0 SHL DUP2 MSTORE PUSH1 0x4 ADD PUSH2 0x786 SWAP4 SWAP3 SWAP2 SWAP1 PUSH2 0x1D91 JUMP JUMPDEST PUSH1 0x20 PUSH1 0x40 MLOAD DUP1 DUP4 SUB DUP2 DUP7 DUP1 EXTCODESIZE ISZERO DUP1 ISZERO PUSH2 0x79E JUMPI PUSH1 0x0 DUP1 REVERT JUMPDEST POP GAS STATICCALL ISZERO DUP1 ISZERO PUSH2 0x7B2 JUMPI RETURNDATASIZE PUSH1 0x0 DUP1 RETURNDATACOPY RETURNDATASIZE PUSH1 0x0 REVERT JUMPDEST POP POP POP POP PUSH1 0x40 MLOAD RETURNDATASIZE PUSH1 0x1F NOT PUSH1 0x1F DUP3 ADD AND DUP3 ADD DUP1 PUSH1 0x40 MSTORE POP DUP2 ADD SWAP1 PUSH2 0x7D6 SWAP2 SWAP1 PUSH2 0x1936 JUMP JUMPDEST PUSH20 0xFFFFFFFFFFFFFFFFFFFFFFFFFFFFFFFFFFFFFFFF AND PUSH2 0x8FC DUP4 PUSH20 0xFFFFFFFFFFFFFFFFFFFFFFFFFFFFFFFFFFFFFFFF AND PUSH4 0xD178227A DUP9 DUP9 PUSH1 0x40 MLOAD DUP4 PUSH4 0xFFFFFFFF AND PUSH1 0xE0 SHL DUP2 MSTORE PUSH1 0x4 ADD PUSH2 0x82A SWAP3 SWAP2 SWAP1 PUSH2 0x1D68 JUMP JUMPDEST PUSH1 0x20 PUSH1 0x40 MLOAD DUP1 DUP4 SUB DUP2 DUP7 DUP1 EXTCODESIZE ISZERO DUP1 ISZERO PUSH2 0x842 JUMPI PUSH1 0x0 DUP1 REVERT JUMPDEST POP GAS STATICCALL ISZERO DUP1 ISZERO PUSH2 0x856 JUMPI RETURNDATASIZE PUSH1 0x0 DUP1 RETURNDATACOPY RETURNDATASIZE PUSH1 0x0 REVERT JUMPDEST POP POP POP POP PUSH1 0x40 MLOAD RETURNDATASIZE PUSH1 0x1F NOT PUSH1 0x1F DUP3 ADD AND DUP3 ADD DUP1 PUSH1 0x40 MSTORE POP DUP2 ADD SWAP1 PUSH2 0x87A SWAP2 SWAP1 PUSH2 0x1B03 JUMP JUMPDEST PUSH1 0x14 DUP7 PUSH1 0x5 ADD PUSH1 0x0 DUP9 PUSH1 0x4 ADD SLOAD DUP2 MSTORE PUSH1 0x20 ADD SWAP1 DUP2 MSTORE PUSH1 0x20 ADD PUSH1 0x0 KECCAK256 SLOAD PUSH2 0x8A0 SWAP2 SWAP1 PUSH2 0x1F93 JUMP JUMPDEST PUSH2 0x8AA SWAP2 SWAP1 PUSH2 0x1F93 JUMP JUMPDEST SWAP1 DUP2 ISZERO MUL SWAP1 PUSH1 0x40 MLOAD PUSH1 0x0 PUSH1 0x40 MLOAD DUP1 DUP4 SUB DUP2 DUP6 DUP9 DUP9 CALL SWAP4 POP POP POP POP ISZERO DUP1 ISZERO PUSH2 0x8D5 JUMPI RETURNDATASIZE PUSH1 0x0 DUP1 RETURNDATACOPY RETURNDATASIZE PUSH1 0x0 REVERT JUMPDEST POP PUSH2 0x8E0 JUMP JUMPDEST PUSH2 0x8F3 JUMP JUMPDEST DUP1 DUP1 PUSH2 0x8EB SWAP1 PUSH2 0x20D0 JUMP JUMPDEST SWAP2 POP POP PUSH2 0x680 JUMP JUMPDEST POP DUP2 PUSH1 0x5 ADD PUSH1 0x0 DUP4 PUSH1 0x4 ADD SLOAD DUP2 MSTORE PUSH1 0x20 ADD SWAP1 DUP2 MSTORE PUSH1 0x20 ADD PUSH1 0x0 KECCAK256 SLOAD PUSH1 0x1 PUSH1 0x0 DUP3 DUP3 SLOAD PUSH2 0x91F SWAP2 SWAP1 PUSH2 0x201E JUMP JUMPDEST SWAP3 POP POP DUP2 SWAP1 SSTORE POP PUSH1 0x0 JUMPDEST DUP3 PUSH1 0x4 ADD SLOAD DUP2 LT ISZERO PUSH2 0x988 JUMPI PUSH2 0x975 DUP6 DUP6 DUP6 PUSH1 0x6 ADD PUSH1 0x0 DUP6 DUP2 MSTORE PUSH1 0x20 ADD SWAP1 DUP2 MSTORE PUSH1 0x20 ADD PUSH1 0x0 KECCAK256 PUSH1 0x0 SWAP1 SLOAD SWAP1 PUSH2 0x100 EXP SWAP1 DIV PUSH20 0xFFFFFFFFFFFFFFFFFFFFFFFFFFFFFFFFFFFFFFFF AND PUSH2 0xEDC JUMP JUMPDEST DUP1 DUP1 PUSH2 0x980 SWAP1 PUSH2 0x20D0 JUMP JUMPDEST SWAP2 POP POP PUSH2 0x929 JUMP JUMPDEST POP PUSH2 0xA4A JUMP JUMPDEST DUP2 PUSH1 0x2 ADD PUSH1 0x0 SWAP1 SLOAD SWAP1 PUSH2 0x100 EXP SWAP1 DIV PUSH20 0xFFFFFFFFFFFFFFFFFFFFFFFFFFFFFFFFFFFFFFFF AND PUSH20 0xFFFFFFFFFFFFFFFFFFFFFFFFFFFFFFFFFFFFFFFF AND PUSH4 0x23B872DD ADDRESS DUP5 PUSH1 0x0 ADD PUSH1 0x0 SWAP1 SLOAD SWAP1 PUSH2 0x100 EXP SWAP1 DIV PUSH20 0xFFFFFFFFFFFFFFFFFFFFFFFFFFFFFFFFFFFFFFFF AND DUP6 PUSH1 0x3 ADD SLOAD PUSH1 0x40 MLOAD DUP5 PUSH4 0xFFFFFFFF AND PUSH1 0xE0 SHL DUP2 MSTORE PUSH1 0x4 ADD PUSH2 0xA17 SWAP4 SWAP3 SWAP2 SWAP1 PUSH2 0x1CC2 JUMP JUMPDEST PUSH1 0x0 PUSH1 0x40 MLOAD DUP1 DUP4 SUB DUP2 PUSH1 0x0 DUP8 DUP1 EXTCODESIZE ISZERO DUP1 ISZERO PUSH2 0xA31 JUMPI PUSH1 0x0 DUP1 REVERT JUMPDEST POP GAS CALL ISZERO DUP1 ISZERO PUSH2 0xA45 JUMPI RETURNDATASIZE PUSH1 0x0 DUP1 RETURNDATACOPY RETURNDATASIZE PUSH1 0x0 REVERT JUMPDEST POP POP POP POP JUMPDEST PUSH1 0x1 DUP3 PUSH1 0x0 ADD PUSH1 0x15 PUSH2 0x100 EXP DUP2 SLOAD DUP2 PUSH1 0xFF MUL NOT AND SWAP1 DUP4 ISZERO ISZERO MUL OR SWAP1 SSTORE POP PUSH1 0x0 DUP3 PUSH1 0x0 ADD PUSH1 0x14 PUSH2 0x100 EXP DUP2 SLOAD DUP2 PUSH1 0xFF MUL NOT AND SWAP1 DUP4 ISZERO ISZERO MUL OR SWAP1 SSTORE POP PUSH32 0x7D7570B046E5EAD3A4F3FBC9FA2445113625A1E79823776146316BAFED6B8CC5 DUP3 PUSH1 0x6 ADD PUSH1 0x0 DUP5 PUSH1 0x4 ADD SLOAD DUP2 MSTORE PUSH1 0x20 ADD SWAP1 DUP2 MSTORE PUSH1 0x20 ADD PUSH1 0x0 KECCAK256 PUSH1 0x0 SWAP1 SLOAD SWAP1 PUSH2 0x100 EXP SWAP1 DIV PUSH20 0xFFFFFFFFFFFFFFFFFFFFFFFFFFFFFFFFFFFFFFFF AND DUP4 PUSH1 0x5 ADD PUSH1 0x0 DUP6 PUSH1 0x4 ADD SLOAD DUP2 MSTORE PUSH1 0x20 ADD SWAP1 DUP2 MSTORE PUSH1 0x20 ADD PUSH1 0x0 KECCAK256 SLOAD PUSH1 0x40 MLOAD PUSH2 0xB07 SWAP3 SWAP2 SWAP1 PUSH2 0x1D68 JUMP JUMPDEST PUSH1 0x40 MLOAD DUP1 SWAP2 SUB SWAP1 LOG1 POP POP POP POP POP JUMP JUMPDEST PUSH1 0x0 DUP1 PUSH1 0x0 DUP6 PUSH20 0xFFFFFFFFFFFFFFFFFFFFFFFFFFFFFFFFFFFFFFFF AND PUSH20 0xFFFFFFFFFFFFFFFFFFFFFFFFFFFFFFFFFFFFFFFF AND DUP2 MSTORE PUSH1 0x20 ADD SWAP1 DUP2 MSTORE PUSH1 0x20 ADD PUSH1 0x0 KECCAK256 PUSH1 0x0 DUP5 DUP2 MSTORE PUSH1 0x20 ADD SWAP1 DUP2 MSTORE PUSH1 0x20 ADD PUSH1 0x0 KECCAK256 PUSH1 0x7 ADD PUSH1 0x0 DUP4 PUSH20 0xFFFFFFFFFFFFFFFFFFFFFFFFFFFFFFFFFFFFFFFF AND PUSH20 0xFFFFFFFFFFFFFFFFFFFFFFFFFFFFFFFFFFFFFFFF AND DUP2 MSTORE PUSH1 0x20 ADD SWAP1 DUP2 MSTORE PUSH1 0x20 ADD PUSH1 0x0 KECCAK256 SLOAD SWAP1 POP SWAP4 SWAP3 POP POP POP JUMP JUMPDEST PUSH1 0x0 DUP1 PUSH1 0x0 DUP5 PUSH20 0xFFFFFFFFFFFFFFFFFFFFFFFFFFFFFFFFFFFFFFFF AND PUSH20 0xFFFFFFFFFFFFFFFFFFFFFFFFFFFFFFFFFFFFFFFF AND DUP2 MSTORE PUSH1 0x20 ADD SWAP1 DUP2 MSTORE PUSH1 0x20 ADD PUSH1 0x0 KECCAK256 PUSH1 0x0 DUP4 DUP2 MSTORE PUSH1 0x20 ADD SWAP1 DUP2 MSTORE PUSH1 0x20 ADD PUSH1 0x0 KECCAK256 SWAP1 POP DUP1 PUSH1 0x0 ADD PUSH1 0x14 SWAP1 SLOAD SWAP1 PUSH2 0x100 EXP SWAP1 DIV PUSH1 0xFF AND PUSH2 0xC55 JUMPI PUSH1 0x40 MLOAD PUSH32 0x8C379A000000000000000000000000000000000000000000000000000000000 DUP2 MSTORE PUSH1 0x4 ADD PUSH2 0xC4C SWAP1 PUSH2 0x1E88 JUMP JUMPDEST PUSH1 0x40 MLOAD DUP1 SWAP2 SUB SWAP1 REVERT JUMPDEST DUP1 PUSH1 0x1 ADD SLOAD TIMESTAMP LT PUSH2 0xC9B JUMPI PUSH1 0x40 MLOAD PUSH32 0x8C379A000000000000000000000000000000000000000000000000000000000 DUP2 MSTORE PUSH1 0x4 ADD PUSH2 0xC92 SWAP1 PUSH2 0x1E28 JUMP JUMPDEST PUSH1 0x40 MLOAD DUP1 SWAP2 SUB SWAP1 REVERT JUMPDEST DUP1 PUSH1 0x5 ADD PUSH1 0x0 DUP3 PUSH1 0x4 ADD SLOAD DUP2 MSTORE PUSH1 0x20 ADD SWAP1 DUP2 MSTORE PUSH1 0x20 ADD PUSH1 0x0 KECCAK256 SLOAD CALLVALUE GT PUSH2 0xCF6 JUMPI PUSH1 0x40 MLOAD PUSH32 0x8C379A000000000000000000000000000000000000000000000000000000000 DUP2 MSTORE PUSH1 0x4 ADD PUSH2 0xCED SWAP1 PUSH2 0x1DC8 JUMP JUMPDEST PUSH1 0x40 MLOAD DUP1 SWAP2 SUB SWAP1 REVERT JUMPDEST CALLVALUE DUP2 PUSH1 0x5 ADD PUSH1 0x0 DUP4 PUSH1 0x4 ADD SLOAD DUP2 MSTORE PUSH1 0x20 ADD SWAP1 DUP2 MSTORE PUSH1 0x20 ADD PUSH1 0x0 KECCAK256 DUP2 SWAP1 SSTORE POP CALLER DUP2 PUSH1 0x6 ADD PUSH1 0x0 DUP4 PUSH1 0x4 ADD SLOAD DUP2 MSTORE PUSH1 0x20 ADD SWAP1 DUP2 MSTORE PUSH1 0x20 ADD PUSH1 0x0 KECCAK256 PUSH1 0x0 PUSH2 0x100 EXP DUP2 SLOAD DUP2 PUSH20 0xFFFFFFFFFFFFFFFFFFFFFFFFFFFFFFFFFFFFFFFF MUL NOT AND SWAP1 DUP4 PUSH20 0xFFFFFFFFFFFFFFFFFFFFFFFFFFFFFFFFFFFFFFFF AND MUL OR SWAP1 SSTORE POP DUP1 PUSH1 0x5 ADD PUSH1 0x0 DUP3 PUSH1 0x4 ADD SLOAD DUP2 MSTORE PUSH1 0x20 ADD SWAP1 DUP2 MSTORE PUSH1 0x20 ADD PUSH1 0x0 KECCAK256 SLOAD DUP2 PUSH1 0x7 ADD PUSH1 0x0 DUP4 PUSH1 0x6 ADD PUSH1 0x0 DUP6 PUSH1 0x4 ADD SLOAD DUP2 MSTORE PUSH1 0x20 ADD SWAP1 DUP2 MSTORE PUSH1 0x20 ADD PUSH1 0x0 KECCAK256 PUSH1 0x0 SWAP1 SLOAD SWAP1 PUSH2 0x100 EXP SWAP1 DIV PUSH20 0xFFFFFFFFFFFFFFFFFFFFFFFFFFFFFFFFFFFFFFFF AND PUSH20 0xFFFFFFFFFFFFFFFFFFFFFFFFFFFFFFFFFFFFFFFF AND PUSH20 0xFFFFFFFFFFFFFFFFFFFFFFFFFFFFFFFFFFFFFFFF AND DUP2 MSTORE PUSH1 0x20 ADD SWAP1 DUP2 MSTORE PUSH1 0x20 ADD PUSH1 0x0 KECCAK256 DUP2 SWAP1 SSTORE POP DUP1 PUSH1 0x4 ADD PUSH1 0x0 DUP2 SLOAD DUP1 SWAP3 SWAP2 SWAP1 PUSH2 0xE19 SWAP1 PUSH2 0x20D0 JUMP JUMPDEST SWAP2 SWAP1 POP SSTORE POP CALLVALUE PUSH1 0x1 PUSH1 0x0 DUP3 DUP3 SLOAD PUSH2 0xE30 SWAP2 SWAP1 PUSH2 0x1F3D JUMP JUMPDEST SWAP3 POP POP DUP2 SWAP1 SSTORE POP DUP1 PUSH1 0x6 ADD PUSH1 0x0 DUP3 PUSH1 0x4 ADD SLOAD DUP2 MSTORE PUSH1 0x20 ADD SWAP1 DUP2 MSTORE PUSH1 0x20 ADD PUSH1 0x0 KECCAK256 PUSH1 0x0 SWAP1 SLOAD SWAP1 PUSH2 0x100 EXP SWAP1 DIV PUSH20 0xFFFFFFFFFFFFFFFFFFFFFFFFFFFFFFFFFFFFFFFF AND PUSH20 0xFFFFFFFFFFFFFFFFFFFFFFFFFFFFFFFFFFFFFFFF AND PUSH32 0xE684A55F31B79ECA403DF938249029212A5925EC6BE8012E099B45BC1019E5D2 DUP3 PUSH1 0x5 ADD PUSH1 0x0 DUP5 PUSH1 0x4 ADD SLOAD DUP2 MSTORE PUSH1 0x20 ADD SWAP1 DUP2 MSTORE PUSH1 0x20 ADD PUSH1 0x0 KECCAK256 SLOAD PUSH1 0x40 MLOAD PUSH2 0xECF SWAP2 SWAP1 PUSH2 0x1EE8 JUMP JUMPDEST PUSH1 0x40 MLOAD DUP1 SWAP2 SUB SWAP1 LOG2 POP POP POP JUMP JUMPDEST PUSH1 0x0 DUP1 PUSH1 0x0 DUP6 PUSH20 0xFFFFFFFFFFFFFFFFFFFFFFFFFFFFFFFFFFFFFFFF AND PUSH20 0xFFFFFFFFFFFFFFFFFFFFFFFFFFFFFFFFFFFFFFFF AND DUP2 MSTORE PUSH1 0x20 ADD SWAP1 DUP2 MSTORE PUSH1 0x20 ADD PUSH1 0x0 KECCAK256 PUSH1 0x0 DUP5 DUP2 MSTORE PUSH1 0x20 ADD SWAP1 DUP2 MSTORE PUSH1 0x20 ADD PUSH1 0x0 KECCAK256 SWAP1 POP PUSH1 0x0 DUP2 PUSH1 0x7 ADD PUSH1 0x0 DUP5 PUSH20 0xFFFFFFFFFFFFFFFFFFFFFFFFFFFFFFFFFFFFFFFF AND PUSH20 0xFFFFFFFFFFFFFFFFFFFFFFFFFFFFFFFFFFFFFFFF AND DUP2 MSTORE PUSH1 0x20 ADD SWAP1 DUP2 MSTORE PUSH1 0x20 ADD PUSH1 0x0 KECCAK256 SLOAD SWAP1 POP PUSH1 0x0 DUP2 GT DUP1 ISZERO PUSH2 0xF87 JUMPI POP PUSH1 0x1 SLOAD DUP2 GT ISZERO JUMPDEST PUSH2 0xFC6 JUMPI PUSH1 0x40 MLOAD PUSH32 0x8C379A000000000000000000000000000000000000000000000000000000000 DUP2 MSTORE PUSH1 0x4 ADD PUSH2 0xFBD SWAP1 PUSH2 0x1EC8 JUMP JUMPDEST PUSH1 0x40 MLOAD DUP1 SWAP2 SUB SWAP1 REVERT JUMPDEST PUSH1 0x0 DUP3 PUSH1 0x7 ADD PUSH1 0x0 DUP6 PUSH20 0xFFFFFFFFFFFFFFFFFFFFFFFFFFFFFFFFFFFFFFFF AND PUSH20 0xFFFFFFFFFFFFFFFFFFFFFFFFFFFFFFFFFFFFFFFF AND DUP2 MSTORE PUSH1 0x20 ADD SWAP1 DUP2 MSTORE PUSH1 0x20 ADD PUSH1 0x0 KECCAK256 DUP2 SWAP1 SSTORE POP DUP3 PUSH20 0xFFFFFFFFFFFFFFFFFFFFFFFFFFFFFFFFFFFFFFFF AND PUSH2 0x8FC DUP3 SWAP1 DUP2 ISZERO MUL SWAP1 PUSH1 0x40 MLOAD PUSH1 0x0 PUSH1 0x40 MLOAD DUP1 DUP4 SUB DUP2 DUP6 DUP9 DUP9 CALL SWAP4 POP POP POP POP ISZERO DUP1 ISZERO PUSH2 0x1053 JUMPI RETURNDATASIZE PUSH1 0x0 DUP1 RETURNDATACOPY RETURNDATASIZE PUSH1 0x0 REVERT JUMPDEST POP DUP1 PUSH1 0x1 PUSH1 0x0 DUP3 DUP3 SLOAD PUSH2 0x1066 SWAP2 SWAP1 PUSH2 0x201E JUMP JUMPDEST SWAP3 POP POP DUP2 SWAP1 SSTORE POP DUP3 PUSH20 0xFFFFFFFFFFFFFFFFFFFFFFFFFFFFFFFFFFFFFFFF AND PUSH32 0x884EDAD9CE6FA2440D8A54CC123490EB96D2768479D49FF9C7366125A9424364 DUP3 PUSH1 0x40 MLOAD PUSH2 0x10B3 SWAP2 SWAP1 PUSH2 0x1EE8 JUMP JUMPDEST PUSH1 0x40 MLOAD DUP1 SWAP2 SUB SWAP1 LOG2 POP POP POP POP POP JUMP JUMPDEST PUSH1 0x1 SLOAD DUP2 JUMP JUMPDEST PUSH1 0x0 DUP1 PUSH1 0x0 DUP6 PUSH20 0xFFFFFFFFFFFFFFFFFFFFFFFFFFFFFFFFFFFFFFFF AND PUSH20 0xFFFFFFFFFFFFFFFFFFFFFFFFFFFFFFFFFFFFFFFF AND DUP2 MSTORE PUSH1 0x20 ADD SWAP1 DUP2 MSTORE PUSH1 0x20 ADD PUSH1 0x0 KECCAK256 PUSH1 0x0 DUP5 DUP2 MSTORE PUSH1 0x20 ADD SWAP1 DUP2 MSTORE PUSH1 0x20 ADD PUSH1 0x0 KECCAK256 PUSH1 0x5 ADD PUSH1 0x0 DUP4 DUP2 MSTORE PUSH1 0x20 ADD SWAP1 DUP2 MSTORE PUSH1 0x20 ADD PUSH1 0x0 KECCAK256 SLOAD SWAP1 POP SWAP4 SWAP3 POP POP POP JUMP JUMPDEST PUSH1 0x0 DUP1 PUSH1 0x0 DUP7 PUSH20 0xFFFFFFFFFFFFFFFFFFFFFFFFFFFFFFFFFFFFFFFF AND PUSH20 0xFFFFFFFFFFFFFFFFFFFFFFFFFFFFFFFFFFFFFFFF AND DUP2 MSTORE PUSH1 0x20 ADD SWAP1 DUP2 MSTORE PUSH1 0x20 ADD PUSH1 0x0 KECCAK256 PUSH1 0x0 DUP6 DUP2 MSTORE PUSH1 0x20 ADD SWAP1 DUP2 MSTORE PUSH1 0x20 ADD PUSH1 0x0 KECCAK256 SWAP1 POP DUP5 DUP2 PUSH1 0x2 ADD PUSH1 0x0 PUSH2 0x100 EXP DUP2 SLOAD DUP2 PUSH20 0xFFFFFFFFFFFFFFFFFFFFFFFFFFFFFFFFFFFFFFFF MUL NOT AND SWAP1 DUP4 PUSH20 0xFFFFFFFFFFFFFFFFFFFFFFFFFFFFFFFFFFFFFFFF AND MUL OR SWAP1 SSTORE POP DUP1 PUSH1 0x2 ADD PUSH1 0x0 SWAP1 SLOAD SWAP1 PUSH2 0x100 EXP SWAP1 DIV PUSH20 0xFFFFFFFFFFFFFFFFFFFFFFFFFFFFFFFFFFFFFFFF AND PUSH20 0xFFFFFFFFFFFFFFFFFFFFFFFFFFFFFFFFFFFFFFFF AND PUSH4 0x6352211E DUP6 PUSH1 0x40 MLOAD DUP3 PUSH4 0xFFFFFFFF AND PUSH1 0xE0 SHL DUP2 MSTORE PUSH1 0x4 ADD PUSH2 0x122A SWAP2 SWAP1 PUSH2 0x1EE8 JUMP JUMPDEST PUSH1 0x20 PUSH1 0x40 MLOAD DUP1 DUP4 SUB DUP2 DUP7 DUP1 EXTCODESIZE ISZERO DUP1 ISZERO PUSH2 0x1242 JUMPI PUSH1 0x0 DUP1 REVERT JUMPDEST POP GAS STATICCALL ISZERO DUP1 ISZERO PUSH2 0x1256 JUMPI RETURNDATASIZE PUSH1 0x0 DUP1 RETURNDATACOPY RETURNDATASIZE PUSH1 0x0 REVERT JUMPDEST POP POP POP POP PUSH1 0x40 MLOAD RETURNDATASIZE PUSH1 0x1F NOT PUSH1 0x1F DUP3 ADD AND DUP3 ADD DUP1 PUSH1 0x40 MSTORE POP DUP2 ADD SWAP1 PUSH2 0x127A SWAP2 SWAP1 PUSH2 0x1936 JUMP JUMPDEST DUP2 PUSH1 0x0 ADD PUSH1 0x0 PUSH2 0x100 EXP DUP2 SLOAD DUP2 PUSH20 0xFFFFFFFFFFFFFFFFFFFFFFFFFFFFFFFFFFFFFFFF MUL NOT AND SWAP1 DUP4 PUSH20 0xFFFFFFFFFFFFFFFFFFFFFFFFFFFFFFFFFFFFFFFF AND MUL OR SWAP1 SSTORE POP PUSH1 0x0 DUP2 PUSH1 0x0 ADD PUSH1 0x15 PUSH2 0x100 EXP DUP2 SLOAD DUP2 PUSH1 0xFF MUL NOT AND SWAP1 DUP4 ISZERO ISZERO MUL OR SWAP1 SSTORE POP DUP1 PUSH1 0x0 ADD PUSH1 0x14 SWAP1 SLOAD SWAP1 PUSH2 0x100 EXP SWAP1 DIV PUSH1 0xFF AND ISZERO PUSH2 0x132B JUMPI PUSH1 0x40 MLOAD PUSH32 0x8C379A000000000000000000000000000000000000000000000000000000000 DUP2 MSTORE PUSH1 0x4 ADD PUSH2 0x1322 SWAP1 PUSH2 0x1E08 JUMP JUMPDEST PUSH1 0x40 MLOAD DUP1 SWAP2 SUB SWAP1 REVERT JUMPDEST DUP1 PUSH1 0x0 ADD PUSH1 0x0 SWAP1 SLOAD SWAP1 PUSH2 0x100 EXP SWAP1 DIV PUSH20 0xFFFFFFFFFFFFFFFFFFFFFFFFFFFFFFFFFFFFFFFF AND PUSH20 0xFFFFFFFFFFFFFFFFFFFFFFFFFFFFFFFFFFFFFFFF AND CALLER PUSH20 0xFFFFFFFFFFFFFFFFFFFFFFFFFFFFFFFFFFFFFFFF AND EQ PUSH2 0x13BD JUMPI PUSH1 0x40 MLOAD PUSH32 0x8C379A000000000000000000000000000000000000000000000000000000000 DUP2 MSTORE PUSH1 0x4 ADD PUSH2 0x13B4 SWAP1 PUSH2 0x1E68 JUMP JUMPDEST PUSH1 0x40 MLOAD DUP1 SWAP2 SUB SWAP1 REVERT JUMPDEST PUSH1 0x0 DUP2 PUSH1 0x4 ADD DUP2 SWAP1 SSTORE POP DUP3 DUP2 PUSH1 0x5 ADD PUSH1 0x0 DUP4 PUSH1 0x4 ADD SLOAD DUP2 MSTORE PUSH1 0x20 ADD SWAP1 DUP2 MSTORE PUSH1 0x20 ADD PUSH1 0x0 KECCAK256 DUP2 SWAP1 SSTORE POP DUP1 PUSH1 0x4 ADD PUSH1 0x0 DUP2 SLOAD DUP1 SWAP3 SWAP2 SWAP1 PUSH2 0x13FA SWAP1 PUSH2 0x20D0 JUMP JUMPDEST SWAP2 SWAP1 POP SSTORE POP DUP4 DUP2 PUSH1 0x3 ADD DUP2 SWAP1 SSTORE POP DUP1 PUSH1 0x2 ADD PUSH1 0x0 SWAP1 SLOAD SWAP1 PUSH2 0x100 EXP SWAP1 DIV PUSH20 0xFFFFFFFFFFFFFFFFFFFFFFFFFFFFFFFFFFFFFFFF AND PUSH20 0xFFFFFFFFFFFFFFFFFFFFFFFFFFFFFFFFFFFFFFFF AND PUSH4 0x23B872DD CALLER ADDRESS DUP5 PUSH1 0x3 ADD SLOAD PUSH1 0x40 MLOAD DUP5 PUSH4 0xFFFFFFFF AND PUSH1 0xE0 SHL DUP2 MSTORE PUSH1 0x4 ADD PUSH2 0x146D SWAP4 SWAP3 SWAP2 SWAP1 PUSH2 0x1CC2 JUMP JUMPDEST PUSH1 0x0 PUSH1 0x40 MLOAD DUP1 DUP4 SUB DUP2 PUSH1 0x0 DUP8 DUP1 EXTCODESIZE ISZERO DUP1 ISZERO PUSH2 0x1487 JUMPI PUSH1 0x0 DUP1 REVERT JUMPDEST POP GAS CALL ISZERO DUP1 ISZERO PUSH2 0x149B JUMPI RETURNDATASIZE PUSH1 0x0 DUP1 RETURNDATACOPY RETURNDATASIZE PUSH1 0x0 REVERT JUMPDEST POP POP POP POP PUSH1 0x1 DUP2 PUSH1 0x0 ADD PUSH1 0x14 PUSH2 0x100 EXP DUP2 SLOAD DUP2 PUSH1 0xFF MUL NOT AND SWAP1 DUP4 ISZERO ISZERO MUL OR SWAP1 SSTORE POP PUSH3 0x15180 DUP3 PUSH2 0x14CB SWAP2 SWAP1 PUSH2 0x1FC4 JUMP JUMPDEST TIMESTAMP PUSH2 0x14D6 SWAP2 SWAP1 PUSH2 0x1F3D JUMP JUMPDEST DUP2 PUSH1 0x1 ADD DUP2 SWAP1 SSTORE POP DUP4 DUP6 PUSH20 0xFFFFFFFFFFFFFFFFFFFFFFFFFFFFFFFFFFFFFFFF AND PUSH32 0x3B305515DBE345238649F5CE343C57AE67D5727443F8D744B2B793C3231E3AD9 DUP6 DUP5 PUSH1 0x1 ADD SLOAD PUSH1 0x40 MLOAD PUSH2 0x152B SWAP3 SWAP2 SWAP1 PUSH2 0x1F03 JUMP JUMPDEST PUSH1 0x40 MLOAD DUP1 SWAP2 SUB SWAP1 LOG3 POP POP POP POP POP JUMP JUMPDEST PUSH1 0x0 DUP1 PUSH1 0x0 DUP6 PUSH20 0xFFFFFFFFFFFFFFFFFFFFFFFFFFFFFFFFFFFFFFFF AND PUSH20 0xFFFFFFFFFFFFFFFFFFFFFFFFFFFFFFFFFFFFFFFF AND DUP2 MSTORE PUSH1 0x20 ADD SWAP1 DUP2 MSTORE PUSH1 0x20 ADD PUSH1 0x0 KECCAK256 PUSH1 0x0 DUP5 DUP2 MSTORE PUSH1 0x20 ADD SWAP1 DUP2 MSTORE PUSH1 0x20 ADD PUSH1 0x0 KECCAK256 PUSH1 0x6 ADD PUSH1 0x0 DUP4 DUP2 MSTORE PUSH1 0x20 ADD SWAP1 DUP2 MSTORE PUSH1 0x20 ADD PUSH1 0x0 KECCAK256 PUSH1 0x0 SWAP1 SLOAD SWAP1 PUSH2 0x100 EXP SWAP1 DIV PUSH20 0xFFFFFFFFFFFFFFFFFFFFFFFFFFFFFFFFFFFFFFFF AND SWAP1 POP SWAP4 SWAP3 POP POP POP JUMP JUMPDEST PUSH1 0x0 DUP1 PUSH1 0x0 DUP5 PUSH20 0xFFFFFFFFFFFFFFFFFFFFFFFFFFFFFFFFFFFFFFFF AND PUSH20 0xFFFFFFFFFFFFFFFFFFFFFFFFFFFFFFFFFFFFFFFF AND DUP2 MSTORE PUSH1 0x20 ADD SWAP1 DUP2 MSTORE PUSH1 0x20 ADD PUSH1 0x0 KECCAK256 PUSH1 0x0 DUP4 DUP2 MSTORE PUSH1 0x20 ADD SWAP1 DUP2 MSTORE PUSH1 0x20 ADD PUSH1 0x0 KECCAK256 SWAP1 POP PUSH1 0x0 DUP2 PUSH1 0x7 ADD PUSH1 0x0 CALLER PUSH20 0xFFFFFFFFFFFFFFFFFFFFFFFFFFFFFFFFFFFFFFFF AND PUSH20 0xFFFFFFFFFFFFFFFFFFFFFFFFFFFFFFFFFFFFFFFF AND DUP2 MSTORE PUSH1 0x20 ADD SWAP1 DUP2 MSTORE PUSH1 0x20 ADD PUSH1 0x0 KECCAK256 SLOAD SWAP1 POP PUSH1 0x0 DUP2 EQ ISZERO DUP1 ISZERO PUSH2 0x1675 JUMPI POP PUSH1 0x1 SLOAD DUP2 GT ISZERO JUMPDEST PUSH2 0x16B4 JUMPI PUSH1 0x40 MLOAD PUSH32 0x8C379A000000000000000000000000000000000000000000000000000000000 DUP2 MSTORE PUSH1 0x4 ADD PUSH2 0x16AB SWAP1 PUSH2 0x1EC8 JUMP JUMPDEST PUSH1 0x40 MLOAD DUP1 SWAP2 SUB SWAP1 REVERT JUMPDEST DUP2 PUSH1 0x6 ADD PUSH1 0x0 DUP4 PUSH1 0x4 ADD SLOAD DUP2 MSTORE PUSH1 0x20 ADD SWAP1 DUP2 MSTORE PUSH1 0x20 ADD PUSH1 0x0 KECCAK256 PUSH1 0x0 SWAP1 SLOAD SWAP1 PUSH2 0x100 EXP SWAP1 DIV PUSH20 0xFFFFFFFFFFFFFFFFFFFFFFFFFFFFFFFFFFFFFFFF AND PUSH20 0xFFFFFFFFFFFFFFFFFFFFFFFFFFFFFFFFFFFFFFFF AND CALLER PUSH20 0xFFFFFFFFFFFFFFFFFFFFFFFFFFFFFFFFFFFFFFFF AND EQ ISZERO PUSH2 0x173E JUMPI PUSH1 0x1 DUP3 PUSH1 0x4 ADD PUSH1 0x0 DUP3 DUP3 SLOAD PUSH2 0x1736 SWAP2 SWAP1 PUSH2 0x201E JUMP JUMPDEST SWAP3 POP POP DUP2 SWAP1 SSTORE POP JUMPDEST PUSH1 0x0 DUP3 PUSH1 0x7 ADD PUSH1 0x0 CALLER PUSH20 0xFFFFFFFFFFFFFFFFFFFFFFFFFFFFFFFFFFFFFFFF AND PUSH20 0xFFFFFFFFFFFFFFFFFFFFFFFFFFFFFFFFFFFFFFFF AND DUP2 MSTORE PUSH1 0x20 ADD SWAP1 DUP2 MSTORE PUSH1 0x20 ADD PUSH1 0x0 KECCAK256 DUP2 SWAP1 SSTORE POP CALLER PUSH20 0xFFFFFFFFFFFFFFFFFFFFFFFFFFFFFFFFFFFFFFFF AND PUSH2 0x8FC DUP3 SWAP1 DUP2 ISZERO MUL SWAP1 PUSH1 0x40 MLOAD PUSH1 0x0 PUSH1 0x40 MLOAD DUP1 DUP4 SUB DUP2 DUP6 DUP9 DUP9 CALL SWAP4 POP POP POP POP ISZERO DUP1 ISZERO PUSH2 0x17CB JUMPI RETURNDATASIZE PUSH1 0x0 DUP1 RETURNDATACOPY RETURNDATASIZE PUSH1 0x0 REVERT JUMPDEST POP DUP1 PUSH1 0x1 PUSH1 0x0 DUP3 DUP3 SLOAD PUSH2 0x17DE SWAP2 SWAP1 PUSH2 0x201E JUMP JUMPDEST SWAP3 POP POP DUP2 SWAP1 SSTORE POP CALLER PUSH20 0xFFFFFFFFFFFFFFFFFFFFFFFFFFFFFFFFFFFFFFFF AND PUSH32 0x884EDAD9CE6FA2440D8A54CC123490EB96D2768479D49FF9C7366125A9424364 DUP3 PUSH1 0x40 MLOAD PUSH2 0x182B SWAP2 SWAP1 PUSH2 0x1EE8 JUMP JUMPDEST PUSH1 0x40 MLOAD DUP1 SWAP2 SUB SWAP1 LOG2 POP POP POP POP JUMP JUMPDEST PUSH1 0x0 PUSH1 0x20 MSTORE DUP2 PUSH1 0x0 MSTORE PUSH1 0x40 PUSH1 0x0 KECCAK256 PUSH1 0x20 MSTORE DUP1 PUSH1 0x0 MSTORE PUSH1 0x40 PUSH1 0x0 KECCAK256 PUSH1 0x0 SWAP2 POP SWAP2 POP POP DUP1 PUSH1 0x0 ADD PUSH1 0x0 SWAP1 SLOAD SWAP1 PUSH2 0x100 EXP SWAP1 DIV PUSH20 0xFFFFFFFFFFFFFFFFFFFFFFFFFFFFFFFFFFFFFFFF AND SWAP1 DUP1 PUSH1 0x0 ADD PUSH1 0x14 SWAP1 SLOAD SWAP1 PUSH2 0x100 EXP SWAP1 DIV PUSH1 0xFF AND SWAP1 DUP1 PUSH1 0x0 ADD PUSH1 0x15 SWAP1 SLOAD SWAP1 PUSH2 0x100 EXP SWAP1 DIV PUSH1 0xFF AND SWAP1 DUP1 PUSH1 0x1 ADD SLOAD SWAP1 DUP1 PUSH1 0x2 ADD PUSH1 0x0 SWAP1 SLOAD SWAP1 PUSH2 0x100 EXP SWAP1 DIV PUSH20 0xFFFFFFFFFFFFFFFFFFFFFFFFFFFFFFFFFFFFFFFF AND SWAP1 DUP1 PUSH1 0x3 ADD SLOAD SWAP1 DUP1 PUSH1 0x4 ADD SLOAD SWAP1 POP DUP8 JUMP JUMPDEST PUSH1 0x0 DUP2 CALLDATALOAD SWAP1 POP PUSH2 0x18F1 DUP2 PUSH2 0x22ED JUMP JUMPDEST SWAP3 SWAP2 POP POP JUMP JUMPDEST PUSH1 0x0 DUP2 MLOAD SWAP1 POP PUSH2 0x1906 DUP2 PUSH2 0x22ED JUMP JUMPDEST SWAP3 SWAP2 POP POP JUMP JUMPDEST PUSH1 0x0 DUP2 CALLDATALOAD SWAP1 POP PUSH2 0x191B DUP2 PUSH2 0x2304 JUMP JUMPDEST SWAP3 SWAP2 POP POP JUMP JUMPDEST PUSH1 0x0 DUP2 MLOAD SWAP1 POP PUSH2 0x1930 DUP2 PUSH2 0x2304 JUMP JUMPDEST SWAP3 SWAP2 POP POP JUMP JUMPDEST PUSH1 0x0 PUSH1 0x20 DUP3 DUP5 SUB SLT ISZERO PUSH2 0x194C JUMPI PUSH2 0x194B PUSH2 0x2177 JUMP JUMPDEST JUMPDEST PUSH1 0x0 PUSH2 0x195A DUP5 DUP3 DUP6 ADD PUSH2 0x18F7 JUMP JUMPDEST SWAP2 POP POP SWAP3 SWAP2 POP POP JUMP JUMPDEST PUSH1 0x0 DUP1 PUSH1 0x0 PUSH1 0x60 DUP5 DUP7 SUB SLT ISZERO PUSH2 0x197C JUMPI PUSH2 0x197B PUSH2 0x2177 JUMP JUMPDEST JUMPDEST PUSH1 0x0 PUSH2 0x198A DUP7 DUP3 DUP8 ADD PUSH2 0x18E2 JUMP JUMPDEST SWAP4 POP POP PUSH1 0x20 PUSH2 0x199B DUP7 DUP3 DUP8 ADD PUSH2 0x18E2 JUMP JUMPDEST SWAP3 POP POP PUSH1 0x40 PUSH2 0x19AC DUP7 DUP3 DUP8 ADD PUSH2 0x190C JUMP JUMPDEST SWAP2 POP POP SWAP3 POP SWAP3 POP SWAP3 JUMP JUMPDEST PUSH1 0x0 DUP1 PUSH1 0x40 DUP4 DUP6 SUB SLT ISZERO PUSH2 0x19CD JUMPI PUSH2 0x19CC PUSH2 0x2177 JUMP JUMPDEST JUMPDEST PUSH1 0x0 PUSH2 0x19DB DUP6 DUP3 DUP7 ADD PUSH2 0x18E2 JUMP JUMPDEST SWAP3 POP POP PUSH1 0x20 PUSH2 0x19EC DUP6 DUP3 DUP7 ADD PUSH2 0x190C JUMP JUMPDEST SWAP2 POP POP SWAP3 POP SWAP3 SWAP1 POP JUMP JUMPDEST PUSH1 0x0 DUP1 PUSH1 0x0 PUSH1 0x60 DUP5 DUP7 SUB SLT ISZERO PUSH2 0x1A0F JUMPI PUSH2 0x1A0E PUSH2 0x2177 JUMP JUMPDEST JUMPDEST PUSH1 0x0 PUSH2 0x1A1D DUP7 DUP3 DUP8 ADD PUSH2 0x18E2 JUMP JUMPDEST SWAP4 POP POP PUSH1 0x20 PUSH2 0x1A2E DUP7 DUP3 DUP8 ADD PUSH2 0x190C JUMP JUMPDEST SWAP3 POP POP PUSH1 0x40 PUSH2 0x1A3F DUP7 DUP3 DUP8 ADD PUSH2 0x18E2 JUMP JUMPDEST SWAP2 POP POP SWAP3 POP SWAP3 POP SWAP3 JUMP JUMPDEST PUSH1 0x0 DUP1 PUSH1 0x0 PUSH1 0x60 DUP5 DUP7 SUB SLT ISZERO PUSH2 0x1A62 JUMPI PUSH2 0x1A61 PUSH2 0x2177 JUMP JUMPDEST JUMPDEST PUSH1 0x0 PUSH2 0x1A70 DUP7 DUP3 DUP8 ADD PUSH2 0x18E2 JUMP JUMPDEST SWAP4 POP POP PUSH1 0x20 PUSH2 0x1A81 DUP7 DUP3 DUP8 ADD PUSH2 0x190C JUMP JUMPDEST SWAP3 POP POP PUSH1 0x40 PUSH2 0x1A92 DUP7 DUP3 DUP8 ADD PUSH2 0x190C JUMP JUMPDEST SWAP2 POP POP SWAP3 POP SWAP3 POP SWAP3 JUMP JUMPDEST PUSH1 0x0 DUP1 PUSH1 0x0 DUP1 PUSH1 0x80 DUP6 DUP8 SUB SLT ISZERO PUSH2 0x1AB6 JUMPI PUSH2 0x1AB5 PUSH2 0x2177 JUMP JUMPDEST JUMPDEST PUSH1 0x0 PUSH2 0x1AC4 DUP8 DUP3 DUP9 ADD PUSH2 0x18E2 JUMP JUMPDEST SWAP5 POP POP PUSH1 0x20 PUSH2 0x1AD5 DUP8 DUP3 DUP9 ADD PUSH2 0x190C JUMP JUMPDEST SWAP4 POP POP PUSH1 0x40 PUSH2 0x1AE6 DUP8 DUP3 DUP9 ADD PUSH2 0x190C JUMP JUMPDEST SWAP3 POP POP PUSH1 0x60 PUSH2 0x1AF7 DUP8 DUP3 DUP9 ADD PUSH2 0x190C JUMP JUMPDEST SWAP2 POP POP SWAP3 SWAP6 SWAP2 SWAP5 POP SWAP3 POP JUMP JUMPDEST PUSH1 0x0 PUSH1 0x20 DUP3 DUP5 SUB SLT ISZERO PUSH2 0x1B19 JUMPI PUSH2 0x1B18 PUSH2 0x2177 JUMP JUMPDEST JUMPDEST PUSH1 0x0 PUSH2 0x1B27 DUP5 DUP3 DUP6 ADD PUSH2 0x1921 JUMP JUMPDEST SWAP2 POP POP SWAP3 SWAP2 POP POP JUMP JUMPDEST PUSH2 0x1B39 DUP2 PUSH2 0x2052 JUMP JUMPDEST DUP3 MSTORE POP POP JUMP JUMPDEST PUSH2 0x1B48 DUP2 PUSH2 0x2064 JUMP JUMPDEST DUP3 MSTORE POP POP JUMP JUMPDEST PUSH2 0x1B57 DUP2 PUSH2 0x209A JUMP JUMPDEST DUP3 MSTORE POP POP JUMP JUMPDEST PUSH1 0x0 PUSH2 0x1B6A PUSH1 0xA DUP4 PUSH2 0x1F2C JUMP JUMPDEST SWAP2 POP PUSH2 0x1B75 DUP3 PUSH2 0x217C JUMP JUMPDEST PUSH1 0x20 DUP3 ADD SWAP1 POP SWAP2 SWAP1 POP JUMP JUMPDEST PUSH1 0x0 PUSH2 0x1B8D PUSH1 0x19 DUP4 PUSH2 0x1F2C JUMP JUMPDEST SWAP2 POP PUSH2 0x1B98 DUP3 PUSH2 0x21A5 JUMP JUMPDEST PUSH1 0x20 DUP3 ADD SWAP1 POP SWAP2 SWAP1 POP JUMP JUMPDEST PUSH1 0x0 PUSH2 0x1BB0 PUSH1 0x10 DUP4 PUSH2 0x1F2C JUMP JUMPDEST SWAP2 POP PUSH2 0x1BBB DUP3 PUSH2 0x21CE JUMP JUMPDEST PUSH1 0x20 DUP3 ADD SWAP1 POP SWAP2 SWAP1 POP JUMP JUMPDEST PUSH1 0x0 PUSH2 0x1BD3 PUSH1 0x6 DUP4 PUSH2 0x1F2C JUMP JUMPDEST SWAP2 POP PUSH2 0x1BDE DUP3 PUSH2 0x21F7 JUMP JUMPDEST PUSH1 0x20 DUP3 ADD SWAP1 POP SWAP2 SWAP1 POP JUMP JUMPDEST PUSH1 0x0 PUSH2 0x1BF6 PUSH1 0x18 DUP4 PUSH2 0x1F2C JUMP JUMPDEST SWAP2 POP PUSH2 0x1C01 DUP3 PUSH2 0x2220 JUMP JUMPDEST PUSH1 0x20 DUP3 ADD SWAP1 POP SWAP2 SWAP1 POP JUMP JUMPDEST PUSH1 0x0 PUSH2 0x1C19 PUSH1 0x1E DUP4 PUSH2 0x1F2C JUMP JUMPDEST SWAP2 POP PUSH2 0x1C24 DUP3 PUSH2 0x2249 JUMP JUMPDEST PUSH1 0x20 DUP3 ADD SWAP1 POP SWAP2 SWAP1 POP JUMP JUMPDEST PUSH1 0x0 PUSH2 0x1C3C PUSH1 0xC DUP4 PUSH2 0x1F2C JUMP JUMPDEST SWAP2 POP PUSH2 0x1C47 DUP3 PUSH2 0x2272 JUMP JUMPDEST PUSH1 0x20 DUP3 ADD SWAP1 POP SWAP2 SWAP1 POP JUMP JUMPDEST PUSH1 0x0 PUSH2 0x1C5F PUSH1 0x16 DUP4 PUSH2 0x1F2C JUMP JUMPDEST SWAP2 POP PUSH2 0x1C6A DUP3 PUSH2 0x229B JUMP JUMPDEST PUSH1 0x20 DUP3 ADD SWAP1 POP SWAP2 SWAP1 POP JUMP JUMPDEST PUSH1 0x0 PUSH2 0x1C82 PUSH1 0x12 DUP4 PUSH2 0x1F2C JUMP JUMPDEST SWAP2 POP PUSH2 0x1C8D DUP3 PUSH2 0x22C4 JUMP JUMPDEST PUSH1 0x20 DUP3 ADD SWAP1 POP SWAP2 SWAP1 POP JUMP JUMPDEST PUSH2 0x1CA1 DUP2 PUSH2 0x2090 JUMP JUMPDEST DUP3 MSTORE POP POP JUMP JUMPDEST PUSH1 0x0 PUSH1 0x20 DUP3 ADD SWAP1 POP PUSH2 0x1CBC PUSH1 0x0 DUP4 ADD DUP5 PUSH2 0x1B30 JUMP JUMPDEST SWAP3 SWAP2 POP POP JUMP JUMPDEST PUSH1 0x0 PUSH1 0x60 DUP3 ADD SWAP1 POP PUSH2 0x1CD7 PUSH1 0x0 DUP4 ADD DUP7 PUSH2 0x1B30 JUMP JUMPDEST PUSH2 0x1CE4 PUSH1 0x20 DUP4 ADD DUP6 PUSH2 0x1B30 JUMP JUMPDEST PUSH2 0x1CF1 PUSH1 0x40 DUP4 ADD DUP5 PUSH2 0x1C98 JUMP JUMPDEST SWAP5 SWAP4 POP POP POP POP JUMP JUMPDEST PUSH1 0x0 PUSH1 0xE0 DUP3 ADD SWAP1 POP PUSH2 0x1D0E PUSH1 0x0 DUP4 ADD DUP11 PUSH2 0x1B30 JUMP JUMPDEST PUSH2 0x1D1B PUSH1 0x20 DUP4 ADD DUP10 PUSH2 0x1B3F JUMP JUMPDEST PUSH2 0x1D28 PUSH1 0x40 DUP4 ADD DUP9 PUSH2 0x1B3F JUMP JUMPDEST PUSH2 0x1D35 PUSH1 0x60 DUP4 ADD DUP8 PUSH2 0x1C98 JUMP JUMPDEST PUSH2 0x1D42 PUSH1 0x80 DUP4 ADD DUP7 PUSH2 0x1B4E JUMP JUMPDEST PUSH2 0x1D4F PUSH1 0xA0 DUP4 ADD DUP6 PUSH2 0x1C98 JUMP JUMPDEST PUSH2 0x1D5C PUSH1 0xC0 DUP4 ADD DUP5 PUSH2 0x1C98 JUMP JUMPDEST SWAP9 SWAP8 POP POP POP POP POP POP POP POP JUMP JUMPDEST PUSH1 0x0 PUSH1 0x40 DUP3 ADD SWAP1 POP PUSH2 0x1D7D PUSH1 0x0 DUP4 ADD DUP6 PUSH2 0x1B30 JUMP JUMPDEST PUSH2 0x1D8A PUSH1 0x20 DUP4 ADD DUP5 PUSH2 0x1C98 JUMP JUMPDEST SWAP4 SWAP3 POP POP POP JUMP JUMPDEST PUSH1 0x0 PUSH1 0x60 DUP3 ADD SWAP1 POP PUSH2 0x1DA6 PUSH1 0x0 DUP4 ADD DUP7 PUSH2 0x1B30 JUMP JUMPDEST PUSH2 0x1DB3 PUSH1 0x20 DUP4 ADD DUP6 PUSH2 0x1C98 JUMP JUMPDEST PUSH2 0x1DC0 PUSH1 0x40 DUP4 ADD DUP5 PUSH2 0x1C98 JUMP JUMPDEST SWAP5 SWAP4 POP POP POP POP JUMP JUMPDEST PUSH1 0x0 PUSH1 0x20 DUP3 ADD SWAP1 POP DUP2 DUP2 SUB PUSH1 0x0 DUP4 ADD MSTORE PUSH2 0x1DE1 DUP2 PUSH2 0x1B5D JUMP JUMPDEST SWAP1 POP SWAP2 SWAP1 POP JUMP JUMPDEST PUSH1 0x0 PUSH1 0x20 DUP3 ADD SWAP1 POP DUP2 DUP2 SUB PUSH1 0x0 DUP4 ADD MSTORE PUSH2 0x1E01 DUP2 PUSH2 0x1B80 JUMP JUMPDEST SWAP1 POP SWAP2 SWAP1 POP JUMP JUMPDEST PUSH1 0x0 PUSH1 0x20 DUP3 ADD SWAP1 POP DUP2 DUP2 SUB PUSH1 0x0 DUP4 ADD MSTORE PUSH2 0x1E21 DUP2 PUSH2 0x1BA3 JUMP JUMPDEST SWAP1 POP SWAP2 SWAP1 POP JUMP JUMPDEST PUSH1 0x0 PUSH1 0x20 DUP3 ADD SWAP1 POP DUP2 DUP2 SUB PUSH1 0x0 DUP4 ADD MSTORE PUSH2 0x1E41 DUP2 PUSH2 0x1BC6 JUMP JUMPDEST SWAP1 POP SWAP2 SWAP1 POP JUMP JUMPDEST PUSH1 0x0 PUSH1 0x20 DUP3 ADD SWAP1 POP DUP2 DUP2 SUB PUSH1 0x0 DUP4 ADD MSTORE PUSH2 0x1E61 DUP2 PUSH2 0x1BE9 JUMP JUMPDEST SWAP1 POP SWAP2 SWAP1 POP JUMP JUMPDEST PUSH1 0x0 PUSH1 0x20 DUP3 ADD SWAP1 POP DUP2 DUP2 SUB PUSH1 0x0 DUP4 ADD MSTORE PUSH2 0x1E81 DUP2 PUSH2 0x1C0C JUMP JUMPDEST SWAP1 POP SWAP2 SWAP1 POP JUMP JUMPDEST PUSH1 0x0 PUSH1 0x20 DUP3 ADD SWAP1 POP DUP2 DUP2 SUB PUSH1 0x0 DUP4 ADD MSTORE PUSH2 0x1EA1 DUP2 PUSH2 0x1C2F JUMP JUMPDEST SWAP1 POP SWAP2 SWAP1 POP JUMP JUMPDEST PUSH1 0x0 PUSH1 0x20 DUP3 ADD SWAP1 POP DUP2 DUP2 SUB PUSH1 0x0 DUP4 ADD MSTORE PUSH2 0x1EC1 DUP2 PUSH2 0x1C52 JUMP JUMPDEST SWAP1 POP SWAP2 SWAP1 POP JUMP JUMPDEST PUSH1 0x0 PUSH1 0x20 DUP3 ADD SWAP1 POP DUP2 DUP2 SUB PUSH1 0x0 DUP4 ADD MSTORE PUSH2 0x1EE1 DUP2 PUSH2 0x1C75 JUMP JUMPDEST SWAP1 POP SWAP2 SWAP1 POP JUMP JUMPDEST PUSH1 0x0 PUSH1 0x20 DUP3 ADD SWAP1 POP PUSH2 0x1EFD PUSH1 0x0 DUP4 ADD DUP5 PUSH2 0x1C98 JUMP JUMPDEST SWAP3 SWAP2 POP POP JUMP JUMPDEST PUSH1 0x0 PUSH1 0x40 DUP3 ADD SWAP1 POP PUSH2 0x1F18 PUSH1 0x0 DUP4 ADD DUP6 PUSH2 0x1C98 JUMP JUMPDEST PUSH2 0x1F25 PUSH1 0x20 DUP4 ADD DUP5 PUSH2 0x1C98 JUMP JUMPDEST SWAP4 SWAP3 POP POP POP JUMP JUMPDEST PUSH1 0x0 DUP3 DUP3 MSTORE PUSH1 0x20 DUP3 ADD SWAP1 POP SWAP3 SWAP2 POP POP JUMP JUMPDEST PUSH1 0x0 PUSH2 0x1F48 DUP3 PUSH2 0x2090 JUMP JUMPDEST SWAP2 POP PUSH2 0x1F53 DUP4 PUSH2 0x2090 JUMP JUMPDEST SWAP3 POP DUP3 PUSH32 0xFFFFFFFFFFFFFFFFFFFFFFFFFFFFFFFFFFFFFFFFFFFFFFFFFFFFFFFFFFFFFFFF SUB DUP3 GT ISZERO PUSH2 0x1F88 JUMPI PUSH2 0x1F87 PUSH2 0x2119 JUMP JUMPDEST JUMPDEST DUP3 DUP3 ADD SWAP1 POP SWAP3 SWAP2 POP POP JUMP JUMPDEST PUSH1 0x0 PUSH2 0x1F9E DUP3 PUSH2 0x2090 JUMP JUMPDEST SWAP2 POP PUSH2 0x1FA9 DUP4 PUSH2 0x2090 JUMP JUMPDEST SWAP3 POP DUP3 PUSH2 0x1FB9 JUMPI PUSH2 0x1FB8 PUSH2 0x2148 JUMP JUMPDEST JUMPDEST DUP3 DUP3 DIV SWAP1 POP SWAP3 SWAP2 POP POP JUMP JUMPDEST PUSH1 0x0 PUSH2 0x1FCF DUP3 PUSH2 0x2090 JUMP JUMPDEST SWAP2 POP PUSH2 0x1FDA DUP4 PUSH2 0x2090 JUMP JUMPDEST SWAP3 POP DUP2 PUSH32 0xFFFFFFFFFFFFFFFFFFFFFFFFFFFFFFFFFFFFFFFFFFFFFFFFFFFFFFFFFFFFFFFF DIV DUP4 GT DUP3 ISZERO ISZERO AND ISZERO PUSH2 0x2013 JUMPI PUSH2 0x2012 PUSH2 0x2119 JUMP JUMPDEST JUMPDEST DUP3 DUP3 MUL SWAP1 POP SWAP3 SWAP2 POP POP JUMP JUMPDEST PUSH1 0x0 PUSH2 0x2029 DUP3 PUSH2 0x2090 JUMP JUMPDEST SWAP2 POP PUSH2 0x2034 DUP4 PUSH2 0x2090 JUMP JUMPDEST SWAP3 POP DUP3 DUP3 LT ISZERO PUSH2 0x2047 JUMPI PUSH2 0x2046 PUSH2 0x2119 JUMP JUMPDEST JUMPDEST DUP3 DUP3 SUB SWAP1 POP SWAP3 SWAP2 POP POP JUMP JUMPDEST PUSH1 0x0 PUSH2 0x205D DUP3 PUSH2 0x2070 JUMP JUMPDEST SWAP1 POP SWAP2 SWAP1 POP JUMP JUMPDEST PUSH1 0x0 DUP2 ISZERO ISZERO SWAP1 POP SWAP2 SWAP1 POP JUMP JUMPDEST PUSH1 0x0 PUSH20 0xFFFFFFFFFFFFFFFFFFFFFFFFFFFFFFFFFFFFFFFF DUP3 AND SWAP1 POP SWAP2 SWAP1 POP JUMP JUMPDEST PUSH1 0x0 DUP2 SWAP1 POP SWAP2 SWAP1 POP JUMP JUMPDEST PUSH1 0x0 PUSH2 0x20A5 DUP3 PUSH2 0x20AC JUMP JUMPDEST SWAP1 POP SWAP2 SWAP1 POP JUMP JUMPDEST PUSH1 0x0 PUSH2 0x20B7 DUP3 PUSH2 0x20BE JUMP JUMPDEST SWAP1 POP SWAP2 SWAP1 POP JUMP JUMPDEST PUSH1 0x0 PUSH2 0x20C9 DUP3 PUSH2 0x2070 JUMP JUMPDEST SWAP1 POP SWAP2 SWAP1 POP JUMP JUMPDEST PUSH1 0x0 PUSH2 0x20DB DUP3 PUSH2 0x2090 JUMP JUMPDEST SWAP2 POP PUSH32 0xFFFFFFFFFFFFFFFFFFFFFFFFFFFFFFFFFFFFFFFFFFFFFFFFFFFFFFFFFFFFFFFF DUP3 EQ ISZERO PUSH2 0x210E JUMPI PUSH2 0x210D PUSH2 0x2119 JUMP JUMPDEST JUMPDEST PUSH1 0x1 DUP3 ADD SWAP1 POP SWAP2 SWAP1 POP JUMP JUMPDEST PUSH32 0x4E487B7100000000000000000000000000000000000000000000000000000000 PUSH1 0x0 MSTORE PUSH1 0x11 PUSH1 0x4 MSTORE PUSH1 0x24 PUSH1 0x0 REVERT JUMPDEST PUSH32 0x4E487B7100000000000000000000000000000000000000000000000000000000 PUSH1 0x0 MSTORE PUSH1 0x12 PUSH1 0x4 MSTORE PUSH1 0x24 PUSH1 0x0 REVERT JUMPDEST PUSH1 0x0 DUP1 REVERT JUMPDEST PUSH32 0x4C6F776572206269642100000000000000000000000000000000000000000000 PUSH1 0x0 DUP3 ADD MSTORE POP JUMP JUMPDEST PUSH32 0x41756374696F6E206973207374696C6C206F6E676F696E672100000000000000 PUSH1 0x0 DUP3 ADD MSTORE POP JUMP JUMPDEST PUSH32 0x416C726561647920737461727465642100000000000000000000000000000000 PUSH1 0x0 DUP3 ADD MSTORE POP JUMP JUMPDEST PUSH32 0x456E646564210000000000000000000000000000000000000000000000000000 PUSH1 0x0 DUP3 ADD MSTORE POP JUMP JUMPDEST PUSH32 0x596F75206E65656420746F207374617274206669727374210000000000000000 PUSH1 0x0 DUP3 ADD MSTORE POP JUMP JUMPDEST PUSH32 0x596F752063616E206E6F74207374617274207468652061756374696F6E210000 PUSH1 0x0 DUP3 ADD MSTORE POP JUMP JUMPDEST PUSH32 0x4E6F7420737461727465642E0000000000000000000000000000000000000000 PUSH1 0x0 DUP3 ADD MSTORE POP JUMP JUMPDEST PUSH32 0x41756374696F6E20616C726561647920656E6465642100000000000000000000 PUSH1 0x0 DUP3 ADD MSTORE POP JUMP JUMPDEST PUSH32 0x436F756C64206E6F742077697468647261770000000000000000000000000000 PUSH1 0x0 DUP3 ADD MSTORE POP JUMP JUMPDEST PUSH2 0x22F6 DUP2 PUSH2 0x2052 JUMP JUMPDEST DUP2 EQ PUSH2 0x2301 JUMPI PUSH1 0x0 DUP1 REVERT JUMPDEST POP JUMP JUMPDEST PUSH2 0x230D DUP2 PUSH2 0x2090 JUMP JUMPDEST DUP2 EQ PUSH2 0x2318 JUMPI PUSH1 0x0 DUP1 REVERT JUMPDEST POP JUMP INVALID LOG2 PUSH5 0x6970667358 0x22 SLT KECCAK256 SHL 0x4B SGT ADDMOD GAS 0xAD PUSH5 0x31186C5861 0xA6 0x1F 0xAB 0x2D 0xEE 0xD0 PUSH21 0x84F5751AC14CB6419078F72E5A64736F6C63430008 SMOD STOP CALLER "
				},
				"gasEstimates": {
					"creation": {
						"codeDepositCost": "1808200",
						"executionCost": "1905",
						"totalCost": "1810105"
					},
					"external": {
						"autoWithdraw(address,uint256,address)": "infinite",
						"balances()": "2518",
						"bid(address,uint256)": "infinite",
						"biddings(address,uint256)": "infinite",
						"end(address,address,uint256)": "infinite",
						"getBids(address,uint256,address)": "infinite",
						"getHighestBid(address,uint256,uint256)": "infinite",
						"getHighestBidder(address,uint256,uint256)": "infinite",
						"start(address,uint256,uint256,uint256)": "infinite",
						"withdraw(address,uint256)": "infinite"
					}
				},
				"methodIdentifiers": {
					"autoWithdraw(address,uint256,address)": "699ff43f",
					"balances()": "7bb98a68",
					"bid(address,uint256)": "59d667a5",
					"biddings(address,uint256)": "f48e9b3d",
					"end(address,address,uint256)": "545c285c",
					"getBids(address,uint256,address)": "57354ed1",
					"getHighestBid(address,uint256,uint256)": "b0651dce",
					"getHighestBidder(address,uint256,uint256)": "bd15bf4e",
					"start(address,uint256,uint256,uint256)": "b76a3b5a",
					"withdraw(address,uint256)": "f3fef3a3"
				}
			},
			"storageLayout": {
				"storage": [
					{
						"astId": 79,
						"contract": "Bid.sol:Auction",
						"label": "biddings",
						"offset": 0,
						"slot": "0",
						"type": "t_mapping(t_address,t_mapping(t_uint256,t_struct(Bidding)109_storage))"
					},
					{
						"astId": 81,
						"contract": "Bid.sol:Auction",
						"label": "balances",
						"offset": 0,
						"slot": "1",
						"type": "t_uint256"
					}
				],
				"types": {
					"t_address": {
						"encoding": "inplace",
						"label": "address",
						"numberOfBytes": "20"
					},
					"t_bool": {
						"encoding": "inplace",
						"label": "bool",
						"numberOfBytes": "1"
					},
					"t_contract(ERC721)18": {
						"encoding": "inplace",
						"label": "contract ERC721",
						"numberOfBytes": "20"
					},
					"t_mapping(t_address,t_mapping(t_uint256,t_struct(Bidding)109_storage))": {
						"encoding": "mapping",
						"key": "t_address",
						"label": "mapping(address => mapping(uint256 => struct Auction.Bidding))",
						"numberOfBytes": "32",
						"value": "t_mapping(t_uint256,t_struct(Bidding)109_storage)"
					},
					"t_mapping(t_address,t_uint256)": {
						"encoding": "mapping",
						"key": "t_address",
						"label": "mapping(address => uint256)",
						"numberOfBytes": "32",
						"value": "t_uint256"
					},
					"t_mapping(t_uint256,t_address)": {
						"encoding": "mapping",
						"key": "t_uint256",
						"label": "mapping(uint256 => address)",
						"numberOfBytes": "32",
						"value": "t_address"
					},
					"t_mapping(t_uint256,t_struct(Bidding)109_storage)": {
						"encoding": "mapping",
						"key": "t_uint256",
						"label": "mapping(uint256 => struct Auction.Bidding)",
						"numberOfBytes": "32",
						"value": "t_struct(Bidding)109_storage"
					},
					"t_mapping(t_uint256,t_uint256)": {
						"encoding": "mapping",
						"key": "t_uint256",
						"label": "mapping(uint256 => uint256)",
						"numberOfBytes": "32",
						"value": "t_uint256"
					},
					"t_struct(Bidding)109_storage": {
						"encoding": "inplace",
						"label": "struct Auction.Bidding",
						"members": [
							{
								"astId": 83,
								"contract": "Bid.sol:Auction",
								"label": "seller",
								"offset": 0,
								"slot": "0",
								"type": "t_address"
							},
							{
								"astId": 85,
								"contract": "Bid.sol:Auction",
								"label": "started",
								"offset": 20,
								"slot": "0",
								"type": "t_bool"
							},
							{
								"astId": 87,
								"contract": "Bid.sol:Auction",
								"label": "ended",
								"offset": 21,
								"slot": "0",
								"type": "t_bool"
							},
							{
								"astId": 89,
								"contract": "Bid.sol:Auction",
								"label": "endAt",
								"offset": 0,
								"slot": "1",
								"type": "t_uint256"
							},
							{
								"astId": 92,
								"contract": "Bid.sol:Auction",
								"label": "tokenAddr",
								"offset": 0,
								"slot": "2",
								"type": "t_contract(ERC721)18"
							},
							{
								"astId": 94,
								"contract": "Bid.sol:Auction",
								"label": "tokenId",
								"offset": 0,
								"slot": "3",
								"type": "t_uint256"
							},
							{
								"astId": 96,
								"contract": "Bid.sol:Auction",
								"label": "bidCount",
								"offset": 0,
								"slot": "4",
								"type": "t_uint256"
							},
							{
								"astId": 100,
								"contract": "Bid.sol:Auction",
								"label": "highestBid",
								"offset": 0,
								"slot": "5",
								"type": "t_mapping(t_uint256,t_uint256)"
							},
							{
								"astId": 104,
								"contract": "Bid.sol:Auction",
								"label": "highestBidder",
								"offset": 0,
								"slot": "6",
								"type": "t_mapping(t_uint256,t_address)"
							},
							{
								"astId": 108,
								"contract": "Bid.sol:Auction",
								"label": "bids",
								"offset": 0,
								"slot": "7",
								"type": "t_mapping(t_address,t_uint256)"
							}
						],
						"numberOfBytes": "256"
					},
					"t_uint256": {
						"encoding": "inplace",
						"label": "uint256",
						"numberOfBytes": "32"
					}
				}
			},
			"userdoc": {
				"kind": "user",
				"methods": {},
				"version": 1
			}
		}
	}
}