{
	"MarketERC721.sol": {
		"Market": {
			"abi": [
				{
					"anonymous": false,
					"inputs": [
						{
							"indexed": true,
							"internalType": "address",
							"name": "owner",
							"type": "address"
						},
						{
							"indexed": true,
							"internalType": "uint256",
							"name": "tokenId",
							"type": "uint256"
						},
						{
							"indexed": false,
							"internalType": "uint256",
							"name": "price",
							"type": "uint256"
						},
						{
							"indexed": true,
							"internalType": "bool",
							"name": "isListing",
							"type": "bool"
						}
					],
					"name": "List",
					"type": "event"
				},
				{
					"anonymous": false,
					"inputs": [
						{
							"indexed": true,
							"internalType": "address",
							"name": "previousOwner",
							"type": "address"
						},
						{
							"indexed": true,
							"internalType": "address",
							"name": "newOwner",
							"type": "address"
						}
					],
					"name": "OwnershipTransferred",
					"type": "event"
				},
				{
					"inputs": [
						{
							"internalType": "uint256",
							"name": "price",
							"type": "uint256"
						},
						{
							"internalType": "address",
							"name": "contractAddr",
							"type": "address"
						},
						{
							"internalType": "uint256",
							"name": "tokenId",
							"type": "uint256"
						}
					],
					"name": "addListing",
					"outputs": [],
					"stateMutability": "nonpayable",
					"type": "function"
				},
				{
					"inputs": [
						{
							"internalType": "address",
							"name": "contractAddr",
							"type": "address"
						},
						{
							"internalType": "uint256",
							"name": "tokenId",
							"type": "uint256"
						}
					],
					"name": "cancelListing",
					"outputs": [],
					"stateMutability": "nonpayable",
					"type": "function"
				},
				{
					"inputs": [
						{
							"internalType": "address",
							"name": "contractAddr",
							"type": "address"
						},
						{
							"internalType": "uint256",
							"name": "tokenId",
							"type": "uint256"
						}
					],
					"name": "getIsListing",
					"outputs": [
						{
							"internalType": "bool",
							"name": "isListing",
							"type": "bool"
						}
					],
					"stateMutability": "view",
					"type": "function"
				},
				{
					"inputs": [
						{
							"internalType": "address",
							"name": "contractAddr",
							"type": "address"
						},
						{
							"internalType": "uint256",
							"name": "tokenId",
							"type": "uint256"
						}
					],
					"name": "getOwner",
					"outputs": [
						{
							"internalType": "address",
							"name": "owner",
							"type": "address"
						}
					],
					"stateMutability": "view",
					"type": "function"
				},
				{
					"inputs": [
						{
							"internalType": "address",
							"name": "contractAddr",
							"type": "address"
						},
						{
							"internalType": "uint256",
							"name": "tokenId",
							"type": "uint256"
						},
						{
							"internalType": "uint256",
							"name": "prevIndex",
							"type": "uint256"
						}
					],
					"name": "getPrevOwner",
					"outputs": [
						{
							"internalType": "address",
							"name": "prevOwner",
							"type": "address"
						}
					],
					"stateMutability": "view",
					"type": "function"
				},
				{
					"inputs": [
						{
							"internalType": "address",
							"name": "contractAddr",
							"type": "address"
						},
						{
							"internalType": "uint256",
							"name": "tokenId",
							"type": "uint256"
						}
					],
					"name": "getPrice",
					"outputs": [
						{
							"internalType": "uint256",
							"name": "price",
							"type": "uint256"
						}
					],
					"stateMutability": "view",
					"type": "function"
				},
				{
					"inputs": [
						{
							"internalType": "address",
							"name": "contractAddr",
							"type": "address"
						},
						{
							"internalType": "uint256",
							"name": "tokenId",
							"type": "uint256"
						}
					],
					"name": "getSeller",
					"outputs": [
						{
							"internalType": "address",
							"name": "seller",
							"type": "address"
						}
					],
					"stateMutability": "view",
					"type": "function"
				},
				{
					"inputs": [
						{
							"internalType": "address",
							"name": "",
							"type": "address"
						},
						{
							"internalType": "uint256",
							"name": "",
							"type": "uint256"
						}
					],
					"name": "listings",
					"outputs": [
						{
							"internalType": "uint256",
							"name": "price",
							"type": "uint256"
						},
						{
							"internalType": "address",
							"name": "seller",
							"type": "address"
						},
						{
							"internalType": "address",
							"name": "owner",
							"type": "address"
						},
						{
							"internalType": "bool",
							"name": "isListing",
							"type": "bool"
						},
						{
							"internalType": "uint256",
							"name": "ownerCount",
							"type": "uint256"
						},
						{
							"internalType": "uint256",
							"name": "prevOwnersAmount",
							"type": "uint256"
						}
					],
					"stateMutability": "view",
					"type": "function"
				},
				{
					"inputs": [],
					"name": "owner",
					"outputs": [
						{
							"internalType": "address",
							"name": "",
							"type": "address"
						}
					],
					"stateMutability": "view",
					"type": "function"
				},
				{
					"inputs": [
						{
							"internalType": "address",
							"name": "contractAddr",
							"type": "address"
						},
						{
							"internalType": "uint256",
							"name": "tokenId",
							"type": "uint256"
						},
						{
							"internalType": "address",
							"name": "referer",
							"type": "address"
						},
						{
							"internalType": "uint256",
							"name": "metaverseFee",
							"type": "uint256"
						},
						{
							"internalType": "uint256",
							"name": "previousOwnerFee",
							"type": "uint256"
						},
						{
							"internalType": "uint256",
							"name": "referalFee",
							"type": "uint256"
						}
					],
					"name": "purchase",
					"outputs": [],
					"stateMutability": "payable",
					"type": "function"
				},
				{
					"inputs": [
						{
							"internalType": "address",
							"name": "contractAddr",
							"type": "address"
						},
						{
							"internalType": "uint256[]",
							"name": "tokenId",
							"type": "uint256[]"
						},
						{
							"internalType": "address",
							"name": "referer",
							"type": "address"
						},
						{
							"internalType": "uint256",
							"name": "metaverseFee",
							"type": "uint256"
						},
						{
							"internalType": "uint256[]",
							"name": "previousOwnerFee",
							"type": "uint256[]"
						},
						{
							"internalType": "uint256",
							"name": "referalFee",
							"type": "uint256"
						}
					],
					"name": "purchaseBatch",
					"outputs": [],
					"stateMutability": "payable",
					"type": "function"
				},
				{
					"inputs": [
						{
							"internalType": "address",
							"name": "contractAddr",
							"type": "address"
						},
						{
							"internalType": "address",
							"name": "coinAddr",
							"type": "address"
						},
						{
							"internalType": "uint256",
							"name": "tokenId",
							"type": "uint256"
						},
						{
							"internalType": "address",
							"name": "referer",
							"type": "address"
						},
						{
							"internalType": "uint256",
							"name": "metaverseFee",
							"type": "uint256"
						},
						{
							"internalType": "uint256",
							"name": "previousOwnerFee",
							"type": "uint256"
						},
						{
							"internalType": "uint256",
							"name": "referalFee",
							"type": "uint256"
						}
					],
					"name": "purchaseERC20",
					"outputs": [],
					"stateMutability": "payable",
					"type": "function"
				},
				{
					"inputs": [
						{
							"internalType": "address",
							"name": "contractAddr",
							"type": "address"
						},
						{
							"internalType": "address",
							"name": "coinAddr",
							"type": "address"
						},
						{
							"internalType": "uint256[]",
							"name": "tokenId",
							"type": "uint256[]"
						},
						{
							"internalType": "address",
							"name": "referer",
							"type": "address"
						},
						{
							"internalType": "uint256",
							"name": "metaverseFee",
							"type": "uint256"
						},
						{
							"internalType": "uint256[]",
							"name": "previousOwnerFee",
							"type": "uint256[]"
						},
						{
							"internalType": "uint256",
							"name": "referalFee",
							"type": "uint256"
						}
					],
					"name": "purchaseERC20Batch",
					"outputs": [],
					"stateMutability": "payable",
					"type": "function"
				},
				{
					"inputs": [],
					"name": "renounceOwnership",
					"outputs": [],
					"stateMutability": "nonpayable",
					"type": "function"
				},
				{
					"inputs": [
						{
							"internalType": "address",
							"name": "newOwner",
							"type": "address"
						}
					],
					"name": "transferOwnership",
					"outputs": [],
					"stateMutability": "nonpayable",
					"type": "function"
				}
			],
			"devdoc": {
				"kind": "dev",
				"methods": {},
				"version": 1
			},
			"evm": {
				"assembly": "    /* \"MarketERC721.sol\":606:9795  contract Market is Ownable {\r... */\n  mstore(0x40, 0x80)\n  callvalue\n  dup1\n  iszero\n  tag_1\n  jumpi\n  0x00\n  dup1\n  revert\ntag_1:\n  pop\n    /* \"Ownable.sol\":336:368  _transferOwnership(_msgSender()) */\n  tag_4\n    /* \"Ownable.sol\":355:367  _msgSender() */\n  tag_5\n    /* \"Ownable.sol\":355:365  _msgSender */\n  shl(0x20, tag_6)\n    /* \"Ownable.sol\":355:367  _msgSender() */\n  0x20\n  shr\n  jump\t// in\ntag_5:\n    /* \"Ownable.sol\":336:354  _transferOwnership */\n  shl(0x20, tag_7)\n    /* \"Ownable.sol\":336:368  _transferOwnership(_msgSender()) */\n  0x20\n  shr\n  jump\t// in\ntag_4:\n    /* \"MarketERC721.sol\":606:9795  contract Market is Ownable {\r... */\n  jump(tag_8)\n    /* \"Context.sol\":656:754  function _msgSender() internal view virtual returns (address) {\r... */\ntag_6:\n    /* \"Context.sol\":709:716  address */\n  0x00\n    /* \"Context.sol\":736:746  msg.sender */\n  caller\n    /* \"Context.sol\":729:746  return msg.sender */\n  swap1\n  pop\n    /* \"Context.sol\":656:754  function _msgSender() internal view virtual returns (address) {\r... */\n  swap1\n  jump\t// out\n    /* \"Ownable.sol\":927:1118  function _transferOwnership(address newOwner) internal virtual {\r... */\ntag_7:\n    /* \"Ownable.sol\":1001:1017  address oldOwner */\n  0x00\n    /* \"Ownable.sol\":1020:1026  _owner */\n  dup1\n  0x00\n  swap1\n  sload\n  swap1\n  0x0100\n  exp\n  swap1\n  div\n  0xffffffffffffffffffffffffffffffffffffffff\n  and\n    /* \"Ownable.sol\":1001:1026  address oldOwner = _owner */\n  swap1\n  pop\n    /* \"Ownable.sol\":1046:1054  newOwner */\n  dup2\n    /* \"Ownable.sol\":1037:1043  _owner */\n  0x00\n  dup1\n    /* \"Ownable.sol\":1037:1054  _owner = newOwner */\n  0x0100\n  exp\n  dup2\n  sload\n  dup2\n  0xffffffffffffffffffffffffffffffffffffffff\n  mul\n  not\n  and\n  swap1\n  dup4\n  0xffffffffffffffffffffffffffffffffffffffff\n  and\n  mul\n  or\n  swap1\n  sstore\n  pop\n    /* \"Ownable.sol\":1101:1109  newOwner */\n  dup2\n    /* \"Ownable.sol\":1070:1110  OwnershipTransferred(oldOwner, newOwner) */\n  0xffffffffffffffffffffffffffffffffffffffff\n  and\n    /* \"Ownable.sol\":1091:1099  oldOwner */\n  dup2\n    /* \"Ownable.sol\":1070:1110  OwnershipTransferred(oldOwner, newOwner) */\n  0xffffffffffffffffffffffffffffffffffffffff\n  and\n  0x8be0079c531659141344cd1fd0a4f28419497f9722a3daafe3b4186f6b6457e0\n  mload(0x40)\n  mload(0x40)\n  dup1\n  swap2\n  sub\n  swap1\n  log3\n    /* \"Ownable.sol\":990:1118  {\r... */\n  pop\n    /* \"Ownable.sol\":927:1118  function _transferOwnership(address newOwner) internal virtual {\r... */\n  pop\n  jump\t// out\n    /* \"MarketERC721.sol\":606:9795  contract Market is Ownable {\r... */\ntag_8:\n  dataSize(sub_0)\n  dup1\n  dataOffset(sub_0)\n  0x00\n  codecopy\n  0x00\n  return\nstop\n\nsub_0: assembly {\n        /* \"MarketERC721.sol\":606:9795  contract Market is Ownable {\r... */\n      mstore(0x40, 0x80)\n      jumpi(tag_1, lt(calldatasize, 0x04))\n      shr(0xe0, calldataload(0x00))\n      dup1\n      0x715018a6\n      gt\n      tag_17\n      jumpi\n      dup1\n      0x8da5cb5b\n      gt\n      tag_18\n      jumpi\n      dup1\n      0x8da5cb5b\n      eq\n      tag_13\n      jumpi\n      dup1\n      0xb2ddee06\n      eq\n      tag_14\n      jumpi\n      dup1\n      0xed81abad\n      eq\n      tag_15\n      jumpi\n      dup1\n      0xf2fde38b\n      eq\n      tag_16\n      jumpi\n      jump(tag_1)\n    tag_18:\n      dup1\n      0x715018a6\n      eq\n      tag_9\n      jumpi\n      dup1\n      0x80abbe57\n      eq\n      tag_10\n      jumpi\n      dup1\n      0x8111f398\n      eq\n      tag_11\n      jumpi\n      dup1\n      0x8c5b197b\n      eq\n      tag_12\n      jumpi\n      jump(tag_1)\n    tag_17:\n      dup1\n      0x2973d6f8\n      gt\n      tag_19\n      jumpi\n      dup1\n      0x2973d6f8\n      eq\n      tag_5\n      jumpi\n      dup1\n      0x2c872cd1\n      eq\n      tag_6\n      jumpi\n      dup1\n      0x2f634a90\n      eq\n      tag_7\n      jumpi\n      dup1\n      0x449e815d\n      eq\n      tag_8\n      jumpi\n      jump(tag_1)\n    tag_19:\n      dup1\n      0x07df30\n      eq\n      tag_2\n      jumpi\n      dup1\n      0x031aa9b5\n      eq\n      tag_3\n      jumpi\n      dup1\n      0x189ecff1\n      eq\n      tag_4\n      jumpi\n    tag_1:\n      0x00\n      dup1\n      revert\n        /* \"MarketERC721.sol\":642:704  mapping(address =>mapping(uint256 => Listing)) public listings */\n    tag_2:\n      callvalue\n      dup1\n      iszero\n      tag_20\n      jumpi\n      0x00\n      dup1\n      revert\n    tag_20:\n      pop\n      tag_21\n      0x04\n      dup1\n      calldatasize\n      sub\n      dup2\n      add\n      swap1\n      tag_22\n      swap2\n      swap1\n      tag_23\n      jump\t// in\n    tag_22:\n      tag_24\n      jump\t// in\n    tag_21:\n      mload(0x40)\n      tag_25\n      swap7\n      swap6\n      swap5\n      swap4\n      swap3\n      swap2\n      swap1\n      tag_26\n      jump\t// in\n    tag_25:\n      mload(0x40)\n      dup1\n      swap2\n      sub\n      swap1\n      return\n        /* \"MarketERC721.sol\":9267:9428  function getIsListing(address contractAddr, uint tokenId) public view returns(bool isListing) {\r... */\n    tag_3:\n      callvalue\n      dup1\n      iszero\n      tag_27\n      jumpi\n      0x00\n      dup1\n      revert\n    tag_27:\n      pop\n      tag_28\n      0x04\n      dup1\n      calldatasize\n      sub\n      dup2\n      add\n      swap1\n      tag_29\n      swap2\n      swap1\n      tag_23\n      jump\t// in\n    tag_29:\n      tag_30\n      jump\t// in\n    tag_28:\n      mload(0x40)\n      tag_31\n      swap2\n      swap1\n      tag_32\n      jump\t// in\n    tag_31:\n      mload(0x40)\n      dup1\n      swap2\n      sub\n      swap1\n      return\n        /* \"MarketERC721.sol\":9104:9259  function getSeller(address contractAddr, uint tokenId) public view returns(address seller) {\r... */\n    tag_4:\n      callvalue\n      dup1\n      iszero\n      tag_33\n      jumpi\n      0x00\n      dup1\n      revert\n    tag_33:\n      pop\n      tag_34\n      0x04\n      dup1\n      calldatasize\n      sub\n      dup2\n      add\n      swap1\n      tag_35\n      swap2\n      swap1\n      tag_23\n      jump\t// in\n    tag_35:\n      tag_36\n      jump\t// in\n    tag_34:\n      mload(0x40)\n      tag_37\n      swap2\n      swap1\n      tag_38\n      jump\t// in\n    tag_37:\n      mload(0x40)\n      dup1\n      swap2\n      sub\n      swap1\n      return\n        /* \"MarketERC721.sol\":9436:9632  function getPrevOwner(address contractAddr, uint tokenId, uint prevIndex) public view returns(address prevOwner) {\r... */\n    tag_5:\n      callvalue\n      dup1\n      iszero\n      tag_39\n      jumpi\n      0x00\n      dup1\n      revert\n    tag_39:\n      pop\n      tag_40\n      0x04\n      dup1\n      calldatasize\n      sub\n      dup2\n      add\n      swap1\n      tag_41\n      swap2\n      swap1\n      tag_42\n      jump\t// in\n    tag_41:\n      tag_43\n      jump\t// in\n    tag_40:\n      mload(0x40)\n      tag_44\n      swap2\n      swap1\n      tag_38\n      jump\t// in\n    tag_44:\n      mload(0x40)\n      dup1\n      swap2\n      sub\n      swap1\n      return\n        /* \"MarketERC721.sol\":5474:7101  function purchaseERC20(address contractAddr, address coinAddr, uint256 tokenId, address referer, uint256 metaverseFee, uint256 previousOwnerFee, uint256 referalFee) public payable {\r... */\n    tag_6:\n      tag_45\n      0x04\n      dup1\n      calldatasize\n      sub\n      dup2\n      add\n      swap1\n      tag_46\n      swap2\n      swap1\n      tag_47\n      jump\t// in\n    tag_46:\n      tag_48\n      jump\t// in\n    tag_45:\n      stop\n        /* \"MarketERC721.sol\":9640:9792  function getOwner(address contractAddr, uint tokenId) public view returns(address owner) {\r... */\n    tag_7:\n      callvalue\n      dup1\n      iszero\n      tag_49\n      jumpi\n      0x00\n      dup1\n      revert\n    tag_49:\n      pop\n      tag_50\n      0x04\n      dup1\n      calldatasize\n      sub\n      dup2\n      add\n      swap1\n      tag_51\n      swap2\n      swap1\n      tag_23\n      jump\t// in\n    tag_51:\n      tag_52\n      jump\t// in\n    tag_50:\n      mload(0x40)\n      tag_53\n      swap2\n      swap1\n      tag_38\n      jump\t// in\n    tag_53:\n      mload(0x40)\n      dup1\n      swap2\n      sub\n      swap1\n      return\n        /* \"MarketERC721.sol\":8944:9096  function getPrice(address contractAddr, uint tokenId) public view returns(uint256 price) {\r... */\n    tag_8:\n      callvalue\n      dup1\n      iszero\n      tag_54\n      jumpi\n      0x00\n      dup1\n      revert\n    tag_54:\n      pop\n      tag_55\n      0x04\n      dup1\n      calldatasize\n      sub\n      dup2\n      add\n      swap1\n      tag_56\n      swap2\n      swap1\n      tag_23\n      jump\t// in\n    tag_56:\n      tag_57\n      jump\t// in\n    tag_55:\n      mload(0x40)\n      tag_58\n      swap2\n      swap1\n      tag_59\n      jump\t// in\n    tag_58:\n      mload(0x40)\n      dup1\n      swap2\n      sub\n      swap1\n      return\n        /* \"Ownable.sol\":607:710  function renounceOwnership() public virtual onlyOwner {\r... */\n    tag_9:\n      callvalue\n      dup1\n      iszero\n      tag_60\n      jumpi\n      0x00\n      dup1\n      revert\n    tag_60:\n      pop\n      tag_61\n      tag_62\n      jump\t// in\n    tag_61:\n      stop\n        /* \"MarketERC721.sol\":1050:1630  function addListing(uint256 price, address contractAddr, uint256 tokenId) public {\r... */\n    tag_10:\n      callvalue\n      dup1\n      iszero\n      tag_63\n      jumpi\n      0x00\n      dup1\n      revert\n    tag_63:\n      pop\n      tag_64\n      0x04\n      dup1\n      calldatasize\n      sub\n      dup2\n      add\n      swap1\n      tag_65\n      swap2\n      swap1\n      tag_66\n      jump\t// in\n    tag_65:\n      tag_67\n      jump\t// in\n    tag_64:\n      stop\n        /* \"MarketERC721.sol\":2161:3657  function purchase(address contractAddr, uint256 tokenId, address referer, uint256 metaverseFee, uint256 previousOwnerFee, uint256 referalFee) public payable {\r... */\n    tag_11:\n      tag_68\n      0x04\n      dup1\n      calldatasize\n      sub\n      dup2\n      add\n      swap1\n      tag_69\n      swap2\n      swap1\n      tag_70\n      jump\t// in\n    tag_69:\n      tag_71\n      jump\t// in\n    tag_68:\n      stop\n        /* \"MarketERC721.sol\":3665:5466  function purchaseBatch(address contractAddr, uint256[] calldata tokenId, address referer, uint256 metaverseFee, uint256[] calldata previousOwnerFee, uint256 referalFee) public payable {\r... */\n    tag_12:\n      tag_72\n      0x04\n      dup1\n      calldatasize\n      sub\n      dup2\n      add\n      swap1\n      tag_73\n      swap2\n      swap1\n      tag_74\n      jump\t// in\n    tag_73:\n      tag_75\n      jump\t// in\n    tag_72:\n      stop\n        /* \"Ownable.sol\":384:471  function owner() public view virtual returns (address) {\r... */\n    tag_13:\n      callvalue\n      dup1\n      iszero\n      tag_76\n      jumpi\n      0x00\n      dup1\n      revert\n    tag_76:\n      pop\n      tag_77\n      tag_78\n      jump\t// in\n    tag_77:\n      mload(0x40)\n      tag_79\n      swap2\n      swap1\n      tag_38\n      jump\t// in\n    tag_79:\n      mload(0x40)\n      dup1\n      swap2\n      sub\n      swap1\n      return\n        /* \"MarketERC721.sol\":1638:2153  function cancelListing(address contractAddr, uint256 tokenId) public {\r... */\n    tag_14:\n      callvalue\n      dup1\n      iszero\n      tag_80\n      jumpi\n      0x00\n      dup1\n      revert\n    tag_80:\n      pop\n      tag_81\n      0x04\n      dup1\n      calldatasize\n      sub\n      dup2\n      add\n      swap1\n      tag_82\n      swap2\n      swap1\n      tag_23\n      jump\t// in\n    tag_82:\n      tag_83\n      jump\t// in\n    tag_81:\n      stop\n        /* \"MarketERC721.sol\":7109:8936  function purchaseERC20Batch(address contractAddr, address coinAddr, uint256[] calldata tokenId, address referer, uint256 metaverseFee, uint256[] calldata previousOwnerFee, uint256 referalFee) public payable {\r... */\n    tag_15:\n      tag_84\n      0x04\n      dup1\n      calldatasize\n      sub\n      dup2\n      add\n      swap1\n      tag_85\n      swap2\n      swap1\n      tag_86\n      jump\t// in\n    tag_85:\n      tag_87\n      jump\t// in\n    tag_84:\n      stop\n        /* \"Ownable.sol\":718:919  function transferOwnership(address newOwner) public virtual onlyOwner {\r... */\n    tag_16:\n      callvalue\n      dup1\n      iszero\n      tag_88\n      jumpi\n      0x00\n      dup1\n      revert\n    tag_88:\n      pop\n      tag_89\n      0x04\n      dup1\n      calldatasize\n      sub\n      dup2\n      add\n      swap1\n      tag_90\n      swap2\n      swap1\n      tag_91\n      jump\t// in\n    tag_90:\n      tag_92\n      jump\t// in\n    tag_89:\n      stop\n        /* \"MarketERC721.sol\":642:704  mapping(address =>mapping(uint256 => Listing)) public listings */\n    tag_24:\n      mstore(0x20, 0x01)\n      dup2\n      0x00\n      mstore\n      mstore(0x20, keccak256(0x00, 0x40))\n      dup1\n      0x00\n      mstore\n      keccak256(0x00, 0x40)\n      0x00\n      swap2\n      pop\n      swap2\n      pop\n      pop\n      dup1\n      0x00\n      add\n      sload\n      swap1\n      dup1\n      0x01\n      add\n      0x00\n      swap1\n      sload\n      swap1\n      0x0100\n      exp\n      swap1\n      div\n      0xffffffffffffffffffffffffffffffffffffffff\n      and\n      swap1\n      dup1\n      0x02\n      add\n      0x00\n      swap1\n      sload\n      swap1\n      0x0100\n      exp\n      swap1\n      div\n      0xffffffffffffffffffffffffffffffffffffffff\n      and\n      swap1\n      dup1\n      0x02\n      add\n      0x14\n      swap1\n      sload\n      swap1\n      0x0100\n      exp\n      swap1\n      div\n      0xff\n      and\n      swap1\n      dup1\n      0x03\n      add\n      sload\n      swap1\n      dup1\n      0x04\n      add\n      sload\n      swap1\n      pop\n      dup7\n      jump\t// out\n        /* \"MarketERC721.sol\":9267:9428  function getIsListing(address contractAddr, uint tokenId) public view returns(bool isListing) {\r... */\n    tag_30:\n        /* \"MarketERC721.sol\":9345:9359  bool isListing */\n      0x00\n        /* \"MarketERC721.sol\":9379:9387  listings */\n      0x01\n        /* \"MarketERC721.sol\":9379:9401  listings[contractAddr] */\n      0x00\n        /* \"MarketERC721.sol\":9388:9400  contractAddr */\n      dup5\n        /* \"MarketERC721.sol\":9379:9401  listings[contractAddr] */\n      0xffffffffffffffffffffffffffffffffffffffff\n      and\n      0xffffffffffffffffffffffffffffffffffffffff\n      and\n      dup2\n      mstore\n      0x20\n      add\n      swap1\n      dup2\n      mstore\n      0x20\n      add\n      0x00\n      keccak256\n        /* \"MarketERC721.sol\":9379:9410  listings[contractAddr][tokenId] */\n      0x00\n        /* \"MarketERC721.sol\":9402:9409  tokenId */\n      dup4\n        /* \"MarketERC721.sol\":9379:9410  listings[contractAddr][tokenId] */\n      dup2\n      mstore\n      0x20\n      add\n      swap1\n      dup2\n      mstore\n      0x20\n      add\n      0x00\n      keccak256\n        /* \"MarketERC721.sol\":9379:9420  listings[contractAddr][tokenId].isListing */\n      0x02\n      add\n      0x14\n      swap1\n      sload\n      swap1\n      0x0100\n      exp\n      swap1\n      div\n      0xff\n      and\n        /* \"MarketERC721.sol\":9372:9420  return listings[contractAddr][tokenId].isListing */\n      swap1\n      pop\n        /* \"MarketERC721.sol\":9267:9428  function getIsListing(address contractAddr, uint tokenId) public view returns(bool isListing) {\r... */\n      swap3\n      swap2\n      pop\n      pop\n      jump\t// out\n        /* \"MarketERC721.sol\":9104:9259  function getSeller(address contractAddr, uint tokenId) public view returns(address seller) {\r... */\n    tag_36:\n        /* \"MarketERC721.sol\":9179:9193  address seller */\n      0x00\n        /* \"MarketERC721.sol\":9213:9221  listings */\n      0x01\n        /* \"MarketERC721.sol\":9213:9235  listings[contractAddr] */\n      0x00\n        /* \"MarketERC721.sol\":9222:9234  contractAddr */\n      dup5\n        /* \"MarketERC721.sol\":9213:9235  listings[contractAddr] */\n      0xffffffffffffffffffffffffffffffffffffffff\n      and\n      0xffffffffffffffffffffffffffffffffffffffff\n      and\n      dup2\n      mstore\n      0x20\n      add\n      swap1\n      dup2\n      mstore\n      0x20\n      add\n      0x00\n      keccak256\n        /* \"MarketERC721.sol\":9213:9244  listings[contractAddr][tokenId] */\n      0x00\n        /* \"MarketERC721.sol\":9236:9243  tokenId */\n      dup4\n        /* \"MarketERC721.sol\":9213:9244  listings[contractAddr][tokenId] */\n      dup2\n      mstore\n      0x20\n      add\n      swap1\n      dup2\n      mstore\n      0x20\n      add\n      0x00\n      keccak256\n        /* \"MarketERC721.sol\":9213:9251  listings[contractAddr][tokenId].seller */\n      0x01\n      add\n      0x00\n      swap1\n      sload\n      swap1\n      0x0100\n      exp\n      swap1\n      div\n      0xffffffffffffffffffffffffffffffffffffffff\n      and\n        /* \"MarketERC721.sol\":9206:9251  return listings[contractAddr][tokenId].seller */\n      swap1\n      pop\n        /* \"MarketERC721.sol\":9104:9259  function getSeller(address contractAddr, uint tokenId) public view returns(address seller) {\r... */\n      swap3\n      swap2\n      pop\n      pop\n      jump\t// out\n        /* \"MarketERC721.sol\":9436:9632  function getPrevOwner(address contractAddr, uint tokenId, uint prevIndex) public view returns(address prevOwner) {\r... */\n    tag_43:\n        /* \"MarketERC721.sol\":9530:9547  address prevOwner */\n      0x00\n        /* \"MarketERC721.sol\":9567:9575  listings */\n      0x01\n        /* \"MarketERC721.sol\":9567:9589  listings[contractAddr] */\n      0x00\n        /* \"MarketERC721.sol\":9576:9588  contractAddr */\n      dup6\n        /* \"MarketERC721.sol\":9567:9589  listings[contractAddr] */\n      0xffffffffffffffffffffffffffffffffffffffff\n      and\n      0xffffffffffffffffffffffffffffffffffffffff\n      and\n      dup2\n      mstore\n      0x20\n      add\n      swap1\n      dup2\n      mstore\n      0x20\n      add\n      0x00\n      keccak256\n        /* \"MarketERC721.sol\":9567:9598  listings[contractAddr][tokenId] */\n      0x00\n        /* \"MarketERC721.sol\":9590:9597  tokenId */\n      dup5\n        /* \"MarketERC721.sol\":9567:9598  listings[contractAddr][tokenId] */\n      dup2\n      mstore\n      0x20\n      add\n      swap1\n      dup2\n      mstore\n      0x20\n      add\n      0x00\n      keccak256\n        /* \"MarketERC721.sol\":9567:9613  listings[contractAddr][tokenId].previousOwners */\n      0x05\n      add\n        /* \"MarketERC721.sol\":9567:9624  listings[contractAddr][tokenId].previousOwners[prevIndex] */\n      0x00\n        /* \"MarketERC721.sol\":9614:9623  prevIndex */\n      dup4\n        /* \"MarketERC721.sol\":9567:9624  listings[contractAddr][tokenId].previousOwners[prevIndex] */\n      dup2\n      mstore\n      0x20\n      add\n      swap1\n      dup2\n      mstore\n      0x20\n      add\n      0x00\n      keccak256\n      0x00\n      swap1\n      sload\n      swap1\n      0x0100\n      exp\n      swap1\n      div\n      0xffffffffffffffffffffffffffffffffffffffff\n      and\n        /* \"MarketERC721.sol\":9560:9624  return listings[contractAddr][tokenId].previousOwners[prevIndex] */\n      swap1\n      pop\n        /* \"MarketERC721.sol\":9436:9632  function getPrevOwner(address contractAddr, uint tokenId, uint prevIndex) public view returns(address prevOwner) {\r... */\n      swap4\n      swap3\n      pop\n      pop\n      pop\n      jump\t// out\n        /* \"MarketERC721.sol\":5474:7101  function purchaseERC20(address contractAddr, address coinAddr, uint256 tokenId, address referer, uint256 metaverseFee, uint256 previousOwnerFee, uint256 referalFee) public payable {\r... */\n    tag_48:\n        /* \"MarketERC721.sol\":5665:5685  Listing storage item */\n      0x00\n        /* \"MarketERC721.sol\":5688:5696  listings */\n      0x01\n        /* \"MarketERC721.sol\":5688:5710  listings[contractAddr] */\n      0x00\n        /* \"MarketERC721.sol\":5697:5709  contractAddr */\n      dup10\n        /* \"MarketERC721.sol\":5688:5710  listings[contractAddr] */\n      0xffffffffffffffffffffffffffffffffffffffff\n      and\n      0xffffffffffffffffffffffffffffffffffffffff\n      and\n      dup2\n      mstore\n      0x20\n      add\n      swap1\n      dup2\n      mstore\n      0x20\n      add\n      0x00\n      keccak256\n        /* \"MarketERC721.sol\":5688:5719  listings[contractAddr][tokenId] */\n      0x00\n        /* \"MarketERC721.sol\":5711:5718  tokenId */\n      dup8\n        /* \"MarketERC721.sol\":5688:5719  listings[contractAddr][tokenId] */\n      dup2\n      mstore\n      0x20\n      add\n      swap1\n      dup2\n      mstore\n      0x20\n      add\n      0x00\n      keccak256\n        /* \"MarketERC721.sol\":5665:5719  Listing storage item = listings[contractAddr][tokenId] */\n      swap1\n      pop\n        /* \"MarketERC721.sol\":5730:5742  ERC721 token */\n      0x00\n        /* \"MarketERC721.sol\":5752:5764  contractAddr */\n      dup9\n        /* \"MarketERC721.sol\":5730:5765  ERC721 token = ERC721(contractAddr) */\n      swap1\n      pop\n        /* \"MarketERC721.sol\":5776:5786  ERC20 coin */\n      0x00\n        /* \"MarketERC721.sol\":5795:5803  coinAddr */\n      dup9\n        /* \"MarketERC721.sol\":5776:5804  ERC20 coin = ERC20(coinAddr) */\n      swap1\n      pop\n        /* \"MarketERC721.sol\":5823:5827  item */\n      dup3\n        /* \"MarketERC721.sol\":5823:5837  item.isListing */\n      0x02\n      add\n      0x14\n      swap1\n      sload\n      swap1\n      0x0100\n      exp\n      swap1\n      div\n      0xff\n      and\n        /* \"MarketERC721.sol\":5815:5867  require(item.isListing, \"This NFT is not for sell.\") */\n      tag_97\n      jumpi\n      mload(0x40)\n      0x08c379a000000000000000000000000000000000000000000000000000000000\n      dup2\n      mstore\n      0x04\n      add\n      tag_98\n      swap1\n      tag_99\n      jump\t// in\n    tag_98:\n      mload(0x40)\n      dup1\n      swap2\n      sub\n      swap1\n      revert\n    tag_97:\n        /* \"MarketERC721.sol\":5900:5904  item */\n      dup3\n        /* \"MarketERC721.sol\":5900:5911  item.seller */\n      0x01\n      add\n      0x00\n      swap1\n      sload\n      swap1\n      0x0100\n      exp\n      swap1\n      div\n      0xffffffffffffffffffffffffffffffffffffffff\n      and\n        /* \"MarketERC721.sol\":5886:5911  msg.sender != item.seller */\n      0xffffffffffffffffffffffffffffffffffffffff\n      and\n        /* \"MarketERC721.sol\":5886:5896  msg.sender */\n      caller\n        /* \"MarketERC721.sol\":5886:5911  msg.sender != item.seller */\n      0xffffffffffffffffffffffffffffffffffffffff\n      and\n      eq\n      iszero\n        /* \"MarketERC721.sol\":5878:5934  require(msg.sender != item.seller, \"Buy from yourself.\") */\n      tag_100\n      jumpi\n      mload(0x40)\n      0x08c379a000000000000000000000000000000000000000000000000000000000\n      dup2\n      mstore\n      0x04\n      add\n      tag_101\n      swap1\n      tag_102\n      jump\t// in\n    tag_101:\n      mload(0x40)\n      dup1\n      swap2\n      sub\n      swap1\n      revert\n    tag_100:\n        /* \"MarketERC721.sol\":5983:5987  item */\n      dup3\n        /* \"MarketERC721.sol\":5983:5993  item.price */\n      0x00\n      add\n      sload\n        /* \"MarketERC721.sol\":5953:5957  coin */\n      dup2\n        /* \"MarketERC721.sol\":5953:5967  coin.balanceOf */\n      0xffffffffffffffffffffffffffffffffffffffff\n      and\n      0x70a08231\n        /* \"MarketERC721.sol\":5968:5978  msg.sender */\n      caller\n        /* \"MarketERC721.sol\":5953:5979  coin.balanceOf(msg.sender) */\n      mload(0x40)\n      dup3\n      0xffffffff\n      and\n      0xe0\n      shl\n      dup2\n      mstore\n      0x04\n      add\n      tag_103\n      swap2\n      swap1\n      tag_38\n      jump\t// in\n    tag_103:\n      0x20\n      mload(0x40)\n      dup1\n      dup4\n      sub\n      dup2\n      dup7\n      dup1\n      extcodesize\n      iszero\n      dup1\n      iszero\n      tag_104\n      jumpi\n      0x00\n      dup1\n      revert\n    tag_104:\n      pop\n      gas\n      staticcall\n      iszero\n      dup1\n      iszero\n      tag_106\n      jumpi\n      returndatasize\n      0x00\n      dup1\n      returndatacopy\n      revert(0x00, returndatasize)\n    tag_106:\n      pop\n      pop\n      pop\n      pop\n      mload(0x40)\n      returndatasize\n      not(0x1f)\n      0x1f\n      dup3\n      add\n      and\n      dup3\n      add\n      dup1\n      0x40\n      mstore\n      pop\n      dup2\n      add\n      swap1\n      tag_107\n      swap2\n      swap1\n      tag_108\n      jump\t// in\n    tag_107:\n        /* \"MarketERC721.sol\":5953:5993  coin.balanceOf(msg.sender) >= item.price */\n      lt\n      iszero\n        /* \"MarketERC721.sol\":5945:6022  require(coin.balanceOf(msg.sender) >= item.price, \"Insufficient funds sent.\") */\n      tag_109\n      jumpi\n      mload(0x40)\n      0x08c379a000000000000000000000000000000000000000000000000000000000\n      dup2\n      mstore\n      0x04\n      add\n      tag_110\n      swap1\n      tag_111\n      jump\t// in\n    tag_110:\n      mload(0x40)\n      dup1\n      swap2\n      sub\n      swap1\n      revert\n    tag_109:\n        /* \"MarketERC721.sol\":6033:6037  coin */\n      dup1\n        /* \"MarketERC721.sol\":6033:6050  coin.transferFrom */\n      0xffffffffffffffffffffffffffffffffffffffff\n      and\n      0x23b872dd\n        /* \"MarketERC721.sol\":6051:6061  msg.sender */\n      caller\n        /* \"MarketERC721.sol\":6063:6067  item */\n      dup6\n        /* \"MarketERC721.sol\":6063:6074  item.seller */\n      0x01\n      add\n      0x00\n      swap1\n      sload\n      swap1\n      0x0100\n      exp\n      swap1\n      div\n      0xffffffffffffffffffffffffffffffffffffffff\n      and\n        /* \"MarketERC721.sol\":6103:6105  20 */\n      0x14\n        /* \"MarketERC721.sol\":6090:6094  item */\n      dup8\n        /* \"MarketERC721.sol\":6090:6100  item.price */\n      0x00\n      add\n      sload\n        /* \"MarketERC721.sol\":6090:6105  item.price / 20 */\n      tag_112\n      swap2\n      swap1\n      tag_113\n      jump\t// in\n    tag_112:\n        /* \"MarketERC721.sol\":6076:6080  item */\n      dup8\n        /* \"MarketERC721.sol\":6076:6086  item.price */\n      0x00\n      add\n      sload\n        /* \"MarketERC721.sol\":6076:6106  item.price - (item.price / 20) */\n      tag_114\n      swap2\n      swap1\n      tag_115\n      jump\t// in\n    tag_114:\n        /* \"MarketERC721.sol\":6033:6107  coin.transferFrom(msg.sender, item.seller, item.price - (item.price / 20)) */\n      mload(0x40)\n      dup5\n      0xffffffff\n      and\n      0xe0\n      shl\n      dup2\n      mstore\n      0x04\n      add\n      tag_116\n      swap4\n      swap3\n      swap2\n      swap1\n      tag_117\n      jump\t// in\n    tag_116:\n      0x20\n      mload(0x40)\n      dup1\n      dup4\n      sub\n      dup2\n      0x00\n      dup8\n      dup1\n      extcodesize\n      iszero\n      dup1\n      iszero\n      tag_118\n      jumpi\n      0x00\n      dup1\n      revert\n    tag_118:\n      pop\n      gas\n      call\n      iszero\n      dup1\n      iszero\n      tag_120\n      jumpi\n      returndatasize\n      0x00\n      dup1\n      returndatacopy\n      revert(0x00, returndatasize)\n    tag_120:\n      pop\n      pop\n      pop\n      pop\n      mload(0x40)\n      returndatasize\n      not(0x1f)\n      0x1f\n      dup3\n      add\n      and\n      dup3\n      add\n      dup1\n      0x40\n      mstore\n      pop\n      dup2\n      add\n      swap1\n      tag_121\n      swap2\n      swap1\n      tag_122\n      jump\t// in\n    tag_121:\n      pop\n        /* \"MarketERC721.sol\":6118:6122  coin */\n      dup1\n        /* \"MarketERC721.sol\":6118:6135  coin.transferFrom */\n      0xffffffffffffffffffffffffffffffffffffffff\n      and\n      0x23b872dd\n        /* \"MarketERC721.sol\":6136:6146  msg.sender */\n      caller\n        /* \"MarketERC721.sol\":6148:6155  owner() */\n      tag_123\n        /* \"MarketERC721.sol\":6148:6153  owner */\n      tag_78\n        /* \"MarketERC721.sol\":6148:6155  owner() */\n      jump\t// in\n    tag_123:\n        /* \"MarketERC721.sol\":6157:6169  metaverseFee */\n      dup10\n        /* \"MarketERC721.sol\":6118:6170  coin.transferFrom(msg.sender, owner(), metaverseFee) */\n      mload(0x40)\n      dup5\n      0xffffffff\n      and\n      0xe0\n      shl\n      dup2\n      mstore\n      0x04\n      add\n      tag_124\n      swap4\n      swap3\n      swap2\n      swap1\n      tag_117\n      jump\t// in\n    tag_124:\n      0x20\n      mload(0x40)\n      dup1\n      dup4\n      sub\n      dup2\n      0x00\n      dup8\n      dup1\n      extcodesize\n      iszero\n      dup1\n      iszero\n      tag_125\n      jumpi\n      0x00\n      dup1\n      revert\n    tag_125:\n      pop\n      gas\n      call\n      iszero\n      dup1\n      iszero\n      tag_127\n      jumpi\n      returndatasize\n      0x00\n      dup1\n      returndatacopy\n      revert(0x00, returndatasize)\n    tag_127:\n      pop\n      pop\n      pop\n      pop\n      mload(0x40)\n      returndatasize\n      not(0x1f)\n      0x1f\n      dup3\n      add\n      and\n      dup3\n      add\n      dup1\n      0x40\n      mstore\n      pop\n      dup2\n      add\n      swap1\n      tag_128\n      swap2\n      swap1\n      tag_122\n      jump\t// in\n    tag_128:\n      pop\n        /* \"MarketERC721.sol\":6203:6204  0 */\n      0x00\n        /* \"MarketERC721.sol\":6184:6205  referer != address(0) */\n      0xffffffffffffffffffffffffffffffffffffffff\n      and\n        /* \"MarketERC721.sol\":6184:6191  referer */\n      dup8\n        /* \"MarketERC721.sol\":6184:6205  referer != address(0) */\n      0xffffffffffffffffffffffffffffffffffffffff\n      and\n      eq\n        /* \"MarketERC721.sol\":6181:6283  if(referer != address(0)){\r... */\n      tag_129\n      jumpi\n        /* \"MarketERC721.sol\":6221:6225  coin */\n      dup1\n        /* \"MarketERC721.sol\":6221:6238  coin.transferFrom */\n      0xffffffffffffffffffffffffffffffffffffffff\n      and\n      0x23b872dd\n        /* \"MarketERC721.sol\":6239:6249  msg.sender */\n      caller\n        /* \"MarketERC721.sol\":6251:6258  referer */\n      dup10\n        /* \"MarketERC721.sol\":6260:6270  referalFee */\n      dup8\n        /* \"MarketERC721.sol\":6221:6271  coin.transferFrom(msg.sender, referer, referalFee) */\n      mload(0x40)\n      dup5\n      0xffffffff\n      and\n      0xe0\n      shl\n      dup2\n      mstore\n      0x04\n      add\n      tag_130\n      swap4\n      swap3\n      swap2\n      swap1\n      tag_117\n      jump\t// in\n    tag_130:\n      0x20\n      mload(0x40)\n      dup1\n      dup4\n      sub\n      dup2\n      0x00\n      dup8\n      dup1\n      extcodesize\n      iszero\n      dup1\n      iszero\n      tag_131\n      jumpi\n      0x00\n      dup1\n      revert\n    tag_131:\n      pop\n      gas\n      call\n      iszero\n      dup1\n      iszero\n      tag_133\n      jumpi\n      returndatasize\n      0x00\n      dup1\n      returndatacopy\n      revert(0x00, returndatasize)\n    tag_133:\n      pop\n      pop\n      pop\n      pop\n      mload(0x40)\n      returndatasize\n      not(0x1f)\n      0x1f\n      dup3\n      add\n      and\n      dup3\n      add\n      dup1\n      0x40\n      mstore\n      pop\n      dup2\n      add\n      swap1\n      tag_134\n      swap2\n      swap1\n      tag_122\n      jump\t// in\n    tag_134:\n      pop\n        /* \"MarketERC721.sol\":6181:6283  if(referer != address(0)){\r... */\n    tag_129:\n        /* \"MarketERC721.sol\":6298:6304  uint i */\n      0x00\n        /* \"MarketERC721.sol\":6293:6583  for (uint i = 0; i < 5; i++) {\r... */\n    tag_135:\n        /* \"MarketERC721.sol\":6314:6315  5 */\n      0x05\n        /* \"MarketERC721.sol\":6310:6311  i */\n      dup2\n        /* \"MarketERC721.sol\":6310:6315  i < 5 */\n      lt\n        /* \"MarketERC721.sol\":6293:6583  for (uint i = 0; i < 5; i++) {\r... */\n      iszero\n      tag_136\n      jumpi\n        /* \"MarketERC721.sol\":6379:6380  0 */\n      0x00\n        /* \"MarketERC721.sol\":6345:6381  item.previousOwners[i] != address(0) */\n      0xffffffffffffffffffffffffffffffffffffffff\n      and\n        /* \"MarketERC721.sol\":6345:6349  item */\n      dup5\n        /* \"MarketERC721.sol\":6345:6364  item.previousOwners */\n      0x05\n      add\n        /* \"MarketERC721.sol\":6345:6367  item.previousOwners[i] */\n      0x00\n        /* \"MarketERC721.sol\":6365:6366  i */\n      dup4\n        /* \"MarketERC721.sol\":6345:6367  item.previousOwners[i] */\n      dup2\n      mstore\n      0x20\n      add\n      swap1\n      dup2\n      mstore\n      0x20\n      add\n      0x00\n      keccak256\n      0x00\n      swap1\n      sload\n      swap1\n      0x0100\n      exp\n      swap1\n      div\n      0xffffffffffffffffffffffffffffffffffffffff\n      and\n        /* \"MarketERC721.sol\":6345:6381  item.previousOwners[i] != address(0) */\n      0xffffffffffffffffffffffffffffffffffffffff\n      and\n      eq\n        /* \"MarketERC721.sol\":6341:6568  if (item.previousOwners[i] != address(0)) {\r... */\n      tag_138\n      jumpi\n        /* \"MarketERC721.sol\":6406:6410  coin */\n      dup2\n        /* \"MarketERC721.sol\":6406:6423  coin.transferFrom */\n      0xffffffffffffffffffffffffffffffffffffffff\n      and\n      0x23b872dd\n        /* \"MarketERC721.sol\":6424:6434  msg.sender */\n      caller\n        /* \"MarketERC721.sol\":6436:6440  item */\n      dup7\n        /* \"MarketERC721.sol\":6436:6455  item.previousOwners */\n      0x05\n      add\n        /* \"MarketERC721.sol\":6436:6458  item.previousOwners[i] */\n      0x00\n        /* \"MarketERC721.sol\":6456:6457  i */\n      dup6\n        /* \"MarketERC721.sol\":6436:6458  item.previousOwners[i] */\n      dup2\n      mstore\n      0x20\n      add\n      swap1\n      dup2\n      mstore\n      0x20\n      add\n      0x00\n      keccak256\n      0x00\n      swap1\n      sload\n      swap1\n      0x0100\n      exp\n      swap1\n      div\n      0xffffffffffffffffffffffffffffffffffffffff\n      and\n        /* \"MarketERC721.sol\":6460:6476  previousOwnerFee */\n      dup10\n        /* \"MarketERC721.sol\":6406:6477  coin.transferFrom(msg.sender, item.previousOwners[i], previousOwnerFee) */\n      mload(0x40)\n      dup5\n      0xffffffff\n      and\n      0xe0\n      shl\n      dup2\n      mstore\n      0x04\n      add\n      tag_139\n      swap4\n      swap3\n      swap2\n      swap1\n      tag_117\n      jump\t// in\n    tag_139:\n      0x20\n      mload(0x40)\n      dup1\n      dup4\n      sub\n      dup2\n      0x00\n      dup8\n      dup1\n      extcodesize\n      iszero\n      dup1\n      iszero\n      tag_140\n      jumpi\n      0x00\n      dup1\n      revert\n    tag_140:\n      pop\n      gas\n      call\n      iszero\n      dup1\n      iszero\n      tag_142\n      jumpi\n      returndatasize\n      0x00\n      dup1\n      returndatacopy\n      revert(0x00, returndatasize)\n    tag_142:\n      pop\n      pop\n      pop\n      pop\n      mload(0x40)\n      returndatasize\n      not(0x1f)\n      0x1f\n      dup3\n      add\n      and\n      dup3\n      add\n      dup1\n      0x40\n      mstore\n      pop\n      dup2\n      add\n      swap1\n      tag_143\n      swap2\n      swap1\n      tag_122\n      jump\t// in\n    tag_143:\n      pop\n        /* \"MarketERC721.sol\":6341:6568  if (item.previousOwners[i] != address(0)) {\r... */\n      jump(tag_144)\n    tag_138:\n        /* \"MarketERC721.sol\":6543:6548  break */\n      jump(tag_136)\n        /* \"MarketERC721.sol\":6341:6568  if (item.previousOwners[i] != address(0)) {\r... */\n    tag_144:\n        /* \"MarketERC721.sol\":6317:6320  i++ */\n      dup1\n      dup1\n      tag_145\n      swap1\n      tag_146\n      jump\t// in\n    tag_145:\n      swap2\n      pop\n      pop\n        /* \"MarketERC721.sol\":6293:6583  for (uint i = 0; i < 5; i++) {\r... */\n      jump(tag_135)\n    tag_136:\n      pop\n        /* \"MarketERC721.sol\":6595:6600  token */\n      dup2\n        /* \"MarketERC721.sol\":6595:6617  token.safeTransferFrom */\n      0xffffffffffffffffffffffffffffffffffffffff\n      and\n      0xb88d4fde\n        /* \"MarketERC721.sol\":6618:6622  item */\n      dup5\n        /* \"MarketERC721.sol\":6618:6629  item.seller */\n      0x01\n      add\n      0x00\n      swap1\n      sload\n      swap1\n      0x0100\n      exp\n      swap1\n      div\n      0xffffffffffffffffffffffffffffffffffffffff\n      and\n        /* \"MarketERC721.sol\":6631:6641  msg.sender */\n      caller\n        /* \"MarketERC721.sol\":6643:6650  tokenId */\n      dup12\n        /* \"MarketERC721.sol\":6595:6655  token.safeTransferFrom(item.seller, msg.sender, tokenId, \"\") */\n      mload(0x40)\n      dup5\n      0xffffffff\n      and\n      0xe0\n      shl\n      dup2\n      mstore\n      0x04\n      add\n      tag_147\n      swap4\n      swap3\n      swap2\n      swap1\n      tag_148\n      jump\t// in\n    tag_147:\n      0x00\n      mload(0x40)\n      dup1\n      dup4\n      sub\n      dup2\n      0x00\n      dup8\n      dup1\n      extcodesize\n      iszero\n      dup1\n      iszero\n      tag_149\n      jumpi\n      0x00\n      dup1\n      revert\n    tag_149:\n      pop\n      gas\n      call\n      iszero\n      dup1\n      iszero\n      tag_151\n      jumpi\n      returndatasize\n      0x00\n      dup1\n      returndatacopy\n      revert(0x00, returndatasize)\n    tag_151:\n      pop\n      pop\n      pop\n      pop\n        /* \"MarketERC721.sol\":6679:6689  msg.sender */\n      caller\n        /* \"MarketERC721.sol\":6666:6670  item */\n      dup4\n        /* \"MarketERC721.sol\":6666:6676  item.owner */\n      0x02\n      add\n      0x00\n        /* \"MarketERC721.sol\":6666:6689  item.owner = msg.sender */\n      0x0100\n      exp\n      dup2\n      sload\n      dup2\n      0xffffffffffffffffffffffffffffffffffffffff\n      mul\n      not\n      and\n      swap1\n      dup4\n      0xffffffffffffffffffffffffffffffffffffffff\n      and\n      mul\n      or\n      swap1\n      sstore\n      pop\n        /* \"MarketERC721.sol\":6749:6750  3 */\n      0x03\n        /* \"MarketERC721.sol\":6703:6711  listings */\n      0x01\n        /* \"MarketERC721.sol\":6703:6725  listings[contractAddr] */\n      0x00\n        /* \"MarketERC721.sol\":6712:6724  contractAddr */\n      dup13\n        /* \"MarketERC721.sol\":6703:6725  listings[contractAddr] */\n      0xffffffffffffffffffffffffffffffffffffffff\n      and\n      0xffffffffffffffffffffffffffffffffffffffff\n      and\n      dup2\n      mstore\n      0x20\n      add\n      swap1\n      dup2\n      mstore\n      0x20\n      add\n      0x00\n      keccak256\n        /* \"MarketERC721.sol\":6703:6734  listings[contractAddr][tokenId] */\n      0x00\n        /* \"MarketERC721.sol\":6726:6733  tokenId */\n      dup11\n        /* \"MarketERC721.sol\":6703:6734  listings[contractAddr][tokenId] */\n      dup2\n      mstore\n      0x20\n      add\n      swap1\n      dup2\n      mstore\n      0x20\n      add\n      0x00\n      keccak256\n        /* \"MarketERC721.sol\":6703:6745  listings[contractAddr][tokenId].ownerCount */\n      0x03\n      add\n      sload\n        /* \"MarketERC721.sol\":6703:6750  listings[contractAddr][tokenId].ownerCount <= 3 */\n      gt\n        /* \"MarketERC721.sol\":6700:6990  if(listings[contractAddr][tokenId].ownerCount <= 3) {\r... */\n      tag_152\n      jumpi\n        /* \"MarketERC721.sol\":6806:6810  item */\n      dup3\n        /* \"MarketERC721.sol\":6806:6817  item.seller */\n      0x01\n      add\n      0x00\n      swap1\n      sload\n      swap1\n      0x0100\n      exp\n      swap1\n      div\n      0xffffffffffffffffffffffffffffffffffffffff\n      and\n        /* \"MarketERC721.sol\":6767:6771  item */\n      dup4\n        /* \"MarketERC721.sol\":6767:6786  item.previousOwners */\n      0x05\n      add\n        /* \"MarketERC721.sol\":6767:6803  item.previousOwners[item.ownerCount] */\n      0x00\n        /* \"MarketERC721.sol\":6787:6791  item */\n      dup6\n        /* \"MarketERC721.sol\":6787:6802  item.ownerCount */\n      0x03\n      add\n      sload\n        /* \"MarketERC721.sol\":6767:6803  item.previousOwners[item.ownerCount] */\n      dup2\n      mstore\n      0x20\n      add\n      swap1\n      dup2\n      mstore\n      0x20\n      add\n      0x00\n      keccak256\n      0x00\n        /* \"MarketERC721.sol\":6767:6817  item.previousOwners[item.ownerCount] = item.seller */\n      0x0100\n      exp\n      dup2\n      sload\n      dup2\n      0xffffffffffffffffffffffffffffffffffffffff\n      mul\n      not\n      and\n      swap1\n      dup4\n      0xffffffffffffffffffffffffffffffffffffffff\n      and\n      mul\n      or\n      swap1\n      sstore\n      pop\n        /* \"MarketERC721.sol\":6851:6852  1 */\n      0x01\n        /* \"MarketERC721.sol\":6832:6836  item */\n      dup4\n        /* \"MarketERC721.sol\":6832:6847  item.ownerCount */\n      0x03\n      add\n      0x00\n        /* \"MarketERC721.sol\":6832:6852  item.ownerCount += 1 */\n      dup3\n      dup3\n      sload\n      tag_153\n      swap2\n      swap1\n      tag_154\n      jump\t// in\n    tag_153:\n      swap3\n      pop\n      pop\n      dup2\n      swap1\n      sstore\n      pop\n        /* \"MarketERC721.sol\":6700:6990  if(listings[contractAddr][tokenId].ownerCount <= 3) {\r... */\n      jump(tag_155)\n    tag_152:\n        /* \"MarketERC721.sol\":6933:6937  item */\n      dup3\n        /* \"MarketERC721.sol\":6933:6944  item.seller */\n      0x01\n      add\n      0x00\n      swap1\n      sload\n      swap1\n      0x0100\n      exp\n      swap1\n      div\n      0xffffffffffffffffffffffffffffffffffffffff\n      and\n        /* \"MarketERC721.sol\":6894:6898  item */\n      dup4\n        /* \"MarketERC721.sol\":6894:6913  item.previousOwners */\n      0x05\n      add\n        /* \"MarketERC721.sol\":6894:6930  item.previousOwners[item.ownerCount] */\n      0x00\n        /* \"MarketERC721.sol\":6914:6918  item */\n      dup6\n        /* \"MarketERC721.sol\":6914:6929  item.ownerCount */\n      0x03\n      add\n      sload\n        /* \"MarketERC721.sol\":6894:6930  item.previousOwners[item.ownerCount] */\n      dup2\n      mstore\n      0x20\n      add\n      swap1\n      dup2\n      mstore\n      0x20\n      add\n      0x00\n      keccak256\n      0x00\n        /* \"MarketERC721.sol\":6894:6944  item.previousOwners[item.ownerCount] = item.seller */\n      0x0100\n      exp\n      dup2\n      sload\n      dup2\n      0xffffffffffffffffffffffffffffffffffffffff\n      mul\n      not\n      and\n      swap1\n      dup4\n      0xffffffffffffffffffffffffffffffffffffffff\n      and\n      mul\n      or\n      swap1\n      sstore\n      pop\n        /* \"MarketERC721.sol\":6977:6978  0 */\n      0x00\n        /* \"MarketERC721.sol\":6959:6963  item */\n      dup4\n        /* \"MarketERC721.sol\":6959:6974  item.ownerCount */\n      0x03\n      add\n        /* \"MarketERC721.sol\":6959:6978  item.ownerCount = 0 */\n      dup2\n      swap1\n      sstore\n      pop\n        /* \"MarketERC721.sol\":6700:6990  if(listings[contractAddr][tokenId].ownerCount <= 3) {\r... */\n    tag_155:\n        /* \"MarketERC721.sol\":7019:7024  false */\n      0x00\n        /* \"MarketERC721.sol\":7002:7006  item */\n      dup4\n        /* \"MarketERC721.sol\":7002:7016  item.isListing */\n      0x02\n      add\n      0x14\n        /* \"MarketERC721.sol\":7002:7024  item.isListing = false */\n      0x0100\n      exp\n      dup2\n      sload\n      dup2\n      0xff\n      mul\n      not\n      and\n      swap1\n      dup4\n      iszero\n      iszero\n      mul\n      or\n      swap1\n      sstore\n      pop\n        /* \"MarketERC721.sol\":7078:7082  item */\n      dup3\n        /* \"MarketERC721.sol\":7078:7092  item.isListing */\n      0x02\n      add\n      0x14\n      swap1\n      sload\n      swap1\n      0x0100\n      exp\n      swap1\n      div\n      0xff\n      and\n        /* \"MarketERC721.sol\":7040:7093  List(msg.sender, tokenId, item.price, item.isListing) */\n      iszero\n      iszero\n        /* \"MarketERC721.sol\":7057:7064  tokenId */\n      dup9\n        /* \"MarketERC721.sol\":7045:7055  msg.sender */\n      caller\n        /* \"MarketERC721.sol\":7040:7093  List(msg.sender, tokenId, item.price, item.isListing) */\n      0xffffffffffffffffffffffffffffffffffffffff\n      and\n      0xa7cd299f7ebc29460ad99cf3ea75776d7cd038a63a59fa595e86441f8190ef90\n        /* \"MarketERC721.sol\":7066:7070  item */\n      dup7\n        /* \"MarketERC721.sol\":7066:7076  item.price */\n      0x00\n      add\n      sload\n        /* \"MarketERC721.sol\":7040:7093  List(msg.sender, tokenId, item.price, item.isListing) */\n      mload(0x40)\n      tag_156\n      swap2\n      swap1\n      tag_59\n      jump\t// in\n    tag_156:\n      mload(0x40)\n      dup1\n      swap2\n      sub\n      swap1\n      log4\n        /* \"MarketERC721.sol\":5654:7101  {\r... */\n      pop\n      pop\n      pop\n        /* \"MarketERC721.sol\":5474:7101  function purchaseERC20(address contractAddr, address coinAddr, uint256 tokenId, address referer, uint256 metaverseFee, uint256 previousOwnerFee, uint256 referalFee) public payable {\r... */\n      pop\n      pop\n      pop\n      pop\n      pop\n      pop\n      pop\n      jump\t// out\n        /* \"MarketERC721.sol\":9640:9792  function getOwner(address contractAddr, uint tokenId) public view returns(address owner) {\r... */\n    tag_52:\n        /* \"MarketERC721.sol\":9714:9727  address owner */\n      0x00\n        /* \"MarketERC721.sol\":9747:9755  listings */\n      0x01\n        /* \"MarketERC721.sol\":9747:9769  listings[contractAddr] */\n      0x00\n        /* \"MarketERC721.sol\":9756:9768  contractAddr */\n      dup5\n        /* \"MarketERC721.sol\":9747:9769  listings[contractAddr] */\n      0xffffffffffffffffffffffffffffffffffffffff\n      and\n      0xffffffffffffffffffffffffffffffffffffffff\n      and\n      dup2\n      mstore\n      0x20\n      add\n      swap1\n      dup2\n      mstore\n      0x20\n      add\n      0x00\n      keccak256\n        /* \"MarketERC721.sol\":9747:9778  listings[contractAddr][tokenId] */\n      0x00\n        /* \"MarketERC721.sol\":9770:9777  tokenId */\n      dup4\n        /* \"MarketERC721.sol\":9747:9778  listings[contractAddr][tokenId] */\n      dup2\n      mstore\n      0x20\n      add\n      swap1\n      dup2\n      mstore\n      0x20\n      add\n      0x00\n      keccak256\n        /* \"MarketERC721.sol\":9747:9784  listings[contractAddr][tokenId].owner */\n      0x02\n      add\n      0x00\n      swap1\n      sload\n      swap1\n      0x0100\n      exp\n      swap1\n      div\n      0xffffffffffffffffffffffffffffffffffffffff\n      and\n        /* \"MarketERC721.sol\":9740:9784  return listings[contractAddr][tokenId].owner */\n      swap1\n      pop\n        /* \"MarketERC721.sol\":9640:9792  function getOwner(address contractAddr, uint tokenId) public view returns(address owner) {\r... */\n      swap3\n      swap2\n      pop\n      pop\n      jump\t// out\n        /* \"MarketERC721.sol\":8944:9096  function getPrice(address contractAddr, uint tokenId) public view returns(uint256 price) {\r... */\n    tag_57:\n        /* \"MarketERC721.sol\":9018:9031  uint256 price */\n      0x00\n        /* \"MarketERC721.sol\":9051:9059  listings */\n      0x01\n        /* \"MarketERC721.sol\":9051:9073  listings[contractAddr] */\n      0x00\n        /* \"MarketERC721.sol\":9060:9072  contractAddr */\n      dup5\n        /* \"MarketERC721.sol\":9051:9073  listings[contractAddr] */\n      0xffffffffffffffffffffffffffffffffffffffff\n      and\n      0xffffffffffffffffffffffffffffffffffffffff\n      and\n      dup2\n      mstore\n      0x20\n      add\n      swap1\n      dup2\n      mstore\n      0x20\n      add\n      0x00\n      keccak256\n        /* \"MarketERC721.sol\":9051:9082  listings[contractAddr][tokenId] */\n      0x00\n        /* \"MarketERC721.sol\":9074:9081  tokenId */\n      dup4\n        /* \"MarketERC721.sol\":9051:9082  listings[contractAddr][tokenId] */\n      dup2\n      mstore\n      0x20\n      add\n      swap1\n      dup2\n      mstore\n      0x20\n      add\n      0x00\n      keccak256\n        /* \"MarketERC721.sol\":9051:9088  listings[contractAddr][tokenId].price */\n      0x00\n      add\n      sload\n        /* \"MarketERC721.sol\":9044:9088  return listings[contractAddr][tokenId].price */\n      swap1\n      pop\n        /* \"MarketERC721.sol\":8944:9096  function getPrice(address contractAddr, uint tokenId) public view returns(uint256 price) {\r... */\n      swap3\n      swap2\n      pop\n      pop\n      jump\t// out\n        /* \"Ownable.sol\":607:710  function renounceOwnership() public virtual onlyOwner {\r... */\n    tag_62:\n        /* \"Ownable.sol\":530:542  _msgSender() */\n      tag_160\n        /* \"Ownable.sol\":530:540  _msgSender */\n      tag_161\n        /* \"Ownable.sol\":530:542  _msgSender() */\n      jump\t// in\n    tag_160:\n        /* \"Ownable.sol\":519:542  owner() == _msgSender() */\n      0xffffffffffffffffffffffffffffffffffffffff\n      and\n        /* \"Ownable.sol\":519:526  owner() */\n      tag_162\n        /* \"Ownable.sol\":519:524  owner */\n      tag_78\n        /* \"Ownable.sol\":519:526  owner() */\n      jump\t// in\n    tag_162:\n        /* \"Ownable.sol\":519:542  owner() == _msgSender() */\n      0xffffffffffffffffffffffffffffffffffffffff\n      and\n      eq\n        /* \"Ownable.sol\":511:579  require(owner() == _msgSender(), \"Ownable: caller is not the owner\") */\n      tag_163\n      jumpi\n      mload(0x40)\n      0x08c379a000000000000000000000000000000000000000000000000000000000\n      dup2\n      mstore\n      0x04\n      add\n      tag_164\n      swap1\n      tag_165\n      jump\t// in\n    tag_164:\n      mload(0x40)\n      dup1\n      swap2\n      sub\n      swap1\n      revert\n    tag_163:\n        /* \"Ownable.sol\":672:702  _transferOwnership(address(0)) */\n      tag_167\n        /* \"Ownable.sol\":699:700  0 */\n      0x00\n        /* \"Ownable.sol\":672:690  _transferOwnership */\n      tag_168\n        /* \"Ownable.sol\":672:702  _transferOwnership(address(0)) */\n      jump\t// in\n    tag_167:\n        /* \"Ownable.sol\":607:710  function renounceOwnership() public virtual onlyOwner {\r... */\n      jump\t// out\n        /* \"MarketERC721.sol\":1050:1630  function addListing(uint256 price, address contractAddr, uint256 tokenId) public {\r... */\n    tag_67:\n        /* \"MarketERC721.sol\":1142:1154  ERC721 token */\n      0x00\n        /* \"MarketERC721.sol\":1164:1176  contractAddr */\n      dup3\n        /* \"MarketERC721.sol\":1142:1177  ERC721 token = ERC721(contractAddr) */\n      swap1\n      pop\n        /* \"MarketERC721.sol\":1188:1208  Listing storage item */\n      0x00\n        /* \"MarketERC721.sol\":1211:1219  listings */\n      0x01\n        /* \"MarketERC721.sol\":1211:1233  listings[contractAddr] */\n      0x00\n        /* \"MarketERC721.sol\":1220:1232  contractAddr */\n      dup6\n        /* \"MarketERC721.sol\":1211:1233  listings[contractAddr] */\n      0xffffffffffffffffffffffffffffffffffffffff\n      and\n      0xffffffffffffffffffffffffffffffffffffffff\n      and\n      dup2\n      mstore\n      0x20\n      add\n      swap1\n      dup2\n      mstore\n      0x20\n      add\n      0x00\n      keccak256\n        /* \"MarketERC721.sol\":1211:1242  listings[contractAddr][tokenId] */\n      0x00\n        /* \"MarketERC721.sol\":1234:1241  tokenId */\n      dup5\n        /* \"MarketERC721.sol\":1211:1242  listings[contractAddr][tokenId] */\n      dup2\n      mstore\n      0x20\n      add\n      swap1\n      dup2\n      mstore\n      0x20\n      add\n      0x00\n      keccak256\n        /* \"MarketERC721.sol\":1188:1242  Listing storage item = listings[contractAddr][tokenId] */\n      swap1\n      pop\n        /* \"MarketERC721.sol\":1287:1297  msg.sender */\n      caller\n        /* \"MarketERC721.sol\":1261:1297  token.ownerOf(tokenId) == msg.sender */\n      0xffffffffffffffffffffffffffffffffffffffff\n      and\n        /* \"MarketERC721.sol\":1261:1266  token */\n      dup3\n        /* \"MarketERC721.sol\":1261:1274  token.ownerOf */\n      0xffffffffffffffffffffffffffffffffffffffff\n      and\n      0x6352211e\n        /* \"MarketERC721.sol\":1275:1282  tokenId */\n      dup6\n        /* \"MarketERC721.sol\":1261:1283  token.ownerOf(tokenId) */\n      mload(0x40)\n      dup3\n      0xffffffff\n      and\n      0xe0\n      shl\n      dup2\n      mstore\n      0x04\n      add\n      tag_170\n      swap2\n      swap1\n      tag_59\n      jump\t// in\n    tag_170:\n      0x20\n      mload(0x40)\n      dup1\n      dup4\n      sub\n      dup2\n      dup7\n      dup1\n      extcodesize\n      iszero\n      dup1\n      iszero\n      tag_171\n      jumpi\n      0x00\n      dup1\n      revert\n    tag_171:\n      pop\n      gas\n      staticcall\n      iszero\n      dup1\n      iszero\n      tag_173\n      jumpi\n      returndatasize\n      0x00\n      dup1\n      returndatacopy\n      revert(0x00, returndatasize)\n    tag_173:\n      pop\n      pop\n      pop\n      pop\n      mload(0x40)\n      returndatasize\n      not(0x1f)\n      0x1f\n      dup3\n      add\n      and\n      dup3\n      add\n      dup1\n      0x40\n      mstore\n      pop\n      dup2\n      add\n      swap1\n      tag_174\n      swap2\n      swap1\n      tag_175\n      jump\t// in\n    tag_174:\n        /* \"MarketERC721.sol\":1261:1297  token.ownerOf(tokenId) == msg.sender */\n      0xffffffffffffffffffffffffffffffffffffffff\n      and\n      eq\n        /* \"MarketERC721.sol\":1253:1322  require(token.ownerOf(tokenId) == msg.sender, \"Seller has no token.\") */\n      tag_176\n      jumpi\n      mload(0x40)\n      0x08c379a000000000000000000000000000000000000000000000000000000000\n      dup2\n      mstore\n      0x04\n      add\n      tag_177\n      swap1\n      tag_178\n      jump\t// in\n    tag_177:\n      mload(0x40)\n      dup1\n      swap2\n      sub\n      swap1\n      revert\n    tag_176:\n        /* \"MarketERC721.sol\":1341:1346  token */\n      dup2\n        /* \"MarketERC721.sol\":1341:1363  token.isApprovedForAll */\n      0xffffffffffffffffffffffffffffffffffffffff\n      and\n      0xe985e9c5\n        /* \"MarketERC721.sol\":1364:1374  msg.sender */\n      caller\n        /* \"MarketERC721.sol\":1384:1388  this */\n      address\n        /* \"MarketERC721.sol\":1341:1390  token.isApprovedForAll(msg.sender, address(this)) */\n      mload(0x40)\n      dup4\n      0xffffffff\n      and\n      0xe0\n      shl\n      dup2\n      mstore\n      0x04\n      add\n      tag_179\n      swap3\n      swap2\n      swap1\n      tag_180\n      jump\t// in\n    tag_179:\n      0x20\n      mload(0x40)\n      dup1\n      dup4\n      sub\n      dup2\n      dup7\n      dup1\n      extcodesize\n      iszero\n      dup1\n      iszero\n      tag_181\n      jumpi\n      0x00\n      dup1\n      revert\n    tag_181:\n      pop\n      gas\n      staticcall\n      iszero\n      dup1\n      iszero\n      tag_183\n      jumpi\n      returndatasize\n      0x00\n      dup1\n      returndatacopy\n      revert(0x00, returndatasize)\n    tag_183:\n      pop\n      pop\n      pop\n      pop\n      mload(0x40)\n      returndatasize\n      not(0x1f)\n      0x1f\n      dup3\n      add\n      and\n      dup3\n      add\n      dup1\n      0x40\n      mstore\n      pop\n      dup2\n      add\n      swap1\n      tag_184\n      swap2\n      swap1\n      tag_122\n      jump\t// in\n    tag_184:\n        /* \"MarketERC721.sol\":1333:1421  require(token.isApprovedForAll(msg.sender, address(this)), \"Contract must be approved.\") */\n      tag_185\n      jumpi\n      mload(0x40)\n      0x08c379a000000000000000000000000000000000000000000000000000000000\n      dup2\n      mstore\n      0x04\n      add\n      tag_186\n      swap1\n      tag_187\n      jump\t// in\n    tag_186:\n      mload(0x40)\n      dup1\n      swap2\n      sub\n      swap1\n      revert\n    tag_185:\n        /* \"MarketERC721.sol\":1447:1452  price */\n      dup5\n        /* \"MarketERC721.sol\":1434:1438  item */\n      dup2\n        /* \"MarketERC721.sol\":1434:1444  item.price */\n      0x00\n      add\n        /* \"MarketERC721.sol\":1434:1452  item.price = price */\n      dup2\n      swap1\n      sstore\n      pop\n        /* \"MarketERC721.sol\":1477:1487  msg.sender */\n      caller\n        /* \"MarketERC721.sol\":1463:1467  item */\n      dup2\n        /* \"MarketERC721.sol\":1463:1474  item.seller */\n      0x01\n      add\n      0x00\n        /* \"MarketERC721.sol\":1463:1487  item.seller = msg.sender */\n      0x0100\n      exp\n      dup2\n      sload\n      dup2\n      0xffffffffffffffffffffffffffffffffffffffff\n      mul\n      not\n      and\n      swap1\n      dup4\n      0xffffffffffffffffffffffffffffffffffffffff\n      and\n      mul\n      or\n      swap1\n      sstore\n      pop\n        /* \"MarketERC721.sol\":1511:1521  msg.sender */\n      caller\n        /* \"MarketERC721.sol\":1498:1502  item */\n      dup2\n        /* \"MarketERC721.sol\":1498:1508  item.owner */\n      0x02\n      add\n      0x00\n        /* \"MarketERC721.sol\":1498:1521  item.owner = msg.sender */\n      0x0100\n      exp\n      dup2\n      sload\n      dup2\n      0xffffffffffffffffffffffffffffffffffffffff\n      mul\n      not\n      and\n      swap1\n      dup4\n      0xffffffffffffffffffffffffffffffffffffffff\n      and\n      mul\n      or\n      swap1\n      sstore\n      pop\n        /* \"MarketERC721.sol\":1549:1553  true */\n      0x01\n        /* \"MarketERC721.sol\":1532:1536  item */\n      dup2\n        /* \"MarketERC721.sol\":1532:1546  item.isListing */\n      0x02\n      add\n      0x14\n        /* \"MarketERC721.sol\":1532:1553  item.isListing = true */\n      0x0100\n      exp\n      dup2\n      sload\n      dup2\n      0xff\n      mul\n      not\n      and\n      swap1\n      dup4\n      iszero\n      iszero\n      mul\n      or\n      swap1\n      sstore\n      pop\n        /* \"MarketERC721.sol\":1607:1611  item */\n      dup1\n        /* \"MarketERC721.sol\":1607:1621  item.isListing */\n      0x02\n      add\n      0x14\n      swap1\n      sload\n      swap1\n      0x0100\n      exp\n      swap1\n      div\n      0xff\n      and\n        /* \"MarketERC721.sol\":1569:1622  List(msg.sender, tokenId, item.price, item.isListing) */\n      iszero\n      iszero\n        /* \"MarketERC721.sol\":1586:1593  tokenId */\n      dup4\n        /* \"MarketERC721.sol\":1574:1584  msg.sender */\n      caller\n        /* \"MarketERC721.sol\":1569:1622  List(msg.sender, tokenId, item.price, item.isListing) */\n      0xffffffffffffffffffffffffffffffffffffffff\n      and\n      0xa7cd299f7ebc29460ad99cf3ea75776d7cd038a63a59fa595e86441f8190ef90\n        /* \"MarketERC721.sol\":1595:1599  item */\n      dup5\n        /* \"MarketERC721.sol\":1595:1605  item.price */\n      0x00\n      add\n      sload\n        /* \"MarketERC721.sol\":1569:1622  List(msg.sender, tokenId, item.price, item.isListing) */\n      mload(0x40)\n      tag_188\n      swap2\n      swap1\n      tag_59\n      jump\t// in\n    tag_188:\n      mload(0x40)\n      dup1\n      swap2\n      sub\n      swap1\n      log4\n        /* \"MarketERC721.sol\":1131:1630  {\r... */\n      pop\n      pop\n        /* \"MarketERC721.sol\":1050:1630  function addListing(uint256 price, address contractAddr, uint256 tokenId) public {\r... */\n      pop\n      pop\n      pop\n      jump\t// out\n        /* \"MarketERC721.sol\":2161:3657  function purchase(address contractAddr, uint256 tokenId, address referer, uint256 metaverseFee, uint256 previousOwnerFee, uint256 referalFee) public payable {\r... */\n    tag_71:\n        /* \"MarketERC721.sol\":2329:2349  Listing storage item */\n      0x00\n        /* \"MarketERC721.sol\":2352:2360  listings */\n      0x01\n        /* \"MarketERC721.sol\":2352:2374  listings[contractAddr] */\n      0x00\n        /* \"MarketERC721.sol\":2361:2373  contractAddr */\n      dup9\n        /* \"MarketERC721.sol\":2352:2374  listings[contractAddr] */\n      0xffffffffffffffffffffffffffffffffffffffff\n      and\n      0xffffffffffffffffffffffffffffffffffffffff\n      and\n      dup2\n      mstore\n      0x20\n      add\n      swap1\n      dup2\n      mstore\n      0x20\n      add\n      0x00\n      keccak256\n        /* \"MarketERC721.sol\":2352:2383  listings[contractAddr][tokenId] */\n      0x00\n        /* \"MarketERC721.sol\":2375:2382  tokenId */\n      dup8\n        /* \"MarketERC721.sol\":2352:2383  listings[contractAddr][tokenId] */\n      dup2\n      mstore\n      0x20\n      add\n      swap1\n      dup2\n      mstore\n      0x20\n      add\n      0x00\n      keccak256\n        /* \"MarketERC721.sol\":2329:2383  Listing storage item = listings[contractAddr][tokenId] */\n      swap1\n      pop\n        /* \"MarketERC721.sol\":2394:2406  ERC721 token */\n      0x00\n        /* \"MarketERC721.sol\":2416:2428  contractAddr */\n      dup8\n        /* \"MarketERC721.sol\":2394:2429  ERC721 token = ERC721(contractAddr) */\n      swap1\n      pop\n        /* \"MarketERC721.sol\":2448:2452  item */\n      dup2\n        /* \"MarketERC721.sol\":2448:2462  item.isListing */\n      0x02\n      add\n      0x14\n      swap1\n      sload\n      swap1\n      0x0100\n      exp\n      swap1\n      div\n      0xff\n      and\n        /* \"MarketERC721.sol\":2440:2492  require(item.isListing, \"This NFT is not for sell.\") */\n      tag_190\n      jumpi\n      mload(0x40)\n      0x08c379a000000000000000000000000000000000000000000000000000000000\n      dup2\n      mstore\n      0x04\n      add\n      tag_191\n      swap1\n      tag_99\n      jump\t// in\n    tag_191:\n      mload(0x40)\n      dup1\n      swap2\n      sub\n      swap1\n      revert\n    tag_190:\n        /* \"MarketERC721.sol\":2525:2529  item */\n      dup2\n        /* \"MarketERC721.sol\":2525:2536  item.seller */\n      0x01\n      add\n      0x00\n      swap1\n      sload\n      swap1\n      0x0100\n      exp\n      swap1\n      div\n      0xffffffffffffffffffffffffffffffffffffffff\n      and\n        /* \"MarketERC721.sol\":2511:2536  msg.sender != item.seller */\n      0xffffffffffffffffffffffffffffffffffffffff\n      and\n        /* \"MarketERC721.sol\":2511:2521  msg.sender */\n      caller\n        /* \"MarketERC721.sol\":2511:2536  msg.sender != item.seller */\n      0xffffffffffffffffffffffffffffffffffffffff\n      and\n      eq\n      iszero\n        /* \"MarketERC721.sol\":2503:2559  require(msg.sender != item.seller, \"Buy from yourself.\") */\n      tag_192\n      jumpi\n      mload(0x40)\n      0x08c379a000000000000000000000000000000000000000000000000000000000\n      dup2\n      mstore\n      0x04\n      add\n      tag_193\n      swap1\n      tag_102\n      jump\t// in\n    tag_193:\n      mload(0x40)\n      dup1\n      swap2\n      sub\n      swap1\n      revert\n    tag_192:\n        /* \"MarketERC721.sol\":2591:2595  item */\n      dup2\n        /* \"MarketERC721.sol\":2591:2601  item.price */\n      0x00\n      add\n      sload\n        /* \"MarketERC721.sol\":2578:2587  msg.value */\n      callvalue\n        /* \"MarketERC721.sol\":2578:2601  msg.value >= item.price */\n      lt\n      iszero\n        /* \"MarketERC721.sol\":2570:2630  require(msg.value >= item.price, \"Insufficient funds sent.\") */\n      tag_194\n      jumpi\n      mload(0x40)\n      0x08c379a000000000000000000000000000000000000000000000000000000000\n      dup2\n      mstore\n      0x04\n      add\n      tag_195\n      swap1\n      tag_111\n      jump\t// in\n    tag_195:\n      mload(0x40)\n      dup1\n      swap2\n      sub\n      swap1\n      revert\n    tag_194:\n        /* \"MarketERC721.sol\":2649:2653  item */\n      dup2\n        /* \"MarketERC721.sol\":2649:2660  item.seller */\n      0x01\n      add\n      0x00\n      swap1\n      sload\n      swap1\n      0x0100\n      exp\n      swap1\n      div\n      0xffffffffffffffffffffffffffffffffffffffff\n      and\n        /* \"MarketERC721.sol\":2641:2670  payable(item.seller).transfer */\n      0xffffffffffffffffffffffffffffffffffffffff\n      and\n        /* \"MarketERC721.sol\":2641:2702  payable(item.seller).transfer(item.price - (item.price / 20)) */\n      0x08fc\n        /* \"MarketERC721.sol\":2698:2700  20 */\n      0x14\n        /* \"MarketERC721.sol\":2685:2689  item */\n      dup5\n        /* \"MarketERC721.sol\":2685:2695  item.price */\n      0x00\n      add\n      sload\n        /* \"MarketERC721.sol\":2685:2700  item.price / 20 */\n      tag_196\n      swap2\n      swap1\n      tag_113\n      jump\t// in\n    tag_196:\n        /* \"MarketERC721.sol\":2671:2675  item */\n      dup5\n        /* \"MarketERC721.sol\":2671:2681  item.price */\n      0x00\n      add\n      sload\n        /* \"MarketERC721.sol\":2671:2701  item.price - (item.price / 20) */\n      tag_197\n      swap2\n      swap1\n      tag_115\n      jump\t// in\n    tag_197:\n        /* \"MarketERC721.sol\":2641:2702  payable(item.seller).transfer(item.price - (item.price / 20)) */\n      swap1\n      dup2\n      iszero\n      mul\n      swap1\n      mload(0x40)\n      0x00\n      mload(0x40)\n      dup1\n      dup4\n      sub\n      dup2\n      dup6\n      dup9\n      dup9\n      call\n      swap4\n      pop\n      pop\n      pop\n      pop\n      iszero\n      dup1\n      iszero\n      tag_199\n      jumpi\n      returndatasize\n      0x00\n      dup1\n      returndatacopy\n      revert(0x00, returndatasize)\n    tag_199:\n      pop\n        /* \"MarketERC721.sol\":2721:2728  owner() */\n      tag_200\n        /* \"MarketERC721.sol\":2721:2726  owner */\n      tag_78\n        /* \"MarketERC721.sol\":2721:2728  owner() */\n      jump\t// in\n    tag_200:\n        /* \"MarketERC721.sol\":2713:2738  payable(owner()).transfer */\n      0xffffffffffffffffffffffffffffffffffffffff\n      and\n        /* \"MarketERC721.sol\":2713:2752  payable(owner()).transfer(metaverseFee) */\n      0x08fc\n        /* \"MarketERC721.sol\":2739:2751  metaverseFee */\n      dup7\n        /* \"MarketERC721.sol\":2713:2752  payable(owner()).transfer(metaverseFee) */\n      swap1\n      dup2\n      iszero\n      mul\n      swap1\n      mload(0x40)\n      0x00\n      mload(0x40)\n      dup1\n      dup4\n      sub\n      dup2\n      dup6\n      dup9\n      dup9\n      call\n      swap4\n      pop\n      pop\n      pop\n      pop\n      iszero\n      dup1\n      iszero\n      tag_202\n      jumpi\n      returndatasize\n      0x00\n      dup1\n      returndatacopy\n      revert(0x00, returndatasize)\n    tag_202:\n      pop\n        /* \"MarketERC721.sol\":2785:2786  0 */\n      0x00\n        /* \"MarketERC721.sol\":2766:2787  referer != address(0) */\n      0xffffffffffffffffffffffffffffffffffffffff\n      and\n        /* \"MarketERC721.sol\":2766:2773  referer */\n      dup7\n        /* \"MarketERC721.sol\":2766:2787  referer != address(0) */\n      0xffffffffffffffffffffffffffffffffffffffff\n      and\n      eq\n        /* \"MarketERC721.sol\":2763:2852  if(referer != address(0)){\r... */\n      tag_203\n      jumpi\n        /* \"MarketERC721.sol\":2811:2818  referer */\n      dup6\n        /* \"MarketERC721.sol\":2803:2828  payable(referer).transfer */\n      0xffffffffffffffffffffffffffffffffffffffff\n      and\n        /* \"MarketERC721.sol\":2803:2840  payable(referer).transfer(referalFee) */\n      0x08fc\n        /* \"MarketERC721.sol\":2829:2839  referalFee */\n      dup5\n        /* \"MarketERC721.sol\":2803:2840  payable(referer).transfer(referalFee) */\n      swap1\n      dup2\n      iszero\n      mul\n      swap1\n      mload(0x40)\n      0x00\n      mload(0x40)\n      dup1\n      dup4\n      sub\n      dup2\n      dup6\n      dup9\n      dup9\n      call\n      swap4\n      pop\n      pop\n      pop\n      pop\n      iszero\n      dup1\n      iszero\n      tag_205\n      jumpi\n      returndatasize\n      0x00\n      dup1\n      returndatacopy\n      revert(0x00, returndatasize)\n    tag_205:\n      pop\n        /* \"MarketERC721.sol\":2763:2852  if(referer != address(0)){\r... */\n    tag_203:\n        /* \"MarketERC721.sol\":2867:2873  uint i */\n      0x00\n        /* \"MarketERC721.sol\":2862:3139  for (uint i = 0; i < 5; i++) {\r... */\n    tag_206:\n        /* \"MarketERC721.sol\":2883:2884  5 */\n      0x05\n        /* \"MarketERC721.sol\":2879:2880  i */\n      dup2\n        /* \"MarketERC721.sol\":2879:2884  i < 5 */\n      lt\n        /* \"MarketERC721.sol\":2862:3139  for (uint i = 0; i < 5; i++) {\r... */\n      iszero\n      tag_207\n      jumpi\n        /* \"MarketERC721.sol\":2948:2949  0 */\n      0x00\n        /* \"MarketERC721.sol\":2914:2950  item.previousOwners[i] != address(0) */\n      0xffffffffffffffffffffffffffffffffffffffff\n      and\n        /* \"MarketERC721.sol\":2914:2918  item */\n      dup4\n        /* \"MarketERC721.sol\":2914:2933  item.previousOwners */\n      0x05\n      add\n        /* \"MarketERC721.sol\":2914:2936  item.previousOwners[i] */\n      0x00\n        /* \"MarketERC721.sol\":2934:2935  i */\n      dup4\n        /* \"MarketERC721.sol\":2914:2936  item.previousOwners[i] */\n      dup2\n      mstore\n      0x20\n      add\n      swap1\n      dup2\n      mstore\n      0x20\n      add\n      0x00\n      keccak256\n      0x00\n      swap1\n      sload\n      swap1\n      0x0100\n      exp\n      swap1\n      div\n      0xffffffffffffffffffffffffffffffffffffffff\n      and\n        /* \"MarketERC721.sol\":2914:2950  item.previousOwners[i] != address(0) */\n      0xffffffffffffffffffffffffffffffffffffffff\n      and\n      eq\n        /* \"MarketERC721.sol\":2910:3124  if (item.previousOwners[i] != address(0)) {\r... */\n      tag_209\n      jumpi\n        /* \"MarketERC721.sol\":2983:2987  item */\n      dup3\n        /* \"MarketERC721.sol\":2983:3002  item.previousOwners */\n      0x05\n      add\n        /* \"MarketERC721.sol\":2983:3005  item.previousOwners[i] */\n      0x00\n        /* \"MarketERC721.sol\":3003:3004  i */\n      dup3\n        /* \"MarketERC721.sol\":2983:3005  item.previousOwners[i] */\n      dup2\n      mstore\n      0x20\n      add\n      swap1\n      dup2\n      mstore\n      0x20\n      add\n      0x00\n      keccak256\n      0x00\n      swap1\n      sload\n      swap1\n      0x0100\n      exp\n      swap1\n      div\n      0xffffffffffffffffffffffffffffffffffffffff\n      and\n        /* \"MarketERC721.sol\":2975:3015  payable(item.previousOwners[i]).transfer */\n      0xffffffffffffffffffffffffffffffffffffffff\n      and\n        /* \"MarketERC721.sol\":2975:3033  payable(item.previousOwners[i]).transfer(previousOwnerFee) */\n      0x08fc\n        /* \"MarketERC721.sol\":3016:3032  previousOwnerFee */\n      dup7\n        /* \"MarketERC721.sol\":2975:3033  payable(item.previousOwners[i]).transfer(previousOwnerFee) */\n      swap1\n      dup2\n      iszero\n      mul\n      swap1\n      mload(0x40)\n      0x00\n      mload(0x40)\n      dup1\n      dup4\n      sub\n      dup2\n      dup6\n      dup9\n      dup9\n      call\n      swap4\n      pop\n      pop\n      pop\n      pop\n      iszero\n      dup1\n      iszero\n      tag_211\n      jumpi\n      returndatasize\n      0x00\n      dup1\n      returndatacopy\n      revert(0x00, returndatasize)\n    tag_211:\n      pop\n        /* \"MarketERC721.sol\":2910:3124  if (item.previousOwners[i] != address(0)) {\r... */\n      jump(tag_212)\n    tag_209:\n        /* \"MarketERC721.sol\":3099:3104  break */\n      jump(tag_207)\n        /* \"MarketERC721.sol\":2910:3124  if (item.previousOwners[i] != address(0)) {\r... */\n    tag_212:\n        /* \"MarketERC721.sol\":2886:2889  i++ */\n      dup1\n      dup1\n      tag_213\n      swap1\n      tag_146\n      jump\t// in\n    tag_213:\n      swap2\n      pop\n      pop\n        /* \"MarketERC721.sol\":2862:3139  for (uint i = 0; i < 5; i++) {\r... */\n      jump(tag_206)\n    tag_207:\n      pop\n        /* \"MarketERC721.sol\":3151:3156  token */\n      dup1\n        /* \"MarketERC721.sol\":3151:3173  token.safeTransferFrom */\n      0xffffffffffffffffffffffffffffffffffffffff\n      and\n      0xb88d4fde\n        /* \"MarketERC721.sol\":3174:3178  item */\n      dup4\n        /* \"MarketERC721.sol\":3174:3185  item.seller */\n      0x01\n      add\n      0x00\n      swap1\n      sload\n      swap1\n      0x0100\n      exp\n      swap1\n      div\n      0xffffffffffffffffffffffffffffffffffffffff\n      and\n        /* \"MarketERC721.sol\":3187:3197  msg.sender */\n      caller\n        /* \"MarketERC721.sol\":3199:3206  tokenId */\n      dup11\n        /* \"MarketERC721.sol\":3151:3211  token.safeTransferFrom(item.seller, msg.sender, tokenId, \"\") */\n      mload(0x40)\n      dup5\n      0xffffffff\n      and\n      0xe0\n      shl\n      dup2\n      mstore\n      0x04\n      add\n      tag_214\n      swap4\n      swap3\n      swap2\n      swap1\n      tag_148\n      jump\t// in\n    tag_214:\n      0x00\n      mload(0x40)\n      dup1\n      dup4\n      sub\n      dup2\n      0x00\n      dup8\n      dup1\n      extcodesize\n      iszero\n      dup1\n      iszero\n      tag_215\n      jumpi\n      0x00\n      dup1\n      revert\n    tag_215:\n      pop\n      gas\n      call\n      iszero\n      dup1\n      iszero\n      tag_217\n      jumpi\n      returndatasize\n      0x00\n      dup1\n      returndatacopy\n      revert(0x00, returndatasize)\n    tag_217:\n      pop\n      pop\n      pop\n      pop\n        /* \"MarketERC721.sol\":3235:3245  msg.sender */\n      caller\n        /* \"MarketERC721.sol\":3222:3226  item */\n      dup3\n        /* \"MarketERC721.sol\":3222:3232  item.owner */\n      0x02\n      add\n      0x00\n        /* \"MarketERC721.sol\":3222:3245  item.owner = msg.sender */\n      0x0100\n      exp\n      dup2\n      sload\n      dup2\n      0xffffffffffffffffffffffffffffffffffffffff\n      mul\n      not\n      and\n      swap1\n      dup4\n      0xffffffffffffffffffffffffffffffffffffffff\n      and\n      mul\n      or\n      swap1\n      sstore\n      pop\n        /* \"MarketERC721.sol\":3305:3306  3 */\n      0x03\n        /* \"MarketERC721.sol\":3259:3267  listings */\n      0x01\n        /* \"MarketERC721.sol\":3259:3281  listings[contractAddr] */\n      0x00\n        /* \"MarketERC721.sol\":3268:3280  contractAddr */\n      dup11\n        /* \"MarketERC721.sol\":3259:3281  listings[contractAddr] */\n      0xffffffffffffffffffffffffffffffffffffffff\n      and\n      0xffffffffffffffffffffffffffffffffffffffff\n      and\n      dup2\n      mstore\n      0x20\n      add\n      swap1\n      dup2\n      mstore\n      0x20\n      add\n      0x00\n      keccak256\n        /* \"MarketERC721.sol\":3259:3290  listings[contractAddr][tokenId] */\n      0x00\n        /* \"MarketERC721.sol\":3282:3289  tokenId */\n      dup10\n        /* \"MarketERC721.sol\":3259:3290  listings[contractAddr][tokenId] */\n      dup2\n      mstore\n      0x20\n      add\n      swap1\n      dup2\n      mstore\n      0x20\n      add\n      0x00\n      keccak256\n        /* \"MarketERC721.sol\":3259:3301  listings[contractAddr][tokenId].ownerCount */\n      0x03\n      add\n      sload\n        /* \"MarketERC721.sol\":3259:3306  listings[contractAddr][tokenId].ownerCount <= 3 */\n      gt\n        /* \"MarketERC721.sol\":3256:3546  if(listings[contractAddr][tokenId].ownerCount <= 3) {\r... */\n      tag_218\n      jumpi\n        /* \"MarketERC721.sol\":3362:3366  item */\n      dup2\n        /* \"MarketERC721.sol\":3362:3373  item.seller */\n      0x01\n      add\n      0x00\n      swap1\n      sload\n      swap1\n      0x0100\n      exp\n      swap1\n      div\n      0xffffffffffffffffffffffffffffffffffffffff\n      and\n        /* \"MarketERC721.sol\":3323:3327  item */\n      dup3\n        /* \"MarketERC721.sol\":3323:3342  item.previousOwners */\n      0x05\n      add\n        /* \"MarketERC721.sol\":3323:3359  item.previousOwners[item.ownerCount] */\n      0x00\n        /* \"MarketERC721.sol\":3343:3347  item */\n      dup5\n        /* \"MarketERC721.sol\":3343:3358  item.ownerCount */\n      0x03\n      add\n      sload\n        /* \"MarketERC721.sol\":3323:3359  item.previousOwners[item.ownerCount] */\n      dup2\n      mstore\n      0x20\n      add\n      swap1\n      dup2\n      mstore\n      0x20\n      add\n      0x00\n      keccak256\n      0x00\n        /* \"MarketERC721.sol\":3323:3373  item.previousOwners[item.ownerCount] = item.seller */\n      0x0100\n      exp\n      dup2\n      sload\n      dup2\n      0xffffffffffffffffffffffffffffffffffffffff\n      mul\n      not\n      and\n      swap1\n      dup4\n      0xffffffffffffffffffffffffffffffffffffffff\n      and\n      mul\n      or\n      swap1\n      sstore\n      pop\n        /* \"MarketERC721.sol\":3407:3408  1 */\n      0x01\n        /* \"MarketERC721.sol\":3388:3392  item */\n      dup3\n        /* \"MarketERC721.sol\":3388:3403  item.ownerCount */\n      0x03\n      add\n      0x00\n        /* \"MarketERC721.sol\":3388:3408  item.ownerCount += 1 */\n      dup3\n      dup3\n      sload\n      tag_219\n      swap2\n      swap1\n      tag_154\n      jump\t// in\n    tag_219:\n      swap3\n      pop\n      pop\n      dup2\n      swap1\n      sstore\n      pop\n        /* \"MarketERC721.sol\":3256:3546  if(listings[contractAddr][tokenId].ownerCount <= 3) {\r... */\n      jump(tag_220)\n    tag_218:\n        /* \"MarketERC721.sol\":3489:3493  item */\n      dup2\n        /* \"MarketERC721.sol\":3489:3500  item.seller */\n      0x01\n      add\n      0x00\n      swap1\n      sload\n      swap1\n      0x0100\n      exp\n      swap1\n      div\n      0xffffffffffffffffffffffffffffffffffffffff\n      and\n        /* \"MarketERC721.sol\":3450:3454  item */\n      dup3\n        /* \"MarketERC721.sol\":3450:3469  item.previousOwners */\n      0x05\n      add\n        /* \"MarketERC721.sol\":3450:3486  item.previousOwners[item.ownerCount] */\n      0x00\n        /* \"MarketERC721.sol\":3470:3474  item */\n      dup5\n        /* \"MarketERC721.sol\":3470:3485  item.ownerCount */\n      0x03\n      add\n      sload\n        /* \"MarketERC721.sol\":3450:3486  item.previousOwners[item.ownerCount] */\n      dup2\n      mstore\n      0x20\n      add\n      swap1\n      dup2\n      mstore\n      0x20\n      add\n      0x00\n      keccak256\n      0x00\n        /* \"MarketERC721.sol\":3450:3500  item.previousOwners[item.ownerCount] = item.seller */\n      0x0100\n      exp\n      dup2\n      sload\n      dup2\n      0xffffffffffffffffffffffffffffffffffffffff\n      mul\n      not\n      and\n      swap1\n      dup4\n      0xffffffffffffffffffffffffffffffffffffffff\n      and\n      mul\n      or\n      swap1\n      sstore\n      pop\n        /* \"MarketERC721.sol\":3533:3534  0 */\n      0x00\n        /* \"MarketERC721.sol\":3515:3519  item */\n      dup3\n        /* \"MarketERC721.sol\":3515:3530  item.ownerCount */\n      0x03\n      add\n        /* \"MarketERC721.sol\":3515:3534  item.ownerCount = 0 */\n      dup2\n      swap1\n      sstore\n      pop\n        /* \"MarketERC721.sol\":3256:3546  if(listings[contractAddr][tokenId].ownerCount <= 3) {\r... */\n    tag_220:\n        /* \"MarketERC721.sol\":3575:3580  false */\n      0x00\n        /* \"MarketERC721.sol\":3558:3562  item */\n      dup3\n        /* \"MarketERC721.sol\":3558:3572  item.isListing */\n      0x02\n      add\n      0x14\n        /* \"MarketERC721.sol\":3558:3580  item.isListing = false */\n      0x0100\n      exp\n      dup2\n      sload\n      dup2\n      0xff\n      mul\n      not\n      and\n      swap1\n      dup4\n      iszero\n      iszero\n      mul\n      or\n      swap1\n      sstore\n      pop\n        /* \"MarketERC721.sol\":3634:3638  item */\n      dup2\n        /* \"MarketERC721.sol\":3634:3648  item.isListing */\n      0x02\n      add\n      0x14\n      swap1\n      sload\n      swap1\n      0x0100\n      exp\n      swap1\n      div\n      0xff\n      and\n        /* \"MarketERC721.sol\":3596:3649  List(msg.sender, tokenId, item.price, item.isListing) */\n      iszero\n      iszero\n        /* \"MarketERC721.sol\":3613:3620  tokenId */\n      dup8\n        /* \"MarketERC721.sol\":3601:3611  msg.sender */\n      caller\n        /* \"MarketERC721.sol\":3596:3649  List(msg.sender, tokenId, item.price, item.isListing) */\n      0xffffffffffffffffffffffffffffffffffffffff\n      and\n      0xa7cd299f7ebc29460ad99cf3ea75776d7cd038a63a59fa595e86441f8190ef90\n        /* \"MarketERC721.sol\":3622:3626  item */\n      dup6\n        /* \"MarketERC721.sol\":3622:3632  item.price */\n      0x00\n      add\n      sload\n        /* \"MarketERC721.sol\":3596:3649  List(msg.sender, tokenId, item.price, item.isListing) */\n      mload(0x40)\n      tag_221\n      swap2\n      swap1\n      tag_59\n      jump\t// in\n    tag_221:\n      mload(0x40)\n      dup1\n      swap2\n      sub\n      swap1\n      log4\n        /* \"MarketERC721.sol\":2318:3657  {\r... */\n      pop\n      pop\n        /* \"MarketERC721.sol\":2161:3657  function purchase(address contractAddr, uint256 tokenId, address referer, uint256 metaverseFee, uint256 previousOwnerFee, uint256 referalFee) public payable {\r... */\n      pop\n      pop\n      pop\n      pop\n      pop\n      pop\n      jump\t// out\n        /* \"MarketERC721.sol\":3665:5466  function purchaseBatch(address contractAddr, uint256[] calldata tokenId, address referer, uint256 metaverseFee, uint256[] calldata previousOwnerFee, uint256 referalFee) public payable {\r... */\n    tag_75:\n        /* \"MarketERC721.sol\":3865:3871  uint j */\n      0x00\n        /* \"MarketERC721.sol\":3860:5459  for (uint j = 0; j < tokenId.length; j++) {\r... */\n    tag_223:\n        /* \"MarketERC721.sol\":3881:3888  tokenId */\n      dup8\n      dup8\n        /* \"MarketERC721.sol\":3881:3895  tokenId.length */\n      swap1\n      pop\n        /* \"MarketERC721.sol\":3877:3878  j */\n      dup2\n        /* \"MarketERC721.sol\":3877:3895  j < tokenId.length */\n      lt\n        /* \"MarketERC721.sol\":3860:5459  for (uint j = 0; j < tokenId.length; j++) {\r... */\n      iszero\n      tag_224\n      jumpi\n        /* \"MarketERC721.sol\":3917:3937  Listing storage item */\n      0x00\n        /* \"MarketERC721.sol\":3940:3948  listings */\n      0x01\n        /* \"MarketERC721.sol\":3940:3962  listings[contractAddr] */\n      0x00\n        /* \"MarketERC721.sol\":3949:3961  contractAddr */\n      dup12\n        /* \"MarketERC721.sol\":3940:3962  listings[contractAddr] */\n      0xffffffffffffffffffffffffffffffffffffffff\n      and\n      0xffffffffffffffffffffffffffffffffffffffff\n      and\n      dup2\n      mstore\n      0x20\n      add\n      swap1\n      dup2\n      mstore\n      0x20\n      add\n      0x00\n      keccak256\n        /* \"MarketERC721.sol\":3940:3974  listings[contractAddr][tokenId[j]] */\n      0x00\n        /* \"MarketERC721.sol\":3963:3970  tokenId */\n      dup11\n      dup11\n        /* \"MarketERC721.sol\":3971:3972  j */\n      dup6\n        /* \"MarketERC721.sol\":3963:3973  tokenId[j] */\n      dup2\n      dup2\n      lt\n      tag_226\n      jumpi\n      tag_227\n      tag_228\n      jump\t// in\n    tag_227:\n    tag_226:\n      swap1\n      pop\n      0x20\n      mul\n      add\n      calldataload\n        /* \"MarketERC721.sol\":3940:3974  listings[contractAddr][tokenId[j]] */\n      dup2\n      mstore\n      0x20\n      add\n      swap1\n      dup2\n      mstore\n      0x20\n      add\n      0x00\n      keccak256\n        /* \"MarketERC721.sol\":3917:3974  Listing storage item = listings[contractAddr][tokenId[j]] */\n      swap1\n      pop\n        /* \"MarketERC721.sol\":3989:4001  ERC721 token */\n      0x00\n        /* \"MarketERC721.sol\":4011:4023  contractAddr */\n      dup11\n        /* \"MarketERC721.sol\":3989:4024  ERC721 token = ERC721(contractAddr) */\n      swap1\n      pop\n        /* \"MarketERC721.sol\":4047:4051  item */\n      dup2\n        /* \"MarketERC721.sol\":4047:4061  item.isListing */\n      0x02\n      add\n      0x14\n      swap1\n      sload\n      swap1\n      0x0100\n      exp\n      swap1\n      div\n      0xff\n      and\n        /* \"MarketERC721.sol\":4039:4091  require(item.isListing, \"This NFT is not for sell.\") */\n      tag_229\n      jumpi\n      mload(0x40)\n      0x08c379a000000000000000000000000000000000000000000000000000000000\n      dup2\n      mstore\n      0x04\n      add\n      tag_230\n      swap1\n      tag_99\n      jump\t// in\n    tag_230:\n      mload(0x40)\n      dup1\n      swap2\n      sub\n      swap1\n      revert\n    tag_229:\n        /* \"MarketERC721.sol\":4128:4132  item */\n      dup2\n        /* \"MarketERC721.sol\":4128:4139  item.seller */\n      0x01\n      add\n      0x00\n      swap1\n      sload\n      swap1\n      0x0100\n      exp\n      swap1\n      div\n      0xffffffffffffffffffffffffffffffffffffffff\n      and\n        /* \"MarketERC721.sol\":4114:4139  msg.sender != item.seller */\n      0xffffffffffffffffffffffffffffffffffffffff\n      and\n        /* \"MarketERC721.sol\":4114:4124  msg.sender */\n      caller\n        /* \"MarketERC721.sol\":4114:4139  msg.sender != item.seller */\n      0xffffffffffffffffffffffffffffffffffffffff\n      and\n      eq\n      iszero\n        /* \"MarketERC721.sol\":4106:4162  require(msg.sender != item.seller, \"Buy from yourself.\") */\n      tag_231\n      jumpi\n      mload(0x40)\n      0x08c379a000000000000000000000000000000000000000000000000000000000\n      dup2\n      mstore\n      0x04\n      add\n      tag_232\n      swap1\n      tag_102\n      jump\t// in\n    tag_232:\n      mload(0x40)\n      dup1\n      swap2\n      sub\n      swap1\n      revert\n    tag_231:\n        /* \"MarketERC721.sol\":4198:4202  item */\n      dup2\n        /* \"MarketERC721.sol\":4198:4208  item.price */\n      0x00\n      add\n      sload\n        /* \"MarketERC721.sol\":4185:4194  msg.value */\n      callvalue\n        /* \"MarketERC721.sol\":4185:4208  msg.value >= item.price */\n      lt\n      iszero\n        /* \"MarketERC721.sol\":4177:4237  require(msg.value >= item.price, \"Insufficient funds sent.\") */\n      tag_233\n      jumpi\n      mload(0x40)\n      0x08c379a000000000000000000000000000000000000000000000000000000000\n      dup2\n      mstore\n      0x04\n      add\n      tag_234\n      swap1\n      tag_111\n      jump\t// in\n    tag_234:\n      mload(0x40)\n      dup1\n      swap2\n      sub\n      swap1\n      revert\n    tag_233:\n        /* \"MarketERC721.sol\":4260:4264  item */\n      dup2\n        /* \"MarketERC721.sol\":4260:4271  item.seller */\n      0x01\n      add\n      0x00\n      swap1\n      sload\n      swap1\n      0x0100\n      exp\n      swap1\n      div\n      0xffffffffffffffffffffffffffffffffffffffff\n      and\n        /* \"MarketERC721.sol\":4252:4281  payable(item.seller).transfer */\n      0xffffffffffffffffffffffffffffffffffffffff\n      and\n        /* \"MarketERC721.sol\":4252:4313  payable(item.seller).transfer(item.price - (item.price / 20)) */\n      0x08fc\n        /* \"MarketERC721.sol\":4309:4311  20 */\n      0x14\n        /* \"MarketERC721.sol\":4296:4300  item */\n      dup5\n        /* \"MarketERC721.sol\":4296:4306  item.price */\n      0x00\n      add\n      sload\n        /* \"MarketERC721.sol\":4296:4311  item.price / 20 */\n      tag_235\n      swap2\n      swap1\n      tag_113\n      jump\t// in\n    tag_235:\n        /* \"MarketERC721.sol\":4282:4286  item */\n      dup5\n        /* \"MarketERC721.sol\":4282:4292  item.price */\n      0x00\n      add\n      sload\n        /* \"MarketERC721.sol\":4282:4312  item.price - (item.price / 20) */\n      tag_236\n      swap2\n      swap1\n      tag_115\n      jump\t// in\n    tag_236:\n        /* \"MarketERC721.sol\":4252:4313  payable(item.seller).transfer(item.price - (item.price / 20)) */\n      swap1\n      dup2\n      iszero\n      mul\n      swap1\n      mload(0x40)\n      0x00\n      mload(0x40)\n      dup1\n      dup4\n      sub\n      dup2\n      dup6\n      dup9\n      dup9\n      call\n      swap4\n      pop\n      pop\n      pop\n      pop\n      iszero\n      dup1\n      iszero\n      tag_238\n      jumpi\n      returndatasize\n      0x00\n      dup1\n      returndatacopy\n      revert(0x00, returndatasize)\n    tag_238:\n      pop\n        /* \"MarketERC721.sol\":4336:4343  owner() */\n      tag_239\n        /* \"MarketERC721.sol\":4336:4341  owner */\n      tag_78\n        /* \"MarketERC721.sol\":4336:4343  owner() */\n      jump\t// in\n    tag_239:\n        /* \"MarketERC721.sol\":4328:4353  payable(owner()).transfer */\n      0xffffffffffffffffffffffffffffffffffffffff\n      and\n        /* \"MarketERC721.sol\":4328:4367  payable(owner()).transfer(metaverseFee) */\n      0x08fc\n        /* \"MarketERC721.sol\":4354:4366  metaverseFee */\n      dup9\n        /* \"MarketERC721.sol\":4328:4367  payable(owner()).transfer(metaverseFee) */\n      swap1\n      dup2\n      iszero\n      mul\n      swap1\n      mload(0x40)\n      0x00\n      mload(0x40)\n      dup1\n      dup4\n      sub\n      dup2\n      dup6\n      dup9\n      dup9\n      call\n      swap4\n      pop\n      pop\n      pop\n      pop\n      iszero\n      dup1\n      iszero\n      tag_241\n      jumpi\n      returndatasize\n      0x00\n      dup1\n      returndatacopy\n      revert(0x00, returndatasize)\n    tag_241:\n      pop\n        /* \"MarketERC721.sol\":4404:4405  0 */\n      0x00\n        /* \"MarketERC721.sol\":4385:4406  referer != address(0) */\n      0xffffffffffffffffffffffffffffffffffffffff\n      and\n        /* \"MarketERC721.sol\":4385:4392  referer */\n      dup9\n        /* \"MarketERC721.sol\":4385:4406  referer != address(0) */\n      0xffffffffffffffffffffffffffffffffffffffff\n      and\n      eq\n        /* \"MarketERC721.sol\":4382:4479  if(referer != address(0)){\r... */\n      tag_242\n      jumpi\n        /* \"MarketERC721.sol\":4434:4441  referer */\n      dup8\n        /* \"MarketERC721.sol\":4426:4451  payable(referer).transfer */\n      0xffffffffffffffffffffffffffffffffffffffff\n      and\n        /* \"MarketERC721.sol\":4426:4463  payable(referer).transfer(referalFee) */\n      0x08fc\n        /* \"MarketERC721.sol\":4452:4462  referalFee */\n      dup6\n        /* \"MarketERC721.sol\":4426:4463  payable(referer).transfer(referalFee) */\n      swap1\n      dup2\n      iszero\n      mul\n      swap1\n      mload(0x40)\n      0x00\n      mload(0x40)\n      dup1\n      dup4\n      sub\n      dup2\n      dup6\n      dup9\n      dup9\n      call\n      swap4\n      pop\n      pop\n      pop\n      pop\n      iszero\n      dup1\n      iszero\n      tag_244\n      jumpi\n      returndatasize\n      0x00\n      dup1\n      returndatacopy\n      revert(0x00, returndatasize)\n    tag_244:\n      pop\n        /* \"MarketERC721.sol\":4382:4479  if(referer != address(0)){\r... */\n    tag_242:\n        /* \"MarketERC721.sol\":4498:4504  uint i */\n      0x00\n        /* \"MarketERC721.sol\":4493:4801  for (uint i = 0; i < 5; i++) {\r... */\n    tag_245:\n        /* \"MarketERC721.sol\":4514:4515  5 */\n      0x05\n        /* \"MarketERC721.sol\":4510:4511  i */\n      dup2\n        /* \"MarketERC721.sol\":4510:4515  i < 5 */\n      lt\n        /* \"MarketERC721.sol\":4493:4801  for (uint i = 0; i < 5; i++) {\r... */\n      iszero\n      tag_246\n      jumpi\n        /* \"MarketERC721.sol\":4583:4584  0 */\n      0x00\n        /* \"MarketERC721.sol\":4549:4585  item.previousOwners[i] != address(0) */\n      0xffffffffffffffffffffffffffffffffffffffff\n      and\n        /* \"MarketERC721.sol\":4549:4553  item */\n      dup4\n        /* \"MarketERC721.sol\":4549:4568  item.previousOwners */\n      0x05\n      add\n        /* \"MarketERC721.sol\":4549:4571  item.previousOwners[i] */\n      0x00\n        /* \"MarketERC721.sol\":4569:4570  i */\n      dup4\n        /* \"MarketERC721.sol\":4549:4571  item.previousOwners[i] */\n      dup2\n      mstore\n      0x20\n      add\n      swap1\n      dup2\n      mstore\n      0x20\n      add\n      0x00\n      keccak256\n      0x00\n      swap1\n      sload\n      swap1\n      0x0100\n      exp\n      swap1\n      div\n      0xffffffffffffffffffffffffffffffffffffffff\n      and\n        /* \"MarketERC721.sol\":4549:4585  item.previousOwners[i] != address(0) */\n      0xffffffffffffffffffffffffffffffffffffffff\n      and\n      eq\n        /* \"MarketERC721.sol\":4545:4782  if (item.previousOwners[i] != address(0)) {\r... */\n      tag_248\n      jumpi\n        /* \"MarketERC721.sol\":4622:4626  item */\n      dup3\n        /* \"MarketERC721.sol\":4622:4641  item.previousOwners */\n      0x05\n      add\n        /* \"MarketERC721.sol\":4622:4644  item.previousOwners[i] */\n      0x00\n        /* \"MarketERC721.sol\":4642:4643  i */\n      dup3\n        /* \"MarketERC721.sol\":4622:4644  item.previousOwners[i] */\n      dup2\n      mstore\n      0x20\n      add\n      swap1\n      dup2\n      mstore\n      0x20\n      add\n      0x00\n      keccak256\n      0x00\n      swap1\n      sload\n      swap1\n      0x0100\n      exp\n      swap1\n      div\n      0xffffffffffffffffffffffffffffffffffffffff\n      and\n        /* \"MarketERC721.sol\":4614:4654  payable(item.previousOwners[i]).transfer */\n      0xffffffffffffffffffffffffffffffffffffffff\n      and\n        /* \"MarketERC721.sol\":4614:4675  payable(item.previousOwners[i]).transfer(previousOwnerFee[j]) */\n      0x08fc\n        /* \"MarketERC721.sol\":4655:4671  previousOwnerFee */\n      dup9\n      dup9\n        /* \"MarketERC721.sol\":4672:4673  j */\n      dup8\n        /* \"MarketERC721.sol\":4655:4674  previousOwnerFee[j] */\n      dup2\n      dup2\n      lt\n      tag_249\n      jumpi\n      tag_250\n      tag_228\n      jump\t// in\n    tag_250:\n    tag_249:\n      swap1\n      pop\n      0x20\n      mul\n      add\n      calldataload\n        /* \"MarketERC721.sol\":4614:4675  payable(item.previousOwners[i]).transfer(previousOwnerFee[j]) */\n      swap1\n      dup2\n      iszero\n      mul\n      swap1\n      mload(0x40)\n      0x00\n      mload(0x40)\n      dup1\n      dup4\n      sub\n      dup2\n      dup6\n      dup9\n      dup9\n      call\n      swap4\n      pop\n      pop\n      pop\n      pop\n      iszero\n      dup1\n      iszero\n      tag_252\n      jumpi\n      returndatasize\n      0x00\n      dup1\n      returndatacopy\n      revert(0x00, returndatasize)\n    tag_252:\n      pop\n        /* \"MarketERC721.sol\":4545:4782  if (item.previousOwners[i] != address(0)) {\r... */\n      jump(tag_253)\n    tag_248:\n        /* \"MarketERC721.sol\":4753:4758  break */\n      jump(tag_246)\n        /* \"MarketERC721.sol\":4545:4782  if (item.previousOwners[i] != address(0)) {\r... */\n    tag_253:\n        /* \"MarketERC721.sol\":4517:4520  i++ */\n      dup1\n      dup1\n      tag_254\n      swap1\n      tag_146\n      jump\t// in\n    tag_254:\n      swap2\n      pop\n      pop\n        /* \"MarketERC721.sol\":4493:4801  for (uint i = 0; i < 5; i++) {\r... */\n      jump(tag_245)\n    tag_246:\n      pop\n        /* \"MarketERC721.sol\":4817:4822  token */\n      dup1\n        /* \"MarketERC721.sol\":4817:4839  token.safeTransferFrom */\n      0xffffffffffffffffffffffffffffffffffffffff\n      and\n      0xb88d4fde\n        /* \"MarketERC721.sol\":4840:4844  item */\n      dup4\n        /* \"MarketERC721.sol\":4840:4851  item.seller */\n      0x01\n      add\n      0x00\n      swap1\n      sload\n      swap1\n      0x0100\n      exp\n      swap1\n      div\n      0xffffffffffffffffffffffffffffffffffffffff\n      and\n        /* \"MarketERC721.sol\":4853:4863  msg.sender */\n      caller\n        /* \"MarketERC721.sol\":4865:4872  tokenId */\n      dup14\n      dup14\n        /* \"MarketERC721.sol\":4873:4874  j */\n      dup9\n        /* \"MarketERC721.sol\":4865:4875  tokenId[j] */\n      dup2\n      dup2\n      lt\n      tag_255\n      jumpi\n      tag_256\n      tag_228\n      jump\t// in\n    tag_256:\n    tag_255:\n      swap1\n      pop\n      0x20\n      mul\n      add\n      calldataload\n        /* \"MarketERC721.sol\":4817:4880  token.safeTransferFrom(item.seller, msg.sender, tokenId[j], \"\") */\n      mload(0x40)\n      dup5\n      0xffffffff\n      and\n      0xe0\n      shl\n      dup2\n      mstore\n      0x04\n      add\n      tag_257\n      swap4\n      swap3\n      swap2\n      swap1\n      tag_148\n      jump\t// in\n    tag_257:\n      0x00\n      mload(0x40)\n      dup1\n      dup4\n      sub\n      dup2\n      0x00\n      dup8\n      dup1\n      extcodesize\n      iszero\n      dup1\n      iszero\n      tag_258\n      jumpi\n      0x00\n      dup1\n      revert\n    tag_258:\n      pop\n      gas\n      call\n      iszero\n      dup1\n      iszero\n      tag_260\n      jumpi\n      returndatasize\n      0x00\n      dup1\n      returndatacopy\n      revert(0x00, returndatasize)\n    tag_260:\n      pop\n      pop\n      pop\n      pop\n        /* \"MarketERC721.sol\":4908:4918  msg.sender */\n      caller\n        /* \"MarketERC721.sol\":4895:4899  item */\n      dup3\n        /* \"MarketERC721.sol\":4895:4905  item.owner */\n      0x02\n      add\n      0x00\n        /* \"MarketERC721.sol\":4895:4918  item.owner = msg.sender */\n      0x0100\n      exp\n      dup2\n      sload\n      dup2\n      0xffffffffffffffffffffffffffffffffffffffff\n      mul\n      not\n      and\n      swap1\n      dup4\n      0xffffffffffffffffffffffffffffffffffffffff\n      and\n      mul\n      or\n      swap1\n      sstore\n      pop\n        /* \"MarketERC721.sol\":4962:4963  5 */\n      0x05\n        /* \"MarketERC721.sol\":4938:4942  item */\n      dup3\n        /* \"MarketERC721.sol\":4938:4959  item.prevOwnersAmount */\n      0x04\n      add\n      sload\n        /* \"MarketERC721.sol\":4938:4963  item.prevOwnersAmount < 5 */\n      lt\n        /* \"MarketERC721.sol\":4935:5026  if(item.prevOwnersAmount < 5) {\r... */\n      iszero\n      tag_261\n      jumpi\n        /* \"MarketERC721.sol\":5009:5010  1 */\n      0x01\n        /* \"MarketERC721.sol\":4984:4988  item */\n      dup3\n        /* \"MarketERC721.sol\":4984:5005  item.prevOwnersAmount */\n      0x04\n      add\n      0x00\n        /* \"MarketERC721.sol\":4984:5010  item.prevOwnersAmount += 1 */\n      dup3\n      dup3\n      sload\n      tag_262\n      swap2\n      swap1\n      tag_154\n      jump\t// in\n    tag_262:\n      swap3\n      pop\n      pop\n      dup2\n      swap1\n      sstore\n      pop\n        /* \"MarketERC721.sol\":4935:5026  if(item.prevOwnersAmount < 5) {\r... */\n    tag_261:\n        /* \"MarketERC721.sol\":5064:5065  3 */\n      0x03\n        /* \"MarketERC721.sol\":5045:5049  item */\n      dup3\n        /* \"MarketERC721.sol\":5045:5060  item.ownerCount */\n      0x03\n      add\n      sload\n        /* \"MarketERC721.sol\":5045:5065  item.ownerCount <= 3 */\n      gt\n        /* \"MarketERC721.sol\":5042:5333  if(item.ownerCount <= 3) {\r... */\n      tag_263\n      jumpi\n        /* \"MarketERC721.sol\":5125:5129  item */\n      dup2\n        /* \"MarketERC721.sol\":5125:5136  item.seller */\n      0x01\n      add\n      0x00\n      swap1\n      sload\n      swap1\n      0x0100\n      exp\n      swap1\n      div\n      0xffffffffffffffffffffffffffffffffffffffff\n      and\n        /* \"MarketERC721.sol\":5086:5090  item */\n      dup3\n        /* \"MarketERC721.sol\":5086:5105  item.previousOwners */\n      0x05\n      add\n        /* \"MarketERC721.sol\":5086:5122  item.previousOwners[item.ownerCount] */\n      0x00\n        /* \"MarketERC721.sol\":5106:5110  item */\n      dup5\n        /* \"MarketERC721.sol\":5106:5121  item.ownerCount */\n      0x03\n      add\n      sload\n        /* \"MarketERC721.sol\":5086:5122  item.previousOwners[item.ownerCount] */\n      dup2\n      mstore\n      0x20\n      add\n      swap1\n      dup2\n      mstore\n      0x20\n      add\n      0x00\n      keccak256\n      0x00\n        /* \"MarketERC721.sol\":5086:5136  item.previousOwners[item.ownerCount] = item.seller */\n      0x0100\n      exp\n      dup2\n      sload\n      dup2\n      0xffffffffffffffffffffffffffffffffffffffff\n      mul\n      not\n      and\n      swap1\n      dup4\n      0xffffffffffffffffffffffffffffffffffffffff\n      and\n      mul\n      or\n      swap1\n      sstore\n      pop\n        /* \"MarketERC721.sol\":5174:5175  1 */\n      0x01\n        /* \"MarketERC721.sol\":5155:5159  item */\n      dup3\n        /* \"MarketERC721.sol\":5155:5170  item.ownerCount */\n      0x03\n      add\n      0x00\n        /* \"MarketERC721.sol\":5155:5175  item.ownerCount += 1 */\n      dup3\n      dup3\n      sload\n      tag_264\n      swap2\n      swap1\n      tag_154\n      jump\t// in\n    tag_264:\n      swap3\n      pop\n      pop\n      dup2\n      swap1\n      sstore\n      pop\n        /* \"MarketERC721.sol\":5042:5333  if(item.ownerCount <= 3) {\r... */\n      jump(tag_265)\n    tag_263:\n        /* \"MarketERC721.sol\":5268:5272  item */\n      dup2\n        /* \"MarketERC721.sol\":5268:5279  item.seller */\n      0x01\n      add\n      0x00\n      swap1\n      sload\n      swap1\n      0x0100\n      exp\n      swap1\n      div\n      0xffffffffffffffffffffffffffffffffffffffff\n      and\n        /* \"MarketERC721.sol\":5229:5233  item */\n      dup3\n        /* \"MarketERC721.sol\":5229:5248  item.previousOwners */\n      0x05\n      add\n        /* \"MarketERC721.sol\":5229:5265  item.previousOwners[item.ownerCount] */\n      0x00\n        /* \"MarketERC721.sol\":5249:5253  item */\n      dup5\n        /* \"MarketERC721.sol\":5249:5264  item.ownerCount */\n      0x03\n      add\n      sload\n        /* \"MarketERC721.sol\":5229:5265  item.previousOwners[item.ownerCount] */\n      dup2\n      mstore\n      0x20\n      add\n      swap1\n      dup2\n      mstore\n      0x20\n      add\n      0x00\n      keccak256\n      0x00\n        /* \"MarketERC721.sol\":5229:5279  item.previousOwners[item.ownerCount] = item.seller */\n      0x0100\n      exp\n      dup2\n      sload\n      dup2\n      0xffffffffffffffffffffffffffffffffffffffff\n      mul\n      not\n      and\n      swap1\n      dup4\n      0xffffffffffffffffffffffffffffffffffffffff\n      and\n      mul\n      or\n      swap1\n      sstore\n      pop\n        /* \"MarketERC721.sol\":5316:5317  0 */\n      0x00\n        /* \"MarketERC721.sol\":5298:5302  item */\n      dup3\n        /* \"MarketERC721.sol\":5298:5313  item.ownerCount */\n      0x03\n      add\n        /* \"MarketERC721.sol\":5298:5317  item.ownerCount = 0 */\n      dup2\n      swap1\n      sstore\n      pop\n        /* \"MarketERC721.sol\":5042:5333  if(item.ownerCount <= 3) {\r... */\n    tag_265:\n        /* \"MarketERC721.sol\":5366:5371  false */\n      0x00\n        /* \"MarketERC721.sol\":5349:5353  item */\n      dup3\n        /* \"MarketERC721.sol\":5349:5363  item.isListing */\n      0x02\n      add\n      0x14\n        /* \"MarketERC721.sol\":5349:5371  item.isListing = false */\n      0x0100\n      exp\n      dup2\n      sload\n      dup2\n      0xff\n      mul\n      not\n      and\n      swap1\n      dup4\n      iszero\n      iszero\n      mul\n      or\n      swap1\n      sstore\n      pop\n        /* \"MarketERC721.sol\":5432:5436  item */\n      dup2\n        /* \"MarketERC721.sol\":5432:5446  item.isListing */\n      0x02\n      add\n      0x14\n      swap1\n      sload\n      swap1\n      0x0100\n      exp\n      swap1\n      div\n      0xff\n      and\n        /* \"MarketERC721.sol\":5391:5447  List(msg.sender, tokenId[j], item.price, item.isListing) */\n      iszero\n      iszero\n        /* \"MarketERC721.sol\":5408:5415  tokenId */\n      dup11\n      dup11\n        /* \"MarketERC721.sol\":5416:5417  j */\n      dup6\n        /* \"MarketERC721.sol\":5408:5418  tokenId[j] */\n      dup2\n      dup2\n      lt\n      tag_266\n      jumpi\n      tag_267\n      tag_228\n      jump\t// in\n    tag_267:\n    tag_266:\n      swap1\n      pop\n      0x20\n      mul\n      add\n      calldataload\n        /* \"MarketERC721.sol\":5396:5406  msg.sender */\n      caller\n        /* \"MarketERC721.sol\":5391:5447  List(msg.sender, tokenId[j], item.price, item.isListing) */\n      0xffffffffffffffffffffffffffffffffffffffff\n      and\n      0xa7cd299f7ebc29460ad99cf3ea75776d7cd038a63a59fa595e86441f8190ef90\n        /* \"MarketERC721.sol\":5420:5424  item */\n      dup6\n        /* \"MarketERC721.sol\":5420:5430  item.price */\n      0x00\n      add\n      sload\n        /* \"MarketERC721.sol\":5391:5447  List(msg.sender, tokenId[j], item.price, item.isListing) */\n      mload(0x40)\n      tag_268\n      swap2\n      swap1\n      tag_59\n      jump\t// in\n    tag_268:\n      mload(0x40)\n      dup1\n      swap2\n      sub\n      swap1\n      log4\n        /* \"MarketERC721.sol\":3902:5459  {\r... */\n      pop\n      pop\n        /* \"MarketERC721.sol\":3897:3900  j++ */\n      dup1\n      dup1\n      tag_269\n      swap1\n      tag_146\n      jump\t// in\n    tag_269:\n      swap2\n      pop\n      pop\n        /* \"MarketERC721.sol\":3860:5459  for (uint j = 0; j < tokenId.length; j++) {\r... */\n      jump(tag_223)\n    tag_224:\n      pop\n        /* \"MarketERC721.sol\":3665:5466  function purchaseBatch(address contractAddr, uint256[] calldata tokenId, address referer, uint256 metaverseFee, uint256[] calldata previousOwnerFee, uint256 referalFee) public payable {\r... */\n      pop\n      pop\n      pop\n      pop\n      pop\n      pop\n      pop\n      pop\n      jump\t// out\n        /* \"Ownable.sol\":384:471  function owner() public view virtual returns (address) {\r... */\n    tag_78:\n        /* \"Ownable.sol\":430:437  address */\n      0x00\n        /* \"Ownable.sol\":457:463  _owner */\n      dup1\n      0x00\n      swap1\n      sload\n      swap1\n      0x0100\n      exp\n      swap1\n      div\n      0xffffffffffffffffffffffffffffffffffffffff\n      and\n        /* \"Ownable.sol\":450:463  return _owner */\n      swap1\n      pop\n        /* \"Ownable.sol\":384:471  function owner() public view virtual returns (address) {\r... */\n      swap1\n      jump\t// out\n        /* \"MarketERC721.sol\":1638:2153  function cancelListing(address contractAddr, uint256 tokenId) public {\r... */\n    tag_83:\n        /* \"MarketERC721.sol\":1718:1730  ERC721 token */\n      0x00\n        /* \"MarketERC721.sol\":1740:1752  contractAddr */\n      dup3\n        /* \"MarketERC721.sol\":1718:1753  ERC721 token = ERC721(contractAddr) */\n      swap1\n      pop\n        /* \"MarketERC721.sol\":1764:1784  Listing storage item */\n      0x00\n        /* \"MarketERC721.sol\":1787:1795  listings */\n      0x01\n        /* \"MarketERC721.sol\":1787:1809  listings[contractAddr] */\n      0x00\n        /* \"MarketERC721.sol\":1796:1808  contractAddr */\n      dup6\n        /* \"MarketERC721.sol\":1787:1809  listings[contractAddr] */\n      0xffffffffffffffffffffffffffffffffffffffff\n      and\n      0xffffffffffffffffffffffffffffffffffffffff\n      and\n      dup2\n      mstore\n      0x20\n      add\n      swap1\n      dup2\n      mstore\n      0x20\n      add\n      0x00\n      keccak256\n        /* \"MarketERC721.sol\":1787:1818  listings[contractAddr][tokenId] */\n      0x00\n        /* \"MarketERC721.sol\":1810:1817  tokenId */\n      dup5\n        /* \"MarketERC721.sol\":1787:1818  listings[contractAddr][tokenId] */\n      dup2\n      mstore\n      0x20\n      add\n      swap1\n      dup2\n      mstore\n      0x20\n      add\n      0x00\n      keccak256\n        /* \"MarketERC721.sol\":1764:1818  Listing storage item = listings[contractAddr][tokenId] */\n      swap1\n      pop\n        /* \"MarketERC721.sol\":1852:1862  msg.sender */\n      caller\n        /* \"MarketERC721.sol\":1837:1862  item.seller == msg.sender */\n      0xffffffffffffffffffffffffffffffffffffffff\n      and\n        /* \"MarketERC721.sol\":1837:1841  item */\n      dup2\n        /* \"MarketERC721.sol\":1837:1848  item.seller */\n      0x01\n      add\n      0x00\n      swap1\n      sload\n      swap1\n      0x0100\n      exp\n      swap1\n      div\n      0xffffffffffffffffffffffffffffffffffffffff\n      and\n        /* \"MarketERC721.sol\":1837:1862  item.seller == msg.sender */\n      0xffffffffffffffffffffffffffffffffffffffff\n      and\n      eq\n        /* \"MarketERC721.sol\":1829:1880  require(item.seller == msg.sender, \"Unauthorized.\") */\n      tag_272\n      jumpi\n      mload(0x40)\n      0x08c379a000000000000000000000000000000000000000000000000000000000\n      dup2\n      mstore\n      0x04\n      add\n      tag_273\n      swap1\n      tag_274\n      jump\t// in\n    tag_273:\n      mload(0x40)\n      dup1\n      swap2\n      sub\n      swap1\n      revert\n    tag_272:\n        /* \"MarketERC721.sol\":1899:1903  item */\n      dup1\n        /* \"MarketERC721.sol\":1899:1913  item.isListing */\n      0x02\n      add\n      0x14\n      swap1\n      sload\n      swap1\n      0x0100\n      exp\n      swap1\n      div\n      0xff\n      and\n        /* \"MarketERC721.sol\":1891:1942  require(item.isListing, \"This NFT is not listing.\") */\n      tag_275\n      jumpi\n      mload(0x40)\n      0x08c379a000000000000000000000000000000000000000000000000000000000\n      dup2\n      mstore\n      0x04\n      add\n      tag_276\n      swap1\n      tag_277\n      jump\t// in\n    tag_276:\n      mload(0x40)\n      dup1\n      swap2\n      sub\n      swap1\n      revert\n    tag_275:\n        /* \"MarketERC721.sol\":1961:1966  token */\n      dup2\n        /* \"MarketERC721.sol\":1961:1983  token.isApprovedForAll */\n      0xffffffffffffffffffffffffffffffffffffffff\n      and\n      0xe985e9c5\n        /* \"MarketERC721.sol\":1984:1994  msg.sender */\n      caller\n        /* \"MarketERC721.sol\":2004:2008  this */\n      address\n        /* \"MarketERC721.sol\":1961:2010  token.isApprovedForAll(msg.sender, address(this)) */\n      mload(0x40)\n      dup4\n      0xffffffff\n      and\n      0xe0\n      shl\n      dup2\n      mstore\n      0x04\n      add\n      tag_278\n      swap3\n      swap2\n      swap1\n      tag_180\n      jump\t// in\n    tag_278:\n      0x20\n      mload(0x40)\n      dup1\n      dup4\n      sub\n      dup2\n      dup7\n      dup1\n      extcodesize\n      iszero\n      dup1\n      iszero\n      tag_279\n      jumpi\n      0x00\n      dup1\n      revert\n    tag_279:\n      pop\n      gas\n      staticcall\n      iszero\n      dup1\n      iszero\n      tag_281\n      jumpi\n      returndatasize\n      0x00\n      dup1\n      returndatacopy\n      revert(0x00, returndatasize)\n    tag_281:\n      pop\n      pop\n      pop\n      pop\n      mload(0x40)\n      returndatasize\n      not(0x1f)\n      0x1f\n      dup3\n      add\n      and\n      dup3\n      add\n      dup1\n      0x40\n      mstore\n      pop\n      dup2\n      add\n      swap1\n      tag_282\n      swap2\n      swap1\n      tag_122\n      jump\t// in\n    tag_282:\n        /* \"MarketERC721.sol\":1953:2041  require(token.isApprovedForAll(msg.sender, address(this)), \"Contract must be approved.\") */\n      tag_283\n      jumpi\n      mload(0x40)\n      0x08c379a000000000000000000000000000000000000000000000000000000000\n      dup2\n      mstore\n      0x04\n      add\n      tag_284\n      swap1\n      tag_187\n      jump\t// in\n    tag_284:\n      mload(0x40)\n      dup1\n      swap2\n      sub\n      swap1\n      revert\n    tag_283:\n        /* \"MarketERC721.sol\":2071:2076  false */\n      0x00\n        /* \"MarketERC721.sol\":2054:2058  item */\n      dup2\n        /* \"MarketERC721.sol\":2054:2068  item.isListing */\n      0x02\n      add\n      0x14\n        /* \"MarketERC721.sol\":2054:2076  item.isListing = false */\n      0x0100\n      exp\n      dup2\n      sload\n      dup2\n      0xff\n      mul\n      not\n      and\n      swap1\n      dup4\n      iszero\n      iszero\n      mul\n      or\n      swap1\n      sstore\n      pop\n        /* \"MarketERC721.sol\":2130:2134  item */\n      dup1\n        /* \"MarketERC721.sol\":2130:2144  item.isListing */\n      0x02\n      add\n      0x14\n      swap1\n      sload\n      swap1\n      0x0100\n      exp\n      swap1\n      div\n      0xff\n      and\n        /* \"MarketERC721.sol\":2092:2145  List(msg.sender, tokenId, item.price, item.isListing) */\n      iszero\n      iszero\n        /* \"MarketERC721.sol\":2109:2116  tokenId */\n      dup4\n        /* \"MarketERC721.sol\":2097:2107  msg.sender */\n      caller\n        /* \"MarketERC721.sol\":2092:2145  List(msg.sender, tokenId, item.price, item.isListing) */\n      0xffffffffffffffffffffffffffffffffffffffff\n      and\n      0xa7cd299f7ebc29460ad99cf3ea75776d7cd038a63a59fa595e86441f8190ef90\n        /* \"MarketERC721.sol\":2118:2122  item */\n      dup5\n        /* \"MarketERC721.sol\":2118:2128  item.price */\n      0x00\n      add\n      sload\n        /* \"MarketERC721.sol\":2092:2145  List(msg.sender, tokenId, item.price, item.isListing) */\n      mload(0x40)\n      tag_285\n      swap2\n      swap1\n      tag_59\n      jump\t// in\n    tag_285:\n      mload(0x40)\n      dup1\n      swap2\n      sub\n      swap1\n      log4\n        /* \"MarketERC721.sol\":1707:2153  {\r... */\n      pop\n      pop\n        /* \"MarketERC721.sol\":1638:2153  function cancelListing(address contractAddr, uint256 tokenId) public {\r... */\n      pop\n      pop\n      jump\t// out\n        /* \"MarketERC721.sol\":7109:8936  function purchaseERC20Batch(address contractAddr, address coinAddr, uint256[] calldata tokenId, address referer, uint256 metaverseFee, uint256[] calldata previousOwnerFee, uint256 referalFee) public payable {\r... */\n    tag_87:\n        /* \"MarketERC721.sol\":7332:7338  uint j */\n      0x00\n        /* \"MarketERC721.sol\":7327:8929  for (uint j = 0; j < tokenId.length; j++) {\r... */\n    tag_287:\n        /* \"MarketERC721.sol\":7348:7355  tokenId */\n      dup8\n      dup8\n        /* \"MarketERC721.sol\":7348:7362  tokenId.length */\n      swap1\n      pop\n        /* \"MarketERC721.sol\":7344:7345  j */\n      dup2\n        /* \"MarketERC721.sol\":7344:7362  j < tokenId.length */\n      lt\n        /* \"MarketERC721.sol\":7327:8929  for (uint j = 0; j < tokenId.length; j++) {\r... */\n      iszero\n      tag_288\n      jumpi\n        /* \"MarketERC721.sol\":7384:7404  Listing storage item */\n      0x00\n        /* \"MarketERC721.sol\":7407:7415  listings */\n      0x01\n        /* \"MarketERC721.sol\":7407:7429  listings[contractAddr] */\n      0x00\n        /* \"MarketERC721.sol\":7416:7428  contractAddr */\n      dup13\n        /* \"MarketERC721.sol\":7407:7429  listings[contractAddr] */\n      0xffffffffffffffffffffffffffffffffffffffff\n      and\n      0xffffffffffffffffffffffffffffffffffffffff\n      and\n      dup2\n      mstore\n      0x20\n      add\n      swap1\n      dup2\n      mstore\n      0x20\n      add\n      0x00\n      keccak256\n        /* \"MarketERC721.sol\":7407:7441  listings[contractAddr][tokenId[j]] */\n      0x00\n        /* \"MarketERC721.sol\":7430:7437  tokenId */\n      dup11\n      dup11\n        /* \"MarketERC721.sol\":7438:7439  j */\n      dup6\n        /* \"MarketERC721.sol\":7430:7440  tokenId[j] */\n      dup2\n      dup2\n      lt\n      tag_290\n      jumpi\n      tag_291\n      tag_228\n      jump\t// in\n    tag_291:\n    tag_290:\n      swap1\n      pop\n      0x20\n      mul\n      add\n      calldataload\n        /* \"MarketERC721.sol\":7407:7441  listings[contractAddr][tokenId[j]] */\n      dup2\n      mstore\n      0x20\n      add\n      swap1\n      dup2\n      mstore\n      0x20\n      add\n      0x00\n      keccak256\n        /* \"MarketERC721.sol\":7384:7441  Listing storage item = listings[contractAddr][tokenId[j]] */\n      swap1\n      pop\n        /* \"MarketERC721.sol\":7456:7468  ERC721 token */\n      0x00\n        /* \"MarketERC721.sol\":7478:7490  contractAddr */\n      dup12\n        /* \"MarketERC721.sol\":7456:7491  ERC721 token = ERC721(contractAddr) */\n      swap1\n      pop\n        /* \"MarketERC721.sol\":7506:7516  ERC20 coin */\n      0x00\n        /* \"MarketERC721.sol\":7525:7533  coinAddr */\n      dup12\n        /* \"MarketERC721.sol\":7506:7534  ERC20 coin = ERC20(coinAddr) */\n      swap1\n      pop\n        /* \"MarketERC721.sol\":7557:7561  item */\n      dup3\n        /* \"MarketERC721.sol\":7557:7571  item.isListing */\n      0x02\n      add\n      0x14\n      swap1\n      sload\n      swap1\n      0x0100\n      exp\n      swap1\n      div\n      0xff\n      and\n        /* \"MarketERC721.sol\":7549:7601  require(item.isListing, \"This NFT is not for sell.\") */\n      tag_292\n      jumpi\n      mload(0x40)\n      0x08c379a000000000000000000000000000000000000000000000000000000000\n      dup2\n      mstore\n      0x04\n      add\n      tag_293\n      swap1\n      tag_99\n      jump\t// in\n    tag_293:\n      mload(0x40)\n      dup1\n      swap2\n      sub\n      swap1\n      revert\n    tag_292:\n        /* \"MarketERC721.sol\":7638:7642  item */\n      dup3\n        /* \"MarketERC721.sol\":7638:7649  item.seller */\n      0x01\n      add\n      0x00\n      swap1\n      sload\n      swap1\n      0x0100\n      exp\n      swap1\n      div\n      0xffffffffffffffffffffffffffffffffffffffff\n      and\n        /* \"MarketERC721.sol\":7624:7649  msg.sender != item.seller */\n      0xffffffffffffffffffffffffffffffffffffffff\n      and\n        /* \"MarketERC721.sol\":7624:7634  msg.sender */\n      caller\n        /* \"MarketERC721.sol\":7624:7649  msg.sender != item.seller */\n      0xffffffffffffffffffffffffffffffffffffffff\n      and\n      eq\n      iszero\n        /* \"MarketERC721.sol\":7616:7672  require(msg.sender != item.seller, \"Buy from yourself.\") */\n      tag_294\n      jumpi\n      mload(0x40)\n      0x08c379a000000000000000000000000000000000000000000000000000000000\n      dup2\n      mstore\n      0x04\n      add\n      tag_295\n      swap1\n      tag_102\n      jump\t// in\n    tag_295:\n      mload(0x40)\n      dup1\n      swap2\n      sub\n      swap1\n      revert\n    tag_294:\n        /* \"MarketERC721.sol\":7725:7729  item */\n      dup3\n        /* \"MarketERC721.sol\":7725:7735  item.price */\n      0x00\n      add\n      sload\n        /* \"MarketERC721.sol\":7695:7699  coin */\n      dup2\n        /* \"MarketERC721.sol\":7695:7709  coin.balanceOf */\n      0xffffffffffffffffffffffffffffffffffffffff\n      and\n      0x70a08231\n        /* \"MarketERC721.sol\":7710:7720  msg.sender */\n      caller\n        /* \"MarketERC721.sol\":7695:7721  coin.balanceOf(msg.sender) */\n      mload(0x40)\n      dup3\n      0xffffffff\n      and\n      0xe0\n      shl\n      dup2\n      mstore\n      0x04\n      add\n      tag_296\n      swap2\n      swap1\n      tag_38\n      jump\t// in\n    tag_296:\n      0x20\n      mload(0x40)\n      dup1\n      dup4\n      sub\n      dup2\n      dup7\n      dup1\n      extcodesize\n      iszero\n      dup1\n      iszero\n      tag_297\n      jumpi\n      0x00\n      dup1\n      revert\n    tag_297:\n      pop\n      gas\n      staticcall\n      iszero\n      dup1\n      iszero\n      tag_299\n      jumpi\n      returndatasize\n      0x00\n      dup1\n      returndatacopy\n      revert(0x00, returndatasize)\n    tag_299:\n      pop\n      pop\n      pop\n      pop\n      mload(0x40)\n      returndatasize\n      not(0x1f)\n      0x1f\n      dup3\n      add\n      and\n      dup3\n      add\n      dup1\n      0x40\n      mstore\n      pop\n      dup2\n      add\n      swap1\n      tag_300\n      swap2\n      swap1\n      tag_108\n      jump\t// in\n    tag_300:\n        /* \"MarketERC721.sol\":7695:7735  coin.balanceOf(msg.sender) >= item.price */\n      lt\n      iszero\n        /* \"MarketERC721.sol\":7687:7764  require(coin.balanceOf(msg.sender) >= item.price, \"Insufficient funds sent.\") */\n      tag_301\n      jumpi\n      mload(0x40)\n      0x08c379a000000000000000000000000000000000000000000000000000000000\n      dup2\n      mstore\n      0x04\n      add\n      tag_302\n      swap1\n      tag_111\n      jump\t// in\n    tag_302:\n      mload(0x40)\n      dup1\n      swap2\n      sub\n      swap1\n      revert\n    tag_301:\n        /* \"MarketERC721.sol\":7779:7783  coin */\n      dup1\n        /* \"MarketERC721.sol\":7779:7796  coin.transferFrom */\n      0xffffffffffffffffffffffffffffffffffffffff\n      and\n      0x23b872dd\n        /* \"MarketERC721.sol\":7797:7807  msg.sender */\n      caller\n        /* \"MarketERC721.sol\":7809:7813  item */\n      dup6\n        /* \"MarketERC721.sol\":7809:7820  item.seller */\n      0x01\n      add\n      0x00\n      swap1\n      sload\n      swap1\n      0x0100\n      exp\n      swap1\n      div\n      0xffffffffffffffffffffffffffffffffffffffff\n      and\n        /* \"MarketERC721.sol\":7849:7851  20 */\n      0x14\n        /* \"MarketERC721.sol\":7836:7840  item */\n      dup8\n        /* \"MarketERC721.sol\":7836:7846  item.price */\n      0x00\n      add\n      sload\n        /* \"MarketERC721.sol\":7836:7851  item.price / 20 */\n      tag_303\n      swap2\n      swap1\n      tag_113\n      jump\t// in\n    tag_303:\n        /* \"MarketERC721.sol\":7822:7826  item */\n      dup8\n        /* \"MarketERC721.sol\":7822:7832  item.price */\n      0x00\n      add\n      sload\n        /* \"MarketERC721.sol\":7822:7852  item.price - (item.price / 20) */\n      tag_304\n      swap2\n      swap1\n      tag_115\n      jump\t// in\n    tag_304:\n        /* \"MarketERC721.sol\":7779:7853  coin.transferFrom(msg.sender, item.seller, item.price - (item.price / 20)) */\n      mload(0x40)\n      dup5\n      0xffffffff\n      and\n      0xe0\n      shl\n      dup2\n      mstore\n      0x04\n      add\n      tag_305\n      swap4\n      swap3\n      swap2\n      swap1\n      tag_117\n      jump\t// in\n    tag_305:\n      0x20\n      mload(0x40)\n      dup1\n      dup4\n      sub\n      dup2\n      0x00\n      dup8\n      dup1\n      extcodesize\n      iszero\n      dup1\n      iszero\n      tag_306\n      jumpi\n      0x00\n      dup1\n      revert\n    tag_306:\n      pop\n      gas\n      call\n      iszero\n      dup1\n      iszero\n      tag_308\n      jumpi\n      returndatasize\n      0x00\n      dup1\n      returndatacopy\n      revert(0x00, returndatasize)\n    tag_308:\n      pop\n      pop\n      pop\n      pop\n      mload(0x40)\n      returndatasize\n      not(0x1f)\n      0x1f\n      dup3\n      add\n      and\n      dup3\n      add\n      dup1\n      0x40\n      mstore\n      pop\n      dup2\n      add\n      swap1\n      tag_309\n      swap2\n      swap1\n      tag_122\n      jump\t// in\n    tag_309:\n      pop\n        /* \"MarketERC721.sol\":7868:7872  coin */\n      dup1\n        /* \"MarketERC721.sol\":7868:7885  coin.transferFrom */\n      0xffffffffffffffffffffffffffffffffffffffff\n      and\n      0x23b872dd\n        /* \"MarketERC721.sol\":7886:7896  msg.sender */\n      caller\n        /* \"MarketERC721.sol\":7898:7905  owner() */\n      tag_310\n        /* \"MarketERC721.sol\":7898:7903  owner */\n      tag_78\n        /* \"MarketERC721.sol\":7898:7905  owner() */\n      jump\t// in\n    tag_310:\n        /* \"MarketERC721.sol\":7907:7919  metaverseFee */\n      dup12\n        /* \"MarketERC721.sol\":7868:7920  coin.transferFrom(msg.sender, owner(), metaverseFee) */\n      mload(0x40)\n      dup5\n      0xffffffff\n      and\n      0xe0\n      shl\n      dup2\n      mstore\n      0x04\n      add\n      tag_311\n      swap4\n      swap3\n      swap2\n      swap1\n      tag_117\n      jump\t// in\n    tag_311:\n      0x20\n      mload(0x40)\n      dup1\n      dup4\n      sub\n      dup2\n      0x00\n      dup8\n      dup1\n      extcodesize\n      iszero\n      dup1\n      iszero\n      tag_312\n      jumpi\n      0x00\n      dup1\n      revert\n    tag_312:\n      pop\n      gas\n      call\n      iszero\n      dup1\n      iszero\n      tag_314\n      jumpi\n      returndatasize\n      0x00\n      dup1\n      returndatacopy\n      revert(0x00, returndatasize)\n    tag_314:\n      pop\n      pop\n      pop\n      pop\n      mload(0x40)\n      returndatasize\n      not(0x1f)\n      0x1f\n      dup3\n      add\n      and\n      dup3\n      add\n      dup1\n      0x40\n      mstore\n      pop\n      dup2\n      add\n      swap1\n      tag_315\n      swap2\n      swap1\n      tag_122\n      jump\t// in\n    tag_315:\n      pop\n        /* \"MarketERC721.sol\":7957:7958  0 */\n      0x00\n        /* \"MarketERC721.sol\":7938:7959  referer != address(0) */\n      0xffffffffffffffffffffffffffffffffffffffff\n      and\n        /* \"MarketERC721.sol\":7938:7945  referer */\n      dup10\n        /* \"MarketERC721.sol\":7938:7959  referer != address(0) */\n      0xffffffffffffffffffffffffffffffffffffffff\n      and\n      eq\n        /* \"MarketERC721.sol\":7935:8045  if(referer != address(0)){\r... */\n      tag_316\n      jumpi\n        /* \"MarketERC721.sol\":7979:7983  coin */\n      dup1\n        /* \"MarketERC721.sol\":7979:7996  coin.transferFrom */\n      0xffffffffffffffffffffffffffffffffffffffff\n      and\n      0x23b872dd\n        /* \"MarketERC721.sol\":7997:8007  msg.sender */\n      caller\n        /* \"MarketERC721.sol\":8009:8016  referer */\n      dup12\n        /* \"MarketERC721.sol\":8018:8028  referalFee */\n      dup9\n        /* \"MarketERC721.sol\":7979:8029  coin.transferFrom(msg.sender, referer, referalFee) */\n      mload(0x40)\n      dup5\n      0xffffffff\n      and\n      0xe0\n      shl\n      dup2\n      mstore\n      0x04\n      add\n      tag_317\n      swap4\n      swap3\n      swap2\n      swap1\n      tag_117\n      jump\t// in\n    tag_317:\n      0x20\n      mload(0x40)\n      dup1\n      dup4\n      sub\n      dup2\n      0x00\n      dup8\n      dup1\n      extcodesize\n      iszero\n      dup1\n      iszero\n      tag_318\n      jumpi\n      0x00\n      dup1\n      revert\n    tag_318:\n      pop\n      gas\n      call\n      iszero\n      dup1\n      iszero\n      tag_320\n      jumpi\n      returndatasize\n      0x00\n      dup1\n      returndatacopy\n      revert(0x00, returndatasize)\n    tag_320:\n      pop\n      pop\n      pop\n      pop\n      mload(0x40)\n      returndatasize\n      not(0x1f)\n      0x1f\n      dup3\n      add\n      and\n      dup3\n      add\n      dup1\n      0x40\n      mstore\n      pop\n      dup2\n      add\n      swap1\n      tag_321\n      swap2\n      swap1\n      tag_122\n      jump\t// in\n    tag_321:\n      pop\n        /* \"MarketERC721.sol\":7935:8045  if(referer != address(0)){\r... */\n    tag_316:\n        /* \"MarketERC721.sol\":8064:8070  uint i */\n      0x00\n        /* \"MarketERC721.sol\":8059:8380  for (uint i = 0; i < 5; i++) {\r... */\n    tag_322:\n        /* \"MarketERC721.sol\":8080:8081  5 */\n      0x05\n        /* \"MarketERC721.sol\":8076:8077  i */\n      dup2\n        /* \"MarketERC721.sol\":8076:8081  i < 5 */\n      lt\n        /* \"MarketERC721.sol\":8059:8380  for (uint i = 0; i < 5; i++) {\r... */\n      iszero\n      tag_323\n      jumpi\n        /* \"MarketERC721.sol\":8149:8150  0 */\n      0x00\n        /* \"MarketERC721.sol\":8115:8151  item.previousOwners[i] != address(0) */\n      0xffffffffffffffffffffffffffffffffffffffff\n      and\n        /* \"MarketERC721.sol\":8115:8119  item */\n      dup5\n        /* \"MarketERC721.sol\":8115:8134  item.previousOwners */\n      0x05\n      add\n        /* \"MarketERC721.sol\":8115:8137  item.previousOwners[i] */\n      0x00\n        /* \"MarketERC721.sol\":8135:8136  i */\n      dup4\n        /* \"MarketERC721.sol\":8115:8137  item.previousOwners[i] */\n      dup2\n      mstore\n      0x20\n      add\n      swap1\n      dup2\n      mstore\n      0x20\n      add\n      0x00\n      keccak256\n      0x00\n      swap1\n      sload\n      swap1\n      0x0100\n      exp\n      swap1\n      div\n      0xffffffffffffffffffffffffffffffffffffffff\n      and\n        /* \"MarketERC721.sol\":8115:8151  item.previousOwners[i] != address(0) */\n      0xffffffffffffffffffffffffffffffffffffffff\n      and\n      eq\n        /* \"MarketERC721.sol\":8111:8361  if (item.previousOwners[i] != address(0)) {\r... */\n      tag_325\n      jumpi\n        /* \"MarketERC721.sol\":8180:8184  coin */\n      dup2\n        /* \"MarketERC721.sol\":8180:8197  coin.transferFrom */\n      0xffffffffffffffffffffffffffffffffffffffff\n      and\n      0x23b872dd\n        /* \"MarketERC721.sol\":8198:8208  msg.sender */\n      caller\n        /* \"MarketERC721.sol\":8210:8214  item */\n      dup7\n        /* \"MarketERC721.sol\":8210:8229  item.previousOwners */\n      0x05\n      add\n        /* \"MarketERC721.sol\":8210:8232  item.previousOwners[i] */\n      0x00\n        /* \"MarketERC721.sol\":8230:8231  i */\n      dup6\n        /* \"MarketERC721.sol\":8210:8232  item.previousOwners[i] */\n      dup2\n      mstore\n      0x20\n      add\n      swap1\n      dup2\n      mstore\n      0x20\n      add\n      0x00\n      keccak256\n      0x00\n      swap1\n      sload\n      swap1\n      0x0100\n      exp\n      swap1\n      div\n      0xffffffffffffffffffffffffffffffffffffffff\n      and\n        /* \"MarketERC721.sol\":8234:8250  previousOwnerFee */\n      dup12\n      dup12\n        /* \"MarketERC721.sol\":8251:8252  j */\n      dup11\n        /* \"MarketERC721.sol\":8234:8253  previousOwnerFee[j] */\n      dup2\n      dup2\n      lt\n      tag_326\n      jumpi\n      tag_327\n      tag_228\n      jump\t// in\n    tag_327:\n    tag_326:\n      swap1\n      pop\n      0x20\n      mul\n      add\n      calldataload\n        /* \"MarketERC721.sol\":8180:8254  coin.transferFrom(msg.sender, item.previousOwners[i], previousOwnerFee[j]) */\n      mload(0x40)\n      dup5\n      0xffffffff\n      and\n      0xe0\n      shl\n      dup2\n      mstore\n      0x04\n      add\n      tag_328\n      swap4\n      swap3\n      swap2\n      swap1\n      tag_117\n      jump\t// in\n    tag_328:\n      0x20\n      mload(0x40)\n      dup1\n      dup4\n      sub\n      dup2\n      0x00\n      dup8\n      dup1\n      extcodesize\n      iszero\n      dup1\n      iszero\n      tag_329\n      jumpi\n      0x00\n      dup1\n      revert\n    tag_329:\n      pop\n      gas\n      call\n      iszero\n      dup1\n      iszero\n      tag_331\n      jumpi\n      returndatasize\n      0x00\n      dup1\n      returndatacopy\n      revert(0x00, returndatasize)\n    tag_331:\n      pop\n      pop\n      pop\n      pop\n      mload(0x40)\n      returndatasize\n      not(0x1f)\n      0x1f\n      dup3\n      add\n      and\n      dup3\n      add\n      dup1\n      0x40\n      mstore\n      pop\n      dup2\n      add\n      swap1\n      tag_332\n      swap2\n      swap1\n      tag_122\n      jump\t// in\n    tag_332:\n      pop\n        /* \"MarketERC721.sol\":8111:8361  if (item.previousOwners[i] != address(0)) {\r... */\n      jump(tag_333)\n    tag_325:\n        /* \"MarketERC721.sol\":8332:8337  break */\n      jump(tag_323)\n        /* \"MarketERC721.sol\":8111:8361  if (item.previousOwners[i] != address(0)) {\r... */\n    tag_333:\n        /* \"MarketERC721.sol\":8083:8086  i++ */\n      dup1\n      dup1\n      tag_334\n      swap1\n      tag_146\n      jump\t// in\n    tag_334:\n      swap2\n      pop\n      pop\n        /* \"MarketERC721.sol\":8059:8380  for (uint i = 0; i < 5; i++) {\r... */\n      jump(tag_322)\n    tag_323:\n      pop\n        /* \"MarketERC721.sol\":8396:8401  token */\n      dup2\n        /* \"MarketERC721.sol\":8396:8418  token.safeTransferFrom */\n      0xffffffffffffffffffffffffffffffffffffffff\n      and\n      0xb88d4fde\n        /* \"MarketERC721.sol\":8419:8423  item */\n      dup5\n        /* \"MarketERC721.sol\":8419:8430  item.seller */\n      0x01\n      add\n      0x00\n      swap1\n      sload\n      swap1\n      0x0100\n      exp\n      swap1\n      div\n      0xffffffffffffffffffffffffffffffffffffffff\n      and\n        /* \"MarketERC721.sol\":8432:8442  msg.sender */\n      caller\n        /* \"MarketERC721.sol\":8444:8451  tokenId */\n      dup15\n      dup15\n        /* \"MarketERC721.sol\":8452:8453  j */\n      dup10\n        /* \"MarketERC721.sol\":8444:8454  tokenId[j] */\n      dup2\n      dup2\n      lt\n      tag_335\n      jumpi\n      tag_336\n      tag_228\n      jump\t// in\n    tag_336:\n    tag_335:\n      swap1\n      pop\n      0x20\n      mul\n      add\n      calldataload\n        /* \"MarketERC721.sol\":8396:8459  token.safeTransferFrom(item.seller, msg.sender, tokenId[j], \"\") */\n      mload(0x40)\n      dup5\n      0xffffffff\n      and\n      0xe0\n      shl\n      dup2\n      mstore\n      0x04\n      add\n      tag_337\n      swap4\n      swap3\n      swap2\n      swap1\n      tag_148\n      jump\t// in\n    tag_337:\n      0x00\n      mload(0x40)\n      dup1\n      dup4\n      sub\n      dup2\n      0x00\n      dup8\n      dup1\n      extcodesize\n      iszero\n      dup1\n      iszero\n      tag_338\n      jumpi\n      0x00\n      dup1\n      revert\n    tag_338:\n      pop\n      gas\n      call\n      iszero\n      dup1\n      iszero\n      tag_340\n      jumpi\n      returndatasize\n      0x00\n      dup1\n      returndatacopy\n      revert(0x00, returndatasize)\n    tag_340:\n      pop\n      pop\n      pop\n      pop\n        /* \"MarketERC721.sol\":8487:8497  msg.sender */\n      caller\n        /* \"MarketERC721.sol\":8474:8478  item */\n      dup4\n        /* \"MarketERC721.sol\":8474:8484  item.owner */\n      0x02\n      add\n      0x00\n        /* \"MarketERC721.sol\":8474:8497  item.owner = msg.sender */\n      0x0100\n      exp\n      dup2\n      sload\n      dup2\n      0xffffffffffffffffffffffffffffffffffffffff\n      mul\n      not\n      and\n      swap1\n      dup4\n      0xffffffffffffffffffffffffffffffffffffffff\n      and\n      mul\n      or\n      swap1\n      sstore\n      pop\n        /* \"MarketERC721.sol\":8534:8535  3 */\n      0x03\n        /* \"MarketERC721.sol\":8515:8519  item */\n      dup4\n        /* \"MarketERC721.sol\":8515:8530  item.ownerCount */\n      0x03\n      add\n      sload\n        /* \"MarketERC721.sol\":8515:8535  item.ownerCount <= 3 */\n      gt\n        /* \"MarketERC721.sol\":8512:8803  if(item.ownerCount <= 3) {\r... */\n      tag_341\n      jumpi\n        /* \"MarketERC721.sol\":8595:8599  item */\n      dup3\n        /* \"MarketERC721.sol\":8595:8606  item.seller */\n      0x01\n      add\n      0x00\n      swap1\n      sload\n      swap1\n      0x0100\n      exp\n      swap1\n      div\n      0xffffffffffffffffffffffffffffffffffffffff\n      and\n        /* \"MarketERC721.sol\":8556:8560  item */\n      dup4\n        /* \"MarketERC721.sol\":8556:8575  item.previousOwners */\n      0x05\n      add\n        /* \"MarketERC721.sol\":8556:8592  item.previousOwners[item.ownerCount] */\n      0x00\n        /* \"MarketERC721.sol\":8576:8580  item */\n      dup6\n        /* \"MarketERC721.sol\":8576:8591  item.ownerCount */\n      0x03\n      add\n      sload\n        /* \"MarketERC721.sol\":8556:8592  item.previousOwners[item.ownerCount] */\n      dup2\n      mstore\n      0x20\n      add\n      swap1\n      dup2\n      mstore\n      0x20\n      add\n      0x00\n      keccak256\n      0x00\n        /* \"MarketERC721.sol\":8556:8606  item.previousOwners[item.ownerCount] = item.seller */\n      0x0100\n      exp\n      dup2\n      sload\n      dup2\n      0xffffffffffffffffffffffffffffffffffffffff\n      mul\n      not\n      and\n      swap1\n      dup4\n      0xffffffffffffffffffffffffffffffffffffffff\n      and\n      mul\n      or\n      swap1\n      sstore\n      pop\n        /* \"MarketERC721.sol\":8644:8645  1 */\n      0x01\n        /* \"MarketERC721.sol\":8625:8629  item */\n      dup4\n        /* \"MarketERC721.sol\":8625:8640  item.ownerCount */\n      0x03\n      add\n      0x00\n        /* \"MarketERC721.sol\":8625:8645  item.ownerCount += 1 */\n      dup3\n      dup3\n      sload\n      tag_342\n      swap2\n      swap1\n      tag_154\n      jump\t// in\n    tag_342:\n      swap3\n      pop\n      pop\n      dup2\n      swap1\n      sstore\n      pop\n        /* \"MarketERC721.sol\":8512:8803  if(item.ownerCount <= 3) {\r... */\n      jump(tag_343)\n    tag_341:\n        /* \"MarketERC721.sol\":8738:8742  item */\n      dup3\n        /* \"MarketERC721.sol\":8738:8749  item.seller */\n      0x01\n      add\n      0x00\n      swap1\n      sload\n      swap1\n      0x0100\n      exp\n      swap1\n      div\n      0xffffffffffffffffffffffffffffffffffffffff\n      and\n        /* \"MarketERC721.sol\":8699:8703  item */\n      dup4\n        /* \"MarketERC721.sol\":8699:8718  item.previousOwners */\n      0x05\n      add\n        /* \"MarketERC721.sol\":8699:8735  item.previousOwners[item.ownerCount] */\n      0x00\n        /* \"MarketERC721.sol\":8719:8723  item */\n      dup6\n        /* \"MarketERC721.sol\":8719:8734  item.ownerCount */\n      0x03\n      add\n      sload\n        /* \"MarketERC721.sol\":8699:8735  item.previousOwners[item.ownerCount] */\n      dup2\n      mstore\n      0x20\n      add\n      swap1\n      dup2\n      mstore\n      0x20\n      add\n      0x00\n      keccak256\n      0x00\n        /* \"MarketERC721.sol\":8699:8749  item.previousOwners[item.ownerCount] = item.seller */\n      0x0100\n      exp\n      dup2\n      sload\n      dup2\n      0xffffffffffffffffffffffffffffffffffffffff\n      mul\n      not\n      and\n      swap1\n      dup4\n      0xffffffffffffffffffffffffffffffffffffffff\n      and\n      mul\n      or\n      swap1\n      sstore\n      pop\n        /* \"MarketERC721.sol\":8786:8787  0 */\n      0x00\n        /* \"MarketERC721.sol\":8768:8772  item */\n      dup4\n        /* \"MarketERC721.sol\":8768:8783  item.ownerCount */\n      0x03\n      add\n        /* \"MarketERC721.sol\":8768:8787  item.ownerCount = 0 */\n      dup2\n      swap1\n      sstore\n      pop\n        /* \"MarketERC721.sol\":8512:8803  if(item.ownerCount <= 3) {\r... */\n    tag_343:\n        /* \"MarketERC721.sol\":8836:8841  false */\n      0x00\n        /* \"MarketERC721.sol\":8819:8823  item */\n      dup4\n        /* \"MarketERC721.sol\":8819:8833  item.isListing */\n      0x02\n      add\n      0x14\n        /* \"MarketERC721.sol\":8819:8841  item.isListing = false */\n      0x0100\n      exp\n      dup2\n      sload\n      dup2\n      0xff\n      mul\n      not\n      and\n      swap1\n      dup4\n      iszero\n      iszero\n      mul\n      or\n      swap1\n      sstore\n      pop\n        /* \"MarketERC721.sol\":8902:8906  item */\n      dup3\n        /* \"MarketERC721.sol\":8902:8916  item.isListing */\n      0x02\n      add\n      0x14\n      swap1\n      sload\n      swap1\n      0x0100\n      exp\n      swap1\n      div\n      0xff\n      and\n        /* \"MarketERC721.sol\":8861:8917  List(msg.sender, tokenId[j], item.price, item.isListing) */\n      iszero\n      iszero\n        /* \"MarketERC721.sol\":8878:8885  tokenId */\n      dup12\n      dup12\n        /* \"MarketERC721.sol\":8886:8887  j */\n      dup7\n        /* \"MarketERC721.sol\":8878:8888  tokenId[j] */\n      dup2\n      dup2\n      lt\n      tag_344\n      jumpi\n      tag_345\n      tag_228\n      jump\t// in\n    tag_345:\n    tag_344:\n      swap1\n      pop\n      0x20\n      mul\n      add\n      calldataload\n        /* \"MarketERC721.sol\":8866:8876  msg.sender */\n      caller\n        /* \"MarketERC721.sol\":8861:8917  List(msg.sender, tokenId[j], item.price, item.isListing) */\n      0xffffffffffffffffffffffffffffffffffffffff\n      and\n      0xa7cd299f7ebc29460ad99cf3ea75776d7cd038a63a59fa595e86441f8190ef90\n        /* \"MarketERC721.sol\":8890:8894  item */\n      dup7\n        /* \"MarketERC721.sol\":8890:8900  item.price */\n      0x00\n      add\n      sload\n        /* \"MarketERC721.sol\":8861:8917  List(msg.sender, tokenId[j], item.price, item.isListing) */\n      mload(0x40)\n      tag_346\n      swap2\n      swap1\n      tag_59\n      jump\t// in\n    tag_346:\n      mload(0x40)\n      dup1\n      swap2\n      sub\n      swap1\n      log4\n        /* \"MarketERC721.sol\":7369:8929  {\r... */\n      pop\n      pop\n      pop\n        /* \"MarketERC721.sol\":7364:7367  j++ */\n      dup1\n      dup1\n      tag_347\n      swap1\n      tag_146\n      jump\t// in\n    tag_347:\n      swap2\n      pop\n      pop\n        /* \"MarketERC721.sol\":7327:8929  for (uint j = 0; j < tokenId.length; j++) {\r... */\n      jump(tag_287)\n    tag_288:\n      pop\n        /* \"MarketERC721.sol\":7109:8936  function purchaseERC20Batch(address contractAddr, address coinAddr, uint256[] calldata tokenId, address referer, uint256 metaverseFee, uint256[] calldata previousOwnerFee, uint256 referalFee) public payable {\r... */\n      pop\n      pop\n      pop\n      pop\n      pop\n      pop\n      pop\n      pop\n      pop\n      jump\t// out\n        /* \"Ownable.sol\":718:919  function transferOwnership(address newOwner) public virtual onlyOwner {\r... */\n    tag_92:\n        /* \"Ownable.sol\":530:542  _msgSender() */\n      tag_349\n        /* \"Ownable.sol\":530:540  _msgSender */\n      tag_161\n        /* \"Ownable.sol\":530:542  _msgSender() */\n      jump\t// in\n    tag_349:\n        /* \"Ownable.sol\":519:542  owner() == _msgSender() */\n      0xffffffffffffffffffffffffffffffffffffffff\n      and\n        /* \"Ownable.sol\":519:526  owner() */\n      tag_350\n        /* \"Ownable.sol\":519:524  owner */\n      tag_78\n        /* \"Ownable.sol\":519:526  owner() */\n      jump\t// in\n    tag_350:\n        /* \"Ownable.sol\":519:542  owner() == _msgSender() */\n      0xffffffffffffffffffffffffffffffffffffffff\n      and\n      eq\n        /* \"Ownable.sol\":511:579  require(owner() == _msgSender(), \"Ownable: caller is not the owner\") */\n      tag_351\n      jumpi\n      mload(0x40)\n      0x08c379a000000000000000000000000000000000000000000000000000000000\n      dup2\n      mstore\n      0x04\n      add\n      tag_352\n      swap1\n      tag_165\n      jump\t// in\n    tag_352:\n      mload(0x40)\n      dup1\n      swap2\n      sub\n      swap1\n      revert\n    tag_351:\n        /* \"Ownable.sol\":827:828  0 */\n      0x00\n        /* \"Ownable.sol\":807:829  newOwner != address(0) */\n      0xffffffffffffffffffffffffffffffffffffffff\n      and\n        /* \"Ownable.sol\":807:815  newOwner */\n      dup2\n        /* \"Ownable.sol\":807:829  newOwner != address(0) */\n      0xffffffffffffffffffffffffffffffffffffffff\n      and\n      eq\n      iszero\n        /* \"Ownable.sol\":799:872  require(newOwner != address(0), \"Ownable: new owner is the zero address\") */\n      tag_354\n      jumpi\n      mload(0x40)\n      0x08c379a000000000000000000000000000000000000000000000000000000000\n      dup2\n      mstore\n      0x04\n      add\n      tag_355\n      swap1\n      tag_356\n      jump\t// in\n    tag_355:\n      mload(0x40)\n      dup1\n      swap2\n      sub\n      swap1\n      revert\n    tag_354:\n        /* \"Ownable.sol\":883:911  _transferOwnership(newOwner) */\n      tag_357\n        /* \"Ownable.sol\":902:910  newOwner */\n      dup2\n        /* \"Ownable.sol\":883:901  _transferOwnership */\n      tag_168\n        /* \"Ownable.sol\":883:911  _transferOwnership(newOwner) */\n      jump\t// in\n    tag_357:\n        /* \"Ownable.sol\":718:919  function transferOwnership(address newOwner) public virtual onlyOwner {\r... */\n      pop\n      jump\t// out\n        /* \"Context.sol\":656:754  function _msgSender() internal view virtual returns (address) {\r... */\n    tag_161:\n        /* \"Context.sol\":709:716  address */\n      0x00\n        /* \"Context.sol\":736:746  msg.sender */\n      caller\n        /* \"Context.sol\":729:746  return msg.sender */\n      swap1\n      pop\n        /* \"Context.sol\":656:754  function _msgSender() internal view virtual returns (address) {\r... */\n      swap1\n      jump\t// out\n        /* \"Ownable.sol\":927:1118  function _transferOwnership(address newOwner) internal virtual {\r... */\n    tag_168:\n        /* \"Ownable.sol\":1001:1017  address oldOwner */\n      0x00\n        /* \"Ownable.sol\":1020:1026  _owner */\n      dup1\n      0x00\n      swap1\n      sload\n      swap1\n      0x0100\n      exp\n      swap1\n      div\n      0xffffffffffffffffffffffffffffffffffffffff\n      and\n        /* \"Ownable.sol\":1001:1026  address oldOwner = _owner */\n      swap1\n      pop\n        /* \"Ownable.sol\":1046:1054  newOwner */\n      dup2\n        /* \"Ownable.sol\":1037:1043  _owner */\n      0x00\n      dup1\n        /* \"Ownable.sol\":1037:1054  _owner = newOwner */\n      0x0100\n      exp\n      dup2\n      sload\n      dup2\n      0xffffffffffffffffffffffffffffffffffffffff\n      mul\n      not\n      and\n      swap1\n      dup4\n      0xffffffffffffffffffffffffffffffffffffffff\n      and\n      mul\n      or\n      swap1\n      sstore\n      pop\n        /* \"Ownable.sol\":1101:1109  newOwner */\n      dup2\n        /* \"Ownable.sol\":1070:1110  OwnershipTransferred(oldOwner, newOwner) */\n      0xffffffffffffffffffffffffffffffffffffffff\n      and\n        /* \"Ownable.sol\":1091:1099  oldOwner */\n      dup2\n        /* \"Ownable.sol\":1070:1110  OwnershipTransferred(oldOwner, newOwner) */\n      0xffffffffffffffffffffffffffffffffffffffff\n      and\n      0x8be0079c531659141344cd1fd0a4f28419497f9722a3daafe3b4186f6b6457e0\n      mload(0x40)\n      mload(0x40)\n      dup1\n      swap2\n      sub\n      swap1\n      log3\n        /* \"Ownable.sol\":990:1118  {\r... */\n      pop\n        /* \"Ownable.sol\":927:1118  function _transferOwnership(address newOwner) internal virtual {\r... */\n      pop\n      jump\t// out\n        /* \"#utility.yul\":7:146   */\n    tag_361:\n        /* \"#utility.yul\":53:58   */\n      0x00\n        /* \"#utility.yul\":91:97   */\n      dup2\n        /* \"#utility.yul\":78:98   */\n      calldataload\n        /* \"#utility.yul\":69:98   */\n      swap1\n      pop\n        /* \"#utility.yul\":107:140   */\n      tag_363\n        /* \"#utility.yul\":134:139   */\n      dup2\n        /* \"#utility.yul\":107:140   */\n      tag_364\n      jump\t// in\n    tag_363:\n        /* \"#utility.yul\":7:146   */\n      swap3\n      swap2\n      pop\n      pop\n      jump\t// out\n        /* \"#utility.yul\":152:295   */\n    tag_365:\n        /* \"#utility.yul\":209:214   */\n      0x00\n        /* \"#utility.yul\":240:246   */\n      dup2\n        /* \"#utility.yul\":234:247   */\n      mload\n        /* \"#utility.yul\":225:247   */\n      swap1\n      pop\n        /* \"#utility.yul\":256:289   */\n      tag_367\n        /* \"#utility.yul\":283:288   */\n      dup2\n        /* \"#utility.yul\":256:289   */\n      tag_364\n      jump\t// in\n    tag_367:\n        /* \"#utility.yul\":152:295   */\n      swap3\n      swap2\n      pop\n      pop\n      jump\t// out\n        /* \"#utility.yul\":318:886   */\n    tag_368:\n        /* \"#utility.yul\":391:399   */\n      0x00\n        /* \"#utility.yul\":401:407   */\n      dup1\n        /* \"#utility.yul\":451:454   */\n      dup4\n        /* \"#utility.yul\":444:448   */\n      0x1f\n        /* \"#utility.yul\":436:442   */\n      dup5\n        /* \"#utility.yul\":432:449   */\n      add\n        /* \"#utility.yul\":428:455   */\n      slt\n        /* \"#utility.yul\":418:540   */\n      tag_370\n      jumpi\n        /* \"#utility.yul\":459:538   */\n      tag_371\n      tag_372\n      jump\t// in\n    tag_371:\n        /* \"#utility.yul\":418:540   */\n    tag_370:\n        /* \"#utility.yul\":572:578   */\n      dup3\n        /* \"#utility.yul\":559:579   */\n      calldataload\n        /* \"#utility.yul\":549:579   */\n      swap1\n      pop\n        /* \"#utility.yul\":602:620   */\n      0xffffffffffffffff\n        /* \"#utility.yul\":594:600   */\n      dup2\n        /* \"#utility.yul\":591:621   */\n      gt\n        /* \"#utility.yul\":588:705   */\n      iszero\n      tag_373\n      jumpi\n        /* \"#utility.yul\":624:703   */\n      tag_374\n      tag_375\n      jump\t// in\n    tag_374:\n        /* \"#utility.yul\":588:705   */\n    tag_373:\n        /* \"#utility.yul\":738:742   */\n      0x20\n        /* \"#utility.yul\":730:736   */\n      dup4\n        /* \"#utility.yul\":726:743   */\n      add\n        /* \"#utility.yul\":714:743   */\n      swap2\n      pop\n        /* \"#utility.yul\":792:795   */\n      dup4\n        /* \"#utility.yul\":784:788   */\n      0x20\n        /* \"#utility.yul\":776:782   */\n      dup3\n        /* \"#utility.yul\":772:789   */\n      mul\n        /* \"#utility.yul\":762:770   */\n      dup4\n        /* \"#utility.yul\":758:790   */\n      add\n        /* \"#utility.yul\":755:796   */\n      gt\n        /* \"#utility.yul\":752:880   */\n      iszero\n      tag_376\n      jumpi\n        /* \"#utility.yul\":799:878   */\n      tag_377\n      tag_378\n      jump\t// in\n    tag_377:\n        /* \"#utility.yul\":752:880   */\n    tag_376:\n        /* \"#utility.yul\":318:886   */\n      swap3\n      pop\n      swap3\n      swap1\n      pop\n      jump\t// out\n        /* \"#utility.yul\":892:1029   */\n    tag_379:\n        /* \"#utility.yul\":946:951   */\n      0x00\n        /* \"#utility.yul\":977:983   */\n      dup2\n        /* \"#utility.yul\":971:984   */\n      mload\n        /* \"#utility.yul\":962:984   */\n      swap1\n      pop\n        /* \"#utility.yul\":993:1023   */\n      tag_381\n        /* \"#utility.yul\":1017:1022   */\n      dup2\n        /* \"#utility.yul\":993:1023   */\n      tag_382\n      jump\t// in\n    tag_381:\n        /* \"#utility.yul\":892:1029   */\n      swap3\n      swap2\n      pop\n      pop\n      jump\t// out\n        /* \"#utility.yul\":1035:1174   */\n    tag_383:\n        /* \"#utility.yul\":1081:1086   */\n      0x00\n        /* \"#utility.yul\":1119:1125   */\n      dup2\n        /* \"#utility.yul\":1106:1126   */\n      calldataload\n        /* \"#utility.yul\":1097:1126   */\n      swap1\n      pop\n        /* \"#utility.yul\":1135:1168   */\n      tag_385\n        /* \"#utility.yul\":1162:1167   */\n      dup2\n        /* \"#utility.yul\":1135:1168   */\n      tag_386\n      jump\t// in\n    tag_385:\n        /* \"#utility.yul\":1035:1174   */\n      swap3\n      swap2\n      pop\n      pop\n      jump\t// out\n        /* \"#utility.yul\":1180:1323   */\n    tag_387:\n        /* \"#utility.yul\":1237:1242   */\n      0x00\n        /* \"#utility.yul\":1268:1274   */\n      dup2\n        /* \"#utility.yul\":1262:1275   */\n      mload\n        /* \"#utility.yul\":1253:1275   */\n      swap1\n      pop\n        /* \"#utility.yul\":1284:1317   */\n      tag_389\n        /* \"#utility.yul\":1311:1316   */\n      dup2\n        /* \"#utility.yul\":1284:1317   */\n      tag_386\n      jump\t// in\n    tag_389:\n        /* \"#utility.yul\":1180:1323   */\n      swap3\n      swap2\n      pop\n      pop\n      jump\t// out\n        /* \"#utility.yul\":1329:1658   */\n    tag_91:\n        /* \"#utility.yul\":1388:1394   */\n      0x00\n        /* \"#utility.yul\":1437:1439   */\n      0x20\n        /* \"#utility.yul\":1425:1434   */\n      dup3\n        /* \"#utility.yul\":1416:1423   */\n      dup5\n        /* \"#utility.yul\":1412:1435   */\n      sub\n        /* \"#utility.yul\":1408:1440   */\n      slt\n        /* \"#utility.yul\":1405:1524   */\n      iszero\n      tag_391\n      jumpi\n        /* \"#utility.yul\":1443:1522   */\n      tag_392\n      tag_393\n      jump\t// in\n    tag_392:\n        /* \"#utility.yul\":1405:1524   */\n    tag_391:\n        /* \"#utility.yul\":1563:1564   */\n      0x00\n        /* \"#utility.yul\":1588:1641   */\n      tag_394\n        /* \"#utility.yul\":1633:1640   */\n      dup5\n        /* \"#utility.yul\":1624:1630   */\n      dup3\n        /* \"#utility.yul\":1613:1622   */\n      dup6\n        /* \"#utility.yul\":1609:1631   */\n      add\n        /* \"#utility.yul\":1588:1641   */\n      tag_361\n      jump\t// in\n    tag_394:\n        /* \"#utility.yul\":1578:1641   */\n      swap2\n      pop\n        /* \"#utility.yul\":1534:1651   */\n      pop\n        /* \"#utility.yul\":1329:1658   */\n      swap3\n      swap2\n      pop\n      pop\n      jump\t// out\n        /* \"#utility.yul\":1664:2015   */\n    tag_175:\n        /* \"#utility.yul\":1734:1740   */\n      0x00\n        /* \"#utility.yul\":1783:1785   */\n      0x20\n        /* \"#utility.yul\":1771:1780   */\n      dup3\n        /* \"#utility.yul\":1762:1769   */\n      dup5\n        /* \"#utility.yul\":1758:1781   */\n      sub\n        /* \"#utility.yul\":1754:1786   */\n      slt\n        /* \"#utility.yul\":1751:1870   */\n      iszero\n      tag_396\n      jumpi\n        /* \"#utility.yul\":1789:1868   */\n      tag_397\n      tag_393\n      jump\t// in\n    tag_397:\n        /* \"#utility.yul\":1751:1870   */\n    tag_396:\n        /* \"#utility.yul\":1909:1910   */\n      0x00\n        /* \"#utility.yul\":1934:1998   */\n      tag_398\n        /* \"#utility.yul\":1990:1997   */\n      dup5\n        /* \"#utility.yul\":1981:1987   */\n      dup3\n        /* \"#utility.yul\":1970:1979   */\n      dup6\n        /* \"#utility.yul\":1966:1988   */\n      add\n        /* \"#utility.yul\":1934:1998   */\n      tag_365\n      jump\t// in\n    tag_398:\n        /* \"#utility.yul\":1924:1998   */\n      swap2\n      pop\n        /* \"#utility.yul\":1880:2008   */\n      pop\n        /* \"#utility.yul\":1664:2015   */\n      swap3\n      swap2\n      pop\n      pop\n      jump\t// out\n        /* \"#utility.yul\":2021:3684   */\n    tag_86:\n        /* \"#utility.yul\":2188:2194   */\n      0x00\n        /* \"#utility.yul\":2196:2202   */\n      dup1\n        /* \"#utility.yul\":2204:2210   */\n      0x00\n        /* \"#utility.yul\":2212:2218   */\n      dup1\n        /* \"#utility.yul\":2220:2226   */\n      0x00\n        /* \"#utility.yul\":2228:2234   */\n      dup1\n        /* \"#utility.yul\":2236:2242   */\n      0x00\n        /* \"#utility.yul\":2244:2250   */\n      dup1\n        /* \"#utility.yul\":2252:2258   */\n      0x00\n        /* \"#utility.yul\":2301:2304   */\n      0xe0\n        /* \"#utility.yul\":2289:2298   */\n      dup11\n        /* \"#utility.yul\":2280:2287   */\n      dup13\n        /* \"#utility.yul\":2276:2299   */\n      sub\n        /* \"#utility.yul\":2272:2305   */\n      slt\n        /* \"#utility.yul\":2269:2389   */\n      iszero\n      tag_400\n      jumpi\n        /* \"#utility.yul\":2308:2387   */\n      tag_401\n      tag_393\n      jump\t// in\n    tag_401:\n        /* \"#utility.yul\":2269:2389   */\n    tag_400:\n        /* \"#utility.yul\":2428:2429   */\n      0x00\n        /* \"#utility.yul\":2453:2506   */\n      tag_402\n        /* \"#utility.yul\":2498:2505   */\n      dup13\n        /* \"#utility.yul\":2489:2495   */\n      dup3\n        /* \"#utility.yul\":2478:2487   */\n      dup14\n        /* \"#utility.yul\":2474:2496   */\n      add\n        /* \"#utility.yul\":2453:2506   */\n      tag_361\n      jump\t// in\n    tag_402:\n        /* \"#utility.yul\":2443:2506   */\n      swap10\n      pop\n        /* \"#utility.yul\":2399:2516   */\n      pop\n        /* \"#utility.yul\":2555:2557   */\n      0x20\n        /* \"#utility.yul\":2581:2634   */\n      tag_403\n        /* \"#utility.yul\":2626:2633   */\n      dup13\n        /* \"#utility.yul\":2617:2623   */\n      dup3\n        /* \"#utility.yul\":2606:2615   */\n      dup14\n        /* \"#utility.yul\":2602:2624   */\n      add\n        /* \"#utility.yul\":2581:2634   */\n      tag_361\n      jump\t// in\n    tag_403:\n        /* \"#utility.yul\":2571:2634   */\n      swap9\n      pop\n        /* \"#utility.yul\":2526:2644   */\n      pop\n        /* \"#utility.yul\":2711:2713   */\n      0x40\n        /* \"#utility.yul\":2700:2709   */\n      dup11\n        /* \"#utility.yul\":2696:2714   */\n      add\n        /* \"#utility.yul\":2683:2715   */\n      calldataload\n        /* \"#utility.yul\":2742:2760   */\n      0xffffffffffffffff\n        /* \"#utility.yul\":2734:2740   */\n      dup2\n        /* \"#utility.yul\":2731:2761   */\n      gt\n        /* \"#utility.yul\":2728:2845   */\n      iszero\n      tag_404\n      jumpi\n        /* \"#utility.yul\":2764:2843   */\n      tag_405\n      tag_406\n      jump\t// in\n    tag_405:\n        /* \"#utility.yul\":2728:2845   */\n    tag_404:\n        /* \"#utility.yul\":2877:2957   */\n      tag_407\n        /* \"#utility.yul\":2949:2956   */\n      dup13\n        /* \"#utility.yul\":2940:2946   */\n      dup3\n        /* \"#utility.yul\":2929:2938   */\n      dup14\n        /* \"#utility.yul\":2925:2947   */\n      add\n        /* \"#utility.yul\":2877:2957   */\n      tag_368\n      jump\t// in\n    tag_407:\n        /* \"#utility.yul\":2859:2957   */\n      swap8\n      pop\n      swap8\n      pop\n        /* \"#utility.yul\":2654:2967   */\n      pop\n        /* \"#utility.yul\":3006:3008   */\n      0x60\n        /* \"#utility.yul\":3032:3085   */\n      tag_408\n        /* \"#utility.yul\":3077:3084   */\n      dup13\n        /* \"#utility.yul\":3068:3074   */\n      dup3\n        /* \"#utility.yul\":3057:3066   */\n      dup14\n        /* \"#utility.yul\":3053:3075   */\n      add\n        /* \"#utility.yul\":3032:3085   */\n      tag_361\n      jump\t// in\n    tag_408:\n        /* \"#utility.yul\":3022:3085   */\n      swap6\n      pop\n        /* \"#utility.yul\":2977:3095   */\n      pop\n        /* \"#utility.yul\":3134:3137   */\n      0x80\n        /* \"#utility.yul\":3161:3214   */\n      tag_409\n        /* \"#utility.yul\":3206:3213   */\n      dup13\n        /* \"#utility.yul\":3197:3203   */\n      dup3\n        /* \"#utility.yul\":3186:3195   */\n      dup14\n        /* \"#utility.yul\":3182:3204   */\n      add\n        /* \"#utility.yul\":3161:3214   */\n      tag_383\n      jump\t// in\n    tag_409:\n        /* \"#utility.yul\":3151:3214   */\n      swap5\n      pop\n        /* \"#utility.yul\":3105:3224   */\n      pop\n        /* \"#utility.yul\":3291:3294   */\n      0xa0\n        /* \"#utility.yul\":3280:3289   */\n      dup11\n        /* \"#utility.yul\":3276:3295   */\n      add\n        /* \"#utility.yul\":3263:3296   */\n      calldataload\n        /* \"#utility.yul\":3323:3341   */\n      0xffffffffffffffff\n        /* \"#utility.yul\":3315:3321   */\n      dup2\n        /* \"#utility.yul\":3312:3342   */\n      gt\n        /* \"#utility.yul\":3309:3426   */\n      iszero\n      tag_410\n      jumpi\n        /* \"#utility.yul\":3345:3424   */\n      tag_411\n      tag_406\n      jump\t// in\n    tag_411:\n        /* \"#utility.yul\":3309:3426   */\n    tag_410:\n        /* \"#utility.yul\":3458:3538   */\n      tag_412\n        /* \"#utility.yul\":3530:3537   */\n      dup13\n        /* \"#utility.yul\":3521:3527   */\n      dup3\n        /* \"#utility.yul\":3510:3519   */\n      dup14\n        /* \"#utility.yul\":3506:3528   */\n      add\n        /* \"#utility.yul\":3458:3538   */\n      tag_368\n      jump\t// in\n    tag_412:\n        /* \"#utility.yul\":3440:3538   */\n      swap4\n      pop\n      swap4\n      pop\n        /* \"#utility.yul\":3234:3548   */\n      pop\n        /* \"#utility.yul\":3587:3590   */\n      0xc0\n        /* \"#utility.yul\":3614:3667   */\n      tag_413\n        /* \"#utility.yul\":3659:3666   */\n      dup13\n        /* \"#utility.yul\":3650:3656   */\n      dup3\n        /* \"#utility.yul\":3639:3648   */\n      dup14\n        /* \"#utility.yul\":3635:3657   */\n      add\n        /* \"#utility.yul\":3614:3667   */\n      tag_383\n      jump\t// in\n    tag_413:\n        /* \"#utility.yul\":3604:3667   */\n      swap2\n      pop\n        /* \"#utility.yul\":3558:3677   */\n      pop\n        /* \"#utility.yul\":2021:3684   */\n      swap3\n      swap6\n      swap9\n      pop\n      swap3\n      swap6\n      swap9\n      pop\n      swap3\n      swap6\n      swap9\n      jump\t// out\n        /* \"#utility.yul\":3690:4893   */\n    tag_47:\n        /* \"#utility.yul\":3803:3809   */\n      0x00\n        /* \"#utility.yul\":3811:3817   */\n      dup1\n        /* \"#utility.yul\":3819:3825   */\n      0x00\n        /* \"#utility.yul\":3827:3833   */\n      dup1\n        /* \"#utility.yul\":3835:3841   */\n      0x00\n        /* \"#utility.yul\":3843:3849   */\n      dup1\n        /* \"#utility.yul\":3851:3857   */\n      0x00\n        /* \"#utility.yul\":3900:3903   */\n      0xe0\n        /* \"#utility.yul\":3888:3897   */\n      dup9\n        /* \"#utility.yul\":3879:3886   */\n      dup11\n        /* \"#utility.yul\":3875:3898   */\n      sub\n        /* \"#utility.yul\":3871:3904   */\n      slt\n        /* \"#utility.yul\":3868:3988   */\n      iszero\n      tag_415\n      jumpi\n        /* \"#utility.yul\":3907:3986   */\n      tag_416\n      tag_393\n      jump\t// in\n    tag_416:\n        /* \"#utility.yul\":3868:3988   */\n    tag_415:\n        /* \"#utility.yul\":4027:4028   */\n      0x00\n        /* \"#utility.yul\":4052:4105   */\n      tag_417\n        /* \"#utility.yul\":4097:4104   */\n      dup11\n        /* \"#utility.yul\":4088:4094   */\n      dup3\n        /* \"#utility.yul\":4077:4086   */\n      dup12\n        /* \"#utility.yul\":4073:4095   */\n      add\n        /* \"#utility.yul\":4052:4105   */\n      tag_361\n      jump\t// in\n    tag_417:\n        /* \"#utility.yul\":4042:4105   */\n      swap8\n      pop\n        /* \"#utility.yul\":3998:4115   */\n      pop\n        /* \"#utility.yul\":4154:4156   */\n      0x20\n        /* \"#utility.yul\":4180:4233   */\n      tag_418\n        /* \"#utility.yul\":4225:4232   */\n      dup11\n        /* \"#utility.yul\":4216:4222   */\n      dup3\n        /* \"#utility.yul\":4205:4214   */\n      dup12\n        /* \"#utility.yul\":4201:4223   */\n      add\n        /* \"#utility.yul\":4180:4233   */\n      tag_361\n      jump\t// in\n    tag_418:\n        /* \"#utility.yul\":4170:4233   */\n      swap7\n      pop\n        /* \"#utility.yul\":4125:4243   */\n      pop\n        /* \"#utility.yul\":4282:4284   */\n      0x40\n        /* \"#utility.yul\":4308:4361   */\n      tag_419\n        /* \"#utility.yul\":4353:4360   */\n      dup11\n        /* \"#utility.yul\":4344:4350   */\n      dup3\n        /* \"#utility.yul\":4333:4342   */\n      dup12\n        /* \"#utility.yul\":4329:4351   */\n      add\n        /* \"#utility.yul\":4308:4361   */\n      tag_383\n      jump\t// in\n    tag_419:\n        /* \"#utility.yul\":4298:4361   */\n      swap6\n      pop\n        /* \"#utility.yul\":4253:4371   */\n      pop\n        /* \"#utility.yul\":4410:4412   */\n      0x60\n        /* \"#utility.yul\":4436:4489   */\n      tag_420\n        /* \"#utility.yul\":4481:4488   */\n      dup11\n        /* \"#utility.yul\":4472:4478   */\n      dup3\n        /* \"#utility.yul\":4461:4470   */\n      dup12\n        /* \"#utility.yul\":4457:4479   */\n      add\n        /* \"#utility.yul\":4436:4489   */\n      tag_361\n      jump\t// in\n    tag_420:\n        /* \"#utility.yul\":4426:4489   */\n      swap5\n      pop\n        /* \"#utility.yul\":4381:4499   */\n      pop\n        /* \"#utility.yul\":4538:4541   */\n      0x80\n        /* \"#utility.yul\":4565:4618   */\n      tag_421\n        /* \"#utility.yul\":4610:4617   */\n      dup11\n        /* \"#utility.yul\":4601:4607   */\n      dup3\n        /* \"#utility.yul\":4590:4599   */\n      dup12\n        /* \"#utility.yul\":4586:4608   */\n      add\n        /* \"#utility.yul\":4565:4618   */\n      tag_383\n      jump\t// in\n    tag_421:\n        /* \"#utility.yul\":4555:4618   */\n      swap4\n      pop\n        /* \"#utility.yul\":4509:4628   */\n      pop\n        /* \"#utility.yul\":4667:4670   */\n      0xa0\n        /* \"#utility.yul\":4694:4747   */\n      tag_422\n        /* \"#utility.yul\":4739:4746   */\n      dup11\n        /* \"#utility.yul\":4730:4736   */\n      dup3\n        /* \"#utility.yul\":4719:4728   */\n      dup12\n        /* \"#utility.yul\":4715:4737   */\n      add\n        /* \"#utility.yul\":4694:4747   */\n      tag_383\n      jump\t// in\n    tag_422:\n        /* \"#utility.yul\":4684:4747   */\n      swap3\n      pop\n        /* \"#utility.yul\":4638:4757   */\n      pop\n        /* \"#utility.yul\":4796:4799   */\n      0xc0\n        /* \"#utility.yul\":4823:4876   */\n      tag_423\n        /* \"#utility.yul\":4868:4875   */\n      dup11\n        /* \"#utility.yul\":4859:4865   */\n      dup3\n        /* \"#utility.yul\":4848:4857   */\n      dup12\n        /* \"#utility.yul\":4844:4866   */\n      add\n        /* \"#utility.yul\":4823:4876   */\n      tag_383\n      jump\t// in\n    tag_423:\n        /* \"#utility.yul\":4813:4876   */\n      swap2\n      pop\n        /* \"#utility.yul\":4767:4886   */\n      pop\n        /* \"#utility.yul\":3690:4893   */\n      swap3\n      swap6\n      swap9\n      swap2\n      swap5\n      swap8\n      pop\n      swap3\n      swap6\n      pop\n      jump\t// out\n        /* \"#utility.yul\":4899:6416   */\n    tag_74:\n        /* \"#utility.yul\":5057:5063   */\n      0x00\n        /* \"#utility.yul\":5065:5071   */\n      dup1\n        /* \"#utility.yul\":5073:5079   */\n      0x00\n        /* \"#utility.yul\":5081:5087   */\n      dup1\n        /* \"#utility.yul\":5089:5095   */\n      0x00\n        /* \"#utility.yul\":5097:5103   */\n      dup1\n        /* \"#utility.yul\":5105:5111   */\n      0x00\n        /* \"#utility.yul\":5113:5119   */\n      dup1\n        /* \"#utility.yul\":5162:5165   */\n      0xc0\n        /* \"#utility.yul\":5150:5159   */\n      dup10\n        /* \"#utility.yul\":5141:5148   */\n      dup12\n        /* \"#utility.yul\":5137:5160   */\n      sub\n        /* \"#utility.yul\":5133:5166   */\n      slt\n        /* \"#utility.yul\":5130:5250   */\n      iszero\n      tag_425\n      jumpi\n        /* \"#utility.yul\":5169:5248   */\n      tag_426\n      tag_393\n      jump\t// in\n    tag_426:\n        /* \"#utility.yul\":5130:5250   */\n    tag_425:\n        /* \"#utility.yul\":5289:5290   */\n      0x00\n        /* \"#utility.yul\":5314:5367   */\n      tag_427\n        /* \"#utility.yul\":5359:5366   */\n      dup12\n        /* \"#utility.yul\":5350:5356   */\n      dup3\n        /* \"#utility.yul\":5339:5348   */\n      dup13\n        /* \"#utility.yul\":5335:5357   */\n      add\n        /* \"#utility.yul\":5314:5367   */\n      tag_361\n      jump\t// in\n    tag_427:\n        /* \"#utility.yul\":5304:5367   */\n      swap9\n      pop\n        /* \"#utility.yul\":5260:5377   */\n      pop\n        /* \"#utility.yul\":5444:5446   */\n      0x20\n        /* \"#utility.yul\":5433:5442   */\n      dup10\n        /* \"#utility.yul\":5429:5447   */\n      add\n        /* \"#utility.yul\":5416:5448   */\n      calldataload\n        /* \"#utility.yul\":5475:5493   */\n      0xffffffffffffffff\n        /* \"#utility.yul\":5467:5473   */\n      dup2\n        /* \"#utility.yul\":5464:5494   */\n      gt\n        /* \"#utility.yul\":5461:5578   */\n      iszero\n      tag_428\n      jumpi\n        /* \"#utility.yul\":5497:5576   */\n      tag_429\n      tag_406\n      jump\t// in\n    tag_429:\n        /* \"#utility.yul\":5461:5578   */\n    tag_428:\n        /* \"#utility.yul\":5610:5690   */\n      tag_430\n        /* \"#utility.yul\":5682:5689   */\n      dup12\n        /* \"#utility.yul\":5673:5679   */\n      dup3\n        /* \"#utility.yul\":5662:5671   */\n      dup13\n        /* \"#utility.yul\":5658:5680   */\n      add\n        /* \"#utility.yul\":5610:5690   */\n      tag_368\n      jump\t// in\n    tag_430:\n        /* \"#utility.yul\":5592:5690   */\n      swap8\n      pop\n      swap8\n      pop\n        /* \"#utility.yul\":5387:5700   */\n      pop\n        /* \"#utility.yul\":5739:5741   */\n      0x40\n        /* \"#utility.yul\":5765:5818   */\n      tag_431\n        /* \"#utility.yul\":5810:5817   */\n      dup12\n        /* \"#utility.yul\":5801:5807   */\n      dup3\n        /* \"#utility.yul\":5790:5799   */\n      dup13\n        /* \"#utility.yul\":5786:5808   */\n      add\n        /* \"#utility.yul\":5765:5818   */\n      tag_361\n      jump\t// in\n    tag_431:\n        /* \"#utility.yul\":5755:5818   */\n      swap6\n      pop\n        /* \"#utility.yul\":5710:5828   */\n      pop\n        /* \"#utility.yul\":5867:5869   */\n      0x60\n        /* \"#utility.yul\":5893:5946   */\n      tag_432\n        /* \"#utility.yul\":5938:5945   */\n      dup12\n        /* \"#utility.yul\":5929:5935   */\n      dup3\n        /* \"#utility.yul\":5918:5927   */\n      dup13\n        /* \"#utility.yul\":5914:5936   */\n      add\n        /* \"#utility.yul\":5893:5946   */\n      tag_383\n      jump\t// in\n    tag_432:\n        /* \"#utility.yul\":5883:5946   */\n      swap5\n      pop\n        /* \"#utility.yul\":5838:5956   */\n      pop\n        /* \"#utility.yul\":6023:6026   */\n      0x80\n        /* \"#utility.yul\":6012:6021   */\n      dup10\n        /* \"#utility.yul\":6008:6027   */\n      add\n        /* \"#utility.yul\":5995:6028   */\n      calldataload\n        /* \"#utility.yul\":6055:6073   */\n      0xffffffffffffffff\n        /* \"#utility.yul\":6047:6053   */\n      dup2\n        /* \"#utility.yul\":6044:6074   */\n      gt\n        /* \"#utility.yul\":6041:6158   */\n      iszero\n      tag_433\n      jumpi\n        /* \"#utility.yul\":6077:6156   */\n      tag_434\n      tag_406\n      jump\t// in\n    tag_434:\n        /* \"#utility.yul\":6041:6158   */\n    tag_433:\n        /* \"#utility.yul\":6190:6270   */\n      tag_435\n        /* \"#utility.yul\":6262:6269   */\n      dup12\n        /* \"#utility.yul\":6253:6259   */\n      dup3\n        /* \"#utility.yul\":6242:6251   */\n      dup13\n        /* \"#utility.yul\":6238:6260   */\n      add\n        /* \"#utility.yul\":6190:6270   */\n      tag_368\n      jump\t// in\n    tag_435:\n        /* \"#utility.yul\":6172:6270   */\n      swap4\n      pop\n      swap4\n      pop\n        /* \"#utility.yul\":5966:6280   */\n      pop\n        /* \"#utility.yul\":6319:6322   */\n      0xa0\n        /* \"#utility.yul\":6346:6399   */\n      tag_436\n        /* \"#utility.yul\":6391:6398   */\n      dup12\n        /* \"#utility.yul\":6382:6388   */\n      dup3\n        /* \"#utility.yul\":6371:6380   */\n      dup13\n        /* \"#utility.yul\":6367:6389   */\n      add\n        /* \"#utility.yul\":6346:6399   */\n      tag_383\n      jump\t// in\n    tag_436:\n        /* \"#utility.yul\":6336:6399   */\n      swap2\n      pop\n        /* \"#utility.yul\":6290:6409   */\n      pop\n        /* \"#utility.yul\":4899:6416   */\n      swap3\n      swap6\n      swap9\n      pop\n      swap3\n      swap6\n      swap9\n      swap1\n      swap4\n      swap7\n      pop\n      jump\t// out\n        /* \"#utility.yul\":6422:6896   */\n    tag_23:\n        /* \"#utility.yul\":6490:6496   */\n      0x00\n        /* \"#utility.yul\":6498:6504   */\n      dup1\n        /* \"#utility.yul\":6547:6549   */\n      0x40\n        /* \"#utility.yul\":6535:6544   */\n      dup4\n        /* \"#utility.yul\":6526:6533   */\n      dup6\n        /* \"#utility.yul\":6522:6545   */\n      sub\n        /* \"#utility.yul\":6518:6550   */\n      slt\n        /* \"#utility.yul\":6515:6634   */\n      iszero\n      tag_438\n      jumpi\n        /* \"#utility.yul\":6553:6632   */\n      tag_439\n      tag_393\n      jump\t// in\n    tag_439:\n        /* \"#utility.yul\":6515:6634   */\n    tag_438:\n        /* \"#utility.yul\":6673:6674   */\n      0x00\n        /* \"#utility.yul\":6698:6751   */\n      tag_440\n        /* \"#utility.yul\":6743:6750   */\n      dup6\n        /* \"#utility.yul\":6734:6740   */\n      dup3\n        /* \"#utility.yul\":6723:6732   */\n      dup7\n        /* \"#utility.yul\":6719:6741   */\n      add\n        /* \"#utility.yul\":6698:6751   */\n      tag_361\n      jump\t// in\n    tag_440:\n        /* \"#utility.yul\":6688:6751   */\n      swap3\n      pop\n        /* \"#utility.yul\":6644:6761   */\n      pop\n        /* \"#utility.yul\":6800:6802   */\n      0x20\n        /* \"#utility.yul\":6826:6879   */\n      tag_441\n        /* \"#utility.yul\":6871:6878   */\n      dup6\n        /* \"#utility.yul\":6862:6868   */\n      dup3\n        /* \"#utility.yul\":6851:6860   */\n      dup7\n        /* \"#utility.yul\":6847:6869   */\n      add\n        /* \"#utility.yul\":6826:6879   */\n      tag_383\n      jump\t// in\n    tag_441:\n        /* \"#utility.yul\":6816:6879   */\n      swap2\n      pop\n        /* \"#utility.yul\":6771:6889   */\n      pop\n        /* \"#utility.yul\":6422:6896   */\n      swap3\n      pop\n      swap3\n      swap1\n      pop\n      jump\t// out\n        /* \"#utility.yul\":6902:7959   */\n    tag_70:\n        /* \"#utility.yul\":7006:7012   */\n      0x00\n        /* \"#utility.yul\":7014:7020   */\n      dup1\n        /* \"#utility.yul\":7022:7028   */\n      0x00\n        /* \"#utility.yul\":7030:7036   */\n      dup1\n        /* \"#utility.yul\":7038:7044   */\n      0x00\n        /* \"#utility.yul\":7046:7052   */\n      dup1\n        /* \"#utility.yul\":7095:7098   */\n      0xc0\n        /* \"#utility.yul\":7083:7092   */\n      dup8\n        /* \"#utility.yul\":7074:7081   */\n      dup10\n        /* \"#utility.yul\":7070:7093   */\n      sub\n        /* \"#utility.yul\":7066:7099   */\n      slt\n        /* \"#utility.yul\":7063:7183   */\n      iszero\n      tag_443\n      jumpi\n        /* \"#utility.yul\":7102:7181   */\n      tag_444\n      tag_393\n      jump\t// in\n    tag_444:\n        /* \"#utility.yul\":7063:7183   */\n    tag_443:\n        /* \"#utility.yul\":7222:7223   */\n      0x00\n        /* \"#utility.yul\":7247:7300   */\n      tag_445\n        /* \"#utility.yul\":7292:7299   */\n      dup10\n        /* \"#utility.yul\":7283:7289   */\n      dup3\n        /* \"#utility.yul\":7272:7281   */\n      dup11\n        /* \"#utility.yul\":7268:7290   */\n      add\n        /* \"#utility.yul\":7247:7300   */\n      tag_361\n      jump\t// in\n    tag_445:\n        /* \"#utility.yul\":7237:7300   */\n      swap7\n      pop\n        /* \"#utility.yul\":7193:7310   */\n      pop\n        /* \"#utility.yul\":7349:7351   */\n      0x20\n        /* \"#utility.yul\":7375:7428   */\n      tag_446\n        /* \"#utility.yul\":7420:7427   */\n      dup10\n        /* \"#utility.yul\":7411:7417   */\n      dup3\n        /* \"#utility.yul\":7400:7409   */\n      dup11\n        /* \"#utility.yul\":7396:7418   */\n      add\n        /* \"#utility.yul\":7375:7428   */\n      tag_383\n      jump\t// in\n    tag_446:\n        /* \"#utility.yul\":7365:7428   */\n      swap6\n      pop\n        /* \"#utility.yul\":7320:7438   */\n      pop\n        /* \"#utility.yul\":7477:7479   */\n      0x40\n        /* \"#utility.yul\":7503:7556   */\n      tag_447\n        /* \"#utility.yul\":7548:7555   */\n      dup10\n        /* \"#utility.yul\":7539:7545   */\n      dup3\n        /* \"#utility.yul\":7528:7537   */\n      dup11\n        /* \"#utility.yul\":7524:7546   */\n      add\n        /* \"#utility.yul\":7503:7556   */\n      tag_361\n      jump\t// in\n    tag_447:\n        /* \"#utility.yul\":7493:7556   */\n      swap5\n      pop\n        /* \"#utility.yul\":7448:7566   */\n      pop\n        /* \"#utility.yul\":7605:7607   */\n      0x60\n        /* \"#utility.yul\":7631:7684   */\n      tag_448\n        /* \"#utility.yul\":7676:7683   */\n      dup10\n        /* \"#utility.yul\":7667:7673   */\n      dup3\n        /* \"#utility.yul\":7656:7665   */\n      dup11\n        /* \"#utility.yul\":7652:7674   */\n      add\n        /* \"#utility.yul\":7631:7684   */\n      tag_383\n      jump\t// in\n    tag_448:\n        /* \"#utility.yul\":7621:7684   */\n      swap4\n      pop\n        /* \"#utility.yul\":7576:7694   */\n      pop\n        /* \"#utility.yul\":7733:7736   */\n      0x80\n        /* \"#utility.yul\":7760:7813   */\n      tag_449\n        /* \"#utility.yul\":7805:7812   */\n      dup10\n        /* \"#utility.yul\":7796:7802   */\n      dup3\n        /* \"#utility.yul\":7785:7794   */\n      dup11\n        /* \"#utility.yul\":7781:7803   */\n      add\n        /* \"#utility.yul\":7760:7813   */\n      tag_383\n      jump\t// in\n    tag_449:\n        /* \"#utility.yul\":7750:7813   */\n      swap3\n      pop\n        /* \"#utility.yul\":7704:7823   */\n      pop\n        /* \"#utility.yul\":7862:7865   */\n      0xa0\n        /* \"#utility.yul\":7889:7942   */\n      tag_450\n        /* \"#utility.yul\":7934:7941   */\n      dup10\n        /* \"#utility.yul\":7925:7931   */\n      dup3\n        /* \"#utility.yul\":7914:7923   */\n      dup11\n        /* \"#utility.yul\":7910:7932   */\n      add\n        /* \"#utility.yul\":7889:7942   */\n      tag_383\n      jump\t// in\n    tag_450:\n        /* \"#utility.yul\":7879:7942   */\n      swap2\n      pop\n        /* \"#utility.yul\":7833:7952   */\n      pop\n        /* \"#utility.yul\":6902:7959   */\n      swap3\n      swap6\n      pop\n      swap3\n      swap6\n      pop\n      swap3\n      swap6\n      jump\t// out\n        /* \"#utility.yul\":7965:8584   */\n    tag_42:\n        /* \"#utility.yul\":8042:8048   */\n      0x00\n        /* \"#utility.yul\":8050:8056   */\n      dup1\n        /* \"#utility.yul\":8058:8064   */\n      0x00\n        /* \"#utility.yul\":8107:8109   */\n      0x60\n        /* \"#utility.yul\":8095:8104   */\n      dup5\n        /* \"#utility.yul\":8086:8093   */\n      dup7\n        /* \"#utility.yul\":8082:8105   */\n      sub\n        /* \"#utility.yul\":8078:8110   */\n      slt\n        /* \"#utility.yul\":8075:8194   */\n      iszero\n      tag_452\n      jumpi\n        /* \"#utility.yul\":8113:8192   */\n      tag_453\n      tag_393\n      jump\t// in\n    tag_453:\n        /* \"#utility.yul\":8075:8194   */\n    tag_452:\n        /* \"#utility.yul\":8233:8234   */\n      0x00\n        /* \"#utility.yul\":8258:8311   */\n      tag_454\n        /* \"#utility.yul\":8303:8310   */\n      dup7\n        /* \"#utility.yul\":8294:8300   */\n      dup3\n        /* \"#utility.yul\":8283:8292   */\n      dup8\n        /* \"#utility.yul\":8279:8301   */\n      add\n        /* \"#utility.yul\":8258:8311   */\n      tag_361\n      jump\t// in\n    tag_454:\n        /* \"#utility.yul\":8248:8311   */\n      swap4\n      pop\n        /* \"#utility.yul\":8204:8321   */\n      pop\n        /* \"#utility.yul\":8360:8362   */\n      0x20\n        /* \"#utility.yul\":8386:8439   */\n      tag_455\n        /* \"#utility.yul\":8431:8438   */\n      dup7\n        /* \"#utility.yul\":8422:8428   */\n      dup3\n        /* \"#utility.yul\":8411:8420   */\n      dup8\n        /* \"#utility.yul\":8407:8429   */\n      add\n        /* \"#utility.yul\":8386:8439   */\n      tag_383\n      jump\t// in\n    tag_455:\n        /* \"#utility.yul\":8376:8439   */\n      swap3\n      pop\n        /* \"#utility.yul\":8331:8449   */\n      pop\n        /* \"#utility.yul\":8488:8490   */\n      0x40\n        /* \"#utility.yul\":8514:8567   */\n      tag_456\n        /* \"#utility.yul\":8559:8566   */\n      dup7\n        /* \"#utility.yul\":8550:8556   */\n      dup3\n        /* \"#utility.yul\":8539:8548   */\n      dup8\n        /* \"#utility.yul\":8535:8557   */\n      add\n        /* \"#utility.yul\":8514:8567   */\n      tag_383\n      jump\t// in\n    tag_456:\n        /* \"#utility.yul\":8504:8567   */\n      swap2\n      pop\n        /* \"#utility.yul\":8459:8577   */\n      pop\n        /* \"#utility.yul\":7965:8584   */\n      swap3\n      pop\n      swap3\n      pop\n      swap3\n      jump\t// out\n        /* \"#utility.yul\":8590:8935   */\n    tag_122:\n        /* \"#utility.yul\":8657:8663   */\n      0x00\n        /* \"#utility.yul\":8706:8708   */\n      0x20\n        /* \"#utility.yul\":8694:8703   */\n      dup3\n        /* \"#utility.yul\":8685:8692   */\n      dup5\n        /* \"#utility.yul\":8681:8704   */\n      sub\n        /* \"#utility.yul\":8677:8709   */\n      slt\n        /* \"#utility.yul\":8674:8793   */\n      iszero\n      tag_458\n      jumpi\n        /* \"#utility.yul\":8712:8791   */\n      tag_459\n      tag_393\n      jump\t// in\n    tag_459:\n        /* \"#utility.yul\":8674:8793   */\n    tag_458:\n        /* \"#utility.yul\":8832:8833   */\n      0x00\n        /* \"#utility.yul\":8857:8918   */\n      tag_460\n        /* \"#utility.yul\":8910:8917   */\n      dup5\n        /* \"#utility.yul\":8901:8907   */\n      dup3\n        /* \"#utility.yul\":8890:8899   */\n      dup6\n        /* \"#utility.yul\":8886:8908   */\n      add\n        /* \"#utility.yul\":8857:8918   */\n      tag_379\n      jump\t// in\n    tag_460:\n        /* \"#utility.yul\":8847:8918   */\n      swap2\n      pop\n        /* \"#utility.yul\":8803:8928   */\n      pop\n        /* \"#utility.yul\":8590:8935   */\n      swap3\n      swap2\n      pop\n      pop\n      jump\t// out\n        /* \"#utility.yul\":8941:9292   */\n    tag_108:\n        /* \"#utility.yul\":9011:9017   */\n      0x00\n        /* \"#utility.yul\":9060:9062   */\n      0x20\n        /* \"#utility.yul\":9048:9057   */\n      dup3\n        /* \"#utility.yul\":9039:9046   */\n      dup5\n        /* \"#utility.yul\":9035:9058   */\n      sub\n        /* \"#utility.yul\":9031:9063   */\n      slt\n        /* \"#utility.yul\":9028:9147   */\n      iszero\n      tag_462\n      jumpi\n        /* \"#utility.yul\":9066:9145   */\n      tag_463\n      tag_393\n      jump\t// in\n    tag_463:\n        /* \"#utility.yul\":9028:9147   */\n    tag_462:\n        /* \"#utility.yul\":9186:9187   */\n      0x00\n        /* \"#utility.yul\":9211:9275   */\n      tag_464\n        /* \"#utility.yul\":9267:9274   */\n      dup5\n        /* \"#utility.yul\":9258:9264   */\n      dup3\n        /* \"#utility.yul\":9247:9256   */\n      dup6\n        /* \"#utility.yul\":9243:9265   */\n      add\n        /* \"#utility.yul\":9211:9275   */\n      tag_387\n      jump\t// in\n    tag_464:\n        /* \"#utility.yul\":9201:9275   */\n      swap2\n      pop\n        /* \"#utility.yul\":9157:9285   */\n      pop\n        /* \"#utility.yul\":8941:9292   */\n      swap3\n      swap2\n      pop\n      pop\n      jump\t// out\n        /* \"#utility.yul\":9298:9917   */\n    tag_66:\n        /* \"#utility.yul\":9375:9381   */\n      0x00\n        /* \"#utility.yul\":9383:9389   */\n      dup1\n        /* \"#utility.yul\":9391:9397   */\n      0x00\n        /* \"#utility.yul\":9440:9442   */\n      0x60\n        /* \"#utility.yul\":9428:9437   */\n      dup5\n        /* \"#utility.yul\":9419:9426   */\n      dup7\n        /* \"#utility.yul\":9415:9438   */\n      sub\n        /* \"#utility.yul\":9411:9443   */\n      slt\n        /* \"#utility.yul\":9408:9527   */\n      iszero\n      tag_466\n      jumpi\n        /* \"#utility.yul\":9446:9525   */\n      tag_467\n      tag_393\n      jump\t// in\n    tag_467:\n        /* \"#utility.yul\":9408:9527   */\n    tag_466:\n        /* \"#utility.yul\":9566:9567   */\n      0x00\n        /* \"#utility.yul\":9591:9644   */\n      tag_468\n        /* \"#utility.yul\":9636:9643   */\n      dup7\n        /* \"#utility.yul\":9627:9633   */\n      dup3\n        /* \"#utility.yul\":9616:9625   */\n      dup8\n        /* \"#utility.yul\":9612:9634   */\n      add\n        /* \"#utility.yul\":9591:9644   */\n      tag_383\n      jump\t// in\n    tag_468:\n        /* \"#utility.yul\":9581:9644   */\n      swap4\n      pop\n        /* \"#utility.yul\":9537:9654   */\n      pop\n        /* \"#utility.yul\":9693:9695   */\n      0x20\n        /* \"#utility.yul\":9719:9772   */\n      tag_469\n        /* \"#utility.yul\":9764:9771   */\n      dup7\n        /* \"#utility.yul\":9755:9761   */\n      dup3\n        /* \"#utility.yul\":9744:9753   */\n      dup8\n        /* \"#utility.yul\":9740:9762   */\n      add\n        /* \"#utility.yul\":9719:9772   */\n      tag_361\n      jump\t// in\n    tag_469:\n        /* \"#utility.yul\":9709:9772   */\n      swap3\n      pop\n        /* \"#utility.yul\":9664:9782   */\n      pop\n        /* \"#utility.yul\":9821:9823   */\n      0x40\n        /* \"#utility.yul\":9847:9900   */\n      tag_470\n        /* \"#utility.yul\":9892:9899   */\n      dup7\n        /* \"#utility.yul\":9883:9889   */\n      dup3\n        /* \"#utility.yul\":9872:9881   */\n      dup8\n        /* \"#utility.yul\":9868:9890   */\n      add\n        /* \"#utility.yul\":9847:9900   */\n      tag_383\n      jump\t// in\n    tag_470:\n        /* \"#utility.yul\":9837:9900   */\n      swap2\n      pop\n        /* \"#utility.yul\":9792:9910   */\n      pop\n        /* \"#utility.yul\":9298:9917   */\n      swap3\n      pop\n      swap3\n      pop\n      swap3\n      jump\t// out\n        /* \"#utility.yul\":9923:10041   */\n    tag_471:\n        /* \"#utility.yul\":10010:10034   */\n      tag_473\n        /* \"#utility.yul\":10028:10033   */\n      dup2\n        /* \"#utility.yul\":10010:10034   */\n      tag_474\n      jump\t// in\n    tag_473:\n        /* \"#utility.yul\":10005:10008   */\n      dup3\n        /* \"#utility.yul\":9998:10035   */\n      mstore\n        /* \"#utility.yul\":9923:10041   */\n      pop\n      pop\n      jump\t// out\n        /* \"#utility.yul\":10047:10156   */\n    tag_475:\n        /* \"#utility.yul\":10128:10149   */\n      tag_477\n        /* \"#utility.yul\":10143:10148   */\n      dup2\n        /* \"#utility.yul\":10128:10149   */\n      tag_478\n      jump\t// in\n    tag_477:\n        /* \"#utility.yul\":10123:10126   */\n      dup3\n        /* \"#utility.yul\":10116:10150   */\n      mstore\n        /* \"#utility.yul\":10047:10156   */\n      pop\n      pop\n      jump\t// out\n        /* \"#utility.yul\":10162:10528   */\n    tag_479:\n        /* \"#utility.yul\":10304:10307   */\n      0x00\n        /* \"#utility.yul\":10325:10392   */\n      tag_481\n        /* \"#utility.yul\":10389:10391   */\n      0x18\n        /* \"#utility.yul\":10384:10387   */\n      dup4\n        /* \"#utility.yul\":10325:10392   */\n      tag_482\n      jump\t// in\n    tag_481:\n        /* \"#utility.yul\":10318:10392   */\n      swap2\n      pop\n        /* \"#utility.yul\":10401:10494   */\n      tag_483\n        /* \"#utility.yul\":10490:10493   */\n      dup3\n        /* \"#utility.yul\":10401:10494   */\n      tag_484\n      jump\t// in\n    tag_483:\n        /* \"#utility.yul\":10519:10521   */\n      0x20\n        /* \"#utility.yul\":10514:10517   */\n      dup3\n        /* \"#utility.yul\":10510:10522   */\n      add\n        /* \"#utility.yul\":10503:10522   */\n      swap1\n      pop\n        /* \"#utility.yul\":10162:10528   */\n      swap2\n      swap1\n      pop\n      jump\t// out\n        /* \"#utility.yul\":10534:10900   */\n    tag_485:\n        /* \"#utility.yul\":10676:10679   */\n      0x00\n        /* \"#utility.yul\":10697:10764   */\n      tag_487\n        /* \"#utility.yul\":10761:10763   */\n      0x1a\n        /* \"#utility.yul\":10756:10759   */\n      dup4\n        /* \"#utility.yul\":10697:10764   */\n      tag_482\n      jump\t// in\n    tag_487:\n        /* \"#utility.yul\":10690:10764   */\n      swap2\n      pop\n        /* \"#utility.yul\":10773:10866   */\n      tag_488\n        /* \"#utility.yul\":10862:10865   */\n      dup3\n        /* \"#utility.yul\":10773:10866   */\n      tag_489\n      jump\t// in\n    tag_488:\n        /* \"#utility.yul\":10891:10893   */\n      0x20\n        /* \"#utility.yul\":10886:10889   */\n      dup3\n        /* \"#utility.yul\":10882:10894   */\n      add\n        /* \"#utility.yul\":10875:10894   */\n      swap1\n      pop\n        /* \"#utility.yul\":10534:10900   */\n      swap2\n      swap1\n      pop\n      jump\t// out\n        /* \"#utility.yul\":10906:11272   */\n    tag_490:\n        /* \"#utility.yul\":11048:11051   */\n      0x00\n        /* \"#utility.yul\":11069:11136   */\n      tag_492\n        /* \"#utility.yul\":11133:11135   */\n      0x26\n        /* \"#utility.yul\":11128:11131   */\n      dup4\n        /* \"#utility.yul\":11069:11136   */\n      tag_482\n      jump\t// in\n    tag_492:\n        /* \"#utility.yul\":11062:11136   */\n      swap2\n      pop\n        /* \"#utility.yul\":11145:11238   */\n      tag_493\n        /* \"#utility.yul\":11234:11237   */\n      dup3\n        /* \"#utility.yul\":11145:11238   */\n      tag_494\n      jump\t// in\n    tag_493:\n        /* \"#utility.yul\":11263:11265   */\n      0x40\n        /* \"#utility.yul\":11258:11261   */\n      dup3\n        /* \"#utility.yul\":11254:11266   */\n      add\n        /* \"#utility.yul\":11247:11266   */\n      swap1\n      pop\n        /* \"#utility.yul\":10906:11272   */\n      swap2\n      swap1\n      pop\n      jump\t// out\n        /* \"#utility.yul\":11278:11644   */\n    tag_495:\n        /* \"#utility.yul\":11420:11423   */\n      0x00\n        /* \"#utility.yul\":11441:11508   */\n      tag_497\n        /* \"#utility.yul\":11505:11507   */\n      0x12\n        /* \"#utility.yul\":11500:11503   */\n      dup4\n        /* \"#utility.yul\":11441:11508   */\n      tag_482\n      jump\t// in\n    tag_497:\n        /* \"#utility.yul\":11434:11508   */\n      swap2\n      pop\n        /* \"#utility.yul\":11517:11610   */\n      tag_498\n        /* \"#utility.yul\":11606:11609   */\n      dup3\n        /* \"#utility.yul\":11517:11610   */\n      tag_499\n      jump\t// in\n    tag_498:\n        /* \"#utility.yul\":11635:11637   */\n      0x20\n        /* \"#utility.yul\":11630:11633   */\n      dup3\n        /* \"#utility.yul\":11626:11638   */\n      add\n        /* \"#utility.yul\":11619:11638   */\n      swap1\n      pop\n        /* \"#utility.yul\":11278:11644   */\n      swap2\n      swap1\n      pop\n      jump\t// out\n        /* \"#utility.yul\":11650:12016   */\n    tag_500:\n        /* \"#utility.yul\":11792:11795   */\n      0x00\n        /* \"#utility.yul\":11813:11880   */\n      tag_502\n        /* \"#utility.yul\":11877:11879   */\n      0x18\n        /* \"#utility.yul\":11872:11875   */\n      dup4\n        /* \"#utility.yul\":11813:11880   */\n      tag_482\n      jump\t// in\n    tag_502:\n        /* \"#utility.yul\":11806:11880   */\n      swap2\n      pop\n        /* \"#utility.yul\":11889:11982   */\n      tag_503\n        /* \"#utility.yul\":11978:11981   */\n      dup3\n        /* \"#utility.yul\":11889:11982   */\n      tag_504\n      jump\t// in\n    tag_503:\n        /* \"#utility.yul\":12007:12009   */\n      0x20\n        /* \"#utility.yul\":12002:12005   */\n      dup3\n        /* \"#utility.yul\":11998:12010   */\n      add\n        /* \"#utility.yul\":11991:12010   */\n      swap1\n      pop\n        /* \"#utility.yul\":11650:12016   */\n      swap2\n      swap1\n      pop\n      jump\t// out\n        /* \"#utility.yul\":12022:12388   */\n    tag_505:\n        /* \"#utility.yul\":12164:12167   */\n      0x00\n        /* \"#utility.yul\":12185:12252   */\n      tag_507\n        /* \"#utility.yul\":12249:12251   */\n      0x0d\n        /* \"#utility.yul\":12244:12247   */\n      dup4\n        /* \"#utility.yul\":12185:12252   */\n      tag_482\n      jump\t// in\n    tag_507:\n        /* \"#utility.yul\":12178:12252   */\n      swap2\n      pop\n        /* \"#utility.yul\":12261:12354   */\n      tag_508\n        /* \"#utility.yul\":12350:12353   */\n      dup3\n        /* \"#utility.yul\":12261:12354   */\n      tag_509\n      jump\t// in\n    tag_508:\n        /* \"#utility.yul\":12379:12381   */\n      0x20\n        /* \"#utility.yul\":12374:12377   */\n      dup3\n        /* \"#utility.yul\":12370:12382   */\n      add\n        /* \"#utility.yul\":12363:12382   */\n      swap1\n      pop\n        /* \"#utility.yul\":12022:12388   */\n      swap2\n      swap1\n      pop\n      jump\t// out\n        /* \"#utility.yul\":12394:12760   */\n    tag_510:\n        /* \"#utility.yul\":12536:12539   */\n      0x00\n        /* \"#utility.yul\":12557:12624   */\n      tag_512\n        /* \"#utility.yul\":12621:12623   */\n      0x20\n        /* \"#utility.yul\":12616:12619   */\n      dup4\n        /* \"#utility.yul\":12557:12624   */\n      tag_482\n      jump\t// in\n    tag_512:\n        /* \"#utility.yul\":12550:12624   */\n      swap2\n      pop\n        /* \"#utility.yul\":12633:12726   */\n      tag_513\n        /* \"#utility.yul\":12722:12725   */\n      dup3\n        /* \"#utility.yul\":12633:12726   */\n      tag_514\n      jump\t// in\n    tag_513:\n        /* \"#utility.yul\":12751:12753   */\n      0x20\n        /* \"#utility.yul\":12746:12749   */\n      dup3\n        /* \"#utility.yul\":12742:12754   */\n      add\n        /* \"#utility.yul\":12735:12754   */\n      swap1\n      pop\n        /* \"#utility.yul\":12394:12760   */\n      swap2\n      swap1\n      pop\n      jump\t// out\n        /* \"#utility.yul\":12766:13128   */\n    tag_515:\n        /* \"#utility.yul\":12907:12910   */\n      0x00\n        /* \"#utility.yul\":12928:12993   */\n      tag_517\n        /* \"#utility.yul\":12991:12992   */\n      0x00\n        /* \"#utility.yul\":12986:12989   */\n      dup4\n        /* \"#utility.yul\":12928:12993   */\n      tag_518\n      jump\t// in\n    tag_517:\n        /* \"#utility.yul\":12921:12993   */\n      swap2\n      pop\n        /* \"#utility.yul\":13002:13095   */\n      tag_519\n        /* \"#utility.yul\":13091:13094   */\n      dup3\n        /* \"#utility.yul\":13002:13095   */\n      tag_520\n      jump\t// in\n    tag_519:\n        /* \"#utility.yul\":13120:13121   */\n      0x00\n        /* \"#utility.yul\":13115:13118   */\n      dup3\n        /* \"#utility.yul\":13111:13122   */\n      add\n        /* \"#utility.yul\":13104:13122   */\n      swap1\n      pop\n        /* \"#utility.yul\":12766:13128   */\n      swap2\n      swap1\n      pop\n      jump\t// out\n        /* \"#utility.yul\":13134:13500   */\n    tag_521:\n        /* \"#utility.yul\":13276:13279   */\n      0x00\n        /* \"#utility.yul\":13297:13364   */\n      tag_523\n        /* \"#utility.yul\":13361:13363   */\n      0x19\n        /* \"#utility.yul\":13356:13359   */\n      dup4\n        /* \"#utility.yul\":13297:13364   */\n      tag_482\n      jump\t// in\n    tag_523:\n        /* \"#utility.yul\":13290:13364   */\n      swap2\n      pop\n        /* \"#utility.yul\":13373:13466   */\n      tag_524\n        /* \"#utility.yul\":13462:13465   */\n      dup3\n        /* \"#utility.yul\":13373:13466   */\n      tag_525\n      jump\t// in\n    tag_524:\n        /* \"#utility.yul\":13491:13493   */\n      0x20\n        /* \"#utility.yul\":13486:13489   */\n      dup3\n        /* \"#utility.yul\":13482:13494   */\n      add\n        /* \"#utility.yul\":13475:13494   */\n      swap1\n      pop\n        /* \"#utility.yul\":13134:13500   */\n      swap2\n      swap1\n      pop\n      jump\t// out\n        /* \"#utility.yul\":13506:13872   */\n    tag_526:\n        /* \"#utility.yul\":13648:13651   */\n      0x00\n        /* \"#utility.yul\":13669:13736   */\n      tag_528\n        /* \"#utility.yul\":13733:13735   */\n      0x14\n        /* \"#utility.yul\":13728:13731   */\n      dup4\n        /* \"#utility.yul\":13669:13736   */\n      tag_482\n      jump\t// in\n    tag_528:\n        /* \"#utility.yul\":13662:13736   */\n      swap2\n      pop\n        /* \"#utility.yul\":13745:13838   */\n      tag_529\n        /* \"#utility.yul\":13834:13837   */\n      dup3\n        /* \"#utility.yul\":13745:13838   */\n      tag_530\n      jump\t// in\n    tag_529:\n        /* \"#utility.yul\":13863:13865   */\n      0x20\n        /* \"#utility.yul\":13858:13861   */\n      dup3\n        /* \"#utility.yul\":13854:13866   */\n      add\n        /* \"#utility.yul\":13847:13866   */\n      swap1\n      pop\n        /* \"#utility.yul\":13506:13872   */\n      swap2\n      swap1\n      pop\n      jump\t// out\n        /* \"#utility.yul\":13878:13996   */\n    tag_531:\n        /* \"#utility.yul\":13965:13989   */\n      tag_533\n        /* \"#utility.yul\":13983:13988   */\n      dup2\n        /* \"#utility.yul\":13965:13989   */\n      tag_534\n      jump\t// in\n    tag_533:\n        /* \"#utility.yul\":13960:13963   */\n      dup3\n        /* \"#utility.yul\":13953:13990   */\n      mstore\n        /* \"#utility.yul\":13878:13996   */\n      pop\n      pop\n      jump\t// out\n        /* \"#utility.yul\":14002:14224   */\n    tag_38:\n        /* \"#utility.yul\":14095:14099   */\n      0x00\n        /* \"#utility.yul\":14133:14135   */\n      0x20\n        /* \"#utility.yul\":14122:14131   */\n      dup3\n        /* \"#utility.yul\":14118:14136   */\n      add\n        /* \"#utility.yul\":14110:14136   */\n      swap1\n      pop\n        /* \"#utility.yul\":14146:14217   */\n      tag_536\n        /* \"#utility.yul\":14214:14215   */\n      0x00\n        /* \"#utility.yul\":14203:14212   */\n      dup4\n        /* \"#utility.yul\":14199:14216   */\n      add\n        /* \"#utility.yul\":14190:14196   */\n      dup5\n        /* \"#utility.yul\":14146:14217   */\n      tag_471\n      jump\t// in\n    tag_536:\n        /* \"#utility.yul\":14002:14224   */\n      swap3\n      swap2\n      pop\n      pop\n      jump\t// out\n        /* \"#utility.yul\":14230:14562   */\n    tag_180:\n        /* \"#utility.yul\":14351:14355   */\n      0x00\n        /* \"#utility.yul\":14389:14391   */\n      0x40\n        /* \"#utility.yul\":14378:14387   */\n      dup3\n        /* \"#utility.yul\":14374:14392   */\n      add\n        /* \"#utility.yul\":14366:14392   */\n      swap1\n      pop\n        /* \"#utility.yul\":14402:14473   */\n      tag_538\n        /* \"#utility.yul\":14470:14471   */\n      0x00\n        /* \"#utility.yul\":14459:14468   */\n      dup4\n        /* \"#utility.yul\":14455:14472   */\n      add\n        /* \"#utility.yul\":14446:14452   */\n      dup6\n        /* \"#utility.yul\":14402:14473   */\n      tag_471\n      jump\t// in\n    tag_538:\n        /* \"#utility.yul\":14483:14555   */\n      tag_539\n        /* \"#utility.yul\":14551:14553   */\n      0x20\n        /* \"#utility.yul\":14540:14549   */\n      dup4\n        /* \"#utility.yul\":14536:14554   */\n      add\n        /* \"#utility.yul\":14527:14533   */\n      dup5\n        /* \"#utility.yul\":14483:14555   */\n      tag_471\n      jump\t// in\n    tag_539:\n        /* \"#utility.yul\":14230:14562   */\n      swap4\n      swap3\n      pop\n      pop\n      pop\n      jump\t// out\n        /* \"#utility.yul\":14568:15010   */\n    tag_117:\n        /* \"#utility.yul\":14717:14721   */\n      0x00\n        /* \"#utility.yul\":14755:14757   */\n      0x60\n        /* \"#utility.yul\":14744:14753   */\n      dup3\n        /* \"#utility.yul\":14740:14758   */\n      add\n        /* \"#utility.yul\":14732:14758   */\n      swap1\n      pop\n        /* \"#utility.yul\":14768:14839   */\n      tag_541\n        /* \"#utility.yul\":14836:14837   */\n      0x00\n        /* \"#utility.yul\":14825:14834   */\n      dup4\n        /* \"#utility.yul\":14821:14838   */\n      add\n        /* \"#utility.yul\":14812:14818   */\n      dup7\n        /* \"#utility.yul\":14768:14839   */\n      tag_471\n      jump\t// in\n    tag_541:\n        /* \"#utility.yul\":14849:14921   */\n      tag_542\n        /* \"#utility.yul\":14917:14919   */\n      0x20\n        /* \"#utility.yul\":14906:14915   */\n      dup4\n        /* \"#utility.yul\":14902:14920   */\n      add\n        /* \"#utility.yul\":14893:14899   */\n      dup6\n        /* \"#utility.yul\":14849:14921   */\n      tag_471\n      jump\t// in\n    tag_542:\n        /* \"#utility.yul\":14931:15003   */\n      tag_543\n        /* \"#utility.yul\":14999:15001   */\n      0x40\n        /* \"#utility.yul\":14988:14997   */\n      dup4\n        /* \"#utility.yul\":14984:15002   */\n      add\n        /* \"#utility.yul\":14975:14981   */\n      dup5\n        /* \"#utility.yul\":14931:15003   */\n      tag_531\n      jump\t// in\n    tag_543:\n        /* \"#utility.yul\":14568:15010   */\n      swap5\n      swap4\n      pop\n      pop\n      pop\n      pop\n      jump\t// out\n        /* \"#utility.yul\":15016:15764   */\n    tag_148:\n        /* \"#utility.yul\":15265:15269   */\n      0x00\n        /* \"#utility.yul\":15303:15306   */\n      0x80\n        /* \"#utility.yul\":15292:15301   */\n      dup3\n        /* \"#utility.yul\":15288:15307   */\n      add\n        /* \"#utility.yul\":15280:15307   */\n      swap1\n      pop\n        /* \"#utility.yul\":15317:15388   */\n      tag_545\n        /* \"#utility.yul\":15385:15386   */\n      0x00\n        /* \"#utility.yul\":15374:15383   */\n      dup4\n        /* \"#utility.yul\":15370:15387   */\n      add\n        /* \"#utility.yul\":15361:15367   */\n      dup7\n        /* \"#utility.yul\":15317:15388   */\n      tag_471\n      jump\t// in\n    tag_545:\n        /* \"#utility.yul\":15398:15470   */\n      tag_546\n        /* \"#utility.yul\":15466:15468   */\n      0x20\n        /* \"#utility.yul\":15455:15464   */\n      dup4\n        /* \"#utility.yul\":15451:15469   */\n      add\n        /* \"#utility.yul\":15442:15448   */\n      dup6\n        /* \"#utility.yul\":15398:15470   */\n      tag_471\n      jump\t// in\n    tag_546:\n        /* \"#utility.yul\":15480:15552   */\n      tag_547\n        /* \"#utility.yul\":15548:15550   */\n      0x40\n        /* \"#utility.yul\":15537:15546   */\n      dup4\n        /* \"#utility.yul\":15533:15551   */\n      add\n        /* \"#utility.yul\":15524:15530   */\n      dup5\n        /* \"#utility.yul\":15480:15552   */\n      tag_531\n      jump\t// in\n    tag_547:\n        /* \"#utility.yul\":15599:15608   */\n      dup2\n        /* \"#utility.yul\":15593:15597   */\n      dup2\n        /* \"#utility.yul\":15589:15609   */\n      sub\n        /* \"#utility.yul\":15584:15586   */\n      0x60\n        /* \"#utility.yul\":15573:15582   */\n      dup4\n        /* \"#utility.yul\":15569:15587   */\n      add\n        /* \"#utility.yul\":15562:15610   */\n      mstore\n        /* \"#utility.yul\":15627:15757   */\n      tag_548\n        /* \"#utility.yul\":15752:15756   */\n      dup2\n        /* \"#utility.yul\":15627:15757   */\n      tag_515\n      jump\t// in\n    tag_548:\n        /* \"#utility.yul\":15619:15757   */\n      swap1\n      pop\n        /* \"#utility.yul\":15016:15764   */\n      swap5\n      swap4\n      pop\n      pop\n      pop\n      pop\n      jump\t// out\n        /* \"#utility.yul\":15770:15980   */\n    tag_32:\n        /* \"#utility.yul\":15857:15861   */\n      0x00\n        /* \"#utility.yul\":15895:15897   */\n      0x20\n        /* \"#utility.yul\":15884:15893   */\n      dup3\n        /* \"#utility.yul\":15880:15898   */\n      add\n        /* \"#utility.yul\":15872:15898   */\n      swap1\n      pop\n        /* \"#utility.yul\":15908:15973   */\n      tag_550\n        /* \"#utility.yul\":15970:15971   */\n      0x00\n        /* \"#utility.yul\":15959:15968   */\n      dup4\n        /* \"#utility.yul\":15955:15972   */\n      add\n        /* \"#utility.yul\":15946:15952   */\n      dup5\n        /* \"#utility.yul\":15908:15973   */\n      tag_475\n      jump\t// in\n    tag_550:\n        /* \"#utility.yul\":15770:15980   */\n      swap3\n      swap2\n      pop\n      pop\n      jump\t// out\n        /* \"#utility.yul\":15986:16405   */\n    tag_277:\n        /* \"#utility.yul\":16152:16156   */\n      0x00\n        /* \"#utility.yul\":16190:16192   */\n      0x20\n        /* \"#utility.yul\":16179:16188   */\n      dup3\n        /* \"#utility.yul\":16175:16193   */\n      add\n        /* \"#utility.yul\":16167:16193   */\n      swap1\n      pop\n        /* \"#utility.yul\":16239:16248   */\n      dup2\n        /* \"#utility.yul\":16233:16237   */\n      dup2\n        /* \"#utility.yul\":16229:16249   */\n      sub\n        /* \"#utility.yul\":16225:16226   */\n      0x00\n        /* \"#utility.yul\":16214:16223   */\n      dup4\n        /* \"#utility.yul\":16210:16227   */\n      add\n        /* \"#utility.yul\":16203:16250   */\n      mstore\n        /* \"#utility.yul\":16267:16398   */\n      tag_552\n        /* \"#utility.yul\":16393:16397   */\n      dup2\n        /* \"#utility.yul\":16267:16398   */\n      tag_479\n      jump\t// in\n    tag_552:\n        /* \"#utility.yul\":16259:16398   */\n      swap1\n      pop\n        /* \"#utility.yul\":15986:16405   */\n      swap2\n      swap1\n      pop\n      jump\t// out\n        /* \"#utility.yul\":16411:16830   */\n    tag_187:\n        /* \"#utility.yul\":16577:16581   */\n      0x00\n        /* \"#utility.yul\":16615:16617   */\n      0x20\n        /* \"#utility.yul\":16604:16613   */\n      dup3\n        /* \"#utility.yul\":16600:16618   */\n      add\n        /* \"#utility.yul\":16592:16618   */\n      swap1\n      pop\n        /* \"#utility.yul\":16664:16673   */\n      dup2\n        /* \"#utility.yul\":16658:16662   */\n      dup2\n        /* \"#utility.yul\":16654:16674   */\n      sub\n        /* \"#utility.yul\":16650:16651   */\n      0x00\n        /* \"#utility.yul\":16639:16648   */\n      dup4\n        /* \"#utility.yul\":16635:16652   */\n      add\n        /* \"#utility.yul\":16628:16675   */\n      mstore\n        /* \"#utility.yul\":16692:16823   */\n      tag_554\n        /* \"#utility.yul\":16818:16822   */\n      dup2\n        /* \"#utility.yul\":16692:16823   */\n      tag_485\n      jump\t// in\n    tag_554:\n        /* \"#utility.yul\":16684:16823   */\n      swap1\n      pop\n        /* \"#utility.yul\":16411:16830   */\n      swap2\n      swap1\n      pop\n      jump\t// out\n        /* \"#utility.yul\":16836:17255   */\n    tag_356:\n        /* \"#utility.yul\":17002:17006   */\n      0x00\n        /* \"#utility.yul\":17040:17042   */\n      0x20\n        /* \"#utility.yul\":17029:17038   */\n      dup3\n        /* \"#utility.yul\":17025:17043   */\n      add\n        /* \"#utility.yul\":17017:17043   */\n      swap1\n      pop\n        /* \"#utility.yul\":17089:17098   */\n      dup2\n        /* \"#utility.yul\":17083:17087   */\n      dup2\n        /* \"#utility.yul\":17079:17099   */\n      sub\n        /* \"#utility.yul\":17075:17076   */\n      0x00\n        /* \"#utility.yul\":17064:17073   */\n      dup4\n        /* \"#utility.yul\":17060:17077   */\n      add\n        /* \"#utility.yul\":17053:17100   */\n      mstore\n        /* \"#utility.yul\":17117:17248   */\n      tag_556\n        /* \"#utility.yul\":17243:17247   */\n      dup2\n        /* \"#utility.yul\":17117:17248   */\n      tag_490\n      jump\t// in\n    tag_556:\n        /* \"#utility.yul\":17109:17248   */\n      swap1\n      pop\n        /* \"#utility.yul\":16836:17255   */\n      swap2\n      swap1\n      pop\n      jump\t// out\n        /* \"#utility.yul\":17261:17680   */\n    tag_102:\n        /* \"#utility.yul\":17427:17431   */\n      0x00\n        /* \"#utility.yul\":17465:17467   */\n      0x20\n        /* \"#utility.yul\":17454:17463   */\n      dup3\n        /* \"#utility.yul\":17450:17468   */\n      add\n        /* \"#utility.yul\":17442:17468   */\n      swap1\n      pop\n        /* \"#utility.yul\":17514:17523   */\n      dup2\n        /* \"#utility.yul\":17508:17512   */\n      dup2\n        /* \"#utility.yul\":17504:17524   */\n      sub\n        /* \"#utility.yul\":17500:17501   */\n      0x00\n        /* \"#utility.yul\":17489:17498   */\n      dup4\n        /* \"#utility.yul\":17485:17502   */\n      add\n        /* \"#utility.yul\":17478:17525   */\n      mstore\n        /* \"#utility.yul\":17542:17673   */\n      tag_558\n        /* \"#utility.yul\":17668:17672   */\n      dup2\n        /* \"#utility.yul\":17542:17673   */\n      tag_495\n      jump\t// in\n    tag_558:\n        /* \"#utility.yul\":17534:17673   */\n      swap1\n      pop\n        /* \"#utility.yul\":17261:17680   */\n      swap2\n      swap1\n      pop\n      jump\t// out\n        /* \"#utility.yul\":17686:18105   */\n    tag_111:\n        /* \"#utility.yul\":17852:17856   */\n      0x00\n        /* \"#utility.yul\":17890:17892   */\n      0x20\n        /* \"#utility.yul\":17879:17888   */\n      dup3\n        /* \"#utility.yul\":17875:17893   */\n      add\n        /* \"#utility.yul\":17867:17893   */\n      swap1\n      pop\n        /* \"#utility.yul\":17939:17948   */\n      dup2\n        /* \"#utility.yul\":17933:17937   */\n      dup2\n        /* \"#utility.yul\":17929:17949   */\n      sub\n        /* \"#utility.yul\":17925:17926   */\n      0x00\n        /* \"#utility.yul\":17914:17923   */\n      dup4\n        /* \"#utility.yul\":17910:17927   */\n      add\n        /* \"#utility.yul\":17903:17950   */\n      mstore\n        /* \"#utility.yul\":17967:18098   */\n      tag_560\n        /* \"#utility.yul\":18093:18097   */\n      dup2\n        /* \"#utility.yul\":17967:18098   */\n      tag_500\n      jump\t// in\n    tag_560:\n        /* \"#utility.yul\":17959:18098   */\n      swap1\n      pop\n        /* \"#utility.yul\":17686:18105   */\n      swap2\n      swap1\n      pop\n      jump\t// out\n        /* \"#utility.yul\":18111:18530   */\n    tag_274:\n        /* \"#utility.yul\":18277:18281   */\n      0x00\n        /* \"#utility.yul\":18315:18317   */\n      0x20\n        /* \"#utility.yul\":18304:18313   */\n      dup3\n        /* \"#utility.yul\":18300:18318   */\n      add\n        /* \"#utility.yul\":18292:18318   */\n      swap1\n      pop\n        /* \"#utility.yul\":18364:18373   */\n      dup2\n        /* \"#utility.yul\":18358:18362   */\n      dup2\n        /* \"#utility.yul\":18354:18374   */\n      sub\n        /* \"#utility.yul\":18350:18351   */\n      0x00\n        /* \"#utility.yul\":18339:18348   */\n      dup4\n        /* \"#utility.yul\":18335:18352   */\n      add\n        /* \"#utility.yul\":18328:18375   */\n      mstore\n        /* \"#utility.yul\":18392:18523   */\n      tag_562\n        /* \"#utility.yul\":18518:18522   */\n      dup2\n        /* \"#utility.yul\":18392:18523   */\n      tag_505\n      jump\t// in\n    tag_562:\n        /* \"#utility.yul\":18384:18523   */\n      swap1\n      pop\n        /* \"#utility.yul\":18111:18530   */\n      swap2\n      swap1\n      pop\n      jump\t// out\n        /* \"#utility.yul\":18536:18955   */\n    tag_165:\n        /* \"#utility.yul\":18702:18706   */\n      0x00\n        /* \"#utility.yul\":18740:18742   */\n      0x20\n        /* \"#utility.yul\":18729:18738   */\n      dup3\n        /* \"#utility.yul\":18725:18743   */\n      add\n        /* \"#utility.yul\":18717:18743   */\n      swap1\n      pop\n        /* \"#utility.yul\":18789:18798   */\n      dup2\n        /* \"#utility.yul\":18783:18787   */\n      dup2\n        /* \"#utility.yul\":18779:18799   */\n      sub\n        /* \"#utility.yul\":18775:18776   */\n      0x00\n        /* \"#utility.yul\":18764:18773   */\n      dup4\n        /* \"#utility.yul\":18760:18777   */\n      add\n        /* \"#utility.yul\":18753:18800   */\n      mstore\n        /* \"#utility.yul\":18817:18948   */\n      tag_564\n        /* \"#utility.yul\":18943:18947   */\n      dup2\n        /* \"#utility.yul\":18817:18948   */\n      tag_510\n      jump\t// in\n    tag_564:\n        /* \"#utility.yul\":18809:18948   */\n      swap1\n      pop\n        /* \"#utility.yul\":18536:18955   */\n      swap2\n      swap1\n      pop\n      jump\t// out\n        /* \"#utility.yul\":18961:19380   */\n    tag_99:\n        /* \"#utility.yul\":19127:19131   */\n      0x00\n        /* \"#utility.yul\":19165:19167   */\n      0x20\n        /* \"#utility.yul\":19154:19163   */\n      dup3\n        /* \"#utility.yul\":19150:19168   */\n      add\n        /* \"#utility.yul\":19142:19168   */\n      swap1\n      pop\n        /* \"#utility.yul\":19214:19223   */\n      dup2\n        /* \"#utility.yul\":19208:19212   */\n      dup2\n        /* \"#utility.yul\":19204:19224   */\n      sub\n        /* \"#utility.yul\":19200:19201   */\n      0x00\n        /* \"#utility.yul\":19189:19198   */\n      dup4\n        /* \"#utility.yul\":19185:19202   */\n      add\n        /* \"#utility.yul\":19178:19225   */\n      mstore\n        /* \"#utility.yul\":19242:19373   */\n      tag_566\n        /* \"#utility.yul\":19368:19372   */\n      dup2\n        /* \"#utility.yul\":19242:19373   */\n      tag_521\n      jump\t// in\n    tag_566:\n        /* \"#utility.yul\":19234:19373   */\n      swap1\n      pop\n        /* \"#utility.yul\":18961:19380   */\n      swap2\n      swap1\n      pop\n      jump\t// out\n        /* \"#utility.yul\":19386:19805   */\n    tag_178:\n        /* \"#utility.yul\":19552:19556   */\n      0x00\n        /* \"#utility.yul\":19590:19592   */\n      0x20\n        /* \"#utility.yul\":19579:19588   */\n      dup3\n        /* \"#utility.yul\":19575:19593   */\n      add\n        /* \"#utility.yul\":19567:19593   */\n      swap1\n      pop\n        /* \"#utility.yul\":19639:19648   */\n      dup2\n        /* \"#utility.yul\":19633:19637   */\n      dup2\n        /* \"#utility.yul\":19629:19649   */\n      sub\n        /* \"#utility.yul\":19625:19626   */\n      0x00\n        /* \"#utility.yul\":19614:19623   */\n      dup4\n        /* \"#utility.yul\":19610:19627   */\n      add\n        /* \"#utility.yul\":19603:19650   */\n      mstore\n        /* \"#utility.yul\":19667:19798   */\n      tag_568\n        /* \"#utility.yul\":19793:19797   */\n      dup2\n        /* \"#utility.yul\":19667:19798   */\n      tag_526\n      jump\t// in\n    tag_568:\n        /* \"#utility.yul\":19659:19798   */\n      swap1\n      pop\n        /* \"#utility.yul\":19386:19805   */\n      swap2\n      swap1\n      pop\n      jump\t// out\n        /* \"#utility.yul\":19811:20033   */\n    tag_59:\n        /* \"#utility.yul\":19904:19908   */\n      0x00\n        /* \"#utility.yul\":19942:19944   */\n      0x20\n        /* \"#utility.yul\":19931:19940   */\n      dup3\n        /* \"#utility.yul\":19927:19945   */\n      add\n        /* \"#utility.yul\":19919:19945   */\n      swap1\n      pop\n        /* \"#utility.yul\":19955:20026   */\n      tag_570\n        /* \"#utility.yul\":20023:20024   */\n      0x00\n        /* \"#utility.yul\":20012:20021   */\n      dup4\n        /* \"#utility.yul\":20008:20025   */\n      add\n        /* \"#utility.yul\":19999:20005   */\n      dup5\n        /* \"#utility.yul\":19955:20026   */\n      tag_531\n      jump\t// in\n    tag_570:\n        /* \"#utility.yul\":19811:20033   */\n      swap3\n      swap2\n      pop\n      pop\n      jump\t// out\n        /* \"#utility.yul\":20039:20802   */\n    tag_26:\n        /* \"#utility.yul\":20266:20270   */\n      0x00\n        /* \"#utility.yul\":20304:20307   */\n      0xc0\n        /* \"#utility.yul\":20293:20302   */\n      dup3\n        /* \"#utility.yul\":20289:20308   */\n      add\n        /* \"#utility.yul\":20281:20308   */\n      swap1\n      pop\n        /* \"#utility.yul\":20318:20389   */\n      tag_572\n        /* \"#utility.yul\":20386:20387   */\n      0x00\n        /* \"#utility.yul\":20375:20384   */\n      dup4\n        /* \"#utility.yul\":20371:20388   */\n      add\n        /* \"#utility.yul\":20362:20368   */\n      dup10\n        /* \"#utility.yul\":20318:20389   */\n      tag_531\n      jump\t// in\n    tag_572:\n        /* \"#utility.yul\":20399:20471   */\n      tag_573\n        /* \"#utility.yul\":20467:20469   */\n      0x20\n        /* \"#utility.yul\":20456:20465   */\n      dup4\n        /* \"#utility.yul\":20452:20470   */\n      add\n        /* \"#utility.yul\":20443:20449   */\n      dup9\n        /* \"#utility.yul\":20399:20471   */\n      tag_471\n      jump\t// in\n    tag_573:\n        /* \"#utility.yul\":20481:20553   */\n      tag_574\n        /* \"#utility.yul\":20549:20551   */\n      0x40\n        /* \"#utility.yul\":20538:20547   */\n      dup4\n        /* \"#utility.yul\":20534:20552   */\n      add\n        /* \"#utility.yul\":20525:20531   */\n      dup8\n        /* \"#utility.yul\":20481:20553   */\n      tag_471\n      jump\t// in\n    tag_574:\n        /* \"#utility.yul\":20563:20629   */\n      tag_575\n        /* \"#utility.yul\":20625:20627   */\n      0x60\n        /* \"#utility.yul\":20614:20623   */\n      dup4\n        /* \"#utility.yul\":20610:20628   */\n      add\n        /* \"#utility.yul\":20601:20607   */\n      dup7\n        /* \"#utility.yul\":20563:20629   */\n      tag_475\n      jump\t// in\n    tag_575:\n        /* \"#utility.yul\":20639:20712   */\n      tag_576\n        /* \"#utility.yul\":20707:20710   */\n      0x80\n        /* \"#utility.yul\":20696:20705   */\n      dup4\n        /* \"#utility.yul\":20692:20711   */\n      add\n        /* \"#utility.yul\":20683:20689   */\n      dup6\n        /* \"#utility.yul\":20639:20712   */\n      tag_531\n      jump\t// in\n    tag_576:\n        /* \"#utility.yul\":20722:20795   */\n      tag_577\n        /* \"#utility.yul\":20790:20793   */\n      0xa0\n        /* \"#utility.yul\":20779:20788   */\n      dup4\n        /* \"#utility.yul\":20775:20794   */\n      add\n        /* \"#utility.yul\":20766:20772   */\n      dup5\n        /* \"#utility.yul\":20722:20795   */\n      tag_531\n      jump\t// in\n    tag_577:\n        /* \"#utility.yul\":20039:20802   */\n      swap8\n      swap7\n      pop\n      pop\n      pop\n      pop\n      pop\n      pop\n      pop\n      jump\t// out\n        /* \"#utility.yul\":20889:21057   */\n    tag_518:\n        /* \"#utility.yul\":20972:20983   */\n      0x00\n        /* \"#utility.yul\":21006:21012   */\n      dup3\n        /* \"#utility.yul\":21001:21004   */\n      dup3\n        /* \"#utility.yul\":20994:21013   */\n      mstore\n        /* \"#utility.yul\":21046:21050   */\n      0x20\n        /* \"#utility.yul\":21041:21044   */\n      dup3\n        /* \"#utility.yul\":21037:21051   */\n      add\n        /* \"#utility.yul\":21022:21051   */\n      swap1\n      pop\n        /* \"#utility.yul\":20889:21057   */\n      swap3\n      swap2\n      pop\n      pop\n      jump\t// out\n        /* \"#utility.yul\":21063:21232   */\n    tag_482:\n        /* \"#utility.yul\":21147:21158   */\n      0x00\n        /* \"#utility.yul\":21181:21187   */\n      dup3\n        /* \"#utility.yul\":21176:21179   */\n      dup3\n        /* \"#utility.yul\":21169:21188   */\n      mstore\n        /* \"#utility.yul\":21221:21225   */\n      0x20\n        /* \"#utility.yul\":21216:21219   */\n      dup3\n        /* \"#utility.yul\":21212:21226   */\n      add\n        /* \"#utility.yul\":21197:21226   */\n      swap1\n      pop\n        /* \"#utility.yul\":21063:21232   */\n      swap3\n      swap2\n      pop\n      pop\n      jump\t// out\n        /* \"#utility.yul\":21238:21543   */\n    tag_154:\n        /* \"#utility.yul\":21278:21281   */\n      0x00\n        /* \"#utility.yul\":21297:21317   */\n      tag_583\n        /* \"#utility.yul\":21315:21316   */\n      dup3\n        /* \"#utility.yul\":21297:21317   */\n      tag_534\n      jump\t// in\n    tag_583:\n        /* \"#utility.yul\":21292:21317   */\n      swap2\n      pop\n        /* \"#utility.yul\":21331:21351   */\n      tag_584\n        /* \"#utility.yul\":21349:21350   */\n      dup4\n        /* \"#utility.yul\":21331:21351   */\n      tag_534\n      jump\t// in\n    tag_584:\n        /* \"#utility.yul\":21326:21351   */\n      swap3\n      pop\n        /* \"#utility.yul\":21485:21486   */\n      dup3\n        /* \"#utility.yul\":21417:21483   */\n      0xffffffffffffffffffffffffffffffffffffffffffffffffffffffffffffffff\n        /* \"#utility.yul\":21413:21487   */\n      sub\n        /* \"#utility.yul\":21410:21411   */\n      dup3\n        /* \"#utility.yul\":21407:21488   */\n      gt\n        /* \"#utility.yul\":21404:21511   */\n      iszero\n      tag_585\n      jumpi\n        /* \"#utility.yul\":21491:21509   */\n      tag_586\n      tag_587\n      jump\t// in\n    tag_586:\n        /* \"#utility.yul\":21404:21511   */\n    tag_585:\n        /* \"#utility.yul\":21535:21536   */\n      dup3\n        /* \"#utility.yul\":21532:21533   */\n      dup3\n        /* \"#utility.yul\":21528:21537   */\n      add\n        /* \"#utility.yul\":21521:21537   */\n      swap1\n      pop\n        /* \"#utility.yul\":21238:21543   */\n      swap3\n      swap2\n      pop\n      pop\n      jump\t// out\n        /* \"#utility.yul\":21549:21734   */\n    tag_113:\n        /* \"#utility.yul\":21589:21590   */\n      0x00\n        /* \"#utility.yul\":21606:21626   */\n      tag_589\n        /* \"#utility.yul\":21624:21625   */\n      dup3\n        /* \"#utility.yul\":21606:21626   */\n      tag_534\n      jump\t// in\n    tag_589:\n        /* \"#utility.yul\":21601:21626   */\n      swap2\n      pop\n        /* \"#utility.yul\":21640:21660   */\n      tag_590\n        /* \"#utility.yul\":21658:21659   */\n      dup4\n        /* \"#utility.yul\":21640:21660   */\n      tag_534\n      jump\t// in\n    tag_590:\n        /* \"#utility.yul\":21635:21660   */\n      swap3\n      pop\n        /* \"#utility.yul\":21679:21680   */\n      dup3\n        /* \"#utility.yul\":21669:21704   */\n      tag_591\n      jumpi\n        /* \"#utility.yul\":21684:21702   */\n      tag_592\n      tag_593\n      jump\t// in\n    tag_592:\n        /* \"#utility.yul\":21669:21704   */\n    tag_591:\n        /* \"#utility.yul\":21726:21727   */\n      dup3\n        /* \"#utility.yul\":21723:21724   */\n      dup3\n        /* \"#utility.yul\":21719:21728   */\n      div\n        /* \"#utility.yul\":21714:21728   */\n      swap1\n      pop\n        /* \"#utility.yul\":21549:21734   */\n      swap3\n      swap2\n      pop\n      pop\n      jump\t// out\n        /* \"#utility.yul\":21740:21931   */\n    tag_115:\n        /* \"#utility.yul\":21780:21784   */\n      0x00\n        /* \"#utility.yul\":21800:21820   */\n      tag_595\n        /* \"#utility.yul\":21818:21819   */\n      dup3\n        /* \"#utility.yul\":21800:21820   */\n      tag_534\n      jump\t// in\n    tag_595:\n        /* \"#utility.yul\":21795:21820   */\n      swap2\n      pop\n        /* \"#utility.yul\":21834:21854   */\n      tag_596\n        /* \"#utility.yul\":21852:21853   */\n      dup4\n        /* \"#utility.yul\":21834:21854   */\n      tag_534\n      jump\t// in\n    tag_596:\n        /* \"#utility.yul\":21829:21854   */\n      swap3\n      pop\n        /* \"#utility.yul\":21873:21874   */\n      dup3\n        /* \"#utility.yul\":21870:21871   */\n      dup3\n        /* \"#utility.yul\":21867:21875   */\n      lt\n        /* \"#utility.yul\":21864:21898   */\n      iszero\n      tag_597\n      jumpi\n        /* \"#utility.yul\":21878:21896   */\n      tag_598\n      tag_587\n      jump\t// in\n    tag_598:\n        /* \"#utility.yul\":21864:21898   */\n    tag_597:\n        /* \"#utility.yul\":21923:21924   */\n      dup3\n        /* \"#utility.yul\":21920:21921   */\n      dup3\n        /* \"#utility.yul\":21916:21925   */\n      sub\n        /* \"#utility.yul\":21908:21925   */\n      swap1\n      pop\n        /* \"#utility.yul\":21740:21931   */\n      swap3\n      swap2\n      pop\n      pop\n      jump\t// out\n        /* \"#utility.yul\":21937:22033   */\n    tag_474:\n        /* \"#utility.yul\":21974:21981   */\n      0x00\n        /* \"#utility.yul\":22003:22027   */\n      tag_600\n        /* \"#utility.yul\":22021:22026   */\n      dup3\n        /* \"#utility.yul\":22003:22027   */\n      tag_601\n      jump\t// in\n    tag_600:\n        /* \"#utility.yul\":21992:22027   */\n      swap1\n      pop\n        /* \"#utility.yul\":21937:22033   */\n      swap2\n      swap1\n      pop\n      jump\t// out\n        /* \"#utility.yul\":22039:22129   */\n    tag_478:\n        /* \"#utility.yul\":22073:22080   */\n      0x00\n        /* \"#utility.yul\":22116:22121   */\n      dup2\n        /* \"#utility.yul\":22109:22122   */\n      iszero\n        /* \"#utility.yul\":22102:22123   */\n      iszero\n        /* \"#utility.yul\":22091:22123   */\n      swap1\n      pop\n        /* \"#utility.yul\":22039:22129   */\n      swap2\n      swap1\n      pop\n      jump\t// out\n        /* \"#utility.yul\":22135:22261   */\n    tag_601:\n        /* \"#utility.yul\":22172:22179   */\n      0x00\n        /* \"#utility.yul\":22212:22254   */\n      0xffffffffffffffffffffffffffffffffffffffff\n        /* \"#utility.yul\":22205:22210   */\n      dup3\n        /* \"#utility.yul\":22201:22255   */\n      and\n        /* \"#utility.yul\":22190:22255   */\n      swap1\n      pop\n        /* \"#utility.yul\":22135:22261   */\n      swap2\n      swap1\n      pop\n      jump\t// out\n        /* \"#utility.yul\":22267:22344   */\n    tag_534:\n        /* \"#utility.yul\":22304:22311   */\n      0x00\n        /* \"#utility.yul\":22333:22338   */\n      dup2\n        /* \"#utility.yul\":22322:22338   */\n      swap1\n      pop\n        /* \"#utility.yul\":22267:22344   */\n      swap2\n      swap1\n      pop\n      jump\t// out\n        /* \"#utility.yul\":22350:22583   */\n    tag_146:\n        /* \"#utility.yul\":22389:22392   */\n      0x00\n        /* \"#utility.yul\":22412:22436   */\n      tag_606\n        /* \"#utility.yul\":22430:22435   */\n      dup3\n        /* \"#utility.yul\":22412:22436   */\n      tag_534\n      jump\t// in\n    tag_606:\n        /* \"#utility.yul\":22403:22436   */\n      swap2\n      pop\n        /* \"#utility.yul\":22458:22524   */\n      0xffffffffffffffffffffffffffffffffffffffffffffffffffffffffffffffff\n        /* \"#utility.yul\":22451:22456   */\n      dup3\n        /* \"#utility.yul\":22448:22525   */\n      eq\n        /* \"#utility.yul\":22445:22548   */\n      iszero\n      tag_607\n      jumpi\n        /* \"#utility.yul\":22528:22546   */\n      tag_608\n      tag_587\n      jump\t// in\n    tag_608:\n        /* \"#utility.yul\":22445:22548   */\n    tag_607:\n        /* \"#utility.yul\":22575:22576   */\n      0x01\n        /* \"#utility.yul\":22568:22573   */\n      dup3\n        /* \"#utility.yul\":22564:22577   */\n      add\n        /* \"#utility.yul\":22557:22577   */\n      swap1\n      pop\n        /* \"#utility.yul\":22350:22583   */\n      swap2\n      swap1\n      pop\n      jump\t// out\n        /* \"#utility.yul\":22589:22769   */\n    tag_587:\n        /* \"#utility.yul\":22637:22714   */\n      0x4e487b7100000000000000000000000000000000000000000000000000000000\n        /* \"#utility.yul\":22634:22635   */\n      0x00\n        /* \"#utility.yul\":22627:22715   */\n      mstore\n        /* \"#utility.yul\":22734:22738   */\n      0x11\n        /* \"#utility.yul\":22731:22732   */\n      0x04\n        /* \"#utility.yul\":22724:22739   */\n      mstore\n        /* \"#utility.yul\":22758:22762   */\n      0x24\n        /* \"#utility.yul\":22755:22756   */\n      0x00\n        /* \"#utility.yul\":22748:22763   */\n      revert\n        /* \"#utility.yul\":22775:22955   */\n    tag_593:\n        /* \"#utility.yul\":22823:22900   */\n      0x4e487b7100000000000000000000000000000000000000000000000000000000\n        /* \"#utility.yul\":22820:22821   */\n      0x00\n        /* \"#utility.yul\":22813:22901   */\n      mstore\n        /* \"#utility.yul\":22920:22924   */\n      0x12\n        /* \"#utility.yul\":22917:22918   */\n      0x04\n        /* \"#utility.yul\":22910:22925   */\n      mstore\n        /* \"#utility.yul\":22944:22948   */\n      0x24\n        /* \"#utility.yul\":22941:22942   */\n      0x00\n        /* \"#utility.yul\":22934:22949   */\n      revert\n        /* \"#utility.yul\":22961:23141   */\n    tag_228:\n        /* \"#utility.yul\":23009:23086   */\n      0x4e487b7100000000000000000000000000000000000000000000000000000000\n        /* \"#utility.yul\":23006:23007   */\n      0x00\n        /* \"#utility.yul\":22999:23087   */\n      mstore\n        /* \"#utility.yul\":23106:23110   */\n      0x32\n        /* \"#utility.yul\":23103:23104   */\n      0x04\n        /* \"#utility.yul\":23096:23111   */\n      mstore\n        /* \"#utility.yul\":23130:23134   */\n      0x24\n        /* \"#utility.yul\":23127:23128   */\n      0x00\n        /* \"#utility.yul\":23120:23135   */\n      revert\n        /* \"#utility.yul\":23147:23264   */\n    tag_375:\n        /* \"#utility.yul\":23256:23257   */\n      0x00\n        /* \"#utility.yul\":23253:23254   */\n      dup1\n        /* \"#utility.yul\":23246:23258   */\n      revert\n        /* \"#utility.yul\":23270:23387   */\n    tag_372:\n        /* \"#utility.yul\":23379:23380   */\n      0x00\n        /* \"#utility.yul\":23376:23377   */\n      dup1\n        /* \"#utility.yul\":23369:23381   */\n      revert\n        /* \"#utility.yul\":23393:23510   */\n    tag_378:\n        /* \"#utility.yul\":23502:23503   */\n      0x00\n        /* \"#utility.yul\":23499:23500   */\n      dup1\n        /* \"#utility.yul\":23492:23504   */\n      revert\n        /* \"#utility.yul\":23516:23633   */\n    tag_406:\n        /* \"#utility.yul\":23625:23626   */\n      0x00\n        /* \"#utility.yul\":23622:23623   */\n      dup1\n        /* \"#utility.yul\":23615:23627   */\n      revert\n        /* \"#utility.yul\":23639:23756   */\n    tag_393:\n        /* \"#utility.yul\":23748:23749   */\n      0x00\n        /* \"#utility.yul\":23745:23746   */\n      dup1\n        /* \"#utility.yul\":23738:23750   */\n      revert\n        /* \"#utility.yul\":23762:23936   */\n    tag_484:\n        /* \"#utility.yul\":23902:23928   */\n      0x54686973204e4654206973206e6f74206c697374696e672e0000000000000000\n        /* \"#utility.yul\":23898:23899   */\n      0x00\n        /* \"#utility.yul\":23890:23896   */\n      dup3\n        /* \"#utility.yul\":23886:23900   */\n      add\n        /* \"#utility.yul\":23879:23929   */\n      mstore\n        /* \"#utility.yul\":23762:23936   */\n      pop\n      jump\t// out\n        /* \"#utility.yul\":23942:24118   */\n    tag_489:\n        /* \"#utility.yul\":24082:24110   */\n      0x436f6e7472616374206d75737420626520617070726f7665642e000000000000\n        /* \"#utility.yul\":24078:24079   */\n      0x00\n        /* \"#utility.yul\":24070:24076   */\n      dup3\n        /* \"#utility.yul\":24066:24080   */\n      add\n        /* \"#utility.yul\":24059:24111   */\n      mstore\n        /* \"#utility.yul\":23942:24118   */\n      pop\n      jump\t// out\n        /* \"#utility.yul\":24124:24349   */\n    tag_494:\n        /* \"#utility.yul\":24264:24298   */\n      0x4f776e61626c653a206e6577206f776e657220697320746865207a65726f2061\n        /* \"#utility.yul\":24260:24261   */\n      0x00\n        /* \"#utility.yul\":24252:24258   */\n      dup3\n        /* \"#utility.yul\":24248:24262   */\n      add\n        /* \"#utility.yul\":24241:24299   */\n      mstore\n        /* \"#utility.yul\":24333:24341   */\n      0x6464726573730000000000000000000000000000000000000000000000000000\n        /* \"#utility.yul\":24328:24330   */\n      0x20\n        /* \"#utility.yul\":24320:24326   */\n      dup3\n        /* \"#utility.yul\":24316:24331   */\n      add\n        /* \"#utility.yul\":24309:24342   */\n      mstore\n        /* \"#utility.yul\":24124:24349   */\n      pop\n      jump\t// out\n        /* \"#utility.yul\":24355:24523   */\n    tag_499:\n        /* \"#utility.yul\":24495:24515   */\n      0x4275792066726f6d20796f757273656c662e0000000000000000000000000000\n        /* \"#utility.yul\":24491:24492   */\n      0x00\n        /* \"#utility.yul\":24483:24489   */\n      dup3\n        /* \"#utility.yul\":24479:24493   */\n      add\n        /* \"#utility.yul\":24472:24516   */\n      mstore\n        /* \"#utility.yul\":24355:24523   */\n      pop\n      jump\t// out\n        /* \"#utility.yul\":24529:24703   */\n    tag_504:\n        /* \"#utility.yul\":24669:24695   */\n      0x496e73756666696369656e742066756e64732073656e742e0000000000000000\n        /* \"#utility.yul\":24665:24666   */\n      0x00\n        /* \"#utility.yul\":24657:24663   */\n      dup3\n        /* \"#utility.yul\":24653:24667   */\n      add\n        /* \"#utility.yul\":24646:24696   */\n      mstore\n        /* \"#utility.yul\":24529:24703   */\n      pop\n      jump\t// out\n        /* \"#utility.yul\":24709:24872   */\n    tag_509:\n        /* \"#utility.yul\":24849:24864   */\n      0x556e617574686f72697a65642e00000000000000000000000000000000000000\n        /* \"#utility.yul\":24845:24846   */\n      0x00\n        /* \"#utility.yul\":24837:24843   */\n      dup3\n        /* \"#utility.yul\":24833:24847   */\n      add\n        /* \"#utility.yul\":24826:24865   */\n      mstore\n        /* \"#utility.yul\":24709:24872   */\n      pop\n      jump\t// out\n        /* \"#utility.yul\":24878:25060   */\n    tag_514:\n        /* \"#utility.yul\":25018:25052   */\n      0x4f776e61626c653a2063616c6c6572206973206e6f7420746865206f776e6572\n        /* \"#utility.yul\":25014:25015   */\n      0x00\n        /* \"#utility.yul\":25006:25012   */\n      dup3\n        /* \"#utility.yul\":25002:25016   */\n      add\n        /* \"#utility.yul\":24995:25053   */\n      mstore\n        /* \"#utility.yul\":24878:25060   */\n      pop\n      jump\t// out\n        /* \"#utility.yul\":25066:25180   */\n    tag_520:\n      pop\n      jump\t// out\n        /* \"#utility.yul\":25186:25361   */\n    tag_525:\n        /* \"#utility.yul\":25326:25353   */\n      0x54686973204e4654206973206e6f7420666f722073656c6c2e00000000000000\n        /* \"#utility.yul\":25322:25323   */\n      0x00\n        /* \"#utility.yul\":25314:25320   */\n      dup3\n        /* \"#utility.yul\":25310:25324   */\n      add\n        /* \"#utility.yul\":25303:25354   */\n      mstore\n        /* \"#utility.yul\":25186:25361   */\n      pop\n      jump\t// out\n        /* \"#utility.yul\":25367:25537   */\n    tag_530:\n        /* \"#utility.yul\":25507:25529   */\n      0x53656c6c657220686173206e6f20746f6b656e2e000000000000000000000000\n        /* \"#utility.yul\":25503:25504   */\n      0x00\n        /* \"#utility.yul\":25495:25501   */\n      dup3\n        /* \"#utility.yul\":25491:25505   */\n      add\n        /* \"#utility.yul\":25484:25530   */\n      mstore\n        /* \"#utility.yul\":25367:25537   */\n      pop\n      jump\t// out\n        /* \"#utility.yul\":25543:25665   */\n    tag_364:\n        /* \"#utility.yul\":25616:25640   */\n      tag_628\n        /* \"#utility.yul\":25634:25639   */\n      dup2\n        /* \"#utility.yul\":25616:25640   */\n      tag_474\n      jump\t// in\n    tag_628:\n        /* \"#utility.yul\":25609:25614   */\n      dup2\n        /* \"#utility.yul\":25606:25641   */\n      eq\n        /* \"#utility.yul\":25596:25659   */\n      tag_629\n      jumpi\n        /* \"#utility.yul\":25655:25656   */\n      0x00\n        /* \"#utility.yul\":25652:25653   */\n      dup1\n        /* \"#utility.yul\":25645:25657   */\n      revert\n        /* \"#utility.yul\":25596:25659   */\n    tag_629:\n        /* \"#utility.yul\":25543:25665   */\n      pop\n      jump\t// out\n        /* \"#utility.yul\":25671:25787   */\n    tag_382:\n        /* \"#utility.yul\":25741:25762   */\n      tag_631\n        /* \"#utility.yul\":25756:25761   */\n      dup2\n        /* \"#utility.yul\":25741:25762   */\n      tag_478\n      jump\t// in\n    tag_631:\n        /* \"#utility.yul\":25734:25739   */\n      dup2\n        /* \"#utility.yul\":25731:25763   */\n      eq\n        /* \"#utility.yul\":25721:25781   */\n      tag_632\n      jumpi\n        /* \"#utility.yul\":25777:25778   */\n      0x00\n        /* \"#utility.yul\":25774:25775   */\n      dup1\n        /* \"#utility.yul\":25767:25779   */\n      revert\n        /* \"#utility.yul\":25721:25781   */\n    tag_632:\n        /* \"#utility.yul\":25671:25787   */\n      pop\n      jump\t// out\n        /* \"#utility.yul\":25793:25915   */\n    tag_386:\n        /* \"#utility.yul\":25866:25890   */\n      tag_634\n        /* \"#utility.yul\":25884:25889   */\n      dup2\n        /* \"#utility.yul\":25866:25890   */\n      tag_534\n      jump\t// in\n    tag_634:\n        /* \"#utility.yul\":25859:25864   */\n      dup2\n        /* \"#utility.yul\":25856:25891   */\n      eq\n        /* \"#utility.yul\":25846:25909   */\n      tag_635\n      jumpi\n        /* \"#utility.yul\":25905:25906   */\n      0x00\n        /* \"#utility.yul\":25902:25903   */\n      dup1\n        /* \"#utility.yul\":25895:25907   */\n      revert\n        /* \"#utility.yul\":25846:25909   */\n    tag_635:\n        /* \"#utility.yul\":25793:25915   */\n      pop\n      jump\t// out\n\n    auxdata: 0xa2646970667358221220970675568b96a2c673a1aff018959132c69e41540622865d4ff169cae6e4ee6064736f6c63430008070033\n}\n",
				"bytecode": {
					"linkReferences": {},
					"object": "60806040523480156200001157600080fd5b5062000032620000266200003860201b60201c565b6200004060201b60201c565b62000104565b600033905090565b60008060009054906101000a900473ffffffffffffffffffffffffffffffffffffffff169050816000806101000a81548173ffffffffffffffffffffffffffffffffffffffff021916908373ffffffffffffffffffffffffffffffffffffffff1602179055508173ffffffffffffffffffffffffffffffffffffffff168173ffffffffffffffffffffffffffffffffffffffff167f8be0079c531659141344cd1fd0a4f28419497f9722a3daafe3b4186f6b6457e060405160405180910390a35050565b613b4280620001146000396000f3fe6080604052600436106100e75760003560e01c8063715018a61161008a5780638da5cb5b116100595780638da5cb5b146102f3578063b2ddee061461031e578063ed81abad14610347578063f2fde38b14610363576100e7565b8063715018a61461027b57806380abbe57146102925780638111f398146102bb5780638c5b197b146102d7576100e7565b80632973d6f8116100c65780632973d6f8146101a85780632c872cd1146101e55780632f634a9014610201578063449e815d1461023e576100e7565b806207df30146100ec578063031aa9b51461012e578063189ecff11461016b575b600080fd5b3480156100f857600080fd5b50610113600480360381019061010e9190613145565b61038c565b604051610125969594939291906136b8565b60405180910390f35b34801561013a57600080fd5b5061015560048036038101906101509190613145565b610422565b6040516101629190613562565b60405180910390f35b34801561017757600080fd5b50610192600480360381019061018d9190613145565b61048d565b60405161019f919061349d565b60405180910390f35b3480156101b457600080fd5b506101cf60048036038101906101ca9190613212565b61050b565b6040516101dc919061349d565b60405180910390f35b6101ff60048036038101906101fa9190612fd4565b61059b565b005b34801561020d57600080fd5b5061022860048036038101906102239190613145565b610e18565b604051610235919061349d565b60405180910390f35b34801561024a57600080fd5b5061026560048036038101906102609190613145565b610e96565b604051610272919061369d565b60405180910390f35b34801561028757600080fd5b50610290610ef4565b005b34801561029e57600080fd5b506102b960048036038101906102b491906132bf565b610f7c565b005b6102d560048036038101906102d09190613185565b6112af565b005b6102f160048036038101906102ec9190613076565b611979565b005b3480156102ff57600080fd5b506103086120a6565b604051610315919061349d565b60405180910390f35b34801561032a57600080fd5b5061034560048036038101906103409190613145565b6120cf565b005b610361600480360381019061035c9190612ef2565b61235f565b005b34801561036f57600080fd5b5061038a60048036038101906103859190612e98565b612c15565b005b6001602052816000526040600020602052806000526040600020600091509150508060000154908060010160009054906101000a900473ffffffffffffffffffffffffffffffffffffffff16908060020160009054906101000a900473ffffffffffffffffffffffffffffffffffffffff16908060020160149054906101000a900460ff16908060030154908060040154905086565b6000600160008473ffffffffffffffffffffffffffffffffffffffff1673ffffffffffffffffffffffffffffffffffffffff168152602001908152602001600020600083815260200190815260200160002060020160149054906101000a900460ff16905092915050565b6000600160008473ffffffffffffffffffffffffffffffffffffffff1673ffffffffffffffffffffffffffffffffffffffff168152602001908152602001600020600083815260200190815260200160002060010160009054906101000a900473ffffffffffffffffffffffffffffffffffffffff16905092915050565b6000600160008573ffffffffffffffffffffffffffffffffffffffff1673ffffffffffffffffffffffffffffffffffffffff1681526020019081526020016000206000848152602001908152602001600020600501600083815260200190815260200160002060009054906101000a900473ffffffffffffffffffffffffffffffffffffffff1690509392505050565b6000600160008973ffffffffffffffffffffffffffffffffffffffff1673ffffffffffffffffffffffffffffffffffffffff16815260200190815260200160002060008781526020019081526020016000209050600088905060008890508260020160149054906101000a900460ff1661064a576040517f08c379a00000000000000000000000000000000000000000000000000000000081526004016106419061365d565b60405180910390fd5b8260010160009054906101000a900473ffffffffffffffffffffffffffffffffffffffff1673ffffffffffffffffffffffffffffffffffffffff163373ffffffffffffffffffffffffffffffffffffffff1614156106dd576040517f08c379a00000000000000000000000000000000000000000000000000000000081526004016106d4906135dd565b60405180910390fd5b82600001548173ffffffffffffffffffffffffffffffffffffffff166370a08231336040518263ffffffff1660e01b815260040161071b919061349d565b60206040518083038186803b15801561073357600080fd5b505afa158015610747573d6000803e3d6000fd5b505050506040513d601f19601f8201168201806040525081019061076b9190613292565b10156107ac576040517f08c379a00000000000000000000000000000000000000000000000000000000081526004016107a3906135fd565b60405180910390fd5b8073ffffffffffffffffffffffffffffffffffffffff166323b872dd338560010160009054906101000a900473ffffffffffffffffffffffffffffffffffffffff16601487600001546107ff9190613791565b876000015461080e91906137c2565b6040518463ffffffff1660e01b815260040161082c939291906134e1565b602060405180830381600087803b15801561084657600080fd5b505af115801561085a573d6000803e3d6000fd5b505050506040513d601f19601f8201168201806040525081019061087e9190613265565b508073ffffffffffffffffffffffffffffffffffffffff166323b872dd336108a46120a6565b896040518463ffffffff1660e01b81526004016108c3939291906134e1565b602060405180830381600087803b1580156108dd57600080fd5b505af11580156108f1573d6000803e3d6000fd5b505050506040513d601f19601f820116820180604052508101906109159190613265565b50600073ffffffffffffffffffffffffffffffffffffffff168773ffffffffffffffffffffffffffffffffffffffff16146109db578073ffffffffffffffffffffffffffffffffffffffff166323b872dd3389876040518463ffffffff1660e01b8152600401610987939291906134e1565b602060405180830381600087803b1580156109a157600080fd5b505af11580156109b5573d6000803e3d6000fd5b505050506040513d601f19601f820116820180604052508101906109d99190613265565b505b60005b6005811015610b3257600073ffffffffffffffffffffffffffffffffffffffff1684600501600083815260200190815260200160002060009054906101000a900473ffffffffffffffffffffffffffffffffffffffff1673ffffffffffffffffffffffffffffffffffffffff1614610b1a578173ffffffffffffffffffffffffffffffffffffffff166323b872dd3386600501600085815260200190815260200160002060009054906101000a900473ffffffffffffffffffffffffffffffffffffffff16896040518463ffffffff1660e01b8152600401610ac2939291906134e1565b602060405180830381600087803b158015610adc57600080fd5b505af1158015610af0573d6000803e3d6000fd5b505050506040513d601f19601f82011682018060405250810190610b149190613265565b50610b1f565b610b32565b8080610b2a9061383e565b9150506109de565b508173ffffffffffffffffffffffffffffffffffffffff1663b88d4fde8460010160009054906101000a900473ffffffffffffffffffffffffffffffffffffffff16338b6040518463ffffffff1660e01b8152600401610b9493929190613518565b600060405180830381600087803b158015610bae57600080fd5b505af1158015610bc2573d6000803e3d6000fd5b50505050338360020160006101000a81548173ffffffffffffffffffffffffffffffffffffffff021916908373ffffffffffffffffffffffffffffffffffffffff1602179055506003600160008c73ffffffffffffffffffffffffffffffffffffffff1673ffffffffffffffffffffffffffffffffffffffff16815260200190815260200160002060008a81526020019081526020016000206003015411610d01578260010160009054906101000a900473ffffffffffffffffffffffffffffffffffffffff168360050160008560030154815260200190815260200160002060006101000a81548173ffffffffffffffffffffffffffffffffffffffff021916908373ffffffffffffffffffffffffffffffffffffffff1602179055506001836003016000828254610cf5919061373b565b92505081905550610d88565b8260010160009054906101000a900473ffffffffffffffffffffffffffffffffffffffff168360050160008560030154815260200190815260200160002060006101000a81548173ffffffffffffffffffffffffffffffffffffffff021916908373ffffffffffffffffffffffffffffffffffffffff160217905550600083600301819055505b60008360020160146101000a81548160ff0219169083151502179055508260020160149054906101000a900460ff161515883373ffffffffffffffffffffffffffffffffffffffff167fa7cd299f7ebc29460ad99cf3ea75776d7cd038a63a59fa595e86441f8190ef908660000154604051610e04919061369d565b60405180910390a450505050505050505050565b6000600160008473ffffffffffffffffffffffffffffffffffffffff1673ffffffffffffffffffffffffffffffffffffffff168152602001908152602001600020600083815260200190815260200160002060020160009054906101000a900473ffffffffffffffffffffffffffffffffffffffff16905092915050565b6000600160008473ffffffffffffffffffffffffffffffffffffffff1673ffffffffffffffffffffffffffffffffffffffff168152602001908152602001600020600083815260200190815260200160002060000154905092915050565b610efc612d0d565b73ffffffffffffffffffffffffffffffffffffffff16610f1a6120a6565b73ffffffffffffffffffffffffffffffffffffffff1614610f70576040517f08c379a0000000000000000000000000000000000000000000000000000000008152600401610f679061363d565b60405180910390fd5b610f7a6000612d15565b565b60008290506000600160008573ffffffffffffffffffffffffffffffffffffffff1673ffffffffffffffffffffffffffffffffffffffff168152602001908152602001600020600084815260200190815260200160002090503373ffffffffffffffffffffffffffffffffffffffff168273ffffffffffffffffffffffffffffffffffffffff16636352211e856040518263ffffffff1660e01b8152600401611025919061369d565b60206040518083038186803b15801561103d57600080fd5b505afa158015611051573d6000803e3d6000fd5b505050506040513d601f19601f820116820180604052508101906110759190612ec5565b73ffffffffffffffffffffffffffffffffffffffff16146110cb576040517f08c379a00000000000000000000000000000000000000000000000000000000081526004016110c29061367d565b60405180910390fd5b8173ffffffffffffffffffffffffffffffffffffffff1663e985e9c533306040518363ffffffff1660e01b81526004016111069291906134b8565b60206040518083038186803b15801561111e57600080fd5b505afa158015611132573d6000803e3d6000fd5b505050506040513d601f19601f820116820180604052508101906111569190613265565b611195576040517f08c379a000000000000000000000000000000000000000000000000000000000815260040161118c9061359d565b60405180910390fd5b848160000181905550338160010160006101000a81548173ffffffffffffffffffffffffffffffffffffffff021916908373ffffffffffffffffffffffffffffffffffffffff160217905550338160020160006101000a81548173ffffffffffffffffffffffffffffffffffffffff021916908373ffffffffffffffffffffffffffffffffffffffff16021790555060018160020160146101000a81548160ff0219169083151502179055508060020160149054906101000a900460ff161515833373ffffffffffffffffffffffffffffffffffffffff167fa7cd299f7ebc29460ad99cf3ea75776d7cd038a63a59fa595e86441f8190ef9084600001546040516112a0919061369d565b60405180910390a45050505050565b6000600160008873ffffffffffffffffffffffffffffffffffffffff1673ffffffffffffffffffffffffffffffffffffffff1681526020019081526020016000206000878152602001908152602001600020905060008790508160020160149054906101000a900460ff16611359576040517f08c379a00000000000000000000000000000000000000000000000000000000081526004016113509061365d565b60405180910390fd5b8160010160009054906101000a900473ffffffffffffffffffffffffffffffffffffffff1673ffffffffffffffffffffffffffffffffffffffff163373ffffffffffffffffffffffffffffffffffffffff1614156113ec576040517f08c379a00000000000000000000000000000000000000000000000000000000081526004016113e3906135dd565b60405180910390fd5b8160000154341015611433576040517f08c379a000000000000000000000000000000000000000000000000000000000815260040161142a906135fd565b60405180910390fd5b8160010160009054906101000a900473ffffffffffffffffffffffffffffffffffffffff1673ffffffffffffffffffffffffffffffffffffffff166108fc601484600001546114829190613791565b846000015461149191906137c2565b9081150290604051600060405180830381858888f193505050501580156114bc573d6000803e3d6000fd5b506114c56120a6565b73ffffffffffffffffffffffffffffffffffffffff166108fc869081150290604051600060405180830381858888f1935050505015801561150a573d6000803e3d6000fd5b50600073ffffffffffffffffffffffffffffffffffffffff168673ffffffffffffffffffffffffffffffffffffffff1614611587578573ffffffffffffffffffffffffffffffffffffffff166108fc849081150290604051600060405180830381858888f19350505050158015611585573d6000803e3d6000fd5b505b60005b600581101561169557600073ffffffffffffffffffffffffffffffffffffffff1683600501600083815260200190815260200160002060009054906101000a900473ffffffffffffffffffffffffffffffffffffffff1673ffffffffffffffffffffffffffffffffffffffff161461167d5782600501600082815260200190815260200160002060009054906101000a900473ffffffffffffffffffffffffffffffffffffffff1673ffffffffffffffffffffffffffffffffffffffff166108fc869081150290604051600060405180830381858888f19350505050158015611677573d6000803e3d6000fd5b50611682565b611695565b808061168d9061383e565b91505061158a565b508073ffffffffffffffffffffffffffffffffffffffff1663b88d4fde8360010160009054906101000a900473ffffffffffffffffffffffffffffffffffffffff16338a6040518463ffffffff1660e01b81526004016116f793929190613518565b600060405180830381600087803b15801561171157600080fd5b505af1158015611725573d6000803e3d6000fd5b50505050338260020160006101000a81548173ffffffffffffffffffffffffffffffffffffffff021916908373ffffffffffffffffffffffffffffffffffffffff1602179055506003600160008a73ffffffffffffffffffffffffffffffffffffffff1673ffffffffffffffffffffffffffffffffffffffff16815260200190815260200160002060008981526020019081526020016000206003015411611864578160010160009054906101000a900473ffffffffffffffffffffffffffffffffffffffff168260050160008460030154815260200190815260200160002060006101000a81548173ffffffffffffffffffffffffffffffffffffffff021916908373ffffffffffffffffffffffffffffffffffffffff1602179055506001826003016000828254611858919061373b565b925050819055506118eb565b8160010160009054906101000a900473ffffffffffffffffffffffffffffffffffffffff168260050160008460030154815260200190815260200160002060006101000a81548173ffffffffffffffffffffffffffffffffffffffff021916908373ffffffffffffffffffffffffffffffffffffffff160217905550600082600301819055505b60008260020160146101000a81548160ff0219169083151502179055508160020160149054906101000a900460ff161515873373ffffffffffffffffffffffffffffffffffffffff167fa7cd299f7ebc29460ad99cf3ea75776d7cd038a63a59fa595e86441f8190ef908560000154604051611967919061369d565b60405180910390a45050505050505050565b60005b8787905081101561209b576000600160008b73ffffffffffffffffffffffffffffffffffffffff1673ffffffffffffffffffffffffffffffffffffffff16815260200190815260200160002060008a8a858181106119dd576119dc6138e5565b5b905060200201358152602001908152602001600020905060008a90508160020160149054906101000a900460ff16611a4a576040517f08c379a0000000000000000000000000000000000000000000000000000000008152600401611a419061365d565b60405180910390fd5b8160010160009054906101000a900473ffffffffffffffffffffffffffffffffffffffff1673ffffffffffffffffffffffffffffffffffffffff163373ffffffffffffffffffffffffffffffffffffffff161415611add576040517f08c379a0000000000000000000000000000000000000000000000000000000008152600401611ad4906135dd565b60405180910390fd5b8160000154341015611b24576040517f08c379a0000000000000000000000000000000000000000000000000000000008152600401611b1b906135fd565b60405180910390fd5b8160010160009054906101000a900473ffffffffffffffffffffffffffffffffffffffff1673ffffffffffffffffffffffffffffffffffffffff166108fc60148460000154611b739190613791565b8460000154611b8291906137c2565b9081150290604051600060405180830381858888f19350505050158015611bad573d6000803e3d6000fd5b50611bb66120a6565b73ffffffffffffffffffffffffffffffffffffffff166108fc889081150290604051600060405180830381858888f19350505050158015611bfb573d6000803e3d6000fd5b50600073ffffffffffffffffffffffffffffffffffffffff168873ffffffffffffffffffffffffffffffffffffffff1614611c78578773ffffffffffffffffffffffffffffffffffffffff166108fc859081150290604051600060405180830381858888f19350505050158015611c76573d6000803e3d6000fd5b505b60005b6005811015611d9f57600073ffffffffffffffffffffffffffffffffffffffff1683600501600083815260200190815260200160002060009054906101000a900473ffffffffffffffffffffffffffffffffffffffff1673ffffffffffffffffffffffffffffffffffffffff1614611d875782600501600082815260200190815260200160002060009054906101000a900473ffffffffffffffffffffffffffffffffffffffff1673ffffffffffffffffffffffffffffffffffffffff166108fc888887818110611d4f57611d4e6138e5565b5b905060200201359081150290604051600060405180830381858888f19350505050158015611d81573d6000803e3d6000fd5b50611d8c565b611d9f565b8080611d979061383e565b915050611c7b565b508073ffffffffffffffffffffffffffffffffffffffff1663b88d4fde8360010160009054906101000a900473ffffffffffffffffffffffffffffffffffffffff16338d8d88818110611df557611df46138e5565b5b905060200201356040518463ffffffff1660e01b8152600401611e1a93929190613518565b600060405180830381600087803b158015611e3457600080fd5b505af1158015611e48573d6000803e3d6000fd5b50505050338260020160006101000a81548173ffffffffffffffffffffffffffffffffffffffff021916908373ffffffffffffffffffffffffffffffffffffffff160217905550600582600401541015611eb9576001826004016000828254611eb1919061373b565b925050819055505b6003826003015411611f62578160010160009054906101000a900473ffffffffffffffffffffffffffffffffffffffff168260050160008460030154815260200190815260200160002060006101000a81548173ffffffffffffffffffffffffffffffffffffffff021916908373ffffffffffffffffffffffffffffffffffffffff1602179055506001826003016000828254611f56919061373b565b92505081905550611fe9565b8160010160009054906101000a900473ffffffffffffffffffffffffffffffffffffffff168260050160008460030154815260200190815260200160002060006101000a81548173ffffffffffffffffffffffffffffffffffffffff021916908373ffffffffffffffffffffffffffffffffffffffff160217905550600082600301819055505b60008260020160146101000a81548160ff0219169083151502179055508160020160149054906101000a900460ff1615158a8a8581811061202d5761202c6138e5565b5b905060200201353373ffffffffffffffffffffffffffffffffffffffff167fa7cd299f7ebc29460ad99cf3ea75776d7cd038a63a59fa595e86441f8190ef90856000015460405161207e919061369d565b60405180910390a4505080806120939061383e565b91505061197c565b505050505050505050565b60008060009054906101000a900473ffffffffffffffffffffffffffffffffffffffff16905090565b60008290506000600160008573ffffffffffffffffffffffffffffffffffffffff1673ffffffffffffffffffffffffffffffffffffffff168152602001908152602001600020600084815260200190815260200160002090503373ffffffffffffffffffffffffffffffffffffffff168160010160009054906101000a900473ffffffffffffffffffffffffffffffffffffffff1673ffffffffffffffffffffffffffffffffffffffff16146121ba576040517f08c379a00000000000000000000000000000000000000000000000000000000081526004016121b19061361d565b60405180910390fd5b8060020160149054906101000a900460ff1661220b576040517f08c379a00000000000000000000000000000000000000000000000000000000081526004016122029061357d565b60405180910390fd5b8173ffffffffffffffffffffffffffffffffffffffff1663e985e9c533306040518363ffffffff1660e01b81526004016122469291906134b8565b60206040518083038186803b15801561225e57600080fd5b505afa158015612272573d6000803e3d6000fd5b505050506040513d601f19601f820116820180604052508101906122969190613265565b6122d5576040517f08c379a00000000000000000000000000000000000000000000000000000000081526004016122cc9061359d565b60405180910390fd5b60008160020160146101000a81548160ff0219169083151502179055508060020160149054906101000a900460ff161515833373ffffffffffffffffffffffffffffffffffffffff167fa7cd299f7ebc29460ad99cf3ea75776d7cd038a63a59fa595e86441f8190ef908460000154604051612351919061369d565b60405180910390a450505050565b60005b87879050811015612c09576000600160008c73ffffffffffffffffffffffffffffffffffffffff1673ffffffffffffffffffffffffffffffffffffffff16815260200190815260200160002060008a8a858181106123c3576123c26138e5565b5b905060200201358152602001908152602001600020905060008b905060008b90508260020160149054906101000a900460ff16612435576040517f08c379a000000000000000000000000000000000000000000000000000000000815260040161242c9061365d565b60405180910390fd5b8260010160009054906101000a900473ffffffffffffffffffffffffffffffffffffffff1673ffffffffffffffffffffffffffffffffffffffff163373ffffffffffffffffffffffffffffffffffffffff1614156124c8576040517f08c379a00000000000000000000000000000000000000000000000000000000081526004016124bf906135dd565b60405180910390fd5b82600001548173ffffffffffffffffffffffffffffffffffffffff166370a08231336040518263ffffffff1660e01b8152600401612506919061349d565b60206040518083038186803b15801561251e57600080fd5b505afa158015612532573d6000803e3d6000fd5b505050506040513d601f19601f820116820180604052508101906125569190613292565b1015612597576040517f08c379a000000000000000000000000000000000000000000000000000000000815260040161258e906135fd565b60405180910390fd5b8073ffffffffffffffffffffffffffffffffffffffff166323b872dd338560010160009054906101000a900473ffffffffffffffffffffffffffffffffffffffff16601487600001546125ea9190613791565b87600001546125f991906137c2565b6040518463ffffffff1660e01b8152600401612617939291906134e1565b602060405180830381600087803b15801561263157600080fd5b505af1158015612645573d6000803e3d6000fd5b505050506040513d601f19601f820116820180604052508101906126699190613265565b508073ffffffffffffffffffffffffffffffffffffffff166323b872dd3361268f6120a6565b8b6040518463ffffffff1660e01b81526004016126ae939291906134e1565b602060405180830381600087803b1580156126c857600080fd5b505af11580156126dc573d6000803e3d6000fd5b505050506040513d601f19601f820116820180604052508101906127009190613265565b50600073ffffffffffffffffffffffffffffffffffffffff168973ffffffffffffffffffffffffffffffffffffffff16146127c6578073ffffffffffffffffffffffffffffffffffffffff166323b872dd338b886040518463ffffffff1660e01b8152600401612772939291906134e1565b602060405180830381600087803b15801561278c57600080fd5b505af11580156127a0573d6000803e3d6000fd5b505050506040513d601f19601f820116820180604052508101906127c49190613265565b505b60005b600581101561293657600073ffffffffffffffffffffffffffffffffffffffff1684600501600083815260200190815260200160002060009054906101000a900473ffffffffffffffffffffffffffffffffffffffff1673ffffffffffffffffffffffffffffffffffffffff161461291e578173ffffffffffffffffffffffffffffffffffffffff166323b872dd3386600501600085815260200190815260200160002060009054906101000a900473ffffffffffffffffffffffffffffffffffffffff168b8b8a8181106128a1576128a06138e5565b5b905060200201356040518463ffffffff1660e01b81526004016128c6939291906134e1565b602060405180830381600087803b1580156128e057600080fd5b505af11580156128f4573d6000803e3d6000fd5b505050506040513d601f19601f820116820180604052508101906129189190613265565b50612923565b612936565b808061292e9061383e565b9150506127c9565b508173ffffffffffffffffffffffffffffffffffffffff1663b88d4fde8460010160009054906101000a900473ffffffffffffffffffffffffffffffffffffffff16338e8e8981811061298c5761298b6138e5565b5b905060200201356040518463ffffffff1660e01b81526004016129b193929190613518565b600060405180830381600087803b1580156129cb57600080fd5b505af11580156129df573d6000803e3d6000fd5b50505050338360020160006101000a81548173ffffffffffffffffffffffffffffffffffffffff021916908373ffffffffffffffffffffffffffffffffffffffff1602179055506003836003015411612acf578260010160009054906101000a900473ffffffffffffffffffffffffffffffffffffffff168360050160008560030154815260200190815260200160002060006101000a81548173ffffffffffffffffffffffffffffffffffffffff021916908373ffffffffffffffffffffffffffffffffffffffff1602179055506001836003016000828254612ac3919061373b565b92505081905550612b56565b8260010160009054906101000a900473ffffffffffffffffffffffffffffffffffffffff168360050160008560030154815260200190815260200160002060006101000a81548173ffffffffffffffffffffffffffffffffffffffff021916908373ffffffffffffffffffffffffffffffffffffffff160217905550600083600301819055505b60008360020160146101000a81548160ff0219169083151502179055508260020160149054906101000a900460ff1615158b8b86818110612b9a57612b996138e5565b5b905060200201353373ffffffffffffffffffffffffffffffffffffffff167fa7cd299f7ebc29460ad99cf3ea75776d7cd038a63a59fa595e86441f8190ef908660000154604051612beb919061369d565b60405180910390a45050508080612c019061383e565b915050612362565b50505050505050505050565b612c1d612d0d565b73ffffffffffffffffffffffffffffffffffffffff16612c3b6120a6565b73ffffffffffffffffffffffffffffffffffffffff1614612c91576040517f08c379a0000000000000000000000000000000000000000000000000000000008152600401612c889061363d565b60405180910390fd5b600073ffffffffffffffffffffffffffffffffffffffff168173ffffffffffffffffffffffffffffffffffffffff161415612d01576040517f08c379a0000000000000000000000000000000000000000000000000000000008152600401612cf8906135bd565b60405180910390fd5b612d0a81612d15565b50565b600033905090565b60008060009054906101000a900473ffffffffffffffffffffffffffffffffffffffff169050816000806101000a81548173ffffffffffffffffffffffffffffffffffffffff021916908373ffffffffffffffffffffffffffffffffffffffff1602179055508173ffffffffffffffffffffffffffffffffffffffff168173ffffffffffffffffffffffffffffffffffffffff167f8be0079c531659141344cd1fd0a4f28419497f9722a3daafe3b4186f6b6457e060405160405180910390a35050565b600081359050612de881613ac7565b92915050565b600081519050612dfd81613ac7565b92915050565b60008083601f840112612e1957612e18613919565b5b8235905067ffffffffffffffff811115612e3657612e35613914565b5b602083019150836020820283011115612e5257612e5161391e565b5b9250929050565b600081519050612e6881613ade565b92915050565b600081359050612e7d81613af5565b92915050565b600081519050612e9281613af5565b92915050565b600060208284031215612eae57612ead613928565b5b6000612ebc84828501612dd9565b91505092915050565b600060208284031215612edb57612eda613928565b5b6000612ee984828501612dee565b91505092915050565b600080600080600080600080600060e08a8c031215612f1457612f13613928565b5b6000612f228c828d01612dd9565b9950506020612f338c828d01612dd9565b98505060408a013567ffffffffffffffff811115612f5457612f53613923565b5b612f608c828d01612e03565b97509750506060612f738c828d01612dd9565b9550506080612f848c828d01612e6e565b94505060a08a013567ffffffffffffffff811115612fa557612fa4613923565b5b612fb18c828d01612e03565b935093505060c0612fc48c828d01612e6e565b9150509295985092959850929598565b600080600080600080600060e0888a031215612ff357612ff2613928565b5b60006130018a828b01612dd9565b97505060206130128a828b01612dd9565b96505060406130238a828b01612e6e565b95505060606130348a828b01612dd9565b94505060806130458a828b01612e6e565b93505060a06130568a828b01612e6e565b92505060c06130678a828b01612e6e565b91505092959891949750929550565b60008060008060008060008060c0898b03121561309657613095613928565b5b60006130a48b828c01612dd9565b985050602089013567ffffffffffffffff8111156130c5576130c4613923565b5b6130d18b828c01612e03565b975097505060406130e48b828c01612dd9565b95505060606130f58b828c01612e6e565b945050608089013567ffffffffffffffff81111561311657613115613923565b5b6131228b828c01612e03565b935093505060a06131358b828c01612e6e565b9150509295985092959890939650565b6000806040838503121561315c5761315b613928565b5b600061316a85828601612dd9565b925050602061317b85828601612e6e565b9150509250929050565b60008060008060008060c087890312156131a2576131a1613928565b5b60006131b089828a01612dd9565b96505060206131c189828a01612e6e565b95505060406131d289828a01612dd9565b94505060606131e389828a01612e6e565b93505060806131f489828a01612e6e565b92505060a061320589828a01612e6e565b9150509295509295509295565b60008060006060848603121561322b5761322a613928565b5b600061323986828701612dd9565b935050602061324a86828701612e6e565b925050604061325b86828701612e6e565b9150509250925092565b60006020828403121561327b5761327a613928565b5b600061328984828501612e59565b91505092915050565b6000602082840312156132a8576132a7613928565b5b60006132b684828501612e83565b91505092915050565b6000806000606084860312156132d8576132d7613928565b5b60006132e686828701612e6e565b93505060206132f786828701612dd9565b925050604061330886828701612e6e565b9150509250925092565b61331b816137f6565b82525050565b61332a81613808565b82525050565b600061333d60188361372a565b91506133488261392d565b602082019050919050565b6000613360601a8361372a565b915061336b82613956565b602082019050919050565b600061338360268361372a565b915061338e8261397f565b604082019050919050565b60006133a660128361372a565b91506133b1826139ce565b602082019050919050565b60006133c960188361372a565b91506133d4826139f7565b602082019050919050565b60006133ec600d8361372a565b91506133f782613a20565b602082019050919050565b600061340f60208361372a565b915061341a82613a49565b602082019050919050565b6000613432600083613719565b915061343d82613a72565b600082019050919050565b600061345560198361372a565b915061346082613a75565b602082019050919050565b600061347860148361372a565b915061348382613a9e565b602082019050919050565b61349781613834565b82525050565b60006020820190506134b26000830184613312565b92915050565b60006040820190506134cd6000830185613312565b6134da6020830184613312565b9392505050565b60006060820190506134f66000830186613312565b6135036020830185613312565b613510604083018461348e565b949350505050565b600060808201905061352d6000830186613312565b61353a6020830185613312565b613547604083018461348e565b818103606083015261355881613425565b9050949350505050565b60006020820190506135776000830184613321565b92915050565b6000602082019050818103600083015261359681613330565b9050919050565b600060208201905081810360008301526135b681613353565b9050919050565b600060208201905081810360008301526135d681613376565b9050919050565b600060208201905081810360008301526135f681613399565b9050919050565b60006020820190508181036000830152613616816133bc565b9050919050565b60006020820190508181036000830152613636816133df565b9050919050565b6000602082019050818103600083015261365681613402565b9050919050565b6000602082019050818103600083015261367681613448565b9050919050565b600060208201905081810360008301526136968161346b565b9050919050565b60006020820190506136b2600083018461348e565b92915050565b600060c0820190506136cd600083018961348e565b6136da6020830188613312565b6136e76040830187613312565b6136f46060830186613321565b613701608083018561348e565b61370e60a083018461348e565b979650505050505050565b600082825260208201905092915050565b600082825260208201905092915050565b600061374682613834565b915061375183613834565b9250827fffffffffffffffffffffffffffffffffffffffffffffffffffffffffffffffff0382111561378657613785613887565b5b828201905092915050565b600061379c82613834565b91506137a783613834565b9250826137b7576137b66138b6565b5b828204905092915050565b60006137cd82613834565b91506137d883613834565b9250828210156137eb576137ea613887565b5b828203905092915050565b600061380182613814565b9050919050565b60008115159050919050565b600073ffffffffffffffffffffffffffffffffffffffff82169050919050565b6000819050919050565b600061384982613834565b91507fffffffffffffffffffffffffffffffffffffffffffffffffffffffffffffffff82141561387c5761387b613887565b5b600182019050919050565b7f4e487b7100000000000000000000000000000000000000000000000000000000600052601160045260246000fd5b7f4e487b7100000000000000000000000000000000000000000000000000000000600052601260045260246000fd5b7f4e487b7100000000000000000000000000000000000000000000000000000000600052603260045260246000fd5b600080fd5b600080fd5b600080fd5b600080fd5b600080fd5b7f54686973204e4654206973206e6f74206c697374696e672e0000000000000000600082015250565b7f436f6e7472616374206d75737420626520617070726f7665642e000000000000600082015250565b7f4f776e61626c653a206e6577206f776e657220697320746865207a65726f206160008201527f6464726573730000000000000000000000000000000000000000000000000000602082015250565b7f4275792066726f6d20796f757273656c662e0000000000000000000000000000600082015250565b7f496e73756666696369656e742066756e64732073656e742e0000000000000000600082015250565b7f556e617574686f72697a65642e00000000000000000000000000000000000000600082015250565b7f4f776e61626c653a2063616c6c6572206973206e6f7420746865206f776e6572600082015250565b50565b7f54686973204e4654206973206e6f7420666f722073656c6c2e00000000000000600082015250565b7f53656c6c657220686173206e6f20746f6b656e2e000000000000000000000000600082015250565b613ad0816137f6565b8114613adb57600080fd5b50565b613ae781613808565b8114613af257600080fd5b50565b613afe81613834565b8114613b0957600080fd5b5056fea2646970667358221220970675568b96a2c673a1aff018959132c69e41540622865d4ff169cae6e4ee6064736f6c63430008070033",
					"opcodes": "PUSH1 0x80 PUSH1 0x40 MSTORE CALLVALUE DUP1 ISZERO PUSH3 0x11 JUMPI PUSH1 0x0 DUP1 REVERT JUMPDEST POP PUSH3 0x32 PUSH3 0x26 PUSH3 0x38 PUSH1 0x20 SHL PUSH1 0x20 SHR JUMP JUMPDEST PUSH3 0x40 PUSH1 0x20 SHL PUSH1 0x20 SHR JUMP JUMPDEST PUSH3 0x104 JUMP JUMPDEST PUSH1 0x0 CALLER SWAP1 POP SWAP1 JUMP JUMPDEST PUSH1 0x0 DUP1 PUSH1 0x0 SWAP1 SLOAD SWAP1 PUSH2 0x100 EXP SWAP1 DIV PUSH20 0xFFFFFFFFFFFFFFFFFFFFFFFFFFFFFFFFFFFFFFFF AND SWAP1 POP DUP2 PUSH1 0x0 DUP1 PUSH2 0x100 EXP DUP2 SLOAD DUP2 PUSH20 0xFFFFFFFFFFFFFFFFFFFFFFFFFFFFFFFFFFFFFFFF MUL NOT AND SWAP1 DUP4 PUSH20 0xFFFFFFFFFFFFFFFFFFFFFFFFFFFFFFFFFFFFFFFF AND MUL OR SWAP1 SSTORE POP DUP2 PUSH20 0xFFFFFFFFFFFFFFFFFFFFFFFFFFFFFFFFFFFFFFFF AND DUP2 PUSH20 0xFFFFFFFFFFFFFFFFFFFFFFFFFFFFFFFFFFFFFFFF AND PUSH32 0x8BE0079C531659141344CD1FD0A4F28419497F9722A3DAAFE3B4186F6B6457E0 PUSH1 0x40 MLOAD PUSH1 0x40 MLOAD DUP1 SWAP2 SUB SWAP1 LOG3 POP POP JUMP JUMPDEST PUSH2 0x3B42 DUP1 PUSH3 0x114 PUSH1 0x0 CODECOPY PUSH1 0x0 RETURN INVALID PUSH1 0x80 PUSH1 0x40 MSTORE PUSH1 0x4 CALLDATASIZE LT PUSH2 0xE7 JUMPI PUSH1 0x0 CALLDATALOAD PUSH1 0xE0 SHR DUP1 PUSH4 0x715018A6 GT PUSH2 0x8A JUMPI DUP1 PUSH4 0x8DA5CB5B GT PUSH2 0x59 JUMPI DUP1 PUSH4 0x8DA5CB5B EQ PUSH2 0x2F3 JUMPI DUP1 PUSH4 0xB2DDEE06 EQ PUSH2 0x31E JUMPI DUP1 PUSH4 0xED81ABAD EQ PUSH2 0x347 JUMPI DUP1 PUSH4 0xF2FDE38B EQ PUSH2 0x363 JUMPI PUSH2 0xE7 JUMP JUMPDEST DUP1 PUSH4 0x715018A6 EQ PUSH2 0x27B JUMPI DUP1 PUSH4 0x80ABBE57 EQ PUSH2 0x292 JUMPI DUP1 PUSH4 0x8111F398 EQ PUSH2 0x2BB JUMPI DUP1 PUSH4 0x8C5B197B EQ PUSH2 0x2D7 JUMPI PUSH2 0xE7 JUMP JUMPDEST DUP1 PUSH4 0x2973D6F8 GT PUSH2 0xC6 JUMPI DUP1 PUSH4 0x2973D6F8 EQ PUSH2 0x1A8 JUMPI DUP1 PUSH4 0x2C872CD1 EQ PUSH2 0x1E5 JUMPI DUP1 PUSH4 0x2F634A90 EQ PUSH2 0x201 JUMPI DUP1 PUSH4 0x449E815D EQ PUSH2 0x23E JUMPI PUSH2 0xE7 JUMP JUMPDEST DUP1 PUSH3 0x7DF30 EQ PUSH2 0xEC JUMPI DUP1 PUSH4 0x31AA9B5 EQ PUSH2 0x12E JUMPI DUP1 PUSH4 0x189ECFF1 EQ PUSH2 0x16B JUMPI JUMPDEST PUSH1 0x0 DUP1 REVERT JUMPDEST CALLVALUE DUP1 ISZERO PUSH2 0xF8 JUMPI PUSH1 0x0 DUP1 REVERT JUMPDEST POP PUSH2 0x113 PUSH1 0x4 DUP1 CALLDATASIZE SUB DUP2 ADD SWAP1 PUSH2 0x10E SWAP2 SWAP1 PUSH2 0x3145 JUMP JUMPDEST PUSH2 0x38C JUMP JUMPDEST PUSH1 0x40 MLOAD PUSH2 0x125 SWAP7 SWAP6 SWAP5 SWAP4 SWAP3 SWAP2 SWAP1 PUSH2 0x36B8 JUMP JUMPDEST PUSH1 0x40 MLOAD DUP1 SWAP2 SUB SWAP1 RETURN JUMPDEST CALLVALUE DUP1 ISZERO PUSH2 0x13A JUMPI PUSH1 0x0 DUP1 REVERT JUMPDEST POP PUSH2 0x155 PUSH1 0x4 DUP1 CALLDATASIZE SUB DUP2 ADD SWAP1 PUSH2 0x150 SWAP2 SWAP1 PUSH2 0x3145 JUMP JUMPDEST PUSH2 0x422 JUMP JUMPDEST PUSH1 0x40 MLOAD PUSH2 0x162 SWAP2 SWAP1 PUSH2 0x3562 JUMP JUMPDEST PUSH1 0x40 MLOAD DUP1 SWAP2 SUB SWAP1 RETURN JUMPDEST CALLVALUE DUP1 ISZERO PUSH2 0x177 JUMPI PUSH1 0x0 DUP1 REVERT JUMPDEST POP PUSH2 0x192 PUSH1 0x4 DUP1 CALLDATASIZE SUB DUP2 ADD SWAP1 PUSH2 0x18D SWAP2 SWAP1 PUSH2 0x3145 JUMP JUMPDEST PUSH2 0x48D JUMP JUMPDEST PUSH1 0x40 MLOAD PUSH2 0x19F SWAP2 SWAP1 PUSH2 0x349D JUMP JUMPDEST PUSH1 0x40 MLOAD DUP1 SWAP2 SUB SWAP1 RETURN JUMPDEST CALLVALUE DUP1 ISZERO PUSH2 0x1B4 JUMPI PUSH1 0x0 DUP1 REVERT JUMPDEST POP PUSH2 0x1CF PUSH1 0x4 DUP1 CALLDATASIZE SUB DUP2 ADD SWAP1 PUSH2 0x1CA SWAP2 SWAP1 PUSH2 0x3212 JUMP JUMPDEST PUSH2 0x50B JUMP JUMPDEST PUSH1 0x40 MLOAD PUSH2 0x1DC SWAP2 SWAP1 PUSH2 0x349D JUMP JUMPDEST PUSH1 0x40 MLOAD DUP1 SWAP2 SUB SWAP1 RETURN JUMPDEST PUSH2 0x1FF PUSH1 0x4 DUP1 CALLDATASIZE SUB DUP2 ADD SWAP1 PUSH2 0x1FA SWAP2 SWAP1 PUSH2 0x2FD4 JUMP JUMPDEST PUSH2 0x59B JUMP JUMPDEST STOP JUMPDEST CALLVALUE DUP1 ISZERO PUSH2 0x20D JUMPI PUSH1 0x0 DUP1 REVERT JUMPDEST POP PUSH2 0x228 PUSH1 0x4 DUP1 CALLDATASIZE SUB DUP2 ADD SWAP1 PUSH2 0x223 SWAP2 SWAP1 PUSH2 0x3145 JUMP JUMPDEST PUSH2 0xE18 JUMP JUMPDEST PUSH1 0x40 MLOAD PUSH2 0x235 SWAP2 SWAP1 PUSH2 0x349D JUMP JUMPDEST PUSH1 0x40 MLOAD DUP1 SWAP2 SUB SWAP1 RETURN JUMPDEST CALLVALUE DUP1 ISZERO PUSH2 0x24A JUMPI PUSH1 0x0 DUP1 REVERT JUMPDEST POP PUSH2 0x265 PUSH1 0x4 DUP1 CALLDATASIZE SUB DUP2 ADD SWAP1 PUSH2 0x260 SWAP2 SWAP1 PUSH2 0x3145 JUMP JUMPDEST PUSH2 0xE96 JUMP JUMPDEST PUSH1 0x40 MLOAD PUSH2 0x272 SWAP2 SWAP1 PUSH2 0x369D JUMP JUMPDEST PUSH1 0x40 MLOAD DUP1 SWAP2 SUB SWAP1 RETURN JUMPDEST CALLVALUE DUP1 ISZERO PUSH2 0x287 JUMPI PUSH1 0x0 DUP1 REVERT JUMPDEST POP PUSH2 0x290 PUSH2 0xEF4 JUMP JUMPDEST STOP JUMPDEST CALLVALUE DUP1 ISZERO PUSH2 0x29E JUMPI PUSH1 0x0 DUP1 REVERT JUMPDEST POP PUSH2 0x2B9 PUSH1 0x4 DUP1 CALLDATASIZE SUB DUP2 ADD SWAP1 PUSH2 0x2B4 SWAP2 SWAP1 PUSH2 0x32BF JUMP JUMPDEST PUSH2 0xF7C JUMP JUMPDEST STOP JUMPDEST PUSH2 0x2D5 PUSH1 0x4 DUP1 CALLDATASIZE SUB DUP2 ADD SWAP1 PUSH2 0x2D0 SWAP2 SWAP1 PUSH2 0x3185 JUMP JUMPDEST PUSH2 0x12AF JUMP JUMPDEST STOP JUMPDEST PUSH2 0x2F1 PUSH1 0x4 DUP1 CALLDATASIZE SUB DUP2 ADD SWAP1 PUSH2 0x2EC SWAP2 SWAP1 PUSH2 0x3076 JUMP JUMPDEST PUSH2 0x1979 JUMP JUMPDEST STOP JUMPDEST CALLVALUE DUP1 ISZERO PUSH2 0x2FF JUMPI PUSH1 0x0 DUP1 REVERT JUMPDEST POP PUSH2 0x308 PUSH2 0x20A6 JUMP JUMPDEST PUSH1 0x40 MLOAD PUSH2 0x315 SWAP2 SWAP1 PUSH2 0x349D JUMP JUMPDEST PUSH1 0x40 MLOAD DUP1 SWAP2 SUB SWAP1 RETURN JUMPDEST CALLVALUE DUP1 ISZERO PUSH2 0x32A JUMPI PUSH1 0x0 DUP1 REVERT JUMPDEST POP PUSH2 0x345 PUSH1 0x4 DUP1 CALLDATASIZE SUB DUP2 ADD SWAP1 PUSH2 0x340 SWAP2 SWAP1 PUSH2 0x3145 JUMP JUMPDEST PUSH2 0x20CF JUMP JUMPDEST STOP JUMPDEST PUSH2 0x361 PUSH1 0x4 DUP1 CALLDATASIZE SUB DUP2 ADD SWAP1 PUSH2 0x35C SWAP2 SWAP1 PUSH2 0x2EF2 JUMP JUMPDEST PUSH2 0x235F JUMP JUMPDEST STOP JUMPDEST CALLVALUE DUP1 ISZERO PUSH2 0x36F JUMPI PUSH1 0x0 DUP1 REVERT JUMPDEST POP PUSH2 0x38A PUSH1 0x4 DUP1 CALLDATASIZE SUB DUP2 ADD SWAP1 PUSH2 0x385 SWAP2 SWAP1 PUSH2 0x2E98 JUMP JUMPDEST PUSH2 0x2C15 JUMP JUMPDEST STOP JUMPDEST PUSH1 0x1 PUSH1 0x20 MSTORE DUP2 PUSH1 0x0 MSTORE PUSH1 0x40 PUSH1 0x0 KECCAK256 PUSH1 0x20 MSTORE DUP1 PUSH1 0x0 MSTORE PUSH1 0x40 PUSH1 0x0 KECCAK256 PUSH1 0x0 SWAP2 POP SWAP2 POP POP DUP1 PUSH1 0x0 ADD SLOAD SWAP1 DUP1 PUSH1 0x1 ADD PUSH1 0x0 SWAP1 SLOAD SWAP1 PUSH2 0x100 EXP SWAP1 DIV PUSH20 0xFFFFFFFFFFFFFFFFFFFFFFFFFFFFFFFFFFFFFFFF AND SWAP1 DUP1 PUSH1 0x2 ADD PUSH1 0x0 SWAP1 SLOAD SWAP1 PUSH2 0x100 EXP SWAP1 DIV PUSH20 0xFFFFFFFFFFFFFFFFFFFFFFFFFFFFFFFFFFFFFFFF AND SWAP1 DUP1 PUSH1 0x2 ADD PUSH1 0x14 SWAP1 SLOAD SWAP1 PUSH2 0x100 EXP SWAP1 DIV PUSH1 0xFF AND SWAP1 DUP1 PUSH1 0x3 ADD SLOAD SWAP1 DUP1 PUSH1 0x4 ADD SLOAD SWAP1 POP DUP7 JUMP JUMPDEST PUSH1 0x0 PUSH1 0x1 PUSH1 0x0 DUP5 PUSH20 0xFFFFFFFFFFFFFFFFFFFFFFFFFFFFFFFFFFFFFFFF AND PUSH20 0xFFFFFFFFFFFFFFFFFFFFFFFFFFFFFFFFFFFFFFFF AND DUP2 MSTORE PUSH1 0x20 ADD SWAP1 DUP2 MSTORE PUSH1 0x20 ADD PUSH1 0x0 KECCAK256 PUSH1 0x0 DUP4 DUP2 MSTORE PUSH1 0x20 ADD SWAP1 DUP2 MSTORE PUSH1 0x20 ADD PUSH1 0x0 KECCAK256 PUSH1 0x2 ADD PUSH1 0x14 SWAP1 SLOAD SWAP1 PUSH2 0x100 EXP SWAP1 DIV PUSH1 0xFF AND SWAP1 POP SWAP3 SWAP2 POP POP JUMP JUMPDEST PUSH1 0x0 PUSH1 0x1 PUSH1 0x0 DUP5 PUSH20 0xFFFFFFFFFFFFFFFFFFFFFFFFFFFFFFFFFFFFFFFF AND PUSH20 0xFFFFFFFFFFFFFFFFFFFFFFFFFFFFFFFFFFFFFFFF AND DUP2 MSTORE PUSH1 0x20 ADD SWAP1 DUP2 MSTORE PUSH1 0x20 ADD PUSH1 0x0 KECCAK256 PUSH1 0x0 DUP4 DUP2 MSTORE PUSH1 0x20 ADD SWAP1 DUP2 MSTORE PUSH1 0x20 ADD PUSH1 0x0 KECCAK256 PUSH1 0x1 ADD PUSH1 0x0 SWAP1 SLOAD SWAP1 PUSH2 0x100 EXP SWAP1 DIV PUSH20 0xFFFFFFFFFFFFFFFFFFFFFFFFFFFFFFFFFFFFFFFF AND SWAP1 POP SWAP3 SWAP2 POP POP JUMP JUMPDEST PUSH1 0x0 PUSH1 0x1 PUSH1 0x0 DUP6 PUSH20 0xFFFFFFFFFFFFFFFFFFFFFFFFFFFFFFFFFFFFFFFF AND PUSH20 0xFFFFFFFFFFFFFFFFFFFFFFFFFFFFFFFFFFFFFFFF AND DUP2 MSTORE PUSH1 0x20 ADD SWAP1 DUP2 MSTORE PUSH1 0x20 ADD PUSH1 0x0 KECCAK256 PUSH1 0x0 DUP5 DUP2 MSTORE PUSH1 0x20 ADD SWAP1 DUP2 MSTORE PUSH1 0x20 ADD PUSH1 0x0 KECCAK256 PUSH1 0x5 ADD PUSH1 0x0 DUP4 DUP2 MSTORE PUSH1 0x20 ADD SWAP1 DUP2 MSTORE PUSH1 0x20 ADD PUSH1 0x0 KECCAK256 PUSH1 0x0 SWAP1 SLOAD SWAP1 PUSH2 0x100 EXP SWAP1 DIV PUSH20 0xFFFFFFFFFFFFFFFFFFFFFFFFFFFFFFFFFFFFFFFF AND SWAP1 POP SWAP4 SWAP3 POP POP POP JUMP JUMPDEST PUSH1 0x0 PUSH1 0x1 PUSH1 0x0 DUP10 PUSH20 0xFFFFFFFFFFFFFFFFFFFFFFFFFFFFFFFFFFFFFFFF AND PUSH20 0xFFFFFFFFFFFFFFFFFFFFFFFFFFFFFFFFFFFFFFFF AND DUP2 MSTORE PUSH1 0x20 ADD SWAP1 DUP2 MSTORE PUSH1 0x20 ADD PUSH1 0x0 KECCAK256 PUSH1 0x0 DUP8 DUP2 MSTORE PUSH1 0x20 ADD SWAP1 DUP2 MSTORE PUSH1 0x20 ADD PUSH1 0x0 KECCAK256 SWAP1 POP PUSH1 0x0 DUP9 SWAP1 POP PUSH1 0x0 DUP9 SWAP1 POP DUP3 PUSH1 0x2 ADD PUSH1 0x14 SWAP1 SLOAD SWAP1 PUSH2 0x100 EXP SWAP1 DIV PUSH1 0xFF AND PUSH2 0x64A JUMPI PUSH1 0x40 MLOAD PUSH32 0x8C379A000000000000000000000000000000000000000000000000000000000 DUP2 MSTORE PUSH1 0x4 ADD PUSH2 0x641 SWAP1 PUSH2 0x365D JUMP JUMPDEST PUSH1 0x40 MLOAD DUP1 SWAP2 SUB SWAP1 REVERT JUMPDEST DUP3 PUSH1 0x1 ADD PUSH1 0x0 SWAP1 SLOAD SWAP1 PUSH2 0x100 EXP SWAP1 DIV PUSH20 0xFFFFFFFFFFFFFFFFFFFFFFFFFFFFFFFFFFFFFFFF AND PUSH20 0xFFFFFFFFFFFFFFFFFFFFFFFFFFFFFFFFFFFFFFFF AND CALLER PUSH20 0xFFFFFFFFFFFFFFFFFFFFFFFFFFFFFFFFFFFFFFFF AND EQ ISZERO PUSH2 0x6DD JUMPI PUSH1 0x40 MLOAD PUSH32 0x8C379A000000000000000000000000000000000000000000000000000000000 DUP2 MSTORE PUSH1 0x4 ADD PUSH2 0x6D4 SWAP1 PUSH2 0x35DD JUMP JUMPDEST PUSH1 0x40 MLOAD DUP1 SWAP2 SUB SWAP1 REVERT JUMPDEST DUP3 PUSH1 0x0 ADD SLOAD DUP2 PUSH20 0xFFFFFFFFFFFFFFFFFFFFFFFFFFFFFFFFFFFFFFFF AND PUSH4 0x70A08231 CALLER PUSH1 0x40 MLOAD DUP3 PUSH4 0xFFFFFFFF AND PUSH1 0xE0 SHL DUP2 MSTORE PUSH1 0x4 ADD PUSH2 0x71B SWAP2 SWAP1 PUSH2 0x349D JUMP JUMPDEST PUSH1 0x20 PUSH1 0x40 MLOAD DUP1 DUP4 SUB DUP2 DUP7 DUP1 EXTCODESIZE ISZERO DUP1 ISZERO PUSH2 0x733 JUMPI PUSH1 0x0 DUP1 REVERT JUMPDEST POP GAS STATICCALL ISZERO DUP1 ISZERO PUSH2 0x747 JUMPI RETURNDATASIZE PUSH1 0x0 DUP1 RETURNDATACOPY RETURNDATASIZE PUSH1 0x0 REVERT JUMPDEST POP POP POP POP PUSH1 0x40 MLOAD RETURNDATASIZE PUSH1 0x1F NOT PUSH1 0x1F DUP3 ADD AND DUP3 ADD DUP1 PUSH1 0x40 MSTORE POP DUP2 ADD SWAP1 PUSH2 0x76B SWAP2 SWAP1 PUSH2 0x3292 JUMP JUMPDEST LT ISZERO PUSH2 0x7AC JUMPI PUSH1 0x40 MLOAD PUSH32 0x8C379A000000000000000000000000000000000000000000000000000000000 DUP2 MSTORE PUSH1 0x4 ADD PUSH2 0x7A3 SWAP1 PUSH2 0x35FD JUMP JUMPDEST PUSH1 0x40 MLOAD DUP1 SWAP2 SUB SWAP1 REVERT JUMPDEST DUP1 PUSH20 0xFFFFFFFFFFFFFFFFFFFFFFFFFFFFFFFFFFFFFFFF AND PUSH4 0x23B872DD CALLER DUP6 PUSH1 0x1 ADD PUSH1 0x0 SWAP1 SLOAD SWAP1 PUSH2 0x100 EXP SWAP1 DIV PUSH20 0xFFFFFFFFFFFFFFFFFFFFFFFFFFFFFFFFFFFFFFFF AND PUSH1 0x14 DUP8 PUSH1 0x0 ADD SLOAD PUSH2 0x7FF SWAP2 SWAP1 PUSH2 0x3791 JUMP JUMPDEST DUP8 PUSH1 0x0 ADD SLOAD PUSH2 0x80E SWAP2 SWAP1 PUSH2 0x37C2 JUMP JUMPDEST PUSH1 0x40 MLOAD DUP5 PUSH4 0xFFFFFFFF AND PUSH1 0xE0 SHL DUP2 MSTORE PUSH1 0x4 ADD PUSH2 0x82C SWAP4 SWAP3 SWAP2 SWAP1 PUSH2 0x34E1 JUMP JUMPDEST PUSH1 0x20 PUSH1 0x40 MLOAD DUP1 DUP4 SUB DUP2 PUSH1 0x0 DUP8 DUP1 EXTCODESIZE ISZERO DUP1 ISZERO PUSH2 0x846 JUMPI PUSH1 0x0 DUP1 REVERT JUMPDEST POP GAS CALL ISZERO DUP1 ISZERO PUSH2 0x85A JUMPI RETURNDATASIZE PUSH1 0x0 DUP1 RETURNDATACOPY RETURNDATASIZE PUSH1 0x0 REVERT JUMPDEST POP POP POP POP PUSH1 0x40 MLOAD RETURNDATASIZE PUSH1 0x1F NOT PUSH1 0x1F DUP3 ADD AND DUP3 ADD DUP1 PUSH1 0x40 MSTORE POP DUP2 ADD SWAP1 PUSH2 0x87E SWAP2 SWAP1 PUSH2 0x3265 JUMP JUMPDEST POP DUP1 PUSH20 0xFFFFFFFFFFFFFFFFFFFFFFFFFFFFFFFFFFFFFFFF AND PUSH4 0x23B872DD CALLER PUSH2 0x8A4 PUSH2 0x20A6 JUMP JUMPDEST DUP10 PUSH1 0x40 MLOAD DUP5 PUSH4 0xFFFFFFFF AND PUSH1 0xE0 SHL DUP2 MSTORE PUSH1 0x4 ADD PUSH2 0x8C3 SWAP4 SWAP3 SWAP2 SWAP1 PUSH2 0x34E1 JUMP JUMPDEST PUSH1 0x20 PUSH1 0x40 MLOAD DUP1 DUP4 SUB DUP2 PUSH1 0x0 DUP8 DUP1 EXTCODESIZE ISZERO DUP1 ISZERO PUSH2 0x8DD JUMPI PUSH1 0x0 DUP1 REVERT JUMPDEST POP GAS CALL ISZERO DUP1 ISZERO PUSH2 0x8F1 JUMPI RETURNDATASIZE PUSH1 0x0 DUP1 RETURNDATACOPY RETURNDATASIZE PUSH1 0x0 REVERT JUMPDEST POP POP POP POP PUSH1 0x40 MLOAD RETURNDATASIZE PUSH1 0x1F NOT PUSH1 0x1F DUP3 ADD AND DUP3 ADD DUP1 PUSH1 0x40 MSTORE POP DUP2 ADD SWAP1 PUSH2 0x915 SWAP2 SWAP1 PUSH2 0x3265 JUMP JUMPDEST POP PUSH1 0x0 PUSH20 0xFFFFFFFFFFFFFFFFFFFFFFFFFFFFFFFFFFFFFFFF AND DUP8 PUSH20 0xFFFFFFFFFFFFFFFFFFFFFFFFFFFFFFFFFFFFFFFF AND EQ PUSH2 0x9DB JUMPI DUP1 PUSH20 0xFFFFFFFFFFFFFFFFFFFFFFFFFFFFFFFFFFFFFFFF AND PUSH4 0x23B872DD CALLER DUP10 DUP8 PUSH1 0x40 MLOAD DUP5 PUSH4 0xFFFFFFFF AND PUSH1 0xE0 SHL DUP2 MSTORE PUSH1 0x4 ADD PUSH2 0x987 SWAP4 SWAP3 SWAP2 SWAP1 PUSH2 0x34E1 JUMP JUMPDEST PUSH1 0x20 PUSH1 0x40 MLOAD DUP1 DUP4 SUB DUP2 PUSH1 0x0 DUP8 DUP1 EXTCODESIZE ISZERO DUP1 ISZERO PUSH2 0x9A1 JUMPI PUSH1 0x0 DUP1 REVERT JUMPDEST POP GAS CALL ISZERO DUP1 ISZERO PUSH2 0x9B5 JUMPI RETURNDATASIZE PUSH1 0x0 DUP1 RETURNDATACOPY RETURNDATASIZE PUSH1 0x0 REVERT JUMPDEST POP POP POP POP PUSH1 0x40 MLOAD RETURNDATASIZE PUSH1 0x1F NOT PUSH1 0x1F DUP3 ADD AND DUP3 ADD DUP1 PUSH1 0x40 MSTORE POP DUP2 ADD SWAP1 PUSH2 0x9D9 SWAP2 SWAP1 PUSH2 0x3265 JUMP JUMPDEST POP JUMPDEST PUSH1 0x0 JUMPDEST PUSH1 0x5 DUP2 LT ISZERO PUSH2 0xB32 JUMPI PUSH1 0x0 PUSH20 0xFFFFFFFFFFFFFFFFFFFFFFFFFFFFFFFFFFFFFFFF AND DUP5 PUSH1 0x5 ADD PUSH1 0x0 DUP4 DUP2 MSTORE PUSH1 0x20 ADD SWAP1 DUP2 MSTORE PUSH1 0x20 ADD PUSH1 0x0 KECCAK256 PUSH1 0x0 SWAP1 SLOAD SWAP1 PUSH2 0x100 EXP SWAP1 DIV PUSH20 0xFFFFFFFFFFFFFFFFFFFFFFFFFFFFFFFFFFFFFFFF AND PUSH20 0xFFFFFFFFFFFFFFFFFFFFFFFFFFFFFFFFFFFFFFFF AND EQ PUSH2 0xB1A JUMPI DUP2 PUSH20 0xFFFFFFFFFFFFFFFFFFFFFFFFFFFFFFFFFFFFFFFF AND PUSH4 0x23B872DD CALLER DUP7 PUSH1 0x5 ADD PUSH1 0x0 DUP6 DUP2 MSTORE PUSH1 0x20 ADD SWAP1 DUP2 MSTORE PUSH1 0x20 ADD PUSH1 0x0 KECCAK256 PUSH1 0x0 SWAP1 SLOAD SWAP1 PUSH2 0x100 EXP SWAP1 DIV PUSH20 0xFFFFFFFFFFFFFFFFFFFFFFFFFFFFFFFFFFFFFFFF AND DUP10 PUSH1 0x40 MLOAD DUP5 PUSH4 0xFFFFFFFF AND PUSH1 0xE0 SHL DUP2 MSTORE PUSH1 0x4 ADD PUSH2 0xAC2 SWAP4 SWAP3 SWAP2 SWAP1 PUSH2 0x34E1 JUMP JUMPDEST PUSH1 0x20 PUSH1 0x40 MLOAD DUP1 DUP4 SUB DUP2 PUSH1 0x0 DUP8 DUP1 EXTCODESIZE ISZERO DUP1 ISZERO PUSH2 0xADC JUMPI PUSH1 0x0 DUP1 REVERT JUMPDEST POP GAS CALL ISZERO DUP1 ISZERO PUSH2 0xAF0 JUMPI RETURNDATASIZE PUSH1 0x0 DUP1 RETURNDATACOPY RETURNDATASIZE PUSH1 0x0 REVERT JUMPDEST POP POP POP POP PUSH1 0x40 MLOAD RETURNDATASIZE PUSH1 0x1F NOT PUSH1 0x1F DUP3 ADD AND DUP3 ADD DUP1 PUSH1 0x40 MSTORE POP DUP2 ADD SWAP1 PUSH2 0xB14 SWAP2 SWAP1 PUSH2 0x3265 JUMP JUMPDEST POP PUSH2 0xB1F JUMP JUMPDEST PUSH2 0xB32 JUMP JUMPDEST DUP1 DUP1 PUSH2 0xB2A SWAP1 PUSH2 0x383E JUMP JUMPDEST SWAP2 POP POP PUSH2 0x9DE JUMP JUMPDEST POP DUP2 PUSH20 0xFFFFFFFFFFFFFFFFFFFFFFFFFFFFFFFFFFFFFFFF AND PUSH4 0xB88D4FDE DUP5 PUSH1 0x1 ADD PUSH1 0x0 SWAP1 SLOAD SWAP1 PUSH2 0x100 EXP SWAP1 DIV PUSH20 0xFFFFFFFFFFFFFFFFFFFFFFFFFFFFFFFFFFFFFFFF AND CALLER DUP12 PUSH1 0x40 MLOAD DUP5 PUSH4 0xFFFFFFFF AND PUSH1 0xE0 SHL DUP2 MSTORE PUSH1 0x4 ADD PUSH2 0xB94 SWAP4 SWAP3 SWAP2 SWAP1 PUSH2 0x3518 JUMP JUMPDEST PUSH1 0x0 PUSH1 0x40 MLOAD DUP1 DUP4 SUB DUP2 PUSH1 0x0 DUP8 DUP1 EXTCODESIZE ISZERO DUP1 ISZERO PUSH2 0xBAE JUMPI PUSH1 0x0 DUP1 REVERT JUMPDEST POP GAS CALL ISZERO DUP1 ISZERO PUSH2 0xBC2 JUMPI RETURNDATASIZE PUSH1 0x0 DUP1 RETURNDATACOPY RETURNDATASIZE PUSH1 0x0 REVERT JUMPDEST POP POP POP POP CALLER DUP4 PUSH1 0x2 ADD PUSH1 0x0 PUSH2 0x100 EXP DUP2 SLOAD DUP2 PUSH20 0xFFFFFFFFFFFFFFFFFFFFFFFFFFFFFFFFFFFFFFFF MUL NOT AND SWAP1 DUP4 PUSH20 0xFFFFFFFFFFFFFFFFFFFFFFFFFFFFFFFFFFFFFFFF AND MUL OR SWAP1 SSTORE POP PUSH1 0x3 PUSH1 0x1 PUSH1 0x0 DUP13 PUSH20 0xFFFFFFFFFFFFFFFFFFFFFFFFFFFFFFFFFFFFFFFF AND PUSH20 0xFFFFFFFFFFFFFFFFFFFFFFFFFFFFFFFFFFFFFFFF AND DUP2 MSTORE PUSH1 0x20 ADD SWAP1 DUP2 MSTORE PUSH1 0x20 ADD PUSH1 0x0 KECCAK256 PUSH1 0x0 DUP11 DUP2 MSTORE PUSH1 0x20 ADD SWAP1 DUP2 MSTORE PUSH1 0x20 ADD PUSH1 0x0 KECCAK256 PUSH1 0x3 ADD SLOAD GT PUSH2 0xD01 JUMPI DUP3 PUSH1 0x1 ADD PUSH1 0x0 SWAP1 SLOAD SWAP1 PUSH2 0x100 EXP SWAP1 DIV PUSH20 0xFFFFFFFFFFFFFFFFFFFFFFFFFFFFFFFFFFFFFFFF AND DUP4 PUSH1 0x5 ADD PUSH1 0x0 DUP6 PUSH1 0x3 ADD SLOAD DUP2 MSTORE PUSH1 0x20 ADD SWAP1 DUP2 MSTORE PUSH1 0x20 ADD PUSH1 0x0 KECCAK256 PUSH1 0x0 PUSH2 0x100 EXP DUP2 SLOAD DUP2 PUSH20 0xFFFFFFFFFFFFFFFFFFFFFFFFFFFFFFFFFFFFFFFF MUL NOT AND SWAP1 DUP4 PUSH20 0xFFFFFFFFFFFFFFFFFFFFFFFFFFFFFFFFFFFFFFFF AND MUL OR SWAP1 SSTORE POP PUSH1 0x1 DUP4 PUSH1 0x3 ADD PUSH1 0x0 DUP3 DUP3 SLOAD PUSH2 0xCF5 SWAP2 SWAP1 PUSH2 0x373B JUMP JUMPDEST SWAP3 POP POP DUP2 SWAP1 SSTORE POP PUSH2 0xD88 JUMP JUMPDEST DUP3 PUSH1 0x1 ADD PUSH1 0x0 SWAP1 SLOAD SWAP1 PUSH2 0x100 EXP SWAP1 DIV PUSH20 0xFFFFFFFFFFFFFFFFFFFFFFFFFFFFFFFFFFFFFFFF AND DUP4 PUSH1 0x5 ADD PUSH1 0x0 DUP6 PUSH1 0x3 ADD SLOAD DUP2 MSTORE PUSH1 0x20 ADD SWAP1 DUP2 MSTORE PUSH1 0x20 ADD PUSH1 0x0 KECCAK256 PUSH1 0x0 PUSH2 0x100 EXP DUP2 SLOAD DUP2 PUSH20 0xFFFFFFFFFFFFFFFFFFFFFFFFFFFFFFFFFFFFFFFF MUL NOT AND SWAP1 DUP4 PUSH20 0xFFFFFFFFFFFFFFFFFFFFFFFFFFFFFFFFFFFFFFFF AND MUL OR SWAP1 SSTORE POP PUSH1 0x0 DUP4 PUSH1 0x3 ADD DUP2 SWAP1 SSTORE POP JUMPDEST PUSH1 0x0 DUP4 PUSH1 0x2 ADD PUSH1 0x14 PUSH2 0x100 EXP DUP2 SLOAD DUP2 PUSH1 0xFF MUL NOT AND SWAP1 DUP4 ISZERO ISZERO MUL OR SWAP1 SSTORE POP DUP3 PUSH1 0x2 ADD PUSH1 0x14 SWAP1 SLOAD SWAP1 PUSH2 0x100 EXP SWAP1 DIV PUSH1 0xFF AND ISZERO ISZERO DUP9 CALLER PUSH20 0xFFFFFFFFFFFFFFFFFFFFFFFFFFFFFFFFFFFFFFFF AND PUSH32 0xA7CD299F7EBC29460AD99CF3EA75776D7CD038A63A59FA595E86441F8190EF90 DUP7 PUSH1 0x0 ADD SLOAD PUSH1 0x40 MLOAD PUSH2 0xE04 SWAP2 SWAP1 PUSH2 0x369D JUMP JUMPDEST PUSH1 0x40 MLOAD DUP1 SWAP2 SUB SWAP1 LOG4 POP POP POP POP POP POP POP POP POP POP JUMP JUMPDEST PUSH1 0x0 PUSH1 0x1 PUSH1 0x0 DUP5 PUSH20 0xFFFFFFFFFFFFFFFFFFFFFFFFFFFFFFFFFFFFFFFF AND PUSH20 0xFFFFFFFFFFFFFFFFFFFFFFFFFFFFFFFFFFFFFFFF AND DUP2 MSTORE PUSH1 0x20 ADD SWAP1 DUP2 MSTORE PUSH1 0x20 ADD PUSH1 0x0 KECCAK256 PUSH1 0x0 DUP4 DUP2 MSTORE PUSH1 0x20 ADD SWAP1 DUP2 MSTORE PUSH1 0x20 ADD PUSH1 0x0 KECCAK256 PUSH1 0x2 ADD PUSH1 0x0 SWAP1 SLOAD SWAP1 PUSH2 0x100 EXP SWAP1 DIV PUSH20 0xFFFFFFFFFFFFFFFFFFFFFFFFFFFFFFFFFFFFFFFF AND SWAP1 POP SWAP3 SWAP2 POP POP JUMP JUMPDEST PUSH1 0x0 PUSH1 0x1 PUSH1 0x0 DUP5 PUSH20 0xFFFFFFFFFFFFFFFFFFFFFFFFFFFFFFFFFFFFFFFF AND PUSH20 0xFFFFFFFFFFFFFFFFFFFFFFFFFFFFFFFFFFFFFFFF AND DUP2 MSTORE PUSH1 0x20 ADD SWAP1 DUP2 MSTORE PUSH1 0x20 ADD PUSH1 0x0 KECCAK256 PUSH1 0x0 DUP4 DUP2 MSTORE PUSH1 0x20 ADD SWAP1 DUP2 MSTORE PUSH1 0x20 ADD PUSH1 0x0 KECCAK256 PUSH1 0x0 ADD SLOAD SWAP1 POP SWAP3 SWAP2 POP POP JUMP JUMPDEST PUSH2 0xEFC PUSH2 0x2D0D JUMP JUMPDEST PUSH20 0xFFFFFFFFFFFFFFFFFFFFFFFFFFFFFFFFFFFFFFFF AND PUSH2 0xF1A PUSH2 0x20A6 JUMP JUMPDEST PUSH20 0xFFFFFFFFFFFFFFFFFFFFFFFFFFFFFFFFFFFFFFFF AND EQ PUSH2 0xF70 JUMPI PUSH1 0x40 MLOAD PUSH32 0x8C379A000000000000000000000000000000000000000000000000000000000 DUP2 MSTORE PUSH1 0x4 ADD PUSH2 0xF67 SWAP1 PUSH2 0x363D JUMP JUMPDEST PUSH1 0x40 MLOAD DUP1 SWAP2 SUB SWAP1 REVERT JUMPDEST PUSH2 0xF7A PUSH1 0x0 PUSH2 0x2D15 JUMP JUMPDEST JUMP JUMPDEST PUSH1 0x0 DUP3 SWAP1 POP PUSH1 0x0 PUSH1 0x1 PUSH1 0x0 DUP6 PUSH20 0xFFFFFFFFFFFFFFFFFFFFFFFFFFFFFFFFFFFFFFFF AND PUSH20 0xFFFFFFFFFFFFFFFFFFFFFFFFFFFFFFFFFFFFFFFF AND DUP2 MSTORE PUSH1 0x20 ADD SWAP1 DUP2 MSTORE PUSH1 0x20 ADD PUSH1 0x0 KECCAK256 PUSH1 0x0 DUP5 DUP2 MSTORE PUSH1 0x20 ADD SWAP1 DUP2 MSTORE PUSH1 0x20 ADD PUSH1 0x0 KECCAK256 SWAP1 POP CALLER PUSH20 0xFFFFFFFFFFFFFFFFFFFFFFFFFFFFFFFFFFFFFFFF AND DUP3 PUSH20 0xFFFFFFFFFFFFFFFFFFFFFFFFFFFFFFFFFFFFFFFF AND PUSH4 0x6352211E DUP6 PUSH1 0x40 MLOAD DUP3 PUSH4 0xFFFFFFFF AND PUSH1 0xE0 SHL DUP2 MSTORE PUSH1 0x4 ADD PUSH2 0x1025 SWAP2 SWAP1 PUSH2 0x369D JUMP JUMPDEST PUSH1 0x20 PUSH1 0x40 MLOAD DUP1 DUP4 SUB DUP2 DUP7 DUP1 EXTCODESIZE ISZERO DUP1 ISZERO PUSH2 0x103D JUMPI PUSH1 0x0 DUP1 REVERT JUMPDEST POP GAS STATICCALL ISZERO DUP1 ISZERO PUSH2 0x1051 JUMPI RETURNDATASIZE PUSH1 0x0 DUP1 RETURNDATACOPY RETURNDATASIZE PUSH1 0x0 REVERT JUMPDEST POP POP POP POP PUSH1 0x40 MLOAD RETURNDATASIZE PUSH1 0x1F NOT PUSH1 0x1F DUP3 ADD AND DUP3 ADD DUP1 PUSH1 0x40 MSTORE POP DUP2 ADD SWAP1 PUSH2 0x1075 SWAP2 SWAP1 PUSH2 0x2EC5 JUMP JUMPDEST PUSH20 0xFFFFFFFFFFFFFFFFFFFFFFFFFFFFFFFFFFFFFFFF AND EQ PUSH2 0x10CB JUMPI PUSH1 0x40 MLOAD PUSH32 0x8C379A000000000000000000000000000000000000000000000000000000000 DUP2 MSTORE PUSH1 0x4 ADD PUSH2 0x10C2 SWAP1 PUSH2 0x367D JUMP JUMPDEST PUSH1 0x40 MLOAD DUP1 SWAP2 SUB SWAP1 REVERT JUMPDEST DUP2 PUSH20 0xFFFFFFFFFFFFFFFFFFFFFFFFFFFFFFFFFFFFFFFF AND PUSH4 0xE985E9C5 CALLER ADDRESS PUSH1 0x40 MLOAD DUP4 PUSH4 0xFFFFFFFF AND PUSH1 0xE0 SHL DUP2 MSTORE PUSH1 0x4 ADD PUSH2 0x1106 SWAP3 SWAP2 SWAP1 PUSH2 0x34B8 JUMP JUMPDEST PUSH1 0x20 PUSH1 0x40 MLOAD DUP1 DUP4 SUB DUP2 DUP7 DUP1 EXTCODESIZE ISZERO DUP1 ISZERO PUSH2 0x111E JUMPI PUSH1 0x0 DUP1 REVERT JUMPDEST POP GAS STATICCALL ISZERO DUP1 ISZERO PUSH2 0x1132 JUMPI RETURNDATASIZE PUSH1 0x0 DUP1 RETURNDATACOPY RETURNDATASIZE PUSH1 0x0 REVERT JUMPDEST POP POP POP POP PUSH1 0x40 MLOAD RETURNDATASIZE PUSH1 0x1F NOT PUSH1 0x1F DUP3 ADD AND DUP3 ADD DUP1 PUSH1 0x40 MSTORE POP DUP2 ADD SWAP1 PUSH2 0x1156 SWAP2 SWAP1 PUSH2 0x3265 JUMP JUMPDEST PUSH2 0x1195 JUMPI PUSH1 0x40 MLOAD PUSH32 0x8C379A000000000000000000000000000000000000000000000000000000000 DUP2 MSTORE PUSH1 0x4 ADD PUSH2 0x118C SWAP1 PUSH2 0x359D JUMP JUMPDEST PUSH1 0x40 MLOAD DUP1 SWAP2 SUB SWAP1 REVERT JUMPDEST DUP5 DUP2 PUSH1 0x0 ADD DUP2 SWAP1 SSTORE POP CALLER DUP2 PUSH1 0x1 ADD PUSH1 0x0 PUSH2 0x100 EXP DUP2 SLOAD DUP2 PUSH20 0xFFFFFFFFFFFFFFFFFFFFFFFFFFFFFFFFFFFFFFFF MUL NOT AND SWAP1 DUP4 PUSH20 0xFFFFFFFFFFFFFFFFFFFFFFFFFFFFFFFFFFFFFFFF AND MUL OR SWAP1 SSTORE POP CALLER DUP2 PUSH1 0x2 ADD PUSH1 0x0 PUSH2 0x100 EXP DUP2 SLOAD DUP2 PUSH20 0xFFFFFFFFFFFFFFFFFFFFFFFFFFFFFFFFFFFFFFFF MUL NOT AND SWAP1 DUP4 PUSH20 0xFFFFFFFFFFFFFFFFFFFFFFFFFFFFFFFFFFFFFFFF AND MUL OR SWAP1 SSTORE POP PUSH1 0x1 DUP2 PUSH1 0x2 ADD PUSH1 0x14 PUSH2 0x100 EXP DUP2 SLOAD DUP2 PUSH1 0xFF MUL NOT AND SWAP1 DUP4 ISZERO ISZERO MUL OR SWAP1 SSTORE POP DUP1 PUSH1 0x2 ADD PUSH1 0x14 SWAP1 SLOAD SWAP1 PUSH2 0x100 EXP SWAP1 DIV PUSH1 0xFF AND ISZERO ISZERO DUP4 CALLER PUSH20 0xFFFFFFFFFFFFFFFFFFFFFFFFFFFFFFFFFFFFFFFF AND PUSH32 0xA7CD299F7EBC29460AD99CF3EA75776D7CD038A63A59FA595E86441F8190EF90 DUP5 PUSH1 0x0 ADD SLOAD PUSH1 0x40 MLOAD PUSH2 0x12A0 SWAP2 SWAP1 PUSH2 0x369D JUMP JUMPDEST PUSH1 0x40 MLOAD DUP1 SWAP2 SUB SWAP1 LOG4 POP POP POP POP POP JUMP JUMPDEST PUSH1 0x0 PUSH1 0x1 PUSH1 0x0 DUP9 PUSH20 0xFFFFFFFFFFFFFFFFFFFFFFFFFFFFFFFFFFFFFFFF AND PUSH20 0xFFFFFFFFFFFFFFFFFFFFFFFFFFFFFFFFFFFFFFFF AND DUP2 MSTORE PUSH1 0x20 ADD SWAP1 DUP2 MSTORE PUSH1 0x20 ADD PUSH1 0x0 KECCAK256 PUSH1 0x0 DUP8 DUP2 MSTORE PUSH1 0x20 ADD SWAP1 DUP2 MSTORE PUSH1 0x20 ADD PUSH1 0x0 KECCAK256 SWAP1 POP PUSH1 0x0 DUP8 SWAP1 POP DUP2 PUSH1 0x2 ADD PUSH1 0x14 SWAP1 SLOAD SWAP1 PUSH2 0x100 EXP SWAP1 DIV PUSH1 0xFF AND PUSH2 0x1359 JUMPI PUSH1 0x40 MLOAD PUSH32 0x8C379A000000000000000000000000000000000000000000000000000000000 DUP2 MSTORE PUSH1 0x4 ADD PUSH2 0x1350 SWAP1 PUSH2 0x365D JUMP JUMPDEST PUSH1 0x40 MLOAD DUP1 SWAP2 SUB SWAP1 REVERT JUMPDEST DUP2 PUSH1 0x1 ADD PUSH1 0x0 SWAP1 SLOAD SWAP1 PUSH2 0x100 EXP SWAP1 DIV PUSH20 0xFFFFFFFFFFFFFFFFFFFFFFFFFFFFFFFFFFFFFFFF AND PUSH20 0xFFFFFFFFFFFFFFFFFFFFFFFFFFFFFFFFFFFFFFFF AND CALLER PUSH20 0xFFFFFFFFFFFFFFFFFFFFFFFFFFFFFFFFFFFFFFFF AND EQ ISZERO PUSH2 0x13EC JUMPI PUSH1 0x40 MLOAD PUSH32 0x8C379A000000000000000000000000000000000000000000000000000000000 DUP2 MSTORE PUSH1 0x4 ADD PUSH2 0x13E3 SWAP1 PUSH2 0x35DD JUMP JUMPDEST PUSH1 0x40 MLOAD DUP1 SWAP2 SUB SWAP1 REVERT JUMPDEST DUP2 PUSH1 0x0 ADD SLOAD CALLVALUE LT ISZERO PUSH2 0x1433 JUMPI PUSH1 0x40 MLOAD PUSH32 0x8C379A000000000000000000000000000000000000000000000000000000000 DUP2 MSTORE PUSH1 0x4 ADD PUSH2 0x142A SWAP1 PUSH2 0x35FD JUMP JUMPDEST PUSH1 0x40 MLOAD DUP1 SWAP2 SUB SWAP1 REVERT JUMPDEST DUP2 PUSH1 0x1 ADD PUSH1 0x0 SWAP1 SLOAD SWAP1 PUSH2 0x100 EXP SWAP1 DIV PUSH20 0xFFFFFFFFFFFFFFFFFFFFFFFFFFFFFFFFFFFFFFFF AND PUSH20 0xFFFFFFFFFFFFFFFFFFFFFFFFFFFFFFFFFFFFFFFF AND PUSH2 0x8FC PUSH1 0x14 DUP5 PUSH1 0x0 ADD SLOAD PUSH2 0x1482 SWAP2 SWAP1 PUSH2 0x3791 JUMP JUMPDEST DUP5 PUSH1 0x0 ADD SLOAD PUSH2 0x1491 SWAP2 SWAP1 PUSH2 0x37C2 JUMP JUMPDEST SWAP1 DUP2 ISZERO MUL SWAP1 PUSH1 0x40 MLOAD PUSH1 0x0 PUSH1 0x40 MLOAD DUP1 DUP4 SUB DUP2 DUP6 DUP9 DUP9 CALL SWAP4 POP POP POP POP ISZERO DUP1 ISZERO PUSH2 0x14BC JUMPI RETURNDATASIZE PUSH1 0x0 DUP1 RETURNDATACOPY RETURNDATASIZE PUSH1 0x0 REVERT JUMPDEST POP PUSH2 0x14C5 PUSH2 0x20A6 JUMP JUMPDEST PUSH20 0xFFFFFFFFFFFFFFFFFFFFFFFFFFFFFFFFFFFFFFFF AND PUSH2 0x8FC DUP7 SWAP1 DUP2 ISZERO MUL SWAP1 PUSH1 0x40 MLOAD PUSH1 0x0 PUSH1 0x40 MLOAD DUP1 DUP4 SUB DUP2 DUP6 DUP9 DUP9 CALL SWAP4 POP POP POP POP ISZERO DUP1 ISZERO PUSH2 0x150A JUMPI RETURNDATASIZE PUSH1 0x0 DUP1 RETURNDATACOPY RETURNDATASIZE PUSH1 0x0 REVERT JUMPDEST POP PUSH1 0x0 PUSH20 0xFFFFFFFFFFFFFFFFFFFFFFFFFFFFFFFFFFFFFFFF AND DUP7 PUSH20 0xFFFFFFFFFFFFFFFFFFFFFFFFFFFFFFFFFFFFFFFF AND EQ PUSH2 0x1587 JUMPI DUP6 PUSH20 0xFFFFFFFFFFFFFFFFFFFFFFFFFFFFFFFFFFFFFFFF AND PUSH2 0x8FC DUP5 SWAP1 DUP2 ISZERO MUL SWAP1 PUSH1 0x40 MLOAD PUSH1 0x0 PUSH1 0x40 MLOAD DUP1 DUP4 SUB DUP2 DUP6 DUP9 DUP9 CALL SWAP4 POP POP POP POP ISZERO DUP1 ISZERO PUSH2 0x1585 JUMPI RETURNDATASIZE PUSH1 0x0 DUP1 RETURNDATACOPY RETURNDATASIZE PUSH1 0x0 REVERT JUMPDEST POP JUMPDEST PUSH1 0x0 JUMPDEST PUSH1 0x5 DUP2 LT ISZERO PUSH2 0x1695 JUMPI PUSH1 0x0 PUSH20 0xFFFFFFFFFFFFFFFFFFFFFFFFFFFFFFFFFFFFFFFF AND DUP4 PUSH1 0x5 ADD PUSH1 0x0 DUP4 DUP2 MSTORE PUSH1 0x20 ADD SWAP1 DUP2 MSTORE PUSH1 0x20 ADD PUSH1 0x0 KECCAK256 PUSH1 0x0 SWAP1 SLOAD SWAP1 PUSH2 0x100 EXP SWAP1 DIV PUSH20 0xFFFFFFFFFFFFFFFFFFFFFFFFFFFFFFFFFFFFFFFF AND PUSH20 0xFFFFFFFFFFFFFFFFFFFFFFFFFFFFFFFFFFFFFFFF AND EQ PUSH2 0x167D JUMPI DUP3 PUSH1 0x5 ADD PUSH1 0x0 DUP3 DUP2 MSTORE PUSH1 0x20 ADD SWAP1 DUP2 MSTORE PUSH1 0x20 ADD PUSH1 0x0 KECCAK256 PUSH1 0x0 SWAP1 SLOAD SWAP1 PUSH2 0x100 EXP SWAP1 DIV PUSH20 0xFFFFFFFFFFFFFFFFFFFFFFFFFFFFFFFFFFFFFFFF AND PUSH20 0xFFFFFFFFFFFFFFFFFFFFFFFFFFFFFFFFFFFFFFFF AND PUSH2 0x8FC DUP7 SWAP1 DUP2 ISZERO MUL SWAP1 PUSH1 0x40 MLOAD PUSH1 0x0 PUSH1 0x40 MLOAD DUP1 DUP4 SUB DUP2 DUP6 DUP9 DUP9 CALL SWAP4 POP POP POP POP ISZERO DUP1 ISZERO PUSH2 0x1677 JUMPI RETURNDATASIZE PUSH1 0x0 DUP1 RETURNDATACOPY RETURNDATASIZE PUSH1 0x0 REVERT JUMPDEST POP PUSH2 0x1682 JUMP JUMPDEST PUSH2 0x1695 JUMP JUMPDEST DUP1 DUP1 PUSH2 0x168D SWAP1 PUSH2 0x383E JUMP JUMPDEST SWAP2 POP POP PUSH2 0x158A JUMP JUMPDEST POP DUP1 PUSH20 0xFFFFFFFFFFFFFFFFFFFFFFFFFFFFFFFFFFFFFFFF AND PUSH4 0xB88D4FDE DUP4 PUSH1 0x1 ADD PUSH1 0x0 SWAP1 SLOAD SWAP1 PUSH2 0x100 EXP SWAP1 DIV PUSH20 0xFFFFFFFFFFFFFFFFFFFFFFFFFFFFFFFFFFFFFFFF AND CALLER DUP11 PUSH1 0x40 MLOAD DUP5 PUSH4 0xFFFFFFFF AND PUSH1 0xE0 SHL DUP2 MSTORE PUSH1 0x4 ADD PUSH2 0x16F7 SWAP4 SWAP3 SWAP2 SWAP1 PUSH2 0x3518 JUMP JUMPDEST PUSH1 0x0 PUSH1 0x40 MLOAD DUP1 DUP4 SUB DUP2 PUSH1 0x0 DUP8 DUP1 EXTCODESIZE ISZERO DUP1 ISZERO PUSH2 0x1711 JUMPI PUSH1 0x0 DUP1 REVERT JUMPDEST POP GAS CALL ISZERO DUP1 ISZERO PUSH2 0x1725 JUMPI RETURNDATASIZE PUSH1 0x0 DUP1 RETURNDATACOPY RETURNDATASIZE PUSH1 0x0 REVERT JUMPDEST POP POP POP POP CALLER DUP3 PUSH1 0x2 ADD PUSH1 0x0 PUSH2 0x100 EXP DUP2 SLOAD DUP2 PUSH20 0xFFFFFFFFFFFFFFFFFFFFFFFFFFFFFFFFFFFFFFFF MUL NOT AND SWAP1 DUP4 PUSH20 0xFFFFFFFFFFFFFFFFFFFFFFFFFFFFFFFFFFFFFFFF AND MUL OR SWAP1 SSTORE POP PUSH1 0x3 PUSH1 0x1 PUSH1 0x0 DUP11 PUSH20 0xFFFFFFFFFFFFFFFFFFFFFFFFFFFFFFFFFFFFFFFF AND PUSH20 0xFFFFFFFFFFFFFFFFFFFFFFFFFFFFFFFFFFFFFFFF AND DUP2 MSTORE PUSH1 0x20 ADD SWAP1 DUP2 MSTORE PUSH1 0x20 ADD PUSH1 0x0 KECCAK256 PUSH1 0x0 DUP10 DUP2 MSTORE PUSH1 0x20 ADD SWAP1 DUP2 MSTORE PUSH1 0x20 ADD PUSH1 0x0 KECCAK256 PUSH1 0x3 ADD SLOAD GT PUSH2 0x1864 JUMPI DUP2 PUSH1 0x1 ADD PUSH1 0x0 SWAP1 SLOAD SWAP1 PUSH2 0x100 EXP SWAP1 DIV PUSH20 0xFFFFFFFFFFFFFFFFFFFFFFFFFFFFFFFFFFFFFFFF AND DUP3 PUSH1 0x5 ADD PUSH1 0x0 DUP5 PUSH1 0x3 ADD SLOAD DUP2 MSTORE PUSH1 0x20 ADD SWAP1 DUP2 MSTORE PUSH1 0x20 ADD PUSH1 0x0 KECCAK256 PUSH1 0x0 PUSH2 0x100 EXP DUP2 SLOAD DUP2 PUSH20 0xFFFFFFFFFFFFFFFFFFFFFFFFFFFFFFFFFFFFFFFF MUL NOT AND SWAP1 DUP4 PUSH20 0xFFFFFFFFFFFFFFFFFFFFFFFFFFFFFFFFFFFFFFFF AND MUL OR SWAP1 SSTORE POP PUSH1 0x1 DUP3 PUSH1 0x3 ADD PUSH1 0x0 DUP3 DUP3 SLOAD PUSH2 0x1858 SWAP2 SWAP1 PUSH2 0x373B JUMP JUMPDEST SWAP3 POP POP DUP2 SWAP1 SSTORE POP PUSH2 0x18EB JUMP JUMPDEST DUP2 PUSH1 0x1 ADD PUSH1 0x0 SWAP1 SLOAD SWAP1 PUSH2 0x100 EXP SWAP1 DIV PUSH20 0xFFFFFFFFFFFFFFFFFFFFFFFFFFFFFFFFFFFFFFFF AND DUP3 PUSH1 0x5 ADD PUSH1 0x0 DUP5 PUSH1 0x3 ADD SLOAD DUP2 MSTORE PUSH1 0x20 ADD SWAP1 DUP2 MSTORE PUSH1 0x20 ADD PUSH1 0x0 KECCAK256 PUSH1 0x0 PUSH2 0x100 EXP DUP2 SLOAD DUP2 PUSH20 0xFFFFFFFFFFFFFFFFFFFFFFFFFFFFFFFFFFFFFFFF MUL NOT AND SWAP1 DUP4 PUSH20 0xFFFFFFFFFFFFFFFFFFFFFFFFFFFFFFFFFFFFFFFF AND MUL OR SWAP1 SSTORE POP PUSH1 0x0 DUP3 PUSH1 0x3 ADD DUP2 SWAP1 SSTORE POP JUMPDEST PUSH1 0x0 DUP3 PUSH1 0x2 ADD PUSH1 0x14 PUSH2 0x100 EXP DUP2 SLOAD DUP2 PUSH1 0xFF MUL NOT AND SWAP1 DUP4 ISZERO ISZERO MUL OR SWAP1 SSTORE POP DUP2 PUSH1 0x2 ADD PUSH1 0x14 SWAP1 SLOAD SWAP1 PUSH2 0x100 EXP SWAP1 DIV PUSH1 0xFF AND ISZERO ISZERO DUP8 CALLER PUSH20 0xFFFFFFFFFFFFFFFFFFFFFFFFFFFFFFFFFFFFFFFF AND PUSH32 0xA7CD299F7EBC29460AD99CF3EA75776D7CD038A63A59FA595E86441F8190EF90 DUP6 PUSH1 0x0 ADD SLOAD PUSH1 0x40 MLOAD PUSH2 0x1967 SWAP2 SWAP1 PUSH2 0x369D JUMP JUMPDEST PUSH1 0x40 MLOAD DUP1 SWAP2 SUB SWAP1 LOG4 POP POP POP POP POP POP POP POP JUMP JUMPDEST PUSH1 0x0 JUMPDEST DUP8 DUP8 SWAP1 POP DUP2 LT ISZERO PUSH2 0x209B JUMPI PUSH1 0x0 PUSH1 0x1 PUSH1 0x0 DUP12 PUSH20 0xFFFFFFFFFFFFFFFFFFFFFFFFFFFFFFFFFFFFFFFF AND PUSH20 0xFFFFFFFFFFFFFFFFFFFFFFFFFFFFFFFFFFFFFFFF AND DUP2 MSTORE PUSH1 0x20 ADD SWAP1 DUP2 MSTORE PUSH1 0x20 ADD PUSH1 0x0 KECCAK256 PUSH1 0x0 DUP11 DUP11 DUP6 DUP2 DUP2 LT PUSH2 0x19DD JUMPI PUSH2 0x19DC PUSH2 0x38E5 JUMP JUMPDEST JUMPDEST SWAP1 POP PUSH1 0x20 MUL ADD CALLDATALOAD DUP2 MSTORE PUSH1 0x20 ADD SWAP1 DUP2 MSTORE PUSH1 0x20 ADD PUSH1 0x0 KECCAK256 SWAP1 POP PUSH1 0x0 DUP11 SWAP1 POP DUP2 PUSH1 0x2 ADD PUSH1 0x14 SWAP1 SLOAD SWAP1 PUSH2 0x100 EXP SWAP1 DIV PUSH1 0xFF AND PUSH2 0x1A4A JUMPI PUSH1 0x40 MLOAD PUSH32 0x8C379A000000000000000000000000000000000000000000000000000000000 DUP2 MSTORE PUSH1 0x4 ADD PUSH2 0x1A41 SWAP1 PUSH2 0x365D JUMP JUMPDEST PUSH1 0x40 MLOAD DUP1 SWAP2 SUB SWAP1 REVERT JUMPDEST DUP2 PUSH1 0x1 ADD PUSH1 0x0 SWAP1 SLOAD SWAP1 PUSH2 0x100 EXP SWAP1 DIV PUSH20 0xFFFFFFFFFFFFFFFFFFFFFFFFFFFFFFFFFFFFFFFF AND PUSH20 0xFFFFFFFFFFFFFFFFFFFFFFFFFFFFFFFFFFFFFFFF AND CALLER PUSH20 0xFFFFFFFFFFFFFFFFFFFFFFFFFFFFFFFFFFFFFFFF AND EQ ISZERO PUSH2 0x1ADD JUMPI PUSH1 0x40 MLOAD PUSH32 0x8C379A000000000000000000000000000000000000000000000000000000000 DUP2 MSTORE PUSH1 0x4 ADD PUSH2 0x1AD4 SWAP1 PUSH2 0x35DD JUMP JUMPDEST PUSH1 0x40 MLOAD DUP1 SWAP2 SUB SWAP1 REVERT JUMPDEST DUP2 PUSH1 0x0 ADD SLOAD CALLVALUE LT ISZERO PUSH2 0x1B24 JUMPI PUSH1 0x40 MLOAD PUSH32 0x8C379A000000000000000000000000000000000000000000000000000000000 DUP2 MSTORE PUSH1 0x4 ADD PUSH2 0x1B1B SWAP1 PUSH2 0x35FD JUMP JUMPDEST PUSH1 0x40 MLOAD DUP1 SWAP2 SUB SWAP1 REVERT JUMPDEST DUP2 PUSH1 0x1 ADD PUSH1 0x0 SWAP1 SLOAD SWAP1 PUSH2 0x100 EXP SWAP1 DIV PUSH20 0xFFFFFFFFFFFFFFFFFFFFFFFFFFFFFFFFFFFFFFFF AND PUSH20 0xFFFFFFFFFFFFFFFFFFFFFFFFFFFFFFFFFFFFFFFF AND PUSH2 0x8FC PUSH1 0x14 DUP5 PUSH1 0x0 ADD SLOAD PUSH2 0x1B73 SWAP2 SWAP1 PUSH2 0x3791 JUMP JUMPDEST DUP5 PUSH1 0x0 ADD SLOAD PUSH2 0x1B82 SWAP2 SWAP1 PUSH2 0x37C2 JUMP JUMPDEST SWAP1 DUP2 ISZERO MUL SWAP1 PUSH1 0x40 MLOAD PUSH1 0x0 PUSH1 0x40 MLOAD DUP1 DUP4 SUB DUP2 DUP6 DUP9 DUP9 CALL SWAP4 POP POP POP POP ISZERO DUP1 ISZERO PUSH2 0x1BAD JUMPI RETURNDATASIZE PUSH1 0x0 DUP1 RETURNDATACOPY RETURNDATASIZE PUSH1 0x0 REVERT JUMPDEST POP PUSH2 0x1BB6 PUSH2 0x20A6 JUMP JUMPDEST PUSH20 0xFFFFFFFFFFFFFFFFFFFFFFFFFFFFFFFFFFFFFFFF AND PUSH2 0x8FC DUP9 SWAP1 DUP2 ISZERO MUL SWAP1 PUSH1 0x40 MLOAD PUSH1 0x0 PUSH1 0x40 MLOAD DUP1 DUP4 SUB DUP2 DUP6 DUP9 DUP9 CALL SWAP4 POP POP POP POP ISZERO DUP1 ISZERO PUSH2 0x1BFB JUMPI RETURNDATASIZE PUSH1 0x0 DUP1 RETURNDATACOPY RETURNDATASIZE PUSH1 0x0 REVERT JUMPDEST POP PUSH1 0x0 PUSH20 0xFFFFFFFFFFFFFFFFFFFFFFFFFFFFFFFFFFFFFFFF AND DUP9 PUSH20 0xFFFFFFFFFFFFFFFFFFFFFFFFFFFFFFFFFFFFFFFF AND EQ PUSH2 0x1C78 JUMPI DUP8 PUSH20 0xFFFFFFFFFFFFFFFFFFFFFFFFFFFFFFFFFFFFFFFF AND PUSH2 0x8FC DUP6 SWAP1 DUP2 ISZERO MUL SWAP1 PUSH1 0x40 MLOAD PUSH1 0x0 PUSH1 0x40 MLOAD DUP1 DUP4 SUB DUP2 DUP6 DUP9 DUP9 CALL SWAP4 POP POP POP POP ISZERO DUP1 ISZERO PUSH2 0x1C76 JUMPI RETURNDATASIZE PUSH1 0x0 DUP1 RETURNDATACOPY RETURNDATASIZE PUSH1 0x0 REVERT JUMPDEST POP JUMPDEST PUSH1 0x0 JUMPDEST PUSH1 0x5 DUP2 LT ISZERO PUSH2 0x1D9F JUMPI PUSH1 0x0 PUSH20 0xFFFFFFFFFFFFFFFFFFFFFFFFFFFFFFFFFFFFFFFF AND DUP4 PUSH1 0x5 ADD PUSH1 0x0 DUP4 DUP2 MSTORE PUSH1 0x20 ADD SWAP1 DUP2 MSTORE PUSH1 0x20 ADD PUSH1 0x0 KECCAK256 PUSH1 0x0 SWAP1 SLOAD SWAP1 PUSH2 0x100 EXP SWAP1 DIV PUSH20 0xFFFFFFFFFFFFFFFFFFFFFFFFFFFFFFFFFFFFFFFF AND PUSH20 0xFFFFFFFFFFFFFFFFFFFFFFFFFFFFFFFFFFFFFFFF AND EQ PUSH2 0x1D87 JUMPI DUP3 PUSH1 0x5 ADD PUSH1 0x0 DUP3 DUP2 MSTORE PUSH1 0x20 ADD SWAP1 DUP2 MSTORE PUSH1 0x20 ADD PUSH1 0x0 KECCAK256 PUSH1 0x0 SWAP1 SLOAD SWAP1 PUSH2 0x100 EXP SWAP1 DIV PUSH20 0xFFFFFFFFFFFFFFFFFFFFFFFFFFFFFFFFFFFFFFFF AND PUSH20 0xFFFFFFFFFFFFFFFFFFFFFFFFFFFFFFFFFFFFFFFF AND PUSH2 0x8FC DUP9 DUP9 DUP8 DUP2 DUP2 LT PUSH2 0x1D4F JUMPI PUSH2 0x1D4E PUSH2 0x38E5 JUMP JUMPDEST JUMPDEST SWAP1 POP PUSH1 0x20 MUL ADD CALLDATALOAD SWAP1 DUP2 ISZERO MUL SWAP1 PUSH1 0x40 MLOAD PUSH1 0x0 PUSH1 0x40 MLOAD DUP1 DUP4 SUB DUP2 DUP6 DUP9 DUP9 CALL SWAP4 POP POP POP POP ISZERO DUP1 ISZERO PUSH2 0x1D81 JUMPI RETURNDATASIZE PUSH1 0x0 DUP1 RETURNDATACOPY RETURNDATASIZE PUSH1 0x0 REVERT JUMPDEST POP PUSH2 0x1D8C JUMP JUMPDEST PUSH2 0x1D9F JUMP JUMPDEST DUP1 DUP1 PUSH2 0x1D97 SWAP1 PUSH2 0x383E JUMP JUMPDEST SWAP2 POP POP PUSH2 0x1C7B JUMP JUMPDEST POP DUP1 PUSH20 0xFFFFFFFFFFFFFFFFFFFFFFFFFFFFFFFFFFFFFFFF AND PUSH4 0xB88D4FDE DUP4 PUSH1 0x1 ADD PUSH1 0x0 SWAP1 SLOAD SWAP1 PUSH2 0x100 EXP SWAP1 DIV PUSH20 0xFFFFFFFFFFFFFFFFFFFFFFFFFFFFFFFFFFFFFFFF AND CALLER DUP14 DUP14 DUP9 DUP2 DUP2 LT PUSH2 0x1DF5 JUMPI PUSH2 0x1DF4 PUSH2 0x38E5 JUMP JUMPDEST JUMPDEST SWAP1 POP PUSH1 0x20 MUL ADD CALLDATALOAD PUSH1 0x40 MLOAD DUP5 PUSH4 0xFFFFFFFF AND PUSH1 0xE0 SHL DUP2 MSTORE PUSH1 0x4 ADD PUSH2 0x1E1A SWAP4 SWAP3 SWAP2 SWAP1 PUSH2 0x3518 JUMP JUMPDEST PUSH1 0x0 PUSH1 0x40 MLOAD DUP1 DUP4 SUB DUP2 PUSH1 0x0 DUP8 DUP1 EXTCODESIZE ISZERO DUP1 ISZERO PUSH2 0x1E34 JUMPI PUSH1 0x0 DUP1 REVERT JUMPDEST POP GAS CALL ISZERO DUP1 ISZERO PUSH2 0x1E48 JUMPI RETURNDATASIZE PUSH1 0x0 DUP1 RETURNDATACOPY RETURNDATASIZE PUSH1 0x0 REVERT JUMPDEST POP POP POP POP CALLER DUP3 PUSH1 0x2 ADD PUSH1 0x0 PUSH2 0x100 EXP DUP2 SLOAD DUP2 PUSH20 0xFFFFFFFFFFFFFFFFFFFFFFFFFFFFFFFFFFFFFFFF MUL NOT AND SWAP1 DUP4 PUSH20 0xFFFFFFFFFFFFFFFFFFFFFFFFFFFFFFFFFFFFFFFF AND MUL OR SWAP1 SSTORE POP PUSH1 0x5 DUP3 PUSH1 0x4 ADD SLOAD LT ISZERO PUSH2 0x1EB9 JUMPI PUSH1 0x1 DUP3 PUSH1 0x4 ADD PUSH1 0x0 DUP3 DUP3 SLOAD PUSH2 0x1EB1 SWAP2 SWAP1 PUSH2 0x373B JUMP JUMPDEST SWAP3 POP POP DUP2 SWAP1 SSTORE POP JUMPDEST PUSH1 0x3 DUP3 PUSH1 0x3 ADD SLOAD GT PUSH2 0x1F62 JUMPI DUP2 PUSH1 0x1 ADD PUSH1 0x0 SWAP1 SLOAD SWAP1 PUSH2 0x100 EXP SWAP1 DIV PUSH20 0xFFFFFFFFFFFFFFFFFFFFFFFFFFFFFFFFFFFFFFFF AND DUP3 PUSH1 0x5 ADD PUSH1 0x0 DUP5 PUSH1 0x3 ADD SLOAD DUP2 MSTORE PUSH1 0x20 ADD SWAP1 DUP2 MSTORE PUSH1 0x20 ADD PUSH1 0x0 KECCAK256 PUSH1 0x0 PUSH2 0x100 EXP DUP2 SLOAD DUP2 PUSH20 0xFFFFFFFFFFFFFFFFFFFFFFFFFFFFFFFFFFFFFFFF MUL NOT AND SWAP1 DUP4 PUSH20 0xFFFFFFFFFFFFFFFFFFFFFFFFFFFFFFFFFFFFFFFF AND MUL OR SWAP1 SSTORE POP PUSH1 0x1 DUP3 PUSH1 0x3 ADD PUSH1 0x0 DUP3 DUP3 SLOAD PUSH2 0x1F56 SWAP2 SWAP1 PUSH2 0x373B JUMP JUMPDEST SWAP3 POP POP DUP2 SWAP1 SSTORE POP PUSH2 0x1FE9 JUMP JUMPDEST DUP2 PUSH1 0x1 ADD PUSH1 0x0 SWAP1 SLOAD SWAP1 PUSH2 0x100 EXP SWAP1 DIV PUSH20 0xFFFFFFFFFFFFFFFFFFFFFFFFFFFFFFFFFFFFFFFF AND DUP3 PUSH1 0x5 ADD PUSH1 0x0 DUP5 PUSH1 0x3 ADD SLOAD DUP2 MSTORE PUSH1 0x20 ADD SWAP1 DUP2 MSTORE PUSH1 0x20 ADD PUSH1 0x0 KECCAK256 PUSH1 0x0 PUSH2 0x100 EXP DUP2 SLOAD DUP2 PUSH20 0xFFFFFFFFFFFFFFFFFFFFFFFFFFFFFFFFFFFFFFFF MUL NOT AND SWAP1 DUP4 PUSH20 0xFFFFFFFFFFFFFFFFFFFFFFFFFFFFFFFFFFFFFFFF AND MUL OR SWAP1 SSTORE POP PUSH1 0x0 DUP3 PUSH1 0x3 ADD DUP2 SWAP1 SSTORE POP JUMPDEST PUSH1 0x0 DUP3 PUSH1 0x2 ADD PUSH1 0x14 PUSH2 0x100 EXP DUP2 SLOAD DUP2 PUSH1 0xFF MUL NOT AND SWAP1 DUP4 ISZERO ISZERO MUL OR SWAP1 SSTORE POP DUP2 PUSH1 0x2 ADD PUSH1 0x14 SWAP1 SLOAD SWAP1 PUSH2 0x100 EXP SWAP1 DIV PUSH1 0xFF AND ISZERO ISZERO DUP11 DUP11 DUP6 DUP2 DUP2 LT PUSH2 0x202D JUMPI PUSH2 0x202C PUSH2 0x38E5 JUMP JUMPDEST JUMPDEST SWAP1 POP PUSH1 0x20 MUL ADD CALLDATALOAD CALLER PUSH20 0xFFFFFFFFFFFFFFFFFFFFFFFFFFFFFFFFFFFFFFFF AND PUSH32 0xA7CD299F7EBC29460AD99CF3EA75776D7CD038A63A59FA595E86441F8190EF90 DUP6 PUSH1 0x0 ADD SLOAD PUSH1 0x40 MLOAD PUSH2 0x207E SWAP2 SWAP1 PUSH2 0x369D JUMP JUMPDEST PUSH1 0x40 MLOAD DUP1 SWAP2 SUB SWAP1 LOG4 POP POP DUP1 DUP1 PUSH2 0x2093 SWAP1 PUSH2 0x383E JUMP JUMPDEST SWAP2 POP POP PUSH2 0x197C JUMP JUMPDEST POP POP POP POP POP POP POP POP POP JUMP JUMPDEST PUSH1 0x0 DUP1 PUSH1 0x0 SWAP1 SLOAD SWAP1 PUSH2 0x100 EXP SWAP1 DIV PUSH20 0xFFFFFFFFFFFFFFFFFFFFFFFFFFFFFFFFFFFFFFFF AND SWAP1 POP SWAP1 JUMP JUMPDEST PUSH1 0x0 DUP3 SWAP1 POP PUSH1 0x0 PUSH1 0x1 PUSH1 0x0 DUP6 PUSH20 0xFFFFFFFFFFFFFFFFFFFFFFFFFFFFFFFFFFFFFFFF AND PUSH20 0xFFFFFFFFFFFFFFFFFFFFFFFFFFFFFFFFFFFFFFFF AND DUP2 MSTORE PUSH1 0x20 ADD SWAP1 DUP2 MSTORE PUSH1 0x20 ADD PUSH1 0x0 KECCAK256 PUSH1 0x0 DUP5 DUP2 MSTORE PUSH1 0x20 ADD SWAP1 DUP2 MSTORE PUSH1 0x20 ADD PUSH1 0x0 KECCAK256 SWAP1 POP CALLER PUSH20 0xFFFFFFFFFFFFFFFFFFFFFFFFFFFFFFFFFFFFFFFF AND DUP2 PUSH1 0x1 ADD PUSH1 0x0 SWAP1 SLOAD SWAP1 PUSH2 0x100 EXP SWAP1 DIV PUSH20 0xFFFFFFFFFFFFFFFFFFFFFFFFFFFFFFFFFFFFFFFF AND PUSH20 0xFFFFFFFFFFFFFFFFFFFFFFFFFFFFFFFFFFFFFFFF AND EQ PUSH2 0x21BA JUMPI PUSH1 0x40 MLOAD PUSH32 0x8C379A000000000000000000000000000000000000000000000000000000000 DUP2 MSTORE PUSH1 0x4 ADD PUSH2 0x21B1 SWAP1 PUSH2 0x361D JUMP JUMPDEST PUSH1 0x40 MLOAD DUP1 SWAP2 SUB SWAP1 REVERT JUMPDEST DUP1 PUSH1 0x2 ADD PUSH1 0x14 SWAP1 SLOAD SWAP1 PUSH2 0x100 EXP SWAP1 DIV PUSH1 0xFF AND PUSH2 0x220B JUMPI PUSH1 0x40 MLOAD PUSH32 0x8C379A000000000000000000000000000000000000000000000000000000000 DUP2 MSTORE PUSH1 0x4 ADD PUSH2 0x2202 SWAP1 PUSH2 0x357D JUMP JUMPDEST PUSH1 0x40 MLOAD DUP1 SWAP2 SUB SWAP1 REVERT JUMPDEST DUP2 PUSH20 0xFFFFFFFFFFFFFFFFFFFFFFFFFFFFFFFFFFFFFFFF AND PUSH4 0xE985E9C5 CALLER ADDRESS PUSH1 0x40 MLOAD DUP4 PUSH4 0xFFFFFFFF AND PUSH1 0xE0 SHL DUP2 MSTORE PUSH1 0x4 ADD PUSH2 0x2246 SWAP3 SWAP2 SWAP1 PUSH2 0x34B8 JUMP JUMPDEST PUSH1 0x20 PUSH1 0x40 MLOAD DUP1 DUP4 SUB DUP2 DUP7 DUP1 EXTCODESIZE ISZERO DUP1 ISZERO PUSH2 0x225E JUMPI PUSH1 0x0 DUP1 REVERT JUMPDEST POP GAS STATICCALL ISZERO DUP1 ISZERO PUSH2 0x2272 JUMPI RETURNDATASIZE PUSH1 0x0 DUP1 RETURNDATACOPY RETURNDATASIZE PUSH1 0x0 REVERT JUMPDEST POP POP POP POP PUSH1 0x40 MLOAD RETURNDATASIZE PUSH1 0x1F NOT PUSH1 0x1F DUP3 ADD AND DUP3 ADD DUP1 PUSH1 0x40 MSTORE POP DUP2 ADD SWAP1 PUSH2 0x2296 SWAP2 SWAP1 PUSH2 0x3265 JUMP JUMPDEST PUSH2 0x22D5 JUMPI PUSH1 0x40 MLOAD PUSH32 0x8C379A000000000000000000000000000000000000000000000000000000000 DUP2 MSTORE PUSH1 0x4 ADD PUSH2 0x22CC SWAP1 PUSH2 0x359D JUMP JUMPDEST PUSH1 0x40 MLOAD DUP1 SWAP2 SUB SWAP1 REVERT JUMPDEST PUSH1 0x0 DUP2 PUSH1 0x2 ADD PUSH1 0x14 PUSH2 0x100 EXP DUP2 SLOAD DUP2 PUSH1 0xFF MUL NOT AND SWAP1 DUP4 ISZERO ISZERO MUL OR SWAP1 SSTORE POP DUP1 PUSH1 0x2 ADD PUSH1 0x14 SWAP1 SLOAD SWAP1 PUSH2 0x100 EXP SWAP1 DIV PUSH1 0xFF AND ISZERO ISZERO DUP4 CALLER PUSH20 0xFFFFFFFFFFFFFFFFFFFFFFFFFFFFFFFFFFFFFFFF AND PUSH32 0xA7CD299F7EBC29460AD99CF3EA75776D7CD038A63A59FA595E86441F8190EF90 DUP5 PUSH1 0x0 ADD SLOAD PUSH1 0x40 MLOAD PUSH2 0x2351 SWAP2 SWAP1 PUSH2 0x369D JUMP JUMPDEST PUSH1 0x40 MLOAD DUP1 SWAP2 SUB SWAP1 LOG4 POP POP POP POP JUMP JUMPDEST PUSH1 0x0 JUMPDEST DUP8 DUP8 SWAP1 POP DUP2 LT ISZERO PUSH2 0x2C09 JUMPI PUSH1 0x0 PUSH1 0x1 PUSH1 0x0 DUP13 PUSH20 0xFFFFFFFFFFFFFFFFFFFFFFFFFFFFFFFFFFFFFFFF AND PUSH20 0xFFFFFFFFFFFFFFFFFFFFFFFFFFFFFFFFFFFFFFFF AND DUP2 MSTORE PUSH1 0x20 ADD SWAP1 DUP2 MSTORE PUSH1 0x20 ADD PUSH1 0x0 KECCAK256 PUSH1 0x0 DUP11 DUP11 DUP6 DUP2 DUP2 LT PUSH2 0x23C3 JUMPI PUSH2 0x23C2 PUSH2 0x38E5 JUMP JUMPDEST JUMPDEST SWAP1 POP PUSH1 0x20 MUL ADD CALLDATALOAD DUP2 MSTORE PUSH1 0x20 ADD SWAP1 DUP2 MSTORE PUSH1 0x20 ADD PUSH1 0x0 KECCAK256 SWAP1 POP PUSH1 0x0 DUP12 SWAP1 POP PUSH1 0x0 DUP12 SWAP1 POP DUP3 PUSH1 0x2 ADD PUSH1 0x14 SWAP1 SLOAD SWAP1 PUSH2 0x100 EXP SWAP1 DIV PUSH1 0xFF AND PUSH2 0x2435 JUMPI PUSH1 0x40 MLOAD PUSH32 0x8C379A000000000000000000000000000000000000000000000000000000000 DUP2 MSTORE PUSH1 0x4 ADD PUSH2 0x242C SWAP1 PUSH2 0x365D JUMP JUMPDEST PUSH1 0x40 MLOAD DUP1 SWAP2 SUB SWAP1 REVERT JUMPDEST DUP3 PUSH1 0x1 ADD PUSH1 0x0 SWAP1 SLOAD SWAP1 PUSH2 0x100 EXP SWAP1 DIV PUSH20 0xFFFFFFFFFFFFFFFFFFFFFFFFFFFFFFFFFFFFFFFF AND PUSH20 0xFFFFFFFFFFFFFFFFFFFFFFFFFFFFFFFFFFFFFFFF AND CALLER PUSH20 0xFFFFFFFFFFFFFFFFFFFFFFFFFFFFFFFFFFFFFFFF AND EQ ISZERO PUSH2 0x24C8 JUMPI PUSH1 0x40 MLOAD PUSH32 0x8C379A000000000000000000000000000000000000000000000000000000000 DUP2 MSTORE PUSH1 0x4 ADD PUSH2 0x24BF SWAP1 PUSH2 0x35DD JUMP JUMPDEST PUSH1 0x40 MLOAD DUP1 SWAP2 SUB SWAP1 REVERT JUMPDEST DUP3 PUSH1 0x0 ADD SLOAD DUP2 PUSH20 0xFFFFFFFFFFFFFFFFFFFFFFFFFFFFFFFFFFFFFFFF AND PUSH4 0x70A08231 CALLER PUSH1 0x40 MLOAD DUP3 PUSH4 0xFFFFFFFF AND PUSH1 0xE0 SHL DUP2 MSTORE PUSH1 0x4 ADD PUSH2 0x2506 SWAP2 SWAP1 PUSH2 0x349D JUMP JUMPDEST PUSH1 0x20 PUSH1 0x40 MLOAD DUP1 DUP4 SUB DUP2 DUP7 DUP1 EXTCODESIZE ISZERO DUP1 ISZERO PUSH2 0x251E JUMPI PUSH1 0x0 DUP1 REVERT JUMPDEST POP GAS STATICCALL ISZERO DUP1 ISZERO PUSH2 0x2532 JUMPI RETURNDATASIZE PUSH1 0x0 DUP1 RETURNDATACOPY RETURNDATASIZE PUSH1 0x0 REVERT JUMPDEST POP POP POP POP PUSH1 0x40 MLOAD RETURNDATASIZE PUSH1 0x1F NOT PUSH1 0x1F DUP3 ADD AND DUP3 ADD DUP1 PUSH1 0x40 MSTORE POP DUP2 ADD SWAP1 PUSH2 0x2556 SWAP2 SWAP1 PUSH2 0x3292 JUMP JUMPDEST LT ISZERO PUSH2 0x2597 JUMPI PUSH1 0x40 MLOAD PUSH32 0x8C379A000000000000000000000000000000000000000000000000000000000 DUP2 MSTORE PUSH1 0x4 ADD PUSH2 0x258E SWAP1 PUSH2 0x35FD JUMP JUMPDEST PUSH1 0x40 MLOAD DUP1 SWAP2 SUB SWAP1 REVERT JUMPDEST DUP1 PUSH20 0xFFFFFFFFFFFFFFFFFFFFFFFFFFFFFFFFFFFFFFFF AND PUSH4 0x23B872DD CALLER DUP6 PUSH1 0x1 ADD PUSH1 0x0 SWAP1 SLOAD SWAP1 PUSH2 0x100 EXP SWAP1 DIV PUSH20 0xFFFFFFFFFFFFFFFFFFFFFFFFFFFFFFFFFFFFFFFF AND PUSH1 0x14 DUP8 PUSH1 0x0 ADD SLOAD PUSH2 0x25EA SWAP2 SWAP1 PUSH2 0x3791 JUMP JUMPDEST DUP8 PUSH1 0x0 ADD SLOAD PUSH2 0x25F9 SWAP2 SWAP1 PUSH2 0x37C2 JUMP JUMPDEST PUSH1 0x40 MLOAD DUP5 PUSH4 0xFFFFFFFF AND PUSH1 0xE0 SHL DUP2 MSTORE PUSH1 0x4 ADD PUSH2 0x2617 SWAP4 SWAP3 SWAP2 SWAP1 PUSH2 0x34E1 JUMP JUMPDEST PUSH1 0x20 PUSH1 0x40 MLOAD DUP1 DUP4 SUB DUP2 PUSH1 0x0 DUP8 DUP1 EXTCODESIZE ISZERO DUP1 ISZERO PUSH2 0x2631 JUMPI PUSH1 0x0 DUP1 REVERT JUMPDEST POP GAS CALL ISZERO DUP1 ISZERO PUSH2 0x2645 JUMPI RETURNDATASIZE PUSH1 0x0 DUP1 RETURNDATACOPY RETURNDATASIZE PUSH1 0x0 REVERT JUMPDEST POP POP POP POP PUSH1 0x40 MLOAD RETURNDATASIZE PUSH1 0x1F NOT PUSH1 0x1F DUP3 ADD AND DUP3 ADD DUP1 PUSH1 0x40 MSTORE POP DUP2 ADD SWAP1 PUSH2 0x2669 SWAP2 SWAP1 PUSH2 0x3265 JUMP JUMPDEST POP DUP1 PUSH20 0xFFFFFFFFFFFFFFFFFFFFFFFFFFFFFFFFFFFFFFFF AND PUSH4 0x23B872DD CALLER PUSH2 0x268F PUSH2 0x20A6 JUMP JUMPDEST DUP12 PUSH1 0x40 MLOAD DUP5 PUSH4 0xFFFFFFFF AND PUSH1 0xE0 SHL DUP2 MSTORE PUSH1 0x4 ADD PUSH2 0x26AE SWAP4 SWAP3 SWAP2 SWAP1 PUSH2 0x34E1 JUMP JUMPDEST PUSH1 0x20 PUSH1 0x40 MLOAD DUP1 DUP4 SUB DUP2 PUSH1 0x0 DUP8 DUP1 EXTCODESIZE ISZERO DUP1 ISZERO PUSH2 0x26C8 JUMPI PUSH1 0x0 DUP1 REVERT JUMPDEST POP GAS CALL ISZERO DUP1 ISZERO PUSH2 0x26DC JUMPI RETURNDATASIZE PUSH1 0x0 DUP1 RETURNDATACOPY RETURNDATASIZE PUSH1 0x0 REVERT JUMPDEST POP POP POP POP PUSH1 0x40 MLOAD RETURNDATASIZE PUSH1 0x1F NOT PUSH1 0x1F DUP3 ADD AND DUP3 ADD DUP1 PUSH1 0x40 MSTORE POP DUP2 ADD SWAP1 PUSH2 0x2700 SWAP2 SWAP1 PUSH2 0x3265 JUMP JUMPDEST POP PUSH1 0x0 PUSH20 0xFFFFFFFFFFFFFFFFFFFFFFFFFFFFFFFFFFFFFFFF AND DUP10 PUSH20 0xFFFFFFFFFFFFFFFFFFFFFFFFFFFFFFFFFFFFFFFF AND EQ PUSH2 0x27C6 JUMPI DUP1 PUSH20 0xFFFFFFFFFFFFFFFFFFFFFFFFFFFFFFFFFFFFFFFF AND PUSH4 0x23B872DD CALLER DUP12 DUP9 PUSH1 0x40 MLOAD DUP5 PUSH4 0xFFFFFFFF AND PUSH1 0xE0 SHL DUP2 MSTORE PUSH1 0x4 ADD PUSH2 0x2772 SWAP4 SWAP3 SWAP2 SWAP1 PUSH2 0x34E1 JUMP JUMPDEST PUSH1 0x20 PUSH1 0x40 MLOAD DUP1 DUP4 SUB DUP2 PUSH1 0x0 DUP8 DUP1 EXTCODESIZE ISZERO DUP1 ISZERO PUSH2 0x278C JUMPI PUSH1 0x0 DUP1 REVERT JUMPDEST POP GAS CALL ISZERO DUP1 ISZERO PUSH2 0x27A0 JUMPI RETURNDATASIZE PUSH1 0x0 DUP1 RETURNDATACOPY RETURNDATASIZE PUSH1 0x0 REVERT JUMPDEST POP POP POP POP PUSH1 0x40 MLOAD RETURNDATASIZE PUSH1 0x1F NOT PUSH1 0x1F DUP3 ADD AND DUP3 ADD DUP1 PUSH1 0x40 MSTORE POP DUP2 ADD SWAP1 PUSH2 0x27C4 SWAP2 SWAP1 PUSH2 0x3265 JUMP JUMPDEST POP JUMPDEST PUSH1 0x0 JUMPDEST PUSH1 0x5 DUP2 LT ISZERO PUSH2 0x2936 JUMPI PUSH1 0x0 PUSH20 0xFFFFFFFFFFFFFFFFFFFFFFFFFFFFFFFFFFFFFFFF AND DUP5 PUSH1 0x5 ADD PUSH1 0x0 DUP4 DUP2 MSTORE PUSH1 0x20 ADD SWAP1 DUP2 MSTORE PUSH1 0x20 ADD PUSH1 0x0 KECCAK256 PUSH1 0x0 SWAP1 SLOAD SWAP1 PUSH2 0x100 EXP SWAP1 DIV PUSH20 0xFFFFFFFFFFFFFFFFFFFFFFFFFFFFFFFFFFFFFFFF AND PUSH20 0xFFFFFFFFFFFFFFFFFFFFFFFFFFFFFFFFFFFFFFFF AND EQ PUSH2 0x291E JUMPI DUP2 PUSH20 0xFFFFFFFFFFFFFFFFFFFFFFFFFFFFFFFFFFFFFFFF AND PUSH4 0x23B872DD CALLER DUP7 PUSH1 0x5 ADD PUSH1 0x0 DUP6 DUP2 MSTORE PUSH1 0x20 ADD SWAP1 DUP2 MSTORE PUSH1 0x20 ADD PUSH1 0x0 KECCAK256 PUSH1 0x0 SWAP1 SLOAD SWAP1 PUSH2 0x100 EXP SWAP1 DIV PUSH20 0xFFFFFFFFFFFFFFFFFFFFFFFFFFFFFFFFFFFFFFFF AND DUP12 DUP12 DUP11 DUP2 DUP2 LT PUSH2 0x28A1 JUMPI PUSH2 0x28A0 PUSH2 0x38E5 JUMP JUMPDEST JUMPDEST SWAP1 POP PUSH1 0x20 MUL ADD CALLDATALOAD PUSH1 0x40 MLOAD DUP5 PUSH4 0xFFFFFFFF AND PUSH1 0xE0 SHL DUP2 MSTORE PUSH1 0x4 ADD PUSH2 0x28C6 SWAP4 SWAP3 SWAP2 SWAP1 PUSH2 0x34E1 JUMP JUMPDEST PUSH1 0x20 PUSH1 0x40 MLOAD DUP1 DUP4 SUB DUP2 PUSH1 0x0 DUP8 DUP1 EXTCODESIZE ISZERO DUP1 ISZERO PUSH2 0x28E0 JUMPI PUSH1 0x0 DUP1 REVERT JUMPDEST POP GAS CALL ISZERO DUP1 ISZERO PUSH2 0x28F4 JUMPI RETURNDATASIZE PUSH1 0x0 DUP1 RETURNDATACOPY RETURNDATASIZE PUSH1 0x0 REVERT JUMPDEST POP POP POP POP PUSH1 0x40 MLOAD RETURNDATASIZE PUSH1 0x1F NOT PUSH1 0x1F DUP3 ADD AND DUP3 ADD DUP1 PUSH1 0x40 MSTORE POP DUP2 ADD SWAP1 PUSH2 0x2918 SWAP2 SWAP1 PUSH2 0x3265 JUMP JUMPDEST POP PUSH2 0x2923 JUMP JUMPDEST PUSH2 0x2936 JUMP JUMPDEST DUP1 DUP1 PUSH2 0x292E SWAP1 PUSH2 0x383E JUMP JUMPDEST SWAP2 POP POP PUSH2 0x27C9 JUMP JUMPDEST POP DUP2 PUSH20 0xFFFFFFFFFFFFFFFFFFFFFFFFFFFFFFFFFFFFFFFF AND PUSH4 0xB88D4FDE DUP5 PUSH1 0x1 ADD PUSH1 0x0 SWAP1 SLOAD SWAP1 PUSH2 0x100 EXP SWAP1 DIV PUSH20 0xFFFFFFFFFFFFFFFFFFFFFFFFFFFFFFFFFFFFFFFF AND CALLER DUP15 DUP15 DUP10 DUP2 DUP2 LT PUSH2 0x298C JUMPI PUSH2 0x298B PUSH2 0x38E5 JUMP JUMPDEST JUMPDEST SWAP1 POP PUSH1 0x20 MUL ADD CALLDATALOAD PUSH1 0x40 MLOAD DUP5 PUSH4 0xFFFFFFFF AND PUSH1 0xE0 SHL DUP2 MSTORE PUSH1 0x4 ADD PUSH2 0x29B1 SWAP4 SWAP3 SWAP2 SWAP1 PUSH2 0x3518 JUMP JUMPDEST PUSH1 0x0 PUSH1 0x40 MLOAD DUP1 DUP4 SUB DUP2 PUSH1 0x0 DUP8 DUP1 EXTCODESIZE ISZERO DUP1 ISZERO PUSH2 0x29CB JUMPI PUSH1 0x0 DUP1 REVERT JUMPDEST POP GAS CALL ISZERO DUP1 ISZERO PUSH2 0x29DF JUMPI RETURNDATASIZE PUSH1 0x0 DUP1 RETURNDATACOPY RETURNDATASIZE PUSH1 0x0 REVERT JUMPDEST POP POP POP POP CALLER DUP4 PUSH1 0x2 ADD PUSH1 0x0 PUSH2 0x100 EXP DUP2 SLOAD DUP2 PUSH20 0xFFFFFFFFFFFFFFFFFFFFFFFFFFFFFFFFFFFFFFFF MUL NOT AND SWAP1 DUP4 PUSH20 0xFFFFFFFFFFFFFFFFFFFFFFFFFFFFFFFFFFFFFFFF AND MUL OR SWAP1 SSTORE POP PUSH1 0x3 DUP4 PUSH1 0x3 ADD SLOAD GT PUSH2 0x2ACF JUMPI DUP3 PUSH1 0x1 ADD PUSH1 0x0 SWAP1 SLOAD SWAP1 PUSH2 0x100 EXP SWAP1 DIV PUSH20 0xFFFFFFFFFFFFFFFFFFFFFFFFFFFFFFFFFFFFFFFF AND DUP4 PUSH1 0x5 ADD PUSH1 0x0 DUP6 PUSH1 0x3 ADD SLOAD DUP2 MSTORE PUSH1 0x20 ADD SWAP1 DUP2 MSTORE PUSH1 0x20 ADD PUSH1 0x0 KECCAK256 PUSH1 0x0 PUSH2 0x100 EXP DUP2 SLOAD DUP2 PUSH20 0xFFFFFFFFFFFFFFFFFFFFFFFFFFFFFFFFFFFFFFFF MUL NOT AND SWAP1 DUP4 PUSH20 0xFFFFFFFFFFFFFFFFFFFFFFFFFFFFFFFFFFFFFFFF AND MUL OR SWAP1 SSTORE POP PUSH1 0x1 DUP4 PUSH1 0x3 ADD PUSH1 0x0 DUP3 DUP3 SLOAD PUSH2 0x2AC3 SWAP2 SWAP1 PUSH2 0x373B JUMP JUMPDEST SWAP3 POP POP DUP2 SWAP1 SSTORE POP PUSH2 0x2B56 JUMP JUMPDEST DUP3 PUSH1 0x1 ADD PUSH1 0x0 SWAP1 SLOAD SWAP1 PUSH2 0x100 EXP SWAP1 DIV PUSH20 0xFFFFFFFFFFFFFFFFFFFFFFFFFFFFFFFFFFFFFFFF AND DUP4 PUSH1 0x5 ADD PUSH1 0x0 DUP6 PUSH1 0x3 ADD SLOAD DUP2 MSTORE PUSH1 0x20 ADD SWAP1 DUP2 MSTORE PUSH1 0x20 ADD PUSH1 0x0 KECCAK256 PUSH1 0x0 PUSH2 0x100 EXP DUP2 SLOAD DUP2 PUSH20 0xFFFFFFFFFFFFFFFFFFFFFFFFFFFFFFFFFFFFFFFF MUL NOT AND SWAP1 DUP4 PUSH20 0xFFFFFFFFFFFFFFFFFFFFFFFFFFFFFFFFFFFFFFFF AND MUL OR SWAP1 SSTORE POP PUSH1 0x0 DUP4 PUSH1 0x3 ADD DUP2 SWAP1 SSTORE POP JUMPDEST PUSH1 0x0 DUP4 PUSH1 0x2 ADD PUSH1 0x14 PUSH2 0x100 EXP DUP2 SLOAD DUP2 PUSH1 0xFF MUL NOT AND SWAP1 DUP4 ISZERO ISZERO MUL OR SWAP1 SSTORE POP DUP3 PUSH1 0x2 ADD PUSH1 0x14 SWAP1 SLOAD SWAP1 PUSH2 0x100 EXP SWAP1 DIV PUSH1 0xFF AND ISZERO ISZERO DUP12 DUP12 DUP7 DUP2 DUP2 LT PUSH2 0x2B9A JUMPI PUSH2 0x2B99 PUSH2 0x38E5 JUMP JUMPDEST JUMPDEST SWAP1 POP PUSH1 0x20 MUL ADD CALLDATALOAD CALLER PUSH20 0xFFFFFFFFFFFFFFFFFFFFFFFFFFFFFFFFFFFFFFFF AND PUSH32 0xA7CD299F7EBC29460AD99CF3EA75776D7CD038A63A59FA595E86441F8190EF90 DUP7 PUSH1 0x0 ADD SLOAD PUSH1 0x40 MLOAD PUSH2 0x2BEB SWAP2 SWAP1 PUSH2 0x369D JUMP JUMPDEST PUSH1 0x40 MLOAD DUP1 SWAP2 SUB SWAP1 LOG4 POP POP POP DUP1 DUP1 PUSH2 0x2C01 SWAP1 PUSH2 0x383E JUMP JUMPDEST SWAP2 POP POP PUSH2 0x2362 JUMP JUMPDEST POP POP POP POP POP POP POP POP POP POP JUMP JUMPDEST PUSH2 0x2C1D PUSH2 0x2D0D JUMP JUMPDEST PUSH20 0xFFFFFFFFFFFFFFFFFFFFFFFFFFFFFFFFFFFFFFFF AND PUSH2 0x2C3B PUSH2 0x20A6 JUMP JUMPDEST PUSH20 0xFFFFFFFFFFFFFFFFFFFFFFFFFFFFFFFFFFFFFFFF AND EQ PUSH2 0x2C91 JUMPI PUSH1 0x40 MLOAD PUSH32 0x8C379A000000000000000000000000000000000000000000000000000000000 DUP2 MSTORE PUSH1 0x4 ADD PUSH2 0x2C88 SWAP1 PUSH2 0x363D JUMP JUMPDEST PUSH1 0x40 MLOAD DUP1 SWAP2 SUB SWAP1 REVERT JUMPDEST PUSH1 0x0 PUSH20 0xFFFFFFFFFFFFFFFFFFFFFFFFFFFFFFFFFFFFFFFF AND DUP2 PUSH20 0xFFFFFFFFFFFFFFFFFFFFFFFFFFFFFFFFFFFFFFFF AND EQ ISZERO PUSH2 0x2D01 JUMPI PUSH1 0x40 MLOAD PUSH32 0x8C379A000000000000000000000000000000000000000000000000000000000 DUP2 MSTORE PUSH1 0x4 ADD PUSH2 0x2CF8 SWAP1 PUSH2 0x35BD JUMP JUMPDEST PUSH1 0x40 MLOAD DUP1 SWAP2 SUB SWAP1 REVERT JUMPDEST PUSH2 0x2D0A DUP2 PUSH2 0x2D15 JUMP JUMPDEST POP JUMP JUMPDEST PUSH1 0x0 CALLER SWAP1 POP SWAP1 JUMP JUMPDEST PUSH1 0x0 DUP1 PUSH1 0x0 SWAP1 SLOAD SWAP1 PUSH2 0x100 EXP SWAP1 DIV PUSH20 0xFFFFFFFFFFFFFFFFFFFFFFFFFFFFFFFFFFFFFFFF AND SWAP1 POP DUP2 PUSH1 0x0 DUP1 PUSH2 0x100 EXP DUP2 SLOAD DUP2 PUSH20 0xFFFFFFFFFFFFFFFFFFFFFFFFFFFFFFFFFFFFFFFF MUL NOT AND SWAP1 DUP4 PUSH20 0xFFFFFFFFFFFFFFFFFFFFFFFFFFFFFFFFFFFFFFFF AND MUL OR SWAP1 SSTORE POP DUP2 PUSH20 0xFFFFFFFFFFFFFFFFFFFFFFFFFFFFFFFFFFFFFFFF AND DUP2 PUSH20 0xFFFFFFFFFFFFFFFFFFFFFFFFFFFFFFFFFFFFFFFF AND PUSH32 0x8BE0079C531659141344CD1FD0A4F28419497F9722A3DAAFE3B4186F6B6457E0 PUSH1 0x40 MLOAD PUSH1 0x40 MLOAD DUP1 SWAP2 SUB SWAP1 LOG3 POP POP JUMP JUMPDEST PUSH1 0x0 DUP2 CALLDATALOAD SWAP1 POP PUSH2 0x2DE8 DUP2 PUSH2 0x3AC7 JUMP JUMPDEST SWAP3 SWAP2 POP POP JUMP JUMPDEST PUSH1 0x0 DUP2 MLOAD SWAP1 POP PUSH2 0x2DFD DUP2 PUSH2 0x3AC7 JUMP JUMPDEST SWAP3 SWAP2 POP POP JUMP JUMPDEST PUSH1 0x0 DUP1 DUP4 PUSH1 0x1F DUP5 ADD SLT PUSH2 0x2E19 JUMPI PUSH2 0x2E18 PUSH2 0x3919 JUMP JUMPDEST JUMPDEST DUP3 CALLDATALOAD SWAP1 POP PUSH8 0xFFFFFFFFFFFFFFFF DUP2 GT ISZERO PUSH2 0x2E36 JUMPI PUSH2 0x2E35 PUSH2 0x3914 JUMP JUMPDEST JUMPDEST PUSH1 0x20 DUP4 ADD SWAP2 POP DUP4 PUSH1 0x20 DUP3 MUL DUP4 ADD GT ISZERO PUSH2 0x2E52 JUMPI PUSH2 0x2E51 PUSH2 0x391E JUMP JUMPDEST JUMPDEST SWAP3 POP SWAP3 SWAP1 POP JUMP JUMPDEST PUSH1 0x0 DUP2 MLOAD SWAP1 POP PUSH2 0x2E68 DUP2 PUSH2 0x3ADE JUMP JUMPDEST SWAP3 SWAP2 POP POP JUMP JUMPDEST PUSH1 0x0 DUP2 CALLDATALOAD SWAP1 POP PUSH2 0x2E7D DUP2 PUSH2 0x3AF5 JUMP JUMPDEST SWAP3 SWAP2 POP POP JUMP JUMPDEST PUSH1 0x0 DUP2 MLOAD SWAP1 POP PUSH2 0x2E92 DUP2 PUSH2 0x3AF5 JUMP JUMPDEST SWAP3 SWAP2 POP POP JUMP JUMPDEST PUSH1 0x0 PUSH1 0x20 DUP3 DUP5 SUB SLT ISZERO PUSH2 0x2EAE JUMPI PUSH2 0x2EAD PUSH2 0x3928 JUMP JUMPDEST JUMPDEST PUSH1 0x0 PUSH2 0x2EBC DUP5 DUP3 DUP6 ADD PUSH2 0x2DD9 JUMP JUMPDEST SWAP2 POP POP SWAP3 SWAP2 POP POP JUMP JUMPDEST PUSH1 0x0 PUSH1 0x20 DUP3 DUP5 SUB SLT ISZERO PUSH2 0x2EDB JUMPI PUSH2 0x2EDA PUSH2 0x3928 JUMP JUMPDEST JUMPDEST PUSH1 0x0 PUSH2 0x2EE9 DUP5 DUP3 DUP6 ADD PUSH2 0x2DEE JUMP JUMPDEST SWAP2 POP POP SWAP3 SWAP2 POP POP JUMP JUMPDEST PUSH1 0x0 DUP1 PUSH1 0x0 DUP1 PUSH1 0x0 DUP1 PUSH1 0x0 DUP1 PUSH1 0x0 PUSH1 0xE0 DUP11 DUP13 SUB SLT ISZERO PUSH2 0x2F14 JUMPI PUSH2 0x2F13 PUSH2 0x3928 JUMP JUMPDEST JUMPDEST PUSH1 0x0 PUSH2 0x2F22 DUP13 DUP3 DUP14 ADD PUSH2 0x2DD9 JUMP JUMPDEST SWAP10 POP POP PUSH1 0x20 PUSH2 0x2F33 DUP13 DUP3 DUP14 ADD PUSH2 0x2DD9 JUMP JUMPDEST SWAP9 POP POP PUSH1 0x40 DUP11 ADD CALLDATALOAD PUSH8 0xFFFFFFFFFFFFFFFF DUP2 GT ISZERO PUSH2 0x2F54 JUMPI PUSH2 0x2F53 PUSH2 0x3923 JUMP JUMPDEST JUMPDEST PUSH2 0x2F60 DUP13 DUP3 DUP14 ADD PUSH2 0x2E03 JUMP JUMPDEST SWAP8 POP SWAP8 POP POP PUSH1 0x60 PUSH2 0x2F73 DUP13 DUP3 DUP14 ADD PUSH2 0x2DD9 JUMP JUMPDEST SWAP6 POP POP PUSH1 0x80 PUSH2 0x2F84 DUP13 DUP3 DUP14 ADD PUSH2 0x2E6E JUMP JUMPDEST SWAP5 POP POP PUSH1 0xA0 DUP11 ADD CALLDATALOAD PUSH8 0xFFFFFFFFFFFFFFFF DUP2 GT ISZERO PUSH2 0x2FA5 JUMPI PUSH2 0x2FA4 PUSH2 0x3923 JUMP JUMPDEST JUMPDEST PUSH2 0x2FB1 DUP13 DUP3 DUP14 ADD PUSH2 0x2E03 JUMP JUMPDEST SWAP4 POP SWAP4 POP POP PUSH1 0xC0 PUSH2 0x2FC4 DUP13 DUP3 DUP14 ADD PUSH2 0x2E6E JUMP JUMPDEST SWAP2 POP POP SWAP3 SWAP6 SWAP9 POP SWAP3 SWAP6 SWAP9 POP SWAP3 SWAP6 SWAP9 JUMP JUMPDEST PUSH1 0x0 DUP1 PUSH1 0x0 DUP1 PUSH1 0x0 DUP1 PUSH1 0x0 PUSH1 0xE0 DUP9 DUP11 SUB SLT ISZERO PUSH2 0x2FF3 JUMPI PUSH2 0x2FF2 PUSH2 0x3928 JUMP JUMPDEST JUMPDEST PUSH1 0x0 PUSH2 0x3001 DUP11 DUP3 DUP12 ADD PUSH2 0x2DD9 JUMP JUMPDEST SWAP8 POP POP PUSH1 0x20 PUSH2 0x3012 DUP11 DUP3 DUP12 ADD PUSH2 0x2DD9 JUMP JUMPDEST SWAP7 POP POP PUSH1 0x40 PUSH2 0x3023 DUP11 DUP3 DUP12 ADD PUSH2 0x2E6E JUMP JUMPDEST SWAP6 POP POP PUSH1 0x60 PUSH2 0x3034 DUP11 DUP3 DUP12 ADD PUSH2 0x2DD9 JUMP JUMPDEST SWAP5 POP POP PUSH1 0x80 PUSH2 0x3045 DUP11 DUP3 DUP12 ADD PUSH2 0x2E6E JUMP JUMPDEST SWAP4 POP POP PUSH1 0xA0 PUSH2 0x3056 DUP11 DUP3 DUP12 ADD PUSH2 0x2E6E JUMP JUMPDEST SWAP3 POP POP PUSH1 0xC0 PUSH2 0x3067 DUP11 DUP3 DUP12 ADD PUSH2 0x2E6E JUMP JUMPDEST SWAP2 POP POP SWAP3 SWAP6 SWAP9 SWAP2 SWAP5 SWAP8 POP SWAP3 SWAP6 POP JUMP JUMPDEST PUSH1 0x0 DUP1 PUSH1 0x0 DUP1 PUSH1 0x0 DUP1 PUSH1 0x0 DUP1 PUSH1 0xC0 DUP10 DUP12 SUB SLT ISZERO PUSH2 0x3096 JUMPI PUSH2 0x3095 PUSH2 0x3928 JUMP JUMPDEST JUMPDEST PUSH1 0x0 PUSH2 0x30A4 DUP12 DUP3 DUP13 ADD PUSH2 0x2DD9 JUMP JUMPDEST SWAP9 POP POP PUSH1 0x20 DUP10 ADD CALLDATALOAD PUSH8 0xFFFFFFFFFFFFFFFF DUP2 GT ISZERO PUSH2 0x30C5 JUMPI PUSH2 0x30C4 PUSH2 0x3923 JUMP JUMPDEST JUMPDEST PUSH2 0x30D1 DUP12 DUP3 DUP13 ADD PUSH2 0x2E03 JUMP JUMPDEST SWAP8 POP SWAP8 POP POP PUSH1 0x40 PUSH2 0x30E4 DUP12 DUP3 DUP13 ADD PUSH2 0x2DD9 JUMP JUMPDEST SWAP6 POP POP PUSH1 0x60 PUSH2 0x30F5 DUP12 DUP3 DUP13 ADD PUSH2 0x2E6E JUMP JUMPDEST SWAP5 POP POP PUSH1 0x80 DUP10 ADD CALLDATALOAD PUSH8 0xFFFFFFFFFFFFFFFF DUP2 GT ISZERO PUSH2 0x3116 JUMPI PUSH2 0x3115 PUSH2 0x3923 JUMP JUMPDEST JUMPDEST PUSH2 0x3122 DUP12 DUP3 DUP13 ADD PUSH2 0x2E03 JUMP JUMPDEST SWAP4 POP SWAP4 POP POP PUSH1 0xA0 PUSH2 0x3135 DUP12 DUP3 DUP13 ADD PUSH2 0x2E6E JUMP JUMPDEST SWAP2 POP POP SWAP3 SWAP6 SWAP9 POP SWAP3 SWAP6 SWAP9 SWAP1 SWAP4 SWAP7 POP JUMP JUMPDEST PUSH1 0x0 DUP1 PUSH1 0x40 DUP4 DUP6 SUB SLT ISZERO PUSH2 0x315C JUMPI PUSH2 0x315B PUSH2 0x3928 JUMP JUMPDEST JUMPDEST PUSH1 0x0 PUSH2 0x316A DUP6 DUP3 DUP7 ADD PUSH2 0x2DD9 JUMP JUMPDEST SWAP3 POP POP PUSH1 0x20 PUSH2 0x317B DUP6 DUP3 DUP7 ADD PUSH2 0x2E6E JUMP JUMPDEST SWAP2 POP POP SWAP3 POP SWAP3 SWAP1 POP JUMP JUMPDEST PUSH1 0x0 DUP1 PUSH1 0x0 DUP1 PUSH1 0x0 DUP1 PUSH1 0xC0 DUP8 DUP10 SUB SLT ISZERO PUSH2 0x31A2 JUMPI PUSH2 0x31A1 PUSH2 0x3928 JUMP JUMPDEST JUMPDEST PUSH1 0x0 PUSH2 0x31B0 DUP10 DUP3 DUP11 ADD PUSH2 0x2DD9 JUMP JUMPDEST SWAP7 POP POP PUSH1 0x20 PUSH2 0x31C1 DUP10 DUP3 DUP11 ADD PUSH2 0x2E6E JUMP JUMPDEST SWAP6 POP POP PUSH1 0x40 PUSH2 0x31D2 DUP10 DUP3 DUP11 ADD PUSH2 0x2DD9 JUMP JUMPDEST SWAP5 POP POP PUSH1 0x60 PUSH2 0x31E3 DUP10 DUP3 DUP11 ADD PUSH2 0x2E6E JUMP JUMPDEST SWAP4 POP POP PUSH1 0x80 PUSH2 0x31F4 DUP10 DUP3 DUP11 ADD PUSH2 0x2E6E JUMP JUMPDEST SWAP3 POP POP PUSH1 0xA0 PUSH2 0x3205 DUP10 DUP3 DUP11 ADD PUSH2 0x2E6E JUMP JUMPDEST SWAP2 POP POP SWAP3 SWAP6 POP SWAP3 SWAP6 POP SWAP3 SWAP6 JUMP JUMPDEST PUSH1 0x0 DUP1 PUSH1 0x0 PUSH1 0x60 DUP5 DUP7 SUB SLT ISZERO PUSH2 0x322B JUMPI PUSH2 0x322A PUSH2 0x3928 JUMP JUMPDEST JUMPDEST PUSH1 0x0 PUSH2 0x3239 DUP7 DUP3 DUP8 ADD PUSH2 0x2DD9 JUMP JUMPDEST SWAP4 POP POP PUSH1 0x20 PUSH2 0x324A DUP7 DUP3 DUP8 ADD PUSH2 0x2E6E JUMP JUMPDEST SWAP3 POP POP PUSH1 0x40 PUSH2 0x325B DUP7 DUP3 DUP8 ADD PUSH2 0x2E6E JUMP JUMPDEST SWAP2 POP POP SWAP3 POP SWAP3 POP SWAP3 JUMP JUMPDEST PUSH1 0x0 PUSH1 0x20 DUP3 DUP5 SUB SLT ISZERO PUSH2 0x327B JUMPI PUSH2 0x327A PUSH2 0x3928 JUMP JUMPDEST JUMPDEST PUSH1 0x0 PUSH2 0x3289 DUP5 DUP3 DUP6 ADD PUSH2 0x2E59 JUMP JUMPDEST SWAP2 POP POP SWAP3 SWAP2 POP POP JUMP JUMPDEST PUSH1 0x0 PUSH1 0x20 DUP3 DUP5 SUB SLT ISZERO PUSH2 0x32A8 JUMPI PUSH2 0x32A7 PUSH2 0x3928 JUMP JUMPDEST JUMPDEST PUSH1 0x0 PUSH2 0x32B6 DUP5 DUP3 DUP6 ADD PUSH2 0x2E83 JUMP JUMPDEST SWAP2 POP POP SWAP3 SWAP2 POP POP JUMP JUMPDEST PUSH1 0x0 DUP1 PUSH1 0x0 PUSH1 0x60 DUP5 DUP7 SUB SLT ISZERO PUSH2 0x32D8 JUMPI PUSH2 0x32D7 PUSH2 0x3928 JUMP JUMPDEST JUMPDEST PUSH1 0x0 PUSH2 0x32E6 DUP7 DUP3 DUP8 ADD PUSH2 0x2E6E JUMP JUMPDEST SWAP4 POP POP PUSH1 0x20 PUSH2 0x32F7 DUP7 DUP3 DUP8 ADD PUSH2 0x2DD9 JUMP JUMPDEST SWAP3 POP POP PUSH1 0x40 PUSH2 0x3308 DUP7 DUP3 DUP8 ADD PUSH2 0x2E6E JUMP JUMPDEST SWAP2 POP POP SWAP3 POP SWAP3 POP SWAP3 JUMP JUMPDEST PUSH2 0x331B DUP2 PUSH2 0x37F6 JUMP JUMPDEST DUP3 MSTORE POP POP JUMP JUMPDEST PUSH2 0x332A DUP2 PUSH2 0x3808 JUMP JUMPDEST DUP3 MSTORE POP POP JUMP JUMPDEST PUSH1 0x0 PUSH2 0x333D PUSH1 0x18 DUP4 PUSH2 0x372A JUMP JUMPDEST SWAP2 POP PUSH2 0x3348 DUP3 PUSH2 0x392D JUMP JUMPDEST PUSH1 0x20 DUP3 ADD SWAP1 POP SWAP2 SWAP1 POP JUMP JUMPDEST PUSH1 0x0 PUSH2 0x3360 PUSH1 0x1A DUP4 PUSH2 0x372A JUMP JUMPDEST SWAP2 POP PUSH2 0x336B DUP3 PUSH2 0x3956 JUMP JUMPDEST PUSH1 0x20 DUP3 ADD SWAP1 POP SWAP2 SWAP1 POP JUMP JUMPDEST PUSH1 0x0 PUSH2 0x3383 PUSH1 0x26 DUP4 PUSH2 0x372A JUMP JUMPDEST SWAP2 POP PUSH2 0x338E DUP3 PUSH2 0x397F JUMP JUMPDEST PUSH1 0x40 DUP3 ADD SWAP1 POP SWAP2 SWAP1 POP JUMP JUMPDEST PUSH1 0x0 PUSH2 0x33A6 PUSH1 0x12 DUP4 PUSH2 0x372A JUMP JUMPDEST SWAP2 POP PUSH2 0x33B1 DUP3 PUSH2 0x39CE JUMP JUMPDEST PUSH1 0x20 DUP3 ADD SWAP1 POP SWAP2 SWAP1 POP JUMP JUMPDEST PUSH1 0x0 PUSH2 0x33C9 PUSH1 0x18 DUP4 PUSH2 0x372A JUMP JUMPDEST SWAP2 POP PUSH2 0x33D4 DUP3 PUSH2 0x39F7 JUMP JUMPDEST PUSH1 0x20 DUP3 ADD SWAP1 POP SWAP2 SWAP1 POP JUMP JUMPDEST PUSH1 0x0 PUSH2 0x33EC PUSH1 0xD DUP4 PUSH2 0x372A JUMP JUMPDEST SWAP2 POP PUSH2 0x33F7 DUP3 PUSH2 0x3A20 JUMP JUMPDEST PUSH1 0x20 DUP3 ADD SWAP1 POP SWAP2 SWAP1 POP JUMP JUMPDEST PUSH1 0x0 PUSH2 0x340F PUSH1 0x20 DUP4 PUSH2 0x372A JUMP JUMPDEST SWAP2 POP PUSH2 0x341A DUP3 PUSH2 0x3A49 JUMP JUMPDEST PUSH1 0x20 DUP3 ADD SWAP1 POP SWAP2 SWAP1 POP JUMP JUMPDEST PUSH1 0x0 PUSH2 0x3432 PUSH1 0x0 DUP4 PUSH2 0x3719 JUMP JUMPDEST SWAP2 POP PUSH2 0x343D DUP3 PUSH2 0x3A72 JUMP JUMPDEST PUSH1 0x0 DUP3 ADD SWAP1 POP SWAP2 SWAP1 POP JUMP JUMPDEST PUSH1 0x0 PUSH2 0x3455 PUSH1 0x19 DUP4 PUSH2 0x372A JUMP JUMPDEST SWAP2 POP PUSH2 0x3460 DUP3 PUSH2 0x3A75 JUMP JUMPDEST PUSH1 0x20 DUP3 ADD SWAP1 POP SWAP2 SWAP1 POP JUMP JUMPDEST PUSH1 0x0 PUSH2 0x3478 PUSH1 0x14 DUP4 PUSH2 0x372A JUMP JUMPDEST SWAP2 POP PUSH2 0x3483 DUP3 PUSH2 0x3A9E JUMP JUMPDEST PUSH1 0x20 DUP3 ADD SWAP1 POP SWAP2 SWAP1 POP JUMP JUMPDEST PUSH2 0x3497 DUP2 PUSH2 0x3834 JUMP JUMPDEST DUP3 MSTORE POP POP JUMP JUMPDEST PUSH1 0x0 PUSH1 0x20 DUP3 ADD SWAP1 POP PUSH2 0x34B2 PUSH1 0x0 DUP4 ADD DUP5 PUSH2 0x3312 JUMP JUMPDEST SWAP3 SWAP2 POP POP JUMP JUMPDEST PUSH1 0x0 PUSH1 0x40 DUP3 ADD SWAP1 POP PUSH2 0x34CD PUSH1 0x0 DUP4 ADD DUP6 PUSH2 0x3312 JUMP JUMPDEST PUSH2 0x34DA PUSH1 0x20 DUP4 ADD DUP5 PUSH2 0x3312 JUMP JUMPDEST SWAP4 SWAP3 POP POP POP JUMP JUMPDEST PUSH1 0x0 PUSH1 0x60 DUP3 ADD SWAP1 POP PUSH2 0x34F6 PUSH1 0x0 DUP4 ADD DUP7 PUSH2 0x3312 JUMP JUMPDEST PUSH2 0x3503 PUSH1 0x20 DUP4 ADD DUP6 PUSH2 0x3312 JUMP JUMPDEST PUSH2 0x3510 PUSH1 0x40 DUP4 ADD DUP5 PUSH2 0x348E JUMP JUMPDEST SWAP5 SWAP4 POP POP POP POP JUMP JUMPDEST PUSH1 0x0 PUSH1 0x80 DUP3 ADD SWAP1 POP PUSH2 0x352D PUSH1 0x0 DUP4 ADD DUP7 PUSH2 0x3312 JUMP JUMPDEST PUSH2 0x353A PUSH1 0x20 DUP4 ADD DUP6 PUSH2 0x3312 JUMP JUMPDEST PUSH2 0x3547 PUSH1 0x40 DUP4 ADD DUP5 PUSH2 0x348E JUMP JUMPDEST DUP2 DUP2 SUB PUSH1 0x60 DUP4 ADD MSTORE PUSH2 0x3558 DUP2 PUSH2 0x3425 JUMP JUMPDEST SWAP1 POP SWAP5 SWAP4 POP POP POP POP JUMP JUMPDEST PUSH1 0x0 PUSH1 0x20 DUP3 ADD SWAP1 POP PUSH2 0x3577 PUSH1 0x0 DUP4 ADD DUP5 PUSH2 0x3321 JUMP JUMPDEST SWAP3 SWAP2 POP POP JUMP JUMPDEST PUSH1 0x0 PUSH1 0x20 DUP3 ADD SWAP1 POP DUP2 DUP2 SUB PUSH1 0x0 DUP4 ADD MSTORE PUSH2 0x3596 DUP2 PUSH2 0x3330 JUMP JUMPDEST SWAP1 POP SWAP2 SWAP1 POP JUMP JUMPDEST PUSH1 0x0 PUSH1 0x20 DUP3 ADD SWAP1 POP DUP2 DUP2 SUB PUSH1 0x0 DUP4 ADD MSTORE PUSH2 0x35B6 DUP2 PUSH2 0x3353 JUMP JUMPDEST SWAP1 POP SWAP2 SWAP1 POP JUMP JUMPDEST PUSH1 0x0 PUSH1 0x20 DUP3 ADD SWAP1 POP DUP2 DUP2 SUB PUSH1 0x0 DUP4 ADD MSTORE PUSH2 0x35D6 DUP2 PUSH2 0x3376 JUMP JUMPDEST SWAP1 POP SWAP2 SWAP1 POP JUMP JUMPDEST PUSH1 0x0 PUSH1 0x20 DUP3 ADD SWAP1 POP DUP2 DUP2 SUB PUSH1 0x0 DUP4 ADD MSTORE PUSH2 0x35F6 DUP2 PUSH2 0x3399 JUMP JUMPDEST SWAP1 POP SWAP2 SWAP1 POP JUMP JUMPDEST PUSH1 0x0 PUSH1 0x20 DUP3 ADD SWAP1 POP DUP2 DUP2 SUB PUSH1 0x0 DUP4 ADD MSTORE PUSH2 0x3616 DUP2 PUSH2 0x33BC JUMP JUMPDEST SWAP1 POP SWAP2 SWAP1 POP JUMP JUMPDEST PUSH1 0x0 PUSH1 0x20 DUP3 ADD SWAP1 POP DUP2 DUP2 SUB PUSH1 0x0 DUP4 ADD MSTORE PUSH2 0x3636 DUP2 PUSH2 0x33DF JUMP JUMPDEST SWAP1 POP SWAP2 SWAP1 POP JUMP JUMPDEST PUSH1 0x0 PUSH1 0x20 DUP3 ADD SWAP1 POP DUP2 DUP2 SUB PUSH1 0x0 DUP4 ADD MSTORE PUSH2 0x3656 DUP2 PUSH2 0x3402 JUMP JUMPDEST SWAP1 POP SWAP2 SWAP1 POP JUMP JUMPDEST PUSH1 0x0 PUSH1 0x20 DUP3 ADD SWAP1 POP DUP2 DUP2 SUB PUSH1 0x0 DUP4 ADD MSTORE PUSH2 0x3676 DUP2 PUSH2 0x3448 JUMP JUMPDEST SWAP1 POP SWAP2 SWAP1 POP JUMP JUMPDEST PUSH1 0x0 PUSH1 0x20 DUP3 ADD SWAP1 POP DUP2 DUP2 SUB PUSH1 0x0 DUP4 ADD MSTORE PUSH2 0x3696 DUP2 PUSH2 0x346B JUMP JUMPDEST SWAP1 POP SWAP2 SWAP1 POP JUMP JUMPDEST PUSH1 0x0 PUSH1 0x20 DUP3 ADD SWAP1 POP PUSH2 0x36B2 PUSH1 0x0 DUP4 ADD DUP5 PUSH2 0x348E JUMP JUMPDEST SWAP3 SWAP2 POP POP JUMP JUMPDEST PUSH1 0x0 PUSH1 0xC0 DUP3 ADD SWAP1 POP PUSH2 0x36CD PUSH1 0x0 DUP4 ADD DUP10 PUSH2 0x348E JUMP JUMPDEST PUSH2 0x36DA PUSH1 0x20 DUP4 ADD DUP9 PUSH2 0x3312 JUMP JUMPDEST PUSH2 0x36E7 PUSH1 0x40 DUP4 ADD DUP8 PUSH2 0x3312 JUMP JUMPDEST PUSH2 0x36F4 PUSH1 0x60 DUP4 ADD DUP7 PUSH2 0x3321 JUMP JUMPDEST PUSH2 0x3701 PUSH1 0x80 DUP4 ADD DUP6 PUSH2 0x348E JUMP JUMPDEST PUSH2 0x370E PUSH1 0xA0 DUP4 ADD DUP5 PUSH2 0x348E JUMP JUMPDEST SWAP8 SWAP7 POP POP POP POP POP POP POP JUMP JUMPDEST PUSH1 0x0 DUP3 DUP3 MSTORE PUSH1 0x20 DUP3 ADD SWAP1 POP SWAP3 SWAP2 POP POP JUMP JUMPDEST PUSH1 0x0 DUP3 DUP3 MSTORE PUSH1 0x20 DUP3 ADD SWAP1 POP SWAP3 SWAP2 POP POP JUMP JUMPDEST PUSH1 0x0 PUSH2 0x3746 DUP3 PUSH2 0x3834 JUMP JUMPDEST SWAP2 POP PUSH2 0x3751 DUP4 PUSH2 0x3834 JUMP JUMPDEST SWAP3 POP DUP3 PUSH32 0xFFFFFFFFFFFFFFFFFFFFFFFFFFFFFFFFFFFFFFFFFFFFFFFFFFFFFFFFFFFFFFFF SUB DUP3 GT ISZERO PUSH2 0x3786 JUMPI PUSH2 0x3785 PUSH2 0x3887 JUMP JUMPDEST JUMPDEST DUP3 DUP3 ADD SWAP1 POP SWAP3 SWAP2 POP POP JUMP JUMPDEST PUSH1 0x0 PUSH2 0x379C DUP3 PUSH2 0x3834 JUMP JUMPDEST SWAP2 POP PUSH2 0x37A7 DUP4 PUSH2 0x3834 JUMP JUMPDEST SWAP3 POP DUP3 PUSH2 0x37B7 JUMPI PUSH2 0x37B6 PUSH2 0x38B6 JUMP JUMPDEST JUMPDEST DUP3 DUP3 DIV SWAP1 POP SWAP3 SWAP2 POP POP JUMP JUMPDEST PUSH1 0x0 PUSH2 0x37CD DUP3 PUSH2 0x3834 JUMP JUMPDEST SWAP2 POP PUSH2 0x37D8 DUP4 PUSH2 0x3834 JUMP JUMPDEST SWAP3 POP DUP3 DUP3 LT ISZERO PUSH2 0x37EB JUMPI PUSH2 0x37EA PUSH2 0x3887 JUMP JUMPDEST JUMPDEST DUP3 DUP3 SUB SWAP1 POP SWAP3 SWAP2 POP POP JUMP JUMPDEST PUSH1 0x0 PUSH2 0x3801 DUP3 PUSH2 0x3814 JUMP JUMPDEST SWAP1 POP SWAP2 SWAP1 POP JUMP JUMPDEST PUSH1 0x0 DUP2 ISZERO ISZERO SWAP1 POP SWAP2 SWAP1 POP JUMP JUMPDEST PUSH1 0x0 PUSH20 0xFFFFFFFFFFFFFFFFFFFFFFFFFFFFFFFFFFFFFFFF DUP3 AND SWAP1 POP SWAP2 SWAP1 POP JUMP JUMPDEST PUSH1 0x0 DUP2 SWAP1 POP SWAP2 SWAP1 POP JUMP JUMPDEST PUSH1 0x0 PUSH2 0x3849 DUP3 PUSH2 0x3834 JUMP JUMPDEST SWAP2 POP PUSH32 0xFFFFFFFFFFFFFFFFFFFFFFFFFFFFFFFFFFFFFFFFFFFFFFFFFFFFFFFFFFFFFFFF DUP3 EQ ISZERO PUSH2 0x387C JUMPI PUSH2 0x387B PUSH2 0x3887 JUMP JUMPDEST JUMPDEST PUSH1 0x1 DUP3 ADD SWAP1 POP SWAP2 SWAP1 POP JUMP JUMPDEST PUSH32 0x4E487B7100000000000000000000000000000000000000000000000000000000 PUSH1 0x0 MSTORE PUSH1 0x11 PUSH1 0x4 MSTORE PUSH1 0x24 PUSH1 0x0 REVERT JUMPDEST PUSH32 0x4E487B7100000000000000000000000000000000000000000000000000000000 PUSH1 0x0 MSTORE PUSH1 0x12 PUSH1 0x4 MSTORE PUSH1 0x24 PUSH1 0x0 REVERT JUMPDEST PUSH32 0x4E487B7100000000000000000000000000000000000000000000000000000000 PUSH1 0x0 MSTORE PUSH1 0x32 PUSH1 0x4 MSTORE PUSH1 0x24 PUSH1 0x0 REVERT JUMPDEST PUSH1 0x0 DUP1 REVERT JUMPDEST PUSH1 0x0 DUP1 REVERT JUMPDEST PUSH1 0x0 DUP1 REVERT JUMPDEST PUSH1 0x0 DUP1 REVERT JUMPDEST PUSH1 0x0 DUP1 REVERT JUMPDEST PUSH32 0x54686973204E4654206973206E6F74206C697374696E672E0000000000000000 PUSH1 0x0 DUP3 ADD MSTORE POP JUMP JUMPDEST PUSH32 0x436F6E7472616374206D75737420626520617070726F7665642E000000000000 PUSH1 0x0 DUP3 ADD MSTORE POP JUMP JUMPDEST PUSH32 0x4F776E61626C653A206E6577206F776E657220697320746865207A65726F2061 PUSH1 0x0 DUP3 ADD MSTORE PUSH32 0x6464726573730000000000000000000000000000000000000000000000000000 PUSH1 0x20 DUP3 ADD MSTORE POP JUMP JUMPDEST PUSH32 0x4275792066726F6D20796F757273656C662E0000000000000000000000000000 PUSH1 0x0 DUP3 ADD MSTORE POP JUMP JUMPDEST PUSH32 0x496E73756666696369656E742066756E64732073656E742E0000000000000000 PUSH1 0x0 DUP3 ADD MSTORE POP JUMP JUMPDEST PUSH32 0x556E617574686F72697A65642E00000000000000000000000000000000000000 PUSH1 0x0 DUP3 ADD MSTORE POP JUMP JUMPDEST PUSH32 0x4F776E61626C653A2063616C6C6572206973206E6F7420746865206F776E6572 PUSH1 0x0 DUP3 ADD MSTORE POP JUMP JUMPDEST POP JUMP JUMPDEST PUSH32 0x54686973204E4654206973206E6F7420666F722073656C6C2E00000000000000 PUSH1 0x0 DUP3 ADD MSTORE POP JUMP JUMPDEST PUSH32 0x53656C6C657220686173206E6F20746F6B656E2E000000000000000000000000 PUSH1 0x0 DUP3 ADD MSTORE POP JUMP JUMPDEST PUSH2 0x3AD0 DUP2 PUSH2 0x37F6 JUMP JUMPDEST DUP2 EQ PUSH2 0x3ADB JUMPI PUSH1 0x0 DUP1 REVERT JUMPDEST POP JUMP JUMPDEST PUSH2 0x3AE7 DUP2 PUSH2 0x3808 JUMP JUMPDEST DUP2 EQ PUSH2 0x3AF2 JUMPI PUSH1 0x0 DUP1 REVERT JUMPDEST POP JUMP JUMPDEST PUSH2 0x3AFE DUP2 PUSH2 0x3834 JUMP JUMPDEST DUP2 EQ PUSH2 0x3B09 JUMPI PUSH1 0x0 DUP1 REVERT JUMPDEST POP JUMP INVALID LOG2 PUSH5 0x6970667358 0x22 SLT KECCAK256 SWAP8 MOD PUSH22 0x568B96A2C673A1AFF018959132C69E41540622865D4F CALL PUSH10 0xCAE6E4EE6064736F6C63 NUMBER STOP ADDMOD SMOD STOP CALLER "
				},
				"gasEstimates": {
					"creation": {
						"codeDepositCost": "3034000",
						"executionCost": "infinite",
						"totalCost": "infinite"
					},
					"external": {
						"addListing(uint256,address,uint256)": "infinite",
						"cancelListing(address,uint256)": "infinite",
						"getIsListing(address,uint256)": "3236",
						"getOwner(address,uint256)": "infinite",
						"getPrevOwner(address,uint256,uint256)": "infinite",
						"getPrice(address,uint256)": "infinite",
						"getSeller(address,uint256)": "infinite",
						"listings(address,uint256)": "infinite",
						"owner()": "2544",
						"purchase(address,uint256,address,uint256,uint256,uint256)": "infinite",
						"purchaseBatch(address,uint256[],address,uint256,uint256[],uint256)": "infinite",
						"purchaseERC20(address,address,uint256,address,uint256,uint256,uint256)": "infinite",
						"purchaseERC20Batch(address,address,uint256[],address,uint256,uint256[],uint256)": "infinite",
						"renounceOwnership()": "30397",
						"transferOwnership(address)": "30811"
					}
				},
				"methodIdentifiers": {
					"addListing(uint256,address,uint256)": "80abbe57",
					"cancelListing(address,uint256)": "b2ddee06",
					"getIsListing(address,uint256)": "031aa9b5",
					"getOwner(address,uint256)": "2f634a90",
					"getPrevOwner(address,uint256,uint256)": "2973d6f8",
					"getPrice(address,uint256)": "449e815d",
					"getSeller(address,uint256)": "189ecff1",
					"listings(address,uint256)": "0007df30",
					"owner()": "8da5cb5b",
					"purchase(address,uint256,address,uint256,uint256,uint256)": "8111f398",
					"purchaseBatch(address,uint256[],address,uint256,uint256[],uint256)": "8c5b197b",
					"purchaseERC20(address,address,uint256,address,uint256,uint256,uint256)": "2c872cd1",
					"purchaseERC20Batch(address,address,uint256[],address,uint256,uint256[],uint256)": "ed81abad",
					"renounceOwnership()": "715018a6",
					"transferOwnership(address)": "f2fde38b"
				}
			},
			"storageLayout": {
				"storage": [
					{
						"astId": 1280,
						"contract": "MarketERC721.sol:Market",
						"label": "_owner",
						"offset": 0,
						"slot": "0",
						"type": "t_address"
					},
					{
						"astId": 80,
						"contract": "MarketERC721.sol:Market",
						"label": "listings",
						"offset": 0,
						"slot": "1",
						"type": "t_mapping(t_address,t_mapping(t_uint256,t_struct(Listing)97_storage))"
					}
				],
				"types": {
					"t_address": {
						"encoding": "inplace",
						"label": "address",
						"numberOfBytes": "20"
					},
					"t_bool": {
						"encoding": "inplace",
						"label": "bool",
						"numberOfBytes": "1"
					},
					"t_mapping(t_address,t_mapping(t_uint256,t_struct(Listing)97_storage))": {
						"encoding": "mapping",
						"key": "t_address",
						"label": "mapping(address => mapping(uint256 => struct Market.Listing))",
						"numberOfBytes": "32",
						"value": "t_mapping(t_uint256,t_struct(Listing)97_storage)"
					},
					"t_mapping(t_uint256,t_address)": {
						"encoding": "mapping",
						"key": "t_uint256",
						"label": "mapping(uint256 => address)",
						"numberOfBytes": "32",
						"value": "t_address"
					},
					"t_mapping(t_uint256,t_struct(Listing)97_storage)": {
						"encoding": "mapping",
						"key": "t_uint256",
						"label": "mapping(uint256 => struct Market.Listing)",
						"numberOfBytes": "32",
						"value": "t_struct(Listing)97_storage"
					},
					"t_struct(Listing)97_storage": {
						"encoding": "inplace",
						"label": "struct Market.Listing",
						"members": [
							{
								"astId": 82,
								"contract": "MarketERC721.sol:Market",
								"label": "price",
								"offset": 0,
								"slot": "0",
								"type": "t_uint256"
							},
							{
								"astId": 84,
								"contract": "MarketERC721.sol:Market",
								"label": "seller",
								"offset": 0,
								"slot": "1",
								"type": "t_address"
							},
							{
								"astId": 86,
								"contract": "MarketERC721.sol:Market",
								"label": "owner",
								"offset": 0,
								"slot": "2",
								"type": "t_address"
							},
							{
								"astId": 88,
								"contract": "MarketERC721.sol:Market",
								"label": "isListing",
								"offset": 20,
								"slot": "2",
								"type": "t_bool"
							},
							{
								"astId": 90,
								"contract": "MarketERC721.sol:Market",
								"label": "ownerCount",
								"offset": 0,
								"slot": "3",
								"type": "t_uint256"
							},
							{
								"astId": 92,
								"contract": "MarketERC721.sol:Market",
								"label": "prevOwnersAmount",
								"offset": 0,
								"slot": "4",
								"type": "t_uint256"
							},
							{
								"astId": 96,
								"contract": "MarketERC721.sol:Market",
								"label": "previousOwners",
								"offset": 0,
								"slot": "5",
								"type": "t_mapping(t_uint256,t_address)"
							}
						],
						"numberOfBytes": "192"
					},
					"t_uint256": {
						"encoding": "inplace",
						"label": "uint256",
						"numberOfBytes": "32"
					}
				}
			},
			"userdoc": {
				"kind": "user",
				"methods": {},
				"version": 1
			}
		}
	}
}