{
	"Bid.sol": {
		"Auction": {
			"abi": [
				{
					"anonymous": false,
					"inputs": [
						{
							"indexed": true,
							"internalType": "address",
							"name": "sender",
							"type": "address"
						},
						{
							"indexed": false,
							"internalType": "uint256",
							"name": "amount",
							"type": "uint256"
						}
					],
					"name": "Bid",
					"type": "event"
				},
				{
					"anonymous": false,
					"inputs": [
						{
							"indexed": false,
							"internalType": "address",
							"name": "highestBidder",
							"type": "address"
						},
						{
							"indexed": false,
							"internalType": "uint256",
							"name": "highestBid",
							"type": "uint256"
						}
					],
					"name": "End",
					"type": "event"
				},
				{
					"anonymous": false,
					"inputs": [
						{
							"indexed": true,
							"internalType": "address",
							"name": "tokenAddr",
							"type": "address"
						},
						{
							"indexed": true,
							"internalType": "uint256",
							"name": "tokenId",
							"type": "uint256"
						},
						{
							"indexed": false,
							"internalType": "uint256",
							"name": "startingBid",
							"type": "uint256"
						},
						{
							"indexed": false,
							"internalType": "uint256",
							"name": "endAt",
							"type": "uint256"
						}
					],
					"name": "Start",
					"type": "event"
				},
				{
					"anonymous": false,
					"inputs": [
						{
							"indexed": true,
							"internalType": "address",
							"name": "bidder",
							"type": "address"
						},
						{
							"indexed": false,
							"internalType": "uint256",
							"name": "amount",
							"type": "uint256"
						}
					],
					"name": "Withdraw",
					"type": "event"
				},
				{
					"inputs": [
						{
							"internalType": "address",
							"name": "tokenAddr_",
							"type": "address"
						},
						{
							"internalType": "uint256",
							"name": "tokenId_",
							"type": "uint256"
						},
						{
							"internalType": "address",
							"name": "to",
							"type": "address"
						}
					],
					"name": "autoWithdraw",
					"outputs": [],
					"stateMutability": "payable",
					"type": "function"
				},
				{
					"inputs": [],
					"name": "balances",
					"outputs": [
						{
							"internalType": "uint256",
							"name": "",
							"type": "uint256"
						}
					],
					"stateMutability": "view",
					"type": "function"
				},
				{
					"inputs": [
						{
							"internalType": "address",
							"name": "_tokenAddr",
							"type": "address"
						},
						{
							"internalType": "uint256",
							"name": "_tokenId",
							"type": "uint256"
						}
					],
					"name": "bid",
					"outputs": [],
					"stateMutability": "payable",
					"type": "function"
				},
				{
					"inputs": [
						{
							"internalType": "address",
							"name": "",
							"type": "address"
						},
						{
							"internalType": "uint256",
							"name": "",
							"type": "uint256"
						}
					],
					"name": "biddings",
					"outputs": [
						{
							"internalType": "address",
							"name": "seller",
							"type": "address"
						},
						{
							"internalType": "bool",
							"name": "started",
							"type": "bool"
						},
						{
							"internalType": "bool",
							"name": "ended",
							"type": "bool"
						},
						{
							"internalType": "uint256",
							"name": "endAt",
							"type": "uint256"
						},
						{
							"internalType": "contract ERC721",
							"name": "tokenAddr",
							"type": "address"
						},
						{
							"internalType": "uint256",
							"name": "tokenId",
							"type": "uint256"
						},
						{
							"internalType": "uint256",
							"name": "bidCount",
							"type": "uint256"
						}
					],
					"stateMutability": "view",
					"type": "function"
				},
				{
					"inputs": [
						{
							"internalType": "address",
							"name": "_contractAddr",
							"type": "address"
						},
						{
							"internalType": "address",
							"name": "_tokenAddr",
							"type": "address"
						},
						{
							"internalType": "uint256",
							"name": "_tokenId",
							"type": "uint256"
						}
					],
					"name": "end",
					"outputs": [],
					"stateMutability": "nonpayable",
					"type": "function"
				},
				{
					"inputs": [
						{
							"internalType": "address",
							"name": "_tokenAddr",
							"type": "address"
						},
						{
							"internalType": "uint256",
							"name": "_tokenId",
							"type": "uint256"
						},
						{
							"internalType": "uint256",
							"name": "startingBid",
							"type": "uint256"
						},
						{
							"internalType": "uint256",
							"name": "dayAmount",
							"type": "uint256"
						}
					],
					"name": "start",
					"outputs": [],
					"stateMutability": "nonpayable",
					"type": "function"
				},
				{
					"inputs": [
						{
							"internalType": "address",
							"name": "_tokenAddr",
							"type": "address"
						},
						{
							"internalType": "uint256",
							"name": "_tokenId",
							"type": "uint256"
						}
					],
					"name": "withdraw",
					"outputs": [],
					"stateMutability": "payable",
					"type": "function"
				}
			],
			"devdoc": {
				"kind": "dev",
				"methods": {},
				"version": 1
			},
			"evm": {
				"assembly": "    /* \"Bid.sol\":445:5292  contract Auction {\r... */\n  mstore(0x40, 0x80)\n  callvalue\n  dup1\n  iszero\n  tag_1\n  jumpi\n  0x00\n  dup1\n  revert\ntag_1:\n  pop\n  dataSize(sub_0)\n  dup1\n  dataOffset(sub_0)\n  0x00\n  codecopy\n  0x00\n  return\nstop\n\nsub_0: assembly {\n        /* \"Bid.sol\":445:5292  contract Auction {\r... */\n      mstore(0x40, 0x80)\n      jumpi(tag_1, lt(calldatasize, 0x04))\n      shr(0xe0, calldataload(0x00))\n      dup1\n      0x7bb98a68\n      gt\n      tag_9\n      jumpi\n      dup1\n      0x7bb98a68\n      eq\n      tag_5\n      jumpi\n      dup1\n      0xb76a3b5a\n      eq\n      tag_6\n      jumpi\n      dup1\n      0xf3fef3a3\n      eq\n      tag_7\n      jumpi\n      dup1\n      0xf48e9b3d\n      eq\n      tag_8\n      jumpi\n      jump(tag_1)\n    tag_9:\n      dup1\n      0x545c285c\n      eq\n      tag_2\n      jumpi\n      dup1\n      0x59d667a5\n      eq\n      tag_3\n      jumpi\n      dup1\n      0x699ff43f\n      eq\n      tag_4\n      jumpi\n    tag_1:\n      0x00\n      dup1\n      revert\n        /* \"Bid.sol\":3211:4891  function end(address _contractAddr, address _tokenAddr, uint _tokenId) external {\r... */\n    tag_2:\n      callvalue\n      dup1\n      iszero\n      tag_10\n      jumpi\n      0x00\n      dup1\n      revert\n    tag_10:\n      pop\n      tag_11\n      0x04\n      dup1\n      calldatasize\n      sub\n      dup2\n      add\n      swap1\n      tag_12\n      swap2\n      swap1\n      tag_13\n      jump\t// in\n    tag_12:\n      tag_14\n      jump\t// in\n    tag_11:\n      stop\n        /* \"Bid.sol\":2004:2675  function bid(address _tokenAddr, uint _tokenId) external payable {\r... */\n    tag_3:\n      tag_15\n      0x04\n      dup1\n      calldatasize\n      sub\n      dup2\n      add\n      swap1\n      tag_16\n      swap2\n      swap1\n      tag_17\n      jump\t// in\n    tag_16:\n      tag_18\n      jump\t// in\n    tag_15:\n      stop\n        /* \"Bid.sol\":4899:5289  function autoWithdraw(address tokenAddr_, uint tokenId_, address to) public payable {\r... */\n    tag_4:\n      tag_19\n      0x04\n      dup1\n      calldatasize\n      sub\n      dup2\n      add\n      swap1\n      tag_20\n      swap2\n      swap1\n      tag_21\n      jump\t// in\n    tag_20:\n      tag_22\n      jump\t// in\n    tag_19:\n      stop\n        /* \"Bid.sol\":803:823  uint public balances */\n    tag_5:\n      callvalue\n      dup1\n      iszero\n      tag_23\n      jumpi\n      0x00\n      dup1\n      revert\n    tag_23:\n      pop\n      tag_24\n      tag_25\n      jump\t// in\n    tag_24:\n      mload(0x40)\n      tag_26\n      swap2\n      swap1\n      tag_27\n      jump\t// in\n    tag_26:\n      mload(0x40)\n      dup1\n      swap2\n      sub\n      swap1\n      return\n        /* \"Bid.sol\":1159:1996  function start(address _tokenAddr, uint _tokenId, uint startingBid, uint dayAmount) external {\r... */\n    tag_6:\n      callvalue\n      dup1\n      iszero\n      tag_28\n      jumpi\n      0x00\n      dup1\n      revert\n    tag_28:\n      pop\n      tag_29\n      0x04\n      dup1\n      calldatasize\n      sub\n      dup2\n      add\n      swap1\n      tag_30\n      swap2\n      swap1\n      tag_31\n      jump\t// in\n    tag_30:\n      tag_32\n      jump\t// in\n    tag_29:\n      stop\n        /* \"Bid.sol\":2683:3203  function withdraw(address _tokenAddr, uint _tokenId) external payable {\r... */\n    tag_7:\n      tag_33\n      0x04\n      dup1\n      calldatasize\n      sub\n      dup2\n      add\n      swap1\n      tag_34\n      swap2\n      swap1\n      tag_17\n      jump\t// in\n    tag_34:\n      tag_35\n      jump\t// in\n    tag_33:\n      stop\n        /* \"Bid.sol\":735:794  mapping(address =>mapping(uint => Bidding)) public biddings */\n    tag_8:\n      callvalue\n      dup1\n      iszero\n      tag_36\n      jumpi\n      0x00\n      dup1\n      revert\n    tag_36:\n      pop\n      tag_37\n      0x04\n      dup1\n      calldatasize\n      sub\n      dup2\n      add\n      swap1\n      tag_38\n      swap2\n      swap1\n      tag_17\n      jump\t// in\n    tag_38:\n      tag_39\n      jump\t// in\n    tag_37:\n      mload(0x40)\n      tag_40\n      swap8\n      swap7\n      swap6\n      swap5\n      swap4\n      swap3\n      swap2\n      swap1\n      tag_41\n      jump\t// in\n    tag_40:\n      mload(0x40)\n      dup1\n      swap2\n      sub\n      swap1\n      return\n        /* \"Bid.sol\":3211:4891  function end(address _contractAddr, address _tokenAddr, uint _tokenId) external {\r... */\n    tag_14:\n        /* \"Bid.sol\":3302:3322  Bidding storage _bid */\n      0x00\n        /* \"Bid.sol\":3325:3333  biddings */\n      dup1\n        /* \"Bid.sol\":3325:3345  biddings[_tokenAddr] */\n      0x00\n        /* \"Bid.sol\":3334:3344  _tokenAddr */\n      dup5\n        /* \"Bid.sol\":3325:3345  biddings[_tokenAddr] */\n      0xffffffffffffffffffffffffffffffffffffffff\n      and\n      0xffffffffffffffffffffffffffffffffffffffff\n      and\n      dup2\n      mstore\n      0x20\n      add\n      swap1\n      dup2\n      mstore\n      0x20\n      add\n      0x00\n      keccak256\n        /* \"Bid.sol\":3325:3355  biddings[_tokenAddr][_tokenId] */\n      0x00\n        /* \"Bid.sol\":3346:3354  _tokenId */\n      dup4\n        /* \"Bid.sol\":3325:3355  biddings[_tokenAddr][_tokenId] */\n      dup2\n      mstore\n      0x20\n      add\n      swap1\n      dup2\n      mstore\n      0x20\n      add\n      0x00\n      keccak256\n        /* \"Bid.sol\":3302:3355  Bidding storage _bid = biddings[_tokenAddr][_tokenId] */\n      swap1\n      pop\n        /* \"Bid.sol\":3366:3380  Market _market */\n      0x00\n        /* \"Bid.sol\":3390:3403  _contractAddr */\n      dup5\n        /* \"Bid.sol\":3366:3404  Market _market = Market(_contractAddr) */\n      swap1\n      pop\n        /* \"Bid.sol\":3425:3429  _bid */\n      dup2\n        /* \"Bid.sol\":3425:3437  _bid.started */\n      0x00\n      add\n      0x14\n      swap1\n      sload\n      swap1\n      0x0100\n      exp\n      swap1\n      div\n      0xff\n      and\n        /* \"Bid.sol\":3417:3466  require(_bid.started, \"You need to start first!\") */\n      tag_43\n      jumpi\n      mload(0x40)\n      0x08c379a000000000000000000000000000000000000000000000000000000000\n      dup2\n      mstore\n      0x04\n      add\n      tag_44\n      swap1\n      tag_45\n      jump\t// in\n    tag_44:\n      mload(0x40)\n      dup1\n      swap2\n      sub\n      swap1\n      revert\n    tag_43:\n        /* \"Bid.sol\":3504:3508  _bid */\n      dup2\n        /* \"Bid.sol\":3504:3514  _bid.endAt */\n      0x01\n      add\n      sload\n        /* \"Bid.sol\":3485:3500  block.timestamp */\n      timestamp\n        /* \"Bid.sol\":3485:3514  block.timestamp >= _bid.endAt */\n      lt\n      iszero\n        /* \"Bid.sol\":3477:3544  require(block.timestamp >= _bid.endAt, \"Auction is still ongoing!\") */\n      tag_46\n      jumpi\n      mload(0x40)\n      0x08c379a000000000000000000000000000000000000000000000000000000000\n      dup2\n      mstore\n      0x04\n      add\n      tag_47\n      swap1\n      tag_48\n      jump\t// in\n    tag_47:\n      mload(0x40)\n      dup1\n      swap2\n      sub\n      swap1\n      revert\n    tag_46:\n        /* \"Bid.sol\":3564:3568  _bid */\n      dup2\n        /* \"Bid.sol\":3564:3574  _bid.ended */\n      0x00\n      add\n      0x15\n      swap1\n      sload\n      swap1\n      0x0100\n      exp\n      swap1\n      div\n      0xff\n      and\n        /* \"Bid.sol\":3563:3574  !_bid.ended */\n      iszero\n        /* \"Bid.sol\":3555:3601  require(!_bid.ended, \"Auction already ended!\") */\n      tag_49\n      jumpi\n      mload(0x40)\n      0x08c379a000000000000000000000000000000000000000000000000000000000\n      dup2\n      mstore\n      0x04\n      add\n      tag_50\n      swap1\n      tag_51\n      jump\t// in\n    tag_50:\n      mload(0x40)\n      dup1\n      swap2\n      sub\n      swap1\n      revert\n    tag_49:\n        /* \"Bid.sol\":3663:3664  0 */\n      0x00\n        /* \"Bid.sol\":3618:3665  _bid.highestBidder[_bid.bidCount] != address(0) */\n      0xffffffffffffffffffffffffffffffffffffffff\n      and\n        /* \"Bid.sol\":3618:3622  _bid */\n      dup3\n        /* \"Bid.sol\":3618:3636  _bid.highestBidder */\n      0x06\n      add\n        /* \"Bid.sol\":3618:3651  _bid.highestBidder[_bid.bidCount] */\n      0x00\n        /* \"Bid.sol\":3637:3641  _bid */\n      dup5\n        /* \"Bid.sol\":3637:3650  _bid.bidCount */\n      0x04\n      add\n      sload\n        /* \"Bid.sol\":3618:3651  _bid.highestBidder[_bid.bidCount] */\n      dup2\n      mstore\n      0x20\n      add\n      swap1\n      dup2\n      mstore\n      0x20\n      add\n      0x00\n      keccak256\n      0x00\n      swap1\n      sload\n      swap1\n      0x0100\n      exp\n      swap1\n      div\n      0xffffffffffffffffffffffffffffffffffffffff\n      and\n        /* \"Bid.sol\":3618:3665  _bid.highestBidder[_bid.bidCount] != address(0) */\n      0xffffffffffffffffffffffffffffffffffffffff\n      and\n      eq\n        /* \"Bid.sol\":3614:4737  if (_bid.highestBidder[_bid.bidCount] != address(0)) {\r... */\n      tag_52\n      jumpi\n        /* \"Bid.sol\":3684:3688  _bid */\n      dup2\n        /* \"Bid.sol\":3684:3698  _bid.tokenAddr */\n      0x02\n      add\n      0x00\n      swap1\n      sload\n      swap1\n      0x0100\n      exp\n      swap1\n      div\n      0xffffffffffffffffffffffffffffffffffffffff\n      and\n        /* \"Bid.sol\":3684:3711  _bid.tokenAddr.transferFrom */\n      0xffffffffffffffffffffffffffffffffffffffff\n      and\n      0x23b872dd\n        /* \"Bid.sol\":3720:3724  this */\n      address\n        /* \"Bid.sol\":3727:3731  _bid */\n      dup5\n        /* \"Bid.sol\":3727:3745  _bid.highestBidder */\n      0x06\n      add\n        /* \"Bid.sol\":3727:3760  _bid.highestBidder[_bid.bidCount] */\n      0x00\n        /* \"Bid.sol\":3746:3750  _bid */\n      dup7\n        /* \"Bid.sol\":3746:3759  _bid.bidCount */\n      0x04\n      add\n      sload\n        /* \"Bid.sol\":3727:3760  _bid.highestBidder[_bid.bidCount] */\n      dup2\n      mstore\n      0x20\n      add\n      swap1\n      dup2\n      mstore\n      0x20\n      add\n      0x00\n      keccak256\n      0x00\n      swap1\n      sload\n      swap1\n      0x0100\n      exp\n      swap1\n      div\n      0xffffffffffffffffffffffffffffffffffffffff\n      and\n        /* \"Bid.sol\":3762:3766  _bid */\n      dup6\n        /* \"Bid.sol\":3762:3774  _bid.tokenId */\n      0x03\n      add\n      sload\n        /* \"Bid.sol\":3684:3775  _bid.tokenAddr.transferFrom(address(this), _bid.highestBidder[_bid.bidCount], _bid.tokenId) */\n      mload(0x40)\n      dup5\n      0xffffffff\n      and\n      0xe0\n      shl\n      dup2\n      mstore\n      0x04\n      add\n      tag_53\n      swap4\n      swap3\n      swap2\n      swap1\n      tag_54\n      jump\t// in\n    tag_53:\n      0x00\n      mload(0x40)\n      dup1\n      dup4\n      sub\n      dup2\n      0x00\n      dup8\n      dup1\n      extcodesize\n      iszero\n      dup1\n      iszero\n      tag_55\n      jumpi\n      0x00\n      dup1\n      revert\n    tag_55:\n      pop\n      gas\n      call\n      iszero\n      dup1\n      iszero\n      tag_57\n      jumpi\n      returndatasize\n      0x00\n      dup1\n      returndatacopy\n      revert(0x00, returndatasize)\n    tag_57:\n      pop\n      pop\n      pop\n      pop\n        /* \"Bid.sol\":3800:3804  _bid */\n      dup2\n        /* \"Bid.sol\":3800:3811  _bid.seller */\n      0x00\n      add\n      0x00\n      swap1\n      sload\n      swap1\n      0x0100\n      exp\n      swap1\n      div\n      0xffffffffffffffffffffffffffffffffffffffff\n      and\n        /* \"Bid.sol\":3792:3821  payable(_bid.seller).transfer */\n      0xffffffffffffffffffffffffffffffffffffffff\n      and\n        /* \"Bid.sol\":3792:3893  payable(_bid.seller).transfer(_bid.highestBid[_bid.bidCount] - (_bid.highestBid[_bid.bidCount] / 20)) */\n      0x08fc\n        /* \"Bid.sol\":3889:3891  20 */\n      0x14\n        /* \"Bid.sol\":3856:3860  _bid */\n      dup5\n        /* \"Bid.sol\":3856:3871  _bid.highestBid */\n      0x05\n      add\n        /* \"Bid.sol\":3856:3886  _bid.highestBid[_bid.bidCount] */\n      0x00\n        /* \"Bid.sol\":3872:3876  _bid */\n      dup7\n        /* \"Bid.sol\":3872:3885  _bid.bidCount */\n      0x04\n      add\n      sload\n        /* \"Bid.sol\":3856:3886  _bid.highestBid[_bid.bidCount] */\n      dup2\n      mstore\n      0x20\n      add\n      swap1\n      dup2\n      mstore\n      0x20\n      add\n      0x00\n      keccak256\n      sload\n        /* \"Bid.sol\":3856:3891  _bid.highestBid[_bid.bidCount] / 20 */\n      tag_58\n      swap2\n      swap1\n      tag_59\n      jump\t// in\n    tag_58:\n        /* \"Bid.sol\":3822:3826  _bid */\n      dup5\n        /* \"Bid.sol\":3822:3837  _bid.highestBid */\n      0x05\n      add\n        /* \"Bid.sol\":3822:3852  _bid.highestBid[_bid.bidCount] */\n      0x00\n        /* \"Bid.sol\":3838:3842  _bid */\n      dup7\n        /* \"Bid.sol\":3838:3851  _bid.bidCount */\n      0x04\n      add\n      sload\n        /* \"Bid.sol\":3822:3852  _bid.highestBid[_bid.bidCount] */\n      dup2\n      mstore\n      0x20\n      add\n      swap1\n      dup2\n      mstore\n      0x20\n      add\n      0x00\n      keccak256\n      sload\n        /* \"Bid.sol\":3822:3892  _bid.highestBid[_bid.bidCount] - (_bid.highestBid[_bid.bidCount] / 20) */\n      tag_60\n      swap2\n      swap1\n      tag_61\n      jump\t// in\n    tag_60:\n        /* \"Bid.sol\":3792:3893  payable(_bid.seller).transfer(_bid.highestBid[_bid.bidCount] - (_bid.highestBid[_bid.bidCount] / 20)) */\n      swap1\n      dup2\n      iszero\n      mul\n      swap1\n      mload(0x40)\n      0x00\n      mload(0x40)\n      dup1\n      dup4\n      sub\n      dup2\n      dup6\n      dup9\n      dup9\n      call\n      swap4\n      pop\n      pop\n      pop\n      pop\n      iszero\n      dup1\n      iszero\n      tag_63\n      jumpi\n      returndatasize\n      0x00\n      dup1\n      returndatacopy\n      revert(0x00, returndatasize)\n    tag_63:\n      pop\n        /* \"Bid.sol\":3916:3923  _market */\n      dup1\n        /* \"Bid.sol\":3916:3929  _market.owner */\n      0xffffffffffffffffffffffffffffffffffffffff\n      and\n      0x8da5cb5b\n        /* \"Bid.sol\":3916:3931  _market.owner() */\n      mload(0x40)\n      dup2\n      0xffffffff\n      and\n      0xe0\n      shl\n      dup2\n      mstore\n      0x04\n      add\n      0x20\n      mload(0x40)\n      dup1\n      dup4\n      sub\n      dup2\n      dup7\n      dup1\n      extcodesize\n      iszero\n      dup1\n      iszero\n      tag_64\n      jumpi\n      0x00\n      dup1\n      revert\n    tag_64:\n      pop\n      gas\n      staticcall\n      iszero\n      dup1\n      iszero\n      tag_66\n      jumpi\n      returndatasize\n      0x00\n      dup1\n      returndatacopy\n      revert(0x00, returndatasize)\n    tag_66:\n      pop\n      pop\n      pop\n      pop\n      mload(0x40)\n      returndatasize\n      not(0x1f)\n      0x1f\n      dup3\n      add\n      and\n      dup3\n      add\n      dup1\n      0x40\n      mstore\n      pop\n      dup2\n      add\n      swap1\n      tag_67\n      swap2\n      swap1\n      tag_68\n      jump\t// in\n    tag_67:\n        /* \"Bid.sol\":3908:3941  payable(_market.owner()).transfer */\n      0xffffffffffffffffffffffffffffffffffffffff\n      and\n        /* \"Bid.sol\":3908:3978  payable(_market.owner()).transfer(_bid.highestBid[_bid.bidCount] / 20) */\n      0x08fc\n        /* \"Bid.sol\":3975:3977  20 */\n      0x14\n        /* \"Bid.sol\":3942:3946  _bid */\n      dup5\n        /* \"Bid.sol\":3942:3957  _bid.highestBid */\n      0x05\n      add\n        /* \"Bid.sol\":3942:3972  _bid.highestBid[_bid.bidCount] */\n      0x00\n        /* \"Bid.sol\":3958:3962  _bid */\n      dup7\n        /* \"Bid.sol\":3958:3971  _bid.bidCount */\n      0x04\n      add\n      sload\n        /* \"Bid.sol\":3942:3972  _bid.highestBid[_bid.bidCount] */\n      dup2\n      mstore\n      0x20\n      add\n      swap1\n      dup2\n      mstore\n      0x20\n      add\n      0x00\n      keccak256\n      sload\n        /* \"Bid.sol\":3942:3977  _bid.highestBid[_bid.bidCount] / 20 */\n      tag_69\n      swap2\n      swap1\n      tag_59\n      jump\t// in\n    tag_69:\n        /* \"Bid.sol\":3908:3978  payable(_market.owner()).transfer(_bid.highestBid[_bid.bidCount] / 20) */\n      swap1\n      dup2\n      iszero\n      mul\n      swap1\n      mload(0x40)\n      0x00\n      mload(0x40)\n      dup1\n      dup4\n      sub\n      dup2\n      dup6\n      dup9\n      dup9\n      call\n      swap4\n      pop\n      pop\n      pop\n      pop\n      iszero\n      dup1\n      iszero\n      tag_71\n      jumpi\n      returndatasize\n      0x00\n      dup1\n      returndatacopy\n      revert(0x00, returndatasize)\n    tag_71:\n      pop\n        /* \"Bid.sol\":3998:4004  uint i */\n      0x00\n        /* \"Bid.sol\":3993:4416  for (uint i = 0; i < 5; i++) {\r... */\n    tag_72:\n        /* \"Bid.sol\":4014:4015  5 */\n      0x05\n        /* \"Bid.sol\":4010:4011  i */\n      dup2\n        /* \"Bid.sol\":4010:4015  i < 5 */\n      lt\n        /* \"Bid.sol\":3993:4416  for (uint i = 0; i < 5; i++) {\r... */\n      iszero\n      tag_73\n      jumpi\n        /* \"Bid.sol\":4106:4107  0 */\n      0x00\n        /* \"Bid.sol\":4049:4108  _market.getPrevOwner(_tokenAddr, _tokenId, i) != address(0) */\n      0xffffffffffffffffffffffffffffffffffffffff\n      and\n        /* \"Bid.sol\":4049:4056  _market */\n      dup3\n        /* \"Bid.sol\":4049:4069  _market.getPrevOwner */\n      0xffffffffffffffffffffffffffffffffffffffff\n      and\n      0x2973d6f8\n        /* \"Bid.sol\":4070:4080  _tokenAddr */\n      dup8\n        /* \"Bid.sol\":4082:4090  _tokenId */\n      dup8\n        /* \"Bid.sol\":4092:4093  i */\n      dup6\n        /* \"Bid.sol\":4049:4094  _market.getPrevOwner(_tokenAddr, _tokenId, i) */\n      mload(0x40)\n      dup5\n      0xffffffff\n      and\n      0xe0\n      shl\n      dup2\n      mstore\n      0x04\n      add\n      tag_75\n      swap4\n      swap3\n      swap2\n      swap1\n      tag_76\n      jump\t// in\n    tag_75:\n      0x20\n      mload(0x40)\n      dup1\n      dup4\n      sub\n      dup2\n      dup7\n      dup1\n      extcodesize\n      iszero\n      dup1\n      iszero\n      tag_77\n      jumpi\n      0x00\n      dup1\n      revert\n    tag_77:\n      pop\n      gas\n      staticcall\n      iszero\n      dup1\n      iszero\n      tag_79\n      jumpi\n      returndatasize\n      0x00\n      dup1\n      returndatacopy\n      revert(0x00, returndatasize)\n    tag_79:\n      pop\n      pop\n      pop\n      pop\n      mload(0x40)\n      returndatasize\n      not(0x1f)\n      0x1f\n      dup3\n      add\n      and\n      dup3\n      add\n      dup1\n      0x40\n      mstore\n      pop\n      dup2\n      add\n      swap1\n      tag_80\n      swap2\n      swap1\n      tag_68\n      jump\t// in\n    tag_80:\n        /* \"Bid.sol\":4049:4108  _market.getPrevOwner(_tokenAddr, _tokenId, i) != address(0) */\n      0xffffffffffffffffffffffffffffffffffffffff\n      and\n      eq\n        /* \"Bid.sol\":4045:4397  if (_market.getPrevOwner(_tokenAddr, _tokenId, i) != address(0)) {\r... */\n      tag_81\n      jumpi\n        /* \"Bid.sol\":4145:4152  _market */\n      dup2\n        /* \"Bid.sol\":4145:4165  _market.getPrevOwner */\n      0xffffffffffffffffffffffffffffffffffffffff\n      and\n      0x2973d6f8\n        /* \"Bid.sol\":4166:4176  _tokenAddr */\n      dup7\n        /* \"Bid.sol\":4178:4186  _tokenId */\n      dup7\n        /* \"Bid.sol\":4188:4189  i */\n      dup5\n        /* \"Bid.sol\":4145:4190  _market.getPrevOwner(_tokenAddr, _tokenId, i) */\n      mload(0x40)\n      dup5\n      0xffffffff\n      and\n      0xe0\n      shl\n      dup2\n      mstore\n      0x04\n      add\n      tag_82\n      swap4\n      swap3\n      swap2\n      swap1\n      tag_76\n      jump\t// in\n    tag_82:\n      0x20\n      mload(0x40)\n      dup1\n      dup4\n      sub\n      dup2\n      dup7\n      dup1\n      extcodesize\n      iszero\n      dup1\n      iszero\n      tag_83\n      jumpi\n      0x00\n      dup1\n      revert\n    tag_83:\n      pop\n      gas\n      staticcall\n      iszero\n      dup1\n      iszero\n      tag_85\n      jumpi\n      returndatasize\n      0x00\n      dup1\n      returndatacopy\n      revert(0x00, returndatasize)\n    tag_85:\n      pop\n      pop\n      pop\n      pop\n      mload(0x40)\n      returndatasize\n      not(0x1f)\n      0x1f\n      dup3\n      add\n      and\n      dup3\n      add\n      dup1\n      0x40\n      mstore\n      pop\n      dup2\n      add\n      swap1\n      tag_86\n      swap2\n      swap1\n      tag_68\n      jump\t// in\n    tag_86:\n        /* \"Bid.sol\":4137:4200  payable(_market.getPrevOwner(_tokenAddr, _tokenId, i)).transfer */\n      0xffffffffffffffffffffffffffffffffffffffff\n      and\n        /* \"Bid.sol\":4137:4290  payable(_market.getPrevOwner(_tokenAddr, _tokenId, i)).transfer((_bid.highestBid[_bid.bidCount] / 20) / _market.getPrevOwnerAmount(_tokenAddr, _tokenId)) */\n      0x08fc\n        /* \"Bid.sol\":4241:4248  _market */\n      dup4\n        /* \"Bid.sol\":4241:4267  _market.getPrevOwnerAmount */\n      0xffffffffffffffffffffffffffffffffffffffff\n      and\n      0xd178227a\n        /* \"Bid.sol\":4268:4278  _tokenAddr */\n      dup9\n        /* \"Bid.sol\":4280:4288  _tokenId */\n      dup9\n        /* \"Bid.sol\":4241:4289  _market.getPrevOwnerAmount(_tokenAddr, _tokenId) */\n      mload(0x40)\n      dup4\n      0xffffffff\n      and\n      0xe0\n      shl\n      dup2\n      mstore\n      0x04\n      add\n      tag_87\n      swap3\n      swap2\n      swap1\n      tag_88\n      jump\t// in\n    tag_87:\n      0x20\n      mload(0x40)\n      dup1\n      dup4\n      sub\n      dup2\n      dup7\n      dup1\n      extcodesize\n      iszero\n      dup1\n      iszero\n      tag_89\n      jumpi\n      0x00\n      dup1\n      revert\n    tag_89:\n      pop\n      gas\n      staticcall\n      iszero\n      dup1\n      iszero\n      tag_91\n      jumpi\n      returndatasize\n      0x00\n      dup1\n      returndatacopy\n      revert(0x00, returndatasize)\n    tag_91:\n      pop\n      pop\n      pop\n      pop\n      mload(0x40)\n      returndatasize\n      not(0x1f)\n      0x1f\n      dup3\n      add\n      and\n      dup3\n      add\n      dup1\n      0x40\n      mstore\n      pop\n      dup2\n      add\n      swap1\n      tag_92\n      swap2\n      swap1\n      tag_93\n      jump\t// in\n    tag_92:\n        /* \"Bid.sol\":4235:4237  20 */\n      0x14\n        /* \"Bid.sol\":4202:4206  _bid */\n      dup7\n        /* \"Bid.sol\":4202:4217  _bid.highestBid */\n      0x05\n      add\n        /* \"Bid.sol\":4202:4232  _bid.highestBid[_bid.bidCount] */\n      0x00\n        /* \"Bid.sol\":4218:4222  _bid */\n      dup9\n        /* \"Bid.sol\":4218:4231  _bid.bidCount */\n      0x04\n      add\n      sload\n        /* \"Bid.sol\":4202:4232  _bid.highestBid[_bid.bidCount] */\n      dup2\n      mstore\n      0x20\n      add\n      swap1\n      dup2\n      mstore\n      0x20\n      add\n      0x00\n      keccak256\n      sload\n        /* \"Bid.sol\":4202:4237  _bid.highestBid[_bid.bidCount] / 20 */\n      tag_94\n      swap2\n      swap1\n      tag_59\n      jump\t// in\n    tag_94:\n        /* \"Bid.sol\":4201:4289  (_bid.highestBid[_bid.bidCount] / 20) / _market.getPrevOwnerAmount(_tokenAddr, _tokenId) */\n      tag_95\n      swap2\n      swap1\n      tag_59\n      jump\t// in\n    tag_95:\n        /* \"Bid.sol\":4137:4290  payable(_market.getPrevOwner(_tokenAddr, _tokenId, i)).transfer((_bid.highestBid[_bid.bidCount] / 20) / _market.getPrevOwnerAmount(_tokenAddr, _tokenId)) */\n      swap1\n      dup2\n      iszero\n      mul\n      swap1\n      mload(0x40)\n      0x00\n      mload(0x40)\n      dup1\n      dup4\n      sub\n      dup2\n      dup6\n      dup9\n      dup9\n      call\n      swap4\n      pop\n      pop\n      pop\n      pop\n      iszero\n      dup1\n      iszero\n      tag_97\n      jumpi\n      returndatasize\n      0x00\n      dup1\n      returndatacopy\n      revert(0x00, returndatasize)\n    tag_97:\n      pop\n        /* \"Bid.sol\":4045:4397  if (_market.getPrevOwner(_tokenAddr, _tokenId, i) != address(0)) {\r... */\n      jump(tag_98)\n    tag_81:\n        /* \"Bid.sol\":4368:4373  break */\n      jump(tag_73)\n        /* \"Bid.sol\":4045:4397  if (_market.getPrevOwner(_tokenAddr, _tokenId, i) != address(0)) {\r... */\n    tag_98:\n        /* \"Bid.sol\":4017:4020  i++ */\n      dup1\n      dup1\n      tag_99\n      swap1\n      tag_100\n      jump\t// in\n    tag_99:\n      swap2\n      pop\n      pop\n        /* \"Bid.sol\":3993:4416  for (uint i = 0; i < 5; i++) {\r... */\n      jump(tag_72)\n    tag_73:\n      pop\n        /* \"Bid.sol\":4444:4448  _bid */\n      dup2\n        /* \"Bid.sol\":4444:4459  _bid.highestBid */\n      0x05\n      add\n        /* \"Bid.sol\":4444:4474  _bid.highestBid[_bid.bidCount] */\n      0x00\n        /* \"Bid.sol\":4460:4464  _bid */\n      dup4\n        /* \"Bid.sol\":4460:4473  _bid.bidCount */\n      0x04\n      add\n      sload\n        /* \"Bid.sol\":4444:4474  _bid.highestBid[_bid.bidCount] */\n      dup2\n      mstore\n      0x20\n      add\n      swap1\n      dup2\n      mstore\n      0x20\n      add\n      0x00\n      keccak256\n      sload\n        /* \"Bid.sol\":4432:4440  balances */\n      0x01\n      0x00\n        /* \"Bid.sol\":4432:4474  balances -= _bid.highestBid[_bid.bidCount] */\n      dup3\n      dup3\n      sload\n      tag_101\n      swap2\n      swap1\n      tag_61\n      jump\t// in\n    tag_101:\n      swap3\n      pop\n      pop\n      dup2\n      swap1\n      sstore\n      pop\n        /* \"Bid.sol\":4496:4502  uint i */\n      0x00\n        /* \"Bid.sol\":4491:4624  for (uint i = 0; i < _bid.bidCount; i++) {\r... */\n    tag_102:\n        /* \"Bid.sol\":4512:4516  _bid */\n      dup3\n        /* \"Bid.sol\":4512:4525  _bid.bidCount */\n      0x04\n      add\n      sload\n        /* \"Bid.sol\":4508:4509  i */\n      dup2\n        /* \"Bid.sol\":4508:4525  i < _bid.bidCount */\n      lt\n        /* \"Bid.sol\":4491:4624  for (uint i = 0; i < _bid.bidCount; i++) {\r... */\n      iszero\n      tag_103\n      jumpi\n        /* \"Bid.sol\":4551:4608  autoWithdraw(_tokenAddr, _tokenId, _bid.highestBidder[i]) */\n      tag_105\n        /* \"Bid.sol\":4564:4574  _tokenAddr */\n      dup6\n        /* \"Bid.sol\":4576:4584  _tokenId */\n      dup6\n        /* \"Bid.sol\":4586:4590  _bid */\n      dup6\n        /* \"Bid.sol\":4586:4604  _bid.highestBidder */\n      0x06\n      add\n        /* \"Bid.sol\":4586:4607  _bid.highestBidder[i] */\n      0x00\n        /* \"Bid.sol\":4605:4606  i */\n      dup6\n        /* \"Bid.sol\":4586:4607  _bid.highestBidder[i] */\n      dup2\n      mstore\n      0x20\n      add\n      swap1\n      dup2\n      mstore\n      0x20\n      add\n      0x00\n      keccak256\n      0x00\n      swap1\n      sload\n      swap1\n      0x0100\n      exp\n      swap1\n      div\n      0xffffffffffffffffffffffffffffffffffffffff\n      and\n        /* \"Bid.sol\":4551:4563  autoWithdraw */\n      tag_22\n        /* \"Bid.sol\":4551:4608  autoWithdraw(_tokenAddr, _tokenId, _bid.highestBidder[i]) */\n      jump\t// in\n    tag_105:\n        /* \"Bid.sol\":4527:4530  i++ */\n      dup1\n      dup1\n      tag_106\n      swap1\n      tag_100\n      jump\t// in\n    tag_106:\n      swap2\n      pop\n      pop\n        /* \"Bid.sol\":4491:4624  for (uint i = 0; i < _bid.bidCount; i++) {\r... */\n      jump(tag_102)\n    tag_103:\n      pop\n        /* \"Bid.sol\":3614:4737  if (_bid.highestBidder[_bid.bidCount] != address(0)) {\r... */\n      jump(tag_107)\n    tag_52:\n        /* \"Bid.sol\":4656:4660  _bid */\n      dup2\n        /* \"Bid.sol\":4656:4670  _bid.tokenAddr */\n      0x02\n      add\n      0x00\n      swap1\n      sload\n      swap1\n      0x0100\n      exp\n      swap1\n      div\n      0xffffffffffffffffffffffffffffffffffffffff\n      and\n        /* \"Bid.sol\":4656:4683  _bid.tokenAddr.transferFrom */\n      0xffffffffffffffffffffffffffffffffffffffff\n      and\n      0x23b872dd\n        /* \"Bid.sol\":4692:4696  this */\n      address\n        /* \"Bid.sol\":4699:4703  _bid */\n      dup5\n        /* \"Bid.sol\":4699:4710  _bid.seller */\n      0x00\n      add\n      0x00\n      swap1\n      sload\n      swap1\n      0x0100\n      exp\n      swap1\n      div\n      0xffffffffffffffffffffffffffffffffffffffff\n      and\n        /* \"Bid.sol\":4712:4716  _bid */\n      dup6\n        /* \"Bid.sol\":4712:4724  _bid.tokenId */\n      0x03\n      add\n      sload\n        /* \"Bid.sol\":4656:4725  _bid.tokenAddr.transferFrom(address(this), _bid.seller, _bid.tokenId) */\n      mload(0x40)\n      dup5\n      0xffffffff\n      and\n      0xe0\n      shl\n      dup2\n      mstore\n      0x04\n      add\n      tag_108\n      swap4\n      swap3\n      swap2\n      swap1\n      tag_54\n      jump\t// in\n    tag_108:\n      0x00\n      mload(0x40)\n      dup1\n      dup4\n      sub\n      dup2\n      0x00\n      dup8\n      dup1\n      extcodesize\n      iszero\n      dup1\n      iszero\n      tag_109\n      jumpi\n      0x00\n      dup1\n      revert\n    tag_109:\n      pop\n      gas\n      call\n      iszero\n      dup1\n      iszero\n      tag_111\n      jumpi\n      returndatasize\n      0x00\n      dup1\n      returndatacopy\n      revert(0x00, returndatasize)\n    tag_111:\n      pop\n      pop\n      pop\n      pop\n        /* \"Bid.sol\":3614:4737  if (_bid.highestBidder[_bid.bidCount] != address(0)) {\r... */\n    tag_107:\n        /* \"Bid.sol\":4762:4766  true */\n      0x01\n        /* \"Bid.sol\":4749:4753  _bid */\n      dup3\n        /* \"Bid.sol\":4749:4759  _bid.ended */\n      0x00\n      add\n      0x15\n        /* \"Bid.sol\":4749:4766  _bid.ended = true */\n      0x0100\n      exp\n      dup2\n      sload\n      dup2\n      0xff\n      mul\n      not\n      and\n      swap1\n      dup4\n      iszero\n      iszero\n      mul\n      or\n      swap1\n      sstore\n      pop\n        /* \"Bid.sol\":4792:4797  false */\n      0x00\n        /* \"Bid.sol\":4777:4781  _bid */\n      dup3\n        /* \"Bid.sol\":4777:4789  _bid.started */\n      0x00\n      add\n      0x14\n        /* \"Bid.sol\":4777:4797  _bid.started = false */\n      0x0100\n      exp\n      dup2\n      sload\n      dup2\n      0xff\n      mul\n      not\n      and\n      swap1\n      dup4\n      iszero\n      iszero\n      mul\n      or\n      swap1\n      sstore\n      pop\n        /* \"Bid.sol\":4813:4883  End(_bid.highestBidder[_bid.bidCount], _bid.highestBid[_bid.bidCount]) */\n      0x7d7570b046e5ead3a4f3fbc9fa2445113625a1e79823776146316bafed6b8cc5\n        /* \"Bid.sol\":4817:4821  _bid */\n      dup3\n        /* \"Bid.sol\":4817:4835  _bid.highestBidder */\n      0x06\n      add\n        /* \"Bid.sol\":4817:4850  _bid.highestBidder[_bid.bidCount] */\n      0x00\n        /* \"Bid.sol\":4836:4840  _bid */\n      dup5\n        /* \"Bid.sol\":4836:4849  _bid.bidCount */\n      0x04\n      add\n      sload\n        /* \"Bid.sol\":4817:4850  _bid.highestBidder[_bid.bidCount] */\n      dup2\n      mstore\n      0x20\n      add\n      swap1\n      dup2\n      mstore\n      0x20\n      add\n      0x00\n      keccak256\n      0x00\n      swap1\n      sload\n      swap1\n      0x0100\n      exp\n      swap1\n      div\n      0xffffffffffffffffffffffffffffffffffffffff\n      and\n        /* \"Bid.sol\":4852:4856  _bid */\n      dup4\n        /* \"Bid.sol\":4852:4867  _bid.highestBid */\n      0x05\n      add\n        /* \"Bid.sol\":4852:4882  _bid.highestBid[_bid.bidCount] */\n      0x00\n        /* \"Bid.sol\":4868:4872  _bid */\n      dup6\n        /* \"Bid.sol\":4868:4881  _bid.bidCount */\n      0x04\n      add\n      sload\n        /* \"Bid.sol\":4852:4882  _bid.highestBid[_bid.bidCount] */\n      dup2\n      mstore\n      0x20\n      add\n      swap1\n      dup2\n      mstore\n      0x20\n      add\n      0x00\n      keccak256\n      sload\n        /* \"Bid.sol\":4813:4883  End(_bid.highestBidder[_bid.bidCount], _bid.highestBid[_bid.bidCount]) */\n      mload(0x40)\n      tag_112\n      swap3\n      swap2\n      swap1\n      tag_88\n      jump\t// in\n    tag_112:\n      mload(0x40)\n      dup1\n      swap2\n      sub\n      swap1\n      log1\n        /* \"Bid.sol\":3291:4891  {\r... */\n      pop\n      pop\n        /* \"Bid.sol\":3211:4891  function end(address _contractAddr, address _tokenAddr, uint _tokenId) external {\r... */\n      pop\n      pop\n      pop\n      jump\t// out\n        /* \"Bid.sol\":2004:2675  function bid(address _tokenAddr, uint _tokenId) external payable {\r... */\n    tag_18:\n        /* \"Bid.sol\":2080:2100  Bidding storage _bid */\n      0x00\n        /* \"Bid.sol\":2103:2111  biddings */\n      dup1\n        /* \"Bid.sol\":2103:2123  biddings[_tokenAddr] */\n      0x00\n        /* \"Bid.sol\":2112:2122  _tokenAddr */\n      dup5\n        /* \"Bid.sol\":2103:2123  biddings[_tokenAddr] */\n      0xffffffffffffffffffffffffffffffffffffffff\n      and\n      0xffffffffffffffffffffffffffffffffffffffff\n      and\n      dup2\n      mstore\n      0x20\n      add\n      swap1\n      dup2\n      mstore\n      0x20\n      add\n      0x00\n      keccak256\n        /* \"Bid.sol\":2103:2133  biddings[_tokenAddr][_tokenId] */\n      0x00\n        /* \"Bid.sol\":2124:2132  _tokenId */\n      dup4\n        /* \"Bid.sol\":2103:2133  biddings[_tokenAddr][_tokenId] */\n      dup2\n      mstore\n      0x20\n      add\n      swap1\n      dup2\n      mstore\n      0x20\n      add\n      0x00\n      keccak256\n        /* \"Bid.sol\":2080:2133  Bidding storage _bid = biddings[_tokenAddr][_tokenId] */\n      swap1\n      pop\n        /* \"Bid.sol\":2154:2158  _bid */\n      dup1\n        /* \"Bid.sol\":2154:2166  _bid.started */\n      0x00\n      add\n      0x14\n      swap1\n      sload\n      swap1\n      0x0100\n      exp\n      swap1\n      div\n      0xff\n      and\n        /* \"Bid.sol\":2146:2183  require(_bid.started, \"Not started.\") */\n      tag_114\n      jumpi\n      mload(0x40)\n      0x08c379a000000000000000000000000000000000000000000000000000000000\n      dup2\n      mstore\n      0x04\n      add\n      tag_115\n      swap1\n      tag_116\n      jump\t// in\n    tag_115:\n      mload(0x40)\n      dup1\n      swap2\n      sub\n      swap1\n      revert\n    tag_114:\n        /* \"Bid.sol\":2220:2224  _bid */\n      dup1\n        /* \"Bid.sol\":2220:2230  _bid.endAt */\n      0x01\n      add\n      sload\n        /* \"Bid.sol\":2202:2217  block.timestamp */\n      timestamp\n        /* \"Bid.sol\":2202:2230  block.timestamp < _bid.endAt */\n      lt\n        /* \"Bid.sol\":2194:2241  require(block.timestamp < _bid.endAt, \"Ended!\") */\n      tag_117\n      jumpi\n      mload(0x40)\n      0x08c379a000000000000000000000000000000000000000000000000000000000\n      dup2\n      mstore\n      0x04\n      add\n      tag_118\n      swap1\n      tag_119\n      jump\t// in\n    tag_118:\n      mload(0x40)\n      dup1\n      swap2\n      sub\n      swap1\n      revert\n    tag_117:\n        /* \"Bid.sol\":2272:2276  _bid */\n      dup1\n        /* \"Bid.sol\":2272:2287  _bid.highestBid */\n      0x05\n      add\n        /* \"Bid.sol\":2272:2302  _bid.highestBid[_bid.bidCount] */\n      0x00\n        /* \"Bid.sol\":2288:2292  _bid */\n      dup3\n        /* \"Bid.sol\":2288:2301  _bid.bidCount */\n      0x04\n      add\n      sload\n        /* \"Bid.sol\":2272:2302  _bid.highestBid[_bid.bidCount] */\n      dup2\n      mstore\n      0x20\n      add\n      swap1\n      dup2\n      mstore\n      0x20\n      add\n      0x00\n      keccak256\n      sload\n        /* \"Bid.sol\":2260:2269  msg.value */\n      callvalue\n        /* \"Bid.sol\":2260:2302  msg.value > _bid.highestBid[_bid.bidCount] */\n      gt\n        /* \"Bid.sol\":2252:2317  require(msg.value > _bid.highestBid[_bid.bidCount], \"Lower bid!\") */\n      tag_120\n      jumpi\n      mload(0x40)\n      0x08c379a000000000000000000000000000000000000000000000000000000000\n      dup2\n      mstore\n      0x04\n      add\n      tag_121\n      swap1\n      tag_122\n      jump\t// in\n    tag_121:\n      mload(0x40)\n      dup1\n      swap2\n      sub\n      swap1\n      revert\n    tag_120:\n        /* \"Bid.sol\":2363:2372  msg.value */\n      callvalue\n        /* \"Bid.sol\":2330:2334  _bid */\n      dup2\n        /* \"Bid.sol\":2330:2345  _bid.highestBid */\n      0x05\n      add\n        /* \"Bid.sol\":2330:2360  _bid.highestBid[_bid.bidCount] */\n      0x00\n        /* \"Bid.sol\":2346:2350  _bid */\n      dup4\n        /* \"Bid.sol\":2346:2359  _bid.bidCount */\n      0x04\n      add\n      sload\n        /* \"Bid.sol\":2330:2360  _bid.highestBid[_bid.bidCount] */\n      dup2\n      mstore\n      0x20\n      add\n      swap1\n      dup2\n      mstore\n      0x20\n      add\n      0x00\n      keccak256\n        /* \"Bid.sol\":2330:2372  _bid.highestBid[_bid.bidCount] = msg.value */\n      dup2\n      swap1\n      sstore\n      pop\n        /* \"Bid.sol\":2419:2429  msg.sender */\n      caller\n        /* \"Bid.sol\":2383:2387  _bid */\n      dup2\n        /* \"Bid.sol\":2383:2401  _bid.highestBidder */\n      0x06\n      add\n        /* \"Bid.sol\":2383:2416  _bid.highestBidder[_bid.bidCount] */\n      0x00\n        /* \"Bid.sol\":2402:2406  _bid */\n      dup4\n        /* \"Bid.sol\":2402:2415  _bid.bidCount */\n      0x04\n      add\n      sload\n        /* \"Bid.sol\":2383:2416  _bid.highestBidder[_bid.bidCount] */\n      dup2\n      mstore\n      0x20\n      add\n      swap1\n      dup2\n      mstore\n      0x20\n      add\n      0x00\n      keccak256\n      0x00\n        /* \"Bid.sol\":2383:2429  _bid.highestBidder[_bid.bidCount] = msg.sender */\n      0x0100\n      exp\n      dup2\n      sload\n      dup2\n      0xffffffffffffffffffffffffffffffffffffffff\n      mul\n      not\n      and\n      swap1\n      dup4\n      0xffffffffffffffffffffffffffffffffffffffff\n      and\n      mul\n      or\n      swap1\n      sstore\n      pop\n        /* \"Bid.sol\":2487:2491  _bid */\n      dup1\n        /* \"Bid.sol\":2487:2502  _bid.highestBid */\n      0x05\n      add\n        /* \"Bid.sol\":2487:2517  _bid.highestBid[_bid.bidCount] */\n      0x00\n        /* \"Bid.sol\":2503:2507  _bid */\n      dup3\n        /* \"Bid.sol\":2503:2516  _bid.bidCount */\n      0x04\n      add\n      sload\n        /* \"Bid.sol\":2487:2517  _bid.highestBid[_bid.bidCount] */\n      dup2\n      mstore\n      0x20\n      add\n      swap1\n      dup2\n      mstore\n      0x20\n      add\n      0x00\n      keccak256\n      sload\n        /* \"Bid.sol\":2440:2444  _bid */\n      dup2\n        /* \"Bid.sol\":2440:2449  _bid.bids */\n      0x07\n      add\n        /* \"Bid.sol\":2440:2484  _bid.bids[_bid.highestBidder[_bid.bidCount]] */\n      0x00\n        /* \"Bid.sol\":2450:2454  _bid */\n      dup4\n        /* \"Bid.sol\":2450:2468  _bid.highestBidder */\n      0x06\n      add\n        /* \"Bid.sol\":2450:2483  _bid.highestBidder[_bid.bidCount] */\n      0x00\n        /* \"Bid.sol\":2469:2473  _bid */\n      dup6\n        /* \"Bid.sol\":2469:2482  _bid.bidCount */\n      0x04\n      add\n      sload\n        /* \"Bid.sol\":2450:2483  _bid.highestBidder[_bid.bidCount] */\n      dup2\n      mstore\n      0x20\n      add\n      swap1\n      dup2\n      mstore\n      0x20\n      add\n      0x00\n      keccak256\n      0x00\n      swap1\n      sload\n      swap1\n      0x0100\n      exp\n      swap1\n      div\n      0xffffffffffffffffffffffffffffffffffffffff\n      and\n        /* \"Bid.sol\":2440:2484  _bid.bids[_bid.highestBidder[_bid.bidCount]] */\n      0xffffffffffffffffffffffffffffffffffffffff\n      and\n      0xffffffffffffffffffffffffffffffffffffffff\n      and\n      dup2\n      mstore\n      0x20\n      add\n      swap1\n      dup2\n      mstore\n      0x20\n      add\n      0x00\n      keccak256\n        /* \"Bid.sol\":2440:2517  _bid.bids[_bid.highestBidder[_bid.bidCount]] = _bid.highestBid[_bid.bidCount] */\n      dup2\n      swap1\n      sstore\n      pop\n        /* \"Bid.sol\":2530:2534  _bid */\n      dup1\n        /* \"Bid.sol\":2530:2543  _bid.bidCount */\n      0x04\n      add\n      0x00\n        /* \"Bid.sol\":2530:2545  _bid.bidCount++ */\n      dup2\n      sload\n      dup1\n      swap3\n      swap2\n      swap1\n      tag_123\n      swap1\n      tag_100\n      jump\t// in\n    tag_123:\n      swap2\n      swap1\n      pop\n      sstore\n      pop\n        /* \"Bid.sol\":2570:2579  msg.value */\n      callvalue\n        /* \"Bid.sol\":2558:2566  balances */\n      0x01\n      0x00\n        /* \"Bid.sol\":2558:2579  balances += msg.value */\n      dup3\n      dup3\n      sload\n      tag_124\n      swap2\n      swap1\n      tag_125\n      jump\t// in\n    tag_124:\n      swap3\n      pop\n      pop\n      dup2\n      swap1\n      sstore\n      pop\n        /* \"Bid.sol\":2601:2605  _bid */\n      dup1\n        /* \"Bid.sol\":2601:2619  _bid.highestBidder */\n      0x06\n      add\n        /* \"Bid.sol\":2601:2634  _bid.highestBidder[_bid.bidCount] */\n      0x00\n        /* \"Bid.sol\":2620:2624  _bid */\n      dup3\n        /* \"Bid.sol\":2620:2633  _bid.bidCount */\n      0x04\n      add\n      sload\n        /* \"Bid.sol\":2601:2634  _bid.highestBidder[_bid.bidCount] */\n      dup2\n      mstore\n      0x20\n      add\n      swap1\n      dup2\n      mstore\n      0x20\n      add\n      0x00\n      keccak256\n      0x00\n      swap1\n      sload\n      swap1\n      0x0100\n      exp\n      swap1\n      div\n      0xffffffffffffffffffffffffffffffffffffffff\n      and\n        /* \"Bid.sol\":2597:2667  Bid(_bid.highestBidder[_bid.bidCount], _bid.highestBid[_bid.bidCount]) */\n      0xffffffffffffffffffffffffffffffffffffffff\n      and\n      0xe684a55f31b79eca403df938249029212a5925ec6be8012e099b45bc1019e5d2\n        /* \"Bid.sol\":2636:2640  _bid */\n      dup3\n        /* \"Bid.sol\":2636:2651  _bid.highestBid */\n      0x05\n      add\n        /* \"Bid.sol\":2636:2666  _bid.highestBid[_bid.bidCount] */\n      0x00\n        /* \"Bid.sol\":2652:2656  _bid */\n      dup5\n        /* \"Bid.sol\":2652:2665  _bid.bidCount */\n      0x04\n      add\n      sload\n        /* \"Bid.sol\":2636:2666  _bid.highestBid[_bid.bidCount] */\n      dup2\n      mstore\n      0x20\n      add\n      swap1\n      dup2\n      mstore\n      0x20\n      add\n      0x00\n      keccak256\n      sload\n        /* \"Bid.sol\":2597:2667  Bid(_bid.highestBidder[_bid.bidCount], _bid.highestBid[_bid.bidCount]) */\n      mload(0x40)\n      tag_126\n      swap2\n      swap1\n      tag_27\n      jump\t// in\n    tag_126:\n      mload(0x40)\n      dup1\n      swap2\n      sub\n      swap1\n      log2\n        /* \"Bid.sol\":2069:2675  {\r... */\n      pop\n        /* \"Bid.sol\":2004:2675  function bid(address _tokenAddr, uint _tokenId) external payable {\r... */\n      pop\n      pop\n      jump\t// out\n        /* \"Bid.sol\":4899:5289  function autoWithdraw(address tokenAddr_, uint tokenId_, address to) public payable {\r... */\n    tag_22:\n        /* \"Bid.sol\":4994:5014  Bidding storage _bid */\n      0x00\n        /* \"Bid.sol\":5017:5025  biddings */\n      dup1\n        /* \"Bid.sol\":5017:5037  biddings[tokenAddr_] */\n      0x00\n        /* \"Bid.sol\":5026:5036  tokenAddr_ */\n      dup6\n        /* \"Bid.sol\":5017:5037  biddings[tokenAddr_] */\n      0xffffffffffffffffffffffffffffffffffffffff\n      and\n      0xffffffffffffffffffffffffffffffffffffffff\n      and\n      dup2\n      mstore\n      0x20\n      add\n      swap1\n      dup2\n      mstore\n      0x20\n      add\n      0x00\n      keccak256\n        /* \"Bid.sol\":5017:5047  biddings[tokenAddr_][tokenId_] */\n      0x00\n        /* \"Bid.sol\":5038:5046  tokenId_ */\n      dup5\n        /* \"Bid.sol\":5017:5047  biddings[tokenAddr_][tokenId_] */\n      dup2\n      mstore\n      0x20\n      add\n      swap1\n      dup2\n      mstore\n      0x20\n      add\n      0x00\n      keccak256\n        /* \"Bid.sol\":4994:5047  Bidding storage _bid = biddings[tokenAddr_][tokenId_] */\n      swap1\n      pop\n        /* \"Bid.sol\":5058:5066  uint bal */\n      0x00\n        /* \"Bid.sol\":5069:5073  _bid */\n      dup2\n        /* \"Bid.sol\":5069:5078  _bid.bids */\n      0x07\n      add\n        /* \"Bid.sol\":5069:5082  _bid.bids[to] */\n      0x00\n        /* \"Bid.sol\":5079:5081  to */\n      dup5\n        /* \"Bid.sol\":5069:5082  _bid.bids[to] */\n      0xffffffffffffffffffffffffffffffffffffffff\n      and\n      0xffffffffffffffffffffffffffffffffffffffff\n      and\n      dup2\n      mstore\n      0x20\n      add\n      swap1\n      dup2\n      mstore\n      0x20\n      add\n      0x00\n      keccak256\n      sload\n        /* \"Bid.sol\":5058:5082  uint bal = _bid.bids[to] */\n      swap1\n      pop\n        /* \"Bid.sol\":5109:5110  0 */\n      0x00\n        /* \"Bid.sol\":5103:5106  bal */\n      dup2\n        /* \"Bid.sol\":5103:5110  bal > 0 */\n      gt\n        /* \"Bid.sol\":5103:5129  bal > 0 && bal <= balances */\n      dup1\n      iszero\n      tag_128\n      jumpi\n      pop\n        /* \"Bid.sol\":5121:5129  balances */\n      sload(0x01)\n        /* \"Bid.sol\":5114:5117  bal */\n      dup2\n        /* \"Bid.sol\":5114:5129  bal <= balances */\n      gt\n      iszero\n        /* \"Bid.sol\":5103:5129  bal > 0 && bal <= balances */\n    tag_128:\n        /* \"Bid.sol\":5095:5152  require(bal > 0 && bal <= balances, \"Could not withdraw\") */\n      tag_129\n      jumpi\n      mload(0x40)\n      0x08c379a000000000000000000000000000000000000000000000000000000000\n      dup2\n      mstore\n      0x04\n      add\n      tag_130\n      swap1\n      tag_131\n      jump\t// in\n    tag_130:\n      mload(0x40)\n      dup1\n      swap2\n      sub\n      swap1\n      revert\n    tag_129:\n        /* \"Bid.sol\":5181:5182  0 */\n      0x00\n        /* \"Bid.sol\":5165:5169  _bid */\n      dup3\n        /* \"Bid.sol\":5165:5174  _bid.bids */\n      0x07\n      add\n        /* \"Bid.sol\":5165:5178  _bid.bids[to] */\n      0x00\n        /* \"Bid.sol\":5175:5177  to */\n      dup6\n        /* \"Bid.sol\":5165:5178  _bid.bids[to] */\n      0xffffffffffffffffffffffffffffffffffffffff\n      and\n      0xffffffffffffffffffffffffffffffffffffffff\n      and\n      dup2\n      mstore\n      0x20\n      add\n      swap1\n      dup2\n      mstore\n      0x20\n      add\n      0x00\n      keccak256\n        /* \"Bid.sol\":5165:5182  _bid.bids[to] = 0 */\n      dup2\n      swap1\n      sstore\n      pop\n        /* \"Bid.sol\":5203:5205  to */\n      dup3\n        /* \"Bid.sol\":5195:5215  payable(to).transfer */\n      0xffffffffffffffffffffffffffffffffffffffff\n      and\n        /* \"Bid.sol\":5195:5220  payable(to).transfer(bal) */\n      0x08fc\n        /* \"Bid.sol\":5216:5219  bal */\n      dup3\n        /* \"Bid.sol\":5195:5220  payable(to).transfer(bal) */\n      swap1\n      dup2\n      iszero\n      mul\n      swap1\n      mload(0x40)\n      0x00\n      mload(0x40)\n      dup1\n      dup4\n      sub\n      dup2\n      dup6\n      dup9\n      dup9\n      call\n      swap4\n      pop\n      pop\n      pop\n      pop\n      iszero\n      dup1\n      iszero\n      tag_133\n      jumpi\n      returndatasize\n      0x00\n      dup1\n      returndatacopy\n      revert(0x00, returndatasize)\n    tag_133:\n      pop\n        /* \"Bid.sol\":5243:5246  bal */\n      dup1\n        /* \"Bid.sol\":5231:5239  balances */\n      0x01\n      0x00\n        /* \"Bid.sol\":5231:5246  balances -= bal */\n      dup3\n      dup3\n      sload\n      tag_134\n      swap2\n      swap1\n      tag_61\n      jump\t// in\n    tag_134:\n      swap3\n      pop\n      pop\n      dup2\n      swap1\n      sstore\n      pop\n        /* \"Bid.sol\":5273:5275  to */\n      dup3\n        /* \"Bid.sol\":5264:5281  Withdraw(to, bal) */\n      0xffffffffffffffffffffffffffffffffffffffff\n      and\n      0x884edad9ce6fa2440d8a54cc123490eb96d2768479d49ff9c7366125a9424364\n        /* \"Bid.sol\":5277:5280  bal */\n      dup3\n        /* \"Bid.sol\":5264:5281  Withdraw(to, bal) */\n      mload(0x40)\n      tag_135\n      swap2\n      swap1\n      tag_27\n      jump\t// in\n    tag_135:\n      mload(0x40)\n      dup1\n      swap2\n      sub\n      swap1\n      log2\n        /* \"Bid.sol\":4983:5289  {\r... */\n      pop\n      pop\n        /* \"Bid.sol\":4899:5289  function autoWithdraw(address tokenAddr_, uint tokenId_, address to) public payable {\r... */\n      pop\n      pop\n      pop\n      jump\t// out\n        /* \"Bid.sol\":803:823  uint public balances */\n    tag_25:\n      sload(0x01)\n      dup2\n      jump\t// out\n        /* \"Bid.sol\":1159:1996  function start(address _tokenAddr, uint _tokenId, uint startingBid, uint dayAmount) external {\r... */\n    tag_32:\n        /* \"Bid.sol\":1263:1283  Bidding storage _bid */\n      0x00\n        /* \"Bid.sol\":1286:1294  biddings */\n      dup1\n        /* \"Bid.sol\":1286:1306  biddings[_tokenAddr] */\n      0x00\n        /* \"Bid.sol\":1295:1305  _tokenAddr */\n      dup7\n        /* \"Bid.sol\":1286:1306  biddings[_tokenAddr] */\n      0xffffffffffffffffffffffffffffffffffffffff\n      and\n      0xffffffffffffffffffffffffffffffffffffffff\n      and\n      dup2\n      mstore\n      0x20\n      add\n      swap1\n      dup2\n      mstore\n      0x20\n      add\n      0x00\n      keccak256\n        /* \"Bid.sol\":1286:1316  biddings[_tokenAddr][_tokenId] */\n      0x00\n        /* \"Bid.sol\":1307:1315  _tokenId */\n      dup6\n        /* \"Bid.sol\":1286:1316  biddings[_tokenAddr][_tokenId] */\n      dup2\n      mstore\n      0x20\n      add\n      swap1\n      dup2\n      mstore\n      0x20\n      add\n      0x00\n      keccak256\n        /* \"Bid.sol\":1263:1316  Bidding storage _bid = biddings[_tokenAddr][_tokenId] */\n      swap1\n      pop\n        /* \"Bid.sol\":1351:1361  _tokenAddr */\n      dup5\n        /* \"Bid.sol\":1327:1331  _bid */\n      dup2\n        /* \"Bid.sol\":1327:1341  _bid.tokenAddr */\n      0x02\n      add\n      0x00\n        /* \"Bid.sol\":1327:1362  _bid.tokenAddr = ERC721(_tokenAddr) */\n      0x0100\n      exp\n      dup2\n      sload\n      dup2\n      0xffffffffffffffffffffffffffffffffffffffff\n      mul\n      not\n      and\n      swap1\n      dup4\n      0xffffffffffffffffffffffffffffffffffffffff\n      and\n      mul\n      or\n      swap1\n      sstore\n      pop\n        /* \"Bid.sol\":1387:1391  _bid */\n      dup1\n        /* \"Bid.sol\":1387:1401  _bid.tokenAddr */\n      0x02\n      add\n      0x00\n      swap1\n      sload\n      swap1\n      0x0100\n      exp\n      swap1\n      div\n      0xffffffffffffffffffffffffffffffffffffffff\n      and\n        /* \"Bid.sol\":1387:1409  _bid.tokenAddr.ownerOf */\n      0xffffffffffffffffffffffffffffffffffffffff\n      and\n      0x6352211e\n        /* \"Bid.sol\":1410:1418  _tokenId */\n      dup6\n        /* \"Bid.sol\":1387:1419  _bid.tokenAddr.ownerOf(_tokenId) */\n      mload(0x40)\n      dup3\n      0xffffffff\n      and\n      0xe0\n      shl\n      dup2\n      mstore\n      0x04\n      add\n      tag_137\n      swap2\n      swap1\n      tag_27\n      jump\t// in\n    tag_137:\n      0x20\n      mload(0x40)\n      dup1\n      dup4\n      sub\n      dup2\n      dup7\n      dup1\n      extcodesize\n      iszero\n      dup1\n      iszero\n      tag_138\n      jumpi\n      0x00\n      dup1\n      revert\n    tag_138:\n      pop\n      gas\n      staticcall\n      iszero\n      dup1\n      iszero\n      tag_140\n      jumpi\n      returndatasize\n      0x00\n      dup1\n      returndatacopy\n      revert(0x00, returndatasize)\n    tag_140:\n      pop\n      pop\n      pop\n      pop\n      mload(0x40)\n      returndatasize\n      not(0x1f)\n      0x1f\n      dup3\n      add\n      and\n      dup3\n      add\n      dup1\n      0x40\n      mstore\n      pop\n      dup2\n      add\n      swap1\n      tag_141\n      swap2\n      swap1\n      tag_68\n      jump\t// in\n    tag_141:\n        /* \"Bid.sol\":1373:1377  _bid */\n      dup2\n        /* \"Bid.sol\":1373:1384  _bid.seller */\n      0x00\n      add\n      0x00\n        /* \"Bid.sol\":1373:1419  _bid.seller = _bid.tokenAddr.ownerOf(_tokenId) */\n      0x0100\n      exp\n      dup2\n      sload\n      dup2\n      0xffffffffffffffffffffffffffffffffffffffff\n      mul\n      not\n      and\n      swap1\n      dup4\n      0xffffffffffffffffffffffffffffffffffffffff\n      and\n      mul\n      or\n      swap1\n      sstore\n      pop\n        /* \"Bid.sol\":1443:1448  false */\n      0x00\n        /* \"Bid.sol\":1430:1434  _bid */\n      dup2\n        /* \"Bid.sol\":1430:1440  _bid.ended */\n      0x00\n      add\n      0x15\n        /* \"Bid.sol\":1430:1448  _bid.ended = false */\n      0x0100\n      exp\n      dup2\n      sload\n      dup2\n      0xff\n      mul\n      not\n      and\n      swap1\n      dup4\n      iszero\n      iszero\n      mul\n      or\n      swap1\n      sstore\n      pop\n        /* \"Bid.sol\":1470:1474  _bid */\n      dup1\n        /* \"Bid.sol\":1470:1482  _bid.started */\n      0x00\n      add\n      0x14\n      swap1\n      sload\n      swap1\n      0x0100\n      exp\n      swap1\n      div\n      0xff\n      and\n        /* \"Bid.sol\":1469:1482  !_bid.started */\n      iszero\n        /* \"Bid.sol\":1461:1503  require(!_bid.started, \"Already started!\") */\n      tag_142\n      jumpi\n      mload(0x40)\n      0x08c379a000000000000000000000000000000000000000000000000000000000\n      dup2\n      mstore\n      0x04\n      add\n      tag_143\n      swap1\n      tag_144\n      jump\t// in\n    tag_143:\n      mload(0x40)\n      dup1\n      swap2\n      sub\n      swap1\n      revert\n    tag_142:\n        /* \"Bid.sol\":1536:1540  _bid */\n      dup1\n        /* \"Bid.sol\":1536:1547  _bid.seller */\n      0x00\n      add\n      0x00\n      swap1\n      sload\n      swap1\n      0x0100\n      exp\n      swap1\n      div\n      0xffffffffffffffffffffffffffffffffffffffff\n      and\n        /* \"Bid.sol\":1522:1547  msg.sender == _bid.seller */\n      0xffffffffffffffffffffffffffffffffffffffff\n      and\n        /* \"Bid.sol\":1522:1532  msg.sender */\n      caller\n        /* \"Bid.sol\":1522:1547  msg.sender == _bid.seller */\n      0xffffffffffffffffffffffffffffffffffffffff\n      and\n      eq\n        /* \"Bid.sol\":1514:1582  require(msg.sender == _bid.seller, \"You can not start the auction!\") */\n      tag_145\n      jumpi\n      mload(0x40)\n      0x08c379a000000000000000000000000000000000000000000000000000000000\n      dup2\n      mstore\n      0x04\n      add\n      tag_146\n      swap1\n      tag_147\n      jump\t// in\n    tag_146:\n      mload(0x40)\n      dup1\n      swap2\n      sub\n      swap1\n      revert\n    tag_145:\n        /* \"Bid.sol\":1619:1620  0 */\n      0x00\n        /* \"Bid.sol\":1603:1607  _bid */\n      dup2\n        /* \"Bid.sol\":1603:1616  _bid.bidCount */\n      0x04\n      add\n        /* \"Bid.sol\":1603:1620  _bid.bidCount = 0 */\n      dup2\n      swap1\n      sstore\n      pop\n        /* \"Bid.sol\":1664:1675  startingBid */\n      dup3\n        /* \"Bid.sol\":1631:1635  _bid */\n      dup2\n        /* \"Bid.sol\":1631:1646  _bid.highestBid */\n      0x05\n      add\n        /* \"Bid.sol\":1631:1661  _bid.highestBid[_bid.bidCount] */\n      0x00\n        /* \"Bid.sol\":1647:1651  _bid */\n      dup4\n        /* \"Bid.sol\":1647:1660  _bid.bidCount */\n      0x04\n      add\n      sload\n        /* \"Bid.sol\":1631:1661  _bid.highestBid[_bid.bidCount] */\n      dup2\n      mstore\n      0x20\n      add\n      swap1\n      dup2\n      mstore\n      0x20\n      add\n      0x00\n      keccak256\n        /* \"Bid.sol\":1631:1675  _bid.highestBid[_bid.bidCount] = startingBid */\n      dup2\n      swap1\n      sstore\n      pop\n        /* \"Bid.sol\":1686:1690  _bid */\n      dup1\n        /* \"Bid.sol\":1686:1699  _bid.bidCount */\n      0x04\n      add\n      0x00\n        /* \"Bid.sol\":1686:1701  _bid.bidCount++ */\n      dup2\n      sload\n      dup1\n      swap3\n      swap2\n      swap1\n      tag_148\n      swap1\n      tag_100\n      jump\t// in\n    tag_148:\n      swap2\n      swap1\n      pop\n      sstore\n      pop\n        /* \"Bid.sol\":1737:1745  _tokenId */\n      dup4\n        /* \"Bid.sol\":1722:1726  _bid */\n      dup2\n        /* \"Bid.sol\":1722:1734  _bid.tokenId */\n      0x03\n      add\n        /* \"Bid.sol\":1722:1745  _bid.tokenId = _tokenId */\n      dup2\n      swap1\n      sstore\n      pop\n        /* \"Bid.sol\":1756:1760  _bid */\n      dup1\n        /* \"Bid.sol\":1756:1770  _bid.tokenAddr */\n      0x02\n      add\n      0x00\n      swap1\n      sload\n      swap1\n      0x0100\n      exp\n      swap1\n      div\n      0xffffffffffffffffffffffffffffffffffffffff\n      and\n        /* \"Bid.sol\":1756:1783  _bid.tokenAddr.transferFrom */\n      0xffffffffffffffffffffffffffffffffffffffff\n      and\n      0x23b872dd\n        /* \"Bid.sol\":1784:1794  msg.sender */\n      caller\n        /* \"Bid.sol\":1804:1808  this */\n      address\n        /* \"Bid.sol\":1811:1815  _bid */\n      dup5\n        /* \"Bid.sol\":1811:1823  _bid.tokenId */\n      0x03\n      add\n      sload\n        /* \"Bid.sol\":1756:1824  _bid.tokenAddr.transferFrom(msg.sender, address(this), _bid.tokenId) */\n      mload(0x40)\n      dup5\n      0xffffffff\n      and\n      0xe0\n      shl\n      dup2\n      mstore\n      0x04\n      add\n      tag_149\n      swap4\n      swap3\n      swap2\n      swap1\n      tag_54\n      jump\t// in\n    tag_149:\n      0x00\n      mload(0x40)\n      dup1\n      dup4\n      sub\n      dup2\n      0x00\n      dup8\n      dup1\n      extcodesize\n      iszero\n      dup1\n      iszero\n      tag_150\n      jumpi\n      0x00\n      dup1\n      revert\n    tag_150:\n      pop\n      gas\n      call\n      iszero\n      dup1\n      iszero\n      tag_152\n      jumpi\n      returndatasize\n      0x00\n      dup1\n      returndatacopy\n      revert(0x00, returndatasize)\n    tag_152:\n      pop\n      pop\n      pop\n      pop\n        /* \"Bid.sol\":1852:1856  true */\n      0x01\n        /* \"Bid.sol\":1837:1841  _bid */\n      dup2\n        /* \"Bid.sol\":1837:1849  _bid.started */\n      0x00\n      add\n      0x14\n        /* \"Bid.sol\":1837:1856  _bid.started = true */\n      0x0100\n      exp\n      dup2\n      sload\n      dup2\n      0xff\n      mul\n      not\n      and\n      swap1\n      dup4\n      iszero\n      iszero\n      mul\n      or\n      swap1\n      sstore\n      pop\n        /* \"Bid.sol\":1911:1917  1 days */\n      0x015180\n        /* \"Bid.sol\":1899:1908  dayAmount */\n      dup3\n        /* \"Bid.sol\":1899:1917  dayAmount * 1 days */\n      tag_153\n      swap2\n      swap1\n      tag_154\n      jump\t// in\n    tag_153:\n        /* \"Bid.sol\":1880:1895  block.timestamp */\n      timestamp\n        /* \"Bid.sol\":1880:1918  block.timestamp + (dayAmount * 1 days) */\n      tag_155\n      swap2\n      swap1\n      tag_125\n      jump\t// in\n    tag_155:\n        /* \"Bid.sol\":1867:1871  _bid */\n      dup2\n        /* \"Bid.sol\":1867:1877  _bid.endAt */\n      0x01\n      add\n        /* \"Bid.sol\":1867:1918  _bid.endAt = block.timestamp + (dayAmount * 1 days) */\n      dup2\n      swap1\n      sstore\n      pop\n        /* \"Bid.sol\":1954:1962  _tokenId */\n      dup4\n        /* \"Bid.sol\":1942:1952  _tokenAddr */\n      dup6\n        /* \"Bid.sol\":1936:1988  Start(_tokenAddr, _tokenId, startingBid, _bid.endAt) */\n      0xffffffffffffffffffffffffffffffffffffffff\n      and\n      0x3b305515dbe345238649f5ce343c57ae67d5727443f8d744b2b793c3231e3ad9\n        /* \"Bid.sol\":1964:1975  startingBid */\n      dup6\n        /* \"Bid.sol\":1977:1981  _bid */\n      dup5\n        /* \"Bid.sol\":1977:1987  _bid.endAt */\n      0x01\n      add\n      sload\n        /* \"Bid.sol\":1936:1988  Start(_tokenAddr, _tokenId, startingBid, _bid.endAt) */\n      mload(0x40)\n      tag_156\n      swap3\n      swap2\n      swap1\n      tag_157\n      jump\t// in\n    tag_156:\n      mload(0x40)\n      dup1\n      swap2\n      sub\n      swap1\n      log3\n        /* \"Bid.sol\":1252:1996  {\r... */\n      pop\n        /* \"Bid.sol\":1159:1996  function start(address _tokenAddr, uint _tokenId, uint startingBid, uint dayAmount) external {\r... */\n      pop\n      pop\n      pop\n      pop\n      jump\t// out\n        /* \"Bid.sol\":2683:3203  function withdraw(address _tokenAddr, uint _tokenId) external payable {\r... */\n    tag_35:\n        /* \"Bid.sol\":2764:2784  Bidding storage _bid */\n      0x00\n        /* \"Bid.sol\":2787:2795  biddings */\n      dup1\n        /* \"Bid.sol\":2787:2807  biddings[_tokenAddr] */\n      0x00\n        /* \"Bid.sol\":2796:2806  _tokenAddr */\n      dup5\n        /* \"Bid.sol\":2787:2807  biddings[_tokenAddr] */\n      0xffffffffffffffffffffffffffffffffffffffff\n      and\n      0xffffffffffffffffffffffffffffffffffffffff\n      and\n      dup2\n      mstore\n      0x20\n      add\n      swap1\n      dup2\n      mstore\n      0x20\n      add\n      0x00\n      keccak256\n        /* \"Bid.sol\":2787:2817  biddings[_tokenAddr][_tokenId] */\n      0x00\n        /* \"Bid.sol\":2808:2816  _tokenId */\n      dup4\n        /* \"Bid.sol\":2787:2817  biddings[_tokenAddr][_tokenId] */\n      dup2\n      mstore\n      0x20\n      add\n      swap1\n      dup2\n      mstore\n      0x20\n      add\n      0x00\n      keccak256\n        /* \"Bid.sol\":2764:2817  Bidding storage _bid = biddings[_tokenAddr][_tokenId] */\n      swap1\n      pop\n        /* \"Bid.sol\":2828:2836  uint bal */\n      0x00\n        /* \"Bid.sol\":2839:2843  _bid */\n      dup2\n        /* \"Bid.sol\":2839:2848  _bid.bids */\n      0x07\n      add\n        /* \"Bid.sol\":2839:2860  _bid.bids[msg.sender] */\n      0x00\n        /* \"Bid.sol\":2849:2859  msg.sender */\n      caller\n        /* \"Bid.sol\":2839:2860  _bid.bids[msg.sender] */\n      0xffffffffffffffffffffffffffffffffffffffff\n      and\n      0xffffffffffffffffffffffffffffffffffffffff\n      and\n      dup2\n      mstore\n      0x20\n      add\n      swap1\n      dup2\n      mstore\n      0x20\n      add\n      0x00\n      keccak256\n      sload\n        /* \"Bid.sol\":2828:2860  uint bal = _bid.bids[msg.sender] */\n      swap1\n      pop\n        /* \"Bid.sol\":2888:2889  0 */\n      0x00\n        /* \"Bid.sol\":2881:2884  bal */\n      dup2\n        /* \"Bid.sol\":2881:2889  bal != 0 */\n      eq\n      iszero\n        /* \"Bid.sol\":2881:2908  bal != 0 && bal <= balances */\n      dup1\n      iszero\n      tag_159\n      jumpi\n      pop\n        /* \"Bid.sol\":2900:2908  balances */\n      sload(0x01)\n        /* \"Bid.sol\":2893:2896  bal */\n      dup2\n        /* \"Bid.sol\":2893:2908  bal <= balances */\n      gt\n      iszero\n        /* \"Bid.sol\":2881:2908  bal != 0 && bal <= balances */\n    tag_159:\n        /* \"Bid.sol\":2873:2931  require(bal != 0 && bal <= balances, \"Could not withdraw\") */\n      tag_160\n      jumpi\n      mload(0x40)\n      0x08c379a000000000000000000000000000000000000000000000000000000000\n      dup2\n      mstore\n      0x04\n      add\n      tag_161\n      swap1\n      tag_131\n      jump\t// in\n    tag_161:\n      mload(0x40)\n      dup1\n      swap2\n      sub\n      swap1\n      revert\n    tag_160:\n        /* \"Bid.sol\":2951:2955  _bid */\n      dup2\n        /* \"Bid.sol\":2951:2963  _bid.started */\n      0x00\n      add\n      0x14\n      swap1\n      sload\n      swap1\n      0x0100\n      exp\n      swap1\n      div\n      0xff\n      and\n        /* \"Bid.sol\":2950:2963  !_bid.started */\n      iszero\n        /* \"Bid.sol\":2942:2988  require(!_bid.started, \"Wait for auction end\") */\n      tag_162\n      jumpi\n      mload(0x40)\n      0x08c379a000000000000000000000000000000000000000000000000000000000\n      dup2\n      mstore\n      0x04\n      add\n      tag_163\n      swap1\n      tag_164\n      jump\t// in\n    tag_163:\n      mload(0x40)\n      dup1\n      swap2\n      sub\n      swap1\n      revert\n    tag_162:\n        /* \"Bid.sol\":3007:3011  _bid */\n      dup2\n        /* \"Bid.sol\":3007:3017  _bid.ended */\n      0x00\n      add\n      0x15\n      swap1\n      sload\n      swap1\n      0x0100\n      exp\n      swap1\n      div\n      0xff\n      and\n        /* \"Bid.sol\":2999:3042  require(_bid.ended, \"Wait for auction end\") */\n      tag_165\n      jumpi\n      mload(0x40)\n      0x08c379a000000000000000000000000000000000000000000000000000000000\n      dup2\n      mstore\n      0x04\n      add\n      tag_166\n      swap1\n      tag_164\n      jump\t// in\n    tag_166:\n      mload(0x40)\n      dup1\n      swap2\n      sub\n      swap1\n      revert\n    tag_165:\n        /* \"Bid.sol\":3079:3080  0 */\n      0x00\n        /* \"Bid.sol\":3055:3059  _bid */\n      dup3\n        /* \"Bid.sol\":3055:3064  _bid.bids */\n      0x07\n      add\n        /* \"Bid.sol\":3055:3076  _bid.bids[msg.sender] */\n      0x00\n        /* \"Bid.sol\":3065:3075  msg.sender */\n      caller\n        /* \"Bid.sol\":3055:3076  _bid.bids[msg.sender] */\n      0xffffffffffffffffffffffffffffffffffffffff\n      and\n      0xffffffffffffffffffffffffffffffffffffffff\n      and\n      dup2\n      mstore\n      0x20\n      add\n      swap1\n      dup2\n      mstore\n      0x20\n      add\n      0x00\n      keccak256\n        /* \"Bid.sol\":3055:3080  _bid.bids[msg.sender] = 0 */\n      dup2\n      swap1\n      sstore\n      pop\n        /* \"Bid.sol\":3101:3111  msg.sender */\n      caller\n        /* \"Bid.sol\":3093:3121  payable(msg.sender).transfer */\n      0xffffffffffffffffffffffffffffffffffffffff\n      and\n        /* \"Bid.sol\":3093:3126  payable(msg.sender).transfer(bal) */\n      0x08fc\n        /* \"Bid.sol\":3122:3125  bal */\n      dup3\n        /* \"Bid.sol\":3093:3126  payable(msg.sender).transfer(bal) */\n      swap1\n      dup2\n      iszero\n      mul\n      swap1\n      mload(0x40)\n      0x00\n      mload(0x40)\n      dup1\n      dup4\n      sub\n      dup2\n      dup6\n      dup9\n      dup9\n      call\n      swap4\n      pop\n      pop\n      pop\n      pop\n      iszero\n      dup1\n      iszero\n      tag_168\n      jumpi\n      returndatasize\n      0x00\n      dup1\n      returndatacopy\n      revert(0x00, returndatasize)\n    tag_168:\n      pop\n        /* \"Bid.sol\":3149:3152  bal */\n      dup1\n        /* \"Bid.sol\":3137:3145  balances */\n      0x01\n      0x00\n        /* \"Bid.sol\":3137:3152  balances -= bal */\n      dup3\n      dup3\n      sload\n      tag_169\n      swap2\n      swap1\n      tag_61\n      jump\t// in\n    tag_169:\n      swap3\n      pop\n      pop\n      dup2\n      swap1\n      sstore\n      pop\n        /* \"Bid.sol\":3179:3189  msg.sender */\n      caller\n        /* \"Bid.sol\":3170:3195  Withdraw(msg.sender, bal) */\n      0xffffffffffffffffffffffffffffffffffffffff\n      and\n      0x884edad9ce6fa2440d8a54cc123490eb96d2768479d49ff9c7366125a9424364\n        /* \"Bid.sol\":3191:3194  bal */\n      dup3\n        /* \"Bid.sol\":3170:3195  Withdraw(msg.sender, bal) */\n      mload(0x40)\n      tag_170\n      swap2\n      swap1\n      tag_27\n      jump\t// in\n    tag_170:\n      mload(0x40)\n      dup1\n      swap2\n      sub\n      swap1\n      log2\n        /* \"Bid.sol\":2753:3203  {\r... */\n      pop\n      pop\n        /* \"Bid.sol\":2683:3203  function withdraw(address _tokenAddr, uint _tokenId) external payable {\r... */\n      pop\n      pop\n      jump\t// out\n        /* \"Bid.sol\":735:794  mapping(address =>mapping(uint => Bidding)) public biddings */\n    tag_39:\n      mstore(0x20, 0x00)\n      dup2\n      0x00\n      mstore\n      mstore(0x20, keccak256(0x00, 0x40))\n      dup1\n      0x00\n      mstore\n      keccak256(0x00, 0x40)\n      0x00\n      swap2\n      pop\n      swap2\n      pop\n      pop\n      dup1\n      0x00\n      add\n      0x00\n      swap1\n      sload\n      swap1\n      0x0100\n      exp\n      swap1\n      div\n      0xffffffffffffffffffffffffffffffffffffffff\n      and\n      swap1\n      dup1\n      0x00\n      add\n      0x14\n      swap1\n      sload\n      swap1\n      0x0100\n      exp\n      swap1\n      div\n      0xff\n      and\n      swap1\n      dup1\n      0x00\n      add\n      0x15\n      swap1\n      sload\n      swap1\n      0x0100\n      exp\n      swap1\n      div\n      0xff\n      and\n      swap1\n      dup1\n      0x01\n      add\n      sload\n      swap1\n      dup1\n      0x02\n      add\n      0x00\n      swap1\n      sload\n      swap1\n      0x0100\n      exp\n      swap1\n      div\n      0xffffffffffffffffffffffffffffffffffffffff\n      and\n      swap1\n      dup1\n      0x03\n      add\n      sload\n      swap1\n      dup1\n      0x04\n      add\n      sload\n      swap1\n      pop\n      dup8\n      jump\t// out\n        /* \"#utility.yul\":7:146   */\n    tag_172:\n        /* \"#utility.yul\":53:58   */\n      0x00\n        /* \"#utility.yul\":91:97   */\n      dup2\n        /* \"#utility.yul\":78:98   */\n      calldataload\n        /* \"#utility.yul\":69:98   */\n      swap1\n      pop\n        /* \"#utility.yul\":107:140   */\n      tag_174\n        /* \"#utility.yul\":134:139   */\n      dup2\n        /* \"#utility.yul\":107:140   */\n      tag_175\n      jump\t// in\n    tag_174:\n        /* \"#utility.yul\":7:146   */\n      swap3\n      swap2\n      pop\n      pop\n      jump\t// out\n        /* \"#utility.yul\":152:295   */\n    tag_176:\n        /* \"#utility.yul\":209:214   */\n      0x00\n        /* \"#utility.yul\":240:246   */\n      dup2\n        /* \"#utility.yul\":234:247   */\n      mload\n        /* \"#utility.yul\":225:247   */\n      swap1\n      pop\n        /* \"#utility.yul\":256:289   */\n      tag_178\n        /* \"#utility.yul\":283:288   */\n      dup2\n        /* \"#utility.yul\":256:289   */\n      tag_175\n      jump\t// in\n    tag_178:\n        /* \"#utility.yul\":152:295   */\n      swap3\n      swap2\n      pop\n      pop\n      jump\t// out\n        /* \"#utility.yul\":301:440   */\n    tag_179:\n        /* \"#utility.yul\":347:352   */\n      0x00\n        /* \"#utility.yul\":385:391   */\n      dup2\n        /* \"#utility.yul\":372:392   */\n      calldataload\n        /* \"#utility.yul\":363:392   */\n      swap1\n      pop\n        /* \"#utility.yul\":401:434   */\n      tag_181\n        /* \"#utility.yul\":428:433   */\n      dup2\n        /* \"#utility.yul\":401:434   */\n      tag_182\n      jump\t// in\n    tag_181:\n        /* \"#utility.yul\":301:440   */\n      swap3\n      swap2\n      pop\n      pop\n      jump\t// out\n        /* \"#utility.yul\":446:589   */\n    tag_183:\n        /* \"#utility.yul\":503:508   */\n      0x00\n        /* \"#utility.yul\":534:540   */\n      dup2\n        /* \"#utility.yul\":528:541   */\n      mload\n        /* \"#utility.yul\":519:541   */\n      swap1\n      pop\n        /* \"#utility.yul\":550:583   */\n      tag_185\n        /* \"#utility.yul\":577:582   */\n      dup2\n        /* \"#utility.yul\":550:583   */\n      tag_182\n      jump\t// in\n    tag_185:\n        /* \"#utility.yul\":446:589   */\n      swap3\n      swap2\n      pop\n      pop\n      jump\t// out\n        /* \"#utility.yul\":595:946   */\n    tag_68:\n        /* \"#utility.yul\":665:671   */\n      0x00\n        /* \"#utility.yul\":714:716   */\n      0x20\n        /* \"#utility.yul\":702:711   */\n      dup3\n        /* \"#utility.yul\":693:700   */\n      dup5\n        /* \"#utility.yul\":689:712   */\n      sub\n        /* \"#utility.yul\":685:717   */\n      slt\n        /* \"#utility.yul\":682:801   */\n      iszero\n      tag_187\n      jumpi\n        /* \"#utility.yul\":720:799   */\n      tag_188\n      tag_189\n      jump\t// in\n    tag_188:\n        /* \"#utility.yul\":682:801   */\n    tag_187:\n        /* \"#utility.yul\":840:841   */\n      0x00\n        /* \"#utility.yul\":865:929   */\n      tag_190\n        /* \"#utility.yul\":921:928   */\n      dup5\n        /* \"#utility.yul\":912:918   */\n      dup3\n        /* \"#utility.yul\":901:910   */\n      dup6\n        /* \"#utility.yul\":897:919   */\n      add\n        /* \"#utility.yul\":865:929   */\n      tag_176\n      jump\t// in\n    tag_190:\n        /* \"#utility.yul\":855:929   */\n      swap2\n      pop\n        /* \"#utility.yul\":811:939   */\n      pop\n        /* \"#utility.yul\":595:946   */\n      swap3\n      swap2\n      pop\n      pop\n      jump\t// out\n        /* \"#utility.yul\":952:1571   */\n    tag_13:\n        /* \"#utility.yul\":1029:1035   */\n      0x00\n        /* \"#utility.yul\":1037:1043   */\n      dup1\n        /* \"#utility.yul\":1045:1051   */\n      0x00\n        /* \"#utility.yul\":1094:1096   */\n      0x60\n        /* \"#utility.yul\":1082:1091   */\n      dup5\n        /* \"#utility.yul\":1073:1080   */\n      dup7\n        /* \"#utility.yul\":1069:1092   */\n      sub\n        /* \"#utility.yul\":1065:1097   */\n      slt\n        /* \"#utility.yul\":1062:1181   */\n      iszero\n      tag_192\n      jumpi\n        /* \"#utility.yul\":1100:1179   */\n      tag_193\n      tag_189\n      jump\t// in\n    tag_193:\n        /* \"#utility.yul\":1062:1181   */\n    tag_192:\n        /* \"#utility.yul\":1220:1221   */\n      0x00\n        /* \"#utility.yul\":1245:1298   */\n      tag_194\n        /* \"#utility.yul\":1290:1297   */\n      dup7\n        /* \"#utility.yul\":1281:1287   */\n      dup3\n        /* \"#utility.yul\":1270:1279   */\n      dup8\n        /* \"#utility.yul\":1266:1288   */\n      add\n        /* \"#utility.yul\":1245:1298   */\n      tag_172\n      jump\t// in\n    tag_194:\n        /* \"#utility.yul\":1235:1298   */\n      swap4\n      pop\n        /* \"#utility.yul\":1191:1308   */\n      pop\n        /* \"#utility.yul\":1347:1349   */\n      0x20\n        /* \"#utility.yul\":1373:1426   */\n      tag_195\n        /* \"#utility.yul\":1418:1425   */\n      dup7\n        /* \"#utility.yul\":1409:1415   */\n      dup3\n        /* \"#utility.yul\":1398:1407   */\n      dup8\n        /* \"#utility.yul\":1394:1416   */\n      add\n        /* \"#utility.yul\":1373:1426   */\n      tag_172\n      jump\t// in\n    tag_195:\n        /* \"#utility.yul\":1363:1426   */\n      swap3\n      pop\n        /* \"#utility.yul\":1318:1436   */\n      pop\n        /* \"#utility.yul\":1475:1477   */\n      0x40\n        /* \"#utility.yul\":1501:1554   */\n      tag_196\n        /* \"#utility.yul\":1546:1553   */\n      dup7\n        /* \"#utility.yul\":1537:1543   */\n      dup3\n        /* \"#utility.yul\":1526:1535   */\n      dup8\n        /* \"#utility.yul\":1522:1544   */\n      add\n        /* \"#utility.yul\":1501:1554   */\n      tag_179\n      jump\t// in\n    tag_196:\n        /* \"#utility.yul\":1491:1554   */\n      swap2\n      pop\n        /* \"#utility.yul\":1446:1564   */\n      pop\n        /* \"#utility.yul\":952:1571   */\n      swap3\n      pop\n      swap3\n      pop\n      swap3\n      jump\t// out\n        /* \"#utility.yul\":1577:2051   */\n    tag_17:\n        /* \"#utility.yul\":1645:1651   */\n      0x00\n        /* \"#utility.yul\":1653:1659   */\n      dup1\n        /* \"#utility.yul\":1702:1704   */\n      0x40\n        /* \"#utility.yul\":1690:1699   */\n      dup4\n        /* \"#utility.yul\":1681:1688   */\n      dup6\n        /* \"#utility.yul\":1677:1700   */\n      sub\n        /* \"#utility.yul\":1673:1705   */\n      slt\n        /* \"#utility.yul\":1670:1789   */\n      iszero\n      tag_198\n      jumpi\n        /* \"#utility.yul\":1708:1787   */\n      tag_199\n      tag_189\n      jump\t// in\n    tag_199:\n        /* \"#utility.yul\":1670:1789   */\n    tag_198:\n        /* \"#utility.yul\":1828:1829   */\n      0x00\n        /* \"#utility.yul\":1853:1906   */\n      tag_200\n        /* \"#utility.yul\":1898:1905   */\n      dup6\n        /* \"#utility.yul\":1889:1895   */\n      dup3\n        /* \"#utility.yul\":1878:1887   */\n      dup7\n        /* \"#utility.yul\":1874:1896   */\n      add\n        /* \"#utility.yul\":1853:1906   */\n      tag_172\n      jump\t// in\n    tag_200:\n        /* \"#utility.yul\":1843:1906   */\n      swap3\n      pop\n        /* \"#utility.yul\":1799:1916   */\n      pop\n        /* \"#utility.yul\":1955:1957   */\n      0x20\n        /* \"#utility.yul\":1981:2034   */\n      tag_201\n        /* \"#utility.yul\":2026:2033   */\n      dup6\n        /* \"#utility.yul\":2017:2023   */\n      dup3\n        /* \"#utility.yul\":2006:2015   */\n      dup7\n        /* \"#utility.yul\":2002:2024   */\n      add\n        /* \"#utility.yul\":1981:2034   */\n      tag_179\n      jump\t// in\n    tag_201:\n        /* \"#utility.yul\":1971:2034   */\n      swap2\n      pop\n        /* \"#utility.yul\":1926:2044   */\n      pop\n        /* \"#utility.yul\":1577:2051   */\n      swap3\n      pop\n      swap3\n      swap1\n      pop\n      jump\t// out\n        /* \"#utility.yul\":2057:2676   */\n    tag_21:\n        /* \"#utility.yul\":2134:2140   */\n      0x00\n        /* \"#utility.yul\":2142:2148   */\n      dup1\n        /* \"#utility.yul\":2150:2156   */\n      0x00\n        /* \"#utility.yul\":2199:2201   */\n      0x60\n        /* \"#utility.yul\":2187:2196   */\n      dup5\n        /* \"#utility.yul\":2178:2185   */\n      dup7\n        /* \"#utility.yul\":2174:2197   */\n      sub\n        /* \"#utility.yul\":2170:2202   */\n      slt\n        /* \"#utility.yul\":2167:2286   */\n      iszero\n      tag_203\n      jumpi\n        /* \"#utility.yul\":2205:2284   */\n      tag_204\n      tag_189\n      jump\t// in\n    tag_204:\n        /* \"#utility.yul\":2167:2286   */\n    tag_203:\n        /* \"#utility.yul\":2325:2326   */\n      0x00\n        /* \"#utility.yul\":2350:2403   */\n      tag_205\n        /* \"#utility.yul\":2395:2402   */\n      dup7\n        /* \"#utility.yul\":2386:2392   */\n      dup3\n        /* \"#utility.yul\":2375:2384   */\n      dup8\n        /* \"#utility.yul\":2371:2393   */\n      add\n        /* \"#utility.yul\":2350:2403   */\n      tag_172\n      jump\t// in\n    tag_205:\n        /* \"#utility.yul\":2340:2403   */\n      swap4\n      pop\n        /* \"#utility.yul\":2296:2413   */\n      pop\n        /* \"#utility.yul\":2452:2454   */\n      0x20\n        /* \"#utility.yul\":2478:2531   */\n      tag_206\n        /* \"#utility.yul\":2523:2530   */\n      dup7\n        /* \"#utility.yul\":2514:2520   */\n      dup3\n        /* \"#utility.yul\":2503:2512   */\n      dup8\n        /* \"#utility.yul\":2499:2521   */\n      add\n        /* \"#utility.yul\":2478:2531   */\n      tag_179\n      jump\t// in\n    tag_206:\n        /* \"#utility.yul\":2468:2531   */\n      swap3\n      pop\n        /* \"#utility.yul\":2423:2541   */\n      pop\n        /* \"#utility.yul\":2580:2582   */\n      0x40\n        /* \"#utility.yul\":2606:2659   */\n      tag_207\n        /* \"#utility.yul\":2651:2658   */\n      dup7\n        /* \"#utility.yul\":2642:2648   */\n      dup3\n        /* \"#utility.yul\":2631:2640   */\n      dup8\n        /* \"#utility.yul\":2627:2649   */\n      add\n        /* \"#utility.yul\":2606:2659   */\n      tag_172\n      jump\t// in\n    tag_207:\n        /* \"#utility.yul\":2596:2659   */\n      swap2\n      pop\n        /* \"#utility.yul\":2551:2669   */\n      pop\n        /* \"#utility.yul\":2057:2676   */\n      swap3\n      pop\n      swap3\n      pop\n      swap3\n      jump\t// out\n        /* \"#utility.yul\":2682:3447   */\n    tag_31:\n        /* \"#utility.yul\":2768:2774   */\n      0x00\n        /* \"#utility.yul\":2776:2782   */\n      dup1\n        /* \"#utility.yul\":2784:2790   */\n      0x00\n        /* \"#utility.yul\":2792:2798   */\n      dup1\n        /* \"#utility.yul\":2841:2844   */\n      0x80\n        /* \"#utility.yul\":2829:2838   */\n      dup6\n        /* \"#utility.yul\":2820:2827   */\n      dup8\n        /* \"#utility.yul\":2816:2839   */\n      sub\n        /* \"#utility.yul\":2812:2845   */\n      slt\n        /* \"#utility.yul\":2809:2929   */\n      iszero\n      tag_209\n      jumpi\n        /* \"#utility.yul\":2848:2927   */\n      tag_210\n      tag_189\n      jump\t// in\n    tag_210:\n        /* \"#utility.yul\":2809:2929   */\n    tag_209:\n        /* \"#utility.yul\":2968:2969   */\n      0x00\n        /* \"#utility.yul\":2993:3046   */\n      tag_211\n        /* \"#utility.yul\":3038:3045   */\n      dup8\n        /* \"#utility.yul\":3029:3035   */\n      dup3\n        /* \"#utility.yul\":3018:3027   */\n      dup9\n        /* \"#utility.yul\":3014:3036   */\n      add\n        /* \"#utility.yul\":2993:3046   */\n      tag_172\n      jump\t// in\n    tag_211:\n        /* \"#utility.yul\":2983:3046   */\n      swap5\n      pop\n        /* \"#utility.yul\":2939:3056   */\n      pop\n        /* \"#utility.yul\":3095:3097   */\n      0x20\n        /* \"#utility.yul\":3121:3174   */\n      tag_212\n        /* \"#utility.yul\":3166:3173   */\n      dup8\n        /* \"#utility.yul\":3157:3163   */\n      dup3\n        /* \"#utility.yul\":3146:3155   */\n      dup9\n        /* \"#utility.yul\":3142:3164   */\n      add\n        /* \"#utility.yul\":3121:3174   */\n      tag_179\n      jump\t// in\n    tag_212:\n        /* \"#utility.yul\":3111:3174   */\n      swap4\n      pop\n        /* \"#utility.yul\":3066:3184   */\n      pop\n        /* \"#utility.yul\":3223:3225   */\n      0x40\n        /* \"#utility.yul\":3249:3302   */\n      tag_213\n        /* \"#utility.yul\":3294:3301   */\n      dup8\n        /* \"#utility.yul\":3285:3291   */\n      dup3\n        /* \"#utility.yul\":3274:3283   */\n      dup9\n        /* \"#utility.yul\":3270:3292   */\n      add\n        /* \"#utility.yul\":3249:3302   */\n      tag_179\n      jump\t// in\n    tag_213:\n        /* \"#utility.yul\":3239:3302   */\n      swap3\n      pop\n        /* \"#utility.yul\":3194:3312   */\n      pop\n        /* \"#utility.yul\":3351:3353   */\n      0x60\n        /* \"#utility.yul\":3377:3430   */\n      tag_214\n        /* \"#utility.yul\":3422:3429   */\n      dup8\n        /* \"#utility.yul\":3413:3419   */\n      dup3\n        /* \"#utility.yul\":3402:3411   */\n      dup9\n        /* \"#utility.yul\":3398:3420   */\n      add\n        /* \"#utility.yul\":3377:3430   */\n      tag_179\n      jump\t// in\n    tag_214:\n        /* \"#utility.yul\":3367:3430   */\n      swap2\n      pop\n        /* \"#utility.yul\":3322:3440   */\n      pop\n        /* \"#utility.yul\":2682:3447   */\n      swap3\n      swap6\n      swap2\n      swap5\n      pop\n      swap3\n      pop\n      jump\t// out\n        /* \"#utility.yul\":3453:3804   */\n    tag_93:\n        /* \"#utility.yul\":3523:3529   */\n      0x00\n        /* \"#utility.yul\":3572:3574   */\n      0x20\n        /* \"#utility.yul\":3560:3569   */\n      dup3\n        /* \"#utility.yul\":3551:3558   */\n      dup5\n        /* \"#utility.yul\":3547:3570   */\n      sub\n        /* \"#utility.yul\":3543:3575   */\n      slt\n        /* \"#utility.yul\":3540:3659   */\n      iszero\n      tag_216\n      jumpi\n        /* \"#utility.yul\":3578:3657   */\n      tag_217\n      tag_189\n      jump\t// in\n    tag_217:\n        /* \"#utility.yul\":3540:3659   */\n    tag_216:\n        /* \"#utility.yul\":3698:3699   */\n      0x00\n        /* \"#utility.yul\":3723:3787   */\n      tag_218\n        /* \"#utility.yul\":3779:3786   */\n      dup5\n        /* \"#utility.yul\":3770:3776   */\n      dup3\n        /* \"#utility.yul\":3759:3768   */\n      dup6\n        /* \"#utility.yul\":3755:3777   */\n      add\n        /* \"#utility.yul\":3723:3787   */\n      tag_183\n      jump\t// in\n    tag_218:\n        /* \"#utility.yul\":3713:3787   */\n      swap2\n      pop\n        /* \"#utility.yul\":3669:3797   */\n      pop\n        /* \"#utility.yul\":3453:3804   */\n      swap3\n      swap2\n      pop\n      pop\n      jump\t// out\n        /* \"#utility.yul\":3810:3928   */\n    tag_219:\n        /* \"#utility.yul\":3897:3921   */\n      tag_221\n        /* \"#utility.yul\":3915:3920   */\n      dup2\n        /* \"#utility.yul\":3897:3921   */\n      tag_222\n      jump\t// in\n    tag_221:\n        /* \"#utility.yul\":3892:3895   */\n      dup3\n        /* \"#utility.yul\":3885:3922   */\n      mstore\n        /* \"#utility.yul\":3810:3928   */\n      pop\n      pop\n      jump\t// out\n        /* \"#utility.yul\":3934:4043   */\n    tag_223:\n        /* \"#utility.yul\":4015:4036   */\n      tag_225\n        /* \"#utility.yul\":4030:4035   */\n      dup2\n        /* \"#utility.yul\":4015:4036   */\n      tag_226\n      jump\t// in\n    tag_225:\n        /* \"#utility.yul\":4010:4013   */\n      dup3\n        /* \"#utility.yul\":4003:4037   */\n      mstore\n        /* \"#utility.yul\":3934:4043   */\n      pop\n      pop\n      jump\t// out\n        /* \"#utility.yul\":4049:4206   */\n    tag_227:\n        /* \"#utility.yul\":4149:4199   */\n      tag_229\n        /* \"#utility.yul\":4193:4198   */\n      dup2\n        /* \"#utility.yul\":4149:4199   */\n      tag_230\n      jump\t// in\n    tag_229:\n        /* \"#utility.yul\":4144:4147   */\n      dup3\n        /* \"#utility.yul\":4137:4200   */\n      mstore\n        /* \"#utility.yul\":4049:4206   */\n      pop\n      pop\n      jump\t// out\n        /* \"#utility.yul\":4212:4578   */\n    tag_231:\n        /* \"#utility.yul\":4354:4357   */\n      0x00\n        /* \"#utility.yul\":4375:4442   */\n      tag_233\n        /* \"#utility.yul\":4439:4441   */\n      0x0a\n        /* \"#utility.yul\":4434:4437   */\n      dup4\n        /* \"#utility.yul\":4375:4442   */\n      tag_234\n      jump\t// in\n    tag_233:\n        /* \"#utility.yul\":4368:4442   */\n      swap2\n      pop\n        /* \"#utility.yul\":4451:4544   */\n      tag_235\n        /* \"#utility.yul\":4540:4543   */\n      dup3\n        /* \"#utility.yul\":4451:4544   */\n      tag_236\n      jump\t// in\n    tag_235:\n        /* \"#utility.yul\":4569:4571   */\n      0x20\n        /* \"#utility.yul\":4564:4567   */\n      dup3\n        /* \"#utility.yul\":4560:4572   */\n      add\n        /* \"#utility.yul\":4553:4572   */\n      swap1\n      pop\n        /* \"#utility.yul\":4212:4578   */\n      swap2\n      swap1\n      pop\n      jump\t// out\n        /* \"#utility.yul\":4584:4950   */\n    tag_237:\n        /* \"#utility.yul\":4726:4729   */\n      0x00\n        /* \"#utility.yul\":4747:4814   */\n      tag_239\n        /* \"#utility.yul\":4811:4813   */\n      0x19\n        /* \"#utility.yul\":4806:4809   */\n      dup4\n        /* \"#utility.yul\":4747:4814   */\n      tag_234\n      jump\t// in\n    tag_239:\n        /* \"#utility.yul\":4740:4814   */\n      swap2\n      pop\n        /* \"#utility.yul\":4823:4916   */\n      tag_240\n        /* \"#utility.yul\":4912:4915   */\n      dup3\n        /* \"#utility.yul\":4823:4916   */\n      tag_241\n      jump\t// in\n    tag_240:\n        /* \"#utility.yul\":4941:4943   */\n      0x20\n        /* \"#utility.yul\":4936:4939   */\n      dup3\n        /* \"#utility.yul\":4932:4944   */\n      add\n        /* \"#utility.yul\":4925:4944   */\n      swap1\n      pop\n        /* \"#utility.yul\":4584:4950   */\n      swap2\n      swap1\n      pop\n      jump\t// out\n        /* \"#utility.yul\":4956:5322   */\n    tag_242:\n        /* \"#utility.yul\":5098:5101   */\n      0x00\n        /* \"#utility.yul\":5119:5186   */\n      tag_244\n        /* \"#utility.yul\":5183:5185   */\n      0x10\n        /* \"#utility.yul\":5178:5181   */\n      dup4\n        /* \"#utility.yul\":5119:5186   */\n      tag_234\n      jump\t// in\n    tag_244:\n        /* \"#utility.yul\":5112:5186   */\n      swap2\n      pop\n        /* \"#utility.yul\":5195:5288   */\n      tag_245\n        /* \"#utility.yul\":5284:5287   */\n      dup3\n        /* \"#utility.yul\":5195:5288   */\n      tag_246\n      jump\t// in\n    tag_245:\n        /* \"#utility.yul\":5313:5315   */\n      0x20\n        /* \"#utility.yul\":5308:5311   */\n      dup3\n        /* \"#utility.yul\":5304:5316   */\n      add\n        /* \"#utility.yul\":5297:5316   */\n      swap1\n      pop\n        /* \"#utility.yul\":4956:5322   */\n      swap2\n      swap1\n      pop\n      jump\t// out\n        /* \"#utility.yul\":5328:5693   */\n    tag_247:\n        /* \"#utility.yul\":5470:5473   */\n      0x00\n        /* \"#utility.yul\":5491:5557   */\n      tag_249\n        /* \"#utility.yul\":5555:5556   */\n      0x06\n        /* \"#utility.yul\":5550:5553   */\n      dup4\n        /* \"#utility.yul\":5491:5557   */\n      tag_234\n      jump\t// in\n    tag_249:\n        /* \"#utility.yul\":5484:5557   */\n      swap2\n      pop\n        /* \"#utility.yul\":5566:5659   */\n      tag_250\n        /* \"#utility.yul\":5655:5658   */\n      dup3\n        /* \"#utility.yul\":5566:5659   */\n      tag_251\n      jump\t// in\n    tag_250:\n        /* \"#utility.yul\":5684:5686   */\n      0x20\n        /* \"#utility.yul\":5679:5682   */\n      dup3\n        /* \"#utility.yul\":5675:5687   */\n      add\n        /* \"#utility.yul\":5668:5687   */\n      swap1\n      pop\n        /* \"#utility.yul\":5328:5693   */\n      swap2\n      swap1\n      pop\n      jump\t// out\n        /* \"#utility.yul\":5699:6065   */\n    tag_252:\n        /* \"#utility.yul\":5841:5844   */\n      0x00\n        /* \"#utility.yul\":5862:5929   */\n      tag_254\n        /* \"#utility.yul\":5926:5928   */\n      0x14\n        /* \"#utility.yul\":5921:5924   */\n      dup4\n        /* \"#utility.yul\":5862:5929   */\n      tag_234\n      jump\t// in\n    tag_254:\n        /* \"#utility.yul\":5855:5929   */\n      swap2\n      pop\n        /* \"#utility.yul\":5938:6031   */\n      tag_255\n        /* \"#utility.yul\":6027:6030   */\n      dup3\n        /* \"#utility.yul\":5938:6031   */\n      tag_256\n      jump\t// in\n    tag_255:\n        /* \"#utility.yul\":6056:6058   */\n      0x20\n        /* \"#utility.yul\":6051:6054   */\n      dup3\n        /* \"#utility.yul\":6047:6059   */\n      add\n        /* \"#utility.yul\":6040:6059   */\n      swap1\n      pop\n        /* \"#utility.yul\":5699:6065   */\n      swap2\n      swap1\n      pop\n      jump\t// out\n        /* \"#utility.yul\":6071:6437   */\n    tag_257:\n        /* \"#utility.yul\":6213:6216   */\n      0x00\n        /* \"#utility.yul\":6234:6301   */\n      tag_259\n        /* \"#utility.yul\":6298:6300   */\n      0x18\n        /* \"#utility.yul\":6293:6296   */\n      dup4\n        /* \"#utility.yul\":6234:6301   */\n      tag_234\n      jump\t// in\n    tag_259:\n        /* \"#utility.yul\":6227:6301   */\n      swap2\n      pop\n        /* \"#utility.yul\":6310:6403   */\n      tag_260\n        /* \"#utility.yul\":6399:6402   */\n      dup3\n        /* \"#utility.yul\":6310:6403   */\n      tag_261\n      jump\t// in\n    tag_260:\n        /* \"#utility.yul\":6428:6430   */\n      0x20\n        /* \"#utility.yul\":6423:6426   */\n      dup3\n        /* \"#utility.yul\":6419:6431   */\n      add\n        /* \"#utility.yul\":6412:6431   */\n      swap1\n      pop\n        /* \"#utility.yul\":6071:6437   */\n      swap2\n      swap1\n      pop\n      jump\t// out\n        /* \"#utility.yul\":6443:6809   */\n    tag_262:\n        /* \"#utility.yul\":6585:6588   */\n      0x00\n        /* \"#utility.yul\":6606:6673   */\n      tag_264\n        /* \"#utility.yul\":6670:6672   */\n      0x1e\n        /* \"#utility.yul\":6665:6668   */\n      dup4\n        /* \"#utility.yul\":6606:6673   */\n      tag_234\n      jump\t// in\n    tag_264:\n        /* \"#utility.yul\":6599:6673   */\n      swap2\n      pop\n        /* \"#utility.yul\":6682:6775   */\n      tag_265\n        /* \"#utility.yul\":6771:6774   */\n      dup3\n        /* \"#utility.yul\":6682:6775   */\n      tag_266\n      jump\t// in\n    tag_265:\n        /* \"#utility.yul\":6800:6802   */\n      0x20\n        /* \"#utility.yul\":6795:6798   */\n      dup3\n        /* \"#utility.yul\":6791:6803   */\n      add\n        /* \"#utility.yul\":6784:6803   */\n      swap1\n      pop\n        /* \"#utility.yul\":6443:6809   */\n      swap2\n      swap1\n      pop\n      jump\t// out\n        /* \"#utility.yul\":6815:7181   */\n    tag_267:\n        /* \"#utility.yul\":6957:6960   */\n      0x00\n        /* \"#utility.yul\":6978:7045   */\n      tag_269\n        /* \"#utility.yul\":7042:7044   */\n      0x0c\n        /* \"#utility.yul\":7037:7040   */\n      dup4\n        /* \"#utility.yul\":6978:7045   */\n      tag_234\n      jump\t// in\n    tag_269:\n        /* \"#utility.yul\":6971:7045   */\n      swap2\n      pop\n        /* \"#utility.yul\":7054:7147   */\n      tag_270\n        /* \"#utility.yul\":7143:7146   */\n      dup3\n        /* \"#utility.yul\":7054:7147   */\n      tag_271\n      jump\t// in\n    tag_270:\n        /* \"#utility.yul\":7172:7174   */\n      0x20\n        /* \"#utility.yul\":7167:7170   */\n      dup3\n        /* \"#utility.yul\":7163:7175   */\n      add\n        /* \"#utility.yul\":7156:7175   */\n      swap1\n      pop\n        /* \"#utility.yul\":6815:7181   */\n      swap2\n      swap1\n      pop\n      jump\t// out\n        /* \"#utility.yul\":7187:7553   */\n    tag_272:\n        /* \"#utility.yul\":7329:7332   */\n      0x00\n        /* \"#utility.yul\":7350:7417   */\n      tag_274\n        /* \"#utility.yul\":7414:7416   */\n      0x16\n        /* \"#utility.yul\":7409:7412   */\n      dup4\n        /* \"#utility.yul\":7350:7417   */\n      tag_234\n      jump\t// in\n    tag_274:\n        /* \"#utility.yul\":7343:7417   */\n      swap2\n      pop\n        /* \"#utility.yul\":7426:7519   */\n      tag_275\n        /* \"#utility.yul\":7515:7518   */\n      dup3\n        /* \"#utility.yul\":7426:7519   */\n      tag_276\n      jump\t// in\n    tag_275:\n        /* \"#utility.yul\":7544:7546   */\n      0x20\n        /* \"#utility.yul\":7539:7542   */\n      dup3\n        /* \"#utility.yul\":7535:7547   */\n      add\n        /* \"#utility.yul\":7528:7547   */\n      swap1\n      pop\n        /* \"#utility.yul\":7187:7553   */\n      swap2\n      swap1\n      pop\n      jump\t// out\n        /* \"#utility.yul\":7559:7925   */\n    tag_277:\n        /* \"#utility.yul\":7701:7704   */\n      0x00\n        /* \"#utility.yul\":7722:7789   */\n      tag_279\n        /* \"#utility.yul\":7786:7788   */\n      0x12\n        /* \"#utility.yul\":7781:7784   */\n      dup4\n        /* \"#utility.yul\":7722:7789   */\n      tag_234\n      jump\t// in\n    tag_279:\n        /* \"#utility.yul\":7715:7789   */\n      swap2\n      pop\n        /* \"#utility.yul\":7798:7891   */\n      tag_280\n        /* \"#utility.yul\":7887:7890   */\n      dup3\n        /* \"#utility.yul\":7798:7891   */\n      tag_281\n      jump\t// in\n    tag_280:\n        /* \"#utility.yul\":7916:7918   */\n      0x20\n        /* \"#utility.yul\":7911:7914   */\n      dup3\n        /* \"#utility.yul\":7907:7919   */\n      add\n        /* \"#utility.yul\":7900:7919   */\n      swap1\n      pop\n        /* \"#utility.yul\":7559:7925   */\n      swap2\n      swap1\n      pop\n      jump\t// out\n        /* \"#utility.yul\":7931:8049   */\n    tag_282:\n        /* \"#utility.yul\":8018:8042   */\n      tag_284\n        /* \"#utility.yul\":8036:8041   */\n      dup2\n        /* \"#utility.yul\":8018:8042   */\n      tag_285\n      jump\t// in\n    tag_284:\n        /* \"#utility.yul\":8013:8016   */\n      dup3\n        /* \"#utility.yul\":8006:8043   */\n      mstore\n        /* \"#utility.yul\":7931:8049   */\n      pop\n      pop\n      jump\t// out\n        /* \"#utility.yul\":8055:8497   */\n    tag_54:\n        /* \"#utility.yul\":8204:8208   */\n      0x00\n        /* \"#utility.yul\":8242:8244   */\n      0x60\n        /* \"#utility.yul\":8231:8240   */\n      dup3\n        /* \"#utility.yul\":8227:8245   */\n      add\n        /* \"#utility.yul\":8219:8245   */\n      swap1\n      pop\n        /* \"#utility.yul\":8255:8326   */\n      tag_287\n        /* \"#utility.yul\":8323:8324   */\n      0x00\n        /* \"#utility.yul\":8312:8321   */\n      dup4\n        /* \"#utility.yul\":8308:8325   */\n      add\n        /* \"#utility.yul\":8299:8305   */\n      dup7\n        /* \"#utility.yul\":8255:8326   */\n      tag_219\n      jump\t// in\n    tag_287:\n        /* \"#utility.yul\":8336:8408   */\n      tag_288\n        /* \"#utility.yul\":8404:8406   */\n      0x20\n        /* \"#utility.yul\":8393:8402   */\n      dup4\n        /* \"#utility.yul\":8389:8407   */\n      add\n        /* \"#utility.yul\":8380:8386   */\n      dup6\n        /* \"#utility.yul\":8336:8408   */\n      tag_219\n      jump\t// in\n    tag_288:\n        /* \"#utility.yul\":8418:8490   */\n      tag_289\n        /* \"#utility.yul\":8486:8488   */\n      0x40\n        /* \"#utility.yul\":8475:8484   */\n      dup4\n        /* \"#utility.yul\":8471:8489   */\n      add\n        /* \"#utility.yul\":8462:8468   */\n      dup5\n        /* \"#utility.yul\":8418:8490   */\n      tag_282\n      jump\t// in\n    tag_289:\n        /* \"#utility.yul\":8055:8497   */\n      swap5\n      swap4\n      pop\n      pop\n      pop\n      pop\n      jump\t// out\n        /* \"#utility.yul\":8503:9391   */\n    tag_41:\n        /* \"#utility.yul\":8765:8769   */\n      0x00\n        /* \"#utility.yul\":8803:8806   */\n      0xe0\n        /* \"#utility.yul\":8792:8801   */\n      dup3\n        /* \"#utility.yul\":8788:8807   */\n      add\n        /* \"#utility.yul\":8780:8807   */\n      swap1\n      pop\n        /* \"#utility.yul\":8817:8888   */\n      tag_291\n        /* \"#utility.yul\":8885:8886   */\n      0x00\n        /* \"#utility.yul\":8874:8883   */\n      dup4\n        /* \"#utility.yul\":8870:8887   */\n      add\n        /* \"#utility.yul\":8861:8867   */\n      dup11\n        /* \"#utility.yul\":8817:8888   */\n      tag_219\n      jump\t// in\n    tag_291:\n        /* \"#utility.yul\":8898:8964   */\n      tag_292\n        /* \"#utility.yul\":8960:8962   */\n      0x20\n        /* \"#utility.yul\":8949:8958   */\n      dup4\n        /* \"#utility.yul\":8945:8963   */\n      add\n        /* \"#utility.yul\":8936:8942   */\n      dup10\n        /* \"#utility.yul\":8898:8964   */\n      tag_223\n      jump\t// in\n    tag_292:\n        /* \"#utility.yul\":8974:9040   */\n      tag_293\n        /* \"#utility.yul\":9036:9038   */\n      0x40\n        /* \"#utility.yul\":9025:9034   */\n      dup4\n        /* \"#utility.yul\":9021:9039   */\n      add\n        /* \"#utility.yul\":9012:9018   */\n      dup9\n        /* \"#utility.yul\":8974:9040   */\n      tag_223\n      jump\t// in\n    tag_293:\n        /* \"#utility.yul\":9050:9122   */\n      tag_294\n        /* \"#utility.yul\":9118:9120   */\n      0x60\n        /* \"#utility.yul\":9107:9116   */\n      dup4\n        /* \"#utility.yul\":9103:9121   */\n      add\n        /* \"#utility.yul\":9094:9100   */\n      dup8\n        /* \"#utility.yul\":9050:9122   */\n      tag_282\n      jump\t// in\n    tag_294:\n        /* \"#utility.yul\":9132:9218   */\n      tag_295\n        /* \"#utility.yul\":9213:9216   */\n      0x80\n        /* \"#utility.yul\":9202:9211   */\n      dup4\n        /* \"#utility.yul\":9198:9217   */\n      add\n        /* \"#utility.yul\":9189:9195   */\n      dup7\n        /* \"#utility.yul\":9132:9218   */\n      tag_227\n      jump\t// in\n    tag_295:\n        /* \"#utility.yul\":9228:9301   */\n      tag_296\n        /* \"#utility.yul\":9296:9299   */\n      0xa0\n        /* \"#utility.yul\":9285:9294   */\n      dup4\n        /* \"#utility.yul\":9281:9300   */\n      add\n        /* \"#utility.yul\":9272:9278   */\n      dup6\n        /* \"#utility.yul\":9228:9301   */\n      tag_282\n      jump\t// in\n    tag_296:\n        /* \"#utility.yul\":9311:9384   */\n      tag_297\n        /* \"#utility.yul\":9379:9382   */\n      0xc0\n        /* \"#utility.yul\":9368:9377   */\n      dup4\n        /* \"#utility.yul\":9364:9383   */\n      add\n        /* \"#utility.yul\":9355:9361   */\n      dup5\n        /* \"#utility.yul\":9311:9384   */\n      tag_282\n      jump\t// in\n    tag_297:\n        /* \"#utility.yul\":8503:9391   */\n      swap9\n      swap8\n      pop\n      pop\n      pop\n      pop\n      pop\n      pop\n      pop\n      pop\n      jump\t// out\n        /* \"#utility.yul\":9397:9729   */\n    tag_88:\n        /* \"#utility.yul\":9518:9522   */\n      0x00\n        /* \"#utility.yul\":9556:9558   */\n      0x40\n        /* \"#utility.yul\":9545:9554   */\n      dup3\n        /* \"#utility.yul\":9541:9559   */\n      add\n        /* \"#utility.yul\":9533:9559   */\n      swap1\n      pop\n        /* \"#utility.yul\":9569:9640   */\n      tag_299\n        /* \"#utility.yul\":9637:9638   */\n      0x00\n        /* \"#utility.yul\":9626:9635   */\n      dup4\n        /* \"#utility.yul\":9622:9639   */\n      add\n        /* \"#utility.yul\":9613:9619   */\n      dup6\n        /* \"#utility.yul\":9569:9640   */\n      tag_219\n      jump\t// in\n    tag_299:\n        /* \"#utility.yul\":9650:9722   */\n      tag_300\n        /* \"#utility.yul\":9718:9720   */\n      0x20\n        /* \"#utility.yul\":9707:9716   */\n      dup4\n        /* \"#utility.yul\":9703:9721   */\n      add\n        /* \"#utility.yul\":9694:9700   */\n      dup5\n        /* \"#utility.yul\":9650:9722   */\n      tag_282\n      jump\t// in\n    tag_300:\n        /* \"#utility.yul\":9397:9729   */\n      swap4\n      swap3\n      pop\n      pop\n      pop\n      jump\t// out\n        /* \"#utility.yul\":9735:10177   */\n    tag_76:\n        /* \"#utility.yul\":9884:9888   */\n      0x00\n        /* \"#utility.yul\":9922:9924   */\n      0x60\n        /* \"#utility.yul\":9911:9920   */\n      dup3\n        /* \"#utility.yul\":9907:9925   */\n      add\n        /* \"#utility.yul\":9899:9925   */\n      swap1\n      pop\n        /* \"#utility.yul\":9935:10006   */\n      tag_302\n        /* \"#utility.yul\":10003:10004   */\n      0x00\n        /* \"#utility.yul\":9992:10001   */\n      dup4\n        /* \"#utility.yul\":9988:10005   */\n      add\n        /* \"#utility.yul\":9979:9985   */\n      dup7\n        /* \"#utility.yul\":9935:10006   */\n      tag_219\n      jump\t// in\n    tag_302:\n        /* \"#utility.yul\":10016:10088   */\n      tag_303\n        /* \"#utility.yul\":10084:10086   */\n      0x20\n        /* \"#utility.yul\":10073:10082   */\n      dup4\n        /* \"#utility.yul\":10069:10087   */\n      add\n        /* \"#utility.yul\":10060:10066   */\n      dup6\n        /* \"#utility.yul\":10016:10088   */\n      tag_282\n      jump\t// in\n    tag_303:\n        /* \"#utility.yul\":10098:10170   */\n      tag_304\n        /* \"#utility.yul\":10166:10168   */\n      0x40\n        /* \"#utility.yul\":10155:10164   */\n      dup4\n        /* \"#utility.yul\":10151:10169   */\n      add\n        /* \"#utility.yul\":10142:10148   */\n      dup5\n        /* \"#utility.yul\":10098:10170   */\n      tag_282\n      jump\t// in\n    tag_304:\n        /* \"#utility.yul\":9735:10177   */\n      swap5\n      swap4\n      pop\n      pop\n      pop\n      pop\n      jump\t// out\n        /* \"#utility.yul\":10183:10602   */\n    tag_122:\n        /* \"#utility.yul\":10349:10353   */\n      0x00\n        /* \"#utility.yul\":10387:10389   */\n      0x20\n        /* \"#utility.yul\":10376:10385   */\n      dup3\n        /* \"#utility.yul\":10372:10390   */\n      add\n        /* \"#utility.yul\":10364:10390   */\n      swap1\n      pop\n        /* \"#utility.yul\":10436:10445   */\n      dup2\n        /* \"#utility.yul\":10430:10434   */\n      dup2\n        /* \"#utility.yul\":10426:10446   */\n      sub\n        /* \"#utility.yul\":10422:10423   */\n      0x00\n        /* \"#utility.yul\":10411:10420   */\n      dup4\n        /* \"#utility.yul\":10407:10424   */\n      add\n        /* \"#utility.yul\":10400:10447   */\n      mstore\n        /* \"#utility.yul\":10464:10595   */\n      tag_306\n        /* \"#utility.yul\":10590:10594   */\n      dup2\n        /* \"#utility.yul\":10464:10595   */\n      tag_231\n      jump\t// in\n    tag_306:\n        /* \"#utility.yul\":10456:10595   */\n      swap1\n      pop\n        /* \"#utility.yul\":10183:10602   */\n      swap2\n      swap1\n      pop\n      jump\t// out\n        /* \"#utility.yul\":10608:11027   */\n    tag_48:\n        /* \"#utility.yul\":10774:10778   */\n      0x00\n        /* \"#utility.yul\":10812:10814   */\n      0x20\n        /* \"#utility.yul\":10801:10810   */\n      dup3\n        /* \"#utility.yul\":10797:10815   */\n      add\n        /* \"#utility.yul\":10789:10815   */\n      swap1\n      pop\n        /* \"#utility.yul\":10861:10870   */\n      dup2\n        /* \"#utility.yul\":10855:10859   */\n      dup2\n        /* \"#utility.yul\":10851:10871   */\n      sub\n        /* \"#utility.yul\":10847:10848   */\n      0x00\n        /* \"#utility.yul\":10836:10845   */\n      dup4\n        /* \"#utility.yul\":10832:10849   */\n      add\n        /* \"#utility.yul\":10825:10872   */\n      mstore\n        /* \"#utility.yul\":10889:11020   */\n      tag_308\n        /* \"#utility.yul\":11015:11019   */\n      dup2\n        /* \"#utility.yul\":10889:11020   */\n      tag_237\n      jump\t// in\n    tag_308:\n        /* \"#utility.yul\":10881:11020   */\n      swap1\n      pop\n        /* \"#utility.yul\":10608:11027   */\n      swap2\n      swap1\n      pop\n      jump\t// out\n        /* \"#utility.yul\":11033:11452   */\n    tag_144:\n        /* \"#utility.yul\":11199:11203   */\n      0x00\n        /* \"#utility.yul\":11237:11239   */\n      0x20\n        /* \"#utility.yul\":11226:11235   */\n      dup3\n        /* \"#utility.yul\":11222:11240   */\n      add\n        /* \"#utility.yul\":11214:11240   */\n      swap1\n      pop\n        /* \"#utility.yul\":11286:11295   */\n      dup2\n        /* \"#utility.yul\":11280:11284   */\n      dup2\n        /* \"#utility.yul\":11276:11296   */\n      sub\n        /* \"#utility.yul\":11272:11273   */\n      0x00\n        /* \"#utility.yul\":11261:11270   */\n      dup4\n        /* \"#utility.yul\":11257:11274   */\n      add\n        /* \"#utility.yul\":11250:11297   */\n      mstore\n        /* \"#utility.yul\":11314:11445   */\n      tag_310\n        /* \"#utility.yul\":11440:11444   */\n      dup2\n        /* \"#utility.yul\":11314:11445   */\n      tag_242\n      jump\t// in\n    tag_310:\n        /* \"#utility.yul\":11306:11445   */\n      swap1\n      pop\n        /* \"#utility.yul\":11033:11452   */\n      swap2\n      swap1\n      pop\n      jump\t// out\n        /* \"#utility.yul\":11458:11877   */\n    tag_119:\n        /* \"#utility.yul\":11624:11628   */\n      0x00\n        /* \"#utility.yul\":11662:11664   */\n      0x20\n        /* \"#utility.yul\":11651:11660   */\n      dup3\n        /* \"#utility.yul\":11647:11665   */\n      add\n        /* \"#utility.yul\":11639:11665   */\n      swap1\n      pop\n        /* \"#utility.yul\":11711:11720   */\n      dup2\n        /* \"#utility.yul\":11705:11709   */\n      dup2\n        /* \"#utility.yul\":11701:11721   */\n      sub\n        /* \"#utility.yul\":11697:11698   */\n      0x00\n        /* \"#utility.yul\":11686:11695   */\n      dup4\n        /* \"#utility.yul\":11682:11699   */\n      add\n        /* \"#utility.yul\":11675:11722   */\n      mstore\n        /* \"#utility.yul\":11739:11870   */\n      tag_312\n        /* \"#utility.yul\":11865:11869   */\n      dup2\n        /* \"#utility.yul\":11739:11870   */\n      tag_247\n      jump\t// in\n    tag_312:\n        /* \"#utility.yul\":11731:11870   */\n      swap1\n      pop\n        /* \"#utility.yul\":11458:11877   */\n      swap2\n      swap1\n      pop\n      jump\t// out\n        /* \"#utility.yul\":11883:12302   */\n    tag_164:\n        /* \"#utility.yul\":12049:12053   */\n      0x00\n        /* \"#utility.yul\":12087:12089   */\n      0x20\n        /* \"#utility.yul\":12076:12085   */\n      dup3\n        /* \"#utility.yul\":12072:12090   */\n      add\n        /* \"#utility.yul\":12064:12090   */\n      swap1\n      pop\n        /* \"#utility.yul\":12136:12145   */\n      dup2\n        /* \"#utility.yul\":12130:12134   */\n      dup2\n        /* \"#utility.yul\":12126:12146   */\n      sub\n        /* \"#utility.yul\":12122:12123   */\n      0x00\n        /* \"#utility.yul\":12111:12120   */\n      dup4\n        /* \"#utility.yul\":12107:12124   */\n      add\n        /* \"#utility.yul\":12100:12147   */\n      mstore\n        /* \"#utility.yul\":12164:12295   */\n      tag_314\n        /* \"#utility.yul\":12290:12294   */\n      dup2\n        /* \"#utility.yul\":12164:12295   */\n      tag_252\n      jump\t// in\n    tag_314:\n        /* \"#utility.yul\":12156:12295   */\n      swap1\n      pop\n        /* \"#utility.yul\":11883:12302   */\n      swap2\n      swap1\n      pop\n      jump\t// out\n        /* \"#utility.yul\":12308:12727   */\n    tag_45:\n        /* \"#utility.yul\":12474:12478   */\n      0x00\n        /* \"#utility.yul\":12512:12514   */\n      0x20\n        /* \"#utility.yul\":12501:12510   */\n      dup3\n        /* \"#utility.yul\":12497:12515   */\n      add\n        /* \"#utility.yul\":12489:12515   */\n      swap1\n      pop\n        /* \"#utility.yul\":12561:12570   */\n      dup2\n        /* \"#utility.yul\":12555:12559   */\n      dup2\n        /* \"#utility.yul\":12551:12571   */\n      sub\n        /* \"#utility.yul\":12547:12548   */\n      0x00\n        /* \"#utility.yul\":12536:12545   */\n      dup4\n        /* \"#utility.yul\":12532:12549   */\n      add\n        /* \"#utility.yul\":12525:12572   */\n      mstore\n        /* \"#utility.yul\":12589:12720   */\n      tag_316\n        /* \"#utility.yul\":12715:12719   */\n      dup2\n        /* \"#utility.yul\":12589:12720   */\n      tag_257\n      jump\t// in\n    tag_316:\n        /* \"#utility.yul\":12581:12720   */\n      swap1\n      pop\n        /* \"#utility.yul\":12308:12727   */\n      swap2\n      swap1\n      pop\n      jump\t// out\n        /* \"#utility.yul\":12733:13152   */\n    tag_147:\n        /* \"#utility.yul\":12899:12903   */\n      0x00\n        /* \"#utility.yul\":12937:12939   */\n      0x20\n        /* \"#utility.yul\":12926:12935   */\n      dup3\n        /* \"#utility.yul\":12922:12940   */\n      add\n        /* \"#utility.yul\":12914:12940   */\n      swap1\n      pop\n        /* \"#utility.yul\":12986:12995   */\n      dup2\n        /* \"#utility.yul\":12980:12984   */\n      dup2\n        /* \"#utility.yul\":12976:12996   */\n      sub\n        /* \"#utility.yul\":12972:12973   */\n      0x00\n        /* \"#utility.yul\":12961:12970   */\n      dup4\n        /* \"#utility.yul\":12957:12974   */\n      add\n        /* \"#utility.yul\":12950:12997   */\n      mstore\n        /* \"#utility.yul\":13014:13145   */\n      tag_318\n        /* \"#utility.yul\":13140:13144   */\n      dup2\n        /* \"#utility.yul\":13014:13145   */\n      tag_262\n      jump\t// in\n    tag_318:\n        /* \"#utility.yul\":13006:13145   */\n      swap1\n      pop\n        /* \"#utility.yul\":12733:13152   */\n      swap2\n      swap1\n      pop\n      jump\t// out\n        /* \"#utility.yul\":13158:13577   */\n    tag_116:\n        /* \"#utility.yul\":13324:13328   */\n      0x00\n        /* \"#utility.yul\":13362:13364   */\n      0x20\n        /* \"#utility.yul\":13351:13360   */\n      dup3\n        /* \"#utility.yul\":13347:13365   */\n      add\n        /* \"#utility.yul\":13339:13365   */\n      swap1\n      pop\n        /* \"#utility.yul\":13411:13420   */\n      dup2\n        /* \"#utility.yul\":13405:13409   */\n      dup2\n        /* \"#utility.yul\":13401:13421   */\n      sub\n        /* \"#utility.yul\":13397:13398   */\n      0x00\n        /* \"#utility.yul\":13386:13395   */\n      dup4\n        /* \"#utility.yul\":13382:13399   */\n      add\n        /* \"#utility.yul\":13375:13422   */\n      mstore\n        /* \"#utility.yul\":13439:13570   */\n      tag_320\n        /* \"#utility.yul\":13565:13569   */\n      dup2\n        /* \"#utility.yul\":13439:13570   */\n      tag_267\n      jump\t// in\n    tag_320:\n        /* \"#utility.yul\":13431:13570   */\n      swap1\n      pop\n        /* \"#utility.yul\":13158:13577   */\n      swap2\n      swap1\n      pop\n      jump\t// out\n        /* \"#utility.yul\":13583:14002   */\n    tag_51:\n        /* \"#utility.yul\":13749:13753   */\n      0x00\n        /* \"#utility.yul\":13787:13789   */\n      0x20\n        /* \"#utility.yul\":13776:13785   */\n      dup3\n        /* \"#utility.yul\":13772:13790   */\n      add\n        /* \"#utility.yul\":13764:13790   */\n      swap1\n      pop\n        /* \"#utility.yul\":13836:13845   */\n      dup2\n        /* \"#utility.yul\":13830:13834   */\n      dup2\n        /* \"#utility.yul\":13826:13846   */\n      sub\n        /* \"#utility.yul\":13822:13823   */\n      0x00\n        /* \"#utility.yul\":13811:13820   */\n      dup4\n        /* \"#utility.yul\":13807:13824   */\n      add\n        /* \"#utility.yul\":13800:13847   */\n      mstore\n        /* \"#utility.yul\":13864:13995   */\n      tag_322\n        /* \"#utility.yul\":13990:13994   */\n      dup2\n        /* \"#utility.yul\":13864:13995   */\n      tag_272\n      jump\t// in\n    tag_322:\n        /* \"#utility.yul\":13856:13995   */\n      swap1\n      pop\n        /* \"#utility.yul\":13583:14002   */\n      swap2\n      swap1\n      pop\n      jump\t// out\n        /* \"#utility.yul\":14008:14427   */\n    tag_131:\n        /* \"#utility.yul\":14174:14178   */\n      0x00\n        /* \"#utility.yul\":14212:14214   */\n      0x20\n        /* \"#utility.yul\":14201:14210   */\n      dup3\n        /* \"#utility.yul\":14197:14215   */\n      add\n        /* \"#utility.yul\":14189:14215   */\n      swap1\n      pop\n        /* \"#utility.yul\":14261:14270   */\n      dup2\n        /* \"#utility.yul\":14255:14259   */\n      dup2\n        /* \"#utility.yul\":14251:14271   */\n      sub\n        /* \"#utility.yul\":14247:14248   */\n      0x00\n        /* \"#utility.yul\":14236:14245   */\n      dup4\n        /* \"#utility.yul\":14232:14249   */\n      add\n        /* \"#utility.yul\":14225:14272   */\n      mstore\n        /* \"#utility.yul\":14289:14420   */\n      tag_324\n        /* \"#utility.yul\":14415:14419   */\n      dup2\n        /* \"#utility.yul\":14289:14420   */\n      tag_277\n      jump\t// in\n    tag_324:\n        /* \"#utility.yul\":14281:14420   */\n      swap1\n      pop\n        /* \"#utility.yul\":14008:14427   */\n      swap2\n      swap1\n      pop\n      jump\t// out\n        /* \"#utility.yul\":14433:14655   */\n    tag_27:\n        /* \"#utility.yul\":14526:14530   */\n      0x00\n        /* \"#utility.yul\":14564:14566   */\n      0x20\n        /* \"#utility.yul\":14553:14562   */\n      dup3\n        /* \"#utility.yul\":14549:14567   */\n      add\n        /* \"#utility.yul\":14541:14567   */\n      swap1\n      pop\n        /* \"#utility.yul\":14577:14648   */\n      tag_326\n        /* \"#utility.yul\":14645:14646   */\n      0x00\n        /* \"#utility.yul\":14634:14643   */\n      dup4\n        /* \"#utility.yul\":14630:14647   */\n      add\n        /* \"#utility.yul\":14621:14627   */\n      dup5\n        /* \"#utility.yul\":14577:14648   */\n      tag_282\n      jump\t// in\n    tag_326:\n        /* \"#utility.yul\":14433:14655   */\n      swap3\n      swap2\n      pop\n      pop\n      jump\t// out\n        /* \"#utility.yul\":14661:14993   */\n    tag_157:\n        /* \"#utility.yul\":14782:14786   */\n      0x00\n        /* \"#utility.yul\":14820:14822   */\n      0x40\n        /* \"#utility.yul\":14809:14818   */\n      dup3\n        /* \"#utility.yul\":14805:14823   */\n      add\n        /* \"#utility.yul\":14797:14823   */\n      swap1\n      pop\n        /* \"#utility.yul\":14833:14904   */\n      tag_328\n        /* \"#utility.yul\":14901:14902   */\n      0x00\n        /* \"#utility.yul\":14890:14899   */\n      dup4\n        /* \"#utility.yul\":14886:14903   */\n      add\n        /* \"#utility.yul\":14877:14883   */\n      dup6\n        /* \"#utility.yul\":14833:14904   */\n      tag_282\n      jump\t// in\n    tag_328:\n        /* \"#utility.yul\":14914:14986   */\n      tag_329\n        /* \"#utility.yul\":14982:14984   */\n      0x20\n        /* \"#utility.yul\":14971:14980   */\n      dup4\n        /* \"#utility.yul\":14967:14985   */\n      add\n        /* \"#utility.yul\":14958:14964   */\n      dup5\n        /* \"#utility.yul\":14914:14986   */\n      tag_282\n      jump\t// in\n    tag_329:\n        /* \"#utility.yul\":14661:14993   */\n      swap4\n      swap3\n      pop\n      pop\n      pop\n      jump\t// out\n        /* \"#utility.yul\":15080:15249   */\n    tag_234:\n        /* \"#utility.yul\":15164:15175   */\n      0x00\n        /* \"#utility.yul\":15198:15204   */\n      dup3\n        /* \"#utility.yul\":15193:15196   */\n      dup3\n        /* \"#utility.yul\":15186:15205   */\n      mstore\n        /* \"#utility.yul\":15238:15242   */\n      0x20\n        /* \"#utility.yul\":15233:15236   */\n      dup3\n        /* \"#utility.yul\":15229:15243   */\n      add\n        /* \"#utility.yul\":15214:15243   */\n      swap1\n      pop\n        /* \"#utility.yul\":15080:15249   */\n      swap3\n      swap2\n      pop\n      pop\n      jump\t// out\n        /* \"#utility.yul\":15255:15560   */\n    tag_125:\n        /* \"#utility.yul\":15295:15298   */\n      0x00\n        /* \"#utility.yul\":15314:15334   */\n      tag_334\n        /* \"#utility.yul\":15332:15333   */\n      dup3\n        /* \"#utility.yul\":15314:15334   */\n      tag_285\n      jump\t// in\n    tag_334:\n        /* \"#utility.yul\":15309:15334   */\n      swap2\n      pop\n        /* \"#utility.yul\":15348:15368   */\n      tag_335\n        /* \"#utility.yul\":15366:15367   */\n      dup4\n        /* \"#utility.yul\":15348:15368   */\n      tag_285\n      jump\t// in\n    tag_335:\n        /* \"#utility.yul\":15343:15368   */\n      swap3\n      pop\n        /* \"#utility.yul\":15502:15503   */\n      dup3\n        /* \"#utility.yul\":15434:15500   */\n      0xffffffffffffffffffffffffffffffffffffffffffffffffffffffffffffffff\n        /* \"#utility.yul\":15430:15504   */\n      sub\n        /* \"#utility.yul\":15427:15428   */\n      dup3\n        /* \"#utility.yul\":15424:15505   */\n      gt\n        /* \"#utility.yul\":15421:15528   */\n      iszero\n      tag_336\n      jumpi\n        /* \"#utility.yul\":15508:15526   */\n      tag_337\n      tag_338\n      jump\t// in\n    tag_337:\n        /* \"#utility.yul\":15421:15528   */\n    tag_336:\n        /* \"#utility.yul\":15552:15553   */\n      dup3\n        /* \"#utility.yul\":15549:15550   */\n      dup3\n        /* \"#utility.yul\":15545:15554   */\n      add\n        /* \"#utility.yul\":15538:15554   */\n      swap1\n      pop\n        /* \"#utility.yul\":15255:15560   */\n      swap3\n      swap2\n      pop\n      pop\n      jump\t// out\n        /* \"#utility.yul\":15566:15751   */\n    tag_59:\n        /* \"#utility.yul\":15606:15607   */\n      0x00\n        /* \"#utility.yul\":15623:15643   */\n      tag_340\n        /* \"#utility.yul\":15641:15642   */\n      dup3\n        /* \"#utility.yul\":15623:15643   */\n      tag_285\n      jump\t// in\n    tag_340:\n        /* \"#utility.yul\":15618:15643   */\n      swap2\n      pop\n        /* \"#utility.yul\":15657:15677   */\n      tag_341\n        /* \"#utility.yul\":15675:15676   */\n      dup4\n        /* \"#utility.yul\":15657:15677   */\n      tag_285\n      jump\t// in\n    tag_341:\n        /* \"#utility.yul\":15652:15677   */\n      swap3\n      pop\n        /* \"#utility.yul\":15696:15697   */\n      dup3\n        /* \"#utility.yul\":15686:15721   */\n      tag_342\n      jumpi\n        /* \"#utility.yul\":15701:15719   */\n      tag_343\n      tag_344\n      jump\t// in\n    tag_343:\n        /* \"#utility.yul\":15686:15721   */\n    tag_342:\n        /* \"#utility.yul\":15743:15744   */\n      dup3\n        /* \"#utility.yul\":15740:15741   */\n      dup3\n        /* \"#utility.yul\":15736:15745   */\n      div\n        /* \"#utility.yul\":15731:15745   */\n      swap1\n      pop\n        /* \"#utility.yul\":15566:15751   */\n      swap3\n      swap2\n      pop\n      pop\n      jump\t// out\n        /* \"#utility.yul\":15757:16105   */\n    tag_154:\n        /* \"#utility.yul\":15797:15804   */\n      0x00\n        /* \"#utility.yul\":15820:15840   */\n      tag_346\n        /* \"#utility.yul\":15838:15839   */\n      dup3\n        /* \"#utility.yul\":15820:15840   */\n      tag_285\n      jump\t// in\n    tag_346:\n        /* \"#utility.yul\":15815:15840   */\n      swap2\n      pop\n        /* \"#utility.yul\":15854:15874   */\n      tag_347\n        /* \"#utility.yul\":15872:15873   */\n      dup4\n        /* \"#utility.yul\":15854:15874   */\n      tag_285\n      jump\t// in\n    tag_347:\n        /* \"#utility.yul\":15849:15874   */\n      swap3\n      pop\n        /* \"#utility.yul\":16042:16043   */\n      dup2\n        /* \"#utility.yul\":15974:16040   */\n      0xffffffffffffffffffffffffffffffffffffffffffffffffffffffffffffffff\n        /* \"#utility.yul\":15970:16044   */\n      div\n        /* \"#utility.yul\":15967:15968   */\n      dup4\n        /* \"#utility.yul\":15964:16045   */\n      gt\n        /* \"#utility.yul\":15959:15960   */\n      dup3\n        /* \"#utility.yul\":15952:15961   */\n      iszero\n        /* \"#utility.yul\":15945:15962   */\n      iszero\n        /* \"#utility.yul\":15941:16046   */\n      and\n        /* \"#utility.yul\":15938:16069   */\n      iszero\n      tag_348\n      jumpi\n        /* \"#utility.yul\":16049:16067   */\n      tag_349\n      tag_338\n      jump\t// in\n    tag_349:\n        /* \"#utility.yul\":15938:16069   */\n    tag_348:\n        /* \"#utility.yul\":16097:16098   */\n      dup3\n        /* \"#utility.yul\":16094:16095   */\n      dup3\n        /* \"#utility.yul\":16090:16099   */\n      mul\n        /* \"#utility.yul\":16079:16099   */\n      swap1\n      pop\n        /* \"#utility.yul\":15757:16105   */\n      swap3\n      swap2\n      pop\n      pop\n      jump\t// out\n        /* \"#utility.yul\":16111:16302   */\n    tag_61:\n        /* \"#utility.yul\":16151:16155   */\n      0x00\n        /* \"#utility.yul\":16171:16191   */\n      tag_351\n        /* \"#utility.yul\":16189:16190   */\n      dup3\n        /* \"#utility.yul\":16171:16191   */\n      tag_285\n      jump\t// in\n    tag_351:\n        /* \"#utility.yul\":16166:16191   */\n      swap2\n      pop\n        /* \"#utility.yul\":16205:16225   */\n      tag_352\n        /* \"#utility.yul\":16223:16224   */\n      dup4\n        /* \"#utility.yul\":16205:16225   */\n      tag_285\n      jump\t// in\n    tag_352:\n        /* \"#utility.yul\":16200:16225   */\n      swap3\n      pop\n        /* \"#utility.yul\":16244:16245   */\n      dup3\n        /* \"#utility.yul\":16241:16242   */\n      dup3\n        /* \"#utility.yul\":16238:16246   */\n      lt\n        /* \"#utility.yul\":16235:16269   */\n      iszero\n      tag_353\n      jumpi\n        /* \"#utility.yul\":16249:16267   */\n      tag_354\n      tag_338\n      jump\t// in\n    tag_354:\n        /* \"#utility.yul\":16235:16269   */\n    tag_353:\n        /* \"#utility.yul\":16294:16295   */\n      dup3\n        /* \"#utility.yul\":16291:16292   */\n      dup3\n        /* \"#utility.yul\":16287:16296   */\n      sub\n        /* \"#utility.yul\":16279:16296   */\n      swap1\n      pop\n        /* \"#utility.yul\":16111:16302   */\n      swap3\n      swap2\n      pop\n      pop\n      jump\t// out\n        /* \"#utility.yul\":16308:16404   */\n    tag_222:\n        /* \"#utility.yul\":16345:16352   */\n      0x00\n        /* \"#utility.yul\":16374:16398   */\n      tag_356\n        /* \"#utility.yul\":16392:16397   */\n      dup3\n        /* \"#utility.yul\":16374:16398   */\n      tag_357\n      jump\t// in\n    tag_356:\n        /* \"#utility.yul\":16363:16398   */\n      swap1\n      pop\n        /* \"#utility.yul\":16308:16404   */\n      swap2\n      swap1\n      pop\n      jump\t// out\n        /* \"#utility.yul\":16410:16500   */\n    tag_226:\n        /* \"#utility.yul\":16444:16451   */\n      0x00\n        /* \"#utility.yul\":16487:16492   */\n      dup2\n        /* \"#utility.yul\":16480:16493   */\n      iszero\n        /* \"#utility.yul\":16473:16494   */\n      iszero\n        /* \"#utility.yul\":16462:16494   */\n      swap1\n      pop\n        /* \"#utility.yul\":16410:16500   */\n      swap2\n      swap1\n      pop\n      jump\t// out\n        /* \"#utility.yul\":16506:16632   */\n    tag_357:\n        /* \"#utility.yul\":16543:16550   */\n      0x00\n        /* \"#utility.yul\":16583:16625   */\n      0xffffffffffffffffffffffffffffffffffffffff\n        /* \"#utility.yul\":16576:16581   */\n      dup3\n        /* \"#utility.yul\":16572:16626   */\n      and\n        /* \"#utility.yul\":16561:16626   */\n      swap1\n      pop\n        /* \"#utility.yul\":16506:16632   */\n      swap2\n      swap1\n      pop\n      jump\t// out\n        /* \"#utility.yul\":16638:16715   */\n    tag_285:\n        /* \"#utility.yul\":16675:16682   */\n      0x00\n        /* \"#utility.yul\":16704:16709   */\n      dup2\n        /* \"#utility.yul\":16693:16709   */\n      swap1\n      pop\n        /* \"#utility.yul\":16638:16715   */\n      swap2\n      swap1\n      pop\n      jump\t// out\n        /* \"#utility.yul\":16721:16860   */\n    tag_230:\n        /* \"#utility.yul\":16784:16793   */\n      0x00\n        /* \"#utility.yul\":16817:16854   */\n      tag_362\n        /* \"#utility.yul\":16848:16853   */\n      dup3\n        /* \"#utility.yul\":16817:16854   */\n      tag_363\n      jump\t// in\n    tag_362:\n        /* \"#utility.yul\":16804:16854   */\n      swap1\n      pop\n        /* \"#utility.yul\":16721:16860   */\n      swap2\n      swap1\n      pop\n      jump\t// out\n        /* \"#utility.yul\":16866:16992   */\n    tag_363:\n        /* \"#utility.yul\":16916:16925   */\n      0x00\n        /* \"#utility.yul\":16949:16986   */\n      tag_365\n        /* \"#utility.yul\":16980:16985   */\n      dup3\n        /* \"#utility.yul\":16949:16986   */\n      tag_366\n      jump\t// in\n    tag_365:\n        /* \"#utility.yul\":16936:16986   */\n      swap1\n      pop\n        /* \"#utility.yul\":16866:16992   */\n      swap2\n      swap1\n      pop\n      jump\t// out\n        /* \"#utility.yul\":16998:17111   */\n    tag_366:\n        /* \"#utility.yul\":17048:17057   */\n      0x00\n        /* \"#utility.yul\":17081:17105   */\n      tag_368\n        /* \"#utility.yul\":17099:17104   */\n      dup3\n        /* \"#utility.yul\":17081:17105   */\n      tag_357\n      jump\t// in\n    tag_368:\n        /* \"#utility.yul\":17068:17105   */\n      swap1\n      pop\n        /* \"#utility.yul\":16998:17111   */\n      swap2\n      swap1\n      pop\n      jump\t// out\n        /* \"#utility.yul\":17117:17350   */\n    tag_100:\n        /* \"#utility.yul\":17156:17159   */\n      0x00\n        /* \"#utility.yul\":17179:17203   */\n      tag_370\n        /* \"#utility.yul\":17197:17202   */\n      dup3\n        /* \"#utility.yul\":17179:17203   */\n      tag_285\n      jump\t// in\n    tag_370:\n        /* \"#utility.yul\":17170:17203   */\n      swap2\n      pop\n        /* \"#utility.yul\":17225:17291   */\n      0xffffffffffffffffffffffffffffffffffffffffffffffffffffffffffffffff\n        /* \"#utility.yul\":17218:17223   */\n      dup3\n        /* \"#utility.yul\":17215:17292   */\n      eq\n        /* \"#utility.yul\":17212:17315   */\n      iszero\n      tag_371\n      jumpi\n        /* \"#utility.yul\":17295:17313   */\n      tag_372\n      tag_338\n      jump\t// in\n    tag_372:\n        /* \"#utility.yul\":17212:17315   */\n    tag_371:\n        /* \"#utility.yul\":17342:17343   */\n      0x01\n        /* \"#utility.yul\":17335:17340   */\n      dup3\n        /* \"#utility.yul\":17331:17344   */\n      add\n        /* \"#utility.yul\":17324:17344   */\n      swap1\n      pop\n        /* \"#utility.yul\":17117:17350   */\n      swap2\n      swap1\n      pop\n      jump\t// out\n        /* \"#utility.yul\":17356:17536   */\n    tag_338:\n        /* \"#utility.yul\":17404:17481   */\n      0x4e487b7100000000000000000000000000000000000000000000000000000000\n        /* \"#utility.yul\":17401:17402   */\n      0x00\n        /* \"#utility.yul\":17394:17482   */\n      mstore\n        /* \"#utility.yul\":17501:17505   */\n      0x11\n        /* \"#utility.yul\":17498:17499   */\n      0x04\n        /* \"#utility.yul\":17491:17506   */\n      mstore\n        /* \"#utility.yul\":17525:17529   */\n      0x24\n        /* \"#utility.yul\":17522:17523   */\n      0x00\n        /* \"#utility.yul\":17515:17530   */\n      revert\n        /* \"#utility.yul\":17542:17722   */\n    tag_344:\n        /* \"#utility.yul\":17590:17667   */\n      0x4e487b7100000000000000000000000000000000000000000000000000000000\n        /* \"#utility.yul\":17587:17588   */\n      0x00\n        /* \"#utility.yul\":17580:17668   */\n      mstore\n        /* \"#utility.yul\":17687:17691   */\n      0x12\n        /* \"#utility.yul\":17684:17685   */\n      0x04\n        /* \"#utility.yul\":17677:17692   */\n      mstore\n        /* \"#utility.yul\":17711:17715   */\n      0x24\n        /* \"#utility.yul\":17708:17709   */\n      0x00\n        /* \"#utility.yul\":17701:17716   */\n      revert\n        /* \"#utility.yul\":17851:17968   */\n    tag_189:\n        /* \"#utility.yul\":17960:17961   */\n      0x00\n        /* \"#utility.yul\":17957:17958   */\n      dup1\n        /* \"#utility.yul\":17950:17962   */\n      revert\n        /* \"#utility.yul\":17974:18134   */\n    tag_236:\n        /* \"#utility.yul\":18114:18126   */\n      0x4c6f776572206269642100000000000000000000000000000000000000000000\n        /* \"#utility.yul\":18110:18111   */\n      0x00\n        /* \"#utility.yul\":18102:18108   */\n      dup3\n        /* \"#utility.yul\":18098:18112   */\n      add\n        /* \"#utility.yul\":18091:18127   */\n      mstore\n        /* \"#utility.yul\":17974:18134   */\n      pop\n      jump\t// out\n        /* \"#utility.yul\":18140:18315   */\n    tag_241:\n        /* \"#utility.yul\":18280:18307   */\n      0x41756374696f6e206973207374696c6c206f6e676f696e672100000000000000\n        /* \"#utility.yul\":18276:18277   */\n      0x00\n        /* \"#utility.yul\":18268:18274   */\n      dup3\n        /* \"#utility.yul\":18264:18278   */\n      add\n        /* \"#utility.yul\":18257:18308   */\n      mstore\n        /* \"#utility.yul\":18140:18315   */\n      pop\n      jump\t// out\n        /* \"#utility.yul\":18321:18487   */\n    tag_246:\n        /* \"#utility.yul\":18461:18479   */\n      0x416c726561647920737461727465642100000000000000000000000000000000\n        /* \"#utility.yul\":18457:18458   */\n      0x00\n        /* \"#utility.yul\":18449:18455   */\n      dup3\n        /* \"#utility.yul\":18445:18459   */\n      add\n        /* \"#utility.yul\":18438:18480   */\n      mstore\n        /* \"#utility.yul\":18321:18487   */\n      pop\n      jump\t// out\n        /* \"#utility.yul\":18493:18649   */\n    tag_251:\n        /* \"#utility.yul\":18633:18641   */\n      0x456e646564210000000000000000000000000000000000000000000000000000\n        /* \"#utility.yul\":18629:18630   */\n      0x00\n        /* \"#utility.yul\":18621:18627   */\n      dup3\n        /* \"#utility.yul\":18617:18631   */\n      add\n        /* \"#utility.yul\":18610:18642   */\n      mstore\n        /* \"#utility.yul\":18493:18649   */\n      pop\n      jump\t// out\n        /* \"#utility.yul\":18655:18825   */\n    tag_256:\n        /* \"#utility.yul\":18795:18817   */\n      0x5761697420666f722061756374696f6e20656e64000000000000000000000000\n        /* \"#utility.yul\":18791:18792   */\n      0x00\n        /* \"#utility.yul\":18783:18789   */\n      dup3\n        /* \"#utility.yul\":18779:18793   */\n      add\n        /* \"#utility.yul\":18772:18818   */\n      mstore\n        /* \"#utility.yul\":18655:18825   */\n      pop\n      jump\t// out\n        /* \"#utility.yul\":18831:19005   */\n    tag_261:\n        /* \"#utility.yul\":18971:18997   */\n      0x596f75206e65656420746f207374617274206669727374210000000000000000\n        /* \"#utility.yul\":18967:18968   */\n      0x00\n        /* \"#utility.yul\":18959:18965   */\n      dup3\n        /* \"#utility.yul\":18955:18969   */\n      add\n        /* \"#utility.yul\":18948:18998   */\n      mstore\n        /* \"#utility.yul\":18831:19005   */\n      pop\n      jump\t// out\n        /* \"#utility.yul\":19011:19191   */\n    tag_266:\n        /* \"#utility.yul\":19151:19183   */\n      0x596f752063616e206e6f74207374617274207468652061756374696f6e210000\n        /* \"#utility.yul\":19147:19148   */\n      0x00\n        /* \"#utility.yul\":19139:19145   */\n      dup3\n        /* \"#utility.yul\":19135:19149   */\n      add\n        /* \"#utility.yul\":19128:19184   */\n      mstore\n        /* \"#utility.yul\":19011:19191   */\n      pop\n      jump\t// out\n        /* \"#utility.yul\":19197:19359   */\n    tag_271:\n        /* \"#utility.yul\":19337:19351   */\n      0x4e6f7420737461727465642e0000000000000000000000000000000000000000\n        /* \"#utility.yul\":19333:19334   */\n      0x00\n        /* \"#utility.yul\":19325:19331   */\n      dup3\n        /* \"#utility.yul\":19321:19335   */\n      add\n        /* \"#utility.yul\":19314:19352   */\n      mstore\n        /* \"#utility.yul\":19197:19359   */\n      pop\n      jump\t// out\n        /* \"#utility.yul\":19365:19537   */\n    tag_276:\n        /* \"#utility.yul\":19505:19529   */\n      0x41756374696f6e20616c726561647920656e6465642100000000000000000000\n        /* \"#utility.yul\":19501:19502   */\n      0x00\n        /* \"#utility.yul\":19493:19499   */\n      dup3\n        /* \"#utility.yul\":19489:19503   */\n      add\n        /* \"#utility.yul\":19482:19530   */\n      mstore\n        /* \"#utility.yul\":19365:19537   */\n      pop\n      jump\t// out\n        /* \"#utility.yul\":19543:19711   */\n    tag_281:\n        /* \"#utility.yul\":19683:19703   */\n      0x436f756c64206e6f742077697468647261770000000000000000000000000000\n        /* \"#utility.yul\":19679:19680   */\n      0x00\n        /* \"#utility.yul\":19671:19677   */\n      dup3\n        /* \"#utility.yul\":19667:19681   */\n      add\n        /* \"#utility.yul\":19660:19704   */\n      mstore\n        /* \"#utility.yul\":19543:19711   */\n      pop\n      jump\t// out\n        /* \"#utility.yul\":19717:19839   */\n    tag_175:\n        /* \"#utility.yul\":19790:19814   */\n      tag_389\n        /* \"#utility.yul\":19808:19813   */\n      dup2\n        /* \"#utility.yul\":19790:19814   */\n      tag_222\n      jump\t// in\n    tag_389:\n        /* \"#utility.yul\":19783:19788   */\n      dup2\n        /* \"#utility.yul\":19780:19815   */\n      eq\n        /* \"#utility.yul\":19770:19833   */\n      tag_390\n      jumpi\n        /* \"#utility.yul\":19829:19830   */\n      0x00\n        /* \"#utility.yul\":19826:19827   */\n      dup1\n        /* \"#utility.yul\":19819:19831   */\n      revert\n        /* \"#utility.yul\":19770:19833   */\n    tag_390:\n        /* \"#utility.yul\":19717:19839   */\n      pop\n      jump\t// out\n        /* \"#utility.yul\":19845:19967   */\n    tag_182:\n        /* \"#utility.yul\":19918:19942   */\n      tag_392\n        /* \"#utility.yul\":19936:19941   */\n      dup2\n        /* \"#utility.yul\":19918:19942   */\n      tag_285\n      jump\t// in\n    tag_392:\n        /* \"#utility.yul\":19911:19916   */\n      dup2\n        /* \"#utility.yul\":19908:19943   */\n      eq\n        /* \"#utility.yul\":19898:19961   */\n      tag_393\n      jumpi\n        /* \"#utility.yul\":19957:19958   */\n      0x00\n        /* \"#utility.yul\":19954:19955   */\n      dup1\n        /* \"#utility.yul\":19947:19959   */\n      revert\n        /* \"#utility.yul\":19898:19961   */\n    tag_393:\n        /* \"#utility.yul\":19845:19967   */\n      pop\n      jump\t// out\n\n    auxdata: 0xa2646970667358221220f5fa06f583fff97e5272859ae8dc5e08678ca62bf2e9b524951d41a7f24a6ba664736f6c63430008070033\n}\n",
				"bytecode": {
					"linkReferences": {},
					"object": "608060405234801561001057600080fd5b506120f7806100206000396000f3fe6080604052600436106100705760003560e01c80637bb98a681161004e5780637bb98a68146100d6578063b76a3b5a14610101578063f3fef3a31461012a578063f48e9b3d1461014657610070565b8063545c285c1461007557806359d667a51461009e578063699ff43f146100ba575b600080fd5b34801561008157600080fd5b5061009c6004803603810190610097919061170b565b610189565b005b6100b860048036038101906100b3919061175e565b610a3e565b005b6100d460048036038101906100cf919061179e565b610d69565b005b3480156100e257600080fd5b506100eb610f4f565b6040516100f89190611c65565b60405180910390f35b34801561010d57600080fd5b50610128600480360381019061012391906117f1565b610f55565b005b610144600480360381019061013f919061175e565b611358565b005b34801561015257600080fd5b5061016d6004803603810190610168919061175e565b6115e1565b6040516101809796959493929190611a56565b60405180910390f35b60008060008473ffffffffffffffffffffffffffffffffffffffff1673ffffffffffffffffffffffffffffffffffffffff1681526020019081526020016000206000838152602001908152602001600020905060008490508160000160149054906101000a900460ff16610232576040517f08c379a000000000000000000000000000000000000000000000000000000000815260040161022990611bc5565b60405180910390fd5b8160010154421015610279576040517f08c379a000000000000000000000000000000000000000000000000000000000815260040161027090611b45565b60405180910390fd5b8160000160159054906101000a900460ff16156102cb576040517f08c379a00000000000000000000000000000000000000000000000000000000081526004016102c290611c25565b60405180910390fd5b600073ffffffffffffffffffffffffffffffffffffffff168260060160008460040154815260200190815260200160002060009054906101000a900473ffffffffffffffffffffffffffffffffffffffff1673ffffffffffffffffffffffffffffffffffffffff16146108b6578160020160009054906101000a900473ffffffffffffffffffffffffffffffffffffffff1673ffffffffffffffffffffffffffffffffffffffff166323b872dd308460060160008660040154815260200190815260200160002060009054906101000a900473ffffffffffffffffffffffffffffffffffffffff1685600301546040518463ffffffff1660e01b81526004016103d693929190611a1f565b600060405180830381600087803b1580156103f057600080fd5b505af1158015610404573d6000803e3d6000fd5b505050508160000160009054906101000a900473ffffffffffffffffffffffffffffffffffffffff1673ffffffffffffffffffffffffffffffffffffffff166108fc6014846005016000866004015481526020019081526020016000205461046c9190611d10565b84600501600086600401548152602001908152602001600020546104909190611d9b565b9081150290604051600060405180830381858888f193505050501580156104bb573d6000803e3d6000fd5b508073ffffffffffffffffffffffffffffffffffffffff16638da5cb5b6040518163ffffffff1660e01b815260040160206040518083038186803b15801561050257600080fd5b505afa158015610516573d6000803e3d6000fd5b505050506040513d601f19601f8201168201806040525081019061053a91906116de565b73ffffffffffffffffffffffffffffffffffffffff166108fc601484600501600086600401548152602001908152602001600020546105799190611d10565b9081150290604051600060405180830381858888f193505050501580156105a4573d6000803e3d6000fd5b5060005b600581101561081b57600073ffffffffffffffffffffffffffffffffffffffff168273ffffffffffffffffffffffffffffffffffffffff16632973d6f88787856040518463ffffffff1660e01b815260040161060693929190611aee565b60206040518083038186803b15801561061e57600080fd5b505afa158015610632573d6000803e3d6000fd5b505050506040513d601f19601f8201168201806040525081019061065691906116de565b73ffffffffffffffffffffffffffffffffffffffff1614610803578173ffffffffffffffffffffffffffffffffffffffff16632973d6f88686846040518463ffffffff1660e01b81526004016106ae93929190611aee565b60206040518083038186803b1580156106c657600080fd5b505afa1580156106da573d6000803e3d6000fd5b505050506040513d601f19601f820116820180604052508101906106fe91906116de565b73ffffffffffffffffffffffffffffffffffffffff166108fc8373ffffffffffffffffffffffffffffffffffffffff1663d178227a88886040518363ffffffff1660e01b8152600401610752929190611ac5565b60206040518083038186803b15801561076a57600080fd5b505afa15801561077e573d6000803e3d6000fd5b505050506040513d601f19601f820116820180604052508101906107a29190611858565b601486600501600088600401548152602001908152602001600020546107c89190611d10565b6107d29190611d10565b9081150290604051600060405180830381858888f193505050501580156107fd573d6000803e3d6000fd5b50610808565b61081b565b808061081390611e4d565b9150506105a8565b508160050160008360040154815260200190815260200160002054600160008282546108479190611d9b565b9250508190555060005b82600401548110156108b05761089d858585600601600085815260200190815260200160002060009054906101000a900473ffffffffffffffffffffffffffffffffffffffff16610d69565b80806108a890611e4d565b915050610851565b50610972565b8160020160009054906101000a900473ffffffffffffffffffffffffffffffffffffffff1673ffffffffffffffffffffffffffffffffffffffff166323b872dd308460000160009054906101000a900473ffffffffffffffffffffffffffffffffffffffff1685600301546040518463ffffffff1660e01b815260040161093f93929190611a1f565b600060405180830381600087803b15801561095957600080fd5b505af115801561096d573d6000803e3d6000fd5b505050505b60018260000160156101000a81548160ff02191690831515021790555060008260000160146101000a81548160ff0219169083151502179055507f7d7570b046e5ead3a4f3fbc9fa2445113625a1e79823776146316bafed6b8cc58260060160008460040154815260200190815260200160002060009054906101000a900473ffffffffffffffffffffffffffffffffffffffff168360050160008560040154815260200190815260200160002054604051610a2f929190611ac5565b60405180910390a15050505050565b60008060008473ffffffffffffffffffffffffffffffffffffffff1673ffffffffffffffffffffffffffffffffffffffff168152602001908152602001600020600083815260200190815260200160002090508060000160149054906101000a900460ff16610ae2576040517f08c379a0000000000000000000000000000000000000000000000000000000008152600401610ad990611c05565b60405180910390fd5b80600101544210610b28576040517f08c379a0000000000000000000000000000000000000000000000000000000008152600401610b1f90611b85565b60405180910390fd5b80600501600082600401548152602001908152602001600020543411610b83576040517f08c379a0000000000000000000000000000000000000000000000000000000008152600401610b7a90611b25565b60405180910390fd5b348160050160008360040154815260200190815260200160002081905550338160060160008360040154815260200190815260200160002060006101000a81548173ffffffffffffffffffffffffffffffffffffffff021916908373ffffffffffffffffffffffffffffffffffffffff16021790555080600501600082600401548152602001908152602001600020548160070160008360060160008560040154815260200190815260200160002060009054906101000a900473ffffffffffffffffffffffffffffffffffffffff1673ffffffffffffffffffffffffffffffffffffffff1673ffffffffffffffffffffffffffffffffffffffff16815260200190815260200160002081905550806004016000815480929190610ca690611e4d565b91905055503460016000828254610cbd9190611cba565b925050819055508060060160008260040154815260200190815260200160002060009054906101000a900473ffffffffffffffffffffffffffffffffffffffff1673ffffffffffffffffffffffffffffffffffffffff167fe684a55f31b79eca403df938249029212a5925ec6be8012e099b45bc1019e5d28260050160008460040154815260200190815260200160002054604051610d5c9190611c65565b60405180910390a2505050565b60008060008573ffffffffffffffffffffffffffffffffffffffff1673ffffffffffffffffffffffffffffffffffffffff1681526020019081526020016000206000848152602001908152602001600020905060008160070160008473ffffffffffffffffffffffffffffffffffffffff1673ffffffffffffffffffffffffffffffffffffffff168152602001908152602001600020549050600081118015610e1457506001548111155b610e53576040517f08c379a0000000000000000000000000000000000000000000000000000000008152600401610e4a90611c45565b60405180910390fd5b60008260070160008573ffffffffffffffffffffffffffffffffffffffff1673ffffffffffffffffffffffffffffffffffffffff168152602001908152602001600020819055508273ffffffffffffffffffffffffffffffffffffffff166108fc829081150290604051600060405180830381858888f19350505050158015610ee0573d6000803e3d6000fd5b508060016000828254610ef39190611d9b565b925050819055508273ffffffffffffffffffffffffffffffffffffffff167f884edad9ce6fa2440d8a54cc123490eb96d2768479d49ff9c7366125a942436482604051610f409190611c65565b60405180910390a25050505050565b60015481565b60008060008673ffffffffffffffffffffffffffffffffffffffff1673ffffffffffffffffffffffffffffffffffffffff16815260200190815260200160002060008581526020019081526020016000209050848160020160006101000a81548173ffffffffffffffffffffffffffffffffffffffff021916908373ffffffffffffffffffffffffffffffffffffffff1602179055508060020160009054906101000a900473ffffffffffffffffffffffffffffffffffffffff1673ffffffffffffffffffffffffffffffffffffffff16636352211e856040518263ffffffff1660e01b81526004016110489190611c65565b60206040518083038186803b15801561106057600080fd5b505afa158015611074573d6000803e3d6000fd5b505050506040513d601f19601f8201168201806040525081019061109891906116de565b8160000160006101000a81548173ffffffffffffffffffffffffffffffffffffffff021916908373ffffffffffffffffffffffffffffffffffffffff16021790555060008160000160156101000a81548160ff0219169083151502179055508060000160149054906101000a900460ff1615611149576040517f08c379a000000000000000000000000000000000000000000000000000000000815260040161114090611b65565b60405180910390fd5b8060000160009054906101000a900473ffffffffffffffffffffffffffffffffffffffff1673ffffffffffffffffffffffffffffffffffffffff163373ffffffffffffffffffffffffffffffffffffffff16146111db576040517f08c379a00000000000000000000000000000000000000000000000000000000081526004016111d290611be5565b60405180910390fd5b6000816004018190555082816005016000836004015481526020019081526020016000208190555080600401600081548092919061121890611e4d565b91905055508381600301819055508060020160009054906101000a900473ffffffffffffffffffffffffffffffffffffffff1673ffffffffffffffffffffffffffffffffffffffff166323b872dd333084600301546040518463ffffffff1660e01b815260040161128b93929190611a1f565b600060405180830381600087803b1580156112a557600080fd5b505af11580156112b9573d6000803e3d6000fd5b5050505060018160000160146101000a81548160ff02191690831515021790555062015180826112e99190611d41565b426112f49190611cba565b8160010181905550838573ffffffffffffffffffffffffffffffffffffffff167f3b305515dbe345238649f5ce343c57ae67d5727443f8d744b2b793c3231e3ad9858460010154604051611349929190611c80565b60405180910390a35050505050565b60008060008473ffffffffffffffffffffffffffffffffffffffff1673ffffffffffffffffffffffffffffffffffffffff1681526020019081526020016000206000838152602001908152602001600020905060008160070160003373ffffffffffffffffffffffffffffffffffffffff1673ffffffffffffffffffffffffffffffffffffffff1681526020019081526020016000205490506000811415801561140457506001548111155b611443576040517f08c379a000000000000000000000000000000000000000000000000000000000815260040161143a90611c45565b60405180910390fd5b8160000160149054906101000a900460ff1615611495576040517f08c379a000000000000000000000000000000000000000000000000000000000815260040161148c90611ba5565b60405180910390fd5b8160000160159054906101000a900460ff166114e6576040517f08c379a00000000000000000000000000000000000000000000000000000000081526004016114dd90611ba5565b60405180910390fd5b60008260070160003373ffffffffffffffffffffffffffffffffffffffff1673ffffffffffffffffffffffffffffffffffffffff168152602001908152602001600020819055503373ffffffffffffffffffffffffffffffffffffffff166108fc829081150290604051600060405180830381858888f19350505050158015611573573d6000803e3d6000fd5b5080600160008282546115869190611d9b565b925050819055503373ffffffffffffffffffffffffffffffffffffffff167f884edad9ce6fa2440d8a54cc123490eb96d2768479d49ff9c7366125a9424364826040516115d39190611c65565b60405180910390a250505050565b6000602052816000526040600020602052806000526040600020600091509150508060000160009054906101000a900473ffffffffffffffffffffffffffffffffffffffff16908060000160149054906101000a900460ff16908060000160159054906101000a900460ff16908060010154908060020160009054906101000a900473ffffffffffffffffffffffffffffffffffffffff16908060030154908060040154905087565b60008135905061169981612093565b92915050565b6000815190506116ae81612093565b92915050565b6000813590506116c3816120aa565b92915050565b6000815190506116d8816120aa565b92915050565b6000602082840312156116f4576116f3611ef4565b5b60006117028482850161169f565b91505092915050565b60008060006060848603121561172457611723611ef4565b5b60006117328682870161168a565b93505060206117438682870161168a565b9250506040611754868287016116b4565b9150509250925092565b6000806040838503121561177557611774611ef4565b5b60006117838582860161168a565b9250506020611794858286016116b4565b9150509250929050565b6000806000606084860312156117b7576117b6611ef4565b5b60006117c58682870161168a565b93505060206117d6868287016116b4565b92505060406117e78682870161168a565b9150509250925092565b6000806000806080858703121561180b5761180a611ef4565b5b60006118198782880161168a565b945050602061182a878288016116b4565b935050604061183b878288016116b4565b925050606061184c878288016116b4565b91505092959194509250565b60006020828403121561186e5761186d611ef4565b5b600061187c848285016116c9565b91505092915050565b61188e81611dcf565b82525050565b61189d81611de1565b82525050565b6118ac81611e17565b82525050565b60006118bf600a83611ca9565b91506118ca82611ef9565b602082019050919050565b60006118e2601983611ca9565b91506118ed82611f22565b602082019050919050565b6000611905601083611ca9565b915061191082611f4b565b602082019050919050565b6000611928600683611ca9565b915061193382611f74565b602082019050919050565b600061194b601483611ca9565b915061195682611f9d565b602082019050919050565b600061196e601883611ca9565b915061197982611fc6565b602082019050919050565b6000611991601e83611ca9565b915061199c82611fef565b602082019050919050565b60006119b4600c83611ca9565b91506119bf82612018565b602082019050919050565b60006119d7601683611ca9565b91506119e282612041565b602082019050919050565b60006119fa601283611ca9565b9150611a058261206a565b602082019050919050565b611a1981611e0d565b82525050565b6000606082019050611a346000830186611885565b611a416020830185611885565b611a4e6040830184611a10565b949350505050565b600060e082019050611a6b600083018a611885565b611a786020830189611894565b611a856040830188611894565b611a926060830187611a10565b611a9f60808301866118a3565b611aac60a0830185611a10565b611ab960c0830184611a10565b98975050505050505050565b6000604082019050611ada6000830185611885565b611ae76020830184611a10565b9392505050565b6000606082019050611b036000830186611885565b611b106020830185611a10565b611b1d6040830184611a10565b949350505050565b60006020820190508181036000830152611b3e816118b2565b9050919050565b60006020820190508181036000830152611b5e816118d5565b9050919050565b60006020820190508181036000830152611b7e816118f8565b9050919050565b60006020820190508181036000830152611b9e8161191b565b9050919050565b60006020820190508181036000830152611bbe8161193e565b9050919050565b60006020820190508181036000830152611bde81611961565b9050919050565b60006020820190508181036000830152611bfe81611984565b9050919050565b60006020820190508181036000830152611c1e816119a7565b9050919050565b60006020820190508181036000830152611c3e816119ca565b9050919050565b60006020820190508181036000830152611c5e816119ed565b9050919050565b6000602082019050611c7a6000830184611a10565b92915050565b6000604082019050611c956000830185611a10565b611ca26020830184611a10565b9392505050565b600082825260208201905092915050565b6000611cc582611e0d565b9150611cd083611e0d565b9250827fffffffffffffffffffffffffffffffffffffffffffffffffffffffffffffffff03821115611d0557611d04611e96565b5b828201905092915050565b6000611d1b82611e0d565b9150611d2683611e0d565b925082611d3657611d35611ec5565b5b828204905092915050565b6000611d4c82611e0d565b9150611d5783611e0d565b9250817fffffffffffffffffffffffffffffffffffffffffffffffffffffffffffffffff0483118215151615611d9057611d8f611e96565b5b828202905092915050565b6000611da682611e0d565b9150611db183611e0d565b925082821015611dc457611dc3611e96565b5b828203905092915050565b6000611dda82611ded565b9050919050565b60008115159050919050565b600073ffffffffffffffffffffffffffffffffffffffff82169050919050565b6000819050919050565b6000611e2282611e29565b9050919050565b6000611e3482611e3b565b9050919050565b6000611e4682611ded565b9050919050565b6000611e5882611e0d565b91507fffffffffffffffffffffffffffffffffffffffffffffffffffffffffffffffff821415611e8b57611e8a611e96565b5b600182019050919050565b7f4e487b7100000000000000000000000000000000000000000000000000000000600052601160045260246000fd5b7f4e487b7100000000000000000000000000000000000000000000000000000000600052601260045260246000fd5b600080fd5b7f4c6f776572206269642100000000000000000000000000000000000000000000600082015250565b7f41756374696f6e206973207374696c6c206f6e676f696e672100000000000000600082015250565b7f416c726561647920737461727465642100000000000000000000000000000000600082015250565b7f456e646564210000000000000000000000000000000000000000000000000000600082015250565b7f5761697420666f722061756374696f6e20656e64000000000000000000000000600082015250565b7f596f75206e65656420746f207374617274206669727374210000000000000000600082015250565b7f596f752063616e206e6f74207374617274207468652061756374696f6e210000600082015250565b7f4e6f7420737461727465642e0000000000000000000000000000000000000000600082015250565b7f41756374696f6e20616c726561647920656e6465642100000000000000000000600082015250565b7f436f756c64206e6f742077697468647261770000000000000000000000000000600082015250565b61209c81611dcf565b81146120a757600080fd5b50565b6120b381611e0d565b81146120be57600080fd5b5056fea2646970667358221220f5fa06f583fff97e5272859ae8dc5e08678ca62bf2e9b524951d41a7f24a6ba664736f6c63430008070033",
					"opcodes": "PUSH1 0x80 PUSH1 0x40 MSTORE CALLVALUE DUP1 ISZERO PUSH2 0x10 JUMPI PUSH1 0x0 DUP1 REVERT JUMPDEST POP PUSH2 0x20F7 DUP1 PUSH2 0x20 PUSH1 0x0 CODECOPY PUSH1 0x0 RETURN INVALID PUSH1 0x80 PUSH1 0x40 MSTORE PUSH1 0x4 CALLDATASIZE LT PUSH2 0x70 JUMPI PUSH1 0x0 CALLDATALOAD PUSH1 0xE0 SHR DUP1 PUSH4 0x7BB98A68 GT PUSH2 0x4E JUMPI DUP1 PUSH4 0x7BB98A68 EQ PUSH2 0xD6 JUMPI DUP1 PUSH4 0xB76A3B5A EQ PUSH2 0x101 JUMPI DUP1 PUSH4 0xF3FEF3A3 EQ PUSH2 0x12A JUMPI DUP1 PUSH4 0xF48E9B3D EQ PUSH2 0x146 JUMPI PUSH2 0x70 JUMP JUMPDEST DUP1 PUSH4 0x545C285C EQ PUSH2 0x75 JUMPI DUP1 PUSH4 0x59D667A5 EQ PUSH2 0x9E JUMPI DUP1 PUSH4 0x699FF43F EQ PUSH2 0xBA JUMPI JUMPDEST PUSH1 0x0 DUP1 REVERT JUMPDEST CALLVALUE DUP1 ISZERO PUSH2 0x81 JUMPI PUSH1 0x0 DUP1 REVERT JUMPDEST POP PUSH2 0x9C PUSH1 0x4 DUP1 CALLDATASIZE SUB DUP2 ADD SWAP1 PUSH2 0x97 SWAP2 SWAP1 PUSH2 0x170B JUMP JUMPDEST PUSH2 0x189 JUMP JUMPDEST STOP JUMPDEST PUSH2 0xB8 PUSH1 0x4 DUP1 CALLDATASIZE SUB DUP2 ADD SWAP1 PUSH2 0xB3 SWAP2 SWAP1 PUSH2 0x175E JUMP JUMPDEST PUSH2 0xA3E JUMP JUMPDEST STOP JUMPDEST PUSH2 0xD4 PUSH1 0x4 DUP1 CALLDATASIZE SUB DUP2 ADD SWAP1 PUSH2 0xCF SWAP2 SWAP1 PUSH2 0x179E JUMP JUMPDEST PUSH2 0xD69 JUMP JUMPDEST STOP JUMPDEST CALLVALUE DUP1 ISZERO PUSH2 0xE2 JUMPI PUSH1 0x0 DUP1 REVERT JUMPDEST POP PUSH2 0xEB PUSH2 0xF4F JUMP JUMPDEST PUSH1 0x40 MLOAD PUSH2 0xF8 SWAP2 SWAP1 PUSH2 0x1C65 JUMP JUMPDEST PUSH1 0x40 MLOAD DUP1 SWAP2 SUB SWAP1 RETURN JUMPDEST CALLVALUE DUP1 ISZERO PUSH2 0x10D JUMPI PUSH1 0x0 DUP1 REVERT JUMPDEST POP PUSH2 0x128 PUSH1 0x4 DUP1 CALLDATASIZE SUB DUP2 ADD SWAP1 PUSH2 0x123 SWAP2 SWAP1 PUSH2 0x17F1 JUMP JUMPDEST PUSH2 0xF55 JUMP JUMPDEST STOP JUMPDEST PUSH2 0x144 PUSH1 0x4 DUP1 CALLDATASIZE SUB DUP2 ADD SWAP1 PUSH2 0x13F SWAP2 SWAP1 PUSH2 0x175E JUMP JUMPDEST PUSH2 0x1358 JUMP JUMPDEST STOP JUMPDEST CALLVALUE DUP1 ISZERO PUSH2 0x152 JUMPI PUSH1 0x0 DUP1 REVERT JUMPDEST POP PUSH2 0x16D PUSH1 0x4 DUP1 CALLDATASIZE SUB DUP2 ADD SWAP1 PUSH2 0x168 SWAP2 SWAP1 PUSH2 0x175E JUMP JUMPDEST PUSH2 0x15E1 JUMP JUMPDEST PUSH1 0x40 MLOAD PUSH2 0x180 SWAP8 SWAP7 SWAP6 SWAP5 SWAP4 SWAP3 SWAP2 SWAP1 PUSH2 0x1A56 JUMP JUMPDEST PUSH1 0x40 MLOAD DUP1 SWAP2 SUB SWAP1 RETURN JUMPDEST PUSH1 0x0 DUP1 PUSH1 0x0 DUP5 PUSH20 0xFFFFFFFFFFFFFFFFFFFFFFFFFFFFFFFFFFFFFFFF AND PUSH20 0xFFFFFFFFFFFFFFFFFFFFFFFFFFFFFFFFFFFFFFFF AND DUP2 MSTORE PUSH1 0x20 ADD SWAP1 DUP2 MSTORE PUSH1 0x20 ADD PUSH1 0x0 KECCAK256 PUSH1 0x0 DUP4 DUP2 MSTORE PUSH1 0x20 ADD SWAP1 DUP2 MSTORE PUSH1 0x20 ADD PUSH1 0x0 KECCAK256 SWAP1 POP PUSH1 0x0 DUP5 SWAP1 POP DUP2 PUSH1 0x0 ADD PUSH1 0x14 SWAP1 SLOAD SWAP1 PUSH2 0x100 EXP SWAP1 DIV PUSH1 0xFF AND PUSH2 0x232 JUMPI PUSH1 0x40 MLOAD PUSH32 0x8C379A000000000000000000000000000000000000000000000000000000000 DUP2 MSTORE PUSH1 0x4 ADD PUSH2 0x229 SWAP1 PUSH2 0x1BC5 JUMP JUMPDEST PUSH1 0x40 MLOAD DUP1 SWAP2 SUB SWAP1 REVERT JUMPDEST DUP2 PUSH1 0x1 ADD SLOAD TIMESTAMP LT ISZERO PUSH2 0x279 JUMPI PUSH1 0x40 MLOAD PUSH32 0x8C379A000000000000000000000000000000000000000000000000000000000 DUP2 MSTORE PUSH1 0x4 ADD PUSH2 0x270 SWAP1 PUSH2 0x1B45 JUMP JUMPDEST PUSH1 0x40 MLOAD DUP1 SWAP2 SUB SWAP1 REVERT JUMPDEST DUP2 PUSH1 0x0 ADD PUSH1 0x15 SWAP1 SLOAD SWAP1 PUSH2 0x100 EXP SWAP1 DIV PUSH1 0xFF AND ISZERO PUSH2 0x2CB JUMPI PUSH1 0x40 MLOAD PUSH32 0x8C379A000000000000000000000000000000000000000000000000000000000 DUP2 MSTORE PUSH1 0x4 ADD PUSH2 0x2C2 SWAP1 PUSH2 0x1C25 JUMP JUMPDEST PUSH1 0x40 MLOAD DUP1 SWAP2 SUB SWAP1 REVERT JUMPDEST PUSH1 0x0 PUSH20 0xFFFFFFFFFFFFFFFFFFFFFFFFFFFFFFFFFFFFFFFF AND DUP3 PUSH1 0x6 ADD PUSH1 0x0 DUP5 PUSH1 0x4 ADD SLOAD DUP2 MSTORE PUSH1 0x20 ADD SWAP1 DUP2 MSTORE PUSH1 0x20 ADD PUSH1 0x0 KECCAK256 PUSH1 0x0 SWAP1 SLOAD SWAP1 PUSH2 0x100 EXP SWAP1 DIV PUSH20 0xFFFFFFFFFFFFFFFFFFFFFFFFFFFFFFFFFFFFFFFF AND PUSH20 0xFFFFFFFFFFFFFFFFFFFFFFFFFFFFFFFFFFFFFFFF AND EQ PUSH2 0x8B6 JUMPI DUP2 PUSH1 0x2 ADD PUSH1 0x0 SWAP1 SLOAD SWAP1 PUSH2 0x100 EXP SWAP1 DIV PUSH20 0xFFFFFFFFFFFFFFFFFFFFFFFFFFFFFFFFFFFFFFFF AND PUSH20 0xFFFFFFFFFFFFFFFFFFFFFFFFFFFFFFFFFFFFFFFF AND PUSH4 0x23B872DD ADDRESS DUP5 PUSH1 0x6 ADD PUSH1 0x0 DUP7 PUSH1 0x4 ADD SLOAD DUP2 MSTORE PUSH1 0x20 ADD SWAP1 DUP2 MSTORE PUSH1 0x20 ADD PUSH1 0x0 KECCAK256 PUSH1 0x0 SWAP1 SLOAD SWAP1 PUSH2 0x100 EXP SWAP1 DIV PUSH20 0xFFFFFFFFFFFFFFFFFFFFFFFFFFFFFFFFFFFFFFFF AND DUP6 PUSH1 0x3 ADD SLOAD PUSH1 0x40 MLOAD DUP5 PUSH4 0xFFFFFFFF AND PUSH1 0xE0 SHL DUP2 MSTORE PUSH1 0x4 ADD PUSH2 0x3D6 SWAP4 SWAP3 SWAP2 SWAP1 PUSH2 0x1A1F JUMP JUMPDEST PUSH1 0x0 PUSH1 0x40 MLOAD DUP1 DUP4 SUB DUP2 PUSH1 0x0 DUP8 DUP1 EXTCODESIZE ISZERO DUP1 ISZERO PUSH2 0x3F0 JUMPI PUSH1 0x0 DUP1 REVERT JUMPDEST POP GAS CALL ISZERO DUP1 ISZERO PUSH2 0x404 JUMPI RETURNDATASIZE PUSH1 0x0 DUP1 RETURNDATACOPY RETURNDATASIZE PUSH1 0x0 REVERT JUMPDEST POP POP POP POP DUP2 PUSH1 0x0 ADD PUSH1 0x0 SWAP1 SLOAD SWAP1 PUSH2 0x100 EXP SWAP1 DIV PUSH20 0xFFFFFFFFFFFFFFFFFFFFFFFFFFFFFFFFFFFFFFFF AND PUSH20 0xFFFFFFFFFFFFFFFFFFFFFFFFFFFFFFFFFFFFFFFF AND PUSH2 0x8FC PUSH1 0x14 DUP5 PUSH1 0x5 ADD PUSH1 0x0 DUP7 PUSH1 0x4 ADD SLOAD DUP2 MSTORE PUSH1 0x20 ADD SWAP1 DUP2 MSTORE PUSH1 0x20 ADD PUSH1 0x0 KECCAK256 SLOAD PUSH2 0x46C SWAP2 SWAP1 PUSH2 0x1D10 JUMP JUMPDEST DUP5 PUSH1 0x5 ADD PUSH1 0x0 DUP7 PUSH1 0x4 ADD SLOAD DUP2 MSTORE PUSH1 0x20 ADD SWAP1 DUP2 MSTORE PUSH1 0x20 ADD PUSH1 0x0 KECCAK256 SLOAD PUSH2 0x490 SWAP2 SWAP1 PUSH2 0x1D9B JUMP JUMPDEST SWAP1 DUP2 ISZERO MUL SWAP1 PUSH1 0x40 MLOAD PUSH1 0x0 PUSH1 0x40 MLOAD DUP1 DUP4 SUB DUP2 DUP6 DUP9 DUP9 CALL SWAP4 POP POP POP POP ISZERO DUP1 ISZERO PUSH2 0x4BB JUMPI RETURNDATASIZE PUSH1 0x0 DUP1 RETURNDATACOPY RETURNDATASIZE PUSH1 0x0 REVERT JUMPDEST POP DUP1 PUSH20 0xFFFFFFFFFFFFFFFFFFFFFFFFFFFFFFFFFFFFFFFF AND PUSH4 0x8DA5CB5B PUSH1 0x40 MLOAD DUP2 PUSH4 0xFFFFFFFF AND PUSH1 0xE0 SHL DUP2 MSTORE PUSH1 0x4 ADD PUSH1 0x20 PUSH1 0x40 MLOAD DUP1 DUP4 SUB DUP2 DUP7 DUP1 EXTCODESIZE ISZERO DUP1 ISZERO PUSH2 0x502 JUMPI PUSH1 0x0 DUP1 REVERT JUMPDEST POP GAS STATICCALL ISZERO DUP1 ISZERO PUSH2 0x516 JUMPI RETURNDATASIZE PUSH1 0x0 DUP1 RETURNDATACOPY RETURNDATASIZE PUSH1 0x0 REVERT JUMPDEST POP POP POP POP PUSH1 0x40 MLOAD RETURNDATASIZE PUSH1 0x1F NOT PUSH1 0x1F DUP3 ADD AND DUP3 ADD DUP1 PUSH1 0x40 MSTORE POP DUP2 ADD SWAP1 PUSH2 0x53A SWAP2 SWAP1 PUSH2 0x16DE JUMP JUMPDEST PUSH20 0xFFFFFFFFFFFFFFFFFFFFFFFFFFFFFFFFFFFFFFFF AND PUSH2 0x8FC PUSH1 0x14 DUP5 PUSH1 0x5 ADD PUSH1 0x0 DUP7 PUSH1 0x4 ADD SLOAD DUP2 MSTORE PUSH1 0x20 ADD SWAP1 DUP2 MSTORE PUSH1 0x20 ADD PUSH1 0x0 KECCAK256 SLOAD PUSH2 0x579 SWAP2 SWAP1 PUSH2 0x1D10 JUMP JUMPDEST SWAP1 DUP2 ISZERO MUL SWAP1 PUSH1 0x40 MLOAD PUSH1 0x0 PUSH1 0x40 MLOAD DUP1 DUP4 SUB DUP2 DUP6 DUP9 DUP9 CALL SWAP4 POP POP POP POP ISZERO DUP1 ISZERO PUSH2 0x5A4 JUMPI RETURNDATASIZE PUSH1 0x0 DUP1 RETURNDATACOPY RETURNDATASIZE PUSH1 0x0 REVERT JUMPDEST POP PUSH1 0x0 JUMPDEST PUSH1 0x5 DUP2 LT ISZERO PUSH2 0x81B JUMPI PUSH1 0x0 PUSH20 0xFFFFFFFFFFFFFFFFFFFFFFFFFFFFFFFFFFFFFFFF AND DUP3 PUSH20 0xFFFFFFFFFFFFFFFFFFFFFFFFFFFFFFFFFFFFFFFF AND PUSH4 0x2973D6F8 DUP8 DUP8 DUP6 PUSH1 0x40 MLOAD DUP5 PUSH4 0xFFFFFFFF AND PUSH1 0xE0 SHL DUP2 MSTORE PUSH1 0x4 ADD PUSH2 0x606 SWAP4 SWAP3 SWAP2 SWAP1 PUSH2 0x1AEE JUMP JUMPDEST PUSH1 0x20 PUSH1 0x40 MLOAD DUP1 DUP4 SUB DUP2 DUP7 DUP1 EXTCODESIZE ISZERO DUP1 ISZERO PUSH2 0x61E JUMPI PUSH1 0x0 DUP1 REVERT JUMPDEST POP GAS STATICCALL ISZERO DUP1 ISZERO PUSH2 0x632 JUMPI RETURNDATASIZE PUSH1 0x0 DUP1 RETURNDATACOPY RETURNDATASIZE PUSH1 0x0 REVERT JUMPDEST POP POP POP POP PUSH1 0x40 MLOAD RETURNDATASIZE PUSH1 0x1F NOT PUSH1 0x1F DUP3 ADD AND DUP3 ADD DUP1 PUSH1 0x40 MSTORE POP DUP2 ADD SWAP1 PUSH2 0x656 SWAP2 SWAP1 PUSH2 0x16DE JUMP JUMPDEST PUSH20 0xFFFFFFFFFFFFFFFFFFFFFFFFFFFFFFFFFFFFFFFF AND EQ PUSH2 0x803 JUMPI DUP2 PUSH20 0xFFFFFFFFFFFFFFFFFFFFFFFFFFFFFFFFFFFFFFFF AND PUSH4 0x2973D6F8 DUP7 DUP7 DUP5 PUSH1 0x40 MLOAD DUP5 PUSH4 0xFFFFFFFF AND PUSH1 0xE0 SHL DUP2 MSTORE PUSH1 0x4 ADD PUSH2 0x6AE SWAP4 SWAP3 SWAP2 SWAP1 PUSH2 0x1AEE JUMP JUMPDEST PUSH1 0x20 PUSH1 0x40 MLOAD DUP1 DUP4 SUB DUP2 DUP7 DUP1 EXTCODESIZE ISZERO DUP1 ISZERO PUSH2 0x6C6 JUMPI PUSH1 0x0 DUP1 REVERT JUMPDEST POP GAS STATICCALL ISZERO DUP1 ISZERO PUSH2 0x6DA JUMPI RETURNDATASIZE PUSH1 0x0 DUP1 RETURNDATACOPY RETURNDATASIZE PUSH1 0x0 REVERT JUMPDEST POP POP POP POP PUSH1 0x40 MLOAD RETURNDATASIZE PUSH1 0x1F NOT PUSH1 0x1F DUP3 ADD AND DUP3 ADD DUP1 PUSH1 0x40 MSTORE POP DUP2 ADD SWAP1 PUSH2 0x6FE SWAP2 SWAP1 PUSH2 0x16DE JUMP JUMPDEST PUSH20 0xFFFFFFFFFFFFFFFFFFFFFFFFFFFFFFFFFFFFFFFF AND PUSH2 0x8FC DUP4 PUSH20 0xFFFFFFFFFFFFFFFFFFFFFFFFFFFFFFFFFFFFFFFF AND PUSH4 0xD178227A DUP9 DUP9 PUSH1 0x40 MLOAD DUP4 PUSH4 0xFFFFFFFF AND PUSH1 0xE0 SHL DUP2 MSTORE PUSH1 0x4 ADD PUSH2 0x752 SWAP3 SWAP2 SWAP1 PUSH2 0x1AC5 JUMP JUMPDEST PUSH1 0x20 PUSH1 0x40 MLOAD DUP1 DUP4 SUB DUP2 DUP7 DUP1 EXTCODESIZE ISZERO DUP1 ISZERO PUSH2 0x76A JUMPI PUSH1 0x0 DUP1 REVERT JUMPDEST POP GAS STATICCALL ISZERO DUP1 ISZERO PUSH2 0x77E JUMPI RETURNDATASIZE PUSH1 0x0 DUP1 RETURNDATACOPY RETURNDATASIZE PUSH1 0x0 REVERT JUMPDEST POP POP POP POP PUSH1 0x40 MLOAD RETURNDATASIZE PUSH1 0x1F NOT PUSH1 0x1F DUP3 ADD AND DUP3 ADD DUP1 PUSH1 0x40 MSTORE POP DUP2 ADD SWAP1 PUSH2 0x7A2 SWAP2 SWAP1 PUSH2 0x1858 JUMP JUMPDEST PUSH1 0x14 DUP7 PUSH1 0x5 ADD PUSH1 0x0 DUP9 PUSH1 0x4 ADD SLOAD DUP2 MSTORE PUSH1 0x20 ADD SWAP1 DUP2 MSTORE PUSH1 0x20 ADD PUSH1 0x0 KECCAK256 SLOAD PUSH2 0x7C8 SWAP2 SWAP1 PUSH2 0x1D10 JUMP JUMPDEST PUSH2 0x7D2 SWAP2 SWAP1 PUSH2 0x1D10 JUMP JUMPDEST SWAP1 DUP2 ISZERO MUL SWAP1 PUSH1 0x40 MLOAD PUSH1 0x0 PUSH1 0x40 MLOAD DUP1 DUP4 SUB DUP2 DUP6 DUP9 DUP9 CALL SWAP4 POP POP POP POP ISZERO DUP1 ISZERO PUSH2 0x7FD JUMPI RETURNDATASIZE PUSH1 0x0 DUP1 RETURNDATACOPY RETURNDATASIZE PUSH1 0x0 REVERT JUMPDEST POP PUSH2 0x808 JUMP JUMPDEST PUSH2 0x81B JUMP JUMPDEST DUP1 DUP1 PUSH2 0x813 SWAP1 PUSH2 0x1E4D JUMP JUMPDEST SWAP2 POP POP PUSH2 0x5A8 JUMP JUMPDEST POP DUP2 PUSH1 0x5 ADD PUSH1 0x0 DUP4 PUSH1 0x4 ADD SLOAD DUP2 MSTORE PUSH1 0x20 ADD SWAP1 DUP2 MSTORE PUSH1 0x20 ADD PUSH1 0x0 KECCAK256 SLOAD PUSH1 0x1 PUSH1 0x0 DUP3 DUP3 SLOAD PUSH2 0x847 SWAP2 SWAP1 PUSH2 0x1D9B JUMP JUMPDEST SWAP3 POP POP DUP2 SWAP1 SSTORE POP PUSH1 0x0 JUMPDEST DUP3 PUSH1 0x4 ADD SLOAD DUP2 LT ISZERO PUSH2 0x8B0 JUMPI PUSH2 0x89D DUP6 DUP6 DUP6 PUSH1 0x6 ADD PUSH1 0x0 DUP6 DUP2 MSTORE PUSH1 0x20 ADD SWAP1 DUP2 MSTORE PUSH1 0x20 ADD PUSH1 0x0 KECCAK256 PUSH1 0x0 SWAP1 SLOAD SWAP1 PUSH2 0x100 EXP SWAP1 DIV PUSH20 0xFFFFFFFFFFFFFFFFFFFFFFFFFFFFFFFFFFFFFFFF AND PUSH2 0xD69 JUMP JUMPDEST DUP1 DUP1 PUSH2 0x8A8 SWAP1 PUSH2 0x1E4D JUMP JUMPDEST SWAP2 POP POP PUSH2 0x851 JUMP JUMPDEST POP PUSH2 0x972 JUMP JUMPDEST DUP2 PUSH1 0x2 ADD PUSH1 0x0 SWAP1 SLOAD SWAP1 PUSH2 0x100 EXP SWAP1 DIV PUSH20 0xFFFFFFFFFFFFFFFFFFFFFFFFFFFFFFFFFFFFFFFF AND PUSH20 0xFFFFFFFFFFFFFFFFFFFFFFFFFFFFFFFFFFFFFFFF AND PUSH4 0x23B872DD ADDRESS DUP5 PUSH1 0x0 ADD PUSH1 0x0 SWAP1 SLOAD SWAP1 PUSH2 0x100 EXP SWAP1 DIV PUSH20 0xFFFFFFFFFFFFFFFFFFFFFFFFFFFFFFFFFFFFFFFF AND DUP6 PUSH1 0x3 ADD SLOAD PUSH1 0x40 MLOAD DUP5 PUSH4 0xFFFFFFFF AND PUSH1 0xE0 SHL DUP2 MSTORE PUSH1 0x4 ADD PUSH2 0x93F SWAP4 SWAP3 SWAP2 SWAP1 PUSH2 0x1A1F JUMP JUMPDEST PUSH1 0x0 PUSH1 0x40 MLOAD DUP1 DUP4 SUB DUP2 PUSH1 0x0 DUP8 DUP1 EXTCODESIZE ISZERO DUP1 ISZERO PUSH2 0x959 JUMPI PUSH1 0x0 DUP1 REVERT JUMPDEST POP GAS CALL ISZERO DUP1 ISZERO PUSH2 0x96D JUMPI RETURNDATASIZE PUSH1 0x0 DUP1 RETURNDATACOPY RETURNDATASIZE PUSH1 0x0 REVERT JUMPDEST POP POP POP POP JUMPDEST PUSH1 0x1 DUP3 PUSH1 0x0 ADD PUSH1 0x15 PUSH2 0x100 EXP DUP2 SLOAD DUP2 PUSH1 0xFF MUL NOT AND SWAP1 DUP4 ISZERO ISZERO MUL OR SWAP1 SSTORE POP PUSH1 0x0 DUP3 PUSH1 0x0 ADD PUSH1 0x14 PUSH2 0x100 EXP DUP2 SLOAD DUP2 PUSH1 0xFF MUL NOT AND SWAP1 DUP4 ISZERO ISZERO MUL OR SWAP1 SSTORE POP PUSH32 0x7D7570B046E5EAD3A4F3FBC9FA2445113625A1E79823776146316BAFED6B8CC5 DUP3 PUSH1 0x6 ADD PUSH1 0x0 DUP5 PUSH1 0x4 ADD SLOAD DUP2 MSTORE PUSH1 0x20 ADD SWAP1 DUP2 MSTORE PUSH1 0x20 ADD PUSH1 0x0 KECCAK256 PUSH1 0x0 SWAP1 SLOAD SWAP1 PUSH2 0x100 EXP SWAP1 DIV PUSH20 0xFFFFFFFFFFFFFFFFFFFFFFFFFFFFFFFFFFFFFFFF AND DUP4 PUSH1 0x5 ADD PUSH1 0x0 DUP6 PUSH1 0x4 ADD SLOAD DUP2 MSTORE PUSH1 0x20 ADD SWAP1 DUP2 MSTORE PUSH1 0x20 ADD PUSH1 0x0 KECCAK256 SLOAD PUSH1 0x40 MLOAD PUSH2 0xA2F SWAP3 SWAP2 SWAP1 PUSH2 0x1AC5 JUMP JUMPDEST PUSH1 0x40 MLOAD DUP1 SWAP2 SUB SWAP1 LOG1 POP POP POP POP POP JUMP JUMPDEST PUSH1 0x0 DUP1 PUSH1 0x0 DUP5 PUSH20 0xFFFFFFFFFFFFFFFFFFFFFFFFFFFFFFFFFFFFFFFF AND PUSH20 0xFFFFFFFFFFFFFFFFFFFFFFFFFFFFFFFFFFFFFFFF AND DUP2 MSTORE PUSH1 0x20 ADD SWAP1 DUP2 MSTORE PUSH1 0x20 ADD PUSH1 0x0 KECCAK256 PUSH1 0x0 DUP4 DUP2 MSTORE PUSH1 0x20 ADD SWAP1 DUP2 MSTORE PUSH1 0x20 ADD PUSH1 0x0 KECCAK256 SWAP1 POP DUP1 PUSH1 0x0 ADD PUSH1 0x14 SWAP1 SLOAD SWAP1 PUSH2 0x100 EXP SWAP1 DIV PUSH1 0xFF AND PUSH2 0xAE2 JUMPI PUSH1 0x40 MLOAD PUSH32 0x8C379A000000000000000000000000000000000000000000000000000000000 DUP2 MSTORE PUSH1 0x4 ADD PUSH2 0xAD9 SWAP1 PUSH2 0x1C05 JUMP JUMPDEST PUSH1 0x40 MLOAD DUP1 SWAP2 SUB SWAP1 REVERT JUMPDEST DUP1 PUSH1 0x1 ADD SLOAD TIMESTAMP LT PUSH2 0xB28 JUMPI PUSH1 0x40 MLOAD PUSH32 0x8C379A000000000000000000000000000000000000000000000000000000000 DUP2 MSTORE PUSH1 0x4 ADD PUSH2 0xB1F SWAP1 PUSH2 0x1B85 JUMP JUMPDEST PUSH1 0x40 MLOAD DUP1 SWAP2 SUB SWAP1 REVERT JUMPDEST DUP1 PUSH1 0x5 ADD PUSH1 0x0 DUP3 PUSH1 0x4 ADD SLOAD DUP2 MSTORE PUSH1 0x20 ADD SWAP1 DUP2 MSTORE PUSH1 0x20 ADD PUSH1 0x0 KECCAK256 SLOAD CALLVALUE GT PUSH2 0xB83 JUMPI PUSH1 0x40 MLOAD PUSH32 0x8C379A000000000000000000000000000000000000000000000000000000000 DUP2 MSTORE PUSH1 0x4 ADD PUSH2 0xB7A SWAP1 PUSH2 0x1B25 JUMP JUMPDEST PUSH1 0x40 MLOAD DUP1 SWAP2 SUB SWAP1 REVERT JUMPDEST CALLVALUE DUP2 PUSH1 0x5 ADD PUSH1 0x0 DUP4 PUSH1 0x4 ADD SLOAD DUP2 MSTORE PUSH1 0x20 ADD SWAP1 DUP2 MSTORE PUSH1 0x20 ADD PUSH1 0x0 KECCAK256 DUP2 SWAP1 SSTORE POP CALLER DUP2 PUSH1 0x6 ADD PUSH1 0x0 DUP4 PUSH1 0x4 ADD SLOAD DUP2 MSTORE PUSH1 0x20 ADD SWAP1 DUP2 MSTORE PUSH1 0x20 ADD PUSH1 0x0 KECCAK256 PUSH1 0x0 PUSH2 0x100 EXP DUP2 SLOAD DUP2 PUSH20 0xFFFFFFFFFFFFFFFFFFFFFFFFFFFFFFFFFFFFFFFF MUL NOT AND SWAP1 DUP4 PUSH20 0xFFFFFFFFFFFFFFFFFFFFFFFFFFFFFFFFFFFFFFFF AND MUL OR SWAP1 SSTORE POP DUP1 PUSH1 0x5 ADD PUSH1 0x0 DUP3 PUSH1 0x4 ADD SLOAD DUP2 MSTORE PUSH1 0x20 ADD SWAP1 DUP2 MSTORE PUSH1 0x20 ADD PUSH1 0x0 KECCAK256 SLOAD DUP2 PUSH1 0x7 ADD PUSH1 0x0 DUP4 PUSH1 0x6 ADD PUSH1 0x0 DUP6 PUSH1 0x4 ADD SLOAD DUP2 MSTORE PUSH1 0x20 ADD SWAP1 DUP2 MSTORE PUSH1 0x20 ADD PUSH1 0x0 KECCAK256 PUSH1 0x0 SWAP1 SLOAD SWAP1 PUSH2 0x100 EXP SWAP1 DIV PUSH20 0xFFFFFFFFFFFFFFFFFFFFFFFFFFFFFFFFFFFFFFFF AND PUSH20 0xFFFFFFFFFFFFFFFFFFFFFFFFFFFFFFFFFFFFFFFF AND PUSH20 0xFFFFFFFFFFFFFFFFFFFFFFFFFFFFFFFFFFFFFFFF AND DUP2 MSTORE PUSH1 0x20 ADD SWAP1 DUP2 MSTORE PUSH1 0x20 ADD PUSH1 0x0 KECCAK256 DUP2 SWAP1 SSTORE POP DUP1 PUSH1 0x4 ADD PUSH1 0x0 DUP2 SLOAD DUP1 SWAP3 SWAP2 SWAP1 PUSH2 0xCA6 SWAP1 PUSH2 0x1E4D JUMP JUMPDEST SWAP2 SWAP1 POP SSTORE POP CALLVALUE PUSH1 0x1 PUSH1 0x0 DUP3 DUP3 SLOAD PUSH2 0xCBD SWAP2 SWAP1 PUSH2 0x1CBA JUMP JUMPDEST SWAP3 POP POP DUP2 SWAP1 SSTORE POP DUP1 PUSH1 0x6 ADD PUSH1 0x0 DUP3 PUSH1 0x4 ADD SLOAD DUP2 MSTORE PUSH1 0x20 ADD SWAP1 DUP2 MSTORE PUSH1 0x20 ADD PUSH1 0x0 KECCAK256 PUSH1 0x0 SWAP1 SLOAD SWAP1 PUSH2 0x100 EXP SWAP1 DIV PUSH20 0xFFFFFFFFFFFFFFFFFFFFFFFFFFFFFFFFFFFFFFFF AND PUSH20 0xFFFFFFFFFFFFFFFFFFFFFFFFFFFFFFFFFFFFFFFF AND PUSH32 0xE684A55F31B79ECA403DF938249029212A5925EC6BE8012E099B45BC1019E5D2 DUP3 PUSH1 0x5 ADD PUSH1 0x0 DUP5 PUSH1 0x4 ADD SLOAD DUP2 MSTORE PUSH1 0x20 ADD SWAP1 DUP2 MSTORE PUSH1 0x20 ADD PUSH1 0x0 KECCAK256 SLOAD PUSH1 0x40 MLOAD PUSH2 0xD5C SWAP2 SWAP1 PUSH2 0x1C65 JUMP JUMPDEST PUSH1 0x40 MLOAD DUP1 SWAP2 SUB SWAP1 LOG2 POP POP POP JUMP JUMPDEST PUSH1 0x0 DUP1 PUSH1 0x0 DUP6 PUSH20 0xFFFFFFFFFFFFFFFFFFFFFFFFFFFFFFFFFFFFFFFF AND PUSH20 0xFFFFFFFFFFFFFFFFFFFFFFFFFFFFFFFFFFFFFFFF AND DUP2 MSTORE PUSH1 0x20 ADD SWAP1 DUP2 MSTORE PUSH1 0x20 ADD PUSH1 0x0 KECCAK256 PUSH1 0x0 DUP5 DUP2 MSTORE PUSH1 0x20 ADD SWAP1 DUP2 MSTORE PUSH1 0x20 ADD PUSH1 0x0 KECCAK256 SWAP1 POP PUSH1 0x0 DUP2 PUSH1 0x7 ADD PUSH1 0x0 DUP5 PUSH20 0xFFFFFFFFFFFFFFFFFFFFFFFFFFFFFFFFFFFFFFFF AND PUSH20 0xFFFFFFFFFFFFFFFFFFFFFFFFFFFFFFFFFFFFFFFF AND DUP2 MSTORE PUSH1 0x20 ADD SWAP1 DUP2 MSTORE PUSH1 0x20 ADD PUSH1 0x0 KECCAK256 SLOAD SWAP1 POP PUSH1 0x0 DUP2 GT DUP1 ISZERO PUSH2 0xE14 JUMPI POP PUSH1 0x1 SLOAD DUP2 GT ISZERO JUMPDEST PUSH2 0xE53 JUMPI PUSH1 0x40 MLOAD PUSH32 0x8C379A000000000000000000000000000000000000000000000000000000000 DUP2 MSTORE PUSH1 0x4 ADD PUSH2 0xE4A SWAP1 PUSH2 0x1C45 JUMP JUMPDEST PUSH1 0x40 MLOAD DUP1 SWAP2 SUB SWAP1 REVERT JUMPDEST PUSH1 0x0 DUP3 PUSH1 0x7 ADD PUSH1 0x0 DUP6 PUSH20 0xFFFFFFFFFFFFFFFFFFFFFFFFFFFFFFFFFFFFFFFF AND PUSH20 0xFFFFFFFFFFFFFFFFFFFFFFFFFFFFFFFFFFFFFFFF AND DUP2 MSTORE PUSH1 0x20 ADD SWAP1 DUP2 MSTORE PUSH1 0x20 ADD PUSH1 0x0 KECCAK256 DUP2 SWAP1 SSTORE POP DUP3 PUSH20 0xFFFFFFFFFFFFFFFFFFFFFFFFFFFFFFFFFFFFFFFF AND PUSH2 0x8FC DUP3 SWAP1 DUP2 ISZERO MUL SWAP1 PUSH1 0x40 MLOAD PUSH1 0x0 PUSH1 0x40 MLOAD DUP1 DUP4 SUB DUP2 DUP6 DUP9 DUP9 CALL SWAP4 POP POP POP POP ISZERO DUP1 ISZERO PUSH2 0xEE0 JUMPI RETURNDATASIZE PUSH1 0x0 DUP1 RETURNDATACOPY RETURNDATASIZE PUSH1 0x0 REVERT JUMPDEST POP DUP1 PUSH1 0x1 PUSH1 0x0 DUP3 DUP3 SLOAD PUSH2 0xEF3 SWAP2 SWAP1 PUSH2 0x1D9B JUMP JUMPDEST SWAP3 POP POP DUP2 SWAP1 SSTORE POP DUP3 PUSH20 0xFFFFFFFFFFFFFFFFFFFFFFFFFFFFFFFFFFFFFFFF AND PUSH32 0x884EDAD9CE6FA2440D8A54CC123490EB96D2768479D49FF9C7366125A9424364 DUP3 PUSH1 0x40 MLOAD PUSH2 0xF40 SWAP2 SWAP1 PUSH2 0x1C65 JUMP JUMPDEST PUSH1 0x40 MLOAD DUP1 SWAP2 SUB SWAP1 LOG2 POP POP POP POP POP JUMP JUMPDEST PUSH1 0x1 SLOAD DUP2 JUMP JUMPDEST PUSH1 0x0 DUP1 PUSH1 0x0 DUP7 PUSH20 0xFFFFFFFFFFFFFFFFFFFFFFFFFFFFFFFFFFFFFFFF AND PUSH20 0xFFFFFFFFFFFFFFFFFFFFFFFFFFFFFFFFFFFFFFFF AND DUP2 MSTORE PUSH1 0x20 ADD SWAP1 DUP2 MSTORE PUSH1 0x20 ADD PUSH1 0x0 KECCAK256 PUSH1 0x0 DUP6 DUP2 MSTORE PUSH1 0x20 ADD SWAP1 DUP2 MSTORE PUSH1 0x20 ADD PUSH1 0x0 KECCAK256 SWAP1 POP DUP5 DUP2 PUSH1 0x2 ADD PUSH1 0x0 PUSH2 0x100 EXP DUP2 SLOAD DUP2 PUSH20 0xFFFFFFFFFFFFFFFFFFFFFFFFFFFFFFFFFFFFFFFF MUL NOT AND SWAP1 DUP4 PUSH20 0xFFFFFFFFFFFFFFFFFFFFFFFFFFFFFFFFFFFFFFFF AND MUL OR SWAP1 SSTORE POP DUP1 PUSH1 0x2 ADD PUSH1 0x0 SWAP1 SLOAD SWAP1 PUSH2 0x100 EXP SWAP1 DIV PUSH20 0xFFFFFFFFFFFFFFFFFFFFFFFFFFFFFFFFFFFFFFFF AND PUSH20 0xFFFFFFFFFFFFFFFFFFFFFFFFFFFFFFFFFFFFFFFF AND PUSH4 0x6352211E DUP6 PUSH1 0x40 MLOAD DUP3 PUSH4 0xFFFFFFFF AND PUSH1 0xE0 SHL DUP2 MSTORE PUSH1 0x4 ADD PUSH2 0x1048 SWAP2 SWAP1 PUSH2 0x1C65 JUMP JUMPDEST PUSH1 0x20 PUSH1 0x40 MLOAD DUP1 DUP4 SUB DUP2 DUP7 DUP1 EXTCODESIZE ISZERO DUP1 ISZERO PUSH2 0x1060 JUMPI PUSH1 0x0 DUP1 REVERT JUMPDEST POP GAS STATICCALL ISZERO DUP1 ISZERO PUSH2 0x1074 JUMPI RETURNDATASIZE PUSH1 0x0 DUP1 RETURNDATACOPY RETURNDATASIZE PUSH1 0x0 REVERT JUMPDEST POP POP POP POP PUSH1 0x40 MLOAD RETURNDATASIZE PUSH1 0x1F NOT PUSH1 0x1F DUP3 ADD AND DUP3 ADD DUP1 PUSH1 0x40 MSTORE POP DUP2 ADD SWAP1 PUSH2 0x1098 SWAP2 SWAP1 PUSH2 0x16DE JUMP JUMPDEST DUP2 PUSH1 0x0 ADD PUSH1 0x0 PUSH2 0x100 EXP DUP2 SLOAD DUP2 PUSH20 0xFFFFFFFFFFFFFFFFFFFFFFFFFFFFFFFFFFFFFFFF MUL NOT AND SWAP1 DUP4 PUSH20 0xFFFFFFFFFFFFFFFFFFFFFFFFFFFFFFFFFFFFFFFF AND MUL OR SWAP1 SSTORE POP PUSH1 0x0 DUP2 PUSH1 0x0 ADD PUSH1 0x15 PUSH2 0x100 EXP DUP2 SLOAD DUP2 PUSH1 0xFF MUL NOT AND SWAP1 DUP4 ISZERO ISZERO MUL OR SWAP1 SSTORE POP DUP1 PUSH1 0x0 ADD PUSH1 0x14 SWAP1 SLOAD SWAP1 PUSH2 0x100 EXP SWAP1 DIV PUSH1 0xFF AND ISZERO PUSH2 0x1149 JUMPI PUSH1 0x40 MLOAD PUSH32 0x8C379A000000000000000000000000000000000000000000000000000000000 DUP2 MSTORE PUSH1 0x4 ADD PUSH2 0x1140 SWAP1 PUSH2 0x1B65 JUMP JUMPDEST PUSH1 0x40 MLOAD DUP1 SWAP2 SUB SWAP1 REVERT JUMPDEST DUP1 PUSH1 0x0 ADD PUSH1 0x0 SWAP1 SLOAD SWAP1 PUSH2 0x100 EXP SWAP1 DIV PUSH20 0xFFFFFFFFFFFFFFFFFFFFFFFFFFFFFFFFFFFFFFFF AND PUSH20 0xFFFFFFFFFFFFFFFFFFFFFFFFFFFFFFFFFFFFFFFF AND CALLER PUSH20 0xFFFFFFFFFFFFFFFFFFFFFFFFFFFFFFFFFFFFFFFF AND EQ PUSH2 0x11DB JUMPI PUSH1 0x40 MLOAD PUSH32 0x8C379A000000000000000000000000000000000000000000000000000000000 DUP2 MSTORE PUSH1 0x4 ADD PUSH2 0x11D2 SWAP1 PUSH2 0x1BE5 JUMP JUMPDEST PUSH1 0x40 MLOAD DUP1 SWAP2 SUB SWAP1 REVERT JUMPDEST PUSH1 0x0 DUP2 PUSH1 0x4 ADD DUP2 SWAP1 SSTORE POP DUP3 DUP2 PUSH1 0x5 ADD PUSH1 0x0 DUP4 PUSH1 0x4 ADD SLOAD DUP2 MSTORE PUSH1 0x20 ADD SWAP1 DUP2 MSTORE PUSH1 0x20 ADD PUSH1 0x0 KECCAK256 DUP2 SWAP1 SSTORE POP DUP1 PUSH1 0x4 ADD PUSH1 0x0 DUP2 SLOAD DUP1 SWAP3 SWAP2 SWAP1 PUSH2 0x1218 SWAP1 PUSH2 0x1E4D JUMP JUMPDEST SWAP2 SWAP1 POP SSTORE POP DUP4 DUP2 PUSH1 0x3 ADD DUP2 SWAP1 SSTORE POP DUP1 PUSH1 0x2 ADD PUSH1 0x0 SWAP1 SLOAD SWAP1 PUSH2 0x100 EXP SWAP1 DIV PUSH20 0xFFFFFFFFFFFFFFFFFFFFFFFFFFFFFFFFFFFFFFFF AND PUSH20 0xFFFFFFFFFFFFFFFFFFFFFFFFFFFFFFFFFFFFFFFF AND PUSH4 0x23B872DD CALLER ADDRESS DUP5 PUSH1 0x3 ADD SLOAD PUSH1 0x40 MLOAD DUP5 PUSH4 0xFFFFFFFF AND PUSH1 0xE0 SHL DUP2 MSTORE PUSH1 0x4 ADD PUSH2 0x128B SWAP4 SWAP3 SWAP2 SWAP1 PUSH2 0x1A1F JUMP JUMPDEST PUSH1 0x0 PUSH1 0x40 MLOAD DUP1 DUP4 SUB DUP2 PUSH1 0x0 DUP8 DUP1 EXTCODESIZE ISZERO DUP1 ISZERO PUSH2 0x12A5 JUMPI PUSH1 0x0 DUP1 REVERT JUMPDEST POP GAS CALL ISZERO DUP1 ISZERO PUSH2 0x12B9 JUMPI RETURNDATASIZE PUSH1 0x0 DUP1 RETURNDATACOPY RETURNDATASIZE PUSH1 0x0 REVERT JUMPDEST POP POP POP POP PUSH1 0x1 DUP2 PUSH1 0x0 ADD PUSH1 0x14 PUSH2 0x100 EXP DUP2 SLOAD DUP2 PUSH1 0xFF MUL NOT AND SWAP1 DUP4 ISZERO ISZERO MUL OR SWAP1 SSTORE POP PUSH3 0x15180 DUP3 PUSH2 0x12E9 SWAP2 SWAP1 PUSH2 0x1D41 JUMP JUMPDEST TIMESTAMP PUSH2 0x12F4 SWAP2 SWAP1 PUSH2 0x1CBA JUMP JUMPDEST DUP2 PUSH1 0x1 ADD DUP2 SWAP1 SSTORE POP DUP4 DUP6 PUSH20 0xFFFFFFFFFFFFFFFFFFFFFFFFFFFFFFFFFFFFFFFF AND PUSH32 0x3B305515DBE345238649F5CE343C57AE67D5727443F8D744B2B793C3231E3AD9 DUP6 DUP5 PUSH1 0x1 ADD SLOAD PUSH1 0x40 MLOAD PUSH2 0x1349 SWAP3 SWAP2 SWAP1 PUSH2 0x1C80 JUMP JUMPDEST PUSH1 0x40 MLOAD DUP1 SWAP2 SUB SWAP1 LOG3 POP POP POP POP POP JUMP JUMPDEST PUSH1 0x0 DUP1 PUSH1 0x0 DUP5 PUSH20 0xFFFFFFFFFFFFFFFFFFFFFFFFFFFFFFFFFFFFFFFF AND PUSH20 0xFFFFFFFFFFFFFFFFFFFFFFFFFFFFFFFFFFFFFFFF AND DUP2 MSTORE PUSH1 0x20 ADD SWAP1 DUP2 MSTORE PUSH1 0x20 ADD PUSH1 0x0 KECCAK256 PUSH1 0x0 DUP4 DUP2 MSTORE PUSH1 0x20 ADD SWAP1 DUP2 MSTORE PUSH1 0x20 ADD PUSH1 0x0 KECCAK256 SWAP1 POP PUSH1 0x0 DUP2 PUSH1 0x7 ADD PUSH1 0x0 CALLER PUSH20 0xFFFFFFFFFFFFFFFFFFFFFFFFFFFFFFFFFFFFFFFF AND PUSH20 0xFFFFFFFFFFFFFFFFFFFFFFFFFFFFFFFFFFFFFFFF AND DUP2 MSTORE PUSH1 0x20 ADD SWAP1 DUP2 MSTORE PUSH1 0x20 ADD PUSH1 0x0 KECCAK256 SLOAD SWAP1 POP PUSH1 0x0 DUP2 EQ ISZERO DUP1 ISZERO PUSH2 0x1404 JUMPI POP PUSH1 0x1 SLOAD DUP2 GT ISZERO JUMPDEST PUSH2 0x1443 JUMPI PUSH1 0x40 MLOAD PUSH32 0x8C379A000000000000000000000000000000000000000000000000000000000 DUP2 MSTORE PUSH1 0x4 ADD PUSH2 0x143A SWAP1 PUSH2 0x1C45 JUMP JUMPDEST PUSH1 0x40 MLOAD DUP1 SWAP2 SUB SWAP1 REVERT JUMPDEST DUP2 PUSH1 0x0 ADD PUSH1 0x14 SWAP1 SLOAD SWAP1 PUSH2 0x100 EXP SWAP1 DIV PUSH1 0xFF AND ISZERO PUSH2 0x1495 JUMPI PUSH1 0x40 MLOAD PUSH32 0x8C379A000000000000000000000000000000000000000000000000000000000 DUP2 MSTORE PUSH1 0x4 ADD PUSH2 0x148C SWAP1 PUSH2 0x1BA5 JUMP JUMPDEST PUSH1 0x40 MLOAD DUP1 SWAP2 SUB SWAP1 REVERT JUMPDEST DUP2 PUSH1 0x0 ADD PUSH1 0x15 SWAP1 SLOAD SWAP1 PUSH2 0x100 EXP SWAP1 DIV PUSH1 0xFF AND PUSH2 0x14E6 JUMPI PUSH1 0x40 MLOAD PUSH32 0x8C379A000000000000000000000000000000000000000000000000000000000 DUP2 MSTORE PUSH1 0x4 ADD PUSH2 0x14DD SWAP1 PUSH2 0x1BA5 JUMP JUMPDEST PUSH1 0x40 MLOAD DUP1 SWAP2 SUB SWAP1 REVERT JUMPDEST PUSH1 0x0 DUP3 PUSH1 0x7 ADD PUSH1 0x0 CALLER PUSH20 0xFFFFFFFFFFFFFFFFFFFFFFFFFFFFFFFFFFFFFFFF AND PUSH20 0xFFFFFFFFFFFFFFFFFFFFFFFFFFFFFFFFFFFFFFFF AND DUP2 MSTORE PUSH1 0x20 ADD SWAP1 DUP2 MSTORE PUSH1 0x20 ADD PUSH1 0x0 KECCAK256 DUP2 SWAP1 SSTORE POP CALLER PUSH20 0xFFFFFFFFFFFFFFFFFFFFFFFFFFFFFFFFFFFFFFFF AND PUSH2 0x8FC DUP3 SWAP1 DUP2 ISZERO MUL SWAP1 PUSH1 0x40 MLOAD PUSH1 0x0 PUSH1 0x40 MLOAD DUP1 DUP4 SUB DUP2 DUP6 DUP9 DUP9 CALL SWAP4 POP POP POP POP ISZERO DUP1 ISZERO PUSH2 0x1573 JUMPI RETURNDATASIZE PUSH1 0x0 DUP1 RETURNDATACOPY RETURNDATASIZE PUSH1 0x0 REVERT JUMPDEST POP DUP1 PUSH1 0x1 PUSH1 0x0 DUP3 DUP3 SLOAD PUSH2 0x1586 SWAP2 SWAP1 PUSH2 0x1D9B JUMP JUMPDEST SWAP3 POP POP DUP2 SWAP1 SSTORE POP CALLER PUSH20 0xFFFFFFFFFFFFFFFFFFFFFFFFFFFFFFFFFFFFFFFF AND PUSH32 0x884EDAD9CE6FA2440D8A54CC123490EB96D2768479D49FF9C7366125A9424364 DUP3 PUSH1 0x40 MLOAD PUSH2 0x15D3 SWAP2 SWAP1 PUSH2 0x1C65 JUMP JUMPDEST PUSH1 0x40 MLOAD DUP1 SWAP2 SUB SWAP1 LOG2 POP POP POP POP JUMP JUMPDEST PUSH1 0x0 PUSH1 0x20 MSTORE DUP2 PUSH1 0x0 MSTORE PUSH1 0x40 PUSH1 0x0 KECCAK256 PUSH1 0x20 MSTORE DUP1 PUSH1 0x0 MSTORE PUSH1 0x40 PUSH1 0x0 KECCAK256 PUSH1 0x0 SWAP2 POP SWAP2 POP POP DUP1 PUSH1 0x0 ADD PUSH1 0x0 SWAP1 SLOAD SWAP1 PUSH2 0x100 EXP SWAP1 DIV PUSH20 0xFFFFFFFFFFFFFFFFFFFFFFFFFFFFFFFFFFFFFFFF AND SWAP1 DUP1 PUSH1 0x0 ADD PUSH1 0x14 SWAP1 SLOAD SWAP1 PUSH2 0x100 EXP SWAP1 DIV PUSH1 0xFF AND SWAP1 DUP1 PUSH1 0x0 ADD PUSH1 0x15 SWAP1 SLOAD SWAP1 PUSH2 0x100 EXP SWAP1 DIV PUSH1 0xFF AND SWAP1 DUP1 PUSH1 0x1 ADD SLOAD SWAP1 DUP1 PUSH1 0x2 ADD PUSH1 0x0 SWAP1 SLOAD SWAP1 PUSH2 0x100 EXP SWAP1 DIV PUSH20 0xFFFFFFFFFFFFFFFFFFFFFFFFFFFFFFFFFFFFFFFF AND SWAP1 DUP1 PUSH1 0x3 ADD SLOAD SWAP1 DUP1 PUSH1 0x4 ADD SLOAD SWAP1 POP DUP8 JUMP JUMPDEST PUSH1 0x0 DUP2 CALLDATALOAD SWAP1 POP PUSH2 0x1699 DUP2 PUSH2 0x2093 JUMP JUMPDEST SWAP3 SWAP2 POP POP JUMP JUMPDEST PUSH1 0x0 DUP2 MLOAD SWAP1 POP PUSH2 0x16AE DUP2 PUSH2 0x2093 JUMP JUMPDEST SWAP3 SWAP2 POP POP JUMP JUMPDEST PUSH1 0x0 DUP2 CALLDATALOAD SWAP1 POP PUSH2 0x16C3 DUP2 PUSH2 0x20AA JUMP JUMPDEST SWAP3 SWAP2 POP POP JUMP JUMPDEST PUSH1 0x0 DUP2 MLOAD SWAP1 POP PUSH2 0x16D8 DUP2 PUSH2 0x20AA JUMP JUMPDEST SWAP3 SWAP2 POP POP JUMP JUMPDEST PUSH1 0x0 PUSH1 0x20 DUP3 DUP5 SUB SLT ISZERO PUSH2 0x16F4 JUMPI PUSH2 0x16F3 PUSH2 0x1EF4 JUMP JUMPDEST JUMPDEST PUSH1 0x0 PUSH2 0x1702 DUP5 DUP3 DUP6 ADD PUSH2 0x169F JUMP JUMPDEST SWAP2 POP POP SWAP3 SWAP2 POP POP JUMP JUMPDEST PUSH1 0x0 DUP1 PUSH1 0x0 PUSH1 0x60 DUP5 DUP7 SUB SLT ISZERO PUSH2 0x1724 JUMPI PUSH2 0x1723 PUSH2 0x1EF4 JUMP JUMPDEST JUMPDEST PUSH1 0x0 PUSH2 0x1732 DUP7 DUP3 DUP8 ADD PUSH2 0x168A JUMP JUMPDEST SWAP4 POP POP PUSH1 0x20 PUSH2 0x1743 DUP7 DUP3 DUP8 ADD PUSH2 0x168A JUMP JUMPDEST SWAP3 POP POP PUSH1 0x40 PUSH2 0x1754 DUP7 DUP3 DUP8 ADD PUSH2 0x16B4 JUMP JUMPDEST SWAP2 POP POP SWAP3 POP SWAP3 POP SWAP3 JUMP JUMPDEST PUSH1 0x0 DUP1 PUSH1 0x40 DUP4 DUP6 SUB SLT ISZERO PUSH2 0x1775 JUMPI PUSH2 0x1774 PUSH2 0x1EF4 JUMP JUMPDEST JUMPDEST PUSH1 0x0 PUSH2 0x1783 DUP6 DUP3 DUP7 ADD PUSH2 0x168A JUMP JUMPDEST SWAP3 POP POP PUSH1 0x20 PUSH2 0x1794 DUP6 DUP3 DUP7 ADD PUSH2 0x16B4 JUMP JUMPDEST SWAP2 POP POP SWAP3 POP SWAP3 SWAP1 POP JUMP JUMPDEST PUSH1 0x0 DUP1 PUSH1 0x0 PUSH1 0x60 DUP5 DUP7 SUB SLT ISZERO PUSH2 0x17B7 JUMPI PUSH2 0x17B6 PUSH2 0x1EF4 JUMP JUMPDEST JUMPDEST PUSH1 0x0 PUSH2 0x17C5 DUP7 DUP3 DUP8 ADD PUSH2 0x168A JUMP JUMPDEST SWAP4 POP POP PUSH1 0x20 PUSH2 0x17D6 DUP7 DUP3 DUP8 ADD PUSH2 0x16B4 JUMP JUMPDEST SWAP3 POP POP PUSH1 0x40 PUSH2 0x17E7 DUP7 DUP3 DUP8 ADD PUSH2 0x168A JUMP JUMPDEST SWAP2 POP POP SWAP3 POP SWAP3 POP SWAP3 JUMP JUMPDEST PUSH1 0x0 DUP1 PUSH1 0x0 DUP1 PUSH1 0x80 DUP6 DUP8 SUB SLT ISZERO PUSH2 0x180B JUMPI PUSH2 0x180A PUSH2 0x1EF4 JUMP JUMPDEST JUMPDEST PUSH1 0x0 PUSH2 0x1819 DUP8 DUP3 DUP9 ADD PUSH2 0x168A JUMP JUMPDEST SWAP5 POP POP PUSH1 0x20 PUSH2 0x182A DUP8 DUP3 DUP9 ADD PUSH2 0x16B4 JUMP JUMPDEST SWAP4 POP POP PUSH1 0x40 PUSH2 0x183B DUP8 DUP3 DUP9 ADD PUSH2 0x16B4 JUMP JUMPDEST SWAP3 POP POP PUSH1 0x60 PUSH2 0x184C DUP8 DUP3 DUP9 ADD PUSH2 0x16B4 JUMP JUMPDEST SWAP2 POP POP SWAP3 SWAP6 SWAP2 SWAP5 POP SWAP3 POP JUMP JUMPDEST PUSH1 0x0 PUSH1 0x20 DUP3 DUP5 SUB SLT ISZERO PUSH2 0x186E JUMPI PUSH2 0x186D PUSH2 0x1EF4 JUMP JUMPDEST JUMPDEST PUSH1 0x0 PUSH2 0x187C DUP5 DUP3 DUP6 ADD PUSH2 0x16C9 JUMP JUMPDEST SWAP2 POP POP SWAP3 SWAP2 POP POP JUMP JUMPDEST PUSH2 0x188E DUP2 PUSH2 0x1DCF JUMP JUMPDEST DUP3 MSTORE POP POP JUMP JUMPDEST PUSH2 0x189D DUP2 PUSH2 0x1DE1 JUMP JUMPDEST DUP3 MSTORE POP POP JUMP JUMPDEST PUSH2 0x18AC DUP2 PUSH2 0x1E17 JUMP JUMPDEST DUP3 MSTORE POP POP JUMP JUMPDEST PUSH1 0x0 PUSH2 0x18BF PUSH1 0xA DUP4 PUSH2 0x1CA9 JUMP JUMPDEST SWAP2 POP PUSH2 0x18CA DUP3 PUSH2 0x1EF9 JUMP JUMPDEST PUSH1 0x20 DUP3 ADD SWAP1 POP SWAP2 SWAP1 POP JUMP JUMPDEST PUSH1 0x0 PUSH2 0x18E2 PUSH1 0x19 DUP4 PUSH2 0x1CA9 JUMP JUMPDEST SWAP2 POP PUSH2 0x18ED DUP3 PUSH2 0x1F22 JUMP JUMPDEST PUSH1 0x20 DUP3 ADD SWAP1 POP SWAP2 SWAP1 POP JUMP JUMPDEST PUSH1 0x0 PUSH2 0x1905 PUSH1 0x10 DUP4 PUSH2 0x1CA9 JUMP JUMPDEST SWAP2 POP PUSH2 0x1910 DUP3 PUSH2 0x1F4B JUMP JUMPDEST PUSH1 0x20 DUP3 ADD SWAP1 POP SWAP2 SWAP1 POP JUMP JUMPDEST PUSH1 0x0 PUSH2 0x1928 PUSH1 0x6 DUP4 PUSH2 0x1CA9 JUMP JUMPDEST SWAP2 POP PUSH2 0x1933 DUP3 PUSH2 0x1F74 JUMP JUMPDEST PUSH1 0x20 DUP3 ADD SWAP1 POP SWAP2 SWAP1 POP JUMP JUMPDEST PUSH1 0x0 PUSH2 0x194B PUSH1 0x14 DUP4 PUSH2 0x1CA9 JUMP JUMPDEST SWAP2 POP PUSH2 0x1956 DUP3 PUSH2 0x1F9D JUMP JUMPDEST PUSH1 0x20 DUP3 ADD SWAP1 POP SWAP2 SWAP1 POP JUMP JUMPDEST PUSH1 0x0 PUSH2 0x196E PUSH1 0x18 DUP4 PUSH2 0x1CA9 JUMP JUMPDEST SWAP2 POP PUSH2 0x1979 DUP3 PUSH2 0x1FC6 JUMP JUMPDEST PUSH1 0x20 DUP3 ADD SWAP1 POP SWAP2 SWAP1 POP JUMP JUMPDEST PUSH1 0x0 PUSH2 0x1991 PUSH1 0x1E DUP4 PUSH2 0x1CA9 JUMP JUMPDEST SWAP2 POP PUSH2 0x199C DUP3 PUSH2 0x1FEF JUMP JUMPDEST PUSH1 0x20 DUP3 ADD SWAP1 POP SWAP2 SWAP1 POP JUMP JUMPDEST PUSH1 0x0 PUSH2 0x19B4 PUSH1 0xC DUP4 PUSH2 0x1CA9 JUMP JUMPDEST SWAP2 POP PUSH2 0x19BF DUP3 PUSH2 0x2018 JUMP JUMPDEST PUSH1 0x20 DUP3 ADD SWAP1 POP SWAP2 SWAP1 POP JUMP JUMPDEST PUSH1 0x0 PUSH2 0x19D7 PUSH1 0x16 DUP4 PUSH2 0x1CA9 JUMP JUMPDEST SWAP2 POP PUSH2 0x19E2 DUP3 PUSH2 0x2041 JUMP JUMPDEST PUSH1 0x20 DUP3 ADD SWAP1 POP SWAP2 SWAP1 POP JUMP JUMPDEST PUSH1 0x0 PUSH2 0x19FA PUSH1 0x12 DUP4 PUSH2 0x1CA9 JUMP JUMPDEST SWAP2 POP PUSH2 0x1A05 DUP3 PUSH2 0x206A JUMP JUMPDEST PUSH1 0x20 DUP3 ADD SWAP1 POP SWAP2 SWAP1 POP JUMP JUMPDEST PUSH2 0x1A19 DUP2 PUSH2 0x1E0D JUMP JUMPDEST DUP3 MSTORE POP POP JUMP JUMPDEST PUSH1 0x0 PUSH1 0x60 DUP3 ADD SWAP1 POP PUSH2 0x1A34 PUSH1 0x0 DUP4 ADD DUP7 PUSH2 0x1885 JUMP JUMPDEST PUSH2 0x1A41 PUSH1 0x20 DUP4 ADD DUP6 PUSH2 0x1885 JUMP JUMPDEST PUSH2 0x1A4E PUSH1 0x40 DUP4 ADD DUP5 PUSH2 0x1A10 JUMP JUMPDEST SWAP5 SWAP4 POP POP POP POP JUMP JUMPDEST PUSH1 0x0 PUSH1 0xE0 DUP3 ADD SWAP1 POP PUSH2 0x1A6B PUSH1 0x0 DUP4 ADD DUP11 PUSH2 0x1885 JUMP JUMPDEST PUSH2 0x1A78 PUSH1 0x20 DUP4 ADD DUP10 PUSH2 0x1894 JUMP JUMPDEST PUSH2 0x1A85 PUSH1 0x40 DUP4 ADD DUP9 PUSH2 0x1894 JUMP JUMPDEST PUSH2 0x1A92 PUSH1 0x60 DUP4 ADD DUP8 PUSH2 0x1A10 JUMP JUMPDEST PUSH2 0x1A9F PUSH1 0x80 DUP4 ADD DUP7 PUSH2 0x18A3 JUMP JUMPDEST PUSH2 0x1AAC PUSH1 0xA0 DUP4 ADD DUP6 PUSH2 0x1A10 JUMP JUMPDEST PUSH2 0x1AB9 PUSH1 0xC0 DUP4 ADD DUP5 PUSH2 0x1A10 JUMP JUMPDEST SWAP9 SWAP8 POP POP POP POP POP POP POP POP JUMP JUMPDEST PUSH1 0x0 PUSH1 0x40 DUP3 ADD SWAP1 POP PUSH2 0x1ADA PUSH1 0x0 DUP4 ADD DUP6 PUSH2 0x1885 JUMP JUMPDEST PUSH2 0x1AE7 PUSH1 0x20 DUP4 ADD DUP5 PUSH2 0x1A10 JUMP JUMPDEST SWAP4 SWAP3 POP POP POP JUMP JUMPDEST PUSH1 0x0 PUSH1 0x60 DUP3 ADD SWAP1 POP PUSH2 0x1B03 PUSH1 0x0 DUP4 ADD DUP7 PUSH2 0x1885 JUMP JUMPDEST PUSH2 0x1B10 PUSH1 0x20 DUP4 ADD DUP6 PUSH2 0x1A10 JUMP JUMPDEST PUSH2 0x1B1D PUSH1 0x40 DUP4 ADD DUP5 PUSH2 0x1A10 JUMP JUMPDEST SWAP5 SWAP4 POP POP POP POP JUMP JUMPDEST PUSH1 0x0 PUSH1 0x20 DUP3 ADD SWAP1 POP DUP2 DUP2 SUB PUSH1 0x0 DUP4 ADD MSTORE PUSH2 0x1B3E DUP2 PUSH2 0x18B2 JUMP JUMPDEST SWAP1 POP SWAP2 SWAP1 POP JUMP JUMPDEST PUSH1 0x0 PUSH1 0x20 DUP3 ADD SWAP1 POP DUP2 DUP2 SUB PUSH1 0x0 DUP4 ADD MSTORE PUSH2 0x1B5E DUP2 PUSH2 0x18D5 JUMP JUMPDEST SWAP1 POP SWAP2 SWAP1 POP JUMP JUMPDEST PUSH1 0x0 PUSH1 0x20 DUP3 ADD SWAP1 POP DUP2 DUP2 SUB PUSH1 0x0 DUP4 ADD MSTORE PUSH2 0x1B7E DUP2 PUSH2 0x18F8 JUMP JUMPDEST SWAP1 POP SWAP2 SWAP1 POP JUMP JUMPDEST PUSH1 0x0 PUSH1 0x20 DUP3 ADD SWAP1 POP DUP2 DUP2 SUB PUSH1 0x0 DUP4 ADD MSTORE PUSH2 0x1B9E DUP2 PUSH2 0x191B JUMP JUMPDEST SWAP1 POP SWAP2 SWAP1 POP JUMP JUMPDEST PUSH1 0x0 PUSH1 0x20 DUP3 ADD SWAP1 POP DUP2 DUP2 SUB PUSH1 0x0 DUP4 ADD MSTORE PUSH2 0x1BBE DUP2 PUSH2 0x193E JUMP JUMPDEST SWAP1 POP SWAP2 SWAP1 POP JUMP JUMPDEST PUSH1 0x0 PUSH1 0x20 DUP3 ADD SWAP1 POP DUP2 DUP2 SUB PUSH1 0x0 DUP4 ADD MSTORE PUSH2 0x1BDE DUP2 PUSH2 0x1961 JUMP JUMPDEST SWAP1 POP SWAP2 SWAP1 POP JUMP JUMPDEST PUSH1 0x0 PUSH1 0x20 DUP3 ADD SWAP1 POP DUP2 DUP2 SUB PUSH1 0x0 DUP4 ADD MSTORE PUSH2 0x1BFE DUP2 PUSH2 0x1984 JUMP JUMPDEST SWAP1 POP SWAP2 SWAP1 POP JUMP JUMPDEST PUSH1 0x0 PUSH1 0x20 DUP3 ADD SWAP1 POP DUP2 DUP2 SUB PUSH1 0x0 DUP4 ADD MSTORE PUSH2 0x1C1E DUP2 PUSH2 0x19A7 JUMP JUMPDEST SWAP1 POP SWAP2 SWAP1 POP JUMP JUMPDEST PUSH1 0x0 PUSH1 0x20 DUP3 ADD SWAP1 POP DUP2 DUP2 SUB PUSH1 0x0 DUP4 ADD MSTORE PUSH2 0x1C3E DUP2 PUSH2 0x19CA JUMP JUMPDEST SWAP1 POP SWAP2 SWAP1 POP JUMP JUMPDEST PUSH1 0x0 PUSH1 0x20 DUP3 ADD SWAP1 POP DUP2 DUP2 SUB PUSH1 0x0 DUP4 ADD MSTORE PUSH2 0x1C5E DUP2 PUSH2 0x19ED JUMP JUMPDEST SWAP1 POP SWAP2 SWAP1 POP JUMP JUMPDEST PUSH1 0x0 PUSH1 0x20 DUP3 ADD SWAP1 POP PUSH2 0x1C7A PUSH1 0x0 DUP4 ADD DUP5 PUSH2 0x1A10 JUMP JUMPDEST SWAP3 SWAP2 POP POP JUMP JUMPDEST PUSH1 0x0 PUSH1 0x40 DUP3 ADD SWAP1 POP PUSH2 0x1C95 PUSH1 0x0 DUP4 ADD DUP6 PUSH2 0x1A10 JUMP JUMPDEST PUSH2 0x1CA2 PUSH1 0x20 DUP4 ADD DUP5 PUSH2 0x1A10 JUMP JUMPDEST SWAP4 SWAP3 POP POP POP JUMP JUMPDEST PUSH1 0x0 DUP3 DUP3 MSTORE PUSH1 0x20 DUP3 ADD SWAP1 POP SWAP3 SWAP2 POP POP JUMP JUMPDEST PUSH1 0x0 PUSH2 0x1CC5 DUP3 PUSH2 0x1E0D JUMP JUMPDEST SWAP2 POP PUSH2 0x1CD0 DUP4 PUSH2 0x1E0D JUMP JUMPDEST SWAP3 POP DUP3 PUSH32 0xFFFFFFFFFFFFFFFFFFFFFFFFFFFFFFFFFFFFFFFFFFFFFFFFFFFFFFFFFFFFFFFF SUB DUP3 GT ISZERO PUSH2 0x1D05 JUMPI PUSH2 0x1D04 PUSH2 0x1E96 JUMP JUMPDEST JUMPDEST DUP3 DUP3 ADD SWAP1 POP SWAP3 SWAP2 POP POP JUMP JUMPDEST PUSH1 0x0 PUSH2 0x1D1B DUP3 PUSH2 0x1E0D JUMP JUMPDEST SWAP2 POP PUSH2 0x1D26 DUP4 PUSH2 0x1E0D JUMP JUMPDEST SWAP3 POP DUP3 PUSH2 0x1D36 JUMPI PUSH2 0x1D35 PUSH2 0x1EC5 JUMP JUMPDEST JUMPDEST DUP3 DUP3 DIV SWAP1 POP SWAP3 SWAP2 POP POP JUMP JUMPDEST PUSH1 0x0 PUSH2 0x1D4C DUP3 PUSH2 0x1E0D JUMP JUMPDEST SWAP2 POP PUSH2 0x1D57 DUP4 PUSH2 0x1E0D JUMP JUMPDEST SWAP3 POP DUP2 PUSH32 0xFFFFFFFFFFFFFFFFFFFFFFFFFFFFFFFFFFFFFFFFFFFFFFFFFFFFFFFFFFFFFFFF DIV DUP4 GT DUP3 ISZERO ISZERO AND ISZERO PUSH2 0x1D90 JUMPI PUSH2 0x1D8F PUSH2 0x1E96 JUMP JUMPDEST JUMPDEST DUP3 DUP3 MUL SWAP1 POP SWAP3 SWAP2 POP POP JUMP JUMPDEST PUSH1 0x0 PUSH2 0x1DA6 DUP3 PUSH2 0x1E0D JUMP JUMPDEST SWAP2 POP PUSH2 0x1DB1 DUP4 PUSH2 0x1E0D JUMP JUMPDEST SWAP3 POP DUP3 DUP3 LT ISZERO PUSH2 0x1DC4 JUMPI PUSH2 0x1DC3 PUSH2 0x1E96 JUMP JUMPDEST JUMPDEST DUP3 DUP3 SUB SWAP1 POP SWAP3 SWAP2 POP POP JUMP JUMPDEST PUSH1 0x0 PUSH2 0x1DDA DUP3 PUSH2 0x1DED JUMP JUMPDEST SWAP1 POP SWAP2 SWAP1 POP JUMP JUMPDEST PUSH1 0x0 DUP2 ISZERO ISZERO SWAP1 POP SWAP2 SWAP1 POP JUMP JUMPDEST PUSH1 0x0 PUSH20 0xFFFFFFFFFFFFFFFFFFFFFFFFFFFFFFFFFFFFFFFF DUP3 AND SWAP1 POP SWAP2 SWAP1 POP JUMP JUMPDEST PUSH1 0x0 DUP2 SWAP1 POP SWAP2 SWAP1 POP JUMP JUMPDEST PUSH1 0x0 PUSH2 0x1E22 DUP3 PUSH2 0x1E29 JUMP JUMPDEST SWAP1 POP SWAP2 SWAP1 POP JUMP JUMPDEST PUSH1 0x0 PUSH2 0x1E34 DUP3 PUSH2 0x1E3B JUMP JUMPDEST SWAP1 POP SWAP2 SWAP1 POP JUMP JUMPDEST PUSH1 0x0 PUSH2 0x1E46 DUP3 PUSH2 0x1DED JUMP JUMPDEST SWAP1 POP SWAP2 SWAP1 POP JUMP JUMPDEST PUSH1 0x0 PUSH2 0x1E58 DUP3 PUSH2 0x1E0D JUMP JUMPDEST SWAP2 POP PUSH32 0xFFFFFFFFFFFFFFFFFFFFFFFFFFFFFFFFFFFFFFFFFFFFFFFFFFFFFFFFFFFFFFFF DUP3 EQ ISZERO PUSH2 0x1E8B JUMPI PUSH2 0x1E8A PUSH2 0x1E96 JUMP JUMPDEST JUMPDEST PUSH1 0x1 DUP3 ADD SWAP1 POP SWAP2 SWAP1 POP JUMP JUMPDEST PUSH32 0x4E487B7100000000000000000000000000000000000000000000000000000000 PUSH1 0x0 MSTORE PUSH1 0x11 PUSH1 0x4 MSTORE PUSH1 0x24 PUSH1 0x0 REVERT JUMPDEST PUSH32 0x4E487B7100000000000000000000000000000000000000000000000000000000 PUSH1 0x0 MSTORE PUSH1 0x12 PUSH1 0x4 MSTORE PUSH1 0x24 PUSH1 0x0 REVERT JUMPDEST PUSH1 0x0 DUP1 REVERT JUMPDEST PUSH32 0x4C6F776572206269642100000000000000000000000000000000000000000000 PUSH1 0x0 DUP3 ADD MSTORE POP JUMP JUMPDEST PUSH32 0x41756374696F6E206973207374696C6C206F6E676F696E672100000000000000 PUSH1 0x0 DUP3 ADD MSTORE POP JUMP JUMPDEST PUSH32 0x416C726561647920737461727465642100000000000000000000000000000000 PUSH1 0x0 DUP3 ADD MSTORE POP JUMP JUMPDEST PUSH32 0x456E646564210000000000000000000000000000000000000000000000000000 PUSH1 0x0 DUP3 ADD MSTORE POP JUMP JUMPDEST PUSH32 0x5761697420666F722061756374696F6E20656E64000000000000000000000000 PUSH1 0x0 DUP3 ADD MSTORE POP JUMP JUMPDEST PUSH32 0x596F75206E65656420746F207374617274206669727374210000000000000000 PUSH1 0x0 DUP3 ADD MSTORE POP JUMP JUMPDEST PUSH32 0x596F752063616E206E6F74207374617274207468652061756374696F6E210000 PUSH1 0x0 DUP3 ADD MSTORE POP JUMP JUMPDEST PUSH32 0x4E6F7420737461727465642E0000000000000000000000000000000000000000 PUSH1 0x0 DUP3 ADD MSTORE POP JUMP JUMPDEST PUSH32 0x41756374696F6E20616C726561647920656E6465642100000000000000000000 PUSH1 0x0 DUP3 ADD MSTORE POP JUMP JUMPDEST PUSH32 0x436F756C64206E6F742077697468647261770000000000000000000000000000 PUSH1 0x0 DUP3 ADD MSTORE POP JUMP JUMPDEST PUSH2 0x209C DUP2 PUSH2 0x1DCF JUMP JUMPDEST DUP2 EQ PUSH2 0x20A7 JUMPI PUSH1 0x0 DUP1 REVERT JUMPDEST POP JUMP JUMPDEST PUSH2 0x20B3 DUP2 PUSH2 0x1E0D JUMP JUMPDEST DUP2 EQ PUSH2 0x20BE JUMPI PUSH1 0x0 DUP1 REVERT JUMPDEST POP JUMP INVALID LOG2 PUSH5 0x6970667358 0x22 SLT KECCAK256 CREATE2 STATICCALL MOD CREATE2 DUP4 SELFDESTRUCT 0xF9 PUSH31 0x5272859AE8DC5E08678CA62BF2E9B524951D41A7F24A6BA664736F6C634300 ADDMOD SMOD STOP CALLER "
				},
				"gasEstimates": {
					"creation": {
						"codeDepositCost": "1687800",
						"executionCost": "1771",
						"totalCost": "1689571"
					},
					"external": {
						"autoWithdraw(address,uint256,address)": "infinite",
						"balances()": "2429",
						"bid(address,uint256)": "infinite",
						"biddings(address,uint256)": "infinite",
						"end(address,address,uint256)": "infinite",
						"start(address,uint256,uint256,uint256)": "infinite",
						"withdraw(address,uint256)": "infinite"
					}
				},
				"methodIdentifiers": {
					"autoWithdraw(address,uint256,address)": "699ff43f",
					"balances()": "7bb98a68",
					"bid(address,uint256)": "59d667a5",
					"biddings(address,uint256)": "f48e9b3d",
					"end(address,address,uint256)": "545c285c",
					"start(address,uint256,uint256,uint256)": "b76a3b5a",
					"withdraw(address,uint256)": "f3fef3a3"
				}
			},
			"storageLayout": {
				"storage": [
					{
						"astId": 79,
						"contract": "Bid.sol:Auction",
						"label": "biddings",
						"offset": 0,
						"slot": "0",
						"type": "t_mapping(t_address,t_mapping(t_uint256,t_struct(Bidding)109_storage))"
					},
					{
						"astId": 81,
						"contract": "Bid.sol:Auction",
						"label": "balances",
						"offset": 0,
						"slot": "1",
						"type": "t_uint256"
					}
				],
				"types": {
					"t_address": {
						"encoding": "inplace",
						"label": "address",
						"numberOfBytes": "20"
					},
					"t_bool": {
						"encoding": "inplace",
						"label": "bool",
						"numberOfBytes": "1"
					},
					"t_contract(ERC721)18": {
						"encoding": "inplace",
						"label": "contract ERC721",
						"numberOfBytes": "20"
					},
					"t_mapping(t_address,t_mapping(t_uint256,t_struct(Bidding)109_storage))": {
						"encoding": "mapping",
						"key": "t_address",
						"label": "mapping(address => mapping(uint256 => struct Auction.Bidding))",
						"numberOfBytes": "32",
						"value": "t_mapping(t_uint256,t_struct(Bidding)109_storage)"
					},
					"t_mapping(t_address,t_uint256)": {
						"encoding": "mapping",
						"key": "t_address",
						"label": "mapping(address => uint256)",
						"numberOfBytes": "32",
						"value": "t_uint256"
					},
					"t_mapping(t_uint256,t_address)": {
						"encoding": "mapping",
						"key": "t_uint256",
						"label": "mapping(uint256 => address)",
						"numberOfBytes": "32",
						"value": "t_address"
					},
					"t_mapping(t_uint256,t_struct(Bidding)109_storage)": {
						"encoding": "mapping",
						"key": "t_uint256",
						"label": "mapping(uint256 => struct Auction.Bidding)",
						"numberOfBytes": "32",
						"value": "t_struct(Bidding)109_storage"
					},
					"t_mapping(t_uint256,t_uint256)": {
						"encoding": "mapping",
						"key": "t_uint256",
						"label": "mapping(uint256 => uint256)",
						"numberOfBytes": "32",
						"value": "t_uint256"
					},
					"t_struct(Bidding)109_storage": {
						"encoding": "inplace",
						"label": "struct Auction.Bidding",
						"members": [
							{
								"astId": 83,
								"contract": "Bid.sol:Auction",
								"label": "seller",
								"offset": 0,
								"slot": "0",
								"type": "t_address"
							},
							{
								"astId": 85,
								"contract": "Bid.sol:Auction",
								"label": "started",
								"offset": 20,
								"slot": "0",
								"type": "t_bool"
							},
							{
								"astId": 87,
								"contract": "Bid.sol:Auction",
								"label": "ended",
								"offset": 21,
								"slot": "0",
								"type": "t_bool"
							},
							{
								"astId": 89,
								"contract": "Bid.sol:Auction",
								"label": "endAt",
								"offset": 0,
								"slot": "1",
								"type": "t_uint256"
							},
							{
								"astId": 92,
								"contract": "Bid.sol:Auction",
								"label": "tokenAddr",
								"offset": 0,
								"slot": "2",
								"type": "t_contract(ERC721)18"
							},
							{
								"astId": 94,
								"contract": "Bid.sol:Auction",
								"label": "tokenId",
								"offset": 0,
								"slot": "3",
								"type": "t_uint256"
							},
							{
								"astId": 96,
								"contract": "Bid.sol:Auction",
								"label": "bidCount",
								"offset": 0,
								"slot": "4",
								"type": "t_uint256"
							},
							{
								"astId": 100,
								"contract": "Bid.sol:Auction",
								"label": "highestBid",
								"offset": 0,
								"slot": "5",
								"type": "t_mapping(t_uint256,t_uint256)"
							},
							{
								"astId": 104,
								"contract": "Bid.sol:Auction",
								"label": "highestBidder",
								"offset": 0,
								"slot": "6",
								"type": "t_mapping(t_uint256,t_address)"
							},
							{
								"astId": 108,
								"contract": "Bid.sol:Auction",
								"label": "bids",
								"offset": 0,
								"slot": "7",
								"type": "t_mapping(t_address,t_uint256)"
							}
						],
						"numberOfBytes": "256"
					},
					"t_uint256": {
						"encoding": "inplace",
						"label": "uint256",
						"numberOfBytes": "32"
					}
				}
			},
			"userdoc": {
				"kind": "user",
				"methods": {},
				"version": 1
			}
		}
	}
}