{
	"Offer.sol": {
		"Offer": {
			"abi": [
				{
					"anonymous": false,
					"inputs": [
						{
							"indexed": true,
							"internalType": "address",
							"name": "tokenAddr",
							"type": "address"
						},
						{
							"indexed": true,
							"internalType": "uint256",
							"name": "tokenId",
							"type": "uint256"
						},
						{
							"indexed": true,
							"internalType": "address",
							"name": "offerer",
							"type": "address"
						},
						{
							"indexed": false,
							"internalType": "uint256",
							"name": "amount",
							"type": "uint256"
						},
						{
							"indexed": false,
							"internalType": "bool",
							"name": "isOffer",
							"type": "bool"
						}
					],
					"name": "OfferEvent",
					"type": "event"
				},
				{
					"anonymous": false,
					"inputs": [
						{
							"indexed": true,
							"internalType": "address",
							"name": "tokenAddr",
							"type": "address"
						},
						{
							"indexed": true,
							"internalType": "uint256",
							"name": "tokenId",
							"type": "uint256"
						},
						{
							"indexed": false,
							"internalType": "bool",
							"name": "isOffer",
							"type": "bool"
						}
					],
					"name": "SubmitEvent",
					"type": "event"
				},
				{
					"anonymous": false,
					"inputs": [
						{
							"indexed": true,
							"internalType": "address",
							"name": "tokenAddr",
							"type": "address"
						},
						{
							"indexed": true,
							"internalType": "uint256",
							"name": "tokenId",
							"type": "uint256"
						},
						{
							"indexed": true,
							"internalType": "address",
							"name": "offerer",
							"type": "address"
						}
					],
					"name": "WithdrawEvent",
					"type": "event"
				},
				{
					"inputs": [],
					"name": "balances",
					"outputs": [
						{
							"internalType": "uint256",
							"name": "",
							"type": "uint256"
						}
					],
					"stateMutability": "view",
					"type": "function"
				},
				{
					"inputs": [
						{
							"internalType": "address",
							"name": "tokenAddr",
							"type": "address"
						},
						{
							"internalType": "uint256",
							"name": "tokenId",
							"type": "uint256"
						}
					],
					"name": "offer",
					"outputs": [],
					"stateMutability": "payable",
					"type": "function"
				},
				{
					"inputs": [
						{
							"internalType": "address",
							"name": "",
							"type": "address"
						},
						{
							"internalType": "uint256",
							"name": "",
							"type": "uint256"
						}
					],
					"name": "offers",
					"outputs": [
						{
							"internalType": "bool",
							"name": "isOffer",
							"type": "bool"
						}
					],
					"stateMutability": "view",
					"type": "function"
				},
				{
					"inputs": [
						{
							"internalType": "address",
							"name": "contractAddr",
							"type": "address"
						},
						{
							"internalType": "address",
							"name": "tokenAddr",
							"type": "address"
						},
						{
							"internalType": "uint256",
							"name": "tokenId",
							"type": "uint256"
						},
						{
							"internalType": "address",
							"name": "offerer",
							"type": "address"
						}
					],
					"name": "submit",
					"outputs": [],
					"stateMutability": "payable",
					"type": "function"
				},
				{
					"inputs": [
						{
							"internalType": "address",
							"name": "tokenAddr",
							"type": "address"
						},
						{
							"internalType": "uint256",
							"name": "tokenId",
							"type": "uint256"
						}
					],
					"name": "withdraw",
					"outputs": [],
					"stateMutability": "payable",
					"type": "function"
				}
			],
			"devdoc": {
				"kind": "dev",
				"methods": {},
				"version": 1
			},
			"evm": {
				"assembly": "    /* \"Offer.sol\":446:3844  contract Offer {\r... */\n  mstore(0x40, 0x80)\n  callvalue\n  dup1\n  iszero\n  tag_1\n  jumpi\n  0x00\n  dup1\n  revert\ntag_1:\n  pop\n  dataSize(sub_0)\n  dup1\n  dataOffset(sub_0)\n  0x00\n  codecopy\n  0x00\n  return\nstop\n\nsub_0: assembly {\n        /* \"Offer.sol\":446:3844  contract Offer {\r... */\n      mstore(0x40, 0x80)\n      jumpi(tag_1, lt(calldatasize, 0x04))\n      shr(0xe0, calldataload(0x00))\n      dup1\n      0x6b212960\n      eq\n      tag_2\n      jumpi\n      dup1\n      0x7bb98a68\n      eq\n      tag_3\n      jumpi\n      dup1\n      0xaa1a8411\n      eq\n      tag_4\n      jumpi\n      dup1\n      0xbbb96976\n      eq\n      tag_5\n      jumpi\n      dup1\n      0xf3fef3a3\n      eq\n      tag_6\n      jumpi\n    tag_1:\n      0x00\n      dup1\n      revert\n        /* \"Offer.sol\":996:1431  function offer(address tokenAddr, uint tokenId) external payable {\r... */\n    tag_2:\n      tag_7\n      0x04\n      dup1\n      calldatasize\n      sub\n      dup2\n      add\n      swap1\n      tag_8\n      swap2\n      swap1\n      tag_9\n      jump\t// in\n    tag_8:\n      tag_10\n      jump\t// in\n    tag_7:\n      stop\n        /* \"Offer.sol\":967:987  uint public balances */\n    tag_3:\n      callvalue\n      dup1\n      iszero\n      tag_11\n      jumpi\n      0x00\n      dup1\n      revert\n    tag_11:\n      pop\n      tag_12\n      tag_13\n      jump\t// in\n    tag_12:\n      mload(0x40)\n      tag_14\n      swap2\n      swap1\n      tag_15\n      jump\t// in\n    tag_14:\n      mload(0x40)\n      dup1\n      swap2\n      sub\n      swap1\n      return\n        /* \"Offer.sol\":779:835  mapping(address =>mapping(uint => Offers)) public offers */\n    tag_4:\n      callvalue\n      dup1\n      iszero\n      tag_16\n      jumpi\n      0x00\n      dup1\n      revert\n    tag_16:\n      pop\n      tag_17\n      0x04\n      dup1\n      calldatasize\n      sub\n      dup2\n      add\n      swap1\n      tag_18\n      swap2\n      swap1\n      tag_9\n      jump\t// in\n    tag_18:\n      tag_19\n      jump\t// in\n    tag_17:\n      mload(0x40)\n      tag_20\n      swap2\n      swap1\n      tag_21\n      jump\t// in\n    tag_20:\n      mload(0x40)\n      dup1\n      swap2\n      sub\n      swap1\n      return\n        /* \"Offer.sol\":1439:2917  function submit(address contractAddr, address tokenAddr, uint tokenId, address offerer) external payable {\r... */\n    tag_5:\n      tag_22\n      0x04\n      dup1\n      calldatasize\n      sub\n      dup2\n      add\n      swap1\n      tag_23\n      swap2\n      swap1\n      tag_24\n      jump\t// in\n    tag_23:\n      tag_25\n      jump\t// in\n    tag_22:\n      stop\n        /* \"Offer.sol\":2925:3841  function withdraw(address tokenAddr, uint tokenId) public payable {\r... */\n    tag_6:\n      tag_26\n      0x04\n      dup1\n      calldatasize\n      sub\n      dup2\n      add\n      swap1\n      tag_27\n      swap2\n      swap1\n      tag_9\n      jump\t// in\n    tag_27:\n      tag_28\n      jump\t// in\n    tag_26:\n      stop\n        /* \"Offer.sol\":996:1431  function offer(address tokenAddr, uint tokenId) external payable {\r... */\n    tag_10:\n        /* \"Offer.sol\":1072:1094  Offers storage _offers */\n      0x00\n        /* \"Offer.sol\":1097:1103  offers */\n      dup1\n        /* \"Offer.sol\":1097:1114  offers[tokenAddr] */\n      0x00\n        /* \"Offer.sol\":1104:1113  tokenAddr */\n      dup5\n        /* \"Offer.sol\":1097:1114  offers[tokenAddr] */\n      0xffffffffffffffffffffffffffffffffffffffff\n      and\n      0xffffffffffffffffffffffffffffffffffffffff\n      and\n      dup2\n      mstore\n      0x20\n      add\n      swap1\n      dup2\n      mstore\n      0x20\n      add\n      0x00\n      keccak256\n        /* \"Offer.sol\":1097:1123  offers[tokenAddr][tokenId] */\n      0x00\n        /* \"Offer.sol\":1115:1122  tokenId */\n      dup4\n        /* \"Offer.sol\":1097:1123  offers[tokenAddr][tokenId] */\n      dup2\n      mstore\n      0x20\n      add\n      swap1\n      dup2\n      mstore\n      0x20\n      add\n      0x00\n      keccak256\n        /* \"Offer.sol\":1072:1123  Offers storage _offers = offers[tokenAddr][tokenId] */\n      swap1\n      pop\n        /* \"Offer.sol\":1169:1170  0 */\n      0x00\n        /* \"Offer.sol\":1139:1146  _offers */\n      dup2\n        /* \"Offer.sol\":1139:1153  _offers.amount */\n      0x01\n      add\n        /* \"Offer.sol\":1139:1165  _offers.amount[msg.sender] */\n      0x00\n        /* \"Offer.sol\":1154:1164  msg.sender */\n      caller\n        /* \"Offer.sol\":1139:1165  _offers.amount[msg.sender] */\n      0xffffffffffffffffffffffffffffffffffffffff\n      and\n      0xffffffffffffffffffffffffffffffffffffffff\n      and\n      dup2\n      mstore\n      0x20\n      add\n      swap1\n      dup2\n      mstore\n      0x20\n      add\n      0x00\n      keccak256\n      sload\n        /* \"Offer.sol\":1139:1170  _offers.amount[msg.sender] == 0 */\n      eq\n        /* \"Offer.sol\":1136:1231  if(_offers.amount[msg.sender] == 0) {\r... */\n      iszero\n      tag_30\n      jumpi\n        /* \"Offer.sol\":1187:1194  _offers */\n      dup1\n        /* \"Offer.sol\":1187:1202  _offers.offerer */\n      0x00\n      add\n        /* \"Offer.sol\":1208:1218  msg.sender */\n      caller\n        /* \"Offer.sol\":1187:1219  _offers.offerer.push(msg.sender) */\n      swap1\n      dup1\n      0x01\n      dup2\n      sload\n      add\n      dup1\n      dup3\n      sstore\n      dup1\n      swap2\n      pop\n      pop\n      0x01\n      swap1\n      sub\n      swap1\n      0x00\n      mstore\n      keccak256(0x00, 0x20)\n      add\n      0x00\n      swap1\n      swap2\n      swap1\n      swap2\n      swap1\n      swap2\n      0x0100\n      exp\n      dup2\n      sload\n      dup2\n      0xffffffffffffffffffffffffffffffffffffffff\n      mul\n      not\n      and\n      swap1\n      dup4\n      0xffffffffffffffffffffffffffffffffffffffff\n      and\n      mul\n      or\n      swap1\n      sstore\n      pop\n        /* \"Offer.sol\":1136:1231  if(_offers.amount[msg.sender] == 0) {\r... */\n    tag_30:\n        /* \"Offer.sol\":1270:1279  msg.value */\n      callvalue\n        /* \"Offer.sol\":1241:1248  _offers */\n      dup2\n        /* \"Offer.sol\":1241:1255  _offers.amount */\n      0x01\n      add\n        /* \"Offer.sol\":1241:1267  _offers.amount[msg.sender] */\n      0x00\n        /* \"Offer.sol\":1256:1266  msg.sender */\n      caller\n        /* \"Offer.sol\":1241:1267  _offers.amount[msg.sender] */\n      0xffffffffffffffffffffffffffffffffffffffff\n      and\n      0xffffffffffffffffffffffffffffffffffffffff\n      and\n      dup2\n      mstore\n      0x20\n      add\n      swap1\n      dup2\n      mstore\n      0x20\n      add\n      0x00\n      keccak256\n        /* \"Offer.sol\":1241:1279  _offers.amount[msg.sender] = msg.value */\n      dup2\n      swap1\n      sstore\n      pop\n        /* \"Offer.sol\":1308:1312  true */\n      0x01\n        /* \"Offer.sol\":1290:1297  _offers */\n      dup2\n        /* \"Offer.sol\":1290:1305  _offers.isOffer */\n      0x02\n      add\n      0x00\n        /* \"Offer.sol\":1290:1312  _offers.isOffer = true */\n      0x0100\n      exp\n      dup2\n      sload\n      dup2\n      0xff\n      mul\n      not\n      and\n      swap1\n      dup4\n      iszero\n      iszero\n      mul\n      or\n      swap1\n      sstore\n      pop\n        /* \"Offer.sol\":1337:1346  msg.value */\n      callvalue\n        /* \"Offer.sol\":1325:1333  balances */\n      0x01\n      0x00\n        /* \"Offer.sol\":1325:1346  balances += msg.value */\n      dup3\n      dup3\n      sload\n      tag_32\n      swap2\n      swap1\n      tag_33\n      jump\t// in\n    tag_32:\n      swap3\n      pop\n      pop\n      dup2\n      swap1\n      sstore\n      pop\n        /* \"Offer.sol\":1395:1405  msg.sender */\n      caller\n        /* \"Offer.sol\":1364:1423  OfferEvent(tokenAddr, tokenId, msg.sender, msg.value, true) */\n      0xffffffffffffffffffffffffffffffffffffffff\n      and\n        /* \"Offer.sol\":1386:1393  tokenId */\n      dup3\n        /* \"Offer.sol\":1375:1384  tokenAddr */\n      dup5\n        /* \"Offer.sol\":1364:1423  OfferEvent(tokenAddr, tokenId, msg.sender, msg.value, true) */\n      0xffffffffffffffffffffffffffffffffffffffff\n      and\n      0xa297a5039e151f85fd39b734d57194f31bf1ba744464810f8fa18941216c79b0\n        /* \"Offer.sol\":1407:1416  msg.value */\n      callvalue\n        /* \"Offer.sol\":1418:1422  true */\n      0x01\n        /* \"Offer.sol\":1364:1423  OfferEvent(tokenAddr, tokenId, msg.sender, msg.value, true) */\n      mload(0x40)\n      tag_34\n      swap3\n      swap2\n      swap1\n      tag_35\n      jump\t// in\n    tag_34:\n      mload(0x40)\n      dup1\n      swap2\n      sub\n      swap1\n      log4\n        /* \"Offer.sol\":1061:1431  {\r... */\n      pop\n        /* \"Offer.sol\":996:1431  function offer(address tokenAddr, uint tokenId) external payable {\r... */\n      pop\n      pop\n      jump\t// out\n        /* \"Offer.sol\":967:987  uint public balances */\n    tag_13:\n      sload(0x01)\n      dup2\n      jump\t// out\n        /* \"Offer.sol\":779:835  mapping(address =>mapping(uint => Offers)) public offers */\n    tag_19:\n      mstore(0x20, 0x00)\n      dup2\n      0x00\n      mstore\n      mstore(0x20, keccak256(0x00, 0x40))\n      dup1\n      0x00\n      mstore\n      keccak256(0x00, 0x40)\n      0x00\n      swap2\n      pop\n      swap2\n      pop\n      pop\n      dup1\n      0x02\n      add\n      0x00\n      swap1\n      sload\n      swap1\n      0x0100\n      exp\n      swap1\n      div\n      0xff\n      and\n      swap1\n      pop\n      dup2\n      jump\t// out\n        /* \"Offer.sol\":1439:2917  function submit(address contractAddr, address tokenAddr, uint tokenId, address offerer) external payable {\r... */\n    tag_25:\n        /* \"Offer.sol\":1555:1577  Offers storage _offers */\n      0x00\n        /* \"Offer.sol\":1580:1586  offers */\n      dup1\n        /* \"Offer.sol\":1580:1597  offers[tokenAddr] */\n      0x00\n        /* \"Offer.sol\":1587:1596  tokenAddr */\n      dup6\n        /* \"Offer.sol\":1580:1597  offers[tokenAddr] */\n      0xffffffffffffffffffffffffffffffffffffffff\n      and\n      0xffffffffffffffffffffffffffffffffffffffff\n      and\n      dup2\n      mstore\n      0x20\n      add\n      swap1\n      dup2\n      mstore\n      0x20\n      add\n      0x00\n      keccak256\n        /* \"Offer.sol\":1580:1606  offers[tokenAddr][tokenId] */\n      0x00\n        /* \"Offer.sol\":1598:1605  tokenId */\n      dup5\n        /* \"Offer.sol\":1580:1606  offers[tokenAddr][tokenId] */\n      dup2\n      mstore\n      0x20\n      add\n      swap1\n      dup2\n      mstore\n      0x20\n      add\n      0x00\n      keccak256\n        /* \"Offer.sol\":1555:1606  Offers storage _offers = offers[tokenAddr][tokenId] */\n      swap1\n      pop\n        /* \"Offer.sol\":1617:1630  IERC721 token */\n      0x00\n        /* \"Offer.sol\":1641:1650  tokenAddr */\n      dup5\n        /* \"Offer.sol\":1617:1651  IERC721 token = IERC721(tokenAddr) */\n      swap1\n      pop\n        /* \"Offer.sol\":1662:1676  Market _market */\n      0x00\n        /* \"Offer.sol\":1686:1698  contractAddr */\n      dup7\n        /* \"Offer.sol\":1662:1699  Market _market = Market(contractAddr) */\n      swap1\n      pop\n        /* \"Offer.sol\":1746:1756  msg.sender */\n      caller\n        /* \"Offer.sol\":1720:1756  token.ownerOf(tokenId) == msg.sender */\n      0xffffffffffffffffffffffffffffffffffffffff\n      and\n        /* \"Offer.sol\":1720:1725  token */\n      dup3\n        /* \"Offer.sol\":1720:1733  token.ownerOf */\n      0xffffffffffffffffffffffffffffffffffffffff\n      and\n      0x6352211e\n        /* \"Offer.sol\":1734:1741  tokenId */\n      dup8\n        /* \"Offer.sol\":1720:1742  token.ownerOf(tokenId) */\n      mload(0x40)\n      dup3\n      0xffffffff\n      and\n      0xe0\n      shl\n      dup2\n      mstore\n      0x04\n      add\n      tag_37\n      swap2\n      swap1\n      tag_15\n      jump\t// in\n    tag_37:\n      0x20\n      mload(0x40)\n      dup1\n      dup4\n      sub\n      dup2\n      dup7\n      dup1\n      extcodesize\n      iszero\n      dup1\n      iszero\n      tag_38\n      jumpi\n      0x00\n      dup1\n      revert\n    tag_38:\n      pop\n      gas\n      staticcall\n      iszero\n      dup1\n      iszero\n      tag_40\n      jumpi\n      returndatasize\n      0x00\n      dup1\n      returndatacopy\n      revert(0x00, returndatasize)\n    tag_40:\n      pop\n      pop\n      pop\n      pop\n      mload(0x40)\n      returndatasize\n      not(0x1f)\n      0x1f\n      dup3\n      add\n      and\n      dup3\n      add\n      dup1\n      0x40\n      mstore\n      pop\n      dup2\n      add\n      swap1\n      tag_41\n      swap2\n      swap1\n      tag_42\n      jump\t// in\n    tag_41:\n        /* \"Offer.sol\":1720:1756  token.ownerOf(tokenId) == msg.sender */\n      0xffffffffffffffffffffffffffffffffffffffff\n      and\n      eq\n        /* \"Offer.sol\":1712:1774  require(token.ownerOf(tokenId) == msg.sender, \"Unauthorized.\") */\n      tag_43\n      jumpi\n      mload(0x40)\n      0x08c379a000000000000000000000000000000000000000000000000000000000\n      dup2\n      mstore\n      0x04\n      add\n      tag_44\n      swap1\n      tag_45\n      jump\t// in\n    tag_44:\n      mload(0x40)\n      dup1\n      swap2\n      sub\n      swap1\n      revert\n    tag_43:\n        /* \"Offer.sol\":1812:1816  true */\n      0x01\n        /* \"Offer.sol\":1793:1816  _offers.isOffer == true */\n      iszero\n      iszero\n        /* \"Offer.sol\":1793:1800  _offers */\n      dup4\n        /* \"Offer.sol\":1793:1808  _offers.isOffer */\n      0x02\n      add\n      0x00\n      swap1\n      sload\n      swap1\n      0x0100\n      exp\n      swap1\n      div\n      0xff\n      and\n        /* \"Offer.sol\":1793:1816  _offers.isOffer == true */\n      iszero\n      iszero\n      eq\n        /* \"Offer.sol\":1785:1830  require(_offers.isOffer == true, \"No offer.\") */\n      tag_46\n      jumpi\n      mload(0x40)\n      0x08c379a000000000000000000000000000000000000000000000000000000000\n      dup2\n      mstore\n      0x04\n      add\n      tag_47\n      swap1\n      tag_48\n      jump\t// in\n    tag_47:\n      mload(0x40)\n      dup1\n      swap2\n      sub\n      swap1\n      revert\n    tag_46:\n        /* \"Offer.sol\":1851:1861  msg.sender */\n      caller\n        /* \"Offer.sol\":1843:1871  payable(msg.sender).transfer */\n      0xffffffffffffffffffffffffffffffffffffffff\n      and\n        /* \"Offer.sol\":1843:1929  payable(msg.sender).transfer(_offers.amount[offerer] - (_offers.amount[offerer] / 20)) */\n      0x08fc\n        /* \"Offer.sol\":1925:1927  20 */\n      0x14\n        /* \"Offer.sol\":1899:1906  _offers */\n      dup6\n        /* \"Offer.sol\":1899:1913  _offers.amount */\n      0x01\n      add\n        /* \"Offer.sol\":1899:1922  _offers.amount[offerer] */\n      0x00\n        /* \"Offer.sol\":1914:1921  offerer */\n      dup9\n        /* \"Offer.sol\":1899:1922  _offers.amount[offerer] */\n      0xffffffffffffffffffffffffffffffffffffffff\n      and\n      0xffffffffffffffffffffffffffffffffffffffff\n      and\n      dup2\n      mstore\n      0x20\n      add\n      swap1\n      dup2\n      mstore\n      0x20\n      add\n      0x00\n      keccak256\n      sload\n        /* \"Offer.sol\":1899:1927  _offers.amount[offerer] / 20 */\n      tag_49\n      swap2\n      swap1\n      tag_50\n      jump\t// in\n    tag_49:\n        /* \"Offer.sol\":1872:1879  _offers */\n      dup6\n        /* \"Offer.sol\":1872:1886  _offers.amount */\n      0x01\n      add\n        /* \"Offer.sol\":1872:1895  _offers.amount[offerer] */\n      0x00\n        /* \"Offer.sol\":1887:1894  offerer */\n      dup9\n        /* \"Offer.sol\":1872:1895  _offers.amount[offerer] */\n      0xffffffffffffffffffffffffffffffffffffffff\n      and\n      0xffffffffffffffffffffffffffffffffffffffff\n      and\n      dup2\n      mstore\n      0x20\n      add\n      swap1\n      dup2\n      mstore\n      0x20\n      add\n      0x00\n      keccak256\n      sload\n        /* \"Offer.sol\":1872:1928  _offers.amount[offerer] - (_offers.amount[offerer] / 20) */\n      tag_51\n      swap2\n      swap1\n      tag_52\n      jump\t// in\n    tag_51:\n        /* \"Offer.sol\":1843:1929  payable(msg.sender).transfer(_offers.amount[offerer] - (_offers.amount[offerer] / 20)) */\n      swap1\n      dup2\n      iszero\n      mul\n      swap1\n      mload(0x40)\n      0x00\n      mload(0x40)\n      dup1\n      dup4\n      sub\n      dup2\n      dup6\n      dup9\n      dup9\n      call\n      swap4\n      pop\n      pop\n      pop\n      pop\n      iszero\n      dup1\n      iszero\n      tag_54\n      jumpi\n      returndatasize\n      0x00\n      dup1\n      returndatacopy\n      revert(0x00, returndatasize)\n    tag_54:\n      pop\n        /* \"Offer.sol\":1948:1955  _market */\n      dup1\n        /* \"Offer.sol\":1948:1961  _market.owner */\n      0xffffffffffffffffffffffffffffffffffffffff\n      and\n      0x8da5cb5b\n        /* \"Offer.sol\":1948:1963  _market.owner() */\n      mload(0x40)\n      dup2\n      0xffffffff\n      and\n      0xe0\n      shl\n      dup2\n      mstore\n      0x04\n      add\n      0x20\n      mload(0x40)\n      dup1\n      dup4\n      sub\n      dup2\n      dup7\n      dup1\n      extcodesize\n      iszero\n      dup1\n      iszero\n      tag_55\n      jumpi\n      0x00\n      dup1\n      revert\n    tag_55:\n      pop\n      gas\n      staticcall\n      iszero\n      dup1\n      iszero\n      tag_57\n      jumpi\n      returndatasize\n      0x00\n      dup1\n      returndatacopy\n      revert(0x00, returndatasize)\n    tag_57:\n      pop\n      pop\n      pop\n      pop\n      mload(0x40)\n      returndatasize\n      not(0x1f)\n      0x1f\n      dup3\n      add\n      and\n      dup3\n      add\n      dup1\n      0x40\n      mstore\n      pop\n      dup2\n      add\n      swap1\n      tag_58\n      swap2\n      swap1\n      tag_42\n      jump\t// in\n    tag_58:\n        /* \"Offer.sol\":1940:1973  payable(_market.owner()).transfer */\n      0xffffffffffffffffffffffffffffffffffffffff\n      and\n        /* \"Offer.sol\":1940:2003  payable(_market.owner()).transfer(_offers.amount[offerer] / 20) */\n      0x08fc\n        /* \"Offer.sol\":2000:2002  20 */\n      0x14\n        /* \"Offer.sol\":1974:1981  _offers */\n      dup6\n        /* \"Offer.sol\":1974:1988  _offers.amount */\n      0x01\n      add\n        /* \"Offer.sol\":1974:1997  _offers.amount[offerer] */\n      0x00\n        /* \"Offer.sol\":1989:1996  offerer */\n      dup9\n        /* \"Offer.sol\":1974:1997  _offers.amount[offerer] */\n      0xffffffffffffffffffffffffffffffffffffffff\n      and\n      0xffffffffffffffffffffffffffffffffffffffff\n      and\n      dup2\n      mstore\n      0x20\n      add\n      swap1\n      dup2\n      mstore\n      0x20\n      add\n      0x00\n      keccak256\n      sload\n        /* \"Offer.sol\":1974:2002  _offers.amount[offerer] / 20 */\n      tag_59\n      swap2\n      swap1\n      tag_50\n      jump\t// in\n    tag_59:\n        /* \"Offer.sol\":1940:2003  payable(_market.owner()).transfer(_offers.amount[offerer] / 20) */\n      swap1\n      dup2\n      iszero\n      mul\n      swap1\n      mload(0x40)\n      0x00\n      mload(0x40)\n      dup1\n      dup4\n      sub\n      dup2\n      dup6\n      dup9\n      dup9\n      call\n      swap4\n      pop\n      pop\n      pop\n      pop\n      iszero\n      dup1\n      iszero\n      tag_61\n      jumpi\n      returndatasize\n      0x00\n      dup1\n      returndatacopy\n      revert(0x00, returndatasize)\n    tag_61:\n      pop\n        /* \"Offer.sol\":2019:2025  uint i */\n      0x00\n        /* \"Offer.sol\":2014:2396  for (uint i = 0; i < 5; i++) {\r... */\n    tag_62:\n        /* \"Offer.sol\":2035:2036  5 */\n      0x05\n        /* \"Offer.sol\":2031:2032  i */\n      dup2\n        /* \"Offer.sol\":2031:2036  i < 5 */\n      lt\n        /* \"Offer.sol\":2014:2396  for (uint i = 0; i < 5; i++) {\r... */\n      iszero\n      tag_63\n      jumpi\n        /* \"Offer.sol\":2121:2122  0 */\n      0x00\n        /* \"Offer.sol\":2066:2123  _market.getPrevOwner(tokenAddr, tokenId, i) != address(0) */\n      0xffffffffffffffffffffffffffffffffffffffff\n      and\n        /* \"Offer.sol\":2066:2073  _market */\n      dup3\n        /* \"Offer.sol\":2066:2086  _market.getPrevOwner */\n      0xffffffffffffffffffffffffffffffffffffffff\n      and\n      0x2973d6f8\n        /* \"Offer.sol\":2087:2096  tokenAddr */\n      dup10\n        /* \"Offer.sol\":2098:2105  tokenId */\n      dup10\n        /* \"Offer.sol\":2107:2108  i */\n      dup6\n        /* \"Offer.sol\":2066:2109  _market.getPrevOwner(tokenAddr, tokenId, i) */\n      mload(0x40)\n      dup5\n      0xffffffff\n      and\n      0xe0\n      shl\n      dup2\n      mstore\n      0x04\n      add\n      tag_65\n      swap4\n      swap3\n      swap2\n      swap1\n      tag_66\n      jump\t// in\n    tag_65:\n      0x20\n      mload(0x40)\n      dup1\n      dup4\n      sub\n      dup2\n      dup7\n      dup1\n      extcodesize\n      iszero\n      dup1\n      iszero\n      tag_67\n      jumpi\n      0x00\n      dup1\n      revert\n    tag_67:\n      pop\n      gas\n      staticcall\n      iszero\n      dup1\n      iszero\n      tag_69\n      jumpi\n      returndatasize\n      0x00\n      dup1\n      returndatacopy\n      revert(0x00, returndatasize)\n    tag_69:\n      pop\n      pop\n      pop\n      pop\n      mload(0x40)\n      returndatasize\n      not(0x1f)\n      0x1f\n      dup3\n      add\n      and\n      dup3\n      add\n      dup1\n      0x40\n      mstore\n      pop\n      dup2\n      add\n      swap1\n      tag_70\n      swap2\n      swap1\n      tag_42\n      jump\t// in\n    tag_70:\n        /* \"Offer.sol\":2066:2123  _market.getPrevOwner(tokenAddr, tokenId, i) != address(0) */\n      0xffffffffffffffffffffffffffffffffffffffff\n      and\n      eq\n        /* \"Offer.sol\":2062:2381  if (_market.getPrevOwner(tokenAddr, tokenId, i) != address(0)) {\r... */\n      tag_71\n      jumpi\n        /* \"Offer.sol\":2156:2163  _market */\n      dup2\n        /* \"Offer.sol\":2156:2176  _market.getPrevOwner */\n      0xffffffffffffffffffffffffffffffffffffffff\n      and\n      0x2973d6f8\n        /* \"Offer.sol\":2177:2186  tokenAddr */\n      dup9\n        /* \"Offer.sol\":2188:2195  tokenId */\n      dup9\n        /* \"Offer.sol\":2197:2198  i */\n      dup5\n        /* \"Offer.sol\":2156:2199  _market.getPrevOwner(tokenAddr, tokenId, i) */\n      mload(0x40)\n      dup5\n      0xffffffff\n      and\n      0xe0\n      shl\n      dup2\n      mstore\n      0x04\n      add\n      tag_72\n      swap4\n      swap3\n      swap2\n      swap1\n      tag_66\n      jump\t// in\n    tag_72:\n      0x20\n      mload(0x40)\n      dup1\n      dup4\n      sub\n      dup2\n      dup7\n      dup1\n      extcodesize\n      iszero\n      dup1\n      iszero\n      tag_73\n      jumpi\n      0x00\n      dup1\n      revert\n    tag_73:\n      pop\n      gas\n      staticcall\n      iszero\n      dup1\n      iszero\n      tag_75\n      jumpi\n      returndatasize\n      0x00\n      dup1\n      returndatacopy\n      revert(0x00, returndatasize)\n    tag_75:\n      pop\n      pop\n      pop\n      pop\n      mload(0x40)\n      returndatasize\n      not(0x1f)\n      0x1f\n      dup3\n      add\n      and\n      dup3\n      add\n      dup1\n      0x40\n      mstore\n      pop\n      dup2\n      add\n      swap1\n      tag_76\n      swap2\n      swap1\n      tag_42\n      jump\t// in\n    tag_76:\n        /* \"Offer.sol\":2148:2209  payable(_market.getPrevOwner(tokenAddr, tokenId, i)).transfer */\n      0xffffffffffffffffffffffffffffffffffffffff\n      and\n        /* \"Offer.sol\":2148:2290  payable(_market.getPrevOwner(tokenAddr, tokenId, i)).transfer((_offers.amount[offerer] / 20) / _market.getPrevOwnerAmount(tokenAddr, tokenId)) */\n      0x08fc\n        /* \"Offer.sol\":2243:2250  _market */\n      dup4\n        /* \"Offer.sol\":2243:2269  _market.getPrevOwnerAmount */\n      0xffffffffffffffffffffffffffffffffffffffff\n      and\n      0xd178227a\n        /* \"Offer.sol\":2270:2279  tokenAddr */\n      dup11\n        /* \"Offer.sol\":2281:2288  tokenId */\n      dup11\n        /* \"Offer.sol\":2243:2289  _market.getPrevOwnerAmount(tokenAddr, tokenId) */\n      mload(0x40)\n      dup4\n      0xffffffff\n      and\n      0xe0\n      shl\n      dup2\n      mstore\n      0x04\n      add\n      tag_77\n      swap3\n      swap2\n      swap1\n      tag_78\n      jump\t// in\n    tag_77:\n      0x20\n      mload(0x40)\n      dup1\n      dup4\n      sub\n      dup2\n      dup7\n      dup1\n      extcodesize\n      iszero\n      dup1\n      iszero\n      tag_79\n      jumpi\n      0x00\n      dup1\n      revert\n    tag_79:\n      pop\n      gas\n      staticcall\n      iszero\n      dup1\n      iszero\n      tag_81\n      jumpi\n      returndatasize\n      0x00\n      dup1\n      returndatacopy\n      revert(0x00, returndatasize)\n    tag_81:\n      pop\n      pop\n      pop\n      pop\n      mload(0x40)\n      returndatasize\n      not(0x1f)\n      0x1f\n      dup3\n      add\n      and\n      dup3\n      add\n      dup1\n      0x40\n      mstore\n      pop\n      dup2\n      add\n      swap1\n      tag_82\n      swap2\n      swap1\n      tag_83\n      jump\t// in\n    tag_82:\n        /* \"Offer.sol\":2237:2239  20 */\n      0x14\n        /* \"Offer.sol\":2211:2218  _offers */\n      dup8\n        /* \"Offer.sol\":2211:2225  _offers.amount */\n      0x01\n      add\n        /* \"Offer.sol\":2211:2234  _offers.amount[offerer] */\n      0x00\n        /* \"Offer.sol\":2226:2233  offerer */\n      dup11\n        /* \"Offer.sol\":2211:2234  _offers.amount[offerer] */\n      0xffffffffffffffffffffffffffffffffffffffff\n      and\n      0xffffffffffffffffffffffffffffffffffffffff\n      and\n      dup2\n      mstore\n      0x20\n      add\n      swap1\n      dup2\n      mstore\n      0x20\n      add\n      0x00\n      keccak256\n      sload\n        /* \"Offer.sol\":2211:2239  _offers.amount[offerer] / 20 */\n      tag_84\n      swap2\n      swap1\n      tag_50\n      jump\t// in\n    tag_84:\n        /* \"Offer.sol\":2210:2289  (_offers.amount[offerer] / 20) / _market.getPrevOwnerAmount(tokenAddr, tokenId) */\n      tag_85\n      swap2\n      swap1\n      tag_50\n      jump\t// in\n    tag_85:\n        /* \"Offer.sol\":2148:2290  payable(_market.getPrevOwner(tokenAddr, tokenId, i)).transfer((_offers.amount[offerer] / 20) / _market.getPrevOwnerAmount(tokenAddr, tokenId)) */\n      swap1\n      dup2\n      iszero\n      mul\n      swap1\n      mload(0x40)\n      0x00\n      mload(0x40)\n      dup1\n      dup4\n      sub\n      dup2\n      dup6\n      dup9\n      dup9\n      call\n      swap4\n      pop\n      pop\n      pop\n      pop\n      iszero\n      dup1\n      iszero\n      tag_87\n      jumpi\n      returndatasize\n      0x00\n      dup1\n      returndatacopy\n      revert(0x00, returndatasize)\n    tag_87:\n      pop\n        /* \"Offer.sol\":2062:2381  if (_market.getPrevOwner(tokenAddr, tokenId, i) != address(0)) {\r... */\n      jump(tag_88)\n    tag_71:\n        /* \"Offer.sol\":2356:2361  break */\n      jump(tag_63)\n        /* \"Offer.sol\":2062:2381  if (_market.getPrevOwner(tokenAddr, tokenId, i) != address(0)) {\r... */\n    tag_88:\n        /* \"Offer.sol\":2038:2041  i++ */\n      dup1\n      dup1\n      tag_89\n      swap1\n      tag_90\n      jump\t// in\n    tag_89:\n      swap2\n      pop\n      pop\n        /* \"Offer.sol\":2014:2396  for (uint i = 0; i < 5; i++) {\r... */\n      jump(tag_62)\n    tag_63:\n      pop\n        /* \"Offer.sol\":2420:2427  _offers */\n      dup3\n        /* \"Offer.sol\":2420:2434  _offers.amount */\n      0x01\n      add\n        /* \"Offer.sol\":2420:2443  _offers.amount[offerer] */\n      0x00\n        /* \"Offer.sol\":2435:2442  offerer */\n      dup6\n        /* \"Offer.sol\":2420:2443  _offers.amount[offerer] */\n      0xffffffffffffffffffffffffffffffffffffffff\n      and\n      0xffffffffffffffffffffffffffffffffffffffff\n      and\n      dup2\n      mstore\n      0x20\n      add\n      swap1\n      dup2\n      mstore\n      0x20\n      add\n      0x00\n      keccak256\n      sload\n        /* \"Offer.sol\":2408:2416  balances */\n      0x01\n      0x00\n        /* \"Offer.sol\":2408:2443  balances -= _offers.amount[offerer] */\n      dup3\n      dup3\n      sload\n      tag_91\n      swap2\n      swap1\n      tag_52\n      jump\t// in\n    tag_91:\n      swap3\n      pop\n      pop\n      dup2\n      swap1\n      sstore\n      pop\n        /* \"Offer.sol\":2472:2477  false */\n      0x00\n        /* \"Offer.sol\":2454:2461  _offers */\n      dup4\n        /* \"Offer.sol\":2454:2469  _offers.isOffer */\n      0x02\n      add\n      0x00\n        /* \"Offer.sol\":2454:2477  _offers.isOffer = false */\n      0x0100\n      exp\n      dup2\n      sload\n      dup2\n      0xff\n      mul\n      not\n      and\n      swap1\n      dup4\n      iszero\n      iszero\n      mul\n      or\n      swap1\n      sstore\n      pop\n        /* \"Offer.sol\":2494:2500  uint i */\n      0x00\n        /* \"Offer.sol\":2528:2529  1 */\n      0x01\n        /* \"Offer.sol\":2503:2510  _offers */\n      dup5\n        /* \"Offer.sol\":2503:2518  _offers.offerer */\n      0x00\n      add\n        /* \"Offer.sol\":2503:2525  _offers.offerer.length */\n      dup1\n      sload\n      swap1\n      pop\n        /* \"Offer.sol\":2503:2529  _offers.offerer.length - 1 */\n      tag_95\n      swap2\n      swap1\n      tag_52\n      jump\t// in\n    tag_95:\n        /* \"Offer.sol\":2494:2529  uint i = _offers.offerer.length - 1 */\n      swap1\n      pop\n        /* \"Offer.sol\":2490:2793  for(uint i = _offers.offerer.length - 1; i >= 0; i--) {\r... */\n    tag_92:\n        /* \"Offer.sol\":2536:2537  0 */\n      0x00\n        /* \"Offer.sol\":2531:2532  i */\n      dup2\n        /* \"Offer.sol\":2531:2537  i >= 0 */\n      lt\n        /* \"Offer.sol\":2490:2793  for(uint i = _offers.offerer.length - 1; i >= 0; i--) {\r... */\n      tag_93\n      jumpi\n        /* \"Offer.sol\":2567:2574  _offers */\n      dup4\n        /* \"Offer.sol\":2567:2582  _offers.offerer */\n      0x00\n      add\n        /* \"Offer.sol\":2583:2584  i */\n      dup2\n        /* \"Offer.sol\":2567:2585  _offers.offerer[i] */\n      dup2\n      sload\n      dup2\n      lt\n      tag_96\n      jumpi\n      tag_97\n      tag_98\n      jump\t// in\n    tag_97:\n    tag_96:\n      swap1\n      0x00\n      mstore\n      keccak256(0x00, 0x20)\n      add\n      0x00\n      swap1\n      sload\n      swap1\n      0x0100\n      exp\n      swap1\n      div\n      0xffffffffffffffffffffffffffffffffffffffff\n      and\n        /* \"Offer.sol\":2559:2595  payable(_offers.offerer[i]).transfer */\n      0xffffffffffffffffffffffffffffffffffffffff\n      and\n        /* \"Offer.sol\":2559:2631  payable(_offers.offerer[i]).transfer(_offers.amount[_offers.offerer[i]]) */\n      0x08fc\n        /* \"Offer.sol\":2596:2603  _offers */\n      dup6\n        /* \"Offer.sol\":2596:2610  _offers.amount */\n      0x01\n      add\n        /* \"Offer.sol\":2596:2630  _offers.amount[_offers.offerer[i]] */\n      0x00\n        /* \"Offer.sol\":2611:2618  _offers */\n      dup8\n        /* \"Offer.sol\":2611:2626  _offers.offerer */\n      0x00\n      add\n        /* \"Offer.sol\":2627:2628  i */\n      dup6\n        /* \"Offer.sol\":2611:2629  _offers.offerer[i] */\n      dup2\n      sload\n      dup2\n      lt\n      tag_100\n      jumpi\n      tag_101\n      tag_98\n      jump\t// in\n    tag_101:\n    tag_100:\n      swap1\n      0x00\n      mstore\n      keccak256(0x00, 0x20)\n      add\n      0x00\n      swap1\n      sload\n      swap1\n      0x0100\n      exp\n      swap1\n      div\n      0xffffffffffffffffffffffffffffffffffffffff\n      and\n        /* \"Offer.sol\":2596:2630  _offers.amount[_offers.offerer[i]] */\n      0xffffffffffffffffffffffffffffffffffffffff\n      and\n      0xffffffffffffffffffffffffffffffffffffffff\n      and\n      dup2\n      mstore\n      0x20\n      add\n      swap1\n      dup2\n      mstore\n      0x20\n      add\n      0x00\n      keccak256\n      sload\n        /* \"Offer.sol\":2559:2631  payable(_offers.offerer[i]).transfer(_offers.amount[_offers.offerer[i]]) */\n      swap1\n      dup2\n      iszero\n      mul\n      swap1\n      mload(0x40)\n      0x00\n      mload(0x40)\n      dup1\n      dup4\n      sub\n      dup2\n      dup6\n      dup9\n      dup9\n      call\n      swap4\n      pop\n      pop\n      pop\n      pop\n      iszero\n      dup1\n      iszero\n      tag_104\n      jumpi\n      returndatasize\n      0x00\n      dup1\n      returndatacopy\n      revert(0x00, returndatasize)\n    tag_104:\n      pop\n        /* \"Offer.sol\":2658:2665  _offers */\n      dup4\n        /* \"Offer.sol\":2658:2672  _offers.amount */\n      0x01\n      add\n        /* \"Offer.sol\":2658:2692  _offers.amount[_offers.offerer[i]] */\n      0x00\n        /* \"Offer.sol\":2673:2680  _offers */\n      dup6\n        /* \"Offer.sol\":2673:2688  _offers.offerer */\n      0x00\n      add\n        /* \"Offer.sol\":2689:2690  i */\n      dup4\n        /* \"Offer.sol\":2673:2691  _offers.offerer[i] */\n      dup2\n      sload\n      dup2\n      lt\n      tag_105\n      jumpi\n      tag_106\n      tag_98\n      jump\t// in\n    tag_106:\n    tag_105:\n      swap1\n      0x00\n      mstore\n      keccak256(0x00, 0x20)\n      add\n      0x00\n      swap1\n      sload\n      swap1\n      0x0100\n      exp\n      swap1\n      div\n      0xffffffffffffffffffffffffffffffffffffffff\n      and\n        /* \"Offer.sol\":2658:2692  _offers.amount[_offers.offerer[i]] */\n      0xffffffffffffffffffffffffffffffffffffffff\n      and\n      0xffffffffffffffffffffffffffffffffffffffff\n      and\n      dup2\n      mstore\n      0x20\n      add\n      swap1\n      dup2\n      mstore\n      0x20\n      add\n      0x00\n      keccak256\n      sload\n        /* \"Offer.sol\":2646:2654  balances */\n      0x01\n      0x00\n        /* \"Offer.sol\":2646:2692  balances -= _offers.amount[_offers.offerer[i]] */\n      dup3\n      dup3\n      sload\n      tag_108\n      swap2\n      swap1\n      tag_52\n      jump\t// in\n    tag_108:\n      swap3\n      pop\n      pop\n      dup2\n      swap1\n      sstore\n      pop\n        /* \"Offer.sol\":2744:2745  0 */\n      0x00\n        /* \"Offer.sol\":2707:2714  _offers */\n      dup5\n        /* \"Offer.sol\":2707:2721  _offers.amount */\n      0x01\n      add\n        /* \"Offer.sol\":2707:2741  _offers.amount[_offers.offerer[i]] */\n      0x00\n        /* \"Offer.sol\":2722:2729  _offers */\n      dup7\n        /* \"Offer.sol\":2722:2737  _offers.offerer */\n      0x00\n      add\n        /* \"Offer.sol\":2738:2739  i */\n      dup5\n        /* \"Offer.sol\":2722:2740  _offers.offerer[i] */\n      dup2\n      sload\n      dup2\n      lt\n      tag_109\n      jumpi\n      tag_110\n      tag_98\n      jump\t// in\n    tag_110:\n    tag_109:\n      swap1\n      0x00\n      mstore\n      keccak256(0x00, 0x20)\n      add\n      0x00\n      swap1\n      sload\n      swap1\n      0x0100\n      exp\n      swap1\n      div\n      0xffffffffffffffffffffffffffffffffffffffff\n      and\n        /* \"Offer.sol\":2707:2741  _offers.amount[_offers.offerer[i]] */\n      0xffffffffffffffffffffffffffffffffffffffff\n      and\n      0xffffffffffffffffffffffffffffffffffffffff\n      and\n      dup2\n      mstore\n      0x20\n      add\n      swap1\n      dup2\n      mstore\n      0x20\n      add\n      0x00\n      keccak256\n        /* \"Offer.sol\":2707:2745  _offers.amount[_offers.offerer[i]] = 0 */\n      dup2\n      swap1\n      sstore\n      pop\n        /* \"Offer.sol\":2760:2767  _offers */\n      dup4\n        /* \"Offer.sol\":2760:2775  _offers.offerer */\n      0x00\n      add\n        /* \"Offer.sol\":2760:2781  _offers.offerer.pop() */\n      dup1\n      sload\n      dup1\n      tag_112\n      jumpi\n      tag_113\n      tag_114\n      jump\t// in\n    tag_113:\n    tag_112:\n      0x01\n      swap1\n      sub\n      dup2\n      dup2\n      swap1\n      0x00\n      mstore\n      keccak256(0x00, 0x20)\n      add\n      exp(0x0100, 0x00)\n      dup2\n      sload\n      swap1\n      0xffffffffffffffffffffffffffffffffffffffff\n      mul\n      not\n      and\n      swap1\n      sstore\n      swap1\n      sstore\n        /* \"Offer.sol\":2539:2542  i-- */\n      dup1\n      dup1\n      tag_116\n      swap1\n      tag_117\n      jump\t// in\n    tag_116:\n      swap2\n      pop\n      pop\n        /* \"Offer.sol\":2490:2793  for(uint i = _offers.offerer.length - 1; i >= 0; i--) {\r... */\n      jump(tag_92)\n    tag_93:\n      pop\n        /* \"Offer.sol\":2805:2810  token */\n      dup2\n        /* \"Offer.sol\":2805:2823  token.transferFrom */\n      0xffffffffffffffffffffffffffffffffffffffff\n      and\n      0x23b872dd\n        /* \"Offer.sol\":2824:2834  msg.sender */\n      caller\n        /* \"Offer.sol\":2836:2843  offerer */\n      dup7\n        /* \"Offer.sol\":2845:2852  tokenId */\n      dup9\n        /* \"Offer.sol\":2805:2853  token.transferFrom(msg.sender, offerer, tokenId) */\n      mload(0x40)\n      dup5\n      0xffffffff\n      and\n      0xe0\n      shl\n      dup2\n      mstore\n      0x04\n      add\n      tag_118\n      swap4\n      swap3\n      swap2\n      swap1\n      tag_119\n      jump\t// in\n    tag_118:\n      0x00\n      mload(0x40)\n      dup1\n      dup4\n      sub\n      dup2\n      0x00\n      dup8\n      dup1\n      extcodesize\n      iszero\n      dup1\n      iszero\n      tag_120\n      jumpi\n      0x00\n      dup1\n      revert\n    tag_120:\n      pop\n      gas\n      call\n      iszero\n      dup1\n      iszero\n      tag_122\n      jumpi\n      returndatasize\n      0x00\n      dup1\n      returndatacopy\n      revert(0x00, returndatasize)\n    tag_122:\n      pop\n      pop\n      pop\n      pop\n        /* \"Offer.sol\":2894:2901  tokenId */\n      dup5\n        /* \"Offer.sol\":2883:2892  tokenAddr */\n      dup7\n        /* \"Offer.sol\":2871:2909  SubmitEvent(tokenAddr, tokenId, false) */\n      0xffffffffffffffffffffffffffffffffffffffff\n      and\n      0x9663db6e9b1f015a82beb1b03ec8fed9d1a25b5da31b2cc92c2be9e8c629a80d\n        /* \"Offer.sol\":2903:2908  false */\n      0x00\n        /* \"Offer.sol\":2871:2909  SubmitEvent(tokenAddr, tokenId, false) */\n      mload(0x40)\n      tag_123\n      swap2\n      swap1\n      tag_21\n      jump\t// in\n    tag_123:\n      mload(0x40)\n      dup1\n      swap2\n      sub\n      swap1\n      log3\n        /* \"Offer.sol\":1544:2917  {\r... */\n      pop\n      pop\n      pop\n        /* \"Offer.sol\":1439:2917  function submit(address contractAddr, address tokenAddr, uint tokenId, address offerer) external payable {\r... */\n      pop\n      pop\n      pop\n      pop\n      jump\t// out\n        /* \"Offer.sol\":2925:3841  function withdraw(address tokenAddr, uint tokenId) public payable {\r... */\n    tag_28:\n        /* \"Offer.sol\":3002:3024  Offers storage _offers */\n      0x00\n        /* \"Offer.sol\":3027:3033  offers */\n      dup1\n        /* \"Offer.sol\":3027:3044  offers[tokenAddr] */\n      0x00\n        /* \"Offer.sol\":3034:3043  tokenAddr */\n      dup5\n        /* \"Offer.sol\":3027:3044  offers[tokenAddr] */\n      0xffffffffffffffffffffffffffffffffffffffff\n      and\n      0xffffffffffffffffffffffffffffffffffffffff\n      and\n      dup2\n      mstore\n      0x20\n      add\n      swap1\n      dup2\n      mstore\n      0x20\n      add\n      0x00\n      keccak256\n        /* \"Offer.sol\":3027:3053  offers[tokenAddr][tokenId] */\n      0x00\n        /* \"Offer.sol\":3045:3052  tokenId */\n      dup4\n        /* \"Offer.sol\":3027:3053  offers[tokenAddr][tokenId] */\n      dup2\n      mstore\n      0x20\n      add\n      swap1\n      dup2\n      mstore\n      0x20\n      add\n      0x00\n      keccak256\n        /* \"Offer.sol\":3002:3053  Offers storage _offers = offers[tokenAddr][tokenId] */\n      swap1\n      pop\n        /* \"Offer.sol\":3093:3097  true */\n      0x01\n        /* \"Offer.sol\":3074:3097  _offers.isOffer == true */\n      iszero\n      iszero\n        /* \"Offer.sol\":3074:3081  _offers */\n      dup2\n        /* \"Offer.sol\":3074:3089  _offers.isOffer */\n      0x02\n      add\n      0x00\n      swap1\n      sload\n      swap1\n      0x0100\n      exp\n      swap1\n      div\n      0xff\n      and\n        /* \"Offer.sol\":3074:3097  _offers.isOffer == true */\n      iszero\n      iszero\n      eq\n        /* \"Offer.sol\":3066:3111  require(_offers.isOffer == true, \"No offer.\") */\n      tag_125\n      jumpi\n      mload(0x40)\n      0x08c379a000000000000000000000000000000000000000000000000000000000\n      dup2\n      mstore\n      0x04\n      add\n      tag_126\n      swap1\n      tag_48\n      jump\t// in\n    tag_126:\n      mload(0x40)\n      dup1\n      swap2\n      sub\n      swap1\n      revert\n    tag_125:\n        /* \"Offer.sol\":3159:3160  0 */\n      0x00\n        /* \"Offer.sol\":3130:3137  _offers */\n      dup2\n        /* \"Offer.sol\":3130:3144  _offers.amount */\n      0x01\n      add\n        /* \"Offer.sol\":3130:3156  _offers.amount[msg.sender] */\n      0x00\n        /* \"Offer.sol\":3145:3155  msg.sender */\n      caller\n        /* \"Offer.sol\":3130:3156  _offers.amount[msg.sender] */\n      0xffffffffffffffffffffffffffffffffffffffff\n      and\n      0xffffffffffffffffffffffffffffffffffffffff\n      and\n      dup2\n      mstore\n      0x20\n      add\n      swap1\n      dup2\n      mstore\n      0x20\n      add\n      0x00\n      keccak256\n      sload\n        /* \"Offer.sol\":3130:3160  _offers.amount[msg.sender] > 0 */\n      gt\n        /* \"Offer.sol\":3122:3176  require(_offers.amount[msg.sender] > 0, \"Offer is 0.\") */\n      tag_127\n      jumpi\n      mload(0x40)\n      0x08c379a000000000000000000000000000000000000000000000000000000000\n      dup2\n      mstore\n      0x04\n      add\n      tag_128\n      swap1\n      tag_129\n      jump\t// in\n    tag_128:\n      mload(0x40)\n      dup1\n      swap2\n      sub\n      swap1\n      revert\n    tag_127:\n        /* \"Offer.sol\":3189:3203  uint lastIndex */\n      0x00\n        /* \"Offer.sol\":3231:3232  1 */\n      0x01\n        /* \"Offer.sol\":3206:3213  _offers */\n      dup3\n        /* \"Offer.sol\":3206:3221  _offers.offerer */\n      0x00\n      add\n        /* \"Offer.sol\":3206:3228  _offers.offerer.length */\n      dup1\n      sload\n      swap1\n      pop\n        /* \"Offer.sol\":3206:3232  _offers.offerer.length - 1 */\n      tag_130\n      swap2\n      swap1\n      tag_52\n      jump\t// in\n    tag_130:\n        /* \"Offer.sol\":3189:3232  uint lastIndex = _offers.offerer.length - 1 */\n      swap1\n      pop\n        /* \"Offer.sol\":3262:3269  _offers */\n      dup2\n        /* \"Offer.sol\":3262:3277  _offers.offerer */\n      0x00\n      add\n        /* \"Offer.sol\":3278:3287  lastIndex */\n      dup2\n        /* \"Offer.sol\":3262:3288  _offers.offerer[lastIndex] */\n      dup2\n      sload\n      dup2\n      lt\n      tag_131\n      jumpi\n      tag_132\n      tag_98\n      jump\t// in\n    tag_132:\n    tag_131:\n      swap1\n      0x00\n      mstore\n      keccak256(0x00, 0x20)\n      add\n      0x00\n      swap1\n      sload\n      swap1\n      0x0100\n      exp\n      swap1\n      div\n      0xffffffffffffffffffffffffffffffffffffffff\n      and\n        /* \"Offer.sol\":3248:3288  msg.sender == _offers.offerer[lastIndex] */\n      0xffffffffffffffffffffffffffffffffffffffff\n      and\n        /* \"Offer.sol\":3248:3258  msg.sender */\n      caller\n        /* \"Offer.sol\":3248:3288  msg.sender == _offers.offerer[lastIndex] */\n      0xffffffffffffffffffffffffffffffffffffffff\n      and\n      eq\n        /* \"Offer.sol\":3245:3661  if(msg.sender == _offers.offerer[lastIndex]) {\r... */\n      iszero\n      tag_134\n      jumpi\n        /* \"Offer.sol\":3305:3312  _offers */\n      dup2\n        /* \"Offer.sol\":3305:3320  _offers.offerer */\n      0x00\n      add\n        /* \"Offer.sol\":3305:3326  _offers.offerer.pop() */\n      dup1\n      sload\n      dup1\n      tag_135\n      jumpi\n      tag_136\n      tag_114\n      jump\t// in\n    tag_136:\n    tag_135:\n      0x01\n      swap1\n      sub\n      dup2\n      dup2\n      swap1\n      0x00\n      mstore\n      keccak256(0x00, 0x20)\n      add\n      exp(0x0100, 0x00)\n      dup2\n      sload\n      swap1\n      0xffffffffffffffffffffffffffffffffffffffff\n      mul\n      not\n      and\n      swap1\n      sstore\n      swap1\n      sstore\n        /* \"Offer.sol\":3245:3661  if(msg.sender == _offers.offerer[lastIndex]) {\r... */\n      jump(tag_138)\n    tag_134:\n        /* \"Offer.sol\":3372:3378  uint i */\n      0x00\n        /* \"Offer.sol\":3368:3650  for(uint i = 0; i < _offers.offerer.length; i++) {\r... */\n    tag_139:\n        /* \"Offer.sol\":3388:3395  _offers */\n      dup3\n        /* \"Offer.sol\":3388:3403  _offers.offerer */\n      0x00\n      add\n        /* \"Offer.sol\":3388:3410  _offers.offerer.length */\n      dup1\n      sload\n      swap1\n      pop\n        /* \"Offer.sol\":3384:3385  i */\n      dup2\n        /* \"Offer.sol\":3384:3410  i < _offers.offerer.length */\n      lt\n        /* \"Offer.sol\":3368:3650  for(uint i = 0; i < _offers.offerer.length; i++) {\r... */\n      iszero\n      tag_140\n      jumpi\n        /* \"Offer.sol\":3461:3471  msg.sender */\n      caller\n        /* \"Offer.sol\":3439:3471  _offers.offerer[i] == msg.sender */\n      0xffffffffffffffffffffffffffffffffffffffff\n      and\n        /* \"Offer.sol\":3439:3446  _offers */\n      dup4\n        /* \"Offer.sol\":3439:3454  _offers.offerer */\n      0x00\n      add\n        /* \"Offer.sol\":3455:3456  i */\n      dup3\n        /* \"Offer.sol\":3439:3457  _offers.offerer[i] */\n      dup2\n      sload\n      dup2\n      lt\n      tag_142\n      jumpi\n      tag_143\n      tag_98\n      jump\t// in\n    tag_143:\n    tag_142:\n      swap1\n      0x00\n      mstore\n      keccak256(0x00, 0x20)\n      add\n      0x00\n      swap1\n      sload\n      swap1\n      0x0100\n      exp\n      swap1\n      div\n      0xffffffffffffffffffffffffffffffffffffffff\n      and\n        /* \"Offer.sol\":3439:3471  _offers.offerer[i] == msg.sender */\n      0xffffffffffffffffffffffffffffffffffffffff\n      and\n      eq\n        /* \"Offer.sol\":3436:3635  if(_offers.offerer[i] == msg.sender) {\r... */\n      iszero\n      tag_145\n      jumpi\n        /* \"Offer.sol\":3517:3524  _offers */\n      dup3\n        /* \"Offer.sol\":3517:3532  _offers.offerer */\n      0x00\n      add\n        /* \"Offer.sol\":3533:3542  lastIndex */\n      dup3\n        /* \"Offer.sol\":3517:3543  _offers.offerer[lastIndex] */\n      dup2\n      sload\n      dup2\n      lt\n      tag_146\n      jumpi\n      tag_147\n      tag_98\n      jump\t// in\n    tag_147:\n    tag_146:\n      swap1\n      0x00\n      mstore\n      keccak256(0x00, 0x20)\n      add\n      0x00\n      swap1\n      sload\n      swap1\n      0x0100\n      exp\n      swap1\n      div\n      0xffffffffffffffffffffffffffffffffffffffff\n      and\n        /* \"Offer.sol\":3496:3503  _offers */\n      dup4\n        /* \"Offer.sol\":3496:3511  _offers.offerer */\n      0x00\n      add\n        /* \"Offer.sol\":3512:3513  i */\n      dup3\n        /* \"Offer.sol\":3496:3514  _offers.offerer[i] */\n      dup2\n      sload\n      dup2\n      lt\n      tag_149\n      jumpi\n      tag_150\n      tag_98\n      jump\t// in\n    tag_150:\n    tag_149:\n      swap1\n      0x00\n      mstore\n      keccak256(0x00, 0x20)\n      add\n      0x00\n        /* \"Offer.sol\":3496:3543  _offers.offerer[i] = _offers.offerer[lastIndex] */\n      0x0100\n      exp\n      dup2\n      sload\n      dup2\n      0xffffffffffffffffffffffffffffffffffffffff\n      mul\n      not\n      and\n      swap1\n      dup4\n      0xffffffffffffffffffffffffffffffffffffffff\n      and\n      mul\n      or\n      swap1\n      sstore\n      pop\n        /* \"Offer.sol\":3566:3573  _offers */\n      dup3\n        /* \"Offer.sol\":3566:3581  _offers.offerer */\n      0x00\n      add\n        /* \"Offer.sol\":3566:3587  _offers.offerer.pop() */\n      dup1\n      sload\n      dup1\n      tag_152\n      jumpi\n      tag_153\n      tag_114\n      jump\t// in\n    tag_153:\n    tag_152:\n      0x01\n      swap1\n      sub\n      dup2\n      dup2\n      swap1\n      0x00\n      mstore\n      keccak256(0x00, 0x20)\n      add\n      exp(0x0100, 0x00)\n      dup2\n      sload\n      swap1\n      0xffffffffffffffffffffffffffffffffffffffff\n      mul\n      not\n      and\n      swap1\n      sstore\n      swap1\n      sstore\n        /* \"Offer.sol\":3610:3615  break */\n      jump(tag_140)\n        /* \"Offer.sol\":3436:3635  if(_offers.offerer[i] == msg.sender) {\r... */\n    tag_145:\n        /* \"Offer.sol\":3412:3415  i++ */\n      dup1\n      dup1\n      tag_155\n      swap1\n      tag_90\n      jump\t// in\n    tag_155:\n      swap2\n      pop\n      pop\n        /* \"Offer.sol\":3368:3650  for(uint i = 0; i < _offers.offerer.length; i++) {\r... */\n      jump(tag_139)\n    tag_140:\n      pop\n        /* \"Offer.sol\":3245:3661  if(msg.sender == _offers.offerer[lastIndex]) {\r... */\n    tag_138:\n        /* \"Offer.sol\":3681:3691  msg.sender */\n      caller\n        /* \"Offer.sol\":3673:3701  payable(msg.sender).transfer */\n      0xffffffffffffffffffffffffffffffffffffffff\n      and\n        /* \"Offer.sol\":3673:3729  payable(msg.sender).transfer(_offers.amount[msg.sender]) */\n      0x08fc\n        /* \"Offer.sol\":3702:3709  _offers */\n      dup4\n        /* \"Offer.sol\":3702:3716  _offers.amount */\n      0x01\n      add\n        /* \"Offer.sol\":3702:3728  _offers.amount[msg.sender] */\n      0x00\n        /* \"Offer.sol\":3717:3727  msg.sender */\n      caller\n        /* \"Offer.sol\":3702:3728  _offers.amount[msg.sender] */\n      0xffffffffffffffffffffffffffffffffffffffff\n      and\n      0xffffffffffffffffffffffffffffffffffffffff\n      and\n      dup2\n      mstore\n      0x20\n      add\n      swap1\n      dup2\n      mstore\n      0x20\n      add\n      0x00\n      keccak256\n      sload\n        /* \"Offer.sol\":3673:3729  payable(msg.sender).transfer(_offers.amount[msg.sender]) */\n      swap1\n      dup2\n      iszero\n      mul\n      swap1\n      mload(0x40)\n      0x00\n      mload(0x40)\n      dup1\n      dup4\n      sub\n      dup2\n      dup6\n      dup9\n      dup9\n      call\n      swap4\n      pop\n      pop\n      pop\n      pop\n      iszero\n      dup1\n      iszero\n      tag_157\n      jumpi\n      returndatasize\n      0x00\n      dup1\n      returndatacopy\n      revert(0x00, returndatasize)\n    tag_157:\n      pop\n        /* \"Offer.sol\":3769:3770  0 */\n      0x00\n        /* \"Offer.sol\":3740:3747  _offers */\n      dup3\n        /* \"Offer.sol\":3740:3754  _offers.amount */\n      0x01\n      add\n        /* \"Offer.sol\":3740:3766  _offers.amount[msg.sender] */\n      0x00\n        /* \"Offer.sol\":3755:3765  msg.sender */\n      caller\n        /* \"Offer.sol\":3740:3766  _offers.amount[msg.sender] */\n      0xffffffffffffffffffffffffffffffffffffffff\n      and\n      0xffffffffffffffffffffffffffffffffffffffff\n      and\n      dup2\n      mstore\n      0x20\n      add\n      swap1\n      dup2\n      mstore\n      0x20\n      add\n      0x00\n      keccak256\n        /* \"Offer.sol\":3740:3770  _offers.amount[msg.sender] = 0 */\n      dup2\n      swap1\n      sstore\n      pop\n        /* \"Offer.sol\":3822:3832  msg.sender */\n      caller\n        /* \"Offer.sol\":3788:3833  WithdrawEvent(tokenAddr, tokenId, msg.sender) */\n      0xffffffffffffffffffffffffffffffffffffffff\n      and\n        /* \"Offer.sol\":3813:3820  tokenId */\n      dup4\n        /* \"Offer.sol\":3802:3811  tokenAddr */\n      dup6\n        /* \"Offer.sol\":3788:3833  WithdrawEvent(tokenAddr, tokenId, msg.sender) */\n      0xffffffffffffffffffffffffffffffffffffffff\n      and\n      0x5eee4de26cd3c0f49f086164989c02cd12d97a964804bc188ee593e26fb98186\n      mload(0x40)\n      mload(0x40)\n      dup1\n      swap2\n      sub\n      swap1\n      log4\n        /* \"Offer.sol\":2991:3841  {\r... */\n      pop\n      pop\n        /* \"Offer.sol\":2925:3841  function withdraw(address tokenAddr, uint tokenId) public payable {\r... */\n      pop\n      pop\n      jump\t// out\n        /* \"#utility.yul\":7:146   */\n    tag_159:\n        /* \"#utility.yul\":53:58   */\n      0x00\n        /* \"#utility.yul\":91:97   */\n      dup2\n        /* \"#utility.yul\":78:98   */\n      calldataload\n        /* \"#utility.yul\":69:98   */\n      swap1\n      pop\n        /* \"#utility.yul\":107:140   */\n      tag_161\n        /* \"#utility.yul\":134:139   */\n      dup2\n        /* \"#utility.yul\":107:140   */\n      tag_162\n      jump\t// in\n    tag_161:\n        /* \"#utility.yul\":7:146   */\n      swap3\n      swap2\n      pop\n      pop\n      jump\t// out\n        /* \"#utility.yul\":152:295   */\n    tag_163:\n        /* \"#utility.yul\":209:214   */\n      0x00\n        /* \"#utility.yul\":240:246   */\n      dup2\n        /* \"#utility.yul\":234:247   */\n      mload\n        /* \"#utility.yul\":225:247   */\n      swap1\n      pop\n        /* \"#utility.yul\":256:289   */\n      tag_165\n        /* \"#utility.yul\":283:288   */\n      dup2\n        /* \"#utility.yul\":256:289   */\n      tag_162\n      jump\t// in\n    tag_165:\n        /* \"#utility.yul\":152:295   */\n      swap3\n      swap2\n      pop\n      pop\n      jump\t// out\n        /* \"#utility.yul\":301:440   */\n    tag_166:\n        /* \"#utility.yul\":347:352   */\n      0x00\n        /* \"#utility.yul\":385:391   */\n      dup2\n        /* \"#utility.yul\":372:392   */\n      calldataload\n        /* \"#utility.yul\":363:392   */\n      swap1\n      pop\n        /* \"#utility.yul\":401:434   */\n      tag_168\n        /* \"#utility.yul\":428:433   */\n      dup2\n        /* \"#utility.yul\":401:434   */\n      tag_169\n      jump\t// in\n    tag_168:\n        /* \"#utility.yul\":301:440   */\n      swap3\n      swap2\n      pop\n      pop\n      jump\t// out\n        /* \"#utility.yul\":446:589   */\n    tag_170:\n        /* \"#utility.yul\":503:508   */\n      0x00\n        /* \"#utility.yul\":534:540   */\n      dup2\n        /* \"#utility.yul\":528:541   */\n      mload\n        /* \"#utility.yul\":519:541   */\n      swap1\n      pop\n        /* \"#utility.yul\":550:583   */\n      tag_172\n        /* \"#utility.yul\":577:582   */\n      dup2\n        /* \"#utility.yul\":550:583   */\n      tag_169\n      jump\t// in\n    tag_172:\n        /* \"#utility.yul\":446:589   */\n      swap3\n      swap2\n      pop\n      pop\n      jump\t// out\n        /* \"#utility.yul\":595:946   */\n    tag_42:\n        /* \"#utility.yul\":665:671   */\n      0x00\n        /* \"#utility.yul\":714:716   */\n      0x20\n        /* \"#utility.yul\":702:711   */\n      dup3\n        /* \"#utility.yul\":693:700   */\n      dup5\n        /* \"#utility.yul\":689:712   */\n      sub\n        /* \"#utility.yul\":685:717   */\n      slt\n        /* \"#utility.yul\":682:801   */\n      iszero\n      tag_174\n      jumpi\n        /* \"#utility.yul\":720:799   */\n      tag_175\n      tag_176\n      jump\t// in\n    tag_175:\n        /* \"#utility.yul\":682:801   */\n    tag_174:\n        /* \"#utility.yul\":840:841   */\n      0x00\n        /* \"#utility.yul\":865:929   */\n      tag_177\n        /* \"#utility.yul\":921:928   */\n      dup5\n        /* \"#utility.yul\":912:918   */\n      dup3\n        /* \"#utility.yul\":901:910   */\n      dup6\n        /* \"#utility.yul\":897:919   */\n      add\n        /* \"#utility.yul\":865:929   */\n      tag_163\n      jump\t// in\n    tag_177:\n        /* \"#utility.yul\":855:929   */\n      swap2\n      pop\n        /* \"#utility.yul\":811:939   */\n      pop\n        /* \"#utility.yul\":595:946   */\n      swap3\n      swap2\n      pop\n      pop\n      jump\t// out\n        /* \"#utility.yul\":952:1717   */\n    tag_24:\n        /* \"#utility.yul\":1038:1044   */\n      0x00\n        /* \"#utility.yul\":1046:1052   */\n      dup1\n        /* \"#utility.yul\":1054:1060   */\n      0x00\n        /* \"#utility.yul\":1062:1068   */\n      dup1\n        /* \"#utility.yul\":1111:1114   */\n      0x80\n        /* \"#utility.yul\":1099:1108   */\n      dup6\n        /* \"#utility.yul\":1090:1097   */\n      dup8\n        /* \"#utility.yul\":1086:1109   */\n      sub\n        /* \"#utility.yul\":1082:1115   */\n      slt\n        /* \"#utility.yul\":1079:1199   */\n      iszero\n      tag_179\n      jumpi\n        /* \"#utility.yul\":1118:1197   */\n      tag_180\n      tag_176\n      jump\t// in\n    tag_180:\n        /* \"#utility.yul\":1079:1199   */\n    tag_179:\n        /* \"#utility.yul\":1238:1239   */\n      0x00\n        /* \"#utility.yul\":1263:1316   */\n      tag_181\n        /* \"#utility.yul\":1308:1315   */\n      dup8\n        /* \"#utility.yul\":1299:1305   */\n      dup3\n        /* \"#utility.yul\":1288:1297   */\n      dup9\n        /* \"#utility.yul\":1284:1306   */\n      add\n        /* \"#utility.yul\":1263:1316   */\n      tag_159\n      jump\t// in\n    tag_181:\n        /* \"#utility.yul\":1253:1316   */\n      swap5\n      pop\n        /* \"#utility.yul\":1209:1326   */\n      pop\n        /* \"#utility.yul\":1365:1367   */\n      0x20\n        /* \"#utility.yul\":1391:1444   */\n      tag_182\n        /* \"#utility.yul\":1436:1443   */\n      dup8\n        /* \"#utility.yul\":1427:1433   */\n      dup3\n        /* \"#utility.yul\":1416:1425   */\n      dup9\n        /* \"#utility.yul\":1412:1434   */\n      add\n        /* \"#utility.yul\":1391:1444   */\n      tag_159\n      jump\t// in\n    tag_182:\n        /* \"#utility.yul\":1381:1444   */\n      swap4\n      pop\n        /* \"#utility.yul\":1336:1454   */\n      pop\n        /* \"#utility.yul\":1493:1495   */\n      0x40\n        /* \"#utility.yul\":1519:1572   */\n      tag_183\n        /* \"#utility.yul\":1564:1571   */\n      dup8\n        /* \"#utility.yul\":1555:1561   */\n      dup3\n        /* \"#utility.yul\":1544:1553   */\n      dup9\n        /* \"#utility.yul\":1540:1562   */\n      add\n        /* \"#utility.yul\":1519:1572   */\n      tag_166\n      jump\t// in\n    tag_183:\n        /* \"#utility.yul\":1509:1572   */\n      swap3\n      pop\n        /* \"#utility.yul\":1464:1582   */\n      pop\n        /* \"#utility.yul\":1621:1623   */\n      0x60\n        /* \"#utility.yul\":1647:1700   */\n      tag_184\n        /* \"#utility.yul\":1692:1699   */\n      dup8\n        /* \"#utility.yul\":1683:1689   */\n      dup3\n        /* \"#utility.yul\":1672:1681   */\n      dup9\n        /* \"#utility.yul\":1668:1690   */\n      add\n        /* \"#utility.yul\":1647:1700   */\n      tag_159\n      jump\t// in\n    tag_184:\n        /* \"#utility.yul\":1637:1700   */\n      swap2\n      pop\n        /* \"#utility.yul\":1592:1710   */\n      pop\n        /* \"#utility.yul\":952:1717   */\n      swap3\n      swap6\n      swap2\n      swap5\n      pop\n      swap3\n      pop\n      jump\t// out\n        /* \"#utility.yul\":1723:2197   */\n    tag_9:\n        /* \"#utility.yul\":1791:1797   */\n      0x00\n        /* \"#utility.yul\":1799:1805   */\n      dup1\n        /* \"#utility.yul\":1848:1850   */\n      0x40\n        /* \"#utility.yul\":1836:1845   */\n      dup4\n        /* \"#utility.yul\":1827:1834   */\n      dup6\n        /* \"#utility.yul\":1823:1846   */\n      sub\n        /* \"#utility.yul\":1819:1851   */\n      slt\n        /* \"#utility.yul\":1816:1935   */\n      iszero\n      tag_186\n      jumpi\n        /* \"#utility.yul\":1854:1933   */\n      tag_187\n      tag_176\n      jump\t// in\n    tag_187:\n        /* \"#utility.yul\":1816:1935   */\n    tag_186:\n        /* \"#utility.yul\":1974:1975   */\n      0x00\n        /* \"#utility.yul\":1999:2052   */\n      tag_188\n        /* \"#utility.yul\":2044:2051   */\n      dup6\n        /* \"#utility.yul\":2035:2041   */\n      dup3\n        /* \"#utility.yul\":2024:2033   */\n      dup7\n        /* \"#utility.yul\":2020:2042   */\n      add\n        /* \"#utility.yul\":1999:2052   */\n      tag_159\n      jump\t// in\n    tag_188:\n        /* \"#utility.yul\":1989:2052   */\n      swap3\n      pop\n        /* \"#utility.yul\":1945:2062   */\n      pop\n        /* \"#utility.yul\":2101:2103   */\n      0x20\n        /* \"#utility.yul\":2127:2180   */\n      tag_189\n        /* \"#utility.yul\":2172:2179   */\n      dup6\n        /* \"#utility.yul\":2163:2169   */\n      dup3\n        /* \"#utility.yul\":2152:2161   */\n      dup7\n        /* \"#utility.yul\":2148:2170   */\n      add\n        /* \"#utility.yul\":2127:2180   */\n      tag_166\n      jump\t// in\n    tag_189:\n        /* \"#utility.yul\":2117:2180   */\n      swap2\n      pop\n        /* \"#utility.yul\":2072:2190   */\n      pop\n        /* \"#utility.yul\":1723:2197   */\n      swap3\n      pop\n      swap3\n      swap1\n      pop\n      jump\t// out\n        /* \"#utility.yul\":2203:2554   */\n    tag_83:\n        /* \"#utility.yul\":2273:2279   */\n      0x00\n        /* \"#utility.yul\":2322:2324   */\n      0x20\n        /* \"#utility.yul\":2310:2319   */\n      dup3\n        /* \"#utility.yul\":2301:2308   */\n      dup5\n        /* \"#utility.yul\":2297:2320   */\n      sub\n        /* \"#utility.yul\":2293:2325   */\n      slt\n        /* \"#utility.yul\":2290:2409   */\n      iszero\n      tag_191\n      jumpi\n        /* \"#utility.yul\":2328:2407   */\n      tag_192\n      tag_176\n      jump\t// in\n    tag_192:\n        /* \"#utility.yul\":2290:2409   */\n    tag_191:\n        /* \"#utility.yul\":2448:2449   */\n      0x00\n        /* \"#utility.yul\":2473:2537   */\n      tag_193\n        /* \"#utility.yul\":2529:2536   */\n      dup5\n        /* \"#utility.yul\":2520:2526   */\n      dup3\n        /* \"#utility.yul\":2509:2518   */\n      dup6\n        /* \"#utility.yul\":2505:2527   */\n      add\n        /* \"#utility.yul\":2473:2537   */\n      tag_170\n      jump\t// in\n    tag_193:\n        /* \"#utility.yul\":2463:2537   */\n      swap2\n      pop\n        /* \"#utility.yul\":2419:2547   */\n      pop\n        /* \"#utility.yul\":2203:2554   */\n      swap3\n      swap2\n      pop\n      pop\n      jump\t// out\n        /* \"#utility.yul\":2560:2678   */\n    tag_194:\n        /* \"#utility.yul\":2647:2671   */\n      tag_196\n        /* \"#utility.yul\":2665:2670   */\n      dup2\n        /* \"#utility.yul\":2647:2671   */\n      tag_197\n      jump\t// in\n    tag_196:\n        /* \"#utility.yul\":2642:2645   */\n      dup3\n        /* \"#utility.yul\":2635:2672   */\n      mstore\n        /* \"#utility.yul\":2560:2678   */\n      pop\n      pop\n      jump\t// out\n        /* \"#utility.yul\":2684:2793   */\n    tag_198:\n        /* \"#utility.yul\":2765:2786   */\n      tag_200\n        /* \"#utility.yul\":2780:2785   */\n      dup2\n        /* \"#utility.yul\":2765:2786   */\n      tag_201\n      jump\t// in\n    tag_200:\n        /* \"#utility.yul\":2760:2763   */\n      dup3\n        /* \"#utility.yul\":2753:2787   */\n      mstore\n        /* \"#utility.yul\":2684:2793   */\n      pop\n      pop\n      jump\t// out\n        /* \"#utility.yul\":2799:3165   */\n    tag_202:\n        /* \"#utility.yul\":2941:2944   */\n      0x00\n        /* \"#utility.yul\":2962:3029   */\n      tag_204\n        /* \"#utility.yul\":3026:3028   */\n      0x0b\n        /* \"#utility.yul\":3021:3024   */\n      dup4\n        /* \"#utility.yul\":2962:3029   */\n      tag_205\n      jump\t// in\n    tag_204:\n        /* \"#utility.yul\":2955:3029   */\n      swap2\n      pop\n        /* \"#utility.yul\":3038:3131   */\n      tag_206\n        /* \"#utility.yul\":3127:3130   */\n      dup3\n        /* \"#utility.yul\":3038:3131   */\n      tag_207\n      jump\t// in\n    tag_206:\n        /* \"#utility.yul\":3156:3158   */\n      0x20\n        /* \"#utility.yul\":3151:3154   */\n      dup3\n        /* \"#utility.yul\":3147:3159   */\n      add\n        /* \"#utility.yul\":3140:3159   */\n      swap1\n      pop\n        /* \"#utility.yul\":2799:3165   */\n      swap2\n      swap1\n      pop\n      jump\t// out\n        /* \"#utility.yul\":3171:3537   */\n    tag_208:\n        /* \"#utility.yul\":3313:3316   */\n      0x00\n        /* \"#utility.yul\":3334:3401   */\n      tag_210\n        /* \"#utility.yul\":3398:3400   */\n      0x0d\n        /* \"#utility.yul\":3393:3396   */\n      dup4\n        /* \"#utility.yul\":3334:3401   */\n      tag_205\n      jump\t// in\n    tag_210:\n        /* \"#utility.yul\":3327:3401   */\n      swap2\n      pop\n        /* \"#utility.yul\":3410:3503   */\n      tag_211\n        /* \"#utility.yul\":3499:3502   */\n      dup3\n        /* \"#utility.yul\":3410:3503   */\n      tag_212\n      jump\t// in\n    tag_211:\n        /* \"#utility.yul\":3528:3530   */\n      0x20\n        /* \"#utility.yul\":3523:3526   */\n      dup3\n        /* \"#utility.yul\":3519:3531   */\n      add\n        /* \"#utility.yul\":3512:3531   */\n      swap1\n      pop\n        /* \"#utility.yul\":3171:3537   */\n      swap2\n      swap1\n      pop\n      jump\t// out\n        /* \"#utility.yul\":3543:3908   */\n    tag_213:\n        /* \"#utility.yul\":3685:3688   */\n      0x00\n        /* \"#utility.yul\":3706:3772   */\n      tag_215\n        /* \"#utility.yul\":3770:3771   */\n      0x09\n        /* \"#utility.yul\":3765:3768   */\n      dup4\n        /* \"#utility.yul\":3706:3772   */\n      tag_205\n      jump\t// in\n    tag_215:\n        /* \"#utility.yul\":3699:3772   */\n      swap2\n      pop\n        /* \"#utility.yul\":3781:3874   */\n      tag_216\n        /* \"#utility.yul\":3870:3873   */\n      dup3\n        /* \"#utility.yul\":3781:3874   */\n      tag_217\n      jump\t// in\n    tag_216:\n        /* \"#utility.yul\":3899:3901   */\n      0x20\n        /* \"#utility.yul\":3894:3897   */\n      dup3\n        /* \"#utility.yul\":3890:3902   */\n      add\n        /* \"#utility.yul\":3883:3902   */\n      swap1\n      pop\n        /* \"#utility.yul\":3543:3908   */\n      swap2\n      swap1\n      pop\n      jump\t// out\n        /* \"#utility.yul\":3914:4032   */\n    tag_218:\n        /* \"#utility.yul\":4001:4025   */\n      tag_220\n        /* \"#utility.yul\":4019:4024   */\n      dup2\n        /* \"#utility.yul\":4001:4025   */\n      tag_221\n      jump\t// in\n    tag_220:\n        /* \"#utility.yul\":3996:3999   */\n      dup3\n        /* \"#utility.yul\":3989:4026   */\n      mstore\n        /* \"#utility.yul\":3914:4032   */\n      pop\n      pop\n      jump\t// out\n        /* \"#utility.yul\":4038:4480   */\n    tag_119:\n        /* \"#utility.yul\":4187:4191   */\n      0x00\n        /* \"#utility.yul\":4225:4227   */\n      0x60\n        /* \"#utility.yul\":4214:4223   */\n      dup3\n        /* \"#utility.yul\":4210:4228   */\n      add\n        /* \"#utility.yul\":4202:4228   */\n      swap1\n      pop\n        /* \"#utility.yul\":4238:4309   */\n      tag_223\n        /* \"#utility.yul\":4306:4307   */\n      0x00\n        /* \"#utility.yul\":4295:4304   */\n      dup4\n        /* \"#utility.yul\":4291:4308   */\n      add\n        /* \"#utility.yul\":4282:4288   */\n      dup7\n        /* \"#utility.yul\":4238:4309   */\n      tag_194\n      jump\t// in\n    tag_223:\n        /* \"#utility.yul\":4319:4391   */\n      tag_224\n        /* \"#utility.yul\":4387:4389   */\n      0x20\n        /* \"#utility.yul\":4376:4385   */\n      dup4\n        /* \"#utility.yul\":4372:4390   */\n      add\n        /* \"#utility.yul\":4363:4369   */\n      dup6\n        /* \"#utility.yul\":4319:4391   */\n      tag_194\n      jump\t// in\n    tag_224:\n        /* \"#utility.yul\":4401:4473   */\n      tag_225\n        /* \"#utility.yul\":4469:4471   */\n      0x40\n        /* \"#utility.yul\":4458:4467   */\n      dup4\n        /* \"#utility.yul\":4454:4472   */\n      add\n        /* \"#utility.yul\":4445:4451   */\n      dup5\n        /* \"#utility.yul\":4401:4473   */\n      tag_218\n      jump\t// in\n    tag_225:\n        /* \"#utility.yul\":4038:4480   */\n      swap5\n      swap4\n      pop\n      pop\n      pop\n      pop\n      jump\t// out\n        /* \"#utility.yul\":4486:4818   */\n    tag_78:\n        /* \"#utility.yul\":4607:4611   */\n      0x00\n        /* \"#utility.yul\":4645:4647   */\n      0x40\n        /* \"#utility.yul\":4634:4643   */\n      dup3\n        /* \"#utility.yul\":4630:4648   */\n      add\n        /* \"#utility.yul\":4622:4648   */\n      swap1\n      pop\n        /* \"#utility.yul\":4658:4729   */\n      tag_227\n        /* \"#utility.yul\":4726:4727   */\n      0x00\n        /* \"#utility.yul\":4715:4724   */\n      dup4\n        /* \"#utility.yul\":4711:4728   */\n      add\n        /* \"#utility.yul\":4702:4708   */\n      dup6\n        /* \"#utility.yul\":4658:4729   */\n      tag_194\n      jump\t// in\n    tag_227:\n        /* \"#utility.yul\":4739:4811   */\n      tag_228\n        /* \"#utility.yul\":4807:4809   */\n      0x20\n        /* \"#utility.yul\":4796:4805   */\n      dup4\n        /* \"#utility.yul\":4792:4810   */\n      add\n        /* \"#utility.yul\":4783:4789   */\n      dup5\n        /* \"#utility.yul\":4739:4811   */\n      tag_218\n      jump\t// in\n    tag_228:\n        /* \"#utility.yul\":4486:4818   */\n      swap4\n      swap3\n      pop\n      pop\n      pop\n      jump\t// out\n        /* \"#utility.yul\":4824:5266   */\n    tag_66:\n        /* \"#utility.yul\":4973:4977   */\n      0x00\n        /* \"#utility.yul\":5011:5013   */\n      0x60\n        /* \"#utility.yul\":5000:5009   */\n      dup3\n        /* \"#utility.yul\":4996:5014   */\n      add\n        /* \"#utility.yul\":4988:5014   */\n      swap1\n      pop\n        /* \"#utility.yul\":5024:5095   */\n      tag_230\n        /* \"#utility.yul\":5092:5093   */\n      0x00\n        /* \"#utility.yul\":5081:5090   */\n      dup4\n        /* \"#utility.yul\":5077:5094   */\n      add\n        /* \"#utility.yul\":5068:5074   */\n      dup7\n        /* \"#utility.yul\":5024:5095   */\n      tag_194\n      jump\t// in\n    tag_230:\n        /* \"#utility.yul\":5105:5177   */\n      tag_231\n        /* \"#utility.yul\":5173:5175   */\n      0x20\n        /* \"#utility.yul\":5162:5171   */\n      dup4\n        /* \"#utility.yul\":5158:5176   */\n      add\n        /* \"#utility.yul\":5149:5155   */\n      dup6\n        /* \"#utility.yul\":5105:5177   */\n      tag_218\n      jump\t// in\n    tag_231:\n        /* \"#utility.yul\":5187:5259   */\n      tag_232\n        /* \"#utility.yul\":5255:5257   */\n      0x40\n        /* \"#utility.yul\":5244:5253   */\n      dup4\n        /* \"#utility.yul\":5240:5258   */\n      add\n        /* \"#utility.yul\":5231:5237   */\n      dup5\n        /* \"#utility.yul\":5187:5259   */\n      tag_218\n      jump\t// in\n    tag_232:\n        /* \"#utility.yul\":4824:5266   */\n      swap5\n      swap4\n      pop\n      pop\n      pop\n      pop\n      jump\t// out\n        /* \"#utility.yul\":5272:5482   */\n    tag_21:\n        /* \"#utility.yul\":5359:5363   */\n      0x00\n        /* \"#utility.yul\":5397:5399   */\n      0x20\n        /* \"#utility.yul\":5386:5395   */\n      dup3\n        /* \"#utility.yul\":5382:5400   */\n      add\n        /* \"#utility.yul\":5374:5400   */\n      swap1\n      pop\n        /* \"#utility.yul\":5410:5475   */\n      tag_234\n        /* \"#utility.yul\":5472:5473   */\n      0x00\n        /* \"#utility.yul\":5461:5470   */\n      dup4\n        /* \"#utility.yul\":5457:5474   */\n      add\n        /* \"#utility.yul\":5448:5454   */\n      dup5\n        /* \"#utility.yul\":5410:5475   */\n      tag_198\n      jump\t// in\n    tag_234:\n        /* \"#utility.yul\":5272:5482   */\n      swap3\n      swap2\n      pop\n      pop\n      jump\t// out\n        /* \"#utility.yul\":5488:5907   */\n    tag_129:\n        /* \"#utility.yul\":5654:5658   */\n      0x00\n        /* \"#utility.yul\":5692:5694   */\n      0x20\n        /* \"#utility.yul\":5681:5690   */\n      dup3\n        /* \"#utility.yul\":5677:5695   */\n      add\n        /* \"#utility.yul\":5669:5695   */\n      swap1\n      pop\n        /* \"#utility.yul\":5741:5750   */\n      dup2\n        /* \"#utility.yul\":5735:5739   */\n      dup2\n        /* \"#utility.yul\":5731:5751   */\n      sub\n        /* \"#utility.yul\":5727:5728   */\n      0x00\n        /* \"#utility.yul\":5716:5725   */\n      dup4\n        /* \"#utility.yul\":5712:5729   */\n      add\n        /* \"#utility.yul\":5705:5752   */\n      mstore\n        /* \"#utility.yul\":5769:5900   */\n      tag_236\n        /* \"#utility.yul\":5895:5899   */\n      dup2\n        /* \"#utility.yul\":5769:5900   */\n      tag_202\n      jump\t// in\n    tag_236:\n        /* \"#utility.yul\":5761:5900   */\n      swap1\n      pop\n        /* \"#utility.yul\":5488:5907   */\n      swap2\n      swap1\n      pop\n      jump\t// out\n        /* \"#utility.yul\":5913:6332   */\n    tag_45:\n        /* \"#utility.yul\":6079:6083   */\n      0x00\n        /* \"#utility.yul\":6117:6119   */\n      0x20\n        /* \"#utility.yul\":6106:6115   */\n      dup3\n        /* \"#utility.yul\":6102:6120   */\n      add\n        /* \"#utility.yul\":6094:6120   */\n      swap1\n      pop\n        /* \"#utility.yul\":6166:6175   */\n      dup2\n        /* \"#utility.yul\":6160:6164   */\n      dup2\n        /* \"#utility.yul\":6156:6176   */\n      sub\n        /* \"#utility.yul\":6152:6153   */\n      0x00\n        /* \"#utility.yul\":6141:6150   */\n      dup4\n        /* \"#utility.yul\":6137:6154   */\n      add\n        /* \"#utility.yul\":6130:6177   */\n      mstore\n        /* \"#utility.yul\":6194:6325   */\n      tag_238\n        /* \"#utility.yul\":6320:6324   */\n      dup2\n        /* \"#utility.yul\":6194:6325   */\n      tag_208\n      jump\t// in\n    tag_238:\n        /* \"#utility.yul\":6186:6325   */\n      swap1\n      pop\n        /* \"#utility.yul\":5913:6332   */\n      swap2\n      swap1\n      pop\n      jump\t// out\n        /* \"#utility.yul\":6338:6757   */\n    tag_48:\n        /* \"#utility.yul\":6504:6508   */\n      0x00\n        /* \"#utility.yul\":6542:6544   */\n      0x20\n        /* \"#utility.yul\":6531:6540   */\n      dup3\n        /* \"#utility.yul\":6527:6545   */\n      add\n        /* \"#utility.yul\":6519:6545   */\n      swap1\n      pop\n        /* \"#utility.yul\":6591:6600   */\n      dup2\n        /* \"#utility.yul\":6585:6589   */\n      dup2\n        /* \"#utility.yul\":6581:6601   */\n      sub\n        /* \"#utility.yul\":6577:6578   */\n      0x00\n        /* \"#utility.yul\":6566:6575   */\n      dup4\n        /* \"#utility.yul\":6562:6579   */\n      add\n        /* \"#utility.yul\":6555:6602   */\n      mstore\n        /* \"#utility.yul\":6619:6750   */\n      tag_240\n        /* \"#utility.yul\":6745:6749   */\n      dup2\n        /* \"#utility.yul\":6619:6750   */\n      tag_213\n      jump\t// in\n    tag_240:\n        /* \"#utility.yul\":6611:6750   */\n      swap1\n      pop\n        /* \"#utility.yul\":6338:6757   */\n      swap2\n      swap1\n      pop\n      jump\t// out\n        /* \"#utility.yul\":6763:6985   */\n    tag_15:\n        /* \"#utility.yul\":6856:6860   */\n      0x00\n        /* \"#utility.yul\":6894:6896   */\n      0x20\n        /* \"#utility.yul\":6883:6892   */\n      dup3\n        /* \"#utility.yul\":6879:6897   */\n      add\n        /* \"#utility.yul\":6871:6897   */\n      swap1\n      pop\n        /* \"#utility.yul\":6907:6978   */\n      tag_242\n        /* \"#utility.yul\":6975:6976   */\n      0x00\n        /* \"#utility.yul\":6964:6973   */\n      dup4\n        /* \"#utility.yul\":6960:6977   */\n      add\n        /* \"#utility.yul\":6951:6957   */\n      dup5\n        /* \"#utility.yul\":6907:6978   */\n      tag_218\n      jump\t// in\n    tag_242:\n        /* \"#utility.yul\":6763:6985   */\n      swap3\n      swap2\n      pop\n      pop\n      jump\t// out\n        /* \"#utility.yul\":6991:7311   */\n    tag_35:\n        /* \"#utility.yul\":7106:7110   */\n      0x00\n        /* \"#utility.yul\":7144:7146   */\n      0x40\n        /* \"#utility.yul\":7133:7142   */\n      dup3\n        /* \"#utility.yul\":7129:7147   */\n      add\n        /* \"#utility.yul\":7121:7147   */\n      swap1\n      pop\n        /* \"#utility.yul\":7157:7228   */\n      tag_244\n        /* \"#utility.yul\":7225:7226   */\n      0x00\n        /* \"#utility.yul\":7214:7223   */\n      dup4\n        /* \"#utility.yul\":7210:7227   */\n      add\n        /* \"#utility.yul\":7201:7207   */\n      dup6\n        /* \"#utility.yul\":7157:7228   */\n      tag_218\n      jump\t// in\n    tag_244:\n        /* \"#utility.yul\":7238:7304   */\n      tag_245\n        /* \"#utility.yul\":7300:7302   */\n      0x20\n        /* \"#utility.yul\":7289:7298   */\n      dup4\n        /* \"#utility.yul\":7285:7303   */\n      add\n        /* \"#utility.yul\":7276:7282   */\n      dup5\n        /* \"#utility.yul\":7238:7304   */\n      tag_198\n      jump\t// in\n    tag_245:\n        /* \"#utility.yul\":6991:7311   */\n      swap4\n      swap3\n      pop\n      pop\n      pop\n      jump\t// out\n        /* \"#utility.yul\":7398:7567   */\n    tag_205:\n        /* \"#utility.yul\":7482:7493   */\n      0x00\n        /* \"#utility.yul\":7516:7522   */\n      dup3\n        /* \"#utility.yul\":7511:7514   */\n      dup3\n        /* \"#utility.yul\":7504:7523   */\n      mstore\n        /* \"#utility.yul\":7556:7560   */\n      0x20\n        /* \"#utility.yul\":7551:7554   */\n      dup3\n        /* \"#utility.yul\":7547:7561   */\n      add\n        /* \"#utility.yul\":7532:7561   */\n      swap1\n      pop\n        /* \"#utility.yul\":7398:7567   */\n      swap3\n      swap2\n      pop\n      pop\n      jump\t// out\n        /* \"#utility.yul\":7573:7878   */\n    tag_33:\n        /* \"#utility.yul\":7613:7616   */\n      0x00\n        /* \"#utility.yul\":7632:7652   */\n      tag_250\n        /* \"#utility.yul\":7650:7651   */\n      dup3\n        /* \"#utility.yul\":7632:7652   */\n      tag_221\n      jump\t// in\n    tag_250:\n        /* \"#utility.yul\":7627:7652   */\n      swap2\n      pop\n        /* \"#utility.yul\":7666:7686   */\n      tag_251\n        /* \"#utility.yul\":7684:7685   */\n      dup4\n        /* \"#utility.yul\":7666:7686   */\n      tag_221\n      jump\t// in\n    tag_251:\n        /* \"#utility.yul\":7661:7686   */\n      swap3\n      pop\n        /* \"#utility.yul\":7820:7821   */\n      dup3\n        /* \"#utility.yul\":7752:7818   */\n      0xffffffffffffffffffffffffffffffffffffffffffffffffffffffffffffffff\n        /* \"#utility.yul\":7748:7822   */\n      sub\n        /* \"#utility.yul\":7745:7746   */\n      dup3\n        /* \"#utility.yul\":7742:7823   */\n      gt\n        /* \"#utility.yul\":7739:7846   */\n      iszero\n      tag_252\n      jumpi\n        /* \"#utility.yul\":7826:7844   */\n      tag_253\n      tag_254\n      jump\t// in\n    tag_253:\n        /* \"#utility.yul\":7739:7846   */\n    tag_252:\n        /* \"#utility.yul\":7870:7871   */\n      dup3\n        /* \"#utility.yul\":7867:7868   */\n      dup3\n        /* \"#utility.yul\":7863:7872   */\n      add\n        /* \"#utility.yul\":7856:7872   */\n      swap1\n      pop\n        /* \"#utility.yul\":7573:7878   */\n      swap3\n      swap2\n      pop\n      pop\n      jump\t// out\n        /* \"#utility.yul\":7884:8069   */\n    tag_50:\n        /* \"#utility.yul\":7924:7925   */\n      0x00\n        /* \"#utility.yul\":7941:7961   */\n      tag_256\n        /* \"#utility.yul\":7959:7960   */\n      dup3\n        /* \"#utility.yul\":7941:7961   */\n      tag_221\n      jump\t// in\n    tag_256:\n        /* \"#utility.yul\":7936:7961   */\n      swap2\n      pop\n        /* \"#utility.yul\":7975:7995   */\n      tag_257\n        /* \"#utility.yul\":7993:7994   */\n      dup4\n        /* \"#utility.yul\":7975:7995   */\n      tag_221\n      jump\t// in\n    tag_257:\n        /* \"#utility.yul\":7970:7995   */\n      swap3\n      pop\n        /* \"#utility.yul\":8014:8015   */\n      dup3\n        /* \"#utility.yul\":8004:8039   */\n      tag_258\n      jumpi\n        /* \"#utility.yul\":8019:8037   */\n      tag_259\n      tag_260\n      jump\t// in\n    tag_259:\n        /* \"#utility.yul\":8004:8039   */\n    tag_258:\n        /* \"#utility.yul\":8061:8062   */\n      dup3\n        /* \"#utility.yul\":8058:8059   */\n      dup3\n        /* \"#utility.yul\":8054:8063   */\n      div\n        /* \"#utility.yul\":8049:8063   */\n      swap1\n      pop\n        /* \"#utility.yul\":7884:8069   */\n      swap3\n      swap2\n      pop\n      pop\n      jump\t// out\n        /* \"#utility.yul\":8075:8266   */\n    tag_52:\n        /* \"#utility.yul\":8115:8119   */\n      0x00\n        /* \"#utility.yul\":8135:8155   */\n      tag_262\n        /* \"#utility.yul\":8153:8154   */\n      dup3\n        /* \"#utility.yul\":8135:8155   */\n      tag_221\n      jump\t// in\n    tag_262:\n        /* \"#utility.yul\":8130:8155   */\n      swap2\n      pop\n        /* \"#utility.yul\":8169:8189   */\n      tag_263\n        /* \"#utility.yul\":8187:8188   */\n      dup4\n        /* \"#utility.yul\":8169:8189   */\n      tag_221\n      jump\t// in\n    tag_263:\n        /* \"#utility.yul\":8164:8189   */\n      swap3\n      pop\n        /* \"#utility.yul\":8208:8209   */\n      dup3\n        /* \"#utility.yul\":8205:8206   */\n      dup3\n        /* \"#utility.yul\":8202:8210   */\n      lt\n        /* \"#utility.yul\":8199:8233   */\n      iszero\n      tag_264\n      jumpi\n        /* \"#utility.yul\":8213:8231   */\n      tag_265\n      tag_254\n      jump\t// in\n    tag_265:\n        /* \"#utility.yul\":8199:8233   */\n    tag_264:\n        /* \"#utility.yul\":8258:8259   */\n      dup3\n        /* \"#utility.yul\":8255:8256   */\n      dup3\n        /* \"#utility.yul\":8251:8260   */\n      sub\n        /* \"#utility.yul\":8243:8260   */\n      swap1\n      pop\n        /* \"#utility.yul\":8075:8266   */\n      swap3\n      swap2\n      pop\n      pop\n      jump\t// out\n        /* \"#utility.yul\":8272:8368   */\n    tag_197:\n        /* \"#utility.yul\":8309:8316   */\n      0x00\n        /* \"#utility.yul\":8338:8362   */\n      tag_267\n        /* \"#utility.yul\":8356:8361   */\n      dup3\n        /* \"#utility.yul\":8338:8362   */\n      tag_268\n      jump\t// in\n    tag_267:\n        /* \"#utility.yul\":8327:8362   */\n      swap1\n      pop\n        /* \"#utility.yul\":8272:8368   */\n      swap2\n      swap1\n      pop\n      jump\t// out\n        /* \"#utility.yul\":8374:8464   */\n    tag_201:\n        /* \"#utility.yul\":8408:8415   */\n      0x00\n        /* \"#utility.yul\":8451:8456   */\n      dup2\n        /* \"#utility.yul\":8444:8457   */\n      iszero\n        /* \"#utility.yul\":8437:8458   */\n      iszero\n        /* \"#utility.yul\":8426:8458   */\n      swap1\n      pop\n        /* \"#utility.yul\":8374:8464   */\n      swap2\n      swap1\n      pop\n      jump\t// out\n        /* \"#utility.yul\":8470:8596   */\n    tag_268:\n        /* \"#utility.yul\":8507:8514   */\n      0x00\n        /* \"#utility.yul\":8547:8589   */\n      0xffffffffffffffffffffffffffffffffffffffff\n        /* \"#utility.yul\":8540:8545   */\n      dup3\n        /* \"#utility.yul\":8536:8590   */\n      and\n        /* \"#utility.yul\":8525:8590   */\n      swap1\n      pop\n        /* \"#utility.yul\":8470:8596   */\n      swap2\n      swap1\n      pop\n      jump\t// out\n        /* \"#utility.yul\":8602:8679   */\n    tag_221:\n        /* \"#utility.yul\":8639:8646   */\n      0x00\n        /* \"#utility.yul\":8668:8673   */\n      dup2\n        /* \"#utility.yul\":8657:8673   */\n      swap1\n      pop\n        /* \"#utility.yul\":8602:8679   */\n      swap2\n      swap1\n      pop\n      jump\t// out\n        /* \"#utility.yul\":8685:8856   */\n    tag_117:\n        /* \"#utility.yul\":8724:8727   */\n      0x00\n        /* \"#utility.yul\":8747:8771   */\n      tag_273\n        /* \"#utility.yul\":8765:8770   */\n      dup3\n        /* \"#utility.yul\":8747:8771   */\n      tag_221\n      jump\t// in\n    tag_273:\n        /* \"#utility.yul\":8738:8771   */\n      swap2\n      pop\n        /* \"#utility.yul\":8793:8797   */\n      0x00\n        /* \"#utility.yul\":8786:8791   */\n      dup3\n        /* \"#utility.yul\":8783:8798   */\n      eq\n        /* \"#utility.yul\":8780:8821   */\n      iszero\n      tag_274\n      jumpi\n        /* \"#utility.yul\":8801:8819   */\n      tag_275\n      tag_254\n      jump\t// in\n    tag_275:\n        /* \"#utility.yul\":8780:8821   */\n    tag_274:\n        /* \"#utility.yul\":8848:8849   */\n      0x01\n        /* \"#utility.yul\":8841:8846   */\n      dup3\n        /* \"#utility.yul\":8837:8850   */\n      sub\n        /* \"#utility.yul\":8830:8850   */\n      swap1\n      pop\n        /* \"#utility.yul\":8685:8856   */\n      swap2\n      swap1\n      pop\n      jump\t// out\n        /* \"#utility.yul\":8862:9095   */\n    tag_90:\n        /* \"#utility.yul\":8901:8904   */\n      0x00\n        /* \"#utility.yul\":8924:8948   */\n      tag_277\n        /* \"#utility.yul\":8942:8947   */\n      dup3\n        /* \"#utility.yul\":8924:8948   */\n      tag_221\n      jump\t// in\n    tag_277:\n        /* \"#utility.yul\":8915:8948   */\n      swap2\n      pop\n        /* \"#utility.yul\":8970:9036   */\n      0xffffffffffffffffffffffffffffffffffffffffffffffffffffffffffffffff\n        /* \"#utility.yul\":8963:8968   */\n      dup3\n        /* \"#utility.yul\":8960:9037   */\n      eq\n        /* \"#utility.yul\":8957:9060   */\n      iszero\n      tag_278\n      jumpi\n        /* \"#utility.yul\":9040:9058   */\n      tag_279\n      tag_254\n      jump\t// in\n    tag_279:\n        /* \"#utility.yul\":8957:9060   */\n    tag_278:\n        /* \"#utility.yul\":9087:9088   */\n      0x01\n        /* \"#utility.yul\":9080:9085   */\n      dup3\n        /* \"#utility.yul\":9076:9089   */\n      add\n        /* \"#utility.yul\":9069:9089   */\n      swap1\n      pop\n        /* \"#utility.yul\":8862:9095   */\n      swap2\n      swap1\n      pop\n      jump\t// out\n        /* \"#utility.yul\":9101:9281   */\n    tag_254:\n        /* \"#utility.yul\":9149:9226   */\n      0x4e487b7100000000000000000000000000000000000000000000000000000000\n        /* \"#utility.yul\":9146:9147   */\n      0x00\n        /* \"#utility.yul\":9139:9227   */\n      mstore\n        /* \"#utility.yul\":9246:9250   */\n      0x11\n        /* \"#utility.yul\":9243:9244   */\n      0x04\n        /* \"#utility.yul\":9236:9251   */\n      mstore\n        /* \"#utility.yul\":9270:9274   */\n      0x24\n        /* \"#utility.yul\":9267:9268   */\n      0x00\n        /* \"#utility.yul\":9260:9275   */\n      revert\n        /* \"#utility.yul\":9287:9467   */\n    tag_260:\n        /* \"#utility.yul\":9335:9412   */\n      0x4e487b7100000000000000000000000000000000000000000000000000000000\n        /* \"#utility.yul\":9332:9333   */\n      0x00\n        /* \"#utility.yul\":9325:9413   */\n      mstore\n        /* \"#utility.yul\":9432:9436   */\n      0x12\n        /* \"#utility.yul\":9429:9430   */\n      0x04\n        /* \"#utility.yul\":9422:9437   */\n      mstore\n        /* \"#utility.yul\":9456:9460   */\n      0x24\n        /* \"#utility.yul\":9453:9454   */\n      0x00\n        /* \"#utility.yul\":9446:9461   */\n      revert\n        /* \"#utility.yul\":9473:9653   */\n    tag_114:\n        /* \"#utility.yul\":9521:9598   */\n      0x4e487b7100000000000000000000000000000000000000000000000000000000\n        /* \"#utility.yul\":9518:9519   */\n      0x00\n        /* \"#utility.yul\":9511:9599   */\n      mstore\n        /* \"#utility.yul\":9618:9622   */\n      0x31\n        /* \"#utility.yul\":9615:9616   */\n      0x04\n        /* \"#utility.yul\":9608:9623   */\n      mstore\n        /* \"#utility.yul\":9642:9646   */\n      0x24\n        /* \"#utility.yul\":9639:9640   */\n      0x00\n        /* \"#utility.yul\":9632:9647   */\n      revert\n        /* \"#utility.yul\":9659:9839   */\n    tag_98:\n        /* \"#utility.yul\":9707:9784   */\n      0x4e487b7100000000000000000000000000000000000000000000000000000000\n        /* \"#utility.yul\":9704:9705   */\n      0x00\n        /* \"#utility.yul\":9697:9785   */\n      mstore\n        /* \"#utility.yul\":9804:9808   */\n      0x32\n        /* \"#utility.yul\":9801:9802   */\n      0x04\n        /* \"#utility.yul\":9794:9809   */\n      mstore\n        /* \"#utility.yul\":9828:9832   */\n      0x24\n        /* \"#utility.yul\":9825:9826   */\n      0x00\n        /* \"#utility.yul\":9818:9833   */\n      revert\n        /* \"#utility.yul\":9968:10085   */\n    tag_176:\n        /* \"#utility.yul\":10077:10078   */\n      0x00\n        /* \"#utility.yul\":10074:10075   */\n      dup1\n        /* \"#utility.yul\":10067:10079   */\n      revert\n        /* \"#utility.yul\":10091:10252   */\n    tag_207:\n        /* \"#utility.yul\":10231:10244   */\n      0x4f6666657220697320302e000000000000000000000000000000000000000000\n        /* \"#utility.yul\":10227:10228   */\n      0x00\n        /* \"#utility.yul\":10219:10225   */\n      dup3\n        /* \"#utility.yul\":10215:10229   */\n      add\n        /* \"#utility.yul\":10208:10245   */\n      mstore\n        /* \"#utility.yul\":10091:10252   */\n      pop\n      jump\t// out\n        /* \"#utility.yul\":10258:10421   */\n    tag_212:\n        /* \"#utility.yul\":10398:10413   */\n      0x556e617574686f72697a65642e00000000000000000000000000000000000000\n        /* \"#utility.yul\":10394:10395   */\n      0x00\n        /* \"#utility.yul\":10386:10392   */\n      dup3\n        /* \"#utility.yul\":10382:10396   */\n      add\n        /* \"#utility.yul\":10375:10414   */\n      mstore\n        /* \"#utility.yul\":10258:10421   */\n      pop\n      jump\t// out\n        /* \"#utility.yul\":10427:10586   */\n    tag_217:\n        /* \"#utility.yul\":10567:10578   */\n      0x4e6f206f666665722e0000000000000000000000000000000000000000000000\n        /* \"#utility.yul\":10563:10564   */\n      0x00\n        /* \"#utility.yul\":10555:10561   */\n      dup3\n        /* \"#utility.yul\":10551:10565   */\n      add\n        /* \"#utility.yul\":10544:10579   */\n      mstore\n        /* \"#utility.yul\":10427:10586   */\n      pop\n      jump\t// out\n        /* \"#utility.yul\":10592:10714   */\n    tag_162:\n        /* \"#utility.yul\":10665:10689   */\n      tag_291\n        /* \"#utility.yul\":10683:10688   */\n      dup2\n        /* \"#utility.yul\":10665:10689   */\n      tag_197\n      jump\t// in\n    tag_291:\n        /* \"#utility.yul\":10658:10663   */\n      dup2\n        /* \"#utility.yul\":10655:10690   */\n      eq\n        /* \"#utility.yul\":10645:10708   */\n      tag_292\n      jumpi\n        /* \"#utility.yul\":10704:10705   */\n      0x00\n        /* \"#utility.yul\":10701:10702   */\n      dup1\n        /* \"#utility.yul\":10694:10706   */\n      revert\n        /* \"#utility.yul\":10645:10708   */\n    tag_292:\n        /* \"#utility.yul\":10592:10714   */\n      pop\n      jump\t// out\n        /* \"#utility.yul\":10720:10842   */\n    tag_169:\n        /* \"#utility.yul\":10793:10817   */\n      tag_294\n        /* \"#utility.yul\":10811:10816   */\n      dup2\n        /* \"#utility.yul\":10793:10817   */\n      tag_221\n      jump\t// in\n    tag_294:\n        /* \"#utility.yul\":10786:10791   */\n      dup2\n        /* \"#utility.yul\":10783:10818   */\n      eq\n        /* \"#utility.yul\":10773:10836   */\n      tag_295\n      jumpi\n        /* \"#utility.yul\":10832:10833   */\n      0x00\n        /* \"#utility.yul\":10829:10830   */\n      dup1\n        /* \"#utility.yul\":10822:10834   */\n      revert\n        /* \"#utility.yul\":10773:10836   */\n    tag_295:\n        /* \"#utility.yul\":10720:10842   */\n      pop\n      jump\t// out\n\n    auxdata: 0xa2646970667358221220923789164cee13d9d560d7c4163357f23131fb16d0fdd2f6ff415f8c0c6f507b64736f6c63430008070033\n}\n",
				"bytecode": {
					"linkReferences": {},
					"object": "608060405234801561001057600080fd5b50611880806100206000396000f3fe60806040526004361061004a5760003560e01c80636b2129601461004f5780637bb98a681461006b578063aa1a841114610096578063bbb96976146100d3578063f3fef3a3146100ef575b600080fd5b61006960048036038101906100649190611300565b61010b565b005b34801561007757600080fd5b506100806102f8565b60405161008d9190611515565b60405180910390f35b3480156100a257600080fd5b506100bd60048036038101906100b89190611300565b6102fe565b6040516100ca919061149a565b60405180910390f35b6100ed60048036038101906100e89190611299565b610336565b005b61010960048036038101906101049190611300565b610d57565b005b60008060008473ffffffffffffffffffffffffffffffffffffffff1673ffffffffffffffffffffffffffffffffffffffff1681526020019081526020016000206000838152602001908152602001600020905060008160010160003373ffffffffffffffffffffffffffffffffffffffff1673ffffffffffffffffffffffffffffffffffffffff16815260200190815260200160002054141561020e5780600001339080600181540180825580915050600190039060005260206000200160009091909190916101000a81548173ffffffffffffffffffffffffffffffffffffffff021916908373ffffffffffffffffffffffffffffffffffffffff1602179055505b348160010160003373ffffffffffffffffffffffffffffffffffffffff1673ffffffffffffffffffffffffffffffffffffffff1681526020019081526020016000208190555060018160020160006101000a81548160ff0219169083151502179055503460016000828254610283919061156a565b925050819055503373ffffffffffffffffffffffffffffffffffffffff16828473ffffffffffffffffffffffffffffffffffffffff167fa297a5039e151f85fd39b734d57194f31bf1ba744464810f8fa18941216c79b03460016040516102eb929190611530565b60405180910390a4505050565b60015481565b6000602052816000526040600020602052806000526040600020600091509150508060020160009054906101000a900460ff16905081565b60008060008573ffffffffffffffffffffffffffffffffffffffff1673ffffffffffffffffffffffffffffffffffffffff16815260200190815260200160002060008481526020019081526020016000209050600084905060008690503373ffffffffffffffffffffffffffffffffffffffff168273ffffffffffffffffffffffffffffffffffffffff16636352211e876040518263ffffffff1660e01b81526004016103e39190611515565b60206040518083038186803b1580156103fb57600080fd5b505afa15801561040f573d6000803e3d6000fd5b505050506040513d601f19601f82011682018060405250810190610433919061126c565b73ffffffffffffffffffffffffffffffffffffffff1614610489576040517f08c379a0000000000000000000000000000000000000000000000000000000008152600401610480906114d5565b60405180910390fd5b600115158360020160009054906101000a900460ff161515146104e1576040517f08c379a00000000000000000000000000000000000000000000000000000000081526004016104d8906114f5565b60405180910390fd5b3373ffffffffffffffffffffffffffffffffffffffff166108fc60148560010160008873ffffffffffffffffffffffffffffffffffffffff1673ffffffffffffffffffffffffffffffffffffffff1681526020019081526020016000205461054991906115c0565b8560010160008873ffffffffffffffffffffffffffffffffffffffff1673ffffffffffffffffffffffffffffffffffffffff1681526020019081526020016000205461059591906115f1565b9081150290604051600060405180830381858888f193505050501580156105c0573d6000803e3d6000fd5b508073ffffffffffffffffffffffffffffffffffffffff16638da5cb5b6040518163ffffffff1660e01b815260040160206040518083038186803b15801561060757600080fd5b505afa15801561061b573d6000803e3d6000fd5b505050506040513d601f19601f8201168201806040525081019061063f919061126c565b73ffffffffffffffffffffffffffffffffffffffff166108fc60148560010160008873ffffffffffffffffffffffffffffffffffffffff1673ffffffffffffffffffffffffffffffffffffffff168152602001908152602001600020546106a691906115c0565b9081150290604051600060405180830381858888f193505050501580156106d1573d6000803e3d6000fd5b5060005b600581101561097057600073ffffffffffffffffffffffffffffffffffffffff168273ffffffffffffffffffffffffffffffffffffffff16632973d6f88989856040518463ffffffff1660e01b815260040161073393929190611463565b60206040518083038186803b15801561074b57600080fd5b505afa15801561075f573d6000803e3d6000fd5b505050506040513d601f19601f82011682018060405250810190610783919061126c565b73ffffffffffffffffffffffffffffffffffffffff1614610958578173ffffffffffffffffffffffffffffffffffffffff16632973d6f88888846040518463ffffffff1660e01b81526004016107db93929190611463565b60206040518083038186803b1580156107f357600080fd5b505afa158015610807573d6000803e3d6000fd5b505050506040513d601f19601f8201168201806040525081019061082b919061126c565b73ffffffffffffffffffffffffffffffffffffffff166108fc8373ffffffffffffffffffffffffffffffffffffffff1663d178227a8a8a6040518363ffffffff1660e01b815260040161087f92919061143a565b60206040518083038186803b15801561089757600080fd5b505afa1580156108ab573d6000803e3d6000fd5b505050506040513d601f19601f820116820180604052508101906108cf9190611340565b60148760010160008a73ffffffffffffffffffffffffffffffffffffffff1673ffffffffffffffffffffffffffffffffffffffff1681526020019081526020016000205461091d91906115c0565b61092791906115c0565b9081150290604051600060405180830381858888f19350505050158015610952573d6000803e3d6000fd5b5061095d565b610970565b808061096890611697565b9150506106d5565b508260010160008573ffffffffffffffffffffffffffffffffffffffff1673ffffffffffffffffffffffffffffffffffffffff16815260200190815260200160002054600160008282546109c491906115f1565b9250508190555060008360020160006101000a81548160ff0219169083151502179055506000600184600001805490506109fe91906115f1565b90505b60008110610c8e57836000018181548110610a1f57610a1e61176d565b5b9060005260206000200160009054906101000a900473ffffffffffffffffffffffffffffffffffffffff1673ffffffffffffffffffffffffffffffffffffffff166108fc856001016000876000018581548110610a7f57610a7e61176d565b5b9060005260206000200160009054906101000a900473ffffffffffffffffffffffffffffffffffffffff1673ffffffffffffffffffffffffffffffffffffffff1673ffffffffffffffffffffffffffffffffffffffff168152602001908152602001600020549081150290604051600060405180830381858888f19350505050158015610b10573d6000803e3d6000fd5b50836001016000856000018381548110610b2d57610b2c61176d565b5b9060005260206000200160009054906101000a900473ffffffffffffffffffffffffffffffffffffffff1673ffffffffffffffffffffffffffffffffffffffff1673ffffffffffffffffffffffffffffffffffffffff1681526020019081526020016000205460016000828254610ba491906115f1565b925050819055506000846001016000866000018481548110610bc957610bc861176d565b5b9060005260206000200160009054906101000a900473ffffffffffffffffffffffffffffffffffffffff1673ffffffffffffffffffffffffffffffffffffffff1673ffffffffffffffffffffffffffffffffffffffff1681526020019081526020016000208190555083600001805480610c4657610c4561173e565b5b6001900381819060005260206000200160006101000a81549073ffffffffffffffffffffffffffffffffffffffff021916905590558080610c869061166d565b915050610a01565b508173ffffffffffffffffffffffffffffffffffffffff166323b872dd3386886040518463ffffffff1660e01b8152600401610ccc93929190611403565b600060405180830381600087803b158015610ce657600080fd5b505af1158015610cfa573d6000803e3d6000fd5b50505050848673ffffffffffffffffffffffffffffffffffffffff167f9663db6e9b1f015a82beb1b03ec8fed9d1a25b5da31b2cc92c2be9e8c629a80d6000604051610d46919061149a565b60405180910390a350505050505050565b60008060008473ffffffffffffffffffffffffffffffffffffffff1673ffffffffffffffffffffffffffffffffffffffff16815260200190815260200160002060008381526020019081526020016000209050600115158160020160009054906101000a900460ff16151514610e02576040517f08c379a0000000000000000000000000000000000000000000000000000000008152600401610df9906114f5565b60405180910390fd5b60008160010160003373ffffffffffffffffffffffffffffffffffffffff1673ffffffffffffffffffffffffffffffffffffffff1681526020019081526020016000205411610e86576040517f08c379a0000000000000000000000000000000000000000000000000000000008152600401610e7d906114b5565b60405180910390fd5b600060018260000180549050610e9c91906115f1565b9050816000018181548110610eb457610eb361176d565b5b9060005260206000200160009054906101000a900473ffffffffffffffffffffffffffffffffffffffff1673ffffffffffffffffffffffffffffffffffffffff163373ffffffffffffffffffffffffffffffffffffffff161415610f605781600001805480610f2657610f2561173e565b5b6001900381819060005260206000200160006101000a81549073ffffffffffffffffffffffffffffffffffffffff021916905590556110e8565b60005b82600001805490508110156110e6573373ffffffffffffffffffffffffffffffffffffffff16836000018281548110610f9f57610f9e61176d565b5b9060005260206000200160009054906101000a900473ffffffffffffffffffffffffffffffffffffffff1673ffffffffffffffffffffffffffffffffffffffff1614156110d357826000018281548110610ffc57610ffb61176d565b5b9060005260206000200160009054906101000a900473ffffffffffffffffffffffffffffffffffffffff1683600001828154811061103d5761103c61176d565b5b9060005260206000200160006101000a81548173ffffffffffffffffffffffffffffffffffffffff021916908373ffffffffffffffffffffffffffffffffffffffff160217905550826000018054806110995761109861173e565b5b6001900381819060005260206000200160006101000a81549073ffffffffffffffffffffffffffffffffffffffff021916905590556110e6565b80806110de90611697565b915050610f63565b505b3373ffffffffffffffffffffffffffffffffffffffff166108fc8360010160003373ffffffffffffffffffffffffffffffffffffffff1673ffffffffffffffffffffffffffffffffffffffff168152602001908152602001600020549081150290604051600060405180830381858888f1935050505015801561116f573d6000803e3d6000fd5b5060008260010160003373ffffffffffffffffffffffffffffffffffffffff1673ffffffffffffffffffffffffffffffffffffffff168152602001908152602001600020819055503373ffffffffffffffffffffffffffffffffffffffff16838573ffffffffffffffffffffffffffffffffffffffff167f5eee4de26cd3c0f49f086164989c02cd12d97a964804bc188ee593e26fb9818660405160405180910390a450505050565b6000813590506112278161181c565b92915050565b60008151905061123c8161181c565b92915050565b60008135905061125181611833565b92915050565b60008151905061126681611833565b92915050565b6000602082840312156112825761128161179c565b5b60006112908482850161122d565b91505092915050565b600080600080608085870312156112b3576112b261179c565b5b60006112c187828801611218565b94505060206112d287828801611218565b93505060406112e387828801611242565b92505060606112f487828801611218565b91505092959194509250565b600080604083850312156113175761131661179c565b5b600061132585828601611218565b925050602061133685828601611242565b9150509250929050565b6000602082840312156113565761135561179c565b5b600061136484828501611257565b91505092915050565b61137681611625565b82525050565b61138581611637565b82525050565b6000611398600b83611559565b91506113a3826117a1565b602082019050919050565b60006113bb600d83611559565b91506113c6826117ca565b602082019050919050565b60006113de600983611559565b91506113e9826117f3565b602082019050919050565b6113fd81611663565b82525050565b6000606082019050611418600083018661136d565b611425602083018561136d565b61143260408301846113f4565b949350505050565b600060408201905061144f600083018561136d565b61145c60208301846113f4565b9392505050565b6000606082019050611478600083018661136d565b61148560208301856113f4565b61149260408301846113f4565b949350505050565b60006020820190506114af600083018461137c565b92915050565b600060208201905081810360008301526114ce8161138b565b9050919050565b600060208201905081810360008301526114ee816113ae565b9050919050565b6000602082019050818103600083015261150e816113d1565b9050919050565b600060208201905061152a60008301846113f4565b92915050565b600060408201905061154560008301856113f4565b611552602083018461137c565b9392505050565b600082825260208201905092915050565b600061157582611663565b915061158083611663565b9250827fffffffffffffffffffffffffffffffffffffffffffffffffffffffffffffffff038211156115b5576115b46116e0565b5b828201905092915050565b60006115cb82611663565b91506115d683611663565b9250826115e6576115e561170f565b5b828204905092915050565b60006115fc82611663565b915061160783611663565b92508282101561161a576116196116e0565b5b828203905092915050565b600061163082611643565b9050919050565b60008115159050919050565b600073ffffffffffffffffffffffffffffffffffffffff82169050919050565b6000819050919050565b600061167882611663565b9150600082141561168c5761168b6116e0565b5b600182039050919050565b60006116a282611663565b91507fffffffffffffffffffffffffffffffffffffffffffffffffffffffffffffffff8214156116d5576116d46116e0565b5b600182019050919050565b7f4e487b7100000000000000000000000000000000000000000000000000000000600052601160045260246000fd5b7f4e487b7100000000000000000000000000000000000000000000000000000000600052601260045260246000fd5b7f4e487b7100000000000000000000000000000000000000000000000000000000600052603160045260246000fd5b7f4e487b7100000000000000000000000000000000000000000000000000000000600052603260045260246000fd5b600080fd5b7f4f6666657220697320302e000000000000000000000000000000000000000000600082015250565b7f556e617574686f72697a65642e00000000000000000000000000000000000000600082015250565b7f4e6f206f666665722e0000000000000000000000000000000000000000000000600082015250565b61182581611625565b811461183057600080fd5b50565b61183c81611663565b811461184757600080fd5b5056fea2646970667358221220923789164cee13d9d560d7c4163357f23131fb16d0fdd2f6ff415f8c0c6f507b64736f6c63430008070033",
					"opcodes": "PUSH1 0x80 PUSH1 0x40 MSTORE CALLVALUE DUP1 ISZERO PUSH2 0x10 JUMPI PUSH1 0x0 DUP1 REVERT JUMPDEST POP PUSH2 0x1880 DUP1 PUSH2 0x20 PUSH1 0x0 CODECOPY PUSH1 0x0 RETURN INVALID PUSH1 0x80 PUSH1 0x40 MSTORE PUSH1 0x4 CALLDATASIZE LT PUSH2 0x4A JUMPI PUSH1 0x0 CALLDATALOAD PUSH1 0xE0 SHR DUP1 PUSH4 0x6B212960 EQ PUSH2 0x4F JUMPI DUP1 PUSH4 0x7BB98A68 EQ PUSH2 0x6B JUMPI DUP1 PUSH4 0xAA1A8411 EQ PUSH2 0x96 JUMPI DUP1 PUSH4 0xBBB96976 EQ PUSH2 0xD3 JUMPI DUP1 PUSH4 0xF3FEF3A3 EQ PUSH2 0xEF JUMPI JUMPDEST PUSH1 0x0 DUP1 REVERT JUMPDEST PUSH2 0x69 PUSH1 0x4 DUP1 CALLDATASIZE SUB DUP2 ADD SWAP1 PUSH2 0x64 SWAP2 SWAP1 PUSH2 0x1300 JUMP JUMPDEST PUSH2 0x10B JUMP JUMPDEST STOP JUMPDEST CALLVALUE DUP1 ISZERO PUSH2 0x77 JUMPI PUSH1 0x0 DUP1 REVERT JUMPDEST POP PUSH2 0x80 PUSH2 0x2F8 JUMP JUMPDEST PUSH1 0x40 MLOAD PUSH2 0x8D SWAP2 SWAP1 PUSH2 0x1515 JUMP JUMPDEST PUSH1 0x40 MLOAD DUP1 SWAP2 SUB SWAP1 RETURN JUMPDEST CALLVALUE DUP1 ISZERO PUSH2 0xA2 JUMPI PUSH1 0x0 DUP1 REVERT JUMPDEST POP PUSH2 0xBD PUSH1 0x4 DUP1 CALLDATASIZE SUB DUP2 ADD SWAP1 PUSH2 0xB8 SWAP2 SWAP1 PUSH2 0x1300 JUMP JUMPDEST PUSH2 0x2FE JUMP JUMPDEST PUSH1 0x40 MLOAD PUSH2 0xCA SWAP2 SWAP1 PUSH2 0x149A JUMP JUMPDEST PUSH1 0x40 MLOAD DUP1 SWAP2 SUB SWAP1 RETURN JUMPDEST PUSH2 0xED PUSH1 0x4 DUP1 CALLDATASIZE SUB DUP2 ADD SWAP1 PUSH2 0xE8 SWAP2 SWAP1 PUSH2 0x1299 JUMP JUMPDEST PUSH2 0x336 JUMP JUMPDEST STOP JUMPDEST PUSH2 0x109 PUSH1 0x4 DUP1 CALLDATASIZE SUB DUP2 ADD SWAP1 PUSH2 0x104 SWAP2 SWAP1 PUSH2 0x1300 JUMP JUMPDEST PUSH2 0xD57 JUMP JUMPDEST STOP JUMPDEST PUSH1 0x0 DUP1 PUSH1 0x0 DUP5 PUSH20 0xFFFFFFFFFFFFFFFFFFFFFFFFFFFFFFFFFFFFFFFF AND PUSH20 0xFFFFFFFFFFFFFFFFFFFFFFFFFFFFFFFFFFFFFFFF AND DUP2 MSTORE PUSH1 0x20 ADD SWAP1 DUP2 MSTORE PUSH1 0x20 ADD PUSH1 0x0 KECCAK256 PUSH1 0x0 DUP4 DUP2 MSTORE PUSH1 0x20 ADD SWAP1 DUP2 MSTORE PUSH1 0x20 ADD PUSH1 0x0 KECCAK256 SWAP1 POP PUSH1 0x0 DUP2 PUSH1 0x1 ADD PUSH1 0x0 CALLER PUSH20 0xFFFFFFFFFFFFFFFFFFFFFFFFFFFFFFFFFFFFFFFF AND PUSH20 0xFFFFFFFFFFFFFFFFFFFFFFFFFFFFFFFFFFFFFFFF AND DUP2 MSTORE PUSH1 0x20 ADD SWAP1 DUP2 MSTORE PUSH1 0x20 ADD PUSH1 0x0 KECCAK256 SLOAD EQ ISZERO PUSH2 0x20E JUMPI DUP1 PUSH1 0x0 ADD CALLER SWAP1 DUP1 PUSH1 0x1 DUP2 SLOAD ADD DUP1 DUP3 SSTORE DUP1 SWAP2 POP POP PUSH1 0x1 SWAP1 SUB SWAP1 PUSH1 0x0 MSTORE PUSH1 0x20 PUSH1 0x0 KECCAK256 ADD PUSH1 0x0 SWAP1 SWAP2 SWAP1 SWAP2 SWAP1 SWAP2 PUSH2 0x100 EXP DUP2 SLOAD DUP2 PUSH20 0xFFFFFFFFFFFFFFFFFFFFFFFFFFFFFFFFFFFFFFFF MUL NOT AND SWAP1 DUP4 PUSH20 0xFFFFFFFFFFFFFFFFFFFFFFFFFFFFFFFFFFFFFFFF AND MUL OR SWAP1 SSTORE POP JUMPDEST CALLVALUE DUP2 PUSH1 0x1 ADD PUSH1 0x0 CALLER PUSH20 0xFFFFFFFFFFFFFFFFFFFFFFFFFFFFFFFFFFFFFFFF AND PUSH20 0xFFFFFFFFFFFFFFFFFFFFFFFFFFFFFFFFFFFFFFFF AND DUP2 MSTORE PUSH1 0x20 ADD SWAP1 DUP2 MSTORE PUSH1 0x20 ADD PUSH1 0x0 KECCAK256 DUP2 SWAP1 SSTORE POP PUSH1 0x1 DUP2 PUSH1 0x2 ADD PUSH1 0x0 PUSH2 0x100 EXP DUP2 SLOAD DUP2 PUSH1 0xFF MUL NOT AND SWAP1 DUP4 ISZERO ISZERO MUL OR SWAP1 SSTORE POP CALLVALUE PUSH1 0x1 PUSH1 0x0 DUP3 DUP3 SLOAD PUSH2 0x283 SWAP2 SWAP1 PUSH2 0x156A JUMP JUMPDEST SWAP3 POP POP DUP2 SWAP1 SSTORE POP CALLER PUSH20 0xFFFFFFFFFFFFFFFFFFFFFFFFFFFFFFFFFFFFFFFF AND DUP3 DUP5 PUSH20 0xFFFFFFFFFFFFFFFFFFFFFFFFFFFFFFFFFFFFFFFF AND PUSH32 0xA297A5039E151F85FD39B734D57194F31BF1BA744464810F8FA18941216C79B0 CALLVALUE PUSH1 0x1 PUSH1 0x40 MLOAD PUSH2 0x2EB SWAP3 SWAP2 SWAP1 PUSH2 0x1530 JUMP JUMPDEST PUSH1 0x40 MLOAD DUP1 SWAP2 SUB SWAP1 LOG4 POP POP POP JUMP JUMPDEST PUSH1 0x1 SLOAD DUP2 JUMP JUMPDEST PUSH1 0x0 PUSH1 0x20 MSTORE DUP2 PUSH1 0x0 MSTORE PUSH1 0x40 PUSH1 0x0 KECCAK256 PUSH1 0x20 MSTORE DUP1 PUSH1 0x0 MSTORE PUSH1 0x40 PUSH1 0x0 KECCAK256 PUSH1 0x0 SWAP2 POP SWAP2 POP POP DUP1 PUSH1 0x2 ADD PUSH1 0x0 SWAP1 SLOAD SWAP1 PUSH2 0x100 EXP SWAP1 DIV PUSH1 0xFF AND SWAP1 POP DUP2 JUMP JUMPDEST PUSH1 0x0 DUP1 PUSH1 0x0 DUP6 PUSH20 0xFFFFFFFFFFFFFFFFFFFFFFFFFFFFFFFFFFFFFFFF AND PUSH20 0xFFFFFFFFFFFFFFFFFFFFFFFFFFFFFFFFFFFFFFFF AND DUP2 MSTORE PUSH1 0x20 ADD SWAP1 DUP2 MSTORE PUSH1 0x20 ADD PUSH1 0x0 KECCAK256 PUSH1 0x0 DUP5 DUP2 MSTORE PUSH1 0x20 ADD SWAP1 DUP2 MSTORE PUSH1 0x20 ADD PUSH1 0x0 KECCAK256 SWAP1 POP PUSH1 0x0 DUP5 SWAP1 POP PUSH1 0x0 DUP7 SWAP1 POP CALLER PUSH20 0xFFFFFFFFFFFFFFFFFFFFFFFFFFFFFFFFFFFFFFFF AND DUP3 PUSH20 0xFFFFFFFFFFFFFFFFFFFFFFFFFFFFFFFFFFFFFFFF AND PUSH4 0x6352211E DUP8 PUSH1 0x40 MLOAD DUP3 PUSH4 0xFFFFFFFF AND PUSH1 0xE0 SHL DUP2 MSTORE PUSH1 0x4 ADD PUSH2 0x3E3 SWAP2 SWAP1 PUSH2 0x1515 JUMP JUMPDEST PUSH1 0x20 PUSH1 0x40 MLOAD DUP1 DUP4 SUB DUP2 DUP7 DUP1 EXTCODESIZE ISZERO DUP1 ISZERO PUSH2 0x3FB JUMPI PUSH1 0x0 DUP1 REVERT JUMPDEST POP GAS STATICCALL ISZERO DUP1 ISZERO PUSH2 0x40F JUMPI RETURNDATASIZE PUSH1 0x0 DUP1 RETURNDATACOPY RETURNDATASIZE PUSH1 0x0 REVERT JUMPDEST POP POP POP POP PUSH1 0x40 MLOAD RETURNDATASIZE PUSH1 0x1F NOT PUSH1 0x1F DUP3 ADD AND DUP3 ADD DUP1 PUSH1 0x40 MSTORE POP DUP2 ADD SWAP1 PUSH2 0x433 SWAP2 SWAP1 PUSH2 0x126C JUMP JUMPDEST PUSH20 0xFFFFFFFFFFFFFFFFFFFFFFFFFFFFFFFFFFFFFFFF AND EQ PUSH2 0x489 JUMPI PUSH1 0x40 MLOAD PUSH32 0x8C379A000000000000000000000000000000000000000000000000000000000 DUP2 MSTORE PUSH1 0x4 ADD PUSH2 0x480 SWAP1 PUSH2 0x14D5 JUMP JUMPDEST PUSH1 0x40 MLOAD DUP1 SWAP2 SUB SWAP1 REVERT JUMPDEST PUSH1 0x1 ISZERO ISZERO DUP4 PUSH1 0x2 ADD PUSH1 0x0 SWAP1 SLOAD SWAP1 PUSH2 0x100 EXP SWAP1 DIV PUSH1 0xFF AND ISZERO ISZERO EQ PUSH2 0x4E1 JUMPI PUSH1 0x40 MLOAD PUSH32 0x8C379A000000000000000000000000000000000000000000000000000000000 DUP2 MSTORE PUSH1 0x4 ADD PUSH2 0x4D8 SWAP1 PUSH2 0x14F5 JUMP JUMPDEST PUSH1 0x40 MLOAD DUP1 SWAP2 SUB SWAP1 REVERT JUMPDEST CALLER PUSH20 0xFFFFFFFFFFFFFFFFFFFFFFFFFFFFFFFFFFFFFFFF AND PUSH2 0x8FC PUSH1 0x14 DUP6 PUSH1 0x1 ADD PUSH1 0x0 DUP9 PUSH20 0xFFFFFFFFFFFFFFFFFFFFFFFFFFFFFFFFFFFFFFFF AND PUSH20 0xFFFFFFFFFFFFFFFFFFFFFFFFFFFFFFFFFFFFFFFF AND DUP2 MSTORE PUSH1 0x20 ADD SWAP1 DUP2 MSTORE PUSH1 0x20 ADD PUSH1 0x0 KECCAK256 SLOAD PUSH2 0x549 SWAP2 SWAP1 PUSH2 0x15C0 JUMP JUMPDEST DUP6 PUSH1 0x1 ADD PUSH1 0x0 DUP9 PUSH20 0xFFFFFFFFFFFFFFFFFFFFFFFFFFFFFFFFFFFFFFFF AND PUSH20 0xFFFFFFFFFFFFFFFFFFFFFFFFFFFFFFFFFFFFFFFF AND DUP2 MSTORE PUSH1 0x20 ADD SWAP1 DUP2 MSTORE PUSH1 0x20 ADD PUSH1 0x0 KECCAK256 SLOAD PUSH2 0x595 SWAP2 SWAP1 PUSH2 0x15F1 JUMP JUMPDEST SWAP1 DUP2 ISZERO MUL SWAP1 PUSH1 0x40 MLOAD PUSH1 0x0 PUSH1 0x40 MLOAD DUP1 DUP4 SUB DUP2 DUP6 DUP9 DUP9 CALL SWAP4 POP POP POP POP ISZERO DUP1 ISZERO PUSH2 0x5C0 JUMPI RETURNDATASIZE PUSH1 0x0 DUP1 RETURNDATACOPY RETURNDATASIZE PUSH1 0x0 REVERT JUMPDEST POP DUP1 PUSH20 0xFFFFFFFFFFFFFFFFFFFFFFFFFFFFFFFFFFFFFFFF AND PUSH4 0x8DA5CB5B PUSH1 0x40 MLOAD DUP2 PUSH4 0xFFFFFFFF AND PUSH1 0xE0 SHL DUP2 MSTORE PUSH1 0x4 ADD PUSH1 0x20 PUSH1 0x40 MLOAD DUP1 DUP4 SUB DUP2 DUP7 DUP1 EXTCODESIZE ISZERO DUP1 ISZERO PUSH2 0x607 JUMPI PUSH1 0x0 DUP1 REVERT JUMPDEST POP GAS STATICCALL ISZERO DUP1 ISZERO PUSH2 0x61B JUMPI RETURNDATASIZE PUSH1 0x0 DUP1 RETURNDATACOPY RETURNDATASIZE PUSH1 0x0 REVERT JUMPDEST POP POP POP POP PUSH1 0x40 MLOAD RETURNDATASIZE PUSH1 0x1F NOT PUSH1 0x1F DUP3 ADD AND DUP3 ADD DUP1 PUSH1 0x40 MSTORE POP DUP2 ADD SWAP1 PUSH2 0x63F SWAP2 SWAP1 PUSH2 0x126C JUMP JUMPDEST PUSH20 0xFFFFFFFFFFFFFFFFFFFFFFFFFFFFFFFFFFFFFFFF AND PUSH2 0x8FC PUSH1 0x14 DUP6 PUSH1 0x1 ADD PUSH1 0x0 DUP9 PUSH20 0xFFFFFFFFFFFFFFFFFFFFFFFFFFFFFFFFFFFFFFFF AND PUSH20 0xFFFFFFFFFFFFFFFFFFFFFFFFFFFFFFFFFFFFFFFF AND DUP2 MSTORE PUSH1 0x20 ADD SWAP1 DUP2 MSTORE PUSH1 0x20 ADD PUSH1 0x0 KECCAK256 SLOAD PUSH2 0x6A6 SWAP2 SWAP1 PUSH2 0x15C0 JUMP JUMPDEST SWAP1 DUP2 ISZERO MUL SWAP1 PUSH1 0x40 MLOAD PUSH1 0x0 PUSH1 0x40 MLOAD DUP1 DUP4 SUB DUP2 DUP6 DUP9 DUP9 CALL SWAP4 POP POP POP POP ISZERO DUP1 ISZERO PUSH2 0x6D1 JUMPI RETURNDATASIZE PUSH1 0x0 DUP1 RETURNDATACOPY RETURNDATASIZE PUSH1 0x0 REVERT JUMPDEST POP PUSH1 0x0 JUMPDEST PUSH1 0x5 DUP2 LT ISZERO PUSH2 0x970 JUMPI PUSH1 0x0 PUSH20 0xFFFFFFFFFFFFFFFFFFFFFFFFFFFFFFFFFFFFFFFF AND DUP3 PUSH20 0xFFFFFFFFFFFFFFFFFFFFFFFFFFFFFFFFFFFFFFFF AND PUSH4 0x2973D6F8 DUP10 DUP10 DUP6 PUSH1 0x40 MLOAD DUP5 PUSH4 0xFFFFFFFF AND PUSH1 0xE0 SHL DUP2 MSTORE PUSH1 0x4 ADD PUSH2 0x733 SWAP4 SWAP3 SWAP2 SWAP1 PUSH2 0x1463 JUMP JUMPDEST PUSH1 0x20 PUSH1 0x40 MLOAD DUP1 DUP4 SUB DUP2 DUP7 DUP1 EXTCODESIZE ISZERO DUP1 ISZERO PUSH2 0x74B JUMPI PUSH1 0x0 DUP1 REVERT JUMPDEST POP GAS STATICCALL ISZERO DUP1 ISZERO PUSH2 0x75F JUMPI RETURNDATASIZE PUSH1 0x0 DUP1 RETURNDATACOPY RETURNDATASIZE PUSH1 0x0 REVERT JUMPDEST POP POP POP POP PUSH1 0x40 MLOAD RETURNDATASIZE PUSH1 0x1F NOT PUSH1 0x1F DUP3 ADD AND DUP3 ADD DUP1 PUSH1 0x40 MSTORE POP DUP2 ADD SWAP1 PUSH2 0x783 SWAP2 SWAP1 PUSH2 0x126C JUMP JUMPDEST PUSH20 0xFFFFFFFFFFFFFFFFFFFFFFFFFFFFFFFFFFFFFFFF AND EQ PUSH2 0x958 JUMPI DUP2 PUSH20 0xFFFFFFFFFFFFFFFFFFFFFFFFFFFFFFFFFFFFFFFF AND PUSH4 0x2973D6F8 DUP9 DUP9 DUP5 PUSH1 0x40 MLOAD DUP5 PUSH4 0xFFFFFFFF AND PUSH1 0xE0 SHL DUP2 MSTORE PUSH1 0x4 ADD PUSH2 0x7DB SWAP4 SWAP3 SWAP2 SWAP1 PUSH2 0x1463 JUMP JUMPDEST PUSH1 0x20 PUSH1 0x40 MLOAD DUP1 DUP4 SUB DUP2 DUP7 DUP1 EXTCODESIZE ISZERO DUP1 ISZERO PUSH2 0x7F3 JUMPI PUSH1 0x0 DUP1 REVERT JUMPDEST POP GAS STATICCALL ISZERO DUP1 ISZERO PUSH2 0x807 JUMPI RETURNDATASIZE PUSH1 0x0 DUP1 RETURNDATACOPY RETURNDATASIZE PUSH1 0x0 REVERT JUMPDEST POP POP POP POP PUSH1 0x40 MLOAD RETURNDATASIZE PUSH1 0x1F NOT PUSH1 0x1F DUP3 ADD AND DUP3 ADD DUP1 PUSH1 0x40 MSTORE POP DUP2 ADD SWAP1 PUSH2 0x82B SWAP2 SWAP1 PUSH2 0x126C JUMP JUMPDEST PUSH20 0xFFFFFFFFFFFFFFFFFFFFFFFFFFFFFFFFFFFFFFFF AND PUSH2 0x8FC DUP4 PUSH20 0xFFFFFFFFFFFFFFFFFFFFFFFFFFFFFFFFFFFFFFFF AND PUSH4 0xD178227A DUP11 DUP11 PUSH1 0x40 MLOAD DUP4 PUSH4 0xFFFFFFFF AND PUSH1 0xE0 SHL DUP2 MSTORE PUSH1 0x4 ADD PUSH2 0x87F SWAP3 SWAP2 SWAP1 PUSH2 0x143A JUMP JUMPDEST PUSH1 0x20 PUSH1 0x40 MLOAD DUP1 DUP4 SUB DUP2 DUP7 DUP1 EXTCODESIZE ISZERO DUP1 ISZERO PUSH2 0x897 JUMPI PUSH1 0x0 DUP1 REVERT JUMPDEST POP GAS STATICCALL ISZERO DUP1 ISZERO PUSH2 0x8AB JUMPI RETURNDATASIZE PUSH1 0x0 DUP1 RETURNDATACOPY RETURNDATASIZE PUSH1 0x0 REVERT JUMPDEST POP POP POP POP PUSH1 0x40 MLOAD RETURNDATASIZE PUSH1 0x1F NOT PUSH1 0x1F DUP3 ADD AND DUP3 ADD DUP1 PUSH1 0x40 MSTORE POP DUP2 ADD SWAP1 PUSH2 0x8CF SWAP2 SWAP1 PUSH2 0x1340 JUMP JUMPDEST PUSH1 0x14 DUP8 PUSH1 0x1 ADD PUSH1 0x0 DUP11 PUSH20 0xFFFFFFFFFFFFFFFFFFFFFFFFFFFFFFFFFFFFFFFF AND PUSH20 0xFFFFFFFFFFFFFFFFFFFFFFFFFFFFFFFFFFFFFFFF AND DUP2 MSTORE PUSH1 0x20 ADD SWAP1 DUP2 MSTORE PUSH1 0x20 ADD PUSH1 0x0 KECCAK256 SLOAD PUSH2 0x91D SWAP2 SWAP1 PUSH2 0x15C0 JUMP JUMPDEST PUSH2 0x927 SWAP2 SWAP1 PUSH2 0x15C0 JUMP JUMPDEST SWAP1 DUP2 ISZERO MUL SWAP1 PUSH1 0x40 MLOAD PUSH1 0x0 PUSH1 0x40 MLOAD DUP1 DUP4 SUB DUP2 DUP6 DUP9 DUP9 CALL SWAP4 POP POP POP POP ISZERO DUP1 ISZERO PUSH2 0x952 JUMPI RETURNDATASIZE PUSH1 0x0 DUP1 RETURNDATACOPY RETURNDATASIZE PUSH1 0x0 REVERT JUMPDEST POP PUSH2 0x95D JUMP JUMPDEST PUSH2 0x970 JUMP JUMPDEST DUP1 DUP1 PUSH2 0x968 SWAP1 PUSH2 0x1697 JUMP JUMPDEST SWAP2 POP POP PUSH2 0x6D5 JUMP JUMPDEST POP DUP3 PUSH1 0x1 ADD PUSH1 0x0 DUP6 PUSH20 0xFFFFFFFFFFFFFFFFFFFFFFFFFFFFFFFFFFFFFFFF AND PUSH20 0xFFFFFFFFFFFFFFFFFFFFFFFFFFFFFFFFFFFFFFFF AND DUP2 MSTORE PUSH1 0x20 ADD SWAP1 DUP2 MSTORE PUSH1 0x20 ADD PUSH1 0x0 KECCAK256 SLOAD PUSH1 0x1 PUSH1 0x0 DUP3 DUP3 SLOAD PUSH2 0x9C4 SWAP2 SWAP1 PUSH2 0x15F1 JUMP JUMPDEST SWAP3 POP POP DUP2 SWAP1 SSTORE POP PUSH1 0x0 DUP4 PUSH1 0x2 ADD PUSH1 0x0 PUSH2 0x100 EXP DUP2 SLOAD DUP2 PUSH1 0xFF MUL NOT AND SWAP1 DUP4 ISZERO ISZERO MUL OR SWAP1 SSTORE POP PUSH1 0x0 PUSH1 0x1 DUP5 PUSH1 0x0 ADD DUP1 SLOAD SWAP1 POP PUSH2 0x9FE SWAP2 SWAP1 PUSH2 0x15F1 JUMP JUMPDEST SWAP1 POP JUMPDEST PUSH1 0x0 DUP2 LT PUSH2 0xC8E JUMPI DUP4 PUSH1 0x0 ADD DUP2 DUP2 SLOAD DUP2 LT PUSH2 0xA1F JUMPI PUSH2 0xA1E PUSH2 0x176D JUMP JUMPDEST JUMPDEST SWAP1 PUSH1 0x0 MSTORE PUSH1 0x20 PUSH1 0x0 KECCAK256 ADD PUSH1 0x0 SWAP1 SLOAD SWAP1 PUSH2 0x100 EXP SWAP1 DIV PUSH20 0xFFFFFFFFFFFFFFFFFFFFFFFFFFFFFFFFFFFFFFFF AND PUSH20 0xFFFFFFFFFFFFFFFFFFFFFFFFFFFFFFFFFFFFFFFF AND PUSH2 0x8FC DUP6 PUSH1 0x1 ADD PUSH1 0x0 DUP8 PUSH1 0x0 ADD DUP6 DUP2 SLOAD DUP2 LT PUSH2 0xA7F JUMPI PUSH2 0xA7E PUSH2 0x176D JUMP JUMPDEST JUMPDEST SWAP1 PUSH1 0x0 MSTORE PUSH1 0x20 PUSH1 0x0 KECCAK256 ADD PUSH1 0x0 SWAP1 SLOAD SWAP1 PUSH2 0x100 EXP SWAP1 DIV PUSH20 0xFFFFFFFFFFFFFFFFFFFFFFFFFFFFFFFFFFFFFFFF AND PUSH20 0xFFFFFFFFFFFFFFFFFFFFFFFFFFFFFFFFFFFFFFFF AND PUSH20 0xFFFFFFFFFFFFFFFFFFFFFFFFFFFFFFFFFFFFFFFF AND DUP2 MSTORE PUSH1 0x20 ADD SWAP1 DUP2 MSTORE PUSH1 0x20 ADD PUSH1 0x0 KECCAK256 SLOAD SWAP1 DUP2 ISZERO MUL SWAP1 PUSH1 0x40 MLOAD PUSH1 0x0 PUSH1 0x40 MLOAD DUP1 DUP4 SUB DUP2 DUP6 DUP9 DUP9 CALL SWAP4 POP POP POP POP ISZERO DUP1 ISZERO PUSH2 0xB10 JUMPI RETURNDATASIZE PUSH1 0x0 DUP1 RETURNDATACOPY RETURNDATASIZE PUSH1 0x0 REVERT JUMPDEST POP DUP4 PUSH1 0x1 ADD PUSH1 0x0 DUP6 PUSH1 0x0 ADD DUP4 DUP2 SLOAD DUP2 LT PUSH2 0xB2D JUMPI PUSH2 0xB2C PUSH2 0x176D JUMP JUMPDEST JUMPDEST SWAP1 PUSH1 0x0 MSTORE PUSH1 0x20 PUSH1 0x0 KECCAK256 ADD PUSH1 0x0 SWAP1 SLOAD SWAP1 PUSH2 0x100 EXP SWAP1 DIV PUSH20 0xFFFFFFFFFFFFFFFFFFFFFFFFFFFFFFFFFFFFFFFF AND PUSH20 0xFFFFFFFFFFFFFFFFFFFFFFFFFFFFFFFFFFFFFFFF AND PUSH20 0xFFFFFFFFFFFFFFFFFFFFFFFFFFFFFFFFFFFFFFFF AND DUP2 MSTORE PUSH1 0x20 ADD SWAP1 DUP2 MSTORE PUSH1 0x20 ADD PUSH1 0x0 KECCAK256 SLOAD PUSH1 0x1 PUSH1 0x0 DUP3 DUP3 SLOAD PUSH2 0xBA4 SWAP2 SWAP1 PUSH2 0x15F1 JUMP JUMPDEST SWAP3 POP POP DUP2 SWAP1 SSTORE POP PUSH1 0x0 DUP5 PUSH1 0x1 ADD PUSH1 0x0 DUP7 PUSH1 0x0 ADD DUP5 DUP2 SLOAD DUP2 LT PUSH2 0xBC9 JUMPI PUSH2 0xBC8 PUSH2 0x176D JUMP JUMPDEST JUMPDEST SWAP1 PUSH1 0x0 MSTORE PUSH1 0x20 PUSH1 0x0 KECCAK256 ADD PUSH1 0x0 SWAP1 SLOAD SWAP1 PUSH2 0x100 EXP SWAP1 DIV PUSH20 0xFFFFFFFFFFFFFFFFFFFFFFFFFFFFFFFFFFFFFFFF AND PUSH20 0xFFFFFFFFFFFFFFFFFFFFFFFFFFFFFFFFFFFFFFFF AND PUSH20 0xFFFFFFFFFFFFFFFFFFFFFFFFFFFFFFFFFFFFFFFF AND DUP2 MSTORE PUSH1 0x20 ADD SWAP1 DUP2 MSTORE PUSH1 0x20 ADD PUSH1 0x0 KECCAK256 DUP2 SWAP1 SSTORE POP DUP4 PUSH1 0x0 ADD DUP1 SLOAD DUP1 PUSH2 0xC46 JUMPI PUSH2 0xC45 PUSH2 0x173E JUMP JUMPDEST JUMPDEST PUSH1 0x1 SWAP1 SUB DUP2 DUP2 SWAP1 PUSH1 0x0 MSTORE PUSH1 0x20 PUSH1 0x0 KECCAK256 ADD PUSH1 0x0 PUSH2 0x100 EXP DUP2 SLOAD SWAP1 PUSH20 0xFFFFFFFFFFFFFFFFFFFFFFFFFFFFFFFFFFFFFFFF MUL NOT AND SWAP1 SSTORE SWAP1 SSTORE DUP1 DUP1 PUSH2 0xC86 SWAP1 PUSH2 0x166D JUMP JUMPDEST SWAP2 POP POP PUSH2 0xA01 JUMP JUMPDEST POP DUP2 PUSH20 0xFFFFFFFFFFFFFFFFFFFFFFFFFFFFFFFFFFFFFFFF AND PUSH4 0x23B872DD CALLER DUP7 DUP9 PUSH1 0x40 MLOAD DUP5 PUSH4 0xFFFFFFFF AND PUSH1 0xE0 SHL DUP2 MSTORE PUSH1 0x4 ADD PUSH2 0xCCC SWAP4 SWAP3 SWAP2 SWAP1 PUSH2 0x1403 JUMP JUMPDEST PUSH1 0x0 PUSH1 0x40 MLOAD DUP1 DUP4 SUB DUP2 PUSH1 0x0 DUP8 DUP1 EXTCODESIZE ISZERO DUP1 ISZERO PUSH2 0xCE6 JUMPI PUSH1 0x0 DUP1 REVERT JUMPDEST POP GAS CALL ISZERO DUP1 ISZERO PUSH2 0xCFA JUMPI RETURNDATASIZE PUSH1 0x0 DUP1 RETURNDATACOPY RETURNDATASIZE PUSH1 0x0 REVERT JUMPDEST POP POP POP POP DUP5 DUP7 PUSH20 0xFFFFFFFFFFFFFFFFFFFFFFFFFFFFFFFFFFFFFFFF AND PUSH32 0x9663DB6E9B1F015A82BEB1B03EC8FED9D1A25B5DA31B2CC92C2BE9E8C629A80D PUSH1 0x0 PUSH1 0x40 MLOAD PUSH2 0xD46 SWAP2 SWAP1 PUSH2 0x149A JUMP JUMPDEST PUSH1 0x40 MLOAD DUP1 SWAP2 SUB SWAP1 LOG3 POP POP POP POP POP POP POP JUMP JUMPDEST PUSH1 0x0 DUP1 PUSH1 0x0 DUP5 PUSH20 0xFFFFFFFFFFFFFFFFFFFFFFFFFFFFFFFFFFFFFFFF AND PUSH20 0xFFFFFFFFFFFFFFFFFFFFFFFFFFFFFFFFFFFFFFFF AND DUP2 MSTORE PUSH1 0x20 ADD SWAP1 DUP2 MSTORE PUSH1 0x20 ADD PUSH1 0x0 KECCAK256 PUSH1 0x0 DUP4 DUP2 MSTORE PUSH1 0x20 ADD SWAP1 DUP2 MSTORE PUSH1 0x20 ADD PUSH1 0x0 KECCAK256 SWAP1 POP PUSH1 0x1 ISZERO ISZERO DUP2 PUSH1 0x2 ADD PUSH1 0x0 SWAP1 SLOAD SWAP1 PUSH2 0x100 EXP SWAP1 DIV PUSH1 0xFF AND ISZERO ISZERO EQ PUSH2 0xE02 JUMPI PUSH1 0x40 MLOAD PUSH32 0x8C379A000000000000000000000000000000000000000000000000000000000 DUP2 MSTORE PUSH1 0x4 ADD PUSH2 0xDF9 SWAP1 PUSH2 0x14F5 JUMP JUMPDEST PUSH1 0x40 MLOAD DUP1 SWAP2 SUB SWAP1 REVERT JUMPDEST PUSH1 0x0 DUP2 PUSH1 0x1 ADD PUSH1 0x0 CALLER PUSH20 0xFFFFFFFFFFFFFFFFFFFFFFFFFFFFFFFFFFFFFFFF AND PUSH20 0xFFFFFFFFFFFFFFFFFFFFFFFFFFFFFFFFFFFFFFFF AND DUP2 MSTORE PUSH1 0x20 ADD SWAP1 DUP2 MSTORE PUSH1 0x20 ADD PUSH1 0x0 KECCAK256 SLOAD GT PUSH2 0xE86 JUMPI PUSH1 0x40 MLOAD PUSH32 0x8C379A000000000000000000000000000000000000000000000000000000000 DUP2 MSTORE PUSH1 0x4 ADD PUSH2 0xE7D SWAP1 PUSH2 0x14B5 JUMP JUMPDEST PUSH1 0x40 MLOAD DUP1 SWAP2 SUB SWAP1 REVERT JUMPDEST PUSH1 0x0 PUSH1 0x1 DUP3 PUSH1 0x0 ADD DUP1 SLOAD SWAP1 POP PUSH2 0xE9C SWAP2 SWAP1 PUSH2 0x15F1 JUMP JUMPDEST SWAP1 POP DUP2 PUSH1 0x0 ADD DUP2 DUP2 SLOAD DUP2 LT PUSH2 0xEB4 JUMPI PUSH2 0xEB3 PUSH2 0x176D JUMP JUMPDEST JUMPDEST SWAP1 PUSH1 0x0 MSTORE PUSH1 0x20 PUSH1 0x0 KECCAK256 ADD PUSH1 0x0 SWAP1 SLOAD SWAP1 PUSH2 0x100 EXP SWAP1 DIV PUSH20 0xFFFFFFFFFFFFFFFFFFFFFFFFFFFFFFFFFFFFFFFF AND PUSH20 0xFFFFFFFFFFFFFFFFFFFFFFFFFFFFFFFFFFFFFFFF AND CALLER PUSH20 0xFFFFFFFFFFFFFFFFFFFFFFFFFFFFFFFFFFFFFFFF AND EQ ISZERO PUSH2 0xF60 JUMPI DUP2 PUSH1 0x0 ADD DUP1 SLOAD DUP1 PUSH2 0xF26 JUMPI PUSH2 0xF25 PUSH2 0x173E JUMP JUMPDEST JUMPDEST PUSH1 0x1 SWAP1 SUB DUP2 DUP2 SWAP1 PUSH1 0x0 MSTORE PUSH1 0x20 PUSH1 0x0 KECCAK256 ADD PUSH1 0x0 PUSH2 0x100 EXP DUP2 SLOAD SWAP1 PUSH20 0xFFFFFFFFFFFFFFFFFFFFFFFFFFFFFFFFFFFFFFFF MUL NOT AND SWAP1 SSTORE SWAP1 SSTORE PUSH2 0x10E8 JUMP JUMPDEST PUSH1 0x0 JUMPDEST DUP3 PUSH1 0x0 ADD DUP1 SLOAD SWAP1 POP DUP2 LT ISZERO PUSH2 0x10E6 JUMPI CALLER PUSH20 0xFFFFFFFFFFFFFFFFFFFFFFFFFFFFFFFFFFFFFFFF AND DUP4 PUSH1 0x0 ADD DUP3 DUP2 SLOAD DUP2 LT PUSH2 0xF9F JUMPI PUSH2 0xF9E PUSH2 0x176D JUMP JUMPDEST JUMPDEST SWAP1 PUSH1 0x0 MSTORE PUSH1 0x20 PUSH1 0x0 KECCAK256 ADD PUSH1 0x0 SWAP1 SLOAD SWAP1 PUSH2 0x100 EXP SWAP1 DIV PUSH20 0xFFFFFFFFFFFFFFFFFFFFFFFFFFFFFFFFFFFFFFFF AND PUSH20 0xFFFFFFFFFFFFFFFFFFFFFFFFFFFFFFFFFFFFFFFF AND EQ ISZERO PUSH2 0x10D3 JUMPI DUP3 PUSH1 0x0 ADD DUP3 DUP2 SLOAD DUP2 LT PUSH2 0xFFC JUMPI PUSH2 0xFFB PUSH2 0x176D JUMP JUMPDEST JUMPDEST SWAP1 PUSH1 0x0 MSTORE PUSH1 0x20 PUSH1 0x0 KECCAK256 ADD PUSH1 0x0 SWAP1 SLOAD SWAP1 PUSH2 0x100 EXP SWAP1 DIV PUSH20 0xFFFFFFFFFFFFFFFFFFFFFFFFFFFFFFFFFFFFFFFF AND DUP4 PUSH1 0x0 ADD DUP3 DUP2 SLOAD DUP2 LT PUSH2 0x103D JUMPI PUSH2 0x103C PUSH2 0x176D JUMP JUMPDEST JUMPDEST SWAP1 PUSH1 0x0 MSTORE PUSH1 0x20 PUSH1 0x0 KECCAK256 ADD PUSH1 0x0 PUSH2 0x100 EXP DUP2 SLOAD DUP2 PUSH20 0xFFFFFFFFFFFFFFFFFFFFFFFFFFFFFFFFFFFFFFFF MUL NOT AND SWAP1 DUP4 PUSH20 0xFFFFFFFFFFFFFFFFFFFFFFFFFFFFFFFFFFFFFFFF AND MUL OR SWAP1 SSTORE POP DUP3 PUSH1 0x0 ADD DUP1 SLOAD DUP1 PUSH2 0x1099 JUMPI PUSH2 0x1098 PUSH2 0x173E JUMP JUMPDEST JUMPDEST PUSH1 0x1 SWAP1 SUB DUP2 DUP2 SWAP1 PUSH1 0x0 MSTORE PUSH1 0x20 PUSH1 0x0 KECCAK256 ADD PUSH1 0x0 PUSH2 0x100 EXP DUP2 SLOAD SWAP1 PUSH20 0xFFFFFFFFFFFFFFFFFFFFFFFFFFFFFFFFFFFFFFFF MUL NOT AND SWAP1 SSTORE SWAP1 SSTORE PUSH2 0x10E6 JUMP JUMPDEST DUP1 DUP1 PUSH2 0x10DE SWAP1 PUSH2 0x1697 JUMP JUMPDEST SWAP2 POP POP PUSH2 0xF63 JUMP JUMPDEST POP JUMPDEST CALLER PUSH20 0xFFFFFFFFFFFFFFFFFFFFFFFFFFFFFFFFFFFFFFFF AND PUSH2 0x8FC DUP4 PUSH1 0x1 ADD PUSH1 0x0 CALLER PUSH20 0xFFFFFFFFFFFFFFFFFFFFFFFFFFFFFFFFFFFFFFFF AND PUSH20 0xFFFFFFFFFFFFFFFFFFFFFFFFFFFFFFFFFFFFFFFF AND DUP2 MSTORE PUSH1 0x20 ADD SWAP1 DUP2 MSTORE PUSH1 0x20 ADD PUSH1 0x0 KECCAK256 SLOAD SWAP1 DUP2 ISZERO MUL SWAP1 PUSH1 0x40 MLOAD PUSH1 0x0 PUSH1 0x40 MLOAD DUP1 DUP4 SUB DUP2 DUP6 DUP9 DUP9 CALL SWAP4 POP POP POP POP ISZERO DUP1 ISZERO PUSH2 0x116F JUMPI RETURNDATASIZE PUSH1 0x0 DUP1 RETURNDATACOPY RETURNDATASIZE PUSH1 0x0 REVERT JUMPDEST POP PUSH1 0x0 DUP3 PUSH1 0x1 ADD PUSH1 0x0 CALLER PUSH20 0xFFFFFFFFFFFFFFFFFFFFFFFFFFFFFFFFFFFFFFFF AND PUSH20 0xFFFFFFFFFFFFFFFFFFFFFFFFFFFFFFFFFFFFFFFF AND DUP2 MSTORE PUSH1 0x20 ADD SWAP1 DUP2 MSTORE PUSH1 0x20 ADD PUSH1 0x0 KECCAK256 DUP2 SWAP1 SSTORE POP CALLER PUSH20 0xFFFFFFFFFFFFFFFFFFFFFFFFFFFFFFFFFFFFFFFF AND DUP4 DUP6 PUSH20 0xFFFFFFFFFFFFFFFFFFFFFFFFFFFFFFFFFFFFFFFF AND PUSH32 0x5EEE4DE26CD3C0F49F086164989C02CD12D97A964804BC188EE593E26FB98186 PUSH1 0x40 MLOAD PUSH1 0x40 MLOAD DUP1 SWAP2 SUB SWAP1 LOG4 POP POP POP POP JUMP JUMPDEST PUSH1 0x0 DUP2 CALLDATALOAD SWAP1 POP PUSH2 0x1227 DUP2 PUSH2 0x181C JUMP JUMPDEST SWAP3 SWAP2 POP POP JUMP JUMPDEST PUSH1 0x0 DUP2 MLOAD SWAP1 POP PUSH2 0x123C DUP2 PUSH2 0x181C JUMP JUMPDEST SWAP3 SWAP2 POP POP JUMP JUMPDEST PUSH1 0x0 DUP2 CALLDATALOAD SWAP1 POP PUSH2 0x1251 DUP2 PUSH2 0x1833 JUMP JUMPDEST SWAP3 SWAP2 POP POP JUMP JUMPDEST PUSH1 0x0 DUP2 MLOAD SWAP1 POP PUSH2 0x1266 DUP2 PUSH2 0x1833 JUMP JUMPDEST SWAP3 SWAP2 POP POP JUMP JUMPDEST PUSH1 0x0 PUSH1 0x20 DUP3 DUP5 SUB SLT ISZERO PUSH2 0x1282 JUMPI PUSH2 0x1281 PUSH2 0x179C JUMP JUMPDEST JUMPDEST PUSH1 0x0 PUSH2 0x1290 DUP5 DUP3 DUP6 ADD PUSH2 0x122D JUMP JUMPDEST SWAP2 POP POP SWAP3 SWAP2 POP POP JUMP JUMPDEST PUSH1 0x0 DUP1 PUSH1 0x0 DUP1 PUSH1 0x80 DUP6 DUP8 SUB SLT ISZERO PUSH2 0x12B3 JUMPI PUSH2 0x12B2 PUSH2 0x179C JUMP JUMPDEST JUMPDEST PUSH1 0x0 PUSH2 0x12C1 DUP8 DUP3 DUP9 ADD PUSH2 0x1218 JUMP JUMPDEST SWAP5 POP POP PUSH1 0x20 PUSH2 0x12D2 DUP8 DUP3 DUP9 ADD PUSH2 0x1218 JUMP JUMPDEST SWAP4 POP POP PUSH1 0x40 PUSH2 0x12E3 DUP8 DUP3 DUP9 ADD PUSH2 0x1242 JUMP JUMPDEST SWAP3 POP POP PUSH1 0x60 PUSH2 0x12F4 DUP8 DUP3 DUP9 ADD PUSH2 0x1218 JUMP JUMPDEST SWAP2 POP POP SWAP3 SWAP6 SWAP2 SWAP5 POP SWAP3 POP JUMP JUMPDEST PUSH1 0x0 DUP1 PUSH1 0x40 DUP4 DUP6 SUB SLT ISZERO PUSH2 0x1317 JUMPI PUSH2 0x1316 PUSH2 0x179C JUMP JUMPDEST JUMPDEST PUSH1 0x0 PUSH2 0x1325 DUP6 DUP3 DUP7 ADD PUSH2 0x1218 JUMP JUMPDEST SWAP3 POP POP PUSH1 0x20 PUSH2 0x1336 DUP6 DUP3 DUP7 ADD PUSH2 0x1242 JUMP JUMPDEST SWAP2 POP POP SWAP3 POP SWAP3 SWAP1 POP JUMP JUMPDEST PUSH1 0x0 PUSH1 0x20 DUP3 DUP5 SUB SLT ISZERO PUSH2 0x1356 JUMPI PUSH2 0x1355 PUSH2 0x179C JUMP JUMPDEST JUMPDEST PUSH1 0x0 PUSH2 0x1364 DUP5 DUP3 DUP6 ADD PUSH2 0x1257 JUMP JUMPDEST SWAP2 POP POP SWAP3 SWAP2 POP POP JUMP JUMPDEST PUSH2 0x1376 DUP2 PUSH2 0x1625 JUMP JUMPDEST DUP3 MSTORE POP POP JUMP JUMPDEST PUSH2 0x1385 DUP2 PUSH2 0x1637 JUMP JUMPDEST DUP3 MSTORE POP POP JUMP JUMPDEST PUSH1 0x0 PUSH2 0x1398 PUSH1 0xB DUP4 PUSH2 0x1559 JUMP JUMPDEST SWAP2 POP PUSH2 0x13A3 DUP3 PUSH2 0x17A1 JUMP JUMPDEST PUSH1 0x20 DUP3 ADD SWAP1 POP SWAP2 SWAP1 POP JUMP JUMPDEST PUSH1 0x0 PUSH2 0x13BB PUSH1 0xD DUP4 PUSH2 0x1559 JUMP JUMPDEST SWAP2 POP PUSH2 0x13C6 DUP3 PUSH2 0x17CA JUMP JUMPDEST PUSH1 0x20 DUP3 ADD SWAP1 POP SWAP2 SWAP1 POP JUMP JUMPDEST PUSH1 0x0 PUSH2 0x13DE PUSH1 0x9 DUP4 PUSH2 0x1559 JUMP JUMPDEST SWAP2 POP PUSH2 0x13E9 DUP3 PUSH2 0x17F3 JUMP JUMPDEST PUSH1 0x20 DUP3 ADD SWAP1 POP SWAP2 SWAP1 POP JUMP JUMPDEST PUSH2 0x13FD DUP2 PUSH2 0x1663 JUMP JUMPDEST DUP3 MSTORE POP POP JUMP JUMPDEST PUSH1 0x0 PUSH1 0x60 DUP3 ADD SWAP1 POP PUSH2 0x1418 PUSH1 0x0 DUP4 ADD DUP7 PUSH2 0x136D JUMP JUMPDEST PUSH2 0x1425 PUSH1 0x20 DUP4 ADD DUP6 PUSH2 0x136D JUMP JUMPDEST PUSH2 0x1432 PUSH1 0x40 DUP4 ADD DUP5 PUSH2 0x13F4 JUMP JUMPDEST SWAP5 SWAP4 POP POP POP POP JUMP JUMPDEST PUSH1 0x0 PUSH1 0x40 DUP3 ADD SWAP1 POP PUSH2 0x144F PUSH1 0x0 DUP4 ADD DUP6 PUSH2 0x136D JUMP JUMPDEST PUSH2 0x145C PUSH1 0x20 DUP4 ADD DUP5 PUSH2 0x13F4 JUMP JUMPDEST SWAP4 SWAP3 POP POP POP JUMP JUMPDEST PUSH1 0x0 PUSH1 0x60 DUP3 ADD SWAP1 POP PUSH2 0x1478 PUSH1 0x0 DUP4 ADD DUP7 PUSH2 0x136D JUMP JUMPDEST PUSH2 0x1485 PUSH1 0x20 DUP4 ADD DUP6 PUSH2 0x13F4 JUMP JUMPDEST PUSH2 0x1492 PUSH1 0x40 DUP4 ADD DUP5 PUSH2 0x13F4 JUMP JUMPDEST SWAP5 SWAP4 POP POP POP POP JUMP JUMPDEST PUSH1 0x0 PUSH1 0x20 DUP3 ADD SWAP1 POP PUSH2 0x14AF PUSH1 0x0 DUP4 ADD DUP5 PUSH2 0x137C JUMP JUMPDEST SWAP3 SWAP2 POP POP JUMP JUMPDEST PUSH1 0x0 PUSH1 0x20 DUP3 ADD SWAP1 POP DUP2 DUP2 SUB PUSH1 0x0 DUP4 ADD MSTORE PUSH2 0x14CE DUP2 PUSH2 0x138B JUMP JUMPDEST SWAP1 POP SWAP2 SWAP1 POP JUMP JUMPDEST PUSH1 0x0 PUSH1 0x20 DUP3 ADD SWAP1 POP DUP2 DUP2 SUB PUSH1 0x0 DUP4 ADD MSTORE PUSH2 0x14EE DUP2 PUSH2 0x13AE JUMP JUMPDEST SWAP1 POP SWAP2 SWAP1 POP JUMP JUMPDEST PUSH1 0x0 PUSH1 0x20 DUP3 ADD SWAP1 POP DUP2 DUP2 SUB PUSH1 0x0 DUP4 ADD MSTORE PUSH2 0x150E DUP2 PUSH2 0x13D1 JUMP JUMPDEST SWAP1 POP SWAP2 SWAP1 POP JUMP JUMPDEST PUSH1 0x0 PUSH1 0x20 DUP3 ADD SWAP1 POP PUSH2 0x152A PUSH1 0x0 DUP4 ADD DUP5 PUSH2 0x13F4 JUMP JUMPDEST SWAP3 SWAP2 POP POP JUMP JUMPDEST PUSH1 0x0 PUSH1 0x40 DUP3 ADD SWAP1 POP PUSH2 0x1545 PUSH1 0x0 DUP4 ADD DUP6 PUSH2 0x13F4 JUMP JUMPDEST PUSH2 0x1552 PUSH1 0x20 DUP4 ADD DUP5 PUSH2 0x137C JUMP JUMPDEST SWAP4 SWAP3 POP POP POP JUMP JUMPDEST PUSH1 0x0 DUP3 DUP3 MSTORE PUSH1 0x20 DUP3 ADD SWAP1 POP SWAP3 SWAP2 POP POP JUMP JUMPDEST PUSH1 0x0 PUSH2 0x1575 DUP3 PUSH2 0x1663 JUMP JUMPDEST SWAP2 POP PUSH2 0x1580 DUP4 PUSH2 0x1663 JUMP JUMPDEST SWAP3 POP DUP3 PUSH32 0xFFFFFFFFFFFFFFFFFFFFFFFFFFFFFFFFFFFFFFFFFFFFFFFFFFFFFFFFFFFFFFFF SUB DUP3 GT ISZERO PUSH2 0x15B5 JUMPI PUSH2 0x15B4 PUSH2 0x16E0 JUMP JUMPDEST JUMPDEST DUP3 DUP3 ADD SWAP1 POP SWAP3 SWAP2 POP POP JUMP JUMPDEST PUSH1 0x0 PUSH2 0x15CB DUP3 PUSH2 0x1663 JUMP JUMPDEST SWAP2 POP PUSH2 0x15D6 DUP4 PUSH2 0x1663 JUMP JUMPDEST SWAP3 POP DUP3 PUSH2 0x15E6 JUMPI PUSH2 0x15E5 PUSH2 0x170F JUMP JUMPDEST JUMPDEST DUP3 DUP3 DIV SWAP1 POP SWAP3 SWAP2 POP POP JUMP JUMPDEST PUSH1 0x0 PUSH2 0x15FC DUP3 PUSH2 0x1663 JUMP JUMPDEST SWAP2 POP PUSH2 0x1607 DUP4 PUSH2 0x1663 JUMP JUMPDEST SWAP3 POP DUP3 DUP3 LT ISZERO PUSH2 0x161A JUMPI PUSH2 0x1619 PUSH2 0x16E0 JUMP JUMPDEST JUMPDEST DUP3 DUP3 SUB SWAP1 POP SWAP3 SWAP2 POP POP JUMP JUMPDEST PUSH1 0x0 PUSH2 0x1630 DUP3 PUSH2 0x1643 JUMP JUMPDEST SWAP1 POP SWAP2 SWAP1 POP JUMP JUMPDEST PUSH1 0x0 DUP2 ISZERO ISZERO SWAP1 POP SWAP2 SWAP1 POP JUMP JUMPDEST PUSH1 0x0 PUSH20 0xFFFFFFFFFFFFFFFFFFFFFFFFFFFFFFFFFFFFFFFF DUP3 AND SWAP1 POP SWAP2 SWAP1 POP JUMP JUMPDEST PUSH1 0x0 DUP2 SWAP1 POP SWAP2 SWAP1 POP JUMP JUMPDEST PUSH1 0x0 PUSH2 0x1678 DUP3 PUSH2 0x1663 JUMP JUMPDEST SWAP2 POP PUSH1 0x0 DUP3 EQ ISZERO PUSH2 0x168C JUMPI PUSH2 0x168B PUSH2 0x16E0 JUMP JUMPDEST JUMPDEST PUSH1 0x1 DUP3 SUB SWAP1 POP SWAP2 SWAP1 POP JUMP JUMPDEST PUSH1 0x0 PUSH2 0x16A2 DUP3 PUSH2 0x1663 JUMP JUMPDEST SWAP2 POP PUSH32 0xFFFFFFFFFFFFFFFFFFFFFFFFFFFFFFFFFFFFFFFFFFFFFFFFFFFFFFFFFFFFFFFF DUP3 EQ ISZERO PUSH2 0x16D5 JUMPI PUSH2 0x16D4 PUSH2 0x16E0 JUMP JUMPDEST JUMPDEST PUSH1 0x1 DUP3 ADD SWAP1 POP SWAP2 SWAP1 POP JUMP JUMPDEST PUSH32 0x4E487B7100000000000000000000000000000000000000000000000000000000 PUSH1 0x0 MSTORE PUSH1 0x11 PUSH1 0x4 MSTORE PUSH1 0x24 PUSH1 0x0 REVERT JUMPDEST PUSH32 0x4E487B7100000000000000000000000000000000000000000000000000000000 PUSH1 0x0 MSTORE PUSH1 0x12 PUSH1 0x4 MSTORE PUSH1 0x24 PUSH1 0x0 REVERT JUMPDEST PUSH32 0x4E487B7100000000000000000000000000000000000000000000000000000000 PUSH1 0x0 MSTORE PUSH1 0x31 PUSH1 0x4 MSTORE PUSH1 0x24 PUSH1 0x0 REVERT JUMPDEST PUSH32 0x4E487B7100000000000000000000000000000000000000000000000000000000 PUSH1 0x0 MSTORE PUSH1 0x32 PUSH1 0x4 MSTORE PUSH1 0x24 PUSH1 0x0 REVERT JUMPDEST PUSH1 0x0 DUP1 REVERT JUMPDEST PUSH32 0x4F6666657220697320302E000000000000000000000000000000000000000000 PUSH1 0x0 DUP3 ADD MSTORE POP JUMP JUMPDEST PUSH32 0x556E617574686F72697A65642E00000000000000000000000000000000000000 PUSH1 0x0 DUP3 ADD MSTORE POP JUMP JUMPDEST PUSH32 0x4E6F206F666665722E0000000000000000000000000000000000000000000000 PUSH1 0x0 DUP3 ADD MSTORE POP JUMP JUMPDEST PUSH2 0x1825 DUP2 PUSH2 0x1625 JUMP JUMPDEST DUP2 EQ PUSH2 0x1830 JUMPI PUSH1 0x0 DUP1 REVERT JUMPDEST POP JUMP JUMPDEST PUSH2 0x183C DUP2 PUSH2 0x1663 JUMP JUMPDEST DUP2 EQ PUSH2 0x1847 JUMPI PUSH1 0x0 DUP1 REVERT JUMPDEST POP JUMP INVALID LOG2 PUSH5 0x6970667358 0x22 SLT KECCAK256 SWAP3 CALLDATACOPY DUP10 AND 0x4C 0xEE SGT 0xD9 0xD5 PUSH1 0xD7 0xC4 AND CALLER JUMPI CALLCODE BALANCE BALANCE 0xFB AND 0xD0 REVERT 0xD2 0xF6 SELFDESTRUCT COINBASE 0x5F DUP13 0xC PUSH16 0x507B64736F6C63430008070033000000 "
				},
				"gasEstimates": {
					"creation": {
						"codeDepositCost": "1254400",
						"executionCost": "1302",
						"totalCost": "1255702"
					},
					"external": {
						"balances()": "2429",
						"offer(address,uint256)": "infinite",
						"offers(address,uint256)": "3128",
						"submit(address,address,uint256,address)": "infinite",
						"withdraw(address,uint256)": "infinite"
					}
				},
				"methodIdentifiers": {
					"balances()": "7bb98a68",
					"offer(address,uint256)": "6b212960",
					"offers(address,uint256)": "aa1a8411",
					"submit(address,address,uint256,address)": "bbb96976",
					"withdraw(address,uint256)": "f3fef3a3"
				}
			},
			"storageLayout": {
				"storage": [
					{
						"astId": 79,
						"contract": "Offer.sol:Offer",
						"label": "offers",
						"offset": 0,
						"slot": "0",
						"type": "t_mapping(t_address,t_mapping(t_uint256,t_struct(Offers)89_storage))"
					},
					{
						"astId": 91,
						"contract": "Offer.sol:Offer",
						"label": "balances",
						"offset": 0,
						"slot": "1",
						"type": "t_uint256"
					}
				],
				"types": {
					"t_address": {
						"encoding": "inplace",
						"label": "address",
						"numberOfBytes": "20"
					},
					"t_array(t_address)dyn_storage": {
						"base": "t_address",
						"encoding": "dynamic_array",
						"label": "address[]",
						"numberOfBytes": "32"
					},
					"t_bool": {
						"encoding": "inplace",
						"label": "bool",
						"numberOfBytes": "1"
					},
					"t_mapping(t_address,t_mapping(t_uint256,t_struct(Offers)89_storage))": {
						"encoding": "mapping",
						"key": "t_address",
						"label": "mapping(address => mapping(uint256 => struct Offer.Offers))",
						"numberOfBytes": "32",
						"value": "t_mapping(t_uint256,t_struct(Offers)89_storage)"
					},
					"t_mapping(t_address,t_uint256)": {
						"encoding": "mapping",
						"key": "t_address",
						"label": "mapping(address => uint256)",
						"numberOfBytes": "32",
						"value": "t_uint256"
					},
					"t_mapping(t_uint256,t_struct(Offers)89_storage)": {
						"encoding": "mapping",
						"key": "t_uint256",
						"label": "mapping(uint256 => struct Offer.Offers)",
						"numberOfBytes": "32",
						"value": "t_struct(Offers)89_storage"
					},
					"t_struct(Offers)89_storage": {
						"encoding": "inplace",
						"label": "struct Offer.Offers",
						"members": [
							{
								"astId": 82,
								"contract": "Offer.sol:Offer",
								"label": "offerer",
								"offset": 0,
								"slot": "0",
								"type": "t_array(t_address)dyn_storage"
							},
							{
								"astId": 86,
								"contract": "Offer.sol:Offer",
								"label": "amount",
								"offset": 0,
								"slot": "1",
								"type": "t_mapping(t_address,t_uint256)"
							},
							{
								"astId": 88,
								"contract": "Offer.sol:Offer",
								"label": "isOffer",
								"offset": 0,
								"slot": "2",
								"type": "t_bool"
							}
						],
						"numberOfBytes": "96"
					},
					"t_uint256": {
						"encoding": "inplace",
						"label": "uint256",
						"numberOfBytes": "32"
					}
				}
			},
			"userdoc": {
				"kind": "user",
				"methods": {},
				"version": 1
			}
		}
	}
}