{
	"Offer.sol": {
		"Offer": {
			"abi": [
				{
					"anonymous": false,
					"inputs": [
						{
							"indexed": true,
							"internalType": "address",
							"name": "tokenAddr",
							"type": "address"
						},
						{
							"indexed": true,
							"internalType": "uint256",
							"name": "tokenId",
							"type": "uint256"
						},
						{
							"indexed": true,
							"internalType": "address",
							"name": "offerer",
							"type": "address"
						},
						{
							"indexed": false,
							"internalType": "uint256",
							"name": "amount",
							"type": "uint256"
						},
						{
							"indexed": false,
							"internalType": "bool",
							"name": "isOffer",
							"type": "bool"
						}
					],
					"name": "OfferEvent",
					"type": "event"
				},
				{
					"anonymous": false,
					"inputs": [
						{
							"indexed": true,
							"internalType": "address",
							"name": "tokenAddr",
							"type": "address"
						},
						{
							"indexed": true,
							"internalType": "uint256",
							"name": "tokenId",
							"type": "uint256"
						},
						{
							"indexed": false,
							"internalType": "bool",
							"name": "isOffer",
							"type": "bool"
						}
					],
					"name": "SubmitEvent",
					"type": "event"
				},
				{
					"inputs": [],
					"name": "balances",
					"outputs": [
						{
							"internalType": "uint256",
							"name": "",
							"type": "uint256"
						}
					],
					"stateMutability": "view",
					"type": "function"
				},
				{
					"inputs": [
						{
							"internalType": "address",
							"name": "tokenAddr",
							"type": "address"
						},
						{
							"internalType": "uint256",
							"name": "tokenId",
							"type": "uint256"
						}
					],
					"name": "offer",
					"outputs": [],
					"stateMutability": "payable",
					"type": "function"
				},
				{
					"inputs": [
						{
							"internalType": "address",
							"name": "",
							"type": "address"
						},
						{
							"internalType": "uint256",
							"name": "",
							"type": "uint256"
						}
					],
					"name": "offers",
					"outputs": [
						{
							"internalType": "bool",
							"name": "isOffer",
							"type": "bool"
						}
					],
					"stateMutability": "view",
					"type": "function"
				},
				{
					"inputs": [
						{
							"internalType": "address",
							"name": "tokenAddr",
							"type": "address"
						},
						{
							"internalType": "uint256",
							"name": "tokenId",
							"type": "uint256"
						},
						{
							"internalType": "address",
							"name": "offerer",
							"type": "address"
						}
					],
					"name": "submit",
					"outputs": [],
					"stateMutability": "payable",
					"type": "function"
				},
				{
					"inputs": [],
					"name": "withdraw",
					"outputs": [],
					"stateMutability": "payable",
					"type": "function"
				}
			],
			"devdoc": {
				"kind": "dev",
				"methods": {},
				"version": 1
			},
			"evm": {
				"assembly": "    /* \"Offer.sol\":207:1926  contract Offer {\r... */\n  mstore(0x40, 0x80)\n  callvalue\n  dup1\n  iszero\n  tag_1\n  jumpi\n  0x00\n  dup1\n  revert\ntag_1:\n  pop\n  dataSize(sub_0)\n  dup1\n  dataOffset(sub_0)\n  0x00\n  codecopy\n  0x00\n  return\nstop\n\nsub_0: assembly {\n        /* \"Offer.sol\":207:1926  contract Offer {\r... */\n      mstore(0x40, 0x80)\n      jumpi(tag_1, lt(calldatasize, 0x04))\n      shr(0xe0, calldataload(0x00))\n      dup1\n      0x3ccfd60b\n      eq\n      tag_2\n      jumpi\n      dup1\n      0x6b212960\n      eq\n      tag_3\n      jumpi\n      dup1\n      0x7bb98a68\n      eq\n      tag_4\n      jumpi\n      dup1\n      0xaa1a8411\n      eq\n      tag_5\n      jumpi\n      dup1\n      0xabd51552\n      eq\n      tag_6\n      jumpi\n    tag_1:\n      0x00\n      dup1\n      revert\n        /* \"Offer.sol\":1878:1923  function withdraw() public payable {\r... */\n    tag_2:\n      tag_7\n      tag_8\n      jump\t// in\n    tag_7:\n      stop\n        /* \"Offer.sol\":658:1093  function offer(address tokenAddr, uint tokenId) external payable {\r... */\n    tag_3:\n      tag_9\n      0x04\n      dup1\n      calldatasize\n      sub\n      dup2\n      add\n      swap1\n      tag_10\n      swap2\n      swap1\n      tag_11\n      jump\t// in\n    tag_10:\n      tag_12\n      jump\t// in\n    tag_9:\n      stop\n        /* \"Offer.sol\":629:649  uint public balances */\n    tag_4:\n      callvalue\n      dup1\n      iszero\n      tag_13\n      jumpi\n      0x00\n      dup1\n      revert\n    tag_13:\n      pop\n      tag_14\n      tag_15\n      jump\t// in\n    tag_14:\n      mload(0x40)\n      tag_16\n      swap2\n      swap1\n      tag_17\n      jump\t// in\n    tag_16:\n      mload(0x40)\n      dup1\n      swap2\n      sub\n      swap1\n      return\n        /* \"Offer.sol\":441:497  mapping(address =>mapping(uint => Offers)) public offers */\n    tag_5:\n      callvalue\n      dup1\n      iszero\n      tag_18\n      jumpi\n      0x00\n      dup1\n      revert\n    tag_18:\n      pop\n      tag_19\n      0x04\n      dup1\n      calldatasize\n      sub\n      dup2\n      add\n      swap1\n      tag_20\n      swap2\n      swap1\n      tag_11\n      jump\t// in\n    tag_20:\n      tag_21\n      jump\t// in\n    tag_19:\n      mload(0x40)\n      tag_22\n      swap2\n      swap1\n      tag_23\n      jump\t// in\n    tag_22:\n      mload(0x40)\n      dup1\n      swap2\n      sub\n      swap1\n      return\n        /* \"Offer.sol\":1101:1870  function submit(address tokenAddr, uint tokenId, address offerer) external payable {\r... */\n    tag_6:\n      tag_24\n      0x04\n      dup1\n      calldatasize\n      sub\n      dup2\n      add\n      swap1\n      tag_25\n      swap2\n      swap1\n      tag_26\n      jump\t// in\n    tag_25:\n      tag_27\n      jump\t// in\n    tag_24:\n      stop\n        /* \"Offer.sol\":1878:1923  function withdraw() public payable {\r... */\n    tag_8:\n      jump\t// out\n        /* \"Offer.sol\":658:1093  function offer(address tokenAddr, uint tokenId) external payable {\r... */\n    tag_12:\n        /* \"Offer.sol\":734:756  Offers storage _offers */\n      0x00\n        /* \"Offer.sol\":759:765  offers */\n      dup1\n        /* \"Offer.sol\":759:776  offers[tokenAddr] */\n      0x00\n        /* \"Offer.sol\":766:775  tokenAddr */\n      dup5\n        /* \"Offer.sol\":759:776  offers[tokenAddr] */\n      0xffffffffffffffffffffffffffffffffffffffff\n      and\n      0xffffffffffffffffffffffffffffffffffffffff\n      and\n      dup2\n      mstore\n      0x20\n      add\n      swap1\n      dup2\n      mstore\n      0x20\n      add\n      0x00\n      keccak256\n        /* \"Offer.sol\":759:785  offers[tokenAddr][tokenId] */\n      0x00\n        /* \"Offer.sol\":777:784  tokenId */\n      dup4\n        /* \"Offer.sol\":759:785  offers[tokenAddr][tokenId] */\n      dup2\n      mstore\n      0x20\n      add\n      swap1\n      dup2\n      mstore\n      0x20\n      add\n      0x00\n      keccak256\n        /* \"Offer.sol\":734:785  Offers storage _offers = offers[tokenAddr][tokenId] */\n      swap1\n      pop\n        /* \"Offer.sol\":831:832  0 */\n      0x00\n        /* \"Offer.sol\":801:808  _offers */\n      dup2\n        /* \"Offer.sol\":801:815  _offers.amount */\n      0x01\n      add\n        /* \"Offer.sol\":801:827  _offers.amount[msg.sender] */\n      0x00\n        /* \"Offer.sol\":816:826  msg.sender */\n      caller\n        /* \"Offer.sol\":801:827  _offers.amount[msg.sender] */\n      0xffffffffffffffffffffffffffffffffffffffff\n      and\n      0xffffffffffffffffffffffffffffffffffffffff\n      and\n      dup2\n      mstore\n      0x20\n      add\n      swap1\n      dup2\n      mstore\n      0x20\n      add\n      0x00\n      keccak256\n      sload\n        /* \"Offer.sol\":801:832  _offers.amount[msg.sender] == 0 */\n      eq\n        /* \"Offer.sol\":798:893  if(_offers.amount[msg.sender] == 0) {\r... */\n      iszero\n      tag_30\n      jumpi\n        /* \"Offer.sol\":849:856  _offers */\n      dup1\n        /* \"Offer.sol\":849:864  _offers.offerer */\n      0x00\n      add\n        /* \"Offer.sol\":870:880  msg.sender */\n      caller\n        /* \"Offer.sol\":849:881  _offers.offerer.push(msg.sender) */\n      swap1\n      dup1\n      0x01\n      dup2\n      sload\n      add\n      dup1\n      dup3\n      sstore\n      dup1\n      swap2\n      pop\n      pop\n      0x01\n      swap1\n      sub\n      swap1\n      0x00\n      mstore\n      keccak256(0x00, 0x20)\n      add\n      0x00\n      swap1\n      swap2\n      swap1\n      swap2\n      swap1\n      swap2\n      0x0100\n      exp\n      dup2\n      sload\n      dup2\n      0xffffffffffffffffffffffffffffffffffffffff\n      mul\n      not\n      and\n      swap1\n      dup4\n      0xffffffffffffffffffffffffffffffffffffffff\n      and\n      mul\n      or\n      swap1\n      sstore\n      pop\n        /* \"Offer.sol\":798:893  if(_offers.amount[msg.sender] == 0) {\r... */\n    tag_30:\n        /* \"Offer.sol\":932:941  msg.value */\n      callvalue\n        /* \"Offer.sol\":903:910  _offers */\n      dup2\n        /* \"Offer.sol\":903:917  _offers.amount */\n      0x01\n      add\n        /* \"Offer.sol\":903:929  _offers.amount[msg.sender] */\n      0x00\n        /* \"Offer.sol\":918:928  msg.sender */\n      caller\n        /* \"Offer.sol\":903:929  _offers.amount[msg.sender] */\n      0xffffffffffffffffffffffffffffffffffffffff\n      and\n      0xffffffffffffffffffffffffffffffffffffffff\n      and\n      dup2\n      mstore\n      0x20\n      add\n      swap1\n      dup2\n      mstore\n      0x20\n      add\n      0x00\n      keccak256\n        /* \"Offer.sol\":903:941  _offers.amount[msg.sender] = msg.value */\n      dup2\n      swap1\n      sstore\n      pop\n        /* \"Offer.sol\":970:974  true */\n      0x01\n        /* \"Offer.sol\":952:959  _offers */\n      dup2\n        /* \"Offer.sol\":952:967  _offers.isOffer */\n      0x02\n      add\n      0x00\n        /* \"Offer.sol\":952:974  _offers.isOffer = true */\n      0x0100\n      exp\n      dup2\n      sload\n      dup2\n      0xff\n      mul\n      not\n      and\n      swap1\n      dup4\n      iszero\n      iszero\n      mul\n      or\n      swap1\n      sstore\n      pop\n        /* \"Offer.sol\":999:1008  msg.value */\n      callvalue\n        /* \"Offer.sol\":987:995  balances */\n      0x01\n      0x00\n        /* \"Offer.sol\":987:1008  balances += msg.value */\n      dup3\n      dup3\n      sload\n      tag_32\n      swap2\n      swap1\n      tag_33\n      jump\t// in\n    tag_32:\n      swap3\n      pop\n      pop\n      dup2\n      swap1\n      sstore\n      pop\n        /* \"Offer.sol\":1057:1067  msg.sender */\n      caller\n        /* \"Offer.sol\":1026:1085  OfferEvent(tokenAddr, tokenId, msg.sender, msg.value, true) */\n      0xffffffffffffffffffffffffffffffffffffffff\n      and\n        /* \"Offer.sol\":1048:1055  tokenId */\n      dup3\n        /* \"Offer.sol\":1037:1046  tokenAddr */\n      dup5\n        /* \"Offer.sol\":1026:1085  OfferEvent(tokenAddr, tokenId, msg.sender, msg.value, true) */\n      0xffffffffffffffffffffffffffffffffffffffff\n      and\n      0xa297a5039e151f85fd39b734d57194f31bf1ba744464810f8fa18941216c79b0\n        /* \"Offer.sol\":1069:1078  msg.value */\n      callvalue\n        /* \"Offer.sol\":1080:1084  true */\n      0x01\n        /* \"Offer.sol\":1026:1085  OfferEvent(tokenAddr, tokenId, msg.sender, msg.value, true) */\n      mload(0x40)\n      tag_34\n      swap3\n      swap2\n      swap1\n      tag_35\n      jump\t// in\n    tag_34:\n      mload(0x40)\n      dup1\n      swap2\n      sub\n      swap1\n      log4\n        /* \"Offer.sol\":723:1093  {\r... */\n      pop\n        /* \"Offer.sol\":658:1093  function offer(address tokenAddr, uint tokenId) external payable {\r... */\n      pop\n      pop\n      jump\t// out\n        /* \"Offer.sol\":629:649  uint public balances */\n    tag_15:\n      sload(0x01)\n      dup2\n      jump\t// out\n        /* \"Offer.sol\":441:497  mapping(address =>mapping(uint => Offers)) public offers */\n    tag_21:\n      mstore(0x20, 0x00)\n      dup2\n      0x00\n      mstore\n      mstore(0x20, keccak256(0x00, 0x40))\n      dup1\n      0x00\n      mstore\n      keccak256(0x00, 0x40)\n      0x00\n      swap2\n      pop\n      swap2\n      pop\n      pop\n      dup1\n      0x02\n      add\n      0x00\n      swap1\n      sload\n      swap1\n      0x0100\n      exp\n      swap1\n      div\n      0xff\n      and\n      swap1\n      pop\n      dup2\n      jump\t// out\n        /* \"Offer.sol\":1101:1870  function submit(address tokenAddr, uint tokenId, address offerer) external payable {\r... */\n    tag_27:\n        /* \"Offer.sol\":1195:1217  Offers storage _offers */\n      0x00\n        /* \"Offer.sol\":1220:1226  offers */\n      dup1\n        /* \"Offer.sol\":1220:1237  offers[tokenAddr] */\n      0x00\n        /* \"Offer.sol\":1227:1236  tokenAddr */\n      dup6\n        /* \"Offer.sol\":1220:1237  offers[tokenAddr] */\n      0xffffffffffffffffffffffffffffffffffffffff\n      and\n      0xffffffffffffffffffffffffffffffffffffffff\n      and\n      dup2\n      mstore\n      0x20\n      add\n      swap1\n      dup2\n      mstore\n      0x20\n      add\n      0x00\n      keccak256\n        /* \"Offer.sol\":1220:1246  offers[tokenAddr][tokenId] */\n      0x00\n        /* \"Offer.sol\":1238:1245  tokenId */\n      dup5\n        /* \"Offer.sol\":1220:1246  offers[tokenAddr][tokenId] */\n      dup2\n      mstore\n      0x20\n      add\n      swap1\n      dup2\n      mstore\n      0x20\n      add\n      0x00\n      keccak256\n        /* \"Offer.sol\":1195:1246  Offers storage _offers = offers[tokenAddr][tokenId] */\n      swap1\n      pop\n        /* \"Offer.sol\":1257:1270  IERC721 token */\n      0x00\n        /* \"Offer.sol\":1281:1290  tokenAddr */\n      dup5\n        /* \"Offer.sol\":1257:1291  IERC721 token = IERC721(tokenAddr) */\n      swap1\n      pop\n        /* \"Offer.sol\":1338:1348  msg.sender */\n      caller\n        /* \"Offer.sol\":1312:1348  token.ownerOf(tokenId) == msg.sender */\n      0xffffffffffffffffffffffffffffffffffffffff\n      and\n        /* \"Offer.sol\":1312:1317  token */\n      dup2\n        /* \"Offer.sol\":1312:1325  token.ownerOf */\n      0xffffffffffffffffffffffffffffffffffffffff\n      and\n      0x6352211e\n        /* \"Offer.sol\":1326:1333  tokenId */\n      dup7\n        /* \"Offer.sol\":1312:1334  token.ownerOf(tokenId) */\n      mload(0x40)\n      dup3\n      0xffffffff\n      and\n      0xe0\n      shl\n      dup2\n      mstore\n      0x04\n      add\n      tag_37\n      swap2\n      swap1\n      tag_17\n      jump\t// in\n    tag_37:\n      0x20\n      mload(0x40)\n      dup1\n      dup4\n      sub\n      dup2\n      dup7\n      dup1\n      extcodesize\n      iszero\n      dup1\n      iszero\n      tag_38\n      jumpi\n      0x00\n      dup1\n      revert\n    tag_38:\n      pop\n      gas\n      staticcall\n      iszero\n      dup1\n      iszero\n      tag_40\n      jumpi\n      returndatasize\n      0x00\n      dup1\n      returndatacopy\n      revert(0x00, returndatasize)\n    tag_40:\n      pop\n      pop\n      pop\n      pop\n      mload(0x40)\n      returndatasize\n      not(0x1f)\n      0x1f\n      dup3\n      add\n      and\n      dup3\n      add\n      dup1\n      0x40\n      mstore\n      pop\n      dup2\n      add\n      swap1\n      tag_41\n      swap2\n      swap1\n      tag_42\n      jump\t// in\n    tag_41:\n        /* \"Offer.sol\":1312:1348  token.ownerOf(tokenId) == msg.sender */\n      0xffffffffffffffffffffffffffffffffffffffff\n      and\n      eq\n        /* \"Offer.sol\":1304:1366  require(token.ownerOf(tokenId) == msg.sender, \"Unauthorized.\") */\n      tag_43\n      jumpi\n      mload(0x40)\n      0x08c379a000000000000000000000000000000000000000000000000000000000\n      dup2\n      mstore\n      0x04\n      add\n      tag_44\n      swap1\n      tag_45\n      jump\t// in\n    tag_44:\n      mload(0x40)\n      dup1\n      swap2\n      sub\n      swap1\n      revert\n    tag_43:\n        /* \"Offer.sol\":1404:1408  true */\n      0x01\n        /* \"Offer.sol\":1385:1408  _offers.isOffer == true */\n      iszero\n      iszero\n        /* \"Offer.sol\":1385:1392  _offers */\n      dup3\n        /* \"Offer.sol\":1385:1400  _offers.isOffer */\n      0x02\n      add\n      0x00\n      swap1\n      sload\n      swap1\n      0x0100\n      exp\n      swap1\n      div\n      0xff\n      and\n        /* \"Offer.sol\":1385:1408  _offers.isOffer == true */\n      iszero\n      iszero\n      eq\n        /* \"Offer.sol\":1377:1422  require(_offers.isOffer == true, \"No offer.\") */\n      tag_46\n      jumpi\n      mload(0x40)\n      0x08c379a000000000000000000000000000000000000000000000000000000000\n      dup2\n      mstore\n      0x04\n      add\n      tag_47\n      swap1\n      tag_48\n      jump\t// in\n    tag_47:\n      mload(0x40)\n      dup1\n      swap2\n      sub\n      swap1\n      revert\n    tag_46:\n        /* \"Offer.sol\":1443:1453  msg.sender */\n      caller\n        /* \"Offer.sol\":1435:1463  payable(msg.sender).transfer */\n      0xffffffffffffffffffffffffffffffffffffffff\n      and\n        /* \"Offer.sol\":1435:1488  payable(msg.sender).transfer(_offers.amount[offerer]) */\n      0x08fc\n        /* \"Offer.sol\":1464:1471  _offers */\n      dup4\n        /* \"Offer.sol\":1464:1478  _offers.amount */\n      0x01\n      add\n        /* \"Offer.sol\":1464:1487  _offers.amount[offerer] */\n      0x00\n        /* \"Offer.sol\":1479:1486  offerer */\n      dup7\n        /* \"Offer.sol\":1464:1487  _offers.amount[offerer] */\n      0xffffffffffffffffffffffffffffffffffffffff\n      and\n      0xffffffffffffffffffffffffffffffffffffffff\n      and\n      dup2\n      mstore\n      0x20\n      add\n      swap1\n      dup2\n      mstore\n      0x20\n      add\n      0x00\n      keccak256\n      sload\n        /* \"Offer.sol\":1435:1488  payable(msg.sender).transfer(_offers.amount[offerer]) */\n      swap1\n      dup2\n      iszero\n      mul\n      swap1\n      mload(0x40)\n      0x00\n      mload(0x40)\n      dup1\n      dup4\n      sub\n      dup2\n      dup6\n      dup9\n      dup9\n      call\n      swap4\n      pop\n      pop\n      pop\n      pop\n      iszero\n      dup1\n      iszero\n      tag_50\n      jumpi\n      returndatasize\n      0x00\n      dup1\n      returndatacopy\n      revert(0x00, returndatasize)\n    tag_50:\n      pop\n        /* \"Offer.sol\":1511:1518  _offers */\n      dup2\n        /* \"Offer.sol\":1511:1525  _offers.amount */\n      0x01\n      add\n        /* \"Offer.sol\":1511:1534  _offers.amount[offerer] */\n      0x00\n        /* \"Offer.sol\":1526:1533  offerer */\n      dup5\n        /* \"Offer.sol\":1511:1534  _offers.amount[offerer] */\n      0xffffffffffffffffffffffffffffffffffffffff\n      and\n      0xffffffffffffffffffffffffffffffffffffffff\n      and\n      dup2\n      mstore\n      0x20\n      add\n      swap1\n      dup2\n      mstore\n      0x20\n      add\n      0x00\n      keccak256\n      sload\n        /* \"Offer.sol\":1499:1507  balances */\n      0x01\n      0x00\n        /* \"Offer.sol\":1499:1534  balances -= _offers.amount[offerer] */\n      dup3\n      dup3\n      sload\n      tag_51\n      swap2\n      swap1\n      tag_52\n      jump\t// in\n    tag_51:\n      swap3\n      pop\n      pop\n      dup2\n      swap1\n      sstore\n      pop\n        /* \"Offer.sol\":1563:1568  false */\n      0x00\n        /* \"Offer.sol\":1545:1552  _offers */\n      dup3\n        /* \"Offer.sol\":1545:1560  _offers.isOffer */\n      0x02\n      add\n      0x00\n        /* \"Offer.sol\":1545:1568  _offers.isOffer = false */\n      0x0100\n      exp\n      dup2\n      sload\n      dup2\n      0xff\n      mul\n      not\n      and\n      swap1\n      dup4\n      iszero\n      iszero\n      mul\n      or\n      swap1\n      sstore\n      pop\n        /* \"Offer.sol\":1593:1599  uint i */\n      0x00\n        /* \"Offer.sol\":1627:1628  1 */\n      0x01\n        /* \"Offer.sol\":1602:1609  _offers */\n      dup4\n        /* \"Offer.sol\":1602:1617  _offers.offerer */\n      0x00\n      add\n        /* \"Offer.sol\":1602:1624  _offers.offerer.length */\n      dup1\n      sload\n      swap1\n      pop\n        /* \"Offer.sol\":1602:1628  _offers.offerer.length - 1 */\n      tag_56\n      swap2\n      swap1\n      tag_52\n      jump\t// in\n    tag_56:\n        /* \"Offer.sol\":1593:1628  uint i = _offers.offerer.length - 1 */\n      swap1\n      pop\n        /* \"Offer.sol\":1589:1744  for(uint i = _offers.offerer.length - 1; i >= 0; i--) {\r... */\n    tag_53:\n        /* \"Offer.sol\":1635:1636  0 */\n      0x00\n        /* \"Offer.sol\":1630:1631  i */\n      dup2\n        /* \"Offer.sol\":1630:1636  i >= 0 */\n      lt\n        /* \"Offer.sol\":1589:1744  for(uint i = _offers.offerer.length - 1; i >= 0; i--) {\r... */\n      tag_54\n      jumpi\n        /* \"Offer.sol\":1695:1696  0 */\n      0x00\n        /* \"Offer.sol\":1658:1665  _offers */\n      dup4\n        /* \"Offer.sol\":1658:1672  _offers.amount */\n      0x01\n      add\n        /* \"Offer.sol\":1658:1692  _offers.amount[_offers.offerer[i]] */\n      0x00\n        /* \"Offer.sol\":1673:1680  _offers */\n      dup6\n        /* \"Offer.sol\":1673:1688  _offers.offerer */\n      0x00\n      add\n        /* \"Offer.sol\":1689:1690  i */\n      dup5\n        /* \"Offer.sol\":1673:1691  _offers.offerer[i] */\n      dup2\n      sload\n      dup2\n      lt\n      tag_57\n      jumpi\n      tag_58\n      tag_59\n      jump\t// in\n    tag_58:\n    tag_57:\n      swap1\n      0x00\n      mstore\n      keccak256(0x00, 0x20)\n      add\n      0x00\n      swap1\n      sload\n      swap1\n      0x0100\n      exp\n      swap1\n      div\n      0xffffffffffffffffffffffffffffffffffffffff\n      and\n        /* \"Offer.sol\":1658:1692  _offers.amount[_offers.offerer[i]] */\n      0xffffffffffffffffffffffffffffffffffffffff\n      and\n      0xffffffffffffffffffffffffffffffffffffffff\n      and\n      dup2\n      mstore\n      0x20\n      add\n      swap1\n      dup2\n      mstore\n      0x20\n      add\n      0x00\n      keccak256\n        /* \"Offer.sol\":1658:1696  _offers.amount[_offers.offerer[i]] = 0 */\n      dup2\n      swap1\n      sstore\n      pop\n        /* \"Offer.sol\":1711:1718  _offers */\n      dup3\n        /* \"Offer.sol\":1711:1726  _offers.offerer */\n      0x00\n      add\n        /* \"Offer.sol\":1711:1732  _offers.offerer.pop() */\n      dup1\n      sload\n      dup1\n      tag_61\n      jumpi\n      tag_62\n      tag_63\n      jump\t// in\n    tag_62:\n    tag_61:\n      0x01\n      swap1\n      sub\n      dup2\n      dup2\n      swap1\n      0x00\n      mstore\n      keccak256(0x00, 0x20)\n      add\n      exp(0x0100, 0x00)\n      dup2\n      sload\n      swap1\n      0xffffffffffffffffffffffffffffffffffffffff\n      mul\n      not\n      and\n      swap1\n      sstore\n      swap1\n      sstore\n        /* \"Offer.sol\":1638:1641  i-- */\n      dup1\n      dup1\n      tag_65\n      swap1\n      tag_66\n      jump\t// in\n    tag_65:\n      swap2\n      pop\n      pop\n        /* \"Offer.sol\":1589:1744  for(uint i = _offers.offerer.length - 1; i >= 0; i--) {\r... */\n      jump(tag_53)\n    tag_54:\n      pop\n        /* \"Offer.sol\":1758:1763  token */\n      dup1\n        /* \"Offer.sol\":1758:1776  token.transferFrom */\n      0xffffffffffffffffffffffffffffffffffffffff\n      and\n      0x23b872dd\n        /* \"Offer.sol\":1777:1787  msg.sender */\n      caller\n        /* \"Offer.sol\":1789:1796  offerer */\n      dup6\n        /* \"Offer.sol\":1798:1805  tokenId */\n      dup8\n        /* \"Offer.sol\":1758:1806  token.transferFrom(msg.sender, offerer, tokenId) */\n      mload(0x40)\n      dup5\n      0xffffffff\n      and\n      0xe0\n      shl\n      dup2\n      mstore\n      0x04\n      add\n      tag_67\n      swap4\n      swap3\n      swap2\n      swap1\n      tag_68\n      jump\t// in\n    tag_67:\n      0x00\n      mload(0x40)\n      dup1\n      dup4\n      sub\n      dup2\n      0x00\n      dup8\n      dup1\n      extcodesize\n      iszero\n      dup1\n      iszero\n      tag_69\n      jumpi\n      0x00\n      dup1\n      revert\n    tag_69:\n      pop\n      gas\n      call\n      iszero\n      dup1\n      iszero\n      tag_71\n      jumpi\n      returndatasize\n      0x00\n      dup1\n      returndatacopy\n      revert(0x00, returndatasize)\n    tag_71:\n      pop\n      pop\n      pop\n      pop\n        /* \"Offer.sol\":1847:1854  tokenId */\n      dup4\n        /* \"Offer.sol\":1836:1845  tokenAddr */\n      dup6\n        /* \"Offer.sol\":1824:1862  SubmitEvent(tokenAddr, tokenId, false) */\n      0xffffffffffffffffffffffffffffffffffffffff\n      and\n      0x9663db6e9b1f015a82beb1b03ec8fed9d1a25b5da31b2cc92c2be9e8c629a80d\n        /* \"Offer.sol\":1856:1861  false */\n      0x00\n        /* \"Offer.sol\":1824:1862  SubmitEvent(tokenAddr, tokenId, false) */\n      mload(0x40)\n      tag_72\n      swap2\n      swap1\n      tag_23\n      jump\t// in\n    tag_72:\n      mload(0x40)\n      dup1\n      swap2\n      sub\n      swap1\n      log3\n        /* \"Offer.sol\":1184:1870  {\r... */\n      pop\n      pop\n        /* \"Offer.sol\":1101:1870  function submit(address tokenAddr, uint tokenId, address offerer) external payable {\r... */\n      pop\n      pop\n      pop\n      jump\t// out\n        /* \"#utility.yul\":7:146   */\n    tag_74:\n        /* \"#utility.yul\":53:58   */\n      0x00\n        /* \"#utility.yul\":91:97   */\n      dup2\n        /* \"#utility.yul\":78:98   */\n      calldataload\n        /* \"#utility.yul\":69:98   */\n      swap1\n      pop\n        /* \"#utility.yul\":107:140   */\n      tag_76\n        /* \"#utility.yul\":134:139   */\n      dup2\n        /* \"#utility.yul\":107:140   */\n      tag_77\n      jump\t// in\n    tag_76:\n        /* \"#utility.yul\":7:146   */\n      swap3\n      swap2\n      pop\n      pop\n      jump\t// out\n        /* \"#utility.yul\":152:295   */\n    tag_78:\n        /* \"#utility.yul\":209:214   */\n      0x00\n        /* \"#utility.yul\":240:246   */\n      dup2\n        /* \"#utility.yul\":234:247   */\n      mload\n        /* \"#utility.yul\":225:247   */\n      swap1\n      pop\n        /* \"#utility.yul\":256:289   */\n      tag_80\n        /* \"#utility.yul\":283:288   */\n      dup2\n        /* \"#utility.yul\":256:289   */\n      tag_77\n      jump\t// in\n    tag_80:\n        /* \"#utility.yul\":152:295   */\n      swap3\n      swap2\n      pop\n      pop\n      jump\t// out\n        /* \"#utility.yul\":301:440   */\n    tag_81:\n        /* \"#utility.yul\":347:352   */\n      0x00\n        /* \"#utility.yul\":385:391   */\n      dup2\n        /* \"#utility.yul\":372:392   */\n      calldataload\n        /* \"#utility.yul\":363:392   */\n      swap1\n      pop\n        /* \"#utility.yul\":401:434   */\n      tag_83\n        /* \"#utility.yul\":428:433   */\n      dup2\n        /* \"#utility.yul\":401:434   */\n      tag_84\n      jump\t// in\n    tag_83:\n        /* \"#utility.yul\":301:440   */\n      swap3\n      swap2\n      pop\n      pop\n      jump\t// out\n        /* \"#utility.yul\":446:797   */\n    tag_42:\n        /* \"#utility.yul\":516:522   */\n      0x00\n        /* \"#utility.yul\":565:567   */\n      0x20\n        /* \"#utility.yul\":553:562   */\n      dup3\n        /* \"#utility.yul\":544:551   */\n      dup5\n        /* \"#utility.yul\":540:563   */\n      sub\n        /* \"#utility.yul\":536:568   */\n      slt\n        /* \"#utility.yul\":533:652   */\n      iszero\n      tag_86\n      jumpi\n        /* \"#utility.yul\":571:650   */\n      tag_87\n      tag_88\n      jump\t// in\n    tag_87:\n        /* \"#utility.yul\":533:652   */\n    tag_86:\n        /* \"#utility.yul\":691:692   */\n      0x00\n        /* \"#utility.yul\":716:780   */\n      tag_89\n        /* \"#utility.yul\":772:779   */\n      dup5\n        /* \"#utility.yul\":763:769   */\n      dup3\n        /* \"#utility.yul\":752:761   */\n      dup6\n        /* \"#utility.yul\":748:770   */\n      add\n        /* \"#utility.yul\":716:780   */\n      tag_78\n      jump\t// in\n    tag_89:\n        /* \"#utility.yul\":706:780   */\n      swap2\n      pop\n        /* \"#utility.yul\":662:790   */\n      pop\n        /* \"#utility.yul\":446:797   */\n      swap3\n      swap2\n      pop\n      pop\n      jump\t// out\n        /* \"#utility.yul\":803:1277   */\n    tag_11:\n        /* \"#utility.yul\":871:877   */\n      0x00\n        /* \"#utility.yul\":879:885   */\n      dup1\n        /* \"#utility.yul\":928:930   */\n      0x40\n        /* \"#utility.yul\":916:925   */\n      dup4\n        /* \"#utility.yul\":907:914   */\n      dup6\n        /* \"#utility.yul\":903:926   */\n      sub\n        /* \"#utility.yul\":899:931   */\n      slt\n        /* \"#utility.yul\":896:1015   */\n      iszero\n      tag_91\n      jumpi\n        /* \"#utility.yul\":934:1013   */\n      tag_92\n      tag_88\n      jump\t// in\n    tag_92:\n        /* \"#utility.yul\":896:1015   */\n    tag_91:\n        /* \"#utility.yul\":1054:1055   */\n      0x00\n        /* \"#utility.yul\":1079:1132   */\n      tag_93\n        /* \"#utility.yul\":1124:1131   */\n      dup6\n        /* \"#utility.yul\":1115:1121   */\n      dup3\n        /* \"#utility.yul\":1104:1113   */\n      dup7\n        /* \"#utility.yul\":1100:1122   */\n      add\n        /* \"#utility.yul\":1079:1132   */\n      tag_74\n      jump\t// in\n    tag_93:\n        /* \"#utility.yul\":1069:1132   */\n      swap3\n      pop\n        /* \"#utility.yul\":1025:1142   */\n      pop\n        /* \"#utility.yul\":1181:1183   */\n      0x20\n        /* \"#utility.yul\":1207:1260   */\n      tag_94\n        /* \"#utility.yul\":1252:1259   */\n      dup6\n        /* \"#utility.yul\":1243:1249   */\n      dup3\n        /* \"#utility.yul\":1232:1241   */\n      dup7\n        /* \"#utility.yul\":1228:1250   */\n      add\n        /* \"#utility.yul\":1207:1260   */\n      tag_81\n      jump\t// in\n    tag_94:\n        /* \"#utility.yul\":1197:1260   */\n      swap2\n      pop\n        /* \"#utility.yul\":1152:1270   */\n      pop\n        /* \"#utility.yul\":803:1277   */\n      swap3\n      pop\n      swap3\n      swap1\n      pop\n      jump\t// out\n        /* \"#utility.yul\":1283:1902   */\n    tag_26:\n        /* \"#utility.yul\":1360:1366   */\n      0x00\n        /* \"#utility.yul\":1368:1374   */\n      dup1\n        /* \"#utility.yul\":1376:1382   */\n      0x00\n        /* \"#utility.yul\":1425:1427   */\n      0x60\n        /* \"#utility.yul\":1413:1422   */\n      dup5\n        /* \"#utility.yul\":1404:1411   */\n      dup7\n        /* \"#utility.yul\":1400:1423   */\n      sub\n        /* \"#utility.yul\":1396:1428   */\n      slt\n        /* \"#utility.yul\":1393:1512   */\n      iszero\n      tag_96\n      jumpi\n        /* \"#utility.yul\":1431:1510   */\n      tag_97\n      tag_88\n      jump\t// in\n    tag_97:\n        /* \"#utility.yul\":1393:1512   */\n    tag_96:\n        /* \"#utility.yul\":1551:1552   */\n      0x00\n        /* \"#utility.yul\":1576:1629   */\n      tag_98\n        /* \"#utility.yul\":1621:1628   */\n      dup7\n        /* \"#utility.yul\":1612:1618   */\n      dup3\n        /* \"#utility.yul\":1601:1610   */\n      dup8\n        /* \"#utility.yul\":1597:1619   */\n      add\n        /* \"#utility.yul\":1576:1629   */\n      tag_74\n      jump\t// in\n    tag_98:\n        /* \"#utility.yul\":1566:1629   */\n      swap4\n      pop\n        /* \"#utility.yul\":1522:1639   */\n      pop\n        /* \"#utility.yul\":1678:1680   */\n      0x20\n        /* \"#utility.yul\":1704:1757   */\n      tag_99\n        /* \"#utility.yul\":1749:1756   */\n      dup7\n        /* \"#utility.yul\":1740:1746   */\n      dup3\n        /* \"#utility.yul\":1729:1738   */\n      dup8\n        /* \"#utility.yul\":1725:1747   */\n      add\n        /* \"#utility.yul\":1704:1757   */\n      tag_81\n      jump\t// in\n    tag_99:\n        /* \"#utility.yul\":1694:1757   */\n      swap3\n      pop\n        /* \"#utility.yul\":1649:1767   */\n      pop\n        /* \"#utility.yul\":1806:1808   */\n      0x40\n        /* \"#utility.yul\":1832:1885   */\n      tag_100\n        /* \"#utility.yul\":1877:1884   */\n      dup7\n        /* \"#utility.yul\":1868:1874   */\n      dup3\n        /* \"#utility.yul\":1857:1866   */\n      dup8\n        /* \"#utility.yul\":1853:1875   */\n      add\n        /* \"#utility.yul\":1832:1885   */\n      tag_74\n      jump\t// in\n    tag_100:\n        /* \"#utility.yul\":1822:1885   */\n      swap2\n      pop\n        /* \"#utility.yul\":1777:1895   */\n      pop\n        /* \"#utility.yul\":1283:1902   */\n      swap3\n      pop\n      swap3\n      pop\n      swap3\n      jump\t// out\n        /* \"#utility.yul\":1908:2026   */\n    tag_101:\n        /* \"#utility.yul\":1995:2019   */\n      tag_103\n        /* \"#utility.yul\":2013:2018   */\n      dup2\n        /* \"#utility.yul\":1995:2019   */\n      tag_104\n      jump\t// in\n    tag_103:\n        /* \"#utility.yul\":1990:1993   */\n      dup3\n        /* \"#utility.yul\":1983:2020   */\n      mstore\n        /* \"#utility.yul\":1908:2026   */\n      pop\n      pop\n      jump\t// out\n        /* \"#utility.yul\":2032:2141   */\n    tag_105:\n        /* \"#utility.yul\":2113:2134   */\n      tag_107\n        /* \"#utility.yul\":2128:2133   */\n      dup2\n        /* \"#utility.yul\":2113:2134   */\n      tag_108\n      jump\t// in\n    tag_107:\n        /* \"#utility.yul\":2108:2111   */\n      dup3\n        /* \"#utility.yul\":2101:2135   */\n      mstore\n        /* \"#utility.yul\":2032:2141   */\n      pop\n      pop\n      jump\t// out\n        /* \"#utility.yul\":2147:2513   */\n    tag_109:\n        /* \"#utility.yul\":2289:2292   */\n      0x00\n        /* \"#utility.yul\":2310:2377   */\n      tag_111\n        /* \"#utility.yul\":2374:2376   */\n      0x0d\n        /* \"#utility.yul\":2369:2372   */\n      dup4\n        /* \"#utility.yul\":2310:2377   */\n      tag_112\n      jump\t// in\n    tag_111:\n        /* \"#utility.yul\":2303:2377   */\n      swap2\n      pop\n        /* \"#utility.yul\":2386:2479   */\n      tag_113\n        /* \"#utility.yul\":2475:2478   */\n      dup3\n        /* \"#utility.yul\":2386:2479   */\n      tag_114\n      jump\t// in\n    tag_113:\n        /* \"#utility.yul\":2504:2506   */\n      0x20\n        /* \"#utility.yul\":2499:2502   */\n      dup3\n        /* \"#utility.yul\":2495:2507   */\n      add\n        /* \"#utility.yul\":2488:2507   */\n      swap1\n      pop\n        /* \"#utility.yul\":2147:2513   */\n      swap2\n      swap1\n      pop\n      jump\t// out\n        /* \"#utility.yul\":2519:2884   */\n    tag_115:\n        /* \"#utility.yul\":2661:2664   */\n      0x00\n        /* \"#utility.yul\":2682:2748   */\n      tag_117\n        /* \"#utility.yul\":2746:2747   */\n      0x09\n        /* \"#utility.yul\":2741:2744   */\n      dup4\n        /* \"#utility.yul\":2682:2748   */\n      tag_112\n      jump\t// in\n    tag_117:\n        /* \"#utility.yul\":2675:2748   */\n      swap2\n      pop\n        /* \"#utility.yul\":2757:2850   */\n      tag_118\n        /* \"#utility.yul\":2846:2849   */\n      dup3\n        /* \"#utility.yul\":2757:2850   */\n      tag_119\n      jump\t// in\n    tag_118:\n        /* \"#utility.yul\":2875:2877   */\n      0x20\n        /* \"#utility.yul\":2870:2873   */\n      dup3\n        /* \"#utility.yul\":2866:2878   */\n      add\n        /* \"#utility.yul\":2859:2878   */\n      swap1\n      pop\n        /* \"#utility.yul\":2519:2884   */\n      swap2\n      swap1\n      pop\n      jump\t// out\n        /* \"#utility.yul\":2890:3008   */\n    tag_120:\n        /* \"#utility.yul\":2977:3001   */\n      tag_122\n        /* \"#utility.yul\":2995:3000   */\n      dup2\n        /* \"#utility.yul\":2977:3001   */\n      tag_123\n      jump\t// in\n    tag_122:\n        /* \"#utility.yul\":2972:2975   */\n      dup3\n        /* \"#utility.yul\":2965:3002   */\n      mstore\n        /* \"#utility.yul\":2890:3008   */\n      pop\n      pop\n      jump\t// out\n        /* \"#utility.yul\":3014:3456   */\n    tag_68:\n        /* \"#utility.yul\":3163:3167   */\n      0x00\n        /* \"#utility.yul\":3201:3203   */\n      0x60\n        /* \"#utility.yul\":3190:3199   */\n      dup3\n        /* \"#utility.yul\":3186:3204   */\n      add\n        /* \"#utility.yul\":3178:3204   */\n      swap1\n      pop\n        /* \"#utility.yul\":3214:3285   */\n      tag_125\n        /* \"#utility.yul\":3282:3283   */\n      0x00\n        /* \"#utility.yul\":3271:3280   */\n      dup4\n        /* \"#utility.yul\":3267:3284   */\n      add\n        /* \"#utility.yul\":3258:3264   */\n      dup7\n        /* \"#utility.yul\":3214:3285   */\n      tag_101\n      jump\t// in\n    tag_125:\n        /* \"#utility.yul\":3295:3367   */\n      tag_126\n        /* \"#utility.yul\":3363:3365   */\n      0x20\n        /* \"#utility.yul\":3352:3361   */\n      dup4\n        /* \"#utility.yul\":3348:3366   */\n      add\n        /* \"#utility.yul\":3339:3345   */\n      dup6\n        /* \"#utility.yul\":3295:3367   */\n      tag_101\n      jump\t// in\n    tag_126:\n        /* \"#utility.yul\":3377:3449   */\n      tag_127\n        /* \"#utility.yul\":3445:3447   */\n      0x40\n        /* \"#utility.yul\":3434:3443   */\n      dup4\n        /* \"#utility.yul\":3430:3448   */\n      add\n        /* \"#utility.yul\":3421:3427   */\n      dup5\n        /* \"#utility.yul\":3377:3449   */\n      tag_120\n      jump\t// in\n    tag_127:\n        /* \"#utility.yul\":3014:3456   */\n      swap5\n      swap4\n      pop\n      pop\n      pop\n      pop\n      jump\t// out\n        /* \"#utility.yul\":3462:3672   */\n    tag_23:\n        /* \"#utility.yul\":3549:3553   */\n      0x00\n        /* \"#utility.yul\":3587:3589   */\n      0x20\n        /* \"#utility.yul\":3576:3585   */\n      dup3\n        /* \"#utility.yul\":3572:3590   */\n      add\n        /* \"#utility.yul\":3564:3590   */\n      swap1\n      pop\n        /* \"#utility.yul\":3600:3665   */\n      tag_129\n        /* \"#utility.yul\":3662:3663   */\n      0x00\n        /* \"#utility.yul\":3651:3660   */\n      dup4\n        /* \"#utility.yul\":3647:3664   */\n      add\n        /* \"#utility.yul\":3638:3644   */\n      dup5\n        /* \"#utility.yul\":3600:3665   */\n      tag_105\n      jump\t// in\n    tag_129:\n        /* \"#utility.yul\":3462:3672   */\n      swap3\n      swap2\n      pop\n      pop\n      jump\t// out\n        /* \"#utility.yul\":3678:4097   */\n    tag_45:\n        /* \"#utility.yul\":3844:3848   */\n      0x00\n        /* \"#utility.yul\":3882:3884   */\n      0x20\n        /* \"#utility.yul\":3871:3880   */\n      dup3\n        /* \"#utility.yul\":3867:3885   */\n      add\n        /* \"#utility.yul\":3859:3885   */\n      swap1\n      pop\n        /* \"#utility.yul\":3931:3940   */\n      dup2\n        /* \"#utility.yul\":3925:3929   */\n      dup2\n        /* \"#utility.yul\":3921:3941   */\n      sub\n        /* \"#utility.yul\":3917:3918   */\n      0x00\n        /* \"#utility.yul\":3906:3915   */\n      dup4\n        /* \"#utility.yul\":3902:3919   */\n      add\n        /* \"#utility.yul\":3895:3942   */\n      mstore\n        /* \"#utility.yul\":3959:4090   */\n      tag_131\n        /* \"#utility.yul\":4085:4089   */\n      dup2\n        /* \"#utility.yul\":3959:4090   */\n      tag_109\n      jump\t// in\n    tag_131:\n        /* \"#utility.yul\":3951:4090   */\n      swap1\n      pop\n        /* \"#utility.yul\":3678:4097   */\n      swap2\n      swap1\n      pop\n      jump\t// out\n        /* \"#utility.yul\":4103:4522   */\n    tag_48:\n        /* \"#utility.yul\":4269:4273   */\n      0x00\n        /* \"#utility.yul\":4307:4309   */\n      0x20\n        /* \"#utility.yul\":4296:4305   */\n      dup3\n        /* \"#utility.yul\":4292:4310   */\n      add\n        /* \"#utility.yul\":4284:4310   */\n      swap1\n      pop\n        /* \"#utility.yul\":4356:4365   */\n      dup2\n        /* \"#utility.yul\":4350:4354   */\n      dup2\n        /* \"#utility.yul\":4346:4366   */\n      sub\n        /* \"#utility.yul\":4342:4343   */\n      0x00\n        /* \"#utility.yul\":4331:4340   */\n      dup4\n        /* \"#utility.yul\":4327:4344   */\n      add\n        /* \"#utility.yul\":4320:4367   */\n      mstore\n        /* \"#utility.yul\":4384:4515   */\n      tag_133\n        /* \"#utility.yul\":4510:4514   */\n      dup2\n        /* \"#utility.yul\":4384:4515   */\n      tag_115\n      jump\t// in\n    tag_133:\n        /* \"#utility.yul\":4376:4515   */\n      swap1\n      pop\n        /* \"#utility.yul\":4103:4522   */\n      swap2\n      swap1\n      pop\n      jump\t// out\n        /* \"#utility.yul\":4528:4750   */\n    tag_17:\n        /* \"#utility.yul\":4621:4625   */\n      0x00\n        /* \"#utility.yul\":4659:4661   */\n      0x20\n        /* \"#utility.yul\":4648:4657   */\n      dup3\n        /* \"#utility.yul\":4644:4662   */\n      add\n        /* \"#utility.yul\":4636:4662   */\n      swap1\n      pop\n        /* \"#utility.yul\":4672:4743   */\n      tag_135\n        /* \"#utility.yul\":4740:4741   */\n      0x00\n        /* \"#utility.yul\":4729:4738   */\n      dup4\n        /* \"#utility.yul\":4725:4742   */\n      add\n        /* \"#utility.yul\":4716:4722   */\n      dup5\n        /* \"#utility.yul\":4672:4743   */\n      tag_120\n      jump\t// in\n    tag_135:\n        /* \"#utility.yul\":4528:4750   */\n      swap3\n      swap2\n      pop\n      pop\n      jump\t// out\n        /* \"#utility.yul\":4756:5076   */\n    tag_35:\n        /* \"#utility.yul\":4871:4875   */\n      0x00\n        /* \"#utility.yul\":4909:4911   */\n      0x40\n        /* \"#utility.yul\":4898:4907   */\n      dup3\n        /* \"#utility.yul\":4894:4912   */\n      add\n        /* \"#utility.yul\":4886:4912   */\n      swap1\n      pop\n        /* \"#utility.yul\":4922:4993   */\n      tag_137\n        /* \"#utility.yul\":4990:4991   */\n      0x00\n        /* \"#utility.yul\":4979:4988   */\n      dup4\n        /* \"#utility.yul\":4975:4992   */\n      add\n        /* \"#utility.yul\":4966:4972   */\n      dup6\n        /* \"#utility.yul\":4922:4993   */\n      tag_120\n      jump\t// in\n    tag_137:\n        /* \"#utility.yul\":5003:5069   */\n      tag_138\n        /* \"#utility.yul\":5065:5067   */\n      0x20\n        /* \"#utility.yul\":5054:5063   */\n      dup4\n        /* \"#utility.yul\":5050:5068   */\n      add\n        /* \"#utility.yul\":5041:5047   */\n      dup5\n        /* \"#utility.yul\":5003:5069   */\n      tag_105\n      jump\t// in\n    tag_138:\n        /* \"#utility.yul\":4756:5076   */\n      swap4\n      swap3\n      pop\n      pop\n      pop\n      jump\t// out\n        /* \"#utility.yul\":5163:5332   */\n    tag_112:\n        /* \"#utility.yul\":5247:5258   */\n      0x00\n        /* \"#utility.yul\":5281:5287   */\n      dup3\n        /* \"#utility.yul\":5276:5279   */\n      dup3\n        /* \"#utility.yul\":5269:5288   */\n      mstore\n        /* \"#utility.yul\":5321:5325   */\n      0x20\n        /* \"#utility.yul\":5316:5319   */\n      dup3\n        /* \"#utility.yul\":5312:5326   */\n      add\n        /* \"#utility.yul\":5297:5326   */\n      swap1\n      pop\n        /* \"#utility.yul\":5163:5332   */\n      swap3\n      swap2\n      pop\n      pop\n      jump\t// out\n        /* \"#utility.yul\":5338:5643   */\n    tag_33:\n        /* \"#utility.yul\":5378:5381   */\n      0x00\n        /* \"#utility.yul\":5397:5417   */\n      tag_143\n        /* \"#utility.yul\":5415:5416   */\n      dup3\n        /* \"#utility.yul\":5397:5417   */\n      tag_123\n      jump\t// in\n    tag_143:\n        /* \"#utility.yul\":5392:5417   */\n      swap2\n      pop\n        /* \"#utility.yul\":5431:5451   */\n      tag_144\n        /* \"#utility.yul\":5449:5450   */\n      dup4\n        /* \"#utility.yul\":5431:5451   */\n      tag_123\n      jump\t// in\n    tag_144:\n        /* \"#utility.yul\":5426:5451   */\n      swap3\n      pop\n        /* \"#utility.yul\":5585:5586   */\n      dup3\n        /* \"#utility.yul\":5517:5583   */\n      0xffffffffffffffffffffffffffffffffffffffffffffffffffffffffffffffff\n        /* \"#utility.yul\":5513:5587   */\n      sub\n        /* \"#utility.yul\":5510:5511   */\n      dup3\n        /* \"#utility.yul\":5507:5588   */\n      gt\n        /* \"#utility.yul\":5504:5611   */\n      iszero\n      tag_145\n      jumpi\n        /* \"#utility.yul\":5591:5609   */\n      tag_146\n      tag_147\n      jump\t// in\n    tag_146:\n        /* \"#utility.yul\":5504:5611   */\n    tag_145:\n        /* \"#utility.yul\":5635:5636   */\n      dup3\n        /* \"#utility.yul\":5632:5633   */\n      dup3\n        /* \"#utility.yul\":5628:5637   */\n      add\n        /* \"#utility.yul\":5621:5637   */\n      swap1\n      pop\n        /* \"#utility.yul\":5338:5643   */\n      swap3\n      swap2\n      pop\n      pop\n      jump\t// out\n        /* \"#utility.yul\":5649:5840   */\n    tag_52:\n        /* \"#utility.yul\":5689:5693   */\n      0x00\n        /* \"#utility.yul\":5709:5729   */\n      tag_149\n        /* \"#utility.yul\":5727:5728   */\n      dup3\n        /* \"#utility.yul\":5709:5729   */\n      tag_123\n      jump\t// in\n    tag_149:\n        /* \"#utility.yul\":5704:5729   */\n      swap2\n      pop\n        /* \"#utility.yul\":5743:5763   */\n      tag_150\n        /* \"#utility.yul\":5761:5762   */\n      dup4\n        /* \"#utility.yul\":5743:5763   */\n      tag_123\n      jump\t// in\n    tag_150:\n        /* \"#utility.yul\":5738:5763   */\n      swap3\n      pop\n        /* \"#utility.yul\":5782:5783   */\n      dup3\n        /* \"#utility.yul\":5779:5780   */\n      dup3\n        /* \"#utility.yul\":5776:5784   */\n      lt\n        /* \"#utility.yul\":5773:5807   */\n      iszero\n      tag_151\n      jumpi\n        /* \"#utility.yul\":5787:5805   */\n      tag_152\n      tag_147\n      jump\t// in\n    tag_152:\n        /* \"#utility.yul\":5773:5807   */\n    tag_151:\n        /* \"#utility.yul\":5832:5833   */\n      dup3\n        /* \"#utility.yul\":5829:5830   */\n      dup3\n        /* \"#utility.yul\":5825:5834   */\n      sub\n        /* \"#utility.yul\":5817:5834   */\n      swap1\n      pop\n        /* \"#utility.yul\":5649:5840   */\n      swap3\n      swap2\n      pop\n      pop\n      jump\t// out\n        /* \"#utility.yul\":5846:5942   */\n    tag_104:\n        /* \"#utility.yul\":5883:5890   */\n      0x00\n        /* \"#utility.yul\":5912:5936   */\n      tag_154\n        /* \"#utility.yul\":5930:5935   */\n      dup3\n        /* \"#utility.yul\":5912:5936   */\n      tag_155\n      jump\t// in\n    tag_154:\n        /* \"#utility.yul\":5901:5936   */\n      swap1\n      pop\n        /* \"#utility.yul\":5846:5942   */\n      swap2\n      swap1\n      pop\n      jump\t// out\n        /* \"#utility.yul\":5948:6038   */\n    tag_108:\n        /* \"#utility.yul\":5982:5989   */\n      0x00\n        /* \"#utility.yul\":6025:6030   */\n      dup2\n        /* \"#utility.yul\":6018:6031   */\n      iszero\n        /* \"#utility.yul\":6011:6032   */\n      iszero\n        /* \"#utility.yul\":6000:6032   */\n      swap1\n      pop\n        /* \"#utility.yul\":5948:6038   */\n      swap2\n      swap1\n      pop\n      jump\t// out\n        /* \"#utility.yul\":6044:6170   */\n    tag_155:\n        /* \"#utility.yul\":6081:6088   */\n      0x00\n        /* \"#utility.yul\":6121:6163   */\n      0xffffffffffffffffffffffffffffffffffffffff\n        /* \"#utility.yul\":6114:6119   */\n      dup3\n        /* \"#utility.yul\":6110:6164   */\n      and\n        /* \"#utility.yul\":6099:6164   */\n      swap1\n      pop\n        /* \"#utility.yul\":6044:6170   */\n      swap2\n      swap1\n      pop\n      jump\t// out\n        /* \"#utility.yul\":6176:6253   */\n    tag_123:\n        /* \"#utility.yul\":6213:6220   */\n      0x00\n        /* \"#utility.yul\":6242:6247   */\n      dup2\n        /* \"#utility.yul\":6231:6247   */\n      swap1\n      pop\n        /* \"#utility.yul\":6176:6253   */\n      swap2\n      swap1\n      pop\n      jump\t// out\n        /* \"#utility.yul\":6259:6430   */\n    tag_66:\n        /* \"#utility.yul\":6298:6301   */\n      0x00\n        /* \"#utility.yul\":6321:6345   */\n      tag_160\n        /* \"#utility.yul\":6339:6344   */\n      dup3\n        /* \"#utility.yul\":6321:6345   */\n      tag_123\n      jump\t// in\n    tag_160:\n        /* \"#utility.yul\":6312:6345   */\n      swap2\n      pop\n        /* \"#utility.yul\":6367:6371   */\n      0x00\n        /* \"#utility.yul\":6360:6365   */\n      dup3\n        /* \"#utility.yul\":6357:6372   */\n      eq\n        /* \"#utility.yul\":6354:6395   */\n      iszero\n      tag_161\n      jumpi\n        /* \"#utility.yul\":6375:6393   */\n      tag_162\n      tag_147\n      jump\t// in\n    tag_162:\n        /* \"#utility.yul\":6354:6395   */\n    tag_161:\n        /* \"#utility.yul\":6422:6423   */\n      0x01\n        /* \"#utility.yul\":6415:6420   */\n      dup3\n        /* \"#utility.yul\":6411:6424   */\n      sub\n        /* \"#utility.yul\":6404:6424   */\n      swap1\n      pop\n        /* \"#utility.yul\":6259:6430   */\n      swap2\n      swap1\n      pop\n      jump\t// out\n        /* \"#utility.yul\":6436:6616   */\n    tag_147:\n        /* \"#utility.yul\":6484:6561   */\n      0x4e487b7100000000000000000000000000000000000000000000000000000000\n        /* \"#utility.yul\":6481:6482   */\n      0x00\n        /* \"#utility.yul\":6474:6562   */\n      mstore\n        /* \"#utility.yul\":6581:6585   */\n      0x11\n        /* \"#utility.yul\":6578:6579   */\n      0x04\n        /* \"#utility.yul\":6571:6586   */\n      mstore\n        /* \"#utility.yul\":6605:6609   */\n      0x24\n        /* \"#utility.yul\":6602:6603   */\n      0x00\n        /* \"#utility.yul\":6595:6610   */\n      revert\n        /* \"#utility.yul\":6622:6802   */\n    tag_63:\n        /* \"#utility.yul\":6670:6747   */\n      0x4e487b7100000000000000000000000000000000000000000000000000000000\n        /* \"#utility.yul\":6667:6668   */\n      0x00\n        /* \"#utility.yul\":6660:6748   */\n      mstore\n        /* \"#utility.yul\":6767:6771   */\n      0x31\n        /* \"#utility.yul\":6764:6765   */\n      0x04\n        /* \"#utility.yul\":6757:6772   */\n      mstore\n        /* \"#utility.yul\":6791:6795   */\n      0x24\n        /* \"#utility.yul\":6788:6789   */\n      0x00\n        /* \"#utility.yul\":6781:6796   */\n      revert\n        /* \"#utility.yul\":6808:6988   */\n    tag_59:\n        /* \"#utility.yul\":6856:6933   */\n      0x4e487b7100000000000000000000000000000000000000000000000000000000\n        /* \"#utility.yul\":6853:6854   */\n      0x00\n        /* \"#utility.yul\":6846:6934   */\n      mstore\n        /* \"#utility.yul\":6953:6957   */\n      0x32\n        /* \"#utility.yul\":6950:6951   */\n      0x04\n        /* \"#utility.yul\":6943:6958   */\n      mstore\n        /* \"#utility.yul\":6977:6981   */\n      0x24\n        /* \"#utility.yul\":6974:6975   */\n      0x00\n        /* \"#utility.yul\":6967:6982   */\n      revert\n        /* \"#utility.yul\":7117:7234   */\n    tag_88:\n        /* \"#utility.yul\":7226:7227   */\n      0x00\n        /* \"#utility.yul\":7223:7224   */\n      dup1\n        /* \"#utility.yul\":7216:7228   */\n      revert\n        /* \"#utility.yul\":7240:7403   */\n    tag_114:\n        /* \"#utility.yul\":7380:7395   */\n      0x556e617574686f72697a65642e00000000000000000000000000000000000000\n        /* \"#utility.yul\":7376:7377   */\n      0x00\n        /* \"#utility.yul\":7368:7374   */\n      dup3\n        /* \"#utility.yul\":7364:7378   */\n      add\n        /* \"#utility.yul\":7357:7396   */\n      mstore\n        /* \"#utility.yul\":7240:7403   */\n      pop\n      jump\t// out\n        /* \"#utility.yul\":7409:7568   */\n    tag_119:\n        /* \"#utility.yul\":7549:7560   */\n      0x4e6f206f666665722e0000000000000000000000000000000000000000000000\n        /* \"#utility.yul\":7545:7546   */\n      0x00\n        /* \"#utility.yul\":7537:7543   */\n      dup3\n        /* \"#utility.yul\":7533:7547   */\n      add\n        /* \"#utility.yul\":7526:7561   */\n      mstore\n        /* \"#utility.yul\":7409:7568   */\n      pop\n      jump\t// out\n        /* \"#utility.yul\":7574:7696   */\n    tag_77:\n        /* \"#utility.yul\":7647:7671   */\n      tag_172\n        /* \"#utility.yul\":7665:7670   */\n      dup2\n        /* \"#utility.yul\":7647:7671   */\n      tag_104\n      jump\t// in\n    tag_172:\n        /* \"#utility.yul\":7640:7645   */\n      dup2\n        /* \"#utility.yul\":7637:7672   */\n      eq\n        /* \"#utility.yul\":7627:7690   */\n      tag_173\n      jumpi\n        /* \"#utility.yul\":7686:7687   */\n      0x00\n        /* \"#utility.yul\":7683:7684   */\n      dup1\n        /* \"#utility.yul\":7676:7688   */\n      revert\n        /* \"#utility.yul\":7627:7690   */\n    tag_173:\n        /* \"#utility.yul\":7574:7696   */\n      pop\n      jump\t// out\n        /* \"#utility.yul\":7702:7824   */\n    tag_84:\n        /* \"#utility.yul\":7775:7799   */\n      tag_175\n        /* \"#utility.yul\":7793:7798   */\n      dup2\n        /* \"#utility.yul\":7775:7799   */\n      tag_123\n      jump\t// in\n    tag_175:\n        /* \"#utility.yul\":7768:7773   */\n      dup2\n        /* \"#utility.yul\":7765:7800   */\n      eq\n        /* \"#utility.yul\":7755:7818   */\n      tag_176\n      jumpi\n        /* \"#utility.yul\":7814:7815   */\n      0x00\n        /* \"#utility.yul\":7811:7812   */\n      dup1\n        /* \"#utility.yul\":7804:7816   */\n      revert\n        /* \"#utility.yul\":7755:7818   */\n    tag_176:\n        /* \"#utility.yul\":7702:7824   */\n      pop\n      jump\t// out\n\n    auxdata: 0xa2646970667358221220047cdfe5bc33d8991d085338bf12e4e7890610150bfe53e454ac1bcee968228d64736f6c63430008070033\n}\n",
				"bytecode": {
					"linkReferences": {},
					"object": "608060405234801561001057600080fd5b50610c33806100206000396000f3fe60806040526004361061004a5760003560e01c80633ccfd60b1461004f5780636b212960146100595780637bb98a6814610075578063aa1a8411146100a0578063abd51552146100dd575b600080fd5b6100576100f9565b005b610073600480360381019061006e9190610802565b6100fb565b005b34801561008157600080fd5b5061008a6102e8565b604051610097919061099a565b60405180910390f35b3480156100ac57600080fd5b506100c760048036038101906100c29190610802565b6102ee565b6040516100d4919061093f565b60405180910390f35b6100f760048036038101906100f29190610842565b610326565b005b565b60008060008473ffffffffffffffffffffffffffffffffffffffff1673ffffffffffffffffffffffffffffffffffffffff1681526020019081526020016000206000838152602001908152602001600020905060008160010160003373ffffffffffffffffffffffffffffffffffffffff1673ffffffffffffffffffffffffffffffffffffffff1681526020019081526020016000205414156101fe5780600001339080600181540180825580915050600190039060005260206000200160009091909190916101000a81548173ffffffffffffffffffffffffffffffffffffffff021916908373ffffffffffffffffffffffffffffffffffffffff1602179055505b348160010160003373ffffffffffffffffffffffffffffffffffffffff1673ffffffffffffffffffffffffffffffffffffffff1681526020019081526020016000208190555060018160020160006101000a81548160ff021916908315150217905550346001600082825461027391906109ef565b925050819055503373ffffffffffffffffffffffffffffffffffffffff16828473ffffffffffffffffffffffffffffffffffffffff167fa297a5039e151f85fd39b734d57194f31bf1ba744464810f8fa18941216c79b03460016040516102db9291906109b5565b60405180910390a4505050565b60015481565b6000602052816000526040600020602052806000526040600020600091509150508060020160009054906101000a900460ff16905081565b60008060008573ffffffffffffffffffffffffffffffffffffffff1673ffffffffffffffffffffffffffffffffffffffff1681526020019081526020016000206000848152602001908152602001600020905060008490503373ffffffffffffffffffffffffffffffffffffffff168173ffffffffffffffffffffffffffffffffffffffff16636352211e866040518263ffffffff1660e01b81526004016103ce919061099a565b60206040518083038186803b1580156103e657600080fd5b505afa1580156103fa573d6000803e3d6000fd5b505050506040513d601f19601f8201168201806040525081019061041e91906107d5565b73ffffffffffffffffffffffffffffffffffffffff1614610474576040517f08c379a000000000000000000000000000000000000000000000000000000000815260040161046b9061095a565b60405180910390fd5b600115158260020160009054906101000a900460ff161515146104cc576040517f08c379a00000000000000000000000000000000000000000000000000000000081526004016104c39061097a565b60405180910390fd5b3373ffffffffffffffffffffffffffffffffffffffff166108fc8360010160008673ffffffffffffffffffffffffffffffffffffffff1673ffffffffffffffffffffffffffffffffffffffff168152602001908152602001600020549081150290604051600060405180830381858888f19350505050158015610553573d6000803e3d6000fd5b508160010160008473ffffffffffffffffffffffffffffffffffffffff1673ffffffffffffffffffffffffffffffffffffffff16815260200190815260200160002054600160008282546105a79190610a45565b9250508190555060008260020160006101000a81548160ff0219169083151502179055506000600183600001805490506105e19190610a45565b90505b600081106106cf57600083600101600085600001848154811061060a57610609610b49565b5b9060005260206000200160009054906101000a900473ffffffffffffffffffffffffffffffffffffffff1673ffffffffffffffffffffffffffffffffffffffff1673ffffffffffffffffffffffffffffffffffffffff168152602001908152602001600020819055508260000180548061068757610686610b1a565b5b6001900381819060005260206000200160006101000a81549073ffffffffffffffffffffffffffffffffffffffff0219169055905580806106c790610ac1565b9150506105e4565b508073ffffffffffffffffffffffffffffffffffffffff166323b872dd3385876040518463ffffffff1660e01b815260040161070d93929190610908565b600060405180830381600087803b15801561072757600080fd5b505af115801561073b573d6000803e3d6000fd5b50505050838573ffffffffffffffffffffffffffffffffffffffff167f9663db6e9b1f015a82beb1b03ec8fed9d1a25b5da31b2cc92c2be9e8c629a80d6000604051610787919061093f565b60405180910390a35050505050565b6000813590506107a581610bcf565b92915050565b6000815190506107ba81610bcf565b92915050565b6000813590506107cf81610be6565b92915050565b6000602082840312156107eb576107ea610b78565b5b60006107f9848285016107ab565b91505092915050565b6000806040838503121561081957610818610b78565b5b600061082785828601610796565b9250506020610838858286016107c0565b9150509250929050565b60008060006060848603121561085b5761085a610b78565b5b600061086986828701610796565b935050602061087a868287016107c0565b925050604061088b86828701610796565b9150509250925092565b61089e81610a79565b82525050565b6108ad81610a8b565b82525050565b60006108c0600d836109de565b91506108cb82610b7d565b602082019050919050565b60006108e36009836109de565b91506108ee82610ba6565b602082019050919050565b61090281610ab7565b82525050565b600060608201905061091d6000830186610895565b61092a6020830185610895565b61093760408301846108f9565b949350505050565b600060208201905061095460008301846108a4565b92915050565b60006020820190508181036000830152610973816108b3565b9050919050565b60006020820190508181036000830152610993816108d6565b9050919050565b60006020820190506109af60008301846108f9565b92915050565b60006040820190506109ca60008301856108f9565b6109d760208301846108a4565b9392505050565b600082825260208201905092915050565b60006109fa82610ab7565b9150610a0583610ab7565b9250827fffffffffffffffffffffffffffffffffffffffffffffffffffffffffffffffff03821115610a3a57610a39610aeb565b5b828201905092915050565b6000610a5082610ab7565b9150610a5b83610ab7565b925082821015610a6e57610a6d610aeb565b5b828203905092915050565b6000610a8482610a97565b9050919050565b60008115159050919050565b600073ffffffffffffffffffffffffffffffffffffffff82169050919050565b6000819050919050565b6000610acc82610ab7565b91506000821415610ae057610adf610aeb565b5b600182039050919050565b7f4e487b7100000000000000000000000000000000000000000000000000000000600052601160045260246000fd5b7f4e487b7100000000000000000000000000000000000000000000000000000000600052603160045260246000fd5b7f4e487b7100000000000000000000000000000000000000000000000000000000600052603260045260246000fd5b600080fd5b7f556e617574686f72697a65642e00000000000000000000000000000000000000600082015250565b7f4e6f206f666665722e0000000000000000000000000000000000000000000000600082015250565b610bd881610a79565b8114610be357600080fd5b50565b610bef81610ab7565b8114610bfa57600080fd5b5056fea2646970667358221220047cdfe5bc33d8991d085338bf12e4e7890610150bfe53e454ac1bcee968228d64736f6c63430008070033",
					"opcodes": "PUSH1 0x80 PUSH1 0x40 MSTORE CALLVALUE DUP1 ISZERO PUSH2 0x10 JUMPI PUSH1 0x0 DUP1 REVERT JUMPDEST POP PUSH2 0xC33 DUP1 PUSH2 0x20 PUSH1 0x0 CODECOPY PUSH1 0x0 RETURN INVALID PUSH1 0x80 PUSH1 0x40 MSTORE PUSH1 0x4 CALLDATASIZE LT PUSH2 0x4A JUMPI PUSH1 0x0 CALLDATALOAD PUSH1 0xE0 SHR DUP1 PUSH4 0x3CCFD60B EQ PUSH2 0x4F JUMPI DUP1 PUSH4 0x6B212960 EQ PUSH2 0x59 JUMPI DUP1 PUSH4 0x7BB98A68 EQ PUSH2 0x75 JUMPI DUP1 PUSH4 0xAA1A8411 EQ PUSH2 0xA0 JUMPI DUP1 PUSH4 0xABD51552 EQ PUSH2 0xDD JUMPI JUMPDEST PUSH1 0x0 DUP1 REVERT JUMPDEST PUSH2 0x57 PUSH2 0xF9 JUMP JUMPDEST STOP JUMPDEST PUSH2 0x73 PUSH1 0x4 DUP1 CALLDATASIZE SUB DUP2 ADD SWAP1 PUSH2 0x6E SWAP2 SWAP1 PUSH2 0x802 JUMP JUMPDEST PUSH2 0xFB JUMP JUMPDEST STOP JUMPDEST CALLVALUE DUP1 ISZERO PUSH2 0x81 JUMPI PUSH1 0x0 DUP1 REVERT JUMPDEST POP PUSH2 0x8A PUSH2 0x2E8 JUMP JUMPDEST PUSH1 0x40 MLOAD PUSH2 0x97 SWAP2 SWAP1 PUSH2 0x99A JUMP JUMPDEST PUSH1 0x40 MLOAD DUP1 SWAP2 SUB SWAP1 RETURN JUMPDEST CALLVALUE DUP1 ISZERO PUSH2 0xAC JUMPI PUSH1 0x0 DUP1 REVERT JUMPDEST POP PUSH2 0xC7 PUSH1 0x4 DUP1 CALLDATASIZE SUB DUP2 ADD SWAP1 PUSH2 0xC2 SWAP2 SWAP1 PUSH2 0x802 JUMP JUMPDEST PUSH2 0x2EE JUMP JUMPDEST PUSH1 0x40 MLOAD PUSH2 0xD4 SWAP2 SWAP1 PUSH2 0x93F JUMP JUMPDEST PUSH1 0x40 MLOAD DUP1 SWAP2 SUB SWAP1 RETURN JUMPDEST PUSH2 0xF7 PUSH1 0x4 DUP1 CALLDATASIZE SUB DUP2 ADD SWAP1 PUSH2 0xF2 SWAP2 SWAP1 PUSH2 0x842 JUMP JUMPDEST PUSH2 0x326 JUMP JUMPDEST STOP JUMPDEST JUMP JUMPDEST PUSH1 0x0 DUP1 PUSH1 0x0 DUP5 PUSH20 0xFFFFFFFFFFFFFFFFFFFFFFFFFFFFFFFFFFFFFFFF AND PUSH20 0xFFFFFFFFFFFFFFFFFFFFFFFFFFFFFFFFFFFFFFFF AND DUP2 MSTORE PUSH1 0x20 ADD SWAP1 DUP2 MSTORE PUSH1 0x20 ADD PUSH1 0x0 KECCAK256 PUSH1 0x0 DUP4 DUP2 MSTORE PUSH1 0x20 ADD SWAP1 DUP2 MSTORE PUSH1 0x20 ADD PUSH1 0x0 KECCAK256 SWAP1 POP PUSH1 0x0 DUP2 PUSH1 0x1 ADD PUSH1 0x0 CALLER PUSH20 0xFFFFFFFFFFFFFFFFFFFFFFFFFFFFFFFFFFFFFFFF AND PUSH20 0xFFFFFFFFFFFFFFFFFFFFFFFFFFFFFFFFFFFFFFFF AND DUP2 MSTORE PUSH1 0x20 ADD SWAP1 DUP2 MSTORE PUSH1 0x20 ADD PUSH1 0x0 KECCAK256 SLOAD EQ ISZERO PUSH2 0x1FE JUMPI DUP1 PUSH1 0x0 ADD CALLER SWAP1 DUP1 PUSH1 0x1 DUP2 SLOAD ADD DUP1 DUP3 SSTORE DUP1 SWAP2 POP POP PUSH1 0x1 SWAP1 SUB SWAP1 PUSH1 0x0 MSTORE PUSH1 0x20 PUSH1 0x0 KECCAK256 ADD PUSH1 0x0 SWAP1 SWAP2 SWAP1 SWAP2 SWAP1 SWAP2 PUSH2 0x100 EXP DUP2 SLOAD DUP2 PUSH20 0xFFFFFFFFFFFFFFFFFFFFFFFFFFFFFFFFFFFFFFFF MUL NOT AND SWAP1 DUP4 PUSH20 0xFFFFFFFFFFFFFFFFFFFFFFFFFFFFFFFFFFFFFFFF AND MUL OR SWAP1 SSTORE POP JUMPDEST CALLVALUE DUP2 PUSH1 0x1 ADD PUSH1 0x0 CALLER PUSH20 0xFFFFFFFFFFFFFFFFFFFFFFFFFFFFFFFFFFFFFFFF AND PUSH20 0xFFFFFFFFFFFFFFFFFFFFFFFFFFFFFFFFFFFFFFFF AND DUP2 MSTORE PUSH1 0x20 ADD SWAP1 DUP2 MSTORE PUSH1 0x20 ADD PUSH1 0x0 KECCAK256 DUP2 SWAP1 SSTORE POP PUSH1 0x1 DUP2 PUSH1 0x2 ADD PUSH1 0x0 PUSH2 0x100 EXP DUP2 SLOAD DUP2 PUSH1 0xFF MUL NOT AND SWAP1 DUP4 ISZERO ISZERO MUL OR SWAP1 SSTORE POP CALLVALUE PUSH1 0x1 PUSH1 0x0 DUP3 DUP3 SLOAD PUSH2 0x273 SWAP2 SWAP1 PUSH2 0x9EF JUMP JUMPDEST SWAP3 POP POP DUP2 SWAP1 SSTORE POP CALLER PUSH20 0xFFFFFFFFFFFFFFFFFFFFFFFFFFFFFFFFFFFFFFFF AND DUP3 DUP5 PUSH20 0xFFFFFFFFFFFFFFFFFFFFFFFFFFFFFFFFFFFFFFFF AND PUSH32 0xA297A5039E151F85FD39B734D57194F31BF1BA744464810F8FA18941216C79B0 CALLVALUE PUSH1 0x1 PUSH1 0x40 MLOAD PUSH2 0x2DB SWAP3 SWAP2 SWAP1 PUSH2 0x9B5 JUMP JUMPDEST PUSH1 0x40 MLOAD DUP1 SWAP2 SUB SWAP1 LOG4 POP POP POP JUMP JUMPDEST PUSH1 0x1 SLOAD DUP2 JUMP JUMPDEST PUSH1 0x0 PUSH1 0x20 MSTORE DUP2 PUSH1 0x0 MSTORE PUSH1 0x40 PUSH1 0x0 KECCAK256 PUSH1 0x20 MSTORE DUP1 PUSH1 0x0 MSTORE PUSH1 0x40 PUSH1 0x0 KECCAK256 PUSH1 0x0 SWAP2 POP SWAP2 POP POP DUP1 PUSH1 0x2 ADD PUSH1 0x0 SWAP1 SLOAD SWAP1 PUSH2 0x100 EXP SWAP1 DIV PUSH1 0xFF AND SWAP1 POP DUP2 JUMP JUMPDEST PUSH1 0x0 DUP1 PUSH1 0x0 DUP6 PUSH20 0xFFFFFFFFFFFFFFFFFFFFFFFFFFFFFFFFFFFFFFFF AND PUSH20 0xFFFFFFFFFFFFFFFFFFFFFFFFFFFFFFFFFFFFFFFF AND DUP2 MSTORE PUSH1 0x20 ADD SWAP1 DUP2 MSTORE PUSH1 0x20 ADD PUSH1 0x0 KECCAK256 PUSH1 0x0 DUP5 DUP2 MSTORE PUSH1 0x20 ADD SWAP1 DUP2 MSTORE PUSH1 0x20 ADD PUSH1 0x0 KECCAK256 SWAP1 POP PUSH1 0x0 DUP5 SWAP1 POP CALLER PUSH20 0xFFFFFFFFFFFFFFFFFFFFFFFFFFFFFFFFFFFFFFFF AND DUP2 PUSH20 0xFFFFFFFFFFFFFFFFFFFFFFFFFFFFFFFFFFFFFFFF AND PUSH4 0x6352211E DUP7 PUSH1 0x40 MLOAD DUP3 PUSH4 0xFFFFFFFF AND PUSH1 0xE0 SHL DUP2 MSTORE PUSH1 0x4 ADD PUSH2 0x3CE SWAP2 SWAP1 PUSH2 0x99A JUMP JUMPDEST PUSH1 0x20 PUSH1 0x40 MLOAD DUP1 DUP4 SUB DUP2 DUP7 DUP1 EXTCODESIZE ISZERO DUP1 ISZERO PUSH2 0x3E6 JUMPI PUSH1 0x0 DUP1 REVERT JUMPDEST POP GAS STATICCALL ISZERO DUP1 ISZERO PUSH2 0x3FA JUMPI RETURNDATASIZE PUSH1 0x0 DUP1 RETURNDATACOPY RETURNDATASIZE PUSH1 0x0 REVERT JUMPDEST POP POP POP POP PUSH1 0x40 MLOAD RETURNDATASIZE PUSH1 0x1F NOT PUSH1 0x1F DUP3 ADD AND DUP3 ADD DUP1 PUSH1 0x40 MSTORE POP DUP2 ADD SWAP1 PUSH2 0x41E SWAP2 SWAP1 PUSH2 0x7D5 JUMP JUMPDEST PUSH20 0xFFFFFFFFFFFFFFFFFFFFFFFFFFFFFFFFFFFFFFFF AND EQ PUSH2 0x474 JUMPI PUSH1 0x40 MLOAD PUSH32 0x8C379A000000000000000000000000000000000000000000000000000000000 DUP2 MSTORE PUSH1 0x4 ADD PUSH2 0x46B SWAP1 PUSH2 0x95A JUMP JUMPDEST PUSH1 0x40 MLOAD DUP1 SWAP2 SUB SWAP1 REVERT JUMPDEST PUSH1 0x1 ISZERO ISZERO DUP3 PUSH1 0x2 ADD PUSH1 0x0 SWAP1 SLOAD SWAP1 PUSH2 0x100 EXP SWAP1 DIV PUSH1 0xFF AND ISZERO ISZERO EQ PUSH2 0x4CC JUMPI PUSH1 0x40 MLOAD PUSH32 0x8C379A000000000000000000000000000000000000000000000000000000000 DUP2 MSTORE PUSH1 0x4 ADD PUSH2 0x4C3 SWAP1 PUSH2 0x97A JUMP JUMPDEST PUSH1 0x40 MLOAD DUP1 SWAP2 SUB SWAP1 REVERT JUMPDEST CALLER PUSH20 0xFFFFFFFFFFFFFFFFFFFFFFFFFFFFFFFFFFFFFFFF AND PUSH2 0x8FC DUP4 PUSH1 0x1 ADD PUSH1 0x0 DUP7 PUSH20 0xFFFFFFFFFFFFFFFFFFFFFFFFFFFFFFFFFFFFFFFF AND PUSH20 0xFFFFFFFFFFFFFFFFFFFFFFFFFFFFFFFFFFFFFFFF AND DUP2 MSTORE PUSH1 0x20 ADD SWAP1 DUP2 MSTORE PUSH1 0x20 ADD PUSH1 0x0 KECCAK256 SLOAD SWAP1 DUP2 ISZERO MUL SWAP1 PUSH1 0x40 MLOAD PUSH1 0x0 PUSH1 0x40 MLOAD DUP1 DUP4 SUB DUP2 DUP6 DUP9 DUP9 CALL SWAP4 POP POP POP POP ISZERO DUP1 ISZERO PUSH2 0x553 JUMPI RETURNDATASIZE PUSH1 0x0 DUP1 RETURNDATACOPY RETURNDATASIZE PUSH1 0x0 REVERT JUMPDEST POP DUP2 PUSH1 0x1 ADD PUSH1 0x0 DUP5 PUSH20 0xFFFFFFFFFFFFFFFFFFFFFFFFFFFFFFFFFFFFFFFF AND PUSH20 0xFFFFFFFFFFFFFFFFFFFFFFFFFFFFFFFFFFFFFFFF AND DUP2 MSTORE PUSH1 0x20 ADD SWAP1 DUP2 MSTORE PUSH1 0x20 ADD PUSH1 0x0 KECCAK256 SLOAD PUSH1 0x1 PUSH1 0x0 DUP3 DUP3 SLOAD PUSH2 0x5A7 SWAP2 SWAP1 PUSH2 0xA45 JUMP JUMPDEST SWAP3 POP POP DUP2 SWAP1 SSTORE POP PUSH1 0x0 DUP3 PUSH1 0x2 ADD PUSH1 0x0 PUSH2 0x100 EXP DUP2 SLOAD DUP2 PUSH1 0xFF MUL NOT AND SWAP1 DUP4 ISZERO ISZERO MUL OR SWAP1 SSTORE POP PUSH1 0x0 PUSH1 0x1 DUP4 PUSH1 0x0 ADD DUP1 SLOAD SWAP1 POP PUSH2 0x5E1 SWAP2 SWAP1 PUSH2 0xA45 JUMP JUMPDEST SWAP1 POP JUMPDEST PUSH1 0x0 DUP2 LT PUSH2 0x6CF JUMPI PUSH1 0x0 DUP4 PUSH1 0x1 ADD PUSH1 0x0 DUP6 PUSH1 0x0 ADD DUP5 DUP2 SLOAD DUP2 LT PUSH2 0x60A JUMPI PUSH2 0x609 PUSH2 0xB49 JUMP JUMPDEST JUMPDEST SWAP1 PUSH1 0x0 MSTORE PUSH1 0x20 PUSH1 0x0 KECCAK256 ADD PUSH1 0x0 SWAP1 SLOAD SWAP1 PUSH2 0x100 EXP SWAP1 DIV PUSH20 0xFFFFFFFFFFFFFFFFFFFFFFFFFFFFFFFFFFFFFFFF AND PUSH20 0xFFFFFFFFFFFFFFFFFFFFFFFFFFFFFFFFFFFFFFFF AND PUSH20 0xFFFFFFFFFFFFFFFFFFFFFFFFFFFFFFFFFFFFFFFF AND DUP2 MSTORE PUSH1 0x20 ADD SWAP1 DUP2 MSTORE PUSH1 0x20 ADD PUSH1 0x0 KECCAK256 DUP2 SWAP1 SSTORE POP DUP3 PUSH1 0x0 ADD DUP1 SLOAD DUP1 PUSH2 0x687 JUMPI PUSH2 0x686 PUSH2 0xB1A JUMP JUMPDEST JUMPDEST PUSH1 0x1 SWAP1 SUB DUP2 DUP2 SWAP1 PUSH1 0x0 MSTORE PUSH1 0x20 PUSH1 0x0 KECCAK256 ADD PUSH1 0x0 PUSH2 0x100 EXP DUP2 SLOAD SWAP1 PUSH20 0xFFFFFFFFFFFFFFFFFFFFFFFFFFFFFFFFFFFFFFFF MUL NOT AND SWAP1 SSTORE SWAP1 SSTORE DUP1 DUP1 PUSH2 0x6C7 SWAP1 PUSH2 0xAC1 JUMP JUMPDEST SWAP2 POP POP PUSH2 0x5E4 JUMP JUMPDEST POP DUP1 PUSH20 0xFFFFFFFFFFFFFFFFFFFFFFFFFFFFFFFFFFFFFFFF AND PUSH4 0x23B872DD CALLER DUP6 DUP8 PUSH1 0x40 MLOAD DUP5 PUSH4 0xFFFFFFFF AND PUSH1 0xE0 SHL DUP2 MSTORE PUSH1 0x4 ADD PUSH2 0x70D SWAP4 SWAP3 SWAP2 SWAP1 PUSH2 0x908 JUMP JUMPDEST PUSH1 0x0 PUSH1 0x40 MLOAD DUP1 DUP4 SUB DUP2 PUSH1 0x0 DUP8 DUP1 EXTCODESIZE ISZERO DUP1 ISZERO PUSH2 0x727 JUMPI PUSH1 0x0 DUP1 REVERT JUMPDEST POP GAS CALL ISZERO DUP1 ISZERO PUSH2 0x73B JUMPI RETURNDATASIZE PUSH1 0x0 DUP1 RETURNDATACOPY RETURNDATASIZE PUSH1 0x0 REVERT JUMPDEST POP POP POP POP DUP4 DUP6 PUSH20 0xFFFFFFFFFFFFFFFFFFFFFFFFFFFFFFFFFFFFFFFF AND PUSH32 0x9663DB6E9B1F015A82BEB1B03EC8FED9D1A25B5DA31B2CC92C2BE9E8C629A80D PUSH1 0x0 PUSH1 0x40 MLOAD PUSH2 0x787 SWAP2 SWAP1 PUSH2 0x93F JUMP JUMPDEST PUSH1 0x40 MLOAD DUP1 SWAP2 SUB SWAP1 LOG3 POP POP POP POP POP JUMP JUMPDEST PUSH1 0x0 DUP2 CALLDATALOAD SWAP1 POP PUSH2 0x7A5 DUP2 PUSH2 0xBCF JUMP JUMPDEST SWAP3 SWAP2 POP POP JUMP JUMPDEST PUSH1 0x0 DUP2 MLOAD SWAP1 POP PUSH2 0x7BA DUP2 PUSH2 0xBCF JUMP JUMPDEST SWAP3 SWAP2 POP POP JUMP JUMPDEST PUSH1 0x0 DUP2 CALLDATALOAD SWAP1 POP PUSH2 0x7CF DUP2 PUSH2 0xBE6 JUMP JUMPDEST SWAP3 SWAP2 POP POP JUMP JUMPDEST PUSH1 0x0 PUSH1 0x20 DUP3 DUP5 SUB SLT ISZERO PUSH2 0x7EB JUMPI PUSH2 0x7EA PUSH2 0xB78 JUMP JUMPDEST JUMPDEST PUSH1 0x0 PUSH2 0x7F9 DUP5 DUP3 DUP6 ADD PUSH2 0x7AB JUMP JUMPDEST SWAP2 POP POP SWAP3 SWAP2 POP POP JUMP JUMPDEST PUSH1 0x0 DUP1 PUSH1 0x40 DUP4 DUP6 SUB SLT ISZERO PUSH2 0x819 JUMPI PUSH2 0x818 PUSH2 0xB78 JUMP JUMPDEST JUMPDEST PUSH1 0x0 PUSH2 0x827 DUP6 DUP3 DUP7 ADD PUSH2 0x796 JUMP JUMPDEST SWAP3 POP POP PUSH1 0x20 PUSH2 0x838 DUP6 DUP3 DUP7 ADD PUSH2 0x7C0 JUMP JUMPDEST SWAP2 POP POP SWAP3 POP SWAP3 SWAP1 POP JUMP JUMPDEST PUSH1 0x0 DUP1 PUSH1 0x0 PUSH1 0x60 DUP5 DUP7 SUB SLT ISZERO PUSH2 0x85B JUMPI PUSH2 0x85A PUSH2 0xB78 JUMP JUMPDEST JUMPDEST PUSH1 0x0 PUSH2 0x869 DUP7 DUP3 DUP8 ADD PUSH2 0x796 JUMP JUMPDEST SWAP4 POP POP PUSH1 0x20 PUSH2 0x87A DUP7 DUP3 DUP8 ADD PUSH2 0x7C0 JUMP JUMPDEST SWAP3 POP POP PUSH1 0x40 PUSH2 0x88B DUP7 DUP3 DUP8 ADD PUSH2 0x796 JUMP JUMPDEST SWAP2 POP POP SWAP3 POP SWAP3 POP SWAP3 JUMP JUMPDEST PUSH2 0x89E DUP2 PUSH2 0xA79 JUMP JUMPDEST DUP3 MSTORE POP POP JUMP JUMPDEST PUSH2 0x8AD DUP2 PUSH2 0xA8B JUMP JUMPDEST DUP3 MSTORE POP POP JUMP JUMPDEST PUSH1 0x0 PUSH2 0x8C0 PUSH1 0xD DUP4 PUSH2 0x9DE JUMP JUMPDEST SWAP2 POP PUSH2 0x8CB DUP3 PUSH2 0xB7D JUMP JUMPDEST PUSH1 0x20 DUP3 ADD SWAP1 POP SWAP2 SWAP1 POP JUMP JUMPDEST PUSH1 0x0 PUSH2 0x8E3 PUSH1 0x9 DUP4 PUSH2 0x9DE JUMP JUMPDEST SWAP2 POP PUSH2 0x8EE DUP3 PUSH2 0xBA6 JUMP JUMPDEST PUSH1 0x20 DUP3 ADD SWAP1 POP SWAP2 SWAP1 POP JUMP JUMPDEST PUSH2 0x902 DUP2 PUSH2 0xAB7 JUMP JUMPDEST DUP3 MSTORE POP POP JUMP JUMPDEST PUSH1 0x0 PUSH1 0x60 DUP3 ADD SWAP1 POP PUSH2 0x91D PUSH1 0x0 DUP4 ADD DUP7 PUSH2 0x895 JUMP JUMPDEST PUSH2 0x92A PUSH1 0x20 DUP4 ADD DUP6 PUSH2 0x895 JUMP JUMPDEST PUSH2 0x937 PUSH1 0x40 DUP4 ADD DUP5 PUSH2 0x8F9 JUMP JUMPDEST SWAP5 SWAP4 POP POP POP POP JUMP JUMPDEST PUSH1 0x0 PUSH1 0x20 DUP3 ADD SWAP1 POP PUSH2 0x954 PUSH1 0x0 DUP4 ADD DUP5 PUSH2 0x8A4 JUMP JUMPDEST SWAP3 SWAP2 POP POP JUMP JUMPDEST PUSH1 0x0 PUSH1 0x20 DUP3 ADD SWAP1 POP DUP2 DUP2 SUB PUSH1 0x0 DUP4 ADD MSTORE PUSH2 0x973 DUP2 PUSH2 0x8B3 JUMP JUMPDEST SWAP1 POP SWAP2 SWAP1 POP JUMP JUMPDEST PUSH1 0x0 PUSH1 0x20 DUP3 ADD SWAP1 POP DUP2 DUP2 SUB PUSH1 0x0 DUP4 ADD MSTORE PUSH2 0x993 DUP2 PUSH2 0x8D6 JUMP JUMPDEST SWAP1 POP SWAP2 SWAP1 POP JUMP JUMPDEST PUSH1 0x0 PUSH1 0x20 DUP3 ADD SWAP1 POP PUSH2 0x9AF PUSH1 0x0 DUP4 ADD DUP5 PUSH2 0x8F9 JUMP JUMPDEST SWAP3 SWAP2 POP POP JUMP JUMPDEST PUSH1 0x0 PUSH1 0x40 DUP3 ADD SWAP1 POP PUSH2 0x9CA PUSH1 0x0 DUP4 ADD DUP6 PUSH2 0x8F9 JUMP JUMPDEST PUSH2 0x9D7 PUSH1 0x20 DUP4 ADD DUP5 PUSH2 0x8A4 JUMP JUMPDEST SWAP4 SWAP3 POP POP POP JUMP JUMPDEST PUSH1 0x0 DUP3 DUP3 MSTORE PUSH1 0x20 DUP3 ADD SWAP1 POP SWAP3 SWAP2 POP POP JUMP JUMPDEST PUSH1 0x0 PUSH2 0x9FA DUP3 PUSH2 0xAB7 JUMP JUMPDEST SWAP2 POP PUSH2 0xA05 DUP4 PUSH2 0xAB7 JUMP JUMPDEST SWAP3 POP DUP3 PUSH32 0xFFFFFFFFFFFFFFFFFFFFFFFFFFFFFFFFFFFFFFFFFFFFFFFFFFFFFFFFFFFFFFFF SUB DUP3 GT ISZERO PUSH2 0xA3A JUMPI PUSH2 0xA39 PUSH2 0xAEB JUMP JUMPDEST JUMPDEST DUP3 DUP3 ADD SWAP1 POP SWAP3 SWAP2 POP POP JUMP JUMPDEST PUSH1 0x0 PUSH2 0xA50 DUP3 PUSH2 0xAB7 JUMP JUMPDEST SWAP2 POP PUSH2 0xA5B DUP4 PUSH2 0xAB7 JUMP JUMPDEST SWAP3 POP DUP3 DUP3 LT ISZERO PUSH2 0xA6E JUMPI PUSH2 0xA6D PUSH2 0xAEB JUMP JUMPDEST JUMPDEST DUP3 DUP3 SUB SWAP1 POP SWAP3 SWAP2 POP POP JUMP JUMPDEST PUSH1 0x0 PUSH2 0xA84 DUP3 PUSH2 0xA97 JUMP JUMPDEST SWAP1 POP SWAP2 SWAP1 POP JUMP JUMPDEST PUSH1 0x0 DUP2 ISZERO ISZERO SWAP1 POP SWAP2 SWAP1 POP JUMP JUMPDEST PUSH1 0x0 PUSH20 0xFFFFFFFFFFFFFFFFFFFFFFFFFFFFFFFFFFFFFFFF DUP3 AND SWAP1 POP SWAP2 SWAP1 POP JUMP JUMPDEST PUSH1 0x0 DUP2 SWAP1 POP SWAP2 SWAP1 POP JUMP JUMPDEST PUSH1 0x0 PUSH2 0xACC DUP3 PUSH2 0xAB7 JUMP JUMPDEST SWAP2 POP PUSH1 0x0 DUP3 EQ ISZERO PUSH2 0xAE0 JUMPI PUSH2 0xADF PUSH2 0xAEB JUMP JUMPDEST JUMPDEST PUSH1 0x1 DUP3 SUB SWAP1 POP SWAP2 SWAP1 POP JUMP JUMPDEST PUSH32 0x4E487B7100000000000000000000000000000000000000000000000000000000 PUSH1 0x0 MSTORE PUSH1 0x11 PUSH1 0x4 MSTORE PUSH1 0x24 PUSH1 0x0 REVERT JUMPDEST PUSH32 0x4E487B7100000000000000000000000000000000000000000000000000000000 PUSH1 0x0 MSTORE PUSH1 0x31 PUSH1 0x4 MSTORE PUSH1 0x24 PUSH1 0x0 REVERT JUMPDEST PUSH32 0x4E487B7100000000000000000000000000000000000000000000000000000000 PUSH1 0x0 MSTORE PUSH1 0x32 PUSH1 0x4 MSTORE PUSH1 0x24 PUSH1 0x0 REVERT JUMPDEST PUSH1 0x0 DUP1 REVERT JUMPDEST PUSH32 0x556E617574686F72697A65642E00000000000000000000000000000000000000 PUSH1 0x0 DUP3 ADD MSTORE POP JUMP JUMPDEST PUSH32 0x4E6F206F666665722E0000000000000000000000000000000000000000000000 PUSH1 0x0 DUP3 ADD MSTORE POP JUMP JUMPDEST PUSH2 0xBD8 DUP2 PUSH2 0xA79 JUMP JUMPDEST DUP2 EQ PUSH2 0xBE3 JUMPI PUSH1 0x0 DUP1 REVERT JUMPDEST POP JUMP JUMPDEST PUSH2 0xBEF DUP2 PUSH2 0xAB7 JUMP JUMPDEST DUP2 EQ PUSH2 0xBFA JUMPI PUSH1 0x0 DUP1 REVERT JUMPDEST POP JUMP INVALID LOG2 PUSH5 0x6970667358 0x22 SLT KECCAK256 DIV PUSH29 0xDFE5BC33D8991D085338BF12E4E7890610150BFE53E454AC1BCEE96822 DUP14 PUSH5 0x736F6C6343 STOP ADDMOD SMOD STOP CALLER "
				},
				"gasEstimates": {
					"creation": {
						"codeDepositCost": "624600",
						"executionCost": "657",
						"totalCost": "625257"
					},
					"external": {
						"balances()": "2451",
						"offer(address,uint256)": "infinite",
						"offers(address,uint256)": "3150",
						"submit(address,uint256,address)": "infinite",
						"withdraw()": "98"
					}
				},
				"methodIdentifiers": {
					"balances()": "7bb98a68",
					"offer(address,uint256)": "6b212960",
					"offers(address,uint256)": "aa1a8411",
					"submit(address,uint256,address)": "abd51552",
					"withdraw()": "3ccfd60b"
				}
			},
			"storageLayout": {
				"storage": [
					{
						"astId": 45,
						"contract": "Offer.sol:Offer",
						"label": "offers",
						"offset": 0,
						"slot": "0",
						"type": "t_mapping(t_address,t_mapping(t_uint256,t_struct(Offers)55_storage))"
					},
					{
						"astId": 57,
						"contract": "Offer.sol:Offer",
						"label": "balances",
						"offset": 0,
						"slot": "1",
						"type": "t_uint256"
					}
				],
				"types": {
					"t_address": {
						"encoding": "inplace",
						"label": "address",
						"numberOfBytes": "20"
					},
					"t_array(t_address)dyn_storage": {
						"base": "t_address",
						"encoding": "dynamic_array",
						"label": "address[]",
						"numberOfBytes": "32"
					},
					"t_bool": {
						"encoding": "inplace",
						"label": "bool",
						"numberOfBytes": "1"
					},
					"t_mapping(t_address,t_mapping(t_uint256,t_struct(Offers)55_storage))": {
						"encoding": "mapping",
						"key": "t_address",
						"label": "mapping(address => mapping(uint256 => struct Offer.Offers))",
						"numberOfBytes": "32",
						"value": "t_mapping(t_uint256,t_struct(Offers)55_storage)"
					},
					"t_mapping(t_address,t_uint256)": {
						"encoding": "mapping",
						"key": "t_address",
						"label": "mapping(address => uint256)",
						"numberOfBytes": "32",
						"value": "t_uint256"
					},
					"t_mapping(t_uint256,t_struct(Offers)55_storage)": {
						"encoding": "mapping",
						"key": "t_uint256",
						"label": "mapping(uint256 => struct Offer.Offers)",
						"numberOfBytes": "32",
						"value": "t_struct(Offers)55_storage"
					},
					"t_struct(Offers)55_storage": {
						"encoding": "inplace",
						"label": "struct Offer.Offers",
						"members": [
							{
								"astId": 48,
								"contract": "Offer.sol:Offer",
								"label": "offerer",
								"offset": 0,
								"slot": "0",
								"type": "t_array(t_address)dyn_storage"
							},
							{
								"astId": 52,
								"contract": "Offer.sol:Offer",
								"label": "amount",
								"offset": 0,
								"slot": "1",
								"type": "t_mapping(t_address,t_uint256)"
							},
							{
								"astId": 54,
								"contract": "Offer.sol:Offer",
								"label": "isOffer",
								"offset": 0,
								"slot": "2",
								"type": "t_bool"
							}
						],
						"numberOfBytes": "96"
					},
					"t_uint256": {
						"encoding": "inplace",
						"label": "uint256",
						"numberOfBytes": "32"
					}
				}
			},
			"userdoc": {
				"kind": "user",
				"methods": {},
				"version": 1
			}
		}
	}
}