{
	"Bid.sol": {
		"Auction": {
			"abi": [
				{
					"anonymous": false,
					"inputs": [
						{
							"indexed": true,
							"internalType": "address",
							"name": "sender",
							"type": "address"
						},
						{
							"indexed": false,
							"internalType": "uint256",
							"name": "amount",
							"type": "uint256"
						}
					],
					"name": "Bid",
					"type": "event"
				},
				{
					"anonymous": false,
					"inputs": [
						{
							"indexed": false,
							"internalType": "address",
							"name": "highestBidder",
							"type": "address"
						},
						{
							"indexed": false,
							"internalType": "uint256",
							"name": "highestBid",
							"type": "uint256"
						}
					],
					"name": "End",
					"type": "event"
				},
				{
					"anonymous": false,
					"inputs": [
						{
							"indexed": true,
							"internalType": "address",
							"name": "tokenAddr",
							"type": "address"
						},
						{
							"indexed": true,
							"internalType": "uint256",
							"name": "tokenId",
							"type": "uint256"
						},
						{
							"indexed": false,
							"internalType": "uint256",
							"name": "startingBid",
							"type": "uint256"
						},
						{
							"indexed": false,
							"internalType": "uint256",
							"name": "endAt",
							"type": "uint256"
						}
					],
					"name": "Start",
					"type": "event"
				},
				{
					"anonymous": false,
					"inputs": [
						{
							"indexed": true,
							"internalType": "address",
							"name": "bidder",
							"type": "address"
						},
						{
							"indexed": false,
							"internalType": "uint256",
							"name": "amount",
							"type": "uint256"
						}
					],
					"name": "Withdraw",
					"type": "event"
				},
				{
					"inputs": [
						{
							"internalType": "address",
							"name": "tokenAddr_",
							"type": "address"
						},
						{
							"internalType": "uint256",
							"name": "tokenId_",
							"type": "uint256"
						},
						{
							"internalType": "address",
							"name": "to",
							"type": "address"
						}
					],
					"name": "autoWithdraw",
					"outputs": [],
					"stateMutability": "payable",
					"type": "function"
				},
				{
					"inputs": [],
					"name": "balances",
					"outputs": [
						{
							"internalType": "uint256",
							"name": "",
							"type": "uint256"
						}
					],
					"stateMutability": "view",
					"type": "function"
				},
				{
					"inputs": [
						{
							"internalType": "address",
							"name": "_tokenAddr",
							"type": "address"
						},
						{
							"internalType": "uint256",
							"name": "_tokenId",
							"type": "uint256"
						}
					],
					"name": "bid",
					"outputs": [],
					"stateMutability": "payable",
					"type": "function"
				},
				{
					"inputs": [
						{
							"internalType": "address",
							"name": "",
							"type": "address"
						},
						{
							"internalType": "uint256",
							"name": "",
							"type": "uint256"
						}
					],
					"name": "biddings",
					"outputs": [
						{
							"internalType": "address",
							"name": "seller",
							"type": "address"
						},
						{
							"internalType": "bool",
							"name": "started",
							"type": "bool"
						},
						{
							"internalType": "bool",
							"name": "ended",
							"type": "bool"
						},
						{
							"internalType": "uint256",
							"name": "endAt",
							"type": "uint256"
						},
						{
							"internalType": "contract ERC721",
							"name": "tokenAddr",
							"type": "address"
						},
						{
							"internalType": "uint256",
							"name": "tokenId",
							"type": "uint256"
						},
						{
							"internalType": "uint256",
							"name": "bidCount",
							"type": "uint256"
						}
					],
					"stateMutability": "view",
					"type": "function"
				},
				{
					"inputs": [
						{
							"internalType": "address",
							"name": "_contractAddr",
							"type": "address"
						},
						{
							"internalType": "address",
							"name": "_tokenAddr",
							"type": "address"
						},
						{
							"internalType": "uint256",
							"name": "_tokenId",
							"type": "uint256"
						}
					],
					"name": "end",
					"outputs": [],
					"stateMutability": "nonpayable",
					"type": "function"
				},
				{
					"inputs": [
						{
							"internalType": "address",
							"name": "tokenAddr",
							"type": "address"
						},
						{
							"internalType": "uint256",
							"name": "tokenId",
							"type": "uint256"
						},
						{
							"internalType": "address",
							"name": "bidder",
							"type": "address"
						}
					],
					"name": "getBids",
					"outputs": [
						{
							"internalType": "uint256",
							"name": "bids",
							"type": "uint256"
						}
					],
					"stateMutability": "view",
					"type": "function"
				},
				{
					"inputs": [
						{
							"internalType": "address",
							"name": "tokenAddr",
							"type": "address"
						},
						{
							"internalType": "uint256",
							"name": "tokenId",
							"type": "uint256"
						},
						{
							"internalType": "uint256",
							"name": "bidCount",
							"type": "uint256"
						}
					],
					"name": "getHighestBid",
					"outputs": [
						{
							"internalType": "uint256",
							"name": "highestBid",
							"type": "uint256"
						}
					],
					"stateMutability": "view",
					"type": "function"
				},
				{
					"inputs": [
						{
							"internalType": "address",
							"name": "tokenAddr",
							"type": "address"
						},
						{
							"internalType": "uint256",
							"name": "tokenId",
							"type": "uint256"
						},
						{
							"internalType": "uint256",
							"name": "bidCount",
							"type": "uint256"
						}
					],
					"name": "getHighestBidder",
					"outputs": [
						{
							"internalType": "address",
							"name": "highestBidder",
							"type": "address"
						}
					],
					"stateMutability": "view",
					"type": "function"
				},
				{
					"inputs": [
						{
							"internalType": "address",
							"name": "_tokenAddr",
							"type": "address"
						},
						{
							"internalType": "uint256",
							"name": "_tokenId",
							"type": "uint256"
						},
						{
							"internalType": "uint256",
							"name": "startingBid",
							"type": "uint256"
						},
						{
							"internalType": "uint256",
							"name": "dayAmount",
							"type": "uint256"
						}
					],
					"name": "start",
					"outputs": [],
					"stateMutability": "nonpayable",
					"type": "function"
				},
				{
					"inputs": [
						{
							"internalType": "address",
							"name": "_tokenAddr",
							"type": "address"
						},
						{
							"internalType": "uint256",
							"name": "_tokenId",
							"type": "uint256"
						}
					],
					"name": "withdraw",
					"outputs": [],
					"stateMutability": "payable",
					"type": "function"
				}
			],
			"devdoc": {
				"kind": "dev",
				"methods": {},
				"version": 1
			},
			"evm": {
				"assembly": "    /* \"Bid.sol\":487:6137  contract Auction {\r... */\n  mstore(0x40, 0x80)\n  callvalue\n  dup1\n  iszero\n  tag_1\n  jumpi\n  0x00\n  dup1\n  revert\ntag_1:\n  pop\n  dataSize(sub_0)\n  dup1\n  dataOffset(sub_0)\n  0x00\n  codecopy\n  0x00\n  return\nstop\n\nsub_0: assembly {\n        /* \"Bid.sol\":487:6137  contract Auction {\r... */\n      mstore(0x40, 0x80)\n      jumpi(tag_1, lt(calldatasize, 0x04))\n      shr(0xe0, calldataload(0x00))\n      dup1\n      0xb0651dce\n      gt\n      tag_12\n      jumpi\n      dup1\n      0xb0651dce\n      eq\n      tag_7\n      jumpi\n      dup1\n      0xb76a3b5a\n      eq\n      tag_8\n      jumpi\n      dup1\n      0xbd15bf4e\n      eq\n      tag_9\n      jumpi\n      dup1\n      0xf3fef3a3\n      eq\n      tag_10\n      jumpi\n      dup1\n      0xf48e9b3d\n      eq\n      tag_11\n      jumpi\n      jump(tag_1)\n    tag_12:\n      dup1\n      0x545c285c\n      eq\n      tag_2\n      jumpi\n      dup1\n      0x57354ed1\n      eq\n      tag_3\n      jumpi\n      dup1\n      0x59d667a5\n      eq\n      tag_4\n      jumpi\n      dup1\n      0x699ff43f\n      eq\n      tag_5\n      jumpi\n      dup1\n      0x7bb98a68\n      eq\n      tag_6\n      jumpi\n    tag_1:\n      0x00\n      dup1\n      revert\n        /* \"Bid.sol\":3241:5170  function end(address _contractAddr, address _tokenAddr, uint _tokenId) external {\r... */\n    tag_2:\n      callvalue\n      dup1\n      iszero\n      tag_13\n      jumpi\n      0x00\n      dup1\n      revert\n    tag_13:\n      pop\n      tag_14\n      0x04\n      dup1\n      calldatasize\n      sub\n      dup2\n      add\n      swap1\n      tag_15\n      swap2\n      swap1\n      tag_16\n      jump\t// in\n    tag_15:\n      tag_17\n      jump\t// in\n    tag_14:\n      stop\n        /* \"Bid.sol\":5970:6134  function getBids(address tokenAddr, uint tokenId, address bidder) public view returns(uint bids) {\r... */\n    tag_3:\n      callvalue\n      dup1\n      iszero\n      tag_18\n      jumpi\n      0x00\n      dup1\n      revert\n    tag_18:\n      pop\n      tag_19\n      0x04\n      dup1\n      calldatasize\n      sub\n      dup2\n      add\n      swap1\n      tag_20\n      swap2\n      swap1\n      tag_21\n      jump\t// in\n    tag_20:\n      tag_22\n      jump\t// in\n    tag_19:\n      mload(0x40)\n      tag_23\n      swap2\n      swap1\n      tag_24\n      jump\t// in\n    tag_23:\n      mload(0x40)\n      dup1\n      swap2\n      sub\n      swap1\n      return\n        /* \"Bid.sol\":2028:2699  function bid(address _tokenAddr, uint _tokenId) external payable {\r... */\n    tag_4:\n      tag_25\n      0x04\n      dup1\n      calldatasize\n      sub\n      dup2\n      add\n      swap1\n      tag_26\n      swap2\n      swap1\n      tag_27\n      jump\t// in\n    tag_26:\n      tag_28\n      jump\t// in\n    tag_25:\n      stop\n        /* \"Bid.sol\":5178:5568  function autoWithdraw(address tokenAddr_, uint tokenId_, address to) public payable {\r... */\n    tag_5:\n      tag_29\n      0x04\n      dup1\n      calldatasize\n      sub\n      dup2\n      add\n      swap1\n      tag_30\n      swap2\n      swap1\n      tag_21\n      jump\t// in\n    tag_30:\n      tag_31\n      jump\t// in\n    tag_29:\n      stop\n        /* \"Bid.sol\":845:865  uint public balances */\n    tag_6:\n      callvalue\n      dup1\n      iszero\n      tag_32\n      jumpi\n      0x00\n      dup1\n      revert\n    tag_32:\n      pop\n      tag_33\n      tag_34\n      jump\t// in\n    tag_33:\n      mload(0x40)\n      tag_35\n      swap2\n      swap1\n      tag_24\n      jump\t// in\n    tag_35:\n      mload(0x40)\n      dup1\n      swap2\n      sub\n      swap1\n      return\n        /* \"Bid.sol\":5779:5962  function getHighestBid(address tokenAddr, uint tokenId, uint bidCount) public view returns(uint highestBid) {\r... */\n    tag_7:\n      callvalue\n      dup1\n      iszero\n      tag_36\n      jumpi\n      0x00\n      dup1\n      revert\n    tag_36:\n      pop\n      tag_37\n      0x04\n      dup1\n      calldatasize\n      sub\n      dup2\n      add\n      swap1\n      tag_38\n      swap2\n      swap1\n      tag_39\n      jump\t// in\n    tag_38:\n      tag_40\n      jump\t// in\n    tag_37:\n      mload(0x40)\n      tag_41\n      swap2\n      swap1\n      tag_24\n      jump\t// in\n    tag_41:\n      mload(0x40)\n      dup1\n      swap2\n      sub\n      swap1\n      return\n        /* \"Bid.sol\":1201:2020  function start(address _tokenAddr, uint _tokenId, uint startingBid, uint dayAmount) external {\r... */\n    tag_8:\n      callvalue\n      dup1\n      iszero\n      tag_42\n      jumpi\n      0x00\n      dup1\n      revert\n    tag_42:\n      pop\n      tag_43\n      0x04\n      dup1\n      calldatasize\n      sub\n      dup2\n      add\n      swap1\n      tag_44\n      swap2\n      swap1\n      tag_45\n      jump\t// in\n    tag_44:\n      tag_46\n      jump\t// in\n    tag_43:\n      stop\n        /* \"Bid.sol\":5576:5771  function getHighestBidder(address tokenAddr, uint tokenId, uint bidCount) public view returns(address highestBidder) {\r... */\n    tag_9:\n      callvalue\n      dup1\n      iszero\n      tag_47\n      jumpi\n      0x00\n      dup1\n      revert\n    tag_47:\n      pop\n      tag_48\n      0x04\n      dup1\n      calldatasize\n      sub\n      dup2\n      add\n      swap1\n      tag_49\n      swap2\n      swap1\n      tag_39\n      jump\t// in\n    tag_49:\n      tag_50\n      jump\t// in\n    tag_48:\n      mload(0x40)\n      tag_51\n      swap2\n      swap1\n      tag_52\n      jump\t// in\n    tag_51:\n      mload(0x40)\n      dup1\n      swap2\n      sub\n      swap1\n      return\n        /* \"Bid.sol\":2707:3233  function withdraw(address _tokenAddr, uint _tokenId) external payable {\r... */\n    tag_10:\n      tag_53\n      0x04\n      dup1\n      calldatasize\n      sub\n      dup2\n      add\n      swap1\n      tag_54\n      swap2\n      swap1\n      tag_27\n      jump\t// in\n    tag_54:\n      tag_55\n      jump\t// in\n    tag_53:\n      stop\n        /* \"Bid.sol\":777:836  mapping(address =>mapping(uint => Bidding)) public biddings */\n    tag_11:\n      callvalue\n      dup1\n      iszero\n      tag_56\n      jumpi\n      0x00\n      dup1\n      revert\n    tag_56:\n      pop\n      tag_57\n      0x04\n      dup1\n      calldatasize\n      sub\n      dup2\n      add\n      swap1\n      tag_58\n      swap2\n      swap1\n      tag_27\n      jump\t// in\n    tag_58:\n      tag_59\n      jump\t// in\n    tag_57:\n      mload(0x40)\n      tag_60\n      swap8\n      swap7\n      swap6\n      swap5\n      swap4\n      swap3\n      swap2\n      swap1\n      tag_61\n      jump\t// in\n    tag_60:\n      mload(0x40)\n      dup1\n      swap2\n      sub\n      swap1\n      return\n        /* \"Bid.sol\":3241:5170  function end(address _contractAddr, address _tokenAddr, uint _tokenId) external {\r... */\n    tag_17:\n        /* \"Bid.sol\":3332:3352  Bidding storage _bid */\n      0x00\n        /* \"Bid.sol\":3355:3363  biddings */\n      dup1\n        /* \"Bid.sol\":3355:3375  biddings[_tokenAddr] */\n      0x00\n        /* \"Bid.sol\":3364:3374  _tokenAddr */\n      dup5\n        /* \"Bid.sol\":3355:3375  biddings[_tokenAddr] */\n      0xffffffffffffffffffffffffffffffffffffffff\n      and\n      0xffffffffffffffffffffffffffffffffffffffff\n      and\n      dup2\n      mstore\n      0x20\n      add\n      swap1\n      dup2\n      mstore\n      0x20\n      add\n      0x00\n      keccak256\n        /* \"Bid.sol\":3355:3385  biddings[_tokenAddr][_tokenId] */\n      0x00\n        /* \"Bid.sol\":3376:3384  _tokenId */\n      dup4\n        /* \"Bid.sol\":3355:3385  biddings[_tokenAddr][_tokenId] */\n      dup2\n      mstore\n      0x20\n      add\n      swap1\n      dup2\n      mstore\n      0x20\n      add\n      0x00\n      keccak256\n        /* \"Bid.sol\":3332:3385  Bidding storage _bid = biddings[_tokenAddr][_tokenId] */\n      swap1\n      pop\n        /* \"Bid.sol\":3396:3410  Market _market */\n      0x00\n        /* \"Bid.sol\":3420:3433  _contractAddr */\n      dup5\n        /* \"Bid.sol\":3396:3434  Market _market = Market(_contractAddr) */\n      swap1\n      pop\n        /* \"Bid.sol\":3455:3459  _bid */\n      dup2\n        /* \"Bid.sol\":3455:3467  _bid.started */\n      0x00\n      add\n      0x14\n      swap1\n      sload\n      swap1\n      0x0100\n      exp\n      swap1\n      div\n      0xff\n      and\n        /* \"Bid.sol\":3447:3496  require(_bid.started, \"You need to start first!\") */\n      tag_63\n      jumpi\n      mload(0x40)\n      0x08c379a000000000000000000000000000000000000000000000000000000000\n      dup2\n      mstore\n      0x04\n      add\n      tag_64\n      swap1\n      tag_65\n      jump\t// in\n    tag_64:\n      mload(0x40)\n      dup1\n      swap2\n      sub\n      swap1\n      revert\n    tag_63:\n        /* \"Bid.sol\":3534:3538  _bid */\n      dup2\n        /* \"Bid.sol\":3534:3544  _bid.endAt */\n      0x01\n      add\n      sload\n        /* \"Bid.sol\":3515:3530  block.timestamp */\n      timestamp\n        /* \"Bid.sol\":3515:3544  block.timestamp >= _bid.endAt */\n      lt\n      iszero\n        /* \"Bid.sol\":3507:3574  require(block.timestamp >= _bid.endAt, \"Auction is still ongoing!\") */\n      tag_66\n      jumpi\n      mload(0x40)\n      0x08c379a000000000000000000000000000000000000000000000000000000000\n      dup2\n      mstore\n      0x04\n      add\n      tag_67\n      swap1\n      tag_68\n      jump\t// in\n    tag_67:\n      mload(0x40)\n      dup1\n      swap2\n      sub\n      swap1\n      revert\n    tag_66:\n        /* \"Bid.sol\":3594:3598  _bid */\n      dup2\n        /* \"Bid.sol\":3594:3604  _bid.ended */\n      0x00\n      add\n      0x15\n      swap1\n      sload\n      swap1\n      0x0100\n      exp\n      swap1\n      div\n      0xff\n      and\n        /* \"Bid.sol\":3593:3604  !_bid.ended */\n      iszero\n        /* \"Bid.sol\":3585:3631  require(!_bid.ended, \"Auction already ended!\") */\n      tag_69\n      jumpi\n      mload(0x40)\n      0x08c379a000000000000000000000000000000000000000000000000000000000\n      dup2\n      mstore\n      0x04\n      add\n      tag_70\n      swap1\n      tag_71\n      jump\t// in\n    tag_70:\n      mload(0x40)\n      dup1\n      swap2\n      sub\n      swap1\n      revert\n    tag_69:\n        /* \"Bid.sol\":3693:3694  0 */\n      0x00\n        /* \"Bid.sol\":3648:3695  _bid.highestBidder[_bid.bidCount] != address(0) */\n      0xffffffffffffffffffffffffffffffffffffffff\n      and\n        /* \"Bid.sol\":3648:3652  _bid */\n      dup3\n        /* \"Bid.sol\":3648:3666  _bid.highestBidder */\n      0x06\n      add\n        /* \"Bid.sol\":3648:3681  _bid.highestBidder[_bid.bidCount] */\n      0x00\n        /* \"Bid.sol\":3667:3671  _bid */\n      dup5\n        /* \"Bid.sol\":3667:3680  _bid.bidCount */\n      0x04\n      add\n      sload\n        /* \"Bid.sol\":3648:3681  _bid.highestBidder[_bid.bidCount] */\n      dup2\n      mstore\n      0x20\n      add\n      swap1\n      dup2\n      mstore\n      0x20\n      add\n      0x00\n      keccak256\n      0x00\n      swap1\n      sload\n      swap1\n      0x0100\n      exp\n      swap1\n      div\n      0xffffffffffffffffffffffffffffffffffffffff\n      and\n        /* \"Bid.sol\":3648:3695  _bid.highestBidder[_bid.bidCount] != address(0) */\n      0xffffffffffffffffffffffffffffffffffffffff\n      and\n      eq\n        /* \"Bid.sol\":3644:5016  if (_bid.highestBidder[_bid.bidCount] != address(0)) {\r... */\n      tag_72\n      jumpi\n        /* \"Bid.sol\":3714:3718  _bid */\n      dup2\n        /* \"Bid.sol\":3714:3728  _bid.tokenAddr */\n      0x02\n      add\n      0x00\n      swap1\n      sload\n      swap1\n      0x0100\n      exp\n      swap1\n      div\n      0xffffffffffffffffffffffffffffffffffffffff\n      and\n        /* \"Bid.sol\":3714:3745  _bid.tokenAddr.safeTransferFrom */\n      0xffffffffffffffffffffffffffffffffffffffff\n      and\n      0xb88d4fde\n        /* \"Bid.sol\":3754:3758  this */\n      address\n        /* \"Bid.sol\":3761:3765  _bid */\n      dup5\n        /* \"Bid.sol\":3761:3779  _bid.highestBidder */\n      0x06\n      add\n        /* \"Bid.sol\":3761:3794  _bid.highestBidder[_bid.bidCount] */\n      0x00\n        /* \"Bid.sol\":3780:3784  _bid */\n      dup7\n        /* \"Bid.sol\":3780:3793  _bid.bidCount */\n      0x04\n      add\n      sload\n        /* \"Bid.sol\":3761:3794  _bid.highestBidder[_bid.bidCount] */\n      dup2\n      mstore\n      0x20\n      add\n      swap1\n      dup2\n      mstore\n      0x20\n      add\n      0x00\n      keccak256\n      0x00\n      swap1\n      sload\n      swap1\n      0x0100\n      exp\n      swap1\n      div\n      0xffffffffffffffffffffffffffffffffffffffff\n      and\n        /* \"Bid.sol\":3796:3800  _bid */\n      dup6\n        /* \"Bid.sol\":3796:3808  _bid.tokenId */\n      0x03\n      add\n      sload\n        /* \"Bid.sol\":3714:3813  _bid.tokenAddr.safeTransferFrom(address(this), _bid.highestBidder[_bid.bidCount], _bid.tokenId, \"\") */\n      mload(0x40)\n      dup5\n      0xffffffff\n      and\n      0xe0\n      shl\n      dup2\n      mstore\n      0x04\n      add\n      tag_73\n      swap4\n      swap3\n      swap2\n      swap1\n      tag_74\n      jump\t// in\n    tag_73:\n      0x00\n      mload(0x40)\n      dup1\n      dup4\n      sub\n      dup2\n      0x00\n      dup8\n      dup1\n      extcodesize\n      iszero\n      dup1\n      iszero\n      tag_75\n      jumpi\n      0x00\n      dup1\n      revert\n    tag_75:\n      pop\n      gas\n      call\n      iszero\n      dup1\n      iszero\n      tag_77\n      jumpi\n      returndatasize\n      0x00\n      dup1\n      returndatacopy\n      revert(0x00, returndatasize)\n    tag_77:\n      pop\n      pop\n      pop\n      pop\n        /* \"Bid.sol\":3838:3842  _bid */\n      dup2\n        /* \"Bid.sol\":3838:3849  _bid.seller */\n      0x00\n      add\n      0x00\n      swap1\n      sload\n      swap1\n      0x0100\n      exp\n      swap1\n      div\n      0xffffffffffffffffffffffffffffffffffffffff\n      and\n        /* \"Bid.sol\":3830:3859  payable(_bid.seller).transfer */\n      0xffffffffffffffffffffffffffffffffffffffff\n      and\n        /* \"Bid.sol\":3830:3931  payable(_bid.seller).transfer(_bid.highestBid[_bid.bidCount] - (_bid.highestBid[_bid.bidCount] / 20)) */\n      0x08fc\n        /* \"Bid.sol\":3927:3929  20 */\n      0x14\n        /* \"Bid.sol\":3894:3898  _bid */\n      dup5\n        /* \"Bid.sol\":3894:3909  _bid.highestBid */\n      0x05\n      add\n        /* \"Bid.sol\":3894:3924  _bid.highestBid[_bid.bidCount] */\n      0x00\n        /* \"Bid.sol\":3910:3914  _bid */\n      dup7\n        /* \"Bid.sol\":3910:3923  _bid.bidCount */\n      0x04\n      add\n      sload\n        /* \"Bid.sol\":3894:3924  _bid.highestBid[_bid.bidCount] */\n      dup2\n      mstore\n      0x20\n      add\n      swap1\n      dup2\n      mstore\n      0x20\n      add\n      0x00\n      keccak256\n      sload\n        /* \"Bid.sol\":3894:3929  _bid.highestBid[_bid.bidCount] / 20 */\n      tag_78\n      swap2\n      swap1\n      tag_79\n      jump\t// in\n    tag_78:\n        /* \"Bid.sol\":3860:3864  _bid */\n      dup5\n        /* \"Bid.sol\":3860:3875  _bid.highestBid */\n      0x05\n      add\n        /* \"Bid.sol\":3860:3890  _bid.highestBid[_bid.bidCount] */\n      0x00\n        /* \"Bid.sol\":3876:3880  _bid */\n      dup7\n        /* \"Bid.sol\":3876:3889  _bid.bidCount */\n      0x04\n      add\n      sload\n        /* \"Bid.sol\":3860:3890  _bid.highestBid[_bid.bidCount] */\n      dup2\n      mstore\n      0x20\n      add\n      swap1\n      dup2\n      mstore\n      0x20\n      add\n      0x00\n      keccak256\n      sload\n        /* \"Bid.sol\":3860:3930  _bid.highestBid[_bid.bidCount] - (_bid.highestBid[_bid.bidCount] / 20) */\n      tag_80\n      swap2\n      swap1\n      tag_81\n      jump\t// in\n    tag_80:\n        /* \"Bid.sol\":3830:3931  payable(_bid.seller).transfer(_bid.highestBid[_bid.bidCount] - (_bid.highestBid[_bid.bidCount] / 20)) */\n      swap1\n      dup2\n      iszero\n      mul\n      swap1\n      mload(0x40)\n      0x00\n      mload(0x40)\n      dup1\n      dup4\n      sub\n      dup2\n      dup6\n      dup9\n      dup9\n      call\n      swap4\n      pop\n      pop\n      pop\n      pop\n      iszero\n      dup1\n      iszero\n      tag_83\n      jumpi\n      returndatasize\n      0x00\n      dup1\n      returndatacopy\n      revert(0x00, returndatasize)\n    tag_83:\n      pop\n        /* \"Bid.sol\":4014:4015  0 */\n      0x00\n        /* \"Bid.sol\":3963:3970  _market */\n      dup2\n        /* \"Bid.sol\":3963:3989  _market.getPrevOwnerAmount */\n      0xffffffffffffffffffffffffffffffffffffffff\n      and\n      0xd178227a\n        /* \"Bid.sol\":3990:4000  _tokenAddr */\n      dup7\n        /* \"Bid.sol\":4002:4010  _tokenId */\n      dup7\n        /* \"Bid.sol\":3963:4011  _market.getPrevOwnerAmount(_tokenAddr, _tokenId) */\n      mload(0x40)\n      dup4\n      0xffffffff\n      and\n      0xe0\n      shl\n      dup2\n      mstore\n      0x04\n      add\n      tag_84\n      swap3\n      swap2\n      swap1\n      tag_85\n      jump\t// in\n    tag_84:\n      0x20\n      mload(0x40)\n      dup1\n      dup4\n      sub\n      dup2\n      dup7\n      dup1\n      extcodesize\n      iszero\n      dup1\n      iszero\n      tag_86\n      jumpi\n      0x00\n      dup1\n      revert\n    tag_86:\n      pop\n      gas\n      staticcall\n      iszero\n      dup1\n      iszero\n      tag_88\n      jumpi\n      returndatasize\n      0x00\n      dup1\n      returndatacopy\n      revert(0x00, returndatasize)\n    tag_88:\n      pop\n      pop\n      pop\n      pop\n      mload(0x40)\n      returndatasize\n      not(0x1f)\n      0x1f\n      dup3\n      add\n      and\n      dup3\n      add\n      dup1\n      0x40\n      mstore\n      pop\n      dup2\n      add\n      swap1\n      tag_89\n      swap2\n      swap1\n      tag_90\n      jump\t// in\n    tag_89:\n        /* \"Bid.sol\":3963:4015  _market.getPrevOwnerAmount(_tokenAddr, _tokenId) > 0 */\n      gt\n        /* \"Bid.sol\":3960:4687  if(_market.getPrevOwnerAmount(_tokenAddr, _tokenId) > 0) {\r... */\n      iszero\n      tag_91\n      jumpi\n        /* \"Bid.sol\":4044:4051  _market */\n      dup1\n        /* \"Bid.sol\":4044:4057  _market.owner */\n      0xffffffffffffffffffffffffffffffffffffffff\n      and\n      0x8da5cb5b\n        /* \"Bid.sol\":4044:4059  _market.owner() */\n      mload(0x40)\n      dup2\n      0xffffffff\n      and\n      0xe0\n      shl\n      dup2\n      mstore\n      0x04\n      add\n      0x20\n      mload(0x40)\n      dup1\n      dup4\n      sub\n      dup2\n      dup7\n      dup1\n      extcodesize\n      iszero\n      dup1\n      iszero\n      tag_92\n      jumpi\n      0x00\n      dup1\n      revert\n    tag_92:\n      pop\n      gas\n      staticcall\n      iszero\n      dup1\n      iszero\n      tag_94\n      jumpi\n      returndatasize\n      0x00\n      dup1\n      returndatacopy\n      revert(0x00, returndatasize)\n    tag_94:\n      pop\n      pop\n      pop\n      pop\n      mload(0x40)\n      returndatasize\n      not(0x1f)\n      0x1f\n      dup3\n      add\n      and\n      dup3\n      add\n      dup1\n      0x40\n      mstore\n      pop\n      dup2\n      add\n      swap1\n      tag_95\n      swap2\n      swap1\n      tag_96\n      jump\t// in\n    tag_95:\n        /* \"Bid.sol\":4036:4069  payable(_market.owner()).transfer */\n      0xffffffffffffffffffffffffffffffffffffffff\n      and\n        /* \"Bid.sol\":4036:4106  payable(_market.owner()).transfer(_bid.highestBid[_bid.bidCount] / 40) */\n      0x08fc\n        /* \"Bid.sol\":4103:4105  40 */\n      0x28\n        /* \"Bid.sol\":4070:4074  _bid */\n      dup5\n        /* \"Bid.sol\":4070:4085  _bid.highestBid */\n      0x05\n      add\n        /* \"Bid.sol\":4070:4100  _bid.highestBid[_bid.bidCount] */\n      0x00\n        /* \"Bid.sol\":4086:4090  _bid */\n      dup7\n        /* \"Bid.sol\":4086:4099  _bid.bidCount */\n      0x04\n      add\n      sload\n        /* \"Bid.sol\":4070:4100  _bid.highestBid[_bid.bidCount] */\n      dup2\n      mstore\n      0x20\n      add\n      swap1\n      dup2\n      mstore\n      0x20\n      add\n      0x00\n      keccak256\n      sload\n        /* \"Bid.sol\":4070:4105  _bid.highestBid[_bid.bidCount] / 40 */\n      tag_97\n      swap2\n      swap1\n      tag_79\n      jump\t// in\n    tag_97:\n        /* \"Bid.sol\":4036:4106  payable(_market.owner()).transfer(_bid.highestBid[_bid.bidCount] / 40) */\n      swap1\n      dup2\n      iszero\n      mul\n      swap1\n      mload(0x40)\n      0x00\n      mload(0x40)\n      dup1\n      dup4\n      sub\n      dup2\n      dup6\n      dup9\n      dup9\n      call\n      swap4\n      pop\n      pop\n      pop\n      pop\n      iszero\n      dup1\n      iszero\n      tag_99\n      jumpi\n      returndatasize\n      0x00\n      dup1\n      returndatacopy\n      revert(0x00, returndatasize)\n    tag_99:\n      pop\n        /* \"Bid.sol\":4130:4136  uint i */\n      0x00\n        /* \"Bid.sol\":4125:4548  for (uint i = 0; i < 5; i++) {\r... */\n    tag_100:\n        /* \"Bid.sol\":4146:4147  5 */\n      0x05\n        /* \"Bid.sol\":4142:4143  i */\n      dup2\n        /* \"Bid.sol\":4142:4147  i < 5 */\n      lt\n        /* \"Bid.sol\":4125:4548  for (uint i = 0; i < 5; i++) {\r... */\n      iszero\n      tag_101\n      jumpi\n        /* \"Bid.sol\":4238:4239  0 */\n      0x00\n        /* \"Bid.sol\":4181:4240  _market.getPrevOwner(_tokenAddr, _tokenId, i) != address(0) */\n      0xffffffffffffffffffffffffffffffffffffffff\n      and\n        /* \"Bid.sol\":4181:4188  _market */\n      dup3\n        /* \"Bid.sol\":4181:4201  _market.getPrevOwner */\n      0xffffffffffffffffffffffffffffffffffffffff\n      and\n      0x2973d6f8\n        /* \"Bid.sol\":4202:4212  _tokenAddr */\n      dup8\n        /* \"Bid.sol\":4214:4222  _tokenId */\n      dup8\n        /* \"Bid.sol\":4224:4225  i */\n      dup6\n        /* \"Bid.sol\":4181:4226  _market.getPrevOwner(_tokenAddr, _tokenId, i) */\n      mload(0x40)\n      dup5\n      0xffffffff\n      and\n      0xe0\n      shl\n      dup2\n      mstore\n      0x04\n      add\n      tag_103\n      swap4\n      swap3\n      swap2\n      swap1\n      tag_104\n      jump\t// in\n    tag_103:\n      0x20\n      mload(0x40)\n      dup1\n      dup4\n      sub\n      dup2\n      dup7\n      dup1\n      extcodesize\n      iszero\n      dup1\n      iszero\n      tag_105\n      jumpi\n      0x00\n      dup1\n      revert\n    tag_105:\n      pop\n      gas\n      staticcall\n      iszero\n      dup1\n      iszero\n      tag_107\n      jumpi\n      returndatasize\n      0x00\n      dup1\n      returndatacopy\n      revert(0x00, returndatasize)\n    tag_107:\n      pop\n      pop\n      pop\n      pop\n      mload(0x40)\n      returndatasize\n      not(0x1f)\n      0x1f\n      dup3\n      add\n      and\n      dup3\n      add\n      dup1\n      0x40\n      mstore\n      pop\n      dup2\n      add\n      swap1\n      tag_108\n      swap2\n      swap1\n      tag_96\n      jump\t// in\n    tag_108:\n        /* \"Bid.sol\":4181:4240  _market.getPrevOwner(_tokenAddr, _tokenId, i) != address(0) */\n      0xffffffffffffffffffffffffffffffffffffffff\n      and\n      eq\n        /* \"Bid.sol\":4177:4529  if (_market.getPrevOwner(_tokenAddr, _tokenId, i) != address(0)) {\r... */\n      tag_109\n      jumpi\n        /* \"Bid.sol\":4277:4284  _market */\n      dup2\n        /* \"Bid.sol\":4277:4297  _market.getPrevOwner */\n      0xffffffffffffffffffffffffffffffffffffffff\n      and\n      0x2973d6f8\n        /* \"Bid.sol\":4298:4308  _tokenAddr */\n      dup7\n        /* \"Bid.sol\":4310:4318  _tokenId */\n      dup7\n        /* \"Bid.sol\":4320:4321  i */\n      dup5\n        /* \"Bid.sol\":4277:4322  _market.getPrevOwner(_tokenAddr, _tokenId, i) */\n      mload(0x40)\n      dup5\n      0xffffffff\n      and\n      0xe0\n      shl\n      dup2\n      mstore\n      0x04\n      add\n      tag_110\n      swap4\n      swap3\n      swap2\n      swap1\n      tag_104\n      jump\t// in\n    tag_110:\n      0x20\n      mload(0x40)\n      dup1\n      dup4\n      sub\n      dup2\n      dup7\n      dup1\n      extcodesize\n      iszero\n      dup1\n      iszero\n      tag_111\n      jumpi\n      0x00\n      dup1\n      revert\n    tag_111:\n      pop\n      gas\n      staticcall\n      iszero\n      dup1\n      iszero\n      tag_113\n      jumpi\n      returndatasize\n      0x00\n      dup1\n      returndatacopy\n      revert(0x00, returndatasize)\n    tag_113:\n      pop\n      pop\n      pop\n      pop\n      mload(0x40)\n      returndatasize\n      not(0x1f)\n      0x1f\n      dup3\n      add\n      and\n      dup3\n      add\n      dup1\n      0x40\n      mstore\n      pop\n      dup2\n      add\n      swap1\n      tag_114\n      swap2\n      swap1\n      tag_96\n      jump\t// in\n    tag_114:\n        /* \"Bid.sol\":4269:4332  payable(_market.getPrevOwner(_tokenAddr, _tokenId, i)).transfer */\n      0xffffffffffffffffffffffffffffffffffffffff\n      and\n        /* \"Bid.sol\":4269:4422  payable(_market.getPrevOwner(_tokenAddr, _tokenId, i)).transfer((_bid.highestBid[_bid.bidCount] / 40) / _market.getPrevOwnerAmount(_tokenAddr, _tokenId)) */\n      0x08fc\n        /* \"Bid.sol\":4373:4380  _market */\n      dup4\n        /* \"Bid.sol\":4373:4399  _market.getPrevOwnerAmount */\n      0xffffffffffffffffffffffffffffffffffffffff\n      and\n      0xd178227a\n        /* \"Bid.sol\":4400:4410  _tokenAddr */\n      dup9\n        /* \"Bid.sol\":4412:4420  _tokenId */\n      dup9\n        /* \"Bid.sol\":4373:4421  _market.getPrevOwnerAmount(_tokenAddr, _tokenId) */\n      mload(0x40)\n      dup4\n      0xffffffff\n      and\n      0xe0\n      shl\n      dup2\n      mstore\n      0x04\n      add\n      tag_115\n      swap3\n      swap2\n      swap1\n      tag_85\n      jump\t// in\n    tag_115:\n      0x20\n      mload(0x40)\n      dup1\n      dup4\n      sub\n      dup2\n      dup7\n      dup1\n      extcodesize\n      iszero\n      dup1\n      iszero\n      tag_116\n      jumpi\n      0x00\n      dup1\n      revert\n    tag_116:\n      pop\n      gas\n      staticcall\n      iszero\n      dup1\n      iszero\n      tag_118\n      jumpi\n      returndatasize\n      0x00\n      dup1\n      returndatacopy\n      revert(0x00, returndatasize)\n    tag_118:\n      pop\n      pop\n      pop\n      pop\n      mload(0x40)\n      returndatasize\n      not(0x1f)\n      0x1f\n      dup3\n      add\n      and\n      dup3\n      add\n      dup1\n      0x40\n      mstore\n      pop\n      dup2\n      add\n      swap1\n      tag_119\n      swap2\n      swap1\n      tag_90\n      jump\t// in\n    tag_119:\n        /* \"Bid.sol\":4367:4369  40 */\n      0x28\n        /* \"Bid.sol\":4334:4338  _bid */\n      dup7\n        /* \"Bid.sol\":4334:4349  _bid.highestBid */\n      0x05\n      add\n        /* \"Bid.sol\":4334:4364  _bid.highestBid[_bid.bidCount] */\n      0x00\n        /* \"Bid.sol\":4350:4354  _bid */\n      dup9\n        /* \"Bid.sol\":4350:4363  _bid.bidCount */\n      0x04\n      add\n      sload\n        /* \"Bid.sol\":4334:4364  _bid.highestBid[_bid.bidCount] */\n      dup2\n      mstore\n      0x20\n      add\n      swap1\n      dup2\n      mstore\n      0x20\n      add\n      0x00\n      keccak256\n      sload\n        /* \"Bid.sol\":4334:4369  _bid.highestBid[_bid.bidCount] / 40 */\n      tag_120\n      swap2\n      swap1\n      tag_79\n      jump\t// in\n    tag_120:\n        /* \"Bid.sol\":4333:4421  (_bid.highestBid[_bid.bidCount] / 40) / _market.getPrevOwnerAmount(_tokenAddr, _tokenId) */\n      tag_121\n      swap2\n      swap1\n      tag_79\n      jump\t// in\n    tag_121:\n        /* \"Bid.sol\":4269:4422  payable(_market.getPrevOwner(_tokenAddr, _tokenId, i)).transfer((_bid.highestBid[_bid.bidCount] / 40) / _market.getPrevOwnerAmount(_tokenAddr, _tokenId)) */\n      swap1\n      dup2\n      iszero\n      mul\n      swap1\n      mload(0x40)\n      0x00\n      mload(0x40)\n      dup1\n      dup4\n      sub\n      dup2\n      dup6\n      dup9\n      dup9\n      call\n      swap4\n      pop\n      pop\n      pop\n      pop\n      iszero\n      dup1\n      iszero\n      tag_123\n      jumpi\n      returndatasize\n      0x00\n      dup1\n      returndatacopy\n      revert(0x00, returndatasize)\n    tag_123:\n      pop\n        /* \"Bid.sol\":4177:4529  if (_market.getPrevOwner(_tokenAddr, _tokenId, i) != address(0)) {\r... */\n      jump(tag_124)\n    tag_109:\n        /* \"Bid.sol\":4500:4505  break */\n      jump(tag_101)\n        /* \"Bid.sol\":4177:4529  if (_market.getPrevOwner(_tokenAddr, _tokenId, i) != address(0)) {\r... */\n    tag_124:\n        /* \"Bid.sol\":4149:4152  i++ */\n      dup1\n      dup1\n      tag_125\n      swap1\n      tag_126\n      jump\t// in\n    tag_125:\n      swap2\n      pop\n      pop\n        /* \"Bid.sol\":4125:4548  for (uint i = 0; i < 5; i++) {\r... */\n      jump(tag_100)\n    tag_101:\n      pop\n        /* \"Bid.sol\":3960:4687  if(_market.getPrevOwnerAmount(_tokenAddr, _tokenId) > 0) {\r... */\n      jump(tag_127)\n    tag_91:\n        /* \"Bid.sol\":4609:4616  _market */\n      dup1\n        /* \"Bid.sol\":4609:4622  _market.owner */\n      0xffffffffffffffffffffffffffffffffffffffff\n      and\n      0x8da5cb5b\n        /* \"Bid.sol\":4609:4624  _market.owner() */\n      mload(0x40)\n      dup2\n      0xffffffff\n      and\n      0xe0\n      shl\n      dup2\n      mstore\n      0x04\n      add\n      0x20\n      mload(0x40)\n      dup1\n      dup4\n      sub\n      dup2\n      dup7\n      dup1\n      extcodesize\n      iszero\n      dup1\n      iszero\n      tag_128\n      jumpi\n      0x00\n      dup1\n      revert\n    tag_128:\n      pop\n      gas\n      staticcall\n      iszero\n      dup1\n      iszero\n      tag_130\n      jumpi\n      returndatasize\n      0x00\n      dup1\n      returndatacopy\n      revert(0x00, returndatasize)\n    tag_130:\n      pop\n      pop\n      pop\n      pop\n      mload(0x40)\n      returndatasize\n      not(0x1f)\n      0x1f\n      dup3\n      add\n      and\n      dup3\n      add\n      dup1\n      0x40\n      mstore\n      pop\n      dup2\n      add\n      swap1\n      tag_131\n      swap2\n      swap1\n      tag_96\n      jump\t// in\n    tag_131:\n        /* \"Bid.sol\":4601:4634  payable(_market.owner()).transfer */\n      0xffffffffffffffffffffffffffffffffffffffff\n      and\n        /* \"Bid.sol\":4601:4671  payable(_market.owner()).transfer(_bid.highestBid[_bid.bidCount] / 20) */\n      0x08fc\n        /* \"Bid.sol\":4668:4670  20 */\n      0x14\n        /* \"Bid.sol\":4635:4639  _bid */\n      dup5\n        /* \"Bid.sol\":4635:4650  _bid.highestBid */\n      0x05\n      add\n        /* \"Bid.sol\":4635:4665  _bid.highestBid[_bid.bidCount] */\n      0x00\n        /* \"Bid.sol\":4651:4655  _bid */\n      dup7\n        /* \"Bid.sol\":4651:4664  _bid.bidCount */\n      0x04\n      add\n      sload\n        /* \"Bid.sol\":4635:4665  _bid.highestBid[_bid.bidCount] */\n      dup2\n      mstore\n      0x20\n      add\n      swap1\n      dup2\n      mstore\n      0x20\n      add\n      0x00\n      keccak256\n      sload\n        /* \"Bid.sol\":4635:4670  _bid.highestBid[_bid.bidCount] / 20 */\n      tag_132\n      swap2\n      swap1\n      tag_79\n      jump\t// in\n    tag_132:\n        /* \"Bid.sol\":4601:4671  payable(_market.owner()).transfer(_bid.highestBid[_bid.bidCount] / 20) */\n      swap1\n      dup2\n      iszero\n      mul\n      swap1\n      mload(0x40)\n      0x00\n      mload(0x40)\n      dup1\n      dup4\n      sub\n      dup2\n      dup6\n      dup9\n      dup9\n      call\n      swap4\n      pop\n      pop\n      pop\n      pop\n      iszero\n      dup1\n      iszero\n      tag_134\n      jumpi\n      returndatasize\n      0x00\n      dup1\n      returndatacopy\n      revert(0x00, returndatasize)\n    tag_134:\n      pop\n        /* \"Bid.sol\":3960:4687  if(_market.getPrevOwnerAmount(_tokenAddr, _tokenId) > 0) {\r... */\n    tag_127:\n        /* \"Bid.sol\":4715:4719  _bid */\n      dup2\n        /* \"Bid.sol\":4715:4730  _bid.highestBid */\n      0x05\n      add\n        /* \"Bid.sol\":4715:4745  _bid.highestBid[_bid.bidCount] */\n      0x00\n        /* \"Bid.sol\":4731:4735  _bid */\n      dup4\n        /* \"Bid.sol\":4731:4744  _bid.bidCount */\n      0x04\n      add\n      sload\n        /* \"Bid.sol\":4715:4745  _bid.highestBid[_bid.bidCount] */\n      dup2\n      mstore\n      0x20\n      add\n      swap1\n      dup2\n      mstore\n      0x20\n      add\n      0x00\n      keccak256\n      sload\n        /* \"Bid.sol\":4703:4711  balances */\n      0x01\n      0x00\n        /* \"Bid.sol\":4703:4745  balances -= _bid.highestBid[_bid.bidCount] */\n      dup3\n      dup3\n      sload\n      tag_135\n      swap2\n      swap1\n      tag_81\n      jump\t// in\n    tag_135:\n      swap3\n      pop\n      pop\n      dup2\n      swap1\n      sstore\n      pop\n        /* \"Bid.sol\":4767:4773  uint i */\n      0x00\n        /* \"Bid.sol\":4762:4895  for (uint i = 0; i < _bid.bidCount; i++) {\r... */\n    tag_136:\n        /* \"Bid.sol\":4783:4787  _bid */\n      dup3\n        /* \"Bid.sol\":4783:4796  _bid.bidCount */\n      0x04\n      add\n      sload\n        /* \"Bid.sol\":4779:4780  i */\n      dup2\n        /* \"Bid.sol\":4779:4796  i < _bid.bidCount */\n      lt\n        /* \"Bid.sol\":4762:4895  for (uint i = 0; i < _bid.bidCount; i++) {\r... */\n      iszero\n      tag_137\n      jumpi\n        /* \"Bid.sol\":4822:4879  autoWithdraw(_tokenAddr, _tokenId, _bid.highestBidder[i]) */\n      tag_139\n        /* \"Bid.sol\":4835:4845  _tokenAddr */\n      dup6\n        /* \"Bid.sol\":4847:4855  _tokenId */\n      dup6\n        /* \"Bid.sol\":4857:4861  _bid */\n      dup6\n        /* \"Bid.sol\":4857:4875  _bid.highestBidder */\n      0x06\n      add\n        /* \"Bid.sol\":4857:4878  _bid.highestBidder[i] */\n      0x00\n        /* \"Bid.sol\":4876:4877  i */\n      dup6\n        /* \"Bid.sol\":4857:4878  _bid.highestBidder[i] */\n      dup2\n      mstore\n      0x20\n      add\n      swap1\n      dup2\n      mstore\n      0x20\n      add\n      0x00\n      keccak256\n      0x00\n      swap1\n      sload\n      swap1\n      0x0100\n      exp\n      swap1\n      div\n      0xffffffffffffffffffffffffffffffffffffffff\n      and\n        /* \"Bid.sol\":4822:4834  autoWithdraw */\n      tag_31\n        /* \"Bid.sol\":4822:4879  autoWithdraw(_tokenAddr, _tokenId, _bid.highestBidder[i]) */\n      jump\t// in\n    tag_139:\n        /* \"Bid.sol\":4798:4801  i++ */\n      dup1\n      dup1\n      tag_140\n      swap1\n      tag_126\n      jump\t// in\n    tag_140:\n      swap2\n      pop\n      pop\n        /* \"Bid.sol\":4762:4895  for (uint i = 0; i < _bid.bidCount; i++) {\r... */\n      jump(tag_136)\n    tag_137:\n      pop\n        /* \"Bid.sol\":3644:5016  if (_bid.highestBidder[_bid.bidCount] != address(0)) {\r... */\n      jump(tag_141)\n    tag_72:\n        /* \"Bid.sol\":4927:4931  _bid */\n      dup2\n        /* \"Bid.sol\":4927:4941  _bid.tokenAddr */\n      0x02\n      add\n      0x00\n      swap1\n      sload\n      swap1\n      0x0100\n      exp\n      swap1\n      div\n      0xffffffffffffffffffffffffffffffffffffffff\n      and\n        /* \"Bid.sol\":4927:4958  _bid.tokenAddr.safeTransferFrom */\n      0xffffffffffffffffffffffffffffffffffffffff\n      and\n      0xb88d4fde\n        /* \"Bid.sol\":4967:4971  this */\n      address\n        /* \"Bid.sol\":4974:4978  _bid */\n      dup5\n        /* \"Bid.sol\":4974:4985  _bid.seller */\n      0x00\n      add\n      0x00\n      swap1\n      sload\n      swap1\n      0x0100\n      exp\n      swap1\n      div\n      0xffffffffffffffffffffffffffffffffffffffff\n      and\n        /* \"Bid.sol\":4987:4991  _bid */\n      dup6\n        /* \"Bid.sol\":4987:4999  _bid.tokenId */\n      0x03\n      add\n      sload\n        /* \"Bid.sol\":4927:5004  _bid.tokenAddr.safeTransferFrom(address(this), _bid.seller, _bid.tokenId, \"\") */\n      mload(0x40)\n      dup5\n      0xffffffff\n      and\n      0xe0\n      shl\n      dup2\n      mstore\n      0x04\n      add\n      tag_142\n      swap4\n      swap3\n      swap2\n      swap1\n      tag_74\n      jump\t// in\n    tag_142:\n      0x00\n      mload(0x40)\n      dup1\n      dup4\n      sub\n      dup2\n      0x00\n      dup8\n      dup1\n      extcodesize\n      iszero\n      dup1\n      iszero\n      tag_143\n      jumpi\n      0x00\n      dup1\n      revert\n    tag_143:\n      pop\n      gas\n      call\n      iszero\n      dup1\n      iszero\n      tag_145\n      jumpi\n      returndatasize\n      0x00\n      dup1\n      returndatacopy\n      revert(0x00, returndatasize)\n    tag_145:\n      pop\n      pop\n      pop\n      pop\n        /* \"Bid.sol\":3644:5016  if (_bid.highestBidder[_bid.bidCount] != address(0)) {\r... */\n    tag_141:\n        /* \"Bid.sol\":5041:5045  true */\n      0x01\n        /* \"Bid.sol\":5028:5032  _bid */\n      dup3\n        /* \"Bid.sol\":5028:5038  _bid.ended */\n      0x00\n      add\n      0x15\n        /* \"Bid.sol\":5028:5045  _bid.ended = true */\n      0x0100\n      exp\n      dup2\n      sload\n      dup2\n      0xff\n      mul\n      not\n      and\n      swap1\n      dup4\n      iszero\n      iszero\n      mul\n      or\n      swap1\n      sstore\n      pop\n        /* \"Bid.sol\":5071:5076  false */\n      0x00\n        /* \"Bid.sol\":5056:5060  _bid */\n      dup3\n        /* \"Bid.sol\":5056:5068  _bid.started */\n      0x00\n      add\n      0x14\n        /* \"Bid.sol\":5056:5076  _bid.started = false */\n      0x0100\n      exp\n      dup2\n      sload\n      dup2\n      0xff\n      mul\n      not\n      and\n      swap1\n      dup4\n      iszero\n      iszero\n      mul\n      or\n      swap1\n      sstore\n      pop\n        /* \"Bid.sol\":5092:5162  End(_bid.highestBidder[_bid.bidCount], _bid.highestBid[_bid.bidCount]) */\n      0x7d7570b046e5ead3a4f3fbc9fa2445113625a1e79823776146316bafed6b8cc5\n        /* \"Bid.sol\":5096:5100  _bid */\n      dup3\n        /* \"Bid.sol\":5096:5114  _bid.highestBidder */\n      0x06\n      add\n        /* \"Bid.sol\":5096:5129  _bid.highestBidder[_bid.bidCount] */\n      0x00\n        /* \"Bid.sol\":5115:5119  _bid */\n      dup5\n        /* \"Bid.sol\":5115:5128  _bid.bidCount */\n      0x04\n      add\n      sload\n        /* \"Bid.sol\":5096:5129  _bid.highestBidder[_bid.bidCount] */\n      dup2\n      mstore\n      0x20\n      add\n      swap1\n      dup2\n      mstore\n      0x20\n      add\n      0x00\n      keccak256\n      0x00\n      swap1\n      sload\n      swap1\n      0x0100\n      exp\n      swap1\n      div\n      0xffffffffffffffffffffffffffffffffffffffff\n      and\n        /* \"Bid.sol\":5131:5135  _bid */\n      dup4\n        /* \"Bid.sol\":5131:5146  _bid.highestBid */\n      0x05\n      add\n        /* \"Bid.sol\":5131:5161  _bid.highestBid[_bid.bidCount] */\n      0x00\n        /* \"Bid.sol\":5147:5151  _bid */\n      dup6\n        /* \"Bid.sol\":5147:5160  _bid.bidCount */\n      0x04\n      add\n      sload\n        /* \"Bid.sol\":5131:5161  _bid.highestBid[_bid.bidCount] */\n      dup2\n      mstore\n      0x20\n      add\n      swap1\n      dup2\n      mstore\n      0x20\n      add\n      0x00\n      keccak256\n      sload\n        /* \"Bid.sol\":5092:5162  End(_bid.highestBidder[_bid.bidCount], _bid.highestBid[_bid.bidCount]) */\n      mload(0x40)\n      tag_146\n      swap3\n      swap2\n      swap1\n      tag_85\n      jump\t// in\n    tag_146:\n      mload(0x40)\n      dup1\n      swap2\n      sub\n      swap1\n      log1\n        /* \"Bid.sol\":3321:5170  {\r... */\n      pop\n      pop\n        /* \"Bid.sol\":3241:5170  function end(address _contractAddr, address _tokenAddr, uint _tokenId) external {\r... */\n      pop\n      pop\n      pop\n      jump\t// out\n        /* \"Bid.sol\":5970:6134  function getBids(address tokenAddr, uint tokenId, address bidder) public view returns(uint bids) {\r... */\n    tag_22:\n        /* \"Bid.sol\":6056:6065  uint bids */\n      0x00\n        /* \"Bid.sol\":6085:6093  biddings */\n      dup1\n        /* \"Bid.sol\":6085:6104  biddings[tokenAddr] */\n      0x00\n        /* \"Bid.sol\":6094:6103  tokenAddr */\n      dup6\n        /* \"Bid.sol\":6085:6104  biddings[tokenAddr] */\n      0xffffffffffffffffffffffffffffffffffffffff\n      and\n      0xffffffffffffffffffffffffffffffffffffffff\n      and\n      dup2\n      mstore\n      0x20\n      add\n      swap1\n      dup2\n      mstore\n      0x20\n      add\n      0x00\n      keccak256\n        /* \"Bid.sol\":6085:6113  biddings[tokenAddr][tokenId] */\n      0x00\n        /* \"Bid.sol\":6105:6112  tokenId */\n      dup5\n        /* \"Bid.sol\":6085:6113  biddings[tokenAddr][tokenId] */\n      dup2\n      mstore\n      0x20\n      add\n      swap1\n      dup2\n      mstore\n      0x20\n      add\n      0x00\n      keccak256\n        /* \"Bid.sol\":6085:6118  biddings[tokenAddr][tokenId].bids */\n      0x07\n      add\n        /* \"Bid.sol\":6085:6126  biddings[tokenAddr][tokenId].bids[bidder] */\n      0x00\n        /* \"Bid.sol\":6119:6125  bidder */\n      dup4\n        /* \"Bid.sol\":6085:6126  biddings[tokenAddr][tokenId].bids[bidder] */\n      0xffffffffffffffffffffffffffffffffffffffff\n      and\n      0xffffffffffffffffffffffffffffffffffffffff\n      and\n      dup2\n      mstore\n      0x20\n      add\n      swap1\n      dup2\n      mstore\n      0x20\n      add\n      0x00\n      keccak256\n      sload\n        /* \"Bid.sol\":6078:6126  return biddings[tokenAddr][tokenId].bids[bidder] */\n      swap1\n      pop\n        /* \"Bid.sol\":5970:6134  function getBids(address tokenAddr, uint tokenId, address bidder) public view returns(uint bids) {\r... */\n      swap4\n      swap3\n      pop\n      pop\n      pop\n      jump\t// out\n        /* \"Bid.sol\":2028:2699  function bid(address _tokenAddr, uint _tokenId) external payable {\r... */\n    tag_28:\n        /* \"Bid.sol\":2104:2124  Bidding storage _bid */\n      0x00\n        /* \"Bid.sol\":2127:2135  biddings */\n      dup1\n        /* \"Bid.sol\":2127:2147  biddings[_tokenAddr] */\n      0x00\n        /* \"Bid.sol\":2136:2146  _tokenAddr */\n      dup5\n        /* \"Bid.sol\":2127:2147  biddings[_tokenAddr] */\n      0xffffffffffffffffffffffffffffffffffffffff\n      and\n      0xffffffffffffffffffffffffffffffffffffffff\n      and\n      dup2\n      mstore\n      0x20\n      add\n      swap1\n      dup2\n      mstore\n      0x20\n      add\n      0x00\n      keccak256\n        /* \"Bid.sol\":2127:2157  biddings[_tokenAddr][_tokenId] */\n      0x00\n        /* \"Bid.sol\":2148:2156  _tokenId */\n      dup4\n        /* \"Bid.sol\":2127:2157  biddings[_tokenAddr][_tokenId] */\n      dup2\n      mstore\n      0x20\n      add\n      swap1\n      dup2\n      mstore\n      0x20\n      add\n      0x00\n      keccak256\n        /* \"Bid.sol\":2104:2157  Bidding storage _bid = biddings[_tokenAddr][_tokenId] */\n      swap1\n      pop\n        /* \"Bid.sol\":2178:2182  _bid */\n      dup1\n        /* \"Bid.sol\":2178:2190  _bid.started */\n      0x00\n      add\n      0x14\n      swap1\n      sload\n      swap1\n      0x0100\n      exp\n      swap1\n      div\n      0xff\n      and\n        /* \"Bid.sol\":2170:2207  require(_bid.started, \"Not started.\") */\n      tag_149\n      jumpi\n      mload(0x40)\n      0x08c379a000000000000000000000000000000000000000000000000000000000\n      dup2\n      mstore\n      0x04\n      add\n      tag_150\n      swap1\n      tag_151\n      jump\t// in\n    tag_150:\n      mload(0x40)\n      dup1\n      swap2\n      sub\n      swap1\n      revert\n    tag_149:\n        /* \"Bid.sol\":2244:2248  _bid */\n      dup1\n        /* \"Bid.sol\":2244:2254  _bid.endAt */\n      0x01\n      add\n      sload\n        /* \"Bid.sol\":2226:2241  block.timestamp */\n      timestamp\n        /* \"Bid.sol\":2226:2254  block.timestamp < _bid.endAt */\n      lt\n        /* \"Bid.sol\":2218:2265  require(block.timestamp < _bid.endAt, \"Ended!\") */\n      tag_152\n      jumpi\n      mload(0x40)\n      0x08c379a000000000000000000000000000000000000000000000000000000000\n      dup2\n      mstore\n      0x04\n      add\n      tag_153\n      swap1\n      tag_154\n      jump\t// in\n    tag_153:\n      mload(0x40)\n      dup1\n      swap2\n      sub\n      swap1\n      revert\n    tag_152:\n        /* \"Bid.sol\":2296:2300  _bid */\n      dup1\n        /* \"Bid.sol\":2296:2311  _bid.highestBid */\n      0x05\n      add\n        /* \"Bid.sol\":2296:2326  _bid.highestBid[_bid.bidCount] */\n      0x00\n        /* \"Bid.sol\":2312:2316  _bid */\n      dup3\n        /* \"Bid.sol\":2312:2325  _bid.bidCount */\n      0x04\n      add\n      sload\n        /* \"Bid.sol\":2296:2326  _bid.highestBid[_bid.bidCount] */\n      dup2\n      mstore\n      0x20\n      add\n      swap1\n      dup2\n      mstore\n      0x20\n      add\n      0x00\n      keccak256\n      sload\n        /* \"Bid.sol\":2284:2293  msg.value */\n      callvalue\n        /* \"Bid.sol\":2284:2326  msg.value > _bid.highestBid[_bid.bidCount] */\n      gt\n        /* \"Bid.sol\":2276:2341  require(msg.value > _bid.highestBid[_bid.bidCount], \"Lower bid!\") */\n      tag_155\n      jumpi\n      mload(0x40)\n      0x08c379a000000000000000000000000000000000000000000000000000000000\n      dup2\n      mstore\n      0x04\n      add\n      tag_156\n      swap1\n      tag_157\n      jump\t// in\n    tag_156:\n      mload(0x40)\n      dup1\n      swap2\n      sub\n      swap1\n      revert\n    tag_155:\n        /* \"Bid.sol\":2354:2358  _bid */\n      dup1\n        /* \"Bid.sol\":2354:2367  _bid.bidCount */\n      0x04\n      add\n      0x00\n        /* \"Bid.sol\":2354:2369  _bid.bidCount++ */\n      dup2\n      sload\n      dup1\n      swap3\n      swap2\n      swap1\n      tag_158\n      swap1\n      tag_126\n      jump\t// in\n    tag_158:\n      swap2\n      swap1\n      pop\n      sstore\n      pop\n        /* \"Bid.sol\":2415:2424  msg.value */\n      callvalue\n        /* \"Bid.sol\":2382:2386  _bid */\n      dup2\n        /* \"Bid.sol\":2382:2397  _bid.highestBid */\n      0x05\n      add\n        /* \"Bid.sol\":2382:2412  _bid.highestBid[_bid.bidCount] */\n      0x00\n        /* \"Bid.sol\":2398:2402  _bid */\n      dup4\n        /* \"Bid.sol\":2398:2411  _bid.bidCount */\n      0x04\n      add\n      sload\n        /* \"Bid.sol\":2382:2412  _bid.highestBid[_bid.bidCount] */\n      dup2\n      mstore\n      0x20\n      add\n      swap1\n      dup2\n      mstore\n      0x20\n      add\n      0x00\n      keccak256\n        /* \"Bid.sol\":2382:2424  _bid.highestBid[_bid.bidCount] = msg.value */\n      dup2\n      swap1\n      sstore\n      pop\n        /* \"Bid.sol\":2471:2481  msg.sender */\n      caller\n        /* \"Bid.sol\":2435:2439  _bid */\n      dup2\n        /* \"Bid.sol\":2435:2453  _bid.highestBidder */\n      0x06\n      add\n        /* \"Bid.sol\":2435:2468  _bid.highestBidder[_bid.bidCount] */\n      0x00\n        /* \"Bid.sol\":2454:2458  _bid */\n      dup4\n        /* \"Bid.sol\":2454:2467  _bid.bidCount */\n      0x04\n      add\n      sload\n        /* \"Bid.sol\":2435:2468  _bid.highestBidder[_bid.bidCount] */\n      dup2\n      mstore\n      0x20\n      add\n      swap1\n      dup2\n      mstore\n      0x20\n      add\n      0x00\n      keccak256\n      0x00\n        /* \"Bid.sol\":2435:2481  _bid.highestBidder[_bid.bidCount] = msg.sender */\n      0x0100\n      exp\n      dup2\n      sload\n      dup2\n      0xffffffffffffffffffffffffffffffffffffffff\n      mul\n      not\n      and\n      swap1\n      dup4\n      0xffffffffffffffffffffffffffffffffffffffff\n      and\n      mul\n      or\n      swap1\n      sstore\n      pop\n        /* \"Bid.sol\":2539:2543  _bid */\n      dup1\n        /* \"Bid.sol\":2539:2554  _bid.highestBid */\n      0x05\n      add\n        /* \"Bid.sol\":2539:2569  _bid.highestBid[_bid.bidCount] */\n      0x00\n        /* \"Bid.sol\":2555:2559  _bid */\n      dup3\n        /* \"Bid.sol\":2555:2568  _bid.bidCount */\n      0x04\n      add\n      sload\n        /* \"Bid.sol\":2539:2569  _bid.highestBid[_bid.bidCount] */\n      dup2\n      mstore\n      0x20\n      add\n      swap1\n      dup2\n      mstore\n      0x20\n      add\n      0x00\n      keccak256\n      sload\n        /* \"Bid.sol\":2492:2496  _bid */\n      dup2\n        /* \"Bid.sol\":2492:2501  _bid.bids */\n      0x07\n      add\n        /* \"Bid.sol\":2492:2536  _bid.bids[_bid.highestBidder[_bid.bidCount]] */\n      0x00\n        /* \"Bid.sol\":2502:2506  _bid */\n      dup4\n        /* \"Bid.sol\":2502:2520  _bid.highestBidder */\n      0x06\n      add\n        /* \"Bid.sol\":2502:2535  _bid.highestBidder[_bid.bidCount] */\n      0x00\n        /* \"Bid.sol\":2521:2525  _bid */\n      dup6\n        /* \"Bid.sol\":2521:2534  _bid.bidCount */\n      0x04\n      add\n      sload\n        /* \"Bid.sol\":2502:2535  _bid.highestBidder[_bid.bidCount] */\n      dup2\n      mstore\n      0x20\n      add\n      swap1\n      dup2\n      mstore\n      0x20\n      add\n      0x00\n      keccak256\n      0x00\n      swap1\n      sload\n      swap1\n      0x0100\n      exp\n      swap1\n      div\n      0xffffffffffffffffffffffffffffffffffffffff\n      and\n        /* \"Bid.sol\":2492:2536  _bid.bids[_bid.highestBidder[_bid.bidCount]] */\n      0xffffffffffffffffffffffffffffffffffffffff\n      and\n      0xffffffffffffffffffffffffffffffffffffffff\n      and\n      dup2\n      mstore\n      0x20\n      add\n      swap1\n      dup2\n      mstore\n      0x20\n      add\n      0x00\n      keccak256\n        /* \"Bid.sol\":2492:2569  _bid.bids[_bid.highestBidder[_bid.bidCount]] = _bid.highestBid[_bid.bidCount] */\n      dup2\n      swap1\n      sstore\n      pop\n        /* \"Bid.sol\":2594:2603  msg.value */\n      callvalue\n        /* \"Bid.sol\":2582:2590  balances */\n      0x01\n      0x00\n        /* \"Bid.sol\":2582:2603  balances += msg.value */\n      dup3\n      dup3\n      sload\n      tag_159\n      swap2\n      swap1\n      tag_160\n      jump\t// in\n    tag_159:\n      swap3\n      pop\n      pop\n      dup2\n      swap1\n      sstore\n      pop\n        /* \"Bid.sol\":2625:2629  _bid */\n      dup1\n        /* \"Bid.sol\":2625:2643  _bid.highestBidder */\n      0x06\n      add\n        /* \"Bid.sol\":2625:2658  _bid.highestBidder[_bid.bidCount] */\n      0x00\n        /* \"Bid.sol\":2644:2648  _bid */\n      dup3\n        /* \"Bid.sol\":2644:2657  _bid.bidCount */\n      0x04\n      add\n      sload\n        /* \"Bid.sol\":2625:2658  _bid.highestBidder[_bid.bidCount] */\n      dup2\n      mstore\n      0x20\n      add\n      swap1\n      dup2\n      mstore\n      0x20\n      add\n      0x00\n      keccak256\n      0x00\n      swap1\n      sload\n      swap1\n      0x0100\n      exp\n      swap1\n      div\n      0xffffffffffffffffffffffffffffffffffffffff\n      and\n        /* \"Bid.sol\":2621:2691  Bid(_bid.highestBidder[_bid.bidCount], _bid.highestBid[_bid.bidCount]) */\n      0xffffffffffffffffffffffffffffffffffffffff\n      and\n      0xe684a55f31b79eca403df938249029212a5925ec6be8012e099b45bc1019e5d2\n        /* \"Bid.sol\":2660:2664  _bid */\n      dup3\n        /* \"Bid.sol\":2660:2675  _bid.highestBid */\n      0x05\n      add\n        /* \"Bid.sol\":2660:2690  _bid.highestBid[_bid.bidCount] */\n      0x00\n        /* \"Bid.sol\":2676:2680  _bid */\n      dup5\n        /* \"Bid.sol\":2676:2689  _bid.bidCount */\n      0x04\n      add\n      sload\n        /* \"Bid.sol\":2660:2690  _bid.highestBid[_bid.bidCount] */\n      dup2\n      mstore\n      0x20\n      add\n      swap1\n      dup2\n      mstore\n      0x20\n      add\n      0x00\n      keccak256\n      sload\n        /* \"Bid.sol\":2621:2691  Bid(_bid.highestBidder[_bid.bidCount], _bid.highestBid[_bid.bidCount]) */\n      mload(0x40)\n      tag_161\n      swap2\n      swap1\n      tag_24\n      jump\t// in\n    tag_161:\n      mload(0x40)\n      dup1\n      swap2\n      sub\n      swap1\n      log2\n        /* \"Bid.sol\":2093:2699  {\r... */\n      pop\n        /* \"Bid.sol\":2028:2699  function bid(address _tokenAddr, uint _tokenId) external payable {\r... */\n      pop\n      pop\n      jump\t// out\n        /* \"Bid.sol\":5178:5568  function autoWithdraw(address tokenAddr_, uint tokenId_, address to) public payable {\r... */\n    tag_31:\n        /* \"Bid.sol\":5273:5293  Bidding storage _bid */\n      0x00\n        /* \"Bid.sol\":5296:5304  biddings */\n      dup1\n        /* \"Bid.sol\":5296:5316  biddings[tokenAddr_] */\n      0x00\n        /* \"Bid.sol\":5305:5315  tokenAddr_ */\n      dup6\n        /* \"Bid.sol\":5296:5316  biddings[tokenAddr_] */\n      0xffffffffffffffffffffffffffffffffffffffff\n      and\n      0xffffffffffffffffffffffffffffffffffffffff\n      and\n      dup2\n      mstore\n      0x20\n      add\n      swap1\n      dup2\n      mstore\n      0x20\n      add\n      0x00\n      keccak256\n        /* \"Bid.sol\":5296:5326  biddings[tokenAddr_][tokenId_] */\n      0x00\n        /* \"Bid.sol\":5317:5325  tokenId_ */\n      dup5\n        /* \"Bid.sol\":5296:5326  biddings[tokenAddr_][tokenId_] */\n      dup2\n      mstore\n      0x20\n      add\n      swap1\n      dup2\n      mstore\n      0x20\n      add\n      0x00\n      keccak256\n        /* \"Bid.sol\":5273:5326  Bidding storage _bid = biddings[tokenAddr_][tokenId_] */\n      swap1\n      pop\n        /* \"Bid.sol\":5337:5345  uint bal */\n      0x00\n        /* \"Bid.sol\":5348:5352  _bid */\n      dup2\n        /* \"Bid.sol\":5348:5357  _bid.bids */\n      0x07\n      add\n        /* \"Bid.sol\":5348:5361  _bid.bids[to] */\n      0x00\n        /* \"Bid.sol\":5358:5360  to */\n      dup5\n        /* \"Bid.sol\":5348:5361  _bid.bids[to] */\n      0xffffffffffffffffffffffffffffffffffffffff\n      and\n      0xffffffffffffffffffffffffffffffffffffffff\n      and\n      dup2\n      mstore\n      0x20\n      add\n      swap1\n      dup2\n      mstore\n      0x20\n      add\n      0x00\n      keccak256\n      sload\n        /* \"Bid.sol\":5337:5361  uint bal = _bid.bids[to] */\n      swap1\n      pop\n        /* \"Bid.sol\":5388:5389  0 */\n      0x00\n        /* \"Bid.sol\":5382:5385  bal */\n      dup2\n        /* \"Bid.sol\":5382:5389  bal > 0 */\n      gt\n        /* \"Bid.sol\":5382:5408  bal > 0 && bal <= balances */\n      dup1\n      iszero\n      tag_163\n      jumpi\n      pop\n        /* \"Bid.sol\":5400:5408  balances */\n      sload(0x01)\n        /* \"Bid.sol\":5393:5396  bal */\n      dup2\n        /* \"Bid.sol\":5393:5408  bal <= balances */\n      gt\n      iszero\n        /* \"Bid.sol\":5382:5408  bal > 0 && bal <= balances */\n    tag_163:\n        /* \"Bid.sol\":5374:5431  require(bal > 0 && bal <= balances, \"Could not withdraw\") */\n      tag_164\n      jumpi\n      mload(0x40)\n      0x08c379a000000000000000000000000000000000000000000000000000000000\n      dup2\n      mstore\n      0x04\n      add\n      tag_165\n      swap1\n      tag_166\n      jump\t// in\n    tag_165:\n      mload(0x40)\n      dup1\n      swap2\n      sub\n      swap1\n      revert\n    tag_164:\n        /* \"Bid.sol\":5460:5461  0 */\n      0x00\n        /* \"Bid.sol\":5444:5448  _bid */\n      dup3\n        /* \"Bid.sol\":5444:5453  _bid.bids */\n      0x07\n      add\n        /* \"Bid.sol\":5444:5457  _bid.bids[to] */\n      0x00\n        /* \"Bid.sol\":5454:5456  to */\n      dup6\n        /* \"Bid.sol\":5444:5457  _bid.bids[to] */\n      0xffffffffffffffffffffffffffffffffffffffff\n      and\n      0xffffffffffffffffffffffffffffffffffffffff\n      and\n      dup2\n      mstore\n      0x20\n      add\n      swap1\n      dup2\n      mstore\n      0x20\n      add\n      0x00\n      keccak256\n        /* \"Bid.sol\":5444:5461  _bid.bids[to] = 0 */\n      dup2\n      swap1\n      sstore\n      pop\n        /* \"Bid.sol\":5482:5484  to */\n      dup3\n        /* \"Bid.sol\":5474:5494  payable(to).transfer */\n      0xffffffffffffffffffffffffffffffffffffffff\n      and\n        /* \"Bid.sol\":5474:5499  payable(to).transfer(bal) */\n      0x08fc\n        /* \"Bid.sol\":5495:5498  bal */\n      dup3\n        /* \"Bid.sol\":5474:5499  payable(to).transfer(bal) */\n      swap1\n      dup2\n      iszero\n      mul\n      swap1\n      mload(0x40)\n      0x00\n      mload(0x40)\n      dup1\n      dup4\n      sub\n      dup2\n      dup6\n      dup9\n      dup9\n      call\n      swap4\n      pop\n      pop\n      pop\n      pop\n      iszero\n      dup1\n      iszero\n      tag_168\n      jumpi\n      returndatasize\n      0x00\n      dup1\n      returndatacopy\n      revert(0x00, returndatasize)\n    tag_168:\n      pop\n        /* \"Bid.sol\":5522:5525  bal */\n      dup1\n        /* \"Bid.sol\":5510:5518  balances */\n      0x01\n      0x00\n        /* \"Bid.sol\":5510:5525  balances -= bal */\n      dup3\n      dup3\n      sload\n      tag_169\n      swap2\n      swap1\n      tag_81\n      jump\t// in\n    tag_169:\n      swap3\n      pop\n      pop\n      dup2\n      swap1\n      sstore\n      pop\n        /* \"Bid.sol\":5552:5554  to */\n      dup3\n        /* \"Bid.sol\":5543:5560  Withdraw(to, bal) */\n      0xffffffffffffffffffffffffffffffffffffffff\n      and\n      0x884edad9ce6fa2440d8a54cc123490eb96d2768479d49ff9c7366125a9424364\n        /* \"Bid.sol\":5556:5559  bal */\n      dup3\n        /* \"Bid.sol\":5543:5560  Withdraw(to, bal) */\n      mload(0x40)\n      tag_170\n      swap2\n      swap1\n      tag_24\n      jump\t// in\n    tag_170:\n      mload(0x40)\n      dup1\n      swap2\n      sub\n      swap1\n      log2\n        /* \"Bid.sol\":5262:5568  {\r... */\n      pop\n      pop\n        /* \"Bid.sol\":5178:5568  function autoWithdraw(address tokenAddr_, uint tokenId_, address to) public payable {\r... */\n      pop\n      pop\n      pop\n      jump\t// out\n        /* \"Bid.sol\":845:865  uint public balances */\n    tag_34:\n      sload(0x01)\n      dup2\n      jump\t// out\n        /* \"Bid.sol\":5779:5962  function getHighestBid(address tokenAddr, uint tokenId, uint bidCount) public view returns(uint highestBid) {\r... */\n    tag_40:\n        /* \"Bid.sol\":5870:5885  uint highestBid */\n      0x00\n        /* \"Bid.sol\":5905:5913  biddings */\n      dup1\n        /* \"Bid.sol\":5905:5924  biddings[tokenAddr] */\n      0x00\n        /* \"Bid.sol\":5914:5923  tokenAddr */\n      dup6\n        /* \"Bid.sol\":5905:5924  biddings[tokenAddr] */\n      0xffffffffffffffffffffffffffffffffffffffff\n      and\n      0xffffffffffffffffffffffffffffffffffffffff\n      and\n      dup2\n      mstore\n      0x20\n      add\n      swap1\n      dup2\n      mstore\n      0x20\n      add\n      0x00\n      keccak256\n        /* \"Bid.sol\":5905:5933  biddings[tokenAddr][tokenId] */\n      0x00\n        /* \"Bid.sol\":5925:5932  tokenId */\n      dup5\n        /* \"Bid.sol\":5905:5933  biddings[tokenAddr][tokenId] */\n      dup2\n      mstore\n      0x20\n      add\n      swap1\n      dup2\n      mstore\n      0x20\n      add\n      0x00\n      keccak256\n        /* \"Bid.sol\":5905:5944  biddings[tokenAddr][tokenId].highestBid */\n      0x05\n      add\n        /* \"Bid.sol\":5905:5954  biddings[tokenAddr][tokenId].highestBid[bidCount] */\n      0x00\n        /* \"Bid.sol\":5945:5953  bidCount */\n      dup4\n        /* \"Bid.sol\":5905:5954  biddings[tokenAddr][tokenId].highestBid[bidCount] */\n      dup2\n      mstore\n      0x20\n      add\n      swap1\n      dup2\n      mstore\n      0x20\n      add\n      0x00\n      keccak256\n      sload\n        /* \"Bid.sol\":5898:5954  return biddings[tokenAddr][tokenId].highestBid[bidCount] */\n      swap1\n      pop\n        /* \"Bid.sol\":5779:5962  function getHighestBid(address tokenAddr, uint tokenId, uint bidCount) public view returns(uint highestBid) {\r... */\n      swap4\n      swap3\n      pop\n      pop\n      pop\n      jump\t// out\n        /* \"Bid.sol\":1201:2020  function start(address _tokenAddr, uint _tokenId, uint startingBid, uint dayAmount) external {\r... */\n    tag_46:\n        /* \"Bid.sol\":1305:1325  Bidding storage _bid */\n      0x00\n        /* \"Bid.sol\":1328:1336  biddings */\n      dup1\n        /* \"Bid.sol\":1328:1348  biddings[_tokenAddr] */\n      0x00\n        /* \"Bid.sol\":1337:1347  _tokenAddr */\n      dup7\n        /* \"Bid.sol\":1328:1348  biddings[_tokenAddr] */\n      0xffffffffffffffffffffffffffffffffffffffff\n      and\n      0xffffffffffffffffffffffffffffffffffffffff\n      and\n      dup2\n      mstore\n      0x20\n      add\n      swap1\n      dup2\n      mstore\n      0x20\n      add\n      0x00\n      keccak256\n        /* \"Bid.sol\":1328:1358  biddings[_tokenAddr][_tokenId] */\n      0x00\n        /* \"Bid.sol\":1349:1357  _tokenId */\n      dup6\n        /* \"Bid.sol\":1328:1358  biddings[_tokenAddr][_tokenId] */\n      dup2\n      mstore\n      0x20\n      add\n      swap1\n      dup2\n      mstore\n      0x20\n      add\n      0x00\n      keccak256\n        /* \"Bid.sol\":1305:1358  Bidding storage _bid = biddings[_tokenAddr][_tokenId] */\n      swap1\n      pop\n        /* \"Bid.sol\":1393:1403  _tokenAddr */\n      dup5\n        /* \"Bid.sol\":1369:1373  _bid */\n      dup2\n        /* \"Bid.sol\":1369:1383  _bid.tokenAddr */\n      0x02\n      add\n      0x00\n        /* \"Bid.sol\":1369:1404  _bid.tokenAddr = ERC721(_tokenAddr) */\n      0x0100\n      exp\n      dup2\n      sload\n      dup2\n      0xffffffffffffffffffffffffffffffffffffffff\n      mul\n      not\n      and\n      swap1\n      dup4\n      0xffffffffffffffffffffffffffffffffffffffff\n      and\n      mul\n      or\n      swap1\n      sstore\n      pop\n        /* \"Bid.sol\":1429:1433  _bid */\n      dup1\n        /* \"Bid.sol\":1429:1443  _bid.tokenAddr */\n      0x02\n      add\n      0x00\n      swap1\n      sload\n      swap1\n      0x0100\n      exp\n      swap1\n      div\n      0xffffffffffffffffffffffffffffffffffffffff\n      and\n        /* \"Bid.sol\":1429:1451  _bid.tokenAddr.ownerOf */\n      0xffffffffffffffffffffffffffffffffffffffff\n      and\n      0x6352211e\n        /* \"Bid.sol\":1452:1460  _tokenId */\n      dup6\n        /* \"Bid.sol\":1429:1461  _bid.tokenAddr.ownerOf(_tokenId) */\n      mload(0x40)\n      dup3\n      0xffffffff\n      and\n      0xe0\n      shl\n      dup2\n      mstore\n      0x04\n      add\n      tag_173\n      swap2\n      swap1\n      tag_24\n      jump\t// in\n    tag_173:\n      0x20\n      mload(0x40)\n      dup1\n      dup4\n      sub\n      dup2\n      dup7\n      dup1\n      extcodesize\n      iszero\n      dup1\n      iszero\n      tag_174\n      jumpi\n      0x00\n      dup1\n      revert\n    tag_174:\n      pop\n      gas\n      staticcall\n      iszero\n      dup1\n      iszero\n      tag_176\n      jumpi\n      returndatasize\n      0x00\n      dup1\n      returndatacopy\n      revert(0x00, returndatasize)\n    tag_176:\n      pop\n      pop\n      pop\n      pop\n      mload(0x40)\n      returndatasize\n      not(0x1f)\n      0x1f\n      dup3\n      add\n      and\n      dup3\n      add\n      dup1\n      0x40\n      mstore\n      pop\n      dup2\n      add\n      swap1\n      tag_177\n      swap2\n      swap1\n      tag_96\n      jump\t// in\n    tag_177:\n        /* \"Bid.sol\":1415:1419  _bid */\n      dup2\n        /* \"Bid.sol\":1415:1426  _bid.seller */\n      0x00\n      add\n      0x00\n        /* \"Bid.sol\":1415:1461  _bid.seller = _bid.tokenAddr.ownerOf(_tokenId) */\n      0x0100\n      exp\n      dup2\n      sload\n      dup2\n      0xffffffffffffffffffffffffffffffffffffffff\n      mul\n      not\n      and\n      swap1\n      dup4\n      0xffffffffffffffffffffffffffffffffffffffff\n      and\n      mul\n      or\n      swap1\n      sstore\n      pop\n        /* \"Bid.sol\":1485:1490  false */\n      0x00\n        /* \"Bid.sol\":1472:1476  _bid */\n      dup2\n        /* \"Bid.sol\":1472:1482  _bid.ended */\n      0x00\n      add\n      0x15\n        /* \"Bid.sol\":1472:1490  _bid.ended = false */\n      0x0100\n      exp\n      dup2\n      sload\n      dup2\n      0xff\n      mul\n      not\n      and\n      swap1\n      dup4\n      iszero\n      iszero\n      mul\n      or\n      swap1\n      sstore\n      pop\n        /* \"Bid.sol\":1512:1516  _bid */\n      dup1\n        /* \"Bid.sol\":1512:1524  _bid.started */\n      0x00\n      add\n      0x14\n      swap1\n      sload\n      swap1\n      0x0100\n      exp\n      swap1\n      div\n      0xff\n      and\n        /* \"Bid.sol\":1511:1524  !_bid.started */\n      iszero\n        /* \"Bid.sol\":1503:1545  require(!_bid.started, \"Already started!\") */\n      tag_178\n      jumpi\n      mload(0x40)\n      0x08c379a000000000000000000000000000000000000000000000000000000000\n      dup2\n      mstore\n      0x04\n      add\n      tag_179\n      swap1\n      tag_180\n      jump\t// in\n    tag_179:\n      mload(0x40)\n      dup1\n      swap2\n      sub\n      swap1\n      revert\n    tag_178:\n        /* \"Bid.sol\":1578:1582  _bid */\n      dup1\n        /* \"Bid.sol\":1578:1589  _bid.seller */\n      0x00\n      add\n      0x00\n      swap1\n      sload\n      swap1\n      0x0100\n      exp\n      swap1\n      div\n      0xffffffffffffffffffffffffffffffffffffffff\n      and\n        /* \"Bid.sol\":1564:1589  msg.sender == _bid.seller */\n      0xffffffffffffffffffffffffffffffffffffffff\n      and\n        /* \"Bid.sol\":1564:1574  msg.sender */\n      caller\n        /* \"Bid.sol\":1564:1589  msg.sender == _bid.seller */\n      0xffffffffffffffffffffffffffffffffffffffff\n      and\n      eq\n        /* \"Bid.sol\":1556:1624  require(msg.sender == _bid.seller, \"You can not start the auction!\") */\n      tag_181\n      jumpi\n      mload(0x40)\n      0x08c379a000000000000000000000000000000000000000000000000000000000\n      dup2\n      mstore\n      0x04\n      add\n      tag_182\n      swap1\n      tag_183\n      jump\t// in\n    tag_182:\n      mload(0x40)\n      dup1\n      swap2\n      sub\n      swap1\n      revert\n    tag_181:\n        /* \"Bid.sol\":1661:1662  0 */\n      0x00\n        /* \"Bid.sol\":1645:1649  _bid */\n      dup2\n        /* \"Bid.sol\":1645:1658  _bid.bidCount */\n      0x04\n      add\n        /* \"Bid.sol\":1645:1662  _bid.bidCount = 0 */\n      dup2\n      swap1\n      sstore\n      pop\n        /* \"Bid.sol\":1706:1717  startingBid */\n      dup3\n        /* \"Bid.sol\":1673:1677  _bid */\n      dup2\n        /* \"Bid.sol\":1673:1688  _bid.highestBid */\n      0x05\n      add\n        /* \"Bid.sol\":1673:1703  _bid.highestBid[_bid.bidCount] */\n      0x00\n        /* \"Bid.sol\":1689:1693  _bid */\n      dup4\n        /* \"Bid.sol\":1689:1702  _bid.bidCount */\n      0x04\n      add\n      sload\n        /* \"Bid.sol\":1673:1703  _bid.highestBid[_bid.bidCount] */\n      dup2\n      mstore\n      0x20\n      add\n      swap1\n      dup2\n      mstore\n      0x20\n      add\n      0x00\n      keccak256\n        /* \"Bid.sol\":1673:1717  _bid.highestBid[_bid.bidCount] = startingBid */\n      dup2\n      swap1\n      sstore\n      pop\n        /* \"Bid.sol\":1753:1761  _tokenId */\n      dup4\n        /* \"Bid.sol\":1738:1742  _bid */\n      dup2\n        /* \"Bid.sol\":1738:1750  _bid.tokenId */\n      0x03\n      add\n        /* \"Bid.sol\":1738:1761  _bid.tokenId = _tokenId */\n      dup2\n      swap1\n      sstore\n      pop\n        /* \"Bid.sol\":1772:1776  _bid */\n      dup1\n        /* \"Bid.sol\":1772:1786  _bid.tokenAddr */\n      0x02\n      add\n      0x00\n      swap1\n      sload\n      swap1\n      0x0100\n      exp\n      swap1\n      div\n      0xffffffffffffffffffffffffffffffffffffffff\n      and\n        /* \"Bid.sol\":1772:1803  _bid.tokenAddr.safeTransferFrom */\n      0xffffffffffffffffffffffffffffffffffffffff\n      and\n      0xb88d4fde\n        /* \"Bid.sol\":1804:1814  msg.sender */\n      caller\n        /* \"Bid.sol\":1824:1828  this */\n      address\n        /* \"Bid.sol\":1831:1835  _bid */\n      dup5\n        /* \"Bid.sol\":1831:1843  _bid.tokenId */\n      0x03\n      add\n      sload\n        /* \"Bid.sol\":1772:1848  _bid.tokenAddr.safeTransferFrom(msg.sender, address(this), _bid.tokenId, \"\") */\n      mload(0x40)\n      dup5\n      0xffffffff\n      and\n      0xe0\n      shl\n      dup2\n      mstore\n      0x04\n      add\n      tag_184\n      swap4\n      swap3\n      swap2\n      swap1\n      tag_74\n      jump\t// in\n    tag_184:\n      0x00\n      mload(0x40)\n      dup1\n      dup4\n      sub\n      dup2\n      0x00\n      dup8\n      dup1\n      extcodesize\n      iszero\n      dup1\n      iszero\n      tag_185\n      jumpi\n      0x00\n      dup1\n      revert\n    tag_185:\n      pop\n      gas\n      call\n      iszero\n      dup1\n      iszero\n      tag_187\n      jumpi\n      returndatasize\n      0x00\n      dup1\n      returndatacopy\n      revert(0x00, returndatasize)\n    tag_187:\n      pop\n      pop\n      pop\n      pop\n        /* \"Bid.sol\":1876:1880  true */\n      0x01\n        /* \"Bid.sol\":1861:1865  _bid */\n      dup2\n        /* \"Bid.sol\":1861:1873  _bid.started */\n      0x00\n      add\n      0x14\n        /* \"Bid.sol\":1861:1880  _bid.started = true */\n      0x0100\n      exp\n      dup2\n      sload\n      dup2\n      0xff\n      mul\n      not\n      and\n      swap1\n      dup4\n      iszero\n      iszero\n      mul\n      or\n      swap1\n      sstore\n      pop\n        /* \"Bid.sol\":1935:1941  1 days */\n      0x015180\n        /* \"Bid.sol\":1923:1932  dayAmount */\n      dup3\n        /* \"Bid.sol\":1923:1941  dayAmount * 1 days */\n      tag_188\n      swap2\n      swap1\n      tag_189\n      jump\t// in\n    tag_188:\n        /* \"Bid.sol\":1904:1919  block.timestamp */\n      timestamp\n        /* \"Bid.sol\":1904:1942  block.timestamp + (dayAmount * 1 days) */\n      tag_190\n      swap2\n      swap1\n      tag_160\n      jump\t// in\n    tag_190:\n        /* \"Bid.sol\":1891:1895  _bid */\n      dup2\n        /* \"Bid.sol\":1891:1901  _bid.endAt */\n      0x01\n      add\n        /* \"Bid.sol\":1891:1942  _bid.endAt = block.timestamp + (dayAmount * 1 days) */\n      dup2\n      swap1\n      sstore\n      pop\n        /* \"Bid.sol\":1978:1986  _tokenId */\n      dup4\n        /* \"Bid.sol\":1966:1976  _tokenAddr */\n      dup6\n        /* \"Bid.sol\":1960:2012  Start(_tokenAddr, _tokenId, startingBid, _bid.endAt) */\n      0xffffffffffffffffffffffffffffffffffffffff\n      and\n      0x3b305515dbe345238649f5ce343c57ae67d5727443f8d744b2b793c3231e3ad9\n        /* \"Bid.sol\":1988:1999  startingBid */\n      dup6\n        /* \"Bid.sol\":2001:2005  _bid */\n      dup5\n        /* \"Bid.sol\":2001:2011  _bid.endAt */\n      0x01\n      add\n      sload\n        /* \"Bid.sol\":1960:2012  Start(_tokenAddr, _tokenId, startingBid, _bid.endAt) */\n      mload(0x40)\n      tag_191\n      swap3\n      swap2\n      swap1\n      tag_192\n      jump\t// in\n    tag_191:\n      mload(0x40)\n      dup1\n      swap2\n      sub\n      swap1\n      log3\n        /* \"Bid.sol\":1294:2020  {\r... */\n      pop\n        /* \"Bid.sol\":1201:2020  function start(address _tokenAddr, uint _tokenId, uint startingBid, uint dayAmount) external {\r... */\n      pop\n      pop\n      pop\n      pop\n      jump\t// out\n        /* \"Bid.sol\":5576:5771  function getHighestBidder(address tokenAddr, uint tokenId, uint bidCount) public view returns(address highestBidder) {\r... */\n    tag_50:\n        /* \"Bid.sol\":5670:5691  address highestBidder */\n      0x00\n        /* \"Bid.sol\":5711:5719  biddings */\n      dup1\n        /* \"Bid.sol\":5711:5730  biddings[tokenAddr] */\n      0x00\n        /* \"Bid.sol\":5720:5729  tokenAddr */\n      dup6\n        /* \"Bid.sol\":5711:5730  biddings[tokenAddr] */\n      0xffffffffffffffffffffffffffffffffffffffff\n      and\n      0xffffffffffffffffffffffffffffffffffffffff\n      and\n      dup2\n      mstore\n      0x20\n      add\n      swap1\n      dup2\n      mstore\n      0x20\n      add\n      0x00\n      keccak256\n        /* \"Bid.sol\":5711:5739  biddings[tokenAddr][tokenId] */\n      0x00\n        /* \"Bid.sol\":5731:5738  tokenId */\n      dup5\n        /* \"Bid.sol\":5711:5739  biddings[tokenAddr][tokenId] */\n      dup2\n      mstore\n      0x20\n      add\n      swap1\n      dup2\n      mstore\n      0x20\n      add\n      0x00\n      keccak256\n        /* \"Bid.sol\":5711:5753  biddings[tokenAddr][tokenId].highestBidder */\n      0x06\n      add\n        /* \"Bid.sol\":5711:5763  biddings[tokenAddr][tokenId].highestBidder[bidCount] */\n      0x00\n        /* \"Bid.sol\":5754:5762  bidCount */\n      dup4\n        /* \"Bid.sol\":5711:5763  biddings[tokenAddr][tokenId].highestBidder[bidCount] */\n      dup2\n      mstore\n      0x20\n      add\n      swap1\n      dup2\n      mstore\n      0x20\n      add\n      0x00\n      keccak256\n      0x00\n      swap1\n      sload\n      swap1\n      0x0100\n      exp\n      swap1\n      div\n      0xffffffffffffffffffffffffffffffffffffffff\n      and\n        /* \"Bid.sol\":5704:5763  return biddings[tokenAddr][tokenId].highestBidder[bidCount] */\n      swap1\n      pop\n        /* \"Bid.sol\":5576:5771  function getHighestBidder(address tokenAddr, uint tokenId, uint bidCount) public view returns(address highestBidder) {\r... */\n      swap4\n      swap3\n      pop\n      pop\n      pop\n      jump\t// out\n        /* \"Bid.sol\":2707:3233  function withdraw(address _tokenAddr, uint _tokenId) external payable {\r... */\n    tag_55:\n        /* \"Bid.sol\":2788:2808  Bidding storage _bid */\n      0x00\n        /* \"Bid.sol\":2811:2819  biddings */\n      dup1\n        /* \"Bid.sol\":2811:2831  biddings[_tokenAddr] */\n      0x00\n        /* \"Bid.sol\":2820:2830  _tokenAddr */\n      dup5\n        /* \"Bid.sol\":2811:2831  biddings[_tokenAddr] */\n      0xffffffffffffffffffffffffffffffffffffffff\n      and\n      0xffffffffffffffffffffffffffffffffffffffff\n      and\n      dup2\n      mstore\n      0x20\n      add\n      swap1\n      dup2\n      mstore\n      0x20\n      add\n      0x00\n      keccak256\n        /* \"Bid.sol\":2811:2841  biddings[_tokenAddr][_tokenId] */\n      0x00\n        /* \"Bid.sol\":2832:2840  _tokenId */\n      dup4\n        /* \"Bid.sol\":2811:2841  biddings[_tokenAddr][_tokenId] */\n      dup2\n      mstore\n      0x20\n      add\n      swap1\n      dup2\n      mstore\n      0x20\n      add\n      0x00\n      keccak256\n        /* \"Bid.sol\":2788:2841  Bidding storage _bid = biddings[_tokenAddr][_tokenId] */\n      swap1\n      pop\n        /* \"Bid.sol\":2852:2860  uint bal */\n      0x00\n        /* \"Bid.sol\":2863:2867  _bid */\n      dup2\n        /* \"Bid.sol\":2863:2872  _bid.bids */\n      0x07\n      add\n        /* \"Bid.sol\":2863:2884  _bid.bids[msg.sender] */\n      0x00\n        /* \"Bid.sol\":2873:2883  msg.sender */\n      caller\n        /* \"Bid.sol\":2863:2884  _bid.bids[msg.sender] */\n      0xffffffffffffffffffffffffffffffffffffffff\n      and\n      0xffffffffffffffffffffffffffffffffffffffff\n      and\n      dup2\n      mstore\n      0x20\n      add\n      swap1\n      dup2\n      mstore\n      0x20\n      add\n      0x00\n      keccak256\n      sload\n        /* \"Bid.sol\":2852:2884  uint bal = _bid.bids[msg.sender] */\n      swap1\n      pop\n        /* \"Bid.sol\":2912:2913  0 */\n      0x00\n        /* \"Bid.sol\":2905:2908  bal */\n      dup2\n        /* \"Bid.sol\":2905:2913  bal != 0 */\n      eq\n      iszero\n        /* \"Bid.sol\":2905:2932  bal != 0 && bal <= balances */\n      dup1\n      iszero\n      tag_195\n      jumpi\n      pop\n        /* \"Bid.sol\":2924:2932  balances */\n      sload(0x01)\n        /* \"Bid.sol\":2917:2920  bal */\n      dup2\n        /* \"Bid.sol\":2917:2932  bal <= balances */\n      gt\n      iszero\n        /* \"Bid.sol\":2905:2932  bal != 0 && bal <= balances */\n    tag_195:\n        /* \"Bid.sol\":2897:2955  require(bal != 0 && bal <= balances, \"Could not withdraw\") */\n      tag_196\n      jumpi\n      mload(0x40)\n      0x08c379a000000000000000000000000000000000000000000000000000000000\n      dup2\n      mstore\n      0x04\n      add\n      tag_197\n      swap1\n      tag_166\n      jump\t// in\n    tag_197:\n      mload(0x40)\n      dup1\n      swap2\n      sub\n      swap1\n      revert\n    tag_196:\n        /* \"Bid.sol\":2993:2997  _bid */\n      dup2\n        /* \"Bid.sol\":2993:3011  _bid.highestBidder */\n      0x06\n      add\n        /* \"Bid.sol\":2993:3026  _bid.highestBidder[_bid.bidCount] */\n      0x00\n        /* \"Bid.sol\":3012:3016  _bid */\n      dup4\n        /* \"Bid.sol\":3012:3025  _bid.bidCount */\n      0x04\n      add\n      sload\n        /* \"Bid.sol\":2993:3026  _bid.highestBidder[_bid.bidCount] */\n      dup2\n      mstore\n      0x20\n      add\n      swap1\n      dup2\n      mstore\n      0x20\n      add\n      0x00\n      keccak256\n      0x00\n      swap1\n      sload\n      swap1\n      0x0100\n      exp\n      swap1\n      div\n      0xffffffffffffffffffffffffffffffffffffffff\n      and\n        /* \"Bid.sol\":2979:3026  msg.sender == _bid.highestBidder[_bid.bidCount] */\n      0xffffffffffffffffffffffffffffffffffffffff\n      and\n        /* \"Bid.sol\":2979:2989  msg.sender */\n      caller\n        /* \"Bid.sol\":2979:3026  msg.sender == _bid.highestBidder[_bid.bidCount] */\n      0xffffffffffffffffffffffffffffffffffffffff\n      and\n      eq\n        /* \"Bid.sol\":2976:3073  if(msg.sender == _bid.highestBidder[_bid.bidCount]) {\r... */\n      iszero\n      tag_198\n      jumpi\n        /* \"Bid.sol\":3060:3061  1 */\n      0x01\n        /* \"Bid.sol\":3043:3047  _bid */\n      dup3\n        /* \"Bid.sol\":3043:3056  _bid.bidCount */\n      0x04\n      add\n      0x00\n        /* \"Bid.sol\":3043:3061  _bid.bidCount -= 1 */\n      dup3\n      dup3\n      sload\n      tag_199\n      swap2\n      swap1\n      tag_81\n      jump\t// in\n    tag_199:\n      swap3\n      pop\n      pop\n      dup2\n      swap1\n      sstore\n      pop\n        /* \"Bid.sol\":2976:3073  if(msg.sender == _bid.highestBidder[_bid.bidCount]) {\r... */\n    tag_198:\n        /* \"Bid.sol\":3109:3110  0 */\n      0x00\n        /* \"Bid.sol\":3085:3089  _bid */\n      dup3\n        /* \"Bid.sol\":3085:3094  _bid.bids */\n      0x07\n      add\n        /* \"Bid.sol\":3085:3106  _bid.bids[msg.sender] */\n      0x00\n        /* \"Bid.sol\":3095:3105  msg.sender */\n      caller\n        /* \"Bid.sol\":3085:3106  _bid.bids[msg.sender] */\n      0xffffffffffffffffffffffffffffffffffffffff\n      and\n      0xffffffffffffffffffffffffffffffffffffffff\n      and\n      dup2\n      mstore\n      0x20\n      add\n      swap1\n      dup2\n      mstore\n      0x20\n      add\n      0x00\n      keccak256\n        /* \"Bid.sol\":3085:3110  _bid.bids[msg.sender] = 0 */\n      dup2\n      swap1\n      sstore\n      pop\n        /* \"Bid.sol\":3131:3141  msg.sender */\n      caller\n        /* \"Bid.sol\":3123:3151  payable(msg.sender).transfer */\n      0xffffffffffffffffffffffffffffffffffffffff\n      and\n        /* \"Bid.sol\":3123:3156  payable(msg.sender).transfer(bal) */\n      0x08fc\n        /* \"Bid.sol\":3152:3155  bal */\n      dup3\n        /* \"Bid.sol\":3123:3156  payable(msg.sender).transfer(bal) */\n      swap1\n      dup2\n      iszero\n      mul\n      swap1\n      mload(0x40)\n      0x00\n      mload(0x40)\n      dup1\n      dup4\n      sub\n      dup2\n      dup6\n      dup9\n      dup9\n      call\n      swap4\n      pop\n      pop\n      pop\n      pop\n      iszero\n      dup1\n      iszero\n      tag_201\n      jumpi\n      returndatasize\n      0x00\n      dup1\n      returndatacopy\n      revert(0x00, returndatasize)\n    tag_201:\n      pop\n        /* \"Bid.sol\":3179:3182  bal */\n      dup1\n        /* \"Bid.sol\":3167:3175  balances */\n      0x01\n      0x00\n        /* \"Bid.sol\":3167:3182  balances -= bal */\n      dup3\n      dup3\n      sload\n      tag_202\n      swap2\n      swap1\n      tag_81\n      jump\t// in\n    tag_202:\n      swap3\n      pop\n      pop\n      dup2\n      swap1\n      sstore\n      pop\n        /* \"Bid.sol\":3209:3219  msg.sender */\n      caller\n        /* \"Bid.sol\":3200:3225  Withdraw(msg.sender, bal) */\n      0xffffffffffffffffffffffffffffffffffffffff\n      and\n      0x884edad9ce6fa2440d8a54cc123490eb96d2768479d49ff9c7366125a9424364\n        /* \"Bid.sol\":3221:3224  bal */\n      dup3\n        /* \"Bid.sol\":3200:3225  Withdraw(msg.sender, bal) */\n      mload(0x40)\n      tag_203\n      swap2\n      swap1\n      tag_24\n      jump\t// in\n    tag_203:\n      mload(0x40)\n      dup1\n      swap2\n      sub\n      swap1\n      log2\n        /* \"Bid.sol\":2777:3233  {\r... */\n      pop\n      pop\n        /* \"Bid.sol\":2707:3233  function withdraw(address _tokenAddr, uint _tokenId) external payable {\r... */\n      pop\n      pop\n      jump\t// out\n        /* \"Bid.sol\":777:836  mapping(address =>mapping(uint => Bidding)) public biddings */\n    tag_59:\n      mstore(0x20, 0x00)\n      dup2\n      0x00\n      mstore\n      mstore(0x20, keccak256(0x00, 0x40))\n      dup1\n      0x00\n      mstore\n      keccak256(0x00, 0x40)\n      0x00\n      swap2\n      pop\n      swap2\n      pop\n      pop\n      dup1\n      0x00\n      add\n      0x00\n      swap1\n      sload\n      swap1\n      0x0100\n      exp\n      swap1\n      div\n      0xffffffffffffffffffffffffffffffffffffffff\n      and\n      swap1\n      dup1\n      0x00\n      add\n      0x14\n      swap1\n      sload\n      swap1\n      0x0100\n      exp\n      swap1\n      div\n      0xff\n      and\n      swap1\n      dup1\n      0x00\n      add\n      0x15\n      swap1\n      sload\n      swap1\n      0x0100\n      exp\n      swap1\n      div\n      0xff\n      and\n      swap1\n      dup1\n      0x01\n      add\n      sload\n      swap1\n      dup1\n      0x02\n      add\n      0x00\n      swap1\n      sload\n      swap1\n      0x0100\n      exp\n      swap1\n      div\n      0xffffffffffffffffffffffffffffffffffffffff\n      and\n      swap1\n      dup1\n      0x03\n      add\n      sload\n      swap1\n      dup1\n      0x04\n      add\n      sload\n      swap1\n      pop\n      dup8\n      jump\t// out\n        /* \"#utility.yul\":7:146   */\n    tag_205:\n        /* \"#utility.yul\":53:58   */\n      0x00\n        /* \"#utility.yul\":91:97   */\n      dup2\n        /* \"#utility.yul\":78:98   */\n      calldataload\n        /* \"#utility.yul\":69:98   */\n      swap1\n      pop\n        /* \"#utility.yul\":107:140   */\n      tag_207\n        /* \"#utility.yul\":134:139   */\n      dup2\n        /* \"#utility.yul\":107:140   */\n      tag_208\n      jump\t// in\n    tag_207:\n        /* \"#utility.yul\":7:146   */\n      swap3\n      swap2\n      pop\n      pop\n      jump\t// out\n        /* \"#utility.yul\":152:295   */\n    tag_209:\n        /* \"#utility.yul\":209:214   */\n      0x00\n        /* \"#utility.yul\":240:246   */\n      dup2\n        /* \"#utility.yul\":234:247   */\n      mload\n        /* \"#utility.yul\":225:247   */\n      swap1\n      pop\n        /* \"#utility.yul\":256:289   */\n      tag_211\n        /* \"#utility.yul\":283:288   */\n      dup2\n        /* \"#utility.yul\":256:289   */\n      tag_208\n      jump\t// in\n    tag_211:\n        /* \"#utility.yul\":152:295   */\n      swap3\n      swap2\n      pop\n      pop\n      jump\t// out\n        /* \"#utility.yul\":301:440   */\n    tag_212:\n        /* \"#utility.yul\":347:352   */\n      0x00\n        /* \"#utility.yul\":385:391   */\n      dup2\n        /* \"#utility.yul\":372:392   */\n      calldataload\n        /* \"#utility.yul\":363:392   */\n      swap1\n      pop\n        /* \"#utility.yul\":401:434   */\n      tag_214\n        /* \"#utility.yul\":428:433   */\n      dup2\n        /* \"#utility.yul\":401:434   */\n      tag_215\n      jump\t// in\n    tag_214:\n        /* \"#utility.yul\":301:440   */\n      swap3\n      swap2\n      pop\n      pop\n      jump\t// out\n        /* \"#utility.yul\":446:589   */\n    tag_216:\n        /* \"#utility.yul\":503:508   */\n      0x00\n        /* \"#utility.yul\":534:540   */\n      dup2\n        /* \"#utility.yul\":528:541   */\n      mload\n        /* \"#utility.yul\":519:541   */\n      swap1\n      pop\n        /* \"#utility.yul\":550:583   */\n      tag_218\n        /* \"#utility.yul\":577:582   */\n      dup2\n        /* \"#utility.yul\":550:583   */\n      tag_215\n      jump\t// in\n    tag_218:\n        /* \"#utility.yul\":446:589   */\n      swap3\n      swap2\n      pop\n      pop\n      jump\t// out\n        /* \"#utility.yul\":595:946   */\n    tag_96:\n        /* \"#utility.yul\":665:671   */\n      0x00\n        /* \"#utility.yul\":714:716   */\n      0x20\n        /* \"#utility.yul\":702:711   */\n      dup3\n        /* \"#utility.yul\":693:700   */\n      dup5\n        /* \"#utility.yul\":689:712   */\n      sub\n        /* \"#utility.yul\":685:717   */\n      slt\n        /* \"#utility.yul\":682:801   */\n      iszero\n      tag_220\n      jumpi\n        /* \"#utility.yul\":720:799   */\n      tag_221\n      tag_222\n      jump\t// in\n    tag_221:\n        /* \"#utility.yul\":682:801   */\n    tag_220:\n        /* \"#utility.yul\":840:841   */\n      0x00\n        /* \"#utility.yul\":865:929   */\n      tag_223\n        /* \"#utility.yul\":921:928   */\n      dup5\n        /* \"#utility.yul\":912:918   */\n      dup3\n        /* \"#utility.yul\":901:910   */\n      dup6\n        /* \"#utility.yul\":897:919   */\n      add\n        /* \"#utility.yul\":865:929   */\n      tag_209\n      jump\t// in\n    tag_223:\n        /* \"#utility.yul\":855:929   */\n      swap2\n      pop\n        /* \"#utility.yul\":811:939   */\n      pop\n        /* \"#utility.yul\":595:946   */\n      swap3\n      swap2\n      pop\n      pop\n      jump\t// out\n        /* \"#utility.yul\":952:1571   */\n    tag_16:\n        /* \"#utility.yul\":1029:1035   */\n      0x00\n        /* \"#utility.yul\":1037:1043   */\n      dup1\n        /* \"#utility.yul\":1045:1051   */\n      0x00\n        /* \"#utility.yul\":1094:1096   */\n      0x60\n        /* \"#utility.yul\":1082:1091   */\n      dup5\n        /* \"#utility.yul\":1073:1080   */\n      dup7\n        /* \"#utility.yul\":1069:1092   */\n      sub\n        /* \"#utility.yul\":1065:1097   */\n      slt\n        /* \"#utility.yul\":1062:1181   */\n      iszero\n      tag_225\n      jumpi\n        /* \"#utility.yul\":1100:1179   */\n      tag_226\n      tag_222\n      jump\t// in\n    tag_226:\n        /* \"#utility.yul\":1062:1181   */\n    tag_225:\n        /* \"#utility.yul\":1220:1221   */\n      0x00\n        /* \"#utility.yul\":1245:1298   */\n      tag_227\n        /* \"#utility.yul\":1290:1297   */\n      dup7\n        /* \"#utility.yul\":1281:1287   */\n      dup3\n        /* \"#utility.yul\":1270:1279   */\n      dup8\n        /* \"#utility.yul\":1266:1288   */\n      add\n        /* \"#utility.yul\":1245:1298   */\n      tag_205\n      jump\t// in\n    tag_227:\n        /* \"#utility.yul\":1235:1298   */\n      swap4\n      pop\n        /* \"#utility.yul\":1191:1308   */\n      pop\n        /* \"#utility.yul\":1347:1349   */\n      0x20\n        /* \"#utility.yul\":1373:1426   */\n      tag_228\n        /* \"#utility.yul\":1418:1425   */\n      dup7\n        /* \"#utility.yul\":1409:1415   */\n      dup3\n        /* \"#utility.yul\":1398:1407   */\n      dup8\n        /* \"#utility.yul\":1394:1416   */\n      add\n        /* \"#utility.yul\":1373:1426   */\n      tag_205\n      jump\t// in\n    tag_228:\n        /* \"#utility.yul\":1363:1426   */\n      swap3\n      pop\n        /* \"#utility.yul\":1318:1436   */\n      pop\n        /* \"#utility.yul\":1475:1477   */\n      0x40\n        /* \"#utility.yul\":1501:1554   */\n      tag_229\n        /* \"#utility.yul\":1546:1553   */\n      dup7\n        /* \"#utility.yul\":1537:1543   */\n      dup3\n        /* \"#utility.yul\":1526:1535   */\n      dup8\n        /* \"#utility.yul\":1522:1544   */\n      add\n        /* \"#utility.yul\":1501:1554   */\n      tag_212\n      jump\t// in\n    tag_229:\n        /* \"#utility.yul\":1491:1554   */\n      swap2\n      pop\n        /* \"#utility.yul\":1446:1564   */\n      pop\n        /* \"#utility.yul\":952:1571   */\n      swap3\n      pop\n      swap3\n      pop\n      swap3\n      jump\t// out\n        /* \"#utility.yul\":1577:2051   */\n    tag_27:\n        /* \"#utility.yul\":1645:1651   */\n      0x00\n        /* \"#utility.yul\":1653:1659   */\n      dup1\n        /* \"#utility.yul\":1702:1704   */\n      0x40\n        /* \"#utility.yul\":1690:1699   */\n      dup4\n        /* \"#utility.yul\":1681:1688   */\n      dup6\n        /* \"#utility.yul\":1677:1700   */\n      sub\n        /* \"#utility.yul\":1673:1705   */\n      slt\n        /* \"#utility.yul\":1670:1789   */\n      iszero\n      tag_231\n      jumpi\n        /* \"#utility.yul\":1708:1787   */\n      tag_232\n      tag_222\n      jump\t// in\n    tag_232:\n        /* \"#utility.yul\":1670:1789   */\n    tag_231:\n        /* \"#utility.yul\":1828:1829   */\n      0x00\n        /* \"#utility.yul\":1853:1906   */\n      tag_233\n        /* \"#utility.yul\":1898:1905   */\n      dup6\n        /* \"#utility.yul\":1889:1895   */\n      dup3\n        /* \"#utility.yul\":1878:1887   */\n      dup7\n        /* \"#utility.yul\":1874:1896   */\n      add\n        /* \"#utility.yul\":1853:1906   */\n      tag_205\n      jump\t// in\n    tag_233:\n        /* \"#utility.yul\":1843:1906   */\n      swap3\n      pop\n        /* \"#utility.yul\":1799:1916   */\n      pop\n        /* \"#utility.yul\":1955:1957   */\n      0x20\n        /* \"#utility.yul\":1981:2034   */\n      tag_234\n        /* \"#utility.yul\":2026:2033   */\n      dup6\n        /* \"#utility.yul\":2017:2023   */\n      dup3\n        /* \"#utility.yul\":2006:2015   */\n      dup7\n        /* \"#utility.yul\":2002:2024   */\n      add\n        /* \"#utility.yul\":1981:2034   */\n      tag_212\n      jump\t// in\n    tag_234:\n        /* \"#utility.yul\":1971:2034   */\n      swap2\n      pop\n        /* \"#utility.yul\":1926:2044   */\n      pop\n        /* \"#utility.yul\":1577:2051   */\n      swap3\n      pop\n      swap3\n      swap1\n      pop\n      jump\t// out\n        /* \"#utility.yul\":2057:2676   */\n    tag_21:\n        /* \"#utility.yul\":2134:2140   */\n      0x00\n        /* \"#utility.yul\":2142:2148   */\n      dup1\n        /* \"#utility.yul\":2150:2156   */\n      0x00\n        /* \"#utility.yul\":2199:2201   */\n      0x60\n        /* \"#utility.yul\":2187:2196   */\n      dup5\n        /* \"#utility.yul\":2178:2185   */\n      dup7\n        /* \"#utility.yul\":2174:2197   */\n      sub\n        /* \"#utility.yul\":2170:2202   */\n      slt\n        /* \"#utility.yul\":2167:2286   */\n      iszero\n      tag_236\n      jumpi\n        /* \"#utility.yul\":2205:2284   */\n      tag_237\n      tag_222\n      jump\t// in\n    tag_237:\n        /* \"#utility.yul\":2167:2286   */\n    tag_236:\n        /* \"#utility.yul\":2325:2326   */\n      0x00\n        /* \"#utility.yul\":2350:2403   */\n      tag_238\n        /* \"#utility.yul\":2395:2402   */\n      dup7\n        /* \"#utility.yul\":2386:2392   */\n      dup3\n        /* \"#utility.yul\":2375:2384   */\n      dup8\n        /* \"#utility.yul\":2371:2393   */\n      add\n        /* \"#utility.yul\":2350:2403   */\n      tag_205\n      jump\t// in\n    tag_238:\n        /* \"#utility.yul\":2340:2403   */\n      swap4\n      pop\n        /* \"#utility.yul\":2296:2413   */\n      pop\n        /* \"#utility.yul\":2452:2454   */\n      0x20\n        /* \"#utility.yul\":2478:2531   */\n      tag_239\n        /* \"#utility.yul\":2523:2530   */\n      dup7\n        /* \"#utility.yul\":2514:2520   */\n      dup3\n        /* \"#utility.yul\":2503:2512   */\n      dup8\n        /* \"#utility.yul\":2499:2521   */\n      add\n        /* \"#utility.yul\":2478:2531   */\n      tag_212\n      jump\t// in\n    tag_239:\n        /* \"#utility.yul\":2468:2531   */\n      swap3\n      pop\n        /* \"#utility.yul\":2423:2541   */\n      pop\n        /* \"#utility.yul\":2580:2582   */\n      0x40\n        /* \"#utility.yul\":2606:2659   */\n      tag_240\n        /* \"#utility.yul\":2651:2658   */\n      dup7\n        /* \"#utility.yul\":2642:2648   */\n      dup3\n        /* \"#utility.yul\":2631:2640   */\n      dup8\n        /* \"#utility.yul\":2627:2649   */\n      add\n        /* \"#utility.yul\":2606:2659   */\n      tag_205\n      jump\t// in\n    tag_240:\n        /* \"#utility.yul\":2596:2659   */\n      swap2\n      pop\n        /* \"#utility.yul\":2551:2669   */\n      pop\n        /* \"#utility.yul\":2057:2676   */\n      swap3\n      pop\n      swap3\n      pop\n      swap3\n      jump\t// out\n        /* \"#utility.yul\":2682:3301   */\n    tag_39:\n        /* \"#utility.yul\":2759:2765   */\n      0x00\n        /* \"#utility.yul\":2767:2773   */\n      dup1\n        /* \"#utility.yul\":2775:2781   */\n      0x00\n        /* \"#utility.yul\":2824:2826   */\n      0x60\n        /* \"#utility.yul\":2812:2821   */\n      dup5\n        /* \"#utility.yul\":2803:2810   */\n      dup7\n        /* \"#utility.yul\":2799:2822   */\n      sub\n        /* \"#utility.yul\":2795:2827   */\n      slt\n        /* \"#utility.yul\":2792:2911   */\n      iszero\n      tag_242\n      jumpi\n        /* \"#utility.yul\":2830:2909   */\n      tag_243\n      tag_222\n      jump\t// in\n    tag_243:\n        /* \"#utility.yul\":2792:2911   */\n    tag_242:\n        /* \"#utility.yul\":2950:2951   */\n      0x00\n        /* \"#utility.yul\":2975:3028   */\n      tag_244\n        /* \"#utility.yul\":3020:3027   */\n      dup7\n        /* \"#utility.yul\":3011:3017   */\n      dup3\n        /* \"#utility.yul\":3000:3009   */\n      dup8\n        /* \"#utility.yul\":2996:3018   */\n      add\n        /* \"#utility.yul\":2975:3028   */\n      tag_205\n      jump\t// in\n    tag_244:\n        /* \"#utility.yul\":2965:3028   */\n      swap4\n      pop\n        /* \"#utility.yul\":2921:3038   */\n      pop\n        /* \"#utility.yul\":3077:3079   */\n      0x20\n        /* \"#utility.yul\":3103:3156   */\n      tag_245\n        /* \"#utility.yul\":3148:3155   */\n      dup7\n        /* \"#utility.yul\":3139:3145   */\n      dup3\n        /* \"#utility.yul\":3128:3137   */\n      dup8\n        /* \"#utility.yul\":3124:3146   */\n      add\n        /* \"#utility.yul\":3103:3156   */\n      tag_212\n      jump\t// in\n    tag_245:\n        /* \"#utility.yul\":3093:3156   */\n      swap3\n      pop\n        /* \"#utility.yul\":3048:3166   */\n      pop\n        /* \"#utility.yul\":3205:3207   */\n      0x40\n        /* \"#utility.yul\":3231:3284   */\n      tag_246\n        /* \"#utility.yul\":3276:3283   */\n      dup7\n        /* \"#utility.yul\":3267:3273   */\n      dup3\n        /* \"#utility.yul\":3256:3265   */\n      dup8\n        /* \"#utility.yul\":3252:3274   */\n      add\n        /* \"#utility.yul\":3231:3284   */\n      tag_212\n      jump\t// in\n    tag_246:\n        /* \"#utility.yul\":3221:3284   */\n      swap2\n      pop\n        /* \"#utility.yul\":3176:3294   */\n      pop\n        /* \"#utility.yul\":2682:3301   */\n      swap3\n      pop\n      swap3\n      pop\n      swap3\n      jump\t// out\n        /* \"#utility.yul\":3307:4072   */\n    tag_45:\n        /* \"#utility.yul\":3393:3399   */\n      0x00\n        /* \"#utility.yul\":3401:3407   */\n      dup1\n        /* \"#utility.yul\":3409:3415   */\n      0x00\n        /* \"#utility.yul\":3417:3423   */\n      dup1\n        /* \"#utility.yul\":3466:3469   */\n      0x80\n        /* \"#utility.yul\":3454:3463   */\n      dup6\n        /* \"#utility.yul\":3445:3452   */\n      dup8\n        /* \"#utility.yul\":3441:3464   */\n      sub\n        /* \"#utility.yul\":3437:3470   */\n      slt\n        /* \"#utility.yul\":3434:3554   */\n      iszero\n      tag_248\n      jumpi\n        /* \"#utility.yul\":3473:3552   */\n      tag_249\n      tag_222\n      jump\t// in\n    tag_249:\n        /* \"#utility.yul\":3434:3554   */\n    tag_248:\n        /* \"#utility.yul\":3593:3594   */\n      0x00\n        /* \"#utility.yul\":3618:3671   */\n      tag_250\n        /* \"#utility.yul\":3663:3670   */\n      dup8\n        /* \"#utility.yul\":3654:3660   */\n      dup3\n        /* \"#utility.yul\":3643:3652   */\n      dup9\n        /* \"#utility.yul\":3639:3661   */\n      add\n        /* \"#utility.yul\":3618:3671   */\n      tag_205\n      jump\t// in\n    tag_250:\n        /* \"#utility.yul\":3608:3671   */\n      swap5\n      pop\n        /* \"#utility.yul\":3564:3681   */\n      pop\n        /* \"#utility.yul\":3720:3722   */\n      0x20\n        /* \"#utility.yul\":3746:3799   */\n      tag_251\n        /* \"#utility.yul\":3791:3798   */\n      dup8\n        /* \"#utility.yul\":3782:3788   */\n      dup3\n        /* \"#utility.yul\":3771:3780   */\n      dup9\n        /* \"#utility.yul\":3767:3789   */\n      add\n        /* \"#utility.yul\":3746:3799   */\n      tag_212\n      jump\t// in\n    tag_251:\n        /* \"#utility.yul\":3736:3799   */\n      swap4\n      pop\n        /* \"#utility.yul\":3691:3809   */\n      pop\n        /* \"#utility.yul\":3848:3850   */\n      0x40\n        /* \"#utility.yul\":3874:3927   */\n      tag_252\n        /* \"#utility.yul\":3919:3926   */\n      dup8\n        /* \"#utility.yul\":3910:3916   */\n      dup3\n        /* \"#utility.yul\":3899:3908   */\n      dup9\n        /* \"#utility.yul\":3895:3917   */\n      add\n        /* \"#utility.yul\":3874:3927   */\n      tag_212\n      jump\t// in\n    tag_252:\n        /* \"#utility.yul\":3864:3927   */\n      swap3\n      pop\n        /* \"#utility.yul\":3819:3937   */\n      pop\n        /* \"#utility.yul\":3976:3978   */\n      0x60\n        /* \"#utility.yul\":4002:4055   */\n      tag_253\n        /* \"#utility.yul\":4047:4054   */\n      dup8\n        /* \"#utility.yul\":4038:4044   */\n      dup3\n        /* \"#utility.yul\":4027:4036   */\n      dup9\n        /* \"#utility.yul\":4023:4045   */\n      add\n        /* \"#utility.yul\":4002:4055   */\n      tag_212\n      jump\t// in\n    tag_253:\n        /* \"#utility.yul\":3992:4055   */\n      swap2\n      pop\n        /* \"#utility.yul\":3947:4065   */\n      pop\n        /* \"#utility.yul\":3307:4072   */\n      swap3\n      swap6\n      swap2\n      swap5\n      pop\n      swap3\n      pop\n      jump\t// out\n        /* \"#utility.yul\":4078:4429   */\n    tag_90:\n        /* \"#utility.yul\":4148:4154   */\n      0x00\n        /* \"#utility.yul\":4197:4199   */\n      0x20\n        /* \"#utility.yul\":4185:4194   */\n      dup3\n        /* \"#utility.yul\":4176:4183   */\n      dup5\n        /* \"#utility.yul\":4172:4195   */\n      sub\n        /* \"#utility.yul\":4168:4200   */\n      slt\n        /* \"#utility.yul\":4165:4284   */\n      iszero\n      tag_255\n      jumpi\n        /* \"#utility.yul\":4203:4282   */\n      tag_256\n      tag_222\n      jump\t// in\n    tag_256:\n        /* \"#utility.yul\":4165:4284   */\n    tag_255:\n        /* \"#utility.yul\":4323:4324   */\n      0x00\n        /* \"#utility.yul\":4348:4412   */\n      tag_257\n        /* \"#utility.yul\":4404:4411   */\n      dup5\n        /* \"#utility.yul\":4395:4401   */\n      dup3\n        /* \"#utility.yul\":4384:4393   */\n      dup6\n        /* \"#utility.yul\":4380:4402   */\n      add\n        /* \"#utility.yul\":4348:4412   */\n      tag_216\n      jump\t// in\n    tag_257:\n        /* \"#utility.yul\":4338:4412   */\n      swap2\n      pop\n        /* \"#utility.yul\":4294:4422   */\n      pop\n        /* \"#utility.yul\":4078:4429   */\n      swap3\n      swap2\n      pop\n      pop\n      jump\t// out\n        /* \"#utility.yul\":4435:4553   */\n    tag_258:\n        /* \"#utility.yul\":4522:4546   */\n      tag_260\n        /* \"#utility.yul\":4540:4545   */\n      dup2\n        /* \"#utility.yul\":4522:4546   */\n      tag_261\n      jump\t// in\n    tag_260:\n        /* \"#utility.yul\":4517:4520   */\n      dup3\n        /* \"#utility.yul\":4510:4547   */\n      mstore\n        /* \"#utility.yul\":4435:4553   */\n      pop\n      pop\n      jump\t// out\n        /* \"#utility.yul\":4559:4668   */\n    tag_262:\n        /* \"#utility.yul\":4640:4661   */\n      tag_264\n        /* \"#utility.yul\":4655:4660   */\n      dup2\n        /* \"#utility.yul\":4640:4661   */\n      tag_265\n      jump\t// in\n    tag_264:\n        /* \"#utility.yul\":4635:4638   */\n      dup3\n        /* \"#utility.yul\":4628:4662   */\n      mstore\n        /* \"#utility.yul\":4559:4668   */\n      pop\n      pop\n      jump\t// out\n        /* \"#utility.yul\":4674:4831   */\n    tag_266:\n        /* \"#utility.yul\":4774:4824   */\n      tag_268\n        /* \"#utility.yul\":4818:4823   */\n      dup2\n        /* \"#utility.yul\":4774:4824   */\n      tag_269\n      jump\t// in\n    tag_268:\n        /* \"#utility.yul\":4769:4772   */\n      dup3\n        /* \"#utility.yul\":4762:4825   */\n      mstore\n        /* \"#utility.yul\":4674:4831   */\n      pop\n      pop\n      jump\t// out\n        /* \"#utility.yul\":4837:5203   */\n    tag_270:\n        /* \"#utility.yul\":4979:4982   */\n      0x00\n        /* \"#utility.yul\":5000:5067   */\n      tag_272\n        /* \"#utility.yul\":5064:5066   */\n      0x0a\n        /* \"#utility.yul\":5059:5062   */\n      dup4\n        /* \"#utility.yul\":5000:5067   */\n      tag_273\n      jump\t// in\n    tag_272:\n        /* \"#utility.yul\":4993:5067   */\n      swap2\n      pop\n        /* \"#utility.yul\":5076:5169   */\n      tag_274\n        /* \"#utility.yul\":5165:5168   */\n      dup3\n        /* \"#utility.yul\":5076:5169   */\n      tag_275\n      jump\t// in\n    tag_274:\n        /* \"#utility.yul\":5194:5196   */\n      0x20\n        /* \"#utility.yul\":5189:5192   */\n      dup3\n        /* \"#utility.yul\":5185:5197   */\n      add\n        /* \"#utility.yul\":5178:5197   */\n      swap1\n      pop\n        /* \"#utility.yul\":4837:5203   */\n      swap2\n      swap1\n      pop\n      jump\t// out\n        /* \"#utility.yul\":5209:5575   */\n    tag_276:\n        /* \"#utility.yul\":5351:5354   */\n      0x00\n        /* \"#utility.yul\":5372:5439   */\n      tag_278\n        /* \"#utility.yul\":5436:5438   */\n      0x19\n        /* \"#utility.yul\":5431:5434   */\n      dup4\n        /* \"#utility.yul\":5372:5439   */\n      tag_273\n      jump\t// in\n    tag_278:\n        /* \"#utility.yul\":5365:5439   */\n      swap2\n      pop\n        /* \"#utility.yul\":5448:5541   */\n      tag_279\n        /* \"#utility.yul\":5537:5540   */\n      dup3\n        /* \"#utility.yul\":5448:5541   */\n      tag_280\n      jump\t// in\n    tag_279:\n        /* \"#utility.yul\":5566:5568   */\n      0x20\n        /* \"#utility.yul\":5561:5564   */\n      dup3\n        /* \"#utility.yul\":5557:5569   */\n      add\n        /* \"#utility.yul\":5550:5569   */\n      swap1\n      pop\n        /* \"#utility.yul\":5209:5575   */\n      swap2\n      swap1\n      pop\n      jump\t// out\n        /* \"#utility.yul\":5581:5947   */\n    tag_281:\n        /* \"#utility.yul\":5723:5726   */\n      0x00\n        /* \"#utility.yul\":5744:5811   */\n      tag_283\n        /* \"#utility.yul\":5808:5810   */\n      0x10\n        /* \"#utility.yul\":5803:5806   */\n      dup4\n        /* \"#utility.yul\":5744:5811   */\n      tag_273\n      jump\t// in\n    tag_283:\n        /* \"#utility.yul\":5737:5811   */\n      swap2\n      pop\n        /* \"#utility.yul\":5820:5913   */\n      tag_284\n        /* \"#utility.yul\":5909:5912   */\n      dup3\n        /* \"#utility.yul\":5820:5913   */\n      tag_285\n      jump\t// in\n    tag_284:\n        /* \"#utility.yul\":5938:5940   */\n      0x20\n        /* \"#utility.yul\":5933:5936   */\n      dup3\n        /* \"#utility.yul\":5929:5941   */\n      add\n        /* \"#utility.yul\":5922:5941   */\n      swap1\n      pop\n        /* \"#utility.yul\":5581:5947   */\n      swap2\n      swap1\n      pop\n      jump\t// out\n        /* \"#utility.yul\":5953:6318   */\n    tag_286:\n        /* \"#utility.yul\":6095:6098   */\n      0x00\n        /* \"#utility.yul\":6116:6182   */\n      tag_288\n        /* \"#utility.yul\":6180:6181   */\n      0x06\n        /* \"#utility.yul\":6175:6178   */\n      dup4\n        /* \"#utility.yul\":6116:6182   */\n      tag_273\n      jump\t// in\n    tag_288:\n        /* \"#utility.yul\":6109:6182   */\n      swap2\n      pop\n        /* \"#utility.yul\":6191:6284   */\n      tag_289\n        /* \"#utility.yul\":6280:6283   */\n      dup3\n        /* \"#utility.yul\":6191:6284   */\n      tag_290\n      jump\t// in\n    tag_289:\n        /* \"#utility.yul\":6309:6311   */\n      0x20\n        /* \"#utility.yul\":6304:6307   */\n      dup3\n        /* \"#utility.yul\":6300:6312   */\n      add\n        /* \"#utility.yul\":6293:6312   */\n      swap1\n      pop\n        /* \"#utility.yul\":5953:6318   */\n      swap2\n      swap1\n      pop\n      jump\t// out\n        /* \"#utility.yul\":6324:6690   */\n    tag_291:\n        /* \"#utility.yul\":6466:6469   */\n      0x00\n        /* \"#utility.yul\":6487:6554   */\n      tag_293\n        /* \"#utility.yul\":6551:6553   */\n      0x18\n        /* \"#utility.yul\":6546:6549   */\n      dup4\n        /* \"#utility.yul\":6487:6554   */\n      tag_273\n      jump\t// in\n    tag_293:\n        /* \"#utility.yul\":6480:6554   */\n      swap2\n      pop\n        /* \"#utility.yul\":6563:6656   */\n      tag_294\n        /* \"#utility.yul\":6652:6655   */\n      dup3\n        /* \"#utility.yul\":6563:6656   */\n      tag_295\n      jump\t// in\n    tag_294:\n        /* \"#utility.yul\":6681:6683   */\n      0x20\n        /* \"#utility.yul\":6676:6679   */\n      dup3\n        /* \"#utility.yul\":6672:6684   */\n      add\n        /* \"#utility.yul\":6665:6684   */\n      swap1\n      pop\n        /* \"#utility.yul\":6324:6690   */\n      swap2\n      swap1\n      pop\n      jump\t// out\n        /* \"#utility.yul\":6696:7062   */\n    tag_296:\n        /* \"#utility.yul\":6838:6841   */\n      0x00\n        /* \"#utility.yul\":6859:6926   */\n      tag_298\n        /* \"#utility.yul\":6923:6925   */\n      0x1e\n        /* \"#utility.yul\":6918:6921   */\n      dup4\n        /* \"#utility.yul\":6859:6926   */\n      tag_273\n      jump\t// in\n    tag_298:\n        /* \"#utility.yul\":6852:6926   */\n      swap2\n      pop\n        /* \"#utility.yul\":6935:7028   */\n      tag_299\n        /* \"#utility.yul\":7024:7027   */\n      dup3\n        /* \"#utility.yul\":6935:7028   */\n      tag_300\n      jump\t// in\n    tag_299:\n        /* \"#utility.yul\":7053:7055   */\n      0x20\n        /* \"#utility.yul\":7048:7051   */\n      dup3\n        /* \"#utility.yul\":7044:7056   */\n      add\n        /* \"#utility.yul\":7037:7056   */\n      swap1\n      pop\n        /* \"#utility.yul\":6696:7062   */\n      swap2\n      swap1\n      pop\n      jump\t// out\n        /* \"#utility.yul\":7068:7434   */\n    tag_301:\n        /* \"#utility.yul\":7210:7213   */\n      0x00\n        /* \"#utility.yul\":7231:7298   */\n      tag_303\n        /* \"#utility.yul\":7295:7297   */\n      0x0c\n        /* \"#utility.yul\":7290:7293   */\n      dup4\n        /* \"#utility.yul\":7231:7298   */\n      tag_273\n      jump\t// in\n    tag_303:\n        /* \"#utility.yul\":7224:7298   */\n      swap2\n      pop\n        /* \"#utility.yul\":7307:7400   */\n      tag_304\n        /* \"#utility.yul\":7396:7399   */\n      dup3\n        /* \"#utility.yul\":7307:7400   */\n      tag_305\n      jump\t// in\n    tag_304:\n        /* \"#utility.yul\":7425:7427   */\n      0x20\n        /* \"#utility.yul\":7420:7423   */\n      dup3\n        /* \"#utility.yul\":7416:7428   */\n      add\n        /* \"#utility.yul\":7409:7428   */\n      swap1\n      pop\n        /* \"#utility.yul\":7068:7434   */\n      swap2\n      swap1\n      pop\n      jump\t// out\n        /* \"#utility.yul\":7440:7802   */\n    tag_306:\n        /* \"#utility.yul\":7581:7584   */\n      0x00\n        /* \"#utility.yul\":7602:7667   */\n      tag_308\n        /* \"#utility.yul\":7665:7666   */\n      0x00\n        /* \"#utility.yul\":7660:7663   */\n      dup4\n        /* \"#utility.yul\":7602:7667   */\n      tag_309\n      jump\t// in\n    tag_308:\n        /* \"#utility.yul\":7595:7667   */\n      swap2\n      pop\n        /* \"#utility.yul\":7676:7769   */\n      tag_310\n        /* \"#utility.yul\":7765:7768   */\n      dup3\n        /* \"#utility.yul\":7676:7769   */\n      tag_311\n      jump\t// in\n    tag_310:\n        /* \"#utility.yul\":7794:7795   */\n      0x00\n        /* \"#utility.yul\":7789:7792   */\n      dup3\n        /* \"#utility.yul\":7785:7796   */\n      add\n        /* \"#utility.yul\":7778:7796   */\n      swap1\n      pop\n        /* \"#utility.yul\":7440:7802   */\n      swap2\n      swap1\n      pop\n      jump\t// out\n        /* \"#utility.yul\":7808:8174   */\n    tag_312:\n        /* \"#utility.yul\":7950:7953   */\n      0x00\n        /* \"#utility.yul\":7971:8038   */\n      tag_314\n        /* \"#utility.yul\":8035:8037   */\n      0x16\n        /* \"#utility.yul\":8030:8033   */\n      dup4\n        /* \"#utility.yul\":7971:8038   */\n      tag_273\n      jump\t// in\n    tag_314:\n        /* \"#utility.yul\":7964:8038   */\n      swap2\n      pop\n        /* \"#utility.yul\":8047:8140   */\n      tag_315\n        /* \"#utility.yul\":8136:8139   */\n      dup3\n        /* \"#utility.yul\":8047:8140   */\n      tag_316\n      jump\t// in\n    tag_315:\n        /* \"#utility.yul\":8165:8167   */\n      0x20\n        /* \"#utility.yul\":8160:8163   */\n      dup3\n        /* \"#utility.yul\":8156:8168   */\n      add\n        /* \"#utility.yul\":8149:8168   */\n      swap1\n      pop\n        /* \"#utility.yul\":7808:8174   */\n      swap2\n      swap1\n      pop\n      jump\t// out\n        /* \"#utility.yul\":8180:8546   */\n    tag_317:\n        /* \"#utility.yul\":8322:8325   */\n      0x00\n        /* \"#utility.yul\":8343:8410   */\n      tag_319\n        /* \"#utility.yul\":8407:8409   */\n      0x12\n        /* \"#utility.yul\":8402:8405   */\n      dup4\n        /* \"#utility.yul\":8343:8410   */\n      tag_273\n      jump\t// in\n    tag_319:\n        /* \"#utility.yul\":8336:8410   */\n      swap2\n      pop\n        /* \"#utility.yul\":8419:8512   */\n      tag_320\n        /* \"#utility.yul\":8508:8511   */\n      dup3\n        /* \"#utility.yul\":8419:8512   */\n      tag_321\n      jump\t// in\n    tag_320:\n        /* \"#utility.yul\":8537:8539   */\n      0x20\n        /* \"#utility.yul\":8532:8535   */\n      dup3\n        /* \"#utility.yul\":8528:8540   */\n      add\n        /* \"#utility.yul\":8521:8540   */\n      swap1\n      pop\n        /* \"#utility.yul\":8180:8546   */\n      swap2\n      swap1\n      pop\n      jump\t// out\n        /* \"#utility.yul\":8552:8670   */\n    tag_322:\n        /* \"#utility.yul\":8639:8663   */\n      tag_324\n        /* \"#utility.yul\":8657:8662   */\n      dup2\n        /* \"#utility.yul\":8639:8663   */\n      tag_325\n      jump\t// in\n    tag_324:\n        /* \"#utility.yul\":8634:8637   */\n      dup3\n        /* \"#utility.yul\":8627:8664   */\n      mstore\n        /* \"#utility.yul\":8552:8670   */\n      pop\n      pop\n      jump\t// out\n        /* \"#utility.yul\":8676:8898   */\n    tag_52:\n        /* \"#utility.yul\":8769:8773   */\n      0x00\n        /* \"#utility.yul\":8807:8809   */\n      0x20\n        /* \"#utility.yul\":8796:8805   */\n      dup3\n        /* \"#utility.yul\":8792:8810   */\n      add\n        /* \"#utility.yul\":8784:8810   */\n      swap1\n      pop\n        /* \"#utility.yul\":8820:8891   */\n      tag_327\n        /* \"#utility.yul\":8888:8889   */\n      0x00\n        /* \"#utility.yul\":8877:8886   */\n      dup4\n        /* \"#utility.yul\":8873:8890   */\n      add\n        /* \"#utility.yul\":8864:8870   */\n      dup5\n        /* \"#utility.yul\":8820:8891   */\n      tag_258\n      jump\t// in\n    tag_327:\n        /* \"#utility.yul\":8676:8898   */\n      swap3\n      swap2\n      pop\n      pop\n      jump\t// out\n        /* \"#utility.yul\":8904:9652   */\n    tag_74:\n        /* \"#utility.yul\":9153:9157   */\n      0x00\n        /* \"#utility.yul\":9191:9194   */\n      0x80\n        /* \"#utility.yul\":9180:9189   */\n      dup3\n        /* \"#utility.yul\":9176:9195   */\n      add\n        /* \"#utility.yul\":9168:9195   */\n      swap1\n      pop\n        /* \"#utility.yul\":9205:9276   */\n      tag_329\n        /* \"#utility.yul\":9273:9274   */\n      0x00\n        /* \"#utility.yul\":9262:9271   */\n      dup4\n        /* \"#utility.yul\":9258:9275   */\n      add\n        /* \"#utility.yul\":9249:9255   */\n      dup7\n        /* \"#utility.yul\":9205:9276   */\n      tag_258\n      jump\t// in\n    tag_329:\n        /* \"#utility.yul\":9286:9358   */\n      tag_330\n        /* \"#utility.yul\":9354:9356   */\n      0x20\n        /* \"#utility.yul\":9343:9352   */\n      dup4\n        /* \"#utility.yul\":9339:9357   */\n      add\n        /* \"#utility.yul\":9330:9336   */\n      dup6\n        /* \"#utility.yul\":9286:9358   */\n      tag_258\n      jump\t// in\n    tag_330:\n        /* \"#utility.yul\":9368:9440   */\n      tag_331\n        /* \"#utility.yul\":9436:9438   */\n      0x40\n        /* \"#utility.yul\":9425:9434   */\n      dup4\n        /* \"#utility.yul\":9421:9439   */\n      add\n        /* \"#utility.yul\":9412:9418   */\n      dup5\n        /* \"#utility.yul\":9368:9440   */\n      tag_322\n      jump\t// in\n    tag_331:\n        /* \"#utility.yul\":9487:9496   */\n      dup2\n        /* \"#utility.yul\":9481:9485   */\n      dup2\n        /* \"#utility.yul\":9477:9497   */\n      sub\n        /* \"#utility.yul\":9472:9474   */\n      0x60\n        /* \"#utility.yul\":9461:9470   */\n      dup4\n        /* \"#utility.yul\":9457:9475   */\n      add\n        /* \"#utility.yul\":9450:9498   */\n      mstore\n        /* \"#utility.yul\":9515:9645   */\n      tag_332\n        /* \"#utility.yul\":9640:9644   */\n      dup2\n        /* \"#utility.yul\":9515:9645   */\n      tag_306\n      jump\t// in\n    tag_332:\n        /* \"#utility.yul\":9507:9645   */\n      swap1\n      pop\n        /* \"#utility.yul\":8904:9652   */\n      swap5\n      swap4\n      pop\n      pop\n      pop\n      pop\n      jump\t// out\n        /* \"#utility.yul\":9658:10546   */\n    tag_61:\n        /* \"#utility.yul\":9920:9924   */\n      0x00\n        /* \"#utility.yul\":9958:9961   */\n      0xe0\n        /* \"#utility.yul\":9947:9956   */\n      dup3\n        /* \"#utility.yul\":9943:9962   */\n      add\n        /* \"#utility.yul\":9935:9962   */\n      swap1\n      pop\n        /* \"#utility.yul\":9972:10043   */\n      tag_334\n        /* \"#utility.yul\":10040:10041   */\n      0x00\n        /* \"#utility.yul\":10029:10038   */\n      dup4\n        /* \"#utility.yul\":10025:10042   */\n      add\n        /* \"#utility.yul\":10016:10022   */\n      dup11\n        /* \"#utility.yul\":9972:10043   */\n      tag_258\n      jump\t// in\n    tag_334:\n        /* \"#utility.yul\":10053:10119   */\n      tag_335\n        /* \"#utility.yul\":10115:10117   */\n      0x20\n        /* \"#utility.yul\":10104:10113   */\n      dup4\n        /* \"#utility.yul\":10100:10118   */\n      add\n        /* \"#utility.yul\":10091:10097   */\n      dup10\n        /* \"#utility.yul\":10053:10119   */\n      tag_262\n      jump\t// in\n    tag_335:\n        /* \"#utility.yul\":10129:10195   */\n      tag_336\n        /* \"#utility.yul\":10191:10193   */\n      0x40\n        /* \"#utility.yul\":10180:10189   */\n      dup4\n        /* \"#utility.yul\":10176:10194   */\n      add\n        /* \"#utility.yul\":10167:10173   */\n      dup9\n        /* \"#utility.yul\":10129:10195   */\n      tag_262\n      jump\t// in\n    tag_336:\n        /* \"#utility.yul\":10205:10277   */\n      tag_337\n        /* \"#utility.yul\":10273:10275   */\n      0x60\n        /* \"#utility.yul\":10262:10271   */\n      dup4\n        /* \"#utility.yul\":10258:10276   */\n      add\n        /* \"#utility.yul\":10249:10255   */\n      dup8\n        /* \"#utility.yul\":10205:10277   */\n      tag_322\n      jump\t// in\n    tag_337:\n        /* \"#utility.yul\":10287:10373   */\n      tag_338\n        /* \"#utility.yul\":10368:10371   */\n      0x80\n        /* \"#utility.yul\":10357:10366   */\n      dup4\n        /* \"#utility.yul\":10353:10372   */\n      add\n        /* \"#utility.yul\":10344:10350   */\n      dup7\n        /* \"#utility.yul\":10287:10373   */\n      tag_266\n      jump\t// in\n    tag_338:\n        /* \"#utility.yul\":10383:10456   */\n      tag_339\n        /* \"#utility.yul\":10451:10454   */\n      0xa0\n        /* \"#utility.yul\":10440:10449   */\n      dup4\n        /* \"#utility.yul\":10436:10455   */\n      add\n        /* \"#utility.yul\":10427:10433   */\n      dup6\n        /* \"#utility.yul\":10383:10456   */\n      tag_322\n      jump\t// in\n    tag_339:\n        /* \"#utility.yul\":10466:10539   */\n      tag_340\n        /* \"#utility.yul\":10534:10537   */\n      0xc0\n        /* \"#utility.yul\":10523:10532   */\n      dup4\n        /* \"#utility.yul\":10519:10538   */\n      add\n        /* \"#utility.yul\":10510:10516   */\n      dup5\n        /* \"#utility.yul\":10466:10539   */\n      tag_322\n      jump\t// in\n    tag_340:\n        /* \"#utility.yul\":9658:10546   */\n      swap9\n      swap8\n      pop\n      pop\n      pop\n      pop\n      pop\n      pop\n      pop\n      pop\n      jump\t// out\n        /* \"#utility.yul\":10552:10884   */\n    tag_85:\n        /* \"#utility.yul\":10673:10677   */\n      0x00\n        /* \"#utility.yul\":10711:10713   */\n      0x40\n        /* \"#utility.yul\":10700:10709   */\n      dup3\n        /* \"#utility.yul\":10696:10714   */\n      add\n        /* \"#utility.yul\":10688:10714   */\n      swap1\n      pop\n        /* \"#utility.yul\":10724:10795   */\n      tag_342\n        /* \"#utility.yul\":10792:10793   */\n      0x00\n        /* \"#utility.yul\":10781:10790   */\n      dup4\n        /* \"#utility.yul\":10777:10794   */\n      add\n        /* \"#utility.yul\":10768:10774   */\n      dup6\n        /* \"#utility.yul\":10724:10795   */\n      tag_258\n      jump\t// in\n    tag_342:\n        /* \"#utility.yul\":10805:10877   */\n      tag_343\n        /* \"#utility.yul\":10873:10875   */\n      0x20\n        /* \"#utility.yul\":10862:10871   */\n      dup4\n        /* \"#utility.yul\":10858:10876   */\n      add\n        /* \"#utility.yul\":10849:10855   */\n      dup5\n        /* \"#utility.yul\":10805:10877   */\n      tag_322\n      jump\t// in\n    tag_343:\n        /* \"#utility.yul\":10552:10884   */\n      swap4\n      swap3\n      pop\n      pop\n      pop\n      jump\t// out\n        /* \"#utility.yul\":10890:11332   */\n    tag_104:\n        /* \"#utility.yul\":11039:11043   */\n      0x00\n        /* \"#utility.yul\":11077:11079   */\n      0x60\n        /* \"#utility.yul\":11066:11075   */\n      dup3\n        /* \"#utility.yul\":11062:11080   */\n      add\n        /* \"#utility.yul\":11054:11080   */\n      swap1\n      pop\n        /* \"#utility.yul\":11090:11161   */\n      tag_345\n        /* \"#utility.yul\":11158:11159   */\n      0x00\n        /* \"#utility.yul\":11147:11156   */\n      dup4\n        /* \"#utility.yul\":11143:11160   */\n      add\n        /* \"#utility.yul\":11134:11140   */\n      dup7\n        /* \"#utility.yul\":11090:11161   */\n      tag_258\n      jump\t// in\n    tag_345:\n        /* \"#utility.yul\":11171:11243   */\n      tag_346\n        /* \"#utility.yul\":11239:11241   */\n      0x20\n        /* \"#utility.yul\":11228:11237   */\n      dup4\n        /* \"#utility.yul\":11224:11242   */\n      add\n        /* \"#utility.yul\":11215:11221   */\n      dup6\n        /* \"#utility.yul\":11171:11243   */\n      tag_322\n      jump\t// in\n    tag_346:\n        /* \"#utility.yul\":11253:11325   */\n      tag_347\n        /* \"#utility.yul\":11321:11323   */\n      0x40\n        /* \"#utility.yul\":11310:11319   */\n      dup4\n        /* \"#utility.yul\":11306:11324   */\n      add\n        /* \"#utility.yul\":11297:11303   */\n      dup5\n        /* \"#utility.yul\":11253:11325   */\n      tag_322\n      jump\t// in\n    tag_347:\n        /* \"#utility.yul\":10890:11332   */\n      swap5\n      swap4\n      pop\n      pop\n      pop\n      pop\n      jump\t// out\n        /* \"#utility.yul\":11338:11757   */\n    tag_157:\n        /* \"#utility.yul\":11504:11508   */\n      0x00\n        /* \"#utility.yul\":11542:11544   */\n      0x20\n        /* \"#utility.yul\":11531:11540   */\n      dup3\n        /* \"#utility.yul\":11527:11545   */\n      add\n        /* \"#utility.yul\":11519:11545   */\n      swap1\n      pop\n        /* \"#utility.yul\":11591:11600   */\n      dup2\n        /* \"#utility.yul\":11585:11589   */\n      dup2\n        /* \"#utility.yul\":11581:11601   */\n      sub\n        /* \"#utility.yul\":11577:11578   */\n      0x00\n        /* \"#utility.yul\":11566:11575   */\n      dup4\n        /* \"#utility.yul\":11562:11579   */\n      add\n        /* \"#utility.yul\":11555:11602   */\n      mstore\n        /* \"#utility.yul\":11619:11750   */\n      tag_349\n        /* \"#utility.yul\":11745:11749   */\n      dup2\n        /* \"#utility.yul\":11619:11750   */\n      tag_270\n      jump\t// in\n    tag_349:\n        /* \"#utility.yul\":11611:11750   */\n      swap1\n      pop\n        /* \"#utility.yul\":11338:11757   */\n      swap2\n      swap1\n      pop\n      jump\t// out\n        /* \"#utility.yul\":11763:12182   */\n    tag_68:\n        /* \"#utility.yul\":11929:11933   */\n      0x00\n        /* \"#utility.yul\":11967:11969   */\n      0x20\n        /* \"#utility.yul\":11956:11965   */\n      dup3\n        /* \"#utility.yul\":11952:11970   */\n      add\n        /* \"#utility.yul\":11944:11970   */\n      swap1\n      pop\n        /* \"#utility.yul\":12016:12025   */\n      dup2\n        /* \"#utility.yul\":12010:12014   */\n      dup2\n        /* \"#utility.yul\":12006:12026   */\n      sub\n        /* \"#utility.yul\":12002:12003   */\n      0x00\n        /* \"#utility.yul\":11991:12000   */\n      dup4\n        /* \"#utility.yul\":11987:12004   */\n      add\n        /* \"#utility.yul\":11980:12027   */\n      mstore\n        /* \"#utility.yul\":12044:12175   */\n      tag_351\n        /* \"#utility.yul\":12170:12174   */\n      dup2\n        /* \"#utility.yul\":12044:12175   */\n      tag_276\n      jump\t// in\n    tag_351:\n        /* \"#utility.yul\":12036:12175   */\n      swap1\n      pop\n        /* \"#utility.yul\":11763:12182   */\n      swap2\n      swap1\n      pop\n      jump\t// out\n        /* \"#utility.yul\":12188:12607   */\n    tag_180:\n        /* \"#utility.yul\":12354:12358   */\n      0x00\n        /* \"#utility.yul\":12392:12394   */\n      0x20\n        /* \"#utility.yul\":12381:12390   */\n      dup3\n        /* \"#utility.yul\":12377:12395   */\n      add\n        /* \"#utility.yul\":12369:12395   */\n      swap1\n      pop\n        /* \"#utility.yul\":12441:12450   */\n      dup2\n        /* \"#utility.yul\":12435:12439   */\n      dup2\n        /* \"#utility.yul\":12431:12451   */\n      sub\n        /* \"#utility.yul\":12427:12428   */\n      0x00\n        /* \"#utility.yul\":12416:12425   */\n      dup4\n        /* \"#utility.yul\":12412:12429   */\n      add\n        /* \"#utility.yul\":12405:12452   */\n      mstore\n        /* \"#utility.yul\":12469:12600   */\n      tag_353\n        /* \"#utility.yul\":12595:12599   */\n      dup2\n        /* \"#utility.yul\":12469:12600   */\n      tag_281\n      jump\t// in\n    tag_353:\n        /* \"#utility.yul\":12461:12600   */\n      swap1\n      pop\n        /* \"#utility.yul\":12188:12607   */\n      swap2\n      swap1\n      pop\n      jump\t// out\n        /* \"#utility.yul\":12613:13032   */\n    tag_154:\n        /* \"#utility.yul\":12779:12783   */\n      0x00\n        /* \"#utility.yul\":12817:12819   */\n      0x20\n        /* \"#utility.yul\":12806:12815   */\n      dup3\n        /* \"#utility.yul\":12802:12820   */\n      add\n        /* \"#utility.yul\":12794:12820   */\n      swap1\n      pop\n        /* \"#utility.yul\":12866:12875   */\n      dup2\n        /* \"#utility.yul\":12860:12864   */\n      dup2\n        /* \"#utility.yul\":12856:12876   */\n      sub\n        /* \"#utility.yul\":12852:12853   */\n      0x00\n        /* \"#utility.yul\":12841:12850   */\n      dup4\n        /* \"#utility.yul\":12837:12854   */\n      add\n        /* \"#utility.yul\":12830:12877   */\n      mstore\n        /* \"#utility.yul\":12894:13025   */\n      tag_355\n        /* \"#utility.yul\":13020:13024   */\n      dup2\n        /* \"#utility.yul\":12894:13025   */\n      tag_286\n      jump\t// in\n    tag_355:\n        /* \"#utility.yul\":12886:13025   */\n      swap1\n      pop\n        /* \"#utility.yul\":12613:13032   */\n      swap2\n      swap1\n      pop\n      jump\t// out\n        /* \"#utility.yul\":13038:13457   */\n    tag_65:\n        /* \"#utility.yul\":13204:13208   */\n      0x00\n        /* \"#utility.yul\":13242:13244   */\n      0x20\n        /* \"#utility.yul\":13231:13240   */\n      dup3\n        /* \"#utility.yul\":13227:13245   */\n      add\n        /* \"#utility.yul\":13219:13245   */\n      swap1\n      pop\n        /* \"#utility.yul\":13291:13300   */\n      dup2\n        /* \"#utility.yul\":13285:13289   */\n      dup2\n        /* \"#utility.yul\":13281:13301   */\n      sub\n        /* \"#utility.yul\":13277:13278   */\n      0x00\n        /* \"#utility.yul\":13266:13275   */\n      dup4\n        /* \"#utility.yul\":13262:13279   */\n      add\n        /* \"#utility.yul\":13255:13302   */\n      mstore\n        /* \"#utility.yul\":13319:13450   */\n      tag_357\n        /* \"#utility.yul\":13445:13449   */\n      dup2\n        /* \"#utility.yul\":13319:13450   */\n      tag_291\n      jump\t// in\n    tag_357:\n        /* \"#utility.yul\":13311:13450   */\n      swap1\n      pop\n        /* \"#utility.yul\":13038:13457   */\n      swap2\n      swap1\n      pop\n      jump\t// out\n        /* \"#utility.yul\":13463:13882   */\n    tag_183:\n        /* \"#utility.yul\":13629:13633   */\n      0x00\n        /* \"#utility.yul\":13667:13669   */\n      0x20\n        /* \"#utility.yul\":13656:13665   */\n      dup3\n        /* \"#utility.yul\":13652:13670   */\n      add\n        /* \"#utility.yul\":13644:13670   */\n      swap1\n      pop\n        /* \"#utility.yul\":13716:13725   */\n      dup2\n        /* \"#utility.yul\":13710:13714   */\n      dup2\n        /* \"#utility.yul\":13706:13726   */\n      sub\n        /* \"#utility.yul\":13702:13703   */\n      0x00\n        /* \"#utility.yul\":13691:13700   */\n      dup4\n        /* \"#utility.yul\":13687:13704   */\n      add\n        /* \"#utility.yul\":13680:13727   */\n      mstore\n        /* \"#utility.yul\":13744:13875   */\n      tag_359\n        /* \"#utility.yul\":13870:13874   */\n      dup2\n        /* \"#utility.yul\":13744:13875   */\n      tag_296\n      jump\t// in\n    tag_359:\n        /* \"#utility.yul\":13736:13875   */\n      swap1\n      pop\n        /* \"#utility.yul\":13463:13882   */\n      swap2\n      swap1\n      pop\n      jump\t// out\n        /* \"#utility.yul\":13888:14307   */\n    tag_151:\n        /* \"#utility.yul\":14054:14058   */\n      0x00\n        /* \"#utility.yul\":14092:14094   */\n      0x20\n        /* \"#utility.yul\":14081:14090   */\n      dup3\n        /* \"#utility.yul\":14077:14095   */\n      add\n        /* \"#utility.yul\":14069:14095   */\n      swap1\n      pop\n        /* \"#utility.yul\":14141:14150   */\n      dup2\n        /* \"#utility.yul\":14135:14139   */\n      dup2\n        /* \"#utility.yul\":14131:14151   */\n      sub\n        /* \"#utility.yul\":14127:14128   */\n      0x00\n        /* \"#utility.yul\":14116:14125   */\n      dup4\n        /* \"#utility.yul\":14112:14129   */\n      add\n        /* \"#utility.yul\":14105:14152   */\n      mstore\n        /* \"#utility.yul\":14169:14300   */\n      tag_361\n        /* \"#utility.yul\":14295:14299   */\n      dup2\n        /* \"#utility.yul\":14169:14300   */\n      tag_301\n      jump\t// in\n    tag_361:\n        /* \"#utility.yul\":14161:14300   */\n      swap1\n      pop\n        /* \"#utility.yul\":13888:14307   */\n      swap2\n      swap1\n      pop\n      jump\t// out\n        /* \"#utility.yul\":14313:14732   */\n    tag_71:\n        /* \"#utility.yul\":14479:14483   */\n      0x00\n        /* \"#utility.yul\":14517:14519   */\n      0x20\n        /* \"#utility.yul\":14506:14515   */\n      dup3\n        /* \"#utility.yul\":14502:14520   */\n      add\n        /* \"#utility.yul\":14494:14520   */\n      swap1\n      pop\n        /* \"#utility.yul\":14566:14575   */\n      dup2\n        /* \"#utility.yul\":14560:14564   */\n      dup2\n        /* \"#utility.yul\":14556:14576   */\n      sub\n        /* \"#utility.yul\":14552:14553   */\n      0x00\n        /* \"#utility.yul\":14541:14550   */\n      dup4\n        /* \"#utility.yul\":14537:14554   */\n      add\n        /* \"#utility.yul\":14530:14577   */\n      mstore\n        /* \"#utility.yul\":14594:14725   */\n      tag_363\n        /* \"#utility.yul\":14720:14724   */\n      dup2\n        /* \"#utility.yul\":14594:14725   */\n      tag_312\n      jump\t// in\n    tag_363:\n        /* \"#utility.yul\":14586:14725   */\n      swap1\n      pop\n        /* \"#utility.yul\":14313:14732   */\n      swap2\n      swap1\n      pop\n      jump\t// out\n        /* \"#utility.yul\":14738:15157   */\n    tag_166:\n        /* \"#utility.yul\":14904:14908   */\n      0x00\n        /* \"#utility.yul\":14942:14944   */\n      0x20\n        /* \"#utility.yul\":14931:14940   */\n      dup3\n        /* \"#utility.yul\":14927:14945   */\n      add\n        /* \"#utility.yul\":14919:14945   */\n      swap1\n      pop\n        /* \"#utility.yul\":14991:15000   */\n      dup2\n        /* \"#utility.yul\":14985:14989   */\n      dup2\n        /* \"#utility.yul\":14981:15001   */\n      sub\n        /* \"#utility.yul\":14977:14978   */\n      0x00\n        /* \"#utility.yul\":14966:14975   */\n      dup4\n        /* \"#utility.yul\":14962:14979   */\n      add\n        /* \"#utility.yul\":14955:15002   */\n      mstore\n        /* \"#utility.yul\":15019:15150   */\n      tag_365\n        /* \"#utility.yul\":15145:15149   */\n      dup2\n        /* \"#utility.yul\":15019:15150   */\n      tag_317\n      jump\t// in\n    tag_365:\n        /* \"#utility.yul\":15011:15150   */\n      swap1\n      pop\n        /* \"#utility.yul\":14738:15157   */\n      swap2\n      swap1\n      pop\n      jump\t// out\n        /* \"#utility.yul\":15163:15385   */\n    tag_24:\n        /* \"#utility.yul\":15256:15260   */\n      0x00\n        /* \"#utility.yul\":15294:15296   */\n      0x20\n        /* \"#utility.yul\":15283:15292   */\n      dup3\n        /* \"#utility.yul\":15279:15297   */\n      add\n        /* \"#utility.yul\":15271:15297   */\n      swap1\n      pop\n        /* \"#utility.yul\":15307:15378   */\n      tag_367\n        /* \"#utility.yul\":15375:15376   */\n      0x00\n        /* \"#utility.yul\":15364:15373   */\n      dup4\n        /* \"#utility.yul\":15360:15377   */\n      add\n        /* \"#utility.yul\":15351:15357   */\n      dup5\n        /* \"#utility.yul\":15307:15378   */\n      tag_322\n      jump\t// in\n    tag_367:\n        /* \"#utility.yul\":15163:15385   */\n      swap3\n      swap2\n      pop\n      pop\n      jump\t// out\n        /* \"#utility.yul\":15391:15723   */\n    tag_192:\n        /* \"#utility.yul\":15512:15516   */\n      0x00\n        /* \"#utility.yul\":15550:15552   */\n      0x40\n        /* \"#utility.yul\":15539:15548   */\n      dup3\n        /* \"#utility.yul\":15535:15553   */\n      add\n        /* \"#utility.yul\":15527:15553   */\n      swap1\n      pop\n        /* \"#utility.yul\":15563:15634   */\n      tag_369\n        /* \"#utility.yul\":15631:15632   */\n      0x00\n        /* \"#utility.yul\":15620:15629   */\n      dup4\n        /* \"#utility.yul\":15616:15633   */\n      add\n        /* \"#utility.yul\":15607:15613   */\n      dup6\n        /* \"#utility.yul\":15563:15634   */\n      tag_322\n      jump\t// in\n    tag_369:\n        /* \"#utility.yul\":15644:15716   */\n      tag_370\n        /* \"#utility.yul\":15712:15714   */\n      0x20\n        /* \"#utility.yul\":15701:15710   */\n      dup4\n        /* \"#utility.yul\":15697:15715   */\n      add\n        /* \"#utility.yul\":15688:15694   */\n      dup5\n        /* \"#utility.yul\":15644:15716   */\n      tag_322\n      jump\t// in\n    tag_370:\n        /* \"#utility.yul\":15391:15723   */\n      swap4\n      swap3\n      pop\n      pop\n      pop\n      jump\t// out\n        /* \"#utility.yul\":15810:15978   */\n    tag_309:\n        /* \"#utility.yul\":15893:15904   */\n      0x00\n        /* \"#utility.yul\":15927:15933   */\n      dup3\n        /* \"#utility.yul\":15922:15925   */\n      dup3\n        /* \"#utility.yul\":15915:15934   */\n      mstore\n        /* \"#utility.yul\":15967:15971   */\n      0x20\n        /* \"#utility.yul\":15962:15965   */\n      dup3\n        /* \"#utility.yul\":15958:15972   */\n      add\n        /* \"#utility.yul\":15943:15972   */\n      swap1\n      pop\n        /* \"#utility.yul\":15810:15978   */\n      swap3\n      swap2\n      pop\n      pop\n      jump\t// out\n        /* \"#utility.yul\":15984:16153   */\n    tag_273:\n        /* \"#utility.yul\":16068:16079   */\n      0x00\n        /* \"#utility.yul\":16102:16108   */\n      dup3\n        /* \"#utility.yul\":16097:16100   */\n      dup3\n        /* \"#utility.yul\":16090:16109   */\n      mstore\n        /* \"#utility.yul\":16142:16146   */\n      0x20\n        /* \"#utility.yul\":16137:16140   */\n      dup3\n        /* \"#utility.yul\":16133:16147   */\n      add\n        /* \"#utility.yul\":16118:16147   */\n      swap1\n      pop\n        /* \"#utility.yul\":15984:16153   */\n      swap3\n      swap2\n      pop\n      pop\n      jump\t// out\n        /* \"#utility.yul\":16159:16464   */\n    tag_160:\n        /* \"#utility.yul\":16199:16202   */\n      0x00\n        /* \"#utility.yul\":16218:16238   */\n      tag_376\n        /* \"#utility.yul\":16236:16237   */\n      dup3\n        /* \"#utility.yul\":16218:16238   */\n      tag_325\n      jump\t// in\n    tag_376:\n        /* \"#utility.yul\":16213:16238   */\n      swap2\n      pop\n        /* \"#utility.yul\":16252:16272   */\n      tag_377\n        /* \"#utility.yul\":16270:16271   */\n      dup4\n        /* \"#utility.yul\":16252:16272   */\n      tag_325\n      jump\t// in\n    tag_377:\n        /* \"#utility.yul\":16247:16272   */\n      swap3\n      pop\n        /* \"#utility.yul\":16406:16407   */\n      dup3\n        /* \"#utility.yul\":16338:16404   */\n      0xffffffffffffffffffffffffffffffffffffffffffffffffffffffffffffffff\n        /* \"#utility.yul\":16334:16408   */\n      sub\n        /* \"#utility.yul\":16331:16332   */\n      dup3\n        /* \"#utility.yul\":16328:16409   */\n      gt\n        /* \"#utility.yul\":16325:16432   */\n      iszero\n      tag_378\n      jumpi\n        /* \"#utility.yul\":16412:16430   */\n      tag_379\n      tag_380\n      jump\t// in\n    tag_379:\n        /* \"#utility.yul\":16325:16432   */\n    tag_378:\n        /* \"#utility.yul\":16456:16457   */\n      dup3\n        /* \"#utility.yul\":16453:16454   */\n      dup3\n        /* \"#utility.yul\":16449:16458   */\n      add\n        /* \"#utility.yul\":16442:16458   */\n      swap1\n      pop\n        /* \"#utility.yul\":16159:16464   */\n      swap3\n      swap2\n      pop\n      pop\n      jump\t// out\n        /* \"#utility.yul\":16470:16655   */\n    tag_79:\n        /* \"#utility.yul\":16510:16511   */\n      0x00\n        /* \"#utility.yul\":16527:16547   */\n      tag_382\n        /* \"#utility.yul\":16545:16546   */\n      dup3\n        /* \"#utility.yul\":16527:16547   */\n      tag_325\n      jump\t// in\n    tag_382:\n        /* \"#utility.yul\":16522:16547   */\n      swap2\n      pop\n        /* \"#utility.yul\":16561:16581   */\n      tag_383\n        /* \"#utility.yul\":16579:16580   */\n      dup4\n        /* \"#utility.yul\":16561:16581   */\n      tag_325\n      jump\t// in\n    tag_383:\n        /* \"#utility.yul\":16556:16581   */\n      swap3\n      pop\n        /* \"#utility.yul\":16600:16601   */\n      dup3\n        /* \"#utility.yul\":16590:16625   */\n      tag_384\n      jumpi\n        /* \"#utility.yul\":16605:16623   */\n      tag_385\n      tag_386\n      jump\t// in\n    tag_385:\n        /* \"#utility.yul\":16590:16625   */\n    tag_384:\n        /* \"#utility.yul\":16647:16648   */\n      dup3\n        /* \"#utility.yul\":16644:16645   */\n      dup3\n        /* \"#utility.yul\":16640:16649   */\n      div\n        /* \"#utility.yul\":16635:16649   */\n      swap1\n      pop\n        /* \"#utility.yul\":16470:16655   */\n      swap3\n      swap2\n      pop\n      pop\n      jump\t// out\n        /* \"#utility.yul\":16661:17009   */\n    tag_189:\n        /* \"#utility.yul\":16701:16708   */\n      0x00\n        /* \"#utility.yul\":16724:16744   */\n      tag_388\n        /* \"#utility.yul\":16742:16743   */\n      dup3\n        /* \"#utility.yul\":16724:16744   */\n      tag_325\n      jump\t// in\n    tag_388:\n        /* \"#utility.yul\":16719:16744   */\n      swap2\n      pop\n        /* \"#utility.yul\":16758:16778   */\n      tag_389\n        /* \"#utility.yul\":16776:16777   */\n      dup4\n        /* \"#utility.yul\":16758:16778   */\n      tag_325\n      jump\t// in\n    tag_389:\n        /* \"#utility.yul\":16753:16778   */\n      swap3\n      pop\n        /* \"#utility.yul\":16946:16947   */\n      dup2\n        /* \"#utility.yul\":16878:16944   */\n      0xffffffffffffffffffffffffffffffffffffffffffffffffffffffffffffffff\n        /* \"#utility.yul\":16874:16948   */\n      div\n        /* \"#utility.yul\":16871:16872   */\n      dup4\n        /* \"#utility.yul\":16868:16949   */\n      gt\n        /* \"#utility.yul\":16863:16864   */\n      dup3\n        /* \"#utility.yul\":16856:16865   */\n      iszero\n        /* \"#utility.yul\":16849:16866   */\n      iszero\n        /* \"#utility.yul\":16845:16950   */\n      and\n        /* \"#utility.yul\":16842:16973   */\n      iszero\n      tag_390\n      jumpi\n        /* \"#utility.yul\":16953:16971   */\n      tag_391\n      tag_380\n      jump\t// in\n    tag_391:\n        /* \"#utility.yul\":16842:16973   */\n    tag_390:\n        /* \"#utility.yul\":17001:17002   */\n      dup3\n        /* \"#utility.yul\":16998:16999   */\n      dup3\n        /* \"#utility.yul\":16994:17003   */\n      mul\n        /* \"#utility.yul\":16983:17003   */\n      swap1\n      pop\n        /* \"#utility.yul\":16661:17009   */\n      swap3\n      swap2\n      pop\n      pop\n      jump\t// out\n        /* \"#utility.yul\":17015:17206   */\n    tag_81:\n        /* \"#utility.yul\":17055:17059   */\n      0x00\n        /* \"#utility.yul\":17075:17095   */\n      tag_393\n        /* \"#utility.yul\":17093:17094   */\n      dup3\n        /* \"#utility.yul\":17075:17095   */\n      tag_325\n      jump\t// in\n    tag_393:\n        /* \"#utility.yul\":17070:17095   */\n      swap2\n      pop\n        /* \"#utility.yul\":17109:17129   */\n      tag_394\n        /* \"#utility.yul\":17127:17128   */\n      dup4\n        /* \"#utility.yul\":17109:17129   */\n      tag_325\n      jump\t// in\n    tag_394:\n        /* \"#utility.yul\":17104:17129   */\n      swap3\n      pop\n        /* \"#utility.yul\":17148:17149   */\n      dup3\n        /* \"#utility.yul\":17145:17146   */\n      dup3\n        /* \"#utility.yul\":17142:17150   */\n      lt\n        /* \"#utility.yul\":17139:17173   */\n      iszero\n      tag_395\n      jumpi\n        /* \"#utility.yul\":17153:17171   */\n      tag_396\n      tag_380\n      jump\t// in\n    tag_396:\n        /* \"#utility.yul\":17139:17173   */\n    tag_395:\n        /* \"#utility.yul\":17198:17199   */\n      dup3\n        /* \"#utility.yul\":17195:17196   */\n      dup3\n        /* \"#utility.yul\":17191:17200   */\n      sub\n        /* \"#utility.yul\":17183:17200   */\n      swap1\n      pop\n        /* \"#utility.yul\":17015:17206   */\n      swap3\n      swap2\n      pop\n      pop\n      jump\t// out\n        /* \"#utility.yul\":17212:17308   */\n    tag_261:\n        /* \"#utility.yul\":17249:17256   */\n      0x00\n        /* \"#utility.yul\":17278:17302   */\n      tag_398\n        /* \"#utility.yul\":17296:17301   */\n      dup3\n        /* \"#utility.yul\":17278:17302   */\n      tag_399\n      jump\t// in\n    tag_398:\n        /* \"#utility.yul\":17267:17302   */\n      swap1\n      pop\n        /* \"#utility.yul\":17212:17308   */\n      swap2\n      swap1\n      pop\n      jump\t// out\n        /* \"#utility.yul\":17314:17404   */\n    tag_265:\n        /* \"#utility.yul\":17348:17355   */\n      0x00\n        /* \"#utility.yul\":17391:17396   */\n      dup2\n        /* \"#utility.yul\":17384:17397   */\n      iszero\n        /* \"#utility.yul\":17377:17398   */\n      iszero\n        /* \"#utility.yul\":17366:17398   */\n      swap1\n      pop\n        /* \"#utility.yul\":17314:17404   */\n      swap2\n      swap1\n      pop\n      jump\t// out\n        /* \"#utility.yul\":17410:17536   */\n    tag_399:\n        /* \"#utility.yul\":17447:17454   */\n      0x00\n        /* \"#utility.yul\":17487:17529   */\n      0xffffffffffffffffffffffffffffffffffffffff\n        /* \"#utility.yul\":17480:17485   */\n      dup3\n        /* \"#utility.yul\":17476:17530   */\n      and\n        /* \"#utility.yul\":17465:17530   */\n      swap1\n      pop\n        /* \"#utility.yul\":17410:17536   */\n      swap2\n      swap1\n      pop\n      jump\t// out\n        /* \"#utility.yul\":17542:17619   */\n    tag_325:\n        /* \"#utility.yul\":17579:17586   */\n      0x00\n        /* \"#utility.yul\":17608:17613   */\n      dup2\n        /* \"#utility.yul\":17597:17613   */\n      swap1\n      pop\n        /* \"#utility.yul\":17542:17619   */\n      swap2\n      swap1\n      pop\n      jump\t// out\n        /* \"#utility.yul\":17625:17764   */\n    tag_269:\n        /* \"#utility.yul\":17688:17697   */\n      0x00\n        /* \"#utility.yul\":17721:17758   */\n      tag_404\n        /* \"#utility.yul\":17752:17757   */\n      dup3\n        /* \"#utility.yul\":17721:17758   */\n      tag_405\n      jump\t// in\n    tag_404:\n        /* \"#utility.yul\":17708:17758   */\n      swap1\n      pop\n        /* \"#utility.yul\":17625:17764   */\n      swap2\n      swap1\n      pop\n      jump\t// out\n        /* \"#utility.yul\":17770:17896   */\n    tag_405:\n        /* \"#utility.yul\":17820:17829   */\n      0x00\n        /* \"#utility.yul\":17853:17890   */\n      tag_407\n        /* \"#utility.yul\":17884:17889   */\n      dup3\n        /* \"#utility.yul\":17853:17890   */\n      tag_408\n      jump\t// in\n    tag_407:\n        /* \"#utility.yul\":17840:17890   */\n      swap1\n      pop\n        /* \"#utility.yul\":17770:17896   */\n      swap2\n      swap1\n      pop\n      jump\t// out\n        /* \"#utility.yul\":17902:18015   */\n    tag_408:\n        /* \"#utility.yul\":17952:17961   */\n      0x00\n        /* \"#utility.yul\":17985:18009   */\n      tag_410\n        /* \"#utility.yul\":18003:18008   */\n      dup3\n        /* \"#utility.yul\":17985:18009   */\n      tag_399\n      jump\t// in\n    tag_410:\n        /* \"#utility.yul\":17972:18009   */\n      swap1\n      pop\n        /* \"#utility.yul\":17902:18015   */\n      swap2\n      swap1\n      pop\n      jump\t// out\n        /* \"#utility.yul\":18021:18254   */\n    tag_126:\n        /* \"#utility.yul\":18060:18063   */\n      0x00\n        /* \"#utility.yul\":18083:18107   */\n      tag_412\n        /* \"#utility.yul\":18101:18106   */\n      dup3\n        /* \"#utility.yul\":18083:18107   */\n      tag_325\n      jump\t// in\n    tag_412:\n        /* \"#utility.yul\":18074:18107   */\n      swap2\n      pop\n        /* \"#utility.yul\":18129:18195   */\n      0xffffffffffffffffffffffffffffffffffffffffffffffffffffffffffffffff\n        /* \"#utility.yul\":18122:18127   */\n      dup3\n        /* \"#utility.yul\":18119:18196   */\n      eq\n        /* \"#utility.yul\":18116:18219   */\n      iszero\n      tag_413\n      jumpi\n        /* \"#utility.yul\":18199:18217   */\n      tag_414\n      tag_380\n      jump\t// in\n    tag_414:\n        /* \"#utility.yul\":18116:18219   */\n    tag_413:\n        /* \"#utility.yul\":18246:18247   */\n      0x01\n        /* \"#utility.yul\":18239:18244   */\n      dup3\n        /* \"#utility.yul\":18235:18248   */\n      add\n        /* \"#utility.yul\":18228:18248   */\n      swap1\n      pop\n        /* \"#utility.yul\":18021:18254   */\n      swap2\n      swap1\n      pop\n      jump\t// out\n        /* \"#utility.yul\":18260:18440   */\n    tag_380:\n        /* \"#utility.yul\":18308:18385   */\n      0x4e487b7100000000000000000000000000000000000000000000000000000000\n        /* \"#utility.yul\":18305:18306   */\n      0x00\n        /* \"#utility.yul\":18298:18386   */\n      mstore\n        /* \"#utility.yul\":18405:18409   */\n      0x11\n        /* \"#utility.yul\":18402:18403   */\n      0x04\n        /* \"#utility.yul\":18395:18410   */\n      mstore\n        /* \"#utility.yul\":18429:18433   */\n      0x24\n        /* \"#utility.yul\":18426:18427   */\n      0x00\n        /* \"#utility.yul\":18419:18434   */\n      revert\n        /* \"#utility.yul\":18446:18626   */\n    tag_386:\n        /* \"#utility.yul\":18494:18571   */\n      0x4e487b7100000000000000000000000000000000000000000000000000000000\n        /* \"#utility.yul\":18491:18492   */\n      0x00\n        /* \"#utility.yul\":18484:18572   */\n      mstore\n        /* \"#utility.yul\":18591:18595   */\n      0x12\n        /* \"#utility.yul\":18588:18589   */\n      0x04\n        /* \"#utility.yul\":18581:18596   */\n      mstore\n        /* \"#utility.yul\":18615:18619   */\n      0x24\n        /* \"#utility.yul\":18612:18613   */\n      0x00\n        /* \"#utility.yul\":18605:18620   */\n      revert\n        /* \"#utility.yul\":18755:18872   */\n    tag_222:\n        /* \"#utility.yul\":18864:18865   */\n      0x00\n        /* \"#utility.yul\":18861:18862   */\n      dup1\n        /* \"#utility.yul\":18854:18866   */\n      revert\n        /* \"#utility.yul\":18878:19038   */\n    tag_275:\n        /* \"#utility.yul\":19018:19030   */\n      0x4c6f776572206269642100000000000000000000000000000000000000000000\n        /* \"#utility.yul\":19014:19015   */\n      0x00\n        /* \"#utility.yul\":19006:19012   */\n      dup3\n        /* \"#utility.yul\":19002:19016   */\n      add\n        /* \"#utility.yul\":18995:19031   */\n      mstore\n        /* \"#utility.yul\":18878:19038   */\n      pop\n      jump\t// out\n        /* \"#utility.yul\":19044:19219   */\n    tag_280:\n        /* \"#utility.yul\":19184:19211   */\n      0x41756374696f6e206973207374696c6c206f6e676f696e672100000000000000\n        /* \"#utility.yul\":19180:19181   */\n      0x00\n        /* \"#utility.yul\":19172:19178   */\n      dup3\n        /* \"#utility.yul\":19168:19182   */\n      add\n        /* \"#utility.yul\":19161:19212   */\n      mstore\n        /* \"#utility.yul\":19044:19219   */\n      pop\n      jump\t// out\n        /* \"#utility.yul\":19225:19391   */\n    tag_285:\n        /* \"#utility.yul\":19365:19383   */\n      0x416c726561647920737461727465642100000000000000000000000000000000\n        /* \"#utility.yul\":19361:19362   */\n      0x00\n        /* \"#utility.yul\":19353:19359   */\n      dup3\n        /* \"#utility.yul\":19349:19363   */\n      add\n        /* \"#utility.yul\":19342:19384   */\n      mstore\n        /* \"#utility.yul\":19225:19391   */\n      pop\n      jump\t// out\n        /* \"#utility.yul\":19397:19553   */\n    tag_290:\n        /* \"#utility.yul\":19537:19545   */\n      0x456e646564210000000000000000000000000000000000000000000000000000\n        /* \"#utility.yul\":19533:19534   */\n      0x00\n        /* \"#utility.yul\":19525:19531   */\n      dup3\n        /* \"#utility.yul\":19521:19535   */\n      add\n        /* \"#utility.yul\":19514:19546   */\n      mstore\n        /* \"#utility.yul\":19397:19553   */\n      pop\n      jump\t// out\n        /* \"#utility.yul\":19559:19733   */\n    tag_295:\n        /* \"#utility.yul\":19699:19725   */\n      0x596f75206e65656420746f207374617274206669727374210000000000000000\n        /* \"#utility.yul\":19695:19696   */\n      0x00\n        /* \"#utility.yul\":19687:19693   */\n      dup3\n        /* \"#utility.yul\":19683:19697   */\n      add\n        /* \"#utility.yul\":19676:19726   */\n      mstore\n        /* \"#utility.yul\":19559:19733   */\n      pop\n      jump\t// out\n        /* \"#utility.yul\":19739:19919   */\n    tag_300:\n        /* \"#utility.yul\":19879:19911   */\n      0x596f752063616e206e6f74207374617274207468652061756374696f6e210000\n        /* \"#utility.yul\":19875:19876   */\n      0x00\n        /* \"#utility.yul\":19867:19873   */\n      dup3\n        /* \"#utility.yul\":19863:19877   */\n      add\n        /* \"#utility.yul\":19856:19912   */\n      mstore\n        /* \"#utility.yul\":19739:19919   */\n      pop\n      jump\t// out\n        /* \"#utility.yul\":19925:20087   */\n    tag_305:\n        /* \"#utility.yul\":20065:20079   */\n      0x4e6f7420737461727465642e0000000000000000000000000000000000000000\n        /* \"#utility.yul\":20061:20062   */\n      0x00\n        /* \"#utility.yul\":20053:20059   */\n      dup3\n        /* \"#utility.yul\":20049:20063   */\n      add\n        /* \"#utility.yul\":20042:20080   */\n      mstore\n        /* \"#utility.yul\":19925:20087   */\n      pop\n      jump\t// out\n        /* \"#utility.yul\":20093:20207   */\n    tag_311:\n      pop\n      jump\t// out\n        /* \"#utility.yul\":20213:20385   */\n    tag_316:\n        /* \"#utility.yul\":20353:20377   */\n      0x41756374696f6e20616c726561647920656e6465642100000000000000000000\n        /* \"#utility.yul\":20349:20350   */\n      0x00\n        /* \"#utility.yul\":20341:20347   */\n      dup3\n        /* \"#utility.yul\":20337:20351   */\n      add\n        /* \"#utility.yul\":20330:20378   */\n      mstore\n        /* \"#utility.yul\":20213:20385   */\n      pop\n      jump\t// out\n        /* \"#utility.yul\":20391:20559   */\n    tag_321:\n        /* \"#utility.yul\":20531:20551   */\n      0x436f756c64206e6f742077697468647261770000000000000000000000000000\n        /* \"#utility.yul\":20527:20528   */\n      0x00\n        /* \"#utility.yul\":20519:20525   */\n      dup3\n        /* \"#utility.yul\":20515:20529   */\n      add\n        /* \"#utility.yul\":20508:20552   */\n      mstore\n        /* \"#utility.yul\":20391:20559   */\n      pop\n      jump\t// out\n        /* \"#utility.yul\":20565:20687   */\n    tag_208:\n        /* \"#utility.yul\":20638:20662   */\n      tag_431\n        /* \"#utility.yul\":20656:20661   */\n      dup2\n        /* \"#utility.yul\":20638:20662   */\n      tag_261\n      jump\t// in\n    tag_431:\n        /* \"#utility.yul\":20631:20636   */\n      dup2\n        /* \"#utility.yul\":20628:20663   */\n      eq\n        /* \"#utility.yul\":20618:20681   */\n      tag_432\n      jumpi\n        /* \"#utility.yul\":20677:20678   */\n      0x00\n        /* \"#utility.yul\":20674:20675   */\n      dup1\n        /* \"#utility.yul\":20667:20679   */\n      revert\n        /* \"#utility.yul\":20618:20681   */\n    tag_432:\n        /* \"#utility.yul\":20565:20687   */\n      pop\n      jump\t// out\n        /* \"#utility.yul\":20693:20815   */\n    tag_215:\n        /* \"#utility.yul\":20766:20790   */\n      tag_434\n        /* \"#utility.yul\":20784:20789   */\n      dup2\n        /* \"#utility.yul\":20766:20790   */\n      tag_325\n      jump\t// in\n    tag_434:\n        /* \"#utility.yul\":20759:20764   */\n      dup2\n        /* \"#utility.yul\":20756:20791   */\n      eq\n        /* \"#utility.yul\":20746:20809   */\n      tag_435\n      jumpi\n        /* \"#utility.yul\":20805:20806   */\n      0x00\n        /* \"#utility.yul\":20802:20803   */\n      dup1\n        /* \"#utility.yul\":20795:20807   */\n      revert\n        /* \"#utility.yul\":20746:20809   */\n    tag_435:\n        /* \"#utility.yul\":20693:20815   */\n      pop\n      jump\t// out\n\n    auxdata: 0xa26469706673582212206142b43eba00f6d6e5692f92aaaaa3c572f2e676fef799b73870b74022ab70a064736f6c63430008070033\n}\n",
				"bytecode": {
					"linkReferences": {},
					"object": "608060405234801561001057600080fd5b50612503806100206000396000f3fe6080604052600436106100915760003560e01c8063b0651dce11610059578063b0651dce1461015f578063b76a3b5a1461019c578063bd15bf4e146101c5578063f3fef3a314610202578063f48e9b3d1461021e57610091565b8063545c285c1461009657806357354ed1146100bf57806359d667a5146100fc578063699ff43f146101185780637bb98a6814610134575b600080fd5b3480156100a257600080fd5b506100bd60048036038101906100b89190611acb565b610261565b005b3480156100cb57600080fd5b506100e660048036038101906100e19190611b5e565b610c98565b6040516100f39190612086565b60405180910390f35b61011660048036038101906101119190611b1e565b610d33565b005b610132600480360381019061012d9190611b5e565b61105e565b005b34801561014057600080fd5b50610149611244565b6040516101569190612086565b60405180910390f35b34801561016b57600080fd5b5061018660048036038101906101819190611bb1565b61124a565b6040516101939190612086565b60405180910390f35b3480156101a857600080fd5b506101c360048036038101906101be9190611c04565b6112b9565b005b3480156101d157600080fd5b506101ec60048036038101906101e79190611bb1565b6116a2565b6040516101f99190611e32565b60405180910390f35b61021c60048036038101906102179190611b1e565b611731565b005b34801561022a57600080fd5b5061024560048036038101906102409190611b1e565b6119a1565b6040516102589796959493929190611e97565b60405180910390f35b60008060008473ffffffffffffffffffffffffffffffffffffffff1673ffffffffffffffffffffffffffffffffffffffff1681526020019081526020016000206000838152602001908152602001600020905060008490508160000160149054906101000a900460ff1661030a576040517f08c379a000000000000000000000000000000000000000000000000000000000815260040161030190611fe6565b60405180910390fd5b8160010154421015610351576040517f08c379a000000000000000000000000000000000000000000000000000000000815260040161034890611f86565b60405180910390fd5b8160000160159054906101000a900460ff16156103a3576040517f08c379a000000000000000000000000000000000000000000000000000000000815260040161039a90612046565b60405180910390fd5b600073ffffffffffffffffffffffffffffffffffffffff168260060160008460040154815260200190815260200160002060009054906101000a900473ffffffffffffffffffffffffffffffffffffffff1673ffffffffffffffffffffffffffffffffffffffff1614610b10578160020160009054906101000a900473ffffffffffffffffffffffffffffffffffffffff1673ffffffffffffffffffffffffffffffffffffffff1663b88d4fde308460060160008660040154815260200190815260200160002060009054906101000a900473ffffffffffffffffffffffffffffffffffffffff1685600301546040518463ffffffff1660e01b81526004016104ae93929190611e4d565b600060405180830381600087803b1580156104c857600080fd5b505af11580156104dc573d6000803e3d6000fd5b505050508160000160009054906101000a900473ffffffffffffffffffffffffffffffffffffffff1673ffffffffffffffffffffffffffffffffffffffff166108fc601484600501600086600401548152602001908152602001600020546105449190612142565b846005016000866004015481526020019081526020016000205461056891906121cd565b9081150290604051600060405180830381858888f19350505050158015610593573d6000803e3d6000fd5b5060008173ffffffffffffffffffffffffffffffffffffffff1663d178227a86866040518363ffffffff1660e01b81526004016105d1929190611f06565b60206040518083038186803b1580156105e957600080fd5b505afa1580156105fd573d6000803e3d6000fd5b505050506040513d601f19601f820116820180604052508101906106219190611c6b565b111561098c578073ffffffffffffffffffffffffffffffffffffffff16638da5cb5b6040518163ffffffff1660e01b815260040160206040518083038186803b15801561066d57600080fd5b505afa158015610681573d6000803e3d6000fd5b505050506040513d601f19601f820116820180604052508101906106a59190611a9e565b73ffffffffffffffffffffffffffffffffffffffff166108fc602884600501600086600401548152602001908152602001600020546106e49190612142565b9081150290604051600060405180830381858888f1935050505015801561070f573d6000803e3d6000fd5b5060005b600581101561098657600073ffffffffffffffffffffffffffffffffffffffff168273ffffffffffffffffffffffffffffffffffffffff16632973d6f88787856040518463ffffffff1660e01b815260040161077193929190611f2f565b60206040518083038186803b15801561078957600080fd5b505afa15801561079d573d6000803e3d6000fd5b505050506040513d601f19601f820116820180604052508101906107c19190611a9e565b73ffffffffffffffffffffffffffffffffffffffff161461096e578173ffffffffffffffffffffffffffffffffffffffff16632973d6f88686846040518463ffffffff1660e01b815260040161081993929190611f2f565b60206040518083038186803b15801561083157600080fd5b505afa158015610845573d6000803e3d6000fd5b505050506040513d601f19601f820116820180604052508101906108699190611a9e565b73ffffffffffffffffffffffffffffffffffffffff166108fc8373ffffffffffffffffffffffffffffffffffffffff1663d178227a88886040518363ffffffff1660e01b81526004016108bd929190611f06565b60206040518083038186803b1580156108d557600080fd5b505afa1580156108e9573d6000803e3d6000fd5b505050506040513d601f19601f8201168201806040525081019061090d9190611c6b565b602886600501600088600401548152602001908152602001600020546109339190612142565b61093d9190612142565b9081150290604051600060405180830381858888f19350505050158015610968573d6000803e3d6000fd5b50610973565b610986565b808061097e9061227f565b915050610713565b50610a76565b8073ffffffffffffffffffffffffffffffffffffffff16638da5cb5b6040518163ffffffff1660e01b815260040160206040518083038186803b1580156109d257600080fd5b505afa1580156109e6573d6000803e3d6000fd5b505050506040513d601f19601f82011682018060405250810190610a0a9190611a9e565b73ffffffffffffffffffffffffffffffffffffffff166108fc60148460050160008660040154815260200190815260200160002054610a499190612142565b9081150290604051600060405180830381858888f19350505050158015610a74573d6000803e3d6000fd5b505b816005016000836004015481526020019081526020016000205460016000828254610aa191906121cd565b9250508190555060005b8260040154811015610b0a57610af7858585600601600085815260200190815260200160002060009054906101000a900473ffffffffffffffffffffffffffffffffffffffff1661105e565b8080610b029061227f565b915050610aab565b50610bcc565b8160020160009054906101000a900473ffffffffffffffffffffffffffffffffffffffff1673ffffffffffffffffffffffffffffffffffffffff1663b88d4fde308460000160009054906101000a900473ffffffffffffffffffffffffffffffffffffffff1685600301546040518463ffffffff1660e01b8152600401610b9993929190611e4d565b600060405180830381600087803b158015610bb357600080fd5b505af1158015610bc7573d6000803e3d6000fd5b505050505b60018260000160156101000a81548160ff02191690831515021790555060008260000160146101000a81548160ff0219169083151502179055507f7d7570b046e5ead3a4f3fbc9fa2445113625a1e79823776146316bafed6b8cc58260060160008460040154815260200190815260200160002060009054906101000a900473ffffffffffffffffffffffffffffffffffffffff168360050160008560040154815260200190815260200160002054604051610c89929190611f06565b60405180910390a15050505050565b60008060008573ffffffffffffffffffffffffffffffffffffffff1673ffffffffffffffffffffffffffffffffffffffff168152602001908152602001600020600084815260200190815260200160002060070160008373ffffffffffffffffffffffffffffffffffffffff1673ffffffffffffffffffffffffffffffffffffffff1681526020019081526020016000205490509392505050565b60008060008473ffffffffffffffffffffffffffffffffffffffff1673ffffffffffffffffffffffffffffffffffffffff168152602001908152602001600020600083815260200190815260200160002090508060000160149054906101000a900460ff16610dd7576040517f08c379a0000000000000000000000000000000000000000000000000000000008152600401610dce90612026565b60405180910390fd5b80600101544210610e1d576040517f08c379a0000000000000000000000000000000000000000000000000000000008152600401610e1490611fc6565b60405180910390fd5b80600501600082600401548152602001908152602001600020543411610e78576040517f08c379a0000000000000000000000000000000000000000000000000000000008152600401610e6f90611f66565b60405180910390fd5b806004016000815480929190610e8d9061227f565b9190505550348160050160008360040154815260200190815260200160002081905550338160060160008360040154815260200190815260200160002060006101000a81548173ffffffffffffffffffffffffffffffffffffffff021916908373ffffffffffffffffffffffffffffffffffffffff16021790555080600501600082600401548152602001908152602001600020548160070160008360060160008560040154815260200190815260200160002060009054906101000a900473ffffffffffffffffffffffffffffffffffffffff1673ffffffffffffffffffffffffffffffffffffffff1673ffffffffffffffffffffffffffffffffffffffff168152602001908152602001600020819055503460016000828254610fb291906120ec565b925050819055508060060160008260040154815260200190815260200160002060009054906101000a900473ffffffffffffffffffffffffffffffffffffffff1673ffffffffffffffffffffffffffffffffffffffff167fe684a55f31b79eca403df938249029212a5925ec6be8012e099b45bc1019e5d282600501600084600401548152602001908152602001600020546040516110519190612086565b60405180910390a2505050565b60008060008573ffffffffffffffffffffffffffffffffffffffff1673ffffffffffffffffffffffffffffffffffffffff1681526020019081526020016000206000848152602001908152602001600020905060008160070160008473ffffffffffffffffffffffffffffffffffffffff1673ffffffffffffffffffffffffffffffffffffffff16815260200190815260200160002054905060008111801561110957506001548111155b611148576040517f08c379a000000000000000000000000000000000000000000000000000000000815260040161113f90612066565b60405180910390fd5b60008260070160008573ffffffffffffffffffffffffffffffffffffffff1673ffffffffffffffffffffffffffffffffffffffff168152602001908152602001600020819055508273ffffffffffffffffffffffffffffffffffffffff166108fc829081150290604051600060405180830381858888f193505050501580156111d5573d6000803e3d6000fd5b5080600160008282546111e891906121cd565b925050819055508273ffffffffffffffffffffffffffffffffffffffff167f884edad9ce6fa2440d8a54cc123490eb96d2768479d49ff9c7366125a9424364826040516112359190612086565b60405180910390a25050505050565b60015481565b60008060008573ffffffffffffffffffffffffffffffffffffffff1673ffffffffffffffffffffffffffffffffffffffff168152602001908152602001600020600084815260200190815260200160002060050160008381526020019081526020016000205490509392505050565b60008060008673ffffffffffffffffffffffffffffffffffffffff1673ffffffffffffffffffffffffffffffffffffffff16815260200190815260200160002060008581526020019081526020016000209050848160020160006101000a81548173ffffffffffffffffffffffffffffffffffffffff021916908373ffffffffffffffffffffffffffffffffffffffff1602179055508060020160009054906101000a900473ffffffffffffffffffffffffffffffffffffffff1673ffffffffffffffffffffffffffffffffffffffff16636352211e856040518263ffffffff1660e01b81526004016113ac9190612086565b60206040518083038186803b1580156113c457600080fd5b505afa1580156113d8573d6000803e3d6000fd5b505050506040513d601f19601f820116820180604052508101906113fc9190611a9e565b8160000160006101000a81548173ffffffffffffffffffffffffffffffffffffffff021916908373ffffffffffffffffffffffffffffffffffffffff16021790555060008160000160156101000a81548160ff0219169083151502179055508060000160149054906101000a900460ff16156114ad576040517f08c379a00000000000000000000000000000000000000000000000000000000081526004016114a490611fa6565b60405180910390fd5b8060000160009054906101000a900473ffffffffffffffffffffffffffffffffffffffff1673ffffffffffffffffffffffffffffffffffffffff163373ffffffffffffffffffffffffffffffffffffffff161461153f576040517f08c379a000000000000000000000000000000000000000000000000000000000815260040161153690612006565b60405180910390fd5b600081600401819055508281600501600083600401548152602001908152602001600020819055508381600301819055508060020160009054906101000a900473ffffffffffffffffffffffffffffffffffffffff1673ffffffffffffffffffffffffffffffffffffffff1663b88d4fde333084600301546040518463ffffffff1660e01b81526004016115d593929190611e4d565b600060405180830381600087803b1580156115ef57600080fd5b505af1158015611603573d6000803e3d6000fd5b5050505060018160000160146101000a81548160ff02191690831515021790555062015180826116339190612173565b4261163e91906120ec565b8160010181905550838573ffffffffffffffffffffffffffffffffffffffff167f3b305515dbe345238649f5ce343c57ae67d5727443f8d744b2b793c3231e3ad98584600101546040516116939291906120a1565b60405180910390a35050505050565b60008060008573ffffffffffffffffffffffffffffffffffffffff1673ffffffffffffffffffffffffffffffffffffffff1681526020019081526020016000206000848152602001908152602001600020600601600083815260200190815260200160002060009054906101000a900473ffffffffffffffffffffffffffffffffffffffff1690509392505050565b60008060008473ffffffffffffffffffffffffffffffffffffffff1673ffffffffffffffffffffffffffffffffffffffff1681526020019081526020016000206000838152602001908152602001600020905060008160070160003373ffffffffffffffffffffffffffffffffffffffff1673ffffffffffffffffffffffffffffffffffffffff168152602001908152602001600020549050600081141580156117dd57506001548111155b61181c576040517f08c379a000000000000000000000000000000000000000000000000000000000815260040161181390612066565b60405180910390fd5b8160060160008360040154815260200190815260200160002060009054906101000a900473ffffffffffffffffffffffffffffffffffffffff1673ffffffffffffffffffffffffffffffffffffffff163373ffffffffffffffffffffffffffffffffffffffff1614156118a657600182600401600082825461189e91906121cd565b925050819055505b60008260070160003373ffffffffffffffffffffffffffffffffffffffff1673ffffffffffffffffffffffffffffffffffffffff168152602001908152602001600020819055503373ffffffffffffffffffffffffffffffffffffffff166108fc829081150290604051600060405180830381858888f19350505050158015611933573d6000803e3d6000fd5b50806001600082825461194691906121cd565b925050819055503373ffffffffffffffffffffffffffffffffffffffff167f884edad9ce6fa2440d8a54cc123490eb96d2768479d49ff9c7366125a9424364826040516119939190612086565b60405180910390a250505050565b6000602052816000526040600020602052806000526040600020600091509150508060000160009054906101000a900473ffffffffffffffffffffffffffffffffffffffff16908060000160149054906101000a900460ff16908060000160159054906101000a900460ff16908060010154908060020160009054906101000a900473ffffffffffffffffffffffffffffffffffffffff16908060030154908060040154905087565b600081359050611a598161249f565b92915050565b600081519050611a6e8161249f565b92915050565b600081359050611a83816124b6565b92915050565b600081519050611a98816124b6565b92915050565b600060208284031215611ab457611ab3612326565b5b6000611ac284828501611a5f565b91505092915050565b600080600060608486031215611ae457611ae3612326565b5b6000611af286828701611a4a565b9350506020611b0386828701611a4a565b9250506040611b1486828701611a74565b9150509250925092565b60008060408385031215611b3557611b34612326565b5b6000611b4385828601611a4a565b9250506020611b5485828601611a74565b9150509250929050565b600080600060608486031215611b7757611b76612326565b5b6000611b8586828701611a4a565b9350506020611b9686828701611a74565b9250506040611ba786828701611a4a565b9150509250925092565b600080600060608486031215611bca57611bc9612326565b5b6000611bd886828701611a4a565b9350506020611be986828701611a74565b9250506040611bfa86828701611a74565b9150509250925092565b60008060008060808587031215611c1e57611c1d612326565b5b6000611c2c87828801611a4a565b9450506020611c3d87828801611a74565b9350506040611c4e87828801611a74565b9250506060611c5f87828801611a74565b91505092959194509250565b600060208284031215611c8157611c80612326565b5b6000611c8f84828501611a89565b91505092915050565b611ca181612201565b82525050565b611cb081612213565b82525050565b611cbf81612249565b82525050565b6000611cd2600a836120db565b9150611cdd8261232b565b602082019050919050565b6000611cf56019836120db565b9150611d0082612354565b602082019050919050565b6000611d186010836120db565b9150611d238261237d565b602082019050919050565b6000611d3b6006836120db565b9150611d46826123a6565b602082019050919050565b6000611d5e6018836120db565b9150611d69826123cf565b602082019050919050565b6000611d81601e836120db565b9150611d8c826123f8565b602082019050919050565b6000611da4600c836120db565b9150611daf82612421565b602082019050919050565b6000611dc76000836120ca565b9150611dd28261244a565b600082019050919050565b6000611dea6016836120db565b9150611df58261244d565b602082019050919050565b6000611e0d6012836120db565b9150611e1882612476565b602082019050919050565b611e2c8161223f565b82525050565b6000602082019050611e476000830184611c98565b92915050565b6000608082019050611e626000830186611c98565b611e6f6020830185611c98565b611e7c6040830184611e23565b8181036060830152611e8d81611dba565b9050949350505050565b600060e082019050611eac600083018a611c98565b611eb96020830189611ca7565b611ec66040830188611ca7565b611ed36060830187611e23565b611ee06080830186611cb6565b611eed60a0830185611e23565b611efa60c0830184611e23565b98975050505050505050565b6000604082019050611f1b6000830185611c98565b611f286020830184611e23565b9392505050565b6000606082019050611f446000830186611c98565b611f516020830185611e23565b611f5e6040830184611e23565b949350505050565b60006020820190508181036000830152611f7f81611cc5565b9050919050565b60006020820190508181036000830152611f9f81611ce8565b9050919050565b60006020820190508181036000830152611fbf81611d0b565b9050919050565b60006020820190508181036000830152611fdf81611d2e565b9050919050565b60006020820190508181036000830152611fff81611d51565b9050919050565b6000602082019050818103600083015261201f81611d74565b9050919050565b6000602082019050818103600083015261203f81611d97565b9050919050565b6000602082019050818103600083015261205f81611ddd565b9050919050565b6000602082019050818103600083015261207f81611e00565b9050919050565b600060208201905061209b6000830184611e23565b92915050565b60006040820190506120b66000830185611e23565b6120c36020830184611e23565b9392505050565b600082825260208201905092915050565b600082825260208201905092915050565b60006120f78261223f565b91506121028361223f565b9250827fffffffffffffffffffffffffffffffffffffffffffffffffffffffffffffffff03821115612137576121366122c8565b5b828201905092915050565b600061214d8261223f565b91506121588361223f565b925082612168576121676122f7565b5b828204905092915050565b600061217e8261223f565b91506121898361223f565b9250817fffffffffffffffffffffffffffffffffffffffffffffffffffffffffffffffff04831182151516156121c2576121c16122c8565b5b828202905092915050565b60006121d88261223f565b91506121e38361223f565b9250828210156121f6576121f56122c8565b5b828203905092915050565b600061220c8261221f565b9050919050565b60008115159050919050565b600073ffffffffffffffffffffffffffffffffffffffff82169050919050565b6000819050919050565b60006122548261225b565b9050919050565b60006122668261226d565b9050919050565b60006122788261221f565b9050919050565b600061228a8261223f565b91507fffffffffffffffffffffffffffffffffffffffffffffffffffffffffffffffff8214156122bd576122bc6122c8565b5b600182019050919050565b7f4e487b7100000000000000000000000000000000000000000000000000000000600052601160045260246000fd5b7f4e487b7100000000000000000000000000000000000000000000000000000000600052601260045260246000fd5b600080fd5b7f4c6f776572206269642100000000000000000000000000000000000000000000600082015250565b7f41756374696f6e206973207374696c6c206f6e676f696e672100000000000000600082015250565b7f416c726561647920737461727465642100000000000000000000000000000000600082015250565b7f456e646564210000000000000000000000000000000000000000000000000000600082015250565b7f596f75206e65656420746f207374617274206669727374210000000000000000600082015250565b7f596f752063616e206e6f74207374617274207468652061756374696f6e210000600082015250565b7f4e6f7420737461727465642e0000000000000000000000000000000000000000600082015250565b50565b7f41756374696f6e20616c726561647920656e6465642100000000000000000000600082015250565b7f436f756c64206e6f742077697468647261770000000000000000000000000000600082015250565b6124a881612201565b81146124b357600080fd5b50565b6124bf8161223f565b81146124ca57600080fd5b5056fea26469706673582212206142b43eba00f6d6e5692f92aaaaa3c572f2e676fef799b73870b74022ab70a064736f6c63430008070033",
					"opcodes": "PUSH1 0x80 PUSH1 0x40 MSTORE CALLVALUE DUP1 ISZERO PUSH2 0x10 JUMPI PUSH1 0x0 DUP1 REVERT JUMPDEST POP PUSH2 0x2503 DUP1 PUSH2 0x20 PUSH1 0x0 CODECOPY PUSH1 0x0 RETURN INVALID PUSH1 0x80 PUSH1 0x40 MSTORE PUSH1 0x4 CALLDATASIZE LT PUSH2 0x91 JUMPI PUSH1 0x0 CALLDATALOAD PUSH1 0xE0 SHR DUP1 PUSH4 0xB0651DCE GT PUSH2 0x59 JUMPI DUP1 PUSH4 0xB0651DCE EQ PUSH2 0x15F JUMPI DUP1 PUSH4 0xB76A3B5A EQ PUSH2 0x19C JUMPI DUP1 PUSH4 0xBD15BF4E EQ PUSH2 0x1C5 JUMPI DUP1 PUSH4 0xF3FEF3A3 EQ PUSH2 0x202 JUMPI DUP1 PUSH4 0xF48E9B3D EQ PUSH2 0x21E JUMPI PUSH2 0x91 JUMP JUMPDEST DUP1 PUSH4 0x545C285C EQ PUSH2 0x96 JUMPI DUP1 PUSH4 0x57354ED1 EQ PUSH2 0xBF JUMPI DUP1 PUSH4 0x59D667A5 EQ PUSH2 0xFC JUMPI DUP1 PUSH4 0x699FF43F EQ PUSH2 0x118 JUMPI DUP1 PUSH4 0x7BB98A68 EQ PUSH2 0x134 JUMPI JUMPDEST PUSH1 0x0 DUP1 REVERT JUMPDEST CALLVALUE DUP1 ISZERO PUSH2 0xA2 JUMPI PUSH1 0x0 DUP1 REVERT JUMPDEST POP PUSH2 0xBD PUSH1 0x4 DUP1 CALLDATASIZE SUB DUP2 ADD SWAP1 PUSH2 0xB8 SWAP2 SWAP1 PUSH2 0x1ACB JUMP JUMPDEST PUSH2 0x261 JUMP JUMPDEST STOP JUMPDEST CALLVALUE DUP1 ISZERO PUSH2 0xCB JUMPI PUSH1 0x0 DUP1 REVERT JUMPDEST POP PUSH2 0xE6 PUSH1 0x4 DUP1 CALLDATASIZE SUB DUP2 ADD SWAP1 PUSH2 0xE1 SWAP2 SWAP1 PUSH2 0x1B5E JUMP JUMPDEST PUSH2 0xC98 JUMP JUMPDEST PUSH1 0x40 MLOAD PUSH2 0xF3 SWAP2 SWAP1 PUSH2 0x2086 JUMP JUMPDEST PUSH1 0x40 MLOAD DUP1 SWAP2 SUB SWAP1 RETURN JUMPDEST PUSH2 0x116 PUSH1 0x4 DUP1 CALLDATASIZE SUB DUP2 ADD SWAP1 PUSH2 0x111 SWAP2 SWAP1 PUSH2 0x1B1E JUMP JUMPDEST PUSH2 0xD33 JUMP JUMPDEST STOP JUMPDEST PUSH2 0x132 PUSH1 0x4 DUP1 CALLDATASIZE SUB DUP2 ADD SWAP1 PUSH2 0x12D SWAP2 SWAP1 PUSH2 0x1B5E JUMP JUMPDEST PUSH2 0x105E JUMP JUMPDEST STOP JUMPDEST CALLVALUE DUP1 ISZERO PUSH2 0x140 JUMPI PUSH1 0x0 DUP1 REVERT JUMPDEST POP PUSH2 0x149 PUSH2 0x1244 JUMP JUMPDEST PUSH1 0x40 MLOAD PUSH2 0x156 SWAP2 SWAP1 PUSH2 0x2086 JUMP JUMPDEST PUSH1 0x40 MLOAD DUP1 SWAP2 SUB SWAP1 RETURN JUMPDEST CALLVALUE DUP1 ISZERO PUSH2 0x16B JUMPI PUSH1 0x0 DUP1 REVERT JUMPDEST POP PUSH2 0x186 PUSH1 0x4 DUP1 CALLDATASIZE SUB DUP2 ADD SWAP1 PUSH2 0x181 SWAP2 SWAP1 PUSH2 0x1BB1 JUMP JUMPDEST PUSH2 0x124A JUMP JUMPDEST PUSH1 0x40 MLOAD PUSH2 0x193 SWAP2 SWAP1 PUSH2 0x2086 JUMP JUMPDEST PUSH1 0x40 MLOAD DUP1 SWAP2 SUB SWAP1 RETURN JUMPDEST CALLVALUE DUP1 ISZERO PUSH2 0x1A8 JUMPI PUSH1 0x0 DUP1 REVERT JUMPDEST POP PUSH2 0x1C3 PUSH1 0x4 DUP1 CALLDATASIZE SUB DUP2 ADD SWAP1 PUSH2 0x1BE SWAP2 SWAP1 PUSH2 0x1C04 JUMP JUMPDEST PUSH2 0x12B9 JUMP JUMPDEST STOP JUMPDEST CALLVALUE DUP1 ISZERO PUSH2 0x1D1 JUMPI PUSH1 0x0 DUP1 REVERT JUMPDEST POP PUSH2 0x1EC PUSH1 0x4 DUP1 CALLDATASIZE SUB DUP2 ADD SWAP1 PUSH2 0x1E7 SWAP2 SWAP1 PUSH2 0x1BB1 JUMP JUMPDEST PUSH2 0x16A2 JUMP JUMPDEST PUSH1 0x40 MLOAD PUSH2 0x1F9 SWAP2 SWAP1 PUSH2 0x1E32 JUMP JUMPDEST PUSH1 0x40 MLOAD DUP1 SWAP2 SUB SWAP1 RETURN JUMPDEST PUSH2 0x21C PUSH1 0x4 DUP1 CALLDATASIZE SUB DUP2 ADD SWAP1 PUSH2 0x217 SWAP2 SWAP1 PUSH2 0x1B1E JUMP JUMPDEST PUSH2 0x1731 JUMP JUMPDEST STOP JUMPDEST CALLVALUE DUP1 ISZERO PUSH2 0x22A JUMPI PUSH1 0x0 DUP1 REVERT JUMPDEST POP PUSH2 0x245 PUSH1 0x4 DUP1 CALLDATASIZE SUB DUP2 ADD SWAP1 PUSH2 0x240 SWAP2 SWAP1 PUSH2 0x1B1E JUMP JUMPDEST PUSH2 0x19A1 JUMP JUMPDEST PUSH1 0x40 MLOAD PUSH2 0x258 SWAP8 SWAP7 SWAP6 SWAP5 SWAP4 SWAP3 SWAP2 SWAP1 PUSH2 0x1E97 JUMP JUMPDEST PUSH1 0x40 MLOAD DUP1 SWAP2 SUB SWAP1 RETURN JUMPDEST PUSH1 0x0 DUP1 PUSH1 0x0 DUP5 PUSH20 0xFFFFFFFFFFFFFFFFFFFFFFFFFFFFFFFFFFFFFFFF AND PUSH20 0xFFFFFFFFFFFFFFFFFFFFFFFFFFFFFFFFFFFFFFFF AND DUP2 MSTORE PUSH1 0x20 ADD SWAP1 DUP2 MSTORE PUSH1 0x20 ADD PUSH1 0x0 KECCAK256 PUSH1 0x0 DUP4 DUP2 MSTORE PUSH1 0x20 ADD SWAP1 DUP2 MSTORE PUSH1 0x20 ADD PUSH1 0x0 KECCAK256 SWAP1 POP PUSH1 0x0 DUP5 SWAP1 POP DUP2 PUSH1 0x0 ADD PUSH1 0x14 SWAP1 SLOAD SWAP1 PUSH2 0x100 EXP SWAP1 DIV PUSH1 0xFF AND PUSH2 0x30A JUMPI PUSH1 0x40 MLOAD PUSH32 0x8C379A000000000000000000000000000000000000000000000000000000000 DUP2 MSTORE PUSH1 0x4 ADD PUSH2 0x301 SWAP1 PUSH2 0x1FE6 JUMP JUMPDEST PUSH1 0x40 MLOAD DUP1 SWAP2 SUB SWAP1 REVERT JUMPDEST DUP2 PUSH1 0x1 ADD SLOAD TIMESTAMP LT ISZERO PUSH2 0x351 JUMPI PUSH1 0x40 MLOAD PUSH32 0x8C379A000000000000000000000000000000000000000000000000000000000 DUP2 MSTORE PUSH1 0x4 ADD PUSH2 0x348 SWAP1 PUSH2 0x1F86 JUMP JUMPDEST PUSH1 0x40 MLOAD DUP1 SWAP2 SUB SWAP1 REVERT JUMPDEST DUP2 PUSH1 0x0 ADD PUSH1 0x15 SWAP1 SLOAD SWAP1 PUSH2 0x100 EXP SWAP1 DIV PUSH1 0xFF AND ISZERO PUSH2 0x3A3 JUMPI PUSH1 0x40 MLOAD PUSH32 0x8C379A000000000000000000000000000000000000000000000000000000000 DUP2 MSTORE PUSH1 0x4 ADD PUSH2 0x39A SWAP1 PUSH2 0x2046 JUMP JUMPDEST PUSH1 0x40 MLOAD DUP1 SWAP2 SUB SWAP1 REVERT JUMPDEST PUSH1 0x0 PUSH20 0xFFFFFFFFFFFFFFFFFFFFFFFFFFFFFFFFFFFFFFFF AND DUP3 PUSH1 0x6 ADD PUSH1 0x0 DUP5 PUSH1 0x4 ADD SLOAD DUP2 MSTORE PUSH1 0x20 ADD SWAP1 DUP2 MSTORE PUSH1 0x20 ADD PUSH1 0x0 KECCAK256 PUSH1 0x0 SWAP1 SLOAD SWAP1 PUSH2 0x100 EXP SWAP1 DIV PUSH20 0xFFFFFFFFFFFFFFFFFFFFFFFFFFFFFFFFFFFFFFFF AND PUSH20 0xFFFFFFFFFFFFFFFFFFFFFFFFFFFFFFFFFFFFFFFF AND EQ PUSH2 0xB10 JUMPI DUP2 PUSH1 0x2 ADD PUSH1 0x0 SWAP1 SLOAD SWAP1 PUSH2 0x100 EXP SWAP1 DIV PUSH20 0xFFFFFFFFFFFFFFFFFFFFFFFFFFFFFFFFFFFFFFFF AND PUSH20 0xFFFFFFFFFFFFFFFFFFFFFFFFFFFFFFFFFFFFFFFF AND PUSH4 0xB88D4FDE ADDRESS DUP5 PUSH1 0x6 ADD PUSH1 0x0 DUP7 PUSH1 0x4 ADD SLOAD DUP2 MSTORE PUSH1 0x20 ADD SWAP1 DUP2 MSTORE PUSH1 0x20 ADD PUSH1 0x0 KECCAK256 PUSH1 0x0 SWAP1 SLOAD SWAP1 PUSH2 0x100 EXP SWAP1 DIV PUSH20 0xFFFFFFFFFFFFFFFFFFFFFFFFFFFFFFFFFFFFFFFF AND DUP6 PUSH1 0x3 ADD SLOAD PUSH1 0x40 MLOAD DUP5 PUSH4 0xFFFFFFFF AND PUSH1 0xE0 SHL DUP2 MSTORE PUSH1 0x4 ADD PUSH2 0x4AE SWAP4 SWAP3 SWAP2 SWAP1 PUSH2 0x1E4D JUMP JUMPDEST PUSH1 0x0 PUSH1 0x40 MLOAD DUP1 DUP4 SUB DUP2 PUSH1 0x0 DUP8 DUP1 EXTCODESIZE ISZERO DUP1 ISZERO PUSH2 0x4C8 JUMPI PUSH1 0x0 DUP1 REVERT JUMPDEST POP GAS CALL ISZERO DUP1 ISZERO PUSH2 0x4DC JUMPI RETURNDATASIZE PUSH1 0x0 DUP1 RETURNDATACOPY RETURNDATASIZE PUSH1 0x0 REVERT JUMPDEST POP POP POP POP DUP2 PUSH1 0x0 ADD PUSH1 0x0 SWAP1 SLOAD SWAP1 PUSH2 0x100 EXP SWAP1 DIV PUSH20 0xFFFFFFFFFFFFFFFFFFFFFFFFFFFFFFFFFFFFFFFF AND PUSH20 0xFFFFFFFFFFFFFFFFFFFFFFFFFFFFFFFFFFFFFFFF AND PUSH2 0x8FC PUSH1 0x14 DUP5 PUSH1 0x5 ADD PUSH1 0x0 DUP7 PUSH1 0x4 ADD SLOAD DUP2 MSTORE PUSH1 0x20 ADD SWAP1 DUP2 MSTORE PUSH1 0x20 ADD PUSH1 0x0 KECCAK256 SLOAD PUSH2 0x544 SWAP2 SWAP1 PUSH2 0x2142 JUMP JUMPDEST DUP5 PUSH1 0x5 ADD PUSH1 0x0 DUP7 PUSH1 0x4 ADD SLOAD DUP2 MSTORE PUSH1 0x20 ADD SWAP1 DUP2 MSTORE PUSH1 0x20 ADD PUSH1 0x0 KECCAK256 SLOAD PUSH2 0x568 SWAP2 SWAP1 PUSH2 0x21CD JUMP JUMPDEST SWAP1 DUP2 ISZERO MUL SWAP1 PUSH1 0x40 MLOAD PUSH1 0x0 PUSH1 0x40 MLOAD DUP1 DUP4 SUB DUP2 DUP6 DUP9 DUP9 CALL SWAP4 POP POP POP POP ISZERO DUP1 ISZERO PUSH2 0x593 JUMPI RETURNDATASIZE PUSH1 0x0 DUP1 RETURNDATACOPY RETURNDATASIZE PUSH1 0x0 REVERT JUMPDEST POP PUSH1 0x0 DUP2 PUSH20 0xFFFFFFFFFFFFFFFFFFFFFFFFFFFFFFFFFFFFFFFF AND PUSH4 0xD178227A DUP7 DUP7 PUSH1 0x40 MLOAD DUP4 PUSH4 0xFFFFFFFF AND PUSH1 0xE0 SHL DUP2 MSTORE PUSH1 0x4 ADD PUSH2 0x5D1 SWAP3 SWAP2 SWAP1 PUSH2 0x1F06 JUMP JUMPDEST PUSH1 0x20 PUSH1 0x40 MLOAD DUP1 DUP4 SUB DUP2 DUP7 DUP1 EXTCODESIZE ISZERO DUP1 ISZERO PUSH2 0x5E9 JUMPI PUSH1 0x0 DUP1 REVERT JUMPDEST POP GAS STATICCALL ISZERO DUP1 ISZERO PUSH2 0x5FD JUMPI RETURNDATASIZE PUSH1 0x0 DUP1 RETURNDATACOPY RETURNDATASIZE PUSH1 0x0 REVERT JUMPDEST POP POP POP POP PUSH1 0x40 MLOAD RETURNDATASIZE PUSH1 0x1F NOT PUSH1 0x1F DUP3 ADD AND DUP3 ADD DUP1 PUSH1 0x40 MSTORE POP DUP2 ADD SWAP1 PUSH2 0x621 SWAP2 SWAP1 PUSH2 0x1C6B JUMP JUMPDEST GT ISZERO PUSH2 0x98C JUMPI DUP1 PUSH20 0xFFFFFFFFFFFFFFFFFFFFFFFFFFFFFFFFFFFFFFFF AND PUSH4 0x8DA5CB5B PUSH1 0x40 MLOAD DUP2 PUSH4 0xFFFFFFFF AND PUSH1 0xE0 SHL DUP2 MSTORE PUSH1 0x4 ADD PUSH1 0x20 PUSH1 0x40 MLOAD DUP1 DUP4 SUB DUP2 DUP7 DUP1 EXTCODESIZE ISZERO DUP1 ISZERO PUSH2 0x66D JUMPI PUSH1 0x0 DUP1 REVERT JUMPDEST POP GAS STATICCALL ISZERO DUP1 ISZERO PUSH2 0x681 JUMPI RETURNDATASIZE PUSH1 0x0 DUP1 RETURNDATACOPY RETURNDATASIZE PUSH1 0x0 REVERT JUMPDEST POP POP POP POP PUSH1 0x40 MLOAD RETURNDATASIZE PUSH1 0x1F NOT PUSH1 0x1F DUP3 ADD AND DUP3 ADD DUP1 PUSH1 0x40 MSTORE POP DUP2 ADD SWAP1 PUSH2 0x6A5 SWAP2 SWAP1 PUSH2 0x1A9E JUMP JUMPDEST PUSH20 0xFFFFFFFFFFFFFFFFFFFFFFFFFFFFFFFFFFFFFFFF AND PUSH2 0x8FC PUSH1 0x28 DUP5 PUSH1 0x5 ADD PUSH1 0x0 DUP7 PUSH1 0x4 ADD SLOAD DUP2 MSTORE PUSH1 0x20 ADD SWAP1 DUP2 MSTORE PUSH1 0x20 ADD PUSH1 0x0 KECCAK256 SLOAD PUSH2 0x6E4 SWAP2 SWAP1 PUSH2 0x2142 JUMP JUMPDEST SWAP1 DUP2 ISZERO MUL SWAP1 PUSH1 0x40 MLOAD PUSH1 0x0 PUSH1 0x40 MLOAD DUP1 DUP4 SUB DUP2 DUP6 DUP9 DUP9 CALL SWAP4 POP POP POP POP ISZERO DUP1 ISZERO PUSH2 0x70F JUMPI RETURNDATASIZE PUSH1 0x0 DUP1 RETURNDATACOPY RETURNDATASIZE PUSH1 0x0 REVERT JUMPDEST POP PUSH1 0x0 JUMPDEST PUSH1 0x5 DUP2 LT ISZERO PUSH2 0x986 JUMPI PUSH1 0x0 PUSH20 0xFFFFFFFFFFFFFFFFFFFFFFFFFFFFFFFFFFFFFFFF AND DUP3 PUSH20 0xFFFFFFFFFFFFFFFFFFFFFFFFFFFFFFFFFFFFFFFF AND PUSH4 0x2973D6F8 DUP8 DUP8 DUP6 PUSH1 0x40 MLOAD DUP5 PUSH4 0xFFFFFFFF AND PUSH1 0xE0 SHL DUP2 MSTORE PUSH1 0x4 ADD PUSH2 0x771 SWAP4 SWAP3 SWAP2 SWAP1 PUSH2 0x1F2F JUMP JUMPDEST PUSH1 0x20 PUSH1 0x40 MLOAD DUP1 DUP4 SUB DUP2 DUP7 DUP1 EXTCODESIZE ISZERO DUP1 ISZERO PUSH2 0x789 JUMPI PUSH1 0x0 DUP1 REVERT JUMPDEST POP GAS STATICCALL ISZERO DUP1 ISZERO PUSH2 0x79D JUMPI RETURNDATASIZE PUSH1 0x0 DUP1 RETURNDATACOPY RETURNDATASIZE PUSH1 0x0 REVERT JUMPDEST POP POP POP POP PUSH1 0x40 MLOAD RETURNDATASIZE PUSH1 0x1F NOT PUSH1 0x1F DUP3 ADD AND DUP3 ADD DUP1 PUSH1 0x40 MSTORE POP DUP2 ADD SWAP1 PUSH2 0x7C1 SWAP2 SWAP1 PUSH2 0x1A9E JUMP JUMPDEST PUSH20 0xFFFFFFFFFFFFFFFFFFFFFFFFFFFFFFFFFFFFFFFF AND EQ PUSH2 0x96E JUMPI DUP2 PUSH20 0xFFFFFFFFFFFFFFFFFFFFFFFFFFFFFFFFFFFFFFFF AND PUSH4 0x2973D6F8 DUP7 DUP7 DUP5 PUSH1 0x40 MLOAD DUP5 PUSH4 0xFFFFFFFF AND PUSH1 0xE0 SHL DUP2 MSTORE PUSH1 0x4 ADD PUSH2 0x819 SWAP4 SWAP3 SWAP2 SWAP1 PUSH2 0x1F2F JUMP JUMPDEST PUSH1 0x20 PUSH1 0x40 MLOAD DUP1 DUP4 SUB DUP2 DUP7 DUP1 EXTCODESIZE ISZERO DUP1 ISZERO PUSH2 0x831 JUMPI PUSH1 0x0 DUP1 REVERT JUMPDEST POP GAS STATICCALL ISZERO DUP1 ISZERO PUSH2 0x845 JUMPI RETURNDATASIZE PUSH1 0x0 DUP1 RETURNDATACOPY RETURNDATASIZE PUSH1 0x0 REVERT JUMPDEST POP POP POP POP PUSH1 0x40 MLOAD RETURNDATASIZE PUSH1 0x1F NOT PUSH1 0x1F DUP3 ADD AND DUP3 ADD DUP1 PUSH1 0x40 MSTORE POP DUP2 ADD SWAP1 PUSH2 0x869 SWAP2 SWAP1 PUSH2 0x1A9E JUMP JUMPDEST PUSH20 0xFFFFFFFFFFFFFFFFFFFFFFFFFFFFFFFFFFFFFFFF AND PUSH2 0x8FC DUP4 PUSH20 0xFFFFFFFFFFFFFFFFFFFFFFFFFFFFFFFFFFFFFFFF AND PUSH4 0xD178227A DUP9 DUP9 PUSH1 0x40 MLOAD DUP4 PUSH4 0xFFFFFFFF AND PUSH1 0xE0 SHL DUP2 MSTORE PUSH1 0x4 ADD PUSH2 0x8BD SWAP3 SWAP2 SWAP1 PUSH2 0x1F06 JUMP JUMPDEST PUSH1 0x20 PUSH1 0x40 MLOAD DUP1 DUP4 SUB DUP2 DUP7 DUP1 EXTCODESIZE ISZERO DUP1 ISZERO PUSH2 0x8D5 JUMPI PUSH1 0x0 DUP1 REVERT JUMPDEST POP GAS STATICCALL ISZERO DUP1 ISZERO PUSH2 0x8E9 JUMPI RETURNDATASIZE PUSH1 0x0 DUP1 RETURNDATACOPY RETURNDATASIZE PUSH1 0x0 REVERT JUMPDEST POP POP POP POP PUSH1 0x40 MLOAD RETURNDATASIZE PUSH1 0x1F NOT PUSH1 0x1F DUP3 ADD AND DUP3 ADD DUP1 PUSH1 0x40 MSTORE POP DUP2 ADD SWAP1 PUSH2 0x90D SWAP2 SWAP1 PUSH2 0x1C6B JUMP JUMPDEST PUSH1 0x28 DUP7 PUSH1 0x5 ADD PUSH1 0x0 DUP9 PUSH1 0x4 ADD SLOAD DUP2 MSTORE PUSH1 0x20 ADD SWAP1 DUP2 MSTORE PUSH1 0x20 ADD PUSH1 0x0 KECCAK256 SLOAD PUSH2 0x933 SWAP2 SWAP1 PUSH2 0x2142 JUMP JUMPDEST PUSH2 0x93D SWAP2 SWAP1 PUSH2 0x2142 JUMP JUMPDEST SWAP1 DUP2 ISZERO MUL SWAP1 PUSH1 0x40 MLOAD PUSH1 0x0 PUSH1 0x40 MLOAD DUP1 DUP4 SUB DUP2 DUP6 DUP9 DUP9 CALL SWAP4 POP POP POP POP ISZERO DUP1 ISZERO PUSH2 0x968 JUMPI RETURNDATASIZE PUSH1 0x0 DUP1 RETURNDATACOPY RETURNDATASIZE PUSH1 0x0 REVERT JUMPDEST POP PUSH2 0x973 JUMP JUMPDEST PUSH2 0x986 JUMP JUMPDEST DUP1 DUP1 PUSH2 0x97E SWAP1 PUSH2 0x227F JUMP JUMPDEST SWAP2 POP POP PUSH2 0x713 JUMP JUMPDEST POP PUSH2 0xA76 JUMP JUMPDEST DUP1 PUSH20 0xFFFFFFFFFFFFFFFFFFFFFFFFFFFFFFFFFFFFFFFF AND PUSH4 0x8DA5CB5B PUSH1 0x40 MLOAD DUP2 PUSH4 0xFFFFFFFF AND PUSH1 0xE0 SHL DUP2 MSTORE PUSH1 0x4 ADD PUSH1 0x20 PUSH1 0x40 MLOAD DUP1 DUP4 SUB DUP2 DUP7 DUP1 EXTCODESIZE ISZERO DUP1 ISZERO PUSH2 0x9D2 JUMPI PUSH1 0x0 DUP1 REVERT JUMPDEST POP GAS STATICCALL ISZERO DUP1 ISZERO PUSH2 0x9E6 JUMPI RETURNDATASIZE PUSH1 0x0 DUP1 RETURNDATACOPY RETURNDATASIZE PUSH1 0x0 REVERT JUMPDEST POP POP POP POP PUSH1 0x40 MLOAD RETURNDATASIZE PUSH1 0x1F NOT PUSH1 0x1F DUP3 ADD AND DUP3 ADD DUP1 PUSH1 0x40 MSTORE POP DUP2 ADD SWAP1 PUSH2 0xA0A SWAP2 SWAP1 PUSH2 0x1A9E JUMP JUMPDEST PUSH20 0xFFFFFFFFFFFFFFFFFFFFFFFFFFFFFFFFFFFFFFFF AND PUSH2 0x8FC PUSH1 0x14 DUP5 PUSH1 0x5 ADD PUSH1 0x0 DUP7 PUSH1 0x4 ADD SLOAD DUP2 MSTORE PUSH1 0x20 ADD SWAP1 DUP2 MSTORE PUSH1 0x20 ADD PUSH1 0x0 KECCAK256 SLOAD PUSH2 0xA49 SWAP2 SWAP1 PUSH2 0x2142 JUMP JUMPDEST SWAP1 DUP2 ISZERO MUL SWAP1 PUSH1 0x40 MLOAD PUSH1 0x0 PUSH1 0x40 MLOAD DUP1 DUP4 SUB DUP2 DUP6 DUP9 DUP9 CALL SWAP4 POP POP POP POP ISZERO DUP1 ISZERO PUSH2 0xA74 JUMPI RETURNDATASIZE PUSH1 0x0 DUP1 RETURNDATACOPY RETURNDATASIZE PUSH1 0x0 REVERT JUMPDEST POP JUMPDEST DUP2 PUSH1 0x5 ADD PUSH1 0x0 DUP4 PUSH1 0x4 ADD SLOAD DUP2 MSTORE PUSH1 0x20 ADD SWAP1 DUP2 MSTORE PUSH1 0x20 ADD PUSH1 0x0 KECCAK256 SLOAD PUSH1 0x1 PUSH1 0x0 DUP3 DUP3 SLOAD PUSH2 0xAA1 SWAP2 SWAP1 PUSH2 0x21CD JUMP JUMPDEST SWAP3 POP POP DUP2 SWAP1 SSTORE POP PUSH1 0x0 JUMPDEST DUP3 PUSH1 0x4 ADD SLOAD DUP2 LT ISZERO PUSH2 0xB0A JUMPI PUSH2 0xAF7 DUP6 DUP6 DUP6 PUSH1 0x6 ADD PUSH1 0x0 DUP6 DUP2 MSTORE PUSH1 0x20 ADD SWAP1 DUP2 MSTORE PUSH1 0x20 ADD PUSH1 0x0 KECCAK256 PUSH1 0x0 SWAP1 SLOAD SWAP1 PUSH2 0x100 EXP SWAP1 DIV PUSH20 0xFFFFFFFFFFFFFFFFFFFFFFFFFFFFFFFFFFFFFFFF AND PUSH2 0x105E JUMP JUMPDEST DUP1 DUP1 PUSH2 0xB02 SWAP1 PUSH2 0x227F JUMP JUMPDEST SWAP2 POP POP PUSH2 0xAAB JUMP JUMPDEST POP PUSH2 0xBCC JUMP JUMPDEST DUP2 PUSH1 0x2 ADD PUSH1 0x0 SWAP1 SLOAD SWAP1 PUSH2 0x100 EXP SWAP1 DIV PUSH20 0xFFFFFFFFFFFFFFFFFFFFFFFFFFFFFFFFFFFFFFFF AND PUSH20 0xFFFFFFFFFFFFFFFFFFFFFFFFFFFFFFFFFFFFFFFF AND PUSH4 0xB88D4FDE ADDRESS DUP5 PUSH1 0x0 ADD PUSH1 0x0 SWAP1 SLOAD SWAP1 PUSH2 0x100 EXP SWAP1 DIV PUSH20 0xFFFFFFFFFFFFFFFFFFFFFFFFFFFFFFFFFFFFFFFF AND DUP6 PUSH1 0x3 ADD SLOAD PUSH1 0x40 MLOAD DUP5 PUSH4 0xFFFFFFFF AND PUSH1 0xE0 SHL DUP2 MSTORE PUSH1 0x4 ADD PUSH2 0xB99 SWAP4 SWAP3 SWAP2 SWAP1 PUSH2 0x1E4D JUMP JUMPDEST PUSH1 0x0 PUSH1 0x40 MLOAD DUP1 DUP4 SUB DUP2 PUSH1 0x0 DUP8 DUP1 EXTCODESIZE ISZERO DUP1 ISZERO PUSH2 0xBB3 JUMPI PUSH1 0x0 DUP1 REVERT JUMPDEST POP GAS CALL ISZERO DUP1 ISZERO PUSH2 0xBC7 JUMPI RETURNDATASIZE PUSH1 0x0 DUP1 RETURNDATACOPY RETURNDATASIZE PUSH1 0x0 REVERT JUMPDEST POP POP POP POP JUMPDEST PUSH1 0x1 DUP3 PUSH1 0x0 ADD PUSH1 0x15 PUSH2 0x100 EXP DUP2 SLOAD DUP2 PUSH1 0xFF MUL NOT AND SWAP1 DUP4 ISZERO ISZERO MUL OR SWAP1 SSTORE POP PUSH1 0x0 DUP3 PUSH1 0x0 ADD PUSH1 0x14 PUSH2 0x100 EXP DUP2 SLOAD DUP2 PUSH1 0xFF MUL NOT AND SWAP1 DUP4 ISZERO ISZERO MUL OR SWAP1 SSTORE POP PUSH32 0x7D7570B046E5EAD3A4F3FBC9FA2445113625A1E79823776146316BAFED6B8CC5 DUP3 PUSH1 0x6 ADD PUSH1 0x0 DUP5 PUSH1 0x4 ADD SLOAD DUP2 MSTORE PUSH1 0x20 ADD SWAP1 DUP2 MSTORE PUSH1 0x20 ADD PUSH1 0x0 KECCAK256 PUSH1 0x0 SWAP1 SLOAD SWAP1 PUSH2 0x100 EXP SWAP1 DIV PUSH20 0xFFFFFFFFFFFFFFFFFFFFFFFFFFFFFFFFFFFFFFFF AND DUP4 PUSH1 0x5 ADD PUSH1 0x0 DUP6 PUSH1 0x4 ADD SLOAD DUP2 MSTORE PUSH1 0x20 ADD SWAP1 DUP2 MSTORE PUSH1 0x20 ADD PUSH1 0x0 KECCAK256 SLOAD PUSH1 0x40 MLOAD PUSH2 0xC89 SWAP3 SWAP2 SWAP1 PUSH2 0x1F06 JUMP JUMPDEST PUSH1 0x40 MLOAD DUP1 SWAP2 SUB SWAP1 LOG1 POP POP POP POP POP JUMP JUMPDEST PUSH1 0x0 DUP1 PUSH1 0x0 DUP6 PUSH20 0xFFFFFFFFFFFFFFFFFFFFFFFFFFFFFFFFFFFFFFFF AND PUSH20 0xFFFFFFFFFFFFFFFFFFFFFFFFFFFFFFFFFFFFFFFF AND DUP2 MSTORE PUSH1 0x20 ADD SWAP1 DUP2 MSTORE PUSH1 0x20 ADD PUSH1 0x0 KECCAK256 PUSH1 0x0 DUP5 DUP2 MSTORE PUSH1 0x20 ADD SWAP1 DUP2 MSTORE PUSH1 0x20 ADD PUSH1 0x0 KECCAK256 PUSH1 0x7 ADD PUSH1 0x0 DUP4 PUSH20 0xFFFFFFFFFFFFFFFFFFFFFFFFFFFFFFFFFFFFFFFF AND PUSH20 0xFFFFFFFFFFFFFFFFFFFFFFFFFFFFFFFFFFFFFFFF AND DUP2 MSTORE PUSH1 0x20 ADD SWAP1 DUP2 MSTORE PUSH1 0x20 ADD PUSH1 0x0 KECCAK256 SLOAD SWAP1 POP SWAP4 SWAP3 POP POP POP JUMP JUMPDEST PUSH1 0x0 DUP1 PUSH1 0x0 DUP5 PUSH20 0xFFFFFFFFFFFFFFFFFFFFFFFFFFFFFFFFFFFFFFFF AND PUSH20 0xFFFFFFFFFFFFFFFFFFFFFFFFFFFFFFFFFFFFFFFF AND DUP2 MSTORE PUSH1 0x20 ADD SWAP1 DUP2 MSTORE PUSH1 0x20 ADD PUSH1 0x0 KECCAK256 PUSH1 0x0 DUP4 DUP2 MSTORE PUSH1 0x20 ADD SWAP1 DUP2 MSTORE PUSH1 0x20 ADD PUSH1 0x0 KECCAK256 SWAP1 POP DUP1 PUSH1 0x0 ADD PUSH1 0x14 SWAP1 SLOAD SWAP1 PUSH2 0x100 EXP SWAP1 DIV PUSH1 0xFF AND PUSH2 0xDD7 JUMPI PUSH1 0x40 MLOAD PUSH32 0x8C379A000000000000000000000000000000000000000000000000000000000 DUP2 MSTORE PUSH1 0x4 ADD PUSH2 0xDCE SWAP1 PUSH2 0x2026 JUMP JUMPDEST PUSH1 0x40 MLOAD DUP1 SWAP2 SUB SWAP1 REVERT JUMPDEST DUP1 PUSH1 0x1 ADD SLOAD TIMESTAMP LT PUSH2 0xE1D JUMPI PUSH1 0x40 MLOAD PUSH32 0x8C379A000000000000000000000000000000000000000000000000000000000 DUP2 MSTORE PUSH1 0x4 ADD PUSH2 0xE14 SWAP1 PUSH2 0x1FC6 JUMP JUMPDEST PUSH1 0x40 MLOAD DUP1 SWAP2 SUB SWAP1 REVERT JUMPDEST DUP1 PUSH1 0x5 ADD PUSH1 0x0 DUP3 PUSH1 0x4 ADD SLOAD DUP2 MSTORE PUSH1 0x20 ADD SWAP1 DUP2 MSTORE PUSH1 0x20 ADD PUSH1 0x0 KECCAK256 SLOAD CALLVALUE GT PUSH2 0xE78 JUMPI PUSH1 0x40 MLOAD PUSH32 0x8C379A000000000000000000000000000000000000000000000000000000000 DUP2 MSTORE PUSH1 0x4 ADD PUSH2 0xE6F SWAP1 PUSH2 0x1F66 JUMP JUMPDEST PUSH1 0x40 MLOAD DUP1 SWAP2 SUB SWAP1 REVERT JUMPDEST DUP1 PUSH1 0x4 ADD PUSH1 0x0 DUP2 SLOAD DUP1 SWAP3 SWAP2 SWAP1 PUSH2 0xE8D SWAP1 PUSH2 0x227F JUMP JUMPDEST SWAP2 SWAP1 POP SSTORE POP CALLVALUE DUP2 PUSH1 0x5 ADD PUSH1 0x0 DUP4 PUSH1 0x4 ADD SLOAD DUP2 MSTORE PUSH1 0x20 ADD SWAP1 DUP2 MSTORE PUSH1 0x20 ADD PUSH1 0x0 KECCAK256 DUP2 SWAP1 SSTORE POP CALLER DUP2 PUSH1 0x6 ADD PUSH1 0x0 DUP4 PUSH1 0x4 ADD SLOAD DUP2 MSTORE PUSH1 0x20 ADD SWAP1 DUP2 MSTORE PUSH1 0x20 ADD PUSH1 0x0 KECCAK256 PUSH1 0x0 PUSH2 0x100 EXP DUP2 SLOAD DUP2 PUSH20 0xFFFFFFFFFFFFFFFFFFFFFFFFFFFFFFFFFFFFFFFF MUL NOT AND SWAP1 DUP4 PUSH20 0xFFFFFFFFFFFFFFFFFFFFFFFFFFFFFFFFFFFFFFFF AND MUL OR SWAP1 SSTORE POP DUP1 PUSH1 0x5 ADD PUSH1 0x0 DUP3 PUSH1 0x4 ADD SLOAD DUP2 MSTORE PUSH1 0x20 ADD SWAP1 DUP2 MSTORE PUSH1 0x20 ADD PUSH1 0x0 KECCAK256 SLOAD DUP2 PUSH1 0x7 ADD PUSH1 0x0 DUP4 PUSH1 0x6 ADD PUSH1 0x0 DUP6 PUSH1 0x4 ADD SLOAD DUP2 MSTORE PUSH1 0x20 ADD SWAP1 DUP2 MSTORE PUSH1 0x20 ADD PUSH1 0x0 KECCAK256 PUSH1 0x0 SWAP1 SLOAD SWAP1 PUSH2 0x100 EXP SWAP1 DIV PUSH20 0xFFFFFFFFFFFFFFFFFFFFFFFFFFFFFFFFFFFFFFFF AND PUSH20 0xFFFFFFFFFFFFFFFFFFFFFFFFFFFFFFFFFFFFFFFF AND PUSH20 0xFFFFFFFFFFFFFFFFFFFFFFFFFFFFFFFFFFFFFFFF AND DUP2 MSTORE PUSH1 0x20 ADD SWAP1 DUP2 MSTORE PUSH1 0x20 ADD PUSH1 0x0 KECCAK256 DUP2 SWAP1 SSTORE POP CALLVALUE PUSH1 0x1 PUSH1 0x0 DUP3 DUP3 SLOAD PUSH2 0xFB2 SWAP2 SWAP1 PUSH2 0x20EC JUMP JUMPDEST SWAP3 POP POP DUP2 SWAP1 SSTORE POP DUP1 PUSH1 0x6 ADD PUSH1 0x0 DUP3 PUSH1 0x4 ADD SLOAD DUP2 MSTORE PUSH1 0x20 ADD SWAP1 DUP2 MSTORE PUSH1 0x20 ADD PUSH1 0x0 KECCAK256 PUSH1 0x0 SWAP1 SLOAD SWAP1 PUSH2 0x100 EXP SWAP1 DIV PUSH20 0xFFFFFFFFFFFFFFFFFFFFFFFFFFFFFFFFFFFFFFFF AND PUSH20 0xFFFFFFFFFFFFFFFFFFFFFFFFFFFFFFFFFFFFFFFF AND PUSH32 0xE684A55F31B79ECA403DF938249029212A5925EC6BE8012E099B45BC1019E5D2 DUP3 PUSH1 0x5 ADD PUSH1 0x0 DUP5 PUSH1 0x4 ADD SLOAD DUP2 MSTORE PUSH1 0x20 ADD SWAP1 DUP2 MSTORE PUSH1 0x20 ADD PUSH1 0x0 KECCAK256 SLOAD PUSH1 0x40 MLOAD PUSH2 0x1051 SWAP2 SWAP1 PUSH2 0x2086 JUMP JUMPDEST PUSH1 0x40 MLOAD DUP1 SWAP2 SUB SWAP1 LOG2 POP POP POP JUMP JUMPDEST PUSH1 0x0 DUP1 PUSH1 0x0 DUP6 PUSH20 0xFFFFFFFFFFFFFFFFFFFFFFFFFFFFFFFFFFFFFFFF AND PUSH20 0xFFFFFFFFFFFFFFFFFFFFFFFFFFFFFFFFFFFFFFFF AND DUP2 MSTORE PUSH1 0x20 ADD SWAP1 DUP2 MSTORE PUSH1 0x20 ADD PUSH1 0x0 KECCAK256 PUSH1 0x0 DUP5 DUP2 MSTORE PUSH1 0x20 ADD SWAP1 DUP2 MSTORE PUSH1 0x20 ADD PUSH1 0x0 KECCAK256 SWAP1 POP PUSH1 0x0 DUP2 PUSH1 0x7 ADD PUSH1 0x0 DUP5 PUSH20 0xFFFFFFFFFFFFFFFFFFFFFFFFFFFFFFFFFFFFFFFF AND PUSH20 0xFFFFFFFFFFFFFFFFFFFFFFFFFFFFFFFFFFFFFFFF AND DUP2 MSTORE PUSH1 0x20 ADD SWAP1 DUP2 MSTORE PUSH1 0x20 ADD PUSH1 0x0 KECCAK256 SLOAD SWAP1 POP PUSH1 0x0 DUP2 GT DUP1 ISZERO PUSH2 0x1109 JUMPI POP PUSH1 0x1 SLOAD DUP2 GT ISZERO JUMPDEST PUSH2 0x1148 JUMPI PUSH1 0x40 MLOAD PUSH32 0x8C379A000000000000000000000000000000000000000000000000000000000 DUP2 MSTORE PUSH1 0x4 ADD PUSH2 0x113F SWAP1 PUSH2 0x2066 JUMP JUMPDEST PUSH1 0x40 MLOAD DUP1 SWAP2 SUB SWAP1 REVERT JUMPDEST PUSH1 0x0 DUP3 PUSH1 0x7 ADD PUSH1 0x0 DUP6 PUSH20 0xFFFFFFFFFFFFFFFFFFFFFFFFFFFFFFFFFFFFFFFF AND PUSH20 0xFFFFFFFFFFFFFFFFFFFFFFFFFFFFFFFFFFFFFFFF AND DUP2 MSTORE PUSH1 0x20 ADD SWAP1 DUP2 MSTORE PUSH1 0x20 ADD PUSH1 0x0 KECCAK256 DUP2 SWAP1 SSTORE POP DUP3 PUSH20 0xFFFFFFFFFFFFFFFFFFFFFFFFFFFFFFFFFFFFFFFF AND PUSH2 0x8FC DUP3 SWAP1 DUP2 ISZERO MUL SWAP1 PUSH1 0x40 MLOAD PUSH1 0x0 PUSH1 0x40 MLOAD DUP1 DUP4 SUB DUP2 DUP6 DUP9 DUP9 CALL SWAP4 POP POP POP POP ISZERO DUP1 ISZERO PUSH2 0x11D5 JUMPI RETURNDATASIZE PUSH1 0x0 DUP1 RETURNDATACOPY RETURNDATASIZE PUSH1 0x0 REVERT JUMPDEST POP DUP1 PUSH1 0x1 PUSH1 0x0 DUP3 DUP3 SLOAD PUSH2 0x11E8 SWAP2 SWAP1 PUSH2 0x21CD JUMP JUMPDEST SWAP3 POP POP DUP2 SWAP1 SSTORE POP DUP3 PUSH20 0xFFFFFFFFFFFFFFFFFFFFFFFFFFFFFFFFFFFFFFFF AND PUSH32 0x884EDAD9CE6FA2440D8A54CC123490EB96D2768479D49FF9C7366125A9424364 DUP3 PUSH1 0x40 MLOAD PUSH2 0x1235 SWAP2 SWAP1 PUSH2 0x2086 JUMP JUMPDEST PUSH1 0x40 MLOAD DUP1 SWAP2 SUB SWAP1 LOG2 POP POP POP POP POP JUMP JUMPDEST PUSH1 0x1 SLOAD DUP2 JUMP JUMPDEST PUSH1 0x0 DUP1 PUSH1 0x0 DUP6 PUSH20 0xFFFFFFFFFFFFFFFFFFFFFFFFFFFFFFFFFFFFFFFF AND PUSH20 0xFFFFFFFFFFFFFFFFFFFFFFFFFFFFFFFFFFFFFFFF AND DUP2 MSTORE PUSH1 0x20 ADD SWAP1 DUP2 MSTORE PUSH1 0x20 ADD PUSH1 0x0 KECCAK256 PUSH1 0x0 DUP5 DUP2 MSTORE PUSH1 0x20 ADD SWAP1 DUP2 MSTORE PUSH1 0x20 ADD PUSH1 0x0 KECCAK256 PUSH1 0x5 ADD PUSH1 0x0 DUP4 DUP2 MSTORE PUSH1 0x20 ADD SWAP1 DUP2 MSTORE PUSH1 0x20 ADD PUSH1 0x0 KECCAK256 SLOAD SWAP1 POP SWAP4 SWAP3 POP POP POP JUMP JUMPDEST PUSH1 0x0 DUP1 PUSH1 0x0 DUP7 PUSH20 0xFFFFFFFFFFFFFFFFFFFFFFFFFFFFFFFFFFFFFFFF AND PUSH20 0xFFFFFFFFFFFFFFFFFFFFFFFFFFFFFFFFFFFFFFFF AND DUP2 MSTORE PUSH1 0x20 ADD SWAP1 DUP2 MSTORE PUSH1 0x20 ADD PUSH1 0x0 KECCAK256 PUSH1 0x0 DUP6 DUP2 MSTORE PUSH1 0x20 ADD SWAP1 DUP2 MSTORE PUSH1 0x20 ADD PUSH1 0x0 KECCAK256 SWAP1 POP DUP5 DUP2 PUSH1 0x2 ADD PUSH1 0x0 PUSH2 0x100 EXP DUP2 SLOAD DUP2 PUSH20 0xFFFFFFFFFFFFFFFFFFFFFFFFFFFFFFFFFFFFFFFF MUL NOT AND SWAP1 DUP4 PUSH20 0xFFFFFFFFFFFFFFFFFFFFFFFFFFFFFFFFFFFFFFFF AND MUL OR SWAP1 SSTORE POP DUP1 PUSH1 0x2 ADD PUSH1 0x0 SWAP1 SLOAD SWAP1 PUSH2 0x100 EXP SWAP1 DIV PUSH20 0xFFFFFFFFFFFFFFFFFFFFFFFFFFFFFFFFFFFFFFFF AND PUSH20 0xFFFFFFFFFFFFFFFFFFFFFFFFFFFFFFFFFFFFFFFF AND PUSH4 0x6352211E DUP6 PUSH1 0x40 MLOAD DUP3 PUSH4 0xFFFFFFFF AND PUSH1 0xE0 SHL DUP2 MSTORE PUSH1 0x4 ADD PUSH2 0x13AC SWAP2 SWAP1 PUSH2 0x2086 JUMP JUMPDEST PUSH1 0x20 PUSH1 0x40 MLOAD DUP1 DUP4 SUB DUP2 DUP7 DUP1 EXTCODESIZE ISZERO DUP1 ISZERO PUSH2 0x13C4 JUMPI PUSH1 0x0 DUP1 REVERT JUMPDEST POP GAS STATICCALL ISZERO DUP1 ISZERO PUSH2 0x13D8 JUMPI RETURNDATASIZE PUSH1 0x0 DUP1 RETURNDATACOPY RETURNDATASIZE PUSH1 0x0 REVERT JUMPDEST POP POP POP POP PUSH1 0x40 MLOAD RETURNDATASIZE PUSH1 0x1F NOT PUSH1 0x1F DUP3 ADD AND DUP3 ADD DUP1 PUSH1 0x40 MSTORE POP DUP2 ADD SWAP1 PUSH2 0x13FC SWAP2 SWAP1 PUSH2 0x1A9E JUMP JUMPDEST DUP2 PUSH1 0x0 ADD PUSH1 0x0 PUSH2 0x100 EXP DUP2 SLOAD DUP2 PUSH20 0xFFFFFFFFFFFFFFFFFFFFFFFFFFFFFFFFFFFFFFFF MUL NOT AND SWAP1 DUP4 PUSH20 0xFFFFFFFFFFFFFFFFFFFFFFFFFFFFFFFFFFFFFFFF AND MUL OR SWAP1 SSTORE POP PUSH1 0x0 DUP2 PUSH1 0x0 ADD PUSH1 0x15 PUSH2 0x100 EXP DUP2 SLOAD DUP2 PUSH1 0xFF MUL NOT AND SWAP1 DUP4 ISZERO ISZERO MUL OR SWAP1 SSTORE POP DUP1 PUSH1 0x0 ADD PUSH1 0x14 SWAP1 SLOAD SWAP1 PUSH2 0x100 EXP SWAP1 DIV PUSH1 0xFF AND ISZERO PUSH2 0x14AD JUMPI PUSH1 0x40 MLOAD PUSH32 0x8C379A000000000000000000000000000000000000000000000000000000000 DUP2 MSTORE PUSH1 0x4 ADD PUSH2 0x14A4 SWAP1 PUSH2 0x1FA6 JUMP JUMPDEST PUSH1 0x40 MLOAD DUP1 SWAP2 SUB SWAP1 REVERT JUMPDEST DUP1 PUSH1 0x0 ADD PUSH1 0x0 SWAP1 SLOAD SWAP1 PUSH2 0x100 EXP SWAP1 DIV PUSH20 0xFFFFFFFFFFFFFFFFFFFFFFFFFFFFFFFFFFFFFFFF AND PUSH20 0xFFFFFFFFFFFFFFFFFFFFFFFFFFFFFFFFFFFFFFFF AND CALLER PUSH20 0xFFFFFFFFFFFFFFFFFFFFFFFFFFFFFFFFFFFFFFFF AND EQ PUSH2 0x153F JUMPI PUSH1 0x40 MLOAD PUSH32 0x8C379A000000000000000000000000000000000000000000000000000000000 DUP2 MSTORE PUSH1 0x4 ADD PUSH2 0x1536 SWAP1 PUSH2 0x2006 JUMP JUMPDEST PUSH1 0x40 MLOAD DUP1 SWAP2 SUB SWAP1 REVERT JUMPDEST PUSH1 0x0 DUP2 PUSH1 0x4 ADD DUP2 SWAP1 SSTORE POP DUP3 DUP2 PUSH1 0x5 ADD PUSH1 0x0 DUP4 PUSH1 0x4 ADD SLOAD DUP2 MSTORE PUSH1 0x20 ADD SWAP1 DUP2 MSTORE PUSH1 0x20 ADD PUSH1 0x0 KECCAK256 DUP2 SWAP1 SSTORE POP DUP4 DUP2 PUSH1 0x3 ADD DUP2 SWAP1 SSTORE POP DUP1 PUSH1 0x2 ADD PUSH1 0x0 SWAP1 SLOAD SWAP1 PUSH2 0x100 EXP SWAP1 DIV PUSH20 0xFFFFFFFFFFFFFFFFFFFFFFFFFFFFFFFFFFFFFFFF AND PUSH20 0xFFFFFFFFFFFFFFFFFFFFFFFFFFFFFFFFFFFFFFFF AND PUSH4 0xB88D4FDE CALLER ADDRESS DUP5 PUSH1 0x3 ADD SLOAD PUSH1 0x40 MLOAD DUP5 PUSH4 0xFFFFFFFF AND PUSH1 0xE0 SHL DUP2 MSTORE PUSH1 0x4 ADD PUSH2 0x15D5 SWAP4 SWAP3 SWAP2 SWAP1 PUSH2 0x1E4D JUMP JUMPDEST PUSH1 0x0 PUSH1 0x40 MLOAD DUP1 DUP4 SUB DUP2 PUSH1 0x0 DUP8 DUP1 EXTCODESIZE ISZERO DUP1 ISZERO PUSH2 0x15EF JUMPI PUSH1 0x0 DUP1 REVERT JUMPDEST POP GAS CALL ISZERO DUP1 ISZERO PUSH2 0x1603 JUMPI RETURNDATASIZE PUSH1 0x0 DUP1 RETURNDATACOPY RETURNDATASIZE PUSH1 0x0 REVERT JUMPDEST POP POP POP POP PUSH1 0x1 DUP2 PUSH1 0x0 ADD PUSH1 0x14 PUSH2 0x100 EXP DUP2 SLOAD DUP2 PUSH1 0xFF MUL NOT AND SWAP1 DUP4 ISZERO ISZERO MUL OR SWAP1 SSTORE POP PUSH3 0x15180 DUP3 PUSH2 0x1633 SWAP2 SWAP1 PUSH2 0x2173 JUMP JUMPDEST TIMESTAMP PUSH2 0x163E SWAP2 SWAP1 PUSH2 0x20EC JUMP JUMPDEST DUP2 PUSH1 0x1 ADD DUP2 SWAP1 SSTORE POP DUP4 DUP6 PUSH20 0xFFFFFFFFFFFFFFFFFFFFFFFFFFFFFFFFFFFFFFFF AND PUSH32 0x3B305515DBE345238649F5CE343C57AE67D5727443F8D744B2B793C3231E3AD9 DUP6 DUP5 PUSH1 0x1 ADD SLOAD PUSH1 0x40 MLOAD PUSH2 0x1693 SWAP3 SWAP2 SWAP1 PUSH2 0x20A1 JUMP JUMPDEST PUSH1 0x40 MLOAD DUP1 SWAP2 SUB SWAP1 LOG3 POP POP POP POP POP JUMP JUMPDEST PUSH1 0x0 DUP1 PUSH1 0x0 DUP6 PUSH20 0xFFFFFFFFFFFFFFFFFFFFFFFFFFFFFFFFFFFFFFFF AND PUSH20 0xFFFFFFFFFFFFFFFFFFFFFFFFFFFFFFFFFFFFFFFF AND DUP2 MSTORE PUSH1 0x20 ADD SWAP1 DUP2 MSTORE PUSH1 0x20 ADD PUSH1 0x0 KECCAK256 PUSH1 0x0 DUP5 DUP2 MSTORE PUSH1 0x20 ADD SWAP1 DUP2 MSTORE PUSH1 0x20 ADD PUSH1 0x0 KECCAK256 PUSH1 0x6 ADD PUSH1 0x0 DUP4 DUP2 MSTORE PUSH1 0x20 ADD SWAP1 DUP2 MSTORE PUSH1 0x20 ADD PUSH1 0x0 KECCAK256 PUSH1 0x0 SWAP1 SLOAD SWAP1 PUSH2 0x100 EXP SWAP1 DIV PUSH20 0xFFFFFFFFFFFFFFFFFFFFFFFFFFFFFFFFFFFFFFFF AND SWAP1 POP SWAP4 SWAP3 POP POP POP JUMP JUMPDEST PUSH1 0x0 DUP1 PUSH1 0x0 DUP5 PUSH20 0xFFFFFFFFFFFFFFFFFFFFFFFFFFFFFFFFFFFFFFFF AND PUSH20 0xFFFFFFFFFFFFFFFFFFFFFFFFFFFFFFFFFFFFFFFF AND DUP2 MSTORE PUSH1 0x20 ADD SWAP1 DUP2 MSTORE PUSH1 0x20 ADD PUSH1 0x0 KECCAK256 PUSH1 0x0 DUP4 DUP2 MSTORE PUSH1 0x20 ADD SWAP1 DUP2 MSTORE PUSH1 0x20 ADD PUSH1 0x0 KECCAK256 SWAP1 POP PUSH1 0x0 DUP2 PUSH1 0x7 ADD PUSH1 0x0 CALLER PUSH20 0xFFFFFFFFFFFFFFFFFFFFFFFFFFFFFFFFFFFFFFFF AND PUSH20 0xFFFFFFFFFFFFFFFFFFFFFFFFFFFFFFFFFFFFFFFF AND DUP2 MSTORE PUSH1 0x20 ADD SWAP1 DUP2 MSTORE PUSH1 0x20 ADD PUSH1 0x0 KECCAK256 SLOAD SWAP1 POP PUSH1 0x0 DUP2 EQ ISZERO DUP1 ISZERO PUSH2 0x17DD JUMPI POP PUSH1 0x1 SLOAD DUP2 GT ISZERO JUMPDEST PUSH2 0x181C JUMPI PUSH1 0x40 MLOAD PUSH32 0x8C379A000000000000000000000000000000000000000000000000000000000 DUP2 MSTORE PUSH1 0x4 ADD PUSH2 0x1813 SWAP1 PUSH2 0x2066 JUMP JUMPDEST PUSH1 0x40 MLOAD DUP1 SWAP2 SUB SWAP1 REVERT JUMPDEST DUP2 PUSH1 0x6 ADD PUSH1 0x0 DUP4 PUSH1 0x4 ADD SLOAD DUP2 MSTORE PUSH1 0x20 ADD SWAP1 DUP2 MSTORE PUSH1 0x20 ADD PUSH1 0x0 KECCAK256 PUSH1 0x0 SWAP1 SLOAD SWAP1 PUSH2 0x100 EXP SWAP1 DIV PUSH20 0xFFFFFFFFFFFFFFFFFFFFFFFFFFFFFFFFFFFFFFFF AND PUSH20 0xFFFFFFFFFFFFFFFFFFFFFFFFFFFFFFFFFFFFFFFF AND CALLER PUSH20 0xFFFFFFFFFFFFFFFFFFFFFFFFFFFFFFFFFFFFFFFF AND EQ ISZERO PUSH2 0x18A6 JUMPI PUSH1 0x1 DUP3 PUSH1 0x4 ADD PUSH1 0x0 DUP3 DUP3 SLOAD PUSH2 0x189E SWAP2 SWAP1 PUSH2 0x21CD JUMP JUMPDEST SWAP3 POP POP DUP2 SWAP1 SSTORE POP JUMPDEST PUSH1 0x0 DUP3 PUSH1 0x7 ADD PUSH1 0x0 CALLER PUSH20 0xFFFFFFFFFFFFFFFFFFFFFFFFFFFFFFFFFFFFFFFF AND PUSH20 0xFFFFFFFFFFFFFFFFFFFFFFFFFFFFFFFFFFFFFFFF AND DUP2 MSTORE PUSH1 0x20 ADD SWAP1 DUP2 MSTORE PUSH1 0x20 ADD PUSH1 0x0 KECCAK256 DUP2 SWAP1 SSTORE POP CALLER PUSH20 0xFFFFFFFFFFFFFFFFFFFFFFFFFFFFFFFFFFFFFFFF AND PUSH2 0x8FC DUP3 SWAP1 DUP2 ISZERO MUL SWAP1 PUSH1 0x40 MLOAD PUSH1 0x0 PUSH1 0x40 MLOAD DUP1 DUP4 SUB DUP2 DUP6 DUP9 DUP9 CALL SWAP4 POP POP POP POP ISZERO DUP1 ISZERO PUSH2 0x1933 JUMPI RETURNDATASIZE PUSH1 0x0 DUP1 RETURNDATACOPY RETURNDATASIZE PUSH1 0x0 REVERT JUMPDEST POP DUP1 PUSH1 0x1 PUSH1 0x0 DUP3 DUP3 SLOAD PUSH2 0x1946 SWAP2 SWAP1 PUSH2 0x21CD JUMP JUMPDEST SWAP3 POP POP DUP2 SWAP1 SSTORE POP CALLER PUSH20 0xFFFFFFFFFFFFFFFFFFFFFFFFFFFFFFFFFFFFFFFF AND PUSH32 0x884EDAD9CE6FA2440D8A54CC123490EB96D2768479D49FF9C7366125A9424364 DUP3 PUSH1 0x40 MLOAD PUSH2 0x1993 SWAP2 SWAP1 PUSH2 0x2086 JUMP JUMPDEST PUSH1 0x40 MLOAD DUP1 SWAP2 SUB SWAP1 LOG2 POP POP POP POP JUMP JUMPDEST PUSH1 0x0 PUSH1 0x20 MSTORE DUP2 PUSH1 0x0 MSTORE PUSH1 0x40 PUSH1 0x0 KECCAK256 PUSH1 0x20 MSTORE DUP1 PUSH1 0x0 MSTORE PUSH1 0x40 PUSH1 0x0 KECCAK256 PUSH1 0x0 SWAP2 POP SWAP2 POP POP DUP1 PUSH1 0x0 ADD PUSH1 0x0 SWAP1 SLOAD SWAP1 PUSH2 0x100 EXP SWAP1 DIV PUSH20 0xFFFFFFFFFFFFFFFFFFFFFFFFFFFFFFFFFFFFFFFF AND SWAP1 DUP1 PUSH1 0x0 ADD PUSH1 0x14 SWAP1 SLOAD SWAP1 PUSH2 0x100 EXP SWAP1 DIV PUSH1 0xFF AND SWAP1 DUP1 PUSH1 0x0 ADD PUSH1 0x15 SWAP1 SLOAD SWAP1 PUSH2 0x100 EXP SWAP1 DIV PUSH1 0xFF AND SWAP1 DUP1 PUSH1 0x1 ADD SLOAD SWAP1 DUP1 PUSH1 0x2 ADD PUSH1 0x0 SWAP1 SLOAD SWAP1 PUSH2 0x100 EXP SWAP1 DIV PUSH20 0xFFFFFFFFFFFFFFFFFFFFFFFFFFFFFFFFFFFFFFFF AND SWAP1 DUP1 PUSH1 0x3 ADD SLOAD SWAP1 DUP1 PUSH1 0x4 ADD SLOAD SWAP1 POP DUP8 JUMP JUMPDEST PUSH1 0x0 DUP2 CALLDATALOAD SWAP1 POP PUSH2 0x1A59 DUP2 PUSH2 0x249F JUMP JUMPDEST SWAP3 SWAP2 POP POP JUMP JUMPDEST PUSH1 0x0 DUP2 MLOAD SWAP1 POP PUSH2 0x1A6E DUP2 PUSH2 0x249F JUMP JUMPDEST SWAP3 SWAP2 POP POP JUMP JUMPDEST PUSH1 0x0 DUP2 CALLDATALOAD SWAP1 POP PUSH2 0x1A83 DUP2 PUSH2 0x24B6 JUMP JUMPDEST SWAP3 SWAP2 POP POP JUMP JUMPDEST PUSH1 0x0 DUP2 MLOAD SWAP1 POP PUSH2 0x1A98 DUP2 PUSH2 0x24B6 JUMP JUMPDEST SWAP3 SWAP2 POP POP JUMP JUMPDEST PUSH1 0x0 PUSH1 0x20 DUP3 DUP5 SUB SLT ISZERO PUSH2 0x1AB4 JUMPI PUSH2 0x1AB3 PUSH2 0x2326 JUMP JUMPDEST JUMPDEST PUSH1 0x0 PUSH2 0x1AC2 DUP5 DUP3 DUP6 ADD PUSH2 0x1A5F JUMP JUMPDEST SWAP2 POP POP SWAP3 SWAP2 POP POP JUMP JUMPDEST PUSH1 0x0 DUP1 PUSH1 0x0 PUSH1 0x60 DUP5 DUP7 SUB SLT ISZERO PUSH2 0x1AE4 JUMPI PUSH2 0x1AE3 PUSH2 0x2326 JUMP JUMPDEST JUMPDEST PUSH1 0x0 PUSH2 0x1AF2 DUP7 DUP3 DUP8 ADD PUSH2 0x1A4A JUMP JUMPDEST SWAP4 POP POP PUSH1 0x20 PUSH2 0x1B03 DUP7 DUP3 DUP8 ADD PUSH2 0x1A4A JUMP JUMPDEST SWAP3 POP POP PUSH1 0x40 PUSH2 0x1B14 DUP7 DUP3 DUP8 ADD PUSH2 0x1A74 JUMP JUMPDEST SWAP2 POP POP SWAP3 POP SWAP3 POP SWAP3 JUMP JUMPDEST PUSH1 0x0 DUP1 PUSH1 0x40 DUP4 DUP6 SUB SLT ISZERO PUSH2 0x1B35 JUMPI PUSH2 0x1B34 PUSH2 0x2326 JUMP JUMPDEST JUMPDEST PUSH1 0x0 PUSH2 0x1B43 DUP6 DUP3 DUP7 ADD PUSH2 0x1A4A JUMP JUMPDEST SWAP3 POP POP PUSH1 0x20 PUSH2 0x1B54 DUP6 DUP3 DUP7 ADD PUSH2 0x1A74 JUMP JUMPDEST SWAP2 POP POP SWAP3 POP SWAP3 SWAP1 POP JUMP JUMPDEST PUSH1 0x0 DUP1 PUSH1 0x0 PUSH1 0x60 DUP5 DUP7 SUB SLT ISZERO PUSH2 0x1B77 JUMPI PUSH2 0x1B76 PUSH2 0x2326 JUMP JUMPDEST JUMPDEST PUSH1 0x0 PUSH2 0x1B85 DUP7 DUP3 DUP8 ADD PUSH2 0x1A4A JUMP JUMPDEST SWAP4 POP POP PUSH1 0x20 PUSH2 0x1B96 DUP7 DUP3 DUP8 ADD PUSH2 0x1A74 JUMP JUMPDEST SWAP3 POP POP PUSH1 0x40 PUSH2 0x1BA7 DUP7 DUP3 DUP8 ADD PUSH2 0x1A4A JUMP JUMPDEST SWAP2 POP POP SWAP3 POP SWAP3 POP SWAP3 JUMP JUMPDEST PUSH1 0x0 DUP1 PUSH1 0x0 PUSH1 0x60 DUP5 DUP7 SUB SLT ISZERO PUSH2 0x1BCA JUMPI PUSH2 0x1BC9 PUSH2 0x2326 JUMP JUMPDEST JUMPDEST PUSH1 0x0 PUSH2 0x1BD8 DUP7 DUP3 DUP8 ADD PUSH2 0x1A4A JUMP JUMPDEST SWAP4 POP POP PUSH1 0x20 PUSH2 0x1BE9 DUP7 DUP3 DUP8 ADD PUSH2 0x1A74 JUMP JUMPDEST SWAP3 POP POP PUSH1 0x40 PUSH2 0x1BFA DUP7 DUP3 DUP8 ADD PUSH2 0x1A74 JUMP JUMPDEST SWAP2 POP POP SWAP3 POP SWAP3 POP SWAP3 JUMP JUMPDEST PUSH1 0x0 DUP1 PUSH1 0x0 DUP1 PUSH1 0x80 DUP6 DUP8 SUB SLT ISZERO PUSH2 0x1C1E JUMPI PUSH2 0x1C1D PUSH2 0x2326 JUMP JUMPDEST JUMPDEST PUSH1 0x0 PUSH2 0x1C2C DUP8 DUP3 DUP9 ADD PUSH2 0x1A4A JUMP JUMPDEST SWAP5 POP POP PUSH1 0x20 PUSH2 0x1C3D DUP8 DUP3 DUP9 ADD PUSH2 0x1A74 JUMP JUMPDEST SWAP4 POP POP PUSH1 0x40 PUSH2 0x1C4E DUP8 DUP3 DUP9 ADD PUSH2 0x1A74 JUMP JUMPDEST SWAP3 POP POP PUSH1 0x60 PUSH2 0x1C5F DUP8 DUP3 DUP9 ADD PUSH2 0x1A74 JUMP JUMPDEST SWAP2 POP POP SWAP3 SWAP6 SWAP2 SWAP5 POP SWAP3 POP JUMP JUMPDEST PUSH1 0x0 PUSH1 0x20 DUP3 DUP5 SUB SLT ISZERO PUSH2 0x1C81 JUMPI PUSH2 0x1C80 PUSH2 0x2326 JUMP JUMPDEST JUMPDEST PUSH1 0x0 PUSH2 0x1C8F DUP5 DUP3 DUP6 ADD PUSH2 0x1A89 JUMP JUMPDEST SWAP2 POP POP SWAP3 SWAP2 POP POP JUMP JUMPDEST PUSH2 0x1CA1 DUP2 PUSH2 0x2201 JUMP JUMPDEST DUP3 MSTORE POP POP JUMP JUMPDEST PUSH2 0x1CB0 DUP2 PUSH2 0x2213 JUMP JUMPDEST DUP3 MSTORE POP POP JUMP JUMPDEST PUSH2 0x1CBF DUP2 PUSH2 0x2249 JUMP JUMPDEST DUP3 MSTORE POP POP JUMP JUMPDEST PUSH1 0x0 PUSH2 0x1CD2 PUSH1 0xA DUP4 PUSH2 0x20DB JUMP JUMPDEST SWAP2 POP PUSH2 0x1CDD DUP3 PUSH2 0x232B JUMP JUMPDEST PUSH1 0x20 DUP3 ADD SWAP1 POP SWAP2 SWAP1 POP JUMP JUMPDEST PUSH1 0x0 PUSH2 0x1CF5 PUSH1 0x19 DUP4 PUSH2 0x20DB JUMP JUMPDEST SWAP2 POP PUSH2 0x1D00 DUP3 PUSH2 0x2354 JUMP JUMPDEST PUSH1 0x20 DUP3 ADD SWAP1 POP SWAP2 SWAP1 POP JUMP JUMPDEST PUSH1 0x0 PUSH2 0x1D18 PUSH1 0x10 DUP4 PUSH2 0x20DB JUMP JUMPDEST SWAP2 POP PUSH2 0x1D23 DUP3 PUSH2 0x237D JUMP JUMPDEST PUSH1 0x20 DUP3 ADD SWAP1 POP SWAP2 SWAP1 POP JUMP JUMPDEST PUSH1 0x0 PUSH2 0x1D3B PUSH1 0x6 DUP4 PUSH2 0x20DB JUMP JUMPDEST SWAP2 POP PUSH2 0x1D46 DUP3 PUSH2 0x23A6 JUMP JUMPDEST PUSH1 0x20 DUP3 ADD SWAP1 POP SWAP2 SWAP1 POP JUMP JUMPDEST PUSH1 0x0 PUSH2 0x1D5E PUSH1 0x18 DUP4 PUSH2 0x20DB JUMP JUMPDEST SWAP2 POP PUSH2 0x1D69 DUP3 PUSH2 0x23CF JUMP JUMPDEST PUSH1 0x20 DUP3 ADD SWAP1 POP SWAP2 SWAP1 POP JUMP JUMPDEST PUSH1 0x0 PUSH2 0x1D81 PUSH1 0x1E DUP4 PUSH2 0x20DB JUMP JUMPDEST SWAP2 POP PUSH2 0x1D8C DUP3 PUSH2 0x23F8 JUMP JUMPDEST PUSH1 0x20 DUP3 ADD SWAP1 POP SWAP2 SWAP1 POP JUMP JUMPDEST PUSH1 0x0 PUSH2 0x1DA4 PUSH1 0xC DUP4 PUSH2 0x20DB JUMP JUMPDEST SWAP2 POP PUSH2 0x1DAF DUP3 PUSH2 0x2421 JUMP JUMPDEST PUSH1 0x20 DUP3 ADD SWAP1 POP SWAP2 SWAP1 POP JUMP JUMPDEST PUSH1 0x0 PUSH2 0x1DC7 PUSH1 0x0 DUP4 PUSH2 0x20CA JUMP JUMPDEST SWAP2 POP PUSH2 0x1DD2 DUP3 PUSH2 0x244A JUMP JUMPDEST PUSH1 0x0 DUP3 ADD SWAP1 POP SWAP2 SWAP1 POP JUMP JUMPDEST PUSH1 0x0 PUSH2 0x1DEA PUSH1 0x16 DUP4 PUSH2 0x20DB JUMP JUMPDEST SWAP2 POP PUSH2 0x1DF5 DUP3 PUSH2 0x244D JUMP JUMPDEST PUSH1 0x20 DUP3 ADD SWAP1 POP SWAP2 SWAP1 POP JUMP JUMPDEST PUSH1 0x0 PUSH2 0x1E0D PUSH1 0x12 DUP4 PUSH2 0x20DB JUMP JUMPDEST SWAP2 POP PUSH2 0x1E18 DUP3 PUSH2 0x2476 JUMP JUMPDEST PUSH1 0x20 DUP3 ADD SWAP1 POP SWAP2 SWAP1 POP JUMP JUMPDEST PUSH2 0x1E2C DUP2 PUSH2 0x223F JUMP JUMPDEST DUP3 MSTORE POP POP JUMP JUMPDEST PUSH1 0x0 PUSH1 0x20 DUP3 ADD SWAP1 POP PUSH2 0x1E47 PUSH1 0x0 DUP4 ADD DUP5 PUSH2 0x1C98 JUMP JUMPDEST SWAP3 SWAP2 POP POP JUMP JUMPDEST PUSH1 0x0 PUSH1 0x80 DUP3 ADD SWAP1 POP PUSH2 0x1E62 PUSH1 0x0 DUP4 ADD DUP7 PUSH2 0x1C98 JUMP JUMPDEST PUSH2 0x1E6F PUSH1 0x20 DUP4 ADD DUP6 PUSH2 0x1C98 JUMP JUMPDEST PUSH2 0x1E7C PUSH1 0x40 DUP4 ADD DUP5 PUSH2 0x1E23 JUMP JUMPDEST DUP2 DUP2 SUB PUSH1 0x60 DUP4 ADD MSTORE PUSH2 0x1E8D DUP2 PUSH2 0x1DBA JUMP JUMPDEST SWAP1 POP SWAP5 SWAP4 POP POP POP POP JUMP JUMPDEST PUSH1 0x0 PUSH1 0xE0 DUP3 ADD SWAP1 POP PUSH2 0x1EAC PUSH1 0x0 DUP4 ADD DUP11 PUSH2 0x1C98 JUMP JUMPDEST PUSH2 0x1EB9 PUSH1 0x20 DUP4 ADD DUP10 PUSH2 0x1CA7 JUMP JUMPDEST PUSH2 0x1EC6 PUSH1 0x40 DUP4 ADD DUP9 PUSH2 0x1CA7 JUMP JUMPDEST PUSH2 0x1ED3 PUSH1 0x60 DUP4 ADD DUP8 PUSH2 0x1E23 JUMP JUMPDEST PUSH2 0x1EE0 PUSH1 0x80 DUP4 ADD DUP7 PUSH2 0x1CB6 JUMP JUMPDEST PUSH2 0x1EED PUSH1 0xA0 DUP4 ADD DUP6 PUSH2 0x1E23 JUMP JUMPDEST PUSH2 0x1EFA PUSH1 0xC0 DUP4 ADD DUP5 PUSH2 0x1E23 JUMP JUMPDEST SWAP9 SWAP8 POP POP POP POP POP POP POP POP JUMP JUMPDEST PUSH1 0x0 PUSH1 0x40 DUP3 ADD SWAP1 POP PUSH2 0x1F1B PUSH1 0x0 DUP4 ADD DUP6 PUSH2 0x1C98 JUMP JUMPDEST PUSH2 0x1F28 PUSH1 0x20 DUP4 ADD DUP5 PUSH2 0x1E23 JUMP JUMPDEST SWAP4 SWAP3 POP POP POP JUMP JUMPDEST PUSH1 0x0 PUSH1 0x60 DUP3 ADD SWAP1 POP PUSH2 0x1F44 PUSH1 0x0 DUP4 ADD DUP7 PUSH2 0x1C98 JUMP JUMPDEST PUSH2 0x1F51 PUSH1 0x20 DUP4 ADD DUP6 PUSH2 0x1E23 JUMP JUMPDEST PUSH2 0x1F5E PUSH1 0x40 DUP4 ADD DUP5 PUSH2 0x1E23 JUMP JUMPDEST SWAP5 SWAP4 POP POP POP POP JUMP JUMPDEST PUSH1 0x0 PUSH1 0x20 DUP3 ADD SWAP1 POP DUP2 DUP2 SUB PUSH1 0x0 DUP4 ADD MSTORE PUSH2 0x1F7F DUP2 PUSH2 0x1CC5 JUMP JUMPDEST SWAP1 POP SWAP2 SWAP1 POP JUMP JUMPDEST PUSH1 0x0 PUSH1 0x20 DUP3 ADD SWAP1 POP DUP2 DUP2 SUB PUSH1 0x0 DUP4 ADD MSTORE PUSH2 0x1F9F DUP2 PUSH2 0x1CE8 JUMP JUMPDEST SWAP1 POP SWAP2 SWAP1 POP JUMP JUMPDEST PUSH1 0x0 PUSH1 0x20 DUP3 ADD SWAP1 POP DUP2 DUP2 SUB PUSH1 0x0 DUP4 ADD MSTORE PUSH2 0x1FBF DUP2 PUSH2 0x1D0B JUMP JUMPDEST SWAP1 POP SWAP2 SWAP1 POP JUMP JUMPDEST PUSH1 0x0 PUSH1 0x20 DUP3 ADD SWAP1 POP DUP2 DUP2 SUB PUSH1 0x0 DUP4 ADD MSTORE PUSH2 0x1FDF DUP2 PUSH2 0x1D2E JUMP JUMPDEST SWAP1 POP SWAP2 SWAP1 POP JUMP JUMPDEST PUSH1 0x0 PUSH1 0x20 DUP3 ADD SWAP1 POP DUP2 DUP2 SUB PUSH1 0x0 DUP4 ADD MSTORE PUSH2 0x1FFF DUP2 PUSH2 0x1D51 JUMP JUMPDEST SWAP1 POP SWAP2 SWAP1 POP JUMP JUMPDEST PUSH1 0x0 PUSH1 0x20 DUP3 ADD SWAP1 POP DUP2 DUP2 SUB PUSH1 0x0 DUP4 ADD MSTORE PUSH2 0x201F DUP2 PUSH2 0x1D74 JUMP JUMPDEST SWAP1 POP SWAP2 SWAP1 POP JUMP JUMPDEST PUSH1 0x0 PUSH1 0x20 DUP3 ADD SWAP1 POP DUP2 DUP2 SUB PUSH1 0x0 DUP4 ADD MSTORE PUSH2 0x203F DUP2 PUSH2 0x1D97 JUMP JUMPDEST SWAP1 POP SWAP2 SWAP1 POP JUMP JUMPDEST PUSH1 0x0 PUSH1 0x20 DUP3 ADD SWAP1 POP DUP2 DUP2 SUB PUSH1 0x0 DUP4 ADD MSTORE PUSH2 0x205F DUP2 PUSH2 0x1DDD JUMP JUMPDEST SWAP1 POP SWAP2 SWAP1 POP JUMP JUMPDEST PUSH1 0x0 PUSH1 0x20 DUP3 ADD SWAP1 POP DUP2 DUP2 SUB PUSH1 0x0 DUP4 ADD MSTORE PUSH2 0x207F DUP2 PUSH2 0x1E00 JUMP JUMPDEST SWAP1 POP SWAP2 SWAP1 POP JUMP JUMPDEST PUSH1 0x0 PUSH1 0x20 DUP3 ADD SWAP1 POP PUSH2 0x209B PUSH1 0x0 DUP4 ADD DUP5 PUSH2 0x1E23 JUMP JUMPDEST SWAP3 SWAP2 POP POP JUMP JUMPDEST PUSH1 0x0 PUSH1 0x40 DUP3 ADD SWAP1 POP PUSH2 0x20B6 PUSH1 0x0 DUP4 ADD DUP6 PUSH2 0x1E23 JUMP JUMPDEST PUSH2 0x20C3 PUSH1 0x20 DUP4 ADD DUP5 PUSH2 0x1E23 JUMP JUMPDEST SWAP4 SWAP3 POP POP POP JUMP JUMPDEST PUSH1 0x0 DUP3 DUP3 MSTORE PUSH1 0x20 DUP3 ADD SWAP1 POP SWAP3 SWAP2 POP POP JUMP JUMPDEST PUSH1 0x0 DUP3 DUP3 MSTORE PUSH1 0x20 DUP3 ADD SWAP1 POP SWAP3 SWAP2 POP POP JUMP JUMPDEST PUSH1 0x0 PUSH2 0x20F7 DUP3 PUSH2 0x223F JUMP JUMPDEST SWAP2 POP PUSH2 0x2102 DUP4 PUSH2 0x223F JUMP JUMPDEST SWAP3 POP DUP3 PUSH32 0xFFFFFFFFFFFFFFFFFFFFFFFFFFFFFFFFFFFFFFFFFFFFFFFFFFFFFFFFFFFFFFFF SUB DUP3 GT ISZERO PUSH2 0x2137 JUMPI PUSH2 0x2136 PUSH2 0x22C8 JUMP JUMPDEST JUMPDEST DUP3 DUP3 ADD SWAP1 POP SWAP3 SWAP2 POP POP JUMP JUMPDEST PUSH1 0x0 PUSH2 0x214D DUP3 PUSH2 0x223F JUMP JUMPDEST SWAP2 POP PUSH2 0x2158 DUP4 PUSH2 0x223F JUMP JUMPDEST SWAP3 POP DUP3 PUSH2 0x2168 JUMPI PUSH2 0x2167 PUSH2 0x22F7 JUMP JUMPDEST JUMPDEST DUP3 DUP3 DIV SWAP1 POP SWAP3 SWAP2 POP POP JUMP JUMPDEST PUSH1 0x0 PUSH2 0x217E DUP3 PUSH2 0x223F JUMP JUMPDEST SWAP2 POP PUSH2 0x2189 DUP4 PUSH2 0x223F JUMP JUMPDEST SWAP3 POP DUP2 PUSH32 0xFFFFFFFFFFFFFFFFFFFFFFFFFFFFFFFFFFFFFFFFFFFFFFFFFFFFFFFFFFFFFFFF DIV DUP4 GT DUP3 ISZERO ISZERO AND ISZERO PUSH2 0x21C2 JUMPI PUSH2 0x21C1 PUSH2 0x22C8 JUMP JUMPDEST JUMPDEST DUP3 DUP3 MUL SWAP1 POP SWAP3 SWAP2 POP POP JUMP JUMPDEST PUSH1 0x0 PUSH2 0x21D8 DUP3 PUSH2 0x223F JUMP JUMPDEST SWAP2 POP PUSH2 0x21E3 DUP4 PUSH2 0x223F JUMP JUMPDEST SWAP3 POP DUP3 DUP3 LT ISZERO PUSH2 0x21F6 JUMPI PUSH2 0x21F5 PUSH2 0x22C8 JUMP JUMPDEST JUMPDEST DUP3 DUP3 SUB SWAP1 POP SWAP3 SWAP2 POP POP JUMP JUMPDEST PUSH1 0x0 PUSH2 0x220C DUP3 PUSH2 0x221F JUMP JUMPDEST SWAP1 POP SWAP2 SWAP1 POP JUMP JUMPDEST PUSH1 0x0 DUP2 ISZERO ISZERO SWAP1 POP SWAP2 SWAP1 POP JUMP JUMPDEST PUSH1 0x0 PUSH20 0xFFFFFFFFFFFFFFFFFFFFFFFFFFFFFFFFFFFFFFFF DUP3 AND SWAP1 POP SWAP2 SWAP1 POP JUMP JUMPDEST PUSH1 0x0 DUP2 SWAP1 POP SWAP2 SWAP1 POP JUMP JUMPDEST PUSH1 0x0 PUSH2 0x2254 DUP3 PUSH2 0x225B JUMP JUMPDEST SWAP1 POP SWAP2 SWAP1 POP JUMP JUMPDEST PUSH1 0x0 PUSH2 0x2266 DUP3 PUSH2 0x226D JUMP JUMPDEST SWAP1 POP SWAP2 SWAP1 POP JUMP JUMPDEST PUSH1 0x0 PUSH2 0x2278 DUP3 PUSH2 0x221F JUMP JUMPDEST SWAP1 POP SWAP2 SWAP1 POP JUMP JUMPDEST PUSH1 0x0 PUSH2 0x228A DUP3 PUSH2 0x223F JUMP JUMPDEST SWAP2 POP PUSH32 0xFFFFFFFFFFFFFFFFFFFFFFFFFFFFFFFFFFFFFFFFFFFFFFFFFFFFFFFFFFFFFFFF DUP3 EQ ISZERO PUSH2 0x22BD JUMPI PUSH2 0x22BC PUSH2 0x22C8 JUMP JUMPDEST JUMPDEST PUSH1 0x1 DUP3 ADD SWAP1 POP SWAP2 SWAP1 POP JUMP JUMPDEST PUSH32 0x4E487B7100000000000000000000000000000000000000000000000000000000 PUSH1 0x0 MSTORE PUSH1 0x11 PUSH1 0x4 MSTORE PUSH1 0x24 PUSH1 0x0 REVERT JUMPDEST PUSH32 0x4E487B7100000000000000000000000000000000000000000000000000000000 PUSH1 0x0 MSTORE PUSH1 0x12 PUSH1 0x4 MSTORE PUSH1 0x24 PUSH1 0x0 REVERT JUMPDEST PUSH1 0x0 DUP1 REVERT JUMPDEST PUSH32 0x4C6F776572206269642100000000000000000000000000000000000000000000 PUSH1 0x0 DUP3 ADD MSTORE POP JUMP JUMPDEST PUSH32 0x41756374696F6E206973207374696C6C206F6E676F696E672100000000000000 PUSH1 0x0 DUP3 ADD MSTORE POP JUMP JUMPDEST PUSH32 0x416C726561647920737461727465642100000000000000000000000000000000 PUSH1 0x0 DUP3 ADD MSTORE POP JUMP JUMPDEST PUSH32 0x456E646564210000000000000000000000000000000000000000000000000000 PUSH1 0x0 DUP3 ADD MSTORE POP JUMP JUMPDEST PUSH32 0x596F75206E65656420746F207374617274206669727374210000000000000000 PUSH1 0x0 DUP3 ADD MSTORE POP JUMP JUMPDEST PUSH32 0x596F752063616E206E6F74207374617274207468652061756374696F6E210000 PUSH1 0x0 DUP3 ADD MSTORE POP JUMP JUMPDEST PUSH32 0x4E6F7420737461727465642E0000000000000000000000000000000000000000 PUSH1 0x0 DUP3 ADD MSTORE POP JUMP JUMPDEST POP JUMP JUMPDEST PUSH32 0x41756374696F6E20616C726561647920656E6465642100000000000000000000 PUSH1 0x0 DUP3 ADD MSTORE POP JUMP JUMPDEST PUSH32 0x436F756C64206E6F742077697468647261770000000000000000000000000000 PUSH1 0x0 DUP3 ADD MSTORE POP JUMP JUMPDEST PUSH2 0x24A8 DUP2 PUSH2 0x2201 JUMP JUMPDEST DUP2 EQ PUSH2 0x24B3 JUMPI PUSH1 0x0 DUP1 REVERT JUMPDEST POP JUMP JUMPDEST PUSH2 0x24BF DUP2 PUSH2 0x223F JUMP JUMPDEST DUP2 EQ PUSH2 0x24CA JUMPI PUSH1 0x0 DUP1 REVERT JUMPDEST POP JUMP INVALID LOG2 PUSH5 0x6970667358 0x22 SLT KECCAK256 PUSH2 0x42B4 RETURNDATACOPY 0xBA STOP 0xF6 0xD6 0xE5 PUSH10 0x2F92AAAAA3C572F2E676 INVALID 0xF7 SWAP10 0xB7 CODESIZE PUSH17 0xB74022AB70A064736F6C63430008070033 "
				},
				"gasEstimates": {
					"creation": {
						"codeDepositCost": "1895000",
						"executionCost": "2005",
						"totalCost": "1897005"
					},
					"external": {
						"autoWithdraw(address,uint256,address)": "infinite",
						"balances()": "2518",
						"bid(address,uint256)": "infinite",
						"biddings(address,uint256)": "infinite",
						"end(address,address,uint256)": "infinite",
						"getBids(address,uint256,address)": "infinite",
						"getHighestBid(address,uint256,uint256)": "infinite",
						"getHighestBidder(address,uint256,uint256)": "infinite",
						"start(address,uint256,uint256,uint256)": "infinite",
						"withdraw(address,uint256)": "infinite"
					}
				},
				"methodIdentifiers": {
					"autoWithdraw(address,uint256,address)": "699ff43f",
					"balances()": "7bb98a68",
					"bid(address,uint256)": "59d667a5",
					"biddings(address,uint256)": "f48e9b3d",
					"end(address,address,uint256)": "545c285c",
					"getBids(address,uint256,address)": "57354ed1",
					"getHighestBid(address,uint256,uint256)": "b0651dce",
					"getHighestBidder(address,uint256,uint256)": "bd15bf4e",
					"start(address,uint256,uint256,uint256)": "b76a3b5a",
					"withdraw(address,uint256)": "f3fef3a3"
				}
			},
			"storageLayout": {
				"storage": [
					{
						"astId": 81,
						"contract": "Bid.sol:Auction",
						"label": "biddings",
						"offset": 0,
						"slot": "0",
						"type": "t_mapping(t_address,t_mapping(t_uint256,t_struct(Bidding)111_storage))"
					},
					{
						"astId": 83,
						"contract": "Bid.sol:Auction",
						"label": "balances",
						"offset": 0,
						"slot": "1",
						"type": "t_uint256"
					}
				],
				"types": {
					"t_address": {
						"encoding": "inplace",
						"label": "address",
						"numberOfBytes": "20"
					},
					"t_bool": {
						"encoding": "inplace",
						"label": "bool",
						"numberOfBytes": "1"
					},
					"t_contract(ERC721)20": {
						"encoding": "inplace",
						"label": "contract ERC721",
						"numberOfBytes": "20"
					},
					"t_mapping(t_address,t_mapping(t_uint256,t_struct(Bidding)111_storage))": {
						"encoding": "mapping",
						"key": "t_address",
						"label": "mapping(address => mapping(uint256 => struct Auction.Bidding))",
						"numberOfBytes": "32",
						"value": "t_mapping(t_uint256,t_struct(Bidding)111_storage)"
					},
					"t_mapping(t_address,t_uint256)": {
						"encoding": "mapping",
						"key": "t_address",
						"label": "mapping(address => uint256)",
						"numberOfBytes": "32",
						"value": "t_uint256"
					},
					"t_mapping(t_uint256,t_address)": {
						"encoding": "mapping",
						"key": "t_uint256",
						"label": "mapping(uint256 => address)",
						"numberOfBytes": "32",
						"value": "t_address"
					},
					"t_mapping(t_uint256,t_struct(Bidding)111_storage)": {
						"encoding": "mapping",
						"key": "t_uint256",
						"label": "mapping(uint256 => struct Auction.Bidding)",
						"numberOfBytes": "32",
						"value": "t_struct(Bidding)111_storage"
					},
					"t_mapping(t_uint256,t_uint256)": {
						"encoding": "mapping",
						"key": "t_uint256",
						"label": "mapping(uint256 => uint256)",
						"numberOfBytes": "32",
						"value": "t_uint256"
					},
					"t_struct(Bidding)111_storage": {
						"encoding": "inplace",
						"label": "struct Auction.Bidding",
						"members": [
							{
								"astId": 85,
								"contract": "Bid.sol:Auction",
								"label": "seller",
								"offset": 0,
								"slot": "0",
								"type": "t_address"
							},
							{
								"astId": 87,
								"contract": "Bid.sol:Auction",
								"label": "started",
								"offset": 20,
								"slot": "0",
								"type": "t_bool"
							},
							{
								"astId": 89,
								"contract": "Bid.sol:Auction",
								"label": "ended",
								"offset": 21,
								"slot": "0",
								"type": "t_bool"
							},
							{
								"astId": 91,
								"contract": "Bid.sol:Auction",
								"label": "endAt",
								"offset": 0,
								"slot": "1",
								"type": "t_uint256"
							},
							{
								"astId": 94,
								"contract": "Bid.sol:Auction",
								"label": "tokenAddr",
								"offset": 0,
								"slot": "2",
								"type": "t_contract(ERC721)20"
							},
							{
								"astId": 96,
								"contract": "Bid.sol:Auction",
								"label": "tokenId",
								"offset": 0,
								"slot": "3",
								"type": "t_uint256"
							},
							{
								"astId": 98,
								"contract": "Bid.sol:Auction",
								"label": "bidCount",
								"offset": 0,
								"slot": "4",
								"type": "t_uint256"
							},
							{
								"astId": 102,
								"contract": "Bid.sol:Auction",
								"label": "highestBid",
								"offset": 0,
								"slot": "5",
								"type": "t_mapping(t_uint256,t_uint256)"
							},
							{
								"astId": 106,
								"contract": "Bid.sol:Auction",
								"label": "highestBidder",
								"offset": 0,
								"slot": "6",
								"type": "t_mapping(t_uint256,t_address)"
							},
							{
								"astId": 110,
								"contract": "Bid.sol:Auction",
								"label": "bids",
								"offset": 0,
								"slot": "7",
								"type": "t_mapping(t_address,t_uint256)"
							}
						],
						"numberOfBytes": "256"
					},
					"t_uint256": {
						"encoding": "inplace",
						"label": "uint256",
						"numberOfBytes": "32"
					}
				}
			},
			"userdoc": {
				"kind": "user",
				"methods": {},
				"version": 1
			}
		}
	}
}