{
	"ERC721.sol": {
		"MXRT": {
			"abi": [
				{
					"inputs": [],
					"stateMutability": "nonpayable",
					"type": "constructor"
				},
				{
					"anonymous": false,
					"inputs": [
						{
							"indexed": true,
							"internalType": "address",
							"name": "owner",
							"type": "address"
						},
						{
							"indexed": true,
							"internalType": "address",
							"name": "approved",
							"type": "address"
						},
						{
							"indexed": true,
							"internalType": "uint256",
							"name": "tokenId",
							"type": "uint256"
						}
					],
					"name": "Approval",
					"type": "event"
				},
				{
					"anonymous": false,
					"inputs": [
						{
							"indexed": true,
							"internalType": "address",
							"name": "owner",
							"type": "address"
						},
						{
							"indexed": true,
							"internalType": "address",
							"name": "operator",
							"type": "address"
						},
						{
							"indexed": false,
							"internalType": "bool",
							"name": "approved",
							"type": "bool"
						}
					],
					"name": "ApprovalForAll",
					"type": "event"
				},
				{
					"anonymous": false,
					"inputs": [
						{
							"indexed": true,
							"internalType": "address",
							"name": "from",
							"type": "address"
						},
						{
							"indexed": true,
							"internalType": "address",
							"name": "to",
							"type": "address"
						},
						{
							"indexed": true,
							"internalType": "uint256",
							"name": "tokenId",
							"type": "uint256"
						}
					],
					"name": "Transfer",
					"type": "event"
				},
				{
					"inputs": [
						{
							"internalType": "address",
							"name": "to",
							"type": "address"
						},
						{
							"internalType": "uint256",
							"name": "tokenId",
							"type": "uint256"
						}
					],
					"name": "approve",
					"outputs": [],
					"stateMutability": "nonpayable",
					"type": "function"
				},
				{
					"inputs": [
						{
							"internalType": "address",
							"name": "owner",
							"type": "address"
						}
					],
					"name": "balanceOf",
					"outputs": [
						{
							"internalType": "uint256",
							"name": "",
							"type": "uint256"
						}
					],
					"stateMutability": "view",
					"type": "function"
				},
				{
					"inputs": [
						{
							"internalType": "uint256[]",
							"name": "tokenId",
							"type": "uint256[]"
						},
						{
							"internalType": "string",
							"name": "uri",
							"type": "string"
						}
					],
					"name": "create",
					"outputs": [],
					"stateMutability": "nonpayable",
					"type": "function"
				},
				{
					"inputs": [
						{
							"internalType": "uint256",
							"name": "tokenId",
							"type": "uint256"
						}
					],
					"name": "getApproved",
					"outputs": [
						{
							"internalType": "address",
							"name": "",
							"type": "address"
						}
					],
					"stateMutability": "view",
					"type": "function"
				},
				{
					"inputs": [
						{
							"internalType": "address",
							"name": "owner",
							"type": "address"
						},
						{
							"internalType": "address",
							"name": "operator",
							"type": "address"
						}
					],
					"name": "isApprovedForAll",
					"outputs": [
						{
							"internalType": "bool",
							"name": "",
							"type": "bool"
						}
					],
					"stateMutability": "view",
					"type": "function"
				},
				{
					"inputs": [],
					"name": "name",
					"outputs": [
						{
							"internalType": "string",
							"name": "",
							"type": "string"
						}
					],
					"stateMutability": "view",
					"type": "function"
				},
				{
					"inputs": [
						{
							"internalType": "uint256",
							"name": "tokenId",
							"type": "uint256"
						}
					],
					"name": "ownerOf",
					"outputs": [
						{
							"internalType": "address",
							"name": "",
							"type": "address"
						}
					],
					"stateMutability": "view",
					"type": "function"
				},
				{
					"inputs": [
						{
							"internalType": "address",
							"name": "from",
							"type": "address"
						},
						{
							"internalType": "address",
							"name": "to",
							"type": "address"
						},
						{
							"internalType": "uint256",
							"name": "tokenId",
							"type": "uint256"
						}
					],
					"name": "safeTransferFrom",
					"outputs": [],
					"stateMutability": "nonpayable",
					"type": "function"
				},
				{
					"inputs": [
						{
							"internalType": "address",
							"name": "from",
							"type": "address"
						},
						{
							"internalType": "address",
							"name": "to",
							"type": "address"
						},
						{
							"internalType": "uint256",
							"name": "tokenId",
							"type": "uint256"
						},
						{
							"internalType": "bytes",
							"name": "data",
							"type": "bytes"
						}
					],
					"name": "safeTransferFrom",
					"outputs": [],
					"stateMutability": "nonpayable",
					"type": "function"
				},
				{
					"inputs": [
						{
							"internalType": "address",
							"name": "operator",
							"type": "address"
						},
						{
							"internalType": "bool",
							"name": "approved",
							"type": "bool"
						}
					],
					"name": "setApprovalForAll",
					"outputs": [],
					"stateMutability": "nonpayable",
					"type": "function"
				},
				{
					"inputs": [
						{
							"internalType": "bytes4",
							"name": "interfaceId",
							"type": "bytes4"
						}
					],
					"name": "supportsInterface",
					"outputs": [
						{
							"internalType": "bool",
							"name": "",
							"type": "bool"
						}
					],
					"stateMutability": "pure",
					"type": "function"
				},
				{
					"inputs": [],
					"name": "symbol",
					"outputs": [
						{
							"internalType": "string",
							"name": "",
							"type": "string"
						}
					],
					"stateMutability": "view",
					"type": "function"
				},
				{
					"inputs": [
						{
							"internalType": "uint256",
							"name": "index",
							"type": "uint256"
						}
					],
					"name": "tokenByIndex",
					"outputs": [
						{
							"internalType": "uint256",
							"name": "",
							"type": "uint256"
						}
					],
					"stateMutability": "view",
					"type": "function"
				},
				{
					"inputs": [
						{
							"internalType": "address",
							"name": "owner",
							"type": "address"
						},
						{
							"internalType": "uint256",
							"name": "index",
							"type": "uint256"
						}
					],
					"name": "tokenOfOwnerByIndex",
					"outputs": [
						{
							"internalType": "uint256",
							"name": "",
							"type": "uint256"
						}
					],
					"stateMutability": "view",
					"type": "function"
				},
				{
					"inputs": [
						{
							"internalType": "uint256",
							"name": "tokenId",
							"type": "uint256"
						}
					],
					"name": "tokenURI",
					"outputs": [
						{
							"internalType": "string",
							"name": "",
							"type": "string"
						}
					],
					"stateMutability": "view",
					"type": "function"
				},
				{
					"inputs": [],
					"name": "totalSupply",
					"outputs": [
						{
							"internalType": "uint256",
							"name": "",
							"type": "uint256"
						}
					],
					"stateMutability": "view",
					"type": "function"
				},
				{
					"inputs": [
						{
							"internalType": "address",
							"name": "from",
							"type": "address"
						},
						{
							"internalType": "address",
							"name": "to",
							"type": "address"
						},
						{
							"internalType": "uint256",
							"name": "tokenId",
							"type": "uint256"
						}
					],
					"name": "transferFrom",
					"outputs": [],
					"stateMutability": "nonpayable",
					"type": "function"
				},
				{
					"inputs": [
						{
							"internalType": "uint256",
							"name": "tokenId",
							"type": "uint256"
						}
					],
					"name": "uri",
					"outputs": [
						{
							"internalType": "string",
							"name": "",
							"type": "string"
						}
					],
					"stateMutability": "view",
					"type": "function"
				}
			],
			"devdoc": {
				"kind": "dev",
				"methods": {},
				"version": 1
			},
			"evm": {
				"assembly": "    /* \"ERC721.sol\":10267:10670  contract MXRT is ERC721 {\r... */\n  mstore(0x40, 0x80)\n    /* \"ERC721.sol\":10321:10408  constructor() ERC721(\"MXR Collectibles\", \"MXRT\") {\r... */\n  callvalue\n  dup1\n  iszero\n  tag_1\n  jumpi\n  0x00\n  dup1\n  revert\ntag_1:\n  pop\n    /* \"ERC721.sol\":2533:2650  constructor (string memory name_, string memory symbol_) {\r... */\n  mload(0x40)\n  dup1\n  0x40\n  add\n  0x40\n  mstore\n  dup1\n  0x10\n  dup2\n  mstore\n  0x20\n  add\n  0x4d585220436f6c6c65637469626c657300000000000000000000000000000000\n  dup2\n  mstore\n  pop\n  mload(0x40)\n  dup1\n  0x40\n  add\n  0x40\n  mstore\n  dup1\n  0x04\n  dup2\n  mstore\n  0x20\n  add\n  0x4d58525400000000000000000000000000000000000000000000000000000000\n  dup2\n  mstore\n  pop\n    /* \"ERC721.sol\":2609:2614  name_ */\n  dup2\n    /* \"ERC721.sol\":2601:2606  _name */\n  0x04\n    /* \"ERC721.sol\":2601:2614  _name = name_ */\n  swap1\n  dup1\n  mload\n  swap1\n  0x20\n  add\n  swap1\n  tag_5\n  swap3\n  swap2\n  swap1\n  tag_6\n  jump\t// in\ntag_5:\n  pop\n    /* \"ERC721.sol\":2635:2642  symbol_ */\n  dup1\n    /* \"ERC721.sol\":2625:2632  _symbol */\n  0x05\n    /* \"ERC721.sol\":2625:2642  _symbol = symbol_ */\n  swap1\n  dup1\n  mload\n  swap1\n  0x20\n  add\n  swap1\n  tag_7\n  swap3\n  swap2\n  swap1\n  tag_6\n  jump\t// in\ntag_7:\n  pop\n    /* \"ERC721.sol\":2533:2650  constructor (string memory name_, string memory symbol_) {\r... */\n  pop\n  pop\n    /* \"ERC721.sol\":10390:10400  msg.sender */\n  caller\n    /* \"ERC721.sol\":10381:10387  _admin */\n  0x0b\n  0x00\n    /* \"ERC721.sol\":10381:10400  _admin = msg.sender */\n  0x0100\n  exp\n  dup2\n  sload\n  dup2\n  0xffffffffffffffffffffffffffffffffffffffff\n  mul\n  not\n  and\n  swap1\n  dup4\n  0xffffffffffffffffffffffffffffffffffffffff\n  and\n  mul\n  or\n  swap1\n  sstore\n  pop\n    /* \"ERC721.sol\":10267:10670  contract MXRT is ERC721 {\r... */\n  jump(tag_9)\ntag_6:\n  dup3\n  dup1\n  sload\n  tag_10\n  swap1\n  tag_11\n  jump\t// in\ntag_10:\n  swap1\n  0x00\n  mstore\n  keccak256(0x00, 0x20)\n  swap1\n  0x1f\n  add\n  0x20\n  swap1\n  div\n  dup2\n  add\n  swap3\n  dup3\n  tag_13\n  jumpi\n  0x00\n  dup6\n  sstore\n  jump(tag_12)\ntag_13:\n  dup3\n  0x1f\n  lt\n  tag_14\n  jumpi\n  dup1\n  mload\n  not(0xff)\n  and\n  dup4\n  dup1\n  add\n  or\n  dup6\n  sstore\n  jump(tag_12)\ntag_14:\n  dup3\n  dup1\n  add\n  0x01\n  add\n  dup6\n  sstore\n  dup3\n  iszero\n  tag_12\n  jumpi\n  swap2\n  dup3\n  add\ntag_15:\n  dup3\n  dup2\n  gt\n  iszero\n  tag_16\n  jumpi\n  dup3\n  mload\n  dup3\n  sstore\n  swap2\n  0x20\n  add\n  swap2\n  swap1\n  0x01\n  add\n  swap1\n  jump(tag_15)\ntag_16:\ntag_12:\n  pop\n  swap1\n  pop\n  tag_17\n  swap2\n  swap1\n  tag_18\n  jump\t// in\ntag_17:\n  pop\n  swap1\n  jump\t// out\ntag_18:\ntag_19:\n  dup1\n  dup3\n  gt\n  iszero\n  tag_20\n  jumpi\n  0x00\n  dup2\n  0x00\n  swap1\n  sstore\n  pop\n  0x01\n  add\n  jump(tag_19)\ntag_20:\n  pop\n  swap1\n  jump\t// out\n    /* \"#utility.yul\":7:327   */\ntag_11:\n    /* \"#utility.yul\":51:57   */\n  0x00\n    /* \"#utility.yul\":88:89   */\n  0x02\n    /* \"#utility.yul\":82:86   */\n  dup3\n    /* \"#utility.yul\":78:90   */\n  div\n    /* \"#utility.yul\":68:90   */\n  swap1\n  pop\n    /* \"#utility.yul\":135:136   */\n  0x01\n    /* \"#utility.yul\":129:133   */\n  dup3\n    /* \"#utility.yul\":125:137   */\n  and\n    /* \"#utility.yul\":156:174   */\n  dup1\n    /* \"#utility.yul\":146:227   */\n  tag_23\n  jumpi\n    /* \"#utility.yul\":212:216   */\n  0x7f\n    /* \"#utility.yul\":204:210   */\n  dup3\n    /* \"#utility.yul\":200:217   */\n  and\n    /* \"#utility.yul\":190:217   */\n  swap2\n  pop\n    /* \"#utility.yul\":146:227   */\ntag_23:\n    /* \"#utility.yul\":274:276   */\n  0x20\n    /* \"#utility.yul\":266:272   */\n  dup3\n    /* \"#utility.yul\":263:277   */\n  lt\n    /* \"#utility.yul\":243:261   */\n  dup2\n    /* \"#utility.yul\":240:278   */\n  eq\n    /* \"#utility.yul\":237:321   */\n  iszero\n  tag_24\n  jumpi\n    /* \"#utility.yul\":293:311   */\n  tag_25\n  tag_26\n  jump\t// in\ntag_25:\n    /* \"#utility.yul\":237:321   */\ntag_24:\n    /* \"#utility.yul\":58:327   */\n  pop\n    /* \"#utility.yul\":7:327   */\n  swap2\n  swap1\n  pop\n  jump\t// out\n    /* \"#utility.yul\":333:513   */\ntag_26:\n    /* \"#utility.yul\":381:458   */\n  0x4e487b7100000000000000000000000000000000000000000000000000000000\n    /* \"#utility.yul\":378:379   */\n  0x00\n    /* \"#utility.yul\":371:459   */\n  mstore\n    /* \"#utility.yul\":478:482   */\n  0x22\n    /* \"#utility.yul\":475:476   */\n  0x04\n    /* \"#utility.yul\":468:483   */\n  mstore\n    /* \"#utility.yul\":502:506   */\n  0x24\n    /* \"#utility.yul\":499:500   */\n  0x00\n    /* \"#utility.yul\":492:507   */\n  revert\n    /* \"ERC721.sol\":10267:10670  contract MXRT is ERC721 {\r... */\ntag_9:\n  dataSize(sub_0)\n  dup1\n  dataOffset(sub_0)\n  0x00\n  codecopy\n  0x00\n  return\nstop\n\nsub_0: assembly {\n        /* \"ERC721.sol\":10267:10670  contract MXRT is ERC721 {\r... */\n      mstore(0x40, 0x80)\n      callvalue\n      dup1\n      iszero\n      tag_1\n      jumpi\n      0x00\n      dup1\n      revert\n    tag_1:\n      pop\n      jumpi(tag_2, lt(calldatasize, 0x04))\n      shr(0xe0, calldataload(0x00))\n      dup1\n      0x42842e0e\n      gt\n      tag_21\n      jumpi\n      dup1\n      0x95d89b41\n      gt\n      tag_22\n      jumpi\n      dup1\n      0x95d89b41\n      eq\n      tag_16\n      jumpi\n      dup1\n      0xa22cb465\n      eq\n      tag_17\n      jumpi\n      dup1\n      0xb88d4fde\n      eq\n      tag_18\n      jumpi\n      dup1\n      0xc87b56dd\n      eq\n      tag_19\n      jumpi\n      dup1\n      0xe985e9c5\n      eq\n      tag_20\n      jumpi\n      jump(tag_2)\n    tag_22:\n      dup1\n      0x42842e0e\n      eq\n      tag_12\n      jumpi\n      dup1\n      0x4f6ccce7\n      eq\n      tag_13\n      jumpi\n      dup1\n      0x6352211e\n      eq\n      tag_14\n      jumpi\n      dup1\n      0x70a08231\n      eq\n      tag_15\n      jumpi\n      jump(tag_2)\n    tag_21:\n      dup1\n      0x0d060309\n      gt\n      tag_23\n      jumpi\n      dup1\n      0x0d060309\n      eq\n      tag_7\n      jumpi\n      dup1\n      0x0e89341c\n      eq\n      tag_8\n      jumpi\n      dup1\n      0x18160ddd\n      eq\n      tag_9\n      jumpi\n      dup1\n      0x23b872dd\n      eq\n      tag_10\n      jumpi\n      dup1\n      0x2f745c59\n      eq\n      tag_11\n      jumpi\n      jump(tag_2)\n    tag_23:\n      dup1\n      0x01ffc9a7\n      eq\n      tag_3\n      jumpi\n      dup1\n      0x06fdde03\n      eq\n      tag_4\n      jumpi\n      dup1\n      0x081812fc\n      eq\n      tag_5\n      jumpi\n      dup1\n      0x095ea7b3\n      eq\n      tag_6\n      jumpi\n    tag_2:\n      0x00\n      dup1\n      revert\n        /* \"ERC721.sol\":3121:3530  function supportsInterface(bytes4 interfaceId) public override pure returns (bool) {\r... */\n    tag_3:\n      tag_24\n      0x04\n      dup1\n      calldatasize\n      sub\n      dup2\n      add\n      swap1\n      tag_25\n      swap2\n      swap1\n      tag_26\n      jump\t// in\n    tag_25:\n      tag_27\n      jump\t// in\n    tag_24:\n      mload(0x40)\n      tag_28\n      swap2\n      swap1\n      tag_29\n      jump\t// in\n    tag_28:\n      mload(0x40)\n      dup1\n      swap2\n      sub\n      swap1\n      return\n        /* \"ERC721.sol\":2658:2750  function name() public override view returns (string memory) {\r... */\n    tag_4:\n      tag_30\n      tag_31\n      jump\t// in\n    tag_30:\n      mload(0x40)\n      tag_32\n      swap2\n      swap1\n      tag_33\n      jump\t// in\n    tag_32:\n      mload(0x40)\n      dup1\n      swap2\n      sub\n      swap1\n      return\n        /* \"ERC721.sol\":4733:4935  function getApproved(uint256 tokenId) public override view returns (address) {\r... */\n    tag_5:\n      tag_34\n      0x04\n      dup1\n      calldatasize\n      sub\n      dup2\n      add\n      swap1\n      tag_35\n      swap2\n      swap1\n      tag_36\n      jump\t// in\n    tag_35:\n      tag_37\n      jump\t// in\n    tag_34:\n      mload(0x40)\n      tag_38\n      swap2\n      swap1\n      tag_39\n      jump\t// in\n    tag_38:\n      mload(0x40)\n      dup1\n      swap2\n      sub\n      swap1\n      return\n        /* \"ERC721.sol\":4394:4725  function approve(address to, uint256 tokenId) public override {\r... */\n    tag_6:\n      tag_40\n      0x04\n      dup1\n      calldatasize\n      sub\n      dup2\n      add\n      swap1\n      tag_41\n      swap2\n      swap1\n      tag_42\n      jump\t// in\n    tag_41:\n      tag_43\n      jump\t// in\n    tag_40:\n      stop\n        /* \"ERC721.sol\":10416:10667  function create(uint[] memory tokenId, string memory uri) public {\r... */\n    tag_7:\n      tag_44\n      0x04\n      dup1\n      calldatasize\n      sub\n      dup2\n      add\n      swap1\n      tag_45\n      swap2\n      swap1\n      tag_46\n      jump\t// in\n    tag_45:\n      tag_47\n      jump\t// in\n    tag_44:\n      stop\n        /* \"ERC721.sol\":2995:3113  function uri(uint256 tokenId) public override view returns (string memory) {\r... */\n    tag_8:\n      tag_48\n      0x04\n      dup1\n      calldatasize\n      sub\n      dup2\n      add\n      swap1\n      tag_49\n      swap2\n      swap1\n      tag_36\n      jump\t// in\n    tag_49:\n      tag_50\n      jump\t// in\n    tag_48:\n      mload(0x40)\n      tag_51\n      swap2\n      swap1\n      tag_33\n      jump\t// in\n    tag_51:\n      mload(0x40)\n      dup1\n      swap2\n      sub\n      swap1\n      return\n        /* \"ERC721.sol\":6115:6220  function totalSupply() public override view returns (uint256) {\r... */\n    tag_9:\n      tag_52\n      tag_53\n      jump\t// in\n    tag_52:\n      mload(0x40)\n      tag_54\n      swap2\n      swap1\n      tag_55\n      jump\t// in\n    tag_54:\n      mload(0x40)\n      dup1\n      swap2\n      sub\n      swap1\n      return\n        /* \"ERC721.sol\":4943:5679  function transferFrom(address from, address to, uint256 tokenId) public override {\r... */\n    tag_10:\n      tag_56\n      0x04\n      dup1\n      calldatasize\n      sub\n      dup2\n      add\n      swap1\n      tag_57\n      swap2\n      swap1\n      tag_58\n      jump\t// in\n    tag_57:\n      tag_59\n      jump\t// in\n    tag_56:\n      stop\n        /* \"ERC721.sol\":6425:6644  function tokenOfOwnerByIndex(address owner, uint256 index) public override view returns (uint256) {\r... */\n    tag_11:\n      tag_60\n      0x04\n      dup1\n      calldatasize\n      sub\n      dup2\n      add\n      swap1\n      tag_61\n      swap2\n      swap1\n      tag_42\n      jump\t// in\n    tag_61:\n      tag_62\n      jump\t// in\n    tag_60:\n      mload(0x40)\n      tag_63\n      swap2\n      swap1\n      tag_55\n      jump\t// in\n    tag_63:\n      mload(0x40)\n      dup1\n      swap2\n      sub\n      swap1\n      return\n        /* \"ERC721.sol\":5964:6107  function safeTransferFrom(address from, address to, uint256 tokenId) public override {\r... */\n    tag_12:\n      tag_64\n      0x04\n      dup1\n      calldatasize\n      sub\n      dup2\n      add\n      swap1\n      tag_65\n      swap2\n      swap1\n      tag_58\n      jump\t// in\n    tag_65:\n      tag_66\n      jump\t// in\n    tag_64:\n      stop\n        /* \"ERC721.sol\":6228:6417  function tokenByIndex(uint256 index) public override view returns (uint256) {\r... */\n    tag_13:\n      tag_67\n      0x04\n      dup1\n      calldatasize\n      sub\n      dup2\n      add\n      swap1\n      tag_68\n      swap2\n      swap1\n      tag_36\n      jump\t// in\n    tag_68:\n      tag_69\n      jump\t// in\n    tag_67:\n      mload(0x40)\n      tag_70\n      swap2\n      swap1\n      tag_55\n      jump\t// in\n    tag_70:\n      mload(0x40)\n      dup1\n      swap2\n      sub\n      swap1\n      return\n        /* \"ERC721.sol\":3727:3936  function ownerOf(uint256 tokenId) public override view returns (address) {\r... */\n    tag_14:\n      tag_71\n      0x04\n      dup1\n      calldatasize\n      sub\n      dup2\n      add\n      swap1\n      tag_72\n      swap2\n      swap1\n      tag_36\n      jump\t// in\n    tag_72:\n      tag_73\n      jump\t// in\n    tag_71:\n      mload(0x40)\n      tag_74\n      swap2\n      swap1\n      tag_39\n      jump\t// in\n    tag_74:\n      mload(0x40)\n      dup1\n      swap2\n      sub\n      swap1\n      return\n        /* \"ERC721.sol\":3538:3719  function balanceOf(address owner) public override view returns (uint256) {\r... */\n    tag_15:\n      tag_75\n      0x04\n      dup1\n      calldatasize\n      sub\n      dup2\n      add\n      swap1\n      tag_76\n      swap2\n      swap1\n      tag_77\n      jump\t// in\n    tag_76:\n      tag_78\n      jump\t// in\n    tag_75:\n      mload(0x40)\n      tag_79\n      swap2\n      swap1\n      tag_55\n      jump\t// in\n    tag_79:\n      mload(0x40)\n      dup1\n      swap2\n      sub\n      swap1\n      return\n        /* \"ERC721.sol\":2758:2854  function symbol() public override view returns (string memory) {\r... */\n    tag_16:\n      tag_80\n      tag_81\n      jump\t// in\n    tag_80:\n      mload(0x40)\n      tag_82\n      swap2\n      swap1\n      tag_33\n      jump\t// in\n    tag_82:\n      mload(0x40)\n      dup1\n      swap2\n      sub\n      swap1\n      return\n        /* \"ERC721.sol\":3944:4222  function setApprovalForAll(address operator, bool approved) public override {\r... */\n    tag_17:\n      tag_83\n      0x04\n      dup1\n      calldatasize\n      sub\n      dup2\n      add\n      swap1\n      tag_84\n      swap2\n      swap1\n      tag_85\n      jump\t// in\n    tag_84:\n      tag_86\n      jump\t// in\n    tag_83:\n      stop\n        /* \"ERC721.sol\":5687:5956  function safeTransferFrom(address from, address to, uint256 tokenId, bytes memory data) public override {\r... */\n    tag_18:\n      tag_87\n      0x04\n      dup1\n      calldatasize\n      sub\n      dup2\n      add\n      swap1\n      tag_88\n      swap2\n      swap1\n      tag_89\n      jump\t// in\n    tag_88:\n      tag_90\n      jump\t// in\n    tag_87:\n      stop\n        /* \"ERC721.sol\":2862:2987  function tokenURI(uint256 tokenId) public override view returns (string memory) {\r... */\n    tag_19:\n      tag_91\n      0x04\n      dup1\n      calldatasize\n      sub\n      dup2\n      add\n      swap1\n      tag_92\n      swap2\n      swap1\n      tag_36\n      jump\t// in\n    tag_92:\n      tag_93\n      jump\t// in\n    tag_91:\n      mload(0x40)\n      tag_94\n      swap2\n      swap1\n      tag_33\n      jump\t// in\n    tag_94:\n      mload(0x40)\n      dup1\n      swap2\n      sub\n      swap1\n      return\n        /* \"ERC721.sol\":4230:4386  function isApprovedForAll(address owner, address operator) public override view returns (bool) {\r... */\n    tag_20:\n      tag_95\n      0x04\n      dup1\n      calldatasize\n      sub\n      dup2\n      add\n      swap1\n      tag_96\n      swap2\n      swap1\n      tag_97\n      jump\t// in\n    tag_96:\n      tag_98\n      jump\t// in\n    tag_95:\n      mload(0x40)\n      tag_99\n      swap2\n      swap1\n      tag_29\n      jump\t// in\n    tag_99:\n      mload(0x40)\n      dup1\n      swap2\n      sub\n      swap1\n      return\n        /* \"ERC721.sol\":3121:3530  function supportsInterface(bytes4 interfaceId) public override pure returns (bool) {\r... */\n    tag_27:\n        /* \"ERC721.sol\":3198:3202  bool */\n      0x00\n        /* \"ERC721.sol\":3237:3262  type(IERC165).interfaceId */\n      0x01ffc9a700000000000000000000000000000000000000000000000000000000\n        /* \"ERC721.sol\":3222:3262  interfaceId == type(IERC165).interfaceId */\n      not(0xffffffffffffffffffffffffffffffffffffffffffffffffffffffff)\n      and\n        /* \"ERC721.sol\":3222:3233  interfaceId */\n      dup3\n        /* \"ERC721.sol\":3222:3262  interfaceId == type(IERC165).interfaceId */\n      not(0xffffffffffffffffffffffffffffffffffffffffffffffffffffffff)\n      and\n      eq\n        /* \"ERC721.sol\":3222:3320  interfaceId == type(IERC165).interfaceId \r... */\n      dup1\n      tag_101\n      jumpi\n      pop\n        /* \"ERC721.sol\":3295:3320  type(IERC721).interfaceId */\n      0x80ac58cd00000000000000000000000000000000000000000000000000000000\n        /* \"ERC721.sol\":3280:3320  interfaceId == type(IERC721).interfaceId */\n      not(0xffffffffffffffffffffffffffffffffffffffffffffffffffffffff)\n      and\n        /* \"ERC721.sol\":3280:3291  interfaceId */\n      dup3\n        /* \"ERC721.sol\":3280:3320  interfaceId == type(IERC721).interfaceId */\n      not(0xffffffffffffffffffffffffffffffffffffffffffffffffffffffff)\n      and\n      eq\n        /* \"ERC721.sol\":3222:3320  interfaceId == type(IERC165).interfaceId \r... */\n    tag_101:\n        /* \"ERC721.sol\":3222:3385  interfaceId == type(IERC165).interfaceId \r... */\n      dup1\n      tag_102\n      jumpi\n      pop\n        /* \"ERC721.sol\":3352:3385  type(IERC721Metadata).interfaceId */\n      0x5b5e139f00000000000000000000000000000000000000000000000000000000\n        /* \"ERC721.sol\":3337:3385  interfaceId == type(IERC721Metadata).interfaceId */\n      not(0xffffffffffffffffffffffffffffffffffffffffffffffffffffffff)\n      and\n        /* \"ERC721.sol\":3337:3348  interfaceId */\n      dup3\n        /* \"ERC721.sol\":3337:3385  interfaceId == type(IERC721Metadata).interfaceId */\n      not(0xffffffffffffffffffffffffffffffffffffffffffffffffffffffff)\n      and\n      eq\n        /* \"ERC721.sol\":3222:3385  interfaceId == type(IERC165).interfaceId \r... */\n    tag_102:\n        /* \"ERC721.sol\":3222:3455  interfaceId == type(IERC165).interfaceId \r... */\n      dup1\n      tag_103\n      jumpi\n      pop\n        /* \"ERC721.sol\":3417:3455  type(IERC1155Metadata_URI).interfaceId */\n      0x0e89341c00000000000000000000000000000000000000000000000000000000\n        /* \"ERC721.sol\":3402:3455  interfaceId == type(IERC1155Metadata_URI).interfaceId */\n      not(0xffffffffffffffffffffffffffffffffffffffffffffffffffffffff)\n      and\n        /* \"ERC721.sol\":3402:3413  interfaceId */\n      dup3\n        /* \"ERC721.sol\":3402:3455  interfaceId == type(IERC1155Metadata_URI).interfaceId */\n      not(0xffffffffffffffffffffffffffffffffffffffffffffffffffffffff)\n      and\n      eq\n        /* \"ERC721.sol\":3222:3455  interfaceId == type(IERC165).interfaceId \r... */\n    tag_103:\n        /* \"ERC721.sol\":3222:3522  interfaceId == type(IERC165).interfaceId \r... */\n      dup1\n      tag_104\n      jumpi\n      pop\n        /* \"ERC721.sol\":3487:3522  type(IERC721Enumerable).interfaceId */\n      0x780e9d6300000000000000000000000000000000000000000000000000000000\n        /* \"ERC721.sol\":3472:3522  interfaceId == type(IERC721Enumerable).interfaceId */\n      not(0xffffffffffffffffffffffffffffffffffffffffffffffffffffffff)\n      and\n        /* \"ERC721.sol\":3472:3483  interfaceId */\n      dup3\n        /* \"ERC721.sol\":3472:3522  interfaceId == type(IERC721Enumerable).interfaceId */\n      not(0xffffffffffffffffffffffffffffffffffffffffffffffffffffffff)\n      and\n      eq\n        /* \"ERC721.sol\":3222:3522  interfaceId == type(IERC165).interfaceId \r... */\n    tag_104:\n        /* \"ERC721.sol\":3215:3522  return interfaceId == type(IERC165).interfaceId \r... */\n      swap1\n      pop\n        /* \"ERC721.sol\":3121:3530  function supportsInterface(bytes4 interfaceId) public override pure returns (bool) {\r... */\n      swap2\n      swap1\n      pop\n      jump\t// out\n        /* \"ERC721.sol\":2658:2750  function name() public override view returns (string memory) {\r... */\n    tag_31:\n        /* \"ERC721.sol\":2704:2717  string memory */\n      0x60\n        /* \"ERC721.sol\":2737:2742  _name */\n      0x04\n        /* \"ERC721.sol\":2730:2742  return _name */\n      dup1\n      sload\n      tag_106\n      swap1\n      tag_107\n      jump\t// in\n    tag_106:\n      dup1\n      0x1f\n      add\n      0x20\n      dup1\n      swap2\n      div\n      mul\n      0x20\n      add\n      mload(0x40)\n      swap1\n      dup2\n      add\n      0x40\n      mstore\n      dup1\n      swap3\n      swap2\n      swap1\n      dup2\n      dup2\n      mstore\n      0x20\n      add\n      dup3\n      dup1\n      sload\n      tag_108\n      swap1\n      tag_107\n      jump\t// in\n    tag_108:\n      dup1\n      iszero\n      tag_109\n      jumpi\n      dup1\n      0x1f\n      lt\n      tag_110\n      jumpi\n      0x0100\n      dup1\n      dup4\n      sload\n      div\n      mul\n      dup4\n      mstore\n      swap2\n      0x20\n      add\n      swap2\n      jump(tag_109)\n    tag_110:\n      dup3\n      add\n      swap2\n      swap1\n      0x00\n      mstore\n      keccak256(0x00, 0x20)\n      swap1\n    tag_111:\n      dup2\n      sload\n      dup2\n      mstore\n      swap1\n      0x01\n      add\n      swap1\n      0x20\n      add\n      dup1\n      dup4\n      gt\n      tag_111\n      jumpi\n      dup3\n      swap1\n      sub\n      0x1f\n      and\n      dup3\n      add\n      swap2\n    tag_109:\n      pop\n      pop\n      pop\n      pop\n      pop\n      swap1\n      pop\n        /* \"ERC721.sol\":2658:2750  function name() public override view returns (string memory) {\r... */\n      swap1\n      jump\t// out\n        /* \"ERC721.sol\":4733:4935  function getApproved(uint256 tokenId) public override view returns (address) {\r... */\n    tag_37:\n        /* \"ERC721.sol\":4801:4808  address */\n      0x00\n        /* \"ERC721.sol\":4857:4858  0 */\n      dup1\n        /* \"ERC721.sol\":4829:4859  _owners[tokenId] != address(0) */\n      0xffffffffffffffffffffffffffffffffffffffff\n      and\n        /* \"ERC721.sol\":4829:4836  _owners */\n      0x01\n        /* \"ERC721.sol\":4829:4845  _owners[tokenId] */\n      0x00\n        /* \"ERC721.sol\":4837:4844  tokenId */\n      dup5\n        /* \"ERC721.sol\":4829:4845  _owners[tokenId] */\n      dup2\n      mstore\n      0x20\n      add\n      swap1\n      dup2\n      mstore\n      0x20\n      add\n      0x00\n      keccak256\n      0x00\n      swap1\n      sload\n      swap1\n      0x0100\n      exp\n      swap1\n      div\n      0xffffffffffffffffffffffffffffffffffffffff\n      and\n        /* \"ERC721.sol\":4829:4859  _owners[tokenId] != address(0) */\n      0xffffffffffffffffffffffffffffffffffffffff\n      and\n      eq\n      iszero\n        /* \"ERC721.sol\":4821:4883  require(_owners[tokenId] != address(0), \"token is not exists\") */\n      tag_113\n      jumpi\n      mload(0x40)\n      0x08c379a000000000000000000000000000000000000000000000000000000000\n      dup2\n      mstore\n      0x04\n      add\n      tag_114\n      swap1\n      tag_115\n      jump\t// in\n    tag_114:\n      mload(0x40)\n      dup1\n      swap2\n      sub\n      swap1\n      revert\n    tag_113:\n        /* \"ERC721.sol\":4903:4918  _tokenApprovals */\n      0x03\n        /* \"ERC721.sol\":4903:4927  _tokenApprovals[tokenId] */\n      0x00\n        /* \"ERC721.sol\":4919:4926  tokenId */\n      dup4\n        /* \"ERC721.sol\":4903:4927  _tokenApprovals[tokenId] */\n      dup2\n      mstore\n      0x20\n      add\n      swap1\n      dup2\n      mstore\n      0x20\n      add\n      0x00\n      keccak256\n      0x00\n      swap1\n      sload\n      swap1\n      0x0100\n      exp\n      swap1\n      div\n      0xffffffffffffffffffffffffffffffffffffffff\n      and\n        /* \"ERC721.sol\":4896:4927  return _tokenApprovals[tokenId] */\n      swap1\n      pop\n        /* \"ERC721.sol\":4733:4935  function getApproved(uint256 tokenId) public override view returns (address) {\r... */\n      swap2\n      swap1\n      pop\n      jump\t// out\n        /* \"ERC721.sol\":4394:4725  function approve(address to, uint256 tokenId) public override {\r... */\n    tag_43:\n        /* \"ERC721.sol\":4467:4480  address owner */\n      0x00\n        /* \"ERC721.sol\":4483:4499  ownerOf(tokenId) */\n      tag_117\n        /* \"ERC721.sol\":4491:4498  tokenId */\n      dup3\n        /* \"ERC721.sol\":4483:4490  ownerOf */\n      tag_73\n        /* \"ERC721.sol\":4483:4499  ownerOf(tokenId) */\n      jump\t// in\n    tag_117:\n        /* \"ERC721.sol\":4467:4499  address owner = ownerOf(tokenId) */\n      swap1\n      pop\n        /* \"ERC721.sol\":4524:4529  owner */\n      dup1\n        /* \"ERC721.sol\":4518:4529  to != owner */\n      0xffffffffffffffffffffffffffffffffffffffff\n      and\n        /* \"ERC721.sol\":4518:4520  to */\n      dup4\n        /* \"ERC721.sol\":4518:4529  to != owner */\n      0xffffffffffffffffffffffffffffffffffffffff\n      and\n      eq\n      iszero\n        /* \"ERC721.sol\":4510:4558  require(to != owner, \"approval status for self\") */\n      tag_118\n      jumpi\n      mload(0x40)\n      0x08c379a000000000000000000000000000000000000000000000000000000000\n      dup2\n      mstore\n      0x04\n      add\n      tag_119\n      swap1\n      tag_120\n      jump\t// in\n    tag_119:\n      mload(0x40)\n      dup1\n      swap2\n      sub\n      swap1\n      revert\n    tag_118:\n        /* \"ERC721.sol\":4591:4596  owner */\n      dup1\n        /* \"ERC721.sol\":4577:4596  msg.sender == owner */\n      0xffffffffffffffffffffffffffffffffffffffff\n      and\n        /* \"ERC721.sol\":4577:4587  msg.sender */\n      caller\n        /* \"ERC721.sol\":4577:4596  msg.sender == owner */\n      0xffffffffffffffffffffffffffffffffffffffff\n      and\n      eq\n        /* \"ERC721.sol\":4577:4635  msg.sender == owner || isApprovedForAll(owner, msg.sender) */\n      dup1\n      tag_121\n      jumpi\n      pop\n        /* \"ERC721.sol\":4600:4635  isApprovedForAll(owner, msg.sender) */\n      tag_122\n        /* \"ERC721.sol\":4617:4622  owner */\n      dup2\n        /* \"ERC721.sol\":4624:4634  msg.sender */\n      caller\n        /* \"ERC721.sol\":4600:4616  isApprovedForAll */\n      tag_98\n        /* \"ERC721.sol\":4600:4635  isApprovedForAll(owner, msg.sender) */\n      jump\t// in\n    tag_122:\n        /* \"ERC721.sol\":4577:4635  msg.sender == owner || isApprovedForAll(owner, msg.sender) */\n    tag_121:\n        /* \"ERC721.sol\":4569:4685  require(msg.sender == owner || isApprovedForAll(owner, msg.sender), \"caller is not token owner or approval for all\") */\n      tag_123\n      jumpi\n      mload(0x40)\n      0x08c379a000000000000000000000000000000000000000000000000000000000\n      dup2\n      mstore\n      0x04\n      add\n      tag_124\n      swap1\n      tag_125\n      jump\t// in\n    tag_124:\n      mload(0x40)\n      dup1\n      swap2\n      sub\n      swap1\n      revert\n    tag_123:\n        /* \"ERC721.sol\":4696:4717  _approve(to, tokenId) */\n      tag_126\n        /* \"ERC721.sol\":4705:4707  to */\n      dup4\n        /* \"ERC721.sol\":4709:4716  tokenId */\n      dup4\n        /* \"ERC721.sol\":4696:4704  _approve */\n      tag_127\n        /* \"ERC721.sol\":4696:4717  _approve(to, tokenId) */\n      jump\t// in\n    tag_126:\n        /* \"ERC721.sol\":4456:4725  {\r... */\n      pop\n        /* \"ERC721.sol\":4394:4725  function approve(address to, uint256 tokenId) public override {\r... */\n      pop\n      pop\n      jump\t// out\n        /* \"ERC721.sol\":10416:10667  function create(uint[] memory tokenId, string memory uri) public {\r... */\n    tag_47:\n        /* \"ERC721.sol\":10514:10520  _admin */\n      0x0b\n      0x00\n      swap1\n      sload\n      swap1\n      0x0100\n      exp\n      swap1\n      div\n      0xffffffffffffffffffffffffffffffffffffffff\n      and\n        /* \"ERC721.sol\":10500:10520  msg.sender == _admin */\n      0xffffffffffffffffffffffffffffffffffffffff\n      and\n        /* \"ERC721.sol\":10500:10510  msg.sender */\n      caller\n        /* \"ERC721.sol\":10500:10520  msg.sender == _admin */\n      0xffffffffffffffffffffffffffffffffffffffff\n      and\n      eq\n        /* \"ERC721.sol\":10492:10538  require(msg.sender == _admin, \"Unauthorized.\") */\n      tag_129\n      jumpi\n      mload(0x40)\n      0x08c379a000000000000000000000000000000000000000000000000000000000\n      dup2\n      mstore\n      0x04\n      add\n      tag_130\n      swap1\n      tag_131\n      jump\t// in\n    tag_130:\n      mload(0x40)\n      dup1\n      swap2\n      sub\n      swap1\n      revert\n    tag_129:\n        /* \"ERC721.sol\":10554:10560  uint i */\n      0x00\n        /* \"ERC721.sol\":10549:10660  for (uint i = 0; i < tokenId.length; i++) {\r... */\n    tag_132:\n        /* \"ERC721.sol\":10570:10577  tokenId */\n      dup3\n        /* \"ERC721.sol\":10570:10584  tokenId.length */\n      mload\n        /* \"ERC721.sol\":10566:10567  i */\n      dup2\n        /* \"ERC721.sol\":10566:10584  i < tokenId.length */\n      lt\n        /* \"ERC721.sol\":10549:10660  for (uint i = 0; i < tokenId.length; i++) {\r... */\n      iszero\n      tag_133\n      jumpi\n        /* \"ERC721.sol\":10610:10644  _mint(msg.sender, tokenId[i], uri) */\n      tag_135\n        /* \"ERC721.sol\":10616:10626  msg.sender */\n      caller\n        /* \"ERC721.sol\":10628:10635  tokenId */\n      dup5\n        /* \"ERC721.sol\":10636:10637  i */\n      dup4\n        /* \"ERC721.sol\":10628:10638  tokenId[i] */\n      dup2\n      mload\n      dup2\n      lt\n      tag_136\n      jumpi\n      tag_137\n      tag_138\n      jump\t// in\n    tag_137:\n    tag_136:\n      0x20\n      mul\n      0x20\n      add\n      add\n      mload\n        /* \"ERC721.sol\":10640:10643  uri */\n      dup5\n        /* \"ERC721.sol\":10610:10615  _mint */\n      tag_139\n        /* \"ERC721.sol\":10610:10644  _mint(msg.sender, tokenId[i], uri) */\n      jump\t// in\n    tag_135:\n        /* \"ERC721.sol\":10586:10589  i++ */\n      dup1\n      dup1\n      tag_140\n      swap1\n      tag_141\n      jump\t// in\n    tag_140:\n      swap2\n      pop\n      pop\n        /* \"ERC721.sol\":10549:10660  for (uint i = 0; i < tokenId.length; i++) {\r... */\n      jump(tag_132)\n    tag_133:\n      pop\n        /* \"ERC721.sol\":10416:10667  function create(uint[] memory tokenId, string memory uri) public {\r... */\n      pop\n      pop\n      jump\t// out\n        /* \"ERC721.sol\":2995:3113  function uri(uint256 tokenId) public override view returns (string memory) {\r... */\n    tag_50:\n        /* \"ERC721.sol\":3055:3068  string memory */\n      0x60\n        /* \"ERC721.sol\":3088:3105  tokenURI(tokenId) */\n      tag_143\n        /* \"ERC721.sol\":3097:3104  tokenId */\n      dup3\n        /* \"ERC721.sol\":3088:3096  tokenURI */\n      tag_93\n        /* \"ERC721.sol\":3088:3105  tokenURI(tokenId) */\n      jump\t// in\n    tag_143:\n        /* \"ERC721.sol\":3081:3105  return tokenURI(tokenId) */\n      swap1\n      pop\n        /* \"ERC721.sol\":2995:3113  function uri(uint256 tokenId) public override view returns (string memory) {\r... */\n      swap2\n      swap1\n      pop\n      jump\t// out\n        /* \"ERC721.sol\":6115:6220  function totalSupply() public override view returns (uint256) {\r... */\n    tag_53:\n        /* \"ERC721.sol\":6168:6175  uint256 */\n      0x00\n        /* \"ERC721.sol\":6195:6205  _allTokens */\n      0x09\n        /* \"ERC721.sol\":6195:6212  _allTokens.length */\n      dup1\n      sload\n      swap1\n      pop\n        /* \"ERC721.sol\":6188:6212  return _allTokens.length */\n      swap1\n      pop\n        /* \"ERC721.sol\":6115:6220  function totalSupply() public override view returns (uint256) {\r... */\n      swap1\n      jump\t// out\n        /* \"ERC721.sol\":4943:5679  function transferFrom(address from, address to, uint256 tokenId) public override {\r... */\n    tag_59:\n        /* \"ERC721.sol\":5059:5060  0 */\n      0x00\n        /* \"ERC721.sol\":5043:5061  from != address(0) */\n      0xffffffffffffffffffffffffffffffffffffffff\n      and\n        /* \"ERC721.sol\":5043:5047  from */\n      dup4\n        /* \"ERC721.sol\":5043:5061  from != address(0) */\n      0xffffffffffffffffffffffffffffffffffffffff\n      and\n      eq\n      iszero\n        /* \"ERC721.sol\":5035:5092  require(from != address(0), \"transfer from zero address\") */\n      tag_146\n      jumpi\n      mload(0x40)\n      0x08c379a000000000000000000000000000000000000000000000000000000000\n      dup2\n      mstore\n      0x04\n      add\n      tag_147\n      swap1\n      tag_148\n      jump\t// in\n    tag_147:\n      mload(0x40)\n      dup1\n      swap2\n      sub\n      swap1\n      revert\n    tag_146:\n        /* \"ERC721.sol\":5125:5126  0 */\n      0x00\n        /* \"ERC721.sol\":5111:5127  to != address(0) */\n      0xffffffffffffffffffffffffffffffffffffffff\n      and\n        /* \"ERC721.sol\":5111:5113  to */\n      dup3\n        /* \"ERC721.sol\":5111:5127  to != address(0) */\n      0xffffffffffffffffffffffffffffffffffffffff\n      and\n      eq\n      iszero\n        /* \"ERC721.sol\":5103:5156  require(to != address(0), \"transfer to zero address\") */\n      tag_149\n      jumpi\n      mload(0x40)\n      0x08c379a000000000000000000000000000000000000000000000000000000000\n      dup2\n      mstore\n      0x04\n      add\n      tag_150\n      swap1\n      tag_151\n      jump\t// in\n    tag_150:\n      mload(0x40)\n      dup1\n      swap2\n      sub\n      swap1\n      revert\n    tag_149:\n        /* \"ERC721.sol\":5169:5182  address owner */\n      0x00\n        /* \"ERC721.sol\":5185:5201  ownerOf(tokenId) */\n      tag_152\n        /* \"ERC721.sol\":5193:5200  tokenId */\n      dup3\n        /* \"ERC721.sol\":5185:5192  ownerOf */\n      tag_73\n        /* \"ERC721.sol\":5185:5201  ownerOf(tokenId) */\n      jump\t// in\n    tag_152:\n        /* \"ERC721.sol\":5169:5201  address owner = ownerOf(tokenId) */\n      swap1\n      pop\n        /* \"ERC721.sol\":5229:5233  from */\n      dup4\n        /* \"ERC721.sol\":5220:5233  owner == from */\n      0xffffffffffffffffffffffffffffffffffffffff\n      and\n        /* \"ERC721.sol\":5220:5225  owner */\n      dup2\n        /* \"ERC721.sol\":5220:5233  owner == from */\n      0xffffffffffffffffffffffffffffffffffffffff\n      and\n      eq\n        /* \"ERC721.sol\":5212:5270  require(owner == from, \"transfer from is not token owner\") */\n      tag_153\n      jumpi\n      mload(0x40)\n      0x08c379a000000000000000000000000000000000000000000000000000000000\n      dup2\n      mstore\n      0x04\n      add\n      tag_154\n      swap1\n      tag_155\n      jump\t// in\n    tag_154:\n      mload(0x40)\n      dup1\n      swap2\n      sub\n      swap1\n      revert\n    tag_153:\n        /* \"ERC721.sol\":5303:5308  owner */\n      dup1\n        /* \"ERC721.sol\":5289:5308  msg.sender == owner */\n      0xffffffffffffffffffffffffffffffffffffffff\n      and\n        /* \"ERC721.sol\":5289:5299  msg.sender */\n      caller\n        /* \"ERC721.sol\":5289:5308  msg.sender == owner */\n      0xffffffffffffffffffffffffffffffffffffffff\n      and\n      eq\n        /* \"ERC721.sol\":5289:5346  msg.sender == owner || msg.sender == getApproved(tokenId) */\n      dup1\n      tag_156\n      jumpi\n      pop\n        /* \"ERC721.sol\":5326:5346  getApproved(tokenId) */\n      tag_157\n        /* \"ERC721.sol\":5338:5345  tokenId */\n      dup3\n        /* \"ERC721.sol\":5326:5337  getApproved */\n      tag_37\n        /* \"ERC721.sol\":5326:5346  getApproved(tokenId) */\n      jump\t// in\n    tag_157:\n        /* \"ERC721.sol\":5312:5346  msg.sender == getApproved(tokenId) */\n      0xffffffffffffffffffffffffffffffffffffffff\n      and\n        /* \"ERC721.sol\":5312:5322  msg.sender */\n      caller\n        /* \"ERC721.sol\":5312:5346  msg.sender == getApproved(tokenId) */\n      0xffffffffffffffffffffffffffffffffffffffff\n      and\n      eq\n        /* \"ERC721.sol\":5289:5346  msg.sender == owner || msg.sender == getApproved(tokenId) */\n    tag_156:\n        /* \"ERC721.sol\":5289:5385  msg.sender == owner || msg.sender == getApproved(tokenId) || isApprovedForAll(owner, msg.sender) */\n      dup1\n      tag_158\n      jumpi\n      pop\n        /* \"ERC721.sol\":5350:5385  isApprovedForAll(owner, msg.sender) */\n      tag_159\n        /* \"ERC721.sol\":5367:5372  owner */\n      dup2\n        /* \"ERC721.sol\":5374:5384  msg.sender */\n      caller\n        /* \"ERC721.sol\":5350:5366  isApprovedForAll */\n      tag_98\n        /* \"ERC721.sol\":5350:5385  isApprovedForAll(owner, msg.sender) */\n      jump\t// in\n    tag_159:\n        /* \"ERC721.sol\":5289:5385  msg.sender == owner || msg.sender == getApproved(tokenId) || isApprovedForAll(owner, msg.sender) */\n    tag_158:\n        /* \"ERC721.sol\":5281:5421  require(msg.sender == owner || msg.sender == getApproved(tokenId) || isApprovedForAll(owner, msg.sender), \"caller is not owner or approval\") */\n      tag_160\n      jumpi\n      mload(0x40)\n      0x08c379a000000000000000000000000000000000000000000000000000000000\n      dup2\n      mstore\n      0x04\n      add\n      tag_161\n      swap1\n      tag_162\n      jump\t// in\n    tag_161:\n      mload(0x40)\n      dup1\n      swap2\n      sub\n      swap1\n      revert\n    tag_160:\n        /* \"ERC721.sol\":5453:5454  1 */\n      0x01\n        /* \"ERC721.sol\":5434:5443  _balances */\n      0x00\n        /* \"ERC721.sol\":5434:5449  _balances[from] */\n      dup1\n        /* \"ERC721.sol\":5444:5448  from */\n      dup7\n        /* \"ERC721.sol\":5434:5449  _balances[from] */\n      0xffffffffffffffffffffffffffffffffffffffff\n      and\n      0xffffffffffffffffffffffffffffffffffffffff\n      and\n      dup2\n      mstore\n      0x20\n      add\n      swap1\n      dup2\n      mstore\n      0x20\n      add\n      0x00\n      keccak256\n      0x00\n        /* \"ERC721.sol\":5434:5454  _balances[from] -= 1 */\n      dup3\n      dup3\n      sload\n      tag_163\n      swap2\n      swap1\n      tag_164\n      jump\t// in\n    tag_163:\n      swap3\n      pop\n      pop\n      dup2\n      swap1\n      sstore\n      pop\n        /* \"ERC721.sol\":5482:5483  1 */\n      0x01\n        /* \"ERC721.sol\":5465:5474  _balances */\n      0x00\n        /* \"ERC721.sol\":5465:5478  _balances[to] */\n      dup1\n        /* \"ERC721.sol\":5475:5477  to */\n      dup6\n        /* \"ERC721.sol\":5465:5478  _balances[to] */\n      0xffffffffffffffffffffffffffffffffffffffff\n      and\n      0xffffffffffffffffffffffffffffffffffffffff\n      and\n      dup2\n      mstore\n      0x20\n      add\n      swap1\n      dup2\n      mstore\n      0x20\n      add\n      0x00\n      keccak256\n      0x00\n        /* \"ERC721.sol\":5465:5483  _balances[to] += 1 */\n      dup3\n      dup3\n      sload\n      tag_165\n      swap2\n      swap1\n      tag_166\n      jump\t// in\n    tag_165:\n      swap3\n      pop\n      pop\n      dup2\n      swap1\n      sstore\n      pop\n        /* \"ERC721.sol\":5513:5515  to */\n      dup3\n        /* \"ERC721.sol\":5494:5501  _owners */\n      0x01\n        /* \"ERC721.sol\":5494:5510  _owners[tokenId] */\n      0x00\n        /* \"ERC721.sol\":5502:5509  tokenId */\n      dup5\n        /* \"ERC721.sol\":5494:5510  _owners[tokenId] */\n      dup2\n      mstore\n      0x20\n      add\n      swap1\n      dup2\n      mstore\n      0x20\n      add\n      0x00\n      keccak256\n      0x00\n        /* \"ERC721.sol\":5494:5515  _owners[tokenId] = to */\n      0x0100\n      exp\n      dup2\n      sload\n      dup2\n      0xffffffffffffffffffffffffffffffffffffffff\n      mul\n      not\n      and\n      swap1\n      dup4\n      0xffffffffffffffffffffffffffffffffffffffff\n      and\n      mul\n      or\n      swap1\n      sstore\n      pop\n        /* \"ERC721.sol\":5552:5559  tokenId */\n      dup2\n        /* \"ERC721.sol\":5548:5550  to */\n      dup4\n        /* \"ERC721.sol\":5533:5560  Transfer(from, to, tokenId) */\n      0xffffffffffffffffffffffffffffffffffffffff\n      and\n        /* \"ERC721.sol\":5542:5546  from */\n      dup6\n        /* \"ERC721.sol\":5533:5560  Transfer(from, to, tokenId) */\n      0xffffffffffffffffffffffffffffffffffffffff\n      and\n      0xddf252ad1be2c89b69c2b068fc378daa952ba7f163c4a11628f55a4df523b3ef\n      mload(0x40)\n      mload(0x40)\n      dup1\n      swap2\n      sub\n      swap1\n      log4\n        /* \"ERC721.sol\":5573:5620  _removeTokenFromOwnerEnumeration(from, tokenId) */\n      tag_167\n        /* \"ERC721.sol\":5606:5610  from */\n      dup5\n        /* \"ERC721.sol\":5612:5619  tokenId */\n      dup4\n        /* \"ERC721.sol\":5573:5605  _removeTokenFromOwnerEnumeration */\n      tag_168\n        /* \"ERC721.sol\":5573:5620  _removeTokenFromOwnerEnumeration(from, tokenId) */\n      jump\t// in\n    tag_167:\n        /* \"ERC721.sol\":5631:5671  _addTokenToOwnerEnumeration(to, tokenId) */\n      tag_169\n        /* \"ERC721.sol\":5659:5661  to */\n      dup4\n        /* \"ERC721.sol\":5663:5670  tokenId */\n      dup4\n        /* \"ERC721.sol\":5631:5658  _addTokenToOwnerEnumeration */\n      tag_170\n        /* \"ERC721.sol\":5631:5671  _addTokenToOwnerEnumeration(to, tokenId) */\n      jump\t// in\n    tag_169:\n        /* \"ERC721.sol\":5024:5679  {\r... */\n      pop\n        /* \"ERC721.sol\":4943:5679  function transferFrom(address from, address to, uint256 tokenId) public override {\r... */\n      pop\n      pop\n      pop\n      jump\t// out\n        /* \"ERC721.sol\":6425:6644  function tokenOfOwnerByIndex(address owner, uint256 index) public override view returns (uint256) {\r... */\n    tag_62:\n        /* \"ERC721.sol\":6514:6521  uint256 */\n      0x00\n        /* \"ERC721.sol\":6550:6559  _balances */\n      dup1\n        /* \"ERC721.sol\":6550:6566  _balances[owner] */\n      0x00\n        /* \"ERC721.sol\":6560:6565  owner */\n      dup5\n        /* \"ERC721.sol\":6550:6566  _balances[owner] */\n      0xffffffffffffffffffffffffffffffffffffffff\n      and\n      0xffffffffffffffffffffffffffffffffffffffff\n      and\n      dup2\n      mstore\n      0x20\n      add\n      swap1\n      dup2\n      mstore\n      0x20\n      add\n      0x00\n      keccak256\n      sload\n        /* \"ERC721.sol\":6542:6547  index */\n      dup3\n        /* \"ERC721.sol\":6542:6566  index < _balances[owner] */\n      lt\n        /* \"ERC721.sol\":6534:6590  require(index < _balances[owner], \"index out of bounds\") */\n      tag_172\n      jumpi\n      mload(0x40)\n      0x08c379a000000000000000000000000000000000000000000000000000000000\n      dup2\n      mstore\n      0x04\n      add\n      tag_173\n      swap1\n      tag_174\n      jump\t// in\n    tag_173:\n      mload(0x40)\n      dup1\n      swap2\n      sub\n      swap1\n      revert\n    tag_172:\n        /* \"ERC721.sol\":6610:6622  _ownedTokens */\n      0x07\n        /* \"ERC721.sol\":6610:6629  _ownedTokens[owner] */\n      0x00\n        /* \"ERC721.sol\":6623:6628  owner */\n      dup5\n        /* \"ERC721.sol\":6610:6629  _ownedTokens[owner] */\n      0xffffffffffffffffffffffffffffffffffffffff\n      and\n      0xffffffffffffffffffffffffffffffffffffffff\n      and\n      dup2\n      mstore\n      0x20\n      add\n      swap1\n      dup2\n      mstore\n      0x20\n      add\n      0x00\n      keccak256\n        /* \"ERC721.sol\":6610:6636  _ownedTokens[owner][index] */\n      0x00\n        /* \"ERC721.sol\":6630:6635  index */\n      dup4\n        /* \"ERC721.sol\":6610:6636  _ownedTokens[owner][index] */\n      dup2\n      mstore\n      0x20\n      add\n      swap1\n      dup2\n      mstore\n      0x20\n      add\n      0x00\n      keccak256\n      sload\n        /* \"ERC721.sol\":6603:6636  return _ownedTokens[owner][index] */\n      swap1\n      pop\n        /* \"ERC721.sol\":6425:6644  function tokenOfOwnerByIndex(address owner, uint256 index) public override view returns (uint256) {\r... */\n      swap3\n      swap2\n      pop\n      pop\n      jump\t// out\n        /* \"ERC721.sol\":5964:6107  function safeTransferFrom(address from, address to, uint256 tokenId) public override {\r... */\n    tag_66:\n        /* \"ERC721.sol\":6060:6099  safeTransferFrom(from, to, tokenId, \"\") */\n      tag_176\n        /* \"ERC721.sol\":6077:6081  from */\n      dup4\n        /* \"ERC721.sol\":6083:6085  to */\n      dup4\n        /* \"ERC721.sol\":6087:6094  tokenId */\n      dup4\n        /* \"ERC721.sol\":6060:6099  safeTransferFrom(from, to, tokenId, \"\") */\n      mload(0x40)\n      dup1\n      0x20\n      add\n      0x40\n      mstore\n      dup1\n      0x00\n      dup2\n      mstore\n      pop\n        /* \"ERC721.sol\":6060:6076  safeTransferFrom */\n      tag_90\n        /* \"ERC721.sol\":6060:6099  safeTransferFrom(from, to, tokenId, \"\") */\n      jump\t// in\n    tag_176:\n        /* \"ERC721.sol\":5964:6107  function safeTransferFrom(address from, address to, uint256 tokenId) public override {\r... */\n      pop\n      pop\n      pop\n      jump\t// out\n        /* \"ERC721.sol\":6228:6417  function tokenByIndex(uint256 index) public override view returns (uint256) {\r... */\n    tag_69:\n        /* \"ERC721.sol\":6295:6302  uint256 */\n      0x00\n        /* \"ERC721.sol\":6331:6341  _allTokens */\n      0x09\n        /* \"ERC721.sol\":6331:6348  _allTokens.length */\n      dup1\n      sload\n      swap1\n      pop\n        /* \"ERC721.sol\":6323:6328  index */\n      dup3\n        /* \"ERC721.sol\":6323:6348  index < _allTokens.length */\n      lt\n        /* \"ERC721.sol\":6315:6372  require(index < _allTokens.length, \"index out of bounds\") */\n      tag_178\n      jumpi\n      mload(0x40)\n      0x08c379a000000000000000000000000000000000000000000000000000000000\n      dup2\n      mstore\n      0x04\n      add\n      tag_179\n      swap1\n      tag_174\n      jump\t// in\n    tag_179:\n      mload(0x40)\n      dup1\n      swap2\n      sub\n      swap1\n      revert\n    tag_178:\n        /* \"ERC721.sol\":6392:6402  _allTokens */\n      0x09\n        /* \"ERC721.sol\":6403:6408  index */\n      dup3\n        /* \"ERC721.sol\":6392:6409  _allTokens[index] */\n      dup2\n      sload\n      dup2\n      lt\n      tag_180\n      jumpi\n      tag_181\n      tag_138\n      jump\t// in\n    tag_181:\n    tag_180:\n      swap1\n      0x00\n      mstore\n      keccak256(0x00, 0x20)\n      add\n      sload\n        /* \"ERC721.sol\":6385:6409  return _allTokens[index] */\n      swap1\n      pop\n        /* \"ERC721.sol\":6228:6417  function tokenByIndex(uint256 index) public override view returns (uint256) {\r... */\n      swap2\n      swap1\n      pop\n      jump\t// out\n        /* \"ERC721.sol\":3727:3936  function ownerOf(uint256 tokenId) public override view returns (address) {\r... */\n    tag_73:\n        /* \"ERC721.sol\":3791:3798  address */\n      0x00\n        /* \"ERC721.sol\":3811:3824  address owner */\n      dup1\n        /* \"ERC721.sol\":3827:3834  _owners */\n      0x01\n        /* \"ERC721.sol\":3827:3843  _owners[tokenId] */\n      0x00\n        /* \"ERC721.sol\":3835:3842  tokenId */\n      dup5\n        /* \"ERC721.sol\":3827:3843  _owners[tokenId] */\n      dup2\n      mstore\n      0x20\n      add\n      swap1\n      dup2\n      mstore\n      0x20\n      add\n      0x00\n      keccak256\n      0x00\n      swap1\n      sload\n      swap1\n      0x0100\n      exp\n      swap1\n      div\n      0xffffffffffffffffffffffffffffffffffffffff\n      and\n        /* \"ERC721.sol\":3811:3843  address owner = _owners[tokenId] */\n      swap1\n      pop\n        /* \"ERC721.sol\":3879:3880  0 */\n      0x00\n        /* \"ERC721.sol\":3862:3881  owner != address(0) */\n      0xffffffffffffffffffffffffffffffffffffffff\n      and\n        /* \"ERC721.sol\":3862:3867  owner */\n      dup2\n        /* \"ERC721.sol\":3862:3881  owner != address(0) */\n      0xffffffffffffffffffffffffffffffffffffffff\n      and\n      eq\n      iszero\n        /* \"ERC721.sol\":3854:3905  require(owner != address(0), \"token is not exists\") */\n      tag_184\n      jumpi\n      mload(0x40)\n      0x08c379a000000000000000000000000000000000000000000000000000000000\n      dup2\n      mstore\n      0x04\n      add\n      tag_185\n      swap1\n      tag_115\n      jump\t// in\n    tag_185:\n      mload(0x40)\n      dup1\n      swap2\n      sub\n      swap1\n      revert\n    tag_184:\n        /* \"ERC721.sol\":3923:3928  owner */\n      dup1\n        /* \"ERC721.sol\":3916:3928  return owner */\n      swap2\n      pop\n      pop\n        /* \"ERC721.sol\":3727:3936  function ownerOf(uint256 tokenId) public override view returns (address) {\r... */\n      swap2\n      swap1\n      pop\n      jump\t// out\n        /* \"ERC721.sol\":3538:3719  function balanceOf(address owner) public override view returns (uint256) {\r... */\n    tag_78:\n        /* \"ERC721.sol\":3602:3609  uint256 */\n      0x00\n        /* \"ERC721.sol\":3647:3648  0 */\n      dup1\n        /* \"ERC721.sol\":3630:3649  owner != address(0) */\n      0xffffffffffffffffffffffffffffffffffffffff\n      and\n        /* \"ERC721.sol\":3630:3635  owner */\n      dup3\n        /* \"ERC721.sol\":3630:3649  owner != address(0) */\n      0xffffffffffffffffffffffffffffffffffffffff\n      and\n      eq\n      iszero\n        /* \"ERC721.sol\":3622:3675  require(owner != address(0), \"owner is zero address\") */\n      tag_187\n      jumpi\n      mload(0x40)\n      0x08c379a000000000000000000000000000000000000000000000000000000000\n      dup2\n      mstore\n      0x04\n      add\n      tag_188\n      swap1\n      tag_189\n      jump\t// in\n    tag_188:\n      mload(0x40)\n      dup1\n      swap2\n      sub\n      swap1\n      revert\n    tag_187:\n        /* \"ERC721.sol\":3695:3704  _balances */\n      0x00\n        /* \"ERC721.sol\":3695:3711  _balances[owner] */\n      dup1\n        /* \"ERC721.sol\":3705:3710  owner */\n      dup4\n        /* \"ERC721.sol\":3695:3711  _balances[owner] */\n      0xffffffffffffffffffffffffffffffffffffffff\n      and\n      0xffffffffffffffffffffffffffffffffffffffff\n      and\n      dup2\n      mstore\n      0x20\n      add\n      swap1\n      dup2\n      mstore\n      0x20\n      add\n      0x00\n      keccak256\n      sload\n        /* \"ERC721.sol\":3688:3711  return _balances[owner] */\n      swap1\n      pop\n        /* \"ERC721.sol\":3538:3719  function balanceOf(address owner) public override view returns (uint256) {\r... */\n      swap2\n      swap1\n      pop\n      jump\t// out\n        /* \"ERC721.sol\":2758:2854  function symbol() public override view returns (string memory) {\r... */\n    tag_81:\n        /* \"ERC721.sol\":2806:2819  string memory */\n      0x60\n        /* \"ERC721.sol\":2839:2846  _symbol */\n      0x05\n        /* \"ERC721.sol\":2832:2846  return _symbol */\n      dup1\n      sload\n      tag_191\n      swap1\n      tag_107\n      jump\t// in\n    tag_191:\n      dup1\n      0x1f\n      add\n      0x20\n      dup1\n      swap2\n      div\n      mul\n      0x20\n      add\n      mload(0x40)\n      swap1\n      dup2\n      add\n      0x40\n      mstore\n      dup1\n      swap3\n      swap2\n      swap1\n      dup2\n      dup2\n      mstore\n      0x20\n      add\n      dup3\n      dup1\n      sload\n      tag_192\n      swap1\n      tag_107\n      jump\t// in\n    tag_192:\n      dup1\n      iszero\n      tag_193\n      jumpi\n      dup1\n      0x1f\n      lt\n      tag_194\n      jumpi\n      0x0100\n      dup1\n      dup4\n      sload\n      div\n      mul\n      dup4\n      mstore\n      swap2\n      0x20\n      add\n      swap2\n      jump(tag_193)\n    tag_194:\n      dup3\n      add\n      swap2\n      swap1\n      0x00\n      mstore\n      keccak256(0x00, 0x20)\n      swap1\n    tag_195:\n      dup2\n      sload\n      dup2\n      mstore\n      swap1\n      0x01\n      add\n      swap1\n      0x20\n      add\n      dup1\n      dup4\n      gt\n      tag_195\n      jumpi\n      dup3\n      swap1\n      sub\n      0x1f\n      and\n      dup3\n      add\n      swap2\n    tag_193:\n      pop\n      pop\n      pop\n      pop\n      pop\n      swap1\n      pop\n        /* \"ERC721.sol\":2758:2854  function symbol() public override view returns (string memory) {\r... */\n      swap1\n      jump\t// out\n        /* \"ERC721.sol\":3944:4222  function setApprovalForAll(address operator, bool approved) public override {\r... */\n    tag_86:\n        /* \"ERC721.sol\":4053:4061  operator */\n      dup2\n        /* \"ERC721.sol\":4039:4061  msg.sender != operator */\n      0xffffffffffffffffffffffffffffffffffffffff\n      and\n        /* \"ERC721.sol\":4039:4049  msg.sender */\n      caller\n        /* \"ERC721.sol\":4039:4061  msg.sender != operator */\n      0xffffffffffffffffffffffffffffffffffffffff\n      and\n      eq\n      iszero\n        /* \"ERC721.sol\":4031:4090  require(msg.sender != operator, \"approval status for self\") */\n      tag_197\n      jumpi\n      mload(0x40)\n      0x08c379a000000000000000000000000000000000000000000000000000000000\n      dup2\n      mstore\n      0x04\n      add\n      tag_198\n      swap1\n      tag_120\n      jump\t// in\n    tag_198:\n      mload(0x40)\n      dup1\n      swap2\n      sub\n      swap1\n      revert\n    tag_197:\n        /* \"ERC721.sol\":4144:4152  approved */\n      dup1\n        /* \"ERC721.sol\":4101:4119  _operatorApprovals */\n      0x02\n        /* \"ERC721.sol\":4101:4131  _operatorApprovals[msg.sender] */\n      0x00\n        /* \"ERC721.sol\":4120:4130  msg.sender */\n      caller\n        /* \"ERC721.sol\":4101:4131  _operatorApprovals[msg.sender] */\n      0xffffffffffffffffffffffffffffffffffffffff\n      and\n      0xffffffffffffffffffffffffffffffffffffffff\n      and\n      dup2\n      mstore\n      0x20\n      add\n      swap1\n      dup2\n      mstore\n      0x20\n      add\n      0x00\n      keccak256\n        /* \"ERC721.sol\":4101:4141  _operatorApprovals[msg.sender][operator] */\n      0x00\n        /* \"ERC721.sol\":4132:4140  operator */\n      dup5\n        /* \"ERC721.sol\":4101:4141  _operatorApprovals[msg.sender][operator] */\n      0xffffffffffffffffffffffffffffffffffffffff\n      and\n      0xffffffffffffffffffffffffffffffffffffffff\n      and\n      dup2\n      mstore\n      0x20\n      add\n      swap1\n      dup2\n      mstore\n      0x20\n      add\n      0x00\n      keccak256\n      0x00\n        /* \"ERC721.sol\":4101:4152  _operatorApprovals[msg.sender][operator] = approved */\n      0x0100\n      exp\n      dup2\n      sload\n      dup2\n      0xff\n      mul\n      not\n      and\n      swap1\n      dup4\n      iszero\n      iszero\n      mul\n      or\n      swap1\n      sstore\n      pop\n        /* \"ERC721.sol\":4195:4203  operator */\n      dup2\n        /* \"ERC721.sol\":4168:4214  ApprovalForAll(msg.sender, operator, approved) */\n      0xffffffffffffffffffffffffffffffffffffffff\n      and\n        /* \"ERC721.sol\":4183:4193  msg.sender */\n      caller\n        /* \"ERC721.sol\":4168:4214  ApprovalForAll(msg.sender, operator, approved) */\n      0xffffffffffffffffffffffffffffffffffffffff\n      and\n      0x17307eab39ab6107e8899845ad3d59bd9653f200f220920489ca2b5937696c31\n        /* \"ERC721.sol\":4205:4213  approved */\n      dup4\n        /* \"ERC721.sol\":4168:4214  ApprovalForAll(msg.sender, operator, approved) */\n      mload(0x40)\n      tag_199\n      swap2\n      swap1\n      tag_29\n      jump\t// in\n    tag_199:\n      mload(0x40)\n      dup1\n      swap2\n      sub\n      swap1\n      log3\n        /* \"ERC721.sol\":3944:4222  function setApprovalForAll(address operator, bool approved) public override {\r... */\n      pop\n      pop\n      jump\t// out\n        /* \"ERC721.sol\":5687:5956  function safeTransferFrom(address from, address to, uint256 tokenId, bytes memory data) public override {\r... */\n    tag_90:\n        /* \"ERC721.sol\":5802:5833  transferFrom(from, to, tokenId) */\n      tag_201\n        /* \"ERC721.sol\":5815:5819  from */\n      dup5\n        /* \"ERC721.sol\":5821:5823  to */\n      dup5\n        /* \"ERC721.sol\":5825:5832  tokenId */\n      dup5\n        /* \"ERC721.sol\":5802:5814  transferFrom */\n      tag_59\n        /* \"ERC721.sol\":5802:5833  transferFrom(from, to, tokenId) */\n      jump\t// in\n    tag_201:\n        /* \"ERC721.sol\":5854:5901  _checkOnERC721Received(from, to, tokenId, data) */\n      tag_202\n        /* \"ERC721.sol\":5877:5881  from */\n      dup5\n        /* \"ERC721.sol\":5883:5885  to */\n      dup5\n        /* \"ERC721.sol\":5887:5894  tokenId */\n      dup5\n        /* \"ERC721.sol\":5896:5900  data */\n      dup5\n        /* \"ERC721.sol\":5854:5876  _checkOnERC721Received */\n      tag_203\n        /* \"ERC721.sol\":5854:5901  _checkOnERC721Received(from, to, tokenId, data) */\n      jump\t// in\n    tag_202:\n        /* \"ERC721.sol\":5846:5948  require(_checkOnERC721Received(from, to, tokenId, data), \"transfer to non ERC721Receiver implementer\") */\n      tag_204\n      jumpi\n      mload(0x40)\n      0x08c379a000000000000000000000000000000000000000000000000000000000\n      dup2\n      mstore\n      0x04\n      add\n      tag_205\n      swap1\n      tag_206\n      jump\t// in\n    tag_205:\n      mload(0x40)\n      dup1\n      swap2\n      sub\n      swap1\n      revert\n    tag_204:\n        /* \"ERC721.sol\":5687:5956  function safeTransferFrom(address from, address to, uint256 tokenId, bytes memory data) public override {\r... */\n      pop\n      pop\n      pop\n      pop\n      jump\t// out\n        /* \"ERC721.sol\":2862:2987  function tokenURI(uint256 tokenId) public override view returns (string memory) {\r... */\n    tag_93:\n        /* \"ERC721.sol\":2927:2940  string memory */\n      0x60\n        /* \"ERC721.sol\":2960:2970  _tokenURIs */\n      0x06\n        /* \"ERC721.sol\":2960:2979  _tokenURIs[tokenId] */\n      0x00\n        /* \"ERC721.sol\":2971:2978  tokenId */\n      dup4\n        /* \"ERC721.sol\":2960:2979  _tokenURIs[tokenId] */\n      dup2\n      mstore\n      0x20\n      add\n      swap1\n      dup2\n      mstore\n      0x20\n      add\n      0x00\n      keccak256\n        /* \"ERC721.sol\":2953:2979  return _tokenURIs[tokenId] */\n      dup1\n      sload\n      tag_208\n      swap1\n      tag_107\n      jump\t// in\n    tag_208:\n      dup1\n      0x1f\n      add\n      0x20\n      dup1\n      swap2\n      div\n      mul\n      0x20\n      add\n      mload(0x40)\n      swap1\n      dup2\n      add\n      0x40\n      mstore\n      dup1\n      swap3\n      swap2\n      swap1\n      dup2\n      dup2\n      mstore\n      0x20\n      add\n      dup3\n      dup1\n      sload\n      tag_209\n      swap1\n      tag_107\n      jump\t// in\n    tag_209:\n      dup1\n      iszero\n      tag_210\n      jumpi\n      dup1\n      0x1f\n      lt\n      tag_211\n      jumpi\n      0x0100\n      dup1\n      dup4\n      sload\n      div\n      mul\n      dup4\n      mstore\n      swap2\n      0x20\n      add\n      swap2\n      jump(tag_210)\n    tag_211:\n      dup3\n      add\n      swap2\n      swap1\n      0x00\n      mstore\n      keccak256(0x00, 0x20)\n      swap1\n    tag_212:\n      dup2\n      sload\n      dup2\n      mstore\n      swap1\n      0x01\n      add\n      swap1\n      0x20\n      add\n      dup1\n      dup4\n      gt\n      tag_212\n      jumpi\n      dup3\n      swap1\n      sub\n      0x1f\n      and\n      dup3\n      add\n      swap2\n    tag_210:\n      pop\n      pop\n      pop\n      pop\n      pop\n      swap1\n      pop\n        /* \"ERC721.sol\":2862:2987  function tokenURI(uint256 tokenId) public override view returns (string memory) {\r... */\n      swap2\n      swap1\n      pop\n      jump\t// out\n        /* \"ERC721.sol\":4230:4386  function isApprovedForAll(address owner, address operator) public override view returns (bool) {\r... */\n    tag_98:\n        /* \"ERC721.sol\":4319:4323  bool */\n      0x00\n        /* \"ERC721.sol\":4343:4361  _operatorApprovals */\n      0x02\n        /* \"ERC721.sol\":4343:4368  _operatorApprovals[owner] */\n      0x00\n        /* \"ERC721.sol\":4362:4367  owner */\n      dup5\n        /* \"ERC721.sol\":4343:4368  _operatorApprovals[owner] */\n      0xffffffffffffffffffffffffffffffffffffffff\n      and\n      0xffffffffffffffffffffffffffffffffffffffff\n      and\n      dup2\n      mstore\n      0x20\n      add\n      swap1\n      dup2\n      mstore\n      0x20\n      add\n      0x00\n      keccak256\n        /* \"ERC721.sol\":4343:4378  _operatorApprovals[owner][operator] */\n      0x00\n        /* \"ERC721.sol\":4369:4377  operator */\n      dup4\n        /* \"ERC721.sol\":4343:4378  _operatorApprovals[owner][operator] */\n      0xffffffffffffffffffffffffffffffffffffffff\n      and\n      0xffffffffffffffffffffffffffffffffffffffff\n      and\n      dup2\n      mstore\n      0x20\n      add\n      swap1\n      dup2\n      mstore\n      0x20\n      add\n      0x00\n      keccak256\n      0x00\n      swap1\n      sload\n      swap1\n      0x0100\n      exp\n      swap1\n      div\n      0xff\n      and\n        /* \"ERC721.sol\":4336:4378  return _operatorApprovals[owner][operator] */\n      swap1\n      pop\n        /* \"ERC721.sol\":4230:4386  function isApprovedForAll(address owner, address operator) public override view returns (bool) {\r... */\n      swap3\n      swap2\n      pop\n      pop\n      jump\t// out\n        /* \"ERC721.sol\":6689:6877  function _approve(address to, uint tokenId) internal {\r... */\n    tag_127:\n        /* \"ERC721.sol\":6780:6782  to */\n      dup2\n        /* \"ERC721.sol\":6753:6768  _tokenApprovals */\n      0x03\n        /* \"ERC721.sol\":6753:6777  _tokenApprovals[tokenId] */\n      0x00\n        /* \"ERC721.sol\":6769:6776  tokenId */\n      dup4\n        /* \"ERC721.sol\":6753:6777  _tokenApprovals[tokenId] */\n      dup2\n      mstore\n      0x20\n      add\n      swap1\n      dup2\n      mstore\n      0x20\n      add\n      0x00\n      keccak256\n      0x00\n        /* \"ERC721.sol\":6753:6782  _tokenApprovals[tokenId] = to */\n      0x0100\n      exp\n      dup2\n      sload\n      dup2\n      0xffffffffffffffffffffffffffffffffffffffff\n      mul\n      not\n      and\n      swap1\n      dup4\n      0xffffffffffffffffffffffffffffffffffffffff\n      and\n      mul\n      or\n      swap1\n      sstore\n      pop\n        /* \"ERC721.sol\":6793:6806  address owner */\n      0x00\n        /* \"ERC721.sol\":6809:6825  ownerOf(tokenId) */\n      tag_215\n        /* \"ERC721.sol\":6817:6824  tokenId */\n      dup3\n        /* \"ERC721.sol\":6809:6816  ownerOf */\n      tag_73\n        /* \"ERC721.sol\":6809:6825  ownerOf(tokenId) */\n      jump\t// in\n    tag_215:\n        /* \"ERC721.sol\":6793:6825  address owner = ownerOf(tokenId) */\n      swap1\n      pop\n        /* \"ERC721.sol\":6861:6868  tokenId */\n      dup2\n        /* \"ERC721.sol\":6857:6859  to */\n      dup4\n        /* \"ERC721.sol\":6841:6869  Approval(owner, to, tokenId) */\n      0xffffffffffffffffffffffffffffffffffffffff\n      and\n        /* \"ERC721.sol\":6850:6855  owner */\n      dup3\n        /* \"ERC721.sol\":6841:6869  Approval(owner, to, tokenId) */\n      0xffffffffffffffffffffffffffffffffffffffff\n      and\n      0x8c5be1e5ebec7d5bd14f71427d1e84f3dd0314c0f7b2291e5b200ac8c7c3b925\n      mload(0x40)\n      mload(0x40)\n      dup1\n      swap2\n      sub\n      swap1\n      log4\n        /* \"ERC721.sol\":6742:6877  {\r... */\n      pop\n        /* \"ERC721.sol\":6689:6877  function _approve(address to, uint tokenId) internal {\r... */\n      pop\n      pop\n      jump\t// out\n        /* \"ERC721.sol\":7484:7945  function _mint(address to, uint tokenId, string memory uri_) internal {\r... */\n    tag_139:\n        /* \"ERC721.sol\":7587:7588  0 */\n      0x00\n        /* \"ERC721.sol\":7573:7589  to != address(0) */\n      0xffffffffffffffffffffffffffffffffffffffff\n      and\n        /* \"ERC721.sol\":7573:7575  to */\n      dup4\n        /* \"ERC721.sol\":7573:7589  to != address(0) */\n      0xffffffffffffffffffffffffffffffffffffffff\n      and\n      eq\n      iszero\n        /* \"ERC721.sol\":7565:7614  require(to != address(0), \"mint to zero address\") */\n      tag_217\n      jumpi\n      mload(0x40)\n      0x08c379a000000000000000000000000000000000000000000000000000000000\n      dup2\n      mstore\n      0x04\n      add\n      tag_218\n      swap1\n      tag_219\n      jump\t// in\n    tag_218:\n      mload(0x40)\n      dup1\n      swap2\n      sub\n      swap1\n      revert\n    tag_217:\n        /* \"ERC721.sol\":7661:7662  0 */\n      0x00\n        /* \"ERC721.sol\":7633:7663  _owners[tokenId] == address(0) */\n      0xffffffffffffffffffffffffffffffffffffffff\n      and\n        /* \"ERC721.sol\":7633:7640  _owners */\n      0x01\n        /* \"ERC721.sol\":7633:7649  _owners[tokenId] */\n      0x00\n        /* \"ERC721.sol\":7641:7648  tokenId */\n      dup5\n        /* \"ERC721.sol\":7633:7649  _owners[tokenId] */\n      dup2\n      mstore\n      0x20\n      add\n      swap1\n      dup2\n      mstore\n      0x20\n      add\n      0x00\n      keccak256\n      0x00\n      swap1\n      sload\n      swap1\n      0x0100\n      exp\n      swap1\n      div\n      0xffffffffffffffffffffffffffffffffffffffff\n      and\n        /* \"ERC721.sol\":7633:7663  _owners[tokenId] == address(0) */\n      0xffffffffffffffffffffffffffffffffffffffff\n      and\n      eq\n        /* \"ERC721.sol\":7625:7688  require(_owners[tokenId] == address(0), \"token already minted\") */\n      tag_220\n      jumpi\n      mload(0x40)\n      0x08c379a000000000000000000000000000000000000000000000000000000000\n      dup2\n      mstore\n      0x04\n      add\n      tag_221\n      swap1\n      tag_222\n      jump\t// in\n    tag_221:\n      mload(0x40)\n      dup1\n      swap2\n      sub\n      swap1\n      revert\n    tag_220:\n        /* \"ERC721.sol\":7718:7719  1 */\n      0x01\n        /* \"ERC721.sol\":7701:7710  _balances */\n      0x00\n        /* \"ERC721.sol\":7701:7714  _balances[to] */\n      dup1\n        /* \"ERC721.sol\":7711:7713  to */\n      dup6\n        /* \"ERC721.sol\":7701:7714  _balances[to] */\n      0xffffffffffffffffffffffffffffffffffffffff\n      and\n      0xffffffffffffffffffffffffffffffffffffffff\n      and\n      dup2\n      mstore\n      0x20\n      add\n      swap1\n      dup2\n      mstore\n      0x20\n      add\n      0x00\n      keccak256\n      0x00\n        /* \"ERC721.sol\":7701:7719  _balances[to] += 1 */\n      dup3\n      dup3\n      sload\n      tag_223\n      swap2\n      swap1\n      tag_166\n      jump\t// in\n    tag_223:\n      swap3\n      pop\n      pop\n      dup2\n      swap1\n      sstore\n      pop\n        /* \"ERC721.sol\":7749:7751  to */\n      dup3\n        /* \"ERC721.sol\":7730:7737  _owners */\n      0x01\n        /* \"ERC721.sol\":7730:7746  _owners[tokenId] */\n      0x00\n        /* \"ERC721.sol\":7738:7745  tokenId */\n      dup5\n        /* \"ERC721.sol\":7730:7746  _owners[tokenId] */\n      dup2\n      mstore\n      0x20\n      add\n      swap1\n      dup2\n      mstore\n      0x20\n      add\n      0x00\n      keccak256\n      0x00\n        /* \"ERC721.sol\":7730:7751  _owners[tokenId] = to */\n      0x0100\n      exp\n      dup2\n      sload\n      dup2\n      0xffffffffffffffffffffffffffffffffffffffff\n      mul\n      not\n      and\n      swap1\n      dup4\n      0xffffffffffffffffffffffffffffffffffffffff\n      and\n      mul\n      or\n      swap1\n      sstore\n      pop\n        /* \"ERC721.sol\":7784:7788  uri_ */\n      dup1\n        /* \"ERC721.sol\":7762:7772  _tokenURIs */\n      0x06\n        /* \"ERC721.sol\":7762:7781  _tokenURIs[tokenId] */\n      0x00\n        /* \"ERC721.sol\":7773:7780  tokenId */\n      dup5\n        /* \"ERC721.sol\":7762:7781  _tokenURIs[tokenId] */\n      dup2\n      mstore\n      0x20\n      add\n      swap1\n      dup2\n      mstore\n      0x20\n      add\n      0x00\n      keccak256\n        /* \"ERC721.sol\":7762:7788  _tokenURIs[tokenId] = uri_ */\n      swap1\n      dup1\n      mload\n      swap1\n      0x20\n      add\n      swap1\n      tag_224\n      swap3\n      swap2\n      swap1\n      tag_225\n      jump\t// in\n    tag_224:\n      pop\n        /* \"ERC721.sol\":7831:7838  tokenId */\n      dup2\n        /* \"ERC721.sol\":7827:7829  to */\n      dup4\n        /* \"ERC721.sol\":7806:7839  Transfer(address(0), to, tokenId) */\n      0xffffffffffffffffffffffffffffffffffffffff\n      and\n        /* \"ERC721.sol\":7823:7824  0 */\n      0x00\n        /* \"ERC721.sol\":7806:7839  Transfer(address(0), to, tokenId) */\n      0xffffffffffffffffffffffffffffffffffffffff\n      and\n      0xddf252ad1be2c89b69c2b068fc378daa952ba7f163c4a11628f55a4df523b3ef\n      mload(0x40)\n      mload(0x40)\n      dup1\n      swap2\n      sub\n      swap1\n      log4\n        /* \"ERC721.sol\":7852:7886  _addTokenToAllEnumeration(tokenId) */\n      tag_226\n        /* \"ERC721.sol\":7878:7885  tokenId */\n      dup3\n        /* \"ERC721.sol\":7852:7877  _addTokenToAllEnumeration */\n      tag_227\n        /* \"ERC721.sol\":7852:7886  _addTokenToAllEnumeration(tokenId) */\n      jump\t// in\n    tag_226:\n        /* \"ERC721.sol\":7897:7937  _addTokenToOwnerEnumeration(to, tokenId) */\n      tag_228\n        /* \"ERC721.sol\":7925:7927  to */\n      dup4\n        /* \"ERC721.sol\":7929:7936  tokenId */\n      dup4\n        /* \"ERC721.sol\":7897:7924  _addTokenToOwnerEnumeration */\n      tag_170\n        /* \"ERC721.sol\":7897:7937  _addTokenToOwnerEnumeration(to, tokenId) */\n      jump\t// in\n    tag_228:\n        /* \"ERC721.sol\":7484:7945  function _mint(address to, uint tokenId, string memory uri_) internal {\r... */\n      pop\n      pop\n      pop\n      jump\t// out\n        /* \"ERC721.sol\":9780:10260  function _removeTokenFromOwnerEnumeration(address owner, uint tokenId) private {\r... */\n    tag_168:\n        /* \"ERC721.sol\":9870:9880  uint index */\n      0x00\n        /* \"ERC721.sol\":9883:9900  _ownedTokensIndex */\n      0x08\n        /* \"ERC721.sol\":9883:9909  _ownedTokensIndex[tokenId] */\n      0x00\n        /* \"ERC721.sol\":9901:9908  tokenId */\n      dup4\n        /* \"ERC721.sol\":9883:9909  _ownedTokensIndex[tokenId] */\n      dup2\n      mstore\n      0x20\n      add\n      swap1\n      dup2\n      mstore\n      0x20\n      add\n      0x00\n      keccak256\n      sload\n        /* \"ERC721.sol\":9870:9909  uint index = _ownedTokensIndex[tokenId] */\n      swap1\n      pop\n        /* \"ERC721.sol\":9920:9934  uint indexLast */\n      0x00\n        /* \"ERC721.sol\":9937:9946  _balances */\n      dup1\n        /* \"ERC721.sol\":9937:9953  _balances[owner] */\n      0x00\n        /* \"ERC721.sol\":9947:9952  owner */\n      dup6\n        /* \"ERC721.sol\":9937:9953  _balances[owner] */\n      0xffffffffffffffffffffffffffffffffffffffff\n      and\n      0xffffffffffffffffffffffffffffffffffffffff\n      and\n      dup2\n      mstore\n      0x20\n      add\n      swap1\n      dup2\n      mstore\n      0x20\n      add\n      0x00\n      keccak256\n      sload\n        /* \"ERC721.sol\":9920:9953  uint indexLast = _balances[owner] */\n      swap1\n      pop\n        /* \"ERC721.sol\":9977:9986  indexLast */\n      dup1\n        /* \"ERC721.sol\":9969:9974  index */\n      dup3\n        /* \"ERC721.sol\":9969:9986  index < indexLast */\n      lt\n        /* \"ERC721.sol\":9966:10159  if(index < indexLast) {\r... */\n      iszero\n      tag_230\n      jumpi\n        /* \"ERC721.sol\":10003:10014  uint idLast */\n      0x00\n        /* \"ERC721.sol\":10017:10029  _ownedTokens */\n      0x07\n        /* \"ERC721.sol\":10017:10036  _ownedTokens[owner] */\n      0x00\n        /* \"ERC721.sol\":10030:10035  owner */\n      dup7\n        /* \"ERC721.sol\":10017:10036  _ownedTokens[owner] */\n      0xffffffffffffffffffffffffffffffffffffffff\n      and\n      0xffffffffffffffffffffffffffffffffffffffff\n      and\n      dup2\n      mstore\n      0x20\n      add\n      swap1\n      dup2\n      mstore\n      0x20\n      add\n      0x00\n      keccak256\n        /* \"ERC721.sol\":10017:10047  _ownedTokens[owner][indexLast] */\n      0x00\n        /* \"ERC721.sol\":10037:10046  indexLast */\n      dup4\n        /* \"ERC721.sol\":10017:10047  _ownedTokens[owner][indexLast] */\n      dup2\n      mstore\n      0x20\n      add\n      swap1\n      dup2\n      mstore\n      0x20\n      add\n      0x00\n      keccak256\n      sload\n        /* \"ERC721.sol\":10003:10047  uint idLast = _ownedTokens[owner][indexLast] */\n      swap1\n      pop\n        /* \"ERC721.sol\":10093:10099  idLast */\n      dup1\n        /* \"ERC721.sol\":10064:10076  _ownedTokens */\n      0x07\n        /* \"ERC721.sol\":10064:10083  _ownedTokens[owner] */\n      0x00\n        /* \"ERC721.sol\":10077:10082  owner */\n      dup8\n        /* \"ERC721.sol\":10064:10083  _ownedTokens[owner] */\n      0xffffffffffffffffffffffffffffffffffffffff\n      and\n      0xffffffffffffffffffffffffffffffffffffffff\n      and\n      dup2\n      mstore\n      0x20\n      add\n      swap1\n      dup2\n      mstore\n      0x20\n      add\n      0x00\n      keccak256\n        /* \"ERC721.sol\":10064:10090  _ownedTokens[owner][index] */\n      0x00\n        /* \"ERC721.sol\":10084:10089  index */\n      dup6\n        /* \"ERC721.sol\":10064:10090  _ownedTokens[owner][index] */\n      dup2\n      mstore\n      0x20\n      add\n      swap1\n      dup2\n      mstore\n      0x20\n      add\n      0x00\n      keccak256\n        /* \"ERC721.sol\":10064:10099  _ownedTokens[owner][index] = idLast */\n      dup2\n      swap1\n      sstore\n      pop\n        /* \"ERC721.sol\":10142:10147  index */\n      dup3\n        /* \"ERC721.sol\":10114:10131  _ownedTokensIndex */\n      0x08\n        /* \"ERC721.sol\":10114:10139  _ownedTokensIndex[idLast] */\n      0x00\n        /* \"ERC721.sol\":10132:10138  idLast */\n      dup4\n        /* \"ERC721.sol\":10114:10139  _ownedTokensIndex[idLast] */\n      dup2\n      mstore\n      0x20\n      add\n      swap1\n      dup2\n      mstore\n      0x20\n      add\n      0x00\n      keccak256\n        /* \"ERC721.sol\":10114:10147  _ownedTokensIndex[idLast] = index */\n      dup2\n      swap1\n      sstore\n      pop\n        /* \"ERC721.sol\":9988:10159  {\r... */\n      pop\n        /* \"ERC721.sol\":9966:10159  if(index < indexLast) {\r... */\n    tag_230:\n        /* \"ERC721.sol\":10178:10190  _ownedTokens */\n      0x07\n        /* \"ERC721.sol\":10178:10197  _ownedTokens[owner] */\n      0x00\n        /* \"ERC721.sol\":10191:10196  owner */\n      dup6\n        /* \"ERC721.sol\":10178:10197  _ownedTokens[owner] */\n      0xffffffffffffffffffffffffffffffffffffffff\n      and\n      0xffffffffffffffffffffffffffffffffffffffff\n      and\n      dup2\n      mstore\n      0x20\n      add\n      swap1\n      dup2\n      mstore\n      0x20\n      add\n      0x00\n      keccak256\n        /* \"ERC721.sol\":10178:10208  _ownedTokens[owner][indexLast] */\n      0x00\n        /* \"ERC721.sol\":10198:10207  indexLast */\n      dup3\n        /* \"ERC721.sol\":10178:10208  _ownedTokens[owner][indexLast] */\n      dup2\n      mstore\n      0x20\n      add\n      swap1\n      dup2\n      mstore\n      0x20\n      add\n      0x00\n      keccak256\n        /* \"ERC721.sol\":10171:10208  delete _ownedTokens[owner][indexLast] */\n      0x00\n      swap1\n      sstore\n        /* \"ERC721.sol\":10226:10243  _ownedTokensIndex */\n      0x08\n        /* \"ERC721.sol\":10226:10252  _ownedTokensIndex[tokenId] */\n      0x00\n        /* \"ERC721.sol\":10244:10251  tokenId */\n      dup5\n        /* \"ERC721.sol\":10226:10252  _ownedTokensIndex[tokenId] */\n      dup2\n      mstore\n      0x20\n      add\n      swap1\n      dup2\n      mstore\n      0x20\n      add\n      0x00\n      keccak256\n        /* \"ERC721.sol\":10219:10252  delete _ownedTokensIndex[tokenId] */\n      0x00\n      swap1\n      sstore\n        /* \"ERC721.sol\":9859:10260  {\r... */\n      pop\n      pop\n        /* \"ERC721.sol\":9780:10260  function _removeTokenFromOwnerEnumeration(address owner, uint tokenId) private {\r... */\n      pop\n      pop\n      jump\t// out\n        /* \"ERC721.sol\":9554:9772  function _addTokenToOwnerEnumeration(address owner, uint tokenId) private {\r... */\n    tag_170:\n        /* \"ERC721.sol\":9639:9649  uint index */\n      0x00\n        /* \"ERC721.sol\":9671:9672  1 */\n      0x01\n        /* \"ERC721.sol\":9652:9661  _balances */\n      0x00\n        /* \"ERC721.sol\":9652:9668  _balances[owner] */\n      dup1\n        /* \"ERC721.sol\":9662:9667  owner */\n      dup6\n        /* \"ERC721.sol\":9652:9668  _balances[owner] */\n      0xffffffffffffffffffffffffffffffffffffffff\n      and\n      0xffffffffffffffffffffffffffffffffffffffff\n      and\n      dup2\n      mstore\n      0x20\n      add\n      swap1\n      dup2\n      mstore\n      0x20\n      add\n      0x00\n      keccak256\n      sload\n        /* \"ERC721.sol\":9652:9672  _balances[owner] - 1 */\n      tag_232\n      swap2\n      swap1\n      tag_164\n      jump\t// in\n    tag_232:\n        /* \"ERC721.sol\":9639:9672  uint index = _balances[owner] - 1 */\n      swap1\n      pop\n        /* \"ERC721.sol\":9712:9719  tokenId */\n      dup2\n        /* \"ERC721.sol\":9683:9695  _ownedTokens */\n      0x07\n        /* \"ERC721.sol\":9683:9702  _ownedTokens[owner] */\n      0x00\n        /* \"ERC721.sol\":9696:9701  owner */\n      dup6\n        /* \"ERC721.sol\":9683:9702  _ownedTokens[owner] */\n      0xffffffffffffffffffffffffffffffffffffffff\n      and\n      0xffffffffffffffffffffffffffffffffffffffff\n      and\n      dup2\n      mstore\n      0x20\n      add\n      swap1\n      dup2\n      mstore\n      0x20\n      add\n      0x00\n      keccak256\n        /* \"ERC721.sol\":9683:9709  _ownedTokens[owner][index] */\n      0x00\n        /* \"ERC721.sol\":9703:9708  index */\n      dup4\n        /* \"ERC721.sol\":9683:9709  _ownedTokens[owner][index] */\n      dup2\n      mstore\n      0x20\n      add\n      swap1\n      dup2\n      mstore\n      0x20\n      add\n      0x00\n      keccak256\n        /* \"ERC721.sol\":9683:9719  _ownedTokens[owner][index] = tokenId */\n      dup2\n      swap1\n      sstore\n      pop\n        /* \"ERC721.sol\":9759:9764  index */\n      dup1\n        /* \"ERC721.sol\":9730:9747  _ownedTokensIndex */\n      0x08\n        /* \"ERC721.sol\":9730:9756  _ownedTokensIndex[tokenId] */\n      0x00\n        /* \"ERC721.sol\":9748:9755  tokenId */\n      dup5\n        /* \"ERC721.sol\":9730:9756  _ownedTokensIndex[tokenId] */\n      dup2\n      mstore\n      0x20\n      add\n      swap1\n      dup2\n      mstore\n      0x20\n      add\n      0x00\n      keccak256\n        /* \"ERC721.sol\":9730:9764  _ownedTokensIndex[tokenId] = index */\n      dup2\n      swap1\n      sstore\n      pop\n        /* \"ERC721.sol\":9628:9772  {\r... */\n      pop\n        /* \"ERC721.sol\":9554:9772  function _addTokenToOwnerEnumeration(address owner, uint tokenId) private {\r... */\n      pop\n      pop\n      jump\t// out\n        /* \"ERC721.sol\":6889:7476  function _checkOnERC721Received(address from, address to, uint tokenId, bytes memory data) private returns(bool) {\r... */\n    tag_203:\n        /* \"ERC721.sol\":6996:7000  bool */\n      0x00\n        /* \"ERC721.sol\":7035:7036  0 */\n      dup1\n        /* \"ERC721.sol\":7017:7019  to */\n      dup5\n        /* \"ERC721.sol\":7017:7031  to.code.length */\n      0xffffffffffffffffffffffffffffffffffffffff\n      and\n      extcodesize\n        /* \"ERC721.sol\":7017:7036  to.code.length <= 0 */\n      gt\n        /* \"ERC721.sol\":7013:7049  if (to.code.length <= 0) return true */\n      tag_234\n      jumpi\n        /* \"ERC721.sol\":7045:7049  true */\n      0x01\n        /* \"ERC721.sol\":7038:7049  return true */\n      swap1\n      pop\n      jump(tag_233)\n        /* \"ERC721.sol\":7013:7049  if (to.code.length <= 0) return true */\n    tag_234:\n        /* \"ERC721.sol\":7062:7091  IERC721TokenReceiver receiver */\n      0x00\n        /* \"ERC721.sol\":7115:7117  to */\n      dup5\n        /* \"ERC721.sol\":7062:7118  IERC721TokenReceiver receiver = IERC721TokenReceiver(to) */\n      swap1\n      pop\n        /* \"ERC721.sol\":7133:7141  receiver */\n      dup1\n        /* \"ERC721.sol\":7133:7158  receiver.onERC721Received */\n      0xffffffffffffffffffffffffffffffffffffffff\n      and\n      0x150b7a02\n        /* \"ERC721.sol\":7159:7169  msg.sender */\n      caller\n        /* \"ERC721.sol\":7171:7175  from */\n      dup9\n        /* \"ERC721.sol\":7177:7184  tokenId */\n      dup8\n        /* \"ERC721.sol\":7186:7190  data */\n      dup8\n        /* \"ERC721.sol\":7133:7191  receiver.onERC721Received(msg.sender, from, tokenId, data) */\n      mload(0x40)\n      dup6\n      0xffffffff\n      and\n      0xe0\n      shl\n      dup2\n      mstore\n      0x04\n      add\n      tag_235\n      swap5\n      swap4\n      swap3\n      swap2\n      swap1\n      tag_236\n      jump\t// in\n    tag_235:\n      0x20\n      mload(0x40)\n      dup1\n      dup4\n      sub\n      dup2\n      0x00\n      dup8\n      dup1\n      extcodesize\n      iszero\n      dup1\n      iszero\n      tag_237\n      jumpi\n      0x00\n      dup1\n      revert\n    tag_237:\n      pop\n      gas\n      call\n      swap3\n      pop\n      pop\n      pop\n      dup1\n      iszero\n      tag_238\n      jumpi\n      pop\n      mload(0x40)\n      returndatasize\n      not(0x1f)\n      0x1f\n      dup3\n      add\n      and\n      dup3\n      add\n      dup1\n      0x40\n      mstore\n      pop\n      dup2\n      add\n      swap1\n      tag_239\n      swap2\n      swap1\n      tag_240\n      jump\t// in\n    tag_239:\n      0x01\n    tag_238:\n        /* \"ERC721.sol\":7129:7469  try receiver.onERC721Received(msg.sender, from, tokenId, data) returns(bytes4 interfaceId) {\r... */\n      tag_241\n      jumpi\n      tag_245\n      tag_246\n      jump\t// in\n    tag_245:\n      dup1\n      0x08c379a0\n      eq\n      iszero\n      tag_244\n      jumpi\n      pop\n      tag_247\n      tag_248\n      jump\t// in\n    tag_247:\n      dup1\n      tag_249\n      jumpi\n      pop\n      jump(tag_243)\n    tag_249:\n        /* \"ERC721.sol\":7364:7370  reason */\n      dup1\n        /* \"ERC721.sol\":7357:7371  revert(reason) */\n      mload(0x40)\n      0x08c379a000000000000000000000000000000000000000000000000000000000\n      dup2\n      mstore\n      0x04\n      add\n      tag_250\n      swap2\n      swap1\n      tag_33\n      jump\t// in\n    tag_250:\n      mload(0x40)\n      dup1\n      swap2\n      sub\n      swap1\n      revert\n        /* \"ERC721.sol\":7129:7469  try receiver.onERC721Received(msg.sender, from, tokenId, data) returns(bytes4 interfaceId) {\r... */\n    tag_244:\n      pop\n    tag_243:\n        /* \"ERC721.sol\":7405:7457  revert(\"transfer to non ERC721Receiver implementer\") */\n      mload(0x40)\n      0x08c379a000000000000000000000000000000000000000000000000000000000\n      dup2\n      mstore\n      0x04\n      add\n      tag_251\n      swap1\n      tag_206\n      jump\t// in\n    tag_251:\n      mload(0x40)\n      dup1\n      swap2\n      sub\n      swap1\n      revert\n        /* \"ERC721.sol\":7129:7469  try receiver.onERC721Received(msg.sender, from, tokenId, data) returns(bytes4 interfaceId) {\r... */\n    tag_241:\n        /* \"ERC721.sol\":7257:7295  type(IERC721TokenReceiver).interfaceId */\n      0x150b7a0200000000000000000000000000000000000000000000000000000000\n        /* \"ERC721.sol\":7242:7295  interfaceId == type(IERC721TokenReceiver).interfaceId */\n      not(0xffffffffffffffffffffffffffffffffffffffffffffffffffffffff)\n      and\n        /* \"ERC721.sol\":7242:7253  interfaceId */\n      dup2\n        /* \"ERC721.sol\":7242:7295  interfaceId == type(IERC721TokenReceiver).interfaceId */\n      not(0xffffffffffffffffffffffffffffffffffffffffffffffffffffffff)\n      and\n      eq\n        /* \"ERC721.sol\":7235:7295  return interfaceId == type(IERC721TokenReceiver).interfaceId */\n      swap3\n      pop\n      pop\n      pop\n        /* \"ERC721.sol\":6889:7476  function _checkOnERC721Received(address from, address to, uint tokenId, bytes memory data) private returns(bool) {\r... */\n    tag_233:\n      swap5\n      swap4\n      pop\n      pop\n      pop\n      pop\n      jump\t// out\n        /* \"ERC721.sol\":8932:9091  function _addTokenToAllEnumeration(uint tokenId) private {\r... */\n    tag_227:\n        /* \"ERC721.sol\":9000:9010  _allTokens */\n      0x09\n        /* \"ERC721.sol\":9016:9023  tokenId */\n      dup2\n        /* \"ERC721.sol\":9000:9024  _allTokens.push(tokenId) */\n      swap1\n      dup1\n      0x01\n      dup2\n      sload\n      add\n      dup1\n      dup3\n      sstore\n      dup1\n      swap2\n      pop\n      pop\n      0x01\n      swap1\n      sub\n      swap1\n      0x00\n      mstore\n      keccak256(0x00, 0x20)\n      add\n      0x00\n      swap1\n      swap2\n      swap1\n      swap2\n      swap1\n      swap2\n      pop\n      sstore\n        /* \"ERC721.sol\":9082:9083  1 */\n      0x01\n        /* \"ERC721.sol\":9062:9072  _allTokens */\n      0x09\n        /* \"ERC721.sol\":9062:9079  _allTokens.length */\n      dup1\n      sload\n      swap1\n      pop\n        /* \"ERC721.sol\":9062:9083  _allTokens.length - 1 */\n      tag_255\n      swap2\n      swap1\n      tag_164\n      jump\t// in\n    tag_255:\n        /* \"ERC721.sol\":9035:9050  _allTokensIndex */\n      0x0a\n        /* \"ERC721.sol\":9035:9059  _allTokensIndex[tokenId] */\n      0x00\n        /* \"ERC721.sol\":9051:9058  tokenId */\n      dup4\n        /* \"ERC721.sol\":9035:9059  _allTokensIndex[tokenId] */\n      dup2\n      mstore\n      0x20\n      add\n      swap1\n      dup2\n      mstore\n      0x20\n      add\n      0x00\n      keccak256\n        /* \"ERC721.sol\":9035:9083  _allTokensIndex[tokenId] = _allTokens.length - 1 */\n      dup2\n      swap1\n      sstore\n      pop\n        /* \"ERC721.sol\":8932:9091  function _addTokenToAllEnumeration(uint tokenId) private {\r... */\n      pop\n      jump\t// out\n    tag_225:\n      dup3\n      dup1\n      sload\n      tag_256\n      swap1\n      tag_107\n      jump\t// in\n    tag_256:\n      swap1\n      0x00\n      mstore\n      keccak256(0x00, 0x20)\n      swap1\n      0x1f\n      add\n      0x20\n      swap1\n      div\n      dup2\n      add\n      swap3\n      dup3\n      tag_258\n      jumpi\n      0x00\n      dup6\n      sstore\n      jump(tag_257)\n    tag_258:\n      dup3\n      0x1f\n      lt\n      tag_259\n      jumpi\n      dup1\n      mload\n      not(0xff)\n      and\n      dup4\n      dup1\n      add\n      or\n      dup6\n      sstore\n      jump(tag_257)\n    tag_259:\n      dup3\n      dup1\n      add\n      0x01\n      add\n      dup6\n      sstore\n      dup3\n      iszero\n      tag_257\n      jumpi\n      swap2\n      dup3\n      add\n    tag_260:\n      dup3\n      dup2\n      gt\n      iszero\n      tag_261\n      jumpi\n      dup3\n      mload\n      dup3\n      sstore\n      swap2\n      0x20\n      add\n      swap2\n      swap1\n      0x01\n      add\n      swap1\n      jump(tag_260)\n    tag_261:\n    tag_257:\n      pop\n      swap1\n      pop\n      tag_262\n      swap2\n      swap1\n      tag_263\n      jump\t// in\n    tag_262:\n      pop\n      swap1\n      jump\t// out\n    tag_263:\n    tag_264:\n      dup1\n      dup3\n      gt\n      iszero\n      tag_265\n      jumpi\n      0x00\n      dup2\n      0x00\n      swap1\n      sstore\n      pop\n      0x01\n      add\n      jump(tag_264)\n    tag_265:\n      pop\n      swap1\n      jump\t// out\n        /* \"#utility.yul\":24:746   */\n    tag_267:\n        /* \"#utility.yul\":120:125   */\n      0x00\n        /* \"#utility.yul\":145:226   */\n      tag_269\n        /* \"#utility.yul\":161:225   */\n      tag_270\n        /* \"#utility.yul\":218:224   */\n      dup5\n        /* \"#utility.yul\":161:225   */\n      tag_271\n      jump\t// in\n    tag_270:\n        /* \"#utility.yul\":145:226   */\n      tag_272\n      jump\t// in\n    tag_269:\n        /* \"#utility.yul\":136:226   */\n      swap1\n      pop\n        /* \"#utility.yul\":246:251   */\n      dup1\n        /* \"#utility.yul\":275:281   */\n      dup4\n        /* \"#utility.yul\":268:273   */\n      dup3\n        /* \"#utility.yul\":261:282   */\n      mstore\n        /* \"#utility.yul\":309:313   */\n      0x20\n        /* \"#utility.yul\":302:307   */\n      dup3\n        /* \"#utility.yul\":298:314   */\n      add\n        /* \"#utility.yul\":291:314   */\n      swap1\n      pop\n        /* \"#utility.yul\":335:341   */\n      dup3\n        /* \"#utility.yul\":385:388   */\n      dup6\n        /* \"#utility.yul\":377:381   */\n      0x20\n        /* \"#utility.yul\":369:375   */\n      dup7\n        /* \"#utility.yul\":365:382   */\n      mul\n        /* \"#utility.yul\":360:363   */\n      dup3\n        /* \"#utility.yul\":356:383   */\n      add\n        /* \"#utility.yul\":353:389   */\n      gt\n        /* \"#utility.yul\":350:493   */\n      iszero\n      tag_273\n      jumpi\n        /* \"#utility.yul\":404:483   */\n      tag_274\n      tag_275\n      jump\t// in\n    tag_274:\n        /* \"#utility.yul\":350:493   */\n    tag_273:\n        /* \"#utility.yul\":517:518   */\n      0x00\n        /* \"#utility.yul\":502:740   */\n    tag_276:\n        /* \"#utility.yul\":527:533   */\n      dup6\n        /* \"#utility.yul\":524:525   */\n      dup2\n        /* \"#utility.yul\":521:534   */\n      lt\n        /* \"#utility.yul\":502:740   */\n      iszero\n      tag_278\n      jumpi\n        /* \"#utility.yul\":595:598   */\n      dup2\n        /* \"#utility.yul\":624:661   */\n      tag_279\n        /* \"#utility.yul\":657:660   */\n      dup9\n        /* \"#utility.yul\":645:655   */\n      dup3\n        /* \"#utility.yul\":624:661   */\n      tag_280\n      jump\t// in\n    tag_279:\n        /* \"#utility.yul\":619:622   */\n      dup5\n        /* \"#utility.yul\":612:662   */\n      mstore\n        /* \"#utility.yul\":691:695   */\n      0x20\n        /* \"#utility.yul\":686:689   */\n      dup5\n        /* \"#utility.yul\":682:696   */\n      add\n        /* \"#utility.yul\":675:696   */\n      swap4\n      pop\n        /* \"#utility.yul\":725:729   */\n      0x20\n        /* \"#utility.yul\":720:723   */\n      dup4\n        /* \"#utility.yul\":716:730   */\n      add\n        /* \"#utility.yul\":709:730   */\n      swap3\n      pop\n        /* \"#utility.yul\":562:740   */\n      pop\n        /* \"#utility.yul\":549:550   */\n      0x01\n        /* \"#utility.yul\":546:547   */\n      dup2\n        /* \"#utility.yul\":542:551   */\n      add\n        /* \"#utility.yul\":537:551   */\n      swap1\n      pop\n        /* \"#utility.yul\":502:740   */\n      jump(tag_276)\n    tag_278:\n        /* \"#utility.yul\":506:520   */\n      pop\n        /* \"#utility.yul\":126:746   */\n      pop\n      pop\n        /* \"#utility.yul\":24:746   */\n      swap4\n      swap3\n      pop\n      pop\n      pop\n      jump\t// out\n        /* \"#utility.yul\":752:1162   */\n    tag_281:\n        /* \"#utility.yul\":829:834   */\n      0x00\n        /* \"#utility.yul\":854:919   */\n      tag_283\n        /* \"#utility.yul\":870:918   */\n      tag_284\n        /* \"#utility.yul\":911:917   */\n      dup5\n        /* \"#utility.yul\":870:918   */\n      tag_285\n      jump\t// in\n    tag_284:\n        /* \"#utility.yul\":854:919   */\n      tag_272\n      jump\t// in\n    tag_283:\n        /* \"#utility.yul\":845:919   */\n      swap1\n      pop\n        /* \"#utility.yul\":942:948   */\n      dup3\n        /* \"#utility.yul\":935:940   */\n      dup2\n        /* \"#utility.yul\":928:949   */\n      mstore\n        /* \"#utility.yul\":980:984   */\n      0x20\n        /* \"#utility.yul\":973:978   */\n      dup2\n        /* \"#utility.yul\":969:985   */\n      add\n        /* \"#utility.yul\":1018:1021   */\n      dup5\n        /* \"#utility.yul\":1009:1015   */\n      dup5\n        /* \"#utility.yul\":1004:1007   */\n      dup5\n        /* \"#utility.yul\":1000:1016   */\n      add\n        /* \"#utility.yul\":997:1022   */\n      gt\n        /* \"#utility.yul\":994:1106   */\n      iszero\n      tag_286\n      jumpi\n        /* \"#utility.yul\":1025:1104   */\n      tag_287\n      tag_288\n      jump\t// in\n    tag_287:\n        /* \"#utility.yul\":994:1106   */\n    tag_286:\n        /* \"#utility.yul\":1115:1156   */\n      tag_289\n        /* \"#utility.yul\":1149:1155   */\n      dup5\n        /* \"#utility.yul\":1144:1147   */\n      dup3\n        /* \"#utility.yul\":1139:1142   */\n      dup6\n        /* \"#utility.yul\":1115:1156   */\n      tag_290\n      jump\t// in\n    tag_289:\n        /* \"#utility.yul\":835:1162   */\n      pop\n        /* \"#utility.yul\":752:1162   */\n      swap4\n      swap3\n      pop\n      pop\n      pop\n      jump\t// out\n        /* \"#utility.yul\":1168:1580   */\n    tag_291:\n        /* \"#utility.yul\":1246:1251   */\n      0x00\n        /* \"#utility.yul\":1271:1337   */\n      tag_293\n        /* \"#utility.yul\":1287:1336   */\n      tag_294\n        /* \"#utility.yul\":1329:1335   */\n      dup5\n        /* \"#utility.yul\":1287:1336   */\n      tag_295\n      jump\t// in\n    tag_294:\n        /* \"#utility.yul\":1271:1337   */\n      tag_272\n      jump\t// in\n    tag_293:\n        /* \"#utility.yul\":1262:1337   */\n      swap1\n      pop\n        /* \"#utility.yul\":1360:1366   */\n      dup3\n        /* \"#utility.yul\":1353:1358   */\n      dup2\n        /* \"#utility.yul\":1346:1367   */\n      mstore\n        /* \"#utility.yul\":1398:1402   */\n      0x20\n        /* \"#utility.yul\":1391:1396   */\n      dup2\n        /* \"#utility.yul\":1387:1403   */\n      add\n        /* \"#utility.yul\":1436:1439   */\n      dup5\n        /* \"#utility.yul\":1427:1433   */\n      dup5\n        /* \"#utility.yul\":1422:1425   */\n      dup5\n        /* \"#utility.yul\":1418:1434   */\n      add\n        /* \"#utility.yul\":1415:1440   */\n      gt\n        /* \"#utility.yul\":1412:1524   */\n      iszero\n      tag_296\n      jumpi\n        /* \"#utility.yul\":1443:1522   */\n      tag_297\n      tag_288\n      jump\t// in\n    tag_297:\n        /* \"#utility.yul\":1412:1524   */\n    tag_296:\n        /* \"#utility.yul\":1533:1574   */\n      tag_298\n        /* \"#utility.yul\":1567:1573   */\n      dup5\n        /* \"#utility.yul\":1562:1565   */\n      dup3\n        /* \"#utility.yul\":1557:1560   */\n      dup6\n        /* \"#utility.yul\":1533:1574   */\n      tag_290\n      jump\t// in\n    tag_298:\n        /* \"#utility.yul\":1252:1580   */\n      pop\n        /* \"#utility.yul\":1168:1580   */\n      swap4\n      swap3\n      pop\n      pop\n      pop\n      jump\t// out\n        /* \"#utility.yul\":1586:1725   */\n    tag_299:\n        /* \"#utility.yul\":1632:1637   */\n      0x00\n        /* \"#utility.yul\":1670:1676   */\n      dup2\n        /* \"#utility.yul\":1657:1677   */\n      calldataload\n        /* \"#utility.yul\":1648:1677   */\n      swap1\n      pop\n        /* \"#utility.yul\":1686:1719   */\n      tag_301\n        /* \"#utility.yul\":1713:1718   */\n      dup2\n        /* \"#utility.yul\":1686:1719   */\n      tag_302\n      jump\t// in\n    tag_301:\n        /* \"#utility.yul\":1586:1725   */\n      swap3\n      swap2\n      pop\n      pop\n      jump\t// out\n        /* \"#utility.yul\":1748:2118   */\n    tag_303:\n        /* \"#utility.yul\":1819:1824   */\n      0x00\n        /* \"#utility.yul\":1868:1871   */\n      dup3\n        /* \"#utility.yul\":1861:1865   */\n      0x1f\n        /* \"#utility.yul\":1853:1859   */\n      dup4\n        /* \"#utility.yul\":1849:1866   */\n      add\n        /* \"#utility.yul\":1845:1872   */\n      slt\n        /* \"#utility.yul\":1835:1957   */\n      tag_305\n      jumpi\n        /* \"#utility.yul\":1876:1955   */\n      tag_306\n      tag_307\n      jump\t// in\n    tag_306:\n        /* \"#utility.yul\":1835:1957   */\n    tag_305:\n        /* \"#utility.yul\":1993:1999   */\n      dup2\n        /* \"#utility.yul\":1980:2000   */\n      calldataload\n        /* \"#utility.yul\":2018:2112   */\n      tag_308\n        /* \"#utility.yul\":2108:2111   */\n      dup5\n        /* \"#utility.yul\":2100:2106   */\n      dup3\n        /* \"#utility.yul\":2093:2097   */\n      0x20\n        /* \"#utility.yul\":2085:2091   */\n      dup7\n        /* \"#utility.yul\":2081:2098   */\n      add\n        /* \"#utility.yul\":2018:2112   */\n      tag_267\n      jump\t// in\n    tag_308:\n        /* \"#utility.yul\":2009:2112   */\n      swap2\n      pop\n        /* \"#utility.yul\":1825:2118   */\n      pop\n        /* \"#utility.yul\":1748:2118   */\n      swap3\n      swap2\n      pop\n      pop\n      jump\t// out\n        /* \"#utility.yul\":2124:2257   */\n    tag_309:\n        /* \"#utility.yul\":2167:2172   */\n      0x00\n        /* \"#utility.yul\":2205:2211   */\n      dup2\n        /* \"#utility.yul\":2192:2212   */\n      calldataload\n        /* \"#utility.yul\":2183:2212   */\n      swap1\n      pop\n        /* \"#utility.yul\":2221:2251   */\n      tag_311\n        /* \"#utility.yul\":2245:2250   */\n      dup2\n        /* \"#utility.yul\":2221:2251   */\n      tag_312\n      jump\t// in\n    tag_311:\n        /* \"#utility.yul\":2124:2257   */\n      swap3\n      swap2\n      pop\n      pop\n      jump\t// out\n        /* \"#utility.yul\":2263:2400   */\n    tag_313:\n        /* \"#utility.yul\":2308:2313   */\n      0x00\n        /* \"#utility.yul\":2346:2352   */\n      dup2\n        /* \"#utility.yul\":2333:2353   */\n      calldataload\n        /* \"#utility.yul\":2324:2353   */\n      swap1\n      pop\n        /* \"#utility.yul\":2362:2394   */\n      tag_315\n        /* \"#utility.yul\":2388:2393   */\n      dup2\n        /* \"#utility.yul\":2362:2394   */\n      tag_316\n      jump\t// in\n    tag_315:\n        /* \"#utility.yul\":2263:2400   */\n      swap3\n      swap2\n      pop\n      pop\n      jump\t// out\n        /* \"#utility.yul\":2406:2547   */\n    tag_317:\n        /* \"#utility.yul\":2462:2467   */\n      0x00\n        /* \"#utility.yul\":2493:2499   */\n      dup2\n        /* \"#utility.yul\":2487:2500   */\n      mload\n        /* \"#utility.yul\":2478:2500   */\n      swap1\n      pop\n        /* \"#utility.yul\":2509:2541   */\n      tag_319\n        /* \"#utility.yul\":2535:2540   */\n      dup2\n        /* \"#utility.yul\":2509:2541   */\n      tag_316\n      jump\t// in\n    tag_319:\n        /* \"#utility.yul\":2406:2547   */\n      swap3\n      swap2\n      pop\n      pop\n      jump\t// out\n        /* \"#utility.yul\":2566:2904   */\n    tag_320:\n        /* \"#utility.yul\":2621:2626   */\n      0x00\n        /* \"#utility.yul\":2670:2673   */\n      dup3\n        /* \"#utility.yul\":2663:2667   */\n      0x1f\n        /* \"#utility.yul\":2655:2661   */\n      dup4\n        /* \"#utility.yul\":2651:2668   */\n      add\n        /* \"#utility.yul\":2647:2674   */\n      slt\n        /* \"#utility.yul\":2637:2759   */\n      tag_322\n      jumpi\n        /* \"#utility.yul\":2678:2757   */\n      tag_323\n      tag_307\n      jump\t// in\n    tag_323:\n        /* \"#utility.yul\":2637:2759   */\n    tag_322:\n        /* \"#utility.yul\":2795:2801   */\n      dup2\n        /* \"#utility.yul\":2782:2802   */\n      calldataload\n        /* \"#utility.yul\":2820:2898   */\n      tag_324\n        /* \"#utility.yul\":2894:2897   */\n      dup5\n        /* \"#utility.yul\":2886:2892   */\n      dup3\n        /* \"#utility.yul\":2879:2883   */\n      0x20\n        /* \"#utility.yul\":2871:2877   */\n      dup7\n        /* \"#utility.yul\":2867:2884   */\n      add\n        /* \"#utility.yul\":2820:2898   */\n      tag_281\n      jump\t// in\n    tag_324:\n        /* \"#utility.yul\":2811:2898   */\n      swap2\n      pop\n        /* \"#utility.yul\":2627:2904   */\n      pop\n        /* \"#utility.yul\":2566:2904   */\n      swap3\n      swap2\n      pop\n      pop\n      jump\t// out\n        /* \"#utility.yul\":2924:3264   */\n    tag_325:\n        /* \"#utility.yul\":2980:2985   */\n      0x00\n        /* \"#utility.yul\":3029:3032   */\n      dup3\n        /* \"#utility.yul\":3022:3026   */\n      0x1f\n        /* \"#utility.yul\":3014:3020   */\n      dup4\n        /* \"#utility.yul\":3010:3027   */\n      add\n        /* \"#utility.yul\":3006:3033   */\n      slt\n        /* \"#utility.yul\":2996:3118   */\n      tag_327\n      jumpi\n        /* \"#utility.yul\":3037:3116   */\n      tag_328\n      tag_307\n      jump\t// in\n    tag_328:\n        /* \"#utility.yul\":2996:3118   */\n    tag_327:\n        /* \"#utility.yul\":3154:3160   */\n      dup2\n        /* \"#utility.yul\":3141:3161   */\n      calldataload\n        /* \"#utility.yul\":3179:3258   */\n      tag_329\n        /* \"#utility.yul\":3254:3257   */\n      dup5\n        /* \"#utility.yul\":3246:3252   */\n      dup3\n        /* \"#utility.yul\":3239:3243   */\n      0x20\n        /* \"#utility.yul\":3231:3237   */\n      dup7\n        /* \"#utility.yul\":3227:3244   */\n      add\n        /* \"#utility.yul\":3179:3258   */\n      tag_291\n      jump\t// in\n    tag_329:\n        /* \"#utility.yul\":3170:3258   */\n      swap2\n      pop\n        /* \"#utility.yul\":2986:3264   */\n      pop\n        /* \"#utility.yul\":2924:3264   */\n      swap3\n      swap2\n      pop\n      pop\n      jump\t// out\n        /* \"#utility.yul\":3270:3409   */\n    tag_280:\n        /* \"#utility.yul\":3316:3321   */\n      0x00\n        /* \"#utility.yul\":3354:3360   */\n      dup2\n        /* \"#utility.yul\":3341:3361   */\n      calldataload\n        /* \"#utility.yul\":3332:3361   */\n      swap1\n      pop\n        /* \"#utility.yul\":3370:3403   */\n      tag_331\n        /* \"#utility.yul\":3397:3402   */\n      dup2\n        /* \"#utility.yul\":3370:3403   */\n      tag_332\n      jump\t// in\n    tag_331:\n        /* \"#utility.yul\":3270:3409   */\n      swap3\n      swap2\n      pop\n      pop\n      jump\t// out\n        /* \"#utility.yul\":3415:3744   */\n    tag_77:\n        /* \"#utility.yul\":3474:3480   */\n      0x00\n        /* \"#utility.yul\":3523:3525   */\n      0x20\n        /* \"#utility.yul\":3511:3520   */\n      dup3\n        /* \"#utility.yul\":3502:3509   */\n      dup5\n        /* \"#utility.yul\":3498:3521   */\n      sub\n        /* \"#utility.yul\":3494:3526   */\n      slt\n        /* \"#utility.yul\":3491:3610   */\n      iszero\n      tag_334\n      jumpi\n        /* \"#utility.yul\":3529:3608   */\n      tag_335\n      tag_336\n      jump\t// in\n    tag_335:\n        /* \"#utility.yul\":3491:3610   */\n    tag_334:\n        /* \"#utility.yul\":3649:3650   */\n      0x00\n        /* \"#utility.yul\":3674:3727   */\n      tag_337\n        /* \"#utility.yul\":3719:3726   */\n      dup5\n        /* \"#utility.yul\":3710:3716   */\n      dup3\n        /* \"#utility.yul\":3699:3708   */\n      dup6\n        /* \"#utility.yul\":3695:3717   */\n      add\n        /* \"#utility.yul\":3674:3727   */\n      tag_299\n      jump\t// in\n    tag_337:\n        /* \"#utility.yul\":3664:3727   */\n      swap2\n      pop\n        /* \"#utility.yul\":3620:3737   */\n      pop\n        /* \"#utility.yul\":3415:3744   */\n      swap3\n      swap2\n      pop\n      pop\n      jump\t// out\n        /* \"#utility.yul\":3750:4224   */\n    tag_97:\n        /* \"#utility.yul\":3818:3824   */\n      0x00\n        /* \"#utility.yul\":3826:3832   */\n      dup1\n        /* \"#utility.yul\":3875:3877   */\n      0x40\n        /* \"#utility.yul\":3863:3872   */\n      dup4\n        /* \"#utility.yul\":3854:3861   */\n      dup6\n        /* \"#utility.yul\":3850:3873   */\n      sub\n        /* \"#utility.yul\":3846:3878   */\n      slt\n        /* \"#utility.yul\":3843:3962   */\n      iszero\n      tag_339\n      jumpi\n        /* \"#utility.yul\":3881:3960   */\n      tag_340\n      tag_336\n      jump\t// in\n    tag_340:\n        /* \"#utility.yul\":3843:3962   */\n    tag_339:\n        /* \"#utility.yul\":4001:4002   */\n      0x00\n        /* \"#utility.yul\":4026:4079   */\n      tag_341\n        /* \"#utility.yul\":4071:4078   */\n      dup6\n        /* \"#utility.yul\":4062:4068   */\n      dup3\n        /* \"#utility.yul\":4051:4060   */\n      dup7\n        /* \"#utility.yul\":4047:4069   */\n      add\n        /* \"#utility.yul\":4026:4079   */\n      tag_299\n      jump\t// in\n    tag_341:\n        /* \"#utility.yul\":4016:4079   */\n      swap3\n      pop\n        /* \"#utility.yul\":3972:4089   */\n      pop\n        /* \"#utility.yul\":4128:4130   */\n      0x20\n        /* \"#utility.yul\":4154:4207   */\n      tag_342\n        /* \"#utility.yul\":4199:4206   */\n      dup6\n        /* \"#utility.yul\":4190:4196   */\n      dup3\n        /* \"#utility.yul\":4179:4188   */\n      dup7\n        /* \"#utility.yul\":4175:4197   */\n      add\n        /* \"#utility.yul\":4154:4207   */\n      tag_299\n      jump\t// in\n    tag_342:\n        /* \"#utility.yul\":4144:4207   */\n      swap2\n      pop\n        /* \"#utility.yul\":4099:4217   */\n      pop\n        /* \"#utility.yul\":3750:4224   */\n      swap3\n      pop\n      swap3\n      swap1\n      pop\n      jump\t// out\n        /* \"#utility.yul\":4230:4849   */\n    tag_58:\n        /* \"#utility.yul\":4307:4313   */\n      0x00\n        /* \"#utility.yul\":4315:4321   */\n      dup1\n        /* \"#utility.yul\":4323:4329   */\n      0x00\n        /* \"#utility.yul\":4372:4374   */\n      0x60\n        /* \"#utility.yul\":4360:4369   */\n      dup5\n        /* \"#utility.yul\":4351:4358   */\n      dup7\n        /* \"#utility.yul\":4347:4370   */\n      sub\n        /* \"#utility.yul\":4343:4375   */\n      slt\n        /* \"#utility.yul\":4340:4459   */\n      iszero\n      tag_344\n      jumpi\n        /* \"#utility.yul\":4378:4457   */\n      tag_345\n      tag_336\n      jump\t// in\n    tag_345:\n        /* \"#utility.yul\":4340:4459   */\n    tag_344:\n        /* \"#utility.yul\":4498:4499   */\n      0x00\n        /* \"#utility.yul\":4523:4576   */\n      tag_346\n        /* \"#utility.yul\":4568:4575   */\n      dup7\n        /* \"#utility.yul\":4559:4565   */\n      dup3\n        /* \"#utility.yul\":4548:4557   */\n      dup8\n        /* \"#utility.yul\":4544:4566   */\n      add\n        /* \"#utility.yul\":4523:4576   */\n      tag_299\n      jump\t// in\n    tag_346:\n        /* \"#utility.yul\":4513:4576   */\n      swap4\n      pop\n        /* \"#utility.yul\":4469:4586   */\n      pop\n        /* \"#utility.yul\":4625:4627   */\n      0x20\n        /* \"#utility.yul\":4651:4704   */\n      tag_347\n        /* \"#utility.yul\":4696:4703   */\n      dup7\n        /* \"#utility.yul\":4687:4693   */\n      dup3\n        /* \"#utility.yul\":4676:4685   */\n      dup8\n        /* \"#utility.yul\":4672:4694   */\n      add\n        /* \"#utility.yul\":4651:4704   */\n      tag_299\n      jump\t// in\n    tag_347:\n        /* \"#utility.yul\":4641:4704   */\n      swap3\n      pop\n        /* \"#utility.yul\":4596:4714   */\n      pop\n        /* \"#utility.yul\":4753:4755   */\n      0x40\n        /* \"#utility.yul\":4779:4832   */\n      tag_348\n        /* \"#utility.yul\":4824:4831   */\n      dup7\n        /* \"#utility.yul\":4815:4821   */\n      dup3\n        /* \"#utility.yul\":4804:4813   */\n      dup8\n        /* \"#utility.yul\":4800:4822   */\n      add\n        /* \"#utility.yul\":4779:4832   */\n      tag_280\n      jump\t// in\n    tag_348:\n        /* \"#utility.yul\":4769:4832   */\n      swap2\n      pop\n        /* \"#utility.yul\":4724:4842   */\n      pop\n        /* \"#utility.yul\":4230:4849   */\n      swap3\n      pop\n      swap3\n      pop\n      swap3\n      jump\t// out\n        /* \"#utility.yul\":4855:5798   */\n    tag_89:\n        /* \"#utility.yul\":4950:4956   */\n      0x00\n        /* \"#utility.yul\":4958:4964   */\n      dup1\n        /* \"#utility.yul\":4966:4972   */\n      0x00\n        /* \"#utility.yul\":4974:4980   */\n      dup1\n        /* \"#utility.yul\":5023:5026   */\n      0x80\n        /* \"#utility.yul\":5011:5020   */\n      dup6\n        /* \"#utility.yul\":5002:5009   */\n      dup8\n        /* \"#utility.yul\":4998:5021   */\n      sub\n        /* \"#utility.yul\":4994:5027   */\n      slt\n        /* \"#utility.yul\":4991:5111   */\n      iszero\n      tag_350\n      jumpi\n        /* \"#utility.yul\":5030:5109   */\n      tag_351\n      tag_336\n      jump\t// in\n    tag_351:\n        /* \"#utility.yul\":4991:5111   */\n    tag_350:\n        /* \"#utility.yul\":5150:5151   */\n      0x00\n        /* \"#utility.yul\":5175:5228   */\n      tag_352\n        /* \"#utility.yul\":5220:5227   */\n      dup8\n        /* \"#utility.yul\":5211:5217   */\n      dup3\n        /* \"#utility.yul\":5200:5209   */\n      dup9\n        /* \"#utility.yul\":5196:5218   */\n      add\n        /* \"#utility.yul\":5175:5228   */\n      tag_299\n      jump\t// in\n    tag_352:\n        /* \"#utility.yul\":5165:5228   */\n      swap5\n      pop\n        /* \"#utility.yul\":5121:5238   */\n      pop\n        /* \"#utility.yul\":5277:5279   */\n      0x20\n        /* \"#utility.yul\":5303:5356   */\n      tag_353\n        /* \"#utility.yul\":5348:5355   */\n      dup8\n        /* \"#utility.yul\":5339:5345   */\n      dup3\n        /* \"#utility.yul\":5328:5337   */\n      dup9\n        /* \"#utility.yul\":5324:5346   */\n      add\n        /* \"#utility.yul\":5303:5356   */\n      tag_299\n      jump\t// in\n    tag_353:\n        /* \"#utility.yul\":5293:5356   */\n      swap4\n      pop\n        /* \"#utility.yul\":5248:5366   */\n      pop\n        /* \"#utility.yul\":5405:5407   */\n      0x40\n        /* \"#utility.yul\":5431:5484   */\n      tag_354\n        /* \"#utility.yul\":5476:5483   */\n      dup8\n        /* \"#utility.yul\":5467:5473   */\n      dup3\n        /* \"#utility.yul\":5456:5465   */\n      dup9\n        /* \"#utility.yul\":5452:5474   */\n      add\n        /* \"#utility.yul\":5431:5484   */\n      tag_280\n      jump\t// in\n    tag_354:\n        /* \"#utility.yul\":5421:5484   */\n      swap3\n      pop\n        /* \"#utility.yul\":5376:5494   */\n      pop\n        /* \"#utility.yul\":5561:5563   */\n      0x60\n        /* \"#utility.yul\":5550:5559   */\n      dup6\n        /* \"#utility.yul\":5546:5564   */\n      add\n        /* \"#utility.yul\":5533:5565   */\n      calldataload\n        /* \"#utility.yul\":5592:5610   */\n      0xffffffffffffffff\n        /* \"#utility.yul\":5584:5590   */\n      dup2\n        /* \"#utility.yul\":5581:5611   */\n      gt\n        /* \"#utility.yul\":5578:5695   */\n      iszero\n      tag_355\n      jumpi\n        /* \"#utility.yul\":5614:5693   */\n      tag_356\n      tag_357\n      jump\t// in\n    tag_356:\n        /* \"#utility.yul\":5578:5695   */\n    tag_355:\n        /* \"#utility.yul\":5719:5781   */\n      tag_358\n        /* \"#utility.yul\":5773:5780   */\n      dup8\n        /* \"#utility.yul\":5764:5770   */\n      dup3\n        /* \"#utility.yul\":5753:5762   */\n      dup9\n        /* \"#utility.yul\":5749:5771   */\n      add\n        /* \"#utility.yul\":5719:5781   */\n      tag_320\n      jump\t// in\n    tag_358:\n        /* \"#utility.yul\":5709:5781   */\n      swap2\n      pop\n        /* \"#utility.yul\":5504:5791   */\n      pop\n        /* \"#utility.yul\":4855:5798   */\n      swap3\n      swap6\n      swap2\n      swap5\n      pop\n      swap3\n      pop\n      jump\t// out\n        /* \"#utility.yul\":5804:6272   */\n    tag_85:\n        /* \"#utility.yul\":5869:5875   */\n      0x00\n        /* \"#utility.yul\":5877:5883   */\n      dup1\n        /* \"#utility.yul\":5926:5928   */\n      0x40\n        /* \"#utility.yul\":5914:5923   */\n      dup4\n        /* \"#utility.yul\":5905:5912   */\n      dup6\n        /* \"#utility.yul\":5901:5924   */\n      sub\n        /* \"#utility.yul\":5897:5929   */\n      slt\n        /* \"#utility.yul\":5894:6013   */\n      iszero\n      tag_360\n      jumpi\n        /* \"#utility.yul\":5932:6011   */\n      tag_361\n      tag_336\n      jump\t// in\n    tag_361:\n        /* \"#utility.yul\":5894:6013   */\n    tag_360:\n        /* \"#utility.yul\":6052:6053   */\n      0x00\n        /* \"#utility.yul\":6077:6130   */\n      tag_362\n        /* \"#utility.yul\":6122:6129   */\n      dup6\n        /* \"#utility.yul\":6113:6119   */\n      dup3\n        /* \"#utility.yul\":6102:6111   */\n      dup7\n        /* \"#utility.yul\":6098:6120   */\n      add\n        /* \"#utility.yul\":6077:6130   */\n      tag_299\n      jump\t// in\n    tag_362:\n        /* \"#utility.yul\":6067:6130   */\n      swap3\n      pop\n        /* \"#utility.yul\":6023:6140   */\n      pop\n        /* \"#utility.yul\":6179:6181   */\n      0x20\n        /* \"#utility.yul\":6205:6255   */\n      tag_363\n        /* \"#utility.yul\":6247:6254   */\n      dup6\n        /* \"#utility.yul\":6238:6244   */\n      dup3\n        /* \"#utility.yul\":6227:6236   */\n      dup7\n        /* \"#utility.yul\":6223:6245   */\n      add\n        /* \"#utility.yul\":6205:6255   */\n      tag_309\n      jump\t// in\n    tag_363:\n        /* \"#utility.yul\":6195:6255   */\n      swap2\n      pop\n        /* \"#utility.yul\":6150:6265   */\n      pop\n        /* \"#utility.yul\":5804:6272   */\n      swap3\n      pop\n      swap3\n      swap1\n      pop\n      jump\t// out\n        /* \"#utility.yul\":6278:6752   */\n    tag_42:\n        /* \"#utility.yul\":6346:6352   */\n      0x00\n        /* \"#utility.yul\":6354:6360   */\n      dup1\n        /* \"#utility.yul\":6403:6405   */\n      0x40\n        /* \"#utility.yul\":6391:6400   */\n      dup4\n        /* \"#utility.yul\":6382:6389   */\n      dup6\n        /* \"#utility.yul\":6378:6401   */\n      sub\n        /* \"#utility.yul\":6374:6406   */\n      slt\n        /* \"#utility.yul\":6371:6490   */\n      iszero\n      tag_365\n      jumpi\n        /* \"#utility.yul\":6409:6488   */\n      tag_366\n      tag_336\n      jump\t// in\n    tag_366:\n        /* \"#utility.yul\":6371:6490   */\n    tag_365:\n        /* \"#utility.yul\":6529:6530   */\n      0x00\n        /* \"#utility.yul\":6554:6607   */\n      tag_367\n        /* \"#utility.yul\":6599:6606   */\n      dup6\n        /* \"#utility.yul\":6590:6596   */\n      dup3\n        /* \"#utility.yul\":6579:6588   */\n      dup7\n        /* \"#utility.yul\":6575:6597   */\n      add\n        /* \"#utility.yul\":6554:6607   */\n      tag_299\n      jump\t// in\n    tag_367:\n        /* \"#utility.yul\":6544:6607   */\n      swap3\n      pop\n        /* \"#utility.yul\":6500:6617   */\n      pop\n        /* \"#utility.yul\":6656:6658   */\n      0x20\n        /* \"#utility.yul\":6682:6735   */\n      tag_368\n        /* \"#utility.yul\":6727:6734   */\n      dup6\n        /* \"#utility.yul\":6718:6724   */\n      dup3\n        /* \"#utility.yul\":6707:6716   */\n      dup7\n        /* \"#utility.yul\":6703:6725   */\n      add\n        /* \"#utility.yul\":6682:6735   */\n      tag_280\n      jump\t// in\n    tag_368:\n        /* \"#utility.yul\":6672:6735   */\n      swap2\n      pop\n        /* \"#utility.yul\":6627:6745   */\n      pop\n        /* \"#utility.yul\":6278:6752   */\n      swap3\n      pop\n      swap3\n      swap1\n      pop\n      jump\t// out\n        /* \"#utility.yul\":6758:7622   */\n    tag_46:\n        /* \"#utility.yul\":6861:6867   */\n      0x00\n        /* \"#utility.yul\":6869:6875   */\n      dup1\n        /* \"#utility.yul\":6918:6920   */\n      0x40\n        /* \"#utility.yul\":6906:6915   */\n      dup4\n        /* \"#utility.yul\":6897:6904   */\n      dup6\n        /* \"#utility.yul\":6893:6916   */\n      sub\n        /* \"#utility.yul\":6889:6921   */\n      slt\n        /* \"#utility.yul\":6886:7005   */\n      iszero\n      tag_370\n      jumpi\n        /* \"#utility.yul\":6924:7003   */\n      tag_371\n      tag_336\n      jump\t// in\n    tag_371:\n        /* \"#utility.yul\":6886:7005   */\n    tag_370:\n        /* \"#utility.yul\":7072:7073   */\n      0x00\n        /* \"#utility.yul\":7061:7070   */\n      dup4\n        /* \"#utility.yul\":7057:7074   */\n      add\n        /* \"#utility.yul\":7044:7075   */\n      calldataload\n        /* \"#utility.yul\":7102:7120   */\n      0xffffffffffffffff\n        /* \"#utility.yul\":7094:7100   */\n      dup2\n        /* \"#utility.yul\":7091:7121   */\n      gt\n        /* \"#utility.yul\":7088:7205   */\n      iszero\n      tag_372\n      jumpi\n        /* \"#utility.yul\":7124:7203   */\n      tag_373\n      tag_357\n      jump\t// in\n    tag_373:\n        /* \"#utility.yul\":7088:7205   */\n    tag_372:\n        /* \"#utility.yul\":7229:7307   */\n      tag_374\n        /* \"#utility.yul\":7299:7306   */\n      dup6\n        /* \"#utility.yul\":7290:7296   */\n      dup3\n        /* \"#utility.yul\":7279:7288   */\n      dup7\n        /* \"#utility.yul\":7275:7297   */\n      add\n        /* \"#utility.yul\":7229:7307   */\n      tag_303\n      jump\t// in\n    tag_374:\n        /* \"#utility.yul\":7219:7307   */\n      swap3\n      pop\n        /* \"#utility.yul\":7015:7317   */\n      pop\n        /* \"#utility.yul\":7384:7386   */\n      0x20\n        /* \"#utility.yul\":7373:7382   */\n      dup4\n        /* \"#utility.yul\":7369:7387   */\n      add\n        /* \"#utility.yul\":7356:7388   */\n      calldataload\n        /* \"#utility.yul\":7415:7433   */\n      0xffffffffffffffff\n        /* \"#utility.yul\":7407:7413   */\n      dup2\n        /* \"#utility.yul\":7404:7434   */\n      gt\n        /* \"#utility.yul\":7401:7518   */\n      iszero\n      tag_375\n      jumpi\n        /* \"#utility.yul\":7437:7516   */\n      tag_376\n      tag_357\n      jump\t// in\n    tag_376:\n        /* \"#utility.yul\":7401:7518   */\n    tag_375:\n        /* \"#utility.yul\":7542:7605   */\n      tag_377\n        /* \"#utility.yul\":7597:7604   */\n      dup6\n        /* \"#utility.yul\":7588:7594   */\n      dup3\n        /* \"#utility.yul\":7577:7586   */\n      dup7\n        /* \"#utility.yul\":7573:7595   */\n      add\n        /* \"#utility.yul\":7542:7605   */\n      tag_325\n      jump\t// in\n    tag_377:\n        /* \"#utility.yul\":7532:7605   */\n      swap2\n      pop\n        /* \"#utility.yul\":7327:7615   */\n      pop\n        /* \"#utility.yul\":6758:7622   */\n      swap3\n      pop\n      swap3\n      swap1\n      pop\n      jump\t// out\n        /* \"#utility.yul\":7628:7955   */\n    tag_26:\n        /* \"#utility.yul\":7686:7692   */\n      0x00\n        /* \"#utility.yul\":7735:7737   */\n      0x20\n        /* \"#utility.yul\":7723:7732   */\n      dup3\n        /* \"#utility.yul\":7714:7721   */\n      dup5\n        /* \"#utility.yul\":7710:7733   */\n      sub\n        /* \"#utility.yul\":7706:7738   */\n      slt\n        /* \"#utility.yul\":7703:7822   */\n      iszero\n      tag_379\n      jumpi\n        /* \"#utility.yul\":7741:7820   */\n      tag_380\n      tag_336\n      jump\t// in\n    tag_380:\n        /* \"#utility.yul\":7703:7822   */\n    tag_379:\n        /* \"#utility.yul\":7861:7862   */\n      0x00\n        /* \"#utility.yul\":7886:7938   */\n      tag_381\n        /* \"#utility.yul\":7930:7937   */\n      dup5\n        /* \"#utility.yul\":7921:7927   */\n      dup3\n        /* \"#utility.yul\":7910:7919   */\n      dup6\n        /* \"#utility.yul\":7906:7928   */\n      add\n        /* \"#utility.yul\":7886:7938   */\n      tag_313\n      jump\t// in\n    tag_381:\n        /* \"#utility.yul\":7876:7938   */\n      swap2\n      pop\n        /* \"#utility.yul\":7832:7948   */\n      pop\n        /* \"#utility.yul\":7628:7955   */\n      swap3\n      swap2\n      pop\n      pop\n      jump\t// out\n        /* \"#utility.yul\":7961:8310   */\n    tag_240:\n        /* \"#utility.yul\":8030:8036   */\n      0x00\n        /* \"#utility.yul\":8079:8081   */\n      0x20\n        /* \"#utility.yul\":8067:8076   */\n      dup3\n        /* \"#utility.yul\":8058:8065   */\n      dup5\n        /* \"#utility.yul\":8054:8077   */\n      sub\n        /* \"#utility.yul\":8050:8082   */\n      slt\n        /* \"#utility.yul\":8047:8166   */\n      iszero\n      tag_383\n      jumpi\n        /* \"#utility.yul\":8085:8164   */\n      tag_384\n      tag_336\n      jump\t// in\n    tag_384:\n        /* \"#utility.yul\":8047:8166   */\n    tag_383:\n        /* \"#utility.yul\":8205:8206   */\n      0x00\n        /* \"#utility.yul\":8230:8293   */\n      tag_385\n        /* \"#utility.yul\":8285:8292   */\n      dup5\n        /* \"#utility.yul\":8276:8282   */\n      dup3\n        /* \"#utility.yul\":8265:8274   */\n      dup6\n        /* \"#utility.yul\":8261:8283   */\n      add\n        /* \"#utility.yul\":8230:8293   */\n      tag_317\n      jump\t// in\n    tag_385:\n        /* \"#utility.yul\":8220:8293   */\n      swap2\n      pop\n        /* \"#utility.yul\":8176:8303   */\n      pop\n        /* \"#utility.yul\":7961:8310   */\n      swap3\n      swap2\n      pop\n      pop\n      jump\t// out\n        /* \"#utility.yul\":8316:8645   */\n    tag_36:\n        /* \"#utility.yul\":8375:8381   */\n      0x00\n        /* \"#utility.yul\":8424:8426   */\n      0x20\n        /* \"#utility.yul\":8412:8421   */\n      dup3\n        /* \"#utility.yul\":8403:8410   */\n      dup5\n        /* \"#utility.yul\":8399:8422   */\n      sub\n        /* \"#utility.yul\":8395:8427   */\n      slt\n        /* \"#utility.yul\":8392:8511   */\n      iszero\n      tag_387\n      jumpi\n        /* \"#utility.yul\":8430:8509   */\n      tag_388\n      tag_336\n      jump\t// in\n    tag_388:\n        /* \"#utility.yul\":8392:8511   */\n    tag_387:\n        /* \"#utility.yul\":8550:8551   */\n      0x00\n        /* \"#utility.yul\":8575:8628   */\n      tag_389\n        /* \"#utility.yul\":8620:8627   */\n      dup5\n        /* \"#utility.yul\":8611:8617   */\n      dup3\n        /* \"#utility.yul\":8600:8609   */\n      dup6\n        /* \"#utility.yul\":8596:8618   */\n      add\n        /* \"#utility.yul\":8575:8628   */\n      tag_280\n      jump\t// in\n    tag_389:\n        /* \"#utility.yul\":8565:8628   */\n      swap2\n      pop\n        /* \"#utility.yul\":8521:8638   */\n      pop\n        /* \"#utility.yul\":8316:8645   */\n      swap3\n      swap2\n      pop\n      pop\n      jump\t// out\n        /* \"#utility.yul\":8651:8769   */\n    tag_390:\n        /* \"#utility.yul\":8738:8762   */\n      tag_392\n        /* \"#utility.yul\":8756:8761   */\n      dup2\n        /* \"#utility.yul\":8738:8762   */\n      tag_393\n      jump\t// in\n    tag_392:\n        /* \"#utility.yul\":8733:8736   */\n      dup3\n        /* \"#utility.yul\":8726:8763   */\n      mstore\n        /* \"#utility.yul\":8651:8769   */\n      pop\n      pop\n      jump\t// out\n        /* \"#utility.yul\":8775:8884   */\n    tag_394:\n        /* \"#utility.yul\":8856:8877   */\n      tag_396\n        /* \"#utility.yul\":8871:8876   */\n      dup2\n        /* \"#utility.yul\":8856:8877   */\n      tag_397\n      jump\t// in\n    tag_396:\n        /* \"#utility.yul\":8851:8854   */\n      dup3\n        /* \"#utility.yul\":8844:8878   */\n      mstore\n        /* \"#utility.yul\":8775:8884   */\n      pop\n      pop\n      jump\t// out\n        /* \"#utility.yul\":8890:9250   */\n    tag_398:\n        /* \"#utility.yul\":8976:8979   */\n      0x00\n        /* \"#utility.yul\":9004:9042   */\n      tag_400\n        /* \"#utility.yul\":9036:9041   */\n      dup3\n        /* \"#utility.yul\":9004:9042   */\n      tag_401\n      jump\t// in\n    tag_400:\n        /* \"#utility.yul\":9058:9128   */\n      tag_402\n        /* \"#utility.yul\":9121:9127   */\n      dup2\n        /* \"#utility.yul\":9116:9119   */\n      dup6\n        /* \"#utility.yul\":9058:9128   */\n      tag_403\n      jump\t// in\n    tag_402:\n        /* \"#utility.yul\":9051:9128   */\n      swap4\n      pop\n        /* \"#utility.yul\":9137:9189   */\n      tag_404\n        /* \"#utility.yul\":9182:9188   */\n      dup2\n        /* \"#utility.yul\":9177:9180   */\n      dup6\n        /* \"#utility.yul\":9170:9174   */\n      0x20\n        /* \"#utility.yul\":9163:9168   */\n      dup7\n        /* \"#utility.yul\":9159:9175   */\n      add\n        /* \"#utility.yul\":9137:9189   */\n      tag_405\n      jump\t// in\n    tag_404:\n        /* \"#utility.yul\":9214:9243   */\n      tag_406\n        /* \"#utility.yul\":9236:9242   */\n      dup2\n        /* \"#utility.yul\":9214:9243   */\n      tag_407\n      jump\t// in\n    tag_406:\n        /* \"#utility.yul\":9209:9212   */\n      dup5\n        /* \"#utility.yul\":9205:9244   */\n      add\n        /* \"#utility.yul\":9198:9244   */\n      swap2\n      pop\n        /* \"#utility.yul\":8980:9250   */\n      pop\n        /* \"#utility.yul\":8890:9250   */\n      swap3\n      swap2\n      pop\n      pop\n      jump\t// out\n        /* \"#utility.yul\":9256:9620   */\n    tag_408:\n        /* \"#utility.yul\":9344:9347   */\n      0x00\n        /* \"#utility.yul\":9372:9411   */\n      tag_410\n        /* \"#utility.yul\":9405:9410   */\n      dup3\n        /* \"#utility.yul\":9372:9411   */\n      tag_411\n      jump\t// in\n    tag_410:\n        /* \"#utility.yul\":9427:9498   */\n      tag_412\n        /* \"#utility.yul\":9491:9497   */\n      dup2\n        /* \"#utility.yul\":9486:9489   */\n      dup6\n        /* \"#utility.yul\":9427:9498   */\n      tag_413\n      jump\t// in\n    tag_412:\n        /* \"#utility.yul\":9420:9498   */\n      swap4\n      pop\n        /* \"#utility.yul\":9507:9559   */\n      tag_414\n        /* \"#utility.yul\":9552:9558   */\n      dup2\n        /* \"#utility.yul\":9547:9550   */\n      dup6\n        /* \"#utility.yul\":9540:9544   */\n      0x20\n        /* \"#utility.yul\":9533:9538   */\n      dup7\n        /* \"#utility.yul\":9529:9545   */\n      add\n        /* \"#utility.yul\":9507:9559   */\n      tag_405\n      jump\t// in\n    tag_414:\n        /* \"#utility.yul\":9584:9613   */\n      tag_415\n        /* \"#utility.yul\":9606:9612   */\n      dup2\n        /* \"#utility.yul\":9584:9613   */\n      tag_407\n      jump\t// in\n    tag_415:\n        /* \"#utility.yul\":9579:9582   */\n      dup5\n        /* \"#utility.yul\":9575:9614   */\n      add\n        /* \"#utility.yul\":9568:9614   */\n      swap2\n      pop\n        /* \"#utility.yul\":9348:9620   */\n      pop\n        /* \"#utility.yul\":9256:9620   */\n      swap3\n      swap2\n      pop\n      pop\n      jump\t// out\n        /* \"#utility.yul\":9626:9992   */\n    tag_416:\n        /* \"#utility.yul\":9768:9771   */\n      0x00\n        /* \"#utility.yul\":9789:9856   */\n      tag_418\n        /* \"#utility.yul\":9853:9855   */\n      0x1a\n        /* \"#utility.yul\":9848:9851   */\n      dup4\n        /* \"#utility.yul\":9789:9856   */\n      tag_413\n      jump\t// in\n    tag_418:\n        /* \"#utility.yul\":9782:9856   */\n      swap2\n      pop\n        /* \"#utility.yul\":9865:9958   */\n      tag_419\n        /* \"#utility.yul\":9954:9957   */\n      dup3\n        /* \"#utility.yul\":9865:9958   */\n      tag_420\n      jump\t// in\n    tag_419:\n        /* \"#utility.yul\":9983:9985   */\n      0x20\n        /* \"#utility.yul\":9978:9981   */\n      dup3\n        /* \"#utility.yul\":9974:9986   */\n      add\n        /* \"#utility.yul\":9967:9986   */\n      swap1\n      pop\n        /* \"#utility.yul\":9626:9992   */\n      swap2\n      swap1\n      pop\n      jump\t// out\n        /* \"#utility.yul\":9998:10364   */\n    tag_421:\n        /* \"#utility.yul\":10140:10143   */\n      0x00\n        /* \"#utility.yul\":10161:10228   */\n      tag_423\n        /* \"#utility.yul\":10225:10227   */\n      0x1f\n        /* \"#utility.yul\":10220:10223   */\n      dup4\n        /* \"#utility.yul\":10161:10228   */\n      tag_413\n      jump\t// in\n    tag_423:\n        /* \"#utility.yul\":10154:10228   */\n      swap2\n      pop\n        /* \"#utility.yul\":10237:10330   */\n      tag_424\n        /* \"#utility.yul\":10326:10329   */\n      dup3\n        /* \"#utility.yul\":10237:10330   */\n      tag_425\n      jump\t// in\n    tag_424:\n        /* \"#utility.yul\":10355:10357   */\n      0x20\n        /* \"#utility.yul\":10350:10353   */\n      dup3\n        /* \"#utility.yul\":10346:10358   */\n      add\n        /* \"#utility.yul\":10339:10358   */\n      swap1\n      pop\n        /* \"#utility.yul\":9998:10364   */\n      swap2\n      swap1\n      pop\n      jump\t// out\n        /* \"#utility.yul\":10370:10736   */\n    tag_426:\n        /* \"#utility.yul\":10512:10515   */\n      0x00\n        /* \"#utility.yul\":10533:10600   */\n      tag_428\n        /* \"#utility.yul\":10597:10599   */\n      0x15\n        /* \"#utility.yul\":10592:10595   */\n      dup4\n        /* \"#utility.yul\":10533:10600   */\n      tag_413\n      jump\t// in\n    tag_428:\n        /* \"#utility.yul\":10526:10600   */\n      swap2\n      pop\n        /* \"#utility.yul\":10609:10702   */\n      tag_429\n        /* \"#utility.yul\":10698:10701   */\n      dup3\n        /* \"#utility.yul\":10609:10702   */\n      tag_430\n      jump\t// in\n    tag_429:\n        /* \"#utility.yul\":10727:10729   */\n      0x20\n        /* \"#utility.yul\":10722:10725   */\n      dup3\n        /* \"#utility.yul\":10718:10730   */\n      add\n        /* \"#utility.yul\":10711:10730   */\n      swap1\n      pop\n        /* \"#utility.yul\":10370:10736   */\n      swap2\n      swap1\n      pop\n      jump\t// out\n        /* \"#utility.yul\":10742:11108   */\n    tag_431:\n        /* \"#utility.yul\":10884:10887   */\n      0x00\n        /* \"#utility.yul\":10905:10972   */\n      tag_433\n        /* \"#utility.yul\":10969:10971   */\n      0x14\n        /* \"#utility.yul\":10964:10967   */\n      dup4\n        /* \"#utility.yul\":10905:10972   */\n      tag_413\n      jump\t// in\n    tag_433:\n        /* \"#utility.yul\":10898:10972   */\n      swap2\n      pop\n        /* \"#utility.yul\":10981:11074   */\n      tag_434\n        /* \"#utility.yul\":11070:11073   */\n      dup3\n        /* \"#utility.yul\":10981:11074   */\n      tag_435\n      jump\t// in\n    tag_434:\n        /* \"#utility.yul\":11099:11101   */\n      0x20\n        /* \"#utility.yul\":11094:11097   */\n      dup3\n        /* \"#utility.yul\":11090:11102   */\n      add\n        /* \"#utility.yul\":11083:11102   */\n      swap1\n      pop\n        /* \"#utility.yul\":10742:11108   */\n      swap2\n      swap1\n      pop\n      jump\t// out\n        /* \"#utility.yul\":11114:11480   */\n    tag_436:\n        /* \"#utility.yul\":11256:11259   */\n      0x00\n        /* \"#utility.yul\":11277:11344   */\n      tag_438\n        /* \"#utility.yul\":11341:11343   */\n      0x2a\n        /* \"#utility.yul\":11336:11339   */\n      dup4\n        /* \"#utility.yul\":11277:11344   */\n      tag_413\n      jump\t// in\n    tag_438:\n        /* \"#utility.yul\":11270:11344   */\n      swap2\n      pop\n        /* \"#utility.yul\":11353:11446   */\n      tag_439\n        /* \"#utility.yul\":11442:11445   */\n      dup3\n        /* \"#utility.yul\":11353:11446   */\n      tag_440\n      jump\t// in\n    tag_439:\n        /* \"#utility.yul\":11471:11473   */\n      0x40\n        /* \"#utility.yul\":11466:11469   */\n      dup3\n        /* \"#utility.yul\":11462:11474   */\n      add\n        /* \"#utility.yul\":11455:11474   */\n      swap1\n      pop\n        /* \"#utility.yul\":11114:11480   */\n      swap2\n      swap1\n      pop\n      jump\t// out\n        /* \"#utility.yul\":11486:11852   */\n    tag_441:\n        /* \"#utility.yul\":11628:11631   */\n      0x00\n        /* \"#utility.yul\":11649:11716   */\n      tag_443\n        /* \"#utility.yul\":11713:11715   */\n      0x2d\n        /* \"#utility.yul\":11708:11711   */\n      dup4\n        /* \"#utility.yul\":11649:11716   */\n      tag_413\n      jump\t// in\n    tag_443:\n        /* \"#utility.yul\":11642:11716   */\n      swap2\n      pop\n        /* \"#utility.yul\":11725:11818   */\n      tag_444\n        /* \"#utility.yul\":11814:11817   */\n      dup3\n        /* \"#utility.yul\":11725:11818   */\n      tag_445\n      jump\t// in\n    tag_444:\n        /* \"#utility.yul\":11843:11845   */\n      0x40\n        /* \"#utility.yul\":11838:11841   */\n      dup3\n        /* \"#utility.yul\":11834:11846   */\n      add\n        /* \"#utility.yul\":11827:11846   */\n      swap1\n      pop\n        /* \"#utility.yul\":11486:11852   */\n      swap2\n      swap1\n      pop\n      jump\t// out\n        /* \"#utility.yul\":11858:12224   */\n    tag_446:\n        /* \"#utility.yul\":12000:12003   */\n      0x00\n        /* \"#utility.yul\":12021:12088   */\n      tag_448\n        /* \"#utility.yul\":12085:12087   */\n      0x18\n        /* \"#utility.yul\":12080:12083   */\n      dup4\n        /* \"#utility.yul\":12021:12088   */\n      tag_413\n      jump\t// in\n    tag_448:\n        /* \"#utility.yul\":12014:12088   */\n      swap2\n      pop\n        /* \"#utility.yul\":12097:12190   */\n      tag_449\n        /* \"#utility.yul\":12186:12189   */\n      dup3\n        /* \"#utility.yul\":12097:12190   */\n      tag_450\n      jump\t// in\n    tag_449:\n        /* \"#utility.yul\":12215:12217   */\n      0x20\n        /* \"#utility.yul\":12210:12213   */\n      dup3\n        /* \"#utility.yul\":12206:12218   */\n      add\n        /* \"#utility.yul\":12199:12218   */\n      swap1\n      pop\n        /* \"#utility.yul\":11858:12224   */\n      swap2\n      swap1\n      pop\n      jump\t// out\n        /* \"#utility.yul\":12230:12596   */\n    tag_451:\n        /* \"#utility.yul\":12372:12375   */\n      0x00\n        /* \"#utility.yul\":12393:12460   */\n      tag_453\n        /* \"#utility.yul\":12457:12459   */\n      0x0d\n        /* \"#utility.yul\":12452:12455   */\n      dup4\n        /* \"#utility.yul\":12393:12460   */\n      tag_413\n      jump\t// in\n    tag_453:\n        /* \"#utility.yul\":12386:12460   */\n      swap2\n      pop\n        /* \"#utility.yul\":12469:12562   */\n      tag_454\n        /* \"#utility.yul\":12558:12561   */\n      dup3\n        /* \"#utility.yul\":12469:12562   */\n      tag_455\n      jump\t// in\n    tag_454:\n        /* \"#utility.yul\":12587:12589   */\n      0x20\n        /* \"#utility.yul\":12582:12585   */\n      dup3\n        /* \"#utility.yul\":12578:12590   */\n      add\n        /* \"#utility.yul\":12571:12590   */\n      swap1\n      pop\n        /* \"#utility.yul\":12230:12596   */\n      swap2\n      swap1\n      pop\n      jump\t// out\n        /* \"#utility.yul\":12602:12968   */\n    tag_456:\n        /* \"#utility.yul\":12744:12747   */\n      0x00\n        /* \"#utility.yul\":12765:12832   */\n      tag_458\n        /* \"#utility.yul\":12829:12831   */\n      0x20\n        /* \"#utility.yul\":12824:12827   */\n      dup4\n        /* \"#utility.yul\":12765:12832   */\n      tag_413\n      jump\t// in\n    tag_458:\n        /* \"#utility.yul\":12758:12832   */\n      swap2\n      pop\n        /* \"#utility.yul\":12841:12934   */\n      tag_459\n        /* \"#utility.yul\":12930:12933   */\n      dup3\n        /* \"#utility.yul\":12841:12934   */\n      tag_460\n      jump\t// in\n    tag_459:\n        /* \"#utility.yul\":12959:12961   */\n      0x20\n        /* \"#utility.yul\":12954:12957   */\n      dup3\n        /* \"#utility.yul\":12950:12962   */\n      add\n        /* \"#utility.yul\":12943:12962   */\n      swap1\n      pop\n        /* \"#utility.yul\":12602:12968   */\n      swap2\n      swap1\n      pop\n      jump\t// out\n        /* \"#utility.yul\":12974:13340   */\n    tag_461:\n        /* \"#utility.yul\":13116:13119   */\n      0x00\n        /* \"#utility.yul\":13137:13204   */\n      tag_463\n        /* \"#utility.yul\":13201:13203   */\n      0x18\n        /* \"#utility.yul\":13196:13199   */\n      dup4\n        /* \"#utility.yul\":13137:13204   */\n      tag_413\n      jump\t// in\n    tag_463:\n        /* \"#utility.yul\":13130:13204   */\n      swap2\n      pop\n        /* \"#utility.yul\":13213:13306   */\n      tag_464\n        /* \"#utility.yul\":13302:13305   */\n      dup3\n        /* \"#utility.yul\":13213:13306   */\n      tag_465\n      jump\t// in\n    tag_464:\n        /* \"#utility.yul\":13331:13333   */\n      0x20\n        /* \"#utility.yul\":13326:13329   */\n      dup3\n        /* \"#utility.yul\":13322:13334   */\n      add\n        /* \"#utility.yul\":13315:13334   */\n      swap1\n      pop\n        /* \"#utility.yul\":12974:13340   */\n      swap2\n      swap1\n      pop\n      jump\t// out\n        /* \"#utility.yul\":13346:13712   */\n    tag_466:\n        /* \"#utility.yul\":13488:13491   */\n      0x00\n        /* \"#utility.yul\":13509:13576   */\n      tag_468\n        /* \"#utility.yul\":13573:13575   */\n      0x14\n        /* \"#utility.yul\":13568:13571   */\n      dup4\n        /* \"#utility.yul\":13509:13576   */\n      tag_413\n      jump\t// in\n    tag_468:\n        /* \"#utility.yul\":13502:13576   */\n      swap2\n      pop\n        /* \"#utility.yul\":13585:13678   */\n      tag_469\n        /* \"#utility.yul\":13674:13677   */\n      dup3\n        /* \"#utility.yul\":13585:13678   */\n      tag_470\n      jump\t// in\n    tag_469:\n        /* \"#utility.yul\":13703:13705   */\n      0x20\n        /* \"#utility.yul\":13698:13701   */\n      dup3\n        /* \"#utility.yul\":13694:13706   */\n      add\n        /* \"#utility.yul\":13687:13706   */\n      swap1\n      pop\n        /* \"#utility.yul\":13346:13712   */\n      swap2\n      swap1\n      pop\n      jump\t// out\n        /* \"#utility.yul\":13718:14084   */\n    tag_471:\n        /* \"#utility.yul\":13860:13863   */\n      0x00\n        /* \"#utility.yul\":13881:13948   */\n      tag_473\n        /* \"#utility.yul\":13945:13947   */\n      0x13\n        /* \"#utility.yul\":13940:13943   */\n      dup4\n        /* \"#utility.yul\":13881:13948   */\n      tag_413\n      jump\t// in\n    tag_473:\n        /* \"#utility.yul\":13874:13948   */\n      swap2\n      pop\n        /* \"#utility.yul\":13957:14050   */\n      tag_474\n        /* \"#utility.yul\":14046:14049   */\n      dup3\n        /* \"#utility.yul\":13957:14050   */\n      tag_475\n      jump\t// in\n    tag_474:\n        /* \"#utility.yul\":14075:14077   */\n      0x20\n        /* \"#utility.yul\":14070:14073   */\n      dup3\n        /* \"#utility.yul\":14066:14078   */\n      add\n        /* \"#utility.yul\":14059:14078   */\n      swap1\n      pop\n        /* \"#utility.yul\":13718:14084   */\n      swap2\n      swap1\n      pop\n      jump\t// out\n        /* \"#utility.yul\":14090:14456   */\n    tag_476:\n        /* \"#utility.yul\":14232:14235   */\n      0x00\n        /* \"#utility.yul\":14253:14320   */\n      tag_478\n        /* \"#utility.yul\":14317:14319   */\n      0x13\n        /* \"#utility.yul\":14312:14315   */\n      dup4\n        /* \"#utility.yul\":14253:14320   */\n      tag_413\n      jump\t// in\n    tag_478:\n        /* \"#utility.yul\":14246:14320   */\n      swap2\n      pop\n        /* \"#utility.yul\":14329:14422   */\n      tag_479\n        /* \"#utility.yul\":14418:14421   */\n      dup3\n        /* \"#utility.yul\":14329:14422   */\n      tag_480\n      jump\t// in\n    tag_479:\n        /* \"#utility.yul\":14447:14449   */\n      0x20\n        /* \"#utility.yul\":14442:14445   */\n      dup3\n        /* \"#utility.yul\":14438:14450   */\n      add\n        /* \"#utility.yul\":14431:14450   */\n      swap1\n      pop\n        /* \"#utility.yul\":14090:14456   */\n      swap2\n      swap1\n      pop\n      jump\t// out\n        /* \"#utility.yul\":14462:14580   */\n    tag_481:\n        /* \"#utility.yul\":14549:14573   */\n      tag_483\n        /* \"#utility.yul\":14567:14572   */\n      dup2\n        /* \"#utility.yul\":14549:14573   */\n      tag_484\n      jump\t// in\n    tag_483:\n        /* \"#utility.yul\":14544:14547   */\n      dup3\n        /* \"#utility.yul\":14537:14574   */\n      mstore\n        /* \"#utility.yul\":14462:14580   */\n      pop\n      pop\n      jump\t// out\n        /* \"#utility.yul\":14586:14808   */\n    tag_39:\n        /* \"#utility.yul\":14679:14683   */\n      0x00\n        /* \"#utility.yul\":14717:14719   */\n      0x20\n        /* \"#utility.yul\":14706:14715   */\n      dup3\n        /* \"#utility.yul\":14702:14720   */\n      add\n        /* \"#utility.yul\":14694:14720   */\n      swap1\n      pop\n        /* \"#utility.yul\":14730:14801   */\n      tag_486\n        /* \"#utility.yul\":14798:14799   */\n      0x00\n        /* \"#utility.yul\":14787:14796   */\n      dup4\n        /* \"#utility.yul\":14783:14800   */\n      add\n        /* \"#utility.yul\":14774:14780   */\n      dup5\n        /* \"#utility.yul\":14730:14801   */\n      tag_390\n      jump\t// in\n    tag_486:\n        /* \"#utility.yul\":14586:14808   */\n      swap3\n      swap2\n      pop\n      pop\n      jump\t// out\n        /* \"#utility.yul\":14814:15454   */\n    tag_236:\n        /* \"#utility.yul\":15009:15013   */\n      0x00\n        /* \"#utility.yul\":15047:15050   */\n      0x80\n        /* \"#utility.yul\":15036:15045   */\n      dup3\n        /* \"#utility.yul\":15032:15051   */\n      add\n        /* \"#utility.yul\":15024:15051   */\n      swap1\n      pop\n        /* \"#utility.yul\":15061:15132   */\n      tag_488\n        /* \"#utility.yul\":15129:15130   */\n      0x00\n        /* \"#utility.yul\":15118:15127   */\n      dup4\n        /* \"#utility.yul\":15114:15131   */\n      add\n        /* \"#utility.yul\":15105:15111   */\n      dup8\n        /* \"#utility.yul\":15061:15132   */\n      tag_390\n      jump\t// in\n    tag_488:\n        /* \"#utility.yul\":15142:15214   */\n      tag_489\n        /* \"#utility.yul\":15210:15212   */\n      0x20\n        /* \"#utility.yul\":15199:15208   */\n      dup4\n        /* \"#utility.yul\":15195:15213   */\n      add\n        /* \"#utility.yul\":15186:15192   */\n      dup7\n        /* \"#utility.yul\":15142:15214   */\n      tag_390\n      jump\t// in\n    tag_489:\n        /* \"#utility.yul\":15224:15296   */\n      tag_490\n        /* \"#utility.yul\":15292:15294   */\n      0x40\n        /* \"#utility.yul\":15281:15290   */\n      dup4\n        /* \"#utility.yul\":15277:15295   */\n      add\n        /* \"#utility.yul\":15268:15274   */\n      dup6\n        /* \"#utility.yul\":15224:15296   */\n      tag_481\n      jump\t// in\n    tag_490:\n        /* \"#utility.yul\":15343:15352   */\n      dup2\n        /* \"#utility.yul\":15337:15341   */\n      dup2\n        /* \"#utility.yul\":15333:15353   */\n      sub\n        /* \"#utility.yul\":15328:15330   */\n      0x60\n        /* \"#utility.yul\":15317:15326   */\n      dup4\n        /* \"#utility.yul\":15313:15331   */\n      add\n        /* \"#utility.yul\":15306:15354   */\n      mstore\n        /* \"#utility.yul\":15371:15447   */\n      tag_491\n        /* \"#utility.yul\":15442:15446   */\n      dup2\n        /* \"#utility.yul\":15433:15439   */\n      dup5\n        /* \"#utility.yul\":15371:15447   */\n      tag_398\n      jump\t// in\n    tag_491:\n        /* \"#utility.yul\":15363:15447   */\n      swap1\n      pop\n        /* \"#utility.yul\":14814:15454   */\n      swap6\n      swap5\n      pop\n      pop\n      pop\n      pop\n      pop\n      jump\t// out\n        /* \"#utility.yul\":15460:15670   */\n    tag_29:\n        /* \"#utility.yul\":15547:15551   */\n      0x00\n        /* \"#utility.yul\":15585:15587   */\n      0x20\n        /* \"#utility.yul\":15574:15583   */\n      dup3\n        /* \"#utility.yul\":15570:15588   */\n      add\n        /* \"#utility.yul\":15562:15588   */\n      swap1\n      pop\n        /* \"#utility.yul\":15598:15663   */\n      tag_493\n        /* \"#utility.yul\":15660:15661   */\n      0x00\n        /* \"#utility.yul\":15649:15658   */\n      dup4\n        /* \"#utility.yul\":15645:15662   */\n      add\n        /* \"#utility.yul\":15636:15642   */\n      dup5\n        /* \"#utility.yul\":15598:15663   */\n      tag_394\n      jump\t// in\n    tag_493:\n        /* \"#utility.yul\":15460:15670   */\n      swap3\n      swap2\n      pop\n      pop\n      jump\t// out\n        /* \"#utility.yul\":15676:15989   */\n    tag_33:\n        /* \"#utility.yul\":15789:15793   */\n      0x00\n        /* \"#utility.yul\":15827:15829   */\n      0x20\n        /* \"#utility.yul\":15816:15825   */\n      dup3\n        /* \"#utility.yul\":15812:15830   */\n      add\n        /* \"#utility.yul\":15804:15830   */\n      swap1\n      pop\n        /* \"#utility.yul\":15876:15885   */\n      dup2\n        /* \"#utility.yul\":15870:15874   */\n      dup2\n        /* \"#utility.yul\":15866:15886   */\n      sub\n        /* \"#utility.yul\":15862:15863   */\n      0x00\n        /* \"#utility.yul\":15851:15860   */\n      dup4\n        /* \"#utility.yul\":15847:15864   */\n      add\n        /* \"#utility.yul\":15840:15887   */\n      mstore\n        /* \"#utility.yul\":15904:15982   */\n      tag_495\n        /* \"#utility.yul\":15977:15981   */\n      dup2\n        /* \"#utility.yul\":15968:15974   */\n      dup5\n        /* \"#utility.yul\":15904:15982   */\n      tag_408\n      jump\t// in\n    tag_495:\n        /* \"#utility.yul\":15896:15982   */\n      swap1\n      pop\n        /* \"#utility.yul\":15676:15989   */\n      swap3\n      swap2\n      pop\n      pop\n      jump\t// out\n        /* \"#utility.yul\":15995:16414   */\n    tag_148:\n        /* \"#utility.yul\":16161:16165   */\n      0x00\n        /* \"#utility.yul\":16199:16201   */\n      0x20\n        /* \"#utility.yul\":16188:16197   */\n      dup3\n        /* \"#utility.yul\":16184:16202   */\n      add\n        /* \"#utility.yul\":16176:16202   */\n      swap1\n      pop\n        /* \"#utility.yul\":16248:16257   */\n      dup2\n        /* \"#utility.yul\":16242:16246   */\n      dup2\n        /* \"#utility.yul\":16238:16258   */\n      sub\n        /* \"#utility.yul\":16234:16235   */\n      0x00\n        /* \"#utility.yul\":16223:16232   */\n      dup4\n        /* \"#utility.yul\":16219:16236   */\n      add\n        /* \"#utility.yul\":16212:16259   */\n      mstore\n        /* \"#utility.yul\":16276:16407   */\n      tag_497\n        /* \"#utility.yul\":16402:16406   */\n      dup2\n        /* \"#utility.yul\":16276:16407   */\n      tag_416\n      jump\t// in\n    tag_497:\n        /* \"#utility.yul\":16268:16407   */\n      swap1\n      pop\n        /* \"#utility.yul\":15995:16414   */\n      swap2\n      swap1\n      pop\n      jump\t// out\n        /* \"#utility.yul\":16420:16839   */\n    tag_162:\n        /* \"#utility.yul\":16586:16590   */\n      0x00\n        /* \"#utility.yul\":16624:16626   */\n      0x20\n        /* \"#utility.yul\":16613:16622   */\n      dup3\n        /* \"#utility.yul\":16609:16627   */\n      add\n        /* \"#utility.yul\":16601:16627   */\n      swap1\n      pop\n        /* \"#utility.yul\":16673:16682   */\n      dup2\n        /* \"#utility.yul\":16667:16671   */\n      dup2\n        /* \"#utility.yul\":16663:16683   */\n      sub\n        /* \"#utility.yul\":16659:16660   */\n      0x00\n        /* \"#utility.yul\":16648:16657   */\n      dup4\n        /* \"#utility.yul\":16644:16661   */\n      add\n        /* \"#utility.yul\":16637:16684   */\n      mstore\n        /* \"#utility.yul\":16701:16832   */\n      tag_499\n        /* \"#utility.yul\":16827:16831   */\n      dup2\n        /* \"#utility.yul\":16701:16832   */\n      tag_421\n      jump\t// in\n    tag_499:\n        /* \"#utility.yul\":16693:16832   */\n      swap1\n      pop\n        /* \"#utility.yul\":16420:16839   */\n      swap2\n      swap1\n      pop\n      jump\t// out\n        /* \"#utility.yul\":16845:17264   */\n    tag_189:\n        /* \"#utility.yul\":17011:17015   */\n      0x00\n        /* \"#utility.yul\":17049:17051   */\n      0x20\n        /* \"#utility.yul\":17038:17047   */\n      dup3\n        /* \"#utility.yul\":17034:17052   */\n      add\n        /* \"#utility.yul\":17026:17052   */\n      swap1\n      pop\n        /* \"#utility.yul\":17098:17107   */\n      dup2\n        /* \"#utility.yul\":17092:17096   */\n      dup2\n        /* \"#utility.yul\":17088:17108   */\n      sub\n        /* \"#utility.yul\":17084:17085   */\n      0x00\n        /* \"#utility.yul\":17073:17082   */\n      dup4\n        /* \"#utility.yul\":17069:17086   */\n      add\n        /* \"#utility.yul\":17062:17109   */\n      mstore\n        /* \"#utility.yul\":17126:17257   */\n      tag_501\n        /* \"#utility.yul\":17252:17256   */\n      dup2\n        /* \"#utility.yul\":17126:17257   */\n      tag_426\n      jump\t// in\n    tag_501:\n        /* \"#utility.yul\":17118:17257   */\n      swap1\n      pop\n        /* \"#utility.yul\":16845:17264   */\n      swap2\n      swap1\n      pop\n      jump\t// out\n        /* \"#utility.yul\":17270:17689   */\n    tag_219:\n        /* \"#utility.yul\":17436:17440   */\n      0x00\n        /* \"#utility.yul\":17474:17476   */\n      0x20\n        /* \"#utility.yul\":17463:17472   */\n      dup3\n        /* \"#utility.yul\":17459:17477   */\n      add\n        /* \"#utility.yul\":17451:17477   */\n      swap1\n      pop\n        /* \"#utility.yul\":17523:17532   */\n      dup2\n        /* \"#utility.yul\":17517:17521   */\n      dup2\n        /* \"#utility.yul\":17513:17533   */\n      sub\n        /* \"#utility.yul\":17509:17510   */\n      0x00\n        /* \"#utility.yul\":17498:17507   */\n      dup4\n        /* \"#utility.yul\":17494:17511   */\n      add\n        /* \"#utility.yul\":17487:17534   */\n      mstore\n        /* \"#utility.yul\":17551:17682   */\n      tag_503\n        /* \"#utility.yul\":17677:17681   */\n      dup2\n        /* \"#utility.yul\":17551:17682   */\n      tag_431\n      jump\t// in\n    tag_503:\n        /* \"#utility.yul\":17543:17682   */\n      swap1\n      pop\n        /* \"#utility.yul\":17270:17689   */\n      swap2\n      swap1\n      pop\n      jump\t// out\n        /* \"#utility.yul\":17695:18114   */\n    tag_206:\n        /* \"#utility.yul\":17861:17865   */\n      0x00\n        /* \"#utility.yul\":17899:17901   */\n      0x20\n        /* \"#utility.yul\":17888:17897   */\n      dup3\n        /* \"#utility.yul\":17884:17902   */\n      add\n        /* \"#utility.yul\":17876:17902   */\n      swap1\n      pop\n        /* \"#utility.yul\":17948:17957   */\n      dup2\n        /* \"#utility.yul\":17942:17946   */\n      dup2\n        /* \"#utility.yul\":17938:17958   */\n      sub\n        /* \"#utility.yul\":17934:17935   */\n      0x00\n        /* \"#utility.yul\":17923:17932   */\n      dup4\n        /* \"#utility.yul\":17919:17936   */\n      add\n        /* \"#utility.yul\":17912:17959   */\n      mstore\n        /* \"#utility.yul\":17976:18107   */\n      tag_505\n        /* \"#utility.yul\":18102:18106   */\n      dup2\n        /* \"#utility.yul\":17976:18107   */\n      tag_436\n      jump\t// in\n    tag_505:\n        /* \"#utility.yul\":17968:18107   */\n      swap1\n      pop\n        /* \"#utility.yul\":17695:18114   */\n      swap2\n      swap1\n      pop\n      jump\t// out\n        /* \"#utility.yul\":18120:18539   */\n    tag_125:\n        /* \"#utility.yul\":18286:18290   */\n      0x00\n        /* \"#utility.yul\":18324:18326   */\n      0x20\n        /* \"#utility.yul\":18313:18322   */\n      dup3\n        /* \"#utility.yul\":18309:18327   */\n      add\n        /* \"#utility.yul\":18301:18327   */\n      swap1\n      pop\n        /* \"#utility.yul\":18373:18382   */\n      dup2\n        /* \"#utility.yul\":18367:18371   */\n      dup2\n        /* \"#utility.yul\":18363:18383   */\n      sub\n        /* \"#utility.yul\":18359:18360   */\n      0x00\n        /* \"#utility.yul\":18348:18357   */\n      dup4\n        /* \"#utility.yul\":18344:18361   */\n      add\n        /* \"#utility.yul\":18337:18384   */\n      mstore\n        /* \"#utility.yul\":18401:18532   */\n      tag_507\n        /* \"#utility.yul\":18527:18531   */\n      dup2\n        /* \"#utility.yul\":18401:18532   */\n      tag_441\n      jump\t// in\n    tag_507:\n        /* \"#utility.yul\":18393:18532   */\n      swap1\n      pop\n        /* \"#utility.yul\":18120:18539   */\n      swap2\n      swap1\n      pop\n      jump\t// out\n        /* \"#utility.yul\":18545:18964   */\n    tag_151:\n        /* \"#utility.yul\":18711:18715   */\n      0x00\n        /* \"#utility.yul\":18749:18751   */\n      0x20\n        /* \"#utility.yul\":18738:18747   */\n      dup3\n        /* \"#utility.yul\":18734:18752   */\n      add\n        /* \"#utility.yul\":18726:18752   */\n      swap1\n      pop\n        /* \"#utility.yul\":18798:18807   */\n      dup2\n        /* \"#utility.yul\":18792:18796   */\n      dup2\n        /* \"#utility.yul\":18788:18808   */\n      sub\n        /* \"#utility.yul\":18784:18785   */\n      0x00\n        /* \"#utility.yul\":18773:18782   */\n      dup4\n        /* \"#utility.yul\":18769:18786   */\n      add\n        /* \"#utility.yul\":18762:18809   */\n      mstore\n        /* \"#utility.yul\":18826:18957   */\n      tag_509\n        /* \"#utility.yul\":18952:18956   */\n      dup2\n        /* \"#utility.yul\":18826:18957   */\n      tag_446\n      jump\t// in\n    tag_509:\n        /* \"#utility.yul\":18818:18957   */\n      swap1\n      pop\n        /* \"#utility.yul\":18545:18964   */\n      swap2\n      swap1\n      pop\n      jump\t// out\n        /* \"#utility.yul\":18970:19389   */\n    tag_131:\n        /* \"#utility.yul\":19136:19140   */\n      0x00\n        /* \"#utility.yul\":19174:19176   */\n      0x20\n        /* \"#utility.yul\":19163:19172   */\n      dup3\n        /* \"#utility.yul\":19159:19177   */\n      add\n        /* \"#utility.yul\":19151:19177   */\n      swap1\n      pop\n        /* \"#utility.yul\":19223:19232   */\n      dup2\n        /* \"#utility.yul\":19217:19221   */\n      dup2\n        /* \"#utility.yul\":19213:19233   */\n      sub\n        /* \"#utility.yul\":19209:19210   */\n      0x00\n        /* \"#utility.yul\":19198:19207   */\n      dup4\n        /* \"#utility.yul\":19194:19211   */\n      add\n        /* \"#utility.yul\":19187:19234   */\n      mstore\n        /* \"#utility.yul\":19251:19382   */\n      tag_511\n        /* \"#utility.yul\":19377:19381   */\n      dup2\n        /* \"#utility.yul\":19251:19382   */\n      tag_451\n      jump\t// in\n    tag_511:\n        /* \"#utility.yul\":19243:19382   */\n      swap1\n      pop\n        /* \"#utility.yul\":18970:19389   */\n      swap2\n      swap1\n      pop\n      jump\t// out\n        /* \"#utility.yul\":19395:19814   */\n    tag_155:\n        /* \"#utility.yul\":19561:19565   */\n      0x00\n        /* \"#utility.yul\":19599:19601   */\n      0x20\n        /* \"#utility.yul\":19588:19597   */\n      dup3\n        /* \"#utility.yul\":19584:19602   */\n      add\n        /* \"#utility.yul\":19576:19602   */\n      swap1\n      pop\n        /* \"#utility.yul\":19648:19657   */\n      dup2\n        /* \"#utility.yul\":19642:19646   */\n      dup2\n        /* \"#utility.yul\":19638:19658   */\n      sub\n        /* \"#utility.yul\":19634:19635   */\n      0x00\n        /* \"#utility.yul\":19623:19632   */\n      dup4\n        /* \"#utility.yul\":19619:19636   */\n      add\n        /* \"#utility.yul\":19612:19659   */\n      mstore\n        /* \"#utility.yul\":19676:19807   */\n      tag_513\n        /* \"#utility.yul\":19802:19806   */\n      dup2\n        /* \"#utility.yul\":19676:19807   */\n      tag_456\n      jump\t// in\n    tag_513:\n        /* \"#utility.yul\":19668:19807   */\n      swap1\n      pop\n        /* \"#utility.yul\":19395:19814   */\n      swap2\n      swap1\n      pop\n      jump\t// out\n        /* \"#utility.yul\":19820:20239   */\n    tag_120:\n        /* \"#utility.yul\":19986:19990   */\n      0x00\n        /* \"#utility.yul\":20024:20026   */\n      0x20\n        /* \"#utility.yul\":20013:20022   */\n      dup3\n        /* \"#utility.yul\":20009:20027   */\n      add\n        /* \"#utility.yul\":20001:20027   */\n      swap1\n      pop\n        /* \"#utility.yul\":20073:20082   */\n      dup2\n        /* \"#utility.yul\":20067:20071   */\n      dup2\n        /* \"#utility.yul\":20063:20083   */\n      sub\n        /* \"#utility.yul\":20059:20060   */\n      0x00\n        /* \"#utility.yul\":20048:20057   */\n      dup4\n        /* \"#utility.yul\":20044:20061   */\n      add\n        /* \"#utility.yul\":20037:20084   */\n      mstore\n        /* \"#utility.yul\":20101:20232   */\n      tag_515\n        /* \"#utility.yul\":20227:20231   */\n      dup2\n        /* \"#utility.yul\":20101:20232   */\n      tag_461\n      jump\t// in\n    tag_515:\n        /* \"#utility.yul\":20093:20232   */\n      swap1\n      pop\n        /* \"#utility.yul\":19820:20239   */\n      swap2\n      swap1\n      pop\n      jump\t// out\n        /* \"#utility.yul\":20245:20664   */\n    tag_222:\n        /* \"#utility.yul\":20411:20415   */\n      0x00\n        /* \"#utility.yul\":20449:20451   */\n      0x20\n        /* \"#utility.yul\":20438:20447   */\n      dup3\n        /* \"#utility.yul\":20434:20452   */\n      add\n        /* \"#utility.yul\":20426:20452   */\n      swap1\n      pop\n        /* \"#utility.yul\":20498:20507   */\n      dup2\n        /* \"#utility.yul\":20492:20496   */\n      dup2\n        /* \"#utility.yul\":20488:20508   */\n      sub\n        /* \"#utility.yul\":20484:20485   */\n      0x00\n        /* \"#utility.yul\":20473:20482   */\n      dup4\n        /* \"#utility.yul\":20469:20486   */\n      add\n        /* \"#utility.yul\":20462:20509   */\n      mstore\n        /* \"#utility.yul\":20526:20657   */\n      tag_517\n        /* \"#utility.yul\":20652:20656   */\n      dup2\n        /* \"#utility.yul\":20526:20657   */\n      tag_466\n      jump\t// in\n    tag_517:\n        /* \"#utility.yul\":20518:20657   */\n      swap1\n      pop\n        /* \"#utility.yul\":20245:20664   */\n      swap2\n      swap1\n      pop\n      jump\t// out\n        /* \"#utility.yul\":20670:21089   */\n    tag_115:\n        /* \"#utility.yul\":20836:20840   */\n      0x00\n        /* \"#utility.yul\":20874:20876   */\n      0x20\n        /* \"#utility.yul\":20863:20872   */\n      dup3\n        /* \"#utility.yul\":20859:20877   */\n      add\n        /* \"#utility.yul\":20851:20877   */\n      swap1\n      pop\n        /* \"#utility.yul\":20923:20932   */\n      dup2\n        /* \"#utility.yul\":20917:20921   */\n      dup2\n        /* \"#utility.yul\":20913:20933   */\n      sub\n        /* \"#utility.yul\":20909:20910   */\n      0x00\n        /* \"#utility.yul\":20898:20907   */\n      dup4\n        /* \"#utility.yul\":20894:20911   */\n      add\n        /* \"#utility.yul\":20887:20934   */\n      mstore\n        /* \"#utility.yul\":20951:21082   */\n      tag_519\n        /* \"#utility.yul\":21077:21081   */\n      dup2\n        /* \"#utility.yul\":20951:21082   */\n      tag_471\n      jump\t// in\n    tag_519:\n        /* \"#utility.yul\":20943:21082   */\n      swap1\n      pop\n        /* \"#utility.yul\":20670:21089   */\n      swap2\n      swap1\n      pop\n      jump\t// out\n        /* \"#utility.yul\":21095:21514   */\n    tag_174:\n        /* \"#utility.yul\":21261:21265   */\n      0x00\n        /* \"#utility.yul\":21299:21301   */\n      0x20\n        /* \"#utility.yul\":21288:21297   */\n      dup3\n        /* \"#utility.yul\":21284:21302   */\n      add\n        /* \"#utility.yul\":21276:21302   */\n      swap1\n      pop\n        /* \"#utility.yul\":21348:21357   */\n      dup2\n        /* \"#utility.yul\":21342:21346   */\n      dup2\n        /* \"#utility.yul\":21338:21358   */\n      sub\n        /* \"#utility.yul\":21334:21335   */\n      0x00\n        /* \"#utility.yul\":21323:21332   */\n      dup4\n        /* \"#utility.yul\":21319:21336   */\n      add\n        /* \"#utility.yul\":21312:21359   */\n      mstore\n        /* \"#utility.yul\":21376:21507   */\n      tag_521\n        /* \"#utility.yul\":21502:21506   */\n      dup2\n        /* \"#utility.yul\":21376:21507   */\n      tag_476\n      jump\t// in\n    tag_521:\n        /* \"#utility.yul\":21368:21507   */\n      swap1\n      pop\n        /* \"#utility.yul\":21095:21514   */\n      swap2\n      swap1\n      pop\n      jump\t// out\n        /* \"#utility.yul\":21520:21742   */\n    tag_55:\n        /* \"#utility.yul\":21613:21617   */\n      0x00\n        /* \"#utility.yul\":21651:21653   */\n      0x20\n        /* \"#utility.yul\":21640:21649   */\n      dup3\n        /* \"#utility.yul\":21636:21654   */\n      add\n        /* \"#utility.yul\":21628:21654   */\n      swap1\n      pop\n        /* \"#utility.yul\":21664:21735   */\n      tag_523\n        /* \"#utility.yul\":21732:21733   */\n      0x00\n        /* \"#utility.yul\":21721:21730   */\n      dup4\n        /* \"#utility.yul\":21717:21734   */\n      add\n        /* \"#utility.yul\":21708:21714   */\n      dup5\n        /* \"#utility.yul\":21664:21735   */\n      tag_481\n      jump\t// in\n    tag_523:\n        /* \"#utility.yul\":21520:21742   */\n      swap3\n      swap2\n      pop\n      pop\n      jump\t// out\n        /* \"#utility.yul\":21748:21877   */\n    tag_272:\n        /* \"#utility.yul\":21782:21788   */\n      0x00\n        /* \"#utility.yul\":21809:21829   */\n      tag_525\n      tag_526\n      jump\t// in\n    tag_525:\n        /* \"#utility.yul\":21799:21829   */\n      swap1\n      pop\n        /* \"#utility.yul\":21838:21871   */\n      tag_527\n        /* \"#utility.yul\":21866:21870   */\n      dup3\n        /* \"#utility.yul\":21858:21864   */\n      dup3\n        /* \"#utility.yul\":21838:21871   */\n      tag_528\n      jump\t// in\n    tag_527:\n        /* \"#utility.yul\":21748:21877   */\n      swap2\n      swap1\n      pop\n      jump\t// out\n        /* \"#utility.yul\":21883:21958   */\n    tag_526:\n        /* \"#utility.yul\":21916:21922   */\n      0x00\n        /* \"#utility.yul\":21949:21951   */\n      0x40\n        /* \"#utility.yul\":21943:21952   */\n      mload\n        /* \"#utility.yul\":21933:21952   */\n      swap1\n      pop\n        /* \"#utility.yul\":21883:21958   */\n      swap1\n      jump\t// out\n        /* \"#utility.yul\":21964:22275   */\n    tag_271:\n        /* \"#utility.yul\":22041:22045   */\n      0x00\n        /* \"#utility.yul\":22131:22149   */\n      0xffffffffffffffff\n        /* \"#utility.yul\":22123:22129   */\n      dup3\n        /* \"#utility.yul\":22120:22150   */\n      gt\n        /* \"#utility.yul\":22117:22173   */\n      iszero\n      tag_531\n      jumpi\n        /* \"#utility.yul\":22153:22171   */\n      tag_532\n      tag_533\n      jump\t// in\n    tag_532:\n        /* \"#utility.yul\":22117:22173   */\n    tag_531:\n        /* \"#utility.yul\":22203:22207   */\n      0x20\n        /* \"#utility.yul\":22195:22201   */\n      dup3\n        /* \"#utility.yul\":22191:22208   */\n      mul\n        /* \"#utility.yul\":22183:22208   */\n      swap1\n      pop\n        /* \"#utility.yul\":22263:22267   */\n      0x20\n        /* \"#utility.yul\":22257:22261   */\n      dup2\n        /* \"#utility.yul\":22253:22268   */\n      add\n        /* \"#utility.yul\":22245:22268   */\n      swap1\n      pop\n        /* \"#utility.yul\":21964:22275   */\n      swap2\n      swap1\n      pop\n      jump\t// out\n        /* \"#utility.yul\":22281:22588   */\n    tag_285:\n        /* \"#utility.yul\":22342:22346   */\n      0x00\n        /* \"#utility.yul\":22432:22450   */\n      0xffffffffffffffff\n        /* \"#utility.yul\":22424:22430   */\n      dup3\n        /* \"#utility.yul\":22421:22451   */\n      gt\n        /* \"#utility.yul\":22418:22474   */\n      iszero\n      tag_535\n      jumpi\n        /* \"#utility.yul\":22454:22472   */\n      tag_536\n      tag_533\n      jump\t// in\n    tag_536:\n        /* \"#utility.yul\":22418:22474   */\n    tag_535:\n        /* \"#utility.yul\":22492:22521   */\n      tag_537\n        /* \"#utility.yul\":22514:22520   */\n      dup3\n        /* \"#utility.yul\":22492:22521   */\n      tag_407\n      jump\t// in\n    tag_537:\n        /* \"#utility.yul\":22484:22521   */\n      swap1\n      pop\n        /* \"#utility.yul\":22576:22580   */\n      0x20\n        /* \"#utility.yul\":22570:22574   */\n      dup2\n        /* \"#utility.yul\":22566:22581   */\n      add\n        /* \"#utility.yul\":22558:22581   */\n      swap1\n      pop\n        /* \"#utility.yul\":22281:22588   */\n      swap2\n      swap1\n      pop\n      jump\t// out\n        /* \"#utility.yul\":22594:22902   */\n    tag_295:\n        /* \"#utility.yul\":22656:22660   */\n      0x00\n        /* \"#utility.yul\":22746:22764   */\n      0xffffffffffffffff\n        /* \"#utility.yul\":22738:22744   */\n      dup3\n        /* \"#utility.yul\":22735:22765   */\n      gt\n        /* \"#utility.yul\":22732:22788   */\n      iszero\n      tag_539\n      jumpi\n        /* \"#utility.yul\":22768:22786   */\n      tag_540\n      tag_533\n      jump\t// in\n    tag_540:\n        /* \"#utility.yul\":22732:22788   */\n    tag_539:\n        /* \"#utility.yul\":22806:22835   */\n      tag_541\n        /* \"#utility.yul\":22828:22834   */\n      dup3\n        /* \"#utility.yul\":22806:22835   */\n      tag_407\n      jump\t// in\n    tag_541:\n        /* \"#utility.yul\":22798:22835   */\n      swap1\n      pop\n        /* \"#utility.yul\":22890:22894   */\n      0x20\n        /* \"#utility.yul\":22884:22888   */\n      dup2\n        /* \"#utility.yul\":22880:22895   */\n      add\n        /* \"#utility.yul\":22872:22895   */\n      swap1\n      pop\n        /* \"#utility.yul\":22594:22902   */\n      swap2\n      swap1\n      pop\n      jump\t// out\n        /* \"#utility.yul\":22908:23006   */\n    tag_401:\n        /* \"#utility.yul\":22959:22965   */\n      0x00\n        /* \"#utility.yul\":22993:22998   */\n      dup2\n        /* \"#utility.yul\":22987:22999   */\n      mload\n        /* \"#utility.yul\":22977:22999   */\n      swap1\n      pop\n        /* \"#utility.yul\":22908:23006   */\n      swap2\n      swap1\n      pop\n      jump\t// out\n        /* \"#utility.yul\":23012:23111   */\n    tag_411:\n        /* \"#utility.yul\":23064:23070   */\n      0x00\n        /* \"#utility.yul\":23098:23103   */\n      dup2\n        /* \"#utility.yul\":23092:23104   */\n      mload\n        /* \"#utility.yul\":23082:23104   */\n      swap1\n      pop\n        /* \"#utility.yul\":23012:23111   */\n      swap2\n      swap1\n      pop\n      jump\t// out\n        /* \"#utility.yul\":23117:23285   */\n    tag_403:\n        /* \"#utility.yul\":23200:23211   */\n      0x00\n        /* \"#utility.yul\":23234:23240   */\n      dup3\n        /* \"#utility.yul\":23229:23232   */\n      dup3\n        /* \"#utility.yul\":23222:23241   */\n      mstore\n        /* \"#utility.yul\":23274:23278   */\n      0x20\n        /* \"#utility.yul\":23269:23272   */\n      dup3\n        /* \"#utility.yul\":23265:23279   */\n      add\n        /* \"#utility.yul\":23250:23279   */\n      swap1\n      pop\n        /* \"#utility.yul\":23117:23285   */\n      swap3\n      swap2\n      pop\n      pop\n      jump\t// out\n        /* \"#utility.yul\":23291:23460   */\n    tag_413:\n        /* \"#utility.yul\":23375:23386   */\n      0x00\n        /* \"#utility.yul\":23409:23415   */\n      dup3\n        /* \"#utility.yul\":23404:23407   */\n      dup3\n        /* \"#utility.yul\":23397:23416   */\n      mstore\n        /* \"#utility.yul\":23449:23453   */\n      0x20\n        /* \"#utility.yul\":23444:23447   */\n      dup3\n        /* \"#utility.yul\":23440:23454   */\n      add\n        /* \"#utility.yul\":23425:23454   */\n      swap1\n      pop\n        /* \"#utility.yul\":23291:23460   */\n      swap3\n      swap2\n      pop\n      pop\n      jump\t// out\n        /* \"#utility.yul\":23466:23771   */\n    tag_166:\n        /* \"#utility.yul\":23506:23509   */\n      0x00\n        /* \"#utility.yul\":23525:23545   */\n      tag_547\n        /* \"#utility.yul\":23543:23544   */\n      dup3\n        /* \"#utility.yul\":23525:23545   */\n      tag_484\n      jump\t// in\n    tag_547:\n        /* \"#utility.yul\":23520:23545   */\n      swap2\n      pop\n        /* \"#utility.yul\":23559:23579   */\n      tag_548\n        /* \"#utility.yul\":23577:23578   */\n      dup4\n        /* \"#utility.yul\":23559:23579   */\n      tag_484\n      jump\t// in\n    tag_548:\n        /* \"#utility.yul\":23554:23579   */\n      swap3\n      pop\n        /* \"#utility.yul\":23713:23714   */\n      dup3\n        /* \"#utility.yul\":23645:23711   */\n      0xffffffffffffffffffffffffffffffffffffffffffffffffffffffffffffffff\n        /* \"#utility.yul\":23641:23715   */\n      sub\n        /* \"#utility.yul\":23638:23639   */\n      dup3\n        /* \"#utility.yul\":23635:23716   */\n      gt\n        /* \"#utility.yul\":23632:23739   */\n      iszero\n      tag_549\n      jumpi\n        /* \"#utility.yul\":23719:23737   */\n      tag_550\n      tag_551\n      jump\t// in\n    tag_550:\n        /* \"#utility.yul\":23632:23739   */\n    tag_549:\n        /* \"#utility.yul\":23763:23764   */\n      dup3\n        /* \"#utility.yul\":23760:23761   */\n      dup3\n        /* \"#utility.yul\":23756:23765   */\n      add\n        /* \"#utility.yul\":23749:23765   */\n      swap1\n      pop\n        /* \"#utility.yul\":23466:23771   */\n      swap3\n      swap2\n      pop\n      pop\n      jump\t// out\n        /* \"#utility.yul\":23777:23968   */\n    tag_164:\n        /* \"#utility.yul\":23817:23821   */\n      0x00\n        /* \"#utility.yul\":23837:23857   */\n      tag_553\n        /* \"#utility.yul\":23855:23856   */\n      dup3\n        /* \"#utility.yul\":23837:23857   */\n      tag_484\n      jump\t// in\n    tag_553:\n        /* \"#utility.yul\":23832:23857   */\n      swap2\n      pop\n        /* \"#utility.yul\":23871:23891   */\n      tag_554\n        /* \"#utility.yul\":23889:23890   */\n      dup4\n        /* \"#utility.yul\":23871:23891   */\n      tag_484\n      jump\t// in\n    tag_554:\n        /* \"#utility.yul\":23866:23891   */\n      swap3\n      pop\n        /* \"#utility.yul\":23910:23911   */\n      dup3\n        /* \"#utility.yul\":23907:23908   */\n      dup3\n        /* \"#utility.yul\":23904:23912   */\n      lt\n        /* \"#utility.yul\":23901:23935   */\n      iszero\n      tag_555\n      jumpi\n        /* \"#utility.yul\":23915:23933   */\n      tag_556\n      tag_551\n      jump\t// in\n    tag_556:\n        /* \"#utility.yul\":23901:23935   */\n    tag_555:\n        /* \"#utility.yul\":23960:23961   */\n      dup3\n        /* \"#utility.yul\":23957:23958   */\n      dup3\n        /* \"#utility.yul\":23953:23962   */\n      sub\n        /* \"#utility.yul\":23945:23962   */\n      swap1\n      pop\n        /* \"#utility.yul\":23777:23968   */\n      swap3\n      swap2\n      pop\n      pop\n      jump\t// out\n        /* \"#utility.yul\":23974:24070   */\n    tag_393:\n        /* \"#utility.yul\":24011:24018   */\n      0x00\n        /* \"#utility.yul\":24040:24064   */\n      tag_558\n        /* \"#utility.yul\":24058:24063   */\n      dup3\n        /* \"#utility.yul\":24040:24064   */\n      tag_559\n      jump\t// in\n    tag_558:\n        /* \"#utility.yul\":24029:24064   */\n      swap1\n      pop\n        /* \"#utility.yul\":23974:24070   */\n      swap2\n      swap1\n      pop\n      jump\t// out\n        /* \"#utility.yul\":24076:24166   */\n    tag_397:\n        /* \"#utility.yul\":24110:24117   */\n      0x00\n        /* \"#utility.yul\":24153:24158   */\n      dup2\n        /* \"#utility.yul\":24146:24159   */\n      iszero\n        /* \"#utility.yul\":24139:24160   */\n      iszero\n        /* \"#utility.yul\":24128:24160   */\n      swap1\n      pop\n        /* \"#utility.yul\":24076:24166   */\n      swap2\n      swap1\n      pop\n      jump\t// out\n        /* \"#utility.yul\":24172:24321   */\n    tag_561:\n        /* \"#utility.yul\":24208:24215   */\n      0x00\n        /* \"#utility.yul\":24248:24314   */\n      0xffffffff00000000000000000000000000000000000000000000000000000000\n        /* \"#utility.yul\":24241:24246   */\n      dup3\n        /* \"#utility.yul\":24237:24315   */\n      and\n        /* \"#utility.yul\":24226:24315   */\n      swap1\n      pop\n        /* \"#utility.yul\":24172:24321   */\n      swap2\n      swap1\n      pop\n      jump\t// out\n        /* \"#utility.yul\":24327:24453   */\n    tag_559:\n        /* \"#utility.yul\":24364:24371   */\n      0x00\n        /* \"#utility.yul\":24404:24446   */\n      0xffffffffffffffffffffffffffffffffffffffff\n        /* \"#utility.yul\":24397:24402   */\n      dup3\n        /* \"#utility.yul\":24393:24447   */\n      and\n        /* \"#utility.yul\":24382:24447   */\n      swap1\n      pop\n        /* \"#utility.yul\":24327:24453   */\n      swap2\n      swap1\n      pop\n      jump\t// out\n        /* \"#utility.yul\":24459:24536   */\n    tag_484:\n        /* \"#utility.yul\":24496:24503   */\n      0x00\n        /* \"#utility.yul\":24525:24530   */\n      dup2\n        /* \"#utility.yul\":24514:24530   */\n      swap1\n      pop\n        /* \"#utility.yul\":24459:24536   */\n      swap2\n      swap1\n      pop\n      jump\t// out\n        /* \"#utility.yul\":24542:24696   */\n    tag_290:\n        /* \"#utility.yul\":24626:24632   */\n      dup3\n        /* \"#utility.yul\":24621:24624   */\n      dup2\n        /* \"#utility.yul\":24616:24619   */\n      dup4\n        /* \"#utility.yul\":24603:24633   */\n      calldatacopy\n        /* \"#utility.yul\":24688:24689   */\n      0x00\n        /* \"#utility.yul\":24679:24685   */\n      dup4\n        /* \"#utility.yul\":24674:24677   */\n      dup4\n        /* \"#utility.yul\":24670:24686   */\n      add\n        /* \"#utility.yul\":24663:24690   */\n      mstore\n        /* \"#utility.yul\":24542:24696   */\n      pop\n      pop\n      pop\n      jump\t// out\n        /* \"#utility.yul\":24702:25009   */\n    tag_405:\n        /* \"#utility.yul\":24770:24771   */\n      0x00\n        /* \"#utility.yul\":24780:24893   */\n    tag_567:\n        /* \"#utility.yul\":24794:24800   */\n      dup4\n        /* \"#utility.yul\":24791:24792   */\n      dup2\n        /* \"#utility.yul\":24788:24801   */\n      lt\n        /* \"#utility.yul\":24780:24893   */\n      iszero\n      tag_569\n      jumpi\n        /* \"#utility.yul\":24879:24880   */\n      dup1\n        /* \"#utility.yul\":24874:24877   */\n      dup3\n        /* \"#utility.yul\":24870:24881   */\n      add\n        /* \"#utility.yul\":24864:24882   */\n      mload\n        /* \"#utility.yul\":24860:24861   */\n      dup2\n        /* \"#utility.yul\":24855:24858   */\n      dup5\n        /* \"#utility.yul\":24851:24862   */\n      add\n        /* \"#utility.yul\":24844:24883   */\n      mstore\n        /* \"#utility.yul\":24816:24818   */\n      0x20\n        /* \"#utility.yul\":24813:24814   */\n      dup2\n        /* \"#utility.yul\":24809:24819   */\n      add\n        /* \"#utility.yul\":24804:24819   */\n      swap1\n      pop\n        /* \"#utility.yul\":24780:24893   */\n      jump(tag_567)\n    tag_569:\n        /* \"#utility.yul\":24911:24917   */\n      dup4\n        /* \"#utility.yul\":24908:24909   */\n      dup2\n        /* \"#utility.yul\":24905:24918   */\n      gt\n        /* \"#utility.yul\":24902:25003   */\n      iszero\n      tag_570\n      jumpi\n        /* \"#utility.yul\":24991:24992   */\n      0x00\n        /* \"#utility.yul\":24982:24988   */\n      dup5\n        /* \"#utility.yul\":24977:24980   */\n      dup5\n        /* \"#utility.yul\":24973:24989   */\n      add\n        /* \"#utility.yul\":24966:24993   */\n      mstore\n        /* \"#utility.yul\":24902:25003   */\n    tag_570:\n        /* \"#utility.yul\":24751:25009   */\n      pop\n        /* \"#utility.yul\":24702:25009   */\n      pop\n      pop\n      pop\n      jump\t// out\n        /* \"#utility.yul\":25015:25335   */\n    tag_107:\n        /* \"#utility.yul\":25059:25065   */\n      0x00\n        /* \"#utility.yul\":25096:25097   */\n      0x02\n        /* \"#utility.yul\":25090:25094   */\n      dup3\n        /* \"#utility.yul\":25086:25098   */\n      div\n        /* \"#utility.yul\":25076:25098   */\n      swap1\n      pop\n        /* \"#utility.yul\":25143:25144   */\n      0x01\n        /* \"#utility.yul\":25137:25141   */\n      dup3\n        /* \"#utility.yul\":25133:25145   */\n      and\n        /* \"#utility.yul\":25164:25182   */\n      dup1\n        /* \"#utility.yul\":25154:25235   */\n      tag_572\n      jumpi\n        /* \"#utility.yul\":25220:25224   */\n      0x7f\n        /* \"#utility.yul\":25212:25218   */\n      dup3\n        /* \"#utility.yul\":25208:25225   */\n      and\n        /* \"#utility.yul\":25198:25225   */\n      swap2\n      pop\n        /* \"#utility.yul\":25154:25235   */\n    tag_572:\n        /* \"#utility.yul\":25282:25284   */\n      0x20\n        /* \"#utility.yul\":25274:25280   */\n      dup3\n        /* \"#utility.yul\":25271:25285   */\n      lt\n        /* \"#utility.yul\":25251:25269   */\n      dup2\n        /* \"#utility.yul\":25248:25286   */\n      eq\n        /* \"#utility.yul\":25245:25329   */\n      iszero\n      tag_573\n      jumpi\n        /* \"#utility.yul\":25301:25319   */\n      tag_574\n      tag_575\n      jump\t// in\n    tag_574:\n        /* \"#utility.yul\":25245:25329   */\n    tag_573:\n        /* \"#utility.yul\":25066:25335   */\n      pop\n        /* \"#utility.yul\":25015:25335   */\n      swap2\n      swap1\n      pop\n      jump\t// out\n        /* \"#utility.yul\":25341:25622   */\n    tag_528:\n        /* \"#utility.yul\":25424:25451   */\n      tag_577\n        /* \"#utility.yul\":25446:25450   */\n      dup3\n        /* \"#utility.yul\":25424:25451   */\n      tag_407\n      jump\t// in\n    tag_577:\n        /* \"#utility.yul\":25416:25422   */\n      dup2\n        /* \"#utility.yul\":25412:25452   */\n      add\n        /* \"#utility.yul\":25554:25560   */\n      dup2\n        /* \"#utility.yul\":25542:25552   */\n      dup2\n        /* \"#utility.yul\":25539:25561   */\n      lt\n        /* \"#utility.yul\":25518:25536   */\n      0xffffffffffffffff\n        /* \"#utility.yul\":25506:25516   */\n      dup3\n        /* \"#utility.yul\":25503:25537   */\n      gt\n        /* \"#utility.yul\":25500:25562   */\n      or\n        /* \"#utility.yul\":25497:25585   */\n      iszero\n      tag_578\n      jumpi\n        /* \"#utility.yul\":25565:25583   */\n      tag_579\n      tag_533\n      jump\t// in\n    tag_579:\n        /* \"#utility.yul\":25497:25585   */\n    tag_578:\n        /* \"#utility.yul\":25605:25615   */\n      dup1\n        /* \"#utility.yul\":25601:25603   */\n      0x40\n        /* \"#utility.yul\":25594:25616   */\n      mstore\n        /* \"#utility.yul\":25384:25622   */\n      pop\n        /* \"#utility.yul\":25341:25622   */\n      pop\n      pop\n      jump\t// out\n        /* \"#utility.yul\":25628:25861   */\n    tag_141:\n        /* \"#utility.yul\":25667:25670   */\n      0x00\n        /* \"#utility.yul\":25690:25714   */\n      tag_581\n        /* \"#utility.yul\":25708:25713   */\n      dup3\n        /* \"#utility.yul\":25690:25714   */\n      tag_484\n      jump\t// in\n    tag_581:\n        /* \"#utility.yul\":25681:25714   */\n      swap2\n      pop\n        /* \"#utility.yul\":25736:25802   */\n      0xffffffffffffffffffffffffffffffffffffffffffffffffffffffffffffffff\n        /* \"#utility.yul\":25729:25734   */\n      dup3\n        /* \"#utility.yul\":25726:25803   */\n      eq\n        /* \"#utility.yul\":25723:25826   */\n      iszero\n      tag_582\n      jumpi\n        /* \"#utility.yul\":25806:25824   */\n      tag_583\n      tag_551\n      jump\t// in\n    tag_583:\n        /* \"#utility.yul\":25723:25826   */\n    tag_582:\n        /* \"#utility.yul\":25853:25854   */\n      0x01\n        /* \"#utility.yul\":25846:25851   */\n      dup3\n        /* \"#utility.yul\":25842:25855   */\n      add\n        /* \"#utility.yul\":25835:25855   */\n      swap1\n      pop\n        /* \"#utility.yul\":25628:25861   */\n      swap2\n      swap1\n      pop\n      jump\t// out\n        /* \"#utility.yul\":25867:26047   */\n    tag_551:\n        /* \"#utility.yul\":25915:25992   */\n      0x4e487b7100000000000000000000000000000000000000000000000000000000\n        /* \"#utility.yul\":25912:25913   */\n      0x00\n        /* \"#utility.yul\":25905:25993   */\n      mstore\n        /* \"#utility.yul\":26012:26016   */\n      0x11\n        /* \"#utility.yul\":26009:26010   */\n      0x04\n        /* \"#utility.yul\":26002:26017   */\n      mstore\n        /* \"#utility.yul\":26036:26040   */\n      0x24\n        /* \"#utility.yul\":26033:26034   */\n      0x00\n        /* \"#utility.yul\":26026:26041   */\n      revert\n        /* \"#utility.yul\":26053:26233   */\n    tag_575:\n        /* \"#utility.yul\":26101:26178   */\n      0x4e487b7100000000000000000000000000000000000000000000000000000000\n        /* \"#utility.yul\":26098:26099   */\n      0x00\n        /* \"#utility.yul\":26091:26179   */\n      mstore\n        /* \"#utility.yul\":26198:26202   */\n      0x22\n        /* \"#utility.yul\":26195:26196   */\n      0x04\n        /* \"#utility.yul\":26188:26203   */\n      mstore\n        /* \"#utility.yul\":26222:26226   */\n      0x24\n        /* \"#utility.yul\":26219:26220   */\n      0x00\n        /* \"#utility.yul\":26212:26227   */\n      revert\n        /* \"#utility.yul\":26239:26419   */\n    tag_138:\n        /* \"#utility.yul\":26287:26364   */\n      0x4e487b7100000000000000000000000000000000000000000000000000000000\n        /* \"#utility.yul\":26284:26285   */\n      0x00\n        /* \"#utility.yul\":26277:26365   */\n      mstore\n        /* \"#utility.yul\":26384:26388   */\n      0x32\n        /* \"#utility.yul\":26381:26382   */\n      0x04\n        /* \"#utility.yul\":26374:26389   */\n      mstore\n        /* \"#utility.yul\":26408:26412   */\n      0x24\n        /* \"#utility.yul\":26405:26406   */\n      0x00\n        /* \"#utility.yul\":26398:26413   */\n      revert\n        /* \"#utility.yul\":26425:26605   */\n    tag_533:\n        /* \"#utility.yul\":26473:26550   */\n      0x4e487b7100000000000000000000000000000000000000000000000000000000\n        /* \"#utility.yul\":26470:26471   */\n      0x00\n        /* \"#utility.yul\":26463:26551   */\n      mstore\n        /* \"#utility.yul\":26570:26574   */\n      0x41\n        /* \"#utility.yul\":26567:26568   */\n      0x04\n        /* \"#utility.yul\":26560:26575   */\n      mstore\n        /* \"#utility.yul\":26594:26598   */\n      0x24\n        /* \"#utility.yul\":26591:26592   */\n      0x00\n        /* \"#utility.yul\":26584:26599   */\n      revert\n        /* \"#utility.yul\":26611:26794   */\n    tag_246:\n        /* \"#utility.yul\":26646:26649   */\n      0x00\n        /* \"#utility.yul\":26684:26685   */\n      0x03\n        /* \"#utility.yul\":26666:26682   */\n      returndatasize\n        /* \"#utility.yul\":26663:26686   */\n      gt\n        /* \"#utility.yul\":26660:26788   */\n      iszero\n      tag_589\n      jumpi\n        /* \"#utility.yul\":26722:26723   */\n      0x04\n        /* \"#utility.yul\":26719:26720   */\n      0x00\n        /* \"#utility.yul\":26716:26717   */\n      dup1\n        /* \"#utility.yul\":26701:26724   */\n      returndatacopy\n        /* \"#utility.yul\":26744:26778   */\n      tag_590\n        /* \"#utility.yul\":26775:26776   */\n      0x00\n        /* \"#utility.yul\":26769:26777   */\n      mload\n        /* \"#utility.yul\":26744:26778   */\n      tag_591\n      jump\t// in\n    tag_590:\n        /* \"#utility.yul\":26737:26778   */\n      swap1\n      pop\n        /* \"#utility.yul\":26660:26788   */\n    tag_589:\n        /* \"#utility.yul\":26611:26794   */\n      swap1\n      jump\t// out\n        /* \"#utility.yul\":26800:26917   */\n    tag_307:\n        /* \"#utility.yul\":26909:26910   */\n      0x00\n        /* \"#utility.yul\":26906:26907   */\n      dup1\n        /* \"#utility.yul\":26899:26911   */\n      revert\n        /* \"#utility.yul\":26923:27040   */\n    tag_275:\n        /* \"#utility.yul\":27032:27033   */\n      0x00\n        /* \"#utility.yul\":27029:27030   */\n      dup1\n        /* \"#utility.yul\":27022:27034   */\n      revert\n        /* \"#utility.yul\":27046:27163   */\n    tag_288:\n        /* \"#utility.yul\":27155:27156   */\n      0x00\n        /* \"#utility.yul\":27152:27153   */\n      dup1\n        /* \"#utility.yul\":27145:27157   */\n      revert\n        /* \"#utility.yul\":27169:27286   */\n    tag_357:\n        /* \"#utility.yul\":27278:27279   */\n      0x00\n        /* \"#utility.yul\":27275:27276   */\n      dup1\n        /* \"#utility.yul\":27268:27280   */\n      revert\n        /* \"#utility.yul\":27292:27409   */\n    tag_336:\n        /* \"#utility.yul\":27401:27402   */\n      0x00\n        /* \"#utility.yul\":27398:27399   */\n      dup1\n        /* \"#utility.yul\":27391:27403   */\n      revert\n        /* \"#utility.yul\":27415:27517   */\n    tag_407:\n        /* \"#utility.yul\":27456:27462   */\n      0x00\n        /* \"#utility.yul\":27507:27509   */\n      0x1f\n        /* \"#utility.yul\":27503:27510   */\n      not\n        /* \"#utility.yul\":27498:27500   */\n      0x1f\n        /* \"#utility.yul\":27491:27496   */\n      dup4\n        /* \"#utility.yul\":27487:27501   */\n      add\n        /* \"#utility.yul\":27483:27511   */\n      and\n        /* \"#utility.yul\":27473:27511   */\n      swap1\n      pop\n        /* \"#utility.yul\":27415:27517   */\n      swap2\n      swap1\n      pop\n      jump\t// out\n        /* \"#utility.yul\":27523:27629   */\n    tag_591:\n        /* \"#utility.yul\":27567:27575   */\n      0x00\n        /* \"#utility.yul\":27616:27621   */\n      dup2\n        /* \"#utility.yul\":27611:27614   */\n      0xe0\n        /* \"#utility.yul\":27607:27622   */\n      shr\n        /* \"#utility.yul\":27586:27622   */\n      swap1\n      pop\n        /* \"#utility.yul\":27523:27629   */\n      swap2\n      swap1\n      pop\n      jump\t// out\n        /* \"#utility.yul\":27635:27811   */\n    tag_420:\n        /* \"#utility.yul\":27775:27803   */\n      0x7472616e736665722066726f6d207a65726f2061646472657373000000000000\n        /* \"#utility.yul\":27771:27772   */\n      0x00\n        /* \"#utility.yul\":27763:27769   */\n      dup3\n        /* \"#utility.yul\":27759:27773   */\n      add\n        /* \"#utility.yul\":27752:27804   */\n      mstore\n        /* \"#utility.yul\":27635:27811   */\n      pop\n      jump\t// out\n        /* \"#utility.yul\":27817:27998   */\n    tag_425:\n        /* \"#utility.yul\":27957:27990   */\n      0x63616c6c6572206973206e6f74206f776e6572206f7220617070726f76616c00\n        /* \"#utility.yul\":27953:27954   */\n      0x00\n        /* \"#utility.yul\":27945:27951   */\n      dup3\n        /* \"#utility.yul\":27941:27955   */\n      add\n        /* \"#utility.yul\":27934:27991   */\n      mstore\n        /* \"#utility.yul\":27817:27998   */\n      pop\n      jump\t// out\n        /* \"#utility.yul\":28004:28175   */\n    tag_430:\n        /* \"#utility.yul\":28144:28167   */\n      0x6f776e6572206973207a65726f20616464726573730000000000000000000000\n        /* \"#utility.yul\":28140:28141   */\n      0x00\n        /* \"#utility.yul\":28132:28138   */\n      dup3\n        /* \"#utility.yul\":28128:28142   */\n      add\n        /* \"#utility.yul\":28121:28168   */\n      mstore\n        /* \"#utility.yul\":28004:28175   */\n      pop\n      jump\t// out\n        /* \"#utility.yul\":28181:28351   */\n    tag_435:\n        /* \"#utility.yul\":28321:28343   */\n      0x6d696e7420746f207a65726f2061646472657373000000000000000000000000\n        /* \"#utility.yul\":28317:28318   */\n      0x00\n        /* \"#utility.yul\":28309:28315   */\n      dup3\n        /* \"#utility.yul\":28305:28319   */\n      add\n        /* \"#utility.yul\":28298:28344   */\n      mstore\n        /* \"#utility.yul\":28181:28351   */\n      pop\n      jump\t// out\n        /* \"#utility.yul\":28357:28586   */\n    tag_440:\n        /* \"#utility.yul\":28497:28531   */\n      0x7472616e7366657220746f206e6f6e2045524337323152656365697665722069\n        /* \"#utility.yul\":28493:28494   */\n      0x00\n        /* \"#utility.yul\":28485:28491   */\n      dup3\n        /* \"#utility.yul\":28481:28495   */\n      add\n        /* \"#utility.yul\":28474:28532   */\n      mstore\n        /* \"#utility.yul\":28566:28578   */\n      0x6d706c656d656e74657200000000000000000000000000000000000000000000\n        /* \"#utility.yul\":28561:28563   */\n      0x20\n        /* \"#utility.yul\":28553:28559   */\n      dup3\n        /* \"#utility.yul\":28549:28564   */\n      add\n        /* \"#utility.yul\":28542:28579   */\n      mstore\n        /* \"#utility.yul\":28357:28586   */\n      pop\n      jump\t// out\n        /* \"#utility.yul\":28592:28824   */\n    tag_445:\n        /* \"#utility.yul\":28732:28766   */\n      0x63616c6c6572206973206e6f7420746f6b656e206f776e6572206f7220617070\n        /* \"#utility.yul\":28728:28729   */\n      0x00\n        /* \"#utility.yul\":28720:28726   */\n      dup3\n        /* \"#utility.yul\":28716:28730   */\n      add\n        /* \"#utility.yul\":28709:28767   */\n      mstore\n        /* \"#utility.yul\":28801:28816   */\n      0x726f76616c20666f7220616c6c00000000000000000000000000000000000000\n        /* \"#utility.yul\":28796:28798   */\n      0x20\n        /* \"#utility.yul\":28788:28794   */\n      dup3\n        /* \"#utility.yul\":28784:28799   */\n      add\n        /* \"#utility.yul\":28777:28817   */\n      mstore\n        /* \"#utility.yul\":28592:28824   */\n      pop\n      jump\t// out\n        /* \"#utility.yul\":28830:29004   */\n    tag_450:\n        /* \"#utility.yul\":28970:28996   */\n      0x7472616e7366657220746f207a65726f20616464726573730000000000000000\n        /* \"#utility.yul\":28966:28967   */\n      0x00\n        /* \"#utility.yul\":28958:28964   */\n      dup3\n        /* \"#utility.yul\":28954:28968   */\n      add\n        /* \"#utility.yul\":28947:28997   */\n      mstore\n        /* \"#utility.yul\":28830:29004   */\n      pop\n      jump\t// out\n        /* \"#utility.yul\":29010:29173   */\n    tag_455:\n        /* \"#utility.yul\":29150:29165   */\n      0x556e617574686f72697a65642e00000000000000000000000000000000000000\n        /* \"#utility.yul\":29146:29147   */\n      0x00\n        /* \"#utility.yul\":29138:29144   */\n      dup3\n        /* \"#utility.yul\":29134:29148   */\n      add\n        /* \"#utility.yul\":29127:29166   */\n      mstore\n        /* \"#utility.yul\":29010:29173   */\n      pop\n      jump\t// out\n        /* \"#utility.yul\":29179:29361   */\n    tag_460:\n        /* \"#utility.yul\":29319:29353   */\n      0x7472616e736665722066726f6d206973206e6f7420746f6b656e206f776e6572\n        /* \"#utility.yul\":29315:29316   */\n      0x00\n        /* \"#utility.yul\":29307:29313   */\n      dup3\n        /* \"#utility.yul\":29303:29317   */\n      add\n        /* \"#utility.yul\":29296:29354   */\n      mstore\n        /* \"#utility.yul\":29179:29361   */\n      pop\n      jump\t// out\n        /* \"#utility.yul\":29367:29541   */\n    tag_465:\n        /* \"#utility.yul\":29507:29533   */\n      0x617070726f76616c2073746174757320666f722073656c660000000000000000\n        /* \"#utility.yul\":29503:29504   */\n      0x00\n        /* \"#utility.yul\":29495:29501   */\n      dup3\n        /* \"#utility.yul\":29491:29505   */\n      add\n        /* \"#utility.yul\":29484:29534   */\n      mstore\n        /* \"#utility.yul\":29367:29541   */\n      pop\n      jump\t// out\n        /* \"#utility.yul\":29547:29717   */\n    tag_470:\n        /* \"#utility.yul\":29687:29709   */\n      0x746f6b656e20616c7265616479206d696e746564000000000000000000000000\n        /* \"#utility.yul\":29683:29684   */\n      0x00\n        /* \"#utility.yul\":29675:29681   */\n      dup3\n        /* \"#utility.yul\":29671:29685   */\n      add\n        /* \"#utility.yul\":29664:29710   */\n      mstore\n        /* \"#utility.yul\":29547:29717   */\n      pop\n      jump\t// out\n        /* \"#utility.yul\":29723:29892   */\n    tag_475:\n        /* \"#utility.yul\":29863:29884   */\n      0x746f6b656e206973206e6f742065786973747300000000000000000000000000\n        /* \"#utility.yul\":29859:29860   */\n      0x00\n        /* \"#utility.yul\":29851:29857   */\n      dup3\n        /* \"#utility.yul\":29847:29861   */\n      add\n        /* \"#utility.yul\":29840:29885   */\n      mstore\n        /* \"#utility.yul\":29723:29892   */\n      pop\n      jump\t// out\n        /* \"#utility.yul\":29898:30067   */\n    tag_480:\n        /* \"#utility.yul\":30038:30059   */\n      0x696e646578206f7574206f6620626f756e647300000000000000000000000000\n        /* \"#utility.yul\":30034:30035   */\n      0x00\n        /* \"#utility.yul\":30026:30032   */\n      dup3\n        /* \"#utility.yul\":30022:30036   */\n      add\n        /* \"#utility.yul\":30015:30060   */\n      mstore\n        /* \"#utility.yul\":29898:30067   */\n      pop\n      jump\t// out\n        /* \"#utility.yul\":30073:30784   */\n    tag_248:\n        /* \"#utility.yul\":30112:30115   */\n      0x00\n        /* \"#utility.yul\":30150:30154   */\n      0x44\n        /* \"#utility.yul\":30132:30148   */\n      returndatasize\n        /* \"#utility.yul\":30129:30155   */\n      lt\n        /* \"#utility.yul\":30126:30165   */\n      iszero\n      tag_613\n      jumpi\n        /* \"#utility.yul\":30158:30163   */\n      jump(tag_612)\n        /* \"#utility.yul\":30126:30165   */\n    tag_613:\n        /* \"#utility.yul\":30187:30207   */\n      tag_614\n      tag_526\n      jump\t// in\n    tag_614:\n        /* \"#utility.yul\":30262:30263   */\n      0x04\n        /* \"#utility.yul\":30244:30260   */\n      returndatasize\n        /* \"#utility.yul\":30240:30264   */\n      sub\n        /* \"#utility.yul\":30237:30238   */\n      0x04\n        /* \"#utility.yul\":30231:30235   */\n      dup3\n        /* \"#utility.yul\":30216:30265   */\n      returndatacopy\n        /* \"#utility.yul\":30295:30299   */\n      dup1\n        /* \"#utility.yul\":30289:30300   */\n      mload\n        /* \"#utility.yul\":30394:30410   */\n      returndatasize\n        /* \"#utility.yul\":30387:30391   */\n      0x24\n        /* \"#utility.yul\":30379:30385   */\n      dup3\n        /* \"#utility.yul\":30375:30392   */\n      add\n        /* \"#utility.yul\":30372:30411   */\n      gt\n        /* \"#utility.yul\":30339:30357   */\n      0xffffffffffffffff\n        /* \"#utility.yul\":30331:30337   */\n      dup3\n        /* \"#utility.yul\":30328:30358   */\n      gt\n        /* \"#utility.yul\":30312:30425   */\n      or\n        /* \"#utility.yul\":30309:30455   */\n      iszero\n      tag_615\n      jumpi\n        /* \"#utility.yul\":30440:30445   */\n      pop\n      pop\n      jump(tag_612)\n        /* \"#utility.yul\":30309:30455   */\n    tag_615:\n        /* \"#utility.yul\":30486:30492   */\n      dup1\n        /* \"#utility.yul\":30480:30484   */\n      dup3\n        /* \"#utility.yul\":30476:30493   */\n      add\n        /* \"#utility.yul\":30522:30525   */\n      dup1\n        /* \"#utility.yul\":30516:30526   */\n      mload\n        /* \"#utility.yul\":30549:30567   */\n      0xffffffffffffffff\n        /* \"#utility.yul\":30541:30547   */\n      dup2\n        /* \"#utility.yul\":30538:30568   */\n      gt\n        /* \"#utility.yul\":30535:30578   */\n      iszero\n      tag_616\n      jumpi\n        /* \"#utility.yul\":30571:30576   */\n      pop\n      pop\n      pop\n      pop\n      jump(tag_612)\n        /* \"#utility.yul\":30535:30578   */\n    tag_616:\n        /* \"#utility.yul\":30619:30625   */\n      dup1\n        /* \"#utility.yul\":30612:30616   */\n      0x20\n        /* \"#utility.yul\":30607:30610   */\n      dup4\n        /* \"#utility.yul\":30603:30617   */\n      add\n        /* \"#utility.yul\":30599:30626   */\n      add\n        /* \"#utility.yul\":30678:30679   */\n      0x04\n        /* \"#utility.yul\":30660:30676   */\n      returndatasize\n        /* \"#utility.yul\":30656:30680   */\n      sub\n        /* \"#utility.yul\":30650:30654   */\n      dup6\n        /* \"#utility.yul\":30646:30681   */\n      add\n        /* \"#utility.yul\":30641:30644   */\n      dup2\n        /* \"#utility.yul\":30638:30682   */\n      gt\n        /* \"#utility.yul\":30635:30692   */\n      iszero\n      tag_617\n      jumpi\n        /* \"#utility.yul\":30685:30690   */\n      pop\n      pop\n      pop\n      pop\n      pop\n      jump(tag_612)\n        /* \"#utility.yul\":30635:30692   */\n    tag_617:\n        /* \"#utility.yul\":30702:30759   */\n      tag_618\n        /* \"#utility.yul\":30750:30756   */\n      dup3\n        /* \"#utility.yul\":30744:30748   */\n      0x20\n        /* \"#utility.yul\":30740:30757   */\n      add\n        /* \"#utility.yul\":30732:30738   */\n      dup6\n        /* \"#utility.yul\":30728:30758   */\n      add\n        /* \"#utility.yul\":30722:30726   */\n      dup7\n        /* \"#utility.yul\":30702:30759   */\n      tag_528\n      jump\t// in\n    tag_618:\n        /* \"#utility.yul\":30775:30778   */\n      dup3\n        /* \"#utility.yul\":30768:30778   */\n      swap6\n      pop\n        /* \"#utility.yul\":30116:30784   */\n      pop\n      pop\n      pop\n      pop\n      pop\n        /* \"#utility.yul\":30073:30784   */\n    tag_612:\n      swap1\n      jump\t// out\n        /* \"#utility.yul\":30790:30912   */\n    tag_302:\n        /* \"#utility.yul\":30863:30887   */\n      tag_620\n        /* \"#utility.yul\":30881:30886   */\n      dup2\n        /* \"#utility.yul\":30863:30887   */\n      tag_393\n      jump\t// in\n    tag_620:\n        /* \"#utility.yul\":30856:30861   */\n      dup2\n        /* \"#utility.yul\":30853:30888   */\n      eq\n        /* \"#utility.yul\":30843:30906   */\n      tag_621\n      jumpi\n        /* \"#utility.yul\":30902:30903   */\n      0x00\n        /* \"#utility.yul\":30899:30900   */\n      dup1\n        /* \"#utility.yul\":30892:30904   */\n      revert\n        /* \"#utility.yul\":30843:30906   */\n    tag_621:\n        /* \"#utility.yul\":30790:30912   */\n      pop\n      jump\t// out\n        /* \"#utility.yul\":30918:31034   */\n    tag_312:\n        /* \"#utility.yul\":30988:31009   */\n      tag_623\n        /* \"#utility.yul\":31003:31008   */\n      dup2\n        /* \"#utility.yul\":30988:31009   */\n      tag_397\n      jump\t// in\n    tag_623:\n        /* \"#utility.yul\":30981:30986   */\n      dup2\n        /* \"#utility.yul\":30978:31010   */\n      eq\n        /* \"#utility.yul\":30968:31028   */\n      tag_624\n      jumpi\n        /* \"#utility.yul\":31024:31025   */\n      0x00\n        /* \"#utility.yul\":31021:31022   */\n      dup1\n        /* \"#utility.yul\":31014:31026   */\n      revert\n        /* \"#utility.yul\":30968:31028   */\n    tag_624:\n        /* \"#utility.yul\":30918:31034   */\n      pop\n      jump\t// out\n        /* \"#utility.yul\":31040:31160   */\n    tag_316:\n        /* \"#utility.yul\":31112:31135   */\n      tag_626\n        /* \"#utility.yul\":31129:31134   */\n      dup2\n        /* \"#utility.yul\":31112:31135   */\n      tag_561\n      jump\t// in\n    tag_626:\n        /* \"#utility.yul\":31105:31110   */\n      dup2\n        /* \"#utility.yul\":31102:31136   */\n      eq\n        /* \"#utility.yul\":31092:31154   */\n      tag_627\n      jumpi\n        /* \"#utility.yul\":31150:31151   */\n      0x00\n        /* \"#utility.yul\":31147:31148   */\n      dup1\n        /* \"#utility.yul\":31140:31152   */\n      revert\n        /* \"#utility.yul\":31092:31154   */\n    tag_627:\n        /* \"#utility.yul\":31040:31160   */\n      pop\n      jump\t// out\n        /* \"#utility.yul\":31166:31288   */\n    tag_332:\n        /* \"#utility.yul\":31239:31263   */\n      tag_629\n        /* \"#utility.yul\":31257:31262   */\n      dup2\n        /* \"#utility.yul\":31239:31263   */\n      tag_484\n      jump\t// in\n    tag_629:\n        /* \"#utility.yul\":31232:31237   */\n      dup2\n        /* \"#utility.yul\":31229:31264   */\n      eq\n        /* \"#utility.yul\":31219:31282   */\n      tag_630\n      jumpi\n        /* \"#utility.yul\":31278:31279   */\n      0x00\n        /* \"#utility.yul\":31275:31276   */\n      dup1\n        /* \"#utility.yul\":31268:31280   */\n      revert\n        /* \"#utility.yul\":31219:31282   */\n    tag_630:\n        /* \"#utility.yul\":31166:31288   */\n      pop\n      jump\t// out\n\n    auxdata: 0xa26469706673582212206b6595e20b3fac9f0c1ad72740be2527b30d9f6b4dd82b044a95aea21817f3fb64736f6c63430008070033\n}\n",
				"bytecode": {
					"linkReferences": {},
					"object": "60806040523480156200001157600080fd5b506040518060400160405280601081526020017f4d585220436f6c6c65637469626c6573000000000000000000000000000000008152506040518060400160405280600481526020017f4d58525400000000000000000000000000000000000000000000000000000000815250816004908051906020019062000096929190620000f9565b508060059080519060200190620000af929190620000f9565b50505033600b60006101000a81548173ffffffffffffffffffffffffffffffffffffffff021916908373ffffffffffffffffffffffffffffffffffffffff1602179055506200020e565b8280546200010790620001a9565b90600052602060002090601f0160209004810192826200012b576000855562000177565b82601f106200014657805160ff191683800117855562000177565b8280016001018555821562000177579182015b828111156200017657825182559160200191906001019062000159565b5b5090506200018691906200018a565b5090565b5b80821115620001a55760008160009055506001016200018b565b5090565b60006002820490506001821680620001c257607f821691505b60208210811415620001d957620001d8620001df565b5b50919050565b7f4e487b7100000000000000000000000000000000000000000000000000000000600052602260045260246000fd5b612c50806200021e6000396000f3fe608060405234801561001057600080fd5b50600436106101165760003560e01c806342842e0e116100a257806395d89b411161007157806395d89b4114610317578063a22cb46514610335578063b88d4fde14610351578063c87b56dd1461036d578063e985e9c51461039d57610116565b806342842e0e1461026b5780634f6ccce7146102875780636352211e146102b757806370a08231146102e757610116565b80630d060309116100e95780630d060309146101b55780630e89341c146101d157806318160ddd1461020157806323b872dd1461021f5780632f745c591461023b57610116565b806301ffc9a71461011b57806306fdde031461014b578063081812fc14610169578063095ea7b314610199575b600080fd5b61013560048036038101906101309190611f8f565b6103cd565b60405161014291906122e3565b60405180910390f35b6101536105d7565b60405161016091906122fe565b60405180910390f35b610183600480360381019061017e9190611fe9565b610669565b604051610190919061227c565b60405180910390f35b6101b360048036038101906101ae9190611ed7565b610748565b005b6101cf60048036038101906101ca9190611f17565b610852565b005b6101eb60048036038101906101e69190611fe9565b61092b565b6040516101f891906122fe565b60405180910390f35b61020961093d565b60405161021691906124c0565b60405180910390f35b61023960048036038101906102349190611dc1565b61094a565b005b61025560048036038101906102509190611ed7565b610cd5565b60405161026291906124c0565b60405180910390f35b61028560048036038101906102809190611dc1565b610db0565b005b6102a1600480360381019061029c9190611fe9565b610dd0565b6040516102ae91906124c0565b60405180910390f35b6102d160048036038101906102cc9190611fe9565b610e3f565b6040516102de919061227c565b60405180910390f35b61030160048036038101906102fc9190611d54565b610ef1565b60405161030e91906124c0565b60405180910390f35b61031f610fa8565b60405161032c91906122fe565b60405180910390f35b61034f600480360381019061034a9190611e97565b61103a565b005b61036b60048036038101906103669190611e14565b6111a6565b005b61038760048036038101906103829190611fe9565b611202565b60405161039491906122fe565b60405180910390f35b6103b760048036038101906103b29190611d81565b6112a7565b6040516103c491906122e3565b60405180910390f35b60007f01ffc9a7000000000000000000000000000000000000000000000000000000007bffffffffffffffffffffffffffffffffffffffffffffffffffffffff1916827bffffffffffffffffffffffffffffffffffffffffffffffffffffffff1916148061049857507f80ac58cd000000000000000000000000000000000000000000000000000000007bffffffffffffffffffffffffffffffffffffffffffffffffffffffff1916827bffffffffffffffffffffffffffffffffffffffffffffffffffffffff1916145b8061050057507f5b5e139f000000000000000000000000000000000000000000000000000000007bffffffffffffffffffffffffffffffffffffffffffffffffffffffff1916827bffffffffffffffffffffffffffffffffffffffffffffffffffffffff1916145b8061056857507f0e89341c000000000000000000000000000000000000000000000000000000007bffffffffffffffffffffffffffffffffffffffffffffffffffffffff1916827bffffffffffffffffffffffffffffffffffffffffffffffffffffffff1916145b806105d057507f780e9d63000000000000000000000000000000000000000000000000000000007bffffffffffffffffffffffffffffffffffffffffffffffffffffffff1916827bffffffffffffffffffffffffffffffffffffffffffffffffffffffff1916145b9050919050565b6060600480546105e690612706565b80601f016020809104026020016040519081016040528092919081815260200182805461061290612706565b801561065f5780601f106106345761010080835404028352916020019161065f565b820191906000526020600020905b81548152906001019060200180831161064257829003601f168201915b5050505050905090565b60008073ffffffffffffffffffffffffffffffffffffffff166001600084815260200190815260200160002060009054906101000a900473ffffffffffffffffffffffffffffffffffffffff1673ffffffffffffffffffffffffffffffffffffffff16141561070d576040517f08c379a000000000000000000000000000000000000000000000000000000000815260040161070490612480565b60405180910390fd5b6003600083815260200190815260200160002060009054906101000a900473ffffffffffffffffffffffffffffffffffffffff169050919050565b600061075382610e3f565b90508073ffffffffffffffffffffffffffffffffffffffff168373ffffffffffffffffffffffffffffffffffffffff1614156107c4576040517f08c379a00000000000000000000000000000000000000000000000000000000081526004016107bb90612440565b60405180910390fd5b8073ffffffffffffffffffffffffffffffffffffffff163373ffffffffffffffffffffffffffffffffffffffff161480610804575061080381336112a7565b5b610843576040517f08c379a000000000000000000000000000000000000000000000000000000000815260040161083a906123c0565b60405180910390fd5b61084d838361133b565b505050565b600b60009054906101000a900473ffffffffffffffffffffffffffffffffffffffff1673ffffffffffffffffffffffffffffffffffffffff163373ffffffffffffffffffffffffffffffffffffffff16146108e2576040517f08c379a00000000000000000000000000000000000000000000000000000000081526004016108d990612400565b60405180910390fd5b60005b8251811015610926576109133384838151811061090557610904612810565b5b6020026020010151846113fa565b808061091e90612769565b9150506108e5565b505050565b606061093682611202565b9050919050565b6000600980549050905090565b600073ffffffffffffffffffffffffffffffffffffffff168373ffffffffffffffffffffffffffffffffffffffff1614156109ba576040517f08c379a00000000000000000000000000000000000000000000000000000000081526004016109b190612320565b60405180910390fd5b600073ffffffffffffffffffffffffffffffffffffffff168273ffffffffffffffffffffffffffffffffffffffff161415610a2a576040517f08c379a0000000000000000000000000000000000000000000000000000000008152600401610a21906123e0565b60405180910390fd5b6000610a3582610e3f565b90508373ffffffffffffffffffffffffffffffffffffffff168173ffffffffffffffffffffffffffffffffffffffff1614610aa5576040517f08c379a0000000000000000000000000000000000000000000000000000000008152600401610a9c90612420565b60405180910390fd5b8073ffffffffffffffffffffffffffffffffffffffff163373ffffffffffffffffffffffffffffffffffffffff161480610b125750610ae382610669565b73ffffffffffffffffffffffffffffffffffffffff163373ffffffffffffffffffffffffffffffffffffffff16145b80610b235750610b2281336112a7565b5b610b62576040517f08c379a0000000000000000000000000000000000000000000000000000000008152600401610b5990612340565b60405180910390fd5b60016000808673ffffffffffffffffffffffffffffffffffffffff1673ffffffffffffffffffffffffffffffffffffffff1681526020019081526020016000206000828254610bb1919061261c565b9250508190555060016000808573ffffffffffffffffffffffffffffffffffffffff1673ffffffffffffffffffffffffffffffffffffffff1681526020019081526020016000206000828254610c0791906125c6565b92505081905550826001600084815260200190815260200160002060006101000a81548173ffffffffffffffffffffffffffffffffffffffff021916908373ffffffffffffffffffffffffffffffffffffffff160217905550818373ffffffffffffffffffffffffffffffffffffffff168573ffffffffffffffffffffffffffffffffffffffff167fddf252ad1be2c89b69c2b068fc378daa952ba7f163c4a11628f55a4df523b3ef60405160405180910390a4610cc58483611650565b610ccf83836117e8565b50505050565b60008060008473ffffffffffffffffffffffffffffffffffffffff1673ffffffffffffffffffffffffffffffffffffffff168152602001908152602001600020548210610d57576040517f08c379a0000000000000000000000000000000000000000000000000000000008152600401610d4e906124a0565b60405180910390fd5b600760008473ffffffffffffffffffffffffffffffffffffffff1673ffffffffffffffffffffffffffffffffffffffff168152602001908152602001600020600083815260200190815260200160002054905092915050565b610dcb838383604051806020016040528060008152506111a6565b505050565b60006009805490508210610e19576040517f08c379a0000000000000000000000000000000000000000000000000000000008152600401610e10906124a0565b60405180910390fd5b60098281548110610e2d57610e2c612810565b5b90600052602060002001549050919050565b6000806001600084815260200190815260200160002060009054906101000a900473ffffffffffffffffffffffffffffffffffffffff169050600073ffffffffffffffffffffffffffffffffffffffff168173ffffffffffffffffffffffffffffffffffffffff161415610ee8576040517f08c379a0000000000000000000000000000000000000000000000000000000008152600401610edf90612480565b60405180910390fd5b80915050919050565b60008073ffffffffffffffffffffffffffffffffffffffff168273ffffffffffffffffffffffffffffffffffffffff161415610f62576040517f08c379a0000000000000000000000000000000000000000000000000000000008152600401610f5990612360565b60405180910390fd5b6000808373ffffffffffffffffffffffffffffffffffffffff1673ffffffffffffffffffffffffffffffffffffffff168152602001908152602001600020549050919050565b606060058054610fb790612706565b80601f0160208091040260200160405190810160405280929190818152602001828054610fe390612706565b80156110305780601f1061100557610100808354040283529160200191611030565b820191906000526020600020905b81548152906001019060200180831161101357829003601f168201915b5050505050905090565b8173ffffffffffffffffffffffffffffffffffffffff163373ffffffffffffffffffffffffffffffffffffffff1614156110a9576040517f08c379a00000000000000000000000000000000000000000000000000000000081526004016110a090612440565b60405180910390fd5b80600260003373ffffffffffffffffffffffffffffffffffffffff1673ffffffffffffffffffffffffffffffffffffffff16815260200190815260200160002060008473ffffffffffffffffffffffffffffffffffffffff1673ffffffffffffffffffffffffffffffffffffffff16815260200190815260200160002060006101000a81548160ff0219169083151502179055508173ffffffffffffffffffffffffffffffffffffffff163373ffffffffffffffffffffffffffffffffffffffff167f17307eab39ab6107e8899845ad3d59bd9653f200f220920489ca2b5937696c318360405161119a91906122e3565b60405180910390a35050565b6111b184848461094a565b6111bd848484846118a9565b6111fc576040517f08c379a00000000000000000000000000000000000000000000000000000000081526004016111f3906123a0565b60405180910390fd5b50505050565b606060066000838152602001908152602001600020805461122290612706565b80601f016020809104026020016040519081016040528092919081815260200182805461124e90612706565b801561129b5780601f106112705761010080835404028352916020019161129b565b820191906000526020600020905b81548152906001019060200180831161127e57829003601f168201915b50505050509050919050565b6000600260008473ffffffffffffffffffffffffffffffffffffffff1673ffffffffffffffffffffffffffffffffffffffff16815260200190815260200160002060008373ffffffffffffffffffffffffffffffffffffffff1673ffffffffffffffffffffffffffffffffffffffff16815260200190815260200160002060009054906101000a900460ff16905092915050565b816003600083815260200190815260200160002060006101000a81548173ffffffffffffffffffffffffffffffffffffffff021916908373ffffffffffffffffffffffffffffffffffffffff160217905550600061139882610e3f565b9050818373ffffffffffffffffffffffffffffffffffffffff168273ffffffffffffffffffffffffffffffffffffffff167f8c5be1e5ebec7d5bd14f71427d1e84f3dd0314c0f7b2291e5b200ac8c7c3b92560405160405180910390a4505050565b600073ffffffffffffffffffffffffffffffffffffffff168373ffffffffffffffffffffffffffffffffffffffff16141561146a576040517f08c379a000000000000000000000000000000000000000000000000000000000815260040161146190612380565b60405180910390fd5b600073ffffffffffffffffffffffffffffffffffffffff166001600084815260200190815260200160002060009054906101000a900473ffffffffffffffffffffffffffffffffffffffff1673ffffffffffffffffffffffffffffffffffffffff161461150c576040517f08c379a000000000000000000000000000000000000000000000000000000000815260040161150390612460565b60405180910390fd5b60016000808573ffffffffffffffffffffffffffffffffffffffff1673ffffffffffffffffffffffffffffffffffffffff168152602001908152602001600020600082825461155b91906125c6565b92505081905550826001600084815260200190815260200160002060006101000a81548173ffffffffffffffffffffffffffffffffffffffff021916908373ffffffffffffffffffffffffffffffffffffffff160217905550806006600084815260200190815260200160002090805190602001906115db929190611aca565b50818373ffffffffffffffffffffffffffffffffffffffff16600073ffffffffffffffffffffffffffffffffffffffff167fddf252ad1be2c89b69c2b068fc378daa952ba7f163c4a11628f55a4df523b3ef60405160405180910390a461164182611a75565b61164b83836117e8565b505050565b60006008600083815260200190815260200160002054905060008060008573ffffffffffffffffffffffffffffffffffffffff1673ffffffffffffffffffffffffffffffffffffffff16815260200190815260200160002054905080821015611777576000600760008673ffffffffffffffffffffffffffffffffffffffff1673ffffffffffffffffffffffffffffffffffffffff168152602001908152602001600020600083815260200190815260200160002054905080600760008773ffffffffffffffffffffffffffffffffffffffff1673ffffffffffffffffffffffffffffffffffffffff168152602001908152602001600020600085815260200190815260200160002081905550826008600083815260200190815260200160002081905550505b600760008573ffffffffffffffffffffffffffffffffffffffff1673ffffffffffffffffffffffffffffffffffffffff168152602001908152602001600020600082815260200190815260200160002060009055600860008481526020019081526020016000206000905550505050565b600060016000808573ffffffffffffffffffffffffffffffffffffffff1673ffffffffffffffffffffffffffffffffffffffff16815260200190815260200160002054611835919061261c565b905081600760008573ffffffffffffffffffffffffffffffffffffffff1673ffffffffffffffffffffffffffffffffffffffff168152602001908152602001600020600083815260200190815260200160002081905550806008600084815260200190815260200160002081905550505050565b6000808473ffffffffffffffffffffffffffffffffffffffff163b116118d25760019050611a6d565b60008490508073ffffffffffffffffffffffffffffffffffffffff1663150b7a02338887876040518563ffffffff1660e01b81526004016119169493929190612297565b602060405180830381600087803b15801561193057600080fd5b505af192505050801561196157506040513d601f19601f8201168201806040525081019061195e9190611fbc565b60015b611a075761196d61286e565b806308c379a014156119ca5750611982612b28565b8061198d57506119cc565b806040517f08c379a00000000000000000000000000000000000000000000000000000000081526004016119c191906122fe565b60405180910390fd5b505b6040517f08c379a00000000000000000000000000000000000000000000000000000000081526004016119fe906123a0565b60405180910390fd5b7f150b7a02000000000000000000000000000000000000000000000000000000007bffffffffffffffffffffffffffffffffffffffffffffffffffffffff1916817bffffffffffffffffffffffffffffffffffffffffffffffffffffffff191614925050505b949350505050565b60098190806001815401808255809150506001900390600052602060002001600090919091909150556001600980549050611ab0919061261c565b600a60008381526020019081526020016000208190555050565b828054611ad690612706565b90600052602060002090601f016020900481019282611af85760008555611b3f565b82601f10611b1157805160ff1916838001178555611b3f565b82800160010185558215611b3f579182015b82811115611b3e578251825591602001919060010190611b23565b5b509050611b4c9190611b50565b5090565b5b80821115611b69576000816000905550600101611b51565b5090565b6000611b80611b7b84612500565b6124db565b90508083825260208201905082856020860282011115611ba357611ba2612895565b5b60005b85811015611bd35781611bb98882611d3f565b845260208401935060208301925050600181019050611ba6565b5050509392505050565b6000611bf0611beb8461252c565b6124db565b905082815260208101848484011115611c0c57611c0b61289a565b5b611c178482856126c4565b509392505050565b6000611c32611c2d8461255d565b6124db565b905082815260208101848484011115611c4e57611c4d61289a565b5b611c598482856126c4565b509392505050565b600081359050611c7081612bbe565b92915050565b600082601f830112611c8b57611c8a612890565b5b8135611c9b848260208601611b6d565b91505092915050565b600081359050611cb381612bd5565b92915050565b600081359050611cc881612bec565b92915050565b600081519050611cdd81612bec565b92915050565b600082601f830112611cf857611cf7612890565b5b8135611d08848260208601611bdd565b91505092915050565b600082601f830112611d2657611d25612890565b5b8135611d36848260208601611c1f565b91505092915050565b600081359050611d4e81612c03565b92915050565b600060208284031215611d6a57611d696128a4565b5b6000611d7884828501611c61565b91505092915050565b60008060408385031215611d9857611d976128a4565b5b6000611da685828601611c61565b9250506020611db785828601611c61565b9150509250929050565b600080600060608486031215611dda57611dd96128a4565b5b6000611de886828701611c61565b9350506020611df986828701611c61565b9250506040611e0a86828701611d3f565b9150509250925092565b60008060008060808587031215611e2e57611e2d6128a4565b5b6000611e3c87828801611c61565b9450506020611e4d87828801611c61565b9350506040611e5e87828801611d3f565b925050606085013567ffffffffffffffff811115611e7f57611e7e61289f565b5b611e8b87828801611ce3565b91505092959194509250565b60008060408385031215611eae57611ead6128a4565b5b6000611ebc85828601611c61565b9250506020611ecd85828601611ca4565b9150509250929050565b60008060408385031215611eee57611eed6128a4565b5b6000611efc85828601611c61565b9250506020611f0d85828601611d3f565b9150509250929050565b60008060408385031215611f2e57611f2d6128a4565b5b600083013567ffffffffffffffff811115611f4c57611f4b61289f565b5b611f5885828601611c76565b925050602083013567ffffffffffffffff811115611f7957611f7861289f565b5b611f8585828601611d11565b9150509250929050565b600060208284031215611fa557611fa46128a4565b5b6000611fb384828501611cb9565b91505092915050565b600060208284031215611fd257611fd16128a4565b5b6000611fe084828501611cce565b91505092915050565b600060208284031215611fff57611ffe6128a4565b5b600061200d84828501611d3f565b91505092915050565b61201f81612650565b82525050565b61202e81612662565b82525050565b600061203f8261258e565b61204981856125a4565b93506120598185602086016126d3565b612062816128a9565b840191505092915050565b600061207882612599565b61208281856125b5565b93506120928185602086016126d3565b61209b816128a9565b840191505092915050565b60006120b3601a836125b5565b91506120be826128c7565b602082019050919050565b60006120d6601f836125b5565b91506120e1826128f0565b602082019050919050565b60006120f96015836125b5565b915061210482612919565b602082019050919050565b600061211c6014836125b5565b915061212782612942565b602082019050919050565b600061213f602a836125b5565b915061214a8261296b565b604082019050919050565b6000612162602d836125b5565b915061216d826129ba565b604082019050919050565b60006121856018836125b5565b915061219082612a09565b602082019050919050565b60006121a8600d836125b5565b91506121b382612a32565b602082019050919050565b60006121cb6020836125b5565b91506121d682612a5b565b602082019050919050565b60006121ee6018836125b5565b91506121f982612a84565b602082019050919050565b60006122116014836125b5565b915061221c82612aad565b602082019050919050565b60006122346013836125b5565b915061223f82612ad6565b602082019050919050565b60006122576013836125b5565b915061226282612aff565b602082019050919050565b612276816126ba565b82525050565b60006020820190506122916000830184612016565b92915050565b60006080820190506122ac6000830187612016565b6122b96020830186612016565b6122c6604083018561226d565b81810360608301526122d88184612034565b905095945050505050565b60006020820190506122f86000830184612025565b92915050565b60006020820190508181036000830152612318818461206d565b905092915050565b60006020820190508181036000830152612339816120a6565b9050919050565b60006020820190508181036000830152612359816120c9565b9050919050565b60006020820190508181036000830152612379816120ec565b9050919050565b600060208201905081810360008301526123998161210f565b9050919050565b600060208201905081810360008301526123b981612132565b9050919050565b600060208201905081810360008301526123d981612155565b9050919050565b600060208201905081810360008301526123f981612178565b9050919050565b600060208201905081810360008301526124198161219b565b9050919050565b60006020820190508181036000830152612439816121be565b9050919050565b60006020820190508181036000830152612459816121e1565b9050919050565b6000602082019050818103600083015261247981612204565b9050919050565b6000602082019050818103600083015261249981612227565b9050919050565b600060208201905081810360008301526124b98161224a565b9050919050565b60006020820190506124d5600083018461226d565b92915050565b60006124e56124f6565b90506124f18282612738565b919050565b6000604051905090565b600067ffffffffffffffff82111561251b5761251a61283f565b5b602082029050602081019050919050565b600067ffffffffffffffff8211156125475761254661283f565b5b612550826128a9565b9050602081019050919050565b600067ffffffffffffffff8211156125785761257761283f565b5b612581826128a9565b9050602081019050919050565b600081519050919050565b600081519050919050565b600082825260208201905092915050565b600082825260208201905092915050565b60006125d1826126ba565b91506125dc836126ba565b9250827fffffffffffffffffffffffffffffffffffffffffffffffffffffffffffffffff03821115612611576126106127b2565b5b828201905092915050565b6000612627826126ba565b9150612632836126ba565b925082821015612645576126446127b2565b5b828203905092915050565b600061265b8261269a565b9050919050565b60008115159050919050565b60007fffffffff0000000000000000000000000000000000000000000000000000000082169050919050565b600073ffffffffffffffffffffffffffffffffffffffff82169050919050565b6000819050919050565b82818337600083830152505050565b60005b838110156126f15780820151818401526020810190506126d6565b83811115612700576000848401525b50505050565b6000600282049050600182168061271e57607f821691505b60208210811415612732576127316127e1565b5b50919050565b612741826128a9565b810181811067ffffffffffffffff821117156127605761275f61283f565b5b80604052505050565b6000612774826126ba565b91507fffffffffffffffffffffffffffffffffffffffffffffffffffffffffffffffff8214156127a7576127a66127b2565b5b600182019050919050565b7f4e487b7100000000000000000000000000000000000000000000000000000000600052601160045260246000fd5b7f4e487b7100000000000000000000000000000000000000000000000000000000600052602260045260246000fd5b7f4e487b7100000000000000000000000000000000000000000000000000000000600052603260045260246000fd5b7f4e487b7100000000000000000000000000000000000000000000000000000000600052604160045260246000fd5b600060033d111561288d5760046000803e61288a6000516128ba565b90505b90565b600080fd5b600080fd5b600080fd5b600080fd5b600080fd5b6000601f19601f8301169050919050565b60008160e01c9050919050565b7f7472616e736665722066726f6d207a65726f2061646472657373000000000000600082015250565b7f63616c6c6572206973206e6f74206f776e6572206f7220617070726f76616c00600082015250565b7f6f776e6572206973207a65726f20616464726573730000000000000000000000600082015250565b7f6d696e7420746f207a65726f2061646472657373000000000000000000000000600082015250565b7f7472616e7366657220746f206e6f6e204552433732315265636569766572206960008201527f6d706c656d656e74657200000000000000000000000000000000000000000000602082015250565b7f63616c6c6572206973206e6f7420746f6b656e206f776e6572206f722061707060008201527f726f76616c20666f7220616c6c00000000000000000000000000000000000000602082015250565b7f7472616e7366657220746f207a65726f20616464726573730000000000000000600082015250565b7f556e617574686f72697a65642e00000000000000000000000000000000000000600082015250565b7f7472616e736665722066726f6d206973206e6f7420746f6b656e206f776e6572600082015250565b7f617070726f76616c2073746174757320666f722073656c660000000000000000600082015250565b7f746f6b656e20616c7265616479206d696e746564000000000000000000000000600082015250565b7f746f6b656e206973206e6f742065786973747300000000000000000000000000600082015250565b7f696e646578206f7574206f6620626f756e647300000000000000000000000000600082015250565b600060443d1015612b3857612bbb565b612b406124f6565b60043d036004823e80513d602482011167ffffffffffffffff82111715612b68575050612bbb565b808201805167ffffffffffffffff811115612b865750505050612bbb565b80602083010160043d038501811115612ba3575050505050612bbb565b612bb282602001850186612738565b82955050505050505b90565b612bc781612650565b8114612bd257600080fd5b50565b612bde81612662565b8114612be957600080fd5b50565b612bf58161266e565b8114612c0057600080fd5b50565b612c0c816126ba565b8114612c1757600080fd5b5056fea26469706673582212206b6595e20b3fac9f0c1ad72740be2527b30d9f6b4dd82b044a95aea21817f3fb64736f6c63430008070033",
					"opcodes": "PUSH1 0x80 PUSH1 0x40 MSTORE CALLVALUE DUP1 ISZERO PUSH3 0x11 JUMPI PUSH1 0x0 DUP1 REVERT JUMPDEST POP PUSH1 0x40 MLOAD DUP1 PUSH1 0x40 ADD PUSH1 0x40 MSTORE DUP1 PUSH1 0x10 DUP2 MSTORE PUSH1 0x20 ADD PUSH32 0x4D585220436F6C6C65637469626C657300000000000000000000000000000000 DUP2 MSTORE POP PUSH1 0x40 MLOAD DUP1 PUSH1 0x40 ADD PUSH1 0x40 MSTORE DUP1 PUSH1 0x4 DUP2 MSTORE PUSH1 0x20 ADD PUSH32 0x4D58525400000000000000000000000000000000000000000000000000000000 DUP2 MSTORE POP DUP2 PUSH1 0x4 SWAP1 DUP1 MLOAD SWAP1 PUSH1 0x20 ADD SWAP1 PUSH3 0x96 SWAP3 SWAP2 SWAP1 PUSH3 0xF9 JUMP JUMPDEST POP DUP1 PUSH1 0x5 SWAP1 DUP1 MLOAD SWAP1 PUSH1 0x20 ADD SWAP1 PUSH3 0xAF SWAP3 SWAP2 SWAP1 PUSH3 0xF9 JUMP JUMPDEST POP POP POP CALLER PUSH1 0xB PUSH1 0x0 PUSH2 0x100 EXP DUP2 SLOAD DUP2 PUSH20 0xFFFFFFFFFFFFFFFFFFFFFFFFFFFFFFFFFFFFFFFF MUL NOT AND SWAP1 DUP4 PUSH20 0xFFFFFFFFFFFFFFFFFFFFFFFFFFFFFFFFFFFFFFFF AND MUL OR SWAP1 SSTORE POP PUSH3 0x20E JUMP JUMPDEST DUP3 DUP1 SLOAD PUSH3 0x107 SWAP1 PUSH3 0x1A9 JUMP JUMPDEST SWAP1 PUSH1 0x0 MSTORE PUSH1 0x20 PUSH1 0x0 KECCAK256 SWAP1 PUSH1 0x1F ADD PUSH1 0x20 SWAP1 DIV DUP2 ADD SWAP3 DUP3 PUSH3 0x12B JUMPI PUSH1 0x0 DUP6 SSTORE PUSH3 0x177 JUMP JUMPDEST DUP3 PUSH1 0x1F LT PUSH3 0x146 JUMPI DUP1 MLOAD PUSH1 0xFF NOT AND DUP4 DUP1 ADD OR DUP6 SSTORE PUSH3 0x177 JUMP JUMPDEST DUP3 DUP1 ADD PUSH1 0x1 ADD DUP6 SSTORE DUP3 ISZERO PUSH3 0x177 JUMPI SWAP2 DUP3 ADD JUMPDEST DUP3 DUP2 GT ISZERO PUSH3 0x176 JUMPI DUP3 MLOAD DUP3 SSTORE SWAP2 PUSH1 0x20 ADD SWAP2 SWAP1 PUSH1 0x1 ADD SWAP1 PUSH3 0x159 JUMP JUMPDEST JUMPDEST POP SWAP1 POP PUSH3 0x186 SWAP2 SWAP1 PUSH3 0x18A JUMP JUMPDEST POP SWAP1 JUMP JUMPDEST JUMPDEST DUP1 DUP3 GT ISZERO PUSH3 0x1A5 JUMPI PUSH1 0x0 DUP2 PUSH1 0x0 SWAP1 SSTORE POP PUSH1 0x1 ADD PUSH3 0x18B JUMP JUMPDEST POP SWAP1 JUMP JUMPDEST PUSH1 0x0 PUSH1 0x2 DUP3 DIV SWAP1 POP PUSH1 0x1 DUP3 AND DUP1 PUSH3 0x1C2 JUMPI PUSH1 0x7F DUP3 AND SWAP2 POP JUMPDEST PUSH1 0x20 DUP3 LT DUP2 EQ ISZERO PUSH3 0x1D9 JUMPI PUSH3 0x1D8 PUSH3 0x1DF JUMP JUMPDEST JUMPDEST POP SWAP2 SWAP1 POP JUMP JUMPDEST PUSH32 0x4E487B7100000000000000000000000000000000000000000000000000000000 PUSH1 0x0 MSTORE PUSH1 0x22 PUSH1 0x4 MSTORE PUSH1 0x24 PUSH1 0x0 REVERT JUMPDEST PUSH2 0x2C50 DUP1 PUSH3 0x21E PUSH1 0x0 CODECOPY PUSH1 0x0 RETURN INVALID PUSH1 0x80 PUSH1 0x40 MSTORE CALLVALUE DUP1 ISZERO PUSH2 0x10 JUMPI PUSH1 0x0 DUP1 REVERT JUMPDEST POP PUSH1 0x4 CALLDATASIZE LT PUSH2 0x116 JUMPI PUSH1 0x0 CALLDATALOAD PUSH1 0xE0 SHR DUP1 PUSH4 0x42842E0E GT PUSH2 0xA2 JUMPI DUP1 PUSH4 0x95D89B41 GT PUSH2 0x71 JUMPI DUP1 PUSH4 0x95D89B41 EQ PUSH2 0x317 JUMPI DUP1 PUSH4 0xA22CB465 EQ PUSH2 0x335 JUMPI DUP1 PUSH4 0xB88D4FDE EQ PUSH2 0x351 JUMPI DUP1 PUSH4 0xC87B56DD EQ PUSH2 0x36D JUMPI DUP1 PUSH4 0xE985E9C5 EQ PUSH2 0x39D JUMPI PUSH2 0x116 JUMP JUMPDEST DUP1 PUSH4 0x42842E0E EQ PUSH2 0x26B JUMPI DUP1 PUSH4 0x4F6CCCE7 EQ PUSH2 0x287 JUMPI DUP1 PUSH4 0x6352211E EQ PUSH2 0x2B7 JUMPI DUP1 PUSH4 0x70A08231 EQ PUSH2 0x2E7 JUMPI PUSH2 0x116 JUMP JUMPDEST DUP1 PUSH4 0xD060309 GT PUSH2 0xE9 JUMPI DUP1 PUSH4 0xD060309 EQ PUSH2 0x1B5 JUMPI DUP1 PUSH4 0xE89341C EQ PUSH2 0x1D1 JUMPI DUP1 PUSH4 0x18160DDD EQ PUSH2 0x201 JUMPI DUP1 PUSH4 0x23B872DD EQ PUSH2 0x21F JUMPI DUP1 PUSH4 0x2F745C59 EQ PUSH2 0x23B JUMPI PUSH2 0x116 JUMP JUMPDEST DUP1 PUSH4 0x1FFC9A7 EQ PUSH2 0x11B JUMPI DUP1 PUSH4 0x6FDDE03 EQ PUSH2 0x14B JUMPI DUP1 PUSH4 0x81812FC EQ PUSH2 0x169 JUMPI DUP1 PUSH4 0x95EA7B3 EQ PUSH2 0x199 JUMPI JUMPDEST PUSH1 0x0 DUP1 REVERT JUMPDEST PUSH2 0x135 PUSH1 0x4 DUP1 CALLDATASIZE SUB DUP2 ADD SWAP1 PUSH2 0x130 SWAP2 SWAP1 PUSH2 0x1F8F JUMP JUMPDEST PUSH2 0x3CD JUMP JUMPDEST PUSH1 0x40 MLOAD PUSH2 0x142 SWAP2 SWAP1 PUSH2 0x22E3 JUMP JUMPDEST PUSH1 0x40 MLOAD DUP1 SWAP2 SUB SWAP1 RETURN JUMPDEST PUSH2 0x153 PUSH2 0x5D7 JUMP JUMPDEST PUSH1 0x40 MLOAD PUSH2 0x160 SWAP2 SWAP1 PUSH2 0x22FE JUMP JUMPDEST PUSH1 0x40 MLOAD DUP1 SWAP2 SUB SWAP1 RETURN JUMPDEST PUSH2 0x183 PUSH1 0x4 DUP1 CALLDATASIZE SUB DUP2 ADD SWAP1 PUSH2 0x17E SWAP2 SWAP1 PUSH2 0x1FE9 JUMP JUMPDEST PUSH2 0x669 JUMP JUMPDEST PUSH1 0x40 MLOAD PUSH2 0x190 SWAP2 SWAP1 PUSH2 0x227C JUMP JUMPDEST PUSH1 0x40 MLOAD DUP1 SWAP2 SUB SWAP1 RETURN JUMPDEST PUSH2 0x1B3 PUSH1 0x4 DUP1 CALLDATASIZE SUB DUP2 ADD SWAP1 PUSH2 0x1AE SWAP2 SWAP1 PUSH2 0x1ED7 JUMP JUMPDEST PUSH2 0x748 JUMP JUMPDEST STOP JUMPDEST PUSH2 0x1CF PUSH1 0x4 DUP1 CALLDATASIZE SUB DUP2 ADD SWAP1 PUSH2 0x1CA SWAP2 SWAP1 PUSH2 0x1F17 JUMP JUMPDEST PUSH2 0x852 JUMP JUMPDEST STOP JUMPDEST PUSH2 0x1EB PUSH1 0x4 DUP1 CALLDATASIZE SUB DUP2 ADD SWAP1 PUSH2 0x1E6 SWAP2 SWAP1 PUSH2 0x1FE9 JUMP JUMPDEST PUSH2 0x92B JUMP JUMPDEST PUSH1 0x40 MLOAD PUSH2 0x1F8 SWAP2 SWAP1 PUSH2 0x22FE JUMP JUMPDEST PUSH1 0x40 MLOAD DUP1 SWAP2 SUB SWAP1 RETURN JUMPDEST PUSH2 0x209 PUSH2 0x93D JUMP JUMPDEST PUSH1 0x40 MLOAD PUSH2 0x216 SWAP2 SWAP1 PUSH2 0x24C0 JUMP JUMPDEST PUSH1 0x40 MLOAD DUP1 SWAP2 SUB SWAP1 RETURN JUMPDEST PUSH2 0x239 PUSH1 0x4 DUP1 CALLDATASIZE SUB DUP2 ADD SWAP1 PUSH2 0x234 SWAP2 SWAP1 PUSH2 0x1DC1 JUMP JUMPDEST PUSH2 0x94A JUMP JUMPDEST STOP JUMPDEST PUSH2 0x255 PUSH1 0x4 DUP1 CALLDATASIZE SUB DUP2 ADD SWAP1 PUSH2 0x250 SWAP2 SWAP1 PUSH2 0x1ED7 JUMP JUMPDEST PUSH2 0xCD5 JUMP JUMPDEST PUSH1 0x40 MLOAD PUSH2 0x262 SWAP2 SWAP1 PUSH2 0x24C0 JUMP JUMPDEST PUSH1 0x40 MLOAD DUP1 SWAP2 SUB SWAP1 RETURN JUMPDEST PUSH2 0x285 PUSH1 0x4 DUP1 CALLDATASIZE SUB DUP2 ADD SWAP1 PUSH2 0x280 SWAP2 SWAP1 PUSH2 0x1DC1 JUMP JUMPDEST PUSH2 0xDB0 JUMP JUMPDEST STOP JUMPDEST PUSH2 0x2A1 PUSH1 0x4 DUP1 CALLDATASIZE SUB DUP2 ADD SWAP1 PUSH2 0x29C SWAP2 SWAP1 PUSH2 0x1FE9 JUMP JUMPDEST PUSH2 0xDD0 JUMP JUMPDEST PUSH1 0x40 MLOAD PUSH2 0x2AE SWAP2 SWAP1 PUSH2 0x24C0 JUMP JUMPDEST PUSH1 0x40 MLOAD DUP1 SWAP2 SUB SWAP1 RETURN JUMPDEST PUSH2 0x2D1 PUSH1 0x4 DUP1 CALLDATASIZE SUB DUP2 ADD SWAP1 PUSH2 0x2CC SWAP2 SWAP1 PUSH2 0x1FE9 JUMP JUMPDEST PUSH2 0xE3F JUMP JUMPDEST PUSH1 0x40 MLOAD PUSH2 0x2DE SWAP2 SWAP1 PUSH2 0x227C JUMP JUMPDEST PUSH1 0x40 MLOAD DUP1 SWAP2 SUB SWAP1 RETURN JUMPDEST PUSH2 0x301 PUSH1 0x4 DUP1 CALLDATASIZE SUB DUP2 ADD SWAP1 PUSH2 0x2FC SWAP2 SWAP1 PUSH2 0x1D54 JUMP JUMPDEST PUSH2 0xEF1 JUMP JUMPDEST PUSH1 0x40 MLOAD PUSH2 0x30E SWAP2 SWAP1 PUSH2 0x24C0 JUMP JUMPDEST PUSH1 0x40 MLOAD DUP1 SWAP2 SUB SWAP1 RETURN JUMPDEST PUSH2 0x31F PUSH2 0xFA8 JUMP JUMPDEST PUSH1 0x40 MLOAD PUSH2 0x32C SWAP2 SWAP1 PUSH2 0x22FE JUMP JUMPDEST PUSH1 0x40 MLOAD DUP1 SWAP2 SUB SWAP1 RETURN JUMPDEST PUSH2 0x34F PUSH1 0x4 DUP1 CALLDATASIZE SUB DUP2 ADD SWAP1 PUSH2 0x34A SWAP2 SWAP1 PUSH2 0x1E97 JUMP JUMPDEST PUSH2 0x103A JUMP JUMPDEST STOP JUMPDEST PUSH2 0x36B PUSH1 0x4 DUP1 CALLDATASIZE SUB DUP2 ADD SWAP1 PUSH2 0x366 SWAP2 SWAP1 PUSH2 0x1E14 JUMP JUMPDEST PUSH2 0x11A6 JUMP JUMPDEST STOP JUMPDEST PUSH2 0x387 PUSH1 0x4 DUP1 CALLDATASIZE SUB DUP2 ADD SWAP1 PUSH2 0x382 SWAP2 SWAP1 PUSH2 0x1FE9 JUMP JUMPDEST PUSH2 0x1202 JUMP JUMPDEST PUSH1 0x40 MLOAD PUSH2 0x394 SWAP2 SWAP1 PUSH2 0x22FE JUMP JUMPDEST PUSH1 0x40 MLOAD DUP1 SWAP2 SUB SWAP1 RETURN JUMPDEST PUSH2 0x3B7 PUSH1 0x4 DUP1 CALLDATASIZE SUB DUP2 ADD SWAP1 PUSH2 0x3B2 SWAP2 SWAP1 PUSH2 0x1D81 JUMP JUMPDEST PUSH2 0x12A7 JUMP JUMPDEST PUSH1 0x40 MLOAD PUSH2 0x3C4 SWAP2 SWAP1 PUSH2 0x22E3 JUMP JUMPDEST PUSH1 0x40 MLOAD DUP1 SWAP2 SUB SWAP1 RETURN JUMPDEST PUSH1 0x0 PUSH32 0x1FFC9A700000000000000000000000000000000000000000000000000000000 PUSH28 0xFFFFFFFFFFFFFFFFFFFFFFFFFFFFFFFFFFFFFFFFFFFFFFFFFFFFFFFF NOT AND DUP3 PUSH28 0xFFFFFFFFFFFFFFFFFFFFFFFFFFFFFFFFFFFFFFFFFFFFFFFFFFFFFFFF NOT AND EQ DUP1 PUSH2 0x498 JUMPI POP PUSH32 0x80AC58CD00000000000000000000000000000000000000000000000000000000 PUSH28 0xFFFFFFFFFFFFFFFFFFFFFFFFFFFFFFFFFFFFFFFFFFFFFFFFFFFFFFFF NOT AND DUP3 PUSH28 0xFFFFFFFFFFFFFFFFFFFFFFFFFFFFFFFFFFFFFFFFFFFFFFFFFFFFFFFF NOT AND EQ JUMPDEST DUP1 PUSH2 0x500 JUMPI POP PUSH32 0x5B5E139F00000000000000000000000000000000000000000000000000000000 PUSH28 0xFFFFFFFFFFFFFFFFFFFFFFFFFFFFFFFFFFFFFFFFFFFFFFFFFFFFFFFF NOT AND DUP3 PUSH28 0xFFFFFFFFFFFFFFFFFFFFFFFFFFFFFFFFFFFFFFFFFFFFFFFFFFFFFFFF NOT AND EQ JUMPDEST DUP1 PUSH2 0x568 JUMPI POP PUSH32 0xE89341C00000000000000000000000000000000000000000000000000000000 PUSH28 0xFFFFFFFFFFFFFFFFFFFFFFFFFFFFFFFFFFFFFFFFFFFFFFFFFFFFFFFF NOT AND DUP3 PUSH28 0xFFFFFFFFFFFFFFFFFFFFFFFFFFFFFFFFFFFFFFFFFFFFFFFFFFFFFFFF NOT AND EQ JUMPDEST DUP1 PUSH2 0x5D0 JUMPI POP PUSH32 0x780E9D6300000000000000000000000000000000000000000000000000000000 PUSH28 0xFFFFFFFFFFFFFFFFFFFFFFFFFFFFFFFFFFFFFFFFFFFFFFFFFFFFFFFF NOT AND DUP3 PUSH28 0xFFFFFFFFFFFFFFFFFFFFFFFFFFFFFFFFFFFFFFFFFFFFFFFFFFFFFFFF NOT AND EQ JUMPDEST SWAP1 POP SWAP2 SWAP1 POP JUMP JUMPDEST PUSH1 0x60 PUSH1 0x4 DUP1 SLOAD PUSH2 0x5E6 SWAP1 PUSH2 0x2706 JUMP JUMPDEST DUP1 PUSH1 0x1F ADD PUSH1 0x20 DUP1 SWAP2 DIV MUL PUSH1 0x20 ADD PUSH1 0x40 MLOAD SWAP1 DUP2 ADD PUSH1 0x40 MSTORE DUP1 SWAP3 SWAP2 SWAP1 DUP2 DUP2 MSTORE PUSH1 0x20 ADD DUP3 DUP1 SLOAD PUSH2 0x612 SWAP1 PUSH2 0x2706 JUMP JUMPDEST DUP1 ISZERO PUSH2 0x65F JUMPI DUP1 PUSH1 0x1F LT PUSH2 0x634 JUMPI PUSH2 0x100 DUP1 DUP4 SLOAD DIV MUL DUP4 MSTORE SWAP2 PUSH1 0x20 ADD SWAP2 PUSH2 0x65F JUMP JUMPDEST DUP3 ADD SWAP2 SWAP1 PUSH1 0x0 MSTORE PUSH1 0x20 PUSH1 0x0 KECCAK256 SWAP1 JUMPDEST DUP2 SLOAD DUP2 MSTORE SWAP1 PUSH1 0x1 ADD SWAP1 PUSH1 0x20 ADD DUP1 DUP4 GT PUSH2 0x642 JUMPI DUP3 SWAP1 SUB PUSH1 0x1F AND DUP3 ADD SWAP2 JUMPDEST POP POP POP POP POP SWAP1 POP SWAP1 JUMP JUMPDEST PUSH1 0x0 DUP1 PUSH20 0xFFFFFFFFFFFFFFFFFFFFFFFFFFFFFFFFFFFFFFFF AND PUSH1 0x1 PUSH1 0x0 DUP5 DUP2 MSTORE PUSH1 0x20 ADD SWAP1 DUP2 MSTORE PUSH1 0x20 ADD PUSH1 0x0 KECCAK256 PUSH1 0x0 SWAP1 SLOAD SWAP1 PUSH2 0x100 EXP SWAP1 DIV PUSH20 0xFFFFFFFFFFFFFFFFFFFFFFFFFFFFFFFFFFFFFFFF AND PUSH20 0xFFFFFFFFFFFFFFFFFFFFFFFFFFFFFFFFFFFFFFFF AND EQ ISZERO PUSH2 0x70D JUMPI PUSH1 0x40 MLOAD PUSH32 0x8C379A000000000000000000000000000000000000000000000000000000000 DUP2 MSTORE PUSH1 0x4 ADD PUSH2 0x704 SWAP1 PUSH2 0x2480 JUMP JUMPDEST PUSH1 0x40 MLOAD DUP1 SWAP2 SUB SWAP1 REVERT JUMPDEST PUSH1 0x3 PUSH1 0x0 DUP4 DUP2 MSTORE PUSH1 0x20 ADD SWAP1 DUP2 MSTORE PUSH1 0x20 ADD PUSH1 0x0 KECCAK256 PUSH1 0x0 SWAP1 SLOAD SWAP1 PUSH2 0x100 EXP SWAP1 DIV PUSH20 0xFFFFFFFFFFFFFFFFFFFFFFFFFFFFFFFFFFFFFFFF AND SWAP1 POP SWAP2 SWAP1 POP JUMP JUMPDEST PUSH1 0x0 PUSH2 0x753 DUP3 PUSH2 0xE3F JUMP JUMPDEST SWAP1 POP DUP1 PUSH20 0xFFFFFFFFFFFFFFFFFFFFFFFFFFFFFFFFFFFFFFFF AND DUP4 PUSH20 0xFFFFFFFFFFFFFFFFFFFFFFFFFFFFFFFFFFFFFFFF AND EQ ISZERO PUSH2 0x7C4 JUMPI PUSH1 0x40 MLOAD PUSH32 0x8C379A000000000000000000000000000000000000000000000000000000000 DUP2 MSTORE PUSH1 0x4 ADD PUSH2 0x7BB SWAP1 PUSH2 0x2440 JUMP JUMPDEST PUSH1 0x40 MLOAD DUP1 SWAP2 SUB SWAP1 REVERT JUMPDEST DUP1 PUSH20 0xFFFFFFFFFFFFFFFFFFFFFFFFFFFFFFFFFFFFFFFF AND CALLER PUSH20 0xFFFFFFFFFFFFFFFFFFFFFFFFFFFFFFFFFFFFFFFF AND EQ DUP1 PUSH2 0x804 JUMPI POP PUSH2 0x803 DUP2 CALLER PUSH2 0x12A7 JUMP JUMPDEST JUMPDEST PUSH2 0x843 JUMPI PUSH1 0x40 MLOAD PUSH32 0x8C379A000000000000000000000000000000000000000000000000000000000 DUP2 MSTORE PUSH1 0x4 ADD PUSH2 0x83A SWAP1 PUSH2 0x23C0 JUMP JUMPDEST PUSH1 0x40 MLOAD DUP1 SWAP2 SUB SWAP1 REVERT JUMPDEST PUSH2 0x84D DUP4 DUP4 PUSH2 0x133B JUMP JUMPDEST POP POP POP JUMP JUMPDEST PUSH1 0xB PUSH1 0x0 SWAP1 SLOAD SWAP1 PUSH2 0x100 EXP SWAP1 DIV PUSH20 0xFFFFFFFFFFFFFFFFFFFFFFFFFFFFFFFFFFFFFFFF AND PUSH20 0xFFFFFFFFFFFFFFFFFFFFFFFFFFFFFFFFFFFFFFFF AND CALLER PUSH20 0xFFFFFFFFFFFFFFFFFFFFFFFFFFFFFFFFFFFFFFFF AND EQ PUSH2 0x8E2 JUMPI PUSH1 0x40 MLOAD PUSH32 0x8C379A000000000000000000000000000000000000000000000000000000000 DUP2 MSTORE PUSH1 0x4 ADD PUSH2 0x8D9 SWAP1 PUSH2 0x2400 JUMP JUMPDEST PUSH1 0x40 MLOAD DUP1 SWAP2 SUB SWAP1 REVERT JUMPDEST PUSH1 0x0 JUMPDEST DUP3 MLOAD DUP2 LT ISZERO PUSH2 0x926 JUMPI PUSH2 0x913 CALLER DUP5 DUP4 DUP2 MLOAD DUP2 LT PUSH2 0x905 JUMPI PUSH2 0x904 PUSH2 0x2810 JUMP JUMPDEST JUMPDEST PUSH1 0x20 MUL PUSH1 0x20 ADD ADD MLOAD DUP5 PUSH2 0x13FA JUMP JUMPDEST DUP1 DUP1 PUSH2 0x91E SWAP1 PUSH2 0x2769 JUMP JUMPDEST SWAP2 POP POP PUSH2 0x8E5 JUMP JUMPDEST POP POP POP JUMP JUMPDEST PUSH1 0x60 PUSH2 0x936 DUP3 PUSH2 0x1202 JUMP JUMPDEST SWAP1 POP SWAP2 SWAP1 POP JUMP JUMPDEST PUSH1 0x0 PUSH1 0x9 DUP1 SLOAD SWAP1 POP SWAP1 POP SWAP1 JUMP JUMPDEST PUSH1 0x0 PUSH20 0xFFFFFFFFFFFFFFFFFFFFFFFFFFFFFFFFFFFFFFFF AND DUP4 PUSH20 0xFFFFFFFFFFFFFFFFFFFFFFFFFFFFFFFFFFFFFFFF AND EQ ISZERO PUSH2 0x9BA JUMPI PUSH1 0x40 MLOAD PUSH32 0x8C379A000000000000000000000000000000000000000000000000000000000 DUP2 MSTORE PUSH1 0x4 ADD PUSH2 0x9B1 SWAP1 PUSH2 0x2320 JUMP JUMPDEST PUSH1 0x40 MLOAD DUP1 SWAP2 SUB SWAP1 REVERT JUMPDEST PUSH1 0x0 PUSH20 0xFFFFFFFFFFFFFFFFFFFFFFFFFFFFFFFFFFFFFFFF AND DUP3 PUSH20 0xFFFFFFFFFFFFFFFFFFFFFFFFFFFFFFFFFFFFFFFF AND EQ ISZERO PUSH2 0xA2A JUMPI PUSH1 0x40 MLOAD PUSH32 0x8C379A000000000000000000000000000000000000000000000000000000000 DUP2 MSTORE PUSH1 0x4 ADD PUSH2 0xA21 SWAP1 PUSH2 0x23E0 JUMP JUMPDEST PUSH1 0x40 MLOAD DUP1 SWAP2 SUB SWAP1 REVERT JUMPDEST PUSH1 0x0 PUSH2 0xA35 DUP3 PUSH2 0xE3F JUMP JUMPDEST SWAP1 POP DUP4 PUSH20 0xFFFFFFFFFFFFFFFFFFFFFFFFFFFFFFFFFFFFFFFF AND DUP2 PUSH20 0xFFFFFFFFFFFFFFFFFFFFFFFFFFFFFFFFFFFFFFFF AND EQ PUSH2 0xAA5 JUMPI PUSH1 0x40 MLOAD PUSH32 0x8C379A000000000000000000000000000000000000000000000000000000000 DUP2 MSTORE PUSH1 0x4 ADD PUSH2 0xA9C SWAP1 PUSH2 0x2420 JUMP JUMPDEST PUSH1 0x40 MLOAD DUP1 SWAP2 SUB SWAP1 REVERT JUMPDEST DUP1 PUSH20 0xFFFFFFFFFFFFFFFFFFFFFFFFFFFFFFFFFFFFFFFF AND CALLER PUSH20 0xFFFFFFFFFFFFFFFFFFFFFFFFFFFFFFFFFFFFFFFF AND EQ DUP1 PUSH2 0xB12 JUMPI POP PUSH2 0xAE3 DUP3 PUSH2 0x669 JUMP JUMPDEST PUSH20 0xFFFFFFFFFFFFFFFFFFFFFFFFFFFFFFFFFFFFFFFF AND CALLER PUSH20 0xFFFFFFFFFFFFFFFFFFFFFFFFFFFFFFFFFFFFFFFF AND EQ JUMPDEST DUP1 PUSH2 0xB23 JUMPI POP PUSH2 0xB22 DUP2 CALLER PUSH2 0x12A7 JUMP JUMPDEST JUMPDEST PUSH2 0xB62 JUMPI PUSH1 0x40 MLOAD PUSH32 0x8C379A000000000000000000000000000000000000000000000000000000000 DUP2 MSTORE PUSH1 0x4 ADD PUSH2 0xB59 SWAP1 PUSH2 0x2340 JUMP JUMPDEST PUSH1 0x40 MLOAD DUP1 SWAP2 SUB SWAP1 REVERT JUMPDEST PUSH1 0x1 PUSH1 0x0 DUP1 DUP7 PUSH20 0xFFFFFFFFFFFFFFFFFFFFFFFFFFFFFFFFFFFFFFFF AND PUSH20 0xFFFFFFFFFFFFFFFFFFFFFFFFFFFFFFFFFFFFFFFF AND DUP2 MSTORE PUSH1 0x20 ADD SWAP1 DUP2 MSTORE PUSH1 0x20 ADD PUSH1 0x0 KECCAK256 PUSH1 0x0 DUP3 DUP3 SLOAD PUSH2 0xBB1 SWAP2 SWAP1 PUSH2 0x261C JUMP JUMPDEST SWAP3 POP POP DUP2 SWAP1 SSTORE POP PUSH1 0x1 PUSH1 0x0 DUP1 DUP6 PUSH20 0xFFFFFFFFFFFFFFFFFFFFFFFFFFFFFFFFFFFFFFFF AND PUSH20 0xFFFFFFFFFFFFFFFFFFFFFFFFFFFFFFFFFFFFFFFF AND DUP2 MSTORE PUSH1 0x20 ADD SWAP1 DUP2 MSTORE PUSH1 0x20 ADD PUSH1 0x0 KECCAK256 PUSH1 0x0 DUP3 DUP3 SLOAD PUSH2 0xC07 SWAP2 SWAP1 PUSH2 0x25C6 JUMP JUMPDEST SWAP3 POP POP DUP2 SWAP1 SSTORE POP DUP3 PUSH1 0x1 PUSH1 0x0 DUP5 DUP2 MSTORE PUSH1 0x20 ADD SWAP1 DUP2 MSTORE PUSH1 0x20 ADD PUSH1 0x0 KECCAK256 PUSH1 0x0 PUSH2 0x100 EXP DUP2 SLOAD DUP2 PUSH20 0xFFFFFFFFFFFFFFFFFFFFFFFFFFFFFFFFFFFFFFFF MUL NOT AND SWAP1 DUP4 PUSH20 0xFFFFFFFFFFFFFFFFFFFFFFFFFFFFFFFFFFFFFFFF AND MUL OR SWAP1 SSTORE POP DUP2 DUP4 PUSH20 0xFFFFFFFFFFFFFFFFFFFFFFFFFFFFFFFFFFFFFFFF AND DUP6 PUSH20 0xFFFFFFFFFFFFFFFFFFFFFFFFFFFFFFFFFFFFFFFF AND PUSH32 0xDDF252AD1BE2C89B69C2B068FC378DAA952BA7F163C4A11628F55A4DF523B3EF PUSH1 0x40 MLOAD PUSH1 0x40 MLOAD DUP1 SWAP2 SUB SWAP1 LOG4 PUSH2 0xCC5 DUP5 DUP4 PUSH2 0x1650 JUMP JUMPDEST PUSH2 0xCCF DUP4 DUP4 PUSH2 0x17E8 JUMP JUMPDEST POP POP POP POP JUMP JUMPDEST PUSH1 0x0 DUP1 PUSH1 0x0 DUP5 PUSH20 0xFFFFFFFFFFFFFFFFFFFFFFFFFFFFFFFFFFFFFFFF AND PUSH20 0xFFFFFFFFFFFFFFFFFFFFFFFFFFFFFFFFFFFFFFFF AND DUP2 MSTORE PUSH1 0x20 ADD SWAP1 DUP2 MSTORE PUSH1 0x20 ADD PUSH1 0x0 KECCAK256 SLOAD DUP3 LT PUSH2 0xD57 JUMPI PUSH1 0x40 MLOAD PUSH32 0x8C379A000000000000000000000000000000000000000000000000000000000 DUP2 MSTORE PUSH1 0x4 ADD PUSH2 0xD4E SWAP1 PUSH2 0x24A0 JUMP JUMPDEST PUSH1 0x40 MLOAD DUP1 SWAP2 SUB SWAP1 REVERT JUMPDEST PUSH1 0x7 PUSH1 0x0 DUP5 PUSH20 0xFFFFFFFFFFFFFFFFFFFFFFFFFFFFFFFFFFFFFFFF AND PUSH20 0xFFFFFFFFFFFFFFFFFFFFFFFFFFFFFFFFFFFFFFFF AND DUP2 MSTORE PUSH1 0x20 ADD SWAP1 DUP2 MSTORE PUSH1 0x20 ADD PUSH1 0x0 KECCAK256 PUSH1 0x0 DUP4 DUP2 MSTORE PUSH1 0x20 ADD SWAP1 DUP2 MSTORE PUSH1 0x20 ADD PUSH1 0x0 KECCAK256 SLOAD SWAP1 POP SWAP3 SWAP2 POP POP JUMP JUMPDEST PUSH2 0xDCB DUP4 DUP4 DUP4 PUSH1 0x40 MLOAD DUP1 PUSH1 0x20 ADD PUSH1 0x40 MSTORE DUP1 PUSH1 0x0 DUP2 MSTORE POP PUSH2 0x11A6 JUMP JUMPDEST POP POP POP JUMP JUMPDEST PUSH1 0x0 PUSH1 0x9 DUP1 SLOAD SWAP1 POP DUP3 LT PUSH2 0xE19 JUMPI PUSH1 0x40 MLOAD PUSH32 0x8C379A000000000000000000000000000000000000000000000000000000000 DUP2 MSTORE PUSH1 0x4 ADD PUSH2 0xE10 SWAP1 PUSH2 0x24A0 JUMP JUMPDEST PUSH1 0x40 MLOAD DUP1 SWAP2 SUB SWAP1 REVERT JUMPDEST PUSH1 0x9 DUP3 DUP2 SLOAD DUP2 LT PUSH2 0xE2D JUMPI PUSH2 0xE2C PUSH2 0x2810 JUMP JUMPDEST JUMPDEST SWAP1 PUSH1 0x0 MSTORE PUSH1 0x20 PUSH1 0x0 KECCAK256 ADD SLOAD SWAP1 POP SWAP2 SWAP1 POP JUMP JUMPDEST PUSH1 0x0 DUP1 PUSH1 0x1 PUSH1 0x0 DUP5 DUP2 MSTORE PUSH1 0x20 ADD SWAP1 DUP2 MSTORE PUSH1 0x20 ADD PUSH1 0x0 KECCAK256 PUSH1 0x0 SWAP1 SLOAD SWAP1 PUSH2 0x100 EXP SWAP1 DIV PUSH20 0xFFFFFFFFFFFFFFFFFFFFFFFFFFFFFFFFFFFFFFFF AND SWAP1 POP PUSH1 0x0 PUSH20 0xFFFFFFFFFFFFFFFFFFFFFFFFFFFFFFFFFFFFFFFF AND DUP2 PUSH20 0xFFFFFFFFFFFFFFFFFFFFFFFFFFFFFFFFFFFFFFFF AND EQ ISZERO PUSH2 0xEE8 JUMPI PUSH1 0x40 MLOAD PUSH32 0x8C379A000000000000000000000000000000000000000000000000000000000 DUP2 MSTORE PUSH1 0x4 ADD PUSH2 0xEDF SWAP1 PUSH2 0x2480 JUMP JUMPDEST PUSH1 0x40 MLOAD DUP1 SWAP2 SUB SWAP1 REVERT JUMPDEST DUP1 SWAP2 POP POP SWAP2 SWAP1 POP JUMP JUMPDEST PUSH1 0x0 DUP1 PUSH20 0xFFFFFFFFFFFFFFFFFFFFFFFFFFFFFFFFFFFFFFFF AND DUP3 PUSH20 0xFFFFFFFFFFFFFFFFFFFFFFFFFFFFFFFFFFFFFFFF AND EQ ISZERO PUSH2 0xF62 JUMPI PUSH1 0x40 MLOAD PUSH32 0x8C379A000000000000000000000000000000000000000000000000000000000 DUP2 MSTORE PUSH1 0x4 ADD PUSH2 0xF59 SWAP1 PUSH2 0x2360 JUMP JUMPDEST PUSH1 0x40 MLOAD DUP1 SWAP2 SUB SWAP1 REVERT JUMPDEST PUSH1 0x0 DUP1 DUP4 PUSH20 0xFFFFFFFFFFFFFFFFFFFFFFFFFFFFFFFFFFFFFFFF AND PUSH20 0xFFFFFFFFFFFFFFFFFFFFFFFFFFFFFFFFFFFFFFFF AND DUP2 MSTORE PUSH1 0x20 ADD SWAP1 DUP2 MSTORE PUSH1 0x20 ADD PUSH1 0x0 KECCAK256 SLOAD SWAP1 POP SWAP2 SWAP1 POP JUMP JUMPDEST PUSH1 0x60 PUSH1 0x5 DUP1 SLOAD PUSH2 0xFB7 SWAP1 PUSH2 0x2706 JUMP JUMPDEST DUP1 PUSH1 0x1F ADD PUSH1 0x20 DUP1 SWAP2 DIV MUL PUSH1 0x20 ADD PUSH1 0x40 MLOAD SWAP1 DUP2 ADD PUSH1 0x40 MSTORE DUP1 SWAP3 SWAP2 SWAP1 DUP2 DUP2 MSTORE PUSH1 0x20 ADD DUP3 DUP1 SLOAD PUSH2 0xFE3 SWAP1 PUSH2 0x2706 JUMP JUMPDEST DUP1 ISZERO PUSH2 0x1030 JUMPI DUP1 PUSH1 0x1F LT PUSH2 0x1005 JUMPI PUSH2 0x100 DUP1 DUP4 SLOAD DIV MUL DUP4 MSTORE SWAP2 PUSH1 0x20 ADD SWAP2 PUSH2 0x1030 JUMP JUMPDEST DUP3 ADD SWAP2 SWAP1 PUSH1 0x0 MSTORE PUSH1 0x20 PUSH1 0x0 KECCAK256 SWAP1 JUMPDEST DUP2 SLOAD DUP2 MSTORE SWAP1 PUSH1 0x1 ADD SWAP1 PUSH1 0x20 ADD DUP1 DUP4 GT PUSH2 0x1013 JUMPI DUP3 SWAP1 SUB PUSH1 0x1F AND DUP3 ADD SWAP2 JUMPDEST POP POP POP POP POP SWAP1 POP SWAP1 JUMP JUMPDEST DUP2 PUSH20 0xFFFFFFFFFFFFFFFFFFFFFFFFFFFFFFFFFFFFFFFF AND CALLER PUSH20 0xFFFFFFFFFFFFFFFFFFFFFFFFFFFFFFFFFFFFFFFF AND EQ ISZERO PUSH2 0x10A9 JUMPI PUSH1 0x40 MLOAD PUSH32 0x8C379A000000000000000000000000000000000000000000000000000000000 DUP2 MSTORE PUSH1 0x4 ADD PUSH2 0x10A0 SWAP1 PUSH2 0x2440 JUMP JUMPDEST PUSH1 0x40 MLOAD DUP1 SWAP2 SUB SWAP1 REVERT JUMPDEST DUP1 PUSH1 0x2 PUSH1 0x0 CALLER PUSH20 0xFFFFFFFFFFFFFFFFFFFFFFFFFFFFFFFFFFFFFFFF AND PUSH20 0xFFFFFFFFFFFFFFFFFFFFFFFFFFFFFFFFFFFFFFFF AND DUP2 MSTORE PUSH1 0x20 ADD SWAP1 DUP2 MSTORE PUSH1 0x20 ADD PUSH1 0x0 KECCAK256 PUSH1 0x0 DUP5 PUSH20 0xFFFFFFFFFFFFFFFFFFFFFFFFFFFFFFFFFFFFFFFF AND PUSH20 0xFFFFFFFFFFFFFFFFFFFFFFFFFFFFFFFFFFFFFFFF AND DUP2 MSTORE PUSH1 0x20 ADD SWAP1 DUP2 MSTORE PUSH1 0x20 ADD PUSH1 0x0 KECCAK256 PUSH1 0x0 PUSH2 0x100 EXP DUP2 SLOAD DUP2 PUSH1 0xFF MUL NOT AND SWAP1 DUP4 ISZERO ISZERO MUL OR SWAP1 SSTORE POP DUP2 PUSH20 0xFFFFFFFFFFFFFFFFFFFFFFFFFFFFFFFFFFFFFFFF AND CALLER PUSH20 0xFFFFFFFFFFFFFFFFFFFFFFFFFFFFFFFFFFFFFFFF AND PUSH32 0x17307EAB39AB6107E8899845AD3D59BD9653F200F220920489CA2B5937696C31 DUP4 PUSH1 0x40 MLOAD PUSH2 0x119A SWAP2 SWAP1 PUSH2 0x22E3 JUMP JUMPDEST PUSH1 0x40 MLOAD DUP1 SWAP2 SUB SWAP1 LOG3 POP POP JUMP JUMPDEST PUSH2 0x11B1 DUP5 DUP5 DUP5 PUSH2 0x94A JUMP JUMPDEST PUSH2 0x11BD DUP5 DUP5 DUP5 DUP5 PUSH2 0x18A9 JUMP JUMPDEST PUSH2 0x11FC JUMPI PUSH1 0x40 MLOAD PUSH32 0x8C379A000000000000000000000000000000000000000000000000000000000 DUP2 MSTORE PUSH1 0x4 ADD PUSH2 0x11F3 SWAP1 PUSH2 0x23A0 JUMP JUMPDEST PUSH1 0x40 MLOAD DUP1 SWAP2 SUB SWAP1 REVERT JUMPDEST POP POP POP POP JUMP JUMPDEST PUSH1 0x60 PUSH1 0x6 PUSH1 0x0 DUP4 DUP2 MSTORE PUSH1 0x20 ADD SWAP1 DUP2 MSTORE PUSH1 0x20 ADD PUSH1 0x0 KECCAK256 DUP1 SLOAD PUSH2 0x1222 SWAP1 PUSH2 0x2706 JUMP JUMPDEST DUP1 PUSH1 0x1F ADD PUSH1 0x20 DUP1 SWAP2 DIV MUL PUSH1 0x20 ADD PUSH1 0x40 MLOAD SWAP1 DUP2 ADD PUSH1 0x40 MSTORE DUP1 SWAP3 SWAP2 SWAP1 DUP2 DUP2 MSTORE PUSH1 0x20 ADD DUP3 DUP1 SLOAD PUSH2 0x124E SWAP1 PUSH2 0x2706 JUMP JUMPDEST DUP1 ISZERO PUSH2 0x129B JUMPI DUP1 PUSH1 0x1F LT PUSH2 0x1270 JUMPI PUSH2 0x100 DUP1 DUP4 SLOAD DIV MUL DUP4 MSTORE SWAP2 PUSH1 0x20 ADD SWAP2 PUSH2 0x129B JUMP JUMPDEST DUP3 ADD SWAP2 SWAP1 PUSH1 0x0 MSTORE PUSH1 0x20 PUSH1 0x0 KECCAK256 SWAP1 JUMPDEST DUP2 SLOAD DUP2 MSTORE SWAP1 PUSH1 0x1 ADD SWAP1 PUSH1 0x20 ADD DUP1 DUP4 GT PUSH2 0x127E JUMPI DUP3 SWAP1 SUB PUSH1 0x1F AND DUP3 ADD SWAP2 JUMPDEST POP POP POP POP POP SWAP1 POP SWAP2 SWAP1 POP JUMP JUMPDEST PUSH1 0x0 PUSH1 0x2 PUSH1 0x0 DUP5 PUSH20 0xFFFFFFFFFFFFFFFFFFFFFFFFFFFFFFFFFFFFFFFF AND PUSH20 0xFFFFFFFFFFFFFFFFFFFFFFFFFFFFFFFFFFFFFFFF AND DUP2 MSTORE PUSH1 0x20 ADD SWAP1 DUP2 MSTORE PUSH1 0x20 ADD PUSH1 0x0 KECCAK256 PUSH1 0x0 DUP4 PUSH20 0xFFFFFFFFFFFFFFFFFFFFFFFFFFFFFFFFFFFFFFFF AND PUSH20 0xFFFFFFFFFFFFFFFFFFFFFFFFFFFFFFFFFFFFFFFF AND DUP2 MSTORE PUSH1 0x20 ADD SWAP1 DUP2 MSTORE PUSH1 0x20 ADD PUSH1 0x0 KECCAK256 PUSH1 0x0 SWAP1 SLOAD SWAP1 PUSH2 0x100 EXP SWAP1 DIV PUSH1 0xFF AND SWAP1 POP SWAP3 SWAP2 POP POP JUMP JUMPDEST DUP2 PUSH1 0x3 PUSH1 0x0 DUP4 DUP2 MSTORE PUSH1 0x20 ADD SWAP1 DUP2 MSTORE PUSH1 0x20 ADD PUSH1 0x0 KECCAK256 PUSH1 0x0 PUSH2 0x100 EXP DUP2 SLOAD DUP2 PUSH20 0xFFFFFFFFFFFFFFFFFFFFFFFFFFFFFFFFFFFFFFFF MUL NOT AND SWAP1 DUP4 PUSH20 0xFFFFFFFFFFFFFFFFFFFFFFFFFFFFFFFFFFFFFFFF AND MUL OR SWAP1 SSTORE POP PUSH1 0x0 PUSH2 0x1398 DUP3 PUSH2 0xE3F JUMP JUMPDEST SWAP1 POP DUP2 DUP4 PUSH20 0xFFFFFFFFFFFFFFFFFFFFFFFFFFFFFFFFFFFFFFFF AND DUP3 PUSH20 0xFFFFFFFFFFFFFFFFFFFFFFFFFFFFFFFFFFFFFFFF AND PUSH32 0x8C5BE1E5EBEC7D5BD14F71427D1E84F3DD0314C0F7B2291E5B200AC8C7C3B925 PUSH1 0x40 MLOAD PUSH1 0x40 MLOAD DUP1 SWAP2 SUB SWAP1 LOG4 POP POP POP JUMP JUMPDEST PUSH1 0x0 PUSH20 0xFFFFFFFFFFFFFFFFFFFFFFFFFFFFFFFFFFFFFFFF AND DUP4 PUSH20 0xFFFFFFFFFFFFFFFFFFFFFFFFFFFFFFFFFFFFFFFF AND EQ ISZERO PUSH2 0x146A JUMPI PUSH1 0x40 MLOAD PUSH32 0x8C379A000000000000000000000000000000000000000000000000000000000 DUP2 MSTORE PUSH1 0x4 ADD PUSH2 0x1461 SWAP1 PUSH2 0x2380 JUMP JUMPDEST PUSH1 0x40 MLOAD DUP1 SWAP2 SUB SWAP1 REVERT JUMPDEST PUSH1 0x0 PUSH20 0xFFFFFFFFFFFFFFFFFFFFFFFFFFFFFFFFFFFFFFFF AND PUSH1 0x1 PUSH1 0x0 DUP5 DUP2 MSTORE PUSH1 0x20 ADD SWAP1 DUP2 MSTORE PUSH1 0x20 ADD PUSH1 0x0 KECCAK256 PUSH1 0x0 SWAP1 SLOAD SWAP1 PUSH2 0x100 EXP SWAP1 DIV PUSH20 0xFFFFFFFFFFFFFFFFFFFFFFFFFFFFFFFFFFFFFFFF AND PUSH20 0xFFFFFFFFFFFFFFFFFFFFFFFFFFFFFFFFFFFFFFFF AND EQ PUSH2 0x150C JUMPI PUSH1 0x40 MLOAD PUSH32 0x8C379A000000000000000000000000000000000000000000000000000000000 DUP2 MSTORE PUSH1 0x4 ADD PUSH2 0x1503 SWAP1 PUSH2 0x2460 JUMP JUMPDEST PUSH1 0x40 MLOAD DUP1 SWAP2 SUB SWAP1 REVERT JUMPDEST PUSH1 0x1 PUSH1 0x0 DUP1 DUP6 PUSH20 0xFFFFFFFFFFFFFFFFFFFFFFFFFFFFFFFFFFFFFFFF AND PUSH20 0xFFFFFFFFFFFFFFFFFFFFFFFFFFFFFFFFFFFFFFFF AND DUP2 MSTORE PUSH1 0x20 ADD SWAP1 DUP2 MSTORE PUSH1 0x20 ADD PUSH1 0x0 KECCAK256 PUSH1 0x0 DUP3 DUP3 SLOAD PUSH2 0x155B SWAP2 SWAP1 PUSH2 0x25C6 JUMP JUMPDEST SWAP3 POP POP DUP2 SWAP1 SSTORE POP DUP3 PUSH1 0x1 PUSH1 0x0 DUP5 DUP2 MSTORE PUSH1 0x20 ADD SWAP1 DUP2 MSTORE PUSH1 0x20 ADD PUSH1 0x0 KECCAK256 PUSH1 0x0 PUSH2 0x100 EXP DUP2 SLOAD DUP2 PUSH20 0xFFFFFFFFFFFFFFFFFFFFFFFFFFFFFFFFFFFFFFFF MUL NOT AND SWAP1 DUP4 PUSH20 0xFFFFFFFFFFFFFFFFFFFFFFFFFFFFFFFFFFFFFFFF AND MUL OR SWAP1 SSTORE POP DUP1 PUSH1 0x6 PUSH1 0x0 DUP5 DUP2 MSTORE PUSH1 0x20 ADD SWAP1 DUP2 MSTORE PUSH1 0x20 ADD PUSH1 0x0 KECCAK256 SWAP1 DUP1 MLOAD SWAP1 PUSH1 0x20 ADD SWAP1 PUSH2 0x15DB SWAP3 SWAP2 SWAP1 PUSH2 0x1ACA JUMP JUMPDEST POP DUP2 DUP4 PUSH20 0xFFFFFFFFFFFFFFFFFFFFFFFFFFFFFFFFFFFFFFFF AND PUSH1 0x0 PUSH20 0xFFFFFFFFFFFFFFFFFFFFFFFFFFFFFFFFFFFFFFFF AND PUSH32 0xDDF252AD1BE2C89B69C2B068FC378DAA952BA7F163C4A11628F55A4DF523B3EF PUSH1 0x40 MLOAD PUSH1 0x40 MLOAD DUP1 SWAP2 SUB SWAP1 LOG4 PUSH2 0x1641 DUP3 PUSH2 0x1A75 JUMP JUMPDEST PUSH2 0x164B DUP4 DUP4 PUSH2 0x17E8 JUMP JUMPDEST POP POP POP JUMP JUMPDEST PUSH1 0x0 PUSH1 0x8 PUSH1 0x0 DUP4 DUP2 MSTORE PUSH1 0x20 ADD SWAP1 DUP2 MSTORE PUSH1 0x20 ADD PUSH1 0x0 KECCAK256 SLOAD SWAP1 POP PUSH1 0x0 DUP1 PUSH1 0x0 DUP6 PUSH20 0xFFFFFFFFFFFFFFFFFFFFFFFFFFFFFFFFFFFFFFFF AND PUSH20 0xFFFFFFFFFFFFFFFFFFFFFFFFFFFFFFFFFFFFFFFF AND DUP2 MSTORE PUSH1 0x20 ADD SWAP1 DUP2 MSTORE PUSH1 0x20 ADD PUSH1 0x0 KECCAK256 SLOAD SWAP1 POP DUP1 DUP3 LT ISZERO PUSH2 0x1777 JUMPI PUSH1 0x0 PUSH1 0x7 PUSH1 0x0 DUP7 PUSH20 0xFFFFFFFFFFFFFFFFFFFFFFFFFFFFFFFFFFFFFFFF AND PUSH20 0xFFFFFFFFFFFFFFFFFFFFFFFFFFFFFFFFFFFFFFFF AND DUP2 MSTORE PUSH1 0x20 ADD SWAP1 DUP2 MSTORE PUSH1 0x20 ADD PUSH1 0x0 KECCAK256 PUSH1 0x0 DUP4 DUP2 MSTORE PUSH1 0x20 ADD SWAP1 DUP2 MSTORE PUSH1 0x20 ADD PUSH1 0x0 KECCAK256 SLOAD SWAP1 POP DUP1 PUSH1 0x7 PUSH1 0x0 DUP8 PUSH20 0xFFFFFFFFFFFFFFFFFFFFFFFFFFFFFFFFFFFFFFFF AND PUSH20 0xFFFFFFFFFFFFFFFFFFFFFFFFFFFFFFFFFFFFFFFF AND DUP2 MSTORE PUSH1 0x20 ADD SWAP1 DUP2 MSTORE PUSH1 0x20 ADD PUSH1 0x0 KECCAK256 PUSH1 0x0 DUP6 DUP2 MSTORE PUSH1 0x20 ADD SWAP1 DUP2 MSTORE PUSH1 0x20 ADD PUSH1 0x0 KECCAK256 DUP2 SWAP1 SSTORE POP DUP3 PUSH1 0x8 PUSH1 0x0 DUP4 DUP2 MSTORE PUSH1 0x20 ADD SWAP1 DUP2 MSTORE PUSH1 0x20 ADD PUSH1 0x0 KECCAK256 DUP2 SWAP1 SSTORE POP POP JUMPDEST PUSH1 0x7 PUSH1 0x0 DUP6 PUSH20 0xFFFFFFFFFFFFFFFFFFFFFFFFFFFFFFFFFFFFFFFF AND PUSH20 0xFFFFFFFFFFFFFFFFFFFFFFFFFFFFFFFFFFFFFFFF AND DUP2 MSTORE PUSH1 0x20 ADD SWAP1 DUP2 MSTORE PUSH1 0x20 ADD PUSH1 0x0 KECCAK256 PUSH1 0x0 DUP3 DUP2 MSTORE PUSH1 0x20 ADD SWAP1 DUP2 MSTORE PUSH1 0x20 ADD PUSH1 0x0 KECCAK256 PUSH1 0x0 SWAP1 SSTORE PUSH1 0x8 PUSH1 0x0 DUP5 DUP2 MSTORE PUSH1 0x20 ADD SWAP1 DUP2 MSTORE PUSH1 0x20 ADD PUSH1 0x0 KECCAK256 PUSH1 0x0 SWAP1 SSTORE POP POP POP POP JUMP JUMPDEST PUSH1 0x0 PUSH1 0x1 PUSH1 0x0 DUP1 DUP6 PUSH20 0xFFFFFFFFFFFFFFFFFFFFFFFFFFFFFFFFFFFFFFFF AND PUSH20 0xFFFFFFFFFFFFFFFFFFFFFFFFFFFFFFFFFFFFFFFF AND DUP2 MSTORE PUSH1 0x20 ADD SWAP1 DUP2 MSTORE PUSH1 0x20 ADD PUSH1 0x0 KECCAK256 SLOAD PUSH2 0x1835 SWAP2 SWAP1 PUSH2 0x261C JUMP JUMPDEST SWAP1 POP DUP2 PUSH1 0x7 PUSH1 0x0 DUP6 PUSH20 0xFFFFFFFFFFFFFFFFFFFFFFFFFFFFFFFFFFFFFFFF AND PUSH20 0xFFFFFFFFFFFFFFFFFFFFFFFFFFFFFFFFFFFFFFFF AND DUP2 MSTORE PUSH1 0x20 ADD SWAP1 DUP2 MSTORE PUSH1 0x20 ADD PUSH1 0x0 KECCAK256 PUSH1 0x0 DUP4 DUP2 MSTORE PUSH1 0x20 ADD SWAP1 DUP2 MSTORE PUSH1 0x20 ADD PUSH1 0x0 KECCAK256 DUP2 SWAP1 SSTORE POP DUP1 PUSH1 0x8 PUSH1 0x0 DUP5 DUP2 MSTORE PUSH1 0x20 ADD SWAP1 DUP2 MSTORE PUSH1 0x20 ADD PUSH1 0x0 KECCAK256 DUP2 SWAP1 SSTORE POP POP POP POP JUMP JUMPDEST PUSH1 0x0 DUP1 DUP5 PUSH20 0xFFFFFFFFFFFFFFFFFFFFFFFFFFFFFFFFFFFFFFFF AND EXTCODESIZE GT PUSH2 0x18D2 JUMPI PUSH1 0x1 SWAP1 POP PUSH2 0x1A6D JUMP JUMPDEST PUSH1 0x0 DUP5 SWAP1 POP DUP1 PUSH20 0xFFFFFFFFFFFFFFFFFFFFFFFFFFFFFFFFFFFFFFFF AND PUSH4 0x150B7A02 CALLER DUP9 DUP8 DUP8 PUSH1 0x40 MLOAD DUP6 PUSH4 0xFFFFFFFF AND PUSH1 0xE0 SHL DUP2 MSTORE PUSH1 0x4 ADD PUSH2 0x1916 SWAP5 SWAP4 SWAP3 SWAP2 SWAP1 PUSH2 0x2297 JUMP JUMPDEST PUSH1 0x20 PUSH1 0x40 MLOAD DUP1 DUP4 SUB DUP2 PUSH1 0x0 DUP8 DUP1 EXTCODESIZE ISZERO DUP1 ISZERO PUSH2 0x1930 JUMPI PUSH1 0x0 DUP1 REVERT JUMPDEST POP GAS CALL SWAP3 POP POP POP DUP1 ISZERO PUSH2 0x1961 JUMPI POP PUSH1 0x40 MLOAD RETURNDATASIZE PUSH1 0x1F NOT PUSH1 0x1F DUP3 ADD AND DUP3 ADD DUP1 PUSH1 0x40 MSTORE POP DUP2 ADD SWAP1 PUSH2 0x195E SWAP2 SWAP1 PUSH2 0x1FBC JUMP JUMPDEST PUSH1 0x1 JUMPDEST PUSH2 0x1A07 JUMPI PUSH2 0x196D PUSH2 0x286E JUMP JUMPDEST DUP1 PUSH4 0x8C379A0 EQ ISZERO PUSH2 0x19CA JUMPI POP PUSH2 0x1982 PUSH2 0x2B28 JUMP JUMPDEST DUP1 PUSH2 0x198D JUMPI POP PUSH2 0x19CC JUMP JUMPDEST DUP1 PUSH1 0x40 MLOAD PUSH32 0x8C379A000000000000000000000000000000000000000000000000000000000 DUP2 MSTORE PUSH1 0x4 ADD PUSH2 0x19C1 SWAP2 SWAP1 PUSH2 0x22FE JUMP JUMPDEST PUSH1 0x40 MLOAD DUP1 SWAP2 SUB SWAP1 REVERT JUMPDEST POP JUMPDEST PUSH1 0x40 MLOAD PUSH32 0x8C379A000000000000000000000000000000000000000000000000000000000 DUP2 MSTORE PUSH1 0x4 ADD PUSH2 0x19FE SWAP1 PUSH2 0x23A0 JUMP JUMPDEST PUSH1 0x40 MLOAD DUP1 SWAP2 SUB SWAP1 REVERT JUMPDEST PUSH32 0x150B7A0200000000000000000000000000000000000000000000000000000000 PUSH28 0xFFFFFFFFFFFFFFFFFFFFFFFFFFFFFFFFFFFFFFFFFFFFFFFFFFFFFFFF NOT AND DUP2 PUSH28 0xFFFFFFFFFFFFFFFFFFFFFFFFFFFFFFFFFFFFFFFFFFFFFFFFFFFFFFFF NOT AND EQ SWAP3 POP POP POP JUMPDEST SWAP5 SWAP4 POP POP POP POP JUMP JUMPDEST PUSH1 0x9 DUP2 SWAP1 DUP1 PUSH1 0x1 DUP2 SLOAD ADD DUP1 DUP3 SSTORE DUP1 SWAP2 POP POP PUSH1 0x1 SWAP1 SUB SWAP1 PUSH1 0x0 MSTORE PUSH1 0x20 PUSH1 0x0 KECCAK256 ADD PUSH1 0x0 SWAP1 SWAP2 SWAP1 SWAP2 SWAP1 SWAP2 POP SSTORE PUSH1 0x1 PUSH1 0x9 DUP1 SLOAD SWAP1 POP PUSH2 0x1AB0 SWAP2 SWAP1 PUSH2 0x261C JUMP JUMPDEST PUSH1 0xA PUSH1 0x0 DUP4 DUP2 MSTORE PUSH1 0x20 ADD SWAP1 DUP2 MSTORE PUSH1 0x20 ADD PUSH1 0x0 KECCAK256 DUP2 SWAP1 SSTORE POP POP JUMP JUMPDEST DUP3 DUP1 SLOAD PUSH2 0x1AD6 SWAP1 PUSH2 0x2706 JUMP JUMPDEST SWAP1 PUSH1 0x0 MSTORE PUSH1 0x20 PUSH1 0x0 KECCAK256 SWAP1 PUSH1 0x1F ADD PUSH1 0x20 SWAP1 DIV DUP2 ADD SWAP3 DUP3 PUSH2 0x1AF8 JUMPI PUSH1 0x0 DUP6 SSTORE PUSH2 0x1B3F JUMP JUMPDEST DUP3 PUSH1 0x1F LT PUSH2 0x1B11 JUMPI DUP1 MLOAD PUSH1 0xFF NOT AND DUP4 DUP1 ADD OR DUP6 SSTORE PUSH2 0x1B3F JUMP JUMPDEST DUP3 DUP1 ADD PUSH1 0x1 ADD DUP6 SSTORE DUP3 ISZERO PUSH2 0x1B3F JUMPI SWAP2 DUP3 ADD JUMPDEST DUP3 DUP2 GT ISZERO PUSH2 0x1B3E JUMPI DUP3 MLOAD DUP3 SSTORE SWAP2 PUSH1 0x20 ADD SWAP2 SWAP1 PUSH1 0x1 ADD SWAP1 PUSH2 0x1B23 JUMP JUMPDEST JUMPDEST POP SWAP1 POP PUSH2 0x1B4C SWAP2 SWAP1 PUSH2 0x1B50 JUMP JUMPDEST POP SWAP1 JUMP JUMPDEST JUMPDEST DUP1 DUP3 GT ISZERO PUSH2 0x1B69 JUMPI PUSH1 0x0 DUP2 PUSH1 0x0 SWAP1 SSTORE POP PUSH1 0x1 ADD PUSH2 0x1B51 JUMP JUMPDEST POP SWAP1 JUMP JUMPDEST PUSH1 0x0 PUSH2 0x1B80 PUSH2 0x1B7B DUP5 PUSH2 0x2500 JUMP JUMPDEST PUSH2 0x24DB JUMP JUMPDEST SWAP1 POP DUP1 DUP4 DUP3 MSTORE PUSH1 0x20 DUP3 ADD SWAP1 POP DUP3 DUP6 PUSH1 0x20 DUP7 MUL DUP3 ADD GT ISZERO PUSH2 0x1BA3 JUMPI PUSH2 0x1BA2 PUSH2 0x2895 JUMP JUMPDEST JUMPDEST PUSH1 0x0 JUMPDEST DUP6 DUP2 LT ISZERO PUSH2 0x1BD3 JUMPI DUP2 PUSH2 0x1BB9 DUP9 DUP3 PUSH2 0x1D3F JUMP JUMPDEST DUP5 MSTORE PUSH1 0x20 DUP5 ADD SWAP4 POP PUSH1 0x20 DUP4 ADD SWAP3 POP POP PUSH1 0x1 DUP2 ADD SWAP1 POP PUSH2 0x1BA6 JUMP JUMPDEST POP POP POP SWAP4 SWAP3 POP POP POP JUMP JUMPDEST PUSH1 0x0 PUSH2 0x1BF0 PUSH2 0x1BEB DUP5 PUSH2 0x252C JUMP JUMPDEST PUSH2 0x24DB JUMP JUMPDEST SWAP1 POP DUP3 DUP2 MSTORE PUSH1 0x20 DUP2 ADD DUP5 DUP5 DUP5 ADD GT ISZERO PUSH2 0x1C0C JUMPI PUSH2 0x1C0B PUSH2 0x289A JUMP JUMPDEST JUMPDEST PUSH2 0x1C17 DUP5 DUP3 DUP6 PUSH2 0x26C4 JUMP JUMPDEST POP SWAP4 SWAP3 POP POP POP JUMP JUMPDEST PUSH1 0x0 PUSH2 0x1C32 PUSH2 0x1C2D DUP5 PUSH2 0x255D JUMP JUMPDEST PUSH2 0x24DB JUMP JUMPDEST SWAP1 POP DUP3 DUP2 MSTORE PUSH1 0x20 DUP2 ADD DUP5 DUP5 DUP5 ADD GT ISZERO PUSH2 0x1C4E JUMPI PUSH2 0x1C4D PUSH2 0x289A JUMP JUMPDEST JUMPDEST PUSH2 0x1C59 DUP5 DUP3 DUP6 PUSH2 0x26C4 JUMP JUMPDEST POP SWAP4 SWAP3 POP POP POP JUMP JUMPDEST PUSH1 0x0 DUP2 CALLDATALOAD SWAP1 POP PUSH2 0x1C70 DUP2 PUSH2 0x2BBE JUMP JUMPDEST SWAP3 SWAP2 POP POP JUMP JUMPDEST PUSH1 0x0 DUP3 PUSH1 0x1F DUP4 ADD SLT PUSH2 0x1C8B JUMPI PUSH2 0x1C8A PUSH2 0x2890 JUMP JUMPDEST JUMPDEST DUP2 CALLDATALOAD PUSH2 0x1C9B DUP5 DUP3 PUSH1 0x20 DUP7 ADD PUSH2 0x1B6D JUMP JUMPDEST SWAP2 POP POP SWAP3 SWAP2 POP POP JUMP JUMPDEST PUSH1 0x0 DUP2 CALLDATALOAD SWAP1 POP PUSH2 0x1CB3 DUP2 PUSH2 0x2BD5 JUMP JUMPDEST SWAP3 SWAP2 POP POP JUMP JUMPDEST PUSH1 0x0 DUP2 CALLDATALOAD SWAP1 POP PUSH2 0x1CC8 DUP2 PUSH2 0x2BEC JUMP JUMPDEST SWAP3 SWAP2 POP POP JUMP JUMPDEST PUSH1 0x0 DUP2 MLOAD SWAP1 POP PUSH2 0x1CDD DUP2 PUSH2 0x2BEC JUMP JUMPDEST SWAP3 SWAP2 POP POP JUMP JUMPDEST PUSH1 0x0 DUP3 PUSH1 0x1F DUP4 ADD SLT PUSH2 0x1CF8 JUMPI PUSH2 0x1CF7 PUSH2 0x2890 JUMP JUMPDEST JUMPDEST DUP2 CALLDATALOAD PUSH2 0x1D08 DUP5 DUP3 PUSH1 0x20 DUP7 ADD PUSH2 0x1BDD JUMP JUMPDEST SWAP2 POP POP SWAP3 SWAP2 POP POP JUMP JUMPDEST PUSH1 0x0 DUP3 PUSH1 0x1F DUP4 ADD SLT PUSH2 0x1D26 JUMPI PUSH2 0x1D25 PUSH2 0x2890 JUMP JUMPDEST JUMPDEST DUP2 CALLDATALOAD PUSH2 0x1D36 DUP5 DUP3 PUSH1 0x20 DUP7 ADD PUSH2 0x1C1F JUMP JUMPDEST SWAP2 POP POP SWAP3 SWAP2 POP POP JUMP JUMPDEST PUSH1 0x0 DUP2 CALLDATALOAD SWAP1 POP PUSH2 0x1D4E DUP2 PUSH2 0x2C03 JUMP JUMPDEST SWAP3 SWAP2 POP POP JUMP JUMPDEST PUSH1 0x0 PUSH1 0x20 DUP3 DUP5 SUB SLT ISZERO PUSH2 0x1D6A JUMPI PUSH2 0x1D69 PUSH2 0x28A4 JUMP JUMPDEST JUMPDEST PUSH1 0x0 PUSH2 0x1D78 DUP5 DUP3 DUP6 ADD PUSH2 0x1C61 JUMP JUMPDEST SWAP2 POP POP SWAP3 SWAP2 POP POP JUMP JUMPDEST PUSH1 0x0 DUP1 PUSH1 0x40 DUP4 DUP6 SUB SLT ISZERO PUSH2 0x1D98 JUMPI PUSH2 0x1D97 PUSH2 0x28A4 JUMP JUMPDEST JUMPDEST PUSH1 0x0 PUSH2 0x1DA6 DUP6 DUP3 DUP7 ADD PUSH2 0x1C61 JUMP JUMPDEST SWAP3 POP POP PUSH1 0x20 PUSH2 0x1DB7 DUP6 DUP3 DUP7 ADD PUSH2 0x1C61 JUMP JUMPDEST SWAP2 POP POP SWAP3 POP SWAP3 SWAP1 POP JUMP JUMPDEST PUSH1 0x0 DUP1 PUSH1 0x0 PUSH1 0x60 DUP5 DUP7 SUB SLT ISZERO PUSH2 0x1DDA JUMPI PUSH2 0x1DD9 PUSH2 0x28A4 JUMP JUMPDEST JUMPDEST PUSH1 0x0 PUSH2 0x1DE8 DUP7 DUP3 DUP8 ADD PUSH2 0x1C61 JUMP JUMPDEST SWAP4 POP POP PUSH1 0x20 PUSH2 0x1DF9 DUP7 DUP3 DUP8 ADD PUSH2 0x1C61 JUMP JUMPDEST SWAP3 POP POP PUSH1 0x40 PUSH2 0x1E0A DUP7 DUP3 DUP8 ADD PUSH2 0x1D3F JUMP JUMPDEST SWAP2 POP POP SWAP3 POP SWAP3 POP SWAP3 JUMP JUMPDEST PUSH1 0x0 DUP1 PUSH1 0x0 DUP1 PUSH1 0x80 DUP6 DUP8 SUB SLT ISZERO PUSH2 0x1E2E JUMPI PUSH2 0x1E2D PUSH2 0x28A4 JUMP JUMPDEST JUMPDEST PUSH1 0x0 PUSH2 0x1E3C DUP8 DUP3 DUP9 ADD PUSH2 0x1C61 JUMP JUMPDEST SWAP5 POP POP PUSH1 0x20 PUSH2 0x1E4D DUP8 DUP3 DUP9 ADD PUSH2 0x1C61 JUMP JUMPDEST SWAP4 POP POP PUSH1 0x40 PUSH2 0x1E5E DUP8 DUP3 DUP9 ADD PUSH2 0x1D3F JUMP JUMPDEST SWAP3 POP POP PUSH1 0x60 DUP6 ADD CALLDATALOAD PUSH8 0xFFFFFFFFFFFFFFFF DUP2 GT ISZERO PUSH2 0x1E7F JUMPI PUSH2 0x1E7E PUSH2 0x289F JUMP JUMPDEST JUMPDEST PUSH2 0x1E8B DUP8 DUP3 DUP9 ADD PUSH2 0x1CE3 JUMP JUMPDEST SWAP2 POP POP SWAP3 SWAP6 SWAP2 SWAP5 POP SWAP3 POP JUMP JUMPDEST PUSH1 0x0 DUP1 PUSH1 0x40 DUP4 DUP6 SUB SLT ISZERO PUSH2 0x1EAE JUMPI PUSH2 0x1EAD PUSH2 0x28A4 JUMP JUMPDEST JUMPDEST PUSH1 0x0 PUSH2 0x1EBC DUP6 DUP3 DUP7 ADD PUSH2 0x1C61 JUMP JUMPDEST SWAP3 POP POP PUSH1 0x20 PUSH2 0x1ECD DUP6 DUP3 DUP7 ADD PUSH2 0x1CA4 JUMP JUMPDEST SWAP2 POP POP SWAP3 POP SWAP3 SWAP1 POP JUMP JUMPDEST PUSH1 0x0 DUP1 PUSH1 0x40 DUP4 DUP6 SUB SLT ISZERO PUSH2 0x1EEE JUMPI PUSH2 0x1EED PUSH2 0x28A4 JUMP JUMPDEST JUMPDEST PUSH1 0x0 PUSH2 0x1EFC DUP6 DUP3 DUP7 ADD PUSH2 0x1C61 JUMP JUMPDEST SWAP3 POP POP PUSH1 0x20 PUSH2 0x1F0D DUP6 DUP3 DUP7 ADD PUSH2 0x1D3F JUMP JUMPDEST SWAP2 POP POP SWAP3 POP SWAP3 SWAP1 POP JUMP JUMPDEST PUSH1 0x0 DUP1 PUSH1 0x40 DUP4 DUP6 SUB SLT ISZERO PUSH2 0x1F2E JUMPI PUSH2 0x1F2D PUSH2 0x28A4 JUMP JUMPDEST JUMPDEST PUSH1 0x0 DUP4 ADD CALLDATALOAD PUSH8 0xFFFFFFFFFFFFFFFF DUP2 GT ISZERO PUSH2 0x1F4C JUMPI PUSH2 0x1F4B PUSH2 0x289F JUMP JUMPDEST JUMPDEST PUSH2 0x1F58 DUP6 DUP3 DUP7 ADD PUSH2 0x1C76 JUMP JUMPDEST SWAP3 POP POP PUSH1 0x20 DUP4 ADD CALLDATALOAD PUSH8 0xFFFFFFFFFFFFFFFF DUP2 GT ISZERO PUSH2 0x1F79 JUMPI PUSH2 0x1F78 PUSH2 0x289F JUMP JUMPDEST JUMPDEST PUSH2 0x1F85 DUP6 DUP3 DUP7 ADD PUSH2 0x1D11 JUMP JUMPDEST SWAP2 POP POP SWAP3 POP SWAP3 SWAP1 POP JUMP JUMPDEST PUSH1 0x0 PUSH1 0x20 DUP3 DUP5 SUB SLT ISZERO PUSH2 0x1FA5 JUMPI PUSH2 0x1FA4 PUSH2 0x28A4 JUMP JUMPDEST JUMPDEST PUSH1 0x0 PUSH2 0x1FB3 DUP5 DUP3 DUP6 ADD PUSH2 0x1CB9 JUMP JUMPDEST SWAP2 POP POP SWAP3 SWAP2 POP POP JUMP JUMPDEST PUSH1 0x0 PUSH1 0x20 DUP3 DUP5 SUB SLT ISZERO PUSH2 0x1FD2 JUMPI PUSH2 0x1FD1 PUSH2 0x28A4 JUMP JUMPDEST JUMPDEST PUSH1 0x0 PUSH2 0x1FE0 DUP5 DUP3 DUP6 ADD PUSH2 0x1CCE JUMP JUMPDEST SWAP2 POP POP SWAP3 SWAP2 POP POP JUMP JUMPDEST PUSH1 0x0 PUSH1 0x20 DUP3 DUP5 SUB SLT ISZERO PUSH2 0x1FFF JUMPI PUSH2 0x1FFE PUSH2 0x28A4 JUMP JUMPDEST JUMPDEST PUSH1 0x0 PUSH2 0x200D DUP5 DUP3 DUP6 ADD PUSH2 0x1D3F JUMP JUMPDEST SWAP2 POP POP SWAP3 SWAP2 POP POP JUMP JUMPDEST PUSH2 0x201F DUP2 PUSH2 0x2650 JUMP JUMPDEST DUP3 MSTORE POP POP JUMP JUMPDEST PUSH2 0x202E DUP2 PUSH2 0x2662 JUMP JUMPDEST DUP3 MSTORE POP POP JUMP JUMPDEST PUSH1 0x0 PUSH2 0x203F DUP3 PUSH2 0x258E JUMP JUMPDEST PUSH2 0x2049 DUP2 DUP6 PUSH2 0x25A4 JUMP JUMPDEST SWAP4 POP PUSH2 0x2059 DUP2 DUP6 PUSH1 0x20 DUP7 ADD PUSH2 0x26D3 JUMP JUMPDEST PUSH2 0x2062 DUP2 PUSH2 0x28A9 JUMP JUMPDEST DUP5 ADD SWAP2 POP POP SWAP3 SWAP2 POP POP JUMP JUMPDEST PUSH1 0x0 PUSH2 0x2078 DUP3 PUSH2 0x2599 JUMP JUMPDEST PUSH2 0x2082 DUP2 DUP6 PUSH2 0x25B5 JUMP JUMPDEST SWAP4 POP PUSH2 0x2092 DUP2 DUP6 PUSH1 0x20 DUP7 ADD PUSH2 0x26D3 JUMP JUMPDEST PUSH2 0x209B DUP2 PUSH2 0x28A9 JUMP JUMPDEST DUP5 ADD SWAP2 POP POP SWAP3 SWAP2 POP POP JUMP JUMPDEST PUSH1 0x0 PUSH2 0x20B3 PUSH1 0x1A DUP4 PUSH2 0x25B5 JUMP JUMPDEST SWAP2 POP PUSH2 0x20BE DUP3 PUSH2 0x28C7 JUMP JUMPDEST PUSH1 0x20 DUP3 ADD SWAP1 POP SWAP2 SWAP1 POP JUMP JUMPDEST PUSH1 0x0 PUSH2 0x20D6 PUSH1 0x1F DUP4 PUSH2 0x25B5 JUMP JUMPDEST SWAP2 POP PUSH2 0x20E1 DUP3 PUSH2 0x28F0 JUMP JUMPDEST PUSH1 0x20 DUP3 ADD SWAP1 POP SWAP2 SWAP1 POP JUMP JUMPDEST PUSH1 0x0 PUSH2 0x20F9 PUSH1 0x15 DUP4 PUSH2 0x25B5 JUMP JUMPDEST SWAP2 POP PUSH2 0x2104 DUP3 PUSH2 0x2919 JUMP JUMPDEST PUSH1 0x20 DUP3 ADD SWAP1 POP SWAP2 SWAP1 POP JUMP JUMPDEST PUSH1 0x0 PUSH2 0x211C PUSH1 0x14 DUP4 PUSH2 0x25B5 JUMP JUMPDEST SWAP2 POP PUSH2 0x2127 DUP3 PUSH2 0x2942 JUMP JUMPDEST PUSH1 0x20 DUP3 ADD SWAP1 POP SWAP2 SWAP1 POP JUMP JUMPDEST PUSH1 0x0 PUSH2 0x213F PUSH1 0x2A DUP4 PUSH2 0x25B5 JUMP JUMPDEST SWAP2 POP PUSH2 0x214A DUP3 PUSH2 0x296B JUMP JUMPDEST PUSH1 0x40 DUP3 ADD SWAP1 POP SWAP2 SWAP1 POP JUMP JUMPDEST PUSH1 0x0 PUSH2 0x2162 PUSH1 0x2D DUP4 PUSH2 0x25B5 JUMP JUMPDEST SWAP2 POP PUSH2 0x216D DUP3 PUSH2 0x29BA JUMP JUMPDEST PUSH1 0x40 DUP3 ADD SWAP1 POP SWAP2 SWAP1 POP JUMP JUMPDEST PUSH1 0x0 PUSH2 0x2185 PUSH1 0x18 DUP4 PUSH2 0x25B5 JUMP JUMPDEST SWAP2 POP PUSH2 0x2190 DUP3 PUSH2 0x2A09 JUMP JUMPDEST PUSH1 0x20 DUP3 ADD SWAP1 POP SWAP2 SWAP1 POP JUMP JUMPDEST PUSH1 0x0 PUSH2 0x21A8 PUSH1 0xD DUP4 PUSH2 0x25B5 JUMP JUMPDEST SWAP2 POP PUSH2 0x21B3 DUP3 PUSH2 0x2A32 JUMP JUMPDEST PUSH1 0x20 DUP3 ADD SWAP1 POP SWAP2 SWAP1 POP JUMP JUMPDEST PUSH1 0x0 PUSH2 0x21CB PUSH1 0x20 DUP4 PUSH2 0x25B5 JUMP JUMPDEST SWAP2 POP PUSH2 0x21D6 DUP3 PUSH2 0x2A5B JUMP JUMPDEST PUSH1 0x20 DUP3 ADD SWAP1 POP SWAP2 SWAP1 POP JUMP JUMPDEST PUSH1 0x0 PUSH2 0x21EE PUSH1 0x18 DUP4 PUSH2 0x25B5 JUMP JUMPDEST SWAP2 POP PUSH2 0x21F9 DUP3 PUSH2 0x2A84 JUMP JUMPDEST PUSH1 0x20 DUP3 ADD SWAP1 POP SWAP2 SWAP1 POP JUMP JUMPDEST PUSH1 0x0 PUSH2 0x2211 PUSH1 0x14 DUP4 PUSH2 0x25B5 JUMP JUMPDEST SWAP2 POP PUSH2 0x221C DUP3 PUSH2 0x2AAD JUMP JUMPDEST PUSH1 0x20 DUP3 ADD SWAP1 POP SWAP2 SWAP1 POP JUMP JUMPDEST PUSH1 0x0 PUSH2 0x2234 PUSH1 0x13 DUP4 PUSH2 0x25B5 JUMP JUMPDEST SWAP2 POP PUSH2 0x223F DUP3 PUSH2 0x2AD6 JUMP JUMPDEST PUSH1 0x20 DUP3 ADD SWAP1 POP SWAP2 SWAP1 POP JUMP JUMPDEST PUSH1 0x0 PUSH2 0x2257 PUSH1 0x13 DUP4 PUSH2 0x25B5 JUMP JUMPDEST SWAP2 POP PUSH2 0x2262 DUP3 PUSH2 0x2AFF JUMP JUMPDEST PUSH1 0x20 DUP3 ADD SWAP1 POP SWAP2 SWAP1 POP JUMP JUMPDEST PUSH2 0x2276 DUP2 PUSH2 0x26BA JUMP JUMPDEST DUP3 MSTORE POP POP JUMP JUMPDEST PUSH1 0x0 PUSH1 0x20 DUP3 ADD SWAP1 POP PUSH2 0x2291 PUSH1 0x0 DUP4 ADD DUP5 PUSH2 0x2016 JUMP JUMPDEST SWAP3 SWAP2 POP POP JUMP JUMPDEST PUSH1 0x0 PUSH1 0x80 DUP3 ADD SWAP1 POP PUSH2 0x22AC PUSH1 0x0 DUP4 ADD DUP8 PUSH2 0x2016 JUMP JUMPDEST PUSH2 0x22B9 PUSH1 0x20 DUP4 ADD DUP7 PUSH2 0x2016 JUMP JUMPDEST PUSH2 0x22C6 PUSH1 0x40 DUP4 ADD DUP6 PUSH2 0x226D JUMP JUMPDEST DUP2 DUP2 SUB PUSH1 0x60 DUP4 ADD MSTORE PUSH2 0x22D8 DUP2 DUP5 PUSH2 0x2034 JUMP JUMPDEST SWAP1 POP SWAP6 SWAP5 POP POP POP POP POP JUMP JUMPDEST PUSH1 0x0 PUSH1 0x20 DUP3 ADD SWAP1 POP PUSH2 0x22F8 PUSH1 0x0 DUP4 ADD DUP5 PUSH2 0x2025 JUMP JUMPDEST SWAP3 SWAP2 POP POP JUMP JUMPDEST PUSH1 0x0 PUSH1 0x20 DUP3 ADD SWAP1 POP DUP2 DUP2 SUB PUSH1 0x0 DUP4 ADD MSTORE PUSH2 0x2318 DUP2 DUP5 PUSH2 0x206D JUMP JUMPDEST SWAP1 POP SWAP3 SWAP2 POP POP JUMP JUMPDEST PUSH1 0x0 PUSH1 0x20 DUP3 ADD SWAP1 POP DUP2 DUP2 SUB PUSH1 0x0 DUP4 ADD MSTORE PUSH2 0x2339 DUP2 PUSH2 0x20A6 JUMP JUMPDEST SWAP1 POP SWAP2 SWAP1 POP JUMP JUMPDEST PUSH1 0x0 PUSH1 0x20 DUP3 ADD SWAP1 POP DUP2 DUP2 SUB PUSH1 0x0 DUP4 ADD MSTORE PUSH2 0x2359 DUP2 PUSH2 0x20C9 JUMP JUMPDEST SWAP1 POP SWAP2 SWAP1 POP JUMP JUMPDEST PUSH1 0x0 PUSH1 0x20 DUP3 ADD SWAP1 POP DUP2 DUP2 SUB PUSH1 0x0 DUP4 ADD MSTORE PUSH2 0x2379 DUP2 PUSH2 0x20EC JUMP JUMPDEST SWAP1 POP SWAP2 SWAP1 POP JUMP JUMPDEST PUSH1 0x0 PUSH1 0x20 DUP3 ADD SWAP1 POP DUP2 DUP2 SUB PUSH1 0x0 DUP4 ADD MSTORE PUSH2 0x2399 DUP2 PUSH2 0x210F JUMP JUMPDEST SWAP1 POP SWAP2 SWAP1 POP JUMP JUMPDEST PUSH1 0x0 PUSH1 0x20 DUP3 ADD SWAP1 POP DUP2 DUP2 SUB PUSH1 0x0 DUP4 ADD MSTORE PUSH2 0x23B9 DUP2 PUSH2 0x2132 JUMP JUMPDEST SWAP1 POP SWAP2 SWAP1 POP JUMP JUMPDEST PUSH1 0x0 PUSH1 0x20 DUP3 ADD SWAP1 POP DUP2 DUP2 SUB PUSH1 0x0 DUP4 ADD MSTORE PUSH2 0x23D9 DUP2 PUSH2 0x2155 JUMP JUMPDEST SWAP1 POP SWAP2 SWAP1 POP JUMP JUMPDEST PUSH1 0x0 PUSH1 0x20 DUP3 ADD SWAP1 POP DUP2 DUP2 SUB PUSH1 0x0 DUP4 ADD MSTORE PUSH2 0x23F9 DUP2 PUSH2 0x2178 JUMP JUMPDEST SWAP1 POP SWAP2 SWAP1 POP JUMP JUMPDEST PUSH1 0x0 PUSH1 0x20 DUP3 ADD SWAP1 POP DUP2 DUP2 SUB PUSH1 0x0 DUP4 ADD MSTORE PUSH2 0x2419 DUP2 PUSH2 0x219B JUMP JUMPDEST SWAP1 POP SWAP2 SWAP1 POP JUMP JUMPDEST PUSH1 0x0 PUSH1 0x20 DUP3 ADD SWAP1 POP DUP2 DUP2 SUB PUSH1 0x0 DUP4 ADD MSTORE PUSH2 0x2439 DUP2 PUSH2 0x21BE JUMP JUMPDEST SWAP1 POP SWAP2 SWAP1 POP JUMP JUMPDEST PUSH1 0x0 PUSH1 0x20 DUP3 ADD SWAP1 POP DUP2 DUP2 SUB PUSH1 0x0 DUP4 ADD MSTORE PUSH2 0x2459 DUP2 PUSH2 0x21E1 JUMP JUMPDEST SWAP1 POP SWAP2 SWAP1 POP JUMP JUMPDEST PUSH1 0x0 PUSH1 0x20 DUP3 ADD SWAP1 POP DUP2 DUP2 SUB PUSH1 0x0 DUP4 ADD MSTORE PUSH2 0x2479 DUP2 PUSH2 0x2204 JUMP JUMPDEST SWAP1 POP SWAP2 SWAP1 POP JUMP JUMPDEST PUSH1 0x0 PUSH1 0x20 DUP3 ADD SWAP1 POP DUP2 DUP2 SUB PUSH1 0x0 DUP4 ADD MSTORE PUSH2 0x2499 DUP2 PUSH2 0x2227 JUMP JUMPDEST SWAP1 POP SWAP2 SWAP1 POP JUMP JUMPDEST PUSH1 0x0 PUSH1 0x20 DUP3 ADD SWAP1 POP DUP2 DUP2 SUB PUSH1 0x0 DUP4 ADD MSTORE PUSH2 0x24B9 DUP2 PUSH2 0x224A JUMP JUMPDEST SWAP1 POP SWAP2 SWAP1 POP JUMP JUMPDEST PUSH1 0x0 PUSH1 0x20 DUP3 ADD SWAP1 POP PUSH2 0x24D5 PUSH1 0x0 DUP4 ADD DUP5 PUSH2 0x226D JUMP JUMPDEST SWAP3 SWAP2 POP POP JUMP JUMPDEST PUSH1 0x0 PUSH2 0x24E5 PUSH2 0x24F6 JUMP JUMPDEST SWAP1 POP PUSH2 0x24F1 DUP3 DUP3 PUSH2 0x2738 JUMP JUMPDEST SWAP2 SWAP1 POP JUMP JUMPDEST PUSH1 0x0 PUSH1 0x40 MLOAD SWAP1 POP SWAP1 JUMP JUMPDEST PUSH1 0x0 PUSH8 0xFFFFFFFFFFFFFFFF DUP3 GT ISZERO PUSH2 0x251B JUMPI PUSH2 0x251A PUSH2 0x283F JUMP JUMPDEST JUMPDEST PUSH1 0x20 DUP3 MUL SWAP1 POP PUSH1 0x20 DUP2 ADD SWAP1 POP SWAP2 SWAP1 POP JUMP JUMPDEST PUSH1 0x0 PUSH8 0xFFFFFFFFFFFFFFFF DUP3 GT ISZERO PUSH2 0x2547 JUMPI PUSH2 0x2546 PUSH2 0x283F JUMP JUMPDEST JUMPDEST PUSH2 0x2550 DUP3 PUSH2 0x28A9 JUMP JUMPDEST SWAP1 POP PUSH1 0x20 DUP2 ADD SWAP1 POP SWAP2 SWAP1 POP JUMP JUMPDEST PUSH1 0x0 PUSH8 0xFFFFFFFFFFFFFFFF DUP3 GT ISZERO PUSH2 0x2578 JUMPI PUSH2 0x2577 PUSH2 0x283F JUMP JUMPDEST JUMPDEST PUSH2 0x2581 DUP3 PUSH2 0x28A9 JUMP JUMPDEST SWAP1 POP PUSH1 0x20 DUP2 ADD SWAP1 POP SWAP2 SWAP1 POP JUMP JUMPDEST PUSH1 0x0 DUP2 MLOAD SWAP1 POP SWAP2 SWAP1 POP JUMP JUMPDEST PUSH1 0x0 DUP2 MLOAD SWAP1 POP SWAP2 SWAP1 POP JUMP JUMPDEST PUSH1 0x0 DUP3 DUP3 MSTORE PUSH1 0x20 DUP3 ADD SWAP1 POP SWAP3 SWAP2 POP POP JUMP JUMPDEST PUSH1 0x0 DUP3 DUP3 MSTORE PUSH1 0x20 DUP3 ADD SWAP1 POP SWAP3 SWAP2 POP POP JUMP JUMPDEST PUSH1 0x0 PUSH2 0x25D1 DUP3 PUSH2 0x26BA JUMP JUMPDEST SWAP2 POP PUSH2 0x25DC DUP4 PUSH2 0x26BA JUMP JUMPDEST SWAP3 POP DUP3 PUSH32 0xFFFFFFFFFFFFFFFFFFFFFFFFFFFFFFFFFFFFFFFFFFFFFFFFFFFFFFFFFFFFFFFF SUB DUP3 GT ISZERO PUSH2 0x2611 JUMPI PUSH2 0x2610 PUSH2 0x27B2 JUMP JUMPDEST JUMPDEST DUP3 DUP3 ADD SWAP1 POP SWAP3 SWAP2 POP POP JUMP JUMPDEST PUSH1 0x0 PUSH2 0x2627 DUP3 PUSH2 0x26BA JUMP JUMPDEST SWAP2 POP PUSH2 0x2632 DUP4 PUSH2 0x26BA JUMP JUMPDEST SWAP3 POP DUP3 DUP3 LT ISZERO PUSH2 0x2645 JUMPI PUSH2 0x2644 PUSH2 0x27B2 JUMP JUMPDEST JUMPDEST DUP3 DUP3 SUB SWAP1 POP SWAP3 SWAP2 POP POP JUMP JUMPDEST PUSH1 0x0 PUSH2 0x265B DUP3 PUSH2 0x269A JUMP JUMPDEST SWAP1 POP SWAP2 SWAP1 POP JUMP JUMPDEST PUSH1 0x0 DUP2 ISZERO ISZERO SWAP1 POP SWAP2 SWAP1 POP JUMP JUMPDEST PUSH1 0x0 PUSH32 0xFFFFFFFF00000000000000000000000000000000000000000000000000000000 DUP3 AND SWAP1 POP SWAP2 SWAP1 POP JUMP JUMPDEST PUSH1 0x0 PUSH20 0xFFFFFFFFFFFFFFFFFFFFFFFFFFFFFFFFFFFFFFFF DUP3 AND SWAP1 POP SWAP2 SWAP1 POP JUMP JUMPDEST PUSH1 0x0 DUP2 SWAP1 POP SWAP2 SWAP1 POP JUMP JUMPDEST DUP3 DUP2 DUP4 CALLDATACOPY PUSH1 0x0 DUP4 DUP4 ADD MSTORE POP POP POP JUMP JUMPDEST PUSH1 0x0 JUMPDEST DUP4 DUP2 LT ISZERO PUSH2 0x26F1 JUMPI DUP1 DUP3 ADD MLOAD DUP2 DUP5 ADD MSTORE PUSH1 0x20 DUP2 ADD SWAP1 POP PUSH2 0x26D6 JUMP JUMPDEST DUP4 DUP2 GT ISZERO PUSH2 0x2700 JUMPI PUSH1 0x0 DUP5 DUP5 ADD MSTORE JUMPDEST POP POP POP POP JUMP JUMPDEST PUSH1 0x0 PUSH1 0x2 DUP3 DIV SWAP1 POP PUSH1 0x1 DUP3 AND DUP1 PUSH2 0x271E JUMPI PUSH1 0x7F DUP3 AND SWAP2 POP JUMPDEST PUSH1 0x20 DUP3 LT DUP2 EQ ISZERO PUSH2 0x2732 JUMPI PUSH2 0x2731 PUSH2 0x27E1 JUMP JUMPDEST JUMPDEST POP SWAP2 SWAP1 POP JUMP JUMPDEST PUSH2 0x2741 DUP3 PUSH2 0x28A9 JUMP JUMPDEST DUP2 ADD DUP2 DUP2 LT PUSH8 0xFFFFFFFFFFFFFFFF DUP3 GT OR ISZERO PUSH2 0x2760 JUMPI PUSH2 0x275F PUSH2 0x283F JUMP JUMPDEST JUMPDEST DUP1 PUSH1 0x40 MSTORE POP POP POP JUMP JUMPDEST PUSH1 0x0 PUSH2 0x2774 DUP3 PUSH2 0x26BA JUMP JUMPDEST SWAP2 POP PUSH32 0xFFFFFFFFFFFFFFFFFFFFFFFFFFFFFFFFFFFFFFFFFFFFFFFFFFFFFFFFFFFFFFFF DUP3 EQ ISZERO PUSH2 0x27A7 JUMPI PUSH2 0x27A6 PUSH2 0x27B2 JUMP JUMPDEST JUMPDEST PUSH1 0x1 DUP3 ADD SWAP1 POP SWAP2 SWAP1 POP JUMP JUMPDEST PUSH32 0x4E487B7100000000000000000000000000000000000000000000000000000000 PUSH1 0x0 MSTORE PUSH1 0x11 PUSH1 0x4 MSTORE PUSH1 0x24 PUSH1 0x0 REVERT JUMPDEST PUSH32 0x4E487B7100000000000000000000000000000000000000000000000000000000 PUSH1 0x0 MSTORE PUSH1 0x22 PUSH1 0x4 MSTORE PUSH1 0x24 PUSH1 0x0 REVERT JUMPDEST PUSH32 0x4E487B7100000000000000000000000000000000000000000000000000000000 PUSH1 0x0 MSTORE PUSH1 0x32 PUSH1 0x4 MSTORE PUSH1 0x24 PUSH1 0x0 REVERT JUMPDEST PUSH32 0x4E487B7100000000000000000000000000000000000000000000000000000000 PUSH1 0x0 MSTORE PUSH1 0x41 PUSH1 0x4 MSTORE PUSH1 0x24 PUSH1 0x0 REVERT JUMPDEST PUSH1 0x0 PUSH1 0x3 RETURNDATASIZE GT ISZERO PUSH2 0x288D JUMPI PUSH1 0x4 PUSH1 0x0 DUP1 RETURNDATACOPY PUSH2 0x288A PUSH1 0x0 MLOAD PUSH2 0x28BA JUMP JUMPDEST SWAP1 POP JUMPDEST SWAP1 JUMP JUMPDEST PUSH1 0x0 DUP1 REVERT JUMPDEST PUSH1 0x0 DUP1 REVERT JUMPDEST PUSH1 0x0 DUP1 REVERT JUMPDEST PUSH1 0x0 DUP1 REVERT JUMPDEST PUSH1 0x0 DUP1 REVERT JUMPDEST PUSH1 0x0 PUSH1 0x1F NOT PUSH1 0x1F DUP4 ADD AND SWAP1 POP SWAP2 SWAP1 POP JUMP JUMPDEST PUSH1 0x0 DUP2 PUSH1 0xE0 SHR SWAP1 POP SWAP2 SWAP1 POP JUMP JUMPDEST PUSH32 0x7472616E736665722066726F6D207A65726F2061646472657373000000000000 PUSH1 0x0 DUP3 ADD MSTORE POP JUMP JUMPDEST PUSH32 0x63616C6C6572206973206E6F74206F776E6572206F7220617070726F76616C00 PUSH1 0x0 DUP3 ADD MSTORE POP JUMP JUMPDEST PUSH32 0x6F776E6572206973207A65726F20616464726573730000000000000000000000 PUSH1 0x0 DUP3 ADD MSTORE POP JUMP JUMPDEST PUSH32 0x6D696E7420746F207A65726F2061646472657373000000000000000000000000 PUSH1 0x0 DUP3 ADD MSTORE POP JUMP JUMPDEST PUSH32 0x7472616E7366657220746F206E6F6E2045524337323152656365697665722069 PUSH1 0x0 DUP3 ADD MSTORE PUSH32 0x6D706C656D656E74657200000000000000000000000000000000000000000000 PUSH1 0x20 DUP3 ADD MSTORE POP JUMP JUMPDEST PUSH32 0x63616C6C6572206973206E6F7420746F6B656E206F776E6572206F7220617070 PUSH1 0x0 DUP3 ADD MSTORE PUSH32 0x726F76616C20666F7220616C6C00000000000000000000000000000000000000 PUSH1 0x20 DUP3 ADD MSTORE POP JUMP JUMPDEST PUSH32 0x7472616E7366657220746F207A65726F20616464726573730000000000000000 PUSH1 0x0 DUP3 ADD MSTORE POP JUMP JUMPDEST PUSH32 0x556E617574686F72697A65642E00000000000000000000000000000000000000 PUSH1 0x0 DUP3 ADD MSTORE POP JUMP JUMPDEST PUSH32 0x7472616E736665722066726F6D206973206E6F7420746F6B656E206F776E6572 PUSH1 0x0 DUP3 ADD MSTORE POP JUMP JUMPDEST PUSH32 0x617070726F76616C2073746174757320666F722073656C660000000000000000 PUSH1 0x0 DUP3 ADD MSTORE POP JUMP JUMPDEST PUSH32 0x746F6B656E20616C7265616479206D696E746564000000000000000000000000 PUSH1 0x0 DUP3 ADD MSTORE POP JUMP JUMPDEST PUSH32 0x746F6B656E206973206E6F742065786973747300000000000000000000000000 PUSH1 0x0 DUP3 ADD MSTORE POP JUMP JUMPDEST PUSH32 0x696E646578206F7574206F6620626F756E647300000000000000000000000000 PUSH1 0x0 DUP3 ADD MSTORE POP JUMP JUMPDEST PUSH1 0x0 PUSH1 0x44 RETURNDATASIZE LT ISZERO PUSH2 0x2B38 JUMPI PUSH2 0x2BBB JUMP JUMPDEST PUSH2 0x2B40 PUSH2 0x24F6 JUMP JUMPDEST PUSH1 0x4 RETURNDATASIZE SUB PUSH1 0x4 DUP3 RETURNDATACOPY DUP1 MLOAD RETURNDATASIZE PUSH1 0x24 DUP3 ADD GT PUSH8 0xFFFFFFFFFFFFFFFF DUP3 GT OR ISZERO PUSH2 0x2B68 JUMPI POP POP PUSH2 0x2BBB JUMP JUMPDEST DUP1 DUP3 ADD DUP1 MLOAD PUSH8 0xFFFFFFFFFFFFFFFF DUP2 GT ISZERO PUSH2 0x2B86 JUMPI POP POP POP POP PUSH2 0x2BBB JUMP JUMPDEST DUP1 PUSH1 0x20 DUP4 ADD ADD PUSH1 0x4 RETURNDATASIZE SUB DUP6 ADD DUP2 GT ISZERO PUSH2 0x2BA3 JUMPI POP POP POP POP POP PUSH2 0x2BBB JUMP JUMPDEST PUSH2 0x2BB2 DUP3 PUSH1 0x20 ADD DUP6 ADD DUP7 PUSH2 0x2738 JUMP JUMPDEST DUP3 SWAP6 POP POP POP POP POP POP JUMPDEST SWAP1 JUMP JUMPDEST PUSH2 0x2BC7 DUP2 PUSH2 0x2650 JUMP JUMPDEST DUP2 EQ PUSH2 0x2BD2 JUMPI PUSH1 0x0 DUP1 REVERT JUMPDEST POP JUMP JUMPDEST PUSH2 0x2BDE DUP2 PUSH2 0x2662 JUMP JUMPDEST DUP2 EQ PUSH2 0x2BE9 JUMPI PUSH1 0x0 DUP1 REVERT JUMPDEST POP JUMP JUMPDEST PUSH2 0x2BF5 DUP2 PUSH2 0x266E JUMP JUMPDEST DUP2 EQ PUSH2 0x2C00 JUMPI PUSH1 0x0 DUP1 REVERT JUMPDEST POP JUMP JUMPDEST PUSH2 0x2C0C DUP2 PUSH2 0x26BA JUMP JUMPDEST DUP2 EQ PUSH2 0x2C17 JUMPI PUSH1 0x0 DUP1 REVERT JUMPDEST POP JUMP INVALID LOG2 PUSH5 0x6970667358 0x22 SLT KECCAK256 PUSH12 0x6595E20B3FAC9F0C1AD72740 0xBE 0x25 0x27 0xB3 0xD SWAP16 PUSH12 0x4DD82B044A95AEA21817F3FB PUSH5 0x736F6C6343 STOP ADDMOD SMOD STOP CALLER "
				},
				"gasEstimates": {
					"creation": {
						"codeDepositCost": "2268800",
						"executionCost": "infinite",
						"totalCost": "infinite"
					},
					"external": {
						"approve(address,uint256)": "infinite",
						"balanceOf(address)": "2968",
						"create(uint256[],string)": "infinite",
						"getApproved(uint256)": "5185",
						"isApprovedForAll(address,address)": "infinite",
						"name()": "infinite",
						"ownerOf(uint256)": "3026",
						"safeTransferFrom(address,address,uint256)": "infinite",
						"safeTransferFrom(address,address,uint256,bytes)": "infinite",
						"setApprovalForAll(address,bool)": "infinite",
						"supportsInterface(bytes4)": "846",
						"symbol()": "infinite",
						"tokenByIndex(uint256)": "infinite",
						"tokenOfOwnerByIndex(address,uint256)": "infinite",
						"tokenURI(uint256)": "infinite",
						"totalSupply()": "2512",
						"transferFrom(address,address,uint256)": "infinite",
						"uri(uint256)": "infinite"
					}
				},
				"methodIdentifiers": {
					"approve(address,uint256)": "095ea7b3",
					"balanceOf(address)": "70a08231",
					"create(uint256[],string)": "0d060309",
					"getApproved(uint256)": "081812fc",
					"isApprovedForAll(address,address)": "e985e9c5",
					"name()": "06fdde03",
					"ownerOf(uint256)": "6352211e",
					"safeTransferFrom(address,address,uint256)": "42842e0e",
					"safeTransferFrom(address,address,uint256,bytes)": "b88d4fde",
					"setApprovalForAll(address,bool)": "a22cb465",
					"supportsInterface(bytes4)": "01ffc9a7",
					"symbol()": "95d89b41",
					"tokenByIndex(uint256)": "4f6ccce7",
					"tokenOfOwnerByIndex(address,uint256)": "2f745c59",
					"tokenURI(uint256)": "c87b56dd",
					"totalSupply()": "18160ddd",
					"transferFrom(address,address,uint256)": "23b872dd",
					"uri(uint256)": "0e89341c"
				}
			},
			"storageLayout": {
				"storage": [
					{
						"astId": 183,
						"contract": "ERC721.sol:MXRT",
						"label": "_balances",
						"offset": 0,
						"slot": "0",
						"type": "t_mapping(t_address,t_uint256)"
					},
					{
						"astId": 187,
						"contract": "ERC721.sol:MXRT",
						"label": "_owners",
						"offset": 0,
						"slot": "1",
						"type": "t_mapping(t_uint256,t_address)"
					},
					{
						"astId": 193,
						"contract": "ERC721.sol:MXRT",
						"label": "_operatorApprovals",
						"offset": 0,
						"slot": "2",
						"type": "t_mapping(t_address,t_mapping(t_address,t_bool))"
					},
					{
						"astId": 197,
						"contract": "ERC721.sol:MXRT",
						"label": "_tokenApprovals",
						"offset": 0,
						"slot": "3",
						"type": "t_mapping(t_uint256,t_address)"
					},
					{
						"astId": 199,
						"contract": "ERC721.sol:MXRT",
						"label": "_name",
						"offset": 0,
						"slot": "4",
						"type": "t_string_storage"
					},
					{
						"astId": 201,
						"contract": "ERC721.sol:MXRT",
						"label": "_symbol",
						"offset": 0,
						"slot": "5",
						"type": "t_string_storage"
					},
					{
						"astId": 205,
						"contract": "ERC721.sol:MXRT",
						"label": "_tokenURIs",
						"offset": 0,
						"slot": "6",
						"type": "t_mapping(t_uint256,t_string_storage)"
					},
					{
						"astId": 211,
						"contract": "ERC721.sol:MXRT",
						"label": "_ownedTokens",
						"offset": 0,
						"slot": "7",
						"type": "t_mapping(t_address,t_mapping(t_uint256,t_uint256))"
					},
					{
						"astId": 215,
						"contract": "ERC721.sol:MXRT",
						"label": "_ownedTokensIndex",
						"offset": 0,
						"slot": "8",
						"type": "t_mapping(t_uint256,t_uint256)"
					},
					{
						"astId": 218,
						"contract": "ERC721.sol:MXRT",
						"label": "_allTokens",
						"offset": 0,
						"slot": "9",
						"type": "t_array(t_uint256)dyn_storage"
					},
					{
						"astId": 222,
						"contract": "ERC721.sol:MXRT",
						"label": "_allTokensIndex",
						"offset": 0,
						"slot": "10",
						"type": "t_mapping(t_uint256,t_uint256)"
					},
					{
						"astId": 1144,
						"contract": "ERC721.sol:MXRT",
						"label": "_admin",
						"offset": 0,
						"slot": "11",
						"type": "t_address"
					}
				],
				"types": {
					"t_address": {
						"encoding": "inplace",
						"label": "address",
						"numberOfBytes": "20"
					},
					"t_array(t_uint256)dyn_storage": {
						"base": "t_uint256",
						"encoding": "dynamic_array",
						"label": "uint256[]",
						"numberOfBytes": "32"
					},
					"t_bool": {
						"encoding": "inplace",
						"label": "bool",
						"numberOfBytes": "1"
					},
					"t_mapping(t_address,t_bool)": {
						"encoding": "mapping",
						"key": "t_address",
						"label": "mapping(address => bool)",
						"numberOfBytes": "32",
						"value": "t_bool"
					},
					"t_mapping(t_address,t_mapping(t_address,t_bool))": {
						"encoding": "mapping",
						"key": "t_address",
						"label": "mapping(address => mapping(address => bool))",
						"numberOfBytes": "32",
						"value": "t_mapping(t_address,t_bool)"
					},
					"t_mapping(t_address,t_mapping(t_uint256,t_uint256))": {
						"encoding": "mapping",
						"key": "t_address",
						"label": "mapping(address => mapping(uint256 => uint256))",
						"numberOfBytes": "32",
						"value": "t_mapping(t_uint256,t_uint256)"
					},
					"t_mapping(t_address,t_uint256)": {
						"encoding": "mapping",
						"key": "t_address",
						"label": "mapping(address => uint256)",
						"numberOfBytes": "32",
						"value": "t_uint256"
					},
					"t_mapping(t_uint256,t_address)": {
						"encoding": "mapping",
						"key": "t_uint256",
						"label": "mapping(uint256 => address)",
						"numberOfBytes": "32",
						"value": "t_address"
					},
					"t_mapping(t_uint256,t_string_storage)": {
						"encoding": "mapping",
						"key": "t_uint256",
						"label": "mapping(uint256 => string)",
						"numberOfBytes": "32",
						"value": "t_string_storage"
					},
					"t_mapping(t_uint256,t_uint256)": {
						"encoding": "mapping",
						"key": "t_uint256",
						"label": "mapping(uint256 => uint256)",
						"numberOfBytes": "32",
						"value": "t_uint256"
					},
					"t_string_storage": {
						"encoding": "bytes",
						"label": "string",
						"numberOfBytes": "32"
					},
					"t_uint256": {
						"encoding": "inplace",
						"label": "uint256",
						"numberOfBytes": "32"
					}
				}
			},
			"userdoc": {
				"kind": "user",
				"methods": {},
				"version": 1
			}
		}
	}
}