{
	"Offer.sol": {
		"Offer": {
			"abi": [
				{
					"anonymous": false,
					"inputs": [
						{
							"indexed": true,
							"internalType": "address",
							"name": "tokenAddr",
							"type": "address"
						},
						{
							"indexed": true,
							"internalType": "uint256",
							"name": "tokenId",
							"type": "uint256"
						},
						{
							"indexed": true,
							"internalType": "address",
							"name": "offerer",
							"type": "address"
						},
						{
							"indexed": false,
							"internalType": "uint256",
							"name": "amount",
							"type": "uint256"
						},
						{
							"indexed": false,
							"internalType": "bool",
							"name": "isOffer",
							"type": "bool"
						}
					],
					"name": "OfferEvent",
					"type": "event"
				},
				{
					"anonymous": false,
					"inputs": [
						{
							"indexed": true,
							"internalType": "address",
							"name": "tokenAddr",
							"type": "address"
						},
						{
							"indexed": true,
							"internalType": "uint256",
							"name": "tokenId",
							"type": "uint256"
						},
						{
							"indexed": false,
							"internalType": "bool",
							"name": "isOffer",
							"type": "bool"
						}
					],
					"name": "SubmitEvent",
					"type": "event"
				},
				{
					"anonymous": false,
					"inputs": [
						{
							"indexed": true,
							"internalType": "address",
							"name": "tokenAddr",
							"type": "address"
						},
						{
							"indexed": true,
							"internalType": "uint256",
							"name": "tokenId",
							"type": "uint256"
						},
						{
							"indexed": true,
							"internalType": "address",
							"name": "offerer",
							"type": "address"
						}
					],
					"name": "WithdrawEvent",
					"type": "event"
				},
				{
					"inputs": [],
					"name": "balances",
					"outputs": [
						{
							"internalType": "uint256",
							"name": "",
							"type": "uint256"
						}
					],
					"stateMutability": "view",
					"type": "function"
				},
				{
					"inputs": [
						{
							"internalType": "address",
							"name": "tokenAddr",
							"type": "address"
						},
						{
							"internalType": "uint256",
							"name": "tokenId",
							"type": "uint256"
						}
					],
					"name": "offer",
					"outputs": [],
					"stateMutability": "payable",
					"type": "function"
				},
				{
					"inputs": [
						{
							"internalType": "address",
							"name": "",
							"type": "address"
						},
						{
							"internalType": "uint256",
							"name": "",
							"type": "uint256"
						}
					],
					"name": "offers",
					"outputs": [
						{
							"internalType": "bool",
							"name": "isOffer",
							"type": "bool"
						}
					],
					"stateMutability": "view",
					"type": "function"
				},
				{
					"inputs": [
						{
							"internalType": "address",
							"name": "tokenAddr",
							"type": "address"
						},
						{
							"internalType": "uint256",
							"name": "tokenId",
							"type": "uint256"
						},
						{
							"internalType": "address",
							"name": "offerer",
							"type": "address"
						}
					],
					"name": "submit",
					"outputs": [],
					"stateMutability": "payable",
					"type": "function"
				},
				{
					"inputs": [
						{
							"internalType": "address",
							"name": "tokenAddr",
							"type": "address"
						},
						{
							"internalType": "uint256",
							"name": "tokenId",
							"type": "uint256"
						}
					],
					"name": "withdraw",
					"outputs": [],
					"stateMutability": "payable",
					"type": "function"
				}
			],
			"devdoc": {
				"kind": "dev",
				"methods": {},
				"version": 1
			},
			"evm": {
				"assembly": "    /* \"Offer.sol\":207:3034  contract Offer {\r... */\n  mstore(0x40, 0x80)\n  callvalue\n  dup1\n  iszero\n  tag_1\n  jumpi\n  0x00\n  dup1\n  revert\ntag_1:\n  pop\n  dataSize(sub_0)\n  dup1\n  dataOffset(sub_0)\n  0x00\n  codecopy\n  0x00\n  return\nstop\n\nsub_0: assembly {\n        /* \"Offer.sol\":207:3034  contract Offer {\r... */\n      mstore(0x40, 0x80)\n      jumpi(tag_1, lt(calldatasize, 0x04))\n      shr(0xe0, calldataload(0x00))\n      dup1\n      0x6b212960\n      eq\n      tag_2\n      jumpi\n      dup1\n      0x7bb98a68\n      eq\n      tag_3\n      jumpi\n      dup1\n      0xaa1a8411\n      eq\n      tag_4\n      jumpi\n      dup1\n      0xabd51552\n      eq\n      tag_5\n      jumpi\n      dup1\n      0xf3fef3a3\n      eq\n      tag_6\n      jumpi\n    tag_1:\n      0x00\n      dup1\n      revert\n        /* \"Offer.sol\":757:1192  function offer(address tokenAddr, uint tokenId) external payable {\r... */\n    tag_2:\n      tag_7\n      0x04\n      dup1\n      calldatasize\n      sub\n      dup2\n      add\n      swap1\n      tag_8\n      swap2\n      swap1\n      tag_9\n      jump\t// in\n    tag_8:\n      tag_10\n      jump\t// in\n    tag_7:\n      stop\n        /* \"Offer.sol\":728:748  uint public balances */\n    tag_3:\n      callvalue\n      dup1\n      iszero\n      tag_11\n      jumpi\n      0x00\n      dup1\n      revert\n    tag_11:\n      pop\n      tag_12\n      tag_13\n      jump\t// in\n    tag_12:\n      mload(0x40)\n      tag_14\n      swap2\n      swap1\n      tag_15\n      jump\t// in\n    tag_14:\n      mload(0x40)\n      dup1\n      swap2\n      sub\n      swap1\n      return\n        /* \"Offer.sol\":540:596  mapping(address =>mapping(uint => Offers)) public offers */\n    tag_4:\n      callvalue\n      dup1\n      iszero\n      tag_16\n      jumpi\n      0x00\n      dup1\n      revert\n    tag_16:\n      pop\n      tag_17\n      0x04\n      dup1\n      calldatasize\n      sub\n      dup2\n      add\n      swap1\n      tag_18\n      swap2\n      swap1\n      tag_9\n      jump\t// in\n    tag_18:\n      tag_19\n      jump\t// in\n    tag_17:\n      mload(0x40)\n      tag_20\n      swap2\n      swap1\n      tag_21\n      jump\t// in\n    tag_20:\n      mload(0x40)\n      dup1\n      swap2\n      sub\n      swap1\n      return\n        /* \"Offer.sol\":1200:2107  function submit(address tokenAddr, uint tokenId, address offerer) external payable {\r... */\n    tag_5:\n      tag_22\n      0x04\n      dup1\n      calldatasize\n      sub\n      dup2\n      add\n      swap1\n      tag_23\n      swap2\n      swap1\n      tag_24\n      jump\t// in\n    tag_23:\n      tag_25\n      jump\t// in\n    tag_22:\n      stop\n        /* \"Offer.sol\":2115:3031  function withdraw(address tokenAddr, uint tokenId) public payable {\r... */\n    tag_6:\n      tag_26\n      0x04\n      dup1\n      calldatasize\n      sub\n      dup2\n      add\n      swap1\n      tag_27\n      swap2\n      swap1\n      tag_9\n      jump\t// in\n    tag_27:\n      tag_28\n      jump\t// in\n    tag_26:\n      stop\n        /* \"Offer.sol\":757:1192  function offer(address tokenAddr, uint tokenId) external payable {\r... */\n    tag_10:\n        /* \"Offer.sol\":833:855  Offers storage _offers */\n      0x00\n        /* \"Offer.sol\":858:864  offers */\n      dup1\n        /* \"Offer.sol\":858:875  offers[tokenAddr] */\n      0x00\n        /* \"Offer.sol\":865:874  tokenAddr */\n      dup5\n        /* \"Offer.sol\":858:875  offers[tokenAddr] */\n      0xffffffffffffffffffffffffffffffffffffffff\n      and\n      0xffffffffffffffffffffffffffffffffffffffff\n      and\n      dup2\n      mstore\n      0x20\n      add\n      swap1\n      dup2\n      mstore\n      0x20\n      add\n      0x00\n      keccak256\n        /* \"Offer.sol\":858:884  offers[tokenAddr][tokenId] */\n      0x00\n        /* \"Offer.sol\":876:883  tokenId */\n      dup4\n        /* \"Offer.sol\":858:884  offers[tokenAddr][tokenId] */\n      dup2\n      mstore\n      0x20\n      add\n      swap1\n      dup2\n      mstore\n      0x20\n      add\n      0x00\n      keccak256\n        /* \"Offer.sol\":833:884  Offers storage _offers = offers[tokenAddr][tokenId] */\n      swap1\n      pop\n        /* \"Offer.sol\":930:931  0 */\n      0x00\n        /* \"Offer.sol\":900:907  _offers */\n      dup2\n        /* \"Offer.sol\":900:914  _offers.amount */\n      0x01\n      add\n        /* \"Offer.sol\":900:926  _offers.amount[msg.sender] */\n      0x00\n        /* \"Offer.sol\":915:925  msg.sender */\n      caller\n        /* \"Offer.sol\":900:926  _offers.amount[msg.sender] */\n      0xffffffffffffffffffffffffffffffffffffffff\n      and\n      0xffffffffffffffffffffffffffffffffffffffff\n      and\n      dup2\n      mstore\n      0x20\n      add\n      swap1\n      dup2\n      mstore\n      0x20\n      add\n      0x00\n      keccak256\n      sload\n        /* \"Offer.sol\":900:931  _offers.amount[msg.sender] == 0 */\n      eq\n        /* \"Offer.sol\":897:992  if(_offers.amount[msg.sender] == 0) {\r... */\n      iszero\n      tag_30\n      jumpi\n        /* \"Offer.sol\":948:955  _offers */\n      dup1\n        /* \"Offer.sol\":948:963  _offers.offerer */\n      0x00\n      add\n        /* \"Offer.sol\":969:979  msg.sender */\n      caller\n        /* \"Offer.sol\":948:980  _offers.offerer.push(msg.sender) */\n      swap1\n      dup1\n      0x01\n      dup2\n      sload\n      add\n      dup1\n      dup3\n      sstore\n      dup1\n      swap2\n      pop\n      pop\n      0x01\n      swap1\n      sub\n      swap1\n      0x00\n      mstore\n      keccak256(0x00, 0x20)\n      add\n      0x00\n      swap1\n      swap2\n      swap1\n      swap2\n      swap1\n      swap2\n      0x0100\n      exp\n      dup2\n      sload\n      dup2\n      0xffffffffffffffffffffffffffffffffffffffff\n      mul\n      not\n      and\n      swap1\n      dup4\n      0xffffffffffffffffffffffffffffffffffffffff\n      and\n      mul\n      or\n      swap1\n      sstore\n      pop\n        /* \"Offer.sol\":897:992  if(_offers.amount[msg.sender] == 0) {\r... */\n    tag_30:\n        /* \"Offer.sol\":1031:1040  msg.value */\n      callvalue\n        /* \"Offer.sol\":1002:1009  _offers */\n      dup2\n        /* \"Offer.sol\":1002:1016  _offers.amount */\n      0x01\n      add\n        /* \"Offer.sol\":1002:1028  _offers.amount[msg.sender] */\n      0x00\n        /* \"Offer.sol\":1017:1027  msg.sender */\n      caller\n        /* \"Offer.sol\":1002:1028  _offers.amount[msg.sender] */\n      0xffffffffffffffffffffffffffffffffffffffff\n      and\n      0xffffffffffffffffffffffffffffffffffffffff\n      and\n      dup2\n      mstore\n      0x20\n      add\n      swap1\n      dup2\n      mstore\n      0x20\n      add\n      0x00\n      keccak256\n        /* \"Offer.sol\":1002:1040  _offers.amount[msg.sender] = msg.value */\n      dup2\n      swap1\n      sstore\n      pop\n        /* \"Offer.sol\":1069:1073  true */\n      0x01\n        /* \"Offer.sol\":1051:1058  _offers */\n      dup2\n        /* \"Offer.sol\":1051:1066  _offers.isOffer */\n      0x02\n      add\n      0x00\n        /* \"Offer.sol\":1051:1073  _offers.isOffer = true */\n      0x0100\n      exp\n      dup2\n      sload\n      dup2\n      0xff\n      mul\n      not\n      and\n      swap1\n      dup4\n      iszero\n      iszero\n      mul\n      or\n      swap1\n      sstore\n      pop\n        /* \"Offer.sol\":1098:1107  msg.value */\n      callvalue\n        /* \"Offer.sol\":1086:1094  balances */\n      0x01\n      0x00\n        /* \"Offer.sol\":1086:1107  balances += msg.value */\n      dup3\n      dup3\n      sload\n      tag_32\n      swap2\n      swap1\n      tag_33\n      jump\t// in\n    tag_32:\n      swap3\n      pop\n      pop\n      dup2\n      swap1\n      sstore\n      pop\n        /* \"Offer.sol\":1156:1166  msg.sender */\n      caller\n        /* \"Offer.sol\":1125:1184  OfferEvent(tokenAddr, tokenId, msg.sender, msg.value, true) */\n      0xffffffffffffffffffffffffffffffffffffffff\n      and\n        /* \"Offer.sol\":1147:1154  tokenId */\n      dup3\n        /* \"Offer.sol\":1136:1145  tokenAddr */\n      dup5\n        /* \"Offer.sol\":1125:1184  OfferEvent(tokenAddr, tokenId, msg.sender, msg.value, true) */\n      0xffffffffffffffffffffffffffffffffffffffff\n      and\n      0xa297a5039e151f85fd39b734d57194f31bf1ba744464810f8fa18941216c79b0\n        /* \"Offer.sol\":1168:1177  msg.value */\n      callvalue\n        /* \"Offer.sol\":1179:1183  true */\n      0x01\n        /* \"Offer.sol\":1125:1184  OfferEvent(tokenAddr, tokenId, msg.sender, msg.value, true) */\n      mload(0x40)\n      tag_34\n      swap3\n      swap2\n      swap1\n      tag_35\n      jump\t// in\n    tag_34:\n      mload(0x40)\n      dup1\n      swap2\n      sub\n      swap1\n      log4\n        /* \"Offer.sol\":822:1192  {\r... */\n      pop\n        /* \"Offer.sol\":757:1192  function offer(address tokenAddr, uint tokenId) external payable {\r... */\n      pop\n      pop\n      jump\t// out\n        /* \"Offer.sol\":728:748  uint public balances */\n    tag_13:\n      sload(0x01)\n      dup2\n      jump\t// out\n        /* \"Offer.sol\":540:596  mapping(address =>mapping(uint => Offers)) public offers */\n    tag_19:\n      mstore(0x20, 0x00)\n      dup2\n      0x00\n      mstore\n      mstore(0x20, keccak256(0x00, 0x40))\n      dup1\n      0x00\n      mstore\n      keccak256(0x00, 0x40)\n      0x00\n      swap2\n      pop\n      swap2\n      pop\n      pop\n      dup1\n      0x02\n      add\n      0x00\n      swap1\n      sload\n      swap1\n      0x0100\n      exp\n      swap1\n      div\n      0xff\n      and\n      swap1\n      pop\n      dup2\n      jump\t// out\n        /* \"Offer.sol\":1200:2107  function submit(address tokenAddr, uint tokenId, address offerer) external payable {\r... */\n    tag_25:\n        /* \"Offer.sol\":1294:1316  Offers storage _offers */\n      0x00\n        /* \"Offer.sol\":1319:1325  offers */\n      dup1\n        /* \"Offer.sol\":1319:1336  offers[tokenAddr] */\n      0x00\n        /* \"Offer.sol\":1326:1335  tokenAddr */\n      dup6\n        /* \"Offer.sol\":1319:1336  offers[tokenAddr] */\n      0xffffffffffffffffffffffffffffffffffffffff\n      and\n      0xffffffffffffffffffffffffffffffffffffffff\n      and\n      dup2\n      mstore\n      0x20\n      add\n      swap1\n      dup2\n      mstore\n      0x20\n      add\n      0x00\n      keccak256\n        /* \"Offer.sol\":1319:1345  offers[tokenAddr][tokenId] */\n      0x00\n        /* \"Offer.sol\":1337:1344  tokenId */\n      dup5\n        /* \"Offer.sol\":1319:1345  offers[tokenAddr][tokenId] */\n      dup2\n      mstore\n      0x20\n      add\n      swap1\n      dup2\n      mstore\n      0x20\n      add\n      0x00\n      keccak256\n        /* \"Offer.sol\":1294:1345  Offers storage _offers = offers[tokenAddr][tokenId] */\n      swap1\n      pop\n        /* \"Offer.sol\":1356:1369  IERC721 token */\n      0x00\n        /* \"Offer.sol\":1380:1389  tokenAddr */\n      dup5\n        /* \"Offer.sol\":1356:1390  IERC721 token = IERC721(tokenAddr) */\n      swap1\n      pop\n        /* \"Offer.sol\":1437:1447  msg.sender */\n      caller\n        /* \"Offer.sol\":1411:1447  token.ownerOf(tokenId) == msg.sender */\n      0xffffffffffffffffffffffffffffffffffffffff\n      and\n        /* \"Offer.sol\":1411:1416  token */\n      dup2\n        /* \"Offer.sol\":1411:1424  token.ownerOf */\n      0xffffffffffffffffffffffffffffffffffffffff\n      and\n      0x6352211e\n        /* \"Offer.sol\":1425:1432  tokenId */\n      dup7\n        /* \"Offer.sol\":1411:1433  token.ownerOf(tokenId) */\n      mload(0x40)\n      dup3\n      0xffffffff\n      and\n      0xe0\n      shl\n      dup2\n      mstore\n      0x04\n      add\n      tag_37\n      swap2\n      swap1\n      tag_15\n      jump\t// in\n    tag_37:\n      0x20\n      mload(0x40)\n      dup1\n      dup4\n      sub\n      dup2\n      dup7\n      dup1\n      extcodesize\n      iszero\n      dup1\n      iszero\n      tag_38\n      jumpi\n      0x00\n      dup1\n      revert\n    tag_38:\n      pop\n      gas\n      staticcall\n      iszero\n      dup1\n      iszero\n      tag_40\n      jumpi\n      returndatasize\n      0x00\n      dup1\n      returndatacopy\n      revert(0x00, returndatasize)\n    tag_40:\n      pop\n      pop\n      pop\n      pop\n      mload(0x40)\n      returndatasize\n      not(0x1f)\n      0x1f\n      dup3\n      add\n      and\n      dup3\n      add\n      dup1\n      0x40\n      mstore\n      pop\n      dup2\n      add\n      swap1\n      tag_41\n      swap2\n      swap1\n      tag_42\n      jump\t// in\n    tag_41:\n        /* \"Offer.sol\":1411:1447  token.ownerOf(tokenId) == msg.sender */\n      0xffffffffffffffffffffffffffffffffffffffff\n      and\n      eq\n        /* \"Offer.sol\":1403:1465  require(token.ownerOf(tokenId) == msg.sender, \"Unauthorized.\") */\n      tag_43\n      jumpi\n      mload(0x40)\n      0x08c379a000000000000000000000000000000000000000000000000000000000\n      dup2\n      mstore\n      0x04\n      add\n      tag_44\n      swap1\n      tag_45\n      jump\t// in\n    tag_44:\n      mload(0x40)\n      dup1\n      swap2\n      sub\n      swap1\n      revert\n    tag_43:\n        /* \"Offer.sol\":1503:1507  true */\n      0x01\n        /* \"Offer.sol\":1484:1507  _offers.isOffer == true */\n      iszero\n      iszero\n        /* \"Offer.sol\":1484:1491  _offers */\n      dup3\n        /* \"Offer.sol\":1484:1499  _offers.isOffer */\n      0x02\n      add\n      0x00\n      swap1\n      sload\n      swap1\n      0x0100\n      exp\n      swap1\n      div\n      0xff\n      and\n        /* \"Offer.sol\":1484:1507  _offers.isOffer == true */\n      iszero\n      iszero\n      eq\n        /* \"Offer.sol\":1476:1521  require(_offers.isOffer == true, \"No offer.\") */\n      tag_46\n      jumpi\n      mload(0x40)\n      0x08c379a000000000000000000000000000000000000000000000000000000000\n      dup2\n      mstore\n      0x04\n      add\n      tag_47\n      swap1\n      tag_48\n      jump\t// in\n    tag_47:\n      mload(0x40)\n      dup1\n      swap2\n      sub\n      swap1\n      revert\n    tag_46:\n        /* \"Offer.sol\":1542:1552  msg.sender */\n      caller\n        /* \"Offer.sol\":1534:1562  payable(msg.sender).transfer */\n      0xffffffffffffffffffffffffffffffffffffffff\n      and\n        /* \"Offer.sol\":1534:1587  payable(msg.sender).transfer(_offers.amount[offerer]) */\n      0x08fc\n        /* \"Offer.sol\":1563:1570  _offers */\n      dup4\n        /* \"Offer.sol\":1563:1577  _offers.amount */\n      0x01\n      add\n        /* \"Offer.sol\":1563:1586  _offers.amount[offerer] */\n      0x00\n        /* \"Offer.sol\":1578:1585  offerer */\n      dup7\n        /* \"Offer.sol\":1563:1586  _offers.amount[offerer] */\n      0xffffffffffffffffffffffffffffffffffffffff\n      and\n      0xffffffffffffffffffffffffffffffffffffffff\n      and\n      dup2\n      mstore\n      0x20\n      add\n      swap1\n      dup2\n      mstore\n      0x20\n      add\n      0x00\n      keccak256\n      sload\n        /* \"Offer.sol\":1534:1587  payable(msg.sender).transfer(_offers.amount[offerer]) */\n      swap1\n      dup2\n      iszero\n      mul\n      swap1\n      mload(0x40)\n      0x00\n      mload(0x40)\n      dup1\n      dup4\n      sub\n      dup2\n      dup6\n      dup9\n      dup9\n      call\n      swap4\n      pop\n      pop\n      pop\n      pop\n      iszero\n      dup1\n      iszero\n      tag_50\n      jumpi\n      returndatasize\n      0x00\n      dup1\n      returndatacopy\n      revert(0x00, returndatasize)\n    tag_50:\n      pop\n        /* \"Offer.sol\":1610:1617  _offers */\n      dup2\n        /* \"Offer.sol\":1610:1624  _offers.amount */\n      0x01\n      add\n        /* \"Offer.sol\":1610:1633  _offers.amount[offerer] */\n      0x00\n        /* \"Offer.sol\":1625:1632  offerer */\n      dup5\n        /* \"Offer.sol\":1610:1633  _offers.amount[offerer] */\n      0xffffffffffffffffffffffffffffffffffffffff\n      and\n      0xffffffffffffffffffffffffffffffffffffffff\n      and\n      dup2\n      mstore\n      0x20\n      add\n      swap1\n      dup2\n      mstore\n      0x20\n      add\n      0x00\n      keccak256\n      sload\n        /* \"Offer.sol\":1598:1606  balances */\n      0x01\n      0x00\n        /* \"Offer.sol\":1598:1633  balances -= _offers.amount[offerer] */\n      dup3\n      dup3\n      sload\n      tag_51\n      swap2\n      swap1\n      tag_52\n      jump\t// in\n    tag_51:\n      swap3\n      pop\n      pop\n      dup2\n      swap1\n      sstore\n      pop\n        /* \"Offer.sol\":1662:1667  false */\n      0x00\n        /* \"Offer.sol\":1644:1651  _offers */\n      dup3\n        /* \"Offer.sol\":1644:1659  _offers.isOffer */\n      0x02\n      add\n      0x00\n        /* \"Offer.sol\":1644:1667  _offers.isOffer = false */\n      0x0100\n      exp\n      dup2\n      sload\n      dup2\n      0xff\n      mul\n      not\n      and\n      swap1\n      dup4\n      iszero\n      iszero\n      mul\n      or\n      swap1\n      sstore\n      pop\n        /* \"Offer.sol\":1684:1690  uint i */\n      0x00\n        /* \"Offer.sol\":1718:1719  1 */\n      0x01\n        /* \"Offer.sol\":1693:1700  _offers */\n      dup4\n        /* \"Offer.sol\":1693:1708  _offers.offerer */\n      0x00\n      add\n        /* \"Offer.sol\":1693:1715  _offers.offerer.length */\n      dup1\n      sload\n      swap1\n      pop\n        /* \"Offer.sol\":1693:1719  _offers.offerer.length - 1 */\n      tag_56\n      swap2\n      swap1\n      tag_52\n      jump\t// in\n    tag_56:\n        /* \"Offer.sol\":1684:1719  uint i = _offers.offerer.length - 1 */\n      swap1\n      pop\n        /* \"Offer.sol\":1680:1983  for(uint i = _offers.offerer.length - 1; i >= 0; i--) {\r... */\n    tag_53:\n        /* \"Offer.sol\":1726:1727  0 */\n      0x00\n        /* \"Offer.sol\":1721:1722  i */\n      dup2\n        /* \"Offer.sol\":1721:1727  i >= 0 */\n      lt\n        /* \"Offer.sol\":1680:1983  for(uint i = _offers.offerer.length - 1; i >= 0; i--) {\r... */\n      tag_54\n      jumpi\n        /* \"Offer.sol\":1757:1764  _offers */\n      dup3\n        /* \"Offer.sol\":1757:1772  _offers.offerer */\n      0x00\n      add\n        /* \"Offer.sol\":1773:1774  i */\n      dup2\n        /* \"Offer.sol\":1757:1775  _offers.offerer[i] */\n      dup2\n      sload\n      dup2\n      lt\n      tag_57\n      jumpi\n      tag_58\n      tag_59\n      jump\t// in\n    tag_58:\n    tag_57:\n      swap1\n      0x00\n      mstore\n      keccak256(0x00, 0x20)\n      add\n      0x00\n      swap1\n      sload\n      swap1\n      0x0100\n      exp\n      swap1\n      div\n      0xffffffffffffffffffffffffffffffffffffffff\n      and\n        /* \"Offer.sol\":1749:1785  payable(_offers.offerer[i]).transfer */\n      0xffffffffffffffffffffffffffffffffffffffff\n      and\n        /* \"Offer.sol\":1749:1821  payable(_offers.offerer[i]).transfer(_offers.amount[_offers.offerer[i]]) */\n      0x08fc\n        /* \"Offer.sol\":1786:1793  _offers */\n      dup5\n        /* \"Offer.sol\":1786:1800  _offers.amount */\n      0x01\n      add\n        /* \"Offer.sol\":1786:1820  _offers.amount[_offers.offerer[i]] */\n      0x00\n        /* \"Offer.sol\":1801:1808  _offers */\n      dup7\n        /* \"Offer.sol\":1801:1816  _offers.offerer */\n      0x00\n      add\n        /* \"Offer.sol\":1817:1818  i */\n      dup6\n        /* \"Offer.sol\":1801:1819  _offers.offerer[i] */\n      dup2\n      sload\n      dup2\n      lt\n      tag_61\n      jumpi\n      tag_62\n      tag_59\n      jump\t// in\n    tag_62:\n    tag_61:\n      swap1\n      0x00\n      mstore\n      keccak256(0x00, 0x20)\n      add\n      0x00\n      swap1\n      sload\n      swap1\n      0x0100\n      exp\n      swap1\n      div\n      0xffffffffffffffffffffffffffffffffffffffff\n      and\n        /* \"Offer.sol\":1786:1820  _offers.amount[_offers.offerer[i]] */\n      0xffffffffffffffffffffffffffffffffffffffff\n      and\n      0xffffffffffffffffffffffffffffffffffffffff\n      and\n      dup2\n      mstore\n      0x20\n      add\n      swap1\n      dup2\n      mstore\n      0x20\n      add\n      0x00\n      keccak256\n      sload\n        /* \"Offer.sol\":1749:1821  payable(_offers.offerer[i]).transfer(_offers.amount[_offers.offerer[i]]) */\n      swap1\n      dup2\n      iszero\n      mul\n      swap1\n      mload(0x40)\n      0x00\n      mload(0x40)\n      dup1\n      dup4\n      sub\n      dup2\n      dup6\n      dup9\n      dup9\n      call\n      swap4\n      pop\n      pop\n      pop\n      pop\n      iszero\n      dup1\n      iszero\n      tag_65\n      jumpi\n      returndatasize\n      0x00\n      dup1\n      returndatacopy\n      revert(0x00, returndatasize)\n    tag_65:\n      pop\n        /* \"Offer.sol\":1848:1855  _offers */\n      dup3\n        /* \"Offer.sol\":1848:1862  _offers.amount */\n      0x01\n      add\n        /* \"Offer.sol\":1848:1882  _offers.amount[_offers.offerer[i]] */\n      0x00\n        /* \"Offer.sol\":1863:1870  _offers */\n      dup5\n        /* \"Offer.sol\":1863:1878  _offers.offerer */\n      0x00\n      add\n        /* \"Offer.sol\":1879:1880  i */\n      dup4\n        /* \"Offer.sol\":1863:1881  _offers.offerer[i] */\n      dup2\n      sload\n      dup2\n      lt\n      tag_66\n      jumpi\n      tag_67\n      tag_59\n      jump\t// in\n    tag_67:\n    tag_66:\n      swap1\n      0x00\n      mstore\n      keccak256(0x00, 0x20)\n      add\n      0x00\n      swap1\n      sload\n      swap1\n      0x0100\n      exp\n      swap1\n      div\n      0xffffffffffffffffffffffffffffffffffffffff\n      and\n        /* \"Offer.sol\":1848:1882  _offers.amount[_offers.offerer[i]] */\n      0xffffffffffffffffffffffffffffffffffffffff\n      and\n      0xffffffffffffffffffffffffffffffffffffffff\n      and\n      dup2\n      mstore\n      0x20\n      add\n      swap1\n      dup2\n      mstore\n      0x20\n      add\n      0x00\n      keccak256\n      sload\n        /* \"Offer.sol\":1836:1844  balances */\n      0x01\n      0x00\n        /* \"Offer.sol\":1836:1882  balances -= _offers.amount[_offers.offerer[i]] */\n      dup3\n      dup3\n      sload\n      tag_69\n      swap2\n      swap1\n      tag_52\n      jump\t// in\n    tag_69:\n      swap3\n      pop\n      pop\n      dup2\n      swap1\n      sstore\n      pop\n        /* \"Offer.sol\":1934:1935  0 */\n      0x00\n        /* \"Offer.sol\":1897:1904  _offers */\n      dup4\n        /* \"Offer.sol\":1897:1911  _offers.amount */\n      0x01\n      add\n        /* \"Offer.sol\":1897:1931  _offers.amount[_offers.offerer[i]] */\n      0x00\n        /* \"Offer.sol\":1912:1919  _offers */\n      dup6\n        /* \"Offer.sol\":1912:1927  _offers.offerer */\n      0x00\n      add\n        /* \"Offer.sol\":1928:1929  i */\n      dup5\n        /* \"Offer.sol\":1912:1930  _offers.offerer[i] */\n      dup2\n      sload\n      dup2\n      lt\n      tag_70\n      jumpi\n      tag_71\n      tag_59\n      jump\t// in\n    tag_71:\n    tag_70:\n      swap1\n      0x00\n      mstore\n      keccak256(0x00, 0x20)\n      add\n      0x00\n      swap1\n      sload\n      swap1\n      0x0100\n      exp\n      swap1\n      div\n      0xffffffffffffffffffffffffffffffffffffffff\n      and\n        /* \"Offer.sol\":1897:1931  _offers.amount[_offers.offerer[i]] */\n      0xffffffffffffffffffffffffffffffffffffffff\n      and\n      0xffffffffffffffffffffffffffffffffffffffff\n      and\n      dup2\n      mstore\n      0x20\n      add\n      swap1\n      dup2\n      mstore\n      0x20\n      add\n      0x00\n      keccak256\n        /* \"Offer.sol\":1897:1935  _offers.amount[_offers.offerer[i]] = 0 */\n      dup2\n      swap1\n      sstore\n      pop\n        /* \"Offer.sol\":1950:1957  _offers */\n      dup3\n        /* \"Offer.sol\":1950:1965  _offers.offerer */\n      0x00\n      add\n        /* \"Offer.sol\":1950:1971  _offers.offerer.pop() */\n      dup1\n      sload\n      dup1\n      tag_73\n      jumpi\n      tag_74\n      tag_75\n      jump\t// in\n    tag_74:\n    tag_73:\n      0x01\n      swap1\n      sub\n      dup2\n      dup2\n      swap1\n      0x00\n      mstore\n      keccak256(0x00, 0x20)\n      add\n      exp(0x0100, 0x00)\n      dup2\n      sload\n      swap1\n      0xffffffffffffffffffffffffffffffffffffffff\n      mul\n      not\n      and\n      swap1\n      sstore\n      swap1\n      sstore\n        /* \"Offer.sol\":1729:1732  i-- */\n      dup1\n      dup1\n      tag_77\n      swap1\n      tag_78\n      jump\t// in\n    tag_77:\n      swap2\n      pop\n      pop\n        /* \"Offer.sol\":1680:1983  for(uint i = _offers.offerer.length - 1; i >= 0; i--) {\r... */\n      jump(tag_53)\n    tag_54:\n      pop\n        /* \"Offer.sol\":1995:2000  token */\n      dup1\n        /* \"Offer.sol\":1995:2013  token.transferFrom */\n      0xffffffffffffffffffffffffffffffffffffffff\n      and\n      0x23b872dd\n        /* \"Offer.sol\":2014:2024  msg.sender */\n      caller\n        /* \"Offer.sol\":2026:2033  offerer */\n      dup6\n        /* \"Offer.sol\":2035:2042  tokenId */\n      dup8\n        /* \"Offer.sol\":1995:2043  token.transferFrom(msg.sender, offerer, tokenId) */\n      mload(0x40)\n      dup5\n      0xffffffff\n      and\n      0xe0\n      shl\n      dup2\n      mstore\n      0x04\n      add\n      tag_79\n      swap4\n      swap3\n      swap2\n      swap1\n      tag_80\n      jump\t// in\n    tag_79:\n      0x00\n      mload(0x40)\n      dup1\n      dup4\n      sub\n      dup2\n      0x00\n      dup8\n      dup1\n      extcodesize\n      iszero\n      dup1\n      iszero\n      tag_81\n      jumpi\n      0x00\n      dup1\n      revert\n    tag_81:\n      pop\n      gas\n      call\n      iszero\n      dup1\n      iszero\n      tag_83\n      jumpi\n      returndatasize\n      0x00\n      dup1\n      returndatacopy\n      revert(0x00, returndatasize)\n    tag_83:\n      pop\n      pop\n      pop\n      pop\n        /* \"Offer.sol\":2084:2091  tokenId */\n      dup4\n        /* \"Offer.sol\":2073:2082  tokenAddr */\n      dup6\n        /* \"Offer.sol\":2061:2099  SubmitEvent(tokenAddr, tokenId, false) */\n      0xffffffffffffffffffffffffffffffffffffffff\n      and\n      0x9663db6e9b1f015a82beb1b03ec8fed9d1a25b5da31b2cc92c2be9e8c629a80d\n        /* \"Offer.sol\":2093:2098  false */\n      0x00\n        /* \"Offer.sol\":2061:2099  SubmitEvent(tokenAddr, tokenId, false) */\n      mload(0x40)\n      tag_84\n      swap2\n      swap1\n      tag_21\n      jump\t// in\n    tag_84:\n      mload(0x40)\n      dup1\n      swap2\n      sub\n      swap1\n      log3\n        /* \"Offer.sol\":1283:2107  {\r... */\n      pop\n      pop\n        /* \"Offer.sol\":1200:2107  function submit(address tokenAddr, uint tokenId, address offerer) external payable {\r... */\n      pop\n      pop\n      pop\n      jump\t// out\n        /* \"Offer.sol\":2115:3031  function withdraw(address tokenAddr, uint tokenId) public payable {\r... */\n    tag_28:\n        /* \"Offer.sol\":2192:2214  Offers storage _offers */\n      0x00\n        /* \"Offer.sol\":2217:2223  offers */\n      dup1\n        /* \"Offer.sol\":2217:2234  offers[tokenAddr] */\n      0x00\n        /* \"Offer.sol\":2224:2233  tokenAddr */\n      dup5\n        /* \"Offer.sol\":2217:2234  offers[tokenAddr] */\n      0xffffffffffffffffffffffffffffffffffffffff\n      and\n      0xffffffffffffffffffffffffffffffffffffffff\n      and\n      dup2\n      mstore\n      0x20\n      add\n      swap1\n      dup2\n      mstore\n      0x20\n      add\n      0x00\n      keccak256\n        /* \"Offer.sol\":2217:2243  offers[tokenAddr][tokenId] */\n      0x00\n        /* \"Offer.sol\":2235:2242  tokenId */\n      dup4\n        /* \"Offer.sol\":2217:2243  offers[tokenAddr][tokenId] */\n      dup2\n      mstore\n      0x20\n      add\n      swap1\n      dup2\n      mstore\n      0x20\n      add\n      0x00\n      keccak256\n        /* \"Offer.sol\":2192:2243  Offers storage _offers = offers[tokenAddr][tokenId] */\n      swap1\n      pop\n        /* \"Offer.sol\":2283:2287  true */\n      0x01\n        /* \"Offer.sol\":2264:2287  _offers.isOffer == true */\n      iszero\n      iszero\n        /* \"Offer.sol\":2264:2271  _offers */\n      dup2\n        /* \"Offer.sol\":2264:2279  _offers.isOffer */\n      0x02\n      add\n      0x00\n      swap1\n      sload\n      swap1\n      0x0100\n      exp\n      swap1\n      div\n      0xff\n      and\n        /* \"Offer.sol\":2264:2287  _offers.isOffer == true */\n      iszero\n      iszero\n      eq\n        /* \"Offer.sol\":2256:2301  require(_offers.isOffer == true, \"No offer.\") */\n      tag_86\n      jumpi\n      mload(0x40)\n      0x08c379a000000000000000000000000000000000000000000000000000000000\n      dup2\n      mstore\n      0x04\n      add\n      tag_87\n      swap1\n      tag_48\n      jump\t// in\n    tag_87:\n      mload(0x40)\n      dup1\n      swap2\n      sub\n      swap1\n      revert\n    tag_86:\n        /* \"Offer.sol\":2349:2350  0 */\n      0x00\n        /* \"Offer.sol\":2320:2327  _offers */\n      dup2\n        /* \"Offer.sol\":2320:2334  _offers.amount */\n      0x01\n      add\n        /* \"Offer.sol\":2320:2346  _offers.amount[msg.sender] */\n      0x00\n        /* \"Offer.sol\":2335:2345  msg.sender */\n      caller\n        /* \"Offer.sol\":2320:2346  _offers.amount[msg.sender] */\n      0xffffffffffffffffffffffffffffffffffffffff\n      and\n      0xffffffffffffffffffffffffffffffffffffffff\n      and\n      dup2\n      mstore\n      0x20\n      add\n      swap1\n      dup2\n      mstore\n      0x20\n      add\n      0x00\n      keccak256\n      sload\n        /* \"Offer.sol\":2320:2350  _offers.amount[msg.sender] > 0 */\n      gt\n        /* \"Offer.sol\":2312:2366  require(_offers.amount[msg.sender] > 0, \"Offer is 0.\") */\n      tag_88\n      jumpi\n      mload(0x40)\n      0x08c379a000000000000000000000000000000000000000000000000000000000\n      dup2\n      mstore\n      0x04\n      add\n      tag_89\n      swap1\n      tag_90\n      jump\t// in\n    tag_89:\n      mload(0x40)\n      dup1\n      swap2\n      sub\n      swap1\n      revert\n    tag_88:\n        /* \"Offer.sol\":2379:2393  uint lastIndex */\n      0x00\n        /* \"Offer.sol\":2421:2422  1 */\n      0x01\n        /* \"Offer.sol\":2396:2403  _offers */\n      dup3\n        /* \"Offer.sol\":2396:2411  _offers.offerer */\n      0x00\n      add\n        /* \"Offer.sol\":2396:2418  _offers.offerer.length */\n      dup1\n      sload\n      swap1\n      pop\n        /* \"Offer.sol\":2396:2422  _offers.offerer.length - 1 */\n      tag_91\n      swap2\n      swap1\n      tag_52\n      jump\t// in\n    tag_91:\n        /* \"Offer.sol\":2379:2422  uint lastIndex = _offers.offerer.length - 1 */\n      swap1\n      pop\n        /* \"Offer.sol\":2452:2459  _offers */\n      dup2\n        /* \"Offer.sol\":2452:2467  _offers.offerer */\n      0x00\n      add\n        /* \"Offer.sol\":2468:2477  lastIndex */\n      dup2\n        /* \"Offer.sol\":2452:2478  _offers.offerer[lastIndex] */\n      dup2\n      sload\n      dup2\n      lt\n      tag_92\n      jumpi\n      tag_93\n      tag_59\n      jump\t// in\n    tag_93:\n    tag_92:\n      swap1\n      0x00\n      mstore\n      keccak256(0x00, 0x20)\n      add\n      0x00\n      swap1\n      sload\n      swap1\n      0x0100\n      exp\n      swap1\n      div\n      0xffffffffffffffffffffffffffffffffffffffff\n      and\n        /* \"Offer.sol\":2438:2478  msg.sender == _offers.offerer[lastIndex] */\n      0xffffffffffffffffffffffffffffffffffffffff\n      and\n        /* \"Offer.sol\":2438:2448  msg.sender */\n      caller\n        /* \"Offer.sol\":2438:2478  msg.sender == _offers.offerer[lastIndex] */\n      0xffffffffffffffffffffffffffffffffffffffff\n      and\n      eq\n        /* \"Offer.sol\":2435:2851  if(msg.sender == _offers.offerer[lastIndex]) {\r... */\n      iszero\n      tag_95\n      jumpi\n        /* \"Offer.sol\":2495:2502  _offers */\n      dup2\n        /* \"Offer.sol\":2495:2510  _offers.offerer */\n      0x00\n      add\n        /* \"Offer.sol\":2495:2516  _offers.offerer.pop() */\n      dup1\n      sload\n      dup1\n      tag_96\n      jumpi\n      tag_97\n      tag_75\n      jump\t// in\n    tag_97:\n    tag_96:\n      0x01\n      swap1\n      sub\n      dup2\n      dup2\n      swap1\n      0x00\n      mstore\n      keccak256(0x00, 0x20)\n      add\n      exp(0x0100, 0x00)\n      dup2\n      sload\n      swap1\n      0xffffffffffffffffffffffffffffffffffffffff\n      mul\n      not\n      and\n      swap1\n      sstore\n      swap1\n      sstore\n        /* \"Offer.sol\":2435:2851  if(msg.sender == _offers.offerer[lastIndex]) {\r... */\n      jump(tag_99)\n    tag_95:\n        /* \"Offer.sol\":2562:2568  uint i */\n      0x00\n        /* \"Offer.sol\":2558:2840  for(uint i = 0; i < _offers.offerer.length; i++) {\r... */\n    tag_100:\n        /* \"Offer.sol\":2578:2585  _offers */\n      dup3\n        /* \"Offer.sol\":2578:2593  _offers.offerer */\n      0x00\n      add\n        /* \"Offer.sol\":2578:2600  _offers.offerer.length */\n      dup1\n      sload\n      swap1\n      pop\n        /* \"Offer.sol\":2574:2575  i */\n      dup2\n        /* \"Offer.sol\":2574:2600  i < _offers.offerer.length */\n      lt\n        /* \"Offer.sol\":2558:2840  for(uint i = 0; i < _offers.offerer.length; i++) {\r... */\n      iszero\n      tag_101\n      jumpi\n        /* \"Offer.sol\":2651:2661  msg.sender */\n      caller\n        /* \"Offer.sol\":2629:2661  _offers.offerer[i] == msg.sender */\n      0xffffffffffffffffffffffffffffffffffffffff\n      and\n        /* \"Offer.sol\":2629:2636  _offers */\n      dup4\n        /* \"Offer.sol\":2629:2644  _offers.offerer */\n      0x00\n      add\n        /* \"Offer.sol\":2645:2646  i */\n      dup3\n        /* \"Offer.sol\":2629:2647  _offers.offerer[i] */\n      dup2\n      sload\n      dup2\n      lt\n      tag_103\n      jumpi\n      tag_104\n      tag_59\n      jump\t// in\n    tag_104:\n    tag_103:\n      swap1\n      0x00\n      mstore\n      keccak256(0x00, 0x20)\n      add\n      0x00\n      swap1\n      sload\n      swap1\n      0x0100\n      exp\n      swap1\n      div\n      0xffffffffffffffffffffffffffffffffffffffff\n      and\n        /* \"Offer.sol\":2629:2661  _offers.offerer[i] == msg.sender */\n      0xffffffffffffffffffffffffffffffffffffffff\n      and\n      eq\n        /* \"Offer.sol\":2626:2825  if(_offers.offerer[i] == msg.sender) {\r... */\n      iszero\n      tag_106\n      jumpi\n        /* \"Offer.sol\":2707:2714  _offers */\n      dup3\n        /* \"Offer.sol\":2707:2722  _offers.offerer */\n      0x00\n      add\n        /* \"Offer.sol\":2723:2732  lastIndex */\n      dup3\n        /* \"Offer.sol\":2707:2733  _offers.offerer[lastIndex] */\n      dup2\n      sload\n      dup2\n      lt\n      tag_107\n      jumpi\n      tag_108\n      tag_59\n      jump\t// in\n    tag_108:\n    tag_107:\n      swap1\n      0x00\n      mstore\n      keccak256(0x00, 0x20)\n      add\n      0x00\n      swap1\n      sload\n      swap1\n      0x0100\n      exp\n      swap1\n      div\n      0xffffffffffffffffffffffffffffffffffffffff\n      and\n        /* \"Offer.sol\":2686:2693  _offers */\n      dup4\n        /* \"Offer.sol\":2686:2701  _offers.offerer */\n      0x00\n      add\n        /* \"Offer.sol\":2702:2703  i */\n      dup3\n        /* \"Offer.sol\":2686:2704  _offers.offerer[i] */\n      dup2\n      sload\n      dup2\n      lt\n      tag_110\n      jumpi\n      tag_111\n      tag_59\n      jump\t// in\n    tag_111:\n    tag_110:\n      swap1\n      0x00\n      mstore\n      keccak256(0x00, 0x20)\n      add\n      0x00\n        /* \"Offer.sol\":2686:2733  _offers.offerer[i] = _offers.offerer[lastIndex] */\n      0x0100\n      exp\n      dup2\n      sload\n      dup2\n      0xffffffffffffffffffffffffffffffffffffffff\n      mul\n      not\n      and\n      swap1\n      dup4\n      0xffffffffffffffffffffffffffffffffffffffff\n      and\n      mul\n      or\n      swap1\n      sstore\n      pop\n        /* \"Offer.sol\":2756:2763  _offers */\n      dup3\n        /* \"Offer.sol\":2756:2771  _offers.offerer */\n      0x00\n      add\n        /* \"Offer.sol\":2756:2777  _offers.offerer.pop() */\n      dup1\n      sload\n      dup1\n      tag_113\n      jumpi\n      tag_114\n      tag_75\n      jump\t// in\n    tag_114:\n    tag_113:\n      0x01\n      swap1\n      sub\n      dup2\n      dup2\n      swap1\n      0x00\n      mstore\n      keccak256(0x00, 0x20)\n      add\n      exp(0x0100, 0x00)\n      dup2\n      sload\n      swap1\n      0xffffffffffffffffffffffffffffffffffffffff\n      mul\n      not\n      and\n      swap1\n      sstore\n      swap1\n      sstore\n        /* \"Offer.sol\":2800:2805  break */\n      jump(tag_101)\n        /* \"Offer.sol\":2626:2825  if(_offers.offerer[i] == msg.sender) {\r... */\n    tag_106:\n        /* \"Offer.sol\":2602:2605  i++ */\n      dup1\n      dup1\n      tag_116\n      swap1\n      tag_117\n      jump\t// in\n    tag_116:\n      swap2\n      pop\n      pop\n        /* \"Offer.sol\":2558:2840  for(uint i = 0; i < _offers.offerer.length; i++) {\r... */\n      jump(tag_100)\n    tag_101:\n      pop\n        /* \"Offer.sol\":2435:2851  if(msg.sender == _offers.offerer[lastIndex]) {\r... */\n    tag_99:\n        /* \"Offer.sol\":2871:2881  msg.sender */\n      caller\n        /* \"Offer.sol\":2863:2891  payable(msg.sender).transfer */\n      0xffffffffffffffffffffffffffffffffffffffff\n      and\n        /* \"Offer.sol\":2863:2919  payable(msg.sender).transfer(_offers.amount[msg.sender]) */\n      0x08fc\n        /* \"Offer.sol\":2892:2899  _offers */\n      dup4\n        /* \"Offer.sol\":2892:2906  _offers.amount */\n      0x01\n      add\n        /* \"Offer.sol\":2892:2918  _offers.amount[msg.sender] */\n      0x00\n        /* \"Offer.sol\":2907:2917  msg.sender */\n      caller\n        /* \"Offer.sol\":2892:2918  _offers.amount[msg.sender] */\n      0xffffffffffffffffffffffffffffffffffffffff\n      and\n      0xffffffffffffffffffffffffffffffffffffffff\n      and\n      dup2\n      mstore\n      0x20\n      add\n      swap1\n      dup2\n      mstore\n      0x20\n      add\n      0x00\n      keccak256\n      sload\n        /* \"Offer.sol\":2863:2919  payable(msg.sender).transfer(_offers.amount[msg.sender]) */\n      swap1\n      dup2\n      iszero\n      mul\n      swap1\n      mload(0x40)\n      0x00\n      mload(0x40)\n      dup1\n      dup4\n      sub\n      dup2\n      dup6\n      dup9\n      dup9\n      call\n      swap4\n      pop\n      pop\n      pop\n      pop\n      iszero\n      dup1\n      iszero\n      tag_119\n      jumpi\n      returndatasize\n      0x00\n      dup1\n      returndatacopy\n      revert(0x00, returndatasize)\n    tag_119:\n      pop\n        /* \"Offer.sol\":2959:2960  0 */\n      0x00\n        /* \"Offer.sol\":2930:2937  _offers */\n      dup3\n        /* \"Offer.sol\":2930:2944  _offers.amount */\n      0x01\n      add\n        /* \"Offer.sol\":2930:2956  _offers.amount[msg.sender] */\n      0x00\n        /* \"Offer.sol\":2945:2955  msg.sender */\n      caller\n        /* \"Offer.sol\":2930:2956  _offers.amount[msg.sender] */\n      0xffffffffffffffffffffffffffffffffffffffff\n      and\n      0xffffffffffffffffffffffffffffffffffffffff\n      and\n      dup2\n      mstore\n      0x20\n      add\n      swap1\n      dup2\n      mstore\n      0x20\n      add\n      0x00\n      keccak256\n        /* \"Offer.sol\":2930:2960  _offers.amount[msg.sender] = 0 */\n      dup2\n      swap1\n      sstore\n      pop\n        /* \"Offer.sol\":3012:3022  msg.sender */\n      caller\n        /* \"Offer.sol\":2978:3023  WithdrawEvent(tokenAddr, tokenId, msg.sender) */\n      0xffffffffffffffffffffffffffffffffffffffff\n      and\n        /* \"Offer.sol\":3003:3010  tokenId */\n      dup4\n        /* \"Offer.sol\":2992:3001  tokenAddr */\n      dup6\n        /* \"Offer.sol\":2978:3023  WithdrawEvent(tokenAddr, tokenId, msg.sender) */\n      0xffffffffffffffffffffffffffffffffffffffff\n      and\n      0x5eee4de26cd3c0f49f086164989c02cd12d97a964804bc188ee593e26fb98186\n      mload(0x40)\n      mload(0x40)\n      dup1\n      swap2\n      sub\n      swap1\n      log4\n        /* \"Offer.sol\":2181:3031  {\r... */\n      pop\n      pop\n        /* \"Offer.sol\":2115:3031  function withdraw(address tokenAddr, uint tokenId) public payable {\r... */\n      pop\n      pop\n      jump\t// out\n        /* \"#utility.yul\":7:146   */\n    tag_121:\n        /* \"#utility.yul\":53:58   */\n      0x00\n        /* \"#utility.yul\":91:97   */\n      dup2\n        /* \"#utility.yul\":78:98   */\n      calldataload\n        /* \"#utility.yul\":69:98   */\n      swap1\n      pop\n        /* \"#utility.yul\":107:140   */\n      tag_123\n        /* \"#utility.yul\":134:139   */\n      dup2\n        /* \"#utility.yul\":107:140   */\n      tag_124\n      jump\t// in\n    tag_123:\n        /* \"#utility.yul\":7:146   */\n      swap3\n      swap2\n      pop\n      pop\n      jump\t// out\n        /* \"#utility.yul\":152:295   */\n    tag_125:\n        /* \"#utility.yul\":209:214   */\n      0x00\n        /* \"#utility.yul\":240:246   */\n      dup2\n        /* \"#utility.yul\":234:247   */\n      mload\n        /* \"#utility.yul\":225:247   */\n      swap1\n      pop\n        /* \"#utility.yul\":256:289   */\n      tag_127\n        /* \"#utility.yul\":283:288   */\n      dup2\n        /* \"#utility.yul\":256:289   */\n      tag_124\n      jump\t// in\n    tag_127:\n        /* \"#utility.yul\":152:295   */\n      swap3\n      swap2\n      pop\n      pop\n      jump\t// out\n        /* \"#utility.yul\":301:440   */\n    tag_128:\n        /* \"#utility.yul\":347:352   */\n      0x00\n        /* \"#utility.yul\":385:391   */\n      dup2\n        /* \"#utility.yul\":372:392   */\n      calldataload\n        /* \"#utility.yul\":363:392   */\n      swap1\n      pop\n        /* \"#utility.yul\":401:434   */\n      tag_130\n        /* \"#utility.yul\":428:433   */\n      dup2\n        /* \"#utility.yul\":401:434   */\n      tag_131\n      jump\t// in\n    tag_130:\n        /* \"#utility.yul\":301:440   */\n      swap3\n      swap2\n      pop\n      pop\n      jump\t// out\n        /* \"#utility.yul\":446:797   */\n    tag_42:\n        /* \"#utility.yul\":516:522   */\n      0x00\n        /* \"#utility.yul\":565:567   */\n      0x20\n        /* \"#utility.yul\":553:562   */\n      dup3\n        /* \"#utility.yul\":544:551   */\n      dup5\n        /* \"#utility.yul\":540:563   */\n      sub\n        /* \"#utility.yul\":536:568   */\n      slt\n        /* \"#utility.yul\":533:652   */\n      iszero\n      tag_133\n      jumpi\n        /* \"#utility.yul\":571:650   */\n      tag_134\n      tag_135\n      jump\t// in\n    tag_134:\n        /* \"#utility.yul\":533:652   */\n    tag_133:\n        /* \"#utility.yul\":691:692   */\n      0x00\n        /* \"#utility.yul\":716:780   */\n      tag_136\n        /* \"#utility.yul\":772:779   */\n      dup5\n        /* \"#utility.yul\":763:769   */\n      dup3\n        /* \"#utility.yul\":752:761   */\n      dup6\n        /* \"#utility.yul\":748:770   */\n      add\n        /* \"#utility.yul\":716:780   */\n      tag_125\n      jump\t// in\n    tag_136:\n        /* \"#utility.yul\":706:780   */\n      swap2\n      pop\n        /* \"#utility.yul\":662:790   */\n      pop\n        /* \"#utility.yul\":446:797   */\n      swap3\n      swap2\n      pop\n      pop\n      jump\t// out\n        /* \"#utility.yul\":803:1277   */\n    tag_9:\n        /* \"#utility.yul\":871:877   */\n      0x00\n        /* \"#utility.yul\":879:885   */\n      dup1\n        /* \"#utility.yul\":928:930   */\n      0x40\n        /* \"#utility.yul\":916:925   */\n      dup4\n        /* \"#utility.yul\":907:914   */\n      dup6\n        /* \"#utility.yul\":903:926   */\n      sub\n        /* \"#utility.yul\":899:931   */\n      slt\n        /* \"#utility.yul\":896:1015   */\n      iszero\n      tag_138\n      jumpi\n        /* \"#utility.yul\":934:1013   */\n      tag_139\n      tag_135\n      jump\t// in\n    tag_139:\n        /* \"#utility.yul\":896:1015   */\n    tag_138:\n        /* \"#utility.yul\":1054:1055   */\n      0x00\n        /* \"#utility.yul\":1079:1132   */\n      tag_140\n        /* \"#utility.yul\":1124:1131   */\n      dup6\n        /* \"#utility.yul\":1115:1121   */\n      dup3\n        /* \"#utility.yul\":1104:1113   */\n      dup7\n        /* \"#utility.yul\":1100:1122   */\n      add\n        /* \"#utility.yul\":1079:1132   */\n      tag_121\n      jump\t// in\n    tag_140:\n        /* \"#utility.yul\":1069:1132   */\n      swap3\n      pop\n        /* \"#utility.yul\":1025:1142   */\n      pop\n        /* \"#utility.yul\":1181:1183   */\n      0x20\n        /* \"#utility.yul\":1207:1260   */\n      tag_141\n        /* \"#utility.yul\":1252:1259   */\n      dup6\n        /* \"#utility.yul\":1243:1249   */\n      dup3\n        /* \"#utility.yul\":1232:1241   */\n      dup7\n        /* \"#utility.yul\":1228:1250   */\n      add\n        /* \"#utility.yul\":1207:1260   */\n      tag_128\n      jump\t// in\n    tag_141:\n        /* \"#utility.yul\":1197:1260   */\n      swap2\n      pop\n        /* \"#utility.yul\":1152:1270   */\n      pop\n        /* \"#utility.yul\":803:1277   */\n      swap3\n      pop\n      swap3\n      swap1\n      pop\n      jump\t// out\n        /* \"#utility.yul\":1283:1902   */\n    tag_24:\n        /* \"#utility.yul\":1360:1366   */\n      0x00\n        /* \"#utility.yul\":1368:1374   */\n      dup1\n        /* \"#utility.yul\":1376:1382   */\n      0x00\n        /* \"#utility.yul\":1425:1427   */\n      0x60\n        /* \"#utility.yul\":1413:1422   */\n      dup5\n        /* \"#utility.yul\":1404:1411   */\n      dup7\n        /* \"#utility.yul\":1400:1423   */\n      sub\n        /* \"#utility.yul\":1396:1428   */\n      slt\n        /* \"#utility.yul\":1393:1512   */\n      iszero\n      tag_143\n      jumpi\n        /* \"#utility.yul\":1431:1510   */\n      tag_144\n      tag_135\n      jump\t// in\n    tag_144:\n        /* \"#utility.yul\":1393:1512   */\n    tag_143:\n        /* \"#utility.yul\":1551:1552   */\n      0x00\n        /* \"#utility.yul\":1576:1629   */\n      tag_145\n        /* \"#utility.yul\":1621:1628   */\n      dup7\n        /* \"#utility.yul\":1612:1618   */\n      dup3\n        /* \"#utility.yul\":1601:1610   */\n      dup8\n        /* \"#utility.yul\":1597:1619   */\n      add\n        /* \"#utility.yul\":1576:1629   */\n      tag_121\n      jump\t// in\n    tag_145:\n        /* \"#utility.yul\":1566:1629   */\n      swap4\n      pop\n        /* \"#utility.yul\":1522:1639   */\n      pop\n        /* \"#utility.yul\":1678:1680   */\n      0x20\n        /* \"#utility.yul\":1704:1757   */\n      tag_146\n        /* \"#utility.yul\":1749:1756   */\n      dup7\n        /* \"#utility.yul\":1740:1746   */\n      dup3\n        /* \"#utility.yul\":1729:1738   */\n      dup8\n        /* \"#utility.yul\":1725:1747   */\n      add\n        /* \"#utility.yul\":1704:1757   */\n      tag_128\n      jump\t// in\n    tag_146:\n        /* \"#utility.yul\":1694:1757   */\n      swap3\n      pop\n        /* \"#utility.yul\":1649:1767   */\n      pop\n        /* \"#utility.yul\":1806:1808   */\n      0x40\n        /* \"#utility.yul\":1832:1885   */\n      tag_147\n        /* \"#utility.yul\":1877:1884   */\n      dup7\n        /* \"#utility.yul\":1868:1874   */\n      dup3\n        /* \"#utility.yul\":1857:1866   */\n      dup8\n        /* \"#utility.yul\":1853:1875   */\n      add\n        /* \"#utility.yul\":1832:1885   */\n      tag_121\n      jump\t// in\n    tag_147:\n        /* \"#utility.yul\":1822:1885   */\n      swap2\n      pop\n        /* \"#utility.yul\":1777:1895   */\n      pop\n        /* \"#utility.yul\":1283:1902   */\n      swap3\n      pop\n      swap3\n      pop\n      swap3\n      jump\t// out\n        /* \"#utility.yul\":1908:2026   */\n    tag_148:\n        /* \"#utility.yul\":1995:2019   */\n      tag_150\n        /* \"#utility.yul\":2013:2018   */\n      dup2\n        /* \"#utility.yul\":1995:2019   */\n      tag_151\n      jump\t// in\n    tag_150:\n        /* \"#utility.yul\":1990:1993   */\n      dup3\n        /* \"#utility.yul\":1983:2020   */\n      mstore\n        /* \"#utility.yul\":1908:2026   */\n      pop\n      pop\n      jump\t// out\n        /* \"#utility.yul\":2032:2141   */\n    tag_152:\n        /* \"#utility.yul\":2113:2134   */\n      tag_154\n        /* \"#utility.yul\":2128:2133   */\n      dup2\n        /* \"#utility.yul\":2113:2134   */\n      tag_155\n      jump\t// in\n    tag_154:\n        /* \"#utility.yul\":2108:2111   */\n      dup3\n        /* \"#utility.yul\":2101:2135   */\n      mstore\n        /* \"#utility.yul\":2032:2141   */\n      pop\n      pop\n      jump\t// out\n        /* \"#utility.yul\":2147:2513   */\n    tag_156:\n        /* \"#utility.yul\":2289:2292   */\n      0x00\n        /* \"#utility.yul\":2310:2377   */\n      tag_158\n        /* \"#utility.yul\":2374:2376   */\n      0x0b\n        /* \"#utility.yul\":2369:2372   */\n      dup4\n        /* \"#utility.yul\":2310:2377   */\n      tag_159\n      jump\t// in\n    tag_158:\n        /* \"#utility.yul\":2303:2377   */\n      swap2\n      pop\n        /* \"#utility.yul\":2386:2479   */\n      tag_160\n        /* \"#utility.yul\":2475:2478   */\n      dup3\n        /* \"#utility.yul\":2386:2479   */\n      tag_161\n      jump\t// in\n    tag_160:\n        /* \"#utility.yul\":2504:2506   */\n      0x20\n        /* \"#utility.yul\":2499:2502   */\n      dup3\n        /* \"#utility.yul\":2495:2507   */\n      add\n        /* \"#utility.yul\":2488:2507   */\n      swap1\n      pop\n        /* \"#utility.yul\":2147:2513   */\n      swap2\n      swap1\n      pop\n      jump\t// out\n        /* \"#utility.yul\":2519:2885   */\n    tag_162:\n        /* \"#utility.yul\":2661:2664   */\n      0x00\n        /* \"#utility.yul\":2682:2749   */\n      tag_164\n        /* \"#utility.yul\":2746:2748   */\n      0x0d\n        /* \"#utility.yul\":2741:2744   */\n      dup4\n        /* \"#utility.yul\":2682:2749   */\n      tag_159\n      jump\t// in\n    tag_164:\n        /* \"#utility.yul\":2675:2749   */\n      swap2\n      pop\n        /* \"#utility.yul\":2758:2851   */\n      tag_165\n        /* \"#utility.yul\":2847:2850   */\n      dup3\n        /* \"#utility.yul\":2758:2851   */\n      tag_166\n      jump\t// in\n    tag_165:\n        /* \"#utility.yul\":2876:2878   */\n      0x20\n        /* \"#utility.yul\":2871:2874   */\n      dup3\n        /* \"#utility.yul\":2867:2879   */\n      add\n        /* \"#utility.yul\":2860:2879   */\n      swap1\n      pop\n        /* \"#utility.yul\":2519:2885   */\n      swap2\n      swap1\n      pop\n      jump\t// out\n        /* \"#utility.yul\":2891:3256   */\n    tag_167:\n        /* \"#utility.yul\":3033:3036   */\n      0x00\n        /* \"#utility.yul\":3054:3120   */\n      tag_169\n        /* \"#utility.yul\":3118:3119   */\n      0x09\n        /* \"#utility.yul\":3113:3116   */\n      dup4\n        /* \"#utility.yul\":3054:3120   */\n      tag_159\n      jump\t// in\n    tag_169:\n        /* \"#utility.yul\":3047:3120   */\n      swap2\n      pop\n        /* \"#utility.yul\":3129:3222   */\n      tag_170\n        /* \"#utility.yul\":3218:3221   */\n      dup3\n        /* \"#utility.yul\":3129:3222   */\n      tag_171\n      jump\t// in\n    tag_170:\n        /* \"#utility.yul\":3247:3249   */\n      0x20\n        /* \"#utility.yul\":3242:3245   */\n      dup3\n        /* \"#utility.yul\":3238:3250   */\n      add\n        /* \"#utility.yul\":3231:3250   */\n      swap1\n      pop\n        /* \"#utility.yul\":2891:3256   */\n      swap2\n      swap1\n      pop\n      jump\t// out\n        /* \"#utility.yul\":3262:3380   */\n    tag_172:\n        /* \"#utility.yul\":3349:3373   */\n      tag_174\n        /* \"#utility.yul\":3367:3372   */\n      dup2\n        /* \"#utility.yul\":3349:3373   */\n      tag_175\n      jump\t// in\n    tag_174:\n        /* \"#utility.yul\":3344:3347   */\n      dup3\n        /* \"#utility.yul\":3337:3374   */\n      mstore\n        /* \"#utility.yul\":3262:3380   */\n      pop\n      pop\n      jump\t// out\n        /* \"#utility.yul\":3386:3828   */\n    tag_80:\n        /* \"#utility.yul\":3535:3539   */\n      0x00\n        /* \"#utility.yul\":3573:3575   */\n      0x60\n        /* \"#utility.yul\":3562:3571   */\n      dup3\n        /* \"#utility.yul\":3558:3576   */\n      add\n        /* \"#utility.yul\":3550:3576   */\n      swap1\n      pop\n        /* \"#utility.yul\":3586:3657   */\n      tag_177\n        /* \"#utility.yul\":3654:3655   */\n      0x00\n        /* \"#utility.yul\":3643:3652   */\n      dup4\n        /* \"#utility.yul\":3639:3656   */\n      add\n        /* \"#utility.yul\":3630:3636   */\n      dup7\n        /* \"#utility.yul\":3586:3657   */\n      tag_148\n      jump\t// in\n    tag_177:\n        /* \"#utility.yul\":3667:3739   */\n      tag_178\n        /* \"#utility.yul\":3735:3737   */\n      0x20\n        /* \"#utility.yul\":3724:3733   */\n      dup4\n        /* \"#utility.yul\":3720:3738   */\n      add\n        /* \"#utility.yul\":3711:3717   */\n      dup6\n        /* \"#utility.yul\":3667:3739   */\n      tag_148\n      jump\t// in\n    tag_178:\n        /* \"#utility.yul\":3749:3821   */\n      tag_179\n        /* \"#utility.yul\":3817:3819   */\n      0x40\n        /* \"#utility.yul\":3806:3815   */\n      dup4\n        /* \"#utility.yul\":3802:3820   */\n      add\n        /* \"#utility.yul\":3793:3799   */\n      dup5\n        /* \"#utility.yul\":3749:3821   */\n      tag_172\n      jump\t// in\n    tag_179:\n        /* \"#utility.yul\":3386:3828   */\n      swap5\n      swap4\n      pop\n      pop\n      pop\n      pop\n      jump\t// out\n        /* \"#utility.yul\":3834:4044   */\n    tag_21:\n        /* \"#utility.yul\":3921:3925   */\n      0x00\n        /* \"#utility.yul\":3959:3961   */\n      0x20\n        /* \"#utility.yul\":3948:3957   */\n      dup3\n        /* \"#utility.yul\":3944:3962   */\n      add\n        /* \"#utility.yul\":3936:3962   */\n      swap1\n      pop\n        /* \"#utility.yul\":3972:4037   */\n      tag_181\n        /* \"#utility.yul\":4034:4035   */\n      0x00\n        /* \"#utility.yul\":4023:4032   */\n      dup4\n        /* \"#utility.yul\":4019:4036   */\n      add\n        /* \"#utility.yul\":4010:4016   */\n      dup5\n        /* \"#utility.yul\":3972:4037   */\n      tag_152\n      jump\t// in\n    tag_181:\n        /* \"#utility.yul\":3834:4044   */\n      swap3\n      swap2\n      pop\n      pop\n      jump\t// out\n        /* \"#utility.yul\":4050:4469   */\n    tag_90:\n        /* \"#utility.yul\":4216:4220   */\n      0x00\n        /* \"#utility.yul\":4254:4256   */\n      0x20\n        /* \"#utility.yul\":4243:4252   */\n      dup3\n        /* \"#utility.yul\":4239:4257   */\n      add\n        /* \"#utility.yul\":4231:4257   */\n      swap1\n      pop\n        /* \"#utility.yul\":4303:4312   */\n      dup2\n        /* \"#utility.yul\":4297:4301   */\n      dup2\n        /* \"#utility.yul\":4293:4313   */\n      sub\n        /* \"#utility.yul\":4289:4290   */\n      0x00\n        /* \"#utility.yul\":4278:4287   */\n      dup4\n        /* \"#utility.yul\":4274:4291   */\n      add\n        /* \"#utility.yul\":4267:4314   */\n      mstore\n        /* \"#utility.yul\":4331:4462   */\n      tag_183\n        /* \"#utility.yul\":4457:4461   */\n      dup2\n        /* \"#utility.yul\":4331:4462   */\n      tag_156\n      jump\t// in\n    tag_183:\n        /* \"#utility.yul\":4323:4462   */\n      swap1\n      pop\n        /* \"#utility.yul\":4050:4469   */\n      swap2\n      swap1\n      pop\n      jump\t// out\n        /* \"#utility.yul\":4475:4894   */\n    tag_45:\n        /* \"#utility.yul\":4641:4645   */\n      0x00\n        /* \"#utility.yul\":4679:4681   */\n      0x20\n        /* \"#utility.yul\":4668:4677   */\n      dup3\n        /* \"#utility.yul\":4664:4682   */\n      add\n        /* \"#utility.yul\":4656:4682   */\n      swap1\n      pop\n        /* \"#utility.yul\":4728:4737   */\n      dup2\n        /* \"#utility.yul\":4722:4726   */\n      dup2\n        /* \"#utility.yul\":4718:4738   */\n      sub\n        /* \"#utility.yul\":4714:4715   */\n      0x00\n        /* \"#utility.yul\":4703:4712   */\n      dup4\n        /* \"#utility.yul\":4699:4716   */\n      add\n        /* \"#utility.yul\":4692:4739   */\n      mstore\n        /* \"#utility.yul\":4756:4887   */\n      tag_185\n        /* \"#utility.yul\":4882:4886   */\n      dup2\n        /* \"#utility.yul\":4756:4887   */\n      tag_162\n      jump\t// in\n    tag_185:\n        /* \"#utility.yul\":4748:4887   */\n      swap1\n      pop\n        /* \"#utility.yul\":4475:4894   */\n      swap2\n      swap1\n      pop\n      jump\t// out\n        /* \"#utility.yul\":4900:5319   */\n    tag_48:\n        /* \"#utility.yul\":5066:5070   */\n      0x00\n        /* \"#utility.yul\":5104:5106   */\n      0x20\n        /* \"#utility.yul\":5093:5102   */\n      dup3\n        /* \"#utility.yul\":5089:5107   */\n      add\n        /* \"#utility.yul\":5081:5107   */\n      swap1\n      pop\n        /* \"#utility.yul\":5153:5162   */\n      dup2\n        /* \"#utility.yul\":5147:5151   */\n      dup2\n        /* \"#utility.yul\":5143:5163   */\n      sub\n        /* \"#utility.yul\":5139:5140   */\n      0x00\n        /* \"#utility.yul\":5128:5137   */\n      dup4\n        /* \"#utility.yul\":5124:5141   */\n      add\n        /* \"#utility.yul\":5117:5164   */\n      mstore\n        /* \"#utility.yul\":5181:5312   */\n      tag_187\n        /* \"#utility.yul\":5307:5311   */\n      dup2\n        /* \"#utility.yul\":5181:5312   */\n      tag_167\n      jump\t// in\n    tag_187:\n        /* \"#utility.yul\":5173:5312   */\n      swap1\n      pop\n        /* \"#utility.yul\":4900:5319   */\n      swap2\n      swap1\n      pop\n      jump\t// out\n        /* \"#utility.yul\":5325:5547   */\n    tag_15:\n        /* \"#utility.yul\":5418:5422   */\n      0x00\n        /* \"#utility.yul\":5456:5458   */\n      0x20\n        /* \"#utility.yul\":5445:5454   */\n      dup3\n        /* \"#utility.yul\":5441:5459   */\n      add\n        /* \"#utility.yul\":5433:5459   */\n      swap1\n      pop\n        /* \"#utility.yul\":5469:5540   */\n      tag_189\n        /* \"#utility.yul\":5537:5538   */\n      0x00\n        /* \"#utility.yul\":5526:5535   */\n      dup4\n        /* \"#utility.yul\":5522:5539   */\n      add\n        /* \"#utility.yul\":5513:5519   */\n      dup5\n        /* \"#utility.yul\":5469:5540   */\n      tag_172\n      jump\t// in\n    tag_189:\n        /* \"#utility.yul\":5325:5547   */\n      swap3\n      swap2\n      pop\n      pop\n      jump\t// out\n        /* \"#utility.yul\":5553:5873   */\n    tag_35:\n        /* \"#utility.yul\":5668:5672   */\n      0x00\n        /* \"#utility.yul\":5706:5708   */\n      0x40\n        /* \"#utility.yul\":5695:5704   */\n      dup3\n        /* \"#utility.yul\":5691:5709   */\n      add\n        /* \"#utility.yul\":5683:5709   */\n      swap1\n      pop\n        /* \"#utility.yul\":5719:5790   */\n      tag_191\n        /* \"#utility.yul\":5787:5788   */\n      0x00\n        /* \"#utility.yul\":5776:5785   */\n      dup4\n        /* \"#utility.yul\":5772:5789   */\n      add\n        /* \"#utility.yul\":5763:5769   */\n      dup6\n        /* \"#utility.yul\":5719:5790   */\n      tag_172\n      jump\t// in\n    tag_191:\n        /* \"#utility.yul\":5800:5866   */\n      tag_192\n        /* \"#utility.yul\":5862:5864   */\n      0x20\n        /* \"#utility.yul\":5851:5860   */\n      dup4\n        /* \"#utility.yul\":5847:5865   */\n      add\n        /* \"#utility.yul\":5838:5844   */\n      dup5\n        /* \"#utility.yul\":5800:5866   */\n      tag_152\n      jump\t// in\n    tag_192:\n        /* \"#utility.yul\":5553:5873   */\n      swap4\n      swap3\n      pop\n      pop\n      pop\n      jump\t// out\n        /* \"#utility.yul\":5960:6129   */\n    tag_159:\n        /* \"#utility.yul\":6044:6055   */\n      0x00\n        /* \"#utility.yul\":6078:6084   */\n      dup3\n        /* \"#utility.yul\":6073:6076   */\n      dup3\n        /* \"#utility.yul\":6066:6085   */\n      mstore\n        /* \"#utility.yul\":6118:6122   */\n      0x20\n        /* \"#utility.yul\":6113:6116   */\n      dup3\n        /* \"#utility.yul\":6109:6123   */\n      add\n        /* \"#utility.yul\":6094:6123   */\n      swap1\n      pop\n        /* \"#utility.yul\":5960:6129   */\n      swap3\n      swap2\n      pop\n      pop\n      jump\t// out\n        /* \"#utility.yul\":6135:6440   */\n    tag_33:\n        /* \"#utility.yul\":6175:6178   */\n      0x00\n        /* \"#utility.yul\":6194:6214   */\n      tag_197\n        /* \"#utility.yul\":6212:6213   */\n      dup3\n        /* \"#utility.yul\":6194:6214   */\n      tag_175\n      jump\t// in\n    tag_197:\n        /* \"#utility.yul\":6189:6214   */\n      swap2\n      pop\n        /* \"#utility.yul\":6228:6248   */\n      tag_198\n        /* \"#utility.yul\":6246:6247   */\n      dup4\n        /* \"#utility.yul\":6228:6248   */\n      tag_175\n      jump\t// in\n    tag_198:\n        /* \"#utility.yul\":6223:6248   */\n      swap3\n      pop\n        /* \"#utility.yul\":6382:6383   */\n      dup3\n        /* \"#utility.yul\":6314:6380   */\n      0xffffffffffffffffffffffffffffffffffffffffffffffffffffffffffffffff\n        /* \"#utility.yul\":6310:6384   */\n      sub\n        /* \"#utility.yul\":6307:6308   */\n      dup3\n        /* \"#utility.yul\":6304:6385   */\n      gt\n        /* \"#utility.yul\":6301:6408   */\n      iszero\n      tag_199\n      jumpi\n        /* \"#utility.yul\":6388:6406   */\n      tag_200\n      tag_201\n      jump\t// in\n    tag_200:\n        /* \"#utility.yul\":6301:6408   */\n    tag_199:\n        /* \"#utility.yul\":6432:6433   */\n      dup3\n        /* \"#utility.yul\":6429:6430   */\n      dup3\n        /* \"#utility.yul\":6425:6434   */\n      add\n        /* \"#utility.yul\":6418:6434   */\n      swap1\n      pop\n        /* \"#utility.yul\":6135:6440   */\n      swap3\n      swap2\n      pop\n      pop\n      jump\t// out\n        /* \"#utility.yul\":6446:6637   */\n    tag_52:\n        /* \"#utility.yul\":6486:6490   */\n      0x00\n        /* \"#utility.yul\":6506:6526   */\n      tag_203\n        /* \"#utility.yul\":6524:6525   */\n      dup3\n        /* \"#utility.yul\":6506:6526   */\n      tag_175\n      jump\t// in\n    tag_203:\n        /* \"#utility.yul\":6501:6526   */\n      swap2\n      pop\n        /* \"#utility.yul\":6540:6560   */\n      tag_204\n        /* \"#utility.yul\":6558:6559   */\n      dup4\n        /* \"#utility.yul\":6540:6560   */\n      tag_175\n      jump\t// in\n    tag_204:\n        /* \"#utility.yul\":6535:6560   */\n      swap3\n      pop\n        /* \"#utility.yul\":6579:6580   */\n      dup3\n        /* \"#utility.yul\":6576:6577   */\n      dup3\n        /* \"#utility.yul\":6573:6581   */\n      lt\n        /* \"#utility.yul\":6570:6604   */\n      iszero\n      tag_205\n      jumpi\n        /* \"#utility.yul\":6584:6602   */\n      tag_206\n      tag_201\n      jump\t// in\n    tag_206:\n        /* \"#utility.yul\":6570:6604   */\n    tag_205:\n        /* \"#utility.yul\":6629:6630   */\n      dup3\n        /* \"#utility.yul\":6626:6627   */\n      dup3\n        /* \"#utility.yul\":6622:6631   */\n      sub\n        /* \"#utility.yul\":6614:6631   */\n      swap1\n      pop\n        /* \"#utility.yul\":6446:6637   */\n      swap3\n      swap2\n      pop\n      pop\n      jump\t// out\n        /* \"#utility.yul\":6643:6739   */\n    tag_151:\n        /* \"#utility.yul\":6680:6687   */\n      0x00\n        /* \"#utility.yul\":6709:6733   */\n      tag_208\n        /* \"#utility.yul\":6727:6732   */\n      dup3\n        /* \"#utility.yul\":6709:6733   */\n      tag_209\n      jump\t// in\n    tag_208:\n        /* \"#utility.yul\":6698:6733   */\n      swap1\n      pop\n        /* \"#utility.yul\":6643:6739   */\n      swap2\n      swap1\n      pop\n      jump\t// out\n        /* \"#utility.yul\":6745:6835   */\n    tag_155:\n        /* \"#utility.yul\":6779:6786   */\n      0x00\n        /* \"#utility.yul\":6822:6827   */\n      dup2\n        /* \"#utility.yul\":6815:6828   */\n      iszero\n        /* \"#utility.yul\":6808:6829   */\n      iszero\n        /* \"#utility.yul\":6797:6829   */\n      swap1\n      pop\n        /* \"#utility.yul\":6745:6835   */\n      swap2\n      swap1\n      pop\n      jump\t// out\n        /* \"#utility.yul\":6841:6967   */\n    tag_209:\n        /* \"#utility.yul\":6878:6885   */\n      0x00\n        /* \"#utility.yul\":6918:6960   */\n      0xffffffffffffffffffffffffffffffffffffffff\n        /* \"#utility.yul\":6911:6916   */\n      dup3\n        /* \"#utility.yul\":6907:6961   */\n      and\n        /* \"#utility.yul\":6896:6961   */\n      swap1\n      pop\n        /* \"#utility.yul\":6841:6967   */\n      swap2\n      swap1\n      pop\n      jump\t// out\n        /* \"#utility.yul\":6973:7050   */\n    tag_175:\n        /* \"#utility.yul\":7010:7017   */\n      0x00\n        /* \"#utility.yul\":7039:7044   */\n      dup2\n        /* \"#utility.yul\":7028:7044   */\n      swap1\n      pop\n        /* \"#utility.yul\":6973:7050   */\n      swap2\n      swap1\n      pop\n      jump\t// out\n        /* \"#utility.yul\":7056:7227   */\n    tag_78:\n        /* \"#utility.yul\":7095:7098   */\n      0x00\n        /* \"#utility.yul\":7118:7142   */\n      tag_214\n        /* \"#utility.yul\":7136:7141   */\n      dup3\n        /* \"#utility.yul\":7118:7142   */\n      tag_175\n      jump\t// in\n    tag_214:\n        /* \"#utility.yul\":7109:7142   */\n      swap2\n      pop\n        /* \"#utility.yul\":7164:7168   */\n      0x00\n        /* \"#utility.yul\":7157:7162   */\n      dup3\n        /* \"#utility.yul\":7154:7169   */\n      eq\n        /* \"#utility.yul\":7151:7192   */\n      iszero\n      tag_215\n      jumpi\n        /* \"#utility.yul\":7172:7190   */\n      tag_216\n      tag_201\n      jump\t// in\n    tag_216:\n        /* \"#utility.yul\":7151:7192   */\n    tag_215:\n        /* \"#utility.yul\":7219:7220   */\n      0x01\n        /* \"#utility.yul\":7212:7217   */\n      dup3\n        /* \"#utility.yul\":7208:7221   */\n      sub\n        /* \"#utility.yul\":7201:7221   */\n      swap1\n      pop\n        /* \"#utility.yul\":7056:7227   */\n      swap2\n      swap1\n      pop\n      jump\t// out\n        /* \"#utility.yul\":7233:7466   */\n    tag_117:\n        /* \"#utility.yul\":7272:7275   */\n      0x00\n        /* \"#utility.yul\":7295:7319   */\n      tag_218\n        /* \"#utility.yul\":7313:7318   */\n      dup3\n        /* \"#utility.yul\":7295:7319   */\n      tag_175\n      jump\t// in\n    tag_218:\n        /* \"#utility.yul\":7286:7319   */\n      swap2\n      pop\n        /* \"#utility.yul\":7341:7407   */\n      0xffffffffffffffffffffffffffffffffffffffffffffffffffffffffffffffff\n        /* \"#utility.yul\":7334:7339   */\n      dup3\n        /* \"#utility.yul\":7331:7408   */\n      eq\n        /* \"#utility.yul\":7328:7431   */\n      iszero\n      tag_219\n      jumpi\n        /* \"#utility.yul\":7411:7429   */\n      tag_220\n      tag_201\n      jump\t// in\n    tag_220:\n        /* \"#utility.yul\":7328:7431   */\n    tag_219:\n        /* \"#utility.yul\":7458:7459   */\n      0x01\n        /* \"#utility.yul\":7451:7456   */\n      dup3\n        /* \"#utility.yul\":7447:7460   */\n      add\n        /* \"#utility.yul\":7440:7460   */\n      swap1\n      pop\n        /* \"#utility.yul\":7233:7466   */\n      swap2\n      swap1\n      pop\n      jump\t// out\n        /* \"#utility.yul\":7472:7652   */\n    tag_201:\n        /* \"#utility.yul\":7520:7597   */\n      0x4e487b7100000000000000000000000000000000000000000000000000000000\n        /* \"#utility.yul\":7517:7518   */\n      0x00\n        /* \"#utility.yul\":7510:7598   */\n      mstore\n        /* \"#utility.yul\":7617:7621   */\n      0x11\n        /* \"#utility.yul\":7614:7615   */\n      0x04\n        /* \"#utility.yul\":7607:7622   */\n      mstore\n        /* \"#utility.yul\":7641:7645   */\n      0x24\n        /* \"#utility.yul\":7638:7639   */\n      0x00\n        /* \"#utility.yul\":7631:7646   */\n      revert\n        /* \"#utility.yul\":7658:7838   */\n    tag_75:\n        /* \"#utility.yul\":7706:7783   */\n      0x4e487b7100000000000000000000000000000000000000000000000000000000\n        /* \"#utility.yul\":7703:7704   */\n      0x00\n        /* \"#utility.yul\":7696:7784   */\n      mstore\n        /* \"#utility.yul\":7803:7807   */\n      0x31\n        /* \"#utility.yul\":7800:7801   */\n      0x04\n        /* \"#utility.yul\":7793:7808   */\n      mstore\n        /* \"#utility.yul\":7827:7831   */\n      0x24\n        /* \"#utility.yul\":7824:7825   */\n      0x00\n        /* \"#utility.yul\":7817:7832   */\n      revert\n        /* \"#utility.yul\":7844:8024   */\n    tag_59:\n        /* \"#utility.yul\":7892:7969   */\n      0x4e487b7100000000000000000000000000000000000000000000000000000000\n        /* \"#utility.yul\":7889:7890   */\n      0x00\n        /* \"#utility.yul\":7882:7970   */\n      mstore\n        /* \"#utility.yul\":7989:7993   */\n      0x32\n        /* \"#utility.yul\":7986:7987   */\n      0x04\n        /* \"#utility.yul\":7979:7994   */\n      mstore\n        /* \"#utility.yul\":8013:8017   */\n      0x24\n        /* \"#utility.yul\":8010:8011   */\n      0x00\n        /* \"#utility.yul\":8003:8018   */\n      revert\n        /* \"#utility.yul\":8153:8270   */\n    tag_135:\n        /* \"#utility.yul\":8262:8263   */\n      0x00\n        /* \"#utility.yul\":8259:8260   */\n      dup1\n        /* \"#utility.yul\":8252:8264   */\n      revert\n        /* \"#utility.yul\":8276:8437   */\n    tag_161:\n        /* \"#utility.yul\":8416:8429   */\n      0x4f6666657220697320302e000000000000000000000000000000000000000000\n        /* \"#utility.yul\":8412:8413   */\n      0x00\n        /* \"#utility.yul\":8404:8410   */\n      dup3\n        /* \"#utility.yul\":8400:8414   */\n      add\n        /* \"#utility.yul\":8393:8430   */\n      mstore\n        /* \"#utility.yul\":8276:8437   */\n      pop\n      jump\t// out\n        /* \"#utility.yul\":8443:8606   */\n    tag_166:\n        /* \"#utility.yul\":8583:8598   */\n      0x556e617574686f72697a65642e00000000000000000000000000000000000000\n        /* \"#utility.yul\":8579:8580   */\n      0x00\n        /* \"#utility.yul\":8571:8577   */\n      dup3\n        /* \"#utility.yul\":8567:8581   */\n      add\n        /* \"#utility.yul\":8560:8599   */\n      mstore\n        /* \"#utility.yul\":8443:8606   */\n      pop\n      jump\t// out\n        /* \"#utility.yul\":8612:8771   */\n    tag_171:\n        /* \"#utility.yul\":8752:8763   */\n      0x4e6f206f666665722e0000000000000000000000000000000000000000000000\n        /* \"#utility.yul\":8748:8749   */\n      0x00\n        /* \"#utility.yul\":8740:8746   */\n      dup3\n        /* \"#utility.yul\":8736:8750   */\n      add\n        /* \"#utility.yul\":8729:8764   */\n      mstore\n        /* \"#utility.yul\":8612:8771   */\n      pop\n      jump\t// out\n        /* \"#utility.yul\":8777:8899   */\n    tag_124:\n        /* \"#utility.yul\":8850:8874   */\n      tag_231\n        /* \"#utility.yul\":8868:8873   */\n      dup2\n        /* \"#utility.yul\":8850:8874   */\n      tag_151\n      jump\t// in\n    tag_231:\n        /* \"#utility.yul\":8843:8848   */\n      dup2\n        /* \"#utility.yul\":8840:8875   */\n      eq\n        /* \"#utility.yul\":8830:8893   */\n      tag_232\n      jumpi\n        /* \"#utility.yul\":8889:8890   */\n      0x00\n        /* \"#utility.yul\":8886:8887   */\n      dup1\n        /* \"#utility.yul\":8879:8891   */\n      revert\n        /* \"#utility.yul\":8830:8893   */\n    tag_232:\n        /* \"#utility.yul\":8777:8899   */\n      pop\n      jump\t// out\n        /* \"#utility.yul\":8905:9027   */\n    tag_131:\n        /* \"#utility.yul\":8978:9002   */\n      tag_234\n        /* \"#utility.yul\":8996:9001   */\n      dup2\n        /* \"#utility.yul\":8978:9002   */\n      tag_175\n      jump\t// in\n    tag_234:\n        /* \"#utility.yul\":8971:8976   */\n      dup2\n        /* \"#utility.yul\":8968:9003   */\n      eq\n        /* \"#utility.yul\":8958:9021   */\n      tag_235\n      jumpi\n        /* \"#utility.yul\":9017:9018   */\n      0x00\n        /* \"#utility.yul\":9014:9015   */\n      dup1\n        /* \"#utility.yul\":9007:9019   */\n      revert\n        /* \"#utility.yul\":8958:9021   */\n    tag_235:\n        /* \"#utility.yul\":8905:9027   */\n      pop\n      jump\t// out\n\n    auxdata: 0xa2646970667358221220fcb256481dbc002cf5dccd1efeb96f953e7fc3c5329acfe0545ecf697db06acf64736f6c63430008070033\n}\n",
				"bytecode": {
					"linkReferences": {},
					"object": "608060405234801561001057600080fd5b5061135b806100206000396000f3fe60806040526004361061004a5760003560e01c80636b2129601461004f5780637bb98a681461006b578063aa1a841114610096578063abd51552146100d3578063f3fef3a3146100ef575b600080fd5b61006960048036038101906100649190610e75565b61010b565b005b34801561007757600080fd5b506100806102f8565b60405161008d9190611050565b60405180910390f35b3480156100a257600080fd5b506100bd60048036038101906100b89190610e75565b6102fe565b6040516100ca9190610fd5565b60405180910390f35b6100ed60048036038101906100e89190610eb5565b610336565b005b61010960048036038101906101049190610e75565b610948565b005b60008060008473ffffffffffffffffffffffffffffffffffffffff1673ffffffffffffffffffffffffffffffffffffffff1681526020019081526020016000206000838152602001908152602001600020905060008160010160003373ffffffffffffffffffffffffffffffffffffffff1673ffffffffffffffffffffffffffffffffffffffff16815260200190815260200160002054141561020e5780600001339080600181540180825580915050600190039060005260206000200160009091909190916101000a81548173ffffffffffffffffffffffffffffffffffffffff021916908373ffffffffffffffffffffffffffffffffffffffff1602179055505b348160010160003373ffffffffffffffffffffffffffffffffffffffff1673ffffffffffffffffffffffffffffffffffffffff1681526020019081526020016000208190555060018160020160006101000a81548160ff021916908315150217905550346001600082825461028391906110a5565b925050819055503373ffffffffffffffffffffffffffffffffffffffff16828473ffffffffffffffffffffffffffffffffffffffff167fa297a5039e151f85fd39b734d57194f31bf1ba744464810f8fa18941216c79b03460016040516102eb92919061106b565b60405180910390a4505050565b60015481565b6000602052816000526040600020602052806000526040600020600091509150508060020160009054906101000a900460ff16905081565b60008060008573ffffffffffffffffffffffffffffffffffffffff1673ffffffffffffffffffffffffffffffffffffffff1681526020019081526020016000206000848152602001908152602001600020905060008490503373ffffffffffffffffffffffffffffffffffffffff168173ffffffffffffffffffffffffffffffffffffffff16636352211e866040518263ffffffff1660e01b81526004016103de9190611050565b60206040518083038186803b1580156103f657600080fd5b505afa15801561040a573d6000803e3d6000fd5b505050506040513d601f19601f8201168201806040525081019061042e9190610e48565b73ffffffffffffffffffffffffffffffffffffffff1614610484576040517f08c379a000000000000000000000000000000000000000000000000000000000815260040161047b90611010565b60405180910390fd5b600115158260020160009054906101000a900460ff161515146104dc576040517f08c379a00000000000000000000000000000000000000000000000000000000081526004016104d390611030565b60405180910390fd5b3373ffffffffffffffffffffffffffffffffffffffff166108fc8360010160008673ffffffffffffffffffffffffffffffffffffffff1673ffffffffffffffffffffffffffffffffffffffff168152602001908152602001600020549081150290604051600060405180830381858888f19350505050158015610563573d6000803e3d6000fd5b508160010160008473ffffffffffffffffffffffffffffffffffffffff1673ffffffffffffffffffffffffffffffffffffffff16815260200190815260200160002054600160008282546105b791906110fb565b9250508190555060008260020160006101000a81548160ff0219169083151502179055506000600183600001805490506105f191906110fb565b90505b600081106108815782600001818154811061061257610611611248565b5b9060005260206000200160009054906101000a900473ffffffffffffffffffffffffffffffffffffffff1673ffffffffffffffffffffffffffffffffffffffff166108fc84600101600086600001858154811061067257610671611248565b5b9060005260206000200160009054906101000a900473ffffffffffffffffffffffffffffffffffffffff1673ffffffffffffffffffffffffffffffffffffffff1673ffffffffffffffffffffffffffffffffffffffff168152602001908152602001600020549081150290604051600060405180830381858888f19350505050158015610703573d6000803e3d6000fd5b508260010160008460000183815481106107205761071f611248565b5b9060005260206000200160009054906101000a900473ffffffffffffffffffffffffffffffffffffffff1673ffffffffffffffffffffffffffffffffffffffff1673ffffffffffffffffffffffffffffffffffffffff168152602001908152602001600020546001600082825461079791906110fb565b9250508190555060008360010160008560000184815481106107bc576107bb611248565b5b9060005260206000200160009054906101000a900473ffffffffffffffffffffffffffffffffffffffff1673ffffffffffffffffffffffffffffffffffffffff1673ffffffffffffffffffffffffffffffffffffffff168152602001908152602001600020819055508260000180548061083957610838611219565b5b6001900381819060005260206000200160006101000a81549073ffffffffffffffffffffffffffffffffffffffff02191690559055808061087990611177565b9150506105f4565b508073ffffffffffffffffffffffffffffffffffffffff166323b872dd3385876040518463ffffffff1660e01b81526004016108bf93929190610f9e565b600060405180830381600087803b1580156108d957600080fd5b505af11580156108ed573d6000803e3d6000fd5b50505050838573ffffffffffffffffffffffffffffffffffffffff167f9663db6e9b1f015a82beb1b03ec8fed9d1a25b5da31b2cc92c2be9e8c629a80d60006040516109399190610fd5565b60405180910390a35050505050565b60008060008473ffffffffffffffffffffffffffffffffffffffff1673ffffffffffffffffffffffffffffffffffffffff16815260200190815260200160002060008381526020019081526020016000209050600115158160020160009054906101000a900460ff161515146109f3576040517f08c379a00000000000000000000000000000000000000000000000000000000081526004016109ea90611030565b60405180910390fd5b60008160010160003373ffffffffffffffffffffffffffffffffffffffff1673ffffffffffffffffffffffffffffffffffffffff1681526020019081526020016000205411610a77576040517f08c379a0000000000000000000000000000000000000000000000000000000008152600401610a6e90610ff0565b60405180910390fd5b600060018260000180549050610a8d91906110fb565b9050816000018181548110610aa557610aa4611248565b5b9060005260206000200160009054906101000a900473ffffffffffffffffffffffffffffffffffffffff1673ffffffffffffffffffffffffffffffffffffffff163373ffffffffffffffffffffffffffffffffffffffff161415610b515781600001805480610b1757610b16611219565b5b6001900381819060005260206000200160006101000a81549073ffffffffffffffffffffffffffffffffffffffff02191690559055610cd9565b60005b8260000180549050811015610cd7573373ffffffffffffffffffffffffffffffffffffffff16836000018281548110610b9057610b8f611248565b5b9060005260206000200160009054906101000a900473ffffffffffffffffffffffffffffffffffffffff1673ffffffffffffffffffffffffffffffffffffffff161415610cc457826000018281548110610bed57610bec611248565b5b9060005260206000200160009054906101000a900473ffffffffffffffffffffffffffffffffffffffff16836000018281548110610c2e57610c2d611248565b5b9060005260206000200160006101000a81548173ffffffffffffffffffffffffffffffffffffffff021916908373ffffffffffffffffffffffffffffffffffffffff16021790555082600001805480610c8a57610c89611219565b5b6001900381819060005260206000200160006101000a81549073ffffffffffffffffffffffffffffffffffffffff02191690559055610cd7565b8080610ccf906111a1565b915050610b54565b505b3373ffffffffffffffffffffffffffffffffffffffff166108fc8360010160003373ffffffffffffffffffffffffffffffffffffffff1673ffffffffffffffffffffffffffffffffffffffff168152602001908152602001600020549081150290604051600060405180830381858888f19350505050158015610d60573d6000803e3d6000fd5b5060008260010160003373ffffffffffffffffffffffffffffffffffffffff1673ffffffffffffffffffffffffffffffffffffffff168152602001908152602001600020819055503373ffffffffffffffffffffffffffffffffffffffff16838573ffffffffffffffffffffffffffffffffffffffff167f5eee4de26cd3c0f49f086164989c02cd12d97a964804bc188ee593e26fb9818660405160405180910390a450505050565b600081359050610e18816112f7565b92915050565b600081519050610e2d816112f7565b92915050565b600081359050610e428161130e565b92915050565b600060208284031215610e5e57610e5d611277565b5b6000610e6c84828501610e1e565b91505092915050565b60008060408385031215610e8c57610e8b611277565b5b6000610e9a85828601610e09565b9250506020610eab85828601610e33565b9150509250929050565b600080600060608486031215610ece57610ecd611277565b5b6000610edc86828701610e09565b9350506020610eed86828701610e33565b9250506040610efe86828701610e09565b9150509250925092565b610f118161112f565b82525050565b610f2081611141565b82525050565b6000610f33600b83611094565b9150610f3e8261127c565b602082019050919050565b6000610f56600d83611094565b9150610f61826112a5565b602082019050919050565b6000610f79600983611094565b9150610f84826112ce565b602082019050919050565b610f988161116d565b82525050565b6000606082019050610fb36000830186610f08565b610fc06020830185610f08565b610fcd6040830184610f8f565b949350505050565b6000602082019050610fea6000830184610f17565b92915050565b6000602082019050818103600083015261100981610f26565b9050919050565b6000602082019050818103600083015261102981610f49565b9050919050565b6000602082019050818103600083015261104981610f6c565b9050919050565b60006020820190506110656000830184610f8f565b92915050565b60006040820190506110806000830185610f8f565b61108d6020830184610f17565b9392505050565b600082825260208201905092915050565b60006110b08261116d565b91506110bb8361116d565b9250827fffffffffffffffffffffffffffffffffffffffffffffffffffffffffffffffff038211156110f0576110ef6111ea565b5b828201905092915050565b60006111068261116d565b91506111118361116d565b925082821015611124576111236111ea565b5b828203905092915050565b600061113a8261114d565b9050919050565b60008115159050919050565b600073ffffffffffffffffffffffffffffffffffffffff82169050919050565b6000819050919050565b60006111828261116d565b91506000821415611196576111956111ea565b5b600182039050919050565b60006111ac8261116d565b91507fffffffffffffffffffffffffffffffffffffffffffffffffffffffffffffffff8214156111df576111de6111ea565b5b600182019050919050565b7f4e487b7100000000000000000000000000000000000000000000000000000000600052601160045260246000fd5b7f4e487b7100000000000000000000000000000000000000000000000000000000600052603160045260246000fd5b7f4e487b7100000000000000000000000000000000000000000000000000000000600052603260045260246000fd5b600080fd5b7f4f6666657220697320302e000000000000000000000000000000000000000000600082015250565b7f556e617574686f72697a65642e00000000000000000000000000000000000000600082015250565b7f4e6f206f666665722e0000000000000000000000000000000000000000000000600082015250565b6113008161112f565b811461130b57600080fd5b50565b6113178161116d565b811461132257600080fd5b5056fea2646970667358221220fcb256481dbc002cf5dccd1efeb96f953e7fc3c5329acfe0545ecf697db06acf64736f6c63430008070033",
					"opcodes": "PUSH1 0x80 PUSH1 0x40 MSTORE CALLVALUE DUP1 ISZERO PUSH2 0x10 JUMPI PUSH1 0x0 DUP1 REVERT JUMPDEST POP PUSH2 0x135B DUP1 PUSH2 0x20 PUSH1 0x0 CODECOPY PUSH1 0x0 RETURN INVALID PUSH1 0x80 PUSH1 0x40 MSTORE PUSH1 0x4 CALLDATASIZE LT PUSH2 0x4A JUMPI PUSH1 0x0 CALLDATALOAD PUSH1 0xE0 SHR DUP1 PUSH4 0x6B212960 EQ PUSH2 0x4F JUMPI DUP1 PUSH4 0x7BB98A68 EQ PUSH2 0x6B JUMPI DUP1 PUSH4 0xAA1A8411 EQ PUSH2 0x96 JUMPI DUP1 PUSH4 0xABD51552 EQ PUSH2 0xD3 JUMPI DUP1 PUSH4 0xF3FEF3A3 EQ PUSH2 0xEF JUMPI JUMPDEST PUSH1 0x0 DUP1 REVERT JUMPDEST PUSH2 0x69 PUSH1 0x4 DUP1 CALLDATASIZE SUB DUP2 ADD SWAP1 PUSH2 0x64 SWAP2 SWAP1 PUSH2 0xE75 JUMP JUMPDEST PUSH2 0x10B JUMP JUMPDEST STOP JUMPDEST CALLVALUE DUP1 ISZERO PUSH2 0x77 JUMPI PUSH1 0x0 DUP1 REVERT JUMPDEST POP PUSH2 0x80 PUSH2 0x2F8 JUMP JUMPDEST PUSH1 0x40 MLOAD PUSH2 0x8D SWAP2 SWAP1 PUSH2 0x1050 JUMP JUMPDEST PUSH1 0x40 MLOAD DUP1 SWAP2 SUB SWAP1 RETURN JUMPDEST CALLVALUE DUP1 ISZERO PUSH2 0xA2 JUMPI PUSH1 0x0 DUP1 REVERT JUMPDEST POP PUSH2 0xBD PUSH1 0x4 DUP1 CALLDATASIZE SUB DUP2 ADD SWAP1 PUSH2 0xB8 SWAP2 SWAP1 PUSH2 0xE75 JUMP JUMPDEST PUSH2 0x2FE JUMP JUMPDEST PUSH1 0x40 MLOAD PUSH2 0xCA SWAP2 SWAP1 PUSH2 0xFD5 JUMP JUMPDEST PUSH1 0x40 MLOAD DUP1 SWAP2 SUB SWAP1 RETURN JUMPDEST PUSH2 0xED PUSH1 0x4 DUP1 CALLDATASIZE SUB DUP2 ADD SWAP1 PUSH2 0xE8 SWAP2 SWAP1 PUSH2 0xEB5 JUMP JUMPDEST PUSH2 0x336 JUMP JUMPDEST STOP JUMPDEST PUSH2 0x109 PUSH1 0x4 DUP1 CALLDATASIZE SUB DUP2 ADD SWAP1 PUSH2 0x104 SWAP2 SWAP1 PUSH2 0xE75 JUMP JUMPDEST PUSH2 0x948 JUMP JUMPDEST STOP JUMPDEST PUSH1 0x0 DUP1 PUSH1 0x0 DUP5 PUSH20 0xFFFFFFFFFFFFFFFFFFFFFFFFFFFFFFFFFFFFFFFF AND PUSH20 0xFFFFFFFFFFFFFFFFFFFFFFFFFFFFFFFFFFFFFFFF AND DUP2 MSTORE PUSH1 0x20 ADD SWAP1 DUP2 MSTORE PUSH1 0x20 ADD PUSH1 0x0 KECCAK256 PUSH1 0x0 DUP4 DUP2 MSTORE PUSH1 0x20 ADD SWAP1 DUP2 MSTORE PUSH1 0x20 ADD PUSH1 0x0 KECCAK256 SWAP1 POP PUSH1 0x0 DUP2 PUSH1 0x1 ADD PUSH1 0x0 CALLER PUSH20 0xFFFFFFFFFFFFFFFFFFFFFFFFFFFFFFFFFFFFFFFF AND PUSH20 0xFFFFFFFFFFFFFFFFFFFFFFFFFFFFFFFFFFFFFFFF AND DUP2 MSTORE PUSH1 0x20 ADD SWAP1 DUP2 MSTORE PUSH1 0x20 ADD PUSH1 0x0 KECCAK256 SLOAD EQ ISZERO PUSH2 0x20E JUMPI DUP1 PUSH1 0x0 ADD CALLER SWAP1 DUP1 PUSH1 0x1 DUP2 SLOAD ADD DUP1 DUP3 SSTORE DUP1 SWAP2 POP POP PUSH1 0x1 SWAP1 SUB SWAP1 PUSH1 0x0 MSTORE PUSH1 0x20 PUSH1 0x0 KECCAK256 ADD PUSH1 0x0 SWAP1 SWAP2 SWAP1 SWAP2 SWAP1 SWAP2 PUSH2 0x100 EXP DUP2 SLOAD DUP2 PUSH20 0xFFFFFFFFFFFFFFFFFFFFFFFFFFFFFFFFFFFFFFFF MUL NOT AND SWAP1 DUP4 PUSH20 0xFFFFFFFFFFFFFFFFFFFFFFFFFFFFFFFFFFFFFFFF AND MUL OR SWAP1 SSTORE POP JUMPDEST CALLVALUE DUP2 PUSH1 0x1 ADD PUSH1 0x0 CALLER PUSH20 0xFFFFFFFFFFFFFFFFFFFFFFFFFFFFFFFFFFFFFFFF AND PUSH20 0xFFFFFFFFFFFFFFFFFFFFFFFFFFFFFFFFFFFFFFFF AND DUP2 MSTORE PUSH1 0x20 ADD SWAP1 DUP2 MSTORE PUSH1 0x20 ADD PUSH1 0x0 KECCAK256 DUP2 SWAP1 SSTORE POP PUSH1 0x1 DUP2 PUSH1 0x2 ADD PUSH1 0x0 PUSH2 0x100 EXP DUP2 SLOAD DUP2 PUSH1 0xFF MUL NOT AND SWAP1 DUP4 ISZERO ISZERO MUL OR SWAP1 SSTORE POP CALLVALUE PUSH1 0x1 PUSH1 0x0 DUP3 DUP3 SLOAD PUSH2 0x283 SWAP2 SWAP1 PUSH2 0x10A5 JUMP JUMPDEST SWAP3 POP POP DUP2 SWAP1 SSTORE POP CALLER PUSH20 0xFFFFFFFFFFFFFFFFFFFFFFFFFFFFFFFFFFFFFFFF AND DUP3 DUP5 PUSH20 0xFFFFFFFFFFFFFFFFFFFFFFFFFFFFFFFFFFFFFFFF AND PUSH32 0xA297A5039E151F85FD39B734D57194F31BF1BA744464810F8FA18941216C79B0 CALLVALUE PUSH1 0x1 PUSH1 0x40 MLOAD PUSH2 0x2EB SWAP3 SWAP2 SWAP1 PUSH2 0x106B JUMP JUMPDEST PUSH1 0x40 MLOAD DUP1 SWAP2 SUB SWAP1 LOG4 POP POP POP JUMP JUMPDEST PUSH1 0x1 SLOAD DUP2 JUMP JUMPDEST PUSH1 0x0 PUSH1 0x20 MSTORE DUP2 PUSH1 0x0 MSTORE PUSH1 0x40 PUSH1 0x0 KECCAK256 PUSH1 0x20 MSTORE DUP1 PUSH1 0x0 MSTORE PUSH1 0x40 PUSH1 0x0 KECCAK256 PUSH1 0x0 SWAP2 POP SWAP2 POP POP DUP1 PUSH1 0x2 ADD PUSH1 0x0 SWAP1 SLOAD SWAP1 PUSH2 0x100 EXP SWAP1 DIV PUSH1 0xFF AND SWAP1 POP DUP2 JUMP JUMPDEST PUSH1 0x0 DUP1 PUSH1 0x0 DUP6 PUSH20 0xFFFFFFFFFFFFFFFFFFFFFFFFFFFFFFFFFFFFFFFF AND PUSH20 0xFFFFFFFFFFFFFFFFFFFFFFFFFFFFFFFFFFFFFFFF AND DUP2 MSTORE PUSH1 0x20 ADD SWAP1 DUP2 MSTORE PUSH1 0x20 ADD PUSH1 0x0 KECCAK256 PUSH1 0x0 DUP5 DUP2 MSTORE PUSH1 0x20 ADD SWAP1 DUP2 MSTORE PUSH1 0x20 ADD PUSH1 0x0 KECCAK256 SWAP1 POP PUSH1 0x0 DUP5 SWAP1 POP CALLER PUSH20 0xFFFFFFFFFFFFFFFFFFFFFFFFFFFFFFFFFFFFFFFF AND DUP2 PUSH20 0xFFFFFFFFFFFFFFFFFFFFFFFFFFFFFFFFFFFFFFFF AND PUSH4 0x6352211E DUP7 PUSH1 0x40 MLOAD DUP3 PUSH4 0xFFFFFFFF AND PUSH1 0xE0 SHL DUP2 MSTORE PUSH1 0x4 ADD PUSH2 0x3DE SWAP2 SWAP1 PUSH2 0x1050 JUMP JUMPDEST PUSH1 0x20 PUSH1 0x40 MLOAD DUP1 DUP4 SUB DUP2 DUP7 DUP1 EXTCODESIZE ISZERO DUP1 ISZERO PUSH2 0x3F6 JUMPI PUSH1 0x0 DUP1 REVERT JUMPDEST POP GAS STATICCALL ISZERO DUP1 ISZERO PUSH2 0x40A JUMPI RETURNDATASIZE PUSH1 0x0 DUP1 RETURNDATACOPY RETURNDATASIZE PUSH1 0x0 REVERT JUMPDEST POP POP POP POP PUSH1 0x40 MLOAD RETURNDATASIZE PUSH1 0x1F NOT PUSH1 0x1F DUP3 ADD AND DUP3 ADD DUP1 PUSH1 0x40 MSTORE POP DUP2 ADD SWAP1 PUSH2 0x42E SWAP2 SWAP1 PUSH2 0xE48 JUMP JUMPDEST PUSH20 0xFFFFFFFFFFFFFFFFFFFFFFFFFFFFFFFFFFFFFFFF AND EQ PUSH2 0x484 JUMPI PUSH1 0x40 MLOAD PUSH32 0x8C379A000000000000000000000000000000000000000000000000000000000 DUP2 MSTORE PUSH1 0x4 ADD PUSH2 0x47B SWAP1 PUSH2 0x1010 JUMP JUMPDEST PUSH1 0x40 MLOAD DUP1 SWAP2 SUB SWAP1 REVERT JUMPDEST PUSH1 0x1 ISZERO ISZERO DUP3 PUSH1 0x2 ADD PUSH1 0x0 SWAP1 SLOAD SWAP1 PUSH2 0x100 EXP SWAP1 DIV PUSH1 0xFF AND ISZERO ISZERO EQ PUSH2 0x4DC JUMPI PUSH1 0x40 MLOAD PUSH32 0x8C379A000000000000000000000000000000000000000000000000000000000 DUP2 MSTORE PUSH1 0x4 ADD PUSH2 0x4D3 SWAP1 PUSH2 0x1030 JUMP JUMPDEST PUSH1 0x40 MLOAD DUP1 SWAP2 SUB SWAP1 REVERT JUMPDEST CALLER PUSH20 0xFFFFFFFFFFFFFFFFFFFFFFFFFFFFFFFFFFFFFFFF AND PUSH2 0x8FC DUP4 PUSH1 0x1 ADD PUSH1 0x0 DUP7 PUSH20 0xFFFFFFFFFFFFFFFFFFFFFFFFFFFFFFFFFFFFFFFF AND PUSH20 0xFFFFFFFFFFFFFFFFFFFFFFFFFFFFFFFFFFFFFFFF AND DUP2 MSTORE PUSH1 0x20 ADD SWAP1 DUP2 MSTORE PUSH1 0x20 ADD PUSH1 0x0 KECCAK256 SLOAD SWAP1 DUP2 ISZERO MUL SWAP1 PUSH1 0x40 MLOAD PUSH1 0x0 PUSH1 0x40 MLOAD DUP1 DUP4 SUB DUP2 DUP6 DUP9 DUP9 CALL SWAP4 POP POP POP POP ISZERO DUP1 ISZERO PUSH2 0x563 JUMPI RETURNDATASIZE PUSH1 0x0 DUP1 RETURNDATACOPY RETURNDATASIZE PUSH1 0x0 REVERT JUMPDEST POP DUP2 PUSH1 0x1 ADD PUSH1 0x0 DUP5 PUSH20 0xFFFFFFFFFFFFFFFFFFFFFFFFFFFFFFFFFFFFFFFF AND PUSH20 0xFFFFFFFFFFFFFFFFFFFFFFFFFFFFFFFFFFFFFFFF AND DUP2 MSTORE PUSH1 0x20 ADD SWAP1 DUP2 MSTORE PUSH1 0x20 ADD PUSH1 0x0 KECCAK256 SLOAD PUSH1 0x1 PUSH1 0x0 DUP3 DUP3 SLOAD PUSH2 0x5B7 SWAP2 SWAP1 PUSH2 0x10FB JUMP JUMPDEST SWAP3 POP POP DUP2 SWAP1 SSTORE POP PUSH1 0x0 DUP3 PUSH1 0x2 ADD PUSH1 0x0 PUSH2 0x100 EXP DUP2 SLOAD DUP2 PUSH1 0xFF MUL NOT AND SWAP1 DUP4 ISZERO ISZERO MUL OR SWAP1 SSTORE POP PUSH1 0x0 PUSH1 0x1 DUP4 PUSH1 0x0 ADD DUP1 SLOAD SWAP1 POP PUSH2 0x5F1 SWAP2 SWAP1 PUSH2 0x10FB JUMP JUMPDEST SWAP1 POP JUMPDEST PUSH1 0x0 DUP2 LT PUSH2 0x881 JUMPI DUP3 PUSH1 0x0 ADD DUP2 DUP2 SLOAD DUP2 LT PUSH2 0x612 JUMPI PUSH2 0x611 PUSH2 0x1248 JUMP JUMPDEST JUMPDEST SWAP1 PUSH1 0x0 MSTORE PUSH1 0x20 PUSH1 0x0 KECCAK256 ADD PUSH1 0x0 SWAP1 SLOAD SWAP1 PUSH2 0x100 EXP SWAP1 DIV PUSH20 0xFFFFFFFFFFFFFFFFFFFFFFFFFFFFFFFFFFFFFFFF AND PUSH20 0xFFFFFFFFFFFFFFFFFFFFFFFFFFFFFFFFFFFFFFFF AND PUSH2 0x8FC DUP5 PUSH1 0x1 ADD PUSH1 0x0 DUP7 PUSH1 0x0 ADD DUP6 DUP2 SLOAD DUP2 LT PUSH2 0x672 JUMPI PUSH2 0x671 PUSH2 0x1248 JUMP JUMPDEST JUMPDEST SWAP1 PUSH1 0x0 MSTORE PUSH1 0x20 PUSH1 0x0 KECCAK256 ADD PUSH1 0x0 SWAP1 SLOAD SWAP1 PUSH2 0x100 EXP SWAP1 DIV PUSH20 0xFFFFFFFFFFFFFFFFFFFFFFFFFFFFFFFFFFFFFFFF AND PUSH20 0xFFFFFFFFFFFFFFFFFFFFFFFFFFFFFFFFFFFFFFFF AND PUSH20 0xFFFFFFFFFFFFFFFFFFFFFFFFFFFFFFFFFFFFFFFF AND DUP2 MSTORE PUSH1 0x20 ADD SWAP1 DUP2 MSTORE PUSH1 0x20 ADD PUSH1 0x0 KECCAK256 SLOAD SWAP1 DUP2 ISZERO MUL SWAP1 PUSH1 0x40 MLOAD PUSH1 0x0 PUSH1 0x40 MLOAD DUP1 DUP4 SUB DUP2 DUP6 DUP9 DUP9 CALL SWAP4 POP POP POP POP ISZERO DUP1 ISZERO PUSH2 0x703 JUMPI RETURNDATASIZE PUSH1 0x0 DUP1 RETURNDATACOPY RETURNDATASIZE PUSH1 0x0 REVERT JUMPDEST POP DUP3 PUSH1 0x1 ADD PUSH1 0x0 DUP5 PUSH1 0x0 ADD DUP4 DUP2 SLOAD DUP2 LT PUSH2 0x720 JUMPI PUSH2 0x71F PUSH2 0x1248 JUMP JUMPDEST JUMPDEST SWAP1 PUSH1 0x0 MSTORE PUSH1 0x20 PUSH1 0x0 KECCAK256 ADD PUSH1 0x0 SWAP1 SLOAD SWAP1 PUSH2 0x100 EXP SWAP1 DIV PUSH20 0xFFFFFFFFFFFFFFFFFFFFFFFFFFFFFFFFFFFFFFFF AND PUSH20 0xFFFFFFFFFFFFFFFFFFFFFFFFFFFFFFFFFFFFFFFF AND PUSH20 0xFFFFFFFFFFFFFFFFFFFFFFFFFFFFFFFFFFFFFFFF AND DUP2 MSTORE PUSH1 0x20 ADD SWAP1 DUP2 MSTORE PUSH1 0x20 ADD PUSH1 0x0 KECCAK256 SLOAD PUSH1 0x1 PUSH1 0x0 DUP3 DUP3 SLOAD PUSH2 0x797 SWAP2 SWAP1 PUSH2 0x10FB JUMP JUMPDEST SWAP3 POP POP DUP2 SWAP1 SSTORE POP PUSH1 0x0 DUP4 PUSH1 0x1 ADD PUSH1 0x0 DUP6 PUSH1 0x0 ADD DUP5 DUP2 SLOAD DUP2 LT PUSH2 0x7BC JUMPI PUSH2 0x7BB PUSH2 0x1248 JUMP JUMPDEST JUMPDEST SWAP1 PUSH1 0x0 MSTORE PUSH1 0x20 PUSH1 0x0 KECCAK256 ADD PUSH1 0x0 SWAP1 SLOAD SWAP1 PUSH2 0x100 EXP SWAP1 DIV PUSH20 0xFFFFFFFFFFFFFFFFFFFFFFFFFFFFFFFFFFFFFFFF AND PUSH20 0xFFFFFFFFFFFFFFFFFFFFFFFFFFFFFFFFFFFFFFFF AND PUSH20 0xFFFFFFFFFFFFFFFFFFFFFFFFFFFFFFFFFFFFFFFF AND DUP2 MSTORE PUSH1 0x20 ADD SWAP1 DUP2 MSTORE PUSH1 0x20 ADD PUSH1 0x0 KECCAK256 DUP2 SWAP1 SSTORE POP DUP3 PUSH1 0x0 ADD DUP1 SLOAD DUP1 PUSH2 0x839 JUMPI PUSH2 0x838 PUSH2 0x1219 JUMP JUMPDEST JUMPDEST PUSH1 0x1 SWAP1 SUB DUP2 DUP2 SWAP1 PUSH1 0x0 MSTORE PUSH1 0x20 PUSH1 0x0 KECCAK256 ADD PUSH1 0x0 PUSH2 0x100 EXP DUP2 SLOAD SWAP1 PUSH20 0xFFFFFFFFFFFFFFFFFFFFFFFFFFFFFFFFFFFFFFFF MUL NOT AND SWAP1 SSTORE SWAP1 SSTORE DUP1 DUP1 PUSH2 0x879 SWAP1 PUSH2 0x1177 JUMP JUMPDEST SWAP2 POP POP PUSH2 0x5F4 JUMP JUMPDEST POP DUP1 PUSH20 0xFFFFFFFFFFFFFFFFFFFFFFFFFFFFFFFFFFFFFFFF AND PUSH4 0x23B872DD CALLER DUP6 DUP8 PUSH1 0x40 MLOAD DUP5 PUSH4 0xFFFFFFFF AND PUSH1 0xE0 SHL DUP2 MSTORE PUSH1 0x4 ADD PUSH2 0x8BF SWAP4 SWAP3 SWAP2 SWAP1 PUSH2 0xF9E JUMP JUMPDEST PUSH1 0x0 PUSH1 0x40 MLOAD DUP1 DUP4 SUB DUP2 PUSH1 0x0 DUP8 DUP1 EXTCODESIZE ISZERO DUP1 ISZERO PUSH2 0x8D9 JUMPI PUSH1 0x0 DUP1 REVERT JUMPDEST POP GAS CALL ISZERO DUP1 ISZERO PUSH2 0x8ED JUMPI RETURNDATASIZE PUSH1 0x0 DUP1 RETURNDATACOPY RETURNDATASIZE PUSH1 0x0 REVERT JUMPDEST POP POP POP POP DUP4 DUP6 PUSH20 0xFFFFFFFFFFFFFFFFFFFFFFFFFFFFFFFFFFFFFFFF AND PUSH32 0x9663DB6E9B1F015A82BEB1B03EC8FED9D1A25B5DA31B2CC92C2BE9E8C629A80D PUSH1 0x0 PUSH1 0x40 MLOAD PUSH2 0x939 SWAP2 SWAP1 PUSH2 0xFD5 JUMP JUMPDEST PUSH1 0x40 MLOAD DUP1 SWAP2 SUB SWAP1 LOG3 POP POP POP POP POP JUMP JUMPDEST PUSH1 0x0 DUP1 PUSH1 0x0 DUP5 PUSH20 0xFFFFFFFFFFFFFFFFFFFFFFFFFFFFFFFFFFFFFFFF AND PUSH20 0xFFFFFFFFFFFFFFFFFFFFFFFFFFFFFFFFFFFFFFFF AND DUP2 MSTORE PUSH1 0x20 ADD SWAP1 DUP2 MSTORE PUSH1 0x20 ADD PUSH1 0x0 KECCAK256 PUSH1 0x0 DUP4 DUP2 MSTORE PUSH1 0x20 ADD SWAP1 DUP2 MSTORE PUSH1 0x20 ADD PUSH1 0x0 KECCAK256 SWAP1 POP PUSH1 0x1 ISZERO ISZERO DUP2 PUSH1 0x2 ADD PUSH1 0x0 SWAP1 SLOAD SWAP1 PUSH2 0x100 EXP SWAP1 DIV PUSH1 0xFF AND ISZERO ISZERO EQ PUSH2 0x9F3 JUMPI PUSH1 0x40 MLOAD PUSH32 0x8C379A000000000000000000000000000000000000000000000000000000000 DUP2 MSTORE PUSH1 0x4 ADD PUSH2 0x9EA SWAP1 PUSH2 0x1030 JUMP JUMPDEST PUSH1 0x40 MLOAD DUP1 SWAP2 SUB SWAP1 REVERT JUMPDEST PUSH1 0x0 DUP2 PUSH1 0x1 ADD PUSH1 0x0 CALLER PUSH20 0xFFFFFFFFFFFFFFFFFFFFFFFFFFFFFFFFFFFFFFFF AND PUSH20 0xFFFFFFFFFFFFFFFFFFFFFFFFFFFFFFFFFFFFFFFF AND DUP2 MSTORE PUSH1 0x20 ADD SWAP1 DUP2 MSTORE PUSH1 0x20 ADD PUSH1 0x0 KECCAK256 SLOAD GT PUSH2 0xA77 JUMPI PUSH1 0x40 MLOAD PUSH32 0x8C379A000000000000000000000000000000000000000000000000000000000 DUP2 MSTORE PUSH1 0x4 ADD PUSH2 0xA6E SWAP1 PUSH2 0xFF0 JUMP JUMPDEST PUSH1 0x40 MLOAD DUP1 SWAP2 SUB SWAP1 REVERT JUMPDEST PUSH1 0x0 PUSH1 0x1 DUP3 PUSH1 0x0 ADD DUP1 SLOAD SWAP1 POP PUSH2 0xA8D SWAP2 SWAP1 PUSH2 0x10FB JUMP JUMPDEST SWAP1 POP DUP2 PUSH1 0x0 ADD DUP2 DUP2 SLOAD DUP2 LT PUSH2 0xAA5 JUMPI PUSH2 0xAA4 PUSH2 0x1248 JUMP JUMPDEST JUMPDEST SWAP1 PUSH1 0x0 MSTORE PUSH1 0x20 PUSH1 0x0 KECCAK256 ADD PUSH1 0x0 SWAP1 SLOAD SWAP1 PUSH2 0x100 EXP SWAP1 DIV PUSH20 0xFFFFFFFFFFFFFFFFFFFFFFFFFFFFFFFFFFFFFFFF AND PUSH20 0xFFFFFFFFFFFFFFFFFFFFFFFFFFFFFFFFFFFFFFFF AND CALLER PUSH20 0xFFFFFFFFFFFFFFFFFFFFFFFFFFFFFFFFFFFFFFFF AND EQ ISZERO PUSH2 0xB51 JUMPI DUP2 PUSH1 0x0 ADD DUP1 SLOAD DUP1 PUSH2 0xB17 JUMPI PUSH2 0xB16 PUSH2 0x1219 JUMP JUMPDEST JUMPDEST PUSH1 0x1 SWAP1 SUB DUP2 DUP2 SWAP1 PUSH1 0x0 MSTORE PUSH1 0x20 PUSH1 0x0 KECCAK256 ADD PUSH1 0x0 PUSH2 0x100 EXP DUP2 SLOAD SWAP1 PUSH20 0xFFFFFFFFFFFFFFFFFFFFFFFFFFFFFFFFFFFFFFFF MUL NOT AND SWAP1 SSTORE SWAP1 SSTORE PUSH2 0xCD9 JUMP JUMPDEST PUSH1 0x0 JUMPDEST DUP3 PUSH1 0x0 ADD DUP1 SLOAD SWAP1 POP DUP2 LT ISZERO PUSH2 0xCD7 JUMPI CALLER PUSH20 0xFFFFFFFFFFFFFFFFFFFFFFFFFFFFFFFFFFFFFFFF AND DUP4 PUSH1 0x0 ADD DUP3 DUP2 SLOAD DUP2 LT PUSH2 0xB90 JUMPI PUSH2 0xB8F PUSH2 0x1248 JUMP JUMPDEST JUMPDEST SWAP1 PUSH1 0x0 MSTORE PUSH1 0x20 PUSH1 0x0 KECCAK256 ADD PUSH1 0x0 SWAP1 SLOAD SWAP1 PUSH2 0x100 EXP SWAP1 DIV PUSH20 0xFFFFFFFFFFFFFFFFFFFFFFFFFFFFFFFFFFFFFFFF AND PUSH20 0xFFFFFFFFFFFFFFFFFFFFFFFFFFFFFFFFFFFFFFFF AND EQ ISZERO PUSH2 0xCC4 JUMPI DUP3 PUSH1 0x0 ADD DUP3 DUP2 SLOAD DUP2 LT PUSH2 0xBED JUMPI PUSH2 0xBEC PUSH2 0x1248 JUMP JUMPDEST JUMPDEST SWAP1 PUSH1 0x0 MSTORE PUSH1 0x20 PUSH1 0x0 KECCAK256 ADD PUSH1 0x0 SWAP1 SLOAD SWAP1 PUSH2 0x100 EXP SWAP1 DIV PUSH20 0xFFFFFFFFFFFFFFFFFFFFFFFFFFFFFFFFFFFFFFFF AND DUP4 PUSH1 0x0 ADD DUP3 DUP2 SLOAD DUP2 LT PUSH2 0xC2E JUMPI PUSH2 0xC2D PUSH2 0x1248 JUMP JUMPDEST JUMPDEST SWAP1 PUSH1 0x0 MSTORE PUSH1 0x20 PUSH1 0x0 KECCAK256 ADD PUSH1 0x0 PUSH2 0x100 EXP DUP2 SLOAD DUP2 PUSH20 0xFFFFFFFFFFFFFFFFFFFFFFFFFFFFFFFFFFFFFFFF MUL NOT AND SWAP1 DUP4 PUSH20 0xFFFFFFFFFFFFFFFFFFFFFFFFFFFFFFFFFFFFFFFF AND MUL OR SWAP1 SSTORE POP DUP3 PUSH1 0x0 ADD DUP1 SLOAD DUP1 PUSH2 0xC8A JUMPI PUSH2 0xC89 PUSH2 0x1219 JUMP JUMPDEST JUMPDEST PUSH1 0x1 SWAP1 SUB DUP2 DUP2 SWAP1 PUSH1 0x0 MSTORE PUSH1 0x20 PUSH1 0x0 KECCAK256 ADD PUSH1 0x0 PUSH2 0x100 EXP DUP2 SLOAD SWAP1 PUSH20 0xFFFFFFFFFFFFFFFFFFFFFFFFFFFFFFFFFFFFFFFF MUL NOT AND SWAP1 SSTORE SWAP1 SSTORE PUSH2 0xCD7 JUMP JUMPDEST DUP1 DUP1 PUSH2 0xCCF SWAP1 PUSH2 0x11A1 JUMP JUMPDEST SWAP2 POP POP PUSH2 0xB54 JUMP JUMPDEST POP JUMPDEST CALLER PUSH20 0xFFFFFFFFFFFFFFFFFFFFFFFFFFFFFFFFFFFFFFFF AND PUSH2 0x8FC DUP4 PUSH1 0x1 ADD PUSH1 0x0 CALLER PUSH20 0xFFFFFFFFFFFFFFFFFFFFFFFFFFFFFFFFFFFFFFFF AND PUSH20 0xFFFFFFFFFFFFFFFFFFFFFFFFFFFFFFFFFFFFFFFF AND DUP2 MSTORE PUSH1 0x20 ADD SWAP1 DUP2 MSTORE PUSH1 0x20 ADD PUSH1 0x0 KECCAK256 SLOAD SWAP1 DUP2 ISZERO MUL SWAP1 PUSH1 0x40 MLOAD PUSH1 0x0 PUSH1 0x40 MLOAD DUP1 DUP4 SUB DUP2 DUP6 DUP9 DUP9 CALL SWAP4 POP POP POP POP ISZERO DUP1 ISZERO PUSH2 0xD60 JUMPI RETURNDATASIZE PUSH1 0x0 DUP1 RETURNDATACOPY RETURNDATASIZE PUSH1 0x0 REVERT JUMPDEST POP PUSH1 0x0 DUP3 PUSH1 0x1 ADD PUSH1 0x0 CALLER PUSH20 0xFFFFFFFFFFFFFFFFFFFFFFFFFFFFFFFFFFFFFFFF AND PUSH20 0xFFFFFFFFFFFFFFFFFFFFFFFFFFFFFFFFFFFFFFFF AND DUP2 MSTORE PUSH1 0x20 ADD SWAP1 DUP2 MSTORE PUSH1 0x20 ADD PUSH1 0x0 KECCAK256 DUP2 SWAP1 SSTORE POP CALLER PUSH20 0xFFFFFFFFFFFFFFFFFFFFFFFFFFFFFFFFFFFFFFFF AND DUP4 DUP6 PUSH20 0xFFFFFFFFFFFFFFFFFFFFFFFFFFFFFFFFFFFFFFFF AND PUSH32 0x5EEE4DE26CD3C0F49F086164989C02CD12D97A964804BC188EE593E26FB98186 PUSH1 0x40 MLOAD PUSH1 0x40 MLOAD DUP1 SWAP2 SUB SWAP1 LOG4 POP POP POP POP JUMP JUMPDEST PUSH1 0x0 DUP2 CALLDATALOAD SWAP1 POP PUSH2 0xE18 DUP2 PUSH2 0x12F7 JUMP JUMPDEST SWAP3 SWAP2 POP POP JUMP JUMPDEST PUSH1 0x0 DUP2 MLOAD SWAP1 POP PUSH2 0xE2D DUP2 PUSH2 0x12F7 JUMP JUMPDEST SWAP3 SWAP2 POP POP JUMP JUMPDEST PUSH1 0x0 DUP2 CALLDATALOAD SWAP1 POP PUSH2 0xE42 DUP2 PUSH2 0x130E JUMP JUMPDEST SWAP3 SWAP2 POP POP JUMP JUMPDEST PUSH1 0x0 PUSH1 0x20 DUP3 DUP5 SUB SLT ISZERO PUSH2 0xE5E JUMPI PUSH2 0xE5D PUSH2 0x1277 JUMP JUMPDEST JUMPDEST PUSH1 0x0 PUSH2 0xE6C DUP5 DUP3 DUP6 ADD PUSH2 0xE1E JUMP JUMPDEST SWAP2 POP POP SWAP3 SWAP2 POP POP JUMP JUMPDEST PUSH1 0x0 DUP1 PUSH1 0x40 DUP4 DUP6 SUB SLT ISZERO PUSH2 0xE8C JUMPI PUSH2 0xE8B PUSH2 0x1277 JUMP JUMPDEST JUMPDEST PUSH1 0x0 PUSH2 0xE9A DUP6 DUP3 DUP7 ADD PUSH2 0xE09 JUMP JUMPDEST SWAP3 POP POP PUSH1 0x20 PUSH2 0xEAB DUP6 DUP3 DUP7 ADD PUSH2 0xE33 JUMP JUMPDEST SWAP2 POP POP SWAP3 POP SWAP3 SWAP1 POP JUMP JUMPDEST PUSH1 0x0 DUP1 PUSH1 0x0 PUSH1 0x60 DUP5 DUP7 SUB SLT ISZERO PUSH2 0xECE JUMPI PUSH2 0xECD PUSH2 0x1277 JUMP JUMPDEST JUMPDEST PUSH1 0x0 PUSH2 0xEDC DUP7 DUP3 DUP8 ADD PUSH2 0xE09 JUMP JUMPDEST SWAP4 POP POP PUSH1 0x20 PUSH2 0xEED DUP7 DUP3 DUP8 ADD PUSH2 0xE33 JUMP JUMPDEST SWAP3 POP POP PUSH1 0x40 PUSH2 0xEFE DUP7 DUP3 DUP8 ADD PUSH2 0xE09 JUMP JUMPDEST SWAP2 POP POP SWAP3 POP SWAP3 POP SWAP3 JUMP JUMPDEST PUSH2 0xF11 DUP2 PUSH2 0x112F JUMP JUMPDEST DUP3 MSTORE POP POP JUMP JUMPDEST PUSH2 0xF20 DUP2 PUSH2 0x1141 JUMP JUMPDEST DUP3 MSTORE POP POP JUMP JUMPDEST PUSH1 0x0 PUSH2 0xF33 PUSH1 0xB DUP4 PUSH2 0x1094 JUMP JUMPDEST SWAP2 POP PUSH2 0xF3E DUP3 PUSH2 0x127C JUMP JUMPDEST PUSH1 0x20 DUP3 ADD SWAP1 POP SWAP2 SWAP1 POP JUMP JUMPDEST PUSH1 0x0 PUSH2 0xF56 PUSH1 0xD DUP4 PUSH2 0x1094 JUMP JUMPDEST SWAP2 POP PUSH2 0xF61 DUP3 PUSH2 0x12A5 JUMP JUMPDEST PUSH1 0x20 DUP3 ADD SWAP1 POP SWAP2 SWAP1 POP JUMP JUMPDEST PUSH1 0x0 PUSH2 0xF79 PUSH1 0x9 DUP4 PUSH2 0x1094 JUMP JUMPDEST SWAP2 POP PUSH2 0xF84 DUP3 PUSH2 0x12CE JUMP JUMPDEST PUSH1 0x20 DUP3 ADD SWAP1 POP SWAP2 SWAP1 POP JUMP JUMPDEST PUSH2 0xF98 DUP2 PUSH2 0x116D JUMP JUMPDEST DUP3 MSTORE POP POP JUMP JUMPDEST PUSH1 0x0 PUSH1 0x60 DUP3 ADD SWAP1 POP PUSH2 0xFB3 PUSH1 0x0 DUP4 ADD DUP7 PUSH2 0xF08 JUMP JUMPDEST PUSH2 0xFC0 PUSH1 0x20 DUP4 ADD DUP6 PUSH2 0xF08 JUMP JUMPDEST PUSH2 0xFCD PUSH1 0x40 DUP4 ADD DUP5 PUSH2 0xF8F JUMP JUMPDEST SWAP5 SWAP4 POP POP POP POP JUMP JUMPDEST PUSH1 0x0 PUSH1 0x20 DUP3 ADD SWAP1 POP PUSH2 0xFEA PUSH1 0x0 DUP4 ADD DUP5 PUSH2 0xF17 JUMP JUMPDEST SWAP3 SWAP2 POP POP JUMP JUMPDEST PUSH1 0x0 PUSH1 0x20 DUP3 ADD SWAP1 POP DUP2 DUP2 SUB PUSH1 0x0 DUP4 ADD MSTORE PUSH2 0x1009 DUP2 PUSH2 0xF26 JUMP JUMPDEST SWAP1 POP SWAP2 SWAP1 POP JUMP JUMPDEST PUSH1 0x0 PUSH1 0x20 DUP3 ADD SWAP1 POP DUP2 DUP2 SUB PUSH1 0x0 DUP4 ADD MSTORE PUSH2 0x1029 DUP2 PUSH2 0xF49 JUMP JUMPDEST SWAP1 POP SWAP2 SWAP1 POP JUMP JUMPDEST PUSH1 0x0 PUSH1 0x20 DUP3 ADD SWAP1 POP DUP2 DUP2 SUB PUSH1 0x0 DUP4 ADD MSTORE PUSH2 0x1049 DUP2 PUSH2 0xF6C JUMP JUMPDEST SWAP1 POP SWAP2 SWAP1 POP JUMP JUMPDEST PUSH1 0x0 PUSH1 0x20 DUP3 ADD SWAP1 POP PUSH2 0x1065 PUSH1 0x0 DUP4 ADD DUP5 PUSH2 0xF8F JUMP JUMPDEST SWAP3 SWAP2 POP POP JUMP JUMPDEST PUSH1 0x0 PUSH1 0x40 DUP3 ADD SWAP1 POP PUSH2 0x1080 PUSH1 0x0 DUP4 ADD DUP6 PUSH2 0xF8F JUMP JUMPDEST PUSH2 0x108D PUSH1 0x20 DUP4 ADD DUP5 PUSH2 0xF17 JUMP JUMPDEST SWAP4 SWAP3 POP POP POP JUMP JUMPDEST PUSH1 0x0 DUP3 DUP3 MSTORE PUSH1 0x20 DUP3 ADD SWAP1 POP SWAP3 SWAP2 POP POP JUMP JUMPDEST PUSH1 0x0 PUSH2 0x10B0 DUP3 PUSH2 0x116D JUMP JUMPDEST SWAP2 POP PUSH2 0x10BB DUP4 PUSH2 0x116D JUMP JUMPDEST SWAP3 POP DUP3 PUSH32 0xFFFFFFFFFFFFFFFFFFFFFFFFFFFFFFFFFFFFFFFFFFFFFFFFFFFFFFFFFFFFFFFF SUB DUP3 GT ISZERO PUSH2 0x10F0 JUMPI PUSH2 0x10EF PUSH2 0x11EA JUMP JUMPDEST JUMPDEST DUP3 DUP3 ADD SWAP1 POP SWAP3 SWAP2 POP POP JUMP JUMPDEST PUSH1 0x0 PUSH2 0x1106 DUP3 PUSH2 0x116D JUMP JUMPDEST SWAP2 POP PUSH2 0x1111 DUP4 PUSH2 0x116D JUMP JUMPDEST SWAP3 POP DUP3 DUP3 LT ISZERO PUSH2 0x1124 JUMPI PUSH2 0x1123 PUSH2 0x11EA JUMP JUMPDEST JUMPDEST DUP3 DUP3 SUB SWAP1 POP SWAP3 SWAP2 POP POP JUMP JUMPDEST PUSH1 0x0 PUSH2 0x113A DUP3 PUSH2 0x114D JUMP JUMPDEST SWAP1 POP SWAP2 SWAP1 POP JUMP JUMPDEST PUSH1 0x0 DUP2 ISZERO ISZERO SWAP1 POP SWAP2 SWAP1 POP JUMP JUMPDEST PUSH1 0x0 PUSH20 0xFFFFFFFFFFFFFFFFFFFFFFFFFFFFFFFFFFFFFFFF DUP3 AND SWAP1 POP SWAP2 SWAP1 POP JUMP JUMPDEST PUSH1 0x0 DUP2 SWAP1 POP SWAP2 SWAP1 POP JUMP JUMPDEST PUSH1 0x0 PUSH2 0x1182 DUP3 PUSH2 0x116D JUMP JUMPDEST SWAP2 POP PUSH1 0x0 DUP3 EQ ISZERO PUSH2 0x1196 JUMPI PUSH2 0x1195 PUSH2 0x11EA JUMP JUMPDEST JUMPDEST PUSH1 0x1 DUP3 SUB SWAP1 POP SWAP2 SWAP1 POP JUMP JUMPDEST PUSH1 0x0 PUSH2 0x11AC DUP3 PUSH2 0x116D JUMP JUMPDEST SWAP2 POP PUSH32 0xFFFFFFFFFFFFFFFFFFFFFFFFFFFFFFFFFFFFFFFFFFFFFFFFFFFFFFFFFFFFFFFF DUP3 EQ ISZERO PUSH2 0x11DF JUMPI PUSH2 0x11DE PUSH2 0x11EA JUMP JUMPDEST JUMPDEST PUSH1 0x1 DUP3 ADD SWAP1 POP SWAP2 SWAP1 POP JUMP JUMPDEST PUSH32 0x4E487B7100000000000000000000000000000000000000000000000000000000 PUSH1 0x0 MSTORE PUSH1 0x11 PUSH1 0x4 MSTORE PUSH1 0x24 PUSH1 0x0 REVERT JUMPDEST PUSH32 0x4E487B7100000000000000000000000000000000000000000000000000000000 PUSH1 0x0 MSTORE PUSH1 0x31 PUSH1 0x4 MSTORE PUSH1 0x24 PUSH1 0x0 REVERT JUMPDEST PUSH32 0x4E487B7100000000000000000000000000000000000000000000000000000000 PUSH1 0x0 MSTORE PUSH1 0x32 PUSH1 0x4 MSTORE PUSH1 0x24 PUSH1 0x0 REVERT JUMPDEST PUSH1 0x0 DUP1 REVERT JUMPDEST PUSH32 0x4F6666657220697320302E000000000000000000000000000000000000000000 PUSH1 0x0 DUP3 ADD MSTORE POP JUMP JUMPDEST PUSH32 0x556E617574686F72697A65642E00000000000000000000000000000000000000 PUSH1 0x0 DUP3 ADD MSTORE POP JUMP JUMPDEST PUSH32 0x4E6F206F666665722E0000000000000000000000000000000000000000000000 PUSH1 0x0 DUP3 ADD MSTORE POP JUMP JUMPDEST PUSH2 0x1300 DUP2 PUSH2 0x112F JUMP JUMPDEST DUP2 EQ PUSH2 0x130B JUMPI PUSH1 0x0 DUP1 REVERT JUMPDEST POP JUMP JUMPDEST PUSH2 0x1317 DUP2 PUSH2 0x116D JUMP JUMPDEST DUP2 EQ PUSH2 0x1322 JUMPI PUSH1 0x0 DUP1 REVERT JUMPDEST POP JUMP INVALID LOG2 PUSH5 0x6970667358 0x22 SLT KECCAK256 0xFC 0xB2 JUMP BASEFEE SAR 0xBC STOP 0x2C CREATE2 0xDC 0xCD 0x1E INVALID 0xB9 PUSH16 0x953E7FC3C5329ACFE0545ECF697DB06A 0xCF PUSH5 0x736F6C6343 STOP ADDMOD SMOD STOP CALLER "
				},
				"gasEstimates": {
					"creation": {
						"codeDepositCost": "991000",
						"executionCost": "1027",
						"totalCost": "992027"
					},
					"external": {
						"balances()": "2429",
						"offer(address,uint256)": "infinite",
						"offers(address,uint256)": "3128",
						"submit(address,uint256,address)": "infinite",
						"withdraw(address,uint256)": "infinite"
					}
				},
				"methodIdentifiers": {
					"balances()": "7bb98a68",
					"offer(address,uint256)": "6b212960",
					"offers(address,uint256)": "aa1a8411",
					"submit(address,uint256,address)": "abd51552",
					"withdraw(address,uint256)": "f3fef3a3"
				}
			},
			"storageLayout": {
				"storage": [
					{
						"astId": 53,
						"contract": "Offer.sol:Offer",
						"label": "offers",
						"offset": 0,
						"slot": "0",
						"type": "t_mapping(t_address,t_mapping(t_uint256,t_struct(Offers)63_storage))"
					},
					{
						"astId": 65,
						"contract": "Offer.sol:Offer",
						"label": "balances",
						"offset": 0,
						"slot": "1",
						"type": "t_uint256"
					}
				],
				"types": {
					"t_address": {
						"encoding": "inplace",
						"label": "address",
						"numberOfBytes": "20"
					},
					"t_array(t_address)dyn_storage": {
						"base": "t_address",
						"encoding": "dynamic_array",
						"label": "address[]",
						"numberOfBytes": "32"
					},
					"t_bool": {
						"encoding": "inplace",
						"label": "bool",
						"numberOfBytes": "1"
					},
					"t_mapping(t_address,t_mapping(t_uint256,t_struct(Offers)63_storage))": {
						"encoding": "mapping",
						"key": "t_address",
						"label": "mapping(address => mapping(uint256 => struct Offer.Offers))",
						"numberOfBytes": "32",
						"value": "t_mapping(t_uint256,t_struct(Offers)63_storage)"
					},
					"t_mapping(t_address,t_uint256)": {
						"encoding": "mapping",
						"key": "t_address",
						"label": "mapping(address => uint256)",
						"numberOfBytes": "32",
						"value": "t_uint256"
					},
					"t_mapping(t_uint256,t_struct(Offers)63_storage)": {
						"encoding": "mapping",
						"key": "t_uint256",
						"label": "mapping(uint256 => struct Offer.Offers)",
						"numberOfBytes": "32",
						"value": "t_struct(Offers)63_storage"
					},
					"t_struct(Offers)63_storage": {
						"encoding": "inplace",
						"label": "struct Offer.Offers",
						"members": [
							{
								"astId": 56,
								"contract": "Offer.sol:Offer",
								"label": "offerer",
								"offset": 0,
								"slot": "0",
								"type": "t_array(t_address)dyn_storage"
							},
							{
								"astId": 60,
								"contract": "Offer.sol:Offer",
								"label": "amount",
								"offset": 0,
								"slot": "1",
								"type": "t_mapping(t_address,t_uint256)"
							},
							{
								"astId": 62,
								"contract": "Offer.sol:Offer",
								"label": "isOffer",
								"offset": 0,
								"slot": "2",
								"type": "t_bool"
							}
						],
						"numberOfBytes": "96"
					},
					"t_uint256": {
						"encoding": "inplace",
						"label": "uint256",
						"numberOfBytes": "32"
					}
				}
			},
			"userdoc": {
				"kind": "user",
				"methods": {},
				"version": 1
			}
		}
	}
}