{
	"Bid.sol": {
		"Auction": {
			"abi": [
				{
					"anonymous": false,
					"inputs": [
						{
							"indexed": true,
							"internalType": "address",
							"name": "sender",
							"type": "address"
						},
						{
							"indexed": false,
							"internalType": "uint256",
							"name": "amount",
							"type": "uint256"
						}
					],
					"name": "Bid",
					"type": "event"
				},
				{
					"anonymous": false,
					"inputs": [
						{
							"indexed": false,
							"internalType": "address",
							"name": "highestBidder",
							"type": "address"
						},
						{
							"indexed": false,
							"internalType": "uint256",
							"name": "highestBid",
							"type": "uint256"
						}
					],
					"name": "End",
					"type": "event"
				},
				{
					"anonymous": false,
					"inputs": [
						{
							"indexed": true,
							"internalType": "address",
							"name": "tokenAddr",
							"type": "address"
						},
						{
							"indexed": true,
							"internalType": "uint256",
							"name": "tokenId",
							"type": "uint256"
						},
						{
							"indexed": false,
							"internalType": "uint256",
							"name": "startingBid",
							"type": "uint256"
						},
						{
							"indexed": false,
							"internalType": "uint256",
							"name": "endAt",
							"type": "uint256"
						}
					],
					"name": "Start",
					"type": "event"
				},
				{
					"anonymous": false,
					"inputs": [
						{
							"indexed": true,
							"internalType": "address",
							"name": "bidder",
							"type": "address"
						},
						{
							"indexed": false,
							"internalType": "uint256",
							"name": "amount",
							"type": "uint256"
						}
					],
					"name": "Withdraw",
					"type": "event"
				},
				{
					"inputs": [
						{
							"internalType": "address",
							"name": "tokenAddr_",
							"type": "address"
						},
						{
							"internalType": "uint256",
							"name": "tokenId_",
							"type": "uint256"
						},
						{
							"internalType": "address",
							"name": "to",
							"type": "address"
						}
					],
					"name": "autoWithdraw",
					"outputs": [],
					"stateMutability": "payable",
					"type": "function"
				},
				{
					"inputs": [],
					"name": "balances",
					"outputs": [
						{
							"internalType": "uint256",
							"name": "",
							"type": "uint256"
						}
					],
					"stateMutability": "view",
					"type": "function"
				},
				{
					"inputs": [
						{
							"internalType": "address",
							"name": "_tokenAddr",
							"type": "address"
						},
						{
							"internalType": "uint256",
							"name": "_tokenId",
							"type": "uint256"
						}
					],
					"name": "bid",
					"outputs": [],
					"stateMutability": "payable",
					"type": "function"
				},
				{
					"inputs": [
						{
							"internalType": "address",
							"name": "",
							"type": "address"
						},
						{
							"internalType": "uint256",
							"name": "",
							"type": "uint256"
						}
					],
					"name": "biddings",
					"outputs": [
						{
							"internalType": "address",
							"name": "seller",
							"type": "address"
						},
						{
							"internalType": "bool",
							"name": "started",
							"type": "bool"
						},
						{
							"internalType": "bool",
							"name": "ended",
							"type": "bool"
						},
						{
							"internalType": "uint256",
							"name": "endAt",
							"type": "uint256"
						},
						{
							"internalType": "contract ERC721",
							"name": "tokenAddr",
							"type": "address"
						},
						{
							"internalType": "uint256",
							"name": "tokenId",
							"type": "uint256"
						},
						{
							"internalType": "uint256",
							"name": "bidCount",
							"type": "uint256"
						}
					],
					"stateMutability": "view",
					"type": "function"
				},
				{
					"inputs": [
						{
							"internalType": "address",
							"name": "_tokenAddr",
							"type": "address"
						},
						{
							"internalType": "uint256",
							"name": "_tokenId",
							"type": "uint256"
						}
					],
					"name": "end",
					"outputs": [],
					"stateMutability": "nonpayable",
					"type": "function"
				},
				{
					"inputs": [
						{
							"internalType": "address",
							"name": "_tokenAddr",
							"type": "address"
						},
						{
							"internalType": "uint256",
							"name": "_tokenId",
							"type": "uint256"
						},
						{
							"internalType": "uint256",
							"name": "startingBid",
							"type": "uint256"
						},
						{
							"internalType": "uint256",
							"name": "dayAmount",
							"type": "uint256"
						}
					],
					"name": "start",
					"outputs": [],
					"stateMutability": "nonpayable",
					"type": "function"
				},
				{
					"inputs": [
						{
							"internalType": "address",
							"name": "_tokenAddr",
							"type": "address"
						},
						{
							"internalType": "uint256",
							"name": "_tokenId",
							"type": "uint256"
						}
					],
					"name": "withdraw",
					"outputs": [],
					"stateMutability": "payable",
					"type": "function"
				}
			],
			"devdoc": {
				"kind": "dev",
				"methods": {},
				"version": 1
			},
			"evm": {
				"assembly": "    /* \"Bid.sol\":367:4664  contract Auction {\r... */\n  mstore(0x40, 0x80)\n  callvalue\n  dup1\n  iszero\n  tag_1\n  jumpi\n  0x00\n  dup1\n  revert\ntag_1:\n  pop\n  dataSize(sub_0)\n  dup1\n  dataOffset(sub_0)\n  0x00\n  codecopy\n  0x00\n  return\nstop\n\nsub_0: assembly {\n        /* \"Bid.sol\":367:4664  contract Auction {\r... */\n      mstore(0x40, 0x80)\n      jumpi(tag_1, lt(calldatasize, 0x04))\n      shr(0xe0, calldataload(0x00))\n      dup1\n      0x7bb98a68\n      gt\n      tag_9\n      jumpi\n      dup1\n      0x7bb98a68\n      eq\n      tag_5\n      jumpi\n      dup1\n      0xb76a3b5a\n      eq\n      tag_6\n      jumpi\n      dup1\n      0xf3fef3a3\n      eq\n      tag_7\n      jumpi\n      dup1\n      0xf48e9b3d\n      eq\n      tag_8\n      jumpi\n      jump(tag_1)\n    tag_9:\n      dup1\n      0x59d667a5\n      eq\n      tag_2\n      jumpi\n      dup1\n      0x695d69ba\n      eq\n      tag_3\n      jumpi\n      dup1\n      0x699ff43f\n      eq\n      tag_4\n      jumpi\n    tag_1:\n      0x00\n      dup1\n      revert\n        /* \"Bid.sol\":1926:2597  function bid(address _tokenAddr, uint _tokenId) external payable {\r... */\n    tag_2:\n      tag_10\n      0x04\n      dup1\n      calldatasize\n      sub\n      dup2\n      add\n      swap1\n      tag_11\n      swap2\n      swap1\n      tag_12\n      jump\t// in\n    tag_11:\n      tag_13\n      jump\t// in\n    tag_10:\n      stop\n        /* \"Bid.sol\":3219:4263  function end(address _tokenAddr, uint _tokenId) external {\r... */\n    tag_3:\n      callvalue\n      dup1\n      iszero\n      tag_14\n      jumpi\n      0x00\n      dup1\n      revert\n    tag_14:\n      pop\n      tag_15\n      0x04\n      dup1\n      calldatasize\n      sub\n      dup2\n      add\n      swap1\n      tag_16\n      swap2\n      swap1\n      tag_12\n      jump\t// in\n    tag_16:\n      tag_17\n      jump\t// in\n    tag_15:\n      stop\n        /* \"Bid.sol\":4271:4661  function autoWithdraw(address tokenAddr_, uint tokenId_, address to) public payable {\r... */\n    tag_4:\n      tag_18\n      0x04\n      dup1\n      calldatasize\n      sub\n      dup2\n      add\n      swap1\n      tag_19\n      swap2\n      swap1\n      tag_20\n      jump\t// in\n    tag_19:\n      tag_21\n      jump\t// in\n    tag_18:\n      stop\n        /* \"Bid.sol\":725:745  uint public balances */\n    tag_5:\n      callvalue\n      dup1\n      iszero\n      tag_22\n      jumpi\n      0x00\n      dup1\n      revert\n    tag_22:\n      pop\n      tag_23\n      tag_24\n      jump\t// in\n    tag_23:\n      mload(0x40)\n      tag_25\n      swap2\n      swap1\n      tag_26\n      jump\t// in\n    tag_25:\n      mload(0x40)\n      dup1\n      swap2\n      sub\n      swap1\n      return\n        /* \"Bid.sol\":1081:1918  function start(address _tokenAddr, uint _tokenId, uint startingBid, uint dayAmount) external {\r... */\n    tag_6:\n      callvalue\n      dup1\n      iszero\n      tag_27\n      jumpi\n      0x00\n      dup1\n      revert\n    tag_27:\n      pop\n      tag_28\n      0x04\n      dup1\n      calldatasize\n      sub\n      dup2\n      add\n      swap1\n      tag_29\n      swap2\n      swap1\n      tag_30\n      jump\t// in\n    tag_29:\n      tag_31\n      jump\t// in\n    tag_28:\n      stop\n        /* \"Bid.sol\":2605:3211  function withdraw(address _tokenAddr, uint _tokenId) external payable {\r... */\n    tag_7:\n      tag_32\n      0x04\n      dup1\n      calldatasize\n      sub\n      dup2\n      add\n      swap1\n      tag_33\n      swap2\n      swap1\n      tag_12\n      jump\t// in\n    tag_33:\n      tag_34\n      jump\t// in\n    tag_32:\n      stop\n        /* \"Bid.sol\":657:716  mapping(address =>mapping(uint => Bidding)) public biddings */\n    tag_8:\n      callvalue\n      dup1\n      iszero\n      tag_35\n      jumpi\n      0x00\n      dup1\n      revert\n    tag_35:\n      pop\n      tag_36\n      0x04\n      dup1\n      calldatasize\n      sub\n      dup2\n      add\n      swap1\n      tag_37\n      swap2\n      swap1\n      tag_12\n      jump\t// in\n    tag_37:\n      tag_38\n      jump\t// in\n    tag_36:\n      mload(0x40)\n      tag_39\n      swap8\n      swap7\n      swap6\n      swap5\n      swap4\n      swap3\n      swap2\n      swap1\n      tag_40\n      jump\t// in\n    tag_39:\n      mload(0x40)\n      dup1\n      swap2\n      sub\n      swap1\n      return\n        /* \"Bid.sol\":1926:2597  function bid(address _tokenAddr, uint _tokenId) external payable {\r... */\n    tag_13:\n        /* \"Bid.sol\":2002:2022  Bidding storage _bid */\n      0x00\n        /* \"Bid.sol\":2025:2033  biddings */\n      dup1\n        /* \"Bid.sol\":2025:2045  biddings[_tokenAddr] */\n      0x00\n        /* \"Bid.sol\":2034:2044  _tokenAddr */\n      dup5\n        /* \"Bid.sol\":2025:2045  biddings[_tokenAddr] */\n      0xffffffffffffffffffffffffffffffffffffffff\n      and\n      0xffffffffffffffffffffffffffffffffffffffff\n      and\n      dup2\n      mstore\n      0x20\n      add\n      swap1\n      dup2\n      mstore\n      0x20\n      add\n      0x00\n      keccak256\n        /* \"Bid.sol\":2025:2055  biddings[_tokenAddr][_tokenId] */\n      0x00\n        /* \"Bid.sol\":2046:2054  _tokenId */\n      dup4\n        /* \"Bid.sol\":2025:2055  biddings[_tokenAddr][_tokenId] */\n      dup2\n      mstore\n      0x20\n      add\n      swap1\n      dup2\n      mstore\n      0x20\n      add\n      0x00\n      keccak256\n        /* \"Bid.sol\":2002:2055  Bidding storage _bid = biddings[_tokenAddr][_tokenId] */\n      swap1\n      pop\n        /* \"Bid.sol\":2076:2080  _bid */\n      dup1\n        /* \"Bid.sol\":2076:2088  _bid.started */\n      0x00\n      add\n      0x14\n      swap1\n      sload\n      swap1\n      0x0100\n      exp\n      swap1\n      div\n      0xff\n      and\n        /* \"Bid.sol\":2068:2105  require(_bid.started, \"Not started.\") */\n      tag_42\n      jumpi\n      mload(0x40)\n      0x08c379a000000000000000000000000000000000000000000000000000000000\n      dup2\n      mstore\n      0x04\n      add\n      tag_43\n      swap1\n      tag_44\n      jump\t// in\n    tag_43:\n      mload(0x40)\n      dup1\n      swap2\n      sub\n      swap1\n      revert\n    tag_42:\n        /* \"Bid.sol\":2142:2146  _bid */\n      dup1\n        /* \"Bid.sol\":2142:2152  _bid.endAt */\n      0x01\n      add\n      sload\n        /* \"Bid.sol\":2124:2139  block.timestamp */\n      timestamp\n        /* \"Bid.sol\":2124:2152  block.timestamp < _bid.endAt */\n      lt\n        /* \"Bid.sol\":2116:2163  require(block.timestamp < _bid.endAt, \"Ended!\") */\n      tag_45\n      jumpi\n      mload(0x40)\n      0x08c379a000000000000000000000000000000000000000000000000000000000\n      dup2\n      mstore\n      0x04\n      add\n      tag_46\n      swap1\n      tag_47\n      jump\t// in\n    tag_46:\n      mload(0x40)\n      dup1\n      swap2\n      sub\n      swap1\n      revert\n    tag_45:\n        /* \"Bid.sol\":2194:2198  _bid */\n      dup1\n        /* \"Bid.sol\":2194:2209  _bid.highestBid */\n      0x05\n      add\n        /* \"Bid.sol\":2194:2224  _bid.highestBid[_bid.bidCount] */\n      0x00\n        /* \"Bid.sol\":2210:2214  _bid */\n      dup3\n        /* \"Bid.sol\":2210:2223  _bid.bidCount */\n      0x04\n      add\n      sload\n        /* \"Bid.sol\":2194:2224  _bid.highestBid[_bid.bidCount] */\n      dup2\n      mstore\n      0x20\n      add\n      swap1\n      dup2\n      mstore\n      0x20\n      add\n      0x00\n      keccak256\n      sload\n        /* \"Bid.sol\":2182:2191  msg.value */\n      callvalue\n        /* \"Bid.sol\":2182:2224  msg.value > _bid.highestBid[_bid.bidCount] */\n      gt\n        /* \"Bid.sol\":2174:2239  require(msg.value > _bid.highestBid[_bid.bidCount], \"Lower bid!\") */\n      tag_48\n      jumpi\n      mload(0x40)\n      0x08c379a000000000000000000000000000000000000000000000000000000000\n      dup2\n      mstore\n      0x04\n      add\n      tag_49\n      swap1\n      tag_50\n      jump\t// in\n    tag_49:\n      mload(0x40)\n      dup1\n      swap2\n      sub\n      swap1\n      revert\n    tag_48:\n        /* \"Bid.sol\":2285:2294  msg.value */\n      callvalue\n        /* \"Bid.sol\":2252:2256  _bid */\n      dup2\n        /* \"Bid.sol\":2252:2267  _bid.highestBid */\n      0x05\n      add\n        /* \"Bid.sol\":2252:2282  _bid.highestBid[_bid.bidCount] */\n      0x00\n        /* \"Bid.sol\":2268:2272  _bid */\n      dup4\n        /* \"Bid.sol\":2268:2281  _bid.bidCount */\n      0x04\n      add\n      sload\n        /* \"Bid.sol\":2252:2282  _bid.highestBid[_bid.bidCount] */\n      dup2\n      mstore\n      0x20\n      add\n      swap1\n      dup2\n      mstore\n      0x20\n      add\n      0x00\n      keccak256\n        /* \"Bid.sol\":2252:2294  _bid.highestBid[_bid.bidCount] = msg.value */\n      dup2\n      swap1\n      sstore\n      pop\n        /* \"Bid.sol\":2341:2351  msg.sender */\n      caller\n        /* \"Bid.sol\":2305:2309  _bid */\n      dup2\n        /* \"Bid.sol\":2305:2323  _bid.highestBidder */\n      0x06\n      add\n        /* \"Bid.sol\":2305:2338  _bid.highestBidder[_bid.bidCount] */\n      0x00\n        /* \"Bid.sol\":2324:2328  _bid */\n      dup4\n        /* \"Bid.sol\":2324:2337  _bid.bidCount */\n      0x04\n      add\n      sload\n        /* \"Bid.sol\":2305:2338  _bid.highestBidder[_bid.bidCount] */\n      dup2\n      mstore\n      0x20\n      add\n      swap1\n      dup2\n      mstore\n      0x20\n      add\n      0x00\n      keccak256\n      0x00\n        /* \"Bid.sol\":2305:2351  _bid.highestBidder[_bid.bidCount] = msg.sender */\n      0x0100\n      exp\n      dup2\n      sload\n      dup2\n      0xffffffffffffffffffffffffffffffffffffffff\n      mul\n      not\n      and\n      swap1\n      dup4\n      0xffffffffffffffffffffffffffffffffffffffff\n      and\n      mul\n      or\n      swap1\n      sstore\n      pop\n        /* \"Bid.sol\":2409:2413  _bid */\n      dup1\n        /* \"Bid.sol\":2409:2424  _bid.highestBid */\n      0x05\n      add\n        /* \"Bid.sol\":2409:2439  _bid.highestBid[_bid.bidCount] */\n      0x00\n        /* \"Bid.sol\":2425:2429  _bid */\n      dup3\n        /* \"Bid.sol\":2425:2438  _bid.bidCount */\n      0x04\n      add\n      sload\n        /* \"Bid.sol\":2409:2439  _bid.highestBid[_bid.bidCount] */\n      dup2\n      mstore\n      0x20\n      add\n      swap1\n      dup2\n      mstore\n      0x20\n      add\n      0x00\n      keccak256\n      sload\n        /* \"Bid.sol\":2362:2366  _bid */\n      dup2\n        /* \"Bid.sol\":2362:2371  _bid.bids */\n      0x07\n      add\n        /* \"Bid.sol\":2362:2406  _bid.bids[_bid.highestBidder[_bid.bidCount]] */\n      0x00\n        /* \"Bid.sol\":2372:2376  _bid */\n      dup4\n        /* \"Bid.sol\":2372:2390  _bid.highestBidder */\n      0x06\n      add\n        /* \"Bid.sol\":2372:2405  _bid.highestBidder[_bid.bidCount] */\n      0x00\n        /* \"Bid.sol\":2391:2395  _bid */\n      dup6\n        /* \"Bid.sol\":2391:2404  _bid.bidCount */\n      0x04\n      add\n      sload\n        /* \"Bid.sol\":2372:2405  _bid.highestBidder[_bid.bidCount] */\n      dup2\n      mstore\n      0x20\n      add\n      swap1\n      dup2\n      mstore\n      0x20\n      add\n      0x00\n      keccak256\n      0x00\n      swap1\n      sload\n      swap1\n      0x0100\n      exp\n      swap1\n      div\n      0xffffffffffffffffffffffffffffffffffffffff\n      and\n        /* \"Bid.sol\":2362:2406  _bid.bids[_bid.highestBidder[_bid.bidCount]] */\n      0xffffffffffffffffffffffffffffffffffffffff\n      and\n      0xffffffffffffffffffffffffffffffffffffffff\n      and\n      dup2\n      mstore\n      0x20\n      add\n      swap1\n      dup2\n      mstore\n      0x20\n      add\n      0x00\n      keccak256\n        /* \"Bid.sol\":2362:2439  _bid.bids[_bid.highestBidder[_bid.bidCount]] = _bid.highestBid[_bid.bidCount] */\n      dup2\n      swap1\n      sstore\n      pop\n        /* \"Bid.sol\":2452:2456  _bid */\n      dup1\n        /* \"Bid.sol\":2452:2465  _bid.bidCount */\n      0x04\n      add\n      0x00\n        /* \"Bid.sol\":2452:2467  _bid.bidCount++ */\n      dup2\n      sload\n      dup1\n      swap3\n      swap2\n      swap1\n      tag_51\n      swap1\n      tag_52\n      jump\t// in\n    tag_51:\n      swap2\n      swap1\n      pop\n      sstore\n      pop\n        /* \"Bid.sol\":2492:2501  msg.value */\n      callvalue\n        /* \"Bid.sol\":2480:2488  balances */\n      0x01\n      0x00\n        /* \"Bid.sol\":2480:2501  balances += msg.value */\n      dup3\n      dup3\n      sload\n      tag_53\n      swap2\n      swap1\n      tag_54\n      jump\t// in\n    tag_53:\n      swap3\n      pop\n      pop\n      dup2\n      swap1\n      sstore\n      pop\n        /* \"Bid.sol\":2523:2527  _bid */\n      dup1\n        /* \"Bid.sol\":2523:2541  _bid.highestBidder */\n      0x06\n      add\n        /* \"Bid.sol\":2523:2556  _bid.highestBidder[_bid.bidCount] */\n      0x00\n        /* \"Bid.sol\":2542:2546  _bid */\n      dup3\n        /* \"Bid.sol\":2542:2555  _bid.bidCount */\n      0x04\n      add\n      sload\n        /* \"Bid.sol\":2523:2556  _bid.highestBidder[_bid.bidCount] */\n      dup2\n      mstore\n      0x20\n      add\n      swap1\n      dup2\n      mstore\n      0x20\n      add\n      0x00\n      keccak256\n      0x00\n      swap1\n      sload\n      swap1\n      0x0100\n      exp\n      swap1\n      div\n      0xffffffffffffffffffffffffffffffffffffffff\n      and\n        /* \"Bid.sol\":2519:2589  Bid(_bid.highestBidder[_bid.bidCount], _bid.highestBid[_bid.bidCount]) */\n      0xffffffffffffffffffffffffffffffffffffffff\n      and\n      0xe684a55f31b79eca403df938249029212a5925ec6be8012e099b45bc1019e5d2\n        /* \"Bid.sol\":2558:2562  _bid */\n      dup3\n        /* \"Bid.sol\":2558:2573  _bid.highestBid */\n      0x05\n      add\n        /* \"Bid.sol\":2558:2588  _bid.highestBid[_bid.bidCount] */\n      0x00\n        /* \"Bid.sol\":2574:2578  _bid */\n      dup5\n        /* \"Bid.sol\":2574:2587  _bid.bidCount */\n      0x04\n      add\n      sload\n        /* \"Bid.sol\":2558:2588  _bid.highestBid[_bid.bidCount] */\n      dup2\n      mstore\n      0x20\n      add\n      swap1\n      dup2\n      mstore\n      0x20\n      add\n      0x00\n      keccak256\n      sload\n        /* \"Bid.sol\":2519:2589  Bid(_bid.highestBidder[_bid.bidCount], _bid.highestBid[_bid.bidCount]) */\n      mload(0x40)\n      tag_55\n      swap2\n      swap1\n      tag_26\n      jump\t// in\n    tag_55:\n      mload(0x40)\n      dup1\n      swap2\n      sub\n      swap1\n      log2\n        /* \"Bid.sol\":1991:2597  {\r... */\n      pop\n        /* \"Bid.sol\":1926:2597  function bid(address _tokenAddr, uint _tokenId) external payable {\r... */\n      pop\n      pop\n      jump\t// out\n        /* \"Bid.sol\":3219:4263  function end(address _tokenAddr, uint _tokenId) external {\r... */\n    tag_17:\n        /* \"Bid.sol\":3287:3307  Bidding storage _bid */\n      0x00\n        /* \"Bid.sol\":3310:3318  biddings */\n      dup1\n        /* \"Bid.sol\":3310:3330  biddings[_tokenAddr] */\n      0x00\n        /* \"Bid.sol\":3319:3329  _tokenAddr */\n      dup5\n        /* \"Bid.sol\":3310:3330  biddings[_tokenAddr] */\n      0xffffffffffffffffffffffffffffffffffffffff\n      and\n      0xffffffffffffffffffffffffffffffffffffffff\n      and\n      dup2\n      mstore\n      0x20\n      add\n      swap1\n      dup2\n      mstore\n      0x20\n      add\n      0x00\n      keccak256\n        /* \"Bid.sol\":3310:3340  biddings[_tokenAddr][_tokenId] */\n      0x00\n        /* \"Bid.sol\":3331:3339  _tokenId */\n      dup4\n        /* \"Bid.sol\":3310:3340  biddings[_tokenAddr][_tokenId] */\n      dup2\n      mstore\n      0x20\n      add\n      swap1\n      dup2\n      mstore\n      0x20\n      add\n      0x00\n      keccak256\n        /* \"Bid.sol\":3287:3340  Bidding storage _bid = biddings[_tokenAddr][_tokenId] */\n      swap1\n      pop\n        /* \"Bid.sol\":3361:3365  _bid */\n      dup1\n        /* \"Bid.sol\":3361:3373  _bid.started */\n      0x00\n      add\n      0x14\n      swap1\n      sload\n      swap1\n      0x0100\n      exp\n      swap1\n      div\n      0xff\n      and\n        /* \"Bid.sol\":3353:3402  require(_bid.started, \"You need to start first!\") */\n      tag_57\n      jumpi\n      mload(0x40)\n      0x08c379a000000000000000000000000000000000000000000000000000000000\n      dup2\n      mstore\n      0x04\n      add\n      tag_58\n      swap1\n      tag_59\n      jump\t// in\n    tag_58:\n      mload(0x40)\n      dup1\n      swap2\n      sub\n      swap1\n      revert\n    tag_57:\n        /* \"Bid.sol\":3440:3444  _bid */\n      dup1\n        /* \"Bid.sol\":3440:3450  _bid.endAt */\n      0x01\n      add\n      sload\n        /* \"Bid.sol\":3421:3436  block.timestamp */\n      timestamp\n        /* \"Bid.sol\":3421:3450  block.timestamp >= _bid.endAt */\n      lt\n      iszero\n        /* \"Bid.sol\":3413:3480  require(block.timestamp >= _bid.endAt, \"Auction is still ongoing!\") */\n      tag_60\n      jumpi\n      mload(0x40)\n      0x08c379a000000000000000000000000000000000000000000000000000000000\n      dup2\n      mstore\n      0x04\n      add\n      tag_61\n      swap1\n      tag_62\n      jump\t// in\n    tag_61:\n      mload(0x40)\n      dup1\n      swap2\n      sub\n      swap1\n      revert\n    tag_60:\n        /* \"Bid.sol\":3500:3504  _bid */\n      dup1\n        /* \"Bid.sol\":3500:3510  _bid.ended */\n      0x00\n      add\n      0x15\n      swap1\n      sload\n      swap1\n      0x0100\n      exp\n      swap1\n      div\n      0xff\n      and\n        /* \"Bid.sol\":3499:3510  !_bid.ended */\n      iszero\n        /* \"Bid.sol\":3491:3537  require(!_bid.ended, \"Auction already ended!\") */\n      tag_63\n      jumpi\n      mload(0x40)\n      0x08c379a000000000000000000000000000000000000000000000000000000000\n      dup2\n      mstore\n      0x04\n      add\n      tag_64\n      swap1\n      tag_65\n      jump\t// in\n    tag_64:\n      mload(0x40)\n      dup1\n      swap2\n      sub\n      swap1\n      revert\n    tag_63:\n        /* \"Bid.sol\":3599:3600  0 */\n      0x00\n        /* \"Bid.sol\":3554:3601  _bid.highestBidder[_bid.bidCount] != address(0) */\n      0xffffffffffffffffffffffffffffffffffffffff\n      and\n        /* \"Bid.sol\":3554:3558  _bid */\n      dup2\n        /* \"Bid.sol\":3554:3572  _bid.highestBidder */\n      0x06\n      add\n        /* \"Bid.sol\":3554:3587  _bid.highestBidder[_bid.bidCount] */\n      0x00\n        /* \"Bid.sol\":3573:3577  _bid */\n      dup4\n        /* \"Bid.sol\":3573:3586  _bid.bidCount */\n      0x04\n      add\n      sload\n        /* \"Bid.sol\":3554:3587  _bid.highestBidder[_bid.bidCount] */\n      dup2\n      mstore\n      0x20\n      add\n      swap1\n      dup2\n      mstore\n      0x20\n      add\n      0x00\n      keccak256\n      0x00\n      swap1\n      sload\n      swap1\n      0x0100\n      exp\n      swap1\n      div\n      0xffffffffffffffffffffffffffffffffffffffff\n      and\n        /* \"Bid.sol\":3554:3601  _bid.highestBidder[_bid.bidCount] != address(0) */\n      0xffffffffffffffffffffffffffffffffffffffff\n      and\n      eq\n        /* \"Bid.sol\":3550:4109  if (_bid.highestBidder[_bid.bidCount] != address(0)) {\r... */\n      tag_66\n      jumpi\n        /* \"Bid.sol\":3620:3624  _bid */\n      dup1\n        /* \"Bid.sol\":3620:3634  _bid.tokenAddr */\n      0x02\n      add\n      0x00\n      swap1\n      sload\n      swap1\n      0x0100\n      exp\n      swap1\n      div\n      0xffffffffffffffffffffffffffffffffffffffff\n      and\n        /* \"Bid.sol\":3620:3647  _bid.tokenAddr.transferFrom */\n      0xffffffffffffffffffffffffffffffffffffffff\n      and\n      0x23b872dd\n        /* \"Bid.sol\":3656:3660  this */\n      address\n        /* \"Bid.sol\":3663:3667  _bid */\n      dup4\n        /* \"Bid.sol\":3663:3681  _bid.highestBidder */\n      0x06\n      add\n        /* \"Bid.sol\":3663:3696  _bid.highestBidder[_bid.bidCount] */\n      0x00\n        /* \"Bid.sol\":3682:3686  _bid */\n      dup6\n        /* \"Bid.sol\":3682:3695  _bid.bidCount */\n      0x04\n      add\n      sload\n        /* \"Bid.sol\":3663:3696  _bid.highestBidder[_bid.bidCount] */\n      dup2\n      mstore\n      0x20\n      add\n      swap1\n      dup2\n      mstore\n      0x20\n      add\n      0x00\n      keccak256\n      0x00\n      swap1\n      sload\n      swap1\n      0x0100\n      exp\n      swap1\n      div\n      0xffffffffffffffffffffffffffffffffffffffff\n      and\n        /* \"Bid.sol\":3698:3702  _bid */\n      dup5\n        /* \"Bid.sol\":3698:3710  _bid.tokenId */\n      0x03\n      add\n      sload\n        /* \"Bid.sol\":3620:3711  _bid.tokenAddr.transferFrom(address(this), _bid.highestBidder[_bid.bidCount], _bid.tokenId) */\n      mload(0x40)\n      dup5\n      0xffffffff\n      and\n      0xe0\n      shl\n      dup2\n      mstore\n      0x04\n      add\n      tag_67\n      swap4\n      swap3\n      swap2\n      swap1\n      tag_68\n      jump\t// in\n    tag_67:\n      0x00\n      mload(0x40)\n      dup1\n      dup4\n      sub\n      dup2\n      0x00\n      dup8\n      dup1\n      extcodesize\n      iszero\n      dup1\n      iszero\n      tag_69\n      jumpi\n      0x00\n      dup1\n      revert\n    tag_69:\n      pop\n      gas\n      call\n      iszero\n      dup1\n      iszero\n      tag_71\n      jumpi\n      returndatasize\n      0x00\n      dup1\n      returndatacopy\n      revert(0x00, returndatasize)\n    tag_71:\n      pop\n      pop\n      pop\n      pop\n        /* \"Bid.sol\":3736:3740  _bid */\n      dup1\n        /* \"Bid.sol\":3736:3747  _bid.seller */\n      0x00\n      add\n      0x00\n      swap1\n      sload\n      swap1\n      0x0100\n      exp\n      swap1\n      div\n      0xffffffffffffffffffffffffffffffffffffffff\n      and\n        /* \"Bid.sol\":3728:3757  payable(_bid.seller).transfer */\n      0xffffffffffffffffffffffffffffffffffffffff\n      and\n        /* \"Bid.sol\":3728:3789  payable(_bid.seller).transfer(_bid.highestBid[_bid.bidCount]) */\n      0x08fc\n        /* \"Bid.sol\":3758:3762  _bid */\n      dup3\n        /* \"Bid.sol\":3758:3773  _bid.highestBid */\n      0x05\n      add\n        /* \"Bid.sol\":3758:3788  _bid.highestBid[_bid.bidCount] */\n      0x00\n        /* \"Bid.sol\":3774:3778  _bid */\n      dup5\n        /* \"Bid.sol\":3774:3787  _bid.bidCount */\n      0x04\n      add\n      sload\n        /* \"Bid.sol\":3758:3788  _bid.highestBid[_bid.bidCount] */\n      dup2\n      mstore\n      0x20\n      add\n      swap1\n      dup2\n      mstore\n      0x20\n      add\n      0x00\n      keccak256\n      sload\n        /* \"Bid.sol\":3728:3789  payable(_bid.seller).transfer(_bid.highestBid[_bid.bidCount]) */\n      swap1\n      dup2\n      iszero\n      mul\n      swap1\n      mload(0x40)\n      0x00\n      mload(0x40)\n      dup1\n      dup4\n      sub\n      dup2\n      dup6\n      dup9\n      dup9\n      call\n      swap4\n      pop\n      pop\n      pop\n      pop\n      iszero\n      dup1\n      iszero\n      tag_73\n      jumpi\n      returndatasize\n      0x00\n      dup1\n      returndatacopy\n      revert(0x00, returndatasize)\n    tag_73:\n      pop\n        /* \"Bid.sol\":3816:3820  _bid */\n      dup1\n        /* \"Bid.sol\":3816:3831  _bid.highestBid */\n      0x05\n      add\n        /* \"Bid.sol\":3816:3846  _bid.highestBid[_bid.bidCount] */\n      0x00\n        /* \"Bid.sol\":3832:3836  _bid */\n      dup3\n        /* \"Bid.sol\":3832:3845  _bid.bidCount */\n      0x04\n      add\n      sload\n        /* \"Bid.sol\":3816:3846  _bid.highestBid[_bid.bidCount] */\n      dup2\n      mstore\n      0x20\n      add\n      swap1\n      dup2\n      mstore\n      0x20\n      add\n      0x00\n      keccak256\n      sload\n        /* \"Bid.sol\":3804:3812  balances */\n      0x01\n      0x00\n        /* \"Bid.sol\":3804:3846  balances -= _bid.highestBid[_bid.bidCount] */\n      dup3\n      dup3\n      sload\n      tag_74\n      swap2\n      swap1\n      tag_75\n      jump\t// in\n    tag_74:\n      swap3\n      pop\n      pop\n      dup2\n      swap1\n      sstore\n      pop\n        /* \"Bid.sol\":3868:3874  uint i */\n      0x00\n        /* \"Bid.sol\":3863:3996  for (uint i = 0; i < _bid.bidCount; i++) {\r... */\n    tag_76:\n        /* \"Bid.sol\":3884:3888  _bid */\n      dup2\n        /* \"Bid.sol\":3884:3897  _bid.bidCount */\n      0x04\n      add\n      sload\n        /* \"Bid.sol\":3880:3881  i */\n      dup2\n        /* \"Bid.sol\":3880:3897  i < _bid.bidCount */\n      lt\n        /* \"Bid.sol\":3863:3996  for (uint i = 0; i < _bid.bidCount; i++) {\r... */\n      iszero\n      tag_77\n      jumpi\n        /* \"Bid.sol\":3923:3980  autoWithdraw(_tokenAddr, _tokenId, _bid.highestBidder[i]) */\n      tag_79\n        /* \"Bid.sol\":3936:3946  _tokenAddr */\n      dup5\n        /* \"Bid.sol\":3948:3956  _tokenId */\n      dup5\n        /* \"Bid.sol\":3958:3962  _bid */\n      dup5\n        /* \"Bid.sol\":3958:3976  _bid.highestBidder */\n      0x06\n      add\n        /* \"Bid.sol\":3958:3979  _bid.highestBidder[i] */\n      0x00\n        /* \"Bid.sol\":3977:3978  i */\n      dup6\n        /* \"Bid.sol\":3958:3979  _bid.highestBidder[i] */\n      dup2\n      mstore\n      0x20\n      add\n      swap1\n      dup2\n      mstore\n      0x20\n      add\n      0x00\n      keccak256\n      0x00\n      swap1\n      sload\n      swap1\n      0x0100\n      exp\n      swap1\n      div\n      0xffffffffffffffffffffffffffffffffffffffff\n      and\n        /* \"Bid.sol\":3923:3935  autoWithdraw */\n      tag_21\n        /* \"Bid.sol\":3923:3980  autoWithdraw(_tokenAddr, _tokenId, _bid.highestBidder[i]) */\n      jump\t// in\n    tag_79:\n        /* \"Bid.sol\":3899:3902  i++ */\n      dup1\n      dup1\n      tag_80\n      swap1\n      tag_52\n      jump\t// in\n    tag_80:\n      swap2\n      pop\n      pop\n        /* \"Bid.sol\":3863:3996  for (uint i = 0; i < _bid.bidCount; i++) {\r... */\n      jump(tag_76)\n    tag_77:\n      pop\n        /* \"Bid.sol\":3550:4109  if (_bid.highestBidder[_bid.bidCount] != address(0)) {\r... */\n      jump(tag_81)\n    tag_66:\n        /* \"Bid.sol\":4028:4032  _bid */\n      dup1\n        /* \"Bid.sol\":4028:4042  _bid.tokenAddr */\n      0x02\n      add\n      0x00\n      swap1\n      sload\n      swap1\n      0x0100\n      exp\n      swap1\n      div\n      0xffffffffffffffffffffffffffffffffffffffff\n      and\n        /* \"Bid.sol\":4028:4055  _bid.tokenAddr.transferFrom */\n      0xffffffffffffffffffffffffffffffffffffffff\n      and\n      0x23b872dd\n        /* \"Bid.sol\":4064:4068  this */\n      address\n        /* \"Bid.sol\":4071:4075  _bid */\n      dup4\n        /* \"Bid.sol\":4071:4082  _bid.seller */\n      0x00\n      add\n      0x00\n      swap1\n      sload\n      swap1\n      0x0100\n      exp\n      swap1\n      div\n      0xffffffffffffffffffffffffffffffffffffffff\n      and\n        /* \"Bid.sol\":4084:4088  _bid */\n      dup5\n        /* \"Bid.sol\":4084:4096  _bid.tokenId */\n      0x03\n      add\n      sload\n        /* \"Bid.sol\":4028:4097  _bid.tokenAddr.transferFrom(address(this), _bid.seller, _bid.tokenId) */\n      mload(0x40)\n      dup5\n      0xffffffff\n      and\n      0xe0\n      shl\n      dup2\n      mstore\n      0x04\n      add\n      tag_82\n      swap4\n      swap3\n      swap2\n      swap1\n      tag_68\n      jump\t// in\n    tag_82:\n      0x00\n      mload(0x40)\n      dup1\n      dup4\n      sub\n      dup2\n      0x00\n      dup8\n      dup1\n      extcodesize\n      iszero\n      dup1\n      iszero\n      tag_83\n      jumpi\n      0x00\n      dup1\n      revert\n    tag_83:\n      pop\n      gas\n      call\n      iszero\n      dup1\n      iszero\n      tag_85\n      jumpi\n      returndatasize\n      0x00\n      dup1\n      returndatacopy\n      revert(0x00, returndatasize)\n    tag_85:\n      pop\n      pop\n      pop\n      pop\n        /* \"Bid.sol\":3550:4109  if (_bid.highestBidder[_bid.bidCount] != address(0)) {\r... */\n    tag_81:\n        /* \"Bid.sol\":4134:4138  true */\n      0x01\n        /* \"Bid.sol\":4121:4125  _bid */\n      dup2\n        /* \"Bid.sol\":4121:4131  _bid.ended */\n      0x00\n      add\n      0x15\n        /* \"Bid.sol\":4121:4138  _bid.ended = true */\n      0x0100\n      exp\n      dup2\n      sload\n      dup2\n      0xff\n      mul\n      not\n      and\n      swap1\n      dup4\n      iszero\n      iszero\n      mul\n      or\n      swap1\n      sstore\n      pop\n        /* \"Bid.sol\":4164:4169  false */\n      0x00\n        /* \"Bid.sol\":4149:4153  _bid */\n      dup2\n        /* \"Bid.sol\":4149:4161  _bid.started */\n      0x00\n      add\n      0x14\n        /* \"Bid.sol\":4149:4169  _bid.started = false */\n      0x0100\n      exp\n      dup2\n      sload\n      dup2\n      0xff\n      mul\n      not\n      and\n      swap1\n      dup4\n      iszero\n      iszero\n      mul\n      or\n      swap1\n      sstore\n      pop\n        /* \"Bid.sol\":4185:4255  End(_bid.highestBidder[_bid.bidCount], _bid.highestBid[_bid.bidCount]) */\n      0x7d7570b046e5ead3a4f3fbc9fa2445113625a1e79823776146316bafed6b8cc5\n        /* \"Bid.sol\":4189:4193  _bid */\n      dup2\n        /* \"Bid.sol\":4189:4207  _bid.highestBidder */\n      0x06\n      add\n        /* \"Bid.sol\":4189:4222  _bid.highestBidder[_bid.bidCount] */\n      0x00\n        /* \"Bid.sol\":4208:4212  _bid */\n      dup4\n        /* \"Bid.sol\":4208:4221  _bid.bidCount */\n      0x04\n      add\n      sload\n        /* \"Bid.sol\":4189:4222  _bid.highestBidder[_bid.bidCount] */\n      dup2\n      mstore\n      0x20\n      add\n      swap1\n      dup2\n      mstore\n      0x20\n      add\n      0x00\n      keccak256\n      0x00\n      swap1\n      sload\n      swap1\n      0x0100\n      exp\n      swap1\n      div\n      0xffffffffffffffffffffffffffffffffffffffff\n      and\n        /* \"Bid.sol\":4224:4228  _bid */\n      dup3\n        /* \"Bid.sol\":4224:4239  _bid.highestBid */\n      0x05\n      add\n        /* \"Bid.sol\":4224:4254  _bid.highestBid[_bid.bidCount] */\n      0x00\n        /* \"Bid.sol\":4240:4244  _bid */\n      dup5\n        /* \"Bid.sol\":4240:4253  _bid.bidCount */\n      0x04\n      add\n      sload\n        /* \"Bid.sol\":4224:4254  _bid.highestBid[_bid.bidCount] */\n      dup2\n      mstore\n      0x20\n      add\n      swap1\n      dup2\n      mstore\n      0x20\n      add\n      0x00\n      keccak256\n      sload\n        /* \"Bid.sol\":4185:4255  End(_bid.highestBidder[_bid.bidCount], _bid.highestBid[_bid.bidCount]) */\n      mload(0x40)\n      tag_86\n      swap3\n      swap2\n      swap1\n      tag_87\n      jump\t// in\n    tag_86:\n      mload(0x40)\n      dup1\n      swap2\n      sub\n      swap1\n      log1\n        /* \"Bid.sol\":3276:4263  {\r... */\n      pop\n        /* \"Bid.sol\":3219:4263  function end(address _tokenAddr, uint _tokenId) external {\r... */\n      pop\n      pop\n      jump\t// out\n        /* \"Bid.sol\":4271:4661  function autoWithdraw(address tokenAddr_, uint tokenId_, address to) public payable {\r... */\n    tag_21:\n        /* \"Bid.sol\":4366:4386  Bidding storage _bid */\n      0x00\n        /* \"Bid.sol\":4389:4397  biddings */\n      dup1\n        /* \"Bid.sol\":4389:4409  biddings[tokenAddr_] */\n      0x00\n        /* \"Bid.sol\":4398:4408  tokenAddr_ */\n      dup6\n        /* \"Bid.sol\":4389:4409  biddings[tokenAddr_] */\n      0xffffffffffffffffffffffffffffffffffffffff\n      and\n      0xffffffffffffffffffffffffffffffffffffffff\n      and\n      dup2\n      mstore\n      0x20\n      add\n      swap1\n      dup2\n      mstore\n      0x20\n      add\n      0x00\n      keccak256\n        /* \"Bid.sol\":4389:4419  biddings[tokenAddr_][tokenId_] */\n      0x00\n        /* \"Bid.sol\":4410:4418  tokenId_ */\n      dup5\n        /* \"Bid.sol\":4389:4419  biddings[tokenAddr_][tokenId_] */\n      dup2\n      mstore\n      0x20\n      add\n      swap1\n      dup2\n      mstore\n      0x20\n      add\n      0x00\n      keccak256\n        /* \"Bid.sol\":4366:4419  Bidding storage _bid = biddings[tokenAddr_][tokenId_] */\n      swap1\n      pop\n        /* \"Bid.sol\":4430:4438  uint bal */\n      0x00\n        /* \"Bid.sol\":4441:4445  _bid */\n      dup2\n        /* \"Bid.sol\":4441:4450  _bid.bids */\n      0x07\n      add\n        /* \"Bid.sol\":4441:4454  _bid.bids[to] */\n      0x00\n        /* \"Bid.sol\":4451:4453  to */\n      dup5\n        /* \"Bid.sol\":4441:4454  _bid.bids[to] */\n      0xffffffffffffffffffffffffffffffffffffffff\n      and\n      0xffffffffffffffffffffffffffffffffffffffff\n      and\n      dup2\n      mstore\n      0x20\n      add\n      swap1\n      dup2\n      mstore\n      0x20\n      add\n      0x00\n      keccak256\n      sload\n        /* \"Bid.sol\":4430:4454  uint bal = _bid.bids[to] */\n      swap1\n      pop\n        /* \"Bid.sol\":4481:4482  0 */\n      0x00\n        /* \"Bid.sol\":4475:4478  bal */\n      dup2\n        /* \"Bid.sol\":4475:4482  bal > 0 */\n      gt\n        /* \"Bid.sol\":4475:4501  bal > 0 && bal <= balances */\n      dup1\n      iszero\n      tag_89\n      jumpi\n      pop\n        /* \"Bid.sol\":4493:4501  balances */\n      sload(0x01)\n        /* \"Bid.sol\":4486:4489  bal */\n      dup2\n        /* \"Bid.sol\":4486:4501  bal <= balances */\n      gt\n      iszero\n        /* \"Bid.sol\":4475:4501  bal > 0 && bal <= balances */\n    tag_89:\n        /* \"Bid.sol\":4467:4524  require(bal > 0 && bal <= balances, \"Could not withdraw\") */\n      tag_90\n      jumpi\n      mload(0x40)\n      0x08c379a000000000000000000000000000000000000000000000000000000000\n      dup2\n      mstore\n      0x04\n      add\n      tag_91\n      swap1\n      tag_92\n      jump\t// in\n    tag_91:\n      mload(0x40)\n      dup1\n      swap2\n      sub\n      swap1\n      revert\n    tag_90:\n        /* \"Bid.sol\":4553:4554  0 */\n      0x00\n        /* \"Bid.sol\":4537:4541  _bid */\n      dup3\n        /* \"Bid.sol\":4537:4546  _bid.bids */\n      0x07\n      add\n        /* \"Bid.sol\":4537:4550  _bid.bids[to] */\n      0x00\n        /* \"Bid.sol\":4547:4549  to */\n      dup6\n        /* \"Bid.sol\":4537:4550  _bid.bids[to] */\n      0xffffffffffffffffffffffffffffffffffffffff\n      and\n      0xffffffffffffffffffffffffffffffffffffffff\n      and\n      dup2\n      mstore\n      0x20\n      add\n      swap1\n      dup2\n      mstore\n      0x20\n      add\n      0x00\n      keccak256\n        /* \"Bid.sol\":4537:4554  _bid.bids[to] = 0 */\n      dup2\n      swap1\n      sstore\n      pop\n        /* \"Bid.sol\":4575:4577  to */\n      dup3\n        /* \"Bid.sol\":4567:4587  payable(to).transfer */\n      0xffffffffffffffffffffffffffffffffffffffff\n      and\n        /* \"Bid.sol\":4567:4592  payable(to).transfer(bal) */\n      0x08fc\n        /* \"Bid.sol\":4588:4591  bal */\n      dup3\n        /* \"Bid.sol\":4567:4592  payable(to).transfer(bal) */\n      swap1\n      dup2\n      iszero\n      mul\n      swap1\n      mload(0x40)\n      0x00\n      mload(0x40)\n      dup1\n      dup4\n      sub\n      dup2\n      dup6\n      dup9\n      dup9\n      call\n      swap4\n      pop\n      pop\n      pop\n      pop\n      iszero\n      dup1\n      iszero\n      tag_94\n      jumpi\n      returndatasize\n      0x00\n      dup1\n      returndatacopy\n      revert(0x00, returndatasize)\n    tag_94:\n      pop\n        /* \"Bid.sol\":4615:4618  bal */\n      dup1\n        /* \"Bid.sol\":4603:4611  balances */\n      0x01\n      0x00\n        /* \"Bid.sol\":4603:4618  balances -= bal */\n      dup3\n      dup3\n      sload\n      tag_95\n      swap2\n      swap1\n      tag_75\n      jump\t// in\n    tag_95:\n      swap3\n      pop\n      pop\n      dup2\n      swap1\n      sstore\n      pop\n        /* \"Bid.sol\":4645:4647  to */\n      dup3\n        /* \"Bid.sol\":4636:4653  Withdraw(to, bal) */\n      0xffffffffffffffffffffffffffffffffffffffff\n      and\n      0x884edad9ce6fa2440d8a54cc123490eb96d2768479d49ff9c7366125a9424364\n        /* \"Bid.sol\":4649:4652  bal */\n      dup3\n        /* \"Bid.sol\":4636:4653  Withdraw(to, bal) */\n      mload(0x40)\n      tag_96\n      swap2\n      swap1\n      tag_26\n      jump\t// in\n    tag_96:\n      mload(0x40)\n      dup1\n      swap2\n      sub\n      swap1\n      log2\n        /* \"Bid.sol\":4355:4661  {\r... */\n      pop\n      pop\n        /* \"Bid.sol\":4271:4661  function autoWithdraw(address tokenAddr_, uint tokenId_, address to) public payable {\r... */\n      pop\n      pop\n      pop\n      jump\t// out\n        /* \"Bid.sol\":725:745  uint public balances */\n    tag_24:\n      sload(0x01)\n      dup2\n      jump\t// out\n        /* \"Bid.sol\":1081:1918  function start(address _tokenAddr, uint _tokenId, uint startingBid, uint dayAmount) external {\r... */\n    tag_31:\n        /* \"Bid.sol\":1185:1205  Bidding storage _bid */\n      0x00\n        /* \"Bid.sol\":1208:1216  biddings */\n      dup1\n        /* \"Bid.sol\":1208:1228  biddings[_tokenAddr] */\n      0x00\n        /* \"Bid.sol\":1217:1227  _tokenAddr */\n      dup7\n        /* \"Bid.sol\":1208:1228  biddings[_tokenAddr] */\n      0xffffffffffffffffffffffffffffffffffffffff\n      and\n      0xffffffffffffffffffffffffffffffffffffffff\n      and\n      dup2\n      mstore\n      0x20\n      add\n      swap1\n      dup2\n      mstore\n      0x20\n      add\n      0x00\n      keccak256\n        /* \"Bid.sol\":1208:1238  biddings[_tokenAddr][_tokenId] */\n      0x00\n        /* \"Bid.sol\":1229:1237  _tokenId */\n      dup6\n        /* \"Bid.sol\":1208:1238  biddings[_tokenAddr][_tokenId] */\n      dup2\n      mstore\n      0x20\n      add\n      swap1\n      dup2\n      mstore\n      0x20\n      add\n      0x00\n      keccak256\n        /* \"Bid.sol\":1185:1238  Bidding storage _bid = biddings[_tokenAddr][_tokenId] */\n      swap1\n      pop\n        /* \"Bid.sol\":1273:1283  _tokenAddr */\n      dup5\n        /* \"Bid.sol\":1249:1253  _bid */\n      dup2\n        /* \"Bid.sol\":1249:1263  _bid.tokenAddr */\n      0x02\n      add\n      0x00\n        /* \"Bid.sol\":1249:1284  _bid.tokenAddr = ERC721(_tokenAddr) */\n      0x0100\n      exp\n      dup2\n      sload\n      dup2\n      0xffffffffffffffffffffffffffffffffffffffff\n      mul\n      not\n      and\n      swap1\n      dup4\n      0xffffffffffffffffffffffffffffffffffffffff\n      and\n      mul\n      or\n      swap1\n      sstore\n      pop\n        /* \"Bid.sol\":1309:1313  _bid */\n      dup1\n        /* \"Bid.sol\":1309:1323  _bid.tokenAddr */\n      0x02\n      add\n      0x00\n      swap1\n      sload\n      swap1\n      0x0100\n      exp\n      swap1\n      div\n      0xffffffffffffffffffffffffffffffffffffffff\n      and\n        /* \"Bid.sol\":1309:1331  _bid.tokenAddr.ownerOf */\n      0xffffffffffffffffffffffffffffffffffffffff\n      and\n      0x6352211e\n        /* \"Bid.sol\":1332:1340  _tokenId */\n      dup6\n        /* \"Bid.sol\":1309:1341  _bid.tokenAddr.ownerOf(_tokenId) */\n      mload(0x40)\n      dup3\n      0xffffffff\n      and\n      0xe0\n      shl\n      dup2\n      mstore\n      0x04\n      add\n      tag_98\n      swap2\n      swap1\n      tag_26\n      jump\t// in\n    tag_98:\n      0x20\n      mload(0x40)\n      dup1\n      dup4\n      sub\n      dup2\n      dup7\n      dup1\n      extcodesize\n      iszero\n      dup1\n      iszero\n      tag_99\n      jumpi\n      0x00\n      dup1\n      revert\n    tag_99:\n      pop\n      gas\n      staticcall\n      iszero\n      dup1\n      iszero\n      tag_101\n      jumpi\n      returndatasize\n      0x00\n      dup1\n      returndatacopy\n      revert(0x00, returndatasize)\n    tag_101:\n      pop\n      pop\n      pop\n      pop\n      mload(0x40)\n      returndatasize\n      not(0x1f)\n      0x1f\n      dup3\n      add\n      and\n      dup3\n      add\n      dup1\n      0x40\n      mstore\n      pop\n      dup2\n      add\n      swap1\n      tag_102\n      swap2\n      swap1\n      tag_103\n      jump\t// in\n    tag_102:\n        /* \"Bid.sol\":1295:1299  _bid */\n      dup2\n        /* \"Bid.sol\":1295:1306  _bid.seller */\n      0x00\n      add\n      0x00\n        /* \"Bid.sol\":1295:1341  _bid.seller = _bid.tokenAddr.ownerOf(_tokenId) */\n      0x0100\n      exp\n      dup2\n      sload\n      dup2\n      0xffffffffffffffffffffffffffffffffffffffff\n      mul\n      not\n      and\n      swap1\n      dup4\n      0xffffffffffffffffffffffffffffffffffffffff\n      and\n      mul\n      or\n      swap1\n      sstore\n      pop\n        /* \"Bid.sol\":1365:1370  false */\n      0x00\n        /* \"Bid.sol\":1352:1356  _bid */\n      dup2\n        /* \"Bid.sol\":1352:1362  _bid.ended */\n      0x00\n      add\n      0x15\n        /* \"Bid.sol\":1352:1370  _bid.ended = false */\n      0x0100\n      exp\n      dup2\n      sload\n      dup2\n      0xff\n      mul\n      not\n      and\n      swap1\n      dup4\n      iszero\n      iszero\n      mul\n      or\n      swap1\n      sstore\n      pop\n        /* \"Bid.sol\":1392:1396  _bid */\n      dup1\n        /* \"Bid.sol\":1392:1404  _bid.started */\n      0x00\n      add\n      0x14\n      swap1\n      sload\n      swap1\n      0x0100\n      exp\n      swap1\n      div\n      0xff\n      and\n        /* \"Bid.sol\":1391:1404  !_bid.started */\n      iszero\n        /* \"Bid.sol\":1383:1425  require(!_bid.started, \"Already started!\") */\n      tag_104\n      jumpi\n      mload(0x40)\n      0x08c379a000000000000000000000000000000000000000000000000000000000\n      dup2\n      mstore\n      0x04\n      add\n      tag_105\n      swap1\n      tag_106\n      jump\t// in\n    tag_105:\n      mload(0x40)\n      dup1\n      swap2\n      sub\n      swap1\n      revert\n    tag_104:\n        /* \"Bid.sol\":1458:1462  _bid */\n      dup1\n        /* \"Bid.sol\":1458:1469  _bid.seller */\n      0x00\n      add\n      0x00\n      swap1\n      sload\n      swap1\n      0x0100\n      exp\n      swap1\n      div\n      0xffffffffffffffffffffffffffffffffffffffff\n      and\n        /* \"Bid.sol\":1444:1469  msg.sender == _bid.seller */\n      0xffffffffffffffffffffffffffffffffffffffff\n      and\n        /* \"Bid.sol\":1444:1454  msg.sender */\n      caller\n        /* \"Bid.sol\":1444:1469  msg.sender == _bid.seller */\n      0xffffffffffffffffffffffffffffffffffffffff\n      and\n      eq\n        /* \"Bid.sol\":1436:1504  require(msg.sender == _bid.seller, \"You can not start the auction!\") */\n      tag_107\n      jumpi\n      mload(0x40)\n      0x08c379a000000000000000000000000000000000000000000000000000000000\n      dup2\n      mstore\n      0x04\n      add\n      tag_108\n      swap1\n      tag_109\n      jump\t// in\n    tag_108:\n      mload(0x40)\n      dup1\n      swap2\n      sub\n      swap1\n      revert\n    tag_107:\n        /* \"Bid.sol\":1541:1542  0 */\n      0x00\n        /* \"Bid.sol\":1525:1529  _bid */\n      dup2\n        /* \"Bid.sol\":1525:1538  _bid.bidCount */\n      0x04\n      add\n        /* \"Bid.sol\":1525:1542  _bid.bidCount = 0 */\n      dup2\n      swap1\n      sstore\n      pop\n        /* \"Bid.sol\":1586:1597  startingBid */\n      dup3\n        /* \"Bid.sol\":1553:1557  _bid */\n      dup2\n        /* \"Bid.sol\":1553:1568  _bid.highestBid */\n      0x05\n      add\n        /* \"Bid.sol\":1553:1583  _bid.highestBid[_bid.bidCount] */\n      0x00\n        /* \"Bid.sol\":1569:1573  _bid */\n      dup4\n        /* \"Bid.sol\":1569:1582  _bid.bidCount */\n      0x04\n      add\n      sload\n        /* \"Bid.sol\":1553:1583  _bid.highestBid[_bid.bidCount] */\n      dup2\n      mstore\n      0x20\n      add\n      swap1\n      dup2\n      mstore\n      0x20\n      add\n      0x00\n      keccak256\n        /* \"Bid.sol\":1553:1597  _bid.highestBid[_bid.bidCount] = startingBid */\n      dup2\n      swap1\n      sstore\n      pop\n        /* \"Bid.sol\":1608:1612  _bid */\n      dup1\n        /* \"Bid.sol\":1608:1621  _bid.bidCount */\n      0x04\n      add\n      0x00\n        /* \"Bid.sol\":1608:1623  _bid.bidCount++ */\n      dup2\n      sload\n      dup1\n      swap3\n      swap2\n      swap1\n      tag_110\n      swap1\n      tag_52\n      jump\t// in\n    tag_110:\n      swap2\n      swap1\n      pop\n      sstore\n      pop\n        /* \"Bid.sol\":1659:1667  _tokenId */\n      dup4\n        /* \"Bid.sol\":1644:1648  _bid */\n      dup2\n        /* \"Bid.sol\":1644:1656  _bid.tokenId */\n      0x03\n      add\n        /* \"Bid.sol\":1644:1667  _bid.tokenId = _tokenId */\n      dup2\n      swap1\n      sstore\n      pop\n        /* \"Bid.sol\":1678:1682  _bid */\n      dup1\n        /* \"Bid.sol\":1678:1692  _bid.tokenAddr */\n      0x02\n      add\n      0x00\n      swap1\n      sload\n      swap1\n      0x0100\n      exp\n      swap1\n      div\n      0xffffffffffffffffffffffffffffffffffffffff\n      and\n        /* \"Bid.sol\":1678:1705  _bid.tokenAddr.transferFrom */\n      0xffffffffffffffffffffffffffffffffffffffff\n      and\n      0x23b872dd\n        /* \"Bid.sol\":1706:1716  msg.sender */\n      caller\n        /* \"Bid.sol\":1726:1730  this */\n      address\n        /* \"Bid.sol\":1733:1737  _bid */\n      dup5\n        /* \"Bid.sol\":1733:1745  _bid.tokenId */\n      0x03\n      add\n      sload\n        /* \"Bid.sol\":1678:1746  _bid.tokenAddr.transferFrom(msg.sender, address(this), _bid.tokenId) */\n      mload(0x40)\n      dup5\n      0xffffffff\n      and\n      0xe0\n      shl\n      dup2\n      mstore\n      0x04\n      add\n      tag_111\n      swap4\n      swap3\n      swap2\n      swap1\n      tag_68\n      jump\t// in\n    tag_111:\n      0x00\n      mload(0x40)\n      dup1\n      dup4\n      sub\n      dup2\n      0x00\n      dup8\n      dup1\n      extcodesize\n      iszero\n      dup1\n      iszero\n      tag_112\n      jumpi\n      0x00\n      dup1\n      revert\n    tag_112:\n      pop\n      gas\n      call\n      iszero\n      dup1\n      iszero\n      tag_114\n      jumpi\n      returndatasize\n      0x00\n      dup1\n      returndatacopy\n      revert(0x00, returndatasize)\n    tag_114:\n      pop\n      pop\n      pop\n      pop\n        /* \"Bid.sol\":1774:1778  true */\n      0x01\n        /* \"Bid.sol\":1759:1763  _bid */\n      dup2\n        /* \"Bid.sol\":1759:1771  _bid.started */\n      0x00\n      add\n      0x14\n        /* \"Bid.sol\":1759:1778  _bid.started = true */\n      0x0100\n      exp\n      dup2\n      sload\n      dup2\n      0xff\n      mul\n      not\n      and\n      swap1\n      dup4\n      iszero\n      iszero\n      mul\n      or\n      swap1\n      sstore\n      pop\n        /* \"Bid.sol\":1833:1839  1 days */\n      0x015180\n        /* \"Bid.sol\":1821:1830  dayAmount */\n      dup3\n        /* \"Bid.sol\":1821:1839  dayAmount * 1 days */\n      tag_115\n      swap2\n      swap1\n      tag_116\n      jump\t// in\n    tag_115:\n        /* \"Bid.sol\":1802:1817  block.timestamp */\n      timestamp\n        /* \"Bid.sol\":1802:1840  block.timestamp + (dayAmount * 1 days) */\n      tag_117\n      swap2\n      swap1\n      tag_54\n      jump\t// in\n    tag_117:\n        /* \"Bid.sol\":1789:1793  _bid */\n      dup2\n        /* \"Bid.sol\":1789:1799  _bid.endAt */\n      0x01\n      add\n        /* \"Bid.sol\":1789:1840  _bid.endAt = block.timestamp + (dayAmount * 1 days) */\n      dup2\n      swap1\n      sstore\n      pop\n        /* \"Bid.sol\":1876:1884  _tokenId */\n      dup4\n        /* \"Bid.sol\":1864:1874  _tokenAddr */\n      dup6\n        /* \"Bid.sol\":1858:1910  Start(_tokenAddr, _tokenId, startingBid, _bid.endAt) */\n      0xffffffffffffffffffffffffffffffffffffffff\n      and\n      0x3b305515dbe345238649f5ce343c57ae67d5727443f8d744b2b793c3231e3ad9\n        /* \"Bid.sol\":1886:1897  startingBid */\n      dup6\n        /* \"Bid.sol\":1899:1903  _bid */\n      dup5\n        /* \"Bid.sol\":1899:1909  _bid.endAt */\n      0x01\n      add\n      sload\n        /* \"Bid.sol\":1858:1910  Start(_tokenAddr, _tokenId, startingBid, _bid.endAt) */\n      mload(0x40)\n      tag_118\n      swap3\n      swap2\n      swap1\n      tag_119\n      jump\t// in\n    tag_118:\n      mload(0x40)\n      dup1\n      swap2\n      sub\n      swap1\n      log3\n        /* \"Bid.sol\":1174:1918  {\r... */\n      pop\n        /* \"Bid.sol\":1081:1918  function start(address _tokenAddr, uint _tokenId, uint startingBid, uint dayAmount) external {\r... */\n      pop\n      pop\n      pop\n      pop\n      jump\t// out\n        /* \"Bid.sol\":2605:3211  function withdraw(address _tokenAddr, uint _tokenId) external payable {\r... */\n    tag_34:\n        /* \"Bid.sol\":2686:2706  Bidding storage _bid */\n      0x00\n        /* \"Bid.sol\":2709:2717  biddings */\n      dup1\n        /* \"Bid.sol\":2709:2729  biddings[_tokenAddr] */\n      0x00\n        /* \"Bid.sol\":2718:2728  _tokenAddr */\n      dup5\n        /* \"Bid.sol\":2709:2729  biddings[_tokenAddr] */\n      0xffffffffffffffffffffffffffffffffffffffff\n      and\n      0xffffffffffffffffffffffffffffffffffffffff\n      and\n      dup2\n      mstore\n      0x20\n      add\n      swap1\n      dup2\n      mstore\n      0x20\n      add\n      0x00\n      keccak256\n        /* \"Bid.sol\":2709:2739  biddings[_tokenAddr][_tokenId] */\n      0x00\n        /* \"Bid.sol\":2730:2738  _tokenId */\n      dup4\n        /* \"Bid.sol\":2709:2739  biddings[_tokenAddr][_tokenId] */\n      dup2\n      mstore\n      0x20\n      add\n      swap1\n      dup2\n      mstore\n      0x20\n      add\n      0x00\n      keccak256\n        /* \"Bid.sol\":2686:2739  Bidding storage _bid = biddings[_tokenAddr][_tokenId] */\n      swap1\n      pop\n        /* \"Bid.sol\":2750:2758  uint bal */\n      0x00\n        /* \"Bid.sol\":2761:2765  _bid */\n      dup2\n        /* \"Bid.sol\":2761:2770  _bid.bids */\n      0x07\n      add\n        /* \"Bid.sol\":2761:2782  _bid.bids[msg.sender] */\n      0x00\n        /* \"Bid.sol\":2771:2781  msg.sender */\n      caller\n        /* \"Bid.sol\":2761:2782  _bid.bids[msg.sender] */\n      0xffffffffffffffffffffffffffffffffffffffff\n      and\n      0xffffffffffffffffffffffffffffffffffffffff\n      and\n      dup2\n      mstore\n      0x20\n      add\n      swap1\n      dup2\n      mstore\n      0x20\n      add\n      0x00\n      keccak256\n      sload\n        /* \"Bid.sol\":2750:2782  uint bal = _bid.bids[msg.sender] */\n      swap1\n      pop\n        /* \"Bid.sol\":2810:2811  0 */\n      0x00\n        /* \"Bid.sol\":2803:2806  bal */\n      dup2\n        /* \"Bid.sol\":2803:2811  bal != 0 */\n      eq\n      iszero\n        /* \"Bid.sol\":2803:2830  bal != 0 && bal <= balances */\n      dup1\n      iszero\n      tag_121\n      jumpi\n      pop\n        /* \"Bid.sol\":2822:2830  balances */\n      sload(0x01)\n        /* \"Bid.sol\":2815:2818  bal */\n      dup2\n        /* \"Bid.sol\":2815:2830  bal <= balances */\n      gt\n      iszero\n        /* \"Bid.sol\":2803:2830  bal != 0 && bal <= balances */\n    tag_121:\n        /* \"Bid.sol\":2795:2853  require(bal != 0 && bal <= balances, \"Could not withdraw\") */\n      tag_122\n      jumpi\n      mload(0x40)\n      0x08c379a000000000000000000000000000000000000000000000000000000000\n      dup2\n      mstore\n      0x04\n      add\n      tag_123\n      swap1\n      tag_92\n      jump\t// in\n    tag_123:\n      mload(0x40)\n      dup1\n      swap2\n      sub\n      swap1\n      revert\n    tag_122:\n        /* \"Bid.sol\":2884:2888  _bid */\n      dup2\n        /* \"Bid.sol\":2884:2902  _bid.highestBidder */\n      0x06\n      add\n        /* \"Bid.sol\":2884:2917  _bid.highestBidder[_bid.bidCount] */\n      0x00\n        /* \"Bid.sol\":2903:2907  _bid */\n      dup4\n        /* \"Bid.sol\":2903:2916  _bid.bidCount */\n      0x04\n      add\n      sload\n        /* \"Bid.sol\":2884:2917  _bid.highestBidder[_bid.bidCount] */\n      dup2\n      mstore\n      0x20\n      add\n      swap1\n      dup2\n      mstore\n      0x20\n      add\n      0x00\n      keccak256\n      0x00\n      swap1\n      sload\n      swap1\n      0x0100\n      exp\n      swap1\n      div\n      0xffffffffffffffffffffffffffffffffffffffff\n      and\n        /* \"Bid.sol\":2870:2917  msg.sender == _bid.highestBidder[_bid.bidCount] */\n      0xffffffffffffffffffffffffffffffffffffffff\n      and\n        /* \"Bid.sol\":2870:2880  msg.sender */\n      caller\n        /* \"Bid.sol\":2870:2917  msg.sender == _bid.highestBidder[_bid.bidCount] */\n      0xffffffffffffffffffffffffffffffffffffffff\n      and\n      eq\n        /* \"Bid.sol\":2866:3051  if (msg.sender == _bid.highestBidder[_bid.bidCount]) {\r... */\n      iszero\n      tag_124\n      jumpi\n        /* \"Bid.sol\":2936:2940  _bid */\n      dup2\n        /* \"Bid.sol\":2936:2949  _bid.bidCount */\n      0x04\n      add\n      0x00\n        /* \"Bid.sol\":2934:2949  --_bid.bidCount */\n      dup2\n      sload\n      tag_125\n      swap1\n      tag_126\n      jump\t// in\n    tag_125:\n      swap2\n      swap1\n      pop\n      dup2\n      swap1\n      sstore\n      pop\n        /* \"Bid.sol\":2973:2977  _bid */\n      dup2\n        /* \"Bid.sol\":2973:2991  _bid.highestBidder */\n      0x06\n      add\n        /* \"Bid.sol\":2973:3006  _bid.highestBidder[_bid.bidCount] */\n      0x00\n        /* \"Bid.sol\":2992:2996  _bid */\n      dup4\n        /* \"Bid.sol\":2992:3005  _bid.bidCount */\n      0x04\n      add\n      sload\n        /* \"Bid.sol\":2973:3006  _bid.highestBidder[_bid.bidCount] */\n      dup2\n      mstore\n      0x20\n      add\n      swap1\n      dup2\n      mstore\n      0x20\n      add\n      0x00\n      keccak256\n      0x00\n      swap1\n      sload\n      swap1\n      0x0100\n      exp\n      swap1\n      div\n      0xffffffffffffffffffffffffffffffffffffffff\n      and\n        /* \"Bid.sol\":2969:3039  Bid(_bid.highestBidder[_bid.bidCount], _bid.highestBid[_bid.bidCount]) */\n      0xffffffffffffffffffffffffffffffffffffffff\n      and\n      0xe684a55f31b79eca403df938249029212a5925ec6be8012e099b45bc1019e5d2\n        /* \"Bid.sol\":3008:3012  _bid */\n      dup4\n        /* \"Bid.sol\":3008:3023  _bid.highestBid */\n      0x05\n      add\n        /* \"Bid.sol\":3008:3038  _bid.highestBid[_bid.bidCount] */\n      0x00\n        /* \"Bid.sol\":3024:3028  _bid */\n      dup6\n        /* \"Bid.sol\":3024:3037  _bid.bidCount */\n      0x04\n      add\n      sload\n        /* \"Bid.sol\":3008:3038  _bid.highestBid[_bid.bidCount] */\n      dup2\n      mstore\n      0x20\n      add\n      swap1\n      dup2\n      mstore\n      0x20\n      add\n      0x00\n      keccak256\n      sload\n        /* \"Bid.sol\":2969:3039  Bid(_bid.highestBidder[_bid.bidCount], _bid.highestBid[_bid.bidCount]) */\n      mload(0x40)\n      tag_127\n      swap2\n      swap1\n      tag_26\n      jump\t// in\n    tag_127:\n      mload(0x40)\n      dup1\n      swap2\n      sub\n      swap1\n      log2\n        /* \"Bid.sol\":2866:3051  if (msg.sender == _bid.highestBidder[_bid.bidCount]) {\r... */\n    tag_124:\n        /* \"Bid.sol\":3087:3088  0 */\n      0x00\n        /* \"Bid.sol\":3063:3067  _bid */\n      dup3\n        /* \"Bid.sol\":3063:3072  _bid.bids */\n      0x07\n      add\n        /* \"Bid.sol\":3063:3084  _bid.bids[msg.sender] */\n      0x00\n        /* \"Bid.sol\":3073:3083  msg.sender */\n      caller\n        /* \"Bid.sol\":3063:3084  _bid.bids[msg.sender] */\n      0xffffffffffffffffffffffffffffffffffffffff\n      and\n      0xffffffffffffffffffffffffffffffffffffffff\n      and\n      dup2\n      mstore\n      0x20\n      add\n      swap1\n      dup2\n      mstore\n      0x20\n      add\n      0x00\n      keccak256\n        /* \"Bid.sol\":3063:3088  _bid.bids[msg.sender] = 0 */\n      dup2\n      swap1\n      sstore\n      pop\n        /* \"Bid.sol\":3109:3119  msg.sender */\n      caller\n        /* \"Bid.sol\":3101:3129  payable(msg.sender).transfer */\n      0xffffffffffffffffffffffffffffffffffffffff\n      and\n        /* \"Bid.sol\":3101:3134  payable(msg.sender).transfer(bal) */\n      0x08fc\n        /* \"Bid.sol\":3130:3133  bal */\n      dup3\n        /* \"Bid.sol\":3101:3134  payable(msg.sender).transfer(bal) */\n      swap1\n      dup2\n      iszero\n      mul\n      swap1\n      mload(0x40)\n      0x00\n      mload(0x40)\n      dup1\n      dup4\n      sub\n      dup2\n      dup6\n      dup9\n      dup9\n      call\n      swap4\n      pop\n      pop\n      pop\n      pop\n      iszero\n      dup1\n      iszero\n      tag_129\n      jumpi\n      returndatasize\n      0x00\n      dup1\n      returndatacopy\n      revert(0x00, returndatasize)\n    tag_129:\n      pop\n        /* \"Bid.sol\":3157:3160  bal */\n      dup1\n        /* \"Bid.sol\":3145:3153  balances */\n      0x01\n      0x00\n        /* \"Bid.sol\":3145:3160  balances -= bal */\n      dup3\n      dup3\n      sload\n      tag_130\n      swap2\n      swap1\n      tag_75\n      jump\t// in\n    tag_130:\n      swap3\n      pop\n      pop\n      dup2\n      swap1\n      sstore\n      pop\n        /* \"Bid.sol\":3187:3197  msg.sender */\n      caller\n        /* \"Bid.sol\":3178:3203  Withdraw(msg.sender, bal) */\n      0xffffffffffffffffffffffffffffffffffffffff\n      and\n      0x884edad9ce6fa2440d8a54cc123490eb96d2768479d49ff9c7366125a9424364\n        /* \"Bid.sol\":3199:3202  bal */\n      dup3\n        /* \"Bid.sol\":3178:3203  Withdraw(msg.sender, bal) */\n      mload(0x40)\n      tag_131\n      swap2\n      swap1\n      tag_26\n      jump\t// in\n    tag_131:\n      mload(0x40)\n      dup1\n      swap2\n      sub\n      swap1\n      log2\n        /* \"Bid.sol\":2675:3211  {\r... */\n      pop\n      pop\n        /* \"Bid.sol\":2605:3211  function withdraw(address _tokenAddr, uint _tokenId) external payable {\r... */\n      pop\n      pop\n      jump\t// out\n        /* \"Bid.sol\":657:716  mapping(address =>mapping(uint => Bidding)) public biddings */\n    tag_38:\n      mstore(0x20, 0x00)\n      dup2\n      0x00\n      mstore\n      mstore(0x20, keccak256(0x00, 0x40))\n      dup1\n      0x00\n      mstore\n      keccak256(0x00, 0x40)\n      0x00\n      swap2\n      pop\n      swap2\n      pop\n      pop\n      dup1\n      0x00\n      add\n      0x00\n      swap1\n      sload\n      swap1\n      0x0100\n      exp\n      swap1\n      div\n      0xffffffffffffffffffffffffffffffffffffffff\n      and\n      swap1\n      dup1\n      0x00\n      add\n      0x14\n      swap1\n      sload\n      swap1\n      0x0100\n      exp\n      swap1\n      div\n      0xff\n      and\n      swap1\n      dup1\n      0x00\n      add\n      0x15\n      swap1\n      sload\n      swap1\n      0x0100\n      exp\n      swap1\n      div\n      0xff\n      and\n      swap1\n      dup1\n      0x01\n      add\n      sload\n      swap1\n      dup1\n      0x02\n      add\n      0x00\n      swap1\n      sload\n      swap1\n      0x0100\n      exp\n      swap1\n      div\n      0xffffffffffffffffffffffffffffffffffffffff\n      and\n      swap1\n      dup1\n      0x03\n      add\n      sload\n      swap1\n      dup1\n      0x04\n      add\n      sload\n      swap1\n      pop\n      dup8\n      jump\t// out\n        /* \"#utility.yul\":7:146   */\n    tag_133:\n        /* \"#utility.yul\":53:58   */\n      0x00\n        /* \"#utility.yul\":91:97   */\n      dup2\n        /* \"#utility.yul\":78:98   */\n      calldataload\n        /* \"#utility.yul\":69:98   */\n      swap1\n      pop\n        /* \"#utility.yul\":107:140   */\n      tag_135\n        /* \"#utility.yul\":134:139   */\n      dup2\n        /* \"#utility.yul\":107:140   */\n      tag_136\n      jump\t// in\n    tag_135:\n        /* \"#utility.yul\":7:146   */\n      swap3\n      swap2\n      pop\n      pop\n      jump\t// out\n        /* \"#utility.yul\":152:295   */\n    tag_137:\n        /* \"#utility.yul\":209:214   */\n      0x00\n        /* \"#utility.yul\":240:246   */\n      dup2\n        /* \"#utility.yul\":234:247   */\n      mload\n        /* \"#utility.yul\":225:247   */\n      swap1\n      pop\n        /* \"#utility.yul\":256:289   */\n      tag_139\n        /* \"#utility.yul\":283:288   */\n      dup2\n        /* \"#utility.yul\":256:289   */\n      tag_136\n      jump\t// in\n    tag_139:\n        /* \"#utility.yul\":152:295   */\n      swap3\n      swap2\n      pop\n      pop\n      jump\t// out\n        /* \"#utility.yul\":301:440   */\n    tag_140:\n        /* \"#utility.yul\":347:352   */\n      0x00\n        /* \"#utility.yul\":385:391   */\n      dup2\n        /* \"#utility.yul\":372:392   */\n      calldataload\n        /* \"#utility.yul\":363:392   */\n      swap1\n      pop\n        /* \"#utility.yul\":401:434   */\n      tag_142\n        /* \"#utility.yul\":428:433   */\n      dup2\n        /* \"#utility.yul\":401:434   */\n      tag_143\n      jump\t// in\n    tag_142:\n        /* \"#utility.yul\":301:440   */\n      swap3\n      swap2\n      pop\n      pop\n      jump\t// out\n        /* \"#utility.yul\":446:797   */\n    tag_103:\n        /* \"#utility.yul\":516:522   */\n      0x00\n        /* \"#utility.yul\":565:567   */\n      0x20\n        /* \"#utility.yul\":553:562   */\n      dup3\n        /* \"#utility.yul\":544:551   */\n      dup5\n        /* \"#utility.yul\":540:563   */\n      sub\n        /* \"#utility.yul\":536:568   */\n      slt\n        /* \"#utility.yul\":533:652   */\n      iszero\n      tag_145\n      jumpi\n        /* \"#utility.yul\":571:650   */\n      tag_146\n      tag_147\n      jump\t// in\n    tag_146:\n        /* \"#utility.yul\":533:652   */\n    tag_145:\n        /* \"#utility.yul\":691:692   */\n      0x00\n        /* \"#utility.yul\":716:780   */\n      tag_148\n        /* \"#utility.yul\":772:779   */\n      dup5\n        /* \"#utility.yul\":763:769   */\n      dup3\n        /* \"#utility.yul\":752:761   */\n      dup6\n        /* \"#utility.yul\":748:770   */\n      add\n        /* \"#utility.yul\":716:780   */\n      tag_137\n      jump\t// in\n    tag_148:\n        /* \"#utility.yul\":706:780   */\n      swap2\n      pop\n        /* \"#utility.yul\":662:790   */\n      pop\n        /* \"#utility.yul\":446:797   */\n      swap3\n      swap2\n      pop\n      pop\n      jump\t// out\n        /* \"#utility.yul\":803:1277   */\n    tag_12:\n        /* \"#utility.yul\":871:877   */\n      0x00\n        /* \"#utility.yul\":879:885   */\n      dup1\n        /* \"#utility.yul\":928:930   */\n      0x40\n        /* \"#utility.yul\":916:925   */\n      dup4\n        /* \"#utility.yul\":907:914   */\n      dup6\n        /* \"#utility.yul\":903:926   */\n      sub\n        /* \"#utility.yul\":899:931   */\n      slt\n        /* \"#utility.yul\":896:1015   */\n      iszero\n      tag_150\n      jumpi\n        /* \"#utility.yul\":934:1013   */\n      tag_151\n      tag_147\n      jump\t// in\n    tag_151:\n        /* \"#utility.yul\":896:1015   */\n    tag_150:\n        /* \"#utility.yul\":1054:1055   */\n      0x00\n        /* \"#utility.yul\":1079:1132   */\n      tag_152\n        /* \"#utility.yul\":1124:1131   */\n      dup6\n        /* \"#utility.yul\":1115:1121   */\n      dup3\n        /* \"#utility.yul\":1104:1113   */\n      dup7\n        /* \"#utility.yul\":1100:1122   */\n      add\n        /* \"#utility.yul\":1079:1132   */\n      tag_133\n      jump\t// in\n    tag_152:\n        /* \"#utility.yul\":1069:1132   */\n      swap3\n      pop\n        /* \"#utility.yul\":1025:1142   */\n      pop\n        /* \"#utility.yul\":1181:1183   */\n      0x20\n        /* \"#utility.yul\":1207:1260   */\n      tag_153\n        /* \"#utility.yul\":1252:1259   */\n      dup6\n        /* \"#utility.yul\":1243:1249   */\n      dup3\n        /* \"#utility.yul\":1232:1241   */\n      dup7\n        /* \"#utility.yul\":1228:1250   */\n      add\n        /* \"#utility.yul\":1207:1260   */\n      tag_140\n      jump\t// in\n    tag_153:\n        /* \"#utility.yul\":1197:1260   */\n      swap2\n      pop\n        /* \"#utility.yul\":1152:1270   */\n      pop\n        /* \"#utility.yul\":803:1277   */\n      swap3\n      pop\n      swap3\n      swap1\n      pop\n      jump\t// out\n        /* \"#utility.yul\":1283:1902   */\n    tag_20:\n        /* \"#utility.yul\":1360:1366   */\n      0x00\n        /* \"#utility.yul\":1368:1374   */\n      dup1\n        /* \"#utility.yul\":1376:1382   */\n      0x00\n        /* \"#utility.yul\":1425:1427   */\n      0x60\n        /* \"#utility.yul\":1413:1422   */\n      dup5\n        /* \"#utility.yul\":1404:1411   */\n      dup7\n        /* \"#utility.yul\":1400:1423   */\n      sub\n        /* \"#utility.yul\":1396:1428   */\n      slt\n        /* \"#utility.yul\":1393:1512   */\n      iszero\n      tag_155\n      jumpi\n        /* \"#utility.yul\":1431:1510   */\n      tag_156\n      tag_147\n      jump\t// in\n    tag_156:\n        /* \"#utility.yul\":1393:1512   */\n    tag_155:\n        /* \"#utility.yul\":1551:1552   */\n      0x00\n        /* \"#utility.yul\":1576:1629   */\n      tag_157\n        /* \"#utility.yul\":1621:1628   */\n      dup7\n        /* \"#utility.yul\":1612:1618   */\n      dup3\n        /* \"#utility.yul\":1601:1610   */\n      dup8\n        /* \"#utility.yul\":1597:1619   */\n      add\n        /* \"#utility.yul\":1576:1629   */\n      tag_133\n      jump\t// in\n    tag_157:\n        /* \"#utility.yul\":1566:1629   */\n      swap4\n      pop\n        /* \"#utility.yul\":1522:1639   */\n      pop\n        /* \"#utility.yul\":1678:1680   */\n      0x20\n        /* \"#utility.yul\":1704:1757   */\n      tag_158\n        /* \"#utility.yul\":1749:1756   */\n      dup7\n        /* \"#utility.yul\":1740:1746   */\n      dup3\n        /* \"#utility.yul\":1729:1738   */\n      dup8\n        /* \"#utility.yul\":1725:1747   */\n      add\n        /* \"#utility.yul\":1704:1757   */\n      tag_140\n      jump\t// in\n    tag_158:\n        /* \"#utility.yul\":1694:1757   */\n      swap3\n      pop\n        /* \"#utility.yul\":1649:1767   */\n      pop\n        /* \"#utility.yul\":1806:1808   */\n      0x40\n        /* \"#utility.yul\":1832:1885   */\n      tag_159\n        /* \"#utility.yul\":1877:1884   */\n      dup7\n        /* \"#utility.yul\":1868:1874   */\n      dup3\n        /* \"#utility.yul\":1857:1866   */\n      dup8\n        /* \"#utility.yul\":1853:1875   */\n      add\n        /* \"#utility.yul\":1832:1885   */\n      tag_133\n      jump\t// in\n    tag_159:\n        /* \"#utility.yul\":1822:1885   */\n      swap2\n      pop\n        /* \"#utility.yul\":1777:1895   */\n      pop\n        /* \"#utility.yul\":1283:1902   */\n      swap3\n      pop\n      swap3\n      pop\n      swap3\n      jump\t// out\n        /* \"#utility.yul\":1908:2673   */\n    tag_30:\n        /* \"#utility.yul\":1994:2000   */\n      0x00\n        /* \"#utility.yul\":2002:2008   */\n      dup1\n        /* \"#utility.yul\":2010:2016   */\n      0x00\n        /* \"#utility.yul\":2018:2024   */\n      dup1\n        /* \"#utility.yul\":2067:2070   */\n      0x80\n        /* \"#utility.yul\":2055:2064   */\n      dup6\n        /* \"#utility.yul\":2046:2053   */\n      dup8\n        /* \"#utility.yul\":2042:2065   */\n      sub\n        /* \"#utility.yul\":2038:2071   */\n      slt\n        /* \"#utility.yul\":2035:2155   */\n      iszero\n      tag_161\n      jumpi\n        /* \"#utility.yul\":2074:2153   */\n      tag_162\n      tag_147\n      jump\t// in\n    tag_162:\n        /* \"#utility.yul\":2035:2155   */\n    tag_161:\n        /* \"#utility.yul\":2194:2195   */\n      0x00\n        /* \"#utility.yul\":2219:2272   */\n      tag_163\n        /* \"#utility.yul\":2264:2271   */\n      dup8\n        /* \"#utility.yul\":2255:2261   */\n      dup3\n        /* \"#utility.yul\":2244:2253   */\n      dup9\n        /* \"#utility.yul\":2240:2262   */\n      add\n        /* \"#utility.yul\":2219:2272   */\n      tag_133\n      jump\t// in\n    tag_163:\n        /* \"#utility.yul\":2209:2272   */\n      swap5\n      pop\n        /* \"#utility.yul\":2165:2282   */\n      pop\n        /* \"#utility.yul\":2321:2323   */\n      0x20\n        /* \"#utility.yul\":2347:2400   */\n      tag_164\n        /* \"#utility.yul\":2392:2399   */\n      dup8\n        /* \"#utility.yul\":2383:2389   */\n      dup3\n        /* \"#utility.yul\":2372:2381   */\n      dup9\n        /* \"#utility.yul\":2368:2390   */\n      add\n        /* \"#utility.yul\":2347:2400   */\n      tag_140\n      jump\t// in\n    tag_164:\n        /* \"#utility.yul\":2337:2400   */\n      swap4\n      pop\n        /* \"#utility.yul\":2292:2410   */\n      pop\n        /* \"#utility.yul\":2449:2451   */\n      0x40\n        /* \"#utility.yul\":2475:2528   */\n      tag_165\n        /* \"#utility.yul\":2520:2527   */\n      dup8\n        /* \"#utility.yul\":2511:2517   */\n      dup3\n        /* \"#utility.yul\":2500:2509   */\n      dup9\n        /* \"#utility.yul\":2496:2518   */\n      add\n        /* \"#utility.yul\":2475:2528   */\n      tag_140\n      jump\t// in\n    tag_165:\n        /* \"#utility.yul\":2465:2528   */\n      swap3\n      pop\n        /* \"#utility.yul\":2420:2538   */\n      pop\n        /* \"#utility.yul\":2577:2579   */\n      0x60\n        /* \"#utility.yul\":2603:2656   */\n      tag_166\n        /* \"#utility.yul\":2648:2655   */\n      dup8\n        /* \"#utility.yul\":2639:2645   */\n      dup3\n        /* \"#utility.yul\":2628:2637   */\n      dup9\n        /* \"#utility.yul\":2624:2646   */\n      add\n        /* \"#utility.yul\":2603:2656   */\n      tag_140\n      jump\t// in\n    tag_166:\n        /* \"#utility.yul\":2593:2656   */\n      swap2\n      pop\n        /* \"#utility.yul\":2548:2666   */\n      pop\n        /* \"#utility.yul\":1908:2673   */\n      swap3\n      swap6\n      swap2\n      swap5\n      pop\n      swap3\n      pop\n      jump\t// out\n        /* \"#utility.yul\":2679:2797   */\n    tag_167:\n        /* \"#utility.yul\":2766:2790   */\n      tag_169\n        /* \"#utility.yul\":2784:2789   */\n      dup2\n        /* \"#utility.yul\":2766:2790   */\n      tag_170\n      jump\t// in\n    tag_169:\n        /* \"#utility.yul\":2761:2764   */\n      dup3\n        /* \"#utility.yul\":2754:2791   */\n      mstore\n        /* \"#utility.yul\":2679:2797   */\n      pop\n      pop\n      jump\t// out\n        /* \"#utility.yul\":2803:2912   */\n    tag_171:\n        /* \"#utility.yul\":2884:2905   */\n      tag_173\n        /* \"#utility.yul\":2899:2904   */\n      dup2\n        /* \"#utility.yul\":2884:2905   */\n      tag_174\n      jump\t// in\n    tag_173:\n        /* \"#utility.yul\":2879:2882   */\n      dup3\n        /* \"#utility.yul\":2872:2906   */\n      mstore\n        /* \"#utility.yul\":2803:2912   */\n      pop\n      pop\n      jump\t// out\n        /* \"#utility.yul\":2918:3075   */\n    tag_175:\n        /* \"#utility.yul\":3018:3068   */\n      tag_177\n        /* \"#utility.yul\":3062:3067   */\n      dup2\n        /* \"#utility.yul\":3018:3068   */\n      tag_178\n      jump\t// in\n    tag_177:\n        /* \"#utility.yul\":3013:3016   */\n      dup3\n        /* \"#utility.yul\":3006:3069   */\n      mstore\n        /* \"#utility.yul\":2918:3075   */\n      pop\n      pop\n      jump\t// out\n        /* \"#utility.yul\":3081:3447   */\n    tag_179:\n        /* \"#utility.yul\":3223:3226   */\n      0x00\n        /* \"#utility.yul\":3244:3311   */\n      tag_181\n        /* \"#utility.yul\":3308:3310   */\n      0x0a\n        /* \"#utility.yul\":3303:3306   */\n      dup4\n        /* \"#utility.yul\":3244:3311   */\n      tag_182\n      jump\t// in\n    tag_181:\n        /* \"#utility.yul\":3237:3311   */\n      swap2\n      pop\n        /* \"#utility.yul\":3320:3413   */\n      tag_183\n        /* \"#utility.yul\":3409:3412   */\n      dup3\n        /* \"#utility.yul\":3320:3413   */\n      tag_184\n      jump\t// in\n    tag_183:\n        /* \"#utility.yul\":3438:3440   */\n      0x20\n        /* \"#utility.yul\":3433:3436   */\n      dup3\n        /* \"#utility.yul\":3429:3441   */\n      add\n        /* \"#utility.yul\":3422:3441   */\n      swap1\n      pop\n        /* \"#utility.yul\":3081:3447   */\n      swap2\n      swap1\n      pop\n      jump\t// out\n        /* \"#utility.yul\":3453:3819   */\n    tag_185:\n        /* \"#utility.yul\":3595:3598   */\n      0x00\n        /* \"#utility.yul\":3616:3683   */\n      tag_187\n        /* \"#utility.yul\":3680:3682   */\n      0x19\n        /* \"#utility.yul\":3675:3678   */\n      dup4\n        /* \"#utility.yul\":3616:3683   */\n      tag_182\n      jump\t// in\n    tag_187:\n        /* \"#utility.yul\":3609:3683   */\n      swap2\n      pop\n        /* \"#utility.yul\":3692:3785   */\n      tag_188\n        /* \"#utility.yul\":3781:3784   */\n      dup3\n        /* \"#utility.yul\":3692:3785   */\n      tag_189\n      jump\t// in\n    tag_188:\n        /* \"#utility.yul\":3810:3812   */\n      0x20\n        /* \"#utility.yul\":3805:3808   */\n      dup3\n        /* \"#utility.yul\":3801:3813   */\n      add\n        /* \"#utility.yul\":3794:3813   */\n      swap1\n      pop\n        /* \"#utility.yul\":3453:3819   */\n      swap2\n      swap1\n      pop\n      jump\t// out\n        /* \"#utility.yul\":3825:4191   */\n    tag_190:\n        /* \"#utility.yul\":3967:3970   */\n      0x00\n        /* \"#utility.yul\":3988:4055   */\n      tag_192\n        /* \"#utility.yul\":4052:4054   */\n      0x10\n        /* \"#utility.yul\":4047:4050   */\n      dup4\n        /* \"#utility.yul\":3988:4055   */\n      tag_182\n      jump\t// in\n    tag_192:\n        /* \"#utility.yul\":3981:4055   */\n      swap2\n      pop\n        /* \"#utility.yul\":4064:4157   */\n      tag_193\n        /* \"#utility.yul\":4153:4156   */\n      dup3\n        /* \"#utility.yul\":4064:4157   */\n      tag_194\n      jump\t// in\n    tag_193:\n        /* \"#utility.yul\":4182:4184   */\n      0x20\n        /* \"#utility.yul\":4177:4180   */\n      dup3\n        /* \"#utility.yul\":4173:4185   */\n      add\n        /* \"#utility.yul\":4166:4185   */\n      swap1\n      pop\n        /* \"#utility.yul\":3825:4191   */\n      swap2\n      swap1\n      pop\n      jump\t// out\n        /* \"#utility.yul\":4197:4562   */\n    tag_195:\n        /* \"#utility.yul\":4339:4342   */\n      0x00\n        /* \"#utility.yul\":4360:4426   */\n      tag_197\n        /* \"#utility.yul\":4424:4425   */\n      0x06\n        /* \"#utility.yul\":4419:4422   */\n      dup4\n        /* \"#utility.yul\":4360:4426   */\n      tag_182\n      jump\t// in\n    tag_197:\n        /* \"#utility.yul\":4353:4426   */\n      swap2\n      pop\n        /* \"#utility.yul\":4435:4528   */\n      tag_198\n        /* \"#utility.yul\":4524:4527   */\n      dup3\n        /* \"#utility.yul\":4435:4528   */\n      tag_199\n      jump\t// in\n    tag_198:\n        /* \"#utility.yul\":4553:4555   */\n      0x20\n        /* \"#utility.yul\":4548:4551   */\n      dup3\n        /* \"#utility.yul\":4544:4556   */\n      add\n        /* \"#utility.yul\":4537:4556   */\n      swap1\n      pop\n        /* \"#utility.yul\":4197:4562   */\n      swap2\n      swap1\n      pop\n      jump\t// out\n        /* \"#utility.yul\":4568:4934   */\n    tag_200:\n        /* \"#utility.yul\":4710:4713   */\n      0x00\n        /* \"#utility.yul\":4731:4798   */\n      tag_202\n        /* \"#utility.yul\":4795:4797   */\n      0x18\n        /* \"#utility.yul\":4790:4793   */\n      dup4\n        /* \"#utility.yul\":4731:4798   */\n      tag_182\n      jump\t// in\n    tag_202:\n        /* \"#utility.yul\":4724:4798   */\n      swap2\n      pop\n        /* \"#utility.yul\":4807:4900   */\n      tag_203\n        /* \"#utility.yul\":4896:4899   */\n      dup3\n        /* \"#utility.yul\":4807:4900   */\n      tag_204\n      jump\t// in\n    tag_203:\n        /* \"#utility.yul\":4925:4927   */\n      0x20\n        /* \"#utility.yul\":4920:4923   */\n      dup3\n        /* \"#utility.yul\":4916:4928   */\n      add\n        /* \"#utility.yul\":4909:4928   */\n      swap1\n      pop\n        /* \"#utility.yul\":4568:4934   */\n      swap2\n      swap1\n      pop\n      jump\t// out\n        /* \"#utility.yul\":4940:5306   */\n    tag_205:\n        /* \"#utility.yul\":5082:5085   */\n      0x00\n        /* \"#utility.yul\":5103:5170   */\n      tag_207\n        /* \"#utility.yul\":5167:5169   */\n      0x1e\n        /* \"#utility.yul\":5162:5165   */\n      dup4\n        /* \"#utility.yul\":5103:5170   */\n      tag_182\n      jump\t// in\n    tag_207:\n        /* \"#utility.yul\":5096:5170   */\n      swap2\n      pop\n        /* \"#utility.yul\":5179:5272   */\n      tag_208\n        /* \"#utility.yul\":5268:5271   */\n      dup3\n        /* \"#utility.yul\":5179:5272   */\n      tag_209\n      jump\t// in\n    tag_208:\n        /* \"#utility.yul\":5297:5299   */\n      0x20\n        /* \"#utility.yul\":5292:5295   */\n      dup3\n        /* \"#utility.yul\":5288:5300   */\n      add\n        /* \"#utility.yul\":5281:5300   */\n      swap1\n      pop\n        /* \"#utility.yul\":4940:5306   */\n      swap2\n      swap1\n      pop\n      jump\t// out\n        /* \"#utility.yul\":5312:5678   */\n    tag_210:\n        /* \"#utility.yul\":5454:5457   */\n      0x00\n        /* \"#utility.yul\":5475:5542   */\n      tag_212\n        /* \"#utility.yul\":5539:5541   */\n      0x0c\n        /* \"#utility.yul\":5534:5537   */\n      dup4\n        /* \"#utility.yul\":5475:5542   */\n      tag_182\n      jump\t// in\n    tag_212:\n        /* \"#utility.yul\":5468:5542   */\n      swap2\n      pop\n        /* \"#utility.yul\":5551:5644   */\n      tag_213\n        /* \"#utility.yul\":5640:5643   */\n      dup3\n        /* \"#utility.yul\":5551:5644   */\n      tag_214\n      jump\t// in\n    tag_213:\n        /* \"#utility.yul\":5669:5671   */\n      0x20\n        /* \"#utility.yul\":5664:5667   */\n      dup3\n        /* \"#utility.yul\":5660:5672   */\n      add\n        /* \"#utility.yul\":5653:5672   */\n      swap1\n      pop\n        /* \"#utility.yul\":5312:5678   */\n      swap2\n      swap1\n      pop\n      jump\t// out\n        /* \"#utility.yul\":5684:6050   */\n    tag_215:\n        /* \"#utility.yul\":5826:5829   */\n      0x00\n        /* \"#utility.yul\":5847:5914   */\n      tag_217\n        /* \"#utility.yul\":5911:5913   */\n      0x16\n        /* \"#utility.yul\":5906:5909   */\n      dup4\n        /* \"#utility.yul\":5847:5914   */\n      tag_182\n      jump\t// in\n    tag_217:\n        /* \"#utility.yul\":5840:5914   */\n      swap2\n      pop\n        /* \"#utility.yul\":5923:6016   */\n      tag_218\n        /* \"#utility.yul\":6012:6015   */\n      dup3\n        /* \"#utility.yul\":5923:6016   */\n      tag_219\n      jump\t// in\n    tag_218:\n        /* \"#utility.yul\":6041:6043   */\n      0x20\n        /* \"#utility.yul\":6036:6039   */\n      dup3\n        /* \"#utility.yul\":6032:6044   */\n      add\n        /* \"#utility.yul\":6025:6044   */\n      swap1\n      pop\n        /* \"#utility.yul\":5684:6050   */\n      swap2\n      swap1\n      pop\n      jump\t// out\n        /* \"#utility.yul\":6056:6422   */\n    tag_220:\n        /* \"#utility.yul\":6198:6201   */\n      0x00\n        /* \"#utility.yul\":6219:6286   */\n      tag_222\n        /* \"#utility.yul\":6283:6285   */\n      0x12\n        /* \"#utility.yul\":6278:6281   */\n      dup4\n        /* \"#utility.yul\":6219:6286   */\n      tag_182\n      jump\t// in\n    tag_222:\n        /* \"#utility.yul\":6212:6286   */\n      swap2\n      pop\n        /* \"#utility.yul\":6295:6388   */\n      tag_223\n        /* \"#utility.yul\":6384:6387   */\n      dup3\n        /* \"#utility.yul\":6295:6388   */\n      tag_224\n      jump\t// in\n    tag_223:\n        /* \"#utility.yul\":6413:6415   */\n      0x20\n        /* \"#utility.yul\":6408:6411   */\n      dup3\n        /* \"#utility.yul\":6404:6416   */\n      add\n        /* \"#utility.yul\":6397:6416   */\n      swap1\n      pop\n        /* \"#utility.yul\":6056:6422   */\n      swap2\n      swap1\n      pop\n      jump\t// out\n        /* \"#utility.yul\":6428:6546   */\n    tag_225:\n        /* \"#utility.yul\":6515:6539   */\n      tag_227\n        /* \"#utility.yul\":6533:6538   */\n      dup2\n        /* \"#utility.yul\":6515:6539   */\n      tag_228\n      jump\t// in\n    tag_227:\n        /* \"#utility.yul\":6510:6513   */\n      dup3\n        /* \"#utility.yul\":6503:6540   */\n      mstore\n        /* \"#utility.yul\":6428:6546   */\n      pop\n      pop\n      jump\t// out\n        /* \"#utility.yul\":6552:6994   */\n    tag_68:\n        /* \"#utility.yul\":6701:6705   */\n      0x00\n        /* \"#utility.yul\":6739:6741   */\n      0x60\n        /* \"#utility.yul\":6728:6737   */\n      dup3\n        /* \"#utility.yul\":6724:6742   */\n      add\n        /* \"#utility.yul\":6716:6742   */\n      swap1\n      pop\n        /* \"#utility.yul\":6752:6823   */\n      tag_230\n        /* \"#utility.yul\":6820:6821   */\n      0x00\n        /* \"#utility.yul\":6809:6818   */\n      dup4\n        /* \"#utility.yul\":6805:6822   */\n      add\n        /* \"#utility.yul\":6796:6802   */\n      dup7\n        /* \"#utility.yul\":6752:6823   */\n      tag_167\n      jump\t// in\n    tag_230:\n        /* \"#utility.yul\":6833:6905   */\n      tag_231\n        /* \"#utility.yul\":6901:6903   */\n      0x20\n        /* \"#utility.yul\":6890:6899   */\n      dup4\n        /* \"#utility.yul\":6886:6904   */\n      add\n        /* \"#utility.yul\":6877:6883   */\n      dup6\n        /* \"#utility.yul\":6833:6905   */\n      tag_167\n      jump\t// in\n    tag_231:\n        /* \"#utility.yul\":6915:6987   */\n      tag_232\n        /* \"#utility.yul\":6983:6985   */\n      0x40\n        /* \"#utility.yul\":6972:6981   */\n      dup4\n        /* \"#utility.yul\":6968:6986   */\n      add\n        /* \"#utility.yul\":6959:6965   */\n      dup5\n        /* \"#utility.yul\":6915:6987   */\n      tag_225\n      jump\t// in\n    tag_232:\n        /* \"#utility.yul\":6552:6994   */\n      swap5\n      swap4\n      pop\n      pop\n      pop\n      pop\n      jump\t// out\n        /* \"#utility.yul\":7000:7888   */\n    tag_40:\n        /* \"#utility.yul\":7262:7266   */\n      0x00\n        /* \"#utility.yul\":7300:7303   */\n      0xe0\n        /* \"#utility.yul\":7289:7298   */\n      dup3\n        /* \"#utility.yul\":7285:7304   */\n      add\n        /* \"#utility.yul\":7277:7304   */\n      swap1\n      pop\n        /* \"#utility.yul\":7314:7385   */\n      tag_234\n        /* \"#utility.yul\":7382:7383   */\n      0x00\n        /* \"#utility.yul\":7371:7380   */\n      dup4\n        /* \"#utility.yul\":7367:7384   */\n      add\n        /* \"#utility.yul\":7358:7364   */\n      dup11\n        /* \"#utility.yul\":7314:7385   */\n      tag_167\n      jump\t// in\n    tag_234:\n        /* \"#utility.yul\":7395:7461   */\n      tag_235\n        /* \"#utility.yul\":7457:7459   */\n      0x20\n        /* \"#utility.yul\":7446:7455   */\n      dup4\n        /* \"#utility.yul\":7442:7460   */\n      add\n        /* \"#utility.yul\":7433:7439   */\n      dup10\n        /* \"#utility.yul\":7395:7461   */\n      tag_171\n      jump\t// in\n    tag_235:\n        /* \"#utility.yul\":7471:7537   */\n      tag_236\n        /* \"#utility.yul\":7533:7535   */\n      0x40\n        /* \"#utility.yul\":7522:7531   */\n      dup4\n        /* \"#utility.yul\":7518:7536   */\n      add\n        /* \"#utility.yul\":7509:7515   */\n      dup9\n        /* \"#utility.yul\":7471:7537   */\n      tag_171\n      jump\t// in\n    tag_236:\n        /* \"#utility.yul\":7547:7619   */\n      tag_237\n        /* \"#utility.yul\":7615:7617   */\n      0x60\n        /* \"#utility.yul\":7604:7613   */\n      dup4\n        /* \"#utility.yul\":7600:7618   */\n      add\n        /* \"#utility.yul\":7591:7597   */\n      dup8\n        /* \"#utility.yul\":7547:7619   */\n      tag_225\n      jump\t// in\n    tag_237:\n        /* \"#utility.yul\":7629:7715   */\n      tag_238\n        /* \"#utility.yul\":7710:7713   */\n      0x80\n        /* \"#utility.yul\":7699:7708   */\n      dup4\n        /* \"#utility.yul\":7695:7714   */\n      add\n        /* \"#utility.yul\":7686:7692   */\n      dup7\n        /* \"#utility.yul\":7629:7715   */\n      tag_175\n      jump\t// in\n    tag_238:\n        /* \"#utility.yul\":7725:7798   */\n      tag_239\n        /* \"#utility.yul\":7793:7796   */\n      0xa0\n        /* \"#utility.yul\":7782:7791   */\n      dup4\n        /* \"#utility.yul\":7778:7797   */\n      add\n        /* \"#utility.yul\":7769:7775   */\n      dup6\n        /* \"#utility.yul\":7725:7798   */\n      tag_225\n      jump\t// in\n    tag_239:\n        /* \"#utility.yul\":7808:7881   */\n      tag_240\n        /* \"#utility.yul\":7876:7879   */\n      0xc0\n        /* \"#utility.yul\":7865:7874   */\n      dup4\n        /* \"#utility.yul\":7861:7880   */\n      add\n        /* \"#utility.yul\":7852:7858   */\n      dup5\n        /* \"#utility.yul\":7808:7881   */\n      tag_225\n      jump\t// in\n    tag_240:\n        /* \"#utility.yul\":7000:7888   */\n      swap9\n      swap8\n      pop\n      pop\n      pop\n      pop\n      pop\n      pop\n      pop\n      pop\n      jump\t// out\n        /* \"#utility.yul\":7894:8226   */\n    tag_87:\n        /* \"#utility.yul\":8015:8019   */\n      0x00\n        /* \"#utility.yul\":8053:8055   */\n      0x40\n        /* \"#utility.yul\":8042:8051   */\n      dup3\n        /* \"#utility.yul\":8038:8056   */\n      add\n        /* \"#utility.yul\":8030:8056   */\n      swap1\n      pop\n        /* \"#utility.yul\":8066:8137   */\n      tag_242\n        /* \"#utility.yul\":8134:8135   */\n      0x00\n        /* \"#utility.yul\":8123:8132   */\n      dup4\n        /* \"#utility.yul\":8119:8136   */\n      add\n        /* \"#utility.yul\":8110:8116   */\n      dup6\n        /* \"#utility.yul\":8066:8137   */\n      tag_167\n      jump\t// in\n    tag_242:\n        /* \"#utility.yul\":8147:8219   */\n      tag_243\n        /* \"#utility.yul\":8215:8217   */\n      0x20\n        /* \"#utility.yul\":8204:8213   */\n      dup4\n        /* \"#utility.yul\":8200:8218   */\n      add\n        /* \"#utility.yul\":8191:8197   */\n      dup5\n        /* \"#utility.yul\":8147:8219   */\n      tag_225\n      jump\t// in\n    tag_243:\n        /* \"#utility.yul\":7894:8226   */\n      swap4\n      swap3\n      pop\n      pop\n      pop\n      jump\t// out\n        /* \"#utility.yul\":8232:8651   */\n    tag_50:\n        /* \"#utility.yul\":8398:8402   */\n      0x00\n        /* \"#utility.yul\":8436:8438   */\n      0x20\n        /* \"#utility.yul\":8425:8434   */\n      dup3\n        /* \"#utility.yul\":8421:8439   */\n      add\n        /* \"#utility.yul\":8413:8439   */\n      swap1\n      pop\n        /* \"#utility.yul\":8485:8494   */\n      dup2\n        /* \"#utility.yul\":8479:8483   */\n      dup2\n        /* \"#utility.yul\":8475:8495   */\n      sub\n        /* \"#utility.yul\":8471:8472   */\n      0x00\n        /* \"#utility.yul\":8460:8469   */\n      dup4\n        /* \"#utility.yul\":8456:8473   */\n      add\n        /* \"#utility.yul\":8449:8496   */\n      mstore\n        /* \"#utility.yul\":8513:8644   */\n      tag_245\n        /* \"#utility.yul\":8639:8643   */\n      dup2\n        /* \"#utility.yul\":8513:8644   */\n      tag_179\n      jump\t// in\n    tag_245:\n        /* \"#utility.yul\":8505:8644   */\n      swap1\n      pop\n        /* \"#utility.yul\":8232:8651   */\n      swap2\n      swap1\n      pop\n      jump\t// out\n        /* \"#utility.yul\":8657:9076   */\n    tag_62:\n        /* \"#utility.yul\":8823:8827   */\n      0x00\n        /* \"#utility.yul\":8861:8863   */\n      0x20\n        /* \"#utility.yul\":8850:8859   */\n      dup3\n        /* \"#utility.yul\":8846:8864   */\n      add\n        /* \"#utility.yul\":8838:8864   */\n      swap1\n      pop\n        /* \"#utility.yul\":8910:8919   */\n      dup2\n        /* \"#utility.yul\":8904:8908   */\n      dup2\n        /* \"#utility.yul\":8900:8920   */\n      sub\n        /* \"#utility.yul\":8896:8897   */\n      0x00\n        /* \"#utility.yul\":8885:8894   */\n      dup4\n        /* \"#utility.yul\":8881:8898   */\n      add\n        /* \"#utility.yul\":8874:8921   */\n      mstore\n        /* \"#utility.yul\":8938:9069   */\n      tag_247\n        /* \"#utility.yul\":9064:9068   */\n      dup2\n        /* \"#utility.yul\":8938:9069   */\n      tag_185\n      jump\t// in\n    tag_247:\n        /* \"#utility.yul\":8930:9069   */\n      swap1\n      pop\n        /* \"#utility.yul\":8657:9076   */\n      swap2\n      swap1\n      pop\n      jump\t// out\n        /* \"#utility.yul\":9082:9501   */\n    tag_106:\n        /* \"#utility.yul\":9248:9252   */\n      0x00\n        /* \"#utility.yul\":9286:9288   */\n      0x20\n        /* \"#utility.yul\":9275:9284   */\n      dup3\n        /* \"#utility.yul\":9271:9289   */\n      add\n        /* \"#utility.yul\":9263:9289   */\n      swap1\n      pop\n        /* \"#utility.yul\":9335:9344   */\n      dup2\n        /* \"#utility.yul\":9329:9333   */\n      dup2\n        /* \"#utility.yul\":9325:9345   */\n      sub\n        /* \"#utility.yul\":9321:9322   */\n      0x00\n        /* \"#utility.yul\":9310:9319   */\n      dup4\n        /* \"#utility.yul\":9306:9323   */\n      add\n        /* \"#utility.yul\":9299:9346   */\n      mstore\n        /* \"#utility.yul\":9363:9494   */\n      tag_249\n        /* \"#utility.yul\":9489:9493   */\n      dup2\n        /* \"#utility.yul\":9363:9494   */\n      tag_190\n      jump\t// in\n    tag_249:\n        /* \"#utility.yul\":9355:9494   */\n      swap1\n      pop\n        /* \"#utility.yul\":9082:9501   */\n      swap2\n      swap1\n      pop\n      jump\t// out\n        /* \"#utility.yul\":9507:9926   */\n    tag_47:\n        /* \"#utility.yul\":9673:9677   */\n      0x00\n        /* \"#utility.yul\":9711:9713   */\n      0x20\n        /* \"#utility.yul\":9700:9709   */\n      dup3\n        /* \"#utility.yul\":9696:9714   */\n      add\n        /* \"#utility.yul\":9688:9714   */\n      swap1\n      pop\n        /* \"#utility.yul\":9760:9769   */\n      dup2\n        /* \"#utility.yul\":9754:9758   */\n      dup2\n        /* \"#utility.yul\":9750:9770   */\n      sub\n        /* \"#utility.yul\":9746:9747   */\n      0x00\n        /* \"#utility.yul\":9735:9744   */\n      dup4\n        /* \"#utility.yul\":9731:9748   */\n      add\n        /* \"#utility.yul\":9724:9771   */\n      mstore\n        /* \"#utility.yul\":9788:9919   */\n      tag_251\n        /* \"#utility.yul\":9914:9918   */\n      dup2\n        /* \"#utility.yul\":9788:9919   */\n      tag_195\n      jump\t// in\n    tag_251:\n        /* \"#utility.yul\":9780:9919   */\n      swap1\n      pop\n        /* \"#utility.yul\":9507:9926   */\n      swap2\n      swap1\n      pop\n      jump\t// out\n        /* \"#utility.yul\":9932:10351   */\n    tag_59:\n        /* \"#utility.yul\":10098:10102   */\n      0x00\n        /* \"#utility.yul\":10136:10138   */\n      0x20\n        /* \"#utility.yul\":10125:10134   */\n      dup3\n        /* \"#utility.yul\":10121:10139   */\n      add\n        /* \"#utility.yul\":10113:10139   */\n      swap1\n      pop\n        /* \"#utility.yul\":10185:10194   */\n      dup2\n        /* \"#utility.yul\":10179:10183   */\n      dup2\n        /* \"#utility.yul\":10175:10195   */\n      sub\n        /* \"#utility.yul\":10171:10172   */\n      0x00\n        /* \"#utility.yul\":10160:10169   */\n      dup4\n        /* \"#utility.yul\":10156:10173   */\n      add\n        /* \"#utility.yul\":10149:10196   */\n      mstore\n        /* \"#utility.yul\":10213:10344   */\n      tag_253\n        /* \"#utility.yul\":10339:10343   */\n      dup2\n        /* \"#utility.yul\":10213:10344   */\n      tag_200\n      jump\t// in\n    tag_253:\n        /* \"#utility.yul\":10205:10344   */\n      swap1\n      pop\n        /* \"#utility.yul\":9932:10351   */\n      swap2\n      swap1\n      pop\n      jump\t// out\n        /* \"#utility.yul\":10357:10776   */\n    tag_109:\n        /* \"#utility.yul\":10523:10527   */\n      0x00\n        /* \"#utility.yul\":10561:10563   */\n      0x20\n        /* \"#utility.yul\":10550:10559   */\n      dup3\n        /* \"#utility.yul\":10546:10564   */\n      add\n        /* \"#utility.yul\":10538:10564   */\n      swap1\n      pop\n        /* \"#utility.yul\":10610:10619   */\n      dup2\n        /* \"#utility.yul\":10604:10608   */\n      dup2\n        /* \"#utility.yul\":10600:10620   */\n      sub\n        /* \"#utility.yul\":10596:10597   */\n      0x00\n        /* \"#utility.yul\":10585:10594   */\n      dup4\n        /* \"#utility.yul\":10581:10598   */\n      add\n        /* \"#utility.yul\":10574:10621   */\n      mstore\n        /* \"#utility.yul\":10638:10769   */\n      tag_255\n        /* \"#utility.yul\":10764:10768   */\n      dup2\n        /* \"#utility.yul\":10638:10769   */\n      tag_205\n      jump\t// in\n    tag_255:\n        /* \"#utility.yul\":10630:10769   */\n      swap1\n      pop\n        /* \"#utility.yul\":10357:10776   */\n      swap2\n      swap1\n      pop\n      jump\t// out\n        /* \"#utility.yul\":10782:11201   */\n    tag_44:\n        /* \"#utility.yul\":10948:10952   */\n      0x00\n        /* \"#utility.yul\":10986:10988   */\n      0x20\n        /* \"#utility.yul\":10975:10984   */\n      dup3\n        /* \"#utility.yul\":10971:10989   */\n      add\n        /* \"#utility.yul\":10963:10989   */\n      swap1\n      pop\n        /* \"#utility.yul\":11035:11044   */\n      dup2\n        /* \"#utility.yul\":11029:11033   */\n      dup2\n        /* \"#utility.yul\":11025:11045   */\n      sub\n        /* \"#utility.yul\":11021:11022   */\n      0x00\n        /* \"#utility.yul\":11010:11019   */\n      dup4\n        /* \"#utility.yul\":11006:11023   */\n      add\n        /* \"#utility.yul\":10999:11046   */\n      mstore\n        /* \"#utility.yul\":11063:11194   */\n      tag_257\n        /* \"#utility.yul\":11189:11193   */\n      dup2\n        /* \"#utility.yul\":11063:11194   */\n      tag_210\n      jump\t// in\n    tag_257:\n        /* \"#utility.yul\":11055:11194   */\n      swap1\n      pop\n        /* \"#utility.yul\":10782:11201   */\n      swap2\n      swap1\n      pop\n      jump\t// out\n        /* \"#utility.yul\":11207:11626   */\n    tag_65:\n        /* \"#utility.yul\":11373:11377   */\n      0x00\n        /* \"#utility.yul\":11411:11413   */\n      0x20\n        /* \"#utility.yul\":11400:11409   */\n      dup3\n        /* \"#utility.yul\":11396:11414   */\n      add\n        /* \"#utility.yul\":11388:11414   */\n      swap1\n      pop\n        /* \"#utility.yul\":11460:11469   */\n      dup2\n        /* \"#utility.yul\":11454:11458   */\n      dup2\n        /* \"#utility.yul\":11450:11470   */\n      sub\n        /* \"#utility.yul\":11446:11447   */\n      0x00\n        /* \"#utility.yul\":11435:11444   */\n      dup4\n        /* \"#utility.yul\":11431:11448   */\n      add\n        /* \"#utility.yul\":11424:11471   */\n      mstore\n        /* \"#utility.yul\":11488:11619   */\n      tag_259\n        /* \"#utility.yul\":11614:11618   */\n      dup2\n        /* \"#utility.yul\":11488:11619   */\n      tag_215\n      jump\t// in\n    tag_259:\n        /* \"#utility.yul\":11480:11619   */\n      swap1\n      pop\n        /* \"#utility.yul\":11207:11626   */\n      swap2\n      swap1\n      pop\n      jump\t// out\n        /* \"#utility.yul\":11632:12051   */\n    tag_92:\n        /* \"#utility.yul\":11798:11802   */\n      0x00\n        /* \"#utility.yul\":11836:11838   */\n      0x20\n        /* \"#utility.yul\":11825:11834   */\n      dup3\n        /* \"#utility.yul\":11821:11839   */\n      add\n        /* \"#utility.yul\":11813:11839   */\n      swap1\n      pop\n        /* \"#utility.yul\":11885:11894   */\n      dup2\n        /* \"#utility.yul\":11879:11883   */\n      dup2\n        /* \"#utility.yul\":11875:11895   */\n      sub\n        /* \"#utility.yul\":11871:11872   */\n      0x00\n        /* \"#utility.yul\":11860:11869   */\n      dup4\n        /* \"#utility.yul\":11856:11873   */\n      add\n        /* \"#utility.yul\":11849:11896   */\n      mstore\n        /* \"#utility.yul\":11913:12044   */\n      tag_261\n        /* \"#utility.yul\":12039:12043   */\n      dup2\n        /* \"#utility.yul\":11913:12044   */\n      tag_220\n      jump\t// in\n    tag_261:\n        /* \"#utility.yul\":11905:12044   */\n      swap1\n      pop\n        /* \"#utility.yul\":11632:12051   */\n      swap2\n      swap1\n      pop\n      jump\t// out\n        /* \"#utility.yul\":12057:12279   */\n    tag_26:\n        /* \"#utility.yul\":12150:12154   */\n      0x00\n        /* \"#utility.yul\":12188:12190   */\n      0x20\n        /* \"#utility.yul\":12177:12186   */\n      dup3\n        /* \"#utility.yul\":12173:12191   */\n      add\n        /* \"#utility.yul\":12165:12191   */\n      swap1\n      pop\n        /* \"#utility.yul\":12201:12272   */\n      tag_263\n        /* \"#utility.yul\":12269:12270   */\n      0x00\n        /* \"#utility.yul\":12258:12267   */\n      dup4\n        /* \"#utility.yul\":12254:12271   */\n      add\n        /* \"#utility.yul\":12245:12251   */\n      dup5\n        /* \"#utility.yul\":12201:12272   */\n      tag_225\n      jump\t// in\n    tag_263:\n        /* \"#utility.yul\":12057:12279   */\n      swap3\n      swap2\n      pop\n      pop\n      jump\t// out\n        /* \"#utility.yul\":12285:12617   */\n    tag_119:\n        /* \"#utility.yul\":12406:12410   */\n      0x00\n        /* \"#utility.yul\":12444:12446   */\n      0x40\n        /* \"#utility.yul\":12433:12442   */\n      dup3\n        /* \"#utility.yul\":12429:12447   */\n      add\n        /* \"#utility.yul\":12421:12447   */\n      swap1\n      pop\n        /* \"#utility.yul\":12457:12528   */\n      tag_265\n        /* \"#utility.yul\":12525:12526   */\n      0x00\n        /* \"#utility.yul\":12514:12523   */\n      dup4\n        /* \"#utility.yul\":12510:12527   */\n      add\n        /* \"#utility.yul\":12501:12507   */\n      dup6\n        /* \"#utility.yul\":12457:12528   */\n      tag_225\n      jump\t// in\n    tag_265:\n        /* \"#utility.yul\":12538:12610   */\n      tag_266\n        /* \"#utility.yul\":12606:12608   */\n      0x20\n        /* \"#utility.yul\":12595:12604   */\n      dup4\n        /* \"#utility.yul\":12591:12609   */\n      add\n        /* \"#utility.yul\":12582:12588   */\n      dup5\n        /* \"#utility.yul\":12538:12610   */\n      tag_225\n      jump\t// in\n    tag_266:\n        /* \"#utility.yul\":12285:12617   */\n      swap4\n      swap3\n      pop\n      pop\n      pop\n      jump\t// out\n        /* \"#utility.yul\":12704:12873   */\n    tag_182:\n        /* \"#utility.yul\":12788:12799   */\n      0x00\n        /* \"#utility.yul\":12822:12828   */\n      dup3\n        /* \"#utility.yul\":12817:12820   */\n      dup3\n        /* \"#utility.yul\":12810:12829   */\n      mstore\n        /* \"#utility.yul\":12862:12866   */\n      0x20\n        /* \"#utility.yul\":12857:12860   */\n      dup3\n        /* \"#utility.yul\":12853:12867   */\n      add\n        /* \"#utility.yul\":12838:12867   */\n      swap1\n      pop\n        /* \"#utility.yul\":12704:12873   */\n      swap3\n      swap2\n      pop\n      pop\n      jump\t// out\n        /* \"#utility.yul\":12879:13184   */\n    tag_54:\n        /* \"#utility.yul\":12919:12922   */\n      0x00\n        /* \"#utility.yul\":12938:12958   */\n      tag_271\n        /* \"#utility.yul\":12956:12957   */\n      dup3\n        /* \"#utility.yul\":12938:12958   */\n      tag_228\n      jump\t// in\n    tag_271:\n        /* \"#utility.yul\":12933:12958   */\n      swap2\n      pop\n        /* \"#utility.yul\":12972:12992   */\n      tag_272\n        /* \"#utility.yul\":12990:12991   */\n      dup4\n        /* \"#utility.yul\":12972:12992   */\n      tag_228\n      jump\t// in\n    tag_272:\n        /* \"#utility.yul\":12967:12992   */\n      swap3\n      pop\n        /* \"#utility.yul\":13126:13127   */\n      dup3\n        /* \"#utility.yul\":13058:13124   */\n      0xffffffffffffffffffffffffffffffffffffffffffffffffffffffffffffffff\n        /* \"#utility.yul\":13054:13128   */\n      sub\n        /* \"#utility.yul\":13051:13052   */\n      dup3\n        /* \"#utility.yul\":13048:13129   */\n      gt\n        /* \"#utility.yul\":13045:13152   */\n      iszero\n      tag_273\n      jumpi\n        /* \"#utility.yul\":13132:13150   */\n      tag_274\n      tag_275\n      jump\t// in\n    tag_274:\n        /* \"#utility.yul\":13045:13152   */\n    tag_273:\n        /* \"#utility.yul\":13176:13177   */\n      dup3\n        /* \"#utility.yul\":13173:13174   */\n      dup3\n        /* \"#utility.yul\":13169:13178   */\n      add\n        /* \"#utility.yul\":13162:13178   */\n      swap1\n      pop\n        /* \"#utility.yul\":12879:13184   */\n      swap3\n      swap2\n      pop\n      pop\n      jump\t// out\n        /* \"#utility.yul\":13190:13538   */\n    tag_116:\n        /* \"#utility.yul\":13230:13237   */\n      0x00\n        /* \"#utility.yul\":13253:13273   */\n      tag_277\n        /* \"#utility.yul\":13271:13272   */\n      dup3\n        /* \"#utility.yul\":13253:13273   */\n      tag_228\n      jump\t// in\n    tag_277:\n        /* \"#utility.yul\":13248:13273   */\n      swap2\n      pop\n        /* \"#utility.yul\":13287:13307   */\n      tag_278\n        /* \"#utility.yul\":13305:13306   */\n      dup4\n        /* \"#utility.yul\":13287:13307   */\n      tag_228\n      jump\t// in\n    tag_278:\n        /* \"#utility.yul\":13282:13307   */\n      swap3\n      pop\n        /* \"#utility.yul\":13475:13476   */\n      dup2\n        /* \"#utility.yul\":13407:13473   */\n      0xffffffffffffffffffffffffffffffffffffffffffffffffffffffffffffffff\n        /* \"#utility.yul\":13403:13477   */\n      div\n        /* \"#utility.yul\":13400:13401   */\n      dup4\n        /* \"#utility.yul\":13397:13478   */\n      gt\n        /* \"#utility.yul\":13392:13393   */\n      dup3\n        /* \"#utility.yul\":13385:13394   */\n      iszero\n        /* \"#utility.yul\":13378:13395   */\n      iszero\n        /* \"#utility.yul\":13374:13479   */\n      and\n        /* \"#utility.yul\":13371:13502   */\n      iszero\n      tag_279\n      jumpi\n        /* \"#utility.yul\":13482:13500   */\n      tag_280\n      tag_275\n      jump\t// in\n    tag_280:\n        /* \"#utility.yul\":13371:13502   */\n    tag_279:\n        /* \"#utility.yul\":13530:13531   */\n      dup3\n        /* \"#utility.yul\":13527:13528   */\n      dup3\n        /* \"#utility.yul\":13523:13532   */\n      mul\n        /* \"#utility.yul\":13512:13532   */\n      swap1\n      pop\n        /* \"#utility.yul\":13190:13538   */\n      swap3\n      swap2\n      pop\n      pop\n      jump\t// out\n        /* \"#utility.yul\":13544:13735   */\n    tag_75:\n        /* \"#utility.yul\":13584:13588   */\n      0x00\n        /* \"#utility.yul\":13604:13624   */\n      tag_282\n        /* \"#utility.yul\":13622:13623   */\n      dup3\n        /* \"#utility.yul\":13604:13624   */\n      tag_228\n      jump\t// in\n    tag_282:\n        /* \"#utility.yul\":13599:13624   */\n      swap2\n      pop\n        /* \"#utility.yul\":13638:13658   */\n      tag_283\n        /* \"#utility.yul\":13656:13657   */\n      dup4\n        /* \"#utility.yul\":13638:13658   */\n      tag_228\n      jump\t// in\n    tag_283:\n        /* \"#utility.yul\":13633:13658   */\n      swap3\n      pop\n        /* \"#utility.yul\":13677:13678   */\n      dup3\n        /* \"#utility.yul\":13674:13675   */\n      dup3\n        /* \"#utility.yul\":13671:13679   */\n      lt\n        /* \"#utility.yul\":13668:13702   */\n      iszero\n      tag_284\n      jumpi\n        /* \"#utility.yul\":13682:13700   */\n      tag_285\n      tag_275\n      jump\t// in\n    tag_285:\n        /* \"#utility.yul\":13668:13702   */\n    tag_284:\n        /* \"#utility.yul\":13727:13728   */\n      dup3\n        /* \"#utility.yul\":13724:13725   */\n      dup3\n        /* \"#utility.yul\":13720:13729   */\n      sub\n        /* \"#utility.yul\":13712:13729   */\n      swap1\n      pop\n        /* \"#utility.yul\":13544:13735   */\n      swap3\n      swap2\n      pop\n      pop\n      jump\t// out\n        /* \"#utility.yul\":13741:13837   */\n    tag_170:\n        /* \"#utility.yul\":13778:13785   */\n      0x00\n        /* \"#utility.yul\":13807:13831   */\n      tag_287\n        /* \"#utility.yul\":13825:13830   */\n      dup3\n        /* \"#utility.yul\":13807:13831   */\n      tag_288\n      jump\t// in\n    tag_287:\n        /* \"#utility.yul\":13796:13831   */\n      swap1\n      pop\n        /* \"#utility.yul\":13741:13837   */\n      swap2\n      swap1\n      pop\n      jump\t// out\n        /* \"#utility.yul\":13843:13933   */\n    tag_174:\n        /* \"#utility.yul\":13877:13884   */\n      0x00\n        /* \"#utility.yul\":13920:13925   */\n      dup2\n        /* \"#utility.yul\":13913:13926   */\n      iszero\n        /* \"#utility.yul\":13906:13927   */\n      iszero\n        /* \"#utility.yul\":13895:13927   */\n      swap1\n      pop\n        /* \"#utility.yul\":13843:13933   */\n      swap2\n      swap1\n      pop\n      jump\t// out\n        /* \"#utility.yul\":13939:14065   */\n    tag_288:\n        /* \"#utility.yul\":13976:13983   */\n      0x00\n        /* \"#utility.yul\":14016:14058   */\n      0xffffffffffffffffffffffffffffffffffffffff\n        /* \"#utility.yul\":14009:14014   */\n      dup3\n        /* \"#utility.yul\":14005:14059   */\n      and\n        /* \"#utility.yul\":13994:14059   */\n      swap1\n      pop\n        /* \"#utility.yul\":13939:14065   */\n      swap2\n      swap1\n      pop\n      jump\t// out\n        /* \"#utility.yul\":14071:14148   */\n    tag_228:\n        /* \"#utility.yul\":14108:14115   */\n      0x00\n        /* \"#utility.yul\":14137:14142   */\n      dup2\n        /* \"#utility.yul\":14126:14142   */\n      swap1\n      pop\n        /* \"#utility.yul\":14071:14148   */\n      swap2\n      swap1\n      pop\n      jump\t// out\n        /* \"#utility.yul\":14154:14293   */\n    tag_178:\n        /* \"#utility.yul\":14217:14226   */\n      0x00\n        /* \"#utility.yul\":14250:14287   */\n      tag_293\n        /* \"#utility.yul\":14281:14286   */\n      dup3\n        /* \"#utility.yul\":14250:14287   */\n      tag_294\n      jump\t// in\n    tag_293:\n        /* \"#utility.yul\":14237:14287   */\n      swap1\n      pop\n        /* \"#utility.yul\":14154:14293   */\n      swap2\n      swap1\n      pop\n      jump\t// out\n        /* \"#utility.yul\":14299:14425   */\n    tag_294:\n        /* \"#utility.yul\":14349:14358   */\n      0x00\n        /* \"#utility.yul\":14382:14419   */\n      tag_296\n        /* \"#utility.yul\":14413:14418   */\n      dup3\n        /* \"#utility.yul\":14382:14419   */\n      tag_297\n      jump\t// in\n    tag_296:\n        /* \"#utility.yul\":14369:14419   */\n      swap1\n      pop\n        /* \"#utility.yul\":14299:14425   */\n      swap2\n      swap1\n      pop\n      jump\t// out\n        /* \"#utility.yul\":14431:14544   */\n    tag_297:\n        /* \"#utility.yul\":14481:14490   */\n      0x00\n        /* \"#utility.yul\":14514:14538   */\n      tag_299\n        /* \"#utility.yul\":14532:14537   */\n      dup3\n        /* \"#utility.yul\":14514:14538   */\n      tag_288\n      jump\t// in\n    tag_299:\n        /* \"#utility.yul\":14501:14538   */\n      swap1\n      pop\n        /* \"#utility.yul\":14431:14544   */\n      swap2\n      swap1\n      pop\n      jump\t// out\n        /* \"#utility.yul\":14550:14721   */\n    tag_126:\n        /* \"#utility.yul\":14589:14592   */\n      0x00\n        /* \"#utility.yul\":14612:14636   */\n      tag_301\n        /* \"#utility.yul\":14630:14635   */\n      dup3\n        /* \"#utility.yul\":14612:14636   */\n      tag_228\n      jump\t// in\n    tag_301:\n        /* \"#utility.yul\":14603:14636   */\n      swap2\n      pop\n        /* \"#utility.yul\":14658:14662   */\n      0x00\n        /* \"#utility.yul\":14651:14656   */\n      dup3\n        /* \"#utility.yul\":14648:14663   */\n      eq\n        /* \"#utility.yul\":14645:14686   */\n      iszero\n      tag_302\n      jumpi\n        /* \"#utility.yul\":14666:14684   */\n      tag_303\n      tag_275\n      jump\t// in\n    tag_303:\n        /* \"#utility.yul\":14645:14686   */\n    tag_302:\n        /* \"#utility.yul\":14713:14714   */\n      0x01\n        /* \"#utility.yul\":14706:14711   */\n      dup3\n        /* \"#utility.yul\":14702:14715   */\n      sub\n        /* \"#utility.yul\":14695:14715   */\n      swap1\n      pop\n        /* \"#utility.yul\":14550:14721   */\n      swap2\n      swap1\n      pop\n      jump\t// out\n        /* \"#utility.yul\":14727:14960   */\n    tag_52:\n        /* \"#utility.yul\":14766:14769   */\n      0x00\n        /* \"#utility.yul\":14789:14813   */\n      tag_305\n        /* \"#utility.yul\":14807:14812   */\n      dup3\n        /* \"#utility.yul\":14789:14813   */\n      tag_228\n      jump\t// in\n    tag_305:\n        /* \"#utility.yul\":14780:14813   */\n      swap2\n      pop\n        /* \"#utility.yul\":14835:14901   */\n      0xffffffffffffffffffffffffffffffffffffffffffffffffffffffffffffffff\n        /* \"#utility.yul\":14828:14833   */\n      dup3\n        /* \"#utility.yul\":14825:14902   */\n      eq\n        /* \"#utility.yul\":14822:14925   */\n      iszero\n      tag_306\n      jumpi\n        /* \"#utility.yul\":14905:14923   */\n      tag_307\n      tag_275\n      jump\t// in\n    tag_307:\n        /* \"#utility.yul\":14822:14925   */\n    tag_306:\n        /* \"#utility.yul\":14952:14953   */\n      0x01\n        /* \"#utility.yul\":14945:14950   */\n      dup3\n        /* \"#utility.yul\":14941:14954   */\n      add\n        /* \"#utility.yul\":14934:14954   */\n      swap1\n      pop\n        /* \"#utility.yul\":14727:14960   */\n      swap2\n      swap1\n      pop\n      jump\t// out\n        /* \"#utility.yul\":14966:15146   */\n    tag_275:\n        /* \"#utility.yul\":15014:15091   */\n      0x4e487b7100000000000000000000000000000000000000000000000000000000\n        /* \"#utility.yul\":15011:15012   */\n      0x00\n        /* \"#utility.yul\":15004:15092   */\n      mstore\n        /* \"#utility.yul\":15111:15115   */\n      0x11\n        /* \"#utility.yul\":15108:15109   */\n      0x04\n        /* \"#utility.yul\":15101:15116   */\n      mstore\n        /* \"#utility.yul\":15135:15139   */\n      0x24\n        /* \"#utility.yul\":15132:15133   */\n      0x00\n        /* \"#utility.yul\":15125:15140   */\n      revert\n        /* \"#utility.yul\":15275:15392   */\n    tag_147:\n        /* \"#utility.yul\":15384:15385   */\n      0x00\n        /* \"#utility.yul\":15381:15382   */\n      dup1\n        /* \"#utility.yul\":15374:15386   */\n      revert\n        /* \"#utility.yul\":15398:15558   */\n    tag_184:\n        /* \"#utility.yul\":15538:15550   */\n      0x4c6f776572206269642100000000000000000000000000000000000000000000\n        /* \"#utility.yul\":15534:15535   */\n      0x00\n        /* \"#utility.yul\":15526:15532   */\n      dup3\n        /* \"#utility.yul\":15522:15536   */\n      add\n        /* \"#utility.yul\":15515:15551   */\n      mstore\n        /* \"#utility.yul\":15398:15558   */\n      pop\n      jump\t// out\n        /* \"#utility.yul\":15564:15739   */\n    tag_189:\n        /* \"#utility.yul\":15704:15731   */\n      0x41756374696f6e206973207374696c6c206f6e676f696e672100000000000000\n        /* \"#utility.yul\":15700:15701   */\n      0x00\n        /* \"#utility.yul\":15692:15698   */\n      dup3\n        /* \"#utility.yul\":15688:15702   */\n      add\n        /* \"#utility.yul\":15681:15732   */\n      mstore\n        /* \"#utility.yul\":15564:15739   */\n      pop\n      jump\t// out\n        /* \"#utility.yul\":15745:15911   */\n    tag_194:\n        /* \"#utility.yul\":15885:15903   */\n      0x416c726561647920737461727465642100000000000000000000000000000000\n        /* \"#utility.yul\":15881:15882   */\n      0x00\n        /* \"#utility.yul\":15873:15879   */\n      dup3\n        /* \"#utility.yul\":15869:15883   */\n      add\n        /* \"#utility.yul\":15862:15904   */\n      mstore\n        /* \"#utility.yul\":15745:15911   */\n      pop\n      jump\t// out\n        /* \"#utility.yul\":15917:16073   */\n    tag_199:\n        /* \"#utility.yul\":16057:16065   */\n      0x456e646564210000000000000000000000000000000000000000000000000000\n        /* \"#utility.yul\":16053:16054   */\n      0x00\n        /* \"#utility.yul\":16045:16051   */\n      dup3\n        /* \"#utility.yul\":16041:16055   */\n      add\n        /* \"#utility.yul\":16034:16066   */\n      mstore\n        /* \"#utility.yul\":15917:16073   */\n      pop\n      jump\t// out\n        /* \"#utility.yul\":16079:16253   */\n    tag_204:\n        /* \"#utility.yul\":16219:16245   */\n      0x596f75206e65656420746f207374617274206669727374210000000000000000\n        /* \"#utility.yul\":16215:16216   */\n      0x00\n        /* \"#utility.yul\":16207:16213   */\n      dup3\n        /* \"#utility.yul\":16203:16217   */\n      add\n        /* \"#utility.yul\":16196:16246   */\n      mstore\n        /* \"#utility.yul\":16079:16253   */\n      pop\n      jump\t// out\n        /* \"#utility.yul\":16259:16439   */\n    tag_209:\n        /* \"#utility.yul\":16399:16431   */\n      0x596f752063616e206e6f74207374617274207468652061756374696f6e210000\n        /* \"#utility.yul\":16395:16396   */\n      0x00\n        /* \"#utility.yul\":16387:16393   */\n      dup3\n        /* \"#utility.yul\":16383:16397   */\n      add\n        /* \"#utility.yul\":16376:16432   */\n      mstore\n        /* \"#utility.yul\":16259:16439   */\n      pop\n      jump\t// out\n        /* \"#utility.yul\":16445:16607   */\n    tag_214:\n        /* \"#utility.yul\":16585:16599   */\n      0x4e6f7420737461727465642e0000000000000000000000000000000000000000\n        /* \"#utility.yul\":16581:16582   */\n      0x00\n        /* \"#utility.yul\":16573:16579   */\n      dup3\n        /* \"#utility.yul\":16569:16583   */\n      add\n        /* \"#utility.yul\":16562:16600   */\n      mstore\n        /* \"#utility.yul\":16445:16607   */\n      pop\n      jump\t// out\n        /* \"#utility.yul\":16613:16785   */\n    tag_219:\n        /* \"#utility.yul\":16753:16777   */\n      0x41756374696f6e20616c726561647920656e6465642100000000000000000000\n        /* \"#utility.yul\":16749:16750   */\n      0x00\n        /* \"#utility.yul\":16741:16747   */\n      dup3\n        /* \"#utility.yul\":16737:16751   */\n      add\n        /* \"#utility.yul\":16730:16778   */\n      mstore\n        /* \"#utility.yul\":16613:16785   */\n      pop\n      jump\t// out\n        /* \"#utility.yul\":16791:16959   */\n    tag_224:\n        /* \"#utility.yul\":16931:16951   */\n      0x436f756c64206e6f742077697468647261770000000000000000000000000000\n        /* \"#utility.yul\":16927:16928   */\n      0x00\n        /* \"#utility.yul\":16919:16925   */\n      dup3\n        /* \"#utility.yul\":16915:16929   */\n      add\n        /* \"#utility.yul\":16908:16952   */\n      mstore\n        /* \"#utility.yul\":16791:16959   */\n      pop\n      jump\t// out\n        /* \"#utility.yul\":16965:17087   */\n    tag_136:\n        /* \"#utility.yul\":17038:17062   */\n      tag_322\n        /* \"#utility.yul\":17056:17061   */\n      dup2\n        /* \"#utility.yul\":17038:17062   */\n      tag_170\n      jump\t// in\n    tag_322:\n        /* \"#utility.yul\":17031:17036   */\n      dup2\n        /* \"#utility.yul\":17028:17063   */\n      eq\n        /* \"#utility.yul\":17018:17081   */\n      tag_323\n      jumpi\n        /* \"#utility.yul\":17077:17078   */\n      0x00\n        /* \"#utility.yul\":17074:17075   */\n      dup1\n        /* \"#utility.yul\":17067:17079   */\n      revert\n        /* \"#utility.yul\":17018:17081   */\n    tag_323:\n        /* \"#utility.yul\":16965:17087   */\n      pop\n      jump\t// out\n        /* \"#utility.yul\":17093:17215   */\n    tag_143:\n        /* \"#utility.yul\":17166:17190   */\n      tag_325\n        /* \"#utility.yul\":17184:17189   */\n      dup2\n        /* \"#utility.yul\":17166:17190   */\n      tag_228\n      jump\t// in\n    tag_325:\n        /* \"#utility.yul\":17159:17164   */\n      dup2\n        /* \"#utility.yul\":17156:17191   */\n      eq\n        /* \"#utility.yul\":17146:17209   */\n      tag_326\n      jumpi\n        /* \"#utility.yul\":17205:17206   */\n      0x00\n        /* \"#utility.yul\":17202:17203   */\n      dup1\n        /* \"#utility.yul\":17195:17207   */\n      revert\n        /* \"#utility.yul\":17146:17209   */\n    tag_326:\n        /* \"#utility.yul\":17093:17215   */\n      pop\n      jump\t// out\n\n    auxdata: 0xa26469706673582212204dd6d2ccefc2cf68a91d36ac460b8de7e9b45fd8a0447a71784b0a928ef9d5d964736f6c63430008070033\n}\n",
				"bytecode": {
					"linkReferences": {},
					"object": "608060405234801561001057600080fd5b50611c75806100206000396000f3fe6080604052600436106100705760003560e01c80637bb98a681161004e5780637bb98a68146100d6578063b76a3b5a14610101578063f3fef3a31461012a578063f48e9b3d1461014657610070565b806359d667a514610075578063695d69ba14610091578063699ff43f146100ba575b600080fd5b61008f600480360381019061008a91906113e2565b610189565b005b34801561009d57600080fd5b506100b860048036038101906100b391906113e2565b6104b4565b005b6100d460048036038101906100cf9190611422565b6109d2565b005b3480156100e257600080fd5b506100eb610bb8565b6040516100f89190611842565b60405180910390f35b34801561010d57600080fd5b5061012860048036038101906101239190611475565b610bbe565b005b610144600480360381019061013f91906113e2565b610fc1565b005b34801561015257600080fd5b5061016d600480360381019061016891906113e2565b6112cd565b604051610180979695949392919061168a565b60405180910390f35b60008060008473ffffffffffffffffffffffffffffffffffffffff1673ffffffffffffffffffffffffffffffffffffffff168152602001908152602001600020600083815260200190815260200160002090508060000160149054906101000a900460ff1661022d576040517f08c379a0000000000000000000000000000000000000000000000000000000008152600401610224906117e2565b60405180910390fd5b80600101544210610273576040517f08c379a000000000000000000000000000000000000000000000000000000000815260040161026a90611782565b60405180910390fd5b806005016000826004015481526020019081526020016000205434116102ce576040517f08c379a00000000000000000000000000000000000000000000000000000000081526004016102c590611722565b60405180910390fd5b348160050160008360040154815260200190815260200160002081905550338160060160008360040154815260200190815260200160002060006101000a81548173ffffffffffffffffffffffffffffffffffffffff021916908373ffffffffffffffffffffffffffffffffffffffff16021790555080600501600082600401548152602001908152602001600020548160070160008360060160008560040154815260200190815260200160002060009054906101000a900473ffffffffffffffffffffffffffffffffffffffff1673ffffffffffffffffffffffffffffffffffffffff1673ffffffffffffffffffffffffffffffffffffffff168152602001908152602001600020819055508060040160008154809291906103f190611a23565b919050555034600160008282546104089190611897565b925050819055508060060160008260040154815260200190815260200160002060009054906101000a900473ffffffffffffffffffffffffffffffffffffffff1673ffffffffffffffffffffffffffffffffffffffff167fe684a55f31b79eca403df938249029212a5925ec6be8012e099b45bc1019e5d282600501600084600401548152602001908152602001600020546040516104a79190611842565b60405180910390a2505050565b60008060008473ffffffffffffffffffffffffffffffffffffffff1673ffffffffffffffffffffffffffffffffffffffff168152602001908152602001600020600083815260200190815260200160002090508060000160149054906101000a900460ff16610558576040517f08c379a000000000000000000000000000000000000000000000000000000000815260040161054f906117a2565b60405180910390fd5b806001015442101561059f576040517f08c379a000000000000000000000000000000000000000000000000000000000815260040161059690611742565b60405180910390fd5b8060000160159054906101000a900460ff16156105f1576040517f08c379a00000000000000000000000000000000000000000000000000000000081526004016105e890611802565b60405180910390fd5b600073ffffffffffffffffffffffffffffffffffffffff168160060160008360040154815260200190815260200160002060009054906101000a900473ffffffffffffffffffffffffffffffffffffffff1673ffffffffffffffffffffffffffffffffffffffff161461084c578060020160009054906101000a900473ffffffffffffffffffffffffffffffffffffffff1673ffffffffffffffffffffffffffffffffffffffff166323b872dd308360060160008560040154815260200190815260200160002060009054906101000a900473ffffffffffffffffffffffffffffffffffffffff1684600301546040518463ffffffff1660e01b81526004016106fc93929190611653565b600060405180830381600087803b15801561071657600080fd5b505af115801561072a573d6000803e3d6000fd5b505050508060000160009054906101000a900473ffffffffffffffffffffffffffffffffffffffff1673ffffffffffffffffffffffffffffffffffffffff166108fc82600501600084600401548152602001908152602001600020549081150290604051600060405180830381858888f193505050501580156107b1573d6000803e3d6000fd5b508060050160008260040154815260200190815260200160002054600160008282546107dd9190611947565b9250508190555060005b816004015481101561084657610833848484600601600085815260200190815260200160002060009054906101000a900473ffffffffffffffffffffffffffffffffffffffff166109d2565b808061083e90611a23565b9150506107e7565b50610908565b8060020160009054906101000a900473ffffffffffffffffffffffffffffffffffffffff1673ffffffffffffffffffffffffffffffffffffffff166323b872dd308360000160009054906101000a900473ffffffffffffffffffffffffffffffffffffffff1684600301546040518463ffffffff1660e01b81526004016108d593929190611653565b600060405180830381600087803b1580156108ef57600080fd5b505af1158015610903573d6000803e3d6000fd5b505050505b60018160000160156101000a81548160ff02191690831515021790555060008160000160146101000a81548160ff0219169083151502179055507f7d7570b046e5ead3a4f3fbc9fa2445113625a1e79823776146316bafed6b8cc58160060160008360040154815260200190815260200160002060009054906101000a900473ffffffffffffffffffffffffffffffffffffffff1682600501600084600401548152602001908152602001600020546040516109c59291906116f9565b60405180910390a1505050565b60008060008573ffffffffffffffffffffffffffffffffffffffff1673ffffffffffffffffffffffffffffffffffffffff1681526020019081526020016000206000848152602001908152602001600020905060008160070160008473ffffffffffffffffffffffffffffffffffffffff1673ffffffffffffffffffffffffffffffffffffffff168152602001908152602001600020549050600081118015610a7d57506001548111155b610abc576040517f08c379a0000000000000000000000000000000000000000000000000000000008152600401610ab390611822565b60405180910390fd5b60008260070160008573ffffffffffffffffffffffffffffffffffffffff1673ffffffffffffffffffffffffffffffffffffffff168152602001908152602001600020819055508273ffffffffffffffffffffffffffffffffffffffff166108fc829081150290604051600060405180830381858888f19350505050158015610b49573d6000803e3d6000fd5b508060016000828254610b5c9190611947565b925050819055508273ffffffffffffffffffffffffffffffffffffffff167f884edad9ce6fa2440d8a54cc123490eb96d2768479d49ff9c7366125a942436482604051610ba99190611842565b60405180910390a25050505050565b60015481565b60008060008673ffffffffffffffffffffffffffffffffffffffff1673ffffffffffffffffffffffffffffffffffffffff16815260200190815260200160002060008581526020019081526020016000209050848160020160006101000a81548173ffffffffffffffffffffffffffffffffffffffff021916908373ffffffffffffffffffffffffffffffffffffffff1602179055508060020160009054906101000a900473ffffffffffffffffffffffffffffffffffffffff1673ffffffffffffffffffffffffffffffffffffffff16636352211e856040518263ffffffff1660e01b8152600401610cb19190611842565b60206040518083038186803b158015610cc957600080fd5b505afa158015610cdd573d6000803e3d6000fd5b505050506040513d601f19601f82011682018060405250810190610d0191906113b5565b8160000160006101000a81548173ffffffffffffffffffffffffffffffffffffffff021916908373ffffffffffffffffffffffffffffffffffffffff16021790555060008160000160156101000a81548160ff0219169083151502179055508060000160149054906101000a900460ff1615610db2576040517f08c379a0000000000000000000000000000000000000000000000000000000008152600401610da990611762565b60405180910390fd5b8060000160009054906101000a900473ffffffffffffffffffffffffffffffffffffffff1673ffffffffffffffffffffffffffffffffffffffff163373ffffffffffffffffffffffffffffffffffffffff1614610e44576040517f08c379a0000000000000000000000000000000000000000000000000000000008152600401610e3b906117c2565b60405180910390fd5b60008160040181905550828160050160008360040154815260200190815260200160002081905550806004016000815480929190610e8190611a23565b91905055508381600301819055508060020160009054906101000a900473ffffffffffffffffffffffffffffffffffffffff1673ffffffffffffffffffffffffffffffffffffffff166323b872dd333084600301546040518463ffffffff1660e01b8152600401610ef493929190611653565b600060405180830381600087803b158015610f0e57600080fd5b505af1158015610f22573d6000803e3d6000fd5b5050505060018160000160146101000a81548160ff0219169083151502179055506201518082610f5291906118ed565b42610f5d9190611897565b8160010181905550838573ffffffffffffffffffffffffffffffffffffffff167f3b305515dbe345238649f5ce343c57ae67d5727443f8d744b2b793c3231e3ad9858460010154604051610fb292919061185d565b60405180910390a35050505050565b60008060008473ffffffffffffffffffffffffffffffffffffffff1673ffffffffffffffffffffffffffffffffffffffff1681526020019081526020016000206000838152602001908152602001600020905060008160070160003373ffffffffffffffffffffffffffffffffffffffff1673ffffffffffffffffffffffffffffffffffffffff1681526020019081526020016000205490506000811415801561106d57506001548111155b6110ac576040517f08c379a00000000000000000000000000000000000000000000000000000000081526004016110a390611822565b60405180910390fd5b8160060160008360040154815260200190815260200160002060009054906101000a900473ffffffffffffffffffffffffffffffffffffffff1673ffffffffffffffffffffffffffffffffffffffff163373ffffffffffffffffffffffffffffffffffffffff1614156111d257816004016000815461112a906119f9565b919050819055508160060160008360040154815260200190815260200160002060009054906101000a900473ffffffffffffffffffffffffffffffffffffffff1673ffffffffffffffffffffffffffffffffffffffff167fe684a55f31b79eca403df938249029212a5925ec6be8012e099b45bc1019e5d283600501600085600401548152602001908152602001600020546040516111c99190611842565b60405180910390a25b60008260070160003373ffffffffffffffffffffffffffffffffffffffff1673ffffffffffffffffffffffffffffffffffffffff168152602001908152602001600020819055503373ffffffffffffffffffffffffffffffffffffffff166108fc829081150290604051600060405180830381858888f1935050505015801561125f573d6000803e3d6000fd5b5080600160008282546112729190611947565b925050819055503373ffffffffffffffffffffffffffffffffffffffff167f884edad9ce6fa2440d8a54cc123490eb96d2768479d49ff9c7366125a9424364826040516112bf9190611842565b60405180910390a250505050565b6000602052816000526040600020602052806000526040600020600091509150508060000160009054906101000a900473ffffffffffffffffffffffffffffffffffffffff16908060000160149054906101000a900460ff16908060000160159054906101000a900460ff16908060010154908060020160009054906101000a900473ffffffffffffffffffffffffffffffffffffffff16908060030154908060040154905087565b60008135905061138581611c11565b92915050565b60008151905061139a81611c11565b92915050565b6000813590506113af81611c28565b92915050565b6000602082840312156113cb576113ca611a9b565b5b60006113d98482850161138b565b91505092915050565b600080604083850312156113f9576113f8611a9b565b5b600061140785828601611376565b9250506020611418858286016113a0565b9150509250929050565b60008060006060848603121561143b5761143a611a9b565b5b600061144986828701611376565b935050602061145a868287016113a0565b925050604061146b86828701611376565b9150509250925092565b6000806000806080858703121561148f5761148e611a9b565b5b600061149d87828801611376565b94505060206114ae878288016113a0565b93505060406114bf878288016113a0565b92505060606114d0878288016113a0565b91505092959194509250565b6114e58161197b565b82525050565b6114f48161198d565b82525050565b611503816119c3565b82525050565b6000611516600a83611886565b915061152182611aa0565b602082019050919050565b6000611539601983611886565b915061154482611ac9565b602082019050919050565b600061155c601083611886565b915061156782611af2565b602082019050919050565b600061157f600683611886565b915061158a82611b1b565b602082019050919050565b60006115a2601883611886565b91506115ad82611b44565b602082019050919050565b60006115c5601e83611886565b91506115d082611b6d565b602082019050919050565b60006115e8600c83611886565b91506115f382611b96565b602082019050919050565b600061160b601683611886565b915061161682611bbf565b602082019050919050565b600061162e601283611886565b915061163982611be8565b602082019050919050565b61164d816119b9565b82525050565b600060608201905061166860008301866114dc565b61167560208301856114dc565b6116826040830184611644565b949350505050565b600060e08201905061169f600083018a6114dc565b6116ac60208301896114eb565b6116b960408301886114eb565b6116c66060830187611644565b6116d360808301866114fa565b6116e060a0830185611644565b6116ed60c0830184611644565b98975050505050505050565b600060408201905061170e60008301856114dc565b61171b6020830184611644565b9392505050565b6000602082019050818103600083015261173b81611509565b9050919050565b6000602082019050818103600083015261175b8161152c565b9050919050565b6000602082019050818103600083015261177b8161154f565b9050919050565b6000602082019050818103600083015261179b81611572565b9050919050565b600060208201905081810360008301526117bb81611595565b9050919050565b600060208201905081810360008301526117db816115b8565b9050919050565b600060208201905081810360008301526117fb816115db565b9050919050565b6000602082019050818103600083015261181b816115fe565b9050919050565b6000602082019050818103600083015261183b81611621565b9050919050565b60006020820190506118576000830184611644565b92915050565b60006040820190506118726000830185611644565b61187f6020830184611644565b9392505050565b600082825260208201905092915050565b60006118a2826119b9565b91506118ad836119b9565b9250827fffffffffffffffffffffffffffffffffffffffffffffffffffffffffffffffff038211156118e2576118e1611a6c565b5b828201905092915050565b60006118f8826119b9565b9150611903836119b9565b9250817fffffffffffffffffffffffffffffffffffffffffffffffffffffffffffffffff048311821515161561193c5761193b611a6c565b5b828202905092915050565b6000611952826119b9565b915061195d836119b9565b9250828210156119705761196f611a6c565b5b828203905092915050565b600061198682611999565b9050919050565b60008115159050919050565b600073ffffffffffffffffffffffffffffffffffffffff82169050919050565b6000819050919050565b60006119ce826119d5565b9050919050565b60006119e0826119e7565b9050919050565b60006119f282611999565b9050919050565b6000611a04826119b9565b91506000821415611a1857611a17611a6c565b5b600182039050919050565b6000611a2e826119b9565b91507fffffffffffffffffffffffffffffffffffffffffffffffffffffffffffffffff821415611a6157611a60611a6c565b5b600182019050919050565b7f4e487b7100000000000000000000000000000000000000000000000000000000600052601160045260246000fd5b600080fd5b7f4c6f776572206269642100000000000000000000000000000000000000000000600082015250565b7f41756374696f6e206973207374696c6c206f6e676f696e672100000000000000600082015250565b7f416c726561647920737461727465642100000000000000000000000000000000600082015250565b7f456e646564210000000000000000000000000000000000000000000000000000600082015250565b7f596f75206e65656420746f207374617274206669727374210000000000000000600082015250565b7f596f752063616e206e6f74207374617274207468652061756374696f6e210000600082015250565b7f4e6f7420737461727465642e0000000000000000000000000000000000000000600082015250565b7f41756374696f6e20616c726561647920656e6465642100000000000000000000600082015250565b7f436f756c64206e6f742077697468647261770000000000000000000000000000600082015250565b611c1a8161197b565b8114611c2557600080fd5b50565b611c31816119b9565b8114611c3c57600080fd5b5056fea26469706673582212204dd6d2ccefc2cf68a91d36ac460b8de7e9b45fd8a0447a71784b0a928ef9d5d964736f6c63430008070033",
					"opcodes": "PUSH1 0x80 PUSH1 0x40 MSTORE CALLVALUE DUP1 ISZERO PUSH2 0x10 JUMPI PUSH1 0x0 DUP1 REVERT JUMPDEST POP PUSH2 0x1C75 DUP1 PUSH2 0x20 PUSH1 0x0 CODECOPY PUSH1 0x0 RETURN INVALID PUSH1 0x80 PUSH1 0x40 MSTORE PUSH1 0x4 CALLDATASIZE LT PUSH2 0x70 JUMPI PUSH1 0x0 CALLDATALOAD PUSH1 0xE0 SHR DUP1 PUSH4 0x7BB98A68 GT PUSH2 0x4E JUMPI DUP1 PUSH4 0x7BB98A68 EQ PUSH2 0xD6 JUMPI DUP1 PUSH4 0xB76A3B5A EQ PUSH2 0x101 JUMPI DUP1 PUSH4 0xF3FEF3A3 EQ PUSH2 0x12A JUMPI DUP1 PUSH4 0xF48E9B3D EQ PUSH2 0x146 JUMPI PUSH2 0x70 JUMP JUMPDEST DUP1 PUSH4 0x59D667A5 EQ PUSH2 0x75 JUMPI DUP1 PUSH4 0x695D69BA EQ PUSH2 0x91 JUMPI DUP1 PUSH4 0x699FF43F EQ PUSH2 0xBA JUMPI JUMPDEST PUSH1 0x0 DUP1 REVERT JUMPDEST PUSH2 0x8F PUSH1 0x4 DUP1 CALLDATASIZE SUB DUP2 ADD SWAP1 PUSH2 0x8A SWAP2 SWAP1 PUSH2 0x13E2 JUMP JUMPDEST PUSH2 0x189 JUMP JUMPDEST STOP JUMPDEST CALLVALUE DUP1 ISZERO PUSH2 0x9D JUMPI PUSH1 0x0 DUP1 REVERT JUMPDEST POP PUSH2 0xB8 PUSH1 0x4 DUP1 CALLDATASIZE SUB DUP2 ADD SWAP1 PUSH2 0xB3 SWAP2 SWAP1 PUSH2 0x13E2 JUMP JUMPDEST PUSH2 0x4B4 JUMP JUMPDEST STOP JUMPDEST PUSH2 0xD4 PUSH1 0x4 DUP1 CALLDATASIZE SUB DUP2 ADD SWAP1 PUSH2 0xCF SWAP2 SWAP1 PUSH2 0x1422 JUMP JUMPDEST PUSH2 0x9D2 JUMP JUMPDEST STOP JUMPDEST CALLVALUE DUP1 ISZERO PUSH2 0xE2 JUMPI PUSH1 0x0 DUP1 REVERT JUMPDEST POP PUSH2 0xEB PUSH2 0xBB8 JUMP JUMPDEST PUSH1 0x40 MLOAD PUSH2 0xF8 SWAP2 SWAP1 PUSH2 0x1842 JUMP JUMPDEST PUSH1 0x40 MLOAD DUP1 SWAP2 SUB SWAP1 RETURN JUMPDEST CALLVALUE DUP1 ISZERO PUSH2 0x10D JUMPI PUSH1 0x0 DUP1 REVERT JUMPDEST POP PUSH2 0x128 PUSH1 0x4 DUP1 CALLDATASIZE SUB DUP2 ADD SWAP1 PUSH2 0x123 SWAP2 SWAP1 PUSH2 0x1475 JUMP JUMPDEST PUSH2 0xBBE JUMP JUMPDEST STOP JUMPDEST PUSH2 0x144 PUSH1 0x4 DUP1 CALLDATASIZE SUB DUP2 ADD SWAP1 PUSH2 0x13F SWAP2 SWAP1 PUSH2 0x13E2 JUMP JUMPDEST PUSH2 0xFC1 JUMP JUMPDEST STOP JUMPDEST CALLVALUE DUP1 ISZERO PUSH2 0x152 JUMPI PUSH1 0x0 DUP1 REVERT JUMPDEST POP PUSH2 0x16D PUSH1 0x4 DUP1 CALLDATASIZE SUB DUP2 ADD SWAP1 PUSH2 0x168 SWAP2 SWAP1 PUSH2 0x13E2 JUMP JUMPDEST PUSH2 0x12CD JUMP JUMPDEST PUSH1 0x40 MLOAD PUSH2 0x180 SWAP8 SWAP7 SWAP6 SWAP5 SWAP4 SWAP3 SWAP2 SWAP1 PUSH2 0x168A JUMP JUMPDEST PUSH1 0x40 MLOAD DUP1 SWAP2 SUB SWAP1 RETURN JUMPDEST PUSH1 0x0 DUP1 PUSH1 0x0 DUP5 PUSH20 0xFFFFFFFFFFFFFFFFFFFFFFFFFFFFFFFFFFFFFFFF AND PUSH20 0xFFFFFFFFFFFFFFFFFFFFFFFFFFFFFFFFFFFFFFFF AND DUP2 MSTORE PUSH1 0x20 ADD SWAP1 DUP2 MSTORE PUSH1 0x20 ADD PUSH1 0x0 KECCAK256 PUSH1 0x0 DUP4 DUP2 MSTORE PUSH1 0x20 ADD SWAP1 DUP2 MSTORE PUSH1 0x20 ADD PUSH1 0x0 KECCAK256 SWAP1 POP DUP1 PUSH1 0x0 ADD PUSH1 0x14 SWAP1 SLOAD SWAP1 PUSH2 0x100 EXP SWAP1 DIV PUSH1 0xFF AND PUSH2 0x22D JUMPI PUSH1 0x40 MLOAD PUSH32 0x8C379A000000000000000000000000000000000000000000000000000000000 DUP2 MSTORE PUSH1 0x4 ADD PUSH2 0x224 SWAP1 PUSH2 0x17E2 JUMP JUMPDEST PUSH1 0x40 MLOAD DUP1 SWAP2 SUB SWAP1 REVERT JUMPDEST DUP1 PUSH1 0x1 ADD SLOAD TIMESTAMP LT PUSH2 0x273 JUMPI PUSH1 0x40 MLOAD PUSH32 0x8C379A000000000000000000000000000000000000000000000000000000000 DUP2 MSTORE PUSH1 0x4 ADD PUSH2 0x26A SWAP1 PUSH2 0x1782 JUMP JUMPDEST PUSH1 0x40 MLOAD DUP1 SWAP2 SUB SWAP1 REVERT JUMPDEST DUP1 PUSH1 0x5 ADD PUSH1 0x0 DUP3 PUSH1 0x4 ADD SLOAD DUP2 MSTORE PUSH1 0x20 ADD SWAP1 DUP2 MSTORE PUSH1 0x20 ADD PUSH1 0x0 KECCAK256 SLOAD CALLVALUE GT PUSH2 0x2CE JUMPI PUSH1 0x40 MLOAD PUSH32 0x8C379A000000000000000000000000000000000000000000000000000000000 DUP2 MSTORE PUSH1 0x4 ADD PUSH2 0x2C5 SWAP1 PUSH2 0x1722 JUMP JUMPDEST PUSH1 0x40 MLOAD DUP1 SWAP2 SUB SWAP1 REVERT JUMPDEST CALLVALUE DUP2 PUSH1 0x5 ADD PUSH1 0x0 DUP4 PUSH1 0x4 ADD SLOAD DUP2 MSTORE PUSH1 0x20 ADD SWAP1 DUP2 MSTORE PUSH1 0x20 ADD PUSH1 0x0 KECCAK256 DUP2 SWAP1 SSTORE POP CALLER DUP2 PUSH1 0x6 ADD PUSH1 0x0 DUP4 PUSH1 0x4 ADD SLOAD DUP2 MSTORE PUSH1 0x20 ADD SWAP1 DUP2 MSTORE PUSH1 0x20 ADD PUSH1 0x0 KECCAK256 PUSH1 0x0 PUSH2 0x100 EXP DUP2 SLOAD DUP2 PUSH20 0xFFFFFFFFFFFFFFFFFFFFFFFFFFFFFFFFFFFFFFFF MUL NOT AND SWAP1 DUP4 PUSH20 0xFFFFFFFFFFFFFFFFFFFFFFFFFFFFFFFFFFFFFFFF AND MUL OR SWAP1 SSTORE POP DUP1 PUSH1 0x5 ADD PUSH1 0x0 DUP3 PUSH1 0x4 ADD SLOAD DUP2 MSTORE PUSH1 0x20 ADD SWAP1 DUP2 MSTORE PUSH1 0x20 ADD PUSH1 0x0 KECCAK256 SLOAD DUP2 PUSH1 0x7 ADD PUSH1 0x0 DUP4 PUSH1 0x6 ADD PUSH1 0x0 DUP6 PUSH1 0x4 ADD SLOAD DUP2 MSTORE PUSH1 0x20 ADD SWAP1 DUP2 MSTORE PUSH1 0x20 ADD PUSH1 0x0 KECCAK256 PUSH1 0x0 SWAP1 SLOAD SWAP1 PUSH2 0x100 EXP SWAP1 DIV PUSH20 0xFFFFFFFFFFFFFFFFFFFFFFFFFFFFFFFFFFFFFFFF AND PUSH20 0xFFFFFFFFFFFFFFFFFFFFFFFFFFFFFFFFFFFFFFFF AND PUSH20 0xFFFFFFFFFFFFFFFFFFFFFFFFFFFFFFFFFFFFFFFF AND DUP2 MSTORE PUSH1 0x20 ADD SWAP1 DUP2 MSTORE PUSH1 0x20 ADD PUSH1 0x0 KECCAK256 DUP2 SWAP1 SSTORE POP DUP1 PUSH1 0x4 ADD PUSH1 0x0 DUP2 SLOAD DUP1 SWAP3 SWAP2 SWAP1 PUSH2 0x3F1 SWAP1 PUSH2 0x1A23 JUMP JUMPDEST SWAP2 SWAP1 POP SSTORE POP CALLVALUE PUSH1 0x1 PUSH1 0x0 DUP3 DUP3 SLOAD PUSH2 0x408 SWAP2 SWAP1 PUSH2 0x1897 JUMP JUMPDEST SWAP3 POP POP DUP2 SWAP1 SSTORE POP DUP1 PUSH1 0x6 ADD PUSH1 0x0 DUP3 PUSH1 0x4 ADD SLOAD DUP2 MSTORE PUSH1 0x20 ADD SWAP1 DUP2 MSTORE PUSH1 0x20 ADD PUSH1 0x0 KECCAK256 PUSH1 0x0 SWAP1 SLOAD SWAP1 PUSH2 0x100 EXP SWAP1 DIV PUSH20 0xFFFFFFFFFFFFFFFFFFFFFFFFFFFFFFFFFFFFFFFF AND PUSH20 0xFFFFFFFFFFFFFFFFFFFFFFFFFFFFFFFFFFFFFFFF AND PUSH32 0xE684A55F31B79ECA403DF938249029212A5925EC6BE8012E099B45BC1019E5D2 DUP3 PUSH1 0x5 ADD PUSH1 0x0 DUP5 PUSH1 0x4 ADD SLOAD DUP2 MSTORE PUSH1 0x20 ADD SWAP1 DUP2 MSTORE PUSH1 0x20 ADD PUSH1 0x0 KECCAK256 SLOAD PUSH1 0x40 MLOAD PUSH2 0x4A7 SWAP2 SWAP1 PUSH2 0x1842 JUMP JUMPDEST PUSH1 0x40 MLOAD DUP1 SWAP2 SUB SWAP1 LOG2 POP POP POP JUMP JUMPDEST PUSH1 0x0 DUP1 PUSH1 0x0 DUP5 PUSH20 0xFFFFFFFFFFFFFFFFFFFFFFFFFFFFFFFFFFFFFFFF AND PUSH20 0xFFFFFFFFFFFFFFFFFFFFFFFFFFFFFFFFFFFFFFFF AND DUP2 MSTORE PUSH1 0x20 ADD SWAP1 DUP2 MSTORE PUSH1 0x20 ADD PUSH1 0x0 KECCAK256 PUSH1 0x0 DUP4 DUP2 MSTORE PUSH1 0x20 ADD SWAP1 DUP2 MSTORE PUSH1 0x20 ADD PUSH1 0x0 KECCAK256 SWAP1 POP DUP1 PUSH1 0x0 ADD PUSH1 0x14 SWAP1 SLOAD SWAP1 PUSH2 0x100 EXP SWAP1 DIV PUSH1 0xFF AND PUSH2 0x558 JUMPI PUSH1 0x40 MLOAD PUSH32 0x8C379A000000000000000000000000000000000000000000000000000000000 DUP2 MSTORE PUSH1 0x4 ADD PUSH2 0x54F SWAP1 PUSH2 0x17A2 JUMP JUMPDEST PUSH1 0x40 MLOAD DUP1 SWAP2 SUB SWAP1 REVERT JUMPDEST DUP1 PUSH1 0x1 ADD SLOAD TIMESTAMP LT ISZERO PUSH2 0x59F JUMPI PUSH1 0x40 MLOAD PUSH32 0x8C379A000000000000000000000000000000000000000000000000000000000 DUP2 MSTORE PUSH1 0x4 ADD PUSH2 0x596 SWAP1 PUSH2 0x1742 JUMP JUMPDEST PUSH1 0x40 MLOAD DUP1 SWAP2 SUB SWAP1 REVERT JUMPDEST DUP1 PUSH1 0x0 ADD PUSH1 0x15 SWAP1 SLOAD SWAP1 PUSH2 0x100 EXP SWAP1 DIV PUSH1 0xFF AND ISZERO PUSH2 0x5F1 JUMPI PUSH1 0x40 MLOAD PUSH32 0x8C379A000000000000000000000000000000000000000000000000000000000 DUP2 MSTORE PUSH1 0x4 ADD PUSH2 0x5E8 SWAP1 PUSH2 0x1802 JUMP JUMPDEST PUSH1 0x40 MLOAD DUP1 SWAP2 SUB SWAP1 REVERT JUMPDEST PUSH1 0x0 PUSH20 0xFFFFFFFFFFFFFFFFFFFFFFFFFFFFFFFFFFFFFFFF AND DUP2 PUSH1 0x6 ADD PUSH1 0x0 DUP4 PUSH1 0x4 ADD SLOAD DUP2 MSTORE PUSH1 0x20 ADD SWAP1 DUP2 MSTORE PUSH1 0x20 ADD PUSH1 0x0 KECCAK256 PUSH1 0x0 SWAP1 SLOAD SWAP1 PUSH2 0x100 EXP SWAP1 DIV PUSH20 0xFFFFFFFFFFFFFFFFFFFFFFFFFFFFFFFFFFFFFFFF AND PUSH20 0xFFFFFFFFFFFFFFFFFFFFFFFFFFFFFFFFFFFFFFFF AND EQ PUSH2 0x84C JUMPI DUP1 PUSH1 0x2 ADD PUSH1 0x0 SWAP1 SLOAD SWAP1 PUSH2 0x100 EXP SWAP1 DIV PUSH20 0xFFFFFFFFFFFFFFFFFFFFFFFFFFFFFFFFFFFFFFFF AND PUSH20 0xFFFFFFFFFFFFFFFFFFFFFFFFFFFFFFFFFFFFFFFF AND PUSH4 0x23B872DD ADDRESS DUP4 PUSH1 0x6 ADD PUSH1 0x0 DUP6 PUSH1 0x4 ADD SLOAD DUP2 MSTORE PUSH1 0x20 ADD SWAP1 DUP2 MSTORE PUSH1 0x20 ADD PUSH1 0x0 KECCAK256 PUSH1 0x0 SWAP1 SLOAD SWAP1 PUSH2 0x100 EXP SWAP1 DIV PUSH20 0xFFFFFFFFFFFFFFFFFFFFFFFFFFFFFFFFFFFFFFFF AND DUP5 PUSH1 0x3 ADD SLOAD PUSH1 0x40 MLOAD DUP5 PUSH4 0xFFFFFFFF AND PUSH1 0xE0 SHL DUP2 MSTORE PUSH1 0x4 ADD PUSH2 0x6FC SWAP4 SWAP3 SWAP2 SWAP1 PUSH2 0x1653 JUMP JUMPDEST PUSH1 0x0 PUSH1 0x40 MLOAD DUP1 DUP4 SUB DUP2 PUSH1 0x0 DUP8 DUP1 EXTCODESIZE ISZERO DUP1 ISZERO PUSH2 0x716 JUMPI PUSH1 0x0 DUP1 REVERT JUMPDEST POP GAS CALL ISZERO DUP1 ISZERO PUSH2 0x72A JUMPI RETURNDATASIZE PUSH1 0x0 DUP1 RETURNDATACOPY RETURNDATASIZE PUSH1 0x0 REVERT JUMPDEST POP POP POP POP DUP1 PUSH1 0x0 ADD PUSH1 0x0 SWAP1 SLOAD SWAP1 PUSH2 0x100 EXP SWAP1 DIV PUSH20 0xFFFFFFFFFFFFFFFFFFFFFFFFFFFFFFFFFFFFFFFF AND PUSH20 0xFFFFFFFFFFFFFFFFFFFFFFFFFFFFFFFFFFFFFFFF AND PUSH2 0x8FC DUP3 PUSH1 0x5 ADD PUSH1 0x0 DUP5 PUSH1 0x4 ADD SLOAD DUP2 MSTORE PUSH1 0x20 ADD SWAP1 DUP2 MSTORE PUSH1 0x20 ADD PUSH1 0x0 KECCAK256 SLOAD SWAP1 DUP2 ISZERO MUL SWAP1 PUSH1 0x40 MLOAD PUSH1 0x0 PUSH1 0x40 MLOAD DUP1 DUP4 SUB DUP2 DUP6 DUP9 DUP9 CALL SWAP4 POP POP POP POP ISZERO DUP1 ISZERO PUSH2 0x7B1 JUMPI RETURNDATASIZE PUSH1 0x0 DUP1 RETURNDATACOPY RETURNDATASIZE PUSH1 0x0 REVERT JUMPDEST POP DUP1 PUSH1 0x5 ADD PUSH1 0x0 DUP3 PUSH1 0x4 ADD SLOAD DUP2 MSTORE PUSH1 0x20 ADD SWAP1 DUP2 MSTORE PUSH1 0x20 ADD PUSH1 0x0 KECCAK256 SLOAD PUSH1 0x1 PUSH1 0x0 DUP3 DUP3 SLOAD PUSH2 0x7DD SWAP2 SWAP1 PUSH2 0x1947 JUMP JUMPDEST SWAP3 POP POP DUP2 SWAP1 SSTORE POP PUSH1 0x0 JUMPDEST DUP2 PUSH1 0x4 ADD SLOAD DUP2 LT ISZERO PUSH2 0x846 JUMPI PUSH2 0x833 DUP5 DUP5 DUP5 PUSH1 0x6 ADD PUSH1 0x0 DUP6 DUP2 MSTORE PUSH1 0x20 ADD SWAP1 DUP2 MSTORE PUSH1 0x20 ADD PUSH1 0x0 KECCAK256 PUSH1 0x0 SWAP1 SLOAD SWAP1 PUSH2 0x100 EXP SWAP1 DIV PUSH20 0xFFFFFFFFFFFFFFFFFFFFFFFFFFFFFFFFFFFFFFFF AND PUSH2 0x9D2 JUMP JUMPDEST DUP1 DUP1 PUSH2 0x83E SWAP1 PUSH2 0x1A23 JUMP JUMPDEST SWAP2 POP POP PUSH2 0x7E7 JUMP JUMPDEST POP PUSH2 0x908 JUMP JUMPDEST DUP1 PUSH1 0x2 ADD PUSH1 0x0 SWAP1 SLOAD SWAP1 PUSH2 0x100 EXP SWAP1 DIV PUSH20 0xFFFFFFFFFFFFFFFFFFFFFFFFFFFFFFFFFFFFFFFF AND PUSH20 0xFFFFFFFFFFFFFFFFFFFFFFFFFFFFFFFFFFFFFFFF AND PUSH4 0x23B872DD ADDRESS DUP4 PUSH1 0x0 ADD PUSH1 0x0 SWAP1 SLOAD SWAP1 PUSH2 0x100 EXP SWAP1 DIV PUSH20 0xFFFFFFFFFFFFFFFFFFFFFFFFFFFFFFFFFFFFFFFF AND DUP5 PUSH1 0x3 ADD SLOAD PUSH1 0x40 MLOAD DUP5 PUSH4 0xFFFFFFFF AND PUSH1 0xE0 SHL DUP2 MSTORE PUSH1 0x4 ADD PUSH2 0x8D5 SWAP4 SWAP3 SWAP2 SWAP1 PUSH2 0x1653 JUMP JUMPDEST PUSH1 0x0 PUSH1 0x40 MLOAD DUP1 DUP4 SUB DUP2 PUSH1 0x0 DUP8 DUP1 EXTCODESIZE ISZERO DUP1 ISZERO PUSH2 0x8EF JUMPI PUSH1 0x0 DUP1 REVERT JUMPDEST POP GAS CALL ISZERO DUP1 ISZERO PUSH2 0x903 JUMPI RETURNDATASIZE PUSH1 0x0 DUP1 RETURNDATACOPY RETURNDATASIZE PUSH1 0x0 REVERT JUMPDEST POP POP POP POP JUMPDEST PUSH1 0x1 DUP2 PUSH1 0x0 ADD PUSH1 0x15 PUSH2 0x100 EXP DUP2 SLOAD DUP2 PUSH1 0xFF MUL NOT AND SWAP1 DUP4 ISZERO ISZERO MUL OR SWAP1 SSTORE POP PUSH1 0x0 DUP2 PUSH1 0x0 ADD PUSH1 0x14 PUSH2 0x100 EXP DUP2 SLOAD DUP2 PUSH1 0xFF MUL NOT AND SWAP1 DUP4 ISZERO ISZERO MUL OR SWAP1 SSTORE POP PUSH32 0x7D7570B046E5EAD3A4F3FBC9FA2445113625A1E79823776146316BAFED6B8CC5 DUP2 PUSH1 0x6 ADD PUSH1 0x0 DUP4 PUSH1 0x4 ADD SLOAD DUP2 MSTORE PUSH1 0x20 ADD SWAP1 DUP2 MSTORE PUSH1 0x20 ADD PUSH1 0x0 KECCAK256 PUSH1 0x0 SWAP1 SLOAD SWAP1 PUSH2 0x100 EXP SWAP1 DIV PUSH20 0xFFFFFFFFFFFFFFFFFFFFFFFFFFFFFFFFFFFFFFFF AND DUP3 PUSH1 0x5 ADD PUSH1 0x0 DUP5 PUSH1 0x4 ADD SLOAD DUP2 MSTORE PUSH1 0x20 ADD SWAP1 DUP2 MSTORE PUSH1 0x20 ADD PUSH1 0x0 KECCAK256 SLOAD PUSH1 0x40 MLOAD PUSH2 0x9C5 SWAP3 SWAP2 SWAP1 PUSH2 0x16F9 JUMP JUMPDEST PUSH1 0x40 MLOAD DUP1 SWAP2 SUB SWAP1 LOG1 POP POP POP JUMP JUMPDEST PUSH1 0x0 DUP1 PUSH1 0x0 DUP6 PUSH20 0xFFFFFFFFFFFFFFFFFFFFFFFFFFFFFFFFFFFFFFFF AND PUSH20 0xFFFFFFFFFFFFFFFFFFFFFFFFFFFFFFFFFFFFFFFF AND DUP2 MSTORE PUSH1 0x20 ADD SWAP1 DUP2 MSTORE PUSH1 0x20 ADD PUSH1 0x0 KECCAK256 PUSH1 0x0 DUP5 DUP2 MSTORE PUSH1 0x20 ADD SWAP1 DUP2 MSTORE PUSH1 0x20 ADD PUSH1 0x0 KECCAK256 SWAP1 POP PUSH1 0x0 DUP2 PUSH1 0x7 ADD PUSH1 0x0 DUP5 PUSH20 0xFFFFFFFFFFFFFFFFFFFFFFFFFFFFFFFFFFFFFFFF AND PUSH20 0xFFFFFFFFFFFFFFFFFFFFFFFFFFFFFFFFFFFFFFFF AND DUP2 MSTORE PUSH1 0x20 ADD SWAP1 DUP2 MSTORE PUSH1 0x20 ADD PUSH1 0x0 KECCAK256 SLOAD SWAP1 POP PUSH1 0x0 DUP2 GT DUP1 ISZERO PUSH2 0xA7D JUMPI POP PUSH1 0x1 SLOAD DUP2 GT ISZERO JUMPDEST PUSH2 0xABC JUMPI PUSH1 0x40 MLOAD PUSH32 0x8C379A000000000000000000000000000000000000000000000000000000000 DUP2 MSTORE PUSH1 0x4 ADD PUSH2 0xAB3 SWAP1 PUSH2 0x1822 JUMP JUMPDEST PUSH1 0x40 MLOAD DUP1 SWAP2 SUB SWAP1 REVERT JUMPDEST PUSH1 0x0 DUP3 PUSH1 0x7 ADD PUSH1 0x0 DUP6 PUSH20 0xFFFFFFFFFFFFFFFFFFFFFFFFFFFFFFFFFFFFFFFF AND PUSH20 0xFFFFFFFFFFFFFFFFFFFFFFFFFFFFFFFFFFFFFFFF AND DUP2 MSTORE PUSH1 0x20 ADD SWAP1 DUP2 MSTORE PUSH1 0x20 ADD PUSH1 0x0 KECCAK256 DUP2 SWAP1 SSTORE POP DUP3 PUSH20 0xFFFFFFFFFFFFFFFFFFFFFFFFFFFFFFFFFFFFFFFF AND PUSH2 0x8FC DUP3 SWAP1 DUP2 ISZERO MUL SWAP1 PUSH1 0x40 MLOAD PUSH1 0x0 PUSH1 0x40 MLOAD DUP1 DUP4 SUB DUP2 DUP6 DUP9 DUP9 CALL SWAP4 POP POP POP POP ISZERO DUP1 ISZERO PUSH2 0xB49 JUMPI RETURNDATASIZE PUSH1 0x0 DUP1 RETURNDATACOPY RETURNDATASIZE PUSH1 0x0 REVERT JUMPDEST POP DUP1 PUSH1 0x1 PUSH1 0x0 DUP3 DUP3 SLOAD PUSH2 0xB5C SWAP2 SWAP1 PUSH2 0x1947 JUMP JUMPDEST SWAP3 POP POP DUP2 SWAP1 SSTORE POP DUP3 PUSH20 0xFFFFFFFFFFFFFFFFFFFFFFFFFFFFFFFFFFFFFFFF AND PUSH32 0x884EDAD9CE6FA2440D8A54CC123490EB96D2768479D49FF9C7366125A9424364 DUP3 PUSH1 0x40 MLOAD PUSH2 0xBA9 SWAP2 SWAP1 PUSH2 0x1842 JUMP JUMPDEST PUSH1 0x40 MLOAD DUP1 SWAP2 SUB SWAP1 LOG2 POP POP POP POP POP JUMP JUMPDEST PUSH1 0x1 SLOAD DUP2 JUMP JUMPDEST PUSH1 0x0 DUP1 PUSH1 0x0 DUP7 PUSH20 0xFFFFFFFFFFFFFFFFFFFFFFFFFFFFFFFFFFFFFFFF AND PUSH20 0xFFFFFFFFFFFFFFFFFFFFFFFFFFFFFFFFFFFFFFFF AND DUP2 MSTORE PUSH1 0x20 ADD SWAP1 DUP2 MSTORE PUSH1 0x20 ADD PUSH1 0x0 KECCAK256 PUSH1 0x0 DUP6 DUP2 MSTORE PUSH1 0x20 ADD SWAP1 DUP2 MSTORE PUSH1 0x20 ADD PUSH1 0x0 KECCAK256 SWAP1 POP DUP5 DUP2 PUSH1 0x2 ADD PUSH1 0x0 PUSH2 0x100 EXP DUP2 SLOAD DUP2 PUSH20 0xFFFFFFFFFFFFFFFFFFFFFFFFFFFFFFFFFFFFFFFF MUL NOT AND SWAP1 DUP4 PUSH20 0xFFFFFFFFFFFFFFFFFFFFFFFFFFFFFFFFFFFFFFFF AND MUL OR SWAP1 SSTORE POP DUP1 PUSH1 0x2 ADD PUSH1 0x0 SWAP1 SLOAD SWAP1 PUSH2 0x100 EXP SWAP1 DIV PUSH20 0xFFFFFFFFFFFFFFFFFFFFFFFFFFFFFFFFFFFFFFFF AND PUSH20 0xFFFFFFFFFFFFFFFFFFFFFFFFFFFFFFFFFFFFFFFF AND PUSH4 0x6352211E DUP6 PUSH1 0x40 MLOAD DUP3 PUSH4 0xFFFFFFFF AND PUSH1 0xE0 SHL DUP2 MSTORE PUSH1 0x4 ADD PUSH2 0xCB1 SWAP2 SWAP1 PUSH2 0x1842 JUMP JUMPDEST PUSH1 0x20 PUSH1 0x40 MLOAD DUP1 DUP4 SUB DUP2 DUP7 DUP1 EXTCODESIZE ISZERO DUP1 ISZERO PUSH2 0xCC9 JUMPI PUSH1 0x0 DUP1 REVERT JUMPDEST POP GAS STATICCALL ISZERO DUP1 ISZERO PUSH2 0xCDD JUMPI RETURNDATASIZE PUSH1 0x0 DUP1 RETURNDATACOPY RETURNDATASIZE PUSH1 0x0 REVERT JUMPDEST POP POP POP POP PUSH1 0x40 MLOAD RETURNDATASIZE PUSH1 0x1F NOT PUSH1 0x1F DUP3 ADD AND DUP3 ADD DUP1 PUSH1 0x40 MSTORE POP DUP2 ADD SWAP1 PUSH2 0xD01 SWAP2 SWAP1 PUSH2 0x13B5 JUMP JUMPDEST DUP2 PUSH1 0x0 ADD PUSH1 0x0 PUSH2 0x100 EXP DUP2 SLOAD DUP2 PUSH20 0xFFFFFFFFFFFFFFFFFFFFFFFFFFFFFFFFFFFFFFFF MUL NOT AND SWAP1 DUP4 PUSH20 0xFFFFFFFFFFFFFFFFFFFFFFFFFFFFFFFFFFFFFFFF AND MUL OR SWAP1 SSTORE POP PUSH1 0x0 DUP2 PUSH1 0x0 ADD PUSH1 0x15 PUSH2 0x100 EXP DUP2 SLOAD DUP2 PUSH1 0xFF MUL NOT AND SWAP1 DUP4 ISZERO ISZERO MUL OR SWAP1 SSTORE POP DUP1 PUSH1 0x0 ADD PUSH1 0x14 SWAP1 SLOAD SWAP1 PUSH2 0x100 EXP SWAP1 DIV PUSH1 0xFF AND ISZERO PUSH2 0xDB2 JUMPI PUSH1 0x40 MLOAD PUSH32 0x8C379A000000000000000000000000000000000000000000000000000000000 DUP2 MSTORE PUSH1 0x4 ADD PUSH2 0xDA9 SWAP1 PUSH2 0x1762 JUMP JUMPDEST PUSH1 0x40 MLOAD DUP1 SWAP2 SUB SWAP1 REVERT JUMPDEST DUP1 PUSH1 0x0 ADD PUSH1 0x0 SWAP1 SLOAD SWAP1 PUSH2 0x100 EXP SWAP1 DIV PUSH20 0xFFFFFFFFFFFFFFFFFFFFFFFFFFFFFFFFFFFFFFFF AND PUSH20 0xFFFFFFFFFFFFFFFFFFFFFFFFFFFFFFFFFFFFFFFF AND CALLER PUSH20 0xFFFFFFFFFFFFFFFFFFFFFFFFFFFFFFFFFFFFFFFF AND EQ PUSH2 0xE44 JUMPI PUSH1 0x40 MLOAD PUSH32 0x8C379A000000000000000000000000000000000000000000000000000000000 DUP2 MSTORE PUSH1 0x4 ADD PUSH2 0xE3B SWAP1 PUSH2 0x17C2 JUMP JUMPDEST PUSH1 0x40 MLOAD DUP1 SWAP2 SUB SWAP1 REVERT JUMPDEST PUSH1 0x0 DUP2 PUSH1 0x4 ADD DUP2 SWAP1 SSTORE POP DUP3 DUP2 PUSH1 0x5 ADD PUSH1 0x0 DUP4 PUSH1 0x4 ADD SLOAD DUP2 MSTORE PUSH1 0x20 ADD SWAP1 DUP2 MSTORE PUSH1 0x20 ADD PUSH1 0x0 KECCAK256 DUP2 SWAP1 SSTORE POP DUP1 PUSH1 0x4 ADD PUSH1 0x0 DUP2 SLOAD DUP1 SWAP3 SWAP2 SWAP1 PUSH2 0xE81 SWAP1 PUSH2 0x1A23 JUMP JUMPDEST SWAP2 SWAP1 POP SSTORE POP DUP4 DUP2 PUSH1 0x3 ADD DUP2 SWAP1 SSTORE POP DUP1 PUSH1 0x2 ADD PUSH1 0x0 SWAP1 SLOAD SWAP1 PUSH2 0x100 EXP SWAP1 DIV PUSH20 0xFFFFFFFFFFFFFFFFFFFFFFFFFFFFFFFFFFFFFFFF AND PUSH20 0xFFFFFFFFFFFFFFFFFFFFFFFFFFFFFFFFFFFFFFFF AND PUSH4 0x23B872DD CALLER ADDRESS DUP5 PUSH1 0x3 ADD SLOAD PUSH1 0x40 MLOAD DUP5 PUSH4 0xFFFFFFFF AND PUSH1 0xE0 SHL DUP2 MSTORE PUSH1 0x4 ADD PUSH2 0xEF4 SWAP4 SWAP3 SWAP2 SWAP1 PUSH2 0x1653 JUMP JUMPDEST PUSH1 0x0 PUSH1 0x40 MLOAD DUP1 DUP4 SUB DUP2 PUSH1 0x0 DUP8 DUP1 EXTCODESIZE ISZERO DUP1 ISZERO PUSH2 0xF0E JUMPI PUSH1 0x0 DUP1 REVERT JUMPDEST POP GAS CALL ISZERO DUP1 ISZERO PUSH2 0xF22 JUMPI RETURNDATASIZE PUSH1 0x0 DUP1 RETURNDATACOPY RETURNDATASIZE PUSH1 0x0 REVERT JUMPDEST POP POP POP POP PUSH1 0x1 DUP2 PUSH1 0x0 ADD PUSH1 0x14 PUSH2 0x100 EXP DUP2 SLOAD DUP2 PUSH1 0xFF MUL NOT AND SWAP1 DUP4 ISZERO ISZERO MUL OR SWAP1 SSTORE POP PUSH3 0x15180 DUP3 PUSH2 0xF52 SWAP2 SWAP1 PUSH2 0x18ED JUMP JUMPDEST TIMESTAMP PUSH2 0xF5D SWAP2 SWAP1 PUSH2 0x1897 JUMP JUMPDEST DUP2 PUSH1 0x1 ADD DUP2 SWAP1 SSTORE POP DUP4 DUP6 PUSH20 0xFFFFFFFFFFFFFFFFFFFFFFFFFFFFFFFFFFFFFFFF AND PUSH32 0x3B305515DBE345238649F5CE343C57AE67D5727443F8D744B2B793C3231E3AD9 DUP6 DUP5 PUSH1 0x1 ADD SLOAD PUSH1 0x40 MLOAD PUSH2 0xFB2 SWAP3 SWAP2 SWAP1 PUSH2 0x185D JUMP JUMPDEST PUSH1 0x40 MLOAD DUP1 SWAP2 SUB SWAP1 LOG3 POP POP POP POP POP JUMP JUMPDEST PUSH1 0x0 DUP1 PUSH1 0x0 DUP5 PUSH20 0xFFFFFFFFFFFFFFFFFFFFFFFFFFFFFFFFFFFFFFFF AND PUSH20 0xFFFFFFFFFFFFFFFFFFFFFFFFFFFFFFFFFFFFFFFF AND DUP2 MSTORE PUSH1 0x20 ADD SWAP1 DUP2 MSTORE PUSH1 0x20 ADD PUSH1 0x0 KECCAK256 PUSH1 0x0 DUP4 DUP2 MSTORE PUSH1 0x20 ADD SWAP1 DUP2 MSTORE PUSH1 0x20 ADD PUSH1 0x0 KECCAK256 SWAP1 POP PUSH1 0x0 DUP2 PUSH1 0x7 ADD PUSH1 0x0 CALLER PUSH20 0xFFFFFFFFFFFFFFFFFFFFFFFFFFFFFFFFFFFFFFFF AND PUSH20 0xFFFFFFFFFFFFFFFFFFFFFFFFFFFFFFFFFFFFFFFF AND DUP2 MSTORE PUSH1 0x20 ADD SWAP1 DUP2 MSTORE PUSH1 0x20 ADD PUSH1 0x0 KECCAK256 SLOAD SWAP1 POP PUSH1 0x0 DUP2 EQ ISZERO DUP1 ISZERO PUSH2 0x106D JUMPI POP PUSH1 0x1 SLOAD DUP2 GT ISZERO JUMPDEST PUSH2 0x10AC JUMPI PUSH1 0x40 MLOAD PUSH32 0x8C379A000000000000000000000000000000000000000000000000000000000 DUP2 MSTORE PUSH1 0x4 ADD PUSH2 0x10A3 SWAP1 PUSH2 0x1822 JUMP JUMPDEST PUSH1 0x40 MLOAD DUP1 SWAP2 SUB SWAP1 REVERT JUMPDEST DUP2 PUSH1 0x6 ADD PUSH1 0x0 DUP4 PUSH1 0x4 ADD SLOAD DUP2 MSTORE PUSH1 0x20 ADD SWAP1 DUP2 MSTORE PUSH1 0x20 ADD PUSH1 0x0 KECCAK256 PUSH1 0x0 SWAP1 SLOAD SWAP1 PUSH2 0x100 EXP SWAP1 DIV PUSH20 0xFFFFFFFFFFFFFFFFFFFFFFFFFFFFFFFFFFFFFFFF AND PUSH20 0xFFFFFFFFFFFFFFFFFFFFFFFFFFFFFFFFFFFFFFFF AND CALLER PUSH20 0xFFFFFFFFFFFFFFFFFFFFFFFFFFFFFFFFFFFFFFFF AND EQ ISZERO PUSH2 0x11D2 JUMPI DUP2 PUSH1 0x4 ADD PUSH1 0x0 DUP2 SLOAD PUSH2 0x112A SWAP1 PUSH2 0x19F9 JUMP JUMPDEST SWAP2 SWAP1 POP DUP2 SWAP1 SSTORE POP DUP2 PUSH1 0x6 ADD PUSH1 0x0 DUP4 PUSH1 0x4 ADD SLOAD DUP2 MSTORE PUSH1 0x20 ADD SWAP1 DUP2 MSTORE PUSH1 0x20 ADD PUSH1 0x0 KECCAK256 PUSH1 0x0 SWAP1 SLOAD SWAP1 PUSH2 0x100 EXP SWAP1 DIV PUSH20 0xFFFFFFFFFFFFFFFFFFFFFFFFFFFFFFFFFFFFFFFF AND PUSH20 0xFFFFFFFFFFFFFFFFFFFFFFFFFFFFFFFFFFFFFFFF AND PUSH32 0xE684A55F31B79ECA403DF938249029212A5925EC6BE8012E099B45BC1019E5D2 DUP4 PUSH1 0x5 ADD PUSH1 0x0 DUP6 PUSH1 0x4 ADD SLOAD DUP2 MSTORE PUSH1 0x20 ADD SWAP1 DUP2 MSTORE PUSH1 0x20 ADD PUSH1 0x0 KECCAK256 SLOAD PUSH1 0x40 MLOAD PUSH2 0x11C9 SWAP2 SWAP1 PUSH2 0x1842 JUMP JUMPDEST PUSH1 0x40 MLOAD DUP1 SWAP2 SUB SWAP1 LOG2 JUMPDEST PUSH1 0x0 DUP3 PUSH1 0x7 ADD PUSH1 0x0 CALLER PUSH20 0xFFFFFFFFFFFFFFFFFFFFFFFFFFFFFFFFFFFFFFFF AND PUSH20 0xFFFFFFFFFFFFFFFFFFFFFFFFFFFFFFFFFFFFFFFF AND DUP2 MSTORE PUSH1 0x20 ADD SWAP1 DUP2 MSTORE PUSH1 0x20 ADD PUSH1 0x0 KECCAK256 DUP2 SWAP1 SSTORE POP CALLER PUSH20 0xFFFFFFFFFFFFFFFFFFFFFFFFFFFFFFFFFFFFFFFF AND PUSH2 0x8FC DUP3 SWAP1 DUP2 ISZERO MUL SWAP1 PUSH1 0x40 MLOAD PUSH1 0x0 PUSH1 0x40 MLOAD DUP1 DUP4 SUB DUP2 DUP6 DUP9 DUP9 CALL SWAP4 POP POP POP POP ISZERO DUP1 ISZERO PUSH2 0x125F JUMPI RETURNDATASIZE PUSH1 0x0 DUP1 RETURNDATACOPY RETURNDATASIZE PUSH1 0x0 REVERT JUMPDEST POP DUP1 PUSH1 0x1 PUSH1 0x0 DUP3 DUP3 SLOAD PUSH2 0x1272 SWAP2 SWAP1 PUSH2 0x1947 JUMP JUMPDEST SWAP3 POP POP DUP2 SWAP1 SSTORE POP CALLER PUSH20 0xFFFFFFFFFFFFFFFFFFFFFFFFFFFFFFFFFFFFFFFF AND PUSH32 0x884EDAD9CE6FA2440D8A54CC123490EB96D2768479D49FF9C7366125A9424364 DUP3 PUSH1 0x40 MLOAD PUSH2 0x12BF SWAP2 SWAP1 PUSH2 0x1842 JUMP JUMPDEST PUSH1 0x40 MLOAD DUP1 SWAP2 SUB SWAP1 LOG2 POP POP POP POP JUMP JUMPDEST PUSH1 0x0 PUSH1 0x20 MSTORE DUP2 PUSH1 0x0 MSTORE PUSH1 0x40 PUSH1 0x0 KECCAK256 PUSH1 0x20 MSTORE DUP1 PUSH1 0x0 MSTORE PUSH1 0x40 PUSH1 0x0 KECCAK256 PUSH1 0x0 SWAP2 POP SWAP2 POP POP DUP1 PUSH1 0x0 ADD PUSH1 0x0 SWAP1 SLOAD SWAP1 PUSH2 0x100 EXP SWAP1 DIV PUSH20 0xFFFFFFFFFFFFFFFFFFFFFFFFFFFFFFFFFFFFFFFF AND SWAP1 DUP1 PUSH1 0x0 ADD PUSH1 0x14 SWAP1 SLOAD SWAP1 PUSH2 0x100 EXP SWAP1 DIV PUSH1 0xFF AND SWAP1 DUP1 PUSH1 0x0 ADD PUSH1 0x15 SWAP1 SLOAD SWAP1 PUSH2 0x100 EXP SWAP1 DIV PUSH1 0xFF AND SWAP1 DUP1 PUSH1 0x1 ADD SLOAD SWAP1 DUP1 PUSH1 0x2 ADD PUSH1 0x0 SWAP1 SLOAD SWAP1 PUSH2 0x100 EXP SWAP1 DIV PUSH20 0xFFFFFFFFFFFFFFFFFFFFFFFFFFFFFFFFFFFFFFFF AND SWAP1 DUP1 PUSH1 0x3 ADD SLOAD SWAP1 DUP1 PUSH1 0x4 ADD SLOAD SWAP1 POP DUP8 JUMP JUMPDEST PUSH1 0x0 DUP2 CALLDATALOAD SWAP1 POP PUSH2 0x1385 DUP2 PUSH2 0x1C11 JUMP JUMPDEST SWAP3 SWAP2 POP POP JUMP JUMPDEST PUSH1 0x0 DUP2 MLOAD SWAP1 POP PUSH2 0x139A DUP2 PUSH2 0x1C11 JUMP JUMPDEST SWAP3 SWAP2 POP POP JUMP JUMPDEST PUSH1 0x0 DUP2 CALLDATALOAD SWAP1 POP PUSH2 0x13AF DUP2 PUSH2 0x1C28 JUMP JUMPDEST SWAP3 SWAP2 POP POP JUMP JUMPDEST PUSH1 0x0 PUSH1 0x20 DUP3 DUP5 SUB SLT ISZERO PUSH2 0x13CB JUMPI PUSH2 0x13CA PUSH2 0x1A9B JUMP JUMPDEST JUMPDEST PUSH1 0x0 PUSH2 0x13D9 DUP5 DUP3 DUP6 ADD PUSH2 0x138B JUMP JUMPDEST SWAP2 POP POP SWAP3 SWAP2 POP POP JUMP JUMPDEST PUSH1 0x0 DUP1 PUSH1 0x40 DUP4 DUP6 SUB SLT ISZERO PUSH2 0x13F9 JUMPI PUSH2 0x13F8 PUSH2 0x1A9B JUMP JUMPDEST JUMPDEST PUSH1 0x0 PUSH2 0x1407 DUP6 DUP3 DUP7 ADD PUSH2 0x1376 JUMP JUMPDEST SWAP3 POP POP PUSH1 0x20 PUSH2 0x1418 DUP6 DUP3 DUP7 ADD PUSH2 0x13A0 JUMP JUMPDEST SWAP2 POP POP SWAP3 POP SWAP3 SWAP1 POP JUMP JUMPDEST PUSH1 0x0 DUP1 PUSH1 0x0 PUSH1 0x60 DUP5 DUP7 SUB SLT ISZERO PUSH2 0x143B JUMPI PUSH2 0x143A PUSH2 0x1A9B JUMP JUMPDEST JUMPDEST PUSH1 0x0 PUSH2 0x1449 DUP7 DUP3 DUP8 ADD PUSH2 0x1376 JUMP JUMPDEST SWAP4 POP POP PUSH1 0x20 PUSH2 0x145A DUP7 DUP3 DUP8 ADD PUSH2 0x13A0 JUMP JUMPDEST SWAP3 POP POP PUSH1 0x40 PUSH2 0x146B DUP7 DUP3 DUP8 ADD PUSH2 0x1376 JUMP JUMPDEST SWAP2 POP POP SWAP3 POP SWAP3 POP SWAP3 JUMP JUMPDEST PUSH1 0x0 DUP1 PUSH1 0x0 DUP1 PUSH1 0x80 DUP6 DUP8 SUB SLT ISZERO PUSH2 0x148F JUMPI PUSH2 0x148E PUSH2 0x1A9B JUMP JUMPDEST JUMPDEST PUSH1 0x0 PUSH2 0x149D DUP8 DUP3 DUP9 ADD PUSH2 0x1376 JUMP JUMPDEST SWAP5 POP POP PUSH1 0x20 PUSH2 0x14AE DUP8 DUP3 DUP9 ADD PUSH2 0x13A0 JUMP JUMPDEST SWAP4 POP POP PUSH1 0x40 PUSH2 0x14BF DUP8 DUP3 DUP9 ADD PUSH2 0x13A0 JUMP JUMPDEST SWAP3 POP POP PUSH1 0x60 PUSH2 0x14D0 DUP8 DUP3 DUP9 ADD PUSH2 0x13A0 JUMP JUMPDEST SWAP2 POP POP SWAP3 SWAP6 SWAP2 SWAP5 POP SWAP3 POP JUMP JUMPDEST PUSH2 0x14E5 DUP2 PUSH2 0x197B JUMP JUMPDEST DUP3 MSTORE POP POP JUMP JUMPDEST PUSH2 0x14F4 DUP2 PUSH2 0x198D JUMP JUMPDEST DUP3 MSTORE POP POP JUMP JUMPDEST PUSH2 0x1503 DUP2 PUSH2 0x19C3 JUMP JUMPDEST DUP3 MSTORE POP POP JUMP JUMPDEST PUSH1 0x0 PUSH2 0x1516 PUSH1 0xA DUP4 PUSH2 0x1886 JUMP JUMPDEST SWAP2 POP PUSH2 0x1521 DUP3 PUSH2 0x1AA0 JUMP JUMPDEST PUSH1 0x20 DUP3 ADD SWAP1 POP SWAP2 SWAP1 POP JUMP JUMPDEST PUSH1 0x0 PUSH2 0x1539 PUSH1 0x19 DUP4 PUSH2 0x1886 JUMP JUMPDEST SWAP2 POP PUSH2 0x1544 DUP3 PUSH2 0x1AC9 JUMP JUMPDEST PUSH1 0x20 DUP3 ADD SWAP1 POP SWAP2 SWAP1 POP JUMP JUMPDEST PUSH1 0x0 PUSH2 0x155C PUSH1 0x10 DUP4 PUSH2 0x1886 JUMP JUMPDEST SWAP2 POP PUSH2 0x1567 DUP3 PUSH2 0x1AF2 JUMP JUMPDEST PUSH1 0x20 DUP3 ADD SWAP1 POP SWAP2 SWAP1 POP JUMP JUMPDEST PUSH1 0x0 PUSH2 0x157F PUSH1 0x6 DUP4 PUSH2 0x1886 JUMP JUMPDEST SWAP2 POP PUSH2 0x158A DUP3 PUSH2 0x1B1B JUMP JUMPDEST PUSH1 0x20 DUP3 ADD SWAP1 POP SWAP2 SWAP1 POP JUMP JUMPDEST PUSH1 0x0 PUSH2 0x15A2 PUSH1 0x18 DUP4 PUSH2 0x1886 JUMP JUMPDEST SWAP2 POP PUSH2 0x15AD DUP3 PUSH2 0x1B44 JUMP JUMPDEST PUSH1 0x20 DUP3 ADD SWAP1 POP SWAP2 SWAP1 POP JUMP JUMPDEST PUSH1 0x0 PUSH2 0x15C5 PUSH1 0x1E DUP4 PUSH2 0x1886 JUMP JUMPDEST SWAP2 POP PUSH2 0x15D0 DUP3 PUSH2 0x1B6D JUMP JUMPDEST PUSH1 0x20 DUP3 ADD SWAP1 POP SWAP2 SWAP1 POP JUMP JUMPDEST PUSH1 0x0 PUSH2 0x15E8 PUSH1 0xC DUP4 PUSH2 0x1886 JUMP JUMPDEST SWAP2 POP PUSH2 0x15F3 DUP3 PUSH2 0x1B96 JUMP JUMPDEST PUSH1 0x20 DUP3 ADD SWAP1 POP SWAP2 SWAP1 POP JUMP JUMPDEST PUSH1 0x0 PUSH2 0x160B PUSH1 0x16 DUP4 PUSH2 0x1886 JUMP JUMPDEST SWAP2 POP PUSH2 0x1616 DUP3 PUSH2 0x1BBF JUMP JUMPDEST PUSH1 0x20 DUP3 ADD SWAP1 POP SWAP2 SWAP1 POP JUMP JUMPDEST PUSH1 0x0 PUSH2 0x162E PUSH1 0x12 DUP4 PUSH2 0x1886 JUMP JUMPDEST SWAP2 POP PUSH2 0x1639 DUP3 PUSH2 0x1BE8 JUMP JUMPDEST PUSH1 0x20 DUP3 ADD SWAP1 POP SWAP2 SWAP1 POP JUMP JUMPDEST PUSH2 0x164D DUP2 PUSH2 0x19B9 JUMP JUMPDEST DUP3 MSTORE POP POP JUMP JUMPDEST PUSH1 0x0 PUSH1 0x60 DUP3 ADD SWAP1 POP PUSH2 0x1668 PUSH1 0x0 DUP4 ADD DUP7 PUSH2 0x14DC JUMP JUMPDEST PUSH2 0x1675 PUSH1 0x20 DUP4 ADD DUP6 PUSH2 0x14DC JUMP JUMPDEST PUSH2 0x1682 PUSH1 0x40 DUP4 ADD DUP5 PUSH2 0x1644 JUMP JUMPDEST SWAP5 SWAP4 POP POP POP POP JUMP JUMPDEST PUSH1 0x0 PUSH1 0xE0 DUP3 ADD SWAP1 POP PUSH2 0x169F PUSH1 0x0 DUP4 ADD DUP11 PUSH2 0x14DC JUMP JUMPDEST PUSH2 0x16AC PUSH1 0x20 DUP4 ADD DUP10 PUSH2 0x14EB JUMP JUMPDEST PUSH2 0x16B9 PUSH1 0x40 DUP4 ADD DUP9 PUSH2 0x14EB JUMP JUMPDEST PUSH2 0x16C6 PUSH1 0x60 DUP4 ADD DUP8 PUSH2 0x1644 JUMP JUMPDEST PUSH2 0x16D3 PUSH1 0x80 DUP4 ADD DUP7 PUSH2 0x14FA JUMP JUMPDEST PUSH2 0x16E0 PUSH1 0xA0 DUP4 ADD DUP6 PUSH2 0x1644 JUMP JUMPDEST PUSH2 0x16ED PUSH1 0xC0 DUP4 ADD DUP5 PUSH2 0x1644 JUMP JUMPDEST SWAP9 SWAP8 POP POP POP POP POP POP POP POP JUMP JUMPDEST PUSH1 0x0 PUSH1 0x40 DUP3 ADD SWAP1 POP PUSH2 0x170E PUSH1 0x0 DUP4 ADD DUP6 PUSH2 0x14DC JUMP JUMPDEST PUSH2 0x171B PUSH1 0x20 DUP4 ADD DUP5 PUSH2 0x1644 JUMP JUMPDEST SWAP4 SWAP3 POP POP POP JUMP JUMPDEST PUSH1 0x0 PUSH1 0x20 DUP3 ADD SWAP1 POP DUP2 DUP2 SUB PUSH1 0x0 DUP4 ADD MSTORE PUSH2 0x173B DUP2 PUSH2 0x1509 JUMP JUMPDEST SWAP1 POP SWAP2 SWAP1 POP JUMP JUMPDEST PUSH1 0x0 PUSH1 0x20 DUP3 ADD SWAP1 POP DUP2 DUP2 SUB PUSH1 0x0 DUP4 ADD MSTORE PUSH2 0x175B DUP2 PUSH2 0x152C JUMP JUMPDEST SWAP1 POP SWAP2 SWAP1 POP JUMP JUMPDEST PUSH1 0x0 PUSH1 0x20 DUP3 ADD SWAP1 POP DUP2 DUP2 SUB PUSH1 0x0 DUP4 ADD MSTORE PUSH2 0x177B DUP2 PUSH2 0x154F JUMP JUMPDEST SWAP1 POP SWAP2 SWAP1 POP JUMP JUMPDEST PUSH1 0x0 PUSH1 0x20 DUP3 ADD SWAP1 POP DUP2 DUP2 SUB PUSH1 0x0 DUP4 ADD MSTORE PUSH2 0x179B DUP2 PUSH2 0x1572 JUMP JUMPDEST SWAP1 POP SWAP2 SWAP1 POP JUMP JUMPDEST PUSH1 0x0 PUSH1 0x20 DUP3 ADD SWAP1 POP DUP2 DUP2 SUB PUSH1 0x0 DUP4 ADD MSTORE PUSH2 0x17BB DUP2 PUSH2 0x1595 JUMP JUMPDEST SWAP1 POP SWAP2 SWAP1 POP JUMP JUMPDEST PUSH1 0x0 PUSH1 0x20 DUP3 ADD SWAP1 POP DUP2 DUP2 SUB PUSH1 0x0 DUP4 ADD MSTORE PUSH2 0x17DB DUP2 PUSH2 0x15B8 JUMP JUMPDEST SWAP1 POP SWAP2 SWAP1 POP JUMP JUMPDEST PUSH1 0x0 PUSH1 0x20 DUP3 ADD SWAP1 POP DUP2 DUP2 SUB PUSH1 0x0 DUP4 ADD MSTORE PUSH2 0x17FB DUP2 PUSH2 0x15DB JUMP JUMPDEST SWAP1 POP SWAP2 SWAP1 POP JUMP JUMPDEST PUSH1 0x0 PUSH1 0x20 DUP3 ADD SWAP1 POP DUP2 DUP2 SUB PUSH1 0x0 DUP4 ADD MSTORE PUSH2 0x181B DUP2 PUSH2 0x15FE JUMP JUMPDEST SWAP1 POP SWAP2 SWAP1 POP JUMP JUMPDEST PUSH1 0x0 PUSH1 0x20 DUP3 ADD SWAP1 POP DUP2 DUP2 SUB PUSH1 0x0 DUP4 ADD MSTORE PUSH2 0x183B DUP2 PUSH2 0x1621 JUMP JUMPDEST SWAP1 POP SWAP2 SWAP1 POP JUMP JUMPDEST PUSH1 0x0 PUSH1 0x20 DUP3 ADD SWAP1 POP PUSH2 0x1857 PUSH1 0x0 DUP4 ADD DUP5 PUSH2 0x1644 JUMP JUMPDEST SWAP3 SWAP2 POP POP JUMP JUMPDEST PUSH1 0x0 PUSH1 0x40 DUP3 ADD SWAP1 POP PUSH2 0x1872 PUSH1 0x0 DUP4 ADD DUP6 PUSH2 0x1644 JUMP JUMPDEST PUSH2 0x187F PUSH1 0x20 DUP4 ADD DUP5 PUSH2 0x1644 JUMP JUMPDEST SWAP4 SWAP3 POP POP POP JUMP JUMPDEST PUSH1 0x0 DUP3 DUP3 MSTORE PUSH1 0x20 DUP3 ADD SWAP1 POP SWAP3 SWAP2 POP POP JUMP JUMPDEST PUSH1 0x0 PUSH2 0x18A2 DUP3 PUSH2 0x19B9 JUMP JUMPDEST SWAP2 POP PUSH2 0x18AD DUP4 PUSH2 0x19B9 JUMP JUMPDEST SWAP3 POP DUP3 PUSH32 0xFFFFFFFFFFFFFFFFFFFFFFFFFFFFFFFFFFFFFFFFFFFFFFFFFFFFFFFFFFFFFFFF SUB DUP3 GT ISZERO PUSH2 0x18E2 JUMPI PUSH2 0x18E1 PUSH2 0x1A6C JUMP JUMPDEST JUMPDEST DUP3 DUP3 ADD SWAP1 POP SWAP3 SWAP2 POP POP JUMP JUMPDEST PUSH1 0x0 PUSH2 0x18F8 DUP3 PUSH2 0x19B9 JUMP JUMPDEST SWAP2 POP PUSH2 0x1903 DUP4 PUSH2 0x19B9 JUMP JUMPDEST SWAP3 POP DUP2 PUSH32 0xFFFFFFFFFFFFFFFFFFFFFFFFFFFFFFFFFFFFFFFFFFFFFFFFFFFFFFFFFFFFFFFF DIV DUP4 GT DUP3 ISZERO ISZERO AND ISZERO PUSH2 0x193C JUMPI PUSH2 0x193B PUSH2 0x1A6C JUMP JUMPDEST JUMPDEST DUP3 DUP3 MUL SWAP1 POP SWAP3 SWAP2 POP POP JUMP JUMPDEST PUSH1 0x0 PUSH2 0x1952 DUP3 PUSH2 0x19B9 JUMP JUMPDEST SWAP2 POP PUSH2 0x195D DUP4 PUSH2 0x19B9 JUMP JUMPDEST SWAP3 POP DUP3 DUP3 LT ISZERO PUSH2 0x1970 JUMPI PUSH2 0x196F PUSH2 0x1A6C JUMP JUMPDEST JUMPDEST DUP3 DUP3 SUB SWAP1 POP SWAP3 SWAP2 POP POP JUMP JUMPDEST PUSH1 0x0 PUSH2 0x1986 DUP3 PUSH2 0x1999 JUMP JUMPDEST SWAP1 POP SWAP2 SWAP1 POP JUMP JUMPDEST PUSH1 0x0 DUP2 ISZERO ISZERO SWAP1 POP SWAP2 SWAP1 POP JUMP JUMPDEST PUSH1 0x0 PUSH20 0xFFFFFFFFFFFFFFFFFFFFFFFFFFFFFFFFFFFFFFFF DUP3 AND SWAP1 POP SWAP2 SWAP1 POP JUMP JUMPDEST PUSH1 0x0 DUP2 SWAP1 POP SWAP2 SWAP1 POP JUMP JUMPDEST PUSH1 0x0 PUSH2 0x19CE DUP3 PUSH2 0x19D5 JUMP JUMPDEST SWAP1 POP SWAP2 SWAP1 POP JUMP JUMPDEST PUSH1 0x0 PUSH2 0x19E0 DUP3 PUSH2 0x19E7 JUMP JUMPDEST SWAP1 POP SWAP2 SWAP1 POP JUMP JUMPDEST PUSH1 0x0 PUSH2 0x19F2 DUP3 PUSH2 0x1999 JUMP JUMPDEST SWAP1 POP SWAP2 SWAP1 POP JUMP JUMPDEST PUSH1 0x0 PUSH2 0x1A04 DUP3 PUSH2 0x19B9 JUMP JUMPDEST SWAP2 POP PUSH1 0x0 DUP3 EQ ISZERO PUSH2 0x1A18 JUMPI PUSH2 0x1A17 PUSH2 0x1A6C JUMP JUMPDEST JUMPDEST PUSH1 0x1 DUP3 SUB SWAP1 POP SWAP2 SWAP1 POP JUMP JUMPDEST PUSH1 0x0 PUSH2 0x1A2E DUP3 PUSH2 0x19B9 JUMP JUMPDEST SWAP2 POP PUSH32 0xFFFFFFFFFFFFFFFFFFFFFFFFFFFFFFFFFFFFFFFFFFFFFFFFFFFFFFFFFFFFFFFF DUP3 EQ ISZERO PUSH2 0x1A61 JUMPI PUSH2 0x1A60 PUSH2 0x1A6C JUMP JUMPDEST JUMPDEST PUSH1 0x1 DUP3 ADD SWAP1 POP SWAP2 SWAP1 POP JUMP JUMPDEST PUSH32 0x4E487B7100000000000000000000000000000000000000000000000000000000 PUSH1 0x0 MSTORE PUSH1 0x11 PUSH1 0x4 MSTORE PUSH1 0x24 PUSH1 0x0 REVERT JUMPDEST PUSH1 0x0 DUP1 REVERT JUMPDEST PUSH32 0x4C6F776572206269642100000000000000000000000000000000000000000000 PUSH1 0x0 DUP3 ADD MSTORE POP JUMP JUMPDEST PUSH32 0x41756374696F6E206973207374696C6C206F6E676F696E672100000000000000 PUSH1 0x0 DUP3 ADD MSTORE POP JUMP JUMPDEST PUSH32 0x416C726561647920737461727465642100000000000000000000000000000000 PUSH1 0x0 DUP3 ADD MSTORE POP JUMP JUMPDEST PUSH32 0x456E646564210000000000000000000000000000000000000000000000000000 PUSH1 0x0 DUP3 ADD MSTORE POP JUMP JUMPDEST PUSH32 0x596F75206E65656420746F207374617274206669727374210000000000000000 PUSH1 0x0 DUP3 ADD MSTORE POP JUMP JUMPDEST PUSH32 0x596F752063616E206E6F74207374617274207468652061756374696F6E210000 PUSH1 0x0 DUP3 ADD MSTORE POP JUMP JUMPDEST PUSH32 0x4E6F7420737461727465642E0000000000000000000000000000000000000000 PUSH1 0x0 DUP3 ADD MSTORE POP JUMP JUMPDEST PUSH32 0x41756374696F6E20616C726561647920656E6465642100000000000000000000 PUSH1 0x0 DUP3 ADD MSTORE POP JUMP JUMPDEST PUSH32 0x436F756C64206E6F742077697468647261770000000000000000000000000000 PUSH1 0x0 DUP3 ADD MSTORE POP JUMP JUMPDEST PUSH2 0x1C1A DUP2 PUSH2 0x197B JUMP JUMPDEST DUP2 EQ PUSH2 0x1C25 JUMPI PUSH1 0x0 DUP1 REVERT JUMPDEST POP JUMP JUMPDEST PUSH2 0x1C31 DUP2 PUSH2 0x19B9 JUMP JUMPDEST DUP2 EQ PUSH2 0x1C3C JUMPI PUSH1 0x0 DUP1 REVERT JUMPDEST POP JUMP INVALID LOG2 PUSH5 0x6970667358 0x22 SLT KECCAK256 0x4D 0xD6 0xD2 0xCC 0xEF 0xC2 0xCF PUSH9 0xA91D36AC460B8DE7E9 0xB4 0x5F 0xD8 LOG0 DIFFICULTY PUSH27 0x71784B0A928EF9D5D964736F6C6343000807003300000000000000 "
				},
				"gasEstimates": {
					"creation": {
						"codeDepositCost": "1457000",
						"executionCost": "1520",
						"totalCost": "1458520"
					},
					"external": {
						"autoWithdraw(address,uint256,address)": "infinite",
						"balances()": "2429",
						"bid(address,uint256)": "infinite",
						"biddings(address,uint256)": "infinite",
						"end(address,uint256)": "infinite",
						"start(address,uint256,uint256,uint256)": "infinite",
						"withdraw(address,uint256)": "infinite"
					}
				},
				"methodIdentifiers": {
					"autoWithdraw(address,uint256,address)": "699ff43f",
					"balances()": "7bb98a68",
					"bid(address,uint256)": "59d667a5",
					"biddings(address,uint256)": "f48e9b3d",
					"end(address,uint256)": "695d69ba",
					"start(address,uint256,uint256,uint256)": "b76a3b5a",
					"withdraw(address,uint256)": "f3fef3a3"
				}
			},
			"storageLayout": {
				"storage": [
					{
						"astId": 70,
						"contract": "Bid.sol:Auction",
						"label": "biddings",
						"offset": 0,
						"slot": "0",
						"type": "t_mapping(t_address,t_mapping(t_uint256,t_struct(Bidding)100_storage))"
					},
					{
						"astId": 72,
						"contract": "Bid.sol:Auction",
						"label": "balances",
						"offset": 0,
						"slot": "1",
						"type": "t_uint256"
					}
				],
				"types": {
					"t_address": {
						"encoding": "inplace",
						"label": "address",
						"numberOfBytes": "20"
					},
					"t_bool": {
						"encoding": "inplace",
						"label": "bool",
						"numberOfBytes": "1"
					},
					"t_contract(ERC721)18": {
						"encoding": "inplace",
						"label": "contract ERC721",
						"numberOfBytes": "20"
					},
					"t_mapping(t_address,t_mapping(t_uint256,t_struct(Bidding)100_storage))": {
						"encoding": "mapping",
						"key": "t_address",
						"label": "mapping(address => mapping(uint256 => struct Auction.Bidding))",
						"numberOfBytes": "32",
						"value": "t_mapping(t_uint256,t_struct(Bidding)100_storage)"
					},
					"t_mapping(t_address,t_uint256)": {
						"encoding": "mapping",
						"key": "t_address",
						"label": "mapping(address => uint256)",
						"numberOfBytes": "32",
						"value": "t_uint256"
					},
					"t_mapping(t_uint256,t_address)": {
						"encoding": "mapping",
						"key": "t_uint256",
						"label": "mapping(uint256 => address)",
						"numberOfBytes": "32",
						"value": "t_address"
					},
					"t_mapping(t_uint256,t_struct(Bidding)100_storage)": {
						"encoding": "mapping",
						"key": "t_uint256",
						"label": "mapping(uint256 => struct Auction.Bidding)",
						"numberOfBytes": "32",
						"value": "t_struct(Bidding)100_storage"
					},
					"t_mapping(t_uint256,t_uint256)": {
						"encoding": "mapping",
						"key": "t_uint256",
						"label": "mapping(uint256 => uint256)",
						"numberOfBytes": "32",
						"value": "t_uint256"
					},
					"t_struct(Bidding)100_storage": {
						"encoding": "inplace",
						"label": "struct Auction.Bidding",
						"members": [
							{
								"astId": 74,
								"contract": "Bid.sol:Auction",
								"label": "seller",
								"offset": 0,
								"slot": "0",
								"type": "t_address"
							},
							{
								"astId": 76,
								"contract": "Bid.sol:Auction",
								"label": "started",
								"offset": 20,
								"slot": "0",
								"type": "t_bool"
							},
							{
								"astId": 78,
								"contract": "Bid.sol:Auction",
								"label": "ended",
								"offset": 21,
								"slot": "0",
								"type": "t_bool"
							},
							{
								"astId": 80,
								"contract": "Bid.sol:Auction",
								"label": "endAt",
								"offset": 0,
								"slot": "1",
								"type": "t_uint256"
							},
							{
								"astId": 83,
								"contract": "Bid.sol:Auction",
								"label": "tokenAddr",
								"offset": 0,
								"slot": "2",
								"type": "t_contract(ERC721)18"
							},
							{
								"astId": 85,
								"contract": "Bid.sol:Auction",
								"label": "tokenId",
								"offset": 0,
								"slot": "3",
								"type": "t_uint256"
							},
							{
								"astId": 87,
								"contract": "Bid.sol:Auction",
								"label": "bidCount",
								"offset": 0,
								"slot": "4",
								"type": "t_uint256"
							},
							{
								"astId": 91,
								"contract": "Bid.sol:Auction",
								"label": "highestBid",
								"offset": 0,
								"slot": "5",
								"type": "t_mapping(t_uint256,t_uint256)"
							},
							{
								"astId": 95,
								"contract": "Bid.sol:Auction",
								"label": "highestBidder",
								"offset": 0,
								"slot": "6",
								"type": "t_mapping(t_uint256,t_address)"
							},
							{
								"astId": 99,
								"contract": "Bid.sol:Auction",
								"label": "bids",
								"offset": 0,
								"slot": "7",
								"type": "t_mapping(t_address,t_uint256)"
							}
						],
						"numberOfBytes": "256"
					},
					"t_uint256": {
						"encoding": "inplace",
						"label": "uint256",
						"numberOfBytes": "32"
					}
				}
			},
			"userdoc": {
				"kind": "user",
				"methods": {},
				"version": 1
			}
		}
	}
}